{
  "contractName": "AddressWhiteList",
  "abi": [
    {
      "constant": true,
      "inputs": [
        {
          "name": "",
          "type": "uint256"
        }
      ],
      "name": "whiteList",
      "outputs": [
        {
          "name": "",
          "type": "address"
        }
      ],
      "payable": false,
      "stateMutability": "view",
      "type": "function"
    },
    {
      "constant": false,
      "inputs": [],
      "name": "renounceOwnership",
      "outputs": [],
      "payable": false,
      "stateMutability": "nonpayable",
      "type": "function"
    },
    {
      "constant": true,
      "inputs": [],
      "name": "owner",
      "outputs": [
        {
          "name": "",
          "type": "address"
        }
      ],
      "payable": false,
      "stateMutability": "view",
      "type": "function"
    },
    {
      "constant": true,
      "inputs": [],
      "name": "isOwner",
      "outputs": [
        {
          "name": "",
          "type": "bool"
        }
      ],
      "payable": false,
      "stateMutability": "view",
      "type": "function"
    },
    {
      "constant": true,
      "inputs": [],
      "name": "halted",
      "outputs": [
        {
          "name": "",
          "type": "bool"
        }
      ],
      "payable": false,
      "stateMutability": "view",
      "type": "function"
    },
    {
      "constant": false,
      "inputs": [
        {
          "name": "newOwner",
          "type": "address"
        }
      ],
      "name": "transferOwnership",
      "outputs": [],
      "payable": false,
      "stateMutability": "nonpayable",
      "type": "function"
    },
    {
      "constant": false,
      "inputs": [
        {
          "name": "halt",
          "type": "bool"
        }
      ],
      "name": "setHalt",
      "outputs": [],
      "payable": false,
      "stateMutability": "nonpayable",
      "type": "function"
    },
    {
      "anonymous": false,
      "inputs": [
        {
          "indexed": true,
          "name": "previousOwner",
          "type": "address"
        },
        {
          "indexed": true,
          "name": "newOwner",
          "type": "address"
        }
      ],
      "name": "OwnershipTransferred",
      "type": "event"
    },
    {
      "constant": false,
      "inputs": [
        {
          "name": "addAddress",
          "type": "address"
        }
      ],
      "name": "addWhiteList",
      "outputs": [],
      "payable": false,
      "stateMutability": "nonpayable",
      "type": "function"
    },
    {
      "constant": false,
      "inputs": [
        {
          "name": "removeAddress",
          "type": "address"
        }
      ],
      "name": "removeWhiteList",
      "outputs": [
        {
          "name": "",
          "type": "bool"
        }
      ],
      "payable": false,
      "stateMutability": "nonpayable",
      "type": "function"
    },
    {
      "constant": true,
      "inputs": [],
      "name": "getWhiteList",
      "outputs": [
        {
          "name": "",
          "type": "address[]"
        }
      ],
      "payable": false,
      "stateMutability": "view",
      "type": "function"
    },
    {
      "constant": true,
      "inputs": [
        {
          "name": "tmpAddress",
          "type": "address"
        }
      ],
      "name": "isEligibleAddress",
      "outputs": [
        {
          "name": "",
          "type": "bool"
        }
      ],
      "payable": false,
      "stateMutability": "view",
      "type": "function"
    },
    {
      "constant": true,
      "inputs": [
        {
          "name": "tmpAddress",
          "type": "address"
        }
      ],
      "name": "checkEligibleAddress",
      "outputs": [],
      "payable": false,
      "stateMutability": "view",
      "type": "function"
    }
  ],
  "bytecode": "0x6080604081905260008054600160a860020a0319163317808255600160a060020a0316917f8be0079c531659141344cd1fd0a4f28419497f9722a3daafe3b4186f6b6457e0908290a3610a1a806100576000396000f3006080604052600436106100b95763ffffffff7c010000000000000000000000000000000000000000000000000000000060003504166309a9d76c81146100be5780632042e5c2146101235780635c475d4214610158578063715018a61461018c578063817bf86d146101a35780638da5cb5b146101c45780638f32d59b146101d9578063b9b8af0b146101ee578063e7cd4a0414610203578063f2fde38b14610224578063f495438714610245578063f939fdca1461025f575b600080fd5b3480156100ca57600080fd5b506100d3610280565b60408051602080825283518183015283519192839290830191858101910280838360005b8381101561010f5781810151838201526020016100f7565b505050509050019250505060405180910390f35b34801561012f57600080fd5b50610144600160a060020a03600435166102e3565b604080519115158252519081900360200190f35b34801561016457600080fd5b50610170600435610342565b60408051600160a060020a039092168252519081900360200190f35b34801561019857600080fd5b506101a161036a565b005b3480156101af57600080fd5b50610144600160a060020a036004351661040d565b3480156101d057600080fd5b50610170610473565b3480156101e557600080fd5b50610144610482565b3480156101fa57600080fd5b50610144610493565b34801561020f57600080fd5b506101a1600160a060020a03600435166104b4565b34801561023057600080fd5b506101a1600160a060020a036004351661050e565b34801561025157600080fd5b506101a16004351515610563565b34801561026b57600080fd5b506101a1600160a060020a03600435166105ef565b606060018054806020026020016040519081016040528092919081815260200182805480156102d857602002820191906000526020600020905b8154600160a060020a031681526001909101906020018083116102ba575b505050505090505b90565b60006102ed610482565b1515610331576040805160e560020a62461bcd02815260206004820181905260248201526000805160206109cf833981519152604482015290519081900360640190fd5b61033c600183610653565b92915050565b600180548290811061035057fe5b600091825260209091200154600160a060020a0316905081565b610372610482565b15156103b6576040805160e560020a62461bcd02815260206004820181905260248201526000805160206109cf833981519152604482015290519081900360640190fd5b60008054604051600160a060020a03909116907f8be0079c531659141344cd1fd0a4f28419497f9722a3daafe3b4186f6b6457e0908390a36000805473ffffffffffffffffffffffffffffffffffffffff19169055565b600061033c600180548060200260200160405190810160405280929190818152602001828054801561046857602002820191906000526020600020905b8154600160a060020a0316815260019091019060200180831161044a575b505050505083610742565b600054600160a060020a031690565b600054600160a060020a0316331490565b60005474010000000000000000000000000000000000000000900460ff1681565b6104bc610482565b1515610500576040805160e560020a62461bcd02815260206004820181905260248201526000805160206109cf833981519152604482015290519081900360640190fd5b61050b600182610793565b50565b610516610482565b151561055a576040805160e560020a62461bcd02815260206004820181905260248201526000805160206109cf833981519152604482015290519081900360640190fd5b61050b81610839565b61056b610482565b15156105af576040805160e560020a62461bcd02815260206004820181905260248201526000805160206109cf833981519152604482015290519081900360640190fd5b60008054911515740100000000000000000000000000000000000000000274ff000000000000000000000000000000000000000019909216919091179055565b61050b600180548060200260200160405190810160405280929190818152602001828054801561064857602002820191906000526020600020905b8154600160a060020a0316815260019091019060200180831161062a575b505050505082610927565b8154600090815b818110156106a25783600160a060020a0316858281548110151561067a57fe5b600091825260209091200154600160a060020a0316141561069a576106a2565b60010161065a565b81811015610735576000198201811461071b5784600183038154811015156106c657fe5b6000918252602090912001548554600160a060020a03909116908690839081106106ec57fe5b9060005260206000200160006101000a815481600160a060020a030219169083600160a060020a031602179055505b845461072b866000198301610987565b506001925061073a565b600092505b505092915050565b8151600090815b818110156107355783600160a060020a0316858281518110151561076957fe5b90602001906020020151600160a060020a0316141561078b576001925061073a565b600101610749565b6107f6828054806020026020016040519081016040528092919081815260200182805480156107eb57602002820191906000526020600020905b8154600160a060020a031681526001909101906020018083116107cd575b505050505082610742565b151561083557815460018101835560008381526020902001805473ffffffffffffffffffffffffffffffffffffffff1916600160a060020a0383161790555b5050565b600160a060020a03811615156108bf576040805160e560020a62461bcd02815260206004820152602660248201527f4f776e61626c653a206e6577206f776e657220697320746865207a65726f206160448201527f6464726573730000000000000000000000000000000000000000000000000000606482015290519081900360840190fd5b60008054604051600160a060020a03808516939216917f8be0079c531659141344cd1fd0a4f28419497f9722a3daafe3b4186f6b6457e091a36000805473ffffffffffffffffffffffffffffffffffffffff1916600160a060020a0392909216919091179055565b6109318282610742565b1515610835576040805160e560020a62461bcd02815260206004820181905260248201527f77686974654c6973743a207573696e6720696e76616c69642061646472657373604482015290519081900360640190fd5b8154818355818111156109ab576000838152602090206109ab9181019083016109b0565b505050565b6102e091905b808211156109ca57600081556001016109b6565b509056004f776e61626c653a2063616c6c6572206973206e6f7420746865206f776e6572a165627a7a7230582018c80c512fc23b502db671f38e504a172bfa3e5e5f7a372fdb10cc45712858ae0029",
  "source": "pragma solidity ^0.4.26;\r\nimport \"./Halt.sol\";\r\nimport \"./whiteList.sol\";\r\n    /**\r\n     * @dev Implementation of a whitelist filters a eligible address.\r\n     */\r\ncontract AddressWhiteList is Halt {\r\n\r\n    // The eligible adress list\r\n    address[] public whiteList;\r\n    /**\r\n     * @dev Implementation of add an eligible address into the whitelist.\r\n     * @param addAddress new eligible address.\r\n     */\r\n    function addWhiteList(address addAddress)public onlyOwner{\r\n        whiteListAddress.addWhiteListAddress(whiteList,addAddress);\r\n    }\r\n    /**\r\n     * @dev Implementation of revoke an invalid address from the whitelist.\r\n     * @param removeAddress revoked address.\r\n     */\r\n    function removeWhiteList(address removeAddress)public onlyOwner returns (bool){\r\n        return whiteListAddress.removeWhiteListAddress(whiteList,removeAddress);\r\n    }\r\n    /**\r\n     * @dev Implementation of getting the eligible whitelist.\r\n     */\r\n    function getWhiteList()public view returns (address[]){\r\n        return whiteList;\r\n    }\r\n    /**\r\n     * @dev Implementation of testing whether the input address is eligible.\r\n     * @param tmpAddress input address for testing.\r\n     */    \r\n    function isEligibleAddress(address tmpAddress) public view returns (bool){\r\n        return whiteListAddress.isEligibleAddress(whiteList,tmpAddress);\r\n    }\r\n    function checkEligibleAddress(address tmpAddress) public view{\r\n        whiteListAddress.checkEligibleAddress(whiteList,tmpAddress);\r\n    }\r\n}",
  "sourcePath": "C:\\work\\solidity\\FinnexusOptions_V2\\contracts\\modules\\AddressWhiteList.sol",
  "compiler": {
    "name": "solc",
    "version": "0.4.26+commit.4563c3fc.Emscripten.clang"
  },
  "schemaVersion": "3.1.0",
  "updatedAt": "2020-07-25T10:21:49.698Z",
  "devdoc": {
    "methods": {
      "addWhiteList(address)": {
        "details": "Implementation of add an eligible address into the whitelist.\r",
        "params": {
          "addAddress": "new eligible address.\r"
        }
      },
      "getWhiteList()": {
        "details": "Implementation of getting the eligible whitelist.\r"
      },
      "isEligibleAddress(address)": {
        "details": "Implementation of testing whether the input address is eligible.\r",
        "params": {
          "tmpAddress": "input address for testing.\r"
        }
      },
      "isOwner()": {
        "details": "Returns true if the caller is the current owner."
      },
      "owner()": {
        "details": "Returns the address of the current owner."
      },
      "removeWhiteList(address)": {
        "details": "Implementation of revoke an invalid address from the whitelist.\r",
        "params": {
          "removeAddress": "revoked address.\r"
        }
      },
      "renounceOwnership()": {
        "details": "Leaves the contract without owner. It will not be possible to call `onlyOwner` functions anymore. Can only be called by the current owner.     * NOTE: Renouncing ownership will leave the contract without an owner, thereby removing any functionality that is only available to the owner."
      },
      "transferOwnership(address)": {
        "details": "Transfers ownership of the contract to a new account (`newOwner`). Can only be called by the current owner."
      }
    }
  },
  "userdoc": {
    "methods": {
      "setHalt(bool)": {
        "notice": "function Emergency situation that requires contribution period to stop or not."
      }
    }
  }
}