{
  "contractName": "AddressWhiteList",
  "abi": [
    {
      "anonymous": false,
      "inputs": [
        {
          "indexed": true,
          "internalType": "address",
          "name": "previousOwner",
          "type": "address"
        },
        {
          "indexed": true,
          "internalType": "address",
          "name": "newOwner",
          "type": "address"
        }
      ],
      "name": "OwnershipTransferred",
      "type": "event"
    },
    {
      "constant": true,
      "inputs": [],
      "name": "isOwner",
      "outputs": [
        {
          "internalType": "bool",
          "name": "",
          "type": "bool"
        }
      ],
      "payable": false,
      "stateMutability": "view",
      "type": "function"
    },
    {
      "constant": true,
      "inputs": [],
      "name": "owner",
      "outputs": [
        {
          "internalType": "address",
          "name": "",
          "type": "address"
        }
      ],
      "payable": false,
      "stateMutability": "view",
      "type": "function"
    },
    {
      "constant": false,
      "inputs": [],
      "name": "renounceOwnership",
      "outputs": [],
      "payable": false,
      "stateMutability": "nonpayable",
      "type": "function"
    },
    {
      "constant": false,
      "inputs": [
        {
          "internalType": "bool",
          "name": "halt",
          "type": "bool"
        }
      ],
      "name": "setHalt",
      "outputs": [],
      "payable": false,
      "stateMutability": "nonpayable",
      "type": "function"
    },
    {
      "constant": false,
      "inputs": [
        {
          "internalType": "address",
          "name": "newOwner",
          "type": "address"
        }
      ],
      "name": "transferOwnership",
      "outputs": [],
      "payable": false,
      "stateMutability": "nonpayable",
      "type": "function"
    },
    {
      "constant": false,
      "inputs": [
        {
          "internalType": "address",
          "name": "addAddress",
          "type": "address"
        }
      ],
      "name": "addWhiteList",
      "outputs": [],
      "payable": false,
      "stateMutability": "nonpayable",
      "type": "function"
    },
    {
      "constant": false,
      "inputs": [
        {
          "internalType": "address",
          "name": "addAddress",
          "type": "address"
        },
        {
          "internalType": "uint256",
          "name": "permission",
          "type": "uint256"
        }
      ],
      "name": "modifyPermission",
      "outputs": [],
      "payable": false,
      "stateMutability": "nonpayable",
      "type": "function"
    },
    {
      "constant": false,
      "inputs": [
        {
          "internalType": "address",
          "name": "removeAddress",
          "type": "address"
        }
      ],
      "name": "removeWhiteList",
      "outputs": [
        {
          "internalType": "bool",
          "name": "",
          "type": "bool"
        }
      ],
      "payable": false,
      "stateMutability": "nonpayable",
      "type": "function"
    },
    {
      "constant": true,
      "inputs": [],
      "name": "getWhiteList",
      "outputs": [
        {
          "internalType": "address[]",
          "name": "",
          "type": "address[]"
        }
      ],
      "payable": false,
      "stateMutability": "view",
      "type": "function"
    },
    {
      "constant": true,
      "inputs": [
        {
          "internalType": "address",
          "name": "tmpAddress",
          "type": "address"
        }
      ],
      "name": "isEligibleAddress",
      "outputs": [
        {
          "internalType": "bool",
          "name": "",
          "type": "bool"
        }
      ],
      "payable": false,
      "stateMutability": "view",
      "type": "function"
    },
    {
      "constant": true,
      "inputs": [
        {
          "internalType": "address",
          "name": "tmpAddress",
          "type": "address"
        }
      ],
      "name": "checkAddressPayIn",
      "outputs": [
        {
          "internalType": "bool",
          "name": "",
          "type": "bool"
        }
      ],
      "payable": false,
      "stateMutability": "view",
      "type": "function"
    },
    {
      "constant": true,
      "inputs": [
        {
          "internalType": "address",
          "name": "tmpAddress",
          "type": "address"
        }
      ],
      "name": "checkAddressRedeemOut",
      "outputs": [
        {
          "internalType": "bool",
          "name": "",
          "type": "bool"
        }
      ],
      "payable": false,
      "stateMutability": "view",
      "type": "function"
    }
  ],
  "bytecode": "0x60806040526000805460a060020a60ff021916905534801561002057600080fd5b50610a17806100306000396000f3fe608060405234801561001057600080fd5b50600436106100d1576000357c0100000000000000000000000000000000000000000000000000000000900480638f32d59b1161008e5780638f32d59b146101e2578063bdac4bf6146101ea578063c219043b14610210578063e7cd4a041461023c578063f2fde38b14610262578063f495438714610288576100d1565b8063059621d7146100d657806309a9d76c146101105780632042e5c214610168578063715018a61461018e578063817bf86d146101985780638da5cb5b146101be575b600080fd5b6100fc600480360360208110156100ec57600080fd5b5035600160a060020a03166102a7565b604080519115158252519081900360200190f35b6101186102df565b60408051602080825283518183015283519192839290830191858101910280838360005b8381101561015457818101518382015260200161013c565b505050509050019250505060405180910390f35b6100fc6004803603602081101561017e57600080fd5b5035600160a060020a0316610342565b61019661039f565b005b6100fc600480360360208110156101ae57600080fd5b5035600160a060020a0316610440565b6101c66104af565b60408051600160a060020a039092168252519081900360200190f35b6100fc6104be565b6100fc6004803603602081101561020057600080fd5b5035600160a060020a03166104cf565b6101966004803603604081101561022657600080fd5b50600160a060020a038135169060200135610503565b6101966004803603602081101561025257600080fd5b5035600160a060020a0316610569565b6101966004803603602081101561027857600080fd5b5035600160a060020a03166105e4565b6101966004803603602081101561029e57600080fd5b5035151561063a565b60006102b282610440565b80156102d95750600160a060020a0382166000908152600260208190526040909120548116145b92915050565b6060600180548060200260200160405190810160405280929190818152602001828054801561033757602002820191906000526020600020905b8154600160a060020a03168152600190910190602001808311610319575b505050505090505b90565b600061034c6104be565b61038e576040805160e560020a62461bcd02815260206004820181905260248201526000805160206109c3833981519152604482015290519081900360640190fd5b6102d960018363ffffffff6106c416565b6103a76104be565b6103e9576040805160e560020a62461bcd02815260206004820181905260248201526000805160206109c3833981519152604482015290519081900360640190fd5b60008054604051600160a060020a03909116907f8be0079c531659141344cd1fd0a4f28419497f9722a3daafe3b4186f6b6457e0908390a36000805473ffffffffffffffffffffffffffffffffffffffff19169055565b60006102d982600180548060200260200160405190810160405280929190818152602001828054801561049c57602002820191906000526020600020905b8154600160a060020a0316815260019091019060200180831161047e575b50505050506107b290919063ffffffff16565b600054600160a060020a031690565b600054600160a060020a0316331490565b60006104da82610440565b80156102d9575050600160a060020a031660009081526002602052604090205460019081161490565b61050b6104be565b61054d576040805160e560020a62461bcd02815260206004820181905260248201526000805160206109c3833981519152604482015290519081900360640190fd5b600160a060020a03909116600090815260026020526040902055565b6105716104be565b6105b3576040805160e560020a62461bcd02815260206004820181905260248201526000805160206109c3833981519152604482015290519081900360640190fd5b6105c460018263ffffffff61080116565b600160a060020a0316600090815260026020526040902063ffffffff9055565b6105ec6104be565b61062e576040805160e560020a62461bcd02815260206004820181905260248201526000805160206109c3833981519152604482015290519081900360640190fd5b610637816108a5565b50565b6106426104be565b610684576040805160e560020a62461bcd02815260206004820181905260248201526000805160206109c3833981519152604482015290519081900360640190fd5b60008054911515740100000000000000000000000000000000000000000274ff000000000000000000000000000000000000000019909216919091179055565b8154600090815b818110156107115783600160a060020a03168582815481106106e957fe5b600091825260209091200154600160a060020a0316141561070957610711565b6001016106cb565b818110156107a75760018203811461078b5784600183038154811061073257fe5b9060005260206000200160009054906101000a9004600160a060020a031685828154811061075c57fe5b9060005260206000200160006101000a815481600160a060020a030219169083600160a060020a031602179055505b845461079b866000198301610955565b506001925050506102d9565b506000949350505050565b8151600090815b818110156107a75783600160a060020a03168582815181106107d757fe5b6020026020010151600160a060020a031614156107f9576001925050506102d9565b6001016107b9565b6108648280548060200260200160405190810160405280929190818152602001828054801561085957602002820191906000526020600020905b8154600160a060020a0316815260019091019060200180831161083b575b5050505050826107b2565b6108a157815460018101835560008381526020902001805473ffffffffffffffffffffffffffffffffffffffff1916600160a060020a0383161790555b5050565b600160a060020a0381166108ed5760405160e560020a62461bcd02815260040180806020018281038252602681526020018061099d6026913960400191505060405180910390fd5b60008054604051600160a060020a03808516939216917f8be0079c531659141344cd1fd0a4f28419497f9722a3daafe3b4186f6b6457e091a36000805473ffffffffffffffffffffffffffffffffffffffff1916600160a060020a0392909216919091179055565b8154818355818111156109795760008381526020902061097991810190830161097e565b505050565b61033f91905b808211156109985760008155600101610984565b509056fe4f776e61626c653a206e6577206f776e657220697320746865207a65726f20616464726573734f776e61626c653a2063616c6c6572206973206e6f7420746865206f776e6572a265627a7a72315820ed787d35eeeb4848324a5d1f8b86c2f72bc8803e9fd3bd1dc00a7842366e717464736f6c63430005100032",
  "source": "pragma solidity ^0.5.1;\r\nimport \"./Halt.sol\";\r\nimport \"./whiteList.sol\";\r\n    /**\r\n     * @dev Implementation of a whitelist filters a eligible address.\r\n     */\r\ncontract AddressWhiteList is Halt {\r\n\r\n    using whiteListAddress for address[];\r\n    uint256 constant internal allPermission = 0xffffffff;\r\n    uint256 constant internal allowPayIn = 0x0001;\r\n    uint256 constant internal allowRedeemOut = 0x0002;\r\n    uint256 constant internal allowSellOut = 0x0004;\r\n    // The eligible adress list\r\n    address[] internal whiteList;\r\n    mapping(address => uint256) internal addressPermission;\r\n    /**\r\n     * @dev Implementation of add an eligible address into the whitelist.\r\n     * @param addAddress new eligible address.\r\n     */\r\n    function addWhiteList(address addAddress)public onlyOwner{\r\n        whiteList.addWhiteListAddress(addAddress);\r\n        addressPermission[addAddress] = allPermission;\r\n    }\r\n    function modifyPermission(address addAddress,uint256 permission)public onlyOwner{\r\n        addressPermission[addAddress] = permission;\r\n    }\r\n    /**\r\n     * @dev Implementation of revoke an invalid address from the whitelist.\r\n     * @param removeAddress revoked address.\r\n     */\r\n    function removeWhiteList(address removeAddress)public onlyOwner returns (bool){\r\n        return whiteList.removeWhiteListAddress(removeAddress);\r\n    }\r\n    /**\r\n     * @dev Implementation of getting the eligible whitelist.\r\n     */\r\n    function getWhiteList()public view returns (address[] memory){\r\n        return whiteList;\r\n    }\r\n    /**\r\n     * @dev Implementation of testing whether the input address is eligible.\r\n     * @param tmpAddress input address for testing.\r\n     */    \r\n    function isEligibleAddress(address tmpAddress) public view returns (bool){\r\n        return whiteList.isEligibleAddress(tmpAddress);\r\n    }\r\n    function checkAddressPayIn(address tmpAddress) public view returns (bool){\r\n        return isEligibleAddress(tmpAddress) && ((addressPermission[tmpAddress]&allowPayIn) == allowPayIn);\r\n    }\r\n    function checkAddressRedeemOut(address tmpAddress) public view returns (bool){\r\n        return isEligibleAddress(tmpAddress) && ((addressPermission[tmpAddress]&allowRedeemOut) == allowRedeemOut);\r\n    }\r\n    function checkAddressPermission(address tmpAddress,uint256 state) internal view returns (bool){\r\n        return  (addressPermission[tmpAddress]&state) == state;\r\n    }\r\n}",
  "sourcePath": "C:\\work\\solidity\\FinnexusOptions_V2\\contracts\\modules\\AddressWhiteList.sol",
  "compiler": {
    "name": "solc",
    "version": "0.5.16+commit.9c3226ce.Emscripten.clang"
  },
  "schemaVersion": "3.1.0",
  "updatedAt": "2020-09-02T10:47:05.777Z",
  "devdoc": {
    "details": "Implementation of a whitelist filters a eligible address.",
    "methods": {
      "addWhiteList(address)": {
        "details": "Implementation of add an eligible address into the whitelist.",
        "params": {
          "addAddress": "new eligible address."
        }
      },
      "getWhiteList()": {
        "details": "Implementation of getting the eligible whitelist."
      },
      "isEligibleAddress(address)": {
        "details": "Implementation of testing whether the input address is eligible.",
        "params": {
          "tmpAddress": "input address for testing."
        }
      },
      "isOwner()": {
        "details": "Returns true if the caller is the current owner."
      },
      "owner()": {
        "details": "Returns the address of the current owner."
      },
      "removeWhiteList(address)": {
        "details": "Implementation of revoke an invalid address from the whitelist.",
        "params": {
          "removeAddress": "revoked address."
        }
      },
      "renounceOwnership()": {
        "details": "Leaves the contract without owner. It will not be possible to call `onlyOwner` functions anymore. Can only be called by the current owner.      * NOTE: Renouncing ownership will leave the contract without an owner, thereby removing any functionality that is only available to the owner."
      },
      "transferOwnership(address)": {
        "details": "Transfers ownership of the contract to a new account (`newOwner`). Can only be called by the current owner."
      }
    }
  },
  "userdoc": {
    "methods": {
      "setHalt(bool)": {
        "notice": "function Emergency situation that requires contribution period to stop or not."
      }
    }
  }
}