{
  "contractName": "AddressWhiteList",
  "abi": [
    {
      "constant": true,
      "inputs": [
        {
          "name": "",
          "type": "uint256"
        }
      ],
      "name": "whiteList",
      "outputs": [
        {
          "name": "",
          "type": "address"
        }
      ],
      "payable": false,
      "stateMutability": "view",
      "type": "function"
    },
    {
      "constant": false,
      "inputs": [],
      "name": "renounceOwnership",
      "outputs": [],
      "payable": false,
      "stateMutability": "nonpayable",
      "type": "function"
    },
    {
      "constant": true,
      "inputs": [],
      "name": "owner",
      "outputs": [
        {
          "name": "",
          "type": "address"
        }
      ],
      "payable": false,
      "stateMutability": "view",
      "type": "function"
    },
    {
      "constant": true,
      "inputs": [],
      "name": "isOwner",
      "outputs": [
        {
          "name": "",
          "type": "bool"
        }
      ],
      "payable": false,
      "stateMutability": "view",
      "type": "function"
    },
    {
      "constant": true,
      "inputs": [],
      "name": "halted",
      "outputs": [
        {
          "name": "",
          "type": "bool"
        }
      ],
      "payable": false,
      "stateMutability": "view",
      "type": "function"
    },
    {
      "constant": false,
      "inputs": [
        {
          "name": "newOwner",
          "type": "address"
        }
      ],
      "name": "transferOwnership",
      "outputs": [],
      "payable": false,
      "stateMutability": "nonpayable",
      "type": "function"
    },
    {
      "constant": false,
      "inputs": [
        {
          "name": "halt",
          "type": "bool"
        }
      ],
      "name": "setHalt",
      "outputs": [],
      "payable": false,
      "stateMutability": "nonpayable",
      "type": "function"
    },
    {
      "anonymous": false,
      "inputs": [
        {
          "indexed": true,
          "name": "previousOwner",
          "type": "address"
        },
        {
          "indexed": true,
          "name": "newOwner",
          "type": "address"
        }
      ],
      "name": "OwnershipTransferred",
      "type": "event"
    },
    {
      "constant": false,
      "inputs": [
        {
          "name": "addAddress",
          "type": "address"
        }
      ],
      "name": "addWhiteList",
      "outputs": [],
      "payable": false,
      "stateMutability": "nonpayable",
      "type": "function"
    },
    {
      "constant": false,
      "inputs": [
        {
          "name": "removeAddress",
          "type": "address"
        }
      ],
      "name": "removeWhiteList",
      "outputs": [],
      "payable": false,
      "stateMutability": "nonpayable",
      "type": "function"
    },
    {
      "constant": true,
      "inputs": [],
      "name": "getWhiteList",
      "outputs": [
        {
          "name": "",
          "type": "address[]"
        }
      ],
      "payable": false,
      "stateMutability": "view",
      "type": "function"
    },
    {
      "constant": true,
      "inputs": [
        {
          "name": "tmpAddress",
          "type": "address"
        }
      ],
      "name": "isEligibleAddress",
      "outputs": [
        {
          "name": "",
          "type": "bool"
        }
      ],
      "payable": false,
      "stateMutability": "view",
      "type": "function"
    }
  ],
  "bytecode": "0x6080604081905260008054600160a860020a0319163317808255600160a060020a0316917f8be0079c531659141344cd1fd0a4f28419497f9722a3daafe3b4186f6b6457e0908290a361083c806100576000396000f3006080604052600436106100ae5763ffffffff7c010000000000000000000000000000000000000000000000000000000060003504166309a9d76c81146100b35780632042e5c2146101185780635c475d421461013b578063715018a61461016f578063817bf86d146101845780638da5cb5b146101b95780638f32d59b146101ce578063b9b8af0b146101e3578063e7cd4a04146101f8578063f2fde38b14610219578063f49543871461023a575b600080fd5b3480156100bf57600080fd5b506100c8610254565b60408051602080825283518183015283519192839290830191858101910280838360005b838110156101045781810151838201526020016100ec565b505050509050019250505060405180910390f35b34801561012457600080fd5b50610139600160a060020a03600435166102b7565b005b34801561014757600080fd5b506101536004356103a8565b60408051600160a060020a039092168252519081900360200190f35b34801561017b57600080fd5b506101396103d0565b34801561019057600080fd5b506101a5600160a060020a0360043516610473565b604080519115158252519081900360200190f35b3480156101c557600080fd5b5061015361048a565b3480156101da57600080fd5b506101a5610499565b3480156101ef57600080fd5b506101a56104aa565b34801561020457600080fd5b50610139600160a060020a03600435166104cb565b34801561022557600080fd5b50610139600160a060020a036004351661058c565b34801561024657600080fd5b5061013960043515156105e4565b606060018054806020026020016040519081016040528092919081815260200182805480156102ac57602002820191906000526020600020905b8154600160a060020a0316815260019091019060200180831161028e575b505050505090505b90565b60006102c1610499565b1515610305576040805160e560020a62461bcd02815260206004820181905260248201526000805160206107f1833981519152604482015290519081900360640190fd5b61030e82610670565b6001549091508110156103a45760015460001901811461038f5760018054600019810190811061033a57fe5b60009182526020909120015460018054600160a060020a03909216918390811061036057fe5b9060005260206000200160006101000a815481600160a060020a030219169083600160a060020a031602179055505b60018054906103a29060001983016107b3565b505b5050565b60018054829081106103b657fe5b600091825260209091200154600160a060020a0316905081565b6103d8610499565b151561041c576040805160e560020a62461bcd02815260206004820181905260248201526000805160206107f1833981519152604482015290519081900360640190fd5b60008054604051600160a060020a03909116907f8be0079c531659141344cd1fd0a4f28419497f9722a3daafe3b4186f6b6457e0908390a36000805473ffffffffffffffffffffffffffffffffffffffff19169055565b60008061047f83610670565b600154119392505050565b600054600160a060020a031690565b600054600160a060020a0316331490565b60005474010000000000000000000000000000000000000000900460ff1681565b60006104d5610499565b1515610519576040805160e560020a62461bcd02815260206004820181905260248201526000805160206107f1833981519152604482015290519081900360640190fd5b61052282610670565b6001549091508114156103a4576001805480820182556000919091527fb10e2d527612073b26eecdfd717e6a320cf44b4afac2b0732d9fcbe2b7fa0cf6018054600160a060020a03841673ffffffffffffffffffffffffffffffffffffffff199091161790555050565b610594610499565b15156105d8576040805160e560020a62461bcd02815260206004820181905260248201526000805160206107f1833981519152604482015290519081900360640190fd5b6105e1816106c5565b50565b6105ec610499565b1515610630576040805160e560020a62461bcd02815260206004820181905260248201526000805160206107f1833981519152604482015290519081900360640190fd5b60008054911515740100000000000000000000000000000000000000000274ff000000000000000000000000000000000000000019909216919091179055565b6000805b6001548110156106bf5782600160a060020a031660018281548110151561069757fe5b600091825260209091200154600160a060020a031614156106b7576106bf565b600101610674565b92915050565b600160a060020a038116151561074b576040805160e560020a62461bcd02815260206004820152602660248201527f4f776e61626c653a206e6577206f776e657220697320746865207a65726f206160448201527f6464726573730000000000000000000000000000000000000000000000000000606482015290519081900360840190fd5b60008054604051600160a060020a03808516939216917f8be0079c531659141344cd1fd0a4f28419497f9722a3daafe3b4186f6b6457e091a36000805473ffffffffffffffffffffffffffffffffffffffff1916600160a060020a0392909216919091179055565b8154818355818111156103a2576000838152602090206103a29181019083016102b491905b808211156107ec57600081556001016107d8565b509056004f776e61626c653a2063616c6c6572206973206e6f7420746865206f776e6572a165627a7a723058205290cce2ae99e245457480fb4a6a6af7ff6f667b0cd030e6aa0da0189ef333c20029",
  "source": "pragma solidity ^0.4.26;\r\nimport \"./Halt.sol\";\r\n    /**\r\n     * @dev Implementation of a whitelist filters a eligible address.\r\n     */\r\ncontract AddressWhiteList is Halt {\r\n\r\n    // The eligible adress list\r\n    address[] public whiteList;\r\n    /**\r\n     * @dev Implementation of add an eligible address into the whitelist.\r\n     * @param addAddress new eligible address.\r\n     */\r\n    function addWhiteList(address addAddress)public onlyOwner{\r\n        uint256 index = _getEligibleAddressIndex(addAddress);\r\n        if (index==whiteList.length){\r\n            whiteList.push(addAddress);\r\n        }\r\n    }\r\n    /**\r\n     * @dev Implementation of revoke an invalid address from the whitelist.\r\n     * @param removeAddress revoked address.\r\n     */\r\n    function removeWhiteList(address removeAddress)public onlyOwner{\r\n        uint256 index = _getEligibleAddressIndex(removeAddress);\r\n        if (index<whiteList.length){\r\n            if (index!=whiteList.length-1) {\r\n                whiteList[index] = whiteList[whiteList.length-1];\r\n            }\r\n            whiteList.length--;\r\n        }\r\n    }\r\n    /**\r\n     * @dev Implementation of getting the eligible whitelist.\r\n     */\r\n    function getWhiteList()public view returns (address[]){\r\n        return whiteList;\r\n    }\r\n    /**\r\n     * @dev Implementation of testing whether the input address is eligible.\r\n     * @param tmpAddress input address for testing.\r\n     */    \r\n    function isEligibleAddress(address tmpAddress) public view returns (bool){\r\n        uint256 index = _getEligibleAddressIndex(tmpAddress);\r\n        return index<whiteList.length;\r\n    }\r\n    function _getEligibleAddressIndex(address tmpAddress) internal view returns (uint256){\r\n        for (uint256 i=0;i<whiteList.length;i++){\r\n            if (whiteList[i] == tmpAddress)\r\n                break;\r\n        }\r\n        return i;\r\n    }\r\n}",
  "sourcePath": "C:\\work\\solidity\\FinnexusOptions_V2\\contracts\\AddressWhiteList.sol",
  "compiler": {
    "name": "solc",
    "version": "0.4.26+commit.4563c3fc.Emscripten.clang"
  },
  "schemaVersion": "3.1.0",
  "updatedAt": "2020-07-16T13:05:57.810Z",
  "devdoc": {
    "methods": {
      "addWhiteList(address)": {
        "details": "Implementation of add an eligible address into the whitelist.\r",
        "params": {
          "addAddress": "new eligible address.\r"
        }
      },
      "getWhiteList()": {
        "details": "Implementation of getting the eligible whitelist.\r"
      },
      "isEligibleAddress(address)": {
        "details": "Implementation of testing whether the input address is eligible.\r",
        "params": {
          "tmpAddress": "input address for testing.\r"
        }
      },
      "isOwner()": {
        "details": "Returns true if the caller is the current owner."
      },
      "owner()": {
        "details": "Returns the address of the current owner."
      },
      "removeWhiteList(address)": {
        "details": "Implementation of revoke an invalid address from the whitelist.\r",
        "params": {
          "removeAddress": "revoked address.\r"
        }
      },
      "renounceOwnership()": {
        "details": "Leaves the contract without owner. It will not be possible to call `onlyOwner` functions anymore. Can only be called by the current owner.     * NOTE: Renouncing ownership will leave the contract without an owner, thereby removing any functionality that is only available to the owner."
      },
      "transferOwnership(address)": {
        "details": "Transfers ownership of the contract to a new account (`newOwner`). Can only be called by the current owner."
      }
    }
  },
  "userdoc": {
    "methods": {
      "setHalt(bool)": {
        "notice": "function Emergency situation that requires contribution period to stop or not."
      }
    }
  }
}