{
  "contractName": "AddressWhiteList",
  "abi": [
    {
      "constant": false,
      "inputs": [],
      "name": "renounceOwnership",
      "outputs": [],
      "payable": false,
      "stateMutability": "nonpayable",
      "type": "function"
    },
    {
      "constant": true,
      "inputs": [],
      "name": "owner",
      "outputs": [
        {
          "name": "",
          "type": "address"
        }
      ],
      "payable": false,
      "stateMutability": "view",
      "type": "function"
    },
    {
      "constant": true,
      "inputs": [],
      "name": "isOwner",
      "outputs": [
        {
          "name": "",
          "type": "bool"
        }
      ],
      "payable": false,
      "stateMutability": "view",
      "type": "function"
    },
    {
      "constant": false,
      "inputs": [
        {
          "name": "newOwner",
          "type": "address"
        }
      ],
      "name": "transferOwnership",
      "outputs": [],
      "payable": false,
      "stateMutability": "nonpayable",
      "type": "function"
    },
    {
      "constant": false,
      "inputs": [
        {
          "name": "halt",
          "type": "bool"
        }
      ],
      "name": "setHalt",
      "outputs": [],
      "payable": false,
      "stateMutability": "nonpayable",
      "type": "function"
    },
    {
      "anonymous": false,
      "inputs": [
        {
          "indexed": true,
          "name": "previousOwner",
          "type": "address"
        },
        {
          "indexed": true,
          "name": "newOwner",
          "type": "address"
        }
      ],
      "name": "OwnershipTransferred",
      "type": "event"
    },
    {
      "constant": false,
      "inputs": [
        {
          "name": "addAddress",
          "type": "address"
        }
      ],
      "name": "addWhiteList",
      "outputs": [],
      "payable": false,
      "stateMutability": "nonpayable",
      "type": "function"
    },
    {
      "constant": false,
      "inputs": [
        {
          "name": "addAddress",
          "type": "address"
        },
        {
          "name": "permission",
          "type": "uint256"
        }
      ],
      "name": "modifyPermission",
      "outputs": [],
      "payable": false,
      "stateMutability": "nonpayable",
      "type": "function"
    },
    {
      "constant": false,
      "inputs": [
        {
          "name": "removeAddress",
          "type": "address"
        }
      ],
      "name": "removeWhiteList",
      "outputs": [
        {
          "name": "",
          "type": "bool"
        }
      ],
      "payable": false,
      "stateMutability": "nonpayable",
      "type": "function"
    },
    {
      "constant": true,
      "inputs": [],
      "name": "getWhiteList",
      "outputs": [
        {
          "name": "",
          "type": "address[]"
        }
      ],
      "payable": false,
      "stateMutability": "view",
      "type": "function"
    },
    {
      "constant": true,
      "inputs": [
        {
          "name": "tmpAddress",
          "type": "address"
        }
      ],
      "name": "isEligibleAddress",
      "outputs": [
        {
          "name": "",
          "type": "bool"
        }
      ],
      "payable": false,
      "stateMutability": "view",
      "type": "function"
    },
    {
      "constant": true,
      "inputs": [
        {
          "name": "tmpAddress",
          "type": "address"
        }
      ],
      "name": "checkAddressPayIn",
      "outputs": [
        {
          "name": "",
          "type": "bool"
        }
      ],
      "payable": false,
      "stateMutability": "view",
      "type": "function"
    },
    {
      "constant": true,
      "inputs": [
        {
          "name": "tmpAddress",
          "type": "address"
        }
      ],
      "name": "checkAddressRedeemOut",
      "outputs": [
        {
          "name": "",
          "type": "bool"
        }
      ],
      "payable": false,
      "stateMutability": "view",
      "type": "function"
    }
  ],
  "bytecode": "0x6080604081905260008054600160a860020a0319163317808255600160a060020a0316917f8be0079c531659141344cd1fd0a4f28419497f9722a3daafe3b4186f6b6457e0908290a3610a13806100576000396000f3006080604052600436106100b95763ffffffff7c0100000000000000000000000000000000000000000000000000000000600035041663059621d781146100be57806309a9d76c146100f35780632042e5c214610158578063715018a614610179578063817bf86d146101905780638da5cb5b146101b15780638f32d59b146101e2578063bdac4bf6146101f7578063c219043b14610218578063e7cd4a041461023c578063f2fde38b1461025d578063f49543871461027e575b600080fd5b3480156100ca57600080fd5b506100df600160a060020a0360043516610298565b604080519115158252519081900360200190f35b3480156100ff57600080fd5b506101086102d0565b60408051602080825283518183015283519192839290830191858101910280838360005b8381101561014457818101518382015260200161012c565b505050509050019250505060405180910390f35b34801561016457600080fd5b506100df600160a060020a0360043516610333565b34801561018557600080fd5b5061018e61038c565b005b34801561019c57600080fd5b506100df600160a060020a036004351661042f565b3480156101bd57600080fd5b506101c6610495565b60408051600160a060020a039092168252519081900360200190f35b3480156101ee57600080fd5b506100df6104a4565b34801561020357600080fd5b506100df600160a060020a03600435166104b5565b34801561022457600080fd5b5061018e600160a060020a03600435166024356104e9565b34801561024857600080fd5b5061018e600160a060020a0360043516610551565b34801561026957600080fd5b5061018e600160a060020a03600435166105c8565b34801561028a57600080fd5b5061018e6004351515610620565b60006102a38261042f565b80156102ca5750600160a060020a0382166000908152600260208190526040909120548116145b92915050565b6060600180548060200260200160405190810160405280929190818152602001828054801561032857602002820191906000526020600020905b8154600160a060020a0316815260019091019060200180831161030a575b505050505090505b90565b600061033d6104a4565b1515610381576040805160e560020a62461bcd02815260206004820181905260248201526000805160206109c8833981519152604482015290519081900360640190fd5b6102ca6001836106ac565b6103946104a4565b15156103d8576040805160e560020a62461bcd02815260206004820181905260248201526000805160206109c8833981519152604482015290519081900360640190fd5b60008054604051600160a060020a03909116907f8be0079c531659141344cd1fd0a4f28419497f9722a3daafe3b4186f6b6457e0908390a36000805473ffffffffffffffffffffffffffffffffffffffff19169055565b60006102ca600180548060200260200160405190810160405280929190818152602001828054801561048a57602002820191906000526020600020905b8154600160a060020a0316815260019091019060200180831161046c575b50505050508361079b565b600054600160a060020a031690565b600054600160a060020a0316331490565b60006104c08261042f565b80156102ca575050600160a060020a031660009081526002602052604090205460019081161490565b6104f16104a4565b1515610535576040805160e560020a62461bcd02815260206004820181905260248201526000805160206109c8833981519152604482015290519081900360640190fd5b600160a060020a03909116600090815260026020526040902055565b6105596104a4565b151561059d576040805160e560020a62461bcd02815260206004820181905260248201526000805160206109c8833981519152604482015290519081900360640190fd5b6105a86001826107ec565b600160a060020a0316600090815260026020526040902063ffffffff9055565b6105d06104a4565b1515610614576040805160e560020a62461bcd02815260206004820181905260248201526000805160206109c8833981519152604482015290519081900360640190fd5b61061d81610892565b50565b6106286104a4565b151561066c576040805160e560020a62461bcd02815260206004820181905260248201526000805160206109c8833981519152604482015290519081900360640190fd5b60008054911515740100000000000000000000000000000000000000000274ff000000000000000000000000000000000000000019909216919091179055565b8154600090815b818110156106fb5783600160a060020a031685828154811015156106d357fe5b600091825260209091200154600160a060020a031614156106f3576106fb565b6001016106b3565b8181101561078e576000198201811461077457846001830381548110151561071f57fe5b6000918252602090912001548554600160a060020a039091169086908390811061074557fe5b9060005260206000200160006101000a815481600160a060020a030219169083600160a060020a031602179055505b8454610784866000198301610980565b5060019250610793565b600092505b505092915050565b8151600090815b8181101561078e5783600160a060020a031685828151811015156107c257fe5b90602001906020020151600160a060020a031614156107e45760019250610793565b6001016107a2565b61084f8280548060200260200160405190810160405280929190818152602001828054801561084457602002820191906000526020600020905b8154600160a060020a03168152600190910190602001808311610826575b50505050508261079b565b151561088e57815460018101835560008381526020902001805473ffffffffffffffffffffffffffffffffffffffff1916600160a060020a0383161790555b5050565b600160a060020a0381161515610918576040805160e560020a62461bcd02815260206004820152602660248201527f4f776e61626c653a206e6577206f776e657220697320746865207a65726f206160448201527f6464726573730000000000000000000000000000000000000000000000000000606482015290519081900360840190fd5b60008054604051600160a060020a03808516939216917f8be0079c531659141344cd1fd0a4f28419497f9722a3daafe3b4186f6b6457e091a36000805473ffffffffffffffffffffffffffffffffffffffff1916600160a060020a0392909216919091179055565b8154818355818111156109a4576000838152602090206109a49181019083016109a9565b505050565b61033091905b808211156109c357600081556001016109af565b509056004f776e61626c653a2063616c6c6572206973206e6f7420746865206f776e6572a165627a7a7230582072d7c8ff9836119a079dc12e8ea75a16091ae0222562a6379a1e07665f0602190029",
  "source": "pragma solidity ^0.4.26;\r\nimport \"./Halt.sol\";\r\nimport \"./whiteList.sol\";\r\n    /**\r\n     * @dev Implementation of a whitelist filters a eligible address.\r\n     */\r\ncontract AddressWhiteList is Halt {\r\n\r\n    uint256 constant private allPermission = 0xffffffff;\r\n    uint256 constant private allowPayIn = 0x0001;\r\n    uint256 constant private allowRedeemOut = 0x0002;\r\n    // The eligible adress list\r\n    address[] internal whiteList;\r\n    mapping(address => uint256) addressPermission;\r\n    /**\r\n     * @dev Implementation of add an eligible address into the whitelist.\r\n     * @param addAddress new eligible address.\r\n     */\r\n    function addWhiteList(address addAddress)public onlyOwner{\r\n        whiteListAddress.addWhiteListAddress(whiteList,addAddress);\r\n        addressPermission[addAddress] = allPermission;\r\n    }\r\n    function modifyPermission(address addAddress,uint256 permission)public onlyOwner{\r\n        addressPermission[addAddress] = permission;\r\n    }\r\n    /**\r\n     * @dev Implementation of revoke an invalid address from the whitelist.\r\n     * @param removeAddress revoked address.\r\n     */\r\n    function removeWhiteList(address removeAddress)public onlyOwner returns (bool){\r\n        return whiteListAddress.removeWhiteListAddress(whiteList,removeAddress);\r\n    }\r\n    /**\r\n     * @dev Implementation of getting the eligible whitelist.\r\n     */\r\n    function getWhiteList()public view returns (address[]){\r\n        return whiteList;\r\n    }\r\n    /**\r\n     * @dev Implementation of testing whether the input address is eligible.\r\n     * @param tmpAddress input address for testing.\r\n     */    \r\n    function isEligibleAddress(address tmpAddress) public view returns (bool){\r\n        return whiteListAddress.isEligibleAddress(whiteList,tmpAddress);\r\n    }\r\n    function checkAddressPayIn(address tmpAddress) public view returns (bool){\r\n        return isEligibleAddress(tmpAddress) && ((addressPermission[tmpAddress]&allowPayIn) == allowPayIn);\r\n    }\r\n    function checkAddressRedeemOut(address tmpAddress) public view returns (bool){\r\n        return isEligibleAddress(tmpAddress) && ((addressPermission[tmpAddress]&allowRedeemOut) == allowRedeemOut);\r\n    }\r\n}",
  "sourcePath": "C:\\work\\solidity\\FinnexusOptions_V2\\contracts\\modules\\AddressWhiteList.sol",
  "compiler": {
    "name": "solc",
    "version": "0.4.26+commit.4563c3fc.Emscripten.clang"
  },
  "schemaVersion": "3.1.0",
  "updatedAt": "2020-08-03T07:47:16.997Z",
  "devdoc": {
    "methods": {
      "addWhiteList(address)": {
        "details": "Implementation of add an eligible address into the whitelist.\r",
        "params": {
          "addAddress": "new eligible address.\r"
        }
      },
      "getWhiteList()": {
        "details": "Implementation of getting the eligible whitelist.\r"
      },
      "isEligibleAddress(address)": {
        "details": "Implementation of testing whether the input address is eligible.\r",
        "params": {
          "tmpAddress": "input address for testing.\r"
        }
      },
      "isOwner()": {
        "details": "Returns true if the caller is the current owner."
      },
      "owner()": {
        "details": "Returns the address of the current owner."
      },
      "removeWhiteList(address)": {
        "details": "Implementation of revoke an invalid address from the whitelist.\r",
        "params": {
          "removeAddress": "revoked address.\r"
        }
      },
      "renounceOwnership()": {
        "details": "Leaves the contract without owner. It will not be possible to call `onlyOwner` functions anymore. Can only be called by the current owner.     * NOTE: Renouncing ownership will leave the contract without an owner, thereby removing any functionality that is only available to the owner."
      },
      "transferOwnership(address)": {
        "details": "Transfers ownership of the contract to a new account (`newOwner`). Can only be called by the current owner."
      }
    }
  },
  "userdoc": {
    "methods": {
      "setHalt(bool)": {
        "notice": "function Emergency situation that requires contribution period to stop or not."
      }
    }
  }
}