{
  "contractName": "AddressWhiteList",
  "abi": [
    {
      "constant": true,
      "inputs": [
        {
          "name": "",
          "type": "uint256"
        }
      ],
      "name": "whiteList",
      "outputs": [
        {
          "name": "",
          "type": "address"
        }
      ],
      "payable": false,
      "stateMutability": "view",
      "type": "function"
    },
    {
      "constant": false,
      "inputs": [],
      "name": "renounceOwnership",
      "outputs": [],
      "payable": false,
      "stateMutability": "nonpayable",
      "type": "function"
    },
    {
      "constant": true,
      "inputs": [],
      "name": "owner",
      "outputs": [
        {
          "name": "",
          "type": "address"
        }
      ],
      "payable": false,
      "stateMutability": "view",
      "type": "function"
    },
    {
      "constant": true,
      "inputs": [],
      "name": "isOwner",
      "outputs": [
        {
          "name": "",
          "type": "bool"
        }
      ],
      "payable": false,
      "stateMutability": "view",
      "type": "function"
    },
    {
      "constant": true,
      "inputs": [],
      "name": "halted",
      "outputs": [
        {
          "name": "",
          "type": "bool"
        }
      ],
      "payable": false,
      "stateMutability": "view",
      "type": "function"
    },
    {
      "constant": false,
      "inputs": [
        {
          "name": "newOwner",
          "type": "address"
        }
      ],
      "name": "transferOwnership",
      "outputs": [],
      "payable": false,
      "stateMutability": "nonpayable",
      "type": "function"
    },
    {
      "constant": false,
      "inputs": [
        {
          "name": "halt",
          "type": "bool"
        }
      ],
      "name": "setHalt",
      "outputs": [],
      "payable": false,
      "stateMutability": "nonpayable",
      "type": "function"
    },
    {
      "anonymous": false,
      "inputs": [
        {
          "indexed": true,
          "name": "previousOwner",
          "type": "address"
        },
        {
          "indexed": true,
          "name": "newOwner",
          "type": "address"
        }
      ],
      "name": "OwnershipTransferred",
      "type": "event"
    },
    {
      "constant": false,
      "inputs": [
        {
          "name": "addAddress",
          "type": "address"
        }
      ],
      "name": "addWhiteList",
      "outputs": [],
      "payable": false,
      "stateMutability": "nonpayable",
      "type": "function"
    },
    {
      "constant": false,
      "inputs": [
        {
          "name": "addAddress",
          "type": "address"
        },
        {
          "name": "permission",
          "type": "uint256"
        }
      ],
      "name": "modifyPermission",
      "outputs": [],
      "payable": false,
      "stateMutability": "nonpayable",
      "type": "function"
    },
    {
      "constant": false,
      "inputs": [
        {
          "name": "removeAddress",
          "type": "address"
        }
      ],
      "name": "removeWhiteList",
      "outputs": [
        {
          "name": "",
          "type": "bool"
        }
      ],
      "payable": false,
      "stateMutability": "nonpayable",
      "type": "function"
    },
    {
      "constant": true,
      "inputs": [],
      "name": "getWhiteList",
      "outputs": [
        {
          "name": "",
          "type": "address[]"
        }
      ],
      "payable": false,
      "stateMutability": "view",
      "type": "function"
    },
    {
      "constant": true,
      "inputs": [
        {
          "name": "tmpAddress",
          "type": "address"
        }
      ],
      "name": "isEligibleAddress",
      "outputs": [
        {
          "name": "",
          "type": "bool"
        }
      ],
      "payable": false,
      "stateMutability": "view",
      "type": "function"
    },
    {
      "constant": true,
      "inputs": [
        {
          "name": "tmpAddress",
          "type": "address"
        }
      ],
      "name": "checkAddressPayIn",
      "outputs": [
        {
          "name": "",
          "type": "bool"
        }
      ],
      "payable": false,
      "stateMutability": "view",
      "type": "function"
    },
    {
      "constant": true,
      "inputs": [
        {
          "name": "tmpAddress",
          "type": "address"
        }
      ],
      "name": "checkAddressRedeemOut",
      "outputs": [
        {
          "name": "",
          "type": "bool"
        }
      ],
      "payable": false,
      "stateMutability": "view",
      "type": "function"
    }
  ],
  "bytecode": "0x6080604081905260008054600160a860020a0319163317808255600160a060020a0316917f8be0079c531659141344cd1fd0a4f28419497f9722a3daafe3b4186f6b6457e0908290a3610a9f806100576000396000f3006080604052600436106100cf5763ffffffff7c0100000000000000000000000000000000000000000000000000000000600035041663059621d781146100d457806309a9d76c146101095780632042e5c21461016e5780635c475d421461018f578063715018a6146101c3578063817bf86d146101da5780638da5cb5b146101fb5780638f32d59b14610210578063b9b8af0b14610225578063bdac4bf61461023a578063c219043b1461025b578063e7cd4a041461027f578063f2fde38b146102a0578063f4954387146102c1575b600080fd5b3480156100e057600080fd5b506100f5600160a060020a03600435166102db565b604080519115158252519081900360200190f35b34801561011557600080fd5b5061011e610313565b60408051602080825283518183015283519192839290830191858101910280838360005b8381101561015a578181015183820152602001610142565b505050509050019250505060405180910390f35b34801561017a57600080fd5b506100f5600160a060020a0360043516610376565b34801561019b57600080fd5b506101a76004356103cf565b60408051600160a060020a039092168252519081900360200190f35b3480156101cf57600080fd5b506101d86103f7565b005b3480156101e657600080fd5b506100f5600160a060020a036004351661049a565b34801561020757600080fd5b506101a7610500565b34801561021c57600080fd5b506100f561050f565b34801561023157600080fd5b506100f5610520565b34801561024657600080fd5b506100f5600160a060020a0360043516610541565b34801561026757600080fd5b506101d8600160a060020a0360043516602435610575565b34801561028b57600080fd5b506101d8600160a060020a03600435166105dd565b3480156102ac57600080fd5b506101d8600160a060020a0360043516610654565b3480156102cd57600080fd5b506101d860043515156106ac565b60006102e68261049a565b801561030d5750600160a060020a0382166000908152600260208190526040909120548116145b92915050565b6060600180548060200260200160405190810160405280929190818152602001828054801561036b57602002820191906000526020600020905b8154600160a060020a0316815260019091019060200180831161034d575b505050505090505b90565b600061038061050f565b15156103c4576040805160e560020a62461bcd0281526020600482018190526024820152600080516020610a54833981519152604482015290519081900360640190fd5b61030d600183610738565b60018054829081106103dd57fe5b600091825260209091200154600160a060020a0316905081565b6103ff61050f565b1515610443576040805160e560020a62461bcd0281526020600482018190526024820152600080516020610a54833981519152604482015290519081900360640190fd5b60008054604051600160a060020a03909116907f8be0079c531659141344cd1fd0a4f28419497f9722a3daafe3b4186f6b6457e0908390a36000805473ffffffffffffffffffffffffffffffffffffffff19169055565b600061030d60018054806020026020016040519081016040528092919081815260200182805480156104f557602002820191906000526020600020905b8154600160a060020a031681526001909101906020018083116104d7575b505050505083610827565b600054600160a060020a031690565b600054600160a060020a0316331490565b60005474010000000000000000000000000000000000000000900460ff1681565b600061054c8261049a565b801561030d575050600160a060020a031660009081526002602052604090205460019081161490565b61057d61050f565b15156105c1576040805160e560020a62461bcd0281526020600482018190526024820152600080516020610a54833981519152604482015290519081900360640190fd5b600160a060020a03909116600090815260026020526040902055565b6105e561050f565b1515610629576040805160e560020a62461bcd0281526020600482018190526024820152600080516020610a54833981519152604482015290519081900360640190fd5b610634600182610878565b600160a060020a0316600090815260026020526040902063ffffffff9055565b61065c61050f565b15156106a0576040805160e560020a62461bcd0281526020600482018190526024820152600080516020610a54833981519152604482015290519081900360640190fd5b6106a98161091e565b50565b6106b461050f565b15156106f8576040805160e560020a62461bcd0281526020600482018190526024820152600080516020610a54833981519152604482015290519081900360640190fd5b60008054911515740100000000000000000000000000000000000000000274ff000000000000000000000000000000000000000019909216919091179055565b8154600090815b818110156107875783600160a060020a0316858281548110151561075f57fe5b600091825260209091200154600160a060020a0316141561077f57610787565b60010161073f565b8181101561081a57600019820181146108005784600183038154811015156107ab57fe5b6000918252602090912001548554600160a060020a03909116908690839081106107d157fe5b9060005260206000200160006101000a815481600160a060020a030219169083600160a060020a031602179055505b8454610810866000198301610a0c565b506001925061081f565b600092505b505092915050565b8151600090815b8181101561081a5783600160a060020a0316858281518110151561084e57fe5b90602001906020020151600160a060020a03161415610870576001925061081f565b60010161082e565b6108db828054806020026020016040519081016040528092919081815260200182805480156108d057602002820191906000526020600020905b8154600160a060020a031681526001909101906020018083116108b2575b505050505082610827565b151561091a57815460018101835560008381526020902001805473ffffffffffffffffffffffffffffffffffffffff1916600160a060020a0383161790555b5050565b600160a060020a03811615156109a4576040805160e560020a62461bcd02815260206004820152602660248201527f4f776e61626c653a206e6577206f776e657220697320746865207a65726f206160448201527f6464726573730000000000000000000000000000000000000000000000000000606482015290519081900360840190fd5b60008054604051600160a060020a03808516939216917f8be0079c531659141344cd1fd0a4f28419497f9722a3daafe3b4186f6b6457e091a36000805473ffffffffffffffffffffffffffffffffffffffff1916600160a060020a0392909216919091179055565b815481835581811115610a3057600083815260209020610a30918101908301610a35565b505050565b61037391905b80821115610a4f5760008155600101610a3b565b509056004f776e61626c653a2063616c6c6572206973206e6f7420746865206f776e6572a165627a7a72305820a451fe658795e9d9bc3632289540a924ef824c1eab235404c4fc9c3d0f2427f90029",
  "source": "pragma solidity ^0.4.26;\r\nimport \"./Halt.sol\";\r\nimport \"./whiteList.sol\";\r\n    /**\r\n     * @dev Implementation of a whitelist filters a eligible address.\r\n     */\r\ncontract AddressWhiteList is Halt {\r\n\r\n    uint256 constant allPermission = 0xffffffff;\r\n    uint256 constant allowPayIn = 0x0001;\r\n    uint256 constant allowRedeemOut = 0x0002;\r\n    // The eligible adress list\r\n    address[] public whiteList;\r\n    mapping(address => uint256) addressPermission;\r\n    /**\r\n     * @dev Implementation of add an eligible address into the whitelist.\r\n     * @param addAddress new eligible address.\r\n     */\r\n    function addWhiteList(address addAddress)public onlyOwner{\r\n        whiteListAddress.addWhiteListAddress(whiteList,addAddress);\r\n        addressPermission[addAddress] = allPermission;\r\n    }\r\n    function modifyPermission(address addAddress,uint256 permission)public onlyOwner{\r\n        addressPermission[addAddress] = permission;\r\n    }\r\n    /**\r\n     * @dev Implementation of revoke an invalid address from the whitelist.\r\n     * @param removeAddress revoked address.\r\n     */\r\n    function removeWhiteList(address removeAddress)public onlyOwner returns (bool){\r\n        return whiteListAddress.removeWhiteListAddress(whiteList,removeAddress);\r\n    }\r\n    /**\r\n     * @dev Implementation of getting the eligible whitelist.\r\n     */\r\n    function getWhiteList()public view returns (address[]){\r\n        return whiteList;\r\n    }\r\n    /**\r\n     * @dev Implementation of testing whether the input address is eligible.\r\n     * @param tmpAddress input address for testing.\r\n     */    \r\n    function isEligibleAddress(address tmpAddress) public view returns (bool){\r\n        return whiteListAddress.isEligibleAddress(whiteList,tmpAddress);\r\n    }\r\n    function checkAddressPayIn(address tmpAddress) public view returns (bool){\r\n        return isEligibleAddress(tmpAddress) && ((addressPermission[tmpAddress]&allowPayIn) == allowPayIn);\r\n    }\r\n    function checkAddressRedeemOut(address tmpAddress) public view returns (bool){\r\n        return isEligibleAddress(tmpAddress) && ((addressPermission[tmpAddress]&allowRedeemOut) == allowRedeemOut);\r\n    }\r\n}",
  "sourcePath": "C:\\work\\solidity\\FinnexusOptions_V2\\contracts\\modules\\AddressWhiteList.sol",
  "compiler": {
    "name": "solc",
    "version": "0.4.26+commit.4563c3fc.Emscripten.clang"
  },
  "schemaVersion": "3.1.0",
  "updatedAt": "2020-07-29T05:10:52.531Z",
  "devdoc": {
    "methods": {
      "addWhiteList(address)": {
        "details": "Implementation of add an eligible address into the whitelist.\r",
        "params": {
          "addAddress": "new eligible address.\r"
        }
      },
      "getWhiteList()": {
        "details": "Implementation of getting the eligible whitelist.\r"
      },
      "isEligibleAddress(address)": {
        "details": "Implementation of testing whether the input address is eligible.\r",
        "params": {
          "tmpAddress": "input address for testing.\r"
        }
      },
      "isOwner()": {
        "details": "Returns true if the caller is the current owner."
      },
      "owner()": {
        "details": "Returns the address of the current owner."
      },
      "removeWhiteList(address)": {
        "details": "Implementation of revoke an invalid address from the whitelist.\r",
        "params": {
          "removeAddress": "revoked address.\r"
        }
      },
      "renounceOwnership()": {
        "details": "Leaves the contract without owner. It will not be possible to call `onlyOwner` functions anymore. Can only be called by the current owner.     * NOTE: Renouncing ownership will leave the contract without an owner, thereby removing any functionality that is only available to the owner."
      },
      "transferOwnership(address)": {
        "details": "Transfers ownership of the contract to a new account (`newOwner`). Can only be called by the current owner."
      }
    }
  },
  "userdoc": {
    "methods": {
      "setHalt(bool)": {
        "notice": "function Emergency situation that requires contribution period to stop or not."
      }
    }
  }
}