{
  "contractName": "AddressWhiteList",
  "abi": [
    {
      "anonymous": false,
      "inputs": [
        {
          "indexed": true,
          "internalType": "address",
          "name": "previousOwner",
          "type": "address"
        },
        {
          "indexed": true,
          "internalType": "address",
          "name": "newOwner",
          "type": "address"
        }
      ],
      "name": "OwnershipTransferred",
      "type": "event"
    },
    {
      "constant": true,
      "inputs": [],
      "name": "isOwner",
      "outputs": [
        {
          "internalType": "bool",
          "name": "",
          "type": "bool"
        }
      ],
      "payable": false,
      "stateMutability": "view",
      "type": "function"
    },
    {
      "constant": true,
      "inputs": [],
      "name": "owner",
      "outputs": [
        {
          "internalType": "address",
          "name": "",
          "type": "address"
        }
      ],
      "payable": false,
      "stateMutability": "view",
      "type": "function"
    },
    {
      "constant": false,
      "inputs": [],
      "name": "renounceOwnership",
      "outputs": [],
      "payable": false,
      "stateMutability": "nonpayable",
      "type": "function"
    },
    {
      "constant": false,
      "inputs": [
        {
          "internalType": "bool",
          "name": "halt",
          "type": "bool"
        }
      ],
      "name": "setHalt",
      "outputs": [],
      "payable": false,
      "stateMutability": "nonpayable",
      "type": "function"
    },
    {
      "constant": false,
      "inputs": [
        {
          "internalType": "address",
          "name": "newOwner",
          "type": "address"
        }
      ],
      "name": "transferOwnership",
      "outputs": [],
      "payable": false,
      "stateMutability": "nonpayable",
      "type": "function"
    },
    {
      "constant": false,
      "inputs": [
        {
          "internalType": "address",
          "name": "addAddress",
          "type": "address"
        }
      ],
      "name": "addWhiteList",
      "outputs": [],
      "payable": false,
      "stateMutability": "nonpayable",
      "type": "function"
    },
    {
      "constant": false,
      "inputs": [
        {
          "internalType": "address",
          "name": "addAddress",
          "type": "address"
        },
        {
          "internalType": "uint256",
          "name": "permission",
          "type": "uint256"
        }
      ],
      "name": "modifyPermission",
      "outputs": [],
      "payable": false,
      "stateMutability": "nonpayable",
      "type": "function"
    },
    {
      "constant": false,
      "inputs": [
        {
          "internalType": "address",
          "name": "removeAddress",
          "type": "address"
        }
      ],
      "name": "removeWhiteList",
      "outputs": [
        {
          "internalType": "bool",
          "name": "",
          "type": "bool"
        }
      ],
      "payable": false,
      "stateMutability": "nonpayable",
      "type": "function"
    },
    {
      "constant": true,
      "inputs": [],
      "name": "getWhiteList",
      "outputs": [
        {
          "internalType": "address[]",
          "name": "",
          "type": "address[]"
        }
      ],
      "payable": false,
      "stateMutability": "view",
      "type": "function"
    },
    {
      "constant": true,
      "inputs": [
        {
          "internalType": "address",
          "name": "tmpAddress",
          "type": "address"
        }
      ],
      "name": "isEligibleAddress",
      "outputs": [
        {
          "internalType": "bool",
          "name": "",
          "type": "bool"
        }
      ],
      "payable": false,
      "stateMutability": "view",
      "type": "function"
    },
    {
      "constant": true,
      "inputs": [
        {
          "internalType": "address",
          "name": "tmpAddress",
          "type": "address"
        },
        {
          "internalType": "uint256",
          "name": "state",
          "type": "uint256"
        }
      ],
      "name": "checkAddressPermission",
      "outputs": [
        {
          "internalType": "bool",
          "name": "",
          "type": "bool"
        }
      ],
      "payable": false,
      "stateMutability": "view",
      "type": "function"
    }
  ],
  "bytecode": "0x6080604081905260008054600160a860020a0319163317808255600160a060020a0316917f8be0079c531659141344cd1fd0a4f28419497f9722a3daafe3b4186f6b6457e0908290a36109c0806100576000396000f3fe608060405234801561001057600080fd5b50600436106100c6576000357c0100000000000000000000000000000000000000000000000000000000900480638da5cb5b1161008e5780638da5cb5b146101b95780638f32d59b146101dd578063c219043b146101e5578063e7cd4a0414610211578063f2fde38b14610237578063f49543871461025d576100c6565b806309a9d76c146100cb5780632042e5c2146101235780634cbf63021461015d578063715018a614610189578063817bf86d14610193575b600080fd5b6100d361027c565b60408051602080825283518183015283519192839290830191858101910280838360005b8381101561010f5781810151838201526020016100f7565b505050509050019250505060405180910390f35b6101496004803603602081101561013957600080fd5b5035600160a060020a03166102df565b604080519115158252519081900360200190f35b6101496004803603604081101561017357600080fd5b50600160a060020a03813516906020013561035b565b61019161037c565b005b610149600480360360208110156101a957600080fd5b5035600160a060020a031661041d565b6101c161048c565b60408051600160a060020a039092168252519081900360200190f35b61014961049b565b610191600480360360408110156101fb57600080fd5b50600160a060020a0381351690602001356104ac565b6101916004803603602081101561022757600080fd5b5035600160a060020a0316610512565b6101916004803603602081101561024d57600080fd5b5035600160a060020a031661058d565b6101916004803603602081101561027357600080fd5b503515156105e3565b606060018054806020026020016040519081016040528092919081815260200182805480156102d457602002820191906000526020600020905b8154600160a060020a031681526001909101906020018083116102b6575b505050505090505b90565b60006102e961049b565b61032b576040805160e560020a62461bcd028152602060048201819052602482015260008051602061096c833981519152604482015290519081900360640190fd5b600160a060020a03821660009081526002602052604081205561035560018363ffffffff61066d16565b92915050565b600160a060020a039190911660009081526002602052604090205481161490565b61038461049b565b6103c6576040805160e560020a62461bcd028152602060048201819052602482015260008051602061096c833981519152604482015290519081900360640190fd5b60008054604051600160a060020a03909116907f8be0079c531659141344cd1fd0a4f28419497f9722a3daafe3b4186f6b6457e0908390a36000805473ffffffffffffffffffffffffffffffffffffffff19169055565b600061035582600180548060200260200160405190810160405280929190818152602001828054801561047957602002820191906000526020600020905b8154600160a060020a0316815260019091019060200180831161045b575b505050505061075b90919063ffffffff16565b600054600160a060020a031690565b600054600160a060020a0316331490565b6104b461049b565b6104f6576040805160e560020a62461bcd028152602060048201819052602482015260008051602061096c833981519152604482015290519081900360640190fd5b600160a060020a03909116600090815260026020526040902055565b61051a61049b565b61055c576040805160e560020a62461bcd028152602060048201819052602482015260008051602061096c833981519152604482015290519081900360640190fd5b61056d60018263ffffffff6107aa16565b600160a060020a0316600090815260026020526040902063ffffffff9055565b61059561049b565b6105d7576040805160e560020a62461bcd028152602060048201819052602482015260008051602061096c833981519152604482015290519081900360640190fd5b6105e08161084e565b50565b6105eb61049b565b61062d576040805160e560020a62461bcd028152602060048201819052602482015260008051602061096c833981519152604482015290519081900360640190fd5b60008054911515740100000000000000000000000000000000000000000274ff000000000000000000000000000000000000000019909216919091179055565b8154600090815b818110156106ba5783600160a060020a031685828154811061069257fe5b600091825260209091200154600160a060020a031614156106b2576106ba565b600101610674565b8181101561075057600182038114610734578460018303815481106106db57fe5b9060005260206000200160009054906101000a9004600160a060020a031685828154811061070557fe5b9060005260206000200160006101000a815481600160a060020a030219169083600160a060020a031602179055505b84546107448660001983016108fe565b50600192505050610355565b506000949350505050565b8151600090815b818110156107505783600160a060020a031685828151811061078057fe5b6020026020010151600160a060020a031614156107a257600192505050610355565b600101610762565b61080d8280548060200260200160405190810160405280929190818152602001828054801561080257602002820191906000526020600020905b8154600160a060020a031681526001909101906020018083116107e4575b50505050508261075b565b61084a57815460018101835560008381526020902001805473ffffffffffffffffffffffffffffffffffffffff1916600160a060020a0383161790555b5050565b600160a060020a0381166108965760405160e560020a62461bcd0281526004018080602001828103825260268152602001806109466026913960400191505060405180910390fd5b60008054604051600160a060020a03808516939216917f8be0079c531659141344cd1fd0a4f28419497f9722a3daafe3b4186f6b6457e091a36000805473ffffffffffffffffffffffffffffffffffffffff1916600160a060020a0392909216919091179055565b81548183558181111561092257600083815260209020610922918101908301610927565b505050565b6102dc91905b80821115610941576000815560010161092d565b509056fe4f776e61626c653a206e6577206f776e657220697320746865207a65726f20616464726573734f776e61626c653a2063616c6c6572206973206e6f7420746865206f776e6572a265627a7a7231582077d7f4716e32d875661ddabbddd3d421fa954bdcd0b02839739e95edc8deeae664736f6c63430005100032",
  "source": "pragma solidity =0.5.16;\r\nimport \"./Halt.sol\";\r\nimport \"./whiteList.sol\";\r\n    /**\r\n     * @dev Implementation of a whitelist filters a eligible address.\r\n     */\r\ncontract AddressWhiteList is Halt {\r\n\r\n    using whiteListAddress for address[];\r\n    uint256 constant internal allPermission = 0xffffffff;\r\n    uint256 constant internal allowBuyOptions = 1;\r\n    uint256 constant internal allowSellOptions = 1<<1;\r\n    uint256 constant internal allowExerciseOptions = 1<<2;\r\n    uint256 constant internal allowAddCollateral = 1<<3;\r\n    uint256 constant internal allowRedeemCollateral = 1<<4;\r\n    // The eligible adress list\r\n    address[] internal whiteList;\r\n    mapping(address => uint256) internal addressPermission;\r\n    /**\r\n     * @dev Implementation of add an eligible address into the whitelist.\r\n     * @param addAddress new eligible address.\r\n     */\r\n    function addWhiteList(address addAddress)public onlyOwner{\r\n        whiteList.addWhiteListAddress(addAddress);\r\n        addressPermission[addAddress] = allPermission;\r\n    }\r\n    function modifyPermission(address addAddress,uint256 permission)public onlyOwner{\r\n        addressPermission[addAddress] = permission;\r\n    }\r\n    /**\r\n     * @dev Implementation of revoke an invalid address from the whitelist.\r\n     * @param removeAddress revoked address.\r\n     */\r\n    function removeWhiteList(address removeAddress)public onlyOwner returns (bool){\r\n        addressPermission[removeAddress] = 0;\r\n        return whiteList.removeWhiteListAddress(removeAddress);\r\n    }\r\n    /**\r\n     * @dev Implementation of getting the eligible whitelist.\r\n     */\r\n    function getWhiteList()public view returns (address[] memory){\r\n        return whiteList;\r\n    }\r\n    /**\r\n     * @dev Implementation of testing whether the input address is eligible.\r\n     * @param tmpAddress input address for testing.\r\n     */    \r\n    function isEligibleAddress(address tmpAddress) public view returns (bool){\r\n        return whiteList.isEligibleAddress(tmpAddress);\r\n    }\r\n    function checkAddressPermission(address tmpAddress,uint256 state) public view returns (bool){\r\n        return  (addressPermission[tmpAddress]&state) == state;\r\n    }\r\n}",
  "sourcePath": "C:\\work\\solidity\\FinnexusOptions_V2\\contracts\\modules\\AddressWhiteList.sol",
  "compiler": {
    "name": "solc",
    "version": "0.5.16+commit.9c3226ce.Emscripten.clang"
  },
  "schemaVersion": "3.1.0",
  "updatedAt": "2020-10-21T03:26:50.593Z",
  "devdoc": {
    "details": "Implementation of a whitelist filters a eligible address.",
    "methods": {
      "addWhiteList(address)": {
        "details": "Implementation of add an eligible address into the whitelist.",
        "params": {
          "addAddress": "new eligible address."
        }
      },
      "getWhiteList()": {
        "details": "Implementation of getting the eligible whitelist."
      },
      "isEligibleAddress(address)": {
        "details": "Implementation of testing whether the input address is eligible.",
        "params": {
          "tmpAddress": "input address for testing."
        }
      },
      "isOwner()": {
        "details": "Returns true if the caller is the current owner."
      },
      "owner()": {
        "details": "Returns the address of the current owner."
      },
      "removeWhiteList(address)": {
        "details": "Implementation of revoke an invalid address from the whitelist.",
        "params": {
          "removeAddress": "revoked address."
        }
      },
      "renounceOwnership()": {
        "details": "Leaves the contract without owner. It will not be possible to call `onlyOwner` functions anymore. Can only be called by the current owner.      * NOTE: Renouncing ownership will leave the contract without an owner, thereby removing any functionality that is only available to the owner."
      },
      "transferOwnership(address)": {
        "details": "Transfers ownership of the contract to a new account (`newOwner`). Can only be called by the current owner."
      }
    }
  },
  "userdoc": {
    "methods": {
      "setHalt(bool)": {
        "notice": "function Emergency situation that requires contribution period to stop or not."
      }
    }
  }
}