{
  "contractName": "CollateralPool",
  "abi": [
    {
      "constant": true,
      "inputs": [
        {
          "name": "tmpAddress",
          "type": "address"
        }
      ],
      "name": "checkAddressRedeemOut",
      "outputs": [
        {
          "name": "",
          "type": "bool"
        }
      ],
      "payable": false,
      "stateMutability": "view",
      "type": "function"
    },
    {
      "constant": true,
      "inputs": [],
      "name": "getWhiteList",
      "outputs": [
        {
          "name": "",
          "type": "address[]"
        }
      ],
      "payable": false,
      "stateMutability": "view",
      "type": "function"
    },
    {
      "constant": true,
      "inputs": [
        {
          "name": "",
          "type": "address"
        }
      ],
      "name": "netWorthBalances",
      "outputs": [
        {
          "name": "",
          "type": "uint256"
        }
      ],
      "payable": false,
      "stateMutability": "view",
      "type": "function"
    },
    {
      "constant": false,
      "inputs": [
        {
          "name": "optionsPool",
          "type": "address"
        }
      ],
      "name": "setOptionsPoolAddress",
      "outputs": [],
      "payable": false,
      "stateMutability": "nonpayable",
      "type": "function"
    },
    {
      "constant": false,
      "inputs": [
        {
          "name": "removeAddress",
          "type": "address"
        }
      ],
      "name": "removeWhiteList",
      "outputs": [
        {
          "name": "",
          "type": "bool"
        }
      ],
      "payable": false,
      "stateMutability": "nonpayable",
      "type": "function"
    },
    {
      "constant": true,
      "inputs": [
        {
          "name": "",
          "type": "address"
        }
      ],
      "name": "collateralBalances",
      "outputs": [
        {
          "name": "",
          "type": "uint256"
        }
      ],
      "payable": false,
      "stateMutability": "view",
      "type": "function"
    },
    {
      "constant": false,
      "inputs": [],
      "name": "redeemAll",
      "outputs": [],
      "payable": false,
      "stateMutability": "nonpayable",
      "type": "function"
    },
    {
      "constant": true,
      "inputs": [
        {
          "name": "feeType",
          "type": "uint256"
        },
        {
          "name": "amount",
          "type": "uint256"
        }
      ],
      "name": "calculateFee",
      "outputs": [
        {
          "name": "",
          "type": "uint256"
        }
      ],
      "payable": false,
      "stateMutability": "view",
      "type": "function"
    },
    {
      "constant": false,
      "inputs": [
        {
          "name": "oracle",
          "type": "address"
        }
      ],
      "name": "setOracleAddress",
      "outputs": [],
      "payable": false,
      "stateMutability": "nonpayable",
      "type": "function"
    },
    {
      "constant": true,
      "inputs": [
        {
          "name": "",
          "type": "address"
        }
      ],
      "name": "feeBalances",
      "outputs": [
        {
          "name": "",
          "type": "uint256"
        }
      ],
      "payable": false,
      "stateMutability": "view",
      "type": "function"
    },
    {
      "constant": false,
      "inputs": [
        {
          "name": "FctCoinAddr",
          "type": "address"
        }
      ],
      "name": "setFCTCoinAddress",
      "outputs": [],
      "payable": false,
      "stateMutability": "nonpayable",
      "type": "function"
    },
    {
      "constant": true,
      "inputs": [],
      "name": "collateralRate",
      "outputs": [
        {
          "name": "numerator",
          "type": "uint256"
        },
        {
          "name": "denominator",
          "type": "uint256"
        }
      ],
      "payable": false,
      "stateMutability": "view",
      "type": "function"
    },
    {
      "constant": true,
      "inputs": [
        {
          "name": "",
          "type": "uint256"
        }
      ],
      "name": "whiteList",
      "outputs": [
        {
          "name": "",
          "type": "address"
        }
      ],
      "payable": false,
      "stateMutability": "view",
      "type": "function"
    },
    {
      "constant": true,
      "inputs": [],
      "name": "getFCTCoinAddress",
      "outputs": [
        {
          "name": "",
          "type": "address"
        }
      ],
      "payable": false,
      "stateMutability": "view",
      "type": "function"
    },
    {
      "constant": false,
      "inputs": [],
      "name": "renounceOwnership",
      "outputs": [],
      "payable": false,
      "stateMutability": "nonpayable",
      "type": "function"
    },
    {
      "constant": true,
      "inputs": [
        {
          "name": "tmpAddress",
          "type": "address"
        }
      ],
      "name": "isEligibleAddress",
      "outputs": [
        {
          "name": "",
          "type": "bool"
        }
      ],
      "payable": false,
      "stateMutability": "view",
      "type": "function"
    },
    {
      "constant": true,
      "inputs": [],
      "name": "owner",
      "outputs": [
        {
          "name": "",
          "type": "address"
        }
      ],
      "payable": false,
      "stateMutability": "view",
      "type": "function"
    },
    {
      "constant": true,
      "inputs": [],
      "name": "isOwner",
      "outputs": [
        {
          "name": "",
          "type": "bool"
        }
      ],
      "payable": false,
      "stateMutability": "view",
      "type": "function"
    },
    {
      "constant": false,
      "inputs": [
        {
          "name": "currency",
          "type": "address"
        }
      ],
      "name": "redeem",
      "outputs": [],
      "payable": false,
      "stateMutability": "nonpayable",
      "type": "function"
    },
    {
      "constant": false,
      "inputs": [
        {
          "name": "addAddress",
          "type": "address"
        }
      ],
      "name": "addOperator",
      "outputs": [],
      "payable": false,
      "stateMutability": "nonpayable",
      "type": "function"
    },
    {
      "constant": true,
      "inputs": [
        {
          "name": "",
          "type": "uint256"
        }
      ],
      "name": "_operatorList",
      "outputs": [
        {
          "name": "",
          "type": "address"
        }
      ],
      "payable": false,
      "stateMutability": "view",
      "type": "function"
    },
    {
      "constant": false,
      "inputs": [
        {
          "name": "removeAddress",
          "type": "address"
        }
      ],
      "name": "removeOperator",
      "outputs": [
        {
          "name": "",
          "type": "bool"
        }
      ],
      "payable": false,
      "stateMutability": "nonpayable",
      "type": "function"
    },
    {
      "constant": true,
      "inputs": [],
      "name": "getOracleAddress",
      "outputs": [
        {
          "name": "",
          "type": "address"
        }
      ],
      "payable": false,
      "stateMutability": "view",
      "type": "function"
    },
    {
      "constant": true,
      "inputs": [],
      "name": "halted",
      "outputs": [
        {
          "name": "",
          "type": "bool"
        }
      ],
      "payable": false,
      "stateMutability": "view",
      "type": "function"
    },
    {
      "constant": true,
      "inputs": [
        {
          "name": "tmpAddress",
          "type": "address"
        }
      ],
      "name": "checkAddressPayIn",
      "outputs": [
        {
          "name": "",
          "type": "bool"
        }
      ],
      "payable": false,
      "stateMutability": "view",
      "type": "function"
    },
    {
      "constant": false,
      "inputs": [
        {
          "name": "feeType",
          "type": "uint256"
        },
        {
          "name": "numerator",
          "type": "uint256"
        },
        {
          "name": "denominator",
          "type": "uint256"
        }
      ],
      "name": "setTransactionFee",
      "outputs": [],
      "payable": false,
      "stateMutability": "nonpayable",
      "type": "function"
    },
    {
      "constant": true,
      "inputs": [],
      "name": "getOptionsPoolAddress",
      "outputs": [
        {
          "name": "",
          "type": "address"
        }
      ],
      "payable": false,
      "stateMutability": "view",
      "type": "function"
    },
    {
      "constant": false,
      "inputs": [
        {
          "name": "addAddress",
          "type": "address"
        },
        {
          "name": "permission",
          "type": "uint256"
        }
      ],
      "name": "modifyPermission",
      "outputs": [],
      "payable": false,
      "stateMutability": "nonpayable",
      "type": "function"
    },
    {
      "constant": true,
      "inputs": [
        {
          "name": "settlement",
          "type": "address"
        }
      ],
      "name": "getFeeBalance",
      "outputs": [
        {
          "name": "",
          "type": "uint256"
        }
      ],
      "payable": false,
      "stateMutability": "view",
      "type": "function"
    },
    {
      "constant": true,
      "inputs": [
        {
          "name": "feeType",
          "type": "uint256"
        }
      ],
      "name": "getFeeRate",
      "outputs": [
        {
          "name": "",
          "type": "uint256"
        },
        {
          "name": "",
          "type": "uint256"
        }
      ],
      "payable": false,
      "stateMutability": "view",
      "type": "function"
    },
    {
      "constant": true,
      "inputs": [
        {
          "name": "",
          "type": "address"
        }
      ],
      "name": "userCollateralPaying",
      "outputs": [
        {
          "name": "",
          "type": "uint256"
        }
      ],
      "payable": false,
      "stateMutability": "view",
      "type": "function"
    },
    {
      "constant": true,
      "inputs": [
        {
          "name": "",
          "type": "uint256"
        }
      ],
      "name": "FeeRates",
      "outputs": [
        {
          "name": "numerator",
          "type": "uint256"
        },
        {
          "name": "denominator",
          "type": "uint256"
        }
      ],
      "payable": false,
      "stateMutability": "view",
      "type": "function"
    },
    {
      "constant": false,
      "inputs": [
        {
          "name": "index",
          "type": "uint256"
        },
        {
          "name": "addAddress",
          "type": "address"
        }
      ],
      "name": "setOperator",
      "outputs": [],
      "payable": false,
      "stateMutability": "nonpayable",
      "type": "function"
    },
    {
      "constant": false,
      "inputs": [
        {
          "name": "addAddress",
          "type": "address"
        }
      ],
      "name": "addWhiteList",
      "outputs": [],
      "payable": false,
      "stateMutability": "nonpayable",
      "type": "function"
    },
    {
      "constant": true,
      "inputs": [],
      "name": "getOperator",
      "outputs": [
        {
          "name": "",
          "type": "address[]"
        }
      ],
      "payable": false,
      "stateMutability": "view",
      "type": "function"
    },
    {
      "constant": true,
      "inputs": [],
      "name": "getAllFeeBalances",
      "outputs": [
        {
          "name": "",
          "type": "address[]"
        },
        {
          "name": "",
          "type": "uint256[]"
        }
      ],
      "payable": false,
      "stateMutability": "view",
      "type": "function"
    },
    {
      "constant": false,
      "inputs": [
        {
          "name": "newOwner",
          "type": "address"
        }
      ],
      "name": "transferOwnership",
      "outputs": [],
      "payable": false,
      "stateMutability": "nonpayable",
      "type": "function"
    },
    {
      "constant": false,
      "inputs": [
        {
          "name": "halt",
          "type": "bool"
        }
      ],
      "name": "setHalt",
      "outputs": [],
      "payable": false,
      "stateMutability": "nonpayable",
      "type": "function"
    },
    {
      "anonymous": false,
      "inputs": [
        {
          "indexed": true,
          "name": "from",
          "type": "address"
        },
        {
          "indexed": true,
          "name": "collateral",
          "type": "address"
        },
        {
          "indexed": false,
          "name": "amount",
          "type": "uint256"
        },
        {
          "indexed": false,
          "name": "tokenAmount",
          "type": "uint256"
        }
      ],
      "name": "AddCollateral",
      "type": "event"
    },
    {
      "anonymous": false,
      "inputs": [
        {
          "indexed": true,
          "name": "from",
          "type": "address"
        },
        {
          "indexed": false,
          "name": "collateral",
          "type": "address"
        },
        {
          "indexed": false,
          "name": "allRedeem",
          "type": "uint256"
        }
      ],
      "name": "RedeemCollateral",
      "type": "event"
    },
    {
      "anonymous": false,
      "inputs": [
        {
          "indexed": true,
          "name": "value1",
          "type": "uint256"
        },
        {
          "indexed": true,
          "name": "value2",
          "type": "uint256"
        },
        {
          "indexed": true,
          "name": "value3",
          "type": "uint256"
        }
      ],
      "name": "DebugEvent",
      "type": "event"
    },
    {
      "anonymous": false,
      "inputs": [
        {
          "indexed": true,
          "name": "recieptor",
          "type": "address"
        },
        {
          "indexed": true,
          "name": "settlement",
          "type": "address"
        },
        {
          "indexed": false,
          "name": "payback",
          "type": "uint256"
        }
      ],
      "name": "FeePayback",
      "type": "event"
    },
    {
      "anonymous": false,
      "inputs": [
        {
          "indexed": true,
          "name": "settlement",
          "type": "address"
        },
        {
          "indexed": false,
          "name": "payback",
          "type": "uint256"
        }
      ],
      "name": "AddFee",
      "type": "event"
    },
    {
      "anonymous": false,
      "inputs": [
        {
          "indexed": true,
          "name": "recieptor",
          "type": "address"
        },
        {
          "indexed": true,
          "name": "settlement",
          "type": "address"
        },
        {
          "indexed": false,
          "name": "payback",
          "type": "uint256"
        }
      ],
      "name": "TransferPayback",
      "type": "event"
    },
    {
      "anonymous": false,
      "inputs": [
        {
          "indexed": true,
          "name": "previousOwner",
          "type": "address"
        },
        {
          "indexed": true,
          "name": "newOwner",
          "type": "address"
        }
      ],
      "name": "OwnershipTransferred",
      "type": "event"
    },
    {
      "constant": false,
      "inputs": [
        {
          "name": "settlement",
          "type": "address"
        },
        {
          "name": "amount",
          "type": "uint256"
        }
      ],
      "name": "addNetBalance",
      "outputs": [],
      "payable": true,
      "stateMutability": "payable",
      "type": "function"
    },
    {
      "constant": false,
      "inputs": [
        {
          "name": "numerator",
          "type": "uint256"
        },
        {
          "name": "denominator",
          "type": "uint256"
        }
      ],
      "name": "setCollateralRate",
      "outputs": [],
      "payable": false,
      "stateMutability": "nonpayable",
      "type": "function"
    },
    {
      "constant": true,
      "inputs": [],
      "name": "getCollateralRate",
      "outputs": [
        {
          "name": "",
          "type": "uint256"
        },
        {
          "name": "",
          "type": "uint256"
        }
      ],
      "payable": false,
      "stateMutability": "view",
      "type": "function"
    },
    {
      "constant": true,
      "inputs": [
        {
          "name": "user",
          "type": "address"
        }
      ],
      "name": "getUserPayingUsd",
      "outputs": [
        {
          "name": "",
          "type": "uint256"
        }
      ],
      "payable": false,
      "stateMutability": "view",
      "type": "function"
    },
    {
      "constant": true,
      "inputs": [
        {
          "name": "user",
          "type": "address"
        },
        {
          "name": "collateral",
          "type": "address"
        }
      ],
      "name": "userInputCollateral",
      "outputs": [
        {
          "name": "",
          "type": "uint256"
        }
      ],
      "payable": false,
      "stateMutability": "view",
      "type": "function"
    },
    {
      "constant": false,
      "inputs": [
        {
          "name": "calInfo",
          "type": "uint256"
        }
      ],
      "name": "setPhaseSharedPayment",
      "outputs": [],
      "payable": false,
      "stateMutability": "nonpayable",
      "type": "function"
    },
    {
      "constant": false,
      "inputs": [
        {
          "name": "calInfo",
          "type": "uint256"
        },
        {
          "name": "sharedBalances",
          "type": "int256[]"
        },
        {
          "name": "prices",
          "type": "uint256[]"
        },
        {
          "name": "firstOption",
          "type": "uint256"
        },
        {
          "name": "calTime",
          "type": "uint256"
        }
      ],
      "name": "setSharedPayment",
      "outputs": [],
      "payable": false,
      "stateMutability": "nonpayable",
      "type": "function"
    },
    {
      "constant": true,
      "inputs": [
        {
          "name": "account",
          "type": "address"
        }
      ],
      "name": "getUserTotalWorth",
      "outputs": [
        {
          "name": "",
          "type": "uint256"
        }
      ],
      "payable": false,
      "stateMutability": "view",
      "type": "function"
    },
    {
      "constant": true,
      "inputs": [],
      "name": "getTokenNetworth",
      "outputs": [
        {
          "name": "",
          "type": "uint256"
        }
      ],
      "payable": false,
      "stateMutability": "view",
      "type": "function"
    },
    {
      "constant": false,
      "inputs": [
        {
          "name": "collateral",
          "type": "address"
        },
        {
          "name": "amount",
          "type": "uint256"
        }
      ],
      "name": "addCollateral",
      "outputs": [],
      "payable": true,
      "stateMutability": "payable",
      "type": "function"
    },
    {
      "constant": false,
      "inputs": [
        {
          "name": "tokenAmount",
          "type": "uint256"
        },
        {
          "name": "collateral",
          "type": "address"
        }
      ],
      "name": "redeemCollateral",
      "outputs": [],
      "payable": false,
      "stateMutability": "nonpayable",
      "type": "function"
    },
    {
      "constant": true,
      "inputs": [
        {
          "name": "account",
          "type": "address"
        }
      ],
      "name": "calCollateralWorth",
      "outputs": [
        {
          "name": "",
          "type": "uint256[]"
        }
      ],
      "payable": false,
      "stateMutability": "view",
      "type": "function"
    },
    {
      "constant": true,
      "inputs": [],
      "name": "getOccupiedCollateral",
      "outputs": [
        {
          "name": "",
          "type": "uint256"
        }
      ],
      "payable": false,
      "stateMutability": "view",
      "type": "function"
    },
    {
      "constant": true,
      "inputs": [],
      "name": "getAvailableCollateral",
      "outputs": [
        {
          "name": "",
          "type": "uint256"
        }
      ],
      "payable": false,
      "stateMutability": "view",
      "type": "function"
    },
    {
      "constant": true,
      "inputs": [],
      "name": "getLeftCollateral",
      "outputs": [
        {
          "name": "",
          "type": "uint256"
        }
      ],
      "payable": false,
      "stateMutability": "view",
      "type": "function"
    },
    {
      "constant": true,
      "inputs": [
        {
          "name": "strikePrice",
          "type": "uint256"
        },
        {
          "name": "underlyingPrice",
          "type": "uint256"
        },
        {
          "name": "amount",
          "type": "uint256"
        },
        {
          "name": "optType",
          "type": "uint8"
        }
      ],
      "name": "calOptionsOccupied",
      "outputs": [
        {
          "name": "",
          "type": "uint256"
        }
      ],
      "payable": false,
      "stateMutability": "view",
      "type": "function"
    },
    {
      "constant": true,
      "inputs": [],
      "name": "getUnlockedCollateral",
      "outputs": [
        {
          "name": "",
          "type": "uint256"
        }
      ],
      "payable": false,
      "stateMutability": "view",
      "type": "function"
    },
    {
      "constant": true,
      "inputs": [],
      "name": "getTotalCollateral",
      "outputs": [
        {
          "name": "",
          "type": "uint256"
        }
      ],
      "payable": false,
      "stateMutability": "view",
      "type": "function"
    }
  ],
  "bytecode": "0x6000805460c0604081905260056080819052600160a0819052600991909155600a55600160b060020a031990911661010033810291909117808455600160a060020a039190041691907f8be0079c531659141344cd1fd0a4f28419497f9722a3daafe3b4186f6b6457e0908290a360408051808201825260038082526103e8602080840182815260048054600181810183556000838152975160029283027f8a35acfbc15ff81a39ae7d344fd709f28e8600b4aa8c65c6b64bfe7fe36bd19b8181019290925594517f8a35acfbc15ff81a39ae7d344fd709f28e8600b4aa8c65c6b64bfe7fe36bd19c958601558951808b018b5288815280870188815285548085018755868c5291519185028084019290925551908601558951808b018b5288815280870188815285548085018755868c5291519185028084019290925551908601558951808b018b5288815280870188815285548085018755868c5291519185028084019290925551908601558951808b01909a529689529388019485528154938401825595529451930291820192909255905191015561435a806101a66000396000f3006080604052600436106102845763ffffffff60e060020a600035041663059621d7811461028957806309a9d76c146102be5780630aaf3832146103235780630ecfad1e1461034a5780631a5a3fce1461036b5780632042e5c21461038e57806329bc969d146103af5780632f4350c2146103d057806332c82a5f146103e557806334e731221461040957806342049a7214610424578063447dbeac146104455780634c69c00f1461046657806353afc0251461048757806353e3d6e3146104a857806358a6be1c146104c95780635c475d42146104f7578063648c12181461052b5780636d75b9ee14610540578063715018a614610557578063817bf86d1461056c578063852185fc1461058d5780638691a8c5146105a25780638da5cb5b146105b95780638f32d59b146105ce57806395a2251f146105e35780639870d7fe146106045780639b16bfaf14610625578063a04115f61461063d578063a20a804514610655578063a56ea40314610679578063ac8a584a1461069a578063b18b78dd146106bb578063b4d5a9c7146106d0578063b9b8af0b146106f7578063bdac4bf61461070c578063bf36b1101461072d578063c040725a1461074b578063c219043b14610760578063c5e5a3ed14610784578063c78f680314610799578063c7e2f8bd146107ba578063cd40581914610856578063d2aaef4e1461086b578063d6eb591014610883578063dab5512914610898578063ddb944e5146108ad578063e0561aa1146108ce578063e28a327d146108e6578063e7a1c1c0146108fb578063e7cd4a041461091f578063e7f43c6814610940578063ef63e1f714610955578063f20568cd14610970578063f2fde38b14610a1e578063f495438714610a3f575b600080fd5b34801561029557600080fd5b506102aa600160a060020a0360043516610a59565b604080519115158252519081900360200190f35b3480156102ca57600080fd5b506102d3610a91565b60408051602080825283518183015283519192839290830191858101910280838360005b8381101561030f5781810151838201526020016102f7565b505050509050019250505060405180910390f35b34801561032f57600080fd5b50610338610af4565b60408051918252519081900360200190f35b34801561035657600080fd5b50610338600160a060020a0360043516610b1a565b34801561037757600080fd5b5061038c600160a060020a0360043516610b2c565b005b34801561039a57600080fd5b506102aa600160a060020a0360043516610ba7565b3480156103bb57600080fd5b50610338600160a060020a0360043516610c00565b3480156103dc57600080fd5b5061038c610c12565b3480156103f157600080fd5b5061033860043560243560443560ff60643516610ca5565b34801561041557600080fd5b50610338600435602435610cf3565b34801561043057600080fd5b50610338600160a060020a0360043516610d3a565b34801561045157600080fd5b50610338600160a060020a0360043516610d55565b34801561047257600080fd5b5061038c600160a060020a0360043516610ea5565b34801561049357600080fd5b50610338600160a060020a0360043516610f20565b3480156104b457600080fd5b5061038c600160a060020a0360043516610f32565b3480156104d557600080fd5b506104de610fad565b6040805192835260208301919091528051918290030190f35b34801561050357600080fd5b5061050f600435610fb6565b60408051600160a060020a039092168252519081900360200190f35b34801561053757600080fd5b5061050f610fde565b61038c600160a060020a0360043516602435610fed565b34801561056357600080fd5b5061038c61139d565b34801561057857600080fd5b506102aa600160a060020a0360043516611445565b34801561059957600080fd5b506104de6114ab565b61038c600160a060020a03600435166024356114b5565b3480156105c557600080fd5b5061050f6115b2565b3480156105da57600080fd5b506102aa6115c6565b3480156105ef57600080fd5b5061038c600160a060020a03600435166115dc565b34801561061057600080fd5b5061038c600160a060020a03600435166117cc565b34801561063157600080fd5b5061050f600435611823565b34801561064957600080fd5b5061038c600435611831565b34801561066157600080fd5b5061038c600435600160a060020a0360243516611c47565b34801561068557600080fd5b506102d3600160a060020a0360043516611fd7565b3480156106a657600080fd5b506102aa600160a060020a036004351661208e565b3480156106c757600080fd5b5061050f6120e7565b3480156106dc57600080fd5b50610338600160a060020a03600435811690602435166120f6565b34801561070357600080fd5b506102aa612121565b34801561071857600080fd5b506102aa600160a060020a0360043516612143565b34801561073957600080fd5b5061038c600435602435604435612177565b34801561075757600080fd5b5061050f6121db565b34801561076c57600080fd5b5061038c600160a060020a03600435166024356121ea565b34801561079057600080fd5b50610338612252565b3480156107a557600080fd5b50610338600160a060020a0360043516612303565b3480156107c657600080fd5b5060408051602060046024803582810135848102808701860190975280865261038c96843596369660449591949091019291829185019084908082843750506040805187358901803560208181028481018201909552818452989b9a99890198929750908201955093508392508501908490808284375094975050843595505050602090920135915061231e9050565b34801561086257600080fd5b506103386125c1565b34801561087757600080fd5b506104de600435612654565b34801561088f57600080fd5b50610338612675565b3480156108a457600080fd5b50610338612793565b3480156108b957600080fd5b50610338600160a060020a036004351661281f565b3480156108da57600080fd5b506104de600435612831565b3480156108f257600080fd5b5061033861285d565b34801561090757600080fd5b5061038c600435600160a060020a0360243516612872565b34801561092b57600080fd5b5061038c600160a060020a0360043516612900565b34801561094c57600080fd5b506102d3612977565b34801561096157600080fd5b5061038c6004356024356129d7565b34801561097c57600080fd5b50610985612a2e565b604051808060200180602001838103835285818151815260200191508051906020019060200280838360005b838110156109c95781810151838201526020016109b1565b50505050905001838103825284818151815260200191508051906020019060200280838360005b83811015610a085781810151838201526020016109f0565b5050505090500194505050505060405180910390f35b348015610a2a57600080fd5b5061038c600160a060020a0360043516612b37565b348015610a4b57600080fd5b5061038c6004351515612b8c565b6000610a6482611445565b8015610a8b5750600160a060020a0382166000908152600260208190526040909120548116145b92915050565b60606001805480602002602001604051908101604052809291908181526020018280548015610ae957602002820191906000526020600020905b8154600160a060020a03168152600190910190602001808311610acb575b505050505090505b90565b6000610b15610b016125c1565b610b09612675565b9063ffffffff612c1a16565b905090565b600b6020526000908152604090205481565b610b346115c6565b1515610b78576040805160e560020a62461bcd028152602060048201819052602482015260008051602061430f833981519152604482015290519081900360640190fd5b6007805473ffffffffffffffffffffffffffffffffffffffff1916600160a060020a0392909216919091179055565b6000610bb16115c6565b1515610bf5576040805160e560020a62461bcd028152602060048201819052602482015260008051602061430f833981519152604482015290519081900360640190fd5b610a8b600183612c63565b600c6020526000908152604090205481565b6000610c1c6115c6565b1515610c60576040805160e560020a62461bcd028152602060048201819052602482015260008051602061430f833981519152604482015290519081900360640190fd5b5060005b600154811015610ca257610c9a600182815481101515610c8057fe5b600091825260209091200154600160a060020a03166115dc565b600101610c64565b50565b60008060ff8316158587111415610ccd57610cc6868563ffffffff612d5016565b9050610ce0565b610cdd858563ffffffff612d5016565b90505b610ce981612dfa565b9695505050505050565b6000806000610d0185612e29565b8054909250610d16908563ffffffff612d5016565b9050610d2f826001015482612ea890919063ffffffff16565b92505b505092915050565b600160a060020a03166000908152600d602052604090205490565b600554604080517f07e77aa0000000000000000000000000000000000000000000000000000000008152600160a060020a0384811660048301529151600093610a8b9316916307e77aa091602480830192602092919082900301818887803b158015610dc057600080fd5b505af1158015610dd4573d6000803e3d6000fd5b505050506040513d6020811015610dea57600080fd5b5051600554604080517f70a08231000000000000000000000000000000000000000000000000000000008152600160a060020a0387811660048301529151610e999392909216916370a08231916024808201926020929091908290030181600087803b158015610e5957600080fd5b505af1158015610e6d573d6000803e3d6000fd5b505050506040513d6020811015610e8357600080fd5b5051610e8d612252565b9063ffffffff612d5016565b9063ffffffff612eea16565b610ead6115c6565b1515610ef1576040805160e560020a62461bcd028152602060048201819052602482015260008051602061430f833981519152604482015290519081900360640190fd5b6006805473ffffffffffffffffffffffffffffffffffffffff1916600160a060020a0392909216919091179055565b60036020526000908152604090205481565b610f3a6115c6565b1515610f7e576040805160e560020a62461bcd028152602060048201819052602482015260008051602061430f833981519152604482015290519081900360640190fd5b6005805473ffffffffffffffffffffffffffffffffffffffff1916600160a060020a0392909216919091179055565b600954600a5482565b6001805482908110610fc457fe5b600091825260209091200154600160a060020a0316905081565b600554600160a060020a031690565b6000805481908190819060ff161561100457600080fd5b6000805460ff1916600117908190557501000000000000000000000000000000000000000000900460ff1615611084576040805160e560020a62461bcd02815260206004820152601760248201527f5468697320636f6e74726163742069732068616c746564000000000000000000604482015290519081900360640190fd5b61108e8686612f47565b9450600085116110e8576040805160e560020a62461bcd02815260206004820152601a60248201527f736574746c656d656e7420616d6f756e74206973207a65726f21000000000000604482015290519081900360640190fd5b6110f3600386610cf3565b93506110ff868561307a565b61110f858563ffffffff612c1a16565b600654604080517f41976e09000000000000000000000000000000000000000000000000000000008152600160a060020a038a8116600483015291519398509116916341976e09916024808201926020929091908290030181600087803b15801561117957600080fd5b505af115801561118d573d6000803e3d6000fd5b505050506040513d60208110156111a357600080fd5b505192506111b7838663ffffffff612d5016565b91506111d16111c4612252565b839063ffffffff612ea816565b336000908152600d60205260409020549091506111f4908363ffffffff612eea16565b336000908152600d6020908152604080832093909355600160a060020a0389168252600c9052205461122c908663ffffffff612eea16565b600160a060020a0387166000818152600c6020908152604080832094909455338252600e815283822092825291909152205461126e908663ffffffff612eea16565b336000908152600e60209081526040808320600160a060020a038b168452825280832093909355600b905220546112ab908663ffffffff612eea16565b600160a060020a0387166000818152600b60209081526040918290209390935580518881529283018490528051919233927f33a089d94f9a0b7d0fe21e69b40d7dbe1965be652c7382cc778d46963db8c49b929181900390910190a3600554604080517f40c10f19000000000000000000000000000000000000000000000000000000008152336004820152602481018490529051600160a060020a03909216916340c10f199160448082019260009290919082900301818387803b15801561137357600080fd5b505af1158015611387573d6000803e3d6000fd5b50506000805460ff191690555050505050505050565b6113a56115c6565b15156113e9576040805160e560020a62461bcd028152602060048201819052602482015260008051602061430f833981519152604482015290519081900360640190fd5b60008054604051610100909104600160a060020a0316907f8be0079c531659141344cd1fd0a4f28419497f9722a3daafe3b4186f6b6457e0908390a36000805474ffffffffffffffffffffffffffffffffffffffff0019169055565b6000610a8b60018054806020026020016040519081016040528092919081815260200182805480156114a057602002820191906000526020600020905b8154600160a060020a03168152600190910190602001808311611482575b5050505050836130f9565b600954600a549091565b600854600190811080156114ec575060088054339190839081106114d557fe5b600091825260209091200154600160a060020a0316145b1515611568576040805160e560020a62461bcd02815260206004820152603060248201527f4d616e6167657261626c653a2063616c6c6572206973206e6f7420746865206560448201527f6c696769626c65204f70657261746f7200000000000000000000000000000000606482015290519081900360840190fd5b600160a060020a0383166000908152600b6020526040902054611591908363ffffffff612eea16565b600160a060020a039093166000908152600b60205260409020929092555050565b6000546101009004600160a060020a031690565b6000546101009004600160a060020a0316331490565b6000806115e76115c6565b151561162b576040805160e560020a62461bcd028152602060048201819052602482015260008051602061430f833981519152604482015290519081900360640190fd5b600160a060020a0383166000908152600360205260408120549250821161169c576040805160e560020a62461bcd02815260206004820152601260248201527f4974277320656d7074792062616c616e63650000000000000000000000000000604482015290519081900360640190fd5b600160a060020a03831660008181526003602052604081205515156116ee57604051339083156108fc029084906000818181858888f193505050501580156116e8573d6000803e3d6000fd5b50611787565b50604080517fa9059cbb0000000000000000000000000000000000000000000000000000000081523360048201526024810183905290518391600160a060020a0383169163a9059cbb916044808201926020929091908290030181600087803b15801561175a57600080fd5b505af115801561176e573d6000803e3d6000fd5b505050506040513d602081101561178457600080fd5b50505b604080518381529051600160a060020a0385169133917f747147be90b2a81a2e929994a92cd7bb71396bdbfd02f181867c81187d4f79449181900360200190a3505050565b6117d46115c6565b1515611818576040805160e560020a62461bcd028152602060048201819052602482015260008051602061430f833981519152604482015290519081900360640190fd5b610ca260088261314a565b6008805482908110610fc457fe5b6060600080606080600080806008805490501180156118735750600880543391908390811061185c57fe5b600091825260209091200154600160a060020a0316145b15156118ef576040805160e560020a62461bcd02815260206004820152603060248201527f4d616e6167657261626c653a2063616c6c6572206973206e6f7420746865206560448201527f6c696769626c65204f70657261746f7200000000000000000000000000000000606482015290519081900360840190fd5b600754604080517faf70df12000000000000000000000000000000000000000000000000000000008152600481018b8152602482019283526001805460448401819052600160a060020a039095169463af70df12948e9492939290916064909101908490801561198857602002820191906000526020600020905b8154600160a060020a0316815260019091019060200180831161196a575b50509350505050600060405180830381600087803b1580156119a957600080fd5b505af11580156119bd573d6000803e3d6000fd5b505050506040513d6000823e601f3d908101601f1916820160405260608110156119e657600080fd5b8101908080516401000000008111156119fe57600080fd5b82016020810184811115611a1157600080fd5b8151856020820283011164010000000082111715611a2e57600080fd5b50506020820151604090920151909a5090985096505085159050611c3d57600754604080517fe5081c40000000000000000000000000000000000000000000000000000000008152600481018b8152602482019283526001805460448401819052600160a060020a039095169463e5081c40948e94929392909160649091019084908015611ae557602002820191906000526020600020905b8154600160a060020a03168152600190910190602001808311611ac7575b50509350505050600060405180830381600087803b158015611b0657600080fd5b505af1158015611b1a573d6000803e3d6000fd5b505050506040513d6000823e601f3d908101601f191682016040908152811015611b4357600080fd5b810190808051640100000000811115611b5b57600080fd5b82016020810184811115611b6e57600080fd5b8151856020820283011164010000000082111715611b8b57600080fd5b50509291906020018051640100000000811115611ba757600080fd5b82016020810184811115611bba57600080fd5b8151856020820283011164010000000082111715611bd757600080fd5b50949850965060009550505050505b8351821015611c30578682815181101515611bfd57fe5b906020019060200201518483815181101515611c1557fe5b60209081029091010180519091019052600190910190611be6565b611c3d888585894261231e565b5050505050505050565b600080548190819081908190819060ff1615611c6257600080fd5b6000805460ff1916600117908190557501000000000000000000000000000000000000000000900460ff1615611ce2576040805160e560020a62461bcd02815260206004820152601760248201527f5468697320636f6e74726163742069732068616c746564000000000000000000604482015290519081900360640190fd5b611ceb87610a59565b1515611d41576040805160e560020a62461bcd02815260206004820152601f60248201527f736574746c656d656e7420697320756e737570706f7274656420746f6b656e00604482015290519081900360640190fd5b600554604080517f593557360000000000000000000000000000000000000000000000000000000081523360048201529051600160a060020a03909216916359355736916024808201926020929091908290030181600087803b158015611da757600080fd5b505af1158015611dbb573d6000803e3d6000fd5b505050506040513d6020811015611dd157600080fd5b5051600554604080517f70a0823100000000000000000000000000000000000000000000000000000000815233600482015290519298508a928992600160a060020a0316916370a082319160248083019260209291908290030181600087803b158015611e3d57600080fd5b505af1158015611e51573d6000803e3d6000fd5b505050506040513d6020811015611e6757600080fd5b5051011015611ec0576040805160e560020a62461bcd02815260206004820152601e60248201527f53436f696e2062616c616e636520697320696e73756666696369656e74210000604482015290519081900360640190fd5b871515611ecc57611fc3565b611ed4610af4565b9450611ee088866131f0565b9350935083880397506000881115611fb95782850394506000861115611f1557858811611f0e576000611f12565b8588035b97505b611f1f88866133c9565b915091506000821115611fb957600554604080517f9dc29fac000000000000000000000000000000000000000000000000000000008152336004820152602481018590529051600160a060020a0390921691639dc29fac9160448082019260009290919082900301818387803b158015611f9857600080fd5b505af1158015611fac573d6000803e3d6000fd5b5050509382019350918201915b611fc387846134d0565b50506000805460ff19169055505050505050565b606080606060008061200d8660016000815481101515611ff357fe5b600091825260209091200154600160a060020a0316613a3c565b5060015491955093509150600090505b8181101561208457612064838281518110151561203657fe5b90602001906020020151858381518110151561204e57fe5b602090810290910101519063ffffffff612eea16565b848281518110151561207257fe5b6020908102909101015260010161201d565b5091949350505050565b60006120986115c6565b15156120dc576040805160e560020a62461bcd028152602060048201819052602482015260008051602061430f833981519152604482015290519081900360640190fd5b610a8b600883612c63565b600654600160a060020a031690565b600160a060020a039182166000908152600e6020908152604080832093909416825291909152205490565b6000547501000000000000000000000000000000000000000000900460ff1681565b600061214e82611445565b8015610a8b575050600160a060020a031660009081526002602052604090205460019081161490565b60006121816115c6565b15156121c5576040805160e560020a62461bcd028152602060048201819052602482015260008051602061430f833981519152604482015290519081900360640190fd5b6121ce84612e29565b9283555060019091015550565b600754600160a060020a031690565b6121f26115c6565b1515612236576040805160e560020a62461bcd028152602060048201819052602482015260008051602061430f833981519152604482015290519081900360640190fd5b600160a060020a03909116600090815260026020526040902055565b600080600560009054906101000a9004600160a060020a0316600160a060020a03166318160ddd6040518163ffffffff1660e060020a028152600401602060405180830381600087803b1580156122a857600080fd5b505af11580156122bc573d6000803e3d6000fd5b505050506040513d60208110156122d257600080fd5b505190508015156122e9576305f5e10091506122ff565b806122f2612793565b8115156122fb57fe5b0491505b5090565b600160a060020a031660009081526003602052604090205490565b60008060008060088054905011801561235a5750600880543391908390811061234357fe5b600091825260209091200154600160a060020a0316145b15156123d6576040805160e560020a62461bcd02815260206004820152603060248201527f4d616e6167657261626c653a2063616c6c6572206973206e6f7420746865206560448201527f6c696769626c65204f70657261746f7200000000000000000000000000000000606482015290519081900360840190fd5b6007546040517f8ff239e6000000000000000000000000000000000000000000000000000000008152600481018a81526024820188905260648201879052608060448301908152895160848401528951600160a060020a0390941693638ff239e6938d938b938d938c9360a401906020808701910280838360005b83811015612469578181015183820152602001612451565b5050505090500195505050505050600060405180830381600087803b15801561249157600080fd5b505af11580156124a5573d6000803e3d6000fd5b50505050600092505b8651831015611c3d5760018054849081106124c557fe5b60009182526020822001548851600160a060020a0390911693508890859081106124eb57fe5b602090810290910101511261255a5761253c878481518110151561250b57fe5b6020908102909101810151600160a060020a0385166000908152600b9092526040909120549063ffffffff612eea16565b600160a060020a0383166000908152600b60205260409020556125b6565b61259c878481518110151561256b57fe5b6020908102909101810151600160a060020a0385166000908152600b9092526040822054910363ffffffff612c1a16565b600160a060020a0383166000908152600b60205260409020555b6001909201916124ae565b600080600760009054906101000a9004600160a060020a0316600160a060020a03166373a3d4246040518163ffffffff1660e060020a028152600401602060405180830381600087803b15801561261757600080fd5b505af115801561262b573d6000803e3d6000fd5b505050506040513d602081101561264157600080fd5b5051905061264e81612dfa565b91505090565b600080600061266284612e29565b8054600190910154909590945092505050565b60015460009081908180805b8383101561278957600180548490811061269757fe5b6000918252602080832090910154600654604080517f41976e09000000000000000000000000000000000000000000000000000000008152600160a060020a0393841660048201819052915191975091909216936341976e099360248084019491939192918390030190829087803b15801561271257600080fd5b505af1158015612726573d6000803e3d6000fd5b505050506040513d602081101561273c57600080fd5b5051600160a060020a0383166000908152600b602052604090205490915061277c9061276f90839063ffffffff612d5016565b869063ffffffff612eea16565b9450600190920191612681565b5092949350505050565b6000610b15600560009054906101000a9004600160a060020a0316600160a060020a031663dad3eb746040518163ffffffff1660e060020a028152600401602060405180830381600087803b1580156127eb57600080fd5b505af11580156127ff573d6000803e3d6000fd5b505050506040513d602081101561281557600080fd5b5051610b09612675565b600d6020526000908152604090205481565b600480548290811061283f57fe5b60009182526020909120600290910201805460019091015490915082565b6000610b1561286a6125c1565b610b09612793565b61287a6115c6565b15156128be576040805160e560020a62461bcd028152602060048201819052602482015260008051602061430f833981519152604482015290519081900360640190fd5b806008838154811015156128ce57fe5b9060005260206000200160006101000a815481600160a060020a030219169083600160a060020a031602179055505050565b6129086115c6565b151561294c576040805160e560020a62461bcd028152602060048201819052602482015260008051602061430f833981519152604482015290519081900360640190fd5b61295760018261314a565b600160a060020a0316600090815260026020526040902063ffffffff9055565b60606008805480602002602001604051908101604052809291908181526020018280548015610ae957602002820191906000526020600020908154600160a060020a03168152600190910190602001808311610acb575050505050905090565b6129df6115c6565b1515612a23576040805160e560020a62461bcd028152602060048201819052602482015260008051602061430f833981519152604482015290519081900360640190fd5b600991909155600a55565b60608060606000600180549050604051908082528060200260200182016040528015612a64578160200160208202803883390190505b509150600090505b600154811015612ace5760036000600183815481101515612a8957fe5b6000918252602080832090910154600160a060020a031683528201929092526040019020548251839083908110612abc57fe5b60209081029091010152600101612a6c565b60018281805480602002602001604051908101604052809291908181526020018280548015612b2657602002820191906000526020600020905b8154600160a060020a03168152600190910190602001808311612b08575b505050505091509350935050509091565b612b3f6115c6565b1515612b83576040805160e560020a62461bcd028152602060048201819052602482015260008051602061430f833981519152604482015290519081900360640190fd5b610ca281613eb1565b612b946115c6565b1515612bd8576040805160e560020a62461bcd028152602060048201819052602482015260008051602061430f833981519152604482015290519081900360640190fd5b6000805491151575010000000000000000000000000000000000000000000275ff00000000000000000000000000000000000000000019909216919091179055565b6000612c5c83836040805190810160405280601e81526020017f536166654d6174683a207375627472616374696f6e206f766572666c6f770000815250613faa565b9392505050565b8154600090815b81811015612cb25783600160a060020a03168582815481101515612c8a57fe5b600091825260209091200154600160a060020a03161415612caa57612cb2565b600101612c6a565b81811015612d455760001982018114612d2b578460018303815481101515612cd657fe5b6000918252602090912001548554600160a060020a0390911690869083908110612cfc57fe5b9060005260206000200160006101000a815481600160a060020a030219169083600160a060020a031602179055505b8454612d3b8660001983016142cb565b5060019250610d32565b506000949350505050565b600080831515612d635760009150612df3565b50828202828482811515612d7357fe5b0414612def576040805160e560020a62461bcd02815260206004820152602160248201527f536166654d6174683a206d756c7469706c69636174696f6e206f766572666c6f60448201527f7700000000000000000000000000000000000000000000000000000000000000606482015290519081900360840190fd5b8091505b5092915050565b6009546000908190612e12908463ffffffff612d5016565b600a54909150612c5c90829063ffffffff612ea816565b6004546000908210612e85576040805160e560020a62461bcd02815260206004820152601260248201527f66656520747970652069732076616c6964210000000000000000000000000000604482015290519081900360640190fd5b6004805483908110612e9357fe5b90600052602060002090600202019050919050565b6000612c5c83836040805190810160405280601a81526020017f536166654d6174683a206469766973696f6e206279207a65726f000000000000815250614047565b600082820183811015612def576040805160e560020a62461bcd02815260206004820152601b60248201527f536166654d6174683a206164646974696f6e206f766572666c6f770000000000604482015290519081900360640190fd5b6000806000612f5585612143565b1515612fab576040805160e560020a62461bcd02815260206004820152601f60248201527f736574746c656d656e7420697320756e737570706f7274656420746f6b656e00604482015290519081900360640190fd5b60009150600160a060020a0385161515612fc757349150613072565b60008411156130725750604080517f23b872dd0000000000000000000000000000000000000000000000000000000081523360048201523060248201526044810185905290518591600160a060020a038316916323b872dd916064808201926020929091908290030181600087803b15801561304257600080fd5b505af1158015613056573d6000803e3d6000fd5b505050506040513d602081101561306c57600080fd5b50849250505b509392505050565b600160a060020a0382166000908152600360205260409020546130a3908263ffffffff612eea16565b600160a060020a038316600081815260036020908152604091829020939093558051848152905191927f1104eee7f034069140a0655d153038cedf9e65e5724018c555a8d56cfb6bee7792918290030190a25050565b8151600090815b81811015612d455783600160a060020a0316858281518110151561312057fe5b90602001906020020151600160a060020a031614156131425760019250610d32565b600101613100565b6131ad828054806020026020016040519081016040528092919081815260200182805480156131a257602002820191906000526020600020905b8154600160a060020a03168152600190910190602001808311613184575b5050505050826130f9565b15156131ec57815460018101835560008381526020902001805473ffffffffffffffffffffffffffffffffffffffff1916600160a060020a0383161790555b5050565b6000808080808080871515613204576133bd565b600554604080517fc40868930000000000000000000000000000000000000000000000000000000081523360048201528151600160a060020a039093169263c4086893926024808401939192918290030181600087803b15801561326757600080fd5b505af115801561327b573d6000803e3d6000fd5b505050506040513d604081101561329157600080fd5b50805160209091015190955093508415156132b257600096508695506133bd565b600092506000915084848115156132c557fe5b0490508885106132e9578891506132e2828263ffffffff612d5016565b92506132f0565b8491508392505b8783111561331d57613308888263ffffffff612ea816565b915061331a828263ffffffff612d5016565b92505b60008211156133b557600554604080517fc872e8dc000000000000000000000000000000000000000000000000000000008152336004820152602481018590529051600160a060020a039092169163c872e8dc9160448082019260009290919082900301818387803b15801561339257600080fd5b505af11580156133a6573d6000803e3d6000fd5b505050508183965096506133bd565b600096508695505b50505050509250929050565b60008060008060008060006133dc612252565b94506133ee898663ffffffff612d5016565b9350878411156134c157613408888663ffffffff612ea816565b925061341a838663ffffffff612d5016565b600554909250838a039150600160a060020a0316634b91a07b3383613445818a63ffffffff612d5016565b6040518463ffffffff1660e060020a0281526004018084600160a060020a0316600160a060020a031681526020018381526020018281526020019350505050600060405180830381600087803b15801561349e57600080fd5b505af11580156134b2573d6000803e3d6000fd5b505050508282965096506133bd565b50969791965090945050505050565b600060608080808481818080808b15156134e957613a2d565b8b9a506134f6338e613a3c565b995099509950600180548060200260200160405190810160405280929190818152602001828054801561355257602002820191906000526020600020905b8154600160a060020a03168152600190910190602001808311613534575b50505050509650613563878e6140b3565b955085156135d25786600081518110151561357a57fe5b90602001906020020151878781518110151561359257fe5b600160a060020a0390921660209283029091019091015286518d90889060009081106135ba57fe5b600160a060020a039092166020928302909101909101525b8651955085604051908082528060200260200182016040528015613600578160200160208202803883390190505b509450600093505b8584108015613617575060008c115b1561379d57868481518110151561362a57fe5b9060200190602002015192506136758a8581518110151561364757fe5b90602001906020020151898681518110151561365f57fe5b602090810290910101519063ffffffff612d5016565b9150818c1015613739576136a7888581518110151561369057fe5b602090810290910101518d9063ffffffff612ea816565b336000908152600e60209081526040808320600160a060020a03881684529091529020549091506136f29083906136e6908f830363ffffffff612d5016565b9063ffffffff612ea816565b336000908152600e60209081526040808320600160a060020a03881684529091529020558451819086908690811061372657fe5b6020908102909101015260009b5061379d565b336000908152600e60209081526040808320600160a060020a038716845290915281205589518a908590811061376b57fe5b90602001906020020151858581518110151561378357fe5b602090810290910101529a8190039a600190930192613608565b60008c11156138545760009150600093505b858410156137fd576137f06137e389868151811015156137cb57fe5b906020019060200201518b8781518110151561365f57fe5b839063ffffffff612eea16565b60019094019391506137af565b600093505b8584101561385457613831613823836136e68f8d8981518110151561365f57fe5b868681518110151561204e57fe5b858581518110151561383f57fe5b60209081029091010152600190930192613802565b6138b860018054806020026020016040519081016040528092919081815260200182805480156138ad57602002820191906000526020600020905b8154600160a060020a0316815260019091019060200180831161388f575b50505050508e6140b3565b935083156139275784848151811015156138ce57fe5b9060200190602002015190508460008151811015156138e957fe5b90602001906020020151858581518110151561390157fe5b60209081029091010152845181908690600090811061391c57fe5b602090810290910101525b600093505b858410156139e957600180548590811061394257fe5b6000918252602090912001548551600160a060020a03909116935061399e9086908690811061396d57fe5b6020908102909101810151600160a060020a0386166000908152600b9092526040909120549063ffffffff612c1a16565b600160a060020a0384166000908152600b602052604090205584516139de90339085908890889081106139cd57fe5b906020019060200201516004614108565b60019093019261392c565b60408051600160a060020a038f168152602081018d9052815133927fc994feb9b99296d80965b47aec6be0d25704ddf95b9b9bc1ed8bc753960d5809928290030190a25b50505050505050505050505050565b606080606080600060608060606000806000806001805480602002602001604051908101604052809291908181526020018280548015613aa557602002820191906000526020600020905b8154600160a060020a03168152600190910190602001808311613a87575b50505050509850613ab6898e6140b3565b97508715613b2557886000815181101515613acd57fe5b906020019060200201518989815181101515613ae557fe5b600160a060020a0390921660209283029091019091015288518d908a906000908110613b0d57fe5b600160a060020a039092166020928302909101909101525b8851975087604051908082528060200260200182016040528015613b53578160200160208202803883390190505b50965087604051908082528060200260200182016040528015613b80578160200160208202803883390190505b50955087604051908082528060200260200182016040528015613bad578160200160208202803883390190505b5094506000935060009250613bc18e610d55565b9150600090505b87811015613e0957613cb2600c60008b84815181101515613be557fe5b90602001906020020151600160a060020a0316600160a060020a0316815260200190815260200160002054600b60008c85815181101515613c2257fe5b90602001906020020151600160a060020a0316600160a060020a0316815260200190815260200160002054600e600033600160a060020a0316600160a060020a0316815260200190815260200160002060008d86815181101515613c8257fe5b90602001906020020151600160a060020a0316600160a060020a031681526020019081526020016000205461414d565b8883815181101515613cc057fe5b9060200190602002018884815181101515613cd757fe5b60209081029091010191909152526006548951600160a060020a03909116906341976e09908b9084908110613d0857fe5b906020019060200201516040518263ffffffff1660e060020a0281526004018082600160a060020a0316600160a060020a03168152602001915050602060405180830381600087803b158015613d5d57600080fd5b505af1158015613d71573d6000803e3d6000fd5b505050506040513d6020811015613d8757600080fd5b50518551869083908110613d9757fe5b602090810290910101528651613ddc90613dcf90899084908110613db757fe5b90602001906020020151878481518110151561365f57fe5b859063ffffffff612eea16565b9350613dff613df28783815181101515613db757fe5b849063ffffffff612eea16565b9250600101613bc8565b818410613e57575060005b87811015613e5257613e32846136e6848a8581518110151561365f57fe5b8782815181101515613e4057fe5b60209081029091010152600101613e14565b613e9c565b5082900360005b87811015613e9c57613e7c836136e684898581518110151561365f57fe5b8682815181101515613e8a57fe5b60209081029091010152600101613e5e565b50949c939b5091995091975050505050505050565b600160a060020a0381161515613f37576040805160e560020a62461bcd02815260206004820152602660248201527f4f776e61626c653a206e6577206f776e657220697320746865207a65726f206160448201527f6464726573730000000000000000000000000000000000000000000000000000606482015290519081900360840190fd5b60008054604051600160a060020a038085169361010090930416917f8be0079c531659141344cd1fd0a4f28419497f9722a3daafe3b4186f6b6457e091a360008054600160a060020a039092166101000274ffffffffffffffffffffffffffffffffffffffff0019909216919091179055565b600080828585111561403d5760405160e560020a62461bcd0281526004018080602001828103825283818151815260200191508051906020019080838360005b83811015614002578181015183820152602001613fea565b50505050905090810190601f16801561402f5780820380516001836020036101000a031916815260200191505b509250505060405180910390fd5b5050509103919050565b6000808281851161409d5760405160e560020a62461bcd02815260040180806020018281038252838181518152602001915080519060200190808383600083811015614002578181015183820152602001613fea565b5083858115156140a957fe5b0495945050505050565b8151600090815b818110156141005783600160a060020a031685828151811015156140da57fe5b90602001906020020151600160a060020a031614156140f857614100565b6001016140ba565b949350505050565b600082151561411657614146565b6141208284610cf3565b905061413c8585614137868563ffffffff612c1a16565b614185565b614146848261307a565b5050505050565b60008080614165866136e6878763ffffffff612d5016565b905080614178868263ffffffff612c1a16565b9250925050935093915050565b6000811515614193576142c5565b600160a060020a03831615156141df57604051600160a060020a0385169083156108fc029084906000818181858888f193505050501580156141d9573d6000803e3d6000fd5b50614279565b50604080517fa9059cbb000000000000000000000000000000000000000000000000000000008152600160a060020a038581166004830152602482018490529151849283169163a9059cbb9160448083019260209291908290030181600087803b15801561424c57600080fd5b505af1158015614260573d6000803e3d6000fd5b505050506040513d602081101561427657600080fd5b50505b82600160a060020a031684600160a060020a03167f8aaaec2388cc390cde69685f78340e15f36d424b6b6b595f549dd883931f9c9b846040518082815260200191505060405180910390a35b50505050565b8154818355818111156142ef576000838152602090206142ef9181019083016142f4565b505050565b610af191905b808211156122ff57600081556001016142fa56004f776e61626c653a2063616c6c6572206973206e6f7420746865206f776e6572a165627a7a72305820ef4c8cf7a396eb8183c1da2f9c4c52db6ee9e3d1664c3eff084aa474e45ae19b0029",
  "source": "\r\npragma solidity ^0.4.26;\r\nimport \"./modules/SafeMath.sol\";\r\nimport \"./modules/ReentrancyGuard.sol\";\r\nimport \"./modules/underlyingAssets.sol\";\r\nimport \"./modules/TransactionFee.sol\";\r\nimport \"./interfaces/IOptionsPool.sol\";\r\nimport \"./interfaces/IFNXOracle.sol\";\r\nimport \"./interfaces/IFCTCoin.sol\";\r\nimport \"./modules/Operator.sol\";\r\n\r\ncontract CollateralPool is ReentrancyGuard,TransactionFee,ImportIFCTCoin,ImportOracle,ImportOptionsPool,Operator {\r\n    using SafeMath for uint256;\r\n    fraction public collateralRate = fraction(5, 1);\r\n    //token net worth\r\n    mapping (address => uint256) public netWorthBalances;\r\n    //address collaterel\r\n    mapping (address => uint256) public collateralBalances;\r\n    //user paying for collateral usd;\r\n    mapping (address => uint256) public userCollateralPaying;\r\n    //account -> collateral -> amount\r\n    mapping (address => mapping (address => uint256)) public userInputCollateral;\r\n\r\n    event AddCollateral(address indexed from,address indexed collateral,uint256 amount,uint256 tokenAmount);\r\n    event RedeemCollateral(address indexed from,address collateral,uint256 allRedeem);\r\n\r\n    event DebugEvent(uint256 indexed value1,uint256 indexed value2,uint256 indexed value3);\r\n\r\n    function addNetBalance(address settlement,uint256 amount) public payable onlyOperatorIndex(1) {\r\n        netWorthBalances[settlement] = netWorthBalances[settlement].add(amount);\r\n    }\r\n    function setCollateralRate(uint256 numerator,uint256 denominator) public onlyOwner {\r\n        collateralRate.numerator = numerator;\r\n        collateralRate.denominator = denominator;\r\n    }\r\n    function getCollateralRate()public view returns (uint256,uint256) {\r\n        return (collateralRate.numerator,collateralRate.denominator);\r\n    }\r\n    function getUserPayingUsd(address user)public view returns (uint256){\r\n        return userCollateralPaying[user];\r\n    }\r\n    function userInputCollateral(address user,address collateral)public view returns (uint256){\r\n        return userInputCollateral[user][collateral];\r\n    }\r\n    function setPhaseSharedPayment(uint256 calInfo) public onlyOperatorIndex(0) {\r\n        (uint256[] memory sharedBalances,uint256 firstOption,bool success) =\r\n             _optionsPool.calculatePhaseSharedPayment(calInfo,whiteList);\r\n        if (success){\r\n            (int256[] memory fallBalance,uint256[] memory prices) = _optionsPool.calculatePhaseOptionsFall(calInfo,whiteList);\r\n            for (uint256 i= 0;i<fallBalance.length;i++){\r\n                fallBalance[i] += int256(sharedBalances[i]);\r\n            }\r\n            setSharedPayment(calInfo,fallBalance,prices,firstOption,now);\r\n        }\r\n    }\r\n    function setSharedPayment(uint256 calInfo,int256[] sharedBalances,uint256[] prices,uint256 firstOption,uint256 calTime) public onlyOperatorIndex(0){\r\n        _optionsPool.setSharedState(calInfo,firstOption,prices,calTime);\r\n        for (uint i=0;i<sharedBalances.length;i++){\r\n            address addr = whiteList[i];\r\n            if(sharedBalances[i]>=0){\r\n                netWorthBalances[addr] = netWorthBalances[addr].add(uint256(sharedBalances[i]));\r\n            }else{\r\n                netWorthBalances[addr] = netWorthBalances[addr].sub(uint256(-sharedBalances[i]));\r\n            }\r\n        }\r\n    }\r\n    function getUserTotalWorth(address account)public view returns (uint256){\r\n        return getTokenNetworth().mul(_FCTCoin.balanceOf(account)).add(_FCTCoin.lockedWorthOf(account));\r\n    }\r\n    function getTokenNetworth() public view returns (uint256){\r\n        uint256 _totalSupply = _FCTCoin.totalSupply();\r\n        if (_totalSupply == 0){\r\n            return 1e8;\r\n        }\r\n        return getUnlockedCollateral()/_totalSupply;\r\n    }\r\n    function addCollateral(address collateral,uint256 amount) nonReentrant notHalted public payable {\r\n        amount = getPayableAmount(collateral,amount);\r\n        require(amount>0 , \"settlement amount is zero!\");\r\n        uint256 fee = calculateFee(addColFee,amount);\r\n        _addTransactionFee(collateral,fee);\r\n        amount = amount.sub(fee);\r\n        uint256 price = _oracle.getPrice(collateral);\r\n        uint256 userPaying = price.mul(amount);\r\n        uint256 mintAmount = userPaying.div(getTokenNetworth());\r\n        userCollateralPaying[msg.sender] = userCollateralPaying[msg.sender].add(userPaying);\r\n        collateralBalances[collateral] = collateralBalances[collateral].add(amount);\r\n        userInputCollateral[msg.sender][collateral] = userInputCollateral[msg.sender][collateral].add(amount);\r\n        netWorthBalances[collateral] = netWorthBalances[collateral].add(amount);\r\n        emit AddCollateral(msg.sender,collateral,amount,mintAmount);\r\n        _FCTCoin.mint(msg.sender,mintAmount);\r\n    }\r\n    //calculate token\r\n    function redeemCollateral(uint256 tokenAmount,address collateral) nonReentrant notHalted public {\r\n        require(checkAddressRedeemOut(collateral) , \"settlement is unsupported token\");\r\n        uint256 lockedAmount = _FCTCoin.lockedBalanceOf(msg.sender);\r\n        require(_FCTCoin.balanceOf(msg.sender)+lockedAmount>=tokenAmount,\"SCoin balance is insufficient!\");\r\n        if (tokenAmount == 0){\r\n            return;\r\n        }\r\n        uint256 leftColateral = getLeftCollateral();\r\n        (uint256 burnAmount,uint256 redeemWorth) = _redeemLockedCollateral(tokenAmount,leftColateral);\r\n        tokenAmount -= burnAmount;\r\n        if (tokenAmount > 0){\r\n            leftColateral -= redeemWorth;\r\n            \r\n            if (lockedAmount > 0){\r\n                tokenAmount = tokenAmount > lockedAmount ? tokenAmount - lockedAmount : 0;\r\n            }\r\n            (uint256 newRedeem,uint256 newWorth) = _redeemCollateral(tokenAmount,leftColateral);\r\n            if(newRedeem>0){\r\n                _FCTCoin.burn(msg.sender, newRedeem);\r\n                burnAmount += newRedeem;\r\n                redeemWorth += newWorth;\r\n            }\r\n        }\r\n        _redeemCollateralWorth(collateral,redeemWorth);\r\n    }\r\n    function _redeemLockedCollateral(uint256 tokenAmount,uint256 leftColateral)internal returns (uint256,uint256){\r\n        if (leftColateral == 0){\r\n            return;\r\n        }\r\n        (uint256 lockedAmount,uint256 lockedWorth) = _FCTCoin.getLockedBalance(msg.sender);\r\n        if (lockedAmount == 0){\r\n            return (0,0);\r\n        }\r\n        uint256 redeemWorth = 0;\r\n        uint256 lockedBurn = 0;\r\n        uint256 lockedPrice = lockedWorth/lockedAmount;\r\n        if (lockedAmount >= tokenAmount){\r\n            lockedBurn = tokenAmount;\r\n            redeemWorth = tokenAmount.mul(lockedPrice);\r\n        }else{\r\n            lockedBurn = lockedAmount;\r\n            redeemWorth = lockedWorth;\r\n        }\r\n        if (redeemWorth > leftColateral) {\r\n            lockedBurn = leftColateral.div(lockedPrice);\r\n            redeemWorth = lockedBurn.mul(lockedPrice);\r\n        }\r\n        if (lockedBurn > 0){\r\n            _FCTCoin.burnLocked(msg.sender,lockedBurn);\r\n            return (lockedBurn,redeemWorth);\r\n        }\r\n        return (0,0);\r\n    }\r\n    function _redeemCollateral(uint256 leftAmount,uint256 leftColateral)internal returns (uint256,uint256){\r\n        uint256 tokenNetWorth = getTokenNetworth();\r\n        uint256 leftWorth = leftAmount.mul(tokenNetWorth);        \r\n        if (leftWorth > leftColateral){\r\n            uint256 newRedeem = leftColateral.div(tokenNetWorth);\r\n            uint256 newWorth = newRedeem.mul(tokenNetWorth);\r\n            uint256 locked = leftAmount - newRedeem;\r\n            _FCTCoin.addlockBalance(msg.sender,locked,locked.mul(tokenNetWorth));\r\n            return (newRedeem,newWorth);\r\n        }\r\n        return (leftAmount,leftWorth);\r\n    }\r\n    function _redeemCollateralWorth(address collateral,uint256 redeemWorth) internal {\r\n        if (redeemWorth == 0){\r\n            return;\r\n        }\r\n        uint256 allRedeem = redeemWorth;\r\n        (uint256[] memory colBalances,uint256[] memory PremiumBalances,uint256[] memory prices) = _getCollateralAndPremiumBalances(msg.sender,collateral);\r\n        address[] memory tmpWhiteList = whiteList;\r\n        uint256 ln = whiteListAddress._getEligibleIndexAddress(tmpWhiteList,collateral);\r\n        if (ln != 0){\r\n            tmpWhiteList[ln] = tmpWhiteList[0];\r\n            tmpWhiteList[0] = collateral;\r\n        }\r\n        ln = tmpWhiteList.length;\r\n        uint256[] memory PaybackBalances = new uint256[](ln);\r\n        for (uint256 i=0; i<ln && redeemWorth>0;i++){\r\n            address addr = tmpWhiteList[i];\r\n            uint256 totalWorth = prices[i].mul(colBalances[i]);\r\n            if (redeemWorth < totalWorth){\r\n                uint256 amount = redeemWorth.div(prices[i]);\r\n                userInputCollateral[msg.sender][addr] = userInputCollateral[msg.sender][addr].mul(totalWorth-redeemWorth).div(totalWorth);\r\n                PaybackBalances[i] = amount;\r\n                redeemWorth = 0;\r\n                break;\r\n            }else{\r\n                userInputCollateral[msg.sender][addr] = 0;\r\n                PaybackBalances[i] = colBalances[i];\r\n                redeemWorth = redeemWorth - totalWorth;\r\n            }\r\n        }\r\n        if (redeemWorth>0) {\r\n           totalWorth = 0;\r\n            for (i=0; i<ln;i++){\r\n                totalWorth = totalWorth.add(PremiumBalances[i].mul(prices[i]));\r\n            }\r\n            for (i=0; i<ln;i++){\r\n                PaybackBalances[i] = PaybackBalances[i].add(PremiumBalances[i].mul(redeemWorth).div(totalWorth));\r\n            }\r\n        }\r\n        i = whiteListAddress._getEligibleIndexAddress(whiteList,collateral);\r\n        if (i!= 0) {\r\n            amount = PaybackBalances[i];\r\n            PaybackBalances[i] = PaybackBalances[0];\r\n            PaybackBalances[0] = amount;\r\n        }\r\n        for (i=0;i<ln;i++){ \r\n            addr = whiteList[i];\r\n            netWorthBalances[addr] = netWorthBalances[addr].sub(PaybackBalances[i]);\r\n            _transferPaybackAndFee(msg.sender,addr,PaybackBalances[i],redeemColFee);\r\n        } \r\n        emit RedeemCollateral(msg.sender,collateral,allRedeem);\r\n    }\r\n    function calCollateralWorth(address account)public view returns(uint256[]){\r\n        (uint256[] memory colBalances,uint256[] memory PremiumBalances,) = _getCollateralAndPremiumBalances(account,whiteList[0]);\r\n        uint256 whiteLen = whiteList.length;\r\n        for (uint256 i=0; i<whiteLen;i++){\r\n            colBalances[i] = colBalances[i].add(PremiumBalances[i]);\r\n        }\r\n        return colBalances;\r\n    }\r\n    function _getCollateralAndPremiumBalances(address account,address priorCollateral) internal view returns(uint256[],uint256[],uint256[]){\r\n        address[] memory tmpWhiteList = whiteList;\r\n        uint256 ln = whiteListAddress._getEligibleIndexAddress(tmpWhiteList,priorCollateral);\r\n        if (ln != 0){\r\n            tmpWhiteList[ln] = tmpWhiteList[0];\r\n            tmpWhiteList[0] = priorCollateral;\r\n        }\r\n        ln = tmpWhiteList.length;\r\n        uint256[] memory colBalances = new uint256[](ln);\r\n        uint256[] memory PremiumBalances = new uint256[](ln);\r\n        uint256[] memory prices = new uint256[](ln);\r\n        uint256 totalWorth = 0;\r\n        uint256 PremiumWorth = 0;\r\n        uint256 worth = getUserTotalWorth(account);\r\n        for (uint256 i=0; i<ln;i++){\r\n            (colBalances[i],PremiumBalances[i]) = _calBalanceRate(collateralBalances[tmpWhiteList[i]],netWorthBalances[tmpWhiteList[i]],userInputCollateral[msg.sender][tmpWhiteList[i]]);\r\n            prices[i] = _oracle.getPrice(tmpWhiteList[i]);\r\n            totalWorth = totalWorth.add(prices[i].mul(colBalances[i]));\r\n            PremiumWorth = PremiumWorth.add(prices[i].mul(PremiumBalances[i]));\r\n        }\r\n        if (totalWorth >= worth){\r\n            for (i=0; i<ln;i++){\r\n                colBalances[i] = colBalances[i].mul(worth).div(totalWorth);\r\n            }\r\n        }else{\r\n            worth = worth - totalWorth;\r\n            for (i=0; i<ln;i++){\r\n                PremiumBalances[i] = PremiumBalances[i].mul(worth).div(PremiumWorth);\r\n            }\r\n        }\r\n        return (colBalances,PremiumBalances,prices);\r\n    } \r\n    function _calBalanceRate(uint256 collateralBalance,uint256 netWorthBalance,uint256 amount)internal pure returns(uint256,uint256){\r\n        uint256 curAmount = netWorthBalance.mul(amount).div(collateralBalance);\r\n        return (curAmount,netWorthBalance.sub(curAmount));\r\n    }\r\n\r\n    function getOccupiedCollateral() public view returns(uint256){\r\n        uint256 totalOccupied = _optionsPool.getTotalOccupiedCollateral();\r\n        return calculateCollateral(totalOccupied);\r\n    }\r\n    function getAvailableCollateral()public view returns(uint256){\r\n        return getUnlockedCollateral().sub(getOccupiedCollateral());\r\n    }\r\n    function getLeftCollateral()public view returns(uint256){\r\n        return getTotalCollateral().sub(getOccupiedCollateral());\r\n    }\r\n    function calOptionsOccupied(uint256 strikePrice,uint256 underlyingPrice,uint256 amount,uint8 optType)public view returns(uint256){\r\n        uint256 totalOccupied = 0;\r\n        if ((optType == 0) == (strikePrice>underlyingPrice)){ // call\r\n            totalOccupied = strikePrice.mul(amount);\r\n        } else {\r\n            totalOccupied = underlyingPrice.mul(amount);\r\n        }\r\n        return calculateCollateral(totalOccupied);\r\n    }\r\n    function getUnlockedCollateral()public view returns(uint256){\r\n        return getTotalCollateral().sub(_FCTCoin.getTotalLockedWorth());\r\n    }\r\n    function getTotalCollateral()public view returns(uint256){\r\n        uint256 totalNum = 0;\r\n        uint whiteListLen = whiteList.length;\r\n        for (uint256 i=0;i<whiteListLen;i++){\r\n            address addr = whiteList[i];\r\n            uint256 price = _oracle.getPrice(addr);\r\n            totalNum = totalNum.add(price.mul(netWorthBalances[addr]));\r\n        }\r\n        return totalNum;  \r\n    }\r\n\r\n    function _paybackWorth(uint256 worth,uint256 feeType) internal {\r\n        uint256 totalPrice = 0;\r\n        uint whiteLen = whiteList.length;\r\n        uint256[] memory balances = new uint256[](whiteLen);\r\n        for (uint256 i=0;i<whiteLen;i++){\r\n            address addr = whiteList[i];\r\n            uint256 price = _oracle.getPrice(addr);\r\n            balances[i] = netWorthBalances[addr];\r\n            totalPrice = totalPrice.add(price.mul(balances[i]));\r\n        }\r\n        if (totalPrice == 0){\r\n            return;\r\n        }\r\n        for (i=0;i<whiteLen;i++){\r\n            uint256 _payBack = balances[i].mul(worth).div(totalPrice);\r\n            netWorthBalances[addr] = balances[i].sub(_payBack);\r\n            _transferPaybackAndFee(msg.sender,addr,_payBack,feeType);\r\n        } \r\n    }\r\n    function getPayableAmount(address settlement,uint256 settlementAmount) internal returns (uint256) {\r\n        require(checkAddressPayIn(settlement) , \"settlement is unsupported token\");\r\n        uint256 colAmount = 0;\r\n        if (settlement == address(0)){\r\n            colAmount = msg.value;\r\n        }else if (settlementAmount > 0){\r\n            IERC20 oToken = IERC20(settlement);\r\n            oToken.transferFrom(msg.sender, address(this), settlementAmount);\r\n            colAmount = settlementAmount;\r\n        }\r\n        return colAmount;\r\n    }\r\n    function calculateCollateral(uint256 amount)internal view returns (uint256){\r\n        uint256 result = collateralRate.numerator.mul(amount);\r\n        return result.div(collateralRate.denominator);\r\n    }\r\n\r\n}",
  "sourcePath": "C:\\work\\solidity\\FinnexusOptions_V2\\contracts\\CollateralPool.sol",
  "compiler": {
    "name": "solc",
    "version": "0.4.26+commit.4563c3fc.Emscripten.clang"
  },
  "schemaVersion": "3.1.0",
  "updatedAt": "2020-07-29T14:43:43.175Z",
  "devdoc": {
    "methods": {
      "addWhiteList(address)": {
        "details": "Implementation of add an eligible address into the whitelist.\r",
        "params": {
          "addAddress": "new eligible address.\r"
        }
      },
      "getWhiteList()": {
        "details": "Implementation of getting the eligible whitelist.\r"
      },
      "isEligibleAddress(address)": {
        "details": "Implementation of testing whether the input address is eligible.\r",
        "params": {
          "tmpAddress": "input address for testing.\r"
        }
      },
      "isOwner()": {
        "details": "Returns true if the caller is the current owner."
      },
      "owner()": {
        "details": "Returns the address of the current owner."
      },
      "removeWhiteList(address)": {
        "details": "Implementation of revoke an invalid address from the whitelist.\r",
        "params": {
          "removeAddress": "revoked address.\r"
        }
      },
      "renounceOwnership()": {
        "details": "Leaves the contract without owner. It will not be possible to call `onlyOwner` functions anymore. Can only be called by the current owner.     * NOTE: Renouncing ownership will leave the contract without an owner, thereby removing any functionality that is only available to the owner."
      },
      "setTransactionFee(uint256,uint256,uint256)": {
        "details": "set the rate of trasaction fee.\r",
        "params": {
          "denominator": "thedenominator of transaction fee.\r transaction fee = numerator/denominator;\r",
          "feeType": "the transaction fee type\r",
          "numerator": "the numerator of transaction fee .\r"
        }
      },
      "transferOwnership(address)": {
        "details": "Transfers ownership of the contract to a new account (`newOwner`). Can only be called by the current owner."
      }
    }
  },
  "userdoc": {
    "methods": {
      "setHalt(bool)": {
        "notice": "function Emergency situation that requires contribution period to stop or not."
      }
    }
  }
}