{
  "contractName": "CollateralPool",
  "abi": [
    {
      "constant": true,
      "inputs": [],
      "name": "name",
      "outputs": [
        {
          "name": "",
          "type": "string"
        }
      ],
      "payable": false,
      "stateMutability": "view",
      "type": "function"
    },
    {
      "constant": false,
      "inputs": [
        {
          "name": "spender",
          "type": "address"
        },
        {
          "name": "amount",
          "type": "uint256"
        }
      ],
      "name": "approve",
      "outputs": [
        {
          "name": "",
          "type": "bool"
        }
      ],
      "payable": false,
      "stateMutability": "nonpayable",
      "type": "function"
    },
    {
      "constant": true,
      "inputs": [],
      "name": "getWhiteList",
      "outputs": [
        {
          "name": "",
          "type": "address[]"
        }
      ],
      "payable": false,
      "stateMutability": "view",
      "type": "function"
    },
    {
      "constant": true,
      "inputs": [],
      "name": "lastCallOption",
      "outputs": [
        {
          "name": "",
          "type": "uint256"
        }
      ],
      "payable": false,
      "stateMutability": "view",
      "type": "function"
    },
    {
      "constant": true,
      "inputs": [],
      "name": "totalSupply",
      "outputs": [
        {
          "name": "",
          "type": "uint256"
        }
      ],
      "payable": false,
      "stateMutability": "view",
      "type": "function"
    },
    {
      "constant": false,
      "inputs": [
        {
          "name": "removeAddress",
          "type": "address"
        }
      ],
      "name": "removeWhiteList",
      "outputs": [
        {
          "name": "",
          "type": "bool"
        }
      ],
      "payable": false,
      "stateMutability": "nonpayable",
      "type": "function"
    },
    {
      "constant": false,
      "inputs": [
        {
          "name": "sender",
          "type": "address"
        },
        {
          "name": "recipient",
          "type": "address"
        },
        {
          "name": "amount",
          "type": "uint256"
        }
      ],
      "name": "transferFrom",
      "outputs": [
        {
          "name": "",
          "type": "bool"
        }
      ],
      "payable": false,
      "stateMutability": "nonpayable",
      "type": "function"
    },
    {
      "constant": true,
      "inputs": [
        {
          "name": "",
          "type": "address"
        }
      ],
      "name": "collateralBalances",
      "outputs": [
        {
          "name": "",
          "type": "uint256"
        }
      ],
      "payable": false,
      "stateMutability": "view",
      "type": "function"
    },
    {
      "constant": true,
      "inputs": [
        {
          "name": "",
          "type": "address"
        }
      ],
      "name": "premiumBalances",
      "outputs": [
        {
          "name": "",
          "type": "uint256"
        }
      ],
      "payable": false,
      "stateMutability": "view",
      "type": "function"
    },
    {
      "constant": false,
      "inputs": [],
      "name": "redeemAll",
      "outputs": [],
      "payable": false,
      "stateMutability": "nonpayable",
      "type": "function"
    },
    {
      "constant": true,
      "inputs": [],
      "name": "decimals",
      "outputs": [
        {
          "name": "",
          "type": "uint8"
        }
      ],
      "payable": false,
      "stateMutability": "view",
      "type": "function"
    },
    {
      "constant": true,
      "inputs": [
        {
          "name": "feeType",
          "type": "uint256"
        },
        {
          "name": "amount",
          "type": "uint256"
        }
      ],
      "name": "calculateFee",
      "outputs": [
        {
          "name": "",
          "type": "uint256"
        }
      ],
      "payable": false,
      "stateMutability": "view",
      "type": "function"
    },
    {
      "constant": true,
      "inputs": [],
      "name": "getUnderlyingAssets",
      "outputs": [
        {
          "name": "",
          "type": "uint32[]"
        }
      ],
      "payable": false,
      "stateMutability": "view",
      "type": "function"
    },
    {
      "constant": false,
      "inputs": [
        {
          "name": "spender",
          "type": "address"
        },
        {
          "name": "addedValue",
          "type": "uint256"
        }
      ],
      "name": "increaseAllowance",
      "outputs": [
        {
          "name": "",
          "type": "bool"
        }
      ],
      "payable": false,
      "stateMutability": "nonpayable",
      "type": "function"
    },
    {
      "constant": true,
      "inputs": [
        {
          "name": "",
          "type": "uint256"
        }
      ],
      "name": "underlyingAssets",
      "outputs": [
        {
          "name": "",
          "type": "uint32"
        }
      ],
      "payable": false,
      "stateMutability": "view",
      "type": "function"
    },
    {
      "constant": true,
      "inputs": [
        {
          "name": "optionsId",
          "type": "uint256"
        }
      ],
      "name": "getOptionsById",
      "outputs": [
        {
          "name": "",
          "type": "uint256"
        },
        {
          "name": "",
          "type": "address"
        },
        {
          "name": "",
          "type": "uint8"
        },
        {
          "name": "",
          "type": "uint32"
        },
        {
          "name": "",
          "type": "uint256"
        },
        {
          "name": "",
          "type": "uint256"
        },
        {
          "name": "",
          "type": "uint256"
        }
      ],
      "payable": false,
      "stateMutability": "view",
      "type": "function"
    },
    {
      "constant": false,
      "inputs": [
        {
          "name": "oracle",
          "type": "address"
        }
      ],
      "name": "setOracleAddress",
      "outputs": [],
      "payable": false,
      "stateMutability": "nonpayable",
      "type": "function"
    },
    {
      "constant": true,
      "inputs": [
        {
          "name": "",
          "type": "address"
        }
      ],
      "name": "feeBalances",
      "outputs": [
        {
          "name": "",
          "type": "uint256"
        }
      ],
      "payable": false,
      "stateMutability": "view",
      "type": "function"
    },
    {
      "constant": true,
      "inputs": [
        {
          "name": "",
          "type": "address"
        },
        {
          "name": "",
          "type": "uint256"
        }
      ],
      "name": "optionsBalances",
      "outputs": [
        {
          "name": "",
          "type": "uint256"
        }
      ],
      "payable": false,
      "stateMutability": "view",
      "type": "function"
    },
    {
      "constant": true,
      "inputs": [],
      "name": "collateralRate",
      "outputs": [
        {
          "name": "numerator",
          "type": "uint256"
        },
        {
          "name": "denominator",
          "type": "uint256"
        }
      ],
      "payable": false,
      "stateMutability": "view",
      "type": "function"
    },
    {
      "constant": true,
      "inputs": [
        {
          "name": "",
          "type": "uint256"
        }
      ],
      "name": "whiteList",
      "outputs": [
        {
          "name": "",
          "type": "address"
        }
      ],
      "payable": false,
      "stateMutability": "view",
      "type": "function"
    },
    {
      "constant": true,
      "inputs": [
        {
          "name": "optionsId",
          "type": "uint256"
        },
        {
          "name": "amount",
          "type": "uint256"
        }
      ],
      "name": "getExerciseWorth",
      "outputs": [
        {
          "name": "",
          "type": "uint256"
        }
      ],
      "payable": false,
      "stateMutability": "view",
      "type": "function"
    },
    {
      "constant": true,
      "inputs": [
        {
          "name": "account",
          "type": "address"
        }
      ],
      "name": "balanceOf",
      "outputs": [
        {
          "name": "",
          "type": "uint256"
        }
      ],
      "payable": false,
      "stateMutability": "view",
      "type": "function"
    },
    {
      "constant": false,
      "inputs": [],
      "name": "renounceOwnership",
      "outputs": [],
      "payable": false,
      "stateMutability": "nonpayable",
      "type": "function"
    },
    {
      "constant": true,
      "inputs": [],
      "name": "lastCalBlock",
      "outputs": [
        {
          "name": "",
          "type": "uint256"
        }
      ],
      "payable": false,
      "stateMutability": "view",
      "type": "function"
    },
    {
      "constant": true,
      "inputs": [
        {
          "name": "tmpAddress",
          "type": "address"
        }
      ],
      "name": "isEligibleAddress",
      "outputs": [
        {
          "name": "",
          "type": "bool"
        }
      ],
      "payable": false,
      "stateMutability": "view",
      "type": "function"
    },
    {
      "constant": true,
      "inputs": [],
      "name": "owner",
      "outputs": [
        {
          "name": "",
          "type": "address"
        }
      ],
      "payable": false,
      "stateMutability": "view",
      "type": "function"
    },
    {
      "constant": true,
      "inputs": [
        {
          "name": "",
          "type": "uint256"
        }
      ],
      "name": "allOptions",
      "outputs": [
        {
          "name": "optionID",
          "type": "uint256"
        },
        {
          "name": "owner",
          "type": "address"
        },
        {
          "name": "optType",
          "type": "uint8"
        },
        {
          "name": "underlying",
          "type": "uint32"
        },
        {
          "name": "expiration",
          "type": "uint256"
        },
        {
          "name": "strikePrice",
          "type": "uint256"
        },
        {
          "name": "amount",
          "type": "uint256"
        },
        {
          "name": "ivNumerator",
          "type": "int256"
        },
        {
          "name": "ivDenominator",
          "type": "int256"
        }
      ],
      "payable": false,
      "stateMutability": "view",
      "type": "function"
    },
    {
      "constant": true,
      "inputs": [],
      "name": "isOwner",
      "outputs": [
        {
          "name": "",
          "type": "bool"
        }
      ],
      "payable": false,
      "stateMutability": "view",
      "type": "function"
    },
    {
      "constant": false,
      "inputs": [
        {
          "name": "currency",
          "type": "address"
        }
      ],
      "name": "redeem",
      "outputs": [],
      "payable": false,
      "stateMutability": "nonpayable",
      "type": "function"
    },
    {
      "constant": true,
      "inputs": [],
      "name": "symbol",
      "outputs": [
        {
          "name": "",
          "type": "string"
        }
      ],
      "payable": false,
      "stateMutability": "view",
      "type": "function"
    },
    {
      "constant": false,
      "inputs": [
        {
          "name": "index",
          "type": "uint256"
        }
      ],
      "name": "calculatePhaseOccupiedCollateral",
      "outputs": [],
      "payable": false,
      "stateMutability": "nonpayable",
      "type": "function"
    },
    {
      "constant": false,
      "inputs": [
        {
          "name": "spender",
          "type": "address"
        },
        {
          "name": "subtractedValue",
          "type": "uint256"
        }
      ],
      "name": "decreaseAllowance",
      "outputs": [
        {
          "name": "",
          "type": "bool"
        }
      ],
      "payable": false,
      "stateMutability": "nonpayable",
      "type": "function"
    },
    {
      "constant": false,
      "inputs": [
        {
          "name": "recipient",
          "type": "address"
        },
        {
          "name": "amount",
          "type": "uint256"
        }
      ],
      "name": "transfer",
      "outputs": [
        {
          "name": "",
          "type": "bool"
        }
      ],
      "payable": false,
      "stateMutability": "nonpayable",
      "type": "function"
    },
    {
      "constant": true,
      "inputs": [
        {
          "name": "",
          "type": "uint256"
        },
        {
          "name": "",
          "type": "uint256"
        },
        {
          "name": "",
          "type": "uint256"
        }
      ],
      "name": "burnBlockOptions",
      "outputs": [
        {
          "name": "",
          "type": "uint256"
        }
      ],
      "payable": false,
      "stateMutability": "view",
      "type": "function"
    },
    {
      "constant": false,
      "inputs": [
        {
          "name": "underlying",
          "type": "uint32"
        }
      ],
      "name": "addUnderlyingAsset",
      "outputs": [],
      "payable": false,
      "stateMutability": "nonpayable",
      "type": "function"
    },
    {
      "constant": true,
      "inputs": [],
      "name": "getOracleAddress",
      "outputs": [
        {
          "name": "",
          "type": "address"
        }
      ],
      "payable": false,
      "stateMutability": "view",
      "type": "function"
    },
    {
      "constant": true,
      "inputs": [
        {
          "name": "",
          "type": "address"
        },
        {
          "name": "",
          "type": "address"
        }
      ],
      "name": "userInputCollateral",
      "outputs": [
        {
          "name": "",
          "type": "uint256"
        }
      ],
      "payable": false,
      "stateMutability": "view",
      "type": "function"
    },
    {
      "constant": true,
      "inputs": [],
      "name": "halted",
      "outputs": [
        {
          "name": "",
          "type": "bool"
        }
      ],
      "payable": false,
      "stateMutability": "view",
      "type": "function"
    },
    {
      "constant": false,
      "inputs": [
        {
          "name": "feeType",
          "type": "uint256"
        },
        {
          "name": "numerator",
          "type": "uint256"
        },
        {
          "name": "denominator",
          "type": "uint256"
        }
      ],
      "name": "setTransactionFee",
      "outputs": [],
      "payable": false,
      "stateMutability": "nonpayable",
      "type": "function"
    },
    {
      "constant": true,
      "inputs": [],
      "name": "tokenNetWorth",
      "outputs": [
        {
          "name": "",
          "type": "uint256"
        }
      ],
      "payable": false,
      "stateMutability": "view",
      "type": "function"
    },
    {
      "constant": true,
      "inputs": [],
      "name": "optionPhase",
      "outputs": [
        {
          "name": "",
          "type": "uint32"
        }
      ],
      "payable": false,
      "stateMutability": "view",
      "type": "function"
    },
    {
      "constant": true,
      "inputs": [
        {
          "name": "settlement",
          "type": "address"
        }
      ],
      "name": "getFeeBalance",
      "outputs": [
        {
          "name": "",
          "type": "uint256"
        }
      ],
      "payable": false,
      "stateMutability": "view",
      "type": "function"
    },
    {
      "constant": true,
      "inputs": [
        {
          "name": "feeType",
          "type": "uint256"
        }
      ],
      "name": "getFeeRate",
      "outputs": [
        {
          "name": "",
          "type": "uint256"
        },
        {
          "name": "",
          "type": "uint256"
        }
      ],
      "payable": false,
      "stateMutability": "view",
      "type": "function"
    },
    {
      "constant": false,
      "inputs": [
        {
          "name": "removeUnderlying",
          "type": "uint32"
        }
      ],
      "name": "removeUnderlyingAssets",
      "outputs": [
        {
          "name": "",
          "type": "bool"
        }
      ],
      "payable": false,
      "stateMutability": "nonpayable",
      "type": "function"
    },
    {
      "constant": true,
      "inputs": [
        {
          "name": "underlying",
          "type": "uint32"
        }
      ],
      "name": "isEligibleUnderlyingAsset",
      "outputs": [
        {
          "name": "",
          "type": "bool"
        }
      ],
      "payable": false,
      "stateMutability": "view",
      "type": "function"
    },
    {
      "constant": true,
      "inputs": [
        {
          "name": "owner",
          "type": "address"
        },
        {
          "name": "spender",
          "type": "address"
        }
      ],
      "name": "allowance",
      "outputs": [
        {
          "name": "",
          "type": "uint256"
        }
      ],
      "payable": false,
      "stateMutability": "view",
      "type": "function"
    },
    {
      "constant": true,
      "inputs": [
        {
          "name": "",
          "type": "address"
        }
      ],
      "name": "userCollateralPaying",
      "outputs": [
        {
          "name": "",
          "type": "uint256"
        }
      ],
      "payable": false,
      "stateMutability": "view",
      "type": "function"
    },
    {
      "constant": true,
      "inputs": [
        {
          "name": "",
          "type": "uint256"
        }
      ],
      "name": "FeeRates",
      "outputs": [
        {
          "name": "numerator",
          "type": "uint256"
        },
        {
          "name": "denominator",
          "type": "uint256"
        }
      ],
      "payable": false,
      "stateMutability": "view",
      "type": "function"
    },
    {
      "constant": false,
      "inputs": [
        {
          "name": "addAddress",
          "type": "address"
        }
      ],
      "name": "addWhiteList",
      "outputs": [],
      "payable": false,
      "stateMutability": "nonpayable",
      "type": "function"
    },
    {
      "constant": true,
      "inputs": [
        {
          "name": "underlying",
          "type": "uint32"
        }
      ],
      "name": "checkUnderlyingAsset",
      "outputs": [],
      "payable": false,
      "stateMutability": "view",
      "type": "function"
    },
    {
      "constant": true,
      "inputs": [],
      "name": "getAllFeeBalances",
      "outputs": [
        {
          "name": "",
          "type": "address[]"
        },
        {
          "name": "",
          "type": "uint256[]"
        }
      ],
      "payable": false,
      "stateMutability": "view",
      "type": "function"
    },
    {
      "constant": false,
      "inputs": [
        {
          "name": "newOwner",
          "type": "address"
        }
      ],
      "name": "transferOwnership",
      "outputs": [],
      "payable": false,
      "stateMutability": "nonpayable",
      "type": "function"
    },
    {
      "constant": false,
      "inputs": [
        {
          "name": "halt",
          "type": "bool"
        }
      ],
      "name": "setHalt",
      "outputs": [],
      "payable": false,
      "stateMutability": "nonpayable",
      "type": "function"
    },
    {
      "constant": true,
      "inputs": [
        {
          "name": "tmpAddress",
          "type": "address"
        }
      ],
      "name": "checkEligibleAddress",
      "outputs": [],
      "payable": false,
      "stateMutability": "view",
      "type": "function"
    },
    {
      "anonymous": false,
      "inputs": [
        {
          "indexed": true,
          "name": "value1",
          "type": "uint256"
        },
        {
          "indexed": true,
          "name": "value2",
          "type": "uint256"
        },
        {
          "indexed": true,
          "name": "value3",
          "type": "uint256"
        }
      ],
      "name": "DebugEvent",
      "type": "event"
    },
    {
      "anonymous": false,
      "inputs": [
        {
          "indexed": true,
          "name": "from",
          "type": "address"
        },
        {
          "indexed": true,
          "name": "to",
          "type": "address"
        },
        {
          "indexed": false,
          "name": "value",
          "type": "uint256"
        }
      ],
      "name": "Transfer",
      "type": "event"
    },
    {
      "anonymous": false,
      "inputs": [
        {
          "indexed": true,
          "name": "owner",
          "type": "address"
        },
        {
          "indexed": true,
          "name": "spender",
          "type": "address"
        },
        {
          "indexed": false,
          "name": "value",
          "type": "uint256"
        }
      ],
      "name": "Approval",
      "type": "event"
    },
    {
      "anonymous": false,
      "inputs": [
        {
          "indexed": true,
          "name": "recieptor",
          "type": "address"
        },
        {
          "indexed": true,
          "name": "settlement",
          "type": "address"
        },
        {
          "indexed": false,
          "name": "payback",
          "type": "uint256"
        }
      ],
      "name": "FeePayback",
      "type": "event"
    },
    {
      "anonymous": false,
      "inputs": [
        {
          "indexed": true,
          "name": "settlement",
          "type": "address"
        },
        {
          "indexed": false,
          "name": "payback",
          "type": "uint256"
        }
      ],
      "name": "AddFee",
      "type": "event"
    },
    {
      "anonymous": false,
      "inputs": [
        {
          "indexed": true,
          "name": "recieptor",
          "type": "address"
        },
        {
          "indexed": true,
          "name": "settlement",
          "type": "address"
        },
        {
          "indexed": false,
          "name": "payback",
          "type": "uint256"
        }
      ],
      "name": "TransferPayback",
      "type": "event"
    },
    {
      "anonymous": false,
      "inputs": [
        {
          "indexed": true,
          "name": "previousOwner",
          "type": "address"
        },
        {
          "indexed": true,
          "name": "newOwner",
          "type": "address"
        }
      ],
      "name": "OwnershipTransferred",
      "type": "event"
    },
    {
      "constant": false,
      "inputs": [
        {
          "name": "collateral",
          "type": "address"
        },
        {
          "name": "amount",
          "type": "uint256"
        }
      ],
      "name": "addCollateral",
      "outputs": [],
      "payable": true,
      "stateMutability": "payable",
      "type": "function"
    },
    {
      "constant": false,
      "inputs": [
        {
          "name": "tokenAmount",
          "type": "uint256"
        },
        {
          "name": "collateral",
          "type": "address"
        }
      ],
      "name": "redeemCollateral",
      "outputs": [],
      "payable": false,
      "stateMutability": "nonpayable",
      "type": "function"
    },
    {
      "constant": true,
      "inputs": [],
      "name": "getOccupiedCollateral",
      "outputs": [
        {
          "name": "",
          "type": "uint256"
        }
      ],
      "payable": false,
      "stateMutability": "view",
      "type": "function"
    },
    {
      "constant": true,
      "inputs": [],
      "name": "getLeftCollateral",
      "outputs": [
        {
          "name": "",
          "type": "uint256"
        }
      ],
      "payable": false,
      "stateMutability": "view",
      "type": "function"
    },
    {
      "constant": true,
      "inputs": [],
      "name": "getTotalCollateral",
      "outputs": [
        {
          "name": "",
          "type": "uint256"
        }
      ],
      "payable": false,
      "stateMutability": "view",
      "type": "function"
    }
  ],
  "bytecode": "0x6002805460ff199081169091556402540be4006009556000600b55600c805463ffffffff19166101f417905560108054909116905560c0604052600a60808190527f536861726564436f696e0000000000000000000000000000000000000000000060a090815262000075916011919062000269565b506040805180820190915260058082527f53436f696e0000000000000000000000000000000000000000000000000000006020909201918252620000bc9160129162000269565b50600060158190556402540be4006016556040805180820182526003808252600160209092018290526017556018556305f5e100601b558154600160a060020a03191633178083559051600160a060020a039190911691907f8be0079c531659141344cd1fd0a4f28419497f9722a3daafe3b4186f6b6457e0908290a360408051808201825260038082526103e8602080840182815260058054600181810183556000838152975160029283027f036b6384b5eca791c62761152d0c79bb0604c104a5fb6f4eb0703f3154bb3db08181019290925594517f036b6384b5eca791c62761152d0c79bb0604c104a5fb6f4eb0703f3154bb3db1958601558951808b018b5288815280870188815285548085018755868c5291519185028084019290925551908601558951808b018b5288815280870188815285548085018755868c5291519185028084019290925551908601558951808b018b5288815280870188815285548085018755868c5291519185028084019290925551908601558951808b01909a52968952938801948552815493840182559552945193029182019290925590519101556200030e565b828054600181600116156101000203166002900490600052602060002090601f016020900481019282601f10620002ac57805160ff1916838001178555620002dc565b82800160010185558215620002dc579182015b82811115620002dc578251825591602001919060010190620002bf565b50620002ea929150620002ee565b5090565b6200030b91905b80821115620002ea5760008155600101620002f5565b90565b613f5d806200031e6000396000f3006080604052600436106102b05763ffffffff60e060020a60003504166306fdde0381146102b5578063095ea7b31461033f57806309a9d76c146103775780630aaf3832146103dc578063132a56271461040357806318160ddd146104185780632042e5c21461042d57806323b872dd1461044e57806329bc969d146104785780632b4f30ee146104995780632f4350c2146104ba578063313ce567146104d157806334e73122146104fc5780633582d78914610517578063395093511461052c5780633b50c4d11461055057806348ee201d146105815780634c69c00f146105e057806353afc0251461060157806355c47cb21461062257806358a6be1c146106465780635c475d421461067457806367b8ceb9146106a85780636d75b9ee146106c357806370a08231146106da578063715018a6146106fb5780637e2eeb7e14610710578063817bf86d146107255780638da5cb5b146107465780638ea745b81461075b5780638f32d59b146107c957806395a2251f146107de57806395d89b41146107ff57806399deae0a14610814578063a20a80451461082c578063a457c2d714610850578063a9059cbb14610874578063a95c594a14610898578063afec82fc146108b6578063b18b78dd146108d4578063b4d5a9c7146108e9578063b9b8af0b14610910578063bf36b11014610925578063bf7f96df14610943578063c27b7dfb14610958578063c78f68031461096d578063cd4058191461098e578063d2aaef4e146109a3578063d6d14012146109bb578063d6eb5910146109d9578063db6ad2bd146109ee578063dd62ed3e14610a0c578063ddb944e514610a33578063e0561aa114610a54578063e7cd4a0414610a6c578063ee29c94a14610a8d578063f20568cd14610aab578063f2fde38b14610b59578063f495438714610b7a578063f939fdca14610b94575b600080fd5b3480156102c157600080fd5b506102ca610bb5565b6040805160208082528351818301528351919283929083019185019080838360005b838110156103045781810151838201526020016102ec565b50505050905090810190601f1680156103315780820380516001836020036101000a031916815260200191505b509250505060405180910390f35b34801561034b57600080fd5b50610363600160a060020a0360043516602435610c43565b604080519115158252519081900360200190f35b34801561038357600080fd5b5061038c610c59565b60408051602080825283518183015283519192839290830191858101910280838360005b838110156103c85781810151838201526020016103b0565b505050509050019250505060405180910390f35b3480156103e857600080fd5b506103f1610cbc565b60408051918252519081900360200190f35b34801561040f57600080fd5b506103f1610cd4565b34801561042457600080fd5b506103f1610cda565b34801561043957600080fd5b50610363600160a060020a0360043516610ce0565b34801561045a57600080fd5b50610363600160a060020a0360043581169060243516604435610d3f565b34801561048457600080fd5b506103f1600160a060020a0360043516610df2565b3480156104a557600080fd5b506103f1600160a060020a0360043516610e04565b3480156104c657600080fd5b506104cf610e16565b005b3480156104dd57600080fd5b506104e6610ea9565b6040805160ff9092168252519081900360200190f35b34801561050857600080fd5b506103f1600435602435610eae565b34801561052357600080fd5b5061038c610ef5565b34801561053857600080fd5b50610363600160a060020a0360043516602435610f78565b34801561055c57600080fd5b50610568600435610fb4565b6040805163ffffffff9092168252519081900360200190f35b34801561058d57600080fd5b50610599600435610fec565b60408051978852600160a060020a03909616602088015260ff9094168686015263ffffffff9092166060860152608085015260a084015260c0830152519081900360e00190f35b3480156105ec57600080fd5b506104cf600160a060020a0360043516611061565b34801561060d57600080fd5b506103f1600160a060020a03600435166110dc565b34801561062e57600080fd5b506103f1600160a060020a03600435166024356110ee565b34801561065257600080fd5b5061065b61111e565b6040805192835260208301919091528051918290030190f35b34801561068057600080fd5b5061068c600435611127565b60408051600160a060020a039092168252519081900360200190f35b3480156106b457600080fd5b506103f160043560243561114f565b6104cf600160a060020a03600435166024356112a0565b3480156106e657600080fd5b506103f1600160a060020a036004351661147f565b34801561070757600080fd5b506104cf61149a565b34801561071c57600080fd5b506103f161153d565b34801561073157600080fd5b50610363600160a060020a0360043516611543565b34801561075257600080fd5b5061068c611550565b34801561076757600080fd5b5061077360043561155f565b60408051998a52600160a060020a0390981660208a015260ff9096168888015263ffffffff9094166060880152608087019290925260a086015260c085015260e084015261010083015251908190036101200190f35b3480156107d557600080fd5b506103636115db565b3480156107ea57600080fd5b506104cf600160a060020a03600435166115ec565b34801561080b57600080fd5b506102ca6117dc565b34801561082057600080fd5b506104cf600435611837565b34801561083857600080fd5b506104cf600435600160a060020a0360243516611af8565b34801561085c57600080fd5b50610363600160a060020a0360043516602435611d37565b34801561088057600080fd5b50610363600160a060020a0360043516602435611dd0565b3480156108a457600080fd5b506103f1600435602435604435611ddd565b3480156108c257600080fd5b506104cf63ffffffff60043516611e1d565b3480156108e057600080fd5b5061068c611e74565b3480156108f557600080fd5b506103f1600160a060020a0360043581169060243516611e83565b34801561091c57600080fd5b50610363611ea0565b34801561093157600080fd5b506104cf600435602435604435611ea9565b34801561094f57600080fd5b506103f1611f0d565b34801561096457600080fd5b50610568611f13565b34801561097957600080fd5b506103f1600160a060020a0360043516611f1f565b34801561099a57600080fd5b506103f1611f3a565b3480156109af57600080fd5b5061065b600435611f57565b3480156109c757600080fd5b5061036363ffffffff60043516611f78565b3480156109e557600080fd5b506103f1611fd1565b3480156109fa57600080fd5b5061036363ffffffff600435166120f5565b348015610a1857600080fd5b506103f1600160a060020a0360043581169060243516612102565b348015610a3f57600080fd5b506103f1600160a060020a036004351661212d565b348015610a6057600080fd5b5061065b60043561213f565b348015610a7857600080fd5b506104cf600160a060020a036004351661216b565b348015610a9957600080fd5b506104cf63ffffffff600435166121c2565b348015610ab757600080fd5b50610ac06121cd565b604051808060200180602001838103835285818151815260200191508051906020019060200280838360005b83811015610b04578181015183820152602001610aec565b50505050905001838103825284818151815260200191508051906020019060200280838360005b83811015610b43578181015183820152602001610b2b565b5050505090500194505050505060405180910390f35b348015610b6557600080fd5b506104cf600160a060020a03600435166122d6565b348015610b8657600080fd5b506104cf600435151561232b565b348015610ba057600080fd5b506104cf600160a060020a036004351661238a565b6011805460408051602060026001851615610100026000190190941693909304601f81018490048402820184019092528181529291830182828015610c3b5780601f10610c1057610100808354040283529160200191610c3b565b820191906000526020600020905b815481529060010190602001808311610c1e57829003601f168201915b505050505081565b6000610c50338484612395565b50600192915050565b60606003805480602002602001604051908101604052809291908181526020018280548015610cb157602002820191906000526020600020905b8154600160a060020a03168152600190910190602001808311610c93575b505050505090505b90565b6000610cc6611f3a565b610cce611fd1565b03905090565b600d5481565b60155490565b6000610cea6115db565b1515610d2e576040805160e560020a62461bcd0281526020600482018190526024820152600080516020613f12833981519152604482015290519081900360640190fd5b610d39600383612502565b92915050565b6000610d4c8484846125ef565b60408051606081018252602881527f45524332303a207472616e7366657220616d6f756e74206578636565647320616020808301919091527f6c6c6f77616e636500000000000000000000000000000000000000000000000082840152600160a060020a0387166000908152601482528381203380835292529290922054610de89287929091610de391879063ffffffff61275f16565b612395565b5060019392505050565b60196020526000908152604090205481565b601a6020526000908152604090205481565b6000610e206115db565b1515610e64576040805160e560020a62461bcd0281526020600482018190526024820152600080516020613f12833981519152604482015290519081900360640190fd5b5060005b600354811015610ea657610e9e600382815481101515610e8457fe5b600091825260209091200154600160a060020a03166115ec565b600101610e68565b50565b601281565b6000806000610ebc856127fc565b8054909250610ed1908563ffffffff61287b16565b9050610eea82600101548261292590919063ffffffff16565b92505b505092915050565b60606001805480602002602001604051908101604052809291908181526020018280548015610cb157602002820191906000526020600020906000905b82829054906101000a900463ffffffff1663ffffffff1681526020019060040190602082600301049283019260010382029150808411610f325790505050505050905090565b336000818152601460209081526040808320600160a060020a03871684529091528120549091610c50918590610de3908663ffffffff61296e16565b6001805482908110610fc257fe5b9060005260206000209060089182820401919006600402915054906101000a900463ffffffff1681565b600080600080600080600080611001896129cb565b8054600182015460028301546003840154600490940154929d600160a060020a0383169d5060a060020a830460ff169c50750100000000000000000000000000000000000000000090920463ffffffff169a509850919650945092505050565b6110696115db565b15156110ad576040805160e560020a62461bcd0281526020600482018190526024820152600080516020613f12833981519152604482015290519081900360640190fd5b6008805473ffffffffffffffffffffffffffffffffffffffff1916600160a060020a0392909216919091179055565b60046020526000908152604090205481565b60076020528160005260406000208181548110151561110957fe5b90600052602060002001600091509150505481565b60175460185482565b600380548290811061113557fe5b600091825260209091200154600160a060020a0316905081565b60008060008061115e866129cb565b925061116983612a5b565b6111738386612ab6565b6008546001840154604080517fda663257000000000000000000000000000000000000000000000000000000008152750100000000000000000000000000000000000000000090920463ffffffff16600483015251600160a060020a039092169163da663257916024808201926020929091908290030181600087803b1580156111fc57600080fd5b505af1158015611210573d6000803e3d6000fd5b505050506040513d602081101561122657600080fd5b505160018401549092506000915060a060020a900460ff16151561125e5782600301548211156112595750600382015481035b611274565b8260030154821015611274578183600301540390505b8015156112845760009350611297565b611294818663ffffffff61287b16565b93505b50505092915050565b60008060006112af8585612b16565b935060008411611309576040805160e560020a62461bcd02815260206004820152601a60248201527f736574746c656d656e7420616d6f756e74206973207a65726f21000000000000604482015290519081900360640190fd5b600160a060020a038516600090815260196020526040902054611332908563ffffffff61296e16565b600160a060020a038616600081815260196020908152604080832094909455338252601d8152838220928252919091522054611374908563ffffffff61296e16565b336000908152601d60209081526040808320600160a060020a038a811680865291845282852095909555600854825160e060020a6341976e090281526004810192909252915191909416936341976e099360248083019493928390030190829087803b1580156113e357600080fd5b505af11580156113f7573d6000803e3d6000fd5b505050506040513d602081101561140d57600080fd5b50519250611421838563ffffffff61287b16565b9150611438601b548361292590919063ffffffff16565b336000908152601c602052604090205490915061145b908363ffffffff61296e16565b336000818152601c60205260409020919091556114789082612c49565b5050505050565b600160a060020a031660009081526013602052604090205490565b6114a26115db565b15156114e6576040805160e560020a62461bcd0281526020600482018190526024820152600080516020613f12833981519152604482015290519081900360640190fd5b60008054604051600160a060020a03909116907f8be0079c531659141344cd1fd0a4f28419497f9722a3daafe3b4186f6b6457e0908390a36000805473ffffffffffffffffffffffffffffffffffffffff19169055565b600e5481565b6000610d39600383612d0e565b600054600160a060020a031690565b600a80548290811061156d57fe5b60009182526020909120600790910201805460018201546002830154600384015460048501546005860154600690960154949650600160a060020a0384169560a060020a850460ff1695750100000000000000000000000000000000000000000090950463ffffffff169489565b600054600160a060020a0316331490565b6000806115f76115db565b151561163b576040805160e560020a62461bcd0281526020600482018190526024820152600080516020613f12833981519152604482015290519081900360640190fd5b600160a060020a038316600090815260046020526040812054925082116116ac576040805160e560020a62461bcd02815260206004820152601260248201527f4974277320656d7074792062616c616e63650000000000000000000000000000604482015290519081900360640190fd5b600160a060020a03831660008181526004602052604081205515156116fe57604051339083156108fc029084906000818181858888f193505050501580156116f8573d6000803e3d6000fd5b50611797565b50604080517fa9059cbb0000000000000000000000000000000000000000000000000000000081523360048201526024810183905290518391600160a060020a0383169163a9059cbb916044808201926020929091908290030181600087803b15801561176a57600080fd5b505af115801561177e573d6000803e3d6000fd5b505050506040513d602081101561179457600080fd5b50505b604080518381529051600160a060020a0385169133917f747147be90b2a81a2e929994a92cd7bb71396bdbfd02f181867c81187d4f79449181900360200190a3505050565b6012805460408051602060026001851615610100026000190190941693909304601f81018490048402820184019092528181529291830182828015610c3b5780601f10610c1057610100808354040283529160200191610c3b565b600080600080606060008061184a6115db565b151561188e576040805160e560020a62461bcd0281526020600482018190526024820152600080516020613f12833981519152604482015290519081900360640190fd5b600c546118a690899063ffffffff9081169061287b16565b600a5490975095508587106118ba57611aee565b600f546001890111156118d857600188016118d6600f82613ea3565b505b600c546118f090889063ffffffff9081169061296e16565b9450858511156118fe578594505b60015460408051828152602080840282010190915290945084801561192d578160200160208202803883390190505b509250600091505b83821015611a155760085460018054600160a060020a039092169163da66325791908590811061196157fe5b90600052602060002090600891828204019190066004029054906101000a900463ffffffff166040518263ffffffff1660e060020a028152600401808263ffffffff168152602001915050602060405180830381600087803b1580156119c657600080fd5b505af11580156119da573d6000803e3d6000fd5b505050506040513d60208110156119f057600080fd5b50518351849084908110611a0057fe5b60209081029091010152600190910190611935565b5060005b84871015611ab657611a5a600a88815481101515611a3357fe5b906000526020600020906007020160010160159054906101000a900463ffffffff16612d61565b9750611aa9611a9c600a89815481101515611a7157fe5b9060005260206000209060070201858b815181101515611a8d57fe5b90602001906020020151612d6e565b829063ffffffff61296e16565b6001909701969050611a19565b80600f89815481101515611ac657fe5b906000526020600020018190555060018503600d541015611aee576000198501600d5543600e555b5050505050505050565b600080600080600080600080611b0d89611543565b1515611b63576040805160e560020a62461bcd02815260206004820152601f60248201527f736574746c656d656e7420697320756e737570706f7274656420746f6b656e00604482015290519081900360640190fd5b336000908152601360205260409020548a1115611bca576040805160e560020a62461bcd02815260206004820152601e60248201527f53436f696e2062616c616e636520697320696e73756666696369656e74210000604482015290519081900360640190fd5b891515611bd657611d2b565b611bde612dd0565b9750611bf7601b5460155461287b90919063ffffffff16565b9650611c0e601b548b61287b90919063ffffffff16565b955086611c21898863ffffffff61296e16565b11611d2b5733600090815260136020908152604080832054601c90925290912054611c639190611c57908d63ffffffff61287b16565b9063ffffffff61292516565b336000908152601c6020526040902054909550611c86908663ffffffff61308816565b336000818152601c6020526040902091909155611ca3908b6130ca565b601b54611cb7908b9063ffffffff61287b16565b935060049250611cc8848a856131b5565b6003549094509150600090505b600084118015611ce457508181105b15611d2157611d1784600383815481101515611cfc57fe5b600091825260209091200154600160a060020a0316856131b5565b9350600101611cd5565b611d2b84846133ab565b50505050505050505050565b60408051606081018252602581527f45524332303a2064656372656173656420616c6c6f77616e63652062656c6f776020808301919091527f207a65726f0000000000000000000000000000000000000000000000000000008284015233600081815260148352848120600160a060020a0388168252909252928120549092610c509290918691610de39190879063ffffffff61275f16565b6000610c503384846125ef565b600660205282600052604060002082815481101515611df857fe5b906000526020600020906002020181600281101515611e1357fe5b0154925083915050565b611e256115db565b1515611e69576040805160e560020a62461bcd0281526020600482018190526024820152600080516020613f12833981519152604482015290519081900360640190fd5b610ea66001826133bc565b600854600160a060020a031690565b601d60209081526000928352604080842090915290825290205481565b60025460ff1681565b6000611eb36115db565b1515611ef7576040805160e560020a62461bcd0281526020600482018190526024820152600080516020613f12833981519152604482015290519081900360640190fd5b611f00846127fc565b9283555060019091015550565b601b5481565b600c5463ffffffff1681565b600160a060020a031660009081526004602052604090205490565b600080611f45612dd0565b9050611f508161340a565b91505b5090565b6000806000611f65846127fc565b8054600190910154909590945092505050565b6000611f826115db565b1515611fc6576040805160e560020a62461bcd0281526020600482018190526024820152600080516020613f12833981519152604482015290519081900360640190fd5b610d39600183613439565b60035460009081908180805b838310156120eb576003805484908110611ff357fe5b60009182526020808320909101546008546040805160e060020a6341976e09028152600160a060020a0393841660048201819052915191975091909216936341976e099360248084019491939192918390030190829087803b15801561205857600080fd5b505af115801561206c573d6000803e3d6000fd5b505050506040513d602081101561208257600080fd5b5051600160a060020a0383166000908152601a60209081526040808320546019909252909120549192506120de916120d1916120c4919063ffffffff61296e16565b839063ffffffff61287b16565b869063ffffffff61296e16565b9450600190920191611fdd565b5092949350505050565b6000610d39600183613530565b600160a060020a03918216600090815260146020908152604080832093909416825291909152205490565b601c6020526000908152604090205481565b600580548290811061214d57fe5b60009182526020909120600290910201805460019091015490915082565b6121736115db565b15156121b7576040805160e560020a62461bcd0281526020600482018190526024820152600080516020613f12833981519152604482015290519081900360640190fd5b610ea660038261358f565b610ea66001826135dd565b60608060606000600380549050604051908082528060200260200182016040528015612203578160200160208202803883390190505b509150600090505b60035481101561226d576004600060038381548110151561222857fe5b6000918252602080832090910154600160a060020a03168352820192909252604001902054825183908390811061225b57fe5b6020908102909101015260010161220b565b600382818054806020026020016040519081016040528092919081815260200182805480156122c557602002820191906000526020600020905b8154600160a060020a031681526001909101906020018083116122a7575b505050505091509350935050509091565b6122de6115db565b1515612322576040805160e560020a62461bcd0281526020600482018190526024820152600080516020613f12833981519152604482015290519081900360640190fd5b610ea68161363d565b6123336115db565b1515612377576040805160e560020a62461bcd0281526020600482018190526024820152600080516020613f12833981519152604482015290519081900360640190fd5b6002805460ff1916911515919091179055565b610ea660038261372b565b600160a060020a038316151561241a576040805160e560020a62461bcd028152602060048201526024808201527f45524332303a20617070726f76652066726f6d20746865207a65726f2061646460448201527f7265737300000000000000000000000000000000000000000000000000000000606482015290519081900360840190fd5b600160a060020a03821615156124a0576040805160e560020a62461bcd02815260206004820152602260248201527f45524332303a20617070726f766520746f20746865207a65726f20616464726560448201527f7373000000000000000000000000000000000000000000000000000000000000606482015290519081900360840190fd5b600160a060020a03808416600081815260146020908152604080832094871680845294825291829020859055815185815291517f8c5be1e5ebec7d5bd14f71427d1e84f3dd0314c0f7b2291e5b200ac8c7c3b9259281900390910190a3505050565b8154600090815b818110156125515783600160a060020a0316858281548110151561252957fe5b600091825260209091200154600160a060020a0316141561254957612551565b600101612509565b818110156125e457600019820181146125ca57846001830381548110151561257557fe5b6000918252602090912001548554600160a060020a039091169086908390811061259b57fe5b9060005260206000200160006101000a815481600160a060020a030219169083600160a060020a031602179055505b84546125da866000198301613ea3565b5060019250610eed565b506000949350505050565b600160a060020a0383161515612675576040805160e560020a62461bcd02815260206004820152602560248201527f45524332303a207472616e736665722066726f6d20746865207a65726f20616460448201527f6472657373000000000000000000000000000000000000000000000000000000606482015290519081900360840190fd5b600160a060020a03821615156126fb576040805160e560020a62461bcd02815260206004820152602360248201527f45524332303a207472616e7366657220746f20746865207a65726f206164647260448201527f6573730000000000000000000000000000000000000000000000000000000000606482015290519081900360840190fd5b612705838261378b565b61270f828261385a565b81600160a060020a031683600160a060020a03167fddf252ad1be2c89b69c2b068fc378daa952ba7f163c4a11628f55a4df523b3ef836040518082815260200191505060405180910390a3505050565b60008082858511156127f25760405160e560020a62461bcd0281526004018080602001828103825283818151815260200191508051906020019080838360005b838110156127b757818101518382015260200161279f565b50505050905090810190601f1680156127e45780820380516001836020036101000a031916815260200191505b509250505060405180910390fd5b5050509103919050565b6005546000908210612858576040805160e560020a62461bcd02815260206004820152601260248201527f66656520747970652069732076616c6964210000000000000000000000000000604482015290519081900360640190fd5b600580548390811061286657fe5b90600052602060002090600202019050919050565b60008083151561288e576000915061291e565b5082820282848281151561289e57fe5b041461291a576040805160e560020a62461bcd02815260206004820152602160248201527f536166654d6174683a206d756c7469706c69636174696f6e206f766572666c6f60448201527f7700000000000000000000000000000000000000000000000000000000000000606482015290519081900360840190fd5b8091505b5092915050565b600061296783836040805190810160405280601a81526020017f536166654d6174683a206469766973696f6e206279207a65726f000000000000815250613909565b9392505050565b60008282018381101561291a576040805160e560020a62461bcd02815260206004820152601b60248201527f536166654d6174683a206164646974696f6e206f766572666c6f770000000000604482015290519081900360640190fd5b600080821180156129de5750600a548211155b1515612a34576040805160e560020a62461bcd02815260206004820152601660248201527f6f7074696f6e206964206973206e6f7420657869737400000000000000000000604482015290519081900360640190fd5b600a80546000198401908110612a4657fe5b90600052602060002090600702019050919050565b60028101544210610ea6576040805160e560020a62461bcd02815260206004820152601160248201527f6f7074696f6e2069732065787069726564000000000000000000000000000000604482015290519081900360640190fd5b6004820154811115612b12576040805160e560020a62461bcd02815260206004820152601d60248201527f6f7074696f6e20616d6f756e7420697320696e73756666696369656e74000000604482015290519081900360640190fd5b5050565b6000806000612b2485611543565b1515612b7a576040805160e560020a62461bcd02815260206004820152601f60248201527f736574746c656d656e7420697320756e737570706f7274656420746f6b656e00604482015290519081900360640190fd5b60009150600160a060020a0385161515612b9657349150612c41565b6000841115612c415750604080517f23b872dd0000000000000000000000000000000000000000000000000000000081523360048201523060248201526044810185905290518591600160a060020a038316916323b872dd916064808201926020929091908290030181600087803b158015612c1157600080fd5b505af1158015612c25573d6000803e3d6000fd5b505050506040513d6020811015612c3b57600080fd5b50849250505b509392505050565b600160a060020a0382161515612ca9576040805160e560020a62461bcd02815260206004820152601f60248201527f45524332303a206d696e7420746f20746865207a65726f206164647265737300604482015290519081900360640190fd5b601554612cbc908263ffffffff61296e16565b601555612cc9828261385a565b604080518281529051600160a060020a038416916000917fddf252ad1be2c89b69c2b068fc378daa952ba7f163c4a11628f55a4df523b3ef9181900360200190a35050565b8154600090815b818110156125e45783600160a060020a03168582815481101515612d3557fe5b600091825260209091200154600160a060020a03161415612d595760019250610eed565b600101612d15565b6000610d39600183613975565b60038201546001830154600091829160ff60a060020a90910416159084101415612db25760048401546003850154612dab9163ffffffff61287b16565b905061291a565b6004840154612dc890849063ffffffff61287b16565b949350505050565b60008060006060600080600080600080600080612deb6139d0565b600154604080518281526020808402820101909152919c509a508a8015612e1c578160200160208202803883390190505b509850600097505b89881015612f045760085460018054600160a060020a039092169163da66325791908b908110612e5057fe5b90600052602060002090600891828204019190066004029054906101000a900463ffffffff166040518263ffffffff1660e060020a028152600401808263ffffffff168152602001915050602060405180830381600087803b158015612eb557600080fd5b505af1158015612ec9573d6000803e3d6000fd5b505050506040513d6020811015612edf57600080fd5b505189518a908a908110612eef57fe5b60209081029091010152600190970196612e24565b600a54600d5490975060010195505b86861015612f7a57612f2d600a87815481101515611a3357fe5b9450612f6d612f60600a88815481101515612f4457fe5b90600052602060002090600702018b88815181101515611a8d57fe5b8c9063ffffffff61296e16565b9a50600190950194612f13565b600e5460010193508360011415612f93578a9b5061307a565b4384116130765760008481526006602052604081208054919950935091505b8188101561306b578288815481101515612fc857fe5b60009182526020822060029091020101549050612fed600a82815481101515611a3357fe5b945061305e613051600a8381548110151561300457fe5b9060005260206000209060070201858b81548110151561302057fe5b60009182526020909120600290910201600101548c8981518110151561304257fe5b90602001906020020151613a20565b8c9063ffffffff61308816565b9a50600190970196612fb2565b600190930192612f93565b8a9b505b505050505050505050505090565b600061296783836040805190810160405280601e81526020017f536166654d6174683a207375627472616374696f6e206f766572666c6f77000081525061275f565b600160a060020a0382161515613150576040805160e560020a62461bcd02815260206004820152602160248201527f45524332303a206275726e2066726f6d20746865207a65726f2061646472657360448201527f7300000000000000000000000000000000000000000000000000000000000000606482015290519081900360840190fd5b61315a828261378b565b60155461316d908263ffffffff61308816565b601555604080518281529051600091600160a060020a038516917fddf252ad1be2c89b69c2b068fc378daa952ba7f163c4a11628f55a4df523b3ef9181900360200190a35050565b60008060008060006131c687611543565b151561321c576040805160e560020a62461bcd02815260206004820152601f60248201527f736574746c656d656e7420697320756e737570706f7274656420746f6b656e00604482015290519081900360640190fd5b336000908152601d60209081526040808320600160a060020a038b1684529091529020549350831515613251578794506133a0565b6008546040805160e060020a6341976e09028152600160a060020a038a81166004830152915191909216916341976e099160248083019260209291908290030181600087803b1580156132a357600080fd5b505af11580156132b7573d6000803e3d6000fd5b505050506040513d60208110156132cd57600080fd5b505192506132e1888463ffffffff61292516565b91508115156132f357600094506133a0565b8382116133005781613302565b835b336000908152601d60209081526040808320600160a060020a038c168452909152902054909150613339908263ffffffff61308816565b336000818152601d60209081526040808320600160a060020a038d16845290915290209190915561336c90888389613a79565b8382111561339b57613394613387828563ffffffff61287b16565b899063ffffffff61308816565b94506133a0565b600094505b505050509392505050565b6133b760018383613ab7565b505050565b6133c68282613530565b1515612b12578154600181018355600092835260209092206008830401805460079093166004026101000a63ffffffff818102199094169290931692909202179055565b6017546000908190613422908463ffffffff61287b16565b60185490915061296790829063ffffffff61292516565b8154600090815b81811015613494578363ffffffff16858281548110151561345d57fe5b6000918252602090912060088204015460079091166004026101000a900463ffffffff16141561348c57613494565b600101613440565b818110156125e457600019820181146135205784600183038154811015156134b857fe5b90600052602060002090600891828204019190066004029054906101000a900463ffffffff1685828154811015156134ec57fe5b90600052602060002090600891828204019190066004026101000a81548163ffffffff021916908363ffffffff1602179055505b84546125da866000198301613ec7565b8154600090815b818110156125e4578363ffffffff16858281548110151561355457fe5b6000918252602090912060088204015460079091166004026101000a900463ffffffff1614156135875760019250610eed565b600101613537565b6135998282612d0e565b1515612b12578154600181018355600083815260209020018054600160a060020a03831673ffffffffffffffffffffffffffffffffffffffff199091161790555050565b6135e78282613530565b1515612b12576040805160e560020a62461bcd02815260206004820152601f60248201527f77686974654c6973743a207573696e6720696e76616c69642075696e74333200604482015290519081900360640190fd5b600160a060020a03811615156136c3576040805160e560020a62461bcd02815260206004820152602660248201527f4f776e61626c653a206e6577206f776e657220697320746865207a65726f206160448201527f6464726573730000000000000000000000000000000000000000000000000000606482015290519081900360840190fd5b60008054604051600160a060020a03808516939216917f8be0079c531659141344cd1fd0a4f28419497f9722a3daafe3b4186f6b6457e091a36000805473ffffffffffffffffffffffffffffffffffffffff1916600160a060020a0392909216919091179055565b6137358282612d0e565b1515612b12576040805160e560020a62461bcd02815260206004820181905260248201527f77686974654c6973743a207573696e6720696e76616c69642061646472657373604482015290519081900360640190fd5b600160a060020a0382161515613811576040805160e560020a62461bcd02815260206004820152602360248201527f45524332303a207472616e7366657220746f20746865207a65726f206164647260448201527f6573730000000000000000000000000000000000000000000000000000000000606482015290519081900360840190fd5b600160a060020a03821660009081526013602052604090205461383a908263ffffffff61308816565b600160a060020a0390921660009081526013602052604090209190915550565b600160a060020a03821615156138e0576040805160e560020a62461bcd02815260206004820152602360248201527f45524332303a207472616e7366657220746f20746865207a65726f206164647260448201527f6573730000000000000000000000000000000000000000000000000000000000606482015290519081900360840190fd5b600160a060020a03821660009081526013602052604090205461383a908263ffffffff61296e16565b6000808281851161395f5760405160e560020a62461bcd028152600401808060200182810382528381815181526020019150805190602001908083836000838110156127b757818101518382015260200161279f565b50838581151561396b57fe5b0495945050505050565b8154600090815b81811015612dc8578363ffffffff16858281548110151561399957fe5b6000918252602090912060088204015460079091166004026101000a900463ffffffff1614156139c857612dc8565b60010161397c565b600f546000908190815b81811015613a1857613a0e600f828154811015156139f457fe5b90600052602060002001548461296e90919063ffffffff16565b92506001016139da565b509092915050565b60038301546001840154600091829160ff60a060020a90910416159084101415613a60576003850154613a59908563ffffffff61287b16565b9050612dc8565b613a70838563ffffffff61287b16565b95945050505050565b6000821515613a8757611478565b613a918284610eae565b9050613aad8585613aa8868563ffffffff61308816565b613cde565b6114788482613e24565b600080808080808080808a1515613acd57613ccf565b60008c6001811115613adb57fe5b14613ae757601a613aea565b60195b6003549098506000975095508694505b85851015613beb576003805486908110613b1057fe5b60009182526020808320909101546008546040805160e060020a6341976e09028152600160a060020a0393841660048201819052915191995091909216936341976e099360248084019491939192918390030190829087803b158015613b7557600080fd5b505af1158015613b89573d6000803e3d6000fd5b505050506040513d6020811015613b9f57600080fd5b5051600160a060020a038516600090815260208a90526040902054909350613bdf90613bd290859063ffffffff61287b16565b889063ffffffff61296e16565b50600190940193613afa565b861515613bfa578a9850613ccf565b8a9150868b1115613c1257868b039a50869150613c17565b60009a505b600094505b85851015613ccb576003805486908110613c3257fe5b6000918252602080832090910154600160a060020a0316808352908a9052604090912054909450613c6f908890611c57908563ffffffff61287b16565b600160a060020a038516600090815260208a90526040902054909150613c9b908263ffffffff61308816565b600160a060020a038516600090815260208a90526040902055613cc03385838d613a79565b600190940193613c1c565b8a98505b50505050505050509392505050565b6000811515613cec57613e1e565b600160a060020a0383161515613d3857604051600160a060020a0385169083156108fc029084906000818181858888f19350505050158015613d32573d6000803e3d6000fd5b50613dd2565b50604080517fa9059cbb000000000000000000000000000000000000000000000000000000008152600160a060020a038581166004830152602482018490529151849283169163a9059cbb9160448083019260209291908290030181600087803b158015613da557600080fd5b505af1158015613db9573d6000803e3d6000fd5b505050506040513d6020811015613dcf57600080fd5b50505b82600160a060020a031684600160a060020a03167f8aaaec2388cc390cde69685f78340e15f36d424b6b6b595f549dd883931f9c9b846040518082815260200191505060405180910390a35b50505050565b600160a060020a038216600090815260046020526040902054613e4d908263ffffffff61296e16565b600160a060020a038316600081815260046020908152604091829020939093558051848152905191927f1104eee7f034069140a0655d153038cedf9e65e5724018c555a8d56cfb6bee7792918290030190a25050565b8154818355818111156133b7576000838152602090206133b7918101908301613ef7565b8154818355818111156133b75760070160089004816007016008900483600052602060002091820191016133b791905b610cb991905b80821115611f535760008155600101613efd56004f776e61626c653a2063616c6c6572206973206e6f7420746865206f776e6572a165627a7a72305820d33ebaac3228f16a31dc6963e346ce99194d81fd0965826ad80d94632ee36ac40029",
  "source": "pragma solidity ^0.4.26;\r\nimport \"./OptionsPool.sol\";\r\nimport \"./SafeMath.sol\";\r\nimport \"./ReentrancyGuard.sol\";\r\nimport \"./SharedCoin.sol\";\r\nimport \"./underlyingAssets.sol\";\r\n\r\ncontract CollateralPool is OptionsPool,ReentrancyGuard,SharedCoin {\r\n    using SafeMath for uint256;\r\n    uint256 private _calDecimal = 10000000000;\r\n    fraction public collateralRate = fraction(3, 1);\r\n    enum eBalance{\r\n        collateral,\r\n        premium\r\n    }\r\n    //address collaterel\r\n    mapping (address => uint256) public collateralBalances;\r\n    mapping (address => uint256) public premiumBalances;\r\n    //token net worth till tillBlockNumber\r\n    uint256 public tokenNetWorth = 1e8;\r\n    //user paying for collateral usd;\r\n    mapping (address => uint256) public userCollateralPaying;\r\n    //account -> collateral -> amount\r\n    mapping (address => mapping (address => uint256)) public userInputCollateral;\r\n    event DebugEvent(uint256 indexed value1,uint256 indexed value2,uint256 indexed value3);\r\n\r\n    function addCollateral(address collateral,uint256 amount)public payable {\r\n        amount = getPayableAmount(collateral,amount);\r\n        require(amount>0 , \"settlement amount is zero!\");\r\n        collateralBalances[collateral] = collateralBalances[collateral].add(amount);\r\n        userInputCollateral[msg.sender][collateral] = userInputCollateral[msg.sender][collateral].add(amount);\r\n        uint256 price = _oracle.getPrice(collateral);\r\n        uint256 userPaying = price.mul(amount);\r\n        uint256 mintAmount = userPaying.div(tokenNetWorth);\r\n        userCollateralPaying[msg.sender] = userCollateralPaying[msg.sender].add(userPaying);\r\n        _mint(msg.sender,mintAmount);\r\n    }\r\n    //calculate token\r\n    function redeemCollateral(uint256 tokenAmount,address collateral)public {\r\n        require(isEligibleAddress(collateral) , \"settlement is unsupported token\");\r\n        require(balances[msg.sender]>=tokenAmount,\"SCoin balance is insufficient!\");\r\n        if (tokenAmount == 0){\r\n            return;\r\n        }\r\n        uint256 totalOccupied = getTotalOccupiedCollateral();\r\n        uint256 totalWorth = _totalSupply.mul(tokenNetWorth);\r\n        uint256 redeemWorth = tokenAmount.mul(tokenNetWorth);\r\n        if (totalOccupied.add(redeemWorth)<=totalWorth) {\r\n            uint256 redeemPaying = userCollateralPaying[msg.sender].mul(tokenAmount).div(balances[msg.sender]);\r\n            userCollateralPaying[msg.sender] = userCollateralPaying[msg.sender].sub(redeemPaying);\r\n            _burn(msg.sender, tokenAmount);\r\n            uint256 worth = tokenAmount.mul(tokenNetWorth);\r\n            uint256 redeemColFee = 4;\r\n            worth = _redeemCollateral(worth,collateral,redeemColFee);\r\n            uint whiteLen = whiteList.length;\r\n            for (uint256 i=0;worth>0 && i<whiteLen;i++){\r\n                worth = _redeemCollateral(worth,whiteList[i],redeemColFee);    \r\n            } \r\n            _paybackWorth(worth,redeemColFee);\r\n        }\r\n    }\r\n    function _redeemCollateral(uint256 worth,address collateral,uint256 feeType)internal returns (uint256){\r\n        require(isEligibleAddress(collateral) , \"settlement is unsupported token\");\r\n        uint256 amount = userInputCollateral[msg.sender][collateral];\r\n        if (amount == 0){\r\n            return worth;\r\n        }\r\n        uint256 price = _oracle.getPrice(collateral);\r\n        uint256 redeemAmount = worth.div(price);\r\n        if (redeemAmount == 0){\r\n            return 0;\r\n        }\r\n        uint256 transferAmount = (redeemAmount>amount) ? amount : redeemAmount;\r\n        userInputCollateral[msg.sender][collateral] = userInputCollateral[msg.sender][collateral].sub(transferAmount);\r\n        _transferPaybackAndFee(msg.sender,collateral,transferAmount,feeType);\r\n        if (redeemAmount>amount){\r\n            return worth.sub(transferAmount.mul(price));\r\n        }\r\n        return 0;\r\n    }\r\n    function getOccupiedCollateral() public view returns(uint256){\r\n        uint256 totalOccupied = getTotalOccupiedCollateral();\r\n        return calculateCollateral(totalOccupied);\r\n    }\r\n    function getLeftCollateral()public view returns(uint256){\r\n        return getTotalCollateral() - getOccupiedCollateral();\r\n    }\r\n    function getTotalCollateral()public view returns(uint256){\r\n        uint256 totalNum = 0;\r\n        uint whiteListLen = whiteList.length;\r\n        for (uint256 i=0;i<whiteListLen;i++){\r\n            address addr = whiteList[i];\r\n            uint256 price = _oracle.getPrice(addr);\r\n            totalNum = totalNum.add(price.mul(collateralBalances[addr].add(premiumBalances[addr])));\r\n        }\r\n        return totalNum;\r\n    }\r\n    function _paybackWorth(uint256 worth,uint256 feeType) internal {\r\n        _paybackWorth_sub(eBalance.premium,worth,feeType);\r\n    }\r\n    function _paybackWorth_sub(eBalance _balance,uint256 worth,uint256 feeType) internal returns (uint256) {\r\n        if (worth == 0){\r\n            return;\r\n        }\r\n        mapping (address => uint256) balances = _balance == eBalance.collateral ? collateralBalances : premiumBalances;\r\n        uint256 totalPrice = 0;\r\n        uint whiteLen = whiteList.length;\r\n        for (uint256 i=0;i<whiteLen;i++){\r\n            address addr = whiteList[i];\r\n            uint256 price = _oracle.getPrice(addr);\r\n            totalPrice.add(price.mul(balances[addr]));\r\n        }\r\n        if (totalPrice == 0){\r\n            return worth;\r\n        }\r\n        uint256 cal = worth;\r\n        if (worth > totalPrice){\r\n            worth = worth - totalPrice;\r\n            cal = totalPrice;\r\n        }else{\r\n            worth = 0;\r\n        }\r\n//        cal = cal.mul(totalNum).div(totalPrice);\r\n        for (i=0;i<whiteLen;i++){\r\n            addr = whiteList[i];\r\n            uint256 _payBack = balances[addr].mul(cal).div(totalPrice);\r\n            balances[addr] = balances[addr].sub(_payBack);\r\n            _transferPaybackAndFee(msg.sender,addr,_payBack,feeType);\r\n        } \r\n        return worth;\r\n    }\r\n    function getPayableAmount(address settlement,uint256 settlementAmount) internal returns (uint256) {\r\n        require(isEligibleAddress(settlement) , \"settlement is unsupported token\");\r\n        uint256 colAmount = 0;\r\n        if (settlement == address(0)){\r\n            colAmount = msg.value;\r\n        }else if (settlementAmount > 0){\r\n            IERC20 oToken = IERC20(settlement);\r\n            oToken.transferFrom(msg.sender, address(this), settlementAmount);\r\n            colAmount = settlementAmount;\r\n        }\r\n        return colAmount;\r\n    }\r\n    function calculateCollateral(uint256 amount)internal view returns (uint256){\r\n        uint256 result = collateralRate.numerator.mul(amount);\r\n        return result.div(collateralRate.denominator);\r\n    }\r\n\r\n}",
  "sourcePath": "C:\\work\\solidity\\FinnexusOptions_V2\\contracts\\CollateralPool.sol",
  "compiler": {
    "name": "solc",
    "version": "0.4.26+commit.4563c3fc.Emscripten.clang"
  },
  "schemaVersion": "3.1.0",
  "updatedAt": "2020-07-18T02:19:54.327Z",
  "devdoc": {
    "methods": {
      "addUnderlyingAsset(uint32)": {
        "details": "Implementation of add an eligible underlying into the underlyingAssets.\r",
        "params": {
          "underlying": "new eligible underlying.\r"
        }
      },
      "addWhiteList(address)": {
        "details": "Implementation of add an eligible address into the whitelist.\r",
        "params": {
          "addAddress": "new eligible address.\r"
        }
      },
      "allowance(address,address)": {
        "details": "See {IERC20-allowance}.\r"
      },
      "approve(address,uint256)": {
        "details": "See {IERC20-approve}.\r      * Requirements:\r      * - `spender` cannot be the zero address.\r"
      },
      "balanceOf(address)": {
        "details": "See {IERC20-balanceOf}.\r"
      },
      "decreaseAllowance(address,uint256)": {
        "details": "Atomically decreases the allowance granted to `spender` by the caller.\r      * This is an alternative to {approve} that can be used as a mitigation for\r problems described in {IERC20-approve}.\r      * Emits an {Approval} event indicating the updated allowance.\r      * Requirements:\r      * - `spender` cannot be the zero address.\r - `spender` must have allowance for the caller of at least\r `subtractedValue`.\r"
      },
      "getUnderlyingAssets()": {
        "details": "Implementation of getting the eligible underlyingAssets.\r"
      },
      "getWhiteList()": {
        "details": "Implementation of getting the eligible whitelist.\r"
      },
      "increaseAllowance(address,uint256)": {
        "details": "Atomically increases the allowance granted to `spender` by the caller.\r      * This is an alternative to {approve} that can be used as a mitigation for\r problems described in {IERC20-approve}.\r      * Emits an {Approval} event indicating the updated allowance.\r      * Requirements:\r      * - `spender` cannot be the zero address.\r"
      },
      "isEligibleAddress(address)": {
        "details": "Implementation of testing whether the input address is eligible.\r",
        "params": {
          "tmpAddress": "input address for testing.\r"
        }
      },
      "isEligibleUnderlyingAsset(uint32)": {
        "details": "Implementation of testing whether the input underlying is eligible.\r",
        "params": {
          "underlying": "input underlying for testing.\r"
        }
      },
      "isOwner()": {
        "details": "Returns true if the caller is the current owner."
      },
      "owner()": {
        "details": "Returns the address of the current owner."
      },
      "removeUnderlyingAssets(uint32)": {
        "details": "Implementation of revoke an invalid underlying from the underlyingAssets.\r",
        "params": {
          "removeUnderlying": "revoked underlying.\r"
        }
      },
      "removeWhiteList(address)": {
        "details": "Implementation of revoke an invalid address from the whitelist.\r",
        "params": {
          "removeAddress": "revoked address.\r"
        }
      },
      "renounceOwnership()": {
        "details": "Leaves the contract without owner. It will not be possible to call `onlyOwner` functions anymore. Can only be called by the current owner.     * NOTE: Renouncing ownership will leave the contract without an owner, thereby removing any functionality that is only available to the owner."
      },
      "setTransactionFee(uint256,uint256,uint256)": {
        "details": "set the rate of trasaction fee.\r",
        "params": {
          "denominator": "thedenominator of transaction fee.\r transaction fee = numerator/denominator;\r",
          "feeType": "the transaction fee type\r",
          "numerator": "the numerator of transaction fee .\r"
        }
      },
      "totalSupply()": {
        "details": "See {IERC20-totalSupply}.\r"
      },
      "transfer(address,uint256)": {
        "details": "See {IERC20-transfer}.\r      * Requirements:\r      * - `recipient` cannot be the zero address.\r - the caller must have a balance of at least `amount`.\r"
      },
      "transferFrom(address,address,uint256)": {
        "details": "See {IERC20-transferFrom}.\r      * Emits an {Approval} event indicating the updated allowance. This is not\r required by the EIP. See the note at the beginning of {ERC20};\r      * Requirements:\r - `sender` and `recipient` cannot be the zero address.\r - `sender` must have a balance of at least `amount`.\r - the caller must have allowance for `sender`'s tokens of at least\r `amount`.\r"
      },
      "transferOwnership(address)": {
        "details": "Transfers ownership of the contract to a new account (`newOwner`). Can only be called by the current owner."
      }
    }
  },
  "userdoc": {
    "methods": {
      "setHalt(bool)": {
        "notice": "function Emergency situation that requires contribution period to stop or not."
      }
    }
  }
}