{
  "contractName": "CollateralPool",
  "abi": [
    {
      "constant": true,
      "inputs": [],
      "name": "name",
      "outputs": [
        {
          "name": "",
          "type": "string"
        }
      ],
      "payable": false,
      "stateMutability": "view",
      "type": "function"
    },
    {
      "constant": false,
      "inputs": [
        {
          "name": "spender",
          "type": "address"
        },
        {
          "name": "amount",
          "type": "uint256"
        }
      ],
      "name": "approve",
      "outputs": [
        {
          "name": "",
          "type": "bool"
        }
      ],
      "payable": false,
      "stateMutability": "nonpayable",
      "type": "function"
    },
    {
      "constant": true,
      "inputs": [],
      "name": "getWhiteList",
      "outputs": [
        {
          "name": "",
          "type": "address[]"
        }
      ],
      "payable": false,
      "stateMutability": "view",
      "type": "function"
    },
    {
      "constant": true,
      "inputs": [
        {
          "name": "",
          "type": "address"
        }
      ],
      "name": "netWorthBalances",
      "outputs": [
        {
          "name": "",
          "type": "uint256"
        }
      ],
      "payable": false,
      "stateMutability": "view",
      "type": "function"
    },
    {
      "constant": true,
      "inputs": [],
      "name": "totalSupply",
      "outputs": [
        {
          "name": "",
          "type": "uint256"
        }
      ],
      "payable": false,
      "stateMutability": "view",
      "type": "function"
    },
    {
      "constant": false,
      "inputs": [
        {
          "name": "optionsPool",
          "type": "address"
        }
      ],
      "name": "setOptionsPoolAddress",
      "outputs": [],
      "payable": false,
      "stateMutability": "nonpayable",
      "type": "function"
    },
    {
      "constant": false,
      "inputs": [
        {
          "name": "removeAddress",
          "type": "address"
        }
      ],
      "name": "removeWhiteList",
      "outputs": [
        {
          "name": "",
          "type": "bool"
        }
      ],
      "payable": false,
      "stateMutability": "nonpayable",
      "type": "function"
    },
    {
      "constant": false,
      "inputs": [
        {
          "name": "sender",
          "type": "address"
        },
        {
          "name": "recipient",
          "type": "address"
        },
        {
          "name": "amount",
          "type": "uint256"
        }
      ],
      "name": "transferFrom",
      "outputs": [
        {
          "name": "",
          "type": "bool"
        }
      ],
      "payable": false,
      "stateMutability": "nonpayable",
      "type": "function"
    },
    {
      "constant": true,
      "inputs": [
        {
          "name": "",
          "type": "address"
        }
      ],
      "name": "collateralBalances",
      "outputs": [
        {
          "name": "",
          "type": "uint256"
        }
      ],
      "payable": false,
      "stateMutability": "view",
      "type": "function"
    },
    {
      "constant": false,
      "inputs": [],
      "name": "redeemAll",
      "outputs": [],
      "payable": false,
      "stateMutability": "nonpayable",
      "type": "function"
    },
    {
      "constant": true,
      "inputs": [],
      "name": "decimals",
      "outputs": [
        {
          "name": "",
          "type": "uint8"
        }
      ],
      "payable": false,
      "stateMutability": "view",
      "type": "function"
    },
    {
      "constant": true,
      "inputs": [
        {
          "name": "feeType",
          "type": "uint256"
        },
        {
          "name": "amount",
          "type": "uint256"
        }
      ],
      "name": "calculateFee",
      "outputs": [
        {
          "name": "",
          "type": "uint256"
        }
      ],
      "payable": false,
      "stateMutability": "view",
      "type": "function"
    },
    {
      "constant": false,
      "inputs": [
        {
          "name": "spender",
          "type": "address"
        },
        {
          "name": "addedValue",
          "type": "uint256"
        }
      ],
      "name": "increaseAllowance",
      "outputs": [
        {
          "name": "",
          "type": "bool"
        }
      ],
      "payable": false,
      "stateMutability": "nonpayable",
      "type": "function"
    },
    {
      "constant": false,
      "inputs": [
        {
          "name": "oracle",
          "type": "address"
        }
      ],
      "name": "setOracleAddress",
      "outputs": [],
      "payable": false,
      "stateMutability": "nonpayable",
      "type": "function"
    },
    {
      "constant": true,
      "inputs": [
        {
          "name": "",
          "type": "address"
        }
      ],
      "name": "feeBalances",
      "outputs": [
        {
          "name": "",
          "type": "uint256"
        }
      ],
      "payable": false,
      "stateMutability": "view",
      "type": "function"
    },
    {
      "constant": true,
      "inputs": [],
      "name": "collateralRate",
      "outputs": [
        {
          "name": "numerator",
          "type": "uint256"
        },
        {
          "name": "denominator",
          "type": "uint256"
        }
      ],
      "payable": false,
      "stateMutability": "view",
      "type": "function"
    },
    {
      "constant": true,
      "inputs": [
        {
          "name": "",
          "type": "uint256"
        }
      ],
      "name": "whiteList",
      "outputs": [
        {
          "name": "",
          "type": "address"
        }
      ],
      "payable": false,
      "stateMutability": "view",
      "type": "function"
    },
    {
      "constant": true,
      "inputs": [
        {
          "name": "account",
          "type": "address"
        }
      ],
      "name": "balanceOf",
      "outputs": [
        {
          "name": "",
          "type": "uint256"
        }
      ],
      "payable": false,
      "stateMutability": "view",
      "type": "function"
    },
    {
      "constant": false,
      "inputs": [],
      "name": "renounceOwnership",
      "outputs": [],
      "payable": false,
      "stateMutability": "nonpayable",
      "type": "function"
    },
    {
      "constant": true,
      "inputs": [
        {
          "name": "tmpAddress",
          "type": "address"
        }
      ],
      "name": "isEligibleAddress",
      "outputs": [
        {
          "name": "",
          "type": "bool"
        }
      ],
      "payable": false,
      "stateMutability": "view",
      "type": "function"
    },
    {
      "constant": true,
      "inputs": [],
      "name": "owner",
      "outputs": [
        {
          "name": "",
          "type": "address"
        }
      ],
      "payable": false,
      "stateMutability": "view",
      "type": "function"
    },
    {
      "constant": true,
      "inputs": [],
      "name": "isOwner",
      "outputs": [
        {
          "name": "",
          "type": "bool"
        }
      ],
      "payable": false,
      "stateMutability": "view",
      "type": "function"
    },
    {
      "constant": false,
      "inputs": [
        {
          "name": "currency",
          "type": "address"
        }
      ],
      "name": "redeem",
      "outputs": [],
      "payable": false,
      "stateMutability": "nonpayable",
      "type": "function"
    },
    {
      "constant": true,
      "inputs": [],
      "name": "symbol",
      "outputs": [
        {
          "name": "",
          "type": "string"
        }
      ],
      "payable": false,
      "stateMutability": "view",
      "type": "function"
    },
    {
      "constant": false,
      "inputs": [
        {
          "name": "spender",
          "type": "address"
        },
        {
          "name": "subtractedValue",
          "type": "uint256"
        }
      ],
      "name": "decreaseAllowance",
      "outputs": [
        {
          "name": "",
          "type": "bool"
        }
      ],
      "payable": false,
      "stateMutability": "nonpayable",
      "type": "function"
    },
    {
      "constant": false,
      "inputs": [
        {
          "name": "recipient",
          "type": "address"
        },
        {
          "name": "amount",
          "type": "uint256"
        }
      ],
      "name": "transfer",
      "outputs": [
        {
          "name": "",
          "type": "bool"
        }
      ],
      "payable": false,
      "stateMutability": "nonpayable",
      "type": "function"
    },
    {
      "constant": true,
      "inputs": [],
      "name": "getOracleAddress",
      "outputs": [
        {
          "name": "",
          "type": "address"
        }
      ],
      "payable": false,
      "stateMutability": "view",
      "type": "function"
    },
    {
      "constant": true,
      "inputs": [
        {
          "name": "",
          "type": "address"
        },
        {
          "name": "",
          "type": "address"
        }
      ],
      "name": "userInputCollateral",
      "outputs": [
        {
          "name": "",
          "type": "uint256"
        }
      ],
      "payable": false,
      "stateMutability": "view",
      "type": "function"
    },
    {
      "constant": true,
      "inputs": [],
      "name": "halted",
      "outputs": [
        {
          "name": "",
          "type": "bool"
        }
      ],
      "payable": false,
      "stateMutability": "view",
      "type": "function"
    },
    {
      "constant": false,
      "inputs": [
        {
          "name": "feeType",
          "type": "uint256"
        },
        {
          "name": "numerator",
          "type": "uint256"
        },
        {
          "name": "denominator",
          "type": "uint256"
        }
      ],
      "name": "setTransactionFee",
      "outputs": [],
      "payable": false,
      "stateMutability": "nonpayable",
      "type": "function"
    },
    {
      "constant": true,
      "inputs": [],
      "name": "getOptionsPoolAddress",
      "outputs": [
        {
          "name": "",
          "type": "address"
        }
      ],
      "payable": false,
      "stateMutability": "view",
      "type": "function"
    },
    {
      "constant": true,
      "inputs": [
        {
          "name": "settlement",
          "type": "address"
        }
      ],
      "name": "getFeeBalance",
      "outputs": [
        {
          "name": "",
          "type": "uint256"
        }
      ],
      "payable": false,
      "stateMutability": "view",
      "type": "function"
    },
    {
      "constant": true,
      "inputs": [
        {
          "name": "feeType",
          "type": "uint256"
        }
      ],
      "name": "getFeeRate",
      "outputs": [
        {
          "name": "",
          "type": "uint256"
        },
        {
          "name": "",
          "type": "uint256"
        }
      ],
      "payable": false,
      "stateMutability": "view",
      "type": "function"
    },
    {
      "constant": true,
      "inputs": [
        {
          "name": "owner",
          "type": "address"
        },
        {
          "name": "spender",
          "type": "address"
        }
      ],
      "name": "allowance",
      "outputs": [
        {
          "name": "",
          "type": "uint256"
        }
      ],
      "payable": false,
      "stateMutability": "view",
      "type": "function"
    },
    {
      "constant": true,
      "inputs": [
        {
          "name": "",
          "type": "address"
        }
      ],
      "name": "userCollateralPaying",
      "outputs": [
        {
          "name": "",
          "type": "uint256"
        }
      ],
      "payable": false,
      "stateMutability": "view",
      "type": "function"
    },
    {
      "constant": true,
      "inputs": [
        {
          "name": "",
          "type": "uint256"
        }
      ],
      "name": "FeeRates",
      "outputs": [
        {
          "name": "numerator",
          "type": "uint256"
        },
        {
          "name": "denominator",
          "type": "uint256"
        }
      ],
      "payable": false,
      "stateMutability": "view",
      "type": "function"
    },
    {
      "constant": false,
      "inputs": [
        {
          "name": "addAddress",
          "type": "address"
        }
      ],
      "name": "addWhiteList",
      "outputs": [],
      "payable": false,
      "stateMutability": "nonpayable",
      "type": "function"
    },
    {
      "constant": true,
      "inputs": [],
      "name": "getAllFeeBalances",
      "outputs": [
        {
          "name": "",
          "type": "address[]"
        },
        {
          "name": "",
          "type": "uint256[]"
        }
      ],
      "payable": false,
      "stateMutability": "view",
      "type": "function"
    },
    {
      "constant": false,
      "inputs": [
        {
          "name": "newOwner",
          "type": "address"
        }
      ],
      "name": "transferOwnership",
      "outputs": [],
      "payable": false,
      "stateMutability": "nonpayable",
      "type": "function"
    },
    {
      "constant": false,
      "inputs": [
        {
          "name": "halt",
          "type": "bool"
        }
      ],
      "name": "setHalt",
      "outputs": [],
      "payable": false,
      "stateMutability": "nonpayable",
      "type": "function"
    },
    {
      "constant": true,
      "inputs": [
        {
          "name": "tmpAddress",
          "type": "address"
        }
      ],
      "name": "checkEligibleAddress",
      "outputs": [],
      "payable": false,
      "stateMutability": "view",
      "type": "function"
    },
    {
      "anonymous": false,
      "inputs": [
        {
          "indexed": true,
          "name": "value1",
          "type": "uint256"
        },
        {
          "indexed": true,
          "name": "value2",
          "type": "uint256"
        },
        {
          "indexed": true,
          "name": "value3",
          "type": "uint256"
        }
      ],
      "name": "DebugEvent",
      "type": "event"
    },
    {
      "anonymous": false,
      "inputs": [
        {
          "indexed": true,
          "name": "from",
          "type": "address"
        },
        {
          "indexed": true,
          "name": "to",
          "type": "address"
        },
        {
          "indexed": false,
          "name": "value",
          "type": "uint256"
        }
      ],
      "name": "Transfer",
      "type": "event"
    },
    {
      "anonymous": false,
      "inputs": [
        {
          "indexed": true,
          "name": "owner",
          "type": "address"
        },
        {
          "indexed": true,
          "name": "spender",
          "type": "address"
        },
        {
          "indexed": false,
          "name": "value",
          "type": "uint256"
        }
      ],
      "name": "Approval",
      "type": "event"
    },
    {
      "anonymous": false,
      "inputs": [
        {
          "indexed": true,
          "name": "recieptor",
          "type": "address"
        },
        {
          "indexed": true,
          "name": "settlement",
          "type": "address"
        },
        {
          "indexed": false,
          "name": "payback",
          "type": "uint256"
        }
      ],
      "name": "FeePayback",
      "type": "event"
    },
    {
      "anonymous": false,
      "inputs": [
        {
          "indexed": true,
          "name": "settlement",
          "type": "address"
        },
        {
          "indexed": false,
          "name": "payback",
          "type": "uint256"
        }
      ],
      "name": "AddFee",
      "type": "event"
    },
    {
      "anonymous": false,
      "inputs": [
        {
          "indexed": true,
          "name": "recieptor",
          "type": "address"
        },
        {
          "indexed": true,
          "name": "settlement",
          "type": "address"
        },
        {
          "indexed": false,
          "name": "payback",
          "type": "uint256"
        }
      ],
      "name": "TransferPayback",
      "type": "event"
    },
    {
      "anonymous": false,
      "inputs": [
        {
          "indexed": true,
          "name": "previousOwner",
          "type": "address"
        },
        {
          "indexed": true,
          "name": "newOwner",
          "type": "address"
        }
      ],
      "name": "OwnershipTransferred",
      "type": "event"
    },
    {
      "constant": false,
      "inputs": [
        {
          "name": "index",
          "type": "uint256"
        }
      ],
      "name": "setPhaseSharedPayment",
      "outputs": [],
      "payable": false,
      "stateMutability": "nonpayable",
      "type": "function"
    },
    {
      "constant": false,
      "inputs": [
        {
          "name": "index",
          "type": "uint256"
        },
        {
          "name": "sharedBalances",
          "type": "uint256[]"
        },
        {
          "name": "lastBlock",
          "type": "uint256"
        },
        {
          "name": "calTime",
          "type": "uint256"
        }
      ],
      "name": "setSharedPayment",
      "outputs": [],
      "payable": false,
      "stateMutability": "nonpayable",
      "type": "function"
    },
    {
      "constant": true,
      "inputs": [],
      "name": "getTokenNetworth",
      "outputs": [
        {
          "name": "",
          "type": "uint256"
        }
      ],
      "payable": false,
      "stateMutability": "view",
      "type": "function"
    },
    {
      "constant": false,
      "inputs": [
        {
          "name": "collateral",
          "type": "address"
        },
        {
          "name": "amount",
          "type": "uint256"
        }
      ],
      "name": "addCollateral",
      "outputs": [],
      "payable": true,
      "stateMutability": "payable",
      "type": "function"
    },
    {
      "constant": false,
      "inputs": [
        {
          "name": "tokenAmount",
          "type": "uint256"
        },
        {
          "name": "collateral",
          "type": "address"
        }
      ],
      "name": "redeemCollateral",
      "outputs": [],
      "payable": false,
      "stateMutability": "nonpayable",
      "type": "function"
    },
    {
      "constant": true,
      "inputs": [],
      "name": "getOccupiedCollateral",
      "outputs": [
        {
          "name": "",
          "type": "uint256"
        }
      ],
      "payable": false,
      "stateMutability": "view",
      "type": "function"
    },
    {
      "constant": true,
      "inputs": [],
      "name": "getLeftCollateral",
      "outputs": [
        {
          "name": "",
          "type": "uint256"
        }
      ],
      "payable": false,
      "stateMutability": "view",
      "type": "function"
    },
    {
      "constant": true,
      "inputs": [],
      "name": "getTotalCollateral",
      "outputs": [
        {
          "name": "",
          "type": "uint256"
        }
      ],
      "payable": false,
      "stateMutability": "view",
      "type": "function"
    }
  ],
  "bytecode": "0x6000805460ff60a860020a60ff02011916905560c0604052600a60808190527f536861726564436f696e0000000000000000000000000000000000000000000060a09081526200005391600491906200023f565b506040805180820190915260058082527f53436f696e00000000000000000000000000000000000000000000000000000060209092019182526200009891816200023f565b5060006008819055604080518082018252600380825260016020909201829052600b55600c55815461010033810261010060a860020a03199092169190911780845591519104600160a060020a031691907f8be0079c531659141344cd1fd0a4f28419497f9722a3daafe3b4186f6b6457e0908290a360408051808201825260038082526103e860208084018281528354600181810186556000868152965160029283027fc2575a0e9e593c00f959f8c92f12db2869c3395a3b0502d05e2516446f71f85b8181019290925593517fc2575a0e9e593c00f959f8c92f12db2869c3395a3b0502d05e2516446f71f85c948501558851808a018a5287815280860187815288548085018a55898b5291519185028084019290925551908501558851808a018a5287815280860187815288548085018a55898b5291519185028084019290925551908501558851808a018a5287815280860187815288548085018a55898b5291519185028084019290925551908501558851808a0190995286895293880194855285549081018655949095529451929093029283019190915551910155620002e4565b828054600181600116156101000203166002900490600052602060002090601f016020900481019282601f106200028257805160ff1916838001178555620002b2565b82800160010185558215620002b2579182015b82811115620002b257825182559160200191906001019062000295565b50620002c0929150620002c4565b5090565b620002e191905b80821115620002c05760008155600101620002cb565b90565b61366c80620002f46000396000f3006080604052600436106102375763ffffffff60e060020a60003504166306fdde03811461023c578063095ea7b3146102c657806309a9d76c146102fe5780630aaf3832146103635780630ecfad1e1461038a57806318160ddd146103ab5780631a5a3fce146103c05780632042e5c2146103e357806323b872dd1461040457806329bc969d1461042e5780632f4350c21461044f578063313ce5671461046457806334e731221461048f57806339509351146104aa5780634c69c00f146104ce57806353afc025146104ef57806358a6be1c146105105780635c475d421461053e5780636d75b9ee1461057257806370a0823114610589578063715018a6146105aa578063817bf86d146105bf5780638da5cb5b146105e05780638f32d59b146105f557806395a2251f1461060a57806395d89b411461062b578063a04115f614610640578063a20a804514610658578063a457c2d71461067c578063a623d517146106a0578063a9059cbb14610703578063b18b78dd14610727578063b4d5a9c71461073c578063b9b8af0b14610763578063bf36b11014610778578063c040725a14610796578063c5e5a3ed146107ab578063c78f6803146107c0578063cd405819146107e1578063d2aaef4e146107f6578063d6eb59101461080e578063dd62ed3e14610823578063ddb944e51461084a578063e0561aa11461086b578063e7cd4a0414610883578063f20568cd146108a4578063f2fde38b14610952578063f495438714610973578063f939fdca1461098d575b600080fd5b34801561024857600080fd5b506102516109ae565b6040805160208082528351818301528351919283929083019185019080838360005b8381101561028b578181015183820152602001610273565b50505050905090810190601f1680156102b85780820380516001836020036101000a031916815260200191505b509250505060405180910390f35b3480156102d257600080fd5b506102ea600160a060020a0360043516602435610a3c565b604080519115158252519081900360200190f35b34801561030a57600080fd5b50610313610a52565b60408051602080825283518183015283519192839290830191858101910280838360005b8381101561034f578181015183820152602001610337565b505050509050019250505060405180910390f35b34801561036f57600080fd5b50610378610ab5565b60408051918252519081900360200190f35b34801561039657600080fd5b50610378600160a060020a0360043516610acd565b3480156103b757600080fd5b50610378610adf565b3480156103cc57600080fd5b506103e1600160a060020a0360043516610ae5565b005b3480156103ef57600080fd5b506102ea600160a060020a0360043516610b60565b34801561041057600080fd5b506102ea600160a060020a0360043581169060243516604435610bbf565b34801561043a57600080fd5b50610378600160a060020a0360043516610c72565b34801561045b57600080fd5b506103e1610c84565b34801561047057600080fd5b50610479610d17565b6040805160ff9092168252519081900360200190f35b34801561049b57600080fd5b50610378600435602435610d1c565b3480156104b657600080fd5b506102ea600160a060020a0360043516602435610d63565b3480156104da57600080fd5b506103e1600160a060020a0360043516610d9f565b3480156104fb57600080fd5b50610378600160a060020a0360043516610e1a565b34801561051c57600080fd5b50610525610e2c565b6040805192835260208301919091528051918290030190f35b34801561054a57600080fd5b50610556600435610e35565b60408051600160a060020a039092168252519081900360200190f35b6103e1600160a060020a0360043516602435610e5d565b34801561059557600080fd5b50610378600160a060020a036004351661109f565b3480156105b657600080fd5b506103e16110ba565b3480156105cb57600080fd5b506102ea600160a060020a0360043516611162565b3480156105ec57600080fd5b506105566111c8565b34801561060157600080fd5b506102ea6111dc565b34801561061657600080fd5b506103e1600160a060020a03600435166111f2565b34801561063757600080fd5b506102516113e2565b34801561064c57600080fd5b506103e160043561143d565b34801561066457600080fd5b506103e1600435600160a060020a036024351661159a565b34801561068857600080fd5b506102ea600160a060020a0360043516602435611748565b3480156106ac57600080fd5b506040805160206004602480358281013584810280870186019097528086526103e1968435963696604495919490910192918291850190849080828437509497505084359550505060209092013591506117e19050565b34801561070f57600080fd5b506102ea600160a060020a0360043516602435611958565b34801561073357600080fd5b50610556611965565b34801561074857600080fd5b50610378600160a060020a0360043581169060243516611974565b34801561076f57600080fd5b506102ea611991565b34801561078457600080fd5b506103e16004356024356044356119b3565b3480156107a257600080fd5b50610556611a17565b3480156107b757600080fd5b50610378611a26565b3480156107cc57600080fd5b50610378600160a060020a0360043516611a58565b3480156107ed57600080fd5b50610378611a73565b34801561080257600080fd5b50610525600435611b07565b34801561081a57600080fd5b50610378611b28565b34801561082f57600080fd5b50610378600160a060020a0360043581169060243516611c30565b34801561085657600080fd5b50610378600160a060020a0360043516611c5b565b34801561087757600080fd5b50610525600435611c6d565b34801561088f57600080fd5b506103e1600160a060020a0360043516611c99565b3480156108b057600080fd5b506108b9611cf0565b604051808060200180602001838103835285818151815260200191508051906020019060200280838360005b838110156108fd5781810151838201526020016108e5565b50505050905001838103825284818151815260200191508051906020019060200280838360005b8381101561093c578181015183820152602001610924565b5050505090500194505050505060405180910390f35b34801561095e57600080fd5b506103e1600160a060020a0360043516611df9565b34801561097f57600080fd5b506103e16004351515611e4e565b34801561099957600080fd5b506103e1600160a060020a0360043516611edc565b6004805460408051602060026001851615610100026000190190941693909304601f81018490048402820184019092528181529291830182828015610a345780601f10610a0957610100808354040283529160200191610a34565b820191906000526020600020905b815481529060010190602001808311610a1757829003601f168201915b505050505081565b6000610a49338484611f40565b50600192915050565b60606001805480602002602001604051908101604052809291908181526020018280548015610aaa57602002820191906000526020600020905b8154600160a060020a03168152600190910190602001808311610a8c575b505050505090505b90565b6000610abf611a73565b610ac7611b28565b03905090565b600d6020526000908152604090205481565b60085490565b610aed6111dc565b1515610b31576040805160e560020a62461bcd0281526020600482018190526024820152600080516020613621833981519152604482015290519081900360640190fd5b600a805473ffffffffffffffffffffffffffffffffffffffff1916600160a060020a0392909216919091179055565b6000610b6a6111dc565b1515610bae576040805160e560020a62461bcd0281526020600482018190526024820152600080516020613621833981519152604482015290519081900360640190fd5b610bb96001836120ad565b92915050565b6000610bcc84848461219a565b60408051606081018252602881527f45524332303a207472616e7366657220616d6f756e74206578636565647320616020808301919091527f6c6c6f77616e636500000000000000000000000000000000000000000000000082840152600160a060020a0387166000908152600782528381203380835292529290922054610c689287929091610c6391879063ffffffff61230a16565b611f40565b5060019392505050565b600e6020526000908152604090205481565b6000610c8e6111dc565b1515610cd2576040805160e560020a62461bcd0281526020600482018190526024820152600080516020613621833981519152604482015290519081900360640190fd5b5060005b600154811015610d1457610d0c600182815481101515610cf257fe5b600091825260209091200154600160a060020a03166111f2565b600101610cd6565b50565b601281565b6000806000610d2a856123a7565b8054909250610d3f908563ffffffff61242616565b9050610d588260010154826124d090919063ffffffff16565b92505b505092915050565b336000818152600760209081526040808320600160a060020a03871684529091528120549091610a49918590610c63908663ffffffff61251916565b610da76111dc565b1515610deb576040805160e560020a62461bcd0281526020600482018190526024820152600080516020613621833981519152604482015290519081900360640190fd5b6009805473ffffffffffffffffffffffffffffffffffffffff1916600160a060020a0392909216919091179055565b60026020526000908152604090205481565b600b54600c5482565b6001805482908110610e4357fe5b600091825260209091200154600160a060020a0316905081565b600080600080610e6d8686612576565b945060008511610ec7576040805160e560020a62461bcd02815260206004820152601a60248201527f736574746c656d656e7420616d6f756e74206973207a65726f21000000000000604482015290519081900360640190fd5b610ed2600386610d1c565b9350610ede86856126a9565b610eee858563ffffffff61272816565b6009546040805160e060020a6341976e09028152600160a060020a038a8116600483015291519398509116916341976e09916024808201926020929091908290030181600087803b158015610f4257600080fd5b505af1158015610f56573d6000803e3d6000fd5b505050506040513d6020811015610f6c57600080fd5b50519250610f80838663ffffffff61242616565b9150610f9a610f8d611a26565b839063ffffffff6124d016565b336000908152600f6020526040902054909150610fbd908363ffffffff61251916565b336000908152600f6020908152604080832093909355600160a060020a0389168252600e90522054610ff5908663ffffffff61251916565b600160a060020a0387166000818152600e602090815260408083209490945533825260108152838220928252919091522054611037908663ffffffff61251916565b336000908152601060209081526040808320600160a060020a038b168452825280832093909355600d90522054611074908663ffffffff61251916565b600160a060020a0387166000908152600d6020526040902055611097338261276a565b505050505050565b600160a060020a031660009081526006602052604090205490565b6110c26111dc565b1515611106576040805160e560020a62461bcd0281526020600482018190526024820152600080516020613621833981519152604482015290519081900360640190fd5b60008054604051610100909104600160a060020a0316907f8be0079c531659141344cd1fd0a4f28419497f9722a3daafe3b4186f6b6457e0908390a36000805474ffffffffffffffffffffffffffffffffffffffff0019169055565b6000610bb960018054806020026020016040519081016040528092919081815260200182805480156111bd57602002820191906000526020600020905b8154600160a060020a0316815260019091019060200180831161119f575b50505050508361282f565b6000546101009004600160a060020a031690565b6000546101009004600160a060020a0316331490565b6000806111fd6111dc565b1515611241576040805160e560020a62461bcd0281526020600482018190526024820152600080516020613621833981519152604482015290519081900360640190fd5b600160a060020a038316600090815260026020526040812054925082116112b2576040805160e560020a62461bcd02815260206004820152601260248201527f4974277320656d7074792062616c616e63650000000000000000000000000000604482015290519081900360640190fd5b600160a060020a038316600081815260026020526040812055151561130457604051339083156108fc029084906000818181858888f193505050501580156112fe573d6000803e3d6000fd5b5061139d565b50604080517fa9059cbb0000000000000000000000000000000000000000000000000000000081523360048201526024810183905290518391600160a060020a0383169163a9059cbb916044808201926020929091908290030181600087803b15801561137057600080fd5b505af1158015611384573d6000803e3d6000fd5b505050506040513d602081101561139a57600080fd5b50505b604080518381529051600160a060020a0385169133917f747147be90b2a81a2e929994a92cd7bb71396bdbfd02f181867c81187d4f79449181900360200190a3505050565b6005805460408051602060026001851615610100026000190190941693909304601f81018490048402820184019092528181529291830182828015610a345780601f10610a0957610100808354040283529160200191610a34565b606060006114496111dc565b151561148d576040805160e560020a62461bcd0281526020600482018190526024820152600080516020613621833981519152604482015290519081900360640190fd5b600a54604080517fa3144e50000000000000000000000000000000000000000000000000000000008152600481018690529051600160a060020a039092169163a3144e509160248082019260009290919082900301818387803b1580156114f357600080fd5b505af1158015611507573d6000803e3d6000fd5b505050506040513d6000823e601f3d908101601f19168201604090815281101561153057600080fd5b81019080805164010000000081111561154857600080fd5b8201602081018481111561155b57600080fd5b815185602082028301116401000000008211171561157857600080fd5b5050602090910151909450925061159591508490508383426117e1565b505050565b6000806000806115a985611162565b15156115ff576040805160e560020a62461bcd02815260206004820152601f60248201527f736574746c656d656e7420697320756e737570706f7274656420746f6b656e00604482015290519081900360640190fd5b33600090815260066020526040902054861115611666576040805160e560020a62461bcd02815260206004820152601e60248201527f53436f696e2062616c616e636520697320696e73756666696369656e74210000604482015290519081900360640190fd5b85151561167257611097565b600a60009054906101000a9004600160a060020a0316600160a060020a03166373a3d4246040518163ffffffff1660e060020a028152600401602060405180830381600087803b1580156116c557600080fd5b505af11580156116d9573d6000803e3d6000fd5b505050506040513d60208110156116ef57600080fd5b505193506116fb611b28565b9250611712600854846124d090919063ffffffff16565b9150611724868363ffffffff61242616565b905082611737858363ffffffff61251916565b116110975761109786868385612880565b60408051606081018252602581527f45524332303a2064656372656173656420616c6c6f77616e63652062656c6f776020808301919091527f207a65726f0000000000000000000000000000000000000000000000000000008284015233600081815260078352848120600160a060020a0388168252909252928120549092610a499290918691610c639190879063ffffffff61230a16565b6000806117ec6111dc565b1515611830576040805160e560020a62461bcd0281526020600482018190526024820152600080516020613621833981519152604482015290519081900360640190fd5b600a54604080517f09e3d33e0000000000000000000000000000000000000000000000000000000081526004810189905260248101879052604481018690529051600160a060020a03909216916309e3d33e9160648082019260009290919082900301818387803b1580156118a457600080fd5b505af11580156118b8573d6000803e3d6000fd5b50505050600091505b84518210156110975760018054839081106118d857fe5b6000918252602090912001548551600160a060020a0390911691506119349086908490811061190357fe5b6020908102909101810151600160a060020a0384166000908152600d9092526040909120549063ffffffff61251916565b600160a060020a0382166000908152600d60205260409020556001909101906118c1565b6000610a4933848461219a565b600954600160a060020a031690565b601060209081526000928352604080842090915290825290205481565b6000547501000000000000000000000000000000000000000000900460ff1681565b60006119bd6111dc565b1515611a01576040805160e560020a62461bcd0281526020600482018190526024820152600080516020613621833981519152604482015290519081900360640190fd5b611a0a846123a7565b9283555060019091015550565b600a54600160a060020a031690565b600060085460001415611a3e57506305f5e100610ab2565b600854611a49611b28565b811515611a5257fe5b04905090565b600160a060020a031660009081526002602052604090205490565b600080600a60009054906101000a9004600160a060020a0316600160a060020a03166373a3d4246040518163ffffffff1660e060020a028152600401602060405180830381600087803b158015611ac957600080fd5b505af1158015611add573d6000803e3d6000fd5b505050506040513d6020811015611af357600080fd5b50519050611b0081612b32565b91505b5090565b6000806000611b15846123a7565b8054600190910154909590945092505050565b60015460009081908180805b83831015611c26576001805484908110611b4a57fe5b60009182526020808320909101546009546040805160e060020a6341976e09028152600160a060020a0393841660048201819052915191975091909216936341976e099360248084019491939192918390030190829087803b158015611baf57600080fd5b505af1158015611bc3573d6000803e3d6000fd5b505050506040513d6020811015611bd957600080fd5b5051600160a060020a0383166000908152600d6020526040902054909150611c1990611c0c90839063ffffffff61242616565b869063ffffffff61251916565b9450600190920191611b34565b5092949350505050565b600160a060020a03918216600090815260076020908152604080832093909416825291909152205490565b600f6020526000908152604090205481565b6003805482908110611c7b57fe5b60009182526020909120600290910201805460019091015490915082565b611ca16111dc565b1515611ce5576040805160e560020a62461bcd0281526020600482018190526024820152600080516020613621833981519152604482015290519081900360640190fd5b610d14600182612b61565b60608060606000600180549050604051908082528060200260200182016040528015611d26578160200160208202803883390190505b509150600090505b600154811015611d905760026000600183815481101515611d4b57fe5b6000918252602080832090910154600160a060020a031683528201929092526040019020548251839083908110611d7e57fe5b60209081029091010152600101611d2e565b60018281805480602002602001604051908101604052809291908181526020018280548015611de857602002820191906000526020600020905b8154600160a060020a03168152600190910190602001808311611dca575b505050505091509350935050509091565b611e016111dc565b1515611e45576040805160e560020a62461bcd0281526020600482018190526024820152600080516020613621833981519152604482015290519081900360640190fd5b610d1481612c07565b611e566111dc565b1515611e9a576040805160e560020a62461bcd0281526020600482018190526024820152600080516020613621833981519152604482015290519081900360640190fd5b6000805491151575010000000000000000000000000000000000000000000275ff00000000000000000000000000000000000000000019909216919091179055565b610d146001805480602002602001604051908101604052809291908181526020018280548015611f3557602002820191906000526020600020905b8154600160a060020a03168152600190910190602001808311611f17575b505050505082612d00565b600160a060020a0383161515611fc5576040805160e560020a62461bcd028152602060048201526024808201527f45524332303a20617070726f76652066726f6d20746865207a65726f2061646460448201527f7265737300000000000000000000000000000000000000000000000000000000606482015290519081900360840190fd5b600160a060020a038216151561204b576040805160e560020a62461bcd02815260206004820152602260248201527f45524332303a20617070726f766520746f20746865207a65726f20616464726560448201527f7373000000000000000000000000000000000000000000000000000000000000606482015290519081900360840190fd5b600160a060020a03808416600081815260076020908152604080832094871680845294825291829020859055815185815291517f8c5be1e5ebec7d5bd14f71427d1e84f3dd0314c0f7b2291e5b200ac8c7c3b9259281900390910190a3505050565b8154600090815b818110156120fc5783600160a060020a031685828154811015156120d457fe5b600091825260209091200154600160a060020a031614156120f4576120fc565b6001016120b4565b8181101561218f576000198201811461217557846001830381548110151561212057fe5b6000918252602090912001548554600160a060020a039091169086908390811061214657fe5b9060005260206000200160006101000a815481600160a060020a030219169083600160a060020a031602179055505b84546121858660001983016135e7565b5060019250610d5b565b506000949350505050565b600160a060020a0383161515612220576040805160e560020a62461bcd02815260206004820152602560248201527f45524332303a207472616e736665722066726f6d20746865207a65726f20616460448201527f6472657373000000000000000000000000000000000000000000000000000000606482015290519081900360840190fd5b600160a060020a03821615156122a6576040805160e560020a62461bcd02815260206004820152602360248201527f45524332303a207472616e7366657220746f20746865207a65726f206164647260448201527f6573730000000000000000000000000000000000000000000000000000000000606482015290519081900360840190fd5b6122b08382612d60565b6122ba8282612e2f565b81600160a060020a031683600160a060020a03167fddf252ad1be2c89b69c2b068fc378daa952ba7f163c4a11628f55a4df523b3ef836040518082815260200191505060405180910390a3505050565b600080828585111561239d5760405160e560020a62461bcd0281526004018080602001828103825283818151815260200191508051906020019080838360005b8381101561236257818101518382015260200161234a565b50505050905090810190601f16801561238f5780820380516001836020036101000a031916815260200191505b509250505060405180910390fd5b5050509103919050565b6003546000908210612403576040805160e560020a62461bcd02815260206004820152601260248201527f66656520747970652069732076616c6964210000000000000000000000000000604482015290519081900360640190fd5b600380548390811061241157fe5b90600052602060002090600202019050919050565b60008083151561243957600091506124c9565b5082820282848281151561244957fe5b04146124c5576040805160e560020a62461bcd02815260206004820152602160248201527f536166654d6174683a206d756c7469706c69636174696f6e206f766572666c6f60448201527f7700000000000000000000000000000000000000000000000000000000000000606482015290519081900360840190fd5b8091505b5092915050565b600061251283836040805190810160405280601a81526020017f536166654d6174683a206469766973696f6e206279207a65726f000000000000815250612ede565b9392505050565b6000828201838110156124c5576040805160e560020a62461bcd02815260206004820152601b60248201527f536166654d6174683a206164646974696f6e206f766572666c6f770000000000604482015290519081900360640190fd5b600080600061258485611162565b15156125da576040805160e560020a62461bcd02815260206004820152601f60248201527f736574746c656d656e7420697320756e737570706f7274656420746f6b656e00604482015290519081900360640190fd5b60009150600160a060020a03851615156125f6573491506126a1565b60008411156126a15750604080517f23b872dd0000000000000000000000000000000000000000000000000000000081523360048201523060248201526044810185905290518591600160a060020a038316916323b872dd916064808201926020929091908290030181600087803b15801561267157600080fd5b505af1158015612685573d6000803e3d6000fd5b505050506040513d602081101561269b57600080fd5b50849250505b509392505050565b600160a060020a0382166000908152600260205260409020546126d2908263ffffffff61251916565b600160a060020a038316600081815260026020908152604091829020939093558051848152905191927f1104eee7f034069140a0655d153038cedf9e65e5724018c555a8d56cfb6bee7792918290030190a25050565b600061251283836040805190810160405280601e81526020017f536166654d6174683a207375627472616374696f6e206f766572666c6f77000081525061230a565b600160a060020a03821615156127ca576040805160e560020a62461bcd02815260206004820152601f60248201527f45524332303a206d696e7420746f20746865207a65726f206164647265737300604482015290519081900360640190fd5b6008546127dd908263ffffffff61251916565b6008556127ea8282612e2f565b604080518281529051600160a060020a038416916000917fddf252ad1be2c89b69c2b068fc378daa952ba7f163c4a11628f55a4df523b3ef9181900360200190a35050565b8151600090815b8181101561218f5783600160a060020a0316858281518110151561285657fe5b90602001906020020151600160a060020a031614156128785760019250610d5b565b600101612836565b33600090815260066020908152604080832054600f909252822054829160609183918291829185916128c991906128bd908e63ffffffff61242616565b9063ffffffff6124d016565b336000908152600f60205260409020549097506128ec908863ffffffff61272816565b336000818152600f6020526040902091909155612909908c612f4a565b600154604080518281526020808402820101909152909650868015612938578160200160208202803883390190505b509450612946898b8a613035565b6001805460408051602080840282018101909252828152949d509297506129ac93928301828280156129a157602002820191906000526020600020905b8154600160a060020a03168152600190910190602001808311612983575b50505050508b6131dc565b92508385848151811015156129bd57fe5b60209081029091010152600091505b6000891180156129db57508582105b15612a3e57612a0e896001848154811015156129f357fe5b600091825260209091200154600160a060020a03168a613035565b8651919a5094508490869084908110612a2357fe5b602090810290910101805190910190526001909101906129cc565b6000891115612ac357612a5289878a613231565b9050600091505b85821015612ac357612aa08183815181101515612a7257fe5b906020019060200201518684815181101515612a8a57fe5b602090810290910101519063ffffffff61251916565b8583815181101515612aae57fe5b60209081029091010152600190910190612a59565b600091505b85821015612b2557612b1a33600184815481101515612ae357fe5b6000918252602090912001548751600160a060020a0390911690889086908110612b0957fe5b90602001906020020151600461345c565b600190910190612ac8565b5050505050505050505050565b600b546000908190612b4a908463ffffffff61242616565b600c5490915061251290829063ffffffff6124d016565b612bc482805480602002602001604051908101604052809291908181526020018280548015612bb957602002820191906000526020600020905b8154600160a060020a03168152600190910190602001808311612b9b575b50505050508261282f565b1515612c0357815460018101835560008381526020902001805473ffffffffffffffffffffffffffffffffffffffff1916600160a060020a0383161790555b5050565b600160a060020a0381161515612c8d576040805160e560020a62461bcd02815260206004820152602660248201527f4f776e61626c653a206e6577206f776e657220697320746865207a65726f206160448201527f6464726573730000000000000000000000000000000000000000000000000000606482015290519081900360840190fd5b60008054604051600160a060020a038085169361010090930416917f8be0079c531659141344cd1fd0a4f28419497f9722a3daafe3b4186f6b6457e091a360008054600160a060020a039092166101000274ffffffffffffffffffffffffffffffffffffffff0019909216919091179055565b612d0a828261282f565b1515612c03576040805160e560020a62461bcd02815260206004820181905260248201527f77686974654c6973743a207573696e6720696e76616c69642061646472657373604482015290519081900360640190fd5b600160a060020a0382161515612de6576040805160e560020a62461bcd02815260206004820152602360248201527f45524332303a207472616e7366657220746f20746865207a65726f206164647260448201527f6573730000000000000000000000000000000000000000000000000000000000606482015290519081900360840190fd5b600160a060020a038216600090815260066020526040902054612e0f908263ffffffff61272816565b600160a060020a0390921660009081526006602052604090209190915550565b600160a060020a0382161515612eb5576040805160e560020a62461bcd02815260206004820152602360248201527f45524332303a207472616e7366657220746f20746865207a65726f206164647260448201527f6573730000000000000000000000000000000000000000000000000000000000606482015290519081900360840190fd5b600160a060020a038216600090815260066020526040902054612e0f908263ffffffff61251916565b60008082818511612f345760405160e560020a62461bcd0281526004018080602001828103825283818151815260200191508051906020019080838360008381101561236257818101518382015260200161234a565b508385811515612f4057fe5b0495945050505050565b600160a060020a0382161515612fd0576040805160e560020a62461bcd02815260206004820152602160248201527f45524332303a206275726e2066726f6d20746865207a65726f2061646472657360448201527f7300000000000000000000000000000000000000000000000000000000000000606482015290519081900360840190fd5b612fda8282612d60565b600854612fed908263ffffffff61272816565b600855604080518281529051600091600160a060020a038516917fddf252ad1be2c89b69c2b068fc378daa952ba7f163c4a11628f55a4df523b3ef9181900360200190a35050565b336000908152601060209081526040808320600160a060020a038616845290915281205481908180808084151561307257899650600095506131cf565b613082888663ffffffff61242616565b600160a060020a038a166000908152600d6020908152604080832054600e909252909120549195506130be916128bd908863ffffffff61242616565b9450848410156130cc578394505b8415156130df57899650600095506131cf565b6009546040805160e060020a6341976e09028152600160a060020a038c81166004830152915191909216916341976e099160248083019260209291908290030181600087803b15801561313157600080fd5b505af1158015613145573d6000803e3d6000fd5b505050506040513d602081101561315b57600080fd5b5051925061316f8a8463ffffffff6124d016565b915081151561318457600096508695506131cf565b8482116131915781613193565b845b9050848211156131c7576131bd6131b0828563ffffffff61242616565b8b9063ffffffff61272816565b81965096506131cf565b600096509450845b5050505050935093915050565b8151600090815b818110156132295783600160a060020a0316858281518110151561320357fe5b90602001906020020151600160a060020a0316141561322157613229565b6001016131e3565b949350505050565b606060006060600080600080600095508860405190808252806020026020018201604052801561326b578160200160208202803883390190505b509450600093505b888410156133e357600180548590811061328957fe5b6000918252602080832090910154600160a060020a0316808352600e9091526040909120549093506132c290899063ffffffff61242616565b600160a060020a0384166000908152600d60205260409020549092508210156133d857600160a060020a0383166000908152600d60205260409020548551908390039086908690811061331157fe5b60209081029091018101919091526009546040805160e060020a6341976e09028152600160a060020a038781166004830152915191909216926341976e0992602480820193918290030181600087803b15801561336d57600080fd5b505af1158015613381573d6000803e3d6000fd5b505050506040513d602081101561339757600080fd5b505185519091506133d6906133c9908790879081106133b257fe5b60209081029091010151839063ffffffff61242616565b879063ffffffff61251916565b505b600190930192613273565b8515156133ef5761344f565b600093505b8884101561344b57613428866128bd8c888881518110151561341257fe5b602090810290910101519063ffffffff61242616565b858581518110151561343657fe5b602090810290910101526001909301926133f4565b8496505b5050505050509392505050565b600082151561346a5761349a565b6134748284610d1c565b9050613490858561348b868563ffffffff61272816565b6134a1565b61349a84826126a9565b5050505050565b60008115156134af576135e1565b600160a060020a03831615156134fb57604051600160a060020a0385169083156108fc029084906000818181858888f193505050501580156134f5573d6000803e3d6000fd5b50613595565b50604080517fa9059cbb000000000000000000000000000000000000000000000000000000008152600160a060020a038581166004830152602482018490529151849283169163a9059cbb9160448083019260209291908290030181600087803b15801561356857600080fd5b505af115801561357c573d6000803e3d6000fd5b505050506040513d602081101561359257600080fd5b50505b82600160a060020a031684600160a060020a03167f8aaaec2388cc390cde69685f78340e15f36d424b6b6b595f549dd883931f9c9b846040518082815260200191505060405180910390a35b50505050565b81548183558181111561159557600083815260209020611595918101908301610ab291905b80821115611b03576000815560010161360c56004f776e61626c653a2063616c6c6572206973206e6f7420746865206f776e6572a165627a7a723058202d27dc933b2dcb9c23d19a90de10117beaa3f094cdfbf9cee823b30ec16f221f0029",
  "source": "pragma solidity ^0.4.26;\r\nimport \"./modules/SafeMath.sol\";\r\nimport \"./modules/ReentrancyGuard.sol\";\r\nimport \"./SharedCoin.sol\";\r\nimport \"./modules/underlyingAssets.sol\";\r\nimport \"./modules/TransactionFee.sol\";\r\nimport \"./interfaces/IOptionsPool.sol\";\r\nimport \"./interfaces/ICompoundOracle.sol\";\r\ncontract CollateralPool is ReentrancyGuard,TransactionFee,SharedCoin,ImportOracle,ImportOptionsPool {\r\n    using SafeMath for uint256;\r\n    uint256 constant _calDecimal = 10000000000;\r\n    fraction public collateralRate = fraction(3, 1);\r\n    //token net worth\r\n    mapping (address => uint256) public netWorthBalances;\r\n    //address collaterel\r\n    mapping (address => uint256) public collateralBalances;\r\n//    mapping (address => uint256) public premiumBalances;\r\n\r\n\r\n\r\n\r\n//    uint256 public tokenNetWorth = 1e8;\r\n    //user paying for collateral usd;\r\n    mapping (address => uint256) public userCollateralPaying;\r\n    //account -> collateral -> amount\r\n    mapping (address => mapping (address => uint256)) public userInputCollateral;\r\n\r\n    event DebugEvent(uint256 indexed value1,uint256 indexed value2,uint256 indexed value3);\r\n\r\n    function setPhaseSharedPayment(uint256 index) public onlyOwner {\r\n        (uint256[] memory sharedBalances,uint256 blockNumber) = _optionsPool.calculatePhaseSharedPayment(index);\r\n        setSharedPayment(index,sharedBalances,blockNumber,now);\r\n    }\r\n    function setSharedPayment(uint256 index,uint256[] sharedBalances,uint256 lastBlock,uint256 calTime) public onlyOwner{\r\n        _optionsPool.setSharedState(index,lastBlock,calTime);\r\n        for (uint i=0;i<sharedBalances.length;i++){\r\n            address addr = whiteList[i];\r\n            netWorthBalances[addr] = netWorthBalances[addr].add(sharedBalances[i]);\r\n        }\r\n    }\r\n    function getTokenNetworth() public view returns (uint256){\r\n        if (_totalSupply == 0){\r\n            return 1e8;\r\n        }\r\n        return getTotalCollateral()/_totalSupply;\r\n    }\r\n    function addCollateral(address collateral,uint256 amount)public payable {\r\n        amount = getPayableAmount(collateral,amount);\r\n        require(amount>0 , \"settlement amount is zero!\");\r\n        uint256 fee = calculateFee(addColFee,amount);\r\n        _addTransactionFee(collateral,fee);\r\n        amount = amount.sub(fee);\r\n        uint256 price = _oracle.getPrice(collateral);\r\n        uint256 userPaying = price.mul(amount);\r\n        uint256 mintAmount = userPaying.div(getTokenNetworth());\r\n        userCollateralPaying[msg.sender] = userCollateralPaying[msg.sender].add(userPaying);\r\n        collateralBalances[collateral] = collateralBalances[collateral].add(amount);\r\n        userInputCollateral[msg.sender][collateral] = userInputCollateral[msg.sender][collateral].add(amount);\r\n        netWorthBalances[collateral] = netWorthBalances[collateral].add(amount);\r\n        _mint(msg.sender,mintAmount);\r\n    }\r\n    //calculate token\r\n    function redeemCollateral(uint256 tokenAmount,address collateral)public {\r\n        require(isEligibleAddress(collateral) , \"settlement is unsupported token\");\r\n        require(balances[msg.sender]>=tokenAmount,\"SCoin balance is insufficient!\");\r\n        if (tokenAmount == 0){\r\n            return;\r\n        }\r\n        uint256 totalOccupied = _optionsPool.getTotalOccupiedCollateral();\r\n        uint256 totalWorth = getTotalCollateral();\r\n        uint256 tokenNetWorth = totalWorth.div(_totalSupply);\r\n        uint256 redeemWorth = tokenAmount.mul(tokenNetWorth);\r\n        if (totalOccupied.add(redeemWorth)<=totalWorth) {\r\n            _redeemCollateral(tokenAmount,collateral,redeemWorth,tokenNetWorth);\r\n        }\r\n    }\r\n    function _redeemCollateral(uint256 tokenAmount,address collateral,uint256 redeemWorth,uint256 tokenNetWorth) internal {\r\n        uint256 redeemPaying = userCollateralPaying[msg.sender].mul(tokenAmount).div(balances[msg.sender]);\r\n        userCollateralPaying[msg.sender] = userCollateralPaying[msg.sender].sub(redeemPaying);\r\n        _burn(msg.sender, tokenAmount);\r\n        uint whiteLen = whiteList.length;\r\n        uint256[] memory paybackBal = new uint256[](whiteLen);\r\n        uint256 payBack;\r\n        (redeemWorth,payBack) = _calPayBackCollateral(redeemWorth,collateral,tokenNetWorth);\r\n        uint256 index = whiteListAddress._getEligibleIndexAddress(whiteList,collateral);\r\n        paybackBal[index] = payBack;\r\n        for (uint256 i=0;redeemWorth>0 && i<whiteLen;i++){\r\n            (redeemWorth,payBack) = _calPayBackCollateral(redeemWorth,whiteList[i],tokenNetWorth);  \r\n            paybackBal[i] += payBack;\r\n        } \r\n        if (redeemWorth > 0){\r\n            uint256[] memory premiumPayback = _calPremiumPayback(redeemWorth,whiteLen,tokenNetWorth);\r\n            for (i=0;i<whiteLen;i++){\r\n                paybackBal[i] = paybackBal[i].add(premiumPayback[i]);\r\n            } \r\n        }\r\n        for (i=0;i<whiteLen;i++){\r\n            _transferPaybackAndFee(msg.sender,whiteList[i],paybackBal[i],redeemColFee);\r\n        } \r\n    }\r\n    function _calPremiumPayback(uint256 worth,uint256 whiteLen,uint256 tokenNetWorth)internal view returns(uint256[] memory){\r\n        uint256 totalPrice = 0;\r\n        uint256[] memory PremiumBalances = new uint256[](whiteLen);\r\n        for (uint256 i=0; i<whiteLen;i++){\r\n            address addr = whiteList[i];\r\n            uint netAmount = tokenNetWorth.mul(collateralBalances[addr]);\r\n            if (netWorthBalances[addr] > netAmount){\r\n                PremiumBalances[i] = netWorthBalances[addr] - netAmount;\r\n                uint256 price = _oracle.getPrice(addr);\r\n                totalPrice.add(price.mul(PremiumBalances[i]));\r\n            }\r\n        } \r\n                \r\n        if (totalPrice == 0){\r\n            return;\r\n        }\r\n        for (i=0;i<whiteLen;i++){\r\n            PremiumBalances[i] = PremiumBalances[i].mul(worth).div(totalPrice);\r\n        } \r\n        return PremiumBalances;\r\n    }\r\n    function _calPayBackCollateral(uint256 worth,address collateral,uint256 tokenNetWorth)internal view returns (uint256,uint256){\r\n        uint256 amount = userInputCollateral[msg.sender][collateral];\r\n        if (amount == 0){\r\n            return (worth,0);\r\n        }\r\n        uint netAmount = tokenNetWorth.mul(amount);\r\n        amount = collateralBalances[collateral].mul(amount).div(netWorthBalances[collateral]);\r\n        if (netAmount<amount){\r\n            amount = netAmount;\r\n        }\r\n        if (amount == 0){\r\n            return (worth,0);\r\n        }\r\n        uint256 price = _oracle.getPrice(collateral);\r\n        uint256 redeemAmount = worth.div(price);\r\n        if (redeemAmount == 0){\r\n            return (0,0);\r\n        }\r\n        uint256 transferAmount = (redeemAmount>amount) ? amount : redeemAmount;\r\n        if (redeemAmount>amount){\r\n            return (worth.sub(transferAmount.mul(price)),transferAmount);\r\n        }\r\n        return (0,transferAmount);\r\n    }\r\n    function _payBackCollateral(uint256 worth,address collateral,uint256 feeType)internal returns (uint256){\r\n        uint256 amount = userInputCollateral[msg.sender][collateral];\r\n        if (amount == 0){\r\n            return worth;\r\n        }\r\n        amount = collateralBalances[collateral].mul(amount).div(netWorthBalances[collateral]);\r\n        if (amount == 0){\r\n            return worth;\r\n        }\r\n        uint256 price = _oracle.getPrice(collateral);\r\n        uint256 redeemAmount = worth.div(price);\r\n        if (redeemAmount == 0){\r\n            return 0;\r\n        }\r\n        uint256 transferAmount = (redeemAmount>amount) ? amount : redeemAmount;\r\n        userInputCollateral[msg.sender][collateral] = userInputCollateral[msg.sender][collateral].sub(transferAmount);\r\n        netWorthBalances[collateral] = netWorthBalances[collateral].sub(transferAmount);\r\n        collateralBalances[collateral] = collateralBalances[collateral].sub(transferAmount);\r\n        _transferPaybackAndFee(msg.sender,collateral,transferAmount,feeType);\r\n        if (redeemAmount>amount){\r\n            return worth.sub(transferAmount.mul(price));\r\n        }\r\n        return 0;        \r\n\r\n    }\r\n    function getOccupiedCollateral() public view returns(uint256){\r\n        uint256 totalOccupied = _optionsPool.getTotalOccupiedCollateral();\r\n        return calculateCollateral(totalOccupied);\r\n    }\r\n    function getLeftCollateral()public view returns(uint256){\r\n        return getTotalCollateral() - getOccupiedCollateral();\r\n    }\r\n    function getTotalCollateral()public view returns(uint256){\r\n        uint256 totalNum = 0;\r\n        uint whiteListLen = whiteList.length;\r\n        for (uint256 i=0;i<whiteListLen;i++){\r\n            address addr = whiteList[i];\r\n            uint256 price = _oracle.getPrice(addr);\r\n            totalNum = totalNum.add(price.mul(netWorthBalances[addr]));\r\n        }\r\n        return totalNum;  \r\n    }\r\n\r\n    function _paybackWorth(uint256 worth,uint256 feeType) internal {\r\n        uint256 totalPrice = 0;\r\n        uint whiteLen = whiteList.length;\r\n        uint256[] memory balances = new uint256[](whiteLen);\r\n        for (uint256 i=0;i<whiteLen;i++){\r\n            address addr = whiteList[i];\r\n            uint256 price = _oracle.getPrice(addr);\r\n            balances[i] = netWorthBalances[addr];\r\n            totalPrice.add(price.mul(balances[i]));\r\n        }\r\n        if (totalPrice == 0){\r\n            return;\r\n        }\r\n        for (i=0;i<whiteLen;i++){\r\n            uint256 _payBack = balances[i].mul(worth).div(totalPrice);\r\n            netWorthBalances[addr] = balances[i].sub(_payBack);\r\n            _transferPaybackAndFee(msg.sender,addr,_payBack,feeType);\r\n        } \r\n    }\r\n    function getPayableAmount(address settlement,uint256 settlementAmount) internal returns (uint256) {\r\n        require(isEligibleAddress(settlement) , \"settlement is unsupported token\");\r\n        uint256 colAmount = 0;\r\n        if (settlement == address(0)){\r\n            colAmount = msg.value;\r\n        }else if (settlementAmount > 0){\r\n            IERC20 oToken = IERC20(settlement);\r\n            oToken.transferFrom(msg.sender, address(this), settlementAmount);\r\n            colAmount = settlementAmount;\r\n        }\r\n        return colAmount;\r\n    }\r\n    function calculateCollateral(uint256 amount)internal view returns (uint256){\r\n        uint256 result = collateralRate.numerator.mul(amount);\r\n        return result.div(collateralRate.denominator);\r\n    }\r\n\r\n}",
  "sourcePath": "C:\\work\\solidity\\FinnexusOptions_V2\\contracts\\CollateralPool.sol",
  "compiler": {
    "name": "solc",
    "version": "0.4.26+commit.4563c3fc.Emscripten.clang"
  },
  "schemaVersion": "3.1.0",
  "updatedAt": "2020-07-20T14:10:02.070Z",
  "devdoc": {
    "methods": {
      "addWhiteList(address)": {
        "details": "Implementation of add an eligible address into the whitelist.\r",
        "params": {
          "addAddress": "new eligible address.\r"
        }
      },
      "allowance(address,address)": {
        "details": "See {IERC20-allowance}.\r"
      },
      "approve(address,uint256)": {
        "details": "See {IERC20-approve}.\r      * Requirements:\r      * - `spender` cannot be the zero address.\r"
      },
      "balanceOf(address)": {
        "details": "See {IERC20-balanceOf}.\r"
      },
      "decreaseAllowance(address,uint256)": {
        "details": "Atomically decreases the allowance granted to `spender` by the caller.\r      * This is an alternative to {approve} that can be used as a mitigation for\r problems described in {IERC20-approve}.\r      * Emits an {Approval} event indicating the updated allowance.\r      * Requirements:\r      * - `spender` cannot be the zero address.\r - `spender` must have allowance for the caller of at least\r `subtractedValue`.\r"
      },
      "getWhiteList()": {
        "details": "Implementation of getting the eligible whitelist.\r"
      },
      "increaseAllowance(address,uint256)": {
        "details": "Atomically increases the allowance granted to `spender` by the caller.\r      * This is an alternative to {approve} that can be used as a mitigation for\r problems described in {IERC20-approve}.\r      * Emits an {Approval} event indicating the updated allowance.\r      * Requirements:\r      * - `spender` cannot be the zero address.\r"
      },
      "isEligibleAddress(address)": {
        "details": "Implementation of testing whether the input address is eligible.\r",
        "params": {
          "tmpAddress": "input address for testing.\r"
        }
      },
      "isOwner()": {
        "details": "Returns true if the caller is the current owner."
      },
      "owner()": {
        "details": "Returns the address of the current owner."
      },
      "removeWhiteList(address)": {
        "details": "Implementation of revoke an invalid address from the whitelist.\r",
        "params": {
          "removeAddress": "revoked address.\r"
        }
      },
      "renounceOwnership()": {
        "details": "Leaves the contract without owner. It will not be possible to call `onlyOwner` functions anymore. Can only be called by the current owner.     * NOTE: Renouncing ownership will leave the contract without an owner, thereby removing any functionality that is only available to the owner."
      },
      "setTransactionFee(uint256,uint256,uint256)": {
        "details": "set the rate of trasaction fee.\r",
        "params": {
          "denominator": "thedenominator of transaction fee.\r transaction fee = numerator/denominator;\r",
          "feeType": "the transaction fee type\r",
          "numerator": "the numerator of transaction fee .\r"
        }
      },
      "totalSupply()": {
        "details": "See {IERC20-totalSupply}.\r"
      },
      "transfer(address,uint256)": {
        "details": "See {IERC20-transfer}.\r      * Requirements:\r      * - `recipient` cannot be the zero address.\r - the caller must have a balance of at least `amount`.\r"
      },
      "transferFrom(address,address,uint256)": {
        "details": "See {IERC20-transferFrom}.\r      * Emits an {Approval} event indicating the updated allowance. This is not\r required by the EIP. See the note at the beginning of {ERC20};\r      * Requirements:\r - `sender` and `recipient` cannot be the zero address.\r - `sender` must have a balance of at least `amount`.\r - the caller must have allowance for `sender`'s tokens of at least\r `amount`.\r"
      },
      "transferOwnership(address)": {
        "details": "Transfers ownership of the contract to a new account (`newOwner`). Can only be called by the current owner."
      }
    }
  },
  "userdoc": {
    "methods": {
      "setHalt(bool)": {
        "notice": "function Emergency situation that requires contribution period to stop or not."
      }
    }
  }
}