{
  "contractName": "CollateralPool",
  "abi": [
    {
      "anonymous": false,
      "inputs": [
        {
          "indexed": true,
          "internalType": "address",
          "name": "settlement",
          "type": "address"
        },
        {
          "indexed": false,
          "internalType": "uint256",
          "name": "payback",
          "type": "uint256"
        }
      ],
      "name": "AddFee",
      "type": "event"
    },
    {
      "anonymous": false,
      "inputs": [
        {
          "indexed": true,
          "internalType": "address",
          "name": "previousOwner",
          "type": "address"
        },
        {
          "indexed": true,
          "internalType": "address",
          "name": "newOwner",
          "type": "address"
        }
      ],
      "name": "OwnershipTransferred",
      "type": "event"
    },
    {
      "anonymous": false,
      "inputs": [
        {
          "indexed": true,
          "internalType": "address",
          "name": "recieptor",
          "type": "address"
        },
        {
          "indexed": true,
          "internalType": "address",
          "name": "settlement",
          "type": "address"
        },
        {
          "indexed": false,
          "internalType": "uint256",
          "name": "payback",
          "type": "uint256"
        }
      ],
      "name": "RedeemFee",
      "type": "event"
    },
    {
      "anonymous": false,
      "inputs": [
        {
          "indexed": true,
          "internalType": "address",
          "name": "recieptor",
          "type": "address"
        },
        {
          "indexed": true,
          "internalType": "address",
          "name": "settlement",
          "type": "address"
        },
        {
          "indexed": false,
          "internalType": "uint256",
          "name": "payback",
          "type": "uint256"
        }
      ],
      "name": "TransferPayback",
      "type": "event"
    },
    {
      "payable": true,
      "stateMutability": "payable",
      "type": "fallback"
    },
    {
      "constant": false,
      "inputs": [
        {
          "internalType": "address",
          "name": "addAddress",
          "type": "address"
        }
      ],
      "name": "addWhiteList",
      "outputs": [],
      "payable": false,
      "stateMutability": "nonpayable",
      "type": "function"
    },
    {
      "constant": true,
      "inputs": [
        {
          "internalType": "uint256",
          "name": "feeType",
          "type": "uint256"
        },
        {
          "internalType": "uint256",
          "name": "amount",
          "type": "uint256"
        }
      ],
      "name": "calculateFee",
      "outputs": [
        {
          "internalType": "uint256",
          "name": "",
          "type": "uint256"
        }
      ],
      "payable": false,
      "stateMutability": "view",
      "type": "function"
    },
    {
      "constant": true,
      "inputs": [
        {
          "internalType": "address",
          "name": "tmpAddress",
          "type": "address"
        }
      ],
      "name": "checkAddressPayIn",
      "outputs": [
        {
          "internalType": "bool",
          "name": "",
          "type": "bool"
        }
      ],
      "payable": false,
      "stateMutability": "view",
      "type": "function"
    },
    {
      "constant": true,
      "inputs": [
        {
          "internalType": "address",
          "name": "tmpAddress",
          "type": "address"
        }
      ],
      "name": "checkAddressRedeemOut",
      "outputs": [
        {
          "internalType": "bool",
          "name": "",
          "type": "bool"
        }
      ],
      "payable": false,
      "stateMutability": "view",
      "type": "function"
    },
    {
      "constant": true,
      "inputs": [],
      "name": "getAllFeeBalances",
      "outputs": [
        {
          "internalType": "address[]",
          "name": "",
          "type": "address[]"
        },
        {
          "internalType": "uint256[]",
          "name": "",
          "type": "uint256[]"
        }
      ],
      "payable": false,
      "stateMutability": "view",
      "type": "function"
    },
    {
      "constant": true,
      "inputs": [
        {
          "internalType": "address",
          "name": "settlement",
          "type": "address"
        }
      ],
      "name": "getFeeBalance",
      "outputs": [
        {
          "internalType": "uint256",
          "name": "",
          "type": "uint256"
        }
      ],
      "payable": false,
      "stateMutability": "view",
      "type": "function"
    },
    {
      "constant": true,
      "inputs": [
        {
          "internalType": "uint256",
          "name": "feeType",
          "type": "uint256"
        }
      ],
      "name": "getFeeRate",
      "outputs": [
        {
          "internalType": "uint256",
          "name": "",
          "type": "uint256"
        },
        {
          "internalType": "uint256",
          "name": "",
          "type": "uint256"
        }
      ],
      "payable": false,
      "stateMutability": "view",
      "type": "function"
    },
    {
      "constant": true,
      "inputs": [],
      "name": "getManager",
      "outputs": [
        {
          "internalType": "address",
          "name": "",
          "type": "address"
        }
      ],
      "payable": false,
      "stateMutability": "view",
      "type": "function"
    },
    {
      "constant": true,
      "inputs": [],
      "name": "getWhiteList",
      "outputs": [
        {
          "internalType": "address[]",
          "name": "",
          "type": "address[]"
        }
      ],
      "payable": false,
      "stateMutability": "view",
      "type": "function"
    },
    {
      "constant": true,
      "inputs": [
        {
          "internalType": "address",
          "name": "tmpAddress",
          "type": "address"
        }
      ],
      "name": "isEligibleAddress",
      "outputs": [
        {
          "internalType": "bool",
          "name": "",
          "type": "bool"
        }
      ],
      "payable": false,
      "stateMutability": "view",
      "type": "function"
    },
    {
      "constant": true,
      "inputs": [],
      "name": "isOwner",
      "outputs": [
        {
          "internalType": "bool",
          "name": "",
          "type": "bool"
        }
      ],
      "payable": false,
      "stateMutability": "view",
      "type": "function"
    },
    {
      "constant": false,
      "inputs": [
        {
          "internalType": "address",
          "name": "addAddress",
          "type": "address"
        },
        {
          "internalType": "uint256",
          "name": "permission",
          "type": "uint256"
        }
      ],
      "name": "modifyPermission",
      "outputs": [],
      "payable": false,
      "stateMutability": "nonpayable",
      "type": "function"
    },
    {
      "constant": true,
      "inputs": [],
      "name": "owner",
      "outputs": [
        {
          "internalType": "address",
          "name": "",
          "type": "address"
        }
      ],
      "payable": false,
      "stateMutability": "view",
      "type": "function"
    },
    {
      "constant": false,
      "inputs": [
        {
          "internalType": "address",
          "name": "currency",
          "type": "address"
        }
      ],
      "name": "redeem",
      "outputs": [],
      "payable": false,
      "stateMutability": "nonpayable",
      "type": "function"
    },
    {
      "constant": false,
      "inputs": [],
      "name": "redeemAll",
      "outputs": [],
      "payable": false,
      "stateMutability": "nonpayable",
      "type": "function"
    },
    {
      "constant": false,
      "inputs": [
        {
          "internalType": "address",
          "name": "removeAddress",
          "type": "address"
        }
      ],
      "name": "removeWhiteList",
      "outputs": [
        {
          "internalType": "bool",
          "name": "",
          "type": "bool"
        }
      ],
      "payable": false,
      "stateMutability": "nonpayable",
      "type": "function"
    },
    {
      "constant": false,
      "inputs": [],
      "name": "renounceOwnership",
      "outputs": [],
      "payable": false,
      "stateMutability": "nonpayable",
      "type": "function"
    },
    {
      "constant": false,
      "inputs": [
        {
          "internalType": "bool",
          "name": "halt",
          "type": "bool"
        }
      ],
      "name": "setHalt",
      "outputs": [],
      "payable": false,
      "stateMutability": "nonpayable",
      "type": "function"
    },
    {
      "constant": false,
      "inputs": [
        {
          "internalType": "address",
          "name": "managerAddress",
          "type": "address"
        }
      ],
      "name": "setManager",
      "outputs": [],
      "payable": false,
      "stateMutability": "nonpayable",
      "type": "function"
    },
    {
      "constant": false,
      "inputs": [
        {
          "internalType": "uint256",
          "name": "feeType",
          "type": "uint256"
        },
        {
          "internalType": "uint256",
          "name": "numerator",
          "type": "uint256"
        },
        {
          "internalType": "uint256",
          "name": "denominator",
          "type": "uint256"
        }
      ],
      "name": "setTransactionFee",
      "outputs": [],
      "payable": false,
      "stateMutability": "nonpayable",
      "type": "function"
    },
    {
      "constant": false,
      "inputs": [
        {
          "internalType": "address",
          "name": "newOwner",
          "type": "address"
        }
      ],
      "name": "transferOwnership",
      "outputs": [],
      "payable": false,
      "stateMutability": "nonpayable",
      "type": "function"
    },
    {
      "constant": false,
      "inputs": [],
      "name": "initialize",
      "outputs": [],
      "payable": false,
      "stateMutability": "nonpayable",
      "type": "function"
    },
    {
      "constant": false,
      "inputs": [
        {
          "internalType": "address",
          "name": "collateral",
          "type": "address"
        },
        {
          "internalType": "uint256",
          "name": "amount",
          "type": "uint256"
        },
        {
          "internalType": "uint256",
          "name": "feeType",
          "type": "uint256"
        }
      ],
      "name": "addTransactionFee",
      "outputs": [
        {
          "internalType": "uint256",
          "name": "",
          "type": "uint256"
        }
      ],
      "payable": false,
      "stateMutability": "nonpayable",
      "type": "function"
    },
    {
      "constant": true,
      "inputs": [
        {
          "internalType": "address",
          "name": "user",
          "type": "address"
        }
      ],
      "name": "getUserPayingUsd",
      "outputs": [
        {
          "internalType": "uint256",
          "name": "",
          "type": "uint256"
        }
      ],
      "payable": false,
      "stateMutability": "view",
      "type": "function"
    },
    {
      "constant": true,
      "inputs": [
        {
          "internalType": "address",
          "name": "user",
          "type": "address"
        },
        {
          "internalType": "address",
          "name": "collateral",
          "type": "address"
        }
      ],
      "name": "getUserInputCollateral",
      "outputs": [
        {
          "internalType": "uint256",
          "name": "",
          "type": "uint256"
        }
      ],
      "payable": false,
      "stateMutability": "view",
      "type": "function"
    },
    {
      "constant": true,
      "inputs": [
        {
          "internalType": "address",
          "name": "collateral",
          "type": "address"
        }
      ],
      "name": "getNetWorthBalance",
      "outputs": [
        {
          "internalType": "int256",
          "name": "",
          "type": "int256"
        }
      ],
      "payable": false,
      "stateMutability": "view",
      "type": "function"
    },
    {
      "constant": true,
      "inputs": [
        {
          "internalType": "address",
          "name": "collateral",
          "type": "address"
        }
      ],
      "name": "getCollateralBalance",
      "outputs": [
        {
          "internalType": "uint256",
          "name": "",
          "type": "uint256"
        }
      ],
      "payable": false,
      "stateMutability": "view",
      "type": "function"
    },
    {
      "constant": false,
      "inputs": [
        {
          "internalType": "address",
          "name": "user",
          "type": "address"
        },
        {
          "internalType": "uint256",
          "name": "amount",
          "type": "uint256"
        }
      ],
      "name": "addUserPayingUsd",
      "outputs": [],
      "payable": false,
      "stateMutability": "nonpayable",
      "type": "function"
    },
    {
      "constant": false,
      "inputs": [
        {
          "internalType": "address",
          "name": "user",
          "type": "address"
        },
        {
          "internalType": "address",
          "name": "collateral",
          "type": "address"
        },
        {
          "internalType": "uint256",
          "name": "amount",
          "type": "uint256"
        }
      ],
      "name": "addUserInputCollateral",
      "outputs": [],
      "payable": false,
      "stateMutability": "nonpayable",
      "type": "function"
    },
    {
      "constant": false,
      "inputs": [
        {
          "internalType": "address[]",
          "name": "whiteList",
          "type": "address[]"
        },
        {
          "internalType": "int256[]",
          "name": "newNetworth",
          "type": "int256[]"
        }
      ],
      "name": "addNetWorthBalances",
      "outputs": [],
      "payable": false,
      "stateMutability": "nonpayable",
      "type": "function"
    },
    {
      "constant": false,
      "inputs": [
        {
          "internalType": "address",
          "name": "collateral",
          "type": "address"
        },
        {
          "internalType": "int256",
          "name": "amount",
          "type": "int256"
        }
      ],
      "name": "addNetWorthBalance",
      "outputs": [],
      "payable": false,
      "stateMutability": "nonpayable",
      "type": "function"
    },
    {
      "constant": false,
      "inputs": [
        {
          "internalType": "address",
          "name": "collateral",
          "type": "address"
        },
        {
          "internalType": "uint256",
          "name": "amount",
          "type": "uint256"
        }
      ],
      "name": "addCollateralBalance",
      "outputs": [],
      "payable": false,
      "stateMutability": "nonpayable",
      "type": "function"
    },
    {
      "constant": false,
      "inputs": [
        {
          "internalType": "address",
          "name": "user",
          "type": "address"
        },
        {
          "internalType": "uint256",
          "name": "amount",
          "type": "uint256"
        }
      ],
      "name": "subUserPayingUsd",
      "outputs": [],
      "payable": false,
      "stateMutability": "nonpayable",
      "type": "function"
    },
    {
      "constant": false,
      "inputs": [
        {
          "internalType": "address",
          "name": "user",
          "type": "address"
        },
        {
          "internalType": "address",
          "name": "collateral",
          "type": "address"
        },
        {
          "internalType": "uint256",
          "name": "amount",
          "type": "uint256"
        }
      ],
      "name": "subUserInputCollateral",
      "outputs": [],
      "payable": false,
      "stateMutability": "nonpayable",
      "type": "function"
    },
    {
      "constant": false,
      "inputs": [
        {
          "internalType": "address",
          "name": "collateral",
          "type": "address"
        },
        {
          "internalType": "int256",
          "name": "amount",
          "type": "int256"
        }
      ],
      "name": "subNetWorthBalance",
      "outputs": [],
      "payable": false,
      "stateMutability": "nonpayable",
      "type": "function"
    },
    {
      "constant": false,
      "inputs": [
        {
          "internalType": "address",
          "name": "collateral",
          "type": "address"
        },
        {
          "internalType": "uint256",
          "name": "amount",
          "type": "uint256"
        }
      ],
      "name": "subCollateralBalance",
      "outputs": [],
      "payable": false,
      "stateMutability": "nonpayable",
      "type": "function"
    },
    {
      "constant": false,
      "inputs": [
        {
          "internalType": "address",
          "name": "user",
          "type": "address"
        },
        {
          "internalType": "uint256",
          "name": "amount",
          "type": "uint256"
        }
      ],
      "name": "setUserPayingUsd",
      "outputs": [],
      "payable": false,
      "stateMutability": "nonpayable",
      "type": "function"
    },
    {
      "constant": false,
      "inputs": [
        {
          "internalType": "address",
          "name": "user",
          "type": "address"
        },
        {
          "internalType": "address",
          "name": "collateral",
          "type": "address"
        },
        {
          "internalType": "uint256",
          "name": "amount",
          "type": "uint256"
        }
      ],
      "name": "setUserInputCollateral",
      "outputs": [],
      "payable": false,
      "stateMutability": "nonpayable",
      "type": "function"
    },
    {
      "constant": false,
      "inputs": [
        {
          "internalType": "address",
          "name": "collateral",
          "type": "address"
        },
        {
          "internalType": "int256",
          "name": "amount",
          "type": "int256"
        }
      ],
      "name": "setNetWorthBalance",
      "outputs": [],
      "payable": false,
      "stateMutability": "nonpayable",
      "type": "function"
    },
    {
      "constant": false,
      "inputs": [
        {
          "internalType": "address",
          "name": "collateral",
          "type": "address"
        },
        {
          "internalType": "uint256",
          "name": "amount",
          "type": "uint256"
        }
      ],
      "name": "setCollateralBalance",
      "outputs": [],
      "payable": false,
      "stateMutability": "nonpayable",
      "type": "function"
    },
    {
      "constant": false,
      "inputs": [
        {
          "internalType": "address payable",
          "name": "recieptor",
          "type": "address"
        },
        {
          "internalType": "address",
          "name": "settlement",
          "type": "address"
        },
        {
          "internalType": "uint256",
          "name": "payback",
          "type": "uint256"
        },
        {
          "internalType": "uint256",
          "name": "feeType",
          "type": "uint256"
        }
      ],
      "name": "transferPaybackAndFee",
      "outputs": [],
      "payable": false,
      "stateMutability": "nonpayable",
      "type": "function"
    },
    {
      "constant": false,
      "inputs": [
        {
          "internalType": "address payable",
          "name": "recieptor",
          "type": "address"
        },
        {
          "internalType": "address",
          "name": "settlement",
          "type": "address"
        },
        {
          "internalType": "uint256",
          "name": "payback",
          "type": "uint256"
        }
      ],
      "name": "transferPayback",
      "outputs": [],
      "payable": false,
      "stateMutability": "nonpayable",
      "type": "function"
    },
    {
      "constant": false,
      "inputs": [
        {
          "internalType": "address payable",
          "name": "account",
          "type": "address"
        },
        {
          "internalType": "uint256",
          "name": "redeemWorth",
          "type": "uint256"
        },
        {
          "internalType": "address[]",
          "name": "tmpWhiteList",
          "type": "address[]"
        },
        {
          "internalType": "uint256[]",
          "name": "colBalances",
          "type": "uint256[]"
        },
        {
          "internalType": "uint256[]",
          "name": "PremiumBalances",
          "type": "uint256[]"
        },
        {
          "internalType": "uint256[]",
          "name": "prices",
          "type": "uint256[]"
        }
      ],
      "name": "transferPaybackBalances",
      "outputs": [],
      "payable": false,
      "stateMutability": "nonpayable",
      "type": "function"
    },
    {
      "constant": true,
      "inputs": [
        {
          "internalType": "address",
          "name": "account",
          "type": "address"
        },
        {
          "internalType": "uint256",
          "name": "userTotalWorth",
          "type": "uint256"
        },
        {
          "internalType": "address[]",
          "name": "tmpWhiteList",
          "type": "address[]"
        },
        {
          "internalType": "uint256[]",
          "name": "_RealBalances",
          "type": "uint256[]"
        },
        {
          "internalType": "uint256[]",
          "name": "prices",
          "type": "uint256[]"
        }
      ],
      "name": "getCollateralAndPremiumBalances",
      "outputs": [
        {
          "internalType": "uint256[]",
          "name": "",
          "type": "uint256[]"
        },
        {
          "internalType": "uint256[]",
          "name": "",
          "type": "uint256[]"
        }
      ],
      "payable": false,
      "stateMutability": "view",
      "type": "function"
    }
  ],
  "bytecode": "0x60806040526000805460a060020a60ff021916905561002564010000000061002a810204565b61002c565b565b6134bc806200003c6000396000f3fe608060405260043610610284576000357c010000000000000000000000000000000000000000000000000000000090048063817bf86d11610161578063c78f6803116100d3578063e7cd4a0411610097578063e7cd4a0414611020578063f20568cd14611053578063f2706e9b14611068578063f2fde38b146110a1578063f4954387146110d4578063fee80a491461110057610284565b8063c78f680314610f1f578063d0ebdbe714610f52578063d2aaef4e14610f85578063d500958414610fc8578063d56dbe8814610fdd57610284565b8063a2fa92c711610125578063a2fa92c714610baa578063b8446de114610dfb578063bdac4bf614610e3e578063bf36b11014610e71578063c219043b14610ea7578063c3c579cc14610ee057610284565b8063817bf86d14610abb5780638da5cb5b14610aee5780638f32d59b14610b1f57806395a2251f14610b345780639994eb1414610b6757610284565b80635af107c5116101fa5780636b6ecea8116101be5780636b6ecea8146107845780636ba170b5146107b7578063715018a6146107f25780637a3e51d8146108075780637a6a0277146108405780638129fc1c14610aa657610284565b80635af107c51461065d5780635ed74bfd14610696578063632ba2b5146106d95780636560a9e714610712578063692a76a71461074b57610284565b80632454047c1161024c5780632454047c1461051e5780632703ee85146105675780632b2d50c3146105ac5780632f4350c2146105e557806334e73122146105fa57806342049a721461062a57610284565b8063059621d7146102d257806309a9d76c146103195780631f88286a1461037e5780632042e5c2146104b257806322f0975f146104e5575b600354600160a060020a031633146102d05760405160e560020a62461bcd0281526004018080602001828103825260268152602001806133da6026913960400191505060405180910390fd5b005b3480156102de57600080fd5b50610305600480360360208110156102f557600080fd5b5035600160a060020a0316611139565b604080519115158252519081900360200190f35b34801561032557600080fd5b5061032e611171565b60408051602080825283518183015283519192839290830191858101910280838360005b8381101561036a578181015183820152602001610352565b505050509050019250505060405180910390f35b34801561038a57600080fd5b506102d0600480360360408110156103a157600080fd5b8101906020810181356401000000008111156103bc57600080fd5b8201836020820111156103ce57600080fd5b803590602001918460208302840111640100000000831117156103f057600080fd5b919080806020026020016040519081016040528093929190818152602001838360200280828437600092019190915250929594936020810193503591505064010000000081111561044057600080fd5b82018360208201111561045257600080fd5b8035906020019184602083028401116401000000008311171561047457600080fd5b9190808060200260200160405190810160405280939291908181526020018383602002808284376000920191909152509295506111d4945050505050565b3480156104be57600080fd5b50610305600480360360208110156104d557600080fd5b5035600160a060020a03166112cb565b3480156104f157600080fd5b506102d06004803603604081101561050857600080fd5b50600160a060020a038135169060200135611328565b34801561052a57600080fd5b506102d06004803603608081101561054157600080fd5b50600160a060020a03813581169160208101359091169060408101359060600135611390565b34801561057357600080fd5b5061059a6004803603602081101561058a57600080fd5b5035600160a060020a031661140d565b60408051918252519081900360200190f35b3480156105b857600080fd5b506102d0600480360360408110156105cf57600080fd5b50600160a060020a038135169060200135611428565b3480156105f157600080fd5b506102d06114bd565b34801561060657600080fd5b5061059a6004803603604081101561061d57600080fd5b5080359060200135611549565b34801561063657600080fd5b5061059a6004803603602081101561064d57600080fd5b5035600160a060020a0316611586565b34801561066957600080fd5b506102d06004803603604081101561068057600080fd5b50600160a060020a0381351690602001356115a1565b3480156106a257600080fd5b506102d0600480360360608110156106b957600080fd5b50600160a060020a03813581169160208101359091169060400135611609565b3480156106e557600080fd5b506102d0600480360360408110156106fc57600080fd5b50600160a060020a038135169060200135611681565b34801561071e57600080fd5b506102d06004803603604081101561073557600080fd5b50600160a060020a0381351690602001356116e9565b34801561075757600080fd5b506102d06004803603604081101561076e57600080fd5b50600160a060020a03813516906020013561177e565b34801561079057600080fd5b5061059a600480360360208110156107a757600080fd5b5035600160a060020a03166117f3565b3480156107c357600080fd5b5061059a600480360360408110156107da57600080fd5b50600160a060020a038135811691602001351661180e565b3480156107fe57600080fd5b506102d0611839565b34801561081357600080fd5b506102d06004803603604081101561082a57600080fd5b50600160a060020a0381351690602001356118da565b34801561084c57600080fd5b50610a0d600480360360a081101561086357600080fd5b600160a060020a038235169160208101359181019060608101604082013564010000000081111561089357600080fd5b8201836020820111156108a557600080fd5b803590602001918460208302840111640100000000831117156108c757600080fd5b919080806020026020016040519081016040528093929190818152602001838360200280828437600092019190915250929594936020810193503591505064010000000081111561091757600080fd5b82018360208201111561092957600080fd5b8035906020019184602083028401116401000000008311171561094b57600080fd5b919080806020026020016040519081016040528093929190818152602001838360200280828437600092019190915250929594936020810193503591505064010000000081111561099b57600080fd5b8201836020820111156109ad57600080fd5b803590602001918460208302840111640100000000831117156109cf57600080fd5b91908080602002602001604051908101604052809392919081815260200183836020028082843760009201919091525092955061194f945050505050565b604051808060200180602001838103835285818151815260200191508051906020019060200280838360005b83811015610a51578181015183820152602001610a39565b50505050905001838103825284818151815260200191508051906020019060200280838360005b83811015610a90578181015183820152602001610a78565b5050505090500194505050505060405180910390f35b348015610ab257600080fd5b506102d0611b6c565b348015610ac757600080fd5b5061030560048036036020811015610ade57600080fd5b5035600160a060020a0316611b6e565b348015610afa57600080fd5b50610b03611bdd565b60408051600160a060020a039092168252519081900360200190f35b348015610b2b57600080fd5b50610305611bec565b348015610b4057600080fd5b506102d060048036036020811015610b5757600080fd5b5035600160a060020a0316611bfd565b348015610b7357600080fd5b506102d060048036036060811015610b8a57600080fd5b50600160a060020a03813581169160208101359091169060400135611f33565b348015610bb657600080fd5b506102d0600480360360c0811015610bcd57600080fd5b600160a060020a0382351691602081013591810190606081016040820135640100000000811115610bfd57600080fd5b820183602082011115610c0f57600080fd5b80359060200191846020830284011164010000000083111715610c3157600080fd5b9190808060200260200160405190810160405280939291908181526020018383602002808284376000920191909152509295949360208101935035915050640100000000811115610c8157600080fd5b820183602082011115610c9357600080fd5b80359060200191846020830284011164010000000083111715610cb557600080fd5b9190808060200260200160405190810160405280939291908181526020018383602002808284376000920191909152509295949360208101935035915050640100000000811115610d0557600080fd5b820183602082011115610d1757600080fd5b80359060200191846020830284011164010000000083111715610d3957600080fd5b9190808060200260200160405190810160405280939291908181526020018383602002808284376000920191909152509295949360208101935035915050640100000000811115610d8957600080fd5b820183602082011115610d9b57600080fd5b80359060200191846020830284011164010000000083111715610dbd57600080fd5b919080806020026020016040519081016040528093929190818152602001838360200280828437600092019190915250929550611f8a945050505050565b348015610e0757600080fd5b506102d060048036036060811015610e1e57600080fd5b50600160a060020a0381358116916020810135909116906040013561236a565b348015610e4a57600080fd5b5061030560048036036020811015610e6157600080fd5b5035600160a060020a031661241d565b348015610e7d57600080fd5b506102d060048036036060811015610e9457600080fd5b5080359060208101359060400135612451565b348015610eb357600080fd5b506102d060048036036040811015610eca57600080fd5b50600160a060020a0381351690602001356124b3565b348015610eec57600080fd5b5061059a60048036036060811015610f0357600080fd5b50600160a060020a038135169060208101359060400135612519565b348015610f2b57600080fd5b5061059a60048036036020811015610f4257600080fd5b5035600160a060020a031661258a565b348015610f5e57600080fd5b506102d060048036036020811015610f7557600080fd5b5035600160a060020a03166125a5565b348015610f9157600080fd5b50610faf60048036036020811015610fa857600080fd5b503561261e565b6040805192835260208301919091528051918290030190f35b348015610fd457600080fd5b50610b0361263f565b348015610fe957600080fd5b506102d06004803603606081101561100057600080fd5b50600160a060020a0381358116916020810135909116906040013561264e565b34801561102c57600080fd5b506102d06004803603602081101561104357600080fd5b5035600160a060020a03166126d0565b34801561105f57600080fd5b50610a0d61274b565b34801561107457600080fd5b506102d06004803603604081101561108b57600080fd5b50600160a060020a03813516906020013561284f565b3480156110ad57600080fd5b506102d0600480360360208110156110c457600080fd5b5035600160a060020a03166128e4565b3480156110e057600080fd5b506102d0600480360360208110156110f757600080fd5b50351515612937565b34801561110c57600080fd5b506102d06004803603604081101561112357600080fd5b50600160a060020a0381351690602001356129c1565b600061114482611b6e565b801561116b5750600160a060020a0382166000908152600260208190526040909120548116145b92915050565b606060018054806020026020016040519081016040528092919081815260200182805480156111c957602002820191906000526020600020905b8154600160a060020a031681526001909101906020018083116111ab575b505050505090505b90565b600354600160a060020a031633146112205760405160e560020a62461bcd0281526004018080602001828103825260268152602001806133da6026913960400191505060405180910390fd5b60005b81518110156112c65761128a82828151811061123b57fe5b60200260200101516006600086858151811061125357fe5b6020026020010151600160a060020a0316600160a060020a0316815260200190815260200160002054612a3690919063ffffffff16565b6006600085848151811061129a57fe5b602090810291909101810151600160a060020a0316825281019190915260400160002055600101611223565b505050565b60006112d5611bec565b611317576040805160e560020a62461bcd0281526020600482018190526024820152600080516020613468833981519152604482015290519081900360640190fd5b61116b60018363ffffffff612a7816565b600354600160a060020a031633146113745760405160e560020a62461bcd0281526004018080602001828103825260268152602001806133da6026913960400191505060405180910390fd5b600160a060020a03909116600090815260066020526040902055565b600354600160a060020a031633146113dc5760405160e560020a62461bcd0281526004018080602001828103825260268152602001806133da6026913960400191505060405180910390fd5b6113e884848484612b66565b50600160a060020a039091166000908152600660205260409020805491909103905550565b600160a060020a031660009081526007602052604090205490565b600354600160a060020a031633146114745760405160e560020a62461bcd0281526004018080602001828103825260268152602001806133da6026913960400191505060405180910390fd5b600160a060020a03821660009081526007602052604090205461149d908263ffffffff612b9d16565b600160a060020a0390921660009081526007602052604090209190915550565b6114c5611bec565b611507576040805160e560020a62461bcd0281526020600482018190526024820152600080516020613468833981519152604482015290519081900360640190fd5b60005b6001548110156115465761153e6001828154811061152457fe5b600091825260209091200154600160a060020a0316611bfd565b60010161150a565b50565b60008061155584612bf8565b805490915060009061156d908563ffffffff612c7616565b90508160010154818161157c57fe5b0495945050505050565b600160a060020a031660009081526008602052604090205490565b600354600160a060020a031633146115ed5760405160e560020a62461bcd0281526004018080602001828103825260268152602001806133da6026913960400191505060405180910390fd5b600160a060020a03909116600090815260086020526040902055565b600354600160a060020a031633146116555760405160e560020a62461bcd0281526004018080602001828103825260268152602001806133da6026913960400191505060405180910390fd5b600160a060020a0392831660009081526009602090815260408083209490951682529290925291902055565b600354600160a060020a031633146116cd5760405160e560020a62461bcd0281526004018080602001828103825260268152602001806133da6026913960400191505060405180910390fd5b600160a060020a03909116600090815260076020526040902055565b600354600160a060020a031633146117355760405160e560020a62461bcd0281526004018080602001828103825260268152602001806133da6026913960400191505060405180910390fd5b600160a060020a03821660009081526008602052604090205461175e908263ffffffff612ccf16565b600160a060020a0390921660009081526008602052604090209190915550565b600354600160a060020a031633146117ca5760405160e560020a62461bcd0281526004018080602001828103825260268152602001806133da6026913960400191505060405180910390fd5b600160a060020a03821660009081526008602052604090205461175e908263ffffffff612b9d16565b600160a060020a031660009081526006602052604090205490565b600160a060020a03918216600090815260096020908152604080832093909416825291909152205490565b611841611bec565b611883576040805160e560020a62461bcd0281526020600482018190526024820152600080516020613468833981519152604482015290519081900360640190fd5b60008054604051600160a060020a03909116907f8be0079c531659141344cd1fd0a4f28419497f9722a3daafe3b4186f6b6457e0908390a36000805473ffffffffffffffffffffffffffffffffffffffff19169055565b600354600160a060020a031633146119265760405160e560020a62461bcd0281526004018080602001828103825260268152602001806133da6026913960400191505060405180910390fd5b600160a060020a03821660009081526007602052604090205461149d908263ffffffff612ccf16565b6060806060855160405190808252806020026020018201604052801561197f578160200160208202803883390190505b509050606086516040519080825280602002602001820160405280156119af578160200160208202803883390190505b509050600080805b8951811015611aa3576119f18a82815181106119cf57fe5b60200260200101518d8b84815181106119e457fe5b6020026020010151612d2a565b8683815181106119fd57fe5b60200260200101868481518110611a1057fe5b6020026020010182815250828152505050611a5c858281518110611a3057fe5b6020026020010151898381518110611a4457fe5b60200260200101510284612b9d90919063ffffffff16565b9250611a99848281518110611a6d57fe5b6020026020010151898381518110611a8157fe5b60200260200101510283612b9d90919063ffffffff16565b91506001016119b7565b8a8310611b0a575060005b8951811015611b055782611ade8c878481518110611ac857fe5b6020026020010151612c7690919063ffffffff16565b81611ae557fe5b04858281518110611af257fe5b6020908102919091010152600101611aae565b611b5a565b8115611b5a5750988190039860005b8951811015611b5a5781611b338c868481518110611ac857fe5b81611b3a57fe5b04848281518110611b4757fe5b6020908102919091010152600101611b19565b50929a91995090975050505050505050565b565b600061116b826001805480602002602001604051908101604052809291908181526020018280548015611bca57602002820191906000526020600020905b8154600160a060020a03168152600190910190602001808311611bac575b5050505050612db890919063ffffffff16565b600054600160a060020a031690565b600054600160a060020a0316331490565b611c05611bec565b611c47576040805160e560020a62461bcd0281526020600482018190526024820152600080516020613468833981519152604482015290519081900360640190fd5b600160a060020a03811660009081526004602052604090205480611cb5576040805160e560020a62461bcd02815260206004820152601260248201527f4974277320656d7074792062616c616e63650000000000000000000000000000604482015290519081900360640190fd5b600160a060020a038216600081815260046020526040812055611d0557604051339082156108fc029083906000818181858888f19350505050158015611cff573d6000803e3d6000fd5b50611eef565b6040805160e060020a6370a0823102815230600482015290518391600091600160a060020a038416916370a08231916024808301926020929190829003018186803b158015611d5357600080fd5b505afa158015611d67573d6000803e3d6000fd5b505050506040513d6020811015611d7d57600080fd5b5051604080517fa9059cbb000000000000000000000000000000000000000000000000000000008152336004820152602481018690529051919250600160a060020a0384169163a9059cbb916044808201926020929091908290030181600087803b158015611deb57600080fd5b505af1158015611dff573d6000803e3d6000fd5b505050506040513d6020811015611e1557600080fd5b50506040805160e060020a6370a082310281523060048201529051600091600160a060020a038516916370a0823191602480820192602092909190829003018186803b158015611e6457600080fd5b505afa158015611e78573d6000803e3d6000fd5b505050506040513d6020811015611e8e57600080fd5b505190508082038414611eeb576040805160e560020a62461bcd02815260206004820181905260248201527f736574746c656d656e7420746f6b656e207472616e73666572206572726f7221604482015290519081900360640190fd5b5050505b604080518281529051600160a060020a0384169133917f22640d1152d9f3e8baad430cd8adc8af3fac753485821cdfd0261ed53964ba289181900360200190a35050565b600354600160a060020a03163314611f7f5760405160e560020a62461bcd0281526004018080602001828103825260268152602001806133da6026913960400191505060405180910390fd5b6112c6838383612e07565b600354600160a060020a03163314611fd65760405160e560020a62461bcd0281526004018080602001828103825260268152602001806133da6026913960400191505060405180910390fd5b8351604080518281526020808402820101909152606090828015612004578160200160208202803883390190505b50905060005b82811080156120195750600088115b1561220c57600086828151811061202c57fe5b6020026020010151111561220457600061205f87838151811061204b57fe5b6020026020010151868481518110611ac857fe5b90508089101561218057806120da8a8303600960008e600160a060020a0316600160a060020a0316815260200190815260200160002060008c87815181106120a357fe5b6020026020010151600160a060020a0316600160a060020a0316815260200190815260200160002054612c7690919063ffffffff16565b816120e157fe5b04600960008c600160a060020a0316600160a060020a0316815260200190815260200160002060008a858151811061211557fe5b6020026020010151600160a060020a0316600160a060020a031681526020019081526020016000208190555084828151811061214d57fe5b6020026020010151898161215d57fe5b0483838151811061216a57fe5b602002602001018181525050600098505061220c565b600160a060020a038a166000908152600960205260408120895182908b90869081106121a857fe5b6020026020010151600160a060020a0316600160a060020a03168152602001908152602001600020819055508682815181106121e057fe5b60200260200101518383815181106121f457fe5b6020908102919091010152909703965b60010161200a565b871561231857506000805b838210156122675761225a85838151811061222e57fe5b602002602001015187848151811061224257fe5b60200260200101510282612b9d90919063ffffffff16565b6001909201919050612217565b888110156122a95760405160e560020a62461bcd0281526004018080602001828103825260218152602001806134266021913960400191505060405180910390fd5b600091505b83821015612316576122f4816122ca8b898681518110611ac857fe5b816122d157fe5b048484815181106122de57fe5b6020026020010151612b9d90919063ffffffff16565b83838151811061230057fe5b60209081029190910101526001909101906122ae565b505b5060005b8281101561235f576123578988838151811061233457fe5b602002602001015184848151811061234857fe5b60200260200101516004611390565b60010161231c565b505050505050505050565b600354600160a060020a031633146123b65760405160e560020a62461bcd0281526004018080602001828103825260268152602001806133da6026913960400191505060405180910390fd5b600160a060020a038084166000908152600960209081526040808320938616835292905220546123ec908263ffffffff612ccf16565b600160a060020a03938416600090815260096020908152604080832095909616825293909352929091209190915550565b600061242882611b6e565b801561116b575050600160a060020a031660009081526002602052604090205460019081161490565b612459611bec565b61249b576040805160e560020a62461bcd0281526020600482018190526024820152600080516020613468833981519152604482015290519081900360640190fd5b60006124a684612bf8565b9283555060019091015550565b6124bb611bec565b6124fd576040805160e560020a62461bcd0281526020600482018190526024820152600080516020613468833981519152604482015290519081900360640190fd5b600160a060020a03909116600090815260026020526040902055565b600354600090600160a060020a031633146125685760405160e560020a62461bcd0281526004018080602001828103825260268152602001806133da6026913960400191505060405180910390fd5b60006125748385611549565b90506125808582613098565b90505b9392505050565b600160a060020a031660009081526004602052604090205490565b6125ad611bec565b6125ef576040805160e560020a62461bcd0281526020600482018190526024820152600080516020613468833981519152604482015290519081900360640190fd5b6003805473ffffffffffffffffffffffffffffffffffffffff1916600160a060020a0392909216919091179055565b600080600061262c84612bf8565b8054600190910154909350915050915091565b600354600160a060020a031690565b600354600160a060020a0316331461269a5760405160e560020a62461bcd0281526004018080602001828103825260268152602001806133da6026913960400191505060405180910390fd5b600160a060020a038084166000908152600960209081526040808320938616835292905220546123ec908263ffffffff612b9d16565b6126d8611bec565b61271a576040805160e560020a62461bcd0281526020600482018190526024820152600080516020613468833981519152604482015290519081900360640190fd5b61272b60018263ffffffff6130f616565b600160a060020a0316600090815260026020526040902063ffffffff9055565b606080606060018054905060405190808252806020026020018201604052801561277f578160200160208202803883390190505b50905060005b6001548110156127e65760046000600183815481106127a057fe5b6000918252602080832090910154600160a060020a0316835282019290925260400190205482518390839081106127d357fe5b6020908102919091010152600101612785565b506001818180548060200260200160405190810160405280929190818152602001828054801561283f57602002820191906000526020600020905b8154600160a060020a03168152600190910190602001808311612821575b5050505050915092509250509091565b600354600160a060020a0316331461289b5760405160e560020a62461bcd0281526004018080602001828103825260268152602001806133da6026913960400191505060405180910390fd5b600160a060020a0382166000908152600660205260409020546128c4908263ffffffff61319b16565b600160a060020a0390921660009081526006602052604090209190915550565b6128ec611bec565b61292e576040805160e560020a62461bcd0281526020600482018190526024820152600080516020613468833981519152604482015290519081900360640190fd5b611546816131e0565b61293f611bec565b612981576040805160e560020a62461bcd0281526020600482018190526024820152600080516020613468833981519152604482015290519081900360640190fd5b60008054911515740100000000000000000000000000000000000000000274ff000000000000000000000000000000000000000019909216919091179055565b600354600160a060020a03163314612a0d5760405160e560020a62461bcd0281526004018080602001828103825260268152602001806133da6026913960400191505060405180910390fd5b600160a060020a0382166000908152600660205260409020546128c4908263ffffffff612a3616565b600061258383836040518060400160405280601d81526020017f53616665496e743235363a206164646974696f6e206f766572666c6f77000000815250613290565b8154600090815b81811015612ac55783600160a060020a0316858281548110612a9d57fe5b600091825260209091200154600160a060020a03161415612abd57612ac5565b600101612a7f565b81811015612b5b57600182038114612b3f57846001830381548110612ae657fe5b9060005260206000200160009054906101000a9004600160a060020a0316858281548110612b1057fe5b9060005260206000200160006101000a815481600160a060020a030219169083600160a060020a031602179055505b8454612b4f86600019830161339c565b5060019250505061116b565b506000949350505050565b81612b7057612b97565b6000612b7c8284611549565b9050612b8b8585838603612e07565b612b958482613098565b505b50505050565b8082018281101561116b576040805160e560020a62461bcd02815260206004820152601b60248201527f536166654d6174683a206164646974696f6e206f766572666c6f770000000000604482015290519081900360640190fd5b6005546000908210612c54576040805160e560020a62461bcd02815260206004820152601260248201527f66656520747970652069732076616c6964210000000000000000000000000000604482015290519081900360640190fd5b60058281548110612c6157fe5b90600052602060002090600202019050919050565b6000811580612c9157505080820282828281612c8e57fe5b04145b61116b5760405160e560020a62461bcd0281526004018080602001828103825260218152602001806134476021913960400191505060405180910390fd5b8082038281111561116b576040805160e560020a62461bcd02815260206004820181905260248201527f536166654d6174683a20737562737472616374696f6e20756e646572666c6f77604482015290519081900360640190fd5b600160a060020a0380841660008181526007602090815260408083205494871683526009825280832093835292905290812054909182918115612da157600082612d7a878463ffffffff612c7616565b81612d8157fe5b04905080612d95878263ffffffff612ccf16565b94509450505050612db0565b5060009250839150612db09050565b935093915050565b8151600090815b81811015612b5b5783600160a060020a0316858281518110612ddd57fe5b6020026020010151600160a060020a03161415612dff5760019250505061116b565b600101612dbf565b80612e11576112c6565b600160a060020a038216612e5b57604051600160a060020a0384169082156108fc029083906000818181858888f19350505050158015612e55573d6000803e3d6000fd5b50613048565b6040805160e060020a6370a0823102815230600482015290518391600091600160a060020a038416916370a08231916024808301926020929190829003018186803b158015612ea957600080fd5b505afa158015612ebd573d6000803e3d6000fd5b505050506040513d6020811015612ed357600080fd5b5051604080517fa9059cbb000000000000000000000000000000000000000000000000000000008152600160a060020a0388811660048301526024820187905291519293509084169163a9059cbb916044808201926020929091908290030181600087803b158015612f4457600080fd5b505af1158015612f58573d6000803e3d6000fd5b505050506040513d6020811015612f6e57600080fd5b50506040805160e060020a6370a082310281523060048201529051600091600160a060020a038516916370a0823191602480820192602092909190829003018186803b158015612fbd57600080fd5b505afa158015612fd1573d6000803e3d6000fd5b505050506040513d6020811015612fe757600080fd5b505190508082038414613044576040805160e560020a62461bcd02815260206004820181905260248201527f736574746c656d656e7420746f6b656e207472616e73666572206572726f7221604482015290519081900360640190fd5b5050505b81600160a060020a031683600160a060020a03167f8aaaec2388cc390cde69685f78340e15f36d424b6b6b595f549dd883931f9c9b836040518082815260200191505060405180910390a3505050565b80156130f257600160a060020a038216600081815260046020908152604091829020805485019055815184815291517f1104eee7f034069140a0655d153038cedf9e65e5724018c555a8d56cfb6bee779281900390910190a25b5050565b6131598280548060200260200160405190810160405280929190818152602001828054801561314e57602002820191906000526020600020905b8154600160a060020a03168152600190910190602001808311613130575b505050505082612db8565b6130f2578154600181018355600083815260209020018054600160a060020a03831673ffffffffffffffffffffffffffffffffffffffff199091161790555050565b600061258383836000036040518060400160405280601e81526020017f536166654d6174683a207375627472616374696f6e206f766572666c6f770000815250613290565b600160a060020a0381166132285760405160e560020a62461bcd0281526004018080602001828103825260268152602001806134006026913960400191505060405180910390fd5b60008054604051600160a060020a03808516939216917f8be0079c531659141344cd1fd0a4f28419497f9722a3daafe3b4186f6b6457e091a36000805473ffffffffffffffffffffffffffffffffffffffff1916600160a060020a0392909216919091179055565b60008383018185121582851215146132a9579050612583565b600085126133495782858212156133415760405160e560020a62461bcd0281526004018080602001828103825283818151815260200191508051906020019080838360005b838110156133065781810151838201526020016132ee565b50505050905090810190601f1680156133335780820380516001836020036101000a031916815260200191505b509250505060405180910390fd5b509050612583565b82858213156133415760405160e560020a62461bcd0281526020600482018181528351602484015283519092839260449091019190850190808383600083156133065781810151838201526020016132ee565b8154818355818111156112c6576000838152602090206112c69181019083016111d191905b808211156133d557600081556001016133c1565b509056fe4d616e6167657261626c653a2063616c6c6572206973206e6f7420746865204d616e616765724f776e61626c653a206e6577206f776e657220697320746865207a65726f206164647265737372656465656d20636f6c6c61746572616c20697320696e73756666696369656e74536166654d6174683a206d756c7469706c69636174696f6e206f766572666c6f774f776e61626c653a2063616c6c6572206973206e6f7420746865206f776e6572a265627a7a72315820e46e67be32d8fa55116c598b0b43577027e3dbb1d49038306f0ddb9ae669b9c664736f6c63430005100032",
  "source": "pragma solidity ^0.5.1;\r\n\r\nimport \"../modules/SafeInt256.sol\";\r\nimport \"./TransactionFee.sol\";\r\n/**\r\n * @title collateral pool contract with coin and necessary storage data.\r\n * @dev A smart-contract which stores user's deposited collateral.\r\n *\r\n */\r\ncontract CollateralPool is TransactionFee{\r\n    using SafeMath for uint256;\r\n    using SafeInt256 for int256;\r\n    /**\r\n     * @dev Transfer colleteral from manager contract to this contract.\r\n     *  Only manager contract can invoke this function.\r\n     */\r\n    function () external payable onlyManager{\r\n\r\n    }\r\n    function initialize() public {\r\n        \r\n    }\r\n    /**\r\n     * @dev An interface for add transaction fee.\r\n     *  Only manager contract can invoke this function.\r\n     * @param collateral collateral address, also is the coin for fee.\r\n     * @param amount total transaction amount.\r\n     * @param feeType transaction fee type. see TransactionFee contract\r\n     */\r\n    function addTransactionFee(address collateral,uint256 amount,uint256 feeType)public onlyManager returns (uint256) {\r\n        uint256 fee = calculateFee(feeType,amount);\r\n        _addTransactionFee(collateral,fee);\r\n        return fee;\r\n    }\r\n    /**\r\n     * @dev Retrieve user's cost of collateral, priced in USD.\r\n     * @param user input retrieved account \r\n     */\r\n    function getUserPayingUsd(address user)public view returns (uint256){\r\n        return userCollateralPaying[user];\r\n    }\r\n    /**\r\n     * @dev Retrieve user's amount of the specified collateral.\r\n     * @param user input retrieved account \r\n     * @param collateral input retrieved collateral coin address \r\n     */\r\n    function getUserInputCollateral(address user,address collateral)public view returns (uint256){\r\n        return userInputCollateral[user][collateral];\r\n    }\r\n    /**\r\n     * @dev Retrieve net worth balance data.\r\n     * @param collateral input retrieved collateral coin address \r\n     */\r\n    function getNetWorthBalance(address collateral)public view returns (int256){\r\n        return netWorthBalances[collateral];\r\n    }\r\n    /**\r\n     * @dev Retrieve collateral balance data.\r\n     * @param collateral input retrieved collateral coin address \r\n     */\r\n    function getCollateralBalance(address collateral)public view returns (uint256){\r\n        return collateralBalances[collateral];\r\n    }\r\n    /**\r\n     * @dev Opterator user paying data, priced in USD. Only manager contract can modify database.\r\n     * @param user input user account which need add paying amount.\r\n     * @param amount the input paying amount.\r\n     */\r\n    function addUserPayingUsd(address user,uint256 amount)public onlyManager{\r\n        userCollateralPaying[user] = userCollateralPaying[user].add(amount);\r\n    }\r\n    /**\r\n     * @dev Opterator user input collateral data. Only manager contract can modify database.\r\n     * @param user input user account which need add input collateral.\r\n     * @param collateral the collateral address.\r\n     * @param amount the input collateral amount.\r\n     */\r\n    function addUserInputCollateral(address user,address collateral,uint256 amount)public onlyManager{\r\n        userInputCollateral[user][collateral] = userInputCollateral[user][collateral].add(amount);\r\n    }\r\n    /**\r\n     * @dev Opterator net worth balance data. Only manager contract can modify database.\r\n     * @param whiteList available colleteral address list.\r\n     * @param newNetworth collateral net worth list.\r\n     */\r\n    function addNetWorthBalances(address[] memory whiteList,int256[] memory newNetworth)public onlyManager{\r\n        for (uint i=0;i<newNetworth.length;i++){\r\n            netWorthBalances[whiteList[i]] = netWorthBalances[whiteList[i]].add(newNetworth[i]);\r\n        }\r\n    }\r\n    /**\r\n     * @dev Opterator net worth balance data. Only manager contract can modify database.\r\n     * @param collateral available colleteral address.\r\n     * @param amount collateral net worth increase amount.\r\n     */\r\n    function addNetWorthBalance(address collateral,int256 amount)public onlyManager{\r\n        netWorthBalances[collateral] = netWorthBalances[collateral].add(amount);\r\n    }\r\n    /**\r\n     * @dev Opterator collateral balance data. Only manager contract can modify database.\r\n     * @param collateral available colleteral address.\r\n     * @param amount collateral colleteral increase amount.\r\n     */\r\n    function addCollateralBalance(address collateral,uint256 amount)public onlyManager{\r\n        collateralBalances[collateral] = collateralBalances[collateral].add(amount);\r\n    }\r\n    /**\r\n     * @dev Substract user paying data,priced in USD. Only manager contract can modify database.\r\n     * @param user user's account.\r\n     * @param amount user's decrease amount.\r\n     */\r\n    function subUserPayingUsd(address user,uint256 amount)public onlyManager{\r\n        userCollateralPaying[user] = userCollateralPaying[user].sub(amount);\r\n    }\r\n    /**\r\n     * @dev Substract user's collateral balance. Only manager contract can modify database.\r\n     * @param user user's account.\r\n     * @param collateral collateral address.\r\n     * @param amount user's decrease amount.\r\n     */\r\n    function subUserInputCollateral(address user,address collateral,uint256 amount)public onlyManager{\r\n        userInputCollateral[user][collateral] = userInputCollateral[user][collateral].sub(amount);\r\n    }\r\n    /**\r\n     * @dev Substract net worth balance. Only manager contract can modify database.\r\n     * @param collateral collateral address.\r\n     * @param amount the decrease amount.\r\n     */\r\n    function subNetWorthBalance(address collateral,int256 amount)public onlyManager{\r\n        netWorthBalances[collateral] = netWorthBalances[collateral].sub(amount);\r\n    }\r\n    /**\r\n     * @dev Substract collateral balance. Only manager contract can modify database.\r\n     * @param collateral collateral address.\r\n     * @param amount the decrease amount.\r\n     */\r\n    function subCollateralBalance(address collateral,uint256 amount)public onlyManager{\r\n        collateralBalances[collateral] = collateralBalances[collateral].sub(amount);\r\n    }\r\n    /**\r\n     * @dev set user paying data,priced in USD. Only manager contract can modify database.\r\n     * @param user user's account.\r\n     * @param amount user's new amount.\r\n     */\r\n    function setUserPayingUsd(address user,uint256 amount)public onlyManager{\r\n        userCollateralPaying[user] = amount;\r\n    }\r\n    /**\r\n     * @dev set user's collateral balance. Only manager contract can modify database.\r\n     * @param user user's account.\r\n     * @param collateral collateral address.\r\n     * @param amount user's new amount.\r\n     */\r\n    function setUserInputCollateral(address user,address collateral,uint256 amount)public onlyManager{\r\n        userInputCollateral[user][collateral] = amount;\r\n    }\r\n    /**\r\n     * @dev set net worth balance. Only manager contract can modify database.\r\n     * @param collateral collateral address.\r\n     * @param amount the new amount.\r\n     */\r\n    function setNetWorthBalance(address collateral,int256 amount)public onlyManager{\r\n        netWorthBalances[collateral] = amount;\r\n    }\r\n    /**\r\n     * @dev set collateral balance. Only manager contract can modify database.\r\n     * @param collateral collateral address.\r\n     * @param amount the new amount.\r\n     */\r\n    function setCollateralBalance(address collateral,uint256 amount)public onlyManager{\r\n        collateralBalances[collateral] = amount;\r\n    }\r\n    /**\r\n     * @dev Operation for transfer user's payback and deduct transaction fee. Only manager contract can invoke this function.\r\n     * @param recieptor the recieptor account.\r\n     * @param settlement the settlement coin address.\r\n     * @param payback the payback amount\r\n     * @param feeType the transaction fee type. see transactionFee contract\r\n     */\r\n    function transferPaybackAndFee(address payable recieptor,address settlement,uint256 payback,\r\n            uint256 feeType)public onlyManager{\r\n        _transferPaybackAndFee(recieptor,settlement,payback,feeType);\r\n        netWorthBalances[settlement] = netWorthBalances[settlement]-int256(payback);\r\n    }\r\n    /**\r\n     * @dev Operation for transfer user's payback. Only manager contract can invoke this function.\r\n     * @param recieptor the recieptor account.\r\n     * @param settlement the settlement coin address.\r\n     * @param payback the payback amount\r\n     */\r\n    function transferPayback(address payable recieptor,address settlement,uint256 payback)public onlyManager{\r\n        _transferPayback(recieptor,settlement,payback);\r\n    }\r\n    /**\r\n     * @dev Operation for transfer user's payback and deduct transaction fee for multiple settlement Coin.\r\n     *       Specially used for redeem collateral.Only manager contract can invoke this function.\r\n     * @param account the recieptor account.\r\n     * @param redeemWorth the redeem worth, priced in USD.\r\n     * @param tmpWhiteList the settlement coin white list\r\n     * @param colBalances the Collateral balance based for user's input collateral.\r\n     * @param PremiumBalances the premium collateral balance if redeem worth is exceeded user's input collateral.\r\n     * @param prices the collateral prices list.\r\n     */\r\n    function transferPaybackBalances(address payable account,uint256 redeemWorth,address[] memory tmpWhiteList,uint256[] memory colBalances,\r\n        uint256[] memory PremiumBalances,uint256[] memory prices)public onlyManager {\r\n        uint256 ln = tmpWhiteList.length;\r\n        uint256[] memory PaybackBalances = new uint256[](ln);\r\n        uint256 i=0;\r\n        for(; i<ln && redeemWorth>0;i++){\r\n            //address addr = tmpWhiteList[i];\r\n            if (colBalances[i] > 0){\r\n                uint256 totalWorth = prices[i].mul(colBalances[i]);\r\n                if (redeemWorth < totalWorth){\r\n    //                setUserInputCollateral(account,tmpWhiteList[i],\r\n    //                    getUserInputCollateral(account,tmpWhiteList[i]).mul(totalWorth-redeemWorth).div(totalWorth));\r\n                    userInputCollateral[account][tmpWhiteList[i]] = userInputCollateral[account][tmpWhiteList[i]].mul(totalWorth-redeemWorth)/totalWorth;\r\n                    PaybackBalances[i] = redeemWorth/prices[i];\r\n                    redeemWorth = 0;\r\n                    break;\r\n                }else{\r\n                    //_collateralPool.setUserInputCollateral(msg.sender,tmpWhiteList[i],0);\r\n                    userInputCollateral[account][tmpWhiteList[i]] = 0;\r\n                    PaybackBalances[i] = colBalances[i];\r\n                    redeemWorth = redeemWorth - totalWorth;\r\n                }\r\n            }\r\n        }\r\n        if (redeemWorth>0) {\r\n           uint256 totalWorth = 0;\r\n            for (i=0; i<ln;i++){\r\n                totalWorth = totalWorth.add(PremiumBalances[i]*prices[i]);\r\n            }\r\n            require(totalWorth >= redeemWorth ,\"redeem collateral is insufficient\");\r\n            for (i=0; i<ln;i++){\r\n                PaybackBalances[i] = PaybackBalances[i].add(PremiumBalances[i].mul(redeemWorth)/totalWorth);\r\n            }\r\n        }\r\n        for (i=0;i<ln;i++){ \r\n            transferPaybackAndFee(account,tmpWhiteList[i],PaybackBalances[i],redeemColFee);\r\n//            addr = whiteList[i];\r\n//            netWorthBalances[addr] = netWorthBalances[addr].sub(PaybackBalances[i]);\r\n//            _transferPaybackAndFee(msg.sender,addr,PaybackBalances[i],redeemColFee);\r\n        } \r\n    }\r\n    /**\r\n     * @dev calculate user's input collateral balance and premium collateral balance.\r\n     *      Specially used for user's redeem collateral.\r\n     * @param account the recieptor account.\r\n     * @param userTotalWorth the user's total FPTCoin worth, priced in USD.\r\n     * @param tmpWhiteList the settlement coin white list\r\n     * @param _RealBalances the real Collateral balance.\r\n     * @param prices the collateral prices list.\r\n     */\r\n    function getCollateralAndPremiumBalances(address account,uint256 userTotalWorth,address[] memory tmpWhiteList,\r\n        uint256[] memory _RealBalances,uint256[] memory prices) public view returns(uint256[] memory,uint256[] memory){\r\n//        uint256 ln = tmpWhiteList.length;\r\n        uint256[] memory colBalances = new uint256[](tmpWhiteList.length);\r\n        uint256[] memory PremiumBalances = new uint256[](tmpWhiteList.length);\r\n        uint256 totalWorth = 0;\r\n        uint256 PremiumWorth = 0;\r\n        uint256 i=0;\r\n        for(; i<tmpWhiteList.length;i++){\r\n            (colBalances[i],PremiumBalances[i]) = calUserNetWorthBalanceRate(tmpWhiteList[i],account,_RealBalances[i]);\r\n            totalWorth = totalWorth.add(prices[i]*colBalances[i]);\r\n            PremiumWorth = PremiumWorth.add(prices[i]*PremiumBalances[i]);\r\n        }\r\n        if (totalWorth >= userTotalWorth){\r\n            for (i=0; i<tmpWhiteList.length;i++){\r\n                colBalances[i] = colBalances[i].mul(userTotalWorth)/totalWorth;\r\n            }\r\n        }else if (PremiumWorth>0){\r\n            userTotalWorth = userTotalWorth - totalWorth;\r\n            for (i=0; i<tmpWhiteList.length;i++){\r\n                PremiumBalances[i] = PremiumBalances[i].mul(userTotalWorth)/PremiumWorth;\r\n            }\r\n        }\r\n        return (colBalances,PremiumBalances);\r\n    } \r\n    /**\r\n     * @dev calculate user's input collateral balance.\r\n     *      Specially used for user's redeem collateral.\r\n     * @param settlement the settlement coin address.\r\n     * @param user the recieptor account.\r\n     * @param netWorthBalance the settlement coin real balance\r\n     */\r\n    function calUserNetWorthBalanceRate(address settlement,address user,uint256 netWorthBalance)internal view returns(uint256,uint256){\r\n        uint256 collateralBalance = collateralBalances[settlement];\r\n        uint256 amount = userInputCollateral[user][settlement];\r\n        if (collateralBalance > 0){\r\n            uint256 curAmount = netWorthBalance.mul(amount)/collateralBalance;\r\n            return (curAmount,netWorthBalance.sub(curAmount));\r\n        }else{\r\n            return (0,netWorthBalance);\r\n        }\r\n    }\r\n}",
  "sourcePath": "C:\\work\\solidity\\FinnexusOptions_V2\\contracts\\CollateralPool\\CollateralPool.sol",
  "compiler": {
    "name": "solc",
    "version": "0.5.16+commit.9c3226ce.Emscripten.clang"
  },
  "schemaVersion": "3.1.0",
  "updatedAt": "2020-09-02T10:11:20.593Z",
  "devdoc": {
    "details": "A smart-contract which stores user's deposited collateral.  ",
    "methods": {
      "addCollateralBalance(address,uint256)": {
        "details": "Opterator collateral balance data. Only manager contract can modify database.",
        "params": {
          "amount": "collateral colleteral increase amount.",
          "collateral": "available colleteral address."
        }
      },
      "addNetWorthBalance(address,int256)": {
        "details": "Opterator net worth balance data. Only manager contract can modify database.",
        "params": {
          "amount": "collateral net worth increase amount.",
          "collateral": "available colleteral address."
        }
      },
      "addNetWorthBalances(address[],int256[])": {
        "details": "Opterator net worth balance data. Only manager contract can modify database.",
        "params": {
          "newNetworth": "collateral net worth list.",
          "whiteList": "available colleteral address list."
        }
      },
      "addTransactionFee(address,uint256,uint256)": {
        "details": "An interface for add transaction fee. Only manager contract can invoke this function.",
        "params": {
          "amount": "total transaction amount.",
          "collateral": "collateral address, also is the coin for fee.",
          "feeType": "transaction fee type. see TransactionFee contract"
        }
      },
      "addUserInputCollateral(address,address,uint256)": {
        "details": "Opterator user input collateral data. Only manager contract can modify database.",
        "params": {
          "amount": "the input collateral amount.",
          "collateral": "the collateral address.",
          "user": "input user account which need add input collateral."
        }
      },
      "addUserPayingUsd(address,uint256)": {
        "details": "Opterator user paying data, priced in USD. Only manager contract can modify database.",
        "params": {
          "amount": "the input paying amount.",
          "user": "input user account which need add paying amount."
        }
      },
      "addWhiteList(address)": {
        "details": "Implementation of add an eligible address into the whitelist.",
        "params": {
          "addAddress": "new eligible address."
        }
      },
      "getCollateralAndPremiumBalances(address,uint256,address[],uint256[],uint256[])": {
        "details": "calculate user's input collateral balance and premium collateral balance.     Specially used for user's redeem collateral.",
        "params": {
          "_RealBalances": "the real Collateral balance.",
          "account": "the recieptor account.",
          "prices": "the collateral prices list.",
          "tmpWhiteList": "the settlement coin white list",
          "userTotalWorth": "the user's total FPTCoin worth, priced in USD."
        }
      },
      "getCollateralBalance(address)": {
        "details": "Retrieve collateral balance data.",
        "params": {
          "collateral": "input retrieved collateral coin address "
        }
      },
      "getManager()": {
        "details": "get manager address.       "
      },
      "getNetWorthBalance(address)": {
        "details": "Retrieve net worth balance data.",
        "params": {
          "collateral": "input retrieved collateral coin address "
        }
      },
      "getUserInputCollateral(address,address)": {
        "details": "Retrieve user's amount of the specified collateral.",
        "params": {
          "collateral": "input retrieved collateral coin address ",
          "user": "input retrieved account "
        }
      },
      "getUserPayingUsd(address)": {
        "details": "Retrieve user's cost of collateral, priced in USD.",
        "params": {
          "user": "input retrieved account "
        }
      },
      "getWhiteList()": {
        "details": "Implementation of getting the eligible whitelist."
      },
      "isEligibleAddress(address)": {
        "details": "Implementation of testing whether the input address is eligible.",
        "params": {
          "tmpAddress": "input address for testing."
        }
      },
      "isOwner()": {
        "details": "Returns true if the caller is the current owner."
      },
      "owner()": {
        "details": "Returns the address of the current owner."
      },
      "removeWhiteList(address)": {
        "details": "Implementation of revoke an invalid address from the whitelist.",
        "params": {
          "removeAddress": "revoked address."
        }
      },
      "renounceOwnership()": {
        "details": "Leaves the contract without owner. It will not be possible to call `onlyOwner` functions anymore. Can only be called by the current owner.      * NOTE: Renouncing ownership will leave the contract without an owner, thereby removing any functionality that is only available to the owner."
      },
      "setCollateralBalance(address,uint256)": {
        "details": "set collateral balance. Only manager contract can modify database.",
        "params": {
          "amount": "the new amount.",
          "collateral": "collateral address."
        }
      },
      "setManager(address)": {
        "details": "set manager by owner.       "
      },
      "setNetWorthBalance(address,int256)": {
        "details": "set net worth balance. Only manager contract can modify database.",
        "params": {
          "amount": "the new amount.",
          "collateral": "collateral address."
        }
      },
      "setTransactionFee(uint256,uint256,uint256)": {
        "details": "set the rate of trasaction fee.",
        "params": {
          "denominator": "thedenominator of transaction fee. transaction fee = numerator/denominator;",
          "feeType": "the transaction fee type",
          "numerator": "the numerator of transaction fee ."
        }
      },
      "setUserInputCollateral(address,address,uint256)": {
        "details": "set user's collateral balance. Only manager contract can modify database.",
        "params": {
          "amount": "user's new amount.",
          "collateral": "collateral address.",
          "user": "user's account."
        }
      },
      "setUserPayingUsd(address,uint256)": {
        "details": "set user paying data,priced in USD. Only manager contract can modify database.",
        "params": {
          "amount": "user's new amount.",
          "user": "user's account."
        }
      },
      "subCollateralBalance(address,uint256)": {
        "details": "Substract collateral balance. Only manager contract can modify database.",
        "params": {
          "amount": "the decrease amount.",
          "collateral": "collateral address."
        }
      },
      "subNetWorthBalance(address,int256)": {
        "details": "Substract net worth balance. Only manager contract can modify database.",
        "params": {
          "amount": "the decrease amount.",
          "collateral": "collateral address."
        }
      },
      "subUserInputCollateral(address,address,uint256)": {
        "details": "Substract user's collateral balance. Only manager contract can modify database.",
        "params": {
          "amount": "user's decrease amount.",
          "collateral": "collateral address.",
          "user": "user's account."
        }
      },
      "subUserPayingUsd(address,uint256)": {
        "details": "Substract user paying data,priced in USD. Only manager contract can modify database.",
        "params": {
          "amount": "user's decrease amount.",
          "user": "user's account."
        }
      },
      "transferOwnership(address)": {
        "details": "Transfers ownership of the contract to a new account (`newOwner`). Can only be called by the current owner."
      },
      "transferPayback(address,address,uint256)": {
        "details": "Operation for transfer user's payback. Only manager contract can invoke this function.",
        "params": {
          "payback": "the payback amount",
          "recieptor": "the recieptor account.",
          "settlement": "the settlement coin address."
        }
      },
      "transferPaybackAndFee(address,address,uint256,uint256)": {
        "details": "Operation for transfer user's payback and deduct transaction fee. Only manager contract can invoke this function.",
        "params": {
          "feeType": "the transaction fee type. see transactionFee contract",
          "payback": "the payback amount",
          "recieptor": "the recieptor account.",
          "settlement": "the settlement coin address."
        }
      },
      "transferPaybackBalances(address,uint256,address[],uint256[],uint256[],uint256[])": {
        "details": "Operation for transfer user's payback and deduct transaction fee for multiple settlement Coin.      Specially used for redeem collateral.Only manager contract can invoke this function.",
        "params": {
          "PremiumBalances": "the premium collateral balance if redeem worth is exceeded user's input collateral.",
          "account": "the recieptor account.",
          "colBalances": "the Collateral balance based for user's input collateral.",
          "prices": "the collateral prices list.",
          "redeemWorth": "the redeem worth, priced in USD.",
          "tmpWhiteList": "the settlement coin white list"
        }
      }
    },
    "title": "collateral pool contract with coin and necessary storage data."
  },
  "userdoc": {
    "methods": {
      "setHalt(bool)": {
        "notice": "function Emergency situation that requires contribution period to stop or not."
      }
    }
  }
}