{
  "contractName": "CollateralCal",
  "abi": [
    {
      "anonymous": false,
      "inputs": [
        {
          "indexed": true,
          "internalType": "address",
          "name": "from",
          "type": "address"
        },
        {
          "indexed": true,
          "internalType": "address",
          "name": "collateral",
          "type": "address"
        },
        {
          "indexed": false,
          "internalType": "uint256",
          "name": "amount",
          "type": "uint256"
        },
        {
          "indexed": false,
          "internalType": "uint256",
          "name": "tokenAmount",
          "type": "uint256"
        }
      ],
      "name": "AddCollateral",
      "type": "event"
    },
    {
      "anonymous": false,
      "inputs": [
        {
          "indexed": true,
          "internalType": "address",
          "name": "from",
          "type": "address"
        },
        {
          "indexed": true,
          "internalType": "address",
          "name": "settlement",
          "type": "address"
        },
        {
          "indexed": true,
          "internalType": "uint256",
          "name": "optionId",
          "type": "uint256"
        },
        {
          "indexed": false,
          "internalType": "uint256",
          "name": "optionPrice",
          "type": "uint256"
        },
        {
          "indexed": false,
          "internalType": "uint256",
          "name": "settlementAmount",
          "type": "uint256"
        },
        {
          "indexed": false,
          "internalType": "uint256",
          "name": "optionAmount",
          "type": "uint256"
        }
      ],
      "name": "BuyOption",
      "type": "event"
    },
    {
      "anonymous": false,
      "inputs": [
        {
          "indexed": false,
          "internalType": "uint256",
          "name": "id",
          "type": "uint256"
        },
        {
          "indexed": false,
          "internalType": "uint256",
          "name": "gas",
          "type": "uint256"
        }
      ],
      "name": "DebugEvent",
      "type": "event"
    },
    {
      "anonymous": false,
      "inputs": [
        {
          "indexed": true,
          "internalType": "address",
          "name": "from",
          "type": "address"
        },
        {
          "indexed": true,
          "internalType": "uint256",
          "name": "optionId",
          "type": "uint256"
        },
        {
          "indexed": false,
          "internalType": "uint256",
          "name": "amount",
          "type": "uint256"
        },
        {
          "indexed": false,
          "internalType": "uint256",
          "name": "sellValue",
          "type": "uint256"
        }
      ],
      "name": "ExerciseOption",
      "type": "event"
    },
    {
      "anonymous": false,
      "inputs": [
        {
          "indexed": true,
          "internalType": "address",
          "name": "previousOwner",
          "type": "address"
        },
        {
          "indexed": true,
          "internalType": "address",
          "name": "newOwner",
          "type": "address"
        }
      ],
      "name": "OwnershipTransferred",
      "type": "event"
    },
    {
      "anonymous": false,
      "inputs": [
        {
          "indexed": true,
          "internalType": "address",
          "name": "from",
          "type": "address"
        },
        {
          "indexed": false,
          "internalType": "address",
          "name": "collateral",
          "type": "address"
        },
        {
          "indexed": false,
          "internalType": "uint256",
          "name": "allRedeem",
          "type": "uint256"
        }
      ],
      "name": "RedeemCollateral",
      "type": "event"
    },
    {
      "anonymous": false,
      "inputs": [
        {
          "indexed": true,
          "internalType": "address",
          "name": "from",
          "type": "address"
        },
        {
          "indexed": true,
          "internalType": "uint256",
          "name": "optionId",
          "type": "uint256"
        },
        {
          "indexed": false,
          "internalType": "uint256",
          "name": "amount",
          "type": "uint256"
        },
        {
          "indexed": false,
          "internalType": "uint256",
          "name": "sellValue",
          "type": "uint256"
        }
      ],
      "name": "SellOption",
      "type": "event"
    },
    {
      "constant": false,
      "inputs": [
        {
          "internalType": "address",
          "name": "addAddress",
          "type": "address"
        }
      ],
      "name": "addWhiteList",
      "outputs": [],
      "payable": false,
      "stateMutability": "nonpayable",
      "type": "function"
    },
    {
      "constant": true,
      "inputs": [
        {
          "internalType": "address",
          "name": "spender",
          "type": "address"
        }
      ],
      "name": "allowance",
      "outputs": [
        {
          "internalType": "uint256",
          "name": "",
          "type": "uint256"
        }
      ],
      "payable": false,
      "stateMutability": "view",
      "type": "function"
    },
    {
      "constant": false,
      "inputs": [
        {
          "internalType": "address",
          "name": "spender",
          "type": "address"
        },
        {
          "internalType": "uint256",
          "name": "amount",
          "type": "uint256"
        }
      ],
      "name": "approve",
      "outputs": [],
      "payable": false,
      "stateMutability": "nonpayable",
      "type": "function"
    },
    {
      "constant": true,
      "inputs": [
        {
          "internalType": "address",
          "name": "tmpAddress",
          "type": "address"
        },
        {
          "internalType": "uint256",
          "name": "state",
          "type": "uint256"
        }
      ],
      "name": "checkAddressPermission",
      "outputs": [
        {
          "internalType": "bool",
          "name": "",
          "type": "bool"
        }
      ],
      "payable": false,
      "stateMutability": "view",
      "type": "function"
    },
    {
      "constant": true,
      "inputs": [
        {
          "internalType": "address",
          "name": "spender",
          "type": "address"
        },
        {
          "internalType": "uint256",
          "name": "amount",
          "type": "uint256"
        }
      ],
      "name": "checkAllowance",
      "outputs": [
        {
          "internalType": "bool",
          "name": "",
          "type": "bool"
        }
      ],
      "payable": false,
      "stateMutability": "view",
      "type": "function"
    },
    {
      "constant": true,
      "inputs": [],
      "name": "getCollateralPoolAddress",
      "outputs": [
        {
          "internalType": "address",
          "name": "",
          "type": "address"
        }
      ],
      "payable": false,
      "stateMutability": "view",
      "type": "function"
    },
    {
      "constant": true,
      "inputs": [],
      "name": "getFPTCoinAddress",
      "outputs": [
        {
          "internalType": "address",
          "name": "",
          "type": "address"
        }
      ],
      "payable": false,
      "stateMutability": "view",
      "type": "function"
    },
    {
      "constant": true,
      "inputs": [],
      "name": "getInputAmountRange",
      "outputs": [
        {
          "internalType": "uint256",
          "name": "",
          "type": "uint256"
        },
        {
          "internalType": "uint256",
          "name": "",
          "type": "uint256"
        }
      ],
      "payable": false,
      "stateMutability": "view",
      "type": "function"
    },
    {
      "constant": true,
      "inputs": [],
      "name": "getOptionsPoolAddress",
      "outputs": [
        {
          "internalType": "address",
          "name": "",
          "type": "address"
        }
      ],
      "payable": false,
      "stateMutability": "view",
      "type": "function"
    },
    {
      "constant": true,
      "inputs": [],
      "name": "getOptionsPriceAddress",
      "outputs": [
        {
          "internalType": "address",
          "name": "",
          "type": "address"
        }
      ],
      "payable": false,
      "stateMutability": "view",
      "type": "function"
    },
    {
      "constant": true,
      "inputs": [],
      "name": "getOracleAddress",
      "outputs": [
        {
          "internalType": "address",
          "name": "",
          "type": "address"
        }
      ],
      "payable": false,
      "stateMutability": "view",
      "type": "function"
    },
    {
      "constant": true,
      "inputs": [],
      "name": "getWhiteList",
      "outputs": [
        {
          "internalType": "address[]",
          "name": "",
          "type": "address[]"
        }
      ],
      "payable": false,
      "stateMutability": "view",
      "type": "function"
    },
    {
      "constant": true,
      "inputs": [
        {
          "internalType": "address",
          "name": "tmpAddress",
          "type": "address"
        }
      ],
      "name": "isEligibleAddress",
      "outputs": [
        {
          "internalType": "bool",
          "name": "",
          "type": "bool"
        }
      ],
      "payable": false,
      "stateMutability": "view",
      "type": "function"
    },
    {
      "constant": true,
      "inputs": [
        {
          "internalType": "uint256",
          "name": "Amount",
          "type": "uint256"
        }
      ],
      "name": "isInputAmountInRange",
      "outputs": [
        {
          "internalType": "bool",
          "name": "",
          "type": "bool"
        }
      ],
      "payable": false,
      "stateMutability": "view",
      "type": "function"
    },
    {
      "constant": true,
      "inputs": [],
      "name": "isOwner",
      "outputs": [
        {
          "internalType": "bool",
          "name": "",
          "type": "bool"
        }
      ],
      "payable": false,
      "stateMutability": "view",
      "type": "function"
    },
    {
      "constant": false,
      "inputs": [
        {
          "internalType": "address",
          "name": "addAddress",
          "type": "address"
        },
        {
          "internalType": "uint256",
          "name": "permission",
          "type": "uint256"
        }
      ],
      "name": "modifyPermission",
      "outputs": [],
      "payable": false,
      "stateMutability": "nonpayable",
      "type": "function"
    },
    {
      "constant": true,
      "inputs": [],
      "name": "owner",
      "outputs": [
        {
          "internalType": "address",
          "name": "",
          "type": "address"
        }
      ],
      "payable": false,
      "stateMutability": "view",
      "type": "function"
    },
    {
      "constant": false,
      "inputs": [
        {
          "internalType": "address",
          "name": "removeAddress",
          "type": "address"
        }
      ],
      "name": "removeWhiteList",
      "outputs": [
        {
          "internalType": "bool",
          "name": "",
          "type": "bool"
        }
      ],
      "payable": false,
      "stateMutability": "nonpayable",
      "type": "function"
    },
    {
      "constant": false,
      "inputs": [],
      "name": "renounceOwnership",
      "outputs": [],
      "payable": false,
      "stateMutability": "nonpayable",
      "type": "function"
    },
    {
      "constant": false,
      "inputs": [
        {
          "internalType": "address",
          "name": "collateralPool",
          "type": "address"
        }
      ],
      "name": "setCollateralPoolAddress",
      "outputs": [],
      "payable": false,
      "stateMutability": "nonpayable",
      "type": "function"
    },
    {
      "constant": false,
      "inputs": [
        {
          "internalType": "address",
          "name": "FPTCoinAddr",
          "type": "address"
        }
      ],
      "name": "setFPTCoinAddress",
      "outputs": [],
      "payable": false,
      "stateMutability": "nonpayable",
      "type": "function"
    },
    {
      "constant": false,
      "inputs": [
        {
          "internalType": "bool",
          "name": "halt",
          "type": "bool"
        }
      ],
      "name": "setHalt",
      "outputs": [],
      "payable": false,
      "stateMutability": "nonpayable",
      "type": "function"
    },
    {
      "constant": false,
      "inputs": [
        {
          "internalType": "uint256",
          "name": "_minAmount",
          "type": "uint256"
        },
        {
          "internalType": "uint256",
          "name": "_maxAmount",
          "type": "uint256"
        }
      ],
      "name": "setInputAmountRange",
      "outputs": [],
      "payable": false,
      "stateMutability": "nonpayable",
      "type": "function"
    },
    {
      "constant": false,
      "inputs": [
        {
          "internalType": "address",
          "name": "optionsPool",
          "type": "address"
        }
      ],
      "name": "setOptionsPoolAddress",
      "outputs": [],
      "payable": false,
      "stateMutability": "nonpayable",
      "type": "function"
    },
    {
      "constant": false,
      "inputs": [
        {
          "internalType": "address",
          "name": "optionsPrice",
          "type": "address"
        }
      ],
      "name": "setOptionsPriceAddress",
      "outputs": [],
      "payable": false,
      "stateMutability": "nonpayable",
      "type": "function"
    },
    {
      "constant": false,
      "inputs": [
        {
          "internalType": "address",
          "name": "oracle",
          "type": "address"
        }
      ],
      "name": "setOracleAddress",
      "outputs": [],
      "payable": false,
      "stateMutability": "nonpayable",
      "type": "function"
    },
    {
      "constant": false,
      "inputs": [
        {
          "internalType": "bool",
          "name": "_bValid",
          "type": "bool"
        }
      ],
      "name": "setValid",
      "outputs": [],
      "payable": false,
      "stateMutability": "nonpayable",
      "type": "function"
    },
    {
      "constant": false,
      "inputs": [
        {
          "internalType": "address",
          "name": "newOwner",
          "type": "address"
        }
      ],
      "name": "transferOwnership",
      "outputs": [],
      "payable": false,
      "stateMutability": "nonpayable",
      "type": "function"
    },
    {
      "constant": false,
      "inputs": [
        {
          "internalType": "address",
          "name": "collateral",
          "type": "address"
        },
        {
          "internalType": "uint256",
          "name": "colRate",
          "type": "uint256"
        }
      ],
      "name": "setCollateralRate",
      "outputs": [],
      "payable": false,
      "stateMutability": "nonpayable",
      "type": "function"
    },
    {
      "constant": true,
      "inputs": [
        {
          "internalType": "address",
          "name": "collateral",
          "type": "address"
        }
      ],
      "name": "getCollateralRate",
      "outputs": [
        {
          "internalType": "uint256",
          "name": "",
          "type": "uint256"
        }
      ],
      "payable": false,
      "stateMutability": "view",
      "type": "function"
    },
    {
      "constant": true,
      "inputs": [
        {
          "internalType": "address",
          "name": "user",
          "type": "address"
        }
      ],
      "name": "getUserPayingUsd",
      "outputs": [
        {
          "internalType": "uint256",
          "name": "",
          "type": "uint256"
        }
      ],
      "payable": false,
      "stateMutability": "view",
      "type": "function"
    },
    {
      "constant": true,
      "inputs": [
        {
          "internalType": "address",
          "name": "user",
          "type": "address"
        },
        {
          "internalType": "address",
          "name": "collateral",
          "type": "address"
        }
      ],
      "name": "userInputCollateral",
      "outputs": [
        {
          "internalType": "uint256",
          "name": "",
          "type": "uint256"
        }
      ],
      "payable": false,
      "stateMutability": "view",
      "type": "function"
    },
    {
      "constant": true,
      "inputs": [
        {
          "internalType": "address",
          "name": "account",
          "type": "address"
        }
      ],
      "name": "getUserTotalWorth",
      "outputs": [
        {
          "internalType": "uint256",
          "name": "",
          "type": "uint256"
        }
      ],
      "payable": false,
      "stateMutability": "view",
      "type": "function"
    },
    {
      "constant": true,
      "inputs": [],
      "name": "getTokenNetworth",
      "outputs": [
        {
          "internalType": "uint256",
          "name": "",
          "type": "uint256"
        }
      ],
      "payable": false,
      "stateMutability": "view",
      "type": "function"
    },
    {
      "constant": false,
      "inputs": [
        {
          "internalType": "address",
          "name": "collateral",
          "type": "address"
        },
        {
          "internalType": "uint256",
          "name": "amount",
          "type": "uint256"
        }
      ],
      "name": "addCollateral",
      "outputs": [],
      "payable": true,
      "stateMutability": "payable",
      "type": "function"
    },
    {
      "constant": false,
      "inputs": [
        {
          "internalType": "uint256",
          "name": "tokenAmount",
          "type": "uint256"
        },
        {
          "internalType": "address",
          "name": "collateral",
          "type": "address"
        }
      ],
      "name": "redeemCollateral",
      "outputs": [],
      "payable": false,
      "stateMutability": "nonpayable",
      "type": "function"
    },
    {
      "constant": true,
      "inputs": [
        {
          "internalType": "address",
          "name": "account",
          "type": "address"
        }
      ],
      "name": "calCollateralWorth",
      "outputs": [
        {
          "internalType": "uint256[]",
          "name": "",
          "type": "uint256[]"
        }
      ],
      "payable": false,
      "stateMutability": "view",
      "type": "function"
    },
    {
      "constant": true,
      "inputs": [],
      "name": "getOccupiedCollateral",
      "outputs": [
        {
          "internalType": "uint256",
          "name": "",
          "type": "uint256"
        }
      ],
      "payable": false,
      "stateMutability": "view",
      "type": "function"
    },
    {
      "constant": true,
      "inputs": [],
      "name": "getAvailableCollateral",
      "outputs": [
        {
          "internalType": "uint256",
          "name": "",
          "type": "uint256"
        }
      ],
      "payable": false,
      "stateMutability": "view",
      "type": "function"
    },
    {
      "constant": true,
      "inputs": [],
      "name": "getLeftCollateral",
      "outputs": [
        {
          "internalType": "uint256",
          "name": "",
          "type": "uint256"
        }
      ],
      "payable": false,
      "stateMutability": "view",
      "type": "function"
    },
    {
      "constant": true,
      "inputs": [],
      "name": "getUnlockedCollateral",
      "outputs": [
        {
          "internalType": "uint256",
          "name": "",
          "type": "uint256"
        }
      ],
      "payable": false,
      "stateMutability": "view",
      "type": "function"
    },
    {
      "constant": true,
      "inputs": [
        {
          "internalType": "uint256",
          "name": "strikePrice",
          "type": "uint256"
        },
        {
          "internalType": "uint256",
          "name": "underlyingPrice",
          "type": "uint256"
        },
        {
          "internalType": "uint256",
          "name": "amount",
          "type": "uint256"
        },
        {
          "internalType": "uint8",
          "name": "optType",
          "type": "uint8"
        }
      ],
      "name": "calOptionsOccupied",
      "outputs": [
        {
          "internalType": "uint256",
          "name": "",
          "type": "uint256"
        }
      ],
      "payable": false,
      "stateMutability": "view",
      "type": "function"
    },
    {
      "constant": true,
      "inputs": [],
      "name": "getTotalCollateral",
      "outputs": [
        {
          "internalType": "uint256",
          "name": "",
          "type": "uint256"
        }
      ],
      "payable": false,
      "stateMutability": "view",
      "type": "function"
    },
    {
      "constant": true,
      "inputs": [
        {
          "internalType": "address",
          "name": "settlement",
          "type": "address"
        }
      ],
      "name": "getRealBalance",
      "outputs": [
        {
          "internalType": "int256",
          "name": "",
          "type": "int256"
        }
      ],
      "payable": false,
      "stateMutability": "view",
      "type": "function"
    },
    {
      "constant": true,
      "inputs": [
        {
          "internalType": "address",
          "name": "settlement",
          "type": "address"
        }
      ],
      "name": "getNetWorthBalance",
      "outputs": [
        {
          "internalType": "uint256",
          "name": "",
          "type": "uint256"
        }
      ],
      "payable": false,
      "stateMutability": "view",
      "type": "function"
    },
    {
      "constant": true,
      "inputs": [],
      "name": "calculateCollateralRate",
      "outputs": [
        {
          "internalType": "uint256",
          "name": "",
          "type": "uint256"
        }
      ],
      "payable": false,
      "stateMutability": "view",
      "type": "function"
    }
  ],
  "bytecode": "0x60806040819052600080546c0c9f2c9cd04674edea40000000600190815560646002556003805460ff199081169091556007805490911690911790556105dc600d556101f4600e55600160a860020a03191661010033810291909117808355600160a060020a0391900416917f8be0079c531659141344cd1fd0a4f28419497f9722a3daafe3b4186f6b6457e0908290a36137198061009f6000396000f3fe6080604052600436106102815760003560e060020a900480638da5cb5b11610153578063c5e5a3ed116100c5578063e7122ffd1161007e578063e7122ffd14610963578063e7cd4a0414610996578063f2fde38b146109c9578063f4954387146109fc578063f4fdc0c214610a28578063fb1052bf14610a6157610281565b8063c5e5a3ed146108e5578063cd405819146108fa578063d6eb59101461090f578063d7e5799214610924578063dab5512914610939578063e28a327d1461094e57610281565b8063a56ea40311610117578063a56ea403146107e6578063b18b78dd14610819578063b4d5a9c71461082e578063bc9abed214610869578063c040725a14610897578063c219043b146108ac57610281565b80638da5cb5b146107205780638f32d59b146107355780639ab91a351461074a578063a093e2d01461077a578063a20a8045146107ad57610281565b806342049a72116101f75780636c64edee116101b05780636c64edee146106235780636d75b9ee1461064f578063715018a61461067b57806377e071ad14610690578063813b5d4b146106c3578063817bf86d146106ed57610281565b806342049a7214610509578063447dbeac1461053c5780634c69c00f1461056f5780634cbf6302146105a25780635ca4b73b146105db5780636b6ecea8146105f057610281565b80631a5a3fce116102495780631a5a3fce146103b35780632042e5c2146103e6578063251e2fe31461042d57806332c82a5f1461045e5780633daba0d71461049d5780633e5beab9146104d657610281565b8063095ea7b31461028657806309a9d76c146102c15780630aaf3832146103265780630c80d6911461034d5780631730b3cb14610380575b600080fd5b34801561029257600080fd5b506102bf600480360360408110156102a957600080fd5b50600160a060020a038135169060200135610a76565b005b3480156102cd57600080fd5b506102d6610adc565b60408051602080825283518183015283519192839290830191858101910280838360005b838110156103125781810151838201526020016102fa565b505050509050019250505060405180910390f35b34801561033257600080fd5b5061033b610b3f565b60408051918252519081900360200190f35b34801561035957600080fd5b5061033b6004803603602081101561037057600080fd5b5035600160a060020a0316610b5e565b34801561038c57600080fd5b506102bf600480360360208110156103a357600080fd5b5035600160a060020a0316610bfa565b3480156103bf57600080fd5b506102bf600480360360208110156103d657600080fd5b5035600160a060020a0316610c73565b3480156103f257600080fd5b506104196004803603602081101561040957600080fd5b5035600160a060020a0316610cec565b604080519115158252519081900360200190f35b34801561043957600080fd5b50610442610d68565b60408051600160a060020a039092168252519081900360200190f35b34801561046a57600080fd5b5061033b6004803603608081101561048157600080fd5b508035906020810135906040810135906060013560ff16610d77565b3480156104a957600080fd5b50610419600480360360408110156104c057600080fd5b50600160a060020a038135169060200135610da9565b3480156104e257600080fd5b5061033b600480360360208110156104f957600080fd5b5035600160a060020a0316610ddd565b34801561051557600080fd5b5061033b6004803603602081101561052c57600080fd5b5035600160a060020a0316610df8565b34801561054857600080fd5b5061033b6004803603602081101561055f57600080fd5b5035600160a060020a0316610e62565b34801561057b57600080fd5b506102bf6004803603602081101561059257600080fd5b5035600160a060020a0316610fa3565b3480156105ae57600080fd5b50610419600480360360408110156105c557600080fd5b50600160a060020a03813516906020013561101c565b3480156105e757600080fd5b5061044261103d565b3480156105fc57600080fd5b5061033b6004803603602081101561061357600080fd5b5035600160a060020a031661104c565b34801561062f57600080fd5b506102bf6004803603602081101561064657600080fd5b503515156110b6565b6102bf6004803603604081101561066557600080fd5b50600160a060020a038135169060200135611113565b34801561068757600080fd5b506102bf611653565b34801561069c57600080fd5b5061033b600480360360208110156106b357600080fd5b5035600160a060020a03166116f9565b3480156106cf57600080fd5b50610419600480360360208110156106e657600080fd5b5035611714565b3480156106f957600080fd5b506104196004803603602081101561071057600080fd5b5035600160a060020a031661172c565b34801561072c57600080fd5b5061044261179b565b34801561074157600080fd5b506104196117af565b34801561075657600080fd5b506102bf6004803603604081101561076d57600080fd5b50803590602001356117c5565b34801561078657600080fd5b506102bf6004803603602081101561079d57600080fd5b5035600160a060020a031661181a565b3480156107b957600080fd5b506102bf600480360360408110156107d057600080fd5b5080359060200135600160a060020a0316611893565b3480156107f257600080fd5b506102d66004803603602081101561080957600080fd5b5035600160a060020a0316611cf0565b34801561082557600080fd5b50610442611dde565b34801561083a57600080fd5b5061033b6004803603604081101561085157600080fd5b50600160a060020a0381358116916020013516611ded565b34801561087557600080fd5b5061087e611e92565b6040805192835260208301919091528051918290030190f35b3480156108a357600080fd5b50610442611e9c565b3480156108b857600080fd5b506102bf600480360360408110156108cf57600080fd5b50600160a060020a038135169060200135611eab565b3480156108f157600080fd5b5061033b611f11565b34801561090657600080fd5b5061033b611fd2565b34801561091b57600080fd5b5061033b612063565b34801561093057600080fd5b50610442612188565b34801561094557600080fd5b5061033b61219c565b34801561095a57600080fd5b5061033b61222b565b34801561096f57600080fd5b506102bf6004803603602081101561098657600080fd5b5035600160a060020a0316612238565b3480156109a257600080fd5b506102bf600480360360208110156109b957600080fd5b5035600160a060020a03166122b7565b3480156109d557600080fd5b506102bf600480360360208110156109ec57600080fd5b5035600160a060020a0316612332565b348015610a0857600080fd5b506102bf60048036036020811015610a1f57600080fd5b50351515612388565b348015610a3457600080fd5b506102bf60048036036040811015610a4b57600080fd5b50600160a060020a0381351690602001356123e5565b348015610a6d57600080fd5b5061033b612454565b610a7e6117af565b610ac0576040805160e560020a62461bcd0281526020600482018190526024820152600080516020613697833981519152604482015290519081900360640190fd5b600160a060020a03909116600090815260066020526040902055565b60606004805480602002602001604051908101604052809291908181526020018280548015610b3457602002820191906000526020600020905b8154600160a060020a03168152600190910190602001808311610b16575b505050505090505b90565b6000610b59610b4c612063565b610b54611fd2565b61254e565b905090565b600a54604080517f0c80d691000000000000000000000000000000000000000000000000000000008152600160a060020a03848116600483015291516000939290921691630c80d69191602480820192602092909190829003018186803b158015610bc857600080fd5b505afa158015610bdc573d6000803e3d6000fd5b505050506040513d6020811015610bf257600080fd5b505192915050565b610c026117af565b610c44576040805160e560020a62461bcd0281526020600482018190526024820152600080516020613697833981519152604482015290519081900360640190fd5b600a805473ffffffffffffffffffffffffffffffffffffffff1916600160a060020a0392909216919091179055565b610c7b6117af565b610cbd576040805160e560020a62461bcd0281526020600482018190526024820152600080516020613697833981519152604482015290519081900360640190fd5b6009805473ffffffffffffffffffffffffffffffffffffffff1916600160a060020a0392909216919091179055565b6000610cf66117af565b610d38576040805160e560020a62461bcd0281526020600482018190526024820152600080516020613697833981519152604482015290519081900360640190fd5b600160a060020a038216600090815260056020526040812055610d6260048363ffffffff61256416565b92915050565b600a54600160a060020a031690565b60008060ff8316158587111415610d915750848302610d96565b508383025b610d9f81612652565b9695505050505050565b60075460009060ff161580610dd65750600160a060020a0383166000908152600660205260409020548211155b9392505050565b600160a060020a031660009081526006602052604090205490565b600a54604080517f42049a72000000000000000000000000000000000000000000000000000000008152600160a060020a038481166004830152915160009392909216916342049a7291602480820192602092909190829003018186803b158015610bc857600080fd5b600754604080517f07e77aa0000000000000000000000000000000000000000000000000000000008152600160a060020a0384811660048301529151600093610d629361010090910416916307e77aa0916024808301926020929190829003018186803b158015610ed257600080fd5b505afa158015610ee6573d6000803e3d6000fd5b505050506040513d6020811015610efc57600080fd5b50516007546040805160e060020a6370a08231028152600160a060020a0387811660048301529151610f97936101009004909216916370a0823191602480820192602092909190829003018186803b158015610f5757600080fd5b505afa158015610f6b573d6000803e3d6000fd5b505050506040513d6020811015610f8157600080fd5b5051610f8b611f11565b9063ffffffff61266f16565b9063ffffffff6126c816565b610fab6117af565b610fed576040805160e560020a62461bcd0281526020600482018190526024820152600080516020613697833981519152604482015290519081900360640190fd5b6008805473ffffffffffffffffffffffffffffffffffffffff1916600160a060020a0392909216919091179055565b600160a060020a039190911660009081526005602052604090205481161490565b600b54600160a060020a031690565b600a54604080517f6b6ecea8000000000000000000000000000000000000000000000000000000008152600160a060020a03848116600483015291516000939290921691636b6ecea891602480820192602092909190829003018186803b158015610bc857600080fd5b6110be6117af565b611100576040805160e560020a62461bcd0281526020600482018190526024820152600080516020613697833981519152604482015290519081900360640190fd5b6007805460ff1916911515919091179055565b60005460ff161561112357600080fd5b6000805460ff1916600117905560035460ff161561118b576040805160e560020a62461bcd02815260206004820152601760248201527f5468697320636f6e74726163742069732068616c746564000000000000000000604482015290519081900360640190fd5b6111958282612723565b600a54604080517fc3c579cc000000000000000000000000000000000000000000000000000000008152600160a060020a03868116600483015260248201859052600360448301529151939450600093919092169163c3c579cc91606480830192602092919082900301818787803b15801561121057600080fd5b505af1158015611224573d6000803e3d6000fd5b505050506040513d602081101561123a57600080fd5b505191829003919050600061124e84612ab0565b600a54604080517f42049a720000000000000000000000000000000000000000000000000000000081523360048201819052915193945086850293611301936305f5e100928692600160a060020a03909216916342049a7291602480820192602092909190829003018186803b1580156112c757600080fd5b505afa1580156112db573d6000803e3d6000fd5b505050506040513d60208110156112f157600080fd5b505101816112fb57fe5b04610da9565b61133f5760405160e560020a62461bcd02815260040180806020018281038252602e8152602001806136b7602e913960400191505060405180910390fd5b6000611349611f11565b828161135157fe5b600a54604080517f692a76a7000000000000000000000000000000000000000000000000000000008152336004820152602481018790529051939092049350600160a060020a03169163692a76a79160448082019260009290919082900301818387803b1580156113c157600080fd5b505af11580156113d5573d6000803e3d6000fd5b5050600a54604080517f2b2d50c3000000000000000000000000000000000000000000000000000000008152600160a060020a038b81166004830152602482018b90529151919092169350632b2d50c39250604480830192600092919082900301818387803b15801561144757600080fd5b505af115801561145b573d6000803e3d6000fd5b5050600a54604080517fd56dbe88000000000000000000000000000000000000000000000000000000008152336004820152600160a060020a038b81166024830152604482018b9052915191909216935063d56dbe889250606480830192600092919082900301818387803b1580156114d357600080fd5b505af11580156114e7573d6000803e3d6000fd5b5050600a54604080517ffee80a49000000000000000000000000000000000000000000000000000000008152600160a060020a038b81166004830152602482018b9052915191909216935063fee80a499250604480830192600092919082900301818387803b15801561155957600080fd5b505af115801561156d573d6000803e3d6000fd5b505060408051888152602081018590528151600160a060020a038b1694503393507f33a089d94f9a0b7d0fe21e69b40d7dbe1965be652c7382cc778d46963db8c49b929181900390910190a3600754604080517f40c10f19000000000000000000000000000000000000000000000000000000008152336004820152602481018490529051610100909204600160a060020a0316916340c10f199160448082019260009290919082900301818387803b15801561162957600080fd5b505af115801561163d573d6000803e3d6000fd5b50506000805460ff191690555050505050505050565b61165b6117af565b61169d576040805160e560020a62461bcd0281526020600482018190526024820152600080516020613697833981519152604482015290519081900360640190fd5b60008054604051610100909104600160a060020a0316907f8be0079c531659141344cd1fd0a4f28419497f9722a3daafe3b4186f6b6457e0908390a36000805474ffffffffffffffffffffffffffffffffffffffff0019169055565b600160a060020a03166000908152600c602052604090205490565b60008160015410158015610d62575050600254111590565b6000610d6282600480548060200260200160405190810160405280929190818152602001828054801561178857602002820191906000526020600020905b8154600160a060020a0316815260019091019060200180831161176a575b5050505050612b6d90919063ffffffff16565b6000546101009004600160a060020a031690565b6000546101009004600160a060020a0316331490565b6117cd6117af565b61180f576040805160e560020a62461bcd0281526020600482018190526024820152600080516020613697833981519152604482015290519081900360640190fd5b600291909155600155565b6118226117af565b611864576040805160e560020a62461bcd0281526020600482018190526024820152600080516020613697833981519152604482015290519081900360640190fd5b600b805473ffffffffffffffffffffffffffffffffffffffff1916600160a060020a0392909216919091179055565b60005460ff16156118a357600080fd5b6000805460ff1916600117905560035460ff161561190b576040805160e560020a62461bcd02815260206004820152601760248201527f5468697320636f6e74726163742069732068616c746564000000000000000000604482015290519081900360640190fd5b81806001541015801561192057508060025411155b61195e5760405160e560020a62461bcd02815260040180806020018281038252602981526020018061364d6029913960400191505060405180910390fd5b61196982601061101c565b6119bd576040805160e560020a62461bcd02815260206004820152601f60248201527f736574746c656d656e7420697320756e737570706f7274656420746f6b656e00604482015290519081900360640190fd5b600754604080517f5935573600000000000000000000000000000000000000000000000000000000815233600482015290516000926101009004600160a060020a0316916359355736916024808301926020929190829003018186803b158015611a2657600080fd5b505afa158015611a3a573d6000803e3d6000fd5b505050506040513d6020811015611a5057600080fd5b50516007546040805160e060020a6370a082310281523360048201529051929350869284926101009004600160a060020a0316916370a08231916024808301926020929190829003018186803b158015611aa957600080fd5b505afa158015611abd573d6000803e3d6000fd5b505050506040513d6020811015611ad357600080fd5b5051011015611b2c576040805160e560020a62461bcd02815260206004820152601e60248201527f53436f696e2062616c616e636520697320696e73756666696369656e74210000604482015290519081900360640190fd5b6000611b3733610e62565b90506000611b43610b3f565b600754604080517f35f0c4fa000000000000000000000000000000000000000000000000000000008152336004820152602481018a905260448101849052815193945060009384936101009004600160a060020a0316926335f0c4fa926064808201939182900301818787803b158015611bbc57600080fd5b505af1158015611bd0573d6000803e3d6000fd5b505050506040513d6040811015611be657600080fd5b5080516020909101519803976000925090508715611c425791829003918415611c1e57848811611c17576000611c1b565b8488035b97505b600080611c2b8a86612bbc565b90925090508115611c3f5781935080830192505b50505b611c4d878286612c9b565b8115611cdc57600754604080517f9dc29fac000000000000000000000000000000000000000000000000000000008152336004820152602481018590529051610100909204600160a060020a031691639dc29fac9160448082019260009290919082900301818387803b158015611cc357600080fd5b505af1158015611cd7573d6000803e3d6000fd5b505050505b50506000805460ff19169055505050505050565b60606000611cfd83610e62565b9050606080611d6785846004805480602002602001604051908101604052809291908181526020018280548015611d5d57602002820191906000526020600020905b8154600160a060020a03168152600190910190602001808311611d3f575b5050505050612ebd565b50600454919350915060005b81811015611dd357611db4838281518110611d8a57fe5b6020026020010151858381518110611d9e57fe5b60200260200101516126c890919063ffffffff16565b848281518110611dc057fe5b6020908102919091010152600101611d73565b509195945050505050565b600854600160a060020a031690565b600a54604080517f6ba170b5000000000000000000000000000000000000000000000000000000008152600160a060020a038581166004830152848116602483015291516000939290921691636ba170b591604480820192602092909190829003018186803b158015611e5f57600080fd5b505afa158015611e73573d6000803e3d6000fd5b505050506040513d6020811015611e8957600080fd5b50519392505050565b6002546001549091565b600954600160a060020a031690565b611eb36117af565b611ef5576040805160e560020a62461bcd0281526020600482018190526024820152600080516020613697833981519152604482015290519081900360640190fd5b600160a060020a03909116600090815260056020526040902055565b600080600760019054906101000a9004600160a060020a0316600160a060020a03166318160ddd6040518163ffffffff1660e060020a02815260040160206040518083038186803b158015611f6557600080fd5b505afa158015611f79573d6000803e3d6000fd5b505050506040513d6020811015611f8f57600080fd5b5051905080611fa5576305f5e100915050610b3c565b600081611fb061219c565b81611fb757fe5b04905060648111611fc9576064611fcb565b805b9250505090565b600080600960009054906101000a9004600160a060020a0316600160a060020a03166373a3d4246040518163ffffffff1660e060020a02815260040160206040518083038186803b15801561202657600080fd5b505afa15801561203a573d6000803e3d6000fd5b505050506040513d602081101561205057600080fd5b5051905061205d81612652565b91505090565b6004546000908190815b818110156121715760006004828154811061208457fe5b6000918252602082200154600160a060020a031691506120a382612ab0565b600a54604080517f0c80d691000000000000000000000000000000000000000000000000000000008152600160a060020a03868116600483015291519394506000939190921691630c80d691916024808301926020929190829003018186803b15801561210f57600080fd5b505afa158015612123573d6000803e3d6000fd5b505050506040513d602081101561213957600080fd5b50519050801561216657612163612156838363ffffffff61327116565b879063ffffffff6132ca16565b95505b50505060010161206d565b506000821215612182576000611fcb565b50919050565b6007546101009004600160a060020a031690565b6000610b596121a9612063565b600760019054906101000a9004600160a060020a0316600160a060020a031663dad3eb746040518163ffffffff1660e060020a02815260040160206040518083038186803b1580156121fa57600080fd5b505afa15801561220e573d6000803e3d6000fd5b505050506040513d602081101561222457600080fd5b505161254e565b6000610b59610b4c61219c565b6122406117af565b612282576040805160e560020a62461bcd0281526020600482018190526024820152600080516020613697833981519152604482015290519081900360640190fd5b60078054600160a060020a039092166101000274ffffffffffffffffffffffffffffffffffffffff0019909216919091179055565b6122bf6117af565b612301576040805160e560020a62461bcd0281526020600482018190526024820152600080516020613697833981519152604482015290519081900360640190fd5b61231260048263ffffffff61332b16565b600160a060020a0316600090815260056020526040902063ffffffff9055565b61233a6117af565b61237c576040805160e560020a62461bcd0281526020600482018190526024820152600080516020613697833981519152604482015290519081900360640190fd5b612385816133cf565b50565b6123906117af565b6123d2576040805160e560020a62461bcd0281526020600482018190526024820152600080516020613697833981519152604482015290519081900360640190fd5b6003805460ff1916911515919091179055565b6123ed6117af565b61242f576040805160e560020a62461bcd0281526020600482018190526024820152600080516020613697833981519152604482015290519081900360640190fd5b612438826122b7565b600160a060020a039091166000908152600c6020526040902055565b60045460009081908190815b818110156125255760006004828154811061247757fe5b6000918252602082200154600160a060020a031691506124968261104c565b90506000811180156124bf5750600160a060020a0382166000908152600c602052604090205415155b1561251b57806124ce83612ab0565b0290506124e1868263ffffffff6126c816565b600160a060020a0383166000908152600c602052604090205490965061251890828161250957fe5b8791900463ffffffff6126c816565b94505b5050600101612460565b82156125405782848161253457fe5b04945050505050610b3c565b611388945050505050610b3c565b600081831161255e576000610dd6565b50900390565b8154600090815b818110156125b15783600160a060020a031685828154811061258957fe5b600091825260209091200154600160a060020a031614156125a9576125b1565b60010161256b565b818110156126475760018203811461262b578460018303815481106125d257fe5b9060005260206000200160009054906101000a9004600160a060020a03168582815481106125fc57fe5b9060005260206000200160006101000a815481600160a060020a030219169083600160a060020a031602179055505b845461263b8660001983016135c6565b50600192505050610d62565b506000949350505050565b60006103e882612660612454565b028161266857fe5b0492915050565b600081158061268a5750508082028282828161268757fe5b04145b610d625760405160e560020a62461bcd0281526004018080602001828103825260218152602001806136766021913960400191505060405180910390fd5b80820182811015610d62576040805160e560020a62461bcd02815260206004820152601b60248201527f536166654d6174683a206164646974696f6e206f766572666c6f770000000000604482015290519081900360640190fd5b600061273083600161101c565b612784576040805160e560020a62461bcd02815260206004820152601f60248201527f736574746c656d656e7420697320756e737570706f7274656420746f6b656e00604482015290519081900360640190fd5b600160a060020a0383166127d857600a54604051349350600160a060020a0390911690819084156108fc029085906000818181858888f193505050501580156127d1573d6000803e3d6000fd5b5050612a69565b8115612a69576040805160e060020a6370a0823102815230600482015290518491600091600160a060020a038416916370a08231916024808301926020929190829003018186803b15801561282c57600080fd5b505afa158015612840573d6000803e3d6000fd5b505050506040513d602081101561285657600080fd5b5051604080517f23b872dd000000000000000000000000000000000000000000000000000000008152336004820152306024820152604481018790529051919250600160a060020a038416916323b872dd916064808201926020929091908290030181600087803b1580156128ca57600080fd5b505af11580156128de573d6000803e3d6000fd5b505050506040513d60208110156128f457600080fd5b50506040805160e060020a6370a082310281523060048201529051600091600160a060020a038516916370a0823191602480820192602092909190829003018186803b15801561294357600080fd5b505afa158015612957573d6000803e3d6000fd5b505050506040513d602081101561296d57600080fd5b5051905081810385146129ca576040805160e560020a62461bcd02815260206004820181905260248201527f736574746c656d656e7420746f6b656e207472616e73666572206572726f7221604482015290519081900360640190fd5b600a54604080517fa9059cbb000000000000000000000000000000000000000000000000000000008152600160a060020a0392831660048201526024810188905290519185169163a9059cbb916044808201926020929091908290030181600087803b158015612a3957600080fd5b505af1158015612a4d573d6000803e3d6000fd5b505050506040513d6020811015612a6357600080fd5b50505050505b612a7282611714565b6121825760405160e560020a62461bcd02815260040180806020018281038252602981526020018061364d6029913960400191505060405180910390fd5b600854604080517f41976e09000000000000000000000000000000000000000000000000000000008152600160a060020a0384811660048301529151600093849316916341976e09916024808301926020929190829003018186803b158015612b1857600080fd5b505afa158015612b2c573d6000803e3d6000fd5b505050506040513d6020811015612b4257600080fd5b5051905060648110801590612b6457506c0c9f2c9cd04674edea400000008111155b610d6257600080fd5b8151600090815b818110156126475783600160a060020a0316858281518110612b9257fe5b6020026020010151600160a060020a03161415612bb457600192505050610d62565b600101612b74565b6000806000612bc9611f11565b905084810284811115612c8d576000828681612be157fe5b600754604080517f4b91a07b00000000000000000000000000000000000000000000000000000000815233600482015293909204808b03602485018190528781026044860152925190945086850293610100909204600160a060020a031691634b91a07b91606480830192600092919082900301818387803b158015612c6657600080fd5b505af1158015612c7a573d6000803e3d6000fd5b50949850929650612c9495505050505050565b8593509150505b9250929050565b81612ca557612eb8565b60408051600160a060020a038516815260208101849052815133927fc994feb9b99296d80965b47aec6be0d25704ddf95b9b9bc1ed8bc753960d5809928290030190a26060612cf38461348a565b90506060806060612d05338686612ebd565b925092509250600a60009054906101000a9004600160a060020a0316600160a060020a031663a2fa92c73388878787876040518763ffffffff1660e060020a0281526004018087600160a060020a0316600160a060020a0316815260200186815260200180602001806020018060200180602001858103855289818151815260200191508051906020019060200280838360005b83811015612db1578181015183820152602001612d99565b50505050905001858103845288818151815260200191508051906020019060200280838360005b83811015612df0578181015183820152602001612dd8565b50505050905001858103835287818151815260200191508051906020019060200280838360005b83811015612e2f578181015183820152602001612e17565b50505050905001858103825286818151815260200191508051906020019060200280838360005b83811015612e6e578181015183820152602001612e56565b505050509050019a5050505050505050505050600060405180830381600087803b158015612e9b57600080fd5b505af1158015612eaf573d6000803e3d6000fd5b50505050505050505b505050565b6060806060808451604051908082528060200260200182016040528015612eee578160200160208202803883390190505b50905060608551604051908082528060200260200182016040528015612f1e578160200160208202803883390190505b50905060005b8651811015612fc057612f4b878281518110612f3c57fe5b6020026020010151600261101c565b15612f8557612f6c878281518110612f5f57fe5b602002602001015161104c565b828281518110612f7857fe5b6020026020010181815250505b612fa1878281518110612f9457fe5b6020026020010151612ab0565b838281518110612fad57fe5b6020908102919091010152600101612f24565b50600a546040517f7a6a0277000000000000000000000000000000000000000000000000000000008152600160a060020a038a811660048301908152602483018b905260a0604484019081528a5160a48501528a516060958695941693637a6a0277938f938f938f938b938d93909290916064810191608482019160c401906020808a01910280838360005b8381101561306457818101518382015260200161304c565b50505050905001848103835286818151815260200191508051906020019060200280838360005b838110156130a357818101518382015260200161308b565b50505050905001848103825285818151815260200191508051906020019060200280838360005b838110156130e25781810151838201526020016130ca565b505050509050019850505050505050505060006040518083038186803b15801561310b57600080fd5b505afa15801561311f573d6000803e3d6000fd5b505050506040513d6000823e601f3d908101601f19168201604090815281101561314857600080fd5b810190808051604051939291908464010000000082111561316857600080fd5b90830190602082018581111561317d57600080fd5b825186602082028301116401000000008211171561319a57600080fd5b82525081516020918201928201910280838360005b838110156131c75781810151838201526020016131af565b50505050905001604052602001805160405193929190846401000000008211156131f057600080fd5b90830190602082018581111561320557600080fd5b825186602082028301116401000000008211171561322257600080fd5b82525081516020918201928201910280838360005b8381101561324f578181015183820152602001613237565b505050509190910160405250939e929d50969b50909950505050505050505050565b600081158061328c5750508082028282828161328957fe5b05145b610d625760405160e560020a62461bcd0281526004018080602001828103825260238152602001806136046023913960400191505060405180910390fd5b81810182811215600083121514610d62576040805160e560020a62461bcd02815260206004820152601d60248201527f53616665496e743235363a206164646974696f6e206f766572666c6f77000000604482015290519081900360640190fd5b61338e8280548060200260200160405190810160405280929190818152602001828054801561338357602002820191906000526020600020905b8154600160a060020a03168152600190910190602001808311613365575b505050505082612b6d565b6133cb57815460018101835560008381526020902001805473ffffffffffffffffffffffffffffffffffffffff1916600160a060020a0383161790555b5050565b600160a060020a0381166134175760405160e560020a62461bcd0281526004018080602001828103825260268152602001806136276026913960400191505060405180910390fd5b60008054604051600160a060020a038085169361010090930416917f8be0079c531659141344cd1fd0a4f28419497f9722a3daafe3b4186f6b6457e091a360008054600160a060020a039092166101000274ffffffffffffffffffffffffffffffffffffffff0019909216919091179055565b60608060048054806020026020016040519081016040528092919081815260200182805480156134e357602002820191906000526020600020905b8154600160a060020a031681526001909101906020018083116134c5575b5050505050905060006134f68285613575565b9050801561356e578160008151811061350b57fe5b602002602001015182828151811061351f57fe5b6020026020010190600160a060020a03169081600160a060020a031681525050838260008151811061354d57fe5b6020026020010190600160a060020a03169081600160a060020a0316815250505b5092915050565b8151600090815b818110156135be5783600160a060020a031685828151811061359a57fe5b6020026020010151600160a060020a031614156135b6576135be565b60010161357c565b949350505050565b815481835581811115612eb857600083815260209020612eb8918101908301610b3c91905b808211156135ff57600081556001016135eb565b509056fe53616665496e743235363a206d756c7469706c69636174696f6e206f766572666c6f774f776e61626c653a206e6577206f776e657220697320746865207a65726f2061646472657373696e70757420616d6f756e74206973206f7574206f6620696e70757420616d6f756e742072616e6765536166654d6174683a206d756c7469706c69636174696f6e206f766572666c6f774f776e61626c653a2063616c6c6572206973206e6f7420746865206f776e6572416c6c6f77616e636573203a2075736572277320616c6c6f77616e636520697320756e73756666696369656e7421a265627a7a72315820263a7b3c3db20e467c0ecaa57eccd2fc2ca5f0fe1cc09ccd68080fc8061c6d7964736f6c63430005100032",
  "source": "pragma solidity =0.5.16;\r\nimport \"../modules/SafeMath.sol\";\r\nimport \"../modules/SafeInt256.sol\";\r\nimport \"./ManagerData.sol\";\r\n/**\r\n * @title collateral calculate module\r\n * @dev A smart-contract which has operations of collateral and methods of calculate collateral occupation.\r\n *\r\n */\r\ncontract CollateralCal is ManagerData {\r\n    using SafeMath for uint256;\r\n    using SafeInt256 for int256;\r\n\r\n    /**\r\n     * @dev  The foundation owner want to set the minimum collateral occupation rate.\r\n     * @param collateral collateral coin address\r\n     * @param colRate The thousandths of the minimum collateral occupation rate.\r\n     */\r\n    function setCollateralRate(address collateral,uint256 colRate) public onlyOwner {\r\n        addWhiteList(collateral);\r\n        collateralRate[collateral] = colRate;\r\n//        collateralRate = colRate;\r\n\r\n    }\r\n    /**\r\n     * @dev Get the minimum collateral occupation rate.\r\n     */\r\n    function getCollateralRate(address collateral)public view returns (uint256) {\r\n        return collateralRate[collateral];\r\n    }\r\n    /**\r\n     * @dev Retrieve user's cost of collateral, priced in USD.\r\n     * @param user input retrieved account \r\n     */\r\n    function getUserPayingUsd(address user)public view returns (uint256){\r\n        return _collateralPool.getUserPayingUsd(user);\r\n        //userCollateralPaying[user];\r\n    }\r\n    /**\r\n     * @dev Retrieve user's amount of the specified collateral.\r\n     * @param user input retrieved account \r\n     * @param collateral input retrieved collateral coin address \r\n     */\r\n    function userInputCollateral(address user,address collateral)public view returns (uint256){\r\n        return _collateralPool.getUserInputCollateral(user,collateral);\r\n        //return userInputCollateral[user][collateral];\r\n    }\r\n\r\n    /**\r\n     * @dev Retrieve user's current total worth, priced in USD.\r\n     * @param account input retrieve account\r\n     */\r\n    function getUserTotalWorth(address account)public view returns (uint256){\r\n        return getTokenNetworth().mul(_FPTCoin.balanceOf(account)).add(_FPTCoin.lockedWorthOf(account));\r\n    }\r\n    /**\r\n     * @dev Retrieve FPTCoin's net worth, priced in USD.\r\n     */\r\n    function getTokenNetworth() public view returns (uint256){\r\n        uint256 _totalSupply = _FPTCoin.totalSupply();\r\n        if (_totalSupply == 0){\r\n            return 1e8;\r\n        }\r\n        uint256 netWorth = getUnlockedCollateral()/_totalSupply;\r\n        return netWorth>100 ? netWorth : 100;\r\n    }\r\n    /**\r\n     * @dev Deposit collateral in this pool from user.\r\n     * @param collateral The collateral coin address which is in whitelist.\r\n     * @param amount the amount of collateral to deposit.\r\n     */\r\n    function addCollateral(address collateral,uint256 amount) nonReentrant notHalted  public payable {\r\n        amount = getPayableAmount(collateral,amount);\r\n        uint256 fee = _collateralPool.addTransactionFee(collateral,amount,3);\r\n        amount = amount-fee;\r\n        uint256 price = oraclePrice(collateral);\r\n        uint256 userPaying = price*amount;\r\n        require(checkAllowance(msg.sender,(_collateralPool.getUserPayingUsd(msg.sender)+userPaying)/1e8),\r\n            \"Allowances : user's allowance is unsufficient!\");\r\n        uint256 mintAmount = userPaying/getTokenNetworth();\r\n        _collateralPool.addUserPayingUsd(msg.sender,userPaying);\r\n        _collateralPool.addCollateralBalance(collateral,amount);\r\n        _collateralPool.addUserInputCollateral(msg.sender,collateral,amount);\r\n         _collateralPool.addNetWorthBalance(collateral,int256(amount));\r\n        emit AddCollateral(msg.sender,collateral,amount,mintAmount);\r\n        _FPTCoin.mint(msg.sender,mintAmount);\r\n    }\r\n    /**\r\n     * @dev redeem collateral from this pool, user can input the prioritized collateral,he will get this coin,\r\n     * if this coin is unsufficient, he will get others collateral which in whitelist.\r\n     * @param tokenAmount the amount of FPTCoin want to redeem.\r\n     * @param collateral The prioritized collateral coin address.\r\n     */\r\n    function redeemCollateral(uint256 tokenAmount,address collateral) nonReentrant notHalted InRange(tokenAmount) public {\r\n        require(checkAddressPermission(collateral,allowRedeemCollateral) , \"settlement is unsupported token\");\r\n        uint256 lockedAmount = _FPTCoin.lockedBalanceOf(msg.sender);\r\n        require(_FPTCoin.balanceOf(msg.sender)+lockedAmount>=tokenAmount,\"SCoin balance is insufficient!\");\r\n        uint256 userTotalWorth = getUserTotalWorth(msg.sender);\r\n        uint256 leftCollateral = getLeftCollateral();\r\n        (uint256 burnAmount,uint256 redeemWorth) = _FPTCoin.redeemLockedCollateral(msg.sender,tokenAmount,leftCollateral);\r\n        tokenAmount -= burnAmount;\r\n        burnAmount = 0;\r\n        if (tokenAmount > 0){\r\n            leftCollateral -= redeemWorth;\r\n            \r\n            if (lockedAmount > 0){\r\n                tokenAmount = tokenAmount > lockedAmount ? tokenAmount - lockedAmount : 0;\r\n            }\r\n            (uint256 newRedeem,uint256 newWorth) = _redeemCollateral(tokenAmount,leftCollateral);\r\n            if(newRedeem>0){\r\n                burnAmount = newRedeem;\r\n                redeemWorth += newWorth;\r\n            }\r\n        }\r\n        _redeemCollateralWorth(collateral,redeemWorth,userTotalWorth);\r\n        if (burnAmount>0){\r\n            _FPTCoin.burn(msg.sender, burnAmount);\r\n        }\r\n    }\r\n    /**\r\n     * @dev The subfunction of redeem collateral.\r\n     * @param leftAmount the left amount of FPTCoin want to redeem.\r\n     * @param leftCollateral The left collateral which can be redeemed, priced in USD.\r\n     */\r\n    function _redeemCollateral(uint256 leftAmount,uint256 leftCollateral)internal returns (uint256,uint256){\r\n        uint256 tokenNetWorth = getTokenNetworth();\r\n        uint256 leftWorth = leftAmount*tokenNetWorth;        \r\n        if (leftWorth > leftCollateral){\r\n            uint256 newRedeem = leftCollateral/tokenNetWorth;\r\n            uint256 newWorth = newRedeem*tokenNetWorth;\r\n            uint256 locked = leftAmount - newRedeem;\r\n            _FPTCoin.addlockBalance(msg.sender,locked,locked*tokenNetWorth);\r\n            return (newRedeem,newWorth);\r\n        }\r\n        return (leftAmount,leftWorth);\r\n    }\r\n    /**\r\n     * @dev The auxiliary function of collateral calculation.\r\n     * @param collateral the prioritized collateral which user input.\r\n     * @return the collateral whitelist, in which the prioritized collateral is at the front.\r\n     */\r\n    function getTempWhiteList(address collateral) internal view returns (address[] memory) {\r\n        address[] memory tmpWhiteList = whiteList;\r\n        uint256 index = whiteListAddress._getEligibleIndexAddress(tmpWhiteList,collateral);\r\n        if (index != 0){\r\n            tmpWhiteList[index] = tmpWhiteList[0];\r\n            tmpWhiteList[0] = collateral;\r\n        }\r\n        return tmpWhiteList;\r\n    }\r\n    /**\r\n     * @dev The subfunction of redeem collateral. Calculate all redeem count and tranfer.\r\n     * @param collateral the prioritized collateral which user input.\r\n     * @param redeemWorth user redeem worth, priced in USD.\r\n     * @param userTotalWorth user total worth, priced in USD.\r\n     */\r\n    function _redeemCollateralWorth(address collateral,uint256 redeemWorth,uint256 userTotalWorth) internal {\r\n        if (redeemWorth == 0){\r\n            return;\r\n        }\r\n        emit RedeemCollateral(msg.sender,collateral,redeemWorth);\r\n        address[] memory tmpWhiteList = getTempWhiteList(collateral);\r\n        (uint256[] memory colBalances,uint256[] memory PremiumBalances,uint256[] memory prices) = \r\n                _getCollateralAndPremiumBalances(msg.sender,userTotalWorth,tmpWhiteList);\r\n        _collateralPool.transferPaybackBalances(msg.sender,redeemWorth,tmpWhiteList,colBalances,\r\n                PremiumBalances,prices);\r\n    }\r\n    /**\r\n     * @dev Retrieve user's collateral worth in all collateral coin. \r\n     * If user want to redeem all his collateral,and the vacant collateral is sufficient,\r\n     * He can redeem each collateral amount in return list.\r\n     * @param account the retrieve user's account;\r\n     */\r\n    function calCollateralWorth(address account)public view returns(uint256[] memory){\r\n        uint256 worth = getUserTotalWorth(account);\r\n        (uint256[] memory colBalances,uint256[] memory PremiumBalances,) = \r\n        _getCollateralAndPremiumBalances(account,worth,whiteList);\r\n        uint256 whiteLen = whiteList.length;\r\n        for (uint256 i=0; i<whiteLen;i++){\r\n            colBalances[i] = colBalances[i].add(PremiumBalances[i]);\r\n        }\r\n        return colBalances;\r\n    }\r\n    /**\r\n     * @dev The auxiliary function for redeem collateral calculation. \r\n     * @param account the retrieve user's account;\r\n     * @param userTotalWorth user's total worth, priced in USD.\r\n     * @param tmpWhiteList the collateral white list.\r\n     * @return user's total worth in each collateral, priced in USD.\r\n     */\r\n    function _getCollateralAndPremiumBalances(address account,uint256 userTotalWorth,address[] memory tmpWhiteList) internal view returns(uint256[] memory,uint256[] memory,uint256[] memory){\r\n        uint256[] memory prices = new uint256[](tmpWhiteList.length);\r\n        uint256[] memory netWorthBalances = new uint256[](tmpWhiteList.length);\r\n        for (uint256 i=0; i<tmpWhiteList.length;i++){\r\n            if (checkAddressPermission(tmpWhiteList[i],0x0002)){\r\n                netWorthBalances[i] = getNetWorthBalance(tmpWhiteList[i]);\r\n            }\r\n            prices[i] = oraclePrice(tmpWhiteList[i]);\r\n        }\r\n        (uint256[] memory colBalances,uint256[] memory PremiumBalances) = _collateralPool.getCollateralAndPremiumBalances(account,userTotalWorth,tmpWhiteList,\r\n                netWorthBalances,prices);\r\n        return (colBalances,PremiumBalances,prices);\r\n    } \r\n    /**\r\n     * @dev Retrieve the occupied collateral worth, multiplied by minimum collateral rate, priced in USD. \r\n     */\r\n    function getOccupiedCollateral() public view returns(uint256){\r\n        uint256 totalOccupied = _optionsPool.getTotalOccupiedCollateral();\r\n        return calculateCollateral(totalOccupied);\r\n    }\r\n    /**\r\n     * @dev Retrieve the available collateral worth, the worth of collateral which can used for buy options, priced in USD. \r\n     */\r\n    function getAvailableCollateral()public view returns(uint256){\r\n        return safeSubCollateral(getUnlockedCollateral(),getOccupiedCollateral());\r\n    }\r\n    /**\r\n     * @dev Retrieve the left collateral worth, the worth of collateral which can used for redeem collateral, priced in USD. \r\n     */\r\n    function getLeftCollateral()public view returns(uint256){\r\n        return safeSubCollateral(getTotalCollateral(),getOccupiedCollateral());\r\n    }\r\n    /**\r\n     * @dev Retrieve the unlocked collateral worth, the worth of collateral which currently used for options, priced in USD. \r\n     */\r\n    function getUnlockedCollateral()public view returns(uint256){\r\n        return safeSubCollateral(getTotalCollateral(),_FPTCoin.getTotalLockedWorth());\r\n    }\r\n    /**\r\n     * @dev The auxiliary function for collateral worth subtraction. \r\n     */\r\n    function safeSubCollateral(uint256 allCollateral,uint256 subCollateral)internal pure returns(uint256){\r\n        return allCollateral > subCollateral ? allCollateral - subCollateral : 0;\r\n    }\r\n    /**\r\n     * @dev The auxiliary function for calculate option occupied. \r\n     * @param strikePrice option's strike price\r\n     * @param underlyingPrice option's underlying price\r\n     * @param amount option's amount\r\n     * @param optType option's type, 0 for call, 1 for put.\r\n     */\r\n    function calOptionsOccupied(uint256 strikePrice,uint256 underlyingPrice,uint256 amount,uint8 optType)public view returns(uint256){\r\n        uint256 totalOccupied = 0;\r\n        if ((optType == 0) == (strikePrice>underlyingPrice)){ // call\r\n            totalOccupied = strikePrice*amount;\r\n        } else {\r\n            totalOccupied = underlyingPrice*amount;\r\n        }\r\n        return calculateCollateral(totalOccupied);\r\n    }\r\n    /**\r\n     * @dev Retrieve the total collateral worth, priced in USD. \r\n     */\r\n    function getTotalCollateral()public view returns(uint256){\r\n        int256 totalNum = 0;\r\n        uint whiteListLen = whiteList.length;\r\n        for (uint256 i=0;i<whiteListLen;i++){\r\n            address addr = whiteList[i];\r\n            int256 price = int256(oraclePrice(addr));\r\n            int256 netWorth = _collateralPool.getRealBalance(addr);\r\n            if (netWorth != 0){\r\n                totalNum = totalNum.add(price.mul(netWorth));\r\n            }\r\n        }\r\n        return totalNum>=0 ? uint256(totalNum) : 0;  \r\n    }\r\n    /**\r\n     * @dev Retrieve the balance of collateral, the auxiliary function for the total collateral calculation. \r\n     */\r\n    function getRealBalance(address settlement)public view returns(int256){\r\n        return _collateralPool.getRealBalance(settlement);\r\n    }\r\n    function getNetWorthBalance(address settlement)public view returns(uint256){\r\n        return _collateralPool.getNetWorthBalance(settlement);\r\n    }\r\n    /**\r\n     * @dev the auxiliary function for payback. \r\n     */\r\n    function _paybackWorth(uint256 worth,uint256 feeType) internal {\r\n        uint256 totalPrice = 0;\r\n        uint whiteLen = whiteList.length;\r\n        uint256[] memory balances = new uint256[](whiteLen);\r\n        uint256 i=0;\r\n        for(;i<whiteLen;i++){\r\n            address addr = whiteList[i];\r\n            if (checkAddressPermission(addr,allowSellOptions)){\r\n                uint256 price = oraclePrice(addr);\r\n                balances[i] = getNetWorthBalance(addr);\r\n                //balances[i] = netWorthBalances[addr];\r\n                totalPrice = totalPrice.add(price.mul(balances[i]));\r\n            }\r\n        }\r\n        require(totalPrice>=worth && worth > 0,\"payback settlement is insufficient!\");\r\n        for (i=0;i<whiteLen;i++){\r\n            uint256 _payBack = balances[i].mul(worth)/totalPrice;\r\n            _collateralPool.transferPaybackAndFee(msg.sender,whiteList[i],_payBack,feeType);\r\n            //addr = whiteList[i];\r\n            //netWorthBalances[addr] = balances[i].sub(_payBack);\r\n            //_transferPaybackAndFee(msg.sender,addr,_payBack,feeType);\r\n        } \r\n    }\r\n    /**\r\n     * @dev the auxiliary function for getting user's transer\r\n     */\r\n    function getPayableAmount(address settlement,uint256 settlementAmount) internal returns (uint256) {\r\n        require(checkAddressPermission(settlement,allowBuyOptions) , \"settlement is unsupported token\");\r\n        if (settlement == address(0)){\r\n            settlementAmount = msg.value;\r\n            address payable poolAddr = address(uint160(address(_collateralPool)));\r\n            poolAddr.transfer(settlementAmount);\r\n        }else if (settlementAmount > 0){\r\n            IERC20 oToken = IERC20(settlement);\r\n            uint256 preBalance = oToken.balanceOf(address(this));\r\n            oToken.transferFrom(msg.sender, address(this), settlementAmount);\r\n            uint256 afterBalance = oToken.balanceOf(address(this));\r\n            require(afterBalance-preBalance==settlementAmount,\"settlement token transfer error!\");\r\n            oToken.transfer(address(_collateralPool),settlementAmount);\r\n        }\r\n        require(isInputAmountInRange(settlementAmount),\"input amount is out of input amount range\");\r\n        return settlementAmount;\r\n    }\r\n    /**\r\n     * @dev collateral occupation rate calculation\r\n     *      collateral occupation rate = sum(collateral Rate * collateral balance) / sum(collateral balance)\r\n     */\r\n    function getCollateralAndRate()internal view returns (uint256,uint256){\r\n        int256 totalNum = 0;\r\n        uint256 totalCollateral = 0;\r\n        uint256 totalRate = 0;\r\n        uint whiteListLen = whiteList.length;\r\n        for (uint256 i=0;i<whiteListLen;i++){\r\n            address addr = whiteList[i];\r\n            int256 balance = _collateralPool.getRealBalance(addr);\r\n            if (balance != 0){\r\n                balance = balance*(int256(oraclePrice(addr)));\r\n                if (balance > 0 && collateralRate[addr] > 0){\r\n                    totalNum = totalNum.add(balance);\r\n                    totalCollateral = totalCollateral.add(uint256(balance));\r\n                    totalRate = totalRate.add(uint256(balance)/collateralRate[addr]);\r\n                } \r\n            }\r\n        }\r\n        if (totalRate > 0){\r\n            totalRate = totalCollateral/totalRate;\r\n        }else{\r\n            totalRate = 5000;\r\n        }\r\n        return (totalNum>=0 ? uint256(totalNum) : 0,totalRate);  \r\n    }\r\n    /**\r\n     * @dev collateral occupation rate calculation\r\n     *      collateral occupation rate = sum(collateral Rate * collateral balance) / sum(collateral balance)\r\n     */\r\n\r\n    function calculateCollateralRate()public view returns (uint256){\r\n        uint256 totalCollateral = 0;\r\n        uint256 totalRate = 0;\r\n        uint whiteLen = whiteList.length;\r\n        uint256 i=0;\r\n        for(;i<whiteLen;i++){\r\n            address addr = whiteList[i];\r\n            uint256 balance = getNetWorthBalance(addr);\r\n            if (balance > 0 && collateralRate[addr] > 0){\r\n                balance = oraclePrice(addr)*balance;\r\n                totalCollateral = totalCollateral.add(balance);\r\n                totalRate = totalRate.add(balance/collateralRate[addr]);\r\n            }\r\n        }\r\n        if (totalRate > 0){\r\n            return totalCollateral/totalRate;\r\n        }else{\r\n            return 5000;\r\n        }\r\n    }\r\n    /**\r\n     * @dev the auxiliary function for collateral calculation\r\n     */\r\n    function calculateCollateral(uint256 amount)internal view returns (uint256){\r\n        return calculateCollateralRate()*amount/1000;\r\n    }\r\n}",
  "sourcePath": "C:\\work\\solidity\\FinnexusOptions_V2\\contracts\\OptionsManager\\CollateralCal.sol",
  "compiler": {
    "name": "solc",
    "version": "0.5.16+commit.9c3226ce.Emscripten.clang"
  },
  "schemaVersion": "3.1.0",
  "updatedAt": "2020-10-21T03:26:50.342Z",
  "devdoc": {
    "details": "A smart-contract which has operations of collateral and methods of calculate collateral occupation.  ",
    "methods": {
      "addCollateral(address,uint256)": {
        "details": "Deposit collateral in this pool from user.",
        "params": {
          "amount": "the amount of collateral to deposit.",
          "collateral": "The collateral coin address which is in whitelist."
        }
      },
      "addWhiteList(address)": {
        "details": "Implementation of add an eligible address into the whitelist.",
        "params": {
          "addAddress": "new eligible address."
        }
      },
      "calCollateralWorth(address)": {
        "details": "Retrieve user's collateral worth in all collateral coin.  If user want to redeem all his collateral,and the vacant collateral is sufficient, He can redeem each collateral amount in return list.",
        "params": {
          "account": "the retrieve user's account;"
        }
      },
      "calOptionsOccupied(uint256,uint256,uint256,uint8)": {
        "details": "The auxiliary function for calculate option occupied. ",
        "params": {
          "amount": "option's amount",
          "optType": "option's type, 0 for call, 1 for put.",
          "strikePrice": "option's strike price",
          "underlyingPrice": "option's underlying price"
        }
      },
      "calculateCollateralRate()": {
        "details": "collateral occupation rate calculation     collateral occupation rate = sum(collateral Rate * collateral balance) / sum(collateral balance)"
      },
      "getAvailableCollateral()": {
        "details": "Retrieve the available collateral worth, the worth of collateral which can used for buy options, priced in USD. "
      },
      "getCollateralRate(address)": {
        "details": "Get the minimum collateral occupation rate."
      },
      "getInputAmountRange()": {
        "details": "get the valid range of input amount"
      },
      "getLeftCollateral()": {
        "details": "Retrieve the left collateral worth, the worth of collateral which can used for redeem collateral, priced in USD. "
      },
      "getOccupiedCollateral()": {
        "details": "Retrieve the occupied collateral worth, multiplied by minimum collateral rate, priced in USD. "
      },
      "getRealBalance(address)": {
        "details": "Retrieve the balance of collateral, the auxiliary function for the total collateral calculation. "
      },
      "getTokenNetworth()": {
        "details": "Retrieve FPTCoin's net worth, priced in USD."
      },
      "getTotalCollateral()": {
        "details": "Retrieve the total collateral worth, priced in USD. "
      },
      "getUnlockedCollateral()": {
        "details": "Retrieve the unlocked collateral worth, the worth of collateral which currently used for options, priced in USD. "
      },
      "getUserPayingUsd(address)": {
        "details": "Retrieve user's cost of collateral, priced in USD.",
        "params": {
          "user": "input retrieved account "
        }
      },
      "getUserTotalWorth(address)": {
        "details": "Retrieve user's current total worth, priced in USD.",
        "params": {
          "account": "input retrieve account"
        }
      },
      "getWhiteList()": {
        "details": "Implementation of getting the eligible whitelist."
      },
      "isEligibleAddress(address)": {
        "details": "Implementation of testing whether the input address is eligible.",
        "params": {
          "tmpAddress": "input address for testing."
        }
      },
      "isInputAmountInRange(uint256)": {
        "details": "Determine whether the input amount is within the valid range",
        "params": {
          "Amount": "Test value which is user input"
        }
      },
      "isOwner()": {
        "details": "Returns true if the caller is the current owner."
      },
      "owner()": {
        "details": "Returns the address of the current owner."
      },
      "redeemCollateral(uint256,address)": {
        "details": "redeem collateral from this pool, user can input the prioritized collateral,he will get this coin, if this coin is unsufficient, he will get others collateral which in whitelist.",
        "params": {
          "collateral": "The prioritized collateral coin address.",
          "tokenAmount": "the amount of FPTCoin want to redeem."
        }
      },
      "removeWhiteList(address)": {
        "details": "Implementation of revoke an invalid address from the whitelist.",
        "params": {
          "removeAddress": "revoked address."
        }
      },
      "renounceOwnership()": {
        "details": "Leaves the contract without owner. It will not be possible to call `onlyOwner` functions anymore. Can only be called by the current owner.      * NOTE: Renouncing ownership will leave the contract without an owner, thereby removing any functionality that is only available to the owner."
      },
      "setCollateralRate(address,uint256)": {
        "details": "The foundation owner want to set the minimum collateral occupation rate.",
        "params": {
          "colRate": "The thousandths of the minimum collateral occupation rate.",
          "collateral": "collateral coin address"
        }
      },
      "setInputAmountRange(uint256,uint256)": {
        "details": "set the valid range of input amount",
        "params": {
          "_maxAmount": "the maximum input amount limit",
          "_minAmount": "the minimum input amount limit"
        }
      },
      "transferOwnership(address)": {
        "details": "Transfers ownership of the contract to a new account (`newOwner`). Can only be called by the current owner."
      },
      "userInputCollateral(address,address)": {
        "details": "Retrieve user's amount of the specified collateral.",
        "params": {
          "collateral": "input retrieved collateral coin address ",
          "user": "input retrieved account "
        }
      }
    },
    "title": "collateral calculate module"
  },
  "userdoc": {
    "methods": {
      "approve(address,uint256)": {
        "notice": "     * Requirements:      * - `spender` cannot be the zero address."
      },
      "setHalt(bool)": {
        "notice": "function Emergency situation that requires contribution period to stop or not."
      }
    }
  }
}