{
  "contractName": "CollateralPool",
  "abi": [
    {
      "constant": true,
      "inputs": [
        {
          "name": "",
          "type": "address"
        }
      ],
      "name": "lockedBalances",
      "outputs": [
        {
          "name": "",
          "type": "uint256"
        }
      ],
      "payable": false,
      "stateMutability": "view",
      "type": "function"
    },
    {
      "constant": true,
      "inputs": [
        {
          "name": "tmpAddress",
          "type": "address"
        }
      ],
      "name": "checkAddressRedeemOut",
      "outputs": [
        {
          "name": "",
          "type": "bool"
        }
      ],
      "payable": false,
      "stateMutability": "view",
      "type": "function"
    },
    {
      "constant": true,
      "inputs": [],
      "name": "name",
      "outputs": [
        {
          "name": "",
          "type": "string"
        }
      ],
      "payable": false,
      "stateMutability": "view",
      "type": "function"
    },
    {
      "constant": false,
      "inputs": [
        {
          "name": "spender",
          "type": "address"
        },
        {
          "name": "amount",
          "type": "uint256"
        }
      ],
      "name": "approve",
      "outputs": [
        {
          "name": "",
          "type": "bool"
        }
      ],
      "payable": false,
      "stateMutability": "nonpayable",
      "type": "function"
    },
    {
      "constant": true,
      "inputs": [],
      "name": "getWhiteList",
      "outputs": [
        {
          "name": "",
          "type": "address[]"
        }
      ],
      "payable": false,
      "stateMutability": "view",
      "type": "function"
    },
    {
      "constant": true,
      "inputs": [
        {
          "name": "",
          "type": "address"
        }
      ],
      "name": "netWorthBalances",
      "outputs": [
        {
          "name": "",
          "type": "uint256"
        }
      ],
      "payable": false,
      "stateMutability": "view",
      "type": "function"
    },
    {
      "constant": true,
      "inputs": [],
      "name": "totalSupply",
      "outputs": [
        {
          "name": "",
          "type": "uint256"
        }
      ],
      "payable": false,
      "stateMutability": "view",
      "type": "function"
    },
    {
      "constant": false,
      "inputs": [
        {
          "name": "optionsPool",
          "type": "address"
        }
      ],
      "name": "setOptionsPoolAddress",
      "outputs": [],
      "payable": false,
      "stateMutability": "nonpayable",
      "type": "function"
    },
    {
      "constant": false,
      "inputs": [
        {
          "name": "removeAddress",
          "type": "address"
        }
      ],
      "name": "removeWhiteList",
      "outputs": [
        {
          "name": "",
          "type": "bool"
        }
      ],
      "payable": false,
      "stateMutability": "nonpayable",
      "type": "function"
    },
    {
      "constant": false,
      "inputs": [
        {
          "name": "sender",
          "type": "address"
        },
        {
          "name": "recipient",
          "type": "address"
        },
        {
          "name": "amount",
          "type": "uint256"
        }
      ],
      "name": "transferFrom",
      "outputs": [
        {
          "name": "",
          "type": "bool"
        }
      ],
      "payable": false,
      "stateMutability": "nonpayable",
      "type": "function"
    },
    {
      "constant": true,
      "inputs": [
        {
          "name": "",
          "type": "address"
        }
      ],
      "name": "balances",
      "outputs": [
        {
          "name": "",
          "type": "uint256"
        }
      ],
      "payable": false,
      "stateMutability": "view",
      "type": "function"
    },
    {
      "constant": true,
      "inputs": [
        {
          "name": "",
          "type": "address"
        }
      ],
      "name": "collateralBalances",
      "outputs": [
        {
          "name": "",
          "type": "uint256"
        }
      ],
      "payable": false,
      "stateMutability": "view",
      "type": "function"
    },
    {
      "constant": false,
      "inputs": [],
      "name": "redeemAll",
      "outputs": [],
      "payable": false,
      "stateMutability": "nonpayable",
      "type": "function"
    },
    {
      "constant": true,
      "inputs": [],
      "name": "decimals",
      "outputs": [
        {
          "name": "",
          "type": "uint8"
        }
      ],
      "payable": false,
      "stateMutability": "view",
      "type": "function"
    },
    {
      "constant": true,
      "inputs": [
        {
          "name": "feeType",
          "type": "uint256"
        },
        {
          "name": "amount",
          "type": "uint256"
        }
      ],
      "name": "calculateFee",
      "outputs": [
        {
          "name": "",
          "type": "uint256"
        }
      ],
      "payable": false,
      "stateMutability": "view",
      "type": "function"
    },
    {
      "constant": false,
      "inputs": [
        {
          "name": "spender",
          "type": "address"
        },
        {
          "name": "addedValue",
          "type": "uint256"
        }
      ],
      "name": "increaseAllowance",
      "outputs": [
        {
          "name": "",
          "type": "bool"
        }
      ],
      "payable": false,
      "stateMutability": "nonpayable",
      "type": "function"
    },
    {
      "constant": false,
      "inputs": [
        {
          "name": "oracle",
          "type": "address"
        }
      ],
      "name": "setOracleAddress",
      "outputs": [],
      "payable": false,
      "stateMutability": "nonpayable",
      "type": "function"
    },
    {
      "constant": true,
      "inputs": [],
      "name": "getBuyerMinerRate",
      "outputs": [
        {
          "name": "",
          "type": "uint256"
        }
      ],
      "payable": false,
      "stateMutability": "view",
      "type": "function"
    },
    {
      "constant": true,
      "inputs": [
        {
          "name": "",
          "type": "address"
        }
      ],
      "name": "feeBalances",
      "outputs": [
        {
          "name": "",
          "type": "uint256"
        }
      ],
      "payable": false,
      "stateMutability": "view",
      "type": "function"
    },
    {
      "constant": true,
      "inputs": [],
      "name": "collateralRate",
      "outputs": [
        {
          "name": "numerator",
          "type": "uint256"
        },
        {
          "name": "denominator",
          "type": "uint256"
        }
      ],
      "payable": false,
      "stateMutability": "view",
      "type": "function"
    },
    {
      "constant": true,
      "inputs": [],
      "name": "getFNXMinePoolAddress",
      "outputs": [
        {
          "name": "",
          "type": "address"
        }
      ],
      "payable": false,
      "stateMutability": "view",
      "type": "function"
    },
    {
      "constant": true,
      "inputs": [
        {
          "name": "",
          "type": "uint256"
        }
      ],
      "name": "whiteList",
      "outputs": [
        {
          "name": "",
          "type": "address"
        }
      ],
      "payable": false,
      "stateMutability": "view",
      "type": "function"
    },
    {
      "constant": false,
      "inputs": [
        {
          "name": "thousandths",
          "type": "uint256"
        }
      ],
      "name": "setBuyerMinerRate",
      "outputs": [],
      "payable": false,
      "stateMutability": "nonpayable",
      "type": "function"
    },
    {
      "constant": false,
      "inputs": [
        {
          "name": "fnxMinePool",
          "type": "address"
        }
      ],
      "name": "setFNXMinePoolAddress",
      "outputs": [],
      "payable": false,
      "stateMutability": "nonpayable",
      "type": "function"
    },
    {
      "constant": true,
      "inputs": [
        {
          "name": "account",
          "type": "address"
        }
      ],
      "name": "balanceOf",
      "outputs": [
        {
          "name": "",
          "type": "uint256"
        }
      ],
      "payable": false,
      "stateMutability": "view",
      "type": "function"
    },
    {
      "constant": false,
      "inputs": [],
      "name": "renounceOwnership",
      "outputs": [],
      "payable": false,
      "stateMutability": "nonpayable",
      "type": "function"
    },
    {
      "constant": true,
      "inputs": [
        {
          "name": "tmpAddress",
          "type": "address"
        }
      ],
      "name": "isEligibleAddress",
      "outputs": [
        {
          "name": "",
          "type": "bool"
        }
      ],
      "payable": false,
      "stateMutability": "view",
      "type": "function"
    },
    {
      "constant": true,
      "inputs": [
        {
          "name": "",
          "type": "address"
        }
      ],
      "name": "lockedTotalWorth",
      "outputs": [
        {
          "name": "",
          "type": "uint256"
        }
      ],
      "payable": false,
      "stateMutability": "view",
      "type": "function"
    },
    {
      "constant": true,
      "inputs": [],
      "name": "owner",
      "outputs": [
        {
          "name": "",
          "type": "address"
        }
      ],
      "payable": false,
      "stateMutability": "view",
      "type": "function"
    },
    {
      "constant": true,
      "inputs": [],
      "name": "isOwner",
      "outputs": [
        {
          "name": "",
          "type": "bool"
        }
      ],
      "payable": false,
      "stateMutability": "view",
      "type": "function"
    },
    {
      "constant": false,
      "inputs": [
        {
          "name": "currency",
          "type": "address"
        }
      ],
      "name": "redeem",
      "outputs": [],
      "payable": false,
      "stateMutability": "nonpayable",
      "type": "function"
    },
    {
      "constant": true,
      "inputs": [],
      "name": "symbol",
      "outputs": [
        {
          "name": "",
          "type": "string"
        }
      ],
      "payable": false,
      "stateMutability": "view",
      "type": "function"
    },
    {
      "constant": false,
      "inputs": [
        {
          "name": "spender",
          "type": "address"
        },
        {
          "name": "subtractedValue",
          "type": "uint256"
        }
      ],
      "name": "decreaseAllowance",
      "outputs": [
        {
          "name": "",
          "type": "bool"
        }
      ],
      "payable": false,
      "stateMutability": "nonpayable",
      "type": "function"
    },
    {
      "constant": false,
      "inputs": [
        {
          "name": "recipient",
          "type": "address"
        },
        {
          "name": "amount",
          "type": "uint256"
        }
      ],
      "name": "transfer",
      "outputs": [
        {
          "name": "",
          "type": "bool"
        }
      ],
      "payable": false,
      "stateMutability": "nonpayable",
      "type": "function"
    },
    {
      "constant": true,
      "inputs": [],
      "name": "getOracleAddress",
      "outputs": [
        {
          "name": "",
          "type": "address"
        }
      ],
      "payable": false,
      "stateMutability": "view",
      "type": "function"
    },
    {
      "constant": false,
      "inputs": [
        {
          "name": "operator",
          "type": "address"
        }
      ],
      "name": "setOperator",
      "outputs": [],
      "payable": false,
      "stateMutability": "nonpayable",
      "type": "function"
    },
    {
      "constant": true,
      "inputs": [],
      "name": "halted",
      "outputs": [
        {
          "name": "",
          "type": "bool"
        }
      ],
      "payable": false,
      "stateMutability": "view",
      "type": "function"
    },
    {
      "constant": true,
      "inputs": [
        {
          "name": "tmpAddress",
          "type": "address"
        }
      ],
      "name": "checkAddressPayIn",
      "outputs": [
        {
          "name": "",
          "type": "bool"
        }
      ],
      "payable": false,
      "stateMutability": "view",
      "type": "function"
    },
    {
      "constant": false,
      "inputs": [
        {
          "name": "feeType",
          "type": "uint256"
        },
        {
          "name": "numerator",
          "type": "uint256"
        },
        {
          "name": "denominator",
          "type": "uint256"
        }
      ],
      "name": "setTransactionFee",
      "outputs": [],
      "payable": false,
      "stateMutability": "nonpayable",
      "type": "function"
    },
    {
      "constant": true,
      "inputs": [],
      "name": "getOptionsPoolAddress",
      "outputs": [
        {
          "name": "",
          "type": "address"
        }
      ],
      "payable": false,
      "stateMutability": "view",
      "type": "function"
    },
    {
      "constant": false,
      "inputs": [
        {
          "name": "addAddress",
          "type": "address"
        },
        {
          "name": "permission",
          "type": "uint256"
        }
      ],
      "name": "modifyPermission",
      "outputs": [],
      "payable": false,
      "stateMutability": "nonpayable",
      "type": "function"
    },
    {
      "constant": true,
      "inputs": [
        {
          "name": "account",
          "type": "address"
        }
      ],
      "name": "getLockedBalance",
      "outputs": [
        {
          "name": "",
          "type": "uint256"
        },
        {
          "name": "",
          "type": "uint256"
        }
      ],
      "payable": false,
      "stateMutability": "view",
      "type": "function"
    },
    {
      "constant": true,
      "inputs": [
        {
          "name": "settlement",
          "type": "address"
        }
      ],
      "name": "getFeeBalance",
      "outputs": [
        {
          "name": "",
          "type": "uint256"
        }
      ],
      "payable": false,
      "stateMutability": "view",
      "type": "function"
    },
    {
      "constant": true,
      "inputs": [
        {
          "name": "feeType",
          "type": "uint256"
        }
      ],
      "name": "getFeeRate",
      "outputs": [
        {
          "name": "",
          "type": "uint256"
        },
        {
          "name": "",
          "type": "uint256"
        }
      ],
      "payable": false,
      "stateMutability": "view",
      "type": "function"
    },
    {
      "constant": true,
      "inputs": [
        {
          "name": "owner",
          "type": "address"
        },
        {
          "name": "spender",
          "type": "address"
        }
      ],
      "name": "allowance",
      "outputs": [
        {
          "name": "",
          "type": "uint256"
        }
      ],
      "payable": false,
      "stateMutability": "view",
      "type": "function"
    },
    {
      "constant": true,
      "inputs": [
        {
          "name": "",
          "type": "address"
        }
      ],
      "name": "userCollateralPaying",
      "outputs": [
        {
          "name": "",
          "type": "uint256"
        }
      ],
      "payable": false,
      "stateMutability": "view",
      "type": "function"
    },
    {
      "constant": true,
      "inputs": [
        {
          "name": "",
          "type": "uint256"
        }
      ],
      "name": "FeeRates",
      "outputs": [
        {
          "name": "numerator",
          "type": "uint256"
        },
        {
          "name": "denominator",
          "type": "uint256"
        }
      ],
      "payable": false,
      "stateMutability": "view",
      "type": "function"
    },
    {
      "constant": false,
      "inputs": [
        {
          "name": "addAddress",
          "type": "address"
        }
      ],
      "name": "addWhiteList",
      "outputs": [],
      "payable": false,
      "stateMutability": "nonpayable",
      "type": "function"
    },
    {
      "constant": true,
      "inputs": [],
      "name": "getOperator",
      "outputs": [
        {
          "name": "",
          "type": "address"
        }
      ],
      "payable": false,
      "stateMutability": "view",
      "type": "function"
    },
    {
      "constant": true,
      "inputs": [],
      "name": "getAllFeeBalances",
      "outputs": [
        {
          "name": "",
          "type": "address[]"
        },
        {
          "name": "",
          "type": "uint256[]"
        }
      ],
      "payable": false,
      "stateMutability": "view",
      "type": "function"
    },
    {
      "constant": false,
      "inputs": [
        {
          "name": "newOwner",
          "type": "address"
        }
      ],
      "name": "transferOwnership",
      "outputs": [],
      "payable": false,
      "stateMutability": "nonpayable",
      "type": "function"
    },
    {
      "constant": false,
      "inputs": [
        {
          "name": "halt",
          "type": "bool"
        }
      ],
      "name": "setHalt",
      "outputs": [],
      "payable": false,
      "stateMutability": "nonpayable",
      "type": "function"
    },
    {
      "anonymous": false,
      "inputs": [
        {
          "indexed": true,
          "name": "from",
          "type": "address"
        },
        {
          "indexed": true,
          "name": "collateral",
          "type": "address"
        },
        {
          "indexed": false,
          "name": "amount",
          "type": "uint256"
        },
        {
          "indexed": false,
          "name": "tokenAmount",
          "type": "uint256"
        }
      ],
      "name": "AddCollateral",
      "type": "event"
    },
    {
      "anonymous": false,
      "inputs": [
        {
          "indexed": true,
          "name": "from",
          "type": "address"
        },
        {
          "indexed": false,
          "name": "collateral",
          "type": "address"
        },
        {
          "indexed": false,
          "name": "allRedeem",
          "type": "uint256"
        }
      ],
      "name": "RedeemCollateral",
      "type": "event"
    },
    {
      "anonymous": false,
      "inputs": [
        {
          "indexed": true,
          "name": "value1",
          "type": "uint256"
        },
        {
          "indexed": true,
          "name": "value2",
          "type": "uint256"
        },
        {
          "indexed": true,
          "name": "value3",
          "type": "uint256"
        }
      ],
      "name": "DebugEvent",
      "type": "event"
    },
    {
      "anonymous": false,
      "inputs": [
        {
          "indexed": true,
          "name": "owner",
          "type": "address"
        },
        {
          "indexed": false,
          "name": "amount",
          "type": "uint256"
        },
        {
          "indexed": false,
          "name": "worth",
          "type": "uint256"
        }
      ],
      "name": "AddLocked",
      "type": "event"
    },
    {
      "anonymous": false,
      "inputs": [
        {
          "indexed": true,
          "name": "owner",
          "type": "address"
        },
        {
          "indexed": false,
          "name": "amount",
          "type": "uint256"
        },
        {
          "indexed": false,
          "name": "worth",
          "type": "uint256"
        }
      ],
      "name": "BurnLocked",
      "type": "event"
    },
    {
      "anonymous": false,
      "inputs": [
        {
          "indexed": true,
          "name": "recieptor",
          "type": "address"
        },
        {
          "indexed": true,
          "name": "settlement",
          "type": "address"
        },
        {
          "indexed": false,
          "name": "payback",
          "type": "uint256"
        }
      ],
      "name": "FeePayback",
      "type": "event"
    },
    {
      "anonymous": false,
      "inputs": [
        {
          "indexed": true,
          "name": "settlement",
          "type": "address"
        },
        {
          "indexed": false,
          "name": "payback",
          "type": "uint256"
        }
      ],
      "name": "AddFee",
      "type": "event"
    },
    {
      "anonymous": false,
      "inputs": [
        {
          "indexed": true,
          "name": "recieptor",
          "type": "address"
        },
        {
          "indexed": true,
          "name": "settlement",
          "type": "address"
        },
        {
          "indexed": false,
          "name": "payback",
          "type": "uint256"
        }
      ],
      "name": "TransferPayback",
      "type": "event"
    },
    {
      "anonymous": false,
      "inputs": [
        {
          "indexed": true,
          "name": "previousOwner",
          "type": "address"
        },
        {
          "indexed": true,
          "name": "newOwner",
          "type": "address"
        }
      ],
      "name": "OwnershipTransferred",
      "type": "event"
    },
    {
      "anonymous": false,
      "inputs": [
        {
          "indexed": true,
          "name": "from",
          "type": "address"
        },
        {
          "indexed": true,
          "name": "to",
          "type": "address"
        },
        {
          "indexed": false,
          "name": "value",
          "type": "uint256"
        }
      ],
      "name": "Transfer",
      "type": "event"
    },
    {
      "anonymous": false,
      "inputs": [
        {
          "indexed": true,
          "name": "owner",
          "type": "address"
        },
        {
          "indexed": true,
          "name": "spender",
          "type": "address"
        },
        {
          "indexed": false,
          "name": "value",
          "type": "uint256"
        }
      ],
      "name": "Approval",
      "type": "event"
    },
    {
      "constant": false,
      "inputs": [
        {
          "name": "numerator",
          "type": "uint256"
        },
        {
          "name": "denominator",
          "type": "uint256"
        }
      ],
      "name": "setCollateralRate",
      "outputs": [],
      "payable": false,
      "stateMutability": "nonpayable",
      "type": "function"
    },
    {
      "constant": true,
      "inputs": [],
      "name": "getCollateralRate",
      "outputs": [
        {
          "name": "",
          "type": "uint256"
        },
        {
          "name": "",
          "type": "uint256"
        }
      ],
      "payable": false,
      "stateMutability": "view",
      "type": "function"
    },
    {
      "constant": true,
      "inputs": [
        {
          "name": "user",
          "type": "address"
        }
      ],
      "name": "getUserPayingUsd",
      "outputs": [
        {
          "name": "",
          "type": "uint256"
        }
      ],
      "payable": false,
      "stateMutability": "view",
      "type": "function"
    },
    {
      "constant": true,
      "inputs": [
        {
          "name": "user",
          "type": "address"
        },
        {
          "name": "collateral",
          "type": "address"
        }
      ],
      "name": "userInputCollateral",
      "outputs": [
        {
          "name": "",
          "type": "uint256"
        }
      ],
      "payable": false,
      "stateMutability": "view",
      "type": "function"
    },
    {
      "constant": false,
      "inputs": [
        {
          "name": "calInfo",
          "type": "uint256"
        }
      ],
      "name": "setPhaseSharedPayment",
      "outputs": [],
      "payable": false,
      "stateMutability": "nonpayable",
      "type": "function"
    },
    {
      "constant": false,
      "inputs": [
        {
          "name": "calInfo",
          "type": "uint256"
        },
        {
          "name": "sharedBalances",
          "type": "int256[]"
        },
        {
          "name": "prices",
          "type": "uint256[]"
        },
        {
          "name": "firstOption",
          "type": "uint256"
        },
        {
          "name": "calTime",
          "type": "uint256"
        }
      ],
      "name": "setSharedPayment",
      "outputs": [],
      "payable": false,
      "stateMutability": "nonpayable",
      "type": "function"
    },
    {
      "constant": true,
      "inputs": [
        {
          "name": "account",
          "type": "address"
        }
      ],
      "name": "getUserTotalWorth",
      "outputs": [
        {
          "name": "",
          "type": "uint256"
        }
      ],
      "payable": false,
      "stateMutability": "view",
      "type": "function"
    },
    {
      "constant": true,
      "inputs": [],
      "name": "getTokenNetworth",
      "outputs": [
        {
          "name": "",
          "type": "uint256"
        }
      ],
      "payable": false,
      "stateMutability": "view",
      "type": "function"
    },
    {
      "constant": false,
      "inputs": [
        {
          "name": "collateral",
          "type": "address"
        },
        {
          "name": "amount",
          "type": "uint256"
        }
      ],
      "name": "addCollateral",
      "outputs": [],
      "payable": true,
      "stateMutability": "payable",
      "type": "function"
    },
    {
      "constant": false,
      "inputs": [
        {
          "name": "tokenAmount",
          "type": "uint256"
        },
        {
          "name": "collateral",
          "type": "address"
        }
      ],
      "name": "redeemCollateral",
      "outputs": [],
      "payable": false,
      "stateMutability": "nonpayable",
      "type": "function"
    },
    {
      "constant": true,
      "inputs": [
        {
          "name": "account",
          "type": "address"
        }
      ],
      "name": "calCollateralWorth",
      "outputs": [
        {
          "name": "",
          "type": "uint256[]"
        }
      ],
      "payable": false,
      "stateMutability": "view",
      "type": "function"
    },
    {
      "constant": true,
      "inputs": [],
      "name": "getOccupiedCollateral",
      "outputs": [
        {
          "name": "",
          "type": "uint256"
        }
      ],
      "payable": false,
      "stateMutability": "view",
      "type": "function"
    },
    {
      "constant": true,
      "inputs": [],
      "name": "getAvailableCollateral",
      "outputs": [
        {
          "name": "",
          "type": "uint256"
        }
      ],
      "payable": false,
      "stateMutability": "view",
      "type": "function"
    },
    {
      "constant": true,
      "inputs": [],
      "name": "getLeftCollateral",
      "outputs": [
        {
          "name": "",
          "type": "uint256"
        }
      ],
      "payable": false,
      "stateMutability": "view",
      "type": "function"
    },
    {
      "constant": true,
      "inputs": [
        {
          "name": "strikePrice",
          "type": "uint256"
        },
        {
          "name": "underlyingPrice",
          "type": "uint256"
        },
        {
          "name": "amount",
          "type": "uint256"
        },
        {
          "name": "optType",
          "type": "uint8"
        }
      ],
      "name": "calOptionsOccupied",
      "outputs": [
        {
          "name": "",
          "type": "uint256"
        }
      ],
      "payable": false,
      "stateMutability": "view",
      "type": "function"
    },
    {
      "constant": true,
      "inputs": [],
      "name": "getUnlockedCollateral",
      "outputs": [
        {
          "name": "",
          "type": "uint256"
        }
      ],
      "payable": false,
      "stateMutability": "view",
      "type": "function"
    },
    {
      "constant": true,
      "inputs": [],
      "name": "getTotalCollateral",
      "outputs": [
        {
          "name": "",
          "type": "uint256"
        }
      ],
      "payable": false,
      "stateMutability": "view",
      "type": "function"
    }
  ],
  "bytecode": "0x6000805460ff191681556003556004805460a060020a60ff021916905560c0604052600a60808190527f536861726564436f696e0000000000000000000000000000000000000000000060a09081526200005d91600b919062000243565b506040805180820190915260058082527f53436f696e0000000000000000000000000000000000000000000000000000006020909201918252620000a491600c9162000243565b506000600d81905560408051808201825260038082526001602090920182905260135560145560048054600160a060020a0319163317908190559051600160a060020a039190911691907f8be0079c531659141344cd1fd0a4f28419497f9722a3daafe3b4186f6b6457e0908290a360408051808201825260038082526103e8602080840182815260088054600181810183556000838152975160029283027ff3f7a9fe364faab93b216da50a3214154f22a0a2b415b23a84c8169e8b636ee38181019290925594517ff3f7a9fe364faab93b216da50a3214154f22a0a2b415b23a84c8169e8b636ee4958601558951808b018b5288815280870188815285548085018755868c5291519185028084019290925551908601558951808b018b5288815280870188815285548085018755868c5291519185028084019290925551908601558951808b018b5288815280870188815285548085018755868c5291519185028084019290925551908601558951808b01909a5296895293880194855281549384018255955294519302918201929092559051910155620002e8565b828054600181600116156101000203166002900490600052602060002090601f016020900481019282601f106200028657805160ff1916838001178555620002b6565b82800160010185558215620002b6579182015b82811115620002b657825182559160200191906001019062000299565b50620002c4929150620002c8565b5090565b620002e591905b80821115620002c45760008155600101620002cf565b90565b614bd080620002f86000396000f3006080604052600436106103135763ffffffff60e060020a6000350416630483a7f68114610318578063059621d71461034b57806306fdde0314610380578063095ea7b31461040a57806309a9d76c1461042e5780630aaf3832146104935780630ecfad1e146104a857806318160ddd146104c95780631a5a3fce146104de5780632042e5c21461050157806323b872dd1461052257806327e235e31461054c57806329bc969d1461056d5780632f4350c21461058e578063313ce567146105a357806332c82a5f146105ce57806334e73122146105f2578063395093511461060d57806342049a7214610631578063447dbeac146106525780634c69c00f1461067357806352bf0aa31461069457806353afc025146106a957806358a6be1c146106ca57806359653ec9146106f85780635c475d421461072957806360ee0d38146107415780636d75b9ee146107595780636f2b70cd1461077057806370a0823114610791578063715018a6146107b2578063817bf86d146107c757806381ee8a2e146107e8578063852185fc146108095780638da5cb5b1461081e5780638f32d59b1461083357806395a2251f1461084857806395d89b4114610869578063a04115f61461087e578063a20a804514610896578063a457c2d7146108ba578063a56ea403146108de578063a9059cbb146108ff578063b18b78dd14610923578063b3ab15fb14610938578063b4d5a9c714610959578063b9b8af0b14610980578063bdac4bf614610995578063bf36b110146109b6578063c040725a146109d4578063c219043b146109e9578063c408689314610a0d578063c5e5a3ed14610a2e578063c78f680314610a43578063c7e2f8bd14610a64578063cd40581914610b00578063d2aaef4e14610b15578063d6eb591014610b2d578063dab5512914610b42578063dd62ed3e14610b57578063ddb944e514610b7e578063e0561aa114610b9f578063e28a327d14610bb7578063e7cd4a0414610bcc578063e7f43c6814610bed578063ef63e1f714610c02578063f20568cd14610c1d578063f2fde38b14610ccb578063f495438714610cec575b600080fd5b34801561032457600080fd5b50610339600160a060020a0360043516610d06565b60408051918252519081900360200190f35b34801561035757600080fd5b5061036c600160a060020a0360043516610d18565b604080519115158252519081900360200190f35b34801561038c57600080fd5b50610395610d50565b6040805160208082528351818301528351919283929083019185019080838360005b838110156103cf5781810151838201526020016103b7565b50505050905090810190601f1680156103fc5780820380516001836020036101000a031916815260200191505b509250505060405180910390f35b34801561041657600080fd5b5061036c600160a060020a0360043516602435610dde565b34801561043a57600080fd5b50610443610df4565b60408051602080825283518183015283519192839290830191858101910280838360005b8381101561047f578181015183820152602001610467565b505050509050019250505060405180910390f35b34801561049f57600080fd5b50610339610e57565b3480156104b457600080fd5b50610339600160a060020a0360043516610e7d565b3480156104d557600080fd5b50610339610e8f565b3480156104ea57600080fd5b506104ff600160a060020a0360043516610e95565b005b34801561050d57600080fd5b5061036c600160a060020a0360043516610f03565b34801561052e57600080fd5b5061036c600160a060020a0360043581169060243516604435610f5c565b34801561055857600080fd5b50610339600160a060020a0360043516611050565b34801561057957600080fd5b50610339600160a060020a0360043516611062565b34801561059a57600080fd5b506104ff611074565b3480156105af57600080fd5b506105b8611107565b6040805160ff9092168252519081900360200190f35b3480156105da57600080fd5b5061033960043560243560443560ff6064351661110c565b3480156105fe57600080fd5b5061033960043560243561115a565b34801561061957600080fd5b5061036c600160a060020a03600435166024356111a1565b34801561063d57600080fd5b50610339600160a060020a03600435166111e2565b34801561065e57600080fd5b50610339600160a060020a03600435166111fd565b34801561067f57600080fd5b506104ff600160a060020a036004351661124a565b3480156106a057600080fd5b506103396112b8565b3480156106b557600080fd5b50610339600160a060020a03600435166112be565b3480156106d657600080fd5b506106df6112d0565b6040805192835260208301919091528051918290030190f35b34801561070457600080fd5b5061070d6112d9565b60408051600160a060020a039092168252519081900360200190f35b34801561073557600080fd5b5061070d6004356112e8565b34801561074d57600080fd5b506104ff600435611310565b6104ff600160a060020a0360043516602435611361565b34801561077c57600080fd5b506104ff600160a060020a03600435166115fc565b34801561079d57600080fd5b50610339600160a060020a036004351661166a565b3480156107be57600080fd5b506104ff611685565b3480156107d357600080fd5b5061036c600160a060020a036004351661171b565b3480156107f457600080fd5b50610339600160a060020a0360043516611781565b34801561081557600080fd5b506106df611793565b34801561082a57600080fd5b5061070d61179d565b34801561083f57600080fd5b5061036c6117ac565b34801561085457600080fd5b506104ff600160a060020a03600435166117bd565b34801561087557600080fd5b506103956119ad565b34801561088a57600080fd5b506104ff600435611a08565b3480156108a257600080fd5b506104ff600435600160a060020a0360243516611df2565b3480156108c657600080fd5b5061036c600160a060020a0360043516602435611f69565b3480156108ea57600080fd5b50610443600160a060020a0360043516612002565b34801561090b57600080fd5b5061036c600160a060020a03600435166024356120b9565b34801561092f57600080fd5b5061070d6121a9565b34801561094457600080fd5b506104ff600160a060020a03600435166121b8565b34801561096557600080fd5b50610339600160a060020a0360043581169060243516612226565b34801561098c57600080fd5b5061036c612251565b3480156109a157600080fd5b5061036c600160a060020a0360043516612272565b3480156109c257600080fd5b506104ff6004356024356044356122a6565b3480156109e057600080fd5b5061070d61230a565b3480156109f557600080fd5b506104ff600160a060020a0360043516602435612319565b348015610a1957600080fd5b506106df600160a060020a0360043516612381565b348015610a3a57600080fd5b506103396123a9565b348015610a4f57600080fd5b50610339600160a060020a03600435166123db565b348015610a7057600080fd5b506040805160206004602480358281013584810280870186019097528086526104ff96843596369660449591949091019291829185019084908082843750506040805187358901803560208181028481018201909552818452989b9a9989019892975090820195509350839250850190849080828437509497505084359550505060209092013591506123f69050565b348015610b0c57600080fd5b5061033961266e565b348015610b2157600080fd5b506106df600435612702565b348015610b3957600080fd5b50610339612723565b348015610b4e57600080fd5b50610339612841565b348015610b6357600080fd5b50610339600160a060020a0360043581169060243516612851565b348015610b8a57600080fd5b50610339600160a060020a036004351661287c565b348015610bab57600080fd5b506106df60043561288e565b348015610bc357600080fd5b506103396128ba565b348015610bd857600080fd5b506104ff600160a060020a03600435166128cf565b348015610bf957600080fd5b5061070d612946565b348015610c0e57600080fd5b506104ff600435602435612955565b348015610c2957600080fd5b50610c326129ac565b604051808060200180602001838103835285818151815260200191508051906020019060200280838360005b83811015610c76578181015183820152602001610c5e565b50505050905001838103825284818151815260200191508051906020019060200280838360005b83811015610cb5578181015183820152602001610c9d565b5050505090500194505050505060405180910390f35b348015610cd757600080fd5b506104ff600160a060020a0360043516612ab5565b348015610cf857600080fd5b506104ff6004351515612b0a565b600e6020526000908152604090205481565b6000610d238261171b565b8015610d4a5750600160a060020a0382166000908152600660205260409020546002908116145b92915050565b600b805460408051602060026001851615610100026000190190941693909304601f81018490048402820184019092528181529291830182828015610dd65780601f10610dab57610100808354040283529160200191610dd6565b820191906000526020600020905b815481529060010190602001808311610db957829003601f168201915b505050505081565b6000610deb338484612b96565b50600192915050565b60606005805480602002602001604051908101604052809291908181526020018280548015610e4c57602002820191906000526020600020905b8154600160a060020a03168152600190910190602001808311610e2e575b505050505090505b90565b6000610e78610e6461266e565b610e6c612723565b9063ffffffff612d0316565b905090565b60156020526000908152604090205481565b60035490565b610e9d6117ac565b1515610ee1576040805160e560020a62461bcd0281526020600482018190526024820152600080516020614b65833981519152604482015290519081900360640190fd5b60118054600160a060020a031916600160a060020a0392909216919091179055565b6000610f0d6117ac565b1515610f51576040805160e560020a62461bcd0281526020600482018190526024820152600080516020614b65833981519152604482015290519081900360640190fd5b610d4a600583612d45565b600954600090600160a060020a03161515610faf576040805160e560020a62461bcd0281526020600482015260166024820152600080516020614b85833981519152604482015290519081900360640190fd5b600954604080517fef56807f000000000000000000000000000000000000000000000000000000008152600160a060020a0387811660048301528681166024830152604482018690529151919092169163ef56807f91606480830192600092919082900301818387803b15801561102557600080fd5b505af1158015611039573d6000803e3d6000fd5b50505050611048848484612e32565b949350505050565b60016020526000908152604090205481565b60166020526000908152604090205481565b600061107e6117ac565b15156110c2576040805160e560020a62461bcd0281526020600482018190526024820152600080516020614b65833981519152604482015290519081900360640190fd5b5060005b600554811015611104576110fc6005828154811015156110e257fe5b600091825260209091200154600160a060020a03166117bd565b6001016110c6565b50565b601281565b60008060ff83161585871114156111345761112d868563ffffffff612ee016565b9050611147565b611144858563ffffffff612ee016565b90505b61115081612f8a565b9695505050505050565b600080600061116885612fb9565b805490925061117d908563ffffffff612ee016565b905061119682600101548261303890919063ffffffff16565b92505b505092915050565b336000818152600260209081526040808320600160a060020a03871684529091528120549091610deb9185906111dd908663ffffffff61307a16565b612b96565b600160a060020a031660009081526017602052604090205490565b600160a060020a0381166000908152600f60209081526040808320546001909252822054610d4a919061123e906112326123a9565b9063ffffffff612ee016565b9063ffffffff61307a16565b6112526117ac565b1515611296576040805160e560020a62461bcd0281526020600482018190526024820152600080516020614b65833981519152604482015290519081900360640190fd5b60108054600160a060020a031916600160a060020a0392909216919091179055565b600a5490565b60076020526000908152604090205481565b60135460145482565b600954600160a060020a031690565b60058054829081106112f657fe5b600091825260209091200154600160a060020a0316905081565b6113186117ac565b151561135c576040805160e560020a62461bcd0281526020600482018190526024820152600080516020614b65833981519152604482015290519081900360640190fd5b600a55565b60008060008061137186866130d7565b9450600085116113cb576040805160e560020a62461bcd02815260206004820152601a60248201527f736574746c656d656e7420616d6f756e74206973207a65726f21000000000000604482015290519081900360640190fd5b6113d660038661115a565b93506113e2868561320a565b6113f2858563ffffffff612d0316565b601054604080517f41976e09000000000000000000000000000000000000000000000000000000008152600160a060020a038a8116600483015291519398509116916341976e09916024808201926020929091908290030181600087803b15801561145c57600080fd5b505af1158015611470573d6000803e3d6000fd5b505050506040513d602081101561148657600080fd5b5051925061149a838663ffffffff612ee016565b91506114b46114a76123a9565b839063ffffffff61303816565b336000908152601760205260409020549091506114d7908363ffffffff61307a16565b33600090815260176020908152604080832093909355600160a060020a038916825260169052205461150f908663ffffffff61307a16565b600160a060020a03871660008181526016602090815260408083209490945533825260188152838220928252919091522054611551908663ffffffff61307a16565b336000908152601860209081526040808320600160a060020a038b16845282528083209390935560159052205461158e908663ffffffff61307a16565b600160a060020a0387166000818152601560209081526040918290209390935580518881529283018490528051919233927f33a089d94f9a0b7d0fe21e69b40d7dbe1965be652c7382cc778d46963db8c49b929181900390910190a36115f43382613289565b505050505050565b6116046117ac565b1515611648576040805160e560020a62461bcd0281526020600482018190526024820152600080516020614b65833981519152604482015290519081900360640190fd5b60098054600160a060020a031916600160a060020a0392909216919091179055565b600160a060020a031660009081526001602052604090205490565b61168d6117ac565b15156116d1576040805160e560020a62461bcd0281526020600482018190526024820152600080516020614b65833981519152604482015290519081900360640190fd5b600454604051600091600160a060020a0316907f8be0079c531659141344cd1fd0a4f28419497f9722a3daafe3b4186f6b6457e0908390a360048054600160a060020a0319169055565b6000610d4a600580548060200260200160405190810160405280929190818152602001828054801561177657602002820191906000526020600020905b8154600160a060020a03168152600190910190602001808311611758575b50505050508361336d565b600f6020526000908152604090205481565b6013546014549091565b600454600160a060020a031690565b600454600160a060020a0316331490565b6000806117c86117ac565b151561180c576040805160e560020a62461bcd0281526020600482018190526024820152600080516020614b65833981519152604482015290519081900360640190fd5b600160a060020a0383166000908152600760205260408120549250821161187d576040805160e560020a62461bcd02815260206004820152601260248201527f4974277320656d7074792062616c616e63650000000000000000000000000000604482015290519081900360640190fd5b600160a060020a03831660008181526007602052604081205515156118cf57604051339083156108fc029084906000818181858888f193505050501580156118c9573d6000803e3d6000fd5b50611968565b50604080517fa9059cbb0000000000000000000000000000000000000000000000000000000081523360048201526024810183905290518391600160a060020a0383169163a9059cbb916044808201926020929091908290030181600087803b15801561193b57600080fd5b505af115801561194f573d6000803e3d6000fd5b505050506040513d602081101561196557600080fd5b50505b604080518381529051600160a060020a0385169133917f747147be90b2a81a2e929994a92cd7bb71396bdbfd02f181867c81187d4f79449181900360200190a3505050565b600c805460408051602060026001851615610100026000190190941693909304601f81018490048402820184019092528181529291830182828015610dd65780601f10610dab57610100808354040283529160200191610dd6565b6012546060906000908190839081908390600160a060020a03163314611a9e576040805160e560020a62461bcd02815260206004820152602760248201527f4d616e6167657261626c653a2063616c6c6572206973206e6f7420746865204f60448201527f70657261746f7200000000000000000000000000000000000000000000000000606482015290519081900360840190fd5b601154604080517faf70df12000000000000000000000000000000000000000000000000000000008152600481018a8152602482019283526005805460448401819052600160a060020a039095169463af70df12948d94929392909160649091019084908015611b3757602002820191906000526020600020905b8154600160a060020a03168152600190910190602001808311611b19575b50509350505050600060405180830381600087803b158015611b5857600080fd5b505af1158015611b6c573d6000803e3d6000fd5b505050506040513d6000823e601f3d908101601f191682016040526060811015611b9557600080fd5b810190808051640100000000811115611bad57600080fd5b82016020810184811115611bc057600080fd5b8151856020820283011164010000000082111715611bdd57600080fd5b5050602082015160409092015190995090975095505084159050611de957601154604080517fe5081c40000000000000000000000000000000000000000000000000000000008152600481018a8152602482019283526005805460448401819052600160a060020a039095169463e5081c40948d94929392909160649091019084908015611c9457602002820191906000526020600020905b8154600160a060020a03168152600190910190602001808311611c76575b50509350505050600060405180830381600087803b158015611cb557600080fd5b505af1158015611cc9573d6000803e3d6000fd5b505050506040513d6000823e601f3d908101601f191682016040908152811015611cf257600080fd5b810190808051640100000000811115611d0a57600080fd5b82016020810184811115611d1d57600080fd5b8151856020820283011164010000000082111715611d3a57600080fd5b50509291906020018051640100000000811115611d5657600080fd5b82016020810184811115611d6957600080fd5b8151856020820283011164010000000082111715611d8657600080fd5b50949750955060009450505050505b8251811015611ddc578581815181101515611dac57fe5b906020019060200201518382815181101515611dc457fe5b60209081029091010180519091019052600101611d95565b611de987848488426123f6565b50505050505050565b6000806000806000611e0386610d18565b1515611e59576040805160e560020a62461bcd02815260206004820152601f60248201527f736574746c656d656e7420697320756e737570706f7274656420746f6b656e00604482015290519081900360640190fd5b336000908152600e602090815260408083205460019092529091205401871115611ecd576040805160e560020a62461bcd02815260206004820152601e60248201527f53436f696e2062616c616e636520697320696e73756666696369656e74210000604482015290519081900360640190fd5b861515611ed957611de9565b611ee1610e57565b9450611eed87866133be565b9350935083870396506000871115611f2e578285039450611f0e8786613488565b915091506000821115611f2e57611f253383613513565b92810192918201915b83836156ce7f36bc09f07bcf3d3fa05df7f9c56193487df0507ecd1d5a83845b56b4e6d7b73360405160405180910390a4611de986846135f3565b60408051606081018252602581527f45524332303a2064656372656173656420616c6c6f77616e63652062656c6f776020808301919091527f207a65726f0000000000000000000000000000000000000000000000000000008284015233600081815260028352848120600160a060020a0388168252909252928120549092610deb92909186916111dd9190879063ffffffff613b6816565b6060806060600080612038866005600081548110151561201e57fe5b600091825260209091200154600160a060020a0316613c05565b5060055491955093509150600090505b818110156120af5761208f838281518110151561206157fe5b90602001906020020151858381518110151561207957fe5b602090810290910101519063ffffffff61307a16565b848281518110151561209d57fe5b60209081029091010152600101612048565b5091949350505050565b600954600090600160a060020a0316151561210c576040805160e560020a62461bcd0281526020600482015260166024820152600080516020614b85833981519152604482015290519081900360640190fd5b600954604080517fef56807f000000000000000000000000000000000000000000000000000000008152336004820152600160a060020a038681166024830152604482018690529151919092169163ef56807f91606480830192600092919082900301818387803b15801561218057600080fd5b505af1158015612194573d6000803e3d6000fd5b505050506121a2838361407a565b9392505050565b601054600160a060020a031690565b6121c06117ac565b1515612204576040805160e560020a62461bcd0281526020600482018190526024820152600080516020614b65833981519152604482015290519081900360640190fd5b60128054600160a060020a031916600160a060020a0392909216919091179055565b600160a060020a03918216600090815260186020908152604080832093909416825291909152205490565b60045474010000000000000000000000000000000000000000900460ff1681565b600061227d8261171b565b8015610d4a575050600160a060020a031660009081526006602052604090205460019081161490565b60006122b06117ac565b15156122f4576040805160e560020a62461bcd0281526020600482018190526024820152600080516020614b65833981519152604482015290519081900360640190fd5b6122fd84612fb9565b9283555060019091015550565b601154600160a060020a031690565b6123216117ac565b1515612365576040805160e560020a62461bcd0281526020600482018190526024820152600080516020614b65833981519152604482015290519081900360640190fd5b600160a060020a03909116600090815260066020526040902055565b600160a060020a03166000908152600e6020908152604080832054600f909252909120549091565b6000600354600014156123c157506305f5e100610e54565b6003546123cc612841565b8115156123d557fe5b04905090565b600160a060020a031660009081526007602052604090205490565b6012546000908190600160a060020a03163314612483576040805160e560020a62461bcd02815260206004820152602760248201527f4d616e6167657261626c653a2063616c6c6572206973206e6f7420746865204f60448201527f70657261746f7200000000000000000000000000000000000000000000000000606482015290519081900360840190fd5b6011546040517f8ff239e6000000000000000000000000000000000000000000000000000000008152600481018981526024820187905260648201869052608060448301908152885160848401528851600160a060020a0390941693638ff239e6938c938a938c938b9360a401906020808701910280838360005b838110156125165781810151838201526020016124fe565b5050505090500195505050505050600060405180830381600087803b15801561253e57600080fd5b505af1158015612552573d6000803e3d6000fd5b50505050600091505b8551821015611de957600580548390811061257257fe5b60009182526020822001548751600160a060020a03909116925087908490811061259857fe5b6020908102909101015112612607576125e986838151811015156125b857fe5b6020908102909101810151600160a060020a038416600090815260159092526040909120549063ffffffff61307a16565b600160a060020a038216600090815260156020526040902055612663565b612649868381518110151561261857fe5b6020908102909101810151600160a060020a038416600090815260159092526040822054910363ffffffff612d0316565b600160a060020a0382166000908152601560205260409020555b60019091019061255b565b600080601160009054906101000a9004600160a060020a0316600160a060020a03166373a3d4246040518163ffffffff1660e060020a028152600401602060405180830381600087803b1580156126c457600080fd5b505af11580156126d8573d6000803e3d6000fd5b505050506040513d60208110156126ee57600080fd5b505190506126fb81612f8a565b91505b5090565b600080600061271084612fb9565b8054600190910154909590945092505050565b60055460009081908180805b8383101561283757600580548490811061274557fe5b6000918252602080832090910154601054604080517f41976e09000000000000000000000000000000000000000000000000000000008152600160a060020a0393841660048201819052915191975091909216936341976e099360248084019491939192918390030190829087803b1580156127c057600080fd5b505af11580156127d4573d6000803e3d6000fd5b505050506040513d60208110156127ea57600080fd5b5051600160a060020a03831660009081526015602052604090205490915061282a9061281d90839063ffffffff612ee016565b869063ffffffff61307a16565b945060019092019161272f565b5092949350505050565b6000610e78600d54610e6c612723565b600160a060020a03918216600090815260026020908152604080832093909416825291909152205490565b60176020526000908152604090205481565b600880548290811061289c57fe5b60009182526020909120600290910201805460019091015490915082565b6000610e786128c761266e565b610e6c612841565b6128d76117ac565b151561291b576040805160e560020a62461bcd0281526020600482018190526024820152600080516020614b65833981519152604482015290519081900360640190fd5b612926600582614087565b600160a060020a0316600090815260066020526040902063ffffffff9055565b601254600160a060020a031690565b61295d6117ac565b15156129a1576040805160e560020a62461bcd0281526020600482018190526024820152600080516020614b65833981519152604482015290519081900360640190fd5b601391909155601455565b606080606060006005805490506040519080825280602002602001820160405280156129e2578160200160208202803883390190505b509150600090505b600554811015612a4c5760076000600583815481101515612a0757fe5b6000918252602080832090910154600160a060020a031683528201929092526040019020548251839083908110612a3a57fe5b602090810290910101526001016129ea565b60058281805480602002602001604051908101604052809291908181526020018280548015612aa457602002820191906000526020600020905b8154600160a060020a03168152600190910190602001808311612a86575b505050505091509350935050509091565b612abd6117ac565b1515612b01576040805160e560020a62461bcd0281526020600482018190526024820152600080516020614b65833981519152604482015290519081900360640190fd5b61110481614121565b612b126117ac565b1515612b56576040805160e560020a62461bcd0281526020600482018190526024820152600080516020614b65833981519152604482015290519081900360640190fd5b60048054911515740100000000000000000000000000000000000000000274ff000000000000000000000000000000000000000019909216919091179055565b600160a060020a0383161515612c1b576040805160e560020a62461bcd028152602060048201526024808201527f45524332303a20617070726f76652066726f6d20746865207a65726f2061646460448201527f7265737300000000000000000000000000000000000000000000000000000000606482015290519081900360840190fd5b600160a060020a0382161515612ca1576040805160e560020a62461bcd02815260206004820152602260248201527f45524332303a20617070726f766520746f20746865207a65726f20616464726560448201527f7373000000000000000000000000000000000000000000000000000000000000606482015290519081900360840190fd5b600160a060020a03808416600081815260026020908152604080832094871680845294825291829020859055815185815291517f8c5be1e5ebec7d5bd14f71427d1e84f3dd0314c0f7b2291e5b200ac8c7c3b9259281900390910190a3505050565b60006121a283836040805190810160405280601e81526020017f536166654d6174683a207375627472616374696f6e206f766572666c6f770000815250613b68565b8154600090815b81811015612d945783600160a060020a03168582815481101515612d6c57fe5b600091825260209091200154600160a060020a03161415612d8c57612d94565b600101612d4c565b81811015612e275760001982018114612e0d578460018303815481101515612db857fe5b6000918252602090912001548554600160a060020a0390911690869083908110612dde57fe5b9060005260206000200160006101000a815481600160a060020a030219169083600160a060020a031602179055505b8454612e1d866000198301614b2b565b5060019250611199565b506000949350505050565b6000612e3f848484614203565b60408051606081018252602881527f45524332303a207472616e7366657220616d6f756e74206578636565647320616020808301919091527f6c6c6f77616e636500000000000000000000000000000000000000000000000082840152600160a060020a0387166000908152600282528381203380835292529290922054612ed692879290916111dd91879063ffffffff613b6816565b5060019392505050565b600080831515612ef35760009150612f83565b50828202828482811515612f0357fe5b0414612f7f576040805160e560020a62461bcd02815260206004820152602160248201527f536166654d6174683a206d756c7469706c69636174696f6e206f766572666c6f60448201527f7700000000000000000000000000000000000000000000000000000000000000606482015290519081900360840190fd5b8091505b5092915050565b6013546000908190612fa2908463ffffffff612ee016565b6014549091506121a290829063ffffffff61303816565b6008546000908210613015576040805160e560020a62461bcd02815260206004820152601260248201527f66656520747970652069732076616c6964210000000000000000000000000000604482015290519081900360640190fd5b600880548390811061302357fe5b90600052602060002090600202019050919050565b60006121a283836040805190810160405280601a81526020017f536166654d6174683a206469766973696f6e206279207a65726f000000000000815250614373565b600082820183811015612f7f576040805160e560020a62461bcd02815260206004820152601b60248201527f536166654d6174683a206164646974696f6e206f766572666c6f770000000000604482015290519081900360640190fd5b60008060006130e585612272565b151561313b576040805160e560020a62461bcd02815260206004820152601f60248201527f736574746c656d656e7420697320756e737570706f7274656420746f6b656e00604482015290519081900360640190fd5b60009150600160a060020a038516151561315757349150613202565b60008411156132025750604080517f23b872dd0000000000000000000000000000000000000000000000000000000081523360048201523060248201526044810185905290518591600160a060020a038316916323b872dd916064808201926020929091908290030181600087803b1580156131d257600080fd5b505af11580156131e6573d6000803e3d6000fd5b505050506040513d60208110156131fc57600080fd5b50849250505b509392505050565b600160a060020a038216600090815260076020526040902054613233908263ffffffff61307a16565b600160a060020a038316600081815260076020908152604091829020939093558051848152905191927f1104eee7f034069140a0655d153038cedf9e65e5724018c555a8d56cfb6bee7792918290030190a25050565b600954600160a060020a031615156132d9576040805160e560020a62461bcd0281526020600482015260166024820152600080516020614b85833981519152604482015290519081900360640190fd5b600954604080517f8af2a470000000000000000000000000000000000000000000000000000000008152600160a060020a0385811660048301526024820185905291519190921691638af2a47091604480830192600092919082900301818387803b15801561334757600080fd5b505af115801561335b573d6000803e3d6000fd5b5050505061336982826143df565b5050565b8151600090815b81811015612e275783600160a060020a0316858281518110151561339457fe5b90602001906020020151600160a060020a031614156133b65760019250611199565b600101613374565b60008060008060008060006133d233612381565b9450945084600014156133eb576000965086955061347c565b600092506000915084848115156133fe57fe5b0490508885106134225788915061341b828263ffffffff612ee016565b9250613429565b8491508392505b8783111561345657613441888263ffffffff61303816565b9150613453828263ffffffff612ee016565b92505b60008211156134745761346933836144a4565b81839650965061347c565b600096508695505b50505050509250929050565b600080600080600080600061349b6123a9565b94506134ad898663ffffffff612ee016565b935087841115613504576134c7888663ffffffff61303816565b92506134d9838663ffffffff612ee016565b9150508188036134f933826134f4818963ffffffff612ee016565b61452d565b82829650965061347c565b50969791965090945050505050565b600954600160a060020a03161515613563576040805160e560020a62461bcd0281526020600482015260166024820152600080516020614b85833981519152604482015290519081900360640190fd5b600954604080517f2a04d0c7000000000000000000000000000000000000000000000000000000008152600160a060020a0385811660048301526024820185905291519190921691632a04d0c791604480830192600092919082900301818387803b1580156135d157600080fd5b505af11580156135e5573d6000803e3d6000fd5b5050505061336982826145cd565b8060608080806000818180808061360a338e613c05565b995099509950600580548060200260200160405190810160405280929190818152602001828054801561366657602002820191906000526020600020905b8154600160a060020a03168152600190910190602001808311613648575b50505050509650613677878e6146b8565b955085156136e65786600081518110151561368e57fe5b9060200190602002015187878151811015156136a657fe5b600160a060020a0390921660209283029091019091015286518d90889060009081106136ce57fe5b600160a060020a039092166020928302909101909101525b8651955085604051908082528060200260200182016040528015613714578160200160208202803883390190505b509450600093505b858410801561372b575060008c115b156138e257868481518110151561373e57fe5b9060200190602002015192506137898a8581518110151561375b57fe5b90602001906020020151898681518110151561377357fe5b602090810290910101519063ffffffff612ee016565b9150818c6104577f36bc09f07bcf3d3fa05df7f9c56193487df0507ecd1d5a83845b56b4e6d7b73360405160405180910390a4818c101561387e576137ec88858151811015156137d557fe5b602090810290910101518d9063ffffffff61303816565b336000908152601860209081526040808320600160a060020a038816845290915290205490915061383790839061382b908f830363ffffffff612ee016565b9063ffffffff61303816565b336000908152601860209081526040808320600160a060020a03881684529091529020558451819086908690811061386b57fe5b6020908102909101015260009b506138e2565b336000908152601860209081526040808320600160a060020a038716845290915281205589518a90859081106138b057fe5b9060200190602002015185858151811015156138c857fe5b602090810290910101529a8190039a60019093019261371c565b60008c11156139995760009150600093505b8584101561394257613935613928898681518110151561391057fe5b906020019060200201518b8781518110151561377357fe5b839063ffffffff61307a16565b60019094019391506138f4565b600093505b85841015613999576139766139688361382b8f8d8981518110151561377357fe5b868681518110151561207957fe5b858581518110151561398457fe5b60209081029091010152600190930192613947565b6139fd60058054806020026020016040519081016040528092919081815260200182805480156139f257602002820191906000526020600020905b8154600160a060020a031681526001909101906020018083116139d4575b50505050508e6146b8565b93508315613a6c578484815181101515613a1357fe5b906020019060200201519050846000815181101515613a2e57fe5b906020019060200201518585815181101515613a4657fe5b602090810290910101528451819086906000908110613a6157fe5b602090810290910101525b600093505b85841015613b16578484815181101515613a8757fe5b906020019060200201518b6104577f36bc09f07bcf3d3fa05df7f9c56193487df0507ecd1d5a83845b56b4e6d7b73360405160405180910390a4613b0b33600586815481101515613ad457fe5b6000918252602090912001548751600160a060020a0390911690889088908110613afa57fe5b906020019060200201516004614705565b600190930192613a71565b60408051600160a060020a038f168152602081018d9052815133927fc994feb9b99296d80965b47aec6be0d25704ddf95b9b9bc1ed8bc753960d5809928290030190a250505050505050505050505050565b6000808285851115613bfb5760405160e560020a62461bcd0281526004018080602001828103825283818151815260200191508051906020019080838360005b83811015613bc0578181015183820152602001613ba8565b50505050905090810190601f168015613bed5780820380516001836020036101000a031916815260200191505b509250505060405180910390fd5b5050509103919050565b606080606080600060608060606000806000806005805480602002602001604051908101604052809291908181526020018280548015613c6e57602002820191906000526020600020905b8154600160a060020a03168152600190910190602001808311613c50575b50505050509850613c7f898e6146b8565b97508715613cee57886000815181101515613c9657fe5b906020019060200201518989815181101515613cae57fe5b600160a060020a0390921660209283029091019091015288518d908a906000908110613cd657fe5b600160a060020a039092166020928302909101909101525b8851975087604051908082528060200260200182016040528015613d1c578160200160208202803883390190505b50965087604051908082528060200260200182016040528015613d49578160200160208202803883390190505b50955087604051908082528060200260200182016040528015613d76578160200160208202803883390190505b5094506000935060009250613d8a8e6111fd565b9150600090505b87811015613fd257613e7b601660008b84815181101515613dae57fe5b90602001906020020151600160a060020a0316600160a060020a0316815260200190815260200160002054601560008c85815181101515613deb57fe5b90602001906020020151600160a060020a0316600160a060020a03168152602001908152602001600020546018600033600160a060020a0316600160a060020a0316815260200190815260200160002060008d86815181101515613e4b57fe5b90602001906020020151600160a060020a0316600160a060020a0316815260200190815260200160002054614743565b8883815181101515613e8957fe5b9060200190602002018884815181101515613ea057fe5b60209081029091010191909152526010548951600160a060020a03909116906341976e09908b9084908110613ed157fe5b906020019060200201516040518263ffffffff1660e060020a0281526004018082600160a060020a0316600160a060020a03168152602001915050602060405180830381600087803b158015613f2657600080fd5b505af1158015613f3a573d6000803e3d6000fd5b505050506040513d6020811015613f5057600080fd5b50518551869083908110613f6057fe5b602090810290910101528651613fa590613f9890899084908110613f8057fe5b90602001906020020151878481518110151561377357fe5b859063ffffffff61307a16565b9350613fc8613fbb8783815181101515613f8057fe5b849063ffffffff61307a16565b9250600101613d91565b818410614020575060005b8781101561401b57613ffb8461382b848a8581518110151561377357fe5b878281518110151561400957fe5b60209081029091010152600101613fdd565b614065565b5082900360005b87811015614065576140458361382b84898581518110151561377357fe5b868281518110151561405357fe5b60209081029091010152600101614027565b50949c939b5091995091975050505050505050565b6000610deb338484614203565b6140ea828054806020026020016040519081016040528092919081815260200182805480156140df57602002820191906000526020600020905b8154600160a060020a031681526001909101906020018083116140c1575b50505050508261336d565b1515613369578154600181018355600083815260209020018054600160a060020a038316600160a060020a03199091161790555050565b600160a060020a03811615156141a7576040805160e560020a62461bcd02815260206004820152602660248201527f4f776e61626c653a206e6577206f776e657220697320746865207a65726f206160448201527f6464726573730000000000000000000000000000000000000000000000000000606482015290519081900360840190fd5b600454604051600160a060020a038084169216907f8be0079c531659141344cd1fd0a4f28419497f9722a3daafe3b4186f6b6457e090600090a360048054600160a060020a031916600160a060020a0392909216919091179055565b600160a060020a0383161515614289576040805160e560020a62461bcd02815260206004820152602560248201527f45524332303a207472616e736665722066726f6d20746865207a65726f20616460448201527f6472657373000000000000000000000000000000000000000000000000000000606482015290519081900360840190fd5b600160a060020a038216151561430f576040805160e560020a62461bcd02815260206004820152602360248201527f45524332303a207472616e7366657220746f20746865207a65726f206164647260448201527f6573730000000000000000000000000000000000000000000000000000000000606482015290519081900360840190fd5b614319838261477b565b614323828261484a565b81600160a060020a031683600160a060020a03167fddf252ad1be2c89b69c2b068fc378daa952ba7f163c4a11628f55a4df523b3ef836040518082815260200191505060405180910390a3505050565b600080828185116143c95760405160e560020a62461bcd02815260040180806020018281038252838181518152602001915080519060200190808383600083811015613bc0578181015183820152602001613ba8565b5083858115156143d557fe5b0495945050505050565b600160a060020a038216151561443f576040805160e560020a62461bcd02815260206004820152601f60248201527f45524332303a206d696e7420746f20746865207a65726f206164647265737300604482015290519081900360640190fd5b600354614452908263ffffffff61307a16565b60035561445f828261484a565b604080518281529051600160a060020a038416916000917fddf252ad1be2c89b69c2b068fc378daa952ba7f163c4a11628f55a4df523b3ef9181900360200190a35050565b600160a060020a0382166000908152600e602052604081205490808083111561452657600160a060020a0385166000908152600f602052604090205491508284106144f9576144f48584846148f9565b614526565b61451961450c838563ffffffff61303816565b859063ffffffff612ee016565b90506145268585836148f9565b5050505050565b600954604080517f2a04d0c7000000000000000000000000000000000000000000000000000000008152600160a060020a0386811660048301526024820186905291519190921691632a04d0c791604480830192600092919082900301818387803b15801561459b57600080fd5b505af11580156145af573d6000803e3d6000fd5b505050506145bd838361477b565b6145c8838383614970565b505050565b600160a060020a0382161515614653576040805160e560020a62461bcd02815260206004820152602160248201527f45524332303a206275726e2066726f6d20746865207a65726f2061646472657360448201527f7300000000000000000000000000000000000000000000000000000000000000606482015290519081900360840190fd5b61465d828261477b565b600354614670908263ffffffff612d0316565b600355604080518281529051600091600160a060020a038516917fddf252ad1be2c89b69c2b068fc378daa952ba7f163c4a11628f55a4df523b3ef9181900360200190a35050565b8151600090815b818110156110485783600160a060020a031685828151811015156146df57fe5b90602001906020020151600160a060020a031614156146fd57611048565b6001016146bf565b600082151561471357614526565b61471d828461115a565b90506147398585614734868563ffffffff612d0316565b6149e5565b614526848261320a565b6000808061475b8661382b878763ffffffff612ee016565b90508061476e868263ffffffff612d0316565b9250925050935093915050565b600160a060020a0382161515614801576040805160e560020a62461bcd02815260206004820152602360248201527f45524332303a207472616e7366657220746f20746865207a65726f206164647260448201527f6573730000000000000000000000000000000000000000000000000000000000606482015290519081900360840190fd5b600160a060020a03821660009081526001602052604090205461482a908263ffffffff612d0316565b600160a060020a0390921660009081526001602052604090209190915550565b600160a060020a03821615156148d0576040805160e560020a62461bcd02815260206004820152602360248201527f45524332303a207472616e7366657220746f20746865207a65726f206164647260448201527f6573730000000000000000000000000000000000000000000000000000000000606482015290519081900360840190fd5b600160a060020a03821660009081526001602052604090205461482a908263ffffffff61307a16565b600160a060020a0383166000818152600e6020908152604080832080548790039055600f82529182902080548590039055600d80548590039055815185815290810184905281517f3eff168ce30c25c5e643633b70f58850a0085c0a411d1b53e501a655a90bae1a929181900390910190a2505050565b600160a060020a0383166000818152600e60209081526040808320805487019055600f825291829020805485019055600d80548590039055815185815290810184905281517f8eb48086ad9abd7f3270b68172da958c7507500a9e0c8a9897a5c85ae7d8c0e9929181900390910190a2505050565b60008115156149f357614b25565b600160a060020a0383161515614a3f57604051600160a060020a0385169083156108fc029084906000818181858888f19350505050158015614a39573d6000803e3d6000fd5b50614ad9565b50604080517fa9059cbb000000000000000000000000000000000000000000000000000000008152600160a060020a038581166004830152602482018490529151849283169163a9059cbb9160448083019260209291908290030181600087803b158015614aac57600080fd5b505af1158015614ac0573d6000803e3d6000fd5b505050506040513d6020811015614ad657600080fd5b50505b82600160a060020a031684600160a060020a03167f8aaaec2388cc390cde69685f78340e15f36d424b6b6b595f549dd883931f9c9b846040518082815260200191505060405180910390a35b50505050565b8154818355818111156145c8576000838152602090206145c8918101908301610e5491905b808211156126fe5760008155600101614b5056004f776e61626c653a2063616c6c6572206973206e6f7420746865206f776e6572466e784d696e65506f6f6c206973206e6f742073657400000000000000000000a165627a7a72305820082858ce75007b7e0e5cdd24ee158e727cb85780dbed9dca0c92a99b9c7e26c70029",
  "source": "\r\npragma solidity ^0.4.26;\r\nimport \"./modules/SafeMath.sol\";\r\nimport \"./modules/ReentrancyGuard.sol\";\r\nimport \"./FPOCoin.sol\";\r\nimport \"./modules/underlyingAssets.sol\";\r\nimport \"./modules/TransactionFee.sol\";\r\nimport \"./interfaces/IOptionsPool.sol\";\r\nimport \"./interfaces/IFNXOracle.sol\";\r\nimport \"./modules/Operator.sol\";\r\n\r\ncontract CollateralPool is ReentrancyGuard,TransactionFee,FPOCoin,ImportOracle,ImportOptionsPool,Operator {\r\n    using SafeMath for uint256;\r\n    fraction public collateralRate = fraction(3, 1);\r\n    //token net worth\r\n    mapping (address => uint256) public netWorthBalances;\r\n    //address collaterel\r\n    mapping (address => uint256) public collateralBalances;\r\n    //user paying for collateral usd;\r\n    mapping (address => uint256) public userCollateralPaying;\r\n    //account -> collateral -> amount\r\n    mapping (address => mapping (address => uint256)) public userInputCollateral;\r\n\r\n    event AddCollateral(address indexed from,address indexed collateral,uint256 amount,uint256 tokenAmount);\r\n    event RedeemCollateral(address indexed from,address collateral,uint256 allRedeem);\r\n\r\n    event DebugEvent(uint256 indexed value1,uint256 indexed value2,uint256 indexed value3);\r\n\r\n    function setCollateralRate(uint256 numerator,uint256 denominator) public onlyOwner {\r\n        collateralRate.numerator = numerator;\r\n        collateralRate.denominator = denominator;\r\n    }\r\n    function getCollateralRate()public view returns (uint256,uint256) {\r\n        return (collateralRate.numerator,collateralRate.denominator);\r\n    }\r\n    function getUserPayingUsd(address user)public view returns (uint256){\r\n        return userCollateralPaying[user];\r\n    }\r\n    function userInputCollateral(address user,address collateral)public view returns (uint256){\r\n        return userInputCollateral[user][collateral];\r\n    }\r\n    function setPhaseSharedPayment(uint256 calInfo) public onlyOperator {\r\n        (uint256[] memory sharedBalances,uint256 firstOption,bool success) =\r\n             _optionsPool.calculatePhaseSharedPayment(calInfo,whiteList);\r\n        if (success){\r\n            (int256[] memory fallBalance,uint256[] memory prices) = _optionsPool.calculatePhaseOptionsFall(calInfo,whiteList);\r\n            for (uint256 i= 0;i<fallBalance.length;i++){\r\n                fallBalance[i] += int256(sharedBalances[i]);\r\n            }\r\n            setSharedPayment(calInfo,fallBalance,prices,firstOption,now);\r\n        }\r\n    }\r\n    function setSharedPayment(uint256 calInfo,int256[] sharedBalances,uint256[] prices,uint256 firstOption,uint256 calTime) public onlyOperator{\r\n        _optionsPool.setSharedState(calInfo,firstOption,prices,calTime);\r\n        for (uint i=0;i<sharedBalances.length;i++){\r\n            address addr = whiteList[i];\r\n            if(sharedBalances[i]>=0){\r\n                netWorthBalances[addr] = netWorthBalances[addr].add(uint256(sharedBalances[i]));\r\n            }else{\r\n                netWorthBalances[addr] = netWorthBalances[addr].sub(uint256(-sharedBalances[i]));\r\n            }\r\n        }\r\n    }\r\n    function getUserTotalWorth(address account)public view returns (uint256){\r\n        return getTokenNetworth().mul(balances[account]).add(lockedTotalWorth[account]);\r\n    }\r\n    function getTokenNetworth() public view returns (uint256){\r\n        if (_totalSupply == 0){\r\n            return 1e8;\r\n        }\r\n        return getUnlockedCollateral()/_totalSupply;\r\n    }\r\n    function addCollateral(address collateral,uint256 amount)public payable {\r\n        amount = getPayableAmount(collateral,amount);\r\n        require(amount>0 , \"settlement amount is zero!\");\r\n        uint256 fee = calculateFee(addColFee,amount);\r\n        _addTransactionFee(collateral,fee);\r\n        amount = amount.sub(fee);\r\n        uint256 price = _oracle.getPrice(collateral);\r\n        uint256 userPaying = price.mul(amount);\r\n        uint256 mintAmount = userPaying.div(getTokenNetworth());\r\n        userCollateralPaying[msg.sender] = userCollateralPaying[msg.sender].add(userPaying);\r\n        collateralBalances[collateral] = collateralBalances[collateral].add(amount);\r\n        userInputCollateral[msg.sender][collateral] = userInputCollateral[msg.sender][collateral].add(amount);\r\n        netWorthBalances[collateral] = netWorthBalances[collateral].add(amount);\r\n        emit AddCollateral(msg.sender,collateral,amount,mintAmount);\r\n        _mint(msg.sender,mintAmount);\r\n    }\r\n    //calculate token\r\n    function redeemCollateral(uint256 tokenAmount,address collateral)public {\r\n        require(checkAddressRedeemOut(collateral) , \"settlement is unsupported token\");\r\n        require(balances[msg.sender]+lockedBalances[msg.sender]>=tokenAmount,\"SCoin balance is insufficient!\");\r\n        if (tokenAmount == 0){\r\n            return;\r\n        }\r\n        uint256 leftColateral = getLeftCollateral();\r\n        (uint256 burnAmount,uint256 redeemWorth) = _redeemLockedCollateral(tokenAmount,leftColateral);\r\n        tokenAmount -= burnAmount;\r\n        if (tokenAmount > 0){\r\n            leftColateral -= redeemWorth;\r\n            (uint256 newRedeem,uint256 newWorth) = _redeemCollateral(tokenAmount,leftColateral);\r\n            if(newRedeem>0){\r\n                _burn(msg.sender, newRedeem);\r\n                burnAmount += newRedeem;\r\n                redeemWorth += newWorth;\r\n            }\r\n        }\r\n        emit DebugEvent(22222,redeemWorth,burnAmount);\r\n        _redeemCollateralWorth(collateral,redeemWorth);\r\n    }\r\n    function _redeemLockedCollateral(uint256 tokenAmount,uint256 leftColateral)internal returns (uint256,uint256){\r\n        (uint256 lockedAmount,uint256 lockedWorth) = getLockedBalance(msg.sender);\r\n        if (lockedAmount == 0){\r\n            return (0,0);\r\n        }\r\n        uint256 redeemWorth = 0;\r\n        uint256 lockedBurn = 0;\r\n        uint256 lockedPrice = lockedWorth/lockedAmount;\r\n        if (lockedAmount >= tokenAmount){\r\n            lockedBurn = tokenAmount;\r\n            redeemWorth = tokenAmount.mul(lockedPrice);\r\n        }else{\r\n            lockedBurn = lockedAmount;\r\n            redeemWorth = lockedWorth;\r\n        }\r\n        if (redeemWorth > leftColateral) {\r\n            lockedBurn = leftColateral.div(lockedPrice);\r\n            redeemWorth = lockedBurn.mul(lockedPrice);\r\n        }\r\n        if (lockedBurn > 0){\r\n            _burnLocked(msg.sender,lockedBurn);\r\n            return (lockedBurn,redeemWorth);\r\n        }\r\n        return (0,0);\r\n    }\r\n    function _redeemCollateral(uint256 leftAmount,uint256 leftColateral)internal returns (uint256,uint256){\r\n        uint256 tokenNetWorth = getTokenNetworth();\r\n        uint256 leftWorth = leftAmount.mul(tokenNetWorth);        \r\n        if (leftWorth > leftColateral){\r\n            uint256 newRedeem = leftColateral.div(tokenNetWorth);\r\n            uint256 newWorth = newRedeem.mul(tokenNetWorth);\r\n            uint256 locked = leftAmount - newRedeem;\r\n            addlockBalance(msg.sender,locked,locked.mul(tokenNetWorth));\r\n            return (newRedeem,newWorth);\r\n        }\r\n        return (leftAmount,leftWorth);\r\n    }\r\n    function _redeemCollateralWorth(address collateral,uint256 redeemWorth) internal {\r\n        uint256 allRedeem = redeemWorth;\r\n        (uint256[] memory colBalances,uint256[] memory PremiumBalances,uint256[] memory prices) = _getCollateralAndPremiumBalances(msg.sender,collateral);\r\n        address[] memory tmpWhiteList = whiteList;\r\n        uint256 ln = whiteListAddress._getEligibleIndexAddress(tmpWhiteList,collateral);\r\n        if (ln != 0){\r\n            tmpWhiteList[ln] = tmpWhiteList[0];\r\n            tmpWhiteList[0] = collateral;\r\n        }\r\n        ln = tmpWhiteList.length;\r\n        uint256[] memory PaybackBalances = new uint256[](ln);\r\n        for (uint256 i=0; i<ln && redeemWorth>0;i++){\r\n            address addr = tmpWhiteList[i];\r\n            uint256 totalWorth = prices[i].mul(colBalances[i]);\r\n            emit DebugEvent(1111,redeemWorth,totalWorth);\r\n            if (redeemWorth < totalWorth){\r\n                uint256 amount = redeemWorth.div(prices[i]);\r\n                userInputCollateral[msg.sender][addr] = userInputCollateral[msg.sender][addr].mul(totalWorth-redeemWorth).div(totalWorth);\r\n                PaybackBalances[i] = amount;\r\n                redeemWorth = 0;\r\n                break;\r\n            }else{\r\n                userInputCollateral[msg.sender][addr] = 0;\r\n                PaybackBalances[i] = colBalances[i];\r\n                redeemWorth = redeemWorth - totalWorth;\r\n            }\r\n        }\r\n        if (redeemWorth>0) {\r\n           totalWorth = 0;\r\n            for (i=0; i<ln;i++){\r\n                totalWorth = totalWorth.add(PremiumBalances[i].mul(prices[i]));\r\n            }\r\n            for (i=0; i<ln;i++){\r\n                PaybackBalances[i] = PaybackBalances[i].add(PremiumBalances[i].mul(redeemWorth).div(totalWorth));\r\n            }\r\n        }\r\n        i = whiteListAddress._getEligibleIndexAddress(whiteList,collateral);\r\n        if (i!= 0) {\r\n            amount = PaybackBalances[i];\r\n            PaybackBalances[i] = PaybackBalances[0];\r\n            PaybackBalances[0] = amount;\r\n        }\r\n        for (i=0;i<ln;i++){ \r\n            emit DebugEvent(1111,allRedeem,PaybackBalances[i]);\r\n            _transferPaybackAndFee(msg.sender,whiteList[i],PaybackBalances[i],redeemColFee);\r\n        } \r\n        emit RedeemCollateral(msg.sender,collateral,allRedeem);\r\n    }\r\n    /*\r\n    function _redeemCollateralWorth(address account,address collateral,uint256 redeemWorth)public view returns(uint256[]){\r\n        uint256[] memory colBalances = new uint256[](whiteLen);\r\n        uint256[] memory PremiumBalances = new uint256[](whiteLen);\r\n        uint256 totalWorth = 0;\r\n        uint256 PremiumWorth = 0;\r\n        uint256 worth = getUserTotalWorth(account);\r\n        for (uint256 i=0; i<whiteLen;i++){\r\n            address addr = whiteList[i];\r\n            uint256 amount = userInputCollateral[msg.sender][addr];\r\n            colBalances[i] = collateralBalances[addr].mul(amount).div(netWorthBalances[addr]);\r\n            PremiumBalances[i] = netWorthBalances[addr].sub(colBalances[i]);\r\n            uint256 price = _oracle.getPrice(addr);\r\n            totalWorth = totalWorth.add(price.mul(colBalances[i]));\r\n            PremiumWorth = PremiumWorth.add(price.mul(PremiumBalances[i]));\r\n        }\r\n        if (totalWorth >= worth){\r\n            for (uint256 i=0; i<whiteLen;i++){\r\n                colBalances[i] = colBalances[i].mul(worth).div(totalWorth);\r\n            }\r\n            worth = 0;\r\n        }else{\r\n            worth = worth - totalWorth;\r\n        }\r\n\r\n        {\r\n            for (uint256 i=0; i<whiteLen;i++){\r\n                PremiumBalances[i] = PremiumBalances[i].mul(worth).div(totalWorth);\r\n            }\r\n        }\r\n        return colBalances;\r\n    }\r\n    function _redeemCollateralTrans(address collateral,uint256 redeemWorth,uint256 limitAmount){\r\n        uint256 price = _oracle.getPrice(collateral);\r\n        uint256 payback = limitAmount.mul(price);\r\n        if (payback > collateral){\r\n            \r\n        }\r\n\r\n    }\r\n    function _redeemCollateralWorth(uint256 tokenAmount,address collateral,uint256 redeemWorth,uint256 tokenNetWorth) internal {\r\n        uint256 allRedeem = redeemWorth;\r\n        uint whiteLen = whiteList.length;\r\n        uint256[] memory paybackcal = new uint256[](whiteLen);\r\n        uint256 payBack;\r\n        (redeemWorth,payBack) = _calPayBackCollateral(redeemWorth,collateral,tokenNetWorth);\r\n        uint256 index = whiteListAddress._getEligibleIndexAddress(whiteList,collateral);\r\n        paybackcal[index] = payBack;\r\n        for (uint256 i=0;redeemWorth>0 && i<whiteLen;i++){\r\n            (redeemWorth,payBack) = _calPayBackCollateral(redeemWorth,whiteList[i],tokenNetWorth);  \r\n            paybackcal[i] += payBack;\r\n        } \r\n        if (redeemWorth > 0){\r\n            paybackcal = _calPremiumPayback(redeemWorth,whiteLen,paybackcal);\r\n        }\r\n        for (i=0;i<whiteLen;i++){\r\n            _transferPaybackAndFee(msg.sender,whiteList[i],paybackcal[i],redeemColFee);\r\n        } \r\n        emit RedeemCollateral(msg.sender,tokenAmount,allRedeem);\r\n    }\r\n    */\r\n    function calCollateralWorth(address account)public view returns(uint256[]){\r\n        (uint256[] memory colBalances,uint256[] memory PremiumBalances,) = _getCollateralAndPremiumBalances(account,whiteList[0]);\r\n        uint256 whiteLen = whiteList.length;\r\n        for (uint256 i=0; i<whiteLen;i++){\r\n            colBalances[i] = colBalances[i].add(PremiumBalances[i]);\r\n        }\r\n        return colBalances;\r\n    }\r\n    function _getCollateralAndPremiumBalances(address account,address priorCollateral) internal view returns(uint256[],uint256[],uint256[]){\r\n        address[] memory tmpWhiteList = whiteList;\r\n        uint256 ln = whiteListAddress._getEligibleIndexAddress(tmpWhiteList,priorCollateral);\r\n        if (ln != 0){\r\n            tmpWhiteList[ln] = tmpWhiteList[0];\r\n            tmpWhiteList[0] = priorCollateral;\r\n        }\r\n        ln = tmpWhiteList.length;\r\n        uint256[] memory colBalances = new uint256[](ln);\r\n        uint256[] memory PremiumBalances = new uint256[](ln);\r\n        uint256[] memory prices = new uint256[](ln);\r\n        uint256 totalWorth = 0;\r\n        uint256 PremiumWorth = 0;\r\n        uint256 worth = getUserTotalWorth(account);\r\n        for (uint256 i=0; i<ln;i++){\r\n            (colBalances[i],PremiumBalances[i]) = _calBalanceRate(collateralBalances[tmpWhiteList[i]],netWorthBalances[tmpWhiteList[i]],userInputCollateral[msg.sender][tmpWhiteList[i]]);\r\n            prices[i] = _oracle.getPrice(tmpWhiteList[i]);\r\n            totalWorth = totalWorth.add(prices[i].mul(colBalances[i]));\r\n            PremiumWorth = PremiumWorth.add(prices[i].mul(PremiumBalances[i]));\r\n        }\r\n        if (totalWorth >= worth){\r\n            for (i=0; i<ln;i++){\r\n                colBalances[i] = colBalances[i].mul(worth).div(totalWorth);\r\n            }\r\n        }else{\r\n            worth = worth - totalWorth;\r\n            for (i=0; i<ln;i++){\r\n                PremiumBalances[i] = PremiumBalances[i].mul(worth).div(PremiumWorth);\r\n            }\r\n        }\r\n        return (colBalances,PremiumBalances,prices);\r\n    } \r\n    function _calBalanceRate(uint256 collateralBalance,uint256 netWorthBalance,uint256 amount)internal pure returns(uint256,uint256){\r\n        uint256 curAmount = netWorthBalance.mul(amount).div(collateralBalance);\r\n        return (curAmount,netWorthBalance.sub(curAmount));\r\n    }\r\n    /*\r\n    function _calPremiumPayback(uint256 worth,uint256 whiteLen,uint256[] memory paybackcal)internal view returns(uint256[] memory){\r\n        uint256 totalPrice = 0;\r\n        uint256[] memory PremiumBalances = new uint256[](whiteLen);\r\n        for (uint256 i=0; i<whiteLen;i++){\r\n            address addr = whiteList[i];\r\n            uint256 amount = userInputCollateral[msg.sender][collateral];\r\n            amount = collateralBalances[collateral].mul(amount).div(netWorthBalances[collateral]);\r\n            PremiumBalances[i] = netWorthBalances[addr].sub(paybackcal[i]);\r\n            uint256 price = _oracle.getPrice(addr);\r\n            totalPrice.add(price.mul(PremiumBalances[i]));\r\n        } \r\n                \r\n        if (totalPrice == 0){\r\n            return;\r\n        }\r\n        for (i=0;i<whiteLen;i++){\r\n            paybackcal[i] = paybackcal[i].add(PremiumBalances[i].mul(worth).div(totalPrice));\r\n        } \r\n        return paybackcal;\r\n    }\r\n\r\n    function _calPayBackCollateral(uint256 worth,address collateral,uint256 tokenNetWorth)internal view returns (uint256,uint256){\r\n        uint256 amount = userInputCollateral[msg.sender][collateral];\r\n        if (amount == 0){\r\n            return (worth,0);\r\n        }\r\n        uint netAmount = tokenNetWorth.mul(amount);\r\n        amount = collateralBalances[collateral].mul(amount).div(netWorthBalances[collateral]);\r\n        if (netAmount<amount){\r\n            amount = netAmount;\r\n        }\r\n        if (amount == 0){\r\n            return (worth,0);\r\n        }\r\n        uint256 price = _oracle.getPrice(collateral);\r\n        uint256 redeemAmount = worth.div(price);\r\n        if (redeemAmount == 0){\r\n            return (0,0);\r\n        }\r\n        uint256 transferAmount = (redeemAmount>amount) ? amount : redeemAmount;\r\n        if (redeemAmount>amount){\r\n            return (worth.sub(transferAmount.mul(price)),transferAmount);\r\n        }\r\n        return (0,transferAmount);\r\n    }\r\n        */\r\n    function getOccupiedCollateral() public view returns(uint256){\r\n        uint256 totalOccupied = _optionsPool.getTotalOccupiedCollateral();\r\n        return calculateCollateral(totalOccupied);\r\n    }\r\n    function getAvailableCollateral()public view returns(uint256){\r\n        return getUnlockedCollateral().sub(getOccupiedCollateral());\r\n    }\r\n    function getLeftCollateral()public view returns(uint256){\r\n        return getTotalCollateral().sub(getOccupiedCollateral());\r\n    }\r\n    function calOptionsOccupied(uint256 strikePrice,uint256 underlyingPrice,uint256 amount,uint8 optType)public view returns(uint256){\r\n        uint256 totalOccupied = 0;\r\n        if ((optType == 0) == (strikePrice>underlyingPrice)){ // call\r\n            totalOccupied = strikePrice.mul(amount);\r\n        } else {\r\n            totalOccupied = underlyingPrice.mul(amount);\r\n        }\r\n        return calculateCollateral(totalOccupied);\r\n    }\r\n    function getUnlockedCollateral()public view returns(uint256){\r\n        return getTotalCollateral().sub(_totalLockedWorth);\r\n    }\r\n    function getTotalCollateral()public view returns(uint256){\r\n        uint256 totalNum = 0;\r\n        uint whiteListLen = whiteList.length;\r\n        for (uint256 i=0;i<whiteListLen;i++){\r\n            address addr = whiteList[i];\r\n            uint256 price = _oracle.getPrice(addr);\r\n            totalNum = totalNum.add(price.mul(netWorthBalances[addr]));\r\n        }\r\n        return totalNum;  \r\n    }\r\n\r\n    function _paybackWorth(uint256 worth,uint256 feeType) internal {\r\n        uint256 totalPrice = 0;\r\n        uint whiteLen = whiteList.length;\r\n        uint256[] memory balances = new uint256[](whiteLen);\r\n        for (uint256 i=0;i<whiteLen;i++){\r\n            address addr = whiteList[i];\r\n            uint256 price = _oracle.getPrice(addr);\r\n            balances[i] = netWorthBalances[addr];\r\n            totalPrice = totalPrice.add(price.mul(balances[i]));\r\n        }\r\n        if (totalPrice == 0){\r\n            return;\r\n        }\r\n        for (i=0;i<whiteLen;i++){\r\n            uint256 _payBack = balances[i].mul(worth).div(totalPrice);\r\n            netWorthBalances[addr] = balances[i].sub(_payBack);\r\n            _transferPaybackAndFee(msg.sender,addr,_payBack,feeType);\r\n        } \r\n    }\r\n    function getPayableAmount(address settlement,uint256 settlementAmount) internal returns (uint256) {\r\n        require(checkAddressPayIn(settlement) , \"settlement is unsupported token\");\r\n        uint256 colAmount = 0;\r\n        if (settlement == address(0)){\r\n            colAmount = msg.value;\r\n        }else if (settlementAmount > 0){\r\n            IERC20 oToken = IERC20(settlement);\r\n            oToken.transferFrom(msg.sender, address(this), settlementAmount);\r\n            colAmount = settlementAmount;\r\n        }\r\n        return colAmount;\r\n    }\r\n    function calculateCollateral(uint256 amount)internal view returns (uint256){\r\n        uint256 result = collateralRate.numerator.mul(amount);\r\n        return result.div(collateralRate.denominator);\r\n    }\r\n\r\n}",
  "sourcePath": "C:\\work\\solidity\\FinnexusOptions_V2\\contracts\\CollateralPool.sol",
  "compiler": {
    "name": "solc",
    "version": "0.4.26+commit.4563c3fc.Emscripten.clang"
  },
  "schemaVersion": "3.1.0",
  "updatedAt": "2020-07-29T05:10:52.396Z",
  "devdoc": {
    "methods": {
      "addWhiteList(address)": {
        "details": "Implementation of add an eligible address into the whitelist.\r",
        "params": {
          "addAddress": "new eligible address.\r"
        }
      },
      "allowance(address,address)": {
        "details": "See {IERC20-allowance}.\r"
      },
      "approve(address,uint256)": {
        "details": "See {IERC20-approve}.\r      * Requirements:\r      * - `spender` cannot be the zero address.\r"
      },
      "balanceOf(address)": {
        "details": "See {IERC20-balanceOf}.\r"
      },
      "decreaseAllowance(address,uint256)": {
        "details": "Atomically decreases the allowance granted to `spender` by the caller.\r      * This is an alternative to {approve} that can be used as a mitigation for\r problems described in {IERC20-approve}.\r      * Emits an {Approval} event indicating the updated allowance.\r      * Requirements:\r      * - `spender` cannot be the zero address.\r - `spender` must have allowance for the caller of at least\r `subtractedValue`.\r"
      },
      "getWhiteList()": {
        "details": "Implementation of getting the eligible whitelist.\r"
      },
      "increaseAllowance(address,uint256)": {
        "details": "Atomically increases the allowance granted to `spender` by the caller.\r      * This is an alternative to {approve} that can be used as a mitigation for\r problems described in {IERC20-approve}.\r      * Emits an {Approval} event indicating the updated allowance.\r      * Requirements:\r      * - `spender` cannot be the zero address.\r"
      },
      "isEligibleAddress(address)": {
        "details": "Implementation of testing whether the input address is eligible.\r",
        "params": {
          "tmpAddress": "input address for testing.\r"
        }
      },
      "isOwner()": {
        "details": "Returns true if the caller is the current owner."
      },
      "owner()": {
        "details": "Returns the address of the current owner."
      },
      "removeWhiteList(address)": {
        "details": "Implementation of revoke an invalid address from the whitelist.\r",
        "params": {
          "removeAddress": "revoked address.\r"
        }
      },
      "renounceOwnership()": {
        "details": "Leaves the contract without owner. It will not be possible to call `onlyOwner` functions anymore. Can only be called by the current owner.     * NOTE: Renouncing ownership will leave the contract without an owner, thereby removing any functionality that is only available to the owner."
      },
      "setTransactionFee(uint256,uint256,uint256)": {
        "details": "set the rate of trasaction fee.\r",
        "params": {
          "denominator": "thedenominator of transaction fee.\r transaction fee = numerator/denominator;\r",
          "feeType": "the transaction fee type\r",
          "numerator": "the numerator of transaction fee .\r"
        }
      },
      "totalSupply()": {
        "details": "See {IERC20-totalSupply}.\r"
      },
      "transferOwnership(address)": {
        "details": "Transfers ownership of the contract to a new account (`newOwner`). Can only be called by the current owner."
      }
    }
  },
  "userdoc": {
    "methods": {
      "setHalt(bool)": {
        "notice": "function Emergency situation that requires contribution period to stop or not."
      },
      "setOperator(address)": {
        "notice": "contribution period to stop or not."
      }
    }
  }
}