{
  "contractName": "CollateralCal",
  "abi": [
    {
      "constant": true,
      "inputs": [
        {
          "name": "tmpAddress",
          "type": "address"
        }
      ],
      "name": "checkAddressRedeemOut",
      "outputs": [
        {
          "name": "",
          "type": "bool"
        }
      ],
      "payable": false,
      "stateMutability": "view",
      "type": "function"
    },
    {
      "constant": true,
      "inputs": [],
      "name": "getWhiteList",
      "outputs": [
        {
          "name": "",
          "type": "address[]"
        }
      ],
      "payable": false,
      "stateMutability": "view",
      "type": "function"
    },
    {
      "constant": false,
      "inputs": [
        {
          "name": "collateralPool",
          "type": "address"
        }
      ],
      "name": "setCollateralPoolAddress",
      "outputs": [],
      "payable": false,
      "stateMutability": "nonpayable",
      "type": "function"
    },
    {
      "constant": false,
      "inputs": [
        {
          "name": "optionsPool",
          "type": "address"
        }
      ],
      "name": "setOptionsPoolAddress",
      "outputs": [],
      "payable": false,
      "stateMutability": "nonpayable",
      "type": "function"
    },
    {
      "constant": false,
      "inputs": [
        {
          "name": "removeAddress",
          "type": "address"
        }
      ],
      "name": "removeWhiteList",
      "outputs": [
        {
          "name": "",
          "type": "bool"
        }
      ],
      "payable": false,
      "stateMutability": "nonpayable",
      "type": "function"
    },
    {
      "constant": true,
      "inputs": [],
      "name": "getCollateralPoolAddress",
      "outputs": [
        {
          "name": "",
          "type": "address"
        }
      ],
      "payable": false,
      "stateMutability": "view",
      "type": "function"
    },
    {
      "constant": false,
      "inputs": [
        {
          "name": "oracle",
          "type": "address"
        }
      ],
      "name": "setOracleAddress",
      "outputs": [],
      "payable": false,
      "stateMutability": "nonpayable",
      "type": "function"
    },
    {
      "constant": false,
      "inputs": [],
      "name": "renounceOwnership",
      "outputs": [],
      "payable": false,
      "stateMutability": "nonpayable",
      "type": "function"
    },
    {
      "constant": true,
      "inputs": [
        {
          "name": "tmpAddress",
          "type": "address"
        }
      ],
      "name": "isEligibleAddress",
      "outputs": [
        {
          "name": "",
          "type": "bool"
        }
      ],
      "payable": false,
      "stateMutability": "view",
      "type": "function"
    },
    {
      "constant": true,
      "inputs": [],
      "name": "owner",
      "outputs": [
        {
          "name": "",
          "type": "address"
        }
      ],
      "payable": false,
      "stateMutability": "view",
      "type": "function"
    },
    {
      "constant": true,
      "inputs": [],
      "name": "isOwner",
      "outputs": [
        {
          "name": "",
          "type": "bool"
        }
      ],
      "payable": false,
      "stateMutability": "view",
      "type": "function"
    },
    {
      "constant": false,
      "inputs": [
        {
          "name": "addAddress",
          "type": "address"
        }
      ],
      "name": "addOperator",
      "outputs": [],
      "payable": false,
      "stateMutability": "nonpayable",
      "type": "function"
    },
    {
      "constant": false,
      "inputs": [
        {
          "name": "removeAddress",
          "type": "address"
        }
      ],
      "name": "removeOperator",
      "outputs": [
        {
          "name": "",
          "type": "bool"
        }
      ],
      "payable": false,
      "stateMutability": "nonpayable",
      "type": "function"
    },
    {
      "constant": true,
      "inputs": [],
      "name": "getOracleAddress",
      "outputs": [
        {
          "name": "",
          "type": "address"
        }
      ],
      "payable": false,
      "stateMutability": "view",
      "type": "function"
    },
    {
      "constant": true,
      "inputs": [
        {
          "name": "tmpAddress",
          "type": "address"
        }
      ],
      "name": "checkAddressPayIn",
      "outputs": [
        {
          "name": "",
          "type": "bool"
        }
      ],
      "payable": false,
      "stateMutability": "view",
      "type": "function"
    },
    {
      "constant": true,
      "inputs": [],
      "name": "getOptionsPoolAddress",
      "outputs": [
        {
          "name": "",
          "type": "address"
        }
      ],
      "payable": false,
      "stateMutability": "view",
      "type": "function"
    },
    {
      "constant": false,
      "inputs": [
        {
          "name": "addAddress",
          "type": "address"
        },
        {
          "name": "permission",
          "type": "uint256"
        }
      ],
      "name": "modifyPermission",
      "outputs": [],
      "payable": false,
      "stateMutability": "nonpayable",
      "type": "function"
    },
    {
      "constant": true,
      "inputs": [],
      "name": "getFPTCoinAddress",
      "outputs": [
        {
          "name": "",
          "type": "address"
        }
      ],
      "payable": false,
      "stateMutability": "view",
      "type": "function"
    },
    {
      "constant": false,
      "inputs": [
        {
          "name": "FPTCoinAddr",
          "type": "address"
        }
      ],
      "name": "setFPTCoinAddress",
      "outputs": [],
      "payable": false,
      "stateMutability": "nonpayable",
      "type": "function"
    },
    {
      "constant": false,
      "inputs": [
        {
          "name": "index",
          "type": "uint256"
        },
        {
          "name": "addAddress",
          "type": "address"
        }
      ],
      "name": "setOperator",
      "outputs": [],
      "payable": false,
      "stateMutability": "nonpayable",
      "type": "function"
    },
    {
      "constant": false,
      "inputs": [
        {
          "name": "addAddress",
          "type": "address"
        }
      ],
      "name": "addWhiteList",
      "outputs": [],
      "payable": false,
      "stateMutability": "nonpayable",
      "type": "function"
    },
    {
      "constant": true,
      "inputs": [],
      "name": "getOperator",
      "outputs": [
        {
          "name": "",
          "type": "address[]"
        }
      ],
      "payable": false,
      "stateMutability": "view",
      "type": "function"
    },
    {
      "constant": false,
      "inputs": [
        {
          "name": "newOwner",
          "type": "address"
        }
      ],
      "name": "transferOwnership",
      "outputs": [],
      "payable": false,
      "stateMutability": "nonpayable",
      "type": "function"
    },
    {
      "constant": false,
      "inputs": [
        {
          "name": "halt",
          "type": "bool"
        }
      ],
      "name": "setHalt",
      "outputs": [],
      "payable": false,
      "stateMutability": "nonpayable",
      "type": "function"
    },
    {
      "anonymous": false,
      "inputs": [
        {
          "indexed": true,
          "name": "from",
          "type": "address"
        },
        {
          "indexed": true,
          "name": "collateral",
          "type": "address"
        },
        {
          "indexed": false,
          "name": "amount",
          "type": "uint256"
        },
        {
          "indexed": false,
          "name": "tokenAmount",
          "type": "uint256"
        }
      ],
      "name": "AddCollateral",
      "type": "event"
    },
    {
      "anonymous": false,
      "inputs": [
        {
          "indexed": true,
          "name": "from",
          "type": "address"
        },
        {
          "indexed": false,
          "name": "collateral",
          "type": "address"
        },
        {
          "indexed": false,
          "name": "allRedeem",
          "type": "uint256"
        }
      ],
      "name": "RedeemCollateral",
      "type": "event"
    },
    {
      "anonymous": false,
      "inputs": [
        {
          "indexed": false,
          "name": "value1",
          "type": "int256"
        },
        {
          "indexed": false,
          "name": "value2",
          "type": "uint256"
        },
        {
          "indexed": false,
          "name": "value3",
          "type": "int256"
        }
      ],
      "name": "DebugEvent",
      "type": "event"
    },
    {
      "anonymous": false,
      "inputs": [
        {
          "indexed": true,
          "name": "previousOwner",
          "type": "address"
        },
        {
          "indexed": true,
          "name": "newOwner",
          "type": "address"
        }
      ],
      "name": "OwnershipTransferred",
      "type": "event"
    },
    {
      "constant": true,
      "inputs": [],
      "name": "getInputAmountRange",
      "outputs": [
        {
          "name": "",
          "type": "uint256"
        },
        {
          "name": "",
          "type": "uint256"
        }
      ],
      "payable": false,
      "stateMutability": "view",
      "type": "function"
    },
    {
      "constant": false,
      "inputs": [
        {
          "name": "_minAmount",
          "type": "uint256"
        },
        {
          "name": "_maxAmount",
          "type": "uint256"
        }
      ],
      "name": "setInputAmountRange",
      "outputs": [],
      "payable": false,
      "stateMutability": "nonpayable",
      "type": "function"
    },
    {
      "constant": false,
      "inputs": [
        {
          "name": "settlement",
          "type": "address"
        },
        {
          "name": "amount",
          "type": "uint256"
        }
      ],
      "name": "addNetBalance",
      "outputs": [],
      "payable": true,
      "stateMutability": "payable",
      "type": "function"
    },
    {
      "constant": false,
      "inputs": [
        {
          "name": "_timeLimited",
          "type": "uint256"
        }
      ],
      "name": "setCollateralTimeLimited",
      "outputs": [],
      "payable": false,
      "stateMutability": "nonpayable",
      "type": "function"
    },
    {
      "constant": true,
      "inputs": [
        {
          "name": "user",
          "type": "address"
        }
      ],
      "name": "getUserCollateralTimeLimite",
      "outputs": [
        {
          "name": "",
          "type": "uint256"
        }
      ],
      "payable": false,
      "stateMutability": "view",
      "type": "function"
    },
    {
      "constant": false,
      "inputs": [
        {
          "name": "colRate",
          "type": "uint256"
        }
      ],
      "name": "setCollateralRate",
      "outputs": [],
      "payable": false,
      "stateMutability": "nonpayable",
      "type": "function"
    },
    {
      "constant": true,
      "inputs": [],
      "name": "getCollateralRate",
      "outputs": [
        {
          "name": "",
          "type": "uint256"
        }
      ],
      "payable": false,
      "stateMutability": "view",
      "type": "function"
    },
    {
      "constant": true,
      "inputs": [
        {
          "name": "user",
          "type": "address"
        }
      ],
      "name": "getUserPayingUsd",
      "outputs": [
        {
          "name": "",
          "type": "uint256"
        }
      ],
      "payable": false,
      "stateMutability": "view",
      "type": "function"
    },
    {
      "constant": true,
      "inputs": [
        {
          "name": "user",
          "type": "address"
        },
        {
          "name": "collateral",
          "type": "address"
        }
      ],
      "name": "userInputCollateral",
      "outputs": [
        {
          "name": "",
          "type": "uint256"
        }
      ],
      "payable": false,
      "stateMutability": "view",
      "type": "function"
    },
    {
      "constant": false,
      "inputs": [],
      "name": "calSharedPayment",
      "outputs": [],
      "payable": false,
      "stateMutability": "nonpayable",
      "type": "function"
    },
    {
      "constant": false,
      "inputs": [
        {
          "name": "newNetworth",
          "type": "int256[]"
        },
        {
          "name": "sharedBalances",
          "type": "int256[]"
        },
        {
          "name": "firstOption",
          "type": "uint256"
        }
      ],
      "name": "setSharedPayment",
      "outputs": [],
      "payable": false,
      "stateMutability": "nonpayable",
      "type": "function"
    },
    {
      "constant": true,
      "inputs": [
        {
          "name": "account",
          "type": "address"
        }
      ],
      "name": "getUserTotalWorth",
      "outputs": [
        {
          "name": "",
          "type": "uint256"
        }
      ],
      "payable": false,
      "stateMutability": "view",
      "type": "function"
    },
    {
      "constant": true,
      "inputs": [],
      "name": "getTokenNetworth",
      "outputs": [
        {
          "name": "",
          "type": "uint256"
        }
      ],
      "payable": false,
      "stateMutability": "view",
      "type": "function"
    },
    {
      "constant": false,
      "inputs": [
        {
          "name": "collateral",
          "type": "address"
        },
        {
          "name": "amount",
          "type": "uint256"
        }
      ],
      "name": "addCollateral",
      "outputs": [],
      "payable": true,
      "stateMutability": "payable",
      "type": "function"
    },
    {
      "constant": false,
      "inputs": [
        {
          "name": "tokenAmount",
          "type": "uint256"
        },
        {
          "name": "collateral",
          "type": "address"
        }
      ],
      "name": "redeemCollateral",
      "outputs": [],
      "payable": false,
      "stateMutability": "nonpayable",
      "type": "function"
    },
    {
      "constant": true,
      "inputs": [
        {
          "name": "account",
          "type": "address"
        }
      ],
      "name": "calCollateralWorth",
      "outputs": [
        {
          "name": "",
          "type": "uint256[]"
        }
      ],
      "payable": false,
      "stateMutability": "view",
      "type": "function"
    },
    {
      "constant": true,
      "inputs": [],
      "name": "getOccupiedCollateral",
      "outputs": [
        {
          "name": "",
          "type": "uint256"
        }
      ],
      "payable": false,
      "stateMutability": "view",
      "type": "function"
    },
    {
      "constant": true,
      "inputs": [],
      "name": "getAvailableCollateral",
      "outputs": [
        {
          "name": "",
          "type": "uint256"
        }
      ],
      "payable": false,
      "stateMutability": "view",
      "type": "function"
    },
    {
      "constant": true,
      "inputs": [],
      "name": "getLeftCollateral",
      "outputs": [
        {
          "name": "",
          "type": "uint256"
        }
      ],
      "payable": false,
      "stateMutability": "view",
      "type": "function"
    },
    {
      "constant": true,
      "inputs": [],
      "name": "getUnlockedCollateral",
      "outputs": [
        {
          "name": "",
          "type": "uint256"
        }
      ],
      "payable": false,
      "stateMutability": "view",
      "type": "function"
    },
    {
      "constant": true,
      "inputs": [
        {
          "name": "strikePrice",
          "type": "uint256"
        },
        {
          "name": "underlyingPrice",
          "type": "uint256"
        },
        {
          "name": "amount",
          "type": "uint256"
        },
        {
          "name": "optType",
          "type": "uint8"
        }
      ],
      "name": "calOptionsOccupied",
      "outputs": [
        {
          "name": "",
          "type": "uint256"
        }
      ],
      "payable": false,
      "stateMutability": "view",
      "type": "function"
    },
    {
      "constant": true,
      "inputs": [],
      "name": "getTotalCollateral",
      "outputs": [
        {
          "name": "",
          "type": "uint256"
        }
      ],
      "payable": false,
      "stateMutability": "view",
      "type": "function"
    },
    {
      "constant": true,
      "inputs": [
        {
          "name": "settlement",
          "type": "address"
        }
      ],
      "name": "getRealBalance",
      "outputs": [
        {
          "name": "",
          "type": "int256"
        }
      ],
      "payable": false,
      "stateMutability": "view",
      "type": "function"
    },
    {
      "constant": true,
      "inputs": [
        {
          "name": "settlement",
          "type": "address"
        }
      ],
      "name": "getNetWorthBalance",
      "outputs": [
        {
          "name": "",
          "type": "uint256"
        }
      ],
      "payable": false,
      "stateMutability": "view",
      "type": "function"
    }
  ],
  "bytecode": "0x6080604081905260008054611388600855610e10600a556c0c9f2c9cd04674edea40000000600b55633b9aca00600c55600160b060020a03191661010033810291909117808355600160a060020a0391900416917f8be0079c531659141344cd1fd0a4f28419497f9722a3daafe3b4186f6b6457e0908290a36140c0806100876000396000f30060806040526004361061022c5763ffffffff60e060020a600035041663059621d7811461023157806309a9d76c146102665780630aaf3832146102cb5780630c80d691146102f25780631730b3cb146103135780631a5a3fce146103365780632042e5c214610357578063251e2fe31461037857806332c82a5f146103a957806342049a72146103cd578063447dbeac146103ee5780634c69c00f1461040f57806360b1ccdf14610430578063624b5ed4146104515780636b6ecea8146104695780636d75b9ee1461048a578063715018a6146104a1578063817bf86d146104b6578063852185fc146104d75780638691a8c5146104ec5780638da5cb5b146105035780638f32d59b146105185780639870d7fe1461052d5780639ab91a351461054e578063a20a804514610569578063a37c4fcf1461058d578063a56ea4031461061d578063a8cbcb011461063e578063ac8a584a14610656578063b18b78dd14610677578063b4d5a9c71461068c578063bc2c3002146106b3578063bc9abed2146106c8578063bdac4bf6146106f6578063c040725a14610717578063c219043b1461072c578063c5e5a3ed14610750578063cd40581914610765578063d6eb59101461077a578063d7e579921461078f578063dab55129146107a4578063e28a327d146107b9578063e7122ffd146107ce578063e7a1c1c0146107ef578063e7cd4a0414610813578063e7f43c6814610834578063f2fde38b14610849578063f49543871461086a575b600080fd5b34801561023d57600080fd5b50610252600160a060020a0360043516610884565b604080519115158252519081900360200190f35b34801561027257600080fd5b5061027b6108bc565b60408051602080825283518183015283519192839290830191858101910280838360005b838110156102b757818101518382015260200161029f565b505050509050019250505060405180910390f35b3480156102d757600080fd5b506102e061091f565b60408051918252519081900360200190f35b3480156102fe57600080fd5b506102e0600160a060020a036004351661093e565b34801561031f57600080fd5b50610334600160a060020a0360043516610a89565b005b34801561034257600080fd5b50610334600160a060020a0360043516610b04565b34801561036357600080fd5b50610252600160a060020a0360043516610b7f565b34801561038457600080fd5b5061038d610bd8565b60408051600160a060020a039092168252519081900360200190f35b3480156103b557600080fd5b506102e060043560243560443560ff60643516610be7565b3480156103d957600080fd5b506102e0600160a060020a0360043516610c19565b3480156103fa57600080fd5b506102e0600160a060020a0360043516610cb6565b34801561041b57600080fd5b50610334600160a060020a0360043516610e06565b34801561043c57600080fd5b506102e0600160a060020a0360043516610e81565b34801561045d57600080fd5b50610334600435610ea3565b34801561047557600080fd5b506102e0600160a060020a0360043516610ef4565b610334600160a060020a0360043516602435611052565b3480156104ad57600080fd5b5061033461155f565b3480156104c257600080fd5b50610252600160a060020a0360043516611607565b3480156104e357600080fd5b506102e061166d565b610334600160a060020a0360043516602435611673565b34801561050f57600080fd5b5061038d6117bd565b34801561052457600080fd5b506102526117d1565b34801561053957600080fd5b50610334600160a060020a03600435166117e7565b34801561055a57600080fd5b50610334600435602435611841565b34801561057557600080fd5b50610334600435600160a060020a0360243516611898565b34801561059957600080fd5b506040805160206004803580820135838102808601850190965280855261033495369593946024949385019291829185019084908082843750506040805187358901803560208181028481018201909552818452989b9a9989019892975090820195509350839250850190849080828437509497505093359450611d689350505050565b34801561062957600080fd5b5061027b600160a060020a0360043516612040565b34801561064a57600080fd5b50610334600435612106565b34801561066257600080fd5b50610252600160a060020a0360043516612157565b34801561068357600080fd5b5061038d6121b0565b34801561069857600080fd5b506102e0600160a060020a03600435811690602435166121bf565b3480156106bf57600080fd5b50610334612265565b3480156106d457600080fd5b506106dd6128c9565b6040805192835260208301919091528051918290030190f35b34801561070257600080fd5b50610252600160a060020a03600435166128d3565b34801561072357600080fd5b5061038d612907565b34801561073857600080fd5b50610334600160a060020a0360043516602435612916565b34801561075c57600080fd5b506102e061297e565b34801561077157600080fd5b506102e0612a45565b34801561078657600080fd5b506102e0612ad9565b34801561079b57600080fd5b5061038d612bfe565b3480156107b057600080fd5b506102e0612c0d565b3480156107c557600080fd5b506102e0612c9e565b3480156107da57600080fd5b50610334600160a060020a0360043516612cab565b3480156107fb57600080fd5b50610334600435600160a060020a0360243516612d26565b34801561081f57600080fd5b50610334600160a060020a0360043516612db4565b34801561084057600080fd5b5061027b612e2b565b34801561085557600080fd5b50610334600160a060020a0360043516612e8b565b34801561087657600080fd5b506103346004351515612ee0565b600061088f82611607565b80156108b65750600160a060020a0382166000908152600260208190526040909120548116145b92915050565b6060600180548060200260200160405190810160405280929190818152602001828054801561091457602002820191906000526020600020905b8154600160a060020a031681526001909101906020018083116108f6575b505050505090505b90565b600061093961092c612ad9565b610934612a45565b612f6e565b905090565b600654604080517f6b6ecea8000000000000000000000000000000000000000000000000000000008152600160a060020a038481166004830152915160009384938493911691636b6ecea89160248082019260209290919082900301818787803b1580156109ab57600080fd5b505af11580156109bf573d6000803e3d6000fd5b505050506040513d60208110156109d557600080fd5b5051600554604080517f7e1bcb76000000000000000000000000000000000000000000000000000000008152600160a060020a0388811660048301529151939550911691637e1bcb76916024808201926020929091908290030181600087803b158015610a4157600080fd5b505af1158015610a55573d6000803e3d6000fd5b505050506040513d6020811015610a6b57600080fd5b50519050610a7f828263ffffffff612f8916565b92505b5050919050565b610a916117d1565b1515610ad5576040805160e560020a62461bcd0281526020600482018190526024820152600080516020614075833981519152604482015290519081900360640190fd5b6006805473ffffffffffffffffffffffffffffffffffffffff1916600160a060020a0392909216919091179055565b610b0c6117d1565b1515610b50576040805160e560020a62461bcd0281526020600482018190526024820152600080516020614075833981519152604482015290519081900360640190fd5b6005805473ffffffffffffffffffffffffffffffffffffffff1916600160a060020a0392909216919091179055565b6000610b896117d1565b1515610bcd576040805160e560020a62461bcd0281526020600482018190526024820152600080516020614075833981519152604482015290519081900360640190fd5b6108b6600183612fcb565b600654600160a060020a031690565b60008060ff8316158587111415610c015750848302610c06565b508383025b610c0f816130ba565b9695505050505050565b600654604080517f42049a72000000000000000000000000000000000000000000000000000000008152600160a060020a038481166004830152915160009392909216916342049a729160248082019260209290919082900301818787803b158015610c8457600080fd5b505af1158015610c98573d6000803e3d6000fd5b505050506040513d6020811015610cae57600080fd5b505192915050565b600354604080517f07e77aa0000000000000000000000000000000000000000000000000000000008152600160a060020a03848116600483015291516000936108b69316916307e77aa091602480830192602092919082900301818887803b158015610d2157600080fd5b505af1158015610d35573d6000803e3d6000fd5b505050506040513d6020811015610d4b57600080fd5b5051600354604080517f70a08231000000000000000000000000000000000000000000000000000000008152600160a060020a0387811660048301529151610dfa9392909216916370a08231916024808201926020929091908290030181600087803b158015610dba57600080fd5b505af1158015610dce573d6000803e3d6000fd5b505050506040513d6020811015610de457600080fd5b5051610dee61297e565b9063ffffffff6130e416565b9063ffffffff61318e16565b610e0e6117d1565b1515610e52576040805160e560020a62461bcd0281526020600482018190526024820152600080516020614075833981519152604482015290519081900360640190fd5b6004805473ffffffffffffffffffffffffffffffffffffffff1916600160a060020a0392909216919091179055565b600a54600160a060020a03821660009081526009602052604090205401919050565b610eab6117d1565b1515610eef576040805160e560020a62461bcd0281526020600482018190526024820152600080516020614075833981519152604482015290519081900360640190fd5b600855565b600654604080517f6b6ecea8000000000000000000000000000000000000000000000000000000008152600160a060020a038481166004830152915160009384938493911691636b6ecea89160248082019260209290919082900301818787803b158015610f6157600080fd5b505af1158015610f75573d6000803e3d6000fd5b505050506040513d6020811015610f8b57600080fd5b5051600554604080517f7e1bcb76000000000000000000000000000000000000000000000000000000008152600160a060020a0388811660048301529151939550911691637e1bcb76916024808201926020929091908290030181600087803b158015610ff757600080fd5b505af115801561100b573d6000803e3d6000fd5b505050506040513d602081101561102157600080fd5b50519050611035828263ffffffff612f8916565b9150600082131561104857819250610a82565b5060009392505050565b6000805481908190819060ff161561106957600080fd5b6000805460ff1916600117908190557501000000000000000000000000000000000000000000900460ff16156110e9576040805160e560020a62461bcd02815260206004820152601760248201527f5468697320636f6e74726163742069732068616c746564000000000000000000604482015290519081900360640190fd5b6110f386866131eb565b600654604080517fc3c579cc000000000000000000000000000000000000000000000000000000008152600160a060020a038a811660048301526024820185905260036044830152915193985091169163c3c579cc916064808201926020929091908290030181600087803b15801561116b57600080fd5b505af115801561117f573d6000803e3d6000fd5b505050506040513d602081101561119557600080fd5b505160048054604080517f41976e09000000000000000000000000000000000000000000000000000000008152600160a060020a038b811694820194909452905198849003989397509116916341976e09916024808201926020929091908290030181600087803b15801561120957600080fd5b505af115801561121d573d6000803e3d6000fd5b505050506040513d602081101561123357600080fd5b50519250848302915061124461297e565b8281151561124e57fe5b600654604080517f692a76a7000000000000000000000000000000000000000000000000000000008152336004820152602481018790529051939092049350600160a060020a03169163692a76a79160448082019260009290919082900301818387803b1580156112be57600080fd5b505af11580156112d2573d6000803e3d6000fd5b5050600654604080517f2b2d50c3000000000000000000000000000000000000000000000000000000008152600160a060020a038b81166004830152602482018b90529151919092169350632b2d50c39250604480830192600092919082900301818387803b15801561134457600080fd5b505af1158015611358573d6000803e3d6000fd5b5050600654604080517fd56dbe88000000000000000000000000000000000000000000000000000000008152336004820152600160a060020a038b81166024830152604482018b9052915191909216935063d56dbe889250606480830192600092919082900301818387803b1580156113d057600080fd5b505af11580156113e4573d6000803e3d6000fd5b5050600654604080517ffee80a49000000000000000000000000000000000000000000000000000000008152600160a060020a038b81166004830152602482018b9052915191909216935063fee80a499250604480830192600092919082900301818387803b15801561145657600080fd5b505af115801561146a573d6000803e3d6000fd5b50503360008181526009602090815260409182902042905581518a81529081018690528151600160a060020a038c1695509293507f33a089d94f9a0b7d0fe21e69b40d7dbe1965be652c7382cc778d46963db8c49b929081900390910190a3600354604080517f40c10f19000000000000000000000000000000000000000000000000000000008152336004820152602481018490529051600160a060020a03909216916340c10f199160448082019260009290919082900301818387803b15801561153557600080fd5b505af1158015611549573d6000803e3d6000fd5b50506000805460ff191690555050505050505050565b6115676117d1565b15156115ab576040805160e560020a62461bcd0281526020600482018190526024820152600080516020614075833981519152604482015290519081900360640190fd5b60008054604051610100909104600160a060020a0316907f8be0079c531659141344cd1fd0a4f28419497f9722a3daafe3b4186f6b6457e0908390a36000805474ffffffffffffffffffffffffffffffffffffffff0019169055565b60006108b6600180548060200260200160405190810160405280929190818152602001828054801561166257602002820191906000526020600020905b8154600160a060020a03168152600190910190602001808311611644575b5050505050836133fd565b60085490565b600754600190811080156116aa5750600780543391908390811061169357fe5b600091825260209091200154600160a060020a0316145b1515611726576040805160e560020a62461bcd02815260206004820152603060248201527f4d616e6167657261626c653a2063616c6c6572206973206e6f7420746865206560448201527f6c696769626c65204f70657261746f7200000000000000000000000000000000606482015290519081900360840190fd5b61173083836131eb565b600654604080517ffee80a49000000000000000000000000000000000000000000000000000000008152600160a060020a03878116600483015260248201859052915193955091169163fee80a499160448082019260009290919082900301818387803b1580156117a057600080fd5b505af11580156117b4573d6000803e3d6000fd5b50505050505050565b6000546101009004600160a060020a031690565b6000546101009004600160a060020a0316331490565b6117ef6117d1565b1515611833576040805160e560020a62461bcd0281526020600482018190526024820152600080516020614075833981519152604482015290519081900360640190fd5b61183e60078261344e565b50565b6118496117d1565b151561188d576040805160e560020a62461bcd0281526020600482018190526024820152600080516020614075833981519152604482015290519081900360640190fd5b600c91909155600b55565b6000805481908190819081908190819060ff16156118b557600080fd5b6000805460ff1916600117908190557501000000000000000000000000000000000000000000900460ff1615611935576040805160e560020a62461bcd02815260206004820152601760248201527f5468697320636f6e74726163742069732068616c746564000000000000000000604482015290519081900360640190fd5b61193e896134f4565b61194788610884565b151561199d576040805160e560020a62461bcd02815260206004820152601f60248201527f736574746c656d656e7420697320756e737570706f7274656420746f6b656e00604482015290519081900360640190fd5b600a543360009081526009602052604090205442910110611a2e576040805160e560020a62461bcd02815260206004820152602960248201527f636f6c6c61746572616c206c6f636b206c696d69746174696f6e206973206e6f60448201527f7420657870697265640000000000000000000000000000000000000000000000606482015290519081900360840190fd5b600354604080517f593557360000000000000000000000000000000000000000000000000000000081523360048201529051600160a060020a03909216916359355736916024808201926020929091908290030181600087803b158015611a9457600080fd5b505af1158015611aa8573d6000803e3d6000fd5b505050506040513d6020811015611abe57600080fd5b5051600354604080517f70a0823100000000000000000000000000000000000000000000000000000000815233600482015290519299508b928a92600160a060020a0316916370a082319160248083019260209291908290030181600087803b158015611b2a57600080fd5b505af1158015611b3e573d6000803e3d6000fd5b505050506040513d6020811015611b5457600080fd5b5051011015611bad576040805160e560020a62461bcd02815260206004820152601e60248201527f53436f696e2062616c616e636520697320696e73756666696369656e74210000604482015290519081900360640190fd5b611bb633610cb6565b9550611bc061091f565b600354604080517f35f0c4fa000000000000000000000000000000000000000000000000000000008152336004820152602481018d9052604481018490528151939850600160a060020a03909216926335f0c4fa9260648082019392918290030181600087803b158015611c3357600080fd5b505af1158015611c47573d6000803e3d6000fd5b505050506040513d6040811015611c5d57600080fd5b50805160209091015199039860009450925083891115611cba5782850394506000871115611c9a57868911611c93576000611c97565b8689035b98505b611ca48986613584565b915091506000821115611cba5781935080830192505b611cc588848861366e565b6000841115611d5357600354604080517f9dc29fac000000000000000000000000000000000000000000000000000000008152336004820152602481018790529051600160a060020a0390921691639dc29fac9160448082019260009290919082900301818387803b158015611d3a57600080fd5b505af1158015611d4e573d6000803e3d6000fd5b505050505b50506000805460ff1916905550505050505050565b60075460009081108015611d9f57506007805433919083908110611d8857fe5b600091825260209091200154600160a060020a0316145b1515611e1b576040805160e560020a62461bcd02815260206004820152603060248201527f4d616e6167657261626c653a2063616c6c6572206973206e6f7420746865206560448201527f6c696769626c65204f70657261746f7200000000000000000000000000000000606482015290519081900360840190fd5b6005546040517f2415e01000000000000000000000000000000000000000000000000000000000815260048101848152606060248301908152865160648401528651600160a060020a0390941693632415e0109387938993600193919290916044820191608401906020808801910280838360005b83811015611ea8578181015183820152602001611e90565b505050509050018381038252848181548152602001915080548015611ef657602002820191906000526020600020905b8154600160a060020a03168152600190910190602001808311611ed8575b505095505050505050600060405180830381600087803b158015611f1957600080fd5b505af1158015611f2d573d6000803e3d6000fd5b5050600654604080517f1f88286a000000000000000000000000000000000000000000000000000000008152600481019182526001805460448301819052600160a060020a039094169550631f88286a945092899291829160248201916064019086908015611fc557602002820191906000526020600020905b8154600160a060020a03168152600190910190602001808311611fa7575b50508381038252845181528451602091820191808701910280838360005b83811015611ffb578181015183820152602001611fe3565b50505050905001945050505050600060405180830381600087803b15801561202257600080fd5b505af1158015612036573d6000803e3d6000fd5b5050505050505050565b6060600060608060008061205387610cb6565b9450612084876001600081548110151561206957fe5b600091825260209091200154600160a060020a03168761388b565b5060015491955093509150600090505b818110156120fb576120db83828151811015156120ad57fe5b9060200190602002015185838151811015156120c557fe5b602090810290910101519063ffffffff61318e16565b84828151811015156120e957fe5b60209081029091010152600101612094565b509195945050505050565b61210e6117d1565b1515612152576040805160e560020a62461bcd0281526020600482018190526024820152600080516020614075833981519152604482015290519081900360640190fd5b600a55565b60006121616117d1565b15156121a5576040805160e560020a62461bcd0281526020600482018190526024820152600080516020614075833981519152604482015290519081900360640190fd5b6108b6600783612fcb565b600454600160a060020a031690565b600654604080517f6ba170b5000000000000000000000000000000000000000000000000000000008152600160a060020a038581166004830152848116602483015291516000939290921691636ba170b59160448082019260209290919082900301818787803b15801561223257600080fd5b505af1158015612246573d6000803e3d6000fd5b505050506040513d602081101561225c57600080fd5b50909392505050565b606060006060600060608060006060600080806007805490501180156122ae5750600780543391908390811061229757fe5b600091825260209091200154600160a060020a0316145b151561232a576040805160e560020a62461bcd02815260206004820152603060248201527f4d616e6167657261626c653a2063616c6c6572206973206e6f7420746865206560448201527f6c696769626c65204f70657261746f7200000000000000000000000000000000606482015290519081900360840190fd5b600180548060200260200160405190810160405280929190818152602001828054801561238057602002820191906000526020600020905b8154600160a060020a03168152600190910190602001808311612362575b50505050509950600560009054906101000a9004600160a060020a0316600160a060020a0316636a43c05e8b6040518263ffffffff1660e060020a0281526004018080602001828103825283818151815260200191508051906020019060200280838360005b838110156123fe5781810151838201526020016123e6565b5050505090500192505050600060405180830381600087803b15801561242357600080fd5b505af1158015612437573d6000803e3d6000fd5b505050506040513d6000823e601f3d908101601f19168201604090815281101561246057600080fd5b81516020830180519193928301929164010000000081111561248157600080fd5b8201602081018481111561249457600080fd5b81518560208202830111640100000000821117156124b157600080fd5b5050600554604080517fbec3107f0000000000000000000000000000000000000000000000000000000081529051969f50919d50600160a060020a03169463bec3107f9450600480830194506020935090918290030181600087803b15801561251957600080fd5b505af115801561252d573d6000803e3d6000fd5b505050506040513d602081101561254357600080fd5b81019080805190602001909291905050509650600560009054906101000a9004600160a060020a0316600160a060020a03166332ab5c20888b8a8e6040518563ffffffff1660e060020a0281526004018085815260200184815260200183815260200180602001828103825283818151815260200191508051906020019060200280838360005b838110156125e25781810151838201526020016125ca565b5050505090500195505050505050600060405180830381600087803b15801561260a57600080fd5b505af115801561261e573d6000803e3d6000fd5b505050506040513d6000823e601f3d908101601f19168201604052606081101561264757600080fd5b81019080805164010000000081111561265f57600080fd5b8201602081018481111561267257600080fd5b815185602082028301116401000000008211171561268f57600080fd5b505092919060200180516401000000008111156126ab57600080fd5b820160208101848111156126be57600080fd5b81518560208202830111640100000000821117156126db57600080fd5b505092919060200180519060200190929190505050955095509550600560009054906101000a9004600160a060020a0316600160a060020a03166343674c3a88868a8e6040518563ffffffff1660e060020a0281526004018085815260200184815260200183815260200180602001828103825283818151815260200191508051906020019060200280838360005b8381101561278257818101518382015260200161276a565b5050505090500195505050505050600060405180830381600087803b1580156127aa57600080fd5b505af11580156127be573d6000803e3d6000fd5b505050506040513d6000823e601f3d908101601f1916820160405260208110156127e757600080fd5b8101908080516401000000008111156127ff57600080fd5b8201602081018481111561281257600080fd5b815185602082028301116401000000008211171561282f57600080fd5b5090965060009550505050505b82518210156128b257828281518110151561285357fe5b90602001906020020151888381518110151561286b57fe5b90602001906020020151868481518110151561288357fe5b906020019060200201510301838381518110151561289d57fe5b6020908102909101015260019091019061283c565b6128bd868486611d68565b50505050505050505050565b600c54600b549091565b60006128de82611607565b80156108b6575050600160a060020a031660009081526002602052604090205460019081161490565b600554600160a060020a031690565b61291e6117d1565b1515612962576040805160e560020a62461bcd0281526020600482018190526024820152600080516020614075833981519152604482015290519081900360640190fd5b600160a060020a03909116600090815260026020526040902055565b6000806000600360009054906101000a9004600160a060020a0316600160a060020a03166318160ddd6040518163ffffffff1660e060020a028152600401602060405180830381600087803b1580156129d657600080fd5b505af11580156129ea573d6000803e3d6000fd5b505050506040513d6020811015612a0057600080fd5b50519150811515612a17576305f5e1009250612a40565b81612a20612c0d565b811515612a2957fe5b04905060648111612a3b576064612a3d565b805b92505b505090565b600080600560009054906101000a9004600160a060020a0316600160a060020a03166373a3d4246040518163ffffffff1660e060020a028152600401602060405180830381600087803b158015612a9b57600080fd5b505af1158015612aaf573d6000803e3d6000fd5b505050506040513d6020811015612ac557600080fd5b50519050612ad2816130ba565b91505b5090565b6001546000908190818080805b84841015612be1576001805485908110612afc57fe5b600091825260208083209091015460048054604080517f41976e09000000000000000000000000000000000000000000000000000000008152600160a060020a0394851693810184905290519298509216936341976e0993602480850194919392918390030190829087803b158015612b7457600080fd5b505af1158015612b88573d6000803e3d6000fd5b505050506040513d6020811015612b9e57600080fd5b50519150612bab8361093e565b90508015612bd657612bd3612bc6838363ffffffff613c4c16565b879063ffffffff612f8916565b95505b600190930192612ae6565b6000861215612bf1576000612bf3565b855b965050505050505090565b600354600160a060020a031690565b6000610939612c1a612ad9565b600360009054906101000a9004600160a060020a0316600160a060020a031663dad3eb746040518163ffffffff1660e060020a028152600401602060405180830381600087803b158015612c6d57600080fd5b505af1158015612c81573d6000803e3d6000fd5b505050506040513d6020811015612c9757600080fd5b5051612f6e565b600061093961092c612c0d565b612cb36117d1565b1515612cf7576040805160e560020a62461bcd0281526020600482018190526024820152600080516020614075833981519152604482015290519081900360640190fd5b6003805473ffffffffffffffffffffffffffffffffffffffff1916600160a060020a0392909216919091179055565b612d2e6117d1565b1515612d72576040805160e560020a62461bcd0281526020600482018190526024820152600080516020614075833981519152604482015290519081900360640190fd5b80600783815481101515612d8257fe5b9060005260206000200160006101000a815481600160a060020a030219169083600160a060020a031602179055505050565b612dbc6117d1565b1515612e00576040805160e560020a62461bcd0281526020600482018190526024820152600080516020614075833981519152604482015290519081900360640190fd5b612e0b60018261344e565b600160a060020a0316600090815260026020526040902063ffffffff9055565b6060600780548060200260200160405190810160405280929190818152602001828054801561091457602002820191906000526020600020908154600160a060020a031681526001909101906020018083116108f6575050505050905090565b612e936117d1565b1515612ed7576040805160e560020a62461bcd0281526020600482018190526024820152600080516020614075833981519152604482015290519081900360640190fd5b61183e81613ceb565b612ee86117d1565b1515612f2c576040805160e560020a62461bcd0281526020600482018190526024820152600080516020614075833981519152604482015290519081900360640190fd5b6000805491151575010000000000000000000000000000000000000000000275ff00000000000000000000000000000000000000000019909216919091179055565b6000818311612f7e576000612f82565b8183035b9392505050565b6000612f8283836040805190810160405280601d81526020017f53616665496e743235363a206164646974696f6e206f766572666c6f77000000815250613de4565b8154600090815b8181101561301a5783600160a060020a03168582815481101515612ff257fe5b600091825260209091200154600160a060020a031614156130125761301a565b600101612fd2565b818110156130ad576000198201811461309357846001830381548110151561303e57fe5b6000918252602090912001548554600160a060020a039091169086908390811061306457fe5b9060005260206000200160006101000a815481600160a060020a030219169083600160a060020a031602179055505b84546130a3866000198301614031565b50600192506130b2565b600092505b505092915050565b60006103e86130d4836008546130e490919063ffffffff16565b8115156130dd57fe5b0492915050565b6000808315156130f75760009150613187565b5082820282848281151561310757fe5b0414613183576040805160e560020a62461bcd02815260206004820152602160248201527f536166654d6174683a206d756c7469706c69636174696f6e206f766572666c6f60448201527f7700000000000000000000000000000000000000000000000000000000000000606482015290519081900360840190fd5b8091505b5092915050565b600082820183811015613183576040805160e560020a62461bcd02815260206004820152601b60248201527f536166654d6174683a206164646974696f6e206f766572666c6f770000000000604482015290519081900360640190fd5b60008060006131f9856128d3565b151561324f576040805160e560020a62461bcd02815260206004820152601f60248201527f736574746c656d656e7420697320756e737570706f7274656420746f6b656e00604482015290519081900360640190fd5b60009150600160a060020a03851615156132a657600654604051349350600160a060020a039091169083156108fc029084906000818181858888f193505050501580156132a0573d6000803e3d6000fd5b506133ec565b60008411156133ec5750604080517f23b872dd0000000000000000000000000000000000000000000000000000000081523360048201523060248201526044810185905290518591600160a060020a038316916323b872dd916064808201926020929091908290030181600087803b15801561332157600080fd5b505af1158015613335573d6000803e3d6000fd5b505050506040513d602081101561334b57600080fd5b5050600654604080517fa9059cbb000000000000000000000000000000000000000000000000000000008152600160a060020a0392831660048201526024810187905290518694509183169163a9059cbb916044808201926020929091908290030181600087803b1580156133bf57600080fd5b505af11580156133d3573d6000803e3d6000fd5b505050506040513d60208110156133e957600080fd5b50505b6133f5826134f4565b509392505050565b8151600090815b818110156130ad5783600160a060020a0316858281518110151561342457fe5b90602001906020020151600160a060020a0316141561344657600192506130b2565b600101613404565b6134b1828054806020026020016040519081016040528092919081815260200182805480156134a657602002820191906000526020600020905b8154600160a060020a03168152600190910190602001808311613488575b5050505050826133fd565b15156134f057815460018101835560008381526020902001805473ffffffffffffffffffffffffffffffffffffffff1916600160a060020a0383161790555b5050565b80600b5410158015613508575080600c5411155b151561183e576040805160e560020a62461bcd02815260206004820152602960248201527f696e70757420616d6f756e74206973206f7574206f6620696e70757420616d6f60448201527f756e742072616e67650000000000000000000000000000000000000000000000606482015290519081900360840190fd5b600080600080600080600061359761297e565b945084890293508784111561365b5784888115156135b157fe5b60035491900493508584029250838a039150600160a060020a0316634b91a07b338388818115156135de57fe5b046040518463ffffffff1660e060020a0281526004018084600160a060020a0316600160a060020a031681526020018381526020018281526020019350505050600060405180830381600087803b15801561363857600080fd5b505af115801561364c573d6000803e3d6000fd5b50505050828296509650613662565b8884965096505b50505050509250929050565b606080808085151561367f576117b4565b60408051600160a060020a038916815260208101889052815133927fc994feb9b99296d80965b47aec6be0d25704ddf95b9b9bc1ed8bc753960d5809928290030190a26136cd33888761388b565b9350935093506136dc87613efb565b6006546040517fa2fa92c70000000000000000000000000000000000000000000000000000000081523360048201818152602483018b905260c060448401908152855160c48501528551959650600160a060020a039094169463a2fa92c79492938c9388938c938c938c93916064820191608481019160a482019160e401906020808c01910280838360005b83811015613780578181015183820152602001613768565b50505050905001858103845288818151815260200191508051906020019060200280838360005b838110156137bf5781810151838201526020016137a7565b50505050905001858103835287818151815260200191508051906020019060200280838360005b838110156137fe5781810151838201526020016137e6565b50505050905001858103825286818151815260200191508051906020019060200280838360005b8381101561383d578181015183820152602001613825565b505050509050019a5050505050505050505050600060405180830381600087803b15801561386a57600080fd5b505af115801561387e573d6000803e3d6000fd5b5050505050505050505050565b60608060608060608060006060806138a28b613efb565b955085516040519080825280602002602001820160405280156138cf578160200160208202803883390190505b50945085516040519080825280602002602001820160405280156138fd578160200160208202803883390190505b509350600092505b8551831015613a0d5761392e868481518110151561391f57fe5b90602001906020020151610ef4565b848481518110151561393c57fe5b602090810290910101526004548651600160a060020a03909116906341976e099088908690811061396957fe5b906020019060200201516040518263ffffffff1660e060020a0281526004018082600160a060020a0316600160a060020a03168152602001915050602060405180830381600087803b1580156139be57600080fd5b505af11580156139d2573d6000803e3d6000fd5b505050506040513d60208110156139e857600080fd5b505185518690859081106139f857fe5b60209081029091010152600190920191613905565b600660009054906101000a9004600160a060020a0316600160a060020a0316637a6a02778d8c89888a6040518663ffffffff1660e060020a0281526004018086600160a060020a0316600160a060020a03168152602001858152602001806020018060200180602001848103845287818151815260200191508051906020019060200280838360005b83811015613aae578181015183820152602001613a96565b50505050905001848103835286818151815260200191508051906020019060200280838360005b83811015613aed578181015183820152602001613ad5565b50505050905001848103825285818151815260200191508051906020019060200280838360005b83811015613b2c578181015183820152602001613b14565b5050505090500198505050505050505050600060405180830381600087803b158015613b5757600080fd5b505af1158015613b6b573d6000803e3d6000fd5b505050506040513d6000823e601f3d908101601f191682016040908152811015613b9457600080fd5b810190808051640100000000811115613bac57600080fd5b82016020810184811115613bbf57600080fd5b8151856020820283011164010000000082111715613bdc57600080fd5b50509291906020018051640100000000811115613bf857600080fd5b82016020810184811115613c0b57600080fd5b8151856020820283011164010000000082111715613c2857600080fd5b50509291905050509150915081818698509850985050505050505093509350939050565b600080831515613c5f5760009150613187565b50828202828482811515613c6f57fe5b0514613183576040805160e560020a62461bcd02815260206004820152602160248201527f536166654d6174683a206d756c7469706c69636174696f6e206f766572666c6f60448201527f7700000000000000000000000000000000000000000000000000000000000000606482015290519081900360840190fd5b600160a060020a0381161515613d71576040805160e560020a62461bcd02815260206004820152602660248201527f4f776e61626c653a206e6577206f776e657220697320746865207a65726f206160448201527f6464726573730000000000000000000000000000000000000000000000000000606482015290519081900360840190fd5b60008054604051600160a060020a038085169361010090930416917f8be0079c531659141344cd1fd0a4f28419497f9722a3daafe3b4186f6b6457e091a360008054600160a060020a039092166101000274ffffffffffffffffffffffffffffffffffffffff0019909216919091179055565b600080808512158185121514613dfe5783850191506133f5565b60008512613ea357508383018285821215613e9a5760405160e560020a62461bcd0281526004018080602001828103825283818151815260200191508051906020019080838360005b83811015613e5f578181015183820152602001613e47565b50505050905090810190601f168015613e8c5780820380516001836020036101000a031916815260200191505b509250505060405180910390fd5b508091506133f5565b508383018285821315613e9a5760405160e560020a62461bcd02815260040180806020018281038252838181518152602001915080519060200190808383600083811015613e5f578181015183820152602001613e47565b60608060006001805480602002602001604051908101604052809291908181526020018280548015613f5657602002820191906000526020600020905b8154600160a060020a03168152600190910190602001808311613f38575b50505050509150613f678285613fdc565b9050801561318757816000815181101515613f7e57fe5b906020019060200201518282815181101515613f9657fe5b600160a060020a039092166020928302909101909101528151849083906000908110613fbe57fe5b600160a060020a039092166020928302909101909101525092915050565b8151600090815b818110156140295783600160a060020a0316858281518110151561400357fe5b90602001906020020151600160a060020a0316141561402157614029565b600101613fe3565b949350505050565b8154818355818111156140555760008381526020902061405591810190830161405a565b505050565b61091c91905b80821115612ad5576000815560010161406056004f776e61626c653a2063616c6c6572206973206e6f7420746865206f776e6572a165627a7a72305820ec867f8c3b5c0f0980544055295d35cbf9e4b5f2e65f11817b85ff93afcedfb80029",
  "source": "pragma solidity ^0.4.26;\r\nimport \"./modules/SafeMath.sol\";\r\nimport \"./modules/SafeInt256.sol\";\r\nimport \"./modules/AddressWhiteList.sol\";\r\nimport \"./modules/ReentrancyGuard.sol\";\r\nimport \"./interfaces/IOptionsPool.sol\";\r\nimport \"./interfaces/IFNXOracle.sol\";\r\nimport \"./interfaces/ICollateralPool.sol\";\r\nimport \"./interfaces/IFPTCoin.sol\";\r\nimport \"./modules/Operator.sol\";\r\nimport \"./interfaces/IERC20.sol\";\r\ncontract CollateralCal is ReentrancyGuard,AddressWhiteList,ImportIFPTCoin,ImportOracle,ImportOptionsPool,ImportCollateralPool,Operator {\r\n    using SafeMath for uint256;\r\n    using SafeInt256 for int256;\r\n    uint256 private collateralRate = 5000;\r\n    mapping(address=>uint256) private latestAddCollateral;\r\n    uint256 private timeLimited = 1 hours;\r\n \r\n    event AddCollateral(address indexed from,address indexed collateral,uint256 amount,uint256 tokenAmount);\r\n    event RedeemCollateral(address indexed from,address collateral,uint256 allRedeem);\r\n    event DebugEvent(int256 value1,uint256 value2,int256 value3);\r\n    uint256 internal maxAmount = 1e30;\r\n    uint256 internal minAmount = 1e9;\r\n    function getInputAmountRange() public view returns(uint256,uint256) {\r\n        return (minAmount,maxAmount);\r\n    }\r\n    function setInputAmountRange(uint256 _minAmount,uint256 _maxAmount) public onlyOwner{\r\n        minAmount = _minAmount;\r\n        maxAmount = _maxAmount;\r\n    }\r\n    function checkInputAmount(uint256 Amount)internal view{\r\n        require(maxAmount>=Amount && minAmount<=Amount,\"input amount is out of input amount range\");\r\n    }\r\n    function addNetBalance(address settlement,uint256 amount) public payable onlyOperatorIndex(1) {\r\n        amount = getPayableAmount(settlement,amount);\r\n        _collateralPool.addNetWorthBalance(settlement,int256(amount));\r\n//        netWorthBalances[settlement] = netWorthBalances[settlement].add(amount);\r\n    }\r\n    function setCollateralTimeLimited(uint256 _timeLimited) public onlyOwner {\r\n        timeLimited = _timeLimited;\r\n    }\r\n    function getUserCollateralTimeLimite(address user) public view returns (uint256){\r\n        return latestAddCollateral[user]+timeLimited;\r\n    }\r\n    function setCollateralRate(uint256 colRate) public onlyOwner {\r\n        collateralRate = colRate;\r\n\r\n    }\r\n    function getCollateralRate()public view returns (uint256) {\r\n        return collateralRate;\r\n    }\r\n    function getUserPayingUsd(address user)public view returns (uint256){\r\n        return _collateralPool.getUserPayingUsd(user);\r\n        //userCollateralPaying[user];\r\n    }\r\n    function userInputCollateral(address user,address collateral)public view returns (uint256){\r\n        _collateralPool.getUserInputCollateral(user,collateral);\r\n        //return userInputCollateral[user][collateral];\r\n    }\r\n    function calSharedPayment() public onlyOperatorIndex(0) {\r\n        address[] memory tmpWhiteList = whiteList;\r\n        (uint256 firstOption,int256[] memory latestShared) = _optionsPool.getNetWrothCalInfo(tmpWhiteList);\r\n        uint256 lastOption = _optionsPool.getOptionInfoLength();\r\n        (int256[] memory newNetworth,uint256[] memory sharedBalance,uint256 newFirst) =\r\n                     _optionsPool.calRangeSharedPayment(lastOption,firstOption,lastOption,tmpWhiteList);\r\n        int256[] memory fallBalance = _optionsPool.calculatePhaseOptionsFall(lastOption,newFirst,lastOption,tmpWhiteList);\r\n        for (uint256 i= 0;i<fallBalance.length;i++){\r\n            fallBalance[i] = int256(sharedBalance[i])-latestShared[i]+fallBalance[i];\r\n        }\r\n        setSharedPayment(newNetworth,fallBalance,newFirst);\r\n    }\r\n    function setSharedPayment(int256[] newNetworth,int256[] sharedBalances,uint256 firstOption) public onlyOperatorIndex(0){\r\n        _optionsPool.setSharedState(firstOption,sharedBalances,whiteList);\r\n        _collateralPool.addNetWorthBalances(whiteList,newNetworth);\r\n    }\r\n    function getUserTotalWorth(address account)public view returns (uint256){\r\n        return getTokenNetworth().mul(_FPTCoin.balanceOf(account)).add(_FPTCoin.lockedWorthOf(account));\r\n    }\r\n    function getTokenNetworth() public view returns (uint256){\r\n        uint256 _totalSupply = _FPTCoin.totalSupply();\r\n        if (_totalSupply == 0){\r\n            return 1e8;\r\n        }\r\n        uint256 netWorth = getUnlockedCollateral()/_totalSupply;\r\n        return netWorth>100 ? netWorth : 100;\r\n    }\r\n    function addCollateral(address collateral,uint256 amount) nonReentrant notHalted public payable {\r\n        amount = getPayableAmount(collateral,amount);\r\n        uint256 fee = _collateralPool.addTransactionFee(collateral,amount,3);\r\n        amount = amount-fee;\r\n        uint256 price = _oracle.getPrice(collateral);\r\n        uint256 userPaying = price*amount;\r\n        uint256 mintAmount = userPaying/getTokenNetworth();\r\n        _collateralPool.addUserPayingUsd(msg.sender,userPaying);\r\n        //userCollateralPaying[msg.sender] = userCollateralPaying[msg.sender].add(userPaying);\r\n        _collateralPool.addCollateralBalance(collateral,amount);\r\n        //collateralBalances[collateral] = collateralBalances[collateral].add(amount);\r\n        _collateralPool.addUserInputCollateral(msg.sender,collateral,amount);\r\n        //userInputCollateral[msg.sender][collateral] = userInputCollateral[msg.sender][collateral].add(amount);\r\n        _collateralPool.addNetWorthBalance(collateral,int256(amount));\r\n        //netWorthBalances[collateral] = netWorthBalances[collateral].add(amount);\r\n        latestAddCollateral[msg.sender] = now;\r\n        emit AddCollateral(msg.sender,collateral,amount,mintAmount);\r\n        _FPTCoin.mint(msg.sender,mintAmount);\r\n    }\r\n    //calculate token\r\n    function redeemCollateral(uint256 tokenAmount,address collateral) nonReentrant notHalted public {\r\n        checkInputAmount(tokenAmount);\r\n        require(checkAddressRedeemOut(collateral) , \"settlement is unsupported token\");\r\n        require(latestAddCollateral[msg.sender]+timeLimited < now , \"collateral lock limitation is not expired\");\r\n        uint256 lockedAmount = _FPTCoin.lockedBalanceOf(msg.sender);\r\n        require(_FPTCoin.balanceOf(msg.sender)+lockedAmount>=tokenAmount,\"SCoin balance is insufficient!\");\r\n        uint256 userTotalWorth = getUserTotalWorth(msg.sender);\r\n        uint256 leftColateral = getLeftCollateral();\r\n        (uint256 burnAmount,uint256 redeemWorth) = _FPTCoin.redeemLockedCollateral(msg.sender,tokenAmount,leftColateral);\r\n        tokenAmount -= burnAmount;\r\n        burnAmount = 0;\r\n        if (tokenAmount > 0){\r\n            leftColateral -= redeemWorth;\r\n            \r\n            if (lockedAmount > 0){\r\n                tokenAmount = tokenAmount > lockedAmount ? tokenAmount - lockedAmount : 0;\r\n            }\r\n            (uint256 newRedeem,uint256 newWorth) = _redeemCollateral(tokenAmount,leftColateral);\r\n            if(newRedeem>0){\r\n                burnAmount = newRedeem;\r\n                redeemWorth += newWorth;\r\n            }\r\n        }\r\n        _redeemCollateralWorth(collateral,redeemWorth,userTotalWorth);\r\n        if (burnAmount>0){\r\n            _FPTCoin.burn(msg.sender, burnAmount);\r\n        }\r\n    }\r\n    function _redeemCollateral(uint256 leftAmount,uint256 leftColateral)internal returns (uint256,uint256){\r\n        uint256 tokenNetWorth = getTokenNetworth();\r\n        uint256 leftWorth = leftAmount*tokenNetWorth;        \r\n        if (leftWorth > leftColateral){\r\n            uint256 newRedeem = leftColateral/tokenNetWorth;\r\n            uint256 newWorth = newRedeem*tokenNetWorth;\r\n            uint256 locked = leftAmount - newRedeem;\r\n            _FPTCoin.addlockBalance(msg.sender,locked,locked/tokenNetWorth);\r\n            return (newRedeem,newWorth);\r\n        }\r\n        return (leftAmount,leftWorth);\r\n    }\r\n    function getTempWhiteList(address collateral) internal view returns (address[] memory) {\r\n        address[] memory tmpWhiteList = whiteList;\r\n        uint256 index = whiteListAddress._getEligibleIndexAddress(tmpWhiteList,collateral);\r\n        if (index != 0){\r\n            tmpWhiteList[index] = tmpWhiteList[0];\r\n            tmpWhiteList[0] = collateral;\r\n        }\r\n        return tmpWhiteList;\r\n    }\r\n    function _redeemCollateralWorth(address collateral,uint256 redeemWorth,uint256 userTotalWorth) internal {\r\n        if (redeemWorth == 0){\r\n            return;\r\n        }\r\n        emit RedeemCollateral(msg.sender,collateral,redeemWorth);\r\n        (uint256[] memory colBalances,uint256[] memory PremiumBalances,uint256[] memory prices) = _getCollateralAndPremiumBalances(msg.sender,collateral,userTotalWorth);\r\n        address[] memory tmpWhiteList = getTempWhiteList(collateral);\r\n        _collateralPool.transferPaybackBalances(msg.sender,redeemWorth,tmpWhiteList,colBalances,\r\n                PremiumBalances,prices);\r\n    }\r\n\r\n    function calCollateralWorth(address account)public view returns(uint256[]){\r\n        uint256 worth = getUserTotalWorth(account);\r\n        (uint256[] memory colBalances,uint256[] memory PremiumBalances,) = _getCollateralAndPremiumBalances(account,whiteList[0],worth);\r\n        uint256 whiteLen = whiteList.length;\r\n        for (uint256 i=0; i<whiteLen;i++){\r\n            colBalances[i] = colBalances[i].add(PremiumBalances[i]);\r\n        }\r\n        return colBalances;\r\n    }\r\n    function _getCollateralAndPremiumBalances(address account,address priorCollateral,uint256 userTotalWorth) internal view returns(uint256[],uint256[],uint256[]){\r\n        address[] memory tmpWhiteList = getTempWhiteList(priorCollateral);\r\n        uint256[] memory prices = new uint256[](tmpWhiteList.length);\r\n        uint256[] memory netWorthBalances = new uint256[](tmpWhiteList.length);\r\n        for (uint256 i=0; i<tmpWhiteList.length;i++){\r\n            netWorthBalances[i] = getNetWorthBalance(tmpWhiteList[i]);\r\n            prices[i] = _oracle.getPrice(tmpWhiteList[i]);\r\n        }\r\n        (uint256[] memory colBalances,uint256[] memory PremiumBalances) = _collateralPool.getCollateralAndPremiumBalances(account,userTotalWorth,tmpWhiteList,\r\n                netWorthBalances,prices);\r\n        return (colBalances,PremiumBalances,prices);\r\n    } \r\n    /*\r\n    function _calBalanceRate(uint256 collateralBalance,uint256 netWorthBalance,uint256 amount)internal pure returns(uint256,uint256){\r\n        if (collateralBalance > 0){\r\n            uint256 curAmount = netWorthBalance.mul(amount).div(collateralBalance);\r\n            return (curAmount,netWorthBalance.sub(curAmount));\r\n        }else{\r\n            return (0,netWorthBalance);\r\n        }\r\n    }\r\n*/\r\n    function getOccupiedCollateral() public view returns(uint256){\r\n        uint256 totalOccupied = _optionsPool.getTotalOccupiedCollateral();\r\n        return calculateCollateral(totalOccupied);\r\n    }\r\n    function getAvailableCollateral()public view returns(uint256){\r\n        return safeSubCollateral(getUnlockedCollateral(),getOccupiedCollateral());\r\n    }\r\n    function getLeftCollateral()public view returns(uint256){\r\n        return safeSubCollateral(getTotalCollateral(),getOccupiedCollateral());\r\n    }\r\n    function getUnlockedCollateral()public view returns(uint256){\r\n        return safeSubCollateral(getTotalCollateral(),_FPTCoin.getTotalLockedWorth());\r\n    }\r\n    function safeSubCollateral(uint256 allCollateral,uint256 subCollateral)internal pure returns(uint256){\r\n        return allCollateral > subCollateral ? allCollateral - subCollateral : 0;\r\n    }\r\n    function calOptionsOccupied(uint256 strikePrice,uint256 underlyingPrice,uint256 amount,uint8 optType)public view returns(uint256){\r\n        uint256 totalOccupied = 0;\r\n        if ((optType == 0) == (strikePrice>underlyingPrice)){ // call\r\n            totalOccupied = strikePrice*amount;\r\n        } else {\r\n            totalOccupied = underlyingPrice*amount;\r\n        }\r\n        return calculateCollateral(totalOccupied);\r\n    }\r\n    function getTotalCollateral()public view returns(uint256){\r\n        int256 totalNum = 0;\r\n        uint whiteListLen = whiteList.length;\r\n        for (uint256 i=0;i<whiteListLen;i++){\r\n            address addr = whiteList[i];\r\n            int256 price = int256(_oracle.getPrice(addr));\r\n            int256 netWorth = getRealBalance(addr);\r\n            if (netWorth != 0){\r\n                totalNum = totalNum.add(price.mul(netWorth));\r\n            }\r\n            //totalNum = totalNum.add(price.mul(netWorthBalances[addr]));\r\n        }\r\n        return totalNum>=0 ? uint256(totalNum) : 0;  \r\n    }\r\n    function getRealBalance(address settlement)public view returns(int256){\r\n        int256 netWorth = _collateralPool.getNetWorthBalance(settlement);\r\n        int256 latestWorth = _optionsPool.getNetWrothLatestWorth(settlement);\r\n        return netWorth.add(latestWorth);\r\n    }\r\n    function getNetWorthBalance(address settlement)public view returns(uint256){\r\n        int256 netWorth = _collateralPool.getNetWorthBalance(settlement);\r\n        int256 latestWorth = _optionsPool.getNetWrothLatestWorth(settlement);\r\n        netWorth = netWorth.add(latestWorth);\r\n        if (netWorth>0){\r\n            return uint256(netWorth);\r\n        }\r\n        return 0;\r\n    }\r\n    function _paybackWorth(uint256 worth,uint256 feeType) internal {\r\n        uint256 totalPrice = 0;\r\n        uint whiteLen = whiteList.length;\r\n        uint256[] memory balances = new uint256[](whiteLen);\r\n        for (uint256 i=0;i<whiteLen;i++){\r\n            address addr = whiteList[i];\r\n            uint256 price = _oracle.getPrice(addr);\r\n            balances[i] = getNetWorthBalance(addr);\r\n            //balances[i] = netWorthBalances[addr];\r\n            totalPrice = totalPrice.add(price.mul(balances[i]));\r\n        }\r\n        if (totalPrice == 0){\r\n            return;\r\n        }\r\n        for (i=0;i<whiteLen;i++){\r\n            uint256 _payBack = balances[i].mul(worth)/totalPrice;\r\n            _collateralPool.transferPaybackAndFee(msg.sender,whiteList[i],_payBack,feeType);\r\n            //addr = whiteList[i];\r\n            //netWorthBalances[addr] = balances[i].sub(_payBack);\r\n            //_transferPaybackAndFee(msg.sender,addr,_payBack,feeType);\r\n        } \r\n    }\r\n    function getPayableAmount(address settlement,uint256 settlementAmount) internal returns (uint256) {\r\n        require(checkAddressPayIn(settlement) , \"settlement is unsupported token\");\r\n        uint256 colAmount = 0;\r\n        if (settlement == address(0)){\r\n            colAmount = msg.value;\r\n            address(_collateralPool).transfer(msg.value);\r\n        }else if (settlementAmount > 0){\r\n            IERC20 oToken = IERC20(settlement);\r\n            oToken.transferFrom(msg.sender, address(this), settlementAmount);\r\n            colAmount = settlementAmount;\r\n             oToken.transfer(address(_collateralPool),settlementAmount);\r\n        }\r\n        checkInputAmount(colAmount);\r\n        return colAmount;\r\n    }\r\n    function calculateCollateral(uint256 amount)internal view returns (uint256){\r\n        return collateralRate.mul(amount)/1000;\r\n    }\r\n}",
  "sourcePath": "C:\\work\\solidity\\FinnexusOptions_V2\\contracts\\CollateralCal.sol",
  "compiler": {
    "name": "solc",
    "version": "0.4.26+commit.4563c3fc.Emscripten.clang"
  },
  "schemaVersion": "3.1.0",
  "updatedAt": "2020-08-06T10:39:09.930Z",
  "devdoc": {
    "methods": {
      "addWhiteList(address)": {
        "details": "Implementation of add an eligible address into the whitelist.\r",
        "params": {
          "addAddress": "new eligible address.\r"
        }
      },
      "getWhiteList()": {
        "details": "Implementation of getting the eligible whitelist.\r"
      },
      "isEligibleAddress(address)": {
        "details": "Implementation of testing whether the input address is eligible.\r",
        "params": {
          "tmpAddress": "input address for testing.\r"
        }
      },
      "isOwner()": {
        "details": "Returns true if the caller is the current owner."
      },
      "owner()": {
        "details": "Returns the address of the current owner."
      },
      "removeWhiteList(address)": {
        "details": "Implementation of revoke an invalid address from the whitelist.\r",
        "params": {
          "removeAddress": "revoked address.\r"
        }
      },
      "renounceOwnership()": {
        "details": "Leaves the contract without owner. It will not be possible to call `onlyOwner` functions anymore. Can only be called by the current owner.     * NOTE: Renouncing ownership will leave the contract without an owner, thereby removing any functionality that is only available to the owner."
      },
      "transferOwnership(address)": {
        "details": "Transfers ownership of the contract to a new account (`newOwner`). Can only be called by the current owner."
      }
    }
  },
  "userdoc": {
    "methods": {
      "setHalt(bool)": {
        "notice": "function Emergency situation that requires contribution period to stop or not."
      }
    }
  }
}