{
  "contractName": "CollateralPool",
  "abi": [
    {
      "constant": true,
      "inputs": [
        {
          "name": "",
          "type": "address"
        }
      ],
      "name": "lockedBalances",
      "outputs": [
        {
          "name": "",
          "type": "uint256"
        }
      ],
      "payable": false,
      "stateMutability": "view",
      "type": "function"
    },
    {
      "constant": true,
      "inputs": [],
      "name": "name",
      "outputs": [
        {
          "name": "",
          "type": "string"
        }
      ],
      "payable": false,
      "stateMutability": "view",
      "type": "function"
    },
    {
      "constant": false,
      "inputs": [
        {
          "name": "spender",
          "type": "address"
        },
        {
          "name": "amount",
          "type": "uint256"
        }
      ],
      "name": "approve",
      "outputs": [
        {
          "name": "",
          "type": "bool"
        }
      ],
      "payable": false,
      "stateMutability": "nonpayable",
      "type": "function"
    },
    {
      "constant": true,
      "inputs": [],
      "name": "getWhiteList",
      "outputs": [
        {
          "name": "",
          "type": "address[]"
        }
      ],
      "payable": false,
      "stateMutability": "view",
      "type": "function"
    },
    {
      "constant": true,
      "inputs": [
        {
          "name": "",
          "type": "address"
        }
      ],
      "name": "netWorthBalances",
      "outputs": [
        {
          "name": "",
          "type": "uint256"
        }
      ],
      "payable": false,
      "stateMutability": "view",
      "type": "function"
    },
    {
      "constant": true,
      "inputs": [],
      "name": "totalSupply",
      "outputs": [
        {
          "name": "",
          "type": "uint256"
        }
      ],
      "payable": false,
      "stateMutability": "view",
      "type": "function"
    },
    {
      "constant": false,
      "inputs": [
        {
          "name": "optionsPool",
          "type": "address"
        }
      ],
      "name": "setOptionsPoolAddress",
      "outputs": [],
      "payable": false,
      "stateMutability": "nonpayable",
      "type": "function"
    },
    {
      "constant": false,
      "inputs": [
        {
          "name": "removeAddress",
          "type": "address"
        }
      ],
      "name": "removeWhiteList",
      "outputs": [
        {
          "name": "",
          "type": "bool"
        }
      ],
      "payable": false,
      "stateMutability": "nonpayable",
      "type": "function"
    },
    {
      "constant": false,
      "inputs": [
        {
          "name": "sender",
          "type": "address"
        },
        {
          "name": "recipient",
          "type": "address"
        },
        {
          "name": "amount",
          "type": "uint256"
        }
      ],
      "name": "transferFrom",
      "outputs": [
        {
          "name": "",
          "type": "bool"
        }
      ],
      "payable": false,
      "stateMutability": "nonpayable",
      "type": "function"
    },
    {
      "constant": true,
      "inputs": [
        {
          "name": "",
          "type": "address"
        }
      ],
      "name": "balances",
      "outputs": [
        {
          "name": "",
          "type": "uint256"
        }
      ],
      "payable": false,
      "stateMutability": "view",
      "type": "function"
    },
    {
      "constant": true,
      "inputs": [
        {
          "name": "",
          "type": "address"
        }
      ],
      "name": "collateralBalances",
      "outputs": [
        {
          "name": "",
          "type": "uint256"
        }
      ],
      "payable": false,
      "stateMutability": "view",
      "type": "function"
    },
    {
      "constant": true,
      "inputs": [
        {
          "name": "collateral",
          "type": "address"
        }
      ],
      "name": "getCollateralMinerRate",
      "outputs": [
        {
          "name": "",
          "type": "uint256"
        }
      ],
      "payable": false,
      "stateMutability": "view",
      "type": "function"
    },
    {
      "constant": false,
      "inputs": [],
      "name": "redeemAll",
      "outputs": [],
      "payable": false,
      "stateMutability": "nonpayable",
      "type": "function"
    },
    {
      "constant": true,
      "inputs": [],
      "name": "decimals",
      "outputs": [
        {
          "name": "",
          "type": "uint8"
        }
      ],
      "payable": false,
      "stateMutability": "view",
      "type": "function"
    },
    {
      "constant": false,
      "inputs": [
        {
          "name": "collateral",
          "type": "address"
        },
        {
          "name": "thousandths",
          "type": "uint256"
        }
      ],
      "name": "setCollateralMinerRate",
      "outputs": [],
      "payable": false,
      "stateMutability": "nonpayable",
      "type": "function"
    },
    {
      "constant": true,
      "inputs": [
        {
          "name": "feeType",
          "type": "uint256"
        },
        {
          "name": "amount",
          "type": "uint256"
        }
      ],
      "name": "calculateFee",
      "outputs": [
        {
          "name": "",
          "type": "uint256"
        }
      ],
      "payable": false,
      "stateMutability": "view",
      "type": "function"
    },
    {
      "constant": false,
      "inputs": [
        {
          "name": "spender",
          "type": "address"
        },
        {
          "name": "addedValue",
          "type": "uint256"
        }
      ],
      "name": "increaseAllowance",
      "outputs": [
        {
          "name": "",
          "type": "bool"
        }
      ],
      "payable": false,
      "stateMutability": "nonpayable",
      "type": "function"
    },
    {
      "constant": false,
      "inputs": [
        {
          "name": "oracle",
          "type": "address"
        }
      ],
      "name": "setOracleAddress",
      "outputs": [],
      "payable": false,
      "stateMutability": "nonpayable",
      "type": "function"
    },
    {
      "constant": true,
      "inputs": [
        {
          "name": "",
          "type": "address"
        }
      ],
      "name": "feeBalances",
      "outputs": [
        {
          "name": "",
          "type": "uint256"
        }
      ],
      "payable": false,
      "stateMutability": "view",
      "type": "function"
    },
    {
      "constant": true,
      "inputs": [],
      "name": "collateralRate",
      "outputs": [
        {
          "name": "numerator",
          "type": "uint256"
        },
        {
          "name": "denominator",
          "type": "uint256"
        }
      ],
      "payable": false,
      "stateMutability": "view",
      "type": "function"
    },
    {
      "constant": true,
      "inputs": [
        {
          "name": "",
          "type": "uint256"
        }
      ],
      "name": "whiteList",
      "outputs": [
        {
          "name": "",
          "type": "address"
        }
      ],
      "payable": false,
      "stateMutability": "view",
      "type": "function"
    },
    {
      "constant": true,
      "inputs": [],
      "name": "getOptionsPriceAddress",
      "outputs": [
        {
          "name": "",
          "type": "address"
        }
      ],
      "payable": false,
      "stateMutability": "view",
      "type": "function"
    },
    {
      "constant": true,
      "inputs": [
        {
          "name": "account",
          "type": "address"
        }
      ],
      "name": "balanceOf",
      "outputs": [
        {
          "name": "",
          "type": "uint256"
        }
      ],
      "payable": false,
      "stateMutability": "view",
      "type": "function"
    },
    {
      "constant": false,
      "inputs": [],
      "name": "renounceOwnership",
      "outputs": [],
      "payable": false,
      "stateMutability": "nonpayable",
      "type": "function"
    },
    {
      "constant": true,
      "inputs": [
        {
          "name": "tmpAddress",
          "type": "address"
        }
      ],
      "name": "isEligibleAddress",
      "outputs": [
        {
          "name": "",
          "type": "bool"
        }
      ],
      "payable": false,
      "stateMutability": "view",
      "type": "function"
    },
    {
      "constant": true,
      "inputs": [
        {
          "name": "",
          "type": "address"
        }
      ],
      "name": "lockedTotalWorth",
      "outputs": [
        {
          "name": "",
          "type": "uint256"
        }
      ],
      "payable": false,
      "stateMutability": "view",
      "type": "function"
    },
    {
      "constant": true,
      "inputs": [],
      "name": "owner",
      "outputs": [
        {
          "name": "",
          "type": "address"
        }
      ],
      "payable": false,
      "stateMutability": "view",
      "type": "function"
    },
    {
      "constant": true,
      "inputs": [],
      "name": "isOwner",
      "outputs": [
        {
          "name": "",
          "type": "bool"
        }
      ],
      "payable": false,
      "stateMutability": "view",
      "type": "function"
    },
    {
      "constant": false,
      "inputs": [
        {
          "name": "currency",
          "type": "address"
        }
      ],
      "name": "redeem",
      "outputs": [],
      "payable": false,
      "stateMutability": "nonpayable",
      "type": "function"
    },
    {
      "constant": true,
      "inputs": [],
      "name": "symbol",
      "outputs": [
        {
          "name": "",
          "type": "string"
        }
      ],
      "payable": false,
      "stateMutability": "view",
      "type": "function"
    },
    {
      "constant": false,
      "inputs": [
        {
          "name": "fnxMinePool",
          "type": "address"
        }
      ],
      "name": "setOptionsPriceAddress",
      "outputs": [],
      "payable": false,
      "stateMutability": "nonpayable",
      "type": "function"
    },
    {
      "constant": false,
      "inputs": [
        {
          "name": "spender",
          "type": "address"
        },
        {
          "name": "subtractedValue",
          "type": "uint256"
        }
      ],
      "name": "decreaseAllowance",
      "outputs": [
        {
          "name": "",
          "type": "bool"
        }
      ],
      "payable": false,
      "stateMutability": "nonpayable",
      "type": "function"
    },
    {
      "constant": false,
      "inputs": [
        {
          "name": "settlement",
          "type": "address"
        },
        {
          "name": "thousandths",
          "type": "uint256"
        }
      ],
      "name": "setBuyerMinerRate",
      "outputs": [],
      "payable": false,
      "stateMutability": "nonpayable",
      "type": "function"
    },
    {
      "constant": false,
      "inputs": [
        {
          "name": "recipient",
          "type": "address"
        },
        {
          "name": "amount",
          "type": "uint256"
        }
      ],
      "name": "transfer",
      "outputs": [
        {
          "name": "",
          "type": "bool"
        }
      ],
      "payable": false,
      "stateMutability": "nonpayable",
      "type": "function"
    },
    {
      "constant": true,
      "inputs": [],
      "name": "getOracleAddress",
      "outputs": [
        {
          "name": "",
          "type": "address"
        }
      ],
      "payable": false,
      "stateMutability": "view",
      "type": "function"
    },
    {
      "constant": true,
      "inputs": [
        {
          "name": "settlement",
          "type": "address"
        }
      ],
      "name": "getBuyerMinerRate",
      "outputs": [
        {
          "name": "",
          "type": "uint256"
        }
      ],
      "payable": false,
      "stateMutability": "view",
      "type": "function"
    },
    {
      "constant": false,
      "inputs": [
        {
          "name": "operator",
          "type": "address"
        }
      ],
      "name": "setOperator",
      "outputs": [],
      "payable": false,
      "stateMutability": "nonpayable",
      "type": "function"
    },
    {
      "constant": true,
      "inputs": [],
      "name": "halted",
      "outputs": [
        {
          "name": "",
          "type": "bool"
        }
      ],
      "payable": false,
      "stateMutability": "view",
      "type": "function"
    },
    {
      "constant": false,
      "inputs": [
        {
          "name": "feeType",
          "type": "uint256"
        },
        {
          "name": "numerator",
          "type": "uint256"
        },
        {
          "name": "denominator",
          "type": "uint256"
        }
      ],
      "name": "setTransactionFee",
      "outputs": [],
      "payable": false,
      "stateMutability": "nonpayable",
      "type": "function"
    },
    {
      "constant": true,
      "inputs": [],
      "name": "getOptionsPoolAddress",
      "outputs": [
        {
          "name": "",
          "type": "address"
        }
      ],
      "payable": false,
      "stateMutability": "view",
      "type": "function"
    },
    {
      "constant": true,
      "inputs": [
        {
          "name": "account",
          "type": "address"
        }
      ],
      "name": "getLockedBalance",
      "outputs": [
        {
          "name": "",
          "type": "uint256"
        },
        {
          "name": "",
          "type": "uint256"
        }
      ],
      "payable": false,
      "stateMutability": "view",
      "type": "function"
    },
    {
      "constant": true,
      "inputs": [
        {
          "name": "settlement",
          "type": "address"
        }
      ],
      "name": "getFeeBalance",
      "outputs": [
        {
          "name": "",
          "type": "uint256"
        }
      ],
      "payable": false,
      "stateMutability": "view",
      "type": "function"
    },
    {
      "constant": true,
      "inputs": [
        {
          "name": "feeType",
          "type": "uint256"
        }
      ],
      "name": "getFeeRate",
      "outputs": [
        {
          "name": "",
          "type": "uint256"
        },
        {
          "name": "",
          "type": "uint256"
        }
      ],
      "payable": false,
      "stateMutability": "view",
      "type": "function"
    },
    {
      "constant": true,
      "inputs": [
        {
          "name": "owner",
          "type": "address"
        },
        {
          "name": "spender",
          "type": "address"
        }
      ],
      "name": "allowance",
      "outputs": [
        {
          "name": "",
          "type": "uint256"
        }
      ],
      "payable": false,
      "stateMutability": "view",
      "type": "function"
    },
    {
      "constant": true,
      "inputs": [
        {
          "name": "",
          "type": "address"
        }
      ],
      "name": "userCollateralPaying",
      "outputs": [
        {
          "name": "",
          "type": "uint256"
        }
      ],
      "payable": false,
      "stateMutability": "view",
      "type": "function"
    },
    {
      "constant": true,
      "inputs": [
        {
          "name": "",
          "type": "uint256"
        }
      ],
      "name": "FeeRates",
      "outputs": [
        {
          "name": "numerator",
          "type": "uint256"
        },
        {
          "name": "denominator",
          "type": "uint256"
        }
      ],
      "payable": false,
      "stateMutability": "view",
      "type": "function"
    },
    {
      "constant": false,
      "inputs": [
        {
          "name": "addAddress",
          "type": "address"
        }
      ],
      "name": "addWhiteList",
      "outputs": [],
      "payable": false,
      "stateMutability": "nonpayable",
      "type": "function"
    },
    {
      "constant": true,
      "inputs": [],
      "name": "getOperator",
      "outputs": [
        {
          "name": "",
          "type": "address"
        }
      ],
      "payable": false,
      "stateMutability": "view",
      "type": "function"
    },
    {
      "constant": true,
      "inputs": [],
      "name": "getAllFeeBalances",
      "outputs": [
        {
          "name": "",
          "type": "address[]"
        },
        {
          "name": "",
          "type": "uint256[]"
        }
      ],
      "payable": false,
      "stateMutability": "view",
      "type": "function"
    },
    {
      "constant": false,
      "inputs": [
        {
          "name": "newOwner",
          "type": "address"
        }
      ],
      "name": "transferOwnership",
      "outputs": [],
      "payable": false,
      "stateMutability": "nonpayable",
      "type": "function"
    },
    {
      "constant": false,
      "inputs": [
        {
          "name": "halt",
          "type": "bool"
        }
      ],
      "name": "setHalt",
      "outputs": [],
      "payable": false,
      "stateMutability": "nonpayable",
      "type": "function"
    },
    {
      "constant": true,
      "inputs": [
        {
          "name": "tmpAddress",
          "type": "address"
        }
      ],
      "name": "checkEligibleAddress",
      "outputs": [],
      "payable": false,
      "stateMutability": "view",
      "type": "function"
    },
    {
      "anonymous": false,
      "inputs": [
        {
          "indexed": true,
          "name": "from",
          "type": "address"
        },
        {
          "indexed": true,
          "name": "collateral",
          "type": "address"
        },
        {
          "indexed": false,
          "name": "amount",
          "type": "uint256"
        },
        {
          "indexed": false,
          "name": "tokenAmount",
          "type": "uint256"
        }
      ],
      "name": "AddCollateral",
      "type": "event"
    },
    {
      "anonymous": false,
      "inputs": [
        {
          "indexed": true,
          "name": "from",
          "type": "address"
        },
        {
          "indexed": false,
          "name": "collateral",
          "type": "address"
        },
        {
          "indexed": false,
          "name": "allRedeem",
          "type": "uint256"
        }
      ],
      "name": "RedeemCollateral",
      "type": "event"
    },
    {
      "anonymous": false,
      "inputs": [
        {
          "indexed": true,
          "name": "value1",
          "type": "uint256"
        },
        {
          "indexed": true,
          "name": "value2",
          "type": "uint256"
        },
        {
          "indexed": true,
          "name": "value3",
          "type": "uint256"
        }
      ],
      "name": "DebugEvent",
      "type": "event"
    },
    {
      "anonymous": false,
      "inputs": [
        {
          "indexed": true,
          "name": "owner",
          "type": "address"
        },
        {
          "indexed": false,
          "name": "amount",
          "type": "uint256"
        },
        {
          "indexed": false,
          "name": "worth",
          "type": "uint256"
        }
      ],
      "name": "AddLocked",
      "type": "event"
    },
    {
      "anonymous": false,
      "inputs": [
        {
          "indexed": true,
          "name": "owner",
          "type": "address"
        },
        {
          "indexed": false,
          "name": "amount",
          "type": "uint256"
        },
        {
          "indexed": false,
          "name": "worth",
          "type": "uint256"
        }
      ],
      "name": "BurnLocked",
      "type": "event"
    },
    {
      "anonymous": false,
      "inputs": [
        {
          "indexed": true,
          "name": "from",
          "type": "address"
        },
        {
          "indexed": true,
          "name": "to",
          "type": "address"
        },
        {
          "indexed": false,
          "name": "value",
          "type": "uint256"
        }
      ],
      "name": "Transfer",
      "type": "event"
    },
    {
      "anonymous": false,
      "inputs": [
        {
          "indexed": true,
          "name": "owner",
          "type": "address"
        },
        {
          "indexed": true,
          "name": "spender",
          "type": "address"
        },
        {
          "indexed": false,
          "name": "value",
          "type": "uint256"
        }
      ],
      "name": "Approval",
      "type": "event"
    },
    {
      "anonymous": false,
      "inputs": [
        {
          "indexed": true,
          "name": "recieptor",
          "type": "address"
        },
        {
          "indexed": true,
          "name": "settlement",
          "type": "address"
        },
        {
          "indexed": false,
          "name": "payback",
          "type": "uint256"
        }
      ],
      "name": "FeePayback",
      "type": "event"
    },
    {
      "anonymous": false,
      "inputs": [
        {
          "indexed": true,
          "name": "settlement",
          "type": "address"
        },
        {
          "indexed": false,
          "name": "payback",
          "type": "uint256"
        }
      ],
      "name": "AddFee",
      "type": "event"
    },
    {
      "anonymous": false,
      "inputs": [
        {
          "indexed": true,
          "name": "recieptor",
          "type": "address"
        },
        {
          "indexed": true,
          "name": "settlement",
          "type": "address"
        },
        {
          "indexed": false,
          "name": "payback",
          "type": "uint256"
        }
      ],
      "name": "TransferPayback",
      "type": "event"
    },
    {
      "anonymous": false,
      "inputs": [
        {
          "indexed": true,
          "name": "previousOwner",
          "type": "address"
        },
        {
          "indexed": true,
          "name": "newOwner",
          "type": "address"
        }
      ],
      "name": "OwnershipTransferred",
      "type": "event"
    },
    {
      "constant": false,
      "inputs": [
        {
          "name": "numerator",
          "type": "uint256"
        },
        {
          "name": "denominator",
          "type": "uint256"
        }
      ],
      "name": "setCollateralRate",
      "outputs": [],
      "payable": false,
      "stateMutability": "nonpayable",
      "type": "function"
    },
    {
      "constant": true,
      "inputs": [],
      "name": "getCollateralRate",
      "outputs": [
        {
          "name": "",
          "type": "uint256"
        },
        {
          "name": "",
          "type": "uint256"
        }
      ],
      "payable": false,
      "stateMutability": "view",
      "type": "function"
    },
    {
      "constant": true,
      "inputs": [
        {
          "name": "user",
          "type": "address"
        }
      ],
      "name": "getUserPayingUsd",
      "outputs": [
        {
          "name": "",
          "type": "uint256"
        }
      ],
      "payable": false,
      "stateMutability": "view",
      "type": "function"
    },
    {
      "constant": true,
      "inputs": [
        {
          "name": "user",
          "type": "address"
        },
        {
          "name": "collateral",
          "type": "address"
        }
      ],
      "name": "userInputCollateral",
      "outputs": [
        {
          "name": "",
          "type": "uint256"
        }
      ],
      "payable": false,
      "stateMutability": "view",
      "type": "function"
    },
    {
      "constant": false,
      "inputs": [
        {
          "name": "calInfo",
          "type": "uint256"
        }
      ],
      "name": "setPhaseSharedPayment",
      "outputs": [],
      "payable": false,
      "stateMutability": "nonpayable",
      "type": "function"
    },
    {
      "constant": false,
      "inputs": [
        {
          "name": "calInfo",
          "type": "uint256"
        },
        {
          "name": "sharedBalances",
          "type": "int256[]"
        },
        {
          "name": "prices",
          "type": "uint256[]"
        },
        {
          "name": "firstOption",
          "type": "uint256"
        },
        {
          "name": "calTime",
          "type": "uint256"
        }
      ],
      "name": "setSharedPayment",
      "outputs": [],
      "payable": false,
      "stateMutability": "nonpayable",
      "type": "function"
    },
    {
      "constant": true,
      "inputs": [
        {
          "name": "account",
          "type": "address"
        }
      ],
      "name": "getUserTotalWorth",
      "outputs": [
        {
          "name": "",
          "type": "uint256"
        }
      ],
      "payable": false,
      "stateMutability": "view",
      "type": "function"
    },
    {
      "constant": true,
      "inputs": [],
      "name": "getTokenNetworth",
      "outputs": [
        {
          "name": "",
          "type": "uint256"
        }
      ],
      "payable": false,
      "stateMutability": "view",
      "type": "function"
    },
    {
      "constant": false,
      "inputs": [
        {
          "name": "collateral",
          "type": "address"
        },
        {
          "name": "amount",
          "type": "uint256"
        }
      ],
      "name": "addCollateral",
      "outputs": [],
      "payable": true,
      "stateMutability": "payable",
      "type": "function"
    },
    {
      "constant": false,
      "inputs": [
        {
          "name": "tokenAmount",
          "type": "uint256"
        },
        {
          "name": "collateral",
          "type": "address"
        }
      ],
      "name": "redeemCollateral",
      "outputs": [],
      "payable": false,
      "stateMutability": "nonpayable",
      "type": "function"
    },
    {
      "constant": true,
      "inputs": [
        {
          "name": "account",
          "type": "address"
        }
      ],
      "name": "calCollateralWorth",
      "outputs": [
        {
          "name": "",
          "type": "uint256[]"
        }
      ],
      "payable": false,
      "stateMutability": "view",
      "type": "function"
    },
    {
      "constant": true,
      "inputs": [],
      "name": "getOccupiedCollateral",
      "outputs": [
        {
          "name": "",
          "type": "uint256"
        }
      ],
      "payable": false,
      "stateMutability": "view",
      "type": "function"
    },
    {
      "constant": true,
      "inputs": [],
      "name": "getAvailableCollateral",
      "outputs": [
        {
          "name": "",
          "type": "uint256"
        }
      ],
      "payable": false,
      "stateMutability": "view",
      "type": "function"
    },
    {
      "constant": true,
      "inputs": [],
      "name": "getLeftCollateral",
      "outputs": [
        {
          "name": "",
          "type": "uint256"
        }
      ],
      "payable": false,
      "stateMutability": "view",
      "type": "function"
    },
    {
      "constant": true,
      "inputs": [
        {
          "name": "strikePrice",
          "type": "uint256"
        },
        {
          "name": "underlyingPrice",
          "type": "uint256"
        },
        {
          "name": "amount",
          "type": "uint256"
        },
        {
          "name": "optType",
          "type": "uint8"
        }
      ],
      "name": "calOptionsOccupied",
      "outputs": [
        {
          "name": "",
          "type": "uint256"
        }
      ],
      "payable": false,
      "stateMutability": "view",
      "type": "function"
    },
    {
      "constant": true,
      "inputs": [],
      "name": "getUnlockedCollateral",
      "outputs": [
        {
          "name": "",
          "type": "uint256"
        }
      ],
      "payable": false,
      "stateMutability": "view",
      "type": "function"
    },
    {
      "constant": true,
      "inputs": [],
      "name": "getTotalCollateral",
      "outputs": [
        {
          "name": "",
          "type": "uint256"
        }
      ],
      "payable": false,
      "stateMutability": "view",
      "type": "function"
    }
  ],
  "bytecode": "0x6000805460ff60a860020a60ff02011916815560065560c0604052600a60808190527f536861726564436f696e0000000000000000000000000000000000000000000060a090815262000056916007919062000244565b506040805180820190915260058082527f53436f696e00000000000000000000000000000000000000000000000000000060209092019182526200009d9160089162000244565b5060006009819055604080518082018252600380825260016020909201829052601255601355815461010033810261010060a860020a03199092169190911780845591519104600160a060020a031691907f8be0079c531659141344cd1fd0a4f28419497f9722a3daafe3b4186f6b6457e0908290a360408051808201825260038082526103e860208084018281528354600181810186556000868152965160029283027fc2575a0e9e593c00f959f8c92f12db2869c3395a3b0502d05e2516446f71f85b8181019290925593517fc2575a0e9e593c00f959f8c92f12db2869c3395a3b0502d05e2516446f71f85c948501558851808a018a5287815280860187815288548085018a55898b5291519185028084019290925551908501558851808a018a5287815280860187815288548085018a55898b5291519185028084019290925551908501558851808a018a5287815280860187815288548085018a55898b5291519185028084019290925551908501558851808a0190995286895293880194855285549081018655949095529451929093029283019190915551910155620002e9565b828054600181600116156101000203166002900490600052602060002090601f016020900481019282601f106200028757805160ff1916838001178555620002b7565b82800160010185558215620002b7579182015b82811115620002b75782518255916020019190600101906200029a565b50620002c5929150620002c9565b5090565b620002e691905b80821115620002c55760008155600101620002d0565b90565b6147dc80620002f96000396000f3006080604052600436106103135763ffffffff60e060020a6000350416630483a7f6811461031857806306fdde031461034b578063095ea7b3146103d557806309a9d76c1461040d5780630aaf3832146104725780630ecfad1e1461048757806318160ddd146104a85780631a5a3fce146104bd5780632042e5c2146104e057806323b872dd1461050157806327e235e31461052b57806329bc969d1461054c5780632c79414f1461056d5780632f4350c21461058e578063313ce567146105a3578063328ed62b146105ce57806332c82a5f146105f257806334e7312214610616578063395093511461063157806342049a7214610655578063447dbeac146106765780634c69c00f1461069757806353afc025146106b857806358a6be1c146106d95780635c475d42146107075780635ca4b73b1461073b5780636d75b9ee1461075057806370a0823114610767578063715018a614610788578063817bf86d1461079d57806381ee8a2e146107be578063852185fc146107df5780638da5cb5b146107f45780638f32d59b1461080957806395a2251f1461081e57806395d89b411461083f578063a04115f614610854578063a093e2d01461086c578063a20a80451461088d578063a457c2d7146108b1578063a46e5d97146105ce578063a56ea403146108d5578063a9059cbb146108f6578063b18b78dd1461091a578063b2a302981461056d578063b3ab15fb1461092f578063b4d5a9c714610950578063b9b8af0b14610977578063bf36b1101461098c578063c040725a146109aa578063c4086893146109bf578063c5e5a3ed146109e0578063c78f6803146109f5578063c7e2f8bd14610a16578063cd40581914610ab2578063d2aaef4e14610ac7578063d6eb591014610adf578063dab5512914610af4578063dd62ed3e14610b09578063ddb944e514610b30578063e0561aa114610b51578063e28a327d14610b69578063e7cd4a0414610b7e578063e7f43c6814610b9f578063ef63e1f714610bb4578063f20568cd14610bcf578063f2fde38b14610c7d578063f495438714610c9e578063f939fdca14610cb8575b600080fd5b34801561032457600080fd5b50610339600160a060020a0360043516610cd9565b60408051918252519081900360200190f35b34801561035757600080fd5b50610360610ceb565b6040805160208082528351818301528351919283929083019185019080838360005b8381101561039a578181015183820152602001610382565b50505050905090810190601f1680156103c75780820380516001836020036101000a031916815260200191505b509250505060405180910390f35b3480156103e157600080fd5b506103f9600160a060020a0360043516602435610d79565b604080519115158252519081900360200190f35b34801561041957600080fd5b50610422610d8f565b60408051602080825283518183015283519192839290830191858101910280838360005b8381101561045e578181015183820152602001610446565b505050509050019250505060405180910390f35b34801561047e57600080fd5b50610339610df2565b34801561049357600080fd5b50610339600160a060020a0360043516610e18565b3480156104b457600080fd5b50610339610e2a565b3480156104c957600080fd5b506104de600160a060020a0360043516610e30565b005b3480156104ec57600080fd5b506103f9600160a060020a0360043516610eab565b34801561050d57600080fd5b506103f9600160a060020a0360043581169060243516604435610f0a565b34801561053757600080fd5b50610339600160a060020a0360043516610fbd565b34801561055857600080fd5b50610339600160a060020a0360043516610fcf565b34801561057957600080fd5b50610339600160a060020a0360043516610fe1565b34801561059a57600080fd5b506104de610ffc565b3480156105af57600080fd5b506105b861108f565b6040805160ff9092168252519081900360200190f35b3480156105da57600080fd5b506104de600160a060020a0360043516602435611094565b3480156105fe57600080fd5b5061033960043560243560443560ff606435166110fc565b34801561062257600080fd5b5061033960043560243561114a565b34801561063d57600080fd5b506103f9600160a060020a0360043516602435611191565b34801561066157600080fd5b50610339600160a060020a03600435166111cd565b34801561068257600080fd5b50610339600160a060020a03600435166111e8565b3480156106a357600080fd5b506104de600160a060020a0360043516611235565b3480156106c457600080fd5b50610339600160a060020a03600435166112b0565b3480156106e557600080fd5b506106ee6112c2565b6040805192835260208301919091528051918290030190f35b34801561071357600080fd5b5061071f6004356112cb565b60408051600160a060020a039092168252519081900360200190f35b34801561074757600080fd5b5061071f6112f3565b6104de600160a060020a0360043516602435611302565b34801561077357600080fd5b50610339600160a060020a036004351661159d565b34801561079457600080fd5b506104de6115b8565b3480156107a957600080fd5b506103f9600160a060020a0360043516611660565b3480156107ca57600080fd5b50610339600160a060020a03600435166116c6565b3480156107eb57600080fd5b506106ee6116d8565b34801561080057600080fd5b5061071f6116e2565b34801561081557600080fd5b506103f96116f6565b34801561082a57600080fd5b506104de600160a060020a036004351661170c565b34801561084b57600080fd5b506103606118fc565b34801561086057600080fd5b506104de600435611957565b34801561087857600080fd5b506104de600160a060020a0360043516611d41565b34801561089957600080fd5b506104de600435600160a060020a0360243516611dbc565b3480156108bd57600080fd5b506103f9600160a060020a0360043516602435611f33565b3480156108e157600080fd5b50610422600160a060020a0360043516611fcc565b34801561090257600080fd5b506103f9600160a060020a0360043516602435612083565b34801561092657600080fd5b5061071f612090565b34801561093b57600080fd5b506104de600160a060020a036004351661209f565b34801561095c57600080fd5b50610339600160a060020a036004358116906024351661211a565b34801561098357600080fd5b506103f9612145565b34801561099857600080fd5b506104de600435602435604435612167565b3480156109b657600080fd5b5061071f6121cb565b3480156109cb57600080fd5b506106ee600160a060020a03600435166121da565b3480156109ec57600080fd5b50610339612202565b348015610a0157600080fd5b50610339600160a060020a0360043516612234565b348015610a2257600080fd5b506040805160206004602480358281013584810280870186019097528086526104de96843596369660449591949091019291829185019084908082843750506040805187358901803560208181028481018201909552818452989b9a99890198929750908201955093508392508501908490808284375094975050843595505050602090920135915061224f9050565b348015610abe57600080fd5b506103396124c7565b348015610ad357600080fd5b506106ee60043561255b565b348015610aeb57600080fd5b5061033961257c565b348015610b0057600080fd5b5061033961269a565b348015610b1557600080fd5b50610339600160a060020a03600435811690602435166126aa565b348015610b3c57600080fd5b50610339600160a060020a03600435166126d5565b348015610b5d57600080fd5b506106ee6004356126e7565b348015610b7557600080fd5b50610339612713565b348015610b8a57600080fd5b506104de600160a060020a0360043516612728565b348015610bab57600080fd5b5061071f61277f565b348015610bc057600080fd5b506104de60043560243561278e565b348015610bdb57600080fd5b50610be46127e5565b604051808060200180602001838103835285818151815260200191508051906020019060200280838360005b83811015610c28578181015183820152602001610c10565b50505050905001838103825284818151815260200191508051906020019060200280838360005b83811015610c67578181015183820152602001610c4f565b5050505090500194505050505060405180910390f35b348015610c8957600080fd5b506104de600160a060020a03600435166128ee565b348015610caa57600080fd5b506104de6004351515612943565b348015610cc457600080fd5b506104de600160a060020a03600435166129d1565b600a6020526000908152604090205481565b6007805460408051602060026001851615610100026000190190941693909304601f81018490048402820184019092528181529291830182828015610d715780601f10610d4657610100808354040283529160200191610d71565b820191906000526020600020905b815481529060010190602001808311610d5457829003601f168201915b505050505081565b6000610d86338484612a35565b50600192915050565b60606001805480602002602001604051908101604052809291908181526020018280548015610de757602002820191906000526020600020905b8154600160a060020a03168152600190910190602001808311610dc9575b505050505090505b90565b6000610e13610dff6124c7565b610e0761257c565b9063ffffffff612ba216565b905090565b60146020526000908152604090205481565b60065490565b610e386116f6565b1515610e7c576040805160e560020a62461bcd0281526020600482018190526024820152600080516020614791833981519152604482015290519081900360640190fd5b6010805473ffffffffffffffffffffffffffffffffffffffff1916600160a060020a0392909216919091179055565b6000610eb56116f6565b1515610ef9576040805160e560020a62461bcd0281526020600482018190526024820152600080516020614791833981519152604482015290519081900360640190fd5b610f04600183612beb565b92915050565b6000610f17848484612cd8565b60408051606081018252602881527f45524332303a207472616e7366657220616d6f756e74206578636565647320616020808301919091527f6c6c6f77616e636500000000000000000000000000000000000000000000000082840152600160a060020a0387166000908152600582528381203380835292529290922054610fb39287929091610fae91879063ffffffff612e4816565b612a35565b5060019392505050565b60046020526000908152604090205481565b60156020526000908152604090205481565b600160a060020a03166000908152600d602052604090205490565b60006110066116f6565b151561104a576040805160e560020a62461bcd0281526020600482018190526024820152600080516020614791833981519152604482015290519081900360640190fd5b5060005b60015481101561108c5761108460018281548110151561106a57fe5b600091825260209091200154600160a060020a031661170c565b60010161104e565b50565b601281565b61109c6116f6565b15156110e0576040805160e560020a62461bcd0281526020600482018190526024820152600080516020614791833981519152604482015290519081900360640190fd5b600160a060020a039091166000908152600d6020526040902055565b60008060ff83161585871114156111245761111d868563ffffffff612ee516565b9050611137565b611134858563ffffffff612ee516565b90505b61114081612f8f565b9695505050505050565b600080600061115885612fbe565b805490925061116d908563ffffffff612ee516565b905061118682600101548261303d90919063ffffffff16565b92505b505092915050565b336000818152600560209081526040808320600160a060020a03871684529091528120549091610d86918590610fae908663ffffffff61307f16565b600160a060020a031660009081526016602052604090205490565b600160a060020a0381166000908152600b60209081526040808320546004909252822054610f0491906112299061121d612202565b9063ffffffff612ee516565b9063ffffffff61307f16565b61123d6116f6565b1515611281576040805160e560020a62461bcd0281526020600482018190526024820152600080516020614791833981519152604482015290519081900360640190fd5b600f805473ffffffffffffffffffffffffffffffffffffffff1916600160a060020a0392909216919091179055565b60026020526000908152604090205481565b60125460135482565b60018054829081106112d957fe5b600091825260209091200154600160a060020a0316905081565b600c54600160a060020a031690565b60008060008061131286866130dc565b94506000851161136c576040805160e560020a62461bcd02815260206004820152601a60248201527f736574746c656d656e7420616d6f756e74206973207a65726f21000000000000604482015290519081900360640190fd5b61137760038661114a565b9350611383868561320f565b611393858563ffffffff612ba216565b600f54604080517f41976e09000000000000000000000000000000000000000000000000000000008152600160a060020a038a8116600483015291519398509116916341976e09916024808201926020929091908290030181600087803b1580156113fd57600080fd5b505af1158015611411573d6000803e3d6000fd5b505050506040513d602081101561142757600080fd5b5051925061143b838663ffffffff612ee516565b9150611455611448612202565b839063ffffffff61303d16565b33600090815260166020526040902054909150611478908363ffffffff61307f16565b33600090815260166020908152604080832093909355600160a060020a03891682526015905220546114b0908663ffffffff61307f16565b600160a060020a038716600081815260156020908152604080832094909455338252601781528382209282529190915220546114f2908663ffffffff61307f16565b336000908152601760209081526040808320600160a060020a038b16845282528083209390935560149052205461152f908663ffffffff61307f16565b600160a060020a0387166000818152601460209081526040918290209390935580518881529283018490528051919233927f33a089d94f9a0b7d0fe21e69b40d7dbe1965be652c7382cc778d46963db8c49b929181900390910190a3611595338261328e565b505050505050565b600160a060020a031660009081526004602052604090205490565b6115c06116f6565b1515611604576040805160e560020a62461bcd0281526020600482018190526024820152600080516020614791833981519152604482015290519081900360640190fd5b60008054604051610100909104600160a060020a0316907f8be0079c531659141344cd1fd0a4f28419497f9722a3daafe3b4186f6b6457e0908390a36000805474ffffffffffffffffffffffffffffffffffffffff0019169055565b6000610f0460018054806020026020016040519081016040528092919081815260200182805480156116bb57602002820191906000526020600020905b8154600160a060020a0316815260019091019060200180831161169d575b505050505083613353565b600b6020526000908152604090205481565b6012546013549091565b6000546101009004600160a060020a031690565b6000546101009004600160a060020a0316331490565b6000806117176116f6565b151561175b576040805160e560020a62461bcd0281526020600482018190526024820152600080516020614791833981519152604482015290519081900360640190fd5b600160a060020a038316600090815260026020526040812054925082116117cc576040805160e560020a62461bcd02815260206004820152601260248201527f4974277320656d7074792062616c616e63650000000000000000000000000000604482015290519081900360640190fd5b600160a060020a038316600081815260026020526040812055151561181e57604051339083156108fc029084906000818181858888f19350505050158015611818573d6000803e3d6000fd5b506118b7565b50604080517fa9059cbb0000000000000000000000000000000000000000000000000000000081523360048201526024810183905290518391600160a060020a0383169163a9059cbb916044808201926020929091908290030181600087803b15801561188a57600080fd5b505af115801561189e573d6000803e3d6000fd5b505050506040513d60208110156118b457600080fd5b50505b604080518381529051600160a060020a0385169133917f747147be90b2a81a2e929994a92cd7bb71396bdbfd02f181867c81187d4f79449181900360200190a3505050565b6008805460408051602060026001851615610100026000190190941693909304601f81018490048402820184019092528181529291830182828015610d715780601f10610d4657610100808354040283529160200191610d71565b6011546060906000908190839081908390600160a060020a031633146119ed576040805160e560020a62461bcd02815260206004820152602760248201527f4d616e6167657261626c653a2063616c6c6572206973206e6f7420746865204f60448201527f70657261746f7200000000000000000000000000000000000000000000000000606482015290519081900360840190fd5b601054604080517faf70df12000000000000000000000000000000000000000000000000000000008152600481018a8152602482019283526001805460448401819052600160a060020a039095169463af70df12948d94929392909160649091019084908015611a8657602002820191906000526020600020905b8154600160a060020a03168152600190910190602001808311611a68575b50509350505050600060405180830381600087803b158015611aa757600080fd5b505af1158015611abb573d6000803e3d6000fd5b505050506040513d6000823e601f3d908101601f191682016040526060811015611ae457600080fd5b810190808051640100000000811115611afc57600080fd5b82016020810184811115611b0f57600080fd5b8151856020820283011164010000000082111715611b2c57600080fd5b5050602082015160409092015190995090975095505084159050611d3857601054604080517fe5081c40000000000000000000000000000000000000000000000000000000008152600481018a8152602482019283526001805460448401819052600160a060020a039095169463e5081c40948d94929392909160649091019084908015611be357602002820191906000526020600020905b8154600160a060020a03168152600190910190602001808311611bc5575b50509350505050600060405180830381600087803b158015611c0457600080fd5b505af1158015611c18573d6000803e3d6000fd5b505050506040513d6000823e601f3d908101601f191682016040908152811015611c4157600080fd5b810190808051640100000000811115611c5957600080fd5b82016020810184811115611c6c57600080fd5b8151856020820283011164010000000082111715611c8957600080fd5b50509291906020018051640100000000811115611ca557600080fd5b82016020810184811115611cb857600080fd5b8151856020820283011164010000000082111715611cd557600080fd5b50949750955060009450505050505b8251811015611d2b578581815181101515611cfb57fe5b906020019060200201518382815181101515611d1357fe5b60209081029091010180519091019052600101611ce4565b611d38878484884261224f565b50505050505050565b611d496116f6565b1515611d8d576040805160e560020a62461bcd0281526020600482018190526024820152600080516020614791833981519152604482015290519081900360640190fd5b600c805473ffffffffffffffffffffffffffffffffffffffff1916600160a060020a0392909216919091179055565b6000806000806000611dcd86611660565b1515611e23576040805160e560020a62461bcd02815260206004820152601f60248201527f736574746c656d656e7420697320756e737570706f7274656420746f6b656e00604482015290519081900360640190fd5b336000908152600a602090815260408083205460049092529091205401871115611e97576040805160e560020a62461bcd02815260206004820152601e60248201527f53436f696e2062616c616e636520697320696e73756666696369656e74210000604482015290519081900360640190fd5b861515611ea357611d38565b611eab610df2565b9450611eb787866133a4565b9350935083870396506000871115611ef8578285039450611ed8878661346e565b915091506000821115611ef857611eef33836134f9565b92810192918201915b83836156ce7f36bc09f07bcf3d3fa05df7f9c56193487df0507ecd1d5a83845b56b4e6d7b73360405160405180910390a4611d3886846135e4565b60408051606081018252602581527f45524332303a2064656372656173656420616c6c6f77616e63652062656c6f776020808301919091527f207a65726f0000000000000000000000000000000000000000000000000000008284015233600081815260058352848120600160a060020a0388168252909252928120549092610d869290918691610fae9190879063ffffffff612e4816565b60608060606000806120028660016000815481101515611fe857fe5b600091825260209091200154600160a060020a0316613b59565b5060015491955093509150600090505b8181101561207957612059838281518110151561202b57fe5b90602001906020020151858381518110151561204357fe5b602090810290910101519063ffffffff61307f16565b848281518110151561206757fe5b60209081029091010152600101612012565b5091949350505050565b6000610d86338484612cd8565b600f54600160a060020a031690565b6120a76116f6565b15156120eb576040805160e560020a62461bcd0281526020600482018190526024820152600080516020614791833981519152604482015290519081900360640190fd5b6011805473ffffffffffffffffffffffffffffffffffffffff1916600160a060020a0392909216919091179055565b600160a060020a03918216600090815260176020908152604080832093909416825291909152205490565b6000547501000000000000000000000000000000000000000000900460ff1681565b60006121716116f6565b15156121b5576040805160e560020a62461bcd0281526020600482018190526024820152600080516020614791833981519152604482015290519081900360640190fd5b6121be84612fbe565b9283555060019091015550565b601054600160a060020a031690565b600160a060020a03166000908152600a6020908152604080832054600b909252909120549091565b60006006546000141561221a57506305f5e100610def565b60065461222561269a565b81151561222e57fe5b04905090565b600160a060020a031660009081526002602052604090205490565b6011546000908190600160a060020a031633146122dc576040805160e560020a62461bcd02815260206004820152602760248201527f4d616e6167657261626c653a2063616c6c6572206973206e6f7420746865204f60448201527f70657261746f7200000000000000000000000000000000000000000000000000606482015290519081900360840190fd5b6010546040517f8ff239e6000000000000000000000000000000000000000000000000000000008152600481018981526024820187905260648201869052608060448301908152885160848401528851600160a060020a0390941693638ff239e6938c938a938c938b9360a401906020808701910280838360005b8381101561236f578181015183820152602001612357565b5050505090500195505050505050600060405180830381600087803b15801561239757600080fd5b505af11580156123ab573d6000803e3d6000fd5b50505050600091505b8551821015611d385760018054839081106123cb57fe5b60009182526020822001548751600160a060020a0390911692508790849081106123f157fe5b602090810290910101511261246057612442868381518110151561241157fe5b6020908102909101810151600160a060020a038416600090815260149092526040909120549063ffffffff61307f16565b600160a060020a0382166000908152601460205260409020556124bc565b6124a2868381518110151561247157fe5b6020908102909101810151600160a060020a038416600090815260149092526040822054910363ffffffff612ba216565b600160a060020a0382166000908152601460205260409020555b6001909101906123b4565b600080601060009054906101000a9004600160a060020a0316600160a060020a03166373a3d4246040518163ffffffff1660e060020a028152600401602060405180830381600087803b15801561251d57600080fd5b505af1158015612531573d6000803e3d6000fd5b505050506040513d602081101561254757600080fd5b5051905061255481612f8f565b91505b5090565b600080600061256984612fbe565b8054600190910154909590945092505050565b60015460009081908180805b8383101561269057600180548490811061259e57fe5b6000918252602080832090910154600f54604080517f41976e09000000000000000000000000000000000000000000000000000000008152600160a060020a0393841660048201819052915191975091909216936341976e099360248084019491939192918390030190829087803b15801561261957600080fd5b505af115801561262d573d6000803e3d6000fd5b505050506040513d602081101561264357600080fd5b5051600160a060020a0383166000908152601460205260409020549091506126839061267690839063ffffffff612ee516565b869063ffffffff61307f16565b9450600190920191612588565b5092949350505050565b6000610e13600954610e0761257c565b600160a060020a03918216600090815260056020908152604080832093909416825291909152205490565b60166020526000908152604090205481565b60038054829081106126f557fe5b60009182526020909120600290910201805460019091015490915082565b6000610e136127206124c7565b610e0761269a565b6127306116f6565b1515612774576040805160e560020a62461bcd0281526020600482018190526024820152600080516020614791833981519152604482015290519081900360640190fd5b61108c600182613fce565b601154600160a060020a031690565b6127966116f6565b15156127da576040805160e560020a62461bcd0281526020600482018190526024820152600080516020614791833981519152604482015290519081900360640190fd5b601291909155601355565b6060806060600060018054905060405190808252806020026020018201604052801561281b578160200160208202803883390190505b509150600090505b600154811015612885576002600060018381548110151561284057fe5b6000918252602080832090910154600160a060020a03168352820192909252604001902054825183908390811061287357fe5b60209081029091010152600101612823565b600182818054806020026020016040519081016040528092919081815260200182805480156128dd57602002820191906000526020600020905b8154600160a060020a031681526001909101906020018083116128bf575b505050505091509350935050509091565b6128f66116f6565b151561293a576040805160e560020a62461bcd0281526020600482018190526024820152600080516020614791833981519152604482015290519081900360640190fd5b61108c81614074565b61294b6116f6565b151561298f576040805160e560020a62461bcd0281526020600482018190526024820152600080516020614791833981519152604482015290519081900360640190fd5b6000805491151575010000000000000000000000000000000000000000000275ff00000000000000000000000000000000000000000019909216919091179055565b61108c6001805480602002602001604051908101604052809291908181526020018280548015612a2a57602002820191906000526020600020905b8154600160a060020a03168152600190910190602001808311612a0c575b50505050508261416d565b600160a060020a0383161515612aba576040805160e560020a62461bcd028152602060048201526024808201527f45524332303a20617070726f76652066726f6d20746865207a65726f2061646460448201527f7265737300000000000000000000000000000000000000000000000000000000606482015290519081900360840190fd5b600160a060020a0382161515612b40576040805160e560020a62461bcd02815260206004820152602260248201527f45524332303a20617070726f766520746f20746865207a65726f20616464726560448201527f7373000000000000000000000000000000000000000000000000000000000000606482015290519081900360840190fd5b600160a060020a03808416600081815260056020908152604080832094871680845294825291829020859055815185815291517f8c5be1e5ebec7d5bd14f71427d1e84f3dd0314c0f7b2291e5b200ac8c7c3b9259281900390910190a3505050565b6000612be483836040805190810160405280601e81526020017f536166654d6174683a207375627472616374696f6e206f766572666c6f770000815250612e48565b9392505050565b8154600090815b81811015612c3a5783600160a060020a03168582815481101515612c1257fe5b600091825260209091200154600160a060020a03161415612c3257612c3a565b600101612bf2565b81811015612ccd5760001982018114612cb3578460018303815481101515612c5e57fe5b6000918252602090912001548554600160a060020a0390911690869083908110612c8457fe5b9060005260206000200160006101000a815481600160a060020a030219169083600160a060020a031602179055505b8454612cc3866000198301614757565b5060019250611189565b506000949350505050565b600160a060020a0383161515612d5e576040805160e560020a62461bcd02815260206004820152602560248201527f45524332303a207472616e736665722066726f6d20746865207a65726f20616460448201527f6472657373000000000000000000000000000000000000000000000000000000606482015290519081900360840190fd5b600160a060020a0382161515612de4576040805160e560020a62461bcd02815260206004820152602360248201527f45524332303a207472616e7366657220746f20746865207a65726f206164647260448201527f6573730000000000000000000000000000000000000000000000000000000000606482015290519081900360840190fd5b612dee83826141cd565b612df8828261429c565b81600160a060020a031683600160a060020a03167fddf252ad1be2c89b69c2b068fc378daa952ba7f163c4a11628f55a4df523b3ef836040518082815260200191505060405180910390a3505050565b6000808285851115612edb5760405160e560020a62461bcd0281526004018080602001828103825283818151815260200191508051906020019080838360005b83811015612ea0578181015183820152602001612e88565b50505050905090810190601f168015612ecd5780820380516001836020036101000a031916815260200191505b509250505060405180910390fd5b5050509103919050565b600080831515612ef85760009150612f88565b50828202828482811515612f0857fe5b0414612f84576040805160e560020a62461bcd02815260206004820152602160248201527f536166654d6174683a206d756c7469706c69636174696f6e206f766572666c6f60448201527f7700000000000000000000000000000000000000000000000000000000000000606482015290519081900360840190fd5b8091505b5092915050565b6012546000908190612fa7908463ffffffff612ee516565b601354909150612be490829063ffffffff61303d16565b600354600090821061301a576040805160e560020a62461bcd02815260206004820152601260248201527f66656520747970652069732076616c6964210000000000000000000000000000604482015290519081900360640190fd5b600380548390811061302857fe5b90600052602060002090600202019050919050565b6000612be483836040805190810160405280601a81526020017f536166654d6174683a206469766973696f6e206279207a65726f00000000000081525061434b565b600082820183811015612f84576040805160e560020a62461bcd02815260206004820152601b60248201527f536166654d6174683a206164646974696f6e206f766572666c6f770000000000604482015290519081900360640190fd5b60008060006130ea85611660565b1515613140576040805160e560020a62461bcd02815260206004820152601f60248201527f736574746c656d656e7420697320756e737570706f7274656420746f6b656e00604482015290519081900360640190fd5b60009150600160a060020a038516151561315c57349150613207565b60008411156132075750604080517f23b872dd0000000000000000000000000000000000000000000000000000000081523360048201523060248201526044810185905290518591600160a060020a038316916323b872dd916064808201926020929091908290030181600087803b1580156131d757600080fd5b505af11580156131eb573d6000803e3d6000fd5b505050506040513d602081101561320157600080fd5b50849250505b509392505050565b600160a060020a038216600090815260026020526040902054613238908263ffffffff61307f16565b600160a060020a038316600081815260026020908152604091829020939093558051848152905191927f1104eee7f034069140a0655d153038cedf9e65e5724018c555a8d56cfb6bee7792918290030190a25050565b600160a060020a03821615156132ee576040805160e560020a62461bcd02815260206004820152601f60248201527f45524332303a206d696e7420746f20746865207a65726f206164647265737300604482015290519081900360640190fd5b600654613301908263ffffffff61307f16565b60065561330e828261429c565b604080518281529051600160a060020a038416916000917fddf252ad1be2c89b69c2b068fc378daa952ba7f163c4a11628f55a4df523b3ef9181900360200190a35050565b8151600090815b81811015612ccd5783600160a060020a0316858281518110151561337a57fe5b90602001906020020151600160a060020a0316141561339c5760019250611189565b60010161335a565b60008060008060008060006133b8336121da565b9450945084600014156133d15760009650869550613462565b600092506000915084848115156133e457fe5b04905088851061340857889150613401828263ffffffff612ee516565b925061340f565b8491508392505b8783111561343c57613427888263ffffffff61303d16565b9150613439828263ffffffff612ee516565b92505b600082111561345a5761344f33836143b7565b818396509650613462565b600096508695505b50505050509250929050565b6000806000806000806000613481612202565b9450613493898663ffffffff612ee516565b9350878411156134ea576134ad888663ffffffff61303d16565b92506134bf838663ffffffff612ee516565b9150508188036134df33826134da818963ffffffff612ee516565b614440565b828296509650613462565b50969791965090945050505050565b600160a060020a038216151561357f576040805160e560020a62461bcd02815260206004820152602160248201527f45524332303a206275726e2066726f6d20746865207a65726f2061646472657360448201527f7300000000000000000000000000000000000000000000000000000000000000606482015290519081900360840190fd5b61358982826141cd565b60065461359c908263ffffffff612ba216565b600655604080518281529051600091600160a060020a038516917fddf252ad1be2c89b69c2b068fc378daa952ba7f163c4a11628f55a4df523b3ef9181900360200190a35050565b806060808080600081818080806135fb338e613b59565b995099509950600180548060200260200160405190810160405280929190818152602001828054801561365757602002820191906000526020600020905b8154600160a060020a03168152600190910190602001808311613639575b50505050509650613668878e61445a565b955085156136d75786600081518110151561367f57fe5b90602001906020020151878781518110151561369757fe5b600160a060020a0390921660209283029091019091015286518d90889060009081106136bf57fe5b600160a060020a039092166020928302909101909101525b8651955085604051908082528060200260200182016040528015613705578160200160208202803883390190505b509450600093505b858410801561371c575060008c115b156138d357868481518110151561372f57fe5b90602001906020020151925061377a8a8581518110151561374c57fe5b90602001906020020151898681518110151561376457fe5b602090810290910101519063ffffffff612ee516565b9150818c6104577f36bc09f07bcf3d3fa05df7f9c56193487df0507ecd1d5a83845b56b4e6d7b73360405160405180910390a4818c101561386f576137dd88858151811015156137c657fe5b602090810290910101518d9063ffffffff61303d16565b336000908152601760209081526040808320600160a060020a038816845290915290205490915061382890839061381c908f830363ffffffff612ee516565b9063ffffffff61303d16565b336000908152601760209081526040808320600160a060020a03881684529091529020558451819086908690811061385c57fe5b6020908102909101015260009b506138d3565b336000908152601760209081526040808320600160a060020a038716845290915281205589518a90859081106138a157fe5b9060200190602002015185858151811015156138b957fe5b602090810290910101529a8190039a60019093019261370d565b60008c111561398a5760009150600093505b8584101561393357613926613919898681518110151561390157fe5b906020019060200201518b8781518110151561376457fe5b839063ffffffff61307f16565b60019094019391506138e5565b600093505b8584101561398a576139676139598361381c8f8d8981518110151561376457fe5b868681518110151561204357fe5b858581518110151561397557fe5b60209081029091010152600190930192613938565b6139ee60018054806020026020016040519081016040528092919081815260200182805480156139e357602002820191906000526020600020905b8154600160a060020a031681526001909101906020018083116139c5575b50505050508e61445a565b93508315613a5d578484815181101515613a0457fe5b906020019060200201519050846000815181101515613a1f57fe5b906020019060200201518585815181101515613a3757fe5b602090810290910101528451819086906000908110613a5257fe5b602090810290910101525b600093505b85841015613b07578484815181101515613a7857fe5b906020019060200201518b6104577f36bc09f07bcf3d3fa05df7f9c56193487df0507ecd1d5a83845b56b4e6d7b73360405160405180910390a4613afc33600186815481101515613ac557fe5b6000918252602090912001548751600160a060020a0390911690889088908110613aeb57fe5b9060200190602002015160046144af565b600190930192613a62565b60408051600160a060020a038f168152602081018d9052815133927fc994feb9b99296d80965b47aec6be0d25704ddf95b9b9bc1ed8bc753960d5809928290030190a250505050505050505050505050565b606080606080600060608060606000806000806001805480602002602001604051908101604052809291908181526020018280548015613bc257602002820191906000526020600020905b8154600160a060020a03168152600190910190602001808311613ba4575b50505050509850613bd3898e61445a565b97508715613c4257886000815181101515613bea57fe5b906020019060200201518989815181101515613c0257fe5b600160a060020a0390921660209283029091019091015288518d908a906000908110613c2a57fe5b600160a060020a039092166020928302909101909101525b8851975087604051908082528060200260200182016040528015613c70578160200160208202803883390190505b50965087604051908082528060200260200182016040528015613c9d578160200160208202803883390190505b50955087604051908082528060200260200182016040528015613cca578160200160208202803883390190505b5094506000935060009250613cde8e6111e8565b9150600090505b87811015613f2657613dcf601560008b84815181101515613d0257fe5b90602001906020020151600160a060020a0316600160a060020a0316815260200190815260200160002054601460008c85815181101515613d3f57fe5b90602001906020020151600160a060020a0316600160a060020a03168152602001908152602001600020546017600033600160a060020a0316600160a060020a0316815260200190815260200160002060008d86815181101515613d9f57fe5b90602001906020020151600160a060020a0316600160a060020a03168152602001908152602001600020546144ed565b8883815181101515613ddd57fe5b9060200190602002018884815181101515613df457fe5b6020908102909101019190915252600f548951600160a060020a03909116906341976e09908b9084908110613e2557fe5b906020019060200201516040518263ffffffff1660e060020a0281526004018082600160a060020a0316600160a060020a03168152602001915050602060405180830381600087803b158015613e7a57600080fd5b505af1158015613e8e573d6000803e3d6000fd5b505050506040513d6020811015613ea457600080fd5b50518551869083908110613eb457fe5b602090810290910101528651613ef990613eec90899084908110613ed457fe5b90602001906020020151878481518110151561376457fe5b859063ffffffff61307f16565b9350613f1c613f0f8783815181101515613ed457fe5b849063ffffffff61307f16565b9250600101613ce5565b818410613f74575060005b87811015613f6f57613f4f8461381c848a8581518110151561376457fe5b8782815181101515613f5d57fe5b60209081029091010152600101613f31565b613fb9565b5082900360005b87811015613fb957613f998361381c84898581518110151561376457fe5b8682815181101515613fa757fe5b60209081029091010152600101613f7b565b50949c939b5091995091975050505050505050565b6140318280548060200260200160405190810160405280929190818152602001828054801561402657602002820191906000526020600020905b8154600160a060020a03168152600190910190602001808311614008575b505050505082613353565b151561407057815460018101835560008381526020902001805473ffffffffffffffffffffffffffffffffffffffff1916600160a060020a0383161790555b5050565b600160a060020a03811615156140fa576040805160e560020a62461bcd02815260206004820152602660248201527f4f776e61626c653a206e6577206f776e657220697320746865207a65726f206160448201527f6464726573730000000000000000000000000000000000000000000000000000606482015290519081900360840190fd5b60008054604051600160a060020a038085169361010090930416917f8be0079c531659141344cd1fd0a4f28419497f9722a3daafe3b4186f6b6457e091a360008054600160a060020a039092166101000274ffffffffffffffffffffffffffffffffffffffff0019909216919091179055565b6141778282613353565b1515614070576040805160e560020a62461bcd02815260206004820181905260248201527f77686974654c6973743a207573696e6720696e76616c69642061646472657373604482015290519081900360640190fd5b600160a060020a0382161515614253576040805160e560020a62461bcd02815260206004820152602360248201527f45524332303a207472616e7366657220746f20746865207a65726f206164647260448201527f6573730000000000000000000000000000000000000000000000000000000000606482015290519081900360840190fd5b600160a060020a03821660009081526004602052604090205461427c908263ffffffff612ba216565b600160a060020a0390921660009081526004602052604090209190915550565b600160a060020a0382161515614322576040805160e560020a62461bcd02815260206004820152602360248201527f45524332303a207472616e7366657220746f20746865207a65726f206164647260448201527f6573730000000000000000000000000000000000000000000000000000000000606482015290519081900360840190fd5b600160a060020a03821660009081526004602052604090205461427c908263ffffffff61307f16565b600080828185116143a15760405160e560020a62461bcd02815260040180806020018281038252838181518152602001915080519060200190808383600083811015612ea0578181015183820152602001612e88565b5083858115156143ad57fe5b0495945050505050565b600160a060020a0382166000908152600a602052604081205490808083111561443957600160a060020a0385166000908152600b6020526040902054915082841061440c57614407858484614525565b614439565b61442c61441f838563ffffffff61303d16565b859063ffffffff612ee516565b9050614439858583614525565b5050505050565b61444a83836141cd565b61445583838361459c565b505050565b8151600090815b818110156144a75783600160a060020a0316858281518110151561448157fe5b90602001906020020151600160a060020a0316141561449f576144a7565b600101614461565b949350505050565b60008215156144bd57614439565b6144c7828461114a565b90506144e385856144de868563ffffffff612ba216565b614611565b614439848261320f565b600080806145058661381c878763ffffffff612ee516565b905080614518868263ffffffff612ba216565b9250925050935093915050565b600160a060020a0383166000818152600a6020908152604080832080548790039055600b82529182902080548590039055600980548590039055815185815290810184905281517f3eff168ce30c25c5e643633b70f58850a0085c0a411d1b53e501a655a90bae1a929181900390910190a2505050565b600160a060020a0383166000818152600a60209081526040808320805487019055600b825291829020805485019055600980548590039055815185815290810184905281517f8eb48086ad9abd7f3270b68172da958c7507500a9e0c8a9897a5c85ae7d8c0e9929181900390910190a2505050565b600081151561461f57614751565b600160a060020a038316151561466b57604051600160a060020a0385169083156108fc029084906000818181858888f19350505050158015614665573d6000803e3d6000fd5b50614705565b50604080517fa9059cbb000000000000000000000000000000000000000000000000000000008152600160a060020a038581166004830152602482018490529151849283169163a9059cbb9160448083019260209291908290030181600087803b1580156146d857600080fd5b505af11580156146ec573d6000803e3d6000fd5b505050506040513d602081101561470257600080fd5b50505b82600160a060020a031684600160a060020a03167f8aaaec2388cc390cde69685f78340e15f36d424b6b6b595f549dd883931f9c9b846040518082815260200191505060405180910390a35b50505050565b81548183558181111561445557600083815260209020614455918101908301610def91905b80821115612557576000815560010161477c56004f776e61626c653a2063616c6c6572206973206e6f7420746865206f776e6572a165627a7a72305820f62da9df834141c14560b368f397a41491c262f559c3061544bca80d5b63d8a10029",
  "source": "\r\npragma solidity ^0.4.26;\r\nimport \"./modules/SafeMath.sol\";\r\nimport \"./modules/ReentrancyGuard.sol\";\r\nimport \"./FPOCoin.sol\";\r\nimport \"./modules/underlyingAssets.sol\";\r\nimport \"./modules/TransactionFee.sol\";\r\nimport \"./interfaces/IOptionsPool.sol\";\r\nimport \"./interfaces/IFNXOracle.sol\";\r\nimport \"./modules/Operator.sol\";\r\nimport \"./MinePoolManager.sol\";\r\ncontract CollateralPool is ReentrancyGuard,TransactionFee,FPOCoin,MinePoolManager,ImportOracle,ImportOptionsPool,Operator {\r\n    using SafeMath for uint256;\r\n    fraction public collateralRate = fraction(3, 1);\r\n    //token net worth\r\n    mapping (address => uint256) public netWorthBalances;\r\n    //address collaterel\r\n    mapping (address => uint256) public collateralBalances;\r\n    //user paying for collateral usd;\r\n    mapping (address => uint256) public userCollateralPaying;\r\n    //account -> collateral -> amount\r\n    mapping (address => mapping (address => uint256)) public userInputCollateral;\r\n\r\n    event AddCollateral(address indexed from,address indexed collateral,uint256 amount,uint256 tokenAmount);\r\n    event RedeemCollateral(address indexed from,address collateral,uint256 allRedeem);\r\n\r\n    event DebugEvent(uint256 indexed value1,uint256 indexed value2,uint256 indexed value3);\r\n\r\n    function setCollateralRate(uint256 numerator,uint256 denominator) public onlyOwner {\r\n        collateralRate.numerator = numerator;\r\n        collateralRate.denominator = denominator;\r\n    }\r\n    function getCollateralRate()public view returns (uint256,uint256) {\r\n        return (collateralRate.numerator,collateralRate.denominator);\r\n    }\r\n    function getUserPayingUsd(address user)public view returns (uint256){\r\n        return userCollateralPaying[user];\r\n    }\r\n    function userInputCollateral(address user,address collateral)public view returns (uint256){\r\n        return userInputCollateral[user][collateral];\r\n    }\r\n    function setPhaseSharedPayment(uint256 calInfo) public onlyOperator {\r\n        (uint256[] memory sharedBalances,uint256 firstOption,bool success) =\r\n             _optionsPool.calculatePhaseSharedPayment(calInfo,whiteList);\r\n        if (success){\r\n            (int256[] memory fallBalance,uint256[] memory prices) = _optionsPool.calculatePhaseOptionsFall(calInfo,whiteList);\r\n            for (uint256 i= 0;i<fallBalance.length;i++){\r\n                fallBalance[i] += int256(sharedBalances[i]);\r\n            }\r\n            setSharedPayment(calInfo,fallBalance,prices,firstOption,now);\r\n        }\r\n    }\r\n    function setSharedPayment(uint256 calInfo,int256[] sharedBalances,uint256[] prices,uint256 firstOption,uint256 calTime) public onlyOperator{\r\n        _optionsPool.setSharedState(calInfo,firstOption,prices,calTime);\r\n        for (uint i=0;i<sharedBalances.length;i++){\r\n            address addr = whiteList[i];\r\n            if(sharedBalances[i]>=0){\r\n                netWorthBalances[addr] = netWorthBalances[addr].add(uint256(sharedBalances[i]));\r\n            }else{\r\n                netWorthBalances[addr] = netWorthBalances[addr].sub(uint256(-sharedBalances[i]));\r\n            }\r\n        }\r\n    }\r\n    function getUserTotalWorth(address account)public view returns (uint256){\r\n        return getTokenNetworth().mul(balances[account]).add(lockedTotalWorth[account]);\r\n    }\r\n    function getTokenNetworth() public view returns (uint256){\r\n        if (_totalSupply == 0){\r\n            return 1e8;\r\n        }\r\n        return getUnlockedCollateral()/_totalSupply;\r\n    }\r\n    function addCollateral(address collateral,uint256 amount)public payable {\r\n        amount = getPayableAmount(collateral,amount);\r\n        require(amount>0 , \"settlement amount is zero!\");\r\n        uint256 fee = calculateFee(addColFee,amount);\r\n        _addTransactionFee(collateral,fee);\r\n        amount = amount.sub(fee);\r\n        uint256 price = _oracle.getPrice(collateral);\r\n        uint256 userPaying = price.mul(amount);\r\n        uint256 mintAmount = userPaying.div(getTokenNetworth());\r\n        userCollateralPaying[msg.sender] = userCollateralPaying[msg.sender].add(userPaying);\r\n        collateralBalances[collateral] = collateralBalances[collateral].add(amount);\r\n        userInputCollateral[msg.sender][collateral] = userInputCollateral[msg.sender][collateral].add(amount);\r\n        netWorthBalances[collateral] = netWorthBalances[collateral].add(amount);\r\n        emit AddCollateral(msg.sender,collateral,amount,mintAmount);\r\n        _mint(msg.sender,mintAmount);\r\n    }\r\n    //calculate token\r\n    function redeemCollateral(uint256 tokenAmount,address collateral)public {\r\n        require(isEligibleAddress(collateral) , \"settlement is unsupported token\");\r\n        require(balances[msg.sender]+lockedBalances[msg.sender]>=tokenAmount,\"SCoin balance is insufficient!\");\r\n        if (tokenAmount == 0){\r\n            return;\r\n        }\r\n        uint256 leftColateral = getLeftCollateral();\r\n        (uint256 burnAmount,uint256 redeemWorth) = _redeemLockedCollateral(tokenAmount,leftColateral);\r\n        tokenAmount -= burnAmount;\r\n        if (tokenAmount > 0){\r\n            leftColateral -= redeemWorth;\r\n            (uint256 newRedeem,uint256 newWorth) = _redeemCollateral(tokenAmount,leftColateral);\r\n            if(newRedeem>0){\r\n                _burn(msg.sender, newRedeem);\r\n                burnAmount += newRedeem;\r\n                redeemWorth += newWorth;\r\n            }\r\n        }\r\n        emit DebugEvent(22222,redeemWorth,burnAmount);\r\n        _redeemCollateralWorth(collateral,redeemWorth);\r\n    }\r\n    function _redeemLockedCollateral(uint256 tokenAmount,uint256 leftColateral)internal returns (uint256,uint256){\r\n        (uint256 lockedAmount,uint256 lockedWorth) = getLockedBalance(msg.sender);\r\n        if (lockedAmount == 0){\r\n            return (0,0);\r\n        }\r\n        uint256 redeemWorth = 0;\r\n        uint256 lockedBurn = 0;\r\n        uint256 lockedPrice = lockedWorth/lockedAmount;\r\n        if (lockedAmount >= tokenAmount){\r\n            lockedBurn = tokenAmount;\r\n            redeemWorth = tokenAmount.mul(lockedPrice);\r\n        }else{\r\n            lockedBurn = lockedAmount;\r\n            redeemWorth = lockedWorth;\r\n        }\r\n        if (redeemWorth > leftColateral) {\r\n            lockedBurn = leftColateral.div(lockedPrice);\r\n            redeemWorth = lockedBurn.mul(lockedPrice);\r\n        }\r\n        if (lockedBurn > 0){\r\n            _burnLocked(msg.sender,lockedBurn);\r\n            return (lockedBurn,redeemWorth);\r\n        }\r\n        return (0,0);\r\n    }\r\n    function _redeemCollateral(uint256 leftAmount,uint256 leftColateral)internal returns (uint256,uint256){\r\n        uint256 tokenNetWorth = getTokenNetworth();\r\n        uint256 leftWorth = leftAmount.mul(tokenNetWorth);        \r\n        if (leftWorth > leftColateral){\r\n            uint256 newRedeem = leftColateral.div(tokenNetWorth);\r\n            uint256 newWorth = newRedeem.mul(tokenNetWorth);\r\n            uint256 locked = leftAmount - newRedeem;\r\n            addlockBalance(msg.sender,locked,locked.mul(tokenNetWorth));\r\n            return (newRedeem,newWorth);\r\n        }\r\n        return (leftAmount,leftWorth);\r\n    }\r\n    function _redeemCollateralWorth(address collateral,uint256 redeemWorth) internal {\r\n        uint256 allRedeem = redeemWorth;\r\n        (uint256[] memory colBalances,uint256[] memory PremiumBalances,uint256[] memory prices) = _getCollateralAndPremiumBalances(msg.sender,collateral);\r\n        address[] memory tmpWhiteList = whiteList;\r\n        uint256 ln = whiteListAddress._getEligibleIndexAddress(tmpWhiteList,collateral);\r\n        if (ln != 0){\r\n            tmpWhiteList[ln] = tmpWhiteList[0];\r\n            tmpWhiteList[0] = collateral;\r\n        }\r\n        ln = tmpWhiteList.length;\r\n        uint256[] memory PaybackBalances = new uint256[](ln);\r\n        for (uint256 i=0; i<ln && redeemWorth>0;i++){\r\n            address addr = tmpWhiteList[i];\r\n            uint256 totalWorth = prices[i].mul(colBalances[i]);\r\n            emit DebugEvent(1111,redeemWorth,totalWorth);\r\n            if (redeemWorth < totalWorth){\r\n                uint256 amount = redeemWorth.div(prices[i]);\r\n                userInputCollateral[msg.sender][addr] = userInputCollateral[msg.sender][addr].mul(totalWorth-redeemWorth).div(totalWorth);\r\n                PaybackBalances[i] = amount;\r\n                redeemWorth = 0;\r\n                break;\r\n            }else{\r\n                userInputCollateral[msg.sender][addr] = 0;\r\n                PaybackBalances[i] = colBalances[i];\r\n                redeemWorth = redeemWorth - totalWorth;\r\n            }\r\n        }\r\n        if (redeemWorth>0) {\r\n           totalWorth = 0;\r\n            for (i=0; i<ln;i++){\r\n                totalWorth = totalWorth.add(PremiumBalances[i].mul(prices[i]));\r\n            }\r\n            for (i=0; i<ln;i++){\r\n                PaybackBalances[i] = PaybackBalances[i].add(PremiumBalances[i].mul(redeemWorth).div(totalWorth));\r\n            }\r\n        }\r\n        i = whiteListAddress._getEligibleIndexAddress(whiteList,collateral);\r\n        if (i!= 0) {\r\n            amount = PaybackBalances[i];\r\n            PaybackBalances[i] = PaybackBalances[0];\r\n            PaybackBalances[0] = amount;\r\n        }\r\n        for (i=0;i<ln;i++){ \r\n            emit DebugEvent(1111,allRedeem,PaybackBalances[i]);\r\n            _transferPaybackAndFee(msg.sender,whiteList[i],PaybackBalances[i],redeemColFee);\r\n        } \r\n        emit RedeemCollateral(msg.sender,collateral,allRedeem);\r\n    }\r\n    /*\r\n    function _redeemCollateralWorth(address account,address collateral,uint256 redeemWorth)public view returns(uint256[]){\r\n        uint256[] memory colBalances = new uint256[](whiteLen);\r\n        uint256[] memory PremiumBalances = new uint256[](whiteLen);\r\n        uint256 totalWorth = 0;\r\n        uint256 PremiumWorth = 0;\r\n        uint256 worth = getUserTotalWorth(account);\r\n        for (uint256 i=0; i<whiteLen;i++){\r\n            address addr = whiteList[i];\r\n            uint256 amount = userInputCollateral[msg.sender][addr];\r\n            colBalances[i] = collateralBalances[addr].mul(amount).div(netWorthBalances[addr]);\r\n            PremiumBalances[i] = netWorthBalances[addr].sub(colBalances[i]);\r\n            uint256 price = _oracle.getPrice(addr);\r\n            totalWorth = totalWorth.add(price.mul(colBalances[i]));\r\n            PremiumWorth = PremiumWorth.add(price.mul(PremiumBalances[i]));\r\n        }\r\n        if (totalWorth >= worth){\r\n            for (uint256 i=0; i<whiteLen;i++){\r\n                colBalances[i] = colBalances[i].mul(worth).div(totalWorth);\r\n            }\r\n            worth = 0;\r\n        }else{\r\n            worth = worth - totalWorth;\r\n        }\r\n\r\n        {\r\n            for (uint256 i=0; i<whiteLen;i++){\r\n                PremiumBalances[i] = PremiumBalances[i].mul(worth).div(totalWorth);\r\n            }\r\n        }\r\n        return colBalances;\r\n    }\r\n    function _redeemCollateralTrans(address collateral,uint256 redeemWorth,uint256 limitAmount){\r\n        uint256 price = _oracle.getPrice(collateral);\r\n        uint256 payback = limitAmount.mul(price);\r\n        if (payback > collateral){\r\n            \r\n        }\r\n\r\n    }\r\n    function _redeemCollateralWorth(uint256 tokenAmount,address collateral,uint256 redeemWorth,uint256 tokenNetWorth) internal {\r\n        uint256 allRedeem = redeemWorth;\r\n        uint whiteLen = whiteList.length;\r\n        uint256[] memory paybackcal = new uint256[](whiteLen);\r\n        uint256 payBack;\r\n        (redeemWorth,payBack) = _calPayBackCollateral(redeemWorth,collateral,tokenNetWorth);\r\n        uint256 index = whiteListAddress._getEligibleIndexAddress(whiteList,collateral);\r\n        paybackcal[index] = payBack;\r\n        for (uint256 i=0;redeemWorth>0 && i<whiteLen;i++){\r\n            (redeemWorth,payBack) = _calPayBackCollateral(redeemWorth,whiteList[i],tokenNetWorth);  \r\n            paybackcal[i] += payBack;\r\n        } \r\n        if (redeemWorth > 0){\r\n            paybackcal = _calPremiumPayback(redeemWorth,whiteLen,paybackcal);\r\n        }\r\n        for (i=0;i<whiteLen;i++){\r\n            _transferPaybackAndFee(msg.sender,whiteList[i],paybackcal[i],redeemColFee);\r\n        } \r\n        emit RedeemCollateral(msg.sender,tokenAmount,allRedeem);\r\n    }\r\n    */\r\n    function calCollateralWorth(address account)public view returns(uint256[]){\r\n        (uint256[] memory colBalances,uint256[] memory PremiumBalances,) = _getCollateralAndPremiumBalances(account,whiteList[0]);\r\n        uint256 whiteLen = whiteList.length;\r\n        for (uint256 i=0; i<whiteLen;i++){\r\n            colBalances[i] = colBalances[i].add(PremiumBalances[i]);\r\n        }\r\n        return colBalances;\r\n    }\r\n    function _getCollateralAndPremiumBalances(address account,address priorCollateral) internal view returns(uint256[],uint256[],uint256[]){\r\n        address[] memory tmpWhiteList = whiteList;\r\n        uint256 ln = whiteListAddress._getEligibleIndexAddress(tmpWhiteList,priorCollateral);\r\n        if (ln != 0){\r\n            tmpWhiteList[ln] = tmpWhiteList[0];\r\n            tmpWhiteList[0] = priorCollateral;\r\n        }\r\n        ln = tmpWhiteList.length;\r\n        uint256[] memory colBalances = new uint256[](ln);\r\n        uint256[] memory PremiumBalances = new uint256[](ln);\r\n        uint256[] memory prices = new uint256[](ln);\r\n        uint256 totalWorth = 0;\r\n        uint256 PremiumWorth = 0;\r\n        uint256 worth = getUserTotalWorth(account);\r\n        for (uint256 i=0; i<ln;i++){\r\n            (colBalances[i],PremiumBalances[i]) = _calBalanceRate(collateralBalances[tmpWhiteList[i]],netWorthBalances[tmpWhiteList[i]],userInputCollateral[msg.sender][tmpWhiteList[i]]);\r\n            prices[i] = _oracle.getPrice(tmpWhiteList[i]);\r\n            totalWorth = totalWorth.add(prices[i].mul(colBalances[i]));\r\n            PremiumWorth = PremiumWorth.add(prices[i].mul(PremiumBalances[i]));\r\n        }\r\n        if (totalWorth >= worth){\r\n            for (i=0; i<ln;i++){\r\n                colBalances[i] = colBalances[i].mul(worth).div(totalWorth);\r\n            }\r\n        }else{\r\n            worth = worth - totalWorth;\r\n            for (i=0; i<ln;i++){\r\n                PremiumBalances[i] = PremiumBalances[i].mul(worth).div(PremiumWorth);\r\n            }\r\n        }\r\n        return (colBalances,PremiumBalances,prices);\r\n    } \r\n    function _calBalanceRate(uint256 collateralBalance,uint256 netWorthBalance,uint256 amount)internal pure returns(uint256,uint256){\r\n        uint256 curAmount = netWorthBalance.mul(amount).div(collateralBalance);\r\n        return (curAmount,netWorthBalance.sub(curAmount));\r\n    }\r\n    /*\r\n    function _calPremiumPayback(uint256 worth,uint256 whiteLen,uint256[] memory paybackcal)internal view returns(uint256[] memory){\r\n        uint256 totalPrice = 0;\r\n        uint256[] memory PremiumBalances = new uint256[](whiteLen);\r\n        for (uint256 i=0; i<whiteLen;i++){\r\n            address addr = whiteList[i];\r\n            uint256 amount = userInputCollateral[msg.sender][collateral];\r\n            amount = collateralBalances[collateral].mul(amount).div(netWorthBalances[collateral]);\r\n            PremiumBalances[i] = netWorthBalances[addr].sub(paybackcal[i]);\r\n            uint256 price = _oracle.getPrice(addr);\r\n            totalPrice.add(price.mul(PremiumBalances[i]));\r\n        } \r\n                \r\n        if (totalPrice == 0){\r\n            return;\r\n        }\r\n        for (i=0;i<whiteLen;i++){\r\n            paybackcal[i] = paybackcal[i].add(PremiumBalances[i].mul(worth).div(totalPrice));\r\n        } \r\n        return paybackcal;\r\n    }\r\n\r\n    function _calPayBackCollateral(uint256 worth,address collateral,uint256 tokenNetWorth)internal view returns (uint256,uint256){\r\n        uint256 amount = userInputCollateral[msg.sender][collateral];\r\n        if (amount == 0){\r\n            return (worth,0);\r\n        }\r\n        uint netAmount = tokenNetWorth.mul(amount);\r\n        amount = collateralBalances[collateral].mul(amount).div(netWorthBalances[collateral]);\r\n        if (netAmount<amount){\r\n            amount = netAmount;\r\n        }\r\n        if (amount == 0){\r\n            return (worth,0);\r\n        }\r\n        uint256 price = _oracle.getPrice(collateral);\r\n        uint256 redeemAmount = worth.div(price);\r\n        if (redeemAmount == 0){\r\n            return (0,0);\r\n        }\r\n        uint256 transferAmount = (redeemAmount>amount) ? amount : redeemAmount;\r\n        if (redeemAmount>amount){\r\n            return (worth.sub(transferAmount.mul(price)),transferAmount);\r\n        }\r\n        return (0,transferAmount);\r\n    }\r\n        */\r\n    function getOccupiedCollateral() public view returns(uint256){\r\n        uint256 totalOccupied = _optionsPool.getTotalOccupiedCollateral();\r\n        return calculateCollateral(totalOccupied);\r\n    }\r\n    function getAvailableCollateral()public view returns(uint256){\r\n        return getUnlockedCollateral().sub(getOccupiedCollateral());\r\n    }\r\n    function getLeftCollateral()public view returns(uint256){\r\n        return getTotalCollateral().sub(getOccupiedCollateral());\r\n    }\r\n    function calOptionsOccupied(uint256 strikePrice,uint256 underlyingPrice,uint256 amount,uint8 optType)public view returns(uint256){\r\n        uint256 totalOccupied = 0;\r\n        if ((optType == 0) == (strikePrice>underlyingPrice)){ // call\r\n            totalOccupied = strikePrice.mul(amount);\r\n        } else {\r\n            totalOccupied = underlyingPrice.mul(amount);\r\n        }\r\n        return calculateCollateral(totalOccupied);\r\n    }\r\n    function getUnlockedCollateral()public view returns(uint256){\r\n        return getTotalCollateral().sub(_totalLockedWorth);\r\n    }\r\n    function getTotalCollateral()public view returns(uint256){\r\n        uint256 totalNum = 0;\r\n        uint whiteListLen = whiteList.length;\r\n        for (uint256 i=0;i<whiteListLen;i++){\r\n            address addr = whiteList[i];\r\n            uint256 price = _oracle.getPrice(addr);\r\n            totalNum = totalNum.add(price.mul(netWorthBalances[addr]));\r\n        }\r\n        return totalNum;  \r\n    }\r\n\r\n    function _paybackWorth(uint256 worth,uint256 feeType) internal {\r\n        uint256 totalPrice = 0;\r\n        uint whiteLen = whiteList.length;\r\n        uint256[] memory balances = new uint256[](whiteLen);\r\n        for (uint256 i=0;i<whiteLen;i++){\r\n            address addr = whiteList[i];\r\n            uint256 price = _oracle.getPrice(addr);\r\n            balances[i] = netWorthBalances[addr];\r\n            totalPrice = totalPrice.add(price.mul(balances[i]));\r\n        }\r\n        if (totalPrice == 0){\r\n            return;\r\n        }\r\n        for (i=0;i<whiteLen;i++){\r\n            uint256 _payBack = balances[i].mul(worth).div(totalPrice);\r\n            netWorthBalances[addr] = balances[i].sub(_payBack);\r\n            _transferPaybackAndFee(msg.sender,addr,_payBack,feeType);\r\n        } \r\n    }\r\n    function getPayableAmount(address settlement,uint256 settlementAmount) internal returns (uint256) {\r\n        require(isEligibleAddress(settlement) , \"settlement is unsupported token\");\r\n        uint256 colAmount = 0;\r\n        if (settlement == address(0)){\r\n            colAmount = msg.value;\r\n        }else if (settlementAmount > 0){\r\n            IERC20 oToken = IERC20(settlement);\r\n            oToken.transferFrom(msg.sender, address(this), settlementAmount);\r\n            colAmount = settlementAmount;\r\n        }\r\n        return colAmount;\r\n    }\r\n    function calculateCollateral(uint256 amount)internal view returns (uint256){\r\n        uint256 result = collateralRate.numerator.mul(amount);\r\n        return result.div(collateralRate.denominator);\r\n    }\r\n\r\n}",
  "sourcePath": "C:\\work\\solidity\\FinnexusOptions_V2\\contracts\\CollateralPool.sol",
  "compiler": {
    "name": "solc",
    "version": "0.4.26+commit.4563c3fc.Emscripten.clang"
  },
  "schemaVersion": "3.1.0",
  "updatedAt": "2020-07-28T14:35:12.719Z",
  "devdoc": {
    "methods": {
      "addWhiteList(address)": {
        "details": "Implementation of add an eligible address into the whitelist.\r",
        "params": {
          "addAddress": "new eligible address.\r"
        }
      },
      "allowance(address,address)": {
        "details": "See {IERC20-allowance}.\r"
      },
      "approve(address,uint256)": {
        "details": "See {IERC20-approve}.\r      * Requirements:\r      * - `spender` cannot be the zero address.\r"
      },
      "balanceOf(address)": {
        "details": "See {IERC20-balanceOf}.\r"
      },
      "decreaseAllowance(address,uint256)": {
        "details": "Atomically decreases the allowance granted to `spender` by the caller.\r      * This is an alternative to {approve} that can be used as a mitigation for\r problems described in {IERC20-approve}.\r      * Emits an {Approval} event indicating the updated allowance.\r      * Requirements:\r      * - `spender` cannot be the zero address.\r - `spender` must have allowance for the caller of at least\r `subtractedValue`.\r"
      },
      "getWhiteList()": {
        "details": "Implementation of getting the eligible whitelist.\r"
      },
      "increaseAllowance(address,uint256)": {
        "details": "Atomically increases the allowance granted to `spender` by the caller.\r      * This is an alternative to {approve} that can be used as a mitigation for\r problems described in {IERC20-approve}.\r      * Emits an {Approval} event indicating the updated allowance.\r      * Requirements:\r      * - `spender` cannot be the zero address.\r"
      },
      "isEligibleAddress(address)": {
        "details": "Implementation of testing whether the input address is eligible.\r",
        "params": {
          "tmpAddress": "input address for testing.\r"
        }
      },
      "isOwner()": {
        "details": "Returns true if the caller is the current owner."
      },
      "owner()": {
        "details": "Returns the address of the current owner."
      },
      "removeWhiteList(address)": {
        "details": "Implementation of revoke an invalid address from the whitelist.\r",
        "params": {
          "removeAddress": "revoked address.\r"
        }
      },
      "renounceOwnership()": {
        "details": "Leaves the contract without owner. It will not be possible to call `onlyOwner` functions anymore. Can only be called by the current owner.     * NOTE: Renouncing ownership will leave the contract without an owner, thereby removing any functionality that is only available to the owner."
      },
      "setTransactionFee(uint256,uint256,uint256)": {
        "details": "set the rate of trasaction fee.\r",
        "params": {
          "denominator": "thedenominator of transaction fee.\r transaction fee = numerator/denominator;\r",
          "feeType": "the transaction fee type\r",
          "numerator": "the numerator of transaction fee .\r"
        }
      },
      "totalSupply()": {
        "details": "See {IERC20-totalSupply}.\r"
      },
      "transfer(address,uint256)": {
        "details": "See {IERC20-transfer}.\r      * Requirements:\r      * - `recipient` cannot be the zero address.\r - the caller must have a balance of at least `amount`.\r"
      },
      "transferFrom(address,address,uint256)": {
        "details": "See {IERC20-transferFrom}.\r      * Emits an {Approval} event indicating the updated allowance. This is not\r required by the EIP. See the note at the beginning of {ERC20};\r      * Requirements:\r - `sender` and `recipient` cannot be the zero address.\r - `sender` must have a balance of at least `amount`.\r - the caller must have allowance for `sender`'s tokens of at least\r `amount`.\r"
      },
      "transferOwnership(address)": {
        "details": "Transfers ownership of the contract to a new account (`newOwner`). Can only be called by the current owner."
      }
    }
  },
  "userdoc": {
    "methods": {
      "setHalt(bool)": {
        "notice": "function Emergency situation that requires contribution period to stop or not."
      },
      "setOperator(address)": {
        "notice": "contribution period to stop or not."
      }
    }
  }
}