{
  "contractName": "CollateralData",
  "abi": [
    {
      "anonymous": false,
      "inputs": [
        {
          "indexed": true,
          "internalType": "address",
          "name": "settlement",
          "type": "address"
        },
        {
          "indexed": false,
          "internalType": "uint256",
          "name": "payback",
          "type": "uint256"
        }
      ],
      "name": "AddFee",
      "type": "event"
    },
    {
      "anonymous": false,
      "inputs": [
        {
          "indexed": true,
          "internalType": "address",
          "name": "previousOwner",
          "type": "address"
        },
        {
          "indexed": true,
          "internalType": "address",
          "name": "newOwner",
          "type": "address"
        }
      ],
      "name": "OwnershipTransferred",
      "type": "event"
    },
    {
      "anonymous": false,
      "inputs": [
        {
          "indexed": true,
          "internalType": "address",
          "name": "recieptor",
          "type": "address"
        },
        {
          "indexed": true,
          "internalType": "address",
          "name": "settlement",
          "type": "address"
        },
        {
          "indexed": false,
          "internalType": "uint256",
          "name": "payback",
          "type": "uint256"
        }
      ],
      "name": "RedeemFee",
      "type": "event"
    },
    {
      "anonymous": false,
      "inputs": [
        {
          "indexed": true,
          "internalType": "address",
          "name": "recieptor",
          "type": "address"
        },
        {
          "indexed": true,
          "internalType": "address",
          "name": "settlement",
          "type": "address"
        },
        {
          "indexed": false,
          "internalType": "uint256",
          "name": "payback",
          "type": "uint256"
        }
      ],
      "name": "TransferPayback",
      "type": "event"
    },
    {
      "constant": false,
      "inputs": [
        {
          "internalType": "address",
          "name": "addAddress",
          "type": "address"
        }
      ],
      "name": "addOperator",
      "outputs": [],
      "payable": false,
      "stateMutability": "nonpayable",
      "type": "function"
    },
    {
      "constant": false,
      "inputs": [
        {
          "internalType": "address",
          "name": "addAddress",
          "type": "address"
        }
      ],
      "name": "addWhiteList",
      "outputs": [],
      "payable": false,
      "stateMutability": "nonpayable",
      "type": "function"
    },
    {
      "constant": true,
      "inputs": [
        {
          "internalType": "address",
          "name": "tmpAddress",
          "type": "address"
        },
        {
          "internalType": "uint256",
          "name": "state",
          "type": "uint256"
        }
      ],
      "name": "checkAddressPermission",
      "outputs": [
        {
          "internalType": "bool",
          "name": "",
          "type": "bool"
        }
      ],
      "payable": false,
      "stateMutability": "view",
      "type": "function"
    },
    {
      "constant": true,
      "inputs": [],
      "name": "getManager",
      "outputs": [
        {
          "internalType": "address",
          "name": "",
          "type": "address"
        }
      ],
      "payable": false,
      "stateMutability": "view",
      "type": "function"
    },
    {
      "constant": true,
      "inputs": [],
      "name": "getOperator",
      "outputs": [
        {
          "internalType": "address[]",
          "name": "",
          "type": "address[]"
        }
      ],
      "payable": false,
      "stateMutability": "view",
      "type": "function"
    },
    {
      "constant": true,
      "inputs": [],
      "name": "getOptionsPoolAddress",
      "outputs": [
        {
          "internalType": "address",
          "name": "",
          "type": "address"
        }
      ],
      "payable": false,
      "stateMutability": "view",
      "type": "function"
    },
    {
      "constant": true,
      "inputs": [],
      "name": "getWhiteList",
      "outputs": [
        {
          "internalType": "address[]",
          "name": "",
          "type": "address[]"
        }
      ],
      "payable": false,
      "stateMutability": "view",
      "type": "function"
    },
    {
      "constant": true,
      "inputs": [
        {
          "internalType": "address",
          "name": "tmpAddress",
          "type": "address"
        }
      ],
      "name": "isEligibleAddress",
      "outputs": [
        {
          "internalType": "bool",
          "name": "",
          "type": "bool"
        }
      ],
      "payable": false,
      "stateMutability": "view",
      "type": "function"
    },
    {
      "constant": true,
      "inputs": [],
      "name": "isOwner",
      "outputs": [
        {
          "internalType": "bool",
          "name": "",
          "type": "bool"
        }
      ],
      "payable": false,
      "stateMutability": "view",
      "type": "function"
    },
    {
      "constant": false,
      "inputs": [
        {
          "internalType": "address",
          "name": "addAddress",
          "type": "address"
        },
        {
          "internalType": "uint256",
          "name": "permission",
          "type": "uint256"
        }
      ],
      "name": "modifyPermission",
      "outputs": [],
      "payable": false,
      "stateMutability": "nonpayable",
      "type": "function"
    },
    {
      "constant": true,
      "inputs": [],
      "name": "owner",
      "outputs": [
        {
          "internalType": "address",
          "name": "",
          "type": "address"
        }
      ],
      "payable": false,
      "stateMutability": "view",
      "type": "function"
    },
    {
      "constant": false,
      "inputs": [
        {
          "internalType": "address",
          "name": "removeAddress",
          "type": "address"
        }
      ],
      "name": "removeOperator",
      "outputs": [
        {
          "internalType": "bool",
          "name": "",
          "type": "bool"
        }
      ],
      "payable": false,
      "stateMutability": "nonpayable",
      "type": "function"
    },
    {
      "constant": false,
      "inputs": [
        {
          "internalType": "address",
          "name": "removeAddress",
          "type": "address"
        }
      ],
      "name": "removeWhiteList",
      "outputs": [
        {
          "internalType": "bool",
          "name": "",
          "type": "bool"
        }
      ],
      "payable": false,
      "stateMutability": "nonpayable",
      "type": "function"
    },
    {
      "constant": false,
      "inputs": [],
      "name": "renounceOwnership",
      "outputs": [],
      "payable": false,
      "stateMutability": "nonpayable",
      "type": "function"
    },
    {
      "constant": false,
      "inputs": [
        {
          "internalType": "bool",
          "name": "halt",
          "type": "bool"
        }
      ],
      "name": "setHalt",
      "outputs": [],
      "payable": false,
      "stateMutability": "nonpayable",
      "type": "function"
    },
    {
      "constant": false,
      "inputs": [
        {
          "internalType": "address",
          "name": "managerAddress",
          "type": "address"
        }
      ],
      "name": "setManager",
      "outputs": [],
      "payable": false,
      "stateMutability": "nonpayable",
      "type": "function"
    },
    {
      "constant": false,
      "inputs": [
        {
          "internalType": "uint256",
          "name": "index",
          "type": "uint256"
        },
        {
          "internalType": "address",
          "name": "addAddress",
          "type": "address"
        }
      ],
      "name": "setOperator",
      "outputs": [],
      "payable": false,
      "stateMutability": "nonpayable",
      "type": "function"
    },
    {
      "constant": false,
      "inputs": [
        {
          "internalType": "address[]",
          "name": "operators",
          "type": "address[]"
        }
      ],
      "name": "setOperators",
      "outputs": [],
      "payable": false,
      "stateMutability": "nonpayable",
      "type": "function"
    },
    {
      "constant": false,
      "inputs": [
        {
          "internalType": "address",
          "name": "optionsPool",
          "type": "address"
        }
      ],
      "name": "setOptionsPoolAddress",
      "outputs": [],
      "payable": false,
      "stateMutability": "nonpayable",
      "type": "function"
    },
    {
      "constant": false,
      "inputs": [
        {
          "internalType": "address",
          "name": "newOwner",
          "type": "address"
        }
      ],
      "name": "transferOwnership",
      "outputs": [],
      "payable": false,
      "stateMutability": "nonpayable",
      "type": "function"
    }
  ],
  "bytecode": "0x6080604081905260008054600160a860020a0319163317808255600160a060020a0316917f8be0079c531659141344cd1fd0a4f28419497f9722a3daafe3b4186f6b6457e0908290a3610f1a806100576000396000f3fe608060405234801561001057600080fd5b5060043610610149576000357c010000000000000000000000000000000000000000000000000000000090048063c040725a116100ca578063e7a1c1c01161008e578063e7a1c1c0146103df578063e7cd4a041461040b578063e7f43c6814610431578063f2fde38b14610439578063f49543871461045f57610149565b8063c040725a146102da578063c219043b146102e2578063d0ebdbe71461030e578063d500958414610334578063ddf71cd51461033c57610149565b8063817bf86d11610111578063817bf86d1461023c5780638da5cb5b146102625780638f32d59b146102865780639870d7fe1461028e578063ac8a584a146102b457610149565b806309a9d76c1461014e5780631a5a3fce146101a65780632042e5c2146101ce5780634cbf630214610208578063715018a614610234575b600080fd5b61015661047e565b60408051602080825283518183015283519192839290830191858101910280838360005b8381101561019257818101518382015260200161017a565b505050509050019250505060405180910390f35b6101cc600480360360208110156101bc57600080fd5b5035600160a060020a03166104e1565b005b6101f4600480360360208110156101e457600080fd5b5035600160a060020a031661054d565b604080519115158252519081900360200190f35b6101f46004803603604081101561021e57600080fd5b50600160a060020a0381351690602001356105c9565b6101cc6105ea565b6101f46004803603602081101561025257600080fd5b5035600160a060020a031661067e565b61026a6106ed565b60408051600160a060020a039092168252519081900360200190f35b6101f46106fc565b6101cc600480360360208110156102a457600080fd5b5035600160a060020a031661070d565b6101f4600480360360208110156102ca57600080fd5b5035600160a060020a031661076b565b61026a6107c8565b6101cc600480360360408110156102f857600080fd5b50600160a060020a0381351690602001356107d7565b6101cc6004803603602081101561032457600080fd5b5035600160a060020a031661083d565b61026a6108a9565b6101cc6004803603602081101561035257600080fd5b81019060208101813564010000000081111561036d57600080fd5b82018360208201111561037f57600080fd5b803590602001918460208302840111640100000000831117156103a157600080fd5b9190808060200260200160405190810160405280939291908181526020018383602002808284376000920191909152509295506108b8945050505050565b6101cc600480360360408110156103f557600080fd5b5080359060200135600160a060020a0316610919565b6101cc6004803603602081101561042157600080fd5b5035600160a060020a03166109a3565b610156610a1e565b6101cc6004803603602081101561044f57600080fd5b5035600160a060020a0316610a7e565b6101cc6004803603602081101561047557600080fd5b50351515610ad1565b606060018054806020026020016040519081016040528092919081815260200182805480156104d657602002820191906000526020600020905b8154600160a060020a031681526001909101906020018083116104b8575b505050505090505b90565b6104e96106fc565b61052b576040805160e560020a62461bcd0281526020600482018190526024820152600080516020610ec6833981519152604482015290519081900360640190fd5b60058054600160a060020a031916600160a060020a0392909216919091179055565b60006105576106fc565b610599576040805160e560020a62461bcd0281526020600482018190526024820152600080516020610ec6833981519152604482015290519081900360640190fd5b600160a060020a0382166000908152600260205260408120556105c360018363ffffffff610b5b16565b92915050565b600160a060020a039190911660009081526002602052604090205481161490565b6105f26106fc565b610634576040805160e560020a62461bcd0281526020600482018190526024820152600080516020610ec6833981519152604482015290519081900360640190fd5b60008054604051600160a060020a03909116907f8be0079c531659141344cd1fd0a4f28419497f9722a3daafe3b4186f6b6457e0908390a360008054600160a060020a0319169055565b60006105c38260018054806020026020016040519081016040528092919081815260200182805480156106da57602002820191906000526020600020905b8154600160a060020a031681526001909101906020018083116106bc575b5050505050610c4990919063ffffffff16565b600054600160a060020a031690565b600054600160a060020a0316331490565b6107156106fc565b610757576040805160e560020a62461bcd0281526020600482018190526024820152600080516020610ec6833981519152604482015290519081900360640190fd5b61076860048263ffffffff610c9816565b50565b60006107756106fc565b6107b7576040805160e560020a62461bcd0281526020600482018190526024820152600080516020610ec6833981519152604482015290519081900360640190fd5b6105c360048363ffffffff610b5b16565b600554600160a060020a031690565b6107df6106fc565b610821576040805160e560020a62461bcd0281526020600482018190526024820152600080516020610ec6833981519152604482015290519081900360640190fd5b600160a060020a03909116600090815260026020526040902055565b6108456106fc565b610887576040805160e560020a62461bcd0281526020600482018190526024820152600080516020610ec6833981519152604482015290519081900360640190fd5b60038054600160a060020a031916600160a060020a0392909216919091179055565b600354600160a060020a031690565b6108c06106fc565b610902576040805160e560020a62461bcd0281526020600482018190526024820152600080516020610ec6833981519152604482015290519081900360640190fd5b8051610915906004906020840190610dd3565b5050565b6109216106fc565b610963576040805160e560020a62461bcd0281526020600482018190526024820152600080516020610ec6833981519152604482015290519081900360640190fd5b806004838154811061097157fe5b9060005260206000200160006101000a815481600160a060020a030219169083600160a060020a031602179055505050565b6109ab6106fc565b6109ed576040805160e560020a62461bcd0281526020600482018190526024820152600080516020610ec6833981519152604482015290519081900360640190fd5b6109fe60018263ffffffff610c9816565b600160a060020a0316600090815260026020526040902063ffffffff9055565b606060048054806020026020016040519081016040528092919081815260200182805480156104d657602002820191906000526020600020908154600160a060020a031681526001909101906020018083116104b8575050505050905090565b610a866106fc565b610ac8576040805160e560020a62461bcd0281526020600482018190526024820152600080516020610ec6833981519152604482015290519081900360640190fd5b61076881610d30565b610ad96106fc565b610b1b576040805160e560020a62461bcd0281526020600482018190526024820152600080516020610ec6833981519152604482015290519081900360640190fd5b60008054911515740100000000000000000000000000000000000000000274ff000000000000000000000000000000000000000019909216919091179055565b8154600090815b81811015610ba85783600160a060020a0316858281548110610b8057fe5b600091825260209091200154600160a060020a03161415610ba057610ba8565b600101610b62565b81811015610c3e57600182038114610c2257846001830381548110610bc957fe5b9060005260206000200160009054906101000a9004600160a060020a0316858281548110610bf357fe5b9060005260206000200160006101000a815481600160a060020a030219169083600160a060020a031602179055505b8454610c32866000198301610e38565b506001925050506105c3565b506000949350505050565b8151600090815b81811015610c3e5783600160a060020a0316858281518110610c6e57fe5b6020026020010151600160a060020a03161415610c90576001925050506105c3565b600101610c50565b610cfb82805480602002602001604051908101604052809291908181526020018280548015610cf057602002820191906000526020600020905b8154600160a060020a03168152600190910190602001808311610cd2575b505050505082610c49565b610915578154600181018355600083815260209020018054600160a060020a038316600160a060020a03199091161790555050565b600160a060020a038116610d785760405160e560020a62461bcd028152600401808060200182810382526026815260200180610ea06026913960400191505060405180910390fd5b60008054604051600160a060020a03808516939216917f8be0079c531659141344cd1fd0a4f28419497f9722a3daafe3b4186f6b6457e091a360008054600160a060020a031916600160a060020a0392909216919091179055565b828054828255906000526020600020908101928215610e28579160200282015b82811115610e285782518254600160a060020a031916600160a060020a03909116178255602090920191600190910190610df3565b50610e34929150610e61565b5090565b815481835581811115610e5c57600083815260209020610e5c918101908301610e85565b505050565b6104de91905b80821115610e34578054600160a060020a0319168155600101610e67565b6104de91905b80821115610e345760008155600101610e8b56fe4f776e61626c653a206e6577206f776e657220697320746865207a65726f20616464726573734f776e61626c653a2063616c6c6572206973206e6f7420746865206f776e6572a265627a7a72315820eba007bdb8cc9e35c7bbb7e9e65eabac3f11de993509f07b01fcee6624a5e45264736f6c63430005100032",
  "source": "pragma solidity =0.5.16;\r\nimport \"../modules/Managerable.sol\";\r\nimport \"../modules/AddressWhiteList.sol\";\r\nimport \"../OptionsPool/IOptionsPool.sol\";\r\nimport \"../modules/Operator.sol\";\r\n/**\r\n * @title collateral pool contract with coin and necessary storage data.\r\n * @dev A smart-contract which stores user's deposited collateral.\r\n *\r\n */\r\ncontract CollateralData is AddressWhiteList,Managerable,Operator,ImportOptionsPool{\r\n    struct fraction{\r\n        uint256 numerator;\r\n        uint256 denominator;\r\n    }\r\n        // The total fees accumulated in the contract\r\n    mapping (address => uint256) \tinternal feeBalances;\r\n    fraction[] internal FeeRates;\r\n     /**\r\n     * @dev Returns the rate of trasaction fee.\r\n     */   \r\n    uint256 constant internal buyFee = 0;\r\n    uint256 constant internal sellFee = 1;\r\n    uint256 constant internal exerciseFee = 2;\r\n    uint256 constant internal addColFee = 3;\r\n    uint256 constant internal redeemColFee = 4;\r\n    event RedeemFee(address indexed recieptor,address indexed settlement,uint256 payback);\r\n    event AddFee(address indexed settlement,uint256 payback);\r\n    event TransferPayback(address indexed recieptor,address indexed settlement,uint256 payback);\r\n\r\n    //token net worth balance\r\n    mapping (address => int256) internal netWorthBalances;\r\n    //total user deposited collateral balance\r\n    // map from collateral address to amount\r\n    mapping (address => uint256) internal collateralBalances;\r\n    //user total paying for collateral, priced in usd;\r\n    mapping (address => uint256) internal userCollateralPaying;\r\n    //user original deposited collateral.\r\n    //map account -> collateral -> amount\r\n    mapping (address => mapping (address => uint256)) internal userInputCollateral;\r\n}",
  "sourcePath": "C:\\work\\solidity\\FinnexusOptions_V2\\contracts\\CollateralPool\\CollateralData.sol",
  "compiler": {
    "name": "solc",
    "version": "0.5.16+commit.9c3226ce.Emscripten.clang"
  },
  "schemaVersion": "3.1.0",
  "updatedAt": "2020-10-21T03:26:50.179Z",
  "devdoc": {
    "details": "A smart-contract which stores user's deposited collateral.  ",
    "methods": {
      "addOperator(address)": {
        "details": "add a new operator by owner.       "
      },
      "addWhiteList(address)": {
        "details": "Implementation of add an eligible address into the whitelist.",
        "params": {
          "addAddress": "new eligible address."
        }
      },
      "getManager()": {
        "details": "get manager address.       "
      },
      "getOperator()": {
        "details": "get all operators.       "
      },
      "getWhiteList()": {
        "details": "Implementation of getting the eligible whitelist."
      },
      "isEligibleAddress(address)": {
        "details": "Implementation of testing whether the input address is eligible.",
        "params": {
          "tmpAddress": "input address for testing."
        }
      },
      "isOwner()": {
        "details": "Returns true if the caller is the current owner."
      },
      "owner()": {
        "details": "Returns the address of the current owner."
      },
      "removeOperator(address)": {
        "details": "remove operator by owner.       "
      },
      "removeWhiteList(address)": {
        "details": "Implementation of revoke an invalid address from the whitelist.",
        "params": {
          "removeAddress": "revoked address."
        }
      },
      "renounceOwnership()": {
        "details": "Leaves the contract without owner. It will not be possible to call `onlyOwner` functions anymore. Can only be called by the current owner.      * NOTE: Renouncing ownership will leave the contract without an owner, thereby removing any functionality that is only available to the owner."
      },
      "setManager(address)": {
        "details": "set manager by owner.       "
      },
      "setOperator(uint256,address)": {
        "details": "modify indexed operator by owner.       "
      },
      "setOperators(address[])": {
        "details": "set all operators by owner.       "
      },
      "transferOwnership(address)": {
        "details": "Transfers ownership of the contract to a new account (`newOwner`). Can only be called by the current owner."
      }
    },
    "title": "collateral pool contract with coin and necessary storage data."
  },
  "userdoc": {
    "methods": {
      "setHalt(bool)": {
        "notice": "function Emergency situation that requires contribution period to stop or not."
      }
    }
  }
}