{
  "contractName": "CollateralCal",
  "abi": [
    {
      "constant": true,
      "inputs": [
        {
          "name": "tmpAddress",
          "type": "address"
        }
      ],
      "name": "checkAddressRedeemOut",
      "outputs": [
        {
          "name": "",
          "type": "bool"
        }
      ],
      "payable": false,
      "stateMutability": "view",
      "type": "function"
    },
    {
      "constant": true,
      "inputs": [],
      "name": "getWhiteList",
      "outputs": [
        {
          "name": "",
          "type": "address[]"
        }
      ],
      "payable": false,
      "stateMutability": "view",
      "type": "function"
    },
    {
      "constant": false,
      "inputs": [
        {
          "name": "collateralPool",
          "type": "address"
        }
      ],
      "name": "setCollateralPoolAddress",
      "outputs": [],
      "payable": false,
      "stateMutability": "nonpayable",
      "type": "function"
    },
    {
      "constant": false,
      "inputs": [
        {
          "name": "optionsPool",
          "type": "address"
        }
      ],
      "name": "setOptionsPoolAddress",
      "outputs": [],
      "payable": false,
      "stateMutability": "nonpayable",
      "type": "function"
    },
    {
      "constant": false,
      "inputs": [
        {
          "name": "removeAddress",
          "type": "address"
        }
      ],
      "name": "removeWhiteList",
      "outputs": [
        {
          "name": "",
          "type": "bool"
        }
      ],
      "payable": false,
      "stateMutability": "nonpayable",
      "type": "function"
    },
    {
      "constant": true,
      "inputs": [],
      "name": "getCollateralPoolAddress",
      "outputs": [
        {
          "name": "",
          "type": "address"
        }
      ],
      "payable": false,
      "stateMutability": "view",
      "type": "function"
    },
    {
      "constant": false,
      "inputs": [],
      "name": "redeemAll",
      "outputs": [],
      "payable": false,
      "stateMutability": "nonpayable",
      "type": "function"
    },
    {
      "constant": true,
      "inputs": [
        {
          "name": "feeType",
          "type": "uint256"
        },
        {
          "name": "amount",
          "type": "uint256"
        }
      ],
      "name": "calculateFee",
      "outputs": [
        {
          "name": "",
          "type": "uint256"
        }
      ],
      "payable": false,
      "stateMutability": "view",
      "type": "function"
    },
    {
      "constant": false,
      "inputs": [
        {
          "name": "oracle",
          "type": "address"
        }
      ],
      "name": "setOracleAddress",
      "outputs": [],
      "payable": false,
      "stateMutability": "nonpayable",
      "type": "function"
    },
    {
      "constant": false,
      "inputs": [],
      "name": "renounceOwnership",
      "outputs": [],
      "payable": false,
      "stateMutability": "nonpayable",
      "type": "function"
    },
    {
      "constant": true,
      "inputs": [
        {
          "name": "tmpAddress",
          "type": "address"
        }
      ],
      "name": "isEligibleAddress",
      "outputs": [
        {
          "name": "",
          "type": "bool"
        }
      ],
      "payable": false,
      "stateMutability": "view",
      "type": "function"
    },
    {
      "constant": true,
      "inputs": [],
      "name": "owner",
      "outputs": [
        {
          "name": "",
          "type": "address"
        }
      ],
      "payable": false,
      "stateMutability": "view",
      "type": "function"
    },
    {
      "constant": true,
      "inputs": [],
      "name": "isOwner",
      "outputs": [
        {
          "name": "",
          "type": "bool"
        }
      ],
      "payable": false,
      "stateMutability": "view",
      "type": "function"
    },
    {
      "constant": false,
      "inputs": [
        {
          "name": "currency",
          "type": "address"
        }
      ],
      "name": "redeem",
      "outputs": [],
      "payable": false,
      "stateMutability": "nonpayable",
      "type": "function"
    },
    {
      "constant": false,
      "inputs": [
        {
          "name": "addAddress",
          "type": "address"
        }
      ],
      "name": "addOperator",
      "outputs": [],
      "payable": false,
      "stateMutability": "nonpayable",
      "type": "function"
    },
    {
      "constant": false,
      "inputs": [
        {
          "name": "removeAddress",
          "type": "address"
        }
      ],
      "name": "removeOperator",
      "outputs": [
        {
          "name": "",
          "type": "bool"
        }
      ],
      "payable": false,
      "stateMutability": "nonpayable",
      "type": "function"
    },
    {
      "constant": true,
      "inputs": [],
      "name": "getOracleAddress",
      "outputs": [
        {
          "name": "",
          "type": "address"
        }
      ],
      "payable": false,
      "stateMutability": "view",
      "type": "function"
    },
    {
      "constant": true,
      "inputs": [
        {
          "name": "tmpAddress",
          "type": "address"
        }
      ],
      "name": "checkAddressPayIn",
      "outputs": [
        {
          "name": "",
          "type": "bool"
        }
      ],
      "payable": false,
      "stateMutability": "view",
      "type": "function"
    },
    {
      "constant": false,
      "inputs": [
        {
          "name": "feeType",
          "type": "uint256"
        },
        {
          "name": "numerator",
          "type": "uint256"
        },
        {
          "name": "denominator",
          "type": "uint256"
        }
      ],
      "name": "setTransactionFee",
      "outputs": [],
      "payable": false,
      "stateMutability": "nonpayable",
      "type": "function"
    },
    {
      "constant": true,
      "inputs": [],
      "name": "getOptionsPoolAddress",
      "outputs": [
        {
          "name": "",
          "type": "address"
        }
      ],
      "payable": false,
      "stateMutability": "view",
      "type": "function"
    },
    {
      "constant": false,
      "inputs": [
        {
          "name": "addAddress",
          "type": "address"
        },
        {
          "name": "permission",
          "type": "uint256"
        }
      ],
      "name": "modifyPermission",
      "outputs": [],
      "payable": false,
      "stateMutability": "nonpayable",
      "type": "function"
    },
    {
      "constant": true,
      "inputs": [
        {
          "name": "settlement",
          "type": "address"
        }
      ],
      "name": "getFeeBalance",
      "outputs": [
        {
          "name": "",
          "type": "uint256"
        }
      ],
      "payable": false,
      "stateMutability": "view",
      "type": "function"
    },
    {
      "constant": true,
      "inputs": [
        {
          "name": "feeType",
          "type": "uint256"
        }
      ],
      "name": "getFeeRate",
      "outputs": [
        {
          "name": "",
          "type": "uint256"
        },
        {
          "name": "",
          "type": "uint256"
        }
      ],
      "payable": false,
      "stateMutability": "view",
      "type": "function"
    },
    {
      "constant": true,
      "inputs": [],
      "name": "getFPTCoinAddress",
      "outputs": [
        {
          "name": "",
          "type": "address"
        }
      ],
      "payable": false,
      "stateMutability": "view",
      "type": "function"
    },
    {
      "constant": false,
      "inputs": [
        {
          "name": "FPTCoinAddr",
          "type": "address"
        }
      ],
      "name": "setFPTCoinAddress",
      "outputs": [],
      "payable": false,
      "stateMutability": "nonpayable",
      "type": "function"
    },
    {
      "constant": false,
      "inputs": [
        {
          "name": "index",
          "type": "uint256"
        },
        {
          "name": "addAddress",
          "type": "address"
        }
      ],
      "name": "setOperator",
      "outputs": [],
      "payable": false,
      "stateMutability": "nonpayable",
      "type": "function"
    },
    {
      "constant": false,
      "inputs": [
        {
          "name": "addAddress",
          "type": "address"
        }
      ],
      "name": "addWhiteList",
      "outputs": [],
      "payable": false,
      "stateMutability": "nonpayable",
      "type": "function"
    },
    {
      "constant": true,
      "inputs": [],
      "name": "getOperator",
      "outputs": [
        {
          "name": "",
          "type": "address[]"
        }
      ],
      "payable": false,
      "stateMutability": "view",
      "type": "function"
    },
    {
      "constant": true,
      "inputs": [],
      "name": "getAllFeeBalances",
      "outputs": [
        {
          "name": "",
          "type": "address[]"
        },
        {
          "name": "",
          "type": "uint256[]"
        }
      ],
      "payable": false,
      "stateMutability": "view",
      "type": "function"
    },
    {
      "constant": false,
      "inputs": [
        {
          "name": "newOwner",
          "type": "address"
        }
      ],
      "name": "transferOwnership",
      "outputs": [],
      "payable": false,
      "stateMutability": "nonpayable",
      "type": "function"
    },
    {
      "constant": false,
      "inputs": [
        {
          "name": "halt",
          "type": "bool"
        }
      ],
      "name": "setHalt",
      "outputs": [],
      "payable": false,
      "stateMutability": "nonpayable",
      "type": "function"
    },
    {
      "anonymous": false,
      "inputs": [
        {
          "indexed": true,
          "name": "from",
          "type": "address"
        },
        {
          "indexed": true,
          "name": "collateral",
          "type": "address"
        },
        {
          "indexed": false,
          "name": "amount",
          "type": "uint256"
        },
        {
          "indexed": false,
          "name": "tokenAmount",
          "type": "uint256"
        }
      ],
      "name": "AddCollateral",
      "type": "event"
    },
    {
      "anonymous": false,
      "inputs": [
        {
          "indexed": true,
          "name": "from",
          "type": "address"
        },
        {
          "indexed": false,
          "name": "collateral",
          "type": "address"
        },
        {
          "indexed": false,
          "name": "allRedeem",
          "type": "uint256"
        }
      ],
      "name": "RedeemCollateral",
      "type": "event"
    },
    {
      "anonymous": false,
      "inputs": [
        {
          "indexed": true,
          "name": "value1",
          "type": "uint256"
        },
        {
          "indexed": true,
          "name": "value2",
          "type": "uint256"
        },
        {
          "indexed": true,
          "name": "value3",
          "type": "uint256"
        }
      ],
      "name": "DebugEvent",
      "type": "event"
    },
    {
      "anonymous": false,
      "inputs": [
        {
          "indexed": true,
          "name": "recieptor",
          "type": "address"
        },
        {
          "indexed": true,
          "name": "settlement",
          "type": "address"
        },
        {
          "indexed": false,
          "name": "payback",
          "type": "uint256"
        }
      ],
      "name": "FeePayback",
      "type": "event"
    },
    {
      "anonymous": false,
      "inputs": [
        {
          "indexed": true,
          "name": "settlement",
          "type": "address"
        },
        {
          "indexed": false,
          "name": "payback",
          "type": "uint256"
        }
      ],
      "name": "AddFee",
      "type": "event"
    },
    {
      "anonymous": false,
      "inputs": [
        {
          "indexed": true,
          "name": "recieptor",
          "type": "address"
        },
        {
          "indexed": true,
          "name": "settlement",
          "type": "address"
        },
        {
          "indexed": false,
          "name": "payback",
          "type": "uint256"
        }
      ],
      "name": "TransferPayback",
      "type": "event"
    },
    {
      "anonymous": false,
      "inputs": [
        {
          "indexed": true,
          "name": "previousOwner",
          "type": "address"
        },
        {
          "indexed": true,
          "name": "newOwner",
          "type": "address"
        }
      ],
      "name": "OwnershipTransferred",
      "type": "event"
    },
    {
      "constant": false,
      "inputs": [
        {
          "name": "settlement",
          "type": "address"
        },
        {
          "name": "amount",
          "type": "uint256"
        }
      ],
      "name": "addNetBalance",
      "outputs": [],
      "payable": true,
      "stateMutability": "payable",
      "type": "function"
    },
    {
      "constant": false,
      "inputs": [
        {
          "name": "numerator",
          "type": "uint256"
        },
        {
          "name": "denominator",
          "type": "uint256"
        }
      ],
      "name": "setCollateralRate",
      "outputs": [],
      "payable": false,
      "stateMutability": "nonpayable",
      "type": "function"
    },
    {
      "constant": true,
      "inputs": [],
      "name": "getCollateralRate",
      "outputs": [
        {
          "name": "",
          "type": "uint256"
        },
        {
          "name": "",
          "type": "uint256"
        }
      ],
      "payable": false,
      "stateMutability": "view",
      "type": "function"
    },
    {
      "constant": true,
      "inputs": [
        {
          "name": "user",
          "type": "address"
        }
      ],
      "name": "getUserPayingUsd",
      "outputs": [
        {
          "name": "",
          "type": "uint256"
        }
      ],
      "payable": false,
      "stateMutability": "view",
      "type": "function"
    },
    {
      "constant": true,
      "inputs": [
        {
          "name": "user",
          "type": "address"
        },
        {
          "name": "collateral",
          "type": "address"
        }
      ],
      "name": "userInputCollateral",
      "outputs": [
        {
          "name": "",
          "type": "uint256"
        }
      ],
      "payable": false,
      "stateMutability": "view",
      "type": "function"
    },
    {
      "constant": false,
      "inputs": [
        {
          "name": "calInfo",
          "type": "uint256"
        }
      ],
      "name": "setPhaseSharedPayment",
      "outputs": [],
      "payable": false,
      "stateMutability": "nonpayable",
      "type": "function"
    },
    {
      "constant": false,
      "inputs": [
        {
          "name": "calInfo",
          "type": "uint256"
        },
        {
          "name": "sharedBalances",
          "type": "int256[]"
        },
        {
          "name": "prices",
          "type": "uint256[]"
        },
        {
          "name": "firstOption",
          "type": "uint256"
        },
        {
          "name": "calTime",
          "type": "uint256"
        }
      ],
      "name": "setSharedPayment",
      "outputs": [],
      "payable": false,
      "stateMutability": "nonpayable",
      "type": "function"
    },
    {
      "constant": true,
      "inputs": [
        {
          "name": "account",
          "type": "address"
        }
      ],
      "name": "getUserTotalWorth",
      "outputs": [
        {
          "name": "",
          "type": "uint256"
        }
      ],
      "payable": false,
      "stateMutability": "view",
      "type": "function"
    },
    {
      "constant": true,
      "inputs": [],
      "name": "getTokenNetworth",
      "outputs": [
        {
          "name": "",
          "type": "uint256"
        }
      ],
      "payable": false,
      "stateMutability": "view",
      "type": "function"
    },
    {
      "constant": false,
      "inputs": [
        {
          "name": "collateral",
          "type": "address"
        },
        {
          "name": "amount",
          "type": "uint256"
        }
      ],
      "name": "addCollateral",
      "outputs": [],
      "payable": true,
      "stateMutability": "payable",
      "type": "function"
    },
    {
      "constant": false,
      "inputs": [
        {
          "name": "tokenAmount",
          "type": "uint256"
        },
        {
          "name": "collateral",
          "type": "address"
        }
      ],
      "name": "redeemCollateral",
      "outputs": [],
      "payable": false,
      "stateMutability": "nonpayable",
      "type": "function"
    },
    {
      "constant": true,
      "inputs": [
        {
          "name": "account",
          "type": "address"
        }
      ],
      "name": "calCollateralWorth",
      "outputs": [
        {
          "name": "",
          "type": "uint256[]"
        }
      ],
      "payable": false,
      "stateMutability": "view",
      "type": "function"
    },
    {
      "constant": true,
      "inputs": [],
      "name": "getOccupiedCollateral",
      "outputs": [
        {
          "name": "",
          "type": "uint256"
        }
      ],
      "payable": false,
      "stateMutability": "view",
      "type": "function"
    },
    {
      "constant": true,
      "inputs": [],
      "name": "getAvailableCollateral",
      "outputs": [
        {
          "name": "",
          "type": "uint256"
        }
      ],
      "payable": false,
      "stateMutability": "view",
      "type": "function"
    },
    {
      "constant": true,
      "inputs": [],
      "name": "getLeftCollateral",
      "outputs": [
        {
          "name": "",
          "type": "uint256"
        }
      ],
      "payable": false,
      "stateMutability": "view",
      "type": "function"
    },
    {
      "constant": true,
      "inputs": [],
      "name": "getUnlockedCollateral",
      "outputs": [
        {
          "name": "",
          "type": "uint256"
        }
      ],
      "payable": false,
      "stateMutability": "view",
      "type": "function"
    },
    {
      "constant": true,
      "inputs": [
        {
          "name": "strikePrice",
          "type": "uint256"
        },
        {
          "name": "underlyingPrice",
          "type": "uint256"
        },
        {
          "name": "amount",
          "type": "uint256"
        },
        {
          "name": "optType",
          "type": "uint8"
        }
      ],
      "name": "calOptionsOccupied",
      "outputs": [
        {
          "name": "",
          "type": "uint256"
        }
      ],
      "payable": false,
      "stateMutability": "view",
      "type": "function"
    },
    {
      "constant": true,
      "inputs": [],
      "name": "getTotalCollateral",
      "outputs": [
        {
          "name": "",
          "type": "uint256"
        }
      ],
      "payable": false,
      "stateMutability": "view",
      "type": "function"
    }
  ],
  "bytecode": "0x6000805460c0604081905260056080819052600160a0819052600a91909155600b55600160b060020a031990911661010033810291909117808455600160a060020a039190041691907f8be0079c531659141344cd1fd0a4f28419497f9722a3daafe3b4186f6b6457e0908290a360408051808201825260008082526103e860208084018281526004805460018181018355828752965160029182027f8a35acfbc15ff81a39ae7d344fd709f28e8600b4aa8c65c6b64bfe7fe36bd19b8181019290925593517f8a35acfbc15ff81a39ae7d344fd709f28e8600b4aa8c65c6b64bfe7fe36bd19c948501558851808a018a52603281528086018781528454808b018655858a5291519184028084019290925551908501558851808a018a528781528086018781528454808b018655858a5291519184028084019290925551908501558851808a018a528781528086018781528454808b018655858a5291519184028084019290925551908501558851808a01909952868952938801948552815496870182559452945193909202918201929092559051910155614558806101a76000396000f3006080604052600436106102375763ffffffff60e060020a600035041663059621d7811461023c57806309a9d76c146102715780630aaf3832146102d65780631730b3cb146102fd5780631a5a3fce146103205780632042e5c214610341578063251e2fe3146103625780632f4350c21461039357806332c82a5f146103a857806334e73122146103cc57806342049a72146103e7578063447dbeac146104085780634c69c00f146104295780636d75b9ee1461044a578063715018a614610461578063817bf86d14610476578063852185fc146104975780638691a8c5146104c55780638da5cb5b146104dc5780638f32d59b146104f157806395a2251f146105065780639870d7fe14610527578063a04115f614610548578063a20a804514610560578063a56ea40314610584578063ac8a584a146105a5578063b18b78dd146105c6578063b4d5a9c7146105db578063bdac4bf614610602578063bf36b11014610623578063c040725a14610641578063c219043b14610656578063c5e5a3ed1461067a578063c78f68031461068f578063c7e2f8bd146106b0578063cd4058191461074c578063d2aaef4e14610761578063d6eb591014610779578063d7e579921461078e578063dab55129146107a3578063e28a327d146107b8578063e7122ffd146107cd578063e7a1c1c0146107ee578063e7cd4a0414610812578063e7f43c6814610833578063ef63e1f714610848578063f20568cd14610863578063f2fde38b14610911578063f495438714610932575b600080fd5b34801561024857600080fd5b5061025d600160a060020a036004351661094c565b604080519115158252519081900360200190f35b34801561027d57600080fd5b50610286610984565b60408051602080825283518183015283519192839290830191858101910280838360005b838110156102c25781810151838201526020016102aa565b505050509050019250505060405180910390f35b3480156102e257600080fd5b506102eb6109e7565b60408051918252519081900360200190f35b34801561030957600080fd5b5061031e600160a060020a0360043516610a06565b005b34801561032c57600080fd5b5061031e600160a060020a0360043516610a81565b34801561034d57600080fd5b5061025d600160a060020a0360043516610afc565b34801561036e57600080fd5b50610377610b55565b60408051600160a060020a039092168252519081900360200190f35b34801561039f57600080fd5b5061031e610b64565b3480156103b457600080fd5b506102eb60043560243560443560ff60643516610bf7565b3480156103d857600080fd5b506102eb600435602435610c45565b3480156103f357600080fd5b506102eb600160a060020a0360043516610c8c565b34801561041457600080fd5b506102eb600160a060020a0360043516610d29565b34801561043557600080fd5b5061031e600160a060020a0360043516610e79565b61031e600160a060020a0360043516602435610ef4565b34801561046d57600080fd5b5061031e6113d5565b34801561048257600080fd5b5061025d600160a060020a036004351661147d565b3480156104a357600080fd5b506104ac6114e3565b6040805192835260208301919091528051918290030190f35b61031e600160a060020a03600435166024356114ed565b3480156104e857600080fd5b50610377611637565b3480156104fd57600080fd5b5061025d61164b565b34801561051257600080fd5b5061031e600160a060020a0360043516611661565b34801561053357600080fd5b5061031e600160a060020a0360043516611851565b34801561055457600080fd5b5061031e6004356118a8565b34801561056c57600080fd5b5061031e600435600160a060020a0360243516611cbe565b34801561059057600080fd5b50610286600160a060020a0360043516612066565b3480156105b157600080fd5b5061025d600160a060020a036004351661212c565b3480156105d257600080fd5b50610377612185565b3480156105e757600080fd5b506102eb600160a060020a0360043581169060243516612194565b34801561060e57600080fd5b5061025d600160a060020a036004351661223a565b34801561062f57600080fd5b5061031e60043560243560443561226e565b34801561064d57600080fd5b506103776122d2565b34801561066257600080fd5b5061031e600160a060020a03600435166024356122e1565b34801561068657600080fd5b506102eb612349565b34801561069b57600080fd5b506102eb600160a060020a03600435166123fa565b3480156106bc57600080fd5b5060408051602060046024803582810135848102808701860190975280865261031e96843596369660449591949091019291829185019084908082843750506040805187358901803560208181028481018201909552818452989b9a9989019892975090820195509350839250850190849080828437509497505084359550505060209092013591506124159050565b34801561075857600080fd5b506102eb61272b565b34801561076d57600080fd5b506104ac6004356127be565b34801561078557600080fd5b506102eb6127df565b34801561079a57600080fd5b50610377612979565b3480156107af57600080fd5b506102eb612988565b3480156107c457600080fd5b506102eb612a19565b3480156107d957600080fd5b5061031e600160a060020a0360043516612a26565b3480156107fa57600080fd5b5061031e600435600160a060020a0360243516612aa1565b34801561081e57600080fd5b5061031e600160a060020a0360043516612b2f565b34801561083f57600080fd5b50610286612ba6565b34801561085457600080fd5b5061031e600435602435612c06565b34801561086f57600080fd5b50610878612c5d565b604051808060200180602001838103835285818151815260200191508051906020019060200280838360005b838110156108bc5781810151838201526020016108a4565b50505050905001838103825284818151815260200191508051906020019060200280838360005b838110156108fb5781810151838201526020016108e3565b5050505090500194505050505060405180910390f35b34801561091d57600080fd5b5061031e600160a060020a0360043516612d66565b34801561093e57600080fd5b5061031e6004351515612dbb565b60006109578261147d565b801561097e5750600160a060020a0382166000908152600260208190526040909120548116145b92915050565b606060018054806020026020016040519081016040528092919081815260200182805480156109dc57602002820191906000526020600020905b8154600160a060020a031681526001909101906020018083116109be575b505050505090505b90565b6000610a016109f46127df565b6109fc61272b565b612e49565b905090565b610a0e61164b565b1515610a52576040805160e560020a62461bcd028152602060048201819052602482015260008051602061450d833981519152604482015290519081900360640190fd5b6008805473ffffffffffffffffffffffffffffffffffffffff1916600160a060020a0392909216919091179055565b610a8961164b565b1515610acd576040805160e560020a62461bcd028152602060048201819052602482015260008051602061450d833981519152604482015290519081900360640190fd5b6007805473ffffffffffffffffffffffffffffffffffffffff1916600160a060020a0392909216919091179055565b6000610b0661164b565b1515610b4a576040805160e560020a62461bcd028152602060048201819052602482015260008051602061450d833981519152604482015290519081900360640190fd5b61097e600183612e64565b600854600160a060020a031690565b6000610b6e61164b565b1515610bb2576040805160e560020a62461bcd028152602060048201819052602482015260008051602061450d833981519152604482015290519081900360640190fd5b5060005b600154811015610bf457610bec600182815481101515610bd257fe5b600091825260209091200154600160a060020a0316611661565b600101610bb6565b50565b60008060ff8316158587111415610c1f57610c18868563ffffffff612f5116565b9050610c32565b610c2f858563ffffffff612f5116565b90505b610c3b81612ffb565b9695505050505050565b6000806000610c538561302a565b8054909250610c68908563ffffffff612f5116565b9050610c818260010154826130a990919063ffffffff16565b92505b505092915050565b600854604080517f42049a72000000000000000000000000000000000000000000000000000000008152600160a060020a038481166004830152915160009392909216916342049a729160248082019260209290919082900301818787803b158015610cf757600080fd5b505af1158015610d0b573d6000803e3d6000fd5b505050506040513d6020811015610d2157600080fd5b505192915050565b600554604080517f07e77aa0000000000000000000000000000000000000000000000000000000008152600160a060020a038481166004830152915160009361097e9316916307e77aa091602480830192602092919082900301818887803b158015610d9457600080fd5b505af1158015610da8573d6000803e3d6000fd5b505050506040513d6020811015610dbe57600080fd5b5051600554604080517f70a08231000000000000000000000000000000000000000000000000000000008152600160a060020a0387811660048301529151610e6d9392909216916370a08231916024808201926020929091908290030181600087803b158015610e2d57600080fd5b505af1158015610e41573d6000803e3d6000fd5b505050506040513d6020811015610e5757600080fd5b5051610e61612349565b9063ffffffff612f5116565b9063ffffffff6130eb16565b610e8161164b565b1515610ec5576040805160e560020a62461bcd028152602060048201819052602482015260008051602061450d833981519152604482015290519081900360640190fd5b6006805473ffffffffffffffffffffffffffffffffffffffff1916600160a060020a0392909216919091179055565b6000805481908190819060ff1615610f0b57600080fd5b6000805460ff1916600117908190557501000000000000000000000000000000000000000000900460ff1615610f8b576040805160e560020a62461bcd02815260206004820152601760248201527f5468697320636f6e74726163742069732068616c746564000000000000000000604482015290519081900360640190fd5b610f958686613148565b945060008511610fef576040805160e560020a62461bcd02815260206004820152601a60248201527f736574746c656d656e7420616d6f756e74206973207a65726f21000000000000604482015290519081900360640190fd5b610ffa600386610c45565b93506110068685613351565b611016858563ffffffff6133da16565b600654604080517f41976e09000000000000000000000000000000000000000000000000000000008152600160a060020a038a8116600483015291519398509116916341976e09916024808201926020929091908290030181600087803b15801561108057600080fd5b505af1158015611094573d6000803e3d6000fd5b505050506040513d60208110156110aa57600080fd5b505192506110be838663ffffffff612f5116565b91506110d86110cb612349565b839063ffffffff6130a916565b600854604080517f692a76a7000000000000000000000000000000000000000000000000000000008152336004820152602481018690529051929350600160a060020a039091169163692a76a79160448082019260009290919082900301818387803b15801561114757600080fd5b505af115801561115b573d6000803e3d6000fd5b5050600854604080517f2b2d50c3000000000000000000000000000000000000000000000000000000008152600160a060020a038b81166004830152602482018b90529151919092169350632b2d50c39250604480830192600092919082900301818387803b1580156111cd57600080fd5b505af11580156111e1573d6000803e3d6000fd5b5050600854604080517fd56dbe88000000000000000000000000000000000000000000000000000000008152336004820152600160a060020a038b81166024830152604482018b9052915191909216935063d56dbe889250606480830192600092919082900301818387803b15801561125957600080fd5b505af115801561126d573d6000803e3d6000fd5b5050600854604080517f7b064052000000000000000000000000000000000000000000000000000000008152600160a060020a038b81166004830152602482018b90529151919092169350637b0640529250604480830192600092919082900301818387803b1580156112df57600080fd5b505af11580156112f3573d6000803e3d6000fd5b505060408051888152602081018590528151600160a060020a038b1694503393507f33a089d94f9a0b7d0fe21e69b40d7dbe1965be652c7382cc778d46963db8c49b929181900390910190a3600554604080517f40c10f19000000000000000000000000000000000000000000000000000000008152336004820152602481018490529051600160a060020a03909216916340c10f199160448082019260009290919082900301818387803b1580156113ab57600080fd5b505af11580156113bf573d6000803e3d6000fd5b50506000805460ff191690555050505050505050565b6113dd61164b565b1515611421576040805160e560020a62461bcd028152602060048201819052602482015260008051602061450d833981519152604482015290519081900360640190fd5b60008054604051610100909104600160a060020a0316907f8be0079c531659141344cd1fd0a4f28419497f9722a3daafe3b4186f6b6457e0908390a36000805474ffffffffffffffffffffffffffffffffffffffff0019169055565b600061097e60018054806020026020016040519081016040528092919081815260200182805480156114d857602002820191906000526020600020905b8154600160a060020a031681526001909101906020018083116114ba575b50505050508361341c565b600a54600b549091565b600954600190811080156115245750600980543391908390811061150d57fe5b600091825260209091200154600160a060020a0316145b15156115a0576040805160e560020a62461bcd02815260206004820152603060248201527f4d616e6167657261626c653a2063616c6c6572206973206e6f7420746865206560448201527f6c696769626c65204f70657261746f7200000000000000000000000000000000606482015290519081900360840190fd5b6115aa8383613148565b600854604080517f7b064052000000000000000000000000000000000000000000000000000000008152600160a060020a038781166004830152602482018590529151939550911691637b0640529160448082019260009290919082900301818387803b15801561161a57600080fd5b505af115801561162e573d6000803e3d6000fd5b50505050505050565b6000546101009004600160a060020a031690565b6000546101009004600160a060020a0316331490565b60008061166c61164b565b15156116b0576040805160e560020a62461bcd028152602060048201819052602482015260008051602061450d833981519152604482015290519081900360640190fd5b600160a060020a03831660009081526003602052604081205492508211611721576040805160e560020a62461bcd02815260206004820152601260248201527f4974277320656d7074792062616c616e63650000000000000000000000000000604482015290519081900360640190fd5b600160a060020a038316600081815260036020526040812055151561177357604051339083156108fc029084906000818181858888f1935050505015801561176d573d6000803e3d6000fd5b5061180c565b50604080517fa9059cbb0000000000000000000000000000000000000000000000000000000081523360048201526024810183905290518391600160a060020a0383169163a9059cbb916044808201926020929091908290030181600087803b1580156117df57600080fd5b505af11580156117f3573d6000803e3d6000fd5b505050506040513d602081101561180957600080fd5b50505b604080518381529051600160a060020a0385169133917f747147be90b2a81a2e929994a92cd7bb71396bdbfd02f181867c81187d4f79449181900360200190a3505050565b61185961164b565b151561189d576040805160e560020a62461bcd028152602060048201819052602482015260008051602061450d833981519152604482015290519081900360640190fd5b610bf460098261346d565b6060600080606080600080806009805490501180156118ea575060098054339190839081106118d357fe5b600091825260209091200154600160a060020a0316145b1515611966576040805160e560020a62461bcd02815260206004820152603060248201527f4d616e6167657261626c653a2063616c6c6572206973206e6f7420746865206560448201527f6c696769626c65204f70657261746f7200000000000000000000000000000000606482015290519081900360840190fd5b600754604080517faf70df12000000000000000000000000000000000000000000000000000000008152600481018b8152602482019283526001805460448401819052600160a060020a039095169463af70df12948e949293929091606490910190849080156119ff57602002820191906000526020600020905b8154600160a060020a031681526001909101906020018083116119e1575b50509350505050600060405180830381600087803b158015611a2057600080fd5b505af1158015611a34573d6000803e3d6000fd5b505050506040513d6000823e601f3d908101601f191682016040526060811015611a5d57600080fd5b810190808051640100000000811115611a7557600080fd5b82016020810184811115611a8857600080fd5b8151856020820283011164010000000082111715611aa557600080fd5b50506020820151604090920151909a5090985096505085159050611cb457600754604080517fe5081c40000000000000000000000000000000000000000000000000000000008152600481018b8152602482019283526001805460448401819052600160a060020a039095169463e5081c40948e94929392909160649091019084908015611b5c57602002820191906000526020600020905b8154600160a060020a03168152600190910190602001808311611b3e575b50509350505050600060405180830381600087803b158015611b7d57600080fd5b505af1158015611b91573d6000803e3d6000fd5b505050506040513d6000823e601f3d908101601f191682016040908152811015611bba57600080fd5b810190808051640100000000811115611bd257600080fd5b82016020810184811115611be557600080fd5b8151856020820283011164010000000082111715611c0257600080fd5b50509291906020018051640100000000811115611c1e57600080fd5b82016020810184811115611c3157600080fd5b8151856020820283011164010000000082111715611c4e57600080fd5b50949850965060009550505050505b8351821015611ca7578682815181101515611c7457fe5b906020019060200201518483815181101515611c8c57fe5b60209081029091010180519091019052600190910190611c5d565b611cb48885858942612415565b5050505050505050565b6000805481908190819081908190819060ff1615611cdb57600080fd5b6000805460ff1916600117908190557501000000000000000000000000000000000000000000900460ff1615611d5b576040805160e560020a62461bcd02815260206004820152601760248201527f5468697320636f6e74726163742069732068616c746564000000000000000000604482015290519081900360640190fd5b611d648861094c565b1515611dba576040805160e560020a62461bcd02815260206004820152601f60248201527f736574746c656d656e7420697320756e737570706f7274656420746f6b656e00604482015290519081900360640190fd5b600554604080517f593557360000000000000000000000000000000000000000000000000000000081523360048201529051600160a060020a03909216916359355736916024808201926020929091908290030181600087803b158015611e2057600080fd5b505af1158015611e34573d6000803e3d6000fd5b505050506040513d6020811015611e4a57600080fd5b5051600554604080517f70a0823100000000000000000000000000000000000000000000000000000000815233600482015290519299508b928a92600160a060020a0316916370a082319160248083019260209291908290030181600087803b158015611eb657600080fd5b505af1158015611eca573d6000803e3d6000fd5b505050506040513d6020811015611ee057600080fd5b5051011015611f39576040805160e560020a62461bcd02815260206004820152601e60248201527f53436f696e2062616c616e636520697320696e73756666696369656e74210000604482015290519081900360640190fd5b881515611f4557612051565b611f4e33610d29565b9550611f586109e7565b9450611f648986613514565b99039860009450925083891115611fb85782850394506000871115611f9857868911611f91576000611f95565b8689035b98505b611fa289866136ed565b915091506000821115611fb85781935080830192505b611fc38884886137f4565b600084111561205157600554604080517f9dc29fac000000000000000000000000000000000000000000000000000000008152336004820152602481018790529051600160a060020a0390921691639dc29fac9160448082019260009290919082900301818387803b15801561203857600080fd5b505af115801561204c573d6000803e3d6000fd5b505050505b50506000805460ff1916905550505050505050565b6060600060608060008061207987610d29565b94506120aa876001600081548110151561208f57fe5b600091825260209091200154600160a060020a03168761392b565b5060015491955093509150600090505b818110156121215761210183828151811015156120d357fe5b9060200190602002015185838151811015156120eb57fe5b602090810290910101519063ffffffff6130eb16565b848281518110151561210f57fe5b602090810290910101526001016120ba565b509195945050505050565b600061213661164b565b151561217a576040805160e560020a62461bcd028152602060048201819052602482015260008051602061450d833981519152604482015290519081900360640190fd5b61097e600983612e64565b600654600160a060020a031690565b600854604080517fb4d5a9c7000000000000000000000000000000000000000000000000000000008152600160a060020a03858116600483015284811660248301529151600093929092169163b4d5a9c79160448082019260209290919082900301818787803b15801561220757600080fd5b505af115801561221b573d6000803e3d6000fd5b505050506040513d602081101561223157600080fd5b50909392505050565b60006122458261147d565b801561097e575050600160a060020a031660009081526002602052604090205460019081161490565b600061227861164b565b15156122bc576040805160e560020a62461bcd028152602060048201819052602482015260008051602061450d833981519152604482015290519081900360640190fd5b6122c58461302a565b9283555060019091015550565b600754600160a060020a031690565b6122e961164b565b151561232d576040805160e560020a62461bcd028152602060048201819052602482015260008051602061450d833981519152604482015290519081900360640190fd5b600160a060020a03909116600090815260026020526040902055565b600080600560009054906101000a9004600160a060020a0316600160a060020a03166318160ddd6040518163ffffffff1660e060020a028152600401602060405180830381600087803b15801561239f57600080fd5b505af11580156123b3573d6000803e3d6000fd5b505050506040513d60208110156123c957600080fd5b505190508015156123e0576305f5e10091506123f6565b806123e9612988565b8115156123f257fe5b0491505b5090565b600160a060020a031660009081526003602052604090205490565b6000806000806009805490501180156124515750600980543391908390811061243a57fe5b600091825260209091200154600160a060020a0316145b15156124cd576040805160e560020a62461bcd02815260206004820152603060248201527f4d616e6167657261626c653a2063616c6c6572206973206e6f7420746865206560448201527f6c696769626c65204f70657261746f7200000000000000000000000000000000606482015290519081900360840190fd5b6007546040517f8ff239e6000000000000000000000000000000000000000000000000000000008152600481018a81526024820188905260648201879052608060448301908152895160848401528951600160a060020a0390941693638ff239e6938d938b938d938c9360a401906020808701910280838360005b83811015612560578181015183820152602001612548565b5050505090500195505050505050600060405180830381600087803b15801561258857600080fd5b505af115801561259c573d6000803e3d6000fd5b50505050600092505b8651831015611cb45760018054849081106125bc57fe5b60009182526020822001548851600160a060020a0390911693508890859081106125e257fe5b602090810290910101511261268f576008548751600160a060020a0390911690637b0640529084908a908790811061261657fe5b906020019060200201516040518363ffffffff1660e060020a0281526004018083600160a060020a0316600160a060020a0316815260200182815260200192505050600060405180830381600087803b15801561267257600080fd5b505af1158015612686573d6000803e3d6000fd5b50505050612720565b6008548751600160a060020a039091169063a337f4509084908a90879081106126b457fe5b602090810290910101516040805160e060020a63ffffffff8616028152600160a060020a039093166004840152600091820360248401525160448084019382900301818387803b15801561270757600080fd5b505af115801561271b573d6000803e3d6000fd5b505050505b6001909201916125a5565b600080600760009054906101000a9004600160a060020a0316600160a060020a03166373a3d4246040518163ffffffff1660e060020a028152600401602060405180830381600087803b15801561278157600080fd5b505af1158015612795573d6000803e3d6000fd5b505050506040513d60208110156127ab57600080fd5b505190506127b881612ffb565b91505090565b60008060006127cc8461302a565b8054600190910154909590945092505050565b60015460009081908180805b8383101561296f57600180548490811061280157fe5b6000918252602080832090910154600654604080517f41976e09000000000000000000000000000000000000000000000000000000008152600160a060020a0393841660048201819052915191975091909216936341976e099360248084019491939192918390030190829087803b15801561287c57600080fd5b505af1158015612890573d6000803e3d6000fd5b505050506040513d60208110156128a657600080fd5b5051600854604080517f6b6ecea8000000000000000000000000000000000000000000000000000000008152600160a060020a038681166004830152915193945061296293612955939290921691636b6ecea8916024808201926020929091908290030181600087803b15801561291c57600080fd5b505af1158015612930573d6000803e3d6000fd5b505050506040513d602081101561294657600080fd5b5051839063ffffffff612f5116565b869063ffffffff6130eb16565b94506001909201916127eb565b5092949350505050565b600554600160a060020a031690565b6000610a016129956127df565b600560009054906101000a9004600160a060020a0316600160a060020a031663dad3eb746040518163ffffffff1660e060020a028152600401602060405180830381600087803b1580156129e857600080fd5b505af11580156129fc573d6000803e3d6000fd5b505050506040513d6020811015612a1257600080fd5b5051612e49565b6000610a016109f4612988565b612a2e61164b565b1515612a72576040805160e560020a62461bcd028152602060048201819052602482015260008051602061450d833981519152604482015290519081900360640190fd5b6005805473ffffffffffffffffffffffffffffffffffffffff1916600160a060020a0392909216919091179055565b612aa961164b565b1515612aed576040805160e560020a62461bcd028152602060048201819052602482015260008051602061450d833981519152604482015290519081900360640190fd5b80600983815481101515612afd57fe5b9060005260206000200160006101000a815481600160a060020a030219169083600160a060020a031602179055505050565b612b3761164b565b1515612b7b576040805160e560020a62461bcd028152602060048201819052602482015260008051602061450d833981519152604482015290519081900360640190fd5b612b8660018261346d565b600160a060020a0316600090815260026020526040902063ffffffff9055565b606060098054806020026020016040519081016040528092919081815260200182805480156109dc57602002820191906000526020600020908154600160a060020a031681526001909101906020018083116109be575050505050905090565b612c0e61164b565b1515612c52576040805160e560020a62461bcd028152602060048201819052602482015260008051602061450d833981519152604482015290519081900360640190fd5b600a91909155600b55565b60608060606000600180549050604051908082528060200260200182016040528015612c93578160200160208202803883390190505b509150600090505b600154811015612cfd5760036000600183815481101515612cb857fe5b6000918252602080832090910154600160a060020a031683528201929092526040019020548251839083908110612ceb57fe5b60209081029091010152600101612c9b565b60018281805480602002602001604051908101604052809291908181526020018280548015612d5557602002820191906000526020600020905b8154600160a060020a03168152600190910190602001808311612d37575b505050505091509350935050509091565b612d6e61164b565b1515612db2576040805160e560020a62461bcd028152602060048201819052602482015260008051602061450d833981519152604482015290519081900360640190fd5b610bf481613cce565b612dc361164b565b1515612e07576040805160e560020a62461bcd028152602060048201819052602482015260008051602061450d833981519152604482015290519081900360640190fd5b6000805491151575010000000000000000000000000000000000000000000275ff00000000000000000000000000000000000000000019909216919091179055565b6000818311612e59576000612e5d565b8183035b9392505050565b8154600090815b81811015612eb35783600160a060020a03168582815481101515612e8b57fe5b600091825260209091200154600160a060020a03161415612eab57612eb3565b600101612e6b565b81811015612f465760001982018114612f2c578460018303815481101515612ed757fe5b6000918252602090912001548554600160a060020a0390911690869083908110612efd57fe5b9060005260206000200160006101000a815481600160a060020a030219169083600160a060020a031602179055505b8454612f3c8660001983016144c9565b5060019250610c84565b506000949350505050565b600080831515612f645760009150612ff4565b50828202828482811515612f7457fe5b0414612ff0576040805160e560020a62461bcd02815260206004820152602160248201527f536166654d6174683a206d756c7469706c69636174696f6e206f766572666c6f60448201527f7700000000000000000000000000000000000000000000000000000000000000606482015290519081900360840190fd5b8091505b5092915050565b600a546000908190613013908463ffffffff612f5116565b600b54909150612e5d90829063ffffffff6130a916565b6004546000908210613086576040805160e560020a62461bcd02815260206004820152601260248201527f66656520747970652069732076616c6964210000000000000000000000000000604482015290519081900360640190fd5b600480548390811061309457fe5b90600052602060002090600202019050919050565b6000612e5d83836040805190810160405280601a81526020017f536166654d6174683a206469766973696f6e206279207a65726f000000000000815250613dc7565b600082820183811015612ff0576040805160e560020a62461bcd02815260206004820152601b60248201527f536166654d6174683a206164646974696f6e206f766572666c6f770000000000604482015290519081900360640190fd5b60008060006131568561223a565b15156131ac576040805160e560020a62461bcd02815260206004820152601f60248201527f736574746c656d656e7420697320756e737570706f7274656420746f6b656e00604482015290519081900360640190fd5b60009150600160a060020a038516151561320357600854604051349350600160a060020a039091169083156108fc029084906000818181858888f193505050501580156131fd573d6000803e3d6000fd5b50613349565b60008411156133495750604080517f23b872dd0000000000000000000000000000000000000000000000000000000081523360048201523060248201526044810185905290518591600160a060020a038316916323b872dd916064808201926020929091908290030181600087803b15801561327e57600080fd5b505af1158015613292573d6000803e3d6000fd5b505050506040513d60208110156132a857600080fd5b5050600854604080517fa9059cbb000000000000000000000000000000000000000000000000000000008152600160a060020a0392831660048201526024810187905290518694509183169163a9059cbb916044808201926020929091908290030181600087803b15801561331c57600080fd5b505af1158015613330573d6000803e3d6000fd5b505050506040513d602081101561334657600080fd5b50505b509392505050565b60008111156133d657600160a060020a038216600090815260036020526040902054613383908263ffffffff6130eb16565b600160a060020a038316600081815260036020908152604091829020939093558051848152905191927f1104eee7f034069140a0655d153038cedf9e65e5724018c555a8d56cfb6bee7792918290030190a25b5050565b6000612e5d83836040805190810160405280601e81526020017f536166654d6174683a207375627472616374696f6e206f766572666c6f770000815250613e6f565b8151600090815b81811015612f465783600160a060020a0316858281518110151561344357fe5b90602001906020020151600160a060020a031614156134655760019250610c84565b600101613423565b6134d0828054806020026020016040519081016040528092919081815260200182805480156134c557602002820191906000526020600020905b8154600160a060020a031681526001909101906020018083116134a7575b50505050508261341c565b15156133d6578154600181018355600083815260209020018054600160a060020a03831673ffffffffffffffffffffffffffffffffffffffff199091161790555050565b6000808080808080871515613528576136e1565b600554604080517fc40868930000000000000000000000000000000000000000000000000000000081523360048201528151600160a060020a039093169263c4086893926024808401939192918290030181600087803b15801561358b57600080fd5b505af115801561359f573d6000803e3d6000fd5b505050506040513d60408110156135b557600080fd5b50805160209091015190955093508415156135d657600096508695506136e1565b600092506000915084848115156135e957fe5b04905088851061360d57889150613606828263ffffffff612f5116565b9250613614565b8491508392505b878311156136415761362c888263ffffffff6130a916565b915061363e828263ffffffff612f5116565b92505b60008211156136d957600554604080517fc872e8dc000000000000000000000000000000000000000000000000000000008152336004820152602481018590529051600160a060020a039092169163c872e8dc9160448082019260009290919082900301818387803b1580156136b657600080fd5b505af11580156136ca573d6000803e3d6000fd5b505050508183965096506136e1565b600096508695505b50505050509250929050565b6000806000806000806000613700612349565b9450613712898663ffffffff612f5116565b9350878411156137e55761372c888663ffffffff6130a916565b925061373e838663ffffffff612f5116565b600554909250838a039150600160a060020a0316634b91a07b3383613769818a63ffffffff612f5116565b6040518463ffffffff1660e060020a0281526004018084600160a060020a0316600160a060020a031681526020018381526020018281526020019350505050600060405180830381600087803b1580156137c257600080fd5b505af11580156137d6573d6000803e3d6000fd5b505050508282965096506136e1565b50969791965090945050505050565b6060808084151561380457613923565b60408051600160a060020a038816815260208101879052815133927fc994feb9b99296d80965b47aec6be0d25704ddf95b9b9bc1ed8bc753960d5809928290030190a261385233878661392b565b92509250925082600181518110151561386757fe5b9060200190602002015183600081518110151561388057fe5b60209081029091010151604051610d05907f36bc09f07bcf3d3fa05df7f9c56193487df0507ecd1d5a83845b56b4e6d7b73390600090a48160018151811015156138c657fe5b906020019060200201518260008151811015156138df57fe5b60209081029091010151604051610d05907f36bc09f07bcf3d3fa05df7f9c56193487df0507ecd1d5a83845b56b4e6d7b73390600090a46139238686858585613ed0565b505050505050565b606080606080606080606060008060006139448c614393565b96508651604051908082528060200260200182016040528015613971578160200160208202803883390190505b509550865160405190808252806020026020018201604052801561399f578160200160208202803883390190505b50945086516040519080825280602002602001820160405280156139cd578160200160208202803883390190505b5093506000925060009150600090505b8651811015613c17576008548751600160a060020a039091169063af830e5190899084908110613a0957fe5b906020019060200201518f6040518363ffffffff1660e060020a0281526004018083600160a060020a0316600160a060020a0316815260200182600160a060020a0316600160a060020a03168152602001925050506040805180830381600087803b158015613a7757600080fd5b505af1158015613a8b573d6000803e3d6000fd5b505050506040513d6040811015613aa157600080fd5b5080516020909101518751889084908110613ab857fe5b9060200190602002018784815181101515613acf57fe5b60209081029091010191909152526006548751600160a060020a03909116906341976e0990899084908110613b0057fe5b906020019060200201516040518263ffffffff1660e060020a0281526004018082600160a060020a0316600160a060020a03168152602001915050602060405180830381600087803b158015613b5557600080fd5b505af1158015613b69573d6000803e3d6000fd5b505050506040513d6020811015613b7f57600080fd5b50518451859083908110613b8f57fe5b602090810290910101528551613bea90613bdd90889084908110613baf57fe5b906020019060200201518684815181101515613bc757fe5b602090810290910101519063ffffffff612f5116565b849063ffffffff6130eb16565b9250613c0d613c008683815181101515613baf57fe5b839063ffffffff6130eb16565b91506001016139dd565b8a8310613c72575060005b8651811015613c6d57613c4d83613c418d8985815181101515613bc757fe5b9063ffffffff6130a916565b8682815181101515613c5b57fe5b60209081029091010152600101613c22565b613cba565b50988190039860005b8651811015613cba57613c9a82613c418d8885815181101515613bc757fe5b8582815181101515613ca857fe5b60209081029091010152600101613c7b565b50939b929a50909850909650505050505050565b600160a060020a0381161515613d54576040805160e560020a62461bcd02815260206004820152602660248201527f4f776e61626c653a206e6577206f776e657220697320746865207a65726f206160448201527f6464726573730000000000000000000000000000000000000000000000000000606482015290519081900360840190fd5b60008054604051600160a060020a038085169361010090930416917f8be0079c531659141344cd1fd0a4f28419497f9722a3daafe3b4186f6b6457e091a360008054600160a060020a039092166101000274ffffffffffffffffffffffffffffffffffffffff0019909216919091179055565b60008082818511613e595760405160e560020a62461bcd0281526004018080602001828103825283818151815260200191508051906020019080838360005b83811015613e1e578181015183820152602001613e06565b50505050905090810190601f168015613e4b5780820380516001836020036101000a031916815260200191505b509250505060405180910390fd5b508385811515613e6557fe5b0495945050505050565b6000808285851115613ec65760405160e560020a62461bcd02815260040180806020018281038252838181518152602001915080519060200190808383600083811015613e1e578181015183820152602001613e06565b5050509103919050565b606060006060600080613ee28a614393565b94508451935083604051908082528060200260200182016040528015613f12578160200160208202803883390190505b509250600091505b8382108015613f295750600089115b156141e657613f578883815181101515613f3f57fe5b906020019060200201518784815181101515613bc757fe5b90508089101561410d576008548551600160a060020a0390911690635ed74bfd903390889086908110613f8657fe5b9060200190602002015161405985613c418f8803600860009054906101000a9004600160a060020a0316600160a060020a031663b4d5a9c7338f8d815181101515613fcd57fe5b60209081029091018101516040805160e060020a63ffffffff8716028152600160a060020a039485166004820152939091166024840152516044808401938290030181600087803b15801561402157600080fd5b505af1158015614035573d6000803e3d6000fd5b505050506040513d602081101561404b57600080fd5b50519063ffffffff612f5116565b6040805160e060020a63ffffffff8716028152600160a060020a03948516600482015292909316602483015260448201529051606480830192600092919082900301818387803b1580156140ac57600080fd5b505af11580156140c0573d6000803e3d6000fd5b505050506140ec86838151811015156140d557fe5b602090810290910101518a9063ffffffff6130a916565b83838151811015156140fa57fe5b60209081029091010152600098506141e6565b6008548551600160a060020a0390911690635ed74bfd90339088908690811061413257fe5b602090810290910101516040805160e060020a63ffffffff8616028152600160a060020a039384166004820152929091166024830152600060448301819052905160648084019382900301818387803b15801561418e57600080fd5b505af11580156141a2573d6000803e3d6000fd5b5050505087828151811015156141b457fe5b9060200190602002015183838151811015156141cc57fe5b602090810290910101529788900397600190910190613f1a565b600089111561429b575060009050805b838210156142445761423761422a878481518110151561421257fe5b906020019060200201518985815181101515613bc757fe5b829063ffffffff6130eb16565b60019092019190506141f6565b600091505b8382101561429b5761427861426a82613c418c8b87815181101515613bc757fe5b84848151811015156120eb57fe5b838381518110151561428657fe5b60209081029091010152600190910190614249565b600091505b83821015614387576008548551600160a060020a0390911690632454047c9033908890869081106142cd57fe5b9060200190602002015186868151811015156142e557fe5b9060200190602002015160046040518563ffffffff1660e060020a0281526004018085600160a060020a0316600160a060020a0316815260200184600160a060020a0316600160a060020a03168152602001838152602001828152602001945050505050600060405180830381600087803b15801561436357600080fd5b505af1158015614377573d6000803e3d6000fd5b5050600190930192506142a09050565b50505050505050505050565b606080600060018054806020026020016040519081016040528092919081815260200182805480156143ee57602002820191906000526020600020905b8154600160a060020a031681526001909101906020018083116143d0575b505050505091506143ff8285614474565b90508015612ff45781600081518110151561441657fe5b90602001906020020151828281518110151561442e57fe5b600160a060020a03909216602092830290910190910152815184908390600090811061445657fe5b600160a060020a039092166020928302909101909101525092915050565b8151600090815b818110156144c15783600160a060020a0316858281518110151561449b57fe5b90602001906020020151600160a060020a031614156144b9576144c1565b60010161447b565b949350505050565b8154818355818111156144ed576000838152602090206144ed9181019083016144f2565b505050565b6109e491905b808211156123f657600081556001016144f856004f776e61626c653a2063616c6c6572206973206e6f7420746865206f776e6572a165627a7a72305820f472e25bb5dbd081e2cbdd362b23c44e46667b92a517fef3e758584d7a6fcd5d0029",
  "source": "\r\npragma solidity ^0.4.26;\r\nimport \"./modules/SafeMath.sol\";\r\nimport \"./modules/ReentrancyGuard.sol\";\r\nimport \"./modules/underlyingAssets.sol\";\r\nimport \"./modules/TransactionFee.sol\";\r\nimport \"./interfaces/IOptionsPool.sol\";\r\nimport \"./interfaces/IFNXOracle.sol\";\r\nimport \"./interfaces/ICollateralPool.sol\";\r\nimport \"./interfaces/IFPTCoin.sol\";\r\nimport \"./modules/Operator.sol\";\r\n\r\ncontract CollateralCal is ReentrancyGuard,TransactionFee,ImportIFPTCoin,ImportOracle,ImportOptionsPool,ImportCollateralPool,Operator {\r\n    using SafeMath for uint256;\r\n    fraction private collateralRate = fraction(5, 1);\r\n \r\n    event AddCollateral(address indexed from,address indexed collateral,uint256 amount,uint256 tokenAmount);\r\n    event RedeemCollateral(address indexed from,address collateral,uint256 allRedeem);\r\n\r\n    event DebugEvent(uint256 indexed value1,uint256 indexed value2,uint256 indexed value3);\r\n\r\n    function addNetBalance(address settlement,uint256 amount) public payable onlyOperatorIndex(1) {\r\n        amount = getPayableAmount(settlement,amount);\r\n        _collateralPool.addNetWorthBalance(settlement,amount);\r\n//        netWorthBalances[settlement] = netWorthBalances[settlement].add(amount);\r\n    }\r\n    function setCollateralRate(uint256 numerator,uint256 denominator) public onlyOwner {\r\n        collateralRate.numerator = numerator;\r\n        collateralRate.denominator = denominator;\r\n    }\r\n    function getCollateralRate()public view returns (uint256,uint256) {\r\n        return (collateralRate.numerator,collateralRate.denominator);\r\n    }\r\n    function getUserPayingUsd(address user)public view returns (uint256){\r\n        return _collateralPool.getUserPayingUsd(user);\r\n        //userCollateralPaying[user];\r\n    }\r\n    function userInputCollateral(address user,address collateral)public view returns (uint256){\r\n        _collateralPool.userInputCollateral(user,collateral);\r\n        //return userInputCollateral[user][collateral];\r\n    }\r\n    function setPhaseSharedPayment(uint256 calInfo) public onlyOperatorIndex(0) {\r\n        (uint256[] memory sharedBalances,uint256 firstOption,bool success) =\r\n             _optionsPool.calculatePhaseSharedPayment(calInfo,whiteList);\r\n        if (success){\r\n            (int256[] memory fallBalance,uint256[] memory prices) = _optionsPool.calculatePhaseOptionsFall(calInfo,whiteList);\r\n            for (uint256 i= 0;i<fallBalance.length;i++){\r\n                fallBalance[i] += int256(sharedBalances[i]);\r\n            }\r\n            setSharedPayment(calInfo,fallBalance,prices,firstOption,now);\r\n        }\r\n    }\r\n    function setSharedPayment(uint256 calInfo,int256[] sharedBalances,uint256[] prices,uint256 firstOption,uint256 calTime) public onlyOperatorIndex(0){\r\n        _optionsPool.setSharedState(calInfo,firstOption,prices,calTime);\r\n        for (uint i=0;i<sharedBalances.length;i++){\r\n            address addr = whiteList[i];\r\n            if(sharedBalances[i]>=0){\r\n                _collateralPool.addNetWorthBalance(addr,uint256(sharedBalances[i]));\r\n//                netWorthBalances[addr] = netWorthBalances[addr].add(uint256(sharedBalances[i]));\r\n            }else{\r\n                _collateralPool.subNetWorthBalance(addr,uint256(-sharedBalances[i]));\r\n//                netWorthBalances[addr] = netWorthBalances[addr].sub(uint256(-sharedBalances[i]));\r\n            }\r\n        }\r\n    }\r\n    function getUserTotalWorth(address account)public view returns (uint256){\r\n        return getTokenNetworth().mul(_FPTCoin.balanceOf(account)).add(_FPTCoin.lockedWorthOf(account));\r\n    }\r\n    function getTokenNetworth() public view returns (uint256){\r\n        uint256 _totalSupply = _FPTCoin.totalSupply();\r\n        if (_totalSupply == 0){\r\n            return 1e8;\r\n        }\r\n        return getUnlockedCollateral()/_totalSupply;\r\n    }\r\n    function addCollateral(address collateral,uint256 amount) nonReentrant notHalted public payable {\r\n        amount = getPayableAmount(collateral,amount);\r\n        require(amount>0 , \"settlement amount is zero!\");\r\n        uint256 fee = calculateFee(addColFee,amount);\r\n        _addTransactionFee(collateral,fee);\r\n        amount = amount.sub(fee);\r\n        uint256 price = _oracle.getPrice(collateral);\r\n        uint256 userPaying = price.mul(amount);\r\n        uint256 mintAmount = userPaying.div(getTokenNetworth());\r\n        _collateralPool.addUserPayingUsd(msg.sender,userPaying);\r\n        //userCollateralPaying[msg.sender] = userCollateralPaying[msg.sender].add(userPaying);\r\n        _collateralPool.addCollateralBalance(collateral,amount);\r\n        //collateralBalances[collateral] = collateralBalances[collateral].add(amount);\r\n        _collateralPool.addUserInputCollateral(msg.sender,collateral,amount);\r\n        //userInputCollateral[msg.sender][collateral] = userInputCollateral[msg.sender][collateral].add(amount);\r\n        _collateralPool.addNetWorthBalance(collateral,amount);\r\n        //netWorthBalances[collateral] = netWorthBalances[collateral].add(amount);\r\n        emit AddCollateral(msg.sender,collateral,amount,mintAmount);\r\n        _FPTCoin.mint(msg.sender,mintAmount);\r\n    }\r\n    //calculate token\r\n    function redeemCollateral(uint256 tokenAmount,address collateral) nonReentrant notHalted public {\r\n        require(checkAddressRedeemOut(collateral) , \"settlement is unsupported token\");\r\n        uint256 lockedAmount = _FPTCoin.lockedBalanceOf(msg.sender);\r\n        require(_FPTCoin.balanceOf(msg.sender)+lockedAmount>=tokenAmount,\"SCoin balance is insufficient!\");\r\n        if (tokenAmount == 0){\r\n            return;\r\n        }\r\n        uint256 userTotalWorth = getUserTotalWorth(msg.sender);\r\n        uint256 leftColateral = getLeftCollateral();\r\n        (uint256 burnAmount,uint256 redeemWorth) = _redeemLockedCollateral(tokenAmount,leftColateral);\r\n        tokenAmount -= burnAmount;\r\n        burnAmount = 0;\r\n        if (tokenAmount > 0){\r\n            leftColateral -= redeemWorth;\r\n            \r\n            if (lockedAmount > 0){\r\n                tokenAmount = tokenAmount > lockedAmount ? tokenAmount - lockedAmount : 0;\r\n            }\r\n            (uint256 newRedeem,uint256 newWorth) = _redeemCollateral(tokenAmount,leftColateral);\r\n            if(newRedeem>0){\r\n                burnAmount = newRedeem;\r\n                redeemWorth += newWorth;\r\n            }\r\n        }\r\n        _redeemCollateralWorth(collateral,redeemWorth,userTotalWorth);\r\n        if (burnAmount>0){\r\n            _FPTCoin.burn(msg.sender, burnAmount);\r\n        }\r\n    }\r\n    function _redeemLockedCollateral(uint256 tokenAmount,uint256 leftColateral)internal returns (uint256,uint256){\r\n        if (leftColateral == 0){\r\n            return;\r\n        }\r\n        (uint256 lockedAmount,uint256 lockedWorth) = _FPTCoin.getLockedBalance(msg.sender);\r\n        if (lockedAmount == 0){\r\n            return (0,0);\r\n        }\r\n        uint256 redeemWorth = 0;\r\n        uint256 lockedBurn = 0;\r\n        uint256 lockedPrice = lockedWorth/lockedAmount;\r\n        if (lockedAmount >= tokenAmount){\r\n            lockedBurn = tokenAmount;\r\n            redeemWorth = tokenAmount.mul(lockedPrice);\r\n        }else{\r\n            lockedBurn = lockedAmount;\r\n            redeemWorth = lockedWorth;\r\n        }\r\n        if (redeemWorth > leftColateral) {\r\n            lockedBurn = leftColateral.div(lockedPrice);\r\n            redeemWorth = lockedBurn.mul(lockedPrice);\r\n        }\r\n        if (lockedBurn > 0){\r\n            _FPTCoin.burnLocked(msg.sender,lockedBurn);\r\n            return (lockedBurn,redeemWorth);\r\n        }\r\n        return (0,0);\r\n    }\r\n    function _redeemCollateral(uint256 leftAmount,uint256 leftColateral)internal returns (uint256,uint256){\r\n        uint256 tokenNetWorth = getTokenNetworth();\r\n        uint256 leftWorth = leftAmount.mul(tokenNetWorth);        \r\n        if (leftWorth > leftColateral){\r\n            uint256 newRedeem = leftColateral.div(tokenNetWorth);\r\n            uint256 newWorth = newRedeem.mul(tokenNetWorth);\r\n            uint256 locked = leftAmount - newRedeem;\r\n            _FPTCoin.addlockBalance(msg.sender,locked,locked.mul(tokenNetWorth));\r\n            return (newRedeem,newWorth);\r\n        }\r\n        return (leftAmount,leftWorth);\r\n    }\r\n    function getTempWhiteList(address collateral) internal view returns (address[] memory) {\r\n        address[] memory tmpWhiteList = whiteList;\r\n        uint256 index = whiteListAddress._getEligibleIndexAddress(tmpWhiteList,collateral);\r\n        if (index != 0){\r\n            tmpWhiteList[index] = tmpWhiteList[0];\r\n            tmpWhiteList[0] = collateral;\r\n        }\r\n        return tmpWhiteList;\r\n    }\r\n    function _redeemCollateralWorth(address collateral,uint256 redeemWorth,uint256 userTotalWorth) internal {\r\n        if (redeemWorth == 0){\r\n            return;\r\n        }\r\n        emit RedeemCollateral(msg.sender,collateral,redeemWorth);\r\n        (uint256[] memory colBalances,uint256[] memory PremiumBalances,uint256[] memory prices) = _getCollateralAndPremiumBalances(msg.sender,collateral,userTotalWorth);\r\n        emit DebugEvent(3333,colBalances[0],colBalances[1]);\r\n        emit DebugEvent(3333,PremiumBalances[0],PremiumBalances[1]);\r\n        _transferPaybackBalances(collateral,redeemWorth,colBalances,PremiumBalances,prices);\r\n    }\r\n    function _transferPaybackBalances(address collateral,uint256 redeemWorth,uint256[] memory colBalances,uint256[] memory PremiumBalances,uint256[] memory prices)internal {\r\n        address[] memory tmpWhiteList = getTempWhiteList(collateral);\r\n        uint256 ln = tmpWhiteList.length;\r\n        uint256[] memory PaybackBalances = new uint256[](ln);\r\n        for (uint256 i=0; i<ln && redeemWorth>0;i++){\r\n            uint256 totalWorth = prices[i].mul(colBalances[i]);\r\n            if (redeemWorth < totalWorth){\r\n                _collateralPool.setUserInputCollateral(msg.sender,tmpWhiteList[i],\r\n                    _collateralPool.userInputCollateral(msg.sender,tmpWhiteList[i]).mul(totalWorth-redeemWorth).div(totalWorth));\r\n//                userInputCollateral[msg.sender][addr] = userInputCollateral[msg.sender][addr].mul(totalWorth-redeemWorth).div(totalWorth);\r\n                PaybackBalances[i] = redeemWorth.div(prices[i]);\r\n                redeemWorth = 0;\r\n                break;\r\n            }else{\r\n                _collateralPool.setUserInputCollateral(msg.sender,tmpWhiteList[i],0);\r\n                //userInputCollateral[msg.sender][addr] = 0;\r\n                PaybackBalances[i] = colBalances[i];\r\n                redeemWorth = redeemWorth - totalWorth;\r\n            }\r\n        }\r\n        if (redeemWorth>0) {\r\n           totalWorth = 0;\r\n            for (i=0; i<ln;i++){\r\n                totalWorth = totalWorth.add(PremiumBalances[i].mul(prices[i]));\r\n            }\r\n            for (i=0; i<ln;i++){\r\n                PaybackBalances[i] = PaybackBalances[i].add(PremiumBalances[i].mul(redeemWorth).div(totalWorth));\r\n            }\r\n        }\r\n        for (i=0;i<ln;i++){ \r\n            _collateralPool.transferPaybackAndFee(msg.sender,tmpWhiteList[i],PaybackBalances[i],redeemColFee);\r\n//            addr = whiteList[i];\r\n//            netWorthBalances[addr] = netWorthBalances[addr].sub(PaybackBalances[i]);\r\n//            _transferPaybackAndFee(msg.sender,addr,PaybackBalances[i],redeemColFee);\r\n        } \r\n    }\r\n    function calCollateralWorth(address account)public view returns(uint256[]){\r\n        uint256 worth = getUserTotalWorth(account);\r\n        (uint256[] memory colBalances,uint256[] memory PremiumBalances,) = _getCollateralAndPremiumBalances(account,whiteList[0],worth);\r\n        uint256 whiteLen = whiteList.length;\r\n        for (uint256 i=0; i<whiteLen;i++){\r\n            colBalances[i] = colBalances[i].add(PremiumBalances[i]);\r\n        }\r\n        return colBalances;\r\n    }\r\n    function _getCollateralAndPremiumBalances(address account,address priorCollateral,uint256 userTotalWorth) internal view returns(uint256[],uint256[],uint256[]){\r\n        address[] memory tmpWhiteList = getTempWhiteList(priorCollateral);\r\n//        uint256 ln = tmpWhiteList.length;\r\n        uint256[] memory colBalances = new uint256[](tmpWhiteList.length);\r\n        uint256[] memory PremiumBalances = new uint256[](tmpWhiteList.length);\r\n        uint256[] memory prices = new uint256[](tmpWhiteList.length);\r\n        uint256 totalWorth = 0;\r\n        uint256 PremiumWorth = 0;\r\n        for (uint256 i=0; i<tmpWhiteList.length;i++){\r\n            (colBalances[i],PremiumBalances[i]) = _collateralPool.calUserNetWorthBalanceRate(tmpWhiteList[i],account);\r\n            //(colBalances[i],PremiumBalances[i]) = _calBalanceRate(collateralBalances[tmpWhiteList[i]],netWorthBalances[tmpWhiteList[i]],userInputCollateral[msg.sender][tmpWhiteList[i]]);\r\n            prices[i] = _oracle.getPrice(tmpWhiteList[i]);\r\n            totalWorth = totalWorth.add(prices[i].mul(colBalances[i]));\r\n            PremiumWorth = PremiumWorth.add(prices[i].mul(PremiumBalances[i]));\r\n        }\r\n        if (totalWorth >= userTotalWorth){\r\n            for (i=0; i<tmpWhiteList.length;i++){\r\n                colBalances[i] = colBalances[i].mul(userTotalWorth).div(totalWorth);\r\n            }\r\n        }else{\r\n            userTotalWorth = userTotalWorth - totalWorth;\r\n            for (i=0; i<tmpWhiteList.length;i++){\r\n                PremiumBalances[i] = PremiumBalances[i].mul(userTotalWorth).div(PremiumWorth);\r\n            }\r\n        }\r\n        return (colBalances,PremiumBalances,prices);\r\n    } \r\n    /*\r\n    function _calBalanceRate(uint256 collateralBalance,uint256 netWorthBalance,uint256 amount)internal pure returns(uint256,uint256){\r\n        if (collateralBalance > 0){\r\n            uint256 curAmount = netWorthBalance.mul(amount).div(collateralBalance);\r\n            return (curAmount,netWorthBalance.sub(curAmount));\r\n        }else{\r\n            return (0,netWorthBalance);\r\n        }\r\n    }\r\n*/\r\n    function getOccupiedCollateral() public view returns(uint256){\r\n        uint256 totalOccupied = _optionsPool.getTotalOccupiedCollateral();\r\n        return calculateCollateral(totalOccupied);\r\n    }\r\n    function getAvailableCollateral()public view returns(uint256){\r\n        return safeSubCollateral(getUnlockedCollateral(),getOccupiedCollateral());\r\n    }\r\n    function getLeftCollateral()public view returns(uint256){\r\n        return safeSubCollateral(getTotalCollateral(),getOccupiedCollateral());\r\n    }\r\n    function getUnlockedCollateral()public view returns(uint256){\r\n        return safeSubCollateral(getTotalCollateral(),_FPTCoin.getTotalLockedWorth());\r\n    }\r\n    function safeSubCollateral(uint256 allCollateral,uint256 subCollateral)internal pure returns(uint256){\r\n        return allCollateral > subCollateral ? allCollateral - subCollateral : 0;\r\n    }\r\n    function calOptionsOccupied(uint256 strikePrice,uint256 underlyingPrice,uint256 amount,uint8 optType)public view returns(uint256){\r\n        uint256 totalOccupied = 0;\r\n        if ((optType == 0) == (strikePrice>underlyingPrice)){ // call\r\n            totalOccupied = strikePrice.mul(amount);\r\n        } else {\r\n            totalOccupied = underlyingPrice.mul(amount);\r\n        }\r\n        return calculateCollateral(totalOccupied);\r\n    }\r\n\r\n    function getTotalCollateral()public view returns(uint256){\r\n        uint256 totalNum = 0;\r\n        uint whiteListLen = whiteList.length;\r\n        for (uint256 i=0;i<whiteListLen;i++){\r\n            address addr = whiteList[i];\r\n            uint256 price = _oracle.getPrice(addr);\r\n            totalNum = totalNum.add(price.mul(_collateralPool.getNetWorthBalance(addr)));\r\n            //totalNum = totalNum.add(price.mul(netWorthBalances[addr]));\r\n        }\r\n        return totalNum;  \r\n    }\r\n\r\n    function _paybackWorth(uint256 worth,uint256 feeType) internal {\r\n        uint256 totalPrice = 0;\r\n        uint whiteLen = whiteList.length;\r\n        uint256[] memory balances = new uint256[](whiteLen);\r\n        for (uint256 i=0;i<whiteLen;i++){\r\n            address addr = whiteList[i];\r\n            uint256 price = _oracle.getPrice(addr);\r\n            balances[i] = _collateralPool.getNetWorthBalance(addr);\r\n            //balances[i] = netWorthBalances[addr];\r\n            totalPrice = totalPrice.add(price.mul(balances[i]));\r\n        }\r\n        if (totalPrice == 0){\r\n            return;\r\n        }\r\n        for (i=0;i<whiteLen;i++){\r\n            uint256 _payBack = balances[i].mul(worth).div(totalPrice);\r\n            _collateralPool.transferPaybackAndFee(msg.sender,whiteList[i],_payBack,feeType);\r\n            //addr = whiteList[i];\r\n            //netWorthBalances[addr] = balances[i].sub(_payBack);\r\n            //_transferPaybackAndFee(msg.sender,addr,_payBack,feeType);\r\n        } \r\n    }\r\n    function getPayableAmount(address settlement,uint256 settlementAmount) internal returns (uint256) {\r\n        require(checkAddressPayIn(settlement) , \"settlement is unsupported token\");\r\n        uint256 colAmount = 0;\r\n        if (settlement == address(0)){\r\n            colAmount = msg.value;\r\n            address(_collateralPool).transfer(msg.value);\r\n        }else if (settlementAmount > 0){\r\n            IERC20 oToken = IERC20(settlement);\r\n            oToken.transferFrom(msg.sender, address(this), settlementAmount);\r\n            colAmount = settlementAmount;\r\n             oToken.transfer(address(_collateralPool),settlementAmount);\r\n        }\r\n        return colAmount;\r\n    }\r\n    function calculateCollateral(uint256 amount)internal view returns (uint256){\r\n        uint256 result = collateralRate.numerator.mul(amount);\r\n        return result.div(collateralRate.denominator);\r\n    }\r\n\r\n}",
  "sourcePath": "C:\\work\\solidity\\FinnexusOptions_V2\\contracts\\CollateralCal.sol",
  "compiler": {
    "name": "solc",
    "version": "0.4.26+commit.4563c3fc.Emscripten.clang"
  },
  "schemaVersion": "3.1.0",
  "updatedAt": "2020-08-03T07:47:16.828Z",
  "devdoc": {
    "methods": {
      "addWhiteList(address)": {
        "details": "Implementation of add an eligible address into the whitelist.\r",
        "params": {
          "addAddress": "new eligible address.\r"
        }
      },
      "getWhiteList()": {
        "details": "Implementation of getting the eligible whitelist.\r"
      },
      "isEligibleAddress(address)": {
        "details": "Implementation of testing whether the input address is eligible.\r",
        "params": {
          "tmpAddress": "input address for testing.\r"
        }
      },
      "isOwner()": {
        "details": "Returns true if the caller is the current owner."
      },
      "owner()": {
        "details": "Returns the address of the current owner."
      },
      "removeWhiteList(address)": {
        "details": "Implementation of revoke an invalid address from the whitelist.\r",
        "params": {
          "removeAddress": "revoked address.\r"
        }
      },
      "renounceOwnership()": {
        "details": "Leaves the contract without owner. It will not be possible to call `onlyOwner` functions anymore. Can only be called by the current owner.     * NOTE: Renouncing ownership will leave the contract without an owner, thereby removing any functionality that is only available to the owner."
      },
      "setTransactionFee(uint256,uint256,uint256)": {
        "details": "set the rate of trasaction fee.\r",
        "params": {
          "denominator": "thedenominator of transaction fee.\r transaction fee = numerator/denominator;\r",
          "feeType": "the transaction fee type\r",
          "numerator": "the numerator of transaction fee .\r"
        }
      },
      "transferOwnership(address)": {
        "details": "Transfers ownership of the contract to a new account (`newOwner`). Can only be called by the current owner."
      }
    }
  },
  "userdoc": {
    "methods": {
      "setHalt(bool)": {
        "notice": "function Emergency situation that requires contribution period to stop or not."
      }
    }
  }
}