{
  "contractName": "CollateralPool",
  "abi": [
    {
      "constant": true,
      "inputs": [
        {
          "name": "tmpAddress",
          "type": "address"
        }
      ],
      "name": "checkAddressRedeemOut",
      "outputs": [
        {
          "name": "",
          "type": "bool"
        }
      ],
      "payable": false,
      "stateMutability": "view",
      "type": "function"
    },
    {
      "constant": true,
      "inputs": [],
      "name": "getWhiteList",
      "outputs": [
        {
          "name": "",
          "type": "address[]"
        }
      ],
      "payable": false,
      "stateMutability": "view",
      "type": "function"
    },
    {
      "constant": true,
      "inputs": [
        {
          "name": "",
          "type": "address"
        }
      ],
      "name": "netWorthBalances",
      "outputs": [
        {
          "name": "",
          "type": "uint256"
        }
      ],
      "payable": false,
      "stateMutability": "view",
      "type": "function"
    },
    {
      "constant": false,
      "inputs": [
        {
          "name": "removeAddress",
          "type": "address"
        }
      ],
      "name": "removeWhiteList",
      "outputs": [
        {
          "name": "",
          "type": "bool"
        }
      ],
      "payable": false,
      "stateMutability": "nonpayable",
      "type": "function"
    },
    {
      "constant": true,
      "inputs": [
        {
          "name": "",
          "type": "address"
        }
      ],
      "name": "collateralBalances",
      "outputs": [
        {
          "name": "",
          "type": "uint256"
        }
      ],
      "payable": false,
      "stateMutability": "view",
      "type": "function"
    },
    {
      "constant": false,
      "inputs": [],
      "name": "redeemAll",
      "outputs": [],
      "payable": false,
      "stateMutability": "nonpayable",
      "type": "function"
    },
    {
      "constant": true,
      "inputs": [
        {
          "name": "feeType",
          "type": "uint256"
        },
        {
          "name": "amount",
          "type": "uint256"
        }
      ],
      "name": "calculateFee",
      "outputs": [
        {
          "name": "",
          "type": "uint256"
        }
      ],
      "payable": false,
      "stateMutability": "view",
      "type": "function"
    },
    {
      "constant": true,
      "inputs": [
        {
          "name": "",
          "type": "address"
        }
      ],
      "name": "feeBalances",
      "outputs": [
        {
          "name": "",
          "type": "uint256"
        }
      ],
      "payable": false,
      "stateMutability": "view",
      "type": "function"
    },
    {
      "constant": true,
      "inputs": [
        {
          "name": "",
          "type": "uint256"
        }
      ],
      "name": "whiteList",
      "outputs": [
        {
          "name": "",
          "type": "address"
        }
      ],
      "payable": false,
      "stateMutability": "view",
      "type": "function"
    },
    {
      "constant": false,
      "inputs": [],
      "name": "renounceOwnership",
      "outputs": [],
      "payable": false,
      "stateMutability": "nonpayable",
      "type": "function"
    },
    {
      "constant": true,
      "inputs": [
        {
          "name": "tmpAddress",
          "type": "address"
        }
      ],
      "name": "isEligibleAddress",
      "outputs": [
        {
          "name": "",
          "type": "bool"
        }
      ],
      "payable": false,
      "stateMutability": "view",
      "type": "function"
    },
    {
      "constant": true,
      "inputs": [],
      "name": "owner",
      "outputs": [
        {
          "name": "",
          "type": "address"
        }
      ],
      "payable": false,
      "stateMutability": "view",
      "type": "function"
    },
    {
      "constant": true,
      "inputs": [],
      "name": "isOwner",
      "outputs": [
        {
          "name": "",
          "type": "bool"
        }
      ],
      "payable": false,
      "stateMutability": "view",
      "type": "function"
    },
    {
      "constant": false,
      "inputs": [
        {
          "name": "currency",
          "type": "address"
        }
      ],
      "name": "redeem",
      "outputs": [],
      "payable": false,
      "stateMutability": "nonpayable",
      "type": "function"
    },
    {
      "constant": true,
      "inputs": [],
      "name": "halted",
      "outputs": [
        {
          "name": "",
          "type": "bool"
        }
      ],
      "payable": false,
      "stateMutability": "view",
      "type": "function"
    },
    {
      "constant": true,
      "inputs": [
        {
          "name": "tmpAddress",
          "type": "address"
        }
      ],
      "name": "checkAddressPayIn",
      "outputs": [
        {
          "name": "",
          "type": "bool"
        }
      ],
      "payable": false,
      "stateMutability": "view",
      "type": "function"
    },
    {
      "constant": false,
      "inputs": [
        {
          "name": "feeType",
          "type": "uint256"
        },
        {
          "name": "numerator",
          "type": "uint256"
        },
        {
          "name": "denominator",
          "type": "uint256"
        }
      ],
      "name": "setTransactionFee",
      "outputs": [],
      "payable": false,
      "stateMutability": "nonpayable",
      "type": "function"
    },
    {
      "constant": false,
      "inputs": [
        {
          "name": "addAddress",
          "type": "address"
        },
        {
          "name": "permission",
          "type": "uint256"
        }
      ],
      "name": "modifyPermission",
      "outputs": [],
      "payable": false,
      "stateMutability": "nonpayable",
      "type": "function"
    },
    {
      "constant": true,
      "inputs": [
        {
          "name": "settlement",
          "type": "address"
        }
      ],
      "name": "getFeeBalance",
      "outputs": [
        {
          "name": "",
          "type": "uint256"
        }
      ],
      "payable": false,
      "stateMutability": "view",
      "type": "function"
    },
    {
      "constant": false,
      "inputs": [
        {
          "name": "managerAddress",
          "type": "address"
        }
      ],
      "name": "setManager",
      "outputs": [],
      "payable": false,
      "stateMutability": "nonpayable",
      "type": "function"
    },
    {
      "constant": true,
      "inputs": [
        {
          "name": "feeType",
          "type": "uint256"
        }
      ],
      "name": "getFeeRate",
      "outputs": [
        {
          "name": "",
          "type": "uint256"
        },
        {
          "name": "",
          "type": "uint256"
        }
      ],
      "payable": false,
      "stateMutability": "view",
      "type": "function"
    },
    {
      "constant": true,
      "inputs": [],
      "name": "getManager",
      "outputs": [
        {
          "name": "",
          "type": "address"
        }
      ],
      "payable": false,
      "stateMutability": "view",
      "type": "function"
    },
    {
      "constant": true,
      "inputs": [
        {
          "name": "",
          "type": "address"
        }
      ],
      "name": "userCollateralPaying",
      "outputs": [
        {
          "name": "",
          "type": "uint256"
        }
      ],
      "payable": false,
      "stateMutability": "view",
      "type": "function"
    },
    {
      "constant": true,
      "inputs": [
        {
          "name": "",
          "type": "uint256"
        }
      ],
      "name": "FeeRates",
      "outputs": [
        {
          "name": "numerator",
          "type": "uint256"
        },
        {
          "name": "denominator",
          "type": "uint256"
        }
      ],
      "payable": false,
      "stateMutability": "view",
      "type": "function"
    },
    {
      "constant": false,
      "inputs": [
        {
          "name": "addAddress",
          "type": "address"
        }
      ],
      "name": "addWhiteList",
      "outputs": [],
      "payable": false,
      "stateMutability": "nonpayable",
      "type": "function"
    },
    {
      "constant": true,
      "inputs": [],
      "name": "getAllFeeBalances",
      "outputs": [
        {
          "name": "",
          "type": "address[]"
        },
        {
          "name": "",
          "type": "uint256[]"
        }
      ],
      "payable": false,
      "stateMutability": "view",
      "type": "function"
    },
    {
      "constant": false,
      "inputs": [
        {
          "name": "newOwner",
          "type": "address"
        }
      ],
      "name": "transferOwnership",
      "outputs": [],
      "payable": false,
      "stateMutability": "nonpayable",
      "type": "function"
    },
    {
      "constant": false,
      "inputs": [
        {
          "name": "halt",
          "type": "bool"
        }
      ],
      "name": "setHalt",
      "outputs": [],
      "payable": false,
      "stateMutability": "nonpayable",
      "type": "function"
    },
    {
      "payable": true,
      "stateMutability": "payable",
      "type": "fallback"
    },
    {
      "anonymous": false,
      "inputs": [
        {
          "indexed": true,
          "name": "recieptor",
          "type": "address"
        },
        {
          "indexed": true,
          "name": "settlement",
          "type": "address"
        },
        {
          "indexed": false,
          "name": "payback",
          "type": "uint256"
        }
      ],
      "name": "FeePayback",
      "type": "event"
    },
    {
      "anonymous": false,
      "inputs": [
        {
          "indexed": true,
          "name": "settlement",
          "type": "address"
        },
        {
          "indexed": false,
          "name": "payback",
          "type": "uint256"
        }
      ],
      "name": "AddFee",
      "type": "event"
    },
    {
      "anonymous": false,
      "inputs": [
        {
          "indexed": true,
          "name": "recieptor",
          "type": "address"
        },
        {
          "indexed": true,
          "name": "settlement",
          "type": "address"
        },
        {
          "indexed": false,
          "name": "payback",
          "type": "uint256"
        }
      ],
      "name": "TransferPayback",
      "type": "event"
    },
    {
      "anonymous": false,
      "inputs": [
        {
          "indexed": true,
          "name": "previousOwner",
          "type": "address"
        },
        {
          "indexed": true,
          "name": "newOwner",
          "type": "address"
        }
      ],
      "name": "OwnershipTransferred",
      "type": "event"
    },
    {
      "constant": true,
      "inputs": [
        {
          "name": "user",
          "type": "address"
        }
      ],
      "name": "getUserPayingUsd",
      "outputs": [
        {
          "name": "",
          "type": "uint256"
        }
      ],
      "payable": false,
      "stateMutability": "view",
      "type": "function"
    },
    {
      "constant": true,
      "inputs": [
        {
          "name": "user",
          "type": "address"
        },
        {
          "name": "collateral",
          "type": "address"
        }
      ],
      "name": "userInputCollateral",
      "outputs": [
        {
          "name": "",
          "type": "uint256"
        }
      ],
      "payable": false,
      "stateMutability": "view",
      "type": "function"
    },
    {
      "constant": true,
      "inputs": [
        {
          "name": "collateral",
          "type": "address"
        }
      ],
      "name": "getNetWorthBalance",
      "outputs": [
        {
          "name": "",
          "type": "uint256"
        }
      ],
      "payable": false,
      "stateMutability": "view",
      "type": "function"
    },
    {
      "constant": true,
      "inputs": [
        {
          "name": "collateral",
          "type": "address"
        }
      ],
      "name": "getCollateralBalance",
      "outputs": [
        {
          "name": "",
          "type": "uint256"
        }
      ],
      "payable": false,
      "stateMutability": "view",
      "type": "function"
    },
    {
      "constant": false,
      "inputs": [
        {
          "name": "user",
          "type": "address"
        },
        {
          "name": "amount",
          "type": "uint256"
        }
      ],
      "name": "addUserPayingUsd",
      "outputs": [],
      "payable": false,
      "stateMutability": "nonpayable",
      "type": "function"
    },
    {
      "constant": false,
      "inputs": [
        {
          "name": "user",
          "type": "address"
        },
        {
          "name": "collateral",
          "type": "address"
        },
        {
          "name": "amount",
          "type": "uint256"
        }
      ],
      "name": "addUserInputCollateral",
      "outputs": [],
      "payable": false,
      "stateMutability": "nonpayable",
      "type": "function"
    },
    {
      "constant": false,
      "inputs": [
        {
          "name": "collateral",
          "type": "address"
        },
        {
          "name": "amount",
          "type": "uint256"
        }
      ],
      "name": "addNetWorthBalance",
      "outputs": [],
      "payable": false,
      "stateMutability": "nonpayable",
      "type": "function"
    },
    {
      "constant": false,
      "inputs": [
        {
          "name": "collateral",
          "type": "address"
        },
        {
          "name": "amount",
          "type": "uint256"
        }
      ],
      "name": "addCollateralBalance",
      "outputs": [],
      "payable": false,
      "stateMutability": "nonpayable",
      "type": "function"
    },
    {
      "constant": false,
      "inputs": [
        {
          "name": "user",
          "type": "address"
        },
        {
          "name": "amount",
          "type": "uint256"
        }
      ],
      "name": "subUserPayingUsd",
      "outputs": [],
      "payable": false,
      "stateMutability": "nonpayable",
      "type": "function"
    },
    {
      "constant": false,
      "inputs": [
        {
          "name": "user",
          "type": "address"
        },
        {
          "name": "collateral",
          "type": "address"
        },
        {
          "name": "amount",
          "type": "uint256"
        }
      ],
      "name": "subUserInputCollateral",
      "outputs": [],
      "payable": false,
      "stateMutability": "nonpayable",
      "type": "function"
    },
    {
      "constant": false,
      "inputs": [
        {
          "name": "collateral",
          "type": "address"
        },
        {
          "name": "amount",
          "type": "uint256"
        }
      ],
      "name": "subNetWorthBalance",
      "outputs": [],
      "payable": false,
      "stateMutability": "nonpayable",
      "type": "function"
    },
    {
      "constant": false,
      "inputs": [
        {
          "name": "collateral",
          "type": "address"
        },
        {
          "name": "amount",
          "type": "uint256"
        }
      ],
      "name": "subCollateralBalance",
      "outputs": [],
      "payable": false,
      "stateMutability": "nonpayable",
      "type": "function"
    },
    {
      "constant": false,
      "inputs": [
        {
          "name": "user",
          "type": "address"
        },
        {
          "name": "amount",
          "type": "uint256"
        }
      ],
      "name": "setUserPayingUsd",
      "outputs": [],
      "payable": false,
      "stateMutability": "nonpayable",
      "type": "function"
    },
    {
      "constant": false,
      "inputs": [
        {
          "name": "user",
          "type": "address"
        },
        {
          "name": "collateral",
          "type": "address"
        },
        {
          "name": "amount",
          "type": "uint256"
        }
      ],
      "name": "setUserInputCollateral",
      "outputs": [],
      "payable": false,
      "stateMutability": "nonpayable",
      "type": "function"
    },
    {
      "constant": false,
      "inputs": [
        {
          "name": "collateral",
          "type": "address"
        },
        {
          "name": "amount",
          "type": "uint256"
        }
      ],
      "name": "setNetWorthBalance",
      "outputs": [],
      "payable": false,
      "stateMutability": "nonpayable",
      "type": "function"
    },
    {
      "constant": false,
      "inputs": [
        {
          "name": "collateral",
          "type": "address"
        },
        {
          "name": "amount",
          "type": "uint256"
        }
      ],
      "name": "setCollateralBalance",
      "outputs": [],
      "payable": false,
      "stateMutability": "nonpayable",
      "type": "function"
    },
    {
      "constant": false,
      "inputs": [
        {
          "name": "recieptor",
          "type": "address"
        },
        {
          "name": "settleMent",
          "type": "address"
        },
        {
          "name": "payback",
          "type": "uint256"
        },
        {
          "name": "feeType",
          "type": "uint256"
        }
      ],
      "name": "transferPaybackAndFee",
      "outputs": [],
      "payable": false,
      "stateMutability": "nonpayable",
      "type": "function"
    },
    {
      "constant": false,
      "inputs": [
        {
          "name": "recieptor",
          "type": "address"
        },
        {
          "name": "settlement",
          "type": "address"
        },
        {
          "name": "payback",
          "type": "uint256"
        }
      ],
      "name": "transferPayback",
      "outputs": [],
      "payable": false,
      "stateMutability": "nonpayable",
      "type": "function"
    },
    {
      "constant": true,
      "inputs": [
        {
          "name": "settlement",
          "type": "address"
        },
        {
          "name": "user",
          "type": "address"
        }
      ],
      "name": "calUserNetWorthBalanceRate",
      "outputs": [
        {
          "name": "",
          "type": "uint256"
        },
        {
          "name": "",
          "type": "uint256"
        }
      ],
      "payable": false,
      "stateMutability": "view",
      "type": "function"
    }
  ],
  "bytecode": "0x608060408190526001805460a060020a60ff021916905560008054600160a060020a0319163317808255600160a060020a0316917f8be0079c531659141344cd1fd0a4f28419497f9722a3daafe3b4186f6b6457e0908290a360408051808201825260008082526103e860208084018281526005805460018181018355828752965160029182027f036b6384b5eca791c62761152d0c79bb0604c104a5fb6f4eb0703f3154bb3db08181019290925593517f036b6384b5eca791c62761152d0c79bb0604c104a5fb6f4eb0703f3154bb3db1948501558851808a018a52603281528086018781528454808b018655858a5291519184028084019290925551908501558851808a018a528781528086018781528454808b018655858a5291519184028084019290925551908501558851808a018a528781528086018781528454808b018655858a5291519184028084019290925551908501558851808a0190995286895293880194855281549687018255945294519390920291820192909255905191015561257f806101926000396000f30060806040526004361061023a5763ffffffff7c0100000000000000000000000000000000000000000000000000000000600035041663059621d7811461029e57806309a9d76c146102d35780630ecfad1e146103385780632042e5c21461036b5780632454047c1461038c5780632703ee85146103b957806329bc969d146103da5780632b2d50c3146103fb5780632f4350c21461041f57806334e731221461043457806342049a721461044f57806353afc025146104705780635af107c5146104915780635c475d42146104b55780635ed74bfd146104e9578063632ba2b5146105135780636560a9e714610537578063692a76a71461055b5780636b6ecea81461057f578063715018a6146105a05780637a3e51d8146105b55780637b064052146105d95780637d449c19146105fd578063817bf86d146106215780638da5cb5b146106425780638f32d59b1461065757806395a2251f1461066c5780639994eb141461068d578063a337f450146106b7578063af830e51146106db578063b4d5a9c71461071b578063b8446de114610742578063b9b8af0b1461076c578063bdac4bf614610781578063bf36b110146107a2578063c219043b146107c0578063c78f6803146107e4578063d0ebdbe714610805578063d2aaef4e14610826578063d50095841461083e578063d56dbe8814610853578063ddb944e51461087d578063e0561aa11461089e578063e7cd4a04146108b6578063f20568cd146108d7578063f2fde38b14610985578063f4954387146109a6575b600154600160a060020a0316331461029c576040805160e560020a62461bcd0281526020600482015260266024820152600080516020612514833981519152604482015260d160020a6530b730b3b2b902606482015290519081900360840190fd5b005b3480156102aa57600080fd5b506102bf600160a060020a03600435166109c0565b604080519115158252519081900360200190f35b3480156102df57600080fd5b506102e86109f8565b60408051602080825283518183015283519192839290830191858101910280838360005b8381101561032457818101518382015260200161030c565b505050509050019250505060405180910390f35b34801561034457600080fd5b50610359600160a060020a0360043516610a5b565b60408051918252519081900360200190f35b34801561037757600080fd5b506102bf600160a060020a0360043516610a6d565b34801561039857600080fd5b5061029c600160a060020a0360043581169060243516604435606435610ac6565b3480156103c557600080fd5b50610359600160a060020a0360043516610b7f565b3480156103e657600080fd5b50610359600160a060020a0360043516610b9a565b34801561040757600080fd5b5061029c600160a060020a0360043516602435610bac565b34801561042b57600080fd5b5061029c610c57565b34801561044057600080fd5b50610359600435602435610cea565b34801561045b57600080fd5b50610359600160a060020a0360043516610d31565b34801561047c57600080fd5b50610359600160a060020a0360043516610d4c565b34801561049d57600080fd5b5061029c600160a060020a0360043516602435610d5e565b3480156104c157600080fd5b506104cd600435610ddc565b60408051600160a060020a039092168252519081900360200190f35b3480156104f557600080fd5b5061029c600160a060020a0360043581169060243516604435610e04565b34801561051f57600080fd5b5061029c600160a060020a0360043516602435610e92565b34801561054357600080fd5b5061029c600160a060020a0360043516602435610f10565b34801561056757600080fd5b5061029c600160a060020a0360043516602435610fbb565b34801561058b57600080fd5b50610359600160a060020a0360043516611046565b3480156105ac57600080fd5b5061029c611061565b3480156105c157600080fd5b5061029c600160a060020a0360043516602435611104565b3480156105e557600080fd5b5061029c600160a060020a036004351660243561118f565b34801561060957600080fd5b5061029c600160a060020a036004351660243561123a565b34801561062d57600080fd5b506102bf600160a060020a03600435166112b8565b34801561064e57600080fd5b506104cd61131e565b34801561066357600080fd5b506102bf61132d565b34801561067857600080fd5b5061029c600160a060020a036004351661133e565b34801561069957600080fd5b5061029c600160a060020a036004358116906024351660443561152e565b3480156106c357600080fd5b5061029c600160a060020a03600435166024356115a0565b3480156106e757600080fd5b50610702600160a060020a036004358116906024351661162b565b6040805192835260208301919091528051918290030190f35b34801561072757600080fd5b50610359600160a060020a03600435811690602435166116c5565b34801561074e57600080fd5b5061029c600160a060020a03600435811690602435166044356116f0565b34801561077857600080fd5b506102bf6117b9565b34801561078d57600080fd5b506102bf600160a060020a03600435166117da565b3480156107ae57600080fd5b5061029c60043560243560443561180e565b3480156107cc57600080fd5b5061029c600160a060020a0360043516602435611872565b3480156107f057600080fd5b50610359600160a060020a03600435166118da565b34801561081157600080fd5b5061029c600160a060020a03600435166118f5565b34801561083257600080fd5b50610702600435611970565b34801561084a57600080fd5b506104cd611991565b34801561085f57600080fd5b5061029c600160a060020a03600435811690602435166044356119a0565b34801561088957600080fd5b50610359600160a060020a0360043516611a38565b3480156108aa57600080fd5b50610702600435611a4a565b3480156108c257600080fd5b5061029c600160a060020a0360043516611a76565b3480156108e357600080fd5b506108ec611aed565b604051808060200180602001838103835285818151815260200191508051906020019060200280838360005b83811015610930578181015183820152602001610918565b50505050905001838103825284818151815260200191508051906020019060200280838360005b8381101561096f578181015183820152602001610957565b5050505090500194505050505060405180910390f35b34801561099157600080fd5b5061029c600160a060020a0360043516611bf6565b3480156109b257600080fd5b5061029c6004351515611c4b565b60006109cb826112b8565b80156109f25750600160a060020a0382166000908152600360205260409020546002908116145b92915050565b60606002805480602002602001604051908101604052809291908181526020018280548015610a5057602002820191906000526020600020905b8154600160a060020a03168152600190910190602001808311610a32575b505050505090505b90565b60066020526000908152604090205481565b6000610a7761132d565b1515610abb576040805160e560020a62461bcd0281526020600482018190526024820152600080516020612534833981519152604482015290519081900360640190fd5b6109f2600283611cd7565b600154600160a060020a03163314610b28576040805160e560020a62461bcd0281526020600482015260266024820152600080516020612514833981519152604482015260d160020a6530b730b3b2b902606482015290519081900360840190fd5b610b3484848484611dc4565b600160a060020a038316600090815260066020526040902054610b5d908363ffffffff611e0916565b600160a060020a03909316600090815260066020526040902092909255505050565b600160a060020a031660009081526007602052604090205490565b60076020526000908152604090205481565b600154600160a060020a03163314610c0e576040805160e560020a62461bcd0281526020600482015260266024820152600080516020612514833981519152604482015260d160020a6530b730b3b2b902606482015290519081900360840190fd5b600160a060020a038216600090815260076020526040902054610c37908263ffffffff611e5216565b600160a060020a0390921660009081526007602052604090209190915550565b6000610c6161132d565b1515610ca5576040805160e560020a62461bcd0281526020600482018190526024820152600080516020612534833981519152604482015290519081900360640190fd5b5060005b600254811015610ce757610cdf600282815481101515610cc557fe5b600091825260209091200154600160a060020a031661133e565b600101610ca9565b50565b6000806000610cf885611eba565b8054909250610d0d908563ffffffff611f3916565b9050610d26826001015482611fd890919063ffffffff16565b92505b505092915050565b600160a060020a031660009081526008602052604090205490565b60046020526000908152604090205481565b600154600160a060020a03163314610dc0576040805160e560020a62461bcd0281526020600482015260266024820152600080516020612514833981519152604482015260d160020a6530b730b3b2b902606482015290519081900360840190fd5b600160a060020a03909116600090815260086020526040902055565b6002805482908110610dea57fe5b600091825260209091200154600160a060020a0316905081565b600154600160a060020a03163314610e66576040805160e560020a62461bcd0281526020600482015260266024820152600080516020612514833981519152604482015260d160020a6530b730b3b2b902606482015290519081900360840190fd5b600160a060020a0392831660009081526009602090815260408083209490951682529290925291902055565b600154600160a060020a03163314610ef4576040805160e560020a62461bcd0281526020600482015260266024820152600080516020612514833981519152604482015260d160020a6530b730b3b2b902606482015290519081900360840190fd5b600160a060020a03909116600090815260076020526040902055565b600154600160a060020a03163314610f72576040805160e560020a62461bcd0281526020600482015260266024820152600080516020612514833981519152604482015260d160020a6530b730b3b2b902606482015290519081900360840190fd5b600160a060020a038216600090815260086020526040902054610f9b908263ffffffff611e0916565b600160a060020a0390921660009081526008602052604090209190915550565b600154600160a060020a0316331461101d576040805160e560020a62461bcd0281526020600482015260266024820152600080516020612514833981519152604482015260d160020a6530b730b3b2b902606482015290519081900360840190fd5b600160a060020a038216600090815260086020526040902054610f9b908263ffffffff611e5216565b600160a060020a031660009081526006602052604090205490565b61106961132d565b15156110ad576040805160e560020a62461bcd0281526020600482018190526024820152600080516020612534833981519152604482015290519081900360640190fd5b60008054604051600160a060020a03909116907f8be0079c531659141344cd1fd0a4f28419497f9722a3daafe3b4186f6b6457e0908390a36000805473ffffffffffffffffffffffffffffffffffffffff19169055565b600154600160a060020a03163314611166576040805160e560020a62461bcd0281526020600482015260266024820152600080516020612514833981519152604482015260d160020a6530b730b3b2b902606482015290519081900360840190fd5b600160a060020a038216600090815260076020526040902054610c37908263ffffffff611e0916565b600154600160a060020a031633146111f1576040805160e560020a62461bcd0281526020600482015260266024820152600080516020612514833981519152604482015260d160020a6530b730b3b2b902606482015290519081900360840190fd5b600160a060020a03821660009081526006602052604090205461121a908263ffffffff611e5216565b600160a060020a0390921660009081526006602052604090209190915550565b600154600160a060020a0316331461129c576040805160e560020a62461bcd0281526020600482015260266024820152600080516020612514833981519152604482015260d160020a6530b730b3b2b902606482015290519081900360840190fd5b600160a060020a03909116600090815260066020526040902055565b60006109f2600280548060200260200160405190810160405280929190818152602001828054801561131357602002820191906000526020600020905b8154600160a060020a031681526001909101906020018083116112f5575b50505050508361201a565b600054600160a060020a031690565b600054600160a060020a0316331490565b60008061134961132d565b151561138d576040805160e560020a62461bcd0281526020600482018190526024820152600080516020612534833981519152604482015290519081900360640190fd5b600160a060020a038316600090815260046020526040812054925082116113fe576040805160e560020a62461bcd02815260206004820152601260248201527f4974277320656d7074792062616c616e63650000000000000000000000000000604482015290519081900360640190fd5b600160a060020a038316600081815260046020526040812055151561145057604051339083156108fc029084906000818181858888f1935050505015801561144a573d6000803e3d6000fd5b506114e9565b50604080517fa9059cbb0000000000000000000000000000000000000000000000000000000081523360048201526024810183905290518391600160a060020a0383169163a9059cbb916044808201926020929091908290030181600087803b1580156114bc57600080fd5b505af11580156114d0573d6000803e3d6000fd5b505050506040513d60208110156114e657600080fd5b50505b604080518381529051600160a060020a0385169133917f747147be90b2a81a2e929994a92cd7bb71396bdbfd02f181867c81187d4f79449181900360200190a3505050565b600154600160a060020a03163314611590576040805160e560020a62461bcd0281526020600482015260266024820152600080516020612514833981519152604482015260d160020a6530b730b3b2b902606482015290519081900360840190fd5b61159b83838361206b565b505050565b600154600160a060020a03163314611602576040805160e560020a62461bcd0281526020600482015260266024820152600080516020612514833981519152604482015260d160020a6530b730b3b2b902606482015290519081900360840190fd5b600160a060020a03821660009081526006602052604090205461121a908263ffffffff611e0916565b600160a060020a03808316600081815260076020908152604080832054600683528184205495871684526009835281842094845293909152812054909283929183808411156116b05761169484611688858563ffffffff611f3916565b9063ffffffff611fd816565b9050806116a7848263ffffffff611e0916565b955095506116ba565b6000955091935083915b505050509250929050565b600160a060020a03918216600090815260096020908152604080832093909416825291909152205490565b600154600160a060020a03163314611752576040805160e560020a62461bcd0281526020600482015260266024820152600080516020612514833981519152604482015260d160020a6530b730b3b2b902606482015290519081900360840190fd5b600160a060020a03808416600090815260096020908152604080832093861683529290522054611788908263ffffffff611e0916565b600160a060020a03938416600090815260096020908152604080832095909616825293909352929091209190915550565b60015474010000000000000000000000000000000000000000900460ff1681565b60006117e5826112b8565b80156109f2575050600160a060020a031660009081526003602052604090205460019081161490565b600061181861132d565b151561185c576040805160e560020a62461bcd0281526020600482018190526024820152600080516020612534833981519152604482015290519081900360640190fd5b61186584611eba565b9283555060019091015550565b61187a61132d565b15156118be576040805160e560020a62461bcd0281526020600482018190526024820152600080516020612534833981519152604482015290519081900360640190fd5b600160a060020a03909116600090815260036020526040902055565b600160a060020a031660009081526004602052604090205490565b6118fd61132d565b1515611941576040805160e560020a62461bcd0281526020600482018190526024820152600080516020612534833981519152604482015290519081900360640190fd5b6001805473ffffffffffffffffffffffffffffffffffffffff1916600160a060020a0392909216919091179055565b600080600061197e84611eba565b8054600190910154909590945092505050565b600154600160a060020a031690565b600154600160a060020a03163314611a02576040805160e560020a62461bcd0281526020600482015260266024820152600080516020612514833981519152604482015260d160020a6530b730b3b2b902606482015290519081900360840190fd5b600160a060020a03808416600090815260096020908152604080832093861683529290522054611788908263ffffffff611e5216565b60086020526000908152604090205481565b6005805482908110611a5857fe5b60009182526020909120600290910201805460019091015490915082565b611a7e61132d565b1515611ac2576040805160e560020a62461bcd0281526020600482018190526024820152600080516020612534833981519152604482015290519081900360640190fd5b611acd6002826121b1565b600160a060020a0316600090815260036020526040902063ffffffff9055565b60608060606000600280549050604051908082528060200260200182016040528015611b23578160200160208202803883390190505b509150600090505b600254811015611b8d5760046000600283815481101515611b4857fe5b6000918252602080832090910154600160a060020a031683528201929092526040019020548251839083908110611b7b57fe5b60209081029091010152600101611b2b565b60028281805480602002602001604051908101604052809291908181526020018280548015611be557602002820191906000526020600020905b8154600160a060020a03168152600190910190602001808311611bc7575b505050505091509350935050509091565b611bfe61132d565b1515611c42576040805160e560020a62461bcd0281526020600482018190526024820152600080516020612534833981519152604482015290519081900360640190fd5b610ce781612257565b611c5361132d565b1515611c97576040805160e560020a62461bcd0281526020600482018190526024820152600080516020612534833981519152604482015290519081900360640190fd5b60018054911515740100000000000000000000000000000000000000000274ff000000000000000000000000000000000000000019909216919091179055565b8154600090815b81811015611d265783600160a060020a03168582815481101515611cfe57fe5b600091825260209091200154600160a060020a03161415611d1e57611d26565b600101611cde565b81811015611db95760001982018114611d9f578460018303815481101515611d4a57fe5b6000918252602090912001548554600160a060020a0390911690869083908110611d7057fe5b9060005260206000200160006101000a815481600160a060020a030219169083600160a060020a031602179055505b8454611daf8660001983016124d6565b5060019250610d29565b506000949350505050565b6000821515611dd257611e02565b611ddc8284610cea565b9050611df88585611df3868563ffffffff611e0916565b61206b565b611e028482612345565b5050505050565b6000611e4b83836040805190810160405280601e81526020017f536166654d6174683a207375627472616374696f6e206f766572666c6f7700008152506123cd565b9392505050565b600082820183811015611eaf576040805160e560020a62461bcd02815260206004820152601b60248201527f536166654d6174683a206164646974696f6e206f766572666c6f770000000000604482015290519081900360640190fd5b8091505b5092915050565b6005546000908210611f16576040805160e560020a62461bcd02815260206004820152601260248201527f66656520747970652069732076616c6964210000000000000000000000000000604482015290519081900360640190fd5b6005805483908110611f2457fe5b90600052602060002090600202019050919050565b600080831515611f4c5760009150611eb3565b50828202828482811515611f5c57fe5b0414611eaf576040805160e560020a62461bcd02815260206004820152602160248201527f536166654d6174683a206d756c7469706c69636174696f6e206f766572666c6f60448201527f7700000000000000000000000000000000000000000000000000000000000000606482015290519081900360840190fd5b6000611e4b83836040805190810160405280601a81526020017f536166654d6174683a206469766973696f6e206279207a65726f00000000000081525061246a565b8151600090815b81811015611db95783600160a060020a0316858281518110151561204157fe5b90602001906020020151600160a060020a031614156120635760019250610d29565b600101612021565b6000811515612079576121ab565b600160a060020a03831615156120c557604051600160a060020a0385169083156108fc029084906000818181858888f193505050501580156120bf573d6000803e3d6000fd5b5061215f565b50604080517fa9059cbb000000000000000000000000000000000000000000000000000000008152600160a060020a038581166004830152602482018490529151849283169163a9059cbb9160448083019260209291908290030181600087803b15801561213257600080fd5b505af1158015612146573d6000803e3d6000fd5b505050506040513d602081101561215c57600080fd5b50505b82600160a060020a031684600160a060020a03167f8aaaec2388cc390cde69685f78340e15f36d424b6b6b595f549dd883931f9c9b846040518082815260200191505060405180910390a35b50505050565b6122148280548060200260200160405190810160405280929190818152602001828054801561220957602002820191906000526020600020905b8154600160a060020a031681526001909101906020018083116121eb575b50505050508261201a565b151561225357815460018101835560008381526020902001805473ffffffffffffffffffffffffffffffffffffffff1916600160a060020a0383161790555b5050565b600160a060020a03811615156122dd576040805160e560020a62461bcd02815260206004820152602660248201527f4f776e61626c653a206e6577206f776e657220697320746865207a65726f206160448201527f6464726573730000000000000000000000000000000000000000000000000000606482015290519081900360840190fd5b60008054604051600160a060020a03808516939216917f8be0079c531659141344cd1fd0a4f28419497f9722a3daafe3b4186f6b6457e091a36000805473ffffffffffffffffffffffffffffffffffffffff1916600160a060020a0392909216919091179055565b600081111561225357600160a060020a038216600090815260046020526040902054612377908263ffffffff611e5216565b600160a060020a038316600081815260046020908152604091829020939093558051848152905191927f1104eee7f034069140a0655d153038cedf9e65e5724018c555a8d56cfb6bee7792918290030190a25050565b60008082858511156124605760405160e560020a62461bcd0281526004018080602001828103825283818151815260200191508051906020019080838360005b8381101561242557818101518382015260200161240d565b50505050905090810190601f1680156124525780820380516001836020036101000a031916815260200191505b509250505060405180910390fd5b5050509103919050565b600080828185116124c05760405160e560020a62461bcd0281526004018080602001828103825283818151815260200191508051906020019080838360008381101561242557818101518382015260200161240d565b5083858115156124cc57fe5b0495945050505050565b81548183558181111561159b5760008381526020902061159b918101908301610a5891905b8082111561250f57600081556001016124fb565b509056004d616e6167657261626c653a2063616c6c6572206973206e6f7420746865204d4f776e61626c653a2063616c6c6572206973206e6f7420746865206f776e6572a165627a7a7230582077863c2a4d4bf787148a87161fe05bbe9f3a42ec884f5ab6f85e8a146acad3870029",
  "source": "pragma solidity ^0.4.26;\r\nimport \"./modules/SafeMath.sol\";\r\nimport \"./modules/Managerable.sol\";\r\nimport \"./modules/TransactionFee.sol\";\r\ncontract CollateralPool is Managerable,TransactionFee{\r\n    using SafeMath for uint256;\r\n       //token net worth\r\n    mapping (address => uint256) public netWorthBalances;\r\n    //address collaterel\r\n    mapping (address => uint256) public collateralBalances;\r\n    //user paying for collateral usd;\r\n    mapping (address => uint256) public userCollateralPaying;\r\n    //account -> collateral -> amount\r\n    mapping (address => mapping (address => uint256)) public userInputCollateral;\r\n\r\n    function () public payable onlyManager{\r\n\r\n    }\r\n    function getUserPayingUsd(address user)public view returns (uint256){\r\n        return userCollateralPaying[user];\r\n    }\r\n    function userInputCollateral(address user,address collateral)public view returns (uint256){\r\n        return userInputCollateral[user][collateral];\r\n    }\r\n\r\n    function getNetWorthBalance(address collateral)public view returns (uint256){\r\n        return netWorthBalances[collateral];\r\n    }\r\n    function getCollateralBalance(address collateral)public view returns (uint256){\r\n        return collateralBalances[collateral];\r\n    }\r\n\r\n    //add\r\n    function addUserPayingUsd(address user,uint256 amount)public onlyManager{\r\n        userCollateralPaying[user] = userCollateralPaying[user].add(amount);\r\n    }\r\n    function addUserInputCollateral(address user,address collateral,uint256 amount)public onlyManager{\r\n        userInputCollateral[user][collateral] = userInputCollateral[user][collateral].add(amount);\r\n    }\r\n\r\n    function addNetWorthBalance(address collateral,uint256 amount)public onlyManager{\r\n        netWorthBalances[collateral] = netWorthBalances[collateral].add(amount);\r\n    }\r\n    function addCollateralBalance(address collateral,uint256 amount)public onlyManager{\r\n        collateralBalances[collateral] = collateralBalances[collateral].add(amount);\r\n    }\r\n    //sub\r\n    function subUserPayingUsd(address user,uint256 amount)public onlyManager{\r\n        userCollateralPaying[user] = userCollateralPaying[user].sub(amount);\r\n    }\r\n    function subUserInputCollateral(address user,address collateral,uint256 amount)public onlyManager{\r\n        userInputCollateral[user][collateral] = userInputCollateral[user][collateral].sub(amount);\r\n    }\r\n\r\n    function subNetWorthBalance(address collateral,uint256 amount)public onlyManager{\r\n        netWorthBalances[collateral] = netWorthBalances[collateral].sub(amount);\r\n    }\r\n    function subCollateralBalance(address collateral,uint256 amount)public onlyManager{\r\n        collateralBalances[collateral] = collateralBalances[collateral].sub(amount);\r\n    }\r\n    //set\r\n    function setUserPayingUsd(address user,uint256 amount)public onlyManager{\r\n        userCollateralPaying[user] = amount;\r\n    }\r\n    function setUserInputCollateral(address user,address collateral,uint256 amount)public onlyManager{\r\n        userInputCollateral[user][collateral] = amount;\r\n    }\r\n\r\n    function setNetWorthBalance(address collateral,uint256 amount)public onlyManager{\r\n        netWorthBalances[collateral] = amount;\r\n    }\r\n    function setCollateralBalance(address collateral,uint256 amount)public onlyManager{\r\n        collateralBalances[collateral] = amount;\r\n    }\r\n    function transferPaybackAndFee(address recieptor,address settleMent,uint256 payback,\r\n            uint256 feeType)public onlyManager{\r\n        _transferPaybackAndFee(recieptor,settleMent,payback,feeType);\r\n        netWorthBalances[settleMent] = netWorthBalances[settleMent].sub(payback);\r\n    }\r\n    function transferPayback(address recieptor,address settlement,uint256 payback)public onlyManager{\r\n        _transferPayback(recieptor,settlement,payback);\r\n    }\r\n    //collateralBalances[tmpWhiteList[i]],netWorthBalances[tmpWhiteList[i]],userInputCollateral[msg.sender][tmpWhiteList[i]]\r\n    function calUserNetWorthBalanceRate(address settlement,address user)public view returns(uint256,uint256){\r\n        uint256 collateralBalance = collateralBalances[settlement];\r\n        uint256 netWorthBalance = netWorthBalances[settlement];\r\n        uint256 amount = userInputCollateral[user][settlement];\r\n        if (collateralBalance > 0){\r\n            uint256 curAmount = netWorthBalance.mul(amount).div(collateralBalance);\r\n            return (curAmount,netWorthBalance.sub(curAmount));\r\n        }else{\r\n            return (0,netWorthBalance);\r\n        }\r\n    }\r\n}",
  "sourcePath": "C:\\work\\solidity\\FinnexusOptions_V2\\contracts\\CollateralPool.sol",
  "compiler": {
    "name": "solc",
    "version": "0.4.26+commit.4563c3fc.Emscripten.clang"
  },
  "schemaVersion": "3.1.0",
  "updatedAt": "2020-08-01T12:28:46.208Z",
  "devdoc": {
    "methods": {
      "addWhiteList(address)": {
        "details": "Implementation of add an eligible address into the whitelist.\r",
        "params": {
          "addAddress": "new eligible address.\r"
        }
      },
      "getWhiteList()": {
        "details": "Implementation of getting the eligible whitelist.\r"
      },
      "isEligibleAddress(address)": {
        "details": "Implementation of testing whether the input address is eligible.\r",
        "params": {
          "tmpAddress": "input address for testing.\r"
        }
      },
      "isOwner()": {
        "details": "Returns true if the caller is the current owner."
      },
      "owner()": {
        "details": "Returns the address of the current owner."
      },
      "removeWhiteList(address)": {
        "details": "Implementation of revoke an invalid address from the whitelist.\r",
        "params": {
          "removeAddress": "revoked address.\r"
        }
      },
      "renounceOwnership()": {
        "details": "Leaves the contract without owner. It will not be possible to call `onlyOwner` functions anymore. Can only be called by the current owner.     * NOTE: Renouncing ownership will leave the contract without an owner, thereby removing any functionality that is only available to the owner."
      },
      "setTransactionFee(uint256,uint256,uint256)": {
        "details": "set the rate of trasaction fee.\r",
        "params": {
          "denominator": "thedenominator of transaction fee.\r transaction fee = numerator/denominator;\r",
          "feeType": "the transaction fee type\r",
          "numerator": "the numerator of transaction fee .\r"
        }
      },
      "transferOwnership(address)": {
        "details": "Transfers ownership of the contract to a new account (`newOwner`). Can only be called by the current owner."
      }
    }
  },
  "userdoc": {
    "methods": {
      "setHalt(bool)": {
        "notice": "function Emergency situation that requires contribution period to stop or not."
      },
      "setManager(address)": {
        "notice": "contribution period to stop or not."
      }
    }
  }
}