{
  "contractName": "CollateralPool",
  "abi": [
    {
      "constant": true,
      "inputs": [
        {
          "name": "tmpAddress",
          "type": "address"
        }
      ],
      "name": "checkAddressRedeemOut",
      "outputs": [
        {
          "name": "",
          "type": "bool"
        }
      ],
      "payable": false,
      "stateMutability": "view",
      "type": "function"
    },
    {
      "constant": true,
      "inputs": [],
      "name": "getWhiteList",
      "outputs": [
        {
          "name": "",
          "type": "address[]"
        }
      ],
      "payable": false,
      "stateMutability": "view",
      "type": "function"
    },
    {
      "constant": false,
      "inputs": [
        {
          "name": "removeAddress",
          "type": "address"
        }
      ],
      "name": "removeWhiteList",
      "outputs": [
        {
          "name": "",
          "type": "bool"
        }
      ],
      "payable": false,
      "stateMutability": "nonpayable",
      "type": "function"
    },
    {
      "constant": false,
      "inputs": [],
      "name": "redeemAll",
      "outputs": [],
      "payable": false,
      "stateMutability": "nonpayable",
      "type": "function"
    },
    {
      "constant": true,
      "inputs": [
        {
          "name": "feeType",
          "type": "uint256"
        },
        {
          "name": "amount",
          "type": "uint256"
        }
      ],
      "name": "calculateFee",
      "outputs": [
        {
          "name": "",
          "type": "uint256"
        }
      ],
      "payable": false,
      "stateMutability": "view",
      "type": "function"
    },
    {
      "constant": false,
      "inputs": [],
      "name": "renounceOwnership",
      "outputs": [],
      "payable": false,
      "stateMutability": "nonpayable",
      "type": "function"
    },
    {
      "constant": true,
      "inputs": [
        {
          "name": "tmpAddress",
          "type": "address"
        }
      ],
      "name": "isEligibleAddress",
      "outputs": [
        {
          "name": "",
          "type": "bool"
        }
      ],
      "payable": false,
      "stateMutability": "view",
      "type": "function"
    },
    {
      "constant": true,
      "inputs": [],
      "name": "owner",
      "outputs": [
        {
          "name": "",
          "type": "address"
        }
      ],
      "payable": false,
      "stateMutability": "view",
      "type": "function"
    },
    {
      "constant": true,
      "inputs": [],
      "name": "isOwner",
      "outputs": [
        {
          "name": "",
          "type": "bool"
        }
      ],
      "payable": false,
      "stateMutability": "view",
      "type": "function"
    },
    {
      "constant": false,
      "inputs": [
        {
          "name": "currency",
          "type": "address"
        }
      ],
      "name": "redeem",
      "outputs": [],
      "payable": false,
      "stateMutability": "nonpayable",
      "type": "function"
    },
    {
      "constant": true,
      "inputs": [
        {
          "name": "tmpAddress",
          "type": "address"
        }
      ],
      "name": "checkAddressPayIn",
      "outputs": [
        {
          "name": "",
          "type": "bool"
        }
      ],
      "payable": false,
      "stateMutability": "view",
      "type": "function"
    },
    {
      "constant": false,
      "inputs": [
        {
          "name": "feeType",
          "type": "uint256"
        },
        {
          "name": "numerator",
          "type": "uint256"
        },
        {
          "name": "denominator",
          "type": "uint256"
        }
      ],
      "name": "setTransactionFee",
      "outputs": [],
      "payable": false,
      "stateMutability": "nonpayable",
      "type": "function"
    },
    {
      "constant": false,
      "inputs": [
        {
          "name": "addAddress",
          "type": "address"
        },
        {
          "name": "permission",
          "type": "uint256"
        }
      ],
      "name": "modifyPermission",
      "outputs": [],
      "payable": false,
      "stateMutability": "nonpayable",
      "type": "function"
    },
    {
      "constant": true,
      "inputs": [
        {
          "name": "settlement",
          "type": "address"
        }
      ],
      "name": "getFeeBalance",
      "outputs": [
        {
          "name": "",
          "type": "uint256"
        }
      ],
      "payable": false,
      "stateMutability": "view",
      "type": "function"
    },
    {
      "constant": false,
      "inputs": [
        {
          "name": "managerAddress",
          "type": "address"
        }
      ],
      "name": "setManager",
      "outputs": [],
      "payable": false,
      "stateMutability": "nonpayable",
      "type": "function"
    },
    {
      "constant": true,
      "inputs": [
        {
          "name": "feeType",
          "type": "uint256"
        }
      ],
      "name": "getFeeRate",
      "outputs": [
        {
          "name": "",
          "type": "uint256"
        },
        {
          "name": "",
          "type": "uint256"
        }
      ],
      "payable": false,
      "stateMutability": "view",
      "type": "function"
    },
    {
      "constant": true,
      "inputs": [],
      "name": "getManager",
      "outputs": [
        {
          "name": "",
          "type": "address"
        }
      ],
      "payable": false,
      "stateMutability": "view",
      "type": "function"
    },
    {
      "constant": false,
      "inputs": [
        {
          "name": "addAddress",
          "type": "address"
        }
      ],
      "name": "addWhiteList",
      "outputs": [],
      "payable": false,
      "stateMutability": "nonpayable",
      "type": "function"
    },
    {
      "constant": true,
      "inputs": [],
      "name": "getAllFeeBalances",
      "outputs": [
        {
          "name": "",
          "type": "address[]"
        },
        {
          "name": "",
          "type": "uint256[]"
        }
      ],
      "payable": false,
      "stateMutability": "view",
      "type": "function"
    },
    {
      "constant": false,
      "inputs": [
        {
          "name": "newOwner",
          "type": "address"
        }
      ],
      "name": "transferOwnership",
      "outputs": [],
      "payable": false,
      "stateMutability": "nonpayable",
      "type": "function"
    },
    {
      "constant": false,
      "inputs": [
        {
          "name": "halt",
          "type": "bool"
        }
      ],
      "name": "setHalt",
      "outputs": [],
      "payable": false,
      "stateMutability": "nonpayable",
      "type": "function"
    },
    {
      "payable": true,
      "stateMutability": "payable",
      "type": "fallback"
    },
    {
      "anonymous": false,
      "inputs": [
        {
          "indexed": true,
          "name": "recieptor",
          "type": "address"
        },
        {
          "indexed": true,
          "name": "settlement",
          "type": "address"
        },
        {
          "indexed": false,
          "name": "payback",
          "type": "uint256"
        }
      ],
      "name": "FeePayback",
      "type": "event"
    },
    {
      "anonymous": false,
      "inputs": [
        {
          "indexed": true,
          "name": "settlement",
          "type": "address"
        },
        {
          "indexed": false,
          "name": "payback",
          "type": "uint256"
        }
      ],
      "name": "AddFee",
      "type": "event"
    },
    {
      "anonymous": false,
      "inputs": [
        {
          "indexed": true,
          "name": "recieptor",
          "type": "address"
        },
        {
          "indexed": true,
          "name": "settlement",
          "type": "address"
        },
        {
          "indexed": false,
          "name": "payback",
          "type": "uint256"
        }
      ],
      "name": "TransferPayback",
      "type": "event"
    },
    {
      "anonymous": false,
      "inputs": [
        {
          "indexed": true,
          "name": "previousOwner",
          "type": "address"
        },
        {
          "indexed": true,
          "name": "newOwner",
          "type": "address"
        }
      ],
      "name": "OwnershipTransferred",
      "type": "event"
    },
    {
      "constant": true,
      "inputs": [
        {
          "name": "user",
          "type": "address"
        }
      ],
      "name": "getUserPayingUsd",
      "outputs": [
        {
          "name": "",
          "type": "uint256"
        }
      ],
      "payable": false,
      "stateMutability": "view",
      "type": "function"
    },
    {
      "constant": true,
      "inputs": [
        {
          "name": "user",
          "type": "address"
        },
        {
          "name": "collateral",
          "type": "address"
        }
      ],
      "name": "getUserInputCollateral",
      "outputs": [
        {
          "name": "",
          "type": "uint256"
        }
      ],
      "payable": false,
      "stateMutability": "view",
      "type": "function"
    },
    {
      "constant": true,
      "inputs": [
        {
          "name": "collateral",
          "type": "address"
        }
      ],
      "name": "getNetWorthBalance",
      "outputs": [
        {
          "name": "",
          "type": "uint256"
        }
      ],
      "payable": false,
      "stateMutability": "view",
      "type": "function"
    },
    {
      "constant": true,
      "inputs": [
        {
          "name": "collateral",
          "type": "address"
        }
      ],
      "name": "getCollateralBalance",
      "outputs": [
        {
          "name": "",
          "type": "uint256"
        }
      ],
      "payable": false,
      "stateMutability": "view",
      "type": "function"
    },
    {
      "constant": false,
      "inputs": [
        {
          "name": "user",
          "type": "address"
        },
        {
          "name": "amount",
          "type": "uint256"
        }
      ],
      "name": "addUserPayingUsd",
      "outputs": [],
      "payable": false,
      "stateMutability": "nonpayable",
      "type": "function"
    },
    {
      "constant": false,
      "inputs": [
        {
          "name": "user",
          "type": "address"
        },
        {
          "name": "collateral",
          "type": "address"
        },
        {
          "name": "amount",
          "type": "uint256"
        }
      ],
      "name": "addUserInputCollateral",
      "outputs": [],
      "payable": false,
      "stateMutability": "nonpayable",
      "type": "function"
    },
    {
      "constant": false,
      "inputs": [
        {
          "name": "collateral",
          "type": "address"
        },
        {
          "name": "amount",
          "type": "uint256"
        }
      ],
      "name": "addNetWorthBalance",
      "outputs": [],
      "payable": false,
      "stateMutability": "nonpayable",
      "type": "function"
    },
    {
      "constant": false,
      "inputs": [
        {
          "name": "collateral",
          "type": "address"
        },
        {
          "name": "amount",
          "type": "uint256"
        }
      ],
      "name": "addCollateralBalance",
      "outputs": [],
      "payable": false,
      "stateMutability": "nonpayable",
      "type": "function"
    },
    {
      "constant": false,
      "inputs": [
        {
          "name": "user",
          "type": "address"
        },
        {
          "name": "amount",
          "type": "uint256"
        }
      ],
      "name": "subUserPayingUsd",
      "outputs": [],
      "payable": false,
      "stateMutability": "nonpayable",
      "type": "function"
    },
    {
      "constant": false,
      "inputs": [
        {
          "name": "user",
          "type": "address"
        },
        {
          "name": "collateral",
          "type": "address"
        },
        {
          "name": "amount",
          "type": "uint256"
        }
      ],
      "name": "subUserInputCollateral",
      "outputs": [],
      "payable": false,
      "stateMutability": "nonpayable",
      "type": "function"
    },
    {
      "constant": false,
      "inputs": [
        {
          "name": "collateral",
          "type": "address"
        },
        {
          "name": "amount",
          "type": "uint256"
        }
      ],
      "name": "subNetWorthBalance",
      "outputs": [],
      "payable": false,
      "stateMutability": "nonpayable",
      "type": "function"
    },
    {
      "constant": false,
      "inputs": [
        {
          "name": "collateral",
          "type": "address"
        },
        {
          "name": "amount",
          "type": "uint256"
        }
      ],
      "name": "subCollateralBalance",
      "outputs": [],
      "payable": false,
      "stateMutability": "nonpayable",
      "type": "function"
    },
    {
      "constant": false,
      "inputs": [
        {
          "name": "user",
          "type": "address"
        },
        {
          "name": "amount",
          "type": "uint256"
        }
      ],
      "name": "setUserPayingUsd",
      "outputs": [],
      "payable": false,
      "stateMutability": "nonpayable",
      "type": "function"
    },
    {
      "constant": false,
      "inputs": [
        {
          "name": "user",
          "type": "address"
        },
        {
          "name": "collateral",
          "type": "address"
        },
        {
          "name": "amount",
          "type": "uint256"
        }
      ],
      "name": "setUserInputCollateral",
      "outputs": [],
      "payable": false,
      "stateMutability": "nonpayable",
      "type": "function"
    },
    {
      "constant": false,
      "inputs": [
        {
          "name": "collateral",
          "type": "address"
        },
        {
          "name": "amount",
          "type": "uint256"
        }
      ],
      "name": "setNetWorthBalance",
      "outputs": [],
      "payable": false,
      "stateMutability": "nonpayable",
      "type": "function"
    },
    {
      "constant": false,
      "inputs": [
        {
          "name": "collateral",
          "type": "address"
        },
        {
          "name": "amount",
          "type": "uint256"
        }
      ],
      "name": "setCollateralBalance",
      "outputs": [],
      "payable": false,
      "stateMutability": "nonpayable",
      "type": "function"
    },
    {
      "constant": false,
      "inputs": [
        {
          "name": "recieptor",
          "type": "address"
        },
        {
          "name": "settleMent",
          "type": "address"
        },
        {
          "name": "payback",
          "type": "uint256"
        },
        {
          "name": "feeType",
          "type": "uint256"
        }
      ],
      "name": "transferPaybackAndFee",
      "outputs": [],
      "payable": false,
      "stateMutability": "nonpayable",
      "type": "function"
    },
    {
      "constant": false,
      "inputs": [
        {
          "name": "recieptor",
          "type": "address"
        },
        {
          "name": "settlement",
          "type": "address"
        },
        {
          "name": "payback",
          "type": "uint256"
        }
      ],
      "name": "transferPayback",
      "outputs": [],
      "payable": false,
      "stateMutability": "nonpayable",
      "type": "function"
    },
    {
      "constant": true,
      "inputs": [
        {
          "name": "settlement",
          "type": "address"
        },
        {
          "name": "user",
          "type": "address"
        }
      ],
      "name": "calUserNetWorthBalanceRate",
      "outputs": [
        {
          "name": "",
          "type": "uint256"
        },
        {
          "name": "",
          "type": "uint256"
        }
      ],
      "payable": false,
      "stateMutability": "view",
      "type": "function"
    }
  ],
  "bytecode": "0x608060408190526001805460a060020a60ff021916905560008054600160a060020a0319163317808255600160a060020a0316917f8be0079c531659141344cd1fd0a4f28419497f9722a3daafe3b4186f6b6457e0908290a360408051808201825260008082526103e860208084018281526005805460018181018355828752965160029182027f036b6384b5eca791c62761152d0c79bb0604c104a5fb6f4eb0703f3154bb3db08181019290925593517f036b6384b5eca791c62761152d0c79bb0604c104a5fb6f4eb0703f3154bb3db1948501558851808a018a52603281528086018781528454808b018655858a5291519184028084019290925551908501558851808a018a528781528086018781528454808b018655858a5291519184028084019290925551908501558851808a018a528781528086018781528454808b018655858a5291519184028084019290925551908501558851808a019099528689529388019485528154968701825594529451939092029182019290925590519101556123ac806101926000396000f3006080604052600436106101ed5763ffffffff7c0100000000000000000000000000000000000000000000000000000000600035041663059621d7811461025157806309a9d76c146102865780632042e5c2146102eb5780632454047c1461030c5780632703ee85146103395780632b2d50c31461036c5780632f4350c21461039057806334e73122146103a557806342049a72146103c05780635af107c5146103e15780635ed74bfd14610405578063632ba2b51461042f5780636560a9e714610453578063692a76a7146104775780636b6ecea81461049b5780636ba170b5146104bc578063715018a6146104e35780637a3e51d8146104f85780637b0640521461051c5780637d449c1914610540578063817bf86d146105645780638da5cb5b146105855780638f32d59b146105b657806395a2251f146105cb5780639994eb14146105ec578063a337f45014610616578063af830e511461063a578063b8446de11461067a578063bdac4bf6146106a4578063bf36b110146106c5578063c219043b146106e3578063c78f680314610707578063d0ebdbe714610728578063d2aaef4e14610749578063d500958414610761578063d56dbe8814610776578063e7cd4a04146107a0578063f20568cd146107c1578063f2fde38b1461086f578063f495438714610890575b600154600160a060020a0316331461024f576040805160e560020a62461bcd0281526020600482015260266024820152600080516020612341833981519152604482015260d160020a6530b730b3b2b902606482015290519081900360840190fd5b005b34801561025d57600080fd5b50610272600160a060020a03600435166108aa565b604080519115158252519081900360200190f35b34801561029257600080fd5b5061029b6108e2565b60408051602080825283518183015283519192839290830191858101910280838360005b838110156102d75781810151838201526020016102bf565b505050509050019250505060405180910390f35b3480156102f757600080fd5b50610272600160a060020a0360043516610945565b34801561031857600080fd5b5061024f600160a060020a036004358116906024351660443560643561099e565b34801561034557600080fd5b5061035a600160a060020a0360043516610a57565b60408051918252519081900360200190f35b34801561037857600080fd5b5061024f600160a060020a0360043516602435610a72565b34801561039c57600080fd5b5061024f610b1d565b3480156103b157600080fd5b5061035a600435602435610bb0565b3480156103cc57600080fd5b5061035a600160a060020a0360043516610bf7565b3480156103ed57600080fd5b5061024f600160a060020a0360043516602435610c12565b34801561041157600080fd5b5061024f600160a060020a0360043581169060243516604435610c90565b34801561043b57600080fd5b5061024f600160a060020a0360043516602435610d1e565b34801561045f57600080fd5b5061024f600160a060020a0360043516602435610d9c565b34801561048357600080fd5b5061024f600160a060020a0360043516602435610e47565b3480156104a757600080fd5b5061035a600160a060020a0360043516610ed2565b3480156104c857600080fd5b5061035a600160a060020a0360043581169060243516610eed565b3480156104ef57600080fd5b5061024f610f18565b34801561050457600080fd5b5061024f600160a060020a0360043516602435610fbb565b34801561052857600080fd5b5061024f600160a060020a0360043516602435611046565b34801561054c57600080fd5b5061024f600160a060020a03600435166024356110f1565b34801561057057600080fd5b50610272600160a060020a036004351661116f565b34801561059157600080fd5b5061059a6111d5565b60408051600160a060020a039092168252519081900360200190f35b3480156105c257600080fd5b506102726111e4565b3480156105d757600080fd5b5061024f600160a060020a03600435166111f5565b3480156105f857600080fd5b5061024f600160a060020a03600435811690602435166044356113e5565b34801561062257600080fd5b5061024f600160a060020a0360043516602435611457565b34801561064657600080fd5b50610661600160a060020a03600435811690602435166114e2565b6040805192835260208301919091528051918290030190f35b34801561068657600080fd5b5061024f600160a060020a036004358116906024351660443561157c565b3480156106b057600080fd5b50610272600160a060020a0360043516611645565b3480156106d157600080fd5b5061024f600435602435604435611679565b3480156106ef57600080fd5b5061024f600160a060020a03600435166024356116dd565b34801561071357600080fd5b5061035a600160a060020a0360043516611745565b34801561073457600080fd5b5061024f600160a060020a0360043516611760565b34801561075557600080fd5b506106616004356117db565b34801561076d57600080fd5b5061059a6117fc565b34801561078257600080fd5b5061024f600160a060020a036004358116906024351660443561180b565b3480156107ac57600080fd5b5061024f600160a060020a03600435166118a3565b3480156107cd57600080fd5b506107d661191a565b604051808060200180602001838103835285818151815260200191508051906020019060200280838360005b8381101561081a578181015183820152602001610802565b50505050905001838103825284818151815260200191508051906020019060200280838360005b83811015610859578181015183820152602001610841565b5050505090500194505050505060405180910390f35b34801561087b57600080fd5b5061024f600160a060020a0360043516611a23565b34801561089c57600080fd5b5061024f6004351515611a78565b60006108b58261116f565b80156108dc5750600160a060020a0382166000908152600360205260409020546002908116145b92915050565b6060600280548060200260200160405190810160405280929190818152602001828054801561093a57602002820191906000526020600020905b8154600160a060020a0316815260019091019060200180831161091c575b505050505090505b90565b600061094f6111e4565b1515610993576040805160e560020a62461bcd0281526020600482018190526024820152600080516020612361833981519152604482015290519081900360640190fd5b6108dc600283611b04565b600154600160a060020a03163314610a00576040805160e560020a62461bcd0281526020600482015260266024820152600080516020612341833981519152604482015260d160020a6530b730b3b2b902606482015290519081900360840190fd5b610a0c84848484611bf1565b600160a060020a038316600090815260066020526040902054610a35908363ffffffff611c3616565b600160a060020a03909316600090815260066020526040902092909255505050565b600160a060020a031660009081526007602052604090205490565b600154600160a060020a03163314610ad4576040805160e560020a62461bcd0281526020600482015260266024820152600080516020612341833981519152604482015260d160020a6530b730b3b2b902606482015290519081900360840190fd5b600160a060020a038216600090815260076020526040902054610afd908263ffffffff611c7f16565b600160a060020a0390921660009081526007602052604090209190915550565b6000610b276111e4565b1515610b6b576040805160e560020a62461bcd0281526020600482018190526024820152600080516020612361833981519152604482015290519081900360640190fd5b5060005b600254811015610bad57610ba5600282815481101515610b8b57fe5b600091825260209091200154600160a060020a03166111f5565b600101610b6f565b50565b6000806000610bbe85611ce7565b8054909250610bd3908563ffffffff611d6616565b9050610bec826001015482611e0590919063ffffffff16565b92505b505092915050565b600160a060020a031660009081526008602052604090205490565b600154600160a060020a03163314610c74576040805160e560020a62461bcd0281526020600482015260266024820152600080516020612341833981519152604482015260d160020a6530b730b3b2b902606482015290519081900360840190fd5b600160a060020a03909116600090815260086020526040902055565b600154600160a060020a03163314610cf2576040805160e560020a62461bcd0281526020600482015260266024820152600080516020612341833981519152604482015260d160020a6530b730b3b2b902606482015290519081900360840190fd5b600160a060020a0392831660009081526009602090815260408083209490951682529290925291902055565b600154600160a060020a03163314610d80576040805160e560020a62461bcd0281526020600482015260266024820152600080516020612341833981519152604482015260d160020a6530b730b3b2b902606482015290519081900360840190fd5b600160a060020a03909116600090815260076020526040902055565b600154600160a060020a03163314610dfe576040805160e560020a62461bcd0281526020600482015260266024820152600080516020612341833981519152604482015260d160020a6530b730b3b2b902606482015290519081900360840190fd5b600160a060020a038216600090815260086020526040902054610e27908263ffffffff611c3616565b600160a060020a0390921660009081526008602052604090209190915550565b600154600160a060020a03163314610ea9576040805160e560020a62461bcd0281526020600482015260266024820152600080516020612341833981519152604482015260d160020a6530b730b3b2b902606482015290519081900360840190fd5b600160a060020a038216600090815260086020526040902054610e27908263ffffffff611c7f16565b600160a060020a031660009081526006602052604090205490565b600160a060020a03918216600090815260096020908152604080832093909416825291909152205490565b610f206111e4565b1515610f64576040805160e560020a62461bcd0281526020600482018190526024820152600080516020612361833981519152604482015290519081900360640190fd5b60008054604051600160a060020a03909116907f8be0079c531659141344cd1fd0a4f28419497f9722a3daafe3b4186f6b6457e0908390a36000805473ffffffffffffffffffffffffffffffffffffffff19169055565b600154600160a060020a0316331461101d576040805160e560020a62461bcd0281526020600482015260266024820152600080516020612341833981519152604482015260d160020a6530b730b3b2b902606482015290519081900360840190fd5b600160a060020a038216600090815260076020526040902054610afd908263ffffffff611c3616565b600154600160a060020a031633146110a8576040805160e560020a62461bcd0281526020600482015260266024820152600080516020612341833981519152604482015260d160020a6530b730b3b2b902606482015290519081900360840190fd5b600160a060020a0382166000908152600660205260409020546110d1908263ffffffff611c7f16565b600160a060020a0390921660009081526006602052604090209190915550565b600154600160a060020a03163314611153576040805160e560020a62461bcd0281526020600482015260266024820152600080516020612341833981519152604482015260d160020a6530b730b3b2b902606482015290519081900360840190fd5b600160a060020a03909116600090815260066020526040902055565b60006108dc60028054806020026020016040519081016040528092919081815260200182805480156111ca57602002820191906000526020600020905b8154600160a060020a031681526001909101906020018083116111ac575b505050505083611e47565b600054600160a060020a031690565b600054600160a060020a0316331490565b6000806112006111e4565b1515611244576040805160e560020a62461bcd0281526020600482018190526024820152600080516020612361833981519152604482015290519081900360640190fd5b600160a060020a038316600090815260046020526040812054925082116112b5576040805160e560020a62461bcd02815260206004820152601260248201527f4974277320656d7074792062616c616e63650000000000000000000000000000604482015290519081900360640190fd5b600160a060020a038316600081815260046020526040812055151561130757604051339083156108fc029084906000818181858888f19350505050158015611301573d6000803e3d6000fd5b506113a0565b50604080517fa9059cbb0000000000000000000000000000000000000000000000000000000081523360048201526024810183905290518391600160a060020a0383169163a9059cbb916044808201926020929091908290030181600087803b15801561137357600080fd5b505af1158015611387573d6000803e3d6000fd5b505050506040513d602081101561139d57600080fd5b50505b604080518381529051600160a060020a0385169133917f747147be90b2a81a2e929994a92cd7bb71396bdbfd02f181867c81187d4f79449181900360200190a3505050565b600154600160a060020a03163314611447576040805160e560020a62461bcd0281526020600482015260266024820152600080516020612341833981519152604482015260d160020a6530b730b3b2b902606482015290519081900360840190fd5b611452838383611e98565b505050565b600154600160a060020a031633146114b9576040805160e560020a62461bcd0281526020600482015260266024820152600080516020612341833981519152604482015260d160020a6530b730b3b2b902606482015290519081900360840190fd5b600160a060020a0382166000908152600660205260409020546110d1908263ffffffff611c3616565b600160a060020a03808316600081815260076020908152604080832054600683528184205495871684526009835281842094845293909152812054909283929183808411156115675761154b8461153f858563ffffffff611d6616565b9063ffffffff611e0516565b90508061155e848263ffffffff611c3616565b95509550611571565b6000955091935083915b505050509250929050565b600154600160a060020a031633146115de576040805160e560020a62461bcd0281526020600482015260266024820152600080516020612341833981519152604482015260d160020a6530b730b3b2b902606482015290519081900360840190fd5b600160a060020a03808416600090815260096020908152604080832093861683529290522054611614908263ffffffff611c3616565b600160a060020a03938416600090815260096020908152604080832095909616825293909352929091209190915550565b60006116508261116f565b80156108dc575050600160a060020a031660009081526003602052604090205460019081161490565b60006116836111e4565b15156116c7576040805160e560020a62461bcd0281526020600482018190526024820152600080516020612361833981519152604482015290519081900360640190fd5b6116d084611ce7565b9283555060019091015550565b6116e56111e4565b1515611729576040805160e560020a62461bcd0281526020600482018190526024820152600080516020612361833981519152604482015290519081900360640190fd5b600160a060020a03909116600090815260036020526040902055565b600160a060020a031660009081526004602052604090205490565b6117686111e4565b15156117ac576040805160e560020a62461bcd0281526020600482018190526024820152600080516020612361833981519152604482015290519081900360640190fd5b6001805473ffffffffffffffffffffffffffffffffffffffff1916600160a060020a0392909216919091179055565b60008060006117e984611ce7565b8054600190910154909590945092505050565b600154600160a060020a031690565b600154600160a060020a0316331461186d576040805160e560020a62461bcd0281526020600482015260266024820152600080516020612341833981519152604482015260d160020a6530b730b3b2b902606482015290519081900360840190fd5b600160a060020a03808416600090815260096020908152604080832093861683529290522054611614908263ffffffff611c7f16565b6118ab6111e4565b15156118ef576040805160e560020a62461bcd0281526020600482018190526024820152600080516020612361833981519152604482015290519081900360640190fd5b6118fa600282611fde565b600160a060020a0316600090815260036020526040902063ffffffff9055565b60608060606000600280549050604051908082528060200260200182016040528015611950578160200160208202803883390190505b509150600090505b6002548110156119ba576004600060028381548110151561197557fe5b6000918252602080832090910154600160a060020a0316835282019290925260400190205482518390839081106119a857fe5b60209081029091010152600101611958565b60028281805480602002602001604051908101604052809291908181526020018280548015611a1257602002820191906000526020600020905b8154600160a060020a031681526001909101906020018083116119f4575b505050505091509350935050509091565b611a2b6111e4565b1515611a6f576040805160e560020a62461bcd0281526020600482018190526024820152600080516020612361833981519152604482015290519081900360640190fd5b610bad81612084565b611a806111e4565b1515611ac4576040805160e560020a62461bcd0281526020600482018190526024820152600080516020612361833981519152604482015290519081900360640190fd5b60018054911515740100000000000000000000000000000000000000000274ff000000000000000000000000000000000000000019909216919091179055565b8154600090815b81811015611b535783600160a060020a03168582815481101515611b2b57fe5b600091825260209091200154600160a060020a03161415611b4b57611b53565b600101611b0b565b81811015611be65760001982018114611bcc578460018303815481101515611b7757fe5b6000918252602090912001548554600160a060020a0390911690869083908110611b9d57fe5b9060005260206000200160006101000a815481600160a060020a030219169083600160a060020a031602179055505b8454611bdc866000198301612303565b5060019250610bef565b506000949350505050565b6000821515611bff57611c2f565b611c098284610bb0565b9050611c258585611c20868563ffffffff611c3616565b611e98565b611c2f8482612172565b5050505050565b6000611c7883836040805190810160405280601e81526020017f536166654d6174683a207375627472616374696f6e206f766572666c6f7700008152506121fa565b9392505050565b600082820183811015611cdc576040805160e560020a62461bcd02815260206004820152601b60248201527f536166654d6174683a206164646974696f6e206f766572666c6f770000000000604482015290519081900360640190fd5b8091505b5092915050565b6005546000908210611d43576040805160e560020a62461bcd02815260206004820152601260248201527f66656520747970652069732076616c6964210000000000000000000000000000604482015290519081900360640190fd5b6005805483908110611d5157fe5b90600052602060002090600202019050919050565b600080831515611d795760009150611ce0565b50828202828482811515611d8957fe5b0414611cdc576040805160e560020a62461bcd02815260206004820152602160248201527f536166654d6174683a206d756c7469706c69636174696f6e206f766572666c6f60448201527f7700000000000000000000000000000000000000000000000000000000000000606482015290519081900360840190fd5b6000611c7883836040805190810160405280601a81526020017f536166654d6174683a206469766973696f6e206279207a65726f000000000000815250612297565b8151600090815b81811015611be65783600160a060020a03168582815181101515611e6e57fe5b90602001906020020151600160a060020a03161415611e905760019250610bef565b600101611e4e565b6000811515611ea657611fd8565b600160a060020a0383161515611ef257604051600160a060020a0385169083156108fc029084906000818181858888f19350505050158015611eec573d6000803e3d6000fd5b50611f8c565b50604080517fa9059cbb000000000000000000000000000000000000000000000000000000008152600160a060020a038581166004830152602482018490529151849283169163a9059cbb9160448083019260209291908290030181600087803b158015611f5f57600080fd5b505af1158015611f73573d6000803e3d6000fd5b505050506040513d6020811015611f8957600080fd5b50505b82600160a060020a031684600160a060020a03167f8aaaec2388cc390cde69685f78340e15f36d424b6b6b595f549dd883931f9c9b846040518082815260200191505060405180910390a35b50505050565b6120418280548060200260200160405190810160405280929190818152602001828054801561203657602002820191906000526020600020905b8154600160a060020a03168152600190910190602001808311612018575b505050505082611e47565b151561208057815460018101835560008381526020902001805473ffffffffffffffffffffffffffffffffffffffff1916600160a060020a0383161790555b5050565b600160a060020a038116151561210a576040805160e560020a62461bcd02815260206004820152602660248201527f4f776e61626c653a206e6577206f776e657220697320746865207a65726f206160448201527f6464726573730000000000000000000000000000000000000000000000000000606482015290519081900360840190fd5b60008054604051600160a060020a03808516939216917f8be0079c531659141344cd1fd0a4f28419497f9722a3daafe3b4186f6b6457e091a36000805473ffffffffffffffffffffffffffffffffffffffff1916600160a060020a0392909216919091179055565b600081111561208057600160a060020a0382166000908152600460205260409020546121a4908263ffffffff611c7f16565b600160a060020a038316600081815260046020908152604091829020939093558051848152905191927f1104eee7f034069140a0655d153038cedf9e65e5724018c555a8d56cfb6bee7792918290030190a25050565b600080828585111561228d5760405160e560020a62461bcd0281526004018080602001828103825283818151815260200191508051906020019080838360005b8381101561225257818101518382015260200161223a565b50505050905090810190601f16801561227f5780820380516001836020036101000a031916815260200191505b509250505060405180910390fd5b5050509103919050565b600080828185116122ed5760405160e560020a62461bcd0281526004018080602001828103825283818151815260200191508051906020019080838360008381101561225257818101518382015260200161223a565b5083858115156122f957fe5b0495945050505050565b8154818355818111156114525760008381526020902061145291810190830161094291905b8082111561233c5760008155600101612328565b509056004d616e6167657261626c653a2063616c6c6572206973206e6f7420746865204d4f776e61626c653a2063616c6c6572206973206e6f7420746865206f776e6572a165627a7a72305820656841bbdccde1ffd8835c65a9c24985b83d529ee9e9696449a3dbcc12ec1d2c0029",
  "source": "pragma solidity ^0.4.26;\r\nimport \"./modules/SafeMath.sol\";\r\nimport \"./modules/Managerable.sol\";\r\nimport \"./modules/TransactionFee.sol\";\r\ncontract CollateralPool is Managerable,TransactionFee{\r\n    using SafeMath for uint256;\r\n       //token net worth\r\n    mapping (address => uint256) internal netWorthBalances;\r\n    //address collaterel\r\n    mapping (address => uint256) internal collateralBalances;\r\n    //user paying for collateral usd;\r\n    mapping (address => uint256) internal userCollateralPaying;\r\n    //account -> collateral -> amount\r\n    mapping (address => mapping (address => uint256)) internal userInputCollateral;\r\n\r\n    function () public payable onlyManager{\r\n\r\n    }\r\n    function getUserPayingUsd(address user)public view returns (uint256){\r\n        return userCollateralPaying[user];\r\n    }\r\n    function getUserInputCollateral(address user,address collateral)public view returns (uint256){\r\n        return userInputCollateral[user][collateral];\r\n    }\r\n\r\n    function getNetWorthBalance(address collateral)public view returns (uint256){\r\n        return netWorthBalances[collateral];\r\n    }\r\n    function getCollateralBalance(address collateral)public view returns (uint256){\r\n        return collateralBalances[collateral];\r\n    }\r\n\r\n    //add\r\n    function addUserPayingUsd(address user,uint256 amount)public onlyManager{\r\n        userCollateralPaying[user] = userCollateralPaying[user].add(amount);\r\n    }\r\n    function addUserInputCollateral(address user,address collateral,uint256 amount)public onlyManager{\r\n        userInputCollateral[user][collateral] = userInputCollateral[user][collateral].add(amount);\r\n    }\r\n\r\n    function addNetWorthBalance(address collateral,uint256 amount)public onlyManager{\r\n        netWorthBalances[collateral] = netWorthBalances[collateral].add(amount);\r\n    }\r\n    function addCollateralBalance(address collateral,uint256 amount)public onlyManager{\r\n        collateralBalances[collateral] = collateralBalances[collateral].add(amount);\r\n    }\r\n    //sub\r\n    function subUserPayingUsd(address user,uint256 amount)public onlyManager{\r\n        userCollateralPaying[user] = userCollateralPaying[user].sub(amount);\r\n    }\r\n    function subUserInputCollateral(address user,address collateral,uint256 amount)public onlyManager{\r\n        userInputCollateral[user][collateral] = userInputCollateral[user][collateral].sub(amount);\r\n    }\r\n\r\n    function subNetWorthBalance(address collateral,uint256 amount)public onlyManager{\r\n        netWorthBalances[collateral] = netWorthBalances[collateral].sub(amount);\r\n    }\r\n    function subCollateralBalance(address collateral,uint256 amount)public onlyManager{\r\n        collateralBalances[collateral] = collateralBalances[collateral].sub(amount);\r\n    }\r\n    //set\r\n    function setUserPayingUsd(address user,uint256 amount)public onlyManager{\r\n        userCollateralPaying[user] = amount;\r\n    }\r\n    function setUserInputCollateral(address user,address collateral,uint256 amount)public onlyManager{\r\n        userInputCollateral[user][collateral] = amount;\r\n    }\r\n\r\n    function setNetWorthBalance(address collateral,uint256 amount)public onlyManager{\r\n        netWorthBalances[collateral] = amount;\r\n    }\r\n    function setCollateralBalance(address collateral,uint256 amount)public onlyManager{\r\n        collateralBalances[collateral] = amount;\r\n    }\r\n    function transferPaybackAndFee(address recieptor,address settleMent,uint256 payback,\r\n            uint256 feeType)public onlyManager{\r\n        _transferPaybackAndFee(recieptor,settleMent,payback,feeType);\r\n        netWorthBalances[settleMent] = netWorthBalances[settleMent].sub(payback);\r\n    }\r\n    function transferPayback(address recieptor,address settlement,uint256 payback)public onlyManager{\r\n        _transferPayback(recieptor,settlement,payback);\r\n    }\r\n    //collateralBalances[tmpWhiteList[i]],netWorthBalances[tmpWhiteList[i]],userInputCollateral[msg.sender][tmpWhiteList[i]]\r\n    function calUserNetWorthBalanceRate(address settlement,address user)public view returns(uint256,uint256){\r\n        uint256 collateralBalance = collateralBalances[settlement];\r\n        uint256 netWorthBalance = netWorthBalances[settlement];\r\n        uint256 amount = userInputCollateral[user][settlement];\r\n        if (collateralBalance > 0){\r\n            uint256 curAmount = netWorthBalance.mul(amount).div(collateralBalance);\r\n            return (curAmount,netWorthBalance.sub(curAmount));\r\n        }else{\r\n            return (0,netWorthBalance);\r\n        }\r\n    }\r\n}",
  "sourcePath": "C:\\work\\solidity\\FinnexusOptions_V2\\contracts\\CollateralPool.sol",
  "compiler": {
    "name": "solc",
    "version": "0.4.26+commit.4563c3fc.Emscripten.clang"
  },
  "schemaVersion": "3.1.0",
  "updatedAt": "2020-08-03T14:27:23.322Z",
  "devdoc": {
    "methods": {
      "addWhiteList(address)": {
        "details": "Implementation of add an eligible address into the whitelist.\r",
        "params": {
          "addAddress": "new eligible address.\r"
        }
      },
      "getWhiteList()": {
        "details": "Implementation of getting the eligible whitelist.\r"
      },
      "isEligibleAddress(address)": {
        "details": "Implementation of testing whether the input address is eligible.\r",
        "params": {
          "tmpAddress": "input address for testing.\r"
        }
      },
      "isOwner()": {
        "details": "Returns true if the caller is the current owner."
      },
      "owner()": {
        "details": "Returns the address of the current owner."
      },
      "removeWhiteList(address)": {
        "details": "Implementation of revoke an invalid address from the whitelist.\r",
        "params": {
          "removeAddress": "revoked address.\r"
        }
      },
      "renounceOwnership()": {
        "details": "Leaves the contract without owner. It will not be possible to call `onlyOwner` functions anymore. Can only be called by the current owner.     * NOTE: Renouncing ownership will leave the contract without an owner, thereby removing any functionality that is only available to the owner."
      },
      "setTransactionFee(uint256,uint256,uint256)": {
        "details": "set the rate of trasaction fee.\r",
        "params": {
          "denominator": "thedenominator of transaction fee.\r transaction fee = numerator/denominator;\r",
          "feeType": "the transaction fee type\r",
          "numerator": "the numerator of transaction fee .\r"
        }
      },
      "transferOwnership(address)": {
        "details": "Transfers ownership of the contract to a new account (`newOwner`). Can only be called by the current owner."
      }
    }
  },
  "userdoc": {
    "methods": {
      "setHalt(bool)": {
        "notice": "function Emergency situation that requires contribution period to stop or not."
      },
      "setManager(address)": {
        "notice": "contribution period to stop or not."
      }
    }
  }
}