{
  "contractName": "CollateralPool",
  "abi": [
    {
      "constant": true,
      "inputs": [],
      "name": "name",
      "outputs": [
        {
          "name": "",
          "type": "string"
        }
      ],
      "payable": false,
      "stateMutability": "view",
      "type": "function"
    },
    {
      "constant": false,
      "inputs": [
        {
          "name": "spender",
          "type": "address"
        },
        {
          "name": "amount",
          "type": "uint256"
        }
      ],
      "name": "approve",
      "outputs": [
        {
          "name": "",
          "type": "bool"
        }
      ],
      "payable": false,
      "stateMutability": "nonpayable",
      "type": "function"
    },
    {
      "constant": true,
      "inputs": [],
      "name": "getWhiteList",
      "outputs": [
        {
          "name": "",
          "type": "address[]"
        }
      ],
      "payable": false,
      "stateMutability": "view",
      "type": "function"
    },
    {
      "constant": true,
      "inputs": [],
      "name": "lastCallOption",
      "outputs": [
        {
          "name": "",
          "type": "uint256"
        }
      ],
      "payable": false,
      "stateMutability": "view",
      "type": "function"
    },
    {
      "constant": true,
      "inputs": [],
      "name": "totalSupply",
      "outputs": [
        {
          "name": "",
          "type": "uint256"
        }
      ],
      "payable": false,
      "stateMutability": "view",
      "type": "function"
    },
    {
      "constant": false,
      "inputs": [
        {
          "name": "removeAddress",
          "type": "address"
        }
      ],
      "name": "removeWhiteList",
      "outputs": [
        {
          "name": "",
          "type": "bool"
        }
      ],
      "payable": false,
      "stateMutability": "nonpayable",
      "type": "function"
    },
    {
      "constant": false,
      "inputs": [
        {
          "name": "sender",
          "type": "address"
        },
        {
          "name": "recipient",
          "type": "address"
        },
        {
          "name": "amount",
          "type": "uint256"
        }
      ],
      "name": "transferFrom",
      "outputs": [
        {
          "name": "",
          "type": "bool"
        }
      ],
      "payable": false,
      "stateMutability": "nonpayable",
      "type": "function"
    },
    {
      "constant": true,
      "inputs": [
        {
          "name": "",
          "type": "address"
        }
      ],
      "name": "collateralBalances",
      "outputs": [
        {
          "name": "",
          "type": "uint256"
        }
      ],
      "payable": false,
      "stateMutability": "view",
      "type": "function"
    },
    {
      "constant": true,
      "inputs": [
        {
          "name": "",
          "type": "address"
        }
      ],
      "name": "premiumBalances",
      "outputs": [
        {
          "name": "",
          "type": "uint256"
        }
      ],
      "payable": false,
      "stateMutability": "view",
      "type": "function"
    },
    {
      "constant": false,
      "inputs": [],
      "name": "redeemAll",
      "outputs": [],
      "payable": false,
      "stateMutability": "nonpayable",
      "type": "function"
    },
    {
      "constant": true,
      "inputs": [],
      "name": "decimals",
      "outputs": [
        {
          "name": "",
          "type": "uint8"
        }
      ],
      "payable": false,
      "stateMutability": "view",
      "type": "function"
    },
    {
      "constant": true,
      "inputs": [
        {
          "name": "feeType",
          "type": "uint256"
        },
        {
          "name": "amount",
          "type": "uint256"
        }
      ],
      "name": "calculateFee",
      "outputs": [
        {
          "name": "",
          "type": "uint256"
        }
      ],
      "payable": false,
      "stateMutability": "view",
      "type": "function"
    },
    {
      "constant": true,
      "inputs": [],
      "name": "getUnderlyingAssets",
      "outputs": [
        {
          "name": "",
          "type": "uint32[]"
        }
      ],
      "payable": false,
      "stateMutability": "view",
      "type": "function"
    },
    {
      "constant": false,
      "inputs": [
        {
          "name": "spender",
          "type": "address"
        },
        {
          "name": "addedValue",
          "type": "uint256"
        }
      ],
      "name": "increaseAllowance",
      "outputs": [
        {
          "name": "",
          "type": "bool"
        }
      ],
      "payable": false,
      "stateMutability": "nonpayable",
      "type": "function"
    },
    {
      "constant": true,
      "inputs": [
        {
          "name": "",
          "type": "uint256"
        }
      ],
      "name": "underlyingAssets",
      "outputs": [
        {
          "name": "",
          "type": "uint32"
        }
      ],
      "payable": false,
      "stateMutability": "view",
      "type": "function"
    },
    {
      "constant": false,
      "inputs": [
        {
          "name": "oracle",
          "type": "address"
        }
      ],
      "name": "setOracleAddress",
      "outputs": [],
      "payable": false,
      "stateMutability": "nonpayable",
      "type": "function"
    },
    {
      "constant": true,
      "inputs": [
        {
          "name": "",
          "type": "address"
        }
      ],
      "name": "feeBalances",
      "outputs": [
        {
          "name": "",
          "type": "uint256"
        }
      ],
      "payable": false,
      "stateMutability": "view",
      "type": "function"
    },
    {
      "constant": true,
      "inputs": [
        {
          "name": "",
          "type": "address"
        },
        {
          "name": "",
          "type": "uint256"
        }
      ],
      "name": "optionsBalances",
      "outputs": [
        {
          "name": "",
          "type": "uint256"
        }
      ],
      "payable": false,
      "stateMutability": "view",
      "type": "function"
    },
    {
      "constant": true,
      "inputs": [],
      "name": "collateralRate",
      "outputs": [
        {
          "name": "numerator",
          "type": "uint256"
        },
        {
          "name": "denominator",
          "type": "uint256"
        }
      ],
      "payable": false,
      "stateMutability": "view",
      "type": "function"
    },
    {
      "constant": true,
      "inputs": [
        {
          "name": "",
          "type": "uint256"
        }
      ],
      "name": "whiteList",
      "outputs": [
        {
          "name": "",
          "type": "address"
        }
      ],
      "payable": false,
      "stateMutability": "view",
      "type": "function"
    },
    {
      "constant": true,
      "inputs": [
        {
          "name": "optionsId",
          "type": "uint256"
        },
        {
          "name": "amount",
          "type": "uint256"
        }
      ],
      "name": "getExerciseWorth",
      "outputs": [
        {
          "name": "",
          "type": "uint256"
        }
      ],
      "payable": false,
      "stateMutability": "view",
      "type": "function"
    },
    {
      "constant": true,
      "inputs": [
        {
          "name": "account",
          "type": "address"
        }
      ],
      "name": "balanceOf",
      "outputs": [
        {
          "name": "",
          "type": "uint256"
        }
      ],
      "payable": false,
      "stateMutability": "view",
      "type": "function"
    },
    {
      "constant": false,
      "inputs": [],
      "name": "renounceOwnership",
      "outputs": [],
      "payable": false,
      "stateMutability": "nonpayable",
      "type": "function"
    },
    {
      "constant": true,
      "inputs": [],
      "name": "getTotalOccupiedCollateral",
      "outputs": [
        {
          "name": "",
          "type": "uint256"
        }
      ],
      "payable": false,
      "stateMutability": "view",
      "type": "function"
    },
    {
      "constant": true,
      "inputs": [],
      "name": "lastCalBlock",
      "outputs": [
        {
          "name": "",
          "type": "uint256"
        }
      ],
      "payable": false,
      "stateMutability": "view",
      "type": "function"
    },
    {
      "constant": true,
      "inputs": [
        {
          "name": "tmpAddress",
          "type": "address"
        }
      ],
      "name": "isEligibleAddress",
      "outputs": [
        {
          "name": "",
          "type": "bool"
        }
      ],
      "payable": false,
      "stateMutability": "view",
      "type": "function"
    },
    {
      "constant": true,
      "inputs": [],
      "name": "owner",
      "outputs": [
        {
          "name": "",
          "type": "address"
        }
      ],
      "payable": false,
      "stateMutability": "view",
      "type": "function"
    },
    {
      "constant": true,
      "inputs": [
        {
          "name": "",
          "type": "uint256"
        }
      ],
      "name": "allOptions",
      "outputs": [
        {
          "name": "optionID",
          "type": "uint256"
        },
        {
          "name": "owner",
          "type": "address"
        },
        {
          "name": "optType",
          "type": "uint8"
        },
        {
          "name": "underlying",
          "type": "uint32"
        },
        {
          "name": "expiration",
          "type": "uint256"
        },
        {
          "name": "strikePrice",
          "type": "uint256"
        },
        {
          "name": "amount",
          "type": "uint256"
        },
        {
          "name": "ivNumerator",
          "type": "int256"
        },
        {
          "name": "ivDenominator",
          "type": "int256"
        }
      ],
      "payable": false,
      "stateMutability": "view",
      "type": "function"
    },
    {
      "constant": true,
      "inputs": [],
      "name": "isOwner",
      "outputs": [
        {
          "name": "",
          "type": "bool"
        }
      ],
      "payable": false,
      "stateMutability": "view",
      "type": "function"
    },
    {
      "constant": false,
      "inputs": [
        {
          "name": "currency",
          "type": "address"
        }
      ],
      "name": "redeem",
      "outputs": [],
      "payable": false,
      "stateMutability": "nonpayable",
      "type": "function"
    },
    {
      "constant": true,
      "inputs": [],
      "name": "symbol",
      "outputs": [
        {
          "name": "",
          "type": "string"
        }
      ],
      "payable": false,
      "stateMutability": "view",
      "type": "function"
    },
    {
      "constant": false,
      "inputs": [
        {
          "name": "index",
          "type": "uint256"
        }
      ],
      "name": "calculatePhaseOccupiedCollateral",
      "outputs": [],
      "payable": false,
      "stateMutability": "nonpayable",
      "type": "function"
    },
    {
      "constant": false,
      "inputs": [
        {
          "name": "spender",
          "type": "address"
        },
        {
          "name": "subtractedValue",
          "type": "uint256"
        }
      ],
      "name": "decreaseAllowance",
      "outputs": [
        {
          "name": "",
          "type": "bool"
        }
      ],
      "payable": false,
      "stateMutability": "nonpayable",
      "type": "function"
    },
    {
      "constant": false,
      "inputs": [
        {
          "name": "recipient",
          "type": "address"
        },
        {
          "name": "amount",
          "type": "uint256"
        }
      ],
      "name": "transfer",
      "outputs": [
        {
          "name": "",
          "type": "bool"
        }
      ],
      "payable": false,
      "stateMutability": "nonpayable",
      "type": "function"
    },
    {
      "constant": true,
      "inputs": [
        {
          "name": "",
          "type": "uint256"
        },
        {
          "name": "",
          "type": "uint256"
        },
        {
          "name": "",
          "type": "uint256"
        }
      ],
      "name": "burnBlockOptions",
      "outputs": [
        {
          "name": "",
          "type": "uint256"
        }
      ],
      "payable": false,
      "stateMutability": "view",
      "type": "function"
    },
    {
      "constant": false,
      "inputs": [
        {
          "name": "underlying",
          "type": "uint32"
        }
      ],
      "name": "addUnderlyingAsset",
      "outputs": [],
      "payable": false,
      "stateMutability": "nonpayable",
      "type": "function"
    },
    {
      "constant": true,
      "inputs": [],
      "name": "getOracleAddress",
      "outputs": [
        {
          "name": "",
          "type": "address"
        }
      ],
      "payable": false,
      "stateMutability": "view",
      "type": "function"
    },
    {
      "constant": true,
      "inputs": [
        {
          "name": "",
          "type": "address"
        },
        {
          "name": "",
          "type": "address"
        }
      ],
      "name": "userInputCollateral",
      "outputs": [
        {
          "name": "",
          "type": "uint256"
        }
      ],
      "payable": false,
      "stateMutability": "view",
      "type": "function"
    },
    {
      "constant": true,
      "inputs": [],
      "name": "halted",
      "outputs": [
        {
          "name": "",
          "type": "bool"
        }
      ],
      "payable": false,
      "stateMutability": "view",
      "type": "function"
    },
    {
      "constant": false,
      "inputs": [
        {
          "name": "feeType",
          "type": "uint256"
        },
        {
          "name": "numerator",
          "type": "uint256"
        },
        {
          "name": "denominator",
          "type": "uint256"
        }
      ],
      "name": "setTransactionFee",
      "outputs": [],
      "payable": false,
      "stateMutability": "nonpayable",
      "type": "function"
    },
    {
      "constant": true,
      "inputs": [],
      "name": "tokenNetWorth",
      "outputs": [
        {
          "name": "",
          "type": "uint256"
        }
      ],
      "payable": false,
      "stateMutability": "view",
      "type": "function"
    },
    {
      "constant": true,
      "inputs": [],
      "name": "optionPhase",
      "outputs": [
        {
          "name": "",
          "type": "uint32"
        }
      ],
      "payable": false,
      "stateMutability": "view",
      "type": "function"
    },
    {
      "constant": true,
      "inputs": [
        {
          "name": "settlement",
          "type": "address"
        }
      ],
      "name": "getFeeBalance",
      "outputs": [
        {
          "name": "",
          "type": "uint256"
        }
      ],
      "payable": false,
      "stateMutability": "view",
      "type": "function"
    },
    {
      "constant": true,
      "inputs": [
        {
          "name": "feeType",
          "type": "uint256"
        }
      ],
      "name": "getFeeRate",
      "outputs": [
        {
          "name": "",
          "type": "uint256"
        },
        {
          "name": "",
          "type": "uint256"
        }
      ],
      "payable": false,
      "stateMutability": "view",
      "type": "function"
    },
    {
      "constant": false,
      "inputs": [
        {
          "name": "removeUnderlying",
          "type": "uint32"
        }
      ],
      "name": "removeUnderlyingAssets",
      "outputs": [
        {
          "name": "",
          "type": "bool"
        }
      ],
      "payable": false,
      "stateMutability": "nonpayable",
      "type": "function"
    },
    {
      "constant": true,
      "inputs": [
        {
          "name": "underlying",
          "type": "uint32"
        }
      ],
      "name": "isEligibleUnderlyingAsset",
      "outputs": [
        {
          "name": "",
          "type": "bool"
        }
      ],
      "payable": false,
      "stateMutability": "view",
      "type": "function"
    },
    {
      "constant": true,
      "inputs": [
        {
          "name": "owner",
          "type": "address"
        },
        {
          "name": "spender",
          "type": "address"
        }
      ],
      "name": "allowance",
      "outputs": [
        {
          "name": "",
          "type": "uint256"
        }
      ],
      "payable": false,
      "stateMutability": "view",
      "type": "function"
    },
    {
      "constant": true,
      "inputs": [
        {
          "name": "",
          "type": "address"
        }
      ],
      "name": "userCollateralPaying",
      "outputs": [
        {
          "name": "",
          "type": "uint256"
        }
      ],
      "payable": false,
      "stateMutability": "view",
      "type": "function"
    },
    {
      "constant": true,
      "inputs": [
        {
          "name": "",
          "type": "uint256"
        }
      ],
      "name": "FeeRates",
      "outputs": [
        {
          "name": "numerator",
          "type": "uint256"
        },
        {
          "name": "denominator",
          "type": "uint256"
        }
      ],
      "payable": false,
      "stateMutability": "view",
      "type": "function"
    },
    {
      "constant": false,
      "inputs": [
        {
          "name": "addAddress",
          "type": "address"
        }
      ],
      "name": "addWhiteList",
      "outputs": [],
      "payable": false,
      "stateMutability": "nonpayable",
      "type": "function"
    },
    {
      "constant": true,
      "inputs": [
        {
          "name": "underlying",
          "type": "uint32"
        }
      ],
      "name": "checkUnderlyingAsset",
      "outputs": [],
      "payable": false,
      "stateMutability": "view",
      "type": "function"
    },
    {
      "constant": true,
      "inputs": [],
      "name": "getAllFeeBalances",
      "outputs": [
        {
          "name": "",
          "type": "address[]"
        },
        {
          "name": "",
          "type": "uint256[]"
        }
      ],
      "payable": false,
      "stateMutability": "view",
      "type": "function"
    },
    {
      "constant": false,
      "inputs": [
        {
          "name": "newOwner",
          "type": "address"
        }
      ],
      "name": "transferOwnership",
      "outputs": [],
      "payable": false,
      "stateMutability": "nonpayable",
      "type": "function"
    },
    {
      "constant": false,
      "inputs": [
        {
          "name": "halt",
          "type": "bool"
        }
      ],
      "name": "setHalt",
      "outputs": [],
      "payable": false,
      "stateMutability": "nonpayable",
      "type": "function"
    },
    {
      "constant": true,
      "inputs": [
        {
          "name": "tmpAddress",
          "type": "address"
        }
      ],
      "name": "checkEligibleAddress",
      "outputs": [],
      "payable": false,
      "stateMutability": "view",
      "type": "function"
    },
    {
      "anonymous": false,
      "inputs": [
        {
          "indexed": true,
          "name": "from",
          "type": "address"
        },
        {
          "indexed": true,
          "name": "to",
          "type": "address"
        },
        {
          "indexed": false,
          "name": "value",
          "type": "uint256"
        }
      ],
      "name": "Transfer",
      "type": "event"
    },
    {
      "anonymous": false,
      "inputs": [
        {
          "indexed": true,
          "name": "owner",
          "type": "address"
        },
        {
          "indexed": true,
          "name": "spender",
          "type": "address"
        },
        {
          "indexed": false,
          "name": "value",
          "type": "uint256"
        }
      ],
      "name": "Approval",
      "type": "event"
    },
    {
      "anonymous": false,
      "inputs": [
        {
          "indexed": true,
          "name": "recieptor",
          "type": "address"
        },
        {
          "indexed": true,
          "name": "settlement",
          "type": "address"
        },
        {
          "indexed": false,
          "name": "payback",
          "type": "uint256"
        }
      ],
      "name": "FeePayback",
      "type": "event"
    },
    {
      "anonymous": false,
      "inputs": [
        {
          "indexed": true,
          "name": "settlement",
          "type": "address"
        },
        {
          "indexed": false,
          "name": "payback",
          "type": "uint256"
        }
      ],
      "name": "AddFee",
      "type": "event"
    },
    {
      "anonymous": false,
      "inputs": [
        {
          "indexed": true,
          "name": "recieptor",
          "type": "address"
        },
        {
          "indexed": true,
          "name": "settlement",
          "type": "address"
        },
        {
          "indexed": false,
          "name": "payback",
          "type": "uint256"
        }
      ],
      "name": "TransferPayback",
      "type": "event"
    },
    {
      "anonymous": false,
      "inputs": [
        {
          "indexed": true,
          "name": "previousOwner",
          "type": "address"
        },
        {
          "indexed": true,
          "name": "newOwner",
          "type": "address"
        }
      ],
      "name": "OwnershipTransferred",
      "type": "event"
    },
    {
      "constant": false,
      "inputs": [
        {
          "name": "collateral",
          "type": "address"
        },
        {
          "name": "amount",
          "type": "uint256"
        }
      ],
      "name": "addCollateral",
      "outputs": [],
      "payable": true,
      "stateMutability": "payable",
      "type": "function"
    },
    {
      "constant": false,
      "inputs": [
        {
          "name": "tokenAmount",
          "type": "uint256"
        },
        {
          "name": "collateral",
          "type": "address"
        }
      ],
      "name": "redeemCollateral",
      "outputs": [],
      "payable": false,
      "stateMutability": "nonpayable",
      "type": "function"
    }
  ],
  "bytecode": "0x6002805460ff199081169091556402540be4006009556000600b55600c805463ffffffff19166101f417905560108054909116905560c0604052600a60808190527f536861726564436f696e0000000000000000000000000000000000000000000060a09081526200007591601191906200024c565b506040805180820190915260058082527f53436f696e0000000000000000000000000000000000000000000000000000006020909201918252620000bc916012916200024c565b50600060158190556402540be4006016556305f5e100601b558054600160a060020a0319163317808255604051600160a060020a039190911691907f8be0079c531659141344cd1fd0a4f28419497f9722a3daafe3b4186f6b6457e0908290a360408051808201825260038082526103e8602080840182815260058054600181810183556000838152975160029283027f036b6384b5eca791c62761152d0c79bb0604c104a5fb6f4eb0703f3154bb3db08181019290925594517f036b6384b5eca791c62761152d0c79bb0604c104a5fb6f4eb0703f3154bb3db1958601558951808b018b5288815280870188815285548085018755868c5291519185028084019290925551908601558951808b018b5288815280870188815285548085018755868c5291519185028084019290925551908601558951808b018b5288815280870188815285548085018755868c5291519185028084019290925551908601558951808b01909a5296895293880194855281549384018255955294519302918201929092559051910155620002f1565b828054600181600116156101000203166002900490600052602060002090601f016020900481019282601f106200028f57805160ff1916838001178555620002bf565b82800160010185558215620002bf579182015b82811115620002bf578251825591602001919060010190620002a2565b50620002cd929150620002d1565b5090565b620002ee91905b80821115620002cd5760008155600101620002d8565b90565b613d4d80620003016000396000f30060806040526004361061028f5763ffffffff60e060020a60003504166306fdde038114610294578063095ea7b31461031e57806309a9d76c14610356578063132a5627146103bb57806318160ddd146103e25780632042e5c2146103f757806323b872dd1461041857806329bc969d146104425780632b4f30ee146104635780632f4350c214610484578063313ce5671461049b57806334e73122146104c65780633582d789146104e157806339509351146104f65780633b50c4d11461051a5780634c69c00f1461054b57806353afc0251461056c57806355c47cb21461058d57806358a6be1c146105b15780635c475d42146105df57806367b8ceb9146106135780636d75b9ee1461062e57806370a0823114610645578063715018a61461066657806373a3d4241461067b5780637e2eeb7e14610690578063817bf86d146106a55780638da5cb5b146106c65780638ea745b8146106db5780638f32d59b1461074957806395a2251f1461075e57806395d89b411461077f57806399deae0a14610794578063a20a8045146107ac578063a457c2d7146107d0578063a9059cbb146107f4578063a95c594a14610818578063afec82fc14610836578063b18b78dd14610854578063b4d5a9c714610869578063b9b8af0b14610890578063bf36b110146108a5578063bf7f96df146108c3578063c27b7dfb146108d8578063c78f6803146108ed578063d2aaef4e1461090e578063d6d1401214610926578063db6ad2bd14610944578063dd62ed3e14610962578063ddb944e514610989578063e0561aa1146109aa578063e7cd4a04146109c2578063ee29c94a146109e3578063f20568cd14610a01578063f2fde38b14610aaf578063f495438714610ad0578063f939fdca14610aea575b600080fd5b3480156102a057600080fd5b506102a9610b0b565b6040805160208082528351818301528351919283929083019185019080838360005b838110156102e35781810151838201526020016102cb565b50505050905090810190601f1680156103105780820380516001836020036101000a031916815260200191505b509250505060405180910390f35b34801561032a57600080fd5b50610342600160a060020a0360043516602435610b99565b604080519115158252519081900360200190f35b34801561036257600080fd5b5061036b610baf565b60408051602080825283518183015283519192839290830191858101910280838360005b838110156103a757818101518382015260200161038f565b505050509050019250505060405180910390f35b3480156103c757600080fd5b506103d0610c12565b60408051918252519081900360200190f35b3480156103ee57600080fd5b506103d0610c18565b34801561040357600080fd5b50610342600160a060020a0360043516610c1e565b34801561042457600080fd5b50610342600160a060020a0360043581169060243516604435610c7d565b34801561044e57600080fd5b506103d0600160a060020a0360043516610d30565b34801561046f57600080fd5b506103d0600160a060020a0360043516610d42565b34801561049057600080fd5b50610499610d54565b005b3480156104a757600080fd5b506104b0610de7565b6040805160ff9092168252519081900360200190f35b3480156104d257600080fd5b506103d0600435602435610dec565b3480156104ed57600080fd5b5061036b610e31565b34801561050257600080fd5b50610342600160a060020a0360043516602435610eb4565b34801561052657600080fd5b50610532600435610ef0565b6040805163ffffffff9092168252519081900360200190f35b34801561055757600080fd5b50610499600160a060020a0360043516610f28565b34801561057857600080fd5b506103d0600160a060020a0360043516610fa3565b34801561059957600080fd5b506103d0600160a060020a0360043516602435610fb5565b3480156105bd57600080fd5b506105c6610fe5565b6040805192835260208301919091528051918290030190f35b3480156105eb57600080fd5b506105f7600435610fee565b60408051600160a060020a039092168252519081900360200190f35b34801561061f57600080fd5b506103d0600435602435611016565b610499600160a060020a0360043516602435611177565b34801561065157600080fd5b506103d0600160a060020a036004351661136c565b34801561067257600080fd5b50610499611387565b34801561068757600080fd5b506103d061142a565b34801561069c57600080fd5b506103d061170a565b3480156106b157600080fd5b50610342600160a060020a0360043516611710565b3480156106d257600080fd5b506105f761171d565b3480156106e757600080fd5b506106f360043561172c565b60408051998a52600160a060020a0390981660208a015260ff9096168888015263ffffffff9094166060880152608087019290925260a086015260c085015260e084015261010083015251908190036101200190f35b34801561075557600080fd5b506103426117b9565b34801561076a57600080fd5b50610499600160a060020a03600435166117ca565b34801561078b57600080fd5b506102a96119ba565b3480156107a057600080fd5b50610499600435611a15565b3480156107b857600080fd5b50610499600435600160a060020a0360243516611c9c565b3480156107dc57600080fd5b50610342600160a060020a0360043516602435611ed5565b34801561080057600080fd5b50610342600160a060020a0360043516602435611f6e565b34801561082457600080fd5b506103d0600435602435604435611f7b565b34801561084257600080fd5b5061049963ffffffff60043516611fbb565b34801561086057600080fd5b506105f7612012565b34801561087557600080fd5b506103d0600160a060020a0360043581169060243516612021565b34801561089c57600080fd5b5061034261203e565b3480156108b157600080fd5b50610499600435602435604435612047565b3480156108cf57600080fd5b506103d06120ab565b3480156108e457600080fd5b506105326120b1565b3480156108f957600080fd5b506103d0600160a060020a03600435166120bd565b34801561091a57600080fd5b506105c66004356120d8565b34801561093257600080fd5b5061034263ffffffff600435166120f9565b34801561095057600080fd5b5061034263ffffffff60043516612152565b34801561096e57600080fd5b506103d0600160a060020a036004358116906024351661215f565b34801561099557600080fd5b506103d0600160a060020a036004351661218a565b3480156109b657600080fd5b506105c660043561219c565b3480156109ce57600080fd5b50610499600160a060020a03600435166121c8565b3480156109ef57600080fd5b5061049963ffffffff6004351661221f565b348015610a0d57600080fd5b50610a1661222a565b604051808060200180602001838103835285818151815260200191508051906020019060200280838360005b83811015610a5a578181015183820152602001610a42565b50505050905001838103825284818151815260200191508051906020019060200280838360005b83811015610a99578181015183820152602001610a81565b5050505090500194505050505060405180910390f35b348015610abb57600080fd5b50610499600160a060020a0360043516612333565b348015610adc57600080fd5b506104996004351515612388565b348015610af657600080fd5b50610499600160a060020a03600435166123e7565b6011805460408051602060026001851615610100026000190190941693909304601f81018490048402820184019092528181529291830182828015610b915780601f10610b6657610100808354040283529160200191610b91565b820191906000526020600020905b815481529060010190602001808311610b7457829003601f168201915b505050505081565b6000610ba63384846123f2565b50600192915050565b60606003805480602002602001604051908101604052809291908181526020018280548015610c0757602002820191906000526020600020905b8154600160a060020a03168152600190910190602001808311610be9575b505050505090505b90565b600d5481565b60155490565b6000610c286117b9565b1515610c6c576040805160e560020a62461bcd0281526020600482018190526024820152600080516020613d02833981519152604482015290519081900360640190fd5b610c7760038361255f565b92915050565b6000610c8a848484612611565b60408051606081018252602881527f45524332303a207472616e7366657220616d6f756e74206578636565647320616020808301919091527f6c6c6f77616e636500000000000000000000000000000000000000000000000082840152600160a060020a0387166000908152601482528381203380835292529290922054610d269287929091610d2191879063ffffffff61278116565b6123f2565b5060019392505050565b60196020526000908152604090205481565b601a6020526000908152604090205481565b6000610d5e6117b9565b1515610da2576040805160e560020a62461bcd0281526020600482018190526024820152600080516020613d02833981519152604482015290519081900360640190fd5b5060005b600354811015610de457610ddc600382815481101515610dc257fe5b600091825260209091200154600160a060020a03166117ca565b600101610da6565b50565b601281565b6000806000610dfa8561281e565b8054909250610e0f908563ffffffff61289d16565b9050610e2882600101548261294390919063ffffffff16565b95945050505050565b60606001805480602002602001604051908101604052809291908181526020018280548015610c0757602002820191906000526020600020906000905b82829054906101000a900463ffffffff1663ffffffff1681526020019060040190602082600301049283019260010382029150808411610e6e5790505050505050905090565b336000818152601460209081526040808320600160a060020a03871684529091528120549091610ba6918590610d21908663ffffffff61298516565b6001805482908110610efe57fe5b9060005260206000209060089182820401919006600402915054906101000a900463ffffffff1681565b610f306117b9565b1515610f74576040805160e560020a62461bcd0281526020600482018190526024820152600080516020613d02833981519152604482015290519081900360640190fd5b6008805473ffffffffffffffffffffffffffffffffffffffff1916600160a060020a0392909216919091179055565b60046020526000908152604090205481565b600760205281600052604060002081815481101515610fd057fe5b90600052602060002001600091509150505481565b60175460185482565b6003805482908110610ffc57fe5b600091825260209091200154600160a060020a0316905081565b600080600080611025866129e2565b925061103083612a6e565b61103a8386612ac9565b6008546001840154604080517fda663257000000000000000000000000000000000000000000000000000000008152750100000000000000000000000000000000000000000090920463ffffffff16600483015251600160a060020a039092169163da663257916024808201926020929091908290030181600087803b1580156110c357600080fd5b505af11580156110d7573d6000803e3d6000fd5b505050506040513d60208110156110ed57600080fd5b505160018401549092506000915074010000000000000000000000000000000000000000900460ff16151561113557826003015482111561113057600383015490035b61114b565b826003015482101561114b578183600301540390505b80151561115b576000935061116e565b61116b818663ffffffff61289d16565b93505b50505092915050565b60008060006111868585612b29565b9350600084116111e0576040805160e560020a62461bcd02815260206004820152601a60248201527f736574746c656d656e7420616d6f756e74206973207a65726f21000000000000604482015290519081900360640190fd5b600160a060020a038516600090815260196020526040902054611209908563ffffffff61298516565b600160a060020a038616600081815260196020908152604080832094909455338252601d815283822092825291909152205461124b908563ffffffff61298516565b336000908152601d60209081526040808320600160a060020a038a81168086529184528285209590955560085482517f41976e090000000000000000000000000000000000000000000000000000000081526004810192909252915191909416936341976e099360248083019493928390030190829087803b1580156112d057600080fd5b505af11580156112e4573d6000803e3d6000fd5b505050506040513d60208110156112fa57600080fd5b5051925061130e838563ffffffff61289d16565b9150611325601b548361294390919063ffffffff16565b336000908152601c6020526040902054909150611348908363ffffffff61298516565b336000818152601c60205260409020919091556113659082612c5c565b5050505050565b600160a060020a031660009081526013602052604090205490565b61138f6117b9565b15156113d3576040805160e560020a62461bcd0281526020600482018190526024820152600080516020613d02833981519152604482015290519081900360640190fd5b60008054604051600160a060020a03909116907f8be0079c531659141344cd1fd0a4f28419497f9722a3daafe3b4186f6b6457e0908390a36000805473ffffffffffffffffffffffffffffffffffffffff19169055565b6000806060600080600080600061143f612d21565b600154604080518281526020808402820101909152919850801561146d578160200160208202803883390190505b509550600094505b6001548510156115575760085460018054600160a060020a039092169163da6632579190889081106114a357fe5b90600052602060002090600891828204019190066004029054906101000a900463ffffffff166040518263ffffffff1660e060020a028152600401808263ffffffff168152602001915050602060405180830381600087803b15801561150857600080fd5b505af115801561151c573d6000803e3d6000fd5b505050506040513d602081101561153257600080fd5b5051865187908790811061154257fe5b60209081029091010152600190940193611475565b600d5460010193505b600a548410156115ff576115a3600a8581548110151561157c57fe5b906000526020600020906007020160010160159054906101000a900463ffffffff16612d6c565b92506115f26115e5600a868154811015156115ba57fe5b906000526020600020906007020188868151811015156115d657fe5b90602001906020020151612d79565b889063ffffffff61298516565b9650600190930192611560565b600e5460010191505b4382116116fe575060008181526006602052604081209094505b80548510156116f357611659600a828781548110151561163e57fe5b60009182526020822060029091020101548154811061157c57fe5b92506116e66116d9600a838881548110151561167157fe5b60009182526020822060029091020101548154811061168c57fe5b906000526020600020906007020183888154811015156116a857fe5b600091825260209091206002909102016001015489878151811015156116ca57fe5b90602001906020020151612dec565b889063ffffffff612e4d16565b9650600190940193611622565b600190910190611608565b50949695505050505050565b600e5481565b6000610c77600383612e8f565b600054600160a060020a031690565b600a80548290811061173a57fe5b60009182526020909120600790910201805460018201546002830154600384015460048501546005860154600690960154949650600160a060020a0384169574010000000000000000000000000000000000000000850460ff1695750100000000000000000000000000000000000000000090950463ffffffff169489565b600054600160a060020a0316331490565b6000806117d56117b9565b1515611819576040805160e560020a62461bcd0281526020600482018190526024820152600080516020613d02833981519152604482015290519081900360640190fd5b600160a060020a0383166000908152600460205260408120549250821161188a576040805160e560020a62461bcd02815260206004820152601260248201527f4974277320656d7074792062616c616e63650000000000000000000000000000604482015290519081900360640190fd5b600160a060020a03831660008181526004602052604081205515156118dc57604051339083156108fc029084906000818181858888f193505050501580156118d6573d6000803e3d6000fd5b50611975565b50604080517fa9059cbb0000000000000000000000000000000000000000000000000000000081523360048201526024810183905290518391600160a060020a0383169163a9059cbb916044808201926020929091908290030181600087803b15801561194857600080fd5b505af115801561195c573d6000803e3d6000fd5b505050506040513d602081101561197257600080fd5b50505b604080518381529051600160a060020a0385169133917f747147be90b2a81a2e929994a92cd7bb71396bdbfd02f181867c81187d4f79449181900360200190a3505050565b6012805460408051602060026001851615610100026000190190941693909304601f81018490048402820184019092528181529291830182828015610b915780601f10610b6657610100808354040283529160200191610b91565b6000806060600080611a256117b9565b1515611a69576040805160e560020a62461bcd0281526020600482018190526024820152600080516020613d02833981519152604482015290519081900360640190fd5b600c54611a8190879063ffffffff9081169061289d16565b600a549095508510611a9257611c94565b600f54600187011115611ab05760018601611aae600f82613c8f565b505b600c54611ac890869063ffffffff9081169061298516565b600a54909450841115611adb57600a5493505b600154604080518281526020808402820101909152908015611b07578160200160208202803883390190505b509250600091505b600154821015611bf15760085460018054600160a060020a039092169163da663257919085908110611b3d57fe5b90600052602060002090600891828204019190066004029054906101000a900463ffffffff166040518263ffffffff1660e060020a028152600401808263ffffffff168152602001915050602060405180830381600087803b158015611ba257600080fd5b505af1158015611bb6573d6000803e3d6000fd5b505050506040513d6020811015611bcc57600080fd5b50518351849084908110611bdc57fe5b60209081029091010152600190910190611b0f565b5060005b83851015611c5c57611c0f600a8681548110151561157c57fe5b9550611c4f611c42600a87815481101515611c2657fe5b906000526020600020906007020185898151811015156115d657fe5b829063ffffffff61298516565b6001909501949050611bf5565b80600f87815481101515611c6c57fe5b906000526020600020018190555060018403600d541015611c94576000198401600d5543600e555b505050505050565b6000806000806000806000611cb088611710565b1515611d06576040805160e560020a62461bcd02815260206004820152601f60248201527f736574746c656d656e7420697320756e737570706f7274656420746f6b656e00604482015290519081900360640190fd5b33600090815260136020526040902054891115611d6d576040805160e560020a62461bcd02815260206004820152601e60248201527f53436f696e2062616c616e636520697320696e73756666696369656e74210000604482015290519081900360640190fd5b881515611d7957611eca565b611d8161142a565b9650611d9a601b5460155461289d90919063ffffffff16565b9550611db1601b548a61289d90919063ffffffff16565b945085611dc4888763ffffffff61298516565b11611eca5733600090815260136020908152604080832054601c90925290912054611e069190611dfa908c63ffffffff61289d16565b9063ffffffff61294316565b336000908152601c6020526040902054909450611e29908563ffffffff612e4d16565b336000818152601c6020526040902091909155611e46908a612ea8565b601b54611e5a908a9063ffffffff61289d16565b925060049150611e6b838984612f93565b9250600090505b600083118015611e83575060035481105b15611ec057611eb683600383815481101515611e9b57fe5b600091825260209091200154600160a060020a031684612f93565b9250600101611e72565b611eca838361319f565b505050505050505050565b60408051606081018252602581527f45524332303a2064656372656173656420616c6c6f77616e63652062656c6f776020808301919091527f207a65726f0000000000000000000000000000000000000000000000000000008284015233600081815260148352848120600160a060020a0388168252909252928120549092610ba69290918691610d219190879063ffffffff61278116565b6000610ba6338484612611565b600660205282600052604060002082815481101515611f9657fe5b906000526020600020906002020181600281101515611fb157fe5b0154925083915050565b611fc36117b9565b1515612007576040805160e560020a62461bcd0281526020600482018190526024820152600080516020613d02833981519152604482015290519081900360640190fd5b610de46001826131b0565b600854600160a060020a031690565b601d60209081526000928352604080842090915290825290205481565b60025460ff1681565b60006120516117b9565b1515612095576040805160e560020a62461bcd0281526020600482018190526024820152600080516020613d02833981519152604482015290519081900360640190fd5b61209e8461281e565b9283555060019091015550565b601b5481565b600c5463ffffffff1681565b600160a060020a031660009081526004602052604090205490565b60008060006120e68461281e565b8054600190910154909590945092505050565b60006121036117b9565b1515612147576040805160e560020a62461bcd0281526020600482018190526024820152600080516020613d02833981519152604482015290519081900360640190fd5b610c77600183613207565b6000610c776001836132b6565b600160a060020a03918216600090815260146020908152604080832093909416825291909152205490565b601c6020526000908152604090205481565b60058054829081106121aa57fe5b60009182526020909120600290910201805460019091015490915082565b6121d06117b9565b1515612214576040805160e560020a62461bcd0281526020600482018190526024820152600080516020613d02833981519152604482015290519081900360640190fd5b610de46003826132c3565b610de460018261331a565b60608060606000600380549050604051908082528060200260200182016040528015612260578160200160208202803883390190505b509150600090505b6003548110156122ca576004600060038381548110151561228557fe5b6000918252602080832090910154600160a060020a0316835282019290925260400190205482518390839081106122b857fe5b60209081029091010152600101612268565b6003828180548060200260200160405190810160405280929190818152602001828054801561232257602002820191906000526020600020905b8154600160a060020a03168152600190910190602001808311612304575b505050505091509350935050509091565b61233b6117b9565b151561237f576040805160e560020a62461bcd0281526020600482018190526024820152600080516020613d02833981519152604482015290519081900360640190fd5b610de481613381565b6123906117b9565b15156123d4576040805160e560020a62461bcd0281526020600482018190526024820152600080516020613d02833981519152604482015290519081900360640190fd5b6002805460ff1916911515919091179055565b610de460038261346f565b600160a060020a0383161515612477576040805160e560020a62461bcd028152602060048201526024808201527f45524332303a20617070726f76652066726f6d20746865207a65726f2061646460448201527f7265737300000000000000000000000000000000000000000000000000000000606482015290519081900360840190fd5b600160a060020a03821615156124fd576040805160e560020a62461bcd02815260206004820152602260248201527f45524332303a20617070726f766520746f20746865207a65726f20616464726560448201527f7373000000000000000000000000000000000000000000000000000000000000606482015290519081900360840190fd5b600160a060020a03808416600081815260146020908152604080832094871680845294825291829020859055815185815291517f8c5be1e5ebec7d5bd14f71427d1e84f3dd0314c0f7b2291e5b200ac8c7c3b9259281900390910190a3505050565b60008061256c84846134d6565b84549091508110156126055783546000190181146125eb5783548490600019810190811061259657fe5b6000918252602090912001548454600160a060020a03909116908590839081106125bc57fe5b9060005260206000200160006101000a815481600160a060020a030219169083600160a060020a031602179055505b83546125fb856000198301613c8f565b506001915061260a565b600091505b5092915050565b600160a060020a0383161515612697576040805160e560020a62461bcd02815260206004820152602560248201527f45524332303a207472616e736665722066726f6d20746865207a65726f20616460448201527f6472657373000000000000000000000000000000000000000000000000000000606482015290519081900360840190fd5b600160a060020a038216151561271d576040805160e560020a62461bcd02815260206004820152602360248201527f45524332303a207472616e7366657220746f20746865207a65726f206164647260448201527f6573730000000000000000000000000000000000000000000000000000000000606482015290519081900360840190fd5b6127278382613523565b61273182826135f2565b81600160a060020a031683600160a060020a03167fddf252ad1be2c89b69c2b068fc378daa952ba7f163c4a11628f55a4df523b3ef836040518082815260200191505060405180910390a3505050565b60008082858511156128145760405160e560020a62461bcd0281526004018080602001828103825283818151815260200191508051906020019080838360005b838110156127d95781810151838201526020016127c1565b50505050905090810190601f1680156128065780820380516001836020036101000a031916815260200191505b509250505060405180910390fd5b5050509103919050565b600554600090821061287a576040805160e560020a62461bcd02815260206004820152601260248201527f66656520747970652069732076616c6964210000000000000000000000000000604482015290519081900360640190fd5b600580548390811061288857fe5b90600052602060002090600202019050919050565b6000808315156128b0576000915061260a565b508282028284828115156128c057fe5b041461293c576040805160e560020a62461bcd02815260206004820152602160248201527f536166654d6174683a206d756c7469706c69636174696f6e206f766572666c6f60448201527f7700000000000000000000000000000000000000000000000000000000000000606482015290519081900360840190fd5b9392505050565b600061293c83836040805190810160405280601a81526020017f536166654d6174683a206469766973696f6e206279207a65726f0000000000008152506136a1565b60008282018381101561293c576040805160e560020a62461bcd02815260206004820152601b60248201527f536166654d6174683a206164646974696f6e206f766572666c6f770000000000604482015290519081900360640190fd5b600080821180156129f55750600a548211155b1515612a4b576040805160e560020a62461bcd02815260206004820152601660248201527f6f7074696f6e206964206973206e6f7420657869737400000000000000000000604482015290519081900360640190fd5b600a805483908110612a5957fe5b90600052602060002090600702019050919050565b60028101544210610de4576040805160e560020a62461bcd02815260206004820152601160248201527f6f7074696f6e2069732065787069726564000000000000000000000000000000604482015290519081900360640190fd5b6004820154811115612b25576040805160e560020a62461bcd02815260206004820152601d60248201527f6f7074696f6e20616d6f756e7420697320696e73756666696369656e74000000604482015290519081900360640190fd5b5050565b6000806000612b3785611710565b1515612b8d576040805160e560020a62461bcd02815260206004820152601f60248201527f736574746c656d656e7420697320756e737570706f7274656420746f6b656e00604482015290519081900360640190fd5b60009150600160a060020a0385161515612ba957349150612c54565b6000841115612c545750604080517f23b872dd0000000000000000000000000000000000000000000000000000000081523360048201523060248201526044810185905290518591600160a060020a038316916323b872dd916064808201926020929091908290030181600087803b158015612c2457600080fd5b505af1158015612c38573d6000803e3d6000fd5b505050506040513d6020811015612c4e57600080fd5b50849250505b509392505050565b600160a060020a0382161515612cbc576040805160e560020a62461bcd02815260206004820152601f60248201527f45524332303a206d696e7420746f20746865207a65726f206164647265737300604482015290519081900360640190fd5b601554612ccf908263ffffffff61298516565b601555612cdc82826135f2565b604080518281529051600160a060020a038416916000917fddf252ad1be2c89b69c2b068fc378daa952ba7f163c4a11628f55a4df523b3ef9181900360200190a35050565b600080805b600f54811015612d6657612d5c600f82815481101515612d4257fe5b90600052602060002001548361298590919063ffffffff16565b9150600101612d26565b50919050565b6000610c7760018361370d565b60038201546001830154600091829160ff7401000000000000000000000000000000000000000090910416159084101415612dce5760048401546003850154612dc79163ffffffff61289d16565b905061293c565b6004840154612de490849063ffffffff61289d16565b949350505050565b60038301546001840154600091829160ff7401000000000000000000000000000000000000000090910416159084101415612e3d576003850154612e36908563ffffffff61289d16565b9050612de4565b610e28838563ffffffff61289d16565b600061293c83836040805190810160405280601e81526020017f536166654d6174683a207375627472616374696f6e206f766572666c6f770000815250612781565b600080612e9c84846134d6565b93549093109392505050565b600160a060020a0382161515612f2e576040805160e560020a62461bcd02815260206004820152602160248201527f45524332303a206275726e2066726f6d20746865207a65726f2061646472657360448201527f7300000000000000000000000000000000000000000000000000000000000000606482015290519081900360840190fd5b612f388282613523565b601554612f4b908263ffffffff612e4d16565b601555604080518281529051600091600160a060020a038516917fddf252ad1be2c89b69c2b068fc378daa952ba7f163c4a11628f55a4df523b3ef9181900360200190a35050565b6000806000806000612fa487611710565b1515612ffa576040805160e560020a62461bcd02815260206004820152601f60248201527f736574746c656d656e7420697320756e737570706f7274656420746f6b656e00604482015290519081900360640190fd5b336000908152601d60209081526040808320600160a060020a038b168452909152902054935083151561302f57879450613194565b600854604080517f41976e09000000000000000000000000000000000000000000000000000000008152600160a060020a038a81166004830152915191909216916341976e099160248083019260209291908290030181600087803b15801561309757600080fd5b505af11580156130ab573d6000803e3d6000fd5b505050506040513d60208110156130c157600080fd5b505192506130d5888463ffffffff61294316565b91508115156130e75760009450613194565b8382116130f457816130f6565b835b336000908152601d60209081526040808320600160a060020a038c16845290915290205490915061312d908263ffffffff612e4d16565b336000818152601d60209081526040808320600160a060020a038d16845290915290209190915561316090888389613766565b8382111561318f5761318861317b828563ffffffff61289d16565b899063ffffffff612e4d16565b9450613194565b600094505b505050509392505050565b6131ab600183836137a4565b505050565b60006131bc838361370d565b83549091508114156131ab57508154600181018355600092835260209092206008830401805460079093166004026101000a63ffffffff818102199094169290931692909202179055565b600080613214848461370d565b84549091508110156126055783546000190181146132a65783548490600019810190811061323e57fe5b90600052602060002090600891828204019190066004029054906101000a900463ffffffff16848281548110151561327257fe5b90600052602060002090600891828204019190066004026101000a81548163ffffffff021916908363ffffffff1602179055505b83546125fb856000198301613cb3565b600080612e9c848461370d565b60006132cf83836134d6565b83549091508114156131ab578254600181018455600084815260209020018054600160a060020a03841673ffffffffffffffffffffffffffffffffffffffff19909116179055505050565b6000613326838361370d565b835490915081106131ab576040805160e560020a62461bcd02815260206004820152601e60248201527f77686974654c6973743a207573696e6720696e76616c69642076616c75650000604482015290519081900360640190fd5b600160a060020a0381161515613407576040805160e560020a62461bcd02815260206004820152602660248201527f4f776e61626c653a206e6577206f776e657220697320746865207a65726f206160448201527f6464726573730000000000000000000000000000000000000000000000000000606482015290519081900360840190fd5b60008054604051600160a060020a03808516939216917f8be0079c531659141344cd1fd0a4f28419497f9722a3daafe3b4186f6b6457e091a36000805473ffffffffffffffffffffffffffffffffffffffff1916600160a060020a0392909216919091179055565b600061347b83836134d6565b835490915081106131ab576040805160e560020a62461bcd02815260206004820181905260248201527f77686974654c6973743a207573696e6720696e76616c69642061646472657373604482015290519081900360640190fd5b6000805b835481101561293c5782600160a060020a031684828154811015156134fb57fe5b600091825260209091200154600160a060020a0316141561351b5761293c565b6001016134da565b600160a060020a03821615156135a9576040805160e560020a62461bcd02815260206004820152602360248201527f45524332303a207472616e7366657220746f20746865207a65726f206164647260448201527f6573730000000000000000000000000000000000000000000000000000000000606482015290519081900360840190fd5b600160a060020a0382166000908152601360205260409020546135d2908263ffffffff612e4d16565b600160a060020a0390921660009081526013602052604090209190915550565b600160a060020a0382161515613678576040805160e560020a62461bcd02815260206004820152602360248201527f45524332303a207472616e7366657220746f20746865207a65726f206164647260448201527f6573730000000000000000000000000000000000000000000000000000000000606482015290519081900360840190fd5b600160a060020a0382166000908152601360205260409020546135d2908263ffffffff61298516565b600080828185116136f75760405160e560020a62461bcd028152600401808060200182810382528381815181526020019150805190602001908083836000838110156127d95781810151838201526020016127c1565b50838581151561370357fe5b0495945050505050565b6000805b835481101561293c578263ffffffff16848281548110151561372f57fe5b6000918252602090912060088204015460079091166004026101000a900463ffffffff16141561375e5761293c565b600101613711565b600082151561377457611365565b61377e8284610dec565b905061379a8585613795868563ffffffff612e4d16565b613aca565b6113658482613c10565b600080808080808080808a15156137ba57613abb565b60008c60018111156137c857fe5b146137d457601a6137d7565b60195b97506000965060009550600094505b6003548510156139445761383788600060038881548110151561380557fe5b6000918252602080832090910154600160a060020a03168352820192909252604001902054889063ffffffff61298516565b60085460038054929950600160a060020a03909116916341976e0991908890811061385e57fe5b60009182526020808320909101546040805160e060020a63ffffffff8716028152600160a060020a0390921660048301525160248083019491928390030190829087803b1580156138ae57600080fd5b505af11580156138c2573d6000803e3d6000fd5b505050506040513d60208110156138d857600080fd5b5051600380549195506139389161392b918b91600091908a9081106138f957fe5b6000918252602080832090910154600160a060020a03168352820192909252604001902054869063ffffffff61289d16565b879063ffffffff61298516565b506001909401936137e6565b851515613953578a9850613abb565b8a9250858b111561396b57858b039a50859250613970565b60009a505b60165461398490849063ffffffff61289d16565b925061399a86611dfa858a63ffffffff61289d16565b9150600094505b600354851015613ab7576139fc601654611dfa89611dfa868d600060038d8154811015156139cb57fe5b6000918252602080832090910154600160a060020a031683528201929092526040019020549063ffffffff61289d16565b9050613a4581896000600389815481101515613a1457fe5b6000918252602080832090910154600160a060020a031683528201929092526040019020549063ffffffff612e4d16565b886000600388815481101515613a5757fe5b6000918252602080832090910154600160a060020a0316835282019290925260400190205560038054613aac91339188908110613a9057fe5b600091825260209091200154600160a060020a0316838d613766565b6001909401936139a1565b8a98505b50505050505050509392505050565b6000811515613ad857613c0a565b600160a060020a0383161515613b2457604051600160a060020a0385169083156108fc029084906000818181858888f19350505050158015613b1e573d6000803e3d6000fd5b50613bbe565b50604080517fa9059cbb000000000000000000000000000000000000000000000000000000008152600160a060020a038581166004830152602482018490529151849283169163a9059cbb9160448083019260209291908290030181600087803b158015613b9157600080fd5b505af1158015613ba5573d6000803e3d6000fd5b505050506040513d6020811015613bbb57600080fd5b50505b82600160a060020a031684600160a060020a03167f8aaaec2388cc390cde69685f78340e15f36d424b6b6b595f549dd883931f9c9b846040518082815260200191505060405180910390a35b50505050565b600160a060020a038216600090815260046020526040902054613c39908263ffffffff61298516565b600160a060020a038316600081815260046020908152604091829020939093558051848152905191927f1104eee7f034069140a0655d153038cedf9e65e5724018c555a8d56cfb6bee7792918290030190a25050565b8154818355818111156131ab576000838152602090206131ab918101908301613ce3565b8154818355818111156131ab5760070160089004816007016008900483600052602060002091820191016131ab91905b610c0f91905b80821115613cfd5760008155600101613ce9565b509056004f776e61626c653a2063616c6c6572206973206e6f7420746865206f776e6572a165627a7a72305820e6f993978ee897df858f18a570f3e788b401adccb9107ebf3923d26ba88cf5580029",
  "source": "pragma solidity ^0.4.26;\r\nimport \"./OptionsPool.sol\";\r\nimport \"./SafeMath.sol\";\r\nimport \"./ReentrancyGuard.sol\";\r\nimport \"./SharedCoin.sol\";\r\nimport \"./underlyingAssets.sol\";\r\n\r\ncontract CollateralPool is OptionsPool,ReentrancyGuard,SharedCoin {\r\n    using SafeMath for uint256;\r\n    uint256 private _calDecimal = 10000000000;\r\n    fraction public collateralRate;\r\n    enum eBalance{\r\n        collateral,\r\n        premium\r\n    }\r\n    //address collaterel\r\n    mapping (address => uint256) public collateralBalances;\r\n    mapping (address => uint256) public premiumBalances;\r\n    //token net worth till tillBlockNumber\r\n    uint256 public tokenNetWorth = 1e8;\r\n    //user paying for collateral usd;\r\n    mapping (address => uint256) public userCollateralPaying;\r\n    //account -> collateral -> amount\r\n    mapping (address => mapping (address => uint256)) public userInputCollateral;\r\n\r\n    function addCollateral(address collateral,uint256 amount)public payable {\r\n        amount = getPayableAmount(collateral,amount);\r\n        require(amount>0 , \"settlement amount is zero!\");\r\n        collateralBalances[collateral] = collateralBalances[collateral].add(amount);\r\n        userInputCollateral[msg.sender][collateral] = userInputCollateral[msg.sender][collateral].add(amount);\r\n        uint256 price = _oracle.getPrice(collateral);\r\n        uint256 userPaying = price.mul(amount);\r\n        uint256 mintAmount = userPaying.div(tokenNetWorth);\r\n        userCollateralPaying[msg.sender] = userCollateralPaying[msg.sender].add(userPaying);\r\n        _mint(msg.sender,mintAmount);\r\n    }\r\n    //calculate token\r\n    function redeemCollateral(uint256 tokenAmount,address collateral)public {\r\n        require(isEligibleAddress(collateral) , \"settlement is unsupported token\");\r\n        require(balances[msg.sender]>=tokenAmount,\"SCoin balance is insufficient!\");\r\n        if (tokenAmount == 0){\r\n            return;\r\n        }\r\n        uint256 totalOccupied = getTotalOccupiedCollateral();\r\n        uint256 totalWorth = _totalSupply.mul(tokenNetWorth);\r\n        uint256 redeemWorth = tokenAmount.mul(tokenNetWorth);\r\n        if (totalOccupied.add(redeemWorth)<=totalWorth) {\r\n            uint256 redeemPaying = userCollateralPaying[msg.sender].mul(tokenAmount).div(balances[msg.sender]);\r\n            userCollateralPaying[msg.sender] = userCollateralPaying[msg.sender].sub(redeemPaying);\r\n            _burn(msg.sender, tokenAmount);\r\n            uint256 worth = tokenAmount.mul(tokenNetWorth);\r\n            uint256 redeemColFee = 4;\r\n            worth = _redeemCollateral(worth,collateral,redeemColFee);\r\n            for (uint256 i=0;worth>0 && i<whiteList.length;i++){\r\n                worth = _redeemCollateral(worth,whiteList[i],redeemColFee);    \r\n            } \r\n            _paybackWorth(worth,redeemColFee);\r\n        }\r\n    }\r\n    function _redeemCollateral(uint256 worth,address collateral,uint256 feeType)internal returns (uint256){\r\n        require(isEligibleAddress(collateral) , \"settlement is unsupported token\");\r\n        uint256 amount = userInputCollateral[msg.sender][collateral];\r\n        if (amount == 0){\r\n            return worth;\r\n        }\r\n        uint256 price = _oracle.getPrice(collateral);\r\n        uint256 redeemAmount = worth.div(price);\r\n        if (redeemAmount == 0){\r\n            return 0;\r\n        }\r\n        uint256 transferAmount = (redeemAmount>amount) ? amount : redeemAmount;\r\n        userInputCollateral[msg.sender][collateral] = userInputCollateral[msg.sender][collateral].sub(transferAmount);\r\n        _transferPaybackAndFee(msg.sender,collateral,transferAmount,feeType);\r\n        if (redeemAmount>amount){\r\n            return worth.sub(transferAmount.mul(price));\r\n        }\r\n        return 0;\r\n    }\r\n    function _paybackWorth(uint256 worth,uint256 feeType) internal {\r\n        _paybackWorth_sub(eBalance.premium,worth,feeType);\r\n    }\r\n    function _paybackWorth_sub(eBalance _balance,uint256 worth,uint256 feeType) internal returns (uint256) {\r\n        if (worth == 0){\r\n            return;\r\n        }\r\n        mapping (address => uint256) balances = _balance == eBalance.collateral ? collateralBalances : premiumBalances;\r\n        uint256 totalNum = 0;\r\n        uint256 totalPrice = 0;\r\n        for (uint256 i=0;i<whiteList.length;i++){\r\n            totalNum = totalNum.add(balances[whiteList[i]]);\r\n            uint256 price = _oracle.getPrice(whiteList[i]);\r\n            totalPrice.add(price.mul(balances[whiteList[i]]));\r\n        }\r\n        if (totalPrice == 0){\r\n            return worth;\r\n        }\r\n        uint256 totalCal = worth;\r\n        if (worth > totalPrice){\r\n            worth = worth - totalPrice;\r\n            totalCal = totalPrice;\r\n        }else{\r\n            worth = 0;\r\n        }\r\n        totalCal = totalCal.mul(_calDecimal);\r\n        uint256 rate = totalCal.mul(totalNum).div(totalPrice);\r\n        for (i=0;i<whiteList.length;i++){\r\n            uint256 _payBack = balances[whiteList[i]].mul(rate).div(totalNum).div(_calDecimal);\r\n            balances[whiteList[i]] = balances[whiteList[i]].sub(_payBack);\r\n            _transferPaybackAndFee(msg.sender,whiteList[i],_payBack,feeType);\r\n        } \r\n        return worth;\r\n    }\r\n    function getPayableAmount(address settlement,uint256 settlementAmount) internal returns (uint256) {\r\n        require(isEligibleAddress(settlement) , \"settlement is unsupported token\");\r\n        uint256 colAmount = 0;\r\n        if (settlement == address(0)){\r\n            colAmount = msg.value;\r\n        }else if (settlementAmount > 0){\r\n            IERC20 oToken = IERC20(settlement);\r\n            oToken.transferFrom(msg.sender, address(this), settlementAmount);\r\n            colAmount = settlementAmount;\r\n        }\r\n        return colAmount;\r\n    }\r\n    function calculateCollateral(uint256 amount)internal view returns (uint256){\r\n        uint256 result = collateralRate.numerator.mul(amount);\r\n        return result.div(collateralRate.denominator);\r\n    }\r\n\r\n}",
  "sourcePath": "C:\\work\\solidity\\FinnexusOptions_V2\\contracts\\CollateralPool.sol",
  "compiler": {
    "name": "solc",
    "version": "0.4.26+commit.4563c3fc.Emscripten.clang"
  },
  "schemaVersion": "3.1.0",
  "updatedAt": "2020-07-17T09:23:12.907Z",
  "devdoc": {
    "methods": {
      "addUnderlyingAsset(uint32)": {
        "details": "Implementation of add an eligible underlying into the underlyingAssets.\r",
        "params": {
          "underlying": "new eligible underlying.\r"
        }
      },
      "addWhiteList(address)": {
        "details": "Implementation of add an eligible address into the whitelist.\r",
        "params": {
          "addAddress": "new eligible address.\r"
        }
      },
      "allowance(address,address)": {
        "details": "See {IERC20-allowance}.\r"
      },
      "approve(address,uint256)": {
        "details": "See {IERC20-approve}.\r      * Requirements:\r      * - `spender` cannot be the zero address.\r"
      },
      "balanceOf(address)": {
        "details": "See {IERC20-balanceOf}.\r"
      },
      "decreaseAllowance(address,uint256)": {
        "details": "Atomically decreases the allowance granted to `spender` by the caller.\r      * This is an alternative to {approve} that can be used as a mitigation for\r problems described in {IERC20-approve}.\r      * Emits an {Approval} event indicating the updated allowance.\r      * Requirements:\r      * - `spender` cannot be the zero address.\r - `spender` must have allowance for the caller of at least\r `subtractedValue`.\r"
      },
      "getUnderlyingAssets()": {
        "details": "Implementation of getting the eligible underlyingAssets.\r"
      },
      "getWhiteList()": {
        "details": "Implementation of getting the eligible whitelist.\r"
      },
      "increaseAllowance(address,uint256)": {
        "details": "Atomically increases the allowance granted to `spender` by the caller.\r      * This is an alternative to {approve} that can be used as a mitigation for\r problems described in {IERC20-approve}.\r      * Emits an {Approval} event indicating the updated allowance.\r      * Requirements:\r      * - `spender` cannot be the zero address.\r"
      },
      "isEligibleAddress(address)": {
        "details": "Implementation of testing whether the input address is eligible.\r",
        "params": {
          "tmpAddress": "input address for testing.\r"
        }
      },
      "isEligibleUnderlyingAsset(uint32)": {
        "details": "Implementation of testing whether the input underlying is eligible.\r",
        "params": {
          "underlying": "input underlying for testing.\r"
        }
      },
      "isOwner()": {
        "details": "Returns true if the caller is the current owner."
      },
      "owner()": {
        "details": "Returns the address of the current owner."
      },
      "removeUnderlyingAssets(uint32)": {
        "details": "Implementation of revoke an invalid underlying from the underlyingAssets.\r",
        "params": {
          "removeUnderlying": "revoked underlying.\r"
        }
      },
      "removeWhiteList(address)": {
        "details": "Implementation of revoke an invalid address from the whitelist.\r",
        "params": {
          "removeAddress": "revoked address.\r"
        }
      },
      "renounceOwnership()": {
        "details": "Leaves the contract without owner. It will not be possible to call `onlyOwner` functions anymore. Can only be called by the current owner.     * NOTE: Renouncing ownership will leave the contract without an owner, thereby removing any functionality that is only available to the owner."
      },
      "setTransactionFee(uint256,uint256,uint256)": {
        "details": "set the rate of trasaction fee.\r",
        "params": {
          "denominator": "thedenominator of transaction fee.\r transaction fee = numerator/denominator;\r",
          "feeType": "the transaction fee type\r",
          "numerator": "the numerator of transaction fee .\r"
        }
      },
      "totalSupply()": {
        "details": "See {IERC20-totalSupply}.\r"
      },
      "transfer(address,uint256)": {
        "details": "See {IERC20-transfer}.\r      * Requirements:\r      * - `recipient` cannot be the zero address.\r - the caller must have a balance of at least `amount`.\r"
      },
      "transferFrom(address,address,uint256)": {
        "details": "See {IERC20-transferFrom}.\r      * Emits an {Approval} event indicating the updated allowance. This is not\r required by the EIP. See the note at the beginning of {ERC20};\r      * Requirements:\r - `sender` and `recipient` cannot be the zero address.\r - `sender` must have a balance of at least `amount`.\r - the caller must have allowance for `sender`'s tokens of at least\r `amount`.\r"
      },
      "transferOwnership(address)": {
        "details": "Transfers ownership of the contract to a new account (`newOwner`). Can only be called by the current owner."
      }
    }
  },
  "userdoc": {
    "methods": {
      "setHalt(bool)": {
        "notice": "function Emergency situation that requires contribution period to stop or not."
      }
    }
  }
}