{
  "contractName": "CollateralCal",
  "abi": [
    {
      "anonymous": false,
      "inputs": [
        {
          "indexed": true,
          "internalType": "address",
          "name": "from",
          "type": "address"
        },
        {
          "indexed": true,
          "internalType": "address",
          "name": "collateral",
          "type": "address"
        },
        {
          "indexed": false,
          "internalType": "uint256",
          "name": "amount",
          "type": "uint256"
        },
        {
          "indexed": false,
          "internalType": "uint256",
          "name": "tokenAmount",
          "type": "uint256"
        }
      ],
      "name": "AddCollateral",
      "type": "event"
    },
    {
      "anonymous": false,
      "inputs": [
        {
          "indexed": true,
          "internalType": "address",
          "name": "from",
          "type": "address"
        },
        {
          "indexed": true,
          "internalType": "address",
          "name": "settlement",
          "type": "address"
        },
        {
          "indexed": true,
          "internalType": "uint256",
          "name": "optionId",
          "type": "uint256"
        },
        {
          "indexed": false,
          "internalType": "uint256",
          "name": "optionPrice",
          "type": "uint256"
        },
        {
          "indexed": false,
          "internalType": "uint256",
          "name": "settlementAmount",
          "type": "uint256"
        },
        {
          "indexed": false,
          "internalType": "uint256",
          "name": "optionAmount",
          "type": "uint256"
        }
      ],
      "name": "BuyOption",
      "type": "event"
    },
    {
      "anonymous": false,
      "inputs": [
        {
          "indexed": true,
          "internalType": "address",
          "name": "from",
          "type": "address"
        },
        {
          "indexed": true,
          "internalType": "uint256",
          "name": "optionId",
          "type": "uint256"
        },
        {
          "indexed": false,
          "internalType": "uint256",
          "name": "amount",
          "type": "uint256"
        },
        {
          "indexed": false,
          "internalType": "uint256",
          "name": "sellValue",
          "type": "uint256"
        }
      ],
      "name": "ExerciseOption",
      "type": "event"
    },
    {
      "anonymous": false,
      "inputs": [
        {
          "indexed": true,
          "internalType": "address",
          "name": "previousOwner",
          "type": "address"
        },
        {
          "indexed": true,
          "internalType": "address",
          "name": "newOwner",
          "type": "address"
        }
      ],
      "name": "OwnershipTransferred",
      "type": "event"
    },
    {
      "anonymous": false,
      "inputs": [
        {
          "indexed": true,
          "internalType": "address",
          "name": "from",
          "type": "address"
        },
        {
          "indexed": false,
          "internalType": "address",
          "name": "collateral",
          "type": "address"
        },
        {
          "indexed": false,
          "internalType": "uint256",
          "name": "allRedeem",
          "type": "uint256"
        }
      ],
      "name": "RedeemCollateral",
      "type": "event"
    },
    {
      "anonymous": false,
      "inputs": [
        {
          "indexed": true,
          "internalType": "address",
          "name": "from",
          "type": "address"
        },
        {
          "indexed": true,
          "internalType": "uint256",
          "name": "optionId",
          "type": "uint256"
        },
        {
          "indexed": false,
          "internalType": "uint256",
          "name": "amount",
          "type": "uint256"
        },
        {
          "indexed": false,
          "internalType": "uint256",
          "name": "sellValue",
          "type": "uint256"
        }
      ],
      "name": "SellOption",
      "type": "event"
    },
    {
      "constant": false,
      "inputs": [
        {
          "internalType": "address",
          "name": "addAddress",
          "type": "address"
        }
      ],
      "name": "addOperator",
      "outputs": [],
      "payable": false,
      "stateMutability": "nonpayable",
      "type": "function"
    },
    {
      "constant": false,
      "inputs": [
        {
          "internalType": "address",
          "name": "addAddress",
          "type": "address"
        }
      ],
      "name": "addWhiteList",
      "outputs": [],
      "payable": false,
      "stateMutability": "nonpayable",
      "type": "function"
    },
    {
      "constant": true,
      "inputs": [
        {
          "internalType": "address",
          "name": "tmpAddress",
          "type": "address"
        }
      ],
      "name": "checkAddressPayIn",
      "outputs": [
        {
          "internalType": "bool",
          "name": "",
          "type": "bool"
        }
      ],
      "payable": false,
      "stateMutability": "view",
      "type": "function"
    },
    {
      "constant": true,
      "inputs": [
        {
          "internalType": "address",
          "name": "tmpAddress",
          "type": "address"
        }
      ],
      "name": "checkAddressRedeemOut",
      "outputs": [
        {
          "internalType": "bool",
          "name": "",
          "type": "bool"
        }
      ],
      "payable": false,
      "stateMutability": "view",
      "type": "function"
    },
    {
      "constant": true,
      "inputs": [],
      "name": "getCollateralPoolAddress",
      "outputs": [
        {
          "internalType": "address",
          "name": "",
          "type": "address"
        }
      ],
      "payable": false,
      "stateMutability": "view",
      "type": "function"
    },
    {
      "constant": true,
      "inputs": [],
      "name": "getFPTCoinAddress",
      "outputs": [
        {
          "internalType": "address",
          "name": "",
          "type": "address"
        }
      ],
      "payable": false,
      "stateMutability": "view",
      "type": "function"
    },
    {
      "constant": true,
      "inputs": [],
      "name": "getOperator",
      "outputs": [
        {
          "internalType": "address[]",
          "name": "",
          "type": "address[]"
        }
      ],
      "payable": false,
      "stateMutability": "view",
      "type": "function"
    },
    {
      "constant": true,
      "inputs": [],
      "name": "getOptionsPoolAddress",
      "outputs": [
        {
          "internalType": "address",
          "name": "",
          "type": "address"
        }
      ],
      "payable": false,
      "stateMutability": "view",
      "type": "function"
    },
    {
      "constant": true,
      "inputs": [],
      "name": "getOptionsPriceAddress",
      "outputs": [
        {
          "internalType": "address",
          "name": "",
          "type": "address"
        }
      ],
      "payable": false,
      "stateMutability": "view",
      "type": "function"
    },
    {
      "constant": true,
      "inputs": [],
      "name": "getOracleAddress",
      "outputs": [
        {
          "internalType": "address",
          "name": "",
          "type": "address"
        }
      ],
      "payable": false,
      "stateMutability": "view",
      "type": "function"
    },
    {
      "constant": true,
      "inputs": [],
      "name": "getWhiteList",
      "outputs": [
        {
          "internalType": "address[]",
          "name": "",
          "type": "address[]"
        }
      ],
      "payable": false,
      "stateMutability": "view",
      "type": "function"
    },
    {
      "constant": true,
      "inputs": [
        {
          "internalType": "address",
          "name": "tmpAddress",
          "type": "address"
        }
      ],
      "name": "isEligibleAddress",
      "outputs": [
        {
          "internalType": "bool",
          "name": "",
          "type": "bool"
        }
      ],
      "payable": false,
      "stateMutability": "view",
      "type": "function"
    },
    {
      "constant": true,
      "inputs": [],
      "name": "isOwner",
      "outputs": [
        {
          "internalType": "bool",
          "name": "",
          "type": "bool"
        }
      ],
      "payable": false,
      "stateMutability": "view",
      "type": "function"
    },
    {
      "constant": false,
      "inputs": [
        {
          "internalType": "address",
          "name": "addAddress",
          "type": "address"
        },
        {
          "internalType": "uint256",
          "name": "permission",
          "type": "uint256"
        }
      ],
      "name": "modifyPermission",
      "outputs": [],
      "payable": false,
      "stateMutability": "nonpayable",
      "type": "function"
    },
    {
      "constant": true,
      "inputs": [],
      "name": "owner",
      "outputs": [
        {
          "internalType": "address",
          "name": "",
          "type": "address"
        }
      ],
      "payable": false,
      "stateMutability": "view",
      "type": "function"
    },
    {
      "constant": false,
      "inputs": [
        {
          "internalType": "address",
          "name": "removeAddress",
          "type": "address"
        }
      ],
      "name": "removeOperator",
      "outputs": [
        {
          "internalType": "bool",
          "name": "",
          "type": "bool"
        }
      ],
      "payable": false,
      "stateMutability": "nonpayable",
      "type": "function"
    },
    {
      "constant": false,
      "inputs": [
        {
          "internalType": "address",
          "name": "removeAddress",
          "type": "address"
        }
      ],
      "name": "removeWhiteList",
      "outputs": [
        {
          "internalType": "bool",
          "name": "",
          "type": "bool"
        }
      ],
      "payable": false,
      "stateMutability": "nonpayable",
      "type": "function"
    },
    {
      "constant": false,
      "inputs": [],
      "name": "renounceOwnership",
      "outputs": [],
      "payable": false,
      "stateMutability": "nonpayable",
      "type": "function"
    },
    {
      "constant": false,
      "inputs": [
        {
          "internalType": "address",
          "name": "collateralPool",
          "type": "address"
        }
      ],
      "name": "setCollateralPoolAddress",
      "outputs": [],
      "payable": false,
      "stateMutability": "nonpayable",
      "type": "function"
    },
    {
      "constant": false,
      "inputs": [
        {
          "internalType": "address",
          "name": "FPTCoinAddr",
          "type": "address"
        }
      ],
      "name": "setFPTCoinAddress",
      "outputs": [],
      "payable": false,
      "stateMutability": "nonpayable",
      "type": "function"
    },
    {
      "constant": false,
      "inputs": [
        {
          "internalType": "bool",
          "name": "halt",
          "type": "bool"
        }
      ],
      "name": "setHalt",
      "outputs": [],
      "payable": false,
      "stateMutability": "nonpayable",
      "type": "function"
    },
    {
      "constant": false,
      "inputs": [
        {
          "internalType": "address[]",
          "name": "operators",
          "type": "address[]"
        }
      ],
      "name": "setOperator",
      "outputs": [],
      "payable": false,
      "stateMutability": "nonpayable",
      "type": "function"
    },
    {
      "constant": false,
      "inputs": [
        {
          "internalType": "uint256",
          "name": "index",
          "type": "uint256"
        },
        {
          "internalType": "address",
          "name": "addAddress",
          "type": "address"
        }
      ],
      "name": "setOperator",
      "outputs": [],
      "payable": false,
      "stateMutability": "nonpayable",
      "type": "function"
    },
    {
      "constant": false,
      "inputs": [
        {
          "internalType": "address",
          "name": "optionsPool",
          "type": "address"
        }
      ],
      "name": "setOptionsPoolAddress",
      "outputs": [],
      "payable": false,
      "stateMutability": "nonpayable",
      "type": "function"
    },
    {
      "constant": false,
      "inputs": [
        {
          "internalType": "address",
          "name": "optionsPrice",
          "type": "address"
        }
      ],
      "name": "setOptionsPriceAddress",
      "outputs": [],
      "payable": false,
      "stateMutability": "nonpayable",
      "type": "function"
    },
    {
      "constant": false,
      "inputs": [
        {
          "internalType": "address",
          "name": "oracle",
          "type": "address"
        }
      ],
      "name": "setOracleAddress",
      "outputs": [],
      "payable": false,
      "stateMutability": "nonpayable",
      "type": "function"
    },
    {
      "constant": false,
      "inputs": [
        {
          "internalType": "address",
          "name": "newOwner",
          "type": "address"
        }
      ],
      "name": "transferOwnership",
      "outputs": [],
      "payable": false,
      "stateMutability": "nonpayable",
      "type": "function"
    },
    {
      "constant": true,
      "inputs": [],
      "name": "getInputAmountRange",
      "outputs": [
        {
          "internalType": "uint256",
          "name": "",
          "type": "uint256"
        },
        {
          "internalType": "uint256",
          "name": "",
          "type": "uint256"
        }
      ],
      "payable": false,
      "stateMutability": "view",
      "type": "function"
    },
    {
      "constant": false,
      "inputs": [
        {
          "internalType": "uint256",
          "name": "_minAmount",
          "type": "uint256"
        },
        {
          "internalType": "uint256",
          "name": "_maxAmount",
          "type": "uint256"
        }
      ],
      "name": "setInputAmountRange",
      "outputs": [],
      "payable": false,
      "stateMutability": "nonpayable",
      "type": "function"
    },
    {
      "constant": false,
      "inputs": [
        {
          "internalType": "address",
          "name": "settlement",
          "type": "address"
        },
        {
          "internalType": "uint256",
          "name": "amount",
          "type": "uint256"
        }
      ],
      "name": "addNetBalance",
      "outputs": [],
      "payable": true,
      "stateMutability": "payable",
      "type": "function"
    },
    {
      "constant": false,
      "inputs": [
        {
          "internalType": "address",
          "name": "collateral",
          "type": "address"
        },
        {
          "internalType": "uint256",
          "name": "colRate",
          "type": "uint256"
        }
      ],
      "name": "setCollateralRate",
      "outputs": [],
      "payable": false,
      "stateMutability": "nonpayable",
      "type": "function"
    },
    {
      "constant": true,
      "inputs": [
        {
          "internalType": "address",
          "name": "collateral",
          "type": "address"
        }
      ],
      "name": "getCollateralRate",
      "outputs": [
        {
          "internalType": "uint256",
          "name": "",
          "type": "uint256"
        }
      ],
      "payable": false,
      "stateMutability": "view",
      "type": "function"
    },
    {
      "constant": true,
      "inputs": [
        {
          "internalType": "address",
          "name": "user",
          "type": "address"
        }
      ],
      "name": "getUserPayingUsd",
      "outputs": [
        {
          "internalType": "uint256",
          "name": "",
          "type": "uint256"
        }
      ],
      "payable": false,
      "stateMutability": "view",
      "type": "function"
    },
    {
      "constant": true,
      "inputs": [
        {
          "internalType": "address",
          "name": "user",
          "type": "address"
        },
        {
          "internalType": "address",
          "name": "collateral",
          "type": "address"
        }
      ],
      "name": "userInputCollateral",
      "outputs": [
        {
          "internalType": "uint256",
          "name": "",
          "type": "uint256"
        }
      ],
      "payable": false,
      "stateMutability": "view",
      "type": "function"
    },
    {
      "constant": false,
      "inputs": [],
      "name": "calSharedPayment",
      "outputs": [],
      "payable": false,
      "stateMutability": "nonpayable",
      "type": "function"
    },
    {
      "constant": false,
      "inputs": [
        {
          "internalType": "int256[]",
          "name": "newNetworth",
          "type": "int256[]"
        },
        {
          "internalType": "int256[]",
          "name": "sharedBalances",
          "type": "int256[]"
        },
        {
          "internalType": "uint256",
          "name": "firstOption",
          "type": "uint256"
        }
      ],
      "name": "setSharedPayment",
      "outputs": [],
      "payable": false,
      "stateMutability": "nonpayable",
      "type": "function"
    },
    {
      "constant": true,
      "inputs": [
        {
          "internalType": "address",
          "name": "account",
          "type": "address"
        }
      ],
      "name": "getUserTotalWorth",
      "outputs": [
        {
          "internalType": "uint256",
          "name": "",
          "type": "uint256"
        }
      ],
      "payable": false,
      "stateMutability": "view",
      "type": "function"
    },
    {
      "constant": true,
      "inputs": [],
      "name": "getTokenNetworth",
      "outputs": [
        {
          "internalType": "uint256",
          "name": "",
          "type": "uint256"
        }
      ],
      "payable": false,
      "stateMutability": "view",
      "type": "function"
    },
    {
      "constant": false,
      "inputs": [
        {
          "internalType": "address",
          "name": "collateral",
          "type": "address"
        },
        {
          "internalType": "uint256",
          "name": "amount",
          "type": "uint256"
        }
      ],
      "name": "addCollateral",
      "outputs": [],
      "payable": true,
      "stateMutability": "payable",
      "type": "function"
    },
    {
      "constant": false,
      "inputs": [
        {
          "internalType": "uint256",
          "name": "tokenAmount",
          "type": "uint256"
        },
        {
          "internalType": "address",
          "name": "collateral",
          "type": "address"
        }
      ],
      "name": "redeemCollateral",
      "outputs": [],
      "payable": false,
      "stateMutability": "nonpayable",
      "type": "function"
    },
    {
      "constant": true,
      "inputs": [
        {
          "internalType": "address",
          "name": "account",
          "type": "address"
        }
      ],
      "name": "calCollateralWorth",
      "outputs": [
        {
          "internalType": "uint256[]",
          "name": "",
          "type": "uint256[]"
        }
      ],
      "payable": false,
      "stateMutability": "view",
      "type": "function"
    },
    {
      "constant": true,
      "inputs": [],
      "name": "getOccupiedCollateral",
      "outputs": [
        {
          "internalType": "uint256",
          "name": "",
          "type": "uint256"
        }
      ],
      "payable": false,
      "stateMutability": "view",
      "type": "function"
    },
    {
      "constant": true,
      "inputs": [],
      "name": "getAvailableCollateral",
      "outputs": [
        {
          "internalType": "uint256",
          "name": "",
          "type": "uint256"
        }
      ],
      "payable": false,
      "stateMutability": "view",
      "type": "function"
    },
    {
      "constant": true,
      "inputs": [],
      "name": "getLeftCollateral",
      "outputs": [
        {
          "internalType": "uint256",
          "name": "",
          "type": "uint256"
        }
      ],
      "payable": false,
      "stateMutability": "view",
      "type": "function"
    },
    {
      "constant": true,
      "inputs": [],
      "name": "getUnlockedCollateral",
      "outputs": [
        {
          "internalType": "uint256",
          "name": "",
          "type": "uint256"
        }
      ],
      "payable": false,
      "stateMutability": "view",
      "type": "function"
    },
    {
      "constant": true,
      "inputs": [
        {
          "internalType": "uint256",
          "name": "strikePrice",
          "type": "uint256"
        },
        {
          "internalType": "uint256",
          "name": "underlyingPrice",
          "type": "uint256"
        },
        {
          "internalType": "uint256",
          "name": "amount",
          "type": "uint256"
        },
        {
          "internalType": "uint8",
          "name": "optType",
          "type": "uint8"
        }
      ],
      "name": "calOptionsOccupied",
      "outputs": [
        {
          "internalType": "uint256",
          "name": "",
          "type": "uint256"
        }
      ],
      "payable": false,
      "stateMutability": "view",
      "type": "function"
    },
    {
      "constant": true,
      "inputs": [],
      "name": "getTotalCollateral",
      "outputs": [
        {
          "internalType": "uint256",
          "name": "",
          "type": "uint256"
        }
      ],
      "payable": false,
      "stateMutability": "view",
      "type": "function"
    },
    {
      "constant": true,
      "inputs": [
        {
          "internalType": "address",
          "name": "settlement",
          "type": "address"
        }
      ],
      "name": "getRealBalance",
      "outputs": [
        {
          "internalType": "int256",
          "name": "",
          "type": "int256"
        }
      ],
      "payable": false,
      "stateMutability": "view",
      "type": "function"
    },
    {
      "constant": true,
      "inputs": [
        {
          "internalType": "address",
          "name": "settlement",
          "type": "address"
        }
      ],
      "name": "getNetWorthBalance",
      "outputs": [
        {
          "internalType": "uint256",
          "name": "",
          "type": "uint256"
        }
      ],
      "payable": false,
      "stateMutability": "view",
      "type": "function"
    },
    {
      "constant": true,
      "inputs": [],
      "name": "calculateCollateralRate",
      "outputs": [
        {
          "internalType": "uint256",
          "name": "",
          "type": "uint256"
        }
      ],
      "payable": false,
      "stateMutability": "view",
      "type": "function"
    }
  ],
  "bytecode": "0x60806040526000805460ff60a860020a60ff0201191690556c0c9f2c9cd04674edea40000000600a55633b9aca00600b556105dc600c556101f4600d5534801561004857600080fd5b506146df806100586000396000f3fe6080604052600436106102cd5760003560e060020a90048063a20a804511610179578063cd405819116100e0578063e7a1c1c011610099578063f2fde38b11610073578063f2fde38b14610c22578063f495438714610c55578063f4fdc0c214610c81578063fb1052bf14610cba576102cd565b8063e7a1c1c014610ba1578063e7cd4a0414610bda578063e7f43c6814610c0d576102cd565b8063cd40581914610b05578063d6eb591014610b1a578063d7e5799214610b2f578063dab5512914610b44578063e28a327d14610b59578063e7122ffd14610b6e576102cd565b8063bc2c300211610132578063bc2c300214610a2c578063bc9abed214610a41578063bdac4bf614610a6f578063c040725a14610aa2578063c219043b14610ab7578063c5e5a3ed14610af0576102cd565b8063a20a804514610807578063a37c4fcf14610840578063a56ea40314610976578063ac8a584a146109a9578063b18b78dd146109dc578063b4d5a9c7146109f1576102cd565b80634c69c00f11610238578063817bf86d116101f15780638f32d59b116101cb5780638f32d59b1461075c5780639870d7fe146107715780639ab91a35146107a4578063a093e2d0146107d4576102cd565b8063817bf86d146106e85780638691a8c51461071b5780638da5cb5b14610747576102cd565b80634c69c00f146105f95780635ca4b73b1461062c5780636b6ecea8146106415780636d75b9ee14610674578063715018a6146106a057806377e071ad146106b5576102cd565b80632042e5c21161028a5780632042e5c214610440578063251e2fe31461047357806332c82a5f146104a457806342049a72146104e357806342082c1e14610516578063447dbeac146105c6576102cd565b8063059621d7146102d257806309a9d76c146103195780630aaf38321461037e5780630c80d691146103a55780631730b3cb146103d85780631a5a3fce1461040d575b600080fd5b3480156102de57600080fd5b50610305600480360360208110156102f557600080fd5b5035600160a060020a0316610ccf565b604080519115158252519081900360200190f35b34801561032557600080fd5b5061032e610d09565b60408051602080825283518183015283519192839290830191858101910280838360005b8381101561036a578181015183820152602001610352565b505050509050019250505060405180910390f35b34801561038a57600080fd5b50610393610d6c565b60408051918252519081900360200190f35b3480156103b157600080fd5b50610393600480360360208110156103c857600080fd5b5035600160a060020a0316610d8b565b3480156103e457600080fd5b5061040b600480360360208110156103fb57600080fd5b5035600160a060020a0316610ed1565b005b34801561041957600080fd5b5061040b6004803603602081101561043057600080fd5b5035600160a060020a0316610f3d565b34801561044c57600080fd5b506103056004803603602081101561046357600080fd5b5035600160a060020a0316610fa9565b34801561047f57600080fd5b50610488611006565b60408051600160a060020a039092168252519081900360200190f35b3480156104b057600080fd5b50610393600480360360808110156104c757600080fd5b508035906020810135906040810135906060013560ff16611015565b3480156104ef57600080fd5b506103936004803603602081101561050657600080fd5b5035600160a060020a0316611047565b34801561052257600080fd5b5061040b6004803603602081101561053957600080fd5b81019060208101813564010000000081111561055457600080fd5b82018360208201111561056657600080fd5b8035906020019184602083028401116401000000008311171561058857600080fd5b9190808060200260200160405190810160405280939291908181526020018383602002808284376000920191909152509295506110e3945050505050565b3480156105d257600080fd5b50610393600480360360208110156105e957600080fd5b5035600160a060020a0316611144565b34801561060557600080fd5b5061040b6004803603602081101561061c57600080fd5b5035600160a060020a031661127b565b34801561063857600080fd5b506104886112e7565b34801561064d57600080fd5b506103936004803603602081101561066457600080fd5b5035600160a060020a03166112f6565b61040b6004803603604081101561068a57600080fd5b50600160a060020a038135169060200135611451565b3480156106ac57600080fd5b5061040b611948565b3480156106c157600080fd5b50610393600480360360208110156106d857600080fd5b5035600160a060020a03166119ee565b3480156106f457600080fd5b506103056004803603602081101561070b57600080fd5b5035600160a060020a0316611a09565b61040b6004803603604081101561073157600080fd5b50600160a060020a038135169060200135611a78565b34801561075357600080fd5b50610488611b8a565b34801561076857600080fd5b50610305611b9e565b34801561077d57600080fd5b5061040b6004803603602081101561079457600080fd5b5035600160a060020a0316611bb4565b3480156107b057600080fd5b5061040b600480360360408110156107c757600080fd5b5080359060200135611c12565b3480156107e057600080fd5b5061040b600480360360208110156107f757600080fd5b5035600160a060020a0316611c67565b34801561081357600080fd5b5061040b6004803603604081101561082a57600080fd5b5080359060200135600160a060020a0316611cd3565b34801561084c57600080fd5b5061040b6004803603606081101561086357600080fd5b81019060208101813564010000000081111561087e57600080fd5b82018360208201111561089057600080fd5b803590602001918460208302840111640100000000831117156108b257600080fd5b919080806020026020016040519081016040528093929190818152602001838360200280828437600092019190915250929594936020810193503591505064010000000081111561090257600080fd5b82018360208201111561091457600080fd5b8035906020019184602083028401116401000000008311171561093657600080fd5b91908080602002602001604051908101604052809392919081815260200183836020028082843760009201919091525092955050913592506120e8915050565b34801561098257600080fd5b5061032e6004803603602081101561099957600080fd5b5035600160a060020a0316612388565b3480156109b557600080fd5b50610305600480360360208110156109cc57600080fd5b5035600160a060020a0316612476565b3480156109e857600080fd5b506104886124d3565b3480156109fd57600080fd5b5061039360048036036040811015610a1457600080fd5b50600160a060020a03813581169160200135166124e2565b348015610a3857600080fd5b5061040b612589565b348015610a4d57600080fd5b50610a56612c88565b6040805192835260208301919091528051918290030190f35b348015610a7b57600080fd5b5061030560048036036020811015610a9257600080fd5b5035600160a060020a0316612c92565b348015610aae57600080fd5b50610488612cc6565b348015610ac357600080fd5b5061040b60048036036040811015610ada57600080fd5b50600160a060020a038135169060200135612cd5565b348015610afc57600080fd5b50610393612d3b565b348015610b1157600080fd5b50610393612dfc565b348015610b2657600080fd5b50610393612e8d565b348015610b3b57600080fd5b50610488612f99565b348015610b5057600080fd5b50610393612fa8565b348015610b6557600080fd5b50610393613037565b348015610b7a57600080fd5b5061040b60048036036020811015610b9157600080fd5b5035600160a060020a0316613044565b348015610bad57600080fd5b5061040b60048036036040811015610bc457600080fd5b5080359060200135600160a060020a03166130b0565b348015610be657600080fd5b5061040b60048036036020811015610bfd57600080fd5b5035600160a060020a031661313a565b348015610c1957600080fd5b5061032e6131b5565b348015610c2e57600080fd5b5061040b60048036036020811015610c4557600080fd5b5035600160a060020a0316613215565b348015610c6157600080fd5b5061040b60048036036020811015610c7857600080fd5b50351515613268565b348015610c8d57600080fd5b5061040b60048036036040811015610ca457600080fd5b50600160a060020a0381351690602001356132f4565b348015610cc657600080fd5b50610393613363565b6000610cda82611a09565b8015610d015750600160a060020a0382166000908152600260208190526040909120548116145b90505b919050565b60606001805480602002602001604051908101604052809291908181526020018280548015610d6157602002820191906000526020600020905b8154600160a060020a03168152600190910190602001808311610d43575b505050505090505b90565b6000610d86610d79612e8d565b610d81612dfc565b613429565b905090565b600654604080517f6b6ecea8000000000000000000000000000000000000000000000000000000008152600160a060020a038481166004830152915160009384931691636b6ecea8916024808301926020929190829003018186803b158015610df357600080fd5b505afa158015610e07573d6000803e3d6000fd5b505050506040513d6020811015610e1d57600080fd5b5051600554604080517f7e1bcb76000000000000000000000000000000000000000000000000000000008152600160a060020a03878116600483015291519394506000939190921691637e1bcb76916024808301926020929190829003018186803b158015610e8b57600080fd5b505afa158015610e9f573d6000803e3d6000fd5b505050506040513d6020811015610eb557600080fd5b50519050610ec9828263ffffffff61344416565b949350505050565b610ed9611b9e565b610f1b576040805160e560020a62461bcd028152602060048201819052602482015260008051602061468b833981519152604482015290519081900360640190fd5b60068054600160a060020a031916600160a060020a0392909216919091179055565b610f45611b9e565b610f87576040805160e560020a62461bcd028152602060048201819052602482015260008051602061468b833981519152604482015290519081900360640190fd5b60058054600160a060020a031916600160a060020a0392909216919091179055565b6000610fb3611b9e565b610ff5576040805160e560020a62461bcd028152602060048201819052602482015260008051602061468b833981519152604482015290519081900360640190fd5b610d0160018363ffffffff61348616565b600654600160a060020a031690565b60008060ff831615858711141561102f5750848302611034565b508383025b61103d81613574565b9695505050505050565b600654604080517f42049a72000000000000000000000000000000000000000000000000000000008152600160a060020a038481166004830152915160009392909216916342049a7291602480820192602092909190829003018186803b1580156110b157600080fd5b505afa1580156110c5573d6000803e3d6000fd5b505050506040513d60208110156110db57600080fd5b505192915050565b6110eb611b9e565b61112d576040805160e560020a62461bcd028152602060048201819052602482015260008051602061468b833981519152604482015290519081900360640190fd5b8051611140906007906020840190614523565b5050565b600354604080517f07e77aa0000000000000000000000000000000000000000000000000000000008152600160a060020a0384811660048301529151600093610d019316916307e77aa0916024808301926020929190829003018186803b1580156111ae57600080fd5b505afa1580156111c2573d6000803e3d6000fd5b505050506040513d60208110156111d857600080fd5b50516003546040805160e060020a6370a08231028152600160a060020a038781166004830152915161126f9392909216916370a0823191602480820192602092909190829003018186803b15801561122f57600080fd5b505afa158015611243573d6000803e3d6000fd5b505050506040513d602081101561125957600080fd5b5051611263612d3b565b9063ffffffff61359116565b9063ffffffff6135ea16565b611283611b9e565b6112c5576040805160e560020a62461bcd028152602060048201819052602482015260008051602061468b833981519152604482015290519081900360640190fd5b60048054600160a060020a031916600160a060020a0392909216919091179055565b600854600160a060020a031690565b600654604080517f6b6ecea8000000000000000000000000000000000000000000000000000000008152600160a060020a038481166004830152915160009384931691636b6ecea8916024808301926020929190829003018186803b15801561135e57600080fd5b505afa158015611372573d6000803e3d6000fd5b505050506040513d602081101561138857600080fd5b5051600554604080517f7e1bcb76000000000000000000000000000000000000000000000000000000008152600160a060020a03878116600483015291519394506000939190921691637e1bcb76916024808301926020929190829003018186803b1580156113f657600080fd5b505afa15801561140a573d6000803e3d6000fd5b505050506040513d602081101561142057600080fd5b50519050611434828263ffffffff61344416565b9150600082131561144757509050610d04565b5060009392505050565b60005460ff161561146157600080fd5b6000805460ff1916600117908190557501000000000000000000000000000000000000000000900460ff16156114e1576040805160e560020a62461bcd02815260206004820152601760248201527f5468697320636f6e74726163742069732068616c746564000000000000000000604482015290519081900360640190fd5b6114eb8282613645565b600654604080517fc3c579cc000000000000000000000000000000000000000000000000000000008152600160a060020a03868116600483015260248201859052600360448301529151939450600093919092169163c3c579cc91606480830192602092919082900301818787803b15801561156657600080fd5b505af115801561157a573d6000803e3d6000fd5b505050506040513d602081101561159057600080fd5b505160048054604080517f41976e09000000000000000000000000000000000000000000000000000000008152600160a060020a03888116948201949094529051958490039593945060009392909116916341976e0991602480820192602092909190829003018186803b15801561160757600080fd5b505afa15801561161b573d6000803e3d6000fd5b505050506040513d602081101561163157600080fd5b505190508281026000611642612d3b565b828161164a57fe5b600654604080517f692a76a7000000000000000000000000000000000000000000000000000000008152336004820152602481018790529051939092049350600160a060020a03169163692a76a79160448082019260009290919082900301818387803b1580156116ba57600080fd5b505af11580156116ce573d6000803e3d6000fd5b5050600654604080517f2b2d50c3000000000000000000000000000000000000000000000000000000008152600160a060020a038b81166004830152602482018b90529151919092169350632b2d50c39250604480830192600092919082900301818387803b15801561174057600080fd5b505af1158015611754573d6000803e3d6000fd5b5050600654604080517fd56dbe88000000000000000000000000000000000000000000000000000000008152336004820152600160a060020a038b81166024830152604482018b9052915191909216935063d56dbe889250606480830192600092919082900301818387803b1580156117cc57600080fd5b505af11580156117e0573d6000803e3d6000fd5b5050600654604080517ffee80a49000000000000000000000000000000000000000000000000000000008152600160a060020a038b81166004830152602482018b9052915191909216935063fee80a499250604480830192600092919082900301818387803b15801561185257600080fd5b505af1158015611866573d6000803e3d6000fd5b505060408051888152602081018590528151600160a060020a038b1694503393507f33a089d94f9a0b7d0fe21e69b40d7dbe1965be652c7382cc778d46963db8c49b929181900390910190a3600354604080517f40c10f19000000000000000000000000000000000000000000000000000000008152336004820152602481018490529051600160a060020a03909216916340c10f199160448082019260009290919082900301818387803b15801561191e57600080fd5b505af1158015611932573d6000803e3d6000fd5b50506000805460ff191690555050505050505050565b611950611b9e565b611992576040805160e560020a62461bcd028152602060048201819052602482015260008051602061468b833981519152604482015290519081900360640190fd5b60008054604051610100909104600160a060020a0316907f8be0079c531659141344cd1fd0a4f28419497f9722a3daafe3b4186f6b6457e0908390a36000805474ffffffffffffffffffffffffffffffffffffffff0019169055565b600160a060020a031660009081526009602052604090205490565b6000610d01826001805480602002602001604051908101604052809291908181526020018280548015611a6557602002820191906000526020600020905b8154600160a060020a03168152600190910190602001808311611a47575b505050505061399590919063ffffffff16565b60075460019081108015611ab5575033600160a060020a031660078281548110611a9e57fe5b600091825260209091200154600160a060020a0316145b611af35760405160e560020a62461bcd02815260040180806020018281038252603081526020018061465b6030913960400191505060405180910390fd5b611afd8383613645565b600654604080517ffee80a49000000000000000000000000000000000000000000000000000000008152600160a060020a03878116600483015260248201859052915193955091169163fee80a499160448082019260009290919082900301818387803b158015611b6d57600080fd5b505af1158015611b81573d6000803e3d6000fd5b50505050505050565b6000546101009004600160a060020a031690565b6000546101009004600160a060020a0316331490565b611bbc611b9e565b611bfe576040805160e560020a62461bcd028152602060048201819052602482015260008051602061468b833981519152604482015290519081900360640190fd5b611c0f60078263ffffffff6139e416565b50565b611c1a611b9e565b611c5c576040805160e560020a62461bcd028152602060048201819052602482015260008051602061468b833981519152604482015290519081900360640190fd5b600b91909155600a55565b611c6f611b9e565b611cb1576040805160e560020a62461bcd028152602060048201819052602482015260008051602061468b833981519152604482015290519081900360640190fd5b60088054600160a060020a031916600160a060020a0392909216919091179055565b60005460ff1615611ce357600080fd5b6000805460ff1916600117908190557501000000000000000000000000000000000000000000900460ff1615611d63576040805160e560020a62461bcd02815260206004820152601760248201527f5468697320636f6e74726163742069732068616c746564000000000000000000604482015290519081900360640190fd5b611d6c82613a7c565b611d7581610ccf565b611dc9576040805160e560020a62461bcd02815260206004820152601f60248201527f736574746c656d656e7420697320756e737570706f7274656420746f6b656e00604482015290519081900360640190fd5b600354604080517f593557360000000000000000000000000000000000000000000000000000000081523360048201529051600092600160a060020a0316916359355736916024808301926020929190829003018186803b158015611e2d57600080fd5b505afa158015611e41573d6000803e3d6000fd5b505050506040513d6020811015611e5757600080fd5b50516003546040805160e060020a6370a08231028152336004820152905192935085928492600160a060020a0316916370a08231916024808301926020929190829003018186803b158015611eab57600080fd5b505afa158015611ebf573d6000803e3d6000fd5b505050506040513d6020811015611ed557600080fd5b5051011015611f2e576040805160e560020a62461bcd02815260206004820152601e60248201527f53436f696e2062616c616e636520697320696e73756666696369656e74210000604482015290519081900360640190fd5b6000611f3933611144565b90506000611f45610d6c565b600354604080517f35f0c4fa000000000000000000000000000000000000000000000000000000008152336004820152602481018990526044810184905281519394506000938493600160a060020a0316926335f0c4fa926064808201939182900301818787803b158015611fb957600080fd5b505af1158015611fcd573d6000803e3d6000fd5b505050506040513d6040811015611fe357600080fd5b508051602090910151970396600092509050861561203f579182900391841561201b57848711612014576000612018565b8487035b96505b6000806120288986613ace565b9092509050811561203c5781935080830192505b50505b61204a868286613bab565b81156120d557600354604080517f9dc29fac000000000000000000000000000000000000000000000000000000008152336004820152602481018590529051600160a060020a0390921691639dc29fac9160448082019260009290919082900301818387803b1580156120bc57600080fd5b505af11580156120d0573d6000803e3d6000fd5b505050505b50506000805460ff191690555050505050565b60075460009015801590612125575033600160a060020a03166007828154811061210e57fe5b600091825260209091200154600160a060020a0316145b6121635760405160e560020a62461bcd02815260040180806020018281038252603081526020018061465b6030913960400191505060405180910390fd5b6005546040517f2415e01000000000000000000000000000000000000000000000000000000000815260048101848152606060248301908152865160648401528651600160a060020a0390941693632415e0109387938993600193919290916044820191608401906020808801910280838360005b838110156121f05781810151838201526020016121d8565b50505050905001838103825284818154815260200191508054801561223e57602002820191906000526020600020905b8154600160a060020a03168152600190910190602001808311612220575b505095505050505050600060405180830381600087803b15801561226157600080fd5b505af1158015612275573d6000803e3d6000fd5b5050600654604080517f1f88286a000000000000000000000000000000000000000000000000000000008152600481019182526001805460448301819052600160a060020a039094169550631f88286a94509289929182916024820191606401908690801561230d57602002820191906000526020600020905b8154600160a060020a031681526001909101906020018083116122ef575b50508381038252845181528451602091820191808701910280838360005b8381101561234357818101518382015260200161232b565b50505050905001945050505050600060405180830381600087803b15801561236a57600080fd5b505af115801561237e573d6000803e3d6000fd5b5050505050505050565b6060600061239583611144565b90506060806123ff858460018054806020026020016040519081016040528092919081815260200182805480156123f557602002820191906000526020600020905b8154600160a060020a031681526001909101906020018083116123d7575b5050505050613dcd565b50600154919350915060005b8181101561246b5761244c83828151811061242257fe5b602002602001015185838151811061243657fe5b60200260200101516135ea90919063ffffffff16565b84828151811061245857fe5b602090810291909101015260010161240b565b509195945050505050565b6000612480611b9e565b6124c2576040805160e560020a62461bcd028152602060048201819052602482015260008051602061468b833981519152604482015290519081900360640190fd5b610d0160078363ffffffff61348616565b600454600160a060020a031690565b600654604080517f6ba170b5000000000000000000000000000000000000000000000000000000008152600160a060020a038581166004830152848116602483015291516000939290921691636ba170b591604480820192602092909190829003018186803b15801561255457600080fd5b505afa158015612568573d6000803e3d6000fd5b505050506040513d602081101561257e57600080fd5b505190505b92915050565b600754600090158015906125c6575033600160a060020a0316600782815481106125af57fe5b600091825260209091200154600160a060020a0316145b6126045760405160e560020a62461bcd02815260040180806020018281038252603081526020018061465b6030913960400191505060405180910390fd5b6060600180548060200260200160405190810160405280929190818152602001828054801561265c57602002820191906000526020600020905b8154600160a060020a0316815260019091019060200180831161263e575b50506005546040517f6a43c05e00000000000000000000000000000000000000000000000000000000815260206004820181815287516024840152875197985060009760609750600160a060020a039094169550636a43c05e945088939092839260449091019181860191028083838c5b838110156126e55781810151838201526020016126cd565b505050509050019250505060006040518083038186803b15801561270857600080fd5b505afa15801561271c573d6000803e3d6000fd5b505050506040513d6000823e601f3d908101601f19168201604090815281101561274557600080fd5b81516020830180516040519294929383019291908464010000000082111561276c57600080fd5b90830190602082018581111561278157600080fd5b825186602082028301116401000000008211171561279e57600080fd5b82525081516020918201928201910280838360005b838110156127cb5781810151838201526020016127b3565b50505050905001604052505050915091506000600560009054906101000a9004600160a060020a0316600160a060020a031663bec3107f6040518163ffffffff1660e060020a02815260040160206040518083038186803b15801561282f57600080fd5b505afa158015612843573d6000803e3d6000fd5b505050506040513d602081101561285957600080fd5b50516005546040517f32ab5c200000000000000000000000000000000000000000000000000000000081526004810183815260248201879052604482018490526080606483019081528851608484015288519495506060948594600094600160a060020a03909116936332ab5c209389938c9385938f939092909160a40190602085810191028083838e5b838110156128fc5781810151838201526020016128e4565b505050509050019550505050505060006040518083038186803b15801561292257600080fd5b505afa158015612936573d6000803e3d6000fd5b505050506040513d6000823e601f3d908101601f19168201604052606081101561295f57600080fd5b810190808051604051939291908464010000000082111561297f57600080fd5b90830190602082018581111561299457600080fd5b82518660208202830111640100000000821117156129b157600080fd5b82525081516020918201928201910280838360005b838110156129de5781810151838201526020016129c6565b5050505090500160405260200180516040519392919084640100000000821115612a0757600080fd5b908301906020820185811115612a1c57600080fd5b8251866020820283011164010000000082111715612a3957600080fd5b82525081516020918201928201910280838360005b83811015612a66578181015183820152602001612a4e565b50505050905001604052602001805190602001909291905050509250925092506060600560009054906101000a9004600160a060020a0316600160a060020a03166343674c3a8684888c6040518563ffffffff1660e060020a0281526004018085815260200184815260200183815260200180602001828103825283818151815260200191508051906020019060200280838360005b83811015612b14578181015183820152602001612afc565b505050509050019550505050505060006040518083038186803b158015612b3a57600080fd5b505afa158015612b4e573d6000803e3d6000fd5b505050506040513d6000823e601f3d908101601f191682016040526020811015612b7757600080fd5b8101908080516040519392919084640100000000821115612b9757600080fd5b908301906020820185811115612bac57600080fd5b8251866020820283011164010000000082111715612bc957600080fd5b82525081516020918201928201910280838360005b83811015612bf6578181015183820152602001612bde565b50505050905001604052505050905060008090505b8151811015612c7157818181518110612c2057fe5b6020026020010151878281518110612c3457fe5b6020026020010151858381518110612c4857fe5b60200260200101510301828281518110612c5e57fe5b6020908102919091010152600101612c0b565b50612c7d8482846120e8565b505050505050505050565b600b54600a549091565b6000612c9d82611a09565b8015610d01575050600160a060020a031660009081526002602052604090205460019081161490565b600554600160a060020a031690565b612cdd611b9e565b612d1f576040805160e560020a62461bcd028152602060048201819052602482015260008051602061468b833981519152604482015290519081900360640190fd5b600160a060020a03909116600090815260026020526040902055565b600080600360009054906101000a9004600160a060020a0316600160a060020a03166318160ddd6040518163ffffffff1660e060020a02815260040160206040518083038186803b158015612d8f57600080fd5b505afa158015612da3573d6000803e3d6000fd5b505050506040513d6020811015612db957600080fd5b5051905080612dcf576305f5e100915050610d69565b600081612dda612fa8565b81612de157fe5b04905060648111612df3576064612df5565b805b9250505090565b600080600560009054906101000a9004600160a060020a0316600160a060020a03166373a3d4246040518163ffffffff1660e060020a02815260040160206040518083038186803b158015612e5057600080fd5b505afa158015612e64573d6000803e3d6000fd5b505050506040513d6020811015612e7a57600080fd5b50519050612e8781613574565b91505090565b6001546000908190815b81811015612f8257600060018281548110612eae57fe5b600091825260208083209091015460048054604080517f41976e09000000000000000000000000000000000000000000000000000000008152600160a060020a0394851693810184905290519296509216926341976e099260248082019391829003018186803b158015612f2157600080fd5b505afa158015612f35573d6000803e3d6000fd5b505050506040513d6020811015612f4b57600080fd5b505190506000612f5a83610d8b565b90508015612f7757612f748683830263ffffffff61344416565b95505b505050600101612e97565b506000821215612f93576000612df5565b50919050565b600354600160a060020a031690565b6000610d86612fb5612e8d565b600360009054906101000a9004600160a060020a0316600160a060020a031663dad3eb746040518163ffffffff1660e060020a02815260040160206040518083038186803b15801561300657600080fd5b505afa15801561301a573d6000803e3d6000fd5b505050506040513d602081101561303057600080fd5b5051613429565b6000610d86610d79612fa8565b61304c611b9e565b61308e576040805160e560020a62461bcd028152602060048201819052602482015260008051602061468b833981519152604482015290519081900360640190fd5b60038054600160a060020a031916600160a060020a0392909216919091179055565b6130b8611b9e565b6130fa576040805160e560020a62461bcd028152602060048201819052602482015260008051602061468b833981519152604482015290519081900360640190fd5b806007838154811061310857fe5b9060005260206000200160006101000a815481600160a060020a030219169083600160a060020a031602179055505050565b613142611b9e565b613184576040805160e560020a62461bcd028152602060048201819052602482015260008051602061468b833981519152604482015290519081900360640190fd5b61319560018263ffffffff6139e416565b600160a060020a0316600090815260026020526040902063ffffffff9055565b60606007805480602002602001604051908101604052809291908181526020018280548015610d6157602002820191906000526020600020908154600160a060020a03168152600190910190602001808311610d43575050505050905090565b61321d611b9e565b61325f576040805160e560020a62461bcd028152602060048201819052602482015260008051602061468b833981519152604482015290519081900360640190fd5b611c0f81614207565b613270611b9e565b6132b2576040805160e560020a62461bcd028152602060048201819052602482015260008051602061468b833981519152604482015290519081900360640190fd5b6000805491151575010000000000000000000000000000000000000000000275ff00000000000000000000000000000000000000000019909216919091179055565b6132fc611b9e565b61333e576040805160e560020a62461bcd028152602060048201819052602482015260008051602061468b833981519152604482015290519081900360640190fd5b6133478261313a565b600160a060020a03909116600090815260096020526040902055565b60015460009081908190815b818110156134005760006001828154811061338657fe5b6000918252602082200154600160a060020a031691506133a5826112f6565b90506133b7868263ffffffff6135ea16565b600160a060020a0383166000908152600960205260409020549096506133f4906133e7908363ffffffff61359116565b869063ffffffff6135ea16565b9450505060010161336f565b831561341b5783838161340f57fe5b04945050505050610d69565b611388945050505050610d69565b600081831161343957600061343d565b8183035b9392505050565b600061343d83836040518060400160405280601d81526020017f53616665496e743235363a206164646974696f6e206f766572666c6f770000008152506142c2565b8154600090815b818110156134d35783600160a060020a03168582815481106134ab57fe5b600091825260209091200154600160a060020a031614156134cb576134d3565b60010161348d565b818110156135695760018203811461354d578460018303815481106134f457fe5b9060005260206000200160009054906101000a9004600160a060020a031685828154811061351e57fe5b9060005260206000200160006101000a815481600160a060020a030219169083600160a060020a031602179055505b845461355d866000198301614588565b50600192505050612583565b506000949350505050565b60006103e882613582613363565b028161358a57fe5b0492915050565b60008115806135ac575050808202828282816135a957fe5b04145b6125835760405160e560020a62461bcd02815260040180806020018281038252602181526020018061463a6021913960400191505060405180910390fd5b80820182811015612583576040805160e560020a62461bcd02815260206004820152601b60248201527f536166654d6174683a206164646974696f6e206f766572666c6f770000000000604482015290519081900360640190fd5b600061365083612c92565b6136a4576040805160e560020a62461bcd02815260206004820152601f60248201527f736574746c656d656e7420697320756e737570706f7274656420746f6b656e00604482015290519081900360640190fd5b6000600160a060020a0384166136f857506006546040513491600160a060020a031690819083156108fc029084906000818181858888f193505050501580156136f1573d6000803e3d6000fd5b505061398c565b821561398c576040805160e060020a6370a0823102815230600482015290518591600091600160a060020a038416916370a08231916024808301926020929190829003018186803b15801561374c57600080fd5b505afa158015613760573d6000803e3d6000fd5b505050506040513d602081101561377657600080fd5b5051604080517f23b872dd000000000000000000000000000000000000000000000000000000008152336004820152306024820152604481018890529051919250600160a060020a038416916323b872dd916064808201926020929091908290030181600087803b1580156137ea57600080fd5b505af11580156137fe573d6000803e3d6000fd5b505050506040513d602081101561381457600080fd5b50506040805160e060020a6370a082310281523060048201529051600091600160a060020a038516916370a0823191602480820192602092909190829003018186803b15801561386357600080fd5b505afa158015613877573d6000803e3d6000fd5b505050506040513d602081101561388d57600080fd5b5051905081810386146138ea576040805160e560020a62461bcd02815260206004820181905260248201527f736574746c656d656e7420746f6b656e207472616e73666572206572726f7221604482015290519081900360640190fd5b600654604080517fa9059cbb000000000000000000000000000000000000000000000000000000008152600160a060020a0392831660048201526024810189905290518896509185169163a9059cbb916044808201926020929091908290030181600087803b15801561395c57600080fd5b505af1158015613970573d6000803e3d6000fd5b505050506040513d602081101561398657600080fd5b50505050505b61343d81613a7c565b8151600090815b818110156135695783600160a060020a03168582815181106139ba57fe5b6020026020010151600160a060020a031614156139dc57600192505050612583565b60010161399c565b613a4782805480602002602001604051908101604052809291908181526020018280548015613a3c57602002820191906000526020600020905b8154600160a060020a03168152600190910190602001808311613a1e575b505050505082613995565b611140578154600181018355600083815260209020018054600160a060020a038316600160a060020a03199091161790555050565b80600a5410158015613a90575080600b5411155b611c0f5760405160e560020a62461bcd0281526004018080602001828103825260298152602001806146116029913960400191505060405180910390fd5b6000806000613adb612d3b565b905084810284811115613b9d576000828681613af357fe5b60035491900491508382029082890390600160a060020a0316634b91a07b3383888181613b1c57fe5b046040518463ffffffff1660e060020a0281526004018084600160a060020a0316600160a060020a031681526020018381526020018281526020019350505050600060405180830381600087803b158015613b7657600080fd5b505af1158015613b8a573d6000803e3d6000fd5b50949850929650613ba495505050505050565b8593509150505b9250929050565b81613bb557613dc8565b60408051600160a060020a038516815260208101849052815133927fc994feb9b99296d80965b47aec6be0d25704ddf95b9b9bc1ed8bc753960d5809928290030190a26060613c03846143ce565b90506060806060613c15338686613dcd565b925092509250600660009054906101000a9004600160a060020a0316600160a060020a031663a2fa92c73388878787876040518763ffffffff1660e060020a0281526004018087600160a060020a0316600160a060020a0316815260200186815260200180602001806020018060200180602001858103855289818151815260200191508051906020019060200280838360005b83811015613cc1578181015183820152602001613ca9565b50505050905001858103845288818151815260200191508051906020019060200280838360005b83811015613d00578181015183820152602001613ce8565b50505050905001858103835287818151815260200191508051906020019060200280838360005b83811015613d3f578181015183820152602001613d27565b50505050905001858103825286818151815260200191508051906020019060200280838360005b83811015613d7e578181015183820152602001613d66565b505050509050019a5050505050505050505050600060405180830381600087803b158015613dab57600080fd5b505af1158015613dbf573d6000803e3d6000fd5b50505050505050505b505050565b6060806060808451604051908082528060200260200182016040528015613dfe578160200160208202803883390190505b50905060608551604051908082528060200260200182016040528015613e2e578160200160208202803883390190505b50905060005b8651811015613f5657613e5b878281518110613e4c57fe5b602002602001015160026144b9565b15613e9557613e7c878281518110613e6f57fe5b60200260200101516112f6565b828281518110613e8857fe5b6020026020010181815250505b6004548751600160a060020a03909116906341976e0990899084908110613eb857fe5b60200260200101516040518263ffffffff1660e060020a0281526004018082600160a060020a0316600160a060020a0316815260200191505060206040518083038186803b158015613f0957600080fd5b505afa158015613f1d573d6000803e3d6000fd5b505050506040513d6020811015613f3357600080fd5b50518351849083908110613f4357fe5b6020908102919091010152600101613e34565b506006546040517f7a6a0277000000000000000000000000000000000000000000000000000000008152600160a060020a038a811660048301908152602483018b905260a0604484019081528a5160a48501528a516060958695941693637a6a0277938f938f938f938b938d93909290916064810191608482019160c401906020808a01910280838360005b83811015613ffa578181015183820152602001613fe2565b50505050905001848103835286818151815260200191508051906020019060200280838360005b83811015614039578181015183820152602001614021565b50505050905001848103825285818151815260200191508051906020019060200280838360005b83811015614078578181015183820152602001614060565b505050509050019850505050505050505060006040518083038186803b1580156140a157600080fd5b505afa1580156140b5573d6000803e3d6000fd5b505050506040513d6000823e601f3d908101601f1916820160409081528110156140de57600080fd5b81019080805160405193929190846401000000008211156140fe57600080fd5b90830190602082018581111561411357600080fd5b825186602082028301116401000000008211171561413057600080fd5b82525081516020918201928201910280838360005b8381101561415d578181015183820152602001614145565b505050509050016040526020018051604051939291908464010000000082111561418657600080fd5b90830190602082018581111561419b57600080fd5b82518660208202830111640100000000821117156141b857600080fd5b82525081516020918201928201910280838360005b838110156141e55781810151838201526020016141cd565b505050509190910160405250939e929d50969b50909950505050505050505050565b600160a060020a03811661424f5760405160e560020a62461bcd0281526004018080602001828103825260268152602001806145eb6026913960400191505060405180910390fd5b60008054604051600160a060020a038085169361010090930416917f8be0079c531659141344cd1fd0a4f28419497f9722a3daafe3b4186f6b6457e091a360008054600160a060020a039092166101000274ffffffffffffffffffffffffffffffffffffffff0019909216919091179055565b60008383018185121582851215146142db57905061343d565b6000851261437b5782858212156143735760405160e560020a62461bcd0281526004018080602001828103825283818151815260200191508051906020019080838360005b83811015614338578181015183820152602001614320565b50505050905090810190601f1680156143655780820380516001836020036101000a031916815260200191505b509250505060405180910390fd5b50905061343d565b82858213156143735760405160e560020a62461bcd028152602060048201818152835160248401528351909283926044909101919085019080838360008315614338578181015183820152602001614320565b606080600180548060200260200160405190810160405280929190818152602001828054801561442757602002820191906000526020600020905b8154600160a060020a03168152600190910190602001808311614409575b50505050509050600061443a82856144da565b905080156144b2578160008151811061444f57fe5b602002602001015182828151811061446357fe5b6020026020010190600160a060020a03169081600160a060020a031681525050838260008151811061449157fe5b6020026020010190600160a060020a03169081600160a060020a0316815250505b5092915050565b600160a060020a039190911660009081526002602052604090205481161490565b8151600090815b81811015610ec95783600160a060020a03168582815181106144ff57fe5b6020026020010151600160a060020a0316141561451b57610ec9565b6001016144e1565b828054828255906000526020600020908101928215614578579160200282015b828111156145785782518254600160a060020a031916600160a060020a03909116178255602090920191600190910190614543565b506145849291506145ac565b5090565b815481835581811115613dc857600083815260209020613dc89181019083016145d0565b610d6991905b80821115614584578054600160a060020a03191681556001016145b2565b610d6991905b8082111561458457600081556001016145d656fe4f776e61626c653a206e6577206f776e657220697320746865207a65726f2061646472657373696e70757420616d6f756e74206973206f7574206f6620696e70757420616d6f756e742072616e6765536166654d6174683a206d756c7469706c69636174696f6e206f766572666c6f774d616e6167657261626c653a2063616c6c6572206973206e6f742074686520656c696769626c65204f70657261746f724f776e61626c653a2063616c6c6572206973206e6f7420746865206f776e6572a265627a7a723158207c863b7ae8d57e0d068712a0ec339621dd8561dfcdbcf05b4ffca32cd50088ab64736f6c63430005100032",
  "source": "pragma solidity ^0.5.1;\r\nimport \"../modules/SafeMath.sol\";\r\nimport \"../modules/SafeInt256.sol\";\r\nimport \"./ManagerData.sol\";\r\n/**\r\n * @title collateral calculate module\r\n * @dev A smart-contract which has operations of collateral and methods of calculate collateral occupation.\r\n *\r\n */\r\ncontract CollateralCal is ManagerData {\r\n    using SafeMath for uint256;\r\n    using SafeInt256 for int256;\r\n\r\n    /**\r\n     * @dev get the valid range of input amount\r\n     */\r\n    function getInputAmountRange() public view returns(uint256,uint256) {\r\n        return (minAmount,maxAmount);\r\n    }\r\n    /**\r\n     * @dev set the valid range of input amount\r\n     * @param _minAmount the minimum input amount limit\r\n     * @param _maxAmount the maximum input amount limit\r\n     */\r\n    function setInputAmountRange(uint256 _minAmount,uint256 _maxAmount) public onlyOwner{\r\n        minAmount = _minAmount;\r\n        maxAmount = _maxAmount;\r\n    }\r\n    /**\r\n     * @dev Determine whether the input amount is within the valid range\r\n     * @param Amount Test value which is user input\r\n     */\r\n    function checkInputAmount(uint256 Amount)internal view{\r\n        require(maxAmount>=Amount && minAmount<=Amount,\"input amount is out of input amount range\");\r\n    }\r\n    /**\r\n     * @dev  The foundation operator want to add some coin to netbalance, which can increase the FPTCoin net worth.\r\n     * @param settlement the settlement coin address which the foundation operator want to transfer in this contract address.\r\n     * @param amount the amount of the settlement coin which the foundation operator want to transfer in this contract address.\r\n     */\r\n    function addNetBalance(address settlement,uint256 amount) public payable onlyOperatorIndex(1) {\r\n        amount = getPayableAmount(settlement,amount);\r\n        _collateralPool.addNetWorthBalance(settlement,int256(amount));\r\n//        netWorthBalances[settlement] = netWorthBalances[settlement].add(amount);\r\n    }\r\n    /**\r\n     * @dev  The foundation owner want to set the minimum collateral occupation rate.\r\n     * @param collateral collateral coin address\r\n     * @param colRate The thousandths of the minimum collateral occupation rate.\r\n     */\r\n    function setCollateralRate(address collateral,uint256 colRate) public onlyOwner {\r\n        addWhiteList(collateral);\r\n        collateralRate[collateral] = colRate;\r\n//        collateralRate = colRate;\r\n\r\n    }\r\n    /**\r\n     * @dev Get the minimum collateral occupation rate.\r\n     */\r\n    function getCollateralRate(address collateral)public view returns (uint256) {\r\n        return collateralRate[collateral];\r\n    }\r\n    /**\r\n     * @dev Retrieve user's cost of collateral, priced in USD.\r\n     * @param user input retrieved account \r\n     */\r\n    function getUserPayingUsd(address user)public view returns (uint256){\r\n        return _collateralPool.getUserPayingUsd(user);\r\n        //userCollateralPaying[user];\r\n    }\r\n    /**\r\n     * @dev Retrieve user's amount of the specified collateral.\r\n     * @param user input retrieved account \r\n     * @param collateral input retrieved collateral coin address \r\n     */\r\n    function userInputCollateral(address user,address collateral)public view returns (uint256){\r\n        return _collateralPool.getUserInputCollateral(user,collateral);\r\n        //return userInputCollateral[user][collateral];\r\n    }\r\n    /**\r\n     * @dev Calculate the collateral pool shared worth.\r\n     * The foundation operator will invoke this function frequently\r\n     */\r\n    function calSharedPayment() public onlyOperatorIndex(0) {\r\n        address[] memory tmpWhiteList = whiteList;\r\n        (uint256 firstOption,int256[] memory latestShared) = _optionsPool.getNetWrothCalInfo(tmpWhiteList);\r\n        uint256 lastOption = _optionsPool.getOptionInfoLength();\r\n        (int256[] memory newNetworth,uint256[] memory sharedBalance,uint256 newFirst) =\r\n                     _optionsPool.calRangeSharedPayment(lastOption,firstOption,lastOption,tmpWhiteList);\r\n        int256[] memory fallBalance = _optionsPool.calculatePhaseOptionsFall(lastOption,newFirst,lastOption,tmpWhiteList);\r\n        for (uint256 i= 0;i<fallBalance.length;i++){\r\n            fallBalance[i] = int256(sharedBalance[i])-latestShared[i]+fallBalance[i];\r\n        }\r\n        setSharedPayment(newNetworth,fallBalance,newFirst);\r\n    }\r\n    /**\r\n     * @dev Set the calculation results of the collateral pool shared worth.\r\n     * The foundation operator will invoke this function frequently\r\n     * @param newNetworth Current expired options' net worth \r\n     * @param sharedBalances All unexpired options' shared balance distributed by time.\r\n     * @param firstOption The new first unexpired option's index.\r\n     */\r\n    function setSharedPayment(int256[] memory newNetworth,int256[] memory sharedBalances,uint256 firstOption) public onlyOperatorIndex(0){\r\n        _optionsPool.setSharedState(firstOption,sharedBalances,whiteList);\r\n        _collateralPool.addNetWorthBalances(whiteList,newNetworth);\r\n    }\r\n    /**\r\n     * @dev Retrieve user's current total worth, priced in USD.\r\n     * @param account input retrieve account\r\n     */\r\n    function getUserTotalWorth(address account)public view returns (uint256){\r\n        return getTokenNetworth().mul(_FPTCoin.balanceOf(account)).add(_FPTCoin.lockedWorthOf(account));\r\n    }\r\n    /**\r\n     * @dev Retrieve FPTCoin's net worth, priced in USD.\r\n     */\r\n    function getTokenNetworth() public view returns (uint256){\r\n        uint256 _totalSupply = _FPTCoin.totalSupply();\r\n        if (_totalSupply == 0){\r\n            return 1e8;\r\n        }\r\n        uint256 netWorth = getUnlockedCollateral()/_totalSupply;\r\n        return netWorth>100 ? netWorth : 100;\r\n    }\r\n    /**\r\n     * @dev Deposit collateral in this pool from user.\r\n     * @param collateral The collateral coin address which is in whitelist.\r\n     * @param amount the amount of collateral to deposit.\r\n     */\r\n    function addCollateral(address collateral,uint256 amount) nonReentrant notHalted public payable {\r\n        amount = getPayableAmount(collateral,amount);\r\n        uint256 fee = _collateralPool.addTransactionFee(collateral,amount,3);\r\n        amount = amount-fee;\r\n        uint256 price = _oracle.getPrice(collateral);\r\n        uint256 userPaying = price*amount;\r\n        uint256 mintAmount = userPaying/getTokenNetworth();\r\n        _collateralPool.addUserPayingUsd(msg.sender,userPaying);\r\n        _collateralPool.addCollateralBalance(collateral,amount);\r\n        _collateralPool.addUserInputCollateral(msg.sender,collateral,amount);\r\n         _collateralPool.addNetWorthBalance(collateral,int256(amount));\r\n        emit AddCollateral(msg.sender,collateral,amount,mintAmount);\r\n        _FPTCoin.mint(msg.sender,mintAmount);\r\n    }\r\n    /**\r\n     * @dev redeem collateral from this pool, user can input the prioritized collateral,he will get this coin,\r\n     * if this coin is unsufficient, he will get others collateral which in whitelist.\r\n     * @param tokenAmount the amount of FPTCoin want to redeem.\r\n     * @param collateral The prioritized collateral coin address.\r\n     */\r\n    function redeemCollateral(uint256 tokenAmount,address collateral) nonReentrant notHalted public {\r\n        checkInputAmount(tokenAmount);\r\n        require(checkAddressRedeemOut(collateral) , \"settlement is unsupported token\");\r\n        uint256 lockedAmount = _FPTCoin.lockedBalanceOf(msg.sender);\r\n        require(_FPTCoin.balanceOf(msg.sender)+lockedAmount>=tokenAmount,\"SCoin balance is insufficient!\");\r\n        uint256 userTotalWorth = getUserTotalWorth(msg.sender);\r\n        uint256 leftCollateral = getLeftCollateral();\r\n        (uint256 burnAmount,uint256 redeemWorth) = _FPTCoin.redeemLockedCollateral(msg.sender,tokenAmount,leftCollateral);\r\n        tokenAmount -= burnAmount;\r\n        burnAmount = 0;\r\n        if (tokenAmount > 0){\r\n            leftCollateral -= redeemWorth;\r\n            \r\n            if (lockedAmount > 0){\r\n                tokenAmount = tokenAmount > lockedAmount ? tokenAmount - lockedAmount : 0;\r\n            }\r\n            (uint256 newRedeem,uint256 newWorth) = _redeemCollateral(tokenAmount,leftCollateral);\r\n            if(newRedeem>0){\r\n                burnAmount = newRedeem;\r\n                redeemWorth += newWorth;\r\n            }\r\n        }\r\n        _redeemCollateralWorth(collateral,redeemWorth,userTotalWorth);\r\n        if (burnAmount>0){\r\n            _FPTCoin.burn(msg.sender, burnAmount);\r\n        }\r\n    }\r\n    /**\r\n     * @dev The subfunction of redeem collateral.\r\n     * @param leftAmount the left amount of FPTCoin want to redeem.\r\n     * @param leftCollateral The left collateral which can be redeemed, priced in USD.\r\n     */\r\n    function _redeemCollateral(uint256 leftAmount,uint256 leftCollateral)internal returns (uint256,uint256){\r\n        uint256 tokenNetWorth = getTokenNetworth();\r\n        uint256 leftWorth = leftAmount*tokenNetWorth;        \r\n        if (leftWorth > leftCollateral){\r\n            uint256 newRedeem = leftCollateral/tokenNetWorth;\r\n            uint256 newWorth = newRedeem*tokenNetWorth;\r\n            uint256 locked = leftAmount - newRedeem;\r\n            _FPTCoin.addlockBalance(msg.sender,locked,locked/tokenNetWorth);\r\n            return (newRedeem,newWorth);\r\n        }\r\n        return (leftAmount,leftWorth);\r\n    }\r\n    /**\r\n     * @dev The auxiliary function of collateral calculation.\r\n     * @param collateral the prioritized collateral which user input.\r\n     * @return the collateral whitelist, in which the prioritized collateral is at the front.\r\n     */\r\n    function getTempWhiteList(address collateral) internal view returns (address[] memory) {\r\n        address[] memory tmpWhiteList = whiteList;\r\n        uint256 index = whiteListAddress._getEligibleIndexAddress(tmpWhiteList,collateral);\r\n        if (index != 0){\r\n            tmpWhiteList[index] = tmpWhiteList[0];\r\n            tmpWhiteList[0] = collateral;\r\n        }\r\n        return tmpWhiteList;\r\n    }\r\n    /**\r\n     * @dev The subfunction of redeem collateral. Calculate all redeem count and tranfer.\r\n     * @param collateral the prioritized collateral which user input.\r\n     * @param redeemWorth user redeem worth, priced in USD.\r\n     * @param userTotalWorth user total worth, priced in USD.\r\n     */\r\n    function _redeemCollateralWorth(address collateral,uint256 redeemWorth,uint256 userTotalWorth) internal {\r\n        if (redeemWorth == 0){\r\n            return;\r\n        }\r\n        emit RedeemCollateral(msg.sender,collateral,redeemWorth);\r\n        address[] memory tmpWhiteList = getTempWhiteList(collateral);\r\n        (uint256[] memory colBalances,uint256[] memory PremiumBalances,uint256[] memory prices) = \r\n                _getCollateralAndPremiumBalances(msg.sender,userTotalWorth,tmpWhiteList);\r\n        _collateralPool.transferPaybackBalances(msg.sender,redeemWorth,tmpWhiteList,colBalances,\r\n                PremiumBalances,prices);\r\n    }\r\n    /**\r\n     * @dev Retrieve user's collateral worth in all collateral coin. \r\n     * If user want to redeem all his collateral,and the vacant collateral is sufficient,\r\n     * He can redeem each collateral amount in return list.\r\n     * @param account the retrieve user's account;\r\n     */\r\n    function calCollateralWorth(address account)public view returns(uint256[] memory){\r\n        uint256 worth = getUserTotalWorth(account);\r\n        (uint256[] memory colBalances,uint256[] memory PremiumBalances,) = \r\n        _getCollateralAndPremiumBalances(account,worth,whiteList);\r\n        uint256 whiteLen = whiteList.length;\r\n        for (uint256 i=0; i<whiteLen;i++){\r\n            colBalances[i] = colBalances[i].add(PremiumBalances[i]);\r\n        }\r\n        return colBalances;\r\n    }\r\n    /**\r\n     * @dev The auxiliary function for redeem collateral calculation. \r\n     * @param account the retrieve user's account;\r\n     * @param userTotalWorth user's total worth, priced in USD.\r\n     * @param tmpWhiteList the collateral white list.\r\n     * @return user's total worth in each collateral, priced in USD.\r\n     */\r\n    function _getCollateralAndPremiumBalances(address account,uint256 userTotalWorth,address[] memory tmpWhiteList) internal view returns(uint256[] memory,uint256[] memory,uint256[] memory){\r\n        uint256[] memory prices = new uint256[](tmpWhiteList.length);\r\n        uint256[] memory netWorthBalances = new uint256[](tmpWhiteList.length);\r\n        for (uint256 i=0; i<tmpWhiteList.length;i++){\r\n            if (checkAddressPermission(tmpWhiteList[i],0x0002)){\r\n                netWorthBalances[i] = getNetWorthBalance(tmpWhiteList[i]);\r\n            }\r\n            prices[i] = _oracle.getPrice(tmpWhiteList[i]);\r\n        }\r\n        (uint256[] memory colBalances,uint256[] memory PremiumBalances) = _collateralPool.getCollateralAndPremiumBalances(account,userTotalWorth,tmpWhiteList,\r\n                netWorthBalances,prices);\r\n        return (colBalances,PremiumBalances,prices);\r\n    } \r\n    /**\r\n     * @dev Retrieve the occupied collateral worth, multiplied by minimum collateral rate, priced in USD. \r\n     */\r\n    function getOccupiedCollateral() public view returns(uint256){\r\n        uint256 totalOccupied = _optionsPool.getTotalOccupiedCollateral();\r\n        return calculateCollateral(totalOccupied);\r\n    }\r\n    /**\r\n     * @dev Retrieve the available collateral worth, the worth of collateral which can used for buy options, priced in USD. \r\n     */\r\n    function getAvailableCollateral()public view returns(uint256){\r\n        return safeSubCollateral(getUnlockedCollateral(),getOccupiedCollateral());\r\n    }\r\n    /**\r\n     * @dev Retrieve the left collateral worth, the worth of collateral which can used for redeem collateral, priced in USD. \r\n     */\r\n    function getLeftCollateral()public view returns(uint256){\r\n        return safeSubCollateral(getTotalCollateral(),getOccupiedCollateral());\r\n    }\r\n    /**\r\n     * @dev Retrieve the unlocked collateral worth, the worth of collateral which currently used for options, priced in USD. \r\n     */\r\n    function getUnlockedCollateral()public view returns(uint256){\r\n        return safeSubCollateral(getTotalCollateral(),_FPTCoin.getTotalLockedWorth());\r\n    }\r\n    /**\r\n     * @dev The auxiliary function for collateral worth subtraction. \r\n     */\r\n    function safeSubCollateral(uint256 allCollateral,uint256 subCollateral)internal pure returns(uint256){\r\n        return allCollateral > subCollateral ? allCollateral - subCollateral : 0;\r\n    }\r\n    /**\r\n     * @dev The auxiliary function for calculate option occupied. \r\n     * @param strikePrice option's strike price\r\n     * @param underlyingPrice option's underlying price\r\n     * @param amount option's amount\r\n     * @param optType option's type, 0 for call, 1 for put.\r\n     */\r\n    function calOptionsOccupied(uint256 strikePrice,uint256 underlyingPrice,uint256 amount,uint8 optType)public view returns(uint256){\r\n        uint256 totalOccupied = 0;\r\n        if ((optType == 0) == (strikePrice>underlyingPrice)){ // call\r\n            totalOccupied = strikePrice*amount;\r\n        } else {\r\n            totalOccupied = underlyingPrice*amount;\r\n        }\r\n        return calculateCollateral(totalOccupied);\r\n    }\r\n    /**\r\n     * @dev Retrieve the total collateral worth, priced in USD. \r\n     */\r\n    function getTotalCollateral()public view returns(uint256){\r\n        int256 totalNum = 0;\r\n        uint whiteListLen = whiteList.length;\r\n        for (uint256 i=0;i<whiteListLen;i++){\r\n            address addr = whiteList[i];\r\n            int256 price = int256(_oracle.getPrice(addr));\r\n            int256 netWorth = getRealBalance(addr);\r\n            if (netWorth != 0){\r\n                totalNum = totalNum.add(price*netWorth);\r\n            }\r\n        }\r\n        return totalNum>=0 ? uint256(totalNum) : 0;  \r\n    }\r\n    /**\r\n     * @dev Retrieve the balance of collateral, the auxiliary function for the total collateral calculation. \r\n     */\r\n    function getRealBalance(address settlement)public view returns(int256){\r\n        int256 netWorth = _collateralPool.getNetWorthBalance(settlement);\r\n        int256 latestWorth = _optionsPool.getNetWrothLatestWorth(settlement);\r\n        return netWorth.add(latestWorth);\r\n    }\r\n    function getNetWorthBalance(address settlement)public view returns(uint256){\r\n        int256 netWorth = _collateralPool.getNetWorthBalance(settlement);\r\n        int256 latestWorth = _optionsPool.getNetWrothLatestWorth(settlement);\r\n        netWorth = netWorth.add(latestWorth);\r\n        if (netWorth>0){\r\n            return uint256(netWorth);\r\n        }\r\n        return 0;\r\n    }\r\n    /**\r\n     * @dev the auxiliary function for payback. \r\n     */\r\n    function _paybackWorth(uint256 worth,uint256 feeType) internal {\r\n        uint256 totalPrice = 0;\r\n        uint whiteLen = whiteList.length;\r\n        uint256[] memory balances = new uint256[](whiteLen);\r\n        uint256 i=0;\r\n        for(;i<whiteLen;i++){\r\n            address addr = whiteList[i];\r\n            if (checkAddressPermission(addr,allowSellOut)){\r\n                uint256 price = _oracle.getPrice(addr);\r\n                balances[i] = getNetWorthBalance(addr);\r\n                //balances[i] = netWorthBalances[addr];\r\n                totalPrice = totalPrice.add(price*balances[i]);\r\n            }\r\n        }\r\n        require(totalPrice>=worth && worth > 0,\"payback settlement is insufficient!\");\r\n        for (i=0;i<whiteLen;i++){\r\n            uint256 _payBack = balances[i].mul(worth)/totalPrice;\r\n            _collateralPool.transferPaybackAndFee(msg.sender,whiteList[i],_payBack,feeType);\r\n            //addr = whiteList[i];\r\n            //netWorthBalances[addr] = balances[i].sub(_payBack);\r\n            //_transferPaybackAndFee(msg.sender,addr,_payBack,feeType);\r\n        } \r\n    }\r\n    /**\r\n     * @dev the auxiliary function for getting user's transer\r\n     */\r\n    function getPayableAmount(address settlement,uint256 settlementAmount) internal returns (uint256) {\r\n        require(checkAddressPayIn(settlement) , \"settlement is unsupported token\");\r\n        uint256 colAmount = 0;\r\n        if (settlement == address(0)){\r\n            colAmount = msg.value;\r\n            address payable poolAddr = address(uint160(address(_collateralPool)));\r\n            poolAddr.transfer(msg.value);\r\n        }else if (settlementAmount > 0){\r\n            IERC20 oToken = IERC20(settlement);\r\n            uint256 preBalance = oToken.balanceOf(address(this));\r\n            oToken.transferFrom(msg.sender, address(this), settlementAmount);\r\n            uint256 afterBalance = oToken.balanceOf(address(this));\r\n            require(afterBalance-preBalance==settlementAmount,\"settlement token transfer error!\");\r\n            colAmount = settlementAmount;\r\n            oToken.transfer(address(_collateralPool),settlementAmount);\r\n        }\r\n        checkInputAmount(colAmount);\r\n        return colAmount;\r\n    }\r\n    /**\r\n     * @dev collateral occupation rate calculation\r\n     *      collateral occupation rate = sum(collateral Rate * collateral balance) / sum(collateral balance)\r\n     */\r\n    function calculateCollateralRate()public view returns (uint256){\r\n        uint256 totalCollateral = 0;\r\n        uint256 totalRate = 0;\r\n        uint whiteLen = whiteList.length;\r\n        uint256 i=0;\r\n        for(;i<whiteLen;i++){\r\n            address addr = whiteList[i];\r\n             uint256 balance = getNetWorthBalance(addr);\r\n             totalCollateral = totalCollateral.add(balance);\r\n             totalRate = totalRate.add(collateralRate[addr].mul(balance));\r\n        }\r\n        if (totalCollateral > 0){\r\n            return totalRate / totalCollateral;\r\n        }else{\r\n            return 5000;\r\n        }\r\n    }\r\n    /**\r\n     * @dev the auxiliary function for collateral calculation\r\n     */\r\n    function calculateCollateral(uint256 amount)internal view returns (uint256){\r\n        return calculateCollateralRate()*amount/1000;\r\n    }\r\n}",
  "sourcePath": "C:\\work\\solidity\\FinnexusOptions_V2\\contracts\\OptionsManager\\CollateralCal.sol",
  "compiler": {
    "name": "solc",
    "version": "0.5.16+commit.9c3226ce.Emscripten.clang"
  },
  "schemaVersion": "3.1.0",
  "updatedAt": "2020-09-02T10:47:05.588Z",
  "devdoc": {
    "details": "A smart-contract which has operations of collateral and methods of calculate collateral occupation.  ",
    "methods": {
      "addCollateral(address,uint256)": {
        "details": "Deposit collateral in this pool from user.",
        "params": {
          "amount": "the amount of collateral to deposit.",
          "collateral": "The collateral coin address which is in whitelist."
        }
      },
      "addNetBalance(address,uint256)": {
        "details": "The foundation operator want to add some coin to netbalance, which can increase the FPTCoin net worth.",
        "params": {
          "amount": "the amount of the settlement coin which the foundation operator want to transfer in this contract address.",
          "settlement": "the settlement coin address which the foundation operator want to transfer in this contract address."
        }
      },
      "addOperator(address)": {
        "details": "add a new operator by owner.       "
      },
      "addWhiteList(address)": {
        "details": "Implementation of add an eligible address into the whitelist.",
        "params": {
          "addAddress": "new eligible address."
        }
      },
      "calCollateralWorth(address)": {
        "details": "Retrieve user's collateral worth in all collateral coin.  If user want to redeem all his collateral,and the vacant collateral is sufficient, He can redeem each collateral amount in return list.",
        "params": {
          "account": "the retrieve user's account;"
        }
      },
      "calOptionsOccupied(uint256,uint256,uint256,uint8)": {
        "details": "The auxiliary function for calculate option occupied. ",
        "params": {
          "amount": "option's amount",
          "optType": "option's type, 0 for call, 1 for put.",
          "strikePrice": "option's strike price",
          "underlyingPrice": "option's underlying price"
        }
      },
      "calSharedPayment()": {
        "details": "Calculate the collateral pool shared worth. The foundation operator will invoke this function frequently"
      },
      "calculateCollateralRate()": {
        "details": "collateral occupation rate calculation     collateral occupation rate = sum(collateral Rate * collateral balance) / sum(collateral balance)"
      },
      "getAvailableCollateral()": {
        "details": "Retrieve the available collateral worth, the worth of collateral which can used for buy options, priced in USD. "
      },
      "getCollateralRate(address)": {
        "details": "Get the minimum collateral occupation rate."
      },
      "getInputAmountRange()": {
        "details": "get the valid range of input amount"
      },
      "getLeftCollateral()": {
        "details": "Retrieve the left collateral worth, the worth of collateral which can used for redeem collateral, priced in USD. "
      },
      "getOccupiedCollateral()": {
        "details": "Retrieve the occupied collateral worth, multiplied by minimum collateral rate, priced in USD. "
      },
      "getOperator()": {
        "details": "get all operators.       "
      },
      "getRealBalance(address)": {
        "details": "Retrieve the balance of collateral, the auxiliary function for the total collateral calculation. "
      },
      "getTokenNetworth()": {
        "details": "Retrieve FPTCoin's net worth, priced in USD."
      },
      "getTotalCollateral()": {
        "details": "Retrieve the total collateral worth, priced in USD. "
      },
      "getUnlockedCollateral()": {
        "details": "Retrieve the unlocked collateral worth, the worth of collateral which currently used for options, priced in USD. "
      },
      "getUserPayingUsd(address)": {
        "details": "Retrieve user's cost of collateral, priced in USD.",
        "params": {
          "user": "input retrieved account "
        }
      },
      "getUserTotalWorth(address)": {
        "details": "Retrieve user's current total worth, priced in USD.",
        "params": {
          "account": "input retrieve account"
        }
      },
      "getWhiteList()": {
        "details": "Implementation of getting the eligible whitelist."
      },
      "isEligibleAddress(address)": {
        "details": "Implementation of testing whether the input address is eligible.",
        "params": {
          "tmpAddress": "input address for testing."
        }
      },
      "isOwner()": {
        "details": "Returns true if the caller is the current owner."
      },
      "owner()": {
        "details": "Returns the address of the current owner."
      },
      "redeemCollateral(uint256,address)": {
        "details": "redeem collateral from this pool, user can input the prioritized collateral,he will get this coin, if this coin is unsufficient, he will get others collateral which in whitelist.",
        "params": {
          "collateral": "The prioritized collateral coin address.",
          "tokenAmount": "the amount of FPTCoin want to redeem."
        }
      },
      "removeOperator(address)": {
        "details": "remove operator by owner.       "
      },
      "removeWhiteList(address)": {
        "details": "Implementation of revoke an invalid address from the whitelist.",
        "params": {
          "removeAddress": "revoked address."
        }
      },
      "renounceOwnership()": {
        "details": "Leaves the contract without owner. It will not be possible to call `onlyOwner` functions anymore. Can only be called by the current owner.      * NOTE: Renouncing ownership will leave the contract without an owner, thereby removing any functionality that is only available to the owner."
      },
      "setCollateralRate(address,uint256)": {
        "details": "The foundation owner want to set the minimum collateral occupation rate.",
        "params": {
          "colRate": "The thousandths of the minimum collateral occupation rate.",
          "collateral": "collateral coin address"
        }
      },
      "setInputAmountRange(uint256,uint256)": {
        "details": "set the valid range of input amount",
        "params": {
          "_maxAmount": "the maximum input amount limit",
          "_minAmount": "the minimum input amount limit"
        }
      },
      "setOperator(address[])": {
        "details": "set all operators by owner.       "
      },
      "setOperator(uint256,address)": {
        "details": "modify indexed operator by owner.       "
      },
      "setSharedPayment(int256[],int256[],uint256)": {
        "details": "Set the calculation results of the collateral pool shared worth. The foundation operator will invoke this function frequently",
        "params": {
          "firstOption": "The new first unexpired option's index.",
          "newNetworth": "Current expired options' net worth ",
          "sharedBalances": "All unexpired options' shared balance distributed by time."
        }
      },
      "transferOwnership(address)": {
        "details": "Transfers ownership of the contract to a new account (`newOwner`). Can only be called by the current owner."
      },
      "userInputCollateral(address,address)": {
        "details": "Retrieve user's amount of the specified collateral.",
        "params": {
          "collateral": "input retrieved collateral coin address ",
          "user": "input retrieved account "
        }
      }
    },
    "title": "collateral calculate module"
  },
  "userdoc": {
    "methods": {
      "setHalt(bool)": {
        "notice": "function Emergency situation that requires contribution period to stop or not."
      }
    }
  }
}