{
  "contractName": "CollateralCal",
  "abi": [
    {
      "constant": true,
      "inputs": [
        {
          "name": "tmpAddress",
          "type": "address"
        }
      ],
      "name": "checkAddressRedeemOut",
      "outputs": [
        {
          "name": "",
          "type": "bool"
        }
      ],
      "payable": false,
      "stateMutability": "view",
      "type": "function"
    },
    {
      "constant": true,
      "inputs": [],
      "name": "getWhiteList",
      "outputs": [
        {
          "name": "",
          "type": "address[]"
        }
      ],
      "payable": false,
      "stateMutability": "view",
      "type": "function"
    },
    {
      "constant": false,
      "inputs": [
        {
          "name": "collateralPool",
          "type": "address"
        }
      ],
      "name": "setCollateralPoolAddress",
      "outputs": [],
      "payable": false,
      "stateMutability": "nonpayable",
      "type": "function"
    },
    {
      "constant": false,
      "inputs": [
        {
          "name": "optionsPool",
          "type": "address"
        }
      ],
      "name": "setOptionsPoolAddress",
      "outputs": [],
      "payable": false,
      "stateMutability": "nonpayable",
      "type": "function"
    },
    {
      "constant": false,
      "inputs": [
        {
          "name": "removeAddress",
          "type": "address"
        }
      ],
      "name": "removeWhiteList",
      "outputs": [
        {
          "name": "",
          "type": "bool"
        }
      ],
      "payable": false,
      "stateMutability": "nonpayable",
      "type": "function"
    },
    {
      "constant": true,
      "inputs": [],
      "name": "getCollateralPoolAddress",
      "outputs": [
        {
          "name": "",
          "type": "address"
        }
      ],
      "payable": false,
      "stateMutability": "view",
      "type": "function"
    },
    {
      "constant": false,
      "inputs": [],
      "name": "redeemAll",
      "outputs": [],
      "payable": false,
      "stateMutability": "nonpayable",
      "type": "function"
    },
    {
      "constant": true,
      "inputs": [
        {
          "name": "feeType",
          "type": "uint256"
        },
        {
          "name": "amount",
          "type": "uint256"
        }
      ],
      "name": "calculateFee",
      "outputs": [
        {
          "name": "",
          "type": "uint256"
        }
      ],
      "payable": false,
      "stateMutability": "view",
      "type": "function"
    },
    {
      "constant": false,
      "inputs": [
        {
          "name": "oracle",
          "type": "address"
        }
      ],
      "name": "setOracleAddress",
      "outputs": [],
      "payable": false,
      "stateMutability": "nonpayable",
      "type": "function"
    },
    {
      "constant": false,
      "inputs": [],
      "name": "renounceOwnership",
      "outputs": [],
      "payable": false,
      "stateMutability": "nonpayable",
      "type": "function"
    },
    {
      "constant": true,
      "inputs": [
        {
          "name": "tmpAddress",
          "type": "address"
        }
      ],
      "name": "isEligibleAddress",
      "outputs": [
        {
          "name": "",
          "type": "bool"
        }
      ],
      "payable": false,
      "stateMutability": "view",
      "type": "function"
    },
    {
      "constant": true,
      "inputs": [],
      "name": "owner",
      "outputs": [
        {
          "name": "",
          "type": "address"
        }
      ],
      "payable": false,
      "stateMutability": "view",
      "type": "function"
    },
    {
      "constant": true,
      "inputs": [],
      "name": "isOwner",
      "outputs": [
        {
          "name": "",
          "type": "bool"
        }
      ],
      "payable": false,
      "stateMutability": "view",
      "type": "function"
    },
    {
      "constant": false,
      "inputs": [
        {
          "name": "currency",
          "type": "address"
        }
      ],
      "name": "redeem",
      "outputs": [],
      "payable": false,
      "stateMutability": "nonpayable",
      "type": "function"
    },
    {
      "constant": false,
      "inputs": [
        {
          "name": "addAddress",
          "type": "address"
        }
      ],
      "name": "addOperator",
      "outputs": [],
      "payable": false,
      "stateMutability": "nonpayable",
      "type": "function"
    },
    {
      "constant": false,
      "inputs": [
        {
          "name": "removeAddress",
          "type": "address"
        }
      ],
      "name": "removeOperator",
      "outputs": [
        {
          "name": "",
          "type": "bool"
        }
      ],
      "payable": false,
      "stateMutability": "nonpayable",
      "type": "function"
    },
    {
      "constant": true,
      "inputs": [],
      "name": "getOracleAddress",
      "outputs": [
        {
          "name": "",
          "type": "address"
        }
      ],
      "payable": false,
      "stateMutability": "view",
      "type": "function"
    },
    {
      "constant": true,
      "inputs": [
        {
          "name": "tmpAddress",
          "type": "address"
        }
      ],
      "name": "checkAddressPayIn",
      "outputs": [
        {
          "name": "",
          "type": "bool"
        }
      ],
      "payable": false,
      "stateMutability": "view",
      "type": "function"
    },
    {
      "constant": false,
      "inputs": [
        {
          "name": "feeType",
          "type": "uint256"
        },
        {
          "name": "numerator",
          "type": "uint256"
        },
        {
          "name": "denominator",
          "type": "uint256"
        }
      ],
      "name": "setTransactionFee",
      "outputs": [],
      "payable": false,
      "stateMutability": "nonpayable",
      "type": "function"
    },
    {
      "constant": true,
      "inputs": [],
      "name": "getOptionsPoolAddress",
      "outputs": [
        {
          "name": "",
          "type": "address"
        }
      ],
      "payable": false,
      "stateMutability": "view",
      "type": "function"
    },
    {
      "constant": false,
      "inputs": [
        {
          "name": "addAddress",
          "type": "address"
        },
        {
          "name": "permission",
          "type": "uint256"
        }
      ],
      "name": "modifyPermission",
      "outputs": [],
      "payable": false,
      "stateMutability": "nonpayable",
      "type": "function"
    },
    {
      "constant": true,
      "inputs": [
        {
          "name": "settlement",
          "type": "address"
        }
      ],
      "name": "getFeeBalance",
      "outputs": [
        {
          "name": "",
          "type": "uint256"
        }
      ],
      "payable": false,
      "stateMutability": "view",
      "type": "function"
    },
    {
      "constant": true,
      "inputs": [
        {
          "name": "feeType",
          "type": "uint256"
        }
      ],
      "name": "getFeeRate",
      "outputs": [
        {
          "name": "",
          "type": "uint256"
        },
        {
          "name": "",
          "type": "uint256"
        }
      ],
      "payable": false,
      "stateMutability": "view",
      "type": "function"
    },
    {
      "constant": true,
      "inputs": [],
      "name": "getFPTCoinAddress",
      "outputs": [
        {
          "name": "",
          "type": "address"
        }
      ],
      "payable": false,
      "stateMutability": "view",
      "type": "function"
    },
    {
      "constant": false,
      "inputs": [
        {
          "name": "FPTCoinAddr",
          "type": "address"
        }
      ],
      "name": "setFPTCoinAddress",
      "outputs": [],
      "payable": false,
      "stateMutability": "nonpayable",
      "type": "function"
    },
    {
      "constant": false,
      "inputs": [
        {
          "name": "index",
          "type": "uint256"
        },
        {
          "name": "addAddress",
          "type": "address"
        }
      ],
      "name": "setOperator",
      "outputs": [],
      "payable": false,
      "stateMutability": "nonpayable",
      "type": "function"
    },
    {
      "constant": false,
      "inputs": [
        {
          "name": "addAddress",
          "type": "address"
        }
      ],
      "name": "addWhiteList",
      "outputs": [],
      "payable": false,
      "stateMutability": "nonpayable",
      "type": "function"
    },
    {
      "constant": true,
      "inputs": [],
      "name": "getOperator",
      "outputs": [
        {
          "name": "",
          "type": "address[]"
        }
      ],
      "payable": false,
      "stateMutability": "view",
      "type": "function"
    },
    {
      "constant": true,
      "inputs": [],
      "name": "getAllFeeBalances",
      "outputs": [
        {
          "name": "",
          "type": "address[]"
        },
        {
          "name": "",
          "type": "uint256[]"
        }
      ],
      "payable": false,
      "stateMutability": "view",
      "type": "function"
    },
    {
      "constant": false,
      "inputs": [
        {
          "name": "newOwner",
          "type": "address"
        }
      ],
      "name": "transferOwnership",
      "outputs": [],
      "payable": false,
      "stateMutability": "nonpayable",
      "type": "function"
    },
    {
      "constant": false,
      "inputs": [
        {
          "name": "halt",
          "type": "bool"
        }
      ],
      "name": "setHalt",
      "outputs": [],
      "payable": false,
      "stateMutability": "nonpayable",
      "type": "function"
    },
    {
      "anonymous": false,
      "inputs": [
        {
          "indexed": true,
          "name": "from",
          "type": "address"
        },
        {
          "indexed": true,
          "name": "collateral",
          "type": "address"
        },
        {
          "indexed": false,
          "name": "amount",
          "type": "uint256"
        },
        {
          "indexed": false,
          "name": "tokenAmount",
          "type": "uint256"
        }
      ],
      "name": "AddCollateral",
      "type": "event"
    },
    {
      "anonymous": false,
      "inputs": [
        {
          "indexed": true,
          "name": "from",
          "type": "address"
        },
        {
          "indexed": false,
          "name": "collateral",
          "type": "address"
        },
        {
          "indexed": false,
          "name": "allRedeem",
          "type": "uint256"
        }
      ],
      "name": "RedeemCollateral",
      "type": "event"
    },
    {
      "anonymous": false,
      "inputs": [
        {
          "indexed": true,
          "name": "value1",
          "type": "uint256"
        },
        {
          "indexed": true,
          "name": "value2",
          "type": "uint256"
        },
        {
          "indexed": true,
          "name": "value3",
          "type": "uint256"
        }
      ],
      "name": "DebugEvent",
      "type": "event"
    },
    {
      "anonymous": false,
      "inputs": [
        {
          "indexed": true,
          "name": "recieptor",
          "type": "address"
        },
        {
          "indexed": true,
          "name": "settlement",
          "type": "address"
        },
        {
          "indexed": false,
          "name": "payback",
          "type": "uint256"
        }
      ],
      "name": "FeePayback",
      "type": "event"
    },
    {
      "anonymous": false,
      "inputs": [
        {
          "indexed": true,
          "name": "settlement",
          "type": "address"
        },
        {
          "indexed": false,
          "name": "payback",
          "type": "uint256"
        }
      ],
      "name": "AddFee",
      "type": "event"
    },
    {
      "anonymous": false,
      "inputs": [
        {
          "indexed": true,
          "name": "recieptor",
          "type": "address"
        },
        {
          "indexed": true,
          "name": "settlement",
          "type": "address"
        },
        {
          "indexed": false,
          "name": "payback",
          "type": "uint256"
        }
      ],
      "name": "TransferPayback",
      "type": "event"
    },
    {
      "anonymous": false,
      "inputs": [
        {
          "indexed": true,
          "name": "previousOwner",
          "type": "address"
        },
        {
          "indexed": true,
          "name": "newOwner",
          "type": "address"
        }
      ],
      "name": "OwnershipTransferred",
      "type": "event"
    },
    {
      "constant": false,
      "inputs": [
        {
          "name": "settlement",
          "type": "address"
        },
        {
          "name": "amount",
          "type": "uint256"
        }
      ],
      "name": "addNetBalance",
      "outputs": [],
      "payable": true,
      "stateMutability": "payable",
      "type": "function"
    },
    {
      "constant": false,
      "inputs": [
        {
          "name": "numerator",
          "type": "uint256"
        },
        {
          "name": "denominator",
          "type": "uint256"
        }
      ],
      "name": "setCollateralRate",
      "outputs": [],
      "payable": false,
      "stateMutability": "nonpayable",
      "type": "function"
    },
    {
      "constant": true,
      "inputs": [],
      "name": "getCollateralRate",
      "outputs": [
        {
          "name": "",
          "type": "uint256"
        },
        {
          "name": "",
          "type": "uint256"
        }
      ],
      "payable": false,
      "stateMutability": "view",
      "type": "function"
    },
    {
      "constant": true,
      "inputs": [
        {
          "name": "user",
          "type": "address"
        }
      ],
      "name": "getUserPayingUsd",
      "outputs": [
        {
          "name": "",
          "type": "uint256"
        }
      ],
      "payable": false,
      "stateMutability": "view",
      "type": "function"
    },
    {
      "constant": true,
      "inputs": [
        {
          "name": "user",
          "type": "address"
        },
        {
          "name": "collateral",
          "type": "address"
        }
      ],
      "name": "userInputCollateral",
      "outputs": [
        {
          "name": "",
          "type": "uint256"
        }
      ],
      "payable": false,
      "stateMutability": "view",
      "type": "function"
    },
    {
      "constant": false,
      "inputs": [],
      "name": "calSharedPayment",
      "outputs": [],
      "payable": false,
      "stateMutability": "nonpayable",
      "type": "function"
    },
    {
      "constant": false,
      "inputs": [
        {
          "name": "newNetworth",
          "type": "uint256[]"
        },
        {
          "name": "sharedBalances",
          "type": "int256[]"
        },
        {
          "name": "firstOption",
          "type": "uint256"
        }
      ],
      "name": "setSharedPayment",
      "outputs": [],
      "payable": false,
      "stateMutability": "nonpayable",
      "type": "function"
    },
    {
      "constant": true,
      "inputs": [
        {
          "name": "account",
          "type": "address"
        }
      ],
      "name": "getUserTotalWorth",
      "outputs": [
        {
          "name": "",
          "type": "uint256"
        }
      ],
      "payable": false,
      "stateMutability": "view",
      "type": "function"
    },
    {
      "constant": true,
      "inputs": [],
      "name": "getTokenNetworth",
      "outputs": [
        {
          "name": "",
          "type": "uint256"
        }
      ],
      "payable": false,
      "stateMutability": "view",
      "type": "function"
    },
    {
      "constant": false,
      "inputs": [
        {
          "name": "collateral",
          "type": "address"
        },
        {
          "name": "amount",
          "type": "uint256"
        }
      ],
      "name": "addCollateral",
      "outputs": [],
      "payable": true,
      "stateMutability": "payable",
      "type": "function"
    },
    {
      "constant": false,
      "inputs": [
        {
          "name": "tokenAmount",
          "type": "uint256"
        },
        {
          "name": "collateral",
          "type": "address"
        }
      ],
      "name": "redeemCollateral",
      "outputs": [],
      "payable": false,
      "stateMutability": "nonpayable",
      "type": "function"
    },
    {
      "constant": true,
      "inputs": [
        {
          "name": "account",
          "type": "address"
        }
      ],
      "name": "calCollateralWorth",
      "outputs": [
        {
          "name": "",
          "type": "uint256[]"
        }
      ],
      "payable": false,
      "stateMutability": "view",
      "type": "function"
    },
    {
      "constant": true,
      "inputs": [],
      "name": "getOccupiedCollateral",
      "outputs": [
        {
          "name": "",
          "type": "uint256"
        }
      ],
      "payable": false,
      "stateMutability": "view",
      "type": "function"
    },
    {
      "constant": true,
      "inputs": [],
      "name": "getAvailableCollateral",
      "outputs": [
        {
          "name": "",
          "type": "uint256"
        }
      ],
      "payable": false,
      "stateMutability": "view",
      "type": "function"
    },
    {
      "constant": true,
      "inputs": [],
      "name": "getLeftCollateral",
      "outputs": [
        {
          "name": "",
          "type": "uint256"
        }
      ],
      "payable": false,
      "stateMutability": "view",
      "type": "function"
    },
    {
      "constant": true,
      "inputs": [],
      "name": "getUnlockedCollateral",
      "outputs": [
        {
          "name": "",
          "type": "uint256"
        }
      ],
      "payable": false,
      "stateMutability": "view",
      "type": "function"
    },
    {
      "constant": true,
      "inputs": [
        {
          "name": "strikePrice",
          "type": "uint256"
        },
        {
          "name": "underlyingPrice",
          "type": "uint256"
        },
        {
          "name": "amount",
          "type": "uint256"
        },
        {
          "name": "optType",
          "type": "uint8"
        }
      ],
      "name": "calOptionsOccupied",
      "outputs": [
        {
          "name": "",
          "type": "uint256"
        }
      ],
      "payable": false,
      "stateMutability": "view",
      "type": "function"
    },
    {
      "constant": true,
      "inputs": [],
      "name": "getTotalCollateral",
      "outputs": [
        {
          "name": "",
          "type": "uint256"
        }
      ],
      "payable": false,
      "stateMutability": "view",
      "type": "function"
    },
    {
      "constant": true,
      "inputs": [
        {
          "name": "settlement",
          "type": "address"
        }
      ],
      "name": "getNetWorthBalance",
      "outputs": [
        {
          "name": "",
          "type": "uint256"
        }
      ],
      "payable": false,
      "stateMutability": "view",
      "type": "function"
    }
  ],
  "bytecode": "0x6000805460c0604081905260056080819052600160a0819052600a91909155600b55600160b060020a031990911661010033810291909117808455600160a060020a039190041691907f8be0079c531659141344cd1fd0a4f28419497f9722a3daafe3b4186f6b6457e0908290a360408051808201825260008082526103e860208084018281526004805460018181018355828752965160029182027f8a35acfbc15ff81a39ae7d344fd709f28e8600b4aa8c65c6b64bfe7fe36bd19b8181019290925593517f8a35acfbc15ff81a39ae7d344fd709f28e8600b4aa8c65c6b64bfe7fe36bd19c948501558851808a018a52603281528086018781528454808b018655858a5291519184028084019290925551908501558851808a018a528781528086018781528454808b018655858a5291519184028084019290925551908501558851808a018a528781528086018781528454808b018655858a5291519184028084019290925551908501558851808a019099528689529388019485528154968701825594529451939092029182019290925590519101556149ac806101a76000396000f3006080604052600436106102425763ffffffff60e060020a600035041663059621d7811461024757806309a9d76c1461027c5780630aaf3832146102e15780631730b3cb146103085780631a5a3fce1461032b5780632042e5c21461034c578063251e2fe31461036d5780632f4350c21461039e57806332c82a5f146103b357806334e73122146103d757806342049a72146103f2578063447dbeac146104135780634c69c00f146104345780635d5ecaff146104555780636b6ecea8146104e55780636d75b9ee14610506578063715018a61461051d578063817bf86d14610532578063852185fc146105535780638691a8c5146105815780638da5cb5b146105985780638f32d59b146105ad57806395a2251f146105c25780639870d7fe146105e3578063a20a804514610604578063a56ea40314610628578063ac8a584a14610649578063b18b78dd1461066a578063b4d5a9c71461067f578063bc2c3002146106a6578063bdac4bf6146106bb578063bf36b110146106dc578063c040725a146106fa578063c219043b1461070f578063c5e5a3ed14610733578063c78f680314610748578063cd40581914610769578063d2aaef4e1461077e578063d6eb591014610796578063d7e57992146107ab578063dab55129146107c0578063e28a327d146107d5578063e7122ffd146107ea578063e7a1c1c01461080b578063e7cd4a041461082f578063e7f43c6814610850578063ef63e1f714610865578063f20568cd14610880578063f2fde38b1461092e578063f49543871461094f575b600080fd5b34801561025357600080fd5b50610268600160a060020a0360043516610969565b604080519115158252519081900360200190f35b34801561028857600080fd5b506102916109a3565b60408051602080825283518183015283519192839290830191858101910280838360005b838110156102cd5781810151838201526020016102b5565b505050509050019250505060405180910390f35b3480156102ed57600080fd5b506102f6610a06565b60408051918252519081900360200190f35b34801561031457600080fd5b50610329600160a060020a0360043516610a25565b005b34801561033757600080fd5b50610329600160a060020a0360043516610aa0565b34801561035857600080fd5b50610268600160a060020a0360043516610b1b565b34801561037957600080fd5b50610382610b74565b60408051600160a060020a039092168252519081900360200190f35b3480156103aa57600080fd5b50610329610b83565b3480156103bf57600080fd5b506102f660043560243560443560ff60643516610c16565b3480156103e357600080fd5b506102f6600435602435610c64565b3480156103fe57600080fd5b506102f6600160a060020a0360043516610cab565b34801561041f57600080fd5b506102f6600160a060020a0360043516610d48565b34801561044057600080fd5b50610329600160a060020a0360043516610e98565b34801561046157600080fd5b506040805160206004803580820135838102808601850190965280855261032995369593946024949385019291829185019084908082843750506040805187358901803560208181028481018201909552818452989b9a9989019892975090820195509350839250850190849080828437509497505093359450610f139350505050565b3480156104f157600080fd5b506102f6600160a060020a03600435166111be565b610329600160a060020a0360043516602435611339565b34801561052957600080fd5b5061032961181a565b34801561053e57600080fd5b50610268600160a060020a03600435166118c2565b34801561055f57600080fd5b50610568611928565b6040805192835260208301919091528051918290030190f35b610329600160a060020a0360043516602435611932565b3480156105a457600080fd5b50610382611a7c565b3480156105b957600080fd5b50610268611a90565b3480156105ce57600080fd5b50610329600160a060020a0360043516611aa6565b3480156105ef57600080fd5b50610329600160a060020a0360043516611c96565b34801561061057600080fd5b50610329600435600160a060020a0360243516611ced565b34801561063457600080fd5b50610291600160a060020a0360043516612095565b34801561065557600080fd5b50610268600160a060020a036004351661215b565b34801561067657600080fd5b506103826121b4565b34801561068b57600080fd5b506102f6600160a060020a03600435811690602435166121c3565b3480156106b257600080fd5b50610329612269565b3480156106c757600080fd5b50610268600160a060020a03600435166129ae565b3480156106e857600080fd5b506103296004356024356044356129e2565b34801561070657600080fd5b50610382612a46565b34801561071b57600080fd5b50610329600160a060020a0360043516602435612a55565b34801561073f57600080fd5b506102f6612abd565b34801561075457600080fd5b506102f6600160a060020a0360043516612b6e565b34801561077557600080fd5b506102f6612b89565b34801561078a57600080fd5b50610568600435612c1c565b3480156107a257600080fd5b506102f6612c3d565b3480156107b757600080fd5b50610382612d54565b3480156107cc57600080fd5b506102f6612d63565b3480156107e157600080fd5b506102f6612df4565b3480156107f657600080fd5b50610329600160a060020a0360043516612e01565b34801561081757600080fd5b50610329600435600160a060020a0360243516612e7c565b34801561083b57600080fd5b50610329600160a060020a0360043516612f0a565b34801561085c57600080fd5b50610291612f81565b34801561087157600080fd5b50610329600435602435612fe1565b34801561088c57600080fd5b50610895613038565b604051808060200180602001838103835285818151815260200191508051906020019060200280838360005b838110156108d95781810151838201526020016108c1565b50505050905001838103825284818151815260200191508051906020019060200280838360005b83811015610918578181015183820152602001610900565b5050505090500194505050505060405180910390f35b34801561093a57600080fd5b50610329600160a060020a0360043516613141565b34801561095b57600080fd5b506103296004351515613196565b6000610974826118c2565b801561099b5750600160a060020a0382166000908152600260208190526040909120548116145b90505b919050565b606060018054806020026020016040519081016040528092919081815260200182805480156109fb57602002820191906000526020600020905b8154600160a060020a031681526001909101906020018083116109dd575b505050505090505b90565b6000610a20610a13612c3d565b610a1b612b89565b613224565b905090565b610a2d611a90565b1515610a71576040805160e560020a62461bcd0281526020600482018190526024820152600080516020614961833981519152604482015290519081900360640190fd5b6008805473ffffffffffffffffffffffffffffffffffffffff1916600160a060020a0392909216919091179055565b610aa8611a90565b1515610aec576040805160e560020a62461bcd0281526020600482018190526024820152600080516020614961833981519152604482015290519081900360640190fd5b6007805473ffffffffffffffffffffffffffffffffffffffff1916600160a060020a0392909216919091179055565b6000610b25611a90565b1515610b69576040805160e560020a62461bcd0281526020600482018190526024820152600080516020614961833981519152604482015290519081900360640190fd5b61099b60018361323f565b600854600160a060020a031690565b6000610b8d611a90565b1515610bd1576040805160e560020a62461bcd0281526020600482018190526024820152600080516020614961833981519152604482015290519081900360640190fd5b5060005b600154811015610c1357610c0b600182815481101515610bf157fe5b600091825260209091200154600160a060020a0316611aa6565b600101610bd5565b50565b60008060ff8316158587111415610c3e57610c37868563ffffffff61332c16565b9050610c51565b610c4e858563ffffffff61332c16565b90505b610c5a816133d6565b9695505050505050565b6000806000610c7285613405565b8054909250610c87908563ffffffff61332c16565b9050610ca082600101548261348490919063ffffffff16565b92505b505092915050565b600854604080517f42049a72000000000000000000000000000000000000000000000000000000008152600160a060020a038481166004830152915160009392909216916342049a729160248082019260209290919082900301818787803b158015610d1657600080fd5b505af1158015610d2a573d6000803e3d6000fd5b505050506040513d6020811015610d4057600080fd5b505192915050565b600554604080517f07e77aa0000000000000000000000000000000000000000000000000000000008152600160a060020a038481166004830152915160009361099b9316916307e77aa091602480830192602092919082900301818887803b158015610db357600080fd5b505af1158015610dc7573d6000803e3d6000fd5b505050506040513d6020811015610ddd57600080fd5b5051600554604080517f70a08231000000000000000000000000000000000000000000000000000000008152600160a060020a0387811660048301529151610e8c9392909216916370a08231916024808201926020929091908290030181600087803b158015610e4c57600080fd5b505af1158015610e60573d6000803e3d6000fd5b505050506040513d6020811015610e7657600080fd5b5051610e80612abd565b9063ffffffff61332c16565b9063ffffffff6134c616565b610ea0611a90565b1515610ee4576040805160e560020a62461bcd0281526020600482018190526024820152600080516020614961833981519152604482015290519081900360640190fd5b6006805473ffffffffffffffffffffffffffffffffffffffff1916600160a060020a0392909216919091179055565b60008080600980549050118015610f4d57506009805433919083908110610f3657fe5b600091825260209091200154600160a060020a0316145b1515610fc9576040805160e560020a62461bcd02815260206004820152603060248201527f4d616e6167657261626c653a2063616c6c6572206973206e6f7420746865206560448201527f6c696769626c65204f70657261746f7200000000000000000000000000000000606482015290519081900360840190fd5b6007546040517f2415e01000000000000000000000000000000000000000000000000000000000815260048101858152606060248301908152875160648401528751600160a060020a0390941693632415e0109388938a93600193919290916044820191608401906020808801910280838360005b8381101561105657818101518382015260200161103e565b5050505090500183810382528481815481526020019150805480156110a457602002820191906000526020600020905b8154600160a060020a03168152600190910190602001808311611086575b505095505050505050600060405180830381600087803b1580156110c757600080fd5b505af11580156110db573d6000803e3d6000fd5b50505050600091505b84518210156111b75760085460018054600160a060020a0390921691637b06405291908590811061111157fe5b6000918252602090912001548751600160a060020a039091169088908690811061113757fe5b906020019060200201516040518363ffffffff1660e060020a0281526004018083600160a060020a0316600160a060020a0316815260200182815260200192505050600060405180830381600087803b15801561119357600080fd5b505af11580156111a7573d6000803e3d6000fd5b5050600190930192506110e49050565b5050505050565b600854604080517f6b6ecea8000000000000000000000000000000000000000000000000000000008152600160a060020a038481166004830152915160009384938493911691636b6ecea89160248082019260209290919082900301818787803b15801561122b57600080fd5b505af115801561123f573d6000803e3d6000fd5b505050506040513d602081101561125557600080fd5b5051600754604080517f7e1bcb76000000000000000000000000000000000000000000000000000000008152600160a060020a0388811660048301529151939550911691637e1bcb76916024808201926020929091908290030181600087803b1580156112c157600080fd5b505af11580156112d5573d6000803e3d6000fd5b505050506040513d60208110156112eb57600080fd5b505190506000811261130e57611307828263ffffffff6134c616565b9250611332565b8060000382111561132d5761130782600083900363ffffffff61352316565b600092505b5050919050565b6000805481908190819060ff161561135057600080fd5b6000805460ff1916600117908190557501000000000000000000000000000000000000000000900460ff16156113d0576040805160e560020a62461bcd02815260206004820152601760248201527f5468697320636f6e74726163742069732068616c746564000000000000000000604482015290519081900360640190fd5b6113da8686613565565b945060008511611434576040805160e560020a62461bcd02815260206004820152601a60248201527f736574746c656d656e7420616d6f756e74206973207a65726f21000000000000604482015290519081900360640190fd5b61143f600386610c64565b935061144b868561376e565b61145b858563ffffffff61352316565b600654604080517f41976e09000000000000000000000000000000000000000000000000000000008152600160a060020a038a8116600483015291519398509116916341976e09916024808201926020929091908290030181600087803b1580156114c557600080fd5b505af11580156114d9573d6000803e3d6000fd5b505050506040513d60208110156114ef57600080fd5b50519250611503838663ffffffff61332c16565b915061151d611510612abd565b839063ffffffff61348416565b600854604080517f692a76a7000000000000000000000000000000000000000000000000000000008152336004820152602481018690529051929350600160a060020a039091169163692a76a79160448082019260009290919082900301818387803b15801561158c57600080fd5b505af11580156115a0573d6000803e3d6000fd5b5050600854604080517f2b2d50c3000000000000000000000000000000000000000000000000000000008152600160a060020a038b81166004830152602482018b90529151919092169350632b2d50c39250604480830192600092919082900301818387803b15801561161257600080fd5b505af1158015611626573d6000803e3d6000fd5b5050600854604080517fd56dbe88000000000000000000000000000000000000000000000000000000008152336004820152600160a060020a038b81166024830152604482018b9052915191909216935063d56dbe889250606480830192600092919082900301818387803b15801561169e57600080fd5b505af11580156116b2573d6000803e3d6000fd5b5050600854604080517f7b064052000000000000000000000000000000000000000000000000000000008152600160a060020a038b81166004830152602482018b90529151919092169350637b0640529250604480830192600092919082900301818387803b15801561172457600080fd5b505af1158015611738573d6000803e3d6000fd5b505060408051888152602081018590528151600160a060020a038b1694503393507f33a089d94f9a0b7d0fe21e69b40d7dbe1965be652c7382cc778d46963db8c49b929181900390910190a3600554604080517f40c10f19000000000000000000000000000000000000000000000000000000008152336004820152602481018490529051600160a060020a03909216916340c10f199160448082019260009290919082900301818387803b1580156117f057600080fd5b505af1158015611804573d6000803e3d6000fd5b50506000805460ff191690555050505050505050565b611822611a90565b1515611866576040805160e560020a62461bcd0281526020600482018190526024820152600080516020614961833981519152604482015290519081900360640190fd5b60008054604051610100909104600160a060020a0316907f8be0079c531659141344cd1fd0a4f28419497f9722a3daafe3b4186f6b6457e0908390a36000805474ffffffffffffffffffffffffffffffffffffffff0019169055565b600061099b600180548060200260200160405190810160405280929190818152602001828054801561191d57602002820191906000526020600020905b8154600160a060020a031681526001909101906020018083116118ff575b5050505050836137f7565b600a54600b549091565b600954600190811080156119695750600980543391908390811061195257fe5b600091825260209091200154600160a060020a0316145b15156119e5576040805160e560020a62461bcd02815260206004820152603060248201527f4d616e6167657261626c653a2063616c6c6572206973206e6f7420746865206560448201527f6c696769626c65204f70657261746f7200000000000000000000000000000000606482015290519081900360840190fd5b6119ef8383613565565b600854604080517f7b064052000000000000000000000000000000000000000000000000000000008152600160a060020a038781166004830152602482018590529151939550911691637b0640529160448082019260009290919082900301818387803b158015611a5f57600080fd5b505af1158015611a73573d6000803e3d6000fd5b50505050505050565b6000546101009004600160a060020a031690565b6000546101009004600160a060020a0316331490565b600080611ab1611a90565b1515611af5576040805160e560020a62461bcd0281526020600482018190526024820152600080516020614961833981519152604482015290519081900360640190fd5b600160a060020a03831660009081526003602052604081205492508211611b66576040805160e560020a62461bcd02815260206004820152601260248201527f4974277320656d7074792062616c616e63650000000000000000000000000000604482015290519081900360640190fd5b600160a060020a0383166000818152600360205260408120551515611bb857604051339083156108fc029084906000818181858888f19350505050158015611bb2573d6000803e3d6000fd5b50611c51565b50604080517fa9059cbb0000000000000000000000000000000000000000000000000000000081523360048201526024810183905290518391600160a060020a0383169163a9059cbb916044808201926020929091908290030181600087803b158015611c2457600080fd5b505af1158015611c38573d6000803e3d6000fd5b505050506040513d6020811015611c4e57600080fd5b50505b604080518381529051600160a060020a0385169133917f747147be90b2a81a2e929994a92cd7bb71396bdbfd02f181867c81187d4f79449181900360200190a3505050565b611c9e611a90565b1515611ce2576040805160e560020a62461bcd0281526020600482018190526024820152600080516020614961833981519152604482015290519081900360640190fd5b610c13600982613848565b6000805481908190819081908190819060ff1615611d0a57600080fd5b6000805460ff1916600117908190557501000000000000000000000000000000000000000000900460ff1615611d8a576040805160e560020a62461bcd02815260206004820152601760248201527f5468697320636f6e74726163742069732068616c746564000000000000000000604482015290519081900360640190fd5b611d9388610969565b1515611de9576040805160e560020a62461bcd02815260206004820152601f60248201527f736574746c656d656e7420697320756e737570706f7274656420746f6b656e00604482015290519081900360640190fd5b600554604080517f593557360000000000000000000000000000000000000000000000000000000081523360048201529051600160a060020a03909216916359355736916024808201926020929091908290030181600087803b158015611e4f57600080fd5b505af1158015611e63573d6000803e3d6000fd5b505050506040513d6020811015611e7957600080fd5b5051600554604080517f70a0823100000000000000000000000000000000000000000000000000000000815233600482015290519299508b928a92600160a060020a0316916370a082319160248083019260209291908290030181600087803b158015611ee557600080fd5b505af1158015611ef9573d6000803e3d6000fd5b505050506040513d6020811015611f0f57600080fd5b5051011015611f68576040805160e560020a62461bcd02815260206004820152601e60248201527f53436f696e2062616c616e636520697320696e73756666696369656e74210000604482015290519081900360640190fd5b881515611f7457612080565b611f7d33610d48565b9550611f87610a06565b9450611f9389866138ef565b99039860009450925083891115611fe75782850394506000871115611fc757868911611fc0576000611fc4565b8689035b98505b611fd18986613ac8565b915091506000821115611fe75781935080830192505b611ff2888488613bcf565b600084111561208057600554604080517f9dc29fac000000000000000000000000000000000000000000000000000000008152336004820152602481018790529051600160a060020a0390921691639dc29fac9160448082019260009290919082900301818387803b15801561206757600080fd5b505af115801561207b573d6000803e3d6000fd5b505050505b50506000805460ff1916905550505050505050565b606060006060806000806120a887610d48565b94506120d987600160008154811015156120be57fe5b600091825260209091200154600160a060020a031687613d06565b5060015491955093509150600090505b8181101561215057612130838281518110151561210257fe5b90602001906020020151858381518110151561211a57fe5b602090810290910101519063ffffffff6134c616565b848281518110151561213e57fe5b602090810290910101526001016120e9565b509195945050505050565b6000612165611a90565b15156121a9576040805160e560020a62461bcd0281526020600482018190526024820152600080516020614961833981519152604482015290519081900360640190fd5b61099b60098361323f565b600654600160a060020a031690565b600854604080517f6ba170b5000000000000000000000000000000000000000000000000000000008152600160a060020a038581166004830152848116602483015291516000939290921691636ba170b59160448082019260209290919082900301818787803b15801561223657600080fd5b505af115801561224a573d6000803e3d6000fd5b505050506040513d602081101561226057600080fd5b50909392505050565b60606000606060006060600080606080600080806009805490501180156122b35750600980543391908390811061229c57fe5b600091825260209091200154600160a060020a0316145b151561232f576040805160e560020a62461bcd02815260206004820152603060248201527f4d616e6167657261626c653a2063616c6c6572206973206e6f7420746865206560448201527f6c696769626c65204f70657261746f7200000000000000000000000000000000606482015290519081900360840190fd5b600180548060200260200160405190810160405280929190818152602001828054801561238557602002820191906000526020600020905b8154600160a060020a03168152600190910190602001808311612367575b50505050509a50600760009054906101000a9004600160a060020a0316600160a060020a0316636a43c05e8c6040518263ffffffff1660e060020a0281526004018080602001828103825283818151815260200191508051906020019060200280838360005b838110156124035781810151838201526020016123eb565b5050505090500192505050600060405180830381600087803b15801561242857600080fd5b505af115801561243c573d6000803e3d6000fd5b505050506040513d6000823e601f3d908101601f19168201604090815281101561246557600080fd5b81516020830180519193928301929164010000000081111561248657600080fd5b8201602081018481111561249957600080fd5b81518560208202830111640100000000821117156124b657600080fd5b505092919050505099509950600760009054906101000a9004600160a060020a0316600160a060020a031663bec3107f6040518163ffffffff1660e060020a028152600401602060405180830381600087803b15801561251557600080fd5b505af1158015612529573d6000803e3d6000fd5b505050506040513d602081101561253f57600080fd5b81019080805190602001909291905050509750600760009054906101000a9004600160a060020a0316600160a060020a03166332ab5c20898c8b8f6040518563ffffffff1660e060020a0281526004018085815260200184815260200183815260200180602001828103825283818151815260200191508051906020019060200280838360005b838110156125de5781810151838201526020016125c6565b5050505090500195505050505050600060405180830381600087803b15801561260657600080fd5b505af115801561261a573d6000803e3d6000fd5b505050506040513d6000823e601f3d908101601f19168201604052606081101561264357600080fd5b81019080805164010000000081111561265b57600080fd5b8201602081018481111561266e57600080fd5b815185602082028301116401000000008211171561268b57600080fd5b50506020820151604090920151909a50909850965050851590506129a157600760009054906101000a9004600160a060020a0316600160a060020a031663c0c5fea78b888e6040518463ffffffff1660e060020a0281526004018084815260200183815260200180602001828103825283818151815260200191508051906020019060200280838360005b8381101561272e578181015183820152602001612716565b50505050905001945050505050600060405180830381600087803b15801561275557600080fd5b505af1158015612769573d6000803e3d6000fd5b505050506040513d6000823e601f3d908101601f19168201604052602081101561279257600080fd5b8101908080516401000000008111156127aa57600080fd5b820160208101848111156127bd57600080fd5b81518560208202830111640100000000821117156127da57600080fd5b50509291905050509350600760009054906101000a9004600160a060020a0316600160a060020a03166343674c3a89888b8f6040518563ffffffff1660e060020a0281526004018085815260200184815260200183815260200180602001828103825283818151815260200191508051906020019060200280838360005b83811015612870578181015183820152602001612858565b5050505090500195505050505050600060405180830381600087803b15801561289857600080fd5b505af11580156128ac573d6000803e3d6000fd5b505050506040513d6000823e601f3d908101601f1916820160405260208110156128d557600080fd5b8101908080516401000000008111156128ed57600080fd5b8201602081018481111561290057600080fd5b815185602082028301116401000000008211171561291d57600080fd5b5090965060009550505050505b825182101561299657888281518110151561294157fe5b9060200190602002015161296b888481518110151561295c57fe5b906020019060200201516140a9565b03838381518110151561297a57fe5b602090810290910101805191909103905260019091019061292a565b6129a1848488610f13565b5050505050505050505050565b60006129b9826118c2565b801561099b575050600160a060020a031660009081526002602052604090205460019081161490565b60006129ec611a90565b1515612a30576040805160e560020a62461bcd0281526020600482018190526024820152600080516020614961833981519152604482015290519081900360640190fd5b612a3984613405565b9283555060019091015550565b600754600160a060020a031690565b612a5d611a90565b1515612aa1576040805160e560020a62461bcd0281526020600482018190526024820152600080516020614961833981519152604482015290519081900360640190fd5b600160a060020a03909116600090815260026020526040902055565b600080600560009054906101000a9004600160a060020a0316600160a060020a03166318160ddd6040518163ffffffff1660e060020a028152600401602060405180830381600087803b158015612b1357600080fd5b505af1158015612b27573d6000803e3d6000fd5b505050506040513d6020811015612b3d57600080fd5b50519050801515612b54576305f5e1009150612b6a565b80612b5d612d63565b811515612b6657fe5b0491505b5090565b600160a060020a031660009081526003602052604090205490565b600080600760009054906101000a9004600160a060020a0316600160a060020a03166373a3d4246040518163ffffffff1660e060020a028152600401602060405180830381600087803b158015612bdf57600080fd5b505af1158015612bf3573d6000803e3d6000fd5b505050506040513d6020811015612c0957600080fd5b50519050612c16816133d6565b91505090565b6000806000612c2a84613405565b8054600190910154909590945092505050565b6001546000908190818080805b84841015612d49576001805485908110612c6057fe5b6000918252602080832090910154600654604080517f41976e09000000000000000000000000000000000000000000000000000000008152600160a060020a0393841660048201819052915191985091909216936341976e099360248084019491939192918390030190829087803b158015612cdb57600080fd5b505af1158015612cef573d6000803e3d6000fd5b505050506040513d6020811015612d0557600080fd5b50519150612d12836111be565b9050801515612d3e57612d3b612d2e838363ffffffff61332c16565b879063ffffffff6134c616565b95505b600190930192612c4a565b509395945050505050565b600554600160a060020a031690565b6000610a20612d70612c3d565b600560009054906101000a9004600160a060020a0316600160a060020a031663dad3eb746040518163ffffffff1660e060020a028152600401602060405180830381600087803b158015612dc357600080fd5b505af1158015612dd7573d6000803e3d6000fd5b505050506040513d6020811015612ded57600080fd5b5051613224565b6000610a20610a13612d63565b612e09611a90565b1515612e4d576040805160e560020a62461bcd0281526020600482018190526024820152600080516020614961833981519152604482015290519081900360640190fd5b6005805473ffffffffffffffffffffffffffffffffffffffff1916600160a060020a0392909216919091179055565b612e84611a90565b1515612ec8576040805160e560020a62461bcd0281526020600482018190526024820152600080516020614961833981519152604482015290519081900360640190fd5b80600983815481101515612ed857fe5b9060005260206000200160006101000a815481600160a060020a030219169083600160a060020a031602179055505050565b612f12611a90565b1515612f56576040805160e560020a62461bcd0281526020600482018190526024820152600080516020614961833981519152604482015290519081900360640190fd5b612f61600182613848565b600160a060020a0316600090815260026020526040902063ffffffff9055565b606060098054806020026020016040519081016040528092919081815260200182805480156109fb57602002820191906000526020600020908154600160a060020a031681526001909101906020018083116109dd575050505050905090565b612fe9611a90565b151561302d576040805160e560020a62461bcd0281526020600482018190526024820152600080516020614961833981519152604482015290519081900360640190fd5b600a91909155600b55565b6060806060600060018054905060405190808252806020026020018201604052801561306e578160200160208202803883390190505b509150600090505b6001548110156130d8576003600060018381548110151561309357fe5b6000918252602080832090910154600160a060020a0316835282019290925260400190205482518390839081106130c657fe5b60209081029091010152600101613076565b6001828180548060200260200160405190810160405280929190818152602001828054801561313057602002820191906000526020600020905b8154600160a060020a03168152600190910190602001808311613112575b505050505091509350935050509091565b613149611a90565b151561318d576040805160e560020a62461bcd0281526020600482018190526024820152600080516020614961833981519152604482015290519081900360640190fd5b610c1381614122565b61319e611a90565b15156131e2576040805160e560020a62461bcd0281526020600482018190526024820152600080516020614961833981519152604482015290519081900360640190fd5b6000805491151575010000000000000000000000000000000000000000000275ff00000000000000000000000000000000000000000019909216919091179055565b6000818311613234576000613238565b8183035b9392505050565b8154600090815b8181101561328e5783600160a060020a0316858281548110151561326657fe5b600091825260209091200154600160a060020a031614156132865761328e565b600101613246565b8181101561332157600019820181146133075784600183038154811015156132b257fe5b6000918252602090912001548554600160a060020a03909116908690839081106132d857fe5b9060005260206000200160006101000a815481600160a060020a030219169083600160a060020a031602179055505b845461331786600019830161491d565b5060019250610ca3565b506000949350505050565b60008083151561333f57600091506133cf565b5082820282848281151561334f57fe5b04146133cb576040805160e560020a62461bcd02815260206004820152602160248201527f536166654d6174683a206d756c7469706c69636174696f6e206f766572666c6f60448201527f7700000000000000000000000000000000000000000000000000000000000000606482015290519081900360840190fd5b8091505b5092915050565b600a5460009081906133ee908463ffffffff61332c16565b600b5490915061323890829063ffffffff61348416565b6004546000908210613461576040805160e560020a62461bcd02815260206004820152601260248201527f66656520747970652069732076616c6964210000000000000000000000000000604482015290519081900360640190fd5b600480548390811061346f57fe5b90600052602060002090600202019050919050565b600061323883836040805190810160405280601a81526020017f536166654d6174683a206469766973696f6e206279207a65726f00000000000081525061421b565b6000828201838110156133cb576040805160e560020a62461bcd02815260206004820152601b60248201527f536166654d6174683a206164646974696f6e206f766572666c6f770000000000604482015290519081900360640190fd5b600061323883836040805190810160405280601e81526020017f536166654d6174683a207375627472616374696f6e206f766572666c6f7700008152506142c3565b6000806000613573856129ae565b15156135c9576040805160e560020a62461bcd02815260206004820152601f60248201527f736574746c656d656e7420697320756e737570706f7274656420746f6b656e00604482015290519081900360640190fd5b60009150600160a060020a038516151561362057600854604051349350600160a060020a039091169083156108fc029084906000818181858888f1935050505015801561361a573d6000803e3d6000fd5b50613766565b60008411156137665750604080517f23b872dd0000000000000000000000000000000000000000000000000000000081523360048201523060248201526044810185905290518591600160a060020a038316916323b872dd916064808201926020929091908290030181600087803b15801561369b57600080fd5b505af11580156136af573d6000803e3d6000fd5b505050506040513d60208110156136c557600080fd5b5050600854604080517fa9059cbb000000000000000000000000000000000000000000000000000000008152600160a060020a0392831660048201526024810187905290518694509183169163a9059cbb916044808201926020929091908290030181600087803b15801561373957600080fd5b505af115801561374d573d6000803e3d6000fd5b505050506040513d602081101561376357600080fd5b50505b509392505050565b60008111156137f357600160a060020a0382166000908152600360205260409020546137a0908263ffffffff6134c616565b600160a060020a038316600081815260036020908152604091829020939093558051848152905191927f1104eee7f034069140a0655d153038cedf9e65e5724018c555a8d56cfb6bee7792918290030190a25b5050565b8151600090815b818110156133215783600160a060020a0316858281518110151561381e57fe5b90602001906020020151600160a060020a031614156138405760019250610ca3565b6001016137fe565b6138ab828054806020026020016040519081016040528092919081815260200182805480156138a057602002820191906000526020600020905b8154600160a060020a03168152600190910190602001808311613882575b5050505050826137f7565b15156137f3578154600181018355600083815260209020018054600160a060020a03831673ffffffffffffffffffffffffffffffffffffffff199091161790555050565b600080808080808087151561390357613abc565b600554604080517fc40868930000000000000000000000000000000000000000000000000000000081523360048201528151600160a060020a039093169263c4086893926024808401939192918290030181600087803b15801561396657600080fd5b505af115801561397a573d6000803e3d6000fd5b505050506040513d604081101561399057600080fd5b50805160209091015190955093508415156139b15760009650869550613abc565b600092506000915084848115156139c457fe5b0490508885106139e8578891506139e1828263ffffffff61332c16565b92506139ef565b8491508392505b87831115613a1c57613a07888263ffffffff61348416565b9150613a19828263ffffffff61332c16565b92505b6000821115613ab457600554604080517fc872e8dc000000000000000000000000000000000000000000000000000000008152336004820152602481018590529051600160a060020a039092169163c872e8dc9160448082019260009290919082900301818387803b158015613a9157600080fd5b505af1158015613aa5573d6000803e3d6000fd5b50505050818396509650613abc565b600096508695505b50505050509250929050565b6000806000806000806000613adb612abd565b9450613aed898663ffffffff61332c16565b935087841115613bc057613b07888663ffffffff61348416565b9250613b19838663ffffffff61332c16565b600554909250838a039150600160a060020a0316634b91a07b3383613b44818a63ffffffff61332c16565b6040518463ffffffff1660e060020a0281526004018084600160a060020a0316600160a060020a031681526020018381526020018281526020019350505050600060405180830381600087803b158015613b9d57600080fd5b505af1158015613bb1573d6000803e3d6000fd5b50505050828296509650613abc565b50969791965090945050505050565b60608080841515613bdf57613cfe565b60408051600160a060020a038816815260208101879052815133927fc994feb9b99296d80965b47aec6be0d25704ddf95b9b9bc1ed8bc753960d5809928290030190a2613c2d338786613d06565b925092509250826001815181101515613c4257fe5b90602001906020020151836000815181101515613c5b57fe5b60209081029091010151604051610d05907f36bc09f07bcf3d3fa05df7f9c56193487df0507ecd1d5a83845b56b4e6d7b73390600090a4816001815181101515613ca157fe5b90602001906020020151826000815181101515613cba57fe5b60209081029091010151604051610d05907f36bc09f07bcf3d3fa05df7f9c56193487df0507ecd1d5a83845b56b4e6d7b73390600090a4613cfe8686858585614324565b505050505050565b60608060608060608060606000806000613d1f8c6147e7565b96508651604051908082528060200260200182016040528015613d4c578160200160208202803883390190505b5095508651604051908082528060200260200182016040528015613d7a578160200160208202803883390190505b5094508651604051908082528060200260200182016040528015613da8578160200160208202803883390190505b5093506000925060009150600090505b8651811015613ff2576008548751600160a060020a039091169063af830e5190899084908110613de457fe5b906020019060200201518f6040518363ffffffff1660e060020a0281526004018083600160a060020a0316600160a060020a0316815260200182600160a060020a0316600160a060020a03168152602001925050506040805180830381600087803b158015613e5257600080fd5b505af1158015613e66573d6000803e3d6000fd5b505050506040513d6040811015613e7c57600080fd5b5080516020909101518751889084908110613e9357fe5b9060200190602002018784815181101515613eaa57fe5b60209081029091010191909152526006548751600160a060020a03909116906341976e0990899084908110613edb57fe5b906020019060200201516040518263ffffffff1660e060020a0281526004018082600160a060020a0316600160a060020a03168152602001915050602060405180830381600087803b158015613f3057600080fd5b505af1158015613f44573d6000803e3d6000fd5b505050506040513d6020811015613f5a57600080fd5b50518451859083908110613f6a57fe5b602090810290910101528551613fc590613fb890889084908110613f8a57fe5b906020019060200201518684815181101515613fa257fe5b602090810290910101519063ffffffff61332c16565b849063ffffffff6134c616565b9250613fe8613fdb8683815181101515613f8a57fe5b839063ffffffff6134c616565b9150600101613db8565b8a831061404d575060005b8651811015614048576140288361401c8d8985815181101515613fa257fe5b9063ffffffff61348416565b868281518110151561403657fe5b60209081029091010152600101613ffd565b614095565b50988190039860005b8651811015614095576140758261401c8d8885815181101515613fa257fe5b858281518110151561408357fe5b60209081029091010152600101614056565b50939b929a50909850909650505050505050565b60007f7fffffffffffffffffffffffffffffffffffffffffffffffffffffffffffffff821161099e576040805160e560020a62461bcd02815260206004820152601b60248201527f536166654d6174683a20746f496e74323536206f766572666c6f770000000000604482015290519081900360640190fd5b600160a060020a03811615156141a8576040805160e560020a62461bcd02815260206004820152602660248201527f4f776e61626c653a206e6577206f776e657220697320746865207a65726f206160448201527f6464726573730000000000000000000000000000000000000000000000000000606482015290519081900360840190fd5b60008054604051600160a060020a038085169361010090930416917f8be0079c531659141344cd1fd0a4f28419497f9722a3daafe3b4186f6b6457e091a360008054600160a060020a039092166101000274ffffffffffffffffffffffffffffffffffffffff0019909216919091179055565b600080828185116142ad5760405160e560020a62461bcd0281526004018080602001828103825283818151815260200191508051906020019080838360005b8381101561427257818101518382015260200161425a565b50505050905090810190601f16801561429f5780820380516001836020036101000a031916815260200191505b509250505060405180910390fd5b5083858115156142b957fe5b0495945050505050565b600080828585111561431a5760405160e560020a62461bcd0281526004018080602001828103825283818151815260200191508051906020019080838360008381101561427257818101518382015260200161425a565b5050509103919050565b6060600060606000806143368a6147e7565b94508451935083604051908082528060200260200182016040528015614366578160200160208202803883390190505b509250600091505b838210801561437d5750600089115b1561463a576143ab888381518110151561439357fe5b906020019060200201518784815181101515613fa257fe5b905080891015614561576008548551600160a060020a0390911690635ed74bfd9033908890869081106143da57fe5b906020019060200201516144ad8561401c8f8803600860009054906101000a9004600160a060020a0316600160a060020a0316636ba170b5338f8d81518110151561442157fe5b60209081029091018101516040805160e060020a63ffffffff8716028152600160a060020a039485166004820152939091166024840152516044808401938290030181600087803b15801561447557600080fd5b505af1158015614489573d6000803e3d6000fd5b505050506040513d602081101561449f57600080fd5b50519063ffffffff61332c16565b6040805160e060020a63ffffffff8716028152600160a060020a03948516600482015292909316602483015260448201529051606480830192600092919082900301818387803b15801561450057600080fd5b505af1158015614514573d6000803e3d6000fd5b50505050614540868381518110151561452957fe5b602090810290910101518a9063ffffffff61348416565b838381518110151561454e57fe5b602090810290910101526000985061463a565b6008548551600160a060020a0390911690635ed74bfd90339088908690811061458657fe5b602090810290910101516040805160e060020a63ffffffff8616028152600160a060020a039384166004820152929091166024830152600060448301819052905160648084019382900301818387803b1580156145e257600080fd5b505af11580156145f6573d6000803e3d6000fd5b50505050878281518110151561460857fe5b90602001906020020151838381518110151561462057fe5b60209081029091010152978890039760019091019061436e565b60008911156146ef575060009050805b838210156146985761468b61467e878481518110151561466657fe5b906020019060200201518985815181101515613fa257fe5b829063ffffffff6134c616565b600190920191905061464a565b600091505b838210156146ef576146cc6146be8261401c8c8b87815181101515613fa257fe5b848481518110151561211a57fe5b83838151811015156146da57fe5b6020908102909101015260019091019061469d565b600091505b838210156147db576008548551600160a060020a0390911690632454047c90339088908690811061472157fe5b90602001906020020151868681518110151561473957fe5b9060200190602002015160046040518563ffffffff1660e060020a0281526004018085600160a060020a0316600160a060020a0316815260200184600160a060020a0316600160a060020a03168152602001838152602001828152602001945050505050600060405180830381600087803b1580156147b757600080fd5b505af11580156147cb573d6000803e3d6000fd5b5050600190930192506146f49050565b50505050505050505050565b6060806000600180548060200260200160405190810160405280929190818152602001828054801561484257602002820191906000526020600020905b8154600160a060020a03168152600190910190602001808311614824575b5050505050915061485382856148c8565b905080156133cf5781600081518110151561486a57fe5b90602001906020020151828281518110151561488257fe5b600160a060020a0390921660209283029091019091015281518490839060009081106148aa57fe5b600160a060020a039092166020928302909101909101525092915050565b8151600090815b818110156149155783600160a060020a031685828151811015156148ef57fe5b90602001906020020151600160a060020a0316141561490d57614915565b6001016148cf565b949350505050565b81548183558181111561494157600083815260209020614941918101908301614946565b505050565b610a0391905b80821115612b6a576000815560010161494c56004f776e61626c653a2063616c6c6572206973206e6f7420746865206f776e6572a165627a7a72305820e3b7b81a571518d44eeea10b32ba52e8c6d98c9ffd39641d73a660d33df4ad050029",
  "source": "\r\npragma solidity ^0.4.26;\r\nimport \"./modules/SafeMath.sol\";\r\nimport \"./modules/ReentrancyGuard.sol\";\r\nimport \"./modules/underlyingAssets.sol\";\r\nimport \"./modules/TransactionFee.sol\";\r\nimport \"./interfaces/IOptionsPool.sol\";\r\nimport \"./interfaces/IFNXOracle.sol\";\r\nimport \"./interfaces/ICollateralPool.sol\";\r\nimport \"./interfaces/IFPTCoin.sol\";\r\nimport \"./modules/Operator.sol\";\r\n\r\ncontract CollateralCal is ReentrancyGuard,TransactionFee,ImportIFPTCoin,ImportOracle,ImportOptionsPool,ImportCollateralPool,Operator {\r\n    using SafeMath for uint256;\r\n    fraction private collateralRate = fraction(5, 1);\r\n \r\n    event AddCollateral(address indexed from,address indexed collateral,uint256 amount,uint256 tokenAmount);\r\n    event RedeemCollateral(address indexed from,address collateral,uint256 allRedeem);\r\n\r\n    event DebugEvent(uint256 indexed value1,uint256 indexed value2,uint256 indexed value3);\r\n\r\n    function addNetBalance(address settlement,uint256 amount) public payable onlyOperatorIndex(1) {\r\n        amount = getPayableAmount(settlement,amount);\r\n        _collateralPool.addNetWorthBalance(settlement,amount);\r\n//        netWorthBalances[settlement] = netWorthBalances[settlement].add(amount);\r\n    }\r\n    function setCollateralRate(uint256 numerator,uint256 denominator) public onlyOwner {\r\n        collateralRate.numerator = numerator;\r\n        collateralRate.denominator = denominator;\r\n    }\r\n    function getCollateralRate()public view returns (uint256,uint256) {\r\n        return (collateralRate.numerator,collateralRate.denominator);\r\n    }\r\n    function getUserPayingUsd(address user)public view returns (uint256){\r\n        return _collateralPool.getUserPayingUsd(user);\r\n        //userCollateralPaying[user];\r\n    }\r\n    function userInputCollateral(address user,address collateral)public view returns (uint256){\r\n        _collateralPool.getUserInputCollateral(user,collateral);\r\n        //return userInputCollateral[user][collateral];\r\n    }\r\n    function calSharedPayment() public onlyOperatorIndex(0) {\r\n        address[] memory tmpWhiteList = whiteList;\r\n        (uint256 firstOption,int256[] memory latestShared) = _optionsPool.getNetWrothCalInfo(tmpWhiteList);\r\n        uint256 lastOption = _optionsPool.getOptionInfoLength();\r\n        (uint256[] memory sharedBalance,uint256 newFirst,bool success) = _optionsPool.calRangeSharedPayment(lastOption,firstOption,lastOption,tmpWhiteList);\r\n        if (success){\r\n            uint256[] memory newNetworth = _optionsPool.calculateExpiredPayment(firstOption,newFirst,tmpWhiteList);\r\n            int256[] memory fallBalance = _optionsPool.calculatePhaseOptionsFall(lastOption,newFirst,lastOption,tmpWhiteList);\r\n            for (uint256 i= 0;i<fallBalance.length;i++){\r\n                fallBalance[i] -= SafeMath.toInt256(sharedBalance[i])-latestShared[i];\r\n            }\r\n            setSharedPayment(newNetworth,fallBalance,newFirst);\r\n        }\r\n    }\r\n    function setSharedPayment(uint256[] newNetworth,int256[] sharedBalances,uint256 firstOption) public onlyOperatorIndex(0){\r\n        _optionsPool.setSharedState(firstOption,sharedBalances,whiteList);\r\n        for (uint i=0;i<newNetworth.length;i++){\r\n            _collateralPool.addNetWorthBalance(whiteList[i],newNetworth[i]);\r\n        }\r\n    }\r\n    function getUserTotalWorth(address account)public view returns (uint256){\r\n        return getTokenNetworth().mul(_FPTCoin.balanceOf(account)).add(_FPTCoin.lockedWorthOf(account));\r\n    }\r\n    function getTokenNetworth() public view returns (uint256){\r\n        uint256 _totalSupply = _FPTCoin.totalSupply();\r\n        if (_totalSupply == 0){\r\n            return 1e8;\r\n        }\r\n        return getUnlockedCollateral()/_totalSupply;\r\n    }\r\n    function addCollateral(address collateral,uint256 amount) nonReentrant notHalted public payable {\r\n        amount = getPayableAmount(collateral,amount);\r\n        require(amount>0 , \"settlement amount is zero!\");\r\n        uint256 fee = calculateFee(addColFee,amount);\r\n        _addTransactionFee(collateral,fee);\r\n        amount = amount.sub(fee);\r\n        uint256 price = _oracle.getPrice(collateral);\r\n        uint256 userPaying = price.mul(amount);\r\n        uint256 mintAmount = userPaying.div(getTokenNetworth());\r\n        _collateralPool.addUserPayingUsd(msg.sender,userPaying);\r\n        //userCollateralPaying[msg.sender] = userCollateralPaying[msg.sender].add(userPaying);\r\n        _collateralPool.addCollateralBalance(collateral,amount);\r\n        //collateralBalances[collateral] = collateralBalances[collateral].add(amount);\r\n        _collateralPool.addUserInputCollateral(msg.sender,collateral,amount);\r\n        //userInputCollateral[msg.sender][collateral] = userInputCollateral[msg.sender][collateral].add(amount);\r\n        _collateralPool.addNetWorthBalance(collateral,amount);\r\n        //netWorthBalances[collateral] = netWorthBalances[collateral].add(amount);\r\n        emit AddCollateral(msg.sender,collateral,amount,mintAmount);\r\n        _FPTCoin.mint(msg.sender,mintAmount);\r\n    }\r\n    //calculate token\r\n    function redeemCollateral(uint256 tokenAmount,address collateral) nonReentrant notHalted public {\r\n        require(checkAddressRedeemOut(collateral) , \"settlement is unsupported token\");\r\n        uint256 lockedAmount = _FPTCoin.lockedBalanceOf(msg.sender);\r\n        require(_FPTCoin.balanceOf(msg.sender)+lockedAmount>=tokenAmount,\"SCoin balance is insufficient!\");\r\n        if (tokenAmount == 0){\r\n            return;\r\n        }\r\n        uint256 userTotalWorth = getUserTotalWorth(msg.sender);\r\n        uint256 leftColateral = getLeftCollateral();\r\n        (uint256 burnAmount,uint256 redeemWorth) = _redeemLockedCollateral(tokenAmount,leftColateral);\r\n        tokenAmount -= burnAmount;\r\n        burnAmount = 0;\r\n        if (tokenAmount > 0){\r\n            leftColateral -= redeemWorth;\r\n            \r\n            if (lockedAmount > 0){\r\n                tokenAmount = tokenAmount > lockedAmount ? tokenAmount - lockedAmount : 0;\r\n            }\r\n            (uint256 newRedeem,uint256 newWorth) = _redeemCollateral(tokenAmount,leftColateral);\r\n            if(newRedeem>0){\r\n                burnAmount = newRedeem;\r\n                redeemWorth += newWorth;\r\n            }\r\n        }\r\n        _redeemCollateralWorth(collateral,redeemWorth,userTotalWorth);\r\n        if (burnAmount>0){\r\n            _FPTCoin.burn(msg.sender, burnAmount);\r\n        }\r\n    }\r\n    function _redeemLockedCollateral(uint256 tokenAmount,uint256 leftColateral)internal returns (uint256,uint256){\r\n        if (leftColateral == 0){\r\n            return;\r\n        }\r\n        (uint256 lockedAmount,uint256 lockedWorth) = _FPTCoin.getLockedBalance(msg.sender);\r\n        if (lockedAmount == 0){\r\n            return (0,0);\r\n        }\r\n        uint256 redeemWorth = 0;\r\n        uint256 lockedBurn = 0;\r\n        uint256 lockedPrice = lockedWorth/lockedAmount;\r\n        if (lockedAmount >= tokenAmount){\r\n            lockedBurn = tokenAmount;\r\n            redeemWorth = tokenAmount.mul(lockedPrice);\r\n        }else{\r\n            lockedBurn = lockedAmount;\r\n            redeemWorth = lockedWorth;\r\n        }\r\n        if (redeemWorth > leftColateral) {\r\n            lockedBurn = leftColateral.div(lockedPrice);\r\n            redeemWorth = lockedBurn.mul(lockedPrice);\r\n        }\r\n        if (lockedBurn > 0){\r\n            _FPTCoin.burnLocked(msg.sender,lockedBurn);\r\n            return (lockedBurn,redeemWorth);\r\n        }\r\n        return (0,0);\r\n    }\r\n    function _redeemCollateral(uint256 leftAmount,uint256 leftColateral)internal returns (uint256,uint256){\r\n        uint256 tokenNetWorth = getTokenNetworth();\r\n        uint256 leftWorth = leftAmount.mul(tokenNetWorth);        \r\n        if (leftWorth > leftColateral){\r\n            uint256 newRedeem = leftColateral.div(tokenNetWorth);\r\n            uint256 newWorth = newRedeem.mul(tokenNetWorth);\r\n            uint256 locked = leftAmount - newRedeem;\r\n            _FPTCoin.addlockBalance(msg.sender,locked,locked.mul(tokenNetWorth));\r\n            return (newRedeem,newWorth);\r\n        }\r\n        return (leftAmount,leftWorth);\r\n    }\r\n    function getTempWhiteList(address collateral) internal view returns (address[] memory) {\r\n        address[] memory tmpWhiteList = whiteList;\r\n        uint256 index = whiteListAddress._getEligibleIndexAddress(tmpWhiteList,collateral);\r\n        if (index != 0){\r\n            tmpWhiteList[index] = tmpWhiteList[0];\r\n            tmpWhiteList[0] = collateral;\r\n        }\r\n        return tmpWhiteList;\r\n    }\r\n    function _redeemCollateralWorth(address collateral,uint256 redeemWorth,uint256 userTotalWorth) internal {\r\n        if (redeemWorth == 0){\r\n            return;\r\n        }\r\n        emit RedeemCollateral(msg.sender,collateral,redeemWorth);\r\n        (uint256[] memory colBalances,uint256[] memory PremiumBalances,uint256[] memory prices) = _getCollateralAndPremiumBalances(msg.sender,collateral,userTotalWorth);\r\n        emit DebugEvent(3333,colBalances[0],colBalances[1]);\r\n        emit DebugEvent(3333,PremiumBalances[0],PremiumBalances[1]);\r\n        _transferPaybackBalances(collateral,redeemWorth,colBalances,PremiumBalances,prices);\r\n    }\r\n    function _transferPaybackBalances(address collateral,uint256 redeemWorth,uint256[] memory colBalances,uint256[] memory PremiumBalances,uint256[] memory prices)internal {\r\n        address[] memory tmpWhiteList = getTempWhiteList(collateral);\r\n        uint256 ln = tmpWhiteList.length;\r\n        uint256[] memory PaybackBalances = new uint256[](ln);\r\n        for (uint256 i=0; i<ln && redeemWorth>0;i++){\r\n            uint256 totalWorth = prices[i].mul(colBalances[i]);\r\n            if (redeemWorth < totalWorth){\r\n                _collateralPool.setUserInputCollateral(msg.sender,tmpWhiteList[i],\r\n                    _collateralPool.getUserInputCollateral(msg.sender,tmpWhiteList[i]).mul(totalWorth-redeemWorth).div(totalWorth));\r\n//                userInputCollateral[msg.sender][addr] = userInputCollateral[msg.sender][addr].mul(totalWorth-redeemWorth).div(totalWorth);\r\n                PaybackBalances[i] = redeemWorth.div(prices[i]);\r\n                redeemWorth = 0;\r\n                break;\r\n            }else{\r\n                _collateralPool.setUserInputCollateral(msg.sender,tmpWhiteList[i],0);\r\n                //userInputCollateral[msg.sender][addr] = 0;\r\n                PaybackBalances[i] = colBalances[i];\r\n                redeemWorth = redeemWorth - totalWorth;\r\n            }\r\n        }\r\n        if (redeemWorth>0) {\r\n           totalWorth = 0;\r\n            for (i=0; i<ln;i++){\r\n                totalWorth = totalWorth.add(PremiumBalances[i].mul(prices[i]));\r\n            }\r\n            for (i=0; i<ln;i++){\r\n                PaybackBalances[i] = PaybackBalances[i].add(PremiumBalances[i].mul(redeemWorth).div(totalWorth));\r\n            }\r\n        }\r\n        for (i=0;i<ln;i++){ \r\n            _collateralPool.transferPaybackAndFee(msg.sender,tmpWhiteList[i],PaybackBalances[i],redeemColFee);\r\n//            addr = whiteList[i];\r\n//            netWorthBalances[addr] = netWorthBalances[addr].sub(PaybackBalances[i]);\r\n//            _transferPaybackAndFee(msg.sender,addr,PaybackBalances[i],redeemColFee);\r\n        } \r\n    }\r\n    function calCollateralWorth(address account)public view returns(uint256[]){\r\n        uint256 worth = getUserTotalWorth(account);\r\n        (uint256[] memory colBalances,uint256[] memory PremiumBalances,) = _getCollateralAndPremiumBalances(account,whiteList[0],worth);\r\n        uint256 whiteLen = whiteList.length;\r\n        for (uint256 i=0; i<whiteLen;i++){\r\n            colBalances[i] = colBalances[i].add(PremiumBalances[i]);\r\n        }\r\n        return colBalances;\r\n    }\r\n    function _getCollateralAndPremiumBalances(address account,address priorCollateral,uint256 userTotalWorth) internal view returns(uint256[],uint256[],uint256[]){\r\n        address[] memory tmpWhiteList = getTempWhiteList(priorCollateral);\r\n//        uint256 ln = tmpWhiteList.length;\r\n        uint256[] memory colBalances = new uint256[](tmpWhiteList.length);\r\n        uint256[] memory PremiumBalances = new uint256[](tmpWhiteList.length);\r\n        uint256[] memory prices = new uint256[](tmpWhiteList.length);\r\n        uint256 totalWorth = 0;\r\n        uint256 PremiumWorth = 0;\r\n        for (uint256 i=0; i<tmpWhiteList.length;i++){\r\n            (colBalances[i],PremiumBalances[i]) = _collateralPool.calUserNetWorthBalanceRate(tmpWhiteList[i],account);\r\n            //(colBalances[i],PremiumBalances[i]) = _calBalanceRate(collateralBalances[tmpWhiteList[i]],netWorthBalances[tmpWhiteList[i]],userInputCollateral[msg.sender][tmpWhiteList[i]]);\r\n            prices[i] = _oracle.getPrice(tmpWhiteList[i]);\r\n            totalWorth = totalWorth.add(prices[i].mul(colBalances[i]));\r\n            PremiumWorth = PremiumWorth.add(prices[i].mul(PremiumBalances[i]));\r\n        }\r\n        if (totalWorth >= userTotalWorth){\r\n            for (i=0; i<tmpWhiteList.length;i++){\r\n                colBalances[i] = colBalances[i].mul(userTotalWorth).div(totalWorth);\r\n            }\r\n        }else{\r\n            userTotalWorth = userTotalWorth - totalWorth;\r\n            for (i=0; i<tmpWhiteList.length;i++){\r\n                PremiumBalances[i] = PremiumBalances[i].mul(userTotalWorth).div(PremiumWorth);\r\n            }\r\n        }\r\n        return (colBalances,PremiumBalances,prices);\r\n    } \r\n    /*\r\n    function _calBalanceRate(uint256 collateralBalance,uint256 netWorthBalance,uint256 amount)internal pure returns(uint256,uint256){\r\n        if (collateralBalance > 0){\r\n            uint256 curAmount = netWorthBalance.mul(amount).div(collateralBalance);\r\n            return (curAmount,netWorthBalance.sub(curAmount));\r\n        }else{\r\n            return (0,netWorthBalance);\r\n        }\r\n    }\r\n*/\r\n    function getOccupiedCollateral() public view returns(uint256){\r\n        uint256 totalOccupied = _optionsPool.getTotalOccupiedCollateral();\r\n        return calculateCollateral(totalOccupied);\r\n    }\r\n    function getAvailableCollateral()public view returns(uint256){\r\n        return safeSubCollateral(getUnlockedCollateral(),getOccupiedCollateral());\r\n    }\r\n    function getLeftCollateral()public view returns(uint256){\r\n        return safeSubCollateral(getTotalCollateral(),getOccupiedCollateral());\r\n    }\r\n    function getUnlockedCollateral()public view returns(uint256){\r\n        return safeSubCollateral(getTotalCollateral(),_FPTCoin.getTotalLockedWorth());\r\n    }\r\n    function safeSubCollateral(uint256 allCollateral,uint256 subCollateral)internal pure returns(uint256){\r\n        return allCollateral > subCollateral ? allCollateral - subCollateral : 0;\r\n    }\r\n    function calOptionsOccupied(uint256 strikePrice,uint256 underlyingPrice,uint256 amount,uint8 optType)public view returns(uint256){\r\n        uint256 totalOccupied = 0;\r\n        if ((optType == 0) == (strikePrice>underlyingPrice)){ // call\r\n            totalOccupied = strikePrice.mul(amount);\r\n        } else {\r\n            totalOccupied = underlyingPrice.mul(amount);\r\n        }\r\n        return calculateCollateral(totalOccupied);\r\n    }\r\n\r\n    function getTotalCollateral()public view returns(uint256){\r\n        uint256 totalNum = 0;\r\n        uint whiteListLen = whiteList.length;\r\n        for (uint256 i=0;i<whiteListLen;i++){\r\n            address addr = whiteList[i];\r\n            uint256 price = _oracle.getPrice(addr);\r\n            uint256 netWorth = getNetWorthBalance(addr);\r\n            if (netWorth == 0){\r\n                totalNum = totalNum.add(price.mul(netWorth));\r\n            }\r\n            //totalNum = totalNum.add(price.mul(netWorthBalances[addr]));\r\n        }\r\n        return totalNum;  \r\n    }\r\n    function getNetWorthBalance(address settlement)public view returns(uint256){\r\n        uint256 netWorth = _collateralPool.getNetWorthBalance(settlement);\r\n        int256 latestWorth = _optionsPool.getNetWrothLatestWorth(settlement);\r\n        if (latestWorth>=0){\r\n            return netWorth.add(uint256(latestWorth));\r\n        }else if(netWorth > uint256(-latestWorth)){\r\n            return netWorth.sub(uint256(-latestWorth));\r\n        }\r\n        return 0;\r\n    }\r\n    function _paybackWorth(uint256 worth,uint256 feeType) internal {\r\n        uint256 totalPrice = 0;\r\n        uint whiteLen = whiteList.length;\r\n        uint256[] memory balances = new uint256[](whiteLen);\r\n        for (uint256 i=0;i<whiteLen;i++){\r\n            address addr = whiteList[i];\r\n            uint256 price = _oracle.getPrice(addr);\r\n            balances[i] = getNetWorthBalance(addr);\r\n            //balances[i] = netWorthBalances[addr];\r\n            totalPrice = totalPrice.add(price.mul(balances[i]));\r\n        }\r\n        if (totalPrice == 0){\r\n            return;\r\n        }\r\n        for (i=0;i<whiteLen;i++){\r\n            uint256 _payBack = balances[i].mul(worth).div(totalPrice);\r\n            _collateralPool.transferPaybackAndFee(msg.sender,whiteList[i],_payBack,feeType);\r\n            //addr = whiteList[i];\r\n            //netWorthBalances[addr] = balances[i].sub(_payBack);\r\n            //_transferPaybackAndFee(msg.sender,addr,_payBack,feeType);\r\n        } \r\n    }\r\n    function getPayableAmount(address settlement,uint256 settlementAmount) internal returns (uint256) {\r\n        require(checkAddressPayIn(settlement) , \"settlement is unsupported token\");\r\n        uint256 colAmount = 0;\r\n        if (settlement == address(0)){\r\n            colAmount = msg.value;\r\n            address(_collateralPool).transfer(msg.value);\r\n        }else if (settlementAmount > 0){\r\n            IERC20 oToken = IERC20(settlement);\r\n            oToken.transferFrom(msg.sender, address(this), settlementAmount);\r\n            colAmount = settlementAmount;\r\n             oToken.transfer(address(_collateralPool),settlementAmount);\r\n        }\r\n        return colAmount;\r\n    }\r\n    function calculateCollateral(uint256 amount)internal view returns (uint256){\r\n        uint256 result = collateralRate.numerator.mul(amount);\r\n        return result.div(collateralRate.denominator);\r\n    }\r\n}",
  "sourcePath": "C:\\work\\solidity\\FinnexusOptions_V2\\contracts\\CollateralCal.sol",
  "compiler": {
    "name": "solc",
    "version": "0.4.26+commit.4563c3fc.Emscripten.clang"
  },
  "schemaVersion": "3.1.0",
  "updatedAt": "2020-08-03T14:27:23.298Z",
  "devdoc": {
    "methods": {
      "addWhiteList(address)": {
        "details": "Implementation of add an eligible address into the whitelist.\r",
        "params": {
          "addAddress": "new eligible address.\r"
        }
      },
      "getWhiteList()": {
        "details": "Implementation of getting the eligible whitelist.\r"
      },
      "isEligibleAddress(address)": {
        "details": "Implementation of testing whether the input address is eligible.\r",
        "params": {
          "tmpAddress": "input address for testing.\r"
        }
      },
      "isOwner()": {
        "details": "Returns true if the caller is the current owner."
      },
      "owner()": {
        "details": "Returns the address of the current owner."
      },
      "removeWhiteList(address)": {
        "details": "Implementation of revoke an invalid address from the whitelist.\r",
        "params": {
          "removeAddress": "revoked address.\r"
        }
      },
      "renounceOwnership()": {
        "details": "Leaves the contract without owner. It will not be possible to call `onlyOwner` functions anymore. Can only be called by the current owner.     * NOTE: Renouncing ownership will leave the contract without an owner, thereby removing any functionality that is only available to the owner."
      },
      "setTransactionFee(uint256,uint256,uint256)": {
        "details": "set the rate of trasaction fee.\r",
        "params": {
          "denominator": "thedenominator of transaction fee.\r transaction fee = numerator/denominator;\r",
          "feeType": "the transaction fee type\r",
          "numerator": "the numerator of transaction fee .\r"
        }
      },
      "transferOwnership(address)": {
        "details": "Transfers ownership of the contract to a new account (`newOwner`). Can only be called by the current owner."
      }
    }
  },
  "userdoc": {
    "methods": {
      "setHalt(bool)": {
        "notice": "function Emergency situation that requires contribution period to stop or not."
      }
    }
  }
}