{
  "contractName": "CollateralPool",
  "abi": [
    {
      "constant": true,
      "inputs": [],
      "name": "name",
      "outputs": [
        {
          "name": "",
          "type": "string"
        }
      ],
      "payable": false,
      "stateMutability": "view",
      "type": "function"
    },
    {
      "constant": false,
      "inputs": [
        {
          "name": "spender",
          "type": "address"
        },
        {
          "name": "amount",
          "type": "uint256"
        }
      ],
      "name": "approve",
      "outputs": [
        {
          "name": "",
          "type": "bool"
        }
      ],
      "payable": false,
      "stateMutability": "nonpayable",
      "type": "function"
    },
    {
      "constant": true,
      "inputs": [],
      "name": "getWhiteList",
      "outputs": [
        {
          "name": "",
          "type": "address[]"
        }
      ],
      "payable": false,
      "stateMutability": "view",
      "type": "function"
    },
    {
      "constant": true,
      "inputs": [
        {
          "name": "",
          "type": "address"
        }
      ],
      "name": "netWorthBalances",
      "outputs": [
        {
          "name": "",
          "type": "uint256"
        }
      ],
      "payable": false,
      "stateMutability": "view",
      "type": "function"
    },
    {
      "constant": true,
      "inputs": [],
      "name": "totalSupply",
      "outputs": [
        {
          "name": "",
          "type": "uint256"
        }
      ],
      "payable": false,
      "stateMutability": "view",
      "type": "function"
    },
    {
      "constant": false,
      "inputs": [
        {
          "name": "optionsPool",
          "type": "address"
        }
      ],
      "name": "setOptionsPoolAddress",
      "outputs": [],
      "payable": false,
      "stateMutability": "nonpayable",
      "type": "function"
    },
    {
      "constant": false,
      "inputs": [
        {
          "name": "removeAddress",
          "type": "address"
        }
      ],
      "name": "removeWhiteList",
      "outputs": [
        {
          "name": "",
          "type": "bool"
        }
      ],
      "payable": false,
      "stateMutability": "nonpayable",
      "type": "function"
    },
    {
      "constant": false,
      "inputs": [
        {
          "name": "sender",
          "type": "address"
        },
        {
          "name": "recipient",
          "type": "address"
        },
        {
          "name": "amount",
          "type": "uint256"
        }
      ],
      "name": "transferFrom",
      "outputs": [
        {
          "name": "",
          "type": "bool"
        }
      ],
      "payable": false,
      "stateMutability": "nonpayable",
      "type": "function"
    },
    {
      "constant": true,
      "inputs": [
        {
          "name": "",
          "type": "address"
        }
      ],
      "name": "balances",
      "outputs": [
        {
          "name": "",
          "type": "uint256"
        }
      ],
      "payable": false,
      "stateMutability": "view",
      "type": "function"
    },
    {
      "constant": true,
      "inputs": [
        {
          "name": "",
          "type": "address"
        }
      ],
      "name": "collateralBalances",
      "outputs": [
        {
          "name": "",
          "type": "uint256"
        }
      ],
      "payable": false,
      "stateMutability": "view",
      "type": "function"
    },
    {
      "constant": false,
      "inputs": [],
      "name": "redeemAll",
      "outputs": [],
      "payable": false,
      "stateMutability": "nonpayable",
      "type": "function"
    },
    {
      "constant": true,
      "inputs": [],
      "name": "decimals",
      "outputs": [
        {
          "name": "",
          "type": "uint8"
        }
      ],
      "payable": false,
      "stateMutability": "view",
      "type": "function"
    },
    {
      "constant": true,
      "inputs": [
        {
          "name": "feeType",
          "type": "uint256"
        },
        {
          "name": "amount",
          "type": "uint256"
        }
      ],
      "name": "calculateFee",
      "outputs": [
        {
          "name": "",
          "type": "uint256"
        }
      ],
      "payable": false,
      "stateMutability": "view",
      "type": "function"
    },
    {
      "constant": false,
      "inputs": [
        {
          "name": "spender",
          "type": "address"
        },
        {
          "name": "addedValue",
          "type": "uint256"
        }
      ],
      "name": "increaseAllowance",
      "outputs": [
        {
          "name": "",
          "type": "bool"
        }
      ],
      "payable": false,
      "stateMutability": "nonpayable",
      "type": "function"
    },
    {
      "constant": false,
      "inputs": [
        {
          "name": "oracle",
          "type": "address"
        }
      ],
      "name": "setOracleAddress",
      "outputs": [],
      "payable": false,
      "stateMutability": "nonpayable",
      "type": "function"
    },
    {
      "constant": true,
      "inputs": [
        {
          "name": "",
          "type": "address"
        }
      ],
      "name": "feeBalances",
      "outputs": [
        {
          "name": "",
          "type": "uint256"
        }
      ],
      "payable": false,
      "stateMutability": "view",
      "type": "function"
    },
    {
      "constant": true,
      "inputs": [],
      "name": "collateralRate",
      "outputs": [
        {
          "name": "numerator",
          "type": "uint256"
        },
        {
          "name": "denominator",
          "type": "uint256"
        }
      ],
      "payable": false,
      "stateMutability": "view",
      "type": "function"
    },
    {
      "constant": true,
      "inputs": [
        {
          "name": "",
          "type": "uint256"
        }
      ],
      "name": "whiteList",
      "outputs": [
        {
          "name": "",
          "type": "address"
        }
      ],
      "payable": false,
      "stateMutability": "view",
      "type": "function"
    },
    {
      "constant": true,
      "inputs": [
        {
          "name": "",
          "type": "address"
        }
      ],
      "name": "lockedbalances",
      "outputs": [
        {
          "name": "",
          "type": "uint256"
        }
      ],
      "payable": false,
      "stateMutability": "view",
      "type": "function"
    },
    {
      "constant": true,
      "inputs": [
        {
          "name": "account",
          "type": "address"
        }
      ],
      "name": "balanceOf",
      "outputs": [
        {
          "name": "",
          "type": "uint256"
        }
      ],
      "payable": false,
      "stateMutability": "view",
      "type": "function"
    },
    {
      "constant": false,
      "inputs": [],
      "name": "renounceOwnership",
      "outputs": [],
      "payable": false,
      "stateMutability": "nonpayable",
      "type": "function"
    },
    {
      "constant": true,
      "inputs": [
        {
          "name": "tmpAddress",
          "type": "address"
        }
      ],
      "name": "isEligibleAddress",
      "outputs": [
        {
          "name": "",
          "type": "bool"
        }
      ],
      "payable": false,
      "stateMutability": "view",
      "type": "function"
    },
    {
      "constant": true,
      "inputs": [],
      "name": "owner",
      "outputs": [
        {
          "name": "",
          "type": "address"
        }
      ],
      "payable": false,
      "stateMutability": "view",
      "type": "function"
    },
    {
      "constant": true,
      "inputs": [],
      "name": "isOwner",
      "outputs": [
        {
          "name": "",
          "type": "bool"
        }
      ],
      "payable": false,
      "stateMutability": "view",
      "type": "function"
    },
    {
      "constant": false,
      "inputs": [
        {
          "name": "currency",
          "type": "address"
        }
      ],
      "name": "redeem",
      "outputs": [],
      "payable": false,
      "stateMutability": "nonpayable",
      "type": "function"
    },
    {
      "constant": true,
      "inputs": [],
      "name": "symbol",
      "outputs": [
        {
          "name": "",
          "type": "string"
        }
      ],
      "payable": false,
      "stateMutability": "view",
      "type": "function"
    },
    {
      "constant": false,
      "inputs": [
        {
          "name": "spender",
          "type": "address"
        },
        {
          "name": "subtractedValue",
          "type": "uint256"
        }
      ],
      "name": "decreaseAllowance",
      "outputs": [
        {
          "name": "",
          "type": "bool"
        }
      ],
      "payable": false,
      "stateMutability": "nonpayable",
      "type": "function"
    },
    {
      "constant": false,
      "inputs": [
        {
          "name": "recipient",
          "type": "address"
        },
        {
          "name": "amount",
          "type": "uint256"
        }
      ],
      "name": "transfer",
      "outputs": [
        {
          "name": "",
          "type": "bool"
        }
      ],
      "payable": false,
      "stateMutability": "nonpayable",
      "type": "function"
    },
    {
      "constant": true,
      "inputs": [],
      "name": "getOracleAddress",
      "outputs": [
        {
          "name": "",
          "type": "address"
        }
      ],
      "payable": false,
      "stateMutability": "view",
      "type": "function"
    },
    {
      "constant": false,
      "inputs": [
        {
          "name": "operator",
          "type": "address"
        }
      ],
      "name": "setOperator",
      "outputs": [],
      "payable": false,
      "stateMutability": "nonpayable",
      "type": "function"
    },
    {
      "constant": true,
      "inputs": [],
      "name": "halted",
      "outputs": [
        {
          "name": "",
          "type": "bool"
        }
      ],
      "payable": false,
      "stateMutability": "view",
      "type": "function"
    },
    {
      "constant": false,
      "inputs": [
        {
          "name": "feeType",
          "type": "uint256"
        },
        {
          "name": "numerator",
          "type": "uint256"
        },
        {
          "name": "denominator",
          "type": "uint256"
        }
      ],
      "name": "setTransactionFee",
      "outputs": [],
      "payable": false,
      "stateMutability": "nonpayable",
      "type": "function"
    },
    {
      "constant": true,
      "inputs": [],
      "name": "getOptionsPoolAddress",
      "outputs": [
        {
          "name": "",
          "type": "address"
        }
      ],
      "payable": false,
      "stateMutability": "view",
      "type": "function"
    },
    {
      "constant": true,
      "inputs": [
        {
          "name": "settlement",
          "type": "address"
        }
      ],
      "name": "getFeeBalance",
      "outputs": [
        {
          "name": "",
          "type": "uint256"
        }
      ],
      "payable": false,
      "stateMutability": "view",
      "type": "function"
    },
    {
      "constant": true,
      "inputs": [
        {
          "name": "feeType",
          "type": "uint256"
        }
      ],
      "name": "getFeeRate",
      "outputs": [
        {
          "name": "",
          "type": "uint256"
        },
        {
          "name": "",
          "type": "uint256"
        }
      ],
      "payable": false,
      "stateMutability": "view",
      "type": "function"
    },
    {
      "constant": true,
      "inputs": [
        {
          "name": "owner",
          "type": "address"
        },
        {
          "name": "spender",
          "type": "address"
        }
      ],
      "name": "allowance",
      "outputs": [
        {
          "name": "",
          "type": "uint256"
        }
      ],
      "payable": false,
      "stateMutability": "view",
      "type": "function"
    },
    {
      "constant": true,
      "inputs": [
        {
          "name": "",
          "type": "address"
        }
      ],
      "name": "userCollateralPaying",
      "outputs": [
        {
          "name": "",
          "type": "uint256"
        }
      ],
      "payable": false,
      "stateMutability": "view",
      "type": "function"
    },
    {
      "constant": true,
      "inputs": [
        {
          "name": "",
          "type": "uint256"
        }
      ],
      "name": "FeeRates",
      "outputs": [
        {
          "name": "numerator",
          "type": "uint256"
        },
        {
          "name": "denominator",
          "type": "uint256"
        }
      ],
      "payable": false,
      "stateMutability": "view",
      "type": "function"
    },
    {
      "constant": false,
      "inputs": [
        {
          "name": "addAddress",
          "type": "address"
        }
      ],
      "name": "addWhiteList",
      "outputs": [],
      "payable": false,
      "stateMutability": "nonpayable",
      "type": "function"
    },
    {
      "constant": true,
      "inputs": [],
      "name": "getOperator",
      "outputs": [
        {
          "name": "",
          "type": "address"
        }
      ],
      "payable": false,
      "stateMutability": "view",
      "type": "function"
    },
    {
      "constant": true,
      "inputs": [],
      "name": "getAllFeeBalances",
      "outputs": [
        {
          "name": "",
          "type": "address[]"
        },
        {
          "name": "",
          "type": "uint256[]"
        }
      ],
      "payable": false,
      "stateMutability": "view",
      "type": "function"
    },
    {
      "constant": false,
      "inputs": [
        {
          "name": "newOwner",
          "type": "address"
        }
      ],
      "name": "transferOwnership",
      "outputs": [],
      "payable": false,
      "stateMutability": "nonpayable",
      "type": "function"
    },
    {
      "constant": false,
      "inputs": [
        {
          "name": "halt",
          "type": "bool"
        }
      ],
      "name": "setHalt",
      "outputs": [],
      "payable": false,
      "stateMutability": "nonpayable",
      "type": "function"
    },
    {
      "constant": true,
      "inputs": [
        {
          "name": "tmpAddress",
          "type": "address"
        }
      ],
      "name": "checkEligibleAddress",
      "outputs": [],
      "payable": false,
      "stateMutability": "view",
      "type": "function"
    },
    {
      "anonymous": false,
      "inputs": [
        {
          "indexed": true,
          "name": "from",
          "type": "address"
        },
        {
          "indexed": true,
          "name": "collateral",
          "type": "address"
        },
        {
          "indexed": false,
          "name": "amount",
          "type": "uint256"
        },
        {
          "indexed": false,
          "name": "tokenAmount",
          "type": "uint256"
        }
      ],
      "name": "AddCollateral",
      "type": "event"
    },
    {
      "anonymous": false,
      "inputs": [
        {
          "indexed": true,
          "name": "from",
          "type": "address"
        },
        {
          "indexed": false,
          "name": "tokenAmount",
          "type": "uint256"
        }
      ],
      "name": "RedeemCollateral",
      "type": "event"
    },
    {
      "anonymous": false,
      "inputs": [
        {
          "indexed": true,
          "name": "value1",
          "type": "uint256"
        },
        {
          "indexed": true,
          "name": "value2",
          "type": "uint256"
        },
        {
          "indexed": true,
          "name": "value3",
          "type": "uint256"
        }
      ],
      "name": "DebugEvent",
      "type": "event"
    },
    {
      "anonymous": false,
      "inputs": [
        {
          "indexed": true,
          "name": "owner",
          "type": "address"
        },
        {
          "indexed": false,
          "name": "value",
          "type": "uint256"
        }
      ],
      "name": "AddLocked",
      "type": "event"
    },
    {
      "anonymous": false,
      "inputs": [
        {
          "indexed": true,
          "name": "owner",
          "type": "address"
        },
        {
          "indexed": false,
          "name": "value",
          "type": "uint256"
        }
      ],
      "name": "RemoveLocked",
      "type": "event"
    },
    {
      "anonymous": false,
      "inputs": [
        {
          "indexed": true,
          "name": "from",
          "type": "address"
        },
        {
          "indexed": true,
          "name": "to",
          "type": "address"
        },
        {
          "indexed": false,
          "name": "value",
          "type": "uint256"
        }
      ],
      "name": "Transfer",
      "type": "event"
    },
    {
      "anonymous": false,
      "inputs": [
        {
          "indexed": true,
          "name": "owner",
          "type": "address"
        },
        {
          "indexed": true,
          "name": "spender",
          "type": "address"
        },
        {
          "indexed": false,
          "name": "value",
          "type": "uint256"
        }
      ],
      "name": "Approval",
      "type": "event"
    },
    {
      "anonymous": false,
      "inputs": [
        {
          "indexed": true,
          "name": "recieptor",
          "type": "address"
        },
        {
          "indexed": true,
          "name": "settlement",
          "type": "address"
        },
        {
          "indexed": false,
          "name": "payback",
          "type": "uint256"
        }
      ],
      "name": "FeePayback",
      "type": "event"
    },
    {
      "anonymous": false,
      "inputs": [
        {
          "indexed": true,
          "name": "settlement",
          "type": "address"
        },
        {
          "indexed": false,
          "name": "payback",
          "type": "uint256"
        }
      ],
      "name": "AddFee",
      "type": "event"
    },
    {
      "anonymous": false,
      "inputs": [
        {
          "indexed": true,
          "name": "recieptor",
          "type": "address"
        },
        {
          "indexed": true,
          "name": "settlement",
          "type": "address"
        },
        {
          "indexed": false,
          "name": "payback",
          "type": "uint256"
        }
      ],
      "name": "TransferPayback",
      "type": "event"
    },
    {
      "anonymous": false,
      "inputs": [
        {
          "indexed": true,
          "name": "previousOwner",
          "type": "address"
        },
        {
          "indexed": true,
          "name": "newOwner",
          "type": "address"
        }
      ],
      "name": "OwnershipTransferred",
      "type": "event"
    },
    {
      "constant": false,
      "inputs": [
        {
          "name": "numerator",
          "type": "uint256"
        },
        {
          "name": "denominator",
          "type": "uint256"
        }
      ],
      "name": "setCollateralRate",
      "outputs": [],
      "payable": false,
      "stateMutability": "nonpayable",
      "type": "function"
    },
    {
      "constant": true,
      "inputs": [],
      "name": "getCollateralRate",
      "outputs": [
        {
          "name": "",
          "type": "uint256"
        },
        {
          "name": "",
          "type": "uint256"
        }
      ],
      "payable": false,
      "stateMutability": "view",
      "type": "function"
    },
    {
      "constant": true,
      "inputs": [
        {
          "name": "user",
          "type": "address"
        }
      ],
      "name": "getUserPayingUsd",
      "outputs": [
        {
          "name": "",
          "type": "uint256"
        }
      ],
      "payable": false,
      "stateMutability": "view",
      "type": "function"
    },
    {
      "constant": true,
      "inputs": [
        {
          "name": "user",
          "type": "address"
        },
        {
          "name": "collateral",
          "type": "address"
        }
      ],
      "name": "userInputCollateral",
      "outputs": [
        {
          "name": "",
          "type": "uint256"
        }
      ],
      "payable": false,
      "stateMutability": "view",
      "type": "function"
    },
    {
      "constant": false,
      "inputs": [
        {
          "name": "calInfo",
          "type": "uint256"
        }
      ],
      "name": "setPhaseSharedPayment",
      "outputs": [],
      "payable": false,
      "stateMutability": "nonpayable",
      "type": "function"
    },
    {
      "constant": false,
      "inputs": [
        {
          "name": "calInfo",
          "type": "uint256"
        },
        {
          "name": "sharedBalances",
          "type": "int256[]"
        },
        {
          "name": "prices",
          "type": "uint256[]"
        },
        {
          "name": "firstOption",
          "type": "uint256"
        },
        {
          "name": "calTime",
          "type": "uint256"
        }
      ],
      "name": "setSharedPayment",
      "outputs": [],
      "payable": false,
      "stateMutability": "nonpayable",
      "type": "function"
    },
    {
      "constant": true,
      "inputs": [],
      "name": "getTokenNetworth",
      "outputs": [
        {
          "name": "",
          "type": "uint256"
        }
      ],
      "payable": false,
      "stateMutability": "view",
      "type": "function"
    },
    {
      "constant": false,
      "inputs": [
        {
          "name": "collateral",
          "type": "address"
        },
        {
          "name": "amount",
          "type": "uint256"
        }
      ],
      "name": "addCollateral",
      "outputs": [],
      "payable": true,
      "stateMutability": "payable",
      "type": "function"
    },
    {
      "constant": false,
      "inputs": [
        {
          "name": "tokenAmount",
          "type": "uint256"
        },
        {
          "name": "collateral",
          "type": "address"
        }
      ],
      "name": "redeemCollateral",
      "outputs": [],
      "payable": false,
      "stateMutability": "nonpayable",
      "type": "function"
    },
    {
      "constant": true,
      "inputs": [],
      "name": "getOccupiedCollateral",
      "outputs": [
        {
          "name": "",
          "type": "uint256"
        }
      ],
      "payable": false,
      "stateMutability": "view",
      "type": "function"
    },
    {
      "constant": true,
      "inputs": [],
      "name": "getAvailableCollateral",
      "outputs": [
        {
          "name": "",
          "type": "uint256"
        }
      ],
      "payable": false,
      "stateMutability": "view",
      "type": "function"
    },
    {
      "constant": true,
      "inputs": [],
      "name": "getLeftCollateral",
      "outputs": [
        {
          "name": "",
          "type": "uint256"
        }
      ],
      "payable": false,
      "stateMutability": "view",
      "type": "function"
    },
    {
      "constant": true,
      "inputs": [
        {
          "name": "strikePrice",
          "type": "uint256"
        },
        {
          "name": "underlyingPrice",
          "type": "uint256"
        },
        {
          "name": "amount",
          "type": "uint256"
        },
        {
          "name": "optType",
          "type": "uint8"
        }
      ],
      "name": "calOptionsOccupied",
      "outputs": [
        {
          "name": "",
          "type": "uint256"
        }
      ],
      "payable": false,
      "stateMutability": "view",
      "type": "function"
    },
    {
      "constant": true,
      "inputs": [],
      "name": "getUnlockedCollateral",
      "outputs": [
        {
          "name": "",
          "type": "uint256"
        }
      ],
      "payable": false,
      "stateMutability": "view",
      "type": "function"
    },
    {
      "constant": true,
      "inputs": [],
      "name": "getTotalCollateral",
      "outputs": [
        {
          "name": "",
          "type": "uint256"
        }
      ],
      "payable": false,
      "stateMutability": "view",
      "type": "function"
    }
  ],
  "bytecode": "0x6000805460ff60a860020a60ff02011916905560c0604052600a60808190527f536861726564436f696e0000000000000000000000000000000000000000000060a090815262000053916004919062000244565b506040805180820190915260058082527f53436f696e000000000000000000000000000000000000000000000000000000602090920191825262000098918162000244565b5060006009819055600a819055604080518082018252600380825260016020909201829052600e55600f55815461010033810261010060a860020a03199092169190911780845591519104600160a060020a031691907f8be0079c531659141344cd1fd0a4f28419497f9722a3daafe3b4186f6b6457e0908290a360408051808201825260038082526103e860208084018281528354600181810186556000868152965160029283027fc2575a0e9e593c00f959f8c92f12db2869c3395a3b0502d05e2516446f71f85b8181019290925593517fc2575a0e9e593c00f959f8c92f12db2869c3395a3b0502d05e2516446f71f85c948501558851808a018a5287815280860187815288548085018a55898b5291519185028084019290925551908501558851808a018a5287815280860187815288548085018a55898b5291519185028084019290925551908501558851808a018a5287815280860187815288548085018a55898b5291519185028084019290925551908501558851808a0190995286895293880194855285549081018655949095529451929093029283019190915551910155620002e9565b828054600181600116156101000203166002900490600052602060002090601f016020900481019282601f106200028757805160ff1916838001178555620002b7565b82800160010185558215620002b7579182015b82811115620002b75782518255916020019190600101906200029a565b50620002c5929150620002c9565b5090565b620002e691905b80821115620002c55760008155600101620002d0565b90565b613b9980620002f96000396000f3006080604052600436106102be5763ffffffff7c010000000000000000000000000000000000000000000000000000000060003504166306fdde0381146102c3578063095ea7b31461034d57806309a9d76c146103855780630aaf3832146103ea5780630ecfad1e1461041157806318160ddd146104325780631a5a3fce146104475780632042e5c21461046a57806323b872dd1461048b57806327e235e3146104b557806329bc969d146104d65780632f4350c2146104f7578063313ce5671461050c57806332c82a5f1461053757806334e731221461055b578063395093511461057657806342049a721461059a5780634c69c00f146105bb57806353afc025146105dc57806358a6be1c146105fd5780635c475d421461062b57806363cf379f1461065f5780636d75b9ee1461068057806370a0823114610697578063715018a6146106b8578063817bf86d146106cd578063852185fc146106ee5780638da5cb5b146107035780638f32d59b1461071857806395a2251f1461072d57806395d89b411461074e578063a04115f614610763578063a20a80451461077b578063a457c2d71461079f578063a9059cbb146107c3578063b18b78dd146107e7578063b3ab15fb146107fc578063b4d5a9c71461081d578063b9b8af0b14610844578063bf36b11014610859578063c040725a14610877578063c5e5a3ed1461088c578063c78f6803146108a1578063c7e2f8bd146108c2578063cd4058191461095e578063d2aaef4e14610973578063d6eb59101461098b578063dab55129146109a0578063dd62ed3e146109b5578063ddb944e5146109dc578063e0561aa1146109fd578063e28a327d14610a15578063e7cd4a0414610a2a578063e7f43c6814610a4b578063ef63e1f714610a60578063f20568cd14610a7b578063f2fde38b14610b29578063f495438714610b4a578063f939fdca14610b64575b600080fd5b3480156102cf57600080fd5b506102d8610b85565b6040805160208082528351818301528351919283929083019185019080838360005b838110156103125781810151838201526020016102fa565b50505050905090810190601f16801561033f5780820380516001836020036101000a031916815260200191505b509250505060405180910390f35b34801561035957600080fd5b50610371600160a060020a0360043516602435610c13565b604080519115158252519081900360200190f35b34801561039157600080fd5b5061039a610c29565b60408051602080825283518183015283519192839290830191858101910280838360005b838110156103d65781810151838201526020016103be565b505050509050019250505060405180910390f35b3480156103f657600080fd5b506103ff610c8c565b60408051918252519081900360200190f35b34801561041d57600080fd5b506103ff600160a060020a0360043516610cb2565b34801561043e57600080fd5b506103ff610cc4565b34801561045357600080fd5b50610468600160a060020a0360043516610cca565b005b34801561047657600080fd5b50610371600160a060020a0360043516610d45565b34801561049757600080fd5b50610371600160a060020a0360043581169060243516604435610da4565b3480156104c157600080fd5b506103ff600160a060020a0360043516610e57565b3480156104e257600080fd5b506103ff600160a060020a0360043516610e69565b34801561050357600080fd5b50610468610e7b565b34801561051857600080fd5b50610521610f0e565b6040805160ff9092168252519081900360200190f35b34801561054357600080fd5b506103ff60043560243560443560ff60643516610f13565b34801561056757600080fd5b506103ff600435602435610f61565b34801561058257600080fd5b50610371600160a060020a0360043516602435610fa8565b3480156105a657600080fd5b506103ff600160a060020a0360043516610fe4565b3480156105c757600080fd5b50610468600160a060020a0360043516610fff565b3480156105e857600080fd5b506103ff600160a060020a036004351661107a565b34801561060957600080fd5b5061061261108c565b6040805192835260208301919091528051918290030190f35b34801561063757600080fd5b50610643600435611095565b60408051600160a060020a039092168252519081900360200190f35b34801561066b57600080fd5b506103ff600160a060020a03600435166110bd565b610468600160a060020a03600435166024356110cf565b3480156106a357600080fd5b506103ff600160a060020a0360043516611354565b3480156106c457600080fd5b5061046861136f565b3480156106d957600080fd5b50610371600160a060020a0360043516611417565b3480156106fa57600080fd5b5061061261147d565b34801561070f57600080fd5b50610643611487565b34801561072457600080fd5b5061037161149b565b34801561073957600080fd5b50610468600160a060020a03600435166114b1565b34801561075a57600080fd5b506102d86116a1565b34801561076f57600080fd5b506104686004356116fc565b34801561078757600080fd5b50610468600435600160a060020a0360243516611ae6565b3480156107ab57600080fd5b50610371600160a060020a0360043516602435611c5f565b3480156107cf57600080fd5b50610371600160a060020a0360043516602435611cf8565b3480156107f357600080fd5b50610643611d05565b34801561080857600080fd5b50610468600160a060020a0360043516611d14565b34801561082957600080fd5b506103ff600160a060020a0360043581169060243516611d8f565b34801561085057600080fd5b50610371611dba565b34801561086557600080fd5b50610468600435602435604435611ddc565b34801561088357600080fd5b50610643611e40565b34801561089857600080fd5b506103ff611e4f565b3480156108ad57600080fd5b506103ff600160a060020a0360043516611e81565b3480156108ce57600080fd5b5060408051602060046024803582810135848102808701860190975280865261046896843596369660449591949091019291829185019084908082843750506040805187358901803560208181028481018201909552818452989b9a998901989297509082019550935083925085019084908082843750949750508435955050506020909201359150611e9c9050565b34801561096a57600080fd5b506103ff612114565b34801561097f57600080fd5b506106126004356121c1565b34801561099757600080fd5b506103ff6121e2565b3480156109ac57600080fd5b506103ff6122ea565b3480156109c157600080fd5b506103ff600160a060020a036004358116906024351661232a565b3480156109e857600080fd5b506103ff600160a060020a0360043516612355565b348015610a0957600080fd5b50610612600435612367565b348015610a2157600080fd5b506103ff612393565b348015610a3657600080fd5b50610468600160a060020a03600435166123a8565b348015610a5757600080fd5b506106436123ff565b348015610a6c57600080fd5b5061046860043560243561240e565b348015610a8757600080fd5b50610a90612465565b604051808060200180602001838103835285818151815260200191508051906020019060200280838360005b83811015610ad4578181015183820152602001610abc565b50505050905001838103825284818151815260200191508051906020019060200280838360005b83811015610b13578181015183820152602001610afb565b5050505090500194505050505060405180910390f35b348015610b3557600080fd5b50610468600160a060020a036004351661256e565b348015610b5657600080fd5b5061046860043515156125c3565b348015610b7057600080fd5b50610468600160a060020a0360043516612651565b6004805460408051602060026001851615610100026000190190941693909304601f81018490048402820184019092528181529291830182828015610c0b5780601f10610be057610100808354040283529160200191610c0b565b820191906000526020600020905b815481529060010190602001808311610bee57829003601f168201915b505050505081565b6000610c203384846126b5565b50600192915050565b60606001805480602002602001604051908101604052809291908181526020018280548015610c8157602002820191906000526020600020905b8154600160a060020a03168152600190910190602001808311610c63575b505050505090505b90565b6000610cad610c99612114565b610ca16121e2565b9063ffffffff61282216565b905090565b60106020526000908152604090205481565b60095490565b610cd261149b565b1515610d16576040805160e560020a62461bcd0281526020600482018190526024820152600080516020613b4e833981519152604482015290519081900360640190fd5b600c805473ffffffffffffffffffffffffffffffffffffffff1916600160a060020a0392909216919091179055565b6000610d4f61149b565b1515610d93576040805160e560020a62461bcd0281526020600482018190526024820152600080516020613b4e833981519152604482015290519081900360640190fd5b610d9e60018361286b565b92915050565b6000610db1848484612958565b60408051606081018252602881527f45524332303a207472616e7366657220616d6f756e74206578636565647320616020808301919091527f6c6c6f77616e636500000000000000000000000000000000000000000000000082840152600160a060020a0387166000908152600882528381203380835292529290922054610e4d9287929091610e4891879063ffffffff612ac816565b6126b5565b5060019392505050565b60066020526000908152604090205481565b60116020526000908152604090205481565b6000610e8561149b565b1515610ec9576040805160e560020a62461bcd0281526020600482018190526024820152600080516020613b4e833981519152604482015290519081900360640190fd5b5060005b600154811015610f0b57610f03600182815481101515610ee957fe5b600091825260209091200154600160a060020a03166114b1565b600101610ecd565b50565b601281565b60008060ff8316158587111415610f3b57610f34868563ffffffff612b6516565b9050610f4e565b610f4b858563ffffffff612b6516565b90505b610f5781612c0f565b9695505050505050565b6000806000610f6f85612c3e565b8054909250610f84908563ffffffff612b6516565b9050610f9d826001015482612cbd90919063ffffffff16565b92505b505092915050565b336000818152600860209081526040808320600160a060020a03871684529091528120549091610c20918590610e48908663ffffffff612cff16565b600160a060020a031660009081526012602052604090205490565b61100761149b565b151561104b576040805160e560020a62461bcd0281526020600482018190526024820152600080516020613b4e833981519152604482015290519081900360640190fd5b600b805473ffffffffffffffffffffffffffffffffffffffff1916600160a060020a0392909216919091179055565b60026020526000908152604090205481565b600e54600f5482565b60018054829081106110a357fe5b600091825260209091200154600160a060020a0316905081565b60076020526000908152604090205481565b6000806000806110df8686612d5c565b945060008511611139576040805160e560020a62461bcd02815260206004820152601a60248201527f736574746c656d656e7420616d6f756e74206973207a65726f21000000000000604482015290519081900360640190fd5b611144600386610f61565b93506111508685612e8f565b611160858563ffffffff61282216565b600b546040805160e060020a6341976e09028152600160a060020a038a8116600483015291519398509116916341976e09916024808201926020929091908290030181600087803b1580156111b457600080fd5b505af11580156111c8573d6000803e3d6000fd5b505050506040513d60208110156111de57600080fd5b505192506111f2838663ffffffff612b6516565b915061120c6111ff611e4f565b839063ffffffff612cbd16565b3360009081526012602052604090205490915061122f908363ffffffff612cff16565b33600090815260126020908152604080832093909355600160a060020a0389168252601190522054611267908663ffffffff612cff16565b600160a060020a038716600081815260116020908152604080832094909455338252601381528382209282529190915220546112a9908663ffffffff612cff16565b336000908152601360209081526040808320600160a060020a038b1684528252808320939093556010905220546112e6908663ffffffff612cff16565b600160a060020a0387166000818152601060209081526040918290209390935580518881529283018490528051919233927f33a089d94f9a0b7d0fe21e69b40d7dbe1965be652c7382cc778d46963db8c49b929181900390910190a361134c3382612f0e565b505050505050565b600160a060020a031660009081526006602052604090205490565b61137761149b565b15156113bb576040805160e560020a62461bcd0281526020600482018190526024820152600080516020613b4e833981519152604482015290519081900360640190fd5b60008054604051610100909104600160a060020a0316907f8be0079c531659141344cd1fd0a4f28419497f9722a3daafe3b4186f6b6457e0908390a36000805474ffffffffffffffffffffffffffffffffffffffff0019169055565b6000610d9e600180548060200260200160405190810160405280929190818152602001828054801561147257602002820191906000526020600020905b8154600160a060020a03168152600190910190602001808311611454575b505050505083612fd3565b600e54600f549091565b6000546101009004600160a060020a031690565b6000546101009004600160a060020a0316331490565b6000806114bc61149b565b1515611500576040805160e560020a62461bcd0281526020600482018190526024820152600080516020613b4e833981519152604482015290519081900360640190fd5b600160a060020a03831660009081526002602052604081205492508211611571576040805160e560020a62461bcd02815260206004820152601260248201527f4974277320656d7074792062616c616e63650000000000000000000000000000604482015290519081900360640190fd5b600160a060020a03831660008181526002602052604081205515156115c357604051339083156108fc029084906000818181858888f193505050501580156115bd573d6000803e3d6000fd5b5061165c565b50604080517fa9059cbb0000000000000000000000000000000000000000000000000000000081523360048201526024810183905290518391600160a060020a0383169163a9059cbb916044808201926020929091908290030181600087803b15801561162f57600080fd5b505af1158015611643573d6000803e3d6000fd5b505050506040513d602081101561165957600080fd5b50505b604080518381529051600160a060020a0385169133917f747147be90b2a81a2e929994a92cd7bb71396bdbfd02f181867c81187d4f79449181900360200190a3505050565b6005805460408051602060026001851615610100026000190190941693909304601f81018490048402820184019092528181529291830182828015610c0b5780601f10610be057610100808354040283529160200191610c0b565b600d546060906000908190839081908390600160a060020a03163314611792576040805160e560020a62461bcd02815260206004820152602760248201527f4d616e6167657261626c653a2063616c6c6572206973206e6f7420746865204f60448201527f70657261746f7200000000000000000000000000000000000000000000000000606482015290519081900360840190fd5b600c54604080517faf70df12000000000000000000000000000000000000000000000000000000008152600481018a8152602482019283526001805460448401819052600160a060020a039095169463af70df12948d9492939290916064909101908490801561182b57602002820191906000526020600020905b8154600160a060020a0316815260019091019060200180831161180d575b50509350505050600060405180830381600087803b15801561184c57600080fd5b505af1158015611860573d6000803e3d6000fd5b505050506040513d6000823e601f3d908101601f19168201604052606081101561188957600080fd5b8101908080516401000000008111156118a157600080fd5b820160208101848111156118b457600080fd5b81518560208202830111640100000000821117156118d157600080fd5b5050602082015160409092015190995090975095505084159050611add57600c54604080517fe5081c40000000000000000000000000000000000000000000000000000000008152600481018a8152602482019283526001805460448401819052600160a060020a039095169463e5081c40948d9492939290916064909101908490801561198857602002820191906000526020600020905b8154600160a060020a0316815260019091019060200180831161196a575b50509350505050600060405180830381600087803b1580156119a957600080fd5b505af11580156119bd573d6000803e3d6000fd5b505050506040513d6000823e601f3d908101601f1916820160409081528110156119e657600080fd5b8101908080516401000000008111156119fe57600080fd5b82016020810184811115611a1157600080fd5b8151856020820283011164010000000082111715611a2e57600080fd5b50509291906020018051640100000000811115611a4a57600080fd5b82016020810184811115611a5d57600080fd5b8151856020820283011164010000000082111715611a7a57600080fd5b50949750955060009450505050505b8251811015611ad0578581815181101515611aa057fe5b906020019060200201518382815181101515611ab857fe5b60209081029091010180519091019052600101611a89565b611add8784848842611e9c565b50505050505050565b600080600080611af585611417565b1515611b4b576040805160e560020a62461bcd02815260206004820152601f60248201527f736574746c656d656e7420697320756e737570706f7274656420746f6b656e00604482015290519081900360640190fd5b33600090815260066020526040902054861115611bb2576040805160e560020a62461bcd02815260206004820152601e60248201527f53436f696e2062616c616e636520697320696e73756666696369656e74210000604482015290519081900360640190fd5b851515611bbe5761134c565b611bc6610c8c565b9350611bd0611e4f565b9250611be2868463ffffffff612b6516565b9150838211611bf2576000611bf6565b8382035b905082846104577f36bc09f07bcf3d3fa05df7f9c56193487df0507ecd1d5a83845b56b4e6d7b73360405160405180910390a480826104577f36bc09f07bcf3d3fa05df7f9c56193487df0507ecd1d5a83845b56b4e6d7b73360405160405180910390a461134c565b60408051606081018252602581527f45524332303a2064656372656173656420616c6c6f77616e63652062656c6f776020808301919091527f207a65726f0000000000000000000000000000000000000000000000000000008284015233600081815260088352848120600160a060020a0388168252909252928120549092610c209290918691610e489190879063ffffffff612ac816565b6000610c20338484612958565b600b54600160a060020a031690565b611d1c61149b565b1515611d60576040805160e560020a62461bcd0281526020600482018190526024820152600080516020613b4e833981519152604482015290519081900360640190fd5b600d805473ffffffffffffffffffffffffffffffffffffffff1916600160a060020a0392909216919091179055565b600160a060020a03918216600090815260136020908152604080832093909416825291909152205490565b6000547501000000000000000000000000000000000000000000900460ff1681565b6000611de661149b565b1515611e2a576040805160e560020a62461bcd0281526020600482018190526024820152600080516020613b4e833981519152604482015290519081900360640190fd5b611e3384612c3e565b9283555060019091015550565b600c54600160a060020a031690565b600060095460001415611e6757506305f5e100610c89565b600954611e726121e2565b811515611e7b57fe5b04905090565b600160a060020a031660009081526002602052604090205490565b600d546000908190600160a060020a03163314611f29576040805160e560020a62461bcd02815260206004820152602760248201527f4d616e6167657261626c653a2063616c6c6572206973206e6f7420746865204f60448201527f70657261746f7200000000000000000000000000000000000000000000000000606482015290519081900360840190fd5b600c546040517f8ff239e6000000000000000000000000000000000000000000000000000000008152600481018981526024820187905260648201869052608060448301908152885160848401528851600160a060020a0390941693638ff239e6938c938a938c938b9360a401906020808701910280838360005b83811015611fbc578181015183820152602001611fa4565b5050505090500195505050505050600060405180830381600087803b158015611fe457600080fd5b505af1158015611ff8573d6000803e3d6000fd5b50505050600091505b8551821015611add57600180548390811061201857fe5b60009182526020822001548751600160a060020a03909116925087908490811061203e57fe5b60209081029091010151126120ad5761208f868381518110151561205e57fe5b6020908102909101810151600160a060020a038416600090815260109092526040909120549063ffffffff612cff16565b600160a060020a038216600090815260106020526040902055612109565b6120ef86838151811015156120be57fe5b6020908102909101810151600160a060020a038416600090815260109092526040822054910363ffffffff61282216565b600160a060020a0382166000908152601060205260409020555b600190910190612001565b600080600c60009054906101000a9004600160a060020a0316600160a060020a03166373a3d4246040518163ffffffff167c0100000000000000000000000000000000000000000000000000000000028152600401602060405180830381600087803b15801561218357600080fd5b505af1158015612197573d6000803e3d6000fd5b505050506040513d60208110156121ad57600080fd5b505190506121ba81612c0f565b91505b5090565b60008060006121cf84612c3e565b8054600190910154909590945092505050565b60015460009081908180805b838310156122e057600180548490811061220457fe5b6000918252602080832090910154600b546040805160e060020a6341976e09028152600160a060020a0393841660048201819052915191975091909216936341976e099360248084019491939192918390030190829087803b15801561226957600080fd5b505af115801561227d573d6000803e3d6000fd5b505050506040513d602081101561229357600080fd5b5051600160a060020a0383166000908152601060205260409020549091506122d3906122c690839063ffffffff612b6516565b869063ffffffff612cff16565b94506001909201916121ee565b5092949350505050565b6000610cad60095461231e6122fd6121e2565b600a546009546123129163ffffffff61282216565b9063ffffffff612b6516565b9063ffffffff612cbd16565b600160a060020a03918216600090815260086020908152604080832093909416825291909152205490565b60126020526000908152604090205481565b600380548290811061237557fe5b60009182526020909120600290910201805460019091015490915082565b6000610cad6123a0612114565b610ca16122ea565b6123b061149b565b15156123f4576040805160e560020a62461bcd0281526020600482018190526024820152600080516020613b4e833981519152604482015290519081900360640190fd5b610f0b600182613176565b600d54600160a060020a031690565b61241661149b565b151561245a576040805160e560020a62461bcd0281526020600482018190526024820152600080516020613b4e833981519152604482015290519081900360640190fd5b600e91909155600f55565b6060806060600060018054905060405190808252806020026020018201604052801561249b578160200160208202803883390190505b509150600090505b60015481101561250557600260006001838154811015156124c057fe5b6000918252602080832090910154600160a060020a0316835282019290925260400190205482518390839081106124f357fe5b602090810290910101526001016124a3565b6001828180548060200260200160405190810160405280929190818152602001828054801561255d57602002820191906000526020600020905b8154600160a060020a0316815260019091019060200180831161253f575b505050505091509350935050509091565b61257661149b565b15156125ba576040805160e560020a62461bcd0281526020600482018190526024820152600080516020613b4e833981519152604482015290519081900360640190fd5b610f0b8161321d565b6125cb61149b565b151561260f576040805160e560020a62461bcd0281526020600482018190526024820152600080516020613b4e833981519152604482015290519081900360640190fd5b6000805491151575010000000000000000000000000000000000000000000275ff00000000000000000000000000000000000000000019909216919091179055565b610f0b60018054806020026020016040519081016040528092919081815260200182805480156126aa57602002820191906000526020600020905b8154600160a060020a0316815260019091019060200180831161268c575b505050505082613316565b600160a060020a038316151561273a576040805160e560020a62461bcd028152602060048201526024808201527f45524332303a20617070726f76652066726f6d20746865207a65726f2061646460448201527f7265737300000000000000000000000000000000000000000000000000000000606482015290519081900360840190fd5b600160a060020a03821615156127c0576040805160e560020a62461bcd02815260206004820152602260248201527f45524332303a20617070726f766520746f20746865207a65726f20616464726560448201527f7373000000000000000000000000000000000000000000000000000000000000606482015290519081900360840190fd5b600160a060020a03808416600081815260086020908152604080832094871680845294825291829020859055815185815291517f8c5be1e5ebec7d5bd14f71427d1e84f3dd0314c0f7b2291e5b200ac8c7c3b9259281900390910190a3505050565b600061286483836040805190810160405280601e81526020017f536166654d6174683a207375627472616374696f6e206f766572666c6f770000815250612ac8565b9392505050565b8154600090815b818110156128ba5783600160a060020a0316858281548110151561289257fe5b600091825260209091200154600160a060020a031614156128b2576128ba565b600101612872565b8181101561294d57600019820181146129335784600183038154811015156128de57fe5b6000918252602090912001548554600160a060020a039091169086908390811061290457fe5b9060005260206000200160006101000a815481600160a060020a030219169083600160a060020a031602179055505b8454612943866000198301613b0a565b5060019250610fa0565b506000949350505050565b600160a060020a03831615156129de576040805160e560020a62461bcd02815260206004820152602560248201527f45524332303a207472616e736665722066726f6d20746865207a65726f20616460448201527f6472657373000000000000000000000000000000000000000000000000000000606482015290519081900360840190fd5b600160a060020a0382161515612a64576040805160e560020a62461bcd02815260206004820152602360248201527f45524332303a207472616e7366657220746f20746865207a65726f206164647260448201527f6573730000000000000000000000000000000000000000000000000000000000606482015290519081900360840190fd5b612a6e8382613376565b612a788282613445565b81600160a060020a031683600160a060020a03167fddf252ad1be2c89b69c2b068fc378daa952ba7f163c4a11628f55a4df523b3ef836040518082815260200191505060405180910390a3505050565b6000808285851115612b5b5760405160e560020a62461bcd0281526004018080602001828103825283818151815260200191508051906020019080838360005b83811015612b20578181015183820152602001612b08565b50505050905090810190601f168015612b4d5780820380516001836020036101000a031916815260200191505b509250505060405180910390fd5b5050509103919050565b600080831515612b785760009150612c08565b50828202828482811515612b8857fe5b0414612c04576040805160e560020a62461bcd02815260206004820152602160248201527f536166654d6174683a206d756c7469706c69636174696f6e206f766572666c6f60448201527f7700000000000000000000000000000000000000000000000000000000000000606482015290519081900360840190fd5b8091505b5092915050565b600e546000908190612c27908463ffffffff612b6516565b600f5490915061286490829063ffffffff612cbd16565b6003546000908210612c9a576040805160e560020a62461bcd02815260206004820152601260248201527f66656520747970652069732076616c6964210000000000000000000000000000604482015290519081900360640190fd5b6003805483908110612ca857fe5b90600052602060002090600202019050919050565b600061286483836040805190810160405280601a81526020017f536166654d6174683a206469766973696f6e206279207a65726f0000000000008152506134f4565b600082820183811015612c04576040805160e560020a62461bcd02815260206004820152601b60248201527f536166654d6174683a206164646974696f6e206f766572666c6f770000000000604482015290519081900360640190fd5b6000806000612d6a85611417565b1515612dc0576040805160e560020a62461bcd02815260206004820152601f60248201527f736574746c656d656e7420697320756e737570706f7274656420746f6b656e00604482015290519081900360640190fd5b60009150600160a060020a0385161515612ddc57349150612e87565b6000841115612e875750604080517f23b872dd0000000000000000000000000000000000000000000000000000000081523360048201523060248201526044810185905290518591600160a060020a038316916323b872dd916064808201926020929091908290030181600087803b158015612e5757600080fd5b505af1158015612e6b573d6000803e3d6000fd5b505050506040513d6020811015612e8157600080fd5b50849250505b509392505050565b600160a060020a038216600090815260026020526040902054612eb8908263ffffffff612cff16565b600160a060020a038316600081815260026020908152604091829020939093558051848152905191927f1104eee7f034069140a0655d153038cedf9e65e5724018c555a8d56cfb6bee7792918290030190a25050565b600160a060020a0382161515612f6e576040805160e560020a62461bcd02815260206004820152601f60248201527f45524332303a206d696e7420746f20746865207a65726f206164647265737300604482015290519081900360640190fd5b600954612f81908263ffffffff612cff16565b600955612f8e8282613445565b604080518281529051600160a060020a038416916000917fddf252ad1be2c89b69c2b068fc378daa952ba7f163c4a11628f55a4df523b3ef9181900360200190a35050565b8151600090815b8181101561294d5783600160a060020a03168582815181101515612ffa57fe5b90602001906020020151600160a060020a0316141561301c5760019250610fa0565b600101612fda565b8154600160a060020a031681526001909101906020018083116130245750505050508a613707565b60008811801561305b57508481105b156130bb5761308e8860018381548110151561307357fe5b600091825260209091200154600160a060020a031689613560565b8551919950935083908590839081106130a357fe5b6020908102909101018051909101905260010161304c565b60008811156130d2576130cf88868661375c565b93505b5060005b8481101561313057613128336001838154811015156130f157fe5b6000918252602090912001548651600160a060020a039091169087908590811061311757fe5b90602001906020020151600461397f565b6001016130d6565b604080518b8152905133917f925b1add21f66e1e2c8c9e9fffb3e0f4105df02dbd05c280f2fe4d19f5c50be5919081900360200190a250505050505050505050565b5050565b6131d9828054806020026020016040519081016040528092919081815260200182805480156131ce57602002820191906000526020600020905b8154600160a060020a031681526001909101906020018083116131b0575b505050505082612fd3565b1515613172578154600181018355600083815260209020018054600160a060020a03831673ffffffffffffffffffffffffffffffffffffffff199091161790555050565b600160a060020a03811615156132a3576040805160e560020a62461bcd02815260206004820152602660248201527f4f776e61626c653a206e6577206f776e657220697320746865207a65726f206160448201527f6464726573730000000000000000000000000000000000000000000000000000606482015290519081900360840190fd5b60008054604051600160a060020a038085169361010090930416917f8be0079c531659141344cd1fd0a4f28419497f9722a3daafe3b4186f6b6457e091a360008054600160a060020a039092166101000274ffffffffffffffffffffffffffffffffffffffff0019909216919091179055565b6133208282612fd3565b1515613172576040805160e560020a62461bcd02815260206004820181905260248201527f77686974654c6973743a207573696e6720696e76616c69642061646472657373604482015290519081900360640190fd5b600160a060020a03821615156133fc576040805160e560020a62461bcd02815260206004820152602360248201527f45524332303a207472616e7366657220746f20746865207a65726f206164647260448201527f6573730000000000000000000000000000000000000000000000000000000000606482015290519081900360840190fd5b600160a060020a038216600090815260066020526040902054613425908263ffffffff61282216565b600160a060020a0390921660009081526006602052604090209190915550565b600160a060020a03821615156134cb576040805160e560020a62461bcd02815260206004820152602360248201527f45524332303a207472616e7366657220746f20746865207a65726f206164647260448201527f6573730000000000000000000000000000000000000000000000000000000000606482015290519081900360840190fd5b600160a060020a038216600090815260066020526040902054613425908263ffffffff612cff16565b6000808281851161354a5760405160e560020a62461bcd02815260040180806020018281038252838181518152602001915080519060200190808383600083811015612b20578181015183820152602001612b08565b50838581151561355657fe5b0495945050505050565b336000908152601360209081526040808320600160a060020a038616845290915281205481908180808084151561359d57899650600095506136fa565b6135ad888663ffffffff612b6516565b600160a060020a038a166000908152601060209081526040808320546011909252909120549195506135e99161231e908863ffffffff612b6516565b9450848410156135f7578394505b84151561360a57899650600095506136fa565b600b546040805160e060020a6341976e09028152600160a060020a038c81166004830152915191909216916341976e099160248083019260209291908290030181600087803b15801561365c57600080fd5b505af1158015613670573d6000803e3d6000fd5b505050506040513d602081101561368657600080fd5b5051925061369a8a8463ffffffff612cbd16565b91508115156136af57600096508695506136fa565b8482116136bc57816136be565b845b9050848211156136f2576136e86136db828563ffffffff612b6516565b8b9063ffffffff61282216565b81965096506136fa565b600096509450845b5050505050935093915050565b8151600090815b818110156137545783600160a060020a0316858281518110151561372e57fe5b90602001906020020151600160a060020a0316141561374c57613754565b60010161370e565b949350505050565b606060006060600080600080945087604051908082528060200260200182016040528015613794578160200160208202803883390190505b509350600092505b878310156138e05760018054849081106137b257fe5b6000918252602090912001548751600160a060020a03909116925061380e908890859081106137dd57fe5b6020908102909101810151600160a060020a038516600090815260109092526040909120549063ffffffff61282216565b848481518110151561381c57fe5b6020908102909101810191909152600b546040805160e060020a6341976e09028152600160a060020a038681166004830152915191909216926341976e0992602480820193918290030181600087803b15801561387857600080fd5b505af115801561388c573d6000803e3d6000fd5b505050506040513d60208110156138a257600080fd5b505184519091506138d4906122c6908690869081106138bd57fe5b60209081029091010151839063ffffffff612b6516565b5060019092019161379c565b8415156138ec57613973565b600092505b8783101561396f5761394c6139288661231e8c888881518110151561391257fe5b602090810290910101519063ffffffff612b6516565b888581518110151561393657fe5b602090810290910101519063ffffffff612cff16565b878481518110151561395a57fe5b602090810290910101526001909201916138f1565b8695505b50505050509392505050565b600082151561398d576139bd565b6139978284610f61565b90506139b385856139ae868563ffffffff61282216565b6139c4565b6139bd8482612e8f565b5050505050565b60008115156139d257613b04565b600160a060020a0383161515613a1e57604051600160a060020a0385169083156108fc029084906000818181858888f19350505050158015613a18573d6000803e3d6000fd5b50613ab8565b50604080517fa9059cbb000000000000000000000000000000000000000000000000000000008152600160a060020a038581166004830152602482018490529151849283169163a9059cbb9160448083019260209291908290030181600087803b158015613a8b57600080fd5b505af1158015613a9f573d6000803e3d6000fd5b505050506040513d6020811015613ab557600080fd5b50505b82600160a060020a031684600160a060020a03167f8aaaec2388cc390cde69685f78340e15f36d424b6b6b595f549dd883931f9c9b846040518082815260200191505060405180910390a35b50505050565b815481835581811115613b2e57600083815260209020613b2e918101908301613b33565b505050565b610c8991905b808211156121bd5760008155600101613b3956004f776e61626c653a2063616c6c6572206973206e6f7420746865206f776e6572a165627a7a723058204f2daee0d2e5c12b065b185d1fb0ba1101d6bd0bf3f1edaa7344bea14689d5af0029",
  "source": "pragma solidity ^0.4.26;\r\nimport \"./modules/SafeMath.sol\";\r\nimport \"./modules/ReentrancyGuard.sol\";\r\nimport \"./SharedCoin.sol\";\r\nimport \"./modules/underlyingAssets.sol\";\r\nimport \"./modules/TransactionFee.sol\";\r\nimport \"./interfaces/IOptionsPool.sol\";\r\nimport \"./interfaces/IFNXOracle.sol\";\r\nimport \"./modules/Operator.sol\";\r\ncontract CollateralPool is ReentrancyGuard,TransactionFee,SharedCoin,ImportOracle,ImportOptionsPool,Operator {\r\n    using SafeMath for uint256;\r\n    fraction public collateralRate = fraction(3, 1);\r\n    //token net worth\r\n    mapping (address => uint256) public netWorthBalances;\r\n    //address collaterel\r\n    mapping (address => uint256) public collateralBalances;\r\n    //user paying for collateral usd;\r\n    mapping (address => uint256) public userCollateralPaying;\r\n    //account -> collateral -> amount\r\n    mapping (address => mapping (address => uint256)) public userInputCollateral;\r\n\r\n    event AddCollateral(address indexed from,address indexed collateral,uint256 amount,uint256 tokenAmount);\r\n    event RedeemCollateral(address indexed from,uint256 tokenAmount);\r\n\r\n    event DebugEvent(uint256 indexed value1,uint256 indexed value2,uint256 indexed value3);\r\n\r\n    function setCollateralRate(uint256 numerator,uint256 denominator) public onlyOwner {\r\n        collateralRate.numerator = numerator;\r\n        collateralRate.denominator = denominator;\r\n    }\r\n    function getCollateralRate()public view returns (uint256,uint256) {\r\n        return (collateralRate.numerator,collateralRate.denominator);\r\n    }\r\n    function getUserPayingUsd(address user)public view returns (uint256){\r\n        return userCollateralPaying[user];\r\n    }\r\n    function userInputCollateral(address user,address collateral)public view returns (uint256){\r\n        return userInputCollateral[user][collateral];\r\n    }\r\n    function setPhaseSharedPayment(uint256 calInfo) public onlyOperator {\r\n        (uint256[] memory sharedBalances,uint256 firstOption,bool success) =\r\n             _optionsPool.calculatePhaseSharedPayment(calInfo,whiteList);\r\n        if (success){\r\n            (int256[] memory fallBalance,uint256[] memory prices) = _optionsPool.calculatePhaseOptionsFall(calInfo,whiteList);\r\n            for (uint256 i= 0;i<fallBalance.length;i++){\r\n                fallBalance[i] += int256(sharedBalances[i]);\r\n            }\r\n            setSharedPayment(calInfo,fallBalance,prices,firstOption,now);\r\n        }\r\n    }\r\n    function setSharedPayment(uint256 calInfo,int256[] sharedBalances,uint256[] prices,uint256 firstOption,uint256 calTime) public onlyOperator{\r\n        _optionsPool.setSharedState(calInfo,firstOption,prices,calTime);\r\n        for (uint i=0;i<sharedBalances.length;i++){\r\n            address addr = whiteList[i];\r\n            if(sharedBalances[i]>=0){\r\n                netWorthBalances[addr] = netWorthBalances[addr].add(uint256(sharedBalances[i]));\r\n            }else{\r\n                netWorthBalances[addr] = netWorthBalances[addr].sub(uint256(-sharedBalances[i]));\r\n            }\r\n        }\r\n    }\r\n    function getTokenNetworth() public view returns (uint256){\r\n        if (_totalSupply == 0){\r\n            return 1e8;\r\n        }\r\n        return getTotalCollateral()/_totalSupply;\r\n    }\r\n    function addCollateral(address collateral,uint256 amount)public payable {\r\n        amount = getPayableAmount(collateral,amount);\r\n        require(amount>0 , \"settlement amount is zero!\");\r\n        uint256 fee = calculateFee(addColFee,amount);\r\n        _addTransactionFee(collateral,fee);\r\n        amount = amount.sub(fee);\r\n        uint256 price = _oracle.getPrice(collateral);\r\n        uint256 userPaying = price.mul(amount);\r\n        uint256 mintAmount = userPaying.div(getTokenNetworth());\r\n        userCollateralPaying[msg.sender] = userCollateralPaying[msg.sender].add(userPaying);\r\n        collateralBalances[collateral] = collateralBalances[collateral].add(amount);\r\n        userInputCollateral[msg.sender][collateral] = userInputCollateral[msg.sender][collateral].add(amount);\r\n        netWorthBalances[collateral] = netWorthBalances[collateral].add(amount);\r\n        emit AddCollateral(msg.sender,collateral,amount,mintAmount);\r\n        _mint(msg.sender,mintAmount);\r\n    }\r\n    //calculate token\r\n    function redeemCollateral(uint256 tokenAmount,address collateral)public {\r\n        require(isEligibleAddress(collateral) , \"settlement is unsupported token\");\r\n        require(balances[msg.sender]>=tokenAmount,\"SCoin balance is insufficient!\");\r\n        if (tokenAmount == 0){\r\n            return;\r\n        }\r\n        uint256 leftColateral = getLeftCollateral();\r\n        uint256 tokenNetWorth = getTokenNetworth();\r\n        uint256 redeemWorth = tokenAmount.mul(tokenNetWorth);\r\n        uint256 locked = redeemWorth > leftColateral ? redeemWorth - leftColateral : 0;\r\n        emit DebugEvent(1111,leftColateral,tokenNetWorth);\r\n        emit DebugEvent(1111,redeemWorth,locked);\r\n        return;\r\n        if (locked > 0){\r\n            locked = tokenAmount.sub(leftColateral.div(tokenNetWorth));\r\n            tokenAmount = tokenAmount.sub(locked);\r\n            redeemWorth = tokenAmount.mul(tokenNetWorth);\r\n        }\r\n        _redeemCollateral(tokenAmount,collateral,redeemWorth,tokenNetWorth);\r\n        lockBalance(msg.sender,locked);\r\n    }\r\n    function _redeemCollateral(uint256 tokenAmount,address collateral,uint256 redeemWorth,uint256 tokenNetWorth) internal {\r\n        uint256 redeemPaying = userCollateralPaying[msg.sender].mul(tokenAmount).div(balances[msg.sender]);\r\n        userCollateralPaying[msg.sender] = userCollateralPaying[msg.sender].sub(redeemPaying);\r\n        _burn(msg.sender, tokenAmount);\r\n        uint whiteLen = whiteList.length;\r\n        uint256[] memory paybackcal = new uint256[](whiteLen);\r\n        uint256 payBack;\r\n        (redeemWorth,payBack) = _calPayBackCollateral(redeemWorth,collateral,tokenNetWorth);\r\n        uint256 index = whiteListAddress._getEligibleIndexAddress(whiteList,collateral);\r\n        paybackcal[index] = payBack;\r\n        for (uint256 i=0;redeemWorth>0 && i<whiteLen;i++){\r\n            (redeemWorth,payBack) = _calPayBackCollateral(redeemWorth,whiteList[i],tokenNetWorth);  \r\n            paybackcal[i] += payBack;\r\n        } \r\n        if (redeemWorth > 0){\r\n            paybackcal = _calPremiumPayback(redeemWorth,whiteLen,paybackcal);\r\n        }\r\n        for (i=0;i<whiteLen;i++){\r\n            _transferPaybackAndFee(msg.sender,whiteList[i],paybackcal[i],redeemColFee);\r\n        } \r\n        emit RedeemCollateral(msg.sender,tokenAmount);\r\n    }\r\n    function _calPremiumPayback(uint256 worth,uint256 whiteLen,uint256[] memory paybackcal)internal view returns(uint256[] memory){\r\n        uint256 totalPrice = 0;\r\n        uint256[] memory PremiumBalances = new uint256[](whiteLen);\r\n        for (uint256 i=0; i<whiteLen;i++){\r\n            address addr = whiteList[i];\r\n            PremiumBalances[i] = netWorthBalances[addr].sub(paybackcal[i]);\r\n            uint256 price = _oracle.getPrice(addr);\r\n            totalPrice.add(price.mul(PremiumBalances[i]));\r\n        } \r\n                \r\n        if (totalPrice == 0){\r\n            return;\r\n        }\r\n        for (i=0;i<whiteLen;i++){\r\n            paybackcal[i] = paybackcal[i].add(PremiumBalances[i].mul(worth).div(totalPrice));\r\n        } \r\n        return paybackcal;\r\n    }\r\n    function _calPayBackCollateral(uint256 worth,address collateral,uint256 tokenNetWorth)internal view returns (uint256,uint256){\r\n        uint256 amount = userInputCollateral[msg.sender][collateral];\r\n        if (amount == 0){\r\n            return (worth,0);\r\n        }\r\n        uint netAmount = tokenNetWorth.mul(amount);\r\n        amount = collateralBalances[collateral].mul(amount).div(netWorthBalances[collateral]);\r\n        if (netAmount<amount){\r\n            amount = netAmount;\r\n        }\r\n        if (amount == 0){\r\n            return (worth,0);\r\n        }\r\n        uint256 price = _oracle.getPrice(collateral);\r\n        uint256 redeemAmount = worth.div(price);\r\n        if (redeemAmount == 0){\r\n            return (0,0);\r\n        }\r\n        uint256 transferAmount = (redeemAmount>amount) ? amount : redeemAmount;\r\n        if (redeemAmount>amount){\r\n            return (worth.sub(transferAmount.mul(price)),transferAmount);\r\n        }\r\n        return (0,transferAmount);\r\n    }\r\n    function getOccupiedCollateral() public view returns(uint256){\r\n        uint256 totalOccupied = _optionsPool.getTotalOccupiedCollateral();\r\n        return calculateCollateral(totalOccupied);\r\n    }\r\n    function getAvailableCollateral()public view returns(uint256){\r\n        return getUnlockedCollateral().sub(getOccupiedCollateral());\r\n    }\r\n    function getLeftCollateral()public view returns(uint256){\r\n        return getTotalCollateral().sub(getOccupiedCollateral());\r\n    }\r\n    function calOptionsOccupied(uint256 strikePrice,uint256 underlyingPrice,uint256 amount,uint8 optType)public view returns(uint256){\r\n        uint256 totalOccupied = 0;\r\n        if ((optType == 0) == (strikePrice>underlyingPrice)){ // call\r\n            totalOccupied = strikePrice.mul(amount);\r\n        } else {\r\n            totalOccupied = underlyingPrice.mul(amount);\r\n        }\r\n        return calculateCollateral(totalOccupied);\r\n    }\r\n    function getUnlockedCollateral()public view returns(uint256){\r\n        return (_totalSupply.sub(_totalLocked)).mul(getTotalCollateral()).div(_totalSupply);\r\n    }\r\n    function getTotalCollateral()public view returns(uint256){\r\n        uint256 totalNum = 0;\r\n        uint whiteListLen = whiteList.length;\r\n        for (uint256 i=0;i<whiteListLen;i++){\r\n            address addr = whiteList[i];\r\n            uint256 price = _oracle.getPrice(addr);\r\n            totalNum = totalNum.add(price.mul(netWorthBalances[addr]));\r\n        }\r\n        return totalNum;  \r\n    }\r\n\r\n    function _paybackWorth(uint256 worth,uint256 feeType) internal {\r\n        uint256 totalPrice = 0;\r\n        uint whiteLen = whiteList.length;\r\n        uint256[] memory balances = new uint256[](whiteLen);\r\n        for (uint256 i=0;i<whiteLen;i++){\r\n            address addr = whiteList[i];\r\n            uint256 price = _oracle.getPrice(addr);\r\n            balances[i] = netWorthBalances[addr];\r\n            totalPrice.add(price.mul(balances[i]));\r\n        }\r\n        if (totalPrice == 0){\r\n            return;\r\n        }\r\n        for (i=0;i<whiteLen;i++){\r\n            uint256 _payBack = balances[i].mul(worth).div(totalPrice);\r\n            netWorthBalances[addr] = balances[i].sub(_payBack);\r\n            _transferPaybackAndFee(msg.sender,addr,_payBack,feeType);\r\n        } \r\n    }\r\n    function getPayableAmount(address settlement,uint256 settlementAmount) internal returns (uint256) {\r\n        require(isEligibleAddress(settlement) , \"settlement is unsupported token\");\r\n        uint256 colAmount = 0;\r\n        if (settlement == address(0)){\r\n            colAmount = msg.value;\r\n        }else if (settlementAmount > 0){\r\n            IERC20 oToken = IERC20(settlement);\r\n            oToken.transferFrom(msg.sender, address(this), settlementAmount);\r\n            colAmount = settlementAmount;\r\n        }\r\n        return colAmount;\r\n    }\r\n    function calculateCollateral(uint256 amount)internal view returns (uint256){\r\n        uint256 result = collateralRate.numerator.mul(amount);\r\n        return result.div(collateralRate.denominator);\r\n    }\r\n\r\n}",
  "sourcePath": "C:\\work\\solidity\\FinnexusOptions_V2\\contracts\\CollateralPool.sol",
  "compiler": {
    "name": "solc",
    "version": "0.4.26+commit.4563c3fc.Emscripten.clang"
  },
  "schemaVersion": "3.1.0",
  "updatedAt": "2020-07-27T15:16:32.011Z",
  "devdoc": {
    "methods": {
      "addWhiteList(address)": {
        "details": "Implementation of add an eligible address into the whitelist.\r",
        "params": {
          "addAddress": "new eligible address.\r"
        }
      },
      "allowance(address,address)": {
        "details": "See {IERC20-allowance}.\r"
      },
      "approve(address,uint256)": {
        "details": "See {IERC20-approve}.\r      * Requirements:\r      * - `spender` cannot be the zero address.\r"
      },
      "balanceOf(address)": {
        "details": "See {IERC20-balanceOf}.\r"
      },
      "decreaseAllowance(address,uint256)": {
        "details": "Atomically decreases the allowance granted to `spender` by the caller.\r      * This is an alternative to {approve} that can be used as a mitigation for\r problems described in {IERC20-approve}.\r      * Emits an {Approval} event indicating the updated allowance.\r      * Requirements:\r      * - `spender` cannot be the zero address.\r - `spender` must have allowance for the caller of at least\r `subtractedValue`.\r"
      },
      "getWhiteList()": {
        "details": "Implementation of getting the eligible whitelist.\r"
      },
      "increaseAllowance(address,uint256)": {
        "details": "Atomically increases the allowance granted to `spender` by the caller.\r      * This is an alternative to {approve} that can be used as a mitigation for\r problems described in {IERC20-approve}.\r      * Emits an {Approval} event indicating the updated allowance.\r      * Requirements:\r      * - `spender` cannot be the zero address.\r"
      },
      "isEligibleAddress(address)": {
        "details": "Implementation of testing whether the input address is eligible.\r",
        "params": {
          "tmpAddress": "input address for testing.\r"
        }
      },
      "isOwner()": {
        "details": "Returns true if the caller is the current owner."
      },
      "owner()": {
        "details": "Returns the address of the current owner."
      },
      "removeWhiteList(address)": {
        "details": "Implementation of revoke an invalid address from the whitelist.\r",
        "params": {
          "removeAddress": "revoked address.\r"
        }
      },
      "renounceOwnership()": {
        "details": "Leaves the contract without owner. It will not be possible to call `onlyOwner` functions anymore. Can only be called by the current owner.     * NOTE: Renouncing ownership will leave the contract without an owner, thereby removing any functionality that is only available to the owner."
      },
      "setTransactionFee(uint256,uint256,uint256)": {
        "details": "set the rate of trasaction fee.\r",
        "params": {
          "denominator": "thedenominator of transaction fee.\r transaction fee = numerator/denominator;\r",
          "feeType": "the transaction fee type\r",
          "numerator": "the numerator of transaction fee .\r"
        }
      },
      "totalSupply()": {
        "details": "See {IERC20-totalSupply}.\r"
      },
      "transfer(address,uint256)": {
        "details": "See {IERC20-transfer}.\r      * Requirements:\r      * - `recipient` cannot be the zero address.\r - the caller must have a balance of at least `amount`.\r"
      },
      "transferFrom(address,address,uint256)": {
        "details": "See {IERC20-transferFrom}.\r      * Emits an {Approval} event indicating the updated allowance. This is not\r required by the EIP. See the note at the beginning of {ERC20};\r      * Requirements:\r - `sender` and `recipient` cannot be the zero address.\r - `sender` must have a balance of at least `amount`.\r - the caller must have allowance for `sender`'s tokens of at least\r `amount`.\r"
      },
      "transferOwnership(address)": {
        "details": "Transfers ownership of the contract to a new account (`newOwner`). Can only be called by the current owner."
      }
    }
  },
  "userdoc": {
    "methods": {
      "setHalt(bool)": {
        "notice": "function Emergency situation that requires contribution period to stop or not."
      },
      "setOperator(address)": {
        "notice": "contribution period to stop or not."
      }
    }
  }
}