{
  "contractName": "CollateralPool",
  "abi": [
    {
      "inputs": [
        {
          "internalType": "address",
          "name": "optionsPool",
          "type": "address"
        }
      ],
      "payable": false,
      "stateMutability": "nonpayable",
      "type": "constructor"
    },
    {
      "anonymous": false,
      "inputs": [
        {
          "indexed": true,
          "internalType": "address",
          "name": "settlement",
          "type": "address"
        },
        {
          "indexed": false,
          "internalType": "uint256",
          "name": "payback",
          "type": "uint256"
        }
      ],
      "name": "AddFee",
      "type": "event"
    },
    {
      "anonymous": false,
      "inputs": [
        {
          "indexed": true,
          "internalType": "address",
          "name": "previousOwner",
          "type": "address"
        },
        {
          "indexed": true,
          "internalType": "address",
          "name": "newOwner",
          "type": "address"
        }
      ],
      "name": "OwnershipTransferred",
      "type": "event"
    },
    {
      "anonymous": false,
      "inputs": [
        {
          "indexed": true,
          "internalType": "address",
          "name": "recieptor",
          "type": "address"
        },
        {
          "indexed": true,
          "internalType": "address",
          "name": "settlement",
          "type": "address"
        },
        {
          "indexed": false,
          "internalType": "uint256",
          "name": "payback",
          "type": "uint256"
        }
      ],
      "name": "RedeemFee",
      "type": "event"
    },
    {
      "anonymous": false,
      "inputs": [
        {
          "indexed": true,
          "internalType": "address",
          "name": "recieptor",
          "type": "address"
        },
        {
          "indexed": true,
          "internalType": "address",
          "name": "settlement",
          "type": "address"
        },
        {
          "indexed": false,
          "internalType": "uint256",
          "name": "payback",
          "type": "uint256"
        }
      ],
      "name": "TransferPayback",
      "type": "event"
    },
    {
      "payable": true,
      "stateMutability": "payable",
      "type": "fallback"
    },
    {
      "constant": false,
      "inputs": [
        {
          "internalType": "address",
          "name": "addAddress",
          "type": "address"
        }
      ],
      "name": "addOperator",
      "outputs": [],
      "payable": false,
      "stateMutability": "nonpayable",
      "type": "function"
    },
    {
      "constant": false,
      "inputs": [
        {
          "internalType": "address",
          "name": "addAddress",
          "type": "address"
        }
      ],
      "name": "addWhiteList",
      "outputs": [],
      "payable": false,
      "stateMutability": "nonpayable",
      "type": "function"
    },
    {
      "constant": true,
      "inputs": [
        {
          "internalType": "uint256",
          "name": "feeType",
          "type": "uint256"
        },
        {
          "internalType": "uint256",
          "name": "amount",
          "type": "uint256"
        }
      ],
      "name": "calculateFee",
      "outputs": [
        {
          "internalType": "uint256",
          "name": "",
          "type": "uint256"
        }
      ],
      "payable": false,
      "stateMutability": "view",
      "type": "function"
    },
    {
      "constant": true,
      "inputs": [
        {
          "internalType": "address",
          "name": "tmpAddress",
          "type": "address"
        },
        {
          "internalType": "uint256",
          "name": "state",
          "type": "uint256"
        }
      ],
      "name": "checkAddressPermission",
      "outputs": [
        {
          "internalType": "bool",
          "name": "",
          "type": "bool"
        }
      ],
      "payable": false,
      "stateMutability": "view",
      "type": "function"
    },
    {
      "constant": true,
      "inputs": [],
      "name": "getAllFeeBalances",
      "outputs": [
        {
          "internalType": "address[]",
          "name": "",
          "type": "address[]"
        },
        {
          "internalType": "uint256[]",
          "name": "",
          "type": "uint256[]"
        }
      ],
      "payable": false,
      "stateMutability": "view",
      "type": "function"
    },
    {
      "constant": true,
      "inputs": [
        {
          "internalType": "address",
          "name": "settlement",
          "type": "address"
        }
      ],
      "name": "getFeeBalance",
      "outputs": [
        {
          "internalType": "uint256",
          "name": "",
          "type": "uint256"
        }
      ],
      "payable": false,
      "stateMutability": "view",
      "type": "function"
    },
    {
      "constant": true,
      "inputs": [
        {
          "internalType": "uint256",
          "name": "feeType",
          "type": "uint256"
        }
      ],
      "name": "getFeeRate",
      "outputs": [
        {
          "internalType": "uint256",
          "name": "",
          "type": "uint256"
        },
        {
          "internalType": "uint256",
          "name": "",
          "type": "uint256"
        }
      ],
      "payable": false,
      "stateMutability": "view",
      "type": "function"
    },
    {
      "constant": true,
      "inputs": [],
      "name": "getManager",
      "outputs": [
        {
          "internalType": "address",
          "name": "",
          "type": "address"
        }
      ],
      "payable": false,
      "stateMutability": "view",
      "type": "function"
    },
    {
      "constant": true,
      "inputs": [],
      "name": "getOperator",
      "outputs": [
        {
          "internalType": "address[]",
          "name": "",
          "type": "address[]"
        }
      ],
      "payable": false,
      "stateMutability": "view",
      "type": "function"
    },
    {
      "constant": true,
      "inputs": [],
      "name": "getOptionsPoolAddress",
      "outputs": [
        {
          "internalType": "address",
          "name": "",
          "type": "address"
        }
      ],
      "payable": false,
      "stateMutability": "view",
      "type": "function"
    },
    {
      "constant": true,
      "inputs": [],
      "name": "getWhiteList",
      "outputs": [
        {
          "internalType": "address[]",
          "name": "",
          "type": "address[]"
        }
      ],
      "payable": false,
      "stateMutability": "view",
      "type": "function"
    },
    {
      "constant": true,
      "inputs": [
        {
          "internalType": "address",
          "name": "tmpAddress",
          "type": "address"
        }
      ],
      "name": "isEligibleAddress",
      "outputs": [
        {
          "internalType": "bool",
          "name": "",
          "type": "bool"
        }
      ],
      "payable": false,
      "stateMutability": "view",
      "type": "function"
    },
    {
      "constant": true,
      "inputs": [],
      "name": "isOwner",
      "outputs": [
        {
          "internalType": "bool",
          "name": "",
          "type": "bool"
        }
      ],
      "payable": false,
      "stateMutability": "view",
      "type": "function"
    },
    {
      "constant": false,
      "inputs": [
        {
          "internalType": "address",
          "name": "addAddress",
          "type": "address"
        },
        {
          "internalType": "uint256",
          "name": "permission",
          "type": "uint256"
        }
      ],
      "name": "modifyPermission",
      "outputs": [],
      "payable": false,
      "stateMutability": "nonpayable",
      "type": "function"
    },
    {
      "constant": true,
      "inputs": [],
      "name": "owner",
      "outputs": [
        {
          "internalType": "address",
          "name": "",
          "type": "address"
        }
      ],
      "payable": false,
      "stateMutability": "view",
      "type": "function"
    },
    {
      "constant": false,
      "inputs": [
        {
          "internalType": "address",
          "name": "currency",
          "type": "address"
        }
      ],
      "name": "redeem",
      "outputs": [],
      "payable": false,
      "stateMutability": "nonpayable",
      "type": "function"
    },
    {
      "constant": false,
      "inputs": [],
      "name": "redeemAll",
      "outputs": [],
      "payable": false,
      "stateMutability": "nonpayable",
      "type": "function"
    },
    {
      "constant": false,
      "inputs": [
        {
          "internalType": "address",
          "name": "removeAddress",
          "type": "address"
        }
      ],
      "name": "removeOperator",
      "outputs": [
        {
          "internalType": "bool",
          "name": "",
          "type": "bool"
        }
      ],
      "payable": false,
      "stateMutability": "nonpayable",
      "type": "function"
    },
    {
      "constant": false,
      "inputs": [
        {
          "internalType": "address",
          "name": "removeAddress",
          "type": "address"
        }
      ],
      "name": "removeWhiteList",
      "outputs": [
        {
          "internalType": "bool",
          "name": "",
          "type": "bool"
        }
      ],
      "payable": false,
      "stateMutability": "nonpayable",
      "type": "function"
    },
    {
      "constant": false,
      "inputs": [],
      "name": "renounceOwnership",
      "outputs": [],
      "payable": false,
      "stateMutability": "nonpayable",
      "type": "function"
    },
    {
      "constant": false,
      "inputs": [
        {
          "internalType": "bool",
          "name": "halt",
          "type": "bool"
        }
      ],
      "name": "setHalt",
      "outputs": [],
      "payable": false,
      "stateMutability": "nonpayable",
      "type": "function"
    },
    {
      "constant": false,
      "inputs": [
        {
          "internalType": "address",
          "name": "managerAddress",
          "type": "address"
        }
      ],
      "name": "setManager",
      "outputs": [],
      "payable": false,
      "stateMutability": "nonpayable",
      "type": "function"
    },
    {
      "constant": false,
      "inputs": [
        {
          "internalType": "uint256",
          "name": "index",
          "type": "uint256"
        },
        {
          "internalType": "address",
          "name": "addAddress",
          "type": "address"
        }
      ],
      "name": "setOperator",
      "outputs": [],
      "payable": false,
      "stateMutability": "nonpayable",
      "type": "function"
    },
    {
      "constant": false,
      "inputs": [
        {
          "internalType": "address[]",
          "name": "operators",
          "type": "address[]"
        }
      ],
      "name": "setOperators",
      "outputs": [],
      "payable": false,
      "stateMutability": "nonpayable",
      "type": "function"
    },
    {
      "constant": false,
      "inputs": [
        {
          "internalType": "address",
          "name": "optionsPool",
          "type": "address"
        }
      ],
      "name": "setOptionsPoolAddress",
      "outputs": [],
      "payable": false,
      "stateMutability": "nonpayable",
      "type": "function"
    },
    {
      "constant": false,
      "inputs": [
        {
          "internalType": "uint256",
          "name": "feeType",
          "type": "uint256"
        },
        {
          "internalType": "uint256",
          "name": "numerator",
          "type": "uint256"
        },
        {
          "internalType": "uint256",
          "name": "denominator",
          "type": "uint256"
        }
      ],
      "name": "setTransactionFee",
      "outputs": [],
      "payable": false,
      "stateMutability": "nonpayable",
      "type": "function"
    },
    {
      "constant": false,
      "inputs": [
        {
          "internalType": "address",
          "name": "newOwner",
          "type": "address"
        }
      ],
      "name": "transferOwnership",
      "outputs": [],
      "payable": false,
      "stateMutability": "nonpayable",
      "type": "function"
    },
    {
      "constant": false,
      "inputs": [],
      "name": "initialize",
      "outputs": [],
      "payable": false,
      "stateMutability": "nonpayable",
      "type": "function"
    },
    {
      "constant": false,
      "inputs": [],
      "name": "update",
      "outputs": [],
      "payable": false,
      "stateMutability": "nonpayable",
      "type": "function"
    },
    {
      "constant": false,
      "inputs": [
        {
          "internalType": "address",
          "name": "collateral",
          "type": "address"
        },
        {
          "internalType": "uint256",
          "name": "amount",
          "type": "uint256"
        },
        {
          "internalType": "uint256",
          "name": "feeType",
          "type": "uint256"
        }
      ],
      "name": "addTransactionFee",
      "outputs": [
        {
          "internalType": "uint256",
          "name": "",
          "type": "uint256"
        }
      ],
      "payable": false,
      "stateMutability": "nonpayable",
      "type": "function"
    },
    {
      "constant": true,
      "inputs": [
        {
          "internalType": "address",
          "name": "user",
          "type": "address"
        }
      ],
      "name": "getUserPayingUsd",
      "outputs": [
        {
          "internalType": "uint256",
          "name": "",
          "type": "uint256"
        }
      ],
      "payable": false,
      "stateMutability": "view",
      "type": "function"
    },
    {
      "constant": true,
      "inputs": [
        {
          "internalType": "address",
          "name": "user",
          "type": "address"
        },
        {
          "internalType": "address",
          "name": "collateral",
          "type": "address"
        }
      ],
      "name": "getUserInputCollateral",
      "outputs": [
        {
          "internalType": "uint256",
          "name": "",
          "type": "uint256"
        }
      ],
      "payable": false,
      "stateMutability": "view",
      "type": "function"
    },
    {
      "constant": true,
      "inputs": [
        {
          "internalType": "address",
          "name": "collateral",
          "type": "address"
        }
      ],
      "name": "getCollateralBalance",
      "outputs": [
        {
          "internalType": "uint256",
          "name": "",
          "type": "uint256"
        }
      ],
      "payable": false,
      "stateMutability": "view",
      "type": "function"
    },
    {
      "constant": false,
      "inputs": [
        {
          "internalType": "address",
          "name": "user",
          "type": "address"
        },
        {
          "internalType": "uint256",
          "name": "amount",
          "type": "uint256"
        }
      ],
      "name": "addUserPayingUsd",
      "outputs": [],
      "payable": false,
      "stateMutability": "nonpayable",
      "type": "function"
    },
    {
      "constant": false,
      "inputs": [
        {
          "internalType": "address",
          "name": "user",
          "type": "address"
        },
        {
          "internalType": "address",
          "name": "collateral",
          "type": "address"
        },
        {
          "internalType": "uint256",
          "name": "amount",
          "type": "uint256"
        }
      ],
      "name": "addUserInputCollateral",
      "outputs": [],
      "payable": false,
      "stateMutability": "nonpayable",
      "type": "function"
    },
    {
      "constant": false,
      "inputs": [
        {
          "internalType": "address",
          "name": "collateral",
          "type": "address"
        },
        {
          "internalType": "int256",
          "name": "amount",
          "type": "int256"
        }
      ],
      "name": "addNetWorthBalance",
      "outputs": [],
      "payable": false,
      "stateMutability": "nonpayable",
      "type": "function"
    },
    {
      "constant": false,
      "inputs": [
        {
          "internalType": "address",
          "name": "collateral",
          "type": "address"
        },
        {
          "internalType": "uint256",
          "name": "amount",
          "type": "uint256"
        }
      ],
      "name": "addCollateralBalance",
      "outputs": [],
      "payable": false,
      "stateMutability": "nonpayable",
      "type": "function"
    },
    {
      "constant": false,
      "inputs": [
        {
          "internalType": "address",
          "name": "user",
          "type": "address"
        },
        {
          "internalType": "uint256",
          "name": "amount",
          "type": "uint256"
        }
      ],
      "name": "subUserPayingUsd",
      "outputs": [],
      "payable": false,
      "stateMutability": "nonpayable",
      "type": "function"
    },
    {
      "constant": false,
      "inputs": [
        {
          "internalType": "address",
          "name": "user",
          "type": "address"
        },
        {
          "internalType": "address",
          "name": "collateral",
          "type": "address"
        },
        {
          "internalType": "uint256",
          "name": "amount",
          "type": "uint256"
        }
      ],
      "name": "subUserInputCollateral",
      "outputs": [],
      "payable": false,
      "stateMutability": "nonpayable",
      "type": "function"
    },
    {
      "constant": false,
      "inputs": [
        {
          "internalType": "address",
          "name": "collateral",
          "type": "address"
        },
        {
          "internalType": "int256",
          "name": "amount",
          "type": "int256"
        }
      ],
      "name": "subNetWorthBalance",
      "outputs": [],
      "payable": false,
      "stateMutability": "nonpayable",
      "type": "function"
    },
    {
      "constant": false,
      "inputs": [
        {
          "internalType": "address",
          "name": "collateral",
          "type": "address"
        },
        {
          "internalType": "uint256",
          "name": "amount",
          "type": "uint256"
        }
      ],
      "name": "subCollateralBalance",
      "outputs": [],
      "payable": false,
      "stateMutability": "nonpayable",
      "type": "function"
    },
    {
      "constant": false,
      "inputs": [
        {
          "internalType": "address",
          "name": "user",
          "type": "address"
        },
        {
          "internalType": "uint256",
          "name": "amount",
          "type": "uint256"
        }
      ],
      "name": "setUserPayingUsd",
      "outputs": [],
      "payable": false,
      "stateMutability": "nonpayable",
      "type": "function"
    },
    {
      "constant": false,
      "inputs": [
        {
          "internalType": "address",
          "name": "user",
          "type": "address"
        },
        {
          "internalType": "address",
          "name": "collateral",
          "type": "address"
        },
        {
          "internalType": "uint256",
          "name": "amount",
          "type": "uint256"
        }
      ],
      "name": "setUserInputCollateral",
      "outputs": [],
      "payable": false,
      "stateMutability": "nonpayable",
      "type": "function"
    },
    {
      "constant": false,
      "inputs": [
        {
          "internalType": "address",
          "name": "collateral",
          "type": "address"
        },
        {
          "internalType": "int256",
          "name": "amount",
          "type": "int256"
        }
      ],
      "name": "setNetWorthBalance",
      "outputs": [],
      "payable": false,
      "stateMutability": "nonpayable",
      "type": "function"
    },
    {
      "constant": false,
      "inputs": [
        {
          "internalType": "address",
          "name": "collateral",
          "type": "address"
        },
        {
          "internalType": "uint256",
          "name": "amount",
          "type": "uint256"
        }
      ],
      "name": "setCollateralBalance",
      "outputs": [],
      "payable": false,
      "stateMutability": "nonpayable",
      "type": "function"
    },
    {
      "constant": false,
      "inputs": [
        {
          "internalType": "address payable",
          "name": "recieptor",
          "type": "address"
        },
        {
          "internalType": "address",
          "name": "settlement",
          "type": "address"
        },
        {
          "internalType": "uint256",
          "name": "payback",
          "type": "uint256"
        },
        {
          "internalType": "uint256",
          "name": "feeType",
          "type": "uint256"
        }
      ],
      "name": "transferPaybackAndFee",
      "outputs": [],
      "payable": false,
      "stateMutability": "nonpayable",
      "type": "function"
    },
    {
      "constant": false,
      "inputs": [
        {
          "internalType": "address payable",
          "name": "recieptor",
          "type": "address"
        },
        {
          "internalType": "address",
          "name": "settlement",
          "type": "address"
        },
        {
          "internalType": "uint256",
          "name": "payback",
          "type": "uint256"
        }
      ],
      "name": "transferPayback",
      "outputs": [],
      "payable": false,
      "stateMutability": "nonpayable",
      "type": "function"
    },
    {
      "constant": false,
      "inputs": [
        {
          "internalType": "address payable",
          "name": "account",
          "type": "address"
        },
        {
          "internalType": "uint256",
          "name": "redeemWorth",
          "type": "uint256"
        },
        {
          "internalType": "address[]",
          "name": "tmpWhiteList",
          "type": "address[]"
        },
        {
          "internalType": "uint256[]",
          "name": "colBalances",
          "type": "uint256[]"
        },
        {
          "internalType": "uint256[]",
          "name": "PremiumBalances",
          "type": "uint256[]"
        },
        {
          "internalType": "uint256[]",
          "name": "prices",
          "type": "uint256[]"
        }
      ],
      "name": "transferPaybackBalances",
      "outputs": [],
      "payable": false,
      "stateMutability": "nonpayable",
      "type": "function"
    },
    {
      "constant": true,
      "inputs": [
        {
          "internalType": "address",
          "name": "account",
          "type": "address"
        },
        {
          "internalType": "uint256",
          "name": "userTotalWorth",
          "type": "uint256"
        },
        {
          "internalType": "address[]",
          "name": "tmpWhiteList",
          "type": "address[]"
        },
        {
          "internalType": "uint256[]",
          "name": "_RealBalances",
          "type": "uint256[]"
        },
        {
          "internalType": "uint256[]",
          "name": "prices",
          "type": "uint256[]"
        }
      ],
      "name": "getCollateralAndPremiumBalances",
      "outputs": [
        {
          "internalType": "uint256[]",
          "name": "",
          "type": "uint256[]"
        },
        {
          "internalType": "uint256[]",
          "name": "",
          "type": "uint256[]"
        }
      ],
      "payable": false,
      "stateMutability": "view",
      "type": "function"
    },
    {
      "constant": true,
      "inputs": [
        {
          "internalType": "address",
          "name": "settlement",
          "type": "address"
        }
      ],
      "name": "getRealBalance",
      "outputs": [
        {
          "internalType": "int256",
          "name": "",
          "type": "int256"
        }
      ],
      "payable": false,
      "stateMutability": "view",
      "type": "function"
    },
    {
      "constant": true,
      "inputs": [
        {
          "internalType": "address",
          "name": "settlement",
          "type": "address"
        }
      ],
      "name": "getNetWorthBalance",
      "outputs": [
        {
          "internalType": "uint256",
          "name": "",
          "type": "uint256"
        }
      ],
      "payable": false,
      "stateMutability": "view",
      "type": "function"
    },
    {
      "constant": false,
      "inputs": [
        {
          "internalType": "address",
          "name": "settlement",
          "type": "address"
        },
        {
          "internalType": "uint256",
          "name": "amount",
          "type": "uint256"
        }
      ],
      "name": "addNetBalance",
      "outputs": [],
      "payable": true,
      "stateMutability": "payable",
      "type": "function"
    },
    {
      "constant": false,
      "inputs": [
        {
          "internalType": "address[]",
          "name": "_whiteList",
          "type": "address[]"
        }
      ],
      "name": "calSharedPayment",
      "outputs": [],
      "payable": false,
      "stateMutability": "nonpayable",
      "type": "function"
    },
    {
      "constant": false,
      "inputs": [
        {
          "internalType": "address[]",
          "name": "_whiteList",
          "type": "address[]"
        },
        {
          "internalType": "int256[]",
          "name": "newNetworth",
          "type": "int256[]"
        },
        {
          "internalType": "int256[]",
          "name": "sharedBalances",
          "type": "int256[]"
        },
        {
          "internalType": "uint256",
          "name": "firstOption",
          "type": "uint256"
        }
      ],
      "name": "setSharedPayment",
      "outputs": [],
      "payable": false,
      "stateMutability": "nonpayable",
      "type": "function"
    }
  ],
  "bytecode": "0x60806040526000805460a060020a60ff02191690553480156200002157600080fd5b5060405162004ba638038062004ba6833981810160405260208110156200004757600080fd5b505160008054600160a060020a0319163317808255604051600160a060020a039190911691907f8be0079c531659141344cd1fd0a4f28419497f9722a3daafe3b4186f6b6457e0908290a3620000a5640100000000620000cb810204565b60058054600160a060020a031916600160a060020a0392909216919091179055620002ff565b620000de64010000000062000153810204565b6200013957604080517f08c379a0000000000000000000000000000000000000000000000000000000008152602060048201819052602482015260008051602062004b86833981519152604482015290519081900360640190fd5b6200015164010000000062003dd56200016482021704565b565b600054600160a060020a0316331490565b6200017764010000000062000153810204565b620001d257604080517f08c379a0000000000000000000000000000000000000000000000000000000008152602060048201819052602482015260008051602062004b86833981519152604482015290519081900360640190fd5b60408051808201825260008082526103e860208084018281526007805460018181018355828752965160029182027fa66cc928b5edb82af9bd49922954155ab7b0942694bea4ce44661d9a8736c6888181019290925593517fa66cc928b5edb82af9bd49922954155ab7b0942694bea4ce44661d9a8736c689948501558851808a018a52603281528086018781528454808b018655858a5291519184028084019290925551908501558851808a018a528781528086018781528454808b018655858a5291519184028084019290925551908501558851808a018a528781528086018781528454808b018655858a5291519184028084019290925551908501558851808a01909952868952938801948552815496870182559452945193909202918201929092559051910155565b614877806200030f6000396000f3fe6080604052600436106103395760003560e060020a9004806395a2251f116101af578063cdefb7ae116100fb578063e7cd4a0411610099578063f2706e9b11610073578063f2706e9b14611446578063f2fde38b1461147f578063f4954387146114b2578063fee80a49146114de57610339565b8063e7cd4a04146113e9578063e7f43c681461141c578063f20568cd1461143157610339565b8063d5009584116100d5578063d5009584146112a8578063d56dbe88146112bd578063ddf71cd514611300578063e7a1c1c0146113b057610339565b8063cdefb7ae14611078578063d0ebdbe714611232578063d2aaef4e1461126557610339565b8063b8446de111610168578063c040725a11610142578063c040725a14610fb8578063c219043b14610fcd578063c3c579cc14611006578063c78f68031461104557610339565b8063b8446de114610e8f578063b89b4c3214610ed2578063bf36b11014610f8257610339565b806395a2251f14610b4d5780639870d7fe14610b805780639994eb1414610bb3578063a2e6204514610bf6578063a2fa92c714610c0b578063ac8a584a14610e5c57610339565b80635ed74bfd116102895780637a3e51d811610227578063817bf86d11610201578063817bf86d14610aa85780638691a8c514610adb5780638da5cb5b14610b075780638f32d59b14610b3857610339565b80637a3e51d8146107f45780637a6a02771461082d5780638129fc1c14610a9357610339565b8063692a76a711610263578063692a76a7146107385780636b6ecea8146107715780636ba170b5146107a4578063715018a6146107df57610339565b80635ed74bfd14610683578063632ba2b5146106c65780636560a9e7146106ff57610339565b80632703ee85116102f657806334e73122116102d057806334e73122146105ae57806342049a72146105de5780634cbf6302146106115780635af107c51461064a57610339565b80632703ee851461052d5780632b2d50c3146105605780632f4350c21461059957610339565b806309a9d76c146103875780630c80d691146103ec5780631a5a3fce146104315780632042e5c21461046457806322f0975f146104ab5780632454047c146104e4575b600354600160a060020a031633146103855760405160e560020a62461bcd0281526004018080602001828103825260268152602001806147466026913960400191505060405180910390fd5b005b34801561039357600080fd5b5061039c611517565b60408051602080825283518183015283519192839290830191858101910280838360005b838110156103d85781810151838201526020016103c0565b505050509050019250505060405180910390f35b3480156103f857600080fd5b5061041f6004803603602081101561040f57600080fd5b5035600160a060020a031661157a565b60408051918252519081900360200190f35b34801561043d57600080fd5b506103856004803603602081101561045457600080fd5b5035600160a060020a0316611643565b34801561047057600080fd5b506104976004803603602081101561048757600080fd5b5035600160a060020a03166116af565b604080519115158252519081900360200190f35b3480156104b757600080fd5b50610385600480360360408110156104ce57600080fd5b50600160a060020a03813516906020013561172b565b3480156104f057600080fd5b506103856004803603608081101561050757600080fd5b50600160a060020a03813581169160208101359091169060408101359060600135611793565b34801561053957600080fd5b5061041f6004803603602081101561055057600080fd5b5035600160a060020a0316611836565b34801561056c57600080fd5b506103856004803603604081101561058357600080fd5b50600160a060020a038135169060200135611851565b3480156105a557600080fd5b506103856118e6565b3480156105ba57600080fd5b5061041f600480360360408110156105d157600080fd5b5080359060200135611972565b3480156105ea57600080fd5b5061041f6004803603602081101561060157600080fd5b5035600160a060020a03166119af565b34801561061d57600080fd5b506104976004803603604081101561063457600080fd5b50600160a060020a0381351690602001356119ca565b34801561065657600080fd5b506103856004803603604081101561066d57600080fd5b50600160a060020a0381351690602001356119eb565b34801561068f57600080fd5b50610385600480360360608110156106a657600080fd5b50600160a060020a03813581169160208101359091169060400135611a53565b3480156106d257600080fd5b50610385600480360360408110156106e957600080fd5b50600160a060020a038135169060200135611acb565b34801561070b57600080fd5b506103856004803603604081101561072257600080fd5b50600160a060020a038135169060200135611b33565b34801561074457600080fd5b506103856004803603604081101561075b57600080fd5b50600160a060020a038135169060200135611bc8565b34801561077d57600080fd5b5061041f6004803603602081101561079457600080fd5b5035600160a060020a0316611c3d565b3480156107b057600080fd5b5061041f600480360360408110156107c757600080fd5b50600160a060020a0381358116916020013516611d1c565b3480156107eb57600080fd5b50610385611d47565b34801561080057600080fd5b506103856004803603604081101561081757600080fd5b50600160a060020a038135169060200135611ddb565b34801561083957600080fd5b506109fa600480360360a081101561085057600080fd5b600160a060020a038235169160208101359181019060608101604082013564010000000081111561088057600080fd5b82018360208201111561089257600080fd5b803590602001918460208302840111640100000000831117156108b457600080fd5b919080806020026020016040519081016040528093929190818152602001838360200280828437600092019190915250929594936020810193503591505064010000000081111561090457600080fd5b82018360208201111561091657600080fd5b8035906020019184602083028401116401000000008311171561093857600080fd5b919080806020026020016040519081016040528093929190818152602001838360200280828437600092019190915250929594936020810193503591505064010000000081111561098857600080fd5b82018360208201111561099a57600080fd5b803590602001918460208302840111640100000000831117156109bc57600080fd5b919080806020026020016040519081016040528093929190818152602001838360200280828437600092019190915250929550611e50945050505050565b604051808060200180602001838103835285818151815260200191508051906020019060200280838360005b83811015610a3e578181015183820152602001610a26565b50505050905001838103825284818151815260200191508051906020019060200280838360005b83811015610a7d578181015183820152602001610a65565b5050505090500194505050505060405180910390f35b348015610a9f57600080fd5b5061038561206d565b348015610ab457600080fd5b5061049760048036036020811015610acb57600080fd5b5035600160a060020a03166120c1565b61038560048036036040811015610af157600080fd5b50600160a060020a038135169060200135612130565b348015610b1357600080fd5b50610b1c61214a565b60408051600160a060020a039092168252519081900360200190f35b348015610b4457600080fd5b50610497612159565b348015610b5957600080fd5b5061038560048036036020811015610b7057600080fd5b5035600160a060020a031661216a565b348015610b8c57600080fd5b5061038560048036036020811015610ba357600080fd5b5035600160a060020a03166124a0565b348015610bbf57600080fd5b5061038560048036036060811015610bd657600080fd5b50600160a060020a038135811691602081013590911690604001356124fb565b348015610c0257600080fd5b50610385612557565b348015610c1757600080fd5b50610385600480360360c0811015610c2e57600080fd5b600160a060020a0382351691602081013591810190606081016040820135640100000000811115610c5e57600080fd5b820183602082011115610c7057600080fd5b80359060200191846020830284011164010000000083111715610c9257600080fd5b9190808060200260200160405190810160405280939291908181526020018383602002808284376000920191909152509295949360208101935035915050640100000000811115610ce257600080fd5b820183602082011115610cf457600080fd5b80359060200191846020830284011164010000000083111715610d1657600080fd5b9190808060200260200160405190810160405280939291908181526020018383602002808284376000920191909152509295949360208101935035915050640100000000811115610d6657600080fd5b820183602082011115610d7857600080fd5b80359060200191846020830284011164010000000083111715610d9a57600080fd5b9190808060200260200160405190810160405280939291908181526020018383602002808284376000920191909152509295949360208101935035915050640100000000811115610dea57600080fd5b820183602082011115610dfc57600080fd5b80359060200191846020830284011164010000000083111715610e1e57600080fd5b9190808060200260200160405190810160405280939291908181526020018383602002808284376000920191909152509295506125a1945050505050565b348015610e6857600080fd5b5061049760048036036020811015610e7f57600080fd5b5035600160a060020a0316612964565b348015610e9b57600080fd5b5061038560048036036060811015610eb257600080fd5b50600160a060020a038135811691602081013590911690604001356129c1565b348015610ede57600080fd5b5061038560048036036020811015610ef557600080fd5b810190602081018135640100000000811115610f1057600080fd5b820183602082011115610f2257600080fd5b80359060200191846020830284011164010000000083111715610f4457600080fd5b919080806020026020016040519081016040528093929190818152602001838360200280828437600092019190915250929550612a74945050505050565b348015610f8e57600080fd5b5061038560048036036060811015610fa557600080fd5b5080359060208101359060400135613128565b348015610fc457600080fd5b50610b1c61318a565b348015610fd957600080fd5b5061038560048036036040811015610ff057600080fd5b50600160a060020a038135169060200135613199565b34801561101257600080fd5b5061041f6004803603606081101561102957600080fd5b50600160a060020a0381351690602081013590604001356131ff565b34801561105157600080fd5b5061041f6004803603602081101561106857600080fd5b5035600160a060020a031661326e565b34801561108457600080fd5b506103856004803603608081101561109b57600080fd5b8101906020810181356401000000008111156110b657600080fd5b8201836020820111156110c857600080fd5b803590602001918460208302840111640100000000831117156110ea57600080fd5b919080806020026020016040519081016040528093929190818152602001838360200280828437600092019190915250929594936020810193503591505064010000000081111561113a57600080fd5b82018360208201111561114c57600080fd5b8035906020019184602083028401116401000000008311171561116e57600080fd5b91908080602002602001604051908101604052809392919081815260200183836020028082843760009201919091525092959493602081019350359150506401000000008111156111be57600080fd5b8201836020820111156111d057600080fd5b803590602001918460208302840111640100000000831117156111f257600080fd5b9190808060200260200160405190810160405280939291908181526020018383602002808284376000920191909152509295505091359250613289915050565b34801561123e57600080fd5b506103856004803603602081101561125557600080fd5b5035600160a060020a0316613420565b34801561127157600080fd5b5061128f6004803603602081101561128857600080fd5b503561348c565b6040805192835260208301919091528051918290030190f35b3480156112b457600080fd5b50610b1c6134ad565b3480156112c957600080fd5b50610385600480360360608110156112e057600080fd5b50600160a060020a038135811691602081013590911690604001356134bc565b34801561130c57600080fd5b506103856004803603602081101561132357600080fd5b81019060208101813564010000000081111561133e57600080fd5b82018360208201111561135057600080fd5b8035906020019184602083028401116401000000008311171561137257600080fd5b91908080602002602001604051908101604052809392919081815260200183836020028082843760009201919091525092955061353e945050505050565b3480156113bc57600080fd5b50610385600480360360408110156113d357600080fd5b5080359060200135600160a060020a031661359b565b3480156113f557600080fd5b506103856004803603602081101561140c57600080fd5b5035600160a060020a0316613625565b34801561142857600080fd5b5061039c6136a0565b34801561143d57600080fd5b506109fa613700565b34801561145257600080fd5b506103856004803603604081101561146957600080fd5b50600160a060020a038135169060200135613804565b34801561148b57600080fd5b50610385600480360360208110156114a257600080fd5b5035600160a060020a0316613899565b3480156114be57600080fd5b50610385600480360360208110156114d557600080fd5b503515156138ec565b3480156114ea57600080fd5b506103856004803603604081101561150157600080fd5b50600160a060020a038135169060200135613976565b6060600180548060200260200160405190810160405280929190818152602001828054801561156f57602002820191906000526020600020905b8154600160a060020a03168152600190910190602001808311611551575b505050505090505b90565b600554604080517f7e1bcb76000000000000000000000000000000000000000000000000000000008152600160a060020a038481166004830152915160009384931691637e1bcb76916024808301926020929190829003018186803b1580156115e257600080fd5b505afa1580156115f6573d6000803e3d6000fd5b505050506040513d602081101561160c57600080fd5b5051600160a060020a03841660009081526008602052604090205490915061163a908263ffffffff6139eb16565b9150505b919050565b61164b612159565b61168d576040805160e560020a62461bcd02815260206004820181905260248201526000805160206147f6833981519152604482015290519081900360640190fd5b60058054600160a060020a031916600160a060020a0392909216919091179055565b60006116b9612159565b6116fb576040805160e560020a62461bcd02815260206004820181905260248201526000805160206147f6833981519152604482015290519081900360640190fd5b600160a060020a03821660009081526002602052604081205561172560018363ffffffff613a4c16565b92915050565b600354600160a060020a031633146117775760405160e560020a62461bcd0281526004018080602001828103825260268152602001806147466026913960400191505060405180910390fd5b600160a060020a03909116600090815260086020526040902055565b600354600160a060020a031633146117df5760405160e560020a62461bcd0281526004018080602001828103825260268152602001806147466026913960400191505060405180910390fd5b6117eb84848484613b3a565b600160a060020a038316600090815260086020526040902054611814908363ffffffff613b6f16565b600160a060020a03909316600090815260086020526040902092909255505050565b600160a060020a031660009081526009602052604090205490565b600354600160a060020a0316331461189d5760405160e560020a62461bcd0281526004018080602001828103825260268152602001806147466026913960400191505060405180910390fd5b600160a060020a0382166000908152600960205260409020546118c6908263ffffffff613bba16565b600160a060020a0390921660009081526009602052604090209190915550565b6118ee612159565b611930576040805160e560020a62461bcd02815260206004820181905260248201526000805160206147f6833981519152604482015290519081900360640190fd5b60005b60015481101561196f576119676001828154811061194d57fe5b600091825260209091200154600160a060020a031661216a565b600101611933565b50565b60008061197e84613c15565b8054909150600090611996908563ffffffff613c9316565b9050816001015481816119a557fe5b0495945050505050565b600160a060020a03166000908152600a602052604090205490565b600160a060020a039190911660009081526002602052604090205481161490565b600354600160a060020a03163314611a375760405160e560020a62461bcd0281526004018080602001828103825260268152602001806147466026913960400191505060405180910390fd5b600160a060020a039091166000908152600a6020526040902055565b600354600160a060020a03163314611a9f5760405160e560020a62461bcd0281526004018080602001828103825260268152602001806147466026913960400191505060405180910390fd5b600160a060020a039283166000908152600b602090815260408083209490951682529290925291902055565b600354600160a060020a03163314611b175760405160e560020a62461bcd0281526004018080602001828103825260268152602001806147466026913960400191505060405180910390fd5b600160a060020a03909116600090815260096020526040902055565b600354600160a060020a03163314611b7f5760405160e560020a62461bcd0281526004018080602001828103825260268152602001806147466026913960400191505060405180910390fd5b600160a060020a0382166000908152600a6020526040902054611ba8908263ffffffff613cec16565b600160a060020a039092166000908152600a602052604090209190915550565b600354600160a060020a03163314611c145760405160e560020a62461bcd0281526004018080602001828103825260268152602001806147466026913960400191505060405180910390fd5b600160a060020a0382166000908152600a6020526040902054611ba8908263ffffffff613bba16565b600554604080517f7e1bcb76000000000000000000000000000000000000000000000000000000008152600160a060020a038481166004830152915160009384931691637e1bcb76916024808301926020929190829003018186803b158015611ca557600080fd5b505afa158015611cb9573d6000803e3d6000fd5b505050506040513d6020811015611ccf57600080fd5b5051600160a060020a03841660009081526008602052604081205491925090611cfe908363ffffffff6139eb16565b90506000811315611d1257915061163e9050565b5060009392505050565b600160a060020a039182166000908152600b6020908152604080832093909416825291909152205490565b611d4f612159565b611d91576040805160e560020a62461bcd02815260206004820181905260248201526000805160206147f6833981519152604482015290519081900360640190fd5b60008054604051600160a060020a03909116907f8be0079c531659141344cd1fd0a4f28419497f9722a3daafe3b4186f6b6457e0908390a360008054600160a060020a0319169055565b600354600160a060020a03163314611e275760405160e560020a62461bcd0281526004018080602001828103825260268152602001806147466026913960400191505060405180910390fd5b600160a060020a0382166000908152600960205260409020546118c6908263ffffffff613cec16565b60608060608551604051908082528060200260200182016040528015611e80578160200160208202803883390190505b50905060608651604051908082528060200260200182016040528015611eb0578160200160208202803883390190505b509050600080805b8951811015611fa457611ef28a8281518110611ed057fe5b60200260200101518d8b8481518110611ee557fe5b6020026020010151613d47565b868381518110611efe57fe5b60200260200101868481518110611f1157fe5b6020026020010182815250828152505050611f5d858281518110611f3157fe5b6020026020010151898381518110611f4557fe5b60200260200101510284613bba90919063ffffffff16565b9250611f9a848281518110611f6e57fe5b6020026020010151898381518110611f8257fe5b60200260200101510283613bba90919063ffffffff16565b9150600101611eb8565b8a831061200b575060005b89518110156120065782611fdf8c878481518110611fc957fe5b6020026020010151613c9390919063ffffffff16565b81611fe657fe5b04858281518110611ff357fe5b6020908102919091010152600101611faf565b61205b565b811561205b5750988190039860005b895181101561205b57816120348c868481518110611fc957fe5b8161203b57fe5b0484828151811061204857fe5b602090810291909101015260010161201a565b50929a91995090975050505050505050565b612075612159565b6120b7576040805160e560020a62461bcd02815260206004820181905260248201526000805160206147f6833981519152604482015290519081900360640190fd5b6120bf613dd5565b565b600061172582600180548060200260200160405190810160405280929190818152602001828054801561211d57602002820191906000526020600020905b8154600160a060020a031681526001909101906020018083116120ff575b5050505050613f4c90919063ffffffff16565b61213a8282613f9b565b90506121468282613976565b5050565b600054600160a060020a031690565b600054600160a060020a0316331490565b612172612159565b6121b4576040805160e560020a62461bcd02815260206004820181905260248201526000805160206147f6833981519152604482015290519081900360640190fd5b600160a060020a03811660009081526006602052604090205480612222576040805160e560020a62461bcd02815260206004820152601260248201527f4974277320656d7074792062616c616e63650000000000000000000000000000604482015290519081900360640190fd5b600160a060020a03821660008181526006602052604081205561227257604051339082156108fc029083906000818181858888f1935050505015801561226c573d6000803e3d6000fd5b5061245c565b6040805160e060020a6370a0823102815230600482015290518391600091600160a060020a038416916370a08231916024808301926020929190829003018186803b1580156122c057600080fd5b505afa1580156122d4573d6000803e3d6000fd5b505050506040513d60208110156122ea57600080fd5b5051604080517fa9059cbb000000000000000000000000000000000000000000000000000000008152336004820152602481018690529051919250600160a060020a0384169163a9059cbb916044808201926020929091908290030181600087803b15801561235857600080fd5b505af115801561236c573d6000803e3d6000fd5b505050506040513d602081101561238257600080fd5b50506040805160e060020a6370a082310281523060048201529051600091600160a060020a038516916370a0823191602480820192602092909190829003018186803b1580156123d157600080fd5b505afa1580156123e5573d6000803e3d6000fd5b505050506040513d60208110156123fb57600080fd5b505190508082038414612458576040805160e560020a62461bcd02815260206004820181905260248201527f736574746c656d656e7420746f6b656e207472616e73666572206572726f7221604482015290519081900360640190fd5b5050505b604080518281529051600160a060020a0384169133917f22640d1152d9f3e8baad430cd8adc8af3fac753485821cdfd0261ed53964ba289181900360200190a35050565b6124a8612159565b6124ea576040805160e560020a62461bcd02815260206004820181905260248201526000805160206147f6833981519152604482015290519081900360640190fd5b61196f60048263ffffffff6141af16565b600354600160a060020a031633146125475760405160e560020a62461bcd0281526004018080602001828103825260268152602001806147466026913960400191505060405180910390fd5b612552838383614247565b505050565b61255f612159565b6120bf576040805160e560020a62461bcd02815260206004820181905260248201526000805160206147f6833981519152604482015290519081900360640190fd5b600354600160a060020a031633146125ed5760405160e560020a62461bcd0281526004018080602001828103825260268152602001806147466026913960400191505060405180910390fd5b835160408051828152602080840282010190915260609082801561261b578160200160208202803883390190505b50905060005b82811080156126305750600088115b1561280657600086828151811061264357fe5b602002602001015111156127fe57600084828151811061265f57fe5b6020026020010151898161266f57fe5b04905086828151811061267e57fe5b602002602001015181101561269657600098506126da565b8682815181106126a257fe5b602002602001015190508482815181106126b857fe5b60200260200101518783815181106126cc57fe5b602002602001015102890398505b600160a060020a038a166000908152600b60205260408120895161273e928492918c908790811061270757fe5b6020026020010151600160a060020a0316600160a060020a0316815260200190815260200160002054613cec90919063ffffffff16565b600160a060020a038b166000908152600b602052604081208a519091908b908690811061276757fe5b6020026020010151600160a060020a0316600160a060020a03168152602001908152602001600020819055506127a781600960008b868151811061270757fe5b600960008a85815181106127b757fe5b6020026020010151600160a060020a0316600160a060020a0316815260200190815260200160002081905550808383815181106127f057fe5b602002602001018181525050505b600101612621565b871561291257506000805b838210156128615761285485838151811061282857fe5b602002602001015187848151811061283c57fe5b60200260200101510282613bba90919063ffffffff16565b6001909201919050612811565b888110156128a35760405160e560020a62461bcd0281526004018080602001828103825260218152602001806147b46021913960400191505060405180910390fd5b600091505b83821015612910576128ee816128c48b898681518110611fc957fe5b816128cb57fe5b048484815181106128d857fe5b6020026020010151613bba90919063ffffffff16565b8383815181106128fa57fe5b60209081029190910101526001909101906128a8565b505b5060005b82811015612959576129518988838151811061292e57fe5b602002602001015184848151811061294257fe5b60200260200101516004611793565b600101612916565b505050505050505050565b600061296e612159565b6129b0576040805160e560020a62461bcd02815260206004820181905260248201526000805160206147f6833981519152604482015290519081900360640190fd5b61172560048363ffffffff613a4c16565b600354600160a060020a03163314612a0d5760405160e560020a62461bcd0281526004018080602001828103825260268152602001806147466026913960400191505060405180910390fd5b600160a060020a038084166000908152600b6020908152604080832093861683529290522054612a43908263ffffffff613cec16565b600160a060020a039384166000908152600b6020908152604080832095909616825293909352929091209190915550565b60045460009015801590612ab1575033600160a060020a031660048281548110612a9a57fe5b600091825260209091200154600160a060020a0316145b612aef5760405160e560020a62461bcd02815260040180806020018281038252602d815260200180614816602d913960400191505060405180910390fd5b6005546040517f6a43c05e000000000000000000000000000000000000000000000000000000008152602060048201818152855160248401528551600094606094600160a060020a0390911693636a43c05e9389939092839260449091019181860191028083838c5b83811015612b70578181015183820152602001612b58565b505050509050019250505060006040518083038186803b158015612b9357600080fd5b505afa158015612ba7573d6000803e3d6000fd5b505050506040513d6000823e601f3d908101601f191682016040908152811015612bd057600080fd5b815160208301805160405192949293830192919084640100000000821115612bf757600080fd5b908301906020820185811115612c0c57600080fd5b8251866020820283011164010000000082111715612c2957600080fd5b82525081516020918201928201910280838360005b83811015612c56578181015183820152602001612c3e565b50505050905001604052505050915091506000600560009054906101000a9004600160a060020a0316600160a060020a031663bec3107f6040518163ffffffff1660e060020a02815260040160206040518083038186803b158015612cba57600080fd5b505afa158015612cce573d6000803e3d6000fd5b505050506040513d6020811015612ce457600080fd5b810190808051906020019092919050505090506060806000600560009054906101000a9004600160a060020a0316600160a060020a03166332ab5c208588878c6040518563ffffffff1660e060020a0281526004018085815260200184815260200183815260200180602001828103825283818151815260200191508051906020019060200280838360005b83811015612d88578181015183820152602001612d70565b505050509050019550505050505060006040518083038186803b158015612dae57600080fd5b505afa158015612dc2573d6000803e3d6000fd5b505050506040513d6000823e601f3d908101601f191682016040526060811015612deb57600080fd5b8101908080516040519392919084640100000000821115612e0b57600080fd5b908301906020820185811115612e2057600080fd5b8251866020820283011164010000000082111715612e3d57600080fd5b82525081516020918201928201910280838360005b83811015612e6a578181015183820152602001612e52565b5050505090500160405260200180516040519392919084640100000000821115612e9357600080fd5b908301906020820185811115612ea857600080fd5b8251866020820283011164010000000082111715612ec557600080fd5b82525081516020918201928201910280838360005b83811015612ef2578181015183820152602001612eda565b50505050905001604052602001805190602001909291905050509250925092506060600560009054906101000a9004600160a060020a0316600160a060020a03166343674c3a8684888d6040518563ffffffff1660e060020a0281526004018085815260200184815260200183815260200180602001828103825283818151815260200191508051906020019060200280838360005b83811015612fa0578181015183820152602001612f88565b505050509050019550505050505060006040518083038186803b158015612fc657600080fd5b505afa158015612fda573d6000803e3d6000fd5b505050506040513d6000823e601f3d908101601f19168201604052602081101561300357600080fd5b810190808051604051939291908464010000000082111561302357600080fd5b90830190602082018581111561303857600080fd5b825186602082028301116401000000008211171561305557600080fd5b82525081516020918201928201910280838360005b8381101561308257818101518382015260200161306a565b50505050905001604052505050905060008090505b815181101561311b576130fc8282815181106130af57fe5b60200260200101516130f08984815181106130c657fe5b60200260200101518785815181106130da57fe5b6020026020010151613b6f90919063ffffffff16565b9063ffffffff6139eb16565b82828151811061310857fe5b6020908102919091010152600101613097565b5061295989858385613289565b613130612159565b613172576040805160e560020a62461bcd02815260206004820181905260248201526000805160206147f6833981519152604482015290519081900360640190fd5b600061317d84613c15565b9283555060019091015550565b600554600160a060020a031690565b6131a1612159565b6131e3576040805160e560020a62461bcd02815260206004820181905260248201526000805160206147f6833981519152604482015290519081900360640190fd5b600160a060020a03909116600090815260026020526040902055565b600354600090600160a060020a0316331461324e5760405160e560020a62461bcd0281526004018080602001828103825260268152602001806147466026913960400191505060405180910390fd5b600061325a8385611972565b905061326685826144d8565b949350505050565b600160a060020a031660009081526006602052604090205490565b600454600090158015906132c6575033600160a060020a0316600482815481106132af57fe5b600091825260209091200154600160a060020a0316145b6133045760405160e560020a62461bcd02815260040180806020018281038252602d815260200180614816602d913960400191505060405180910390fd5b6005546040517f2415e01000000000000000000000000000000000000000000000000000000000815260048101848152606060248301908152865160648401528651600160a060020a0390941693632415e01093879389938c93919290916044820191608401906020808801910280838360005b83811015613390578181015183820152602001613378565b50505050905001838103825284818151815260200191508051906020019060200280838360005b838110156133cf5781810151838201526020016133b7565b5050505090500195505050505050600060405180830381600087803b1580156133f757600080fd5b505af115801561340b573d6000803e3d6000fd5b505050506134198585614535565b5050505050565b613428612159565b61346a576040805160e560020a62461bcd02815260206004820181905260248201526000805160206147f6833981519152604482015290519081900360640190fd5b60038054600160a060020a031916600160a060020a0392909216919091179055565b600080600061349a84613c15565b8054600190910154909350915050915091565b600354600160a060020a031690565b600354600160a060020a031633146135085760405160e560020a62461bcd0281526004018080602001828103825260268152602001806147466026913960400191505060405180910390fd5b600160a060020a038084166000908152600b6020908152604080832093861683529290522054612a43908263ffffffff613bba16565b613546612159565b613588576040805160e560020a62461bcd02815260206004820181905260248201526000805160206147f6833981519152604482015290519081900360640190fd5b805161214690600490602084019061467e565b6135a3612159565b6135e5576040805160e560020a62461bcd02815260206004820181905260248201526000805160206147f6833981519152604482015290519081900360640190fd5b80600483815481106135f357fe5b9060005260206000200160006101000a815481600160a060020a030219169083600160a060020a031602179055505050565b61362d612159565b61366f576040805160e560020a62461bcd02815260206004820181905260248201526000805160206147f6833981519152604482015290519081900360640190fd5b61368060018263ffffffff6141af16565b600160a060020a0316600090815260026020526040902063ffffffff9055565b6060600480548060200260200160405190810160405280929190818152602001828054801561156f57602002820191906000526020600020908154600160a060020a03168152600190910190602001808311611551575050505050905090565b6060806060600180549050604051908082528060200260200182016040528015613734578160200160208202803883390190505b50905060005b60015481101561379b57600660006001838154811061375557fe5b6000918252602080832090910154600160a060020a03168352820192909252604001902054825183908390811061378857fe5b602090810291909101015260010161373a565b50600181818054806020026020016040519081016040528092919081815260200182805480156137f457602002820191906000526020600020905b8154600160a060020a031681526001909101906020018083116137d6575b5050505050915092509250509091565b600354600160a060020a031633146138505760405160e560020a62461bcd0281526004018080602001828103825260268152602001806147466026913960400191505060405180910390fd5b600160a060020a038216600090815260086020526040902054613879908263ffffffff613b6f16565b600160a060020a0390921660009081526008602052604090209190915550565b6138a1612159565b6138e3576040805160e560020a62461bcd02815260206004820181905260248201526000805160206147f6833981519152604482015290519081900360640190fd5b61196f816145db565b6138f4612159565b613936576040805160e560020a62461bcd02815260206004820181905260248201526000805160206147f6833981519152604482015290519081900360640190fd5b60008054911515740100000000000000000000000000000000000000000274ff000000000000000000000000000000000000000019909216919091179055565b600354600160a060020a031633146139c25760405160e560020a62461bcd0281526004018080602001828103825260268152602001806147466026913960400191505060405180910390fd5b600160a060020a038216600090815260086020526040902054613879908263ffffffff6139eb16565b81810182811215600083121514611725576040805160e560020a62461bcd02815260206004820152601d60248201527f53616665496e743235363a206164646974696f6e206f766572666c6f77000000604482015290519081900360640190fd5b8154600090815b81811015613a995783600160a060020a0316858281548110613a7157fe5b600091825260209091200154600160a060020a03161415613a9157613a99565b600101613a53565b81811015613b2f57600182038114613b1357846001830381548110613aba57fe5b9060005260206000200160009054906101000a9004600160a060020a0316858281548110613ae457fe5b9060005260206000200160006101000a815481600160a060020a030219169083600160a060020a031602179055505b8454613b238660001983016146e3565b50600192505050611725565b506000949350505050565b81613b4457613b69565b6000613b508284611972565b9050613b5f8585838603614247565b61341984826144d8565b50505050565b808203828113156000831215146117255760405160e560020a62461bcd0281526004018080602001828103825260228152602001806147926022913960400191505060405180910390fd5b80820182811015611725576040805160e560020a62461bcd02815260206004820152601b60248201527f536166654d6174683a206164646974696f6e206f766572666c6f770000000000604482015290519081900360640190fd5b6007546000908210613c71576040805160e560020a62461bcd02815260206004820152601460248201527f666565207479706520697320696e76616c696421000000000000000000000000604482015290519081900360640190fd5b60078281548110613c7e57fe5b90600052602060002090600202019050919050565b6000811580613cae57505080820282828281613cab57fe5b04145b6117255760405160e560020a62461bcd0281526004018080602001828103825260218152602001806147d56021913960400191505060405180910390fd5b80820382811115611725576040805160e560020a62461bcd02815260206004820181905260248201527f536166654d6174683a20737562737472616374696f6e20756e646572666c6f77604482015290519081900360640190fd5b600160a060020a038084166000818152600960209081526040808320549487168352600b825280832093835292905290812054909182918115613dbe57600082613d97878463ffffffff613c9316565b81613d9e57fe5b04905080613db2878263ffffffff613cec16565b94509450505050613dcd565b5060009250839150613dcd9050565b935093915050565b613ddd612159565b613e1f576040805160e560020a62461bcd02815260206004820181905260248201526000805160206147f6833981519152604482015290519081900360640190fd5b60408051808201825260008082526103e860208084018281526007805460018181018355828752965160029182027fa66cc928b5edb82af9bd49922954155ab7b0942694bea4ce44661d9a8736c6888181019290925593517fa66cc928b5edb82af9bd49922954155ab7b0942694bea4ce44661d9a8736c689948501558851808a018a52603281528086018781528454808b018655858a5291519184028084019290925551908501558851808a018a528781528086018781528454808b018655858a5291519184028084019290925551908501558851808a018a528781528086018781528454808b018655858a5291519184028084019290925551908501558851808a01909952868952938801948552815496870182559452945193909202918201929092559051910155565b8151600090815b81811015613b2f5783600160a060020a0316858281518110613f7157fe5b6020026020010151600160a060020a03161415613f9357600192505050611725565b600101613f53565b6000600160a060020a038316613fb3573491506141a9565b81156141a9576040805160e060020a6370a0823102815230600482015290518491600091600160a060020a038416916370a08231916024808301926020929190829003018186803b15801561400757600080fd5b505afa15801561401b573d6000803e3d6000fd5b505050506040513d602081101561403157600080fd5b5051604080517f23b872dd000000000000000000000000000000000000000000000000000000008152336004820152306024820152604481018790529051919250600160a060020a038416916323b872dd916064808201926020929091908290030181600087803b1580156140a557600080fd5b505af11580156140b9573d6000803e3d6000fd5b505050506040513d60208110156140cf57600080fd5b50506040805160e060020a6370a082310281523060048201529051600091600160a060020a038516916370a0823191602480820192602092909190829003018186803b15801561411e57600080fd5b505afa158015614132573d6000803e3d6000fd5b505050506040513d602081101561414857600080fd5b5051905081810385146141a5576040805160e560020a62461bcd02815260206004820181905260248201527f736574746c656d656e7420746f6b656e207472616e73666572206572726f7221604482015290519081900360640190fd5b5050505b50919050565b6142128280548060200260200160405190810160405280929190818152602001828054801561420757602002820191906000526020600020905b8154600160a060020a031681526001909101906020018083116141e9575b505050505082613f4c565b612146578154600181018355600083815260209020018054600160a060020a038316600160a060020a03199091161790555050565b8061425157612552565b600160a060020a03821661429b57604051600160a060020a0384169082156108fc029083906000818181858888f19350505050158015614295573d6000803e3d6000fd5b50614488565b6040805160e060020a6370a0823102815230600482015290518391600091600160a060020a038416916370a08231916024808301926020929190829003018186803b1580156142e957600080fd5b505afa1580156142fd573d6000803e3d6000fd5b505050506040513d602081101561431357600080fd5b5051604080517fa9059cbb000000000000000000000000000000000000000000000000000000008152600160a060020a0388811660048301526024820187905291519293509084169163a9059cbb916044808201926020929091908290030181600087803b15801561438457600080fd5b505af1158015614398573d6000803e3d6000fd5b505050506040513d60208110156143ae57600080fd5b50506040805160e060020a6370a082310281523060048201529051600091600160a060020a038516916370a0823191602480820192602092909190829003018186803b1580156143fd57600080fd5b505afa158015614411573d6000803e3d6000fd5b505050506040513d602081101561442757600080fd5b505190508082038414614484576040805160e560020a62461bcd02815260206004820181905260248201527f736574746c656d656e7420746f6b656e207472616e73666572206572726f7221604482015290519081900360640190fd5b5050505b81600160a060020a031683600160a060020a03167f8aaaec2388cc390cde69685f78340e15f36d424b6b6b595f549dd883931f9c9b836040518082815260200191505060405180910390a3505050565b801561214657600160a060020a038216600081815260066020908152604091829020805485019055815184815291517f1104eee7f034069140a0655d153038cedf9e65e5724018c555a8d56cfb6bee779281900390910190a25050565b60005b81518110156125525761459f82828151811061455057fe5b60200260200101516008600086858151811061456857fe5b6020026020010151600160a060020a0316600160a060020a03168152602001908152602001600020546139eb90919063ffffffff16565b600860008584815181106145af57fe5b602090810291909101810151600160a060020a0316825281019190915260400160002055600101614538565b600160a060020a0381166146235760405160e560020a62461bcd02815260040180806020018281038252602681526020018061476c6026913960400191505060405180910390fd5b60008054604051600160a060020a03808516939216917f8be0079c531659141344cd1fd0a4f28419497f9722a3daafe3b4186f6b6457e091a360008054600160a060020a031916600160a060020a0392909216919091179055565b8280548282559060005260206000209081019282156146d3579160200282015b828111156146d35782518254600160a060020a031916600160a060020a0390911617825560209092019160019091019061469e565b506146df929150614707565b5090565b8154818355818111156125525760008381526020902061255291810190830161472b565b61157791905b808211156146df578054600160a060020a031916815560010161470d565b61157791905b808211156146df576000815560010161473156fe4d616e6167657261626c653a2063616c6c6572206973206e6f7420746865204d616e616765724f776e61626c653a206e6577206f776e657220697320746865207a65726f206164647265737353616665496e743235363a20737562737472616374696f6e20756e646572666c6f7772656465656d20636f6c6c61746572616c20697320696e73756666696369656e74536166654d6174683a206d756c7469706c69636174696f6e206f766572666c6f774f776e61626c653a2063616c6c6572206973206e6f7420746865206f776e65724f70657261746f723a2063616c6c6572206973206e6f742074686520656c696769626c65204f70657261746f72a265627a7a723158202523058668e0a098eb828b1fedfeb129ebc2e4c905161c267b09c0158da1ed6764736f6c634300051000324f776e61626c653a2063616c6c6572206973206e6f7420746865206f776e6572",
  "source": "pragma solidity =0.5.16;\r\n\r\nimport \"../modules/SafeInt256.sol\";\r\nimport \"./TransactionFee.sol\";\r\n/**\r\n * @title collateral pool contract with coin and necessary storage data.\r\n * @dev A smart-contract which stores user's deposited collateral.\r\n *\r\n */\r\ncontract CollateralPool is TransactionFee{\r\n    using SafeMath for uint256;\r\n    using SafeInt256 for int256;\r\n    constructor(address optionsPool)public{\r\n        _optionsPool = IOptionsPool(optionsPool);\r\n    }\r\n    /**\r\n     * @dev Transfer colleteral from manager contract to this contract.\r\n     *  Only manager contract can invoke this function.\r\n     */\r\n    function () external payable onlyManager{\r\n\r\n    }\r\n    function initialize() onlyOwner public {\r\n        TransactionFee.initialize();\r\n    }\r\n    function update() onlyOwner public{\r\n    }\r\n    /**\r\n     * @dev An interface for add transaction fee.\r\n     *  Only manager contract can invoke this function.\r\n     * @param collateral collateral address, also is the coin for fee.\r\n     * @param amount total transaction amount.\r\n     * @param feeType transaction fee type. see TransactionFee contract\r\n     */\r\n    function addTransactionFee(address collateral,uint256 amount,uint256 feeType)public onlyManager returns (uint256) {\r\n        uint256 fee = calculateFee(feeType,amount);\r\n        _addTransactionFee(collateral,fee);\r\n        return fee;\r\n    }\r\n    /**\r\n     * @dev Retrieve user's cost of collateral, priced in USD.\r\n     * @param user input retrieved account \r\n     */\r\n    function getUserPayingUsd(address user)public view returns (uint256){\r\n        return userCollateralPaying[user];\r\n    }\r\n    /**\r\n     * @dev Retrieve user's amount of the specified collateral.\r\n     * @param user input retrieved account \r\n     * @param collateral input retrieved collateral coin address \r\n     */\r\n    function getUserInputCollateral(address user,address collateral)public view returns (uint256){\r\n        return userInputCollateral[user][collateral];\r\n    }\r\n\r\n    /**\r\n     * @dev Retrieve collateral balance data.\r\n     * @param collateral input retrieved collateral coin address \r\n     */\r\n    function getCollateralBalance(address collateral)public view returns (uint256){\r\n        return collateralBalances[collateral];\r\n    }\r\n    /**\r\n     * @dev Opterator user paying data, priced in USD. Only manager contract can modify database.\r\n     * @param user input user account which need add paying amount.\r\n     * @param amount the input paying amount.\r\n     */\r\n    function addUserPayingUsd(address user,uint256 amount)public onlyManager{\r\n        userCollateralPaying[user] = userCollateralPaying[user].add(amount);\r\n    }\r\n    /**\r\n     * @dev Opterator user input collateral data. Only manager contract can modify database.\r\n     * @param user input user account which need add input collateral.\r\n     * @param collateral the collateral address.\r\n     * @param amount the input collateral amount.\r\n     */\r\n    function addUserInputCollateral(address user,address collateral,uint256 amount)public onlyManager{\r\n        userInputCollateral[user][collateral] = userInputCollateral[user][collateral].add(amount);\r\n    }\r\n    /**\r\n     * @dev Opterator net worth balance data. Only manager contract can modify database.\r\n     * @param whiteList available colleteral address list.\r\n     * @param newNetworth collateral net worth list.\r\n     */\r\n    function addNetWorthBalances(address[] memory whiteList,int256[] memory newNetworth)internal{\r\n        for (uint i=0;i<newNetworth.length;i++){\r\n            netWorthBalances[whiteList[i]] = netWorthBalances[whiteList[i]].add(newNetworth[i]);\r\n        }\r\n    }\r\n    /**\r\n     * @dev Opterator net worth balance data. Only manager contract can modify database.\r\n     * @param collateral available colleteral address.\r\n     * @param amount collateral net worth increase amount.\r\n     */\r\n    function addNetWorthBalance(address collateral,int256 amount)public onlyManager{\r\n        netWorthBalances[collateral] = netWorthBalances[collateral].add(amount);\r\n    }\r\n    /**\r\n     * @dev Opterator collateral balance data. Only manager contract can modify database.\r\n     * @param collateral available colleteral address.\r\n     * @param amount collateral colleteral increase amount.\r\n     */\r\n    function addCollateralBalance(address collateral,uint256 amount)public onlyManager{\r\n        collateralBalances[collateral] = collateralBalances[collateral].add(amount);\r\n    }\r\n    /**\r\n     * @dev Substract user paying data,priced in USD. Only manager contract can modify database.\r\n     * @param user user's account.\r\n     * @param amount user's decrease amount.\r\n     */\r\n    function subUserPayingUsd(address user,uint256 amount)public onlyManager{\r\n        userCollateralPaying[user] = userCollateralPaying[user].sub(amount);\r\n    }\r\n    /**\r\n     * @dev Substract user's collateral balance. Only manager contract can modify database.\r\n     * @param user user's account.\r\n     * @param collateral collateral address.\r\n     * @param amount user's decrease amount.\r\n     */\r\n    function subUserInputCollateral(address user,address collateral,uint256 amount)public onlyManager{\r\n        userInputCollateral[user][collateral] = userInputCollateral[user][collateral].sub(amount);\r\n    }\r\n    /**\r\n     * @dev Substract net worth balance. Only manager contract can modify database.\r\n     * @param collateral collateral address.\r\n     * @param amount the decrease amount.\r\n     */\r\n    function subNetWorthBalance(address collateral,int256 amount)public onlyManager{\r\n        netWorthBalances[collateral] = netWorthBalances[collateral].sub(amount);\r\n    }\r\n    /**\r\n     * @dev Substract collateral balance. Only manager contract can modify database.\r\n     * @param collateral collateral address.\r\n     * @param amount the decrease amount.\r\n     */\r\n    function subCollateralBalance(address collateral,uint256 amount)public onlyManager{\r\n        collateralBalances[collateral] = collateralBalances[collateral].sub(amount);\r\n    }\r\n    /**\r\n     * @dev set user paying data,priced in USD. Only manager contract can modify database.\r\n     * @param user user's account.\r\n     * @param amount user's new amount.\r\n     */\r\n    function setUserPayingUsd(address user,uint256 amount)public onlyManager{\r\n        userCollateralPaying[user] = amount;\r\n    }\r\n    /**\r\n     * @dev set user's collateral balance. Only manager contract can modify database.\r\n     * @param user user's account.\r\n     * @param collateral collateral address.\r\n     * @param amount user's new amount.\r\n     */\r\n    function setUserInputCollateral(address user,address collateral,uint256 amount)public onlyManager{\r\n        userInputCollateral[user][collateral] = amount;\r\n    }\r\n    /**\r\n     * @dev set net worth balance. Only manager contract can modify database.\r\n     * @param collateral collateral address.\r\n     * @param amount the new amount.\r\n     */\r\n    function setNetWorthBalance(address collateral,int256 amount)public onlyManager{\r\n        netWorthBalances[collateral] = amount;\r\n    }\r\n    /**\r\n     * @dev set collateral balance. Only manager contract can modify database.\r\n     * @param collateral collateral address.\r\n     * @param amount the new amount.\r\n     */\r\n    function setCollateralBalance(address collateral,uint256 amount)public onlyManager{\r\n        collateralBalances[collateral] = amount;\r\n    }\r\n    /**\r\n     * @dev Operation for transfer user's payback and deduct transaction fee. Only manager contract can invoke this function.\r\n     * @param recieptor the recieptor account.\r\n     * @param settlement the settlement coin address.\r\n     * @param payback the payback amount\r\n     * @param feeType the transaction fee type. see transactionFee contract\r\n     */\r\n    function transferPaybackAndFee(address payable recieptor,address settlement,uint256 payback,\r\n            uint256 feeType)public onlyManager{\r\n        _transferPaybackAndFee(recieptor,settlement,payback,feeType);\r\n        netWorthBalances[settlement] = netWorthBalances[settlement].sub(int256(payback));\r\n    }\r\n    /**\r\n     * @dev Operation for transfer user's payback. Only manager contract can invoke this function.\r\n     * @param recieptor the recieptor account.\r\n     * @param settlement the settlement coin address.\r\n     * @param payback the payback amount\r\n     */\r\n    function transferPayback(address payable recieptor,address settlement,uint256 payback)public onlyManager{\r\n        _transferPayback(recieptor,settlement,payback);\r\n    }\r\n    /**\r\n     * @dev Operation for transfer user's payback and deduct transaction fee for multiple settlement Coin.\r\n     *       Specially used for redeem collateral.Only manager contract can invoke this function.\r\n     * @param account the recieptor account.\r\n     * @param redeemWorth the redeem worth, priced in USD.\r\n     * @param tmpWhiteList the settlement coin white list\r\n     * @param colBalances the Collateral balance based for user's input collateral.\r\n     * @param PremiumBalances the premium collateral balance if redeem worth is exceeded user's input collateral.\r\n     * @param prices the collateral prices list.\r\n     */\r\n    function transferPaybackBalances(address payable account,uint256 redeemWorth,address[] memory tmpWhiteList,uint256[] memory colBalances,\r\n        uint256[] memory PremiumBalances,uint256[] memory prices)public onlyManager {\r\n        uint256 ln = tmpWhiteList.length;\r\n        uint256[] memory PaybackBalances = new uint256[](ln);\r\n        uint256 i=0;\r\n        for(; i<ln && redeemWorth>0;i++){\r\n            //address addr = tmpWhiteList[i];\r\n            if (colBalances[i] > 0){\r\n                uint256 amount = redeemWorth/prices[i];\r\n                if (amount < colBalances[i]){\r\n                    redeemWorth = 0;\r\n                }else{\r\n                    amount = colBalances[i];\r\n                    redeemWorth = redeemWorth - colBalances[i]*prices[i];\r\n                }\r\n                userInputCollateral[account][tmpWhiteList[i]] =userInputCollateral[account][tmpWhiteList[i]].sub(amount);\r\n                collateralBalances[tmpWhiteList[i]] = collateralBalances[tmpWhiteList[i]].sub(amount);\r\n                PaybackBalances[i] = amount;\r\n            }\r\n        }\r\n        if (redeemWorth>0) {\r\n           uint256 totalWorth = 0;\r\n            for (i=0; i<ln;i++){\r\n                totalWorth = totalWorth.add(PremiumBalances[i]*prices[i]);\r\n            }\r\n            require(totalWorth >= redeemWorth ,\"redeem collateral is insufficient\");\r\n            for (i=0; i<ln;i++){\r\n                PaybackBalances[i] = PaybackBalances[i].add(PremiumBalances[i].mul(redeemWorth)/totalWorth);\r\n            }\r\n        }\r\n        for (i=0;i<ln;i++){ \r\n            transferPaybackAndFee(account,tmpWhiteList[i],PaybackBalances[i],redeemColFee);\r\n//            addr = whiteList[i];\r\n//            netWorthBalances[addr] = netWorthBalances[addr].sub(PaybackBalances[i]);\r\n//            _transferPaybackAndFee(msg.sender,addr,PaybackBalances[i],redeemColFee);\r\n        } \r\n    }\r\n    /**\r\n     * @dev calculate user's input collateral balance and premium collateral balance.\r\n     *      Specially used for user's redeem collateral.\r\n     * @param account the recieptor account.\r\n     * @param userTotalWorth the user's total FPTCoin worth, priced in USD.\r\n     * @param tmpWhiteList the settlement coin white list\r\n     * @param _RealBalances the real Collateral balance.\r\n     * @param prices the collateral prices list.\r\n     */\r\n    function getCollateralAndPremiumBalances(address account,uint256 userTotalWorth,address[] memory tmpWhiteList,\r\n        uint256[] memory _RealBalances,uint256[] memory prices) public view returns(uint256[] memory,uint256[] memory){\r\n//        uint256 ln = tmpWhiteList.length;\r\n        uint256[] memory colBalances = new uint256[](tmpWhiteList.length);\r\n        uint256[] memory PremiumBalances = new uint256[](tmpWhiteList.length);\r\n        uint256 totalWorth = 0;\r\n        uint256 PremiumWorth = 0;\r\n        uint256 i=0;\r\n        for(; i<tmpWhiteList.length;i++){\r\n            (colBalances[i],PremiumBalances[i]) = calUserNetWorthBalanceRate(tmpWhiteList[i],account,_RealBalances[i]);\r\n            totalWorth = totalWorth.add(prices[i]*colBalances[i]);\r\n            PremiumWorth = PremiumWorth.add(prices[i]*PremiumBalances[i]);\r\n        }\r\n        if (totalWorth >= userTotalWorth){\r\n            for (i=0; i<tmpWhiteList.length;i++){\r\n                colBalances[i] = colBalances[i].mul(userTotalWorth)/totalWorth;\r\n            }\r\n        }else if (PremiumWorth>0){\r\n            userTotalWorth = userTotalWorth - totalWorth;\r\n            for (i=0; i<tmpWhiteList.length;i++){\r\n                PremiumBalances[i] = PremiumBalances[i].mul(userTotalWorth)/PremiumWorth;\r\n            }\r\n        }\r\n        return (colBalances,PremiumBalances);\r\n    } \r\n    /**\r\n     * @dev calculate user's input collateral balance.\r\n     *      Specially used for user's redeem collateral.\r\n     * @param settlement the settlement coin address.\r\n     * @param user the recieptor account.\r\n     * @param netWorthBalance the settlement coin real balance\r\n     */\r\n    function calUserNetWorthBalanceRate(address settlement,address user,uint256 netWorthBalance)internal view returns(uint256,uint256){\r\n        uint256 collateralBalance = collateralBalances[settlement];\r\n        uint256 amount = userInputCollateral[user][settlement];\r\n        if (collateralBalance > 0){\r\n            uint256 curAmount = netWorthBalance.mul(amount)/collateralBalance;\r\n            return (curAmount,netWorthBalance.sub(curAmount));\r\n        }else{\r\n            return (0,netWorthBalance);\r\n        }\r\n    }\r\n        /**\r\n     * @dev Retrieve the balance of collateral, the auxiliary function for the total collateral calculation. \r\n     */\r\n    function getRealBalance(address settlement)public view returns(int256){\r\n        int256 latestWorth = _optionsPool.getNetWrothLatestWorth(settlement);\r\n        return netWorthBalances[settlement].add(latestWorth);\r\n    }\r\n    function getNetWorthBalance(address settlement)public view returns(uint256){\r\n        int256 latestWorth = _optionsPool.getNetWrothLatestWorth(settlement);\r\n        int256 netWorth = netWorthBalances[settlement].add(latestWorth);\r\n        if (netWorth>0){\r\n            return uint256(netWorth);\r\n        }\r\n        return 0;\r\n    }\r\n        /**\r\n     * @dev  The foundation operator want to add some coin to netbalance, which can increase the FPTCoin net worth.\r\n     * @param settlement the settlement coin address which the foundation operator want to transfer in this contract address.\r\n     * @param amount the amount of the settlement coin which the foundation operator want to transfer in this contract address.\r\n     */\r\n    function addNetBalance(address settlement,uint256 amount) public payable {\r\n        amount = getPayableAmount(settlement,amount);\r\n        addNetWorthBalance(settlement,int256(amount));\r\n//        netWorthBalances[settlement] = netWorthBalances[settlement].add(amount);\r\n    }\r\n        /**\r\n     * @dev the auxiliary function for getting user's transer\r\n     */\r\n    function getPayableAmount(address settlement,uint256 settlementAmount) internal returns (uint256) {\r\n        if (settlement == address(0)){\r\n            settlementAmount = msg.value;\r\n        }else if (settlementAmount > 0){\r\n            IERC20 oToken = IERC20(settlement);\r\n            uint256 preBalance = oToken.balanceOf(address(this));\r\n            oToken.transferFrom(msg.sender, address(this), settlementAmount);\r\n            uint256 afterBalance = oToken.balanceOf(address(this));\r\n            require(afterBalance-preBalance==settlementAmount,\"settlement token transfer error!\");\r\n        }\r\n        return settlementAmount;\r\n    }\r\n        /**\r\n     * @dev Calculate the collateral pool shared worth.\r\n     * The foundation operator will invoke this function frequently\r\n     */\r\n    function calSharedPayment(address[] memory _whiteList) public onlyOperatorIndex(0) {\r\n        (uint256 firstOption,int256[] memory latestShared) = _optionsPool.getNetWrothCalInfo(_whiteList);\r\n        uint256 lastOption = _optionsPool.getOptionInfoLength();\r\n        (int256[] memory newNetworth,uint256[] memory sharedBalance,uint256 newFirst) =\r\n                     _optionsPool.calRangeSharedPayment(lastOption,firstOption,lastOption,_whiteList);\r\n        int256[] memory fallBalance = _optionsPool.calculatePhaseOptionsFall(lastOption,newFirst,lastOption,_whiteList);\r\n        for (uint256 i= 0;i<fallBalance.length;i++){\r\n            fallBalance[i] = int256(sharedBalance[i]).sub(latestShared[i]).add(fallBalance[i]);\r\n        }\r\n        setSharedPayment(_whiteList,newNetworth,fallBalance,newFirst);\r\n    }\r\n    /**\r\n     * @dev Set the calculation results of the collateral pool shared worth.\r\n     * The foundation operator will invoke this function frequently\r\n     * @param newNetworth Current expired options' net worth \r\n     * @param sharedBalances All unexpired options' shared balance distributed by time.\r\n     * @param firstOption The new first unexpired option's index.\r\n     */\r\n    function setSharedPayment(address[] memory _whiteList,int256[] memory newNetworth,int256[] memory sharedBalances,uint256 firstOption) public onlyOperatorIndex(0){\r\n        _optionsPool.setSharedState(firstOption,sharedBalances,_whiteList);\r\n        addNetWorthBalances(_whiteList,newNetworth);\r\n    }\r\n}",
  "sourcePath": "C:\\work\\solidity\\FinnexusOptions_V2\\contracts\\CollateralPool\\CollateralPool.sol",
  "compiler": {
    "name": "solc",
    "version": "0.5.16+commit.9c3226ce.Emscripten.clang"
  },
  "schemaVersion": "3.1.0",
  "updatedAt": "2020-10-21T03:26:50.189Z",
  "devdoc": {
    "details": "A smart-contract which stores user's deposited collateral.  ",
    "methods": {
      "addCollateralBalance(address,uint256)": {
        "details": "Opterator collateral balance data. Only manager contract can modify database.",
        "params": {
          "amount": "collateral colleteral increase amount.",
          "collateral": "available colleteral address."
        }
      },
      "addNetBalance(address,uint256)": {
        "details": "The foundation operator want to add some coin to netbalance, which can increase the FPTCoin net worth.",
        "params": {
          "amount": "the amount of the settlement coin which the foundation operator want to transfer in this contract address.",
          "settlement": "the settlement coin address which the foundation operator want to transfer in this contract address."
        }
      },
      "addNetWorthBalance(address,int256)": {
        "details": "Opterator net worth balance data. Only manager contract can modify database.",
        "params": {
          "amount": "collateral net worth increase amount.",
          "collateral": "available colleteral address."
        }
      },
      "addOperator(address)": {
        "details": "add a new operator by owner.       "
      },
      "addTransactionFee(address,uint256,uint256)": {
        "details": "An interface for add transaction fee. Only manager contract can invoke this function.",
        "params": {
          "amount": "total transaction amount.",
          "collateral": "collateral address, also is the coin for fee.",
          "feeType": "transaction fee type. see TransactionFee contract"
        }
      },
      "addUserInputCollateral(address,address,uint256)": {
        "details": "Opterator user input collateral data. Only manager contract can modify database.",
        "params": {
          "amount": "the input collateral amount.",
          "collateral": "the collateral address.",
          "user": "input user account which need add input collateral."
        }
      },
      "addUserPayingUsd(address,uint256)": {
        "details": "Opterator user paying data, priced in USD. Only manager contract can modify database.",
        "params": {
          "amount": "the input paying amount.",
          "user": "input user account which need add paying amount."
        }
      },
      "addWhiteList(address)": {
        "details": "Implementation of add an eligible address into the whitelist.",
        "params": {
          "addAddress": "new eligible address."
        }
      },
      "calSharedPayment(address[])": {
        "details": "Calculate the collateral pool shared worth. The foundation operator will invoke this function frequently"
      },
      "getCollateralAndPremiumBalances(address,uint256,address[],uint256[],uint256[])": {
        "details": "calculate user's input collateral balance and premium collateral balance.     Specially used for user's redeem collateral.",
        "params": {
          "_RealBalances": "the real Collateral balance.",
          "account": "the recieptor account.",
          "prices": "the collateral prices list.",
          "tmpWhiteList": "the settlement coin white list",
          "userTotalWorth": "the user's total FPTCoin worth, priced in USD."
        }
      },
      "getCollateralBalance(address)": {
        "details": "Retrieve collateral balance data.",
        "params": {
          "collateral": "input retrieved collateral coin address "
        }
      },
      "getManager()": {
        "details": "get manager address.       "
      },
      "getOperator()": {
        "details": "get all operators.       "
      },
      "getRealBalance(address)": {
        "details": "Retrieve the balance of collateral, the auxiliary function for the total collateral calculation. "
      },
      "getUserInputCollateral(address,address)": {
        "details": "Retrieve user's amount of the specified collateral.",
        "params": {
          "collateral": "input retrieved collateral coin address ",
          "user": "input retrieved account "
        }
      },
      "getUserPayingUsd(address)": {
        "details": "Retrieve user's cost of collateral, priced in USD.",
        "params": {
          "user": "input retrieved account "
        }
      },
      "getWhiteList()": {
        "details": "Implementation of getting the eligible whitelist."
      },
      "isEligibleAddress(address)": {
        "details": "Implementation of testing whether the input address is eligible.",
        "params": {
          "tmpAddress": "input address for testing."
        }
      },
      "isOwner()": {
        "details": "Returns true if the caller is the current owner."
      },
      "owner()": {
        "details": "Returns the address of the current owner."
      },
      "removeOperator(address)": {
        "details": "remove operator by owner.       "
      },
      "removeWhiteList(address)": {
        "details": "Implementation of revoke an invalid address from the whitelist.",
        "params": {
          "removeAddress": "revoked address."
        }
      },
      "renounceOwnership()": {
        "details": "Leaves the contract without owner. It will not be possible to call `onlyOwner` functions anymore. Can only be called by the current owner.      * NOTE: Renouncing ownership will leave the contract without an owner, thereby removing any functionality that is only available to the owner."
      },
      "setCollateralBalance(address,uint256)": {
        "details": "set collateral balance. Only manager contract can modify database.",
        "params": {
          "amount": "the new amount.",
          "collateral": "collateral address."
        }
      },
      "setManager(address)": {
        "details": "set manager by owner.       "
      },
      "setNetWorthBalance(address,int256)": {
        "details": "set net worth balance. Only manager contract can modify database.",
        "params": {
          "amount": "the new amount.",
          "collateral": "collateral address."
        }
      },
      "setOperator(uint256,address)": {
        "details": "modify indexed operator by owner.       "
      },
      "setOperators(address[])": {
        "details": "set all operators by owner.       "
      },
      "setSharedPayment(address[],int256[],int256[],uint256)": {
        "details": "Set the calculation results of the collateral pool shared worth. The foundation operator will invoke this function frequently",
        "params": {
          "firstOption": "The new first unexpired option's index.",
          "newNetworth": "Current expired options' net worth ",
          "sharedBalances": "All unexpired options' shared balance distributed by time."
        }
      },
      "setTransactionFee(uint256,uint256,uint256)": {
        "details": "set the rate of trasaction fee.",
        "params": {
          "denominator": "thedenominator of transaction fee. transaction fee = numerator/denominator;",
          "feeType": "the transaction fee type",
          "numerator": "the numerator of transaction fee ."
        }
      },
      "setUserInputCollateral(address,address,uint256)": {
        "details": "set user's collateral balance. Only manager contract can modify database.",
        "params": {
          "amount": "user's new amount.",
          "collateral": "collateral address.",
          "user": "user's account."
        }
      },
      "setUserPayingUsd(address,uint256)": {
        "details": "set user paying data,priced in USD. Only manager contract can modify database.",
        "params": {
          "amount": "user's new amount.",
          "user": "user's account."
        }
      },
      "subCollateralBalance(address,uint256)": {
        "details": "Substract collateral balance. Only manager contract can modify database.",
        "params": {
          "amount": "the decrease amount.",
          "collateral": "collateral address."
        }
      },
      "subNetWorthBalance(address,int256)": {
        "details": "Substract net worth balance. Only manager contract can modify database.",
        "params": {
          "amount": "the decrease amount.",
          "collateral": "collateral address."
        }
      },
      "subUserInputCollateral(address,address,uint256)": {
        "details": "Substract user's collateral balance. Only manager contract can modify database.",
        "params": {
          "amount": "user's decrease amount.",
          "collateral": "collateral address.",
          "user": "user's account."
        }
      },
      "subUserPayingUsd(address,uint256)": {
        "details": "Substract user paying data,priced in USD. Only manager contract can modify database.",
        "params": {
          "amount": "user's decrease amount.",
          "user": "user's account."
        }
      },
      "transferOwnership(address)": {
        "details": "Transfers ownership of the contract to a new account (`newOwner`). Can only be called by the current owner."
      },
      "transferPayback(address,address,uint256)": {
        "details": "Operation for transfer user's payback. Only manager contract can invoke this function.",
        "params": {
          "payback": "the payback amount",
          "recieptor": "the recieptor account.",
          "settlement": "the settlement coin address."
        }
      },
      "transferPaybackAndFee(address,address,uint256,uint256)": {
        "details": "Operation for transfer user's payback and deduct transaction fee. Only manager contract can invoke this function.",
        "params": {
          "feeType": "the transaction fee type. see transactionFee contract",
          "payback": "the payback amount",
          "recieptor": "the recieptor account.",
          "settlement": "the settlement coin address."
        }
      },
      "transferPaybackBalances(address,uint256,address[],uint256[],uint256[],uint256[])": {
        "details": "Operation for transfer user's payback and deduct transaction fee for multiple settlement Coin.      Specially used for redeem collateral.Only manager contract can invoke this function.",
        "params": {
          "PremiumBalances": "the premium collateral balance if redeem worth is exceeded user's input collateral.",
          "account": "the recieptor account.",
          "colBalances": "the Collateral balance based for user's input collateral.",
          "prices": "the collateral prices list.",
          "redeemWorth": "the redeem worth, priced in USD.",
          "tmpWhiteList": "the settlement coin white list"
        }
      }
    },
    "title": "collateral pool contract with coin and necessary storage data."
  },
  "userdoc": {
    "methods": {
      "setHalt(bool)": {
        "notice": "function Emergency situation that requires contribution period to stop or not."
      }
    }
  }
}