{
  "contractName": "CollateralPool",
  "abi": [
    {
      "constant": true,
      "inputs": [],
      "name": "name",
      "outputs": [
        {
          "name": "",
          "type": "string"
        }
      ],
      "payable": false,
      "stateMutability": "view",
      "type": "function"
    },
    {
      "constant": false,
      "inputs": [
        {
          "name": "spender",
          "type": "address"
        },
        {
          "name": "amount",
          "type": "uint256"
        }
      ],
      "name": "approve",
      "outputs": [
        {
          "name": "",
          "type": "bool"
        }
      ],
      "payable": false,
      "stateMutability": "nonpayable",
      "type": "function"
    },
    {
      "constant": true,
      "inputs": [],
      "name": "getWhiteList",
      "outputs": [
        {
          "name": "",
          "type": "address[]"
        }
      ],
      "payable": false,
      "stateMutability": "view",
      "type": "function"
    },
    {
      "constant": true,
      "inputs": [
        {
          "name": "",
          "type": "address"
        }
      ],
      "name": "netWorthBalances",
      "outputs": [
        {
          "name": "",
          "type": "uint256"
        }
      ],
      "payable": false,
      "stateMutability": "view",
      "type": "function"
    },
    {
      "constant": true,
      "inputs": [],
      "name": "totalSupply",
      "outputs": [
        {
          "name": "",
          "type": "uint256"
        }
      ],
      "payable": false,
      "stateMutability": "view",
      "type": "function"
    },
    {
      "constant": false,
      "inputs": [
        {
          "name": "optionsPool",
          "type": "address"
        }
      ],
      "name": "setOptionsPoolAddress",
      "outputs": [],
      "payable": false,
      "stateMutability": "nonpayable",
      "type": "function"
    },
    {
      "constant": false,
      "inputs": [
        {
          "name": "removeAddress",
          "type": "address"
        }
      ],
      "name": "removeWhiteList",
      "outputs": [
        {
          "name": "",
          "type": "bool"
        }
      ],
      "payable": false,
      "stateMutability": "nonpayable",
      "type": "function"
    },
    {
      "constant": false,
      "inputs": [
        {
          "name": "sender",
          "type": "address"
        },
        {
          "name": "recipient",
          "type": "address"
        },
        {
          "name": "amount",
          "type": "uint256"
        }
      ],
      "name": "transferFrom",
      "outputs": [
        {
          "name": "",
          "type": "bool"
        }
      ],
      "payable": false,
      "stateMutability": "nonpayable",
      "type": "function"
    },
    {
      "constant": true,
      "inputs": [
        {
          "name": "",
          "type": "address"
        }
      ],
      "name": "balances",
      "outputs": [
        {
          "name": "",
          "type": "uint256"
        }
      ],
      "payable": false,
      "stateMutability": "view",
      "type": "function"
    },
    {
      "constant": true,
      "inputs": [
        {
          "name": "",
          "type": "address"
        }
      ],
      "name": "collateralBalances",
      "outputs": [
        {
          "name": "",
          "type": "uint256"
        }
      ],
      "payable": false,
      "stateMutability": "view",
      "type": "function"
    },
    {
      "constant": false,
      "inputs": [],
      "name": "redeemAll",
      "outputs": [],
      "payable": false,
      "stateMutability": "nonpayable",
      "type": "function"
    },
    {
      "constant": true,
      "inputs": [],
      "name": "decimals",
      "outputs": [
        {
          "name": "",
          "type": "uint8"
        }
      ],
      "payable": false,
      "stateMutability": "view",
      "type": "function"
    },
    {
      "constant": true,
      "inputs": [
        {
          "name": "feeType",
          "type": "uint256"
        },
        {
          "name": "amount",
          "type": "uint256"
        }
      ],
      "name": "calculateFee",
      "outputs": [
        {
          "name": "",
          "type": "uint256"
        }
      ],
      "payable": false,
      "stateMutability": "view",
      "type": "function"
    },
    {
      "constant": false,
      "inputs": [
        {
          "name": "spender",
          "type": "address"
        },
        {
          "name": "addedValue",
          "type": "uint256"
        }
      ],
      "name": "increaseAllowance",
      "outputs": [
        {
          "name": "",
          "type": "bool"
        }
      ],
      "payable": false,
      "stateMutability": "nonpayable",
      "type": "function"
    },
    {
      "constant": false,
      "inputs": [
        {
          "name": "oracle",
          "type": "address"
        }
      ],
      "name": "setOracleAddress",
      "outputs": [],
      "payable": false,
      "stateMutability": "nonpayable",
      "type": "function"
    },
    {
      "constant": true,
      "inputs": [
        {
          "name": "",
          "type": "address"
        }
      ],
      "name": "feeBalances",
      "outputs": [
        {
          "name": "",
          "type": "uint256"
        }
      ],
      "payable": false,
      "stateMutability": "view",
      "type": "function"
    },
    {
      "constant": true,
      "inputs": [],
      "name": "collateralRate",
      "outputs": [
        {
          "name": "numerator",
          "type": "uint256"
        },
        {
          "name": "denominator",
          "type": "uint256"
        }
      ],
      "payable": false,
      "stateMutability": "view",
      "type": "function"
    },
    {
      "constant": true,
      "inputs": [
        {
          "name": "",
          "type": "uint256"
        }
      ],
      "name": "whiteList",
      "outputs": [
        {
          "name": "",
          "type": "address"
        }
      ],
      "payable": false,
      "stateMutability": "view",
      "type": "function"
    },
    {
      "constant": true,
      "inputs": [
        {
          "name": "account",
          "type": "address"
        }
      ],
      "name": "balanceOf",
      "outputs": [
        {
          "name": "",
          "type": "uint256"
        }
      ],
      "payable": false,
      "stateMutability": "view",
      "type": "function"
    },
    {
      "constant": false,
      "inputs": [],
      "name": "renounceOwnership",
      "outputs": [],
      "payable": false,
      "stateMutability": "nonpayable",
      "type": "function"
    },
    {
      "constant": true,
      "inputs": [
        {
          "name": "tmpAddress",
          "type": "address"
        }
      ],
      "name": "isEligibleAddress",
      "outputs": [
        {
          "name": "",
          "type": "bool"
        }
      ],
      "payable": false,
      "stateMutability": "view",
      "type": "function"
    },
    {
      "constant": true,
      "inputs": [],
      "name": "owner",
      "outputs": [
        {
          "name": "",
          "type": "address"
        }
      ],
      "payable": false,
      "stateMutability": "view",
      "type": "function"
    },
    {
      "constant": true,
      "inputs": [],
      "name": "isOwner",
      "outputs": [
        {
          "name": "",
          "type": "bool"
        }
      ],
      "payable": false,
      "stateMutability": "view",
      "type": "function"
    },
    {
      "constant": false,
      "inputs": [
        {
          "name": "currency",
          "type": "address"
        }
      ],
      "name": "redeem",
      "outputs": [],
      "payable": false,
      "stateMutability": "nonpayable",
      "type": "function"
    },
    {
      "constant": true,
      "inputs": [],
      "name": "symbol",
      "outputs": [
        {
          "name": "",
          "type": "string"
        }
      ],
      "payable": false,
      "stateMutability": "view",
      "type": "function"
    },
    {
      "constant": false,
      "inputs": [
        {
          "name": "spender",
          "type": "address"
        },
        {
          "name": "subtractedValue",
          "type": "uint256"
        }
      ],
      "name": "decreaseAllowance",
      "outputs": [
        {
          "name": "",
          "type": "bool"
        }
      ],
      "payable": false,
      "stateMutability": "nonpayable",
      "type": "function"
    },
    {
      "constant": false,
      "inputs": [
        {
          "name": "recipient",
          "type": "address"
        },
        {
          "name": "amount",
          "type": "uint256"
        }
      ],
      "name": "transfer",
      "outputs": [
        {
          "name": "",
          "type": "bool"
        }
      ],
      "payable": false,
      "stateMutability": "nonpayable",
      "type": "function"
    },
    {
      "constant": true,
      "inputs": [],
      "name": "getOracleAddress",
      "outputs": [
        {
          "name": "",
          "type": "address"
        }
      ],
      "payable": false,
      "stateMutability": "view",
      "type": "function"
    },
    {
      "constant": true,
      "inputs": [],
      "name": "halted",
      "outputs": [
        {
          "name": "",
          "type": "bool"
        }
      ],
      "payable": false,
      "stateMutability": "view",
      "type": "function"
    },
    {
      "constant": false,
      "inputs": [
        {
          "name": "feeType",
          "type": "uint256"
        },
        {
          "name": "numerator",
          "type": "uint256"
        },
        {
          "name": "denominator",
          "type": "uint256"
        }
      ],
      "name": "setTransactionFee",
      "outputs": [],
      "payable": false,
      "stateMutability": "nonpayable",
      "type": "function"
    },
    {
      "constant": true,
      "inputs": [],
      "name": "getOptionsPoolAddress",
      "outputs": [
        {
          "name": "",
          "type": "address"
        }
      ],
      "payable": false,
      "stateMutability": "view",
      "type": "function"
    },
    {
      "constant": true,
      "inputs": [
        {
          "name": "settlement",
          "type": "address"
        }
      ],
      "name": "getFeeBalance",
      "outputs": [
        {
          "name": "",
          "type": "uint256"
        }
      ],
      "payable": false,
      "stateMutability": "view",
      "type": "function"
    },
    {
      "constant": true,
      "inputs": [
        {
          "name": "feeType",
          "type": "uint256"
        }
      ],
      "name": "getFeeRate",
      "outputs": [
        {
          "name": "",
          "type": "uint256"
        },
        {
          "name": "",
          "type": "uint256"
        }
      ],
      "payable": false,
      "stateMutability": "view",
      "type": "function"
    },
    {
      "constant": true,
      "inputs": [
        {
          "name": "owner",
          "type": "address"
        },
        {
          "name": "spender",
          "type": "address"
        }
      ],
      "name": "allowance",
      "outputs": [
        {
          "name": "",
          "type": "uint256"
        }
      ],
      "payable": false,
      "stateMutability": "view",
      "type": "function"
    },
    {
      "constant": true,
      "inputs": [
        {
          "name": "",
          "type": "address"
        }
      ],
      "name": "userCollateralPaying",
      "outputs": [
        {
          "name": "",
          "type": "uint256"
        }
      ],
      "payable": false,
      "stateMutability": "view",
      "type": "function"
    },
    {
      "constant": true,
      "inputs": [
        {
          "name": "",
          "type": "uint256"
        }
      ],
      "name": "FeeRates",
      "outputs": [
        {
          "name": "numerator",
          "type": "uint256"
        },
        {
          "name": "denominator",
          "type": "uint256"
        }
      ],
      "payable": false,
      "stateMutability": "view",
      "type": "function"
    },
    {
      "constant": false,
      "inputs": [
        {
          "name": "addAddress",
          "type": "address"
        }
      ],
      "name": "addWhiteList",
      "outputs": [],
      "payable": false,
      "stateMutability": "nonpayable",
      "type": "function"
    },
    {
      "constant": true,
      "inputs": [],
      "name": "getAllFeeBalances",
      "outputs": [
        {
          "name": "",
          "type": "address[]"
        },
        {
          "name": "",
          "type": "uint256[]"
        }
      ],
      "payable": false,
      "stateMutability": "view",
      "type": "function"
    },
    {
      "constant": false,
      "inputs": [
        {
          "name": "newOwner",
          "type": "address"
        }
      ],
      "name": "transferOwnership",
      "outputs": [],
      "payable": false,
      "stateMutability": "nonpayable",
      "type": "function"
    },
    {
      "constant": false,
      "inputs": [
        {
          "name": "halt",
          "type": "bool"
        }
      ],
      "name": "setHalt",
      "outputs": [],
      "payable": false,
      "stateMutability": "nonpayable",
      "type": "function"
    },
    {
      "constant": true,
      "inputs": [
        {
          "name": "tmpAddress",
          "type": "address"
        }
      ],
      "name": "checkEligibleAddress",
      "outputs": [],
      "payable": false,
      "stateMutability": "view",
      "type": "function"
    },
    {
      "anonymous": false,
      "inputs": [
        {
          "indexed": true,
          "name": "from",
          "type": "address"
        },
        {
          "indexed": true,
          "name": "collateral",
          "type": "address"
        },
        {
          "indexed": false,
          "name": "amount",
          "type": "uint256"
        },
        {
          "indexed": false,
          "name": "tokenAmount",
          "type": "uint256"
        }
      ],
      "name": "AddCollateral",
      "type": "event"
    },
    {
      "anonymous": false,
      "inputs": [
        {
          "indexed": true,
          "name": "from",
          "type": "address"
        },
        {
          "indexed": false,
          "name": "tokenAmount",
          "type": "uint256"
        }
      ],
      "name": "RedeemCollateral",
      "type": "event"
    },
    {
      "anonymous": false,
      "inputs": [
        {
          "indexed": true,
          "name": "value1",
          "type": "uint256"
        },
        {
          "indexed": true,
          "name": "value2",
          "type": "uint256"
        },
        {
          "indexed": true,
          "name": "value3",
          "type": "uint256"
        }
      ],
      "name": "DebugEvent",
      "type": "event"
    },
    {
      "anonymous": false,
      "inputs": [
        {
          "indexed": true,
          "name": "from",
          "type": "address"
        },
        {
          "indexed": true,
          "name": "to",
          "type": "address"
        },
        {
          "indexed": false,
          "name": "value",
          "type": "uint256"
        }
      ],
      "name": "Transfer",
      "type": "event"
    },
    {
      "anonymous": false,
      "inputs": [
        {
          "indexed": true,
          "name": "owner",
          "type": "address"
        },
        {
          "indexed": true,
          "name": "spender",
          "type": "address"
        },
        {
          "indexed": false,
          "name": "value",
          "type": "uint256"
        }
      ],
      "name": "Approval",
      "type": "event"
    },
    {
      "anonymous": false,
      "inputs": [
        {
          "indexed": true,
          "name": "recieptor",
          "type": "address"
        },
        {
          "indexed": true,
          "name": "settlement",
          "type": "address"
        },
        {
          "indexed": false,
          "name": "payback",
          "type": "uint256"
        }
      ],
      "name": "FeePayback",
      "type": "event"
    },
    {
      "anonymous": false,
      "inputs": [
        {
          "indexed": true,
          "name": "settlement",
          "type": "address"
        },
        {
          "indexed": false,
          "name": "payback",
          "type": "uint256"
        }
      ],
      "name": "AddFee",
      "type": "event"
    },
    {
      "anonymous": false,
      "inputs": [
        {
          "indexed": true,
          "name": "recieptor",
          "type": "address"
        },
        {
          "indexed": true,
          "name": "settlement",
          "type": "address"
        },
        {
          "indexed": false,
          "name": "payback",
          "type": "uint256"
        }
      ],
      "name": "TransferPayback",
      "type": "event"
    },
    {
      "anonymous": false,
      "inputs": [
        {
          "indexed": true,
          "name": "previousOwner",
          "type": "address"
        },
        {
          "indexed": true,
          "name": "newOwner",
          "type": "address"
        }
      ],
      "name": "OwnershipTransferred",
      "type": "event"
    },
    {
      "constant": false,
      "inputs": [
        {
          "name": "numerator",
          "type": "uint256"
        },
        {
          "name": "denominator",
          "type": "uint256"
        }
      ],
      "name": "setCollateralRate",
      "outputs": [],
      "payable": false,
      "stateMutability": "nonpayable",
      "type": "function"
    },
    {
      "constant": true,
      "inputs": [],
      "name": "getCollateralRate",
      "outputs": [
        {
          "name": "",
          "type": "uint256"
        },
        {
          "name": "",
          "type": "uint256"
        }
      ],
      "payable": false,
      "stateMutability": "view",
      "type": "function"
    },
    {
      "constant": true,
      "inputs": [
        {
          "name": "user",
          "type": "address"
        }
      ],
      "name": "getUserPayingUsd",
      "outputs": [
        {
          "name": "",
          "type": "uint256"
        }
      ],
      "payable": false,
      "stateMutability": "view",
      "type": "function"
    },
    {
      "constant": true,
      "inputs": [
        {
          "name": "user",
          "type": "address"
        },
        {
          "name": "collateral",
          "type": "address"
        }
      ],
      "name": "userInputCollateral",
      "outputs": [
        {
          "name": "",
          "type": "uint256"
        }
      ],
      "payable": false,
      "stateMutability": "view",
      "type": "function"
    },
    {
      "constant": false,
      "inputs": [
        {
          "name": "index",
          "type": "uint256"
        }
      ],
      "name": "setPhaseSharedPayment",
      "outputs": [],
      "payable": false,
      "stateMutability": "nonpayable",
      "type": "function"
    },
    {
      "constant": false,
      "inputs": [
        {
          "name": "index",
          "type": "uint256"
        },
        {
          "name": "sharedBalances",
          "type": "int256[]"
        },
        {
          "name": "prices",
          "type": "uint256[]"
        },
        {
          "name": "firstOption",
          "type": "uint256"
        },
        {
          "name": "lastBlock",
          "type": "uint256"
        },
        {
          "name": "calTime",
          "type": "uint256"
        }
      ],
      "name": "setSharedPayment",
      "outputs": [],
      "payable": false,
      "stateMutability": "nonpayable",
      "type": "function"
    },
    {
      "constant": true,
      "inputs": [],
      "name": "getTokenNetworth",
      "outputs": [
        {
          "name": "",
          "type": "uint256"
        }
      ],
      "payable": false,
      "stateMutability": "view",
      "type": "function"
    },
    {
      "constant": false,
      "inputs": [
        {
          "name": "collateral",
          "type": "address"
        },
        {
          "name": "amount",
          "type": "uint256"
        }
      ],
      "name": "addCollateral",
      "outputs": [],
      "payable": true,
      "stateMutability": "payable",
      "type": "function"
    },
    {
      "constant": false,
      "inputs": [
        {
          "name": "tokenAmount",
          "type": "uint256"
        },
        {
          "name": "collateral",
          "type": "address"
        }
      ],
      "name": "redeemCollateral",
      "outputs": [],
      "payable": false,
      "stateMutability": "nonpayable",
      "type": "function"
    },
    {
      "constant": true,
      "inputs": [],
      "name": "getOccupiedCollateral",
      "outputs": [
        {
          "name": "",
          "type": "uint256"
        }
      ],
      "payable": false,
      "stateMutability": "view",
      "type": "function"
    },
    {
      "constant": true,
      "inputs": [],
      "name": "getLeftCollateral",
      "outputs": [
        {
          "name": "",
          "type": "uint256"
        }
      ],
      "payable": false,
      "stateMutability": "view",
      "type": "function"
    },
    {
      "constant": true,
      "inputs": [
        {
          "name": "strikePrice",
          "type": "uint256"
        },
        {
          "name": "underlyingPrice",
          "type": "uint256"
        },
        {
          "name": "amount",
          "type": "uint256"
        },
        {
          "name": "optType",
          "type": "uint8"
        }
      ],
      "name": "calOptionsOccupied",
      "outputs": [
        {
          "name": "",
          "type": "uint256"
        }
      ],
      "payable": false,
      "stateMutability": "view",
      "type": "function"
    },
    {
      "constant": true,
      "inputs": [],
      "name": "getTotalCollateral",
      "outputs": [
        {
          "name": "",
          "type": "uint256"
        }
      ],
      "payable": false,
      "stateMutability": "view",
      "type": "function"
    }
  ],
  "bytecode": "0x6000805460ff60a860020a60ff02011916905560c0604052600a60808190527f536861726564436f696e0000000000000000000000000000000000000000000060a09081526200005391600491906200023f565b506040805180820190915260058082527f53436f696e00000000000000000000000000000000000000000000000000000060209092019182526200009891816200023f565b5060006008819055604080518082018252600380825260016020909201829052600b55600c55815461010033810261010060a860020a03199092169190911780845591519104600160a060020a031691907f8be0079c531659141344cd1fd0a4f28419497f9722a3daafe3b4186f6b6457e0908290a360408051808201825260038082526103e860208084018281528354600181810186556000868152965160029283027fc2575a0e9e593c00f959f8c92f12db2869c3395a3b0502d05e2516446f71f85b8181019290925593517fc2575a0e9e593c00f959f8c92f12db2869c3395a3b0502d05e2516446f71f85c948501558851808a018a5287815280860187815288548085018a55898b5291519185028084019290925551908501558851808a018a5287815280860187815288548085018a55898b5291519185028084019290925551908501558851808a018a5287815280860187815288548085018a55898b5291519185028084019290925551908501558851808a0190995286895293880194855285549081018655949095529451929093029283019190915551910155620002e4565b828054600181600116156101000203166002900490600052602060002090601f016020900481019282601f106200028257805160ff1916838001178555620002b2565b82800160010185558215620002b2579182015b82811115620002b257825182559160200191906001019062000295565b50620002c0929150620002c4565b5090565b620002e191905b80821115620002c05760008155600101620002cb565b90565b613b9880620002f46000396000f30060806040526004361061026e5763ffffffff60e060020a60003504166306fdde038114610273578063095ea7b3146102fd57806309a9d76c146103355780630aaf38321461039a5780630ecfad1e146103c157806318160ddd146103e25780631a5a3fce146103f75780632042e5c21461041a57806323b872dd1461043b57806327e235e31461046557806329bc969d146104865780632f4350c2146104a7578063313ce567146104bc57806332c82a5f146104e757806334e731221461050b578063395093511461052657806342049a721461054a5780634c69c00f1461056b57806353afc0251461058c57806358a6be1c146105ad5780635c475d42146105db5780636d75b9ee1461060f57806370a0823114610626578063715018a614610647578063817bf86d1461065c578063852185fc1461067d5780638da5cb5b146106925780638f32d59b146106a757806393608827146106bc57806395a2251f1461075c57806395d89b411461077d578063a04115f614610792578063a20a8045146107aa578063a457c2d7146107ce578063a9059cbb146107f2578063b18b78dd14610816578063b4d5a9c71461082b578063b9b8af0b14610852578063bf36b11014610867578063c040725a14610885578063c5e5a3ed1461089a578063c78f6803146108af578063cd405819146108d0578063d2aaef4e146108e5578063d6eb5910146108fd578063dd62ed3e14610912578063ddb944e514610939578063e0561aa11461095a578063e7cd4a0414610972578063ef63e1f714610993578063f20568cd146109ae578063f2fde38b14610a5c578063f495438714610a7d578063f939fdca14610a97575b600080fd5b34801561027f57600080fd5b50610288610ab8565b6040805160208082528351818301528351919283929083019185019080838360005b838110156102c25781810151838201526020016102aa565b50505050905090810190601f1680156102ef5780820380516001836020036101000a031916815260200191505b509250505060405180910390f35b34801561030957600080fd5b50610321600160a060020a0360043516602435610b46565b604080519115158252519081900360200190f35b34801561034157600080fd5b5061034a610b5c565b60408051602080825283518183015283519192839290830191858101910280838360005b8381101561038657818101518382015260200161036e565b505050509050019250505060405180910390f35b3480156103a657600080fd5b506103af610bbf565b60408051918252519081900360200190f35b3480156103cd57600080fd5b506103af600160a060020a0360043516610be5565b3480156103ee57600080fd5b506103af610bf7565b34801561040357600080fd5b50610418600160a060020a0360043516610bfd565b005b34801561042657600080fd5b50610321600160a060020a0360043516610c78565b34801561044757600080fd5b50610321600160a060020a0360043581169060243516604435610cd7565b34801561047157600080fd5b506103af600160a060020a0360043516610d8a565b34801561049257600080fd5b506103af600160a060020a0360043516610d9c565b3480156104b357600080fd5b50610418610dae565b3480156104c857600080fd5b506104d1610e41565b6040805160ff9092168252519081900360200190f35b3480156104f357600080fd5b506103af60043560243560443560ff60643516610e46565b34801561051757600080fd5b506103af600435602435610e94565b34801561053257600080fd5b50610321600160a060020a0360043516602435610edb565b34801561055657600080fd5b506103af600160a060020a0360043516610f17565b34801561057757600080fd5b50610418600160a060020a0360043516610f32565b34801561059857600080fd5b506103af600160a060020a0360043516610fad565b3480156105b957600080fd5b506105c2610fbf565b6040805192835260208301919091528051918290030190f35b3480156105e757600080fd5b506105f3600435610fc8565b60408051600160a060020a039092168252519081900360200190f35b610418600160a060020a0360043516602435610ff0565b34801561063257600080fd5b506103af600160a060020a0360043516611275565b34801561065357600080fd5b50610418611290565b34801561066857600080fd5b50610321600160a060020a0360043516611338565b34801561068957600080fd5b506105c261139e565b34801561069e57600080fd5b506105f36113a8565b3480156106b357600080fd5b506103216113bc565b3480156106c857600080fd5b5060408051602060046024803582810135848102808701860190975280865261041896843596369660449591949091019291829185019084908082843750506040805187358901803560208181028481018201909552818452989b9a998901989297509082019550935083925085019084908082843750949750508435955050506020830135926040013591506113d29050565b34801561076857600080fd5b50610418600160a060020a0360043516611624565b34801561078957600080fd5b50610288611814565b34801561079e57600080fd5b5061041860043561186f565b3480156107b657600080fd5b50610418600435600160a060020a0360243516611c12565b3480156107da57600080fd5b50610321600160a060020a0360043516602435611dfe565b3480156107fe57600080fd5b50610321600160a060020a0360043516602435611e97565b34801561082257600080fd5b506105f3611ea4565b34801561083757600080fd5b506103af600160a060020a0360043581169060243516611eb3565b34801561085e57600080fd5b50610321611ede565b34801561087357600080fd5b50610418600435602435604435611f00565b34801561089157600080fd5b506105f3611f64565b3480156108a657600080fd5b506103af611f73565b3480156108bb57600080fd5b506103af600160a060020a0360043516611fa5565b3480156108dc57600080fd5b506103af611fc0565b3480156108f157600080fd5b506105c2600435612054565b34801561090957600080fd5b506103af612075565b34801561091e57600080fd5b506103af600160a060020a036004358116906024351661217d565b34801561094557600080fd5b506103af600160a060020a03600435166121a8565b34801561096657600080fd5b506105c26004356121ba565b34801561097e57600080fd5b50610418600160a060020a03600435166121e6565b34801561099f57600080fd5b5061041860043560243561223d565b3480156109ba57600080fd5b506109c3612294565b604051808060200180602001838103835285818151815260200191508051906020019060200280838360005b83811015610a075781810151838201526020016109ef565b50505050905001838103825284818151815260200191508051906020019060200280838360005b83811015610a46578181015183820152602001610a2e565b5050505090500194505050505060405180910390f35b348015610a6857600080fd5b50610418600160a060020a036004351661239d565b348015610a8957600080fd5b5061041860043515156123f2565b348015610aa357600080fd5b50610418600160a060020a0360043516612480565b6004805460408051602060026001851615610100026000190190941693909304601f81018490048402820184019092528181529291830182828015610b3e5780601f10610b1357610100808354040283529160200191610b3e565b820191906000526020600020905b815481529060010190602001808311610b2157829003601f168201915b505050505081565b6000610b533384846124e4565b50600192915050565b60606001805480602002602001604051908101604052809291908181526020018280548015610bb457602002820191906000526020600020905b8154600160a060020a03168152600190910190602001808311610b96575b505050505090505b90565b6000610be0610bcc611fc0565b610bd4612075565b9063ffffffff61265116565b905090565b600d6020526000908152604090205481565b60085490565b610c056113bc565b1515610c49576040805160e560020a62461bcd0281526020600482018190526024820152600080516020613b4d833981519152604482015290519081900360640190fd5b600a805473ffffffffffffffffffffffffffffffffffffffff1916600160a060020a0392909216919091179055565b6000610c826113bc565b1515610cc6576040805160e560020a62461bcd0281526020600482018190526024820152600080516020613b4d833981519152604482015290519081900360640190fd5b610cd160018361269a565b92915050565b6000610ce4848484612787565b60408051606081018252602881527f45524332303a207472616e7366657220616d6f756e74206578636565647320616020808301919091527f6c6c6f77616e636500000000000000000000000000000000000000000000000082840152600160a060020a0387166000908152600782528381203380835292529290922054610d809287929091610d7b91879063ffffffff6128f716565b6124e4565b5060019392505050565b60066020526000908152604090205481565b600e6020526000908152604090205481565b6000610db86113bc565b1515610dfc576040805160e560020a62461bcd0281526020600482018190526024820152600080516020613b4d833981519152604482015290519081900360640190fd5b5060005b600154811015610e3e57610e36600182815481101515610e1c57fe5b600091825260209091200154600160a060020a0316611624565b600101610e00565b50565b601281565b60008060ff8316158587111415610e6e57610e67868563ffffffff61299416565b9050610e81565b610e7e858563ffffffff61299416565b90505b610e8a81612a3e565b9695505050505050565b6000806000610ea285612a6d565b8054909250610eb7908563ffffffff61299416565b9050610ed0826001015482612aec90919063ffffffff16565b92505b505092915050565b336000818152600760209081526040808320600160a060020a03871684529091528120549091610b53918590610d7b908663ffffffff612b2e16565b600160a060020a03166000908152600f602052604090205490565b610f3a6113bc565b1515610f7e576040805160e560020a62461bcd0281526020600482018190526024820152600080516020613b4d833981519152604482015290519081900360640190fd5b6009805473ffffffffffffffffffffffffffffffffffffffff1916600160a060020a0392909216919091179055565b60026020526000908152604090205481565b600b54600c5482565b6001805482908110610fd657fe5b600091825260209091200154600160a060020a0316905081565b6000806000806110008686612b8b565b94506000851161105a576040805160e560020a62461bcd02815260206004820152601a60248201527f736574746c656d656e7420616d6f756e74206973207a65726f21000000000000604482015290519081900360640190fd5b611065600386610e94565b93506110718685612cbe565b611081858563ffffffff61265116565b6009546040805160e060020a6341976e09028152600160a060020a038a8116600483015291519398509116916341976e09916024808201926020929091908290030181600087803b1580156110d557600080fd5b505af11580156110e9573d6000803e3d6000fd5b505050506040513d60208110156110ff57600080fd5b50519250611113838663ffffffff61299416565b915061112d611120611f73565b839063ffffffff612aec16565b336000908152600f6020526040902054909150611150908363ffffffff612b2e16565b336000908152600f6020908152604080832093909355600160a060020a0389168252600e90522054611188908663ffffffff612b2e16565b600160a060020a0387166000818152600e6020908152604080832094909455338252601081528382209282529190915220546111ca908663ffffffff612b2e16565b336000908152601060209081526040808320600160a060020a038b168452825280832093909355600d90522054611207908663ffffffff612b2e16565b600160a060020a0387166000818152600d60209081526040918290209390935580518881529283018490528051919233927f33a089d94f9a0b7d0fe21e69b40d7dbe1965be652c7382cc778d46963db8c49b929181900390910190a361126d3382612d3d565b505050505050565b600160a060020a031660009081526006602052604090205490565b6112986113bc565b15156112dc576040805160e560020a62461bcd0281526020600482018190526024820152600080516020613b4d833981519152604482015290519081900360640190fd5b60008054604051610100909104600160a060020a0316907f8be0079c531659141344cd1fd0a4f28419497f9722a3daafe3b4186f6b6457e0908390a36000805474ffffffffffffffffffffffffffffffffffffffff0019169055565b6000610cd1600180548060200260200160405190810160405280929190818152602001828054801561139357602002820191906000526020600020905b8154600160a060020a03168152600190910190602001808311611375575b505050505083612e02565b600b54600c549091565b6000546101009004600160a060020a031690565b6000546101009004600160a060020a0316331490565b6000806113dd6113bc565b1515611421576040805160e560020a62461bcd0281526020600482018190526024820152600080516020613b4d833981519152604482015290519081900360640190fd5b600a546040517f530b0fd7000000000000000000000000000000000000000000000000000000008152600481018a815260248201889052606482018790526084820186905260a060448301908152895160a48401528951600160a060020a039094169363530b0fd7938d938b938d938c938c93929160c4909101906020808801910280838360005b838110156114c15781810151838201526020016114a9565b505050509050019650505050505050600060405180830381600087803b1580156114ea57600080fd5b505af11580156114fe573d6000803e3d6000fd5b50505050600091505b865182101561161a57600180548390811061151e57fe5b60009182526020822001548851600160a060020a03909116925088908490811061154457fe5b60209081029091010151126115b357611595878381518110151561156457fe5b6020908102909101810151600160a060020a0384166000908152600d9092526040909120549063ffffffff612b2e16565b600160a060020a0382166000908152600d602052604090205561160f565b6115f587838151811015156115c457fe5b6020908102909101810151600160a060020a0384166000908152600d9092526040822054910363ffffffff61265116565b600160a060020a0382166000908152600d60205260409020555b600190910190611507565b5050505050505050565b60008061162f6113bc565b1515611673576040805160e560020a62461bcd0281526020600482018190526024820152600080516020613b4d833981519152604482015290519081900360640190fd5b600160a060020a038316600090815260026020526040812054925082116116e4576040805160e560020a62461bcd02815260206004820152601260248201527f4974277320656d7074792062616c616e63650000000000000000000000000000604482015290519081900360640190fd5b600160a060020a038316600081815260026020526040812055151561173657604051339083156108fc029084906000818181858888f19350505050158015611730573d6000803e3d6000fd5b506117cf565b50604080517fa9059cbb0000000000000000000000000000000000000000000000000000000081523360048201526024810183905290518391600160a060020a0383169163a9059cbb916044808201926020929091908290030181600087803b1580156117a257600080fd5b505af11580156117b6573d6000803e3d6000fd5b505050506040513d60208110156117cc57600080fd5b50505b604080518381529051600160a060020a0385169133917f747147be90b2a81a2e929994a92cd7bb71396bdbfd02f181867c81187d4f79449181900360200190a3505050565b6005805460408051602060026001851615610100026000190190941693909304601f81018490048402820184019092528181529291830182828015610b3e5780601f10610b1357610100808354040283529160200191610b3e565b606060008060608060006118816113bc565b15156118c5576040805160e560020a62461bcd0281526020600482018190526024820152600080516020613b4d833981519152604482015290519081900360640190fd5b600a54604080517faf70df12000000000000000000000000000000000000000000000000000000008152600481018a8152602482019283526001805460448401819052600160a060020a039095169463af70df12948d9492939290916064909101908490801561195e57602002820191906000526020600020905b8154600160a060020a03168152600190910190602001808311611940575b50509350505050600060405180830381600087803b15801561197f57600080fd5b505af1158015611993573d6000803e3d6000fd5b505050506040513d6000823e601f3d908101601f1916820160405260608110156119bc57600080fd5b8101908080516401000000008111156119d457600080fd5b820160208101848111156119e757600080fd5b8151856020820283011164010000000082111715611a0457600080fd5b50506020820151604092830151600a5484517fe5081c40000000000000000000000000000000000000000000000000000000008152600481018f8152602482019687526001805460448401819052969f50949d50929b50600160a060020a03909116965063e5081c4095508d94929391929160649091019084908015611ab357602002820191906000526020600020905b8154600160a060020a03168152600190910190602001808311611a95575b50509350505050600060405180830381600087803b158015611ad457600080fd5b505af1158015611ae8573d6000803e3d6000fd5b505050506040513d6000823e601f3d908101601f191682016040908152811015611b1157600080fd5b810190808051640100000000811115611b2957600080fd5b82016020810184811115611b3c57600080fd5b8151856020820283011164010000000082111715611b5957600080fd5b50509291906020018051640100000000811115611b7557600080fd5b82016020810184811115611b8857600080fd5b8151856020820283011164010000000082111715611ba557600080fd5b50949750955060009450505050505b8251811015611bfb578581815181101515611bcb57fe5b906020019060200201518382815181101515611be357fe5b60209081029091010180519091019052600101611bb4565b611c098784848888426113d2565b50505050505050565b600080600080611c2185611338565b1515611c77576040805160e560020a62461bcd02815260206004820152601f60248201527f736574746c656d656e7420697320756e737570706f7274656420746f6b656e00604482015290519081900360640190fd5b33600090815260066020526040902054861115611cde576040805160e560020a62461bcd02815260206004820152601e60248201527f53436f696e2062616c616e636520697320696e73756666696369656e74210000604482015290519081900360640190fd5b851515611cea5761126d565b600a60009054906101000a9004600160a060020a0316600160a060020a03166373a3d4246040518163ffffffff1660e060020a028152600401602060405180830381600087803b158015611d3d57600080fd5b505af1158015611d51573d6000803e3d6000fd5b505050506040513d6020811015611d6757600080fd5b50519350611d73612075565b9250611d8a60085484612aec90919063ffffffff16565b9150611d9c868363ffffffff61299416565b905082611daf858363ffffffff612b2e16565b1161126d57611dc086868385612e53565b60408051878152905133917f925b1add21f66e1e2c8c9e9fffb3e0f4105df02dbd05c280f2fe4d19f5c50be5919081900360200190a2505050505050565b60408051606081018252602581527f45524332303a2064656372656173656420616c6c6f77616e63652062656c6f776020808301919091527f207a65726f0000000000000000000000000000000000000000000000000000008284015233600081815260078352848120600160a060020a0388168252909252928120549092610b539290918691610d7b9190879063ffffffff6128f716565b6000610b53338484612787565b600954600160a060020a031690565b600160a060020a03918216600090815260106020908152604080832093909416825291909152205490565b6000547501000000000000000000000000000000000000000000900460ff1681565b6000611f0a6113bc565b1515611f4e576040805160e560020a62461bcd0281526020600482018190526024820152600080516020613b4d833981519152604482015290519081900360640190fd5b611f5784612a6d565b9283555060019091015550565b600a54600160a060020a031690565b600060085460001415611f8b57506305f5e100610bbc565b600854611f96612075565b811515611f9f57fe5b04905090565b600160a060020a031660009081526002602052604090205490565b600080600a60009054906101000a9004600160a060020a0316600160a060020a03166373a3d4246040518163ffffffff1660e060020a028152600401602060405180830381600087803b15801561201657600080fd5b505af115801561202a573d6000803e3d6000fd5b505050506040513d602081101561204057600080fd5b5051905061204d81612a3e565b91505b5090565b600080600061206284612a6d565b8054600190910154909590945092505050565b60015460009081908180805b8383101561217357600180548490811061209757fe5b60009182526020808320909101546009546040805160e060020a6341976e09028152600160a060020a0393841660048201819052915191975091909216936341976e099360248084019491939192918390030190829087803b1580156120fc57600080fd5b505af1158015612110573d6000803e3d6000fd5b505050506040513d602081101561212657600080fd5b5051600160a060020a0383166000908152600d60205260409020549091506121669061215990839063ffffffff61299416565b869063ffffffff612b2e16565b9450600190920191612081565b5092949350505050565b600160a060020a03918216600090815260076020908152604080832093909416825291909152205490565b600f6020526000908152604090205481565b60038054829081106121c857fe5b60009182526020909120600290910201805460019091015490915082565b6121ee6113bc565b1515612232576040805160e560020a62461bcd0281526020600482018190526024820152600080516020613b4d833981519152604482015290519081900360640190fd5b610e3e60018261308b565b6122456113bc565b1515612289576040805160e560020a62461bcd0281526020600482018190526024820152600080516020613b4d833981519152604482015290519081900360640190fd5b600b91909155600c55565b606080606060006001805490506040519080825280602002602001820160405280156122ca578160200160208202803883390190505b509150600090505b60015481101561233457600260006001838154811015156122ef57fe5b6000918252602080832090910154600160a060020a03168352820192909252604001902054825183908390811061232257fe5b602090810290910101526001016122d2565b6001828180548060200260200160405190810160405280929190818152602001828054801561238c57602002820191906000526020600020905b8154600160a060020a0316815260019091019060200180831161236e575b505050505091509350935050509091565b6123a56113bc565b15156123e9576040805160e560020a62461bcd0281526020600482018190526024820152600080516020613b4d833981519152604482015290519081900360640190fd5b610e3e81613131565b6123fa6113bc565b151561243e576040805160e560020a62461bcd0281526020600482018190526024820152600080516020613b4d833981519152604482015290519081900360640190fd5b6000805491151575010000000000000000000000000000000000000000000275ff00000000000000000000000000000000000000000019909216919091179055565b610e3e60018054806020026020016040519081016040528092919081815260200182805480156124d957602002820191906000526020600020905b8154600160a060020a031681526001909101906020018083116124bb575b50505050508261322a565b600160a060020a0383161515612569576040805160e560020a62461bcd028152602060048201526024808201527f45524332303a20617070726f76652066726f6d20746865207a65726f2061646460448201527f7265737300000000000000000000000000000000000000000000000000000000606482015290519081900360840190fd5b600160a060020a03821615156125ef576040805160e560020a62461bcd02815260206004820152602260248201527f45524332303a20617070726f766520746f20746865207a65726f20616464726560448201527f7373000000000000000000000000000000000000000000000000000000000000606482015290519081900360840190fd5b600160a060020a03808416600081815260076020908152604080832094871680845294825291829020859055815185815291517f8c5be1e5ebec7d5bd14f71427d1e84f3dd0314c0f7b2291e5b200ac8c7c3b9259281900390910190a3505050565b600061269383836040805190810160405280601e81526020017f536166654d6174683a207375627472616374696f6e206f766572666c6f7700008152506128f7565b9392505050565b8154600090815b818110156126e95783600160a060020a031685828154811015156126c157fe5b600091825260209091200154600160a060020a031614156126e1576126e9565b6001016126a1565b8181101561277c576000198201811461276257846001830381548110151561270d57fe5b6000918252602090912001548554600160a060020a039091169086908390811061273357fe5b9060005260206000200160006101000a815481600160a060020a030219169083600160a060020a031602179055505b8454612772866000198301613b09565b5060019250610ed3565b506000949350505050565b600160a060020a038316151561280d576040805160e560020a62461bcd02815260206004820152602560248201527f45524332303a207472616e736665722066726f6d20746865207a65726f20616460448201527f6472657373000000000000000000000000000000000000000000000000000000606482015290519081900360840190fd5b600160a060020a0382161515612893576040805160e560020a62461bcd02815260206004820152602360248201527f45524332303a207472616e7366657220746f20746865207a65726f206164647260448201527f6573730000000000000000000000000000000000000000000000000000000000606482015290519081900360840190fd5b61289d838261328a565b6128a78282613359565b81600160a060020a031683600160a060020a03167fddf252ad1be2c89b69c2b068fc378daa952ba7f163c4a11628f55a4df523b3ef836040518082815260200191505060405180910390a3505050565b600080828585111561298a5760405160e560020a62461bcd0281526004018080602001828103825283818151815260200191508051906020019080838360005b8381101561294f578181015183820152602001612937565b50505050905090810190601f16801561297c5780820380516001836020036101000a031916815260200191505b509250505060405180910390fd5b5050509103919050565b6000808315156129a75760009150612a37565b508282028284828115156129b757fe5b0414612a33576040805160e560020a62461bcd02815260206004820152602160248201527f536166654d6174683a206d756c7469706c69636174696f6e206f766572666c6f60448201527f7700000000000000000000000000000000000000000000000000000000000000606482015290519081900360840190fd5b8091505b5092915050565b600b546000908190612a56908463ffffffff61299416565b600c5490915061269390829063ffffffff612aec16565b6003546000908210612ac9576040805160e560020a62461bcd02815260206004820152601260248201527f66656520747970652069732076616c6964210000000000000000000000000000604482015290519081900360640190fd5b6003805483908110612ad757fe5b90600052602060002090600202019050919050565b600061269383836040805190810160405280601a81526020017f536166654d6174683a206469766973696f6e206279207a65726f000000000000815250613408565b600082820183811015612a33576040805160e560020a62461bcd02815260206004820152601b60248201527f536166654d6174683a206164646974696f6e206f766572666c6f770000000000604482015290519081900360640190fd5b6000806000612b9985611338565b1515612bef576040805160e560020a62461bcd02815260206004820152601f60248201527f736574746c656d656e7420697320756e737570706f7274656420746f6b656e00604482015290519081900360640190fd5b60009150600160a060020a0385161515612c0b57349150612cb6565b6000841115612cb65750604080517f23b872dd0000000000000000000000000000000000000000000000000000000081523360048201523060248201526044810185905290518591600160a060020a038316916323b872dd916064808201926020929091908290030181600087803b158015612c8657600080fd5b505af1158015612c9a573d6000803e3d6000fd5b505050506040513d6020811015612cb057600080fd5b50849250505b509392505050565b600160a060020a038216600090815260026020526040902054612ce7908263ffffffff612b2e16565b600160a060020a038316600081815260026020908152604091829020939093558051848152905191927f1104eee7f034069140a0655d153038cedf9e65e5724018c555a8d56cfb6bee7792918290030190a25050565b600160a060020a0382161515612d9d576040805160e560020a62461bcd02815260206004820152601f60248201527f45524332303a206d696e7420746f20746865207a65726f206164647265737300604482015290519081900360640190fd5b600854612db0908263ffffffff612b2e16565b600855612dbd8282613359565b604080518281529051600160a060020a038416916000917fddf252ad1be2c89b69c2b068fc378daa952ba7f163c4a11628f55a4df523b3ef9181900360200190a35050565b8151600090815b8181101561277c5783600160a060020a03168582815181101515612e2957fe5b90602001906020020151600160a060020a03161415612e4b5760019250610ed3565b600101612e09565b33600090815260066020908152604080832054600f9092528220548291606091839182918291612e9991612e8d908d63ffffffff61299416565b9063ffffffff612aec16565b336000908152600f6020526040902054909650612ebc908763ffffffff61265116565b336000818152600f6020526040902091909155612ed9908b613474565b600154604080518281526020808402820101909152909550858015612f08578160200160208202803883390190505b509350612f16888a8961355f565b6001805460408051602080840282018101909252828152949c50929650612f7c9392830182828015612f7157602002820191906000526020600020905b8154600160a060020a03168152600190910190602001808311612f53575b50505050508a613706565b9150828483815181101515612f8d57fe5b602090810290910101525060005b600088118015612faa57508481105b1561300a57612fdd88600183815481101515612fc257fe5b600091825260209091200154600160a060020a03168961355f565b855191995093508390859083908110612ff257fe5b60209081029091010180519091019052600101612f9b565b60008811156130215761301e88868661375b565b93505b5060005b8481101561307f576130773360018381548110151561304057fe5b6000918252602090912001548651600160a060020a039091169087908590811061306657fe5b90602001906020020151600461397e565b600101613025565b50505050505050505050565b6130ee828054806020026020016040519081016040528092919081815260200182805480156130e357602002820191906000526020600020905b8154600160a060020a031681526001909101906020018083116130c5575b505050505082612e02565b151561312d57815460018101835560008381526020902001805473ffffffffffffffffffffffffffffffffffffffff1916600160a060020a0383161790555b5050565b600160a060020a03811615156131b7576040805160e560020a62461bcd02815260206004820152602660248201527f4f776e61626c653a206e6577206f776e657220697320746865207a65726f206160448201527f6464726573730000000000000000000000000000000000000000000000000000606482015290519081900360840190fd5b60008054604051600160a060020a038085169361010090930416917f8be0079c531659141344cd1fd0a4f28419497f9722a3daafe3b4186f6b6457e091a360008054600160a060020a039092166101000274ffffffffffffffffffffffffffffffffffffffff0019909216919091179055565b6132348282612e02565b151561312d576040805160e560020a62461bcd02815260206004820181905260248201527f77686974654c6973743a207573696e6720696e76616c69642061646472657373604482015290519081900360640190fd5b600160a060020a0382161515613310576040805160e560020a62461bcd02815260206004820152602360248201527f45524332303a207472616e7366657220746f20746865207a65726f206164647260448201527f6573730000000000000000000000000000000000000000000000000000000000606482015290519081900360840190fd5b600160a060020a038216600090815260066020526040902054613339908263ffffffff61265116565b600160a060020a0390921660009081526006602052604090209190915550565b600160a060020a03821615156133df576040805160e560020a62461bcd02815260206004820152602360248201527f45524332303a207472616e7366657220746f20746865207a65726f206164647260448201527f6573730000000000000000000000000000000000000000000000000000000000606482015290519081900360840190fd5b600160a060020a038216600090815260066020526040902054613339908263ffffffff612b2e16565b6000808281851161345e5760405160e560020a62461bcd0281526004018080602001828103825283818151815260200191508051906020019080838360008381101561294f578181015183820152602001612937565b50838581151561346a57fe5b0495945050505050565b600160a060020a03821615156134fa576040805160e560020a62461bcd02815260206004820152602160248201527f45524332303a206275726e2066726f6d20746865207a65726f2061646472657360448201527f7300000000000000000000000000000000000000000000000000000000000000606482015290519081900360840190fd5b613504828261328a565b600854613517908263ffffffff61265116565b600855604080518281529051600091600160a060020a038516917fddf252ad1be2c89b69c2b068fc378daa952ba7f163c4a11628f55a4df523b3ef9181900360200190a35050565b336000908152601060209081526040808320600160a060020a038616845290915281205481908180808084151561359c57899650600095506136f9565b6135ac888663ffffffff61299416565b600160a060020a038a166000908152600d6020908152604080832054600e909252909120549195506135e891612e8d908863ffffffff61299416565b9450848410156135f6578394505b84151561360957899650600095506136f9565b6009546040805160e060020a6341976e09028152600160a060020a038c81166004830152915191909216916341976e099160248083019260209291908290030181600087803b15801561365b57600080fd5b505af115801561366f573d6000803e3d6000fd5b505050506040513d602081101561368557600080fd5b505192506136998a8463ffffffff612aec16565b91508115156136ae57600096508695506136f9565b8482116136bb57816136bd565b845b9050848211156136f1576136e76136da828563ffffffff61299416565b8b9063ffffffff61265116565b81965096506136f9565b600096509450845b5050505050935093915050565b8151600090815b818110156137535783600160a060020a0316858281518110151561372d57fe5b90602001906020020151600160a060020a0316141561374b57613753565b60010161370d565b949350505050565b606060006060600080600080945087604051908082528060200260200182016040528015613793578160200160208202803883390190505b509350600092505b878310156138df5760018054849081106137b157fe5b6000918252602090912001548751600160a060020a03909116925061380d908890859081106137dc57fe5b6020908102909101810151600160a060020a0385166000908152600d9092526040909120549063ffffffff61265116565b848481518110151561381b57fe5b60209081029091018101919091526009546040805160e060020a6341976e09028152600160a060020a038681166004830152915191909216926341976e0992602480820193918290030181600087803b15801561387757600080fd5b505af115801561388b573d6000803e3d6000fd5b505050506040513d60208110156138a157600080fd5b505184519091506138d390612159908690869081106138bc57fe5b60209081029091010151839063ffffffff61299416565b5060019092019161379b565b8415156138eb57613972565b600092505b8783101561396e5761394b61392786612e8d8c888881518110151561391157fe5b602090810290910101519063ffffffff61299416565b888581518110151561393557fe5b602090810290910101519063ffffffff612b2e16565b878481518110151561395957fe5b602090810290910101526001909201916138f0565b8695505b50505050509392505050565b600082151561398c576139bc565b6139968284610e94565b90506139b285856139ad868563ffffffff61265116565b6139c3565b6139bc8482612cbe565b5050505050565b60008115156139d157613b03565b600160a060020a0383161515613a1d57604051600160a060020a0385169083156108fc029084906000818181858888f19350505050158015613a17573d6000803e3d6000fd5b50613ab7565b50604080517fa9059cbb000000000000000000000000000000000000000000000000000000008152600160a060020a038581166004830152602482018490529151849283169163a9059cbb9160448083019260209291908290030181600087803b158015613a8a57600080fd5b505af1158015613a9e573d6000803e3d6000fd5b505050506040513d6020811015613ab457600080fd5b50505b82600160a060020a031684600160a060020a03167f8aaaec2388cc390cde69685f78340e15f36d424b6b6b595f549dd883931f9c9b846040518082815260200191505060405180910390a35b50505050565b815481835581811115613b2d57600083815260209020613b2d918101908301613b32565b505050565b610bbc91905b808211156120505760008155600101613b3856004f776e61626c653a2063616c6c6572206973206e6f7420746865206f776e6572a165627a7a723058209f737cd7ec97c5670cec4354457a9750455069d4bf090fa29e2613adcc4934710029",
  "source": "pragma solidity ^0.4.26;\r\nimport \"./modules/SafeMath.sol\";\r\nimport \"./modules/ReentrancyGuard.sol\";\r\nimport \"./SharedCoin.sol\";\r\nimport \"./modules/underlyingAssets.sol\";\r\nimport \"./modules/TransactionFee.sol\";\r\nimport \"./interfaces/IOptionsPool.sol\";\r\nimport \"./interfaces/ICompoundOracle.sol\";\r\ncontract CollateralPool is ReentrancyGuard,TransactionFee,SharedCoin,ImportOracle,ImportOptionsPool {\r\n    using SafeMath for uint256;\r\n    fraction public collateralRate = fraction(3, 1);\r\n    //token net worth\r\n    mapping (address => uint256) public netWorthBalances;\r\n    //address collaterel\r\n    mapping (address => uint256) public collateralBalances;\r\n    //user paying for collateral usd;\r\n    mapping (address => uint256) public userCollateralPaying;\r\n    //account -> collateral -> amount\r\n    mapping (address => mapping (address => uint256)) public userInputCollateral;\r\n\r\n    event AddCollateral(address indexed from,address indexed collateral,uint256 amount,uint256 tokenAmount);\r\n    event RedeemCollateral(address indexed from,uint256 tokenAmount);\r\n\r\n    event DebugEvent(uint256 indexed value1,uint256 indexed value2,uint256 indexed value3);\r\n\r\n    function setCollateralRate(uint256 numerator,uint256 denominator) public onlyOwner {\r\n        collateralRate.numerator = numerator;\r\n        collateralRate.denominator = denominator;\r\n    }\r\n    function getCollateralRate()public view returns (uint256,uint256) {\r\n        return (collateralRate.numerator,collateralRate.denominator);\r\n    }\r\n    function getUserPayingUsd(address user)public view returns (uint256){\r\n        return userCollateralPaying[user];\r\n    }\r\n    function userInputCollateral(address user,address collateral)public view returns (uint256){\r\n        return userInputCollateral[user][collateral];\r\n    }\r\n    function setPhaseSharedPayment(uint256 index) public onlyOwner {\r\n        (uint256[] memory sharedBalances,uint256 firstOption,uint256 blockNumber) = _optionsPool.calculatePhaseSharedPayment(index,whiteList);\r\n        (int256[] memory fallBalance,uint256[] memory prices) = _optionsPool.calculatePhaseOptionsFall(index,whiteList);\r\n        for (uint256 i= 0;i<fallBalance.length;i++){\r\n            fallBalance[i] += int256(sharedBalances[i]);\r\n        }\r\n        setSharedPayment(index,fallBalance,prices,firstOption,blockNumber,now);\r\n    }\r\n    function setSharedPayment(uint256 index,int256[] sharedBalances,uint256[] prices,uint256 firstOption,uint256 lastBlock,uint256 calTime) public onlyOwner{\r\n        _optionsPool.setSharedState(index,firstOption,prices,lastBlock,calTime);\r\n        for (uint i=0;i<sharedBalances.length;i++){\r\n            address addr = whiteList[i];\r\n            if(sharedBalances[i]>=0){\r\n                netWorthBalances[addr] = netWorthBalances[addr].add(uint256(sharedBalances[i]));\r\n            }else{\r\n                netWorthBalances[addr] = netWorthBalances[addr].sub(uint256(-sharedBalances[i]));\r\n            }\r\n        }\r\n    }\r\n    function getTokenNetworth() public view returns (uint256){\r\n        if (_totalSupply == 0){\r\n            return 1e8;\r\n        }\r\n        return getTotalCollateral()/_totalSupply;\r\n    }\r\n    function addCollateral(address collateral,uint256 amount)public payable {\r\n        amount = getPayableAmount(collateral,amount);\r\n        require(amount>0 , \"settlement amount is zero!\");\r\n        uint256 fee = calculateFee(addColFee,amount);\r\n        _addTransactionFee(collateral,fee);\r\n        amount = amount.sub(fee);\r\n        uint256 price = _oracle.getPrice(collateral);\r\n        uint256 userPaying = price.mul(amount);\r\n        uint256 mintAmount = userPaying.div(getTokenNetworth());\r\n        userCollateralPaying[msg.sender] = userCollateralPaying[msg.sender].add(userPaying);\r\n        collateralBalances[collateral] = collateralBalances[collateral].add(amount);\r\n        userInputCollateral[msg.sender][collateral] = userInputCollateral[msg.sender][collateral].add(amount);\r\n        netWorthBalances[collateral] = netWorthBalances[collateral].add(amount);\r\n        emit AddCollateral(msg.sender,collateral,amount,mintAmount);\r\n        _mint(msg.sender,mintAmount);\r\n    }\r\n    //calculate token\r\n    function redeemCollateral(uint256 tokenAmount,address collateral)public {\r\n        require(isEligibleAddress(collateral) , \"settlement is unsupported token\");\r\n        require(balances[msg.sender]>=tokenAmount,\"SCoin balance is insufficient!\");\r\n        if (tokenAmount == 0){\r\n            return;\r\n        }\r\n        uint256 totalOccupied = _optionsPool.getTotalOccupiedCollateral();\r\n        uint256 totalWorth = getTotalCollateral();\r\n        uint256 tokenNetWorth = totalWorth.div(_totalSupply);\r\n        uint256 redeemWorth = tokenAmount.mul(tokenNetWorth);\r\n        if (totalOccupied.add(redeemWorth)<=totalWorth) {\r\n            _redeemCollateral(tokenAmount,collateral,redeemWorth,tokenNetWorth);\r\n            emit RedeemCollateral(msg.sender,tokenAmount);\r\n        }\r\n    }\r\n    function _redeemCollateral(uint256 tokenAmount,address collateral,uint256 redeemWorth,uint256 tokenNetWorth) internal {\r\n        uint256 redeemPaying = userCollateralPaying[msg.sender].mul(tokenAmount).div(balances[msg.sender]);\r\n        userCollateralPaying[msg.sender] = userCollateralPaying[msg.sender].sub(redeemPaying);\r\n        _burn(msg.sender, tokenAmount);\r\n        uint whiteLen = whiteList.length;\r\n        uint256[] memory paybackcal = new uint256[](whiteLen);\r\n        uint256 payBack;\r\n        (redeemWorth,payBack) = _calPayBackCollateral(redeemWorth,collateral,tokenNetWorth);\r\n        uint256 index = whiteListAddress._getEligibleIndexAddress(whiteList,collateral);\r\n        paybackcal[index] = payBack;\r\n        for (uint256 i=0;redeemWorth>0 && i<whiteLen;i++){\r\n            (redeemWorth,payBack) = _calPayBackCollateral(redeemWorth,whiteList[i],tokenNetWorth);  \r\n            paybackcal[i] += payBack;\r\n        } \r\n        if (redeemWorth > 0){\r\n            paybackcal = _calPremiumPayback(redeemWorth,whiteLen,paybackcal);\r\n        }\r\n        for (i=0;i<whiteLen;i++){\r\n            _transferPaybackAndFee(msg.sender,whiteList[i],paybackcal[i],redeemColFee);\r\n        } \r\n    }\r\n    function _calPremiumPayback(uint256 worth,uint256 whiteLen,uint256[] memory paybackcal)internal view returns(uint256[] memory){\r\n        uint256 totalPrice = 0;\r\n        uint256[] memory PremiumBalances = new uint256[](whiteLen);\r\n        for (uint256 i=0; i<whiteLen;i++){\r\n            address addr = whiteList[i];\r\n            PremiumBalances[i] = netWorthBalances[addr].sub(paybackcal[i]);\r\n            uint256 price = _oracle.getPrice(addr);\r\n            totalPrice.add(price.mul(PremiumBalances[i]));\r\n        } \r\n                \r\n        if (totalPrice == 0){\r\n            return;\r\n        }\r\n        for (i=0;i<whiteLen;i++){\r\n            paybackcal[i] = paybackcal[i].add(PremiumBalances[i].mul(worth).div(totalPrice));\r\n        } \r\n        return paybackcal;\r\n    }\r\n    function _calPayBackCollateral(uint256 worth,address collateral,uint256 tokenNetWorth)internal view returns (uint256,uint256){\r\n        uint256 amount = userInputCollateral[msg.sender][collateral];\r\n        if (amount == 0){\r\n            return (worth,0);\r\n        }\r\n        uint netAmount = tokenNetWorth.mul(amount);\r\n        amount = collateralBalances[collateral].mul(amount).div(netWorthBalances[collateral]);\r\n        if (netAmount<amount){\r\n            amount = netAmount;\r\n        }\r\n        if (amount == 0){\r\n            return (worth,0);\r\n        }\r\n        uint256 price = _oracle.getPrice(collateral);\r\n        uint256 redeemAmount = worth.div(price);\r\n        if (redeemAmount == 0){\r\n            return (0,0);\r\n        }\r\n        uint256 transferAmount = (redeemAmount>amount) ? amount : redeemAmount;\r\n        if (redeemAmount>amount){\r\n            return (worth.sub(transferAmount.mul(price)),transferAmount);\r\n        }\r\n        return (0,transferAmount);\r\n    }\r\n    function getOccupiedCollateral() public view returns(uint256){\r\n        uint256 totalOccupied = _optionsPool.getTotalOccupiedCollateral();\r\n        return calculateCollateral(totalOccupied);\r\n    }\r\n    function getLeftCollateral()public view returns(uint256){\r\n        return getTotalCollateral().sub(getOccupiedCollateral());\r\n    }\r\n    function calOptionsOccupied(uint256 strikePrice,uint256 underlyingPrice,uint256 amount,uint8 optType)public view returns(uint256){\r\n        uint256 totalOccupied = 0;\r\n        if ((optType == 0) == (strikePrice>underlyingPrice)){ // call\r\n            totalOccupied = strikePrice.mul(amount);\r\n        } else {\r\n            totalOccupied = underlyingPrice.mul(amount);\r\n        }\r\n        return calculateCollateral(totalOccupied);\r\n    }\r\n    function getTotalCollateral()public view returns(uint256){\r\n        uint256 totalNum = 0;\r\n        uint whiteListLen = whiteList.length;\r\n        for (uint256 i=0;i<whiteListLen;i++){\r\n            address addr = whiteList[i];\r\n            uint256 price = _oracle.getPrice(addr);\r\n            totalNum = totalNum.add(price.mul(netWorthBalances[addr]));\r\n        }\r\n        return totalNum;  \r\n    }\r\n\r\n    function _paybackWorth(uint256 worth,uint256 feeType) internal {\r\n        uint256 totalPrice = 0;\r\n        uint whiteLen = whiteList.length;\r\n        uint256[] memory balances = new uint256[](whiteLen);\r\n        for (uint256 i=0;i<whiteLen;i++){\r\n            address addr = whiteList[i];\r\n            uint256 price = _oracle.getPrice(addr);\r\n            balances[i] = netWorthBalances[addr];\r\n            totalPrice.add(price.mul(balances[i]));\r\n        }\r\n        if (totalPrice == 0){\r\n            return;\r\n        }\r\n        for (i=0;i<whiteLen;i++){\r\n            uint256 _payBack = balances[i].mul(worth).div(totalPrice);\r\n            netWorthBalances[addr] = balances[i].sub(_payBack);\r\n            _transferPaybackAndFee(msg.sender,addr,_payBack,feeType);\r\n        } \r\n    }\r\n    function getPayableAmount(address settlement,uint256 settlementAmount) internal returns (uint256) {\r\n        require(isEligibleAddress(settlement) , \"settlement is unsupported token\");\r\n        uint256 colAmount = 0;\r\n        if (settlement == address(0)){\r\n            colAmount = msg.value;\r\n        }else if (settlementAmount > 0){\r\n            IERC20 oToken = IERC20(settlement);\r\n            oToken.transferFrom(msg.sender, address(this), settlementAmount);\r\n            colAmount = settlementAmount;\r\n        }\r\n        return colAmount;\r\n    }\r\n    function calculateCollateral(uint256 amount)internal view returns (uint256){\r\n        uint256 result = collateralRate.numerator.mul(amount);\r\n        return result.div(collateralRate.denominator);\r\n    }\r\n\r\n}",
  "sourcePath": "C:\\work\\solidity\\FinnexusOptions_V2\\contracts\\CollateralPool.sol",
  "compiler": {
    "name": "solc",
    "version": "0.4.26+commit.4563c3fc.Emscripten.clang"
  },
  "schemaVersion": "3.1.0",
  "updatedAt": "2020-07-22T03:23:54.017Z",
  "devdoc": {
    "methods": {
      "addWhiteList(address)": {
        "details": "Implementation of add an eligible address into the whitelist.\r",
        "params": {
          "addAddress": "new eligible address.\r"
        }
      },
      "allowance(address,address)": {
        "details": "See {IERC20-allowance}.\r"
      },
      "approve(address,uint256)": {
        "details": "See {IERC20-approve}.\r      * Requirements:\r      * - `spender` cannot be the zero address.\r"
      },
      "balanceOf(address)": {
        "details": "See {IERC20-balanceOf}.\r"
      },
      "decreaseAllowance(address,uint256)": {
        "details": "Atomically decreases the allowance granted to `spender` by the caller.\r      * This is an alternative to {approve} that can be used as a mitigation for\r problems described in {IERC20-approve}.\r      * Emits an {Approval} event indicating the updated allowance.\r      * Requirements:\r      * - `spender` cannot be the zero address.\r - `spender` must have allowance for the caller of at least\r `subtractedValue`.\r"
      },
      "getWhiteList()": {
        "details": "Implementation of getting the eligible whitelist.\r"
      },
      "increaseAllowance(address,uint256)": {
        "details": "Atomically increases the allowance granted to `spender` by the caller.\r      * This is an alternative to {approve} that can be used as a mitigation for\r problems described in {IERC20-approve}.\r      * Emits an {Approval} event indicating the updated allowance.\r      * Requirements:\r      * - `spender` cannot be the zero address.\r"
      },
      "isEligibleAddress(address)": {
        "details": "Implementation of testing whether the input address is eligible.\r",
        "params": {
          "tmpAddress": "input address for testing.\r"
        }
      },
      "isOwner()": {
        "details": "Returns true if the caller is the current owner."
      },
      "owner()": {
        "details": "Returns the address of the current owner."
      },
      "removeWhiteList(address)": {
        "details": "Implementation of revoke an invalid address from the whitelist.\r",
        "params": {
          "removeAddress": "revoked address.\r"
        }
      },
      "renounceOwnership()": {
        "details": "Leaves the contract without owner. It will not be possible to call `onlyOwner` functions anymore. Can only be called by the current owner.     * NOTE: Renouncing ownership will leave the contract without an owner, thereby removing any functionality that is only available to the owner."
      },
      "setTransactionFee(uint256,uint256,uint256)": {
        "details": "set the rate of trasaction fee.\r",
        "params": {
          "denominator": "thedenominator of transaction fee.\r transaction fee = numerator/denominator;\r",
          "feeType": "the transaction fee type\r",
          "numerator": "the numerator of transaction fee .\r"
        }
      },
      "totalSupply()": {
        "details": "See {IERC20-totalSupply}.\r"
      },
      "transfer(address,uint256)": {
        "details": "See {IERC20-transfer}.\r      * Requirements:\r      * - `recipient` cannot be the zero address.\r - the caller must have a balance of at least `amount`.\r"
      },
      "transferFrom(address,address,uint256)": {
        "details": "See {IERC20-transferFrom}.\r      * Emits an {Approval} event indicating the updated allowance. This is not\r required by the EIP. See the note at the beginning of {ERC20};\r      * Requirements:\r - `sender` and `recipient` cannot be the zero address.\r - `sender` must have a balance of at least `amount`.\r - the caller must have allowance for `sender`'s tokens of at least\r `amount`.\r"
      },
      "transferOwnership(address)": {
        "details": "Transfers ownership of the contract to a new account (`newOwner`). Can only be called by the current owner."
      }
    }
  },
  "userdoc": {
    "methods": {
      "setHalt(bool)": {
        "notice": "function Emergency situation that requires contribution period to stop or not."
      }
    }
  }
}