{
  "contractName": "CollateralPool",
  "abi": [
    {
      "constant": true,
      "inputs": [
        {
          "name": "tmpAddress",
          "type": "address"
        }
      ],
      "name": "checkAddressRedeemOut",
      "outputs": [
        {
          "name": "",
          "type": "bool"
        }
      ],
      "payable": false,
      "stateMutability": "view",
      "type": "function"
    },
    {
      "constant": true,
      "inputs": [],
      "name": "getWhiteList",
      "outputs": [
        {
          "name": "",
          "type": "address[]"
        }
      ],
      "payable": false,
      "stateMutability": "view",
      "type": "function"
    },
    {
      "constant": false,
      "inputs": [
        {
          "name": "removeAddress",
          "type": "address"
        }
      ],
      "name": "removeWhiteList",
      "outputs": [
        {
          "name": "",
          "type": "bool"
        }
      ],
      "payable": false,
      "stateMutability": "nonpayable",
      "type": "function"
    },
    {
      "constant": false,
      "inputs": [],
      "name": "redeemAll",
      "outputs": [],
      "payable": false,
      "stateMutability": "nonpayable",
      "type": "function"
    },
    {
      "constant": true,
      "inputs": [
        {
          "name": "feeType",
          "type": "uint256"
        },
        {
          "name": "amount",
          "type": "uint256"
        }
      ],
      "name": "calculateFee",
      "outputs": [
        {
          "name": "",
          "type": "uint256"
        }
      ],
      "payable": false,
      "stateMutability": "view",
      "type": "function"
    },
    {
      "constant": false,
      "inputs": [],
      "name": "renounceOwnership",
      "outputs": [],
      "payable": false,
      "stateMutability": "nonpayable",
      "type": "function"
    },
    {
      "constant": true,
      "inputs": [
        {
          "name": "tmpAddress",
          "type": "address"
        }
      ],
      "name": "isEligibleAddress",
      "outputs": [
        {
          "name": "",
          "type": "bool"
        }
      ],
      "payable": false,
      "stateMutability": "view",
      "type": "function"
    },
    {
      "constant": true,
      "inputs": [],
      "name": "owner",
      "outputs": [
        {
          "name": "",
          "type": "address"
        }
      ],
      "payable": false,
      "stateMutability": "view",
      "type": "function"
    },
    {
      "constant": true,
      "inputs": [],
      "name": "isOwner",
      "outputs": [
        {
          "name": "",
          "type": "bool"
        }
      ],
      "payable": false,
      "stateMutability": "view",
      "type": "function"
    },
    {
      "constant": false,
      "inputs": [
        {
          "name": "currency",
          "type": "address"
        }
      ],
      "name": "redeem",
      "outputs": [],
      "payable": false,
      "stateMutability": "nonpayable",
      "type": "function"
    },
    {
      "constant": true,
      "inputs": [
        {
          "name": "tmpAddress",
          "type": "address"
        }
      ],
      "name": "checkAddressPayIn",
      "outputs": [
        {
          "name": "",
          "type": "bool"
        }
      ],
      "payable": false,
      "stateMutability": "view",
      "type": "function"
    },
    {
      "constant": false,
      "inputs": [
        {
          "name": "feeType",
          "type": "uint256"
        },
        {
          "name": "numerator",
          "type": "uint256"
        },
        {
          "name": "denominator",
          "type": "uint256"
        }
      ],
      "name": "setTransactionFee",
      "outputs": [],
      "payable": false,
      "stateMutability": "nonpayable",
      "type": "function"
    },
    {
      "constant": false,
      "inputs": [
        {
          "name": "addAddress",
          "type": "address"
        },
        {
          "name": "permission",
          "type": "uint256"
        }
      ],
      "name": "modifyPermission",
      "outputs": [],
      "payable": false,
      "stateMutability": "nonpayable",
      "type": "function"
    },
    {
      "constant": true,
      "inputs": [
        {
          "name": "settlement",
          "type": "address"
        }
      ],
      "name": "getFeeBalance",
      "outputs": [
        {
          "name": "",
          "type": "uint256"
        }
      ],
      "payable": false,
      "stateMutability": "view",
      "type": "function"
    },
    {
      "constant": false,
      "inputs": [
        {
          "name": "managerAddress",
          "type": "address"
        }
      ],
      "name": "setManager",
      "outputs": [],
      "payable": false,
      "stateMutability": "nonpayable",
      "type": "function"
    },
    {
      "constant": true,
      "inputs": [
        {
          "name": "feeType",
          "type": "uint256"
        }
      ],
      "name": "getFeeRate",
      "outputs": [
        {
          "name": "",
          "type": "uint256"
        },
        {
          "name": "",
          "type": "uint256"
        }
      ],
      "payable": false,
      "stateMutability": "view",
      "type": "function"
    },
    {
      "constant": true,
      "inputs": [],
      "name": "getManager",
      "outputs": [
        {
          "name": "",
          "type": "address"
        }
      ],
      "payable": false,
      "stateMutability": "view",
      "type": "function"
    },
    {
      "constant": false,
      "inputs": [
        {
          "name": "addAddress",
          "type": "address"
        }
      ],
      "name": "addWhiteList",
      "outputs": [],
      "payable": false,
      "stateMutability": "nonpayable",
      "type": "function"
    },
    {
      "constant": true,
      "inputs": [],
      "name": "getAllFeeBalances",
      "outputs": [
        {
          "name": "",
          "type": "address[]"
        },
        {
          "name": "",
          "type": "uint256[]"
        }
      ],
      "payable": false,
      "stateMutability": "view",
      "type": "function"
    },
    {
      "constant": false,
      "inputs": [
        {
          "name": "newOwner",
          "type": "address"
        }
      ],
      "name": "transferOwnership",
      "outputs": [],
      "payable": false,
      "stateMutability": "nonpayable",
      "type": "function"
    },
    {
      "constant": false,
      "inputs": [
        {
          "name": "halt",
          "type": "bool"
        }
      ],
      "name": "setHalt",
      "outputs": [],
      "payable": false,
      "stateMutability": "nonpayable",
      "type": "function"
    },
    {
      "payable": true,
      "stateMutability": "payable",
      "type": "fallback"
    },
    {
      "anonymous": false,
      "inputs": [
        {
          "indexed": true,
          "name": "recieptor",
          "type": "address"
        },
        {
          "indexed": true,
          "name": "settlement",
          "type": "address"
        },
        {
          "indexed": false,
          "name": "payback",
          "type": "uint256"
        }
      ],
      "name": "RedeemFee",
      "type": "event"
    },
    {
      "anonymous": false,
      "inputs": [
        {
          "indexed": true,
          "name": "settlement",
          "type": "address"
        },
        {
          "indexed": false,
          "name": "payback",
          "type": "uint256"
        }
      ],
      "name": "AddFee",
      "type": "event"
    },
    {
      "anonymous": false,
      "inputs": [
        {
          "indexed": true,
          "name": "recieptor",
          "type": "address"
        },
        {
          "indexed": true,
          "name": "settlement",
          "type": "address"
        },
        {
          "indexed": false,
          "name": "payback",
          "type": "uint256"
        }
      ],
      "name": "TransferPayback",
      "type": "event"
    },
    {
      "anonymous": false,
      "inputs": [
        {
          "indexed": true,
          "name": "previousOwner",
          "type": "address"
        },
        {
          "indexed": true,
          "name": "newOwner",
          "type": "address"
        }
      ],
      "name": "OwnershipTransferred",
      "type": "event"
    },
    {
      "constant": false,
      "inputs": [
        {
          "name": "collateral",
          "type": "address"
        },
        {
          "name": "amount",
          "type": "uint256"
        },
        {
          "name": "feeType",
          "type": "uint256"
        }
      ],
      "name": "addTransactionFee",
      "outputs": [
        {
          "name": "",
          "type": "uint256"
        }
      ],
      "payable": false,
      "stateMutability": "nonpayable",
      "type": "function"
    },
    {
      "constant": true,
      "inputs": [
        {
          "name": "user",
          "type": "address"
        }
      ],
      "name": "getUserPayingUsd",
      "outputs": [
        {
          "name": "",
          "type": "uint256"
        }
      ],
      "payable": false,
      "stateMutability": "view",
      "type": "function"
    },
    {
      "constant": true,
      "inputs": [
        {
          "name": "user",
          "type": "address"
        },
        {
          "name": "collateral",
          "type": "address"
        }
      ],
      "name": "getUserInputCollateral",
      "outputs": [
        {
          "name": "",
          "type": "uint256"
        }
      ],
      "payable": false,
      "stateMutability": "view",
      "type": "function"
    },
    {
      "constant": true,
      "inputs": [
        {
          "name": "collateral",
          "type": "address"
        }
      ],
      "name": "getNetWorthBalance",
      "outputs": [
        {
          "name": "",
          "type": "int256"
        }
      ],
      "payable": false,
      "stateMutability": "view",
      "type": "function"
    },
    {
      "constant": true,
      "inputs": [
        {
          "name": "collateral",
          "type": "address"
        }
      ],
      "name": "getCollateralBalance",
      "outputs": [
        {
          "name": "",
          "type": "uint256"
        }
      ],
      "payable": false,
      "stateMutability": "view",
      "type": "function"
    },
    {
      "constant": false,
      "inputs": [
        {
          "name": "user",
          "type": "address"
        },
        {
          "name": "amount",
          "type": "uint256"
        }
      ],
      "name": "addUserPayingUsd",
      "outputs": [],
      "payable": false,
      "stateMutability": "nonpayable",
      "type": "function"
    },
    {
      "constant": false,
      "inputs": [
        {
          "name": "user",
          "type": "address"
        },
        {
          "name": "collateral",
          "type": "address"
        },
        {
          "name": "amount",
          "type": "uint256"
        }
      ],
      "name": "addUserInputCollateral",
      "outputs": [],
      "payable": false,
      "stateMutability": "nonpayable",
      "type": "function"
    },
    {
      "constant": false,
      "inputs": [
        {
          "name": "whiteList",
          "type": "address[]"
        },
        {
          "name": "newNetworth",
          "type": "int256[]"
        }
      ],
      "name": "addNetWorthBalances",
      "outputs": [],
      "payable": false,
      "stateMutability": "nonpayable",
      "type": "function"
    },
    {
      "constant": false,
      "inputs": [
        {
          "name": "collateral",
          "type": "address"
        },
        {
          "name": "amount",
          "type": "int256"
        }
      ],
      "name": "addNetWorthBalance",
      "outputs": [],
      "payable": false,
      "stateMutability": "nonpayable",
      "type": "function"
    },
    {
      "constant": false,
      "inputs": [
        {
          "name": "collateral",
          "type": "address"
        },
        {
          "name": "amount",
          "type": "uint256"
        }
      ],
      "name": "addCollateralBalance",
      "outputs": [],
      "payable": false,
      "stateMutability": "nonpayable",
      "type": "function"
    },
    {
      "constant": false,
      "inputs": [
        {
          "name": "user",
          "type": "address"
        },
        {
          "name": "amount",
          "type": "uint256"
        }
      ],
      "name": "subUserPayingUsd",
      "outputs": [],
      "payable": false,
      "stateMutability": "nonpayable",
      "type": "function"
    },
    {
      "constant": false,
      "inputs": [
        {
          "name": "user",
          "type": "address"
        },
        {
          "name": "collateral",
          "type": "address"
        },
        {
          "name": "amount",
          "type": "uint256"
        }
      ],
      "name": "subUserInputCollateral",
      "outputs": [],
      "payable": false,
      "stateMutability": "nonpayable",
      "type": "function"
    },
    {
      "constant": false,
      "inputs": [
        {
          "name": "collateral",
          "type": "address"
        },
        {
          "name": "amount",
          "type": "int256"
        }
      ],
      "name": "subNetWorthBalance",
      "outputs": [],
      "payable": false,
      "stateMutability": "nonpayable",
      "type": "function"
    },
    {
      "constant": false,
      "inputs": [
        {
          "name": "collateral",
          "type": "address"
        },
        {
          "name": "amount",
          "type": "uint256"
        }
      ],
      "name": "subCollateralBalance",
      "outputs": [],
      "payable": false,
      "stateMutability": "nonpayable",
      "type": "function"
    },
    {
      "constant": false,
      "inputs": [
        {
          "name": "user",
          "type": "address"
        },
        {
          "name": "amount",
          "type": "uint256"
        }
      ],
      "name": "setUserPayingUsd",
      "outputs": [],
      "payable": false,
      "stateMutability": "nonpayable",
      "type": "function"
    },
    {
      "constant": false,
      "inputs": [
        {
          "name": "user",
          "type": "address"
        },
        {
          "name": "collateral",
          "type": "address"
        },
        {
          "name": "amount",
          "type": "uint256"
        }
      ],
      "name": "setUserInputCollateral",
      "outputs": [],
      "payable": false,
      "stateMutability": "nonpayable",
      "type": "function"
    },
    {
      "constant": false,
      "inputs": [
        {
          "name": "collateral",
          "type": "address"
        },
        {
          "name": "amount",
          "type": "int256"
        }
      ],
      "name": "setNetWorthBalance",
      "outputs": [],
      "payable": false,
      "stateMutability": "nonpayable",
      "type": "function"
    },
    {
      "constant": false,
      "inputs": [
        {
          "name": "collateral",
          "type": "address"
        },
        {
          "name": "amount",
          "type": "uint256"
        }
      ],
      "name": "setCollateralBalance",
      "outputs": [],
      "payable": false,
      "stateMutability": "nonpayable",
      "type": "function"
    },
    {
      "constant": false,
      "inputs": [
        {
          "name": "recieptor",
          "type": "address"
        },
        {
          "name": "settleMent",
          "type": "address"
        },
        {
          "name": "payback",
          "type": "uint256"
        },
        {
          "name": "feeType",
          "type": "uint256"
        }
      ],
      "name": "transferPaybackAndFee",
      "outputs": [],
      "payable": false,
      "stateMutability": "nonpayable",
      "type": "function"
    },
    {
      "constant": false,
      "inputs": [
        {
          "name": "recieptor",
          "type": "address"
        },
        {
          "name": "settlement",
          "type": "address"
        },
        {
          "name": "payback",
          "type": "uint256"
        }
      ],
      "name": "transferPayback",
      "outputs": [],
      "payable": false,
      "stateMutability": "nonpayable",
      "type": "function"
    },
    {
      "constant": false,
      "inputs": [
        {
          "name": "account",
          "type": "address"
        },
        {
          "name": "redeemWorth",
          "type": "uint256"
        },
        {
          "name": "tmpWhiteList",
          "type": "address[]"
        },
        {
          "name": "colBalances",
          "type": "uint256[]"
        },
        {
          "name": "PremiumBalances",
          "type": "uint256[]"
        },
        {
          "name": "prices",
          "type": "uint256[]"
        }
      ],
      "name": "transferPaybackBalances",
      "outputs": [],
      "payable": false,
      "stateMutability": "nonpayable",
      "type": "function"
    },
    {
      "constant": true,
      "inputs": [
        {
          "name": "account",
          "type": "address"
        },
        {
          "name": "userTotalWorth",
          "type": "uint256"
        },
        {
          "name": "tmpWhiteList",
          "type": "address[]"
        },
        {
          "name": "_RealBalances",
          "type": "uint256[]"
        },
        {
          "name": "prices",
          "type": "uint256[]"
        }
      ],
      "name": "getCollateralAndPremiumBalances",
      "outputs": [
        {
          "name": "",
          "type": "uint256[]"
        },
        {
          "name": "",
          "type": "uint256[]"
        }
      ],
      "payable": false,
      "stateMutability": "view",
      "type": "function"
    }
  ],
  "bytecode": "0x608060408190526001805460a060020a60ff021916905560008054600160a060020a0319163317808255600160a060020a0316917f8be0079c531659141344cd1fd0a4f28419497f9722a3daafe3b4186f6b6457e0908290a360408051808201825260008082526103e860208084018281526005805460018181018355828752965160029182027f036b6384b5eca791c62761152d0c79bb0604c104a5fb6f4eb0703f3154bb3db08181019290925593517f036b6384b5eca791c62761152d0c79bb0604c104a5fb6f4eb0703f3154bb3db1948501558851808a018a52603281528086018781528454808b018655858a5291519184028084019290925551908501558851808a018a528781528086018781528454808b018655858a5291519184028084019290925551908501558851808a018a528781528086018781528454808b018655858a5291519184028084019290925551908501558851808a01909952868952938801948552815496870182559452945193909202918201929092559051910155612ed0806101926000396000f30060806040526004361061020e5763ffffffff7c0100000000000000000000000000000000000000000000000000000000600035041663059621d7811461027257806309a9d76c146102a75780631f88286a1461030c5780632042e5c21461039a57806322f0975f146103bb5780632454047c146103df5780632703ee851461040c5780632b2d50c31461043f5780632f4350c21461046357806334e731221461047857806342049a72146104935780635af107c5146104b45780635ed74bfd146104d8578063632ba2b5146105025780636560a9e714610526578063692a76a71461054a5780636b6ecea81461056e5780636ba170b51461058f578063715018a6146105b65780637a3e51d8146105cb5780637a6a0277146105ef578063817bf86d146107615780638da5cb5b146107825780638f32d59b146107b357806395a2251f146107c85780639994eb14146107e9578063a2fa92c714610813578063b8446de114610925578063bdac4bf61461094f578063bf36b11014610970578063c219043b1461098e578063c3c579cc146109b2578063c78f6803146109d9578063d0ebdbe7146109fa578063d2aaef4e14610a1b578063d500958414610a4c578063d56dbe8814610a61578063e7cd4a0414610a8b578063f20568cd14610aac578063f2706e9b14610ac1578063f2fde38b14610ae5578063f495438714610b06578063fee80a4914610b20575b600154600160a060020a03163314610270576040805160e560020a62461bcd0281526020600482015260266024820152600080516020612e65833981519152604482015260d160020a6530b730b3b2b902606482015290519081900360840190fd5b005b34801561027e57600080fd5b50610293600160a060020a0360043516610b44565b604080519115158252519081900360200190f35b3480156102b357600080fd5b506102bc610b7c565b60408051602080825283518183015283519192839290830191858101910280838360005b838110156102f85781810151838201526020016102e0565b505050509050019250505060405180910390f35b34801561031857600080fd5b506040805160206004803580820135838102808601850190965280855261027095369593946024949385019291829185019084908082843750506040805187358901803560208181028481018201909552818452989b9a998901989297509082019550935083925085019084908082843750949750610bdf9650505050505050565b3480156103a657600080fd5b50610293600160a060020a0360043516610cef565b3480156103c757600080fd5b50610270600160a060020a0360043516602435610d48565b3480156103eb57600080fd5b50610270600160a060020a0360043581169060243516604435606435610dc6565b34801561041857600080fd5b5061042d600160a060020a0360043516610e59565b60408051918252519081900360200190f35b34801561044b57600080fd5b50610270600160a060020a0360043516602435610e74565b34801561046f57600080fd5b50610270610f1f565b34801561048457600080fd5b5061042d600435602435610fb2565b34801561049f57600080fd5b5061042d600160a060020a0360043516610ff2565b3480156104c057600080fd5b50610270600160a060020a036004351660243561100d565b3480156104e457600080fd5b50610270600160a060020a036004358116906024351660443561108b565b34801561050e57600080fd5b50610270600160a060020a0360043516602435611119565b34801561053257600080fd5b50610270600160a060020a0360043516602435611197565b34801561055657600080fd5b50610270600160a060020a0360043516602435611242565b34801561057a57600080fd5b5061042d600160a060020a03600435166112cd565b34801561059b57600080fd5b5061042d600160a060020a03600435811690602435166112e8565b3480156105c257600080fd5b50610270611313565b3480156105d757600080fd5b50610270600160a060020a03600435166024356113b6565b3480156105fb57600080fd5b5060408051602060046044358181013583810280860185019096528085526106c8958335600160a060020a0316956024803596369695606495939492019291829185019084908082843750506040805187358901803560208181028481018201909552818452989b9a998901989297509082019550935083925085019084908082843750506040805187358901803560208181028481018201909552818452989b9a9989019892975090820195509350839250850190849080828437509497506114419650505050505050565b604051808060200180602001838103835285818151815260200191508051906020019060200280838360005b8381101561070c5781810151838201526020016106f4565b50505050905001838103825284818151815260200191508051906020019060200280838360005b8381101561074b578181015183820152602001610733565b5050505090500194505050505060405180910390f35b34801561076d57600080fd5b50610293600160a060020a036004351661168f565b34801561078e57600080fd5b506107976116f5565b60408051600160a060020a039092168252519081900360200190f35b3480156107bf57600080fd5b50610293611704565b3480156107d457600080fd5b50610270600160a060020a0360043516611715565b3480156107f557600080fd5b50610270600160a060020a0360043581169060243516604435611905565b34801561081f57600080fd5b506040805160206004604435818101358381028086018501909652808552610270958335600160a060020a0316956024803596369695606495939492019291829185019084908082843750506040805187358901803560208181028481018201909552818452989b9a998901989297509082019550935083925085019084908082843750506040805187358901803560208181028481018201909552818452989b9a998901989297509082019550935083925085019084908082843750506040805187358901803560208181028481018201909552818452989b9a9989019892975090820195509350839250850190849080828437509497506119729650505050505050565b34801561093157600080fd5b50610270600160a060020a0360043581169060243516604435611d28565b34801561095b57600080fd5b50610293600160a060020a0360043516611df1565b34801561097c57600080fd5b50610270600435602435604435611e25565b34801561099a57600080fd5b50610270600160a060020a0360043516602435611e89565b3480156109be57600080fd5b5061042d600160a060020a0360043516602435604435611ef1565b3480156109e557600080fd5b5061042d600160a060020a0360043516611f7a565b348015610a0657600080fd5b50610270600160a060020a0360043516611f95565b348015610a2757600080fd5b50610a33600435612010565b6040805192835260208301919091528051918290030190f35b348015610a5857600080fd5b50610797612031565b348015610a6d57600080fd5b50610270600160a060020a0360043581169060243516604435612040565b348015610a9757600080fd5b50610270600160a060020a03600435166120d8565b348015610ab857600080fd5b506106c861214f565b348015610acd57600080fd5b50610270600160a060020a0360043516602435612258565b348015610af157600080fd5b50610270600160a060020a0360043516612303565b348015610b1257600080fd5b506102706004351515612358565b348015610b2c57600080fd5b50610270600160a060020a03600435166024356123e4565b6000610b4f8261168f565b8015610b765750600160a060020a0382166000908152600360205260409020546002908116145b92915050565b60606002805480602002602001604051908101604052809291908181526020018280548015610bd457602002820191906000526020600020905b8154600160a060020a03168152600190910190602001808311610bb6575b505050505090505b90565b600154600090600160a060020a03163314610c44576040805160e560020a62461bcd0281526020600482015260266024820152600080516020612e65833981519152604482015260d160020a6530b730b3b2b902606482015290519081900360840190fd5b5060005b8151811015610cea57610cad8282815181101515610c6257fe5b90602001906020020151600660008685815181101515610c7e57fe5b6020908102909101810151600160a060020a03168252810191909152604001600020549063ffffffff61246f16565b600660008584815181101515610cbf57fe5b6020908102909101810151600160a060020a0316825281019190915260400160002055600101610c48565b505050565b6000610cf9611704565b1515610d3d576040805160e560020a62461bcd0281526020600482018190526024820152600080516020612e85833981519152604482015290519081900360640190fd5b610b766002836124b8565b600154600160a060020a03163314610daa576040805160e560020a62461bcd0281526020600482015260266024820152600080516020612e65833981519152604482015260d160020a6530b730b3b2b902606482015290519081900360840190fd5b600160a060020a03909116600090815260066020526040902055565b600154600160a060020a03163314610e28576040805160e560020a62461bcd0281526020600482015260266024820152600080516020612e65833981519152604482015260d160020a6530b730b3b2b902606482015290519081900360840190fd5b610e34848484846125a5565b50600160a060020a039091166000908152600660205260409020805491909103905550565b600160a060020a031660009081526007602052604090205490565b600154600160a060020a03163314610ed6576040805160e560020a62461bcd0281526020600482015260266024820152600080516020612e65833981519152604482015260d160020a6530b730b3b2b902606482015290519081900360840190fd5b600160a060020a038216600090815260076020526040902054610eff908263ffffffff6125dd16565b600160a060020a0390921660009081526007602052604090209190915550565b6000610f29611704565b1515610f6d576040805160e560020a62461bcd0281526020600482018190526024820152600080516020612e85833981519152604482015290519081900360640190fd5b5060005b600254811015610faf57610fa7600282815481101515610f8d57fe5b600091825260209091200154600160a060020a0316611715565b600101610f71565b50565b6000806000610fc085612645565b8054909250610fd5908563ffffffff6126c416565b9050816001015481811515610fe657fe5b0492505b505092915050565b600160a060020a031660009081526008602052604090205490565b600154600160a060020a0316331461106f576040805160e560020a62461bcd0281526020600482015260266024820152600080516020612e65833981519152604482015260d160020a6530b730b3b2b902606482015290519081900360840190fd5b600160a060020a03909116600090815260086020526040902055565b600154600160a060020a031633146110ed576040805160e560020a62461bcd0281526020600482015260266024820152600080516020612e65833981519152604482015260d160020a6530b730b3b2b902606482015290519081900360840190fd5b600160a060020a0392831660009081526009602090815260408083209490951682529290925291902055565b600154600160a060020a0316331461117b576040805160e560020a62461bcd0281526020600482015260266024820152600080516020612e65833981519152604482015260d160020a6530b730b3b2b902606482015290519081900360840190fd5b600160a060020a03909116600090815260076020526040902055565b600154600160a060020a031633146111f9576040805160e560020a62461bcd0281526020600482015260266024820152600080516020612e65833981519152604482015260d160020a6530b730b3b2b902606482015290519081900360840190fd5b600160a060020a038216600090815260086020526040902054611222908263ffffffff61276316565b600160a060020a0390921660009081526008602052604090209190915550565b600154600160a060020a031633146112a4576040805160e560020a62461bcd0281526020600482015260266024820152600080516020612e65833981519152604482015260d160020a6530b730b3b2b902606482015290519081900360840190fd5b600160a060020a038216600090815260086020526040902054611222908263ffffffff6125dd16565b600160a060020a031660009081526006602052604090205490565b600160a060020a03918216600090815260096020908152604080832093909416825291909152205490565b61131b611704565b151561135f576040805160e560020a62461bcd0281526020600482018190526024820152600080516020612e85833981519152604482015290519081900360640190fd5b60008054604051600160a060020a03909116907f8be0079c531659141344cd1fd0a4f28419497f9722a3daafe3b4186f6b6457e0908390a36000805473ffffffffffffffffffffffffffffffffffffffff19169055565b600154600160a060020a03163314611418576040805160e560020a62461bcd0281526020600482015260266024820152600080516020612e65833981519152604482015260d160020a6530b730b3b2b902606482015290519081900360840190fd5b600160a060020a038216600090815260076020526040902054610eff908263ffffffff61276316565b60608060608060008060008951604051908082528060200260200182016040528015611477578160200160208202803883390190505b50945089516040519080825280602002602001820160405280156114a5578160200160208202803883390190505b5093506000925060009150600090505b89518110156115b9576114f78a828151811015156114cf57fe5b906020019060200201518d8b848151811015156114e857fe5b906020019060200201516127a5565b868381518110151561150557fe5b906020019060200201868481518110151561151c57fe5b6020908102909101019190915252845161156c9086908390811061153c57fe5b90602001906020020151898381518110151561155457fe5b6020908102909101015185910263ffffffff6125dd16565b92506115af848281518110151561157f57fe5b90602001906020020151898381518110151561159757fe5b6020908102909101015184910263ffffffff6125dd16565b91506001016114b5565b8a8310611625575060005b895181101561162057826115f68c87848151811015156115e057fe5b602090810290910101519063ffffffff6126c416565b8115156115ff57fe5b04858281518110151561160e57fe5b602090810290910101526001016115c4565b61167d565b600082111561167d5750988190039860005b895181101561167d57816116538c86848151811015156115e057fe5b81151561165c57fe5b04848281518110151561166b57fe5b60209081029091010152600101611637565b50929a91995090975050505050505050565b6000610b7660028054806020026020016040519081016040528092919081815260200182805480156116ea57602002820191906000526020600020905b8154600160a060020a031681526001909101906020018083116116cc575b50505050508361282f565b600054600160a060020a031690565b600054600160a060020a0316331490565b600080611720611704565b1515611764576040805160e560020a62461bcd0281526020600482018190526024820152600080516020612e85833981519152604482015290519081900360640190fd5b600160a060020a038316600090815260046020526040812054925082116117d5576040805160e560020a62461bcd02815260206004820152601260248201527f4974277320656d7074792062616c616e63650000000000000000000000000000604482015290519081900360640190fd5b600160a060020a038316600081815260046020526040812055151561182757604051339083156108fc029084906000818181858888f19350505050158015611821573d6000803e3d6000fd5b506118c0565b50604080517fa9059cbb0000000000000000000000000000000000000000000000000000000081523360048201526024810183905290518391600160a060020a0383169163a9059cbb916044808201926020929091908290030181600087803b15801561189357600080fd5b505af11580156118a7573d6000803e3d6000fd5b505050506040513d60208110156118bd57600080fd5b50505b604080518381529051600160a060020a0385169133917f22640d1152d9f3e8baad430cd8adc8af3fac753485821cdfd0261ed53964ba289181900360200190a3505050565b600154600160a060020a03163314611967576040805160e560020a62461bcd0281526020600482015260266024820152600080516020612e65833981519152604482015260d160020a6530b730b3b2b902606482015290519081900360840190fd5b610cea838383612880565b60015460009060609082908190600160a060020a031633146119de576040805160e560020a62461bcd0281526020600482015260266024820152600080516020612e65833981519152604482015260d160020a6530b730b3b2b902606482015290519081900360840190fd5b8751935083604051908082528060200260200182016040528015611a0c578160200160208202803883390190505b509250600091505b8382108015611a235750600089115b15611be657611a518783815181101515611a3957fe5b9060200190602002015186848151811015156115e057fe5b905080891015611b5b57600160a060020a038a1660009081526009602052604081208951611acb928492611abf928e850392908e9089908110611a9057fe5b6020908102909101810151600160a060020a03168252810191909152604001600020549063ffffffff6126c416565b9063ffffffff6129c616565b600160a060020a038b1660009081526009602052604081208a519091908b9086908110611af457fe5b6020908102909101810151600160a060020a03168252810191909152604001600020558451859083908110611b2557fe5b9060200190602002015189811515611b3957fe5b048383815181101515611b4857fe5b6020908102909101015260009850611be6565b600160a060020a038a166000908152600960205260408120895182908b9086908110611b8357fe5b6020908102909101810151600160a060020a03168252810191909152604001600020558651879083908110611bb457fe5b906020019060200201518383815181101515611bcc57fe5b602090810290910101529788900397600190910190611a14565b6000891115611cc9575060009050805b83821015611c4c57611c3f8583815181101515611c0f57fe5b906020019060200201518784815181101515611c2757fe5b6020908102909101015183910263ffffffff6125dd16565b6001909201919050611bf6565b6000811115611cc957600091505b83821015611cc957611ca681611c788b89868151811015156115e057fe5b811515611c8157fe5b048484815181101515611c9057fe5b602090810290910101519063ffffffff6125dd16565b8383815181101515611cb457fe5b60209081029091010152600190910190611c5a565b600091505b83821015611d1c57611d118a8984815181101515611ce857fe5b906020019060200201518585815181101515611d0057fe5b906020019060200201516004610dc6565b600190910190611cce565b50505050505050505050565b600154600160a060020a03163314611d8a576040805160e560020a62461bcd0281526020600482015260266024820152600080516020612e65833981519152604482015260d160020a6530b730b3b2b902606482015290519081900360840190fd5b600160a060020a03808416600090815260096020908152604080832093861683529290522054611dc0908263ffffffff61276316565b600160a060020a03938416600090815260096020908152604080832095909616825293909352929091209190915550565b6000611dfc8261168f565b8015610b76575050600160a060020a031660009081526003602052604090205460019081161490565b6000611e2f611704565b1515611e73576040805160e560020a62461bcd0281526020600482018190526024820152600080516020612e85833981519152604482015290519081900360640190fd5b611e7c84612645565b9283555060019091015550565b611e91611704565b1515611ed5576040805160e560020a62461bcd0281526020600482018190526024820152600080516020612e85833981519152604482015290519081900360640190fd5b600160a060020a03909116600090815260036020526040902055565b6001546000908190600160a060020a03163314611f58576040805160e560020a62461bcd0281526020600482015260266024820152600080516020612e65833981519152604482015260d160020a6530b730b3b2b902606482015290519081900360840190fd5b611f628385610fb2565b9050611f6e8582612a08565b8091505b509392505050565b600160a060020a031660009081526004602052604090205490565b611f9d611704565b1515611fe1576040805160e560020a62461bcd0281526020600482018190526024820152600080516020612e85833981519152604482015290519081900360640190fd5b6001805473ffffffffffffffffffffffffffffffffffffffff1916600160a060020a0392909216919091179055565b600080600061201e84612645565b8054600190910154909590945092505050565b600154600160a060020a031690565b600154600160a060020a031633146120a2576040805160e560020a62461bcd0281526020600482015260266024820152600080516020612e65833981519152604482015260d160020a6530b730b3b2b902606482015290519081900360840190fd5b600160a060020a03808416600090815260096020908152604080832093861683529290522054611dc0908263ffffffff6125dd16565b6120e0611704565b1515612124576040805160e560020a62461bcd0281526020600482018190526024820152600080516020612e85833981519152604482015290519081900360640190fd5b61212f600282612a69565b600160a060020a0316600090815260036020526040902063ffffffff9055565b60608060606000600280549050604051908082528060200260200182016040528015612185578160200160208202803883390190505b509150600090505b6002548110156121ef57600460006002838154811015156121aa57fe5b6000918252602080832090910154600160a060020a0316835282019290925260400190205482518390839081106121dd57fe5b6020908102909101015260010161218d565b6002828180548060200260200160405190810160405280929190818152602001828054801561224757602002820191906000526020600020905b8154600160a060020a03168152600190910190602001808311612229575b505050505091509350935050509091565b600154600160a060020a031633146122ba576040805160e560020a62461bcd0281526020600482015260266024820152600080516020612e65833981519152604482015260d160020a6530b730b3b2b902606482015290519081900360840190fd5b600160a060020a0382166000908152600660205260409020546122e3908263ffffffff612b1016565b600160a060020a0390921660009081526006602052604090209190915550565b61230b611704565b151561234f576040805160e560020a62461bcd0281526020600482018190526024820152600080516020612e85833981519152604482015290519081900360640190fd5b610faf81612b55565b612360611704565b15156123a4576040805160e560020a62461bcd0281526020600482018190526024820152600080516020612e85833981519152604482015290519081900360640190fd5b60018054911515740100000000000000000000000000000000000000000274ff000000000000000000000000000000000000000019909216919091179055565b600154600160a060020a03163314612446576040805160e560020a62461bcd0281526020600482015260266024820152600080516020612e65833981519152604482015260d160020a6530b730b3b2b902606482015290519081900360840190fd5b600160a060020a0382166000908152600660205260409020546122e3908263ffffffff61246f16565b60006124b183836040805190810160405280601d81526020017f53616665496e743235363a206164646974696f6e206f766572666c6f77000000815250612c43565b9392505050565b8154600090815b818110156125075783600160a060020a031685828154811015156124df57fe5b600091825260209091200154600160a060020a031614156124ff57612507565b6001016124bf565b8181101561259a576000198201811461258057846001830381548110151561252b57fe5b6000918252602090912001548554600160a060020a039091169086908390811061255157fe5b9060005260206000200160006101000a815481600160a060020a030219169083600160a060020a031602179055505b8454612590866000198301612e27565b5060019250610fea565b506000949350505050565b60008215156125b3576125d6565b6125bd8284610fb2565b90506125cc8585838603612880565b6125d68482612a08565b5050505050565b60008282018381101561263a576040805160e560020a62461bcd02815260206004820152601b60248201527f536166654d6174683a206164646974696f6e206f766572666c6f770000000000604482015290519081900360640190fd5b8091505b5092915050565b60055460009082106126a1576040805160e560020a62461bcd02815260206004820152601260248201527f66656520747970652069732076616c6964210000000000000000000000000000604482015290519081900360640190fd5b60058054839081106126af57fe5b90600052602060002090600202019050919050565b6000808315156126d7576000915061263e565b508282028284828115156126e757fe5b041461263a576040805160e560020a62461bcd02815260206004820152602160248201527f536166654d6174683a206d756c7469706c69636174696f6e206f766572666c6f60448201527f7700000000000000000000000000000000000000000000000000000000000000606482015290519081900360840190fd5b60006124b183836040805190810160405280601e81526020017f536166654d6174683a207375627472616374696f6e206f766572666c6f770000815250612d5a565b600160a060020a038084166000818152600760209081526040808320549487168352600982528083209383529290529081205490918291828083111561281c57826127f6878463ffffffff6126c416565b8115156127ff57fe5b04905080612813878263ffffffff61276316565b94509450612824565b600094508593505b505050935093915050565b8151600090815b8181101561259a5783600160a060020a0316858281518110151561285657fe5b90602001906020020151600160a060020a031614156128785760019250610fea565b600101612836565b600081151561288e576129c0565b600160a060020a03831615156128da57604051600160a060020a0385169083156108fc029084906000818181858888f193505050501580156128d4573d6000803e3d6000fd5b50612974565b50604080517fa9059cbb000000000000000000000000000000000000000000000000000000008152600160a060020a038581166004830152602482018490529151849283169163a9059cbb9160448083019260209291908290030181600087803b15801561294757600080fd5b505af115801561295b573d6000803e3d6000fd5b505050506040513d602081101561297157600080fd5b50505b82600160a060020a031684600160a060020a03167f8aaaec2388cc390cde69685f78340e15f36d424b6b6b595f549dd883931f9c9b846040518082815260200191505060405180910390a35b50505050565b60006124b183836040805190810160405280601a81526020017f536166654d6174683a206469766973696f6e206279207a65726f000000000000815250612dbb565b6000811115612a6557600160a060020a038216600081815260046020908152604091829020805485019055815184815291517f1104eee7f034069140a0655d153038cedf9e65e5724018c555a8d56cfb6bee779281900390910190a25b5050565b612acc82805480602002602001604051908101604052809291908181526020018280548015612ac157602002820191906000526020600020905b8154600160a060020a03168152600190910190602001808311612aa3575b50505050508261282f565b1515612a65578154600181018355600083815260209020018054600160a060020a03831673ffffffffffffffffffffffffffffffffffffffff199091161790555050565b60006124b183836000036040805190810160405280601e81526020017f536166654d6174683a207375627472616374696f6e206f766572666c6f770000815250612c43565b600160a060020a0381161515612bdb576040805160e560020a62461bcd02815260206004820152602660248201527f4f776e61626c653a206e6577206f776e657220697320746865207a65726f206160448201527f6464726573730000000000000000000000000000000000000000000000000000606482015290519081900360840190fd5b60008054604051600160a060020a03808516939216917f8be0079c531659141344cd1fd0a4f28419497f9722a3daafe3b4186f6b6457e091a36000805473ffffffffffffffffffffffffffffffffffffffff1916600160a060020a0392909216919091179055565b600080808512158185121514612c5d578385019150611f72565b60008512612d0257508383018285821215612cf95760405160e560020a62461bcd0281526004018080602001828103825283818151815260200191508051906020019080838360005b83811015612cbe578181015183820152602001612ca6565b50505050905090810190601f168015612ceb5780820380516001836020036101000a031916815260200191505b509250505060405180910390fd5b50809150611f72565b508383018285821315612cf95760405160e560020a62461bcd02815260040180806020018281038252838181518152602001915080519060200190808383600083811015612cbe578181015183820152602001612ca6565b6000808285851115612db15760405160e560020a62461bcd02815260040180806020018281038252838181518152602001915080519060200190808383600083811015612cbe578181015183820152602001612ca6565b5050509103919050565b60008082818511612e115760405160e560020a62461bcd02815260040180806020018281038252838181518152602001915080519060200190808383600083811015612cbe578181015183820152602001612ca6565b508385811515612e1d57fe5b0495945050505050565b815481835581811115610cea57600083815260209020610cea918101908301610bdc91905b80821115612e605760008155600101612e4c565b509056004d616e6167657261626c653a2063616c6c6572206973206e6f7420746865204d4f776e61626c653a2063616c6c6572206973206e6f7420746865206f776e6572a165627a7a72305820b7b8f10ea8557dd9b4f4e252038837255d3d17dc852fe7114db98bd1fbfcbf4c0029",
  "source": "pragma solidity ^0.4.26;\r\nimport \"./modules/SafeMath.sol\";\r\nimport \"./modules/SafeInt256.sol\";\r\nimport \"./modules/Managerable.sol\";\r\nimport \"./modules/TransactionFee.sol\";\r\ncontract CollateralPool is Managerable,TransactionFee{\r\n    using SafeMath for uint256;\r\n    using SafeInt256 for int256;\r\n       //token net worth\r\n    mapping (address => int256) internal netWorthBalances;\r\n    //address collaterel\r\n    mapping (address => uint256) internal collateralBalances;\r\n    //user paying for collateral usd;\r\n    mapping (address => uint256) internal userCollateralPaying;\r\n    //account -> collateral -> amount\r\n    mapping (address => mapping (address => uint256)) internal userInputCollateral;\r\n\r\n    function () public payable onlyManager{\r\n\r\n    }\r\n    function addTransactionFee(address collateral,uint256 amount,uint256 feeType)public onlyManager returns (uint256) {\r\n        uint256 fee = calculateFee(feeType,amount);\r\n        _addTransactionFee(collateral,fee);\r\n        return fee;\r\n    }\r\n    function getUserPayingUsd(address user)public view returns (uint256){\r\n        return userCollateralPaying[user];\r\n    }\r\n    function getUserInputCollateral(address user,address collateral)public view returns (uint256){\r\n        return userInputCollateral[user][collateral];\r\n    }\r\n\r\n    function getNetWorthBalance(address collateral)public view returns (int256){\r\n        return netWorthBalances[collateral];\r\n    }\r\n    function getCollateralBalance(address collateral)public view returns (uint256){\r\n        return collateralBalances[collateral];\r\n    }\r\n\r\n    //add\r\n    function addUserPayingUsd(address user,uint256 amount)public onlyManager{\r\n        userCollateralPaying[user] = userCollateralPaying[user].add(amount);\r\n    }\r\n    function addUserInputCollateral(address user,address collateral,uint256 amount)public onlyManager{\r\n        userInputCollateral[user][collateral] = userInputCollateral[user][collateral].add(amount);\r\n    }\r\n    function addNetWorthBalances(address[] memory whiteList,int256[] memory newNetworth)public onlyManager{\r\n        for (uint i=0;i<newNetworth.length;i++){\r\n            netWorthBalances[whiteList[i]] = netWorthBalances[whiteList[i]].add(newNetworth[i]);\r\n        }\r\n    }\r\n    function addNetWorthBalance(address collateral,int256 amount)public onlyManager{\r\n        netWorthBalances[collateral] = netWorthBalances[collateral].add(amount);\r\n    }\r\n    function addCollateralBalance(address collateral,uint256 amount)public onlyManager{\r\n        collateralBalances[collateral] = collateralBalances[collateral].add(amount);\r\n    }\r\n    //sub\r\n    function subUserPayingUsd(address user,uint256 amount)public onlyManager{\r\n        userCollateralPaying[user] = userCollateralPaying[user].sub(amount);\r\n    }\r\n    function subUserInputCollateral(address user,address collateral,uint256 amount)public onlyManager{\r\n        userInputCollateral[user][collateral] = userInputCollateral[user][collateral].sub(amount);\r\n    }\r\n\r\n    function subNetWorthBalance(address collateral,int256 amount)public onlyManager{\r\n        netWorthBalances[collateral] = netWorthBalances[collateral].sub(amount);\r\n    }\r\n    function subCollateralBalance(address collateral,uint256 amount)public onlyManager{\r\n        collateralBalances[collateral] = collateralBalances[collateral].sub(amount);\r\n    }\r\n    //set\r\n    function setUserPayingUsd(address user,uint256 amount)public onlyManager{\r\n        userCollateralPaying[user] = amount;\r\n    }\r\n    function setUserInputCollateral(address user,address collateral,uint256 amount)public onlyManager{\r\n        userInputCollateral[user][collateral] = amount;\r\n    }\r\n\r\n    function setNetWorthBalance(address collateral,int256 amount)public onlyManager{\r\n        netWorthBalances[collateral] = amount;\r\n    }\r\n    function setCollateralBalance(address collateral,uint256 amount)public onlyManager{\r\n        collateralBalances[collateral] = amount;\r\n    }\r\n    function transferPaybackAndFee(address recieptor,address settleMent,uint256 payback,\r\n            uint256 feeType)public onlyManager{\r\n        _transferPaybackAndFee(recieptor,settleMent,payback,feeType);\r\n        netWorthBalances[settleMent] = netWorthBalances[settleMent]-int256(payback);\r\n    }\r\n    function transferPayback(address recieptor,address settlement,uint256 payback)public onlyManager{\r\n        _transferPayback(recieptor,settlement,payback);\r\n    }\r\n    function transferPaybackBalances(address account,uint256 redeemWorth,address[] memory tmpWhiteList,uint256[] memory colBalances,\r\n        uint256[] memory PremiumBalances,uint256[] memory prices)public onlyManager {\r\n        uint256 ln = tmpWhiteList.length;\r\n        uint256[] memory PaybackBalances = new uint256[](ln);\r\n        for (uint256 i=0; i<ln && redeemWorth>0;i++){\r\n            //address addr = tmpWhiteList[i];\r\n            uint256 totalWorth = prices[i].mul(colBalances[i]);\r\n            if (redeemWorth < totalWorth){\r\n//                setUserInputCollateral(account,tmpWhiteList[i],\r\n//                    getUserInputCollateral(account,tmpWhiteList[i]).mul(totalWorth-redeemWorth).div(totalWorth));\r\n                userInputCollateral[account][tmpWhiteList[i]] = userInputCollateral[account][tmpWhiteList[i]].mul(totalWorth-redeemWorth).div(totalWorth);\r\n                PaybackBalances[i] = redeemWorth/prices[i];\r\n                redeemWorth = 0;\r\n                break;\r\n            }else{\r\n                //_collateralPool.setUserInputCollateral(msg.sender,tmpWhiteList[i],0);\r\n                userInputCollateral[account][tmpWhiteList[i]] = 0;\r\n                PaybackBalances[i] = colBalances[i];\r\n                redeemWorth = redeemWorth - totalWorth;\r\n            }\r\n        }\r\n        if (redeemWorth>0) {\r\n           totalWorth = 0;\r\n            for (i=0; i<ln;i++){\r\n                totalWorth = totalWorth.add(PremiumBalances[i]*prices[i]);\r\n            }\r\n            if (totalWorth>0){\r\n                for (i=0; i<ln;i++){\r\n                    PaybackBalances[i] = PaybackBalances[i].add(PremiumBalances[i].mul(redeemWorth)/totalWorth);\r\n                }\r\n            }\r\n        }\r\n        for (i=0;i<ln;i++){ \r\n            transferPaybackAndFee(account,tmpWhiteList[i],PaybackBalances[i],redeemColFee);\r\n//            addr = whiteList[i];\r\n//            netWorthBalances[addr] = netWorthBalances[addr].sub(PaybackBalances[i]);\r\n//            _transferPaybackAndFee(msg.sender,addr,PaybackBalances[i],redeemColFee);\r\n        } \r\n    }\r\n    function getCollateralAndPremiumBalances(address account,uint256 userTotalWorth,address[] memory tmpWhiteList,\r\n        uint256[] memory _RealBalances,uint256[] memory prices) public view returns(uint256[],uint256[]){\r\n//        uint256 ln = tmpWhiteList.length;\r\n        uint256[] memory colBalances = new uint256[](tmpWhiteList.length);\r\n        uint256[] memory PremiumBalances = new uint256[](tmpWhiteList.length);\r\n        uint256 totalWorth = 0;\r\n        uint256 PremiumWorth = 0;\r\n        for (uint256 i=0; i<tmpWhiteList.length;i++){\r\n            (colBalances[i],PremiumBalances[i]) = calUserNetWorthBalanceRate(tmpWhiteList[i],account,_RealBalances[i]);\r\n            totalWorth = totalWorth.add(prices[i]*colBalances[i]);\r\n            PremiumWorth = PremiumWorth.add(prices[i]*PremiumBalances[i]);\r\n        }\r\n        if (totalWorth >= userTotalWorth){\r\n            for (i=0; i<tmpWhiteList.length;i++){\r\n                colBalances[i] = colBalances[i].mul(userTotalWorth)/totalWorth;\r\n            }\r\n        }else if (PremiumWorth>0){\r\n            userTotalWorth = userTotalWorth - totalWorth;\r\n            for (i=0; i<tmpWhiteList.length;i++){\r\n                PremiumBalances[i] = PremiumBalances[i].mul(userTotalWorth)/PremiumWorth;\r\n            }\r\n        }\r\n        return (colBalances,PremiumBalances);\r\n    } \r\n    function calUserNetWorthBalanceRate(address settlement,address user,uint256 netWorthBalance)internal view returns(uint256,uint256){\r\n        uint256 collateralBalance = collateralBalances[settlement];\r\n        uint256 amount = userInputCollateral[user][settlement];\r\n        if (collateralBalance > 0){\r\n            uint256 curAmount = netWorthBalance.mul(amount)/collateralBalance;\r\n            return (curAmount,netWorthBalance.sub(curAmount));\r\n        }else{\r\n            return (0,netWorthBalance);\r\n        }\r\n    }\r\n}",
  "sourcePath": "C:\\work\\solidity\\FinnexusOptions_V2\\contracts\\CollateralPool.sol",
  "compiler": {
    "name": "solc",
    "version": "0.4.26+commit.4563c3fc.Emscripten.clang"
  },
  "schemaVersion": "3.1.0",
  "updatedAt": "2020-08-07T00:13:37.412Z",
  "devdoc": {
    "methods": {
      "addWhiteList(address)": {
        "details": "Implementation of add an eligible address into the whitelist.\r",
        "params": {
          "addAddress": "new eligible address.\r"
        }
      },
      "getWhiteList()": {
        "details": "Implementation of getting the eligible whitelist.\r"
      },
      "isEligibleAddress(address)": {
        "details": "Implementation of testing whether the input address is eligible.\r",
        "params": {
          "tmpAddress": "input address for testing.\r"
        }
      },
      "isOwner()": {
        "details": "Returns true if the caller is the current owner."
      },
      "owner()": {
        "details": "Returns the address of the current owner."
      },
      "removeWhiteList(address)": {
        "details": "Implementation of revoke an invalid address from the whitelist.\r",
        "params": {
          "removeAddress": "revoked address.\r"
        }
      },
      "renounceOwnership()": {
        "details": "Leaves the contract without owner. It will not be possible to call `onlyOwner` functions anymore. Can only be called by the current owner.     * NOTE: Renouncing ownership will leave the contract without an owner, thereby removing any functionality that is only available to the owner."
      },
      "setTransactionFee(uint256,uint256,uint256)": {
        "details": "set the rate of trasaction fee.\r",
        "params": {
          "denominator": "thedenominator of transaction fee.\r transaction fee = numerator/denominator;\r",
          "feeType": "the transaction fee type\r",
          "numerator": "the numerator of transaction fee .\r"
        }
      },
      "transferOwnership(address)": {
        "details": "Transfers ownership of the contract to a new account (`newOwner`). Can only be called by the current owner."
      }
    }
  },
  "userdoc": {
    "methods": {
      "setHalt(bool)": {
        "notice": "function Emergency situation that requires contribution period to stop or not."
      },
      "setManager(address)": {
        "notice": "contribution period to stop or not."
      }
    }
  }
}