{
  "contractName": "CollateralPool",
  "abi": [
    {
      "anonymous": false,
      "inputs": [
        {
          "indexed": true,
          "internalType": "address",
          "name": "settlement",
          "type": "address"
        },
        {
          "indexed": false,
          "internalType": "uint256",
          "name": "payback",
          "type": "uint256"
        }
      ],
      "name": "AddFee",
      "type": "event"
    },
    {
      "anonymous": false,
      "inputs": [
        {
          "indexed": true,
          "internalType": "address",
          "name": "previousOwner",
          "type": "address"
        },
        {
          "indexed": true,
          "internalType": "address",
          "name": "newOwner",
          "type": "address"
        }
      ],
      "name": "OwnershipTransferred",
      "type": "event"
    },
    {
      "anonymous": false,
      "inputs": [
        {
          "indexed": true,
          "internalType": "address",
          "name": "recieptor",
          "type": "address"
        },
        {
          "indexed": true,
          "internalType": "address",
          "name": "settlement",
          "type": "address"
        },
        {
          "indexed": false,
          "internalType": "uint256",
          "name": "payback",
          "type": "uint256"
        }
      ],
      "name": "RedeemFee",
      "type": "event"
    },
    {
      "anonymous": false,
      "inputs": [
        {
          "indexed": true,
          "internalType": "address",
          "name": "recieptor",
          "type": "address"
        },
        {
          "indexed": true,
          "internalType": "address",
          "name": "settlement",
          "type": "address"
        },
        {
          "indexed": false,
          "internalType": "uint256",
          "name": "payback",
          "type": "uint256"
        }
      ],
      "name": "TransferPayback",
      "type": "event"
    },
    {
      "payable": true,
      "stateMutability": "payable",
      "type": "fallback"
    },
    {
      "constant": false,
      "inputs": [
        {
          "internalType": "address",
          "name": "addAddress",
          "type": "address"
        }
      ],
      "name": "addWhiteList",
      "outputs": [],
      "payable": false,
      "stateMutability": "nonpayable",
      "type": "function"
    },
    {
      "constant": true,
      "inputs": [
        {
          "internalType": "uint256",
          "name": "feeType",
          "type": "uint256"
        },
        {
          "internalType": "uint256",
          "name": "amount",
          "type": "uint256"
        }
      ],
      "name": "calculateFee",
      "outputs": [
        {
          "internalType": "uint256",
          "name": "",
          "type": "uint256"
        }
      ],
      "payable": false,
      "stateMutability": "view",
      "type": "function"
    },
    {
      "constant": true,
      "inputs": [
        {
          "internalType": "address",
          "name": "tmpAddress",
          "type": "address"
        }
      ],
      "name": "checkAddressPayIn",
      "outputs": [
        {
          "internalType": "bool",
          "name": "",
          "type": "bool"
        }
      ],
      "payable": false,
      "stateMutability": "view",
      "type": "function"
    },
    {
      "constant": true,
      "inputs": [
        {
          "internalType": "address",
          "name": "tmpAddress",
          "type": "address"
        }
      ],
      "name": "checkAddressRedeemOut",
      "outputs": [
        {
          "internalType": "bool",
          "name": "",
          "type": "bool"
        }
      ],
      "payable": false,
      "stateMutability": "view",
      "type": "function"
    },
    {
      "constant": true,
      "inputs": [],
      "name": "getAllFeeBalances",
      "outputs": [
        {
          "internalType": "address[]",
          "name": "",
          "type": "address[]"
        },
        {
          "internalType": "uint256[]",
          "name": "",
          "type": "uint256[]"
        }
      ],
      "payable": false,
      "stateMutability": "view",
      "type": "function"
    },
    {
      "constant": true,
      "inputs": [
        {
          "internalType": "address",
          "name": "settlement",
          "type": "address"
        }
      ],
      "name": "getFeeBalance",
      "outputs": [
        {
          "internalType": "uint256",
          "name": "",
          "type": "uint256"
        }
      ],
      "payable": false,
      "stateMutability": "view",
      "type": "function"
    },
    {
      "constant": true,
      "inputs": [
        {
          "internalType": "uint256",
          "name": "feeType",
          "type": "uint256"
        }
      ],
      "name": "getFeeRate",
      "outputs": [
        {
          "internalType": "uint256",
          "name": "",
          "type": "uint256"
        },
        {
          "internalType": "uint256",
          "name": "",
          "type": "uint256"
        }
      ],
      "payable": false,
      "stateMutability": "view",
      "type": "function"
    },
    {
      "constant": true,
      "inputs": [],
      "name": "getManager",
      "outputs": [
        {
          "internalType": "address",
          "name": "",
          "type": "address"
        }
      ],
      "payable": false,
      "stateMutability": "view",
      "type": "function"
    },
    {
      "constant": true,
      "inputs": [],
      "name": "getWhiteList",
      "outputs": [
        {
          "internalType": "address[]",
          "name": "",
          "type": "address[]"
        }
      ],
      "payable": false,
      "stateMutability": "view",
      "type": "function"
    },
    {
      "constant": true,
      "inputs": [
        {
          "internalType": "address",
          "name": "tmpAddress",
          "type": "address"
        }
      ],
      "name": "isEligibleAddress",
      "outputs": [
        {
          "internalType": "bool",
          "name": "",
          "type": "bool"
        }
      ],
      "payable": false,
      "stateMutability": "view",
      "type": "function"
    },
    {
      "constant": true,
      "inputs": [],
      "name": "isOwner",
      "outputs": [
        {
          "internalType": "bool",
          "name": "",
          "type": "bool"
        }
      ],
      "payable": false,
      "stateMutability": "view",
      "type": "function"
    },
    {
      "constant": false,
      "inputs": [
        {
          "internalType": "address",
          "name": "addAddress",
          "type": "address"
        },
        {
          "internalType": "uint256",
          "name": "permission",
          "type": "uint256"
        }
      ],
      "name": "modifyPermission",
      "outputs": [],
      "payable": false,
      "stateMutability": "nonpayable",
      "type": "function"
    },
    {
      "constant": true,
      "inputs": [],
      "name": "owner",
      "outputs": [
        {
          "internalType": "address",
          "name": "",
          "type": "address"
        }
      ],
      "payable": false,
      "stateMutability": "view",
      "type": "function"
    },
    {
      "constant": false,
      "inputs": [
        {
          "internalType": "address",
          "name": "currency",
          "type": "address"
        }
      ],
      "name": "redeem",
      "outputs": [],
      "payable": false,
      "stateMutability": "nonpayable",
      "type": "function"
    },
    {
      "constant": false,
      "inputs": [],
      "name": "redeemAll",
      "outputs": [],
      "payable": false,
      "stateMutability": "nonpayable",
      "type": "function"
    },
    {
      "constant": false,
      "inputs": [
        {
          "internalType": "address",
          "name": "removeAddress",
          "type": "address"
        }
      ],
      "name": "removeWhiteList",
      "outputs": [
        {
          "internalType": "bool",
          "name": "",
          "type": "bool"
        }
      ],
      "payable": false,
      "stateMutability": "nonpayable",
      "type": "function"
    },
    {
      "constant": false,
      "inputs": [],
      "name": "renounceOwnership",
      "outputs": [],
      "payable": false,
      "stateMutability": "nonpayable",
      "type": "function"
    },
    {
      "constant": false,
      "inputs": [
        {
          "internalType": "bool",
          "name": "halt",
          "type": "bool"
        }
      ],
      "name": "setHalt",
      "outputs": [],
      "payable": false,
      "stateMutability": "nonpayable",
      "type": "function"
    },
    {
      "constant": false,
      "inputs": [
        {
          "internalType": "address",
          "name": "managerAddress",
          "type": "address"
        }
      ],
      "name": "setManager",
      "outputs": [],
      "payable": false,
      "stateMutability": "nonpayable",
      "type": "function"
    },
    {
      "constant": false,
      "inputs": [
        {
          "internalType": "uint256",
          "name": "feeType",
          "type": "uint256"
        },
        {
          "internalType": "uint256",
          "name": "numerator",
          "type": "uint256"
        },
        {
          "internalType": "uint256",
          "name": "denominator",
          "type": "uint256"
        }
      ],
      "name": "setTransactionFee",
      "outputs": [],
      "payable": false,
      "stateMutability": "nonpayable",
      "type": "function"
    },
    {
      "constant": false,
      "inputs": [
        {
          "internalType": "address",
          "name": "newOwner",
          "type": "address"
        }
      ],
      "name": "transferOwnership",
      "outputs": [],
      "payable": false,
      "stateMutability": "nonpayable",
      "type": "function"
    },
    {
      "constant": false,
      "inputs": [],
      "name": "initialize",
      "outputs": [],
      "payable": false,
      "stateMutability": "nonpayable",
      "type": "function"
    },
    {
      "constant": false,
      "inputs": [
        {
          "internalType": "address",
          "name": "collateral",
          "type": "address"
        },
        {
          "internalType": "uint256",
          "name": "amount",
          "type": "uint256"
        },
        {
          "internalType": "uint256",
          "name": "feeType",
          "type": "uint256"
        }
      ],
      "name": "addTransactionFee",
      "outputs": [
        {
          "internalType": "uint256",
          "name": "",
          "type": "uint256"
        }
      ],
      "payable": false,
      "stateMutability": "nonpayable",
      "type": "function"
    },
    {
      "constant": true,
      "inputs": [
        {
          "internalType": "address",
          "name": "user",
          "type": "address"
        }
      ],
      "name": "getUserPayingUsd",
      "outputs": [
        {
          "internalType": "uint256",
          "name": "",
          "type": "uint256"
        }
      ],
      "payable": false,
      "stateMutability": "view",
      "type": "function"
    },
    {
      "constant": true,
      "inputs": [
        {
          "internalType": "address",
          "name": "user",
          "type": "address"
        },
        {
          "internalType": "address",
          "name": "collateral",
          "type": "address"
        }
      ],
      "name": "getUserInputCollateral",
      "outputs": [
        {
          "internalType": "uint256",
          "name": "",
          "type": "uint256"
        }
      ],
      "payable": false,
      "stateMutability": "view",
      "type": "function"
    },
    {
      "constant": true,
      "inputs": [
        {
          "internalType": "address",
          "name": "collateral",
          "type": "address"
        }
      ],
      "name": "getNetWorthBalance",
      "outputs": [
        {
          "internalType": "int256",
          "name": "",
          "type": "int256"
        }
      ],
      "payable": false,
      "stateMutability": "view",
      "type": "function"
    },
    {
      "constant": true,
      "inputs": [
        {
          "internalType": "address",
          "name": "collateral",
          "type": "address"
        }
      ],
      "name": "getCollateralBalance",
      "outputs": [
        {
          "internalType": "uint256",
          "name": "",
          "type": "uint256"
        }
      ],
      "payable": false,
      "stateMutability": "view",
      "type": "function"
    },
    {
      "constant": false,
      "inputs": [
        {
          "internalType": "address",
          "name": "user",
          "type": "address"
        },
        {
          "internalType": "uint256",
          "name": "amount",
          "type": "uint256"
        }
      ],
      "name": "addUserPayingUsd",
      "outputs": [],
      "payable": false,
      "stateMutability": "nonpayable",
      "type": "function"
    },
    {
      "constant": false,
      "inputs": [
        {
          "internalType": "address",
          "name": "user",
          "type": "address"
        },
        {
          "internalType": "address",
          "name": "collateral",
          "type": "address"
        },
        {
          "internalType": "uint256",
          "name": "amount",
          "type": "uint256"
        }
      ],
      "name": "addUserInputCollateral",
      "outputs": [],
      "payable": false,
      "stateMutability": "nonpayable",
      "type": "function"
    },
    {
      "constant": false,
      "inputs": [
        {
          "internalType": "address[]",
          "name": "whiteList",
          "type": "address[]"
        },
        {
          "internalType": "int256[]",
          "name": "newNetworth",
          "type": "int256[]"
        }
      ],
      "name": "addNetWorthBalances",
      "outputs": [],
      "payable": false,
      "stateMutability": "nonpayable",
      "type": "function"
    },
    {
      "constant": false,
      "inputs": [
        {
          "internalType": "address",
          "name": "collateral",
          "type": "address"
        },
        {
          "internalType": "int256",
          "name": "amount",
          "type": "int256"
        }
      ],
      "name": "addNetWorthBalance",
      "outputs": [],
      "payable": false,
      "stateMutability": "nonpayable",
      "type": "function"
    },
    {
      "constant": false,
      "inputs": [
        {
          "internalType": "address",
          "name": "collateral",
          "type": "address"
        },
        {
          "internalType": "uint256",
          "name": "amount",
          "type": "uint256"
        }
      ],
      "name": "addCollateralBalance",
      "outputs": [],
      "payable": false,
      "stateMutability": "nonpayable",
      "type": "function"
    },
    {
      "constant": false,
      "inputs": [
        {
          "internalType": "address",
          "name": "user",
          "type": "address"
        },
        {
          "internalType": "uint256",
          "name": "amount",
          "type": "uint256"
        }
      ],
      "name": "subUserPayingUsd",
      "outputs": [],
      "payable": false,
      "stateMutability": "nonpayable",
      "type": "function"
    },
    {
      "constant": false,
      "inputs": [
        {
          "internalType": "address",
          "name": "user",
          "type": "address"
        },
        {
          "internalType": "address",
          "name": "collateral",
          "type": "address"
        },
        {
          "internalType": "uint256",
          "name": "amount",
          "type": "uint256"
        }
      ],
      "name": "subUserInputCollateral",
      "outputs": [],
      "payable": false,
      "stateMutability": "nonpayable",
      "type": "function"
    },
    {
      "constant": false,
      "inputs": [
        {
          "internalType": "address",
          "name": "collateral",
          "type": "address"
        },
        {
          "internalType": "int256",
          "name": "amount",
          "type": "int256"
        }
      ],
      "name": "subNetWorthBalance",
      "outputs": [],
      "payable": false,
      "stateMutability": "nonpayable",
      "type": "function"
    },
    {
      "constant": false,
      "inputs": [
        {
          "internalType": "address",
          "name": "collateral",
          "type": "address"
        },
        {
          "internalType": "uint256",
          "name": "amount",
          "type": "uint256"
        }
      ],
      "name": "subCollateralBalance",
      "outputs": [],
      "payable": false,
      "stateMutability": "nonpayable",
      "type": "function"
    },
    {
      "constant": false,
      "inputs": [
        {
          "internalType": "address",
          "name": "user",
          "type": "address"
        },
        {
          "internalType": "uint256",
          "name": "amount",
          "type": "uint256"
        }
      ],
      "name": "setUserPayingUsd",
      "outputs": [],
      "payable": false,
      "stateMutability": "nonpayable",
      "type": "function"
    },
    {
      "constant": false,
      "inputs": [
        {
          "internalType": "address",
          "name": "user",
          "type": "address"
        },
        {
          "internalType": "address",
          "name": "collateral",
          "type": "address"
        },
        {
          "internalType": "uint256",
          "name": "amount",
          "type": "uint256"
        }
      ],
      "name": "setUserInputCollateral",
      "outputs": [],
      "payable": false,
      "stateMutability": "nonpayable",
      "type": "function"
    },
    {
      "constant": false,
      "inputs": [
        {
          "internalType": "address",
          "name": "collateral",
          "type": "address"
        },
        {
          "internalType": "int256",
          "name": "amount",
          "type": "int256"
        }
      ],
      "name": "setNetWorthBalance",
      "outputs": [],
      "payable": false,
      "stateMutability": "nonpayable",
      "type": "function"
    },
    {
      "constant": false,
      "inputs": [
        {
          "internalType": "address",
          "name": "collateral",
          "type": "address"
        },
        {
          "internalType": "uint256",
          "name": "amount",
          "type": "uint256"
        }
      ],
      "name": "setCollateralBalance",
      "outputs": [],
      "payable": false,
      "stateMutability": "nonpayable",
      "type": "function"
    },
    {
      "constant": false,
      "inputs": [
        {
          "internalType": "address payable",
          "name": "recieptor",
          "type": "address"
        },
        {
          "internalType": "address",
          "name": "settlement",
          "type": "address"
        },
        {
          "internalType": "uint256",
          "name": "payback",
          "type": "uint256"
        },
        {
          "internalType": "uint256",
          "name": "feeType",
          "type": "uint256"
        }
      ],
      "name": "transferPaybackAndFee",
      "outputs": [],
      "payable": false,
      "stateMutability": "nonpayable",
      "type": "function"
    },
    {
      "constant": false,
      "inputs": [
        {
          "internalType": "address payable",
          "name": "recieptor",
          "type": "address"
        },
        {
          "internalType": "address",
          "name": "settlement",
          "type": "address"
        },
        {
          "internalType": "uint256",
          "name": "payback",
          "type": "uint256"
        }
      ],
      "name": "transferPayback",
      "outputs": [],
      "payable": false,
      "stateMutability": "nonpayable",
      "type": "function"
    },
    {
      "constant": false,
      "inputs": [
        {
          "internalType": "address payable",
          "name": "account",
          "type": "address"
        },
        {
          "internalType": "uint256",
          "name": "redeemWorth",
          "type": "uint256"
        },
        {
          "internalType": "address[]",
          "name": "tmpWhiteList",
          "type": "address[]"
        },
        {
          "internalType": "uint256[]",
          "name": "colBalances",
          "type": "uint256[]"
        },
        {
          "internalType": "uint256[]",
          "name": "PremiumBalances",
          "type": "uint256[]"
        },
        {
          "internalType": "uint256[]",
          "name": "prices",
          "type": "uint256[]"
        }
      ],
      "name": "transferPaybackBalances",
      "outputs": [],
      "payable": false,
      "stateMutability": "nonpayable",
      "type": "function"
    },
    {
      "constant": true,
      "inputs": [
        {
          "internalType": "address",
          "name": "account",
          "type": "address"
        },
        {
          "internalType": "uint256",
          "name": "userTotalWorth",
          "type": "uint256"
        },
        {
          "internalType": "address[]",
          "name": "tmpWhiteList",
          "type": "address[]"
        },
        {
          "internalType": "uint256[]",
          "name": "_RealBalances",
          "type": "uint256[]"
        },
        {
          "internalType": "uint256[]",
          "name": "prices",
          "type": "uint256[]"
        }
      ],
      "name": "getCollateralAndPremiumBalances",
      "outputs": [
        {
          "internalType": "uint256[]",
          "name": "",
          "type": "uint256[]"
        },
        {
          "internalType": "uint256[]",
          "name": "",
          "type": "uint256[]"
        }
      ],
      "payable": false,
      "stateMutability": "view",
      "type": "function"
    }
  ],
  "bytecode": "0x6080604081905260008054600160a860020a0319163317808255600160a060020a0316917f8be0079c531659141344cd1fd0a4f28419497f9722a3daafe3b4186f6b6457e0908290a36200005b64010000000062000061810204565b62000295565b62000074640100000000620000e9810204565b620000cf57604080517f08c379a0000000000000000000000000000000000000000000000000000000008152602060048201819052602482015260008051602062003889833981519152604482015290519081900360640190fd5b620000e764010000000062002e98620000fa82021704565b565b600054600160a060020a0316331490565b6200010d640100000000620000e9810204565b6200016857604080517f08c379a0000000000000000000000000000000000000000000000000000000008152602060048201819052602482015260008051602062003889833981519152604482015290519081900360640190fd5b60408051808201825260008082526103e860208084018281526005805460018181018355828752965160029182027f036b6384b5eca791c62761152d0c79bb0604c104a5fb6f4eb0703f3154bb3db08181019290925593517f036b6384b5eca791c62761152d0c79bb0604c104a5fb6f4eb0703f3154bb3db1948501558851808a018a52603281528086018781528454808b018655858a5291519184028084019290925551908501558851808a018a528781528086018781528454808b018655858a5291519184028084019290925551908501558851808a018a528781528086018781528454808b018655858a5291519184028084019290925551908501558851808a01909952868952938801948552815496870182559452945193909202918201929092559051910155565b6135e480620002a56000396000f3fe608060405260043610610284576000357c010000000000000000000000000000000000000000000000000000000090048063817bf86d11610161578063c78f6803116100d3578063e7cd4a0411610097578063e7cd4a0414611020578063f20568cd14611053578063f2706e9b14611068578063f2fde38b146110a1578063f4954387146110d4578063fee80a491461110057610284565b8063c78f680314610f1f578063d0ebdbe714610f52578063d2aaef4e14610f85578063d500958414610fc8578063d56dbe8814610fdd57610284565b8063a2fa92c711610125578063a2fa92c714610baa578063b8446de114610dfb578063bdac4bf614610e3e578063bf36b11014610e71578063c219043b14610ea7578063c3c579cc14610ee057610284565b8063817bf86d14610abb5780638da5cb5b14610aee5780638f32d59b14610b1f57806395a2251f14610b345780639994eb1414610b6757610284565b80635af107c5116101fa5780636b6ecea8116101be5780636b6ecea8146107845780636ba170b5146107b7578063715018a6146107f25780637a3e51d8146108075780637a6a0277146108405780638129fc1c14610aa657610284565b80635af107c51461065d5780635ed74bfd14610696578063632ba2b5146106d95780636560a9e714610712578063692a76a71461074b57610284565b80632454047c1161024c5780632454047c1461051e5780632703ee85146105675780632b2d50c3146105ac5780632f4350c2146105e557806334e73122146105fa57806342049a721461062a57610284565b8063059621d7146102d257806309a9d76c146103195780631f88286a1461037e5780632042e5c2146104b257806322f0975f146104e5575b600354600160a060020a031633146102d05760405160e560020a62461bcd0281526004018080602001828103825260268152602001806134e06026913960400191505060405180910390fd5b005b3480156102de57600080fd5b50610305600480360360208110156102f557600080fd5b5035600160a060020a0316611139565b604080519115158252519081900360200190f35b34801561032557600080fd5b5061032e611171565b60408051602080825283518183015283519192839290830191858101910280838360005b8381101561036a578181015183820152602001610352565b505050509050019250505060405180910390f35b34801561038a57600080fd5b506102d0600480360360408110156103a157600080fd5b8101906020810181356401000000008111156103bc57600080fd5b8201836020820111156103ce57600080fd5b803590602001918460208302840111640100000000831117156103f057600080fd5b919080806020026020016040519081016040528093929190818152602001838360200280828437600092019190915250929594936020810193503591505064010000000081111561044057600080fd5b82018360208201111561045257600080fd5b8035906020019184602083028401116401000000008311171561047457600080fd5b9190808060200260200160405190810160405280939291908181526020018383602002808284376000920191909152509295506111d4945050505050565b3480156104be57600080fd5b50610305600480360360208110156104d557600080fd5b5035600160a060020a03166112cb565b3480156104f157600080fd5b506102d06004803603604081101561050857600080fd5b50600160a060020a038135169060200135611328565b34801561052a57600080fd5b506102d06004803603608081101561054157600080fd5b50600160a060020a03813581169160208101359091169060408101359060600135611390565b34801561057357600080fd5b5061059a6004803603602081101561058a57600080fd5b5035600160a060020a0316611433565b60408051918252519081900360200190f35b3480156105b857600080fd5b506102d0600480360360408110156105cf57600080fd5b50600160a060020a03813516906020013561144e565b3480156105f157600080fd5b506102d06114e3565b34801561060657600080fd5b5061059a6004803603604081101561061d57600080fd5b508035906020013561156f565b34801561063657600080fd5b5061059a6004803603602081101561064d57600080fd5b5035600160a060020a03166115ac565b34801561066957600080fd5b506102d06004803603604081101561068057600080fd5b50600160a060020a0381351690602001356115c7565b3480156106a257600080fd5b506102d0600480360360608110156106b957600080fd5b50600160a060020a0381358116916020810135909116906040013561162f565b3480156106e557600080fd5b506102d0600480360360408110156106fc57600080fd5b50600160a060020a0381351690602001356116a7565b34801561071e57600080fd5b506102d06004803603604081101561073557600080fd5b50600160a060020a03813516906020013561170f565b34801561075757600080fd5b506102d06004803603604081101561076e57600080fd5b50600160a060020a0381351690602001356117a4565b34801561079057600080fd5b5061059a600480360360208110156107a757600080fd5b5035600160a060020a0316611819565b3480156107c357600080fd5b5061059a600480360360408110156107da57600080fd5b50600160a060020a0381358116916020013516611834565b3480156107fe57600080fd5b506102d061185f565b34801561081357600080fd5b506102d06004803603604081101561082a57600080fd5b50600160a060020a038135169060200135611900565b34801561084c57600080fd5b50610a0d600480360360a081101561086357600080fd5b600160a060020a038235169160208101359181019060608101604082013564010000000081111561089357600080fd5b8201836020820111156108a557600080fd5b803590602001918460208302840111640100000000831117156108c757600080fd5b919080806020026020016040519081016040528093929190818152602001838360200280828437600092019190915250929594936020810193503591505064010000000081111561091757600080fd5b82018360208201111561092957600080fd5b8035906020019184602083028401116401000000008311171561094b57600080fd5b919080806020026020016040519081016040528093929190818152602001838360200280828437600092019190915250929594936020810193503591505064010000000081111561099b57600080fd5b8201836020820111156109ad57600080fd5b803590602001918460208302840111640100000000831117156109cf57600080fd5b919080806020026020016040519081016040528093929190818152602001838360200280828437600092019190915250929550611975945050505050565b604051808060200180602001838103835285818151815260200191508051906020019060200280838360005b83811015610a51578181015183820152602001610a39565b50505050905001838103825284818151815260200191508051906020019060200280838360005b83811015610a90578181015183820152602001610a78565b5050505090500194505050505060405180910390f35b348015610ab257600080fd5b506102d0611b92565b348015610ac757600080fd5b5061030560048036036020811015610ade57600080fd5b5035600160a060020a0316611be6565b348015610afa57600080fd5b50610b03611c55565b60408051600160a060020a039092168252519081900360200190f35b348015610b2b57600080fd5b50610305611c64565b348015610b4057600080fd5b506102d060048036036020811015610b5757600080fd5b5035600160a060020a0316611c75565b348015610b7357600080fd5b506102d060048036036060811015610b8a57600080fd5b50600160a060020a03813581169160208101359091169060400135611fab565b348015610bb657600080fd5b506102d0600480360360c0811015610bcd57600080fd5b600160a060020a0382351691602081013591810190606081016040820135640100000000811115610bfd57600080fd5b820183602082011115610c0f57600080fd5b80359060200191846020830284011164010000000083111715610c3157600080fd5b9190808060200260200160405190810160405280939291908181526020018383602002808284376000920191909152509295949360208101935035915050640100000000811115610c8157600080fd5b820183602082011115610c9357600080fd5b80359060200191846020830284011164010000000083111715610cb557600080fd5b9190808060200260200160405190810160405280939291908181526020018383602002808284376000920191909152509295949360208101935035915050640100000000811115610d0557600080fd5b820183602082011115610d1757600080fd5b80359060200191846020830284011164010000000083111715610d3957600080fd5b9190808060200260200160405190810160405280939291908181526020018383602002808284376000920191909152509295949360208101935035915050640100000000811115610d8957600080fd5b820183602082011115610d9b57600080fd5b80359060200191846020830284011164010000000083111715610dbd57600080fd5b919080806020026020016040519081016040528093929190818152602001838360200280828437600092019190915250929550612002945050505050565b348015610e0757600080fd5b506102d060048036036060811015610e1e57600080fd5b50600160a060020a038135811691602081013590911690604001356123e2565b348015610e4a57600080fd5b5061030560048036036020811015610e6157600080fd5b5035600160a060020a0316612495565b348015610e7d57600080fd5b506102d060048036036060811015610e9457600080fd5b50803590602081013590604001356124c9565b348015610eb357600080fd5b506102d060048036036040811015610eca57600080fd5b50600160a060020a03813516906020013561252b565b348015610eec57600080fd5b5061059a60048036036060811015610f0357600080fd5b50600160a060020a038135169060208101359060400135612591565b348015610f2b57600080fd5b5061059a60048036036020811015610f4257600080fd5b5035600160a060020a0316612600565b348015610f5e57600080fd5b506102d060048036036020811015610f7557600080fd5b5035600160a060020a031661261b565b348015610f9157600080fd5b50610faf60048036036020811015610fa857600080fd5b5035612694565b6040805192835260208301919091528051918290030190f35b348015610fd457600080fd5b50610b036126b5565b348015610fe957600080fd5b506102d06004803603606081101561100057600080fd5b50600160a060020a038135811691602081013590911690604001356126c4565b34801561102c57600080fd5b506102d06004803603602081101561104357600080fd5b5035600160a060020a0316612746565b34801561105f57600080fd5b50610a0d6127c1565b34801561107457600080fd5b506102d06004803603604081101561108b57600080fd5b50600160a060020a0381351690602001356128c5565b3480156110ad57600080fd5b506102d0600480360360208110156110c457600080fd5b5035600160a060020a031661295a565b3480156110e057600080fd5b506102d0600480360360208110156110f757600080fd5b503515156129ad565b34801561110c57600080fd5b506102d06004803603604081101561112357600080fd5b50600160a060020a038135169060200135612a37565b600061114482611be6565b801561116b5750600160a060020a0382166000908152600260208190526040909120548116145b92915050565b606060018054806020026020016040519081016040528092919081815260200182805480156111c957602002820191906000526020600020905b8154600160a060020a031681526001909101906020018083116111ab575b505050505090505b90565b600354600160a060020a031633146112205760405160e560020a62461bcd0281526004018080602001828103825260268152602001806134e06026913960400191505060405180910390fd5b60005b81518110156112c65761128a82828151811061123b57fe5b60200260200101516006600086858151811061125357fe5b6020026020010151600160a060020a0316600160a060020a0316815260200190815260200160002054612aac90919063ffffffff16565b6006600085848151811061129a57fe5b602090810291909101810151600160a060020a0316825281019190915260400160002055600101611223565b505050565b60006112d5611c64565b611317576040805160e560020a62461bcd0281526020600482018190526024820152600080516020613590833981519152604482015290519081900360640190fd5b61116b60018363ffffffff612b0d16565b600354600160a060020a031633146113745760405160e560020a62461bcd0281526004018080602001828103825260268152602001806134e06026913960400191505060405180910390fd5b600160a060020a03909116600090815260066020526040902055565b600354600160a060020a031633146113dc5760405160e560020a62461bcd0281526004018080602001828103825260268152602001806134e06026913960400191505060405180910390fd5b6113e884848484612bfb565b600160a060020a038316600090815260066020526040902054611411908363ffffffff612c3216565b600160a060020a03909316600090815260066020526040902092909255505050565b600160a060020a031660009081526007602052604090205490565b600354600160a060020a0316331461149a5760405160e560020a62461bcd0281526004018080602001828103825260268152602001806134e06026913960400191505060405180910390fd5b600160a060020a0382166000908152600760205260409020546114c3908263ffffffff612c7d16565b600160a060020a0390921660009081526007602052604090209190915550565b6114eb611c64565b61152d576040805160e560020a62461bcd0281526020600482018190526024820152600080516020613590833981519152604482015290519081900360640190fd5b60005b60015481101561156c576115646001828154811061154a57fe5b600091825260209091200154600160a060020a0316611c75565b600101611530565b50565b60008061157b84612cd8565b8054909150600090611593908563ffffffff612d5616565b9050816001015481816115a257fe5b0495945050505050565b600160a060020a031660009081526008602052604090205490565b600354600160a060020a031633146116135760405160e560020a62461bcd0281526004018080602001828103825260268152602001806134e06026913960400191505060405180910390fd5b600160a060020a03909116600090815260086020526040902055565b600354600160a060020a0316331461167b5760405160e560020a62461bcd0281526004018080602001828103825260268152602001806134e06026913960400191505060405180910390fd5b600160a060020a0392831660009081526009602090815260408083209490951682529290925291902055565b600354600160a060020a031633146116f35760405160e560020a62461bcd0281526004018080602001828103825260268152602001806134e06026913960400191505060405180910390fd5b600160a060020a03909116600090815260076020526040902055565b600354600160a060020a0316331461175b5760405160e560020a62461bcd0281526004018080602001828103825260268152602001806134e06026913960400191505060405180910390fd5b600160a060020a038216600090815260086020526040902054611784908263ffffffff612daf16565b600160a060020a0390921660009081526008602052604090209190915550565b600354600160a060020a031633146117f05760405160e560020a62461bcd0281526004018080602001828103825260268152602001806134e06026913960400191505060405180910390fd5b600160a060020a038216600090815260086020526040902054611784908263ffffffff612c7d16565b600160a060020a031660009081526006602052604090205490565b600160a060020a03918216600090815260096020908152604080832093909416825291909152205490565b611867611c64565b6118a9576040805160e560020a62461bcd0281526020600482018190526024820152600080516020613590833981519152604482015290519081900360640190fd5b60008054604051600160a060020a03909116907f8be0079c531659141344cd1fd0a4f28419497f9722a3daafe3b4186f6b6457e0908390a36000805473ffffffffffffffffffffffffffffffffffffffff19169055565b600354600160a060020a0316331461194c5760405160e560020a62461bcd0281526004018080602001828103825260268152602001806134e06026913960400191505060405180910390fd5b600160a060020a0382166000908152600760205260409020546114c3908263ffffffff612daf16565b606080606085516040519080825280602002602001820160405280156119a5578160200160208202803883390190505b509050606086516040519080825280602002602001820160405280156119d5578160200160208202803883390190505b509050600080805b8951811015611ac957611a178a82815181106119f557fe5b60200260200101518d8b8481518110611a0a57fe5b6020026020010151612e0a565b868381518110611a2357fe5b60200260200101868481518110611a3657fe5b6020026020010182815250828152505050611a82858281518110611a5657fe5b6020026020010151898381518110611a6a57fe5b60200260200101510284612c7d90919063ffffffff16565b9250611abf848281518110611a9357fe5b6020026020010151898381518110611aa757fe5b60200260200101510283612c7d90919063ffffffff16565b91506001016119dd565b8a8310611b30575060005b8951811015611b2b5782611b048c878481518110611aee57fe5b6020026020010151612d5690919063ffffffff16565b81611b0b57fe5b04858281518110611b1857fe5b6020908102919091010152600101611ad4565b611b80565b8115611b805750988190039860005b8951811015611b805781611b598c868481518110611aee57fe5b81611b6057fe5b04848281518110611b6d57fe5b6020908102919091010152600101611b3f565b50929a91995090975050505050505050565b611b9a611c64565b611bdc576040805160e560020a62461bcd0281526020600482018190526024820152600080516020613590833981519152604482015290519081900360640190fd5b611be4612e98565b565b600061116b826001805480602002602001604051908101604052809291908181526020018280548015611c4257602002820191906000526020600020905b8154600160a060020a03168152600190910190602001808311611c24575b505050505061300f90919063ffffffff16565b600054600160a060020a031690565b600054600160a060020a0316331490565b611c7d611c64565b611cbf576040805160e560020a62461bcd0281526020600482018190526024820152600080516020613590833981519152604482015290519081900360640190fd5b600160a060020a03811660009081526004602052604090205480611d2d576040805160e560020a62461bcd02815260206004820152601260248201527f4974277320656d7074792062616c616e63650000000000000000000000000000604482015290519081900360640190fd5b600160a060020a038216600081815260046020526040812055611d7d57604051339082156108fc029083906000818181858888f19350505050158015611d77573d6000803e3d6000fd5b50611f67565b6040805160e060020a6370a0823102815230600482015290518391600091600160a060020a038416916370a08231916024808301926020929190829003018186803b158015611dcb57600080fd5b505afa158015611ddf573d6000803e3d6000fd5b505050506040513d6020811015611df557600080fd5b5051604080517fa9059cbb000000000000000000000000000000000000000000000000000000008152336004820152602481018690529051919250600160a060020a0384169163a9059cbb916044808201926020929091908290030181600087803b158015611e6357600080fd5b505af1158015611e77573d6000803e3d6000fd5b505050506040513d6020811015611e8d57600080fd5b50506040805160e060020a6370a082310281523060048201529051600091600160a060020a038516916370a0823191602480820192602092909190829003018186803b158015611edc57600080fd5b505afa158015611ef0573d6000803e3d6000fd5b505050506040513d6020811015611f0657600080fd5b505190508082038414611f63576040805160e560020a62461bcd02815260206004820181905260248201527f736574746c656d656e7420746f6b656e207472616e73666572206572726f7221604482015290519081900360640190fd5b5050505b604080518281529051600160a060020a0384169133917f22640d1152d9f3e8baad430cd8adc8af3fac753485821cdfd0261ed53964ba289181900360200190a35050565b600354600160a060020a03163314611ff75760405160e560020a62461bcd0281526004018080602001828103825260268152602001806134e06026913960400191505060405180910390fd5b6112c683838361305e565b600354600160a060020a0316331461204e5760405160e560020a62461bcd0281526004018080602001828103825260268152602001806134e06026913960400191505060405180910390fd5b835160408051828152602080840282010190915260609082801561207c578160200160208202803883390190505b50905060005b82811080156120915750600088115b156122845760008682815181106120a457fe5b6020026020010151111561227c5760006120d78783815181106120c357fe5b6020026020010151868481518110611aee57fe5b9050808910156121f857806121528a8303600960008e600160a060020a0316600160a060020a0316815260200190815260200160002060008c878151811061211b57fe5b6020026020010151600160a060020a0316600160a060020a0316815260200190815260200160002054612d5690919063ffffffff16565b8161215957fe5b04600960008c600160a060020a0316600160a060020a0316815260200190815260200160002060008a858151811061218d57fe5b6020026020010151600160a060020a0316600160a060020a03168152602001908152602001600020819055508482815181106121c557fe5b602002602001015189816121d557fe5b048383815181106121e257fe5b6020026020010181815250506000985050612284565b600160a060020a038a166000908152600960205260408120895182908b908690811061222057fe5b6020026020010151600160a060020a0316600160a060020a031681526020019081526020016000208190555086828151811061225857fe5b602002602001015183838151811061226c57fe5b6020908102919091010152909703965b600101612082565b871561239057506000805b838210156122df576122d28583815181106122a657fe5b60200260200101518784815181106122ba57fe5b60200260200101510282612c7d90919063ffffffff16565b600190920191905061228f565b888110156123215760405160e560020a62461bcd02815260040180806020018281038252602181526020018061354e6021913960400191505060405180910390fd5b600091505b8382101561238e5761236c816123428b898681518110611aee57fe5b8161234957fe5b0484848151811061235657fe5b6020026020010151612c7d90919063ffffffff16565b83838151811061237857fe5b6020908102919091010152600190910190612326565b505b5060005b828110156123d7576123cf898883815181106123ac57fe5b60200260200101518484815181106123c057fe5b60200260200101516004611390565b600101612394565b505050505050505050565b600354600160a060020a0316331461242e5760405160e560020a62461bcd0281526004018080602001828103825260268152602001806134e06026913960400191505060405180910390fd5b600160a060020a03808416600090815260096020908152604080832093861683529290522054612464908263ffffffff612daf16565b600160a060020a03938416600090815260096020908152604080832095909616825293909352929091209190915550565b60006124a082611be6565b801561116b575050600160a060020a031660009081526002602052604090205460019081161490565b6124d1611c64565b612513576040805160e560020a62461bcd0281526020600482018190526024820152600080516020613590833981519152604482015290519081900360640190fd5b600061251e84612cd8565b9283555060019091015550565b612533611c64565b612575576040805160e560020a62461bcd0281526020600482018190526024820152600080516020613590833981519152604482015290519081900360640190fd5b600160a060020a03909116600090815260026020526040902055565b600354600090600160a060020a031633146125e05760405160e560020a62461bcd0281526004018080602001828103825260268152602001806134e06026913960400191505060405180910390fd5b60006125ec838561156f565b90506125f885826132ef565b949350505050565b600160a060020a031660009081526004602052604090205490565b612623611c64565b612665576040805160e560020a62461bcd0281526020600482018190526024820152600080516020613590833981519152604482015290519081900360640190fd5b6003805473ffffffffffffffffffffffffffffffffffffffff1916600160a060020a0392909216919091179055565b60008060006126a284612cd8565b8054600190910154909350915050915091565b600354600160a060020a031690565b600354600160a060020a031633146127105760405160e560020a62461bcd0281526004018080602001828103825260268152602001806134e06026913960400191505060405180910390fd5b600160a060020a03808416600090815260096020908152604080832093861683529290522054612464908263ffffffff612c7d16565b61274e611c64565b612790576040805160e560020a62461bcd0281526020600482018190526024820152600080516020613590833981519152604482015290519081900360640190fd5b6127a160018263ffffffff61334d16565b600160a060020a0316600090815260026020526040902063ffffffff9055565b60608060606001805490506040519080825280602002602001820160405280156127f5578160200160208202803883390190505b50905060005b60015481101561285c57600460006001838154811061281657fe5b6000918252602080832090910154600160a060020a03168352820192909252604001902054825183908390811061284957fe5b60209081029190910101526001016127fb565b50600181818054806020026020016040519081016040528092919081815260200182805480156128b557602002820191906000526020600020905b8154600160a060020a03168152600190910190602001808311612897575b5050505050915092509250509091565b600354600160a060020a031633146129115760405160e560020a62461bcd0281526004018080602001828103825260268152602001806134e06026913960400191505060405180910390fd5b600160a060020a03821660009081526006602052604090205461293a908263ffffffff612c3216565b600160a060020a0390921660009081526006602052604090209190915550565b612962611c64565b6129a4576040805160e560020a62461bcd0281526020600482018190526024820152600080516020613590833981519152604482015290519081900360640190fd5b61156c816133f2565b6129b5611c64565b6129f7576040805160e560020a62461bcd0281526020600482018190526024820152600080516020613590833981519152604482015290519081900360640190fd5b60008054911515740100000000000000000000000000000000000000000274ff000000000000000000000000000000000000000019909216919091179055565b600354600160a060020a03163314612a835760405160e560020a62461bcd0281526004018080602001828103825260268152602001806134e06026913960400191505060405180910390fd5b600160a060020a03821660009081526006602052604090205461293a908263ffffffff612aac16565b8181018281121560008312151461116b576040805160e560020a62461bcd02815260206004820152601d60248201527f53616665496e743235363a206164646974696f6e206f766572666c6f77000000604482015290519081900360640190fd5b8154600090815b81811015612b5a5783600160a060020a0316858281548110612b3257fe5b600091825260209091200154600160a060020a03161415612b5257612b5a565b600101612b14565b81811015612bf057600182038114612bd457846001830381548110612b7b57fe5b9060005260206000200160009054906101000a9004600160a060020a0316858281548110612ba557fe5b9060005260206000200160006101000a815481600160a060020a030219169083600160a060020a031602179055505b8454612be48660001983016134a2565b5060019250505061116b565b506000949350505050565b81612c0557612c2c565b6000612c11828461156f565b9050612c20858583860361305e565b612c2a84826132ef565b505b50505050565b8082038281131560008312151461116b5760405160e560020a62461bcd02815260040180806020018281038252602281526020018061352c6022913960400191505060405180910390fd5b8082018281101561116b576040805160e560020a62461bcd02815260206004820152601b60248201527f536166654d6174683a206164646974696f6e206f766572666c6f770000000000604482015290519081900360640190fd5b6005546000908210612d34576040805160e560020a62461bcd02815260206004820152601460248201527f666565207479706520697320696e76616c696421000000000000000000000000604482015290519081900360640190fd5b60058281548110612d4157fe5b90600052602060002090600202019050919050565b6000811580612d7157505080820282828281612d6e57fe5b04145b61116b5760405160e560020a62461bcd02815260040180806020018281038252602181526020018061356f6021913960400191505060405180910390fd5b8082038281111561116b576040805160e560020a62461bcd02815260206004820181905260248201527f536166654d6174683a20737562737472616374696f6e20756e646572666c6f77604482015290519081900360640190fd5b600160a060020a0380841660008181526007602090815260408083205494871683526009825280832093835292905290812054909182918115612e8157600082612e5a878463ffffffff612d5616565b81612e6157fe5b04905080612e75878263ffffffff612daf16565b94509450505050612e90565b5060009250839150612e909050565b935093915050565b612ea0611c64565b612ee2576040805160e560020a62461bcd0281526020600482018190526024820152600080516020613590833981519152604482015290519081900360640190fd5b60408051808201825260008082526103e860208084018281526005805460018181018355828752965160029182027f036b6384b5eca791c62761152d0c79bb0604c104a5fb6f4eb0703f3154bb3db08181019290925593517f036b6384b5eca791c62761152d0c79bb0604c104a5fb6f4eb0703f3154bb3db1948501558851808a018a52603281528086018781528454808b018655858a5291519184028084019290925551908501558851808a018a528781528086018781528454808b018655858a5291519184028084019290925551908501558851808a018a528781528086018781528454808b018655858a5291519184028084019290925551908501558851808a01909952868952938801948552815496870182559452945193909202918201929092559051910155565b8151600090815b81811015612bf05783600160a060020a031685828151811061303457fe5b6020026020010151600160a060020a031614156130565760019250505061116b565b600101613016565b80613068576112c6565b600160a060020a0382166130b257604051600160a060020a0384169082156108fc029083906000818181858888f193505050501580156130ac573d6000803e3d6000fd5b5061329f565b6040805160e060020a6370a0823102815230600482015290518391600091600160a060020a038416916370a08231916024808301926020929190829003018186803b15801561310057600080fd5b505afa158015613114573d6000803e3d6000fd5b505050506040513d602081101561312a57600080fd5b5051604080517fa9059cbb000000000000000000000000000000000000000000000000000000008152600160a060020a0388811660048301526024820187905291519293509084169163a9059cbb916044808201926020929091908290030181600087803b15801561319b57600080fd5b505af11580156131af573d6000803e3d6000fd5b505050506040513d60208110156131c557600080fd5b50506040805160e060020a6370a082310281523060048201529051600091600160a060020a038516916370a0823191602480820192602092909190829003018186803b15801561321457600080fd5b505afa158015613228573d6000803e3d6000fd5b505050506040513d602081101561323e57600080fd5b50519050808203841461329b576040805160e560020a62461bcd02815260206004820181905260248201527f736574746c656d656e7420746f6b656e207472616e73666572206572726f7221604482015290519081900360640190fd5b5050505b81600160a060020a031683600160a060020a03167f8aaaec2388cc390cde69685f78340e15f36d424b6b6b595f549dd883931f9c9b836040518082815260200191505060405180910390a3505050565b801561334957600160a060020a038216600081815260046020908152604091829020805485019055815184815291517f1104eee7f034069140a0655d153038cedf9e65e5724018c555a8d56cfb6bee779281900390910190a25b5050565b6133b0828054806020026020016040519081016040528092919081815260200182805480156133a557602002820191906000526020600020905b8154600160a060020a03168152600190910190602001808311613387575b50505050508261300f565b613349578154600181018355600083815260209020018054600160a060020a03831673ffffffffffffffffffffffffffffffffffffffff199091161790555050565b600160a060020a03811661343a5760405160e560020a62461bcd0281526004018080602001828103825260268152602001806135066026913960400191505060405180910390fd5b60008054604051600160a060020a03808516939216917f8be0079c531659141344cd1fd0a4f28419497f9722a3daafe3b4186f6b6457e091a36000805473ffffffffffffffffffffffffffffffffffffffff1916600160a060020a0392909216919091179055565b8154818355818111156112c6576000838152602090206112c69181019083016111d191905b808211156134db57600081556001016134c7565b509056fe4d616e6167657261626c653a2063616c6c6572206973206e6f7420746865204d616e616765724f776e61626c653a206e6577206f776e657220697320746865207a65726f206164647265737353616665496e743235363a20737562737472616374696f6e20756e646572666c6f7772656465656d20636f6c6c61746572616c20697320696e73756666696369656e74536166654d6174683a206d756c7469706c69636174696f6e206f766572666c6f774f776e61626c653a2063616c6c6572206973206e6f7420746865206f776e6572a265627a7a72315820663f49a271e500d14159b02f24faaf31a342abaf9362c81932b7a0e5a08e7ec964736f6c634300051000324f776e61626c653a2063616c6c6572206973206e6f7420746865206f776e6572",
  "source": "pragma solidity =0.5.16;\n\nimport \"../modules/SafeInt256.sol\";\nimport \"./TransactionFee.sol\";\n/**\n * @title collateral pool contract with coin and necessary storage data.\n * @dev A smart-contract which stores user's deposited collateral.\n *\n */\ncontract CollateralPool is TransactionFee{\n    using SafeMath for uint256;\n    using SafeInt256 for int256;\n    /**\n     * @dev Transfer colleteral from manager contract to this contract.\n     *  Only manager contract can invoke this function.\n     */\n    function () external payable onlyManager{\n\n    }\n    function initialize() onlyOwner public {\n        TransactionFee.initialize();\n    }\n    /**\n     * @dev An interface for add transaction fee.\n     *  Only manager contract can invoke this function.\n     * @param collateral collateral address, also is the coin for fee.\n     * @param amount total transaction amount.\n     * @param feeType transaction fee type. see TransactionFee contract\n     */\n    function addTransactionFee(address collateral,uint256 amount,uint256 feeType)public onlyManager returns (uint256) {\n        uint256 fee = calculateFee(feeType,amount);\n        _addTransactionFee(collateral,fee);\n        return fee;\n    }\n    /**\n     * @dev Retrieve user's cost of collateral, priced in USD.\n     * @param user input retrieved account \n     */\n    function getUserPayingUsd(address user)public view returns (uint256){\n        return userCollateralPaying[user];\n    }\n    /**\n     * @dev Retrieve user's amount of the specified collateral.\n     * @param user input retrieved account \n     * @param collateral input retrieved collateral coin address \n     */\n    function getUserInputCollateral(address user,address collateral)public view returns (uint256){\n        return userInputCollateral[user][collateral];\n    }\n    /**\n     * @dev Retrieve net worth balance data.\n     * @param collateral input retrieved collateral coin address \n     */\n    function getNetWorthBalance(address collateral)public view returns (int256){\n        return netWorthBalances[collateral];\n    }\n    /**\n     * @dev Retrieve collateral balance data.\n     * @param collateral input retrieved collateral coin address \n     */\n    function getCollateralBalance(address collateral)public view returns (uint256){\n        return collateralBalances[collateral];\n    }\n    /**\n     * @dev Opterator user paying data, priced in USD. Only manager contract can modify database.\n     * @param user input user account which need add paying amount.\n     * @param amount the input paying amount.\n     */\n    function addUserPayingUsd(address user,uint256 amount)public onlyManager{\n        userCollateralPaying[user] = userCollateralPaying[user].add(amount);\n    }\n    /**\n     * @dev Opterator user input collateral data. Only manager contract can modify database.\n     * @param user input user account which need add input collateral.\n     * @param collateral the collateral address.\n     * @param amount the input collateral amount.\n     */\n    function addUserInputCollateral(address user,address collateral,uint256 amount)public onlyManager{\n        userInputCollateral[user][collateral] = userInputCollateral[user][collateral].add(amount);\n    }\n    /**\n     * @dev Opterator net worth balance data. Only manager contract can modify database.\n     * @param whiteList available colleteral address list.\n     * @param newNetworth collateral net worth list.\n     */\n    function addNetWorthBalances(address[] memory whiteList,int256[] memory newNetworth)public onlyManager{\n        for (uint i=0;i<newNetworth.length;i++){\n            netWorthBalances[whiteList[i]] = netWorthBalances[whiteList[i]].add(newNetworth[i]);\n        }\n    }\n    /**\n     * @dev Opterator net worth balance data. Only manager contract can modify database.\n     * @param collateral available colleteral address.\n     * @param amount collateral net worth increase amount.\n     */\n    function addNetWorthBalance(address collateral,int256 amount)public onlyManager{\n        netWorthBalances[collateral] = netWorthBalances[collateral].add(amount);\n    }\n    /**\n     * @dev Opterator collateral balance data. Only manager contract can modify database.\n     * @param collateral available colleteral address.\n     * @param amount collateral colleteral increase amount.\n     */\n    function addCollateralBalance(address collateral,uint256 amount)public onlyManager{\n        collateralBalances[collateral] = collateralBalances[collateral].add(amount);\n    }\n    /**\n     * @dev Substract user paying data,priced in USD. Only manager contract can modify database.\n     * @param user user's account.\n     * @param amount user's decrease amount.\n     */\n    function subUserPayingUsd(address user,uint256 amount)public onlyManager{\n        userCollateralPaying[user] = userCollateralPaying[user].sub(amount);\n    }\n    /**\n     * @dev Substract user's collateral balance. Only manager contract can modify database.\n     * @param user user's account.\n     * @param collateral collateral address.\n     * @param amount user's decrease amount.\n     */\n    function subUserInputCollateral(address user,address collateral,uint256 amount)public onlyManager{\n        userInputCollateral[user][collateral] = userInputCollateral[user][collateral].sub(amount);\n    }\n    /**\n     * @dev Substract net worth balance. Only manager contract can modify database.\n     * @param collateral collateral address.\n     * @param amount the decrease amount.\n     */\n    function subNetWorthBalance(address collateral,int256 amount)public onlyManager{\n        netWorthBalances[collateral] = netWorthBalances[collateral].sub(amount);\n    }\n    /**\n     * @dev Substract collateral balance. Only manager contract can modify database.\n     * @param collateral collateral address.\n     * @param amount the decrease amount.\n     */\n    function subCollateralBalance(address collateral,uint256 amount)public onlyManager{\n        collateralBalances[collateral] = collateralBalances[collateral].sub(amount);\n    }\n    /**\n     * @dev set user paying data,priced in USD. Only manager contract can modify database.\n     * @param user user's account.\n     * @param amount user's new amount.\n     */\n    function setUserPayingUsd(address user,uint256 amount)public onlyManager{\n        userCollateralPaying[user] = amount;\n    }\n    /**\n     * @dev set user's collateral balance. Only manager contract can modify database.\n     * @param user user's account.\n     * @param collateral collateral address.\n     * @param amount user's new amount.\n     */\n    function setUserInputCollateral(address user,address collateral,uint256 amount)public onlyManager{\n        userInputCollateral[user][collateral] = amount;\n    }\n    /**\n     * @dev set net worth balance. Only manager contract can modify database.\n     * @param collateral collateral address.\n     * @param amount the new amount.\n     */\n    function setNetWorthBalance(address collateral,int256 amount)public onlyManager{\n        netWorthBalances[collateral] = amount;\n    }\n    /**\n     * @dev set collateral balance. Only manager contract can modify database.\n     * @param collateral collateral address.\n     * @param amount the new amount.\n     */\n    function setCollateralBalance(address collateral,uint256 amount)public onlyManager{\n        collateralBalances[collateral] = amount;\n    }\n    /**\n     * @dev Operation for transfer user's payback and deduct transaction fee. Only manager contract can invoke this function.\n     * @param recieptor the recieptor account.\n     * @param settlement the settlement coin address.\n     * @param payback the payback amount\n     * @param feeType the transaction fee type. see transactionFee contract\n     */\n    function transferPaybackAndFee(address payable recieptor,address settlement,uint256 payback,\n            uint256 feeType)public onlyManager{\n        _transferPaybackAndFee(recieptor,settlement,payback,feeType);\n        netWorthBalances[settlement] = netWorthBalances[settlement].sub(int256(payback));\n    }\n    /**\n     * @dev Operation for transfer user's payback. Only manager contract can invoke this function.\n     * @param recieptor the recieptor account.\n     * @param settlement the settlement coin address.\n     * @param payback the payback amount\n     */\n    function transferPayback(address payable recieptor,address settlement,uint256 payback)public onlyManager{\n        _transferPayback(recieptor,settlement,payback);\n    }\n    /**\n     * @dev Operation for transfer user's payback and deduct transaction fee for multiple settlement Coin.\n     *       Specially used for redeem collateral.Only manager contract can invoke this function.\n     * @param account the recieptor account.\n     * @param redeemWorth the redeem worth, priced in USD.\n     * @param tmpWhiteList the settlement coin white list\n     * @param colBalances the Collateral balance based for user's input collateral.\n     * @param PremiumBalances the premium collateral balance if redeem worth is exceeded user's input collateral.\n     * @param prices the collateral prices list.\n     */\n    function transferPaybackBalances(address payable account,uint256 redeemWorth,address[] memory tmpWhiteList,uint256[] memory colBalances,\n        uint256[] memory PremiumBalances,uint256[] memory prices)public onlyManager {\n        uint256 ln = tmpWhiteList.length;\n        uint256[] memory PaybackBalances = new uint256[](ln);\n        uint256 i=0;\n        for(; i<ln && redeemWorth>0;i++){\n            //address addr = tmpWhiteList[i];\n            if (colBalances[i] > 0){\n                uint256 totalWorth = prices[i].mul(colBalances[i]);\n                if (redeemWorth < totalWorth){\n    //                setUserInputCollateral(account,tmpWhiteList[i],\n    //                    getUserInputCollateral(account,tmpWhiteList[i]).mul(totalWorth-redeemWorth).div(totalWorth));\n                    userInputCollateral[account][tmpWhiteList[i]] = userInputCollateral[account][tmpWhiteList[i]].mul(totalWorth-redeemWorth)/totalWorth;\n                    PaybackBalances[i] = redeemWorth/prices[i];\n                    redeemWorth = 0;\n                    break;\n                }else{\n                    //_collateralPool.setUserInputCollateral(msg.sender,tmpWhiteList[i],0);\n                    userInputCollateral[account][tmpWhiteList[i]] = 0;\n                    PaybackBalances[i] = colBalances[i];\n                    redeemWorth = redeemWorth - totalWorth;\n                }\n            }\n        }\n        if (redeemWorth>0) {\n           uint256 totalWorth = 0;\n            for (i=0; i<ln;i++){\n                totalWorth = totalWorth.add(PremiumBalances[i]*prices[i]);\n            }\n            require(totalWorth >= redeemWorth ,\"redeem collateral is insufficient\");\n            for (i=0; i<ln;i++){\n                PaybackBalances[i] = PaybackBalances[i].add(PremiumBalances[i].mul(redeemWorth)/totalWorth);\n            }\n        }\n        for (i=0;i<ln;i++){ \n            transferPaybackAndFee(account,tmpWhiteList[i],PaybackBalances[i],redeemColFee);\n//            addr = whiteList[i];\n//            netWorthBalances[addr] = netWorthBalances[addr].sub(PaybackBalances[i]);\n//            _transferPaybackAndFee(msg.sender,addr,PaybackBalances[i],redeemColFee);\n        } \n    }\n    /**\n     * @dev calculate user's input collateral balance and premium collateral balance.\n     *      Specially used for user's redeem collateral.\n     * @param account the recieptor account.\n     * @param userTotalWorth the user's total FPTCoin worth, priced in USD.\n     * @param tmpWhiteList the settlement coin white list\n     * @param _RealBalances the real Collateral balance.\n     * @param prices the collateral prices list.\n     */\n    function getCollateralAndPremiumBalances(address account,uint256 userTotalWorth,address[] memory tmpWhiteList,\n        uint256[] memory _RealBalances,uint256[] memory prices) public view returns(uint256[] memory,uint256[] memory){\n//        uint256 ln = tmpWhiteList.length;\n        uint256[] memory colBalances = new uint256[](tmpWhiteList.length);\n        uint256[] memory PremiumBalances = new uint256[](tmpWhiteList.length);\n        uint256 totalWorth = 0;\n        uint256 PremiumWorth = 0;\n        uint256 i=0;\n        for(; i<tmpWhiteList.length;i++){\n            (colBalances[i],PremiumBalances[i]) = calUserNetWorthBalanceRate(tmpWhiteList[i],account,_RealBalances[i]);\n            totalWorth = totalWorth.add(prices[i]*colBalances[i]);\n            PremiumWorth = PremiumWorth.add(prices[i]*PremiumBalances[i]);\n        }\n        if (totalWorth >= userTotalWorth){\n            for (i=0; i<tmpWhiteList.length;i++){\n                colBalances[i] = colBalances[i].mul(userTotalWorth)/totalWorth;\n            }\n        }else if (PremiumWorth>0){\n            userTotalWorth = userTotalWorth - totalWorth;\n            for (i=0; i<tmpWhiteList.length;i++){\n                PremiumBalances[i] = PremiumBalances[i].mul(userTotalWorth)/PremiumWorth;\n            }\n        }\n        return (colBalances,PremiumBalances);\n    } \n    /**\n     * @dev calculate user's input collateral balance.\n     *      Specially used for user's redeem collateral.\n     * @param settlement the settlement coin address.\n     * @param user the recieptor account.\n     * @param netWorthBalance the settlement coin real balance\n     */\n    function calUserNetWorthBalanceRate(address settlement,address user,uint256 netWorthBalance)internal view returns(uint256,uint256){\n        uint256 collateralBalance = collateralBalances[settlement];\n        uint256 amount = userInputCollateral[user][settlement];\n        if (collateralBalance > 0){\n            uint256 curAmount = netWorthBalance.mul(amount)/collateralBalance;\n            return (curAmount,netWorthBalance.sub(curAmount));\n        }else{\n            return (0,netWorthBalance);\n        }\n    }\n}",
  "sourcePath": "/home/jqg/FinnexusOptions_V2/contracts/CollateralPool/CollateralPool.sol",
  "compiler": {
    "name": "solc",
    "version": "0.5.16+commit.9c3226ce.Emscripten.clang"
  },
  "schemaVersion": "3.2.4",
  "updatedAt": "2020-09-09T03:13:04.064Z",
  "devdoc": {
    "details": "A smart-contract which stores user's deposited collateral. ",
    "methods": {
      "addCollateralBalance(address,uint256)": {
        "details": "Opterator collateral balance data. Only manager contract can modify database.",
        "params": {
          "amount": "collateral colleteral increase amount.",
          "collateral": "available colleteral address."
        }
      },
      "addNetWorthBalance(address,int256)": {
        "details": "Opterator net worth balance data. Only manager contract can modify database.",
        "params": {
          "amount": "collateral net worth increase amount.",
          "collateral": "available colleteral address."
        }
      },
      "addNetWorthBalances(address[],int256[])": {
        "details": "Opterator net worth balance data. Only manager contract can modify database.",
        "params": {
          "newNetworth": "collateral net worth list.",
          "whiteList": "available colleteral address list."
        }
      },
      "addTransactionFee(address,uint256,uint256)": {
        "details": "An interface for add transaction fee. Only manager contract can invoke this function.",
        "params": {
          "amount": "total transaction amount.",
          "collateral": "collateral address, also is the coin for fee.",
          "feeType": "transaction fee type. see TransactionFee contract"
        }
      },
      "addUserInputCollateral(address,address,uint256)": {
        "details": "Opterator user input collateral data. Only manager contract can modify database.",
        "params": {
          "amount": "the input collateral amount.",
          "collateral": "the collateral address.",
          "user": "input user account which need add input collateral."
        }
      },
      "addUserPayingUsd(address,uint256)": {
        "details": "Opterator user paying data, priced in USD. Only manager contract can modify database.",
        "params": {
          "amount": "the input paying amount.",
          "user": "input user account which need add paying amount."
        }
      },
      "addWhiteList(address)": {
        "details": "Implementation of add an eligible address into the whitelist.",
        "params": {
          "addAddress": "new eligible address."
        }
      },
      "getCollateralAndPremiumBalances(address,uint256,address[],uint256[],uint256[])": {
        "details": "calculate user's input collateral balance and premium collateral balance.     Specially used for user's redeem collateral.",
        "params": {
          "_RealBalances": "the real Collateral balance.",
          "account": "the recieptor account.",
          "prices": "the collateral prices list.",
          "tmpWhiteList": "the settlement coin white list",
          "userTotalWorth": "the user's total FPTCoin worth, priced in USD."
        }
      },
      "getCollateralBalance(address)": {
        "details": "Retrieve collateral balance data.",
        "params": {
          "collateral": "input retrieved collateral coin address "
        }
      },
      "getManager()": {
        "details": "get manager address.      "
      },
      "getNetWorthBalance(address)": {
        "details": "Retrieve net worth balance data.",
        "params": {
          "collateral": "input retrieved collateral coin address "
        }
      },
      "getUserInputCollateral(address,address)": {
        "details": "Retrieve user's amount of the specified collateral.",
        "params": {
          "collateral": "input retrieved collateral coin address ",
          "user": "input retrieved account "
        }
      },
      "getUserPayingUsd(address)": {
        "details": "Retrieve user's cost of collateral, priced in USD.",
        "params": {
          "user": "input retrieved account "
        }
      },
      "getWhiteList()": {
        "details": "Implementation of getting the eligible whitelist."
      },
      "isEligibleAddress(address)": {
        "details": "Implementation of testing whether the input address is eligible.",
        "params": {
          "tmpAddress": "input address for testing."
        }
      },
      "isOwner()": {
        "details": "Returns true if the caller is the current owner."
      },
      "owner()": {
        "details": "Returns the address of the current owner."
      },
      "removeWhiteList(address)": {
        "details": "Implementation of revoke an invalid address from the whitelist.",
        "params": {
          "removeAddress": "revoked address."
        }
      },
      "renounceOwnership()": {
        "details": "Leaves the contract without owner. It will not be possible to call `onlyOwner` functions anymore. Can only be called by the current owner.     * NOTE: Renouncing ownership will leave the contract without an owner, thereby removing any functionality that is only available to the owner."
      },
      "setCollateralBalance(address,uint256)": {
        "details": "set collateral balance. Only manager contract can modify database.",
        "params": {
          "amount": "the new amount.",
          "collateral": "collateral address."
        }
      },
      "setManager(address)": {
        "details": "set manager by owner.      "
      },
      "setNetWorthBalance(address,int256)": {
        "details": "set net worth balance. Only manager contract can modify database.",
        "params": {
          "amount": "the new amount.",
          "collateral": "collateral address."
        }
      },
      "setTransactionFee(uint256,uint256,uint256)": {
        "details": "set the rate of trasaction fee.",
        "params": {
          "denominator": "thedenominator of transaction fee. transaction fee = numerator/denominator;",
          "feeType": "the transaction fee type",
          "numerator": "the numerator of transaction fee ."
        }
      },
      "setUserInputCollateral(address,address,uint256)": {
        "details": "set user's collateral balance. Only manager contract can modify database.",
        "params": {
          "amount": "user's new amount.",
          "collateral": "collateral address.",
          "user": "user's account."
        }
      },
      "setUserPayingUsd(address,uint256)": {
        "details": "set user paying data,priced in USD. Only manager contract can modify database.",
        "params": {
          "amount": "user's new amount.",
          "user": "user's account."
        }
      },
      "subCollateralBalance(address,uint256)": {
        "details": "Substract collateral balance. Only manager contract can modify database.",
        "params": {
          "amount": "the decrease amount.",
          "collateral": "collateral address."
        }
      },
      "subNetWorthBalance(address,int256)": {
        "details": "Substract net worth balance. Only manager contract can modify database.",
        "params": {
          "amount": "the decrease amount.",
          "collateral": "collateral address."
        }
      },
      "subUserInputCollateral(address,address,uint256)": {
        "details": "Substract user's collateral balance. Only manager contract can modify database.",
        "params": {
          "amount": "user's decrease amount.",
          "collateral": "collateral address.",
          "user": "user's account."
        }
      },
      "subUserPayingUsd(address,uint256)": {
        "details": "Substract user paying data,priced in USD. Only manager contract can modify database.",
        "params": {
          "amount": "user's decrease amount.",
          "user": "user's account."
        }
      },
      "transferOwnership(address)": {
        "details": "Transfers ownership of the contract to a new account (`newOwner`). Can only be called by the current owner."
      },
      "transferPayback(address,address,uint256)": {
        "details": "Operation for transfer user's payback. Only manager contract can invoke this function.",
        "params": {
          "payback": "the payback amount",
          "recieptor": "the recieptor account.",
          "settlement": "the settlement coin address."
        }
      },
      "transferPaybackAndFee(address,address,uint256,uint256)": {
        "details": "Operation for transfer user's payback and deduct transaction fee. Only manager contract can invoke this function.",
        "params": {
          "feeType": "the transaction fee type. see transactionFee contract",
          "payback": "the payback amount",
          "recieptor": "the recieptor account.",
          "settlement": "the settlement coin address."
        }
      },
      "transferPaybackBalances(address,uint256,address[],uint256[],uint256[],uint256[])": {
        "details": "Operation for transfer user's payback and deduct transaction fee for multiple settlement Coin.      Specially used for redeem collateral.Only manager contract can invoke this function.",
        "params": {
          "PremiumBalances": "the premium collateral balance if redeem worth is exceeded user's input collateral.",
          "account": "the recieptor account.",
          "colBalances": "the Collateral balance based for user's input collateral.",
          "prices": "the collateral prices list.",
          "redeemWorth": "the redeem worth, priced in USD.",
          "tmpWhiteList": "the settlement coin white list"
        }
      }
    },
    "title": "collateral pool contract with coin and necessary storage data."
  },
  "userdoc": {
    "methods": {
      "setHalt(bool)": {
        "notice": "function Emergency situation that requires contribution period to stop or not."
      }
    }
  }
}