{
  "contractName": "CollateralPool",
  "abi": [
    {
      "constant": true,
      "inputs": [],
      "name": "name",
      "outputs": [
        {
          "name": "",
          "type": "string"
        }
      ],
      "payable": false,
      "stateMutability": "view",
      "type": "function"
    },
    {
      "constant": false,
      "inputs": [
        {
          "name": "spender",
          "type": "address"
        },
        {
          "name": "amount",
          "type": "uint256"
        }
      ],
      "name": "approve",
      "outputs": [
        {
          "name": "",
          "type": "bool"
        }
      ],
      "payable": false,
      "stateMutability": "nonpayable",
      "type": "function"
    },
    {
      "constant": true,
      "inputs": [],
      "name": "getWhiteList",
      "outputs": [
        {
          "name": "",
          "type": "address[]"
        }
      ],
      "payable": false,
      "stateMutability": "view",
      "type": "function"
    },
    {
      "constant": true,
      "inputs": [],
      "name": "lastCallOption",
      "outputs": [
        {
          "name": "",
          "type": "uint256"
        }
      ],
      "payable": false,
      "stateMutability": "view",
      "type": "function"
    },
    {
      "constant": true,
      "inputs": [],
      "name": "totalSupply",
      "outputs": [
        {
          "name": "",
          "type": "uint256"
        }
      ],
      "payable": false,
      "stateMutability": "view",
      "type": "function"
    },
    {
      "constant": false,
      "inputs": [
        {
          "name": "removeAddress",
          "type": "address"
        }
      ],
      "name": "removeWhiteList",
      "outputs": [],
      "payable": false,
      "stateMutability": "nonpayable",
      "type": "function"
    },
    {
      "constant": false,
      "inputs": [
        {
          "name": "sender",
          "type": "address"
        },
        {
          "name": "recipient",
          "type": "address"
        },
        {
          "name": "amount",
          "type": "uint256"
        }
      ],
      "name": "transferFrom",
      "outputs": [
        {
          "name": "",
          "type": "bool"
        }
      ],
      "payable": false,
      "stateMutability": "nonpayable",
      "type": "function"
    },
    {
      "constant": true,
      "inputs": [
        {
          "name": "",
          "type": "address"
        }
      ],
      "name": "collateralBalances",
      "outputs": [
        {
          "name": "",
          "type": "uint256"
        }
      ],
      "payable": false,
      "stateMutability": "view",
      "type": "function"
    },
    {
      "constant": false,
      "inputs": [],
      "name": "redeemAll",
      "outputs": [],
      "payable": false,
      "stateMutability": "nonpayable",
      "type": "function"
    },
    {
      "constant": true,
      "inputs": [],
      "name": "decimals",
      "outputs": [
        {
          "name": "",
          "type": "uint8"
        }
      ],
      "payable": false,
      "stateMutability": "view",
      "type": "function"
    },
    {
      "constant": false,
      "inputs": [
        {
          "name": "spender",
          "type": "address"
        },
        {
          "name": "addedValue",
          "type": "uint256"
        }
      ],
      "name": "increaseAllowance",
      "outputs": [
        {
          "name": "",
          "type": "bool"
        }
      ],
      "payable": false,
      "stateMutability": "nonpayable",
      "type": "function"
    },
    {
      "constant": true,
      "inputs": [
        {
          "name": "",
          "type": "uint256"
        }
      ],
      "name": "underlyingAssets",
      "outputs": [
        {
          "name": "",
          "type": "uint32"
        }
      ],
      "payable": false,
      "stateMutability": "view",
      "type": "function"
    },
    {
      "constant": true,
      "inputs": [],
      "name": "collateralRate",
      "outputs": [
        {
          "name": "value",
          "type": "uint256"
        },
        {
          "name": "exponent",
          "type": "int32"
        }
      ],
      "payable": false,
      "stateMutability": "view",
      "type": "function"
    },
    {
      "constant": true,
      "inputs": [
        {
          "name": "",
          "type": "uint256"
        }
      ],
      "name": "whiteList",
      "outputs": [
        {
          "name": "",
          "type": "address"
        }
      ],
      "payable": false,
      "stateMutability": "view",
      "type": "function"
    },
    {
      "constant": true,
      "inputs": [
        {
          "name": "account",
          "type": "address"
        }
      ],
      "name": "balanceOf",
      "outputs": [
        {
          "name": "",
          "type": "uint256"
        }
      ],
      "payable": false,
      "stateMutability": "view",
      "type": "function"
    },
    {
      "constant": false,
      "inputs": [],
      "name": "renounceOwnership",
      "outputs": [],
      "payable": false,
      "stateMutability": "nonpayable",
      "type": "function"
    },
    {
      "constant": true,
      "inputs": [],
      "name": "getTotalOccupiedCollateral",
      "outputs": [
        {
          "name": "",
          "type": "uint256"
        }
      ],
      "payable": false,
      "stateMutability": "view",
      "type": "function"
    },
    {
      "constant": true,
      "inputs": [],
      "name": "lastCalBlock",
      "outputs": [
        {
          "name": "",
          "type": "uint256"
        }
      ],
      "payable": false,
      "stateMutability": "view",
      "type": "function"
    },
    {
      "constant": true,
      "inputs": [
        {
          "name": "tmpAddress",
          "type": "address"
        }
      ],
      "name": "isEligibleAddress",
      "outputs": [
        {
          "name": "",
          "type": "bool"
        }
      ],
      "payable": false,
      "stateMutability": "view",
      "type": "function"
    },
    {
      "constant": true,
      "inputs": [],
      "name": "getTransactionFee",
      "outputs": [
        {
          "name": "",
          "type": "uint256"
        },
        {
          "name": "",
          "type": "int32"
        }
      ],
      "payable": false,
      "stateMutability": "view",
      "type": "function"
    },
    {
      "constant": true,
      "inputs": [],
      "name": "owner",
      "outputs": [
        {
          "name": "",
          "type": "address"
        }
      ],
      "payable": false,
      "stateMutability": "view",
      "type": "function"
    },
    {
      "constant": true,
      "inputs": [
        {
          "name": "",
          "type": "uint256"
        }
      ],
      "name": "allOptions",
      "outputs": [
        {
          "name": "optType",
          "type": "uint8"
        },
        {
          "name": "underlying",
          "type": "uint32"
        },
        {
          "name": "expiration",
          "type": "uint256"
        },
        {
          "name": "strikePrice",
          "type": "uint256"
        },
        {
          "name": "amount",
          "type": "uint256"
        },
        {
          "name": "volatility",
          "type": "uint256"
        }
      ],
      "payable": false,
      "stateMutability": "view",
      "type": "function"
    },
    {
      "constant": true,
      "inputs": [],
      "name": "isOwner",
      "outputs": [
        {
          "name": "",
          "type": "bool"
        }
      ],
      "payable": false,
      "stateMutability": "view",
      "type": "function"
    },
    {
      "constant": false,
      "inputs": [
        {
          "name": "currency",
          "type": "address"
        }
      ],
      "name": "redeem",
      "outputs": [],
      "payable": false,
      "stateMutability": "nonpayable",
      "type": "function"
    },
    {
      "constant": true,
      "inputs": [],
      "name": "symbol",
      "outputs": [
        {
          "name": "",
          "type": "string"
        }
      ],
      "payable": false,
      "stateMutability": "view",
      "type": "function"
    },
    {
      "constant": false,
      "inputs": [
        {
          "name": "removeUnderlying",
          "type": "uint32"
        }
      ],
      "name": "removeunderlyingAssets",
      "outputs": [],
      "payable": false,
      "stateMutability": "nonpayable",
      "type": "function"
    },
    {
      "constant": true,
      "inputs": [
        {
          "name": "",
          "type": "address"
        }
      ],
      "name": "managerFee",
      "outputs": [
        {
          "name": "",
          "type": "uint256"
        }
      ],
      "payable": false,
      "stateMutability": "view",
      "type": "function"
    },
    {
      "constant": false,
      "inputs": [
        {
          "name": "index",
          "type": "uint256"
        }
      ],
      "name": "calculatePhaseOccupiedCollateral",
      "outputs": [],
      "payable": false,
      "stateMutability": "nonpayable",
      "type": "function"
    },
    {
      "constant": true,
      "inputs": [],
      "name": "transactionFee",
      "outputs": [
        {
          "name": "value",
          "type": "uint256"
        },
        {
          "name": "exponent",
          "type": "int32"
        }
      ],
      "payable": false,
      "stateMutability": "view",
      "type": "function"
    },
    {
      "constant": false,
      "inputs": [
        {
          "name": "spender",
          "type": "address"
        },
        {
          "name": "subtractedValue",
          "type": "uint256"
        }
      ],
      "name": "decreaseAllowance",
      "outputs": [
        {
          "name": "",
          "type": "bool"
        }
      ],
      "payable": false,
      "stateMutability": "nonpayable",
      "type": "function"
    },
    {
      "constant": false,
      "inputs": [
        {
          "name": "recipient",
          "type": "address"
        },
        {
          "name": "amount",
          "type": "uint256"
        }
      ],
      "name": "transfer",
      "outputs": [
        {
          "name": "",
          "type": "bool"
        }
      ],
      "payable": false,
      "stateMutability": "nonpayable",
      "type": "function"
    },
    {
      "constant": true,
      "inputs": [
        {
          "name": "",
          "type": "uint256"
        },
        {
          "name": "",
          "type": "uint256"
        },
        {
          "name": "",
          "type": "uint256"
        }
      ],
      "name": "burnBlockOptions",
      "outputs": [
        {
          "name": "",
          "type": "uint256"
        }
      ],
      "payable": false,
      "stateMutability": "view",
      "type": "function"
    },
    {
      "constant": false,
      "inputs": [
        {
          "name": "underlying",
          "type": "uint32"
        }
      ],
      "name": "addUnderlyingAsset",
      "outputs": [],
      "payable": false,
      "stateMutability": "nonpayable",
      "type": "function"
    },
    {
      "constant": true,
      "inputs": [
        {
          "name": "",
          "type": "address"
        },
        {
          "name": "",
          "type": "address"
        }
      ],
      "name": "userInputCollateral",
      "outputs": [
        {
          "name": "",
          "type": "uint256"
        }
      ],
      "payable": false,
      "stateMutability": "view",
      "type": "function"
    },
    {
      "constant": true,
      "inputs": [],
      "name": "halted",
      "outputs": [
        {
          "name": "",
          "type": "bool"
        }
      ],
      "payable": false,
      "stateMutability": "view",
      "type": "function"
    },
    {
      "constant": true,
      "inputs": [],
      "name": "tokenNetWorth",
      "outputs": [
        {
          "name": "",
          "type": "uint256"
        }
      ],
      "payable": false,
      "stateMutability": "view",
      "type": "function"
    },
    {
      "constant": true,
      "inputs": [],
      "name": "optionPhase",
      "outputs": [
        {
          "name": "",
          "type": "uint32"
        }
      ],
      "payable": false,
      "stateMutability": "view",
      "type": "function"
    },
    {
      "constant": true,
      "inputs": [
        {
          "name": "settlement",
          "type": "address"
        }
      ],
      "name": "getFeeBalance",
      "outputs": [
        {
          "name": "",
          "type": "uint256"
        }
      ],
      "payable": false,
      "stateMutability": "view",
      "type": "function"
    },
    {
      "constant": true,
      "inputs": [
        {
          "name": "",
          "type": "address"
        }
      ],
      "name": "PremiumBalances",
      "outputs": [
        {
          "name": "",
          "type": "uint256"
        }
      ],
      "payable": false,
      "stateMutability": "view",
      "type": "function"
    },
    {
      "constant": true,
      "inputs": [
        {
          "name": "underlying",
          "type": "uint32"
        }
      ],
      "name": "isEligibleUnderlyingAsset",
      "outputs": [
        {
          "name": "",
          "type": "bool"
        }
      ],
      "payable": false,
      "stateMutability": "view",
      "type": "function"
    },
    {
      "constant": true,
      "inputs": [
        {
          "name": "owner",
          "type": "address"
        },
        {
          "name": "spender",
          "type": "address"
        }
      ],
      "name": "allowance",
      "outputs": [
        {
          "name": "",
          "type": "uint256"
        }
      ],
      "payable": false,
      "stateMutability": "view",
      "type": "function"
    },
    {
      "constant": true,
      "inputs": [
        {
          "name": "",
          "type": "address"
        }
      ],
      "name": "userCollateralPaying",
      "outputs": [
        {
          "name": "",
          "type": "uint256"
        }
      ],
      "payable": false,
      "stateMutability": "view",
      "type": "function"
    },
    {
      "constant": false,
      "inputs": [
        {
          "name": "value",
          "type": "uint256"
        },
        {
          "name": "exponent",
          "type": "int32"
        }
      ],
      "name": "setTransactionFee",
      "outputs": [],
      "payable": false,
      "stateMutability": "nonpayable",
      "type": "function"
    },
    {
      "constant": false,
      "inputs": [
        {
          "name": "addAddress",
          "type": "address"
        }
      ],
      "name": "addWhiteList",
      "outputs": [],
      "payable": false,
      "stateMutability": "nonpayable",
      "type": "function"
    },
    {
      "constant": true,
      "inputs": [],
      "name": "getunderlyingAssets",
      "outputs": [
        {
          "name": "",
          "type": "uint32[]"
        }
      ],
      "payable": false,
      "stateMutability": "view",
      "type": "function"
    },
    {
      "constant": true,
      "inputs": [],
      "name": "getAllFeeBalances",
      "outputs": [
        {
          "name": "",
          "type": "address[]"
        },
        {
          "name": "",
          "type": "uint256[]"
        }
      ],
      "payable": false,
      "stateMutability": "view",
      "type": "function"
    },
    {
      "constant": false,
      "inputs": [
        {
          "name": "newOwner",
          "type": "address"
        }
      ],
      "name": "transferOwnership",
      "outputs": [],
      "payable": false,
      "stateMutability": "nonpayable",
      "type": "function"
    },
    {
      "constant": false,
      "inputs": [
        {
          "name": "halt",
          "type": "bool"
        }
      ],
      "name": "setHalt",
      "outputs": [],
      "payable": false,
      "stateMutability": "nonpayable",
      "type": "function"
    },
    {
      "anonymous": false,
      "inputs": [
        {
          "indexed": true,
          "name": "from",
          "type": "address"
        },
        {
          "indexed": true,
          "name": "to",
          "type": "address"
        },
        {
          "indexed": false,
          "name": "value",
          "type": "uint256"
        }
      ],
      "name": "Transfer",
      "type": "event"
    },
    {
      "anonymous": false,
      "inputs": [
        {
          "indexed": true,
          "name": "owner",
          "type": "address"
        },
        {
          "indexed": true,
          "name": "spender",
          "type": "address"
        },
        {
          "indexed": false,
          "name": "value",
          "type": "uint256"
        }
      ],
      "name": "Approval",
      "type": "event"
    },
    {
      "anonymous": false,
      "inputs": [
        {
          "indexed": true,
          "name": "recieptor",
          "type": "address"
        },
        {
          "indexed": true,
          "name": "collateral",
          "type": "address"
        },
        {
          "indexed": false,
          "name": "payback",
          "type": "uint256"
        }
      ],
      "name": "TransferPayback",
      "type": "event"
    },
    {
      "anonymous": false,
      "inputs": [
        {
          "indexed": true,
          "name": "previousOwner",
          "type": "address"
        },
        {
          "indexed": true,
          "name": "newOwner",
          "type": "address"
        }
      ],
      "name": "OwnershipTransferred",
      "type": "event"
    },
    {
      "constant": false,
      "inputs": [
        {
          "name": "collateral",
          "type": "address"
        },
        {
          "name": "amount",
          "type": "uint256"
        }
      ],
      "name": "addCollateral",
      "outputs": [],
      "payable": true,
      "stateMutability": "payable",
      "type": "function"
    },
    {
      "constant": false,
      "inputs": [
        {
          "name": "tokenAmount",
          "type": "uint256"
        },
        {
          "name": "collateral",
          "type": "address"
        }
      ],
      "name": "redeemCollateral",
      "outputs": [],
      "payable": false,
      "stateMutability": "nonpayable",
      "type": "function"
    }
  ],
  "bytecode": "0x6002805460ff199081169091556003608081905260021960a0526005556006805463fffffffd63ffffffff19918216179091556402540be400600b556000600d55600e80549091166101f4179055601280549091169055610100604052600a60c08190527f536861726564436f696e0000000000000000000000000000000000000000000060e090815262000098916013919062000145565b506040805180820190915260058082527f53436f696e0000000000000000000000000000000000000000000000000000006020909201918252620000df9160149162000145565b50600060178190556402540be4006018556305f5e100601b558054600160a060020a0319163317808255604051600160a060020a039190911691907f8be0079c531659141344cd1fd0a4f28419497f9722a3daafe3b4186f6b6457e0908290a3620001ea565b828054600181600116156101000203166002900490600052602060002090601f016020900481019282601f106200018857805160ff1916838001178555620001b8565b82800160010185558215620001b8579182015b82811115620001b85782518255916020019190600101906200019b565b50620001c6929150620001ca565b5090565b620001e791905b80821115620001c65760008155600101620001d1565b90565b6134ba80620001fa6000396000f3006080604052600436106102425763ffffffff60e060020a60003504166306fdde038114610247578063095ea7b3146102d157806309a9d76c14610309578063132a56271461036e57806318160ddd146103955780632042e5c2146103aa57806323b872dd146103cd57806329bc969d146103f75780632f4350c214610418578063313ce5671461042d57806339509351146104585780633b50c4d11461047c57806358a6be1c146104ad5780635c475d42146104e05780636d75b9ee1461051457806370a082311461052b578063715018a61461054c57806373a3d424146105615780637e2eeb7e14610576578063817bf86d1461058b57806385d79102146105ac5780638da5cb5b146105c15780638ea745b8146105d65780638f32d59b1461062a57806395a2251f1461063f57806395d89b411461066057806395efd989146106755780639965a4d51461069357806399deae0a146106b45780639ed3edf0146106cc578063a20a8045146106e1578063a457c2d714610705578063a9059cbb14610729578063a95c594a1461074d578063afec82fc1461076b578063b4d5a9c714610789578063b9b8af0b146107b0578063bf7f96df146107c5578063c27b7dfb146107da578063c78f6803146107ef578063cbb7bbc914610810578063db6ad2bd14610831578063dd62ed3e1461084f578063ddb944e514610876578063e4a9d2be14610897578063e7cd4a04146108b5578063eba1f560146108d6578063f20568cd146108eb578063f2fde38b14610999578063f4954387146109ba575b600080fd5b34801561025357600080fd5b5061025c6109d4565b6040805160208082528351818301528351919283929083019185019080838360005b8381101561029657818101518382015260200161027e565b50505050905090810190601f1680156102c35780820380516001836020036101000a031916815260200191505b509250505060405180910390f35b3480156102dd57600080fd5b506102f5600160a060020a0360043516602435610a62565b604080519115158252519081900360200190f35b34801561031557600080fd5b5061031e610a78565b60408051602080825283518183015283519192839290830191858101910280838360005b8381101561035a578181015183820152602001610342565b505050509050019250505060405180910390f35b34801561037a57600080fd5b50610383610adb565b60408051918252519081900360200190f35b3480156103a157600080fd5b50610383610ae1565b3480156103b657600080fd5b506103cb600160a060020a0360043516610ae7565b005b3480156103d957600080fd5b506102f5600160a060020a0360043581169060243516604435610bd8565b34801561040357600080fd5b50610383600160a060020a0360043516610c8b565b34801561042457600080fd5b506103cb610c9d565b34801561043957600080fd5b50610442610e9b565b6040805160ff9092168252519081900360200190f35b34801561046457600080fd5b506102f5600160a060020a0360043516602435610ea0565b34801561048857600080fd5b50610494600435610edc565b6040805163ffffffff9092168252519081900360200190f35b3480156104b957600080fd5b506104c2610f14565b60408051928352600391820b90910b60208301528051918290030190f35b3480156104ec57600080fd5b506104f8600435610f20565b60408051600160a060020a039092168252519081900360200190f35b6103cb600160a060020a0360043516602435610f48565b34801561053757600080fd5b50610383600160a060020a03600435166110d8565b34801561055857600080fd5b506103cb6110f3565b34801561056d57600080fd5b50610383611196565b34801561058257600080fd5b50610383611470565b34801561059757600080fd5b506102f5600160a060020a0360043516611476565b3480156105b857600080fd5b506104c261148d565b3480156105cd57600080fd5b506104f861149a565b3480156105e257600080fd5b506105ee6004356114a9565b6040805160ff909716875263ffffffff9095166020870152858501939093526060850191909152608084015260a0830152519081900360c00190f35b34801561063657600080fd5b506102f56114f9565b34801561064b57600080fd5b506103cb600160a060020a036004351661150a565b34801561066c57600080fd5b5061025c6116b2565b34801561068157600080fd5b506103cb63ffffffff6004351661170d565b34801561069f57600080fd5b50610383600160a060020a036004351661180c565b3480156106c057600080fd5b506103cb60043561181e565b3480156106d857600080fd5b506104c2611aa5565b3480156106ed57600080fd5b506103cb600435600160a060020a0360243516611ab1565b34801561071157600080fd5b506102f5600160a060020a0360043516602435611c82565b34801561073557600080fd5b506102f5600160a060020a0360043516602435611d1b565b34801561075957600080fd5b50610383600435602435604435611d28565b34801561077757600080fd5b506103cb63ffffffff60043516611d68565b34801561079557600080fd5b50610383600160a060020a0360043581169060243516611e2b565b3480156107bc57600080fd5b506102f5611e48565b3480156107d157600080fd5b50610383611e51565b3480156107e657600080fd5b50610494611e57565b3480156107fb57600080fd5b50610383600160a060020a0360043516611e63565b34801561081c57600080fd5b50610383600160a060020a0360043516611e7e565b34801561083d57600080fd5b506102f563ffffffff60043516611e90565b34801561085b57600080fd5b50610383600160a060020a0360043581169060243516611ea7565b34801561088257600080fd5b50610383600160a060020a0360043516611ed2565b3480156108a357600080fd5b506103cb60043560243560030b611ee4565b3480156108c157600080fd5b506103cb600160a060020a0360043516611f57565b3480156108e257600080fd5b5061031e612019565b3480156108f757600080fd5b5061090061209c565b604051808060200180602001838103835285818151815260200191508051906020019060200280838360005b8381101561094457818101518382015260200161092c565b50505050905001838103825284818151815260200191508051906020019060200280838360005b8381101561098357818101518382015260200161096b565b5050505090500194505050505060405180910390f35b3480156109a557600080fd5b506103cb600160a060020a03600435166121a5565b3480156109c657600080fd5b506103cb60043515156121fd565b6013805460408051602060026001851615610100026000190190941693909304601f81018490048402820184019092528181529291830182828015610a5a5780601f10610a2f57610100808354040283529160200191610a5a565b820191906000526020600020905b815481529060010190602001808311610a3d57829003601f168201915b505050505081565b6000610a6f33848461225c565b50600192915050565b60606003805480602002602001604051908101604052809291908181526020018280548015610ad057602002820191906000526020600020905b8154600160a060020a03168152600190910190602001808311610ab2575b505050505090505b90565b600f5481565b60175490565b6000610af16114f9565b1515610b35576040805160e560020a62461bcd028152602060048201819052602482015260008051602061346f833981519152604482015290519081900360640190fd5b610b3e826123c9565b600354909150811015610bd457600354600019018114610bbf57600380546000198101908110610b6a57fe5b60009182526020909120015460038054600160a060020a039092169183908110610b9057fe5b9060005260206000200160006101000a815481600160a060020a030219169083600160a060020a031602179055505b6003805490610bd29060001983016133fc565b505b5050565b6000610be584848461241e565b60408051606081018252602881527f45524332303a207472616e7366657220616d6f756e74206578636565647320616020808301919091527f6c6c6f77616e636500000000000000000000000000000000000000000000000082840152600160a060020a0387166000908152601682528381203380835292529290922054610c819287929091610c7c91879063ffffffff61258e16565b61225c565b5060019392505050565b60196020526000908152604090205481565b6000806000610caa6114f9565b1515610cee576040805160e560020a62461bcd028152602060048201819052602482015260008051602061346f833981519152604482015290519081900360640190fd5b600092505b600354831015610bd25760046000600385815481101515610d1057fe5b6000918252602080832090910154600160a060020a031683528201929092526040018120549250821115610e9057600060046000600386815481101515610d5357fe5b6000918252602080832090910154600160a060020a031683528201929092526040019020556003805484908110610d8657fe5b600091825260208220015460038054600160a060020a0390921693509085908110610dad57fe5b600091825260209091200154600160a060020a03161415610dfb57604051339083156108fc029084906000818181858888f19350505050158015610df5573d6000803e3d6000fd5b50610e90565b604080517fa9059cbb000000000000000000000000000000000000000000000000000000008152336004820152602481018490529051600160a060020a0383169163a9059cbb9160448083019260209291908290030181600087803b158015610e6357600080fd5b505af1158015610e77573d6000803e3d6000fd5b505050506040513d6020811015610e8d57600080fd5b50505b600190920191610cf3565b601281565b336000818152601660209081526040808320600160a060020a03871684529091528120549091610a6f918590610c7c908663ffffffff61262b16565b6001805482908110610eea57fe5b9060005260206000209060089182820401919006600402915054906101000a900463ffffffff1681565b60075460085460030b82565b6003805482908110610f2e57fe5b600091825260209091200154600160a060020a0316905081565b600160a060020a03821660009081526019602052604081205481908190610f75908563ffffffff61262b16565b600160a060020a038616600081815260196020908152604080832094909455338252601d8152838220928252919091522054610fb7908563ffffffff61262b16565b336000908152601d60209081526040808320600160a060020a038a811680865291845282852095909555600a5482517f41976e090000000000000000000000000000000000000000000000000000000081526004810192909252915191909416936341976e099360248083019493928390030190829087803b15801561103c57600080fd5b505af1158015611050573d6000803e3d6000fd5b505050506040513d602081101561106657600080fd5b5051925061107a838563ffffffff61269316565b9150611091601b548361273290919063ffffffff16565b336000908152601c60205260409020549091506110b4908363ffffffff61262b16565b336000818152601c60205260409020919091556110d1908261277b565b5050505050565b600160a060020a031660009081526015602052604090205490565b6110fb6114f9565b151561113f576040805160e560020a62461bcd028152602060048201819052602482015260008051602061346f833981519152604482015290519081900360640190fd5b60008054604051600160a060020a03909116907f8be0079c531659141344cd1fd0a4f28419497f9722a3daafe3b4186f6b6457e0908390a36000805473ffffffffffffffffffffffffffffffffffffffff19169055565b600080606060008060008060006111ab612840565b60015460408051828152602080840282010190915291985080156111d9578160200160208202803883390190505b509550600094505b6001548510156112c357600a5460018054600160a060020a039092169163da66325791908890811061120f57fe5b90600052602060002090600891828204019190066004029054906101000a900463ffffffff166040518263ffffffff1660e060020a028152600401808263ffffffff168152602001915050602060405180830381600087803b15801561127457600080fd5b505af1158015611288573d6000803e3d6000fd5b505050506040513d602081101561129e57600080fd5b505186518790879081106112ae57fe5b602090810290910101526001909401936111e1565b600f5460010193505b600c5484101561136557611309600c858154811015156112e857fe5b6000918252602090912060059091020154610100900463ffffffff1661288b565b925061135861134b600c8681548110151561132057fe5b9060005260206000209060050201888681518110151561133c57fe5b906020019060200201516128e6565b889063ffffffff61262b16565b96506001909301926112cc565b60105460010191505b438211611464575060008181526009602052604081209094505b8054851015611459576113bf600c82878154811015156113a457fe5b6000918252602082206002909102010154815481106112e857fe5b925061144c61143f600c83888154811015156113d757fe5b6000918252602082206002909102010154815481106113f257fe5b9060005260206000209060050201838881548110151561140e57fe5b6000918252602090912060029091020160010154898781518110151561143057fe5b9060200190602002015161296a565b889063ffffffff6129e516565b9650600190940193611388565b60019091019061136e565b50949695505050505050565b60105481565b600080611482836123c9565b600354119392505050565b60055460065460030b9091565b600054600160a060020a031690565b600c8054829081106114b757fe5b60009182526020909120600590910201805460018201546002830154600384015460049094015460ff8416955061010090930463ffffffff1693919290919086565b600054600160a060020a0316331490565b6000806115156114f9565b1515611559576040805160e560020a62461bcd028152602060048201819052602482015260008051602061346f833981519152604482015290519081900360640190fd5b600160a060020a038316600090815260046020526040812054925082116115ca576040805160e560020a62461bcd02815260206004820152601260248201527f4974277320656d7074792062616c616e63650000000000000000000000000000604482015290519081900360640190fd5b600160a060020a038316600081815260046020526040812055151561161c57604051339083156108fc029084906000818181858888f19350505050158015611616573d6000803e3d6000fd5b50610bd2565b50604080517fa9059cbb0000000000000000000000000000000000000000000000000000000081523360048201526024810183905290518391600160a060020a0383169163a9059cbb916044808201926020929091908290030181600087803b15801561168857600080fd5b505af115801561169c573d6000803e3d6000fd5b505050506040513d60208110156110d157600080fd5b6014805460408051602060026001851615610100026000190190941693909304601f81018490048402820184019092528181529291830182828015610a5a5780601f10610a2f57610100808354040283529160200191610a5a565b60006117176114f9565b151561175b576040805160e560020a62461bcd028152602060048201819052602482015260008051602061346f833981519152604482015290519081900360640190fd5b6117648261288b565b600154909150811015610bd4576001546000190181146117f95760018054600019810190811061179057fe5b90600052602060002090600891828204019190066004029054906101000a900463ffffffff166001828154811015156117c557fe5b90600052602060002090600891828204019190066004026101000a81548163ffffffff021916908363ffffffff1602179055505b6001805490610bd2906000198301613420565b60046020526000908152604090205481565b600080606060008061182e6114f9565b1515611872576040805160e560020a62461bcd028152602060048201819052602482015260008051602061346f833981519152604482015290519081900360640190fd5b600e5461188a90879063ffffffff9081169061269316565b600c54909550851061189b57611a9d565b6011546001870111156118b957600186016118b76011826133fc565b505b600e546118d190869063ffffffff9081169061262b16565b600c549094508411156118e457600c5493505b600154604080518281526020808402820101909152908015611910578160200160208202803883390190505b509250600091505b6001548210156119fa57600a5460018054600160a060020a039092169163da66325791908590811061194657fe5b90600052602060002090600891828204019190066004029054906101000a900463ffffffff166040518263ffffffff1660e060020a028152600401808263ffffffff168152602001915050602060405180830381600087803b1580156119ab57600080fd5b505af11580156119bf573d6000803e3d6000fd5b505050506040513d60208110156119d557600080fd5b505183518490849081106119e557fe5b60209081029091010152600190910190611918565b5060005b83851015611a6557611a18600c868154811015156112e857fe5b9550611a58611a4b600c87815481101515611a2f57fe5b9060005260206000209060050201858981518110151561133c57fe5b829063ffffffff61262b16565b60019095019490506119fe565b80601187815481101515611a7557fe5b906000526020600020018190555060018403600f541015611a9d576000198401600f55436010555b505050505050565b60055460065460030b82565b3360009081526015602052604081205481908190819081908190881115611b22576040805160e560020a62461bcd02815260206004820152601e60248201527f53436f696e2062616c616e636520697320696e73756666696369656e74210000604482015290519081900360640190fd5b871515611b2e57611c78565b611b36611196565b9550611b4f601b5460175461269390919063ffffffff16565b9450611b66601b548961269390919063ffffffff16565b935084611b79878663ffffffff61262b16565b11611c785733600090815260156020908152604080832054601c90925290912054611bbb9190611baf908b63ffffffff61269316565b9063ffffffff61273216565b336000908152601c6020526040902054909350611bde908463ffffffff6129e516565b336000818152601c6020526040902091909155611bfb9089612a27565b601b54611c0f90899063ffffffff61269316565b9150611c1b8288612b12565b9150600090505b600082118015611c33575060035481105b15611c6f57611c6582600383815481101515611c4b57fe5b600091825260209091200154600160a060020a0316612b12565b9150600101611c22565b611c7882612ca9565b5050505050505050565b60408051606081018252602581527f45524332303a2064656372656173656420616c6c6f77616e63652062656c6f776020808301919091527f207a65726f0000000000000000000000000000000000000000000000000000008284015233600081815260168352848120600160a060020a0388168252909252928120549092610a6f9290918691610c7c9190879063ffffffff61258e16565b6000610a6f33848461241e565b600960205282600052604060002082815481101515611d4357fe5b906000526020600020906002020181600281101515611d5e57fe5b0154925083915050565b6000611d726114f9565b1515611db6576040805160e560020a62461bcd028152602060048201819052602482015260008051602061346f833981519152604482015290519081900360640190fd5b611dbf8261288b565b600154909150811415610bd457600180548082018255600091909152600881047fb10e2d527612073b26eecdfd717e6a320cf44b4afac2b0732d9fcbe2b7fa0cf601805463ffffffff80861660046007909516949094026101000a938402930219169190911790555050565b601d60209081526000928352604080842090915290825290205481565b60025460ff1681565b601b5481565b600e5463ffffffff1681565b600160a060020a031660009081526004602052604090205490565b601a6020526000908152604090205481565b600080611e9c8361288b565b600154119392505050565b600160a060020a03918216600090815260166020908152604080832093909416825291909152205490565b601c6020526000908152604090205481565b611eec6114f9565b1515611f30576040805160e560020a62461bcd028152602060048201819052602482015260008051602061346f833981519152604482015290519081900360640190fd5b6005919091556006805460039290920b63ffffffff1663ffffffff19909216919091179055565b6000611f616114f9565b1515611fa5576040805160e560020a62461bcd028152602060048201819052602482015260008051602061346f833981519152604482015290519081900360640190fd5b611fae826123c9565b600354909150811415610bd457600380546001810182556000919091527fc2575a0e9e593c00f959f8c92f12db2869c3395a3b0502d05e2516446f71f85b018054600160a060020a03841673ffffffffffffffffffffffffffffffffffffffff199091161790555050565b60606001805480602002602001604051908101604052809291908181526020018280548015610ad057602002820191906000526020600020906000905b82829054906101000a900463ffffffff1663ffffffff16815260200190600401906020826003010492830192600103820291508084116120565790505050505050905090565b606080606060006003805490506040519080825280602002602001820160405280156120d2578160200160208202803883390190505b509150600090505b60035481101561213c57600460006003838154811015156120f757fe5b6000918252602080832090910154600160a060020a03168352820192909252604001902054825183908390811061212a57fe5b602090810290910101526001016120da565b6003828180548060200260200160405190810160405280929190818152602001828054801561219457602002820191906000526020600020905b8154600160a060020a03168152600190910190602001808311612176575b505050505091509350935050509091565b6121ad6114f9565b15156121f1576040805160e560020a62461bcd028152602060048201819052602482015260008051602061346f833981519152604482015290519081900360640190fd5b6121fa81612f73565b50565b6122056114f9565b1515612249576040805160e560020a62461bcd028152602060048201819052602482015260008051602061346f833981519152604482015290519081900360640190fd5b6002805460ff1916911515919091179055565b600160a060020a03831615156122e1576040805160e560020a62461bcd028152602060048201526024808201527f45524332303a20617070726f76652066726f6d20746865207a65726f2061646460448201527f7265737300000000000000000000000000000000000000000000000000000000606482015290519081900360840190fd5b600160a060020a0382161515612367576040805160e560020a62461bcd02815260206004820152602260248201527f45524332303a20617070726f766520746f20746865207a65726f20616464726560448201527f7373000000000000000000000000000000000000000000000000000000000000606482015290519081900360840190fd5b600160a060020a03808416600081815260166020908152604080832094871680845294825291829020859055815185815291517f8c5be1e5ebec7d5bd14f71427d1e84f3dd0314c0f7b2291e5b200ac8c7c3b9259281900390910190a3505050565b6000805b6003548110156124185782600160a060020a03166003828154811015156123f057fe5b600091825260209091200154600160a060020a0316141561241057612418565b6001016123cd565b92915050565b600160a060020a03831615156124a4576040805160e560020a62461bcd02815260206004820152602560248201527f45524332303a207472616e736665722066726f6d20746865207a65726f20616460448201527f6472657373000000000000000000000000000000000000000000000000000000606482015290519081900360840190fd5b600160a060020a038216151561252a576040805160e560020a62461bcd02815260206004820152602360248201527f45524332303a207472616e7366657220746f20746865207a65726f206164647260448201527f6573730000000000000000000000000000000000000000000000000000000000606482015290519081900360840190fd5b6125348382613061565b61253e8282613130565b81600160a060020a031683600160a060020a03167fddf252ad1be2c89b69c2b068fc378daa952ba7f163c4a11628f55a4df523b3ef836040518082815260200191505060405180910390a3505050565b60008082858511156126215760405160e560020a62461bcd0281526004018080602001828103825283818151815260200191508051906020019080838360005b838110156125e65781810151838201526020016125ce565b50505050905090810190601f1680156126135780820380516001836020036101000a031916815260200191505b509250505060405180910390fd5b5050509103919050565b600082820183811015612688576040805160e560020a62461bcd02815260206004820152601b60248201527f536166654d6174683a206164646974696f6e206f766572666c6f770000000000604482015290519081900360640190fd5b8091505b5092915050565b6000808315156126a6576000915061268c565b508282028284828115156126b657fe5b0414612688576040805160e560020a62461bcd02815260206004820152602160248201527f536166654d6174683a206d756c7469706c69636174696f6e206f766572666c6f60448201527f7700000000000000000000000000000000000000000000000000000000000000606482015290519081900360840190fd5b600061277483836040805190810160405280601a81526020017f536166654d6174683a206469766973696f6e206279207a65726f0000000000008152506131df565b9392505050565b600160a060020a03821615156127db576040805160e560020a62461bcd02815260206004820152601f60248201527f45524332303a206d696e7420746f20746865207a65726f206164647265737300604482015290519081900360640190fd5b6017546127ee908263ffffffff61262b16565b6017556127fb8282613130565b604080518281529051600160a060020a038416916000917fddf252ad1be2c89b69c2b068fc378daa952ba7f163c4a11628f55a4df523b3ef9181900360200190a35050565b600080805b6011548110156128855761287b60118281548110151561286157fe5b90600052602060002001548361262b90919063ffffffff16565b9150600101612845565b50919050565b6000805b600154811015612418578263ffffffff166001828154811015156128af57fe5b6000918252602090912060088204015460079091166004026101000a900463ffffffff1614156128de57612418565b60010161288f565b60028201548254600091829160ff1615908410141561291f57600384015460028501546129189163ffffffff61269316565b9050612938565b600384015461293590849063ffffffff61269316565b90505b604080518082019091526007548152600854600390810b810b900b6020820152612962908261324b565b949350505050565b60028301548354600091829160ff1615908410141561299f576002850154612998908563ffffffff61269316565b90506129b2565b6129af838563ffffffff61269316565b90505b604080518082019091526007548152600854600390810b810b900b60208201526129dc908261324b565b95945050505050565b600061277483836040805190810160405280601e81526020017f536166654d6174683a207375627472616374696f6e206f766572666c6f77000081525061258e565b600160a060020a0382161515612aad576040805160e560020a62461bcd02815260206004820152602160248201527f45524332303a206275726e2066726f6d20746865207a65726f2061646472657360448201527f7300000000000000000000000000000000000000000000000000000000000000606482015290519081900360840190fd5b612ab78282613061565b601754612aca908263ffffffff6129e516565b601755604080518281529051600091600160a060020a038516917fddf252ad1be2c89b69c2b068fc378daa952ba7f163c4a11628f55a4df523b3ef9181900360200190a35050565b336000908152601d60209081526040808320600160a060020a0385168452909152812054818080831515612b4857869450612c9f565b600a54604080517f41976e09000000000000000000000000000000000000000000000000000000008152600160a060020a038981166004830152915191909216916341976e099160248083019260209291908290030181600087803b158015612bb057600080fd5b505af1158015612bc4573d6000803e3d6000fd5b505050506040513d6020811015612bda57600080fd5b50519250612bee878463ffffffff61273216565b9150811515612c005760009450612c9f565b838211612c0d5781612c0f565b835b336000908152601d60209081526040808320600160a060020a038b168452909152902054909150612c46908263ffffffff6129e516565b336000818152601d60209081526040808320600160a060020a038c168452909152902091909155612c789087836132b6565b83821115612c9a57612c9361143f828563ffffffff61269316565b9450612c9f565b600094505b5050505092915050565b6000808080808080871515612cbd57611c78565b601854612cd190899063ffffffff61269316565b96506000955060009450600093505b600354841015612e4057612d32601a6000600387815481101515612d0057fe5b6000918252602080832090910154600160a060020a03168352820192909252604001902054879063ffffffff61262b16565b600a5460038054929850600160a060020a03909116916341976e09919087908110612d5957fe5b60009182526020808320909101546040805160e060020a63ffffffff8716028152600160a060020a0390921660048301525160248083019491928390030190829087803b158015612da957600080fd5b505af1158015612dbd573d6000803e3d6000fd5b505050506040513d6020811015612dd357600080fd5b505160038054919450612e3491612e2791601a916000919089908110612df557fe5b6000918252602080832090910154600160a060020a03168352820192909252604001902054859063ffffffff61269316565b869063ffffffff61262b16565b50600190930192612ce0565b612e5485611baf898963ffffffff61269316565b9150600093505b600354841015611c7857612eb7601854611baf88611baf86601a600060038c815481101515612e8657fe5b6000918252602080832090910154600160a060020a031683528201929092526040019020549063ffffffff61269316565b9050612f0181601a6000600388815481101515612ed057fe5b6000918252602080832090910154600160a060020a031683528201929092526040019020549063ffffffff6129e516565b601a6000600387815481101515612f1457fe5b6000918252602080832090910154600160a060020a0316835282019290925260400190205560038054612f6891339187908110612f4d57fe5b600091825260209091200154600160a060020a0316836132b6565b600190930192612e5b565b600160a060020a0381161515612ff9576040805160e560020a62461bcd02815260206004820152602660248201527f4f776e61626c653a206e6577206f776e657220697320746865207a65726f206160448201527f6464726573730000000000000000000000000000000000000000000000000000606482015290519081900360840190fd5b60008054604051600160a060020a03808516939216917f8be0079c531659141344cd1fd0a4f28419497f9722a3daafe3b4186f6b6457e091a36000805473ffffffffffffffffffffffffffffffffffffffff1916600160a060020a0392909216919091179055565b600160a060020a03821615156130e7576040805160e560020a62461bcd02815260206004820152602360248201527f45524332303a207472616e7366657220746f20746865207a65726f206164647260448201527f6573730000000000000000000000000000000000000000000000000000000000606482015290519081900360840190fd5b600160a060020a038216600090815260156020526040902054613110908263ffffffff6129e516565b600160a060020a0390921660009081526015602052604090209190915550565b600160a060020a03821615156131b6576040805160e560020a62461bcd02815260206004820152602360248201527f45524332303a207472616e7366657220746f20746865207a65726f206164647260448201527f6573730000000000000000000000000000000000000000000000000000000000606482015290519081900360840190fd5b600160a060020a038216600090815260156020526040902054613110908263ffffffff61262b16565b600080828185116132355760405160e560020a62461bcd028152600401808060200182810382528381815181526020019150805190602001908083836000838110156125e65781810151838201526020016125ce565b50838581151561324157fe5b0495945050505050565b81516000908190613262908463ffffffff61269316565b90506000846020015160030b131561329757602084015161329090829060030b600a0a63ffffffff61269316565b9050612688565b602084015161296290829060000360030b600a0a63ffffffff61273216565b60008115156132c4576133f6565b600160a060020a038316151561331057604051600160a060020a0385169083156108fc029084906000818181858888f1935050505015801561330a573d6000803e3d6000fd5b506133aa565b50604080517fa9059cbb000000000000000000000000000000000000000000000000000000008152600160a060020a038581166004830152602482018490529151849283169163a9059cbb9160448083019260209291908290030181600087803b15801561337d57600080fd5b505af1158015613391573d6000803e3d6000fd5b505050506040513d60208110156133a757600080fd5b50505b82600160a060020a031684600160a060020a03167f8aaaec2388cc390cde69685f78340e15f36d424b6b6b595f549dd883931f9c9b846040518082815260200191505060405180910390a35b50505050565b815481835581811115610bd257600083815260209020610bd2918101908301613450565b815481835581811115610bd2576007016008900481600701600890048360005260206000209182019101610bd291905b610ad891905b8082111561346a5760008155600101613456565b509056004f776e61626c653a2063616c6c6572206973206e6f7420746865206f776e6572a165627a7a72305820c860df5c1aa15b0b58d54e241980f8540d875972144a620d1a9bfd3ea617a4b20029",
  "source": "pragma solidity ^0.4.26;\r\nimport \"./OptionslPool.sol\";\r\nimport \"./SafeMath.sol\";\r\nimport \"./ReentrancyGuard.sol\";\r\nimport \"./SharedCoin.sol\";\r\nimport \"./underlyingAssets.sol\";\r\n\r\ncontract CollateralPool is OptionslPool,ReentrancyGuard,SharedCoin {\r\n    using SafeMath for uint256;\r\n    uint256 private _calDecimal = 10000000000;\r\n    //address collaterel\r\n    mapping (address => uint256) public collateralBalances;\r\n    mapping (address => uint256) public PremiumBalances;\r\n    //token net worth till tillBlockNumber\r\n    uint256 public tokenNetWorth = 1e8;\r\n    //user paying for collateral usd;\r\n    mapping (address => uint256) public userCollateralPaying;\r\n    //account -> collateral -> amount\r\n    mapping (address => mapping (address => uint256)) public userInputCollateral;\r\n    function addCollateral(address collateral,uint256 amount)public payable {\r\n        collateralBalances[collateral] = collateralBalances[collateral].add(amount);\r\n        userInputCollateral[msg.sender][collateral] = userInputCollateral[msg.sender][collateral].add(amount);\r\n        uint256 price = _oracle.getPrice(collateral);\r\n        uint256 userPaying = price.mul(amount);\r\n        uint256 mintAmount = userPaying.div(tokenNetWorth);\r\n        userCollateralPaying[msg.sender] = userCollateralPaying[msg.sender].add(userPaying);\r\n        _mint(msg.sender,mintAmount);\r\n    }\r\n    //calculate token\r\n    function redeemCollateral(uint256 tokenAmount,address collateral)public {\r\n        require(balances[msg.sender]>=tokenAmount,\"SCoin balance is insufficient!\");\r\n        if (tokenAmount == 0){\r\n            return;\r\n        }\r\n        uint256 totalOccupied = getTotalOccupiedCollateral();\r\n        uint256 totalWorth = _totalSupply.mul(tokenNetWorth);\r\n        uint256 redeemWorth = tokenAmount.mul(tokenNetWorth);\r\n        if (totalOccupied.add(redeemWorth)<=totalWorth) {\r\n            uint256 redeemPaying = userCollateralPaying[msg.sender].mul(tokenAmount).div(balances[msg.sender]);\r\n            userCollateralPaying[msg.sender] = userCollateralPaying[msg.sender].sub(redeemPaying);\r\n            _burn(msg.sender, tokenAmount);\r\n            uint256 worth = tokenAmount.mul(tokenNetWorth);\r\n            worth = _redeemCollateral(worth,collateral);\r\n            for (uint256 i=0;worth>0 && i<whiteList.length;i++){\r\n                worth = _redeemCollateral(worth,whiteList[i]);    \r\n            } \r\n            _paybackWorth(worth);\r\n        }\r\n    }\r\n    function _redeemCollateral(uint256 worth,address collateral)internal returns (uint256){\r\n        uint256 amount = userInputCollateral[msg.sender][collateral];\r\n        if (amount == 0){\r\n            return worth;\r\n        }\r\n        uint256 price = _oracle.getPrice(collateral);\r\n        uint256 redeemAmount = worth.div(price);\r\n        if (redeemAmount == 0){\r\n            return 0;\r\n        }\r\n        uint256 transferAmount = (redeemAmount>amount) ? amount : redeemAmount;\r\n        userInputCollateral[msg.sender][collateral] = userInputCollateral[msg.sender][collateral].sub(transferAmount);\r\n        _transferPayback(msg.sender,collateral,transferAmount);\r\n        if (redeemAmount>amount){\r\n            return worth.sub(transferAmount.mul(price));\r\n        }\r\n        return 0;\r\n    }\r\n    function _paybackWorth(uint256 worth) internal {\r\n        if (worth == 0){\r\n            return;\r\n        }\r\n        uint256 totalCal = worth.mul(_calDecimal);\r\n        uint256 totalNum = 0;\r\n        uint256 totalPrice = 0;\r\n        for (uint256 i=0;i<whiteList.length;i++){\r\n            totalNum = totalNum.add(PremiumBalances[whiteList[i]]);\r\n            uint256 price = _oracle.getPrice(whiteList[i]);\r\n            totalPrice.add(price.mul(PremiumBalances[whiteList[i]]));\r\n        }\r\n        uint256 rate = totalCal.mul(totalNum).div(totalPrice);\r\n        for (i=0;i<whiteList.length;i++){\r\n            uint256 _payBack = PremiumBalances[whiteList[i]].mul(rate).div(totalNum).div(_calDecimal);\r\n            PremiumBalances[whiteList[i]] = PremiumBalances[whiteList[i]].sub(_payBack);\r\n            _transferPayback(msg.sender,whiteList[i],_payBack);\r\n        } \r\n    }\r\n}",
  "sourcePath": "C:\\work\\solidity\\FinnexusOptions_V2\\contracts\\CollateralPool.sol",
  "compiler": {
    "name": "solc",
    "version": "0.4.26+commit.4563c3fc.Emscripten.clang"
  },
  "schemaVersion": "3.1.0",
  "updatedAt": "2020-07-16T09:47:58.968Z",
  "devdoc": {
    "methods": {
      "addUnderlyingAsset(uint32)": {
        "details": "Implementation of add an eligible underlying into the underlyingAssets.\r",
        "params": {
          "underlying": "new eligible underlying.\r"
        }
      },
      "addWhiteList(address)": {
        "details": "Implementation of add an eligible address into the whitelist.\r",
        "params": {
          "addAddress": "new eligible address.\r"
        }
      },
      "allowance(address,address)": {
        "details": "See {IERC20-allowance}.\r"
      },
      "approve(address,uint256)": {
        "details": "See {IERC20-approve}.\r      * Requirements:\r      * - `spender` cannot be the zero address.\r"
      },
      "balanceOf(address)": {
        "details": "See {IERC20-balanceOf}.\r"
      },
      "decreaseAllowance(address,uint256)": {
        "details": "Atomically decreases the allowance granted to `spender` by the caller.\r      * This is an alternative to {approve} that can be used as a mitigation for\r problems described in {IERC20-approve}.\r      * Emits an {Approval} event indicating the updated allowance.\r      * Requirements:\r      * - `spender` cannot be the zero address.\r - `spender` must have allowance for the caller of at least\r `subtractedValue`.\r"
      },
      "getTransactionFee()": {
        "details": "Returns the rate of trasaction fee.\r"
      },
      "getWhiteList()": {
        "details": "Implementation of getting the eligible whitelist.\r"
      },
      "getunderlyingAssets()": {
        "details": "Implementation of getting the eligible underlyingAssets.\r"
      },
      "increaseAllowance(address,uint256)": {
        "details": "Atomically increases the allowance granted to `spender` by the caller.\r      * This is an alternative to {approve} that can be used as a mitigation for\r problems described in {IERC20-approve}.\r      * Emits an {Approval} event indicating the updated allowance.\r      * Requirements:\r      * - `spender` cannot be the zero address.\r"
      },
      "isEligibleAddress(address)": {
        "details": "Implementation of testing whether the input address is eligible.\r",
        "params": {
          "tmpAddress": "input address for testing.\r"
        }
      },
      "isEligibleUnderlyingAsset(uint32)": {
        "details": "Implementation of testing whether the input underlying is eligible.\r",
        "params": {
          "underlying": "input underlying for testing.\r"
        }
      },
      "isOwner()": {
        "details": "Returns true if the caller is the current owner."
      },
      "owner()": {
        "details": "Returns the address of the current owner."
      },
      "removeWhiteList(address)": {
        "details": "Implementation of revoke an invalid address from the whitelist.\r",
        "params": {
          "removeAddress": "revoked address.\r"
        }
      },
      "removeunderlyingAssets(uint32)": {
        "details": "Implementation of revoke an invalid underlying from the underlyingAssets.\r",
        "params": {
          "removeUnderlying": "revoked underlying.\r"
        }
      },
      "renounceOwnership()": {
        "details": "Leaves the contract without owner. It will not be possible to call `onlyOwner` functions anymore. Can only be called by the current owner.     * NOTE: Renouncing ownership will leave the contract without an owner, thereby removing any functionality that is only available to the owner."
      },
      "setTransactionFee(uint256,int32)": {
        "details": "set the rate of trasaction fee.\r",
        "params": {
          "exponent": "the exponent figures of transaction fee.\r transaction fee = Number(value,exponent);\r",
          "value": "the significant figures of transaction fee .\r"
        }
      },
      "totalSupply()": {
        "details": "See {IERC20-totalSupply}.\r"
      },
      "transfer(address,uint256)": {
        "details": "See {IERC20-transfer}.\r      * Requirements:\r      * - `recipient` cannot be the zero address.\r - the caller must have a balance of at least `amount`.\r"
      },
      "transferFrom(address,address,uint256)": {
        "details": "See {IERC20-transferFrom}.\r      * Emits an {Approval} event indicating the updated allowance. This is not\r required by the EIP. See the note at the beginning of {ERC20};\r      * Requirements:\r - `sender` and `recipient` cannot be the zero address.\r - `sender` must have a balance of at least `amount`.\r - the caller must have allowance for `sender`'s tokens of at least\r `amount`.\r"
      },
      "transferOwnership(address)": {
        "details": "Transfers ownership of the contract to a new account (`newOwner`). Can only be called by the current owner."
      }
    }
  },
  "userdoc": {
    "methods": {
      "setHalt(bool)": {
        "notice": "function Emergency situation that requires contribution period to stop or not."
      }
    }
  }
}