{
  "contractName": "CollateralCal",
  "abi": [
    {
      "constant": true,
      "inputs": [
        {
          "name": "tmpAddress",
          "type": "address"
        }
      ],
      "name": "checkAddressRedeemOut",
      "outputs": [
        {
          "name": "",
          "type": "bool"
        }
      ],
      "payable": false,
      "stateMutability": "view",
      "type": "function"
    },
    {
      "constant": true,
      "inputs": [],
      "name": "getWhiteList",
      "outputs": [
        {
          "name": "",
          "type": "address[]"
        }
      ],
      "payable": false,
      "stateMutability": "view",
      "type": "function"
    },
    {
      "constant": false,
      "inputs": [
        {
          "name": "collateralPool",
          "type": "address"
        }
      ],
      "name": "setCollateralPoolAddress",
      "outputs": [],
      "payable": false,
      "stateMutability": "nonpayable",
      "type": "function"
    },
    {
      "constant": false,
      "inputs": [
        {
          "name": "optionsPool",
          "type": "address"
        }
      ],
      "name": "setOptionsPoolAddress",
      "outputs": [],
      "payable": false,
      "stateMutability": "nonpayable",
      "type": "function"
    },
    {
      "constant": false,
      "inputs": [
        {
          "name": "removeAddress",
          "type": "address"
        }
      ],
      "name": "removeWhiteList",
      "outputs": [
        {
          "name": "",
          "type": "bool"
        }
      ],
      "payable": false,
      "stateMutability": "nonpayable",
      "type": "function"
    },
    {
      "constant": true,
      "inputs": [],
      "name": "getCollateralPoolAddress",
      "outputs": [
        {
          "name": "",
          "type": "address"
        }
      ],
      "payable": false,
      "stateMutability": "view",
      "type": "function"
    },
    {
      "constant": false,
      "inputs": [
        {
          "name": "oracle",
          "type": "address"
        }
      ],
      "name": "setOracleAddress",
      "outputs": [],
      "payable": false,
      "stateMutability": "nonpayable",
      "type": "function"
    },
    {
      "constant": false,
      "inputs": [],
      "name": "renounceOwnership",
      "outputs": [],
      "payable": false,
      "stateMutability": "nonpayable",
      "type": "function"
    },
    {
      "constant": true,
      "inputs": [
        {
          "name": "tmpAddress",
          "type": "address"
        }
      ],
      "name": "isEligibleAddress",
      "outputs": [
        {
          "name": "",
          "type": "bool"
        }
      ],
      "payable": false,
      "stateMutability": "view",
      "type": "function"
    },
    {
      "constant": true,
      "inputs": [],
      "name": "owner",
      "outputs": [
        {
          "name": "",
          "type": "address"
        }
      ],
      "payable": false,
      "stateMutability": "view",
      "type": "function"
    },
    {
      "constant": true,
      "inputs": [],
      "name": "isOwner",
      "outputs": [
        {
          "name": "",
          "type": "bool"
        }
      ],
      "payable": false,
      "stateMutability": "view",
      "type": "function"
    },
    {
      "constant": false,
      "inputs": [
        {
          "name": "addAddress",
          "type": "address"
        }
      ],
      "name": "addOperator",
      "outputs": [],
      "payable": false,
      "stateMutability": "nonpayable",
      "type": "function"
    },
    {
      "constant": false,
      "inputs": [
        {
          "name": "removeAddress",
          "type": "address"
        }
      ],
      "name": "removeOperator",
      "outputs": [
        {
          "name": "",
          "type": "bool"
        }
      ],
      "payable": false,
      "stateMutability": "nonpayable",
      "type": "function"
    },
    {
      "constant": true,
      "inputs": [],
      "name": "getOracleAddress",
      "outputs": [
        {
          "name": "",
          "type": "address"
        }
      ],
      "payable": false,
      "stateMutability": "view",
      "type": "function"
    },
    {
      "constant": true,
      "inputs": [
        {
          "name": "tmpAddress",
          "type": "address"
        }
      ],
      "name": "checkAddressPayIn",
      "outputs": [
        {
          "name": "",
          "type": "bool"
        }
      ],
      "payable": false,
      "stateMutability": "view",
      "type": "function"
    },
    {
      "constant": true,
      "inputs": [],
      "name": "getOptionsPoolAddress",
      "outputs": [
        {
          "name": "",
          "type": "address"
        }
      ],
      "payable": false,
      "stateMutability": "view",
      "type": "function"
    },
    {
      "constant": false,
      "inputs": [
        {
          "name": "addAddress",
          "type": "address"
        },
        {
          "name": "permission",
          "type": "uint256"
        }
      ],
      "name": "modifyPermission",
      "outputs": [],
      "payable": false,
      "stateMutability": "nonpayable",
      "type": "function"
    },
    {
      "constant": true,
      "inputs": [],
      "name": "getFPTCoinAddress",
      "outputs": [
        {
          "name": "",
          "type": "address"
        }
      ],
      "payable": false,
      "stateMutability": "view",
      "type": "function"
    },
    {
      "constant": false,
      "inputs": [
        {
          "name": "FPTCoinAddr",
          "type": "address"
        }
      ],
      "name": "setFPTCoinAddress",
      "outputs": [],
      "payable": false,
      "stateMutability": "nonpayable",
      "type": "function"
    },
    {
      "constant": false,
      "inputs": [
        {
          "name": "index",
          "type": "uint256"
        },
        {
          "name": "addAddress",
          "type": "address"
        }
      ],
      "name": "setOperator",
      "outputs": [],
      "payable": false,
      "stateMutability": "nonpayable",
      "type": "function"
    },
    {
      "constant": false,
      "inputs": [
        {
          "name": "addAddress",
          "type": "address"
        }
      ],
      "name": "addWhiteList",
      "outputs": [],
      "payable": false,
      "stateMutability": "nonpayable",
      "type": "function"
    },
    {
      "constant": true,
      "inputs": [],
      "name": "getOperator",
      "outputs": [
        {
          "name": "",
          "type": "address[]"
        }
      ],
      "payable": false,
      "stateMutability": "view",
      "type": "function"
    },
    {
      "constant": false,
      "inputs": [
        {
          "name": "newOwner",
          "type": "address"
        }
      ],
      "name": "transferOwnership",
      "outputs": [],
      "payable": false,
      "stateMutability": "nonpayable",
      "type": "function"
    },
    {
      "constant": false,
      "inputs": [
        {
          "name": "halt",
          "type": "bool"
        }
      ],
      "name": "setHalt",
      "outputs": [],
      "payable": false,
      "stateMutability": "nonpayable",
      "type": "function"
    },
    {
      "anonymous": false,
      "inputs": [
        {
          "indexed": true,
          "name": "from",
          "type": "address"
        },
        {
          "indexed": true,
          "name": "collateral",
          "type": "address"
        },
        {
          "indexed": false,
          "name": "amount",
          "type": "uint256"
        },
        {
          "indexed": false,
          "name": "tokenAmount",
          "type": "uint256"
        }
      ],
      "name": "AddCollateral",
      "type": "event"
    },
    {
      "anonymous": false,
      "inputs": [
        {
          "indexed": true,
          "name": "from",
          "type": "address"
        },
        {
          "indexed": false,
          "name": "collateral",
          "type": "address"
        },
        {
          "indexed": false,
          "name": "allRedeem",
          "type": "uint256"
        }
      ],
      "name": "RedeemCollateral",
      "type": "event"
    },
    {
      "anonymous": false,
      "inputs": [
        {
          "indexed": false,
          "name": "value1",
          "type": "uint256"
        },
        {
          "indexed": false,
          "name": "value2",
          "type": "uint256"
        },
        {
          "indexed": false,
          "name": "value3",
          "type": "uint256"
        }
      ],
      "name": "DebugEvent",
      "type": "event"
    },
    {
      "anonymous": false,
      "inputs": [
        {
          "indexed": true,
          "name": "previousOwner",
          "type": "address"
        },
        {
          "indexed": true,
          "name": "newOwner",
          "type": "address"
        }
      ],
      "name": "OwnershipTransferred",
      "type": "event"
    },
    {
      "constant": true,
      "inputs": [],
      "name": "getInputAmountRange",
      "outputs": [
        {
          "name": "",
          "type": "uint256"
        },
        {
          "name": "",
          "type": "uint256"
        }
      ],
      "payable": false,
      "stateMutability": "view",
      "type": "function"
    },
    {
      "constant": false,
      "inputs": [
        {
          "name": "_minAmount",
          "type": "uint256"
        },
        {
          "name": "_maxAmount",
          "type": "uint256"
        }
      ],
      "name": "setInputAmountRange",
      "outputs": [],
      "payable": false,
      "stateMutability": "nonpayable",
      "type": "function"
    },
    {
      "constant": false,
      "inputs": [
        {
          "name": "settlement",
          "type": "address"
        },
        {
          "name": "amount",
          "type": "uint256"
        }
      ],
      "name": "addNetBalance",
      "outputs": [],
      "payable": true,
      "stateMutability": "payable",
      "type": "function"
    },
    {
      "constant": false,
      "inputs": [
        {
          "name": "colRate",
          "type": "uint256"
        }
      ],
      "name": "setCollateralRate",
      "outputs": [],
      "payable": false,
      "stateMutability": "nonpayable",
      "type": "function"
    },
    {
      "constant": true,
      "inputs": [],
      "name": "getCollateralRate",
      "outputs": [
        {
          "name": "",
          "type": "uint256"
        }
      ],
      "payable": false,
      "stateMutability": "view",
      "type": "function"
    },
    {
      "constant": true,
      "inputs": [
        {
          "name": "user",
          "type": "address"
        }
      ],
      "name": "getUserPayingUsd",
      "outputs": [
        {
          "name": "",
          "type": "uint256"
        }
      ],
      "payable": false,
      "stateMutability": "view",
      "type": "function"
    },
    {
      "constant": true,
      "inputs": [
        {
          "name": "user",
          "type": "address"
        },
        {
          "name": "collateral",
          "type": "address"
        }
      ],
      "name": "userInputCollateral",
      "outputs": [
        {
          "name": "",
          "type": "uint256"
        }
      ],
      "payable": false,
      "stateMutability": "view",
      "type": "function"
    },
    {
      "constant": false,
      "inputs": [],
      "name": "calSharedPayment",
      "outputs": [],
      "payable": false,
      "stateMutability": "nonpayable",
      "type": "function"
    },
    {
      "constant": false,
      "inputs": [
        {
          "name": "newNetworth",
          "type": "int256[]"
        },
        {
          "name": "sharedBalances",
          "type": "int256[]"
        },
        {
          "name": "firstOption",
          "type": "uint256"
        }
      ],
      "name": "setSharedPayment",
      "outputs": [],
      "payable": false,
      "stateMutability": "nonpayable",
      "type": "function"
    },
    {
      "constant": true,
      "inputs": [
        {
          "name": "account",
          "type": "address"
        }
      ],
      "name": "getUserTotalWorth",
      "outputs": [
        {
          "name": "",
          "type": "uint256"
        }
      ],
      "payable": false,
      "stateMutability": "view",
      "type": "function"
    },
    {
      "constant": true,
      "inputs": [],
      "name": "getTokenNetworth",
      "outputs": [
        {
          "name": "",
          "type": "uint256"
        }
      ],
      "payable": false,
      "stateMutability": "view",
      "type": "function"
    },
    {
      "constant": false,
      "inputs": [
        {
          "name": "collateral",
          "type": "address"
        },
        {
          "name": "amount",
          "type": "uint256"
        }
      ],
      "name": "addCollateral",
      "outputs": [],
      "payable": true,
      "stateMutability": "payable",
      "type": "function"
    },
    {
      "constant": false,
      "inputs": [
        {
          "name": "tokenAmount",
          "type": "uint256"
        },
        {
          "name": "collateral",
          "type": "address"
        }
      ],
      "name": "redeemCollateral",
      "outputs": [],
      "payable": false,
      "stateMutability": "nonpayable",
      "type": "function"
    },
    {
      "constant": true,
      "inputs": [
        {
          "name": "account",
          "type": "address"
        }
      ],
      "name": "calCollateralWorth",
      "outputs": [
        {
          "name": "",
          "type": "uint256[]"
        }
      ],
      "payable": false,
      "stateMutability": "view",
      "type": "function"
    },
    {
      "constant": true,
      "inputs": [],
      "name": "getOccupiedCollateral",
      "outputs": [
        {
          "name": "",
          "type": "uint256"
        }
      ],
      "payable": false,
      "stateMutability": "view",
      "type": "function"
    },
    {
      "constant": true,
      "inputs": [],
      "name": "getAvailableCollateral",
      "outputs": [
        {
          "name": "",
          "type": "uint256"
        }
      ],
      "payable": false,
      "stateMutability": "view",
      "type": "function"
    },
    {
      "constant": true,
      "inputs": [],
      "name": "getLeftCollateral",
      "outputs": [
        {
          "name": "",
          "type": "uint256"
        }
      ],
      "payable": false,
      "stateMutability": "view",
      "type": "function"
    },
    {
      "constant": true,
      "inputs": [],
      "name": "getUnlockedCollateral",
      "outputs": [
        {
          "name": "",
          "type": "uint256"
        }
      ],
      "payable": false,
      "stateMutability": "view",
      "type": "function"
    },
    {
      "constant": true,
      "inputs": [
        {
          "name": "strikePrice",
          "type": "uint256"
        },
        {
          "name": "underlyingPrice",
          "type": "uint256"
        },
        {
          "name": "amount",
          "type": "uint256"
        },
        {
          "name": "optType",
          "type": "uint8"
        }
      ],
      "name": "calOptionsOccupied",
      "outputs": [
        {
          "name": "",
          "type": "uint256"
        }
      ],
      "payable": false,
      "stateMutability": "view",
      "type": "function"
    },
    {
      "constant": true,
      "inputs": [],
      "name": "getTotalCollateral",
      "outputs": [
        {
          "name": "",
          "type": "uint256"
        }
      ],
      "payable": false,
      "stateMutability": "view",
      "type": "function"
    },
    {
      "constant": true,
      "inputs": [
        {
          "name": "settlement",
          "type": "address"
        }
      ],
      "name": "getRealBalance",
      "outputs": [
        {
          "name": "",
          "type": "int256"
        }
      ],
      "payable": false,
      "stateMutability": "view",
      "type": "function"
    },
    {
      "constant": true,
      "inputs": [
        {
          "name": "settlement",
          "type": "address"
        }
      ],
      "name": "getNetWorthBalance",
      "outputs": [
        {
          "name": "",
          "type": "uint256"
        }
      ],
      "payable": false,
      "stateMutability": "view",
      "type": "function"
    }
  ],
  "bytecode": "0x60806040819052600080546113886008556c0c9f2c9cd04674edea40000000600955633b9aca00600a55600160b060020a03191661010033810291909117808355600160a060020a0391900416917f8be0079c531659141344cd1fd0a4f28419497f9722a3daafe3b4186f6b6457e0908290a3613f26806100816000396000f3006080604052600436106102165763ffffffff60e060020a600035041663059621d7811461021b57806309a9d76c146102505780630aaf3832146102b55780630c80d691146102dc5780631730b3cb146102fd5780631a5a3fce146103205780632042e5c214610341578063251e2fe31461036257806332c82a5f1461039357806342049a72146103b7578063447dbeac146103d85780634c69c00f146103f9578063624b5ed41461041a5780636b6ecea8146104325780636d75b9ee14610453578063715018a61461046a578063817bf86d1461047f578063852185fc146104a05780638691a8c5146104b55780638da5cb5b146104cc5780638f32d59b146104e15780639870d7fe146104f65780639ab91a3514610517578063a20a804514610532578063a37c4fcf14610556578063a56ea403146105e6578063ac8a584a14610607578063b18b78dd14610628578063b4d5a9c71461063d578063bc2c300214610664578063bc9abed214610679578063bdac4bf6146106a7578063c040725a146106c8578063c219043b146106dd578063c5e5a3ed14610701578063cd40581914610716578063d6eb59101461072b578063d7e5799214610740578063dab5512914610755578063e28a327d1461076a578063e7122ffd1461077f578063e7a1c1c0146107a0578063e7cd4a04146107c4578063e7f43c68146107e5578063f2fde38b146107fa578063f49543871461081b575b600080fd5b34801561022757600080fd5b5061023c600160a060020a0360043516610835565b604080519115158252519081900360200190f35b34801561025c57600080fd5b5061026561086d565b60408051602080825283518183015283519192839290830191858101910280838360005b838110156102a1578181015183820152602001610289565b505050509050019250505060405180910390f35b3480156102c157600080fd5b506102ca6108d0565b60408051918252519081900360200190f35b3480156102e857600080fd5b506102ca600160a060020a03600435166108ef565b34801561030957600080fd5b5061031e600160a060020a0360043516610a3a565b005b34801561032c57600080fd5b5061031e600160a060020a0360043516610ab5565b34801561034d57600080fd5b5061023c600160a060020a0360043516610b30565b34801561036e57600080fd5b50610377610b8f565b60408051600160a060020a039092168252519081900360200190f35b34801561039f57600080fd5b506102ca60043560243560443560ff60643516610b9e565b3480156103c357600080fd5b506102ca600160a060020a0360043516610bd0565b3480156103e457600080fd5b506102ca600160a060020a0360043516610c6d565b34801561040557600080fd5b5061031e600160a060020a0360043516610dbd565b34801561042657600080fd5b5061031e600435610e38565b34801561043e57600080fd5b506102ca600160a060020a0360043516610e89565b61031e600160a060020a0360043516602435610fe7565b34801561047657600080fd5b5061031e6114e1565b34801561048b57600080fd5b5061023c600160a060020a0360043516611589565b3480156104ac57600080fd5b506102ca6115f8565b61031e600160a060020a03600435166024356115fe565b3480156104d857600080fd5b50610377611748565b3480156104ed57600080fd5b5061023c61175c565b34801561050257600080fd5b5061031e600160a060020a0360043516611772565b34801561052357600080fd5b5061031e6004356024356117d2565b34801561053e57600080fd5b5061031e600435600160a060020a0360243516611829565b34801561056257600080fd5b506040805160206004803580820135838102808601850190965280855261031e95369593946024949385019291829185019084908082843750506040805187358901803560208181028481018201909552818452989b9a9989019892975090820195509350839250850190849080828437509497505093359450611c689350505050565b3480156105f257600080fd5b50610265600160a060020a0360043516611f40565b34801561061357600080fd5b5061023c600160a060020a036004351661203c565b34801561063457600080fd5b5061037761209b565b34801561064957600080fd5b506102ca600160a060020a03600435811690602435166120aa565b34801561067057600080fd5b5061031e612150565b34801561068557600080fd5b5061068e6127b4565b6040805192835260208301919091528051918290030190f35b3480156106b357600080fd5b5061023c600160a060020a03600435166127be565b3480156106d457600080fd5b506103776127f2565b3480156106e957600080fd5b5061031e600160a060020a0360043516602435612801565b34801561070d57600080fd5b506102ca612869565b34801561072257600080fd5b506102ca612930565b34801561073757600080fd5b506102ca6129c4565b34801561074c57600080fd5b50610377612adb565b34801561076157600080fd5b506102ca612aea565b34801561077657600080fd5b506102ca612b7b565b34801561078b57600080fd5b5061031e600160a060020a0360043516612b88565b3480156107ac57600080fd5b5061031e600435600160a060020a0360243516612c03565b3480156107d057600080fd5b5061031e600160a060020a0360043516612c91565b3480156107f157600080fd5b50610265612d0e565b34801561080657600080fd5b5061031e600160a060020a0360043516612d6e565b34801561082757600080fd5b5061031e6004351515612dc3565b600061084082611589565b80156108675750600160a060020a0382166000908152600260208190526040909120548116145b92915050565b606060018054806020026020016040519081016040528092919081815260200182805480156108c557602002820191906000526020600020905b8154600160a060020a031681526001909101906020018083116108a7575b505050505090505b90565b60006108ea6108dd6129c4565b6108e5612930565b612e51565b905090565b600654604080517f6b6ecea8000000000000000000000000000000000000000000000000000000008152600160a060020a038481166004830152915160009384938493911691636b6ecea89160248082019260209290919082900301818787803b15801561095c57600080fd5b505af1158015610970573d6000803e3d6000fd5b505050506040513d602081101561098657600080fd5b5051600554604080517f7e1bcb76000000000000000000000000000000000000000000000000000000008152600160a060020a0388811660048301529151939550911691637e1bcb76916024808201926020929091908290030181600087803b1580156109f257600080fd5b505af1158015610a06573d6000803e3d6000fd5b505050506040513d6020811015610a1c57600080fd5b50519050610a30828263ffffffff612e6c16565b92505b5050919050565b610a4261175c565b1515610a86576040805160e560020a62461bcd0281526020600482018190526024820152600080516020613edb833981519152604482015290519081900360640190fd5b6006805473ffffffffffffffffffffffffffffffffffffffff1916600160a060020a0392909216919091179055565b610abd61175c565b1515610b01576040805160e560020a62461bcd0281526020600482018190526024820152600080516020613edb833981519152604482015290519081900360640190fd5b6005805473ffffffffffffffffffffffffffffffffffffffff1916600160a060020a0392909216919091179055565b6000610b3a61175c565b1515610b7e576040805160e560020a62461bcd0281526020600482018190526024820152600080516020613edb833981519152604482015290519081900360640190fd5b61086760018363ffffffff612eae16565b600654600160a060020a031690565b60008060ff8316158587111415610bb85750848302610bbd565b508383025b610bc681612f9d565b9695505050505050565b600654604080517f42049a72000000000000000000000000000000000000000000000000000000008152600160a060020a038481166004830152915160009392909216916342049a729160248082019260209290919082900301818787803b158015610c3b57600080fd5b505af1158015610c4f573d6000803e3d6000fd5b505050506040513d6020811015610c6557600080fd5b505192915050565b600354604080517f07e77aa0000000000000000000000000000000000000000000000000000000008152600160a060020a03848116600483015291516000936108679316916307e77aa091602480830192602092919082900301818887803b158015610cd857600080fd5b505af1158015610cec573d6000803e3d6000fd5b505050506040513d6020811015610d0257600080fd5b5051600354604080517f70a08231000000000000000000000000000000000000000000000000000000008152600160a060020a0387811660048301529151610db19392909216916370a08231916024808201926020929091908290030181600087803b158015610d7157600080fd5b505af1158015610d85573d6000803e3d6000fd5b505050506040513d6020811015610d9b57600080fd5b5051610da5612869565b9063ffffffff612fa916565b9063ffffffff61305316565b610dc561175c565b1515610e09576040805160e560020a62461bcd0281526020600482018190526024820152600080516020613edb833981519152604482015290519081900360640190fd5b6004805473ffffffffffffffffffffffffffffffffffffffff1916600160a060020a0392909216919091179055565b610e4061175c565b1515610e84576040805160e560020a62461bcd0281526020600482018190526024820152600080516020613edb833981519152604482015290519081900360640190fd5b600855565b600654604080517f6b6ecea8000000000000000000000000000000000000000000000000000000008152600160a060020a038481166004830152915160009384938493911691636b6ecea89160248082019260209290919082900301818787803b158015610ef657600080fd5b505af1158015610f0a573d6000803e3d6000fd5b505050506040513d6020811015610f2057600080fd5b5051600554604080517f7e1bcb76000000000000000000000000000000000000000000000000000000008152600160a060020a0388811660048301529151939550911691637e1bcb76916024808201926020929091908290030181600087803b158015610f8c57600080fd5b505af1158015610fa0573d6000803e3d6000fd5b505050506040513d6020811015610fb657600080fd5b50519050610fca828263ffffffff612e6c16565b91506000821315610fdd57819250610a33565b5060009392505050565b6000805481908190819060ff1615610ffe57600080fd5b6000805460ff1916600117908190557501000000000000000000000000000000000000000000900460ff161561107e576040805160e560020a62461bcd02815260206004820152601760248201527f5468697320636f6e74726163742069732068616c746564000000000000000000604482015290519081900360640190fd5b61108886866130b0565b600654604080517fc3c579cc000000000000000000000000000000000000000000000000000000008152600160a060020a038a811660048301526024820185905260036044830152915193985091169163c3c579cc916064808201926020929091908290030181600087803b15801561110057600080fd5b505af1158015611114573d6000803e3d6000fd5b505050506040513d602081101561112a57600080fd5b505160048054604080517f41976e09000000000000000000000000000000000000000000000000000000008152600160a060020a038b811694820194909452905198849003989397509116916341976e09916024808201926020929091908290030181600087803b15801561119e57600080fd5b505af11580156111b2573d6000803e3d6000fd5b505050506040513d60208110156111c857600080fd5b5051925084830291506111d9612869565b828115156111e357fe5b600654604080517f692a76a7000000000000000000000000000000000000000000000000000000008152336004820152602481018790529051939092049350600160a060020a03169163692a76a79160448082019260009290919082900301818387803b15801561125357600080fd5b505af1158015611267573d6000803e3d6000fd5b5050600654604080517f2b2d50c3000000000000000000000000000000000000000000000000000000008152600160a060020a038b81166004830152602482018b90529151919092169350632b2d50c39250604480830192600092919082900301818387803b1580156112d957600080fd5b505af11580156112ed573d6000803e3d6000fd5b5050600654604080517fd56dbe88000000000000000000000000000000000000000000000000000000008152336004820152600160a060020a038b81166024830152604482018b9052915191909216935063d56dbe889250606480830192600092919082900301818387803b15801561136557600080fd5b505af1158015611379573d6000803e3d6000fd5b5050600654604080517ffee80a49000000000000000000000000000000000000000000000000000000008152600160a060020a038b81166004830152602482018b9052915191909216935063fee80a499250604480830192600092919082900301818387803b1580156113eb57600080fd5b505af11580156113ff573d6000803e3d6000fd5b505060408051888152602081018590528151600160a060020a038b1694503393507f33a089d94f9a0b7d0fe21e69b40d7dbe1965be652c7382cc778d46963db8c49b929181900390910190a3600354604080517f40c10f19000000000000000000000000000000000000000000000000000000008152336004820152602481018490529051600160a060020a03909216916340c10f199160448082019260009290919082900301818387803b1580156114b757600080fd5b505af11580156114cb573d6000803e3d6000fd5b50506000805460ff191690555050505050505050565b6114e961175c565b151561152d576040805160e560020a62461bcd0281526020600482018190526024820152600080516020613edb833981519152604482015290519081900360640190fd5b60008054604051610100909104600160a060020a0316907f8be0079c531659141344cd1fd0a4f28419497f9722a3daafe3b4186f6b6457e0908390a36000805474ffffffffffffffffffffffffffffffffffffffff0019169055565b60006108678260018054806020026020016040519081016040528092919081815260200182805480156115e557602002820191906000526020600020905b8154600160a060020a031681526001909101906020018083116115c7575b50505050506132c290919063ffffffff16565b60085490565b600754600190811080156116355750600780543391908390811061161e57fe5b600091825260209091200154600160a060020a0316145b15156116b1576040805160e560020a62461bcd02815260206004820152603060248201527f4d616e6167657261626c653a2063616c6c6572206973206e6f7420746865206560448201527f6c696769626c65204f70657261746f7200000000000000000000000000000000606482015290519081900360840190fd5b6116bb83836130b0565b600654604080517ffee80a49000000000000000000000000000000000000000000000000000000008152600160a060020a03878116600483015260248201859052915193955091169163fee80a499160448082019260009290919082900301818387803b15801561172b57600080fd5b505af115801561173f573d6000803e3d6000fd5b50505050505050565b6000546101009004600160a060020a031690565b6000546101009004600160a060020a0316331490565b61177a61175c565b15156117be576040805160e560020a62461bcd0281526020600482018190526024820152600080516020613edb833981519152604482015290519081900360640190fd5b6117cf60078263ffffffff61331316565b50565b6117da61175c565b151561181e576040805160e560020a62461bcd0281526020600482018190526024820152600080516020613edb833981519152604482015290519081900360640190fd5b600a91909155600955565b6000805481908190819081908190819060ff161561184657600080fd5b6000805460ff1916600117908190557501000000000000000000000000000000000000000000900460ff16156118c6576040805160e560020a62461bcd02815260206004820152601760248201527f5468697320636f6e74726163742069732068616c746564000000000000000000604482015290519081900360640190fd5b6118cf896133b9565b6118d888610835565b151561192e576040805160e560020a62461bcd02815260206004820152601f60248201527f736574746c656d656e7420697320756e737570706f7274656420746f6b656e00604482015290519081900360640190fd5b600354604080517f593557360000000000000000000000000000000000000000000000000000000081523360048201529051600160a060020a03909216916359355736916024808201926020929091908290030181600087803b15801561199457600080fd5b505af11580156119a8573d6000803e3d6000fd5b505050506040513d60208110156119be57600080fd5b5051600354604080517f70a0823100000000000000000000000000000000000000000000000000000000815233600482015290519299508b928a92600160a060020a0316916370a082319160248083019260209291908290030181600087803b158015611a2a57600080fd5b505af1158015611a3e573d6000803e3d6000fd5b505050506040513d6020811015611a5457600080fd5b5051011015611aad576040805160e560020a62461bcd02815260206004820152601e60248201527f53436f696e2062616c616e636520697320696e73756666696369656e74210000604482015290519081900360640190fd5b611ab633610c6d565b9550611ac06108d0565b600354604080517f35f0c4fa000000000000000000000000000000000000000000000000000000008152336004820152602481018d9052604481018490528151939850600160a060020a03909216926335f0c4fa9260648082019392918290030181600087803b158015611b3357600080fd5b505af1158015611b47573d6000803e3d6000fd5b505050506040513d6040811015611b5d57600080fd5b50805160209091015199039860009450925083891115611bba5782850394506000871115611b9a57868911611b93576000611b97565b8689035b98505b611ba48986613449565b915091506000821115611bba5781935080830192505b611bc5888488613533565b6000841115611c5357600354604080517f9dc29fac000000000000000000000000000000000000000000000000000000008152336004820152602481018790529051600160a060020a0390921691639dc29fac9160448082019260009290919082900301818387803b158015611c3a57600080fd5b505af1158015611c4e573d6000803e3d6000fd5b505050505b50506000805460ff1916905550505050505050565b60075460009081108015611c9f57506007805433919083908110611c8857fe5b600091825260209091200154600160a060020a0316145b1515611d1b576040805160e560020a62461bcd02815260206004820152603060248201527f4d616e6167657261626c653a2063616c6c6572206973206e6f7420746865206560448201527f6c696769626c65204f70657261746f7200000000000000000000000000000000606482015290519081900360840190fd5b6005546040517f2415e01000000000000000000000000000000000000000000000000000000000815260048101848152606060248301908152865160648401528651600160a060020a0390941693632415e0109387938993600193919290916044820191608401906020808801910280838360005b83811015611da8578181015183820152602001611d90565b505050509050018381038252848181548152602001915080548015611df657602002820191906000526020600020905b8154600160a060020a03168152600190910190602001808311611dd8575b505095505050505050600060405180830381600087803b158015611e1957600080fd5b505af1158015611e2d573d6000803e3d6000fd5b5050600654604080517f1f88286a000000000000000000000000000000000000000000000000000000008152600481019182526001805460448301819052600160a060020a039094169550631f88286a945092899291829160248201916064019086908015611ec557602002820191906000526020600020905b8154600160a060020a03168152600190910190602001808311611ea7575b50508381038252845181528451602091820191808701910280838360005b83811015611efb578181015183820152602001611ee3565b50505050905001945050505050600060405180830381600087803b158015611f2257600080fd5b505af1158015611f36573d6000803e3d6000fd5b5050505050505050565b60606000606080600080611f5387610c6d565b9450611fba87866001805480602002602001604051908101604052809291908181526020018280548015611fb057602002820191906000526020600020905b8154600160a060020a03168152600190910190602001808311611f92575b5050505050613754565b5060015491955093509150600090505b81811015612031576120118382815181101515611fe357fe5b906020019060200201518583815181101515611ffb57fe5b602090810290910101519063ffffffff61305316565b848281518110151561201f57fe5b60209081029091010152600101611fca565b509195945050505050565b600061204661175c565b151561208a576040805160e560020a62461bcd0281526020600482018190526024820152600080516020613edb833981519152604482015290519081900360640190fd5b61086760078363ffffffff612eae16565b600454600160a060020a031690565b600654604080517f6ba170b5000000000000000000000000000000000000000000000000000000008152600160a060020a038581166004830152848116602483015291516000939290921691636ba170b59160448082019260209290919082900301818787803b15801561211d57600080fd5b505af1158015612131573d6000803e3d6000fd5b505050506040513d602081101561214757600080fd5b50909392505050565b606060006060600060608060006060600080806007805490501180156121995750600780543391908390811061218257fe5b600091825260209091200154600160a060020a0316145b1515612215576040805160e560020a62461bcd02815260206004820152603060248201527f4d616e6167657261626c653a2063616c6c6572206973206e6f7420746865206560448201527f6c696769626c65204f70657261746f7200000000000000000000000000000000606482015290519081900360840190fd5b600180548060200260200160405190810160405280929190818152602001828054801561226b57602002820191906000526020600020905b8154600160a060020a0316815260019091019060200180831161224d575b50505050509950600560009054906101000a9004600160a060020a0316600160a060020a0316636a43c05e8b6040518263ffffffff1660e060020a0281526004018080602001828103825283818151815260200191508051906020019060200280838360005b838110156122e95781810151838201526020016122d1565b5050505090500192505050600060405180830381600087803b15801561230e57600080fd5b505af1158015612322573d6000803e3d6000fd5b505050506040513d6000823e601f3d908101601f19168201604090815281101561234b57600080fd5b81516020830180519193928301929164010000000081111561236c57600080fd5b8201602081018481111561237f57600080fd5b815185602082028301116401000000008211171561239c57600080fd5b5050600554604080517fbec3107f0000000000000000000000000000000000000000000000000000000081529051969f50919d50600160a060020a03169463bec3107f9450600480830194506020935090918290030181600087803b15801561240457600080fd5b505af1158015612418573d6000803e3d6000fd5b505050506040513d602081101561242e57600080fd5b81019080805190602001909291905050509650600560009054906101000a9004600160a060020a0316600160a060020a03166332ab5c20888b8a8e6040518563ffffffff1660e060020a0281526004018085815260200184815260200183815260200180602001828103825283818151815260200191508051906020019060200280838360005b838110156124cd5781810151838201526020016124b5565b5050505090500195505050505050600060405180830381600087803b1580156124f557600080fd5b505af1158015612509573d6000803e3d6000fd5b505050506040513d6000823e601f3d908101601f19168201604052606081101561253257600080fd5b81019080805164010000000081111561254a57600080fd5b8201602081018481111561255d57600080fd5b815185602082028301116401000000008211171561257a57600080fd5b5050929190602001805164010000000081111561259657600080fd5b820160208101848111156125a957600080fd5b81518560208202830111640100000000821117156125c657600080fd5b505092919060200180519060200190929190505050955095509550600560009054906101000a9004600160a060020a0316600160a060020a03166343674c3a88868a8e6040518563ffffffff1660e060020a0281526004018085815260200184815260200183815260200180602001828103825283818151815260200191508051906020019060200280838360005b8381101561266d578181015183820152602001612655565b5050505090500195505050505050600060405180830381600087803b15801561269557600080fd5b505af11580156126a9573d6000803e3d6000fd5b505050506040513d6000823e601f3d908101601f1916820160405260208110156126d257600080fd5b8101908080516401000000008111156126ea57600080fd5b820160208101848111156126fd57600080fd5b815185602082028301116401000000008211171561271a57600080fd5b5090965060009550505050505b825182101561279d57828281518110151561273e57fe5b90602001906020020151888381518110151561275657fe5b90602001906020020151868481518110151561276e57fe5b906020019060200201510301838381518110151561278857fe5b60209081029091010152600190910190612727565b6127a8868486611c68565b50505050505050505050565b600a546009549091565b60006127c982611589565b8015610867575050600160a060020a031660009081526002602052604090205460019081161490565b600554600160a060020a031690565b61280961175c565b151561284d576040805160e560020a62461bcd0281526020600482018190526024820152600080516020613edb833981519152604482015290519081900360640190fd5b600160a060020a03909116600090815260026020526040902055565b6000806000600360009054906101000a9004600160a060020a0316600160a060020a03166318160ddd6040518163ffffffff1660e060020a028152600401602060405180830381600087803b1580156128c157600080fd5b505af11580156128d5573d6000803e3d6000fd5b505050506040513d60208110156128eb57600080fd5b50519150811515612902576305f5e100925061292b565b8161290b612aea565b81151561291457fe5b04905060648111612926576064612928565b805b92505b505090565b600080600560009054906101000a9004600160a060020a0316600160a060020a03166373a3d4246040518163ffffffff1660e060020a028152600401602060405180830381600087803b15801561298657600080fd5b505af115801561299a573d6000803e3d6000fd5b505050506040513d60208110156129b057600080fd5b505190506129bd81612f9d565b91505b5090565b6001546000908190818080805b84841015612abe5760018054859081106129e757fe5b600091825260208083209091015460048054604080517f41976e09000000000000000000000000000000000000000000000000000000008152600160a060020a0394851693810184905290519298509216936341976e0993602480850194919392918390030190829087803b158015612a5f57600080fd5b505af1158015612a73573d6000803e3d6000fd5b505050506040513d6020811015612a8957600080fd5b50519150612a96836108ef565b90508015612ab357612ab08683830263ffffffff612e6c16565b95505b6001909301926129d1565b6000861215612ace576000612ad0565b855b965050505050505090565b600354600160a060020a031690565b60006108ea612af76129c4565b600360009054906101000a9004600160a060020a0316600160a060020a031663dad3eb746040518163ffffffff1660e060020a028152600401602060405180830381600087803b158015612b4a57600080fd5b505af1158015612b5e573d6000803e3d6000fd5b505050506040513d6020811015612b7457600080fd5b5051612e51565b60006108ea6108dd612aea565b612b9061175c565b1515612bd4576040805160e560020a62461bcd0281526020600482018190526024820152600080516020613edb833981519152604482015290519081900360640190fd5b6003805473ffffffffffffffffffffffffffffffffffffffff1916600160a060020a0392909216919091179055565b612c0b61175c565b1515612c4f576040805160e560020a62461bcd0281526020600482018190526024820152600080516020613edb833981519152604482015290519081900360640190fd5b80600783815481101515612c5f57fe5b9060005260206000200160006101000a815481600160a060020a030219169083600160a060020a031602179055505050565b612c9961175c565b1515612cdd576040805160e560020a62461bcd0281526020600482018190526024820152600080516020613edb833981519152604482015290519081900360640190fd5b612cee60018263ffffffff61331316565b600160a060020a0316600090815260026020526040902063ffffffff9055565b606060078054806020026020016040519081016040528092919081815260200182805480156108c557602002820191906000526020600020908154600160a060020a031681526001909101906020018083116108a7575050505050905090565b612d7661175c565b1515612dba576040805160e560020a62461bcd0281526020600482018190526024820152600080516020613edb833981519152604482015290519081900360640190fd5b6117cf81613b30565b612dcb61175c565b1515612e0f576040805160e560020a62461bcd0281526020600482018190526024820152600080516020613edb833981519152604482015290519081900360640190fd5b6000805491151575010000000000000000000000000000000000000000000275ff00000000000000000000000000000000000000000019909216919091179055565b6000818311612e61576000612e65565b8183035b9392505050565b6000612e6583836040805190810160405280601d81526020017f53616665496e743235363a206164646974696f6e206f766572666c6f77000000815250613c29565b8154600090815b81811015612efd5783600160a060020a03168582815481101515612ed557fe5b600091825260209091200154600160a060020a03161415612ef557612efd565b600101612eb5565b81811015612f905760001982018114612f76578460018303815481101515612f2157fe5b6000918252602090912001548554600160a060020a0390911690869083908110612f4757fe5b9060005260206000200160006101000a815481600160a060020a030219169083600160a060020a031602179055505b8454612f86866000198301613e97565b5060019250612f95565b600092505b505092915050565b6008546103e891020490565b600080831515612fbc576000915061304c565b50828202828482811515612fcc57fe5b0414613048576040805160e560020a62461bcd02815260206004820152602160248201527f536166654d6174683a206d756c7469706c69636174696f6e206f766572666c6f60448201527f7700000000000000000000000000000000000000000000000000000000000000606482015290519081900360840190fd5b8091505b5092915050565b600082820183811015613048576040805160e560020a62461bcd02815260206004820152601b60248201527f536166654d6174683a206164646974696f6e206f766572666c6f770000000000604482015290519081900360640190fd5b60008060006130be856127be565b1515613114576040805160e560020a62461bcd02815260206004820152601f60248201527f736574746c656d656e7420697320756e737570706f7274656420746f6b656e00604482015290519081900360640190fd5b60009150600160a060020a038516151561316b57600654604051349350600160a060020a039091169083156108fc029084906000818181858888f19350505050158015613165573d6000803e3d6000fd5b506132b1565b60008411156132b15750604080517f23b872dd0000000000000000000000000000000000000000000000000000000081523360048201523060248201526044810185905290518591600160a060020a038316916323b872dd916064808201926020929091908290030181600087803b1580156131e657600080fd5b505af11580156131fa573d6000803e3d6000fd5b505050506040513d602081101561321057600080fd5b5050600654604080517fa9059cbb000000000000000000000000000000000000000000000000000000008152600160a060020a0392831660048201526024810187905290518694509183169163a9059cbb916044808201926020929091908290030181600087803b15801561328457600080fd5b505af1158015613298573d6000803e3d6000fd5b505050506040513d60208110156132ae57600080fd5b50505b6132ba826133b9565b509392505050565b8151600090815b81811015612f905783600160a060020a031685828151811015156132e957fe5b90602001906020020151600160a060020a0316141561330b5760019250612f95565b6001016132c9565b6133768280548060200260200160405190810160405280929190818152602001828054801561336b57602002820191906000526020600020905b8154600160a060020a0316815260019091019060200180831161334d575b5050505050826132c2565b15156133b557815460018101835560008381526020902001805473ffffffffffffffffffffffffffffffffffffffff1916600160a060020a0383161790555b5050565b80600954101580156133cd575080600a5411155b15156117cf576040805160e560020a62461bcd02815260206004820152602960248201527f696e70757420616d6f756e74206973206f7574206f6620696e70757420616d6f60448201527f756e742072616e67650000000000000000000000000000000000000000000000606482015290519081900360840190fd5b600080600080600080600061345c612869565b945084890293508784111561352057848881151561347657fe5b60035491900493508584029250838a039150600160a060020a0316634b91a07b338388818115156134a357fe5b046040518463ffffffff1660e060020a0281526004018084600160a060020a0316600160a060020a031681526020018381526020018281526020019350505050600060405180830381600087803b1580156134fd57600080fd5b505af1158015613511573d6000803e3d6000fd5b50505050828296509650613527565b8884965096505b50505050509250929050565b60608080808515156135445761173f565b60408051600160a060020a038916815260208101889052815133927fc994feb9b99296d80965b47aec6be0d25704ddf95b9b9bc1ed8bc753960d5809928290030190a261359087613d40565b935061359d338686613754565b925092509250600660009054906101000a9004600160a060020a0316600160a060020a031663a2fa92c73388878787876040518763ffffffff1660e060020a0281526004018087600160a060020a0316600160a060020a0316815260200186815260200180602001806020018060200180602001858103855289818151815260200191508051906020019060200280838360005b83811015613649578181015183820152602001613631565b50505050905001858103845288818151815260200191508051906020019060200280838360005b83811015613688578181015183820152602001613670565b50505050905001858103835287818151815260200191508051906020019060200280838360005b838110156136c75781810151838201526020016136af565b50505050905001858103825286818151815260200191508051906020019060200280838360005b838110156137065781810151838201526020016136ee565b505050509050019a5050505050505050505050600060405180830381600087803b15801561373357600080fd5b505af1158015613747573d6000803e3d6000fd5b5050505050505050505050565b60608060608060606000606080885160405190808252806020026020018201604052801561378c578160200160208202803883390190505b50945088516040519080825280602002602001820160405280156137ba578160200160208202803883390190505b509350600092505b88518310156138f2576137ed89848151811015156137dc57fe5b906020019060200201516002613e21565b1561382b57613812898481518110151561380357fe5b90602001906020020151610e89565b848481518110151561382057fe5b602090810290910101525b6004548951600160a060020a03909116906341976e09908b908690811061384e57fe5b906020019060200201516040518263ffffffff1660e060020a0281526004018082600160a060020a0316600160a060020a03168152602001915050602060405180830381600087803b1580156138a357600080fd5b505af11580156138b7573d6000803e3d6000fd5b505050506040513d60208110156138cd57600080fd5b505185518690859081106138dd57fe5b602090810290910101526001909201916137c2565b600660009054906101000a9004600160a060020a0316600160a060020a0316637a6a02778c8c8c888a6040518663ffffffff1660e060020a0281526004018086600160a060020a0316600160a060020a03168152602001858152602001806020018060200180602001848103845287818151815260200191508051906020019060200280838360005b8381101561399357818101518382015260200161397b565b50505050905001848103835286818151815260200191508051906020019060200280838360005b838110156139d25781810151838201526020016139ba565b50505050905001848103825285818151815260200191508051906020019060200280838360005b83811015613a115781810151838201526020016139f9565b5050505090500198505050505050505050600060405180830381600087803b158015613a3c57600080fd5b505af1158015613a50573d6000803e3d6000fd5b505050506040513d6000823e601f3d908101601f191682016040908152811015613a7957600080fd5b810190808051640100000000811115613a9157600080fd5b82016020810184811115613aa457600080fd5b8151856020820283011164010000000082111715613ac157600080fd5b50509291906020018051640100000000811115613add57600080fd5b82016020810184811115613af057600080fd5b8151856020820283011164010000000082111715613b0d57600080fd5b505092919050505091509150818186975097509750505050505093509350939050565b600160a060020a0381161515613bb6576040805160e560020a62461bcd02815260206004820152602660248201527f4f776e61626c653a206e6577206f776e657220697320746865207a65726f206160448201527f6464726573730000000000000000000000000000000000000000000000000000606482015290519081900360840190fd5b60008054604051600160a060020a038085169361010090930416917f8be0079c531659141344cd1fd0a4f28419497f9722a3daafe3b4186f6b6457e091a360008054600160a060020a039092166101000274ffffffffffffffffffffffffffffffffffffffff0019909216919091179055565b600080808512158185121514613c435783850191506132ba565b60008512613ce857508383018285821215613cdf5760405160e560020a62461bcd0281526004018080602001828103825283818151815260200191508051906020019080838360005b83811015613ca4578181015183820152602001613c8c565b50505050905090810190601f168015613cd15780820380516001836020036101000a031916815260200191505b509250505060405180910390fd5b508091506132ba565b508383018285821315613cdf5760405160e560020a62461bcd02815260040180806020018281038252838181518152602001915080519060200190808383600083811015613ca4578181015183820152602001613c8c565b60608060006001805480602002602001604051908101604052809291908181526020018280548015613d9b57602002820191906000526020600020905b8154600160a060020a03168152600190910190602001808311613d7d575b50505050509150613dac8285613e42565b9050801561304c57816000815181101515613dc357fe5b906020019060200201518282815181101515613ddb57fe5b600160a060020a039092166020928302909101909101528151849083906000908110613e0357fe5b600160a060020a039092166020928302909101909101525092915050565b600160a060020a039190911660009081526002602052604090205481161490565b8151600090815b81811015613e8f5783600160a060020a03168582815181101515613e6957fe5b90602001906020020151600160a060020a03161415613e8757613e8f565b600101613e49565b949350505050565b815481835581811115613ebb57600083815260209020613ebb918101908301613ec0565b505050565b6108cd91905b808211156129c05760008155600101613ec656004f776e61626c653a2063616c6c6572206973206e6f7420746865206f776e6572a165627a7a72305820ec142b69113e9125163366e8141eed6e764c527766d9196b40a6ffac3d406e130029",
  "source": "pragma solidity ^0.4.26;\r\nimport \"./modules/SafeMath.sol\";\r\nimport \"./modules/SafeInt256.sol\";\r\nimport \"./modules/AddressWhiteList.sol\";\r\nimport \"./modules/ReentrancyGuard.sol\";\r\nimport \"./interfaces/IOptionsPool.sol\";\r\nimport \"./interfaces/IFNXOracle.sol\";\r\nimport \"./interfaces/ICollateralPool.sol\";\r\nimport \"./interfaces/IFPTCoin.sol\";\r\nimport \"./modules/Operator.sol\";\r\nimport \"./interfaces/IERC20.sol\";\r\ncontract CollateralCal is ReentrancyGuard,AddressWhiteList,ImportIFPTCoin,ImportOracle,ImportOptionsPool,ImportCollateralPool,Operator {\r\n    using SafeMath for uint256;\r\n    using SafeInt256 for int256;\r\n    uint256 private collateralRate = 5000;\r\n\r\n    event AddCollateral(address indexed from,address indexed collateral,uint256 amount,uint256 tokenAmount);\r\n    event RedeemCollateral(address indexed from,address collateral,uint256 allRedeem);\r\n    event DebugEvent(uint256 value1,uint256 value2,uint256 value3);\r\n    uint256 internal maxAmount = 1e30;\r\n    uint256 internal minAmount = 1e9;\r\n    function getInputAmountRange() public view returns(uint256,uint256) {\r\n        return (minAmount,maxAmount);\r\n    }\r\n    function setInputAmountRange(uint256 _minAmount,uint256 _maxAmount) public onlyOwner{\r\n        minAmount = _minAmount;\r\n        maxAmount = _maxAmount;\r\n    }\r\n    function checkInputAmount(uint256 Amount)internal view{\r\n        require(maxAmount>=Amount && minAmount<=Amount,\"input amount is out of input amount range\");\r\n    }\r\n    function addNetBalance(address settlement,uint256 amount) public payable onlyOperatorIndex(1) {\r\n        amount = getPayableAmount(settlement,amount);\r\n        _collateralPool.addNetWorthBalance(settlement,int256(amount));\r\n//        netWorthBalances[settlement] = netWorthBalances[settlement].add(amount);\r\n    }\r\n\r\n    function setCollateralRate(uint256 colRate) public onlyOwner {\r\n        collateralRate = colRate;\r\n\r\n    }\r\n    function getCollateralRate()public view returns (uint256) {\r\n        return collateralRate;\r\n    }\r\n    function getUserPayingUsd(address user)public view returns (uint256){\r\n        return _collateralPool.getUserPayingUsd(user);\r\n        //userCollateralPaying[user];\r\n    }\r\n    function userInputCollateral(address user,address collateral)public view returns (uint256){\r\n        _collateralPool.getUserInputCollateral(user,collateral);\r\n        //return userInputCollateral[user][collateral];\r\n    }\r\n    function calSharedPayment() public onlyOperatorIndex(0) {\r\n        address[] memory tmpWhiteList = whiteList;\r\n        (uint256 firstOption,int256[] memory latestShared) = _optionsPool.getNetWrothCalInfo(tmpWhiteList);\r\n        uint256 lastOption = _optionsPool.getOptionInfoLength();\r\n        (int256[] memory newNetworth,uint256[] memory sharedBalance,uint256 newFirst) =\r\n                     _optionsPool.calRangeSharedPayment(lastOption,firstOption,lastOption,tmpWhiteList);\r\n        int256[] memory fallBalance = _optionsPool.calculatePhaseOptionsFall(lastOption,newFirst,lastOption,tmpWhiteList);\r\n        for (uint256 i= 0;i<fallBalance.length;i++){\r\n            fallBalance[i] = int256(sharedBalance[i])-latestShared[i]+fallBalance[i];\r\n        }\r\n        setSharedPayment(newNetworth,fallBalance,newFirst);\r\n    }\r\n    function setSharedPayment(int256[] newNetworth,int256[] sharedBalances,uint256 firstOption) public onlyOperatorIndex(0){\r\n        _optionsPool.setSharedState(firstOption,sharedBalances,whiteList);\r\n        _collateralPool.addNetWorthBalances(whiteList,newNetworth);\r\n    }\r\n    function getUserTotalWorth(address account)public view returns (uint256){\r\n        return getTokenNetworth().mul(_FPTCoin.balanceOf(account)).add(_FPTCoin.lockedWorthOf(account));\r\n    }\r\n    function getTokenNetworth() public view returns (uint256){\r\n        uint256 _totalSupply = _FPTCoin.totalSupply();\r\n        if (_totalSupply == 0){\r\n            return 1e8;\r\n        }\r\n        uint256 netWorth = getUnlockedCollateral()/_totalSupply;\r\n        return netWorth>100 ? netWorth : 100;\r\n    }\r\n    function addCollateral(address collateral,uint256 amount) nonReentrant notHalted public payable {\r\n        amount = getPayableAmount(collateral,amount);\r\n        uint256 fee = _collateralPool.addTransactionFee(collateral,amount,3);\r\n        amount = amount-fee;\r\n        uint256 price = _oracle.getPrice(collateral);\r\n        uint256 userPaying = price*amount;\r\n        uint256 mintAmount = userPaying/getTokenNetworth();\r\n        _collateralPool.addUserPayingUsd(msg.sender,userPaying);\r\n        _collateralPool.addCollateralBalance(collateral,amount);\r\n        _collateralPool.addUserInputCollateral(msg.sender,collateral,amount);\r\n         _collateralPool.addNetWorthBalance(collateral,int256(amount));\r\n        emit AddCollateral(msg.sender,collateral,amount,mintAmount);\r\n        _FPTCoin.mint(msg.sender,mintAmount);\r\n    }\r\n    //calculate token\r\n    function redeemCollateral(uint256 tokenAmount,address collateral) nonReentrant notHalted public {\r\n        checkInputAmount(tokenAmount);\r\n        require(checkAddressRedeemOut(collateral) , \"settlement is unsupported token\");\r\n        uint256 lockedAmount = _FPTCoin.lockedBalanceOf(msg.sender);\r\n        require(_FPTCoin.balanceOf(msg.sender)+lockedAmount>=tokenAmount,\"SCoin balance is insufficient!\");\r\n        uint256 userTotalWorth = getUserTotalWorth(msg.sender);\r\n        uint256 leftColateral = getLeftCollateral();\r\n        (uint256 burnAmount,uint256 redeemWorth) = _FPTCoin.redeemLockedCollateral(msg.sender,tokenAmount,leftColateral);\r\n        tokenAmount -= burnAmount;\r\n        burnAmount = 0;\r\n        if (tokenAmount > 0){\r\n            leftColateral -= redeemWorth;\r\n            \r\n            if (lockedAmount > 0){\r\n                tokenAmount = tokenAmount > lockedAmount ? tokenAmount - lockedAmount : 0;\r\n            }\r\n            (uint256 newRedeem,uint256 newWorth) = _redeemCollateral(tokenAmount,leftColateral);\r\n            if(newRedeem>0){\r\n                burnAmount = newRedeem;\r\n                redeemWorth += newWorth;\r\n            }\r\n        }\r\n        _redeemCollateralWorth(collateral,redeemWorth,userTotalWorth);\r\n        if (burnAmount>0){\r\n            _FPTCoin.burn(msg.sender, burnAmount);\r\n        }\r\n    }\r\n    function _redeemCollateral(uint256 leftAmount,uint256 leftColateral)internal returns (uint256,uint256){\r\n        uint256 tokenNetWorth = getTokenNetworth();\r\n        uint256 leftWorth = leftAmount*tokenNetWorth;        \r\n        if (leftWorth > leftColateral){\r\n            uint256 newRedeem = leftColateral/tokenNetWorth;\r\n            uint256 newWorth = newRedeem*tokenNetWorth;\r\n            uint256 locked = leftAmount - newRedeem;\r\n            _FPTCoin.addlockBalance(msg.sender,locked,locked/tokenNetWorth);\r\n            return (newRedeem,newWorth);\r\n        }\r\n        return (leftAmount,leftWorth);\r\n    }\r\n    function getTempWhiteList(address collateral) internal view returns (address[] memory) {\r\n        address[] memory tmpWhiteList = whiteList;\r\n        uint256 index = whiteListAddress._getEligibleIndexAddress(tmpWhiteList,collateral);\r\n        if (index != 0){\r\n            tmpWhiteList[index] = tmpWhiteList[0];\r\n            tmpWhiteList[0] = collateral;\r\n        }\r\n        return tmpWhiteList;\r\n    }\r\n    function _redeemCollateralWorth(address collateral,uint256 redeemWorth,uint256 userTotalWorth) internal {\r\n        if (redeemWorth == 0){\r\n            return;\r\n        }\r\n        emit RedeemCollateral(msg.sender,collateral,redeemWorth);\r\n        address[] memory tmpWhiteList = getTempWhiteList(collateral);\r\n        (uint256[] memory colBalances,uint256[] memory PremiumBalances,uint256[] memory prices) = \r\n                _getCollateralAndPremiumBalances(msg.sender,userTotalWorth,tmpWhiteList);\r\n        _collateralPool.transferPaybackBalances(msg.sender,redeemWorth,tmpWhiteList,colBalances,\r\n                PremiumBalances,prices);\r\n    }\r\n\r\n    function calCollateralWorth(address account)public view returns(uint256[]){\r\n        uint256 worth = getUserTotalWorth(account);\r\n        (uint256[] memory colBalances,uint256[] memory PremiumBalances,) = \r\n        _getCollateralAndPremiumBalances(account,worth,whiteList);\r\n        uint256 whiteLen = whiteList.length;\r\n        for (uint256 i=0; i<whiteLen;i++){\r\n            colBalances[i] = colBalances[i].add(PremiumBalances[i]);\r\n        }\r\n        return colBalances;\r\n    }\r\n    function _getCollateralAndPremiumBalances(address account,uint256 userTotalWorth,address[] memory tmpWhiteList) internal view returns(uint256[],uint256[],uint256[]){\r\n        uint256[] memory prices = new uint256[](tmpWhiteList.length);\r\n        uint256[] memory netWorthBalances = new uint256[](tmpWhiteList.length);\r\n        for (uint256 i=0; i<tmpWhiteList.length;i++){\r\n            if (checkAddressPermission(tmpWhiteList[i],0x0002)){\r\n                netWorthBalances[i] = getNetWorthBalance(tmpWhiteList[i]);\r\n            }\r\n            prices[i] = _oracle.getPrice(tmpWhiteList[i]);\r\n        }\r\n        (uint256[] memory colBalances,uint256[] memory PremiumBalances) = _collateralPool.getCollateralAndPremiumBalances(account,userTotalWorth,tmpWhiteList,\r\n                netWorthBalances,prices);\r\n        return (colBalances,PremiumBalances,prices);\r\n    } \r\n\r\n    function getOccupiedCollateral() public view returns(uint256){\r\n        uint256 totalOccupied = _optionsPool.getTotalOccupiedCollateral();\r\n        return calculateCollateral(totalOccupied);\r\n    }\r\n    function getAvailableCollateral()public view returns(uint256){\r\n        return safeSubCollateral(getUnlockedCollateral(),getOccupiedCollateral());\r\n    }\r\n    function getLeftCollateral()public view returns(uint256){\r\n        return safeSubCollateral(getTotalCollateral(),getOccupiedCollateral());\r\n    }\r\n    function getUnlockedCollateral()public view returns(uint256){\r\n        return safeSubCollateral(getTotalCollateral(),_FPTCoin.getTotalLockedWorth());\r\n    }\r\n    function safeSubCollateral(uint256 allCollateral,uint256 subCollateral)internal pure returns(uint256){\r\n        return allCollateral > subCollateral ? allCollateral - subCollateral : 0;\r\n    }\r\n    function calOptionsOccupied(uint256 strikePrice,uint256 underlyingPrice,uint256 amount,uint8 optType)public view returns(uint256){\r\n        uint256 totalOccupied = 0;\r\n        if ((optType == 0) == (strikePrice>underlyingPrice)){ // call\r\n            totalOccupied = strikePrice*amount;\r\n        } else {\r\n            totalOccupied = underlyingPrice*amount;\r\n        }\r\n        return calculateCollateral(totalOccupied);\r\n    }\r\n    function getTotalCollateral()public view returns(uint256){\r\n        int256 totalNum = 0;\r\n        uint whiteListLen = whiteList.length;\r\n        for (uint256 i=0;i<whiteListLen;i++){\r\n            address addr = whiteList[i];\r\n            int256 price = int256(_oracle.getPrice(addr));\r\n            int256 netWorth = getRealBalance(addr);\r\n            if (netWorth != 0){\r\n                totalNum = totalNum.add(price*netWorth);\r\n            }\r\n        }\r\n        return totalNum>=0 ? uint256(totalNum) : 0;  \r\n    }\r\n    function getRealBalance(address settlement)public view returns(int256){\r\n        int256 netWorth = _collateralPool.getNetWorthBalance(settlement);\r\n        int256 latestWorth = _optionsPool.getNetWrothLatestWorth(settlement);\r\n        return netWorth.add(latestWorth);\r\n    }\r\n    function getNetWorthBalance(address settlement)public view returns(uint256){\r\n        int256 netWorth = _collateralPool.getNetWorthBalance(settlement);\r\n        int256 latestWorth = _optionsPool.getNetWrothLatestWorth(settlement);\r\n        netWorth = netWorth.add(latestWorth);\r\n        if (netWorth>0){\r\n            return uint256(netWorth);\r\n        }\r\n        return 0;\r\n    }\r\n    function _paybackWorth(uint256 worth,uint256 feeType) internal {\r\n        uint256 totalPrice = 0;\r\n        uint whiteLen = whiteList.length;\r\n        uint256[] memory balances = new uint256[](whiteLen);\r\n        for (uint256 i=0;i<whiteLen;i++){\r\n            address addr = whiteList[i];\r\n            if (checkAddressPermission(addr,allowSellOut)){\r\n                uint256 price = _oracle.getPrice(addr);\r\n                balances[i] = getNetWorthBalance(addr);\r\n                //balances[i] = netWorthBalances[addr];\r\n                totalPrice = totalPrice.add(price*balances[i]);\r\n            }\r\n        }\r\n        require(totalPrice>=worth && worth > 0,\"payback settlement is insufficient!\");\r\n        for (i=0;i<whiteLen;i++){\r\n            uint256 _payBack = balances[i].mul(worth)/totalPrice;\r\n            _collateralPool.transferPaybackAndFee(msg.sender,whiteList[i],_payBack,feeType);\r\n            //addr = whiteList[i];\r\n            //netWorthBalances[addr] = balances[i].sub(_payBack);\r\n            //_transferPaybackAndFee(msg.sender,addr,_payBack,feeType);\r\n        } \r\n    }\r\n    function getPayableAmount(address settlement,uint256 settlementAmount) internal returns (uint256) {\r\n        require(checkAddressPayIn(settlement) , \"settlement is unsupported token\");\r\n        uint256 colAmount = 0;\r\n        if (settlement == address(0)){\r\n            colAmount = msg.value;\r\n            address(_collateralPool).transfer(msg.value);\r\n        }else if (settlementAmount > 0){\r\n            IERC20 oToken = IERC20(settlement);\r\n            oToken.transferFrom(msg.sender, address(this), settlementAmount);\r\n            colAmount = settlementAmount;\r\n             oToken.transfer(address(_collateralPool),settlementAmount);\r\n        }\r\n        checkInputAmount(colAmount);\r\n        return colAmount;\r\n    }\r\n    function calculateCollateral(uint256 amount)internal view returns (uint256){\r\n        return collateralRate*amount/1000;\r\n    }\r\n}",
  "sourcePath": "C:\\work\\solidity\\FinnexusOptions_V2\\contracts\\CollateralCal.sol",
  "compiler": {
    "name": "solc",
    "version": "0.4.26+commit.4563c3fc.Emscripten.clang"
  },
  "schemaVersion": "3.1.0",
  "updatedAt": "2020-08-14T00:48:39.886Z",
  "devdoc": {
    "methods": {
      "addWhiteList(address)": {
        "details": "Implementation of add an eligible address into the whitelist.\r",
        "params": {
          "addAddress": "new eligible address.\r"
        }
      },
      "getWhiteList()": {
        "details": "Implementation of getting the eligible whitelist.\r"
      },
      "isEligibleAddress(address)": {
        "details": "Implementation of testing whether the input address is eligible.\r",
        "params": {
          "tmpAddress": "input address for testing.\r"
        }
      },
      "isOwner()": {
        "details": "Returns true if the caller is the current owner."
      },
      "owner()": {
        "details": "Returns the address of the current owner."
      },
      "removeWhiteList(address)": {
        "details": "Implementation of revoke an invalid address from the whitelist.\r",
        "params": {
          "removeAddress": "revoked address.\r"
        }
      },
      "renounceOwnership()": {
        "details": "Leaves the contract without owner. It will not be possible to call `onlyOwner` functions anymore. Can only be called by the current owner.     * NOTE: Renouncing ownership will leave the contract without an owner, thereby removing any functionality that is only available to the owner."
      },
      "transferOwnership(address)": {
        "details": "Transfers ownership of the contract to a new account (`newOwner`). Can only be called by the current owner."
      }
    }
  },
  "userdoc": {
    "methods": {
      "setHalt(bool)": {
        "notice": "function Emergency situation that requires contribution period to stop or not."
      }
    }
  }
}