{
  "contractName": "CollateralData",
  "abi": [
    {
      "anonymous": false,
      "inputs": [
        {
          "indexed": true,
          "internalType": "address",
          "name": "settlement",
          "type": "address"
        },
        {
          "indexed": false,
          "internalType": "uint256",
          "name": "payback",
          "type": "uint256"
        }
      ],
      "name": "AddFee",
      "type": "event"
    },
    {
      "anonymous": false,
      "inputs": [
        {
          "indexed": true,
          "internalType": "address",
          "name": "previousOwner",
          "type": "address"
        },
        {
          "indexed": true,
          "internalType": "address",
          "name": "newOwner",
          "type": "address"
        }
      ],
      "name": "OwnershipTransferred",
      "type": "event"
    },
    {
      "anonymous": false,
      "inputs": [
        {
          "indexed": true,
          "internalType": "address",
          "name": "recieptor",
          "type": "address"
        },
        {
          "indexed": true,
          "internalType": "address",
          "name": "settlement",
          "type": "address"
        },
        {
          "indexed": false,
          "internalType": "uint256",
          "name": "payback",
          "type": "uint256"
        }
      ],
      "name": "RedeemFee",
      "type": "event"
    },
    {
      "anonymous": false,
      "inputs": [
        {
          "indexed": true,
          "internalType": "address",
          "name": "recieptor",
          "type": "address"
        },
        {
          "indexed": true,
          "internalType": "address",
          "name": "settlement",
          "type": "address"
        },
        {
          "indexed": false,
          "internalType": "uint256",
          "name": "payback",
          "type": "uint256"
        }
      ],
      "name": "TransferPayback",
      "type": "event"
    },
    {
      "constant": false,
      "inputs": [
        {
          "internalType": "address",
          "name": "addAddress",
          "type": "address"
        }
      ],
      "name": "addWhiteList",
      "outputs": [],
      "payable": false,
      "stateMutability": "nonpayable",
      "type": "function"
    },
    {
      "constant": true,
      "inputs": [
        {
          "internalType": "address",
          "name": "tmpAddress",
          "type": "address"
        }
      ],
      "name": "checkAddressPayIn",
      "outputs": [
        {
          "internalType": "bool",
          "name": "",
          "type": "bool"
        }
      ],
      "payable": false,
      "stateMutability": "view",
      "type": "function"
    },
    {
      "constant": true,
      "inputs": [
        {
          "internalType": "address",
          "name": "tmpAddress",
          "type": "address"
        }
      ],
      "name": "checkAddressRedeemOut",
      "outputs": [
        {
          "internalType": "bool",
          "name": "",
          "type": "bool"
        }
      ],
      "payable": false,
      "stateMutability": "view",
      "type": "function"
    },
    {
      "constant": true,
      "inputs": [],
      "name": "getManager",
      "outputs": [
        {
          "internalType": "address",
          "name": "",
          "type": "address"
        }
      ],
      "payable": false,
      "stateMutability": "view",
      "type": "function"
    },
    {
      "constant": true,
      "inputs": [],
      "name": "getWhiteList",
      "outputs": [
        {
          "internalType": "address[]",
          "name": "",
          "type": "address[]"
        }
      ],
      "payable": false,
      "stateMutability": "view",
      "type": "function"
    },
    {
      "constant": true,
      "inputs": [
        {
          "internalType": "address",
          "name": "tmpAddress",
          "type": "address"
        }
      ],
      "name": "isEligibleAddress",
      "outputs": [
        {
          "internalType": "bool",
          "name": "",
          "type": "bool"
        }
      ],
      "payable": false,
      "stateMutability": "view",
      "type": "function"
    },
    {
      "constant": true,
      "inputs": [],
      "name": "isOwner",
      "outputs": [
        {
          "internalType": "bool",
          "name": "",
          "type": "bool"
        }
      ],
      "payable": false,
      "stateMutability": "view",
      "type": "function"
    },
    {
      "constant": false,
      "inputs": [
        {
          "internalType": "address",
          "name": "addAddress",
          "type": "address"
        },
        {
          "internalType": "uint256",
          "name": "permission",
          "type": "uint256"
        }
      ],
      "name": "modifyPermission",
      "outputs": [],
      "payable": false,
      "stateMutability": "nonpayable",
      "type": "function"
    },
    {
      "constant": true,
      "inputs": [],
      "name": "owner",
      "outputs": [
        {
          "internalType": "address",
          "name": "",
          "type": "address"
        }
      ],
      "payable": false,
      "stateMutability": "view",
      "type": "function"
    },
    {
      "constant": false,
      "inputs": [
        {
          "internalType": "address",
          "name": "removeAddress",
          "type": "address"
        }
      ],
      "name": "removeWhiteList",
      "outputs": [
        {
          "internalType": "bool",
          "name": "",
          "type": "bool"
        }
      ],
      "payable": false,
      "stateMutability": "nonpayable",
      "type": "function"
    },
    {
      "constant": false,
      "inputs": [],
      "name": "renounceOwnership",
      "outputs": [],
      "payable": false,
      "stateMutability": "nonpayable",
      "type": "function"
    },
    {
      "constant": false,
      "inputs": [
        {
          "internalType": "bool",
          "name": "halt",
          "type": "bool"
        }
      ],
      "name": "setHalt",
      "outputs": [],
      "payable": false,
      "stateMutability": "nonpayable",
      "type": "function"
    },
    {
      "constant": false,
      "inputs": [
        {
          "internalType": "address",
          "name": "managerAddress",
          "type": "address"
        }
      ],
      "name": "setManager",
      "outputs": [],
      "payable": false,
      "stateMutability": "nonpayable",
      "type": "function"
    },
    {
      "constant": false,
      "inputs": [
        {
          "internalType": "address",
          "name": "newOwner",
          "type": "address"
        }
      ],
      "name": "transferOwnership",
      "outputs": [],
      "payable": false,
      "stateMutability": "nonpayable",
      "type": "function"
    }
  ],
  "bytecode": "0x6080604081905260008054600160a860020a0319163317808255600160a060020a0316917f8be0079c531659141344cd1fd0a4f28419497f9722a3daafe3b4186f6b6457e0908290a3610b03806100576000396000f3fe608060405234801561001057600080fd5b5060043610610107576000357c010000000000000000000000000000000000000000000000000000000090048063bdac4bf6116100a9578063d500958411610083578063d500958414610298578063e7cd4a04146102a0578063f2fde38b146102c6578063f4954387146102ec57610107565b8063bdac4bf614610220578063c219043b14610246578063d0ebdbe71461027257610107565b8063715018a6116100e5578063715018a6146101c4578063817bf86d146101ce5780638da5cb5b146101f45780638f32d59b1461021857610107565b8063059621d71461010c57806309a9d76c146101465780632042e5c21461019e575b600080fd5b6101326004803603602081101561012257600080fd5b5035600160a060020a031661030b565b604080519115158252519081900360200190f35b61014e610343565b60408051602080825283518183015283519192839290830191858101910280838360005b8381101561018a578181015183820152602001610172565b505050509050019250505060405180910390f35b610132600480360360208110156101b457600080fd5b5035600160a060020a03166103a6565b6101cc610403565b005b610132600480360360208110156101e457600080fd5b5035600160a060020a03166104a4565b6101fc610513565b60408051600160a060020a039092168252519081900360200190f35b610132610522565b6101326004803603602081101561023657600080fd5b5035600160a060020a0316610533565b6101cc6004803603604081101561025c57600080fd5b50600160a060020a038135169060200135610567565b6101cc6004803603602081101561028857600080fd5b5035600160a060020a03166105cd565b6101fc610646565b6101cc600480360360208110156102b657600080fd5b5035600160a060020a0316610655565b6101cc600480360360208110156102dc57600080fd5b5035600160a060020a03166106d0565b6101cc6004803603602081101561030257600080fd5b50351515610726565b6000610316826104a4565b801561033d5750600160a060020a0382166000908152600260208190526040909120548116145b92915050565b6060600180548060200260200160405190810160405280929190818152602001828054801561039b57602002820191906000526020600020905b8154600160a060020a0316815260019091019060200180831161037d575b505050505090505b90565b60006103b0610522565b6103f2576040805160e560020a62461bcd0281526020600482018190526024820152600080516020610aaf833981519152604482015290519081900360640190fd5b61033d60018363ffffffff6107b016565b61040b610522565b61044d576040805160e560020a62461bcd0281526020600482018190526024820152600080516020610aaf833981519152604482015290519081900360640190fd5b60008054604051600160a060020a03909116907f8be0079c531659141344cd1fd0a4f28419497f9722a3daafe3b4186f6b6457e0908390a36000805473ffffffffffffffffffffffffffffffffffffffff19169055565b600061033d82600180548060200260200160405190810160405280929190818152602001828054801561050057602002820191906000526020600020905b8154600160a060020a031681526001909101906020018083116104e2575b505050505061089e90919063ffffffff16565b600054600160a060020a031690565b600054600160a060020a0316331490565b600061053e826104a4565b801561033d575050600160a060020a031660009081526002602052604090205460019081161490565b61056f610522565b6105b1576040805160e560020a62461bcd0281526020600482018190526024820152600080516020610aaf833981519152604482015290519081900360640190fd5b600160a060020a03909116600090815260026020526040902055565b6105d5610522565b610617576040805160e560020a62461bcd0281526020600482018190526024820152600080516020610aaf833981519152604482015290519081900360640190fd5b6003805473ffffffffffffffffffffffffffffffffffffffff1916600160a060020a0392909216919091179055565b600354600160a060020a031690565b61065d610522565b61069f576040805160e560020a62461bcd0281526020600482018190526024820152600080516020610aaf833981519152604482015290519081900360640190fd5b6106b060018263ffffffff6108ed16565b600160a060020a0316600090815260026020526040902063ffffffff9055565b6106d8610522565b61071a576040805160e560020a62461bcd0281526020600482018190526024820152600080516020610aaf833981519152604482015290519081900360640190fd5b61072381610991565b50565b61072e610522565b610770576040805160e560020a62461bcd0281526020600482018190526024820152600080516020610aaf833981519152604482015290519081900360640190fd5b60008054911515740100000000000000000000000000000000000000000274ff000000000000000000000000000000000000000019909216919091179055565b8154600090815b818110156107fd5783600160a060020a03168582815481106107d557fe5b600091825260209091200154600160a060020a031614156107f5576107fd565b6001016107b7565b81811015610893576001820381146108775784600183038154811061081e57fe5b9060005260206000200160009054906101000a9004600160a060020a031685828154811061084857fe5b9060005260206000200160006101000a815481600160a060020a030219169083600160a060020a031602179055505b8454610887866000198301610a41565b5060019250505061033d565b506000949350505050565b8151600090815b818110156108935783600160a060020a03168582815181106108c357fe5b6020026020010151600160a060020a031614156108e55760019250505061033d565b6001016108a5565b6109508280548060200260200160405190810160405280929190818152602001828054801561094557602002820191906000526020600020905b8154600160a060020a03168152600190910190602001808311610927575b50505050508261089e565b61098d57815460018101835560008381526020902001805473ffffffffffffffffffffffffffffffffffffffff1916600160a060020a0383161790555b5050565b600160a060020a0381166109d95760405160e560020a62461bcd028152600401808060200182810382526026815260200180610a896026913960400191505060405180910390fd5b60008054604051600160a060020a03808516939216917f8be0079c531659141344cd1fd0a4f28419497f9722a3daafe3b4186f6b6457e091a36000805473ffffffffffffffffffffffffffffffffffffffff1916600160a060020a0392909216919091179055565b815481835581811115610a6557600083815260209020610a65918101908301610a6a565b505050565b6103a391905b80821115610a845760008155600101610a70565b509056fe4f776e61626c653a206e6577206f776e657220697320746865207a65726f20616464726573734f776e61626c653a2063616c6c6572206973206e6f7420746865206f776e6572a265627a7a723158205279c746259357b189dd292f44bb2654942b3d01b34cd719a19b4f944aa638b764736f6c63430005100032",
  "source": "pragma solidity =0.5.16;\nimport \"../modules/Managerable.sol\";\nimport \"../modules/AddressWhiteList.sol\";\n/**\n * @title collateral pool contract with coin and necessary storage data.\n * @dev A smart-contract which stores user's deposited collateral.\n *\n */\ncontract CollateralData is AddressWhiteList,Managerable{\n    struct fraction{\n        uint256 numerator;\n        uint256 denominator;\n    }\n        // The total fees accumulated in the contract\n    mapping (address => uint256) \tinternal feeBalances;\n    fraction[] internal FeeRates;\n     /**\n     * @dev Returns the rate of trasaction fee.\n     */   \n    uint256 constant internal buyFee = 0;\n    uint256 constant internal sellFee = 1;\n    uint256 constant internal exerciseFee = 2;\n    uint256 constant internal addColFee = 3;\n    uint256 constant internal redeemColFee = 4;\n    event RedeemFee(address indexed recieptor,address indexed settlement,uint256 payback);\n    event AddFee(address indexed settlement,uint256 payback);\n    event TransferPayback(address indexed recieptor,address indexed settlement,uint256 payback);\n\n    //token net worth balance\n    mapping (address => int256) internal netWorthBalances;\n    //total user deposited collateral balance\n    // map from collateral address to amount\n    mapping (address => uint256) internal collateralBalances;\n    //user total paying for collateral, priced in usd;\n    mapping (address => uint256) internal userCollateralPaying;\n    //user original deposited collateral.\n    //map account -> collateral -> amount\n    mapping (address => mapping (address => uint256)) internal userInputCollateral;\n}",
  "sourcePath": "/home/jqg/FinnexusOptions_V2/contracts/CollateralPool/CollateralData.sol",
  "compiler": {
    "name": "solc",
    "version": "0.5.16+commit.9c3226ce.Emscripten.clang"
  },
  "schemaVersion": "3.2.4",
  "updatedAt": "2020-09-09T03:13:04.020Z",
  "devdoc": {
    "details": "A smart-contract which stores user's deposited collateral. ",
    "methods": {
      "addWhiteList(address)": {
        "details": "Implementation of add an eligible address into the whitelist.",
        "params": {
          "addAddress": "new eligible address."
        }
      },
      "getManager()": {
        "details": "get manager address.      "
      },
      "getWhiteList()": {
        "details": "Implementation of getting the eligible whitelist."
      },
      "isEligibleAddress(address)": {
        "details": "Implementation of testing whether the input address is eligible.",
        "params": {
          "tmpAddress": "input address for testing."
        }
      },
      "isOwner()": {
        "details": "Returns true if the caller is the current owner."
      },
      "owner()": {
        "details": "Returns the address of the current owner."
      },
      "removeWhiteList(address)": {
        "details": "Implementation of revoke an invalid address from the whitelist.",
        "params": {
          "removeAddress": "revoked address."
        }
      },
      "renounceOwnership()": {
        "details": "Leaves the contract without owner. It will not be possible to call `onlyOwner` functions anymore. Can only be called by the current owner.     * NOTE: Renouncing ownership will leave the contract without an owner, thereby removing any functionality that is only available to the owner."
      },
      "setManager(address)": {
        "details": "set manager by owner.      "
      },
      "transferOwnership(address)": {
        "details": "Transfers ownership of the contract to a new account (`newOwner`). Can only be called by the current owner."
      }
    },
    "title": "collateral pool contract with coin and necessary storage data."
  },
  "userdoc": {
    "methods": {
      "setHalt(bool)": {
        "notice": "function Emergency situation that requires contribution period to stop or not."
      }
    }
  }
}