{
  "contractName": "CollateralPool",
  "abi": [
    {
      "constant": true,
      "inputs": [],
      "name": "name",
      "outputs": [
        {
          "name": "",
          "type": "string"
        }
      ],
      "payable": false,
      "stateMutability": "view",
      "type": "function"
    },
    {
      "constant": false,
      "inputs": [
        {
          "name": "spender",
          "type": "address"
        },
        {
          "name": "amount",
          "type": "uint256"
        }
      ],
      "name": "approve",
      "outputs": [
        {
          "name": "",
          "type": "bool"
        }
      ],
      "payable": false,
      "stateMutability": "nonpayable",
      "type": "function"
    },
    {
      "constant": true,
      "inputs": [],
      "name": "getWhiteList",
      "outputs": [
        {
          "name": "",
          "type": "address[]"
        }
      ],
      "payable": false,
      "stateMutability": "view",
      "type": "function"
    },
    {
      "constant": true,
      "inputs": [
        {
          "name": "",
          "type": "address"
        }
      ],
      "name": "netWorthBalances",
      "outputs": [
        {
          "name": "",
          "type": "uint256"
        }
      ],
      "payable": false,
      "stateMutability": "view",
      "type": "function"
    },
    {
      "constant": true,
      "inputs": [],
      "name": "totalSupply",
      "outputs": [
        {
          "name": "",
          "type": "uint256"
        }
      ],
      "payable": false,
      "stateMutability": "view",
      "type": "function"
    },
    {
      "constant": false,
      "inputs": [
        {
          "name": "optionsPool",
          "type": "address"
        }
      ],
      "name": "setOptionsPoolAddress",
      "outputs": [],
      "payable": false,
      "stateMutability": "nonpayable",
      "type": "function"
    },
    {
      "constant": false,
      "inputs": [
        {
          "name": "removeAddress",
          "type": "address"
        }
      ],
      "name": "removeWhiteList",
      "outputs": [
        {
          "name": "",
          "type": "bool"
        }
      ],
      "payable": false,
      "stateMutability": "nonpayable",
      "type": "function"
    },
    {
      "constant": false,
      "inputs": [
        {
          "name": "sender",
          "type": "address"
        },
        {
          "name": "recipient",
          "type": "address"
        },
        {
          "name": "amount",
          "type": "uint256"
        }
      ],
      "name": "transferFrom",
      "outputs": [
        {
          "name": "",
          "type": "bool"
        }
      ],
      "payable": false,
      "stateMutability": "nonpayable",
      "type": "function"
    },
    {
      "constant": true,
      "inputs": [
        {
          "name": "",
          "type": "address"
        }
      ],
      "name": "balances",
      "outputs": [
        {
          "name": "",
          "type": "uint256"
        }
      ],
      "payable": false,
      "stateMutability": "view",
      "type": "function"
    },
    {
      "constant": true,
      "inputs": [
        {
          "name": "",
          "type": "address"
        }
      ],
      "name": "collateralBalances",
      "outputs": [
        {
          "name": "",
          "type": "uint256"
        }
      ],
      "payable": false,
      "stateMutability": "view",
      "type": "function"
    },
    {
      "constant": false,
      "inputs": [],
      "name": "redeemAll",
      "outputs": [],
      "payable": false,
      "stateMutability": "nonpayable",
      "type": "function"
    },
    {
      "constant": true,
      "inputs": [],
      "name": "decimals",
      "outputs": [
        {
          "name": "",
          "type": "uint8"
        }
      ],
      "payable": false,
      "stateMutability": "view",
      "type": "function"
    },
    {
      "constant": true,
      "inputs": [
        {
          "name": "feeType",
          "type": "uint256"
        },
        {
          "name": "amount",
          "type": "uint256"
        }
      ],
      "name": "calculateFee",
      "outputs": [
        {
          "name": "",
          "type": "uint256"
        }
      ],
      "payable": false,
      "stateMutability": "view",
      "type": "function"
    },
    {
      "constant": false,
      "inputs": [
        {
          "name": "spender",
          "type": "address"
        },
        {
          "name": "addedValue",
          "type": "uint256"
        }
      ],
      "name": "increaseAllowance",
      "outputs": [
        {
          "name": "",
          "type": "bool"
        }
      ],
      "payable": false,
      "stateMutability": "nonpayable",
      "type": "function"
    },
    {
      "constant": false,
      "inputs": [
        {
          "name": "oracle",
          "type": "address"
        }
      ],
      "name": "setOracleAddress",
      "outputs": [],
      "payable": false,
      "stateMutability": "nonpayable",
      "type": "function"
    },
    {
      "constant": true,
      "inputs": [
        {
          "name": "",
          "type": "address"
        }
      ],
      "name": "feeBalances",
      "outputs": [
        {
          "name": "",
          "type": "uint256"
        }
      ],
      "payable": false,
      "stateMutability": "view",
      "type": "function"
    },
    {
      "constant": true,
      "inputs": [],
      "name": "collateralRate",
      "outputs": [
        {
          "name": "numerator",
          "type": "uint256"
        },
        {
          "name": "denominator",
          "type": "uint256"
        }
      ],
      "payable": false,
      "stateMutability": "view",
      "type": "function"
    },
    {
      "constant": true,
      "inputs": [
        {
          "name": "",
          "type": "uint256"
        }
      ],
      "name": "whiteList",
      "outputs": [
        {
          "name": "",
          "type": "address"
        }
      ],
      "payable": false,
      "stateMutability": "view",
      "type": "function"
    },
    {
      "constant": true,
      "inputs": [
        {
          "name": "account",
          "type": "address"
        }
      ],
      "name": "balanceOf",
      "outputs": [
        {
          "name": "",
          "type": "uint256"
        }
      ],
      "payable": false,
      "stateMutability": "view",
      "type": "function"
    },
    {
      "constant": false,
      "inputs": [],
      "name": "renounceOwnership",
      "outputs": [],
      "payable": false,
      "stateMutability": "nonpayable",
      "type": "function"
    },
    {
      "constant": true,
      "inputs": [
        {
          "name": "tmpAddress",
          "type": "address"
        }
      ],
      "name": "isEligibleAddress",
      "outputs": [
        {
          "name": "",
          "type": "bool"
        }
      ],
      "payable": false,
      "stateMutability": "view",
      "type": "function"
    },
    {
      "constant": true,
      "inputs": [],
      "name": "owner",
      "outputs": [
        {
          "name": "",
          "type": "address"
        }
      ],
      "payable": false,
      "stateMutability": "view",
      "type": "function"
    },
    {
      "constant": true,
      "inputs": [],
      "name": "isOwner",
      "outputs": [
        {
          "name": "",
          "type": "bool"
        }
      ],
      "payable": false,
      "stateMutability": "view",
      "type": "function"
    },
    {
      "constant": false,
      "inputs": [
        {
          "name": "currency",
          "type": "address"
        }
      ],
      "name": "redeem",
      "outputs": [],
      "payable": false,
      "stateMutability": "nonpayable",
      "type": "function"
    },
    {
      "constant": true,
      "inputs": [],
      "name": "symbol",
      "outputs": [
        {
          "name": "",
          "type": "string"
        }
      ],
      "payable": false,
      "stateMutability": "view",
      "type": "function"
    },
    {
      "constant": false,
      "inputs": [
        {
          "name": "spender",
          "type": "address"
        },
        {
          "name": "subtractedValue",
          "type": "uint256"
        }
      ],
      "name": "decreaseAllowance",
      "outputs": [
        {
          "name": "",
          "type": "bool"
        }
      ],
      "payable": false,
      "stateMutability": "nonpayable",
      "type": "function"
    },
    {
      "constant": false,
      "inputs": [
        {
          "name": "recipient",
          "type": "address"
        },
        {
          "name": "amount",
          "type": "uint256"
        }
      ],
      "name": "transfer",
      "outputs": [
        {
          "name": "",
          "type": "bool"
        }
      ],
      "payable": false,
      "stateMutability": "nonpayable",
      "type": "function"
    },
    {
      "constant": true,
      "inputs": [],
      "name": "getOracleAddress",
      "outputs": [
        {
          "name": "",
          "type": "address"
        }
      ],
      "payable": false,
      "stateMutability": "view",
      "type": "function"
    },
    {
      "constant": true,
      "inputs": [],
      "name": "halted",
      "outputs": [
        {
          "name": "",
          "type": "bool"
        }
      ],
      "payable": false,
      "stateMutability": "view",
      "type": "function"
    },
    {
      "constant": false,
      "inputs": [
        {
          "name": "feeType",
          "type": "uint256"
        },
        {
          "name": "numerator",
          "type": "uint256"
        },
        {
          "name": "denominator",
          "type": "uint256"
        }
      ],
      "name": "setTransactionFee",
      "outputs": [],
      "payable": false,
      "stateMutability": "nonpayable",
      "type": "function"
    },
    {
      "constant": true,
      "inputs": [],
      "name": "getOptionsPoolAddress",
      "outputs": [
        {
          "name": "",
          "type": "address"
        }
      ],
      "payable": false,
      "stateMutability": "view",
      "type": "function"
    },
    {
      "constant": true,
      "inputs": [
        {
          "name": "settlement",
          "type": "address"
        }
      ],
      "name": "getFeeBalance",
      "outputs": [
        {
          "name": "",
          "type": "uint256"
        }
      ],
      "payable": false,
      "stateMutability": "view",
      "type": "function"
    },
    {
      "constant": true,
      "inputs": [
        {
          "name": "feeType",
          "type": "uint256"
        }
      ],
      "name": "getFeeRate",
      "outputs": [
        {
          "name": "",
          "type": "uint256"
        },
        {
          "name": "",
          "type": "uint256"
        }
      ],
      "payable": false,
      "stateMutability": "view",
      "type": "function"
    },
    {
      "constant": true,
      "inputs": [
        {
          "name": "owner",
          "type": "address"
        },
        {
          "name": "spender",
          "type": "address"
        }
      ],
      "name": "allowance",
      "outputs": [
        {
          "name": "",
          "type": "uint256"
        }
      ],
      "payable": false,
      "stateMutability": "view",
      "type": "function"
    },
    {
      "constant": true,
      "inputs": [
        {
          "name": "",
          "type": "address"
        }
      ],
      "name": "userCollateralPaying",
      "outputs": [
        {
          "name": "",
          "type": "uint256"
        }
      ],
      "payable": false,
      "stateMutability": "view",
      "type": "function"
    },
    {
      "constant": true,
      "inputs": [
        {
          "name": "",
          "type": "uint256"
        }
      ],
      "name": "FeeRates",
      "outputs": [
        {
          "name": "numerator",
          "type": "uint256"
        },
        {
          "name": "denominator",
          "type": "uint256"
        }
      ],
      "payable": false,
      "stateMutability": "view",
      "type": "function"
    },
    {
      "constant": false,
      "inputs": [
        {
          "name": "addAddress",
          "type": "address"
        }
      ],
      "name": "addWhiteList",
      "outputs": [],
      "payable": false,
      "stateMutability": "nonpayable",
      "type": "function"
    },
    {
      "constant": true,
      "inputs": [],
      "name": "getAllFeeBalances",
      "outputs": [
        {
          "name": "",
          "type": "address[]"
        },
        {
          "name": "",
          "type": "uint256[]"
        }
      ],
      "payable": false,
      "stateMutability": "view",
      "type": "function"
    },
    {
      "constant": false,
      "inputs": [
        {
          "name": "newOwner",
          "type": "address"
        }
      ],
      "name": "transferOwnership",
      "outputs": [],
      "payable": false,
      "stateMutability": "nonpayable",
      "type": "function"
    },
    {
      "constant": false,
      "inputs": [
        {
          "name": "halt",
          "type": "bool"
        }
      ],
      "name": "setHalt",
      "outputs": [],
      "payable": false,
      "stateMutability": "nonpayable",
      "type": "function"
    },
    {
      "constant": true,
      "inputs": [
        {
          "name": "tmpAddress",
          "type": "address"
        }
      ],
      "name": "checkEligibleAddress",
      "outputs": [],
      "payable": false,
      "stateMutability": "view",
      "type": "function"
    },
    {
      "anonymous": false,
      "inputs": [
        {
          "indexed": true,
          "name": "from",
          "type": "address"
        },
        {
          "indexed": true,
          "name": "collateral",
          "type": "address"
        },
        {
          "indexed": false,
          "name": "amount",
          "type": "uint256"
        },
        {
          "indexed": false,
          "name": "tokenAmount",
          "type": "uint256"
        }
      ],
      "name": "AddCollateral",
      "type": "event"
    },
    {
      "anonymous": false,
      "inputs": [
        {
          "indexed": true,
          "name": "from",
          "type": "address"
        },
        {
          "indexed": false,
          "name": "tokenAmount",
          "type": "uint256"
        }
      ],
      "name": "RedeemCollateral",
      "type": "event"
    },
    {
      "anonymous": false,
      "inputs": [
        {
          "indexed": true,
          "name": "value1",
          "type": "uint256"
        },
        {
          "indexed": true,
          "name": "value2",
          "type": "uint256"
        },
        {
          "indexed": true,
          "name": "value3",
          "type": "uint256"
        }
      ],
      "name": "DebugEvent",
      "type": "event"
    },
    {
      "anonymous": false,
      "inputs": [
        {
          "indexed": true,
          "name": "from",
          "type": "address"
        },
        {
          "indexed": true,
          "name": "to",
          "type": "address"
        },
        {
          "indexed": false,
          "name": "value",
          "type": "uint256"
        }
      ],
      "name": "Transfer",
      "type": "event"
    },
    {
      "anonymous": false,
      "inputs": [
        {
          "indexed": true,
          "name": "owner",
          "type": "address"
        },
        {
          "indexed": true,
          "name": "spender",
          "type": "address"
        },
        {
          "indexed": false,
          "name": "value",
          "type": "uint256"
        }
      ],
      "name": "Approval",
      "type": "event"
    },
    {
      "anonymous": false,
      "inputs": [
        {
          "indexed": true,
          "name": "recieptor",
          "type": "address"
        },
        {
          "indexed": true,
          "name": "settlement",
          "type": "address"
        },
        {
          "indexed": false,
          "name": "payback",
          "type": "uint256"
        }
      ],
      "name": "FeePayback",
      "type": "event"
    },
    {
      "anonymous": false,
      "inputs": [
        {
          "indexed": true,
          "name": "settlement",
          "type": "address"
        },
        {
          "indexed": false,
          "name": "payback",
          "type": "uint256"
        }
      ],
      "name": "AddFee",
      "type": "event"
    },
    {
      "anonymous": false,
      "inputs": [
        {
          "indexed": true,
          "name": "recieptor",
          "type": "address"
        },
        {
          "indexed": true,
          "name": "settlement",
          "type": "address"
        },
        {
          "indexed": false,
          "name": "payback",
          "type": "uint256"
        }
      ],
      "name": "TransferPayback",
      "type": "event"
    },
    {
      "anonymous": false,
      "inputs": [
        {
          "indexed": true,
          "name": "previousOwner",
          "type": "address"
        },
        {
          "indexed": true,
          "name": "newOwner",
          "type": "address"
        }
      ],
      "name": "OwnershipTransferred",
      "type": "event"
    },
    {
      "constant": false,
      "inputs": [
        {
          "name": "numerator",
          "type": "uint256"
        },
        {
          "name": "denominator",
          "type": "uint256"
        }
      ],
      "name": "setCollateralRate",
      "outputs": [],
      "payable": false,
      "stateMutability": "nonpayable",
      "type": "function"
    },
    {
      "constant": true,
      "inputs": [],
      "name": "getCollateralRate",
      "outputs": [
        {
          "name": "",
          "type": "uint256"
        },
        {
          "name": "",
          "type": "uint256"
        }
      ],
      "payable": false,
      "stateMutability": "view",
      "type": "function"
    },
    {
      "constant": true,
      "inputs": [
        {
          "name": "user",
          "type": "address"
        }
      ],
      "name": "getUserPayingUsd",
      "outputs": [
        {
          "name": "",
          "type": "uint256"
        }
      ],
      "payable": false,
      "stateMutability": "view",
      "type": "function"
    },
    {
      "constant": true,
      "inputs": [
        {
          "name": "user",
          "type": "address"
        },
        {
          "name": "collateral",
          "type": "address"
        }
      ],
      "name": "userInputCollateral",
      "outputs": [
        {
          "name": "",
          "type": "uint256"
        }
      ],
      "payable": false,
      "stateMutability": "view",
      "type": "function"
    },
    {
      "constant": false,
      "inputs": [
        {
          "name": "index",
          "type": "uint256"
        }
      ],
      "name": "setPhaseSharedPayment",
      "outputs": [],
      "payable": false,
      "stateMutability": "nonpayable",
      "type": "function"
    },
    {
      "constant": false,
      "inputs": [
        {
          "name": "index",
          "type": "uint256"
        },
        {
          "name": "sharedBalances",
          "type": "uint256[]"
        },
        {
          "name": "firstOption",
          "type": "uint256"
        },
        {
          "name": "lastBlock",
          "type": "uint256"
        },
        {
          "name": "calTime",
          "type": "uint256"
        }
      ],
      "name": "setSharedPayment",
      "outputs": [],
      "payable": false,
      "stateMutability": "nonpayable",
      "type": "function"
    },
    {
      "constant": true,
      "inputs": [],
      "name": "getTokenNetworth",
      "outputs": [
        {
          "name": "",
          "type": "uint256"
        }
      ],
      "payable": false,
      "stateMutability": "view",
      "type": "function"
    },
    {
      "constant": false,
      "inputs": [
        {
          "name": "collateral",
          "type": "address"
        },
        {
          "name": "amount",
          "type": "uint256"
        }
      ],
      "name": "addCollateral",
      "outputs": [],
      "payable": true,
      "stateMutability": "payable",
      "type": "function"
    },
    {
      "constant": false,
      "inputs": [
        {
          "name": "tokenAmount",
          "type": "uint256"
        },
        {
          "name": "collateral",
          "type": "address"
        }
      ],
      "name": "redeemCollateral",
      "outputs": [],
      "payable": false,
      "stateMutability": "nonpayable",
      "type": "function"
    },
    {
      "constant": true,
      "inputs": [],
      "name": "getOccupiedCollateral",
      "outputs": [
        {
          "name": "",
          "type": "uint256"
        }
      ],
      "payable": false,
      "stateMutability": "view",
      "type": "function"
    },
    {
      "constant": true,
      "inputs": [],
      "name": "getLeftCollateral",
      "outputs": [
        {
          "name": "",
          "type": "uint256"
        }
      ],
      "payable": false,
      "stateMutability": "view",
      "type": "function"
    },
    {
      "constant": true,
      "inputs": [],
      "name": "getTotalCollateral",
      "outputs": [
        {
          "name": "",
          "type": "uint256"
        }
      ],
      "payable": false,
      "stateMutability": "view",
      "type": "function"
    }
  ],
  "bytecode": "0x6000805460ff60a860020a60ff02011916905560c0604052600a60808190527f536861726564436f696e0000000000000000000000000000000000000000000060a09081526200005391600491906200023f565b506040805180820190915260058082527f53436f696e00000000000000000000000000000000000000000000000000000060209092019182526200009891816200023f565b5060006008819055604080518082018252600380825260016020909201829052600b55600c55815461010033810261010060a860020a03199092169190911780845591519104600160a060020a031691907f8be0079c531659141344cd1fd0a4f28419497f9722a3daafe3b4186f6b6457e0908290a360408051808201825260038082526103e860208084018281528354600181810186556000868152965160029283027fc2575a0e9e593c00f959f8c92f12db2869c3395a3b0502d05e2516446f71f85b8181019290925593517fc2575a0e9e593c00f959f8c92f12db2869c3395a3b0502d05e2516446f71f85c948501558851808a018a5287815280860187815288548085018a55898b5291519185028084019290925551908501558851808a018a5287815280860187815288548085018a55898b5291519185028084019290925551908501558851808a018a5287815280860187815288548085018a55898b5291519185028084019290925551908501558851808a0190995286895293880194855285549081018655949095529451929093029283019190915551910155620002e4565b828054600181600116156101000203166002900490600052602060002090601f016020900481019282601f106200028257805160ff1916838001178555620002b2565b82800160010185558215620002b2579182015b82811115620002b257825182559160200191906001019062000295565b50620002c0929150620002c4565b5090565b620002e191905b80821115620002c05760008155600101620002cb565b90565b61382180620002f46000396000f3006080604052600436106102635763ffffffff60e060020a60003504166306fdde038114610268578063095ea7b3146102f257806309a9d76c1461032a5780630aaf38321461038f5780630ecfad1e146103b657806318160ddd146103d75780631a5a3fce146103ec5780632042e5c21461040f57806323b872dd1461043057806327e235e31461045a57806329bc969d1461047b5780632f4350c21461049c578063313ce567146104b157806334e73122146104dc57806339509351146104f757806342049a721461051b5780634c69c00f1461053c57806353afc0251461055d57806358a6be1c1461057e5780635c475d42146105ac5780636d75b9ee146105e057806370a08231146105f7578063715018a614610618578063817bf86d1461062d578063852185fc1461064e5780638da5cb5b146106635780638f32d59b1461067857806395a2251f1461068d57806395d89b41146106ae578063a04115f6146106c3578063a20a8045146106db578063a457c2d7146106ff578063a9059cbb14610723578063b18b78dd14610747578063b4d5a9c71461075c578063b7480d7414610783578063b9b8af0b146107ea578063bf36b110146107ff578063c040725a1461081d578063c5e5a3ed14610832578063c78f680314610847578063cd40581914610868578063d2aaef4e1461087d578063d6eb591014610895578063dd62ed3e146108aa578063ddb944e5146108d1578063e0561aa1146108f2578063e7cd4a041461090a578063ef63e1f71461092b578063f20568cd14610946578063f2fde38b146109f4578063f495438714610a15578063f939fdca14610a2f575b600080fd5b34801561027457600080fd5b5061027d610a50565b6040805160208082528351818301528351919283929083019185019080838360005b838110156102b757818101518382015260200161029f565b50505050905090810190601f1680156102e45780820380516001836020036101000a031916815260200191505b509250505060405180910390f35b3480156102fe57600080fd5b50610316600160a060020a0360043516602435610ade565b604080519115158252519081900360200190f35b34801561033657600080fd5b5061033f610af4565b60408051602080825283518183015283519192839290830191858101910280838360005b8381101561037b578181015183820152602001610363565b505050509050019250505060405180910390f35b34801561039b57600080fd5b506103a4610b57565b60408051918252519081900360200190f35b3480156103c257600080fd5b506103a4600160a060020a0360043516610b6f565b3480156103e357600080fd5b506103a4610b81565b3480156103f857600080fd5b5061040d600160a060020a0360043516610b87565b005b34801561041b57600080fd5b50610316600160a060020a0360043516610c02565b34801561043c57600080fd5b50610316600160a060020a0360043581169060243516604435610c61565b34801561046657600080fd5b506103a4600160a060020a0360043516610d14565b34801561048757600080fd5b506103a4600160a060020a0360043516610d26565b3480156104a857600080fd5b5061040d610d38565b3480156104bd57600080fd5b506104c6610dcb565b6040805160ff9092168252519081900360200190f35b3480156104e857600080fd5b506103a4600435602435610dd0565b34801561050357600080fd5b50610316600160a060020a0360043516602435610e17565b34801561052757600080fd5b506103a4600160a060020a0360043516610e53565b34801561054857600080fd5b5061040d600160a060020a0360043516610e6e565b34801561056957600080fd5b506103a4600160a060020a0360043516610ee9565b34801561058a57600080fd5b50610593610efb565b6040805192835260208301919091528051918290030190f35b3480156105b857600080fd5b506105c4600435610f04565b60408051600160a060020a039092168252519081900360200190f35b61040d600160a060020a0360043516602435610f2c565b34801561060357600080fd5b506103a4600160a060020a03600435166111b1565b34801561062457600080fd5b5061040d6111cc565b34801561063957600080fd5b50610316600160a060020a0360043516611274565b34801561065a57600080fd5b506105936112da565b34801561066f57600080fd5b506105c46112e4565b34801561068457600080fd5b506103166112f8565b34801561069957600080fd5b5061040d600160a060020a036004351661130e565b3480156106ba57600080fd5b5061027d6114fe565b3480156106cf57600080fd5b5061040d600435611559565b3480156106e757600080fd5b5061040d600435600160a060020a0360243516611715565b34801561070b57600080fd5b50610316600160a060020a0360043516602435611901565b34801561072f57600080fd5b50610316600160a060020a036004351660243561199a565b34801561075357600080fd5b506105c46119a7565b34801561076857600080fd5b506103a4600160a060020a03600435811690602435166119b6565b34801561078f57600080fd5b5060408051602060046024803582810135848102808701860190975280865261040d96843596369660449591949091019291829185019084908082843750949750508435955050506020830135926040013591506119e19050565b3480156107f657600080fd5b50610316611b68565b34801561080b57600080fd5b5061040d600435602435604435611b8a565b34801561082957600080fd5b506105c4611bee565b34801561083e57600080fd5b506103a4611bfd565b34801561085357600080fd5b506103a4600160a060020a0360043516611c2f565b34801561087457600080fd5b506103a4611c4a565b34801561088957600080fd5b50610593600435611cde565b3480156108a157600080fd5b506103a4611cff565b3480156108b657600080fd5b506103a4600160a060020a0360043581169060243516611e07565b3480156108dd57600080fd5b506103a4600160a060020a0360043516611e32565b3480156108fe57600080fd5b50610593600435611e44565b34801561091657600080fd5b5061040d600160a060020a0360043516611e70565b34801561093757600080fd5b5061040d600435602435611ec7565b34801561095257600080fd5b5061095b611f1e565b604051808060200180602001838103835285818151815260200191508051906020019060200280838360005b8381101561099f578181015183820152602001610987565b50505050905001838103825284818151815260200191508051906020019060200280838360005b838110156109de5781810151838201526020016109c6565b5050505090500194505050505060405180910390f35b348015610a0057600080fd5b5061040d600160a060020a0360043516612027565b348015610a2157600080fd5b5061040d600435151561207c565b348015610a3b57600080fd5b5061040d600160a060020a036004351661210a565b6004805460408051602060026001851615610100026000190190941693909304601f81018490048402820184019092528181529291830182828015610ad65780601f10610aab57610100808354040283529160200191610ad6565b820191906000526020600020905b815481529060010190602001808311610ab957829003601f168201915b505050505081565b6000610aeb33848461216e565b50600192915050565b60606001805480602002602001604051908101604052809291908181526020018280548015610b4c57602002820191906000526020600020905b8154600160a060020a03168152600190910190602001808311610b2e575b505050505090505b90565b6000610b61611c4a565b610b69611cff565b03905090565b600d6020526000908152604090205481565b60085490565b610b8f6112f8565b1515610bd3576040805160e560020a62461bcd02815260206004820181905260248201526000805160206137d6833981519152604482015290519081900360640190fd5b600a805473ffffffffffffffffffffffffffffffffffffffff1916600160a060020a0392909216919091179055565b6000610c0c6112f8565b1515610c50576040805160e560020a62461bcd02815260206004820181905260248201526000805160206137d6833981519152604482015290519081900360640190fd5b610c5b6001836122db565b92915050565b6000610c6e8484846123c8565b60408051606081018252602881527f45524332303a207472616e7366657220616d6f756e74206578636565647320616020808301919091527f6c6c6f77616e636500000000000000000000000000000000000000000000000082840152600160a060020a0387166000908152600782528381203380835292529290922054610d0a9287929091610d0591879063ffffffff61253816565b61216e565b5060019392505050565b60066020526000908152604090205481565b600e6020526000908152604090205481565b6000610d426112f8565b1515610d86576040805160e560020a62461bcd02815260206004820181905260248201526000805160206137d6833981519152604482015290519081900360640190fd5b5060005b600154811015610dc857610dc0600182815481101515610da657fe5b600091825260209091200154600160a060020a031661130e565b600101610d8a565b50565b601281565b6000806000610dde856125d5565b8054909250610df3908563ffffffff61265416565b9050610e0c8260010154826126fe90919063ffffffff16565b92505b505092915050565b336000818152600760209081526040808320600160a060020a03871684529091528120549091610aeb918590610d05908663ffffffff61274716565b600160a060020a03166000908152600f602052604090205490565b610e766112f8565b1515610eba576040805160e560020a62461bcd02815260206004820181905260248201526000805160206137d6833981519152604482015290519081900360640190fd5b6009805473ffffffffffffffffffffffffffffffffffffffff1916600160a060020a0392909216919091179055565b60026020526000908152604090205481565b600b54600c5482565b6001805482908110610f1257fe5b600091825260209091200154600160a060020a0316905081565b600080600080610f3c86866127a4565b945060008511610f96576040805160e560020a62461bcd02815260206004820152601a60248201527f736574746c656d656e7420616d6f756e74206973207a65726f21000000000000604482015290519081900360640190fd5b610fa1600386610dd0565b9350610fad86856128d7565b610fbd858563ffffffff61295616565b6009546040805160e060020a6341976e09028152600160a060020a038a8116600483015291519398509116916341976e09916024808201926020929091908290030181600087803b15801561101157600080fd5b505af1158015611025573d6000803e3d6000fd5b505050506040513d602081101561103b57600080fd5b5051925061104f838663ffffffff61265416565b915061106961105c611bfd565b839063ffffffff6126fe16565b336000908152600f602052604090205490915061108c908363ffffffff61274716565b336000908152600f6020908152604080832093909355600160a060020a0389168252600e905220546110c4908663ffffffff61274716565b600160a060020a0387166000818152600e602090815260408083209490945533825260108152838220928252919091522054611106908663ffffffff61274716565b336000908152601060209081526040808320600160a060020a038b168452825280832093909355600d90522054611143908663ffffffff61274716565b600160a060020a0387166000818152600d60209081526040918290209390935580518881529283018490528051919233927f33a089d94f9a0b7d0fe21e69b40d7dbe1965be652c7382cc778d46963db8c49b929181900390910190a36111a93382612998565b505050505050565b600160a060020a031660009081526006602052604090205490565b6111d46112f8565b1515611218576040805160e560020a62461bcd02815260206004820181905260248201526000805160206137d6833981519152604482015290519081900360640190fd5b60008054604051610100909104600160a060020a0316907f8be0079c531659141344cd1fd0a4f28419497f9722a3daafe3b4186f6b6457e0908390a36000805474ffffffffffffffffffffffffffffffffffffffff0019169055565b6000610c5b60018054806020026020016040519081016040528092919081815260200182805480156112cf57602002820191906000526020600020905b8154600160a060020a031681526001909101906020018083116112b1575b505050505083612a5d565b600b54600c549091565b6000546101009004600160a060020a031690565b6000546101009004600160a060020a0316331490565b6000806113196112f8565b151561135d576040805160e560020a62461bcd02815260206004820181905260248201526000805160206137d6833981519152604482015290519081900360640190fd5b600160a060020a038316600090815260026020526040812054925082116113ce576040805160e560020a62461bcd02815260206004820152601260248201527f4974277320656d7074792062616c616e63650000000000000000000000000000604482015290519081900360640190fd5b600160a060020a038316600081815260026020526040812055151561142057604051339083156108fc029084906000818181858888f1935050505015801561141a573d6000803e3d6000fd5b506114b9565b50604080517fa9059cbb0000000000000000000000000000000000000000000000000000000081523360048201526024810183905290518391600160a060020a0383169163a9059cbb916044808201926020929091908290030181600087803b15801561148c57600080fd5b505af11580156114a0573d6000803e3d6000fd5b505050506040513d60208110156114b657600080fd5b50505b604080518381529051600160a060020a0385169133917f747147be90b2a81a2e929994a92cd7bb71396bdbfd02f181867c81187d4f79449181900360200190a3505050565b6005805460408051602060026001851615610100026000190190941693909304601f81018490048402820184019092528181529291830182828015610ad65780601f10610aab57610100808354040283529160200191610ad6565b60606000806115666112f8565b15156115aa576040805160e560020a62461bcd02815260206004820181905260248201526000805160206137d6833981519152604482015290519081900360640190fd5b600a54604080517faf70df1200000000000000000000000000000000000000000000000000000000815260048101878152602482019283526001805460448401819052600160a060020a039095169463af70df12948a9492939290916064909101908490801561164357602002820191906000526020600020905b8154600160a060020a03168152600190910190602001808311611625575b50509350505050600060405180830381600087803b15801561166457600080fd5b505af1158015611678573d6000803e3d6000fd5b505050506040513d6000823e601f3d908101601f1916820160405260608110156116a157600080fd5b8101908080516401000000008111156116b957600080fd5b820160208101848111156116cc57600080fd5b81518560208202830111640100000000821117156116e957600080fd5b50506020820151604090920151909650909450925061170f9150859050848484426119e1565b50505050565b60008060008061172485611274565b151561177a576040805160e560020a62461bcd02815260206004820152601f60248201527f736574746c656d656e7420697320756e737570706f7274656420746f6b656e00604482015290519081900360640190fd5b336000908152600660205260409020548611156117e1576040805160e560020a62461bcd02815260206004820152601e60248201527f53436f696e2062616c616e636520697320696e73756666696369656e74210000604482015290519081900360640190fd5b8515156117ed576111a9565b600a60009054906101000a9004600160a060020a0316600160a060020a03166373a3d4246040518163ffffffff1660e060020a028152600401602060405180830381600087803b15801561184057600080fd5b505af1158015611854573d6000803e3d6000fd5b505050506040513d602081101561186a57600080fd5b50519350611876611cff565b925061188d600854846126fe90919063ffffffff16565b915061189f868363ffffffff61265416565b9050826118b2858363ffffffff61274716565b116111a9576118c386868385612aae565b60408051878152905133917f925b1add21f66e1e2c8c9e9fffb3e0f4105df02dbd05c280f2fe4d19f5c50be5919081900360200190a2505050505050565b60408051606081018252602581527f45524332303a2064656372656173656420616c6c6f77616e63652062656c6f776020808301919091527f207a65726f0000000000000000000000000000000000000000000000000000008284015233600081815260078352848120600160a060020a0388168252909252928120549092610aeb9290918691610d059190879063ffffffff61253816565b6000610aeb3384846123c8565b600954600160a060020a031690565b600160a060020a03918216600090815260106020908152604080832093909416825291909152205490565b6000806119ec6112f8565b1515611a30576040805160e560020a62461bcd02815260206004820181905260248201526000805160206137d6833981519152604482015290519081900360640190fd5b600a54604080517f36c146f3000000000000000000000000000000000000000000000000000000008152600481018a90526024810188905260448101879052606481018690529051600160a060020a03909216916336c146f39160848082019260009290919082900301818387803b158015611aab57600080fd5b505af1158015611abf573d6000803e3d6000fd5b50505050600091505b8551821015611b5f576001805483908110611adf57fe5b6000918252602090912001548651600160a060020a039091169150611b3b90879084908110611b0a57fe5b6020908102909101810151600160a060020a0384166000908152600d9092526040909120549063ffffffff61274716565b600160a060020a0382166000908152600d6020526040902055600190910190611ac8565b50505050505050565b6000547501000000000000000000000000000000000000000000900460ff1681565b6000611b946112f8565b1515611bd8576040805160e560020a62461bcd02815260206004820181905260248201526000805160206137d6833981519152604482015290519081900360640190fd5b611be1846125d5565b9283555060019091015550565b600a54600160a060020a031690565b600060085460001415611c1557506305f5e100610b54565b600854611c20611cff565b811515611c2957fe5b04905090565b600160a060020a031660009081526002602052604090205490565b600080600a60009054906101000a9004600160a060020a0316600160a060020a03166373a3d4246040518163ffffffff1660e060020a028152600401602060405180830381600087803b158015611ca057600080fd5b505af1158015611cb4573d6000803e3d6000fd5b505050506040513d6020811015611cca57600080fd5b50519050611cd781612ce6565b91505b5090565b6000806000611cec846125d5565b8054600190910154909590945092505050565b60015460009081908180805b83831015611dfd576001805484908110611d2157fe5b60009182526020808320909101546009546040805160e060020a6341976e09028152600160a060020a0393841660048201819052915191975091909216936341976e099360248084019491939192918390030190829087803b158015611d8657600080fd5b505af1158015611d9a573d6000803e3d6000fd5b505050506040513d6020811015611db057600080fd5b5051600160a060020a0383166000908152600d6020526040902054909150611df090611de390839063ffffffff61265416565b869063ffffffff61274716565b9450600190920191611d0b565b5092949350505050565b600160a060020a03918216600090815260076020908152604080832093909416825291909152205490565b600f6020526000908152604090205481565b6003805482908110611e5257fe5b60009182526020909120600290910201805460019091015490915082565b611e786112f8565b1515611ebc576040805160e560020a62461bcd02815260206004820181905260248201526000805160206137d6833981519152604482015290519081900360640190fd5b610dc8600182612d15565b611ecf6112f8565b1515611f13576040805160e560020a62461bcd02815260206004820181905260248201526000805160206137d6833981519152604482015290519081900360640190fd5b600b91909155600c55565b60608060606000600180549050604051908082528060200260200182016040528015611f54578160200160208202803883390190505b509150600090505b600154811015611fbe5760026000600183815481101515611f7957fe5b6000918252602080832090910154600160a060020a031683528201929092526040019020548251839083908110611fac57fe5b60209081029091010152600101611f5c565b6001828180548060200260200160405190810160405280929190818152602001828054801561201657602002820191906000526020600020905b8154600160a060020a03168152600190910190602001808311611ff8575b505050505091509350935050509091565b61202f6112f8565b1515612073576040805160e560020a62461bcd02815260206004820181905260248201526000805160206137d6833981519152604482015290519081900360640190fd5b610dc881612dbb565b6120846112f8565b15156120c8576040805160e560020a62461bcd02815260206004820181905260248201526000805160206137d6833981519152604482015290519081900360640190fd5b6000805491151575010000000000000000000000000000000000000000000275ff00000000000000000000000000000000000000000019909216919091179055565b610dc8600180548060200260200160405190810160405280929190818152602001828054801561216357602002820191906000526020600020905b8154600160a060020a03168152600190910190602001808311612145575b505050505082612eb4565b600160a060020a03831615156121f3576040805160e560020a62461bcd028152602060048201526024808201527f45524332303a20617070726f76652066726f6d20746865207a65726f2061646460448201527f7265737300000000000000000000000000000000000000000000000000000000606482015290519081900360840190fd5b600160a060020a0382161515612279576040805160e560020a62461bcd02815260206004820152602260248201527f45524332303a20617070726f766520746f20746865207a65726f20616464726560448201527f7373000000000000000000000000000000000000000000000000000000000000606482015290519081900360840190fd5b600160a060020a03808416600081815260076020908152604080832094871680845294825291829020859055815185815291517f8c5be1e5ebec7d5bd14f71427d1e84f3dd0314c0f7b2291e5b200ac8c7c3b9259281900390910190a3505050565b8154600090815b8181101561232a5783600160a060020a0316858281548110151561230257fe5b600091825260209091200154600160a060020a031614156123225761232a565b6001016122e2565b818110156123bd57600019820181146123a357846001830381548110151561234e57fe5b6000918252602090912001548554600160a060020a039091169086908390811061237457fe5b9060005260206000200160006101000a815481600160a060020a030219169083600160a060020a031602179055505b84546123b3866000198301613792565b5060019250610e0f565b506000949350505050565b600160a060020a038316151561244e576040805160e560020a62461bcd02815260206004820152602560248201527f45524332303a207472616e736665722066726f6d20746865207a65726f20616460448201527f6472657373000000000000000000000000000000000000000000000000000000606482015290519081900360840190fd5b600160a060020a03821615156124d4576040805160e560020a62461bcd02815260206004820152602360248201527f45524332303a207472616e7366657220746f20746865207a65726f206164647260448201527f6573730000000000000000000000000000000000000000000000000000000000606482015290519081900360840190fd5b6124de8382612f14565b6124e88282612fe3565b81600160a060020a031683600160a060020a03167fddf252ad1be2c89b69c2b068fc378daa952ba7f163c4a11628f55a4df523b3ef836040518082815260200191505060405180910390a3505050565b60008082858511156125cb5760405160e560020a62461bcd0281526004018080602001828103825283818151815260200191508051906020019080838360005b83811015612590578181015183820152602001612578565b50505050905090810190601f1680156125bd5780820380516001836020036101000a031916815260200191505b509250505060405180910390fd5b5050509103919050565b6003546000908210612631576040805160e560020a62461bcd02815260206004820152601260248201527f66656520747970652069732076616c6964210000000000000000000000000000604482015290519081900360640190fd5b600380548390811061263f57fe5b90600052602060002090600202019050919050565b60008083151561266757600091506126f7565b5082820282848281151561267757fe5b04146126f3576040805160e560020a62461bcd02815260206004820152602160248201527f536166654d6174683a206d756c7469706c69636174696f6e206f766572666c6f60448201527f7700000000000000000000000000000000000000000000000000000000000000606482015290519081900360840190fd5b8091505b5092915050565b600061274083836040805190810160405280601a81526020017f536166654d6174683a206469766973696f6e206279207a65726f000000000000815250613092565b9392505050565b6000828201838110156126f3576040805160e560020a62461bcd02815260206004820152601b60248201527f536166654d6174683a206164646974696f6e206f766572666c6f770000000000604482015290519081900360640190fd5b60008060006127b285611274565b1515612808576040805160e560020a62461bcd02815260206004820152601f60248201527f736574746c656d656e7420697320756e737570706f7274656420746f6b656e00604482015290519081900360640190fd5b60009150600160a060020a0385161515612824573491506128cf565b60008411156128cf5750604080517f23b872dd0000000000000000000000000000000000000000000000000000000081523360048201523060248201526044810185905290518591600160a060020a038316916323b872dd916064808201926020929091908290030181600087803b15801561289f57600080fd5b505af11580156128b3573d6000803e3d6000fd5b505050506040513d60208110156128c957600080fd5b50849250505b509392505050565b600160a060020a038216600090815260026020526040902054612900908263ffffffff61274716565b600160a060020a038316600081815260026020908152604091829020939093558051848152905191927f1104eee7f034069140a0655d153038cedf9e65e5724018c555a8d56cfb6bee7792918290030190a25050565b600061274083836040805190810160405280601e81526020017f536166654d6174683a207375627472616374696f6e206f766572666c6f770000815250612538565b600160a060020a03821615156129f8576040805160e560020a62461bcd02815260206004820152601f60248201527f45524332303a206d696e7420746f20746865207a65726f206164647265737300604482015290519081900360640190fd5b600854612a0b908263ffffffff61274716565b600855612a188282612fe3565b604080518281529051600160a060020a038416916000917fddf252ad1be2c89b69c2b068fc378daa952ba7f163c4a11628f55a4df523b3ef9181900360200190a35050565b8151600090815b818110156123bd5783600160a060020a03168582815181101515612a8457fe5b90602001906020020151600160a060020a03161415612aa65760019250610e0f565b600101612a64565b33600090815260066020908152604080832054600f9092528220548291606091839182918291612af491612ae8908d63ffffffff61265416565b9063ffffffff6126fe16565b336000908152600f6020526040902054909650612b17908763ffffffff61295616565b336000818152600f6020526040902091909155612b34908b6130fe565b600154604080518281526020808402820101909152909550858015612b63578160200160208202803883390190505b509350612b71888a896131e9565b6001805460408051602080840282018101909252828152949c50929650612bd79392830182828015612bcc57602002820191906000526020600020905b8154600160a060020a03168152600190910190602001808311612bae575b50505050508a613390565b9150828483815181101515612be857fe5b602090810290910101525060005b600088118015612c0557508481105b15612c6557612c3888600183815481101515612c1d57fe5b600091825260209091200154600160a060020a0316896131e9565b855191995093508390859083908110612c4d57fe5b60209081029091010180519091019052600101612bf6565b6000881115612c7c57612c798886866133e5565b93505b5060005b84811015612cda57612cd233600183815481101515612c9b57fe5b6000918252602090912001548651600160a060020a0390911690879085908110612cc157fe5b906020019060200201516004613608565b600101612c80565b50505050505050505050565b600b546000908190612cfe908463ffffffff61265416565b600c5490915061274090829063ffffffff6126fe16565b612d7882805480602002602001604051908101604052809291908181526020018280548015612d6d57602002820191906000526020600020905b8154600160a060020a03168152600190910190602001808311612d4f575b505050505082612a5d565b1515612db757815460018101835560008381526020902001805473ffffffffffffffffffffffffffffffffffffffff1916600160a060020a0383161790555b5050565b600160a060020a0381161515612e41576040805160e560020a62461bcd02815260206004820152602660248201527f4f776e61626c653a206e6577206f776e657220697320746865207a65726f206160448201527f6464726573730000000000000000000000000000000000000000000000000000606482015290519081900360840190fd5b60008054604051600160a060020a038085169361010090930416917f8be0079c531659141344cd1fd0a4f28419497f9722a3daafe3b4186f6b6457e091a360008054600160a060020a039092166101000274ffffffffffffffffffffffffffffffffffffffff0019909216919091179055565b612ebe8282612a5d565b1515612db7576040805160e560020a62461bcd02815260206004820181905260248201527f77686974654c6973743a207573696e6720696e76616c69642061646472657373604482015290519081900360640190fd5b600160a060020a0382161515612f9a576040805160e560020a62461bcd02815260206004820152602360248201527f45524332303a207472616e7366657220746f20746865207a65726f206164647260448201527f6573730000000000000000000000000000000000000000000000000000000000606482015290519081900360840190fd5b600160a060020a038216600090815260066020526040902054612fc3908263ffffffff61295616565b600160a060020a0390921660009081526006602052604090209190915550565b600160a060020a0382161515613069576040805160e560020a62461bcd02815260206004820152602360248201527f45524332303a207472616e7366657220746f20746865207a65726f206164647260448201527f6573730000000000000000000000000000000000000000000000000000000000606482015290519081900360840190fd5b600160a060020a038216600090815260066020526040902054612fc3908263ffffffff61274716565b600080828185116130e85760405160e560020a62461bcd02815260040180806020018281038252838181518152602001915080519060200190808383600083811015612590578181015183820152602001612578565b5083858115156130f457fe5b0495945050505050565b600160a060020a0382161515613184576040805160e560020a62461bcd02815260206004820152602160248201527f45524332303a206275726e2066726f6d20746865207a65726f2061646472657360448201527f7300000000000000000000000000000000000000000000000000000000000000606482015290519081900360840190fd5b61318e8282612f14565b6008546131a1908263ffffffff61295616565b600855604080518281529051600091600160a060020a038516917fddf252ad1be2c89b69c2b068fc378daa952ba7f163c4a11628f55a4df523b3ef9181900360200190a35050565b336000908152601060209081526040808320600160a060020a03861684529091528120548190818080808415156132265789965060009550613383565b613236888663ffffffff61265416565b600160a060020a038a166000908152600d6020908152604080832054600e9092529091205491955061327291612ae8908863ffffffff61265416565b945084841015613280578394505b8415156132935789965060009550613383565b6009546040805160e060020a6341976e09028152600160a060020a038c81166004830152915191909216916341976e099160248083019260209291908290030181600087803b1580156132e557600080fd5b505af11580156132f9573d6000803e3d6000fd5b505050506040513d602081101561330f57600080fd5b505192506133238a8463ffffffff6126fe16565b91508115156133385760009650869550613383565b8482116133455781613347565b845b90508482111561337b57613371613364828563ffffffff61265416565b8b9063ffffffff61295616565b8196509650613383565b600096509450845b5050505050935093915050565b8151600090815b818110156133dd5783600160a060020a031685828151811015156133b757fe5b90602001906020020151600160a060020a031614156133d5576133dd565b600101613397565b949350505050565b60606000606060008060008094508760405190808252806020026020018201604052801561341d578160200160208202803883390190505b509350600092505b8783101561356957600180548490811061343b57fe5b6000918252602090912001548751600160a060020a0390911692506134979088908590811061346657fe5b6020908102909101810151600160a060020a0385166000908152600d9092526040909120549063ffffffff61295616565b84848151811015156134a557fe5b60209081029091018101919091526009546040805160e060020a6341976e09028152600160a060020a038681166004830152915191909216926341976e0992602480820193918290030181600087803b15801561350157600080fd5b505af1158015613515573d6000803e3d6000fd5b505050506040513d602081101561352b57600080fd5b5051845190915061355d90611de39086908690811061354657fe5b60209081029091010151839063ffffffff61265416565b50600190920191613425565b841515613575576135fc565b600092505b878310156135f8576135d56135b186612ae88c888881518110151561359b57fe5b602090810290910101519063ffffffff61265416565b88858151811015156135bf57fe5b602090810290910101519063ffffffff61274716565b87848151811015156135e357fe5b6020908102909101015260019092019161357a565b8695505b50505050509392505050565b600082151561361657613646565b6136208284610dd0565b905061363c8585613637868563ffffffff61295616565b61364d565b61364684826128d7565b5050505050565b600081151561365b5761170f565b600160a060020a03831615156136a757604051600160a060020a0385169083156108fc029084906000818181858888f193505050501580156136a1573d6000803e3d6000fd5b50613741565b50604080517fa9059cbb000000000000000000000000000000000000000000000000000000008152600160a060020a038581166004830152602482018490529151849283169163a9059cbb9160448083019260209291908290030181600087803b15801561371457600080fd5b505af1158015613728573d6000803e3d6000fd5b505050506040513d602081101561373e57600080fd5b50505b82600160a060020a031684600160a060020a03167f8aaaec2388cc390cde69685f78340e15f36d424b6b6b595f549dd883931f9c9b846040518082815260200191505060405180910390a350505050565b8154818355818111156137b6576000838152602090206137b69181019083016137bb565b505050565b610b5491905b80821115611cda57600081556001016137c156004f776e61626c653a2063616c6c6572206973206e6f7420746865206f776e6572a165627a7a7230582055a1e20acd08b0f9f5ced2179400eba657cd933c9d5543b1c77d4ae7883d345a0029",
  "source": "pragma solidity ^0.4.26;\r\nimport \"./modules/SafeMath.sol\";\r\nimport \"./modules/ReentrancyGuard.sol\";\r\nimport \"./SharedCoin.sol\";\r\nimport \"./modules/underlyingAssets.sol\";\r\nimport \"./modules/TransactionFee.sol\";\r\nimport \"./interfaces/IOptionsPool.sol\";\r\nimport \"./interfaces/ICompoundOracle.sol\";\r\ncontract CollateralPool is ReentrancyGuard,TransactionFee,SharedCoin,ImportOracle,ImportOptionsPool {\r\n    using SafeMath for uint256;\r\n    fraction public collateralRate = fraction(3, 1);\r\n    //token net worth\r\n    mapping (address => uint256) public netWorthBalances;\r\n    //address collaterel\r\n    mapping (address => uint256) public collateralBalances;\r\n    //user paying for collateral usd;\r\n    mapping (address => uint256) public userCollateralPaying;\r\n    //account -> collateral -> amount\r\n    mapping (address => mapping (address => uint256)) public userInputCollateral;\r\n\r\n    event AddCollateral(address indexed from,address indexed collateral,uint256 amount,uint256 tokenAmount);\r\n    event RedeemCollateral(address indexed from,uint256 tokenAmount);\r\n\r\n    event DebugEvent(uint256 indexed value1,uint256 indexed value2,uint256 indexed value3);\r\n\r\n    function setCollateralRate(uint256 numerator,uint256 denominator) public onlyOwner {\r\n        collateralRate.numerator = numerator;\r\n        collateralRate.denominator = denominator;\r\n    }\r\n    function getCollateralRate()public view returns (uint256,uint256) {\r\n        return (collateralRate.numerator,collateralRate.denominator);\r\n    }\r\n    function getUserPayingUsd(address user)public view returns (uint256){\r\n        return userCollateralPaying[user];\r\n    }\r\n    function userInputCollateral(address user,address collateral)public view returns (uint256){\r\n        return userInputCollateral[user][collateral];\r\n    }\r\n    function setPhaseSharedPayment(uint256 index) public onlyOwner {\r\n        (uint256[] memory sharedBalances,uint256 firstOption,uint256 blockNumber) = _optionsPool.calculatePhaseSharedPayment(index,whiteList);\r\n        setSharedPayment(index,sharedBalances,firstOption,blockNumber,now);\r\n    }\r\n    function setSharedPayment(uint256 index,uint256[] sharedBalances,uint256 firstOption,uint256 lastBlock,uint256 calTime) public onlyOwner{\r\n        _optionsPool.setSharedState(index,firstOption,lastBlock,calTime);\r\n        for (uint i=0;i<sharedBalances.length;i++){\r\n            address addr = whiteList[i];\r\n            netWorthBalances[addr] = netWorthBalances[addr].add(sharedBalances[i]);\r\n        }\r\n    }\r\n    function getTokenNetworth() public view returns (uint256){\r\n        if (_totalSupply == 0){\r\n            return 1e8;\r\n        }\r\n        return getTotalCollateral()/_totalSupply;\r\n    }\r\n    function addCollateral(address collateral,uint256 amount)public payable {\r\n        amount = getPayableAmount(collateral,amount);\r\n        require(amount>0 , \"settlement amount is zero!\");\r\n        uint256 fee = calculateFee(addColFee,amount);\r\n        _addTransactionFee(collateral,fee);\r\n        amount = amount.sub(fee);\r\n        uint256 price = _oracle.getPrice(collateral);\r\n        uint256 userPaying = price.mul(amount);\r\n        uint256 mintAmount = userPaying.div(getTokenNetworth());\r\n        userCollateralPaying[msg.sender] = userCollateralPaying[msg.sender].add(userPaying);\r\n        collateralBalances[collateral] = collateralBalances[collateral].add(amount);\r\n        userInputCollateral[msg.sender][collateral] = userInputCollateral[msg.sender][collateral].add(amount);\r\n        netWorthBalances[collateral] = netWorthBalances[collateral].add(amount);\r\n        emit AddCollateral(msg.sender,collateral,amount,mintAmount);\r\n        _mint(msg.sender,mintAmount);\r\n    }\r\n    //calculate token\r\n    function redeemCollateral(uint256 tokenAmount,address collateral)public {\r\n        require(isEligibleAddress(collateral) , \"settlement is unsupported token\");\r\n        require(balances[msg.sender]>=tokenAmount,\"SCoin balance is insufficient!\");\r\n        if (tokenAmount == 0){\r\n            return;\r\n        }\r\n        uint256 totalOccupied = _optionsPool.getTotalOccupiedCollateral();\r\n        uint256 totalWorth = getTotalCollateral();\r\n        uint256 tokenNetWorth = totalWorth.div(_totalSupply);\r\n        uint256 redeemWorth = tokenAmount.mul(tokenNetWorth);\r\n        if (totalOccupied.add(redeemWorth)<=totalWorth) {\r\n            _redeemCollateral(tokenAmount,collateral,redeemWorth,tokenNetWorth);\r\n            emit RedeemCollateral(msg.sender,tokenAmount);\r\n        }\r\n    }\r\n    function _redeemCollateral(uint256 tokenAmount,address collateral,uint256 redeemWorth,uint256 tokenNetWorth) internal {\r\n        uint256 redeemPaying = userCollateralPaying[msg.sender].mul(tokenAmount).div(balances[msg.sender]);\r\n        userCollateralPaying[msg.sender] = userCollateralPaying[msg.sender].sub(redeemPaying);\r\n        _burn(msg.sender, tokenAmount);\r\n        uint whiteLen = whiteList.length;\r\n        uint256[] memory paybackcal = new uint256[](whiteLen);\r\n        uint256 payBack;\r\n        (redeemWorth,payBack) = _calPayBackCollateral(redeemWorth,collateral,tokenNetWorth);\r\n        uint256 index = whiteListAddress._getEligibleIndexAddress(whiteList,collateral);\r\n        paybackcal[index] = payBack;\r\n        for (uint256 i=0;redeemWorth>0 && i<whiteLen;i++){\r\n            (redeemWorth,payBack) = _calPayBackCollateral(redeemWorth,whiteList[i],tokenNetWorth);  \r\n            paybackcal[i] += payBack;\r\n        } \r\n        if (redeemWorth > 0){\r\n            paybackcal = _calPremiumPayback(redeemWorth,whiteLen,paybackcal);\r\n        }\r\n        for (i=0;i<whiteLen;i++){\r\n            _transferPaybackAndFee(msg.sender,whiteList[i],paybackcal[i],redeemColFee);\r\n        } \r\n    }\r\n    function _calPremiumPayback(uint256 worth,uint256 whiteLen,uint256[] memory paybackcal)internal view returns(uint256[] memory){\r\n        uint256 totalPrice = 0;\r\n        uint256[] memory PremiumBalances = new uint256[](whiteLen);\r\n        for (uint256 i=0; i<whiteLen;i++){\r\n            address addr = whiteList[i];\r\n            PremiumBalances[i] = netWorthBalances[addr].sub(paybackcal[i]);\r\n            uint256 price = _oracle.getPrice(addr);\r\n            totalPrice.add(price.mul(PremiumBalances[i]));\r\n        } \r\n                \r\n        if (totalPrice == 0){\r\n            return;\r\n        }\r\n        for (i=0;i<whiteLen;i++){\r\n            paybackcal[i] = paybackcal[i].add(PremiumBalances[i].mul(worth).div(totalPrice));\r\n        } \r\n        return paybackcal;\r\n    }\r\n    function _calPayBackCollateral(uint256 worth,address collateral,uint256 tokenNetWorth)internal view returns (uint256,uint256){\r\n        uint256 amount = userInputCollateral[msg.sender][collateral];\r\n        if (amount == 0){\r\n            return (worth,0);\r\n        }\r\n        uint netAmount = tokenNetWorth.mul(amount);\r\n        amount = collateralBalances[collateral].mul(amount).div(netWorthBalances[collateral]);\r\n        if (netAmount<amount){\r\n            amount = netAmount;\r\n        }\r\n        if (amount == 0){\r\n            return (worth,0);\r\n        }\r\n        uint256 price = _oracle.getPrice(collateral);\r\n        uint256 redeemAmount = worth.div(price);\r\n        if (redeemAmount == 0){\r\n            return (0,0);\r\n        }\r\n        uint256 transferAmount = (redeemAmount>amount) ? amount : redeemAmount;\r\n        if (redeemAmount>amount){\r\n            return (worth.sub(transferAmount.mul(price)),transferAmount);\r\n        }\r\n        return (0,transferAmount);\r\n    }\r\n    function getOccupiedCollateral() public view returns(uint256){\r\n        uint256 totalOccupied = _optionsPool.getTotalOccupiedCollateral();\r\n        return calculateCollateral(totalOccupied);\r\n    }\r\n    function getLeftCollateral()public view returns(uint256){\r\n        return getTotalCollateral() - getOccupiedCollateral();\r\n    }\r\n    function getTotalCollateral()public view returns(uint256){\r\n        uint256 totalNum = 0;\r\n        uint whiteListLen = whiteList.length;\r\n        for (uint256 i=0;i<whiteListLen;i++){\r\n            address addr = whiteList[i];\r\n            uint256 price = _oracle.getPrice(addr);\r\n            totalNum = totalNum.add(price.mul(netWorthBalances[addr]));\r\n        }\r\n        return totalNum;  \r\n    }\r\n\r\n    function _paybackWorth(uint256 worth,uint256 feeType) internal {\r\n        uint256 totalPrice = 0;\r\n        uint whiteLen = whiteList.length;\r\n        uint256[] memory balances = new uint256[](whiteLen);\r\n        for (uint256 i=0;i<whiteLen;i++){\r\n            address addr = whiteList[i];\r\n            uint256 price = _oracle.getPrice(addr);\r\n            balances[i] = netWorthBalances[addr];\r\n            totalPrice.add(price.mul(balances[i]));\r\n        }\r\n        if (totalPrice == 0){\r\n            return;\r\n        }\r\n        for (i=0;i<whiteLen;i++){\r\n            uint256 _payBack = balances[i].mul(worth).div(totalPrice);\r\n            netWorthBalances[addr] = balances[i].sub(_payBack);\r\n            _transferPaybackAndFee(msg.sender,addr,_payBack,feeType);\r\n        } \r\n    }\r\n    function getPayableAmount(address settlement,uint256 settlementAmount) internal returns (uint256) {\r\n        require(isEligibleAddress(settlement) , \"settlement is unsupported token\");\r\n        uint256 colAmount = 0;\r\n        if (settlement == address(0)){\r\n            colAmount = msg.value;\r\n        }else if (settlementAmount > 0){\r\n            IERC20 oToken = IERC20(settlement);\r\n            oToken.transferFrom(msg.sender, address(this), settlementAmount);\r\n            colAmount = settlementAmount;\r\n        }\r\n        return colAmount;\r\n    }\r\n    function calculateCollateral(uint256 amount)internal view returns (uint256){\r\n        uint256 result = collateralRate.numerator.mul(amount);\r\n        return result.div(collateralRate.denominator);\r\n    }\r\n\r\n}",
  "sourcePath": "C:\\work\\solidity\\FinnexusOptions_V2\\contracts\\CollateralPool.sol",
  "compiler": {
    "name": "solc",
    "version": "0.4.26+commit.4563c3fc.Emscripten.clang"
  },
  "schemaVersion": "3.1.0",
  "updatedAt": "2020-07-21T15:28:11.772Z",
  "devdoc": {
    "methods": {
      "addWhiteList(address)": {
        "details": "Implementation of add an eligible address into the whitelist.\r",
        "params": {
          "addAddress": "new eligible address.\r"
        }
      },
      "allowance(address,address)": {
        "details": "See {IERC20-allowance}.\r"
      },
      "approve(address,uint256)": {
        "details": "See {IERC20-approve}.\r      * Requirements:\r      * - `spender` cannot be the zero address.\r"
      },
      "balanceOf(address)": {
        "details": "See {IERC20-balanceOf}.\r"
      },
      "decreaseAllowance(address,uint256)": {
        "details": "Atomically decreases the allowance granted to `spender` by the caller.\r      * This is an alternative to {approve} that can be used as a mitigation for\r problems described in {IERC20-approve}.\r      * Emits an {Approval} event indicating the updated allowance.\r      * Requirements:\r      * - `spender` cannot be the zero address.\r - `spender` must have allowance for the caller of at least\r `subtractedValue`.\r"
      },
      "getWhiteList()": {
        "details": "Implementation of getting the eligible whitelist.\r"
      },
      "increaseAllowance(address,uint256)": {
        "details": "Atomically increases the allowance granted to `spender` by the caller.\r      * This is an alternative to {approve} that can be used as a mitigation for\r problems described in {IERC20-approve}.\r      * Emits an {Approval} event indicating the updated allowance.\r      * Requirements:\r      * - `spender` cannot be the zero address.\r"
      },
      "isEligibleAddress(address)": {
        "details": "Implementation of testing whether the input address is eligible.\r",
        "params": {
          "tmpAddress": "input address for testing.\r"
        }
      },
      "isOwner()": {
        "details": "Returns true if the caller is the current owner."
      },
      "owner()": {
        "details": "Returns the address of the current owner."
      },
      "removeWhiteList(address)": {
        "details": "Implementation of revoke an invalid address from the whitelist.\r",
        "params": {
          "removeAddress": "revoked address.\r"
        }
      },
      "renounceOwnership()": {
        "details": "Leaves the contract without owner. It will not be possible to call `onlyOwner` functions anymore. Can only be called by the current owner.     * NOTE: Renouncing ownership will leave the contract without an owner, thereby removing any functionality that is only available to the owner."
      },
      "setTransactionFee(uint256,uint256,uint256)": {
        "details": "set the rate of trasaction fee.\r",
        "params": {
          "denominator": "thedenominator of transaction fee.\r transaction fee = numerator/denominator;\r",
          "feeType": "the transaction fee type\r",
          "numerator": "the numerator of transaction fee .\r"
        }
      },
      "totalSupply()": {
        "details": "See {IERC20-totalSupply}.\r"
      },
      "transfer(address,uint256)": {
        "details": "See {IERC20-transfer}.\r      * Requirements:\r      * - `recipient` cannot be the zero address.\r - the caller must have a balance of at least `amount`.\r"
      },
      "transferFrom(address,address,uint256)": {
        "details": "See {IERC20-transferFrom}.\r      * Emits an {Approval} event indicating the updated allowance. This is not\r required by the EIP. See the note at the beginning of {ERC20};\r      * Requirements:\r - `sender` and `recipient` cannot be the zero address.\r - `sender` must have a balance of at least `amount`.\r - the caller must have allowance for `sender`'s tokens of at least\r `amount`.\r"
      },
      "transferOwnership(address)": {
        "details": "Transfers ownership of the contract to a new account (`newOwner`). Can only be called by the current owner."
      }
    }
  },
  "userdoc": {
    "methods": {
      "setHalt(bool)": {
        "notice": "function Emergency situation that requires contribution period to stop or not."
      }
    }
  }
}