{
  "contractName": "CollateralCal",
  "abi": [
    {
      "constant": true,
      "inputs": [
        {
          "name": "tmpAddress",
          "type": "address"
        }
      ],
      "name": "checkAddressRedeemOut",
      "outputs": [
        {
          "name": "",
          "type": "bool"
        }
      ],
      "payable": false,
      "stateMutability": "view",
      "type": "function"
    },
    {
      "constant": true,
      "inputs": [],
      "name": "getWhiteList",
      "outputs": [
        {
          "name": "",
          "type": "address[]"
        }
      ],
      "payable": false,
      "stateMutability": "view",
      "type": "function"
    },
    {
      "constant": false,
      "inputs": [
        {
          "name": "collateralPool",
          "type": "address"
        }
      ],
      "name": "setCollateralPoolAddress",
      "outputs": [],
      "payable": false,
      "stateMutability": "nonpayable",
      "type": "function"
    },
    {
      "constant": false,
      "inputs": [
        {
          "name": "optionsPool",
          "type": "address"
        }
      ],
      "name": "setOptionsPoolAddress",
      "outputs": [],
      "payable": false,
      "stateMutability": "nonpayable",
      "type": "function"
    },
    {
      "constant": false,
      "inputs": [
        {
          "name": "removeAddress",
          "type": "address"
        }
      ],
      "name": "removeWhiteList",
      "outputs": [
        {
          "name": "",
          "type": "bool"
        }
      ],
      "payable": false,
      "stateMutability": "nonpayable",
      "type": "function"
    },
    {
      "constant": true,
      "inputs": [],
      "name": "getCollateralPoolAddress",
      "outputs": [
        {
          "name": "",
          "type": "address"
        }
      ],
      "payable": false,
      "stateMutability": "view",
      "type": "function"
    },
    {
      "constant": false,
      "inputs": [],
      "name": "redeemAll",
      "outputs": [],
      "payable": false,
      "stateMutability": "nonpayable",
      "type": "function"
    },
    {
      "constant": true,
      "inputs": [
        {
          "name": "feeType",
          "type": "uint256"
        },
        {
          "name": "amount",
          "type": "uint256"
        }
      ],
      "name": "calculateFee",
      "outputs": [
        {
          "name": "",
          "type": "uint256"
        }
      ],
      "payable": false,
      "stateMutability": "view",
      "type": "function"
    },
    {
      "constant": false,
      "inputs": [
        {
          "name": "oracle",
          "type": "address"
        }
      ],
      "name": "setOracleAddress",
      "outputs": [],
      "payable": false,
      "stateMutability": "nonpayable",
      "type": "function"
    },
    {
      "constant": false,
      "inputs": [],
      "name": "renounceOwnership",
      "outputs": [],
      "payable": false,
      "stateMutability": "nonpayable",
      "type": "function"
    },
    {
      "constant": true,
      "inputs": [
        {
          "name": "tmpAddress",
          "type": "address"
        }
      ],
      "name": "isEligibleAddress",
      "outputs": [
        {
          "name": "",
          "type": "bool"
        }
      ],
      "payable": false,
      "stateMutability": "view",
      "type": "function"
    },
    {
      "constant": true,
      "inputs": [],
      "name": "owner",
      "outputs": [
        {
          "name": "",
          "type": "address"
        }
      ],
      "payable": false,
      "stateMutability": "view",
      "type": "function"
    },
    {
      "constant": true,
      "inputs": [],
      "name": "isOwner",
      "outputs": [
        {
          "name": "",
          "type": "bool"
        }
      ],
      "payable": false,
      "stateMutability": "view",
      "type": "function"
    },
    {
      "constant": false,
      "inputs": [
        {
          "name": "currency",
          "type": "address"
        }
      ],
      "name": "redeem",
      "outputs": [],
      "payable": false,
      "stateMutability": "nonpayable",
      "type": "function"
    },
    {
      "constant": false,
      "inputs": [
        {
          "name": "addAddress",
          "type": "address"
        }
      ],
      "name": "addOperator",
      "outputs": [],
      "payable": false,
      "stateMutability": "nonpayable",
      "type": "function"
    },
    {
      "constant": false,
      "inputs": [
        {
          "name": "removeAddress",
          "type": "address"
        }
      ],
      "name": "removeOperator",
      "outputs": [
        {
          "name": "",
          "type": "bool"
        }
      ],
      "payable": false,
      "stateMutability": "nonpayable",
      "type": "function"
    },
    {
      "constant": true,
      "inputs": [],
      "name": "getOracleAddress",
      "outputs": [
        {
          "name": "",
          "type": "address"
        }
      ],
      "payable": false,
      "stateMutability": "view",
      "type": "function"
    },
    {
      "constant": true,
      "inputs": [
        {
          "name": "tmpAddress",
          "type": "address"
        }
      ],
      "name": "checkAddressPayIn",
      "outputs": [
        {
          "name": "",
          "type": "bool"
        }
      ],
      "payable": false,
      "stateMutability": "view",
      "type": "function"
    },
    {
      "constant": false,
      "inputs": [
        {
          "name": "feeType",
          "type": "uint256"
        },
        {
          "name": "numerator",
          "type": "uint256"
        },
        {
          "name": "denominator",
          "type": "uint256"
        }
      ],
      "name": "setTransactionFee",
      "outputs": [],
      "payable": false,
      "stateMutability": "nonpayable",
      "type": "function"
    },
    {
      "constant": true,
      "inputs": [],
      "name": "getOptionsPoolAddress",
      "outputs": [
        {
          "name": "",
          "type": "address"
        }
      ],
      "payable": false,
      "stateMutability": "view",
      "type": "function"
    },
    {
      "constant": false,
      "inputs": [
        {
          "name": "addAddress",
          "type": "address"
        },
        {
          "name": "permission",
          "type": "uint256"
        }
      ],
      "name": "modifyPermission",
      "outputs": [],
      "payable": false,
      "stateMutability": "nonpayable",
      "type": "function"
    },
    {
      "constant": true,
      "inputs": [
        {
          "name": "settlement",
          "type": "address"
        }
      ],
      "name": "getFeeBalance",
      "outputs": [
        {
          "name": "",
          "type": "uint256"
        }
      ],
      "payable": false,
      "stateMutability": "view",
      "type": "function"
    },
    {
      "constant": true,
      "inputs": [
        {
          "name": "feeType",
          "type": "uint256"
        }
      ],
      "name": "getFeeRate",
      "outputs": [
        {
          "name": "",
          "type": "uint256"
        },
        {
          "name": "",
          "type": "uint256"
        }
      ],
      "payable": false,
      "stateMutability": "view",
      "type": "function"
    },
    {
      "constant": true,
      "inputs": [],
      "name": "getFPTCoinAddress",
      "outputs": [
        {
          "name": "",
          "type": "address"
        }
      ],
      "payable": false,
      "stateMutability": "view",
      "type": "function"
    },
    {
      "constant": false,
      "inputs": [
        {
          "name": "FPTCoinAddr",
          "type": "address"
        }
      ],
      "name": "setFPTCoinAddress",
      "outputs": [],
      "payable": false,
      "stateMutability": "nonpayable",
      "type": "function"
    },
    {
      "constant": false,
      "inputs": [
        {
          "name": "index",
          "type": "uint256"
        },
        {
          "name": "addAddress",
          "type": "address"
        }
      ],
      "name": "setOperator",
      "outputs": [],
      "payable": false,
      "stateMutability": "nonpayable",
      "type": "function"
    },
    {
      "constant": false,
      "inputs": [
        {
          "name": "addAddress",
          "type": "address"
        }
      ],
      "name": "addWhiteList",
      "outputs": [],
      "payable": false,
      "stateMutability": "nonpayable",
      "type": "function"
    },
    {
      "constant": true,
      "inputs": [],
      "name": "getOperator",
      "outputs": [
        {
          "name": "",
          "type": "address[]"
        }
      ],
      "payable": false,
      "stateMutability": "view",
      "type": "function"
    },
    {
      "constant": true,
      "inputs": [],
      "name": "getAllFeeBalances",
      "outputs": [
        {
          "name": "",
          "type": "address[]"
        },
        {
          "name": "",
          "type": "uint256[]"
        }
      ],
      "payable": false,
      "stateMutability": "view",
      "type": "function"
    },
    {
      "constant": false,
      "inputs": [
        {
          "name": "newOwner",
          "type": "address"
        }
      ],
      "name": "transferOwnership",
      "outputs": [],
      "payable": false,
      "stateMutability": "nonpayable",
      "type": "function"
    },
    {
      "constant": false,
      "inputs": [
        {
          "name": "halt",
          "type": "bool"
        }
      ],
      "name": "setHalt",
      "outputs": [],
      "payable": false,
      "stateMutability": "nonpayable",
      "type": "function"
    },
    {
      "anonymous": false,
      "inputs": [
        {
          "indexed": true,
          "name": "from",
          "type": "address"
        },
        {
          "indexed": true,
          "name": "collateral",
          "type": "address"
        },
        {
          "indexed": false,
          "name": "amount",
          "type": "uint256"
        },
        {
          "indexed": false,
          "name": "tokenAmount",
          "type": "uint256"
        }
      ],
      "name": "AddCollateral",
      "type": "event"
    },
    {
      "anonymous": false,
      "inputs": [
        {
          "indexed": true,
          "name": "from",
          "type": "address"
        },
        {
          "indexed": false,
          "name": "collateral",
          "type": "address"
        },
        {
          "indexed": false,
          "name": "allRedeem",
          "type": "uint256"
        }
      ],
      "name": "RedeemCollateral",
      "type": "event"
    },
    {
      "anonymous": false,
      "inputs": [
        {
          "indexed": true,
          "name": "value1",
          "type": "uint256"
        },
        {
          "indexed": true,
          "name": "value2",
          "type": "uint256"
        },
        {
          "indexed": true,
          "name": "value3",
          "type": "uint256"
        }
      ],
      "name": "DebugEvent",
      "type": "event"
    },
    {
      "anonymous": false,
      "inputs": [
        {
          "indexed": false,
          "name": "value1",
          "type": "int256"
        },
        {
          "indexed": false,
          "name": "value2",
          "type": "int256"
        },
        {
          "indexed": false,
          "name": "value3",
          "type": "int256"
        }
      ],
      "name": "DebugEventInt",
      "type": "event"
    },
    {
      "anonymous": false,
      "inputs": [
        {
          "indexed": true,
          "name": "recieptor",
          "type": "address"
        },
        {
          "indexed": true,
          "name": "settlement",
          "type": "address"
        },
        {
          "indexed": false,
          "name": "payback",
          "type": "uint256"
        }
      ],
      "name": "FeePayback",
      "type": "event"
    },
    {
      "anonymous": false,
      "inputs": [
        {
          "indexed": true,
          "name": "settlement",
          "type": "address"
        },
        {
          "indexed": false,
          "name": "payback",
          "type": "uint256"
        }
      ],
      "name": "AddFee",
      "type": "event"
    },
    {
      "anonymous": false,
      "inputs": [
        {
          "indexed": true,
          "name": "recieptor",
          "type": "address"
        },
        {
          "indexed": true,
          "name": "settlement",
          "type": "address"
        },
        {
          "indexed": false,
          "name": "payback",
          "type": "uint256"
        }
      ],
      "name": "TransferPayback",
      "type": "event"
    },
    {
      "anonymous": false,
      "inputs": [
        {
          "indexed": true,
          "name": "previousOwner",
          "type": "address"
        },
        {
          "indexed": true,
          "name": "newOwner",
          "type": "address"
        }
      ],
      "name": "OwnershipTransferred",
      "type": "event"
    },
    {
      "constant": true,
      "inputs": [],
      "name": "getInputAmountRange",
      "outputs": [
        {
          "name": "",
          "type": "uint256"
        },
        {
          "name": "",
          "type": "uint256"
        }
      ],
      "payable": false,
      "stateMutability": "view",
      "type": "function"
    },
    {
      "constant": false,
      "inputs": [
        {
          "name": "_minAmount",
          "type": "uint256"
        },
        {
          "name": "_maxAmount",
          "type": "uint256"
        }
      ],
      "name": "setInputAmountRange",
      "outputs": [],
      "payable": false,
      "stateMutability": "nonpayable",
      "type": "function"
    },
    {
      "constant": false,
      "inputs": [
        {
          "name": "settlement",
          "type": "address"
        },
        {
          "name": "amount",
          "type": "uint256"
        }
      ],
      "name": "addNetBalance",
      "outputs": [],
      "payable": true,
      "stateMutability": "payable",
      "type": "function"
    },
    {
      "constant": false,
      "inputs": [
        {
          "name": "_timeLimited",
          "type": "uint256"
        }
      ],
      "name": "setCollateralTimeLimited",
      "outputs": [],
      "payable": false,
      "stateMutability": "nonpayable",
      "type": "function"
    },
    {
      "constant": false,
      "inputs": [
        {
          "name": "numerator",
          "type": "uint256"
        },
        {
          "name": "denominator",
          "type": "uint256"
        }
      ],
      "name": "setCollateralRate",
      "outputs": [],
      "payable": false,
      "stateMutability": "nonpayable",
      "type": "function"
    },
    {
      "constant": true,
      "inputs": [],
      "name": "getCollateralRate",
      "outputs": [
        {
          "name": "",
          "type": "uint256"
        },
        {
          "name": "",
          "type": "uint256"
        }
      ],
      "payable": false,
      "stateMutability": "view",
      "type": "function"
    },
    {
      "constant": true,
      "inputs": [
        {
          "name": "user",
          "type": "address"
        }
      ],
      "name": "getUserPayingUsd",
      "outputs": [
        {
          "name": "",
          "type": "uint256"
        }
      ],
      "payable": false,
      "stateMutability": "view",
      "type": "function"
    },
    {
      "constant": true,
      "inputs": [
        {
          "name": "user",
          "type": "address"
        },
        {
          "name": "collateral",
          "type": "address"
        }
      ],
      "name": "userInputCollateral",
      "outputs": [
        {
          "name": "",
          "type": "uint256"
        }
      ],
      "payable": false,
      "stateMutability": "view",
      "type": "function"
    },
    {
      "constant": false,
      "inputs": [],
      "name": "calSharedPayment",
      "outputs": [],
      "payable": false,
      "stateMutability": "nonpayable",
      "type": "function"
    },
    {
      "constant": false,
      "inputs": [
        {
          "name": "newNetworth",
          "type": "int256[]"
        },
        {
          "name": "sharedBalances",
          "type": "int256[]"
        },
        {
          "name": "firstOption",
          "type": "uint256"
        }
      ],
      "name": "setSharedPayment",
      "outputs": [],
      "payable": false,
      "stateMutability": "nonpayable",
      "type": "function"
    },
    {
      "constant": true,
      "inputs": [
        {
          "name": "account",
          "type": "address"
        }
      ],
      "name": "getUserTotalWorth",
      "outputs": [
        {
          "name": "",
          "type": "uint256"
        }
      ],
      "payable": false,
      "stateMutability": "view",
      "type": "function"
    },
    {
      "constant": true,
      "inputs": [],
      "name": "getTokenNetworth",
      "outputs": [
        {
          "name": "",
          "type": "uint256"
        }
      ],
      "payable": false,
      "stateMutability": "view",
      "type": "function"
    },
    {
      "constant": false,
      "inputs": [
        {
          "name": "collateral",
          "type": "address"
        },
        {
          "name": "amount",
          "type": "uint256"
        }
      ],
      "name": "addCollateral",
      "outputs": [],
      "payable": true,
      "stateMutability": "payable",
      "type": "function"
    },
    {
      "constant": false,
      "inputs": [
        {
          "name": "tokenAmount",
          "type": "uint256"
        },
        {
          "name": "collateral",
          "type": "address"
        }
      ],
      "name": "redeemCollateral",
      "outputs": [],
      "payable": false,
      "stateMutability": "nonpayable",
      "type": "function"
    },
    {
      "constant": true,
      "inputs": [
        {
          "name": "account",
          "type": "address"
        }
      ],
      "name": "calCollateralWorth",
      "outputs": [
        {
          "name": "",
          "type": "uint256[]"
        }
      ],
      "payable": false,
      "stateMutability": "view",
      "type": "function"
    },
    {
      "constant": true,
      "inputs": [],
      "name": "getOccupiedCollateral",
      "outputs": [
        {
          "name": "",
          "type": "uint256"
        }
      ],
      "payable": false,
      "stateMutability": "view",
      "type": "function"
    },
    {
      "constant": true,
      "inputs": [],
      "name": "getAvailableCollateral",
      "outputs": [
        {
          "name": "",
          "type": "uint256"
        }
      ],
      "payable": false,
      "stateMutability": "view",
      "type": "function"
    },
    {
      "constant": true,
      "inputs": [],
      "name": "getLeftCollateral",
      "outputs": [
        {
          "name": "",
          "type": "uint256"
        }
      ],
      "payable": false,
      "stateMutability": "view",
      "type": "function"
    },
    {
      "constant": true,
      "inputs": [],
      "name": "getUnlockedCollateral",
      "outputs": [
        {
          "name": "",
          "type": "uint256"
        }
      ],
      "payable": false,
      "stateMutability": "view",
      "type": "function"
    },
    {
      "constant": true,
      "inputs": [
        {
          "name": "strikePrice",
          "type": "uint256"
        },
        {
          "name": "underlyingPrice",
          "type": "uint256"
        },
        {
          "name": "amount",
          "type": "uint256"
        },
        {
          "name": "optType",
          "type": "uint8"
        }
      ],
      "name": "calOptionsOccupied",
      "outputs": [
        {
          "name": "",
          "type": "uint256"
        }
      ],
      "payable": false,
      "stateMutability": "view",
      "type": "function"
    },
    {
      "constant": true,
      "inputs": [],
      "name": "getTotalCollateral",
      "outputs": [
        {
          "name": "",
          "type": "uint256"
        }
      ],
      "payable": false,
      "stateMutability": "view",
      "type": "function"
    },
    {
      "constant": true,
      "inputs": [
        {
          "name": "settlement",
          "type": "address"
        }
      ],
      "name": "getRealBalance",
      "outputs": [
        {
          "name": "",
          "type": "int256"
        }
      ],
      "payable": false,
      "stateMutability": "view",
      "type": "function"
    },
    {
      "constant": true,
      "inputs": [
        {
          "name": "settlement",
          "type": "address"
        }
      ],
      "name": "getNetWorthBalance",
      "outputs": [
        {
          "name": "",
          "type": "uint256"
        }
      ],
      "payable": false,
      "stateMutability": "view",
      "type": "function"
    }
  ],
  "bytecode": "0x6000805460c0604081905260056080819052600160a0819052600a91909155600b55610e10600d556c0c9f2c9cd04674edea40000000600e55633b9aca00600f55600160b060020a031990911661010033810291909117808455600160a060020a039190041691907f8be0079c531659141344cd1fd0a4f28419497f9722a3daafe3b4186f6b6457e0908290a360408051808201825260008082526103e860208084018281526004805460018181018355828752965160029182027f8a35acfbc15ff81a39ae7d344fd709f28e8600b4aa8c65c6b64bfe7fe36bd19b8181019290925593517f8a35acfbc15ff81a39ae7d344fd709f28e8600b4aa8c65c6b64bfe7fe36bd19c948501558851808a018a52603281528086018781528454808b018655858a5291519184028084019290925551908501558851808a018a528781528086018781528454808b018655858a5291519184028084019290925551908501558851808a018a528781528086018781528454808b018655858a5291519184028084019290925551908501558851808a01909952868952938801948552815496870182559452945193909202918201929092559051910155614826806101c66000396000f30060806040526004361061026e5763ffffffff60e060020a600035041663059621d7811461027357806309a9d76c146102a85780630aaf38321461030d5780630c80d691146103345780631730b3cb146103555780631a5a3fce146103785780632042e5c214610399578063251e2fe3146103ba5780632f4350c2146103eb57806332c82a5f1461040057806334e731221461042457806342049a721461043f578063447dbeac146104605780634c69c00f146104815780636b6ecea8146104a25780636d75b9ee146104c3578063715018a6146104da578063817bf86d146104ef578063852185fc146105105780638691a8c51461053e5780638da5cb5b146105555780638f32d59b1461056a57806395a2251f1461057f5780639870d7fe146105a05780639ab91a35146105c1578063a20a8045146105dc578063a37c4fcf14610600578063a56ea40314610690578063a8cbcb01146106b1578063ac8a584a146106c9578063b18b78dd146106ea578063b4d5a9c7146106ff578063bc2c300214610726578063bc9abed21461073b578063bdac4bf614610750578063bf36b11014610771578063c040725a1461078f578063c219043b146107a4578063c5e5a3ed146107c8578063c78f6803146107dd578063cd405819146107fe578063d2aaef4e14610813578063d6eb59101461082b578063d7e5799214610840578063dab5512914610855578063e28a327d1461086a578063e7122ffd1461087f578063e7a1c1c0146108a0578063e7cd4a04146108c4578063e7f43c68146108e5578063ef63e1f7146108fa578063f20568cd14610915578063f2fde38b146109c3578063f4954387146109e4575b600080fd5b34801561027f57600080fd5b50610294600160a060020a03600435166109fe565b604080519115158252519081900360200190f35b3480156102b457600080fd5b506102bd610a36565b60408051602080825283518183015283519192839290830191858101910280838360005b838110156102f95781810151838201526020016102e1565b505050509050019250505060405180910390f35b34801561031957600080fd5b50610322610a99565b60408051918252519081900360200190f35b34801561034057600080fd5b50610322600160a060020a0360043516610ab8565b34801561036157600080fd5b50610376600160a060020a0360043516610c03565b005b34801561038457600080fd5b50610376600160a060020a0360043516610c7e565b3480156103a557600080fd5b50610294600160a060020a0360043516610cf9565b3480156103c657600080fd5b506103cf610d52565b60408051600160a060020a039092168252519081900360200190f35b3480156103f757600080fd5b50610376610d61565b34801561040c57600080fd5b5061032260043560243560443560ff60643516610df4565b34801561043057600080fd5b50610322600435602435610e26565b34801561044b57600080fd5b50610322600160a060020a0360043516610e66565b34801561046c57600080fd5b50610322600160a060020a0360043516610f03565b34801561048d57600080fd5b50610376600160a060020a0360043516611053565b3480156104ae57600080fd5b50610322600160a060020a03600435166110ce565b610376600160a060020a036004351660243561122c565b3480156104e657600080fd5b5061037661170e565b3480156104fb57600080fd5b50610294600160a060020a03600435166117b6565b34801561051c57600080fd5b5061052561181c565b6040805192835260208301919091528051918290030190f35b610376600160a060020a0360043516602435611826565b34801561056157600080fd5b506103cf611970565b34801561057657600080fd5b50610294611984565b34801561058b57600080fd5b50610376600160a060020a036004351661199a565b3480156105ac57600080fd5b50610376600160a060020a0360043516611b8a565b3480156105cd57600080fd5b50610376600435602435611be1565b3480156105e857600080fd5b50610376600435600160a060020a0360243516611c38565b34801561060c57600080fd5b506040805160206004803580820135838102808601850190965280855261037695369593946024949385019291829185019084908082843750506040805187358901803560208181028481018201909552818452989b9a99890198929750908201955093508392508501908490808284375094975050933594506121089350505050565b34801561069c57600080fd5b506102bd600160a060020a03600435166123e0565b3480156106bd57600080fd5b506103766004356124a6565b3480156106d557600080fd5b50610294600160a060020a03600435166124f7565b3480156106f657600080fd5b506103cf612550565b34801561070b57600080fd5b50610322600160a060020a036004358116906024351661255f565b34801561073257600080fd5b50610376612605565b34801561074757600080fd5b50610525612d54565b34801561075c57600080fd5b50610294600160a060020a0360043516612d5e565b34801561077d57600080fd5b50610376600435602435604435612d92565b34801561079b57600080fd5b506103cf612df6565b3480156107b057600080fd5b50610376600160a060020a0360043516602435612e05565b3480156107d457600080fd5b50610322612e6d565b3480156107e957600080fd5b50610322600160a060020a0360043516612f34565b34801561080a57600080fd5b50610322612f4f565b34801561081f57600080fd5b50610525600435612fe3565b34801561083757600080fd5b50610322613004565b34801561084c57600080fd5b506103cf61312c565b34801561086157600080fd5b5061032261313b565b34801561087657600080fd5b506103226131cc565b34801561088b57600080fd5b50610376600160a060020a03600435166131d9565b3480156108ac57600080fd5b50610376600435600160a060020a0360243516613254565b3480156108d057600080fd5b50610376600160a060020a03600435166132e2565b3480156108f157600080fd5b506102bd613359565b34801561090657600080fd5b506103766004356024356133b9565b34801561092157600080fd5b5061092a613410565b604051808060200180602001838103835285818151815260200191508051906020019060200280838360005b8381101561096e578181015183820152602001610956565b50505050905001838103825284818151815260200191508051906020019060200280838360005b838110156109ad578181015183820152602001610995565b5050505090500194505050505060405180910390f35b3480156109cf57600080fd5b50610376600160a060020a0360043516613519565b3480156109f057600080fd5b50610376600435151561356e565b6000610a09826117b6565b8015610a305750600160a060020a0382166000908152600260208190526040909120548116145b92915050565b60606001805480602002602001604051908101604052809291908181526020018280548015610a8e57602002820191906000526020600020905b8154600160a060020a03168152600190910190602001808311610a70575b505050505090505b90565b6000610ab3610aa6613004565b610aae612f4f565b6135fc565b905090565b600854604080517f6b6ecea8000000000000000000000000000000000000000000000000000000008152600160a060020a038481166004830152915160009384938493911691636b6ecea89160248082019260209290919082900301818787803b158015610b2557600080fd5b505af1158015610b39573d6000803e3d6000fd5b505050506040513d6020811015610b4f57600080fd5b5051600754604080517f7e1bcb76000000000000000000000000000000000000000000000000000000008152600160a060020a0388811660048301529151939550911691637e1bcb76916024808201926020929091908290030181600087803b158015610bbb57600080fd5b505af1158015610bcf573d6000803e3d6000fd5b505050506040513d6020811015610be557600080fd5b50519050610bf9828263ffffffff61361716565b92505b5050919050565b610c0b611984565b1515610c4f576040805160e560020a62461bcd02815260206004820181905260248201526000805160206147db833981519152604482015290519081900360640190fd5b6008805473ffffffffffffffffffffffffffffffffffffffff1916600160a060020a0392909216919091179055565b610c86611984565b1515610cca576040805160e560020a62461bcd02815260206004820181905260248201526000805160206147db833981519152604482015290519081900360640190fd5b6007805473ffffffffffffffffffffffffffffffffffffffff1916600160a060020a0392909216919091179055565b6000610d03611984565b1515610d47576040805160e560020a62461bcd02815260206004820181905260248201526000805160206147db833981519152604482015290519081900360640190fd5b610a30600183613659565b600854600160a060020a031690565b6000610d6b611984565b1515610daf576040805160e560020a62461bcd02815260206004820181905260248201526000805160206147db833981519152604482015290519081900360640190fd5b5060005b600154811015610df157610de9600182815481101515610dcf57fe5b600091825260209091200154600160a060020a031661199a565b600101610db3565b50565b60008060ff8316158587111415610e0e5750848302610e13565b508383025b610e1c81613746565b9695505050505050565b6000806000610e3485613776565b8054909250610e49908563ffffffff6137f516565b9050816001015481811515610e5a57fe5b0492505b505092915050565b600854604080517f42049a72000000000000000000000000000000000000000000000000000000008152600160a060020a038481166004830152915160009392909216916342049a729160248082019260209290919082900301818787803b158015610ed157600080fd5b505af1158015610ee5573d6000803e3d6000fd5b505050506040513d6020811015610efb57600080fd5b505192915050565b600554604080517f07e77aa0000000000000000000000000000000000000000000000000000000008152600160a060020a0384811660048301529151600093610a309316916307e77aa091602480830192602092919082900301818887803b158015610f6e57600080fd5b505af1158015610f82573d6000803e3d6000fd5b505050506040513d6020811015610f9857600080fd5b5051600554604080517f70a08231000000000000000000000000000000000000000000000000000000008152600160a060020a03878116600483015291516110479392909216916370a08231916024808201926020929091908290030181600087803b15801561100757600080fd5b505af115801561101b573d6000803e3d6000fd5b505050506040513d602081101561103157600080fd5b505161103b612e6d565b9063ffffffff6137f516565b9063ffffffff61389f16565b61105b611984565b151561109f576040805160e560020a62461bcd02815260206004820181905260248201526000805160206147db833981519152604482015290519081900360640190fd5b6006805473ffffffffffffffffffffffffffffffffffffffff1916600160a060020a0392909216919091179055565b600854604080517f6b6ecea8000000000000000000000000000000000000000000000000000000008152600160a060020a038481166004830152915160009384938493911691636b6ecea89160248082019260209290919082900301818787803b15801561113b57600080fd5b505af115801561114f573d6000803e3d6000fd5b505050506040513d602081101561116557600080fd5b5051600754604080517f7e1bcb76000000000000000000000000000000000000000000000000000000008152600160a060020a0388811660048301529151939550911691637e1bcb76916024808201926020929091908290030181600087803b1580156111d157600080fd5b505af11580156111e5573d6000803e3d6000fd5b505050506040513d60208110156111fb57600080fd5b5051905061120f828263ffffffff61361716565b9150600082131561122257819250610bfc565b5060009392505050565b6000805481908190819060ff161561124357600080fd5b6000805460ff1916600117908190557501000000000000000000000000000000000000000000900460ff16156112c3576040805160e560020a62461bcd02815260206004820152601760248201527f5468697320636f6e74726163742069732068616c746564000000000000000000604482015290519081900360640190fd5b6112cd86866138fc565b945060008511611327576040805160e560020a62461bcd02815260206004820152601a60248201527f736574746c656d656e7420616d6f756e74206973207a65726f21000000000000604482015290519081900360640190fd5b611332600386610e26565b935061133e8685613b0e565b600654604080517f41976e09000000000000000000000000000000000000000000000000000000008152600160a060020a0389811660048301529151978790039791909216916341976e099160248083019260209291908290030181600087803b1580156113ab57600080fd5b505af11580156113bf573d6000803e3d6000fd5b505050506040513d60208110156113d557600080fd5b505192506113e9838663ffffffff6137f516565b91506113f3612e6d565b828115156113fd57fe5b600854604080517f692a76a7000000000000000000000000000000000000000000000000000000008152336004820152602481018790529051939092049350600160a060020a03169163692a76a79160448082019260009290919082900301818387803b15801561146d57600080fd5b505af1158015611481573d6000803e3d6000fd5b5050600854604080517f2b2d50c3000000000000000000000000000000000000000000000000000000008152600160a060020a038b81166004830152602482018b90529151919092169350632b2d50c39250604480830192600092919082900301818387803b1580156114f357600080fd5b505af1158015611507573d6000803e3d6000fd5b5050600854604080517fd56dbe88000000000000000000000000000000000000000000000000000000008152336004820152600160a060020a038b81166024830152604482018b9052915191909216935063d56dbe889250606480830192600092919082900301818387803b15801561157f57600080fd5b505af1158015611593573d6000803e3d6000fd5b5050600854604080517ffee80a49000000000000000000000000000000000000000000000000000000008152600160a060020a038b81166004830152602482018b9052915191909216935063fee80a499250604480830192600092919082900301818387803b15801561160557600080fd5b505af1158015611619573d6000803e3d6000fd5b5050336000818152600c602090815260409182902042905581518a81529081018690528151600160a060020a038c1695509293507f33a089d94f9a0b7d0fe21e69b40d7dbe1965be652c7382cc778d46963db8c49b929081900390910190a3600554604080517f40c10f19000000000000000000000000000000000000000000000000000000008152336004820152602481018490529051600160a060020a03909216916340c10f199160448082019260009290919082900301818387803b1580156116e457600080fd5b505af11580156116f8573d6000803e3d6000fd5b50506000805460ff191690555050505050505050565b611716611984565b151561175a576040805160e560020a62461bcd02815260206004820181905260248201526000805160206147db833981519152604482015290519081900360640190fd5b60008054604051610100909104600160a060020a0316907f8be0079c531659141344cd1fd0a4f28419497f9722a3daafe3b4186f6b6457e0908390a36000805474ffffffffffffffffffffffffffffffffffffffff0019169055565b6000610a30600180548060200260200160405190810160405280929190818152602001828054801561181157602002820191906000526020600020905b8154600160a060020a031681526001909101906020018083116117f3575b505050505083613b6f565b600a54600b549091565b6009546001908110801561185d5750600980543391908390811061184657fe5b600091825260209091200154600160a060020a0316145b15156118d9576040805160e560020a62461bcd02815260206004820152603060248201527f4d616e6167657261626c653a2063616c6c6572206973206e6f7420746865206560448201527f6c696769626c65204f70657261746f7200000000000000000000000000000000606482015290519081900360840190fd5b6118e383836138fc565b600854604080517ffee80a49000000000000000000000000000000000000000000000000000000008152600160a060020a03878116600483015260248201859052915193955091169163fee80a499160448082019260009290919082900301818387803b15801561195357600080fd5b505af1158015611967573d6000803e3d6000fd5b50505050505050565b6000546101009004600160a060020a031690565b6000546101009004600160a060020a0316331490565b6000806119a5611984565b15156119e9576040805160e560020a62461bcd02815260206004820181905260248201526000805160206147db833981519152604482015290519081900360640190fd5b600160a060020a03831660009081526003602052604081205492508211611a5a576040805160e560020a62461bcd02815260206004820152601260248201527f4974277320656d7074792062616c616e63650000000000000000000000000000604482015290519081900360640190fd5b600160a060020a0383166000818152600360205260408120551515611aac57604051339083156108fc029084906000818181858888f19350505050158015611aa6573d6000803e3d6000fd5b50611b45565b50604080517fa9059cbb0000000000000000000000000000000000000000000000000000000081523360048201526024810183905290518391600160a060020a0383169163a9059cbb916044808201926020929091908290030181600087803b158015611b1857600080fd5b505af1158015611b2c573d6000803e3d6000fd5b505050506040513d6020811015611b4257600080fd5b50505b604080518381529051600160a060020a0385169133917f747147be90b2a81a2e929994a92cd7bb71396bdbfd02f181867c81187d4f79449181900360200190a3505050565b611b92611984565b1515611bd6576040805160e560020a62461bcd02815260206004820181905260248201526000805160206147db833981519152604482015290519081900360640190fd5b610df1600982613bc0565b611be9611984565b1515611c2d576040805160e560020a62461bcd02815260206004820181905260248201526000805160206147db833981519152604482015290519081900360640190fd5b600f91909155600e55565b6000805481908190819081908190819060ff1615611c5557600080fd5b6000805460ff1916600117908190557501000000000000000000000000000000000000000000900460ff1615611cd5576040805160e560020a62461bcd02815260206004820152601760248201527f5468697320636f6e74726163742069732068616c746564000000000000000000604482015290519081900360640190fd5b611cde89613c67565b611ce7886109fe565b1515611d3d576040805160e560020a62461bcd02815260206004820152601f60248201527f736574746c656d656e7420697320756e737570706f7274656420746f6b656e00604482015290519081900360640190fd5b600d54336000908152600c602052604090205442910110611dce576040805160e560020a62461bcd02815260206004820152602960248201527f636f6c6c61746572616c206c6f636b206c696d69746174696f6e206973206e6f60448201527f7420657870697265640000000000000000000000000000000000000000000000606482015290519081900360840190fd5b600554604080517f593557360000000000000000000000000000000000000000000000000000000081523360048201529051600160a060020a03909216916359355736916024808201926020929091908290030181600087803b158015611e3457600080fd5b505af1158015611e48573d6000803e3d6000fd5b505050506040513d6020811015611e5e57600080fd5b5051600554604080517f70a0823100000000000000000000000000000000000000000000000000000000815233600482015290519299508b928a92600160a060020a0316916370a082319160248083019260209291908290030181600087803b158015611eca57600080fd5b505af1158015611ede573d6000803e3d6000fd5b505050506040513d6020811015611ef457600080fd5b5051011015611f4d576040805160e560020a62461bcd02815260206004820152601e60248201527f53436f696e2062616c616e636520697320696e73756666696369656e74210000604482015290519081900360640190fd5b611f5633610f03565b9550611f60610a99565b600554604080517f35f0c4fa000000000000000000000000000000000000000000000000000000008152336004820152602481018d9052604481018490528151939850600160a060020a03909216926335f0c4fa9260648082019392918290030181600087803b158015611fd357600080fd5b505af1158015611fe7573d6000803e3d6000fd5b505050506040513d6040811015611ffd57600080fd5b5080516020909101519903986000945092508389111561205a578285039450600087111561203a57868911612033576000612037565b8689035b98505b6120448986613cf7565b91509150600082111561205a5781935080830192505b612065888488613de1565b60008411156120f357600554604080517f9dc29fac000000000000000000000000000000000000000000000000000000008152336004820152602481018790529051600160a060020a0390921691639dc29fac9160448082019260009290919082900301818387803b1580156120da57600080fd5b505af11580156120ee573d6000803e3d6000fd5b505050505b50506000805460ff1916905550505050505050565b6009546000908110801561213f5750600980543391908390811061212857fe5b600091825260209091200154600160a060020a0316145b15156121bb576040805160e560020a62461bcd02815260206004820152603060248201527f4d616e6167657261626c653a2063616c6c6572206973206e6f7420746865206560448201527f6c696769626c65204f70657261746f7200000000000000000000000000000000606482015290519081900360840190fd5b6007546040517f2415e01000000000000000000000000000000000000000000000000000000000815260048101848152606060248301908152865160648401528651600160a060020a0390941693632415e0109387938993600193919290916044820191608401906020808801910280838360005b83811015612248578181015183820152602001612230565b50505050905001838103825284818154815260200191508054801561229657602002820191906000526020600020905b8154600160a060020a03168152600190910190602001808311612278575b505095505050505050600060405180830381600087803b1580156122b957600080fd5b505af11580156122cd573d6000803e3d6000fd5b5050600854604080517f1f88286a000000000000000000000000000000000000000000000000000000008152600481019182526001805460448301819052600160a060020a039094169550631f88286a94509289929182916024820191606401908690801561236557602002820191906000526020600020905b8154600160a060020a03168152600190910190602001808311612347575b50508381038252845181528451602091820191808701910280838360005b8381101561239b578181015183820152602001612383565b50505050905001945050505050600060405180830381600087803b1580156123c257600080fd5b505af11580156123d6573d6000803e3d6000fd5b5050505050505050565b606060006060806000806123f387610f03565b9450612424876001600081548110151561240957fe5b600091825260209091200154600160a060020a031687613ff1565b5060015491955093509150600090505b8181101561249b5761247b838281518110151561244d57fe5b90602001906020020151858381518110151561246557fe5b602090810290910101519063ffffffff61389f16565b848281518110151561248957fe5b60209081029091010152600101612434565b509195945050505050565b6124ae611984565b15156124f2576040805160e560020a62461bcd02815260206004820181905260248201526000805160206147db833981519152604482015290519081900360640190fd5b600d55565b6000612501611984565b1515612545576040805160e560020a62461bcd02815260206004820181905260248201526000805160206147db833981519152604482015290519081900360640190fd5b610a30600983613659565b600654600160a060020a031690565b600854604080517f6ba170b5000000000000000000000000000000000000000000000000000000008152600160a060020a038581166004830152848116602483015291516000939290921691636ba170b59160448082019260209290919082900301818787803b1580156125d257600080fd5b505af11580156125e6573d6000803e3d6000fd5b505050506040513d60208110156125fc57600080fd5b50909392505050565b606060006060600060606000806060806000808060098054905011801561264f5750600980543391908390811061263857fe5b600091825260209091200154600160a060020a0316145b15156126cb576040805160e560020a62461bcd02815260206004820152603060248201527f4d616e6167657261626c653a2063616c6c6572206973206e6f7420746865206560448201527f6c696769626c65204f70657261746f7200000000000000000000000000000000606482015290519081900360840190fd5b600180548060200260200160405190810160405280929190818152602001828054801561272157602002820191906000526020600020905b8154600160a060020a03168152600190910190602001808311612703575b50505050509a50600760009054906101000a9004600160a060020a0316600160a060020a0316636a43c05e8c6040518263ffffffff1660e060020a0281526004018080602001828103825283818151815260200191508051906020019060200280838360005b8381101561279f578181015183820152602001612787565b5050505090500192505050600060405180830381600087803b1580156127c457600080fd5b505af11580156127d8573d6000803e3d6000fd5b505050506040513d6000823e601f3d908101601f19168201604090815281101561280157600080fd5b81516020830180519193928301929164010000000081111561282257600080fd5b8201602081018481111561283557600080fd5b815185602082028301116401000000008211171561285257600080fd5b505092919050505099509950600760009054906101000a9004600160a060020a0316600160a060020a031663bec3107f6040518163ffffffff1660e060020a028152600401602060405180830381600087803b1580156128b157600080fd5b505af11580156128c5573d6000803e3d6000fd5b505050506040513d60208110156128db57600080fd5b81019080805190602001909291905050509750600760009054906101000a9004600160a060020a0316600160a060020a03166332ab5c20898c8b8f6040518563ffffffff1660e060020a0281526004018085815260200184815260200183815260200180602001828103825283818151815260200191508051906020019060200280838360005b8381101561297a578181015183820152602001612962565b5050505090500195505050505050600060405180830381600087803b1580156129a257600080fd5b505af11580156129b6573d6000803e3d6000fd5b505050506040513d6000823e601f3d908101601f1916820160405260608110156129df57600080fd5b8101908080516401000000008111156129f757600080fd5b82016020810184811115612a0a57600080fd5b8151856020820283011164010000000082111715612a2757600080fd5b50506020820151604090920151909a5090985096505085159050612d4757600760009054906101000a9004600160a060020a0316600160a060020a031663c0c5fea78b888e6040518463ffffffff1660e060020a0281526004018084815260200183815260200180602001828103825283818151815260200191508051906020019060200280838360005b83811015612aca578181015183820152602001612ab2565b50505050905001945050505050600060405180830381600087803b158015612af157600080fd5b505af1158015612b05573d6000803e3d6000fd5b505050506040513d6000823e601f3d908101601f191682016040526020811015612b2e57600080fd5b810190808051640100000000811115612b4657600080fd5b82016020810184811115612b5957600080fd5b8151856020820283011164010000000082111715612b7657600080fd5b50509291905050509350600760009054906101000a9004600160a060020a0316600160a060020a03166343674c3a89888b8f6040518563ffffffff1660e060020a0281526004018085815260200184815260200183815260200180602001828103825283818151815260200191508051906020019060200280838360005b83811015612c0c578181015183820152602001612bf4565b5050505090500195505050505050600060405180830381600087803b158015612c3457600080fd5b505af1158015612c48573d6000803e3d6000fd5b505050506040513d6000823e601f3d908101601f191682016040526020811015612c7157600080fd5b810190808051640100000000811115612c8957600080fd5b82016020810184811115612c9c57600080fd5b8151856020820283011164010000000082111715612cb957600080fd5b5090965060009550505050505b8251821015612d3c578282815181101515612cdd57fe5b906020019060200201518983815181101515612cf557fe5b906020019060200201518884815181101515612d0d57fe5b9060200190602002015103018383815181101515612d2757fe5b60209081029091010152600190910190612cc6565b612d47848488612108565b5050505050505050505050565b600f54600e549091565b6000612d69826117b6565b8015610a30575050600160a060020a031660009081526002602052604090205460019081161490565b6000612d9c611984565b1515612de0576040805160e560020a62461bcd02815260206004820181905260248201526000805160206147db833981519152604482015290519081900360640190fd5b612de984613776565b9283555060019091015550565b600754600160a060020a031690565b612e0d611984565b1515612e51576040805160e560020a62461bcd02815260206004820181905260248201526000805160206147db833981519152604482015290519081900360640190fd5b600160a060020a03909116600090815260026020526040902055565b6000806000600560009054906101000a9004600160a060020a0316600160a060020a03166318160ddd6040518163ffffffff1660e060020a028152600401602060405180830381600087803b158015612ec557600080fd5b505af1158015612ed9573d6000803e3d6000fd5b505050506040513d6020811015612eef57600080fd5b50519150811515612f06576305f5e1009250612f2f565b81612f0f61313b565b811515612f1857fe5b04905060648111612f2a576064612f2c565b805b92505b505090565b600160a060020a031660009081526003602052604090205490565b600080600760009054906101000a9004600160a060020a0316600160a060020a03166373a3d4246040518163ffffffff1660e060020a028152600401602060405180830381600087803b158015612fa557600080fd5b505af1158015612fb9573d6000803e3d6000fd5b505050506040513d6020811015612fcf57600080fd5b50519050612fdc81613746565b91505b5090565b6000806000612ff184613776565b8054600190910154909590945092505050565b6001546000908190818080805b8484101561310f57600180548590811061302757fe5b6000918252602080832090910154600654604080517f41976e09000000000000000000000000000000000000000000000000000000008152600160a060020a0393841660048201819052915191985091909216936341976e099360248084019491939192918390030190829087803b1580156130a257600080fd5b505af11580156130b6573d6000803e3d6000fd5b505050506040513d60208110156130cc57600080fd5b505191506130d983610ab8565b90508015613104576131016130f4838363ffffffff6143b216565b879063ffffffff61361716565b95505b600190930192613011565b600086121561311f576000613121565b855b965050505050505090565b600554600160a060020a031690565b6000610ab3613148613004565b600560009054906101000a9004600160a060020a0316600160a060020a031663dad3eb746040518163ffffffff1660e060020a028152600401602060405180830381600087803b15801561319b57600080fd5b505af11580156131af573d6000803e3d6000fd5b505050506040513d60208110156131c557600080fd5b50516135fc565b6000610ab3610aa661313b565b6131e1611984565b1515613225576040805160e560020a62461bcd02815260206004820181905260248201526000805160206147db833981519152604482015290519081900360640190fd5b6005805473ffffffffffffffffffffffffffffffffffffffff1916600160a060020a0392909216919091179055565b61325c611984565b15156132a0576040805160e560020a62461bcd02815260206004820181905260248201526000805160206147db833981519152604482015290519081900360640190fd5b806009838154811015156132b057fe5b9060005260206000200160006101000a815481600160a060020a030219169083600160a060020a031602179055505050565b6132ea611984565b151561332e576040805160e560020a62461bcd02815260206004820181905260248201526000805160206147db833981519152604482015290519081900360640190fd5b613339600182613bc0565b600160a060020a0316600090815260026020526040902063ffffffff9055565b60606009805480602002602001604051908101604052809291908181526020018280548015610a8e57602002820191906000526020600020908154600160a060020a03168152600190910190602001808311610a70575050505050905090565b6133c1611984565b1515613405576040805160e560020a62461bcd02815260206004820181905260248201526000805160206147db833981519152604482015290519081900360640190fd5b600a91909155600b55565b60608060606000600180549050604051908082528060200260200182016040528015613446578160200160208202803883390190505b509150600090505b6001548110156134b0576003600060018381548110151561346b57fe5b6000918252602080832090910154600160a060020a03168352820192909252604001902054825183908390811061349e57fe5b6020908102909101015260010161344e565b6001828180548060200260200160405190810160405280929190818152602001828054801561350857602002820191906000526020600020905b8154600160a060020a031681526001909101906020018083116134ea575b505050505091509350935050509091565b613521611984565b1515613565576040805160e560020a62461bcd02815260206004820181905260248201526000805160206147db833981519152604482015290519081900360640190fd5b610df181614451565b613576611984565b15156135ba576040805160e560020a62461bcd02815260206004820181905260248201526000805160206147db833981519152604482015290519081900360640190fd5b6000805491151575010000000000000000000000000000000000000000000275ff00000000000000000000000000000000000000000019909216919091179055565b600081831161360c576000613610565b8183035b9392505050565b600061361083836040805190810160405280601d81526020017f53616665496e743235363a206164646974696f6e206f766572666c6f7700000081525061454a565b8154600090815b818110156136a85783600160a060020a0316858281548110151561368057fe5b600091825260209091200154600160a060020a031614156136a0576136a8565b600101613660565b8181101561373b57600019820181146137215784600183038154811015156136cc57fe5b6000918252602090912001548554600160a060020a03909116908690839081106136f257fe5b9060005260206000200160006101000a815481600160a060020a030219169083600160a060020a031602179055505b8454613731866000198301614797565b5060019250610e5e565b506000949350505050565b600a54600090819061375e908463ffffffff6137f516565b600b549091508181151561376e57fe5b049392505050565b60045460009082106137d2576040805160e560020a62461bcd02815260206004820152601260248201527f66656520747970652069732076616c6964210000000000000000000000000000604482015290519081900360640190fd5b60048054839081106137e057fe5b90600052602060002090600202019050919050565b6000808315156138085760009150613898565b5082820282848281151561381857fe5b0414613894576040805160e560020a62461bcd02815260206004820152602160248201527f536166654d6174683a206d756c7469706c69636174696f6e206f766572666c6f60448201527f7700000000000000000000000000000000000000000000000000000000000000606482015290519081900360840190fd5b8091505b5092915050565b600082820183811015613894576040805160e560020a62461bcd02815260206004820152601b60248201527f536166654d6174683a206164646974696f6e206f766572666c6f770000000000604482015290519081900360640190fd5b600080600061390a85612d5e565b1515613960576040805160e560020a62461bcd02815260206004820152601f60248201527f736574746c656d656e7420697320756e737570706f7274656420746f6b656e00604482015290519081900360640190fd5b60009150600160a060020a03851615156139b757600854604051349350600160a060020a039091169083156108fc029084906000818181858888f193505050501580156139b1573d6000803e3d6000fd5b50613afd565b6000841115613afd5750604080517f23b872dd0000000000000000000000000000000000000000000000000000000081523360048201523060248201526044810185905290518591600160a060020a038316916323b872dd916064808201926020929091908290030181600087803b158015613a3257600080fd5b505af1158015613a46573d6000803e3d6000fd5b505050506040513d6020811015613a5c57600080fd5b5050600854604080517fa9059cbb000000000000000000000000000000000000000000000000000000008152600160a060020a0392831660048201526024810187905290518694509183169163a9059cbb916044808201926020929091908290030181600087803b158015613ad057600080fd5b505af1158015613ae4573d6000803e3d6000fd5b505050506040513d6020811015613afa57600080fd5b50505b613b0682613c67565b509392505050565b6000811115613b6b57600160a060020a038216600081815260036020908152604091829020805485019055815184815291517f1104eee7f034069140a0655d153038cedf9e65e5724018c555a8d56cfb6bee779281900390910190a25b5050565b8151600090815b8181101561373b5783600160a060020a03168582815181101515613b9657fe5b90602001906020020151600160a060020a03161415613bb85760019250610e5e565b600101613b76565b613c2382805480602002602001604051908101604052809291908181526020018280548015613c1857602002820191906000526020600020905b8154600160a060020a03168152600190910190602001808311613bfa575b505050505082613b6f565b1515613b6b578154600181018355600083815260209020018054600160a060020a03831673ffffffffffffffffffffffffffffffffffffffff199091161790555050565b80600e5410158015613c7b575080600f5411155b1515610df1576040805160e560020a62461bcd02815260206004820152602960248201527f696e70757420616d6f756e74206973206f7574206f6620696e70757420616d6f60448201527f756e742072616e67650000000000000000000000000000000000000000000000606482015290519081900360840190fd5b6000806000806000806000613d0a612e6d565b9450848902935087841115613dce578488811515613d2457fe5b60055491900493508584029250838a039150600160a060020a0316634b91a07b33838881811515613d5157fe5b046040518463ffffffff1660e060020a0281526004018084600160a060020a0316600160a060020a031681526020018381526020018281526020019350505050600060405180830381600087803b158015613dab57600080fd5b505af1158015613dbf573d6000803e3d6000fd5b50505050828296509650613dd5565b8884965096505b50505050509250929050565b6060808080851515613df257611967565b60408051600160a060020a038916815260208101889052815133927fc994feb9b99296d80965b47aec6be0d25704ddf95b9b9bc1ed8bc753960d5809928290030190a2613e40338887613ff1565b935093509350613e4f87614661565b6008546040517fa2fa92c70000000000000000000000000000000000000000000000000000000081523360048201818152602483018b905260c060448401908152855160c48501528551959650600160a060020a039094169463a2fa92c79492938c9388938c938c938c93916064820191608481019160a482019160e401906020808c01910280838360005b83811015613ef3578181015183820152602001613edb565b50505050905001858103845288818151815260200191508051906020019060200280838360005b83811015613f32578181015183820152602001613f1a565b50505050905001858103835287818151815260200191508051906020019060200280838360005b83811015613f71578181015183820152602001613f59565b50505050905001858103825286818151815260200191508051906020019060200280838360005b83811015613fb0578181015183820152602001613f98565b505050509050019a5050505050505050505050600060405180830381600087803b158015613fdd57600080fd5b505af1158015612d47573d6000803e3d6000fd5b60608060608060608060006060806140088b614661565b95508551604051908082528060200260200182016040528015614035578160200160208202803883390190505b5094508551604051908082528060200260200182016040528015614063578160200160208202803883390190505b509350600092505b855183101561417357614094868481518110151561408557fe5b906020019060200201516110ce565b84848151811015156140a257fe5b602090810290910101526006548651600160a060020a03909116906341976e09908890869081106140cf57fe5b906020019060200201516040518263ffffffff1660e060020a0281526004018082600160a060020a0316600160a060020a03168152602001915050602060405180830381600087803b15801561412457600080fd5b505af1158015614138573d6000803e3d6000fd5b505050506040513d602081101561414e57600080fd5b5051855186908590811061415e57fe5b6020908102909101015260019092019161406b565b600860009054906101000a9004600160a060020a0316600160a060020a0316637a6a02778d8c89888a6040518663ffffffff1660e060020a0281526004018086600160a060020a0316600160a060020a03168152602001858152602001806020018060200180602001848103845287818151815260200191508051906020019060200280838360005b838110156142145781810151838201526020016141fc565b50505050905001848103835286818151815260200191508051906020019060200280838360005b8381101561425357818101518382015260200161423b565b50505050905001848103825285818151815260200191508051906020019060200280838360005b8381101561429257818101518382015260200161427a565b5050505090500198505050505050505050600060405180830381600087803b1580156142bd57600080fd5b505af11580156142d1573d6000803e3d6000fd5b505050506040513d6000823e601f3d908101601f1916820160409081528110156142fa57600080fd5b81019080805164010000000081111561431257600080fd5b8201602081018481111561432557600080fd5b815185602082028301116401000000008211171561434257600080fd5b5050929190602001805164010000000081111561435e57600080fd5b8201602081018481111561437157600080fd5b815185602082028301116401000000008211171561438e57600080fd5b50509291905050509150915081818698509850985050505050505093509350939050565b6000808315156143c55760009150613898565b508282028284828115156143d557fe5b0514613894576040805160e560020a62461bcd02815260206004820152602160248201527f536166654d6174683a206d756c7469706c69636174696f6e206f766572666c6f60448201527f7700000000000000000000000000000000000000000000000000000000000000606482015290519081900360840190fd5b600160a060020a03811615156144d7576040805160e560020a62461bcd02815260206004820152602660248201527f4f776e61626c653a206e6577206f776e657220697320746865207a65726f206160448201527f6464726573730000000000000000000000000000000000000000000000000000606482015290519081900360840190fd5b60008054604051600160a060020a038085169361010090930416917f8be0079c531659141344cd1fd0a4f28419497f9722a3daafe3b4186f6b6457e091a360008054600160a060020a039092166101000274ffffffffffffffffffffffffffffffffffffffff0019909216919091179055565b600080808512158185121514614564578385019150613b06565b60008512614609575083830182858212156146005760405160e560020a62461bcd0281526004018080602001828103825283818151815260200191508051906020019080838360005b838110156145c55781810151838201526020016145ad565b50505050905090810190601f1680156145f25780820380516001836020036101000a031916815260200191505b509250505060405180910390fd5b50809150613b06565b5083830182858213156146005760405160e560020a62461bcd028152600401808060200182810382528381815181526020019150805190602001908083836000838110156145c55781810151838201526020016145ad565b606080600060018054806020026020016040519081016040528092919081815260200182805480156146bc57602002820191906000526020600020905b8154600160a060020a0316815260019091019060200180831161469e575b505050505091506146cd8285614742565b90508015613898578160008151811015156146e457fe5b9060200190602002015182828151811015156146fc57fe5b600160a060020a03909216602092830290910190910152815184908390600090811061472457fe5b600160a060020a039092166020928302909101909101525092915050565b8151600090815b8181101561478f5783600160a060020a0316858281518110151561476957fe5b90602001906020020151600160a060020a031614156147875761478f565b600101614749565b949350505050565b8154818355818111156147bb576000838152602090206147bb9181019083016147c0565b505050565b610a9691905b80821115612fdf57600081556001016147c656004f776e61626c653a2063616c6c6572206973206e6f7420746865206f776e6572a165627a7a72305820d648b3d06245c23dd20f412de20dc85d4950ea88061cb1ba253e1ccd08a676d40029",
  "source": "\r\npragma solidity ^0.4.26;\r\nimport \"./modules/SafeMath.sol\";\r\nimport \"./modules/SafeInt256.sol\";\r\nimport \"./modules/ReentrancyGuard.sol\";\r\nimport \"./modules/underlyingAssets.sol\";\r\nimport \"./modules/TransactionFee.sol\";\r\nimport \"./interfaces/IOptionsPool.sol\";\r\nimport \"./interfaces/IFNXOracle.sol\";\r\nimport \"./interfaces/ICollateralPool.sol\";\r\nimport \"./interfaces/IFPTCoin.sol\";\r\nimport \"./modules/Operator.sol\";\r\n\r\ncontract CollateralCal is ReentrancyGuard,TransactionFee,ImportIFPTCoin,ImportOracle,ImportOptionsPool,ImportCollateralPool,Operator {\r\n    using SafeMath for uint256;\r\n    using SafeInt256 for int256;\r\n    fraction private collateralRate = fraction(5, 1);\r\n    mapping(address=>uint256) private latestAddCollateral;\r\n    uint256 private timeLimited = 1 hours;\r\n \r\n    event AddCollateral(address indexed from,address indexed collateral,uint256 amount,uint256 tokenAmount);\r\n    event RedeemCollateral(address indexed from,address collateral,uint256 allRedeem);\r\n    event DebugEvent(uint256 indexed value1,uint256 indexed value2,uint256 indexed value3);\r\n    event DebugEventInt(int256 value1,int256 value2,int256 value3);\r\n    uint256 internal maxAmount = 1e30;\r\n    uint256 internal minAmount = 1e9;\r\n    function getInputAmountRange() public view returns(uint256,uint256) {\r\n        return (minAmount,maxAmount);\r\n    }\r\n    function setInputAmountRange(uint256 _minAmount,uint256 _maxAmount) public onlyOwner{\r\n        minAmount = _minAmount;\r\n        maxAmount = _maxAmount;\r\n    }\r\n    function checkInputAmount(uint256 Amount)internal view{\r\n        require(maxAmount>=Amount && minAmount<=Amount,\"input amount is out of input amount range\");\r\n    }\r\n    function addNetBalance(address settlement,uint256 amount) public payable onlyOperatorIndex(1) {\r\n        amount = getPayableAmount(settlement,amount);\r\n        _collateralPool.addNetWorthBalance(settlement,int256(amount));\r\n//        netWorthBalances[settlement] = netWorthBalances[settlement].add(amount);\r\n    }\r\n    function setCollateralTimeLimited(uint256 _timeLimited) public onlyOwner {\r\n        timeLimited = _timeLimited;\r\n    }\r\n    function setCollateralRate(uint256 numerator,uint256 denominator) public onlyOwner {\r\n        collateralRate.numerator = numerator;\r\n        collateralRate.denominator = denominator;\r\n    }\r\n    function getCollateralRate()public view returns (uint256,uint256) {\r\n        return (collateralRate.numerator,collateralRate.denominator);\r\n    }\r\n    function getUserPayingUsd(address user)public view returns (uint256){\r\n        return _collateralPool.getUserPayingUsd(user);\r\n        //userCollateralPaying[user];\r\n    }\r\n    function userInputCollateral(address user,address collateral)public view returns (uint256){\r\n        _collateralPool.getUserInputCollateral(user,collateral);\r\n        //return userInputCollateral[user][collateral];\r\n    }\r\n    function calSharedPayment() public onlyOperatorIndex(0) {\r\n        address[] memory tmpWhiteList = whiteList;\r\n        (uint256 firstOption,int256[] memory latestShared) = _optionsPool.getNetWrothCalInfo(tmpWhiteList);\r\n        uint256 lastOption = _optionsPool.getOptionInfoLength();\r\n        (uint256[] memory sharedBalance,uint256 newFirst,bool success) = _optionsPool.calRangeSharedPayment(lastOption,firstOption,lastOption,tmpWhiteList);\r\n        if (success){\r\n            int256[] memory newNetworth = _optionsPool.calculateExpiredPayment(firstOption,newFirst,tmpWhiteList);\r\n            int256[] memory fallBalance = _optionsPool.calculatePhaseOptionsFall(lastOption,newFirst,lastOption,tmpWhiteList);\r\n            for (uint256 i= 0;i<fallBalance.length;i++){\r\n                fallBalance[i] = int256(sharedBalance[i])-latestShared[i]+fallBalance[i];\r\n            }\r\n            setSharedPayment(newNetworth,fallBalance,newFirst);\r\n        }\r\n    }\r\n    function setSharedPayment(int256[] newNetworth,int256[] sharedBalances,uint256 firstOption) public onlyOperatorIndex(0){\r\n        _optionsPool.setSharedState(firstOption,sharedBalances,whiteList);\r\n        _collateralPool.addNetWorthBalances(whiteList,newNetworth);\r\n    }\r\n    function getUserTotalWorth(address account)public view returns (uint256){\r\n        return getTokenNetworth().mul(_FPTCoin.balanceOf(account)).add(_FPTCoin.lockedWorthOf(account));\r\n    }\r\n    function getTokenNetworth() public view returns (uint256){\r\n        uint256 _totalSupply = _FPTCoin.totalSupply();\r\n        if (_totalSupply == 0){\r\n            return 1e8;\r\n        }\r\n        uint256 netWorth = getUnlockedCollateral()/_totalSupply;\r\n        return netWorth>100 ? netWorth : 100;\r\n    }\r\n    function addCollateral(address collateral,uint256 amount) nonReentrant notHalted public payable {\r\n        amount = getPayableAmount(collateral,amount);\r\n        require(amount>0 , \"settlement amount is zero!\");\r\n        uint256 fee = calculateFee(addColFee,amount);\r\n        _addTransactionFee(collateral,fee);\r\n        amount = amount-fee;\r\n        uint256 price = _oracle.getPrice(collateral);\r\n        uint256 userPaying = price.mul(amount);\r\n        uint256 mintAmount = userPaying/getTokenNetworth();\r\n        _collateralPool.addUserPayingUsd(msg.sender,userPaying);\r\n        //userCollateralPaying[msg.sender] = userCollateralPaying[msg.sender].add(userPaying);\r\n        _collateralPool.addCollateralBalance(collateral,amount);\r\n        //collateralBalances[collateral] = collateralBalances[collateral].add(amount);\r\n        _collateralPool.addUserInputCollateral(msg.sender,collateral,amount);\r\n        //userInputCollateral[msg.sender][collateral] = userInputCollateral[msg.sender][collateral].add(amount);\r\n        _collateralPool.addNetWorthBalance(collateral,int256(amount));\r\n        //netWorthBalances[collateral] = netWorthBalances[collateral].add(amount);\r\n        latestAddCollateral[msg.sender] = now;\r\n        emit AddCollateral(msg.sender,collateral,amount,mintAmount);\r\n        _FPTCoin.mint(msg.sender,mintAmount);\r\n    }\r\n    //calculate token\r\n    function redeemCollateral(uint256 tokenAmount,address collateral) nonReentrant notHalted public {\r\n        checkInputAmount(tokenAmount);\r\n        require(checkAddressRedeemOut(collateral) , \"settlement is unsupported token\");\r\n        require(latestAddCollateral[msg.sender]+timeLimited < now , \"collateral lock limitation is not expired\");\r\n        uint256 lockedAmount = _FPTCoin.lockedBalanceOf(msg.sender);\r\n        require(_FPTCoin.balanceOf(msg.sender)+lockedAmount>=tokenAmount,\"SCoin balance is insufficient!\");\r\n        uint256 userTotalWorth = getUserTotalWorth(msg.sender);\r\n        uint256 leftColateral = getLeftCollateral();\r\n        (uint256 burnAmount,uint256 redeemWorth) = _FPTCoin.redeemLockedCollateral(msg.sender,tokenAmount,leftColateral);\r\n        tokenAmount -= burnAmount;\r\n        burnAmount = 0;\r\n        if (tokenAmount > 0){\r\n            leftColateral -= redeemWorth;\r\n            \r\n            if (lockedAmount > 0){\r\n                tokenAmount = tokenAmount > lockedAmount ? tokenAmount - lockedAmount : 0;\r\n            }\r\n            (uint256 newRedeem,uint256 newWorth) = _redeemCollateral(tokenAmount,leftColateral);\r\n            if(newRedeem>0){\r\n                burnAmount = newRedeem;\r\n                redeemWorth += newWorth;\r\n            }\r\n        }\r\n        _redeemCollateralWorth(collateral,redeemWorth,userTotalWorth);\r\n        if (burnAmount>0){\r\n            _FPTCoin.burn(msg.sender, burnAmount);\r\n        }\r\n    }\r\n    function _redeemCollateral(uint256 leftAmount,uint256 leftColateral)internal returns (uint256,uint256){\r\n        uint256 tokenNetWorth = getTokenNetworth();\r\n        uint256 leftWorth = leftAmount*tokenNetWorth;        \r\n        if (leftWorth > leftColateral){\r\n            uint256 newRedeem = leftColateral/tokenNetWorth;\r\n            uint256 newWorth = newRedeem*tokenNetWorth;\r\n            uint256 locked = leftAmount - newRedeem;\r\n            _FPTCoin.addlockBalance(msg.sender,locked,locked/tokenNetWorth);\r\n            return (newRedeem,newWorth);\r\n        }\r\n        return (leftAmount,leftWorth);\r\n    }\r\n    function getTempWhiteList(address collateral) internal view returns (address[] memory) {\r\n        address[] memory tmpWhiteList = whiteList;\r\n        uint256 index = whiteListAddress._getEligibleIndexAddress(tmpWhiteList,collateral);\r\n        if (index != 0){\r\n            tmpWhiteList[index] = tmpWhiteList[0];\r\n            tmpWhiteList[0] = collateral;\r\n        }\r\n        return tmpWhiteList;\r\n    }\r\n    function _redeemCollateralWorth(address collateral,uint256 redeemWorth,uint256 userTotalWorth) internal {\r\n        if (redeemWorth == 0){\r\n            return;\r\n        }\r\n        emit RedeemCollateral(msg.sender,collateral,redeemWorth);\r\n        (uint256[] memory colBalances,uint256[] memory PremiumBalances,uint256[] memory prices) = _getCollateralAndPremiumBalances(msg.sender,collateral,userTotalWorth);\r\n        address[] memory tmpWhiteList = getTempWhiteList(collateral);\r\n        _collateralPool.transferPaybackBalances(msg.sender,redeemWorth,tmpWhiteList,colBalances,\r\n                PremiumBalances,prices);\r\n    }\r\n\r\n    function calCollateralWorth(address account)public view returns(uint256[]){\r\n        uint256 worth = getUserTotalWorth(account);\r\n        (uint256[] memory colBalances,uint256[] memory PremiumBalances,) = _getCollateralAndPremiumBalances(account,whiteList[0],worth);\r\n        uint256 whiteLen = whiteList.length;\r\n        for (uint256 i=0; i<whiteLen;i++){\r\n            colBalances[i] = colBalances[i].add(PremiumBalances[i]);\r\n        }\r\n        return colBalances;\r\n    }\r\n    function _getCollateralAndPremiumBalances(address account,address priorCollateral,uint256 userTotalWorth) internal view returns(uint256[],uint256[],uint256[]){\r\n        address[] memory tmpWhiteList = getTempWhiteList(priorCollateral);\r\n        uint256[] memory prices = new uint256[](tmpWhiteList.length);\r\n        uint256[] memory netWorthBalances = new uint256[](tmpWhiteList.length);\r\n        for (uint256 i=0; i<tmpWhiteList.length;i++){\r\n            netWorthBalances[i] = getNetWorthBalance(tmpWhiteList[i]);\r\n            prices[i] = _oracle.getPrice(tmpWhiteList[i]);\r\n        }\r\n        (uint256[] memory colBalances,uint256[] memory PremiumBalances) = _collateralPool.getCollateralAndPremiumBalances(account,userTotalWorth,tmpWhiteList,\r\n                netWorthBalances,prices);\r\n        return (colBalances,PremiumBalances,prices);\r\n    } \r\n    /*\r\n    function _calBalanceRate(uint256 collateralBalance,uint256 netWorthBalance,uint256 amount)internal pure returns(uint256,uint256){\r\n        if (collateralBalance > 0){\r\n            uint256 curAmount = netWorthBalance.mul(amount).div(collateralBalance);\r\n            return (curAmount,netWorthBalance.sub(curAmount));\r\n        }else{\r\n            return (0,netWorthBalance);\r\n        }\r\n    }\r\n*/\r\n    function getOccupiedCollateral() public view returns(uint256){\r\n        uint256 totalOccupied = _optionsPool.getTotalOccupiedCollateral();\r\n        return calculateCollateral(totalOccupied);\r\n    }\r\n    function getAvailableCollateral()public view returns(uint256){\r\n        return safeSubCollateral(getUnlockedCollateral(),getOccupiedCollateral());\r\n    }\r\n    function getLeftCollateral()public view returns(uint256){\r\n        return safeSubCollateral(getTotalCollateral(),getOccupiedCollateral());\r\n    }\r\n    function getUnlockedCollateral()public view returns(uint256){\r\n        return safeSubCollateral(getTotalCollateral(),_FPTCoin.getTotalLockedWorth());\r\n    }\r\n    function safeSubCollateral(uint256 allCollateral,uint256 subCollateral)internal pure returns(uint256){\r\n        return allCollateral > subCollateral ? allCollateral - subCollateral : 0;\r\n    }\r\n    function calOptionsOccupied(uint256 strikePrice,uint256 underlyingPrice,uint256 amount,uint8 optType)public view returns(uint256){\r\n        uint256 totalOccupied = 0;\r\n        if ((optType == 0) == (strikePrice>underlyingPrice)){ // call\r\n            totalOccupied = strikePrice*amount;\r\n        } else {\r\n            totalOccupied = underlyingPrice*amount;\r\n        }\r\n        return calculateCollateral(totalOccupied);\r\n    }\r\n    function getTotalCollateral()public view returns(uint256){\r\n        int256 totalNum = 0;\r\n        uint whiteListLen = whiteList.length;\r\n        for (uint256 i=0;i<whiteListLen;i++){\r\n            address addr = whiteList[i];\r\n            int256 price = int256(_oracle.getPrice(addr));\r\n            int256 netWorth = getRealBalance(addr);\r\n            if (netWorth != 0){\r\n                totalNum = totalNum.add(price.mul(netWorth));\r\n            }\r\n            //totalNum = totalNum.add(price.mul(netWorthBalances[addr]));\r\n        }\r\n        return totalNum>=0 ? uint256(totalNum) : 0;  \r\n    }\r\n    function getRealBalance(address settlement)public view returns(int256){\r\n        int256 netWorth = _collateralPool.getNetWorthBalance(settlement);\r\n        int256 latestWorth = _optionsPool.getNetWrothLatestWorth(settlement);\r\n        return netWorth.add(latestWorth);\r\n    }\r\n    function getNetWorthBalance(address settlement)public view returns(uint256){\r\n        int256 netWorth = _collateralPool.getNetWorthBalance(settlement);\r\n        int256 latestWorth = _optionsPool.getNetWrothLatestWorth(settlement);\r\n        netWorth = netWorth.add(latestWorth);\r\n        if (netWorth>0){\r\n            return uint256(netWorth);\r\n        }\r\n        return 0;\r\n    }\r\n    function _paybackWorth(uint256 worth,uint256 feeType) internal {\r\n        uint256 totalPrice = 0;\r\n        uint whiteLen = whiteList.length;\r\n        uint256[] memory balances = new uint256[](whiteLen);\r\n        for (uint256 i=0;i<whiteLen;i++){\r\n            address addr = whiteList[i];\r\n            uint256 price = _oracle.getPrice(addr);\r\n            balances[i] = getNetWorthBalance(addr);\r\n            //balances[i] = netWorthBalances[addr];\r\n            totalPrice = totalPrice.add(price.mul(balances[i]));\r\n        }\r\n        if (totalPrice == 0){\r\n            return;\r\n        }\r\n        for (i=0;i<whiteLen;i++){\r\n            uint256 _payBack = balances[i].mul(worth)/totalPrice;\r\n            _collateralPool.transferPaybackAndFee(msg.sender,whiteList[i],_payBack,feeType);\r\n            //addr = whiteList[i];\r\n            //netWorthBalances[addr] = balances[i].sub(_payBack);\r\n            //_transferPaybackAndFee(msg.sender,addr,_payBack,feeType);\r\n        } \r\n    }\r\n    function getPayableAmount(address settlement,uint256 settlementAmount) internal returns (uint256) {\r\n        require(checkAddressPayIn(settlement) , \"settlement is unsupported token\");\r\n        uint256 colAmount = 0;\r\n        if (settlement == address(0)){\r\n            colAmount = msg.value;\r\n            address(_collateralPool).transfer(msg.value);\r\n        }else if (settlementAmount > 0){\r\n            IERC20 oToken = IERC20(settlement);\r\n            oToken.transferFrom(msg.sender, address(this), settlementAmount);\r\n            colAmount = settlementAmount;\r\n             oToken.transfer(address(_collateralPool),settlementAmount);\r\n        }\r\n        checkInputAmount(colAmount);\r\n        return colAmount;\r\n    }\r\n    function calculateCollateral(uint256 amount)internal view returns (uint256){\r\n        uint256 result = collateralRate.numerator.mul(amount);\r\n        return result/collateralRate.denominator;\r\n    }\r\n}",
  "sourcePath": "C:\\work\\solidity\\FinnexusOptions_V2\\contracts\\CollateralCal.sol",
  "compiler": {
    "name": "solc",
    "version": "0.4.26+commit.4563c3fc.Emscripten.clang"
  },
  "schemaVersion": "3.1.0",
  "updatedAt": "2020-08-05T06:53:15.902Z",
  "devdoc": {
    "methods": {
      "addWhiteList(address)": {
        "details": "Implementation of add an eligible address into the whitelist.\r",
        "params": {
          "addAddress": "new eligible address.\r"
        }
      },
      "getWhiteList()": {
        "details": "Implementation of getting the eligible whitelist.\r"
      },
      "isEligibleAddress(address)": {
        "details": "Implementation of testing whether the input address is eligible.\r",
        "params": {
          "tmpAddress": "input address for testing.\r"
        }
      },
      "isOwner()": {
        "details": "Returns true if the caller is the current owner."
      },
      "owner()": {
        "details": "Returns the address of the current owner."
      },
      "removeWhiteList(address)": {
        "details": "Implementation of revoke an invalid address from the whitelist.\r",
        "params": {
          "removeAddress": "revoked address.\r"
        }
      },
      "renounceOwnership()": {
        "details": "Leaves the contract without owner. It will not be possible to call `onlyOwner` functions anymore. Can only be called by the current owner.     * NOTE: Renouncing ownership will leave the contract without an owner, thereby removing any functionality that is only available to the owner."
      },
      "setTransactionFee(uint256,uint256,uint256)": {
        "details": "set the rate of trasaction fee.\r",
        "params": {
          "denominator": "thedenominator of transaction fee.\r transaction fee = numerator/denominator;\r",
          "feeType": "the transaction fee type\r",
          "numerator": "the numerator of transaction fee .\r"
        }
      },
      "transferOwnership(address)": {
        "details": "Transfers ownership of the contract to a new account (`newOwner`). Can only be called by the current owner."
      }
    }
  },
  "userdoc": {
    "methods": {
      "setHalt(bool)": {
        "notice": "function Emergency situation that requires contribution period to stop or not."
      }
    }
  }
}