{
  "contractName": "CompoundOracle",
  "abi": [
    {
      "constant": true,
      "inputs": [],
      "name": "ValidUntil",
      "outputs": [
        {
          "name": "",
          "type": "uint256"
        }
      ],
      "payable": false,
      "stateMutability": "view",
      "type": "function"
    },
    {
      "constant": false,
      "inputs": [],
      "name": "renounceOwnership",
      "outputs": [],
      "payable": false,
      "stateMutability": "nonpayable",
      "type": "function"
    },
    {
      "constant": true,
      "inputs": [],
      "name": "owner",
      "outputs": [
        {
          "name": "",
          "type": "address"
        }
      ],
      "payable": false,
      "stateMutability": "view",
      "type": "function"
    },
    {
      "constant": true,
      "inputs": [],
      "name": "isOwner",
      "outputs": [
        {
          "name": "",
          "type": "bool"
        }
      ],
      "payable": false,
      "stateMutability": "view",
      "type": "function"
    },
    {
      "constant": false,
      "inputs": [
        {
          "name": "newOwner",
          "type": "address"
        }
      ],
      "name": "transferOwnership",
      "outputs": [],
      "payable": false,
      "stateMutability": "nonpayable",
      "type": "function"
    },
    {
      "anonymous": false,
      "inputs": [
        {
          "indexed": true,
          "name": "previousOwner",
          "type": "address"
        },
        {
          "indexed": true,
          "name": "newOwner",
          "type": "address"
        }
      ],
      "name": "OwnershipTransferred",
      "type": "event"
    },
    {
      "constant": false,
      "inputs": [
        {
          "name": "timeLimit",
          "type": "uint256"
        }
      ],
      "name": "setValidUntil",
      "outputs": [],
      "payable": false,
      "stateMutability": "nonpayable",
      "type": "function"
    },
    {
      "constant": false,
      "inputs": [
        {
          "name": "asset",
          "type": "address"
        },
        {
          "name": "price",
          "type": "uint256"
        }
      ],
      "name": "setPrice",
      "outputs": [],
      "payable": false,
      "stateMutability": "nonpayable",
      "type": "function"
    },
    {
      "constant": false,
      "inputs": [
        {
          "name": "underlying",
          "type": "uint256"
        },
        {
          "name": "price",
          "type": "uint256"
        }
      ],
      "name": "setUnderlyingPrice",
      "outputs": [],
      "payable": false,
      "stateMutability": "nonpayable",
      "type": "function"
    },
    {
      "constant": false,
      "inputs": [
        {
          "name": "assets",
          "type": "address[]"
        },
        {
          "name": "assetPrices",
          "type": "uint256[]"
        },
        {
          "name": "underlyings",
          "type": "uint256[]"
        },
        {
          "name": "ulPrices",
          "type": "uint256[]"
        }
      ],
      "name": "setPriceAndUnderlyingPrice",
      "outputs": [],
      "payable": false,
      "stateMutability": "nonpayable",
      "type": "function"
    },
    {
      "constant": false,
      "inputs": [
        {
          "name": "optoken",
          "type": "address"
        },
        {
          "name": "price",
          "type": "uint256"
        }
      ],
      "name": "setSellOptionsPrice",
      "outputs": [],
      "payable": false,
      "stateMutability": "nonpayable",
      "type": "function"
    },
    {
      "constant": false,
      "inputs": [
        {
          "name": "optoken",
          "type": "address"
        },
        {
          "name": "price",
          "type": "uint256"
        }
      ],
      "name": "setBuyOptionsPrice",
      "outputs": [],
      "payable": false,
      "stateMutability": "nonpayable",
      "type": "function"
    },
    {
      "constant": false,
      "inputs": [
        {
          "name": "optokens",
          "type": "address[]"
        },
        {
          "name": "buyPrices",
          "type": "uint256[]"
        },
        {
          "name": "SellPrices",
          "type": "uint256[]"
        }
      ],
      "name": "setOptionsBuyAndSellPrice",
      "outputs": [],
      "payable": false,
      "stateMutability": "nonpayable",
      "type": "function"
    },
    {
      "constant": true,
      "inputs": [
        {
          "name": "asset",
          "type": "address"
        }
      ],
      "name": "getPrice",
      "outputs": [
        {
          "name": "",
          "type": "uint256"
        }
      ],
      "payable": false,
      "stateMutability": "view",
      "type": "function"
    },
    {
      "constant": true,
      "inputs": [
        {
          "name": "underlying",
          "type": "uint256"
        }
      ],
      "name": "getUnderlyingPrice",
      "outputs": [
        {
          "name": "",
          "type": "uint256"
        }
      ],
      "payable": false,
      "stateMutability": "view",
      "type": "function"
    },
    {
      "constant": true,
      "inputs": [
        {
          "name": "oToken",
          "type": "address"
        }
      ],
      "name": "getSellOptionsPrice",
      "outputs": [
        {
          "name": "",
          "type": "uint256"
        }
      ],
      "payable": false,
      "stateMutability": "view",
      "type": "function"
    },
    {
      "constant": true,
      "inputs": [
        {
          "name": "oToken",
          "type": "address"
        }
      ],
      "name": "getBuyOptionsPrice",
      "outputs": [
        {
          "name": "",
          "type": "uint256"
        }
      ],
      "payable": false,
      "stateMutability": "view",
      "type": "function"
    }
  ],
  "bytecode": "0x6080604081905261025860015560008054600160a060020a0319163317808255600160a060020a0316917f8be0079c531659141344cd1fd0a4f28419497f9722a3daafe3b4186f6b6457e0908290a3610de38061005d6000396000f3006080604052600436106100e45763ffffffff7c0100000000000000000000000000000000000000000000000000000000600035041662e4768b81146100e95780631410fa851461010f57806341976e091461020f57806349b7482b146102425780634af5b1e2146103095780635fe1b4561461031e578063634099cc14610342578063715018a61461035a578063835326671461036f5780638618b1d81461038a578063861f4d19146103ab5780638da5cb5b146103cf5780638f32d59b14610400578063cd75e52c14610429578063da6632571461044a578063f2fde38b14610462575b600080fd5b3480156100f557600080fd5b5061010d600160a060020a0360043516602435610483565b005b34801561011b57600080fd5b506040805160206004803580820135838102808601850190965280855261010d95369593946024949385019291829185019084908082843750506040805187358901803560208181028481018201909552818452989b9a998901989297509082019550935083925085019084908082843750506040805187358901803560208181028481018201909552818452989b9a998901989297509082019550935083925085019084908082843750506040805187358901803560208181028481018201909552818452989b9a9989019892975090820195509350839250850190849080828437509497506104eb9650505050505050565b34801561021b57600080fd5b50610230600160a060020a03600435166106f9565b60408051918252519081900360200190f35b34801561024e57600080fd5b506040805160206004803580820135838102808601850190965280855261010d95369593946024949385019291829185019084908082843750506040805187358901803560208181028481018201909552818452989b9a998901989297509082019550935083925085019084908082843750506040805187358901803560208181028481018201909552818452989b9a9989019892975090820195509350839250850190849080828437509497506107139650505050505050565b34801561031557600080fd5b50610230610940565b34801561032a57600080fd5b5061010d600160a060020a0360043516602435610946565b34801561034e57600080fd5b5061010d6004356109b8565b34801561036657600080fd5b5061010d610a09565b34801561037b57600080fd5b5061010d600435602435610aac565b34801561039657600080fd5b50610230600160a060020a0360043516610b62565b3480156103b757600080fd5b5061010d600160a060020a0360043516602435610b84565b3480156103db57600080fd5b506103e4610bf9565b60408051600160a060020a039092168252519081900360200190f35b34801561040c57600080fd5b50610415610c08565b604080519115158252519081900360200190f35b34801561043557600080fd5b50610230600160a060020a0360043516610c19565b34801561045657600080fd5b50610230600435610c34565b34801561046e57600080fd5b5061010d600160a060020a0360043516610c3f565b61048b610c08565b15156104cf576040805160e560020a62461bcd0281526020600482018190526024820152600080516020610d98833981519152604482015290519081900360640190fd5b600160a060020a03909116600090815260026020526040902055565b60006104f5610c08565b1515610539576040805160e560020a62461bcd0281526020600482018190526024820152600080516020610d98833981519152604482015290519081900360640190fd5b83518551146105b8576040805160e560020a62461bcd02815260206004820152603160248201527f61737365747320616e6420617373657450726963657320617265206e6f74206f60448201527f66207468652073616d65206c656e677468000000000000000000000000000000606482015290519081900360840190fd5b8151835114610637576040805160e560020a62461bcd02815260206004820152603360248201527f756e6465726c79696e677320616e6420756c50726963657320617265206e6f7460448201527f206f66207468652073616d65206c656e67746800000000000000000000000000606482015290519081900360840190fd5b5060005b845181101561069957838181518110151561065257fe5b9060200190602002015160026000878481518110151561066e57fe5b6020908102909101810151600160a060020a031682528101919091526040016000205560010161063b565b5060005b82518110156106f25781818151811015156106b457fe5b906020019060200201516002600085848151811015156106d057fe5b602090810290910181015182528101919091526040016000205560010161069d565b5050505050565b600061070d82600160a060020a0316610c97565b92915050565b6000806000610720610c08565b1515610764576040805160e560020a62461bcd0281526020600482018190526024820152600080516020610d98833981519152604482015290519081900360640190fd5b84518651146107e3576040805160e560020a62461bcd02815260206004820152603160248201527f6f70746f6b656e7320616e642062757950726963657320617265206e6f74206f60448201527f66207468652073616d65206c656e677468000000000000000000000000000000606482015290519081900360840190fd5b8351865114610862576040805160e560020a62461bcd02815260206004820152603260248201527f6f70746f6b656e7320616e642053656c6c50726963657320617265206e6f742060448201527f6f66207468652073616d65206c656e6774680000000000000000000000000000606482015290519081900360840190fd5b600092505b85518310156108cd57858381518110151561087e57fe5b90602001906020020151600160a060020a0316600a02600101915083838151811015156108a757fe5b602090810290910181015160008481526002909252604090912055600190920191610867565b600092505b85518310156109385785838151811015156108e957fe5b90602001906020020151600160a060020a0316600a026002019050848381518110151561091257fe5b6020908102909101810151600083815260029092526040909120556001909201916108d2565b505050505050565b60015481565b6000610950610c08565b1515610994576040805160e560020a62461bcd0281526020600482018190526024820152600080516020610d98833981519152604482015290519081900360640190fd5b50600160a060020a0391909116600a02600101600090815260026020526040902055565b6109c0610c08565b1515610a04576040805160e560020a62461bcd0281526020600482018190526024820152600080516020610d98833981519152604482015290519081900360640190fd5b600155565b610a11610c08565b1515610a55576040805160e560020a62461bcd0281526020600482018190526024820152600080516020610d98833981519152604482015290519081900360640190fd5b60008054604051600160a060020a03909116907f8be0079c531659141344cd1fd0a4f28419497f9722a3daafe3b4186f6b6457e0908390a36000805473ffffffffffffffffffffffffffffffffffffffff19169055565b610ab4610c08565b1515610af8576040805160e560020a62461bcd0281526020600482018190526024820152600080516020610d98833981519152604482015290519081900360640190fd5b60008211610b50576040805160e560020a62461bcd02815260206004820152601960248201527f756e6465726c79696e672063616e6e6f74206265207a65726f00000000000000604482015290519081900360640190fd5b60009182526002602052604090912055565b60006002600a600160a060020a0384160201610b7d81610c97565b9392505050565b6000610b8e610c08565b1515610bd2576040805160e560020a62461bcd0281526020600482018190526024820152600080516020610d98833981519152604482015290519081900360640190fd5b50600160a060020a0391909116600a02600290810160009081526020919091526040902055565b600054600160a060020a031690565b600054600160a060020a0316331490565b60006001600a600160a060020a0384160201610b7d81610c97565b600061070d82610c97565b610c47610c08565b1515610c8b576040805160e560020a62461bcd0281526020600482018190526024820152600080516020610d98833981519152604482015290519081900360640190fd5b610c9481610ca9565b50565b60009081526002602052604090205490565b600160a060020a0381161515610d2f576040805160e560020a62461bcd02815260206004820152602660248201527f4f776e61626c653a206e6577206f776e657220697320746865207a65726f206160448201527f6464726573730000000000000000000000000000000000000000000000000000606482015290519081900360840190fd5b60008054604051600160a060020a03808516939216917f8be0079c531659141344cd1fd0a4f28419497f9722a3daafe3b4186f6b6457e091a36000805473ffffffffffffffffffffffffffffffffffffffff1916600160a060020a039290921691909117905556004f776e61626c653a2063616c6c6572206973206e6f7420746865206f776e6572a165627a7a72305820c99eb73219052fb5908d5dbd9abed89e3ed989c68caf0d32cdb7b7507b312c9f0029",
  "source": "pragma solidity ^0.4.26;\r\nimport \"./interfaces/ICompoundOracle.sol\";\r\nimport \"./modules/Ownable.sol\";\r\nimport \"./modules/SafeMath.sol\";\r\ncontract CompoundOracle is ICompoundOracle,Ownable {\r\n    using SafeMath for uint256;\r\n    uint256 public ValidUntil = 600;\r\n    mapping(uint256 => uint256) private priceMap;\r\n    function setValidUntil(uint256 timeLimit) public onlyOwner {\r\n        ValidUntil = timeLimit;\r\n    }\r\n    /**\r\n      * @notice set price of an asset\r\n      * @dev function to set price for an asset\r\n      * @param asset Asset for which to set the price\r\n      * @param price the Asset's price\r\n      */    \r\n    function setPrice(address asset,uint256 price) public onlyOwner {\r\n        priceMap[uint256(asset)] = price;\r\n\r\n    }\r\n    /**\r\n      * @notice set price of an underlying\r\n      * @dev function to set price for an underlying\r\n      * @param underlying underlying for which to set the price\r\n      * @param price the underlying's price\r\n      */  \r\n    function setUnderlyingPrice(uint256 underlying,uint256 price) public onlyOwner {\r\n        require(underlying>0 , \"underlying cannot be zero\");\r\n        priceMap[underlying] = price;\r\n    }\r\n    /**\r\n    * @notice set a group of prices for assets and a group of prices for underlying\r\n    * @dev function to set a group of prices for assets and a group of prices for underlying\r\n    * @param assets a set of asset for which to set the price\r\n    * @param assetPrices  a set of the Asset's price\r\n    * @param underlyings a set of underlyings for which to set the price\r\n    * @param ulPrices  a set of the underlyings's price\r\n    */    \r\n    function setPriceAndUnderlyingPrice(address[] assets,uint256[] assetPrices,uint256[] underlyings,uint256[] ulPrices) public onlyOwner {\r\n        require(assets.length == assetPrices.length,\"assets and assetPrices are not of the same length\");\r\n        require(underlyings.length == ulPrices.length,\"underlyings and ulPrices are not of the same length\");\r\n        for (uint i = 0;i<assets.length;i++) {\r\n            priceMap[uint256(assets[i])] = assetPrices[i];\r\n        }\r\n        for (i = 0;i<underlyings.length;i++) {\r\n            priceMap[underlyings[i]] = ulPrices[i];\r\n        }\r\n    }\r\n    /**\r\n      * @notice set price of an options token sell price\r\n      * @dev function to set an options token sell price\r\n      * @param optoken options token for which to set the sell price\r\n      * @param price the options token sell price\r\n      */     \r\n    function setSellOptionsPrice(address optoken,uint256 price) public onlyOwner {\r\n        uint256 key = uint256(optoken)*10+1;\r\n        priceMap[key] = price;\r\n    }\r\n    /**\r\n      * @notice set price of an options token buy price\r\n      * @dev function to set an options token buy price\r\n      * @param optoken options token for which to set the buy price\r\n      * @param price the options token buy price\r\n      */      \r\n    function setBuyOptionsPrice(address optoken,uint256 price) public onlyOwner {\r\n        uint256 key = uint256(optoken)*10+2;\r\n        priceMap[key] = price;\r\n    }\r\n    /**\r\n      * @notice set price of a group of option tokens buy and sell prices\r\n      * @dev function to set price of a group of option tokens buy and sell prices\r\n      * @param optokens a group of option tokens for which to set the buy and sell price\r\n      * @param buyPrices a group of buy prices\r\n      * @param SellPrices a group of sell prices\r\n      */    \r\n    function setOptionsBuyAndSellPrice(address[] optokens,uint256[] buyPrices,uint256[] SellPrices) public onlyOwner {\r\n        require(optokens.length == buyPrices.length,\"optokens and buyPrices are not of the same length\");\r\n        require(optokens.length == SellPrices.length,\"optokens and SellPrices are not of the same length\");\r\n        for (uint i=0; i<optokens.length; i++) {\r\n            uint256 sellkey = uint256(optokens[i])*10+1;\r\n            priceMap[sellkey] = SellPrices[i];\r\n        }\r\n        for (i=0; i<optokens.length; i++) {\r\n            uint256 buykey = uint256(optokens[i])*10+2;\r\n            priceMap[buykey] = buyPrices[i];\r\n        }\r\n    }\r\n    /**\r\n  * @notice retrieves price of an asset\r\n  * @dev function to get price for an asset\r\n  * @param asset Asset for which to get the price\r\n  * @return uint mantissa of asset price (scaled by 1e18) or zero if unset or contract paused\r\n  */\r\n    function getPrice(address asset) public view returns (uint256) {\r\n        return _getPriceInfo(uint256(asset));\r\n    }\r\n    function getUnderlyingPrice(uint256 underlying) public view returns (uint256) {\r\n        return _getPriceInfo(underlying);\r\n    }\r\n\r\n    function getSellOptionsPrice(address oToken) public view returns (uint256) {\r\n        uint256 key = uint256(oToken)*10+1;\r\n        return _getPriceInfo(key);\r\n\r\n    }\r\n    function getBuyOptionsPrice(address oToken) public view returns (uint256) {\r\n        uint256 key = uint256(oToken)*10+2;\r\n        return _getPriceInfo(key);\r\n    }\r\n    function _getPriceInfo(uint256 key) internal view returns (uint256) {\r\n        return priceMap[key];\r\n    }\r\n\r\n/*\r\n    function getPriceDetail(address asset) public view returns (uint256,uint256) {\r\n        return _getPriceDetail(uint256(asset));\r\n    }\r\n    function getUnderlyingPriceDetail(uint256 underlying) public view returns (uint256,uint256) {\r\n        return _getPriceDetail(underlying);\r\n    }\r\n\r\n    function getSellOptionsPriceDetail(address oToken) public view returns (uint256,uint256) {\r\n        uint256 key = uint256(oToken)*10+1;\r\n        return _getPriceDetail(key);\r\n\r\n    }\r\n    function getBuyOptionsPriceDetail(address oToken) public view returns (uint256,uint256) {\r\n        uint256 key = uint256(oToken)*10+2;\r\n        return _getPriceDetail(key);\r\n    }\r\n    function _getPriceDetail(uint256 key) internal view returns (uint256,uint256) {\r\n        return (priceMap[key].price,priceMap[key].inptutTime);\r\n    }\r\n    */\r\n}\r\n",
  "sourcePath": "C:\\work\\solidity\\FinnexusOptions_V2\\contracts\\CompoundOracle.sol",
  "compiler": {
    "name": "solc",
    "version": "0.4.26+commit.4563c3fc.Emscripten.clang"
  },
  "schemaVersion": "3.1.0",
  "updatedAt": "2020-07-27T01:12:24.670Z",
  "devdoc": {
    "methods": {
      "getPrice(address)": {
        "details": "function to get price for an asset\r",
        "params": {
          "asset": "Asset for which to get the price\r"
        },
        "return": "uint mantissa of asset price (scaled by 1e18) or zero if unset or contract paused\r"
      },
      "isOwner()": {
        "details": "Returns true if the caller is the current owner."
      },
      "owner()": {
        "details": "Returns the address of the current owner."
      },
      "renounceOwnership()": {
        "details": "Leaves the contract without owner. It will not be possible to call `onlyOwner` functions anymore. Can only be called by the current owner.     * NOTE: Renouncing ownership will leave the contract without an owner, thereby removing any functionality that is only available to the owner."
      },
      "setBuyOptionsPrice(address,uint256)": {
        "details": "function to set an options token buy price\r",
        "params": {
          "optoken": "options token for which to set the buy price\r",
          "price": "the options token buy price\r"
        }
      },
      "setOptionsBuyAndSellPrice(address[],uint256[],uint256[])": {
        "details": "function to set price of a group of option tokens buy and sell prices\r",
        "params": {
          "SellPrices": "a group of sell prices\r",
          "buyPrices": "a group of buy prices\r",
          "optokens": "a group of option tokens for which to set the buy and sell price\r"
        }
      },
      "setPrice(address,uint256)": {
        "details": "function to set price for an asset\r",
        "params": {
          "asset": "Asset for which to set the price\r",
          "price": "the Asset's price\r"
        }
      },
      "setPriceAndUnderlyingPrice(address[],uint256[],uint256[],uint256[])": {
        "details": "function to set a group of prices for assets and a group of prices for underlying\r",
        "params": {
          "assetPrices": "a set of the Asset's price\r",
          "assets": "a set of asset for which to set the price\r",
          "ulPrices": "a set of the underlyings's price\r",
          "underlyings": "a set of underlyings for which to set the price\r"
        }
      },
      "setSellOptionsPrice(address,uint256)": {
        "details": "function to set an options token sell price\r",
        "params": {
          "optoken": "options token for which to set the sell price\r",
          "price": "the options token sell price\r"
        }
      },
      "setUnderlyingPrice(uint256,uint256)": {
        "details": "function to set price for an underlying\r",
        "params": {
          "price": "the underlying's price\r",
          "underlying": "underlying for which to set the price\r"
        }
      },
      "transferOwnership(address)": {
        "details": "Transfers ownership of the contract to a new account (`newOwner`). Can only be called by the current owner."
      }
    }
  },
  "userdoc": {
    "methods": {
      "getPrice(address)": {
        "notice": "retrieves price of an asset\r"
      },
      "setBuyOptionsPrice(address,uint256)": {
        "notice": "set price of an options token buy price\r"
      },
      "setOptionsBuyAndSellPrice(address[],uint256[],uint256[])": {
        "notice": "set price of a group of option tokens buy and sell prices\r"
      },
      "setPrice(address,uint256)": {
        "notice": "set price of an asset\r"
      },
      "setPriceAndUnderlyingPrice(address[],uint256[],uint256[],uint256[])": {
        "notice": "set a group of prices for assets and a group of prices for underlying\r"
      },
      "setSellOptionsPrice(address,uint256)": {
        "notice": "set price of an options token sell price\r"
      },
      "setUnderlyingPrice(uint256,uint256)": {
        "notice": "set price of an underlying\r"
      }
    }
  }
}