{
  "contractName": "Erc20Proxy",
  "abi": [
    {
      "inputs": [
        {
          "internalType": "address",
          "name": "implementation_",
          "type": "address"
        }
      ],
      "payable": false,
      "stateMutability": "nonpayable",
      "type": "constructor"
    },
    {
      "anonymous": false,
      "inputs": [
        {
          "indexed": true,
          "internalType": "address",
          "name": "owner",
          "type": "address"
        },
        {
          "indexed": true,
          "internalType": "address",
          "name": "spender",
          "type": "address"
        },
        {
          "indexed": false,
          "internalType": "uint256",
          "name": "value",
          "type": "uint256"
        }
      ],
      "name": "Approval",
      "type": "event"
    },
    {
      "anonymous": false,
      "inputs": [
        {
          "indexed": true,
          "internalType": "address",
          "name": "from",
          "type": "address"
        },
        {
          "indexed": true,
          "internalType": "address",
          "name": "to",
          "type": "address"
        },
        {
          "indexed": false,
          "internalType": "uint256",
          "name": "value",
          "type": "uint256"
        }
      ],
      "name": "Transfer",
      "type": "event"
    },
    {
      "constant": true,
      "inputs": [
        {
          "internalType": "address",
          "name": "",
          "type": "address"
        },
        {
          "internalType": "address",
          "name": "",
          "type": "address"
        }
      ],
      "name": "allowance",
      "outputs": [
        {
          "internalType": "uint256",
          "name": "",
          "type": "uint256"
        }
      ],
      "payable": false,
      "stateMutability": "view",
      "type": "function"
    },
    {
      "constant": false,
      "inputs": [
        {
          "internalType": "address",
          "name": "",
          "type": "address"
        },
        {
          "internalType": "uint256",
          "name": "",
          "type": "uint256"
        }
      ],
      "name": "approve",
      "outputs": [
        {
          "internalType": "bool",
          "name": "",
          "type": "bool"
        }
      ],
      "payable": false,
      "stateMutability": "nonpayable",
      "type": "function"
    },
    {
      "constant": true,
      "inputs": [
        {
          "internalType": "address",
          "name": "",
          "type": "address"
        }
      ],
      "name": "balanceOf",
      "outputs": [
        {
          "internalType": "uint256",
          "name": "",
          "type": "uint256"
        }
      ],
      "payable": false,
      "stateMutability": "view",
      "type": "function"
    },
    {
      "constant": true,
      "inputs": [],
      "name": "decimals",
      "outputs": [
        {
          "internalType": "uint8",
          "name": "",
          "type": "uint8"
        }
      ],
      "payable": false,
      "stateMutability": "view",
      "type": "function"
    },
    {
      "constant": false,
      "inputs": [
        {
          "internalType": "bytes",
          "name": "data",
          "type": "bytes"
        }
      ],
      "name": "delegateToImplementation",
      "outputs": [
        {
          "internalType": "bytes",
          "name": "",
          "type": "bytes"
        }
      ],
      "payable": false,
      "stateMutability": "nonpayable",
      "type": "function"
    },
    {
      "constant": true,
      "inputs": [
        {
          "internalType": "bytes",
          "name": "data",
          "type": "bytes"
        }
      ],
      "name": "delegateToViewImplementation",
      "outputs": [
        {
          "internalType": "bytes",
          "name": "",
          "type": "bytes"
        }
      ],
      "payable": false,
      "stateMutability": "view",
      "type": "function"
    },
    {
      "constant": true,
      "inputs": [],
      "name": "implementation",
      "outputs": [
        {
          "internalType": "address",
          "name": "",
          "type": "address"
        }
      ],
      "payable": false,
      "stateMutability": "view",
      "type": "function"
    },
    {
      "constant": true,
      "inputs": [],
      "name": "name",
      "outputs": [
        {
          "internalType": "string",
          "name": "",
          "type": "string"
        }
      ],
      "payable": false,
      "stateMutability": "view",
      "type": "function"
    },
    {
      "constant": true,
      "inputs": [],
      "name": "symbol",
      "outputs": [
        {
          "internalType": "string",
          "name": "",
          "type": "string"
        }
      ],
      "payable": false,
      "stateMutability": "view",
      "type": "function"
    },
    {
      "constant": true,
      "inputs": [],
      "name": "totalSupply",
      "outputs": [
        {
          "internalType": "uint256",
          "name": "",
          "type": "uint256"
        }
      ],
      "payable": false,
      "stateMutability": "view",
      "type": "function"
    },
    {
      "constant": false,
      "inputs": [
        {
          "internalType": "address",
          "name": "",
          "type": "address"
        },
        {
          "internalType": "uint256",
          "name": "",
          "type": "uint256"
        }
      ],
      "name": "transfer",
      "outputs": [
        {
          "internalType": "bool",
          "name": "",
          "type": "bool"
        }
      ],
      "payable": false,
      "stateMutability": "nonpayable",
      "type": "function"
    },
    {
      "constant": false,
      "inputs": [
        {
          "internalType": "address",
          "name": "",
          "type": "address"
        },
        {
          "internalType": "address",
          "name": "",
          "type": "address"
        },
        {
          "internalType": "uint256",
          "name": "",
          "type": "uint256"
        }
      ],
      "name": "transferFrom",
      "outputs": [
        {
          "internalType": "bool",
          "name": "",
          "type": "bool"
        }
      ],
      "payable": false,
      "stateMutability": "nonpayable",
      "type": "function"
    }
  ],
  "bytecode": "0x608060405234801561001057600080fd5b50604051610b9f380380610b9f8339818101604052602081101561003357600080fd5b505160058054600160a060020a038316600160a060020a031990911681179091556040805160048152602481018252602081018051600160e060020a03167f8129fc1c000000000000000000000000000000000000000000000000000000001781529151815185948594600094919391928291908083835b602083106100ca5780518252601f1990920191602091820191016100ab565b6001836020036101000a038019825116818451168082178552505050505050905001915050600060405180830381855af49150503d806000811461012a576040519150601f19603f3d011682016040523d82523d6000602084013e61012f565b606091505b505090508061013d57600080fd5b50505050610a4f806101506000396000f3fe608060405234801561001057600080fd5b50600436106100d1576000357c0100000000000000000000000000000000000000000000000000000000900480634487152f1161008e5780634487152f146102a75780635c60da1b1461034d57806370a082311461037157806395d89b4114610397578063a9059cbb146101f9578063dd62ed3e1461039f576100d1565b806306fdde03146100d65780630933c1ed14610153578063095ea7b3146101f957806318160ddd1461023957806323b872dd14610253578063313ce56714610289575b600080fd5b6100de6103cd565b6040805160208082528351818301528351919283929083019185019080838360005b83811015610118578181015183820152602001610100565b50505050905090810190601f1680156101455780820380516001836020036101000a031916815260200191505b509250505060405180910390f35b6100de6004803603602081101561016957600080fd5b81019060208101813564010000000081111561018457600080fd5b82018360208201111561019657600080fd5b803590602001918460018302840111640100000000831117156101b857600080fd5b91908080601f01602080910402602001604051908101604052809392919081815260200183838082843760009201919091525092955061045b945050505050565b6102256004803603604081101561020f57600080fd5b50600160a060020a03813516906020013561047a565b604080519115158252519081900360200190f35b61024161048b565b60408051918252519081900360200190f35b6102256004803603606081101561026957600080fd5b50600160a060020a03813581169160208101359091169060400135610499565b6102916104ab565b6040805160ff9092168252519081900360200190f35b6100de600480360360208110156102bd57600080fd5b8101906020810181356401000000008111156102d857600080fd5b8201836020820111156102ea57600080fd5b8035906020019184600183028401116401000000008311171561030c57600080fd5b91908080601f0160208091040260200160405190810160405280939291908181526020018383808284376000920191909152509295506104b0945050505050565b6103556106ff565b60408051600160a060020a039092168252519081900360200190f35b6102416004803603602081101561038757600080fd5b5035600160a060020a031661070e565b6100de61071e565b610241600480360360408110156103b557600080fd5b50600160a060020a0381358116916020013516610778565b6000805460408051602060026001851615610100026000190190941693909304601f810184900484028201840190925281815292918301828280156104535780601f1061042857610100808354040283529160200191610453565b820191906000526020600020905b81548152906001019060200180831161043657829003601f168201915b505050505081565b60055460609061047490600160a060020a031683610782565b92915050565b6000610484610844565b5092915050565b60006104956108cc565b5090565b60006104a3610844565b509392505050565b601281565b60606000606030600160a060020a0316846040516024018080602001828103825283818151815260200191508051906020019080838360005b838110156105015781810151838201526020016104e9565b50505050905090810190601f16801561052e5780820380516001836020036101000a031916815260200191505b5060408051601f198184030181529181526020820180517bffffffffffffffffffffffffffffffffffffffffffffffffffffffff167f0933c1ed00000000000000000000000000000000000000000000000000000000178152905182519295509350839250908083835b602083106105b75780518252601f199092019160209182019101610598565b6001836020036101000a038019825116818451168082178552505050505050905001915050600060405180830381855afa9150503d8060008114610617576040519150601f19603f3d011682016040523d82523d6000602084013e61061c565b606091505b50915091506000821415610631573d60208201fd5b80806020019051602081101561064657600080fd5b810190808051604051939291908464010000000082111561066657600080fd5b90830190602082018581111561067b57600080fd5b825164010000000081118282018810171561069557600080fd5b82525081516020918201929091019080838360005b838110156106c25781810151838201526020016106aa565b50505050905090810190601f1680156106ef5780820380516001836020036101000a031916815260200191505b5060405250505092505050919050565b600554600160a060020a031681565b60006107186108cc565b50919050565b60018054604080516020600284861615610100026000190190941693909304601f810184900484028201840190925281815292918301828280156104535780601f1061042857610100808354040283529160200191610453565b60006104846108cc565b60606000606084600160a060020a0316846040518082805190602001908083835b602083106107c25780518252601f1990920191602091820191016107a3565b6001836020036101000a038019825116818451168082178552505050505050905001915050600060405180830381855af49150503d8060008114610822576040519150601f19603f3d011682016040523d82523d6000602084013e610827565b606091505b5091509150600082141561083c573d60208201fd5b949350505050565b600554604051606091600091600160a060020a0390911690829036908083838082843760405192019450600093509091505080830381855af49150503d80600081146108ac576040519150601f19603f3d011682016040523d82523d6000602084013e6108b1565b606091505b505090506040513d6000823e8180156108c8573d82f35b3d82fd5b6060600030600160a060020a03166000366040516024018080602001828103825284848281815260200192508082843760008382015260408051601f909201601f1990811690940182810390940182529283526020810180517bffffffffffffffffffffffffffffffffffffffffffffffffffffffff167f0933c1ed0000000000000000000000000000000000000000000000000000000017815292518151919750955085945091925081905083835b6020831061099b5780518252601f19909201916020918201910161097c565b6001836020036101000a038019825116818451168082178552505050505050905001915050600060405180830381855afa9150503d80600081146109fb576040519150601f19603f3d011682016040523d82523d6000602084013e610a00565b606091505b505090506040513d6000823e8180156108c8573d60408301f3fea265627a7a723158201d6dc1d637b51923c8f098d7e8b3339774b5f3310b6f438f3671cf6f8e3c7e3a64736f6c63430005100032",
  "source": "pragma solidity ^0.5.1;\r\nimport \"./IERC20.sol\";\r\nimport \"./Erc20Data.sol\";\r\nimport \"./Erc20BaseProxy.sol\";\r\n/**\r\n * @title  Erc20Delegator Contract\r\n\r\n */\r\ncontract Erc20Proxy is Erc20Data,Erc20BaseProxy {\r\n    constructor(address implementation_) Erc20BaseProxy(implementation_) public  {\r\n    }\r\n}\r\n",
  "sourcePath": "C:\\work\\solidity\\FinnexusOptions_V2\\contracts\\ERC20\\Erc20Proxy.sol",
  "compiler": {
    "name": "solc",
    "version": "0.5.16+commit.9c3226ce.Emscripten.clang"
  },
  "schemaVersion": "3.1.0",
  "updatedAt": "2020-09-02T10:47:05.509Z",
  "devdoc": {
    "methods": {
      "allowance(address,address)": {
        "return": "The number of tokens allowed to be spent (-1 means infinite)"
      },
      "approve(address,uint256)": {
        "details": "This will overwrite the approval amount for `spender`",
        "return": "Whether or not the approval succeeded"
      },
      "balanceOf(address)": {
        "return": "The number of tokens owned by `owner`"
      },
      "delegateToImplementation(bytes)": {
        "details": "It returns to the external caller whatever the implementation returns or forwards reverts",
        "params": {
          "data": "The raw data to delegatecall"
        },
        "return": "The returned bytes from the delegatecall"
      },
      "delegateToViewImplementation(bytes)": {
        "details": "It returns to the external caller whatever the implementation returns or forwards reverts There are an additional 2 prefix uints from the wrapper returndata, which we ignore since we make an extra hop.",
        "params": {
          "data": "The raw data to delegatecall"
        },
        "return": "The returned bytes from the delegatecall"
      },
      "totalSupply()": {
        "return": "Whether or not the transfer succeeded"
      }
    },
    "title": "Erc20Delegator Contract"
  },
  "userdoc": {
    "methods": {
      "allowance(address,address)": {
        "notice": "Get the current allowance from `owner` for `spender` owner The address of the account which owns the tokens to be spent spender The address of the account which may transfer tokens"
      },
      "approve(address,uint256)": {
        "notice": "Approve `spender` to transfer up to `amount` from `src`"
      },
      "balanceOf(address)": {
        "notice": "Get the token balance of the `owner` owner The address of the account to query"
      },
      "delegateToImplementation(bytes)": {
        "notice": "Delegates execution to the implementation contract"
      },
      "delegateToViewImplementation(bytes)": {
        "notice": "Delegates execution to an implementation contract"
      },
      "totalSupply()": {
        "notice": "Transfer `amount` tokens from `msg.sender` to `dst` dst  The address of the destination account amount  The number of tokens to transfer"
      },
      "transferFrom(address,address,uint256)": {
        "notice": "Transfer `amount` tokens from `src` to `dst`"
      }
    }
  }
}