{
  "contractName": "Erc20BaseProxy",
  "abi": [
    {
      "inputs": [
        {
          "internalType": "address",
          "name": "implementation_",
          "type": "address"
        }
      ],
      "payable": false,
      "stateMutability": "nonpayable",
      "type": "constructor"
    },
    {
      "constant": false,
      "inputs": [
        {
          "internalType": "bytes",
          "name": "data",
          "type": "bytes"
        }
      ],
      "name": "delegateToImplementation",
      "outputs": [
        {
          "internalType": "bytes",
          "name": "",
          "type": "bytes"
        }
      ],
      "payable": false,
      "stateMutability": "nonpayable",
      "type": "function"
    },
    {
      "constant": true,
      "inputs": [
        {
          "internalType": "bytes",
          "name": "data",
          "type": "bytes"
        }
      ],
      "name": "delegateToViewImplementation",
      "outputs": [
        {
          "internalType": "bytes",
          "name": "",
          "type": "bytes"
        }
      ],
      "payable": false,
      "stateMutability": "view",
      "type": "function"
    },
    {
      "constant": true,
      "inputs": [],
      "name": "implementation",
      "outputs": [
        {
          "internalType": "address",
          "name": "",
          "type": "address"
        }
      ],
      "payable": false,
      "stateMutability": "view",
      "type": "function"
    },
    {
      "constant": true,
      "inputs": [],
      "name": "totalSupply",
      "outputs": [
        {
          "internalType": "uint256",
          "name": "",
          "type": "uint256"
        }
      ],
      "payable": false,
      "stateMutability": "view",
      "type": "function"
    },
    {
      "constant": false,
      "inputs": [
        {
          "internalType": "address",
          "name": "",
          "type": "address"
        },
        {
          "internalType": "uint256",
          "name": "",
          "type": "uint256"
        }
      ],
      "name": "transfer",
      "outputs": [
        {
          "internalType": "bool",
          "name": "",
          "type": "bool"
        }
      ],
      "payable": false,
      "stateMutability": "nonpayable",
      "type": "function"
    },
    {
      "constant": false,
      "inputs": [
        {
          "internalType": "address",
          "name": "",
          "type": "address"
        },
        {
          "internalType": "address",
          "name": "",
          "type": "address"
        },
        {
          "internalType": "uint256",
          "name": "",
          "type": "uint256"
        }
      ],
      "name": "transferFrom",
      "outputs": [
        {
          "internalType": "bool",
          "name": "",
          "type": "bool"
        }
      ],
      "payable": false,
      "stateMutability": "nonpayable",
      "type": "function"
    },
    {
      "constant": false,
      "inputs": [
        {
          "internalType": "address",
          "name": "",
          "type": "address"
        },
        {
          "internalType": "uint256",
          "name": "",
          "type": "uint256"
        }
      ],
      "name": "approve",
      "outputs": [
        {
          "internalType": "bool",
          "name": "",
          "type": "bool"
        }
      ],
      "payable": false,
      "stateMutability": "nonpayable",
      "type": "function"
    },
    {
      "constant": true,
      "inputs": [
        {
          "internalType": "address",
          "name": "",
          "type": "address"
        },
        {
          "internalType": "address",
          "name": "",
          "type": "address"
        }
      ],
      "name": "allowance",
      "outputs": [
        {
          "internalType": "uint256",
          "name": "",
          "type": "uint256"
        }
      ],
      "payable": false,
      "stateMutability": "view",
      "type": "function"
    },
    {
      "constant": true,
      "inputs": [
        {
          "internalType": "address",
          "name": "",
          "type": "address"
        }
      ],
      "name": "balanceOf",
      "outputs": [
        {
          "internalType": "uint256",
          "name": "",
          "type": "uint256"
        }
      ],
      "payable": false,
      "stateMutability": "view",
      "type": "function"
    }
  ],
  "bytecode": "0x608060405234801561001057600080fd5b50604051610a56380380610a568339818101604052602081101561003357600080fd5b505160008054600160a060020a038316600160a060020a0319909116811782556040805160048152602481018252602081018051600160e060020a03167f8129fc1c00000000000000000000000000000000000000000000000000000000178152915181518695949382918083835b602083106100c15780518252601f1990920191602091820191016100a2565b6001836020036101000a038019825116818451168082178552505050505050905001915050600060405180830381855af49150503d8060008114610121576040519150601f19603f3d011682016040523d82523d6000602084013e610126565b606091505b505090508061013457600080fd5b505050610910806101466000396000f3fe608060405234801561001057600080fd5b50600436106100b0576000357c0100000000000000000000000000000000000000000000000000000000900480634487152f116100835780634487152f146102605780635c60da1b1461030657806370a082311461032a578063a9059cbb146101d0578063dd62ed3e14610350576100b0565b80630933c1ed146100b5578063095ea7b3146101d057806318160ddd1461021057806323b872dd1461022a575b600080fd5b61015b600480360360208110156100cb57600080fd5b8101906020810181356401000000008111156100e657600080fd5b8201836020820111156100f857600080fd5b8035906020019184600183028401116401000000008311171561011a57600080fd5b91908080601f01602080910402602001604051908101604052809392919081815260200183838082843760009201919091525092955061037e945050505050565b6040805160208082528351818301528351919283929083019185019080838360005b8381101561019557818101518382015260200161017d565b50505050905090810190601f1680156101c25780820380516001836020036101000a031916815260200191505b509250505060405180910390f35b6101fc600480360360408110156101e657600080fd5b50600160a060020a03813516906020013561039d565b604080519115158252519081900360200190f35b6102186103ae565b60408051918252519081900360200190f35b6101fc6004803603606081101561024057600080fd5b50600160a060020a038135811691602081013590911690604001356103bc565b61015b6004803603602081101561027657600080fd5b81019060208101813564010000000081111561029157600080fd5b8201836020820111156102a357600080fd5b803590602001918460018302840111640100000000831117156102c557600080fd5b91908080601f0160208091040260200160405190810160405280939291908181526020018383808284376000920191909152509295506103ce945050505050565b61030e61061d565b60408051600160a060020a039092168252519081900360200190f35b6102186004803603602081101561034057600080fd5b5035600160a060020a031661062c565b6102186004803603604081101561036657600080fd5b50600160a060020a038135811691602001351661063c565b60005460609061039790600160a060020a031683610646565b92915050565b60006103a7610708565b5092915050565b60006103b861078d565b5090565b60006103c6610708565b509392505050565b60606000606030600160a060020a0316846040516024018080602001828103825283818151815260200191508051906020019080838360005b8381101561041f578181015183820152602001610407565b50505050905090810190601f16801561044c5780820380516001836020036101000a031916815260200191505b5060408051601f198184030181529181526020820180517bffffffffffffffffffffffffffffffffffffffffffffffffffffffff167f0933c1ed00000000000000000000000000000000000000000000000000000000178152905182519295509350839250908083835b602083106104d55780518252601f1990920191602091820191016104b6565b6001836020036101000a038019825116818451168082178552505050505050905001915050600060405180830381855afa9150503d8060008114610535576040519150601f19603f3d011682016040523d82523d6000602084013e61053a565b606091505b5091509150600082141561054f573d60208201fd5b80806020019051602081101561056457600080fd5b810190808051604051939291908464010000000082111561058457600080fd5b90830190602082018581111561059957600080fd5b82516401000000008111828201881017156105b357600080fd5b82525081516020918201929091019080838360005b838110156105e05781810151838201526020016105c8565b50505050905090810190601f16801561060d5780820380516001836020036101000a031916815260200191505b5060405250505092505050919050565b600054600160a060020a031681565b600061063661078d565b50919050565b60006103a761078d565b60606000606084600160a060020a0316846040518082805190602001908083835b602083106106865780518252601f199092019160209182019101610667565b6001836020036101000a038019825116818451168082178552505050505050905001915050600060405180830381855af49150503d80600081146106e6576040519150601f19603f3d011682016040523d82523d6000602084013e6106eb565b606091505b50915091506000821415610700573d60208201fd5b949350505050565b6000805460405160609291600160a060020a031690829036908083838082843760405192019450600093509091505080830381855af49150503d806000811461076d576040519150601f19603f3d011682016040523d82523d6000602084013e610772565b606091505b505090506040513d6000823e818015610789573d82f35b3d82fd5b6060600030600160a060020a03166000366040516024018080602001828103825284848281815260200192508082843760008382015260408051601f909201601f1990811690940182810390940182529283526020810180517bffffffffffffffffffffffffffffffffffffffffffffffffffffffff167f0933c1ed0000000000000000000000000000000000000000000000000000000017815292518151919750955085945091925081905083835b6020831061085c5780518252601f19909201916020918201910161083d565b6001836020036101000a038019825116818451168082178552505050505050905001915050600060405180830381855afa9150503d80600081146108bc576040519150601f19603f3d011682016040523d82523d6000602084013e6108c1565b606091505b505090506040513d6000823e818015610789573d60408301f3fea265627a7a7231582075a9e7a2bc1ccbbb1f663ba3c3222a33f0d27d089c306726383b5afda0b8037764736f6c63430005100032",
  "source": "pragma solidity ^0.5.1;\r\nimport \"./Erc20Data.sol\";\r\nimport \"../Proxy/baseProxy.sol\";\r\n/**\r\n * @title  Erc20Delegator Contract\r\n\r\n */\r\ncontract Erc20BaseProxy is baseProxy{\r\n    constructor(address implementation_) baseProxy(implementation_) public  {\r\n    }\r\n    /**\r\n     * @notice Transfer `amount` tokens from `msg.sender` to `dst`\r\n     *  dst  The address of the destination account\r\n     *  amount  The number of tokens to transfer\r\n     * @return Whether or not the transfer succeeded\r\n     */\r\n     function totalSupply() external view returns (uint256){\r\n         delegateToViewAndReturn();\r\n     }\r\n    function transfer(address /*dst*/, uint /*amount*/) external returns (bool) {\r\n        delegateAndReturn();\r\n    }\r\n\r\n    /**\r\n     * @notice Transfer `amount` tokens from `src` to `dst`\r\n     */\r\n    function transferFrom(address /*src*/, address /*dst*/, uint256 /*amount*/) external returns (bool) {\r\n        delegateAndReturn();\r\n    }\r\n\r\n    /**\r\n     * @notice Approve `spender` to transfer up to `amount` from `src`\r\n     * @dev This will overwrite the approval amount for `spender`\r\n     * @return Whether or not the approval succeeded\r\n     */\r\n    function approve(address /*spender*/, uint256 /*amount*/) external returns (bool) {\r\n        delegateAndReturn();\r\n    }\r\n\r\n    /**\r\n     * @notice Get the current allowance from `owner` for `spender`\r\n     * owner The address of the account which owns the tokens to be spent\r\n     * spender The address of the account which may transfer tokens\r\n     * @return The number of tokens allowed to be spent (-1 means infinite)\r\n     */\r\n    function allowance(address /*owner*/, address /*spender*/) external view returns (uint) {\r\n        delegateToViewAndReturn();\r\n    }\r\n\r\n    /**\r\n     * @notice Get the token balance of the `owner`\r\n     * owner The address of the account to query\r\n     * @return The number of tokens owned by `owner`\r\n     */\r\n    function balanceOf(address /*owner*/) external view returns (uint) {\r\n        delegateToViewAndReturn();\r\n    }\r\n}\r\n",
  "sourcePath": "C:\\work\\solidity\\FinnexusOptions_V2\\contracts\\ERC20\\Erc20BaseProxy.sol",
  "compiler": {
    "name": "solc",
    "version": "0.5.16+commit.9c3226ce.Emscripten.clang"
  },
  "schemaVersion": "3.1.0",
  "updatedAt": "2020-09-02T10:47:05.507Z",
  "devdoc": {
    "methods": {
      "allowance(address,address)": {
        "return": "The number of tokens allowed to be spent (-1 means infinite)"
      },
      "approve(address,uint256)": {
        "details": "This will overwrite the approval amount for `spender`",
        "return": "Whether or not the approval succeeded"
      },
      "balanceOf(address)": {
        "return": "The number of tokens owned by `owner`"
      },
      "delegateToImplementation(bytes)": {
        "details": "It returns to the external caller whatever the implementation returns or forwards reverts",
        "params": {
          "data": "The raw data to delegatecall"
        },
        "return": "The returned bytes from the delegatecall"
      },
      "delegateToViewImplementation(bytes)": {
        "details": "It returns to the external caller whatever the implementation returns or forwards reverts There are an additional 2 prefix uints from the wrapper returndata, which we ignore since we make an extra hop.",
        "params": {
          "data": "The raw data to delegatecall"
        },
        "return": "The returned bytes from the delegatecall"
      },
      "totalSupply()": {
        "return": "Whether or not the transfer succeeded"
      }
    },
    "title": "Erc20Delegator Contract"
  },
  "userdoc": {
    "methods": {
      "allowance(address,address)": {
        "notice": "Get the current allowance from `owner` for `spender` owner The address of the account which owns the tokens to be spent spender The address of the account which may transfer tokens"
      },
      "approve(address,uint256)": {
        "notice": "Approve `spender` to transfer up to `amount` from `src`"
      },
      "balanceOf(address)": {
        "notice": "Get the token balance of the `owner` owner The address of the account to query"
      },
      "delegateToImplementation(bytes)": {
        "notice": "Delegates execution to the implementation contract"
      },
      "delegateToViewImplementation(bytes)": {
        "notice": "Delegates execution to an implementation contract"
      },
      "totalSupply()": {
        "notice": "Transfer `amount` tokens from `msg.sender` to `dst` dst  The address of the destination account amount  The number of tokens to transfer"
      },
      "transferFrom(address,address,uint256)": {
        "notice": "Transfer `amount` tokens from `src` to `dst`"
      }
    }
  }
}