{
  "contractName": "FCTCoin",
  "abi": [
    {
      "constant": true,
      "inputs": [
        {
          "name": "",
          "type": "address"
        }
      ],
      "name": "lockedBalances",
      "outputs": [
        {
          "name": "",
          "type": "uint256"
        }
      ],
      "payable": false,
      "stateMutability": "view",
      "type": "function"
    },
    {
      "constant": true,
      "inputs": [],
      "name": "name",
      "outputs": [
        {
          "name": "",
          "type": "string"
        }
      ],
      "payable": false,
      "stateMutability": "view",
      "type": "function"
    },
    {
      "constant": false,
      "inputs": [
        {
          "name": "spender",
          "type": "address"
        },
        {
          "name": "amount",
          "type": "uint256"
        }
      ],
      "name": "approve",
      "outputs": [
        {
          "name": "",
          "type": "bool"
        }
      ],
      "payable": false,
      "stateMutability": "nonpayable",
      "type": "function"
    },
    {
      "constant": true,
      "inputs": [],
      "name": "totalSupply",
      "outputs": [
        {
          "name": "",
          "type": "uint256"
        }
      ],
      "payable": false,
      "stateMutability": "view",
      "type": "function"
    },
    {
      "constant": true,
      "inputs": [
        {
          "name": "",
          "type": "address"
        }
      ],
      "name": "balances",
      "outputs": [
        {
          "name": "",
          "type": "uint256"
        }
      ],
      "payable": false,
      "stateMutability": "view",
      "type": "function"
    },
    {
      "constant": true,
      "inputs": [],
      "name": "decimals",
      "outputs": [
        {
          "name": "",
          "type": "uint8"
        }
      ],
      "payable": false,
      "stateMutability": "view",
      "type": "function"
    },
    {
      "constant": false,
      "inputs": [
        {
          "name": "spender",
          "type": "address"
        },
        {
          "name": "addedValue",
          "type": "uint256"
        }
      ],
      "name": "increaseAllowance",
      "outputs": [
        {
          "name": "",
          "type": "bool"
        }
      ],
      "payable": false,
      "stateMutability": "nonpayable",
      "type": "function"
    },
    {
      "constant": true,
      "inputs": [],
      "name": "getFNXMinePoolAddress",
      "outputs": [
        {
          "name": "",
          "type": "address"
        }
      ],
      "payable": false,
      "stateMutability": "view",
      "type": "function"
    },
    {
      "constant": false,
      "inputs": [
        {
          "name": "fnxMinePool",
          "type": "address"
        }
      ],
      "name": "setFNXMinePoolAddress",
      "outputs": [],
      "payable": false,
      "stateMutability": "nonpayable",
      "type": "function"
    },
    {
      "constant": true,
      "inputs": [
        {
          "name": "account",
          "type": "address"
        }
      ],
      "name": "balanceOf",
      "outputs": [
        {
          "name": "",
          "type": "uint256"
        }
      ],
      "payable": false,
      "stateMutability": "view",
      "type": "function"
    },
    {
      "constant": false,
      "inputs": [],
      "name": "renounceOwnership",
      "outputs": [],
      "payable": false,
      "stateMutability": "nonpayable",
      "type": "function"
    },
    {
      "constant": true,
      "inputs": [
        {
          "name": "",
          "type": "address"
        }
      ],
      "name": "lockedTotalWorth",
      "outputs": [
        {
          "name": "",
          "type": "uint256"
        }
      ],
      "payable": false,
      "stateMutability": "view",
      "type": "function"
    },
    {
      "constant": true,
      "inputs": [],
      "name": "owner",
      "outputs": [
        {
          "name": "",
          "type": "address"
        }
      ],
      "payable": false,
      "stateMutability": "view",
      "type": "function"
    },
    {
      "constant": true,
      "inputs": [],
      "name": "isOwner",
      "outputs": [
        {
          "name": "",
          "type": "bool"
        }
      ],
      "payable": false,
      "stateMutability": "view",
      "type": "function"
    },
    {
      "constant": true,
      "inputs": [],
      "name": "symbol",
      "outputs": [
        {
          "name": "",
          "type": "string"
        }
      ],
      "payable": false,
      "stateMutability": "view",
      "type": "function"
    },
    {
      "constant": false,
      "inputs": [
        {
          "name": "spender",
          "type": "address"
        },
        {
          "name": "subtractedValue",
          "type": "uint256"
        }
      ],
      "name": "decreaseAllowance",
      "outputs": [
        {
          "name": "",
          "type": "bool"
        }
      ],
      "payable": false,
      "stateMutability": "nonpayable",
      "type": "function"
    },
    {
      "constant": false,
      "inputs": [
        {
          "name": "managerAddress",
          "type": "address"
        }
      ],
      "name": "setManager",
      "outputs": [],
      "payable": false,
      "stateMutability": "nonpayable",
      "type": "function"
    },
    {
      "constant": true,
      "inputs": [],
      "name": "getManager",
      "outputs": [
        {
          "name": "",
          "type": "address"
        }
      ],
      "payable": false,
      "stateMutability": "view",
      "type": "function"
    },
    {
      "constant": true,
      "inputs": [
        {
          "name": "owner",
          "type": "address"
        },
        {
          "name": "spender",
          "type": "address"
        }
      ],
      "name": "allowance",
      "outputs": [
        {
          "name": "",
          "type": "uint256"
        }
      ],
      "payable": false,
      "stateMutability": "view",
      "type": "function"
    },
    {
      "constant": false,
      "inputs": [
        {
          "name": "newOwner",
          "type": "address"
        }
      ],
      "name": "transferOwnership",
      "outputs": [],
      "payable": false,
      "stateMutability": "nonpayable",
      "type": "function"
    },
    {
      "inputs": [
        {
          "name": "minePoolAddr",
          "type": "address"
        }
      ],
      "payable": false,
      "stateMutability": "nonpayable",
      "type": "constructor"
    },
    {
      "anonymous": false,
      "inputs": [
        {
          "indexed": true,
          "name": "owner",
          "type": "address"
        },
        {
          "indexed": false,
          "name": "amount",
          "type": "uint256"
        },
        {
          "indexed": false,
          "name": "worth",
          "type": "uint256"
        }
      ],
      "name": "AddLocked",
      "type": "event"
    },
    {
      "anonymous": false,
      "inputs": [
        {
          "indexed": true,
          "name": "owner",
          "type": "address"
        },
        {
          "indexed": false,
          "name": "amount",
          "type": "uint256"
        },
        {
          "indexed": false,
          "name": "worth",
          "type": "uint256"
        }
      ],
      "name": "BurnLocked",
      "type": "event"
    },
    {
      "anonymous": false,
      "inputs": [
        {
          "indexed": true,
          "name": "previousOwner",
          "type": "address"
        },
        {
          "indexed": true,
          "name": "newOwner",
          "type": "address"
        }
      ],
      "name": "OwnershipTransferred",
      "type": "event"
    },
    {
      "anonymous": false,
      "inputs": [
        {
          "indexed": true,
          "name": "from",
          "type": "address"
        },
        {
          "indexed": true,
          "name": "to",
          "type": "address"
        },
        {
          "indexed": false,
          "name": "value",
          "type": "uint256"
        }
      ],
      "name": "Transfer",
      "type": "event"
    },
    {
      "anonymous": false,
      "inputs": [
        {
          "indexed": true,
          "name": "owner",
          "type": "address"
        },
        {
          "indexed": true,
          "name": "spender",
          "type": "address"
        },
        {
          "indexed": false,
          "name": "value",
          "type": "uint256"
        }
      ],
      "name": "Approval",
      "type": "event"
    },
    {
      "constant": true,
      "inputs": [],
      "name": "getTotalLockedWorth",
      "outputs": [
        {
          "name": "",
          "type": "uint256"
        }
      ],
      "payable": false,
      "stateMutability": "view",
      "type": "function"
    },
    {
      "constant": true,
      "inputs": [
        {
          "name": "account",
          "type": "address"
        }
      ],
      "name": "lockedBalanceOf",
      "outputs": [
        {
          "name": "",
          "type": "uint256"
        }
      ],
      "payable": false,
      "stateMutability": "view",
      "type": "function"
    },
    {
      "constant": true,
      "inputs": [
        {
          "name": "account",
          "type": "address"
        }
      ],
      "name": "lockedWorthOf",
      "outputs": [
        {
          "name": "",
          "type": "uint256"
        }
      ],
      "payable": false,
      "stateMutability": "view",
      "type": "function"
    },
    {
      "constant": true,
      "inputs": [
        {
          "name": "account",
          "type": "address"
        }
      ],
      "name": "getLockedBalance",
      "outputs": [
        {
          "name": "",
          "type": "uint256"
        },
        {
          "name": "",
          "type": "uint256"
        }
      ],
      "payable": false,
      "stateMutability": "view",
      "type": "function"
    },
    {
      "constant": false,
      "inputs": [
        {
          "name": "account",
          "type": "address"
        },
        {
          "name": "amount",
          "type": "uint256"
        }
      ],
      "name": "addMinerBalance",
      "outputs": [],
      "payable": false,
      "stateMutability": "nonpayable",
      "type": "function"
    },
    {
      "constant": false,
      "inputs": [
        {
          "name": "account",
          "type": "address"
        },
        {
          "name": "amount",
          "type": "uint256"
        }
      ],
      "name": "burnLocked",
      "outputs": [],
      "payable": false,
      "stateMutability": "nonpayable",
      "type": "function"
    },
    {
      "constant": false,
      "inputs": [
        {
          "name": "account",
          "type": "address"
        },
        {
          "name": "amount",
          "type": "uint256"
        },
        {
          "name": "lockedWorth",
          "type": "uint256"
        }
      ],
      "name": "addlockBalance",
      "outputs": [],
      "payable": false,
      "stateMutability": "nonpayable",
      "type": "function"
    },
    {
      "constant": false,
      "inputs": [
        {
          "name": "recipient",
          "type": "address"
        },
        {
          "name": "amount",
          "type": "uint256"
        }
      ],
      "name": "transfer",
      "outputs": [
        {
          "name": "",
          "type": "bool"
        }
      ],
      "payable": false,
      "stateMutability": "nonpayable",
      "type": "function"
    },
    {
      "constant": false,
      "inputs": [
        {
          "name": "sender",
          "type": "address"
        },
        {
          "name": "recipient",
          "type": "address"
        },
        {
          "name": "amount",
          "type": "uint256"
        }
      ],
      "name": "transferFrom",
      "outputs": [
        {
          "name": "",
          "type": "bool"
        }
      ],
      "payable": false,
      "stateMutability": "nonpayable",
      "type": "function"
    },
    {
      "constant": false,
      "inputs": [
        {
          "name": "account",
          "type": "address"
        },
        {
          "name": "amount",
          "type": "uint256"
        }
      ],
      "name": "burn",
      "outputs": [],
      "payable": false,
      "stateMutability": "nonpayable",
      "type": "function"
    },
    {
      "constant": false,
      "inputs": [
        {
          "name": "account",
          "type": "address"
        },
        {
          "name": "amount",
          "type": "uint256"
        }
      ],
      "name": "mint",
      "outputs": [],
      "payable": false,
      "stateMutability": "nonpayable",
      "type": "function"
    }
  ],
  "bytecode": "0x600060025560c0604052600860808190527f46435420636f696e00000000000000000000000000000000000000000000000060a0908152620000459160069190620001d0565b506040805180820190915260038082527f464354000000000000000000000000000000000000000000000000000000000060209092019182526200008c91600791620001d0565b5060006008553480156200009f57600080fd5b506040516020806200222a833981016040819052905160038054600160a060020a0319163317908190559091600160a060020a0391909116906000907f8be0079c531659141344cd1fd0a4f28419497f9722a3daafe3b4186f6b6457e0908290a362000114816401000000006200011b810204565b5062000272565b6200012e640100000000620001be810204565b15156200019c57604080517f08c379a000000000000000000000000000000000000000000000000000000000815260206004820181905260248201527f4f776e61626c653a2063616c6c6572206973206e6f7420746865206f776e6572604482015290519081900360640190fd5b60048054600160a060020a031916600160a060020a0392909216919091179055565b600354600160a060020a031633145b90565b828054600181600116156101000203166002900490600052602060002090601f016020900481019282601f106200021357805160ff191683800117855562000243565b8280016001018555821562000243579182015b828111156200024357825182559160200191906001019062000226565b506200025192915062000255565b5090565b620001cd91905b808211156200025157600081556001016200025c565b611fa880620002826000396000f30060806040526004361061018a5763ffffffff7c01000000000000000000000000000000000000000000000000000000006000350416630483a7f6811461018f57806306fdde03146101c257806307e77aa01461024c578063095ea7b31461026d57806318160ddd146102a557806323b872dd146102ba57806327e235e3146102e4578063313ce56714610305578063395093511461033057806340c10f19146103545780634b91a07b1461037a57806359355736146103a157806359653ec9146103c25780636f2b70cd146103f357806370a0823114610414578063715018a61461043557806381ee8a2e1461044a5780638399d9f31461046b5780638da5cb5b1461048f5780638f32d59b146104a457806395d89b41146104b95780639dc29fac146104ce578063a457c2d7146104f2578063a9059cbb14610516578063c40868931461053a578063c872e8dc14610574578063d0ebdbe714610598578063d5009584146105b9578063dad3eb74146105ce578063dd62ed3e146105e3578063f2fde38b1461060a575b600080fd5b34801561019b57600080fd5b506101b0600160a060020a036004351661062b565b60408051918252519081900360200190f35b3480156101ce57600080fd5b506101d761063d565b6040805160208082528351818301528351919283929083019185019080838360005b838110156102115781810151838201526020016101f9565b50505050905090810190601f16801561023e5780820380516001836020036101000a031916815260200191505b509250505060405180910390f35b34801561025857600080fd5b506101b0600160a060020a03600435166106cb565b34801561027957600080fd5b50610291600160a060020a03600435166024356106e6565b604080519115158252519081900360200190f35b3480156102b157600080fd5b506101b06106fc565b3480156102c657600080fd5b50610291600160a060020a0360043581169060243516604435610702565b3480156102f057600080fd5b506101b0600160a060020a03600435166107fa565b34801561031157600080fd5b5061031a61080c565b6040805160ff9092168252519081900360200190f35b34801561033c57600080fd5b50610291600160a060020a0360043516602435610811565b34801561036057600080fd5b50610378600160a060020a0360043516602435610852565b005b34801561038657600080fd5b50610378600160a060020a036004351660243560443561099e565b3480156103ad57600080fd5b506101b0600160a060020a0360043516610aa6565b3480156103ce57600080fd5b506103d7610ac1565b60408051600160a060020a039092168252519081900360200190f35b3480156103ff57600080fd5b50610378600160a060020a0360043516610ad0565b34801561042057600080fd5b506101b0600160a060020a0360043516610b4b565b34801561044157600080fd5b50610378610b66565b34801561045657600080fd5b506101b0600160a060020a0360043516610c09565b34801561047757600080fd5b50610378600160a060020a0360043516602435610c1b565b34801561049b57600080fd5b506103d7610d0d565b3480156104b057600080fd5b50610291610d1c565b3480156104c557600080fd5b506101d7610d2d565b3480156104da57600080fd5b50610378600160a060020a0360043516602435610d88565b3480156104fe57600080fd5b50610291600160a060020a0360043516602435610ed0565b34801561052257600080fd5b50610291600160a060020a0360043516602435610f69565b34801561054657600080fd5b5061055b600160a060020a036004351661105a565b6040805192835260208301919091528051918290030190f35b34801561058057600080fd5b50610378600160a060020a0360043516602435611082565b3480156105a457600080fd5b50610378600160a060020a03600435166111f6565b3480156105c557600080fd5b506103d7611271565b3480156105da57600080fd5b506101b0611280565b3480156105ef57600080fd5b506101b0600160a060020a0360043581169060243516611286565b34801561061657600080fd5b50610378600160a060020a03600435166112b1565b60096020526000908152604090205481565b6006805460408051602060026001851615610100026000190190941693909304601f810184900484028201840190925281815292918301828280156106c35780601f10610698576101008083540402835291602001916106c3565b820191906000526020600020905b8154815290600101906020018083116106a657829003601f168201915b505050505081565b600160a060020a03166000908152600a602052604090205490565b60006106f3338484611309565b50600192915050565b60025490565b600454600090600160a060020a03161515610755576040805160e560020a62461bcd0281526020600482015260166024820152600080516020611f5d833981519152604482015290519081900360640190fd5b60048054604080517fef56807f000000000000000000000000000000000000000000000000000000008152600160a060020a03888116948201949094528684166024820152604481018690529051929091169163ef56807f9160648082019260009290919082900301818387803b1580156107cf57600080fd5b505af11580156107e3573d6000803e3d6000fd5b505050506107f2848484611476565b949350505050565b60006020819052908152604090205481565b601281565b336000818152600160209081526040808320600160a060020a038716845290915281205490916106f391859061084d908663ffffffff61152416565b611309565b600554600160a060020a031633146108b6576040805160e560020a62461bcd0281526020600482015260266024820152600080516020611efd8339815191526044820152600080516020611f1d833981519152606482015290519081900360840190fd5b600454600160a060020a03161515610906576040805160e560020a62461bcd0281526020600482015260166024820152600080516020611f5d833981519152604482015290519081900360640190fd5b60048054604080517f8af2a470000000000000000000000000000000000000000000000000000000008152600160a060020a03868116948201949094526024810185905290519290911691638af2a4709160448082019260009290919082900301818387803b15801561097857600080fd5b505af115801561098c573d6000803e3d6000fd5b5050505061099a828261158c565b5050565b600554600160a060020a03163314610a02576040805160e560020a62461bcd0281526020600482015260266024820152600080516020611efd8339815191526044820152600080516020611f1d833981519152606482015290519081900360840190fd5b60048054604080517f2a04d0c7000000000000000000000000000000000000000000000000000000008152600160a060020a03878116948201949094526024810186905290519290911691632a04d0c79160448082019260009290919082900301818387803b158015610a7457600080fd5b505af1158015610a88573d6000803e3d6000fd5b50505050610a968383611651565b610aa1838383611720565b505050565b600160a060020a031660009081526009602052604090205490565b600454600160a060020a031690565b610ad8610d1c565b1515610b1c576040805160e560020a62461bcd0281526020600482018190526024820152600080516020611f3d833981519152604482015290519081900360640190fd5b6004805473ffffffffffffffffffffffffffffffffffffffff1916600160a060020a0392909216919091179055565b600160a060020a031660009081526020819052604090205490565b610b6e610d1c565b1515610bb2576040805160e560020a62461bcd0281526020600482018190526024820152600080516020611f3d833981519152604482015290519081900360640190fd5b600354604051600091600160a060020a0316907f8be0079c531659141344cd1fd0a4f28419497f9722a3daafe3b4186f6b6457e0908390a36003805473ffffffffffffffffffffffffffffffffffffffff19169055565b600a6020526000908152604090205481565b600554600160a060020a03163314610c7f576040805160e560020a62461bcd0281526020600482015260266024820152600080516020611efd8339815191526044820152600080516020611f1d833981519152606482015290519081900360840190fd5b60048054604080517f8399d9f3000000000000000000000000000000000000000000000000000000008152600160a060020a03868116948201949094526024810185905290519290911691638399d9f39160448082019260009290919082900301818387803b158015610cf157600080fd5b505af1158015610d05573d6000803e3d6000fd5b505050505050565b600354600160a060020a031690565b600354600160a060020a0316331490565b6007805460408051602060026001851615610100026000190190941693909304601f810184900484028201840190925281815292918301828280156106c35780601f10610698576101008083540402835291602001916106c3565b600554600160a060020a03163314610dec576040805160e560020a62461bcd0281526020600482015260266024820152600080516020611efd8339815191526044820152600080516020611f1d833981519152606482015290519081900360840190fd5b600454600160a060020a03161515610e3c576040805160e560020a62461bcd0281526020600482015260166024820152600080516020611f5d833981519152604482015290519081900360640190fd5b60048054604080517f2a04d0c7000000000000000000000000000000000000000000000000000000008152600160a060020a03868116948201949094526024810185905290519290911691632a04d0c79160448082019260009290919082900301818387803b158015610eae57600080fd5b505af1158015610ec2573d6000803e3d6000fd5b5050505061099a82826117f5565b60408051606081018252602581527f45524332303a2064656372656173656420616c6c6f77616e63652062656c6f776020808301919091527f207a65726f0000000000000000000000000000000000000000000000000000008284015233600081815260018352848120600160a060020a03881682529092529281205490926106f3929091869161084d9190879063ffffffff6118e016565b600454600090600160a060020a03161515610fbc576040805160e560020a62461bcd0281526020600482015260166024820152600080516020611f5d833981519152604482015290519081900360640190fd5b60048054604080517fef56807f0000000000000000000000000000000000000000000000000000000081523393810193909352600160a060020a03868116602485015260448401869052905191169163ef56807f91606480830192600092919082900301818387803b15801561103157600080fd5b505af1158015611045573d6000803e3d6000fd5b50505050611053838361197d565b9392505050565b600160a060020a0316600090815260096020908152604080832054600a909252909120549091565b60055460009081908190600160a060020a031633146110ed576040805160e560020a62461bcd0281526020600482015260266024820152600080516020611efd8339815191526044820152600080516020611f1d833981519152606482015290519081900360840190fd5b600160a060020a038516600090815260096020526040902054925082841115611186576040805160e560020a62461bcd02815260206004820152602360248201527f6275726e4c6f636b65643a2062616c616e636520697320696e7375666669636960448201527f656e740000000000000000000000000000000000000000000000000000000000606482015290519081900360840190fd5b60008311156111ef57600160a060020a0385166000908152600a60205260409020549150838314156111c2576111bd85848461198a565b6111ef565b6111e26111d5838563ffffffff611a5f16565b859063ffffffff611aa116565b90506111ef85858361198a565b5050505050565b6111fe610d1c565b1515611242576040805160e560020a62461bcd0281526020600482018190526024820152600080516020611f3d833981519152604482015290519081900360640190fd5b6005805473ffffffffffffffffffffffffffffffffffffffff1916600160a060020a0392909216919091179055565b600554600160a060020a031690565b60085490565b600160a060020a03918216600090815260016020908152604080832093909416825291909152205490565b6112b9610d1c565b15156112fd576040805160e560020a62461bcd0281526020600482018190526024820152600080516020611f3d833981519152604482015290519081900360640190fd5b61130681611b40565b50565b600160a060020a038316151561138e576040805160e560020a62461bcd028152602060048201526024808201527f45524332303a20617070726f76652066726f6d20746865207a65726f2061646460448201527f7265737300000000000000000000000000000000000000000000000000000000606482015290519081900360840190fd5b600160a060020a0382161515611414576040805160e560020a62461bcd02815260206004820152602260248201527f45524332303a20617070726f766520746f20746865207a65726f20616464726560448201527f7373000000000000000000000000000000000000000000000000000000000000606482015290519081900360840190fd5b600160a060020a03808416600081815260016020908152604080832094871680845294825291829020859055815185815291517f8c5be1e5ebec7d5bd14f71427d1e84f3dd0314c0f7b2291e5b200ac8c7c3b9259281900390910190a3505050565b6000611483848484611c2f565b60408051606081018252602881527f45524332303a207472616e7366657220616d6f756e74206578636565647320616020808301919091527f6c6c6f77616e636500000000000000000000000000000000000000000000000082840152600160a060020a038716600090815260018252838120338083529252929092205461151a928792909161084d91879063ffffffff6118e016565b5060019392505050565b600082820183811015611581576040805160e560020a62461bcd02815260206004820152601b60248201527f536166654d6174683a206164646974696f6e206f766572666c6f770000000000604482015290519081900360640190fd5b8091505b5092915050565b600160a060020a03821615156115ec576040805160e560020a62461bcd02815260206004820152601f60248201527f45524332303a206d696e7420746f20746865207a65726f206164647265737300604482015290519081900360640190fd5b6002546115ff908263ffffffff61152416565b60025561160c8282611d9f565b604080518281529051600160a060020a038416916000917fddf252ad1be2c89b69c2b068fc378daa952ba7f163c4a11628f55a4df523b3ef9181900360200190a35050565b600160a060020a03821615156116d7576040805160e560020a62461bcd02815260206004820152602360248201527f45524332303a207472616e7366657220746f20746865207a65726f206164647260448201527f6573730000000000000000000000000000000000000000000000000000000000606482015290519081900360840190fd5b600160a060020a038216600090815260208190526040902054611700908263ffffffff611e4e16565b600160a060020a0390921660009081526020819052604090209190915550565b600160a060020a038316600090815260096020526040902054611749908363ffffffff61152416565b600160a060020a038416600090815260096020908152604080832093909355600a9052205461177e908263ffffffff61152416565b600160a060020a0384166000908152600a60205260409020556008546117aa908263ffffffff61152416565b60085560408051838152602081018390528151600160a060020a038616927f8eb48086ad9abd7f3270b68172da958c7507500a9e0c8a9897a5c85ae7d8c0e9928290030190a2505050565b600160a060020a038216151561187b576040805160e560020a62461bcd02815260206004820152602160248201527f45524332303a206275726e2066726f6d20746865207a65726f2061646472657360448201527f7300000000000000000000000000000000000000000000000000000000000000606482015290519081900360840190fd5b6118858282611651565b600254611898908263ffffffff611e4e16565b600255604080518281529051600091600160a060020a038516917fddf252ad1be2c89b69c2b068fc378daa952ba7f163c4a11628f55a4df523b3ef9181900360200190a35050565b60008082858511156119735760405160e560020a62461bcd0281526004018080602001828103825283818151815260200191508051906020019080838360005b83811015611938578181015183820152602001611920565b50505050905090810190601f1680156119655780820380516001836020036101000a031916815260200191505b509250505060405180910390fd5b5050509103919050565b60006106f3338484611c2f565b600160a060020a0383166000908152600960205260409020546119b3908363ffffffff611e4e16565b600160a060020a038416600090815260096020908152604080832093909355600a905220546119e8908263ffffffff611e4e16565b600160a060020a0384166000908152600a6020526040902055600854611a14908263ffffffff611e4e16565b60085560408051838152602081018390528151600160a060020a038616927f3eff168ce30c25c5e643633b70f58850a0085c0a411d1b53e501a655a90bae1a928290030190a2505050565b600061105383836040805190810160405280601a81526020017f536166654d6174683a206469766973696f6e206279207a65726f000000000000815250611e90565b600080831515611ab45760009150611585565b50828202828482811515611ac457fe5b0414611581576040805160e560020a62461bcd02815260206004820152602160248201527f536166654d6174683a206d756c7469706c69636174696f6e206f766572666c6f60448201527f7700000000000000000000000000000000000000000000000000000000000000606482015290519081900360840190fd5b600160a060020a0381161515611bc6576040805160e560020a62461bcd02815260206004820152602660248201527f4f776e61626c653a206e6577206f776e657220697320746865207a65726f206160448201527f6464726573730000000000000000000000000000000000000000000000000000606482015290519081900360840190fd5b600354604051600160a060020a038084169216907f8be0079c531659141344cd1fd0a4f28419497f9722a3daafe3b4186f6b6457e090600090a36003805473ffffffffffffffffffffffffffffffffffffffff1916600160a060020a0392909216919091179055565b600160a060020a0383161515611cb5576040805160e560020a62461bcd02815260206004820152602560248201527f45524332303a207472616e736665722066726f6d20746865207a65726f20616460448201527f6472657373000000000000000000000000000000000000000000000000000000606482015290519081900360840190fd5b600160a060020a0382161515611d3b576040805160e560020a62461bcd02815260206004820152602360248201527f45524332303a207472616e7366657220746f20746865207a65726f206164647260448201527f6573730000000000000000000000000000000000000000000000000000000000606482015290519081900360840190fd5b611d458382611651565b611d4f8282611d9f565b81600160a060020a031683600160a060020a03167fddf252ad1be2c89b69c2b068fc378daa952ba7f163c4a11628f55a4df523b3ef836040518082815260200191505060405180910390a3505050565b600160a060020a0382161515611e25576040805160e560020a62461bcd02815260206004820152602360248201527f45524332303a207472616e7366657220746f20746865207a65726f206164647260448201527f6573730000000000000000000000000000000000000000000000000000000000606482015290519081900360840190fd5b600160a060020a038216600090815260208190526040902054611700908263ffffffff61152416565b600061105383836040805190810160405280601e81526020017f536166654d6174683a207375627472616374696f6e206f766572666c6f7700008152506118e0565b60008082818511611ee65760405160e560020a62461bcd02815260040180806020018281038252838181518152602001915080519060200190808383600083811015611938578181015183820152602001611920565b508385811515611ef257fe5b049594505050505056004d616e6167657261626c653a2063616c6c6572206973206e6f7420746865204d616e6167657200000000000000000000000000000000000000000000000000004f776e61626c653a2063616c6c6572206973206e6f7420746865206f776e6572466e784d696e65506f6f6c206973206e6f742073657400000000000000000000a165627a7a72305820cf6ee94df8a40a5bee6df52256999b1abe2a79a5024c1adaa628d87ad4a0494f0029",
  "source": "pragma solidity ^0.4.26;\r\nimport \"./SharedCoin.sol\";\r\nimport \"./modules/SafeMath.sol\";\r\nimport \"./modules/Managerable.sol\";\r\nimport \"./interfaces/IFNXMinePool.sol\";\r\ncontract FCTCoin is SharedCoin,ImportFNXMinePool,Managerable {\r\n    using SafeMath for uint256;\r\n    string public name = \"FCT coin\";\r\n    string public symbol = \"FCT\";\r\n    \r\n    uint256 internal _totalLockedWorth = 0;\r\n    mapping (address => uint256) public lockedBalances;\r\n    mapping (address => uint256) public lockedTotalWorth;\r\n\r\n    event AddLocked(address indexed owner, uint256 amount,uint256 worth);\r\n    event BurnLocked(address indexed owner, uint256 amount,uint256 worth);\r\n    constructor (address minePoolAddr) public{\r\n        setFNXMinePoolAddress(minePoolAddr);\r\n    }\r\n    function getTotalLockedWorth() public view returns (uint256) {\r\n        return _totalLockedWorth;\r\n    }\r\n    function lockedBalanceOf(address account) public view returns (uint256) {\r\n        return lockedBalances[account];\r\n    }\r\n    function lockedWorthOf(address account) public view returns (uint256) {\r\n        return lockedTotalWorth[account];\r\n    }\r\n    function getLockedBalance(address account) public view returns (uint256,uint256) {\r\n        return (lockedBalances[account],lockedTotalWorth[account]);\r\n    }\r\n    function addMinerBalance(address account,uint256 amount) public onlyManager{\r\n        _FnxMinePool.addMinerBalance(account,amount);\r\n    }\r\n    function burnLocked(address account, uint256 amount) public onlyManager{\r\n        uint256 lockedAmount = lockedBalances[account];\r\n        require(amount<=lockedAmount,\"burnLocked: balance is insufficient\");\r\n        if(lockedAmount>0){\r\n            uint256 lockedWorth = lockedTotalWorth[account];\r\n            if (amount == lockedAmount){\r\n                _subLockBalance(account,lockedAmount,lockedWorth);\r\n            }else{\r\n                uint256 burnWorth = amount.mul(lockedWorth.div(lockedAmount));\r\n                _subLockBalance(account,amount,burnWorth);\r\n            }\r\n        }\r\n    }\r\n    function addlockBalance(address account, uint256 amount,uint256 lockedWorth)public onlyManager {\r\n        _FnxMinePool.burnMinerCoin(account,amount);\r\n        _subBalance(account,amount);\r\n        _addLockBalance(account,amount,lockedWorth);\r\n    }\r\n    function transfer(address recipient, uint256 amount)public returns (bool){\r\n        require(address(_FnxMinePool) != address(0),\"FnxMinePool is not set\");\r\n        _FnxMinePool.transferMinerCoin(msg.sender,recipient,amount);\r\n        return SharedCoin.transfer(recipient,amount);\r\n    }\r\n    function transferFrom(address sender, address recipient, uint256 amount)public returns (bool){\r\n        require(address(_FnxMinePool) != address(0),\"FnxMinePool is not set\");\r\n        _FnxMinePool.transferMinerCoin(sender,recipient,amount);\r\n        return SharedCoin.transferFrom(sender,recipient,amount);\r\n    }\r\n    function burn(address account, uint256 amount) public onlyManager {\r\n        require(address(_FnxMinePool) != address(0),\"FnxMinePool is not set\");\r\n        _FnxMinePool.burnMinerCoin(account,amount);\r\n        SharedCoin._burn(account,amount);\r\n    }\r\n    function mint(address account, uint256 amount) public onlyManager {\r\n        require(address(_FnxMinePool) != address(0),\"FnxMinePool is not set\");\r\n        _FnxMinePool.mintMinerCoin(account,amount);\r\n        SharedCoin._mint(account,amount);\r\n    }\r\n    function _addLockBalance(address account, uint256 amount,uint256 lockedWorth)internal {\r\n        lockedBalances[account]= lockedBalances[account].add(amount);\r\n        lockedTotalWorth[account]= lockedTotalWorth[account].add(lockedWorth);\r\n        _totalLockedWorth = _totalLockedWorth.add(lockedWorth);\r\n        emit AddLocked(account, amount,lockedWorth);\r\n    }\r\n    function _subLockBalance(address account,uint256 amount,uint256 lockedWorth)internal {\r\n        lockedBalances[account]= lockedBalances[account].sub(amount);\r\n        lockedTotalWorth[account]= lockedTotalWorth[account].sub(lockedWorth);\r\n        _totalLockedWorth = _totalLockedWorth.sub(lockedWorth);\r\n        emit BurnLocked(account, amount,lockedWorth);\r\n    }\r\n}\r\n",
  "sourcePath": "C:\\work\\solidity\\FinnexusOptions_V2\\contracts\\FCTCoin.sol",
  "compiler": {
    "name": "solc",
    "version": "0.4.26+commit.4563c3fc.Emscripten.clang"
  },
  "schemaVersion": "3.1.0",
  "updatedAt": "2020-07-29T14:43:43.219Z",
  "devdoc": {
    "methods": {
      "allowance(address,address)": {
        "details": "See {IERC20-allowance}.\r"
      },
      "approve(address,uint256)": {
        "details": "See {IERC20-approve}.\r      * Requirements:\r      * - `spender` cannot be the zero address.\r"
      },
      "balanceOf(address)": {
        "details": "See {IERC20-balanceOf}.\r"
      },
      "decreaseAllowance(address,uint256)": {
        "details": "Atomically decreases the allowance granted to `spender` by the caller.\r      * This is an alternative to {approve} that can be used as a mitigation for\r problems described in {IERC20-approve}.\r      * Emits an {Approval} event indicating the updated allowance.\r      * Requirements:\r      * - `spender` cannot be the zero address.\r - `spender` must have allowance for the caller of at least\r `subtractedValue`.\r"
      },
      "increaseAllowance(address,uint256)": {
        "details": "Atomically increases the allowance granted to `spender` by the caller.\r      * This is an alternative to {approve} that can be used as a mitigation for\r problems described in {IERC20-approve}.\r      * Emits an {Approval} event indicating the updated allowance.\r      * Requirements:\r      * - `spender` cannot be the zero address.\r"
      },
      "isOwner()": {
        "details": "Returns true if the caller is the current owner."
      },
      "owner()": {
        "details": "Returns the address of the current owner."
      },
      "renounceOwnership()": {
        "details": "Leaves the contract without owner. It will not be possible to call `onlyOwner` functions anymore. Can only be called by the current owner.     * NOTE: Renouncing ownership will leave the contract without an owner, thereby removing any functionality that is only available to the owner."
      },
      "totalSupply()": {
        "details": "See {IERC20-totalSupply}.\r"
      },
      "transferOwnership(address)": {
        "details": "Transfers ownership of the contract to a new account (`newOwner`). Can only be called by the current owner."
      }
    }
  },
  "userdoc": {
    "methods": {
      "setManager(address)": {
        "notice": "contribution period to stop or not."
      }
    }
  }
}