{
  "contractName": "FNXCoin",
  "abi": [
    {
      "inputs": [],
      "payable": false,
      "stateMutability": "nonpayable",
      "type": "constructor"
    },
    {
      "anonymous": false,
      "inputs": [
        {
          "indexed": true,
          "internalType": "address",
          "name": "owner",
          "type": "address"
        },
        {
          "indexed": true,
          "internalType": "address",
          "name": "spender",
          "type": "address"
        },
        {
          "indexed": false,
          "internalType": "uint256",
          "name": "value",
          "type": "uint256"
        }
      ],
      "name": "Approval",
      "type": "event"
    },
    {
      "anonymous": false,
      "inputs": [
        {
          "indexed": true,
          "internalType": "address",
          "name": "previousOwner",
          "type": "address"
        },
        {
          "indexed": true,
          "internalType": "address",
          "name": "newOwner",
          "type": "address"
        }
      ],
      "name": "OwnershipTransferred",
      "type": "event"
    },
    {
      "anonymous": false,
      "inputs": [
        {
          "indexed": true,
          "internalType": "address",
          "name": "from",
          "type": "address"
        },
        {
          "indexed": true,
          "internalType": "address",
          "name": "to",
          "type": "address"
        },
        {
          "indexed": false,
          "internalType": "uint256",
          "name": "value",
          "type": "uint256"
        }
      ],
      "name": "Transfer",
      "type": "event"
    },
    {
      "constant": true,
      "inputs": [],
      "name": "decimals",
      "outputs": [
        {
          "internalType": "uint8",
          "name": "",
          "type": "uint8"
        }
      ],
      "payable": false,
      "stateMutability": "view",
      "type": "function"
    },
    {
      "constant": true,
      "inputs": [
        {
          "internalType": "uint256",
          "name": "item",
          "type": "uint256"
        }
      ],
      "name": "getItemTimeLimitation",
      "outputs": [
        {
          "internalType": "uint256",
          "name": "",
          "type": "uint256"
        }
      ],
      "payable": false,
      "stateMutability": "view",
      "type": "function"
    },
    {
      "constant": true,
      "inputs": [],
      "name": "getTimeLimitation",
      "outputs": [
        {
          "internalType": "uint256",
          "name": "",
          "type": "uint256"
        }
      ],
      "payable": false,
      "stateMutability": "view",
      "type": "function"
    },
    {
      "constant": true,
      "inputs": [],
      "name": "isOwner",
      "outputs": [
        {
          "internalType": "bool",
          "name": "",
          "type": "bool"
        }
      ],
      "payable": false,
      "stateMutability": "view",
      "type": "function"
    },
    {
      "constant": true,
      "inputs": [],
      "name": "name",
      "outputs": [
        {
          "internalType": "string",
          "name": "",
          "type": "string"
        }
      ],
      "payable": false,
      "stateMutability": "view",
      "type": "function"
    },
    {
      "constant": true,
      "inputs": [],
      "name": "owner",
      "outputs": [
        {
          "internalType": "address",
          "name": "",
          "type": "address"
        }
      ],
      "payable": false,
      "stateMutability": "view",
      "type": "function"
    },
    {
      "constant": false,
      "inputs": [],
      "name": "renounceOwnership",
      "outputs": [],
      "payable": false,
      "stateMutability": "nonpayable",
      "type": "function"
    },
    {
      "constant": false,
      "inputs": [
        {
          "internalType": "uint256",
          "name": "_limitation",
          "type": "uint256"
        }
      ],
      "name": "setTimeLimitation",
      "outputs": [],
      "payable": false,
      "stateMutability": "nonpayable",
      "type": "function"
    },
    {
      "constant": true,
      "inputs": [],
      "name": "symbol",
      "outputs": [
        {
          "internalType": "string",
          "name": "",
          "type": "string"
        }
      ],
      "payable": false,
      "stateMutability": "view",
      "type": "function"
    },
    {
      "constant": false,
      "inputs": [
        {
          "internalType": "address",
          "name": "newOwner",
          "type": "address"
        }
      ],
      "name": "transferOwnership",
      "outputs": [],
      "payable": false,
      "stateMutability": "nonpayable",
      "type": "function"
    },
    {
      "constant": false,
      "inputs": [],
      "name": "initialize",
      "outputs": [],
      "payable": false,
      "stateMutability": "nonpayable",
      "type": "function"
    },
    {
      "constant": true,
      "inputs": [],
      "name": "totalSupply",
      "outputs": [
        {
          "internalType": "uint256",
          "name": "",
          "type": "uint256"
        }
      ],
      "payable": false,
      "stateMutability": "view",
      "type": "function"
    },
    {
      "constant": true,
      "inputs": [
        {
          "internalType": "address",
          "name": "account",
          "type": "address"
        }
      ],
      "name": "balanceOf",
      "outputs": [
        {
          "internalType": "uint256",
          "name": "",
          "type": "uint256"
        }
      ],
      "payable": false,
      "stateMutability": "view",
      "type": "function"
    },
    {
      "constant": false,
      "inputs": [
        {
          "internalType": "address",
          "name": "recipient",
          "type": "address"
        },
        {
          "internalType": "uint256",
          "name": "amount",
          "type": "uint256"
        }
      ],
      "name": "transfer",
      "outputs": [
        {
          "internalType": "bool",
          "name": "",
          "type": "bool"
        }
      ],
      "payable": false,
      "stateMutability": "nonpayable",
      "type": "function"
    },
    {
      "constant": true,
      "inputs": [
        {
          "internalType": "address",
          "name": "owner",
          "type": "address"
        },
        {
          "internalType": "address",
          "name": "spender",
          "type": "address"
        }
      ],
      "name": "allowance",
      "outputs": [
        {
          "internalType": "uint256",
          "name": "",
          "type": "uint256"
        }
      ],
      "payable": false,
      "stateMutability": "view",
      "type": "function"
    },
    {
      "constant": false,
      "inputs": [
        {
          "internalType": "address",
          "name": "spender",
          "type": "address"
        },
        {
          "internalType": "uint256",
          "name": "amount",
          "type": "uint256"
        }
      ],
      "name": "approve",
      "outputs": [
        {
          "internalType": "bool",
          "name": "",
          "type": "bool"
        }
      ],
      "payable": false,
      "stateMutability": "nonpayable",
      "type": "function"
    },
    {
      "constant": false,
      "inputs": [
        {
          "internalType": "address",
          "name": "sender",
          "type": "address"
        },
        {
          "internalType": "address",
          "name": "recipient",
          "type": "address"
        },
        {
          "internalType": "uint256",
          "name": "amount",
          "type": "uint256"
        }
      ],
      "name": "transferFrom",
      "outputs": [
        {
          "internalType": "bool",
          "name": "",
          "type": "bool"
        }
      ],
      "payable": false,
      "stateMutability": "nonpayable",
      "type": "function"
    },
    {
      "constant": false,
      "inputs": [
        {
          "internalType": "address",
          "name": "spender",
          "type": "address"
        },
        {
          "internalType": "uint256",
          "name": "addedValue",
          "type": "uint256"
        }
      ],
      "name": "increaseAllowance",
      "outputs": [
        {
          "internalType": "bool",
          "name": "",
          "type": "bool"
        }
      ],
      "payable": false,
      "stateMutability": "nonpayable",
      "type": "function"
    },
    {
      "constant": false,
      "inputs": [
        {
          "internalType": "address",
          "name": "spender",
          "type": "address"
        },
        {
          "internalType": "uint256",
          "name": "subtractedValue",
          "type": "uint256"
        }
      ],
      "name": "decreaseAllowance",
      "outputs": [
        {
          "internalType": "bool",
          "name": "",
          "type": "bool"
        }
      ],
      "payable": false,
      "stateMutability": "nonpayable",
      "type": "function"
    },
    {
      "constant": false,
      "inputs": [
        {
          "internalType": "address",
          "name": "account",
          "type": "address"
        },
        {
          "internalType": "uint256",
          "name": "amount",
          "type": "uint256"
        }
      ],
      "name": "mint",
      "outputs": [
        {
          "internalType": "bool",
          "name": "",
          "type": "bool"
        }
      ],
      "payable": false,
      "stateMutability": "nonpayable",
      "type": "function"
    }
  ],
  "bytecode": "0x6080604052610e106007553480156200001757600080fd5b5060008054600160a060020a0319163317808255604051600160a060020a039190911691907f8be0079c531659141344cd1fd0a4f28419497f9722a3daafe3b4186f6b6457e0908290a3620000746401000000006200007a810204565b620003c9565b6200008d64010000000062000315810204565b620000f957604080517f08c379a000000000000000000000000000000000000000000000000000000000815260206004820181905260248201527f4f776e61626c653a2063616c6c6572206973206e6f7420746865206f776e6572604482015290519081900360640190fd5b6040805180820190915260078082527f464e58436f696e0000000000000000000000000000000000000000000000000060209092019182526200013f9160019162000327565b506040805180820190915260038082527f464e5800000000000000000000000000000000000000000000000000000000006020909201918252620001869160029162000327565b506c7e37be2022c0914b26800000006005553360009081526003602052604081206c0c9f2c9cd04674edea40000000908190557ffa3aaab349dd63b009ba8f13c26a0ddc8df4c395f19c33783da8d6c00ebf9c8d8190557ff148a2b7ac47ea0be6aac55acff59a536586887a6d89df87d4d394f24dd5eeda8190557ff363fbfbe23e74e1a729dd08885fe6ab1401a213fe3b12f1992f02659fdb45818190557ffca7d3d718ffd2f9bbca26a0729cfb49d5f9865f202ed32d745778ac66fbc9af8190557f6461b1cc4baf3ae32fa45fec7bff37e10b36b0bfb1eeec2c7a784be9e263d2848190557f4be4d97a3c2077629e77869ea0707b007c502cef618a11e09c69db42a1f4ba368190557f8fc202e296d6e054dea3e3e3b854c4c362a0b46b28b2b56fb137d63bc10dae9c8190557fdd267cb1d70821c439141b90e93c3c7b106815fff3813f980dd728fa5a95861a81905573ba096024056bb653c6e28f53c8889bfc3553bad89091527f41e6df7f84fe918b7e987fe897adee2da01fb5d96e0683a93bad6aca44d9f0a755565b600054600160a060020a031633145b90565b828054600181600116156101000203166002900490600052602060002090601f016020900481019282601f106200036a57805160ff19168380011785556200039a565b828001600101855582156200039a579182015b828111156200039a5782518255916020019190600101906200037d565b50620003a8929150620003ac565b5090565b6200032491905b80821115620003a85760008155600101620003b3565b6111f380620003d96000396000f3fe608060405234801561001057600080fd5b5060043610610149576000357c010000000000000000000000000000000000000000000000000000000090048063715018a6116100ca5780639783cbd91161008e5780639783cbd914610362578063a457c2d71461037f578063a9059cbb146103ab578063dd62ed3e146103d7578063f2fde38b1461040557610149565b8063715018a61461031c5780638129fc1c146103265780638da5cb5b1461032e5780638f32d59b1461035257806395d89b411461035a57610149565b8063313ce56711610111578063313ce56714610278578063395093511461029657806340c10f19146102c25780634688d5d6146102ee57806370a08231146102f657610149565b806306fdde031461014e578063095ea7b3146101cb57806318160ddd1461020b57806323b872dd146102255780632a75ee421461025b575b600080fd5b61015661042b565b6040805160208082528351818301528351919283929083019185019080838360005b83811015610190578181015183820152602001610178565b50505050905090810190601f1680156101bd5780820380516001836020036101000a031916815260200191505b509250505060405180910390f35b6101f7600480360360408110156101e157600080fd5b50600160a060020a0381351690602001356104b8565b604080519115158252519081900360200190f35b6102136104cf565b60408051918252519081900360200190f35b6101f76004803603606081101561023b57600080fd5b50600160a060020a038135811691602081013590911690604001356104d6565b6102136004803603602081101561027157600080fd5b503561052d565b610280610544565b6040805160ff9092168252519081900360200190f35b6101f7600480360360408110156102ac57600080fd5b50600160a060020a038135169060200135610549565b6101f7600480360360408110156102d857600080fd5b50600160a060020a038135169060200135610585565b610213610679565b6102136004803603602081101561030c57600080fd5b5035600160a060020a031661067f565b61032461069a565b005b61032461073b565b61033661099d565b60408051600160a060020a039092168252519081900360200190f35b6101f76109ac565b6101566109bd565b6103246004803603602081101561037857600080fd5b5035610a15565b6101f76004803603604081101561039557600080fd5b50600160a060020a038135169060200135610a64565b6101f7600480360360408110156103c157600080fd5b50600160a060020a038135169060200135610aa0565b610213600480360360408110156103ed57600080fd5b50600160a060020a0381358116916020013516610aad565b6103246004803603602081101561041b57600080fd5b5035600160a060020a0316610ad8565b60018054604080516020600284861615610100026000190190941693909304601f810184900484028201840190925281815292918301828280156104b05780601f10610485576101008083540402835291602001916104b0565b820191906000526020600020905b81548152906001019060200180831161049357829003601f168201915b505050505081565b60006104c5338484610b2e565b5060015b92915050565b6005545b90565b60006104e3848484610c20565b600160a060020a03841660009081526004602090815260408083203380855292529091205461052391869161051e908663ffffffff610d1416565b610b2e565b5060019392505050565b600754600091825260066020526040909120540190565b601281565b336000818152600460209081526040808320600160a060020a038716845290915281205490916104c591859061051e908663ffffffff610d6f16565b600754600160a060020a0383166000818152600660205260408120549092429101106105fb576040805160e560020a62461bcd02815260206004820152601f60248201527f54696d65206c696d69746174696f6e206973206e6f7420657870697265642100604482015290519081900360640190fd5b61060d84600160a060020a0316610dca565b69152d02c7e14af680000083111561066f576040805160e560020a62461bcd02815260206004820152601660248201527f6f7574206f66206d696e74206c696d69746174696f6e00000000000000000000604482015290519081900360640190fd5b6105238484610ddd565b60075490565b600160a060020a031660009081526003602052604090205490565b6106a26109ac565b6106e4576040805160e560020a62461bcd0281526020600482018190526024820152600080516020611156833981519152604482015290519081900360640190fd5b60008054604051600160a060020a03909116907f8be0079c531659141344cd1fd0a4f28419497f9722a3daafe3b4186f6b6457e0908390a36000805473ffffffffffffffffffffffffffffffffffffffff19169055565b6107436109ac565b610785576040805160e560020a62461bcd0281526020600482018190526024820152600080516020611156833981519152604482015290519081900360640190fd5b6040805180820190915260078082527f464e58436f696e0000000000000000000000000000000000000000000000000060209092019182526107c991600191611052565b506040805180820190915260038082527f464e580000000000000000000000000000000000000000000000000000000000602090920191825261080e91600291611052565b506c7e37be2022c0914b26800000006005553360009081526003602052604081206c0c9f2c9cd04674edea40000000908190557ffa3aaab349dd63b009ba8f13c26a0ddc8df4c395f19c33783da8d6c00ebf9c8d8190557ff148a2b7ac47ea0be6aac55acff59a536586887a6d89df87d4d394f24dd5eeda8190557ff363fbfbe23e74e1a729dd08885fe6ab1401a213fe3b12f1992f02659fdb45818190557ffca7d3d718ffd2f9bbca26a0729cfb49d5f9865f202ed32d745778ac66fbc9af8190557f6461b1cc4baf3ae32fa45fec7bff37e10b36b0bfb1eeec2c7a784be9e263d2848190557f4be4d97a3c2077629e77869ea0707b007c502cef618a11e09c69db42a1f4ba368190557f8fc202e296d6e054dea3e3e3b854c4c362a0b46b28b2b56fb137d63bc10dae9c8190557fdd267cb1d70821c439141b90e93c3c7b106815fff3813f980dd728fa5a95861a81905573ba096024056bb653c6e28f53c8889bfc3553bad89091527f41e6df7f84fe918b7e987fe897adee2da01fb5d96e0683a93bad6aca44d9f0a755565b600054600160a060020a031690565b600054600160a060020a0316331490565b6002805460408051602060018416156101000260001901909316849004601f810184900484028201840190925281815292918301828280156104b05780601f10610485576101008083540402835291602001916104b0565b610a1d6109ac565b610a5f576040805160e560020a62461bcd0281526020600482018190526024820152600080516020611156833981519152604482015290519081900360640190fd5b600755565b336000818152600460209081526040808320600160a060020a038716845290915281205490916104c591859061051e908663ffffffff610d1416565b60006104c5338484610c20565b600160a060020a03918216600090815260046020908152604080832093909416825291909152205490565b610ae06109ac565b610b22576040805160e560020a62461bcd0281526020600482018190526024820152600080516020611156833981519152604482015290519081900360640190fd5b610b2b81610ea0565b50565b600160a060020a038316610b765760405160e560020a62461bcd02815260040180806020018281038252602481526020018061119b6024913960400191505060405180910390fd5b600160a060020a038216610bbe5760405160e560020a62461bcd0281526004018080602001828103825260228152602001806111346022913960400191505060405180910390fd5b600160a060020a03808416600081815260046020908152604080832094871680845294825291829020859055815185815291517f8c5be1e5ebec7d5bd14f71427d1e84f3dd0314c0f7b2291e5b200ac8c7c3b9259281900390910190a3505050565b600160a060020a038316610c685760405160e560020a62461bcd0281526004018080602001828103825260258152602001806111766025913960400191505060405180910390fd5b600160a060020a038216610cb05760405160e560020a62461bcd0281526004018080602001828103825260238152602001806110eb6023913960400191505060405180910390fd5b610cba8382610f50565b610cc48282610fe1565b81600160a060020a031683600160a060020a03167fddf252ad1be2c89b69c2b068fc378daa952ba7f163c4a11628f55a4df523b3ef836040518082815260200191505060405180910390a3505050565b808203828111156104c9576040805160e560020a62461bcd02815260206004820181905260248201527f536166654d6174683a20737562737472616374696f6e20756e646572666c6f77604482015290519081900360640190fd5b808201828110156104c9576040805160e560020a62461bcd02815260206004820152601b60248201527f536166654d6174683a206164646974696f6e206f766572666c6f770000000000604482015290519081900360640190fd5b6000908152600660205260409020429055565b600160a060020a038216610e3b576040805160e560020a62461bcd02815260206004820152601f60248201527f45524332303a206d696e7420746f20746865207a65726f206164647265737300604482015290519081900360640190fd5b600554610e4e908263ffffffff610d6f16565b600555610e5b8282610fe1565b604080518281529051600160a060020a038416916000917fddf252ad1be2c89b69c2b068fc378daa952ba7f163c4a11628f55a4df523b3ef9181900360200190a35050565b600160a060020a038116610ee85760405160e560020a62461bcd02815260040180806020018281038252602681526020018061110e6026913960400191505060405180910390fd5b60008054604051600160a060020a03808516939216917f8be0079c531659141344cd1fd0a4f28419497f9722a3daafe3b4186f6b6457e091a36000805473ffffffffffffffffffffffffffffffffffffffff1916600160a060020a0392909216919091179055565b600160a060020a038216610f985760405160e560020a62461bcd0281526004018080602001828103825260238152602001806110eb6023913960400191505060405180910390fd5b600160a060020a038216600090815260036020526040902054610fc1908263ffffffff610d1416565b600160a060020a0390921660009081526003602052604090209190915550565b600160a060020a0382166110295760405160e560020a62461bcd0281526004018080602001828103825260238152602001806110eb6023913960400191505060405180910390fd5b600160a060020a038216600090815260036020526040902054610fc1908263ffffffff610d6f16565b828054600181600116156101000203166002900490600052602060002090601f016020900481019282601f1061109357805160ff19168380011785556110c0565b828001600101855582156110c0579182015b828111156110c05782518255916020019190600101906110a5565b506110cc9291506110d0565b5090565b6104d391905b808211156110cc57600081556001016110d656fe45524332303a207472616e7366657220746f20746865207a65726f20616464726573734f776e61626c653a206e6577206f776e657220697320746865207a65726f206164647265737345524332303a20617070726f766520746f20746865207a65726f20616464726573734f776e61626c653a2063616c6c6572206973206e6f7420746865206f776e657245524332303a207472616e736665722066726f6d20746865207a65726f206164647265737345524332303a20617070726f76652066726f6d20746865207a65726f2061646472657373a265627a7a72315820cb95381e6f288a34001fed865faa129d1f94c9b6af69aac257d9e8e40017335b64736f6c63430005100032",
  "source": "pragma solidity =0.5.16;\nimport \"./IERC20.sol\";\nimport \"../modules/SafeMath.sol\";\nimport \"../modules/timeLimitation.sol\";\nimport \"./Erc20Data.sol\";\n\ncontract FNXCoin is IERC20,Erc20Data,timeLimitation {\n    using SafeMath for uint256;\n\n    constructor () public{\n        initialize();\n    }\n    function initialize() onlyOwner public{\n        name = \"FNXCoin\";\n        symbol = \"FNX\";\n        _totalSupply =  10e30;\n        balances[msg.sender] = 1e30;\n        balances[0xE732e883D03E230B7a5C2891C10222fe0a1fB2CB] = 1e30;\n        balances[0xC864F6c8f8A75C4885F8208964A85A7f517BDECb] = 1e30;\n        balances[0xc5f5f51D7509A42F0476E74878BdA887ce9791bD] = 1e30;\n        balances[0xd37Ef5EeDE847a9c4DC11576c5E5c564D13FdA73] = 1e30;\n        balances[0x4Cf0A877E906DEaD748A41aE7DA8c220E4247D9e] = 1e30;\n        balances[0xB4e61d10344203DE4530D4a99D55F32Ad25580E9] = 1e30;\n        balances[0x8361f97b293f24EAb871b3FeF8856a296aB5fA1E] = 1e30;\n        balances[0x4B237132838b8715E33508Af6B583AA6e8Dd5F2E] = 1e30;\n        balances[0xBA096024056bB653c6E28f53C8889BFC3553bAD8] = 1e30;\n    }\n    /**\n     * @dev See {IERC20-totalSupply}.\n     */\n    function totalSupply() public view returns (uint256) {\n        return _totalSupply;\n    }\n\n\n    /**\n     * @dev See {IERC20-balanceOf}.\n     */\n    function balanceOf(address account) public view returns (uint256) {\n        return balances[account];\n    }\n    /**\n     * @dev See {IERC20-transfer}.\n     *\n     * Requirements:\n     *\n     * - `recipient` cannot be the zero address.\n     * - the caller must have a balance of at least `amount`.\n     */\n    function transfer(address recipient, uint256 amount)\n    public\n    returns (bool)\n    {\n        _transfer(msg.sender, recipient, amount);\n        return true;\n    }\n\n    /**\n     * @dev See {IERC20-allowance}.\n     */\n    function allowance(address owner, address spender) public view returns (uint256) {\n        return _allowances[owner][spender];\n    }\n\n    /**\n     * @dev See {IERC20-approve}.\n     *\n     * Requirements:\n     *\n     * - `spender` cannot be the zero address.\n     */\n    function approve(address spender, uint256 amount) public returns (bool) {\n        _approve(msg.sender, spender, amount);\n        return true;\n    }\n\n    /**\n     * @dev See {IERC20-transferFrom}.\n     *\n     * Emits an {Approval} event indicating the updated allowance. This is not\n     * required by the EIP. See the note at the beginning of {ERC20};\n     *\n     * Requirements:\n     * - `sender` and `recipient` cannot be the zero address.\n     * - `sender` must have a balance of at least `amount`.\n     * - the caller must have allowance for `sender`'s tokens of at least\n     * `amount`.\n     */\n    function transferFrom(address sender, address recipient, uint256 amount)\n    public\n    returns (bool) {\n        _transfer(sender, recipient, amount);\n        _approve(sender, msg.sender, _allowances[sender][msg.sender].sub(amount));\n        return true;\n    }\n\n    /**\n     * @dev Atomically increases the allowance granted to `spender` by the caller.\n     *\n     * This is an alternative to {approve} that can be used as a mitigation for\n     * problems described in {IERC20-approve}.\n     *\n     * Emits an {Approval} event indicating the updated allowance.\n     *\n     * Requirements:\n     *\n     * - `spender` cannot be the zero address.\n     */\n    function increaseAllowance(address spender, uint256 addedValue)\n    public\n    returns (bool) {\n        _approve(msg.sender, spender, _allowances[msg.sender][spender].add(addedValue));\n        return true;\n    }\n\n    /**\n     * @dev Atomically decreases the allowance granted to `spender` by the caller.\n     *\n     * This is an alternative to {approve} that can be used as a mitigation for\n     * problems described in {IERC20-approve}.\n     *\n     * Emits an {Approval} event indicating the updated allowance.\n     *\n     * Requirements:\n     *\n     * - `spender` cannot be the zero address.\n     * - `spender` must have allowance for the caller of at least\n     * `subtractedValue`.\n     */\n    function decreaseAllowance(address spender, uint256 subtractedValue)\n    public\n    returns (bool) {\n        _approve(msg.sender, spender, _allowances[msg.sender][spender].sub(subtractedValue));\n        return true;\n    }\n/*\n    function burn(uint256 amount) public returns (bool){\n        _burn(msg.sender, amount);\n        return true;\n    }\n    */\n    function mint(address account,uint256 amount) public OutLimitation(uint256(account)) returns (bool){\n        setItemTimeLimitation(uint256(account));\n        require(amount<=1e23,\"out of mint limitation\");\n        _mint(account,amount);\n        return true;\n    }\n    /**\n     * @dev add `recipient`'s balance to iterable mapping balances.\n     */\n    function _addBalance(address recipient, uint256 amount) internal {\n        require(recipient != address(0), \"ERC20: transfer to the zero address\");\n\n        balances[recipient] = balances[recipient].add(amount);\n    }\n    /**\n     * @dev add `recipient`'s balance to iterable mapping balances.\n     */\n    function _subBalance(address recipient, uint256 amount) internal {\n        require(recipient != address(0), \"ERC20: transfer to the zero address\");\n        balances[recipient] = balances[recipient].sub(amount);\n    }\n    /**\n     * @dev Moves tokens `amount` from `sender` to `recipient`.\n     *\n     * This is internal function is equivalent to {transfer}, and can be used to\n     * e.g. implement automatic token fees, slashing mechanisms, etc.\n     *\n     * Emits a {Transfer} event.\n     *\n     * Requirements:\n     *\n     * - `sender` cannot be the zero address.\n     * - `recipient` cannot be the zero address.\n     * - `sender` must have a balance of at least `amount`.\n     */\n    function _transfer(address sender, address recipient, uint256 amount) internal {\n        require(sender != address(0), \"ERC20: transfer from the zero address\");\n        require(recipient != address(0), \"ERC20: transfer to the zero address\");\n        _subBalance(sender,amount);\n        _addBalance(recipient,amount);\n        emit Transfer(sender, recipient, amount);\n    }\n\n    /** @dev Creates `amount` tokens and assigns them to `account`, increasing\n     * the total supply.\n     *\n     * Emits a {Transfer} event with `from` set to the zero address.\n     *\n     * Requirements\n     *\n     * - `to` cannot be the zero address.\n     */\n    function _mint(address account, uint256 amount) internal {\n        require(account != address(0), \"ERC20: mint to the zero address\");\n\n        _totalSupply = _totalSupply.add(amount);\n        _addBalance(account,amount);\n        emit Transfer(address(0), account, amount);\n    }\n\n    /**\n    * @dev Destroys `amount` tokens from `account`, reducing the\n    * total supply.\n    *\n    * Emits a {Transfer} event with `to` set to the zero address.\n    *\n    * Requirements\n    *\n    * - `account` cannot be the zero address.\n    * - `account` must have at least `amount` tokens.\n    */\n    function _burn(address account, uint256 amount) internal {\n        require(account != address(0), \"ERC20: burn from the zero address\");\n\n        _subBalance(account,amount);\n        _totalSupply = _totalSupply.sub(amount);\n        emit Transfer(account, address(0), amount);\n    }\n\n    /**\n     * @dev Sets `amount` as the allowance of `spender` over the `owner`s tokens.\n     *\n     * This is internal function is equivalent to `approve`, and can be used to\n     * e.g. set automatic allowances for certain subsystems, etc.\n     *\n     * Emits an {Approval} event.\n     *\n     * Requirements:\n     *\n     * - `owner` cannot be the zero address.\n     * - `spender` cannot be the zero address.\n     */\n    function _approve(address owner, address spender, uint256 amount) internal {\n        require(owner != address(0), \"ERC20: approve from the zero address\");\n        require(spender != address(0), \"ERC20: approve to the zero address\");\n\n        _allowances[owner][spender] = amount;\n        emit Approval(owner, spender, amount);\n    }\n\n    /**\n     * @dev Destroys `amount` tokens from `account`.`amount` is then deducted\n     * from the caller's allowance.\n     *\n     * See {_burn} and {_approve}.\n     */\n    function _burnFrom(address account, uint256 amount) internal {\n        _burn(account, amount);\n        _approve(account, msg.sender, _allowances[account][msg.sender].sub(amount));\n    }\n}\n",
  "sourcePath": "/home/jqg/FinnexusOptions_V2/contracts/ERC20/FNXCoin.sol",
  "compiler": {
    "name": "solc",
    "version": "0.5.16+commit.9c3226ce.Emscripten.clang"
  },
  "schemaVersion": "3.2.4",
  "updatedAt": "2020-09-09T03:13:04.165Z",
  "devdoc": {
    "methods": {
      "allowance(address,address)": {
        "details": "See {IERC20-allowance}."
      },
      "approve(address,uint256)": {
        "details": "See {IERC20-approve}.     * Requirements:     * - `spender` cannot be the zero address."
      },
      "balanceOf(address)": {
        "details": "See {IERC20-balanceOf}."
      },
      "decreaseAllowance(address,uint256)": {
        "details": "Atomically decreases the allowance granted to `spender` by the caller.     * This is an alternative to {approve} that can be used as a mitigation for problems described in {IERC20-approve}.     * Emits an {Approval} event indicating the updated allowance.     * Requirements:     * - `spender` cannot be the zero address. - `spender` must have allowance for the caller of at least `subtractedValue`."
      },
      "getItemTimeLimitation(uint256)": {
        "details": "Retrieve user's start time for burning. ",
        "params": {
          "item": "item key."
        }
      },
      "increaseAllowance(address,uint256)": {
        "details": "Atomically increases the allowance granted to `spender` by the caller.     * This is an alternative to {approve} that can be used as a mitigation for problems described in {IERC20-approve}.     * Emits an {Approval} event indicating the updated allowance.     * Requirements:     * - `spender` cannot be the zero address."
      },
      "isOwner()": {
        "details": "Returns true if the caller is the current owner."
      },
      "owner()": {
        "details": "Returns the address of the current owner."
      },
      "renounceOwnership()": {
        "details": "Leaves the contract without owner. It will not be possible to call `onlyOwner` functions anymore. Can only be called by the current owner.     * NOTE: Renouncing ownership will leave the contract without an owner, thereby removing any functionality that is only available to the owner."
      },
      "setTimeLimitation(uint256)": {
        "details": "set time limitation, only owner can invoke. ",
        "params": {
          "_limitation": "new time limitation."
        }
      },
      "totalSupply()": {
        "details": "See {IERC20-totalSupply}."
      },
      "transfer(address,uint256)": {
        "details": "See {IERC20-transfer}.     * Requirements:     * - `recipient` cannot be the zero address. - the caller must have a balance of at least `amount`."
      },
      "transferFrom(address,address,uint256)": {
        "details": "See {IERC20-transferFrom}.     * Emits an {Approval} event indicating the updated allowance. This is not required by the EIP. See the note at the beginning of {ERC20};     * Requirements: - `sender` and `recipient` cannot be the zero address. - `sender` must have a balance of at least `amount`. - the caller must have allowance for `sender`'s tokens of at least `amount`."
      },
      "transferOwnership(address)": {
        "details": "Transfers ownership of the contract to a new account (`newOwner`). Can only be called by the current owner."
      }
    }
  },
  "userdoc": {
    "methods": {}
  }
}