{
  "contractName": "FNXMinePool",
  "abi": [
    {
      "constant": true,
      "inputs": [
        {
          "name": "tmpAddress",
          "type": "address"
        }
      ],
      "name": "checkAddressRedeemOut",
      "outputs": [
        {
          "name": "",
          "type": "bool"
        }
      ],
      "payable": false,
      "stateMutability": "view",
      "type": "function"
    },
    {
      "constant": true,
      "inputs": [],
      "name": "getWhiteList",
      "outputs": [
        {
          "name": "",
          "type": "address[]"
        }
      ],
      "payable": false,
      "stateMutability": "view",
      "type": "function"
    },
    {
      "constant": false,
      "inputs": [
        {
          "name": "removeAddress",
          "type": "address"
        }
      ],
      "name": "removeWhiteList",
      "outputs": [
        {
          "name": "",
          "type": "bool"
        }
      ],
      "payable": false,
      "stateMutability": "nonpayable",
      "type": "function"
    },
    {
      "constant": true,
      "inputs": [
        {
          "name": "",
          "type": "uint256"
        }
      ],
      "name": "whiteList",
      "outputs": [
        {
          "name": "",
          "type": "address"
        }
      ],
      "payable": false,
      "stateMutability": "view",
      "type": "function"
    },
    {
      "constant": false,
      "inputs": [],
      "name": "renounceOwnership",
      "outputs": [],
      "payable": false,
      "stateMutability": "nonpayable",
      "type": "function"
    },
    {
      "constant": true,
      "inputs": [
        {
          "name": "tmpAddress",
          "type": "address"
        }
      ],
      "name": "isEligibleAddress",
      "outputs": [
        {
          "name": "",
          "type": "bool"
        }
      ],
      "payable": false,
      "stateMutability": "view",
      "type": "function"
    },
    {
      "constant": true,
      "inputs": [],
      "name": "owner",
      "outputs": [
        {
          "name": "",
          "type": "address"
        }
      ],
      "payable": false,
      "stateMutability": "view",
      "type": "function"
    },
    {
      "constant": true,
      "inputs": [],
      "name": "isOwner",
      "outputs": [
        {
          "name": "",
          "type": "bool"
        }
      ],
      "payable": false,
      "stateMutability": "view",
      "type": "function"
    },
    {
      "constant": true,
      "inputs": [],
      "name": "halted",
      "outputs": [
        {
          "name": "",
          "type": "bool"
        }
      ],
      "payable": false,
      "stateMutability": "view",
      "type": "function"
    },
    {
      "constant": true,
      "inputs": [
        {
          "name": "tmpAddress",
          "type": "address"
        }
      ],
      "name": "checkAddressPayIn",
      "outputs": [
        {
          "name": "",
          "type": "bool"
        }
      ],
      "payable": false,
      "stateMutability": "view",
      "type": "function"
    },
    {
      "constant": false,
      "inputs": [
        {
          "name": "addAddress",
          "type": "address"
        },
        {
          "name": "permission",
          "type": "uint256"
        }
      ],
      "name": "modifyPermission",
      "outputs": [],
      "payable": false,
      "stateMutability": "nonpayable",
      "type": "function"
    },
    {
      "constant": false,
      "inputs": [
        {
          "name": "managerAddress",
          "type": "address"
        }
      ],
      "name": "setManager",
      "outputs": [],
      "payable": false,
      "stateMutability": "nonpayable",
      "type": "function"
    },
    {
      "constant": true,
      "inputs": [],
      "name": "getManager",
      "outputs": [
        {
          "name": "",
          "type": "address"
        }
      ],
      "payable": false,
      "stateMutability": "view",
      "type": "function"
    },
    {
      "constant": false,
      "inputs": [
        {
          "name": "addAddress",
          "type": "address"
        }
      ],
      "name": "addWhiteList",
      "outputs": [],
      "payable": false,
      "stateMutability": "nonpayable",
      "type": "function"
    },
    {
      "constant": false,
      "inputs": [
        {
          "name": "newOwner",
          "type": "address"
        }
      ],
      "name": "transferOwnership",
      "outputs": [],
      "payable": false,
      "stateMutability": "nonpayable",
      "type": "function"
    },
    {
      "constant": false,
      "inputs": [
        {
          "name": "halt",
          "type": "bool"
        }
      ],
      "name": "setHalt",
      "outputs": [],
      "payable": false,
      "stateMutability": "nonpayable",
      "type": "function"
    },
    {
      "inputs": [],
      "payable": false,
      "stateMutability": "nonpayable",
      "type": "constructor"
    },
    {
      "payable": true,
      "stateMutability": "payable",
      "type": "fallback"
    },
    {
      "anonymous": false,
      "inputs": [
        {
          "indexed": false,
          "name": "value0",
          "type": "uint256"
        },
        {
          "indexed": false,
          "name": "value1",
          "type": "uint256"
        },
        {
          "indexed": false,
          "name": "value2",
          "type": "uint256"
        },
        {
          "indexed": false,
          "name": "value3",
          "type": "uint256"
        }
      ],
      "name": "DebugEvent",
      "type": "event"
    },
    {
      "anonymous": false,
      "inputs": [
        {
          "indexed": true,
          "name": "account",
          "type": "address"
        },
        {
          "indexed": false,
          "name": "amount",
          "type": "uint256"
        }
      ],
      "name": "MintMiner",
      "type": "event"
    },
    {
      "anonymous": false,
      "inputs": [
        {
          "indexed": true,
          "name": "account",
          "type": "address"
        },
        {
          "indexed": false,
          "name": "amount",
          "type": "uint256"
        }
      ],
      "name": "BurnMiner",
      "type": "event"
    },
    {
      "anonymous": false,
      "inputs": [
        {
          "indexed": true,
          "name": "from",
          "type": "address"
        },
        {
          "indexed": true,
          "name": "to",
          "type": "address"
        },
        {
          "indexed": false,
          "name": "amount",
          "type": "uint256"
        }
      ],
      "name": "TranserMiner",
      "type": "event"
    },
    {
      "anonymous": false,
      "inputs": [
        {
          "indexed": true,
          "name": "account",
          "type": "address"
        },
        {
          "indexed": true,
          "name": "mineCoin",
          "type": "address"
        },
        {
          "indexed": false,
          "name": "amount",
          "type": "uint256"
        }
      ],
      "name": "BuyingMiner",
      "type": "event"
    },
    {
      "anonymous": false,
      "inputs": [
        {
          "indexed": true,
          "name": "from",
          "type": "address"
        },
        {
          "indexed": true,
          "name": "to",
          "type": "address"
        },
        {
          "indexed": false,
          "name": "value",
          "type": "uint256"
        }
      ],
      "name": "RedeemMineCoin",
      "type": "event"
    },
    {
      "anonymous": false,
      "inputs": [
        {
          "indexed": true,
          "name": "previousOwner",
          "type": "address"
        },
        {
          "indexed": true,
          "name": "newOwner",
          "type": "address"
        }
      ],
      "name": "OwnershipTransferred",
      "type": "event"
    },
    {
      "constant": true,
      "inputs": [
        {
          "name": "mineCoin",
          "type": "address"
        }
      ],
      "name": "getTotalMined",
      "outputs": [
        {
          "name": "",
          "type": "uint256"
        }
      ],
      "payable": false,
      "stateMutability": "view",
      "type": "function"
    },
    {
      "constant": true,
      "inputs": [
        {
          "name": "mineCoin",
          "type": "address"
        }
      ],
      "name": "getMineInfo",
      "outputs": [
        {
          "name": "",
          "type": "uint256"
        },
        {
          "name": "",
          "type": "uint256"
        }
      ],
      "payable": false,
      "stateMutability": "view",
      "type": "function"
    },
    {
      "constant": true,
      "inputs": [
        {
          "name": "account",
          "type": "address"
        },
        {
          "name": "mineCoin",
          "type": "address"
        }
      ],
      "name": "getMinerBalance",
      "outputs": [
        {
          "name": "",
          "type": "uint256"
        }
      ],
      "payable": false,
      "stateMutability": "view",
      "type": "function"
    },
    {
      "constant": false,
      "inputs": [
        {
          "name": "mineCoin",
          "type": "address"
        },
        {
          "name": "_mineAmount",
          "type": "uint256"
        },
        {
          "name": "_mineInterval",
          "type": "uint256"
        }
      ],
      "name": "setMineCoinInfo",
      "outputs": [],
      "payable": false,
      "stateMutability": "nonpayable",
      "type": "function"
    },
    {
      "constant": false,
      "inputs": [
        {
          "name": "mineCoin",
          "type": "address"
        },
        {
          "name": "_mineAmount",
          "type": "uint256"
        }
      ],
      "name": "setBuyingMineInfo",
      "outputs": [],
      "payable": false,
      "stateMutability": "nonpayable",
      "type": "function"
    },
    {
      "constant": true,
      "inputs": [
        {
          "name": "mineCoin",
          "type": "address"
        }
      ],
      "name": "getBuyingMineInfo",
      "outputs": [
        {
          "name": "",
          "type": "uint256"
        }
      ],
      "payable": false,
      "stateMutability": "view",
      "type": "function"
    },
    {
      "constant": true,
      "inputs": [],
      "name": "getBuyingMineInfoAll",
      "outputs": [
        {
          "name": "",
          "type": "address[]"
        },
        {
          "name": "",
          "type": "uint256[]"
        }
      ],
      "payable": false,
      "stateMutability": "view",
      "type": "function"
    },
    {
      "constant": false,
      "inputs": [
        {
          "name": "account",
          "type": "address"
        },
        {
          "name": "recieptor",
          "type": "address"
        },
        {
          "name": "amount",
          "type": "uint256"
        }
      ],
      "name": "transferMinerCoin",
      "outputs": [],
      "payable": false,
      "stateMutability": "nonpayable",
      "type": "function"
    },
    {
      "constant": false,
      "inputs": [
        {
          "name": "account",
          "type": "address"
        },
        {
          "name": "amount",
          "type": "uint256"
        }
      ],
      "name": "mintMinerCoin",
      "outputs": [],
      "payable": false,
      "stateMutability": "nonpayable",
      "type": "function"
    },
    {
      "constant": false,
      "inputs": [
        {
          "name": "account",
          "type": "address"
        },
        {
          "name": "amount",
          "type": "uint256"
        }
      ],
      "name": "burnMinerCoin",
      "outputs": [],
      "payable": false,
      "stateMutability": "nonpayable",
      "type": "function"
    },
    {
      "constant": false,
      "inputs": [
        {
          "name": "account",
          "type": "address"
        },
        {
          "name": "amount",
          "type": "uint256"
        }
      ],
      "name": "addMinerBalance",
      "outputs": [],
      "payable": false,
      "stateMutability": "nonpayable",
      "type": "function"
    },
    {
      "constant": false,
      "inputs": [
        {
          "name": "mineCoin",
          "type": "address"
        },
        {
          "name": "_mineAmount",
          "type": "uint256"
        }
      ],
      "name": "setMineAmount",
      "outputs": [],
      "payable": false,
      "stateMutability": "nonpayable",
      "type": "function"
    },
    {
      "constant": false,
      "inputs": [
        {
          "name": "mineCoin",
          "type": "address"
        },
        {
          "name": "_mineInterval",
          "type": "uint256"
        }
      ],
      "name": "setMineInterval",
      "outputs": [],
      "payable": false,
      "stateMutability": "nonpayable",
      "type": "function"
    },
    {
      "constant": false,
      "inputs": [
        {
          "name": "mineCoin",
          "type": "address"
        },
        {
          "name": "amount",
          "type": "uint256"
        }
      ],
      "name": "redeemMinerCoin",
      "outputs": [],
      "payable": false,
      "stateMutability": "nonpayable",
      "type": "function"
    }
  ],
  "bytecode": "0x60806040526001805460a060020a60ff02191690556004805460ff1916905534801561002a57600080fd5b5060008054600160a060020a0319163317808255604051600160a060020a039190911691907f8be0079c531659141344cd1fd0a4f28419497f9722a3daafe3b4186f6b6457e0908290a3612421806100836000396000f3006080604052600436106101665763ffffffff60e060020a600035041663059621d7811461016857806309a9d76c1461019d5780630fabbeef146102025780632042e5c21461023557806328675626146102565780632a04d0c71461027a5780632b2fe4bc1461029e57806341080415146102c55780635c475d42146102e6578063687d5ac01461031a578063715018a61461033e578063817bf86d146103535780638399d9f31461037457806387c0ee89146103985780638af2a470146103bc5780638da5cb5b146103e05780638f32d59b146103f5578063b9b8af0b1461040a578063bdac4bf61461041f578063c219043b14610440578063d08da86114610464578063d0ebdbe714610488578063d323a115146104a9578063d5009584146104e3578063dea2b7c1146104f8578063e7cd4a041461051f578063e8b25b2b14610540578063ef56807f146105ee578063f2fde38b14610618578063f495438714610639575b005b34801561017457600080fd5b50610189600160a060020a0360043516610653565b604080519115158252519081900360200190f35b3480156101a957600080fd5b506101b261068b565b60408051602080825283518183015283519192839290830191858101910280838360005b838110156101ee5781810151838201526020016101d6565b505050509050019250505060405180910390f35b34801561020e57600080fd5b50610223600160a060020a03600435166106ee565b60408051918252519081900360200190f35b34801561024157600080fd5b50610189600160a060020a0360043516610709565b34801561026257600080fd5b50610166600160a060020a0360043516602435610762565b34801561028657600080fd5b50610166600160a060020a03600435166024356108d9565b3480156102aa57600080fd5b50610166600160a060020a0360043516602435604435610992565b3480156102d157600080fd5b50610223600160a060020a0360043516610a1d565b3480156102f257600080fd5b506102fe600435610af5565b60408051600160a060020a039092168252519081900360200190f35b34801561032657600080fd5b50610166600160a060020a0360043516602435610b1d565b34801561034a57600080fd5b50610166610b8e565b34801561035f57600080fd5b50610189600160a060020a0360043516610c31565b34801561038057600080fd5b50610166600160a060020a0360043516602435610c97565b3480156103a457600080fd5b50610166600160a060020a0360043516602435610e5d565b3480156103c857600080fd5b50610166600160a060020a0360043516602435610ed1565b3480156103ec57600080fd5b506102fe610f8a565b34801561040157600080fd5b50610189610f99565b34801561041657600080fd5b50610189610faa565b34801561042b57600080fd5b50610189600160a060020a0360043516610fcb565b34801561044c57600080fd5b50610166600160a060020a0360043516602435610fff565b34801561047057600080fd5b50610166600160a060020a0360043516602435611067565b34801561049457600080fd5b50610166600160a060020a03600435166110d8565b3480156104b557600080fd5b506104ca600160a060020a0360043516611153565b6040805192835260208301919091528051918290030190f35b3480156104ef57600080fd5b506102fe61117b565b34801561050457600080fd5b50610223600160a060020a036004358116906024351661118a565b34801561052b57600080fd5b50610166600160a060020a0360043516611214565b34801561054c57600080fd5b5061055561128b565b604051808060200180602001838103835285818151815260200191508051906020019060200280838360005b83811015610599578181015183820152602001610581565b50505050905001838103825284818151815260200191508051906020019060200280838360005b838110156105d85781810151838201526020016105c0565b5050505090500194505050505060405180910390f35b3480156105fa57600080fd5b50610166600160a060020a03600435811690602435166044356113b9565b34801561062457600080fd5b50610166600160a060020a0360043516611430565b34801561064557600080fd5b506101666004351515611488565b600061065e82610c31565b80156106855750600160a060020a0382166000908152600360205260409020546002908116145b92915050565b606060028054806020026020016040519081016040528092919081815260200182805480156106e357602002820191906000526020600020905b8154600160a060020a031681526001909101906020018083116106c5575b505050505090505b90565b600160a060020a03166000908152600c602052604090205490565b6000610713610f99565b1515610757576040805160e560020a62461bcd02815260206004820181905260248201526000805160206123d6833981519152604482015290519081900360640190fd5b610685600283611514565b60045460009060ff161561077557600080fd5b6004805460ff191660019081179091555474010000000000000000000000000000000000000000900460ff16156107f6576040805160e560020a62461bcd02815260206004820152601760248201527f5468697320636f6e74726163742069732068616c746564000000000000000000604482015290519081900360640190fd5b6107ff83611603565b610809833361176f565b50600160a060020a038216600090815260056020908152604080832033845290915290205481811015610886576040805160e560020a62461bcd02815260206004820152601d60248201527f6d696e65722062616c616e636520697320696e73756666696369656e74000000604482015290519081900360640190fd5b610896818363ffffffff61177e16565b600160a060020a0384166000908152600560209081526040808320338085529252909120919091556108ca908490846117c7565b50506004805460ff1916905550565b600154600160a060020a0316331461093d576040805160e560020a62461bcd028152602060048201526026602482015260008051602061239683398151915260448201526000805160206123b6833981519152606482015290519081900360840190fd5b61094561190d565b61094f828261194f565b604080518281529051600160a060020a038416917fe3a3d55c0f116b90b74237f05fdd30afd41058e41ceca3298f57add1aaf1ddba919081900360200190a25050565b61099a610f99565b15156109de576040805160e560020a62461bcd02815260206004820181905260248201526000805160206123d6833981519152604482015290519081900360640190fd5b6109e783611603565b600160a060020a0383166000908152600a60209081526040808320859055600b9091529020819055610a1883611214565b505050565b6000806000806000610a2d611996565b600160a060020a0387166000908152600b602052604081205491955090935084118015610a5a5750600083115b15610ad057600160a060020a0386166000908152600a6020908152604080832054600990925290912054909250610aac908490610aa0908590420363ffffffff611a1416565b9063ffffffff611abe16565b600160a060020a038716600090815260086020526040902054810195509050610aec565b600160a060020a03861660009081526008602052604090205494505b50505050919050565b6002805482908110610b0357fe5b600091825260209091200154600160a060020a0316905081565b610b25610f99565b1515610b69576040805160e560020a62461bcd02815260206004820181905260248201526000805160206123d6833981519152604482015290519081900360640190fd5b610b7282611603565b600160a060020a039091166000908152600a6020526040902055565b610b96610f99565b1515610bda576040805160e560020a62461bcd02815260206004820181905260248201526000805160206123d6833981519152604482015290519081900360640190fd5b60008054604051600160a060020a03909116907f8be0079c531659141344cd1fd0a4f28419497f9722a3daafe3b4186f6b6457e0908390a36000805473ffffffffffffffffffffffffffffffffffffffff19169055565b60006106856002805480602002602001604051908101604052809291908181526020018280548015610c8c57602002820191906000526020600020905b8154600160a060020a03168152600190910190602001808311610c6e575b505050505083611b00565b6001546000908190819081908190600160a060020a03163314610d06576040805160e560020a62461bcd028152602060048201526026602482015260008051602061239683398151915260448201526000805160206123b6833981519152606482015290519081900360840190fd5b6002549450600093505b84841015610e54576002805485908110610d2657fe5b6000918252602080832090910154600160a060020a0316808352600c90915260408220549094509250821115610e4957610d72670de0b6b3a7640000610aa0848963ffffffff611a1416565b600160a060020a038085166000908152600560209081526040808320938c1683529290522054909150610dab908263ffffffff611b5116565b600160a060020a038085166000818152600560209081526040808320948d168352938152838220949094559081526008909252902054610df1908263ffffffff611b5116565b600160a060020a0380851660008181526008602090815260409182902094909455805185815290519193928b16927fe2ed14571a53189bda27b61adf8f8959767b14d8e10233549b71ee2f2094207e92918290030190a35b600190930192610d10565b50505050505050565b610e65610f99565b1515610ea9576040805160e560020a62461bcd02815260206004820181905260248201526000805160206123d6833981519152604482015290519081900360640190fd5b600160a060020a0382166000908152600c60205260409020819055610ecd82611214565b5050565b600154600160a060020a03163314610f35576040805160e560020a62461bcd028152602060048201526026602482015260008051602061239683398151915260448201526000805160206123b6833981519152606482015290519081900360840190fd5b610f3d61190d565b610f478282611bae565b604080518281529051600160a060020a038416917f0d174f4f9562761c729044bc2005a97e0beae4904dfe3d7a40bf7426e59910bc919081900360200190a25050565b600054600160a060020a031690565b600054600160a060020a0316331490565b60015474010000000000000000000000000000000000000000900460ff1681565b6000610fd682610c31565b8015610685575050600160a060020a031660009081526003602052604090205460019081161490565b611007610f99565b151561104b576040805160e560020a62461bcd02815260206004820181905260248201526000805160206123d6833981519152604482015290519081900360640190fd5b600160a060020a03909116600090815260036020526040902055565b61106f610f99565b15156110b3576040805160e560020a62461bcd02815260206004820181905260248201526000805160206123d6833981519152604482015290519081900360640190fd5b6110bc82611603565b600160a060020a039091166000908152600b6020526040902055565b6110e0610f99565b1515611124576040805160e560020a62461bcd02815260206004820181905260248201526000805160206123d6833981519152604482015290519081900360640190fd5b6001805473ffffffffffffffffffffffffffffffffffffffff1916600160a060020a0392909216919091179055565b600160a060020a03166000908152600a6020908152604080832054600b909252909120549091565b600154600160a060020a031690565b600160a060020a0380821660009081526005602090815260408083209386168352929052908120548180806111bd611996565b92506111c887611bf5565b91506000831180156111da5750600082115b15611209576111e886611c92565b90506112066111f987898585611d6c565b859063ffffffff611b5116565b93505b509195945050505050565b61121c610f99565b1515611260576040805160e560020a62461bcd02815260206004820181905260248201526000805160206123d6833981519152604482015290519081900360640190fd5b61126b600282611e3a565b600160a060020a0316600090815260036020526040902063ffffffff9055565b606080600060608060006002805490509350836040519080825280602002602001820160405280156112c7578160200160208202803883390190505b509250836040519080825280602002602001820160405280156112f4578160200160208202803883390190505b509150600090505b838110156113ae57600280548290811061131257fe5b6000918252602090912001548351600160a060020a039091169084908390811061133857fe5b600160a060020a039092166020928302909101909101528251600c9060009085908490811061136357fe5b90602001906020020151600160a060020a0316600160a060020a0316815260200190815260200160002054828281518110151561139c57fe5b602090810290910101526001016112fc565b509094909350915050565b600154600160a060020a0316331461141d576040805160e560020a62461bcd028152602060048201526026602482015260008051602061239683398151915260448201526000805160206123b6833981519152606482015290519081900360840190fd5b61142561190d565b610a18838383611ee1565b611438610f99565b151561147c576040805160e560020a62461bcd02815260206004820181905260248201526000805160206123d6833981519152604482015290519081900360640190fd5b61148581611f7a565b50565b611490610f99565b15156114d4576040805160e560020a62461bcd02815260206004820181905260248201526000805160206123d6833981519152604482015290519081900360640190fd5b60018054911515740100000000000000000000000000000000000000000274ff000000000000000000000000000000000000000019909216919091179055565b8154600090815b818110156115635783600160a060020a0316858281548110151561153b57fe5b600091825260209091200154600160a060020a0316141561155b57611563565b60010161151b565b818110156115f657600019820181146115dc57846001830381548110151561158757fe5b6000918252602090912001548554600160a060020a03909116908690839081106115ad57fe5b9060005260206000200160006101000a815481600160a060020a030219169083600160a060020a031602179055505b84546115ec86600019830161235c565b50600192506115fb565b600092505b505092915050565b600160a060020a0381166000908152600b602052604081205490808080611628611996565b935060008411801561163a5750600085115b1561171057600160a060020a0386166000908152600a60209081526040808320546009909252909120549093506116799042038663ffffffff611abe16565b915061168b838363ffffffff611a1416565b600160a060020a0387166000908152600760205260409020549091506116c190670de0b6b3a7640000830263ffffffff611b5116565b600160a060020a0387166000908152600760209081526040808320939093556008905220546116f6908263ffffffff611b5116565b600160a060020a0387166000908152600860205260409020555b600085111561174b578461172a428263ffffffff611abe16565b600160a060020a038816600090815260096020526040902091029055611767565b600160a060020a03861660009081526009602052604090204290555b505050505050565b610ecd82826000806000612068565b60006117c083836040805190810160405280601e81526020017f536166654d6174683a207375627472616374696f6e206f766572666c6f770000815250612204565b9392505050565b60008115156117d557611907565b600160a060020a038416151561182157604051600160a060020a0384169083156108fc029084906000818181858888f1935050505015801561181b573d6000803e3d6000fd5b506118bb565b50604080517fa9059cbb000000000000000000000000000000000000000000000000000000008152600160a060020a038481166004830152602482018490529151859283169163a9059cbb9160448083019260209291908290030181600087803b15801561188e57600080fd5b505af11580156118a2573d6000803e3d6000fd5b505050506040513d60208110156118b857600080fd5b50505b83600160a060020a031683600160a060020a03167f92c7bc8749351478c3edd22482edba775f1353fb936db6bcadd331b65911ea83846040518082815260200191505060405180910390a35b50505050565b60025460005b81811015610ecd5761194760028281548110151561192d57fe5b600091825260209091200154600160a060020a0316611603565b600101611913565b60025460005b818110156119075761198e60028281548110151561196f57fe5b6000918252602082200154600160a060020a0316908690866001612068565b600101611955565b6000806119a161117b565b905080600160a060020a03166318160ddd6040518163ffffffff1660e060020a028152600401602060405180830381600087803b1580156119e157600080fd5b505af11580156119f5573d6000803e3d6000fd5b505050506040513d6020811015611a0b57600080fd5b505191505b5090565b600080831515611a275760009150611ab7565b50828202828482811515611a3757fe5b0414611ab3576040805160e560020a62461bcd02815260206004820152602160248201527f536166654d6174683a206d756c7469706c69636174696f6e206f766572666c6f60448201527f7700000000000000000000000000000000000000000000000000000000000000606482015290519081900360840190fd5b8091505b5092915050565b60006117c083836040805190810160405280601a81526020017f536166654d6174683a206469766973696f6e206279207a65726f0000000000008152506122a1565b8151600090815b818110156115f65783600160a060020a03168582815181101515611b2757fe5b90602001906020020151600160a060020a03161415611b4957600192506115fb565b600101611b07565b600082820183811015611ab3576040805160e560020a62461bcd02815260206004820152601b60248201527f536166654d6174683a206164646974696f6e206f766572666c6f770000000000604482015290519081900360640190fd5b60025460005b8181101561190757611bed600282815481101515611bce57fe5b6000918252602082200154600160a060020a0316908690866002612068565b600101611bb4565b600080611c0061117b565b905080600160a060020a03166370a08231846040518263ffffffff1660e060020a0281526004018082600160a060020a0316600160a060020a03168152602001915050602060405180830381600087803b158015611c5d57600080fd5b505af1158015611c71573d6000803e3d6000fd5b505050506040513d6020811015611c8757600080fd5b505191505b50919050565b600160a060020a0381166000908152600b602052604081205481808080611cb7611996565b9350600084118015611cc95750600085115b15611d5d57600160a060020a0387166000908152600a6020908152604080832054600990925290912054909350611d089042038663ffffffff611abe16565b9150611d1a838363ffffffff611a1416565b600160a060020a038816600090815260076020526040902054909150611d56908590610aa090670de0b6b3a7640000850263ffffffff611b5116565b9550611d62565b600095505b5050505050919050565b600160a060020a03808516600090815260066020908152604080832093871683529290529081205480831015611e12576040805160e560020a62461bcd02815260206004820152602160248201527f6572726f723a20746f6b656e4e6574576f727468206c6f676963206572726f7260448201527f2100000000000000000000000000000000000000000000000000000000000000606482015290519081900360840190fd5b611e30670de0b6b3a7640000610aa08684870363ffffffff611a1416565b9695505050505050565b611e9d82805480602002602001604051908101604052809291908181526020018280548015611e9257602002820191906000526020600020905b8154600160a060020a03168152600190910190602001808311611e74575b505050505082611b00565b1515610ecd578154600181018355600083815260209020018054600160a060020a03831673ffffffffffffffffffffffffffffffffffffffff199091161790555050565b60025460005b81811015611f2857611f20600282815481101515611f0157fe5b600091825260209091200154600160a060020a03168686866003612068565b600101611ee7565b83600160a060020a031685600160a060020a03167fbf32a9a59fc12476e5942fd33003d6089cb72bf1873d4a50e791584d440fae39856040518082815260200191505060405180910390a35050505050565b600160a060020a0381161515612000576040805160e560020a62461bcd02815260206004820152602660248201527f4f776e61626c653a206e6577206f776e657220697320746865207a65726f206160448201527f6464726573730000000000000000000000000000000000000000000000000000606482015290519081900360840190fd5b60008054604051600160a060020a03808516939216917f8be0079c531659141344cd1fd0a4f28419497f9722a3daafe3b4186f6b6457e091a36000805473ffffffffffffffffffffffffffffffffffffffff1916600160a060020a0392909216919091179055565b600080612073611996565b91506000821115610e54576120878761230d565b905060008411156121d3576120db6120a988886120a38a611bf5565b85611d6c565b600160a060020a03808a166000908152600560209081526040808320938c16835292905220549063ffffffff611b5116565b600160a060020a038089166000908152600560209081526040808320938b168352929052205560018314156121605761214261211d828663ffffffff611a1416565b600160a060020a0389166000908152600760205260409020549063ffffffff61177e16565b600160a060020a0388166000908152600760205260409020556121d3565b60028314156121a15761214261217c828663ffffffff611a1416565b600160a060020a0389166000908152600760205260409020549063ffffffff611b5116565b60038314156121d357600160a060020a0380881660009081526006602090815260408083209389168352929052208190555b600160a060020a038088166000908152600660209081526040808320938a1683529290522081905550505050505050565b60008082858511156122975760405160e560020a62461bcd0281526004018080602001828103825283818151815260200191508051906020019080838360005b8381101561225c578181015183820152602001612244565b50505050905090810190601f1680156122895780820380516001836020036101000a031916815260200191505b509250505060405180910390fd5b5050509103919050565b600080828185116122f75760405160e560020a62461bcd0281526004018080602001828103825283818151815260200191508051906020019080838360008381101561225c578181015183820152602001612244565b50838581151561230357fe5b0495945050505050565b600080612318611996565b9050600081111561235357600160a060020a03831660009081526007602052604090205461234c908263ffffffff611abe16565b9150611c8c565b50600092915050565b815481835581811115610a1857600083815260209020610a189181019083016106eb91905b80821115611a10576000815560010161238156004d616e6167657261626c653a2063616c6c6572206973206e6f7420746865204d616e6167657200000000000000000000000000000000000000000000000000004f776e61626c653a2063616c6c6572206973206e6f7420746865206f776e6572a165627a7a723058206c6ce504e0c5adb27f9ad7b0742703461f71419dbc0810de498cfbaf482699fc0029",
  "source": "pragma solidity ^0.4.26;\r\nimport \"./modules/SafeMath.sol\";\r\nimport \"./modules/Managerable.sol\";\r\nimport \"./modules/AddressWhiteList.sol\";\r\nimport \"./modules/ReentrancyGuard.sol\";\r\nimport \"./interfaces/IERC20.sol\";\r\ncontract FNXMinePool is Managerable,AddressWhiteList,ReentrancyGuard {\r\n    using SafeMath for uint256;\r\n    uint256 constant calDecimals = 1e18;\r\n    mapping(address=>mapping(address=>uint256)) internal minerBalances;\r\n    mapping(address=>mapping(address=>uint256)) internal minerOrigins;\r\n    mapping(address=>uint256) internal totalMinedWorth;\r\n    mapping(address=>uint256) internal totalMinedCoin;\r\n    mapping(address=>uint256) internal latestSettleTime;\r\n    mapping(address=>uint256) internal mineAmount;\r\n    mapping(address=>uint256) internal mineInterval;\r\n    mapping(address=>uint256) internal buyingMineMap;\r\n    uint256 constant opBurnCoin = 1;\r\n    uint256 constant opMintCoin = 2;\r\n    uint256 constant opTransferCoin = 3;\r\n    event DebugEvent(uint256 value0,uint256 value1,uint256 value2,uint256 value3);\r\n    event MintMiner(address indexed account,uint256 amount);\r\n    event BurnMiner(address indexed account,uint256 amount);\r\n    event TranserMiner(address indexed from, address indexed to, uint256 amount);\r\n    event BuyingMiner(address indexed account,address indexed mineCoin,uint256 amount);\r\n    constructor () public{\r\n    }\r\n    function()public payable{\r\n\r\n    }\r\n    event RedeemMineCoin(address indexed from, address indexed to, uint256 value);\r\n    function getTotalMined(address mineCoin)public view returns(uint256){\r\n        uint256 _totalSupply = totalSupply();\r\n        uint256 _mineInterval = mineInterval[mineCoin];\r\n        if (_totalSupply > 0 && _mineInterval>0){\r\n            uint256 _mineAmount = mineAmount[mineCoin];\r\n            uint256 latestMined = _mineAmount.mul(now-latestSettleTime[mineCoin]).div(_mineInterval);\r\n            return totalMinedCoin[mineCoin] + latestMined;\r\n        }\r\n        return totalMinedCoin[mineCoin];\r\n    }\r\n    function getMineInfo(address mineCoin)public view returns(uint256,uint256){\r\n        return (mineAmount[mineCoin],mineInterval[mineCoin]);\r\n    }\r\n\r\n    function getMinerBalance(address account,address mineCoin)public view returns(uint256){\r\n        uint256 totalBalance = minerBalances[mineCoin][account];\r\n        uint256 _totalSupply = totalSupply();\r\n        uint256 balance = balanceOf(account);\r\n        if (_totalSupply > 0 && balance>0){\r\n            uint256 tokenNetWorth = _getCurrentTokenNetWorth(mineCoin);\r\n            totalBalance= totalBalance.add(_settlement(mineCoin,account,balance,tokenNetWorth));\r\n        }\r\n        return totalBalance;\r\n    }\r\n    function setMineCoinInfo(address mineCoin,uint256 _mineAmount,uint256 _mineInterval)public onlyOwner {\r\n        _mineSettlement(mineCoin);\r\n        mineAmount[mineCoin] = _mineAmount;\r\n        mineInterval[mineCoin] = _mineInterval;\r\n        addWhiteList(mineCoin);\r\n    }\r\n    function setBuyingMineInfo(address mineCoin,uint256 _mineAmount)public onlyOwner {\r\n        buyingMineMap[mineCoin] = _mineAmount;\r\n        addWhiteList(mineCoin);\r\n    }\r\n    function getBuyingMineInfo(address mineCoin)public view returns(uint256){\r\n        return buyingMineMap[mineCoin];\r\n    }\r\n    function getBuyingMineInfoAll()public view returns(address[],uint256[]){\r\n        uint256 len = whiteList.length;\r\n        address[] memory mineCoins = new address[](len);\r\n        uint256[] memory mineNums = new uint256[](len);\r\n        for (uint256 i=0;i<len;i++){\r\n            mineCoins[i] = whiteList[i];\r\n            mineNums[i] = buyingMineMap[mineCoins[i]];\r\n        }\r\n        return (mineCoins,mineNums);\r\n    }\r\n    function transferMinerCoin(address account,address recieptor,uint256 amount) public onlyManager {\r\n        _mineSettlementAll();\r\n        _transferMinerCoin(account,recieptor,amount);\r\n    }\r\n    function mintMinerCoin(address account,uint256 amount) public onlyManager {\r\n        _mineSettlementAll();\r\n        _mintMinerCoin(account,amount);\r\n        emit MintMiner(account,amount);\r\n    }\r\n    function burnMinerCoin(address account,uint256 amount) public onlyManager {\r\n        _mineSettlementAll();\r\n        _burnMinerCoin(account,amount);\r\n        emit BurnMiner(account,amount);\r\n    }\r\n    function addMinerBalance(address account,uint256 amount) public onlyManager {\r\n        uint256 len = whiteList.length;\r\n        for (uint256 i=0;i<len;i++){\r\n            address addr = whiteList[i];\r\n            uint256 mineNum = buyingMineMap[addr];\r\n            if (mineNum > 0){\r\n                uint256 _mineAmount = mineNum.mul(amount).div(calDecimals);\r\n                minerBalances[addr][account] = minerBalances[addr][account].add(_mineAmount);\r\n                totalMinedCoin[addr] = totalMinedCoin[addr].add(_mineAmount);\r\n                emit BuyingMiner(account,addr,_mineAmount);\r\n            }\r\n        }\r\n    }\r\n    function setMineAmount(address mineCoin,uint256 _mineAmount)public onlyOwner {\r\n        _mineSettlement(mineCoin);\r\n        mineAmount[mineCoin] = _mineAmount;\r\n    }\r\n    function setMineInterval(address mineCoin,uint256 _mineInterval)public onlyOwner {\r\n        _mineSettlement(mineCoin);\r\n        mineInterval[mineCoin] = _mineInterval;\r\n    }\r\n    function redeemMinerCoin(address mineCoin,uint256 amount)public nonReentrant notHalted {\r\n        _mineSettlement(mineCoin);\r\n        _settlementAllCoin(mineCoin,msg.sender);\r\n        uint256 minerAmount = minerBalances[mineCoin][msg.sender];\r\n        require(minerAmount>=amount,\"miner balance is insufficient\");\r\n        minerBalances[mineCoin][msg.sender] = minerAmount.sub(amount);\r\n        _redeemMineCoin(mineCoin,msg.sender,amount);\r\n    }\r\n    function _redeemMineCoin(address mineCoin,address recieptor,uint256 amount)internal {\r\n        if (amount == 0){\r\n            return;\r\n        }\r\n        if (mineCoin == address(0)){\r\n            recieptor.transfer(amount);\r\n        }else{\r\n            IERC20 minerToken = IERC20(mineCoin);\r\n            minerToken.transfer(recieptor,amount);\r\n        }\r\n        emit RedeemMineCoin(recieptor,mineCoin,amount);\r\n    }\r\n    function _mineSettlementAll()internal{\r\n        uint256 addrLen = whiteList.length;\r\n        for(uint256 i=0;i<addrLen;i++){\r\n            _mineSettlement(whiteList[i]);\r\n        }\r\n    }\r\n    function _mineSettlement(address mineCoin)internal{\r\n        uint256 _mineInterval = mineInterval[mineCoin];\r\n        uint256 _totalSupply = totalSupply();\r\n        if (_totalSupply > 0 && _mineInterval>0){\r\n            uint256 _mineAmount = mineAmount[mineCoin];\r\n            uint256 mintTime = (now-latestSettleTime[mineCoin]).div(_mineInterval);\r\n            uint256 latestMined = _mineAmount.mul(mintTime);\r\n            totalMinedWorth[mineCoin] = totalMinedWorth[mineCoin].add(latestMined*calDecimals);\r\n            totalMinedCoin[mineCoin] = totalMinedCoin[mineCoin].add(latestMined);\r\n        }\r\n        if (_mineInterval>0){\r\n            latestSettleTime[mineCoin] = now.div(_mineInterval)*_mineInterval;\r\n        }else{\r\n            latestSettleTime[mineCoin] = now;\r\n        }\r\n    }\r\n    function _transferMinerCoin(address account,address recipient,uint256 amount)internal{\r\n        uint256 addrLen = whiteList.length;\r\n        for(uint256 i=0;i<addrLen;i++){\r\n            settleMinerBalance(whiteList[i],account,recipient,amount,opTransferCoin);\r\n        }\r\n        emit TranserMiner(account,recipient,amount);\r\n    }\r\n    function _mintMinerCoin(address account,uint256 amount)internal{\r\n        uint256 addrLen = whiteList.length;\r\n        for(uint256 i=0;i<addrLen;i++){\r\n            settleMinerBalance(whiteList[i],account,address(0),amount,opMintCoin);\r\n        }\r\n    }\r\n    function _settlementAllCoin(address mineCoin,address account)internal{\r\n        settleMinerBalance(mineCoin,account,address(0),0,0);\r\n    }\r\n    function _burnMinerCoin(address account,uint256 amount)internal{\r\n        uint256 addrLen = whiteList.length;\r\n        for(uint256 i=0;i<addrLen;i++){\r\n            settleMinerBalance(whiteList[i],account,address(0),amount,opBurnCoin);\r\n        }\r\n    }\r\n    function settleMinerBalance(address mineCoin,address account,address recipient,uint256 amount,uint256 operators)internal{\r\n        uint256 _totalSupply = totalSupply();\r\n        if (_totalSupply > 0){\r\n            uint256 tokenNetWorth = _getTokenNetWorth(mineCoin);\r\n            if(amount>0){\r\n                minerBalances[mineCoin][account] = minerBalances[mineCoin][account].add(\r\n                        _settlement(mineCoin,account,balanceOf(account),tokenNetWorth));\r\n                if (operators == opBurnCoin){\r\n                    totalMinedWorth[mineCoin] = totalMinedWorth[mineCoin].sub(tokenNetWorth.mul(amount));\r\n                }else if (operators==opMintCoin){\r\n                    totalMinedWorth[mineCoin] = totalMinedWorth[mineCoin].add(tokenNetWorth.mul(amount));\r\n                }else if (operators==opTransferCoin){\r\n                    minerOrigins[mineCoin][recipient] = tokenNetWorth;\r\n                }\r\n            }\r\n            minerOrigins[mineCoin][account] = tokenNetWorth;\r\n        }\r\n    }\r\n    function _settlement(address mineCoin,address account,uint256 amount,uint256 tokenNetWorth)internal view returns (uint256) {\r\n        uint256 origin = minerOrigins[mineCoin][account];\r\n        require(tokenNetWorth>=origin,\"error: tokenNetWorth logic error!\");\r\n        return amount.mul(tokenNetWorth-origin).div(calDecimals);\r\n    }\r\n    function _getCurrentTokenNetWorth(address mineCoin)internal view returns (uint256) {\r\n        uint256 _mineInterval = mineInterval[mineCoin];\r\n        uint256 _totalSupply = totalSupply();\r\n        if (_totalSupply > 0 && _mineInterval>0){\r\n            uint256 _mineAmount = mineAmount[mineCoin];\r\n            uint256 mintTime = (now-latestSettleTime[mineCoin]).div(_mineInterval);\r\n            uint256 latestMined = _mineAmount.mul(mintTime);\r\n            return (totalMinedWorth[mineCoin].add(latestMined*calDecimals)).div(_totalSupply);\r\n        }\r\n        return 0;\r\n    }\r\n    function _getTokenNetWorth(address mineCoin)internal view returns (uint256) {\r\n        uint256 _totalSupply = totalSupply();\r\n        if (_totalSupply > 0){\r\n            return totalMinedWorth[mineCoin].div(_totalSupply);\r\n        }\r\n        return 0;\r\n    }\r\n    function totalSupply()internal view returns(uint256){\r\n        IERC20 _FPTCoin = IERC20(getManager());\r\n        return _FPTCoin.totalSupply();\r\n    }\r\n    function balanceOf(address account)internal view returns(uint256){\r\n        IERC20 _FPTCoin = IERC20(getManager());\r\n        return _FPTCoin.balanceOf(account);\r\n    }\r\n}",
  "sourcePath": "C:\\work\\solidity\\FinnexusOptions_V2\\contracts\\FNXMinePool.sol",
  "compiler": {
    "name": "solc",
    "version": "0.4.26+commit.4563c3fc.Emscripten.clang"
  },
  "schemaVersion": "3.1.0",
  "updatedAt": "2020-07-31T09:18:35.045Z",
  "devdoc": {
    "methods": {
      "addWhiteList(address)": {
        "details": "Implementation of add an eligible address into the whitelist.\r",
        "params": {
          "addAddress": "new eligible address.\r"
        }
      },
      "getWhiteList()": {
        "details": "Implementation of getting the eligible whitelist.\r"
      },
      "isEligibleAddress(address)": {
        "details": "Implementation of testing whether the input address is eligible.\r",
        "params": {
          "tmpAddress": "input address for testing.\r"
        }
      },
      "isOwner()": {
        "details": "Returns true if the caller is the current owner."
      },
      "owner()": {
        "details": "Returns the address of the current owner."
      },
      "removeWhiteList(address)": {
        "details": "Implementation of revoke an invalid address from the whitelist.\r",
        "params": {
          "removeAddress": "revoked address.\r"
        }
      },
      "renounceOwnership()": {
        "details": "Leaves the contract without owner. It will not be possible to call `onlyOwner` functions anymore. Can only be called by the current owner.     * NOTE: Renouncing ownership will leave the contract without an owner, thereby removing any functionality that is only available to the owner."
      },
      "transferOwnership(address)": {
        "details": "Transfers ownership of the contract to a new account (`newOwner`). Can only be called by the current owner."
      }
    }
  },
  "userdoc": {
    "methods": {
      "setHalt(bool)": {
        "notice": "function Emergency situation that requires contribution period to stop or not."
      },
      "setManager(address)": {
        "notice": "contribution period to stop or not."
      }
    }
  }
}