{
  "contractName": "FNXMinePool",
  "abi": [
    {
      "constant": true,
      "inputs": [
        {
          "name": "tmpAddress",
          "type": "address"
        }
      ],
      "name": "checkAddressRedeemOut",
      "outputs": [
        {
          "name": "",
          "type": "bool"
        }
      ],
      "payable": false,
      "stateMutability": "view",
      "type": "function"
    },
    {
      "constant": true,
      "inputs": [],
      "name": "getWhiteList",
      "outputs": [
        {
          "name": "",
          "type": "address[]"
        }
      ],
      "payable": false,
      "stateMutability": "view",
      "type": "function"
    },
    {
      "constant": false,
      "inputs": [
        {
          "name": "removeAddress",
          "type": "address"
        }
      ],
      "name": "removeWhiteList",
      "outputs": [
        {
          "name": "",
          "type": "bool"
        }
      ],
      "payable": false,
      "stateMutability": "nonpayable",
      "type": "function"
    },
    {
      "constant": false,
      "inputs": [],
      "name": "renounceOwnership",
      "outputs": [],
      "payable": false,
      "stateMutability": "nonpayable",
      "type": "function"
    },
    {
      "constant": true,
      "inputs": [
        {
          "name": "tmpAddress",
          "type": "address"
        }
      ],
      "name": "isEligibleAddress",
      "outputs": [
        {
          "name": "",
          "type": "bool"
        }
      ],
      "payable": false,
      "stateMutability": "view",
      "type": "function"
    },
    {
      "constant": true,
      "inputs": [],
      "name": "owner",
      "outputs": [
        {
          "name": "",
          "type": "address"
        }
      ],
      "payable": false,
      "stateMutability": "view",
      "type": "function"
    },
    {
      "constant": true,
      "inputs": [],
      "name": "isOwner",
      "outputs": [
        {
          "name": "",
          "type": "bool"
        }
      ],
      "payable": false,
      "stateMutability": "view",
      "type": "function"
    },
    {
      "constant": true,
      "inputs": [
        {
          "name": "tmpAddress",
          "type": "address"
        }
      ],
      "name": "checkAddressPayIn",
      "outputs": [
        {
          "name": "",
          "type": "bool"
        }
      ],
      "payable": false,
      "stateMutability": "view",
      "type": "function"
    },
    {
      "constant": false,
      "inputs": [
        {
          "name": "addAddress",
          "type": "address"
        },
        {
          "name": "permission",
          "type": "uint256"
        }
      ],
      "name": "modifyPermission",
      "outputs": [],
      "payable": false,
      "stateMutability": "nonpayable",
      "type": "function"
    },
    {
      "constant": false,
      "inputs": [
        {
          "name": "managerAddress",
          "type": "address"
        }
      ],
      "name": "setManager",
      "outputs": [],
      "payable": false,
      "stateMutability": "nonpayable",
      "type": "function"
    },
    {
      "constant": true,
      "inputs": [],
      "name": "getManager",
      "outputs": [
        {
          "name": "",
          "type": "address"
        }
      ],
      "payable": false,
      "stateMutability": "view",
      "type": "function"
    },
    {
      "constant": false,
      "inputs": [
        {
          "name": "addAddress",
          "type": "address"
        }
      ],
      "name": "addWhiteList",
      "outputs": [],
      "payable": false,
      "stateMutability": "nonpayable",
      "type": "function"
    },
    {
      "constant": false,
      "inputs": [
        {
          "name": "newOwner",
          "type": "address"
        }
      ],
      "name": "transferOwnership",
      "outputs": [],
      "payable": false,
      "stateMutability": "nonpayable",
      "type": "function"
    },
    {
      "constant": false,
      "inputs": [
        {
          "name": "halt",
          "type": "bool"
        }
      ],
      "name": "setHalt",
      "outputs": [],
      "payable": false,
      "stateMutability": "nonpayable",
      "type": "function"
    },
    {
      "inputs": [],
      "payable": false,
      "stateMutability": "nonpayable",
      "type": "constructor"
    },
    {
      "payable": true,
      "stateMutability": "payable",
      "type": "fallback"
    },
    {
      "anonymous": false,
      "inputs": [
        {
          "indexed": false,
          "name": "value0",
          "type": "uint256"
        },
        {
          "indexed": false,
          "name": "value1",
          "type": "uint256"
        },
        {
          "indexed": false,
          "name": "value2",
          "type": "uint256"
        },
        {
          "indexed": false,
          "name": "value3",
          "type": "uint256"
        }
      ],
      "name": "DebugEvent",
      "type": "event"
    },
    {
      "anonymous": false,
      "inputs": [
        {
          "indexed": true,
          "name": "account",
          "type": "address"
        },
        {
          "indexed": false,
          "name": "amount",
          "type": "uint256"
        }
      ],
      "name": "MintMiner",
      "type": "event"
    },
    {
      "anonymous": false,
      "inputs": [
        {
          "indexed": true,
          "name": "account",
          "type": "address"
        },
        {
          "indexed": false,
          "name": "amount",
          "type": "uint256"
        }
      ],
      "name": "BurnMiner",
      "type": "event"
    },
    {
      "anonymous": false,
      "inputs": [
        {
          "indexed": true,
          "name": "from",
          "type": "address"
        },
        {
          "indexed": true,
          "name": "mineCoin",
          "type": "address"
        },
        {
          "indexed": false,
          "name": "value",
          "type": "uint256"
        }
      ],
      "name": "RedeemMineCoin",
      "type": "event"
    },
    {
      "anonymous": false,
      "inputs": [
        {
          "indexed": true,
          "name": "from",
          "type": "address"
        },
        {
          "indexed": true,
          "name": "to",
          "type": "address"
        },
        {
          "indexed": false,
          "name": "amount",
          "type": "uint256"
        }
      ],
      "name": "TranserMiner",
      "type": "event"
    },
    {
      "anonymous": false,
      "inputs": [
        {
          "indexed": true,
          "name": "account",
          "type": "address"
        },
        {
          "indexed": true,
          "name": "mineCoin",
          "type": "address"
        },
        {
          "indexed": false,
          "name": "amount",
          "type": "uint256"
        }
      ],
      "name": "BuyingMiner",
      "type": "event"
    },
    {
      "anonymous": false,
      "inputs": [
        {
          "indexed": true,
          "name": "previousOwner",
          "type": "address"
        },
        {
          "indexed": true,
          "name": "newOwner",
          "type": "address"
        }
      ],
      "name": "OwnershipTransferred",
      "type": "event"
    },
    {
      "constant": true,
      "inputs": [
        {
          "name": "mineCoin",
          "type": "address"
        }
      ],
      "name": "getTotalMined",
      "outputs": [
        {
          "name": "",
          "type": "uint256"
        }
      ],
      "payable": false,
      "stateMutability": "view",
      "type": "function"
    },
    {
      "constant": true,
      "inputs": [
        {
          "name": "mineCoin",
          "type": "address"
        }
      ],
      "name": "getMineInfo",
      "outputs": [
        {
          "name": "",
          "type": "uint256"
        },
        {
          "name": "",
          "type": "uint256"
        }
      ],
      "payable": false,
      "stateMutability": "view",
      "type": "function"
    },
    {
      "constant": true,
      "inputs": [
        {
          "name": "account",
          "type": "address"
        },
        {
          "name": "mineCoin",
          "type": "address"
        }
      ],
      "name": "getMinerBalance",
      "outputs": [
        {
          "name": "",
          "type": "uint256"
        }
      ],
      "payable": false,
      "stateMutability": "view",
      "type": "function"
    },
    {
      "constant": false,
      "inputs": [
        {
          "name": "mineCoin",
          "type": "address"
        },
        {
          "name": "_mineAmount",
          "type": "uint256"
        },
        {
          "name": "_mineInterval",
          "type": "uint256"
        }
      ],
      "name": "setMineCoinInfo",
      "outputs": [],
      "payable": false,
      "stateMutability": "nonpayable",
      "type": "function"
    },
    {
      "constant": false,
      "inputs": [
        {
          "name": "mineCoin",
          "type": "address"
        },
        {
          "name": "_mineAmount",
          "type": "uint256"
        }
      ],
      "name": "setBuyingMineInfo",
      "outputs": [],
      "payable": false,
      "stateMutability": "nonpayable",
      "type": "function"
    },
    {
      "constant": true,
      "inputs": [
        {
          "name": "mineCoin",
          "type": "address"
        }
      ],
      "name": "getBuyingMineInfo",
      "outputs": [
        {
          "name": "",
          "type": "uint256"
        }
      ],
      "payable": false,
      "stateMutability": "view",
      "type": "function"
    },
    {
      "constant": true,
      "inputs": [],
      "name": "getBuyingMineInfoAll",
      "outputs": [
        {
          "name": "",
          "type": "address[]"
        },
        {
          "name": "",
          "type": "uint256[]"
        }
      ],
      "payable": false,
      "stateMutability": "view",
      "type": "function"
    },
    {
      "constant": false,
      "inputs": [
        {
          "name": "account",
          "type": "address"
        },
        {
          "name": "recieptor",
          "type": "address"
        },
        {
          "name": "amount",
          "type": "uint256"
        }
      ],
      "name": "transferMinerCoin",
      "outputs": [],
      "payable": false,
      "stateMutability": "nonpayable",
      "type": "function"
    },
    {
      "constant": false,
      "inputs": [
        {
          "name": "account",
          "type": "address"
        },
        {
          "name": "amount",
          "type": "uint256"
        }
      ],
      "name": "mintMinerCoin",
      "outputs": [],
      "payable": false,
      "stateMutability": "nonpayable",
      "type": "function"
    },
    {
      "constant": false,
      "inputs": [
        {
          "name": "account",
          "type": "address"
        },
        {
          "name": "amount",
          "type": "uint256"
        }
      ],
      "name": "burnMinerCoin",
      "outputs": [],
      "payable": false,
      "stateMutability": "nonpayable",
      "type": "function"
    },
    {
      "constant": false,
      "inputs": [
        {
          "name": "account",
          "type": "address"
        },
        {
          "name": "amount",
          "type": "uint256"
        }
      ],
      "name": "addMinerBalance",
      "outputs": [],
      "payable": false,
      "stateMutability": "nonpayable",
      "type": "function"
    },
    {
      "constant": false,
      "inputs": [
        {
          "name": "mineCoin",
          "type": "address"
        },
        {
          "name": "_mineAmount",
          "type": "uint256"
        }
      ],
      "name": "setMineAmount",
      "outputs": [],
      "payable": false,
      "stateMutability": "nonpayable",
      "type": "function"
    },
    {
      "constant": false,
      "inputs": [
        {
          "name": "mineCoin",
          "type": "address"
        },
        {
          "name": "_mineInterval",
          "type": "uint256"
        }
      ],
      "name": "setMineInterval",
      "outputs": [],
      "payable": false,
      "stateMutability": "nonpayable",
      "type": "function"
    },
    {
      "constant": false,
      "inputs": [
        {
          "name": "mineCoin",
          "type": "address"
        },
        {
          "name": "amount",
          "type": "uint256"
        }
      ],
      "name": "redeemMinerCoin",
      "outputs": [],
      "payable": false,
      "stateMutability": "nonpayable",
      "type": "function"
    }
  ],
  "bytecode": "0x60806040526001805460a060020a60ff02191690556004805460ff1916905534801561002a57600080fd5b5060008054600160a060020a0319163317808255604051600160a060020a039190911691907f8be0079c531659141344cd1fd0a4f28419497f9722a3daafe3b4186f6b6457e0908290a36122a8806100836000396000f3006080604052600436106101505763ffffffff60e060020a600035041663059621d7811461015257806309a9d76c146101875780630fabbeef146101ec5780632042e5c21461021f57806328675626146102405780632a04d0c7146102645780632b2fe4bc1461028857806341080415146102af578063687d5ac0146102d0578063715018a6146102f4578063817bf86d146103095780638399d9f31461032a57806387c0ee891461034e5780638af2a470146103725780638da5cb5b146103965780638f32d59b146103c7578063bdac4bf6146103dc578063c219043b146103fd578063d08da86114610421578063d0ebdbe714610445578063d323a11514610466578063d5009584146104a0578063dea2b7c1146104b5578063e7cd4a04146104dc578063e8b25b2b146104fd578063ef56807f146105ab578063f2fde38b146105d5578063f4954387146105f6575b005b34801561015e57600080fd5b50610173600160a060020a0360043516610610565b604080519115158252519081900360200190f35b34801561019357600080fd5b5061019c610648565b60408051602080825283518183015283519192839290830191858101910280838360005b838110156101d85781810151838201526020016101c0565b505050509050019250505060405180910390f35b3480156101f857600080fd5b5061020d600160a060020a03600435166106ab565b60408051918252519081900360200190f35b34801561022b57600080fd5b50610173600160a060020a03600435166106c6565b34801561024c57600080fd5b50610150600160a060020a036004351660243561071f565b34801561027057600080fd5b50610150600160a060020a0360043516602435610896565b34801561029457600080fd5b50610150600160a060020a036004351660243560443561094f565b3480156102bb57600080fd5b5061020d600160a060020a03600435166109da565b3480156102dc57600080fd5b50610150600160a060020a0360043516602435610aaf565b34801561030057600080fd5b50610150610b20565b34801561031557600080fd5b50610173600160a060020a0360043516610bc3565b34801561033657600080fd5b50610150600160a060020a0360043516602435610c29565b34801561035a57600080fd5b50610150600160a060020a0360043516602435610df7565b34801561037e57600080fd5b50610150600160a060020a0360043516602435610e6b565b3480156103a257600080fd5b506103ab610f24565b60408051600160a060020a039092168252519081900360200190f35b3480156103d357600080fd5b50610173610f33565b3480156103e857600080fd5b50610173600160a060020a0360043516610f44565b34801561040957600080fd5b50610150600160a060020a0360043516602435610f78565b34801561042d57600080fd5b50610150600160a060020a0360043516602435610fe0565b34801561045157600080fd5b50610150600160a060020a0360043516611051565b34801561047257600080fd5b50610487600160a060020a03600435166110cc565b6040805192835260208301919091528051918290030190f35b3480156104ac57600080fd5b506103ab6110f4565b3480156104c157600080fd5b5061020d600160a060020a0360043581169060243516611103565b3480156104e857600080fd5b50610150600160a060020a036004351661118d565b34801561050957600080fd5b50610512611204565b604051808060200180602001838103835285818151815260200191508051906020019060200280838360005b8381101561055657818101518382015260200161053e565b50505050905001838103825284818151815260200191508051906020019060200280838360005b8381101561059557818101518382015260200161057d565b5050505090500194505050505060405180910390f35b3480156105b757600080fd5b50610150600160a060020a0360043581169060243516604435611332565b3480156105e157600080fd5b50610150600160a060020a03600435166113a9565b34801561060257600080fd5b506101506004351515611401565b600061061b82610bc3565b80156106425750600160a060020a0382166000908152600360205260409020546002908116145b92915050565b606060028054806020026020016040519081016040528092919081815260200182805480156106a057602002820191906000526020600020905b8154600160a060020a03168152600190910190602001808311610682575b505050505090505b90565b600160a060020a03166000908152600c602052604090205490565b60006106d0610f33565b1515610714576040805160e560020a62461bcd028152602060048201819052602482015260008051602061225d833981519152604482015290519081900360640190fd5b61064260028361148d565b60045460009060ff161561073257600080fd5b6004805460ff191660019081179091555474010000000000000000000000000000000000000000900460ff16156107b3576040805160e560020a62461bcd02815260206004820152601760248201527f5468697320636f6e74726163742069732068616c746564000000000000000000604482015290519081900360640190fd5b6107bc8361157c565b6107c68333611689565b50600160a060020a038216600090815260056020908152604080832033845290915290205481811015610843576040805160e560020a62461bcd02815260206004820152601d60248201527f6d696e65722062616c616e636520697320696e73756666696369656e74000000604482015290519081900360640190fd5b610853818363ffffffff61169816565b600160a060020a038416600090815260056020908152604080832033808552925290912091909155610887908490846116e1565b50506004805460ff1916905550565b600154600160a060020a031633146108fa576040805160e560020a62461bcd028152602060048201526026602482015260008051602061221d833981519152604482015260008051602061223d833981519152606482015290519081900360840190fd5b610902611827565b61090c8282611869565b604080518281529051600160a060020a038416917fe3a3d55c0f116b90b74237f05fdd30afd41058e41ceca3298f57add1aaf1ddba919081900360200190a25050565b610957610f33565b151561099b576040805160e560020a62461bcd028152602060048201819052602482015260008051602061225d833981519152604482015290519081900360640190fd5b6109a48361157c565b600160a060020a0383166000908152600a60209081526040808320859055600b90915290208190556109d58361118d565b505050565b60008060008060006109ea6118b0565b600160a060020a0387166000908152600b602052604081205491955090935084118015610a175750600083115b15610a8a57600160a060020a0386166000908152600a60209081526040808320546009909252909120549092508390610a59908490420363ffffffff61192e16565b811515610a6257fe5b600160a060020a03881660009081526008602052604090205491900490810195509050610aa6565b600160a060020a03861660009081526008602052604090205494505b50505050919050565b610ab7610f33565b1515610afb576040805160e560020a62461bcd028152602060048201819052602482015260008051602061225d833981519152604482015290519081900360640190fd5b610b048261157c565b600160a060020a039091166000908152600a6020526040902055565b610b28610f33565b1515610b6c576040805160e560020a62461bcd028152602060048201819052602482015260008051602061225d833981519152604482015290519081900360640190fd5b60008054604051600160a060020a03909116907f8be0079c531659141344cd1fd0a4f28419497f9722a3daafe3b4186f6b6457e0908390a36000805473ffffffffffffffffffffffffffffffffffffffff19169055565b60006106426002805480602002602001604051908101604052809291908181526020018280548015610c1e57602002820191906000526020600020905b8154600160a060020a03168152600190910190602001808311610c00575b5050505050836119d8565b6001546000908190819081908190600160a060020a03163314610c98576040805160e560020a62461bcd028152602060048201526026602482015260008051602061221d833981519152604482015260008051602061223d833981519152606482015290519081900360840190fd5b6002549450600093505b84841015610dee576002805485908110610cb857fe5b6000918252602080832090910154600160a060020a0316808352600c90915260408220549094509250821115610de357670de0b6b3a7640000610d01838863ffffffff61192e16565b811515610d0a57fe5b600160a060020a038086166000908152600560209081526040808320938d16835292905220549190049150610d45908263ffffffff611a2916565b600160a060020a038085166000818152600560209081526040808320948d168352938152838220949094559081526008909252902054610d8b908263ffffffff611a2916565b600160a060020a0380851660008181526008602090815260409182902094909455805185815290519193928b16927fe2ed14571a53189bda27b61adf8f8959767b14d8e10233549b71ee2f2094207e92918290030190a35b600190930192610ca2565b50505050505050565b610dff610f33565b1515610e43576040805160e560020a62461bcd028152602060048201819052602482015260008051602061225d833981519152604482015290519081900360640190fd5b600160a060020a0382166000908152600c60205260409020819055610e678261118d565b5050565b600154600160a060020a03163314610ecf576040805160e560020a62461bcd028152602060048201526026602482015260008051602061221d833981519152604482015260008051602061223d833981519152606482015290519081900360840190fd5b610ed7611827565b610ee18282611a86565b604080518281529051600160a060020a038416917f0d174f4f9562761c729044bc2005a97e0beae4904dfe3d7a40bf7426e59910bc919081900360200190a25050565b600054600160a060020a031690565b600054600160a060020a0316331490565b6000610f4f82610bc3565b8015610642575050600160a060020a031660009081526003602052604090205460019081161490565b610f80610f33565b1515610fc4576040805160e560020a62461bcd028152602060048201819052602482015260008051602061225d833981519152604482015290519081900360640190fd5b600160a060020a03909116600090815260036020526040902055565b610fe8610f33565b151561102c576040805160e560020a62461bcd028152602060048201819052602482015260008051602061225d833981519152604482015290519081900360640190fd5b6110358261157c565b600160a060020a039091166000908152600b6020526040902055565b611059610f33565b151561109d576040805160e560020a62461bcd028152602060048201819052602482015260008051602061225d833981519152604482015290519081900360640190fd5b6001805473ffffffffffffffffffffffffffffffffffffffff1916600160a060020a0392909216919091179055565b600160a060020a03166000908152600a6020908152604080832054600b909252909120549091565b600154600160a060020a031690565b600160a060020a0380821660009081526005602090815260408083209386168352929052908120548180806111366118b0565b925061114187611acd565b91506000831180156111535750600082115b156111825761116186611b6a565b905061117f61117287898585611bdf565b859063ffffffff611a2916565b93505b509195945050505050565b611195610f33565b15156111d9576040805160e560020a62461bcd028152602060048201819052602482015260008051602061225d833981519152604482015290519081900360640190fd5b6111e4600282611cb4565b600160a060020a0316600090815260036020526040902063ffffffff9055565b60608060006060806000600280549050935083604051908082528060200260200182016040528015611240578160200160208202803883390190505b5092508360405190808252806020026020018201604052801561126d578160200160208202803883390190505b509150600090505b8381101561132757600280548290811061128b57fe5b6000918252602090912001548351600160a060020a03909116908490839081106112b157fe5b600160a060020a039092166020928302909101909101528251600c906000908590849081106112dc57fe5b90602001906020020151600160a060020a0316600160a060020a0316815260200190815260200160002054828281518110151561131557fe5b60209081029091010152600101611275565b509094909350915050565b600154600160a060020a03163314611396576040805160e560020a62461bcd028152602060048201526026602482015260008051602061221d833981519152604482015260008051602061223d833981519152606482015290519081900360840190fd5b61139e611827565b6109d5838383611d5b565b6113b1610f33565b15156113f5576040805160e560020a62461bcd028152602060048201819052602482015260008051602061225d833981519152604482015290519081900360640190fd5b6113fe81611df4565b50565b611409610f33565b151561144d576040805160e560020a62461bcd028152602060048201819052602482015260008051602061225d833981519152604482015290519081900360640190fd5b60018054911515740100000000000000000000000000000000000000000274ff000000000000000000000000000000000000000019909216919091179055565b8154600090815b818110156114dc5783600160a060020a031685828154811015156114b457fe5b600091825260209091200154600160a060020a031614156114d4576114dc565b600101611494565b8181101561156f576000198201811461155557846001830381548110151561150057fe5b6000918252602090912001548554600160a060020a039091169086908390811061152657fe5b9060005260206000200160006101000a815481600160a060020a030219169083600160a060020a031602179055505b84546115658660001983016121e3565b5060019250611574565b600092505b505092915050565b60008061158883611ee2565b600160a060020a0384166000908152600b602052604081205491935090915082111561163057600160a060020a0383166000908152600760205260409020546115e190670de0b6b3a7640000840263ffffffff611a2916565b600160a060020a038416600090815260076020908152604080832093909355600890522054611616908363ffffffff611a2916565b600160a060020a0384166000908152600860205260409020555b600081111561166b5780814281151561164557fe5b600160a060020a03861660009081526009602052604090209190049190910290556109d5565b5050600160a060020a03166000908152600960205260409020429055565b610e6782826000806000611f7f565b60006116da83836040805190810160405280601e81526020017f536166654d6174683a207375627472616374696f6e206f766572666c6f7700008152506120fb565b9392505050565b60008115156116ef57611821565b600160a060020a038416151561173b57604051600160a060020a0384169083156108fc029084906000818181858888f19350505050158015611735573d6000803e3d6000fd5b506117d5565b50604080517fa9059cbb000000000000000000000000000000000000000000000000000000008152600160a060020a038481166004830152602482018490529151859283169163a9059cbb9160448083019260209291908290030181600087803b1580156117a857600080fd5b505af11580156117bc573d6000803e3d6000fd5b505050506040513d60208110156117d257600080fd5b50505b83600160a060020a031683600160a060020a03167f92c7bc8749351478c3edd22482edba775f1353fb936db6bcadd331b65911ea83846040518082815260200191505060405180910390a35b50505050565b60025460005b81811015610e675761186160028281548110151561184757fe5b600091825260209091200154600160a060020a031661157c565b60010161182d565b60025460005b81811015611821576118a860028281548110151561188957fe5b6000918252602082200154600160a060020a0316908690866001611f7f565b60010161186f565b6000806118bb6110f4565b905080600160a060020a03166318160ddd6040518163ffffffff1660e060020a028152600401602060405180830381600087803b1580156118fb57600080fd5b505af115801561190f573d6000803e3d6000fd5b505050506040513d602081101561192557600080fd5b505191505b5090565b60008083151561194157600091506119d1565b5082820282848281151561195157fe5b04146119cd576040805160e560020a62461bcd02815260206004820152602160248201527f536166654d6174683a206d756c7469706c69636174696f6e206f766572666c6f60448201527f7700000000000000000000000000000000000000000000000000000000000000606482015290519081900360840190fd5b8091505b5092915050565b8151600090815b8181101561156f5783600160a060020a031685828151811015156119ff57fe5b90602001906020020151600160a060020a03161415611a215760019250611574565b6001016119df565b6000828201838110156119cd576040805160e560020a62461bcd02815260206004820152601b60248201527f536166654d6174683a206164646974696f6e206f766572666c6f770000000000604482015290519081900360640190fd5b60025460005b8181101561182157611ac5600282815481101515611aa657fe5b6000918252602082200154600160a060020a0316908690866002611f7f565b600101611a8c565b600080611ad86110f4565b905080600160a060020a03166370a08231846040518263ffffffff1660e060020a0281526004018082600160a060020a0316600160a060020a03168152602001915050602060405180830381600087803b158015611b3557600080fd5b505af1158015611b49573d6000803e3d6000fd5b505050506040513d6020811015611b5f57600080fd5b505191505b50919050565b6000806000611b7884611ee2565b9150611b826118b0565b90506000811115611bd357600160a060020a0384166000908152600760205260409020548190611bc290670de0b6b3a7640000850263ffffffff611a2916565b811515611bcb57fe5b049250611bd8565b600092505b5050919050565b600160a060020a03808516600090815260066020908152604080832093871683529290529081205480831015611c85576040805160e560020a62461bcd02815260206004820152602160248201527f6572726f723a20746f6b656e4e6574576f727468206c6f676963206572726f7260448201527f2100000000000000000000000000000000000000000000000000000000000000606482015290519081900360840190fd5b670de0b6b3a7640000611ca08583860363ffffffff61192e16565b811515611ca957fe5b049695505050505050565b611d1782805480602002602001604051908101604052809291908181526020018280548015611d0c57602002820191906000526020600020905b8154600160a060020a03168152600190910190602001808311611cee575b5050505050826119d8565b1515610e67578154600181018355600083815260209020018054600160a060020a03831673ffffffffffffffffffffffffffffffffffffffff199091161790555050565b60025460005b81811015611da257611d9a600282815481101515611d7b57fe5b600091825260209091200154600160a060020a03168686866003611f7f565b600101611d61565b83600160a060020a031685600160a060020a03167fbf32a9a59fc12476e5942fd33003d6089cb72bf1873d4a50e791584d440fae39856040518082815260200191505060405180910390a35050505050565b600160a060020a0381161515611e7a576040805160e560020a62461bcd02815260206004820152602660248201527f4f776e61626c653a206e6577206f776e657220697320746865207a65726f206160448201527f6464726573730000000000000000000000000000000000000000000000000000606482015290519081900360840190fd5b60008054604051600160a060020a03808516939216917f8be0079c531659141344cd1fd0a4f28419497f9722a3daafe3b4186f6b6457e091a36000805473ffffffffffffffffffffffffffffffffffffffff1916600160a060020a0392909216919091179055565b600160a060020a0381166000908152600b602052604081205481808080611f076118b0565b9350600084118015611f195750600085115b15611f7057600160a060020a0387166000908152600a602090815260408083205460099092529091205490935085904203811515611f5357fe5b049150611f66838363ffffffff61192e16565b9050809550611f75565b600095505b5050505050919050565b600080611f8a6118b0565b9150611f9587612198565b905060008211156120c757611fe9611fb78888611fb18a611acd565b85611bdf565b600160a060020a03808a166000908152600560209081526040808320938c16835292905220549063ffffffff611a2916565b600160a060020a038089166000908152600560209081526040808320938b1683529290522055600183141561206157600160a060020a0387166000908152600760205260409020546120439082860263ffffffff61169816565b600160a060020a0388166000908152600760205260409020556120c7565b600283141561209557600160a060020a0387166000908152600760205260409020546120439082860263ffffffff611a2916565b60038314156120c757600160a060020a0380881660009081526006602090815260408083209389168352929052208190555b600160a060020a03968716600090815260066020908152604080832098909916825296909652959094209490945550505050565b600080828585111561218e5760405160e560020a62461bcd0281526004018080602001828103825283818151815260200191508051906020019080838360005b8381101561215357818101518382015260200161213b565b50505050905090810190601f1680156121805780820380516001836020036101000a031916815260200191505b509250505060405180910390fd5b5050509103919050565b6000806121a36118b0565b905060008111156121da57600160a060020a03831660009081526007602052604090205481908115156121d257fe5b049150611b64565b50600092915050565b8154818355818111156109d5576000838152602090206109d59181019083016106a891905b8082111561192a576000815560010161220856004d616e6167657261626c653a2063616c6c6572206973206e6f7420746865204d616e6167657200000000000000000000000000000000000000000000000000004f776e61626c653a2063616c6c6572206973206e6f7420746865206f776e6572a165627a7a72305820579b4157eb11b3e51ce0369872a1515be2cce9eb7f61becd6210b08e3490749c0029",
  "source": "pragma solidity ^0.4.26;\r\nimport \"./modules/SafeMath.sol\";\r\nimport \"./modules/Managerable.sol\";\r\nimport \"./modules/AddressWhiteList.sol\";\r\nimport \"./modules/ReentrancyGuard.sol\";\r\nimport \"./interfaces/IERC20.sol\";\r\ncontract FNXMinePool is Managerable,AddressWhiteList,ReentrancyGuard {\r\n    using SafeMath for uint256;\r\n    uint256 constant calDecimals = 1e18;\r\n    mapping(address=>mapping(address=>uint256)) internal minerBalances;\r\n    mapping(address=>mapping(address=>uint256)) internal minerOrigins;\r\n    mapping(address=>uint256) internal totalMinedWorth;\r\n    mapping(address=>uint256) internal totalMinedCoin;\r\n    mapping(address=>uint256) internal latestSettleTime;\r\n    mapping(address=>uint256) internal mineAmount;\r\n    mapping(address=>uint256) internal mineInterval;\r\n    mapping(address=>uint256) internal buyingMineMap;\r\n    uint256 constant private opBurnCoin = 1;\r\n    uint256 constant private opMintCoin = 2;\r\n    uint256 constant private opTransferCoin = 3;\r\n    event DebugEvent(uint256 value0,uint256 value1,uint256 value2,uint256 value3);\r\n    event MintMiner(address indexed account,uint256 amount);\r\n    event BurnMiner(address indexed account,uint256 amount);\r\n    event RedeemMineCoin(address indexed from, address indexed mineCoin, uint256 value);\r\n    event TranserMiner(address indexed from, address indexed to, uint256 amount);\r\n    event BuyingMiner(address indexed account,address indexed mineCoin,uint256 amount);\r\n    constructor () public{\r\n    }\r\n    function()public payable{\r\n\r\n    }\r\n\r\n    function getTotalMined(address mineCoin)public view returns(uint256){\r\n        uint256 _totalSupply = totalSupply();\r\n        uint256 _mineInterval = mineInterval[mineCoin];\r\n        if (_totalSupply > 0 && _mineInterval>0){\r\n            uint256 _mineAmount = mineAmount[mineCoin];\r\n            uint256 latestMined = _mineAmount.mul(now-latestSettleTime[mineCoin])/_mineInterval;\r\n            return totalMinedCoin[mineCoin] + latestMined;\r\n        }\r\n        return totalMinedCoin[mineCoin];\r\n    }\r\n    function getMineInfo(address mineCoin)public view returns(uint256,uint256){\r\n        return (mineAmount[mineCoin],mineInterval[mineCoin]);\r\n    }\r\n\r\n    function getMinerBalance(address account,address mineCoin)public view returns(uint256){\r\n        uint256 totalBalance = minerBalances[mineCoin][account];\r\n        uint256 _totalSupply = totalSupply();\r\n        uint256 balance = balanceOf(account);\r\n        if (_totalSupply > 0 && balance>0){\r\n            uint256 tokenNetWorth = _getCurrentTokenNetWorth(mineCoin);\r\n            totalBalance= totalBalance.add(_settlement(mineCoin,account,balance,tokenNetWorth));\r\n        }\r\n        return totalBalance;\r\n    }\r\n    function setMineCoinInfo(address mineCoin,uint256 _mineAmount,uint256 _mineInterval)public onlyOwner {\r\n        _mineSettlement(mineCoin);\r\n        mineAmount[mineCoin] = _mineAmount;\r\n        mineInterval[mineCoin] = _mineInterval;\r\n        addWhiteList(mineCoin);\r\n    }\r\n    function setBuyingMineInfo(address mineCoin,uint256 _mineAmount)public onlyOwner {\r\n        buyingMineMap[mineCoin] = _mineAmount;\r\n        addWhiteList(mineCoin);\r\n    }\r\n    function getBuyingMineInfo(address mineCoin)public view returns(uint256){\r\n        return buyingMineMap[mineCoin];\r\n    }\r\n    function getBuyingMineInfoAll()public view returns(address[],uint256[]){\r\n        uint256 len = whiteList.length;\r\n        address[] memory mineCoins = new address[](len);\r\n        uint256[] memory mineNums = new uint256[](len);\r\n        for (uint256 i=0;i<len;i++){\r\n            mineCoins[i] = whiteList[i];\r\n            mineNums[i] = buyingMineMap[mineCoins[i]];\r\n        }\r\n        return (mineCoins,mineNums);\r\n    }\r\n    function transferMinerCoin(address account,address recieptor,uint256 amount) public onlyManager {\r\n        _mineSettlementAll();\r\n        _transferMinerCoin(account,recieptor,amount);\r\n    }\r\n    function mintMinerCoin(address account,uint256 amount) public onlyManager {\r\n        _mineSettlementAll();\r\n        _mintMinerCoin(account,amount);\r\n        emit MintMiner(account,amount);\r\n    }\r\n    function burnMinerCoin(address account,uint256 amount) public onlyManager {\r\n        _mineSettlementAll();\r\n        _burnMinerCoin(account,amount);\r\n        emit BurnMiner(account,amount);\r\n    }\r\n    function addMinerBalance(address account,uint256 amount) public onlyManager {\r\n        uint256 len = whiteList.length;\r\n        for (uint256 i=0;i<len;i++){\r\n            address addr = whiteList[i];\r\n            uint256 mineNum = buyingMineMap[addr];\r\n            if (mineNum > 0){\r\n                uint256 _mineAmount = mineNum.mul(amount)/calDecimals;\r\n                minerBalances[addr][account] = minerBalances[addr][account].add(_mineAmount);\r\n                totalMinedCoin[addr] = totalMinedCoin[addr].add(_mineAmount);\r\n                emit BuyingMiner(account,addr,_mineAmount);\r\n            }\r\n        }\r\n    }\r\n    function setMineAmount(address mineCoin,uint256 _mineAmount)public onlyOwner {\r\n        _mineSettlement(mineCoin);\r\n        mineAmount[mineCoin] = _mineAmount;\r\n    }\r\n    function setMineInterval(address mineCoin,uint256 _mineInterval)public onlyOwner {\r\n        _mineSettlement(mineCoin);\r\n        mineInterval[mineCoin] = _mineInterval;\r\n    }\r\n    function redeemMinerCoin(address mineCoin,uint256 amount)public nonReentrant notHalted {\r\n        _mineSettlement(mineCoin);\r\n        _settlementAllCoin(mineCoin,msg.sender);\r\n        uint256 minerAmount = minerBalances[mineCoin][msg.sender];\r\n        require(minerAmount>=amount,\"miner balance is insufficient\");\r\n\r\n        minerBalances[mineCoin][msg.sender] = minerAmount.sub(amount);\r\n        _redeemMineCoin(mineCoin,msg.sender,amount);\r\n    }\r\n    function _redeemMineCoin(address mineCoin,address recieptor,uint256 amount)internal {\r\n        if (amount == 0){\r\n            return;\r\n        }\r\n        if (mineCoin == address(0)){\r\n            recieptor.transfer(amount);\r\n        }else{\r\n            IERC20 minerToken = IERC20(mineCoin);\r\n            minerToken.transfer(recieptor,amount);\r\n        }\r\n        emit RedeemMineCoin(recieptor,mineCoin,amount);\r\n    }\r\n    function _mineSettlementAll()internal{\r\n        uint256 addrLen = whiteList.length;\r\n        for(uint256 i=0;i<addrLen;i++){\r\n            _mineSettlement(whiteList[i]);\r\n        }\r\n    }\r\n    function _mineSettlement(address mineCoin)internal{\r\n        uint256 latestMined = _getLatestMined(mineCoin);\r\n        uint256 _mineInterval = mineInterval[mineCoin];\r\n        if (latestMined>0){\r\n            totalMinedWorth[mineCoin] = totalMinedWorth[mineCoin].add(latestMined*calDecimals);\r\n            totalMinedCoin[mineCoin] = totalMinedCoin[mineCoin].add(latestMined);\r\n        }\r\n        if (_mineInterval>0){\r\n            latestSettleTime[mineCoin] = now/_mineInterval*_mineInterval;\r\n        }else{\r\n            latestSettleTime[mineCoin] = now;\r\n        }\r\n    }\r\n    function _getLatestMined(address mineCoin)internal view returns(uint256){\r\n        uint256 _mineInterval = mineInterval[mineCoin];\r\n        uint256 _totalSupply = totalSupply();\r\n        if (_totalSupply > 0 && _mineInterval>0){\r\n            uint256 _mineAmount = mineAmount[mineCoin];\r\n            uint256 mintTime = (now-latestSettleTime[mineCoin])/_mineInterval;\r\n            uint256 latestMined = _mineAmount.mul(mintTime);\r\n            return latestMined;\r\n        }\r\n        return 0;\r\n    }\r\n    function _transferMinerCoin(address account,address recipient,uint256 amount)internal{\r\n        uint256 addrLen = whiteList.length;\r\n        for(uint256 i=0;i<addrLen;i++){\r\n            settleMinerBalance(whiteList[i],account,recipient,amount,opTransferCoin);\r\n        }\r\n        emit TranserMiner(account,recipient,amount);\r\n    }\r\n    function _mintMinerCoin(address account,uint256 amount)internal{\r\n        uint256 addrLen = whiteList.length;\r\n        for(uint256 i=0;i<addrLen;i++){\r\n            settleMinerBalance(whiteList[i],account,address(0),amount,opMintCoin);\r\n        }\r\n    }\r\n    function _settlementAllCoin(address mineCoin,address account)internal{\r\n        settleMinerBalance(mineCoin,account,address(0),0,0);\r\n    }\r\n    function _burnMinerCoin(address account,uint256 amount)internal{\r\n        uint256 addrLen = whiteList.length;\r\n        for(uint256 i=0;i<addrLen;i++){\r\n            settleMinerBalance(whiteList[i],account,address(0),amount,opBurnCoin);\r\n        }\r\n    }\r\n    function settleMinerBalance(address mineCoin,address account,address recipient,uint256 amount,uint256 operators)internal{\r\n        uint256 _totalSupply = totalSupply();\r\n        uint256 tokenNetWorth = _getTokenNetWorth(mineCoin);\r\n        if (_totalSupply > 0){\r\n            minerBalances[mineCoin][account] = minerBalances[mineCoin][account].add(\r\n                    _settlement(mineCoin,account,balanceOf(account),tokenNetWorth));\r\n            if (operators == opBurnCoin){\r\n                totalMinedWorth[mineCoin] = totalMinedWorth[mineCoin].sub(tokenNetWorth*amount);\r\n            }else if (operators==opMintCoin){\r\n                totalMinedWorth[mineCoin] = totalMinedWorth[mineCoin].add(tokenNetWorth*amount);\r\n            }else if (operators==opTransferCoin){\r\n                minerOrigins[mineCoin][recipient] = tokenNetWorth;\r\n            }\r\n        }\r\n        minerOrigins[mineCoin][account] = tokenNetWorth;\r\n    }\r\n    function _settlement(address mineCoin,address account,uint256 amount,uint256 tokenNetWorth)internal view returns (uint256) {\r\n        uint256 origin = minerOrigins[mineCoin][account];\r\n        require(tokenNetWorth>=origin,\"error: tokenNetWorth logic error!\");\r\n        return amount.mul(tokenNetWorth-origin)/calDecimals;\r\n    }\r\n    function _getCurrentTokenNetWorth(address mineCoin)internal view returns (uint256) {\r\n        uint256 latestMined = _getLatestMined(mineCoin);\r\n        uint256 _totalSupply = totalSupply();\r\n        if (_totalSupply > 0){\r\n            return (totalMinedWorth[mineCoin].add(latestMined*calDecimals))/_totalSupply;\r\n        }\r\n        return 0;\r\n    }\r\n    function _getTokenNetWorth(address mineCoin)internal view returns (uint256) {\r\n        uint256 _totalSupply = totalSupply();\r\n        if (_totalSupply > 0){\r\n            return totalMinedWorth[mineCoin]/_totalSupply;\r\n        }\r\n        return 0;\r\n    }\r\n    function totalSupply()internal view returns(uint256){\r\n        IERC20 _FPTCoin = IERC20(getManager());\r\n        return _FPTCoin.totalSupply();\r\n    }\r\n    function balanceOf(address account)internal view returns(uint256){\r\n        IERC20 _FPTCoin = IERC20(getManager());\r\n        return _FPTCoin.balanceOf(account);\r\n    }\r\n}",
  "sourcePath": "C:\\work\\solidity\\FinnexusOptions_V2\\contracts\\FNXMinePool.sol",
  "compiler": {
    "name": "solc",
    "version": "0.4.26+commit.4563c3fc.Emscripten.clang"
  },
  "schemaVersion": "3.1.0",
  "updatedAt": "2020-08-05T06:53:15.953Z",
  "devdoc": {
    "methods": {
      "addWhiteList(address)": {
        "details": "Implementation of add an eligible address into the whitelist.\r",
        "params": {
          "addAddress": "new eligible address.\r"
        }
      },
      "getWhiteList()": {
        "details": "Implementation of getting the eligible whitelist.\r"
      },
      "isEligibleAddress(address)": {
        "details": "Implementation of testing whether the input address is eligible.\r",
        "params": {
          "tmpAddress": "input address for testing.\r"
        }
      },
      "isOwner()": {
        "details": "Returns true if the caller is the current owner."
      },
      "owner()": {
        "details": "Returns the address of the current owner."
      },
      "removeWhiteList(address)": {
        "details": "Implementation of revoke an invalid address from the whitelist.\r",
        "params": {
          "removeAddress": "revoked address.\r"
        }
      },
      "renounceOwnership()": {
        "details": "Leaves the contract without owner. It will not be possible to call `onlyOwner` functions anymore. Can only be called by the current owner.     * NOTE: Renouncing ownership will leave the contract without an owner, thereby removing any functionality that is only available to the owner."
      },
      "transferOwnership(address)": {
        "details": "Transfers ownership of the contract to a new account (`newOwner`). Can only be called by the current owner."
      }
    }
  },
  "userdoc": {
    "methods": {
      "setHalt(bool)": {
        "notice": "function Emergency situation that requires contribution period to stop or not."
      },
      "setManager(address)": {
        "notice": "contribution period to stop or not."
      }
    }
  }
}