{
  "contractName": "FNXMinePool",
  "abi": [
    {
      "constant": true,
      "inputs": [
        {
          "name": "tmpAddress",
          "type": "address"
        }
      ],
      "name": "checkAddressRedeemOut",
      "outputs": [
        {
          "name": "",
          "type": "bool"
        }
      ],
      "payable": false,
      "stateMutability": "view",
      "type": "function"
    },
    {
      "constant": true,
      "inputs": [],
      "name": "getWhiteList",
      "outputs": [
        {
          "name": "",
          "type": "address[]"
        }
      ],
      "payable": false,
      "stateMutability": "view",
      "type": "function"
    },
    {
      "constant": false,
      "inputs": [
        {
          "name": "removeAddress",
          "type": "address"
        }
      ],
      "name": "removeWhiteList",
      "outputs": [
        {
          "name": "",
          "type": "bool"
        }
      ],
      "payable": false,
      "stateMutability": "nonpayable",
      "type": "function"
    },
    {
      "constant": true,
      "inputs": [
        {
          "name": "",
          "type": "uint256"
        }
      ],
      "name": "whiteList",
      "outputs": [
        {
          "name": "",
          "type": "address"
        }
      ],
      "payable": false,
      "stateMutability": "view",
      "type": "function"
    },
    {
      "constant": false,
      "inputs": [],
      "name": "renounceOwnership",
      "outputs": [],
      "payable": false,
      "stateMutability": "nonpayable",
      "type": "function"
    },
    {
      "constant": true,
      "inputs": [
        {
          "name": "tmpAddress",
          "type": "address"
        }
      ],
      "name": "isEligibleAddress",
      "outputs": [
        {
          "name": "",
          "type": "bool"
        }
      ],
      "payable": false,
      "stateMutability": "view",
      "type": "function"
    },
    {
      "constant": true,
      "inputs": [],
      "name": "owner",
      "outputs": [
        {
          "name": "",
          "type": "address"
        }
      ],
      "payable": false,
      "stateMutability": "view",
      "type": "function"
    },
    {
      "constant": true,
      "inputs": [],
      "name": "isOwner",
      "outputs": [
        {
          "name": "",
          "type": "bool"
        }
      ],
      "payable": false,
      "stateMutability": "view",
      "type": "function"
    },
    {
      "constant": true,
      "inputs": [],
      "name": "halted",
      "outputs": [
        {
          "name": "",
          "type": "bool"
        }
      ],
      "payable": false,
      "stateMutability": "view",
      "type": "function"
    },
    {
      "constant": true,
      "inputs": [
        {
          "name": "tmpAddress",
          "type": "address"
        }
      ],
      "name": "checkAddressPayIn",
      "outputs": [
        {
          "name": "",
          "type": "bool"
        }
      ],
      "payable": false,
      "stateMutability": "view",
      "type": "function"
    },
    {
      "constant": false,
      "inputs": [
        {
          "name": "addAddress",
          "type": "address"
        },
        {
          "name": "permission",
          "type": "uint256"
        }
      ],
      "name": "modifyPermission",
      "outputs": [],
      "payable": false,
      "stateMutability": "nonpayable",
      "type": "function"
    },
    {
      "constant": false,
      "inputs": [
        {
          "name": "managerAddress",
          "type": "address"
        }
      ],
      "name": "setManager",
      "outputs": [],
      "payable": false,
      "stateMutability": "nonpayable",
      "type": "function"
    },
    {
      "constant": true,
      "inputs": [],
      "name": "getManager",
      "outputs": [
        {
          "name": "",
          "type": "address"
        }
      ],
      "payable": false,
      "stateMutability": "view",
      "type": "function"
    },
    {
      "constant": false,
      "inputs": [
        {
          "name": "addAddress",
          "type": "address"
        }
      ],
      "name": "addWhiteList",
      "outputs": [],
      "payable": false,
      "stateMutability": "nonpayable",
      "type": "function"
    },
    {
      "constant": false,
      "inputs": [
        {
          "name": "newOwner",
          "type": "address"
        }
      ],
      "name": "transferOwnership",
      "outputs": [],
      "payable": false,
      "stateMutability": "nonpayable",
      "type": "function"
    },
    {
      "constant": false,
      "inputs": [
        {
          "name": "halt",
          "type": "bool"
        }
      ],
      "name": "setHalt",
      "outputs": [],
      "payable": false,
      "stateMutability": "nonpayable",
      "type": "function"
    },
    {
      "inputs": [],
      "payable": false,
      "stateMutability": "nonpayable",
      "type": "constructor"
    },
    {
      "payable": true,
      "stateMutability": "payable",
      "type": "fallback"
    },
    {
      "anonymous": false,
      "inputs": [
        {
          "indexed": true,
          "name": "from",
          "type": "address"
        },
        {
          "indexed": true,
          "name": "to",
          "type": "address"
        },
        {
          "indexed": false,
          "name": "value",
          "type": "uint256"
        }
      ],
      "name": "RedeemMineCoin",
      "type": "event"
    },
    {
      "anonymous": false,
      "inputs": [
        {
          "indexed": true,
          "name": "previousOwner",
          "type": "address"
        },
        {
          "indexed": true,
          "name": "newOwner",
          "type": "address"
        }
      ],
      "name": "OwnershipTransferred",
      "type": "event"
    },
    {
      "constant": true,
      "inputs": [
        {
          "name": "mineCoin",
          "type": "address"
        }
      ],
      "name": "getTotalMined",
      "outputs": [
        {
          "name": "",
          "type": "uint256"
        }
      ],
      "payable": false,
      "stateMutability": "view",
      "type": "function"
    },
    {
      "constant": true,
      "inputs": [
        {
          "name": "mineCoin",
          "type": "address"
        }
      ],
      "name": "getMineInfo",
      "outputs": [
        {
          "name": "",
          "type": "uint256"
        },
        {
          "name": "",
          "type": "uint256"
        }
      ],
      "payable": false,
      "stateMutability": "view",
      "type": "function"
    },
    {
      "constant": true,
      "inputs": [
        {
          "name": "account",
          "type": "address"
        },
        {
          "name": "mineCoin",
          "type": "address"
        }
      ],
      "name": "getMinerBalance",
      "outputs": [
        {
          "name": "",
          "type": "uint256"
        }
      ],
      "payable": false,
      "stateMutability": "view",
      "type": "function"
    },
    {
      "constant": false,
      "inputs": [
        {
          "name": "mineCoin",
          "type": "address"
        },
        {
          "name": "_mineAmount",
          "type": "uint256"
        },
        {
          "name": "_mineInterval",
          "type": "uint256"
        }
      ],
      "name": "setMineCoinInfo",
      "outputs": [],
      "payable": false,
      "stateMutability": "nonpayable",
      "type": "function"
    },
    {
      "constant": false,
      "inputs": [
        {
          "name": "account",
          "type": "address"
        },
        {
          "name": "recieptor",
          "type": "address"
        },
        {
          "name": "amount",
          "type": "uint256"
        }
      ],
      "name": "transferMinerCoin",
      "outputs": [],
      "payable": false,
      "stateMutability": "nonpayable",
      "type": "function"
    },
    {
      "constant": false,
      "inputs": [
        {
          "name": "account",
          "type": "address"
        },
        {
          "name": "amount",
          "type": "uint256"
        }
      ],
      "name": "mintMinerCoin",
      "outputs": [],
      "payable": false,
      "stateMutability": "nonpayable",
      "type": "function"
    },
    {
      "constant": false,
      "inputs": [
        {
          "name": "account",
          "type": "address"
        },
        {
          "name": "amount",
          "type": "uint256"
        }
      ],
      "name": "burnMinerCoin",
      "outputs": [],
      "payable": false,
      "stateMutability": "nonpayable",
      "type": "function"
    },
    {
      "constant": false,
      "inputs": [
        {
          "name": "account",
          "type": "address"
        },
        {
          "name": "amount",
          "type": "uint256"
        }
      ],
      "name": "addMinerBalance",
      "outputs": [],
      "payable": false,
      "stateMutability": "nonpayable",
      "type": "function"
    },
    {
      "constant": false,
      "inputs": [
        {
          "name": "mineCoin",
          "type": "address"
        },
        {
          "name": "_mineAmount",
          "type": "uint256"
        }
      ],
      "name": "setMineAmount",
      "outputs": [],
      "payable": false,
      "stateMutability": "nonpayable",
      "type": "function"
    },
    {
      "constant": false,
      "inputs": [
        {
          "name": "mineCoin",
          "type": "address"
        },
        {
          "name": "_mineInterval",
          "type": "uint256"
        }
      ],
      "name": "setMineInterval",
      "outputs": [],
      "payable": false,
      "stateMutability": "nonpayable",
      "type": "function"
    },
    {
      "constant": false,
      "inputs": [
        {
          "name": "mineCoin",
          "type": "address"
        },
        {
          "name": "amount",
          "type": "uint256"
        }
      ],
      "name": "redeemMinerCoin",
      "outputs": [],
      "payable": false,
      "stateMutability": "nonpayable",
      "type": "function"
    }
  ],
  "bytecode": "0x60806040526001805460a060020a60ff02191690556004805460ff1916905534801561002a57600080fd5b5060008054600160a060020a0319163317808255604051600160a060020a039190911691907f8be0079c531659141344cd1fd0a4f28419497f9722a3daafe3b4186f6b6457e0908290a3611f76806100836000396000f3006080604052600436106101455763ffffffff60e060020a600035041663059621d7811461014757806309a9d76c1461017c5780632042e5c2146101e157806328675626146102025780632a04d0c7146102265780632b2fe4bc1461024a57806341080415146102715780635c475d42146102a4578063687d5ac0146102d8578063715018a6146102fc578063817bf86d146103115780638399d9f3146103325780638af2a470146103565780638da5cb5b1461037a5780638f32d59b1461038f578063b9b8af0b146103a4578063bdac4bf6146103b9578063c219043b146103da578063d08da861146103fe578063d0ebdbe714610422578063d323a11514610443578063d50095841461047d578063dea2b7c114610492578063e7cd4a04146104b9578063ef56807f146104da578063f2fde38b14610504578063f495438714610525575b005b34801561015357600080fd5b50610168600160a060020a036004351661053f565b604080519115158252519081900360200190f35b34801561018857600080fd5b50610191610577565b60408051602080825283518183015283519192839290830191858101910280838360005b838110156101cd5781810151838201526020016101b5565b505050509050019250505060405180910390f35b3480156101ed57600080fd5b50610168600160a060020a03600435166105da565b34801561020e57600080fd5b50610145600160a060020a0360043516602435610633565b34801561023257600080fd5b50610145600160a060020a03600435166024356107aa565b34801561025657600080fd5b50610145600160a060020a0360043516602435604435610824565b34801561027d57600080fd5b50610292600160a060020a03600435166108af565b60408051918252519081900360200190f35b3480156102b057600080fd5b506102bc600435610987565b60408051600160a060020a039092168252519081900360200190f35b3480156102e457600080fd5b50610145600160a060020a03600435166024356109af565b34801561030857600080fd5b50610145610a20565b34801561031d57600080fd5b50610168600160a060020a0360043516610ac3565b34801561033e57600080fd5b50610145600160a060020a0360043516602435610b29565b34801561036257600080fd5b50610145600160a060020a0360043516602435610cbf565b34801561038657600080fd5b506102bc610d35565b34801561039b57600080fd5b50610168610d44565b3480156103b057600080fd5b50610168610d55565b3480156103c557600080fd5b50610168600160a060020a0360043516610d76565b3480156103e657600080fd5b50610145600160a060020a0360043516602435610daa565b34801561040a57600080fd5b50610145600160a060020a0360043516602435610e12565b34801561042e57600080fd5b50610145600160a060020a0360043516610e83565b34801561044f57600080fd5b50610464600160a060020a0360043516610efe565b6040805192835260208301919091528051918290030190f35b34801561048957600080fd5b506102bc610f26565b34801561049e57600080fd5b50610292600160a060020a0360043581169060243516610f35565b3480156104c557600080fd5b50610145600160a060020a0360043516610fbf565b3480156104e657600080fd5b50610145600160a060020a0360043581169060243516604435611036565b34801561051057600080fd5b50610145600160a060020a03600435166110ad565b34801561053157600080fd5b506101456004351515611105565b600061054a82610ac3565b80156105715750600160a060020a0382166000908152600360205260409020546002908116145b92915050565b606060028054806020026020016040519081016040528092919081815260200182805480156105cf57602002820191906000526020600020905b8154600160a060020a031681526001909101906020018083116105b1575b505050505090505b90565b60006105e4610d44565b1515610628576040805160e560020a62461bcd0281526020600482018190526024820152600080516020611f2b833981519152604482015290519081900360640190fd5b610571600283611191565b60045460009060ff161561064657600080fd5b6004805460ff191660019081179091555474010000000000000000000000000000000000000000900460ff16156106c7576040805160e560020a62461bcd02815260206004820152601760248201527f5468697320636f6e74726163742069732068616c746564000000000000000000604482015290519081900360640190fd5b6106d083611280565b6106da83336113df565b50600160a060020a038216600090815260056020908152604080832033845290915290205481811015610757576040805160e560020a62461bcd02815260206004820152601d60248201527f6d696e65722062616c616e636520697320696e73756666696369656e74000000604482015290519081900360640190fd5b610767818363ffffffff6113ee16565b600160a060020a03841660009081526005602090815260408083203380855292529091209190915561079b90849084611437565b50506004805460ff1916905550565b600154600160a060020a0316331461080e576040805160e560020a62461bcd0281526020600482015260266024820152600080516020611eeb8339815191526044820152600080516020611f0b833981519152606482015290519081900360840190fd5b61081661157d565b61082082826115bf565b5050565b61082c610d44565b1515610870576040805160e560020a62461bcd0281526020600482018190526024820152600080516020611f2b833981519152604482015290519081900360640190fd5b61087983611280565b600160a060020a0383166000908152600a60209081526040808320859055600b90915290208190556108aa83610fbf565b505050565b60008060008060006108bf611606565b600160a060020a0387166000908152600b6020526040812054919550909350841180156108ec5750600083115b1561096257600160a060020a0386166000908152600a602090815260408083205460099092529091205490925061093e908490610932908590420363ffffffff61168416565b9063ffffffff61172e16565b600160a060020a03871660009081526008602052604090205481019550905061097e565b600160a060020a03861660009081526008602052604090205494505b50505050919050565b600280548290811061099557fe5b600091825260209091200154600160a060020a0316905081565b6109b7610d44565b15156109fb576040805160e560020a62461bcd0281526020600482018190526024820152600080516020611f2b833981519152604482015290519081900360640190fd5b610a0482611280565b600160a060020a039091166000908152600a6020526040902055565b610a28610d44565b1515610a6c576040805160e560020a62461bcd0281526020600482018190526024820152600080516020611f2b833981519152604482015290519081900360640190fd5b60008054604051600160a060020a03909116907f8be0079c531659141344cd1fd0a4f28419497f9722a3daafe3b4186f6b6457e0908390a36000805473ffffffffffffffffffffffffffffffffffffffff19169055565b60006105716002805480602002602001604051908101604052809291908181526020018280548015610b1e57602002820191906000526020600020905b8154600160a060020a03168152600190910190602001808311610b00575b505050505083611770565b600080610b34611e9a565b600154600090600160a060020a03163314610b9b576040805160e560020a62461bcd0281526020600482015260266024820152600080516020611eeb8339815191526044820152600080516020611f0b833981519152606482015290519081900360840190fd5b600c549350600092505b83831015610cb757600c805484908110610bbb57fe5b6000918252602091829020604080518082019091526002909202018054600160a060020a03168252600101549181018290529250610c0d90670de0b6b3a764000090610932908863ffffffff61168416565b8251600160a060020a039081166000908152600560209081526040808320938b1683529290522054909150610c48908263ffffffff6117c116565b8251600160a060020a0390811660009081526005602090815260408083208b851684528252808320949094558551909216815260089091522054610c92908263ffffffff6117c116565b8251600160a060020a0316600090815260086020526040902055600190920191610ba5565b505050505050565b600154600160a060020a03163314610d23576040805160e560020a62461bcd0281526020600482015260266024820152600080516020611eeb8339815191526044820152600080516020611f0b833981519152606482015290519081900360840190fd5b610d2b61157d565b610820828261181e565b600054600160a060020a031690565b600054600160a060020a0316331490565b60015474010000000000000000000000000000000000000000900460ff1681565b6000610d8182610ac3565b8015610571575050600160a060020a031660009081526003602052604090205460019081161490565b610db2610d44565b1515610df6576040805160e560020a62461bcd0281526020600482018190526024820152600080516020611f2b833981519152604482015290519081900360640190fd5b600160a060020a03909116600090815260036020526040902055565b610e1a610d44565b1515610e5e576040805160e560020a62461bcd0281526020600482018190526024820152600080516020611f2b833981519152604482015290519081900360640190fd5b610e6782611280565b600160a060020a039091166000908152600b6020526040902055565b610e8b610d44565b1515610ecf576040805160e560020a62461bcd0281526020600482018190526024820152600080516020611f2b833981519152604482015290519081900360640190fd5b6001805473ffffffffffffffffffffffffffffffffffffffff1916600160a060020a0392909216919091179055565b600160a060020a03166000908152600a6020908152604080832054600b909252909120549091565b600154600160a060020a031690565b600160a060020a038082166000908152600560209081526040808320938616835292905290812054818080610f68611606565b9250610f7387611865565b9150600083118015610f855750600082115b15610fb457610f9386611900565b9050610fb1610fa48789858561194a565b859063ffffffff6117c116565b93505b509195945050505050565b610fc7610d44565b151561100b576040805160e560020a62461bcd0281526020600482018190526024820152600080516020611f2b833981519152604482015290519081900360640190fd5b611016600282611a18565b600160a060020a0316600090815260036020526040902063ffffffff9055565b600154600160a060020a0316331461109a576040805160e560020a62461bcd0281526020600482015260266024820152600080516020611eeb8339815191526044820152600080516020611f0b833981519152606482015290519081900360840190fd5b6110a261157d565b6108aa838383611abf565b6110b5610d44565b15156110f9576040805160e560020a62461bcd0281526020600482018190526024820152600080516020611f2b833981519152604482015290519081900360640190fd5b61110281611b06565b50565b61110d610d44565b1515611151576040805160e560020a62461bcd0281526020600482018190526024820152600080516020611f2b833981519152604482015290519081900360640190fd5b60018054911515740100000000000000000000000000000000000000000274ff000000000000000000000000000000000000000019909216919091179055565b8154600090815b818110156111e05783600160a060020a031685828154811015156111b857fe5b600091825260209091200154600160a060020a031614156111d8576111e0565b600101611198565b81811015611273576000198201811461125957846001830381548110151561120457fe5b6000918252602090912001548554600160a060020a039091169086908390811061122a57fe5b9060005260206000200160006101000a815481600160a060020a030219169083600160a060020a031602179055505b8454611269866000198301611eb1565b5060019250611278565b600092505b505092915050565b600160a060020a0381166000908152600b60205260408120549080806112a4611606565b92506000831180156112b65750600084115b1561138157600160a060020a0385166000908152600a60209081526040808320546009909252909120549092506112fc908590610932908590420363ffffffff61168416565b600160a060020a03861660009081526007602052604090205490915061133290670de0b6b3a7640000830263ffffffff6117c116565b600160a060020a038616600090815260076020908152604080832093909355600890522054611367908263ffffffff6117c116565b600160a060020a0386166000908152600860205260409020555b60008411156113bc578361139b428263ffffffff61172e16565b600160a060020a0387166000908152600960205260409020910290556113d8565b600160a060020a03851660009081526009602052604090204290555b5050505050565b61082082826000806000611bf4565b600061143083836040805190810160405280601e81526020017f536166654d6174683a207375627472616374696f6e206f766572666c6f770000815250611d91565b9392505050565b600081151561144557611577565b600160a060020a038416151561149157604051600160a060020a0384169083156108fc029084906000818181858888f1935050505015801561148b573d6000803e3d6000fd5b5061152b565b50604080517fa9059cbb000000000000000000000000000000000000000000000000000000008152600160a060020a038481166004830152602482018490529151859283169163a9059cbb9160448083019260209291908290030181600087803b1580156114fe57600080fd5b505af1158015611512573d6000803e3d6000fd5b505050506040513d602081101561152857600080fd5b50505b83600160a060020a031683600160a060020a03167f92c7bc8749351478c3edd22482edba775f1353fb936db6bcadd331b65911ea83846040518082815260200191505060405180910390a35b50505050565b60025460005b81811015610820576115b760028281548110151561159d57fe5b600091825260209091200154600160a060020a0316611280565b600101611583565b60025460005b81811015611577576115fe6002828154811015156115df57fe5b6000918252602082200154600160a060020a0316908690866001611bf4565b6001016115c5565b600080611611610f26565b905080600160a060020a03166318160ddd6040518163ffffffff1660e060020a028152600401602060405180830381600087803b15801561165157600080fd5b505af1158015611665573d6000803e3d6000fd5b505050506040513d602081101561167b57600080fd5b505191505b5090565b6000808315156116975760009150611727565b508282028284828115156116a757fe5b0414611723576040805160e560020a62461bcd02815260206004820152602160248201527f536166654d6174683a206d756c7469706c69636174696f6e206f766572666c6f60448201527f7700000000000000000000000000000000000000000000000000000000000000606482015290519081900360840190fd5b8091505b5092915050565b600061143083836040805190810160405280601a81526020017f536166654d6174683a206469766973696f6e206279207a65726f000000000000815250611e2e565b8151600090815b818110156112735783600160a060020a0316858281518110151561179757fe5b90602001906020020151600160a060020a031614156117b95760019250611278565b600101611777565b600082820183811015611723576040805160e560020a62461bcd02815260206004820152601b60248201527f536166654d6174683a206164646974696f6e206f766572666c6f770000000000604482015290519081900360640190fd5b60025460005b818110156115775761185d60028281548110151561183e57fe5b6000918252602082200154600160a060020a0316908690866002611bf4565b600101611824565b600080611870610f26565b905080600160a060020a03166370a08231846040518263ffffffff1660e060020a0281526004018082600160a060020a0316600160a060020a03168152602001915050602060405180830381600087803b1580156118cd57600080fd5b505af11580156118e1573d6000803e3d6000fd5b505050506040513d60208110156118f757600080fd5b50519392505050565b60008061190b611606565b9050600081111561194157600160a060020a03831660009081526007602052604090205461193f908263ffffffff61172e16565b505b50600092915050565b600160a060020a038085166000908152600660209081526040808320938716835292905290812054808310156119f0576040805160e560020a62461bcd02815260206004820152602160248201527f6572726f723a20746f6b656e4e6574576f727468206c6f676963206572726f7260448201527f2100000000000000000000000000000000000000000000000000000000000000606482015290519081900360840190fd5b611a0e670de0b6b3a76400006109328684870363ffffffff61168416565b9695505050505050565b611a7b82805480602002602001604051908101604052809291908181526020018280548015611a7057602002820191906000526020600020905b8154600160a060020a03168152600190910190602001808311611a52575b505050505082611770565b1515610820578154600181018355600083815260209020018054600160a060020a03831673ffffffffffffffffffffffffffffffffffffffff199091161790555050565b60025460005b818110156113d857611afe600282815481101515611adf57fe5b600091825260209091200154600160a060020a03168686866003611bf4565b600101611ac5565b600160a060020a0381161515611b8c576040805160e560020a62461bcd02815260206004820152602660248201527f4f776e61626c653a206e6577206f776e657220697320746865207a65726f206160448201527f6464726573730000000000000000000000000000000000000000000000000000606482015290519081900360840190fd5b60008054604051600160a060020a03808516939216917f8be0079c531659141344cd1fd0a4f28419497f9722a3daafe3b4186f6b6457e091a36000805473ffffffffffffffffffffffffffffffffffffffff1916600160a060020a0392909216919091179055565b600080611bff611606565b91506000821115611d8857611c1387611900565b90506000841115611d5f57611c67611c358888611c2f8a611865565b8561194a565b600160a060020a03808a166000908152600560209081526040808320938c16835292905220549063ffffffff6117c116565b600160a060020a038089166000908152600560209081526040808320938b16835292905220556001831415611cec57611cce611ca9828663ffffffff61168416565b600160a060020a0389166000908152600760205260409020549063ffffffff6113ee16565b600160a060020a038816600090815260076020526040902055611d5f565b6002831415611d2d57611cce611d08828663ffffffff61168416565b600160a060020a0389166000908152600760205260409020549063ffffffff6117c116565b6003831415611d5f57600160a060020a0380881660009081526006602090815260408083209389168352929052208190555b600160a060020a038088166000908152600660209081526040808320938a168352929052208190555b50505050505050565b6000808285851115611e245760405160e560020a62461bcd0281526004018080602001828103825283818151815260200191508051906020019080838360005b83811015611de9578181015183820152602001611dd1565b50505050905090810190601f168015611e165780820380516001836020036101000a031916815260200191505b509250505060405180910390fd5b5050509103919050565b60008082818511611e845760405160e560020a62461bcd02815260040180806020018281038252838181518152602001915080519060200190808383600083811015611de9578181015183820152602001611dd1565b508385811515611e9057fe5b0495945050505050565b604080518082019091526000808252602082015290565b8154818355818111156108aa576000838152602090206108aa9181019083016105d791905b808211156116805760008155600101611ed656004d616e6167657261626c653a2063616c6c6572206973206e6f7420746865204d616e6167657200000000000000000000000000000000000000000000000000004f776e61626c653a2063616c6c6572206973206e6f7420746865206f776e6572a165627a7a72305820ecf52d74ce4525104be4dd801b6ffade371688dd6c920bf83fe96a94b09774210029",
  "source": "pragma solidity ^0.4.26;\r\nimport \"./modules/SafeMath.sol\";\r\nimport \"./modules/Managerable.sol\";\r\nimport \"./modules/AddressWhiteList.sol\";\r\nimport \"./modules/ReentrancyGuard.sol\";\r\nimport \"./interfaces/IERC20.sol\";\r\ncontract FNXMinePool is Managerable,AddressWhiteList,ReentrancyGuard {\r\n    using SafeMath for uint256;\r\n    uint256 constant calDecimals = 1e18;\r\n    mapping(address=>mapping(address=>uint256)) internal minerBalances;\r\n    mapping(address=>mapping(address=>uint256)) internal minerOrigins;\r\n    mapping(address=>uint256) internal totalMinedWorth;\r\n    mapping(address=>uint256) internal totalMinedCoin;\r\n    mapping(address=>uint256) internal latestSettleTime;\r\n    mapping(address=>uint256) internal mineAmount;\r\n    mapping(address=>uint256) internal mineInterval;\r\n    struct buyingMine {\r\n        address mineCoin;\r\n        uint256 mineAmount;\r\n    }\r\n    buyingMine[] internal buyingMineInfo;\r\n    uint256 constant opBurnCoin = 1;\r\n    uint256 constant opMintCoin = 2;\r\n    uint256 constant opTransferCoin = 3;\r\n    constructor () public{\r\n    }\r\n    function()public payable{\r\n\r\n    }\r\n    event RedeemMineCoin(address indexed from, address indexed to, uint256 value);\r\n    function getTotalMined(address mineCoin)public view returns(uint256){\r\n        uint256 _totalSupply = totalSupply();\r\n        uint256 _mineInterval = mineInterval[mineCoin];\r\n        if (_totalSupply > 0 && _mineInterval>0){\r\n            uint256 _mineAmount = mineAmount[mineCoin];\r\n            uint256 latestMined = _mineAmount.mul(now-latestSettleTime[mineCoin]).div(_mineInterval);\r\n            return totalMinedCoin[mineCoin] + latestMined;\r\n        }\r\n        return totalMinedCoin[mineCoin];\r\n    }\r\n    function getMineInfo(address mineCoin)public view returns(uint256,uint256){\r\n        return (mineAmount[mineCoin],mineInterval[mineCoin]);\r\n    }\r\n\r\n    function getMinerBalance(address account,address mineCoin)public view returns(uint256){\r\n        uint256 totalBalance = minerBalances[mineCoin][account];\r\n        uint256 _totalSupply = totalSupply();\r\n        uint256 balance = balanceOf(account);\r\n        if (_totalSupply > 0 && balance>0){\r\n            uint256 tokenNetWorth = _getTokenNetWorth(mineCoin);\r\n            totalBalance= totalBalance.add(_settlement(mineCoin,account,balance,tokenNetWorth));\r\n        }\r\n        return totalBalance;\r\n    }\r\n    function setMineCoinInfo(address mineCoin,uint256 _mineAmount,uint256 _mineInterval)public onlyOwner {\r\n        _mineSettlement(mineCoin);\r\n        mineAmount[mineCoin] = _mineAmount;\r\n        mineInterval[mineCoin] = _mineInterval;\r\n        addWhiteList(mineCoin);\r\n    }\r\n    function transferMinerCoin(address account,address recieptor,uint256 amount) public onlyManager {\r\n        _mineSettlementAll();\r\n        _transferMinerCoin(account,recieptor,amount);\r\n    }\r\n    function mintMinerCoin(address account,uint256 amount) public onlyManager {\r\n        _mineSettlementAll();\r\n        _mintMinerCoin(account,amount);\r\n    }\r\n    function burnMinerCoin(address account,uint256 amount) public onlyManager {\r\n        _mineSettlementAll();\r\n        _burnMinerCoin(account,amount);\r\n    }\r\n    function addMinerBalance(address account,uint256 amount) public onlyManager {\r\n        uint256 len = buyingMineInfo.length;\r\n        for (uint256 i=0;i<len;i++){\r\n            buyingMine memory info = buyingMineInfo[i];\r\n            uint256 _mineAmount = info.mineAmount.mul(amount).div(calDecimals);\r\n            minerBalances[info.mineCoin][account] = minerBalances[info.mineCoin][account].add(_mineAmount);\r\n            totalMinedCoin[info.mineCoin] = totalMinedCoin[info.mineCoin].add(_mineAmount);\r\n        }\r\n    }\r\n    function setMineAmount(address mineCoin,uint256 _mineAmount)public onlyOwner {\r\n        _mineSettlement(mineCoin);\r\n        mineAmount[mineCoin] = _mineAmount;\r\n    }\r\n    function setMineInterval(address mineCoin,uint256 _mineInterval)public onlyOwner {\r\n        _mineSettlement(mineCoin);\r\n        mineInterval[mineCoin] = _mineInterval;\r\n    }\r\n    function redeemMinerCoin(address mineCoin,uint256 amount)public nonReentrant notHalted {\r\n        _mineSettlement(mineCoin);\r\n        _settlementAllCoin(mineCoin,msg.sender);\r\n        uint256 minerAmount = minerBalances[mineCoin][msg.sender];\r\n        require(minerAmount>=amount,\"miner balance is insufficient\");\r\n        minerBalances[mineCoin][msg.sender] = minerAmount.sub(amount);\r\n        _redeemMineCoin(mineCoin,msg.sender,amount);\r\n    }\r\n    function _redeemMineCoin(address mineCoin,address recieptor,uint256 amount)internal {\r\n        if (amount == 0){\r\n            return;\r\n        }\r\n        if (mineCoin == address(0)){\r\n            recieptor.transfer(amount);\r\n        }else{\r\n            IERC20 minerToken = IERC20(mineCoin);\r\n            minerToken.transfer(recieptor,amount);\r\n        }\r\n        emit RedeemMineCoin(recieptor,mineCoin,amount);\r\n    }\r\n    function _mineSettlementAll()internal{\r\n        uint256 addrLen = whiteList.length;\r\n        for(uint256 i=0;i<addrLen;i++){\r\n            _mineSettlement(whiteList[i]);\r\n        }\r\n    }\r\n    function _mineSettlement(address mineCoin)internal{\r\n        uint256 _mineInterval = mineInterval[mineCoin];\r\n        uint256 _totalSupply = totalSupply();\r\n        if (_totalSupply > 0 && _mineInterval>0){\r\n            uint256 _mineAmount = mineAmount[mineCoin];\r\n            uint256 latestMined = _mineAmount.mul(now-latestSettleTime[mineCoin]).div(_mineInterval);\r\n            totalMinedWorth[mineCoin] = totalMinedWorth[mineCoin].add(latestMined*calDecimals);\r\n            totalMinedCoin[mineCoin] = totalMinedCoin[mineCoin].add(latestMined);\r\n        }\r\n        if (_mineInterval>0){\r\n            latestSettleTime[mineCoin] = now.div(_mineInterval)*_mineInterval;\r\n        }else{\r\n            latestSettleTime[mineCoin] = now;\r\n        }\r\n    }\r\n    function _transferMinerCoin(address account,address recipient,uint256 amount)internal{\r\n        uint256 addrLen = whiteList.length;\r\n        for(uint256 i=0;i<addrLen;i++){\r\n            settleMinerBalance(whiteList[i],account,recipient,amount,opTransferCoin);\r\n        }\r\n    }\r\n    function _mintMinerCoin(address account,uint256 amount)internal{\r\n        uint256 addrLen = whiteList.length;\r\n        for(uint256 i=0;i<addrLen;i++){\r\n            settleMinerBalance(whiteList[i],account,address(0),amount,opMintCoin);\r\n        }\r\n    }\r\n    function _settlementAllCoin(address mineCoin,address account)internal{\r\n        settleMinerBalance(mineCoin,account,address(0),0,0);\r\n    }\r\n    function _burnMinerCoin(address account,uint256 amount)internal{\r\n        uint256 addrLen = whiteList.length;\r\n        for(uint256 i=0;i<addrLen;i++){\r\n            settleMinerBalance(whiteList[i],account,address(0),amount,opBurnCoin);\r\n        }\r\n    }\r\n    function settleMinerBalance(address mineCoin,address account,address recipient,uint256 amount,uint256 operators)internal{\r\n        uint256 _totalSupply = totalSupply();\r\n        if (_totalSupply > 0){\r\n            uint256 tokenNetWorth = _getTokenNetWorth(mineCoin);\r\n            if(amount>0){\r\n                minerBalances[mineCoin][account] = minerBalances[mineCoin][account].add(\r\n                        _settlement(mineCoin,account,balanceOf(account),tokenNetWorth));\r\n                if (operators == opBurnCoin){\r\n                    totalMinedWorth[mineCoin] = totalMinedWorth[mineCoin].sub(tokenNetWorth.mul(amount));\r\n                }else if (operators==opMintCoin){\r\n                    totalMinedWorth[mineCoin] = totalMinedWorth[mineCoin].add(tokenNetWorth.mul(amount));\r\n                }else if (operators==opTransferCoin){\r\n                    minerOrigins[mineCoin][recipient] = tokenNetWorth;\r\n                }\r\n            }\r\n            minerOrigins[mineCoin][account] = tokenNetWorth;\r\n        }\r\n    }\r\n    function _settlement(address mineCoin,address account,uint256 amount,uint256 tokenNetWorth)internal view returns (uint256) {\r\n        uint256 origin = minerOrigins[mineCoin][account];\r\n        require(tokenNetWorth>=origin,\"error: tokenNetWorth logic error!\");\r\n        return amount.mul(tokenNetWorth-origin).div(calDecimals);\r\n    }\r\n    function _getTokenNetWorth(address mineCoin)internal view returns (uint256) {\r\n        uint256 _totalSupply = totalSupply();\r\n        if (_totalSupply > 0){\r\n            totalMinedWorth[mineCoin].div(_totalSupply);\r\n        }\r\n        return 0;\r\n    }\r\n    function totalSupply()internal view returns(uint256){\r\n        IERC20 _FCTCoin = IERC20(getManager());\r\n        return _FCTCoin.totalSupply();\r\n    }\r\n    function balanceOf(address account)internal view returns(uint256){\r\n        IERC20 _FCTCoin = IERC20(getManager());\r\n        return _FCTCoin.balanceOf(account);\r\n    }\r\n}",
  "sourcePath": "C:\\work\\solidity\\FinnexusOptions_V2\\contracts\\FNXMinePool.sol",
  "compiler": {
    "name": "solc",
    "version": "0.4.26+commit.4563c3fc.Emscripten.clang"
  },
  "schemaVersion": "3.1.0",
  "updatedAt": "2020-07-29T14:43:43.228Z",
  "devdoc": {
    "methods": {
      "addWhiteList(address)": {
        "details": "Implementation of add an eligible address into the whitelist.\r",
        "params": {
          "addAddress": "new eligible address.\r"
        }
      },
      "getWhiteList()": {
        "details": "Implementation of getting the eligible whitelist.\r"
      },
      "isEligibleAddress(address)": {
        "details": "Implementation of testing whether the input address is eligible.\r",
        "params": {
          "tmpAddress": "input address for testing.\r"
        }
      },
      "isOwner()": {
        "details": "Returns true if the caller is the current owner."
      },
      "owner()": {
        "details": "Returns the address of the current owner."
      },
      "removeWhiteList(address)": {
        "details": "Implementation of revoke an invalid address from the whitelist.\r",
        "params": {
          "removeAddress": "revoked address.\r"
        }
      },
      "renounceOwnership()": {
        "details": "Leaves the contract without owner. It will not be possible to call `onlyOwner` functions anymore. Can only be called by the current owner.     * NOTE: Renouncing ownership will leave the contract without an owner, thereby removing any functionality that is only available to the owner."
      },
      "transferOwnership(address)": {
        "details": "Transfers ownership of the contract to a new account (`newOwner`). Can only be called by the current owner."
      }
    }
  },
  "userdoc": {
    "methods": {
      "setHalt(bool)": {
        "notice": "function Emergency situation that requires contribution period to stop or not."
      },
      "setManager(address)": {
        "notice": "contribution period to stop or not."
      }
    }
  }
}