{
  "contractName": "FNXMinePool",
  "abi": [
    {
      "constant": true,
      "inputs": [
        {
          "name": "",
          "type": "address"
        }
      ],
      "name": "balances",
      "outputs": [
        {
          "name": "",
          "type": "uint256"
        }
      ],
      "payable": false,
      "stateMutability": "view",
      "type": "function"
    },
    {
      "constant": true,
      "inputs": [
        {
          "name": "",
          "type": "address"
        }
      ],
      "name": "minerBalances",
      "outputs": [
        {
          "name": "",
          "type": "uint256"
        }
      ],
      "payable": false,
      "stateMutability": "view",
      "type": "function"
    },
    {
      "constant": false,
      "inputs": [],
      "name": "renounceOwnership",
      "outputs": [],
      "payable": false,
      "stateMutability": "nonpayable",
      "type": "function"
    },
    {
      "constant": true,
      "inputs": [],
      "name": "owner",
      "outputs": [
        {
          "name": "",
          "type": "address"
        }
      ],
      "payable": false,
      "stateMutability": "view",
      "type": "function"
    },
    {
      "constant": true,
      "inputs": [],
      "name": "isOwner",
      "outputs": [
        {
          "name": "",
          "type": "bool"
        }
      ],
      "payable": false,
      "stateMutability": "view",
      "type": "function"
    },
    {
      "constant": false,
      "inputs": [
        {
          "name": "managerAddress",
          "type": "address"
        }
      ],
      "name": "setManager",
      "outputs": [],
      "payable": false,
      "stateMutability": "nonpayable",
      "type": "function"
    },
    {
      "constant": true,
      "inputs": [],
      "name": "getManager",
      "outputs": [
        {
          "name": "",
          "type": "address"
        }
      ],
      "payable": false,
      "stateMutability": "view",
      "type": "function"
    },
    {
      "constant": false,
      "inputs": [
        {
          "name": "newOwner",
          "type": "address"
        }
      ],
      "name": "transferOwnership",
      "outputs": [],
      "payable": false,
      "stateMutability": "nonpayable",
      "type": "function"
    },
    {
      "inputs": [
        {
          "name": "_minerCoin",
          "type": "address"
        }
      ],
      "payable": false,
      "stateMutability": "nonpayable",
      "type": "constructor"
    },
    {
      "anonymous": false,
      "inputs": [
        {
          "indexed": true,
          "name": "from",
          "type": "address"
        },
        {
          "indexed": true,
          "name": "to",
          "type": "address"
        },
        {
          "indexed": false,
          "name": "value",
          "type": "uint256"
        }
      ],
      "name": "Transfer",
      "type": "event"
    },
    {
      "anonymous": false,
      "inputs": [
        {
          "indexed": true,
          "name": "previousOwner",
          "type": "address"
        },
        {
          "indexed": true,
          "name": "newOwner",
          "type": "address"
        }
      ],
      "name": "OwnershipTransferred",
      "type": "event"
    },
    {
      "constant": true,
      "inputs": [],
      "name": "getTotalMined",
      "outputs": [
        {
          "name": "",
          "type": "uint256"
        }
      ],
      "payable": false,
      "stateMutability": "view",
      "type": "function"
    },
    {
      "constant": true,
      "inputs": [],
      "name": "getMineInfo",
      "outputs": [
        {
          "name": "",
          "type": "uint256"
        },
        {
          "name": "",
          "type": "uint256"
        }
      ],
      "payable": false,
      "stateMutability": "view",
      "type": "function"
    },
    {
      "constant": true,
      "inputs": [
        {
          "name": "account",
          "type": "address"
        }
      ],
      "name": "getMinerTokenBalance",
      "outputs": [
        {
          "name": "",
          "type": "uint256"
        }
      ],
      "payable": false,
      "stateMutability": "view",
      "type": "function"
    },
    {
      "constant": true,
      "inputs": [],
      "name": "getMinerCoinAddress",
      "outputs": [
        {
          "name": "",
          "type": "address"
        }
      ],
      "payable": false,
      "stateMutability": "view",
      "type": "function"
    },
    {
      "constant": false,
      "inputs": [
        {
          "name": "_minerCoin",
          "type": "address"
        }
      ],
      "name": "setMinerCoinAddress",
      "outputs": [],
      "payable": false,
      "stateMutability": "nonpayable",
      "type": "function"
    },
    {
      "constant": true,
      "inputs": [],
      "name": "getMinerTokenTotalSuply",
      "outputs": [
        {
          "name": "",
          "type": "uint256"
        }
      ],
      "payable": false,
      "stateMutability": "view",
      "type": "function"
    },
    {
      "constant": true,
      "inputs": [
        {
          "name": "account",
          "type": "address"
        }
      ],
      "name": "getMinerBalance",
      "outputs": [
        {
          "name": "",
          "type": "uint256"
        }
      ],
      "payable": false,
      "stateMutability": "view",
      "type": "function"
    },
    {
      "constant": false,
      "inputs": [
        {
          "name": "account",
          "type": "address"
        },
        {
          "name": "amount",
          "type": "uint256"
        }
      ],
      "name": "mintMinerCoin",
      "outputs": [],
      "payable": false,
      "stateMutability": "nonpayable",
      "type": "function"
    },
    {
      "constant": false,
      "inputs": [
        {
          "name": "account",
          "type": "address"
        },
        {
          "name": "amount",
          "type": "uint256"
        }
      ],
      "name": "burnMinerCoin",
      "outputs": [],
      "payable": false,
      "stateMutability": "nonpayable",
      "type": "function"
    },
    {
      "constant": false,
      "inputs": [
        {
          "name": "account",
          "type": "address"
        },
        {
          "name": "amount",
          "type": "uint256"
        }
      ],
      "name": "addMinerBalance",
      "outputs": [],
      "payable": false,
      "stateMutability": "nonpayable",
      "type": "function"
    },
    {
      "constant": false,
      "inputs": [
        {
          "name": "_mineAmount",
          "type": "uint256"
        }
      ],
      "name": "setMineAmount",
      "outputs": [],
      "payable": false,
      "stateMutability": "nonpayable",
      "type": "function"
    },
    {
      "constant": false,
      "inputs": [
        {
          "name": "_mineInterval",
          "type": "uint256"
        }
      ],
      "name": "setMineInterval",
      "outputs": [],
      "payable": false,
      "stateMutability": "nonpayable",
      "type": "function"
    },
    {
      "constant": false,
      "inputs": [
        {
          "name": "account",
          "type": "address"
        },
        {
          "name": "amount",
          "type": "uint256"
        }
      ],
      "name": "redeemMinerCoin",
      "outputs": [],
      "payable": false,
      "stateMutability": "nonpayable",
      "type": "function"
    }
  ],
  "bytecode": "0x60806040526000600555670de0b6b3a764000060065534801561002157600080fd5b50604051602080611595833981016040819052905160008054600160a060020a03191633178082559192600160a060020a0392909216917f8be0079c531659141344cd1fd0a4f28419497f9722a3daafe3b4186f6b6457e0908290a360078054600160a060020a031916600160a060020a03929092169190911790556114e9806100ac6000396000f30060806040526004361061011c5763ffffffff7c010000000000000000000000000000000000000000000000000000000060003504166310e71893811461012157806324fa60a31461014457806327e235e31461017757806328675626146101985780632a04d0c7146101bc5780632dac4261146101e057806358697edc146101f8578063715018a6146102195780638399d9f31461022e57806388ebbc9f146102525780638af2a4701461026a5780638c2d15491461028e5780638da5cb5b146102a35780638f32d59b146102d457806399f55ab2146102fd5780639a18b29014610312578063a4b8546514610340578063d0ebdbe714610355578063d500958414610376578063dac912a61461038b578063f2fde38b146103ac575b600080fd5b34801561012d57600080fd5b50610142600160a060020a03600435166103cd565b005b34801561015057600080fd5b50610165600160a060020a0360043516610448565b60408051918252519081900360200190f35b34801561018357600080fd5b50610165600160a060020a0360043516610463565b3480156101a457600080fd5b50610142600160a060020a0360043516602435610475565b3480156101c857600080fd5b50610142600160a060020a03600435166024356105d2565b3480156101ec57600080fd5b50610142600435610670565b34801561020457600080fd5b50610165600160a060020a03600435166106c9565b34801561022557600080fd5b506101426106db565b34801561023a57600080fd5b50610142600160a060020a036004351660243561077e565b34801561025e57600080fd5b50610142600435610862565b34801561027657600080fd5b50610142600160a060020a03600435166024356108bb565b34801561029a57600080fd5b50610165610955565b3480156102af57600080fd5b506102b861095b565b60408051600160a060020a039092168252519081900360200190f35b3480156102e057600080fd5b506102e961096a565b604080519115158252519081900360200190f35b34801561030957600080fd5b506102b861097b565b34801561031e57600080fd5b5061032761098a565b6040805192835260208301919091528051918290030190f35b34801561034c57600080fd5b50610165610994565b34801561036157600080fd5b50610142600160a060020a036004351661099a565b34801561038257600080fd5b506102b8610a15565b34801561039757600080fd5b50610165600160a060020a0360043516610a24565b3480156103b857600080fd5b50610142600160a060020a0360043516610ab6565b6103d561096a565b1515610419576040805160e560020a62461bcd028152602060048201819052602482015260008051602061149e833981519152604482015290519081900360640190fd5b6007805473ffffffffffffffffffffffffffffffffffffffff1916600160a060020a0392909216919091179055565b600160a060020a031660009081526004602052604090205490565b60046020526000908152604090205481565b61047d610b0e565b61048682610b94565b600160a060020a0382166000908152600260205260409020548111156104f6576040805160e560020a62461bcd02815260206004820152601d60248201527f6d696e65722062616c616e636520697320696e73756666696369656e74000000604482015290519081900360640190fd5b600160a060020a03821660009081526002602052604090205461051f908263ffffffff610c4616565b600160a060020a0380841660008181526002602090815260408083209590955560075485517fa9059cbb0000000000000000000000000000000000000000000000000000000081526004810194909452602484018790529451949093169363a9059cbb936044808501949193918390030190829087803b1580156105a257600080fd5b505af11580156105b6573d6000803e3d6000fd5b505050506040513d60208110156105cc57600080fd5b50505050565b600154600160a060020a0316331461065a576040805160e560020a62461bcd02815260206004820152602660248201527f4d616e6167657261626c653a2063616c6c6572206973206e6f7420746865204d60448201527f616e616765720000000000000000000000000000000000000000000000000000606482015290519081900360840190fd5b610662610b0e565b61066c8282610c8f565b5050565b61067861096a565b15156106bc576040805160e560020a62461bcd028152602060048201819052602482015260008051602061149e833981519152604482015290519081900360640190fd5b6106c4610b0e565b600c55565b60026020526000908152604090205481565b6106e361096a565b1515610727576040805160e560020a62461bcd028152602060048201819052602482015260008051602061149e833981519152604482015290519081900360640190fd5b60008054604051600160a060020a03909116907f8be0079c531659141344cd1fd0a4f28419497f9722a3daafe3b4186f6b6457e0908390a36000805473ffffffffffffffffffffffffffffffffffffffff19169055565b600154600160a060020a03163314610806576040805160e560020a62461bcd02815260206004820152602660248201527f4d616e6167657261626c653a2063616c6c6572206973206e6f7420746865204d60448201527f616e616765720000000000000000000000000000000000000000000000000000606482015290519081900360840190fd5b600160a060020a03821660009081526002602052604090205461082f908263ffffffff610d2616565b600160a060020a03831660009081526002602052604090205560095461085b908263ffffffff610d2616565b6009555050565b61086a61096a565b15156108ae576040805160e560020a62461bcd028152602060048201819052602482015260008051602061149e833981519152604482015290519081900360640190fd5b6108b6610b0e565b600b55565b600154600160a060020a03163314610943576040805160e560020a62461bcd02815260206004820152602660248201527f4d616e6167657261626c653a2063616c6c6572206973206e6f7420746865204d60448201527f616e616765720000000000000000000000000000000000000000000000000000606482015290519081900360840190fd5b61094b610b0e565b61066c8282610d83565b60095490565b600054600160a060020a031690565b600054600160a060020a0316331490565b600754600160a060020a031690565b600b54600c549091565b60055490565b6109a261096a565b15156109e6576040805160e560020a62461bcd028152602060048201819052602482015260008051602061149e833981519152604482015290519081900360640190fd5b6001805473ffffffffffffffffffffffffffffffffffffffff1916600160a060020a0392909216919091179055565b600154600160a060020a031690565b600160a060020a038116600090815260026020526040812054600554829081108015610a665750600160a060020a038416600090815260046020526040812054115b15610aaf57610a73610e27565b600160a060020a038516600090815260046020526040902054909150610aac90610a9f90869084610e50565b839063ffffffff610d2616565b91505b5092915050565b610abe61096a565b1515610b02576040805160e560020a62461bcd028152602060048201819052602482015260008051602061149e833981519152604482015290519081900360640190fd5b610b0b81610f09565b50565b6000806005541115610b7a57610b45600c54610b39600a544203600b54610ff790919063ffffffff16565b9063ffffffff61109616565b9050610b606006548202600854610d2690919063ffffffff16565b600855600954610b76908263ffffffff610d2616565b6009555b600c54610b8d428263ffffffff61109616565b02600a5550565b600080600554118015610bbd5750600160a060020a038216600090815260046020526040812054115b1561066c57610bca610e27565b600160a060020a038316600090815260046020526040902054909150610c1b90610bf690849084610e50565b600160a060020a0384166000908152600260205260409020549063ffffffff610d2616565b600160a060020a03831660009081526002602090815260408083209390935560039052208190555050565b6000610c8883836040805190810160405280601e81526020017f536166654d6174683a207375627472616374696f6e206f766572666c6f7700008152506110d8565b9392505050565b6000806005541115610d2157610ca3610e27565b9050610caf8383611175565b610ce2610cbd848484610e50565b600160a060020a0385166000908152600260205260409020549063ffffffff610d2616565b600160a060020a038416600090815260026020526040902055610d1d610d0e828463ffffffff610ff716565b6008549063ffffffff610c4616565b6008555b505050565b600082820183811015610c88576040805160e560020a62461bcd02815260206004820152601b60248201527f536166654d6174683a206164646974696f6e206f766572666c6f770000000000604482015290519081900360640190fd5b6000806005541115610e1d57610d97610e27565b600160a060020a038416600090815260046020526040902054909150610dc390610cbd90859084610e50565b600160a060020a038416600090815260026020526040902055610dfe610def828463ffffffff610ff716565b6008549063ffffffff610d2616565b600855600160a060020a03831660009081526003602052604090208190555b610d21838361123a565b6000806005541115610e4a57600554600854610e489163ffffffff61109616565b505b50600090565b600160a060020a03831660009081526003602052604081205480831015610ee7576040805160e560020a62461bcd02815260206004820152602160248201527f6572726f723a20746f6b656e4e6574576f727468206c6f676963206572726f7260448201527f2100000000000000000000000000000000000000000000000000000000000000606482015290519081900360840190fd5b600654610f0090610b398684870363ffffffff610ff716565b95945050505050565b600160a060020a0381161515610f8f576040805160e560020a62461bcd02815260206004820152602660248201527f4f776e61626c653a206e6577206f776e657220697320746865207a65726f206160448201527f6464726573730000000000000000000000000000000000000000000000000000606482015290519081900360840190fd5b60008054604051600160a060020a03808516939216917f8be0079c531659141344cd1fd0a4f28419497f9722a3daafe3b4186f6b6457e091a36000805473ffffffffffffffffffffffffffffffffffffffff1916600160a060020a0392909216919091179055565b60008083151561100a5760009150610aaf565b5082820282848281151561101a57fe5b0414610c88576040805160e560020a62461bcd02815260206004820152602160248201527f536166654d6174683a206d756c7469706c69636174696f6e206f766572666c6f60448201527f7700000000000000000000000000000000000000000000000000000000000000606482015290519081900360840190fd5b6000610c8883836040805190810160405280601a81526020017f536166654d6174683a206469766973696f6e206279207a65726f0000000000008152506112ff565b600080828585111561116b5760405160e560020a62461bcd0281526004018080602001828103825283818151815260200191508051906020019080838360005b83811015611130578181015183820152602001611118565b50505050905090810190601f16801561115d5780820380516001836020036101000a031916815260200191505b509250505060405180910390fd5b5050509103919050565b600160a060020a03821615156111d5576040805160e560020a62461bcd02815260206004820152601a60248201527f6275726e2066726f6d20746865207a65726f2061646472657373000000000000604482015290519081900360640190fd5b6111df828261136b565b6005546111f2908263ffffffff610c4616565b600555604080518281529051600091600160a060020a038516917fddf252ad1be2c89b69c2b068fc378daa952ba7f163c4a11628f55a4df523b3ef9181900360200190a35050565b600160a060020a038216151561129a576040805160e560020a62461bcd02815260206004820152601860248201527f6d696e7420746f20746865207a65726f20616464726573730000000000000000604482015290519081900360640190fd5b6005546112ad908263ffffffff610d2616565b6005556112ba8282611414565b604080518281529051600160a060020a038416916000917fddf252ad1be2c89b69c2b068fc378daa952ba7f163c4a11628f55a4df523b3ef9181900360200190a35050565b600080828185116113555760405160e560020a62461bcd02815260040180806020018281038252838181518152602001915080519060200190808383600083811015611130578181015183820152602001611118565b50838581151561136157fe5b0495945050505050565b600160a060020a03821615156113cb576040805160e560020a62461bcd02815260206004820152601c60248201527f7472616e7366657220746f20746865207a65726f206164647265737300000000604482015290519081900360640190fd5b600160a060020a0382166000908152600460205260409020546113f4908263ffffffff610c4616565b600160a060020a0390921660009081526004602052604090209190915550565b600160a060020a0382161515611474576040805160e560020a62461bcd02815260206004820152601c60248201527f7472616e7366657220746f20746865207a65726f206164647265737300000000604482015290519081900360640190fd5b600160a060020a0382166000908152600460205260409020546113f4908263ffffffff610d261656004f776e61626c653a2063616c6c6572206973206e6f7420746865206f776e6572a165627a7a7230582045e96e22a0506a98c2029ada8c5641b3ffbc3f88929696b7eb792f4ca662ac560029",
  "source": "pragma solidity ^0.4.26;\r\nimport \"./modules/SafeMath.sol\";\r\nimport \"./modules/Managerable.sol\";\r\nimport \"./interfaces/IERC20.sol\";\r\ncontract FNXMinePool is Managerable {\r\n    using SafeMath for uint256;\r\n    mapping(address=>uint256) public minerBalances;\r\n    mapping(address=>uint256) internal minerOrigins;\r\n\r\n    mapping (address => uint256) public balances;\r\n    uint256 internal _totalSupply = 0;\r\n    uint256 internal calDecimals = 1e18;\r\n\r\n    IERC20 internal minerCoin;\r\n    uint256 internal totalMinedWorth;\r\n    uint256 internal totalMinedCoin;\r\n    uint256 internal latestSettleTime;\r\n    uint256 internal mineAmount;\r\n    uint256 internal mineInterval;\r\n\r\n    constructor (address _minerCoin) public{\r\n        minerCoin = IERC20(_minerCoin);\r\n    }\r\n\r\n    event Transfer(address indexed from, address indexed to, uint256 value);\r\n    function getTotalMined()public view returns(uint256){\r\n        return totalMinedCoin;\r\n    }\r\n    function getMineInfo()public view returns(uint256,uint256){\r\n        return (mineAmount,mineInterval);\r\n    }\r\n    function getMinerTokenBalance(address account)public view returns(uint256){\r\n        return balances[account];\r\n    }\r\n    function getMinerCoinAddress()public view returns(address){\r\n        return address(minerCoin);\r\n    }\r\n    function setMinerCoinAddress(address _minerCoin)public onlyOwner{\r\n        minerCoin = IERC20(_minerCoin);\r\n    }\r\n    function getMinerTokenTotalSuply()public view returns(uint256){\r\n        return _totalSupply;\r\n    }\r\n    function getMinerBalance(address account)public view returns(uint256){\r\n        uint256 totalBalance = minerBalances[account];\r\n        if (_totalSupply > 0 && balances[account]>0){\r\n            uint256 tokenNetWorth = _getTokenNetWorth();\r\n            totalBalance= totalBalance.add(_settlement(account,balances[account],tokenNetWorth));\r\n        }\r\n        return totalBalance;\r\n    }\r\n    function mintMinerCoin(address account,uint256 amount) public onlyManager {\r\n        _mineSettlement();\r\n        _mintMinerCoin(account,amount);\r\n    }\r\n    function burnMinerCoin(address account,uint256 amount) public onlyManager {\r\n        _mineSettlement();\r\n        _burnMinerCoin(account,amount);\r\n    }\r\n    function addMinerBalance(address account,uint256 amount) public onlyManager {\r\n        minerBalances[account] = minerBalances[account].add(amount);\r\n        totalMinedCoin = totalMinedCoin.add(amount);\r\n    }\r\n    function setMineAmount(uint256 _mineAmount)public onlyOwner {\r\n        _mineSettlement();\r\n        mineAmount = _mineAmount;\r\n    }\r\n    function setMineInterval(uint256 _mineInterval)public onlyOwner {\r\n        _mineSettlement();\r\n        mineInterval = _mineInterval;\r\n    }\r\n    function redeemMinerCoin(address account,uint256 amount)public {\r\n        _mineSettlement();\r\n        _settlementAllCoin(account);\r\n        require(minerBalances[account]>=amount,\"miner balance is insufficient\");\r\n        minerBalances[account] = minerBalances[account].sub(amount);\r\n        minerCoin.transfer(account,amount);\r\n    }\r\n    function _mineSettlement()internal{\r\n        if (_totalSupply > 0){\r\n            uint256 latestMined = mineAmount.mul(now-latestSettleTime).div(mineInterval);\r\n            totalMinedWorth = totalMinedWorth.add(latestMined*calDecimals);\r\n            totalMinedCoin = totalMinedCoin.add(latestMined);\r\n        }\r\n        latestSettleTime = now.div(mineInterval)*mineInterval;\r\n    }\r\n    function _mintMinerCoin(address account,uint256 amount)internal{\r\n        if (_totalSupply > 0){\r\n            uint256 tokenNetWorth = _getTokenNetWorth();\r\n            minerBalances[account] = minerBalances[account].add(_settlement(account,balances[account],tokenNetWorth));\r\n            totalMinedWorth = totalMinedWorth.add(tokenNetWorth.mul(amount));\r\n            minerOrigins[account] = tokenNetWorth;\r\n        }\r\n        _mint(account,amount);\r\n    }\r\n    function _settlementAllCoin(address account)internal{\r\n        if (_totalSupply > 0 && balances[account]>0){\r\n            uint256 tokenNetWorth = _getTokenNetWorth();\r\n            minerBalances[account] = minerBalances[account].add(_settlement(account,balances[account],tokenNetWorth));\r\n            minerOrigins[account] = tokenNetWorth;\r\n        }\r\n    }\r\n    function _burnMinerCoin(address account,uint256 amount)internal{\r\n        if (_totalSupply > 0){\r\n            uint256 tokenNetWorth = _getTokenNetWorth();\r\n            _burn(account,amount);\r\n            minerBalances[account] = minerBalances[account].add(_settlement(account,amount,tokenNetWorth));\r\n            totalMinedWorth = totalMinedWorth.sub(tokenNetWorth.mul(amount));\r\n        }\r\n    }\r\n    function _settlement(address account,uint256 amount,uint256 tokenNetWorth )internal view returns (uint256) {\r\n        uint256 origin = minerOrigins[account];\r\n        require(tokenNetWorth>=origin,\"error: tokenNetWorth logic error!\");\r\n        return amount.mul(tokenNetWorth-origin).div(calDecimals);\r\n    }\r\n    function _getTokenNetWorth()internal view returns (uint256) {\r\n        if (_totalSupply > 0){\r\n            totalMinedWorth.div(_totalSupply);\r\n        }\r\n        return 0;\r\n    }\r\n    function _mint(address account, uint256 amount) internal {\r\n        require(account != address(0), \"mint to the zero address\");\r\n        _totalSupply = _totalSupply.add(amount);\r\n        _addBalance(account,amount);\r\n        emit Transfer(address(0), account, amount);\r\n    }\r\n        /**\r\n    * @dev Destroys `amount` tokens from `account`, reducing the\r\n    * total supply.\r\n    *\r\n    * Emits a {Transfer} event with `to` set to the zero address.\r\n    *\r\n    * Requirements\r\n    *\r\n    * - `account` cannot be the zero address.\r\n    * - `account` must have at least `amount` tokens.\r\n    */\r\n    function _burn(address account, uint256 amount) internal {\r\n        require(account != address(0), \"burn from the zero address\");\r\n        _subBalance(account,amount);\r\n        _totalSupply = _totalSupply.sub(amount);\r\n        emit Transfer(account, address(0), amount);\r\n    }\r\n    /**\r\n     * @dev add `recipient`'s balance to iterable mapping balances.\r\n     */\r\n    function _addBalance(address recipient, uint256 amount) internal {\r\n        require(recipient != address(0), \"transfer to the zero address\");\r\n\r\n        balances[recipient] = balances[recipient].add(amount);\r\n    }\r\n        /**\r\n     * @dev add `recipient`'s balance to iterable mapping balances.\r\n     */\r\n    function _subBalance(address recipient, uint256 amount) internal {\r\n        require(recipient != address(0), \"transfer to the zero address\");\r\n        balances[recipient] = balances[recipient].sub(amount);\r\n    }\r\n}",
  "sourcePath": "C:\\work\\solidity\\FinnexusOptions_V2\\contracts\\FNXMinePool.sol",
  "compiler": {
    "name": "solc",
    "version": "0.4.26+commit.4563c3fc.Emscripten.clang"
  },
  "schemaVersion": "3.1.0",
  "updatedAt": "2020-07-28T14:35:12.735Z",
  "devdoc": {
    "methods": {
      "isOwner()": {
        "details": "Returns true if the caller is the current owner."
      },
      "owner()": {
        "details": "Returns the address of the current owner."
      },
      "renounceOwnership()": {
        "details": "Leaves the contract without owner. It will not be possible to call `onlyOwner` functions anymore. Can only be called by the current owner.     * NOTE: Renouncing ownership will leave the contract without an owner, thereby removing any functionality that is only available to the owner."
      },
      "transferOwnership(address)": {
        "details": "Transfers ownership of the contract to a new account (`newOwner`). Can only be called by the current owner."
      }
    }
  },
  "userdoc": {
    "methods": {
      "setManager(address)": {
        "notice": "contribution period to stop or not."
      }
    }
  }
}