{
  "contractName": "FNXOracle",
  "abi": [
    {
      "constant": false,
      "inputs": [],
      "name": "renounceOwnership",
      "outputs": [],
      "payable": false,
      "stateMutability": "nonpayable",
      "type": "function"
    },
    {
      "constant": true,
      "inputs": [],
      "name": "owner",
      "outputs": [
        {
          "name": "",
          "type": "address"
        }
      ],
      "payable": false,
      "stateMutability": "view",
      "type": "function"
    },
    {
      "constant": true,
      "inputs": [],
      "name": "isOwner",
      "outputs": [
        {
          "name": "",
          "type": "bool"
        }
      ],
      "payable": false,
      "stateMutability": "view",
      "type": "function"
    },
    {
      "constant": false,
      "inputs": [
        {
          "name": "addAddress",
          "type": "address"
        }
      ],
      "name": "addOperator",
      "outputs": [],
      "payable": false,
      "stateMutability": "nonpayable",
      "type": "function"
    },
    {
      "constant": false,
      "inputs": [
        {
          "name": "removeAddress",
          "type": "address"
        }
      ],
      "name": "removeOperator",
      "outputs": [
        {
          "name": "",
          "type": "bool"
        }
      ],
      "payable": false,
      "stateMutability": "nonpayable",
      "type": "function"
    },
    {
      "constant": false,
      "inputs": [
        {
          "name": "index",
          "type": "uint256"
        },
        {
          "name": "addAddress",
          "type": "address"
        }
      ],
      "name": "setOperator",
      "outputs": [],
      "payable": false,
      "stateMutability": "nonpayable",
      "type": "function"
    },
    {
      "constant": true,
      "inputs": [],
      "name": "getOperator",
      "outputs": [
        {
          "name": "",
          "type": "address[]"
        }
      ],
      "payable": false,
      "stateMutability": "view",
      "type": "function"
    },
    {
      "constant": false,
      "inputs": [
        {
          "name": "newOwner",
          "type": "address"
        }
      ],
      "name": "transferOwnership",
      "outputs": [],
      "payable": false,
      "stateMutability": "nonpayable",
      "type": "function"
    },
    {
      "anonymous": false,
      "inputs": [
        {
          "indexed": true,
          "name": "previousOwner",
          "type": "address"
        },
        {
          "indexed": true,
          "name": "newOwner",
          "type": "address"
        }
      ],
      "name": "OwnershipTransferred",
      "type": "event"
    },
    {
      "constant": false,
      "inputs": [
        {
          "name": "timeLimit",
          "type": "uint256"
        }
      ],
      "name": "setValidUntil",
      "outputs": [],
      "payable": false,
      "stateMutability": "nonpayable",
      "type": "function"
    },
    {
      "constant": false,
      "inputs": [
        {
          "name": "asset",
          "type": "address"
        },
        {
          "name": "price",
          "type": "uint256"
        }
      ],
      "name": "setPrice",
      "outputs": [],
      "payable": false,
      "stateMutability": "nonpayable",
      "type": "function"
    },
    {
      "constant": false,
      "inputs": [
        {
          "name": "underlying",
          "type": "uint256"
        },
        {
          "name": "price",
          "type": "uint256"
        }
      ],
      "name": "setUnderlyingPrice",
      "outputs": [],
      "payable": false,
      "stateMutability": "nonpayable",
      "type": "function"
    },
    {
      "constant": false,
      "inputs": [
        {
          "name": "assets",
          "type": "address[]"
        },
        {
          "name": "assetPrices",
          "type": "uint256[]"
        },
        {
          "name": "underlyings",
          "type": "uint256[]"
        },
        {
          "name": "ulPrices",
          "type": "uint256[]"
        }
      ],
      "name": "setPriceAndUnderlyingPrice",
      "outputs": [],
      "payable": false,
      "stateMutability": "nonpayable",
      "type": "function"
    },
    {
      "constant": false,
      "inputs": [
        {
          "name": "optoken",
          "type": "address"
        },
        {
          "name": "price",
          "type": "uint256"
        }
      ],
      "name": "setSellOptionsPrice",
      "outputs": [],
      "payable": false,
      "stateMutability": "nonpayable",
      "type": "function"
    },
    {
      "constant": false,
      "inputs": [
        {
          "name": "optoken",
          "type": "address"
        },
        {
          "name": "price",
          "type": "uint256"
        }
      ],
      "name": "setBuyOptionsPrice",
      "outputs": [],
      "payable": false,
      "stateMutability": "nonpayable",
      "type": "function"
    },
    {
      "constant": false,
      "inputs": [
        {
          "name": "optokens",
          "type": "address[]"
        },
        {
          "name": "buyPrices",
          "type": "uint256[]"
        },
        {
          "name": "SellPrices",
          "type": "uint256[]"
        }
      ],
      "name": "setOptionsBuyAndSellPrice",
      "outputs": [],
      "payable": false,
      "stateMutability": "nonpayable",
      "type": "function"
    },
    {
      "constant": true,
      "inputs": [
        {
          "name": "asset",
          "type": "address"
        }
      ],
      "name": "getPrice",
      "outputs": [
        {
          "name": "",
          "type": "uint256"
        }
      ],
      "payable": false,
      "stateMutability": "view",
      "type": "function"
    },
    {
      "constant": true,
      "inputs": [
        {
          "name": "underlying",
          "type": "uint256"
        }
      ],
      "name": "getUnderlyingPrice",
      "outputs": [
        {
          "name": "",
          "type": "uint256"
        }
      ],
      "payable": false,
      "stateMutability": "view",
      "type": "function"
    },
    {
      "constant": true,
      "inputs": [
        {
          "name": "oToken",
          "type": "address"
        }
      ],
      "name": "getSellOptionsPrice",
      "outputs": [
        {
          "name": "",
          "type": "uint256"
        }
      ],
      "payable": false,
      "stateMutability": "view",
      "type": "function"
    },
    {
      "constant": true,
      "inputs": [
        {
          "name": "oToken",
          "type": "address"
        }
      ],
      "name": "getBuyOptionsPrice",
      "outputs": [
        {
          "name": "",
          "type": "uint256"
        }
      ],
      "payable": false,
      "stateMutability": "view",
      "type": "function"
    }
  ],
  "bytecode": "0x6080604081905261025860025560008054600160a060020a0319163317808255600160a060020a0316917f8be0079c531659141344cd1fd0a4f28419497f9722a3daafe3b4186f6b6457e0908290a36114a78061005d6000396000f3006080604052600436106101055763ffffffff7c0100000000000000000000000000000000000000000000000000000000600035041662e4768b811461010a5780631410fa851461013057806341976e091461023057806349b7482b146102635780635fe1b4561461032a578063634099cc1461034e578063715018a614610366578063835326671461037b5780638618b1d814610396578063861f4d19146103b75780638da5cb5b146103db5780638f32d59b1461040c5780639870d7fe14610435578063ac8a584a14610456578063cd75e52c14610477578063da66325714610498578063e7a1c1c0146104b0578063e7f43c68146104d4578063f2fde38b14610539575b600080fd5b34801561011657600080fd5b5061012e600160a060020a036004351660243561055a565b005b34801561013c57600080fd5b506040805160206004803580820135838102808601850190965280855261012e95369593946024949385019291829185019084908082843750506040805187358901803560208181028481018201909552818452989b9a998901989297509082019550935083925085019084908082843750506040805187358901803560208181028481018201909552818452989b9a998901989297509082019550935083925085019084908082843750506040805187358901803560208181028481018201909552818452989b9a9989019892975090820195509350839250850190849080828437509497506106069650505050505050565b34801561023c57600080fd5b50610251600160a060020a0360043516610861565b60408051918252519081900360200190f35b34801561026f57600080fd5b506040805160206004803580820135838102808601850190965280855261012e95369593946024949385019291829185019084908082843750506040805187358901803560208181028481018201909552818452989b9a998901989297509082019550935083925085019084908082843750506040805187358901803560208181028481018201909552818452989b9a99890198929750908201955093508392508501908490808284375094975061087b9650505050505050565b34801561033657600080fd5b5061012e600160a060020a0360043516602435610aed565b34801561035a57600080fd5b5061012e600435610ba4565b34801561037257600080fd5b5061012e610c39565b34801561038757600080fd5b5061012e600435602435610cdc565b3480156103a257600080fd5b50610251600160a060020a0360043516610dd6565b3480156103c357600080fd5b5061012e600160a060020a0360043516602435610df8565b3480156103e757600080fd5b506103f0610eaf565b60408051600160a060020a039092168252519081900360200190f35b34801561041857600080fd5b50610421610ebf565b604080519115158252519081900360200190f35b34801561044157600080fd5b5061012e600160a060020a0360043516610ed0565b34801561046257600080fd5b50610421600160a060020a0360043516610f2a565b34801561048357600080fd5b50610251600160a060020a0360043516610f83565b3480156104a457600080fd5b50610251600435610f9e565b3480156104bc57600080fd5b5061012e600435600160a060020a0360243516610fa9565b3480156104e057600080fd5b506104e9611037565b60408051602080825283518183015283519192839290830191858101910280838360005b8381101561052557818101518382015260200161050d565b505050509050019250505060405180910390f35b34801561054557600080fd5b5061012e600160a060020a0360043516611099565b600154600090811080156105915750600180543391908390811061057a57fe5b600091825260209091200154600160a060020a0316145b15156105e9576040805160e560020a62461bcd028152602060048201526030602482015260008051602061141c833981519152604482015260008051602061145c833981519152606482015290519081900360840190fd5b50600160a060020a03909116600090815260036020526040902055565b600080806001805490501180156106405750600180543391908390811061062957fe5b600091825260209091200154600160a060020a0316145b1515610698576040805160e560020a62461bcd028152602060048201526030602482015260008051602061141c833981519152604482015260008051602061145c833981519152606482015290519081900360840190fd5b8451865114610717576040805160e560020a62461bcd02815260206004820152603160248201527f61737365747320616e6420617373657450726963657320617265206e6f74206f60448201527f66207468652073616d65206c656e677468000000000000000000000000000000606482015290519081900360840190fd5b8251845114610796576040805160e560020a62461bcd02815260206004820152603360248201527f756e6465726c79696e677320616e6420756c50726963657320617265206e6f7460448201527f206f66207468652073616d65206c656e67746800000000000000000000000000606482015290519081900360840190fd5b600091505b85518210156107fc5784828151811015156107b257fe5b906020019060200201516003600088858151811015156107ce57fe5b6020908102909101810151600160a060020a031682528101919091526040016000205560019091019061079b565b600091505b835182101561085957828281518110151561081857fe5b9060200190602002015160036000868581518110151561083457fe5b6020908102909101810151825281019190915260400160002055600190910190610801565b505050505050565b600061087582600160a060020a03166110ee565b92915050565b600080600080806001805490501180156108b8575060018054339190839081106108a157fe5b600091825260209091200154600160a060020a0316145b1515610910576040805160e560020a62461bcd028152602060048201526030602482015260008051602061141c833981519152604482015260008051602061145c833981519152606482015290519081900360840190fd5b855187511461098f576040805160e560020a62461bcd02815260206004820152603160248201527f6f70746f6b656e7320616e642062757950726963657320617265206e6f74206f60448201527f66207468652073616d65206c656e677468000000000000000000000000000000606482015290519081900360840190fd5b8451875114610a0e576040805160e560020a62461bcd02815260206004820152603260248201527f6f70746f6b656e7320616e642053656c6c50726963657320617265206e6f742060448201527f6f66207468652073616d65206c656e6774680000000000000000000000000000606482015290519081900360840190fd5b600093505b8651841015610a79578684815181101515610a2a57fe5b90602001906020020151600160a060020a0316600a0260010192508484815181101515610a5357fe5b602090810290910181015160008581526003909252604090912055600190930192610a13565b600093505b8651841015610ae4578684815181101515610a9557fe5b90602001906020020151600160a060020a0316600a0260020191508584815181101515610abe57fe5b602090810290910181015160008481526003909252604090912055600190930192610a7e565b50505050505050565b60008080600180549050118015610b2757506001805433919083908110610b1057fe5b600091825260209091200154600160a060020a0316145b1515610b7f576040805160e560020a62461bcd028152602060048201526030602482015260008051602061141c833981519152604482015260008051602061145c833981519152606482015290519081900360840190fd5b5050600160a060020a0391909116600a02600101600090815260036020526040902055565b60015460009081108015610bdb57506001805433919083908110610bc457fe5b600091825260209091200154600160a060020a0316145b1515610c33576040805160e560020a62461bcd028152602060048201526030602482015260008051602061141c833981519152604482015260008051602061145c833981519152606482015290519081900360840190fd5b50600255565b610c41610ebf565b1515610c85576040805160e560020a62461bcd028152602060048201819052602482015260008051602061143c833981519152604482015290519081900360640190fd5b60008054604051600160a060020a03909116907f8be0079c531659141344cd1fd0a4f28419497f9722a3daafe3b4186f6b6457e0908390a36000805473ffffffffffffffffffffffffffffffffffffffff19169055565b60015460009081108015610d1357506001805433919083908110610cfc57fe5b600091825260209091200154600160a060020a0316145b1515610d6b576040805160e560020a62461bcd028152602060048201526030602482015260008051602061141c833981519152604482015260008051602061145c833981519152606482015290519081900360840190fd5b60008311610dc3576040805160e560020a62461bcd02815260206004820152601960248201527f756e6465726c79696e672063616e6e6f74206265207a65726f00000000000000604482015290519081900360640190fd5b5060009182526003602052604090912055565b60006002600a600160a060020a0384160201610df1816110ee565b9392505050565b60008080600180549050118015610e3257506001805433919083908110610e1b57fe5b600091825260209091200154600160a060020a0316145b1515610e8a576040805160e560020a62461bcd028152602060048201526030602482015260008051602061141c833981519152604482015260008051602061145c833981519152606482015290519081900360840190fd5b5050600160a060020a0391909116600a02600201600090815260036020526040902055565b600054600160a060020a03165b90565b600054600160a060020a0316331490565b610ed8610ebf565b1515610f1c576040805160e560020a62461bcd028152602060048201819052602482015260008051602061143c833981519152604482015290519081900360640190fd5b610f27600182611100565b50565b6000610f34610ebf565b1515610f78576040805160e560020a62461bcd028152602060048201819052602482015260008051602061143c833981519152604482015290519081900360640190fd5b6108756001836111a6565b60006001600a600160a060020a0384160201610df1816110ee565b6000610875826110ee565b610fb1610ebf565b1515610ff5576040805160e560020a62461bcd028152602060048201819052602482015260008051602061143c833981519152604482015290519081900360640190fd5b8060018381548110151561100557fe5b9060005260206000200160006101000a815481600160a060020a030219169083600160a060020a031602179055505050565b6060600180548060200260200160405190810160405280929190818152602001828054801561108f57602002820191906000526020600020905b8154600160a060020a03168152600190910190602001808311611071575b5050505050905090565b6110a1610ebf565b15156110e5576040805160e560020a62461bcd028152602060048201819052602482015260008051602061143c833981519152604482015290519081900360640190fd5b610f2781611295565b60009081526003602052604090205490565b6111638280548060200260200160405190810160405280929190818152602001828054801561115857602002820191906000526020600020905b8154600160a060020a0316815260019091019060200180831161113a575b505050505082611383565b15156111a257815460018101835560008381526020902001805473ffffffffffffffffffffffffffffffffffffffff1916600160a060020a0383161790555b5050565b8154600090815b818110156111f55783600160a060020a031685828154811015156111cd57fe5b600091825260209091200154600160a060020a031614156111ed576111f5565b6001016111ad565b81811015611288576000198201811461126e57846001830381548110151561121957fe5b6000918252602090912001548554600160a060020a039091169086908390811061123f57fe5b9060005260206000200160006101000a815481600160a060020a030219169083600160a060020a031602179055505b845461127e8660001983016113d4565b506001925061128d565b600092505b505092915050565b600160a060020a038116151561131b576040805160e560020a62461bcd02815260206004820152602660248201527f4f776e61626c653a206e6577206f776e657220697320746865207a65726f206160448201527f6464726573730000000000000000000000000000000000000000000000000000606482015290519081900360840190fd5b60008054604051600160a060020a03808516939216917f8be0079c531659141344cd1fd0a4f28419497f9722a3daafe3b4186f6b6457e091a36000805473ffffffffffffffffffffffffffffffffffffffff1916600160a060020a0392909216919091179055565b8151600090815b818110156112885783600160a060020a031685828151811015156113aa57fe5b90602001906020020151600160a060020a031614156113cc576001925061128d565b60010161138a565b8154818355818111156113f8576000838152602090206113f89181019083016113fd565b505050565b610ebc91905b808211156114175760008155600101611403565b509056004d616e6167657261626c653a2063616c6c6572206973206e6f742074686520654f776e61626c653a2063616c6c6572206973206e6f7420746865206f776e65726c696769626c65204f70657261746f7200000000000000000000000000000000a165627a7a7230582021287b1ddb150e2cbf502aa4d8ce4a26a1fcc3799c27c03ad00d84843c4d48120029",
  "source": "pragma solidity ^0.4.26;\r\nimport \"./interfaces/IFNXOracle.sol\";\r\nimport \"./modules/SafeMath.sol\";\r\nimport \"./modules/Operator.sol\";\r\ncontract FNXOracle is IFNXOracle,Operator {\r\n    using SafeMath for uint256;\r\n    uint256 private ValidUntil = 600;\r\n    mapping(uint256 => uint256) private priceMap;\r\n    function setValidUntil(uint256 timeLimit) public onlyOperatorIndex(0) {\r\n        ValidUntil = timeLimit;\r\n    }\r\n    /**\r\n      * @notice set price of an asset\r\n      * @dev function to set price for an asset\r\n      * @param asset Asset for which to set the price\r\n      * @param price the Asset's price\r\n      */    \r\n    function setPrice(address asset,uint256 price) public onlyOperatorIndex(0) {\r\n        priceMap[uint256(asset)] = price;\r\n\r\n    }\r\n    /**\r\n      * @notice set price of an underlying\r\n      * @dev function to set price for an underlying\r\n      * @param underlying underlying for which to set the price\r\n      * @param price the underlying's price\r\n      */  \r\n    function setUnderlyingPrice(uint256 underlying,uint256 price) public onlyOperatorIndex(0) {\r\n        require(underlying>0 , \"underlying cannot be zero\");\r\n        priceMap[underlying] = price;\r\n    }\r\n    /**\r\n    * @notice set a group of prices for assets and a group of prices for underlying\r\n    * @dev function to set a group of prices for assets and a group of prices for underlying\r\n    * @param assets a set of asset for which to set the price\r\n    * @param assetPrices  a set of the Asset's price\r\n    * @param underlyings a set of underlyings for which to set the price\r\n    * @param ulPrices  a set of the underlyings's price\r\n    */    \r\n    function setPriceAndUnderlyingPrice(address[] assets,uint256[] assetPrices,uint256[] underlyings,uint256[] ulPrices) public onlyOperatorIndex(0) {\r\n        require(assets.length == assetPrices.length,\"assets and assetPrices are not of the same length\");\r\n        require(underlyings.length == ulPrices.length,\"underlyings and ulPrices are not of the same length\");\r\n        for (uint i = 0;i<assets.length;i++) {\r\n            priceMap[uint256(assets[i])] = assetPrices[i];\r\n        }\r\n        for (i = 0;i<underlyings.length;i++) {\r\n            priceMap[underlyings[i]] = ulPrices[i];\r\n        }\r\n    }\r\n    /**\r\n      * @notice set price of an options token sell price\r\n      * @dev function to set an options token sell price\r\n      * @param optoken options token for which to set the sell price\r\n      * @param price the options token sell price\r\n      */     \r\n    function setSellOptionsPrice(address optoken,uint256 price) public onlyOperatorIndex(0) {\r\n        uint256 key = uint256(optoken)*10+1;\r\n        priceMap[key] = price;\r\n    }\r\n    /**\r\n      * @notice set price of an options token buy price\r\n      * @dev function to set an options token buy price\r\n      * @param optoken options token for which to set the buy price\r\n      * @param price the options token buy price\r\n      */      \r\n    function setBuyOptionsPrice(address optoken,uint256 price) public onlyOperatorIndex(0) {\r\n        uint256 key = uint256(optoken)*10+2;\r\n        priceMap[key] = price;\r\n    }\r\n    /**\r\n      * @notice set price of a group of option tokens buy and sell prices\r\n      * @dev function to set price of a group of option tokens buy and sell prices\r\n      * @param optokens a group of option tokens for which to set the buy and sell price\r\n      * @param buyPrices a group of buy prices\r\n      * @param SellPrices a group of sell prices\r\n      */    \r\n    function setOptionsBuyAndSellPrice(address[] optokens,uint256[] buyPrices,uint256[] SellPrices) public onlyOperatorIndex(0) {\r\n        require(optokens.length == buyPrices.length,\"optokens and buyPrices are not of the same length\");\r\n        require(optokens.length == SellPrices.length,\"optokens and SellPrices are not of the same length\");\r\n        for (uint i=0; i<optokens.length; i++) {\r\n            uint256 sellkey = uint256(optokens[i])*10+1;\r\n            priceMap[sellkey] = SellPrices[i];\r\n        }\r\n        for (i=0; i<optokens.length; i++) {\r\n            uint256 buykey = uint256(optokens[i])*10+2;\r\n            priceMap[buykey] = buyPrices[i];\r\n        }\r\n    }\r\n    /**\r\n  * @notice retrieves price of an asset\r\n  * @dev function to get price for an asset\r\n  * @param asset Asset for which to get the price\r\n  * @return uint mantissa of asset price (scaled by 1e18) or zero if unset or contract paused\r\n  */\r\n    function getPrice(address asset) public view returns (uint256) {\r\n        return _getPriceInfo(uint256(asset));\r\n    }\r\n    function getUnderlyingPrice(uint256 underlying) public view returns (uint256) {\r\n        return _getPriceInfo(underlying);\r\n    }\r\n\r\n    function getSellOptionsPrice(address oToken) public view returns (uint256) {\r\n        uint256 key = uint256(oToken)*10+1;\r\n        return _getPriceInfo(key);\r\n\r\n    }\r\n    function getBuyOptionsPrice(address oToken) public view returns (uint256) {\r\n        uint256 key = uint256(oToken)*10+2;\r\n        return _getPriceInfo(key);\r\n    }\r\n    function _getPriceInfo(uint256 key) internal view returns (uint256) {\r\n        return priceMap[key];\r\n    }\r\n\r\n/*\r\n    function getPriceDetail(address asset) public view returns (uint256,uint256) {\r\n        return _getPriceDetail(uint256(asset));\r\n    }\r\n    function getUnderlyingPriceDetail(uint256 underlying) public view returns (uint256,uint256) {\r\n        return _getPriceDetail(underlying);\r\n    }\r\n\r\n    function getSellOptionsPriceDetail(address oToken) public view returns (uint256,uint256) {\r\n        uint256 key = uint256(oToken)*10+1;\r\n        return _getPriceDetail(key);\r\n\r\n    }\r\n    function getBuyOptionsPriceDetail(address oToken) public view returns (uint256,uint256) {\r\n        uint256 key = uint256(oToken)*10+2;\r\n        return _getPriceDetail(key);\r\n    }\r\n    function _getPriceDetail(uint256 key) internal view returns (uint256,uint256) {\r\n        return (priceMap[key].price,priceMap[key].inptutTime);\r\n    }\r\n    */\r\n}\r\n",
  "sourcePath": "C:\\work\\solidity\\FinnexusOptions_V2\\contracts\\FNXOracle.sol",
  "compiler": {
    "name": "solc",
    "version": "0.4.26+commit.4563c3fc.Emscripten.clang"
  },
  "schemaVersion": "3.1.0",
  "updatedAt": "2020-08-03T14:27:23.346Z",
  "devdoc": {
    "methods": {
      "getPrice(address)": {
        "details": "function to get price for an asset\r",
        "params": {
          "asset": "Asset for which to get the price\r"
        },
        "return": "uint mantissa of asset price (scaled by 1e18) or zero if unset or contract paused\r"
      },
      "isOwner()": {
        "details": "Returns true if the caller is the current owner."
      },
      "owner()": {
        "details": "Returns the address of the current owner."
      },
      "renounceOwnership()": {
        "details": "Leaves the contract without owner. It will not be possible to call `onlyOwner` functions anymore. Can only be called by the current owner.     * NOTE: Renouncing ownership will leave the contract without an owner, thereby removing any functionality that is only available to the owner."
      },
      "setBuyOptionsPrice(address,uint256)": {
        "details": "function to set an options token buy price\r",
        "params": {
          "optoken": "options token for which to set the buy price\r",
          "price": "the options token buy price\r"
        }
      },
      "setOptionsBuyAndSellPrice(address[],uint256[],uint256[])": {
        "details": "function to set price of a group of option tokens buy and sell prices\r",
        "params": {
          "SellPrices": "a group of sell prices\r",
          "buyPrices": "a group of buy prices\r",
          "optokens": "a group of option tokens for which to set the buy and sell price\r"
        }
      },
      "setPrice(address,uint256)": {
        "details": "function to set price for an asset\r",
        "params": {
          "asset": "Asset for which to set the price\r",
          "price": "the Asset's price\r"
        }
      },
      "setPriceAndUnderlyingPrice(address[],uint256[],uint256[],uint256[])": {
        "details": "function to set a group of prices for assets and a group of prices for underlying\r",
        "params": {
          "assetPrices": "a set of the Asset's price\r",
          "assets": "a set of asset for which to set the price\r",
          "ulPrices": "a set of the underlyings's price\r",
          "underlyings": "a set of underlyings for which to set the price\r"
        }
      },
      "setSellOptionsPrice(address,uint256)": {
        "details": "function to set an options token sell price\r",
        "params": {
          "optoken": "options token for which to set the sell price\r",
          "price": "the options token sell price\r"
        }
      },
      "setUnderlyingPrice(uint256,uint256)": {
        "details": "function to set price for an underlying\r",
        "params": {
          "price": "the underlying's price\r",
          "underlying": "underlying for which to set the price\r"
        }
      },
      "transferOwnership(address)": {
        "details": "Transfers ownership of the contract to a new account (`newOwner`). Can only be called by the current owner."
      }
    }
  },
  "userdoc": {
    "methods": {
      "getPrice(address)": {
        "notice": "retrieves price of an asset\r"
      },
      "setBuyOptionsPrice(address,uint256)": {
        "notice": "set price of an options token buy price\r"
      },
      "setOptionsBuyAndSellPrice(address[],uint256[],uint256[])": {
        "notice": "set price of a group of option tokens buy and sell prices\r"
      },
      "setPrice(address,uint256)": {
        "notice": "set price of an asset\r"
      },
      "setPriceAndUnderlyingPrice(address[],uint256[],uint256[],uint256[])": {
        "notice": "set a group of prices for assets and a group of prices for underlying\r"
      },
      "setSellOptionsPrice(address,uint256)": {
        "notice": "set price of an options token sell price\r"
      },
      "setUnderlyingPrice(uint256,uint256)": {
        "notice": "set price of an underlying\r"
      }
    }
  }
}