{
  "contractName": "FPTCoin",
  "abi": [
    {
      "inputs": [],
      "payable": false,
      "stateMutability": "nonpayable",
      "type": "constructor"
    },
    {
      "anonymous": false,
      "inputs": [
        {
          "indexed": true,
          "internalType": "address",
          "name": "owner",
          "type": "address"
        },
        {
          "indexed": false,
          "internalType": "uint256",
          "name": "amount",
          "type": "uint256"
        },
        {
          "indexed": false,
          "internalType": "uint256",
          "name": "worth",
          "type": "uint256"
        }
      ],
      "name": "AddLocked",
      "type": "event"
    },
    {
      "anonymous": false,
      "inputs": [
        {
          "indexed": true,
          "internalType": "address",
          "name": "owner",
          "type": "address"
        },
        {
          "indexed": true,
          "internalType": "address",
          "name": "spender",
          "type": "address"
        },
        {
          "indexed": false,
          "internalType": "uint256",
          "name": "value",
          "type": "uint256"
        }
      ],
      "name": "Approval",
      "type": "event"
    },
    {
      "anonymous": false,
      "inputs": [
        {
          "indexed": true,
          "internalType": "address",
          "name": "owner",
          "type": "address"
        },
        {
          "indexed": false,
          "internalType": "uint256",
          "name": "amount",
          "type": "uint256"
        },
        {
          "indexed": false,
          "internalType": "uint256",
          "name": "worth",
          "type": "uint256"
        }
      ],
      "name": "BurnLocked",
      "type": "event"
    },
    {
      "anonymous": false,
      "inputs": [
        {
          "indexed": true,
          "internalType": "address",
          "name": "previousOwner",
          "type": "address"
        },
        {
          "indexed": true,
          "internalType": "address",
          "name": "newOwner",
          "type": "address"
        }
      ],
      "name": "OwnershipTransferred",
      "type": "event"
    },
    {
      "anonymous": false,
      "inputs": [
        {
          "indexed": true,
          "internalType": "address",
          "name": "from",
          "type": "address"
        },
        {
          "indexed": true,
          "internalType": "address",
          "name": "to",
          "type": "address"
        },
        {
          "indexed": false,
          "internalType": "uint256",
          "name": "value",
          "type": "uint256"
        }
      ],
      "name": "Transfer",
      "type": "event"
    },
    {
      "constant": true,
      "inputs": [
        {
          "internalType": "address",
          "name": "owner",
          "type": "address"
        },
        {
          "internalType": "address",
          "name": "spender",
          "type": "address"
        }
      ],
      "name": "allowance",
      "outputs": [
        {
          "internalType": "uint256",
          "name": "",
          "type": "uint256"
        }
      ],
      "payable": false,
      "stateMutability": "view",
      "type": "function"
    },
    {
      "constant": false,
      "inputs": [
        {
          "internalType": "address",
          "name": "spender",
          "type": "address"
        },
        {
          "internalType": "uint256",
          "name": "amount",
          "type": "uint256"
        }
      ],
      "name": "approve",
      "outputs": [
        {
          "internalType": "bool",
          "name": "",
          "type": "bool"
        }
      ],
      "payable": false,
      "stateMutability": "nonpayable",
      "type": "function"
    },
    {
      "constant": true,
      "inputs": [
        {
          "internalType": "address",
          "name": "account",
          "type": "address"
        }
      ],
      "name": "balanceOf",
      "outputs": [
        {
          "internalType": "uint256",
          "name": "",
          "type": "uint256"
        }
      ],
      "payable": false,
      "stateMutability": "view",
      "type": "function"
    },
    {
      "constant": true,
      "inputs": [],
      "name": "decimals",
      "outputs": [
        {
          "internalType": "uint8",
          "name": "",
          "type": "uint8"
        }
      ],
      "payable": false,
      "stateMutability": "view",
      "type": "function"
    },
    {
      "constant": false,
      "inputs": [
        {
          "internalType": "address",
          "name": "spender",
          "type": "address"
        },
        {
          "internalType": "uint256",
          "name": "subtractedValue",
          "type": "uint256"
        }
      ],
      "name": "decreaseAllowance",
      "outputs": [
        {
          "internalType": "bool",
          "name": "",
          "type": "bool"
        }
      ],
      "payable": false,
      "stateMutability": "nonpayable",
      "type": "function"
    },
    {
      "constant": true,
      "inputs": [],
      "name": "getFNXMinePoolAddress",
      "outputs": [
        {
          "internalType": "address",
          "name": "",
          "type": "address"
        }
      ],
      "payable": false,
      "stateMutability": "view",
      "type": "function"
    },
    {
      "constant": true,
      "inputs": [],
      "name": "getManager",
      "outputs": [
        {
          "internalType": "address",
          "name": "",
          "type": "address"
        }
      ],
      "payable": false,
      "stateMutability": "view",
      "type": "function"
    },
    {
      "constant": false,
      "inputs": [
        {
          "internalType": "address",
          "name": "spender",
          "type": "address"
        },
        {
          "internalType": "uint256",
          "name": "addedValue",
          "type": "uint256"
        }
      ],
      "name": "increaseAllowance",
      "outputs": [
        {
          "internalType": "bool",
          "name": "",
          "type": "bool"
        }
      ],
      "payable": false,
      "stateMutability": "nonpayable",
      "type": "function"
    },
    {
      "constant": true,
      "inputs": [],
      "name": "isOwner",
      "outputs": [
        {
          "internalType": "bool",
          "name": "",
          "type": "bool"
        }
      ],
      "payable": false,
      "stateMutability": "view",
      "type": "function"
    },
    {
      "constant": true,
      "inputs": [],
      "name": "name",
      "outputs": [
        {
          "internalType": "string",
          "name": "",
          "type": "string"
        }
      ],
      "payable": false,
      "stateMutability": "view",
      "type": "function"
    },
    {
      "constant": true,
      "inputs": [],
      "name": "owner",
      "outputs": [
        {
          "internalType": "address",
          "name": "",
          "type": "address"
        }
      ],
      "payable": false,
      "stateMutability": "view",
      "type": "function"
    },
    {
      "constant": false,
      "inputs": [],
      "name": "renounceOwnership",
      "outputs": [],
      "payable": false,
      "stateMutability": "nonpayable",
      "type": "function"
    },
    {
      "constant": false,
      "inputs": [
        {
          "internalType": "address",
          "name": "fnxMinePool",
          "type": "address"
        }
      ],
      "name": "setFNXMinePoolAddress",
      "outputs": [],
      "payable": false,
      "stateMutability": "nonpayable",
      "type": "function"
    },
    {
      "constant": false,
      "inputs": [
        {
          "internalType": "address",
          "name": "managerAddress",
          "type": "address"
        }
      ],
      "name": "setManager",
      "outputs": [],
      "payable": false,
      "stateMutability": "nonpayable",
      "type": "function"
    },
    {
      "constant": true,
      "inputs": [],
      "name": "symbol",
      "outputs": [
        {
          "internalType": "string",
          "name": "",
          "type": "string"
        }
      ],
      "payable": false,
      "stateMutability": "view",
      "type": "function"
    },
    {
      "constant": true,
      "inputs": [],
      "name": "totalSupply",
      "outputs": [
        {
          "internalType": "uint256",
          "name": "",
          "type": "uint256"
        }
      ],
      "payable": false,
      "stateMutability": "view",
      "type": "function"
    },
    {
      "constant": false,
      "inputs": [
        {
          "internalType": "address",
          "name": "newOwner",
          "type": "address"
        }
      ],
      "name": "transferOwnership",
      "outputs": [],
      "payable": false,
      "stateMutability": "nonpayable",
      "type": "function"
    },
    {
      "constant": false,
      "inputs": [],
      "name": "initialize",
      "outputs": [],
      "payable": false,
      "stateMutability": "nonpayable",
      "type": "function"
    },
    {
      "constant": false,
      "inputs": [
        {
          "internalType": "uint256",
          "name": "_timeLimited",
          "type": "uint256"
        }
      ],
      "name": "setBurnTimeLimited",
      "outputs": [],
      "payable": false,
      "stateMutability": "nonpayable",
      "type": "function"
    },
    {
      "constant": true,
      "inputs": [
        {
          "internalType": "address",
          "name": "user",
          "type": "address"
        }
      ],
      "name": "getUserBurnTimeLimite",
      "outputs": [
        {
          "internalType": "uint256",
          "name": "",
          "type": "uint256"
        }
      ],
      "payable": false,
      "stateMutability": "view",
      "type": "function"
    },
    {
      "constant": true,
      "inputs": [],
      "name": "getTotalLockedWorth",
      "outputs": [
        {
          "internalType": "uint256",
          "name": "",
          "type": "uint256"
        }
      ],
      "payable": false,
      "stateMutability": "view",
      "type": "function"
    },
    {
      "constant": true,
      "inputs": [
        {
          "internalType": "address",
          "name": "account",
          "type": "address"
        }
      ],
      "name": "lockedBalanceOf",
      "outputs": [
        {
          "internalType": "uint256",
          "name": "",
          "type": "uint256"
        }
      ],
      "payable": false,
      "stateMutability": "view",
      "type": "function"
    },
    {
      "constant": true,
      "inputs": [
        {
          "internalType": "address",
          "name": "account",
          "type": "address"
        }
      ],
      "name": "lockedWorthOf",
      "outputs": [
        {
          "internalType": "uint256",
          "name": "",
          "type": "uint256"
        }
      ],
      "payable": false,
      "stateMutability": "view",
      "type": "function"
    },
    {
      "constant": true,
      "inputs": [
        {
          "internalType": "address",
          "name": "account",
          "type": "address"
        }
      ],
      "name": "getLockedBalance",
      "outputs": [
        {
          "internalType": "uint256",
          "name": "",
          "type": "uint256"
        },
        {
          "internalType": "uint256",
          "name": "",
          "type": "uint256"
        }
      ],
      "payable": false,
      "stateMutability": "view",
      "type": "function"
    },
    {
      "constant": false,
      "inputs": [
        {
          "internalType": "address",
          "name": "account",
          "type": "address"
        },
        {
          "internalType": "uint256",
          "name": "amount",
          "type": "uint256"
        }
      ],
      "name": "addMinerBalance",
      "outputs": [],
      "payable": false,
      "stateMutability": "nonpayable",
      "type": "function"
    },
    {
      "constant": false,
      "inputs": [
        {
          "internalType": "address",
          "name": "account",
          "type": "address"
        },
        {
          "internalType": "uint256",
          "name": "amount",
          "type": "uint256"
        },
        {
          "internalType": "uint256",
          "name": "lockedWorth",
          "type": "uint256"
        }
      ],
      "name": "addlockBalance",
      "outputs": [],
      "payable": false,
      "stateMutability": "nonpayable",
      "type": "function"
    },
    {
      "constant": false,
      "inputs": [
        {
          "internalType": "address",
          "name": "recipient",
          "type": "address"
        },
        {
          "internalType": "uint256",
          "name": "amount",
          "type": "uint256"
        }
      ],
      "name": "transfer",
      "outputs": [
        {
          "internalType": "bool",
          "name": "",
          "type": "bool"
        }
      ],
      "payable": false,
      "stateMutability": "nonpayable",
      "type": "function"
    },
    {
      "constant": false,
      "inputs": [
        {
          "internalType": "address",
          "name": "sender",
          "type": "address"
        },
        {
          "internalType": "address",
          "name": "recipient",
          "type": "address"
        },
        {
          "internalType": "uint256",
          "name": "amount",
          "type": "uint256"
        }
      ],
      "name": "transferFrom",
      "outputs": [
        {
          "internalType": "bool",
          "name": "",
          "type": "bool"
        }
      ],
      "payable": false,
      "stateMutability": "nonpayable",
      "type": "function"
    },
    {
      "constant": false,
      "inputs": [
        {
          "internalType": "address",
          "name": "account",
          "type": "address"
        },
        {
          "internalType": "uint256",
          "name": "amount",
          "type": "uint256"
        }
      ],
      "name": "burn",
      "outputs": [],
      "payable": false,
      "stateMutability": "nonpayable",
      "type": "function"
    },
    {
      "constant": false,
      "inputs": [
        {
          "internalType": "address",
          "name": "account",
          "type": "address"
        },
        {
          "internalType": "uint256",
          "name": "amount",
          "type": "uint256"
        }
      ],
      "name": "mint",
      "outputs": [],
      "payable": false,
      "stateMutability": "nonpayable",
      "type": "function"
    },
    {
      "constant": false,
      "inputs": [
        {
          "internalType": "address",
          "name": "account",
          "type": "address"
        },
        {
          "internalType": "uint256",
          "name": "tokenAmount",
          "type": "uint256"
        },
        {
          "internalType": "uint256",
          "name": "leftCollateral",
          "type": "uint256"
        }
      ],
      "name": "redeemLockedCollateral",
      "outputs": [
        {
          "internalType": "uint256",
          "name": "",
          "type": "uint256"
        },
        {
          "internalType": "uint256",
          "name": "",
          "type": "uint256"
        }
      ],
      "payable": false,
      "stateMutability": "nonpayable",
      "type": "function"
    }
  ],
  "bytecode": "0x60806040523480156200001157600080fd5b50620000256401000000006200002b810204565b620001e6565b62000043640100000000620016be6200005e82021704565b610e10600c556200005c640100000000620000f3810204565b565b6040805180820190915260138082527f66696e6e6578757320706f6f6c20746f6b656e000000000000000000000000006020909201918252620000a49160009162000141565b506040805180820190915260038082527f46505400000000000000000000000000000000000000000000000000000000006020909201918252620000eb9160019162000141565b506000600455565b60058054600160a060020a031916331790819055604051600160a060020a0391909116906000907f8be0079c531659141344cd1fd0a4f28419497f9722a3daafe3b4186f6b6457e0908290a3565b828054600181600116156101000203166002900490600052602060002090601f016020900481019282601f106200018457805160ff1916838001178555620001b4565b82800160010185558215620001b4579182015b82811115620001b457825182559160200191906001019062000197565b50620001c2929150620001c6565b5090565b620001e391905b80821115620001c25760008155600101620001cd565b90565b611d9280620001f66000396000f3fe608060405234801561001057600080fd5b5060043610610202576000357c0100000000000000000000000000000000000000000000000000000000900480637de29ea81161012c578063a457c2d7116100bf578063d50095841161008e578063d50095841461062c578063dad3eb7414610634578063dd62ed3e1461063c578063f2fde38b1461066a57610202565b8063a457c2d714610588578063a9059cbb146105b4578063c4086893146105e0578063d0ebdbe71461060657610202565b80638f32d59b116100fb5780638f32d59b1461052f57806395d89b41146105375780639dc29fac1461053f578063a2684afb1461056b57610202565b80637de29ea8146104cd5780638129fc1c146104f35780638399d9f3146104fb5780638da5cb5b1461052757610202565b806339509351116101a457806359653ec91161017357806359653ec9146104555780636f2b70cd1461047957806370a082311461049f578063715018a6146104c557610202565b806339509351146103a357806340c10f19146103cf5780634b91a07b146103fd578063593557361461042f57610202565b806318160ddd116101e057806318160ddd146102fc57806323b872dd14610304578063313ce5671461033a57806335f0c4fa1461035857610202565b806306fdde031461020757806307e77aa014610284578063095ea7b3146102bc575b600080fd5b61020f610690565b6040805160208082528351818301528351919283929083019185019080838360005b83811015610249578181015183820152602001610231565b50505050905090810190601f1680156102765780820380516001836020036101000a031916815260200191505b509250505060405180910390f35b6102aa6004803603602081101561029a57600080fd5b5035600160a060020a031661071e565b60408051918252519081900360200190f35b6102e8600480360360408110156102d257600080fd5b50600160a060020a038135169060200135610739565b604080519115158252519081900360200190f35b6102aa610750565b6102e86004803603606081101561031a57600080fd5b50600160a060020a03813581169160208101359091169060400135610757565b610342610864565b6040805160ff9092168252519081900360200190f35b61038a6004803603606081101561036e57600080fd5b50600160a060020a038135169060208101359060400135610869565b6040805192835260208301919091528051918290030190f35b6102e8600480360360408110156103b957600080fd5b50600160a060020a038135169060200135610986565b6103fb600480360360408110156103e557600080fd5b50600160a060020a0381351690602001356109c7565b005b6103fb6004803603606081101561041357600080fd5b50600160a060020a038135169060208101359060400135610b10565b6102aa6004803603602081101561044557600080fd5b5035600160a060020a0316610b76565b61045d610b91565b60408051600160a060020a039092168252519081900360200190f35b6103fb6004803603602081101561048f57600080fd5b5035600160a060020a0316610ba0565b6102aa600480360360208110156104b557600080fd5b5035600160a060020a0316610c19565b6103fb610c34565b6102aa600480360360208110156104e357600080fd5b5035600160a060020a0316610cd5565b6103fb610cf7565b6103fb6004803603604081101561051157600080fd5b50600160a060020a038135169060200135610d0f565b61045d610de5565b6102e8610df4565b61020f610e05565b6103fb6004803603604081101561055557600080fd5b50600160a060020a038135169060200135610e5f565b6103fb6004803603602081101561058157600080fd5b5035610fe7565b6102e86004803603604081101561059e57600080fd5b50600160a060020a038135169060200135611036565b6102e8600480360360408110156105ca57600080fd5b50600160a060020a038135169060200135611072565b61038a600480360360208110156105f657600080fd5b5035600160a060020a031661117b565b6103fb6004803603602081101561061c57600080fd5b5035600160a060020a03166111a3565b61045d61121c565b6102aa61122b565b6102aa6004803603604081101561065257600080fd5b50600160a060020a0381358116916020013516611231565b6103fb6004803603602081101561068057600080fd5b5035600160a060020a031661125c565b6000805460408051602060026001851615610100026000190190941693909304601f810184900484028201840190925281815292918301828280156107165780601f106106eb57610100808354040283529160200191610716565b820191906000526020600020905b8154815290600101906020018083116106f957829003601f168201915b505050505081565b600160a060020a03166000908152600a602052604090205490565b60006107463384846112b2565b5060015b92915050565b6004545b90565b600654600090600160a060020a03166107a8576040805160e560020a62461bcd0281526020600482015260166024820152600080516020611cd4833981519152604482015290519081900360640190fd5b600654604080517fef56807f000000000000000000000000000000000000000000000000000000008152600160a060020a0387811660048301528681166024830152604482018690529151919092169163ef56807f91606480830192600092919082900301818387803b15801561081e57600080fd5b505af1158015610832573d6000803e3d6000fd5b505050600160a060020a0384166000908152600b602052604090204290555061085c8484846113a4565b949350505050565b601281565b6007546000908190600160a060020a031633146108ba5760405160e560020a62461bcd028152600401808060200182810382526026815260200180611c466026913960400191505060405180910390fd5b826108ca5750600090508061097e565b600160a060020a038516600090815260096020908152604080832054600a909252909120548115806108fa575080155b1561090e57506000925082915061097e9050565b6000808084848161091b57fe5b049050888510610932578891508089029250610939565b8491508392505b878311156109535780888161094a57fe5b04915080820292505b8115610971576109648a83856113f6565b509450925061097e915050565b5060009550859450505050505b935093915050565b336000818152600360209081526040808320600160a060020a038716845290915281205490916107469185906109c2908663ffffffff6114cb16565b6112b2565b600754600160a060020a03163314610a135760405160e560020a62461bcd028152600401808060200182810382526026815260200180611c466026913960400191505060405180910390fd5b600654600160a060020a0316610a61576040805160e560020a62461bcd0281526020600482015260166024820152600080516020611cd4833981519152604482015290519081900360640190fd5b600654604080517f8af2a470000000000000000000000000000000000000000000000000000000008152600160a060020a0385811660048301526024820185905291519190921691638af2a47091604480830192600092919082900301818387803b158015610acf57600080fd5b505af1158015610ae3573d6000803e3d6000fd5b505050600160a060020a0383166000908152600b6020526040902042905550610b0c8282611526565b5050565b600754600160a060020a03163314610b5c5760405160e560020a62461bcd028152600401808060200182810382526026815260200180611c466026913960400191505060405180910390fd5b610b668383610e5f565b610b718383836115e9565b505050565b600160a060020a031660009081526009602052604090205490565b600654600160a060020a031690565b610ba8610df4565b610bea576040805160e560020a62461bcd0281526020600482018190526024820152600080516020611cb4833981519152604482015290519081900360640190fd5b6006805473ffffffffffffffffffffffffffffffffffffffff1916600160a060020a0392909216919091179055565b600160a060020a031660009081526002602052604090205490565b610c3c610df4565b610c7e576040805160e560020a62461bcd0281526020600482018190526024820152600080516020611cb4833981519152604482015290519081900360640190fd5b600554604051600091600160a060020a0316907f8be0079c531659141344cd1fd0a4f28419497f9722a3daafe3b4186f6b6457e0908390a36005805473ffffffffffffffffffffffffffffffffffffffff19169055565b600c54600160a060020a0382166000908152600b602052604090205401919050565b610cff6116be565b610e10600c55610d0d61174f565b565b600754600160a060020a03163314610d5b5760405160e560020a62461bcd028152600401808060200182810382526026815260200180611c466026913960400191505060405180910390fd5b600654604080517f8399d9f3000000000000000000000000000000000000000000000000000000008152600160a060020a0385811660048301526024820185905291519190921691638399d9f391604480830192600092919082900301818387803b158015610dc957600080fd5b505af1158015610ddd573d6000803e3d6000fd5b505050505050565b600554600160a060020a031690565b600554600160a060020a0316331490565b60018054604080516020600284861615610100026000190190941693909304601f810184900484028201840190925281815292918301828280156107165780601f106106eb57610100808354040283529160200191610716565b600754600160a060020a03163314610eab5760405160e560020a62461bcd028152600401808060200182810382526026815260200180611c466026913960400191505060405180910390fd5b600c54600160a060020a0383166000908152600b602052604090205442910110610f095760405160e560020a62461bcd028152600401808060200182810382526024815260200180611c226024913960400191505060405180910390fd5b600654600160a060020a0316610f57576040805160e560020a62461bcd0281526020600482015260166024820152600080516020611cd4833981519152604482015290519081900360640190fd5b600654604080517f2a04d0c7000000000000000000000000000000000000000000000000000000008152600160a060020a0385811660048301526024820185905291519190921691632a04d0c791604480830192600092919082900301818387803b158015610fc557600080fd5b505af1158015610fd9573d6000803e3d6000fd5b50505050610b0c82826117aa565b610fef610df4565b611031576040805160e560020a62461bcd0281526020600482018190526024820152600080516020611cb4833981519152604482015290519081900360640190fd5b600c55565b336000818152600360209081526040808320600160a060020a038716845290915281205490916107469185906109c2908663ffffffff61185716565b600654600090600160a060020a03166110c3576040805160e560020a62461bcd0281526020600482015260166024820152600080516020611cd4833981519152604482015290519081900360640190fd5b600654604080517fef56807f000000000000000000000000000000000000000000000000000000008152336004820152600160a060020a038681166024830152604482018690529151919092169163ef56807f91606480830192600092919082900301818387803b15801561113757600080fd5b505af115801561114b573d6000803e3d6000fd5b505050600160a060020a0384166000908152600b602052604090204290555061117483836118b2565b9392505050565b600160a060020a0316600090815260096020908152604080832054600a909252909120549091565b6111ab610df4565b6111ed576040805160e560020a62461bcd0281526020600482018190526024820152600080516020611cb4833981519152604482015290519081900360640190fd5b6007805473ffffffffffffffffffffffffffffffffffffffff1916600160a060020a0392909216919091179055565b600754600160a060020a031690565b60085490565b600160a060020a03918216600090815260036020908152604080832093909416825291909152205490565b611264610df4565b6112a6576040805160e560020a62461bcd0281526020600482018190526024820152600080516020611cb4833981519152604482015290519081900360640190fd5b6112af816118bf565b50565b600160a060020a0383166112fa5760405160e560020a62461bcd028152600401808060200182810382526024815260200180611d3a6024913960400191505060405180910390fd5b600160a060020a0382166113425760405160e560020a62461bcd028152600401808060200182810382526022815260200180611c926022913960400191505060405180910390fd5b600160a060020a03808416600081815260036020908152604080832094871680845294825291829020859055815185815291517f8c5be1e5ebec7d5bd14f71427d1e84f3dd0314c0f7b2291e5b200ac8c7c3b9259281900390910190a3505050565b60006113b1848484611970565b600160a060020a0384166000908152600360209081526040808320338085529252909120546113ec9186916109c2908663ffffffff61185716565b5060019392505050565b600160a060020a03831660009081526009602052604090205461141f908363ffffffff61185716565b600160a060020a038416600090815260096020908152604080832093909355600a90522054611454908263ffffffff61185716565b600160a060020a0384166000908152600a6020526040902055600854611480908263ffffffff61185716565b60085560408051838152602081018390528151600160a060020a038616927f3eff168ce30c25c5e643633b70f58850a0085c0a411d1b53e501a655a90bae1a928290030190a2505050565b8082018281101561074a576040805160e560020a62461bcd02815260206004820152601b60248201527f536166654d6174683a206164646974696f6e206f766572666c6f770000000000604482015290519081900360640190fd5b600160a060020a038216611584576040805160e560020a62461bcd02815260206004820152601f60248201527f45524332303a206d696e7420746f20746865207a65726f206164647265737300604482015290519081900360640190fd5b600454611597908263ffffffff6114cb16565b6004556115a48282611a64565b604080518281529051600160a060020a038416916000917fddf252ad1be2c89b69c2b068fc378daa952ba7f163c4a11628f55a4df523b3ef9181900360200190a35050565b600160a060020a038316600090815260096020526040902054611612908363ffffffff6114cb16565b600160a060020a038416600090815260096020908152604080832093909355600a90522054611647908263ffffffff6114cb16565b600160a060020a0384166000908152600a6020526040902055600854611673908263ffffffff6114cb16565b60085560408051838152602081018390528151600160a060020a038616927f8eb48086ad9abd7f3270b68172da958c7507500a9e0c8a9897a5c85ae7d8c0e9928290030190a2505050565b6040805180820190915260138082527f66696e6e6578757320706f6f6c20746f6b656e00000000000000000000000000602090920191825261170291600091611b66565b506040805180820190915260038082527f4650540000000000000000000000000000000000000000000000000000000000602090920191825261174791600191611b66565b506000600455565b6005805473ffffffffffffffffffffffffffffffffffffffff1916331790819055604051600160a060020a0391909116906000907f8be0079c531659141344cd1fd0a4f28419497f9722a3daafe3b4186f6b6457e0908290a3565b600160a060020a0382166117f25760405160e560020a62461bcd028152600401808060200182810382526021815260200180611cf46021913960400191505060405180910390fd5b6117fc8282611af5565b60045461180f908263ffffffff61185716565b600455604080518281529051600091600160a060020a038516917fddf252ad1be2c89b69c2b068fc378daa952ba7f163c4a11628f55a4df523b3ef9181900360200190a35050565b8082038281111561074a576040805160e560020a62461bcd02815260206004820181905260248201527f536166654d6174683a20737562737472616374696f6e20756e646572666c6f77604482015290519081900360640190fd5b6000610746338484611970565b600160a060020a0381166119075760405160e560020a62461bcd028152600401808060200182810382526026815260200180611c6c6026913960400191505060405180910390fd5b600554604051600160a060020a038084169216907f8be0079c531659141344cd1fd0a4f28419497f9722a3daafe3b4186f6b6457e090600090a36005805473ffffffffffffffffffffffffffffffffffffffff1916600160a060020a0392909216919091179055565b600160a060020a0383166119b85760405160e560020a62461bcd028152600401808060200182810382526025815260200180611d156025913960400191505060405180910390fd5b600160a060020a038216611a005760405160e560020a62461bcd028152600401808060200182810382526023815260200180611bff6023913960400191505060405180910390fd5b611a0a8382611af5565b611a148282611a64565b81600160a060020a031683600160a060020a03167fddf252ad1be2c89b69c2b068fc378daa952ba7f163c4a11628f55a4df523b3ef836040518082815260200191505060405180910390a3505050565b600160a060020a038216611aac5760405160e560020a62461bcd028152600401808060200182810382526023815260200180611bff6023913960400191505060405180910390fd5b600160a060020a038216600090815260026020526040902054611ad5908263ffffffff6114cb16565b600160a060020a0390921660009081526002602052604090209190915550565b600160a060020a038216611b3d5760405160e560020a62461bcd028152600401808060200182810382526023815260200180611bff6023913960400191505060405180910390fd5b600160a060020a038216600090815260026020526040902054611ad5908263ffffffff61185716565b828054600181600116156101000203166002900490600052602060002090601f016020900481019282601f10611ba757805160ff1916838001178555611bd4565b82800160010185558215611bd4579182015b82811115611bd4578251825591602001919060010190611bb9565b50611be0929150611be4565b5090565b61075491905b80821115611be05760008155600101611bea56fe45524332303a207472616e7366657220746f20746865207a65726f206164647265737346505420636f696e206c6f636b65642074696d65206973206e6f742065787069726564214d616e6167657261626c653a2063616c6c6572206973206e6f7420746865204d616e616765724f776e61626c653a206e6577206f776e657220697320746865207a65726f206164647265737345524332303a20617070726f766520746f20746865207a65726f20616464726573734f776e61626c653a2063616c6c6572206973206e6f7420746865206f776e6572466e784d696e65506f6f6c206973206e6f74207365740000000000000000000045524332303a206275726e2066726f6d20746865207a65726f206164647265737345524332303a207472616e736665722066726f6d20746865207a65726f206164647265737345524332303a20617070726f76652066726f6d20746865207a65726f2061646472657373a265627a7a723158200aa75cc7a6196681c9c639f17430ca0a9e245026f38497ffc864729c99fd980a64736f6c63430005100032",
  "source": "pragma solidity ^0.5.1;\r\nimport \"./SharedCoin.sol\";\r\nimport \"../modules/SafeMath.sol\";\r\n\r\n\r\n/**\r\n * @title FPTCoin is finnexus collateral Pool token, implement ERC20 interface.\r\n * @dev ERC20 token. Its inside value is collatral pool net worth.\r\n *\r\n */\r\ncontract FPTCoin is SharedCoin {\r\n    using SafeMath for uint256;\r\n        constructor ()public{\r\n        initialize();\r\n    }\r\n\r\n    /**\r\n     * @dev constructor function. set FNX minePool contract address. \r\n     */ \r\n    function initialize() public{\r\n        SharedCoin.initialize();\r\n        timeLimited = 1 hours;\r\n        OwnableInitialize();\r\n    }\r\n    /**\r\n     * @dev set FPT burn time limited, only owner can invoke. \r\n     * @param _timeLimited new burning time limited.\r\n     */ \r\n    function setBurnTimeLimited(uint256 _timeLimited) public onlyOwner {\r\n        timeLimited = _timeLimited;\r\n    }\r\n    /**\r\n     * @dev Retrieve user's start time for burning. \r\n     * @param user user's account.\r\n     */ \r\n    function getUserBurnTimeLimite(address user) public view returns (uint256){\r\n        return latestTransferIn[user]+timeLimited;\r\n    }\r\n    /**\r\n     * @dev Retrieve total locked worth. \r\n     */ \r\n    function getTotalLockedWorth() public view returns (uint256) {\r\n        return _totalLockedWorth;\r\n    }\r\n    /**\r\n     * @dev Retrieve user's locked balance. \r\n     * @param account user's account.\r\n     */ \r\n    function lockedBalanceOf(address account) public view returns (uint256) {\r\n        return lockedBalances[account];\r\n    }\r\n    /**\r\n     * @dev Retrieve user's locked net worth. \r\n     * @param account user's account.\r\n     */ \r\n    function lockedWorthOf(address account) public view returns (uint256) {\r\n        return lockedTotalWorth[account];\r\n    }\r\n    /**\r\n     * @dev Retrieve user's locked balance and locked net worth. \r\n     * @param account user's account.\r\n     */ \r\n    function getLockedBalance(address account) public view returns (uint256,uint256) {\r\n        return (lockedBalances[account],lockedTotalWorth[account]);\r\n    }\r\n    /**\r\n     * @dev Interface to manager FNX mine pool contract, add miner balance when user has bought some options. \r\n     * @param account user's account.\r\n     * @param amount user's pay for buying options, priced in USD.\r\n     */ \r\n    function addMinerBalance(address account,uint256 amount) public onlyManager{\r\n        _FnxMinePool.addMinerBalance(account,amount);\r\n    }\r\n    /**\r\n     * dev Burn user's locked balance, when user redeem collateral. \r\n     * param account user's account.\r\n     * param amount amount of burned FPT.\r\n \r\n    function burnLocked(address account, uint256 amount) public onlyManager{\r\n        require(latestTransferIn[account]+timeLimited<now,\"FPT coin locked time is not expired!\");\r\n        uint256 lockedAmount = lockedBalances[account];\r\n        require(amount<=lockedAmount,\"burnLocked: balance is insufficient\");\r\n        if(lockedAmount>0){\r\n            uint256 lockedWorth = lockedTotalWorth[account];\r\n            if (amount == lockedAmount){\r\n                _subLockBalance(account,lockedAmount,lockedWorth);\r\n            }else{\r\n                uint256 burnWorth = amount*lockedWorth/lockedAmount;\r\n                _subLockBalance(account,amount,burnWorth);\r\n            }\r\n        }\r\n    }\r\n     */\r\n    /**\r\n     * @dev Move user's FPT to locked balance, when user redeem collateral. \r\n     * @param account user's account.\r\n     * @param amount amount of locked FPT.\r\n     * @param lockedWorth net worth of locked FPT.\r\n     */ \r\n    function addlockBalance(address account, uint256 amount,uint256 lockedWorth)public onlyManager {\r\n        burn(account,amount);\r\n        _addLockBalance(account,amount,lockedWorth);\r\n    }\r\n    /**\r\n     * @dev Move user's FPT to 'recipient' balance, a interface in ERC20. \r\n     * @param recipient recipient's account.\r\n     * @param amount amount of FPT.\r\n     */ \r\n    function transfer(address recipient, uint256 amount)public returns (bool){\r\n        require(address(_FnxMinePool) != address(0),\"FnxMinePool is not set\");\r\n        _FnxMinePool.transferMinerCoin(msg.sender,recipient,amount);\r\n        latestTransferIn[recipient] = now;\r\n        return SharedCoin.transfer(recipient,amount);\r\n    }\r\n    /**\r\n     * @dev Move sender's FPT to 'recipient' balance, a interface in ERC20. \r\n     * @param sender sender's account.\r\n     * @param recipient recipient's account.\r\n     * @param amount amount of FPT.\r\n     */ \r\n    function transferFrom(address sender, address recipient, uint256 amount)public returns (bool){\r\n        require(address(_FnxMinePool) != address(0),\"FnxMinePool is not set\");\r\n        _FnxMinePool.transferMinerCoin(sender,recipient,amount);\r\n        latestTransferIn[recipient] = now;\r\n        return SharedCoin.transferFrom(sender,recipient,amount);\r\n    }\r\n    /**\r\n     * @dev burn user's FPT when user redeem FPTCoin. \r\n     * @param account user's account.\r\n     * @param amount amount of FPT.\r\n     */ \r\n    function burn(address account, uint256 amount) public onlyManager {\r\n        require(latestTransferIn[account]+timeLimited<now,\"FPT coin locked time is not expired!\");\r\n        require(address(_FnxMinePool) != address(0),\"FnxMinePool is not set\");\r\n        _FnxMinePool.burnMinerCoin(account,amount);\r\n        SharedCoin._burn(account,amount);\r\n    }\r\n    /**\r\n     * @dev mint user's FPT when user add collateral. \r\n     * @param account user's account.\r\n     * @param amount amount of FPT.\r\n     */ \r\n    function mint(address account, uint256 amount) public onlyManager {\r\n        require(address(_FnxMinePool) != address(0),\"FnxMinePool is not set\");\r\n        _FnxMinePool.mintMinerCoin(account,amount);\r\n        latestTransferIn[account] = now;\r\n        SharedCoin._mint(account,amount);\r\n    }\r\n    /**\r\n     * @dev An auxiliary function, add user's locked balance. \r\n     * @param account user's account.\r\n     * @param amount amount of FPT.\r\n     * @param lockedWorth net worth of FPT.\r\n     */ \r\n    function _addLockBalance(address account, uint256 amount,uint256 lockedWorth)internal {\r\n        lockedBalances[account]= lockedBalances[account].add(amount);\r\n        lockedTotalWorth[account]= lockedTotalWorth[account].add(lockedWorth);\r\n        _totalLockedWorth = _totalLockedWorth.add(lockedWorth);\r\n        emit AddLocked(account, amount,lockedWorth);\r\n    }\r\n    /**\r\n     * @dev An auxiliary function, deduct user's locked balance. \r\n     * @param account user's account.\r\n     * @param amount amount of FPT.\r\n     * @param lockedWorth net worth of FPT.\r\n     */ \r\n    function _subLockBalance(address account,uint256 amount,uint256 lockedWorth)internal {\r\n        lockedBalances[account]= lockedBalances[account].sub(amount);\r\n        lockedTotalWorth[account]= lockedTotalWorth[account].sub(lockedWorth);\r\n        _totalLockedWorth = _totalLockedWorth.sub(lockedWorth);\r\n        emit BurnLocked(account, amount,lockedWorth);\r\n    }\r\n    /**\r\n     * @dev An interface of redeem locked FPT, when user redeem collateral, only manager contract can invoke. \r\n     * @param account user's account.\r\n     * @param tokenAmount amount of FPT.\r\n     * @param leftCollateral left available collateral in collateral pool, priced in USD.\r\n     */ \r\n    function redeemLockedCollateral(address account,uint256 tokenAmount,uint256 leftCollateral)public onlyManager returns (uint256,uint256){\r\n        if (leftCollateral == 0){\r\n            return(0,0);\r\n        }\r\n        uint256 lockedAmount = lockedBalances[account];\r\n        uint256 lockedWorth = lockedTotalWorth[account];\r\n        if (lockedAmount == 0 || lockedWorth == 0){\r\n            return (0,0);\r\n        }\r\n        uint256 redeemWorth = 0;\r\n        uint256 lockedBurn = 0;\r\n        uint256 lockedPrice = lockedWorth/lockedAmount;\r\n        if (lockedAmount >= tokenAmount){\r\n            lockedBurn = tokenAmount;\r\n            redeemWorth = tokenAmount*lockedPrice;\r\n        }else{\r\n            lockedBurn = lockedAmount;\r\n            redeemWorth = lockedWorth;\r\n        }\r\n        if (redeemWorth > leftCollateral) {\r\n            lockedBurn = leftCollateral/lockedPrice;\r\n            redeemWorth = lockedBurn*lockedPrice;\r\n        }\r\n        if (lockedBurn > 0){\r\n            _subLockBalance(account,lockedBurn,redeemWorth);\r\n            return (lockedBurn,redeemWorth);\r\n        }\r\n        return (0,0);\r\n    }\r\n}\r\n",
  "sourcePath": "C:\\work\\solidity\\FinnexusOptions_V2\\contracts\\FPTCoin\\FPTCoin.sol",
  "compiler": {
    "name": "solc",
    "version": "0.5.16+commit.9c3226ce.Emscripten.clang"
  },
  "schemaVersion": "3.1.0",
  "updatedAt": "2020-09-02T10:11:20.666Z",
  "devdoc": {
    "details": "ERC20 token. Its inside value is collatral pool net worth.  ",
    "methods": {
      "addMinerBalance(address,uint256)": {
        "details": "Interface to manager FNX mine pool contract, add miner balance when user has bought some options. ",
        "params": {
          "account": "user's account.",
          "amount": "user's pay for buying options, priced in USD."
        }
      },
      "addlockBalance(address,uint256,uint256)": {
        "details": "Move user's FPT to locked balance, when user redeem collateral. ",
        "params": {
          "account": "user's account.",
          "amount": "amount of locked FPT.",
          "lockedWorth": "net worth of locked FPT."
        }
      },
      "allowance(address,address)": {
        "details": "See {IERC20-allowance}."
      },
      "approve(address,uint256)": {
        "details": "See {IERC20-approve}.      * Requirements:      * - `spender` cannot be the zero address."
      },
      "balanceOf(address)": {
        "details": "See {IERC20-balanceOf}."
      },
      "burn(address,uint256)": {
        "details": "burn user's FPT when user redeem FPTCoin. ",
        "params": {
          "account": "user's account.",
          "amount": "amount of FPT."
        }
      },
      "decreaseAllowance(address,uint256)": {
        "details": "Atomically decreases the allowance granted to `spender` by the caller.      * This is an alternative to {approve} that can be used as a mitigation for problems described in {IERC20-approve}.      * Emits an {Approval} event indicating the updated allowance.      * Requirements:      * - `spender` cannot be the zero address. - `spender` must have allowance for the caller of at least `subtractedValue`."
      },
      "getLockedBalance(address)": {
        "details": "Retrieve user's locked balance and locked net worth. ",
        "params": {
          "account": "user's account."
        }
      },
      "getManager()": {
        "details": "get manager address.       "
      },
      "getTotalLockedWorth()": {
        "details": "Retrieve total locked worth. "
      },
      "getUserBurnTimeLimite(address)": {
        "details": "Retrieve user's start time for burning. ",
        "params": {
          "user": "user's account."
        }
      },
      "increaseAllowance(address,uint256)": {
        "details": "Atomically increases the allowance granted to `spender` by the caller.      * This is an alternative to {approve} that can be used as a mitigation for problems described in {IERC20-approve}.      * Emits an {Approval} event indicating the updated allowance.      * Requirements:      * - `spender` cannot be the zero address."
      },
      "initialize()": {
        "details": "constructor function. set FNX minePool contract address. "
      },
      "isOwner()": {
        "details": "Returns true if the caller is the current owner."
      },
      "lockedBalanceOf(address)": {
        "details": "Retrieve user's locked balance. ",
        "params": {
          "account": "user's account."
        }
      },
      "lockedWorthOf(address)": {
        "details": "Retrieve user's locked net worth. ",
        "params": {
          "account": "user's account."
        }
      },
      "mint(address,uint256)": {
        "details": "mint user's FPT when user add collateral. ",
        "params": {
          "account": "user's account.",
          "amount": "amount of FPT."
        }
      },
      "owner()": {
        "details": "Returns the address of the current owner."
      },
      "redeemLockedCollateral(address,uint256,uint256)": {
        "details": "An interface of redeem locked FPT, when user redeem collateral, only manager contract can invoke. ",
        "params": {
          "account": "user's account.",
          "leftCollateral": "left available collateral in collateral pool, priced in USD.",
          "tokenAmount": "amount of FPT."
        }
      },
      "renounceOwnership()": {
        "details": "Leaves the contract without owner. It will not be possible to call `onlyOwner` functions anymore. Can only be called by the current owner.      * NOTE: Renouncing ownership will leave the contract without an owner, thereby removing any functionality that is only available to the owner."
      },
      "setBurnTimeLimited(uint256)": {
        "details": "set FPT burn time limited, only owner can invoke. ",
        "params": {
          "_timeLimited": "new burning time limited."
        }
      },
      "setManager(address)": {
        "details": "set manager by owner.       "
      },
      "totalSupply()": {
        "details": "See {IERC20-totalSupply}."
      },
      "transfer(address,uint256)": {
        "details": "Move user's FPT to 'recipient' balance, a interface in ERC20. ",
        "params": {
          "amount": "amount of FPT.",
          "recipient": "recipient's account."
        }
      },
      "transferFrom(address,address,uint256)": {
        "details": "Move sender's FPT to 'recipient' balance, a interface in ERC20. ",
        "params": {
          "amount": "amount of FPT.",
          "recipient": "recipient's account.",
          "sender": "sender's account."
        }
      },
      "transferOwnership(address)": {
        "details": "Transfers ownership of the contract to a new account (`newOwner`). Can only be called by the current owner."
      }
    },
    "title": "FPTCoin is finnexus collateral Pool token, implement ERC20 interface."
  },
  "userdoc": {
    "methods": {}
  }
}