{
  "contractName": "FPTCoin",
  "abi": [
    {
      "constant": true,
      "inputs": [],
      "name": "name",
      "outputs": [
        {
          "name": "",
          "type": "string"
        }
      ],
      "payable": false,
      "stateMutability": "view",
      "type": "function"
    },
    {
      "constant": false,
      "inputs": [
        {
          "name": "spender",
          "type": "address"
        },
        {
          "name": "amount",
          "type": "uint256"
        }
      ],
      "name": "approve",
      "outputs": [
        {
          "name": "",
          "type": "bool"
        }
      ],
      "payable": false,
      "stateMutability": "nonpayable",
      "type": "function"
    },
    {
      "constant": true,
      "inputs": [],
      "name": "totalSupply",
      "outputs": [
        {
          "name": "",
          "type": "uint256"
        }
      ],
      "payable": false,
      "stateMutability": "view",
      "type": "function"
    },
    {
      "constant": true,
      "inputs": [
        {
          "name": "",
          "type": "address"
        }
      ],
      "name": "balances",
      "outputs": [
        {
          "name": "",
          "type": "uint256"
        }
      ],
      "payable": false,
      "stateMutability": "view",
      "type": "function"
    },
    {
      "constant": true,
      "inputs": [],
      "name": "decimals",
      "outputs": [
        {
          "name": "",
          "type": "uint8"
        }
      ],
      "payable": false,
      "stateMutability": "view",
      "type": "function"
    },
    {
      "constant": false,
      "inputs": [
        {
          "name": "spender",
          "type": "address"
        },
        {
          "name": "addedValue",
          "type": "uint256"
        }
      ],
      "name": "increaseAllowance",
      "outputs": [
        {
          "name": "",
          "type": "bool"
        }
      ],
      "payable": false,
      "stateMutability": "nonpayable",
      "type": "function"
    },
    {
      "constant": true,
      "inputs": [],
      "name": "getFNXMinePoolAddress",
      "outputs": [
        {
          "name": "",
          "type": "address"
        }
      ],
      "payable": false,
      "stateMutability": "view",
      "type": "function"
    },
    {
      "constant": false,
      "inputs": [
        {
          "name": "fnxMinePool",
          "type": "address"
        }
      ],
      "name": "setFNXMinePoolAddress",
      "outputs": [],
      "payable": false,
      "stateMutability": "nonpayable",
      "type": "function"
    },
    {
      "constant": true,
      "inputs": [
        {
          "name": "account",
          "type": "address"
        }
      ],
      "name": "balanceOf",
      "outputs": [
        {
          "name": "",
          "type": "uint256"
        }
      ],
      "payable": false,
      "stateMutability": "view",
      "type": "function"
    },
    {
      "constant": false,
      "inputs": [],
      "name": "renounceOwnership",
      "outputs": [],
      "payable": false,
      "stateMutability": "nonpayable",
      "type": "function"
    },
    {
      "constant": true,
      "inputs": [],
      "name": "owner",
      "outputs": [
        {
          "name": "",
          "type": "address"
        }
      ],
      "payable": false,
      "stateMutability": "view",
      "type": "function"
    },
    {
      "constant": true,
      "inputs": [],
      "name": "isOwner",
      "outputs": [
        {
          "name": "",
          "type": "bool"
        }
      ],
      "payable": false,
      "stateMutability": "view",
      "type": "function"
    },
    {
      "constant": true,
      "inputs": [],
      "name": "symbol",
      "outputs": [
        {
          "name": "",
          "type": "string"
        }
      ],
      "payable": false,
      "stateMutability": "view",
      "type": "function"
    },
    {
      "constant": false,
      "inputs": [
        {
          "name": "spender",
          "type": "address"
        },
        {
          "name": "subtractedValue",
          "type": "uint256"
        }
      ],
      "name": "decreaseAllowance",
      "outputs": [
        {
          "name": "",
          "type": "bool"
        }
      ],
      "payable": false,
      "stateMutability": "nonpayable",
      "type": "function"
    },
    {
      "constant": false,
      "inputs": [
        {
          "name": "managerAddress",
          "type": "address"
        }
      ],
      "name": "setManager",
      "outputs": [],
      "payable": false,
      "stateMutability": "nonpayable",
      "type": "function"
    },
    {
      "constant": true,
      "inputs": [],
      "name": "getManager",
      "outputs": [
        {
          "name": "",
          "type": "address"
        }
      ],
      "payable": false,
      "stateMutability": "view",
      "type": "function"
    },
    {
      "constant": true,
      "inputs": [
        {
          "name": "owner",
          "type": "address"
        },
        {
          "name": "spender",
          "type": "address"
        }
      ],
      "name": "allowance",
      "outputs": [
        {
          "name": "",
          "type": "uint256"
        }
      ],
      "payable": false,
      "stateMutability": "view",
      "type": "function"
    },
    {
      "constant": false,
      "inputs": [
        {
          "name": "newOwner",
          "type": "address"
        }
      ],
      "name": "transferOwnership",
      "outputs": [],
      "payable": false,
      "stateMutability": "nonpayable",
      "type": "function"
    },
    {
      "inputs": [
        {
          "name": "minePoolAddr",
          "type": "address"
        }
      ],
      "payable": false,
      "stateMutability": "nonpayable",
      "type": "constructor"
    },
    {
      "anonymous": false,
      "inputs": [
        {
          "indexed": true,
          "name": "owner",
          "type": "address"
        },
        {
          "indexed": false,
          "name": "amount",
          "type": "uint256"
        },
        {
          "indexed": false,
          "name": "worth",
          "type": "uint256"
        }
      ],
      "name": "AddLocked",
      "type": "event"
    },
    {
      "anonymous": false,
      "inputs": [
        {
          "indexed": true,
          "name": "owner",
          "type": "address"
        },
        {
          "indexed": false,
          "name": "amount",
          "type": "uint256"
        },
        {
          "indexed": false,
          "name": "worth",
          "type": "uint256"
        }
      ],
      "name": "BurnLocked",
      "type": "event"
    },
    {
      "anonymous": false,
      "inputs": [
        {
          "indexed": true,
          "name": "previousOwner",
          "type": "address"
        },
        {
          "indexed": true,
          "name": "newOwner",
          "type": "address"
        }
      ],
      "name": "OwnershipTransferred",
      "type": "event"
    },
    {
      "anonymous": false,
      "inputs": [
        {
          "indexed": true,
          "name": "from",
          "type": "address"
        },
        {
          "indexed": true,
          "name": "to",
          "type": "address"
        },
        {
          "indexed": false,
          "name": "value",
          "type": "uint256"
        }
      ],
      "name": "Transfer",
      "type": "event"
    },
    {
      "anonymous": false,
      "inputs": [
        {
          "indexed": true,
          "name": "owner",
          "type": "address"
        },
        {
          "indexed": true,
          "name": "spender",
          "type": "address"
        },
        {
          "indexed": false,
          "name": "value",
          "type": "uint256"
        }
      ],
      "name": "Approval",
      "type": "event"
    },
    {
      "constant": false,
      "inputs": [
        {
          "name": "_timeLimited",
          "type": "uint256"
        }
      ],
      "name": "setBurnTimeLimited",
      "outputs": [],
      "payable": false,
      "stateMutability": "nonpayable",
      "type": "function"
    },
    {
      "constant": true,
      "inputs": [
        {
          "name": "user",
          "type": "address"
        }
      ],
      "name": "getUserBurnTimeLimite",
      "outputs": [
        {
          "name": "",
          "type": "uint256"
        }
      ],
      "payable": false,
      "stateMutability": "view",
      "type": "function"
    },
    {
      "constant": true,
      "inputs": [],
      "name": "getTotalLockedWorth",
      "outputs": [
        {
          "name": "",
          "type": "uint256"
        }
      ],
      "payable": false,
      "stateMutability": "view",
      "type": "function"
    },
    {
      "constant": true,
      "inputs": [
        {
          "name": "account",
          "type": "address"
        }
      ],
      "name": "lockedBalanceOf",
      "outputs": [
        {
          "name": "",
          "type": "uint256"
        }
      ],
      "payable": false,
      "stateMutability": "view",
      "type": "function"
    },
    {
      "constant": true,
      "inputs": [
        {
          "name": "account",
          "type": "address"
        }
      ],
      "name": "lockedWorthOf",
      "outputs": [
        {
          "name": "",
          "type": "uint256"
        }
      ],
      "payable": false,
      "stateMutability": "view",
      "type": "function"
    },
    {
      "constant": true,
      "inputs": [
        {
          "name": "account",
          "type": "address"
        }
      ],
      "name": "getLockedBalance",
      "outputs": [
        {
          "name": "",
          "type": "uint256"
        },
        {
          "name": "",
          "type": "uint256"
        }
      ],
      "payable": false,
      "stateMutability": "view",
      "type": "function"
    },
    {
      "constant": false,
      "inputs": [
        {
          "name": "account",
          "type": "address"
        },
        {
          "name": "amount",
          "type": "uint256"
        }
      ],
      "name": "addMinerBalance",
      "outputs": [],
      "payable": false,
      "stateMutability": "nonpayable",
      "type": "function"
    },
    {
      "constant": false,
      "inputs": [
        {
          "name": "account",
          "type": "address"
        },
        {
          "name": "amount",
          "type": "uint256"
        }
      ],
      "name": "burnLocked",
      "outputs": [],
      "payable": false,
      "stateMutability": "nonpayable",
      "type": "function"
    },
    {
      "constant": false,
      "inputs": [
        {
          "name": "account",
          "type": "address"
        },
        {
          "name": "amount",
          "type": "uint256"
        },
        {
          "name": "lockedWorth",
          "type": "uint256"
        }
      ],
      "name": "addlockBalance",
      "outputs": [],
      "payable": false,
      "stateMutability": "nonpayable",
      "type": "function"
    },
    {
      "constant": false,
      "inputs": [
        {
          "name": "recipient",
          "type": "address"
        },
        {
          "name": "amount",
          "type": "uint256"
        }
      ],
      "name": "transfer",
      "outputs": [
        {
          "name": "",
          "type": "bool"
        }
      ],
      "payable": false,
      "stateMutability": "nonpayable",
      "type": "function"
    },
    {
      "constant": false,
      "inputs": [
        {
          "name": "sender",
          "type": "address"
        },
        {
          "name": "recipient",
          "type": "address"
        },
        {
          "name": "amount",
          "type": "uint256"
        }
      ],
      "name": "transferFrom",
      "outputs": [
        {
          "name": "",
          "type": "bool"
        }
      ],
      "payable": false,
      "stateMutability": "nonpayable",
      "type": "function"
    },
    {
      "constant": false,
      "inputs": [
        {
          "name": "account",
          "type": "address"
        },
        {
          "name": "amount",
          "type": "uint256"
        }
      ],
      "name": "burn",
      "outputs": [],
      "payable": false,
      "stateMutability": "nonpayable",
      "type": "function"
    },
    {
      "constant": false,
      "inputs": [
        {
          "name": "account",
          "type": "address"
        },
        {
          "name": "amount",
          "type": "uint256"
        }
      ],
      "name": "mint",
      "outputs": [],
      "payable": false,
      "stateMutability": "nonpayable",
      "type": "function"
    },
    {
      "constant": false,
      "inputs": [
        {
          "name": "account",
          "type": "address"
        },
        {
          "name": "tokenAmount",
          "type": "uint256"
        },
        {
          "name": "leftColateral",
          "type": "uint256"
        }
      ],
      "name": "redeemLockedCollateral",
      "outputs": [
        {
          "name": "",
          "type": "uint256"
        },
        {
          "name": "",
          "type": "uint256"
        }
      ],
      "payable": false,
      "stateMutability": "nonpayable",
      "type": "function"
    }
  ],
  "bytecode": "0x600060025560c0604052601360808190527f66696e6e6578757320706f6f6c20746f6b656e0000000000000000000000000060a0908152620000459160069190620001d6565b506040805180820190915260038082527f465054000000000000000000000000000000000000000000000000000000000060209092019182526200008c91600791620001d6565b506000600855610e10600c55348015620000a557600080fd5b5060405160208062002447833981016040819052905160038054600160a060020a0319163317908190559091600160a060020a0391909116906000907f8be0079c531659141344cd1fd0a4f28419497f9722a3daafe3b4186f6b6457e0908290a36200011a8164010000000062000121810204565b5062000278565b62000134640100000000620001c4810204565b1515620001a257604080517f08c379a000000000000000000000000000000000000000000000000000000000815260206004820181905260248201527f4f776e61626c653a2063616c6c6572206973206e6f7420746865206f776e6572604482015290519081900360640190fd5b60048054600160a060020a031916600160a060020a0392909216919091179055565b600354600160a060020a031633145b90565b828054600181600116156101000203166002900490600052602060002090601f016020900481019282601f106200021957805160ff191683800117855562000249565b8280016001018555821562000249579182015b82811115620002495782518255916020019190600101906200022c565b50620002579291506200025b565b5090565b620001d391905b8082111562000257576000815560010162000262565b6121bf80620002886000396000f3006080604052600436106101955763ffffffff7c010000000000000000000000000000000000000000000000000000000060003504166306fdde03811461019a57806307e77aa014610224578063095ea7b31461025757806318160ddd1461028f57806323b872dd146102a457806327e235e3146102ce578063313ce567146102ef57806335f0c4fa1461031a578063395093511461035a57806340c10f191461037e5780634b91a07b146103a457806359355736146103cb57806359653ec9146103ec5780636f2b70cd1461041d57806370a082311461043e578063715018a61461045f5780637de29ea8146104745780638399d9f3146104955780638da5cb5b146104b95780638f32d59b146104ce57806395d89b41146104e35780639dc29fac146104f8578063a2684afb1461051c578063a457c2d714610534578063a9059cbb14610558578063c40868931461057c578063c872e8dc1461059d578063d0ebdbe7146105c1578063d5009584146105e2578063dad3eb74146105f7578063dd62ed3e1461060c578063f2fde38b14610633575b600080fd5b3480156101a657600080fd5b506101af610654565b6040805160208082528351818301528351919283929083019185019080838360005b838110156101e95781810151838201526020016101d1565b50505050905090810190601f1680156102165780820380516001836020036101000a031916815260200191505b509250505060405180910390f35b34801561023057600080fd5b50610245600160a060020a03600435166106e2565b60408051918252519081900360200190f35b34801561026357600080fd5b5061027b600160a060020a03600435166024356106fd565b604080519115158252519081900360200190f35b34801561029b57600080fd5b50610245610713565b3480156102b057600080fd5b5061027b600160a060020a0360043581169060243516604435610719565b3480156102da57600080fd5b50610245600160a060020a036004351661082c565b3480156102fb57600080fd5b5061030461083e565b6040805160ff9092168252519081900360200190f35b34801561032657600080fd5b50610341600160a060020a0360043516602435604435610843565b6040805192835260208301919091528051918290030190f35b34801561036657600080fd5b5061027b600160a060020a03600435166024356109a9565b34801561038a57600080fd5b506103a2600160a060020a03600435166024356109ea565b005b3480156103b057600080fd5b506103a2600160a060020a0360043516602435604435610b51565b3480156103d757600080fd5b50610245600160a060020a0360043516610bcf565b3480156103f857600080fd5b50610401610bea565b60408051600160a060020a039092168252519081900360200190f35b34801561042957600080fd5b506103a2600160a060020a0360043516610bf9565b34801561044a57600080fd5b50610245600160a060020a0360043516610c74565b34801561046b57600080fd5b506103a2610c8f565b34801561048057600080fd5b50610245600160a060020a0360043516610d32565b3480156104a157600080fd5b506103a2600160a060020a0360043516602435610d54565b3480156104c557600080fd5b50610401610e46565b3480156104da57600080fd5b5061027b610e55565b3480156104ef57600080fd5b506101af610e66565b34801561050457600080fd5b506103a2600160a060020a0360043516602435610ec1565b34801561052857600080fd5b506103a26004356110a2565b34801561054057600080fd5b5061027b600160a060020a03600435166024356110f3565b34801561056457600080fd5b5061027b600160a060020a036004351660243561118c565b34801561058857600080fd5b50610341600160a060020a0360043516611298565b3480156105a957600080fd5b506103a2600160a060020a03600435166024356112c0565b3480156105cd57600080fd5b506103a2600160a060020a03600435166114bb565b3480156105ee57600080fd5b50610401611536565b34801561060357600080fd5b50610245611545565b34801561061857600080fd5b50610245600160a060020a036004358116906024351661154b565b34801561063f57600080fd5b506103a2600160a060020a0360043516611576565b6006805460408051602060026001851615610100026000190190941693909304601f810184900484028201840190925281815292918301828280156106da5780601f106106af576101008083540402835291602001916106da565b820191906000526020600020905b8154815290600101906020018083116106bd57829003601f168201915b505050505081565b600160a060020a03166000908152600a602052604090205490565b600061070a3384846115ce565b50600192915050565b60025490565b600454600090600160a060020a0316151561076c576040805160e560020a62461bcd0281526020600482015260166024820152600080516020612174833981519152604482015290519081900360640190fd5b60048054604080517fef56807f000000000000000000000000000000000000000000000000000000008152600160a060020a03888116948201949094528684166024820152604481018690529051929091169163ef56807f9160648082019260009290919082900301818387803b1580156107e657600080fd5b505af11580156107fa573d6000803e3d6000fd5b505050600160a060020a0384166000908152600b602052604090204290555061082484848461173b565b949350505050565b60006020819052908152604090205481565b601281565b600554600090819081908190819081908190600160a060020a031633146108b6576040805160e560020a62461bcd02815260206004820152602660248201526000805160206121148339815191526044820152600080516020612134833981519152606482015290519081900360840190fd5b8715156108c9576000965086955061099c565b600160a060020a038a16600090815260096020908152604080832054600a9092529091205490955093508415806108fe575083155b1561090f576000965086955061099c565b6000925060009150848481151561092257fe5b0490508885106109465788915061093f828263ffffffff6117e916565b925061094d565b8491508392505b8783111561097657808881151561096057fe5b049150610973828263ffffffff6117e916565b92505b60008211156109945761098933836112c0565b81839650965061099c565b600096508695505b5050505050935093915050565b336000818152600160209081526040808320600160a060020a0387168452909152812054909161070a9185906109e5908663ffffffff61189316565b6115ce565b600554600160a060020a03163314610a4e576040805160e560020a62461bcd02815260206004820152602660248201526000805160206121148339815191526044820152600080516020612134833981519152606482015290519081900360840190fd5b600454600160a060020a03161515610a9e576040805160e560020a62461bcd0281526020600482015260166024820152600080516020612174833981519152604482015290519081900360640190fd5b60048054604080517f8af2a470000000000000000000000000000000000000000000000000000000008152600160a060020a03868116948201949094526024810185905290519290911691638af2a4709160448082019260009290919082900301818387803b158015610b1057600080fd5b505af1158015610b24573d6000803e3d6000fd5b505050600160a060020a0383166000908152600b6020526040902042905550610b4d82826118f0565b5050565b600554600160a060020a03163314610bb5576040805160e560020a62461bcd02815260206004820152602660248201526000805160206121148339815191526044820152600080516020612134833981519152606482015290519081900360840190fd5b610bbf8383610ec1565b610bca8383836119b5565b505050565b600160a060020a031660009081526009602052604090205490565b600454600160a060020a031690565b610c01610e55565b1515610c45576040805160e560020a62461bcd0281526020600482018190526024820152600080516020612154833981519152604482015290519081900360640190fd5b6004805473ffffffffffffffffffffffffffffffffffffffff1916600160a060020a0392909216919091179055565b600160a060020a031660009081526020819052604090205490565b610c97610e55565b1515610cdb576040805160e560020a62461bcd0281526020600482018190526024820152600080516020612154833981519152604482015290519081900360640190fd5b600354604051600091600160a060020a0316907f8be0079c531659141344cd1fd0a4f28419497f9722a3daafe3b4186f6b6457e0908390a36003805473ffffffffffffffffffffffffffffffffffffffff19169055565b600c54600160a060020a0382166000908152600b602052604090205401919050565b600554600160a060020a03163314610db8576040805160e560020a62461bcd02815260206004820152602660248201526000805160206121148339815191526044820152600080516020612134833981519152606482015290519081900360840190fd5b60048054604080517f8399d9f3000000000000000000000000000000000000000000000000000000008152600160a060020a03868116948201949094526024810185905290519290911691638399d9f39160448082019260009290919082900301818387803b158015610e2a57600080fd5b505af1158015610e3e573d6000803e3d6000fd5b505050505050565b600354600160a060020a031690565b600354600160a060020a0316331490565b6007805460408051602060026001851615610100026000190190941693909304601f810184900484028201840190925281815292918301828280156106da5780601f106106af576101008083540402835291602001916106da565b600554600160a060020a03163314610f25576040805160e560020a62461bcd02815260206004820152602660248201526000805160206121148339815191526044820152600080516020612134833981519152606482015290519081900360840190fd5b600c54600160a060020a0383166000908152600b602052604090205442910110610fbe576040805160e560020a62461bcd028152602060048201526024808201527f46505420636f696e206c6f636b65642074696d65206973206e6f74206578706960448201527f7265642100000000000000000000000000000000000000000000000000000000606482015290519081900360840190fd5b600454600160a060020a0316151561100e576040805160e560020a62461bcd0281526020600482015260166024820152600080516020612174833981519152604482015290519081900360640190fd5b60048054604080517f2a04d0c7000000000000000000000000000000000000000000000000000000008152600160a060020a03868116948201949094526024810185905290519290911691632a04d0c79160448082019260009290919082900301818387803b15801561108057600080fd5b505af1158015611094573d6000803e3d6000fd5b50505050610b4d8282611a8a565b6110aa610e55565b15156110ee576040805160e560020a62461bcd0281526020600482018190526024820152600080516020612154833981519152604482015290519081900360640190fd5b600c55565b60408051606081018252602581527f45524332303a2064656372656173656420616c6c6f77616e63652062656c6f776020808301919091527f207a65726f0000000000000000000000000000000000000000000000000000008284015233600081815260018352848120600160a060020a038816825290925292812054909261070a92909186916109e59190879063ffffffff611b7516565b600454600090600160a060020a031615156111df576040805160e560020a62461bcd0281526020600482015260166024820152600080516020612174833981519152604482015290519081900360640190fd5b60048054604080517fef56807f0000000000000000000000000000000000000000000000000000000081523393810193909352600160a060020a03868116602485015260448401869052905191169163ef56807f91606480830192600092919082900301818387803b15801561125457600080fd5b505af1158015611268573d6000803e3d6000fd5b505050600160a060020a0384166000908152600b60205260409020429055506112918383611c12565b9392505050565b600160a060020a0316600090815260096020908152604080832054600a909252909120549091565b60055460009081908190600160a060020a0316331461132b576040805160e560020a62461bcd02815260206004820152602660248201526000805160206121148339815191526044820152600080516020612134833981519152606482015290519081900360840190fd5b600c54600160a060020a0386166000908152600b6020526040902054429101106113c4576040805160e560020a62461bcd028152602060048201526024808201527f46505420636f696e206c6f636b65642074696d65206973206e6f74206578706960448201527f7265642100000000000000000000000000000000000000000000000000000000606482015290519081900360840190fd5b600160a060020a03851660009081526009602052604090205492508284111561145d576040805160e560020a62461bcd02815260206004820152602360248201527f6275726e4c6f636b65643a2062616c616e636520697320696e7375666669636960448201527f656e740000000000000000000000000000000000000000000000000000000000606482015290519081900360840190fd5b60008311156114b457600160a060020a0385166000908152600a602052604090205491508383141561149957611494858484611c1f565b6114b4565b828285028115156114a657fe5b0490506114b4858583611c1f565b5050505050565b6114c3610e55565b1515611507576040805160e560020a62461bcd0281526020600482018190526024820152600080516020612154833981519152604482015290519081900360640190fd5b6005805473ffffffffffffffffffffffffffffffffffffffff1916600160a060020a0392909216919091179055565b600554600160a060020a031690565b60085490565b600160a060020a03918216600090815260016020908152604080832093909416825291909152205490565b61157e610e55565b15156115c2576040805160e560020a62461bcd0281526020600482018190526024820152600080516020612154833981519152604482015290519081900360640190fd5b6115cb81611cf4565b50565b600160a060020a0383161515611653576040805160e560020a62461bcd028152602060048201526024808201527f45524332303a20617070726f76652066726f6d20746865207a65726f2061646460448201527f7265737300000000000000000000000000000000000000000000000000000000606482015290519081900360840190fd5b600160a060020a03821615156116d9576040805160e560020a62461bcd02815260206004820152602260248201527f45524332303a20617070726f766520746f20746865207a65726f20616464726560448201527f7373000000000000000000000000000000000000000000000000000000000000606482015290519081900360840190fd5b600160a060020a03808416600081815260016020908152604080832094871680845294825291829020859055815185815291517f8c5be1e5ebec7d5bd14f71427d1e84f3dd0314c0f7b2291e5b200ac8c7c3b9259281900390910190a3505050565b6000611748848484611de3565b60408051606081018252602881527f45524332303a207472616e7366657220616d6f756e74206578636565647320616020808301919091527f6c6c6f77616e636500000000000000000000000000000000000000000000000082840152600160a060020a03871660009081526001825283812033808352925292909220546117df92879290916109e591879063ffffffff611b7516565b5060019392505050565b6000808315156117fc576000915061188c565b5082820282848281151561180c57fe5b0414611888576040805160e560020a62461bcd02815260206004820152602160248201527f536166654d6174683a206d756c7469706c69636174696f6e206f766572666c6f60448201527f7700000000000000000000000000000000000000000000000000000000000000606482015290519081900360840190fd5b8091505b5092915050565b600082820183811015611888576040805160e560020a62461bcd02815260206004820152601b60248201527f536166654d6174683a206164646974696f6e206f766572666c6f770000000000604482015290519081900360640190fd5b600160a060020a0382161515611950576040805160e560020a62461bcd02815260206004820152601f60248201527f45524332303a206d696e7420746f20746865207a65726f206164647265737300604482015290519081900360640190fd5b600254611963908263ffffffff61189316565b6002556119708282611f53565b604080518281529051600160a060020a038416916000917fddf252ad1be2c89b69c2b068fc378daa952ba7f163c4a11628f55a4df523b3ef9181900360200190a35050565b600160a060020a0383166000908152600960205260409020546119de908363ffffffff61189316565b600160a060020a038416600090815260096020908152604080832093909355600a90522054611a13908263ffffffff61189316565b600160a060020a0384166000908152600a6020526040902055600854611a3f908263ffffffff61189316565b60085560408051838152602081018390528151600160a060020a038616927f8eb48086ad9abd7f3270b68172da958c7507500a9e0c8a9897a5c85ae7d8c0e9928290030190a2505050565b600160a060020a0382161515611b10576040805160e560020a62461bcd02815260206004820152602160248201527f45524332303a206275726e2066726f6d20746865207a65726f2061646472657360448201527f7300000000000000000000000000000000000000000000000000000000000000606482015290519081900360840190fd5b611b1a8282612022565b600254611b2d908263ffffffff6120d116565b600255604080518281529051600091600160a060020a038516917fddf252ad1be2c89b69c2b068fc378daa952ba7f163c4a11628f55a4df523b3ef9181900360200190a35050565b6000808285851115611c085760405160e560020a62461bcd0281526004018080602001828103825283818151815260200191508051906020019080838360005b83811015611bcd578181015183820152602001611bb5565b50505050905090810190601f168015611bfa5780820380516001836020036101000a031916815260200191505b509250505060405180910390fd5b5050509103919050565b600061070a338484611de3565b600160a060020a038316600090815260096020526040902054611c48908363ffffffff6120d116565b600160a060020a038416600090815260096020908152604080832093909355600a90522054611c7d908263ffffffff6120d116565b600160a060020a0384166000908152600a6020526040902055600854611ca9908263ffffffff6120d116565b60085560408051838152602081018390528151600160a060020a038616927f3eff168ce30c25c5e643633b70f58850a0085c0a411d1b53e501a655a90bae1a928290030190a2505050565b600160a060020a0381161515611d7a576040805160e560020a62461bcd02815260206004820152602660248201527f4f776e61626c653a206e6577206f776e657220697320746865207a65726f206160448201527f6464726573730000000000000000000000000000000000000000000000000000606482015290519081900360840190fd5b600354604051600160a060020a038084169216907f8be0079c531659141344cd1fd0a4f28419497f9722a3daafe3b4186f6b6457e090600090a36003805473ffffffffffffffffffffffffffffffffffffffff1916600160a060020a0392909216919091179055565b600160a060020a0383161515611e69576040805160e560020a62461bcd02815260206004820152602560248201527f45524332303a207472616e736665722066726f6d20746865207a65726f20616460448201527f6472657373000000000000000000000000000000000000000000000000000000606482015290519081900360840190fd5b600160a060020a0382161515611eef576040805160e560020a62461bcd02815260206004820152602360248201527f45524332303a207472616e7366657220746f20746865207a65726f206164647260448201527f6573730000000000000000000000000000000000000000000000000000000000606482015290519081900360840190fd5b611ef98382612022565b611f038282611f53565b81600160a060020a031683600160a060020a03167fddf252ad1be2c89b69c2b068fc378daa952ba7f163c4a11628f55a4df523b3ef836040518082815260200191505060405180910390a3505050565b600160a060020a0382161515611fd9576040805160e560020a62461bcd02815260206004820152602360248201527f45524332303a207472616e7366657220746f20746865207a65726f206164647260448201527f6573730000000000000000000000000000000000000000000000000000000000606482015290519081900360840190fd5b600160a060020a038216600090815260208190526040902054612002908263ffffffff61189316565b600160a060020a0390921660009081526020819052604090209190915550565b600160a060020a03821615156120a8576040805160e560020a62461bcd02815260206004820152602360248201527f45524332303a207472616e7366657220746f20746865207a65726f206164647260448201527f6573730000000000000000000000000000000000000000000000000000000000606482015290519081900360840190fd5b600160a060020a038216600090815260208190526040902054612002908263ffffffff6120d116565b600061129183836040805190810160405280601e81526020017f536166654d6174683a207375627472616374696f6e206f766572666c6f770000815250611b7556004d616e6167657261626c653a2063616c6c6572206973206e6f7420746865204d616e6167657200000000000000000000000000000000000000000000000000004f776e61626c653a2063616c6c6572206973206e6f7420746865206f776e6572466e784d696e65506f6f6c206973206e6f742073657400000000000000000000a165627a7a7230582056bdb55fcd48ddd93a86b2ad92ee0ec46848a0835efa2ef854eda9f92fb2b0500029",
  "source": "pragma solidity ^0.4.26;\r\nimport \"./SharedCoin.sol\";\r\nimport \"./modules/SafeMath.sol\";\r\nimport \"./modules/Managerable.sol\";\r\nimport \"./interfaces/IFNXMinePool.sol\";\r\ncontract FPTCoin is SharedCoin,ImportFNXMinePool,Managerable {\r\n    using SafeMath for uint256;\r\n    string public name = \"finnexus pool token\";\r\n    string public symbol = \"FPT\";\r\n    \r\n    uint256 internal _totalLockedWorth = 0;\r\n    mapping (address => uint256) internal lockedBalances;\r\n    mapping (address => uint256) internal lockedTotalWorth;\r\n\r\n    event AddLocked(address indexed owner, uint256 amount,uint256 worth);\r\n    event BurnLocked(address indexed owner, uint256 amount,uint256 worth);\r\n    mapping(address=>uint256) private latestTransferIn;\r\n    uint256 private timeLimited = 1 hours;\r\n \r\n    constructor (address minePoolAddr) public{\r\n        setFNXMinePoolAddress(minePoolAddr);\r\n    }\r\n    function setBurnTimeLimited(uint256 _timeLimited) public onlyOwner {\r\n        timeLimited = _timeLimited;\r\n    }\r\n    function getUserBurnTimeLimite(address user) public view returns (uint256){\r\n        return latestTransferIn[user]+timeLimited;\r\n    }\r\n    function getTotalLockedWorth() public view returns (uint256) {\r\n        return _totalLockedWorth;\r\n    }\r\n    function lockedBalanceOf(address account) public view returns (uint256) {\r\n        return lockedBalances[account];\r\n    }\r\n    function lockedWorthOf(address account) public view returns (uint256) {\r\n        return lockedTotalWorth[account];\r\n    }\r\n    function getLockedBalance(address account) public view returns (uint256,uint256) {\r\n        return (lockedBalances[account],lockedTotalWorth[account]);\r\n    }\r\n    function addMinerBalance(address account,uint256 amount) public onlyManager{\r\n        _FnxMinePool.addMinerBalance(account,amount);\r\n    }\r\n    function burnLocked(address account, uint256 amount) public onlyManager{\r\n        require(latestTransferIn[account]+timeLimited<now,\"FPT coin locked time is not expired!\");\r\n        uint256 lockedAmount = lockedBalances[account];\r\n        require(amount<=lockedAmount,\"burnLocked: balance is insufficient\");\r\n        if(lockedAmount>0){\r\n            uint256 lockedWorth = lockedTotalWorth[account];\r\n            if (amount == lockedAmount){\r\n                _subLockBalance(account,lockedAmount,lockedWorth);\r\n            }else{\r\n                uint256 burnWorth = amount*lockedWorth/lockedAmount;\r\n                _subLockBalance(account,amount,burnWorth);\r\n            }\r\n        }\r\n    }\r\n    function addlockBalance(address account, uint256 amount,uint256 lockedWorth)public onlyManager {\r\n        burn(account,amount);\r\n        _addLockBalance(account,amount,lockedWorth);\r\n    }\r\n    function transfer(address recipient, uint256 amount)public returns (bool){\r\n        require(address(_FnxMinePool) != address(0),\"FnxMinePool is not set\");\r\n        _FnxMinePool.transferMinerCoin(msg.sender,recipient,amount);\r\n        latestTransferIn[recipient] = now;\r\n        return SharedCoin.transfer(recipient,amount);\r\n    }\r\n    function transferFrom(address sender, address recipient, uint256 amount)public returns (bool){\r\n        require(address(_FnxMinePool) != address(0),\"FnxMinePool is not set\");\r\n        _FnxMinePool.transferMinerCoin(sender,recipient,amount);\r\n        latestTransferIn[recipient] = now;\r\n        return SharedCoin.transferFrom(sender,recipient,amount);\r\n    }\r\n    function burn(address account, uint256 amount) public onlyManager {\r\n        require(latestTransferIn[account]+timeLimited<now,\"FPT coin locked time is not expired!\");\r\n        require(address(_FnxMinePool) != address(0),\"FnxMinePool is not set\");\r\n        _FnxMinePool.burnMinerCoin(account,amount);\r\n        SharedCoin._burn(account,amount);\r\n    }\r\n    function mint(address account, uint256 amount) public onlyManager {\r\n        require(address(_FnxMinePool) != address(0),\"FnxMinePool is not set\");\r\n        _FnxMinePool.mintMinerCoin(account,amount);\r\n        latestTransferIn[account] = now;\r\n        SharedCoin._mint(account,amount);\r\n    }\r\n    function _addLockBalance(address account, uint256 amount,uint256 lockedWorth)internal {\r\n        lockedBalances[account]= lockedBalances[account].add(amount);\r\n        lockedTotalWorth[account]= lockedTotalWorth[account].add(lockedWorth);\r\n        _totalLockedWorth = _totalLockedWorth.add(lockedWorth);\r\n        emit AddLocked(account, amount,lockedWorth);\r\n    }\r\n    function _subLockBalance(address account,uint256 amount,uint256 lockedWorth)internal {\r\n        lockedBalances[account]= lockedBalances[account].sub(amount);\r\n        lockedTotalWorth[account]= lockedTotalWorth[account].sub(lockedWorth);\r\n        _totalLockedWorth = _totalLockedWorth.sub(lockedWorth);\r\n        emit BurnLocked(account, amount,lockedWorth);\r\n    }\r\n    function redeemLockedCollateral(address account,uint256 tokenAmount,uint256 leftColateral)public onlyManager returns (uint256,uint256){\r\n        if (leftColateral == 0){\r\n            return(0,0);\r\n        }\r\n        uint256 lockedAmount = lockedBalances[account];\r\n        uint256 lockedWorth = lockedTotalWorth[account];\r\n        if (lockedAmount == 0 || lockedWorth == 0){\r\n            return (0,0);\r\n        }\r\n        uint256 redeemWorth = 0;\r\n        uint256 lockedBurn = 0;\r\n        uint256 lockedPrice = lockedWorth/lockedAmount;\r\n        if (lockedAmount >= tokenAmount){\r\n            lockedBurn = tokenAmount;\r\n            redeemWorth = tokenAmount.mul(lockedPrice);\r\n        }else{\r\n            lockedBurn = lockedAmount;\r\n            redeemWorth = lockedWorth;\r\n        }\r\n        if (redeemWorth > leftColateral) {\r\n            lockedBurn = leftColateral/lockedPrice;\r\n            redeemWorth = lockedBurn.mul(lockedPrice);\r\n        }\r\n        if (lockedBurn > 0){\r\n            burnLocked(msg.sender,lockedBurn);\r\n            return (lockedBurn,redeemWorth);\r\n        }\r\n        return (0,0);\r\n    }\r\n}\r\n",
  "sourcePath": "C:\\work\\solidity\\FinnexusOptions_V2\\contracts\\FPTCoin.sol",
  "compiler": {
    "name": "solc",
    "version": "0.4.26+commit.4563c3fc.Emscripten.clang"
  },
  "schemaVersion": "3.1.0",
  "updatedAt": "2020-08-07T00:13:37.448Z",
  "devdoc": {
    "methods": {
      "allowance(address,address)": {
        "details": "See {IERC20-allowance}.\r"
      },
      "approve(address,uint256)": {
        "details": "See {IERC20-approve}.\r      * Requirements:\r      * - `spender` cannot be the zero address.\r"
      },
      "balanceOf(address)": {
        "details": "See {IERC20-balanceOf}.\r"
      },
      "decreaseAllowance(address,uint256)": {
        "details": "Atomically decreases the allowance granted to `spender` by the caller.\r      * This is an alternative to {approve} that can be used as a mitigation for\r problems described in {IERC20-approve}.\r      * Emits an {Approval} event indicating the updated allowance.\r      * Requirements:\r      * - `spender` cannot be the zero address.\r - `spender` must have allowance for the caller of at least\r `subtractedValue`.\r"
      },
      "increaseAllowance(address,uint256)": {
        "details": "Atomically increases the allowance granted to `spender` by the caller.\r      * This is an alternative to {approve} that can be used as a mitigation for\r problems described in {IERC20-approve}.\r      * Emits an {Approval} event indicating the updated allowance.\r      * Requirements:\r      * - `spender` cannot be the zero address.\r"
      },
      "isOwner()": {
        "details": "Returns true if the caller is the current owner."
      },
      "owner()": {
        "details": "Returns the address of the current owner."
      },
      "renounceOwnership()": {
        "details": "Leaves the contract without owner. It will not be possible to call `onlyOwner` functions anymore. Can only be called by the current owner.     * NOTE: Renouncing ownership will leave the contract without an owner, thereby removing any functionality that is only available to the owner."
      },
      "totalSupply()": {
        "details": "See {IERC20-totalSupply}.\r"
      },
      "transferOwnership(address)": {
        "details": "Transfers ownership of the contract to a new account (`newOwner`). Can only be called by the current owner."
      }
    }
  },
  "userdoc": {
    "methods": {
      "setManager(address)": {
        "notice": "contribution period to stop or not."
      }
    }
  }
}