{
  "contractName": "FPTCoin",
  "abi": [
    {
      "inputs": [
        {
          "internalType": "address",
          "name": "minePoolAddr",
          "type": "address"
        }
      ],
      "payable": false,
      "stateMutability": "nonpayable",
      "type": "constructor"
    },
    {
      "anonymous": false,
      "inputs": [
        {
          "indexed": true,
          "internalType": "address",
          "name": "owner",
          "type": "address"
        },
        {
          "indexed": false,
          "internalType": "uint256",
          "name": "amount",
          "type": "uint256"
        },
        {
          "indexed": false,
          "internalType": "uint256",
          "name": "worth",
          "type": "uint256"
        }
      ],
      "name": "AddLocked",
      "type": "event"
    },
    {
      "anonymous": false,
      "inputs": [
        {
          "indexed": true,
          "internalType": "address",
          "name": "owner",
          "type": "address"
        },
        {
          "indexed": true,
          "internalType": "address",
          "name": "spender",
          "type": "address"
        },
        {
          "indexed": false,
          "internalType": "uint256",
          "name": "value",
          "type": "uint256"
        }
      ],
      "name": "Approval",
      "type": "event"
    },
    {
      "anonymous": false,
      "inputs": [
        {
          "indexed": true,
          "internalType": "address",
          "name": "owner",
          "type": "address"
        },
        {
          "indexed": false,
          "internalType": "uint256",
          "name": "amount",
          "type": "uint256"
        },
        {
          "indexed": false,
          "internalType": "uint256",
          "name": "worth",
          "type": "uint256"
        }
      ],
      "name": "BurnLocked",
      "type": "event"
    },
    {
      "anonymous": false,
      "inputs": [
        {
          "indexed": true,
          "internalType": "address",
          "name": "previousOwner",
          "type": "address"
        },
        {
          "indexed": true,
          "internalType": "address",
          "name": "newOwner",
          "type": "address"
        }
      ],
      "name": "OwnershipTransferred",
      "type": "event"
    },
    {
      "anonymous": false,
      "inputs": [
        {
          "indexed": true,
          "internalType": "address",
          "name": "from",
          "type": "address"
        },
        {
          "indexed": true,
          "internalType": "address",
          "name": "to",
          "type": "address"
        },
        {
          "indexed": false,
          "internalType": "uint256",
          "name": "value",
          "type": "uint256"
        }
      ],
      "name": "Transfer",
      "type": "event"
    },
    {
      "constant": true,
      "inputs": [
        {
          "internalType": "address",
          "name": "owner",
          "type": "address"
        },
        {
          "internalType": "address",
          "name": "spender",
          "type": "address"
        }
      ],
      "name": "allowance",
      "outputs": [
        {
          "internalType": "uint256",
          "name": "",
          "type": "uint256"
        }
      ],
      "payable": false,
      "stateMutability": "view",
      "type": "function"
    },
    {
      "constant": false,
      "inputs": [
        {
          "internalType": "address",
          "name": "spender",
          "type": "address"
        },
        {
          "internalType": "uint256",
          "name": "amount",
          "type": "uint256"
        }
      ],
      "name": "approve",
      "outputs": [
        {
          "internalType": "bool",
          "name": "",
          "type": "bool"
        }
      ],
      "payable": false,
      "stateMutability": "nonpayable",
      "type": "function"
    },
    {
      "constant": true,
      "inputs": [
        {
          "internalType": "address",
          "name": "account",
          "type": "address"
        }
      ],
      "name": "balanceOf",
      "outputs": [
        {
          "internalType": "uint256",
          "name": "",
          "type": "uint256"
        }
      ],
      "payable": false,
      "stateMutability": "view",
      "type": "function"
    },
    {
      "constant": true,
      "inputs": [],
      "name": "decimals",
      "outputs": [
        {
          "internalType": "uint8",
          "name": "",
          "type": "uint8"
        }
      ],
      "payable": false,
      "stateMutability": "view",
      "type": "function"
    },
    {
      "constant": false,
      "inputs": [
        {
          "internalType": "address",
          "name": "spender",
          "type": "address"
        },
        {
          "internalType": "uint256",
          "name": "subtractedValue",
          "type": "uint256"
        }
      ],
      "name": "decreaseAllowance",
      "outputs": [
        {
          "internalType": "bool",
          "name": "",
          "type": "bool"
        }
      ],
      "payable": false,
      "stateMutability": "nonpayable",
      "type": "function"
    },
    {
      "constant": true,
      "inputs": [],
      "name": "getFNXMinePoolAddress",
      "outputs": [
        {
          "internalType": "address",
          "name": "",
          "type": "address"
        }
      ],
      "payable": false,
      "stateMutability": "view",
      "type": "function"
    },
    {
      "constant": true,
      "inputs": [
        {
          "internalType": "uint256",
          "name": "item",
          "type": "uint256"
        }
      ],
      "name": "getItemTimeLimitation",
      "outputs": [
        {
          "internalType": "uint256",
          "name": "",
          "type": "uint256"
        }
      ],
      "payable": false,
      "stateMutability": "view",
      "type": "function"
    },
    {
      "constant": true,
      "inputs": [],
      "name": "getManager",
      "outputs": [
        {
          "internalType": "address",
          "name": "",
          "type": "address"
        }
      ],
      "payable": false,
      "stateMutability": "view",
      "type": "function"
    },
    {
      "constant": true,
      "inputs": [],
      "name": "getTimeLimitation",
      "outputs": [
        {
          "internalType": "uint256",
          "name": "",
          "type": "uint256"
        }
      ],
      "payable": false,
      "stateMutability": "view",
      "type": "function"
    },
    {
      "constant": false,
      "inputs": [
        {
          "internalType": "address",
          "name": "spender",
          "type": "address"
        },
        {
          "internalType": "uint256",
          "name": "addedValue",
          "type": "uint256"
        }
      ],
      "name": "increaseAllowance",
      "outputs": [
        {
          "internalType": "bool",
          "name": "",
          "type": "bool"
        }
      ],
      "payable": false,
      "stateMutability": "nonpayable",
      "type": "function"
    },
    {
      "constant": true,
      "inputs": [],
      "name": "isOwner",
      "outputs": [
        {
          "internalType": "bool",
          "name": "",
          "type": "bool"
        }
      ],
      "payable": false,
      "stateMutability": "view",
      "type": "function"
    },
    {
      "constant": true,
      "inputs": [],
      "name": "name",
      "outputs": [
        {
          "internalType": "string",
          "name": "",
          "type": "string"
        }
      ],
      "payable": false,
      "stateMutability": "view",
      "type": "function"
    },
    {
      "constant": true,
      "inputs": [],
      "name": "owner",
      "outputs": [
        {
          "internalType": "address",
          "name": "",
          "type": "address"
        }
      ],
      "payable": false,
      "stateMutability": "view",
      "type": "function"
    },
    {
      "constant": false,
      "inputs": [],
      "name": "renounceOwnership",
      "outputs": [],
      "payable": false,
      "stateMutability": "nonpayable",
      "type": "function"
    },
    {
      "constant": false,
      "inputs": [
        {
          "internalType": "address",
          "name": "fnxMinePool",
          "type": "address"
        }
      ],
      "name": "setFNXMinePoolAddress",
      "outputs": [],
      "payable": false,
      "stateMutability": "nonpayable",
      "type": "function"
    },
    {
      "constant": false,
      "inputs": [
        {
          "internalType": "address",
          "name": "managerAddress",
          "type": "address"
        }
      ],
      "name": "setManager",
      "outputs": [],
      "payable": false,
      "stateMutability": "nonpayable",
      "type": "function"
    },
    {
      "constant": false,
      "inputs": [
        {
          "internalType": "uint256",
          "name": "_limitation",
          "type": "uint256"
        }
      ],
      "name": "setTimeLimitation",
      "outputs": [],
      "payable": false,
      "stateMutability": "nonpayable",
      "type": "function"
    },
    {
      "constant": true,
      "inputs": [],
      "name": "symbol",
      "outputs": [
        {
          "internalType": "string",
          "name": "",
          "type": "string"
        }
      ],
      "payable": false,
      "stateMutability": "view",
      "type": "function"
    },
    {
      "constant": true,
      "inputs": [],
      "name": "totalSupply",
      "outputs": [
        {
          "internalType": "uint256",
          "name": "",
          "type": "uint256"
        }
      ],
      "payable": false,
      "stateMutability": "view",
      "type": "function"
    },
    {
      "constant": false,
      "inputs": [
        {
          "internalType": "address",
          "name": "newOwner",
          "type": "address"
        }
      ],
      "name": "transferOwnership",
      "outputs": [],
      "payable": false,
      "stateMutability": "nonpayable",
      "type": "function"
    },
    {
      "constant": false,
      "inputs": [],
      "name": "initialize",
      "outputs": [],
      "payable": false,
      "stateMutability": "nonpayable",
      "type": "function"
    },
    {
      "constant": true,
      "inputs": [
        {
          "internalType": "address",
          "name": "user",
          "type": "address"
        }
      ],
      "name": "getUserBurnTimeLimite",
      "outputs": [
        {
          "internalType": "uint256",
          "name": "",
          "type": "uint256"
        }
      ],
      "payable": false,
      "stateMutability": "view",
      "type": "function"
    },
    {
      "constant": true,
      "inputs": [],
      "name": "getTotalLockedWorth",
      "outputs": [
        {
          "internalType": "uint256",
          "name": "",
          "type": "uint256"
        }
      ],
      "payable": false,
      "stateMutability": "view",
      "type": "function"
    },
    {
      "constant": true,
      "inputs": [
        {
          "internalType": "address",
          "name": "account",
          "type": "address"
        }
      ],
      "name": "lockedBalanceOf",
      "outputs": [
        {
          "internalType": "uint256",
          "name": "",
          "type": "uint256"
        }
      ],
      "payable": false,
      "stateMutability": "view",
      "type": "function"
    },
    {
      "constant": true,
      "inputs": [
        {
          "internalType": "address",
          "name": "account",
          "type": "address"
        }
      ],
      "name": "lockedWorthOf",
      "outputs": [
        {
          "internalType": "uint256",
          "name": "",
          "type": "uint256"
        }
      ],
      "payable": false,
      "stateMutability": "view",
      "type": "function"
    },
    {
      "constant": true,
      "inputs": [
        {
          "internalType": "address",
          "name": "account",
          "type": "address"
        }
      ],
      "name": "getLockedBalance",
      "outputs": [
        {
          "internalType": "uint256",
          "name": "",
          "type": "uint256"
        },
        {
          "internalType": "uint256",
          "name": "",
          "type": "uint256"
        }
      ],
      "payable": false,
      "stateMutability": "view",
      "type": "function"
    },
    {
      "constant": false,
      "inputs": [
        {
          "internalType": "address",
          "name": "account",
          "type": "address"
        },
        {
          "internalType": "uint256",
          "name": "amount",
          "type": "uint256"
        }
      ],
      "name": "addMinerBalance",
      "outputs": [],
      "payable": false,
      "stateMutability": "nonpayable",
      "type": "function"
    },
    {
      "constant": false,
      "inputs": [
        {
          "internalType": "address",
          "name": "account",
          "type": "address"
        },
        {
          "internalType": "uint256",
          "name": "amount",
          "type": "uint256"
        },
        {
          "internalType": "uint256",
          "name": "lockedWorth",
          "type": "uint256"
        }
      ],
      "name": "addlockBalance",
      "outputs": [],
      "payable": false,
      "stateMutability": "nonpayable",
      "type": "function"
    },
    {
      "constant": false,
      "inputs": [
        {
          "internalType": "address",
          "name": "recipient",
          "type": "address"
        },
        {
          "internalType": "uint256",
          "name": "amount",
          "type": "uint256"
        }
      ],
      "name": "transfer",
      "outputs": [
        {
          "internalType": "bool",
          "name": "",
          "type": "bool"
        }
      ],
      "payable": false,
      "stateMutability": "nonpayable",
      "type": "function"
    },
    {
      "constant": false,
      "inputs": [
        {
          "internalType": "address",
          "name": "sender",
          "type": "address"
        },
        {
          "internalType": "address",
          "name": "recipient",
          "type": "address"
        },
        {
          "internalType": "uint256",
          "name": "amount",
          "type": "uint256"
        }
      ],
      "name": "transferFrom",
      "outputs": [
        {
          "internalType": "bool",
          "name": "",
          "type": "bool"
        }
      ],
      "payable": false,
      "stateMutability": "nonpayable",
      "type": "function"
    },
    {
      "constant": false,
      "inputs": [
        {
          "internalType": "address",
          "name": "account",
          "type": "address"
        },
        {
          "internalType": "uint256",
          "name": "amount",
          "type": "uint256"
        }
      ],
      "name": "burn",
      "outputs": [],
      "payable": false,
      "stateMutability": "nonpayable",
      "type": "function"
    },
    {
      "constant": false,
      "inputs": [
        {
          "internalType": "address",
          "name": "account",
          "type": "address"
        },
        {
          "internalType": "uint256",
          "name": "amount",
          "type": "uint256"
        }
      ],
      "name": "mint",
      "outputs": [],
      "payable": false,
      "stateMutability": "nonpayable",
      "type": "function"
    },
    {
      "constant": false,
      "inputs": [
        {
          "internalType": "address",
          "name": "account",
          "type": "address"
        },
        {
          "internalType": "uint256",
          "name": "tokenAmount",
          "type": "uint256"
        },
        {
          "internalType": "uint256",
          "name": "leftCollateral",
          "type": "uint256"
        }
      ],
      "name": "redeemLockedCollateral",
      "outputs": [
        {
          "internalType": "uint256",
          "name": "",
          "type": "uint256"
        },
        {
          "internalType": "uint256",
          "name": "",
          "type": "uint256"
        }
      ],
      "payable": false,
      "stateMutability": "nonpayable",
      "type": "function"
    }
  ],
  "bytecode": "0x6080604052610e106009553480156200001757600080fd5b506040516200219738038062002197833981810160405260208110156200003d57600080fd5b505160008054600160a060020a0319163317808255604051600160a060020a039190911691907f8be0079c531659141344cd1fd0a4f28419497f9722a3daafe3b4186f6b6457e0908290a36200009b640100000000620000c1810204565b60068054600160a060020a031916600160a060020a039290921691909117905562000300565b620000d464010000000062000149810204565b6200012f57604080517f08c379a0000000000000000000000000000000000000000000000000000000008152602060048201819052602482015260008051602062002177833981519152604482015290519081900360640190fd5b62000147640100000000620017c96200015b82021704565b565b600054600160a060020a031633145b90565b6200016e64010000000062000149810204565b620001c957604080517f08c379a0000000000000000000000000000000000000000000000000000000008152602060048201819052602482015260008051602062002177833981519152604482015290519081900360640190fd5b6040805180820190915260138082527f66696e6e6578757320706f6f6c20746f6b656e0000000000000000000000000060209092019182526200020f916001916200025e565b506040805180820190915260038082527f4650540000000000000000000000000000000000000000000000000000000000602090920191825262000256916002916200025e565b506000600555565b828054600181600116156101000203166002900490600052602060002090601f016020900481019282601f10620002a157805160ff1916838001178555620002d1565b82800160010185558215620002d1579182015b82811115620002d1578251825591602001919060010190620002b4565b50620002df929150620002e3565b5090565b6200015891905b80821115620002df5760008155600101620002ea565b611e6780620003106000396000f3fe608060405234801561001057600080fd5b5060043610610218576000357c010000000000000000000000000000000000000000000000000000000090048063715018a6116101375780639dc29fac116100ca578063d0ebdbe711610099578063d0ebdbe714610641578063d500958414610667578063dad3eb741461066f578063dd62ed3e14610677578063f2fde38b146106a557610218565b80639dc29fac14610597578063a457c2d7146105c3578063a9059cbb146105ef578063c40868931461061b57610218565b80638da5cb5b116101065780638da5cb5b146105625780638f32d59b1461056a57806395d89b41146105725780639783cbd91461057a57610218565b8063715018a6146105005780637de29ea8146105085780638129fc1c1461052e5780638399d9f31461053657610218565b806339509351116101af578063593557361161017e578063593557361461046a57806359653ec9146104905780636f2b70cd146104b457806370a08231146104da57610218565b806339509351146103d657806340c10f19146104025780634688d5d6146104305780634b91a07b1461043857610218565b806323b872dd116101eb57806323b872dd1461031a5780632a75ee4214610350578063313ce5671461036d57806335f0c4fa1461038b57610218565b806306fdde031461021d57806307e77aa01461029a578063095ea7b3146102d257806318160ddd14610312575b600080fd5b6102256106cb565b6040805160208082528351818301528351919283929083019185019080838360005b8381101561025f578181015183820152602001610247565b50505050905090810190601f16801561028c5780820380516001836020036101000a031916815260200191505b509250505060405180910390f35b6102c0600480360360208110156102b057600080fd5b5035600160a060020a0316610758565b60408051918252519081900360200190f35b6102fe600480360360408110156102e857600080fd5b50600160a060020a038135169060200135610773565b604080519115158252519081900360200190f35b6102c061078a565b6102fe6004803603606081101561033057600080fd5b50600160a060020a03813581169160208101359091169060400135610791565b6102c06004803603602081101561036657600080fd5b5035610895565b6103756108ac565b6040805160ff9092168252519081900360200190f35b6103bd600480360360608110156103a157600080fd5b50600160a060020a0381351690602081013590604001356108b1565b6040805192835260208301919091528051918290030190f35b6102fe600480360360408110156103ec57600080fd5b50600160a060020a038135169060200135610a46565b61042e6004803603604081101561041857600080fd5b50600160a060020a038135169060200135610a87565b005b6102c0610bc7565b61042e6004803603606081101561044e57600080fd5b50600160a060020a038135169060208101359060400135610bcd565b6102c06004803603602081101561048057600080fd5b5035600160a060020a0316610c33565b610498610c4e565b60408051600160a060020a039092168252519081900360200190f35b61042e600480360360208110156104ca57600080fd5b5035600160a060020a0316610c5d565b6102c0600480360360208110156104f057600080fd5b5035600160a060020a0316610cd6565b61042e610cf1565b6102c06004803603602081101561051e57600080fd5b5035600160a060020a0316610d92565b61042e610da6565b61042e6004803603604081101561054c57600080fd5b50600160a060020a038135169060200135610dfa565b610498610ed0565b6102fe610edf565b610225610ef0565b61042e6004803603602081101561059057600080fd5b5035610f48565b61042e600480360360408110156105ad57600080fd5b50600160a060020a038135169060200135610f97565b6102fe600480360360408110156105d957600080fd5b50600160a060020a038135169060200135611137565b6102fe6004803603604081101561060557600080fd5b50600160a060020a038135169060200135611173565b6103bd6004803603602081101561063157600080fd5b5035600160a060020a0316611273565b61042e6004803603602081101561065757600080fd5b5035600160a060020a031661129b565b610498611314565b6102c0611323565b6102c06004803603604081101561068d57600080fd5b50600160a060020a0381358116916020013516611329565b61042e600480360360208110156106bb57600080fd5b5035600160a060020a0316611354565b60018054604080516020600284861615610100026000190190941693909304601f810184900484028201840190925281815292918301828280156107505780601f1061072557610100808354040283529160200191610750565b820191906000526020600020905b81548152906001019060200180831161073357829003601f168201915b505050505081565b600160a060020a03166000908152600c602052604090205490565b60006107803384846113aa565b5060015b92915050565b6005545b90565b600654600090600160a060020a03166107e2576040805160e560020a62461bcd0281526020600482015260166024820152600080516020611da9833981519152604482015290519081900360640190fd5b600654604080517fef56807f000000000000000000000000000000000000000000000000000000008152600160a060020a0387811660048301528681166024830152604482018690529151919092169163ef56807f91606480830192600092919082900301818387803b15801561085857600080fd5b505af115801561086c573d6000803e3d6000fd5b5050505061088283600160a060020a031661149c565b61088d8484846114af565b949350505050565b600954600091825260086020526040909120540190565b601281565b6007546000908190600160a060020a031633146109025760405160e560020a62461bcd028152600401808060200182810382526026815260200180611d1b6026913960400191505060405180910390fd5b600954600160a060020a038616600081815260086020526040902054909142910110610978576040805160e560020a62461bcd02815260206004820152601f60248201527f54696d65206c696d69746174696f6e206973206e6f7420657870697265642100604482015290519081900360640190fd5b836109895760009250829150610a3d565b600160a060020a0386166000908152600b6020908152604080832054600c909252909120548115806109b9575080155b156109cd575060009350839250610a3d9050565b600080808484816109da57fe5b0490508985106109f157899150808a0292506109f8565b8491508392505b88831115610a1257808981610a0957fe5b04915080820292505b8115610a3057610a238b8385611501565b5095509350610a3d915050565b5060009650869550505050505b50935093915050565b336000818152600460209081526040808320600160a060020a03871684529091528120549091610780918590610a82908663ffffffff6115d616565b6113aa565b600754600160a060020a03163314610ad35760405160e560020a62461bcd028152600401808060200182810382526026815260200180611d1b6026913960400191505060405180910390fd5b600654600160a060020a0316610b21576040805160e560020a62461bcd0281526020600482015260166024820152600080516020611da9833981519152604482015290519081900360640190fd5b600654604080517f8af2a470000000000000000000000000000000000000000000000000000000008152600160a060020a0385811660048301526024820185905291519190921691638af2a47091604480830192600092919082900301818387803b158015610b8f57600080fd5b505af1158015610ba3573d6000803e3d6000fd5b50505050610bb982600160a060020a031661149c565b610bc38282611631565b5050565b60095490565b600754600160a060020a03163314610c195760405160e560020a62461bcd028152600401808060200182810382526026815260200180611d1b6026913960400191505060405180910390fd5b610c238383610f97565b610c2e8383836116f4565b505050565b600160a060020a03166000908152600b602052604090205490565b600654600160a060020a031690565b610c65610edf565b610ca7576040805160e560020a62461bcd0281526020600482018190526024820152600080516020611d89833981519152604482015290519081900360640190fd5b6006805473ffffffffffffffffffffffffffffffffffffffff1916600160a060020a0392909216919091179055565b600160a060020a031660009081526003602052604090205490565b610cf9610edf565b610d3b576040805160e560020a62461bcd0281526020600482018190526024820152600080516020611d89833981519152604482015290519081900360640190fd5b60008054604051600160a060020a03909116907f8be0079c531659141344cd1fd0a4f28419497f9722a3daafe3b4186f6b6457e0908390a36000805473ffffffffffffffffffffffffffffffffffffffff19169055565b600061078482600160a060020a0316610895565b610dae610edf565b610df0576040805160e560020a62461bcd0281526020600482018190526024820152600080516020611d89833981519152604482015290519081900360640190fd5b610df86117c9565b565b600754600160a060020a03163314610e465760405160e560020a62461bcd028152600401808060200182810382526026815260200180611d1b6026913960400191505060405180910390fd5b600654604080517f8399d9f3000000000000000000000000000000000000000000000000000000008152600160a060020a0385811660048301526024820185905291519190921691638399d9f391604480830192600092919082900301818387803b158015610eb457600080fd5b505af1158015610ec8573d6000803e3d6000fd5b505050505050565b600054600160a060020a031690565b600054600160a060020a0316331490565b6002805460408051602060018416156101000260001901909316849004601f810184900484028201840190925281815292918301828280156107505780601f1061072557610100808354040283529160200191610750565b610f50610edf565b610f92576040805160e560020a62461bcd0281526020600482018190526024820152600080516020611d89833981519152604482015290519081900360640190fd5b600955565b600754600160a060020a03163314610fe35760405160e560020a62461bcd028152600401808060200182810382526026815260200180611d1b6026913960400191505060405180910390fd5b600954600160a060020a038316600081815260086020526040902054909142910110611059576040805160e560020a62461bcd02815260206004820152601f60248201527f54696d65206c696d69746174696f6e206973206e6f7420657870697265642100604482015290519081900360640190fd5b600654600160a060020a03166110a7576040805160e560020a62461bcd0281526020600482015260166024820152600080516020611da9833981519152604482015290519081900360640190fd5b600654604080517f2a04d0c7000000000000000000000000000000000000000000000000000000008152600160a060020a0386811660048301526024820186905291519190921691632a04d0c791604480830192600092919082900301818387803b15801561111557600080fd5b505af1158015611129573d6000803e3d6000fd5b50505050610c2e83836118a4565b336000818152600460209081526040808320600160a060020a03871684529091528120549091610780918590610a82908663ffffffff61195116565b600654600090600160a060020a03166111c4576040805160e560020a62461bcd0281526020600482015260166024820152600080516020611da9833981519152604482015290519081900360640190fd5b600654604080517fef56807f000000000000000000000000000000000000000000000000000000008152336004820152600160a060020a038681166024830152604482018690529151919092169163ef56807f91606480830192600092919082900301818387803b15801561123857600080fd5b505af115801561124c573d6000803e3d6000fd5b5050505061126283600160a060020a031661149c565b61126c83836119ac565b9392505050565b600160a060020a03166000908152600b6020908152604080832054600c909252909120549091565b6112a3610edf565b6112e5576040805160e560020a62461bcd0281526020600482018190526024820152600080516020611d89833981519152604482015290519081900360640190fd5b6007805473ffffffffffffffffffffffffffffffffffffffff1916600160a060020a0392909216919091179055565b600754600160a060020a031690565b600a5490565b600160a060020a03918216600090815260046020908152604080832093909416825291909152205490565b61135c610edf565b61139e576040805160e560020a62461bcd0281526020600482018190526024820152600080516020611d89833981519152604482015290519081900360640190fd5b6113a7816119b9565b50565b600160a060020a0383166113f25760405160e560020a62461bcd028152600401808060200182810382526024815260200180611e0f6024913960400191505060405180910390fd5b600160a060020a03821661143a5760405160e560020a62461bcd028152600401808060200182810382526022815260200180611d676022913960400191505060405180910390fd5b600160a060020a03808416600081815260046020908152604080832094871680845294825291829020859055815185815291517f8c5be1e5ebec7d5bd14f71427d1e84f3dd0314c0f7b2291e5b200ac8c7c3b9259281900390910190a3505050565b6000908152600860205260409020429055565b60006114bc848484611a69565b600160a060020a0384166000908152600460209081526040808320338085529252909120546114f7918691610a82908663ffffffff61195116565b5060019392505050565b600160a060020a0383166000908152600b602052604090205461152a908363ffffffff61195116565b600160a060020a0384166000908152600b6020908152604080832093909355600c9052205461155f908263ffffffff61195116565b600160a060020a0384166000908152600c6020526040902055600a5461158b908263ffffffff61195116565b600a5560408051838152602081018390528151600160a060020a038616927f3eff168ce30c25c5e643633b70f58850a0085c0a411d1b53e501a655a90bae1a928290030190a2505050565b80820182811015610784576040805160e560020a62461bcd02815260206004820152601b60248201527f536166654d6174683a206164646974696f6e206f766572666c6f770000000000604482015290519081900360640190fd5b600160a060020a03821661168f576040805160e560020a62461bcd02815260206004820152601f60248201527f45524332303a206d696e7420746f20746865207a65726f206164647265737300604482015290519081900360640190fd5b6005546116a2908263ffffffff6115d616565b6005556116af8282611b5d565b604080518281529051600160a060020a038416916000917fddf252ad1be2c89b69c2b068fc378daa952ba7f163c4a11628f55a4df523b3ef9181900360200190a35050565b600160a060020a0383166000908152600b602052604090205461171d908363ffffffff6115d616565b600160a060020a0384166000908152600b6020908152604080832093909355600c90522054611752908263ffffffff6115d616565b600160a060020a0384166000908152600c6020526040902055600a5461177e908263ffffffff6115d616565b600a5560408051838152602081018390528151600160a060020a038616927f8eb48086ad9abd7f3270b68172da958c7507500a9e0c8a9897a5c85ae7d8c0e9928290030190a2505050565b6117d1610edf565b611813576040805160e560020a62461bcd0281526020600482018190526024820152600080516020611d89833981519152604482015290519081900360640190fd5b6040805180820190915260138082527f66696e6e6578757320706f6f6c20746f6b656e00000000000000000000000000602090920191825261185791600191611c5f565b506040805180820190915260038082527f4650540000000000000000000000000000000000000000000000000000000000602090920191825261189c91600291611c5f565b506000600555565b600160a060020a0382166118ec5760405160e560020a62461bcd028152600401808060200182810382526021815260200180611dc96021913960400191505060405180910390fd5b6118f68282611bee565b600554611909908263ffffffff61195116565b600555604080518281529051600091600160a060020a038516917fddf252ad1be2c89b69c2b068fc378daa952ba7f163c4a11628f55a4df523b3ef9181900360200190a35050565b80820382811115610784576040805160e560020a62461bcd02815260206004820181905260248201527f536166654d6174683a20737562737472616374696f6e20756e646572666c6f77604482015290519081900360640190fd5b6000610780338484611a69565b600160a060020a038116611a015760405160e560020a62461bcd028152600401808060200182810382526026815260200180611d416026913960400191505060405180910390fd5b60008054604051600160a060020a03808516939216917f8be0079c531659141344cd1fd0a4f28419497f9722a3daafe3b4186f6b6457e091a36000805473ffffffffffffffffffffffffffffffffffffffff1916600160a060020a0392909216919091179055565b600160a060020a038316611ab15760405160e560020a62461bcd028152600401808060200182810382526025815260200180611dea6025913960400191505060405180910390fd5b600160a060020a038216611af95760405160e560020a62461bcd028152600401808060200182810382526023815260200180611cf86023913960400191505060405180910390fd5b611b038382611bee565b611b0d8282611b5d565b81600160a060020a031683600160a060020a03167fddf252ad1be2c89b69c2b068fc378daa952ba7f163c4a11628f55a4df523b3ef836040518082815260200191505060405180910390a3505050565b600160a060020a038216611ba55760405160e560020a62461bcd028152600401808060200182810382526023815260200180611cf86023913960400191505060405180910390fd5b600160a060020a038216600090815260036020526040902054611bce908263ffffffff6115d616565b600160a060020a0390921660009081526003602052604090209190915550565b600160a060020a038216611c365760405160e560020a62461bcd028152600401808060200182810382526023815260200180611cf86023913960400191505060405180910390fd5b600160a060020a038216600090815260036020526040902054611bce908263ffffffff61195116565b828054600181600116156101000203166002900490600052602060002090601f016020900481019282601f10611ca057805160ff1916838001178555611ccd565b82800160010185558215611ccd579182015b82811115611ccd578251825591602001919060010190611cb2565b50611cd9929150611cdd565b5090565b61078e91905b80821115611cd95760008155600101611ce356fe45524332303a207472616e7366657220746f20746865207a65726f20616464726573734d616e6167657261626c653a2063616c6c6572206973206e6f7420746865204d616e616765724f776e61626c653a206e6577206f776e657220697320746865207a65726f206164647265737345524332303a20617070726f766520746f20746865207a65726f20616464726573734f776e61626c653a2063616c6c6572206973206e6f7420746865206f776e6572466e784d696e65506f6f6c206973206e6f74207365740000000000000000000045524332303a206275726e2066726f6d20746865207a65726f206164647265737345524332303a207472616e736665722066726f6d20746865207a65726f206164647265737345524332303a20617070726f76652066726f6d20746865207a65726f2061646472657373a265627a7a72315820d1473ec4d141e8c0bb7b110aa6c74f3a24f5c05dd9488ec3ae6b5eb56bc4e7cc64736f6c634300051000324f776e61626c653a2063616c6c6572206973206e6f7420746865206f776e6572",
  "source": "pragma solidity =0.5.16;\nimport \"./SharedCoin.sol\";\nimport \"../modules/SafeMath.sol\";\n\n\n/**\n * @title FPTCoin is finnexus collateral Pool token, implement ERC20 interface.\n * @dev ERC20 token. Its inside value is collatral pool net worth.\n *\n */\ncontract FPTCoin is SharedCoin {\n    using SafeMath for uint256;\n        constructor (address minePoolAddr)public{\n        initialize();\n        _FnxMinePool = IFNXMinePool(minePoolAddr);\n    }\n\n    /**\n     * @dev constructor function. set FNX minePool contract address. \n     */ \n    function initialize() onlyOwner public{\n        SharedCoin.initialize();\n    }\n\n    /**\n     * @dev Retrieve user's start time for burning. \n     * @param user user's account.\n     */ \n    function getUserBurnTimeLimite(address user) public view returns (uint256){\n        return getItemTimeLimitation(uint256(user));\n    }\n    /**\n     * @dev Retrieve total locked worth. \n     */ \n    function getTotalLockedWorth() public view returns (uint256) {\n        return _totalLockedWorth;\n    }\n    /**\n     * @dev Retrieve user's locked balance. \n     * @param account user's account.\n     */ \n    function lockedBalanceOf(address account) public view returns (uint256) {\n        return lockedBalances[account];\n    }\n    /**\n     * @dev Retrieve user's locked net worth. \n     * @param account user's account.\n     */ \n    function lockedWorthOf(address account) public view returns (uint256) {\n        return lockedTotalWorth[account];\n    }\n    /**\n     * @dev Retrieve user's locked balance and locked net worth. \n     * @param account user's account.\n     */ \n    function getLockedBalance(address account) public view returns (uint256,uint256) {\n        return (lockedBalances[account],lockedTotalWorth[account]);\n    }\n    /**\n     * @dev Interface to manager FNX mine pool contract, add miner balance when user has bought some options. \n     * @param account user's account.\n     * @param amount user's pay for buying options, priced in USD.\n     */ \n    function addMinerBalance(address account,uint256 amount) public onlyManager{\n        _FnxMinePool.addMinerBalance(account,amount);\n    }\n    /**\n     * dev Burn user's locked balance, when user redeem collateral. \n     * param account user's account.\n     * param amount amount of burned FPT.\n \n    function burnLocked(address account, uint256 amount) public onlyManager{\n        require(latestTransferIn[account]+timeLimited<now,\"FPT coin locked time is not expired!\");\n        uint256 lockedAmount = lockedBalances[account];\n        require(amount<=lockedAmount,\"burnLocked: balance is insufficient\");\n        if(lockedAmount>0){\n            uint256 lockedWorth = lockedTotalWorth[account];\n            if (amount == lockedAmount){\n                _subLockBalance(account,lockedAmount,lockedWorth);\n            }else{\n                uint256 burnWorth = amount*lockedWorth/lockedAmount;\n                _subLockBalance(account,amount,burnWorth);\n            }\n        }\n    }\n     */\n    /**\n     * @dev Move user's FPT to locked balance, when user redeem collateral. \n     * @param account user's account.\n     * @param amount amount of locked FPT.\n     * @param lockedWorth net worth of locked FPT.\n     */ \n    function addlockBalance(address account, uint256 amount,uint256 lockedWorth)public onlyManager {\n        burn(account,amount);\n        _addLockBalance(account,amount,lockedWorth);\n    }\n    /**\n     * @dev Move user's FPT to 'recipient' balance, a interface in ERC20. \n     * @param recipient recipient's account.\n     * @param amount amount of FPT.\n     */ \n    function transfer(address recipient, uint256 amount)public returns (bool){\n        require(address(_FnxMinePool) != address(0),\"FnxMinePool is not set\");\n        _FnxMinePool.transferMinerCoin(msg.sender,recipient,amount);\n        setItemTimeLimitation(uint256(recipient));\n        return SharedCoin.transfer(recipient,amount);\n    }\n    /**\n     * @dev Move sender's FPT to 'recipient' balance, a interface in ERC20. \n     * @param sender sender's account.\n     * @param recipient recipient's account.\n     * @param amount amount of FPT.\n     */ \n    function transferFrom(address sender, address recipient, uint256 amount)public returns (bool){\n        require(address(_FnxMinePool) != address(0),\"FnxMinePool is not set\");\n        _FnxMinePool.transferMinerCoin(sender,recipient,amount);\n        setItemTimeLimitation(uint256(recipient));\n        return SharedCoin.transferFrom(sender,recipient,amount);\n    }\n    /**\n     * @dev burn user's FPT when user redeem FPTCoin. \n     * @param account user's account.\n     * @param amount amount of FPT.\n     */ \n    function burn(address account, uint256 amount) public onlyManager OutLimitation(uint256(account)) {\n        require(address(_FnxMinePool) != address(0),\"FnxMinePool is not set\");\n        _FnxMinePool.burnMinerCoin(account,amount);\n        SharedCoin._burn(account,amount);\n    }\n    /**\n     * @dev mint user's FPT when user add collateral. \n     * @param account user's account.\n     * @param amount amount of FPT.\n     */ \n    function mint(address account, uint256 amount) public onlyManager {\n        require(address(_FnxMinePool) != address(0),\"FnxMinePool is not set\");\n        _FnxMinePool.mintMinerCoin(account,amount);\n        setItemTimeLimitation(uint256(account));\n        SharedCoin._mint(account,amount);\n    }\n    /**\n     * @dev An auxiliary function, add user's locked balance. \n     * @param account user's account.\n     * @param amount amount of FPT.\n     * @param lockedWorth net worth of FPT.\n     */ \n    function _addLockBalance(address account, uint256 amount,uint256 lockedWorth)internal {\n        lockedBalances[account]= lockedBalances[account].add(amount);\n        lockedTotalWorth[account]= lockedTotalWorth[account].add(lockedWorth);\n        _totalLockedWorth = _totalLockedWorth.add(lockedWorth);\n        emit AddLocked(account, amount,lockedWorth);\n    }\n    /**\n     * @dev An auxiliary function, deduct user's locked balance. \n     * @param account user's account.\n     * @param amount amount of FPT.\n     * @param lockedWorth net worth of FPT.\n     */ \n    function _subLockBalance(address account,uint256 amount,uint256 lockedWorth)internal {\n        lockedBalances[account]= lockedBalances[account].sub(amount);\n        lockedTotalWorth[account]= lockedTotalWorth[account].sub(lockedWorth);\n        _totalLockedWorth = _totalLockedWorth.sub(lockedWorth);\n        emit BurnLocked(account, amount,lockedWorth);\n    }\n    /**\n     * @dev An interface of redeem locked FPT, when user redeem collateral, only manager contract can invoke. \n     * @param account user's account.\n     * @param tokenAmount amount of FPT.\n     * @param leftCollateral left available collateral in collateral pool, priced in USD.\n     */ \n    function redeemLockedCollateral(address account,uint256 tokenAmount,uint256 leftCollateral)public onlyManager OutLimitation(uint256(account)) returns (uint256,uint256){\n        if (leftCollateral == 0){\n            return(0,0);\n        }\n        uint256 lockedAmount = lockedBalances[account];\n        uint256 lockedWorth = lockedTotalWorth[account];\n        if (lockedAmount == 0 || lockedWorth == 0){\n            return (0,0);\n        }\n        uint256 redeemWorth = 0;\n        uint256 lockedBurn = 0;\n        uint256 lockedPrice = lockedWorth/lockedAmount;\n        if (lockedAmount >= tokenAmount){\n            lockedBurn = tokenAmount;\n            redeemWorth = tokenAmount*lockedPrice;\n        }else{\n            lockedBurn = lockedAmount;\n            redeemWorth = lockedWorth;\n        }\n        if (redeemWorth > leftCollateral) {\n            lockedBurn = leftCollateral/lockedPrice;\n            redeemWorth = lockedBurn*lockedPrice;\n        }\n        if (lockedBurn > 0){\n            _subLockBalance(account,lockedBurn,redeemWorth);\n            return (lockedBurn,redeemWorth);\n        }\n        return (0,0);\n    }\n}\n",
  "sourcePath": "/home/jqg/FinnexusOptions_V2/contracts/FPTCoin/FPTCoin.sol",
  "compiler": {
    "name": "solc",
    "version": "0.5.16+commit.9c3226ce.Emscripten.clang"
  },
  "schemaVersion": "3.2.4",
  "updatedAt": "2020-09-09T03:13:04.221Z",
  "devdoc": {
    "details": "ERC20 token. Its inside value is collatral pool net worth. ",
    "methods": {
      "addMinerBalance(address,uint256)": {
        "details": "Interface to manager FNX mine pool contract, add miner balance when user has bought some options. ",
        "params": {
          "account": "user's account.",
          "amount": "user's pay for buying options, priced in USD."
        }
      },
      "addlockBalance(address,uint256,uint256)": {
        "details": "Move user's FPT to locked balance, when user redeem collateral. ",
        "params": {
          "account": "user's account.",
          "amount": "amount of locked FPT.",
          "lockedWorth": "net worth of locked FPT."
        }
      },
      "allowance(address,address)": {
        "details": "See {IERC20-allowance}."
      },
      "approve(address,uint256)": {
        "details": "See {IERC20-approve}.     * Requirements:     * - `spender` cannot be the zero address."
      },
      "balanceOf(address)": {
        "details": "See {IERC20-balanceOf}."
      },
      "burn(address,uint256)": {
        "details": "burn user's FPT when user redeem FPTCoin. ",
        "params": {
          "account": "user's account.",
          "amount": "amount of FPT."
        }
      },
      "decreaseAllowance(address,uint256)": {
        "details": "Atomically decreases the allowance granted to `spender` by the caller.     * This is an alternative to {approve} that can be used as a mitigation for problems described in {IERC20-approve}.     * Emits an {Approval} event indicating the updated allowance.     * Requirements:     * - `spender` cannot be the zero address. - `spender` must have allowance for the caller of at least `subtractedValue`."
      },
      "getItemTimeLimitation(uint256)": {
        "details": "Retrieve user's start time for burning. ",
        "params": {
          "item": "item key."
        }
      },
      "getLockedBalance(address)": {
        "details": "Retrieve user's locked balance and locked net worth. ",
        "params": {
          "account": "user's account."
        }
      },
      "getManager()": {
        "details": "get manager address.      "
      },
      "getTotalLockedWorth()": {
        "details": "Retrieve total locked worth. "
      },
      "getUserBurnTimeLimite(address)": {
        "details": "Retrieve user's start time for burning. ",
        "params": {
          "user": "user's account."
        }
      },
      "increaseAllowance(address,uint256)": {
        "details": "Atomically increases the allowance granted to `spender` by the caller.     * This is an alternative to {approve} that can be used as a mitigation for problems described in {IERC20-approve}.     * Emits an {Approval} event indicating the updated allowance.     * Requirements:     * - `spender` cannot be the zero address."
      },
      "initialize()": {
        "details": "constructor function. set FNX minePool contract address. "
      },
      "isOwner()": {
        "details": "Returns true if the caller is the current owner."
      },
      "lockedBalanceOf(address)": {
        "details": "Retrieve user's locked balance. ",
        "params": {
          "account": "user's account."
        }
      },
      "lockedWorthOf(address)": {
        "details": "Retrieve user's locked net worth. ",
        "params": {
          "account": "user's account."
        }
      },
      "mint(address,uint256)": {
        "details": "mint user's FPT when user add collateral. ",
        "params": {
          "account": "user's account.",
          "amount": "amount of FPT."
        }
      },
      "owner()": {
        "details": "Returns the address of the current owner."
      },
      "redeemLockedCollateral(address,uint256,uint256)": {
        "details": "An interface of redeem locked FPT, when user redeem collateral, only manager contract can invoke. ",
        "params": {
          "account": "user's account.",
          "leftCollateral": "left available collateral in collateral pool, priced in USD.",
          "tokenAmount": "amount of FPT."
        }
      },
      "renounceOwnership()": {
        "details": "Leaves the contract without owner. It will not be possible to call `onlyOwner` functions anymore. Can only be called by the current owner.     * NOTE: Renouncing ownership will leave the contract without an owner, thereby removing any functionality that is only available to the owner."
      },
      "setManager(address)": {
        "details": "set manager by owner.      "
      },
      "setTimeLimitation(uint256)": {
        "details": "set time limitation, only owner can invoke. ",
        "params": {
          "_limitation": "new time limitation."
        }
      },
      "totalSupply()": {
        "details": "See {IERC20-totalSupply}."
      },
      "transfer(address,uint256)": {
        "details": "Move user's FPT to 'recipient' balance, a interface in ERC20. ",
        "params": {
          "amount": "amount of FPT.",
          "recipient": "recipient's account."
        }
      },
      "transferFrom(address,address,uint256)": {
        "details": "Move sender's FPT to 'recipient' balance, a interface in ERC20. ",
        "params": {
          "amount": "amount of FPT.",
          "recipient": "recipient's account.",
          "sender": "sender's account."
        }
      },
      "transferOwnership(address)": {
        "details": "Transfers ownership of the contract to a new account (`newOwner`). Can only be called by the current owner."
      }
    },
    "title": "FPTCoin is finnexus collateral Pool token, implement ERC20 interface."
  },
  "userdoc": {
    "methods": {}
  }
}