{
  "contractName": "FPTProxy",
  "abi": [
    {
      "inputs": [
        {
          "internalType": "address",
          "name": "implementation_",
          "type": "address"
        },
        {
          "internalType": "address",
          "name": "minePoolAddr",
          "type": "address"
        }
      ],
      "payable": false,
      "stateMutability": "nonpayable",
      "type": "constructor"
    },
    {
      "anonymous": false,
      "inputs": [
        {
          "indexed": true,
          "internalType": "address",
          "name": "owner",
          "type": "address"
        },
        {
          "indexed": false,
          "internalType": "uint256",
          "name": "amount",
          "type": "uint256"
        },
        {
          "indexed": false,
          "internalType": "uint256",
          "name": "worth",
          "type": "uint256"
        }
      ],
      "name": "AddLocked",
      "type": "event"
    },
    {
      "anonymous": false,
      "inputs": [
        {
          "indexed": true,
          "internalType": "address",
          "name": "owner",
          "type": "address"
        },
        {
          "indexed": true,
          "internalType": "address",
          "name": "spender",
          "type": "address"
        },
        {
          "indexed": false,
          "internalType": "uint256",
          "name": "value",
          "type": "uint256"
        }
      ],
      "name": "Approval",
      "type": "event"
    },
    {
      "anonymous": false,
      "inputs": [
        {
          "indexed": true,
          "internalType": "address",
          "name": "owner",
          "type": "address"
        },
        {
          "indexed": false,
          "internalType": "uint256",
          "name": "amount",
          "type": "uint256"
        },
        {
          "indexed": false,
          "internalType": "uint256",
          "name": "worth",
          "type": "uint256"
        }
      ],
      "name": "BurnLocked",
      "type": "event"
    },
    {
      "anonymous": false,
      "inputs": [
        {
          "indexed": true,
          "internalType": "address",
          "name": "previousOwner",
          "type": "address"
        },
        {
          "indexed": true,
          "internalType": "address",
          "name": "newOwner",
          "type": "address"
        }
      ],
      "name": "OwnershipTransferred",
      "type": "event"
    },
    {
      "anonymous": false,
      "inputs": [
        {
          "indexed": true,
          "internalType": "address",
          "name": "from",
          "type": "address"
        },
        {
          "indexed": true,
          "internalType": "address",
          "name": "to",
          "type": "address"
        },
        {
          "indexed": false,
          "internalType": "uint256",
          "name": "value",
          "type": "uint256"
        }
      ],
      "name": "Transfer",
      "type": "event"
    },
    {
      "constant": true,
      "inputs": [
        {
          "internalType": "address",
          "name": "",
          "type": "address"
        },
        {
          "internalType": "address",
          "name": "",
          "type": "address"
        }
      ],
      "name": "allowance",
      "outputs": [
        {
          "internalType": "uint256",
          "name": "",
          "type": "uint256"
        }
      ],
      "payable": false,
      "stateMutability": "view",
      "type": "function"
    },
    {
      "constant": false,
      "inputs": [
        {
          "internalType": "address",
          "name": "",
          "type": "address"
        },
        {
          "internalType": "uint256",
          "name": "",
          "type": "uint256"
        }
      ],
      "name": "approve",
      "outputs": [
        {
          "internalType": "bool",
          "name": "",
          "type": "bool"
        }
      ],
      "payable": false,
      "stateMutability": "nonpayable",
      "type": "function"
    },
    {
      "constant": true,
      "inputs": [
        {
          "internalType": "address",
          "name": "",
          "type": "address"
        }
      ],
      "name": "balanceOf",
      "outputs": [
        {
          "internalType": "uint256",
          "name": "",
          "type": "uint256"
        }
      ],
      "payable": false,
      "stateMutability": "view",
      "type": "function"
    },
    {
      "constant": true,
      "inputs": [],
      "name": "decimals",
      "outputs": [
        {
          "internalType": "uint8",
          "name": "",
          "type": "uint8"
        }
      ],
      "payable": false,
      "stateMutability": "view",
      "type": "function"
    },
    {
      "constant": false,
      "inputs": [
        {
          "internalType": "bytes",
          "name": "data",
          "type": "bytes"
        }
      ],
      "name": "delegateToImplementation",
      "outputs": [
        {
          "internalType": "bytes",
          "name": "",
          "type": "bytes"
        }
      ],
      "payable": false,
      "stateMutability": "nonpayable",
      "type": "function"
    },
    {
      "constant": true,
      "inputs": [
        {
          "internalType": "bytes",
          "name": "data",
          "type": "bytes"
        }
      ],
      "name": "delegateToViewImplementation",
      "outputs": [
        {
          "internalType": "bytes",
          "name": "",
          "type": "bytes"
        }
      ],
      "payable": false,
      "stateMutability": "view",
      "type": "function"
    },
    {
      "constant": true,
      "inputs": [],
      "name": "getFNXMinePoolAddress",
      "outputs": [
        {
          "internalType": "address",
          "name": "",
          "type": "address"
        }
      ],
      "payable": false,
      "stateMutability": "view",
      "type": "function"
    },
    {
      "constant": true,
      "inputs": [],
      "name": "getImplementation",
      "outputs": [
        {
          "internalType": "address",
          "name": "",
          "type": "address"
        }
      ],
      "payable": false,
      "stateMutability": "view",
      "type": "function"
    },
    {
      "constant": true,
      "inputs": [
        {
          "internalType": "uint256",
          "name": "item",
          "type": "uint256"
        }
      ],
      "name": "getItemTimeLimitation",
      "outputs": [
        {
          "internalType": "uint256",
          "name": "",
          "type": "uint256"
        }
      ],
      "payable": false,
      "stateMutability": "view",
      "type": "function"
    },
    {
      "constant": true,
      "inputs": [],
      "name": "getManager",
      "outputs": [
        {
          "internalType": "address",
          "name": "",
          "type": "address"
        }
      ],
      "payable": false,
      "stateMutability": "view",
      "type": "function"
    },
    {
      "constant": true,
      "inputs": [],
      "name": "getTimeLimitation",
      "outputs": [
        {
          "internalType": "uint256",
          "name": "",
          "type": "uint256"
        }
      ],
      "payable": false,
      "stateMutability": "view",
      "type": "function"
    },
    {
      "constant": true,
      "inputs": [],
      "name": "implementation",
      "outputs": [
        {
          "internalType": "address",
          "name": "",
          "type": "address"
        }
      ],
      "payable": false,
      "stateMutability": "view",
      "type": "function"
    },
    {
      "constant": true,
      "inputs": [],
      "name": "isOwner",
      "outputs": [
        {
          "internalType": "bool",
          "name": "",
          "type": "bool"
        }
      ],
      "payable": false,
      "stateMutability": "view",
      "type": "function"
    },
    {
      "constant": true,
      "inputs": [],
      "name": "name",
      "outputs": [
        {
          "internalType": "string",
          "name": "",
          "type": "string"
        }
      ],
      "payable": false,
      "stateMutability": "view",
      "type": "function"
    },
    {
      "constant": true,
      "inputs": [],
      "name": "owner",
      "outputs": [
        {
          "internalType": "address",
          "name": "",
          "type": "address"
        }
      ],
      "payable": false,
      "stateMutability": "view",
      "type": "function"
    },
    {
      "constant": false,
      "inputs": [],
      "name": "renounceOwnership",
      "outputs": [],
      "payable": false,
      "stateMutability": "nonpayable",
      "type": "function"
    },
    {
      "constant": false,
      "inputs": [
        {
          "internalType": "address",
          "name": "fnxMinePool",
          "type": "address"
        }
      ],
      "name": "setFNXMinePoolAddress",
      "outputs": [],
      "payable": false,
      "stateMutability": "nonpayable",
      "type": "function"
    },
    {
      "constant": false,
      "inputs": [
        {
          "internalType": "address",
          "name": "implementation_",
          "type": "address"
        }
      ],
      "name": "setImplementation",
      "outputs": [],
      "payable": false,
      "stateMutability": "nonpayable",
      "type": "function"
    },
    {
      "constant": false,
      "inputs": [
        {
          "internalType": "address",
          "name": "managerAddress",
          "type": "address"
        }
      ],
      "name": "setManager",
      "outputs": [],
      "payable": false,
      "stateMutability": "nonpayable",
      "type": "function"
    },
    {
      "constant": false,
      "inputs": [
        {
          "internalType": "uint256",
          "name": "_limitation",
          "type": "uint256"
        }
      ],
      "name": "setTimeLimitation",
      "outputs": [],
      "payable": false,
      "stateMutability": "nonpayable",
      "type": "function"
    },
    {
      "constant": true,
      "inputs": [],
      "name": "symbol",
      "outputs": [
        {
          "internalType": "string",
          "name": "",
          "type": "string"
        }
      ],
      "payable": false,
      "stateMutability": "view",
      "type": "function"
    },
    {
      "constant": true,
      "inputs": [],
      "name": "totalSupply",
      "outputs": [
        {
          "internalType": "uint256",
          "name": "",
          "type": "uint256"
        }
      ],
      "payable": false,
      "stateMutability": "view",
      "type": "function"
    },
    {
      "constant": false,
      "inputs": [
        {
          "internalType": "address",
          "name": "",
          "type": "address"
        },
        {
          "internalType": "uint256",
          "name": "",
          "type": "uint256"
        }
      ],
      "name": "transfer",
      "outputs": [
        {
          "internalType": "bool",
          "name": "",
          "type": "bool"
        }
      ],
      "payable": false,
      "stateMutability": "nonpayable",
      "type": "function"
    },
    {
      "constant": false,
      "inputs": [
        {
          "internalType": "address",
          "name": "",
          "type": "address"
        },
        {
          "internalType": "address",
          "name": "",
          "type": "address"
        },
        {
          "internalType": "uint256",
          "name": "",
          "type": "uint256"
        }
      ],
      "name": "transferFrom",
      "outputs": [
        {
          "internalType": "bool",
          "name": "",
          "type": "bool"
        }
      ],
      "payable": false,
      "stateMutability": "nonpayable",
      "type": "function"
    },
    {
      "constant": false,
      "inputs": [
        {
          "internalType": "address",
          "name": "newOwner",
          "type": "address"
        }
      ],
      "name": "transferOwnership",
      "outputs": [],
      "payable": false,
      "stateMutability": "nonpayable",
      "type": "function"
    },
    {
      "constant": true,
      "inputs": [
        {
          "internalType": "address",
          "name": "",
          "type": "address"
        }
      ],
      "name": "getUserBurnTimeLimite",
      "outputs": [
        {
          "internalType": "uint256",
          "name": "",
          "type": "uint256"
        }
      ],
      "payable": false,
      "stateMutability": "view",
      "type": "function"
    },
    {
      "constant": true,
      "inputs": [],
      "name": "getTotalLockedWorth",
      "outputs": [
        {
          "internalType": "uint256",
          "name": "",
          "type": "uint256"
        }
      ],
      "payable": false,
      "stateMutability": "view",
      "type": "function"
    },
    {
      "constant": true,
      "inputs": [
        {
          "internalType": "address",
          "name": "",
          "type": "address"
        }
      ],
      "name": "lockedBalanceOf",
      "outputs": [
        {
          "internalType": "uint256",
          "name": "",
          "type": "uint256"
        }
      ],
      "payable": false,
      "stateMutability": "view",
      "type": "function"
    },
    {
      "constant": true,
      "inputs": [
        {
          "internalType": "address",
          "name": "",
          "type": "address"
        }
      ],
      "name": "lockedWorthOf",
      "outputs": [
        {
          "internalType": "uint256",
          "name": "",
          "type": "uint256"
        }
      ],
      "payable": false,
      "stateMutability": "view",
      "type": "function"
    },
    {
      "constant": true,
      "inputs": [
        {
          "internalType": "address",
          "name": "",
          "type": "address"
        }
      ],
      "name": "getLockedBalance",
      "outputs": [
        {
          "internalType": "uint256",
          "name": "",
          "type": "uint256"
        },
        {
          "internalType": "uint256",
          "name": "",
          "type": "uint256"
        }
      ],
      "payable": false,
      "stateMutability": "view",
      "type": "function"
    },
    {
      "constant": false,
      "inputs": [
        {
          "internalType": "address",
          "name": "",
          "type": "address"
        },
        {
          "internalType": "uint256",
          "name": "",
          "type": "uint256"
        }
      ],
      "name": "addMinerBalance",
      "outputs": [],
      "payable": false,
      "stateMutability": "nonpayable",
      "type": "function"
    },
    {
      "constant": false,
      "inputs": [
        {
          "internalType": "address",
          "name": "",
          "type": "address"
        },
        {
          "internalType": "uint256",
          "name": "",
          "type": "uint256"
        },
        {
          "internalType": "uint256",
          "name": "",
          "type": "uint256"
        }
      ],
      "name": "addlockBalance",
      "outputs": [],
      "payable": false,
      "stateMutability": "nonpayable",
      "type": "function"
    },
    {
      "constant": false,
      "inputs": [
        {
          "internalType": "address",
          "name": "",
          "type": "address"
        },
        {
          "internalType": "uint256",
          "name": "",
          "type": "uint256"
        }
      ],
      "name": "burn",
      "outputs": [],
      "payable": false,
      "stateMutability": "nonpayable",
      "type": "function"
    },
    {
      "constant": false,
      "inputs": [
        {
          "internalType": "address",
          "name": "",
          "type": "address"
        },
        {
          "internalType": "uint256",
          "name": "",
          "type": "uint256"
        }
      ],
      "name": "mint",
      "outputs": [],
      "payable": false,
      "stateMutability": "nonpayable",
      "type": "function"
    },
    {
      "constant": false,
      "inputs": [
        {
          "internalType": "address",
          "name": "",
          "type": "address"
        },
        {
          "internalType": "uint256",
          "name": "",
          "type": "uint256"
        },
        {
          "internalType": "uint256",
          "name": "",
          "type": "uint256"
        }
      ],
      "name": "redeemLockedCollateral",
      "outputs": [
        {
          "internalType": "uint256",
          "name": "",
          "type": "uint256"
        },
        {
          "internalType": "uint256",
          "name": "",
          "type": "uint256"
        }
      ],
      "payable": false,
      "stateMutability": "nonpayable",
      "type": "function"
    }
  ],
  "bytecode": "0x6080604052610e1060095534801561001657600080fd5b506040516114753803806114758339818101604052604081101561003957600080fd5b50805160209091015160008054600160a060020a031916331780825560405184928392600160a060020a0316917f8be0079c531659141344cd1fd0a4f28419497f9722a3daafe3b4186f6b6457e0908290a3600d8054600160a060020a038316600160a060020a031990911681179091556040805160048152602481018252602081018051600160e060020a03167f8129fc1c00000000000000000000000000000000000000000000000000000000178152915181516000949382918083835b602083106101185780518252601f1990920191602091820191016100f9565b6001836020036101000a038019825116818451168082178552505050505050905001915050600060405180830381855af49150503d8060008114610178576040519150601f19603f3d011682016040523d82523d6000602084013e61017d565b606091505b505090508061018b57600080fd5b505060068054600160a060020a03909316600160a060020a03199093169290921790915550506112b5806101c06000396000f3fe608060405234801561001057600080fd5b506004361061022e576000357c01000000000000000000000000000000000000000000000000000000009004806370a0823111610142578063a9059cbb116100ca578063d500958411610099578063d500958414610683578063d784d4261461068b578063dad3eb74146103ce578063dd62ed3e146106b1578063f2fde38b146106df5761022e565b8063a9059cbb1461038e578063aaf10f421461062f578063c408689314610637578063d0ebdbe71461065d5761022e565b80638da5cb5b116101115780638da5cb5b146105fa5780638f32d59b1461060257806395d89b411461060a5780639783cbd9146106125780639dc29fac146104925761022e565b806370a08231146102b0578063715018a6146105f25780637de29ea8146102b05780638399d9f3146104925761022e565b806335f0c4fa116101c55780634b91a07b116101945780634b91a07b1461056e57806359355736146102b057806359653ec9146105a05780635c60da1b146105c45780636f2b70cd146105cc5761022e565b806335f0c4fa1461044757806340c10f19146104925780634487152f146104c05780634688d5d6146105665761022e565b806318160ddd1161020157806318160ddd146103ce57806323b872dd146103d65780632a75ee421461040c578063313ce567146104295761022e565b806306fdde031461023357806307e77aa0146102b05780630933c1ed146102e8578063095ea7b31461038e575b600080fd5b61023b610705565b6040805160208082528351818301528351919283929083019185019080838360005b8381101561027557818101518382015260200161025d565b50505050905090810190601f1680156102a25780820380516001836020036101000a031916815260200191505b509250505060405180910390f35b6102d6600480360360208110156102c657600080fd5b5035600160a060020a0316610792565b60408051918252519081900360200190f35b61023b600480360360208110156102fe57600080fd5b81019060208101813564010000000081111561031957600080fd5b82018360208201111561032b57600080fd5b8035906020019184600183028401116401000000008311171561034d57600080fd5b91908080601f0160208091040260200160405190810160405280939291908181526020018383808284376000920191909152509295506107a2945050505050565b6103ba600480360360408110156103a457600080fd5b50600160a060020a03813516906020013561086c565b604080519115158252519081900360200190f35b6102d661087d565b6103ba600480360360608110156103ec57600080fd5b50600160a060020a0381358116916020810135909116906040013561088b565b6102d66004803603602081101561042257600080fd5b503561089d565b6104316108b4565b6040805160ff9092168252519081900360200190f35b6104796004803603606081101561045d57600080fd5b50600160a060020a0381351690602081013590604001356108b9565b6040805192835260208301919091528051918290030190f35b6104be600480360360408110156104a857600080fd5b50600160a060020a0381351690602001356108cd565b005b61023b600480360360208110156104d657600080fd5b8101906020810181356401000000008111156104f157600080fd5b82018360208201111561050357600080fd5b8035906020019184600183028401116401000000008311171561052557600080fd5b91908080601f0160208091040260200160405190810160405280939291908181526020018383808284376000920191909152509295506108da945050505050565b6102d6610b29565b6104be6004803603606081101561058457600080fd5b50600160a060020a038135169060208101359060400135610b2f565b6105a8610b3d565b60408051600160a060020a039092168252519081900360200190f35b6105a8610b4c565b6104be600480360360208110156105e257600080fd5b5035600160a060020a0316610b5b565b6104be610bd4565b6105a8610c75565b6103ba610c84565b61023b610c95565b6104be6004803603602081101561062857600080fd5b5035610ced565b6105a8610d3c565b6104796004803603602081101561064d57600080fd5b5035600160a060020a0316610d4b565b6104be6004803603602081101561067357600080fd5b5035600160a060020a0316610d5c565b6105a8610dd5565b6104be600480360360208110156106a157600080fd5b5035600160a060020a0316610de4565b6102d6600480360360408110156106c757600080fd5b50600160a060020a0381358116916020013516610f54565b6104be600480360360208110156106f557600080fd5b5035600160a060020a0316610f5e565b60018054604080516020600284861615610100026000190190941693909304601f8101849004840282018401909252818152929183018282801561078a5780601f1061075f5761010080835404028352916020019161078a565b820191906000526020600020905b81548152906001019060200180831161076d57829003601f168201915b505050505081565b600061079c610fb4565b50919050565b600d5460405182516060926000928492600160a060020a0390921691869190819060208401908083835b602083106107eb5780518252601f1990920191602091820191016107cc565b6001836020036101000a038019825116818451168082178552505050505050905001915050600060405180830381855af49150503d806000811461084b576040519150601f19603f3d011682016040523d82523d6000602084013e610850565b606091505b50915091506000821415610865573d60208201fd5b9392505050565b6000610876611106565b5092915050565b6000610887610fb4565b5090565b6000610895611106565b509392505050565b600954600091825260086020526040909120540190565b601281565b6000806108c4611106565b50935093915050565b6108d5611106565b505050565b60606000606030600160a060020a0316846040516024018080602001828103825283818151815260200191508051906020019080838360005b8381101561092b578181015183820152602001610913565b50505050905090810190601f1680156109585780820380516001836020036101000a031916815260200191505b5060408051601f198184030181529181526020820180517bffffffffffffffffffffffffffffffffffffffffffffffffffffffff167f0933c1ed00000000000000000000000000000000000000000000000000000000178152905182519295509350839250908083835b602083106109e15780518252601f1990920191602091820191016109c2565b6001836020036101000a038019825116818451168082178552505050505050905001915050600060405180830381855afa9150503d8060008114610a41576040519150601f19603f3d011682016040523d82523d6000602084013e610a46565b606091505b50915091506000821415610a5b573d60208201fd5b808060200190516020811015610a7057600080fd5b8101908080516040519392919084640100000000821115610a9057600080fd5b908301906020820185811115610aa557600080fd5b8251640100000000811182820188101715610abf57600080fd5b82525081516020918201929091019080838360005b83811015610aec578181015183820152602001610ad4565b50505050905090810190601f168015610b195780820380516001836020036101000a031916815260200191505b5060405250505092505050919050565b60095490565b610b37611106565b50505050565b600654600160a060020a031690565b600d54600160a060020a031681565b610b63610c84565b610ba5576040805160e560020a62461bcd0281526020600482018190526024820152600080516020611261833981519152604482015290519081900360640190fd5b6006805473ffffffffffffffffffffffffffffffffffffffff1916600160a060020a0392909216919091179055565b610bdc610c84565b610c1e576040805160e560020a62461bcd0281526020600482018190526024820152600080516020611261833981519152604482015290519081900360640190fd5b60008054604051600160a060020a03909116907f8be0079c531659141344cd1fd0a4f28419497f9722a3daafe3b4186f6b6457e0908390a36000805473ffffffffffffffffffffffffffffffffffffffff19169055565b600054600160a060020a031690565b600054600160a060020a0316331490565b6002805460408051602060018416156101000260001901909316849004601f8101849004840282018401909252818152929183018282801561078a5780601f1061075f5761010080835404028352916020019161078a565b610cf5610c84565b610d37576040805160e560020a62461bcd0281526020600482018190526024820152600080516020611261833981519152604482015290519081900360640190fd5b600955565b600d54600160a060020a031690565b600080610d56610fb4565b50915091565b610d64610c84565b610da6576040805160e560020a62461bcd0281526020600482018190526024820152600080516020611261833981519152604482015290519081900360640190fd5b6007805473ffffffffffffffffffffffffffffffffffffffff1916600160a060020a0392909216919091179055565b600754600160a060020a031690565b610dec610c84565b610e2e576040805160e560020a62461bcd0281526020600482018190526024820152600080516020611261833981519152604482015290519081900360640190fd5b600d8054600160a060020a03831673ffffffffffffffffffffffffffffffffffffffff19909116811790915560408051600481526024810182526020810180517bffffffffffffffffffffffffffffffffffffffffffffffffffffffff167fa2e6204500000000000000000000000000000000000000000000000000000000178152915181516000949382918083835b60208310610edd5780518252601f199092019160209182019101610ebe565b6001836020036101000a038019825116818451168082178552505050505050905001915050600060405180830381855af49150503d8060008114610f3d576040519150601f19603f3d011682016040523d82523d6000602084013e610f42565b606091505b5050905080610f5057600080fd5b5050565b6000610876610fb4565b610f66610c84565b610fa8576040805160e560020a62461bcd0281526020600482018190526024820152600080516020611261833981519152604482015290519081900360640190fd5b610fb18161118a565b50565b6060600030600160a060020a03166000366040516024018080602001828103825284848281815260200192508082843760008382015260408051601f909201601f1990811690940182810390940182529283526020810180517bffffffffffffffffffffffffffffffffffffffffffffffffffffffff167f0933c1ed0000000000000000000000000000000000000000000000000000000017815292518151919750955085945091925081905083835b602083106110835780518252601f199092019160209182019101611064565b6001836020036101000a038019825116818451168082178552505050505050905001915050600060405180830381855afa9150503d80600081146110e3576040519150601f19603f3d011682016040523d82523d6000602084013e6110e8565b606091505b505090506040513d6000823e818015611102573d60408301f35b3d82fd5b600d54604051606091600091600160a060020a0390911690829036908083838082843760405192019450600093509091505080830381855af49150503d806000811461116e576040519150601f19603f3d011682016040523d82523d6000602084013e611173565b606091505b505090506040513d6000823e818015611102573d82f35b600160a060020a0381166111d25760405160e560020a62461bcd02815260040180806020018281038252602681526020018061123b6026913960400191505060405180910390fd5b60008054604051600160a060020a03808516939216917f8be0079c531659141344cd1fd0a4f28419497f9722a3daafe3b4186f6b6457e091a36000805473ffffffffffffffffffffffffffffffffffffffff1916600160a060020a039290921691909117905556fe4f776e61626c653a206e6577206f776e657220697320746865207a65726f20616464726573734f776e61626c653a2063616c6c6572206973206e6f7420746865206f776e6572a265627a7a72315820827308601fa321a02da537a4e5c9989841e630da4ff575895f6f6689a6314cad64736f6c63430005100032",
  "source": "pragma solidity =0.5.16;\nimport \"./FPTData.sol\";\nimport \"../ERC20/Erc20BaseProxy.sol\";\n\n/**\n * @title FPTCoin is finnexus collateral Pool token, implement ERC20 interface.\n * @dev ERC20 token. Its inside value is collatral pool net worth.\n *\n */\ncontract FPTProxy is FPTData,Erc20BaseProxy {\n    constructor (address implementation_,address minePoolAddr) Erc20BaseProxy(implementation_) public{\n        _FnxMinePool = IFNXMinePool(minePoolAddr);\n    }\n    /**\n     * @dev Retrieve user's start time for burning. \n     *  user user's account.\n     */ \n    function getUserBurnTimeLimite(address /*user*/) public view returns (uint256){\n        delegateToViewAndReturn();\n    }\n    /**\n     * @dev Retrieve total locked worth. \n     */ \n    function getTotalLockedWorth() public view returns (uint256) {\n        delegateToViewAndReturn();\n    }\n    /**\n     * @dev Retrieve user's locked balance. \n     *  account user's account.\n     */ \n    function lockedBalanceOf(address /*account*/) public view returns (uint256) {\n        delegateToViewAndReturn();\n    }\n    /**\n     * @dev Retrieve user's locked net worth. \n     *  account user's account.\n     */ \n    function lockedWorthOf(address /*account*/) public view returns (uint256) {\n        delegateToViewAndReturn();\n    }\n    /**\n     * @dev Retrieve user's locked balance and locked net worth. \n     *  account user's account.\n     */ \n    function getLockedBalance(address /*account*/) public view returns (uint256,uint256) {\n        delegateToViewAndReturn();\n    }\n    /**\n     * @dev Interface to manager FNX mine pool contract, add miner balance when user has bought some options. \n     *  account user's account.\n     *  amount user's pay for buying options, priced in USD.\n     */ \n    function addMinerBalance(address /*account*/,uint256 /*amount*/) public{\n        delegateAndReturn();\n    }\n    /**\n     * @dev Move user's FPT to locked balance, when user redeem collateral. \n     *  account user's account.\n     *  amount amount of locked FPT.\n     *  lockedWorth net worth of locked FPT.\n     */ \n    function addlockBalance(address /*account*/, uint256 /*amount*/,uint256 /*lockedWorth*/)public {\n        delegateAndReturn();\n    }\n\n    /**\n     * @dev burn user's FPT when user redeem FPTCoin. \n     *  account user's account.\n     *  amount amount of FPT.\n     */ \n    function burn(address /*account*/, uint256 /*amount*/) public {\n        delegateAndReturn();\n    }\n    /**\n     * @dev mint user's FPT when user add collateral. \n     *  account user's account.\n     *  amount amount of FPT.\n     */ \n    function mint(address /*account*/, uint256 /*amount*/) public {\n        delegateAndReturn();\n    }\n    /**\n     * @dev An interface of redeem locked FPT, when user redeem collateral, only manager contract can invoke. \n     *  account user's account.\n     *  tokenAmount amount of FPT.\n     *  leftCollateral left available collateral in collateral pool, priced in USD.\n     */ \n    function redeemLockedCollateral(address /*account*/,uint256 /*tokenAmount*/,uint256 /*leftCollateral*/)\n            public returns (uint256,uint256){\n        delegateAndReturn();\n    }\n}\n",
  "sourcePath": "/home/jqg/FinnexusOptions_V2/contracts/FPTCoin/FPTProxy.sol",
  "compiler": {
    "name": "solc",
    "version": "0.5.16+commit.9c3226ce.Emscripten.clang"
  },
  "schemaVersion": "3.2.4",
  "updatedAt": "2020-09-09T03:13:04.230Z",
  "devdoc": {
    "details": "ERC20 token. Its inside value is collatral pool net worth. ",
    "methods": {
      "addMinerBalance(address,uint256)": {
        "details": "Interface to manager FNX mine pool contract, add miner balance when user has bought some options.  account user's account. amount user's pay for buying options, priced in USD."
      },
      "addlockBalance(address,uint256,uint256)": {
        "details": "Move user's FPT to locked balance, when user redeem collateral.  account user's account. amount amount of locked FPT. lockedWorth net worth of locked FPT."
      },
      "allowance(address,address)": {
        "return": "The number of tokens allowed to be spent (-1 means infinite)"
      },
      "approve(address,uint256)": {
        "details": "This will overwrite the approval amount for `spender`",
        "return": "Whether or not the approval succeeded"
      },
      "balanceOf(address)": {
        "return": "The number of tokens owned by `owner`"
      },
      "burn(address,uint256)": {
        "details": "burn user's FPT when user redeem FPTCoin.  account user's account. amount amount of FPT."
      },
      "delegateToImplementation(bytes)": {
        "details": "It returns to the external caller whatever the implementation returns or forwards reverts",
        "params": {
          "data": "The raw data to delegatecall"
        },
        "return": "The returned bytes from the delegatecall"
      },
      "delegateToViewImplementation(bytes)": {
        "details": "It returns to the external caller whatever the implementation returns or forwards reverts There are an additional 2 prefix uints from the wrapper returndata, which we ignore since we make an extra hop.",
        "params": {
          "data": "The raw data to delegatecall"
        },
        "return": "The returned bytes from the delegatecall"
      },
      "getItemTimeLimitation(uint256)": {
        "details": "Retrieve user's start time for burning. ",
        "params": {
          "item": "item key."
        }
      },
      "getLockedBalance(address)": {
        "details": "Retrieve user's locked balance and locked net worth.  account user's account."
      },
      "getManager()": {
        "details": "get manager address.      "
      },
      "getTotalLockedWorth()": {
        "details": "Retrieve total locked worth. "
      },
      "getUserBurnTimeLimite(address)": {
        "details": "Retrieve user's start time for burning.  user user's account."
      },
      "isOwner()": {
        "details": "Returns true if the caller is the current owner."
      },
      "lockedBalanceOf(address)": {
        "details": "Retrieve user's locked balance.  account user's account."
      },
      "lockedWorthOf(address)": {
        "details": "Retrieve user's locked net worth.  account user's account."
      },
      "mint(address,uint256)": {
        "details": "mint user's FPT when user add collateral.  account user's account. amount amount of FPT."
      },
      "owner()": {
        "details": "Returns the address of the current owner."
      },
      "redeemLockedCollateral(address,uint256,uint256)": {
        "details": "An interface of redeem locked FPT, when user redeem collateral, only manager contract can invoke.  account user's account. tokenAmount amount of FPT. leftCollateral left available collateral in collateral pool, priced in USD."
      },
      "renounceOwnership()": {
        "details": "Leaves the contract without owner. It will not be possible to call `onlyOwner` functions anymore. Can only be called by the current owner.     * NOTE: Renouncing ownership will leave the contract without an owner, thereby removing any functionality that is only available to the owner."
      },
      "setManager(address)": {
        "details": "set manager by owner.      "
      },
      "setTimeLimitation(uint256)": {
        "details": "set time limitation, only owner can invoke. ",
        "params": {
          "_limitation": "new time limitation."
        }
      },
      "totalSupply()": {
        "return": "Whether or not the transfer succeeded"
      },
      "transferOwnership(address)": {
        "details": "Transfers ownership of the contract to a new account (`newOwner`). Can only be called by the current owner."
      }
    },
    "title": "FPTCoin is finnexus collateral Pool token, implement ERC20 interface."
  },
  "userdoc": {
    "methods": {
      "allowance(address,address)": {
        "notice": "Get the current allowance from `owner` for `spender` owner The address of the account which owns the tokens to be spent spender The address of the account which may transfer tokens"
      },
      "approve(address,uint256)": {
        "notice": "Approve `spender` to transfer up to `amount` from `src`"
      },
      "balanceOf(address)": {
        "notice": "Get the token balance of the `owner` owner The address of the account to query"
      },
      "delegateToImplementation(bytes)": {
        "notice": "Delegates execution to the implementation contract"
      },
      "delegateToViewImplementation(bytes)": {
        "notice": "Delegates execution to an implementation contract"
      },
      "totalSupply()": {
        "notice": "Transfer `amount` tokens from `msg.sender` to `dst` dst  The address of the destination account amount  The number of tokens to transfer"
      },
      "transferFrom(address,address,uint256)": {
        "notice": "Transfer `amount` tokens from `src` to `dst`"
      }
    }
  }
}