{
  "contractName": "ImpliedVolatility",
  "abi": [
    {
      "constant": false,
      "inputs": [],
      "name": "renounceOwnership",
      "outputs": [],
      "payable": false,
      "stateMutability": "nonpayable",
      "type": "function"
    },
    {
      "constant": true,
      "inputs": [],
      "name": "owner",
      "outputs": [
        {
          "name": "",
          "type": "address"
        }
      ],
      "payable": false,
      "stateMutability": "view",
      "type": "function"
    },
    {
      "constant": true,
      "inputs": [],
      "name": "isOwner",
      "outputs": [
        {
          "name": "",
          "type": "bool"
        }
      ],
      "payable": false,
      "stateMutability": "view",
      "type": "function"
    },
    {
      "constant": false,
      "inputs": [
        {
          "name": "addAddress",
          "type": "address"
        }
      ],
      "name": "addOperator",
      "outputs": [],
      "payable": false,
      "stateMutability": "nonpayable",
      "type": "function"
    },
    {
      "constant": false,
      "inputs": [
        {
          "name": "removeAddress",
          "type": "address"
        }
      ],
      "name": "removeOperator",
      "outputs": [
        {
          "name": "",
          "type": "bool"
        }
      ],
      "payable": false,
      "stateMutability": "nonpayable",
      "type": "function"
    },
    {
      "constant": false,
      "inputs": [
        {
          "name": "index",
          "type": "uint256"
        },
        {
          "name": "addAddress",
          "type": "address"
        }
      ],
      "name": "setOperator",
      "outputs": [],
      "payable": false,
      "stateMutability": "nonpayable",
      "type": "function"
    },
    {
      "constant": true,
      "inputs": [],
      "name": "getOperator",
      "outputs": [
        {
          "name": "",
          "type": "address[]"
        }
      ],
      "payable": false,
      "stateMutability": "view",
      "type": "function"
    },
    {
      "constant": false,
      "inputs": [
        {
          "name": "newOwner",
          "type": "address"
        }
      ],
      "name": "transferOwnership",
      "outputs": [],
      "payable": false,
      "stateMutability": "nonpayable",
      "type": "function"
    },
    {
      "inputs": [],
      "payable": false,
      "stateMutability": "nonpayable",
      "type": "constructor"
    },
    {
      "anonymous": false,
      "inputs": [
        {
          "indexed": true,
          "name": "value1",
          "type": "uint256"
        },
        {
          "indexed": true,
          "name": "value2",
          "type": "uint256"
        },
        {
          "indexed": true,
          "name": "value3",
          "type": "uint256"
        }
      ],
      "name": "DebugEvent",
      "type": "event"
    },
    {
      "anonymous": false,
      "inputs": [
        {
          "indexed": false,
          "name": "value1",
          "type": "int256"
        },
        {
          "indexed": false,
          "name": "value2",
          "type": "int256"
        },
        {
          "indexed": false,
          "name": "value3",
          "type": "int256"
        }
      ],
      "name": "DebugEventInt",
      "type": "event"
    },
    {
      "anonymous": false,
      "inputs": [
        {
          "indexed": true,
          "name": "previousOwner",
          "type": "address"
        },
        {
          "indexed": true,
          "name": "newOwner",
          "type": "address"
        }
      ],
      "name": "OwnershipTransferred",
      "type": "event"
    },
    {
      "constant": false,
      "inputs": [
        {
          "name": "underlying",
          "type": "uint32"
        },
        {
          "name": "_Iv0",
          "type": "uint256"
        }
      ],
      "name": "SetAtmIv",
      "outputs": [],
      "payable": false,
      "stateMutability": "nonpayable",
      "type": "function"
    },
    {
      "constant": false,
      "inputs": [
        {
          "name": "underlying",
          "type": "uint32"
        },
        {
          "name": "_paramA",
          "type": "int256"
        },
        {
          "name": "_paramB",
          "type": "int256"
        },
        {
          "name": "_paramC",
          "type": "int256"
        },
        {
          "name": "_paramD",
          "type": "int256"
        },
        {
          "name": "_paramE",
          "type": "int256"
        }
      ],
      "name": "SetFormulasParam",
      "outputs": [],
      "payable": false,
      "stateMutability": "nonpayable",
      "type": "function"
    },
    {
      "constant": false,
      "inputs": [
        {
          "name": "underlying",
          "type": "uint32"
        },
        {
          "name": "IvRate",
          "type": "uint256[]"
        }
      ],
      "name": "SetATMIvRate",
      "outputs": [],
      "payable": false,
      "stateMutability": "nonpayable",
      "type": "function"
    },
    {
      "constant": true,
      "inputs": [
        {
          "name": "underlying",
          "type": "uint32"
        },
        {
          "name": "optType",
          "type": "uint8"
        },
        {
          "name": "expiration",
          "type": "uint256"
        },
        {
          "name": "currentPrice",
          "type": "uint256"
        },
        {
          "name": "strikePrice",
          "type": "uint256"
        }
      ],
      "name": "calculateIv",
      "outputs": [
        {
          "name": "",
          "type": "uint256"
        },
        {
          "name": "",
          "type": "uint256"
        }
      ],
      "payable": false,
      "stateMutability": "view",
      "type": "function"
    }
  ],
  "bytecode": "0x60806040523480156200001157600080fd5b5060008054600160a060020a0319163317808255604051600160a060020a039190911691907f8be0079c531659141344cd1fd0a4f28419497f9722a3daafe3b4186f6b6457e0908290a36302e78f907fe90b7bceb6e7df5418fb78d8ee546e97c83a08bbccc01a0644d599ccd2a7c2e08190557f679795a0195a1b76cdebb7c51d74e058aee92919b8c3389af86ef24535e8a28c55640129a684b1197fa15bc60c955c405d20d9149c709e2460f1c2d9a497496a7f46004d1772c3054c8190557fc3a24b0501bd2c13a7e57f2db4369ec4c223447539fc0724a9d55ac4a06ebd4d5564012a05f2007fabd6e7cb50984ff9c2f3e18a2660c3353dadf4e3291deeb275dae2cd1e44fe058190557f91da3fd0782e51c6b3986e9e672fd566868e71f3dbc2d6c2cd6fbb3e361af2a755624c4b3f197f1471eb6eb2c5e789fc3de43f8ce62938c7d1836ec861730447e2ada8fd81017b8190557f89832631fb3c3307a103ba2c84ab569c64d6182a18893dcd163f0f1c2090733a55624c4b407f3e5fec24aa4dc4e5aee2e025e51e1392c72a2500577559fae9665c6d52bd6a318190557f8819ef417987f8ae7a81f42cdfb18815282fe989326fbff903d13cf0e03ace29556305f5e1007fb39221ace053465ec3453ce2b36430bd138b997ecea25c1043da0c366812b8288190557fb7c774451310d1be4108bc180d1b52823cb0ee0274a6c0081bcaf94f115fb96d81905560408051610b408101825291825263067a39ce6020838101919091526306cce7379183019190915263070a0d42606083015263073af5256080830152630763e67260a083015263078738ef60c08301526307a65a3e60e08301526307c23a736101008301526307db800a6101208301526307f2a360610140830152630807fe6f61016083015263081bd64d61018083015263082e61386101a083015263083fca9a6101c083015263085035bf6101e083015263085fbfc061020083015263086e80ea61022083015263087c8db9610240830152630889f7a4610260830152630896cda76102808301526308a31cbd6102a08301526308aef0356102c08301526308ba51fb6102e08301526308c54acf6103008301526308cfe2726103208301526308da1fd06103408301526308e409176103608301526308eda3d76103808301526308f6f5156103a0830152630900015b6103c0830152630908ccc96103e08301526309115b21610400830152630919afd2610420830152630921ce03610440830152630929b898610460830152630931723b610480830152630938fd606104a08301526309405c4e6104c083015263094791216104e083015263094e9dce610500830152630955842761052083015263095c45e0610540830152630962e48d61056083015263096961aa61058083015263096fbe9b6105a0830152630975fcae6105c083015263097c1d1b6105e08301526309822109610600830152630988098e61062083015263098dd7af6106408301526309938c64610660830152630999289461068083015263099ead1e6106a08301526309a41ad26106c08301526309a972776106e08301526309aeb4c96107008301526309b3e27a6107208301526309b8fc356107408301526309be029a6107608301526309c2f6456107808301526309c7d7c76107a08301526309cca7ac6107c08301526309d1667b6107e08301526309d614b36108008301526309dab2ce6108208301526309df41416108408301526309e3c07a6108608301526309e830e76108808301526309ec92ec6108a08301526309f0e6ed6108c08301526309f52d476108e08301526309f966566109008301526309fd9271610920830152630a01b1ec610940830152630a05c516610960830152630a09cc3e610980830152630a0dc7ae6109a0830152630a11b7ae6109c0830152630a159c846109e0830152630a197672610a00830152630a1d45b8610a20830152630a210a95610a40830152630a24c545610a60830152630a287602610a80830152630a2c1d04610aa0830152630a2fba81610ac0830152630a334eae610ae0830152630a36d9bd610b00830152630a3a5bdf610b20830152600160005260089052620006289060008051602062001b8d83398151915290605a62000679565b506008602052600260005260008051602062001b8d833981519152805462000672917f6add646517a5b0f6793cd5891b7937d28a5b2981a5d88ebc7cd776088fea904191620006d1565b5062000734565b828054828255906000526020600020908101928215620006bf579160200282015b82811115620006bf578251829063ffffffff169055916020019190600101906200069a565b50620006cd92915062000714565b5090565b828054828255906000526020600020908101928215620006bf5760005260206000209182015b82811115620006bf578254825591600101919060010190620006f7565b6200073191905b80821115620006cd57600081556001016200071b565b90565b61144980620007446000396000f3006080604052600436106100b95763ffffffff7c01000000000000000000000000000000000000000000000000000000006000350416630797296c81146100be578063148c26cd146100ed578063185d12321461014d578063715018a6146101935780638da5cb5b146101a85780638f32d59b146101d95780639870d7fe14610202578063ac8a584a14610223578063ae96870914610244578063e7a1c1c014610265578063e7f43c6814610289578063f2fde38b146102ee575b600080fd5b3480156100ca57600080fd5b506100eb63ffffffff6004351660243560443560643560843560a43561030f565b005b3480156100f957600080fd5b506040805160206004602480358281013584810280870186019097528086526100eb96843563ffffffff169636966044959194909101929182918501908490808284375094975061039f9650505050505050565b34801561015957600080fd5b5061017a63ffffffff6004351660ff60243516604435606435608435610416565b6040805192835260208301919091528051918290030190f35b34801561019f57600080fd5b506100eb61045f565b3480156101b457600080fd5b506101bd610502565b60408051600160a060020a039092168252519081900360200190f35b3480156101e557600080fd5b506101ee610512565b604080519115158252519081900360200190f35b34801561020e57600080fd5b506100eb600160a060020a0360043516610523565b34801561022f57600080fd5b506101ee600160a060020a0360043516610583565b34801561025057600080fd5b506100eb63ffffffff600435166024356105e8565b34801561027157600080fd5b506100eb600435600160a060020a03602435166106b5565b34801561029557600080fd5b5061029e610743565b60408051602080825283518183015283519192839290830191858101910280838360005b838110156102da5781810151838201526020016102c2565b505050509050019250505060405180910390f35b3480156102fa57600080fd5b506100eb600160a060020a03600435166107a5565b610317610512565b151561035b576040805160e560020a62461bcd02815260206004820181905260248201526000805160206113fe833981519152604482015290519081900360640190fd5b63ffffffff90951660009081526003602090815260408083209690965560048152858220949094556005845284812092909255600683528382205560079091522055565b6103a7610512565b15156103eb576040805160e560020a62461bcd02815260206004820181905260248201526000805160206113fe833981519152604482015290519081900360640190fd5b63ffffffff82166000908152600860209081526040909120825161041192840190611361565b505050565b600080600061042588876107fa565b90508385141561043e57806305f5e10092509250610454565b61044a888287876108fa565b6305f5e100925092505b509550959350505050565b610467610512565b15156104ab576040805160e560020a62461bcd02815260206004820181905260248201526000805160206113fe833981519152604482015290519081900360640190fd5b60008054604051600160a060020a03909116907f8be0079c531659141344cd1fd0a4f28419497f9722a3daafe3b4186f6b6457e0908390a36000805473ffffffffffffffffffffffffffffffffffffffff19169055565b600054600160a060020a03165b90565b600054600160a060020a0316331490565b61052b610512565b151561056f576040805160e560020a62461bcd02815260206004820181905260248201526000805160206113fe833981519152604482015290519081900360640190fd5b61058060018263ffffffff610a8116565b50565b600061058d610512565b15156105d1576040805160e560020a62461bcd02815260206004820181905260248201526000805160206113fe833981519152604482015290519081900360640190fd5b6105e260018363ffffffff610b2716565b92915050565b6001546000908110801561061f5750600180543391908390811061060857fe5b600091825260209091200154600160a060020a0316145b151561069b576040805160e560020a62461bcd02815260206004820152603060248201527f4d616e6167657261626c653a2063616c6c6572206973206e6f7420746865206560448201527f6c696769626c65204f70657261746f7200000000000000000000000000000000606482015290519081900360840190fd5b5063ffffffff909116600090815260026020526040902055565b6106bd610512565b1515610701576040805160e560020a62461bcd02815260206004820181905260248201526000805160206113fe833981519152604482015290519081900360640190fd5b8060018381548110151561071157fe5b9060005260206000200160006101000a815481600160a060020a030219169083600160a060020a031602179055505050565b6060600180548060200260200160405190810160405280929190818152602001828054801561079b57602002820191906000526020600020905b8154600160a060020a0316815260019091019060200180831161077d575b5050505050905090565b6107ad610512565b15156107f1576040805160e560020a62461bcd02815260206004820181905260248201526000805160206113fe833981519152604482015290519081900360640190fd5b61058081610c16565b600062015180820481808215156108285763ffffffff861660009081526002602052604090205493506108f1565b63ffffffff8616600090815260086020526040902054915081831061084e576001820392505b6108cd620151808402620151808560010102600860008a63ffffffff1663ffffffff1681526020019081526020016000206001870381548110151561088f57fe5b600091825260208083209091015463ffffffff8c168352600890915260409091208054889081106108bc57fe5b906000526020600020015489610d04565b63ffffffff87166000908152600260205260409020546305f5e10090820204945090505b50505092915050565b6000806109056113ac565b61090d6113ac565b60006305f5e1009350610921898888610d7f565b60408051808201825263ffffffff808d1660009081526007602090815293902054825291810187905291945061096c91906109609086908190610e3616565b9063ffffffff610e5f16565b8051850285028152915061097f82610e81565b80518502815263ffffffff808b16600090815260056020526040902054855102860285529092506109b49084908490610e5f16565b60408051808201825263ffffffff808d166000908152600460209081529390205482529181018790529194506109ec918591610e3616565b60408051808201825263ffffffff808d166000908152600360209081529390205488028252600192820192909252919450610a29918591610e5f16565b60408051808201909152898002815260016020820152909350610a5390849063ffffffff610e5f16565b925082602001518360000151811515610a6857fe5b059050610a7481610f28565b9998505050505050505050565b610ae482805480602002602001604051908101604052809291908181526020018280548015610ad957602002820191906000526020600020905b8154600160a060020a03168152600190910190602001808311610abb575b505050505082610f63565b1515610b2357815460018101835560008381526020902001805473ffffffffffffffffffffffffffffffffffffffff1916600160a060020a0383161790555b5050565b8154600090815b81811015610b765783600160a060020a03168582815481101515610b4e57fe5b600091825260209091200154600160a060020a03161415610b6e57610b76565b600101610b2e565b81811015610c095760001982018114610bef578460018303815481101515610b9a57fe5b6000918252602090912001548554600160a060020a0390911690869083908110610bc057fe5b9060005260206000200160006101000a815481600160a060020a030219169083600160a060020a031602179055505b8454610bff8660001983016113c3565b5060019250610c0e565b600092505b505092915050565b600160a060020a0381161515610c9c576040805160e560020a62461bcd02815260206004820152602660248201527f4f776e61626c653a206e6577206f776e657220697320746865207a65726f206160448201527f6464726573730000000000000000000000000000000000000000000000000000606482015290519081900360840190fd5b60008054604051600160a060020a03808516939216917f8be0079c531659141344cd1fd0a4f28419497f9722a3daafe3b4186f6b6457e091a36000805473ffffffffffffffffffffffffffffffffffffffff1916600160a060020a0392909216919091179055565b600084861415610d5e576040805160e560020a62461bcd02815260206004820152601c60248201527f696e7075742076616c75657320617265206475706c6963617465642100000000604482015290519081900360640190fd5b85850386830385850302811515610d7157fe5b048401905095945050505050565b610d876113ac565b610d8f6113ac565b82841415610dcc5760408051808201825263ffffffff87166000908152600660209081529290205481526305f5e100918101919091529150610e2e565b610ded610dd884610fb4565b610de186610fb4565b9063ffffffff610fee16565b60408051808201825263ffffffff8089166000908152600660209081529390205482526305f5e10092820192909252919250610e2b918391610e5f16565b91505b509392505050565b610e3e6113ac565b610e58610e4a84611010565b610e5384611010565b6110b1565b9392505050565b610e676113ac565b610e58610e7384611010565b610e7c84611010565b6110df565b610e896113ac565b8151600013801590610ea057506000826020015112155b1515610ef6576040805160e560020a62461bcd02815260206004820181905260248201527f53717274206d75737420696e707574206120706f7369746976652076616c7565604482015290519081900360640190fd5b6040805190810160405280610f0e8460000151610f28565b8152602001610f208460200151610f28565b905292915050565b80600260018201045b81811015610f5d578091506002818285811515610f4a57fe5b0401811515610f5557fe5b049050610f31565b50919050565b8151600090815b81811015610c095783600160a060020a03168582815181101515610f8a57fe5b90602001906020020151600160a060020a03161415610fac5760019250610c0e565b600101610f6a565b610fbc6113ac565b604080518082019091526401000000009092029180610fda84611118565b815264010000000060209091015292915050565b610ff66113ac565b610e5861100284611010565b61100b84611010565b61119d565b6110186113ac565b600080600061102a85600001516111d9565b925061103985602001516111d9565b915082821315611085576f01000000000000000000000000000000821315611080576050825b60029190910a90059050611079858263ffffffff6111ef16565b93506110a9565b6110a5565b6f010000000000000000000000000000008313156110a55760508361105f565b8493505b505050919050565b6110b96113ac565b506040805180820190915281518351028152602091820151928201519092029082015290565b6110e76113ac565b5060408051808201909152602080840180518451858401805188510291909202018452519051029082015292915050565b600080640100000000831015611178576040805160e560020a62461bcd02815260206004820181905260248201527f6c6f67652066756e6374696f6e20696e70757420697320746f6f20736d616c6c604482015290519081900360640190fd5b6111818361128b565b67010000000000000066b17217f7d1cf78909102049392505050565b6111a56113ac565b5060408051808201909152602080840180518451858401805188519290930291909202038452519051029082015292915050565b60008082126111e857816105e2565b5060000390565b6111f76113ac565b60208301518212611252576040805160e560020a62461bcd02815260206004820152601b60248201527f6672616374696f6e206e756d626572206973206f766572666c6f770000000000604482015290519081900360640190fd5b604080519081016040528083856000015181151561126c57fe5b05815260200183856020015181151561128157fe5b0590529392505050565b600080806401000000008410156112ec576040805160e560020a62461bcd02815260206004820152601760248201527f4c6f673220696e70757420697320746f6f20736d616c6c000000000000000000604482015290519081900360640190fd5b600091505b64020000000084106113135760029093049264010000000091909101906112f1565b5060005b602060ff8216101561135a576401000000008480020493506402000000008410611352576002938490049360ff601f83900316900a91909101905b600101611317565b5092915050565b82805482825590600052602060002090810192821561139c579160200282015b8281111561139c578251825591602001919060010190611381565b506113a89291506113e3565b5090565b604080518082019091526000808252602082015290565b815481835581811115610411576000838152602090206104119181019083015b61050f91905b808211156113a857600081556001016113e956004f776e61626c653a2063616c6c6572206973206e6f7420746865206f776e6572a165627a7a72305820c27dfccc257680b42acd1ec5b39855fdcf93f122b6d2d47f9bf928aff98ba0420029ad67d757c34507f157cacfa2e3153e9f260a2244f30428821be7be64587ac55f",
  "source": "pragma solidity ^0.4.26;\r\nimport \"./modules/Operator.sol\";\r\nimport \"./modules/Fraction.sol\";\r\ncontract ImpliedVolatility is Operator {\r\n    using Fraction for Fraction.fractionNumber;\r\n    uint256 constant private _calDecimal = 1e8;\r\n    uint256 constant private DaySecond = 1 days;\r\n    mapping(uint32=>uint256) internal ATMIv0;\r\n    mapping(uint32=>int256) internal paramA;\r\n    mapping(uint32=>int256) internal paramB;\r\n    mapping(uint32=>int256) internal paramC;\r\n    mapping(uint32=>int256) internal paramD;\r\n    mapping(uint32=>int256) internal paramE;\r\n    mapping(uint32=>uint256[]) internal ATMIvRate;\r\n    event DebugEvent(uint256 indexed value1,uint256 indexed value2,uint256 indexed value3);\r\n    event DebugEventInt(int256 value1,int256 value2,int256 value3);\r\n    mapping(address=>uint256) internal debugMap;\r\n    constructor () public{\r\n        ATMIv0[1] = 48730000;\r\n        ATMIv0[2] = 48730000;\r\n        paramA[1] = -4993746098;\r\n        paramA[2] = -4993746098;\r\n        paramB[1] = 50e8;\r\n        paramB[2] = 50e8;\r\n        paramC[1] = -5000000;\r\n        paramC[2] = -5000000;\r\n        paramD[1] = 5000000;\r\n        paramD[2] = 5000000;\r\n        paramE[1] = 1e8;\r\n        paramE[2] = 1e8;\r\n        ATMIvRate[1] = [100000000,108673486,114091831,118099266,121304357,123987570,126302447,128342590,130169459,131825674,\r\n                        133342048,134741615,136042061,137257272,138398362,139474367,140492736,141459690,142380473,143259556,\r\n                        144100775,144907453,145682485,146428411,147147471,147841650,148512720,149162263,149791703,150402325,\r\n                        150995291,151571657,152132385,152678354,153210371,153729176,154235451,154729824,155212878,155685153,\r\n                        156147150,156599335,157042144,157475981,157901226,158318235,158727342,159128859,159523081,159910286,\r\n                        160290735,160664676,161032340,161393950,161749714,162099831,162444489,162783866,163118133,163447450,\r\n                        163771973,164091847,164407212,164718203,165024947,165327566,165626177,165920890,166211815,166499052,\r\n                        166782701,167062855,167339606,167613041,167883244,168150294,168414270,168675246,168933294,169188484,\r\n                        169440882,169690552,169937557,170181957,170423810,170663172,170900097,171134638,171366845,171596767];\r\n         ATMIvRate[2] =  ATMIvRate[1];\r\n    }\r\n    function SetAtmIv(uint32 underlying,uint256 _Iv0)public onlyOperatorIndex(0){\r\n        ATMIv0[underlying] = _Iv0;\r\n    }\r\n    function SetFormulasParam(uint32 underlying,int256 _paramA,int256 _paramB,int256 _paramC,int256 _paramD,int256 _paramE)\r\n        public onlyOwner{\r\n        paramA[underlying] = _paramA;\r\n        paramB[underlying] = _paramB;\r\n        paramC[underlying] = _paramC;\r\n        paramD[underlying] = _paramD;\r\n        paramE[underlying] = _paramE;\r\n    }\r\n    function SetATMIvRate(uint32 underlying,uint256[] IvRate)public onlyOwner{\r\n        ATMIvRate[underlying] = IvRate;\r\n    }\r\n    function calculateIv(uint32 underlying,uint8 optType,uint256 expiration,uint256 currentPrice,uint256 strikePrice)public view returns (uint256,uint256){\r\n        uint256 iv = calATMIv(underlying,expiration);\r\n        if (currentPrice == strikePrice){\r\n            return (iv,_calDecimal);\r\n        }\r\n        return (calImpliedVolatility(underlying,iv,currentPrice,strikePrice),_calDecimal);\r\n    }\r\n    function calATMIv(uint32 underlying,uint256 expiration)internal view returns(uint256){\r\n        uint256 index = expiration/DaySecond;\r\n        \r\n        if (index == 0){\r\n            return ATMIv0[underlying];\r\n        }\r\n        uint256 len = ATMIvRate[underlying].length;\r\n        if (index>=len){\r\n            index = len-1;\r\n        }\r\n        uint256 rate = insertValue(index*DaySecond,(index+1)*DaySecond,ATMIvRate[underlying][index-1],ATMIvRate[underlying][index],expiration);\r\n        return ATMIv0[underlying]*rate/_calDecimal;\r\n    }\r\n    function calImpliedVolatility(uint32 underlying,uint256 _ATMIv,uint256 currentPrice,uint256 strikePrice)internal view returns(uint256){\r\n        int256 intDecimal = int256(_calDecimal);\r\n        Fraction.fractionNumber memory ln = calImpliedVolLn(underlying,currentPrice,strikePrice);\r\n        //ln*ln+e\r\n        Fraction.fractionNumber memory lnSqrt = ln.mul(ln).add(Fraction.fractionNumber(paramE[underlying],intDecimal)); \r\n        lnSqrt.numerator = lnSqrt.numerator*intDecimal*intDecimal;\r\n        lnSqrt = lnSqrt.sqrt();  \r\n        lnSqrt.numerator = lnSqrt.numerator*intDecimal;\r\n        //ln*c+sqrt\r\n        ln.numerator = ln.numerator*paramC[underlying]*intDecimal;\r\n        ln = ln.add(lnSqrt);\r\n\r\n        ln = ln.mul(Fraction.fractionNumber(paramB[underlying],intDecimal));\r\n        ln = ln.add(Fraction.fractionNumber(paramA[underlying]*intDecimal,1));\r\n        ln = ln.add(Fraction.fractionNumber(int256(_ATMIv*_ATMIv),1));\r\n        uint256 sqrtNum = uint256(ln.numerator/ln.denominator);\r\n        return Fraction.sqrt(sqrtNum);\r\n    }\r\n    //ln(k) - ln(s) + d\r\n    function calImpliedVolLn(uint32 underlying,uint256 currentPrice,uint256 strikePrice)internal view returns(Fraction.fractionNumber memory){\r\n        if (currentPrice == strikePrice){\r\n            return Fraction.fractionNumber(paramD[underlying],int256(_calDecimal));\r\n        }\r\n        Fraction.fractionNumber memory ln = Fraction.ln(currentPrice).sub(Fraction.ln(strikePrice));\r\n        return ln.add(Fraction.fractionNumber(paramD[underlying],int256(_calDecimal)));\r\n    }\r\n    function insertValue(uint256 x0,uint256 x1,uint256 y0, uint256 y1,uint256 x)internal pure returns (uint256){\r\n        require(x1 != x0,\"input values are duplicated!\");\r\n        return y0 + (y1-y0)*(x-x0)/(x1-x0);\r\n    }\r\n\r\n}\r\n",
  "sourcePath": "C:\\work\\solidity\\FinnexusOptions_V2\\contracts\\impliedVolatility.sol",
  "compiler": {
    "name": "solc",
    "version": "0.4.26+commit.4563c3fc.Emscripten.clang"
  },
  "schemaVersion": "3.1.0",
  "updatedAt": "2020-08-12T10:47:34.980Z",
  "devdoc": {
    "methods": {
      "isOwner()": {
        "details": "Returns true if the caller is the current owner."
      },
      "owner()": {
        "details": "Returns the address of the current owner."
      },
      "renounceOwnership()": {
        "details": "Leaves the contract without owner. It will not be possible to call `onlyOwner` functions anymore. Can only be called by the current owner.     * NOTE: Renouncing ownership will leave the contract without an owner, thereby removing any functionality that is only available to the owner."
      },
      "transferOwnership(address)": {
        "details": "Transfers ownership of the contract to a new account (`newOwner`). Can only be called by the current owner."
      }
    }
  },
  "userdoc": {
    "methods": {}
  }
}