{
  "contractName": "ImpliedVolatility",
  "abi": [
    {
      "constant": false,
      "inputs": [],
      "name": "renounceOwnership",
      "outputs": [],
      "payable": false,
      "stateMutability": "nonpayable",
      "type": "function"
    },
    {
      "constant": true,
      "inputs": [],
      "name": "owner",
      "outputs": [
        {
          "name": "",
          "type": "address"
        }
      ],
      "payable": false,
      "stateMutability": "view",
      "type": "function"
    },
    {
      "constant": true,
      "inputs": [],
      "name": "isOwner",
      "outputs": [
        {
          "name": "",
          "type": "bool"
        }
      ],
      "payable": false,
      "stateMutability": "view",
      "type": "function"
    },
    {
      "constant": false,
      "inputs": [
        {
          "name": "newOwner",
          "type": "address"
        }
      ],
      "name": "transferOwnership",
      "outputs": [],
      "payable": false,
      "stateMutability": "nonpayable",
      "type": "function"
    },
    {
      "anonymous": false,
      "inputs": [
        {
          "indexed": true,
          "name": "previousOwner",
          "type": "address"
        },
        {
          "indexed": true,
          "name": "newOwner",
          "type": "address"
        }
      ],
      "name": "OwnershipTransferred",
      "type": "event"
    },
    {
      "constant": false,
      "inputs": [
        {
          "name": "timeLimit",
          "type": "uint256"
        }
      ],
      "name": "setValidUntil",
      "outputs": [],
      "payable": false,
      "stateMutability": "nonpayable",
      "type": "function"
    },
    {
      "constant": false,
      "inputs": [
        {
          "name": "underlying",
          "type": "uint32"
        },
        {
          "name": "optType",
          "type": "uint8"
        },
        {
          "name": "expirationAry",
          "type": "uint32[]"
        },
        {
          "name": "childlen",
          "type": "uint32[]"
        },
        {
          "name": "priceAry",
          "type": "uint64[]"
        },
        {
          "name": "ivAry",
          "type": "uint64[]"
        }
      ],
      "name": "setIvMatrix",
      "outputs": [],
      "payable": false,
      "stateMutability": "nonpayable",
      "type": "function"
    },
    {
      "constant": true,
      "inputs": [
        {
          "name": "underlying",
          "type": "uint32"
        },
        {
          "name": "optType",
          "type": "uint8"
        },
        {
          "name": "expiration",
          "type": "uint256"
        },
        {
          "name": "price",
          "type": "uint256"
        }
      ],
      "name": "calculateIv",
      "outputs": [
        {
          "name": "",
          "type": "uint256"
        },
        {
          "name": "",
          "type": "uint256"
        }
      ],
      "payable": false,
      "stateMutability": "view",
      "type": "function"
    }
  ],
  "bytecode": "0x608060408190526104b060015560008054600160a060020a0319163317808255600160a060020a0316917f8be0079c531659141344cd1fd0a4f28419497f9722a3daafe3b4186f6b6457e0908290a3610d818061005d6000396000f3006080604052600436106100825763ffffffff7c01000000000000000000000000000000000000000000000000000000006000350416631105312b8114610087578063634099cc1461019b578063715018a6146101b35780638da5cb5b146101c85780638f32d59b146101f9578063b4277bc114610222578063f2fde38b14610265575b600080fd5b34801561009357600080fd5b50604080516020600460443581810135838102808601850190965280855261019995833563ffffffff16956024803560ff1696369695606495939492019291829185019084908082843750506040805187358901803560208181028481018201909552818452989b9a998901989297509082019550935083925085019084908082843750506040805187358901803560208181028481018201909552818452989b9a998901989297509082019550935083925085019084908082843750506040805187358901803560208181028481018201909552818452989b9a9989019892975090820195509350839250850190849080828437509497506102869650505050505050565b005b3480156101a757600080fd5b5061019960043561056e565b3480156101bf57600080fd5b506101996105bf565b3480156101d457600080fd5b506101dd610662565b60408051600160a060020a039092168252519081900360200190f35b34801561020557600080fd5b5061020e610672565b604080519115158252519081900360200190f35b34801561022e57600080fd5b5061024c63ffffffff6004351660ff60243516604435606435610683565b6040805192835260208301919091528051918290030190f35b34801561027157600080fd5b50610199600160a060020a0360043516610889565b60008060008060006060600080600061029d610672565b15156102e1576040805160e560020a62461bcd0281526020600482018190526024820152600080516020610d36833981519152604482015290519081900360640190fd5b6102eb8f8f6108e1565b8a518c51919a501461036d576040805160e560020a62461bcd02815260206004820152602160248201527f696e7470757420617272617973206d7573742062652073616d65206c656e677460448201527f6800000000000000000000000000000000000000000000000000000000000000606482015290519081900360840190fd5b8b518d51146103ec576040805160e560020a62461bcd02815260206004820152602160248201527f696e7470757420617272617973206d7573742062652073616d65206c656e677460448201527f6800000000000000000000000000000000000000000000000000000000000000606482015290519081900360840190fd5b600089815260036020526040812098506104068982610c66565b5060009850600096505b8c5187101561055d578c8781518110151561042757fe5b9060200190602002015163ffffffff1695508b8781518110151561044757fe5b9060200190602002015163ffffffff16945084604051908082528060200260200182016040528015610483578160200160208202803883390190505b509350600092505b84831015610529578a898151811015156104a157fe5b9060200190602002015167ffffffffffffffff16915089898151811015156104c557fe5b60209081029091010151845167ffffffffffffffff909116915068010000000000000000830287017001000000000000000000000000000000008302019085908590811061050f57fe5b60209081029091010152600198890198929092019161048b565b875460018101808a5560008a81526020908190208751929361055093910191880190610c8f565b5050600190960195610410565b505050505050505050505050505050565b610576610672565b15156105ba576040805160e560020a62461bcd0281526020600482018190526024820152600080516020610d36833981519152604482015290519081900360640190fd5b600155565b6105c7610672565b151561060b576040805160e560020a62461bcd0281526020600482018190526024820152600080516020610d36833981519152604482015290519081900360640190fd5b60008054604051600160a060020a03909116907f8be0079c531659141344cd1fd0a4f28419497f9722a3daafe3b4186f6b6457e0908390a36000805473ffffffffffffffffffffffffffffffffffffffff19169055565b600054600160a060020a03165b90565b600054600160a060020a0316331490565b600080600080600080600080600061069b8d8d6108e1565b6000818152600360205260409020805491985096509450600285101561070b576040805160e560020a62461bcd02815260206004820152601c60248201527f7072696365206976206c697374206973206c657373207468616e203200000000604482015290519081900360640190fd5b600093505b8484101561076757610751868581548110151561072957fe5b90600052602060002001600081548110151561074157fe5b90600052602060002001546108f6565b8b1161075c57610767565b600190930192610710565b8315156107ed576107df86600081548110151561078057fe5b906000526020600020018054806020026020016040519081016040528092919081815260200182805480156107d457602002820191906000526020600020905b8154815260200190600101908083116107c0575b50505050508b610903565b6305f5e10098509850610879565b8484106107fb576001850393505b61080f866001860381548110151561078057fe5b9250610822868581548110151561078057fe5b915061085461083b876001870381548110151561072957fe5b61084c888781548110151561072957fe5b85858f610a53565b90506000811361086e57600198506305f5e1009750610879565b806305f5e100985098505b5050505050505094509492505050565b610891610672565b15156108d5576040805160e560020a62461bcd0281526020600482018190526024820152600080516020610d36833981519152604482015290519081900360640190fd5b6108de81610ace565b50565b60ff1663ffffffff9190911662010000020190565b67ffffffffffffffff1690565b81516000908180806002841015610964576040805160e560020a62461bcd02815260206004820152601c60248201527f7072696365206976206c697374206973206c657373207468616e203200000000604482015290519081900360640190fd5b61096e8787610bbc565b9250838310610982576001840392506109d3565b6109a2878481518110151561099357fe5b90602001906020020151610c36565b9150858214156109d3576109cc87848151811015156109bd57fe5b90602001906020020151610c4f565b9450610a49565b8215156109df57600192505b610a326109f6886001860381518110151561099357fe5b610a07898681518110151561099357fe5b610a1b8a600188038151811015156109bd57fe5b610a2c8b888151811015156109bd57fe5b8a610a53565b905060008113610a455760019450610a49565b8094505b5050505092915050565b600084861415610aad576040805160e560020a62461bcd02815260206004820152601c60248201527f696e7075742076616c75657320617265206475706c6963617465642100000000604482015290519081900360640190fd5b85850386830385850302811515610ac057fe5b058401905095945050505050565b600160a060020a0381161515610b54576040805160e560020a62461bcd02815260206004820152602660248201527f4f776e61626c653a206e6577206f776e657220697320746865207a65726f206160448201527f6464726573730000000000000000000000000000000000000000000000000000606482015290519081900360840190fd5b60008054604051600160a060020a03808516939216917f8be0079c531659141344cd1fd0a4f28419497f9722a3daafe3b4186f6b6457e091a36000805473ffffffffffffffffffffffffffffffffffffffff1916600160a060020a0392909216919091179055565b815160009081906000190181805b828411610c2b576002838501049150610bea878381518110151561099357fe5b905085811415610bfc57819450610a49565b85811215610c0f57816001019350610c26565b811515610c1f5760009450610a49565b6001820392505b610bca565b509195945050505050565b68010000000000000000900467ffffffffffffffff1690565b700100000000000000000000000000000000900490565b815481835581811115610c8a57600083815260209020610c8a918101908301610cda565b505050565b828054828255906000526020600020908101928215610cca579160200282015b82811115610cca578251825591602001919060010190610caf565b50610cd6929150610cfd565b5090565b61066f91905b80821115610cd6576000610cf48282610d17565b50600101610ce0565b61066f91905b80821115610cd65760008155600101610d03565b50805460008255906000526020600020908101906108de9190610cfd56004f776e61626c653a2063616c6c6572206973206e6f7420746865206f776e6572a165627a7a723058207bc5dfbf0536b24cda9de14a113926b24cbfa7e5d23be5894f46c9cb64ca65310029",
  "source": "pragma solidity ^0.4.26;\r\nimport \"./modules/Ownable.sol\";\r\ncontract ImpliedVolatility is Ownable {\r\n    uint256 private ValidUntil = 1200;\r\n    uint256 constant private _calDecimal = 1e8;\r\n    uint256 private inptutTime;\r\n    mapping(uint256=>uint256[][]) private ivMatrixMap;\r\n    function setValidUntil(uint256 timeLimit) public onlyOwner {\r\n        ValidUntil = timeLimit;\r\n    }\r\n    //ivType == underlying << 16 + optType\r\n    function setIvMatrix(uint32 underlying,uint8 optType,uint32[]expirationAry,uint32[] childlen,uint64[] priceAry,uint64[] ivAry) public onlyOwner{\r\n        uint index = getKey(underlying,optType);\r\n        require(priceAry.length == ivAry.length,\"intput arrays must be same length\");\r\n        require(expirationAry.length == childlen.length,\"intput arrays must be same length\");\r\n        uint256[][] storage ivMatrix = ivMatrixMap[index];\r\n        ivMatrix.length = 0;\r\n        index = 0;\r\n        for (uint i=0;i<expirationAry.length;i++){\r\n            uint256 expiration = uint256(expirationAry[i]);\r\n            uint len1 = childlen[i];\r\n            uint256[] memory childAry = new uint256[](len1);\r\n            for (uint j=0;j<len1;j++){\r\n                uint256 price = uint256(priceAry[index]);\r\n                uint256 iv = uint256(ivAry[index]);\r\n                childAry[j] = expiration+(price<<64)+(iv<<128);\r\n                index++;\r\n            }\r\n            ivMatrix.push(childAry);\r\n        }\r\n    }\r\n    function getKey(uint32 underlying,uint8 optType) internal pure returns(uint256){\r\n        return (uint256(underlying) << 16)+ uint256(optType);\r\n    }\r\n    /**\r\n    /**\r\n  * @notice retrieves implied volatility of an asset\r\n  * @dev function to get implied volatility for an asset\r\n  * @param expiration the option expiration which has been created in option manger contract\r\n  * @param price the option underlying strikePrice which has been created in option manger contract\r\n  * @return uint mantissa of asset implied volatility (scaled by 1e18) or zero if unset or contract paused\r\n  */\r\n    function calculateIv(uint32 underlying,uint8 optType,uint256 expiration,uint256 price)public view returns (uint256,uint256){\r\n        uint256 ivType = getKey(underlying,optType);\r\n        uint256[][] storage ivMatrix = ivMatrixMap[ivType];\r\n        uint256 mxLen = ivMatrix.length;\r\n        require(mxLen>=2,\"price iv list is less than 2\");\r\n        for (uint256 i=0;i<mxLen;i++){\r\n            if (expiration<=uint256(getTime(ivMatrix[i][0]))){\r\n                break;\r\n            }\r\n        }\r\n        if (i == 0){\r\n            return (calculateTimeIv(ivMatrix[0],price),_calDecimal);\r\n        }else if (i >= mxLen){\r\n            i = mxLen - 1;\r\n        }\r\n        uint256 ivLow = calculateTimeIv(ivMatrix[i-1],price);\r\n        uint256 ivHigh = calculateTimeIv(ivMatrix[i],price);\r\n        int iv = insertValue(getTime(ivMatrix[i-1][0]),getTime(ivMatrix[i][0]),\r\n            int256(ivLow),int256(ivHigh),int256(expiration));\r\n        if (iv<=0){\r\n            return (1,_calDecimal);\r\n        }else{\r\n            return (uint256(iv),_calDecimal);\r\n        }\r\n    }\r\n    function calculateTimeIv(uint256[] memory _matrix,uint256 price)internal pure returns (uint256){\r\n        uint256 mxLen = _matrix.length;\r\n        require(mxLen>=2,\"price iv list is less than 2\");\r\n        uint256 index = binarySearch(_matrix,int256(price));\r\n        if (index >= mxLen){\r\n            index = mxLen-1;\r\n        }else{\r\n            int256 highPrice = getPrice(_matrix[index]);\r\n            if (uint256(highPrice) == price) {\r\n                return uint256(getIv(_matrix[index]));\r\n            }            \r\n        }\r\n        if(index == 0){\r\n            index = 1;\r\n        }\r\n        int iv = insertValue(getPrice(_matrix[index-1]),getPrice(_matrix[index]),\r\n            getIv(_matrix[index-1]),getIv(_matrix[index]),int256(price));\r\n        if (iv<=0){\r\n            return 1;\r\n        }else{\r\n            return uint256(iv);\r\n        }\r\n    }\r\n    function insertValue(int256 x0,int256 x1,int256 y0, int256 y1,int256 x)internal pure returns (int256){\r\n        require(x1 != x0,\"input values are duplicated!\");\r\n        return y0 + (y1-y0)*(x-x0)/(x1-x0);\r\n    }\r\n    function getTime(uint256 value)internal pure returns (int256) {\r\n        return int256(uint64(value));\r\n    }\r\n    function getPrice(uint256 value)internal pure returns (int256) {\r\n        return int256(uint64(value>>64));\r\n    }\r\n    function getIv(uint256 value)internal pure returns (int256) {\r\n        return int256(value>>128);\r\n    }\r\n    function binarySearch(uint256[] memory _matrix,int256 price)internal pure returns (uint256) {\r\n        uint256 low = 0;\r\n        uint256 high = _matrix.length - 1;\r\n        while (low <= high) {\r\n            uint256 mid = (high + low) / 2;\r\n            int256 midPrice = getPrice(_matrix[mid]);\r\n            if (midPrice == price){\r\n                return mid;\r\n            }else if (midPrice < price){\r\n                low = mid + 1;\r\n            } \r\n            else{\r\n                if (mid == 0){\r\n                    return 0;\r\n                }\r\n                high = mid - 1;\r\n            } \r\n        }\r\n        return low;\r\n    }\r\n}\r\n",
  "sourcePath": "C:\\work\\solidity\\FinnexusOptions_V2\\contracts\\impliedVolatility.sol",
  "compiler": {
    "name": "solc",
    "version": "0.4.26+commit.4563c3fc.Emscripten.clang"
  },
  "schemaVersion": "3.1.0",
  "updatedAt": "2020-08-03T14:27:23.446Z",
  "devdoc": {
    "methods": {
      "calculateIv(uint32,uint8,uint256,uint256)": {
        "details": "function to get implied volatility for an asset\r",
        "params": {
          "expiration": "the option expiration which has been created in option manger contract\r",
          "price": "the option underlying strikePrice which has been created in option manger contract\r"
        },
        "return": "uint mantissa of asset implied volatility (scaled by 1e18) or zero if unset or contract paused\r"
      },
      "isOwner()": {
        "details": "Returns true if the caller is the current owner."
      },
      "owner()": {
        "details": "Returns the address of the current owner."
      },
      "renounceOwnership()": {
        "details": "Leaves the contract without owner. It will not be possible to call `onlyOwner` functions anymore. Can only be called by the current owner.     * NOTE: Renouncing ownership will leave the contract without an owner, thereby removing any functionality that is only available to the owner."
      },
      "transferOwnership(address)": {
        "details": "Transfers ownership of the contract to a new account (`newOwner`). Can only be called by the current owner."
      }
    }
  },
  "userdoc": {
    "methods": {
      "calculateIv(uint32,uint8,uint256,uint256)": {
        "notice": "/**\rretrieves implied volatility of an asset\r"
      }
    }
  }
}