{
  "contractName": "ImpliedVolatilityOld",
  "abi": [
    {
      "inputs": [],
      "payable": false,
      "stateMutability": "nonpayable",
      "type": "constructor"
    },
    {
      "anonymous": false,
      "inputs": [
        {
          "indexed": true,
          "internalType": "address",
          "name": "previousOwner",
          "type": "address"
        },
        {
          "indexed": true,
          "internalType": "address",
          "name": "newOwner",
          "type": "address"
        }
      ],
      "name": "OwnershipTransferred",
      "type": "event"
    },
    {
      "constant": false,
      "inputs": [
        {
          "internalType": "address",
          "name": "addAddress",
          "type": "address"
        }
      ],
      "name": "addOperator",
      "outputs": [],
      "payable": false,
      "stateMutability": "nonpayable",
      "type": "function"
    },
    {
      "constant": true,
      "inputs": [],
      "name": "getOperator",
      "outputs": [
        {
          "internalType": "address[]",
          "name": "",
          "type": "address[]"
        }
      ],
      "payable": false,
      "stateMutability": "view",
      "type": "function"
    },
    {
      "constant": true,
      "inputs": [],
      "name": "isOwner",
      "outputs": [
        {
          "internalType": "bool",
          "name": "",
          "type": "bool"
        }
      ],
      "payable": false,
      "stateMutability": "view",
      "type": "function"
    },
    {
      "constant": true,
      "inputs": [],
      "name": "owner",
      "outputs": [
        {
          "internalType": "address",
          "name": "",
          "type": "address"
        }
      ],
      "payable": false,
      "stateMutability": "view",
      "type": "function"
    },
    {
      "constant": false,
      "inputs": [
        {
          "internalType": "address",
          "name": "removeAddress",
          "type": "address"
        }
      ],
      "name": "removeOperator",
      "outputs": [
        {
          "internalType": "bool",
          "name": "",
          "type": "bool"
        }
      ],
      "payable": false,
      "stateMutability": "nonpayable",
      "type": "function"
    },
    {
      "constant": false,
      "inputs": [],
      "name": "renounceOwnership",
      "outputs": [],
      "payable": false,
      "stateMutability": "nonpayable",
      "type": "function"
    },
    {
      "constant": false,
      "inputs": [
        {
          "internalType": "uint256",
          "name": "index",
          "type": "uint256"
        },
        {
          "internalType": "address",
          "name": "addAddress",
          "type": "address"
        }
      ],
      "name": "setOperator",
      "outputs": [],
      "payable": false,
      "stateMutability": "nonpayable",
      "type": "function"
    },
    {
      "constant": false,
      "inputs": [
        {
          "internalType": "address[]",
          "name": "operators",
          "type": "address[]"
        }
      ],
      "name": "setOperators",
      "outputs": [],
      "payable": false,
      "stateMutability": "nonpayable",
      "type": "function"
    },
    {
      "constant": false,
      "inputs": [
        {
          "internalType": "address",
          "name": "newOwner",
          "type": "address"
        }
      ],
      "name": "transferOwnership",
      "outputs": [],
      "payable": false,
      "stateMutability": "nonpayable",
      "type": "function"
    },
    {
      "constant": false,
      "inputs": [
        {
          "internalType": "uint32",
          "name": "underlying",
          "type": "uint32"
        },
        {
          "internalType": "uint256",
          "name": "_Iv0",
          "type": "uint256"
        }
      ],
      "name": "SetAtmIv",
      "outputs": [],
      "payable": false,
      "stateMutability": "nonpayable",
      "type": "function"
    },
    {
      "constant": false,
      "inputs": [
        {
          "internalType": "uint32",
          "name": "underlying",
          "type": "uint32"
        },
        {
          "internalType": "int256",
          "name": "_paramA",
          "type": "int256"
        },
        {
          "internalType": "int256",
          "name": "_paramB",
          "type": "int256"
        },
        {
          "internalType": "int256",
          "name": "_paramC",
          "type": "int256"
        },
        {
          "internalType": "int256",
          "name": "_paramD",
          "type": "int256"
        },
        {
          "internalType": "int256",
          "name": "_paramE",
          "type": "int256"
        }
      ],
      "name": "SetFormulasParam",
      "outputs": [],
      "payable": false,
      "stateMutability": "nonpayable",
      "type": "function"
    },
    {
      "constant": false,
      "inputs": [
        {
          "internalType": "uint32",
          "name": "underlying",
          "type": "uint32"
        },
        {
          "internalType": "uint256[]",
          "name": "IvRate",
          "type": "uint256[]"
        }
      ],
      "name": "SetATMIvRate",
      "outputs": [],
      "payable": false,
      "stateMutability": "nonpayable",
      "type": "function"
    },
    {
      "constant": true,
      "inputs": [
        {
          "internalType": "uint32",
          "name": "underlying",
          "type": "uint32"
        },
        {
          "internalType": "uint8",
          "name": "",
          "type": "uint8"
        },
        {
          "internalType": "uint256",
          "name": "expiration",
          "type": "uint256"
        },
        {
          "internalType": "uint256",
          "name": "currentPrice",
          "type": "uint256"
        },
        {
          "internalType": "uint256",
          "name": "strikePrice",
          "type": "uint256"
        }
      ],
      "name": "calculateIv",
      "outputs": [
        {
          "internalType": "uint256",
          "name": "",
          "type": "uint256"
        }
      ],
      "payable": false,
      "stateMutability": "view",
      "type": "function"
    }
  ],
  "bytecode": "0x60806040523480156200001157600080fd5b5060008054600160a060020a0319163317808255604051600160a060020a039190911691907f8be0079c531659141344cd1fd0a4f28419497f9722a3daafe3b4186f6b6457e0908290a36302e78f907fe90b7bceb6e7df5418fb78d8ee546e97c83a08bbccc01a0644d599ccd2a7c2e08190557f679795a0195a1b76cdebb7c51d74e058aee92919b8c3389af86ef24535e8a28c55640129a684b1197fa15bc60c955c405d20d9149c709e2460f1c2d9a497496a7f46004d1772c3054c8190557fc3a24b0501bd2c13a7e57f2db4369ec4c223447539fc0724a9d55ac4a06ebd4d5564012a05f2007fabd6e7cb50984ff9c2f3e18a2660c3353dadf4e3291deeb275dae2cd1e44fe058190557f91da3fd0782e51c6b3986e9e672fd566868e71f3dbc2d6c2cd6fbb3e361af2a755624c4b3f197f1471eb6eb2c5e789fc3de43f8ce62938c7d1836ec861730447e2ada8fd81017b8190557f89832631fb3c3307a103ba2c84ab569c64d6182a18893dcd163f0f1c2090733a55624c4b407f3e5fec24aa4dc4e5aee2e025e51e1392c72a2500577559fae9665c6d52bd6a318190557f8819ef417987f8ae7a81f42cdfb18815282fe989326fbff903d13cf0e03ace29556305f5e1007fb39221ace053465ec3453ce2b36430bd138b997ecea25c1043da0c366812b8288190557fb7c774451310d1be4108bc180d1b52823cb0ee0274a6c0081bcaf94f115fb96d81905560408051610b408101825291825263067a39ce6020838101919091526306cce7379183019190915263070a0d42606083015263073af5256080830152630763e67260a083015263078738ef60c08301526307a65a3e60e08301526307c23a736101008301526307db800a6101208301526307f2a360610140830152630807fe6f61016083015263081bd64d61018083015263082e61386101a083015263083fca9a6101c083015263085035bf6101e083015263085fbfc061020083015263086e80ea61022083015263087c8db9610240830152630889f7a4610260830152630896cda76102808301526308a31cbd6102a08301526308aef0356102c08301526308ba51fb6102e08301526308c54acf6103008301526308cfe2726103208301526308da1fd06103408301526308e409176103608301526308eda3d76103808301526308f6f5156103a0830152630900015b6103c0830152630908ccc96103e08301526309115b21610400830152630919afd2610420830152630921ce03610440830152630929b898610460830152630931723b610480830152630938fd606104a08301526309405c4e6104c083015263094791216104e083015263094e9dce610500830152630955842761052083015263095c45e0610540830152630962e48d61056083015263096961aa61058083015263096fbe9b6105a0830152630975fcae6105c083015263097c1d1b6105e08301526309822109610600830152630988098e61062083015263098dd7af6106408301526309938c64610660830152630999289461068083015263099ead1e6106a08301526309a41ad26106c08301526309a972776106e08301526309aeb4c96107008301526309b3e27a6107208301526309b8fc356107408301526309be029a6107608301526309c2f6456107808301526309c7d7c76107a08301526309cca7ac6107c08301526309d1667b6107e08301526309d614b36108008301526309dab2ce6108208301526309df41416108408301526309e3c07a6108608301526309e830e76108808301526309ec92ec6108a08301526309f0e6ed6108c08301526309f52d476108e08301526309f966566109008301526309fd9271610920830152630a01b1ec610940830152630a05c516610960830152630a09cc3e610980830152630a0dc7ae6109a0830152630a11b7ae6109c0830152630a159c846109e0830152630a197672610a00830152630a1d45b8610a20830152630a210a95610a40830152630a24c545610a60830152630a287602610a80830152630a2c1d04610aa0830152630a2fba81610ac0830152630a334eae610ae0830152630a36d9bd610b00830152630a3a5bdf610b20830152600160005260089052620006289060008051602062001c5c83398151915290605a62000679565b506008602052600260005260008051602062001c5c833981519152805462000672917f6add646517a5b0f6793cd5891b7937d28a5b2981a5d88ebc7cd776088fea904191620006d1565b5062000734565b828054828255906000526020600020908101928215620006bf579160200282015b82811115620006bf578251829063ffffffff169055916020019190600101906200069a565b50620006cd92915062000714565b5090565b828054828255906000526020600020908101928215620006bf5760005260206000209182015b82811115620006bf578254825591600101919060010190620006f7565b6200073191905b80821115620006cd57600081556001016200071b565b90565b61151880620007446000396000f3fe608060405234801561001057600080fd5b50600436106100ec576000357c0100000000000000000000000000000000000000000000000000000000900480639870d7fe116100a9578063ddf71cd511610083578063ddf71cd5146102f1578063e7a1c1c014610394578063e7f43c68146103c0578063f2fde38b14610418576100ec565b80639870d7fe1461027c578063ac8a584a146102a2578063ae968709146102c8576100ec565b80630797296c146100f1578063148c26cd14610134578063185d1232146101e4578063715018a6146102345780638da5cb5b1461023c5780638f32d59b14610260575b600080fd5b610132600480360360c081101561010757600080fd5b5063ffffffff8135169060208101359060408101359060608101359060808101359060a0013561043e565b005b6101326004803603604081101561014a57600080fd5b63ffffffff823516919081019060408101602082013564010000000081111561017257600080fd5b82018360208201111561018457600080fd5b803590602001918460208302840111640100000000831117156101a657600080fd5b9190808060200260200160405190810160405280939291908181526020018383602002808284376000920191909152509295506104cc945050505050565b610222600480360360a08110156101fa57600080fd5b5063ffffffff8135169060ff6020820135169060408101359060608101359060800135610541565b60408051918252519081900360200190f35b610132610578565b610244610619565b60408051600160a060020a039092168252519081900360200190f35b610268610629565b604080519115158252519081900360200190f35b6101326004803603602081101561029257600080fd5b5035600160a060020a031661063a565b610268600480360360208110156102b857600080fd5b5035600160a060020a0316610698565b610132600480360360408110156102de57600080fd5b5063ffffffff81351690602001356106fd565b6101326004803603602081101561030757600080fd5b81019060208101813564010000000081111561032257600080fd5b82018360208201111561033457600080fd5b8035906020019184602083028401116401000000008311171561035657600080fd5b919080806020026020016040519081016040528093929190818152602001838360200280828437600092019190915250929550610792945050505050565b610132600480360360408110156103aa57600080fd5b5080359060200135600160a060020a03166107f3565b6103c861087d565b60408051602080825283518183015283519192839290830191858101910280838360005b838110156104045781810151838201526020016103ec565b505050509050019250505060405180910390f35b6101326004803603602081101561042e57600080fd5b5035600160a060020a03166108df565b610446610629565b610488576040805160e560020a62461bcd0281526020600482018190526024820152600080516020611497833981519152604482015290519081900360640190fd5b63ffffffff90951660009081526003602090815260408083209690965560048152858220949094556005845284812092909255600683528382205560079091522055565b6104d4610629565b610516576040805160e560020a62461bcd0281526020600482018190526024820152600080516020611497833981519152604482015290519081900360640190fd5b63ffffffff82166000908152600860209081526040909120825161053c92840190611332565b505050565b60008061054e8786610932565b90508284141561055f57905061056f565b61056b87828686610a31565b9150505b95945050505050565b610580610629565b6105c2576040805160e560020a62461bcd0281526020600482018190526024820152600080516020611497833981519152604482015290519081900360640190fd5b60008054604051600160a060020a03909116907f8be0079c531659141344cd1fd0a4f28419497f9722a3daafe3b4186f6b6457e0908390a36000805473ffffffffffffffffffffffffffffffffffffffff19169055565b600054600160a060020a03165b90565b600054600160a060020a0316331490565b610642610629565b610684576040805160e560020a62461bcd0281526020600482018190526024820152600080516020611497833981519152604482015290519081900360640190fd5b61069560018263ffffffff610b6e16565b50565b60006106a2610629565b6106e4576040805160e560020a62461bcd0281526020600482018190526024820152600080516020611497833981519152604482015290519081900360640190fd5b6106f560018363ffffffff610c1316565b90505b919050565b6001546000901580159061073a575033600160a060020a03166001828154811061072357fe5b600091825260209091200154600160a060020a0316145b6107785760405160e560020a62461bcd02815260040180806020018281038252602d8152602001806114b7602d913960400191505060405180910390fd5b5063ffffffff909116600090815260026020526040902055565b61079a610629565b6107dc576040805160e560020a62461bcd0281526020600482018190526024820152600080516020611497833981519152604482015290519081900360640190fd5b80516107ef90600190602084019061137d565b5050565b6107fb610629565b61083d576040805160e560020a62461bcd0281526020600482018190526024820152600080516020611497833981519152604482015290519081900360640190fd5b806001838154811061084b57fe5b9060005260206000200160006101000a815481600160a060020a030219169083600160a060020a031602179055505050565b606060018054806020026020016040519081016040528092919081815260200182805480156108d557602002820191906000526020600020905b8154600160a060020a031681526001909101906020018083116108b7575b5050505050905090565b6108e7610629565b610929576040805160e560020a62461bcd0281526020600482018190526024820152600080516020611497833981519152604482015290519081900360640190fd5b61069581610d01565b60006201518082048061095c57505063ffffffff8216600090815260026020526040902054610a2b565b63ffffffff8416600090815260086020526040902054808210610980576001810391505b6000610a07620151808402620151808560010102600860008a63ffffffff1663ffffffff16815260200190815260200160002060018703815481106109c157fe5b9060005260206000200154600860008b63ffffffff1663ffffffff16815260200190815260200160002087815481106109f657fe5b906000526020600020015489610db1565b63ffffffff87166000908152600260205260409020546305f5e10091020493505050505b92915050565b60006305f5e100610a406113eb565b610a4b878686610e2a565b9050610a556113eb565b60408051808201825263ffffffff808b16600090815260076020908152939020548252918101859052610a9c91610a909085908190610ee016565b9063ffffffff610efa16565b90506000816020015184858460000151020281610ab557fe5b059050610ac181610f0f565b60208085015163ffffffff808d166000818152600585526040808220548a5102948702949094018952835180850185529181526004855292909220548252600192820192909252919250610b17918591610ee016565b92506305f5e100600360008b63ffffffff1663ffffffff16815260200190815260200160002054028889028460200151856000015181610b5357fe5b0501019050610b6181610f0f565b9998505050505050505050565b610bd182805480602002602001604051908101604052809291908181526020018280548015610bc657602002820191906000526020600020905b8154600160a060020a03168152600190910190602001808311610ba8575b505050505082610f46565b6107ef578154600181018355600083815260209020018054600160a060020a03831673ffffffffffffffffffffffffffffffffffffffff199091161790555050565b8154600090815b81811015610c605783600160a060020a0316858281548110610c3857fe5b600091825260209091200154600160a060020a03161415610c5857610c60565b600101610c1a565b81811015610cf657600182038114610cda57846001830381548110610c8157fe5b9060005260206000200160009054906101000a9004600160a060020a0316858281548110610cab57fe5b9060005260206000200160006101000a815481600160a060020a030219169083600160a060020a031602179055505b8454610cea866000198301611405565b50600192505050610a2b565b506000949350505050565b600160a060020a038116610d495760405160e560020a62461bcd0281526004018080602001828103825260268152602001806114716026913960400191505060405180910390fd5b60008054604051600160a060020a03808516939216917f8be0079c531659141344cd1fd0a4f28419497f9722a3daafe3b4186f6b6457e091a36000805473ffffffffffffffffffffffffffffffffffffffff1916600160a060020a0392909216919091179055565b600085851415610e0b576040805160e560020a62461bcd02815260206004820152601c60248201527f696e7075742076616c75657320617265206475706c6963617465642100000000604482015290519081900360640190fd5b8585038683038585030281610e1c57fe5b048401905095945050505050565b610e326113eb565b81831415610e6e575060408051808201825263ffffffff85166000908152600660209081529290205481526305f5e10091810191909152610ed9565b610e766113eb565b610e97610e8284610f95565b610e8b86610f95565b9063ffffffff610fcf16565b60408051808201825263ffffffff8089166000908152600660209081529390205482526305f5e10092820192909252919250610ed5918391610efa16565b9150505b9392505050565b610ee86113eb565b610ed9610ef58484610fe4565b611012565b610f026113eb565b610ed9610ef584846110d2565b80600260018201045b81811015610f4057809150600281828581610f2f57fe5b040181610f3857fe5b049050610f18565b50919050565b8151600090815b81811015610cf65783600160a060020a0316858281518110610f6b57fe5b6020026020010151600160a060020a03161415610f8d57600192505050610a2b565b600101610f4d565b610f9d6113eb565b604080518082019091526401000000009092029180610fbb8461110b565b815264010000000060209091015292915050565b610fd76113eb565b610ed9610ef58484611191565b610fec6113eb565b506040805180820190915281518351028152602091820151928201519092029082015290565b61101a6113eb565b60008083600001511215611032578251600003611035565b82515b905060008084602001511215611052578360200151600003611058565b83602001515b9050818113156110aa576f010000000000000000000000000000008113156110a5576050815b60029190910a600080831290039182180418915061109c84836111cd565b925050506106f8565b6110ca565b6f010000000000000000000000000000008213156110ca5760508261107e565b509192915050565b6110da6113eb565b5060408051808201909152602080840180518451858401805188510291909202018452519051029082015292915050565b600064010000000082101561116a576040805160e560020a62461bcd02815260206004820181905260248201527f6c6f67652066756e6374696f6e20696e70757420697320746f6f20736d616c6c604482015290519081900360640190fd5b600061117583611265565b67010000000000000066b17217f7d1cf78909102049392505050565b6111996113eb565b5060408051808201909152602080840180518451858401805188519290930291909202038452519051029082015292915050565b6111d56113eb565b81836020015113611230576040805160e560020a62461bcd02815260206004820152601b60248201527f6672616374696f6e206e756d626572206973206f766572666c6f770000000000604482015290519081900360640190fd5b60405180604001604052808385600001518161124857fe5b0581526020018385602001518161125b57fe5b0590529392505050565b60006401000000008210156112c4576040805160e560020a62461bcd02815260206004820152601760248201527f4c6f673220696e70757420697320746f6f20736d616c6c000000000000000000604482015290519081900360640190fd5b60005b64020000000083106112e557600290920491640100000000016112c7565b60005b602060ff8216101561132b576401000000008480020493506402000000008410611323576002938490049360ff601f83900316900a91909101905b6001016112e8565b5092915050565b82805482825590600052602060002090810192821561136d579160200282015b8281111561136d578251825591602001919060010190611352565b50611379929150611425565b5090565b8280548282559060005260206000209081019282156113df579160200282015b828111156113df578251825473ffffffffffffffffffffffffffffffffffffffff1916600160a060020a0390911617825560209092019160019091019061139d565b5061137992915061143f565b604051806040016040528060008152602001600081525090565b81548183558181111561053c5760008381526020902061053c9181019083015b61062691905b80821115611379576000815560010161142b565b61062691905b8082111561137957805473ffffffffffffffffffffffffffffffffffffffff1916815560010161144556fe4f776e61626c653a206e6577206f776e657220697320746865207a65726f20616464726573734f776e61626c653a2063616c6c6572206973206e6f7420746865206f776e65724f70657261746f723a2063616c6c6572206973206e6f742074686520656c696769626c65204f70657261746f72a265627a7a72315820255a774695ec16bb678775443bcec5fe4ad6ad271115bc930ca4159c9366fd0464736f6c63430005100032ad67d757c34507f157cacfa2e3153e9f260a2244f30428821be7be64587ac55f",
  "source": "pragma solidity =0.5.16;\r\nimport \"./modules/Operator.sol\";\r\nimport \"./modules/Fraction.sol\";\r\n/**\r\n * @title Options Implied volatility calculation.\r\n * @dev A Smart-contract to calculate options Implied volatility.\r\n *\r\n */\r\ncontract ImpliedVolatilityOld is Operator {\r\n    using Fraction for Fraction.fractionNumber;\r\n    //Implied volatility decimal, is same with oracle's price' decimal. \r\n    uint256 constant private _calDecimal = 1e8;\r\n    // A constant day time\r\n    uint256 constant private DaySecond = 1 days;\r\n    // Formulas param, atm Implied volatility, which expiration is one day.\r\n    mapping(uint32=>uint256) internal ATMIv0;\r\n    // Formulas param A,B,C,D,E\r\n    mapping(uint32=>int256) internal paramA;\r\n    mapping(uint32=>int256) internal paramB;\r\n    mapping(uint32=>int256) internal paramC;\r\n    mapping(uint32=>int256) internal paramD;\r\n    mapping(uint32=>int256) internal paramE;\r\n    // Formulas param ATM Iv Rate, sort by time\r\n    mapping(uint32=>uint256[]) internal ATMIvRate;\r\n\r\n    constructor () public{\r\n        ATMIv0[1] = 48730000;\r\n        ATMIv0[2] = 48730000;\r\n        paramA[1] = -4993746098;\r\n        paramA[2] = -4993746098;\r\n        paramB[1] = 50e8;\r\n        paramB[2] = 50e8;\r\n        paramC[1] = -5000000;\r\n        paramC[2] = -5000000;\r\n        paramD[1] = 5000000;\r\n        paramD[2] = 5000000;\r\n        paramE[1] = 1e8;\r\n        paramE[2] = 1e8;\r\n        ATMIvRate[1] = [100000000,108673486,114091831,118099266,121304357,123987570,126302447,128342590,130169459,131825674,\r\n                        133342048,134741615,136042061,137257272,138398362,139474367,140492736,141459690,142380473,143259556,\r\n                        144100775,144907453,145682485,146428411,147147471,147841650,148512720,149162263,149791703,150402325,\r\n                        150995291,151571657,152132385,152678354,153210371,153729176,154235451,154729824,155212878,155685153,\r\n                        156147150,156599335,157042144,157475981,157901226,158318235,158727342,159128859,159523081,159910286,\r\n                        160290735,160664676,161032340,161393950,161749714,162099831,162444489,162783866,163118133,163447450,\r\n                        163771973,164091847,164407212,164718203,165024947,165327566,165626177,165920890,166211815,166499052,\r\n                        166782701,167062855,167339606,167613041,167883244,168150294,168414270,168675246,168933294,169188484,\r\n                        169440882,169690552,169937557,170181957,170423810,170663172,170900097,171134638,171366845,171596767];\r\n         ATMIvRate[2] =  ATMIvRate[1];\r\n    }\r\n    /**\r\n     * @dev set underlying's atm implied volatility. Foundation operator will modify it frequently.\r\n     * @param underlying underlying ID.,1 for BTC, 2 for ETH\r\n     * @param _Iv0 underlying's atm implied volatility. \r\n     */ \r\n    function SetAtmIv(uint32 underlying,uint256 _Iv0)public onlyOperatorIndex(0){\r\n        ATMIv0[underlying] = _Iv0;\r\n    }\r\n    /**\r\n     * @dev set implied volatility surface Formulas param. \r\n     * @param underlying underlying ID.,1 for BTC, 2 for ETH\r\n     */ \r\n    function SetFormulasParam(uint32 underlying,int256 _paramA,int256 _paramB,int256 _paramC,int256 _paramD,int256 _paramE)\r\n        public onlyOwner{\r\n        paramA[underlying] = _paramA;\r\n        paramB[underlying] = _paramB;\r\n        paramC[underlying] = _paramC;\r\n        paramD[underlying] = _paramD;\r\n        paramE[underlying] = _paramE;\r\n    }\r\n    /**\r\n     * @dev set implied volatility surface Formulas param IvRate. \r\n     * @param underlying underlying ID.,1 for BTC, 2 for ETH\r\n     */ \r\n    function SetATMIvRate(uint32 underlying,uint256[] memory IvRate)public onlyOwner{\r\n        ATMIvRate[underlying] = IvRate;\r\n    }\r\n    /**\r\n     * @dev Interface, calculate option's iv. \r\n     * @param underlying underlying ID.,1 for BTC, 2 for ETH\r\n     * optType option's type.,0 for CALL, 1 for PUT\r\n     * @param expiration Option's expiration, left time to now.\r\n     * @param currentPrice underlying current price\r\n     * @param strikePrice option's strike price\r\n     */ \r\n    function calculateIv(uint32 underlying,uint8 /*optType*/,uint256 expiration,uint256 currentPrice,uint256 strikePrice)public view returns (uint256){\r\n        uint256 iv = calATMIv(underlying,expiration);\r\n        if (currentPrice == strikePrice){\r\n            return iv;\r\n        }\r\n        return calImpliedVolatility(underlying,iv,currentPrice,strikePrice);\r\n    }\r\n    /**\r\n     * @dev calculate option's atm iv. \r\n     * @param underlying underlying ID.,1 for BTC, 2 for ETH\r\n     * @param expiration Option's expiration, left time to now.\r\n     */ \r\n    function calATMIv(uint32 underlying,uint256 expiration)internal view returns(uint256){\r\n        uint256 index = expiration/DaySecond;\r\n        \r\n        if (index == 0){\r\n            return ATMIv0[underlying];\r\n        }\r\n        uint256 len = ATMIvRate[underlying].length;\r\n        if (index>=len){\r\n            index = len-1;\r\n        }\r\n        uint256 rate = insertValue(index*DaySecond,(index+1)*DaySecond,ATMIvRate[underlying][index-1],ATMIvRate[underlying][index],expiration);\r\n        return ATMIv0[underlying]*rate/_calDecimal;\r\n    }\r\n    /**\r\n     * @dev calculate option's implied volatility. \r\n     * @param underlying underlying ID.,1 for BTC, 2 for ETH\r\n     * @param _ATMIv atm iv, calculated by calATMIv\r\n     * @param currentPrice underlying current price\r\n     * @param strikePrice option's strike price\r\n     */ \r\n    function calImpliedVolatility(uint32 underlying,uint256 _ATMIv,uint256 currentPrice,uint256 strikePrice)internal view returns(uint256){\r\n        int256 intDecimal = int256(_calDecimal);\r\n        Fraction.fractionNumber memory ln = calImpliedVolLn(underlying,currentPrice,strikePrice);\r\n        //ln*ln+e\r\n        Fraction.fractionNumber memory lnSqrt = ln.mul(ln).add(Fraction.fractionNumber(paramE[underlying],intDecimal)); \r\n        uint256 sqrtNum = uint256(lnSqrt.numerator*intDecimal*intDecimal/lnSqrt.denominator);\r\n        sqrtNum = Fraction.sqrt(sqrtNum);  \r\n        //ln*c+sqrt\r\n        ln.numerator = ln.numerator*paramC[underlying]+ln.denominator*int256(sqrtNum);\r\n        //ln = ln.add(Fraction.fractionNumber(int256(sqrtNum),1));\r\n        ln = ln.mul(Fraction.fractionNumber(paramB[underlying],1));\r\n        sqrtNum = uint256(ln.numerator/ln.denominator)+_ATMIv*_ATMIv+uint256(paramA[underlying])*_calDecimal;\r\n        return Fraction.sqrt(sqrtNum);\r\n    }\r\n    /**\r\n     * @dev An auxiliary function, calculate ln price. \r\n     * @param underlying underlying ID.,1 for BTC, 2 for ETH\r\n     * @param currentPrice underlying current price\r\n     * @param strikePrice option's strike price\r\n     */ \r\n    //ln(k) - ln(s) + d\r\n    function calImpliedVolLn(uint32 underlying,uint256 currentPrice,uint256 strikePrice)internal view returns(Fraction.fractionNumber memory){\r\n        if (currentPrice == strikePrice){\r\n            return Fraction.fractionNumber(paramD[underlying],int256(_calDecimal));\r\n        }\r\n        Fraction.fractionNumber memory ln = Fraction.ln(currentPrice).sub(Fraction.ln(strikePrice));\r\n        return ln.add(Fraction.fractionNumber(paramD[underlying],int256(_calDecimal)));\r\n    }\r\n    /**\r\n     * @dev An auxiliary function, Linear interpolation. \r\n     */ \r\n    function insertValue(uint256 x0,uint256 x1,uint256 y0, uint256 y1,uint256 x)internal pure returns (uint256){\r\n        require(x1 != x0,\"input values are duplicated!\");\r\n        return y0 + (y1-y0)*(x-x0)/(x1-x0);\r\n    }\r\n\r\n}\r\n",
  "sourcePath": "C:\\work\\solidity\\FinnexusOptions_V2\\contracts\\impliedVolatilityOld.sol",
  "compiler": {
    "name": "solc",
    "version": "0.5.16+commit.9c3226ce.Emscripten.clang"
  },
  "schemaVersion": "3.1.0",
  "updatedAt": "2020-10-21T03:26:50.569Z",
  "devdoc": {
    "details": "A Smart-contract to calculate options Implied volatility.  ",
    "methods": {
      "SetATMIvRate(uint32,uint256[])": {
        "details": "set implied volatility surface Formulas param IvRate. ",
        "params": {
          "underlying": "underlying ID.,1 for BTC, 2 for ETH"
        }
      },
      "SetAtmIv(uint32,uint256)": {
        "details": "set underlying's atm implied volatility. Foundation operator will modify it frequently.",
        "params": {
          "_Iv0": "underlying's atm implied volatility. ",
          "underlying": "underlying ID.,1 for BTC, 2 for ETH"
        }
      },
      "SetFormulasParam(uint32,int256,int256,int256,int256,int256)": {
        "details": "set implied volatility surface Formulas param. ",
        "params": {
          "underlying": "underlying ID.,1 for BTC, 2 for ETH"
        }
      },
      "addOperator(address)": {
        "details": "add a new operator by owner.       "
      },
      "calculateIv(uint32,uint8,uint256,uint256,uint256)": {
        "details": "Interface, calculate option's iv. ",
        "params": {
          "currentPrice": "underlying current price",
          "expiration": "Option's expiration, left time to now.",
          "strikePrice": "option's strike price",
          "underlying": "underlying ID.,1 for BTC, 2 for ETH optType option's type.,0 for CALL, 1 for PUT"
        }
      },
      "getOperator()": {
        "details": "get all operators.       "
      },
      "isOwner()": {
        "details": "Returns true if the caller is the current owner."
      },
      "owner()": {
        "details": "Returns the address of the current owner."
      },
      "removeOperator(address)": {
        "details": "remove operator by owner.       "
      },
      "renounceOwnership()": {
        "details": "Leaves the contract without owner. It will not be possible to call `onlyOwner` functions anymore. Can only be called by the current owner.      * NOTE: Renouncing ownership will leave the contract without an owner, thereby removing any functionality that is only available to the owner."
      },
      "setOperator(uint256,address)": {
        "details": "modify indexed operator by owner.       "
      },
      "setOperators(address[])": {
        "details": "set all operators by owner.       "
      },
      "transferOwnership(address)": {
        "details": "Transfers ownership of the contract to a new account (`newOwner`). Can only be called by the current owner."
      }
    },
    "title": "Options Implied volatility calculation."
  },
  "userdoc": {
    "methods": {}
  }
}