{
  "contractName": "ImpliedVolatility",
  "abi": [
    {
      "constant": false,
      "inputs": [],
      "name": "renounceOwnership",
      "outputs": [],
      "payable": false,
      "stateMutability": "nonpayable",
      "type": "function"
    },
    {
      "constant": true,
      "inputs": [],
      "name": "owner",
      "outputs": [
        {
          "name": "",
          "type": "address"
        }
      ],
      "payable": false,
      "stateMutability": "view",
      "type": "function"
    },
    {
      "constant": true,
      "inputs": [],
      "name": "isOwner",
      "outputs": [
        {
          "name": "",
          "type": "bool"
        }
      ],
      "payable": false,
      "stateMutability": "view",
      "type": "function"
    },
    {
      "constant": true,
      "inputs": [
        {
          "name": "",
          "type": "uint256"
        },
        {
          "name": "",
          "type": "uint256"
        },
        {
          "name": "",
          "type": "uint256"
        }
      ],
      "name": "ivMatrixMap",
      "outputs": [
        {
          "name": "",
          "type": "uint256"
        }
      ],
      "payable": false,
      "stateMutability": "view",
      "type": "function"
    },
    {
      "constant": false,
      "inputs": [
        {
          "name": "newOwner",
          "type": "address"
        }
      ],
      "name": "transferOwnership",
      "outputs": [],
      "payable": false,
      "stateMutability": "nonpayable",
      "type": "function"
    },
    {
      "anonymous": false,
      "inputs": [
        {
          "indexed": true,
          "name": "previousOwner",
          "type": "address"
        },
        {
          "indexed": true,
          "name": "newOwner",
          "type": "address"
        }
      ],
      "name": "OwnershipTransferred",
      "type": "event"
    },
    {
      "constant": false,
      "inputs": [
        {
          "name": "timeLimit",
          "type": "uint256"
        }
      ],
      "name": "setValidUntil",
      "outputs": [],
      "payable": false,
      "stateMutability": "nonpayable",
      "type": "function"
    },
    {
      "constant": false,
      "inputs": [
        {
          "name": "underlying",
          "type": "uint32"
        },
        {
          "name": "optType",
          "type": "uint8"
        },
        {
          "name": "expirationAry",
          "type": "uint32[]"
        },
        {
          "name": "childlen",
          "type": "uint32[]"
        },
        {
          "name": "priceAry",
          "type": "uint64[]"
        },
        {
          "name": "ivAry",
          "type": "uint64[]"
        }
      ],
      "name": "setIvMatrix",
      "outputs": [],
      "payable": false,
      "stateMutability": "nonpayable",
      "type": "function"
    },
    {
      "constant": true,
      "inputs": [
        {
          "name": "underlying",
          "type": "uint32"
        },
        {
          "name": "optType",
          "type": "uint8"
        },
        {
          "name": "expiration",
          "type": "uint256"
        },
        {
          "name": "price",
          "type": "uint256"
        }
      ],
      "name": "calculateIv",
      "outputs": [
        {
          "name": "",
          "type": "uint256"
        },
        {
          "name": "",
          "type": "uint256"
        }
      ],
      "payable": false,
      "stateMutability": "view",
      "type": "function"
    }
  ],
  "bytecode": "0x608060408190526104b060015560008054600160a060020a0319163317808255600160a060020a0316917f8be0079c531659141344cd1fd0a4f28419497f9722a3daafe3b4186f6b6457e0908290a3610e048061005d6000396000f30060806040526004361061008d5763ffffffff7c01000000000000000000000000000000000000000000000000000000006000350416631105312b8114610092578063634099cc146101a6578063715018a6146101be5780638da5cb5b146101d35780638f32d59b14610204578063b4277bc11461022d578063b9d6cdd014610270578063f2fde38b146102a0575b600080fd5b34801561009e57600080fd5b5060408051602060046044358181013583810280860185019096528085526101a495833563ffffffff16956024803560ff1696369695606495939492019291829185019084908082843750506040805187358901803560208181028481018201909552818452989b9a998901989297509082019550935083925085019084908082843750506040805187358901803560208181028481018201909552818452989b9a998901989297509082019550935083925085019084908082843750506040805187358901803560208181028481018201909552818452989b9a9989019892975090820195509350839250850190849080828437509497506102c19650505050505050565b005b3480156101b257600080fd5b506101a46004356105a9565b3480156101ca57600080fd5b506101a46105fa565b3480156101df57600080fd5b506101e861069d565b60408051600160a060020a039092168252519081900360200190f35b34801561021057600080fd5b506102196106ad565b604080519115158252519081900360200190f35b34801561023957600080fd5b5061025763ffffffff6004351660ff602435166044356064356106be565b6040805192835260208301919091528051918290030190f35b34801561027c57600080fd5b5061028e6004356024356044356108c4565b60408051918252519081900360200190f35b3480156102ac57600080fd5b506101a4600160a060020a036004351661090c565b6000806000806000606060008060006102d86106ad565b151561031c576040805160e560020a62461bcd0281526020600482018190526024820152600080516020610db9833981519152604482015290519081900360640190fd5b6103268f8f610964565b8a518c51919a50146103a8576040805160e560020a62461bcd02815260206004820152602160248201527f696e7470757420617272617973206d7573742062652073616d65206c656e677460448201527f6800000000000000000000000000000000000000000000000000000000000000606482015290519081900360840190fd5b8b518d5114610427576040805160e560020a62461bcd02815260206004820152602160248201527f696e7470757420617272617973206d7573742062652073616d65206c656e677460448201527f6800000000000000000000000000000000000000000000000000000000000000606482015290519081900360840190fd5b600089815260036020526040812098506104418982610ce9565b5060009850600096505b8c51871015610598578c8781518110151561046257fe5b9060200190602002015163ffffffff1695508b8781518110151561048257fe5b9060200190602002015163ffffffff169450846040519080825280602002602001820160405280156104be578160200160208202803883390190505b509350600092505b84831015610564578a898151811015156104dc57fe5b9060200190602002015167ffffffffffffffff169150898981518110151561050057fe5b60209081029091010151845167ffffffffffffffff909116915068010000000000000000830287017001000000000000000000000000000000008302019085908590811061054a57fe5b6020908102909101015260019889019892909201916104c6565b875460018101808a5560008a81526020908190208751929361058b93910191880190610d12565b505060019096019561044b565b505050505050505050505050505050565b6105b16106ad565b15156105f5576040805160e560020a62461bcd0281526020600482018190526024820152600080516020610db9833981519152604482015290519081900360640190fd5b600155565b6106026106ad565b1515610646576040805160e560020a62461bcd0281526020600482018190526024820152600080516020610db9833981519152604482015290519081900360640190fd5b60008054604051600160a060020a03909116907f8be0079c531659141344cd1fd0a4f28419497f9722a3daafe3b4186f6b6457e0908390a36000805473ffffffffffffffffffffffffffffffffffffffff19169055565b600054600160a060020a03165b90565b600054600160a060020a0316331490565b60008060008060008060008060006106d68d8d610964565b60008181526003602052604090208054919850965094506002851015610746576040805160e560020a62461bcd02815260206004820152601c60248201527f7072696365206976206c697374206973206c657373207468616e203200000000604482015290519081900360640190fd5b600093505b848410156107a25761078c868581548110151561076457fe5b90600052602060002001600081548110151561077c57fe5b9060005260206000200154610979565b8b11610797576107a2565b60019093019261074b565b8315156108285761081a8660008154811015156107bb57fe5b9060005260206000200180548060200260200160405190810160405280929190818152602001828054801561080f57602002820191906000526020600020905b8154815260200190600101908083116107fb575b50505050508b610986565b6305f5e100985098506108b4565b848410610836576001850393505b61084a86600186038154811015156107bb57fe5b925061085d86858154811015156107bb57fe5b915061088f610876876001870381548110151561076457fe5b610887888781548110151561076457fe5b85858f610ad6565b9050600081136108a957600198506305f5e10097506108b4565b806305f5e100985098505b5050505050505094509492505050565b6003602052826000526040600020828154811015156108df57fe5b90600052602060002001818154811015156108f657fe5b9060005260206000200160009250925050505481565b6109146106ad565b1515610958576040805160e560020a62461bcd0281526020600482018190526024820152600080516020610db9833981519152604482015290519081900360640190fd5b61096181610b51565b50565b60ff1663ffffffff9190911662010000020190565b67ffffffffffffffff1690565b815160009081808060028410156109e7576040805160e560020a62461bcd02815260206004820152601c60248201527f7072696365206976206c697374206973206c657373207468616e203200000000604482015290519081900360640190fd5b6109f18787610c3f565b9250838310610a0557600184039250610a56565b610a258784815181101515610a1657fe5b90602001906020020151610cb9565b915085821415610a5657610a4f8784815181101515610a4057fe5b90602001906020020151610cd2565b9450610acc565b821515610a6257600192505b610ab5610a798860018603815181101515610a1657fe5b610a8a8986815181101515610a1657fe5b610a9e8a60018803815181101515610a4057fe5b610aaf8b88815181101515610a4057fe5b8a610ad6565b905060008113610ac85760019450610acc565b8094505b5050505092915050565b600084861415610b30576040805160e560020a62461bcd02815260206004820152601c60248201527f696e7075742076616c75657320617265206475706c6963617465642100000000604482015290519081900360640190fd5b85850386830385850302811515610b4357fe5b058401905095945050505050565b600160a060020a0381161515610bd7576040805160e560020a62461bcd02815260206004820152602660248201527f4f776e61626c653a206e6577206f776e657220697320746865207a65726f206160448201527f6464726573730000000000000000000000000000000000000000000000000000606482015290519081900360840190fd5b60008054604051600160a060020a03808516939216917f8be0079c531659141344cd1fd0a4f28419497f9722a3daafe3b4186f6b6457e091a36000805473ffffffffffffffffffffffffffffffffffffffff1916600160a060020a0392909216919091179055565b815160009081906000190181805b828411610cae576002838501049150610c6d8783815181101515610a1657fe5b905085811415610c7f57819450610acc565b85811215610c9257816001019350610ca9565b811515610ca25760009450610acc565b6001820392505b610c4d565b509195945050505050565b68010000000000000000900467ffffffffffffffff1690565b700100000000000000000000000000000000900490565b815481835581811115610d0d57600083815260209020610d0d918101908301610d5d565b505050565b828054828255906000526020600020908101928215610d4d579160200282015b82811115610d4d578251825591602001919060010190610d32565b50610d59929150610d80565b5090565b6106aa91905b80821115610d59576000610d778282610d9a565b50600101610d63565b6106aa91905b80821115610d595760008155600101610d86565b50805460008255906000526020600020908101906109619190610d8056004f776e61626c653a2063616c6c6572206973206e6f7420746865206f776e6572a165627a7a7230582037467df2b54860c9e535db59bdfbaad01cb75819055cb01d3a9722c339ab36b50029",
  "source": "pragma solidity ^0.4.26;\r\nimport \"./modules/Ownable.sol\";\r\ncontract ImpliedVolatility is Ownable {\r\n    uint256 private ValidUntil = 1200;\r\n    uint256 constant private _calDecimal = 1e8;\r\n    uint256 private inptutTime;\r\n    mapping(uint256=>uint256[][]) public ivMatrixMap;\r\n    function setValidUntil(uint256 timeLimit) public onlyOwner {\r\n        ValidUntil = timeLimit;\r\n    }\r\n    //ivType == underlying << 16 + optType\r\n    function setIvMatrix(uint32 underlying,uint8 optType,uint32[]expirationAry,uint32[] childlen,uint64[] priceAry,uint64[] ivAry) public onlyOwner{\r\n        uint index = getKey(underlying,optType);\r\n        require(priceAry.length == ivAry.length,\"intput arrays must be same length\");\r\n        require(expirationAry.length == childlen.length,\"intput arrays must be same length\");\r\n        uint256[][] storage ivMatrix = ivMatrixMap[index];\r\n        ivMatrix.length = 0;\r\n        index = 0;\r\n        for (uint i=0;i<expirationAry.length;i++){\r\n            uint256 expiration = uint256(expirationAry[i]);\r\n            uint len1 = childlen[i];\r\n            uint256[] memory childAry = new uint256[](len1);\r\n            for (uint j=0;j<len1;j++){\r\n                uint256 price = uint256(priceAry[index]);\r\n                uint256 iv = uint256(ivAry[index]);\r\n                childAry[j] = expiration+(price<<64)+(iv<<128);\r\n                index++;\r\n            }\r\n            ivMatrix.push(childAry);\r\n        }\r\n    }\r\n    function getKey(uint32 underlying,uint8 optType) internal pure returns(uint256){\r\n        return (uint256(underlying) << 16)+ uint256(optType);\r\n    }\r\n    /**\r\n    /**\r\n  * @notice retrieves implied volatility of an asset\r\n  * @dev function to get implied volatility for an asset\r\n  * @param expiration the option expiration which has been created in option manger contract\r\n  * @param price the option underlying strikePrice which has been created in option manger contract\r\n  * @return uint mantissa of asset implied volatility (scaled by 1e18) or zero if unset or contract paused\r\n  */\r\n    function calculateIv(uint32 underlying,uint8 optType,uint256 expiration,uint256 price)public view returns (uint256,uint256){\r\n        uint256 ivType = getKey(underlying,optType);\r\n        uint256[][] storage ivMatrix = ivMatrixMap[ivType];\r\n        uint256 mxLen = ivMatrix.length;\r\n        require(mxLen>=2,\"price iv list is less than 2\");\r\n        for (uint256 i=0;i<mxLen;i++){\r\n            if (expiration<=uint256(getTime(ivMatrix[i][0]))){\r\n                break;\r\n            }\r\n        }\r\n        if (i == 0){\r\n            return (calculateTimeIv(ivMatrix[0],price),_calDecimal);\r\n        }else if (i >= mxLen){\r\n            i = mxLen - 1;\r\n        }\r\n        uint256 ivLow = calculateTimeIv(ivMatrix[i-1],price);\r\n        uint256 ivHigh = calculateTimeIv(ivMatrix[i],price);\r\n        int iv = insertValue(getTime(ivMatrix[i-1][0]),getTime(ivMatrix[i][0]),\r\n            int256(ivLow),int256(ivHigh),int256(expiration));\r\n        if (iv<=0){\r\n            return (1,_calDecimal);\r\n        }else{\r\n            return (uint256(iv),_calDecimal);\r\n        }\r\n    }\r\n    function calculateTimeIv(uint256[] memory _matrix,uint256 price)internal pure returns (uint256){\r\n        uint256 mxLen = _matrix.length;\r\n        require(mxLen>=2,\"price iv list is less than 2\");\r\n        uint256 index = binarySearch(_matrix,int256(price));\r\n        if (index >= mxLen){\r\n            index = mxLen-1;\r\n        }else{\r\n            int256 highPrice = getPrice(_matrix[index]);\r\n            if (uint256(highPrice) == price) {\r\n                return uint256(getIv(_matrix[index]));\r\n            }            \r\n        }\r\n        if(index == 0){\r\n            index = 1;\r\n        }\r\n        int iv = insertValue(getPrice(_matrix[index-1]),getPrice(_matrix[index]),\r\n            getIv(_matrix[index-1]),getIv(_matrix[index]),int256(price));\r\n        if (iv<=0){\r\n            return 1;\r\n        }else{\r\n            return uint256(iv);\r\n        }\r\n    }\r\n    function insertValue(int256 x0,int256 x1,int256 y0, int256 y1,int256 x)internal pure returns (int256){\r\n        require(x1 != x0,\"input values are duplicated!\");\r\n        return y0 + (y1-y0)*(x-x0)/(x1-x0);\r\n    }\r\n    function getTime(uint256 value)internal pure returns (int256) {\r\n        return int256(uint64(value));\r\n    }\r\n    function getPrice(uint256 value)internal pure returns (int256) {\r\n        return int256(uint64(value>>64));\r\n    }\r\n    function getIv(uint256 value)internal pure returns (int256) {\r\n        return int256(value>>128);\r\n    }\r\n    function binarySearch(uint256[] memory _matrix,int256 price)internal pure returns (uint256) {\r\n        uint256 low = 0;\r\n        uint256 high = _matrix.length - 1;\r\n        while (low <= high) {\r\n            uint256 mid = (high + low) / 2;\r\n            int256 midPrice = getPrice(_matrix[mid]);\r\n            if (midPrice == price){\r\n                return mid;\r\n            }else if (midPrice < price){\r\n                low = mid + 1;\r\n            } \r\n            else{\r\n                if (mid == 0){\r\n                    return 0;\r\n                }\r\n                high = mid - 1;\r\n            } \r\n        }\r\n        return low;\r\n    }\r\n}\r\n",
  "sourcePath": "C:\\work\\solidity\\FinnexusOptions_V2\\contracts\\impliedVolatility.sol",
  "compiler": {
    "name": "solc",
    "version": "0.4.26+commit.4563c3fc.Emscripten.clang"
  },
  "schemaVersion": "3.1.0",
  "updatedAt": "2020-08-03T07:47:16.968Z",
  "devdoc": {
    "methods": {
      "calculateIv(uint32,uint8,uint256,uint256)": {
        "details": "function to get implied volatility for an asset\r",
        "params": {
          "expiration": "the option expiration which has been created in option manger contract\r",
          "price": "the option underlying strikePrice which has been created in option manger contract\r"
        },
        "return": "uint mantissa of asset implied volatility (scaled by 1e18) or zero if unset or contract paused\r"
      },
      "isOwner()": {
        "details": "Returns true if the caller is the current owner."
      },
      "owner()": {
        "details": "Returns the address of the current owner."
      },
      "renounceOwnership()": {
        "details": "Leaves the contract without owner. It will not be possible to call `onlyOwner` functions anymore. Can only be called by the current owner.     * NOTE: Renouncing ownership will leave the contract without an owner, thereby removing any functionality that is only available to the owner."
      },
      "transferOwnership(address)": {
        "details": "Transfers ownership of the contract to a new account (`newOwner`). Can only be called by the current owner."
      }
    }
  },
  "userdoc": {
    "methods": {
      "calculateIv(uint32,uint8,uint256,uint256)": {
        "notice": "/**\rretrieves implied volatility of an asset\r"
      }
    }
  }
}