{
  "contractName": "ImpliedVolatility",
  "abi": [
    {
      "constant": true,
      "inputs": [],
      "name": "ValidUntil",
      "outputs": [
        {
          "name": "",
          "type": "uint256"
        }
      ],
      "payable": false,
      "stateMutability": "view",
      "type": "function"
    },
    {
      "constant": true,
      "inputs": [],
      "name": "inptutTime",
      "outputs": [
        {
          "name": "",
          "type": "uint256"
        }
      ],
      "payable": false,
      "stateMutability": "view",
      "type": "function"
    },
    {
      "constant": false,
      "inputs": [],
      "name": "renounceOwnership",
      "outputs": [],
      "payable": false,
      "stateMutability": "nonpayable",
      "type": "function"
    },
    {
      "constant": true,
      "inputs": [],
      "name": "owner",
      "outputs": [
        {
          "name": "",
          "type": "address"
        }
      ],
      "payable": false,
      "stateMutability": "view",
      "type": "function"
    },
    {
      "constant": true,
      "inputs": [],
      "name": "isOwner",
      "outputs": [
        {
          "name": "",
          "type": "bool"
        }
      ],
      "payable": false,
      "stateMutability": "view",
      "type": "function"
    },
    {
      "constant": true,
      "inputs": [
        {
          "name": "",
          "type": "uint256"
        },
        {
          "name": "",
          "type": "uint256"
        },
        {
          "name": "",
          "type": "uint256"
        }
      ],
      "name": "ivMatrix",
      "outputs": [
        {
          "name": "",
          "type": "uint256"
        }
      ],
      "payable": false,
      "stateMutability": "view",
      "type": "function"
    },
    {
      "constant": false,
      "inputs": [
        {
          "name": "newOwner",
          "type": "address"
        }
      ],
      "name": "transferOwnership",
      "outputs": [],
      "payable": false,
      "stateMutability": "nonpayable",
      "type": "function"
    },
    {
      "anonymous": false,
      "inputs": [
        {
          "indexed": true,
          "name": "previousOwner",
          "type": "address"
        },
        {
          "indexed": true,
          "name": "newOwner",
          "type": "address"
        }
      ],
      "name": "OwnershipTransferred",
      "type": "event"
    },
    {
      "constant": false,
      "inputs": [
        {
          "name": "timeLimit",
          "type": "uint256"
        }
      ],
      "name": "setValidUntil",
      "outputs": [],
      "payable": false,
      "stateMutability": "nonpayable",
      "type": "function"
    },
    {
      "constant": true,
      "inputs": [
        {
          "name": "expiration",
          "type": "uint256"
        },
        {
          "name": "price",
          "type": "uint256"
        }
      ],
      "name": "calculateIv",
      "outputs": [
        {
          "name": "",
          "type": "uint256"
        },
        {
          "name": "",
          "type": "uint256"
        }
      ],
      "payable": false,
      "stateMutability": "view",
      "type": "function"
    }
  ],
  "bytecode": "0x608060408190526104b060015560008054600160a060020a0319163317808255600160a060020a0316917f8be0079c531659141344cd1fd0a4f28419497f9722a3daafe3b4186f6b6457e0908290a36109cb8061005d6000396000f3006080604052600436106100985763ffffffff7c01000000000000000000000000000000000000000000000000000000006000350416634af5b1e2811461009d57806352ca59fa146100c4578063634099cc146100d9578063715018a6146100f35780638da5cb5b146101085780638f32d59b14610139578063a9e46f7114610162578063ad1bb83314610180578063f2fde38b146101b4575b600080fd5b3480156100a957600080fd5b506100b26101d5565b60408051918252519081900360200190f35b3480156100d057600080fd5b506100b26101db565b3480156100e557600080fd5b506100f16004356101e1565b005b3480156100ff57600080fd5b506100f1610244565b34801561011457600080fd5b5061011d6102f9565b60408051600160a060020a039092168252519081900360200190f35b34801561014557600080fd5b5061014e610308565b604080519115158252519081900360200190f35b34801561016e57600080fd5b506100b2600435602435604435610319565b34801561018c57600080fd5b5061019b600435602435610363565b6040805192835260208301919091528051918290030190f35b3480156101c057600080fd5b506100f1600160a060020a0360043516610568565b60015481565b60025481565b6101e9610308565b151561023f576040805160e560020a62461bcd02815260206004820181905260248201527f4f776e61626c653a2063616c6c6572206973206e6f7420746865206f776e6572604482015290519081900360640190fd5b600155565b61024c610308565b15156102a2576040805160e560020a62461bcd02815260206004820181905260248201527f4f776e61626c653a2063616c6c6572206973206e6f7420746865206f776e6572604482015290519081900360640190fd5b60008054604051600160a060020a03909116907f8be0079c531659141344cd1fd0a4f28419497f9722a3daafe3b4186f6b6457e0908390a36000805473ffffffffffffffffffffffffffffffffffffffff19169055565b600054600160a060020a031690565b600054600160a060020a0316331490565b600380548490811061032757fe5b906000526020600020018281548110151561033e57fe5b90600052602060002090600302018160038110151561035957fe5b0154925083915050565b60035460009081908180808060028510156103c8576040805160e560020a62461bcd02815260206004820152601c60248201527f7072696365206976206c697374206973206c657373207468616e203200000000604482015290519081900360640190fd5b600093505b8484101561042f576003805460009081106103e457fe5b9060005260206000200160008154811015156103fc57fe5b90600052602060002090600302018460038110151561041757fe5b015489116104245761042f565b6001909301926103cd565b831515610467576104596003600081548110151561044957fe5b90600052602060002001896105d2565b6305f5e1009650965061055c565b848410610475576001850393505b61048a60036001860381548110151561044957fe5b925061049e60038581548110151561044957fe5b9150610537600360008154811015156104b357fe5b9060005260206000200160008154811015156104cb57fe5b9060005260206000209060030201600186036003811015156104e957fe5b01546003805460009081106104fa57fe5b90600052602060002001600081548110151561051257fe5b90600052602060002090600302018660038110151561052d57fe5b015485858d61079e565b90506000811361055157600196506305f5e100955061055c565b806305f5e100965096505b50505050509250929050565b610570610308565b15156105c6576040805160e560020a62461bcd02815260206004820181905260248201527f4f776e61626c653a2063616c6c6572206973206e6f7420746865206f776e6572604482015290519081900360640190fd5b6105cf81610819565b50565b815460009081806002831015610632576040805160e560020a62461bcd02815260206004820152601c60248201527f7072696365206976206c697374206973206c657373207468616e203200000000604482015290519081900360640190fd5b61063c8686610907565b91508486600181548110151561064e57fe5b90600052602060002090600302018360038110151561066957fe5b015414156106a45785600281548110151561068057fe5b90600052602060002090600302018260038110151561069b57fe5b01549350610795565b8282106106b3578291506106bf565b8115156106bf57600191505b61077e8660018154811015156106d157fe5b9060005260206000209060030201600184036003811015156106ef57fe5b015487600181548110151561070057fe5b90600052602060002090600302018460038110151561071b57fe5b015488600281548110151561072c57fe5b90600052602060002090600302016001860360038110151561074a57fe5b015489600281548110151561075b57fe5b90600052602060002090600302018660038110151561077657fe5b01548961079e565b9050600081136107915760019350610795565b8093505b50505092915050565b6000848614156107f8576040805160e560020a62461bcd02815260206004820152601c60248201527f696e7075742076616c75657320617265206475706c6963617465642100000000604482015290519081900360640190fd5b8585038683038585030281151561080b57fe5b058401905095945050505050565b600160a060020a038116151561089f576040805160e560020a62461bcd02815260206004820152602660248201527f4f776e61626c653a206e6577206f776e657220697320746865207a65726f206160448201527f6464726573730000000000000000000000000000000000000000000000000000606482015290519081900360840190fd5b60008054604051600160a060020a03808516939216917f8be0079c531659141344cd1fd0a4f28419497f9722a3daafe3b4186f6b6457e091a36000805473ffffffffffffffffffffffffffffffffffffffff1916600160a060020a0392909216919091179055565b815460009081906000190181805b82841161099157600283850104915086600181548110151561093357fe5b90600052602060002090600302018260038110151561094e57fe5b015490508581141561096257819450610995565b858110156109755781600101935061098c565b8115156109855760009450610995565b6001820392505b610915565b8394505b50505050929150505600a165627a7a723058201be68a4596cefad0d2d555caabb727513ed0205d09530dc1725b5d3e31a2fcff0029",
  "source": "pragma solidity ^0.4.26;\r\nimport \"./modules/Ownable.sol\";\r\ncontract ImpliedVolatility is Ownable {\r\n    uint256 public ValidUntil = 1200;\r\n    uint256 constant _calDecimal = 1e8;\r\n    uint256 constant ivIndex = 2;\r\n    uint256 constant priceIndex = 1;\r\n    uint256 constant timeIndex = 0;\r\n    uint256 public inptutTime;\r\n    uint256[3][][] public ivMatrix;\r\n    function setValidUntil(uint256 timeLimit) public onlyOwner {\r\n        ValidUntil = timeLimit;\r\n    }\r\n\r\n    /**\r\n    /**\r\n  * @notice retrieves implied volatility of an asset\r\n  * @dev function to get implied volatility for an asset\r\n  * @param expiration the option expiration which has been created in option manger contract\r\n  * @param price the option underlying strikePrice which has been created in option manger contract\r\n  * @return uint mantissa of asset implied volatility (scaled by 1e18) or zero if unset or contract paused\r\n  */\r\n    function calculateIv(uint256 expiration,uint256 price)public view returns (uint256,uint256){\r\n        uint256 mxLen = ivMatrix.length;\r\n        require(mxLen>=2,\"price iv list is less than 2\");\r\n        for (uint256 i=0;i<mxLen;i++){\r\n            if (expiration<=ivMatrix[timeIndex][0][i]){\r\n                break;\r\n            }\r\n        }\r\n        if (i == 0){\r\n            return (calculateTimeIv(ivMatrix[0],price),_calDecimal);\r\n        }else if (i >= mxLen){\r\n            i = mxLen - 1;\r\n        }\r\n        uint256 ivLow = calculateTimeIv(ivMatrix[i-1],price);\r\n        uint256 ivHigh = calculateTimeIv(ivMatrix[i],price);\r\n        int iv = insertValue(int256(ivMatrix[timeIndex][0][i-1]),int256(ivMatrix[timeIndex][0][i]),\r\n            int256(ivLow),int256(ivHigh),int256(expiration));\r\n        if (iv<=0){\r\n            return (1,_calDecimal);\r\n        }else{\r\n            return (uint256(iv),_calDecimal);\r\n        }\r\n    }\r\n    function calculateTimeIv(uint256 [3][] storage _matrix,uint256 price)internal view returns (uint256){\r\n        uint256 mxLen = _matrix.length;\r\n        require(mxLen>=2,\"price iv list is less than 2\");\r\n        uint256 index = binarySearch(_matrix,price);\r\n        if (_matrix[priceIndex][index] == price) {\r\n            return _matrix[ivIndex][index];\r\n        }\r\n        if (index >= mxLen){\r\n            index = mxLen;\r\n        }else if(index == 0){\r\n            index = 1;\r\n        }\r\n        int iv = insertValue(int256(_matrix[priceIndex][index-1]),int256(_matrix[priceIndex][index]),\r\n            int256( _matrix[ivIndex][index-1]),int256(_matrix[ivIndex][index]),int256(price));\r\n        if (iv<=0){\r\n            return 1;\r\n        }else{\r\n            return uint256(iv);\r\n        }\r\n    }\r\n    function insertValue(int256 x0,int256 x1,int256 y0, int256 y1,int256 x)internal pure returns (int256){\r\n        require(x1 != x0,\"input values are duplicated!\");\r\n        return y0 + (y1-y0)*(x-x0)/(x1-x0);\r\n    }\r\n    function binarySearch(uint256 [3][] storage _matrix,uint256 price)internal view returns (uint256) {\r\n        uint256 low = 0;\r\n        uint256 high = _matrix.length - 1;\r\n        while (low <= high) {\r\n            uint256 mid = (high + low) / 2;\r\n            uint256 midPrice = _matrix[priceIndex][mid];\r\n            if (midPrice == price){\r\n                return mid;\r\n            }else if (midPrice < price){\r\n                low = mid + 1;\r\n            } \r\n            else{\r\n                if (mid == 0){\r\n                    return 0;\r\n                }\r\n                high = mid - 1;\r\n            } \r\n        }\r\n        return low;\r\n    }\r\n}\r\n",
  "sourcePath": "C:\\work\\solidity\\FinnexusOptions_V2\\contracts\\impliedVolatility.sol",
  "compiler": {
    "name": "solc",
    "version": "0.4.26+commit.4563c3fc.Emscripten.clang"
  },
  "schemaVersion": "3.1.0",
  "updatedAt": "2020-07-20T13:46:56.831Z",
  "devdoc": {
    "methods": {
      "calculateIv(uint256,uint256)": {
        "details": "function to get implied volatility for an asset\r",
        "params": {
          "expiration": "the option expiration which has been created in option manger contract\r",
          "price": "the option underlying strikePrice which has been created in option manger contract\r"
        },
        "return": "uint mantissa of asset implied volatility (scaled by 1e18) or zero if unset or contract paused\r"
      },
      "isOwner()": {
        "details": "Returns true if the caller is the current owner."
      },
      "owner()": {
        "details": "Returns the address of the current owner."
      },
      "renounceOwnership()": {
        "details": "Leaves the contract without owner. It will not be possible to call `onlyOwner` functions anymore. Can only be called by the current owner.     * NOTE: Renouncing ownership will leave the contract without an owner, thereby removing any functionality that is only available to the owner."
      },
      "transferOwnership(address)": {
        "details": "Transfers ownership of the contract to a new account (`newOwner`). Can only be called by the current owner."
      }
    }
  },
  "userdoc": {
    "methods": {
      "calculateIv(uint256,uint256)": {
        "notice": "/**\rretrieves implied volatility of an asset\r"
      }
    }
  }
}