{
  "contractName": "ImpliedVolatility",
  "abi": [
    {
      "constant": true,
      "inputs": [],
      "name": "ValidUntil",
      "outputs": [
        {
          "name": "",
          "type": "uint256"
        }
      ],
      "payable": false,
      "stateMutability": "view",
      "type": "function"
    },
    {
      "constant": true,
      "inputs": [],
      "name": "inptutTime",
      "outputs": [
        {
          "name": "",
          "type": "uint256"
        }
      ],
      "payable": false,
      "stateMutability": "view",
      "type": "function"
    },
    {
      "constant": false,
      "inputs": [],
      "name": "renounceOwnership",
      "outputs": [],
      "payable": false,
      "stateMutability": "nonpayable",
      "type": "function"
    },
    {
      "constant": true,
      "inputs": [],
      "name": "owner",
      "outputs": [
        {
          "name": "",
          "type": "address"
        }
      ],
      "payable": false,
      "stateMutability": "view",
      "type": "function"
    },
    {
      "constant": true,
      "inputs": [],
      "name": "isOwner",
      "outputs": [
        {
          "name": "",
          "type": "bool"
        }
      ],
      "payable": false,
      "stateMutability": "view",
      "type": "function"
    },
    {
      "constant": true,
      "inputs": [
        {
          "name": "",
          "type": "uint256"
        },
        {
          "name": "",
          "type": "uint256"
        },
        {
          "name": "",
          "type": "uint256"
        }
      ],
      "name": "ivMatrixMap",
      "outputs": [
        {
          "name": "",
          "type": "uint256"
        }
      ],
      "payable": false,
      "stateMutability": "view",
      "type": "function"
    },
    {
      "constant": false,
      "inputs": [
        {
          "name": "newOwner",
          "type": "address"
        }
      ],
      "name": "transferOwnership",
      "outputs": [],
      "payable": false,
      "stateMutability": "nonpayable",
      "type": "function"
    },
    {
      "anonymous": false,
      "inputs": [
        {
          "indexed": true,
          "name": "previousOwner",
          "type": "address"
        },
        {
          "indexed": true,
          "name": "newOwner",
          "type": "address"
        }
      ],
      "name": "OwnershipTransferred",
      "type": "event"
    },
    {
      "constant": false,
      "inputs": [
        {
          "name": "timeLimit",
          "type": "uint256"
        }
      ],
      "name": "setValidUntil",
      "outputs": [],
      "payable": false,
      "stateMutability": "nonpayable",
      "type": "function"
    },
    {
      "constant": false,
      "inputs": [
        {
          "name": "underlying",
          "type": "uint32"
        },
        {
          "name": "optType",
          "type": "uint8"
        },
        {
          "name": "expirationAry",
          "type": "uint32[]"
        },
        {
          "name": "childlen",
          "type": "uint32[]"
        },
        {
          "name": "priceAry",
          "type": "uint64[]"
        },
        {
          "name": "ivAry",
          "type": "uint64[]"
        }
      ],
      "name": "setIvMatrix",
      "outputs": [],
      "payable": false,
      "stateMutability": "nonpayable",
      "type": "function"
    },
    {
      "constant": true,
      "inputs": [
        {
          "name": "underlying",
          "type": "uint32"
        },
        {
          "name": "optType",
          "type": "uint8"
        },
        {
          "name": "expiration",
          "type": "uint256"
        },
        {
          "name": "price",
          "type": "uint256"
        }
      ],
      "name": "calculateIv",
      "outputs": [
        {
          "name": "",
          "type": "uint256"
        },
        {
          "name": "",
          "type": "uint256"
        }
      ],
      "payable": false,
      "stateMutability": "view",
      "type": "function"
    }
  ],
  "bytecode": "0x608060408190526104b060015560008054600160a060020a0319163317808255600160a060020a0316917f8be0079c531659141344cd1fd0a4f28419497f9722a3daafe3b4186f6b6457e0908290a3610e508061005d6000396000f3006080604052600436106100a35763ffffffff7c01000000000000000000000000000000000000000000000000000000006000350416631105312b81146100a85780634af5b1e2146101bc57806352ca59fa146101e3578063634099cc146101f8578063715018a6146102105780638da5cb5b146102255780638f32d59b14610256578063b4277bc11461027f578063b9d6cdd0146102c2578063f2fde38b146102e0575b600080fd5b3480156100b457600080fd5b5060408051602060046044358181013583810280860185019096528085526101ba95833563ffffffff16956024803560ff1696369695606495939492019291829185019084908082843750506040805187358901803560208181028481018201909552818452989b9a998901989297509082019550935083925085019084908082843750506040805187358901803560208181028481018201909552818452989b9a998901989297509082019550935083925085019084908082843750506040805187358901803560208181028481018201909552818452989b9a9989019892975090820195509350839250850190849080828437509497506103019650505050505050565b005b3480156101c857600080fd5b506101d16105e9565b60408051918252519081900360200190f35b3480156101ef57600080fd5b506101d16105ef565b34801561020457600080fd5b506101ba6004356105f5565b34801561021c57600080fd5b506101ba610646565b34801561023157600080fd5b5061023a6106e9565b60408051600160a060020a039092168252519081900360200190f35b34801561026257600080fd5b5061026b6106f9565b604080519115158252519081900360200190f35b34801561028b57600080fd5b506102a963ffffffff6004351660ff6024351660443560643561070a565b6040805192835260208301919091528051918290030190f35b3480156102ce57600080fd5b506101d1600435602435604435610910565b3480156102ec57600080fd5b506101ba600160a060020a0360043516610958565b6000806000806000606060008060006103186106f9565b151561035c576040805160e560020a62461bcd0281526020600482018190526024820152600080516020610e05833981519152604482015290519081900360640190fd5b6103668f8f6109b0565b8a518c51919a50146103e8576040805160e560020a62461bcd02815260206004820152602160248201527f696e7470757420617272617973206d7573742062652073616d65206c656e677460448201527f6800000000000000000000000000000000000000000000000000000000000000606482015290519081900360840190fd5b8b518d5114610467576040805160e560020a62461bcd02815260206004820152602160248201527f696e7470757420617272617973206d7573742062652073616d65206c656e677460448201527f6800000000000000000000000000000000000000000000000000000000000000606482015290519081900360840190fd5b600089815260036020526040812098506104818982610d35565b5060009850600096505b8c518710156105d8578c878151811015156104a257fe5b9060200190602002015163ffffffff1695508b878151811015156104c257fe5b9060200190602002015163ffffffff169450846040519080825280602002602001820160405280156104fe578160200160208202803883390190505b509350600092505b848310156105a4578a8981518110151561051c57fe5b9060200190602002015167ffffffffffffffff169150898981518110151561054057fe5b60209081029091010151845167ffffffffffffffff909116915068010000000000000000830287017001000000000000000000000000000000008302019085908590811061058a57fe5b602090810290910101526001988901989290920191610506565b875460018101808a5560008a8152602090819020875192936105cb93910191880190610d5e565b505060019096019561048b565b505050505050505050505050505050565b60015481565b60025481565b6105fd6106f9565b1515610641576040805160e560020a62461bcd0281526020600482018190526024820152600080516020610e05833981519152604482015290519081900360640190fd5b600155565b61064e6106f9565b1515610692576040805160e560020a62461bcd0281526020600482018190526024820152600080516020610e05833981519152604482015290519081900360640190fd5b60008054604051600160a060020a03909116907f8be0079c531659141344cd1fd0a4f28419497f9722a3daafe3b4186f6b6457e0908390a36000805473ffffffffffffffffffffffffffffffffffffffff19169055565b600054600160a060020a03165b90565b600054600160a060020a0316331490565b60008060008060008060008060006107228d8d6109b0565b60008181526003602052604090208054919850965094506002851015610792576040805160e560020a62461bcd02815260206004820152601c60248201527f7072696365206976206c697374206973206c657373207468616e203200000000604482015290519081900360640190fd5b600093505b848410156107ee576107d886858154811015156107b057fe5b9060005260206000200160008154811015156107c857fe5b90600052602060002001546109c5565b8b116107e3576107ee565b600190930192610797565b8315156108745761086686600081548110151561080757fe5b9060005260206000200180548060200260200160405190810160405280929190818152602001828054801561085b57602002820191906000526020600020905b815481526020019060010190808311610847575b50505050508b6109d2565b6305f5e10098509850610900565b848410610882576001850393505b610896866001860381548110151561080757fe5b92506108a9868581548110151561080757fe5b91506108db6108c287600187038154811015156107b057fe5b6108d388878154811015156107b057fe5b85858f610b22565b9050600081136108f557600198506305f5e1009750610900565b806305f5e100985098505b5050505050505094509492505050565b60036020528260005260406000208281548110151561092b57fe5b906000526020600020018181548110151561094257fe5b9060005260206000200160009250925050505481565b6109606106f9565b15156109a4576040805160e560020a62461bcd0281526020600482018190526024820152600080516020610e05833981519152604482015290519081900360640190fd5b6109ad81610b9d565b50565b60ff1663ffffffff9190911662010000020190565b67ffffffffffffffff1690565b81516000908180806002841015610a33576040805160e560020a62461bcd02815260206004820152601c60248201527f7072696365206976206c697374206973206c657373207468616e203200000000604482015290519081900360640190fd5b610a3d8787610c8b565b9250838310610a5157600184039250610aa2565b610a718784815181101515610a6257fe5b90602001906020020151610d05565b915085821415610aa257610a9b8784815181101515610a8c57fe5b90602001906020020151610d1e565b9450610b18565b821515610aae57600192505b610b01610ac58860018603815181101515610a6257fe5b610ad68986815181101515610a6257fe5b610aea8a60018803815181101515610a8c57fe5b610afb8b88815181101515610a8c57fe5b8a610b22565b905060008113610b145760019450610b18565b8094505b5050505092915050565b600084861415610b7c576040805160e560020a62461bcd02815260206004820152601c60248201527f696e7075742076616c75657320617265206475706c6963617465642100000000604482015290519081900360640190fd5b85850386830385850302811515610b8f57fe5b058401905095945050505050565b600160a060020a0381161515610c23576040805160e560020a62461bcd02815260206004820152602660248201527f4f776e61626c653a206e6577206f776e657220697320746865207a65726f206160448201527f6464726573730000000000000000000000000000000000000000000000000000606482015290519081900360840190fd5b60008054604051600160a060020a03808516939216917f8be0079c531659141344cd1fd0a4f28419497f9722a3daafe3b4186f6b6457e091a36000805473ffffffffffffffffffffffffffffffffffffffff1916600160a060020a0392909216919091179055565b815160009081906000190181805b828411610cfa576002838501049150610cb98783815181101515610a6257fe5b905085811415610ccb57819450610b18565b85811215610cde57816001019350610cf5565b811515610cee5760009450610b18565b6001820392505b610c99565b509195945050505050565b68010000000000000000900467ffffffffffffffff1690565b700100000000000000000000000000000000900490565b815481835581811115610d5957600083815260209020610d59918101908301610da9565b505050565b828054828255906000526020600020908101928215610d99579160200282015b82811115610d99578251825591602001919060010190610d7e565b50610da5929150610dcc565b5090565b6106f691905b80821115610da5576000610dc38282610de6565b50600101610daf565b6106f691905b80821115610da55760008155600101610dd2565b50805460008255906000526020600020908101906109ad9190610dcc56004f776e61626c653a2063616c6c6572206973206e6f7420746865206f776e6572a165627a7a723058207e20622a58f9115760422234e955d630d9a2aa40bdaa9176e179e7d7a44620010029",
  "source": "pragma solidity ^0.4.26;\r\nimport \"./modules/Ownable.sol\";\r\ncontract ImpliedVolatility is Ownable {\r\n    uint256 public ValidUntil = 1200;\r\n    uint256 constant _calDecimal = 1e8;\r\n    uint256 public inptutTime;\r\n    mapping(uint256=>uint256[][]) public ivMatrixMap;\r\n    function setValidUntil(uint256 timeLimit) public onlyOwner {\r\n        ValidUntil = timeLimit;\r\n    }\r\n    //ivType == underlying << 16 + optType\r\n    function setIvMatrix(uint32 underlying,uint8 optType,uint32[]expirationAry,uint32[] childlen,uint64[] priceAry,uint64[] ivAry) public onlyOwner{\r\n        uint index = getKey(underlying,optType);\r\n        require(priceAry.length == ivAry.length,\"intput arrays must be same length\");\r\n        require(expirationAry.length == childlen.length,\"intput arrays must be same length\");\r\n        uint256[][] storage ivMatrix = ivMatrixMap[index];\r\n        ivMatrix.length = 0;\r\n        index = 0;\r\n        for (uint i=0;i<expirationAry.length;i++){\r\n            uint256 expiration = uint256(expirationAry[i]);\r\n            uint len1 = childlen[i];\r\n            uint256[] memory childAry = new uint256[](len1);\r\n            for (uint j=0;j<len1;j++){\r\n                uint256 price = uint256(priceAry[index]);\r\n                uint256 iv = uint256(ivAry[index]);\r\n                childAry[j] = expiration+(price<<64)+(iv<<128);\r\n                index++;\r\n            }\r\n            ivMatrix.push(childAry);\r\n        }\r\n    }\r\n    function getKey(uint32 underlying,uint8 optType) internal pure returns(uint256){\r\n        return (uint256(underlying) << 16)+ uint256(optType);\r\n    }\r\n    /**\r\n    /**\r\n  * @notice retrieves implied volatility of an asset\r\n  * @dev function to get implied volatility for an asset\r\n  * @param expiration the option expiration which has been created in option manger contract\r\n  * @param price the option underlying strikePrice which has been created in option manger contract\r\n  * @return uint mantissa of asset implied volatility (scaled by 1e18) or zero if unset or contract paused\r\n  */\r\n    function calculateIv(uint32 underlying,uint8 optType,uint256 expiration,uint256 price)public view returns (uint256,uint256){\r\n        uint256 ivType = getKey(underlying,optType);\r\n        uint256[][] storage ivMatrix = ivMatrixMap[ivType];\r\n        uint256 mxLen = ivMatrix.length;\r\n        require(mxLen>=2,\"price iv list is less than 2\");\r\n        for (uint256 i=0;i<mxLen;i++){\r\n            if (expiration<=uint256(getTime(ivMatrix[i][0]))){\r\n                break;\r\n            }\r\n        }\r\n        if (i == 0){\r\n            return (calculateTimeIv(ivMatrix[0],price),_calDecimal);\r\n        }else if (i >= mxLen){\r\n            i = mxLen - 1;\r\n        }\r\n        uint256 ivLow = calculateTimeIv(ivMatrix[i-1],price);\r\n        uint256 ivHigh = calculateTimeIv(ivMatrix[i],price);\r\n        int iv = insertValue(getTime(ivMatrix[i-1][0]),getTime(ivMatrix[i][0]),\r\n            int256(ivLow),int256(ivHigh),int256(expiration));\r\n        if (iv<=0){\r\n            return (1,_calDecimal);\r\n        }else{\r\n            return (uint256(iv),_calDecimal);\r\n        }\r\n    }\r\n    function calculateTimeIv(uint256[] memory _matrix,uint256 price)internal pure returns (uint256){\r\n        uint256 mxLen = _matrix.length;\r\n        require(mxLen>=2,\"price iv list is less than 2\");\r\n        uint256 index = binarySearch(_matrix,int256(price));\r\n        if (index >= mxLen){\r\n            index = mxLen-1;\r\n        }else{\r\n            int256 highPrice = getPrice(_matrix[index]);\r\n            if (uint256(highPrice) == price) {\r\n                return uint256(getIv(_matrix[index]));\r\n            }            \r\n        }\r\n        if(index == 0){\r\n            index = 1;\r\n        }\r\n        int iv = insertValue(getPrice(_matrix[index-1]),getPrice(_matrix[index]),\r\n            getIv(_matrix[index-1]),getIv(_matrix[index]),int256(price));\r\n        if (iv<=0){\r\n            return 1;\r\n        }else{\r\n            return uint256(iv);\r\n        }\r\n    }\r\n    function insertValue(int256 x0,int256 x1,int256 y0, int256 y1,int256 x)internal pure returns (int256){\r\n        require(x1 != x0,\"input values are duplicated!\");\r\n        return y0 + (y1-y0)*(x-x0)/(x1-x0);\r\n    }\r\n    function getTime(uint256 value)internal pure returns (int256) {\r\n        return int256(uint64(value));\r\n    }\r\n    function getPrice(uint256 value)internal pure returns (int256) {\r\n        return int256(uint64(value>>64));\r\n    }\r\n    function getIv(uint256 value)internal pure returns (int256) {\r\n        return int256(value>>128);\r\n    }\r\n    function binarySearch(uint256[] memory _matrix,int256 price)internal pure returns (uint256) {\r\n        uint256 low = 0;\r\n        uint256 high = _matrix.length - 1;\r\n        while (low <= high) {\r\n            uint256 mid = (high + low) / 2;\r\n            int256 midPrice = getPrice(_matrix[mid]);\r\n            if (midPrice == price){\r\n                return mid;\r\n            }else if (midPrice < price){\r\n                low = mid + 1;\r\n            } \r\n            else{\r\n                if (mid == 0){\r\n                    return 0;\r\n                }\r\n                high = mid - 1;\r\n            } \r\n        }\r\n        return low;\r\n    }\r\n}\r\n",
  "sourcePath": "C:\\work\\solidity\\FinnexusOptions_V2\\contracts\\impliedVolatility.sol",
  "compiler": {
    "name": "solc",
    "version": "0.4.26+commit.4563c3fc.Emscripten.clang"
  },
  "schemaVersion": "3.1.0",
  "updatedAt": "2020-07-28T14:35:12.839Z",
  "devdoc": {
    "methods": {
      "calculateIv(uint32,uint8,uint256,uint256)": {
        "details": "function to get implied volatility for an asset\r",
        "params": {
          "expiration": "the option expiration which has been created in option manger contract\r",
          "price": "the option underlying strikePrice which has been created in option manger contract\r"
        },
        "return": "uint mantissa of asset implied volatility (scaled by 1e18) or zero if unset or contract paused\r"
      },
      "isOwner()": {
        "details": "Returns true if the caller is the current owner."
      },
      "owner()": {
        "details": "Returns the address of the current owner."
      },
      "renounceOwnership()": {
        "details": "Leaves the contract without owner. It will not be possible to call `onlyOwner` functions anymore. Can only be called by the current owner.     * NOTE: Renouncing ownership will leave the contract without an owner, thereby removing any functionality that is only available to the owner."
      },
      "transferOwnership(address)": {
        "details": "Transfers ownership of the contract to a new account (`newOwner`). Can only be called by the current owner."
      }
    }
  },
  "userdoc": {
    "methods": {
      "calculateIv(uint32,uint8,uint256,uint256)": {
        "notice": "/**\rretrieves implied volatility of an asset\r"
      }
    }
  }
}