{
  "contractName": "ImpliedVol",
  "abi": [
    {
      "constant": true,
      "inputs": [],
      "name": "ValidUntil",
      "outputs": [
        {
          "name": "",
          "type": "uint256"
        }
      ],
      "payable": false,
      "stateMutability": "view",
      "type": "function"
    },
    {
      "constant": true,
      "inputs": [],
      "name": "inptutTime",
      "outputs": [
        {
          "name": "",
          "type": "uint256"
        }
      ],
      "payable": false,
      "stateMutability": "view",
      "type": "function"
    },
    {
      "constant": false,
      "inputs": [],
      "name": "renounceOwnership",
      "outputs": [],
      "payable": false,
      "stateMutability": "nonpayable",
      "type": "function"
    },
    {
      "constant": true,
      "inputs": [],
      "name": "owner",
      "outputs": [
        {
          "name": "",
          "type": "address"
        }
      ],
      "payable": false,
      "stateMutability": "view",
      "type": "function"
    },
    {
      "constant": true,
      "inputs": [],
      "name": "isOwner",
      "outputs": [
        {
          "name": "",
          "type": "bool"
        }
      ],
      "payable": false,
      "stateMutability": "view",
      "type": "function"
    },
    {
      "constant": true,
      "inputs": [
        {
          "name": "",
          "type": "uint256"
        }
      ],
      "name": "ivMatrixMap",
      "outputs": [
        {
          "name": "",
          "type": "uint256"
        }
      ],
      "payable": false,
      "stateMutability": "view",
      "type": "function"
    },
    {
      "constant": false,
      "inputs": [
        {
          "name": "newOwner",
          "type": "address"
        }
      ],
      "name": "transferOwnership",
      "outputs": [],
      "payable": false,
      "stateMutability": "nonpayable",
      "type": "function"
    },
    {
      "anonymous": false,
      "inputs": [
        {
          "indexed": true,
          "name": "previousOwner",
          "type": "address"
        },
        {
          "indexed": true,
          "name": "newOwner",
          "type": "address"
        }
      ],
      "name": "OwnershipTransferred",
      "type": "event"
    },
    {
      "constant": false,
      "inputs": [
        {
          "name": "timeLimit",
          "type": "uint256"
        }
      ],
      "name": "setValidUntil",
      "outputs": [],
      "payable": false,
      "stateMutability": "nonpayable",
      "type": "function"
    },
    {
      "constant": false,
      "inputs": [
        {
          "name": "underlying",
          "type": "uint32"
        },
        {
          "name": "optType",
          "type": "uint8"
        },
        {
          "name": "childlen",
          "type": "uint32[]"
        },
        {
          "name": "ivAry",
          "type": "uint256[]"
        }
      ],
      "name": "setIvMatrix",
      "outputs": [],
      "payable": false,
      "stateMutability": "nonpayable",
      "type": "function"
    },
    {
      "constant": true,
      "inputs": [
        {
          "name": "underlying",
          "type": "uint32"
        },
        {
          "name": "optType",
          "type": "uint8"
        },
        {
          "name": "expiration",
          "type": "uint256"
        },
        {
          "name": "price",
          "type": "uint256"
        }
      ],
      "name": "calculateIv",
      "outputs": [
        {
          "name": "",
          "type": "uint256"
        },
        {
          "name": "",
          "type": "uint256"
        }
      ],
      "payable": false,
      "stateMutability": "view",
      "type": "function"
    }
  ],
  "bytecode": "0x608060408190526104b060015560008054600160a060020a0319163317808255600160a060020a0316917f8be0079c531659141344cd1fd0a4f28419497f9722a3daafe3b4186f6b6457e0908290a36109da8061005d6000396000f3006080604052600436106100a35763ffffffff7c01000000000000000000000000000000000000000000000000000000006000350416634af5b1e281146100a857806352ca59fa146100cf578063634099cc146100e4578063715018a6146100fe5780638da5cb5b146101135780638f32d59b14610144578063b4277bc11461016d578063ce096145146101b0578063dc13930614610250578063f2fde38b14610268575b600080fd5b3480156100b457600080fd5b506100bd610289565b60408051918252519081900360200190f35b3480156100db57600080fd5b506100bd61028f565b3480156100f057600080fd5b506100fc600435610295565b005b34801561010a57600080fd5b506100fc6102f8565b34801561011f57600080fd5b506101286103ad565b60408051600160a060020a039092168252519081900360200190f35b34801561015057600080fd5b506101596103bc565b604080519115158252519081900360200190f35b34801561017957600080fd5b5061019763ffffffff6004351660ff602435166044356064356103cd565b6040805192835260208301919091528051918290030190f35b3480156101bc57600080fd5b5060408051602060046044358181013583810280860185019096528085526100fc95833563ffffffff16956024803560ff1696369695606495939492019291829185019084908082843750506040805187358901803560208181028481018201909552818452989b9a9989019892975090820195509350839250850190849080828437509497506104ce9650505050505050565b34801561025c57600080fd5b506100bd600435610588565b34801561027457600080fd5b506100fc600160a060020a036004351661059a565b60015481565b60025481565b61029d6103bc565b15156102f3576040805160e560020a62461bcd02815260206004820181905260248201527f4f776e61626c653a2063616c6c6572206973206e6f7420746865206f776e6572604482015290519081900360640190fd5b600155565b6103006103bc565b1515610356576040805160e560020a62461bcd02815260206004820181905260248201527f4f776e61626c653a2063616c6c6572206973206e6f7420746865206f776e6572604482015290519081900360640190fd5b60008054604051600160a060020a03909116907f8be0079c531659141344cd1fd0a4f28419497f9722a3daafe3b4186f6b6457e0908390a36000805473ffffffffffffffffffffffffffffffffffffffff19169055565b600054600160a060020a031690565b600054600160a060020a0316331490565b6000806000806000806000806103e48c8c8c610604565b9550851515610407576103f98c8c888c610673565b6305f5e100975097506104bf565b6104168c8c600189038c610673565b94506104248c8c888c610673565b93506104418c63ffffffff168c60ff16600189036103e8026107ca565b925061045b8c63ffffffff168c60ff16886103e8026107ca565b60008481526003602052604090205490925061049a9061047a906107df565b600084815260036020526040902054610492906107df565b87878e6107ec565b9050600081136104b457600197506305f5e10096506104bf565b806305f5e100975097505b50505050505094509492505050565b8151600090818080805b8484101561057c576104f88a63ffffffff168a60ff16866103e8026107ca565b9250878481518110151561050857fe5b9060200190602002015163ffffffff169150600090505b8181101561055f57868681518110151561053557fe5b6020908102909101810151848301600090815260039092526040909120556001958601950161051f565b8282016000908152600360205260408120556001909301926104d8565b50505050505050505050565b60036020526000908152604090205481565b6105a26103bc565b15156105f8576040805160e560020a62461bcd02815260206004820181905260248201527f4f776e61626c653a2063616c6c6572206973206e6f7420746865206f776e6572604482015290519081900360640190fd5b61060181610867565b50565b60008080805b6106228763ffffffff168760ff16856103e8026107ca565b60008181526003602052604090205490925090508015156106495760001990920191610668565b610652816107df565b851161065d57610668565b60019092019161060a565b509095945050505050565b6000806000806000806106948a63ffffffff168a60ff168a6103e8026107ca565b9450600093505b84840160009081526003602052604090205492508215156106c257600019909301926106e1565b6106cb83610955565b87116106d6576106e1565b60019093019261069b565b8484016000908152600360205260409020546106fc90610955565b915086821415610728578484016000908152600360205260409020546107219061096e565b95506107bd565b600019858501016000908152600360205260409020546107a69061074b90610955565b86860160009081526003602052604090205461076690610955565b600019888801016000908152600360205260409020546107859061096e565b8888016000908152600360205260409020546107a09061096e565b8b6107ec565b9050600081136107b957600195506107bd565b8095505b5050505050949350505050565b60006107d7828585610985565b949350505050565b67ffffffffffffffff1690565b600084861415610846576040805160e560020a62461bcd02815260206004820152601c60248201527f696e7075742076616c75657320617265206475706c6963617465642100000000604482015290519081900360640190fd5b8585038683038585030281151561085957fe5b058401905095945050505050565b600160a060020a03811615156108ed576040805160e560020a62461bcd02815260206004820152602660248201527f4f776e61626c653a206e6577206f776e657220697320746865207a65726f206160448201527f6464726573730000000000000000000000000000000000000000000000000000606482015290519081900360840190fd5b60008054604051600160a060020a03808516939216917f8be0079c531659141344cd1fd0a4f28419497f9722a3daafe3b4186f6b6457e091a36000805473ffffffffffffffffffffffffffffffffffffffff1916600160a060020a0392909216919091179055565b68010000000000000000900467ffffffffffffffff1690565b700100000000000000000000000000000000900490565b7001000000000000000000000000000000000268010000000000000000919091029190910101905600a165627a7a7230582082cb2f955c46add30a9c841a2a189b2ca0f2b13b59e12c2bddd0b4c18ea9292a0029",
  "source": "pragma solidity ^0.4.26;\r\nimport \"./modules/Ownable.sol\";\r\nimport \"./modules/tuple.sol\";\r\ncontract ImpliedVol is Ownable {\r\n    uint256 public ValidUntil = 1200;\r\n    uint256 constant _calDecimal = 1e8;\r\n    uint256 public inptutTime;\r\n    mapping(uint256=>uint256)public ivMatrixMap;\r\n    function setValidUntil(uint256 timeLimit) public onlyOwner {\r\n        ValidUntil = timeLimit;\r\n    }\r\n    function setIvMatrix(uint32 underlying,uint8 optType,uint32[] childlen,uint256[] ivAry) public{\r\n        uint256 iter = 0;\r\n        uint nLen0 = childlen.length;\r\n        for (uint i=0;i<nLen0;i++){\r\n            uint256 index = getKey(underlying,optType,i*1000);\r\n            uint len1 = childlen[i];\r\n            for (uint j=0;j<len1;j++){\r\n                ivMatrixMap[index+j] = ivAry[iter];\r\n                iter++;\r\n            }\r\n            ivMatrixMap[index+len1] = 0;\r\n        }\r\n    }\r\n    function getKey(uint256 underlying,uint256 optType,uint256 index) internal pure returns(uint256){\r\n        return tuple64.getTuple3(index,underlying,optType);\r\n    }\r\n    /**\r\n    /**\r\n  * @notice retrieves implied volatility of an asset\r\n  * @dev function to get implied volatility for an asset\r\n  * @param expiration the option expiration which has been created in option manger contract\r\n  * @param price the option underlying strikePrice which has been created in option manger contract\r\n  * @return uint mantissa of asset implied volatility (scaled by 1e18) or zero if unset or contract paused\r\n  */\r\n    function calculateIv(uint32 underlying,uint8 optType,uint256 expiration,uint256 price)public view returns (uint256,uint256){\r\n        uint256 index = getTimeIndex(underlying,optType,expiration);\r\n        if (index == 0){\r\n            return (calculateTimeIv(underlying,optType,index,price),_calDecimal);\r\n        }\r\n        uint256 ivLow = calculateTimeIv(underlying,optType,index-1,price);\r\n        uint256 ivHigh = calculateTimeIv(underlying,optType,index,price);\r\n        uint256 key0 = getKey(underlying,optType,(index-1)*1000);\r\n        uint256 key1 = getKey(underlying,optType,index*1000);\r\n        int iv = insertValue(getTime(ivMatrixMap[key0]),getTime(ivMatrixMap[key1]),\r\n            int256(ivLow),int256(ivHigh),int256(expiration));\r\n        if (iv<=0){\r\n            return (1,_calDecimal);\r\n        }else{\r\n            return (uint256(iv),_calDecimal);\r\n        }\r\n    }\r\n    function getTimeIndex(uint32 underlying,uint8 optType,uint256 expiration) internal view returns(uint256){\r\n        for (uint i=0;true;i++){\r\n            uint256 key = getKey(underlying,optType,i*1000);\r\n            uint256 value = ivMatrixMap[key];\r\n            if (value == 0){\r\n                i--;\r\n                break;\r\n            }\r\n            if (expiration<=uint256(getTime(value))){\r\n                break;\r\n            }\r\n        }\r\n        return i;   \r\n    }\r\n    function calculateTimeIv(uint32 underlying,uint8 optType,uint256 index,uint256 price)internal view returns (uint256){\r\n        uint256 key = getKey(underlying,optType,index*1000);\r\n        for (uint i=0;true;i++){\r\n            uint256 value = ivMatrixMap[key+i];\r\n            if (value == 0){\r\n                i--;\r\n                break;\r\n            }\r\n            if (price<=uint256(getPrice(value))){\r\n                break;                \r\n            }\r\n        }\r\n        if (i == 0) {\r\n            i == 1;\r\n        }\r\n        int256 highPrice = getPrice(ivMatrixMap[key+i]);\r\n        if (uint256(highPrice) == price) {\r\n            return uint256(getIv(ivMatrixMap[key+i]));\r\n        }            \r\n        int iv = insertValue(getPrice(ivMatrixMap[key+i-1]),getPrice(ivMatrixMap[key+i]),\r\n            getIv(ivMatrixMap[key+i-1]),getIv(ivMatrixMap[key+i]),int256(price));\r\n        if (iv<=0){\r\n            return 1;\r\n        }else{\r\n            return uint256(iv);\r\n        }\r\n    }\r\n    function insertValue(int256 x0,int256 x1,int256 y0, int256 y1,int256 x)internal pure returns (int256){\r\n        require(x1 != x0,\"input values are duplicated!\");\r\n        return y0 + (y1-y0)*(x-x0)/(x1-x0);\r\n    }\r\n    function getTime(uint256 value)internal pure returns (int256) {\r\n        return int256(uint64(value));\r\n    }\r\n    function getPrice(uint256 value)internal pure returns (int256) {\r\n        return int256(uint64(value>>64));\r\n    }\r\n    function getIv(uint256 value)internal pure returns (int256) {\r\n        return int256(value>>128);\r\n    }\r\n}\r\n",
  "sourcePath": "C:\\work\\solidity\\FinnexusOptions_V2\\contracts\\impliedVol.sol",
  "compiler": {
    "name": "solc",
    "version": "0.4.26+commit.4563c3fc.Emscripten.clang"
  },
  "schemaVersion": "3.1.0",
  "updatedAt": "2020-07-31T09:18:35.167Z",
  "devdoc": {
    "methods": {
      "calculateIv(uint32,uint8,uint256,uint256)": {
        "details": "function to get implied volatility for an asset\r",
        "params": {
          "expiration": "the option expiration which has been created in option manger contract\r",
          "price": "the option underlying strikePrice which has been created in option manger contract\r"
        },
        "return": "uint mantissa of asset implied volatility (scaled by 1e18) or zero if unset or contract paused\r"
      },
      "isOwner()": {
        "details": "Returns true if the caller is the current owner."
      },
      "owner()": {
        "details": "Returns the address of the current owner."
      },
      "renounceOwnership()": {
        "details": "Leaves the contract without owner. It will not be possible to call `onlyOwner` functions anymore. Can only be called by the current owner.     * NOTE: Renouncing ownership will leave the contract without an owner, thereby removing any functionality that is only available to the owner."
      },
      "transferOwnership(address)": {
        "details": "Transfers ownership of the contract to a new account (`newOwner`). Can only be called by the current owner."
      }
    }
  },
  "userdoc": {
    "methods": {
      "calculateIv(uint32,uint8,uint256,uint256)": {
        "notice": "/**\rretrieves implied volatility of an asset\r"
      }
    }
  }
}