{
  "contractName": "ImpliedVol",
  "abi": [
    {
      "constant": false,
      "inputs": [],
      "name": "renounceOwnership",
      "outputs": [],
      "payable": false,
      "stateMutability": "nonpayable",
      "type": "function"
    },
    {
      "constant": true,
      "inputs": [],
      "name": "owner",
      "outputs": [
        {
          "name": "",
          "type": "address"
        }
      ],
      "payable": false,
      "stateMutability": "view",
      "type": "function"
    },
    {
      "constant": true,
      "inputs": [],
      "name": "isOwner",
      "outputs": [
        {
          "name": "",
          "type": "bool"
        }
      ],
      "payable": false,
      "stateMutability": "view",
      "type": "function"
    },
    {
      "constant": false,
      "inputs": [
        {
          "name": "newOwner",
          "type": "address"
        }
      ],
      "name": "transferOwnership",
      "outputs": [],
      "payable": false,
      "stateMutability": "nonpayable",
      "type": "function"
    },
    {
      "anonymous": false,
      "inputs": [
        {
          "indexed": true,
          "name": "previousOwner",
          "type": "address"
        },
        {
          "indexed": true,
          "name": "newOwner",
          "type": "address"
        }
      ],
      "name": "OwnershipTransferred",
      "type": "event"
    },
    {
      "constant": false,
      "inputs": [
        {
          "name": "timeLimit",
          "type": "uint256"
        }
      ],
      "name": "setValidUntil",
      "outputs": [],
      "payable": false,
      "stateMutability": "nonpayable",
      "type": "function"
    },
    {
      "constant": false,
      "inputs": [
        {
          "name": "underlying",
          "type": "uint32"
        },
        {
          "name": "optType",
          "type": "uint8"
        },
        {
          "name": "childlen",
          "type": "uint32[]"
        },
        {
          "name": "ivAry",
          "type": "uint256[]"
        }
      ],
      "name": "setIvMatrix",
      "outputs": [],
      "payable": false,
      "stateMutability": "nonpayable",
      "type": "function"
    },
    {
      "constant": true,
      "inputs": [
        {
          "name": "underlying",
          "type": "uint32"
        },
        {
          "name": "optType",
          "type": "uint8"
        },
        {
          "name": "expiration",
          "type": "uint256"
        },
        {
          "name": "price",
          "type": "uint256"
        }
      ],
      "name": "calculateIv",
      "outputs": [
        {
          "name": "",
          "type": "uint256"
        },
        {
          "name": "",
          "type": "uint256"
        }
      ],
      "payable": false,
      "stateMutability": "view",
      "type": "function"
    }
  ],
  "bytecode": "0x608060408190526104b060015560008054600160a060020a0319163317808255600160a060020a0316917f8be0079c531659141344cd1fd0a4f28419497f9722a3daafe3b4186f6b6457e0908290a36109478061005d6000396000f3006080604052600436106100825763ffffffff7c0100000000000000000000000000000000000000000000000000000000600035041663634099cc8114610087578063715018a6146100a15780638da5cb5b146100b65780638f32d59b146100e7578063b4277bc114610110578063ce09614514610153578063f2fde38b146101f3575b600080fd5b34801561009357600080fd5b5061009f600435610214565b005b3480156100ad57600080fd5b5061009f610277565b3480156100c257600080fd5b506100cb61032c565b60408051600160a060020a039092168252519081900360200190f35b3480156100f357600080fd5b506100fc61033b565b604080519115158252519081900360200190f35b34801561011c57600080fd5b5061013a63ffffffff6004351660ff6024351660443560643561034c565b6040805192835260208301919091528051918290030190f35b34801561015f57600080fd5b50604080516020600460443581810135838102808601850190965280855261009f95833563ffffffff16956024803560ff1696369695606495939492019291829185019084908082843750506040805187358901803560208181028481018201909552818452989b9a99890198929750908201955093508392508501908490808284375094975061044d9650505050505050565b3480156101ff57600080fd5b5061009f600160a060020a0360043516610507565b61021c61033b565b1515610272576040805160e560020a62461bcd02815260206004820181905260248201527f4f776e61626c653a2063616c6c6572206973206e6f7420746865206f776e6572604482015290519081900360640190fd5b600155565b61027f61033b565b15156102d5576040805160e560020a62461bcd02815260206004820181905260248201527f4f776e61626c653a2063616c6c6572206973206e6f7420746865206f776e6572604482015290519081900360640190fd5b60008054604051600160a060020a03909116907f8be0079c531659141344cd1fd0a4f28419497f9722a3daafe3b4186f6b6457e0908390a36000805473ffffffffffffffffffffffffffffffffffffffff19169055565b600054600160a060020a031690565b600054600160a060020a0316331490565b6000806000806000806000806103638c8c8c610571565b9550851515610386576103788c8c888c6105e0565b6305f5e1009750975061043e565b6103958c8c600189038c6105e0565b94506103a38c8c888c6105e0565b93506103c08c63ffffffff168c60ff16600189036103e802610737565b92506103da8c63ffffffff168c60ff16886103e802610737565b600084815260036020526040902054909250610419906103f99061074c565b6000848152600360205260409020546104119061074c565b87878e610759565b90506000811361043357600197506305f5e100965061043e565b806305f5e100975097505b50505050505094509492505050565b8151600090818080805b848410156104fb576104778a63ffffffff168a60ff16866103e802610737565b9250878481518110151561048757fe5b9060200190602002015163ffffffff169150600090505b818110156104de5786868151811015156104b457fe5b6020908102909101810151848301600090815260039092526040909120556001958601950161049e565b828201600090815260036020526040812055600190930192610457565b50505050505050505050565b61050f61033b565b1515610565576040805160e560020a62461bcd02815260206004820181905260248201527f4f776e61626c653a2063616c6c6572206973206e6f7420746865206f776e6572604482015290519081900360640190fd5b61056e816107d4565b50565b60008080805b61058f8763ffffffff168760ff16856103e802610737565b60008181526003602052604090205490925090508015156105b657600019909201916105d5565b6105bf8161074c565b85116105ca576105d5565b600190920191610577565b509095945050505050565b6000806000806000806106018a63ffffffff168a60ff168a6103e802610737565b9450600093505b848401600090815260036020526040902054925082151561062f576000199093019261064e565b610638836108c2565b87116106435761064e565b600190930192610608565b848401600090815260036020526040902054610669906108c2565b9150868214156106955784840160009081526003602052604090205461068e906108db565b955061072a565b60001985850101600090815260036020526040902054610713906106b8906108c2565b8686016000908152600360205260409020546106d3906108c2565b600019888801016000908152600360205260409020546106f2906108db565b88880160009081526003602052604090205461070d906108db565b8b610759565b905060008113610726576001955061072a565b8095505b5050505050949350505050565b60006107448285856108f2565b949350505050565b67ffffffffffffffff1690565b6000848614156107b3576040805160e560020a62461bcd02815260206004820152601c60248201527f696e7075742076616c75657320617265206475706c6963617465642100000000604482015290519081900360640190fd5b858503868303858503028115156107c657fe5b058401905095945050505050565b600160a060020a038116151561085a576040805160e560020a62461bcd02815260206004820152602660248201527f4f776e61626c653a206e6577206f776e657220697320746865207a65726f206160448201527f6464726573730000000000000000000000000000000000000000000000000000606482015290519081900360840190fd5b60008054604051600160a060020a03808516939216917f8be0079c531659141344cd1fd0a4f28419497f9722a3daafe3b4186f6b6457e091a36000805473ffffffffffffffffffffffffffffffffffffffff1916600160a060020a0392909216919091179055565b68010000000000000000900467ffffffffffffffff1690565b700100000000000000000000000000000000900490565b7001000000000000000000000000000000000268010000000000000000919091029190910101905600a165627a7a723058204fb415efb5a329c86600b79fea4667246e67eb0be20f071b664c4f8e1d02f92a0029",
  "source": "pragma solidity ^0.4.26;\r\nimport \"./modules/Ownable.sol\";\r\nimport \"./modules/tuple.sol\";\r\ncontract ImpliedVol is Ownable {\r\n    uint256 internal ValidUntil = 1200;\r\n    uint256 constant private _calDecimal = 1e8;\r\n    uint256 internal inptutTime;\r\n    mapping(uint256=>uint256)internal ivMatrixMap;\r\n    function setValidUntil(uint256 timeLimit) public onlyOwner {\r\n        ValidUntil = timeLimit;\r\n    }\r\n    function setIvMatrix(uint32 underlying,uint8 optType,uint32[] childlen,uint256[] ivAry) public{\r\n        uint256 iter = 0;\r\n        uint nLen0 = childlen.length;\r\n        for (uint i=0;i<nLen0;i++){\r\n            uint256 index = getKey(underlying,optType,i*1000);\r\n            uint len1 = childlen[i];\r\n            for (uint j=0;j<len1;j++){\r\n                ivMatrixMap[index+j] = ivAry[iter];\r\n                iter++;\r\n            }\r\n            ivMatrixMap[index+len1] = 0;\r\n        }\r\n    }\r\n    function getKey(uint256 underlying,uint256 optType,uint256 index) internal pure returns(uint256){\r\n        return tuple64.getTuple3(index,underlying,optType);\r\n    }\r\n    /**\r\n    /**\r\n  * @notice retrieves implied volatility of an asset\r\n  * @dev function to get implied volatility for an asset\r\n  * @param expiration the option expiration which has been created in option manger contract\r\n  * @param price the option underlying strikePrice which has been created in option manger contract\r\n  * @return uint mantissa of asset implied volatility (scaled by 1e18) or zero if unset or contract paused\r\n  */\r\n    function calculateIv(uint32 underlying,uint8 optType,uint256 expiration,uint256 price)public view returns (uint256,uint256){\r\n        uint256 index = getTimeIndex(underlying,optType,expiration);\r\n        if (index == 0){\r\n            return (calculateTimeIv(underlying,optType,index,price),_calDecimal);\r\n        }\r\n        uint256 ivLow = calculateTimeIv(underlying,optType,index-1,price);\r\n        uint256 ivHigh = calculateTimeIv(underlying,optType,index,price);\r\n        uint256 key0 = getKey(underlying,optType,(index-1)*1000);\r\n        uint256 key1 = getKey(underlying,optType,index*1000);\r\n        int iv = insertValue(getTime(ivMatrixMap[key0]),getTime(ivMatrixMap[key1]),\r\n            int256(ivLow),int256(ivHigh),int256(expiration));\r\n        if (iv<=0){\r\n            return (1,_calDecimal);\r\n        }else{\r\n            return (uint256(iv),_calDecimal);\r\n        }\r\n    }\r\n    function getTimeIndex(uint32 underlying,uint8 optType,uint256 expiration) internal view returns(uint256){\r\n        for (uint i=0;true;i++){\r\n            uint256 key = getKey(underlying,optType,i*1000);\r\n            uint256 value = ivMatrixMap[key];\r\n            if (value == 0){\r\n                i--;\r\n                break;\r\n            }\r\n            if (expiration<=uint256(getTime(value))){\r\n                break;\r\n            }\r\n        }\r\n        return i;   \r\n    }\r\n    function calculateTimeIv(uint32 underlying,uint8 optType,uint256 index,uint256 price)internal view returns (uint256){\r\n        uint256 key = getKey(underlying,optType,index*1000);\r\n        for (uint i=0;true;i++){\r\n            uint256 value = ivMatrixMap[key+i];\r\n            if (value == 0){\r\n                i--;\r\n                break;\r\n            }\r\n            if (price<=uint256(getPrice(value))){\r\n                break;                \r\n            }\r\n        }\r\n        if (i == 0) {\r\n            i == 1;\r\n        }\r\n        int256 highPrice = getPrice(ivMatrixMap[key+i]);\r\n        if (uint256(highPrice) == price) {\r\n            return uint256(getIv(ivMatrixMap[key+i]));\r\n        }            \r\n        int iv = insertValue(getPrice(ivMatrixMap[key+i-1]),getPrice(ivMatrixMap[key+i]),\r\n            getIv(ivMatrixMap[key+i-1]),getIv(ivMatrixMap[key+i]),int256(price));\r\n        if (iv<=0){\r\n            return 1;\r\n        }else{\r\n            return uint256(iv);\r\n        }\r\n    }\r\n    function insertValue(int256 x0,int256 x1,int256 y0, int256 y1,int256 x)internal pure returns (int256){\r\n        require(x1 != x0,\"input values are duplicated!\");\r\n        return y0 + (y1-y0)*(x-x0)/(x1-x0);\r\n    }\r\n    function getTime(uint256 value)internal pure returns (int256) {\r\n        return int256(uint64(value));\r\n    }\r\n    function getPrice(uint256 value)internal pure returns (int256) {\r\n        return int256(uint64(value>>64));\r\n    }\r\n    function getIv(uint256 value)internal pure returns (int256) {\r\n        return int256(value>>128);\r\n    }\r\n}\r\n",
  "sourcePath": "C:\\work\\solidity\\FinnexusOptions_V2\\contracts\\impliedVol.sol",
  "compiler": {
    "name": "solc",
    "version": "0.4.26+commit.4563c3fc.Emscripten.clang"
  },
  "schemaVersion": "3.1.0",
  "updatedAt": "2020-08-03T14:27:23.436Z",
  "devdoc": {
    "methods": {
      "calculateIv(uint32,uint8,uint256,uint256)": {
        "details": "function to get implied volatility for an asset\r",
        "params": {
          "expiration": "the option expiration which has been created in option manger contract\r",
          "price": "the option underlying strikePrice which has been created in option manger contract\r"
        },
        "return": "uint mantissa of asset implied volatility (scaled by 1e18) or zero if unset or contract paused\r"
      },
      "isOwner()": {
        "details": "Returns true if the caller is the current owner."
      },
      "owner()": {
        "details": "Returns the address of the current owner."
      },
      "renounceOwnership()": {
        "details": "Leaves the contract without owner. It will not be possible to call `onlyOwner` functions anymore. Can only be called by the current owner.     * NOTE: Renouncing ownership will leave the contract without an owner, thereby removing any functionality that is only available to the owner."
      },
      "transferOwnership(address)": {
        "details": "Transfers ownership of the contract to a new account (`newOwner`). Can only be called by the current owner."
      }
    }
  },
  "userdoc": {
    "methods": {
      "calculateIv(uint32,uint8,uint256,uint256)": {
        "notice": "/**\rretrieves implied volatility of an asset\r"
      }
    }
  }
}