{
  "contractName": "ImpliedVolatility",
  "abi": [
    {
      "constant": true,
      "inputs": [],
      "name": "ValidUntil",
      "outputs": [
        {
          "name": "",
          "type": "uint256"
        }
      ],
      "payable": false,
      "stateMutability": "view",
      "type": "function"
    },
    {
      "constant": true,
      "inputs": [],
      "name": "inptutTime",
      "outputs": [
        {
          "name": "",
          "type": "uint256"
        }
      ],
      "payable": false,
      "stateMutability": "view",
      "type": "function"
    },
    {
      "constant": false,
      "inputs": [],
      "name": "renounceOwnership",
      "outputs": [],
      "payable": false,
      "stateMutability": "nonpayable",
      "type": "function"
    },
    {
      "constant": true,
      "inputs": [],
      "name": "owner",
      "outputs": [
        {
          "name": "",
          "type": "address"
        }
      ],
      "payable": false,
      "stateMutability": "view",
      "type": "function"
    },
    {
      "constant": true,
      "inputs": [],
      "name": "isOwner",
      "outputs": [
        {
          "name": "",
          "type": "bool"
        }
      ],
      "payable": false,
      "stateMutability": "view",
      "type": "function"
    },
    {
      "constant": true,
      "inputs": [
        {
          "name": "",
          "type": "uint256"
        },
        {
          "name": "",
          "type": "uint256"
        }
      ],
      "name": "ivMatrix",
      "outputs": [
        {
          "name": "",
          "type": "uint256"
        }
      ],
      "payable": false,
      "stateMutability": "view",
      "type": "function"
    },
    {
      "constant": false,
      "inputs": [
        {
          "name": "newOwner",
          "type": "address"
        }
      ],
      "name": "transferOwnership",
      "outputs": [],
      "payable": false,
      "stateMutability": "nonpayable",
      "type": "function"
    },
    {
      "anonymous": false,
      "inputs": [
        {
          "indexed": true,
          "name": "previousOwner",
          "type": "address"
        },
        {
          "indexed": true,
          "name": "newOwner",
          "type": "address"
        }
      ],
      "name": "OwnershipTransferred",
      "type": "event"
    },
    {
      "constant": false,
      "inputs": [
        {
          "name": "timeLimit",
          "type": "uint256"
        }
      ],
      "name": "setValidUntil",
      "outputs": [],
      "payable": false,
      "stateMutability": "nonpayable",
      "type": "function"
    },
    {
      "constant": false,
      "inputs": [
        {
          "name": "expirationAry",
          "type": "uint32[]"
        },
        {
          "name": "childlen",
          "type": "uint32[]"
        },
        {
          "name": "priceAry",
          "type": "uint64[]"
        },
        {
          "name": "ivAry",
          "type": "uint64[]"
        }
      ],
      "name": "setIvMatrix",
      "outputs": [],
      "payable": false,
      "stateMutability": "nonpayable",
      "type": "function"
    },
    {
      "constant": true,
      "inputs": [
        {
          "name": "expiration",
          "type": "uint256"
        },
        {
          "name": "price",
          "type": "uint256"
        }
      ],
      "name": "calculateIv",
      "outputs": [
        {
          "name": "",
          "type": "uint256"
        },
        {
          "name": "",
          "type": "uint256"
        }
      ],
      "payable": false,
      "stateMutability": "view",
      "type": "function"
    }
  ],
  "bytecode": "0x608060408190526104b060015560008054600160a060020a0319163317808255600160a060020a0316917f8be0079c531659141344cd1fd0a4f28419497f9722a3daafe3b4186f6b6457e0908290a3610dec8061005d6000396000f3006080604052600436106100a35763ffffffff7c010000000000000000000000000000000000000000000000000000000060003504166338b7e2e681146100a85780634af5b1e2146101aa57806352ca59fa146101d1578063634099cc146101e6578063715018a6146101fe5780638da5cb5b146102135780638f32d59b14610244578063a6e33d651461026d578063ad1bb83314610288578063f2fde38b146102bc575b600080fd5b3480156100b457600080fd5b50604080516020600480358082013583810280860185019096528085526101a895369593946024949385019291829185019084908082843750506040805187358901803560208181028481018201909552818452989b9a998901989297509082019550935083925085019084908082843750506040805187358901803560208181028481018201909552818452989b9a998901989297509082019550935083925085019084908082843750506040805187358901803560208181028481018201909552818452989b9a9989019892975090820195509350839250850190849080828437509497506102dd9650505050505050565b005b3480156101b657600080fd5b506101bf6105c9565b60408051918252519081900360200190f35b3480156101dd57600080fd5b506101bf6105cf565b3480156101f257600080fd5b506101a86004356105d5565b34801561020a57600080fd5b506101a8610626565b34801561021f57600080fd5b506102286106c9565b60408051600160a060020a039092168252519081900360200190f35b34801561025057600080fd5b506102596106d9565b604080519115158252519081900360200190f35b34801561027957600080fd5b506101bf6004356024356106ea565b34801561029457600080fd5b506102a3600435602435610724565b6040805192835260208301919091528051918290030190f35b3480156102c857600080fd5b506101a8600160a060020a0360043516610909565b6000806000806000606060008060006102f46106d9565b1515610338576040805160e560020a62461bcd0281526020600482018190526024820152600080516020610da1833981519152604482015290519081900360640190fd5b89518b51146103b7576040805160e560020a62461bcd02815260206004820152602160248201527f696e7470757420617272617973206d7573742062652073616d65206c656e677460448201527f6800000000000000000000000000000000000000000000000000000000000000606482015290519081900360840190fd5b8b518d5114610436576040805160e560020a62461bcd02815260206004820152602160248201527f696e7470757420617272617973206d7573742062652073616d65206c656e677460448201527f6800000000000000000000000000000000000000000000000000000000000000606482015290519081900360840190fd5b6000610443600382610cd1565b50600098508c519750600096505b878710156105ba578c8781518110151561046757fe5b9060200190602002015163ffffffff1695508b8781518110151561048757fe5b9060200190602002015163ffffffff169450846040519080825280602002602001820160405280156104c3578160200160208202803883390190505b509350600092505b84831015610569578a898151811015156104e157fe5b9060200190602002015167ffffffffffffffff169150898981518110151561050557fe5b60209081029091010151845167ffffffffffffffff909116915068010000000000000000830287017001000000000000000000000000000000008302019085908590811061054f57fe5b6020908102909101015260019889019892909201916104cb565b600380546001810180835560009290925285516105ad917fc2575a0e9e593c00f959f8c92f12db2869c3395a3b0502d05e2516446f71f85b01906020880190610cfa565b5050600190960195610451565b50505050505050505050505050565b60015481565b60025481565b6105dd6106d9565b1515610621576040805160e560020a62461bcd0281526020600482018190526024820152600080516020610da1833981519152604482015290519081900360640190fd5b600155565b61062e6106d9565b1515610672576040805160e560020a62461bcd0281526020600482018190526024820152600080516020610da1833981519152604482015290519081900360640190fd5b60008054604051600160a060020a03909116907f8be0079c531659141344cd1fd0a4f28419497f9722a3daafe3b4186f6b6457e0908390a36000805473ffffffffffffffffffffffffffffffffffffffff19169055565b600054600160a060020a03165b90565b600054600160a060020a0316331490565b60038054839081106106f857fe5b906000526020600020018181548110151561070f57fe5b90600052602060002001600091509150505481565b6003546000908190818080806002851015610789576040805160e560020a62461bcd02815260206004820152601c60248201527f7072696365206976206c697374206973206c657373207468616e203200000000604482015290519081900360640190fd5b600093505b848410156107e6576107d06003858154811015156107a857fe5b9060005260206000200160008154811015156107c057fe5b9060005260206000200154610961565b89116107db576107e6565b60019093019261078e565b83151561086d5761085f6003600081548110151561080057fe5b9060005260206000200180548060200260200160405190810160405280929190818152602001828054801561085457602002820191906000526020600020905b815481526020019060010190808311610840575b50505050508961096e565b6305f5e100965096506108fd565b84841061087b576001850393505b61089060036001860381548110151561080057fe5b92506108a460038581548110151561080057fe5b91506108d86108be6003600187038154811015156107a857fe5b6108d06003878154811015156107a857fe5b85858d610abe565b9050600081136108f257600196506305f5e10095506108fd565b806305f5e100965096505b50505050509250929050565b6109116106d9565b1515610955576040805160e560020a62461bcd0281526020600482018190526024820152600080516020610da1833981519152604482015290519081900360640190fd5b61095e81610b39565b50565b67ffffffffffffffff1690565b815160009081808060028410156109cf576040805160e560020a62461bcd02815260206004820152601c60248201527f7072696365206976206c697374206973206c657373207468616e203200000000604482015290519081900360640190fd5b6109d98787610c27565b92508383106109ed57600184039250610a3e565b610a0d87848151811015156109fe57fe5b90602001906020020151610ca1565b915085821415610a3e57610a378784815181101515610a2857fe5b90602001906020020151610cba565b9450610ab4565b821515610a4a57600192505b610a9d610a6188600186038151811015156109fe57fe5b610a7289868151811015156109fe57fe5b610a868a60018803815181101515610a2857fe5b610a978b88815181101515610a2857fe5b8a610abe565b905060008113610ab05760019450610ab4565b8094505b5050505092915050565b600084861415610b18576040805160e560020a62461bcd02815260206004820152601c60248201527f696e7075742076616c75657320617265206475706c6963617465642100000000604482015290519081900360640190fd5b85850386830385850302811515610b2b57fe5b058401905095945050505050565b600160a060020a0381161515610bbf576040805160e560020a62461bcd02815260206004820152602660248201527f4f776e61626c653a206e6577206f776e657220697320746865207a65726f206160448201527f6464726573730000000000000000000000000000000000000000000000000000606482015290519081900360840190fd5b60008054604051600160a060020a03808516939216917f8be0079c531659141344cd1fd0a4f28419497f9722a3daafe3b4186f6b6457e091a36000805473ffffffffffffffffffffffffffffffffffffffff1916600160a060020a0392909216919091179055565b815160009081906000190181805b828411610c96576002838501049150610c5587838151811015156109fe57fe5b905085811415610c6757819450610ab4565b85811215610c7a57816001019350610c91565b811515610c8a5760009450610ab4565b6001820392505b610c35565b509195945050505050565b68010000000000000000900467ffffffffffffffff1690565b700100000000000000000000000000000000900490565b815481835581811115610cf557600083815260209020610cf5918101908301610d45565b505050565b828054828255906000526020600020908101928215610d35579160200282015b82811115610d35578251825591602001919060010190610d1a565b50610d41929150610d68565b5090565b6106d691905b80821115610d41576000610d5f8282610d82565b50600101610d4b565b6106d691905b80821115610d415760008155600101610d6e565b508054600082559060005260206000209081019061095e9190610d6856004f776e61626c653a2063616c6c6572206973206e6f7420746865206f776e6572a165627a7a723058201b8a240cef8448f487199b16e5b659070f447c1c2a764c9ba1efa872e66382230029",
  "source": "pragma solidity ^0.4.26;\r\nimport \"./modules/Ownable.sol\";\r\ncontract ImpliedVolatility is Ownable {\r\n    uint256 public ValidUntil = 1200;\r\n    uint256 constant _calDecimal = 1e8;\r\n    uint256 public inptutTime;\r\n    uint256[][] public ivMatrix;\r\n    function setValidUntil(uint256 timeLimit) public onlyOwner {\r\n        ValidUntil = timeLimit;\r\n    }\r\n    function setIvMatrix(uint32[]expirationAry,uint32[] childlen,uint64[] priceAry,uint64[] ivAry) public onlyOwner{\r\n        require(priceAry.length == ivAry.length,\"intput arrays must be same length\");\r\n        require(expirationAry.length == childlen.length,\"intput arrays must be same length\");\r\n        ivMatrix.length = 0;\r\n        uint index = 0;\r\n        uint len = expirationAry.length;\r\n        for (uint i=0;i<len;i++){\r\n            uint256 expiration = uint256(expirationAry[i]);\r\n            uint len1 = childlen[i];\r\n            uint256[] memory childAry = new uint256[](len1);\r\n            for (uint j=0;j<len1;j++){\r\n                uint256 price = uint256(priceAry[index]);\r\n                uint256 iv = uint256(ivAry[index]);\r\n                childAry[j] = expiration+(price<<64)+(iv<<128);\r\n                index++;\r\n            }\r\n            ivMatrix.push(childAry);\r\n        }\r\n    }\r\n    /**\r\n    /**\r\n  * @notice retrieves implied volatility of an asset\r\n  * @dev function to get implied volatility for an asset\r\n  * @param expiration the option expiration which has been created in option manger contract\r\n  * @param price the option underlying strikePrice which has been created in option manger contract\r\n  * @return uint mantissa of asset implied volatility (scaled by 1e18) or zero if unset or contract paused\r\n  */\r\n    function calculateIv(uint256 expiration,uint256 price)public view returns (uint256,uint256){\r\n        uint256 mxLen = ivMatrix.length;\r\n        require(mxLen>=2,\"price iv list is less than 2\");\r\n        for (uint256 i=0;i<mxLen;i++){\r\n            if (expiration<=uint256(getTime(ivMatrix[i][0]))){\r\n                break;\r\n            }\r\n        }\r\n        if (i == 0){\r\n            return (calculateTimeIv(ivMatrix[0],price),_calDecimal);\r\n        }else if (i >= mxLen){\r\n            i = mxLen - 1;\r\n        }\r\n        uint256 ivLow = calculateTimeIv(ivMatrix[i-1],price);\r\n        uint256 ivHigh = calculateTimeIv(ivMatrix[i],price);\r\n        int iv = insertValue(getTime(ivMatrix[i-1][0]),getTime(ivMatrix[i][0]),\r\n            int256(ivLow),int256(ivHigh),int256(expiration));\r\n        if (iv<=0){\r\n            return (1,_calDecimal);\r\n        }else{\r\n            return (uint256(iv),_calDecimal);\r\n        }\r\n    }\r\n    function calculateTimeIv(uint256[] memory _matrix,uint256 price)internal pure returns (uint256){\r\n        uint256 mxLen = _matrix.length;\r\n        require(mxLen>=2,\"price iv list is less than 2\");\r\n        uint256 index = binarySearch(_matrix,int256(price));\r\n        if (index >= mxLen){\r\n            index = mxLen-1;\r\n        }else{\r\n            int256 highPrice = getPrice(_matrix[index]);\r\n            if (uint256(highPrice) == price) {\r\n                return uint256(getIv(_matrix[index]));\r\n            }            \r\n        }\r\n        if(index == 0){\r\n            index = 1;\r\n        }\r\n        int iv = insertValue(getPrice(_matrix[index-1]),getPrice(_matrix[index]),\r\n            getIv(_matrix[index-1]),getIv(_matrix[index]),int256(price));\r\n        if (iv<=0){\r\n            return 1;\r\n        }else{\r\n            return uint256(iv);\r\n        }\r\n    }\r\n    function insertValue(int256 x0,int256 x1,int256 y0, int256 y1,int256 x)internal pure returns (int256){\r\n        require(x1 != x0,\"input values are duplicated!\");\r\n        return y0 + (y1-y0)*(x-x0)/(x1-x0);\r\n    }\r\n    function getTime(uint256 value)internal pure returns (int256) {\r\n        return int256(uint64(value));\r\n    }\r\n    function getPrice(uint256 value)internal pure returns (int256) {\r\n        return int256(uint64(value>>64));\r\n    }\r\n    function getIv(uint256 value)internal pure returns (int256) {\r\n        return int256(value>>128);\r\n    }\r\n    function binarySearch(uint256[] memory _matrix,int256 price)internal pure returns (uint256) {\r\n        uint256 low = 0;\r\n        uint256 high = _matrix.length - 1;\r\n        while (low <= high) {\r\n            uint256 mid = (high + low) / 2;\r\n            int256 midPrice = getPrice(_matrix[mid]);\r\n            if (midPrice == price){\r\n                return mid;\r\n            }else if (midPrice < price){\r\n                low = mid + 1;\r\n            } \r\n            else{\r\n                if (mid == 0){\r\n                    return 0;\r\n                }\r\n                high = mid - 1;\r\n            } \r\n        }\r\n        return low;\r\n    }\r\n}\r\n",
  "sourcePath": "C:\\work\\solidity\\FinnexusOptions_V2\\contracts\\impliedVolatility.sol",
  "compiler": {
    "name": "solc",
    "version": "0.4.26+commit.4563c3fc.Emscripten.clang"
  },
  "schemaVersion": "3.1.0",
  "updatedAt": "2020-07-21T14:36:56.416Z",
  "networkType": "ethereum",
  "devdoc": {
    "methods": {
      "calculateIv(uint256,uint256)": {
        "details": "function to get implied volatility for an asset\r",
        "params": {
          "expiration": "the option expiration which has been created in option manger contract\r",
          "price": "the option underlying strikePrice which has been created in option manger contract\r"
        },
        "return": "uint mantissa of asset implied volatility (scaled by 1e18) or zero if unset or contract paused\r"
      },
      "isOwner()": {
        "details": "Returns true if the caller is the current owner."
      },
      "owner()": {
        "details": "Returns the address of the current owner."
      },
      "renounceOwnership()": {
        "details": "Leaves the contract without owner. It will not be possible to call `onlyOwner` functions anymore. Can only be called by the current owner.     * NOTE: Renouncing ownership will leave the contract without an owner, thereby removing any functionality that is only available to the owner."
      },
      "transferOwnership(address)": {
        "details": "Transfers ownership of the contract to a new account (`newOwner`). Can only be called by the current owner."
      }
    }
  },
  "userdoc": {
    "methods": {
      "calculateIv(uint256,uint256)": {
        "notice": "/**\rretrieves implied volatility of an asset\r"
      }
    }
  }
}