{
  "contractName": "ImportOptionsPool",
  "abi": [
    {
      "constant": false,
      "inputs": [],
      "name": "renounceOwnership",
      "outputs": [],
      "payable": false,
      "stateMutability": "nonpayable",
      "type": "function"
    },
    {
      "constant": true,
      "inputs": [],
      "name": "owner",
      "outputs": [
        {
          "name": "",
          "type": "address"
        }
      ],
      "payable": false,
      "stateMutability": "view",
      "type": "function"
    },
    {
      "constant": true,
      "inputs": [],
      "name": "isOwner",
      "outputs": [
        {
          "name": "",
          "type": "bool"
        }
      ],
      "payable": false,
      "stateMutability": "view",
      "type": "function"
    },
    {
      "constant": false,
      "inputs": [
        {
          "name": "newOwner",
          "type": "address"
        }
      ],
      "name": "transferOwnership",
      "outputs": [],
      "payable": false,
      "stateMutability": "nonpayable",
      "type": "function"
    },
    {
      "anonymous": false,
      "inputs": [
        {
          "indexed": true,
          "name": "previousOwner",
          "type": "address"
        },
        {
          "indexed": true,
          "name": "newOwner",
          "type": "address"
        }
      ],
      "name": "OwnershipTransferred",
      "type": "event"
    },
    {
      "constant": true,
      "inputs": [],
      "name": "getOptionsPoolAddress",
      "outputs": [
        {
          "name": "",
          "type": "address"
        }
      ],
      "payable": false,
      "stateMutability": "view",
      "type": "function"
    },
    {
      "constant": false,
      "inputs": [
        {
          "name": "optionsPool",
          "type": "address"
        }
      ],
      "name": "setOptionsPoolAddress",
      "outputs": [],
      "payable": false,
      "stateMutability": "nonpayable",
      "type": "function"
    }
  ],
  "bytecode": "0x6080604081905260008054600160a060020a0319163317808255600160a060020a0316917f8be0079c531659141344cd1fd0a4f28419497f9722a3daafe3b4186f6b6457e0908290a3610439806100576000396000f3006080604052600436106100775763ffffffff7c01000000000000000000000000000000000000000000000000000000006000350416631a5a3fce811461007c578063715018a61461009f5780638da5cb5b146100b45780638f32d59b146100e5578063c040725a1461010e578063f2fde38b14610123575b600080fd5b34801561008857600080fd5b5061009d600160a060020a0360043516610144565b005b3480156100ab57600080fd5b5061009d6101d1565b3480156100c057600080fd5b506100c9610286565b60408051600160a060020a039092168252519081900360200190f35b3480156100f157600080fd5b506100fa610295565b604080519115158252519081900360200190f35b34801561011a57600080fd5b506100c96102a6565b34801561012f57600080fd5b5061009d600160a060020a03600435166102b5565b61014c610295565b15156101a2576040805160e560020a62461bcd02815260206004820181905260248201527f4f776e61626c653a2063616c6c6572206973206e6f7420746865206f776e6572604482015290519081900360640190fd5b6001805473ffffffffffffffffffffffffffffffffffffffff1916600160a060020a0392909216919091179055565b6101d9610295565b151561022f576040805160e560020a62461bcd02815260206004820181905260248201527f4f776e61626c653a2063616c6c6572206973206e6f7420746865206f776e6572604482015290519081900360640190fd5b60008054604051600160a060020a03909116907f8be0079c531659141344cd1fd0a4f28419497f9722a3daafe3b4186f6b6457e0908390a36000805473ffffffffffffffffffffffffffffffffffffffff19169055565b600054600160a060020a031690565b600054600160a060020a0316331490565b600154600160a060020a031690565b6102bd610295565b1515610313576040805160e560020a62461bcd02815260206004820181905260248201527f4f776e61626c653a2063616c6c6572206973206e6f7420746865206f776e6572604482015290519081900360640190fd5b61031c8161031f565b50565b600160a060020a03811615156103a5576040805160e560020a62461bcd02815260206004820152602660248201527f4f776e61626c653a206e6577206f776e657220697320746865207a65726f206160448201527f6464726573730000000000000000000000000000000000000000000000000000606482015290519081900360840190fd5b60008054604051600160a060020a03808516939216917f8be0079c531659141344cd1fd0a4f28419497f9722a3daafe3b4186f6b6457e091a36000805473ffffffffffffffffffffffffffffffffffffffff1916600160a060020a03929092169190911790555600a165627a7a723058208790829f1a9858849c79a0ee07110efae93e5483c4f5e82a59d3cc8202cfcc3c0029",
  "source": "pragma solidity ^0.4.26;\r\nimport \"../modules/Ownable.sol\";\r\ninterface IOptionsPool {\r\n    function getOptionBalances(address user) external view returns(uint256[]);\r\n\r\n    function createOptions(address from,address settlement,uint256 type_ly_exp,uint256 strikePrice,uint256 optionPrice,\r\n                uint256 amount)  external;\r\n    function calculatePhaseSharedPayment(uint256 calInfo,address[] whiteList)\r\n        external view returns(uint256[],uint256,bool);\r\n    function setSharedState(uint256 calInfo,uint256 firstOption,uint256[] prices,uint256 calTime) external;\r\n    function getTotalOccupiedCollateral() external view returns (uint256);\r\n    function buyOptionCheck(uint256 expiration,uint32 underlying)external view;\r\n    function burnOptions(address from,uint256 id,uint256 amount)external;\r\n    function getOptionsById(uint256 optionsId)external view returns(uint256,address,uint8,uint32,uint256,uint256,uint256);\r\n    function getExerciseWorth(uint256 optionsId,uint256 amount)external view returns(uint256);\r\n    function getLatestOption()external view returns(uint256,address,uint8,uint32,uint256,uint256,uint256);\r\n    function calculatePhaseOptionsFall(uint256 calInfo,address[] whiteList) external view returns(int256[],uint256[]);\r\n}\r\ncontract ImportOptionsPool is Ownable{\r\n    IOptionsPool internal _optionsPool;\r\n    function getOptionsPoolAddress() public view returns(address){\r\n        return address(_optionsPool);\r\n    }\r\n    function setOptionsPoolAddress(address optionsPool)public onlyOwner{\r\n        _optionsPool = IOptionsPool(optionsPool);\r\n    }\r\n}",
  "sourcePath": "C:\\work\\solidity\\FinnexusOptions_V2\\contracts\\interfaces\\IOptionsPool.sol",
  "compiler": {
    "name": "solc",
    "version": "0.4.26+commit.4563c3fc.Emscripten.clang"
  },
  "schemaVersion": "3.1.0",
  "updatedAt": "2020-07-22T15:09:36.512Z",
  "devdoc": {
    "methods": {
      "isOwner()": {
        "details": "Returns true if the caller is the current owner."
      },
      "owner()": {
        "details": "Returns the address of the current owner."
      },
      "renounceOwnership()": {
        "details": "Leaves the contract without owner. It will not be possible to call `onlyOwner` functions anymore. Can only be called by the current owner.     * NOTE: Renouncing ownership will leave the contract without an owner, thereby removing any functionality that is only available to the owner."
      },
      "transferOwnership(address)": {
        "details": "Transfers ownership of the contract to a new account (`newOwner`). Can only be called by the current owner."
      }
    }
  },
  "userdoc": {
    "methods": {}
  }
}