{
  "contractName": "ImportCollateralPool",
  "abi": [
    {
      "constant": false,
      "inputs": [],
      "name": "renounceOwnership",
      "outputs": [],
      "payable": false,
      "stateMutability": "nonpayable",
      "type": "function"
    },
    {
      "constant": true,
      "inputs": [],
      "name": "owner",
      "outputs": [
        {
          "name": "",
          "type": "address"
        }
      ],
      "payable": false,
      "stateMutability": "view",
      "type": "function"
    },
    {
      "constant": true,
      "inputs": [],
      "name": "isOwner",
      "outputs": [
        {
          "name": "",
          "type": "bool"
        }
      ],
      "payable": false,
      "stateMutability": "view",
      "type": "function"
    },
    {
      "constant": false,
      "inputs": [
        {
          "name": "newOwner",
          "type": "address"
        }
      ],
      "name": "transferOwnership",
      "outputs": [],
      "payable": false,
      "stateMutability": "nonpayable",
      "type": "function"
    },
    {
      "anonymous": false,
      "inputs": [
        {
          "indexed": true,
          "name": "previousOwner",
          "type": "address"
        },
        {
          "indexed": true,
          "name": "newOwner",
          "type": "address"
        }
      ],
      "name": "OwnershipTransferred",
      "type": "event"
    },
    {
      "constant": true,
      "inputs": [],
      "name": "getCollateralPoolAddress",
      "outputs": [
        {
          "name": "",
          "type": "address"
        }
      ],
      "payable": false,
      "stateMutability": "view",
      "type": "function"
    },
    {
      "constant": false,
      "inputs": [
        {
          "name": "collateralPool",
          "type": "address"
        }
      ],
      "name": "setCollateralPoolAddress",
      "outputs": [],
      "payable": false,
      "stateMutability": "nonpayable",
      "type": "function"
    }
  ],
  "bytecode": "0x6080604081905260008054600160a060020a0319163317808255600160a060020a0316917f8be0079c531659141344cd1fd0a4f28419497f9722a3daafe3b4186f6b6457e0908290a3610439806100576000396000f3006080604052600436106100775763ffffffff7c01000000000000000000000000000000000000000000000000000000006000350416631730b3cb811461007c578063251e2fe31461009f578063715018a6146100d05780638da5cb5b146100e55780638f32d59b146100fa578063f2fde38b14610123575b600080fd5b34801561008857600080fd5b5061009d600160a060020a0360043516610144565b005b3480156100ab57600080fd5b506100b46101d1565b60408051600160a060020a039092168252519081900360200190f35b3480156100dc57600080fd5b5061009d6101e0565b3480156100f157600080fd5b506100b4610295565b34801561010657600080fd5b5061010f6102a4565b604080519115158252519081900360200190f35b34801561012f57600080fd5b5061009d600160a060020a03600435166102b5565b61014c6102a4565b15156101a2576040805160e560020a62461bcd02815260206004820181905260248201527f4f776e61626c653a2063616c6c6572206973206e6f7420746865206f776e6572604482015290519081900360640190fd5b6001805473ffffffffffffffffffffffffffffffffffffffff1916600160a060020a0392909216919091179055565b600154600160a060020a031690565b6101e86102a4565b151561023e576040805160e560020a62461bcd02815260206004820181905260248201527f4f776e61626c653a2063616c6c6572206973206e6f7420746865206f776e6572604482015290519081900360640190fd5b60008054604051600160a060020a03909116907f8be0079c531659141344cd1fd0a4f28419497f9722a3daafe3b4186f6b6457e0908390a36000805473ffffffffffffffffffffffffffffffffffffffff19169055565b600054600160a060020a031690565b600054600160a060020a0316331490565b6102bd6102a4565b1515610313576040805160e560020a62461bcd02815260206004820181905260248201527f4f776e61626c653a2063616c6c6572206973206e6f7420746865206f776e6572604482015290519081900360640190fd5b61031c8161031f565b50565b600160a060020a03811615156103a5576040805160e560020a62461bcd02815260206004820152602660248201527f4f776e61626c653a206e6577206f776e657220697320746865207a65726f206160448201527f6464726573730000000000000000000000000000000000000000000000000000606482015290519081900360840190fd5b60008054604051600160a060020a03808516939216917f8be0079c531659141344cd1fd0a4f28419497f9722a3daafe3b4186f6b6457e091a36000805473ffffffffffffffffffffffffffffffffffffffff1916600160a060020a03929092169190911790555600a165627a7a72305820b459fb2899db9a701d403f73cbac98b82eeac8d91d935b54cf29767177ca7a790029",
  "source": "pragma solidity ^0.4.26;\r\nimport \"../modules/Ownable.sol\";\r\ninterface ICollateralPool {\r\n    function getUserPayingUsd(address user)external view returns (uint256);\r\n    function userInputCollateral(address user,address collateral)external view returns (uint256);\r\n    function getNetWorthBalance(address collateral)external view returns (uint256);\r\n    function getCollateralBalance(address collateral)external view returns (uint256);\r\n    function calUserNetWorthBalanceRate(address settlement,address user)external view returns(uint256,uint256);\r\n\r\n    //add\r\n    function addUserPayingUsd(address user,uint256 amount)external;\r\n    function addUserInputCollateral(address user,address collateral,uint256 amount)external;\r\n    function addNetWorthBalance(address collateral,uint256 amount)external;\r\n    function addCollateralBalance(address collateral,uint256 amount)external;\r\n    //sub\r\n    function subUserPayingUsd(address user,uint256 amount)external;\r\n    function subUserInputCollateral(address user,address collateral,uint256 amount)external;\r\n    function subNetWorthBalance(address collateral,uint256 amount)external;\r\n    function subCollateralBalance(address collateral,uint256 amount)external;\r\n        //set\r\n    function setUserPayingUsd(address user,uint256 amount)external;\r\n    function setUserInputCollateral(address user,address collateral,uint256 amount)external;\r\n    function setNetWorthBalance(address collateral,uint256 amount)external;\r\n    function setCollateralBalance(address collateral,uint256 amount)external;\r\n    function transferPaybackAndFee(address recieptor,address settleMent,uint256 payback,uint256 feeType)external;\r\n    function transferPayback(address recieptor,address settlement,uint256 payback)external;\r\n}\r\ncontract ImportCollateralPool is Ownable{\r\n    ICollateralPool internal _collateralPool;\r\n    function getCollateralPoolAddress() public view returns(address){\r\n        return address(_collateralPool);\r\n    }\r\n    function setCollateralPoolAddress(address collateralPool)public onlyOwner{\r\n        _collateralPool = ICollateralPool(collateralPool);\r\n    }\r\n}",
  "sourcePath": "C:\\work\\solidity\\FinnexusOptions_V2\\contracts\\interfaces\\ICollateralPool.sol",
  "compiler": {
    "name": "solc",
    "version": "0.4.26+commit.4563c3fc.Emscripten.clang"
  },
  "schemaVersion": "3.1.0",
  "updatedAt": "2020-08-01T12:28:46.327Z",
  "devdoc": {
    "methods": {
      "isOwner()": {
        "details": "Returns true if the caller is the current owner."
      },
      "owner()": {
        "details": "Returns the address of the current owner."
      },
      "renounceOwnership()": {
        "details": "Leaves the contract without owner. It will not be possible to call `onlyOwner` functions anymore. Can only be called by the current owner.     * NOTE: Renouncing ownership will leave the contract without an owner, thereby removing any functionality that is only available to the owner."
      },
      "transferOwnership(address)": {
        "details": "Transfers ownership of the contract to a new account (`newOwner`). Can only be called by the current owner."
      }
    }
  },
  "userdoc": {
    "methods": {}
  }
}