{
  "contractName": "ImputRange",
  "abi": [
    {
      "anonymous": false,
      "inputs": [
        {
          "indexed": true,
          "internalType": "address",
          "name": "previousOwner",
          "type": "address"
        },
        {
          "indexed": true,
          "internalType": "address",
          "name": "newOwner",
          "type": "address"
        }
      ],
      "name": "OwnershipTransferred",
      "type": "event"
    },
    {
      "constant": true,
      "inputs": [],
      "name": "isOwner",
      "outputs": [
        {
          "internalType": "bool",
          "name": "",
          "type": "bool"
        }
      ],
      "payable": false,
      "stateMutability": "view",
      "type": "function"
    },
    {
      "constant": true,
      "inputs": [],
      "name": "owner",
      "outputs": [
        {
          "internalType": "address",
          "name": "",
          "type": "address"
        }
      ],
      "payable": false,
      "stateMutability": "view",
      "type": "function"
    },
    {
      "constant": false,
      "inputs": [],
      "name": "renounceOwnership",
      "outputs": [],
      "payable": false,
      "stateMutability": "nonpayable",
      "type": "function"
    },
    {
      "constant": false,
      "inputs": [
        {
          "internalType": "address",
          "name": "newOwner",
          "type": "address"
        }
      ],
      "name": "transferOwnership",
      "outputs": [],
      "payable": false,
      "stateMutability": "nonpayable",
      "type": "function"
    },
    {
      "constant": true,
      "inputs": [
        {
          "internalType": "uint256",
          "name": "Amount",
          "type": "uint256"
        }
      ],
      "name": "isInputAmountInRange",
      "outputs": [
        {
          "internalType": "bool",
          "name": "",
          "type": "bool"
        }
      ],
      "payable": false,
      "stateMutability": "view",
      "type": "function"
    },
    {
      "constant": true,
      "inputs": [],
      "name": "getInputAmountRange",
      "outputs": [
        {
          "internalType": "uint256",
          "name": "",
          "type": "uint256"
        },
        {
          "internalType": "uint256",
          "name": "",
          "type": "uint256"
        }
      ],
      "payable": false,
      "stateMutability": "view",
      "type": "function"
    },
    {
      "constant": false,
      "inputs": [
        {
          "internalType": "uint256",
          "name": "_minAmount",
          "type": "uint256"
        },
        {
          "internalType": "uint256",
          "name": "_maxAmount",
          "type": "uint256"
        }
      ],
      "name": "setInputAmountRange",
      "outputs": [],
      "payable": false,
      "stateMutability": "nonpayable",
      "type": "function"
    }
  ],
  "bytecode": "0x608060408190526c0c9f2c9cd04674edea40000000600155606460025560008054600160a060020a0319163317808255600160a060020a0316917f8be0079c531659141344cd1fd0a4f28419497f9722a3daafe3b4186f6b6457e0908290a36104438061006d6000396000f3fe608060405234801561001057600080fd5b506004361061009a576000357c0100000000000000000000000000000000000000000000000000000000900480638f32d59b116100785780638f32d59b146100fe5780639ab91a3514610106578063bc9abed214610129578063f2fde38b1461014a5761009a565b8063715018a61461009f578063813b5d4b146100a95780638da5cb5b146100da575b600080fd5b6100a7610170565b005b6100c6600480360360208110156100bf57600080fd5b5035610223565b604080519115158252519081900360200190f35b6100e261023f565b60408051600160a060020a039092168252519081900360200190f35b6100c661024e565b6100a76004803603604081101561011c57600080fd5b508035906020013561025f565b6101316102c6565b6040805192835260208301919091528051918290030190f35b6100a76004803603602081101561016057600080fd5b5035600160a060020a03166102d0565b61017861024e565b6101cc576040805160e560020a62461bcd02815260206004820181905260248201527f4f776e61626c653a2063616c6c6572206973206e6f7420746865206f776e6572604482015290519081900360640190fd5b60008054604051600160a060020a03909116907f8be0079c531659141344cd1fd0a4f28419497f9722a3daafe3b4186f6b6457e0908390a36000805473ffffffffffffffffffffffffffffffffffffffff19169055565b6000816001541015801561023957508160025411155b92915050565b600054600160a060020a031690565b600054600160a060020a0316331490565b61026761024e565b6102bb576040805160e560020a62461bcd02815260206004820181905260248201527f4f776e61626c653a2063616c6c6572206973206e6f7420746865206f776e6572604482015290519081900360640190fd5b600291909155600155565b6002546001549091565b6102d861024e565b61032c576040805160e560020a62461bcd02815260206004820181905260248201527f4f776e61626c653a2063616c6c6572206973206e6f7420746865206f776e6572604482015290519081900360640190fd5b61033581610338565b50565b600160a060020a0381166103805760405160e560020a62461bcd0281526004018080602001828103825260268152602001806103e96026913960400191505060405180910390fd5b60008054604051600160a060020a03808516939216917f8be0079c531659141344cd1fd0a4f28419497f9722a3daafe3b4186f6b6457e091a36000805473ffffffffffffffffffffffffffffffffffffffff1916600160a060020a039290921691909117905556fe4f776e61626c653a206e6577206f776e657220697320746865207a65726f2061646472657373a265627a7a72315820775af3a6b510e64ad9bbdc84767b4923518c45e42864906346128793f80afcc064736f6c63430005100032",
  "source": "pragma solidity =0.5.16;\r\nimport './Ownable.sol';\r\n\r\ncontract ImputRange is Ownable {\r\n    \r\n    //The maximum input amount limit.\r\n    uint256 private maxAmount = 1e30;\r\n    //The minimum input amount limit.\r\n    uint256 private minAmount = 1e2;\r\n    \r\n    modifier InRange(uint256 amount) {\r\n        require(maxAmount>=amount && minAmount<=amount,\"input amount is out of input amount range\");\r\n        _;\r\n    }\r\n    /**\r\n     * @dev Determine whether the input amount is within the valid range\r\n     * @param Amount Test value which is user input\r\n     */\r\n    function isInputAmountInRange(uint256 Amount)public view returns (bool){\r\n        return(maxAmount>=Amount && minAmount<=Amount);\r\n    }\r\n    /*\r\n    function isInputAmountSmaller(uint256 Amount)public view returns (bool){\r\n        return maxAmount>=amount;\r\n    }\r\n    function isInputAmountLarger(uint256 Amount)public view returns (bool){\r\n        return minAmount<=amount;\r\n    }\r\n    */\r\n    modifier Smaller(uint256 amount) {\r\n        require(maxAmount>=amount,\"input amount is larger than maximium\");\r\n        _;\r\n    }\r\n    modifier Larger(uint256 amount) {\r\n        require(minAmount<=amount,\"input amount is smaller than maximium\");\r\n        _;\r\n    }\r\n    /**\r\n     * @dev get the valid range of input amount\r\n     */\r\n    function getInputAmountRange() public view returns(uint256,uint256) {\r\n        return (minAmount,maxAmount);\r\n    }\r\n    /**\r\n     * @dev set the valid range of input amount\r\n     * @param _minAmount the minimum input amount limit\r\n     * @param _maxAmount the maximum input amount limit\r\n     */\r\n    function setInputAmountRange(uint256 _minAmount,uint256 _maxAmount) public onlyOwner{\r\n        minAmount = _minAmount;\r\n        maxAmount = _maxAmount;\r\n    }        \r\n}",
  "sourcePath": "C:\\work\\solidity\\FinnexusOptions_V2\\contracts\\modules\\ImputRange.sol",
  "compiler": {
    "name": "solc",
    "version": "0.5.16+commit.9c3226ce.Emscripten.clang"
  },
  "schemaVersion": "3.1.0",
  "updatedAt": "2020-10-21T03:26:50.640Z",
  "devdoc": {
    "methods": {
      "getInputAmountRange()": {
        "details": "get the valid range of input amount"
      },
      "isInputAmountInRange(uint256)": {
        "details": "Determine whether the input amount is within the valid range",
        "params": {
          "Amount": "Test value which is user input"
        }
      },
      "isOwner()": {
        "details": "Returns true if the caller is the current owner."
      },
      "owner()": {
        "details": "Returns the address of the current owner."
      },
      "renounceOwnership()": {
        "details": "Leaves the contract without owner. It will not be possible to call `onlyOwner` functions anymore. Can only be called by the current owner.      * NOTE: Renouncing ownership will leave the contract without an owner, thereby removing any functionality that is only available to the owner."
      },
      "setInputAmountRange(uint256,uint256)": {
        "details": "set the valid range of input amount",
        "params": {
          "_maxAmount": "the maximum input amount limit",
          "_minAmount": "the minimum input amount limit"
        }
      },
      "transferOwnership(address)": {
        "details": "Transfers ownership of the contract to a new account (`newOwner`). Can only be called by the current owner."
      }
    }
  },
  "userdoc": {
    "methods": {}
  }
}