{
  "contractName": "imVolatility32",
  "abi": [
    {
      "constant": false,
      "inputs": [],
      "name": "renounceOwnership",
      "outputs": [],
      "payable": false,
      "stateMutability": "nonpayable",
      "type": "function"
    },
    {
      "constant": true,
      "inputs": [],
      "name": "owner",
      "outputs": [
        {
          "name": "",
          "type": "address"
        }
      ],
      "payable": false,
      "stateMutability": "view",
      "type": "function"
    },
    {
      "constant": true,
      "inputs": [],
      "name": "isOwner",
      "outputs": [
        {
          "name": "",
          "type": "bool"
        }
      ],
      "payable": false,
      "stateMutability": "view",
      "type": "function"
    },
    {
      "constant": false,
      "inputs": [
        {
          "name": "addAddress",
          "type": "address"
        }
      ],
      "name": "addOperator",
      "outputs": [],
      "payable": false,
      "stateMutability": "nonpayable",
      "type": "function"
    },
    {
      "constant": false,
      "inputs": [
        {
          "name": "removeAddress",
          "type": "address"
        }
      ],
      "name": "removeOperator",
      "outputs": [
        {
          "name": "",
          "type": "bool"
        }
      ],
      "payable": false,
      "stateMutability": "nonpayable",
      "type": "function"
    },
    {
      "constant": false,
      "inputs": [
        {
          "name": "index",
          "type": "uint256"
        },
        {
          "name": "addAddress",
          "type": "address"
        }
      ],
      "name": "setOperator",
      "outputs": [],
      "payable": false,
      "stateMutability": "nonpayable",
      "type": "function"
    },
    {
      "constant": true,
      "inputs": [],
      "name": "getOperator",
      "outputs": [
        {
          "name": "",
          "type": "address[]"
        }
      ],
      "payable": false,
      "stateMutability": "view",
      "type": "function"
    },
    {
      "constant": false,
      "inputs": [
        {
          "name": "newOwner",
          "type": "address"
        }
      ],
      "name": "transferOwnership",
      "outputs": [],
      "payable": false,
      "stateMutability": "nonpayable",
      "type": "function"
    },
    {
      "anonymous": false,
      "inputs": [
        {
          "indexed": true,
          "name": "previousOwner",
          "type": "address"
        },
        {
          "indexed": true,
          "name": "newOwner",
          "type": "address"
        }
      ],
      "name": "OwnershipTransferred",
      "type": "event"
    },
    {
      "constant": false,
      "inputs": [
        {
          "name": "timeLimit",
          "type": "uint256"
        }
      ],
      "name": "setValidUntil",
      "outputs": [],
      "payable": false,
      "stateMutability": "nonpayable",
      "type": "function"
    },
    {
      "constant": false,
      "inputs": [
        {
          "name": "underlying",
          "type": "uint32"
        },
        {
          "name": "put_timeArray",
          "type": "uint256[]"
        },
        {
          "name": "put_ivAry",
          "type": "uint256[]"
        },
        {
          "name": "call_timeArray",
          "type": "uint256[]"
        },
        {
          "name": "call_ivAry",
          "type": "uint256[]"
        }
      ],
      "name": "setIvMatrixAll",
      "outputs": [],
      "payable": false,
      "stateMutability": "nonpayable",
      "type": "function"
    },
    {
      "constant": false,
      "inputs": [
        {
          "name": "underlying",
          "type": "uint32"
        },
        {
          "name": "optType",
          "type": "uint8"
        },
        {
          "name": "timeArray",
          "type": "uint256[]"
        },
        {
          "name": "ivAry",
          "type": "uint256[]"
        }
      ],
      "name": "setIvMatrix",
      "outputs": [],
      "payable": false,
      "stateMutability": "nonpayable",
      "type": "function"
    },
    {
      "constant": true,
      "inputs": [
        {
          "name": "underlying",
          "type": "uint32"
        },
        {
          "name": "optType",
          "type": "uint8"
        },
        {
          "name": "expiration",
          "type": "uint256"
        },
        {
          "name": "price",
          "type": "uint256"
        }
      ],
      "name": "calculateIv",
      "outputs": [
        {
          "name": "",
          "type": "uint256"
        },
        {
          "name": "",
          "type": "uint256"
        }
      ],
      "payable": false,
      "stateMutability": "view",
      "type": "function"
    }
  ],
  "bytecode": "0x608060408190526104b060025560008054600160a060020a0319163317808255600160a060020a0316917f8be0079c531659141344cd1fd0a4f28419497f9722a3daafe3b4186f6b6457e0908290a361137f8061005d6000396000f3006080604052600436106100b95763ffffffff7c01000000000000000000000000000000000000000000000000000000006000350416630b82566881146100be578063634099cc146101cb578063715018a6146101e35780638da5cb5b146101f85780638f32d59b146102295780639870d7fe14610252578063ac8a584a14610273578063b4277bc114610294578063e7a1c1c0146102d7578063e7f43c68146102fb578063ea4d053614610360578063f2fde38b14610400575b600080fd5b3480156100ca57600080fd5b506040805160206004602480358281013584810280870186019097528086526101c996843563ffffffff1696369660449591949091019291829185019084908082843750506040805187358901803560208181028481018201909552818452989b9a998901989297509082019550935083925085019084908082843750506040805187358901803560208181028481018201909552818452989b9a998901989297509082019550935083925085019084908082843750506040805187358901803560208181028481018201909552818452989b9a9989019892975090820195509350839250850190849080828437509497506104219650505050505050565b005b3480156101d757600080fd5b506101c96004356104f6565b3480156101ef57600080fd5b506101c96105af565b34801561020457600080fd5b5061020d610652565b60408051600160a060020a039092168252519081900360200190f35b34801561023557600080fd5b5061023e610662565b604080519115158252519081900360200190f35b34801561025e57600080fd5b506101c9600160a060020a0360043516610673565b34801561027f57600080fd5b5061023e600160a060020a03600435166106cd565b3480156102a057600080fd5b506102be63ffffffff6004351660ff6024351660443560643561072e565b6040805192835260208301919091528051918290030190f35b3480156102e357600080fd5b506101c9600435600160a060020a0360243516610812565b34801561030757600080fd5b506103106108a0565b60408051602080825283518183015283519192839290830191858101910280838360005b8381101561034c578181015183820152602001610334565b505050509050019250505060405180910390f35b34801561036c57600080fd5b5060408051602060046044358181013583810280860185019096528085526101c995833563ffffffff16956024803560ff1696369695606495939492019291829185019084908082843750506040805187358901803560208181028481018201909552818452989b9a9989019892975090820195509350839250850190849080828437509497506109029650505050505050565b34801561040c57600080fd5b506101c9600160a060020a0360043516610a6a565b600154600090811080156104585750600180543391908390811061044157fe5b600091825260209091200154600160a060020a0316145b15156104d4576040805160e560020a62461bcd02815260206004820152603060248201527f4d616e6167657261626c653a2063616c6c6572206973206e6f7420746865206560448201527f6c696769626c65204f70657261746f7200000000000000000000000000000000606482015290519081900360840190fd5b6104e18660018787610902565b6104ee8660008585610902565b505050505050565b6001546000908110801561052d5750600180543391908390811061051657fe5b600091825260209091200154600160a060020a0316145b15156105a9576040805160e560020a62461bcd02815260206004820152603060248201527f4d616e6167657261626c653a2063616c6c6572206973206e6f7420746865206560448201527f6c696769626c65204f70657261746f7200000000000000000000000000000000606482015290519081900360840190fd5b50600255565b6105b7610662565b15156105fb576040805160e560020a62461bcd0281526020600482018190526024820152600080516020611334833981519152604482015290519081900360640190fd5b60008054604051600160a060020a03909116907f8be0079c531659141344cd1fd0a4f28419497f9722a3daafe3b4186f6b6457e0908390a36000805473ffffffffffffffffffffffffffffffffffffffff19169055565b600054600160a060020a03165b90565b600054600160a060020a0316331490565b61067b610662565b15156106bf576040805160e560020a62461bcd0281526020600482018190526024820152600080516020611334833981519152604482015290519081900360640190fd5b6106ca600182610abf565b50565b60006106d7610662565b151561071b576040805160e560020a62461bcd0281526020600482018190526024820152600080516020611334833981519152604482015290519081900360640190fd5b610726600183610b65565b90505b919050565b611b58919091029061271090046000808060608180808061075863ffffffff8d1660ff8d16610c54565b9550610765600487610c69565b9450610771858b610c7c565b9350831515610795576107878c8c87878d610d61565b6305f5e10097509750610803565b6107a58c8c87600188038d610d61565b92506107b48c8c87878d610d61565b91506107de6107c98660028760020203610f24565b6107d68787600202610f24565b85858e610f3c565b9050600081136107f857600197506305f5e1009650610803565b806305f5e100975097505b50505050505094509492505050565b61081a610662565b151561085e576040805160e560020a62461bcd0281526020600482018190526024820152600080516020611334833981519152604482015290519081900360640190fd5b8060018381548110151561086e57fe5b9060005260206000200160006101000a815481600160a060020a030219169083600160a060020a031602179055505050565b606060018054806020026020016040519081016040528092919081815260200182805480156108f857602002820191906000526020600020905b8154600160a060020a031681526001909101906020018083116108da575b5050505050905090565b6000806000808060018054905011801561093f5750600180543391908390811061092857fe5b600091825260209091200154600160a060020a0316145b15156109bb576040805160e560020a62461bcd02815260206004820152603060248201527f4d616e6167657261626c653a2063616c6c6572206973206e6f7420746865206560448201527f6c696769626c65204f70657261746f7200000000000000000000000000000000606482015290519081900360840190fd5b6109ce8863ffffffff168860ff16610c54565b935085519250600091505b82821015610a185785828151811015156109ef57fe5b6020908102909101810151858401600090815260049092526040909120556001909101906109d9565b84519250600091505b82821015610a60578482815181101515610a3757fe5b602090810290910181015185840160009081526005909252604090912055600190910190610a21565b5050505050505050565b610a72610662565b1515610ab6576040805160e560020a62461bcd0281526020600482018190526024820152600080516020611334833981519152604482015290519081900360640190fd5b6106ca81610fb7565b610b2282805480602002602001604051908101604052809291908181526020018280548015610b1757602002820191906000526020600020905b8154600160a060020a03168152600190910190602001808311610af9575b5050505050826110a5565b1515610b6157815460018101835560008381526020902001805473ffffffffffffffffffffffffffffffffffffffff1916600160a060020a0383161790555b5050565b8154600090815b81811015610bb45783600160a060020a03168582815481101515610b8c57fe5b600091825260209091200154600160a060020a03161415610bac57610bb4565b600101610b6c565b81811015610c475760001982018114610c2d578460018303815481101515610bd857fe5b6000918252602090912001548554600160a060020a0390911690869083908110610bfe57fe5b9060005260206000200160006101000a815481600160a060020a030219169083600160a060020a031602179055505b8454610c3d8660001983016112ec565b5060019250610c4c565b600092505b505092915050565b6000610c62600084846110f6565b9392505050565b6060610c628383600863ffffffff61111f565b6000806000806002610c8d87611205565b811515610c9657fe5b0492506002831015610d17576040805160e560020a62461bcd028152602060048201526024808201527f6976206d61747269782074696d65206c656e677468206973206c65737320746860448201527f616e203200000000000000000000000000000000000000000000000000000000606482015290519081900360840190fd5b600091505b82821015610d4d57610d318683600202610f24565b9050808511610d4257819350610d58565b600190910190610d1c565b600019909101925082905b50505092915050565b6000806000806000806000610d7f8c63ffffffff168c60ff16610c54565b95508894506000891115610da057610d9d8a60018b60020203610f24565b94505b610db08a8a600202600101610f24565b935060028585031015610e33576040805160e560020a62461bcd02815260206004820152602560248201527f6976206d6174726978207072696365206c656e677468206973206c657373207460448201527f68616e2032000000000000000000000000000000000000000000000000000000606482015290519081900360840190fd5b83851015610e6357610e4a6005878760020261122d565b9250828811610e5857610e63565b600190940193610e33565b83851415610e775760001990940193610e86565b88851415610e86576001909401935b610e956005878760020261122d565b915087821415610ebb57610eb16005878760020260010161122d565b6064029650610f15565b610efb610ed06005886002896002020361122d565b83610ee360058a60018b6002020361122d565b610ef560058b8b60020260010161122d565b8c610f3c565b905060008113610f0e5760019650610f15565b8060640296505b50505050505095945050505050565b6000610c6283836001016008602063ffffffff61124e565b600084861415610f96576040805160e560020a62461bcd02815260206004820152601c60248201527f696e7075742076616c75657320617265206475706c6963617465642100000000604482015290519081900360640190fd5b85850386830385850302811515610fa957fe5b058401905095945050505050565b600160a060020a038116151561103d576040805160e560020a62461bcd02815260206004820152602660248201527f4f776e61626c653a206e6577206f776e657220697320746865207a65726f206160448201527f6464726573730000000000000000000000000000000000000000000000000000606482015290519081900360840190fd5b60008054604051600160a060020a03808516939216917f8be0079c531659141344cd1fd0a4f28419497f9722a3daafe3b4186f6b6457e091a36000805473ffffffffffffffffffffffffffffffffffffffff1916600160a060020a0392909216919091179055565b8151600090815b81811015610c475783600160a060020a031685828151811015156110cc57fe5b90602001906020020151600160a060020a031614156110ee5760019250610c4c565b6001016110ac565b700100000000000000000000000000000000026801000000000000000091909102919091010190565b600083815260208590526040812054606091838216908381831515611143576111f8565b878460010181151561115157fe5b049250878460010181151561116257fe5b061561116f576001909201915b82604051908082528060200260200182016040528015611199578160200160208202803883390190505b509150848260008151811015156111ac57fe5b602090810290910101525060015b828110156111f457888101600090815260208b9052604090205482518390839081106111e257fe5b602090810290910101526001016111ba565b8195505b5050505050949350505050565b600081516000141561121957506000610729565b6107268260006008602063ffffffff61124e565b60006112468484846001016008602063ffffffff61129f565b949350505050565b6000806000858781151561125e57fe5b04915084868881151561126d57fe5b060290508381898481518110151561128157fe5b906020019060200201519060020a9004169250505095945050505050565b60008060008086888115156112b057fe5b04898101600090815260208c9052604090205490935091508587898115156112d457fe5b060260020a9091049390931698975050505050505050565b81548183558181111561131057600083815260209020611310918101908301611315565b505050565b61065f91905b8082111561132f576000815560010161131b565b509056004f776e61626c653a2063616c6c6572206973206e6f7420746865206f776e6572a165627a7a72305820b75546aabe0adeb8b03059a2f9ea9ed800f218685c78ee3c9725b6e57b0a03cd0029",
  "source": "pragma solidity ^0.4.26;\r\nimport \"./modules/Operator.sol\";\r\nimport \"./modules/tuple.sol\";\r\nimport \"./modules/ArraySave.sol\";\r\ncontract imVolatility32 is Operator {\r\n    uint256 private ValidUntil = 1200;\r\n    uint256 constant private _calDecimal = 1e8;\r\n    uint256 private inptutTime;\r\n    ArraySave.saveMap internal timeSaveMap;\r\n    ArraySave.saveMap internal IvMap;\r\n    function setValidUntil(uint256 timeLimit) public onlyOperatorIndex(0) {\r\n        ValidUntil = timeLimit;\r\n    }\r\n    function setIvMatrixAll(uint32 underlying,uint256[] put_timeArray,uint256[] put_ivAry,\r\n        uint256[] call_timeArray,uint256[] call_ivAry) public onlyOperatorIndex(0){\r\n        setIvMatrix(underlying,1,put_timeArray,put_ivAry);\r\n        setIvMatrix(underlying,0,call_timeArray,call_ivAry);\r\n    }\r\n    function setIvMatrix(uint32 underlying,uint8 optType,uint256[] timeArray,uint256[] ivAry) public onlyOperatorIndex(0){\r\n        uint256 saveKey = getKey(underlying,optType);\r\n        uint nLen0 = timeArray.length;\r\n        for (uint i=0;i<nLen0;i++){\r\n            timeSaveMap.sMap[saveKey+i] = timeArray[i];\r\n        }\r\n        nLen0 = ivAry.length;\r\n        for (i=0;i<nLen0;i++){\r\n            IvMap.sMap[saveKey+i] = ivAry[i];\r\n        }\r\n    }\r\n    function getKey(uint256 underlying,uint256 optType) internal pure returns(uint256){\r\n        return tuple64.getTuple3(0,underlying,optType);\r\n    }\r\n    /**\r\n      * @notice retrieves implied volatility of an asset\r\n      * @dev function to get implied volatility for an asset\r\n      * @param expiration the option expiration which has been created in option manger contract\r\n      * @param price the option underlying strikePrice which has been created in option manger contract\r\n      * @return uint mantissa of asset implied volatility (scaled by 1e18) or zero if unset or contract paused\r\n      */\r\n    function calculateIv(uint32 underlying,uint8 optType,uint256 expiration,uint256 price)public view returns (uint256,uint256){\r\n        expiration = expiration*7000;\r\n        price = price/1e4;\r\n        uint256 saveKey = getKey(underlying,optType);\r\n        uint256[] memory buffer = ArraySave32.readAllBuffer(timeSaveMap,saveKey);\r\n        uint256 index = getTimeRange(buffer,expiration);\r\n        if (index == 0){\r\n            return (calculateTimeIv(underlying,optType,buffer,index,price),_calDecimal);\r\n        }\r\n        uint256 ivLow = calculateTimeIv(underlying,optType,buffer,index-1,price);\r\n        uint256 ivHigh = calculateTimeIv(underlying,optType,buffer,index,price);\r\n        int iv = insertValue(int256(ArraySave32.getValueFromBuffer(buffer,index*2-2)),int256(ArraySave32.getValueFromBuffer(buffer,index*2)),\r\n            int256(ivLow),int256(ivHigh),int256(expiration));\r\n        if (iv<=0){\r\n            return (1,_calDecimal);\r\n        }else{\r\n            return (uint256(iv),_calDecimal);\r\n        }\r\n    }\r\n    function getTimeRange(uint256[] memory buffer,uint256 expiration) internal pure returns(uint256){\r\n        uint256 Len = ArraySave32.getArrayLenFromBuffer(buffer)/2;\r\n        require (Len>=2,\"iv matrix time length is less than 2\");\r\n        for (uint256 i=0;i<Len;i++){\r\n            uint256 curTime = ArraySave32.getValueFromBuffer(buffer,i*2);\r\n            if (expiration<=curTime){\r\n                return i;\r\n            }\r\n        }\r\n        i--;\r\n        return i;\r\n    }\r\n    function calculateTimeIv(uint32 underlying,uint8 optType,uint256[] memory buffer,uint256 index,uint256 price)internal view returns (uint256){\r\n        uint256 saveKey = getKey(underlying,optType);\r\n        uint256 i = index;\r\n        if (index > 0){\r\n            i = ArraySave32.getValueFromBuffer(buffer,index*2-1);\r\n        }\r\n        uint256 end = ArraySave32.getValueFromBuffer(buffer,index*2+1);\r\n        require (end-i>=2,\"iv matrix price length is less than 2\");\r\n        for (;i<end;i++){\r\n            uint256 ivPrice = ArraySave32.getValue(IvMap,saveKey,i*2);\r\n            if (price<=ivPrice){\r\n                break;                \r\n            }\r\n        }\r\n        if (i == end){\r\n            i--;\r\n        }else if (i == index) {\r\n            i++;\r\n        }\r\n        uint256 highPrice = ArraySave32.getValue(IvMap,saveKey,i*2);\r\n        if (highPrice == price) {\r\n            return ArraySave32.getValue(IvMap,saveKey,i*2+1)*100;\r\n        }         \r\n        int iv = insertValue(int256(ArraySave32.getValue(IvMap,saveKey,i*2-2)),int256(highPrice),\r\n            int256(ArraySave32.getValue(IvMap,saveKey,i*2-1)),int256(ArraySave32.getValue(IvMap,saveKey,i*2+1)),int256(price));\r\n        if (iv<=0){\r\n            return 1;\r\n        }else{\r\n            return uint256(iv)*100;\r\n        }\r\n    }\r\n    function insertValue(int256 x0,int256 x1,int256 y0, int256 y1,int256 x)internal pure returns (int256){\r\n        require(x1 != x0,\"input values are duplicated!\");\r\n        return y0 + (y1-y0)*(x-x0)/(x1-x0);\r\n    }\r\n}\r\n",
  "sourcePath": "C:\\work\\solidity\\FinnexusOptions_V2\\contracts\\imVolatility32.sol",
  "compiler": {
    "name": "solc",
    "version": "0.4.26+commit.4563c3fc.Emscripten.clang"
  },
  "schemaVersion": "3.1.0",
  "updatedAt": "2020-08-07T00:13:37.503Z",
  "devdoc": {
    "methods": {
      "calculateIv(uint32,uint8,uint256,uint256)": {
        "details": "function to get implied volatility for an asset\r",
        "params": {
          "expiration": "the option expiration which has been created in option manger contract\r",
          "price": "the option underlying strikePrice which has been created in option manger contract\r"
        },
        "return": "uint mantissa of asset implied volatility (scaled by 1e18) or zero if unset or contract paused\r"
      },
      "isOwner()": {
        "details": "Returns true if the caller is the current owner."
      },
      "owner()": {
        "details": "Returns the address of the current owner."
      },
      "renounceOwnership()": {
        "details": "Leaves the contract without owner. It will not be possible to call `onlyOwner` functions anymore. Can only be called by the current owner.     * NOTE: Renouncing ownership will leave the contract without an owner, thereby removing any functionality that is only available to the owner."
      },
      "transferOwnership(address)": {
        "details": "Transfers ownership of the contract to a new account (`newOwner`). Can only be called by the current owner."
      }
    }
  },
  "userdoc": {
    "methods": {
      "calculateIv(uint32,uint8,uint256,uint256)": {
        "notice": "retrieves implied volatility of an asset\r"
      }
    }
  }
}