{
  "contractName": "imVolatilityTest",
  "abi": [
    {
      "anonymous": false,
      "inputs": [
        {
          "indexed": true,
          "internalType": "address",
          "name": "previousOwner",
          "type": "address"
        },
        {
          "indexed": true,
          "internalType": "address",
          "name": "newOwner",
          "type": "address"
        }
      ],
      "name": "OwnershipTransferred",
      "type": "event"
    },
    {
      "constant": false,
      "inputs": [
        {
          "internalType": "address",
          "name": "addAddress",
          "type": "address"
        }
      ],
      "name": "addOperator",
      "outputs": [],
      "payable": false,
      "stateMutability": "nonpayable",
      "type": "function"
    },
    {
      "constant": true,
      "inputs": [
        {
          "internalType": "uint32",
          "name": "underlying",
          "type": "uint32"
        },
        {
          "internalType": "uint8",
          "name": "optType",
          "type": "uint8"
        },
        {
          "internalType": "uint256",
          "name": "expiration",
          "type": "uint256"
        },
        {
          "internalType": "uint256",
          "name": "price",
          "type": "uint256"
        }
      ],
      "name": "calculateIv",
      "outputs": [
        {
          "internalType": "uint256",
          "name": "",
          "type": "uint256"
        },
        {
          "internalType": "uint256",
          "name": "",
          "type": "uint256"
        }
      ],
      "payable": false,
      "stateMutability": "view",
      "type": "function"
    },
    {
      "constant": true,
      "inputs": [],
      "name": "getOperator",
      "outputs": [
        {
          "internalType": "address[]",
          "name": "",
          "type": "address[]"
        }
      ],
      "payable": false,
      "stateMutability": "view",
      "type": "function"
    },
    {
      "constant": true,
      "inputs": [],
      "name": "isOwner",
      "outputs": [
        {
          "internalType": "bool",
          "name": "",
          "type": "bool"
        }
      ],
      "payable": false,
      "stateMutability": "view",
      "type": "function"
    },
    {
      "constant": true,
      "inputs": [],
      "name": "owner",
      "outputs": [
        {
          "internalType": "address",
          "name": "",
          "type": "address"
        }
      ],
      "payable": false,
      "stateMutability": "view",
      "type": "function"
    },
    {
      "constant": false,
      "inputs": [
        {
          "internalType": "address",
          "name": "removeAddress",
          "type": "address"
        }
      ],
      "name": "removeOperator",
      "outputs": [
        {
          "internalType": "bool",
          "name": "",
          "type": "bool"
        }
      ],
      "payable": false,
      "stateMutability": "nonpayable",
      "type": "function"
    },
    {
      "constant": false,
      "inputs": [],
      "name": "renounceOwnership",
      "outputs": [],
      "payable": false,
      "stateMutability": "nonpayable",
      "type": "function"
    },
    {
      "constant": false,
      "inputs": [
        {
          "internalType": "uint32",
          "name": "underlying",
          "type": "uint32"
        },
        {
          "internalType": "uint8",
          "name": "optType",
          "type": "uint8"
        },
        {
          "internalType": "uint256[]",
          "name": "timeArray",
          "type": "uint256[]"
        },
        {
          "internalType": "uint256[]",
          "name": "ivAry",
          "type": "uint256[]"
        }
      ],
      "name": "setIvMatrix",
      "outputs": [],
      "payable": false,
      "stateMutability": "nonpayable",
      "type": "function"
    },
    {
      "constant": false,
      "inputs": [
        {
          "internalType": "uint32",
          "name": "underlying",
          "type": "uint32"
        },
        {
          "internalType": "uint256[]",
          "name": "put_timeArray",
          "type": "uint256[]"
        },
        {
          "internalType": "uint256[]",
          "name": "put_ivAry",
          "type": "uint256[]"
        },
        {
          "internalType": "uint256[]",
          "name": "call_timeArray",
          "type": "uint256[]"
        },
        {
          "internalType": "uint256[]",
          "name": "call_ivAry",
          "type": "uint256[]"
        }
      ],
      "name": "setIvMatrixAll",
      "outputs": [],
      "payable": false,
      "stateMutability": "nonpayable",
      "type": "function"
    },
    {
      "constant": false,
      "inputs": [
        {
          "internalType": "address[]",
          "name": "operators",
          "type": "address[]"
        }
      ],
      "name": "setOperator",
      "outputs": [],
      "payable": false,
      "stateMutability": "nonpayable",
      "type": "function"
    },
    {
      "constant": false,
      "inputs": [
        {
          "internalType": "uint256",
          "name": "index",
          "type": "uint256"
        },
        {
          "internalType": "address",
          "name": "addAddress",
          "type": "address"
        }
      ],
      "name": "setOperator",
      "outputs": [],
      "payable": false,
      "stateMutability": "nonpayable",
      "type": "function"
    },
    {
      "constant": false,
      "inputs": [
        {
          "internalType": "uint256",
          "name": "timeLimit",
          "type": "uint256"
        }
      ],
      "name": "setValidUntil",
      "outputs": [],
      "payable": false,
      "stateMutability": "nonpayable",
      "type": "function"
    },
    {
      "constant": false,
      "inputs": [
        {
          "internalType": "address",
          "name": "newOwner",
          "type": "address"
        }
      ],
      "name": "transferOwnership",
      "outputs": [],
      "payable": false,
      "stateMutability": "nonpayable",
      "type": "function"
    },
    {
      "constant": true,
      "inputs": [
        {
          "internalType": "uint32",
          "name": "underlying",
          "type": "uint32"
        },
        {
          "internalType": "uint8",
          "name": "optType",
          "type": "uint8"
        }
      ],
      "name": "getTimeMapLen",
      "outputs": [
        {
          "internalType": "uint256",
          "name": "",
          "type": "uint256"
        }
      ],
      "payable": false,
      "stateMutability": "view",
      "type": "function"
    },
    {
      "constant": true,
      "inputs": [
        {
          "internalType": "uint32",
          "name": "underlying",
          "type": "uint32"
        },
        {
          "internalType": "uint8",
          "name": "optType",
          "type": "uint8"
        }
      ],
      "name": "getTimeAllBufferLen",
      "outputs": [
        {
          "internalType": "uint256",
          "name": "",
          "type": "uint256"
        }
      ],
      "payable": false,
      "stateMutability": "view",
      "type": "function"
    },
    {
      "constant": true,
      "inputs": [
        {
          "internalType": "uint32",
          "name": "underlying",
          "type": "uint32"
        },
        {
          "internalType": "uint8",
          "name": "optType",
          "type": "uint8"
        }
      ],
      "name": "getTimeAllBuffer",
      "outputs": [
        {
          "internalType": "uint256[]",
          "name": "",
          "type": "uint256[]"
        }
      ],
      "payable": false,
      "stateMutability": "view",
      "type": "function"
    },
    {
      "constant": true,
      "inputs": [
        {
          "internalType": "uint256[]",
          "name": "buffer",
          "type": "uint256[]"
        },
        {
          "internalType": "uint256",
          "name": "index",
          "type": "uint256"
        }
      ],
      "name": "getValueFromBuffer",
      "outputs": [
        {
          "internalType": "uint256",
          "name": "",
          "type": "uint256"
        }
      ],
      "payable": false,
      "stateMutability": "pure",
      "type": "function"
    },
    {
      "constant": true,
      "inputs": [
        {
          "internalType": "uint32",
          "name": "underlying",
          "type": "uint32"
        },
        {
          "internalType": "uint8",
          "name": "optType",
          "type": "uint8"
        },
        {
          "internalType": "uint256",
          "name": "expiration",
          "type": "uint256"
        }
      ],
      "name": "getTimeRangeIndex",
      "outputs": [
        {
          "internalType": "uint256",
          "name": "",
          "type": "uint256"
        }
      ],
      "payable": false,
      "stateMutability": "view",
      "type": "function"
    }
  ],
  "bytecode": "0x60806040526104b060025534801561001657600080fd5b506118e4806100266000396000f3fe608060405234801561001057600080fd5b5060043610610133576000357c0100000000000000000000000000000000000000000000000000000000900480638f32d59b116100bf578063d741f6101161008e578063d741f610146106ac578063e7a1c1c0146106d8578063e7f43c6814610704578063ea4d05361461070c578063f2fde38b1461084857610133565b80638f32d59b146105f35780639870d7fe1461060f578063ac8a584a14610635578063b4277bc11461065b57610133565b80634fdeceab116101065780634fdeceab1461054c578063634099cc146105785780636ad0260f14610595578063715018a6146105c75780638da5cb5b146105cf57610133565b80630b8256681461013857806316992ca7146103765780631e3047f7146103f257806342082c1e146104a9575b600080fd5b610374600480360360a081101561014e57600080fd5b63ffffffff823516919081019060408101602082013564010000000081111561017657600080fd5b82018360208201111561018857600080fd5b803590602001918460208302840111640100000000831117156101aa57600080fd5b91908080602002602001604051908101604052809392919081815260200183836020028082843760009201919091525092959493602081019350359150506401000000008111156101fa57600080fd5b82018360208201111561020c57600080fd5b8035906020019184602083028401116401000000008311171561022e57600080fd5b919080806020026020016040519081016040528093929190818152602001838360200280828437600092019190915250929594936020810193503591505064010000000081111561027e57600080fd5b82018360208201111561029057600080fd5b803590602001918460208302840111640100000000831117156102b257600080fd5b919080806020026020016040519081016040528093929190818152602001838360200280828437600092019190915250929594936020810193503591505064010000000081111561030257600080fd5b82018360208201111561031457600080fd5b8035906020019184602083028401116401000000008311171561033657600080fd5b91908080602002602001604051908101604052809392919081815260200183836020028082843760009201919091525092955061086e945050505050565b005b6103a26004803603604081101561038c57600080fd5b50803563ffffffff16906020013560ff1661090b565b60408051602080825283518183015283519192839290830191858101910280838360005b838110156103de5781810151838201526020016103c6565b505050509050019250505060405180910390f35b6104976004803603604081101561040857600080fd5b81019060208101813564010000000081111561042357600080fd5b82018360208201111561043557600080fd5b8035906020019184602083028401116401000000008311171561045757600080fd5b919080806020026020016040519081016040528093929190818152602001838360200280828437600092019190915250929550509135925061093c915050565b60408051918252519081900360200190f35b610374600480360360208110156104bf57600080fd5b8101906020810181356401000000008111156104da57600080fd5b8201836020820111156104ec57600080fd5b8035906020019184602083028401116401000000008311171561050e57600080fd5b91908080602002602001604051908101604052809392919081815260200183836020028082843760009201919091525092955061094f945050505050565b6104976004803603604081101561056257600080fd5b50803563ffffffff16906020013560ff166109b0565b6103746004803603602081101561058e57600080fd5b50356109db565b610497600480360360608110156105ab57600080fd5b5063ffffffff8135169060ff6020820135169060400135610a5c565b610374610a97565b6105d7610b38565b60408051600160a060020a039092168252519081900360200190f35b6105fb610b48565b604080519115158252519081900360200190f35b6103746004803603602081101561062557600080fd5b5035600160a060020a0316610b59565b6105fb6004803603602081101561064b57600080fd5b5035600160a060020a0316610bb7565b6106936004803603608081101561067157600080fd5b5063ffffffff8135169060ff6020820135169060408101359060600135610c1c565b6040805192835260208301919091528051918290030190f35b610497600480360360408110156106c257600080fd5b50803563ffffffff16906020013560ff16610d0f565b610374600480360360408110156106ee57600080fd5b5080359060200135600160a060020a0316610d3e565b6103a2610dc8565b6103746004803603608081101561072257600080fd5b63ffffffff8235169160ff6020820135169181019060608101604082013564010000000081111561075257600080fd5b82018360208201111561076457600080fd5b8035906020019184602083028401116401000000008311171561078657600080fd5b91908080602002602001604051908101604052809392919081815260200183836020028082843760009201919091525092959493602081019350359150506401000000008111156107d657600080fd5b8201836020820111156107e857600080fd5b8035906020019184602083028401116401000000008311171561080a57600080fd5b919080806020026020016040519081016040528093929190818152602001838360200280828437600092019190915250929550610e2a945050505050565b6103746004803603602081101561085e57600080fd5b5035600160a060020a0316610f49565b600154600090158015906108ab575033600160a060020a03166001828154811061089457fe5b600091825260209091200154600160a060020a0316145b6108e95760405160e560020a62461bcd0281526004018080602001828103825260308152602001806118606030913960400191505060405180910390fd5b6108f68660018787610e2a565b6109038660008585610e2a565b505050505050565b606060006109228463ffffffff168460ff16610f9c565b90506060610931600483610faa565b925050505b92915050565b60006109488383610fbd565b9392505050565b610957610b48565b610999576040805160e560020a62461bcd0281526020600482018190526024820152600080516020611890833981519152604482015290519081900360640190fd5b80516109ac90600190602084019061170a565b5050565b6000806109c68463ffffffff168460ff16610f9c565b90506109d3600482610fd5565b949350505050565b60015460009015801590610a18575033600160a060020a031660018281548110610a0157fe5b600091825260209091200154600160a060020a0316145b610a565760405160e560020a62461bcd0281526004018080602001828103825260308152602001806118606030913960400191505060405180910390fd5b50600255565b600080610a728563ffffffff168560ff16610f9c565b90506060610a81600483610faa565b9050610a8d8185610fec565b9695505050505050565b610a9f610b48565b610ae1576040805160e560020a62461bcd0281526020600482018190526024820152600080516020611890833981519152604482015290519081900360640190fd5b60008054604051600160a060020a03909116907f8be0079c531659141344cd1fd0a4f28419497f9722a3daafe3b4186f6b6457e0908390a36000805473ffffffffffffffffffffffffffffffffffffffff19169055565b600054600160a060020a03165b90565b600054600160a060020a0316331490565b610b61610b48565b610ba3576040805160e560020a62461bcd0281526020600482018190526024820152600080516020611890833981519152604482015290519081900360640190fd5b610bb460018263ffffffff61108916565b50565b6000610bc1610b48565b610c03576040805160e560020a62461bcd0281526020600482018190526024820152600080516020611890833981519152604482015290519081900360640190fd5b610c1460018363ffffffff61112e16565b90505b919050565b611b589190910290612710900460008080610c4063ffffffff881660ff8816610f9c565b90506060610c4f600483610faa565b90506000610c5d8288610fec565b905080610c8257610c71898984848a61121c565b6305f5e10094509450505050610d06565b6000610c948a8a85600186038b61121c565b90506000610ca58b8b86868c61121c565b90506000610cd1610cbc8660028760020203610fbd565b610cc98787600202610fbd565b85858e6113ab565b905060008113610cf25750600196506305f5e1009550610d06945050505050565b96506305f5e1009550610d06945050505050565b94509492505050565b600080610d258463ffffffff168460ff16610f9c565b90506060610d34600483610faa565b5195945050505050565b610d46610b48565b610d88576040805160e560020a62461bcd0281526020600482018190526024820152600080516020611890833981519152604482015290519081900360640190fd5b8060018381548110610d9657fe5b9060005260206000200160006101000a815481600160a060020a030219169083600160a060020a031602179055505050565b60606001805480602002602001604051908101604052809291908181526020018280548015610e2057602002820191906000526020600020905b8154600160a060020a03168152600190910190602001808311610e02575b5050505050905090565b60015460009015801590610e67575033600160a060020a031660018281548110610e5057fe5b600091825260209091200154600160a060020a0316145b610ea55760405160e560020a62461bcd0281526004018080602001828103825260308152602001806118606030913960400191505060405180910390fd5b6000610eba8663ffffffff168660ff16610f9c565b845190915060005b81811015610efd57858181518110610ed657fe5b60209081029190910181015184830160009081526004909252604090912055600101610ec2565b5050825160005b81811015610f3f57848181518110610f1857fe5b60209081029190910181015184830160009081526005909252604090912055600101610f04565b5050505050505050565b610f51610b48565b610f93576040805160e560020a62461bcd0281526020600482018190526024820152600080516020611890833981519152604482015290519081900360640190fd5b610bb481611424565b6000610948600084846114d4565b60606109488383600863ffffffff6114fd565b600061094883836001016008602063ffffffff6115e9565b6000610948838360006008602063ffffffff611636565b6000806002610ffa8561167a565b8161100157fe5b04905060028110156110475760405160e560020a62461bcd0281526004018080602001828103825260248152602001806118176024913960400191505060405180910390fd5b60005b8181101561107d5760006110618683600202610fbd565b9050808511611074575091506109369050565b5060010161104a565b60001901949350505050565b6110ec828054806020026020016040519081016040528092919081815260200182805480156110e157602002820191906000526020600020905b8154600160a060020a031681526001909101906020018083116110c3575b5050505050826116a2565b6109ac578154600181018355600083815260209020018054600160a060020a03831673ffffffffffffffffffffffffffffffffffffffff199091161790555050565b8154600090815b8181101561117b5783600160a060020a031685828154811061115357fe5b600091825260209091200154600160a060020a031614156111735761117b565b600101611135565b81811015611211576001820381146111f55784600183038154811061119c57fe5b9060005260206000200160009054906101000a9004600160a060020a03168582815481106111c657fe5b9060005260206000200160006101000a815481600160a060020a030219169083600160a060020a031602179055505b845461120586600019830161177c565b50600192505050610936565b506000949350505050565b6000806112328763ffffffff168760ff16610f9c565b905083801561124e5761124b8660018760020203610fbd565b90505b60006112608787600202600101610fbd565b9050600282820310156112a75760405160e560020a62461bcd02815260040180806020018281038252602581526020018061183b6025913960400191505060405180910390fd5b808210156112db5760006112c0600585856002026116f1565b90508086116112cf57506112db565b506001909101906112a7565b808214156112ef57600019909101906112fe565b858214156112fe576001909101905b600061130f600585856002026116f1565b9050858114156113395761132b600585856002026001016116f1565b6064029450505050506113a2565b600061137b611350600587600288600202036116f1565b8361136360058960018a600202036116f1565b61137560058a8a6002026001016116f1565b8b6113ab565b905060008113611393576001955050505050506113a2565b60640294506113a29350505050565b95945050505050565b600085851415611405576040805160e560020a62461bcd02815260206004820152601c60248201527f696e7075742076616c75657320617265206475706c6963617465642100000000604482015290519081900360640190fd5b858503868303858503028161141657fe5b058401905095945050505050565b600160a060020a03811661146c5760405160e560020a62461bcd0281526004018080602001828103825260268152602001806117f16026913960400191505060405180910390fd5b60008054604051600160a060020a03808516939216917f8be0079c531659141344cd1fd0a4f28419497f9722a3daafe3b4186f6b6457e091a36000805473ffffffffffffffffffffffffffffffffffffffff1916600160a060020a0392909216919091179055565b700100000000000000000000000000000000026801000000000000000091909102919091010190565b6000838152602085905260409020546060908281168061152f57505060408051600081526020810190915290506109d3565b600085826001018161153d57fe5b04905085826001018161154c57fe5b0615611556576001015b606081604051908082528060200260200182016040528015611582578160200160208202803883390190505b509050838160008151811061159357fe5b602090810291909101015260015b828110156115dc57888101600090815260208b9052604090205482518390839081106115c957fe5b60209081029190910101526001016115a1565b5098975050505050505050565b6000808486816115f557fe5b04905060008486888161160457fe5b06029050838189848151811061161657fe5b6020026020010151908060020a8204915050169250505095945050505050565b60008084868161164257fe5b04878101600090815260208a905260408120549192508587898161166257fe5b060260020a9091048416925050509695505050505050565b600081516000141561168e57506000610c17565b610c148260006008602063ffffffff6115e9565b8151600090815b818110156112115783600160a060020a03168582815181106116c757fe5b6020026020010151600160a060020a031614156116e957600192505050610936565b6001016116a9565b60006109d38484846001016008602063ffffffff611636565b82805482825590600052602060002090810192821561176c579160200282015b8281111561176c578251825473ffffffffffffffffffffffffffffffffffffffff1916600160a060020a0390911617825560209092019160019091019061172a565b506117789291506117a5565b5090565b8154818355818111156117a0576000838152602090206117a09181019083016117d6565b505050565b610b4591905b8082111561177857805473ffffffffffffffffffffffffffffffffffffffff191681556001016117ab565b610b4591905b8082111561177857600081556001016117dc56fe4f776e61626c653a206e6577206f776e657220697320746865207a65726f20616464726573736976206d61747269782074696d65206c656e677468206973206c657373207468616e20326976206d6174726978207072696365206c656e677468206973206c657373207468616e20324d616e6167657261626c653a2063616c6c6572206973206e6f742074686520656c696769626c65204f70657261746f724f776e61626c653a2063616c6c6572206973206e6f7420746865206f776e6572a265627a7a72315820595981861ea9289df488d4e70e0c7b1d079515ba3882855d705bccfd28e7ec0264736f6c63430005100032",
  "source": "pragma solidity ^0.5.1;\r\nimport \"./imVolatility32.sol\";\r\ncontract imVolatilityTest is imVolatility32 {\r\n    function getTimeMapLen(uint32 underlying,uint8 optType)public view returns(uint256){\r\n        uint256 saveKey = getKey(underlying,optType);\r\n        return ArraySave32.getArrayLen(timeSaveMap,saveKey);\r\n    }\r\n    function getTimeAllBufferLen(uint32 underlying,uint8 optType)public view returns(uint256){\r\n        uint256 saveKey = getKey(underlying,optType);\r\n        uint256[] memory buffer = ArraySave32.readAllBuffer(timeSaveMap,saveKey);\r\n        return buffer.length;\r\n    }\r\n    function getTimeAllBuffer(uint32 underlying,uint8 optType)public view returns(uint256[] memory){\r\n        uint256 saveKey = getKey(underlying,optType);\r\n        uint256[] memory buffer = ArraySave32.readAllBuffer(timeSaveMap,saveKey);\r\n        return buffer;\r\n    }\r\n    function getValueFromBuffer(uint256[] memory buffer,uint256 index)public pure returns(uint256){\r\n        return ArraySave32.getValueFromBuffer(buffer,index);\r\n    }\r\n    function getTimeRangeIndex(uint32 underlying,uint8 optType,uint256 expiration)public view returns(uint256){\r\n        uint256 saveKey = getKey(underlying,optType);\r\n        uint256[] memory buffer = ArraySave32.readAllBuffer(timeSaveMap,saveKey);\r\n        return getTimeRange(buffer,expiration);\r\n    }\r\n}",
  "sourcePath": "C:\\work\\solidity\\FinnexusOptions_V2\\contracts\\deprecated\\imVolatilityTest.sol",
  "compiler": {
    "name": "solc",
    "version": "0.5.16+commit.9c3226ce.Emscripten.clang"
  },
  "schemaVersion": "3.1.0",
  "updatedAt": "2020-09-02T10:11:20.798Z",
  "devdoc": {
    "methods": {
      "addOperator(address)": {
        "details": "add a new operator by owner.       "
      },
      "calculateIv(uint32,uint8,uint256,uint256)": {
        "details": "function to get implied volatility for an asset",
        "params": {
          "expiration": "the option expiration which has been created in option manger contract",
          "price": "the option underlying strikePrice which has been created in option manger contract"
        },
        "return": "uint mantissa of asset implied volatility (scaled by 1e8) or zero if unset or contract paused"
      },
      "getOperator()": {
        "details": "get all operators.       "
      },
      "isOwner()": {
        "details": "Returns true if the caller is the current owner."
      },
      "owner()": {
        "details": "Returns the address of the current owner."
      },
      "removeOperator(address)": {
        "details": "remove operator by owner.       "
      },
      "renounceOwnership()": {
        "details": "Leaves the contract without owner. It will not be possible to call `onlyOwner` functions anymore. Can only be called by the current owner.      * NOTE: Renouncing ownership will leave the contract without an owner, thereby removing any functionality that is only available to the owner."
      },
      "setOperator(address[])": {
        "details": "set all operators by owner.       "
      },
      "setOperator(uint256,address)": {
        "details": "modify indexed operator by owner.       "
      },
      "transferOwnership(address)": {
        "details": "Transfers ownership of the contract to a new account (`newOwner`). Can only be called by the current owner."
      }
    }
  },
  "userdoc": {
    "methods": {
      "calculateIv(uint32,uint8,uint256,uint256)": {
        "notice": "retrieves implied volatility of an asset"
      }
    }
  }
}