{
  "contractName": "imVolatilityTest",
  "abi": [
    {
      "constant": false,
      "inputs": [
        {
          "name": "underlying",
          "type": "uint32"
        },
        {
          "name": "put_timeArray",
          "type": "uint256[]"
        },
        {
          "name": "put_ivAry",
          "type": "uint256[]"
        },
        {
          "name": "call_timeArray",
          "type": "uint256[]"
        },
        {
          "name": "call_ivAry",
          "type": "uint256[]"
        }
      ],
      "name": "setIvMatrixAll",
      "outputs": [],
      "payable": false,
      "stateMutability": "nonpayable",
      "type": "function"
    },
    {
      "constant": true,
      "inputs": [],
      "name": "ValidUntil",
      "outputs": [
        {
          "name": "",
          "type": "uint256"
        }
      ],
      "payable": false,
      "stateMutability": "view",
      "type": "function"
    },
    {
      "constant": true,
      "inputs": [],
      "name": "inptutTime",
      "outputs": [
        {
          "name": "",
          "type": "uint256"
        }
      ],
      "payable": false,
      "stateMutability": "view",
      "type": "function"
    },
    {
      "constant": false,
      "inputs": [
        {
          "name": "timeLimit",
          "type": "uint256"
        }
      ],
      "name": "setValidUntil",
      "outputs": [],
      "payable": false,
      "stateMutability": "nonpayable",
      "type": "function"
    },
    {
      "constant": false,
      "inputs": [],
      "name": "renounceOwnership",
      "outputs": [],
      "payable": false,
      "stateMutability": "nonpayable",
      "type": "function"
    },
    {
      "constant": true,
      "inputs": [],
      "name": "owner",
      "outputs": [
        {
          "name": "",
          "type": "address"
        }
      ],
      "payable": false,
      "stateMutability": "view",
      "type": "function"
    },
    {
      "constant": true,
      "inputs": [],
      "name": "isOwner",
      "outputs": [
        {
          "name": "",
          "type": "bool"
        }
      ],
      "payable": false,
      "stateMutability": "view",
      "type": "function"
    },
    {
      "constant": true,
      "inputs": [
        {
          "name": "underlying",
          "type": "uint32"
        },
        {
          "name": "optType",
          "type": "uint8"
        },
        {
          "name": "expiration",
          "type": "uint256"
        },
        {
          "name": "price",
          "type": "uint256"
        }
      ],
      "name": "calculateIv",
      "outputs": [
        {
          "name": "",
          "type": "uint256"
        },
        {
          "name": "",
          "type": "uint256"
        }
      ],
      "payable": false,
      "stateMutability": "view",
      "type": "function"
    },
    {
      "constant": false,
      "inputs": [
        {
          "name": "underlying",
          "type": "uint32"
        },
        {
          "name": "optType",
          "type": "uint8"
        },
        {
          "name": "timeArray",
          "type": "uint256[]"
        },
        {
          "name": "ivAry",
          "type": "uint256[]"
        }
      ],
      "name": "setIvMatrix",
      "outputs": [],
      "payable": false,
      "stateMutability": "nonpayable",
      "type": "function"
    },
    {
      "constant": false,
      "inputs": [
        {
          "name": "newOwner",
          "type": "address"
        }
      ],
      "name": "transferOwnership",
      "outputs": [],
      "payable": false,
      "stateMutability": "nonpayable",
      "type": "function"
    },
    {
      "anonymous": false,
      "inputs": [
        {
          "indexed": true,
          "name": "previousOwner",
          "type": "address"
        },
        {
          "indexed": true,
          "name": "newOwner",
          "type": "address"
        }
      ],
      "name": "OwnershipTransferred",
      "type": "event"
    },
    {
      "constant": true,
      "inputs": [
        {
          "name": "underlying",
          "type": "uint32"
        },
        {
          "name": "optType",
          "type": "uint8"
        }
      ],
      "name": "getTimeMapLen",
      "outputs": [
        {
          "name": "",
          "type": "uint256"
        }
      ],
      "payable": false,
      "stateMutability": "view",
      "type": "function"
    },
    {
      "constant": true,
      "inputs": [
        {
          "name": "underlying",
          "type": "uint32"
        },
        {
          "name": "optType",
          "type": "uint8"
        }
      ],
      "name": "getTimeAllBufferLen",
      "outputs": [
        {
          "name": "",
          "type": "uint256"
        }
      ],
      "payable": false,
      "stateMutability": "view",
      "type": "function"
    },
    {
      "constant": true,
      "inputs": [
        {
          "name": "underlying",
          "type": "uint32"
        },
        {
          "name": "optType",
          "type": "uint8"
        }
      ],
      "name": "getTimeAllBuffer",
      "outputs": [
        {
          "name": "",
          "type": "uint256[]"
        }
      ],
      "payable": false,
      "stateMutability": "view",
      "type": "function"
    },
    {
      "constant": true,
      "inputs": [
        {
          "name": "buffer",
          "type": "uint256[]"
        },
        {
          "name": "index",
          "type": "uint256"
        }
      ],
      "name": "getValueFromBuffer",
      "outputs": [
        {
          "name": "",
          "type": "uint256"
        }
      ],
      "payable": false,
      "stateMutability": "pure",
      "type": "function"
    },
    {
      "constant": true,
      "inputs": [
        {
          "name": "underlying",
          "type": "uint32"
        },
        {
          "name": "optType",
          "type": "uint8"
        },
        {
          "name": "expiration",
          "type": "uint256"
        }
      ],
      "name": "getTimeRangeIndex",
      "outputs": [
        {
          "name": "",
          "type": "uint256"
        }
      ],
      "payable": false,
      "stateMutability": "view",
      "type": "function"
    }
  ],
  "bytecode": "0x608060408190526104b060015560008054600160a060020a0319163317808255600160a060020a0316917f8be0079c531659141344cd1fd0a4f28419497f9722a3daafe3b4186f6b6457e0908290a361101f8061005d6000396000f3006080604052600436106100da5763ffffffff7c01000000000000000000000000000000000000000000000000000000006000350416630b82566881146100df57806316992ca7146101ec5780631e3047f7146102605780634af5b1e2146102c95780634fdeceab146102de57806352ca59fa14610302578063634099cc146103175780636ad0260f1461032f578063715018a6146103565780638da5cb5b1461036b5780638f32d59b1461039c578063b4277bc1146103c5578063d741f61014610408578063ea4d05361461042c578063f2fde38b146104cc575b600080fd5b3480156100eb57600080fd5b506040805160206004602480358281013584810280870186019097528086526101ea96843563ffffffff1696369660449591949091019291829185019084908082843750506040805187358901803560208181028481018201909552818452989b9a998901989297509082019550935083925085019084908082843750506040805187358901803560208181028481018201909552818452989b9a998901989297509082019550935083925085019084908082843750506040805187358901803560208181028481018201909552818452989b9a9989019892975090820195509350839250850190849080828437509497506104ed9650505050505050565b005b3480156101f857600080fd5b5061021063ffffffff6004351660ff6024351661055a565b60408051602080825283518183015283519192839290830191858101910280838360005b8381101561024c578181015183820152602001610234565b505050509050019250505060405180910390f35b34801561026c57600080fd5b50604080516020600480358082013583810280860185019096528085526102b79536959394602494938501929182918501908490808284375094975050933594506105899350505050565b60408051918252519081900360200190f35b3480156102d557600080fd5b506102b761059c565b3480156102ea57600080fd5b506102b763ffffffff6004351660ff602435166105a2565b34801561030e57600080fd5b506102b76105cd565b34801561032357600080fd5b506101ea6004356105d3565b34801561033b57600080fd5b506102b763ffffffff6004351660ff60243516604435610624565b34801561036257600080fd5b506101ea61065f565b34801561037757600080fd5b50610380610702565b60408051600160a060020a039092168252519081900360200190f35b3480156103a857600080fd5b506103b1610711565b604080519115158252519081900360200190f35b3480156103d157600080fd5b506103ef63ffffffff6004351660ff60243516604435606435610722565b6040805192835260208301919091528051918290030190f35b34801561041457600080fd5b506102b763ffffffff6004351660ff602435166107fe565b34801561043857600080fd5b5060408051602060046044358181013583810280860185019096528085526101ea95833563ffffffff16956024803560ff1696369695606495939492019291829185019084908082843750506040805187358901803560208181028481018201909552818452989b9a99890198929750908201955093508392508501908490808284375094975061082d9650505050505050565b3480156104d857600080fd5b506101ea600160a060020a0360043516610924565b6104f5610711565b1515610539576040805160e560020a62461bcd0281526020600482018190526024820152600080516020610fd4833981519152604482015290519081900360640190fd5b610546856001868661082d565b610553856000848461082d565b5050505050565b6060600060606105738563ffffffff168560ff1661097c565b915061058060038361098a565b95945050505050565b6000610595838361099d565b9392505050565b60015481565b6000806105b88463ffffffff168460ff1661097c565b90506105c56003826109b5565b949350505050565b60025481565b6105db610711565b151561061f576040805160e560020a62461bcd0281526020600482018190526024820152600080516020610fd4833981519152604482015290519081900360640190fd5b600155565b600080606061063c8663ffffffff168660ff1661097c565b915061064960038361098a565b905061065581856109cc565b9695505050505050565b610667610711565b15156106ab576040805160e560020a62461bcd0281526020600482018190526024820152600080516020610fd4833981519152604482015290519081900360640190fd5b60008054604051600160a060020a03909116907f8be0079c531659141344cd1fd0a4f28419497f9722a3daafe3b4186f6b6457e0908390a36000805473ffffffffffffffffffffffffffffffffffffffff19169055565b600054600160a060020a031690565b600054600160a060020a0316331490565b61271090046000808060608180808061074463ffffffff8d1660ff8d1661097c565b955061075160038761098a565b945061075d858b6109cc565b9350831515610781576107738c8c87878d610ab1565b6305f5e100975097506107ef565b6107918c8c87600188038d610ab1565b92506107a08c8c87878d610ab1565b91506107ca6107b5866002876002020361099d565b6107c2878760020261099d565b85858e610c74565b9050600081136107e457600197506305f5e10096506107ef565b806305f5e100975097505b50505050505094509492505050565b60008060606108168563ffffffff168560ff1661097c565b915061082360038361098a565b5195945050505050565b600080600061083a610711565b151561087e576040805160e560020a62461bcd0281526020600482018190526024820152600080516020610fd4833981519152604482015290519081900360640190fd5b6108918763ffffffff168760ff1661097c565b925084519150600090505b818110156108d85784818151811015156108b257fe5b60209081029091018101518483016000908152600390925260409091205560010161089c565b5050815160005b8181101561091b5783818151811015156108f557fe5b6020908102909101810151848301600090815260049092526040909120556001016108df565b50505050505050565b61092c610711565b1515610970576040805160e560020a62461bcd0281526020600482018190526024820152600080516020610fd4833981519152604482015290519081900360640190fd5b61097981610cef565b50565b600061059560008484610ddd565b60606105958383600863ffffffff610e06565b600061059583836001016008602063ffffffff610eec565b6000610595838360006008602063ffffffff610f3d565b60008060008060026109dd87610f8a565b8115156109e657fe5b0492506002831015610a67576040805160e560020a62461bcd028152602060048201526024808201527f6976206d61747269782074696d65206c656e677468206973206c65737320746860448201527f616e203200000000000000000000000000000000000000000000000000000000606482015290519081900360840190fd5b600091505b82821015610a9d57610a81868360020261099d565b9050808511610a9257819350610aa8565b600190910190610a6c565b600019909101925082905b50505092915050565b6000806000806000806000610acf8c63ffffffff168c60ff1661097c565b95508894506000891115610af057610aed8a60018b6002020361099d565b94505b610b008a8a60020260010161099d565b935060028585031015610b83576040805160e560020a62461bcd02815260206004820152602560248201527f6976206d6174726978207072696365206c656e677468206973206c657373207460448201527f68616e2032000000000000000000000000000000000000000000000000000000606482015290519081900360840190fd5b83851015610bb357610b9a60048787600202610fba565b9250828811610ba857610bb3565b600190940193610b83565b83851415610bc75760001990940193610bd6565b88851415610bd6576001909401935b610be560048787600202610fba565b915087821415610c0b57610c0160048787600202600101610fba565b6064029650610c65565b610c4b610c2060048860028960020203610fba565b83610c3360048a60018b60020203610fba565b610c4560048b8b600202600101610fba565b8c610c74565b905060008113610c5e5760019650610c65565b8060640296505b50505050505095945050505050565b600084861415610cce576040805160e560020a62461bcd02815260206004820152601c60248201527f696e7075742076616c75657320617265206475706c6963617465642100000000604482015290519081900360640190fd5b85850386830385850302811515610ce157fe5b058401905095945050505050565b600160a060020a0381161515610d75576040805160e560020a62461bcd02815260206004820152602660248201527f4f776e61626c653a206e6577206f776e657220697320746865207a65726f206160448201527f6464726573730000000000000000000000000000000000000000000000000000606482015290519081900360840190fd5b60008054604051600160a060020a03808516939216917f8be0079c531659141344cd1fd0a4f28419497f9722a3daafe3b4186f6b6457e091a36000805473ffffffffffffffffffffffffffffffffffffffff1916600160a060020a0392909216919091179055565b700100000000000000000000000000000000026801000000000000000091909102919091010190565b600083815260208590526040812054606091838216908381831515610e2a57610edf565b8784600101811515610e3857fe5b0492508784600101811515610e4957fe5b0615610e56576001909201915b82604051908082528060200260200182016040528015610e80578160200160208202803883390190505b50915084826000815181101515610e9357fe5b602090810290910101525060015b82811015610edb57888101600090815260208b905260409020548251839083908110610ec957fe5b60209081029091010152600101610ea1565b8195505b5050505050949350505050565b60008060008587811515610efc57fe5b049150848688811515610f0b57fe5b0602905083818984815181101515610f1f57fe5b906020019060200201519060020a9004169250505095945050505050565b6000806000808688811515610f4e57fe5b04898101600090815260208c905260409020549093509150858789811515610f7257fe5b060260020a9091049390931698975050505050505050565b6000815160001415610f9e57506000610fb5565b610fb28260006008602063ffffffff610eec565b90505b919050565b60006105c58484846001016008602063ffffffff610f3d56004f776e61626c653a2063616c6c6572206973206e6f7420746865206f776e6572a165627a7a723058206058012c370a0faf6ecf2ccad2cbd6a7aea9e4acb170e72c09f3a7a030b115440029",
  "source": "pragma solidity ^0.4.26;\r\nimport \"../imVolatility32.sol\";\r\ncontract imVolatilityTest is imVolatility32 {\r\n    function getTimeMapLen(uint32 underlying,uint8 optType)public view returns(uint256){\r\n        uint256 saveKey = getKey(underlying,optType);\r\n        return ArraySave32.getArrayLen(timeSaveMap,saveKey);\r\n    }\r\n    function getTimeAllBufferLen(uint32 underlying,uint8 optType)public view returns(uint256){\r\n        uint256 saveKey = getKey(underlying,optType);\r\n        uint256[] memory buffer = ArraySave32.readAllBuffer(timeSaveMap,saveKey);\r\n        return buffer.length;\r\n    }\r\n    function getTimeAllBuffer(uint32 underlying,uint8 optType)public view returns(uint256[]){\r\n        uint256 saveKey = getKey(underlying,optType);\r\n        uint256[] memory buffer = ArraySave32.readAllBuffer(timeSaveMap,saveKey);\r\n        return buffer;\r\n    }\r\n    function getValueFromBuffer(uint256[] buffer,uint256 index)public pure returns(uint256){\r\n        return ArraySave32.getValueFromBuffer(buffer,index);\r\n    }\r\n    function getTimeRangeIndex(uint32 underlying,uint8 optType,uint256 expiration)public view returns(uint256){\r\n        uint256 saveKey = getKey(underlying,optType);\r\n        uint256[] memory buffer = ArraySave32.readAllBuffer(timeSaveMap,saveKey);\r\n        return getTimeRange(buffer,expiration);\r\n    }\r\n}",
  "sourcePath": "C:\\work\\solidity\\FinnexusOptions_V2\\contracts\\test\\imVolatilityTest.sol",
  "compiler": {
    "name": "solc",
    "version": "0.4.26+commit.4563c3fc.Emscripten.clang"
  },
  "schemaVersion": "3.1.0",
  "updatedAt": "2020-07-27T11:08:36.790Z",
  "devdoc": {
    "methods": {
      "calculateIv(uint32,uint8,uint256,uint256)": {
        "details": "function to get implied volatility for an asset\r",
        "params": {
          "expiration": "the option expiration which has been created in option manger contract\r",
          "price": "the option underlying strikePrice which has been created in option manger contract\r"
        },
        "return": "uint mantissa of asset implied volatility (scaled by 1e18) or zero if unset or contract paused\r"
      },
      "isOwner()": {
        "details": "Returns true if the caller is the current owner."
      },
      "owner()": {
        "details": "Returns the address of the current owner."
      },
      "renounceOwnership()": {
        "details": "Leaves the contract without owner. It will not be possible to call `onlyOwner` functions anymore. Can only be called by the current owner.     * NOTE: Renouncing ownership will leave the contract without an owner, thereby removing any functionality that is only available to the owner."
      },
      "transferOwnership(address)": {
        "details": "Transfers ownership of the contract to a new account (`newOwner`). Can only be called by the current owner."
      }
    }
  },
  "userdoc": {
    "methods": {
      "calculateIv(uint32,uint8,uint256,uint256)": {
        "notice": "retrieves implied volatility of an asset\r"
      }
    }
  }
}