{
  "contractName": "imVolatilityTest",
  "abi": [
    {
      "constant": true,
      "inputs": [],
      "name": "ValidUntil",
      "outputs": [
        {
          "name": "",
          "type": "uint256"
        }
      ],
      "payable": false,
      "stateMutability": "view",
      "type": "function"
    },
    {
      "constant": true,
      "inputs": [],
      "name": "inptutTime",
      "outputs": [
        {
          "name": "",
          "type": "uint256"
        }
      ],
      "payable": false,
      "stateMutability": "view",
      "type": "function"
    },
    {
      "constant": false,
      "inputs": [
        {
          "name": "timeLimit",
          "type": "uint256"
        }
      ],
      "name": "setValidUntil",
      "outputs": [],
      "payable": false,
      "stateMutability": "nonpayable",
      "type": "function"
    },
    {
      "constant": false,
      "inputs": [],
      "name": "renounceOwnership",
      "outputs": [],
      "payable": false,
      "stateMutability": "nonpayable",
      "type": "function"
    },
    {
      "constant": true,
      "inputs": [],
      "name": "owner",
      "outputs": [
        {
          "name": "",
          "type": "address"
        }
      ],
      "payable": false,
      "stateMutability": "view",
      "type": "function"
    },
    {
      "constant": true,
      "inputs": [],
      "name": "isOwner",
      "outputs": [
        {
          "name": "",
          "type": "bool"
        }
      ],
      "payable": false,
      "stateMutability": "view",
      "type": "function"
    },
    {
      "constant": true,
      "inputs": [
        {
          "name": "underlying",
          "type": "uint32"
        },
        {
          "name": "optType",
          "type": "uint8"
        },
        {
          "name": "expiration",
          "type": "uint256"
        },
        {
          "name": "price",
          "type": "uint256"
        }
      ],
      "name": "calculateIv",
      "outputs": [
        {
          "name": "",
          "type": "uint256"
        },
        {
          "name": "",
          "type": "uint256"
        }
      ],
      "payable": false,
      "stateMutability": "view",
      "type": "function"
    },
    {
      "constant": false,
      "inputs": [
        {
          "name": "underlying",
          "type": "uint32"
        },
        {
          "name": "optType",
          "type": "uint8"
        },
        {
          "name": "timeArray",
          "type": "uint256[]"
        },
        {
          "name": "ivAry",
          "type": "uint256[]"
        }
      ],
      "name": "setIvMatrix",
      "outputs": [],
      "payable": false,
      "stateMutability": "nonpayable",
      "type": "function"
    },
    {
      "constant": false,
      "inputs": [
        {
          "name": "newOwner",
          "type": "address"
        }
      ],
      "name": "transferOwnership",
      "outputs": [],
      "payable": false,
      "stateMutability": "nonpayable",
      "type": "function"
    },
    {
      "anonymous": false,
      "inputs": [
        {
          "indexed": true,
          "name": "previousOwner",
          "type": "address"
        },
        {
          "indexed": true,
          "name": "newOwner",
          "type": "address"
        }
      ],
      "name": "OwnershipTransferred",
      "type": "event"
    },
    {
      "constant": true,
      "inputs": [
        {
          "name": "underlying",
          "type": "uint32"
        },
        {
          "name": "optType",
          "type": "uint8"
        }
      ],
      "name": "getTimeMapLen",
      "outputs": [
        {
          "name": "",
          "type": "uint256"
        }
      ],
      "payable": false,
      "stateMutability": "view",
      "type": "function"
    },
    {
      "constant": true,
      "inputs": [
        {
          "name": "underlying",
          "type": "uint32"
        },
        {
          "name": "optType",
          "type": "uint8"
        }
      ],
      "name": "getTimeAllBufferLen",
      "outputs": [
        {
          "name": "",
          "type": "uint256"
        }
      ],
      "payable": false,
      "stateMutability": "view",
      "type": "function"
    },
    {
      "constant": true,
      "inputs": [
        {
          "name": "underlying",
          "type": "uint32"
        },
        {
          "name": "optType",
          "type": "uint8"
        }
      ],
      "name": "getTimeAllBuffer",
      "outputs": [
        {
          "name": "",
          "type": "uint256[]"
        }
      ],
      "payable": false,
      "stateMutability": "view",
      "type": "function"
    },
    {
      "constant": true,
      "inputs": [
        {
          "name": "buffer",
          "type": "uint256[]"
        },
        {
          "name": "index",
          "type": "uint256"
        }
      ],
      "name": "getValueFromBuffer",
      "outputs": [
        {
          "name": "",
          "type": "uint256"
        }
      ],
      "payable": false,
      "stateMutability": "pure",
      "type": "function"
    },
    {
      "constant": true,
      "inputs": [
        {
          "name": "underlying",
          "type": "uint32"
        },
        {
          "name": "optType",
          "type": "uint8"
        },
        {
          "name": "expiration",
          "type": "uint256"
        }
      ],
      "name": "getTimeRangeIndex",
      "outputs": [
        {
          "name": "",
          "type": "uint256"
        }
      ],
      "payable": false,
      "stateMutability": "view",
      "type": "function"
    }
  ],
  "bytecode": "0x608060408190526104b060015560008054600160a060020a0319163317808255600160a060020a0316917f8be0079c531659141344cd1fd0a4f28419497f9722a3daafe3b4186f6b6457e0908290a3610e9c8061005d6000396000f3006080604052600436106100cf5763ffffffff7c010000000000000000000000000000000000000000000000000000000060003504166316992ca781146100d45780631e3047f7146101485780634af5b1e2146101b15780634fdeceab146101c657806352ca59fa146101ea578063634099cc146101ff5780636ad0260f14610219578063715018a6146102405780638da5cb5b146102555780638f32d59b14610286578063b4277bc1146102af578063d741f610146102f2578063ea4d053614610316578063f2fde38b146103b6575b600080fd5b3480156100e057600080fd5b506100f863ffffffff6004351660ff602435166103d7565b60408051602080825283518183015283519192839290830191858101910280838360005b8381101561013457818101518382015260200161011c565b505050509050019250505060405180910390f35b34801561015457600080fd5b506040805160206004803580820135838102808601850190965280855261019f9536959394602494938501929182918501908490808284375094975050933594506104069350505050565b60408051918252519081900360200190f35b3480156101bd57600080fd5b5061019f610419565b3480156101d257600080fd5b5061019f63ffffffff6004351660ff6024351661041f565b3480156101f657600080fd5b5061019f61044a565b34801561020b57600080fd5b50610217600435610450565b005b34801561022557600080fd5b5061019f63ffffffff6004351660ff602435166044356104a1565b34801561024c57600080fd5b506102176104dc565b34801561026157600080fd5b5061026a61057f565b60408051600160a060020a039092168252519081900360200190f35b34801561029257600080fd5b5061029b61058e565b604080519115158252519081900360200190f35b3480156102bb57600080fd5b506102d963ffffffff6004351660ff6024351660443560643561059f565b6040805192835260208301919091528051918290030190f35b3480156102fe57600080fd5b5061019f63ffffffff6004351660ff6024351661067b565b34801561032257600080fd5b50604080516020600460443581810135838102808601850190965280855261021795833563ffffffff16956024803560ff1696369695606495939492019291829185019084908082843750506040805187358901803560208181028481018201909552818452989b9a9989019892975090820195509350839250850190849080828437509497506106aa9650505050505050565b3480156103c257600080fd5b50610217600160a060020a03600435166107a1565b6060600060606103f08563ffffffff168560ff166107f9565b91506103fd600383610807565b95945050505050565b6000610412838361081a565b9392505050565b60015481565b6000806104358463ffffffff168460ff166107f9565b9050610442600382610832565b949350505050565b60025481565b61045861058e565b151561049c576040805160e560020a62461bcd0281526020600482018190526024820152600080516020610e51833981519152604482015290519081900360640190fd5b600155565b60008060606104b98663ffffffff168660ff166107f9565b91506104c6600383610807565b90506104d28185610849565b9695505050505050565b6104e461058e565b1515610528576040805160e560020a62461bcd0281526020600482018190526024820152600080516020610e51833981519152604482015290519081900360640190fd5b60008054604051600160a060020a03909116907f8be0079c531659141344cd1fd0a4f28419497f9722a3daafe3b4186f6b6457e0908390a36000805473ffffffffffffffffffffffffffffffffffffffff19169055565b600054600160a060020a031690565b600054600160a060020a0316331490565b6127109004600080806060818080806105c163ffffffff8d1660ff8d166107f9565b95506105ce600387610807565b94506105da858b610849565b93508315156105fe576105f08c8c87878d61092e565b6305f5e1009750975061066c565b61060e8c8c87600188038d61092e565b925061061d8c8c87878d61092e565b9150610647610632866002876002020361081a565b61063f878760020261081a565b85858e610af1565b90506000811361066157600197506305f5e100965061066c565b806305f5e100975097505b50505050505094509492505050565b60008060606106938563ffffffff168560ff166107f9565b91506106a0600383610807565b5195945050505050565b60008060006106b761058e565b15156106fb576040805160e560020a62461bcd0281526020600482018190526024820152600080516020610e51833981519152604482015290519081900360640190fd5b61070e8763ffffffff168760ff166107f9565b925084519150600090505b8181101561075557848181518110151561072f57fe5b602090810290910181015184830160009081526003909252604090912055600101610719565b5050815160005b8181101561079857838181518110151561077257fe5b60209081029091018101518483016000908152600490925260409091205560010161075c565b50505050505050565b6107a961058e565b15156107ed576040805160e560020a62461bcd0281526020600482018190526024820152600080516020610e51833981519152604482015290519081900360640190fd5b6107f681610b6c565b50565b600061041260008484610c5a565b60606104128383600863ffffffff610c83565b600061041283836001016008602063ffffffff610d69565b6000610412838360006008602063ffffffff610dba565b600080600080600261085a87610e07565b81151561086357fe5b04925060028310156108e4576040805160e560020a62461bcd028152602060048201526024808201527f6976206d61747269782074696d65206c656e677468206973206c65737320746860448201527f616e203200000000000000000000000000000000000000000000000000000000606482015290519081900360840190fd5b600091505b8282101561091a576108fe868360020261081a565b905080851161090f57819350610925565b6001909101906108e9565b600019909101925082905b50505092915050565b600080600080600080600061094c8c63ffffffff168c60ff166107f9565b9550889450600089111561096d5761096a8a60018b6002020361081a565b94505b61097d8a8a60020260010161081a565b935060028585031015610a00576040805160e560020a62461bcd02815260206004820152602560248201527f6976206d6174726978207072696365206c656e677468206973206c657373207460448201527f68616e2032000000000000000000000000000000000000000000000000000000606482015290519081900360840190fd5b83851015610a3057610a1760048787600202610e37565b9250828811610a2557610a30565b600190940193610a00565b83851415610a445760001990940193610a53565b88851415610a53576001909401935b610a6260048787600202610e37565b915087821415610a8857610a7e60048787600202600101610e37565b6064029650610ae2565b610ac8610a9d60048860028960020203610e37565b83610ab060048a60018b60020203610e37565b610ac260048b8b600202600101610e37565b8c610af1565b905060008113610adb5760019650610ae2565b8060640296505b50505050505095945050505050565b600084861415610b4b576040805160e560020a62461bcd02815260206004820152601c60248201527f696e7075742076616c75657320617265206475706c6963617465642100000000604482015290519081900360640190fd5b85850386830385850302811515610b5e57fe5b058401905095945050505050565b600160a060020a0381161515610bf2576040805160e560020a62461bcd02815260206004820152602660248201527f4f776e61626c653a206e6577206f776e657220697320746865207a65726f206160448201527f6464726573730000000000000000000000000000000000000000000000000000606482015290519081900360840190fd5b60008054604051600160a060020a03808516939216917f8be0079c531659141344cd1fd0a4f28419497f9722a3daafe3b4186f6b6457e091a36000805473ffffffffffffffffffffffffffffffffffffffff1916600160a060020a0392909216919091179055565b700100000000000000000000000000000000026801000000000000000091909102919091010190565b600083815260208590526040812054606091838216908381831515610ca757610d5c565b8784600101811515610cb557fe5b0492508784600101811515610cc657fe5b0615610cd3576001909201915b82604051908082528060200260200182016040528015610cfd578160200160208202803883390190505b50915084826000815181101515610d1057fe5b602090810290910101525060015b82811015610d5857888101600090815260208b905260409020548251839083908110610d4657fe5b60209081029091010152600101610d1e565b8195505b5050505050949350505050565b60008060008587811515610d7957fe5b049150848688811515610d8857fe5b0602905083818984815181101515610d9c57fe5b906020019060200201519060020a9004169250505095945050505050565b6000806000808688811515610dcb57fe5b04898101600090815260208c905260409020549093509150858789811515610def57fe5b060260020a9091049390931698975050505050505050565b6000815160001415610e1b57506000610e32565b610e2f8260006008602063ffffffff610d69565b90505b919050565b60006104428484846001016008602063ffffffff610dba56004f776e61626c653a2063616c6c6572206973206e6f7420746865206f776e6572a165627a7a72305820ca7a86932f3d0a8eedd0f064d8946ac32383e8d235749f32b3ecade79503ba920029",
  "source": "pragma solidity ^0.4.26;\r\nimport \"../imVolatility32.sol\";\r\ncontract imVolatilityTest is imVolatility32 {\r\n    function getTimeMapLen(uint32 underlying,uint8 optType)public view returns(uint256){\r\n        uint256 saveKey = getKey(underlying,optType);\r\n        return ArraySave32.getArrayLen(timeSaveMap,saveKey);\r\n    }\r\n    function getTimeAllBufferLen(uint32 underlying,uint8 optType)public view returns(uint256){\r\n        uint256 saveKey = getKey(underlying,optType);\r\n        uint256[] memory buffer = ArraySave32.readAllBuffer(timeSaveMap,saveKey);\r\n        return buffer.length;\r\n    }\r\n    function getTimeAllBuffer(uint32 underlying,uint8 optType)public view returns(uint256[]){\r\n        uint256 saveKey = getKey(underlying,optType);\r\n        uint256[] memory buffer = ArraySave32.readAllBuffer(timeSaveMap,saveKey);\r\n        return buffer;\r\n    }\r\n    function getValueFromBuffer(uint256[] buffer,uint256 index)public pure returns(uint256){\r\n        return ArraySave32.getValueFromBuffer(buffer,index);\r\n    }\r\n    function getTimeRangeIndex(uint32 underlying,uint8 optType,uint256 expiration)public view returns(uint256){\r\n        uint256 saveKey = getKey(underlying,optType);\r\n        uint256[] memory buffer = ArraySave32.readAllBuffer(timeSaveMap,saveKey);\r\n        return getTimeRange(buffer,expiration);\r\n    }\r\n}",
  "sourcePath": "C:\\work\\solidity\\FinnexusOptions_V2\\contracts\\test\\imVolatilityTest.sol",
  "compiler": {
    "name": "solc",
    "version": "0.4.26+commit.4563c3fc.Emscripten.clang"
  },
  "schemaVersion": "3.1.0",
  "updatedAt": "2020-07-25T10:21:49.806Z",
  "devdoc": {
    "methods": {
      "calculateIv(uint32,uint8,uint256,uint256)": {
        "details": "function to get implied volatility for an asset\r",
        "params": {
          "expiration": "the option expiration which has been created in option manger contract\r",
          "price": "the option underlying strikePrice which has been created in option manger contract\r"
        },
        "return": "uint mantissa of asset implied volatility (scaled by 1e18) or zero if unset or contract paused\r"
      },
      "isOwner()": {
        "details": "Returns true if the caller is the current owner."
      },
      "owner()": {
        "details": "Returns the address of the current owner."
      },
      "renounceOwnership()": {
        "details": "Leaves the contract without owner. It will not be possible to call `onlyOwner` functions anymore. Can only be called by the current owner.     * NOTE: Renouncing ownership will leave the contract without an owner, thereby removing any functionality that is only available to the owner."
      },
      "transferOwnership(address)": {
        "details": "Transfers ownership of the contract to a new account (`newOwner`). Can only be called by the current owner."
      }
    }
  },
  "userdoc": {
    "methods": {
      "calculateIv(uint32,uint8,uint256,uint256)": {
        "notice": "retrieves implied volatility of an asset\r"
      }
    }
  }
}