{
  "contractName": "imVolatility32",
  "abi": [
    {
      "constant": true,
      "inputs": [],
      "name": "ValidUntil",
      "outputs": [
        {
          "name": "",
          "type": "uint256"
        }
      ],
      "payable": false,
      "stateMutability": "view",
      "type": "function"
    },
    {
      "constant": true,
      "inputs": [],
      "name": "inptutTime",
      "outputs": [
        {
          "name": "",
          "type": "uint256"
        }
      ],
      "payable": false,
      "stateMutability": "view",
      "type": "function"
    },
    {
      "constant": false,
      "inputs": [],
      "name": "renounceOwnership",
      "outputs": [],
      "payable": false,
      "stateMutability": "nonpayable",
      "type": "function"
    },
    {
      "constant": true,
      "inputs": [],
      "name": "owner",
      "outputs": [
        {
          "name": "",
          "type": "address"
        }
      ],
      "payable": false,
      "stateMutability": "view",
      "type": "function"
    },
    {
      "constant": true,
      "inputs": [],
      "name": "isOwner",
      "outputs": [
        {
          "name": "",
          "type": "bool"
        }
      ],
      "payable": false,
      "stateMutability": "view",
      "type": "function"
    },
    {
      "constant": false,
      "inputs": [
        {
          "name": "newOwner",
          "type": "address"
        }
      ],
      "name": "transferOwnership",
      "outputs": [],
      "payable": false,
      "stateMutability": "nonpayable",
      "type": "function"
    },
    {
      "anonymous": false,
      "inputs": [
        {
          "indexed": true,
          "name": "previousOwner",
          "type": "address"
        },
        {
          "indexed": true,
          "name": "newOwner",
          "type": "address"
        }
      ],
      "name": "OwnershipTransferred",
      "type": "event"
    },
    {
      "constant": false,
      "inputs": [
        {
          "name": "timeLimit",
          "type": "uint256"
        }
      ],
      "name": "setValidUntil",
      "outputs": [],
      "payable": false,
      "stateMutability": "nonpayable",
      "type": "function"
    },
    {
      "constant": false,
      "inputs": [
        {
          "name": "underlying",
          "type": "uint32"
        },
        {
          "name": "put_timeArray",
          "type": "uint256[]"
        },
        {
          "name": "put_ivAry",
          "type": "uint256[]"
        },
        {
          "name": "call_timeArray",
          "type": "uint256[]"
        },
        {
          "name": "call_ivAry",
          "type": "uint256[]"
        }
      ],
      "name": "setIvMatrixAll",
      "outputs": [],
      "payable": false,
      "stateMutability": "nonpayable",
      "type": "function"
    },
    {
      "constant": false,
      "inputs": [
        {
          "name": "underlying",
          "type": "uint32"
        },
        {
          "name": "optType",
          "type": "uint8"
        },
        {
          "name": "timeArray",
          "type": "uint256[]"
        },
        {
          "name": "ivAry",
          "type": "uint256[]"
        }
      ],
      "name": "setIvMatrix",
      "outputs": [],
      "payable": false,
      "stateMutability": "nonpayable",
      "type": "function"
    },
    {
      "constant": true,
      "inputs": [
        {
          "name": "underlying",
          "type": "uint32"
        },
        {
          "name": "optType",
          "type": "uint8"
        },
        {
          "name": "expiration",
          "type": "uint256"
        },
        {
          "name": "price",
          "type": "uint256"
        }
      ],
      "name": "calculateIv",
      "outputs": [
        {
          "name": "",
          "type": "uint256"
        },
        {
          "name": "",
          "type": "uint256"
        }
      ],
      "payable": false,
      "stateMutability": "view",
      "type": "function"
    }
  ],
  "bytecode": "0x608060408190526104b060015560008054600160a060020a0319163317808255600160a060020a0316917f8be0079c531659141344cd1fd0a4f28419497f9722a3daafe3b4186f6b6457e0908290a3610dcf8061005d6000396000f3006080604052600436106100a35763ffffffff7c01000000000000000000000000000000000000000000000000000000006000350416630b82566881146100a85780634af5b1e2146101b557806352ca59fa146101dc578063634099cc146101f1578063715018a6146102095780638da5cb5b1461021e5780638f32d59b1461024f578063b4277bc114610278578063ea4d0536146102bb578063f2fde38b1461035b575b600080fd5b3480156100b457600080fd5b506040805160206004602480358281013584810280870186019097528086526101b396843563ffffffff1696369660449591949091019291829185019084908082843750506040805187358901803560208181028481018201909552818452989b9a998901989297509082019550935083925085019084908082843750506040805187358901803560208181028481018201909552818452989b9a998901989297509082019550935083925085019084908082843750506040805187358901803560208181028481018201909552818452989b9a99890198929750908201955093508392508501908490808284375094975061037c9650505050505050565b005b3480156101c157600080fd5b506101ca6103e9565b60408051918252519081900360200190f35b3480156101e857600080fd5b506101ca6103ef565b3480156101fd57600080fd5b506101b36004356103f5565b34801561021557600080fd5b506101b3610446565b34801561022a57600080fd5b506102336104e9565b60408051600160a060020a039092168252519081900360200190f35b34801561025b57600080fd5b506102646104f8565b604080519115158252519081900360200190f35b34801561028457600080fd5b506102a263ffffffff6004351660ff60243516604435606435610509565b6040805192835260208301919091528051918290030190f35b3480156102c757600080fd5b5060408051602060046044358181013583810280860185019096528085526101b395833563ffffffff16956024803560ff1696369695606495939492019291829185019084908082843750506040805187358901803560208181028481018201909552818452989b9a9989019892975090820195509350839250850190849080828437509497506105e59650505050505050565b34801561036757600080fd5b506101b3600160a060020a03600435166106dc565b6103846104f8565b15156103c8576040805160e560020a62461bcd0281526020600482018190526024820152600080516020610d84833981519152604482015290519081900360640190fd5b6103d585600186866105e5565b6103e285600084846105e5565b5050505050565b60015481565b60025481565b6103fd6104f8565b1515610441576040805160e560020a62461bcd0281526020600482018190526024820152600080516020610d84833981519152604482015290519081900360640190fd5b600155565b61044e6104f8565b1515610492576040805160e560020a62461bcd0281526020600482018190526024820152600080516020610d84833981519152604482015290519081900360640190fd5b60008054604051600160a060020a03909116907f8be0079c531659141344cd1fd0a4f28419497f9722a3daafe3b4186f6b6457e0908390a36000805473ffffffffffffffffffffffffffffffffffffffff19169055565b600054600160a060020a031690565b600054600160a060020a0316331490565b61271090046000808060608180808061052b63ffffffff8d1660ff8d16610734565b9550610538600387610749565b9450610544858b61075c565b93508315156105685761055a8c8c87878d610841565b6305f5e100975097506105d6565b6105788c8c87600188038d610841565b92506105878c8c87878d610841565b91506105b161059c8660028760020203610a04565b6105a98787600202610a04565b85858e610a1c565b9050600081136105cb57600197506305f5e10096506105d6565b806305f5e100975097505b50505050505094509492505050565b60008060006105f26104f8565b1515610636576040805160e560020a62461bcd0281526020600482018190526024820152600080516020610d84833981519152604482015290519081900360640190fd5b6106498763ffffffff168760ff16610734565b925084519150600090505b8181101561069057848181518110151561066a57fe5b602090810290910181015184830160009081526003909252604090912055600101610654565b5050815160005b818110156106d35783818151811015156106ad57fe5b602090810290910181015184830160009081526004909252604090912055600101610697565b50505050505050565b6106e46104f8565b1515610728576040805160e560020a62461bcd0281526020600482018190526024820152600080516020610d84833981519152604482015290519081900360640190fd5b61073181610a97565b50565b600061074260008484610b85565b9392505050565b60606107428383600863ffffffff610bae565b600080600080600261076d87610c94565b81151561077657fe5b04925060028310156107f7576040805160e560020a62461bcd028152602060048201526024808201527f6976206d61747269782074696d65206c656e677468206973206c65737320746860448201527f616e203200000000000000000000000000000000000000000000000000000000606482015290519081900360840190fd5b600091505b8282101561082d576108118683600202610a04565b905080851161082257819350610838565b6001909101906107fc565b600019909101925082905b50505092915050565b600080600080600080600061085f8c63ffffffff168c60ff16610734565b955088945060008911156108805761087d8a60018b60020203610a04565b94505b6108908a8a600202600101610a04565b935060028585031015610913576040805160e560020a62461bcd02815260206004820152602560248201527f6976206d6174726978207072696365206c656e677468206973206c657373207460448201527f68616e2032000000000000000000000000000000000000000000000000000000606482015290519081900360840190fd5b838510156109435761092a60048787600202610cc4565b925082881161093857610943565b600190940193610913565b838514156109575760001990940193610966565b88851415610966576001909401935b61097560048787600202610cc4565b91508782141561099b5761099160048787600202600101610cc4565b60640296506109f5565b6109db6109b060048860028960020203610cc4565b836109c360048a60018b60020203610cc4565b6109d560048b8b600202600101610cc4565b8c610a1c565b9050600081136109ee57600196506109f5565b8060640296505b50505050505095945050505050565b600061074283836001016008602063ffffffff610ce5565b600084861415610a76576040805160e560020a62461bcd02815260206004820152601c60248201527f696e7075742076616c75657320617265206475706c6963617465642100000000604482015290519081900360640190fd5b85850386830385850302811515610a8957fe5b058401905095945050505050565b600160a060020a0381161515610b1d576040805160e560020a62461bcd02815260206004820152602660248201527f4f776e61626c653a206e6577206f776e657220697320746865207a65726f206160448201527f6464726573730000000000000000000000000000000000000000000000000000606482015290519081900360840190fd5b60008054604051600160a060020a03808516939216917f8be0079c531659141344cd1fd0a4f28419497f9722a3daafe3b4186f6b6457e091a36000805473ffffffffffffffffffffffffffffffffffffffff1916600160a060020a0392909216919091179055565b700100000000000000000000000000000000026801000000000000000091909102919091010190565b600083815260208590526040812054606091838216908381831515610bd257610c87565b8784600101811515610be057fe5b0492508784600101811515610bf157fe5b0615610bfe576001909201915b82604051908082528060200260200182016040528015610c28578160200160208202803883390190505b50915084826000815181101515610c3b57fe5b602090810290910101525060015b82811015610c8357888101600090815260208b905260409020548251839083908110610c7157fe5b60209081029091010152600101610c49565b8195505b5050505050949350505050565b6000815160001415610ca857506000610cbf565b610cbc8260006008602063ffffffff610ce5565b90505b919050565b6000610cdd8484846001016008602063ffffffff610d36565b949350505050565b60008060008587811515610cf557fe5b049150848688811515610d0457fe5b0602905083818984815181101515610d1857fe5b906020019060200201519060020a9004169250505095945050505050565b6000806000808688811515610d4757fe5b04898101600090815260208c905260409020549093509150858789811515610d6b57fe5b060260020a909104939093169897505050505050505056004f776e61626c653a2063616c6c6572206973206e6f7420746865206f776e6572a165627a7a723058202a75d99311721c11fb0bb0c6262972b441cf5dbec563c8737741985e98ac4c860029",
  "source": "pragma solidity ^0.4.26;\r\nimport \"./modules/Ownable.sol\";\r\nimport \"./modules/tuple.sol\";\r\nimport \"./modules/ArraySave.sol\";\r\ncontract imVolatility32 is Ownable {\r\n    uint256 public ValidUntil = 1200;\r\n    uint256 constant _calDecimal = 1e8;\r\n    uint256 public inptutTime;\r\n    ArraySave.saveMap internal timeSaveMap;\r\n    ArraySave.saveMap internal IvMap;\r\n    function setValidUntil(uint256 timeLimit) public onlyOwner {\r\n        ValidUntil = timeLimit;\r\n    }\r\n    function setIvMatrixAll(uint32 underlying,uint256[] put_timeArray,uint256[] put_ivAry,\r\n        uint256[] call_timeArray,uint256[] call_ivAry) public onlyOwner{\r\n        setIvMatrix(underlying,1,put_timeArray,put_ivAry);\r\n        setIvMatrix(underlying,0,call_timeArray,call_ivAry);\r\n    }\r\n    function setIvMatrix(uint32 underlying,uint8 optType,uint256[] timeArray,uint256[] ivAry) public onlyOwner{\r\n        uint256 saveKey = getKey(underlying,optType);\r\n        uint nLen0 = timeArray.length;\r\n        for (uint i=0;i<nLen0;i++){\r\n            timeSaveMap.sMap[saveKey+i] = timeArray[i];\r\n        }\r\n        nLen0 = ivAry.length;\r\n        for (i=0;i<nLen0;i++){\r\n            IvMap.sMap[saveKey+i] = ivAry[i];\r\n        }\r\n    }\r\n    function getKey(uint256 underlying,uint256 optType) internal pure returns(uint256){\r\n        return tuple64.getTuple3(0,underlying,optType);\r\n    }\r\n    /**\r\n      * @notice retrieves implied volatility of an asset\r\n      * @dev function to get implied volatility for an asset\r\n      * @param expiration the option expiration which has been created in option manger contract\r\n      * @param price the option underlying strikePrice which has been created in option manger contract\r\n      * @return uint mantissa of asset implied volatility (scaled by 1e18) or zero if unset or contract paused\r\n      */\r\n    function calculateIv(uint32 underlying,uint8 optType,uint256 expiration,uint256 price)public view returns (uint256,uint256){\r\n        price = price/1e4;\r\n        uint256 saveKey = getKey(underlying,optType);\r\n        uint256[] memory buffer = ArraySave32.readAllBuffer(timeSaveMap,saveKey);\r\n        uint256 index = getTimeRange(buffer,expiration);\r\n        if (index == 0){\r\n            return (calculateTimeIv(underlying,optType,buffer,index,price),_calDecimal);\r\n        }\r\n        uint256 ivLow = calculateTimeIv(underlying,optType,buffer,index-1,price);\r\n        uint256 ivHigh = calculateTimeIv(underlying,optType,buffer,index,price);\r\n        int iv = insertValue(int256(ArraySave32.getValueFromBuffer(buffer,index*2-2)),int256(ArraySave32.getValueFromBuffer(buffer,index*2)),\r\n            int256(ivLow),int256(ivHigh),int256(expiration));\r\n        if (iv<=0){\r\n            return (1,_calDecimal);\r\n        }else{\r\n            return (uint256(iv),_calDecimal);\r\n        }\r\n    }\r\n    function getTimeRange(uint256[] memory buffer,uint256 expiration) internal pure returns(uint256){\r\n        uint256 Len = ArraySave32.getArrayLenFromBuffer(buffer)/2;\r\n        require (Len>=2,\"iv matrix time length is less than 2\");\r\n        for (uint256 i=0;i<Len;i++){\r\n            uint256 curTime = ArraySave32.getValueFromBuffer(buffer,i*2);\r\n            if (expiration<=curTime){\r\n                return i;\r\n            }\r\n        }\r\n        i--;\r\n        return i;\r\n    }\r\n    function calculateTimeIv(uint32 underlying,uint8 optType,uint256[] memory buffer,uint256 index,uint256 price)internal view returns (uint256){\r\n        uint256 saveKey = getKey(underlying,optType);\r\n        uint256 i = index;\r\n        if (index > 0){\r\n            i = ArraySave32.getValueFromBuffer(buffer,index*2-1);\r\n        }\r\n        uint256 end = ArraySave32.getValueFromBuffer(buffer,index*2+1);\r\n        require (end-i>=2,\"iv matrix price length is less than 2\");\r\n        for (;i<end;i++){\r\n            uint256 ivPrice = ArraySave32.getValue(IvMap,saveKey,i*2);\r\n            if (price<=ivPrice){\r\n                break;                \r\n            }\r\n        }\r\n        if (i == end){\r\n            i--;\r\n        }else if (i == index) {\r\n            i++;\r\n        }\r\n        uint256 highPrice = ArraySave32.getValue(IvMap,saveKey,i*2);\r\n        if (highPrice == price) {\r\n            return ArraySave32.getValue(IvMap,saveKey,i*2+1)*100;\r\n        }         \r\n        int iv = insertValue(int256(ArraySave32.getValue(IvMap,saveKey,i*2-2)),int256(highPrice),\r\n            int256(ArraySave32.getValue(IvMap,saveKey,i*2-1)),int256(ArraySave32.getValue(IvMap,saveKey,i*2+1)),int256(price));\r\n        if (iv<=0){\r\n            return 1;\r\n        }else{\r\n            return uint256(iv)*100;\r\n        }\r\n    }\r\n    function insertValue(int256 x0,int256 x1,int256 y0, int256 y1,int256 x)internal pure returns (int256){\r\n        require(x1 != x0,\"input values are duplicated!\");\r\n        return y0 + (y1-y0)*(x-x0)/(x1-x0);\r\n    }\r\n}\r\n",
  "sourcePath": "C:\\work\\solidity\\FinnexusOptions_V2\\contracts\\imVolatility32.sol",
  "compiler": {
    "name": "solc",
    "version": "0.4.26+commit.4563c3fc.Emscripten.clang"
  },
  "schemaVersion": "3.1.0",
  "updatedAt": "2020-07-29T14:43:43.288Z",
  "devdoc": {
    "methods": {
      "calculateIv(uint32,uint8,uint256,uint256)": {
        "details": "function to get implied volatility for an asset\r",
        "params": {
          "expiration": "the option expiration which has been created in option manger contract\r",
          "price": "the option underlying strikePrice which has been created in option manger contract\r"
        },
        "return": "uint mantissa of asset implied volatility (scaled by 1e18) or zero if unset or contract paused\r"
      },
      "isOwner()": {
        "details": "Returns true if the caller is the current owner."
      },
      "owner()": {
        "details": "Returns the address of the current owner."
      },
      "renounceOwnership()": {
        "details": "Leaves the contract without owner. It will not be possible to call `onlyOwner` functions anymore. Can only be called by the current owner.     * NOTE: Renouncing ownership will leave the contract without an owner, thereby removing any functionality that is only available to the owner."
      },
      "transferOwnership(address)": {
        "details": "Transfers ownership of the contract to a new account (`newOwner`). Can only be called by the current owner."
      }
    }
  },
  "userdoc": {
    "methods": {
      "calculateIv(uint32,uint8,uint256,uint256)": {
        "notice": "retrieves implied volatility of an asset\r"
      }
    }
  }
}