{
  "contractName": "imVolatilityTest",
  "abi": [
    {
      "constant": false,
      "inputs": [
        {
          "name": "underlying",
          "type": "uint32"
        },
        {
          "name": "put_timeArray",
          "type": "uint256[]"
        },
        {
          "name": "put_ivAry",
          "type": "uint256[]"
        },
        {
          "name": "call_timeArray",
          "type": "uint256[]"
        },
        {
          "name": "call_ivAry",
          "type": "uint256[]"
        }
      ],
      "name": "setIvMatrixAll",
      "outputs": [],
      "payable": false,
      "stateMutability": "nonpayable",
      "type": "function"
    },
    {
      "constant": false,
      "inputs": [
        {
          "name": "timeLimit",
          "type": "uint256"
        }
      ],
      "name": "setValidUntil",
      "outputs": [],
      "payable": false,
      "stateMutability": "nonpayable",
      "type": "function"
    },
    {
      "constant": false,
      "inputs": [],
      "name": "renounceOwnership",
      "outputs": [],
      "payable": false,
      "stateMutability": "nonpayable",
      "type": "function"
    },
    {
      "constant": true,
      "inputs": [],
      "name": "owner",
      "outputs": [
        {
          "name": "",
          "type": "address"
        }
      ],
      "payable": false,
      "stateMutability": "view",
      "type": "function"
    },
    {
      "constant": true,
      "inputs": [],
      "name": "isOwner",
      "outputs": [
        {
          "name": "",
          "type": "bool"
        }
      ],
      "payable": false,
      "stateMutability": "view",
      "type": "function"
    },
    {
      "constant": false,
      "inputs": [
        {
          "name": "addAddress",
          "type": "address"
        }
      ],
      "name": "addOperator",
      "outputs": [],
      "payable": false,
      "stateMutability": "nonpayable",
      "type": "function"
    },
    {
      "constant": false,
      "inputs": [
        {
          "name": "removeAddress",
          "type": "address"
        }
      ],
      "name": "removeOperator",
      "outputs": [
        {
          "name": "",
          "type": "bool"
        }
      ],
      "payable": false,
      "stateMutability": "nonpayable",
      "type": "function"
    },
    {
      "constant": true,
      "inputs": [
        {
          "name": "underlying",
          "type": "uint32"
        },
        {
          "name": "optType",
          "type": "uint8"
        },
        {
          "name": "expiration",
          "type": "uint256"
        },
        {
          "name": "price",
          "type": "uint256"
        }
      ],
      "name": "calculateIv",
      "outputs": [
        {
          "name": "",
          "type": "uint256"
        },
        {
          "name": "",
          "type": "uint256"
        }
      ],
      "payable": false,
      "stateMutability": "view",
      "type": "function"
    },
    {
      "constant": false,
      "inputs": [
        {
          "name": "index",
          "type": "uint256"
        },
        {
          "name": "addAddress",
          "type": "address"
        }
      ],
      "name": "setOperator",
      "outputs": [],
      "payable": false,
      "stateMutability": "nonpayable",
      "type": "function"
    },
    {
      "constant": true,
      "inputs": [],
      "name": "getOperator",
      "outputs": [
        {
          "name": "",
          "type": "address[]"
        }
      ],
      "payable": false,
      "stateMutability": "view",
      "type": "function"
    },
    {
      "constant": false,
      "inputs": [
        {
          "name": "underlying",
          "type": "uint32"
        },
        {
          "name": "optType",
          "type": "uint8"
        },
        {
          "name": "timeArray",
          "type": "uint256[]"
        },
        {
          "name": "ivAry",
          "type": "uint256[]"
        }
      ],
      "name": "setIvMatrix",
      "outputs": [],
      "payable": false,
      "stateMutability": "nonpayable",
      "type": "function"
    },
    {
      "constant": false,
      "inputs": [
        {
          "name": "newOwner",
          "type": "address"
        }
      ],
      "name": "transferOwnership",
      "outputs": [],
      "payable": false,
      "stateMutability": "nonpayable",
      "type": "function"
    },
    {
      "anonymous": false,
      "inputs": [
        {
          "indexed": true,
          "name": "previousOwner",
          "type": "address"
        },
        {
          "indexed": true,
          "name": "newOwner",
          "type": "address"
        }
      ],
      "name": "OwnershipTransferred",
      "type": "event"
    },
    {
      "constant": true,
      "inputs": [
        {
          "name": "underlying",
          "type": "uint32"
        },
        {
          "name": "optType",
          "type": "uint8"
        }
      ],
      "name": "getTimeMapLen",
      "outputs": [
        {
          "name": "",
          "type": "uint256"
        }
      ],
      "payable": false,
      "stateMutability": "view",
      "type": "function"
    },
    {
      "constant": true,
      "inputs": [
        {
          "name": "underlying",
          "type": "uint32"
        },
        {
          "name": "optType",
          "type": "uint8"
        }
      ],
      "name": "getTimeAllBufferLen",
      "outputs": [
        {
          "name": "",
          "type": "uint256"
        }
      ],
      "payable": false,
      "stateMutability": "view",
      "type": "function"
    },
    {
      "constant": true,
      "inputs": [
        {
          "name": "underlying",
          "type": "uint32"
        },
        {
          "name": "optType",
          "type": "uint8"
        }
      ],
      "name": "getTimeAllBuffer",
      "outputs": [
        {
          "name": "",
          "type": "uint256[]"
        }
      ],
      "payable": false,
      "stateMutability": "view",
      "type": "function"
    },
    {
      "constant": true,
      "inputs": [
        {
          "name": "buffer",
          "type": "uint256[]"
        },
        {
          "name": "index",
          "type": "uint256"
        }
      ],
      "name": "getValueFromBuffer",
      "outputs": [
        {
          "name": "",
          "type": "uint256"
        }
      ],
      "payable": false,
      "stateMutability": "pure",
      "type": "function"
    },
    {
      "constant": true,
      "inputs": [
        {
          "name": "underlying",
          "type": "uint32"
        },
        {
          "name": "optType",
          "type": "uint8"
        },
        {
          "name": "expiration",
          "type": "uint256"
        }
      ],
      "name": "getTimeRangeIndex",
      "outputs": [
        {
          "name": "",
          "type": "uint256"
        }
      ],
      "payable": false,
      "stateMutability": "view",
      "type": "function"
    }
  ],
  "bytecode": "0x608060408190526104b060025560008054600160a060020a0319163317808255600160a060020a0316917f8be0079c531659141344cd1fd0a4f28419497f9722a3daafe3b4186f6b6457e0908290a36115948061005d6000396000f3006080604052600436106100f05763ffffffff7c01000000000000000000000000000000000000000000000000000000006000350416630b82566881146100f557806316992ca7146102025780631e3047f7146102765780634fdeceab146102df578063634099cc146103035780636ad0260f1461031b578063715018a6146103425780638da5cb5b146103575780638f32d59b146103885780639870d7fe146103b1578063ac8a584a146103d2578063b4277bc1146103f3578063d741f61014610436578063e7a1c1c01461045a578063e7f43c681461047e578063ea4d053614610493578063f2fde38b14610533575b600080fd5b34801561010157600080fd5b5060408051602060046024803582810135848102808701860190975280865261020096843563ffffffff1696369660449591949091019291829185019084908082843750506040805187358901803560208181028481018201909552818452989b9a998901989297509082019550935083925085019084908082843750506040805187358901803560208181028481018201909552818452989b9a998901989297509082019550935083925085019084908082843750506040805187358901803560208181028481018201909552818452989b9a9989019892975090820195509350839250850190849080828437509497506105549650505050505050565b005b34801561020e57600080fd5b5061022663ffffffff6004351660ff60243516610629565b60408051602080825283518183015283519192839290830191858101910280838360005b8381101561026257818101518382015260200161024a565b505050509050019250505060405180910390f35b34801561028257600080fd5b50604080516020600480358082013583810280860185019096528085526102cd95369593946024949385019291829185019084908082843750949750509335945061065d9350505050565b60408051918252519081900360200190f35b3480156102eb57600080fd5b506102cd63ffffffff6004351660ff60243516610670565b34801561030f57600080fd5b5061020060043561069b565b34801561032757600080fd5b506102cd63ffffffff6004351660ff60243516604435610754565b34801561034e57600080fd5b5061020061078f565b34801561036357600080fd5b5061036c610832565b60408051600160a060020a039092168252519081900360200190f35b34801561039457600080fd5b5061039d610842565b604080519115158252519081900360200190f35b3480156103bd57600080fd5b50610200600160a060020a0360043516610853565b3480156103de57600080fd5b5061039d600160a060020a03600435166108ad565b3480156103ff57600080fd5b5061041d63ffffffff6004351660ff6024351660443560643561090e565b6040805192835260208301919091528051918290030190f35b34801561044257600080fd5b506102cd63ffffffff6004351660ff602435166109f2565b34801561046657600080fd5b50610200600435600160a060020a0360243516610a21565b34801561048a57600080fd5b50610226610aaf565b34801561049f57600080fd5b50604080516020600460443581810135838102808601850190965280855261020095833563ffffffff16956024803560ff1696369695606495939492019291829185019084908082843750506040805187358901803560208181028481018201909552818452989b9a998901989297509082019550935083925085019084908082843750949750610b119650505050505050565b34801561053f57600080fd5b50610200600160a060020a0360043516610c79565b6001546000908110801561058b5750600180543391908390811061057457fe5b600091825260209091200154600160a060020a0316145b1515610607576040805160e560020a62461bcd02815260206004820152603060248201527f4d616e6167657261626c653a2063616c6c6572206973206e6f7420746865206560448201527f6c696769626c65204f70657261746f7200000000000000000000000000000000606482015290519081900360840190fd5b6106148660018787610b11565b6106218660008585610b11565b505050505050565b6060600060606106428563ffffffff168560ff16610cce565b915061064f600483610cdc565b90508092505b505092915050565b60006106698383610cef565b9392505050565b6000806106868463ffffffff168460ff16610cce565b9050610693600482610d07565b949350505050565b600154600090811080156106d2575060018054339190839081106106bb57fe5b600091825260209091200154600160a060020a0316145b151561074e576040805160e560020a62461bcd02815260206004820152603060248201527f4d616e6167657261626c653a2063616c6c6572206973206e6f7420746865206560448201527f6c696769626c65204f70657261746f7200000000000000000000000000000000606482015290519081900360840190fd5b50600255565b600080606061076c8663ffffffff168660ff16610cce565b9150610779600483610cdc565b90506107858185610d1e565b9695505050505050565b610797610842565b15156107db576040805160e560020a62461bcd0281526020600482018190526024820152600080516020611549833981519152604482015290519081900360640190fd5b60008054604051600160a060020a03909116907f8be0079c531659141344cd1fd0a4f28419497f9722a3daafe3b4186f6b6457e0908390a36000805473ffffffffffffffffffffffffffffffffffffffff19169055565b600054600160a060020a03165b90565b600054600160a060020a0316331490565b61085b610842565b151561089f576040805160e560020a62461bcd0281526020600482018190526024820152600080516020611549833981519152604482015290519081900360640190fd5b6108aa600182610e03565b50565b60006108b7610842565b15156108fb576040805160e560020a62461bcd0281526020600482018190526024820152600080516020611549833981519152604482015290519081900360640190fd5b610906600183610ea9565b90505b919050565b611b58919091029061271090046000808060608180808061093863ffffffff8d1660ff8d16610cce565b9550610945600487610cdc565b9450610951858b610d1e565b9350831515610975576109678c8c87878d610f96565b6305f5e100975097506109e3565b6109858c8c87600188038d610f96565b92506109948c8c87878d610f96565b91506109be6109a98660028760020203610cef565b6109b68787600202610cef565b85858e611159565b9050600081136109d857600197506305f5e10096506109e3565b806305f5e100975097505b50505050505094509492505050565b6000806060610a0a8563ffffffff168560ff16610cce565b9150610a17600483610cdc565b5195945050505050565b610a29610842565b1515610a6d576040805160e560020a62461bcd0281526020600482018190526024820152600080516020611549833981519152604482015290519081900360640190fd5b80600183815481101515610a7d57fe5b9060005260206000200160006101000a815481600160a060020a030219169083600160a060020a031602179055505050565b60606001805480602002602001604051908101604052809291908181526020018280548015610b0757602002820191906000526020600020905b8154600160a060020a03168152600190910190602001808311610ae9575b5050505050905090565b60008060008080600180549050118015610b4e57506001805433919083908110610b3757fe5b600091825260209091200154600160a060020a0316145b1515610bca576040805160e560020a62461bcd02815260206004820152603060248201527f4d616e6167657261626c653a2063616c6c6572206973206e6f7420746865206560448201527f6c696769626c65204f70657261746f7200000000000000000000000000000000606482015290519081900360840190fd5b610bdd8863ffffffff168860ff16610cce565b935085519250600091505b82821015610c27578582815181101515610bfe57fe5b602090810290910181015185840160009081526004909252604090912055600190910190610be8565b84519250600091505b82821015610c6f578482815181101515610c4657fe5b602090810290910181015185840160009081526005909252604090912055600190910190610c30565b5050505050505050565b610c81610842565b1515610cc5576040805160e560020a62461bcd0281526020600482018190526024820152600080516020611549833981519152604482015290519081900360640190fd5b6108aa816111d4565b6000610669600084846112c2565b60606106698383600863ffffffff6112eb565b600061066983836001016008602063ffffffff6113d1565b6000610669838360006008602063ffffffff611422565b6000806000806002610d2f8761146f565b811515610d3857fe5b0492506002831015610db9576040805160e560020a62461bcd028152602060048201526024808201527f6976206d61747269782074696d65206c656e677468206973206c65737320746860448201527f616e203200000000000000000000000000000000000000000000000000000000606482015290519081900360840190fd5b600091505b82821015610def57610dd38683600202610cef565b9050808511610de457819350610dfa565b600190910190610dbe565b600019909101925082905b50505092915050565b610e6682805480602002602001604051908101604052809291908181526020018280548015610e5b57602002820191906000526020600020905b8154600160a060020a03168152600190910190602001808311610e3d575b505050505082611497565b1515610ea557815460018101835560008381526020902001805473ffffffffffffffffffffffffffffffffffffffff1916600160a060020a0383161790555b5050565b8154600090815b81811015610ef85783600160a060020a03168582815481101515610ed057fe5b600091825260209091200154600160a060020a03161415610ef057610ef8565b600101610eb0565b81811015610f8b5760001982018114610f71578460018303815481101515610f1c57fe5b6000918252602090912001548554600160a060020a0390911690869083908110610f4257fe5b9060005260206000200160006101000a815481600160a060020a030219169083600160a060020a031602179055505b8454610f81866000198301611501565b5060019250610655565b506000949350505050565b6000806000806000806000610fb48c63ffffffff168c60ff16610cce565b95508894506000891115610fd557610fd28a60018b60020203610cef565b94505b610fe58a8a600202600101610cef565b935060028585031015611068576040805160e560020a62461bcd02815260206004820152602560248201527f6976206d6174726978207072696365206c656e677468206973206c657373207460448201527f68616e2032000000000000000000000000000000000000000000000000000000606482015290519081900360840190fd5b838510156110985761107f600587876002026114e8565b925082881161108d57611098565b600190940193611068565b838514156110ac57600019909401936110bb565b888514156110bb576001909401935b6110ca600587876002026114e8565b9150878214156110f0576110e6600587876002026001016114e8565b606402965061114a565b611130611105600588600289600202036114e8565b8361111860058a60018b600202036114e8565b61112a60058b8b6002026001016114e8565b8c611159565b905060008113611143576001965061114a565b8060640296505b50505050505095945050505050565b6000848614156111b3576040805160e560020a62461bcd02815260206004820152601c60248201527f696e7075742076616c75657320617265206475706c6963617465642100000000604482015290519081900360640190fd5b858503868303858503028115156111c657fe5b058401905095945050505050565b600160a060020a038116151561125a576040805160e560020a62461bcd02815260206004820152602660248201527f4f776e61626c653a206e6577206f776e657220697320746865207a65726f206160448201527f6464726573730000000000000000000000000000000000000000000000000000606482015290519081900360840190fd5b60008054604051600160a060020a03808516939216917f8be0079c531659141344cd1fd0a4f28419497f9722a3daafe3b4186f6b6457e091a36000805473ffffffffffffffffffffffffffffffffffffffff1916600160a060020a0392909216919091179055565b700100000000000000000000000000000000026801000000000000000091909102919091010190565b60008381526020859052604081205460609183821690838183151561130f576113c4565b878460010181151561131d57fe5b049250878460010181151561132e57fe5b061561133b576001909201915b82604051908082528060200260200182016040528015611365578160200160208202803883390190505b5091508482600081518110151561137857fe5b602090810290910101525060015b828110156113c057888101600090815260208b9052604090205482518390839081106113ae57fe5b60209081029091010152600101611386565b8195505b5050505050949350505050565b600080600085878115156113e157fe5b0491508486888115156113f057fe5b060290508381898481518110151561140457fe5b906020019060200201519060020a9004169250505095945050505050565b600080600080868881151561143357fe5b04898101600090815260208c90526040902054909350915085878981151561145757fe5b060260020a9091049390931698975050505050505050565b600081516000141561148357506000610909565b6109068260006008602063ffffffff6113d1565b8151600090815b81811015610f8b5783600160a060020a031685828151811015156114be57fe5b90602001906020020151600160a060020a031614156114e05760019250610655565b60010161149e565b60006106938484846001016008602063ffffffff611422565b8154818355818111156115255760008381526020902061152591810190830161152a565b505050565b61083f91905b808211156115445760008155600101611530565b509056004f776e61626c653a2063616c6c6572206973206e6f7420746865206f776e6572a165627a7a72305820758f72e2e21552b900787b30057711d70b277a351dca812ab5ccb62a703ad3690029",
  "source": "pragma solidity ^0.4.26;\r\nimport \"../imVolatility32.sol\";\r\ncontract imVolatilityTest is imVolatility32 {\r\n    function getTimeMapLen(uint32 underlying,uint8 optType)public view returns(uint256){\r\n        uint256 saveKey = getKey(underlying,optType);\r\n        return ArraySave32.getArrayLen(timeSaveMap,saveKey);\r\n    }\r\n    function getTimeAllBufferLen(uint32 underlying,uint8 optType)public view returns(uint256){\r\n        uint256 saveKey = getKey(underlying,optType);\r\n        uint256[] memory buffer = ArraySave32.readAllBuffer(timeSaveMap,saveKey);\r\n        return buffer.length;\r\n    }\r\n    function getTimeAllBuffer(uint32 underlying,uint8 optType)public view returns(uint256[]){\r\n        uint256 saveKey = getKey(underlying,optType);\r\n        uint256[] memory buffer = ArraySave32.readAllBuffer(timeSaveMap,saveKey);\r\n        return buffer;\r\n    }\r\n    function getValueFromBuffer(uint256[] buffer,uint256 index)public pure returns(uint256){\r\n        return ArraySave32.getValueFromBuffer(buffer,index);\r\n    }\r\n    function getTimeRangeIndex(uint32 underlying,uint8 optType,uint256 expiration)public view returns(uint256){\r\n        uint256 saveKey = getKey(underlying,optType);\r\n        uint256[] memory buffer = ArraySave32.readAllBuffer(timeSaveMap,saveKey);\r\n        return getTimeRange(buffer,expiration);\r\n    }\r\n}",
  "sourcePath": "C:\\work\\solidity\\FinnexusOptions_V2\\contracts\\test\\imVolatilityTest.sol",
  "compiler": {
    "name": "solc",
    "version": "0.4.26+commit.4563c3fc.Emscripten.clang"
  },
  "schemaVersion": "3.1.0",
  "updatedAt": "2020-08-05T06:53:16.357Z",
  "devdoc": {
    "methods": {
      "calculateIv(uint32,uint8,uint256,uint256)": {
        "details": "function to get implied volatility for an asset\r",
        "params": {
          "expiration": "the option expiration which has been created in option manger contract\r",
          "price": "the option underlying strikePrice which has been created in option manger contract\r"
        },
        "return": "uint mantissa of asset implied volatility (scaled by 1e18) or zero if unset or contract paused\r"
      },
      "isOwner()": {
        "details": "Returns true if the caller is the current owner."
      },
      "owner()": {
        "details": "Returns the address of the current owner."
      },
      "renounceOwnership()": {
        "details": "Leaves the contract without owner. It will not be possible to call `onlyOwner` functions anymore. Can only be called by the current owner.     * NOTE: Renouncing ownership will leave the contract without an owner, thereby removing any functionality that is only available to the owner."
      },
      "transferOwnership(address)": {
        "details": "Transfers ownership of the contract to a new account (`newOwner`). Can only be called by the current owner."
      }
    }
  },
  "userdoc": {
    "methods": {
      "calculateIv(uint32,uint8,uint256,uint256)": {
        "notice": "retrieves implied volatility of an asset\r"
      }
    }
  }
}