{
  "contractName": "imVolatilityTest",
  "abi": [
    {
      "constant": false,
      "inputs": [
        {
          "name": "underlying",
          "type": "uint32"
        },
        {
          "name": "put_timeArray",
          "type": "uint256[]"
        },
        {
          "name": "put_ivAry",
          "type": "uint256[]"
        },
        {
          "name": "call_timeArray",
          "type": "uint256[]"
        },
        {
          "name": "call_ivAry",
          "type": "uint256[]"
        }
      ],
      "name": "setIvMatrixAll",
      "outputs": [],
      "payable": false,
      "stateMutability": "nonpayable",
      "type": "function"
    },
    {
      "constant": true,
      "inputs": [],
      "name": "ValidUntil",
      "outputs": [
        {
          "name": "",
          "type": "uint256"
        }
      ],
      "payable": false,
      "stateMutability": "view",
      "type": "function"
    },
    {
      "constant": true,
      "inputs": [],
      "name": "inptutTime",
      "outputs": [
        {
          "name": "",
          "type": "uint256"
        }
      ],
      "payable": false,
      "stateMutability": "view",
      "type": "function"
    },
    {
      "constant": false,
      "inputs": [
        {
          "name": "timeLimit",
          "type": "uint256"
        }
      ],
      "name": "setValidUntil",
      "outputs": [],
      "payable": false,
      "stateMutability": "nonpayable",
      "type": "function"
    },
    {
      "constant": false,
      "inputs": [],
      "name": "renounceOwnership",
      "outputs": [],
      "payable": false,
      "stateMutability": "nonpayable",
      "type": "function"
    },
    {
      "constant": true,
      "inputs": [],
      "name": "owner",
      "outputs": [
        {
          "name": "",
          "type": "address"
        }
      ],
      "payable": false,
      "stateMutability": "view",
      "type": "function"
    },
    {
      "constant": true,
      "inputs": [],
      "name": "isOwner",
      "outputs": [
        {
          "name": "",
          "type": "bool"
        }
      ],
      "payable": false,
      "stateMutability": "view",
      "type": "function"
    },
    {
      "constant": false,
      "inputs": [
        {
          "name": "addAddress",
          "type": "address"
        }
      ],
      "name": "addOperator",
      "outputs": [],
      "payable": false,
      "stateMutability": "nonpayable",
      "type": "function"
    },
    {
      "constant": false,
      "inputs": [
        {
          "name": "removeAddress",
          "type": "address"
        }
      ],
      "name": "removeOperator",
      "outputs": [
        {
          "name": "",
          "type": "bool"
        }
      ],
      "payable": false,
      "stateMutability": "nonpayable",
      "type": "function"
    },
    {
      "constant": true,
      "inputs": [
        {
          "name": "underlying",
          "type": "uint32"
        },
        {
          "name": "optType",
          "type": "uint8"
        },
        {
          "name": "expiration",
          "type": "uint256"
        },
        {
          "name": "price",
          "type": "uint256"
        }
      ],
      "name": "calculateIv",
      "outputs": [
        {
          "name": "",
          "type": "uint256"
        },
        {
          "name": "",
          "type": "uint256"
        }
      ],
      "payable": false,
      "stateMutability": "view",
      "type": "function"
    },
    {
      "constant": false,
      "inputs": [
        {
          "name": "index",
          "type": "uint256"
        },
        {
          "name": "addAddress",
          "type": "address"
        }
      ],
      "name": "setOperator",
      "outputs": [],
      "payable": false,
      "stateMutability": "nonpayable",
      "type": "function"
    },
    {
      "constant": true,
      "inputs": [],
      "name": "getOperator",
      "outputs": [
        {
          "name": "",
          "type": "address[]"
        }
      ],
      "payable": false,
      "stateMutability": "view",
      "type": "function"
    },
    {
      "constant": false,
      "inputs": [
        {
          "name": "underlying",
          "type": "uint32"
        },
        {
          "name": "optType",
          "type": "uint8"
        },
        {
          "name": "timeArray",
          "type": "uint256[]"
        },
        {
          "name": "ivAry",
          "type": "uint256[]"
        }
      ],
      "name": "setIvMatrix",
      "outputs": [],
      "payable": false,
      "stateMutability": "nonpayable",
      "type": "function"
    },
    {
      "constant": false,
      "inputs": [
        {
          "name": "newOwner",
          "type": "address"
        }
      ],
      "name": "transferOwnership",
      "outputs": [],
      "payable": false,
      "stateMutability": "nonpayable",
      "type": "function"
    },
    {
      "anonymous": false,
      "inputs": [
        {
          "indexed": true,
          "name": "previousOwner",
          "type": "address"
        },
        {
          "indexed": true,
          "name": "newOwner",
          "type": "address"
        }
      ],
      "name": "OwnershipTransferred",
      "type": "event"
    },
    {
      "constant": true,
      "inputs": [
        {
          "name": "underlying",
          "type": "uint32"
        },
        {
          "name": "optType",
          "type": "uint8"
        }
      ],
      "name": "getTimeMapLen",
      "outputs": [
        {
          "name": "",
          "type": "uint256"
        }
      ],
      "payable": false,
      "stateMutability": "view",
      "type": "function"
    },
    {
      "constant": true,
      "inputs": [
        {
          "name": "underlying",
          "type": "uint32"
        },
        {
          "name": "optType",
          "type": "uint8"
        }
      ],
      "name": "getTimeAllBufferLen",
      "outputs": [
        {
          "name": "",
          "type": "uint256"
        }
      ],
      "payable": false,
      "stateMutability": "view",
      "type": "function"
    },
    {
      "constant": true,
      "inputs": [
        {
          "name": "underlying",
          "type": "uint32"
        },
        {
          "name": "optType",
          "type": "uint8"
        }
      ],
      "name": "getTimeAllBuffer",
      "outputs": [
        {
          "name": "",
          "type": "uint256[]"
        }
      ],
      "payable": false,
      "stateMutability": "view",
      "type": "function"
    },
    {
      "constant": true,
      "inputs": [
        {
          "name": "buffer",
          "type": "uint256[]"
        },
        {
          "name": "index",
          "type": "uint256"
        }
      ],
      "name": "getValueFromBuffer",
      "outputs": [
        {
          "name": "",
          "type": "uint256"
        }
      ],
      "payable": false,
      "stateMutability": "pure",
      "type": "function"
    },
    {
      "constant": true,
      "inputs": [
        {
          "name": "underlying",
          "type": "uint32"
        },
        {
          "name": "optType",
          "type": "uint8"
        },
        {
          "name": "expiration",
          "type": "uint256"
        }
      ],
      "name": "getTimeRangeIndex",
      "outputs": [
        {
          "name": "",
          "type": "uint256"
        }
      ],
      "payable": false,
      "stateMutability": "view",
      "type": "function"
    }
  ],
  "bytecode": "0x608060408190526104b060025560008054600160a060020a0319163317808255600160a060020a0316917f8be0079c531659141344cd1fd0a4f28419497f9722a3daafe3b4186f6b6457e0908290a36115e08061005d6000396000f3006080604052600436106101065763ffffffff7c01000000000000000000000000000000000000000000000000000000006000350416630b825668811461010b57806316992ca7146102185780631e3047f71461028c5780634af5b1e2146102f55780634fdeceab1461030a57806352ca59fa1461032e578063634099cc146103435780636ad0260f1461035b578063715018a6146103825780638da5cb5b146103975780638f32d59b146103c85780639870d7fe146103f1578063ac8a584a14610412578063b4277bc114610433578063d741f61014610476578063e7a1c1c01461049a578063e7f43c68146104be578063ea4d0536146104d3578063f2fde38b14610573575b600080fd5b34801561011757600080fd5b5060408051602060046024803582810135848102808701860190975280865261021696843563ffffffff1696369660449591949091019291829185019084908082843750506040805187358901803560208181028481018201909552818452989b9a998901989297509082019550935083925085019084908082843750506040805187358901803560208181028481018201909552818452989b9a998901989297509082019550935083925085019084908082843750506040805187358901803560208181028481018201909552818452989b9a9989019892975090820195509350839250850190849080828437509497506105949650505050505050565b005b34801561022457600080fd5b5061023c63ffffffff6004351660ff60243516610669565b60408051602080825283518183015283519192839290830191858101910280838360005b83811015610278578181015183820152602001610260565b505050509050019250505060405180910390f35b34801561029857600080fd5b50604080516020600480358082013583810280860185019096528085526102e395369593946024949385019291829185019084908082843750949750509335945061069d9350505050565b60408051918252519081900360200190f35b34801561030157600080fd5b506102e36106b0565b34801561031657600080fd5b506102e363ffffffff6004351660ff602435166106b6565b34801561033a57600080fd5b506102e36106e1565b34801561034f57600080fd5b506102166004356106e7565b34801561036757600080fd5b506102e363ffffffff6004351660ff602435166044356107a0565b34801561038e57600080fd5b506102166107db565b3480156103a357600080fd5b506103ac61087e565b60408051600160a060020a039092168252519081900360200190f35b3480156103d457600080fd5b506103dd61088e565b604080519115158252519081900360200190f35b3480156103fd57600080fd5b50610216600160a060020a036004351661089f565b34801561041e57600080fd5b506103dd600160a060020a03600435166108f9565b34801561043f57600080fd5b5061045d63ffffffff6004351660ff6024351660443560643561095a565b6040805192835260208301919091528051918290030190f35b34801561048257600080fd5b506102e363ffffffff6004351660ff60243516610a3e565b3480156104a657600080fd5b50610216600435600160a060020a0360243516610a6d565b3480156104ca57600080fd5b5061023c610afb565b3480156104df57600080fd5b50604080516020600460443581810135838102808601850190965280855261021695833563ffffffff16956024803560ff1696369695606495939492019291829185019084908082843750506040805187358901803560208181028481018201909552818452989b9a998901989297509082019550935083925085019084908082843750949750610b5d9650505050505050565b34801561057f57600080fd5b50610216600160a060020a0360043516610cc5565b600154600090811080156105cb575060018054339190839081106105b457fe5b600091825260209091200154600160a060020a0316145b1515610647576040805160e560020a62461bcd02815260206004820152603060248201527f4d616e6167657261626c653a2063616c6c6572206973206e6f7420746865206560448201527f6c696769626c65204f70657261746f7200000000000000000000000000000000606482015290519081900360840190fd5b6106548660018787610b5d565b6106618660008585610b5d565b505050505050565b6060600060606106828563ffffffff168560ff16610d1a565b915061068f600483610d28565b90508092505b505092915050565b60006106a98383610d3b565b9392505050565b60025481565b6000806106cc8463ffffffff168460ff16610d1a565b90506106d9600482610d53565b949350505050565b60035481565b6001546000908110801561071e5750600180543391908390811061070757fe5b600091825260209091200154600160a060020a0316145b151561079a576040805160e560020a62461bcd02815260206004820152603060248201527f4d616e6167657261626c653a2063616c6c6572206973206e6f7420746865206560448201527f6c696769626c65204f70657261746f7200000000000000000000000000000000606482015290519081900360840190fd5b50600255565b60008060606107b88663ffffffff168660ff16610d1a565b91506107c5600483610d28565b90506107d18185610d6a565b9695505050505050565b6107e361088e565b1515610827576040805160e560020a62461bcd0281526020600482018190526024820152600080516020611595833981519152604482015290519081900360640190fd5b60008054604051600160a060020a03909116907f8be0079c531659141344cd1fd0a4f28419497f9722a3daafe3b4186f6b6457e0908390a36000805473ffffffffffffffffffffffffffffffffffffffff19169055565b600054600160a060020a03165b90565b600054600160a060020a0316331490565b6108a761088e565b15156108eb576040805160e560020a62461bcd0281526020600482018190526024820152600080516020611595833981519152604482015290519081900360640190fd5b6108f6600182610e4f565b50565b600061090361088e565b1515610947576040805160e560020a62461bcd0281526020600482018190526024820152600080516020611595833981519152604482015290519081900360640190fd5b610952600183610ef5565b90505b919050565b611b58919091029061271090046000808060608180808061098463ffffffff8d1660ff8d16610d1a565b9550610991600487610d28565b945061099d858b610d6a565b93508315156109c1576109b38c8c87878d610fe2565b6305f5e10097509750610a2f565b6109d18c8c87600188038d610fe2565b92506109e08c8c87878d610fe2565b9150610a0a6109f58660028760020203610d3b565b610a028787600202610d3b565b85858e6111a5565b905060008113610a2457600197506305f5e1009650610a2f565b806305f5e100975097505b50505050505094509492505050565b6000806060610a568563ffffffff168560ff16610d1a565b9150610a63600483610d28565b5195945050505050565b610a7561088e565b1515610ab9576040805160e560020a62461bcd0281526020600482018190526024820152600080516020611595833981519152604482015290519081900360640190fd5b80600183815481101515610ac957fe5b9060005260206000200160006101000a815481600160a060020a030219169083600160a060020a031602179055505050565b60606001805480602002602001604051908101604052809291908181526020018280548015610b5357602002820191906000526020600020905b8154600160a060020a03168152600190910190602001808311610b35575b5050505050905090565b60008060008080600180549050118015610b9a57506001805433919083908110610b8357fe5b600091825260209091200154600160a060020a0316145b1515610c16576040805160e560020a62461bcd02815260206004820152603060248201527f4d616e6167657261626c653a2063616c6c6572206973206e6f7420746865206560448201527f6c696769626c65204f70657261746f7200000000000000000000000000000000606482015290519081900360840190fd5b610c298863ffffffff168860ff16610d1a565b935085519250600091505b82821015610c73578582815181101515610c4a57fe5b602090810290910181015185840160009081526004909252604090912055600190910190610c34565b84519250600091505b82821015610cbb578482815181101515610c9257fe5b602090810290910181015185840160009081526005909252604090912055600190910190610c7c565b5050505050505050565b610ccd61088e565b1515610d11576040805160e560020a62461bcd0281526020600482018190526024820152600080516020611595833981519152604482015290519081900360640190fd5b6108f681611220565b60006106a96000848461130e565b60606106a98383600863ffffffff611337565b60006106a983836001016008602063ffffffff61141d565b60006106a9838360006008602063ffffffff61146e565b6000806000806002610d7b876114bb565b811515610d8457fe5b0492506002831015610e05576040805160e560020a62461bcd028152602060048201526024808201527f6976206d61747269782074696d65206c656e677468206973206c65737320746860448201527f616e203200000000000000000000000000000000000000000000000000000000606482015290519081900360840190fd5b600091505b82821015610e3b57610e1f8683600202610d3b565b9050808511610e3057819350610e46565b600190910190610e0a565b600019909101925082905b50505092915050565b610eb282805480602002602001604051908101604052809291908181526020018280548015610ea757602002820191906000526020600020905b8154600160a060020a03168152600190910190602001808311610e89575b5050505050826114e3565b1515610ef157815460018101835560008381526020902001805473ffffffffffffffffffffffffffffffffffffffff1916600160a060020a0383161790555b5050565b8154600090815b81811015610f445783600160a060020a03168582815481101515610f1c57fe5b600091825260209091200154600160a060020a03161415610f3c57610f44565b600101610efc565b81811015610fd75760001982018114610fbd578460018303815481101515610f6857fe5b6000918252602090912001548554600160a060020a0390911690869083908110610f8e57fe5b9060005260206000200160006101000a815481600160a060020a030219169083600160a060020a031602179055505b8454610fcd86600019830161154d565b5060019250610695565b506000949350505050565b60008060008060008060006110008c63ffffffff168c60ff16610d1a565b955088945060008911156110215761101e8a60018b60020203610d3b565b94505b6110318a8a600202600101610d3b565b9350600285850310156110b4576040805160e560020a62461bcd02815260206004820152602560248201527f6976206d6174726978207072696365206c656e677468206973206c657373207460448201527f68616e2032000000000000000000000000000000000000000000000000000000606482015290519081900360840190fd5b838510156110e4576110cb60058787600202611534565b92508288116110d9576110e4565b6001909401936110b4565b838514156110f85760001990940193611107565b88851415611107576001909401935b61111660058787600202611534565b91508782141561113c5761113260058787600202600101611534565b6064029650611196565b61117c61115160058860028960020203611534565b8361116460058a60018b60020203611534565b61117660058b8b600202600101611534565b8c6111a5565b90506000811361118f5760019650611196565b8060640296505b50505050505095945050505050565b6000848614156111ff576040805160e560020a62461bcd02815260206004820152601c60248201527f696e7075742076616c75657320617265206475706c6963617465642100000000604482015290519081900360640190fd5b8585038683038585030281151561121257fe5b058401905095945050505050565b600160a060020a03811615156112a6576040805160e560020a62461bcd02815260206004820152602660248201527f4f776e61626c653a206e6577206f776e657220697320746865207a65726f206160448201527f6464726573730000000000000000000000000000000000000000000000000000606482015290519081900360840190fd5b60008054604051600160a060020a03808516939216917f8be0079c531659141344cd1fd0a4f28419497f9722a3daafe3b4186f6b6457e091a36000805473ffffffffffffffffffffffffffffffffffffffff1916600160a060020a0392909216919091179055565b700100000000000000000000000000000000026801000000000000000091909102919091010190565b60008381526020859052604081205460609183821690838183151561135b57611410565b878460010181151561136957fe5b049250878460010181151561137a57fe5b0615611387576001909201915b826040519080825280602002602001820160405280156113b1578160200160208202803883390190505b509150848260008151811015156113c457fe5b602090810290910101525060015b8281101561140c57888101600090815260208b9052604090205482518390839081106113fa57fe5b602090810290910101526001016113d2565b8195505b5050505050949350505050565b6000806000858781151561142d57fe5b04915084868881151561143c57fe5b060290508381898481518110151561145057fe5b906020019060200201519060020a9004169250505095945050505050565b600080600080868881151561147f57fe5b04898101600090815260208c9052604090205490935091508587898115156114a357fe5b060260020a9091049390931698975050505050505050565b60008151600014156114cf57506000610955565b6109528260006008602063ffffffff61141d565b8151600090815b81811015610fd75783600160a060020a0316858281518110151561150a57fe5b90602001906020020151600160a060020a0316141561152c5760019250610695565b6001016114ea565b60006106d98484846001016008602063ffffffff61146e565b81548183558181111561157157600083815260209020611571918101908301611576565b505050565b61088b91905b80821115611590576000815560010161157c565b509056004f776e61626c653a2063616c6c6572206973206e6f7420746865206f776e6572a165627a7a723058203f085ed163f66d763cff3060b5cb62f4ec87acdba6ccdff7df957da4ec1e1a180029",
  "source": "pragma solidity ^0.4.26;\r\nimport \"../imVolatility32.sol\";\r\ncontract imVolatilityTest is imVolatility32 {\r\n    function getTimeMapLen(uint32 underlying,uint8 optType)public view returns(uint256){\r\n        uint256 saveKey = getKey(underlying,optType);\r\n        return ArraySave32.getArrayLen(timeSaveMap,saveKey);\r\n    }\r\n    function getTimeAllBufferLen(uint32 underlying,uint8 optType)public view returns(uint256){\r\n        uint256 saveKey = getKey(underlying,optType);\r\n        uint256[] memory buffer = ArraySave32.readAllBuffer(timeSaveMap,saveKey);\r\n        return buffer.length;\r\n    }\r\n    function getTimeAllBuffer(uint32 underlying,uint8 optType)public view returns(uint256[]){\r\n        uint256 saveKey = getKey(underlying,optType);\r\n        uint256[] memory buffer = ArraySave32.readAllBuffer(timeSaveMap,saveKey);\r\n        return buffer;\r\n    }\r\n    function getValueFromBuffer(uint256[] buffer,uint256 index)public pure returns(uint256){\r\n        return ArraySave32.getValueFromBuffer(buffer,index);\r\n    }\r\n    function getTimeRangeIndex(uint32 underlying,uint8 optType,uint256 expiration)public view returns(uint256){\r\n        uint256 saveKey = getKey(underlying,optType);\r\n        uint256[] memory buffer = ArraySave32.readAllBuffer(timeSaveMap,saveKey);\r\n        return getTimeRange(buffer,expiration);\r\n    }\r\n}",
  "sourcePath": "C:\\work\\solidity\\FinnexusOptions_V2\\contracts\\test\\imVolatilityTest.sol",
  "compiler": {
    "name": "solc",
    "version": "0.4.26+commit.4563c3fc.Emscripten.clang"
  },
  "schemaVersion": "3.1.0",
  "updatedAt": "2020-08-03T07:47:17.107Z",
  "devdoc": {
    "methods": {
      "calculateIv(uint32,uint8,uint256,uint256)": {
        "details": "function to get implied volatility for an asset\r",
        "params": {
          "expiration": "the option expiration which has been created in option manger contract\r",
          "price": "the option underlying strikePrice which has been created in option manger contract\r"
        },
        "return": "uint mantissa of asset implied volatility (scaled by 1e18) or zero if unset or contract paused\r"
      },
      "isOwner()": {
        "details": "Returns true if the caller is the current owner."
      },
      "owner()": {
        "details": "Returns the address of the current owner."
      },
      "renounceOwnership()": {
        "details": "Leaves the contract without owner. It will not be possible to call `onlyOwner` functions anymore. Can only be called by the current owner.     * NOTE: Renouncing ownership will leave the contract without an owner, thereby removing any functionality that is only available to the owner."
      },
      "transferOwnership(address)": {
        "details": "Transfers ownership of the contract to a new account (`newOwner`). Can only be called by the current owner."
      }
    }
  },
  "userdoc": {
    "methods": {
      "calculateIv(uint32,uint8,uint256,uint256)": {
        "notice": "retrieves implied volatility of an asset\r"
      }
    }
  }
}