{
  "contractName": "imVolatility64",
  "abi": [
    {
      "constant": false,
      "inputs": [],
      "name": "renounceOwnership",
      "outputs": [],
      "payable": false,
      "stateMutability": "nonpayable",
      "type": "function"
    },
    {
      "constant": true,
      "inputs": [],
      "name": "owner",
      "outputs": [
        {
          "name": "",
          "type": "address"
        }
      ],
      "payable": false,
      "stateMutability": "view",
      "type": "function"
    },
    {
      "constant": true,
      "inputs": [],
      "name": "isOwner",
      "outputs": [
        {
          "name": "",
          "type": "bool"
        }
      ],
      "payable": false,
      "stateMutability": "view",
      "type": "function"
    },
    {
      "constant": false,
      "inputs": [
        {
          "name": "addAddress",
          "type": "address"
        }
      ],
      "name": "addOperator",
      "outputs": [],
      "payable": false,
      "stateMutability": "nonpayable",
      "type": "function"
    },
    {
      "constant": false,
      "inputs": [
        {
          "name": "removeAddress",
          "type": "address"
        }
      ],
      "name": "removeOperator",
      "outputs": [
        {
          "name": "",
          "type": "bool"
        }
      ],
      "payable": false,
      "stateMutability": "nonpayable",
      "type": "function"
    },
    {
      "constant": false,
      "inputs": [
        {
          "name": "index",
          "type": "uint256"
        },
        {
          "name": "addAddress",
          "type": "address"
        }
      ],
      "name": "setOperator",
      "outputs": [],
      "payable": false,
      "stateMutability": "nonpayable",
      "type": "function"
    },
    {
      "constant": true,
      "inputs": [],
      "name": "getOperator",
      "outputs": [
        {
          "name": "",
          "type": "address[]"
        }
      ],
      "payable": false,
      "stateMutability": "view",
      "type": "function"
    },
    {
      "constant": false,
      "inputs": [
        {
          "name": "newOwner",
          "type": "address"
        }
      ],
      "name": "transferOwnership",
      "outputs": [],
      "payable": false,
      "stateMutability": "nonpayable",
      "type": "function"
    },
    {
      "anonymous": false,
      "inputs": [
        {
          "indexed": true,
          "name": "previousOwner",
          "type": "address"
        },
        {
          "indexed": true,
          "name": "newOwner",
          "type": "address"
        }
      ],
      "name": "OwnershipTransferred",
      "type": "event"
    },
    {
      "constant": false,
      "inputs": [
        {
          "name": "timeLimit",
          "type": "uint256"
        }
      ],
      "name": "setValidUntil",
      "outputs": [],
      "payable": false,
      "stateMutability": "nonpayable",
      "type": "function"
    },
    {
      "constant": false,
      "inputs": [
        {
          "name": "underlying",
          "type": "uint32"
        },
        {
          "name": "optType",
          "type": "uint8"
        },
        {
          "name": "timeArray",
          "type": "uint256[]"
        },
        {
          "name": "ivAry",
          "type": "uint256[]"
        }
      ],
      "name": "setIvMatrix",
      "outputs": [],
      "payable": false,
      "stateMutability": "nonpayable",
      "type": "function"
    },
    {
      "constant": true,
      "inputs": [
        {
          "name": "underlying",
          "type": "uint32"
        },
        {
          "name": "optType",
          "type": "uint8"
        },
        {
          "name": "expiration",
          "type": "uint256"
        },
        {
          "name": "price",
          "type": "uint256"
        }
      ],
      "name": "calculateIv",
      "outputs": [
        {
          "name": "",
          "type": "uint256"
        },
        {
          "name": "",
          "type": "uint256"
        }
      ],
      "payable": false,
      "stateMutability": "view",
      "type": "function"
    }
  ],
  "bytecode": "0x608060408190526104b060025560008054600160a060020a0319163317808255600160a060020a0316917f8be0079c531659141344cd1fd0a4f28419497f9722a3daafe3b4186f6b6457e0908290a3610f658061005d6000396000f3006080604052600436106100ae5763ffffffff7c0100000000000000000000000000000000000000000000000000000000600035041663634099cc81146100b3578063715018a6146100cd5780638da5cb5b146100e25780638f32d59b146101135780639870d7fe1461013c578063ac8a584a1461015d578063b4277bc11461017e578063e7a1c1c0146101c1578063e7f43c68146101e5578063ea4d05361461024a578063f2fde38b146102ea575b600080fd5b3480156100bf57600080fd5b506100cb60043561030b565b005b3480156100d957600080fd5b506100cb61035c565b3480156100ee57600080fd5b506100f76103ff565b60408051600160a060020a039092168252519081900360200190f35b34801561011f57600080fd5b5061012861040f565b604080519115158252519081900360200190f35b34801561014857600080fd5b506100cb600160a060020a0360043516610420565b34801561016957600080fd5b50610128600160a060020a036004351661047a565b34801561018a57600080fd5b506101a863ffffffff6004351660ff602435166044356064356104db565b6040805192835260208301919091528051918290030190f35b3480156101cd57600080fd5b506100cb600435600160a060020a03602435166105b5565b3480156101f157600080fd5b506101fa610643565b60408051602080825283518183015283519192839290830191858101910280838360005b8381101561023657818101518382015260200161021e565b505050509050019250505060405180910390f35b34801561025657600080fd5b5060408051602060046044358181013583810280860185019096528085526100cb95833563ffffffff16956024803560ff1696369695606495939492019291829185019084908082843750506040805187358901803560208181028481018201909552818452989b9a9989019892975090820195509350839250850190849080828437509497506106a59650505050505050565b3480156102f657600080fd5b506100cb600160a060020a0360043516610750565b61031361040f565b1515610357576040805160e560020a62461bcd0281526020600482018190526024820152600080516020610f1a833981519152604482015290519081900360640190fd5b600255565b61036461040f565b15156103a8576040805160e560020a62461bcd0281526020600482018190526024820152600080516020610f1a833981519152604482015290519081900360640190fd5b60008054604051600160a060020a03909116907f8be0079c531659141344cd1fd0a4f28419497f9722a3daafe3b4186f6b6457e0908390a36000805473ffffffffffffffffffffffffffffffffffffffff19169055565b600054600160a060020a03165b90565b600054600160a060020a0316331490565b61042861040f565b151561046c576040805160e560020a62461bcd0281526020600482018190526024820152600080516020610f1a833981519152604482015290519081900360640190fd5b6104776001826107a5565b50565b600061048461040f565b15156104c8576040805160e560020a62461bcd0281526020600482018190526024820152600080516020610f1a833981519152604482015290519081900360640190fd5b6104d360018361084b565b90505b919050565b600080600060606000806000806104fb8c63ffffffff168c60ff1661093a565b955061050860048761094f565b9450610514858b610962565b93508315156105385761052a8c8c87878d6109c9565b6305f5e100975097506105a6565b6105488c8c87600188038d6109c9565b92506105578c8c87878d6109c9565b915061058161056c8660028760020203610b06565b6105798787600202610b06565b85858e610b1e565b90506000811361059b57600197506305f5e10096506105a6565b806305f5e100975097505b50505050505094509492505050565b6105bd61040f565b1515610601576040805160e560020a62461bcd0281526020600482018190526024820152600080516020610f1a833981519152604482015290519081900360640190fd5b8060018381548110151561061157fe5b9060005260206000200160006101000a815481600160a060020a030219169083600160a060020a031602179055505050565b6060600180548060200260200160405190810160405280929190818152602001828054801561069b57602002820191906000526020600020905b8154600160a060020a0316815260019091019060200180831161067d575b5050505050905090565b60008060006106bd8763ffffffff168760ff1661093a565b925084519150600090505b818110156107045784818151811015156106de57fe5b6020908102909101810151848301600090815260049092526040909120556001016106c8565b5050815160005b8181101561074757838181518110151561072157fe5b60209081029091018101518483016000908152600590925260409091205560010161070b565b50505050505050565b61075861040f565b151561079c576040805160e560020a62461bcd0281526020600482018190526024820152600080516020610f1a833981519152604482015290519081900360640190fd5b61047781610b99565b610808828054806020026020016040519081016040528092919081815260200182805480156107fd57602002820191906000526020600020905b8154600160a060020a031681526001909101906020018083116107df575b505050505082610c87565b151561084757815460018101835560008381526020902001805473ffffffffffffffffffffffffffffffffffffffff1916600160a060020a0383161790555b5050565b8154600090815b8181101561089a5783600160a060020a0316858281548110151561087257fe5b600091825260209091200154600160a060020a031614156108925761089a565b600101610852565b8181101561092d57600019820181146109135784600183038154811015156108be57fe5b6000918252602090912001548554600160a060020a03909116908690839081106108e457fe5b9060005260206000200160006101000a815481600160a060020a030219169083600160a060020a031602179055505b8454610923866000198301610ed2565b5060019250610932565b600092505b505092915050565b600061094860008484610cd8565b9392505050565b60606109488383600863ffffffff610d01565b600080600080600261097387610de7565b81151561097c57fe5b049250600091505b828210156109b5576109998683600202610b06565b90508085116109aa578193506109c0565b600190910190610984565b600019909101925082905b50505092915050565b60008060008060008060006109e78c63ffffffff168c60ff1661093a565b95508894506000891115610a0857610a058a60018b60020203610b06565b94505b610a188a8a600202600101610b06565b93505b83851015610a4b57610a3260058787600202610e0f565b9250828811610a4057610a4b565b600190940193610a1b565b83851415610a5f5760001990940193610a6e565b88851415610a6e576001909401935b610a7d60058787600202610e0f565b915087821415610aa057610a9960058787600202600101610e0f565b9650610af7565b610ae0610ab560058860028960020203610e0f565b83610ac860058a60018b60020203610e0f565b610ada60058b8b600202600101610e0f565b8c610b1e565b905060008113610af35760019650610af7565b8096505b50505050505095945050505050565b600061094883836001016008602063ffffffff610e34565b600084861415610b78576040805160e560020a62461bcd02815260206004820152601c60248201527f696e7075742076616c75657320617265206475706c6963617465642100000000604482015290519081900360640190fd5b85850386830385850302811515610b8b57fe5b058401905095945050505050565b600160a060020a0381161515610c1f576040805160e560020a62461bcd02815260206004820152602660248201527f4f776e61626c653a206e6577206f776e657220697320746865207a65726f206160448201527f6464726573730000000000000000000000000000000000000000000000000000606482015290519081900360840190fd5b60008054604051600160a060020a03808516939216917f8be0079c531659141344cd1fd0a4f28419497f9722a3daafe3b4186f6b6457e091a36000805473ffffffffffffffffffffffffffffffffffffffff1916600160a060020a0392909216919091179055565b8151600090815b8181101561092d5783600160a060020a03168582815181101515610cae57fe5b90602001906020020151600160a060020a03161415610cd05760019250610932565b600101610c8e565b700100000000000000000000000000000000026801000000000000000091909102919091010190565b600083815260208590526040812054606091838216908381831515610d2557610dda565b8784600101811515610d3357fe5b0492508784600101811515610d4457fe5b0615610d51576001909201915b82604051908082528060200260200182016040528015610d7b578160200160208202803883390190505b50915084826000815181101515610d8e57fe5b602090810290910101525060015b82811015610dd657888101600090815260208b905260409020548251839083908110610dc457fe5b60209081029091010152600101610d9c565b8195505b5050505050949350505050565b6000815160001415610dfb575060006104d6565b6104d38260006008602063ffffffff610e34565b6000610e2c8484846001016004604067ffffffffffffffff610e85565b949350505050565b60008060008587811515610e4457fe5b049150848688811515610e5357fe5b0602905083818984815181101515610e6757fe5b906020019060200201519060020a9004169250505095945050505050565b6000806000808688811515610e9657fe5b04898101600090815260208c905260409020549093509150858789811515610eba57fe5b060260020a9091049390931698975050505050505050565b815481835581811115610ef657600083815260209020610ef6918101908301610efb565b505050565b61040c91905b80821115610f155760008155600101610f01565b509056004f776e61626c653a2063616c6c6572206973206e6f7420746865206f776e6572a165627a7a723058205db931ee5591a8b9ba6d7d9c21be81f358f57fb6515877711d0ca76512b9df2e0029",
  "source": "pragma solidity ^0.4.26;\r\nimport \"./modules/Operator.sol\";\r\nimport \"./modules/tuple.sol\";\r\nimport \"./modules/ArraySave.sol\";\r\ncontract imVolatility64 is Operator {\r\n    uint256 private ValidUntil = 1200;\r\n    uint256 constant private _calDecimal = 1e8;\r\n    uint256 private inptutTime;\r\n    ArraySave.saveMap internal timeSaveMap;\r\n    ArraySave.saveMap internal IvMap;\r\n    function setValidUntil(uint256 timeLimit) public onlyOwner {\r\n        ValidUntil = timeLimit;\r\n    }\r\n    function setIvMatrix(uint32 underlying,uint8 optType,uint256[] timeArray,uint256[] ivAry) public{\r\n        uint256 saveKey = getKey(underlying,optType);\r\n        uint nLen0 = timeArray.length;\r\n        for (uint i=0;i<nLen0;i++){\r\n            timeSaveMap.sMap[saveKey+i] = timeArray[i];\r\n        }\r\n        nLen0 = ivAry.length;\r\n        for (i=0;i<nLen0;i++){\r\n            IvMap.sMap[saveKey+i] = ivAry[i];\r\n        }\r\n    }\r\n    function getKey(uint256 underlying,uint256 optType) internal pure returns(uint256){\r\n        return tuple64.getTuple3(0,underlying,optType);\r\n    }\r\n    /**\r\n    /**\r\n  * @notice retrieves implied volatility of an asset\r\n  * @dev function to get implied volatility for an asset\r\n  * @param expiration the option expiration which has been created in option manger contract\r\n  * @param price the option underlying strikePrice which has been created in option manger contract\r\n  * @return uint mantissa of asset implied volatility (scaled by 1e18) or zero if unset or contract paused\r\n  */\r\n    function calculateIv(uint32 underlying,uint8 optType,uint256 expiration,uint256 price)public view returns (uint256,uint256){\r\n        uint256 saveKey = getKey(underlying,optType);\r\n        uint256[] memory buffer = ArraySave32.readAllBuffer(timeSaveMap,saveKey);\r\n        uint256 index = getTimeRange(buffer,expiration);\r\n        if (index == 0){\r\n            return (calculateTimeIv(underlying,optType,buffer,index,price),_calDecimal);\r\n        }\r\n        uint256 ivLow = calculateTimeIv(underlying,optType,buffer,index-1,price);\r\n        uint256 ivHigh = calculateTimeIv(underlying,optType,buffer,index,price);\r\n        int iv = insertValue(int256(ArraySave32.getValueFromBuffer(buffer,index*2-2)),int256(ArraySave32.getValueFromBuffer(buffer,index*2)),\r\n            int256(ivLow),int256(ivHigh),int256(expiration));\r\n        if (iv<=0){\r\n            return (1,_calDecimal);\r\n        }else{\r\n            return (uint256(iv),_calDecimal);\r\n        }\r\n    }\r\n    function getTimeRange(uint256[] memory buffer,uint256 expiration) internal pure returns(uint256){\r\n        uint256 Len = ArraySave32.getArrayLenFromBuffer(buffer)/2;\r\n        for (uint256 i=0;i<Len;i++){\r\n            uint256 curTime = ArraySave32.getValueFromBuffer(buffer,i*2);\r\n            if (expiration<=curTime){\r\n                return i;\r\n            }\r\n        }\r\n        i--;\r\n        return i;\r\n    }\r\n    function calculateTimeIv(uint32 underlying,uint8 optType,uint256[] memory buffer,uint256 index,uint256 price)internal view returns (uint256){\r\n        uint256 saveKey = getKey(underlying,optType);\r\n        uint256 i = index;\r\n        if (index > 0){\r\n            i = ArraySave32.getValueFromBuffer(buffer,index*2-1);\r\n        }\r\n        uint256 end = ArraySave32.getValueFromBuffer(buffer,index*2+1);\r\n        for (;i<end;i++){\r\n            uint256 ivPrice = ArraySave64.getValue(IvMap,saveKey,i*2);\r\n            if (price<=ivPrice){\r\n                break;                \r\n            }\r\n        }\r\n        if (i == end){\r\n            i--;\r\n        }else if (i == index) {\r\n            i++;\r\n        }\r\n        uint256 highPrice = ArraySave64.getValue(IvMap,saveKey,i*2);\r\n        if (highPrice == price) {\r\n            return ArraySave64.getValue(IvMap,saveKey,i*2+1);\r\n        }         \r\n        int iv = insertValue(int256(ArraySave64.getValue(IvMap,saveKey,i*2-2)),int256(highPrice),\r\n            int256(ArraySave64.getValue(IvMap,saveKey,i*2-1)),int256(ArraySave64.getValue(IvMap,saveKey,i*2+1)),int256(price));\r\n        if (iv<=0){\r\n            return 1;\r\n        }else{\r\n            return uint256(iv);\r\n        }\r\n    }\r\n    function insertValue(int256 x0,int256 x1,int256 y0, int256 y1,int256 x)internal pure returns (int256){\r\n        require(x1 != x0,\"input values are duplicated!\");\r\n        return y0 + (y1-y0)*(x-x0)/(x1-x0);\r\n    }\r\n}\r\n",
  "sourcePath": "C:\\work\\solidity\\FinnexusOptions_V2\\contracts\\imVolatility64.sol",
  "compiler": {
    "name": "solc",
    "version": "0.4.26+commit.4563c3fc.Emscripten.clang"
  },
  "schemaVersion": "3.1.0",
  "updatedAt": "2020-08-03T14:27:23.427Z",
  "devdoc": {
    "methods": {
      "calculateIv(uint32,uint8,uint256,uint256)": {
        "details": "function to get implied volatility for an asset\r",
        "params": {
          "expiration": "the option expiration which has been created in option manger contract\r",
          "price": "the option underlying strikePrice which has been created in option manger contract\r"
        },
        "return": "uint mantissa of asset implied volatility (scaled by 1e18) or zero if unset or contract paused\r"
      },
      "isOwner()": {
        "details": "Returns true if the caller is the current owner."
      },
      "owner()": {
        "details": "Returns the address of the current owner."
      },
      "renounceOwnership()": {
        "details": "Leaves the contract without owner. It will not be possible to call `onlyOwner` functions anymore. Can only be called by the current owner.     * NOTE: Renouncing ownership will leave the contract without an owner, thereby removing any functionality that is only available to the owner."
      },
      "transferOwnership(address)": {
        "details": "Transfers ownership of the contract to a new account (`newOwner`). Can only be called by the current owner."
      }
    }
  },
  "userdoc": {
    "methods": {
      "calculateIv(uint32,uint8,uint256,uint256)": {
        "notice": "/**\rretrieves implied volatility of an asset\r"
      }
    }
  }
}