{
  "contractName": "imVolatility32",
  "abi": [
    {
      "constant": true,
      "inputs": [],
      "name": "ValidUntil",
      "outputs": [
        {
          "name": "",
          "type": "uint256"
        }
      ],
      "payable": false,
      "stateMutability": "view",
      "type": "function"
    },
    {
      "constant": true,
      "inputs": [],
      "name": "inptutTime",
      "outputs": [
        {
          "name": "",
          "type": "uint256"
        }
      ],
      "payable": false,
      "stateMutability": "view",
      "type": "function"
    },
    {
      "constant": false,
      "inputs": [],
      "name": "renounceOwnership",
      "outputs": [],
      "payable": false,
      "stateMutability": "nonpayable",
      "type": "function"
    },
    {
      "constant": true,
      "inputs": [],
      "name": "owner",
      "outputs": [
        {
          "name": "",
          "type": "address"
        }
      ],
      "payable": false,
      "stateMutability": "view",
      "type": "function"
    },
    {
      "constant": true,
      "inputs": [],
      "name": "isOwner",
      "outputs": [
        {
          "name": "",
          "type": "bool"
        }
      ],
      "payable": false,
      "stateMutability": "view",
      "type": "function"
    },
    {
      "constant": false,
      "inputs": [
        {
          "name": "newOwner",
          "type": "address"
        }
      ],
      "name": "transferOwnership",
      "outputs": [],
      "payable": false,
      "stateMutability": "nonpayable",
      "type": "function"
    },
    {
      "anonymous": false,
      "inputs": [
        {
          "indexed": true,
          "name": "previousOwner",
          "type": "address"
        },
        {
          "indexed": true,
          "name": "newOwner",
          "type": "address"
        }
      ],
      "name": "OwnershipTransferred",
      "type": "event"
    },
    {
      "constant": false,
      "inputs": [
        {
          "name": "timeLimit",
          "type": "uint256"
        }
      ],
      "name": "setValidUntil",
      "outputs": [],
      "payable": false,
      "stateMutability": "nonpayable",
      "type": "function"
    },
    {
      "constant": false,
      "inputs": [
        {
          "name": "underlying",
          "type": "uint32"
        },
        {
          "name": "optType",
          "type": "uint8"
        },
        {
          "name": "timeArray",
          "type": "uint256[]"
        },
        {
          "name": "ivAry",
          "type": "uint256[]"
        }
      ],
      "name": "setIvMatrix",
      "outputs": [],
      "payable": false,
      "stateMutability": "nonpayable",
      "type": "function"
    },
    {
      "constant": true,
      "inputs": [
        {
          "name": "underlying",
          "type": "uint32"
        },
        {
          "name": "optType",
          "type": "uint8"
        },
        {
          "name": "expiration",
          "type": "uint256"
        },
        {
          "name": "price",
          "type": "uint256"
        }
      ],
      "name": "calculateIv",
      "outputs": [
        {
          "name": "",
          "type": "uint256"
        },
        {
          "name": "",
          "type": "uint256"
        }
      ],
      "payable": false,
      "stateMutability": "view",
      "type": "function"
    }
  ],
  "bytecode": "0x608060408190526104b060015560008054600160a060020a0319163317808255600160a060020a0316917f8be0079c531659141344cd1fd0a4f28419497f9722a3daafe3b4186f6b6457e0908290a3610c4c8061005d6000396000f3006080604052600436106100985763ffffffff7c01000000000000000000000000000000000000000000000000000000006000350416634af5b1e2811461009d57806352ca59fa146100c4578063634099cc146100d9578063715018a6146100f35780638da5cb5b146101085780638f32d59b14610139578063b4277bc114610162578063ea4d0536146101a5578063f2fde38b14610245575b600080fd5b3480156100a957600080fd5b506100b2610266565b60408051918252519081900360200190f35b3480156100d057600080fd5b506100b261026c565b3480156100e557600080fd5b506100f1600435610272565b005b3480156100ff57600080fd5b506100f16102c3565b34801561011457600080fd5b5061011d610366565b60408051600160a060020a039092168252519081900360200190f35b34801561014557600080fd5b5061014e610375565b604080519115158252519081900360200190f35b34801561016e57600080fd5b5061018c63ffffffff6004351660ff60243516604435606435610386565b6040805192835260208301919091528051918290030190f35b3480156101b157600080fd5b5060408051602060046044358181013583810280860185019096528085526100f195833563ffffffff16956024803560ff1696369695606495939492019291829185019084908082843750506040805187358901803560208181028481018201909552818452989b9a9989019892975090820195509350839250850190849080828437509497506104629650505050505050565b34801561025157600080fd5b506100f1600160a060020a0360043516610559565b60015481565b60025481565b61027a610375565b15156102be576040805160e560020a62461bcd0281526020600482018190526024820152600080516020610c01833981519152604482015290519081900360640190fd5b600155565b6102cb610375565b151561030f576040805160e560020a62461bcd0281526020600482018190526024820152600080516020610c01833981519152604482015290519081900360640190fd5b60008054604051600160a060020a03909116907f8be0079c531659141344cd1fd0a4f28419497f9722a3daafe3b4186f6b6457e0908390a36000805473ffffffffffffffffffffffffffffffffffffffff19169055565b600054600160a060020a031690565b600054600160a060020a0316331490565b6127109004600080806060818080806103a863ffffffff8d1660ff8d166105b1565b95506103b56003876105c6565b94506103c1858b6105d9565b93508315156103e5576103d78c8c87878d6106be565b6305f5e10097509750610453565b6103f58c8c87600188038d6106be565b92506104048c8c87878d6106be565b915061042e6104198660028760020203610881565b6104268787600202610881565b85858e610899565b90506000811361044857600197506305f5e1009650610453565b806305f5e100975097505b50505050505094509492505050565b600080600061046f610375565b15156104b3576040805160e560020a62461bcd0281526020600482018190526024820152600080516020610c01833981519152604482015290519081900360640190fd5b6104c68763ffffffff168760ff166105b1565b925084519150600090505b8181101561050d5784818151811015156104e757fe5b6020908102909101810151848301600090815260039092526040909120556001016104d1565b5050815160005b8181101561055057838181518110151561052a57fe5b602090810290910181015184830160009081526004909252604090912055600101610514565b50505050505050565b610561610375565b15156105a5576040805160e560020a62461bcd0281526020600482018190526024820152600080516020610c01833981519152604482015290519081900360640190fd5b6105ae81610914565b50565b60006105bf60008484610a02565b9392505050565b60606105bf8383600863ffffffff610a2b565b60008060008060026105ea87610b11565b8115156105f357fe5b0492506002831015610674576040805160e560020a62461bcd028152602060048201526024808201527f6976206d61747269782074696d65206c656e677468206973206c65737320746860448201527f616e203200000000000000000000000000000000000000000000000000000000606482015290519081900360840190fd5b600091505b828210156106aa5761068e8683600202610881565b905080851161069f578193506106b5565b600190910190610679565b600019909101925082905b50505092915050565b60008060008060008060006106dc8c63ffffffff168c60ff166105b1565b955088945060008911156106fd576106fa8a60018b60020203610881565b94505b61070d8a8a600202600101610881565b935060028585031015610790576040805160e560020a62461bcd02815260206004820152602560248201527f6976206d6174726978207072696365206c656e677468206973206c657373207460448201527f68616e2032000000000000000000000000000000000000000000000000000000606482015290519081900360840190fd5b838510156107c0576107a760048787600202610b41565b92508288116107b5576107c0565b600190940193610790565b838514156107d457600019909401936107e3565b888514156107e3576001909401935b6107f260048787600202610b41565b9150878214156108185761080e60048787600202600101610b41565b6064029650610872565b61085861082d60048860028960020203610b41565b8361084060048a60018b60020203610b41565b61085260048b8b600202600101610b41565b8c610899565b90506000811361086b5760019650610872565b8060640296505b50505050505095945050505050565b60006105bf83836001016008602063ffffffff610b62565b6000848614156108f3576040805160e560020a62461bcd02815260206004820152601c60248201527f696e7075742076616c75657320617265206475706c6963617465642100000000604482015290519081900360640190fd5b8585038683038585030281151561090657fe5b058401905095945050505050565b600160a060020a038116151561099a576040805160e560020a62461bcd02815260206004820152602660248201527f4f776e61626c653a206e6577206f776e657220697320746865207a65726f206160448201527f6464726573730000000000000000000000000000000000000000000000000000606482015290519081900360840190fd5b60008054604051600160a060020a03808516939216917f8be0079c531659141344cd1fd0a4f28419497f9722a3daafe3b4186f6b6457e091a36000805473ffffffffffffffffffffffffffffffffffffffff1916600160a060020a0392909216919091179055565b700100000000000000000000000000000000026801000000000000000091909102919091010190565b600083815260208590526040812054606091838216908381831515610a4f57610b04565b8784600101811515610a5d57fe5b0492508784600101811515610a6e57fe5b0615610a7b576001909201915b82604051908082528060200260200182016040528015610aa5578160200160208202803883390190505b50915084826000815181101515610ab857fe5b602090810290910101525060015b82811015610b0057888101600090815260208b905260409020548251839083908110610aee57fe5b60209081029091010152600101610ac6565b8195505b5050505050949350505050565b6000815160001415610b2557506000610b3c565b610b398260006008602063ffffffff610b62565b90505b919050565b6000610b5a8484846001016008602063ffffffff610bb3565b949350505050565b60008060008587811515610b7257fe5b049150848688811515610b8157fe5b0602905083818984815181101515610b9557fe5b906020019060200201519060020a9004169250505095945050505050565b6000806000808688811515610bc457fe5b04898101600090815260208c905260409020549093509150858789811515610be857fe5b060260020a909104939093169897505050505050505056004f776e61626c653a2063616c6c6572206973206e6f7420746865206f776e6572a165627a7a7230582018c0b13b29d55a4a893346095011a8d5fe02c52495350674fe532579af5bf3b00029",
  "source": "pragma solidity ^0.4.26;\r\nimport \"./modules/Ownable.sol\";\r\nimport \"./modules/tuple.sol\";\r\nimport \"./modules/ArraySave.sol\";\r\ncontract imVolatility32 is Ownable {\r\n    uint256 public ValidUntil = 1200;\r\n    uint256 constant _calDecimal = 1e8;\r\n    uint256 public inptutTime;\r\n    ArraySave.saveMap internal timeSaveMap;\r\n    ArraySave.saveMap internal IvMap;\r\n    function setValidUntil(uint256 timeLimit) public onlyOwner {\r\n        ValidUntil = timeLimit;\r\n    }\r\n    function setIvMatrix(uint32 underlying,uint8 optType,uint256[] timeArray,uint256[] ivAry) public onlyOwner{\r\n        uint256 saveKey = getKey(underlying,optType);\r\n        uint nLen0 = timeArray.length;\r\n        for (uint i=0;i<nLen0;i++){\r\n            timeSaveMap.sMap[saveKey+i] = timeArray[i];\r\n        }\r\n        nLen0 = ivAry.length;\r\n        for (i=0;i<nLen0;i++){\r\n            IvMap.sMap[saveKey+i] = ivAry[i];\r\n        }\r\n    }\r\n    function getKey(uint256 underlying,uint256 optType) internal pure returns(uint256){\r\n        return tuple64.getTuple3(0,underlying,optType);\r\n    }\r\n    /**\r\n      * @notice retrieves implied volatility of an asset\r\n      * @dev function to get implied volatility for an asset\r\n      * @param expiration the option expiration which has been created in option manger contract\r\n      * @param price the option underlying strikePrice which has been created in option manger contract\r\n      * @return uint mantissa of asset implied volatility (scaled by 1e18) or zero if unset or contract paused\r\n      */\r\n    function calculateIv(uint32 underlying,uint8 optType,uint256 expiration,uint256 price)public view returns (uint256,uint256){\r\n        price = price/1e4;\r\n        uint256 saveKey = getKey(underlying,optType);\r\n        uint256[] memory buffer = ArraySave32.readAllBuffer(timeSaveMap,saveKey);\r\n        uint256 index = getTimeRange(buffer,expiration);\r\n        if (index == 0){\r\n            return (calculateTimeIv(underlying,optType,buffer,index,price),_calDecimal);\r\n        }\r\n        uint256 ivLow = calculateTimeIv(underlying,optType,buffer,index-1,price);\r\n        uint256 ivHigh = calculateTimeIv(underlying,optType,buffer,index,price);\r\n        int iv = insertValue(int256(ArraySave32.getValueFromBuffer(buffer,index*2-2)),int256(ArraySave32.getValueFromBuffer(buffer,index*2)),\r\n            int256(ivLow),int256(ivHigh),int256(expiration));\r\n        if (iv<=0){\r\n            return (1,_calDecimal);\r\n        }else{\r\n            return (uint256(iv),_calDecimal);\r\n        }\r\n    }\r\n    function getTimeRange(uint256[] memory buffer,uint256 expiration) internal pure returns(uint256){\r\n        uint256 Len = ArraySave32.getArrayLenFromBuffer(buffer)/2;\r\n        require (Len>=2,\"iv matrix time length is less than 2\");\r\n        for (uint256 i=0;i<Len;i++){\r\n            uint256 curTime = ArraySave32.getValueFromBuffer(buffer,i*2);\r\n            if (expiration<=curTime){\r\n                return i;\r\n            }\r\n        }\r\n        i--;\r\n        return i;\r\n    }\r\n    function calculateTimeIv(uint32 underlying,uint8 optType,uint256[] memory buffer,uint256 index,uint256 price)internal view returns (uint256){\r\n        uint256 saveKey = getKey(underlying,optType);\r\n        uint256 i = index;\r\n        if (index > 0){\r\n            i = ArraySave32.getValueFromBuffer(buffer,index*2-1);\r\n        }\r\n        uint256 end = ArraySave32.getValueFromBuffer(buffer,index*2+1);\r\n        require (end-i>=2,\"iv matrix price length is less than 2\");\r\n        for (;i<end;i++){\r\n            uint256 ivPrice = ArraySave32.getValue(IvMap,saveKey,i*2);\r\n            if (price<=ivPrice){\r\n                break;                \r\n            }\r\n        }\r\n        if (i == end){\r\n            i--;\r\n        }else if (i == index) {\r\n            i++;\r\n        }\r\n        uint256 highPrice = ArraySave32.getValue(IvMap,saveKey,i*2);\r\n        if (highPrice == price) {\r\n            return ArraySave32.getValue(IvMap,saveKey,i*2+1)*100;\r\n        }         \r\n        int iv = insertValue(int256(ArraySave32.getValue(IvMap,saveKey,i*2-2)),int256(highPrice),\r\n            int256(ArraySave32.getValue(IvMap,saveKey,i*2-1)),int256(ArraySave32.getValue(IvMap,saveKey,i*2+1)),int256(price));\r\n        if (iv<=0){\r\n            return 1;\r\n        }else{\r\n            return uint256(iv)*100;\r\n        }\r\n    }\r\n    function insertValue(int256 x0,int256 x1,int256 y0, int256 y1,int256 x)internal pure returns (int256){\r\n        require(x1 != x0,\"input values are duplicated!\");\r\n        return y0 + (y1-y0)*(x-x0)/(x1-x0);\r\n    }\r\n}\r\n",
  "sourcePath": "C:\\work\\solidity\\FinnexusOptions_V2\\contracts\\imVolatility32.sol",
  "compiler": {
    "name": "solc",
    "version": "0.4.26+commit.4563c3fc.Emscripten.clang"
  },
  "schemaVersion": "3.1.0",
  "updatedAt": "2020-07-25T10:21:49.654Z",
  "devdoc": {
    "methods": {
      "calculateIv(uint32,uint8,uint256,uint256)": {
        "details": "function to get implied volatility for an asset\r",
        "params": {
          "expiration": "the option expiration which has been created in option manger contract\r",
          "price": "the option underlying strikePrice which has been created in option manger contract\r"
        },
        "return": "uint mantissa of asset implied volatility (scaled by 1e18) or zero if unset or contract paused\r"
      },
      "isOwner()": {
        "details": "Returns true if the caller is the current owner."
      },
      "owner()": {
        "details": "Returns the address of the current owner."
      },
      "renounceOwnership()": {
        "details": "Leaves the contract without owner. It will not be possible to call `onlyOwner` functions anymore. Can only be called by the current owner.     * NOTE: Renouncing ownership will leave the contract without an owner, thereby removing any functionality that is only available to the owner."
      },
      "transferOwnership(address)": {
        "details": "Transfers ownership of the contract to a new account (`newOwner`). Can only be called by the current owner."
      }
    }
  },
  "userdoc": {
    "methods": {
      "calculateIv(uint32,uint8,uint256,uint256)": {
        "notice": "retrieves implied volatility of an asset\r"
      }
    }
  }
}