{
  "contractName": "imVolatilityTest",
  "abi": [
    {
      "constant": false,
      "inputs": [
        {
          "name": "underlying",
          "type": "uint32"
        },
        {
          "name": "put_timeArray",
          "type": "uint256[]"
        },
        {
          "name": "put_ivAry",
          "type": "uint256[]"
        },
        {
          "name": "call_timeArray",
          "type": "uint256[]"
        },
        {
          "name": "call_ivAry",
          "type": "uint256[]"
        }
      ],
      "name": "setIvMatrixAll",
      "outputs": [],
      "payable": false,
      "stateMutability": "nonpayable",
      "type": "function"
    },
    {
      "constant": false,
      "inputs": [
        {
          "name": "timeLimit",
          "type": "uint256"
        }
      ],
      "name": "setValidUntil",
      "outputs": [],
      "payable": false,
      "stateMutability": "nonpayable",
      "type": "function"
    },
    {
      "constant": false,
      "inputs": [],
      "name": "renounceOwnership",
      "outputs": [],
      "payable": false,
      "stateMutability": "nonpayable",
      "type": "function"
    },
    {
      "constant": true,
      "inputs": [],
      "name": "owner",
      "outputs": [
        {
          "name": "",
          "type": "address"
        }
      ],
      "payable": false,
      "stateMutability": "view",
      "type": "function"
    },
    {
      "constant": true,
      "inputs": [],
      "name": "isOwner",
      "outputs": [
        {
          "name": "",
          "type": "bool"
        }
      ],
      "payable": false,
      "stateMutability": "view",
      "type": "function"
    },
    {
      "constant": false,
      "inputs": [
        {
          "name": "addAddress",
          "type": "address"
        }
      ],
      "name": "addOperator",
      "outputs": [],
      "payable": false,
      "stateMutability": "nonpayable",
      "type": "function"
    },
    {
      "constant": false,
      "inputs": [
        {
          "name": "removeAddress",
          "type": "address"
        }
      ],
      "name": "removeOperator",
      "outputs": [
        {
          "name": "",
          "type": "bool"
        }
      ],
      "payable": false,
      "stateMutability": "nonpayable",
      "type": "function"
    },
    {
      "constant": true,
      "inputs": [
        {
          "name": "underlying",
          "type": "uint32"
        },
        {
          "name": "optType",
          "type": "uint8"
        },
        {
          "name": "expiration",
          "type": "uint256"
        },
        {
          "name": "price",
          "type": "uint256"
        }
      ],
      "name": "calculateIv",
      "outputs": [
        {
          "name": "",
          "type": "uint256"
        },
        {
          "name": "",
          "type": "uint256"
        }
      ],
      "payable": false,
      "stateMutability": "view",
      "type": "function"
    },
    {
      "constant": false,
      "inputs": [
        {
          "name": "index",
          "type": "uint256"
        },
        {
          "name": "addAddress",
          "type": "address"
        }
      ],
      "name": "setOperator",
      "outputs": [],
      "payable": false,
      "stateMutability": "nonpayable",
      "type": "function"
    },
    {
      "constant": true,
      "inputs": [],
      "name": "getOperator",
      "outputs": [
        {
          "name": "",
          "type": "address[]"
        }
      ],
      "payable": false,
      "stateMutability": "view",
      "type": "function"
    },
    {
      "constant": false,
      "inputs": [
        {
          "name": "underlying",
          "type": "uint32"
        },
        {
          "name": "optType",
          "type": "uint8"
        },
        {
          "name": "timeArray",
          "type": "uint256[]"
        },
        {
          "name": "ivAry",
          "type": "uint256[]"
        }
      ],
      "name": "setIvMatrix",
      "outputs": [],
      "payable": false,
      "stateMutability": "nonpayable",
      "type": "function"
    },
    {
      "constant": false,
      "inputs": [
        {
          "name": "newOwner",
          "type": "address"
        }
      ],
      "name": "transferOwnership",
      "outputs": [],
      "payable": false,
      "stateMutability": "nonpayable",
      "type": "function"
    },
    {
      "anonymous": false,
      "inputs": [
        {
          "indexed": true,
          "name": "previousOwner",
          "type": "address"
        },
        {
          "indexed": true,
          "name": "newOwner",
          "type": "address"
        }
      ],
      "name": "OwnershipTransferred",
      "type": "event"
    },
    {
      "constant": true,
      "inputs": [
        {
          "name": "underlying",
          "type": "uint32"
        },
        {
          "name": "optType",
          "type": "uint8"
        }
      ],
      "name": "getTimeMapLen",
      "outputs": [
        {
          "name": "",
          "type": "uint256"
        }
      ],
      "payable": false,
      "stateMutability": "view",
      "type": "function"
    },
    {
      "constant": true,
      "inputs": [
        {
          "name": "underlying",
          "type": "uint32"
        },
        {
          "name": "optType",
          "type": "uint8"
        }
      ],
      "name": "getTimeAllBufferLen",
      "outputs": [
        {
          "name": "",
          "type": "uint256"
        }
      ],
      "payable": false,
      "stateMutability": "view",
      "type": "function"
    },
    {
      "constant": true,
      "inputs": [
        {
          "name": "underlying",
          "type": "uint32"
        },
        {
          "name": "optType",
          "type": "uint8"
        }
      ],
      "name": "getTimeAllBuffer",
      "outputs": [
        {
          "name": "",
          "type": "uint256[]"
        }
      ],
      "payable": false,
      "stateMutability": "view",
      "type": "function"
    },
    {
      "constant": true,
      "inputs": [
        {
          "name": "buffer",
          "type": "uint256[]"
        },
        {
          "name": "index",
          "type": "uint256"
        }
      ],
      "name": "getValueFromBuffer",
      "outputs": [
        {
          "name": "",
          "type": "uint256"
        }
      ],
      "payable": false,
      "stateMutability": "pure",
      "type": "function"
    },
    {
      "constant": true,
      "inputs": [
        {
          "name": "underlying",
          "type": "uint32"
        },
        {
          "name": "optType",
          "type": "uint8"
        },
        {
          "name": "expiration",
          "type": "uint256"
        }
      ],
      "name": "getTimeRangeIndex",
      "outputs": [
        {
          "name": "",
          "type": "uint256"
        }
      ],
      "payable": false,
      "stateMutability": "view",
      "type": "function"
    }
  ],
  "bytecode": "0x608060408190526104b060025560008054600160a060020a0319163317808255600160a060020a0316917f8be0079c531659141344cd1fd0a4f28419497f9722a3daafe3b4186f6b6457e0908290a36115a08061005d6000396000f3006080604052600436106100f05763ffffffff7c01000000000000000000000000000000000000000000000000000000006000350416630b82566881146100f557806316992ca7146102025780631e3047f7146102765780634fdeceab146102df578063634099cc146103035780636ad0260f1461031b578063715018a6146103425780638da5cb5b146103575780638f32d59b146103885780639870d7fe146103b1578063ac8a584a146103d2578063b4277bc1146103f3578063d741f61014610436578063e7a1c1c01461045a578063e7f43c681461047e578063ea4d053614610493578063f2fde38b14610533575b600080fd5b34801561010157600080fd5b5060408051602060046024803582810135848102808701860190975280865261020096843563ffffffff1696369660449591949091019291829185019084908082843750506040805187358901803560208181028481018201909552818452989b9a998901989297509082019550935083925085019084908082843750506040805187358901803560208181028481018201909552818452989b9a998901989297509082019550935083925085019084908082843750506040805187358901803560208181028481018201909552818452989b9a9989019892975090820195509350839250850190849080828437509497506105549650505050505050565b005b34801561020e57600080fd5b5061022663ffffffff6004351660ff60243516610629565b60408051602080825283518183015283519192839290830191858101910280838360005b8381101561026257818101518382015260200161024a565b505050509050019250505060405180910390f35b34801561028257600080fd5b50604080516020600480358082013583810280860185019096528085526102cd95369593946024949385019291829185019084908082843750949750509335945061065d9350505050565b60408051918252519081900360200190f35b3480156102eb57600080fd5b506102cd63ffffffff6004351660ff60243516610670565b34801561030f57600080fd5b5061020060043561069b565b34801561032757600080fd5b506102cd63ffffffff6004351660ff60243516604435610754565b34801561034e57600080fd5b5061020061078f565b34801561036357600080fd5b5061036c610832565b60408051600160a060020a039092168252519081900360200190f35b34801561039457600080fd5b5061039d610842565b604080519115158252519081900360200190f35b3480156103bd57600080fd5b50610200600160a060020a0360043516610853565b3480156103de57600080fd5b5061039d600160a060020a03600435166108b3565b3480156103ff57600080fd5b5061041d63ffffffff6004351660ff6024351660443560643561091a565b6040805192835260208301919091528051918290030190f35b34801561044257600080fd5b506102cd63ffffffff6004351660ff602435166109fe565b34801561046657600080fd5b50610200600435600160a060020a0360243516610a2d565b34801561048a57600080fd5b50610226610abb565b34801561049f57600080fd5b50604080516020600460443581810135838102808601850190965280855261020095833563ffffffff16956024803560ff1696369695606495939492019291829185019084908082843750506040805187358901803560208181028481018201909552818452989b9a998901989297509082019550935083925085019084908082843750949750610b1d9650505050505050565b34801561053f57600080fd5b50610200600160a060020a0360043516610c85565b6001546000908110801561058b5750600180543391908390811061057457fe5b600091825260209091200154600160a060020a0316145b1515610607576040805160e560020a62461bcd02815260206004820152603060248201527f4d616e6167657261626c653a2063616c6c6572206973206e6f7420746865206560448201527f6c696769626c65204f70657261746f7200000000000000000000000000000000606482015290519081900360840190fd5b6106148660018787610b1d565b6106218660008585610b1d565b505050505050565b6060600060606106428563ffffffff168560ff16610cda565b915061064f600483610ce8565b90508092505b505092915050565b60006106698383610cfb565b9392505050565b6000806106868463ffffffff168460ff16610cda565b9050610693600482610d13565b949350505050565b600154600090811080156106d2575060018054339190839081106106bb57fe5b600091825260209091200154600160a060020a0316145b151561074e576040805160e560020a62461bcd02815260206004820152603060248201527f4d616e6167657261626c653a2063616c6c6572206973206e6f7420746865206560448201527f6c696769626c65204f70657261746f7200000000000000000000000000000000606482015290519081900360840190fd5b50600255565b600080606061076c8663ffffffff168660ff16610cda565b9150610779600483610ce8565b90506107858185610d2a565b9695505050505050565b610797610842565b15156107db576040805160e560020a62461bcd0281526020600482018190526024820152600080516020611555833981519152604482015290519081900360640190fd5b60008054604051600160a060020a03909116907f8be0079c531659141344cd1fd0a4f28419497f9722a3daafe3b4186f6b6457e0908390a36000805473ffffffffffffffffffffffffffffffffffffffff19169055565b600054600160a060020a03165b90565b600054600160a060020a0316331490565b61085b610842565b151561089f576040805160e560020a62461bcd0281526020600482018190526024820152600080516020611555833981519152604482015290519081900360640190fd5b6108b060018263ffffffff610e0f16565b50565b60006108bd610842565b1515610901576040805160e560020a62461bcd0281526020600482018190526024820152600080516020611555833981519152604482015290519081900360640190fd5b61091260018363ffffffff610eb516565b90505b919050565b611b58919091029061271090046000808060608180808061094463ffffffff8d1660ff8d16610cda565b9550610951600487610ce8565b945061095d858b610d2a565b9350831515610981576109738c8c87878d610fa2565b6305f5e100975097506109ef565b6109918c8c87600188038d610fa2565b92506109a08c8c87878d610fa2565b91506109ca6109b58660028760020203610cfb565b6109c28787600202610cfb565b85858e611165565b9050600081136109e457600197506305f5e10096506109ef565b806305f5e100975097505b50505050505094509492505050565b6000806060610a168563ffffffff168560ff16610cda565b9150610a23600483610ce8565b5195945050505050565b610a35610842565b1515610a79576040805160e560020a62461bcd0281526020600482018190526024820152600080516020611555833981519152604482015290519081900360640190fd5b80600183815481101515610a8957fe5b9060005260206000200160006101000a815481600160a060020a030219169083600160a060020a031602179055505050565b60606001805480602002602001604051908101604052809291908181526020018280548015610b1357602002820191906000526020600020905b8154600160a060020a03168152600190910190602001808311610af5575b5050505050905090565b60008060008080600180549050118015610b5a57506001805433919083908110610b4357fe5b600091825260209091200154600160a060020a0316145b1515610bd6576040805160e560020a62461bcd02815260206004820152603060248201527f4d616e6167657261626c653a2063616c6c6572206973206e6f7420746865206560448201527f6c696769626c65204f70657261746f7200000000000000000000000000000000606482015290519081900360840190fd5b610be98863ffffffff168860ff16610cda565b935085519250600091505b82821015610c33578582815181101515610c0a57fe5b602090810290910181015185840160009081526004909252604090912055600190910190610bf4565b84519250600091505b82821015610c7b578482815181101515610c5257fe5b602090810290910181015185840160009081526005909252604090912055600190910190610c3c565b5050505050505050565b610c8d610842565b1515610cd1576040805160e560020a62461bcd0281526020600482018190526024820152600080516020611555833981519152604482015290519081900360640190fd5b6108b0816111e0565b6000610669600084846112ce565b60606106698383600863ffffffff6112f7565b600061066983836001016008602063ffffffff6113dd565b6000610669838360006008602063ffffffff61142e565b6000806000806002610d3b8761147b565b811515610d4457fe5b0492506002831015610dc5576040805160e560020a62461bcd028152602060048201526024808201527f6976206d61747269782074696d65206c656e677468206973206c65737320746860448201527f616e203200000000000000000000000000000000000000000000000000000000606482015290519081900360840190fd5b600091505b82821015610dfb57610ddf8683600202610cfb565b9050808511610df057819350610e06565b600190910190610dca565b600019909101925082905b50505092915050565b610e7282805480602002602001604051908101604052809291908181526020018280548015610e6757602002820191906000526020600020905b8154600160a060020a03168152600190910190602001808311610e49575b5050505050826114a3565b1515610eb157815460018101835560008381526020902001805473ffffffffffffffffffffffffffffffffffffffff1916600160a060020a0383161790555b5050565b8154600090815b81811015610f045783600160a060020a03168582815481101515610edc57fe5b600091825260209091200154600160a060020a03161415610efc57610f04565b600101610ebc565b81811015610f975760001982018114610f7d578460018303815481101515610f2857fe5b6000918252602090912001548554600160a060020a0390911690869083908110610f4e57fe5b9060005260206000200160006101000a815481600160a060020a030219169083600160a060020a031602179055505b8454610f8d86600019830161150d565b5060019250610655565b506000949350505050565b6000806000806000806000610fc08c63ffffffff168c60ff16610cda565b95508894506000891115610fe157610fde8a60018b60020203610cfb565b94505b610ff18a8a600202600101610cfb565b935060028585031015611074576040805160e560020a62461bcd02815260206004820152602560248201527f6976206d6174726978207072696365206c656e677468206973206c657373207460448201527f68616e2032000000000000000000000000000000000000000000000000000000606482015290519081900360840190fd5b838510156110a45761108b600587876002026114f4565b9250828811611099576110a4565b600190940193611074565b838514156110b857600019909401936110c7565b888514156110c7576001909401935b6110d6600587876002026114f4565b9150878214156110fc576110f2600587876002026001016114f4565b6064029650611156565b61113c611111600588600289600202036114f4565b8361112460058a60018b600202036114f4565b61113660058b8b6002026001016114f4565b8c611165565b90506000811361114f5760019650611156565b8060640296505b50505050505095945050505050565b6000848614156111bf576040805160e560020a62461bcd02815260206004820152601c60248201527f696e7075742076616c75657320617265206475706c6963617465642100000000604482015290519081900360640190fd5b858503868303858503028115156111d257fe5b058401905095945050505050565b600160a060020a0381161515611266576040805160e560020a62461bcd02815260206004820152602660248201527f4f776e61626c653a206e6577206f776e657220697320746865207a65726f206160448201527f6464726573730000000000000000000000000000000000000000000000000000606482015290519081900360840190fd5b60008054604051600160a060020a03808516939216917f8be0079c531659141344cd1fd0a4f28419497f9722a3daafe3b4186f6b6457e091a36000805473ffffffffffffffffffffffffffffffffffffffff1916600160a060020a0392909216919091179055565b700100000000000000000000000000000000026801000000000000000091909102919091010190565b60008381526020859052604081205460609183821690838183151561131b576113d0565b878460010181151561132957fe5b049250878460010181151561133a57fe5b0615611347576001909201915b82604051908082528060200260200182016040528015611371578160200160208202803883390190505b5091508482600081518110151561138457fe5b602090810290910101525060015b828110156113cc57888101600090815260208b9052604090205482518390839081106113ba57fe5b60209081029091010152600101611392565b8195505b5050505050949350505050565b600080600085878115156113ed57fe5b0491508486888115156113fc57fe5b060290508381898481518110151561141057fe5b906020019060200201519060020a9004169250505095945050505050565b600080600080868881151561143f57fe5b04898101600090815260208c90526040902054909350915085878981151561146357fe5b060260020a9091049390931698975050505050505050565b600081516000141561148f57506000610915565b6109128260006008602063ffffffff6113dd565b8151600090815b81811015610f975783600160a060020a031685828151811015156114ca57fe5b90602001906020020151600160a060020a031614156114ec5760019250610655565b6001016114aa565b60006106938484846001016008602063ffffffff61142e565b81548183558181111561153157600083815260209020611531918101908301611536565b505050565b61083f91905b80821115611550576000815560010161153c565b509056004f776e61626c653a2063616c6c6572206973206e6f7420746865206f776e6572a165627a7a723058204e231f0886706291c4d30e1196131c4a2e35f0c235a079abd319045f7cf9b8ac0029",
  "source": "pragma solidity ^0.4.26;\r\nimport \"../imVolatility32.sol\";\r\ncontract imVolatilityTest is imVolatility32 {\r\n    function getTimeMapLen(uint32 underlying,uint8 optType)public view returns(uint256){\r\n        uint256 saveKey = getKey(underlying,optType);\r\n        return ArraySave32.getArrayLen(timeSaveMap,saveKey);\r\n    }\r\n    function getTimeAllBufferLen(uint32 underlying,uint8 optType)public view returns(uint256){\r\n        uint256 saveKey = getKey(underlying,optType);\r\n        uint256[] memory buffer = ArraySave32.readAllBuffer(timeSaveMap,saveKey);\r\n        return buffer.length;\r\n    }\r\n    function getTimeAllBuffer(uint32 underlying,uint8 optType)public view returns(uint256[]){\r\n        uint256 saveKey = getKey(underlying,optType);\r\n        uint256[] memory buffer = ArraySave32.readAllBuffer(timeSaveMap,saveKey);\r\n        return buffer;\r\n    }\r\n    function getValueFromBuffer(uint256[] buffer,uint256 index)public pure returns(uint256){\r\n        return ArraySave32.getValueFromBuffer(buffer,index);\r\n    }\r\n    function getTimeRangeIndex(uint32 underlying,uint8 optType,uint256 expiration)public view returns(uint256){\r\n        uint256 saveKey = getKey(underlying,optType);\r\n        uint256[] memory buffer = ArraySave32.readAllBuffer(timeSaveMap,saveKey);\r\n        return getTimeRange(buffer,expiration);\r\n    }\r\n}",
  "sourcePath": "C:\\work\\solidity\\FinnexusOptions_V2\\contracts\\test\\imVolatilityTest.sol",
  "compiler": {
    "name": "solc",
    "version": "0.4.26+commit.4563c3fc.Emscripten.clang"
  },
  "schemaVersion": "3.1.0",
  "updatedAt": "2020-08-12T10:47:35.108Z",
  "devdoc": {
    "methods": {
      "calculateIv(uint32,uint8,uint256,uint256)": {
        "details": "function to get implied volatility for an asset\r",
        "params": {
          "expiration": "the option expiration which has been created in option manger contract\r",
          "price": "the option underlying strikePrice which has been created in option manger contract\r"
        },
        "return": "uint mantissa of asset implied volatility (scaled by 1e18) or zero if unset or contract paused\r"
      },
      "isOwner()": {
        "details": "Returns true if the caller is the current owner."
      },
      "owner()": {
        "details": "Returns the address of the current owner."
      },
      "renounceOwnership()": {
        "details": "Leaves the contract without owner. It will not be possible to call `onlyOwner` functions anymore. Can only be called by the current owner.     * NOTE: Renouncing ownership will leave the contract without an owner, thereby removing any functionality that is only available to the owner."
      },
      "transferOwnership(address)": {
        "details": "Transfers ownership of the contract to a new account (`newOwner`). Can only be called by the current owner."
      }
    }
  },
  "userdoc": {
    "methods": {
      "calculateIv(uint32,uint8,uint256,uint256)": {
        "notice": "retrieves implied volatility of an asset\r"
      }
    }
  }
}