{
  "contractName": "ManagerData",
  "abi": [
    {
      "anonymous": false,
      "inputs": [
        {
          "indexed": true,
          "internalType": "address",
          "name": "from",
          "type": "address"
        },
        {
          "indexed": true,
          "internalType": "address",
          "name": "collateral",
          "type": "address"
        },
        {
          "indexed": false,
          "internalType": "uint256",
          "name": "amount",
          "type": "uint256"
        },
        {
          "indexed": false,
          "internalType": "uint256",
          "name": "tokenAmount",
          "type": "uint256"
        }
      ],
      "name": "AddCollateral",
      "type": "event"
    },
    {
      "anonymous": false,
      "inputs": [
        {
          "indexed": true,
          "internalType": "address",
          "name": "from",
          "type": "address"
        },
        {
          "indexed": true,
          "internalType": "address",
          "name": "settlement",
          "type": "address"
        },
        {
          "indexed": true,
          "internalType": "uint256",
          "name": "optionId",
          "type": "uint256"
        },
        {
          "indexed": false,
          "internalType": "uint256",
          "name": "optionPrice",
          "type": "uint256"
        },
        {
          "indexed": false,
          "internalType": "uint256",
          "name": "settlementAmount",
          "type": "uint256"
        },
        {
          "indexed": false,
          "internalType": "uint256",
          "name": "optionAmount",
          "type": "uint256"
        }
      ],
      "name": "BuyOption",
      "type": "event"
    },
    {
      "anonymous": false,
      "inputs": [
        {
          "indexed": true,
          "internalType": "address",
          "name": "from",
          "type": "address"
        },
        {
          "indexed": true,
          "internalType": "uint256",
          "name": "optionId",
          "type": "uint256"
        },
        {
          "indexed": false,
          "internalType": "uint256",
          "name": "amount",
          "type": "uint256"
        },
        {
          "indexed": false,
          "internalType": "uint256",
          "name": "sellValue",
          "type": "uint256"
        }
      ],
      "name": "ExerciseOption",
      "type": "event"
    },
    {
      "anonymous": false,
      "inputs": [
        {
          "indexed": true,
          "internalType": "address",
          "name": "previousOwner",
          "type": "address"
        },
        {
          "indexed": true,
          "internalType": "address",
          "name": "newOwner",
          "type": "address"
        }
      ],
      "name": "OwnershipTransferred",
      "type": "event"
    },
    {
      "anonymous": false,
      "inputs": [
        {
          "indexed": true,
          "internalType": "address",
          "name": "from",
          "type": "address"
        },
        {
          "indexed": false,
          "internalType": "address",
          "name": "collateral",
          "type": "address"
        },
        {
          "indexed": false,
          "internalType": "uint256",
          "name": "allRedeem",
          "type": "uint256"
        }
      ],
      "name": "RedeemCollateral",
      "type": "event"
    },
    {
      "anonymous": false,
      "inputs": [
        {
          "indexed": true,
          "internalType": "address",
          "name": "from",
          "type": "address"
        },
        {
          "indexed": true,
          "internalType": "uint256",
          "name": "optionId",
          "type": "uint256"
        },
        {
          "indexed": false,
          "internalType": "uint256",
          "name": "amount",
          "type": "uint256"
        },
        {
          "indexed": false,
          "internalType": "uint256",
          "name": "sellValue",
          "type": "uint256"
        }
      ],
      "name": "SellOption",
      "type": "event"
    },
    {
      "constant": false,
      "inputs": [
        {
          "internalType": "address",
          "name": "addAddress",
          "type": "address"
        }
      ],
      "name": "addOperator",
      "outputs": [],
      "payable": false,
      "stateMutability": "nonpayable",
      "type": "function"
    },
    {
      "constant": false,
      "inputs": [
        {
          "internalType": "address",
          "name": "addAddress",
          "type": "address"
        }
      ],
      "name": "addWhiteList",
      "outputs": [],
      "payable": false,
      "stateMutability": "nonpayable",
      "type": "function"
    },
    {
      "constant": true,
      "inputs": [
        {
          "internalType": "address",
          "name": "tmpAddress",
          "type": "address"
        }
      ],
      "name": "checkAddressPayIn",
      "outputs": [
        {
          "internalType": "bool",
          "name": "",
          "type": "bool"
        }
      ],
      "payable": false,
      "stateMutability": "view",
      "type": "function"
    },
    {
      "constant": true,
      "inputs": [
        {
          "internalType": "address",
          "name": "tmpAddress",
          "type": "address"
        }
      ],
      "name": "checkAddressRedeemOut",
      "outputs": [
        {
          "internalType": "bool",
          "name": "",
          "type": "bool"
        }
      ],
      "payable": false,
      "stateMutability": "view",
      "type": "function"
    },
    {
      "constant": true,
      "inputs": [],
      "name": "getCollateralPoolAddress",
      "outputs": [
        {
          "internalType": "address",
          "name": "",
          "type": "address"
        }
      ],
      "payable": false,
      "stateMutability": "view",
      "type": "function"
    },
    {
      "constant": true,
      "inputs": [],
      "name": "getFPTCoinAddress",
      "outputs": [
        {
          "internalType": "address",
          "name": "",
          "type": "address"
        }
      ],
      "payable": false,
      "stateMutability": "view",
      "type": "function"
    },
    {
      "constant": true,
      "inputs": [],
      "name": "getOperator",
      "outputs": [
        {
          "internalType": "address[]",
          "name": "",
          "type": "address[]"
        }
      ],
      "payable": false,
      "stateMutability": "view",
      "type": "function"
    },
    {
      "constant": true,
      "inputs": [],
      "name": "getOptionsPoolAddress",
      "outputs": [
        {
          "internalType": "address",
          "name": "",
          "type": "address"
        }
      ],
      "payable": false,
      "stateMutability": "view",
      "type": "function"
    },
    {
      "constant": true,
      "inputs": [],
      "name": "getOptionsPriceAddress",
      "outputs": [
        {
          "internalType": "address",
          "name": "",
          "type": "address"
        }
      ],
      "payable": false,
      "stateMutability": "view",
      "type": "function"
    },
    {
      "constant": true,
      "inputs": [],
      "name": "getOracleAddress",
      "outputs": [
        {
          "internalType": "address",
          "name": "",
          "type": "address"
        }
      ],
      "payable": false,
      "stateMutability": "view",
      "type": "function"
    },
    {
      "constant": true,
      "inputs": [],
      "name": "getWhiteList",
      "outputs": [
        {
          "internalType": "address[]",
          "name": "",
          "type": "address[]"
        }
      ],
      "payable": false,
      "stateMutability": "view",
      "type": "function"
    },
    {
      "constant": true,
      "inputs": [
        {
          "internalType": "address",
          "name": "tmpAddress",
          "type": "address"
        }
      ],
      "name": "isEligibleAddress",
      "outputs": [
        {
          "internalType": "bool",
          "name": "",
          "type": "bool"
        }
      ],
      "payable": false,
      "stateMutability": "view",
      "type": "function"
    },
    {
      "constant": true,
      "inputs": [],
      "name": "isOwner",
      "outputs": [
        {
          "internalType": "bool",
          "name": "",
          "type": "bool"
        }
      ],
      "payable": false,
      "stateMutability": "view",
      "type": "function"
    },
    {
      "constant": false,
      "inputs": [
        {
          "internalType": "address",
          "name": "addAddress",
          "type": "address"
        },
        {
          "internalType": "uint256",
          "name": "permission",
          "type": "uint256"
        }
      ],
      "name": "modifyPermission",
      "outputs": [],
      "payable": false,
      "stateMutability": "nonpayable",
      "type": "function"
    },
    {
      "constant": true,
      "inputs": [],
      "name": "owner",
      "outputs": [
        {
          "internalType": "address",
          "name": "",
          "type": "address"
        }
      ],
      "payable": false,
      "stateMutability": "view",
      "type": "function"
    },
    {
      "constant": false,
      "inputs": [
        {
          "internalType": "address",
          "name": "removeAddress",
          "type": "address"
        }
      ],
      "name": "removeOperator",
      "outputs": [
        {
          "internalType": "bool",
          "name": "",
          "type": "bool"
        }
      ],
      "payable": false,
      "stateMutability": "nonpayable",
      "type": "function"
    },
    {
      "constant": false,
      "inputs": [
        {
          "internalType": "address",
          "name": "removeAddress",
          "type": "address"
        }
      ],
      "name": "removeWhiteList",
      "outputs": [
        {
          "internalType": "bool",
          "name": "",
          "type": "bool"
        }
      ],
      "payable": false,
      "stateMutability": "nonpayable",
      "type": "function"
    },
    {
      "constant": false,
      "inputs": [],
      "name": "renounceOwnership",
      "outputs": [],
      "payable": false,
      "stateMutability": "nonpayable",
      "type": "function"
    },
    {
      "constant": false,
      "inputs": [
        {
          "internalType": "address",
          "name": "collateralPool",
          "type": "address"
        }
      ],
      "name": "setCollateralPoolAddress",
      "outputs": [],
      "payable": false,
      "stateMutability": "nonpayable",
      "type": "function"
    },
    {
      "constant": false,
      "inputs": [
        {
          "internalType": "address",
          "name": "FPTCoinAddr",
          "type": "address"
        }
      ],
      "name": "setFPTCoinAddress",
      "outputs": [],
      "payable": false,
      "stateMutability": "nonpayable",
      "type": "function"
    },
    {
      "constant": false,
      "inputs": [
        {
          "internalType": "bool",
          "name": "halt",
          "type": "bool"
        }
      ],
      "name": "setHalt",
      "outputs": [],
      "payable": false,
      "stateMutability": "nonpayable",
      "type": "function"
    },
    {
      "constant": false,
      "inputs": [
        {
          "internalType": "address[]",
          "name": "operators",
          "type": "address[]"
        }
      ],
      "name": "setOperator",
      "outputs": [],
      "payable": false,
      "stateMutability": "nonpayable",
      "type": "function"
    },
    {
      "constant": false,
      "inputs": [
        {
          "internalType": "uint256",
          "name": "index",
          "type": "uint256"
        },
        {
          "internalType": "address",
          "name": "addAddress",
          "type": "address"
        }
      ],
      "name": "setOperator",
      "outputs": [],
      "payable": false,
      "stateMutability": "nonpayable",
      "type": "function"
    },
    {
      "constant": false,
      "inputs": [
        {
          "internalType": "address",
          "name": "optionsPool",
          "type": "address"
        }
      ],
      "name": "setOptionsPoolAddress",
      "outputs": [],
      "payable": false,
      "stateMutability": "nonpayable",
      "type": "function"
    },
    {
      "constant": false,
      "inputs": [
        {
          "internalType": "address",
          "name": "optionsPrice",
          "type": "address"
        }
      ],
      "name": "setOptionsPriceAddress",
      "outputs": [],
      "payable": false,
      "stateMutability": "nonpayable",
      "type": "function"
    },
    {
      "constant": false,
      "inputs": [
        {
          "internalType": "address",
          "name": "oracle",
          "type": "address"
        }
      ],
      "name": "setOracleAddress",
      "outputs": [],
      "payable": false,
      "stateMutability": "nonpayable",
      "type": "function"
    },
    {
      "constant": false,
      "inputs": [
        {
          "internalType": "address",
          "name": "newOwner",
          "type": "address"
        }
      ],
      "name": "transferOwnership",
      "outputs": [],
      "payable": false,
      "stateMutability": "nonpayable",
      "type": "function"
    }
  ],
  "bytecode": "0x60806040526000805460ff60a860020a60ff0201191690556c0c9f2c9cd04674edea40000000600a55633b9aca00600b556105dc600c556101f4600d5534801561004857600080fd5b50611214806100586000396000f3fe608060405234801561001057600080fd5b50600436106101c6576000357c0100000000000000000000000000000000000000000000000000000000900480639870d7fe11610116578063d7e57992116100b4578063e7cd4a041161008e578063e7cd4a0414610532578063e7f43c6814610558578063f2fde38b14610560578063f495438714610586576101c6565b8063d7e57992146104d8578063e7122ffd146104e0578063e7a1c1c014610506576101c6565b8063b18b78dd116100f0578063b18b78dd14610476578063bdac4bf61461047e578063c040725a146104a4578063c219043b146104ac576101c6565b80639870d7fe14610404578063a093e2d01461042a578063ac8a584a14610450576101c6565b806342082c1e11610183578063715018a61161015d578063715018a6146103c6578063817bf86d146103ce5780638da5cb5b146103f45780638f32d59b146103fc576101c6565b806342082c1e146102f55780634c69c00f146103985780635ca4b73b146103be576101c6565b8063059621d7146101cb57806309a9d76c146102055780631730b3cb1461025d5780631a5a3fce146102855780632042e5c2146102ab578063251e2fe3146102d1575b600080fd5b6101f1600480360360208110156101e157600080fd5b5035600160a060020a03166105a5565b604080519115158252519081900360200190f35b61020d6105dd565b60408051602080825283518183015283519192839290830191858101910280838360005b83811015610249578181015183820152602001610231565b505050509050019250505060405180910390f35b6102836004803603602081101561027357600080fd5b5035600160a060020a0316610640565b005b6102836004803603602081101561029b57600080fd5b5035600160a060020a03166106ac565b6101f1600480360360208110156102c157600080fd5b5035600160a060020a0316610718565b6102d9610775565b60408051600160a060020a039092168252519081900360200190f35b6102836004803603602081101561030b57600080fd5b81019060208101813564010000000081111561032657600080fd5b82018360208201111561033857600080fd5b8035906020019184602083028401116401000000008311171561035a57600080fd5b919080806020026020016040519081016040528093929190818152602001838360200280828437600092019190915250929550610784945050505050565b610283600480360360208110156103ae57600080fd5b5035600160a060020a03166107e5565b6102d9610851565b610283610860565b6101f1600480360360208110156103e457600080fd5b5035600160a060020a0316610906565b6102d9610975565b6101f1610989565b6102836004803603602081101561041a57600080fd5b5035600160a060020a031661099f565b6102836004803603602081101561044057600080fd5b5035600160a060020a03166109fd565b6101f16004803603602081101561046657600080fd5b5035600160a060020a0316610a69565b6102d9610ac6565b6101f16004803603602081101561049457600080fd5b5035600160a060020a0316610ad5565b6102d9610b09565b610283600480360360408110156104c257600080fd5b50600160a060020a038135169060200135610b18565b6102d9610b7e565b610283600480360360208110156104f657600080fd5b5035600160a060020a0316610b8d565b6102836004803603604081101561051c57600080fd5b5080359060200135600160a060020a0316610bf9565b6102836004803603602081101561054857600080fd5b5035600160a060020a0316610c83565b61020d610cfe565b6102836004803603602081101561057657600080fd5b5035600160a060020a0316610d5e565b6102836004803603602081101561059c57600080fd5b50351515610db1565b60006105b082610906565b80156105d75750600160a060020a0382166000908152600260208190526040909120548116145b92915050565b6060600180548060200260200160405190810160405280929190818152602001828054801561063557602002820191906000526020600020905b8154600160a060020a03168152600190910190602001808311610617575b505050505090505b90565b610648610989565b61068a576040805160e560020a62461bcd02815260206004820181905260248201526000805160206111c0833981519152604482015290519081900360640190fd5b60068054600160a060020a031916600160a060020a0392909216919091179055565b6106b4610989565b6106f6576040805160e560020a62461bcd02815260206004820181905260248201526000805160206111c0833981519152604482015290519081900360640190fd5b60058054600160a060020a031916600160a060020a0392909216919091179055565b6000610722610989565b610764576040805160e560020a62461bcd02815260206004820181905260248201526000805160206111c0833981519152604482015290519081900360640190fd5b6105d760018363ffffffff610e3d16565b600654600160a060020a031690565b61078c610989565b6107ce576040805160e560020a62461bcd02815260206004820181905260248201526000805160206111c0833981519152604482015290519081900360640190fd5b80516107e19060079060208401906110cd565b5050565b6107ed610989565b61082f576040805160e560020a62461bcd02815260206004820181905260248201526000805160206111c0833981519152604482015290519081900360640190fd5b60048054600160a060020a031916600160a060020a0392909216919091179055565b600854600160a060020a031690565b610868610989565b6108aa576040805160e560020a62461bcd02815260206004820181905260248201526000805160206111c0833981519152604482015290519081900360640190fd5b60008054604051610100909104600160a060020a0316907f8be0079c531659141344cd1fd0a4f28419497f9722a3daafe3b4186f6b6457e0908390a36000805474ffffffffffffffffffffffffffffffffffffffff0019169055565b60006105d782600180548060200260200160405190810160405280929190818152602001828054801561096257602002820191906000526020600020905b8154600160a060020a03168152600190910190602001808311610944575b5050505050610f2b90919063ffffffff16565b6000546101009004600160a060020a031690565b6000546101009004600160a060020a0316331490565b6109a7610989565b6109e9576040805160e560020a62461bcd02815260206004820181905260248201526000805160206111c0833981519152604482015290519081900360640190fd5b6109fa60078263ffffffff610f7a16565b50565b610a05610989565b610a47576040805160e560020a62461bcd02815260206004820181905260248201526000805160206111c0833981519152604482015290519081900360640190fd5b60088054600160a060020a031916600160a060020a0392909216919091179055565b6000610a73610989565b610ab5576040805160e560020a62461bcd02815260206004820181905260248201526000805160206111c0833981519152604482015290519081900360640190fd5b6105d760078363ffffffff610e3d16565b600454600160a060020a031690565b6000610ae082610906565b80156105d7575050600160a060020a031660009081526002602052604090205460019081161490565b600554600160a060020a031690565b610b20610989565b610b62576040805160e560020a62461bcd02815260206004820181905260248201526000805160206111c0833981519152604482015290519081900360640190fd5b600160a060020a03909116600090815260026020526040902055565b600354600160a060020a031690565b610b95610989565b610bd7576040805160e560020a62461bcd02815260206004820181905260248201526000805160206111c0833981519152604482015290519081900360640190fd5b60038054600160a060020a031916600160a060020a0392909216919091179055565b610c01610989565b610c43576040805160e560020a62461bcd02815260206004820181905260248201526000805160206111c0833981519152604482015290519081900360640190fd5b8060078381548110610c5157fe5b9060005260206000200160006101000a815481600160a060020a030219169083600160a060020a031602179055505050565b610c8b610989565b610ccd576040805160e560020a62461bcd02815260206004820181905260248201526000805160206111c0833981519152604482015290519081900360640190fd5b610cde60018263ffffffff610f7a16565b600160a060020a0316600090815260026020526040902063ffffffff9055565b6060600780548060200260200160405190810160405280929190818152602001828054801561063557602002820191906000526020600020908154600160a060020a03168152600190910190602001808311610617575050505050905090565b610d66610989565b610da8576040805160e560020a62461bcd02815260206004820181905260248201526000805160206111c0833981519152604482015290519081900360640190fd5b6109fa81611012565b610db9610989565b610dfb576040805160e560020a62461bcd02815260206004820181905260248201526000805160206111c0833981519152604482015290519081900360640190fd5b6000805491151575010000000000000000000000000000000000000000000275ff00000000000000000000000000000000000000000019909216919091179055565b8154600090815b81811015610e8a5783600160a060020a0316858281548110610e6257fe5b600091825260209091200154600160a060020a03161415610e8257610e8a565b600101610e44565b81811015610f2057600182038114610f0457846001830381548110610eab57fe5b9060005260206000200160009054906101000a9004600160a060020a0316858281548110610ed557fe5b9060005260206000200160006101000a815481600160a060020a030219169083600160a060020a031602179055505b8454610f14866000198301611132565b506001925050506105d7565b506000949350505050565b8151600090815b81811015610f205783600160a060020a0316858281518110610f5057fe5b6020026020010151600160a060020a03161415610f72576001925050506105d7565b600101610f32565b610fdd82805480602002602001604051908101604052809291908181526020018280548015610fd257602002820191906000526020600020905b8154600160a060020a03168152600190910190602001808311610fb4575b505050505082610f2b565b6107e1578154600181018355600083815260209020018054600160a060020a038316600160a060020a03199091161790555050565b600160a060020a03811661105a5760405160e560020a62461bcd02815260040180806020018281038252602681526020018061119a6026913960400191505060405180910390fd5b60008054604051600160a060020a038085169361010090930416917f8be0079c531659141344cd1fd0a4f28419497f9722a3daafe3b4186f6b6457e091a360008054600160a060020a039092166101000274ffffffffffffffffffffffffffffffffffffffff0019909216919091179055565b828054828255906000526020600020908101928215611122579160200282015b828111156111225782518254600160a060020a031916600160a060020a039091161782556020909201916001909101906110ed565b5061112e92915061115b565b5090565b8154818355818111156111565760008381526020902061115691810190830161117f565b505050565b61063d91905b8082111561112e578054600160a060020a0319168155600101611161565b61063d91905b8082111561112e576000815560010161118556fe4f776e61626c653a206e6577206f776e657220697320746865207a65726f20616464726573734f776e61626c653a2063616c6c6572206973206e6f7420746865206f776e6572a265627a7a72315820a6da990c8d0f94188d55f1537fc5d2dac6599564e9b1abf6fb52f8407aad5f8e64736f6c63430005100032",
  "source": "pragma solidity ^0.5.1;\r\nimport \"../modules/AddressWhiteList.sol\";\r\nimport \"../modules/ReentrancyGuard.sol\";\r\nimport \"../OptionsPool/IOptionsPool.sol\";\r\nimport \"../interfaces/IFNXOracle.sol\";\r\nimport \"../interfaces/IOptionsPrice.sol\";\r\nimport \"../CollateralPool/ICollateralPool.sol\";\r\nimport \"../FPTCoin/IFPTCoin.sol\";\r\nimport \"../modules/Operator.sol\";\r\nimport \"../ERC20/IERC20.sol\";\r\n/**\r\n * @title collateral calculate module\r\n * @dev A smart-contract which has operations of collateral and methods of calculate collateral occupation.\r\n *\r\n */\r\ncontract ManagerData is ReentrancyGuard,AddressWhiteList,ImportIFPTCoin,ImportOracle,ImportOptionsPool,ImportCollateralPool,Operator,ImportOptionsPrice {\r\n    // The minimum collateral rate for options. This value is thousandths.\r\n    mapping (address=>uint256) collateralRate;\r\n        //The maximum input amount limit.\r\n    uint256 internal maxAmount = 1e30;\r\n    //The minimum input amount limit.\r\n    uint256 internal minAmount = 1e9;\r\n//    uint256 private collateralRate = 5000;\r\n    /**\r\n     * @dev Emitted when `from` added `amount` collateral and minted `tokenAmount` FPTCoin.\r\n     */\r\n    event AddCollateral(address indexed from,address indexed collateral,uint256 amount,uint256 tokenAmount);\r\n    /**\r\n     * @dev Emitted when `from` redeemed `allRedeem` collateral.\r\n     */\r\n    event RedeemCollateral(address indexed from,address collateral,uint256 allRedeem);\r\n\r\n        /**\r\n    * @dev input price valid range rate, thousandths.\r\n    * the input price must greater than current price * minPriceRate /1000\r\n    *       and less  than current price * maxPriceRate /1000 \r\n    * maxPriceRate is the maximum limit of the price valid range rate\r\n    * maxPriceRate is the minimum limit of the price valid range rage\r\n    */   \r\n    uint256 internal maxPriceRate = 1500;\r\n    uint256 internal minPriceRate = 500;\r\n    /**\r\n     * @dev Emitted when `from` buy `optionAmount` option and create new option.\r\n     * @param from user's account\r\n     * @param settlement user's input settlement paid for buy new option.\r\n     * @param optionId new option's id\r\n     * @param optionPrice option's paid price\r\n     * @param settlementAmount settement cost\r\n     * @param optionAmount mint option token amount.\r\n     */  \r\n    event BuyOption(address indexed from,address indexed settlement,uint256 indexed optionId,uint256 optionPrice,uint256 settlementAmount,uint256 optionAmount);\r\n    /**\r\n     * @dev Emitted when `from` sell `amount` option whose id is `optionId` and received sellValue,priced in usd.\r\n     */  \r\n    event SellOption(address indexed from,uint256 indexed optionId,uint256 amount,uint256 sellValue);\r\n    /**\r\n     * @dev Emitted when `from` exercise `amount` option whose id is `optionId` and received sellValue,priced in usd.\r\n     */  \r\n    event ExerciseOption(address indexed from,uint256 indexed optionId,uint256 amount,uint256 sellValue);\r\n}\r\n",
  "sourcePath": "C:\\work\\solidity\\FinnexusOptions_V2\\contracts\\OptionsManager\\ManagerData.sol",
  "compiler": {
    "name": "solc",
    "version": "0.5.16+commit.9c3226ce.Emscripten.clang"
  },
  "schemaVersion": "3.1.0",
  "updatedAt": "2020-09-02T10:47:05.606Z",
  "devdoc": {
    "details": "A smart-contract which has operations of collateral and methods of calculate collateral occupation.  ",
    "methods": {
      "addOperator(address)": {
        "details": "add a new operator by owner.       "
      },
      "addWhiteList(address)": {
        "details": "Implementation of add an eligible address into the whitelist.",
        "params": {
          "addAddress": "new eligible address."
        }
      },
      "getOperator()": {
        "details": "get all operators.       "
      },
      "getWhiteList()": {
        "details": "Implementation of getting the eligible whitelist."
      },
      "isEligibleAddress(address)": {
        "details": "Implementation of testing whether the input address is eligible.",
        "params": {
          "tmpAddress": "input address for testing."
        }
      },
      "isOwner()": {
        "details": "Returns true if the caller is the current owner."
      },
      "owner()": {
        "details": "Returns the address of the current owner."
      },
      "removeOperator(address)": {
        "details": "remove operator by owner.       "
      },
      "removeWhiteList(address)": {
        "details": "Implementation of revoke an invalid address from the whitelist.",
        "params": {
          "removeAddress": "revoked address."
        }
      },
      "renounceOwnership()": {
        "details": "Leaves the contract without owner. It will not be possible to call `onlyOwner` functions anymore. Can only be called by the current owner.      * NOTE: Renouncing ownership will leave the contract without an owner, thereby removing any functionality that is only available to the owner."
      },
      "setOperator(address[])": {
        "details": "set all operators by owner.       "
      },
      "setOperator(uint256,address)": {
        "details": "modify indexed operator by owner.       "
      },
      "transferOwnership(address)": {
        "details": "Transfers ownership of the contract to a new account (`newOwner`). Can only be called by the current owner."
      }
    },
    "title": "collateral calculate module"
  },
  "userdoc": {
    "methods": {
      "setHalt(bool)": {
        "notice": "function Emergency situation that requires contribution period to stop or not."
      }
    }
  }
}