{
  "contractName": "MinePoolManager",
  "abi": [
    {
      "constant": true,
      "inputs": [],
      "name": "getOptionsPriceAddress",
      "outputs": [
        {
          "name": "",
          "type": "address"
        }
      ],
      "payable": false,
      "stateMutability": "view",
      "type": "function"
    },
    {
      "constant": false,
      "inputs": [],
      "name": "renounceOwnership",
      "outputs": [],
      "payable": false,
      "stateMutability": "nonpayable",
      "type": "function"
    },
    {
      "constant": true,
      "inputs": [],
      "name": "owner",
      "outputs": [
        {
          "name": "",
          "type": "address"
        }
      ],
      "payable": false,
      "stateMutability": "view",
      "type": "function"
    },
    {
      "constant": true,
      "inputs": [],
      "name": "isOwner",
      "outputs": [
        {
          "name": "",
          "type": "bool"
        }
      ],
      "payable": false,
      "stateMutability": "view",
      "type": "function"
    },
    {
      "constant": false,
      "inputs": [
        {
          "name": "fnxMinePool",
          "type": "address"
        }
      ],
      "name": "setOptionsPriceAddress",
      "outputs": [],
      "payable": false,
      "stateMutability": "nonpayable",
      "type": "function"
    },
    {
      "constant": false,
      "inputs": [
        {
          "name": "newOwner",
          "type": "address"
        }
      ],
      "name": "transferOwnership",
      "outputs": [],
      "payable": false,
      "stateMutability": "nonpayable",
      "type": "function"
    },
    {
      "anonymous": false,
      "inputs": [
        {
          "indexed": true,
          "name": "previousOwner",
          "type": "address"
        },
        {
          "indexed": true,
          "name": "newOwner",
          "type": "address"
        }
      ],
      "name": "OwnershipTransferred",
      "type": "event"
    },
    {
      "constant": false,
      "inputs": [
        {
          "name": "collateral",
          "type": "address"
        },
        {
          "name": "thousandths",
          "type": "uint256"
        }
      ],
      "name": "setCollateralMinerRate",
      "outputs": [],
      "payable": false,
      "stateMutability": "nonpayable",
      "type": "function"
    },
    {
      "constant": false,
      "inputs": [
        {
          "name": "settlement",
          "type": "address"
        },
        {
          "name": "thousandths",
          "type": "uint256"
        }
      ],
      "name": "setBuyerMinerRate",
      "outputs": [],
      "payable": false,
      "stateMutability": "nonpayable",
      "type": "function"
    },
    {
      "constant": true,
      "inputs": [
        {
          "name": "collateral",
          "type": "address"
        }
      ],
      "name": "getCollateralMinerRate",
      "outputs": [
        {
          "name": "",
          "type": "uint256"
        }
      ],
      "payable": false,
      "stateMutability": "view",
      "type": "function"
    },
    {
      "constant": true,
      "inputs": [
        {
          "name": "settlement",
          "type": "address"
        }
      ],
      "name": "getBuyerMinerRate",
      "outputs": [
        {
          "name": "",
          "type": "uint256"
        }
      ],
      "payable": false,
      "stateMutability": "view",
      "type": "function"
    }
  ],
  "bytecode": "0x6080604081905260008054600160a060020a0319163317808255600160a060020a0316917f8be0079c531659141344cd1fd0a4f28419497f9722a3daafe3b4186f6b6457e0908290a3610529806100576000396000f3006080604052600436106100a35763ffffffff7c01000000000000000000000000000000000000000000000000000000006000350416632c79414f81146100a8578063328ed62b146100db5780635ca4b73b14610101578063715018a6146101325780638da5cb5b146101475780638f32d59b1461015c578063a093e2d014610185578063a46e5d97146100db578063b2a30298146100a8578063f2fde38b146101a6575b600080fd5b3480156100b457600080fd5b506100c9600160a060020a03600435166101c7565b60408051918252519081900360200190f35b3480156100e757600080fd5b506100ff600160a060020a03600435166024356101e2565b005b34801561010d57600080fd5b5061011661024a565b60408051600160a060020a039092168252519081900360200190f35b34801561013e57600080fd5b506100ff610259565b34801561015357600080fd5b506101166102fc565b34801561016857600080fd5b5061017161030b565b604080519115158252519081900360200190f35b34801561019157600080fd5b506100ff600160a060020a036004351661031c565b3480156101b257600080fd5b506100ff600160a060020a0360043516610397565b600160a060020a031660009081526002602052604090205490565b6101ea61030b565b151561022e576040805160e560020a62461bcd02815260206004820181905260248201526000805160206104de833981519152604482015290519081900360640190fd5b600160a060020a03909116600090815260026020526040902055565b600154600160a060020a031690565b61026161030b565b15156102a5576040805160e560020a62461bcd02815260206004820181905260248201526000805160206104de833981519152604482015290519081900360640190fd5b60008054604051600160a060020a03909116907f8be0079c531659141344cd1fd0a4f28419497f9722a3daafe3b4186f6b6457e0908390a36000805473ffffffffffffffffffffffffffffffffffffffff19169055565b600054600160a060020a031690565b600054600160a060020a0316331490565b61032461030b565b1515610368576040805160e560020a62461bcd02815260206004820181905260248201526000805160206104de833981519152604482015290519081900360640190fd5b6001805473ffffffffffffffffffffffffffffffffffffffff1916600160a060020a0392909216919091179055565b61039f61030b565b15156103e3576040805160e560020a62461bcd02815260206004820181905260248201526000805160206104de833981519152604482015290519081900360640190fd5b6103ec816103ef565b50565b600160a060020a0381161515610475576040805160e560020a62461bcd02815260206004820152602660248201527f4f776e61626c653a206e6577206f776e657220697320746865207a65726f206160448201527f6464726573730000000000000000000000000000000000000000000000000000606482015290519081900360840190fd5b60008054604051600160a060020a03808516939216917f8be0079c531659141344cd1fd0a4f28419497f9722a3daafe3b4186f6b6457e091a36000805473ffffffffffffffffffffffffffffffffffffffff1916600160a060020a039290921691909117905556004f776e61626c653a2063616c6c6572206973206e6f7420746865206f776e6572a165627a7a72305820d0f98c375e330dd8c9bc2f85508fb8e2c66c27ab4d340152012f788b635210b20029",
  "source": "pragma solidity ^0.4.26;\r\nimport \"./interfaces/IFNXMinePool.sol\";\r\nimport \"./modules/SafeMath.sol\";\r\ncontract MinePoolManager is ImportFNXMinePool{\r\n    using SafeMath for uint256;\r\n    mapping(address=>uint256) collateralMinerRate;\r\n    mapping(address=>uint256) buyerMinerRate;\r\n    uint256 constant _calDecimal = 1000;\r\n    function setCollateralMinerRate(address collateral,uint256 thousandths) public onlyOwner{\r\n        collateralMinerRate[collateral] = thousandths;\r\n    }\r\n    function setBuyerMinerRate(address settlement,uint256 thousandths) public onlyOwner{\r\n        collateralMinerRate[settlement] = thousandths;\r\n    }\r\n    function getCollateralMinerRate(address collateral) public view returns(uint256){\r\n        return collateralMinerRate[collateral];\r\n    }\r\n    function getBuyerMinerRate(address settlement) public view returns(uint256){\r\n        return collateralMinerRate[settlement];\r\n    }\r\n    function addCollateralMiner(address acount,address collateral,uint256 amount) internal {\r\n        uint256 mineAmount = amount.mul(collateralMinerRate[collateral]).div(_calDecimal);\r\n        _FnxMinePool.mintMinerCoin(acount,mineAmount);\r\n    }\r\n    function burnCollateralMiner(address acount,address collateral,uint256 amount) internal {\r\n        uint256 mineAmount = amount.mul(collateralMinerRate[collateral]).div(_calDecimal);\r\n        _FnxMinePool.burnMinerCoin(acount,mineAmount);\r\n    }\r\n    function AddBuyerMineCoin(address acount,address settlement,uint256 amount) internal {\r\n        uint256 mineAmount = amount.mul(buyerMinerRate[settlement]).div(_calDecimal);\r\n        _FnxMinePool.addMinerBalance(acount,mineAmount);\r\n    }\r\n}",
  "sourcePath": "C:\\work\\solidity\\FinnexusOptions_V2\\contracts\\MinePoolManager.sol",
  "compiler": {
    "name": "solc",
    "version": "0.4.26+commit.4563c3fc.Emscripten.clang"
  },
  "schemaVersion": "3.1.0",
  "updatedAt": "2020-07-28T14:35:12.754Z",
  "devdoc": {
    "methods": {
      "isOwner()": {
        "details": "Returns true if the caller is the current owner."
      },
      "owner()": {
        "details": "Returns the address of the current owner."
      },
      "renounceOwnership()": {
        "details": "Leaves the contract without owner. It will not be possible to call `onlyOwner` functions anymore. Can only be called by the current owner.     * NOTE: Renouncing ownership will leave the contract without an owner, thereby removing any functionality that is only available to the owner."
      },
      "transferOwnership(address)": {
        "details": "Transfers ownership of the contract to a new account (`newOwner`). Can only be called by the current owner."
      }
    }
  },
  "userdoc": {
    "methods": {}
  }
}