{
  "contractName": "Operator",
  "abi": [
    {
      "anonymous": false,
      "inputs": [
        {
          "indexed": true,
          "internalType": "address",
          "name": "previousOwner",
          "type": "address"
        },
        {
          "indexed": true,
          "internalType": "address",
          "name": "newOwner",
          "type": "address"
        }
      ],
      "name": "OwnershipTransferred",
      "type": "event"
    },
    {
      "constant": true,
      "inputs": [],
      "name": "isOwner",
      "outputs": [
        {
          "internalType": "bool",
          "name": "",
          "type": "bool"
        }
      ],
      "payable": false,
      "stateMutability": "view",
      "type": "function"
    },
    {
      "constant": true,
      "inputs": [],
      "name": "owner",
      "outputs": [
        {
          "internalType": "address",
          "name": "",
          "type": "address"
        }
      ],
      "payable": false,
      "stateMutability": "view",
      "type": "function"
    },
    {
      "constant": false,
      "inputs": [],
      "name": "renounceOwnership",
      "outputs": [],
      "payable": false,
      "stateMutability": "nonpayable",
      "type": "function"
    },
    {
      "constant": false,
      "inputs": [
        {
          "internalType": "address",
          "name": "newOwner",
          "type": "address"
        }
      ],
      "name": "transferOwnership",
      "outputs": [],
      "payable": false,
      "stateMutability": "nonpayable",
      "type": "function"
    },
    {
      "constant": false,
      "inputs": [
        {
          "internalType": "address",
          "name": "addAddress",
          "type": "address"
        }
      ],
      "name": "addOperator",
      "outputs": [],
      "payable": false,
      "stateMutability": "nonpayable",
      "type": "function"
    },
    {
      "constant": false,
      "inputs": [
        {
          "internalType": "uint256",
          "name": "index",
          "type": "uint256"
        },
        {
          "internalType": "address",
          "name": "addAddress",
          "type": "address"
        }
      ],
      "name": "setOperator",
      "outputs": [],
      "payable": false,
      "stateMutability": "nonpayable",
      "type": "function"
    },
    {
      "constant": false,
      "inputs": [
        {
          "internalType": "address",
          "name": "removeAddress",
          "type": "address"
        }
      ],
      "name": "removeOperator",
      "outputs": [
        {
          "internalType": "bool",
          "name": "",
          "type": "bool"
        }
      ],
      "payable": false,
      "stateMutability": "nonpayable",
      "type": "function"
    },
    {
      "constant": true,
      "inputs": [],
      "name": "getOperator",
      "outputs": [
        {
          "internalType": "address[]",
          "name": "",
          "type": "address[]"
        }
      ],
      "payable": false,
      "stateMutability": "view",
      "type": "function"
    },
    {
      "constant": false,
      "inputs": [
        {
          "internalType": "address[]",
          "name": "operators",
          "type": "address[]"
        }
      ],
      "name": "setOperators",
      "outputs": [],
      "payable": false,
      "stateMutability": "nonpayable",
      "type": "function"
    }
  ],
  "bytecode": "0x6080604081905260008054600160a060020a0319163317808255600160a060020a0316917f8be0079c531659141344cd1fd0a4f28419497f9722a3daafe3b4186f6b6457e0908290a36109ae806100576000396000f3fe608060405234801561001057600080fd5b50600436106100b0576000357c010000000000000000000000000000000000000000000000000000000090048063ac8a584a11610083578063ac8a584a14610125578063ddf71cd51461014b578063e7a1c1c0146101ee578063e7f43c681461021a578063f2fde38b14610272576100b0565b8063715018a6146100b55780638da5cb5b146100bf5780638f32d59b146100e35780639870d7fe146100ff575b600080fd5b6100bd610298565b005b6100c7610339565b60408051600160a060020a039092168252519081900360200190f35b6100eb610349565b604080519115158252519081900360200190f35b6100bd6004803603602081101561011557600080fd5b5035600160a060020a031661035a565b6100eb6004803603602081101561013b57600080fd5b5035600160a060020a03166103b8565b6100bd6004803603602081101561016157600080fd5b81019060208101813564010000000081111561017c57600080fd5b82018360208201111561018e57600080fd5b803590602001918460208302840111640100000000831117156101b057600080fd5b91908080602002602001604051908101604052809392919081815260200183836020028082843760009201919091525092955061041b945050505050565b6100bd6004803603604081101561020457600080fd5b5080359060200135600160a060020a031661047c565b610222610506565b60408051602080825283518183015283519192839290830191858101910280838360005b8381101561025e578181015183820152602001610246565b505050509050019250505060405180910390f35b6100bd6004803603602081101561028857600080fd5b5035600160a060020a0316610568565b6102a0610349565b6102e2576040805160e560020a62461bcd028152602060048201819052602482015260008051602061095a833981519152604482015290519081900360640190fd5b60008054604051600160a060020a03909116907f8be0079c531659141344cd1fd0a4f28419497f9722a3daafe3b4186f6b6457e0908390a36000805473ffffffffffffffffffffffffffffffffffffffff19169055565b600054600160a060020a03165b90565b600054600160a060020a0316331490565b610362610349565b6103a4576040805160e560020a62461bcd028152602060048201819052602482015260008051602061095a833981519152604482015290519081900360640190fd5b6103b560018263ffffffff6105bb16565b50565b60006103c2610349565b610404576040805160e560020a62461bcd028152602060048201819052602482015260008051602061095a833981519152604482015290519081900360640190fd5b61041560018363ffffffff61066016565b92915050565b610423610349565b610465576040805160e560020a62461bcd028152602060048201819052602482015260008051602061095a833981519152604482015290519081900360640190fd5b805161047890600190602084019061084d565b5050565b610484610349565b6104c6576040805160e560020a62461bcd028152602060048201819052602482015260008051602061095a833981519152604482015290519081900360640190fd5b80600183815481106104d457fe5b9060005260206000200160006101000a815481600160a060020a030219169083600160a060020a031602179055505050565b6060600180548060200260200160405190810160405280929190818152602001828054801561055e57602002820191906000526020600020905b8154600160a060020a03168152600190910190602001808311610540575b5050505050905090565b610570610349565b6105b2576040805160e560020a62461bcd028152602060048201819052602482015260008051602061095a833981519152604482015290519081900360640190fd5b6103b58161074e565b61061e8280548060200260200160405190810160405280929190818152602001828054801561061357602002820191906000526020600020905b8154600160a060020a031681526001909101906020018083116105f5575b5050505050826107fe565b610478578154600181018355600083815260209020018054600160a060020a03831673ffffffffffffffffffffffffffffffffffffffff199091161790555050565b8154600090815b818110156106ad5783600160a060020a031685828154811061068557fe5b600091825260209091200154600160a060020a031614156106a5576106ad565b600101610667565b8181101561074357600182038114610727578460018303815481106106ce57fe5b9060005260206000200160009054906101000a9004600160a060020a03168582815481106106f857fe5b9060005260206000200160006101000a815481600160a060020a030219169083600160a060020a031602179055505b84546107378660001983016108bf565b50600192505050610415565b506000949350505050565b600160a060020a0381166107965760405160e560020a62461bcd0281526004018080602001828103825260268152602001806109346026913960400191505060405180910390fd5b60008054604051600160a060020a03808516939216917f8be0079c531659141344cd1fd0a4f28419497f9722a3daafe3b4186f6b6457e091a36000805473ffffffffffffffffffffffffffffffffffffffff1916600160a060020a0392909216919091179055565b8151600090815b818110156107435783600160a060020a031685828151811061082357fe5b6020026020010151600160a060020a0316141561084557600192505050610415565b600101610805565b8280548282559060005260206000209081019282156108af579160200282015b828111156108af578251825473ffffffffffffffffffffffffffffffffffffffff1916600160a060020a0390911617825560209092019160019091019061086d565b506108bb9291506108e8565b5090565b8154818355818111156108e3576000838152602090206108e3918101908301610919565b505050565b61034691905b808211156108bb57805473ffffffffffffffffffffffffffffffffffffffff191681556001016108ee565b61034691905b808211156108bb576000815560010161091f56fe4f776e61626c653a206e6577206f776e657220697320746865207a65726f20616464726573734f776e61626c653a2063616c6c6572206973206e6f7420746865206f776e6572a265627a7a723158201b52a22900e53abd6d901537cf728dc6decdc9fe4cd47ace7bca1b05c66d5bca64736f6c63430005100032",
  "source": "pragma solidity =0.5.16;\r\nimport './Ownable.sol';\r\nimport \"./whiteList.sol\";\r\n/**\r\n * @dev Contract module which provides a basic access control mechanism, where\r\n * each operator can be granted exclusive access to specific functions.\r\n *\r\n */\r\ncontract Operator is Ownable {\r\n    using whiteListAddress for address[];\r\n    address[] private _operatorList;\r\n    /**\r\n     * @dev modifier, every operator can be granted exclusive access to specific functions. \r\n     *\r\n     */\r\n    modifier onlyOperator() {\r\n        require(_operatorList.isEligibleAddress(msg.sender),\"Managerable: caller is not the Operator\");\r\n        _;\r\n    }\r\n    /**\r\n     * @dev modifier, Only indexed operator can be granted exclusive access to specific functions. \r\n     *\r\n     */\r\n    modifier onlyOperatorIndex(uint256 index) {\r\n        require(_operatorList.length>index && _operatorList[index] == msg.sender,\"Operator: caller is not the eligible Operator\");\r\n        _;\r\n    }\r\n    /**\r\n     * @dev add a new operator by owner. \r\n     *\r\n     */\r\n    function addOperator(address addAddress)public onlyOwner{\r\n        _operatorList.addWhiteListAddress(addAddress);\r\n    }\r\n    /**\r\n     * @dev modify indexed operator by owner. \r\n     *\r\n     */\r\n    function setOperator(uint256 index,address addAddress)public onlyOwner{\r\n        _operatorList[index] = addAddress;\r\n    }\r\n    /**\r\n     * @dev remove operator by owner. \r\n     *\r\n     */\r\n    function removeOperator(address removeAddress)public onlyOwner returns (bool){\r\n        return _operatorList.removeWhiteListAddress(removeAddress);\r\n    }\r\n    /**\r\n     * @dev get all operators. \r\n     *\r\n     */\r\n    function getOperator()public view returns (address[] memory) {\r\n        return _operatorList;\r\n    }\r\n    /**\r\n     * @dev set all operators by owner. \r\n     *\r\n     */\r\n    function setOperators(address[] memory operators)public onlyOwner {\r\n        _operatorList = operators;\r\n    }\r\n}",
  "sourcePath": "C:\\work\\solidity\\FinnexusOptions_V2\\contracts\\modules\\Operator.sol",
  "compiler": {
    "name": "solc",
    "version": "0.5.16+commit.9c3226ce.Emscripten.clang"
  },
  "schemaVersion": "3.1.0",
  "updatedAt": "2020-10-21T03:26:50.646Z",
  "devdoc": {
    "details": "Contract module which provides a basic access control mechanism, where each operator can be granted exclusive access to specific functions.  ",
    "methods": {
      "addOperator(address)": {
        "details": "add a new operator by owner.       "
      },
      "getOperator()": {
        "details": "get all operators.       "
      },
      "isOwner()": {
        "details": "Returns true if the caller is the current owner."
      },
      "owner()": {
        "details": "Returns the address of the current owner."
      },
      "removeOperator(address)": {
        "details": "remove operator by owner.       "
      },
      "renounceOwnership()": {
        "details": "Leaves the contract without owner. It will not be possible to call `onlyOwner` functions anymore. Can only be called by the current owner.      * NOTE: Renouncing ownership will leave the contract without an owner, thereby removing any functionality that is only available to the owner."
      },
      "setOperator(uint256,address)": {
        "details": "modify indexed operator by owner.       "
      },
      "setOperators(address[])": {
        "details": "set all operators by owner.       "
      },
      "transferOwnership(address)": {
        "details": "Transfers ownership of the contract to a new account (`newOwner`). Can only be called by the current owner."
      }
    }
  },
  "userdoc": {
    "methods": {}
  }
}