{
  "contractName": "Operator",
  "abi": [
    {
      "constant": false,
      "inputs": [],
      "name": "renounceOwnership",
      "outputs": [],
      "payable": false,
      "stateMutability": "nonpayable",
      "type": "function"
    },
    {
      "constant": true,
      "inputs": [],
      "name": "owner",
      "outputs": [
        {
          "name": "",
          "type": "address"
        }
      ],
      "payable": false,
      "stateMutability": "view",
      "type": "function"
    },
    {
      "constant": true,
      "inputs": [],
      "name": "isOwner",
      "outputs": [
        {
          "name": "",
          "type": "bool"
        }
      ],
      "payable": false,
      "stateMutability": "view",
      "type": "function"
    },
    {
      "constant": true,
      "inputs": [
        {
          "name": "",
          "type": "uint256"
        }
      ],
      "name": "_operatorList",
      "outputs": [
        {
          "name": "",
          "type": "address"
        }
      ],
      "payable": false,
      "stateMutability": "view",
      "type": "function"
    },
    {
      "constant": false,
      "inputs": [
        {
          "name": "newOwner",
          "type": "address"
        }
      ],
      "name": "transferOwnership",
      "outputs": [],
      "payable": false,
      "stateMutability": "nonpayable",
      "type": "function"
    },
    {
      "anonymous": false,
      "inputs": [
        {
          "indexed": true,
          "name": "previousOwner",
          "type": "address"
        },
        {
          "indexed": true,
          "name": "newOwner",
          "type": "address"
        }
      ],
      "name": "OwnershipTransferred",
      "type": "event"
    },
    {
      "constant": false,
      "inputs": [
        {
          "name": "addAddress",
          "type": "address"
        }
      ],
      "name": "addOperator",
      "outputs": [],
      "payable": false,
      "stateMutability": "nonpayable",
      "type": "function"
    },
    {
      "constant": false,
      "inputs": [
        {
          "name": "index",
          "type": "uint256"
        },
        {
          "name": "addAddress",
          "type": "address"
        }
      ],
      "name": "setOperator",
      "outputs": [],
      "payable": false,
      "stateMutability": "nonpayable",
      "type": "function"
    },
    {
      "constant": false,
      "inputs": [
        {
          "name": "removeAddress",
          "type": "address"
        }
      ],
      "name": "removeOperator",
      "outputs": [
        {
          "name": "",
          "type": "bool"
        }
      ],
      "payable": false,
      "stateMutability": "nonpayable",
      "type": "function"
    },
    {
      "constant": true,
      "inputs": [],
      "name": "getOperator",
      "outputs": [
        {
          "name": "",
          "type": "address[]"
        }
      ],
      "payable": false,
      "stateMutability": "view",
      "type": "function"
    }
  ],
  "bytecode": "0x6080604081905260008054600160a060020a0319163317808255600160a060020a0316917f8be0079c531659141344cd1fd0a4f28419497f9722a3daafe3b4186f6b6457e0908290a3610863806100576000396000f3006080604052600436106100985763ffffffff7c0100000000000000000000000000000000000000000000000000000000600035041663715018a6811461009d5780638da5cb5b146100b45780638f32d59b146100e55780639870d7fe1461010e5780639b16bfaf1461012f578063ac8a584a14610147578063e7a1c1c014610168578063e7f43c681461018c578063f2fde38b146101f1575b600080fd5b3480156100a957600080fd5b506100b2610212565b005b3480156100c057600080fd5b506100c96102b5565b60408051600160a060020a039092168252519081900360200190f35b3480156100f157600080fd5b506100fa6102c5565b604080519115158252519081900360200190f35b34801561011a57600080fd5b506100b2600160a060020a03600435166102d6565b34801561013b57600080fd5b506100c9600435610330565b34801561015357600080fd5b506100fa600160a060020a0360043516610358565b34801561017457600080fd5b506100b2600435600160a060020a03602435166103b7565b34801561019857600080fd5b506101a1610445565b60408051602080825283518183015283519192839290830191858101910280838360005b838110156101dd5781810151838201526020016101c5565b505050509050019250505060405180910390f35b3480156101fd57600080fd5b506100b2600160a060020a03600435166104a7565b61021a6102c5565b151561025e576040805160e560020a62461bcd0281526020600482018190526024820152600080516020610818833981519152604482015290519081900360640190fd5b60008054604051600160a060020a03909116907f8be0079c531659141344cd1fd0a4f28419497f9722a3daafe3b4186f6b6457e0908390a36000805473ffffffffffffffffffffffffffffffffffffffff19169055565b600054600160a060020a03165b90565b600054600160a060020a0316331490565b6102de6102c5565b1515610322576040805160e560020a62461bcd0281526020600482018190526024820152600080516020610818833981519152604482015290519081900360640190fd5b61032d6001826104fc565b50565b600180548290811061033e57fe5b600091825260209091200154600160a060020a0316905081565b60006103626102c5565b15156103a6576040805160e560020a62461bcd0281526020600482018190526024820152600080516020610818833981519152604482015290519081900360640190fd5b6103b16001836105a2565b92915050565b6103bf6102c5565b1515610403576040805160e560020a62461bcd0281526020600482018190526024820152600080516020610818833981519152604482015290519081900360640190fd5b8060018381548110151561041357fe5b9060005260206000200160006101000a815481600160a060020a030219169083600160a060020a031602179055505050565b6060600180548060200260200160405190810160405280929190818152602001828054801561049d57602002820191906000526020600020905b8154600160a060020a0316815260019091019060200180831161047f575b5050505050905090565b6104af6102c5565b15156104f3576040805160e560020a62461bcd0281526020600482018190526024820152600080516020610818833981519152604482015290519081900360640190fd5b61032d81610691565b61055f8280548060200260200160405190810160405280929190818152602001828054801561055457602002820191906000526020600020905b8154600160a060020a03168152600190910190602001808311610536575b50505050508261077f565b151561059e57815460018101835560008381526020902001805473ffffffffffffffffffffffffffffffffffffffff1916600160a060020a0383161790555b5050565b8154600090815b818110156105f15783600160a060020a031685828154811015156105c957fe5b600091825260209091200154600160a060020a031614156105e9576105f1565b6001016105a9565b81811015610684576000198201811461066a57846001830381548110151561061557fe5b6000918252602090912001548554600160a060020a039091169086908390811061063b57fe5b9060005260206000200160006101000a815481600160a060020a030219169083600160a060020a031602179055505b845461067a8660001983016107d0565b5060019250610689565b600092505b505092915050565b600160a060020a0381161515610717576040805160e560020a62461bcd02815260206004820152602660248201527f4f776e61626c653a206e6577206f776e657220697320746865207a65726f206160448201527f6464726573730000000000000000000000000000000000000000000000000000606482015290519081900360840190fd5b60008054604051600160a060020a03808516939216917f8be0079c531659141344cd1fd0a4f28419497f9722a3daafe3b4186f6b6457e091a36000805473ffffffffffffffffffffffffffffffffffffffff1916600160a060020a0392909216919091179055565b8151600090815b818110156106845783600160a060020a031685828151811015156107a657fe5b90602001906020020151600160a060020a031614156107c85760019250610689565b600101610786565b8154818355818111156107f4576000838152602090206107f49181019083016107f9565b505050565b6102c291905b8082111561081357600081556001016107ff565b509056004f776e61626c653a2063616c6c6572206973206e6f7420746865206f776e6572a165627a7a7230582001b766d5381eec2cf3f694d60de161530e73670ceea8110992f93a34841f847e0029",
  "source": "pragma solidity ^0.4.11;\r\nimport './Ownable.sol';\r\nimport \"./whiteList.sol\";\r\ncontract Operator is Ownable {\r\n\r\n    address[] public _operatorList;\r\n    modifier onlyOperator() {\r\n        require(whiteListAddress.isEligibleAddress(_operatorList,msg.sender),\"Managerable: caller is not the Operator\");\r\n        _;\r\n    }\r\n    modifier onlyOperatorIndex(uint256 index) {\r\n        require(_operatorList.length>index && _operatorList[index] == msg.sender,\"Managerable: caller is not the eligible Operator\");\r\n        _;\r\n    }\r\n    function addOperator(address addAddress)public onlyOwner{\r\n        whiteListAddress.addWhiteListAddress(_operatorList,addAddress);\r\n    }\r\n    function setOperator(uint256 index,address addAddress)public onlyOwner{\r\n        _operatorList[index] = addAddress;\r\n    }\r\n    function removeOperator(address removeAddress)public onlyOwner returns (bool){\r\n        return whiteListAddress.removeWhiteListAddress(_operatorList,removeAddress);\r\n    }\r\n    function getOperator()public view returns (address[]) {\r\n        return _operatorList;\r\n    }\r\n}",
  "sourcePath": "C:\\work\\solidity\\FinnexusOptions_V2\\contracts\\modules\\Operator.sol",
  "compiler": {
    "name": "solc",
    "version": "0.4.26+commit.4563c3fc.Emscripten.clang"
  },
  "schemaVersion": "3.1.0",
  "updatedAt": "2020-07-31T09:18:35.290Z",
  "devdoc": {
    "methods": {
      "isOwner()": {
        "details": "Returns true if the caller is the current owner."
      },
      "owner()": {
        "details": "Returns the address of the current owner."
      },
      "renounceOwnership()": {
        "details": "Leaves the contract without owner. It will not be possible to call `onlyOwner` functions anymore. Can only be called by the current owner.     * NOTE: Renouncing ownership will leave the contract without an owner, thereby removing any functionality that is only available to the owner."
      },
      "transferOwnership(address)": {
        "details": "Transfers ownership of the contract to a new account (`newOwner`). Can only be called by the current owner."
      }
    }
  },
  "userdoc": {
    "methods": {}
  }
}