{
  "contractName": "Operator",
  "abi": [
    {
      "constant": false,
      "inputs": [],
      "name": "renounceOwnership",
      "outputs": [],
      "payable": false,
      "stateMutability": "nonpayable",
      "type": "function"
    },
    {
      "constant": true,
      "inputs": [],
      "name": "owner",
      "outputs": [
        {
          "name": "",
          "type": "address"
        }
      ],
      "payable": false,
      "stateMutability": "view",
      "type": "function"
    },
    {
      "constant": true,
      "inputs": [],
      "name": "isOwner",
      "outputs": [
        {
          "name": "",
          "type": "bool"
        }
      ],
      "payable": false,
      "stateMutability": "view",
      "type": "function"
    },
    {
      "constant": false,
      "inputs": [
        {
          "name": "newOwner",
          "type": "address"
        }
      ],
      "name": "transferOwnership",
      "outputs": [],
      "payable": false,
      "stateMutability": "nonpayable",
      "type": "function"
    },
    {
      "anonymous": false,
      "inputs": [
        {
          "indexed": true,
          "name": "previousOwner",
          "type": "address"
        },
        {
          "indexed": true,
          "name": "newOwner",
          "type": "address"
        }
      ],
      "name": "OwnershipTransferred",
      "type": "event"
    },
    {
      "constant": false,
      "inputs": [
        {
          "name": "addAddress",
          "type": "address"
        }
      ],
      "name": "addOperator",
      "outputs": [],
      "payable": false,
      "stateMutability": "nonpayable",
      "type": "function"
    },
    {
      "constant": false,
      "inputs": [
        {
          "name": "index",
          "type": "uint256"
        },
        {
          "name": "addAddress",
          "type": "address"
        }
      ],
      "name": "setOperator",
      "outputs": [],
      "payable": false,
      "stateMutability": "nonpayable",
      "type": "function"
    },
    {
      "constant": false,
      "inputs": [
        {
          "name": "removeAddress",
          "type": "address"
        }
      ],
      "name": "removeOperator",
      "outputs": [
        {
          "name": "",
          "type": "bool"
        }
      ],
      "payable": false,
      "stateMutability": "nonpayable",
      "type": "function"
    },
    {
      "constant": true,
      "inputs": [],
      "name": "getOperator",
      "outputs": [
        {
          "name": "",
          "type": "address[]"
        }
      ],
      "payable": false,
      "stateMutability": "view",
      "type": "function"
    }
  ],
  "bytecode": "0x6080604081905260008054600160a060020a0319163317808255600160a060020a0316917f8be0079c531659141344cd1fd0a4f28419497f9722a3daafe3b4186f6b6457e0908290a3610818806100576000396000f30060806040526004361061008d5763ffffffff7c0100000000000000000000000000000000000000000000000000000000600035041663715018a681146100925780638da5cb5b146100a95780638f32d59b146100da5780639870d7fe14610103578063ac8a584a14610124578063e7a1c1c014610145578063e7f43c6814610169578063f2fde38b146101ce575b600080fd5b34801561009e57600080fd5b506100a76101ef565b005b3480156100b557600080fd5b506100be610292565b60408051600160a060020a039092168252519081900360200190f35b3480156100e657600080fd5b506100ef6102a2565b604080519115158252519081900360200190f35b34801561010f57600080fd5b506100a7600160a060020a03600435166102b3565b34801561013057600080fd5b506100ef600160a060020a036004351661030d565b34801561015157600080fd5b506100a7600435600160a060020a036024351661036c565b34801561017557600080fd5b5061017e6103fa565b60408051602080825283518183015283519192839290830191858101910280838360005b838110156101ba5781810151838201526020016101a2565b505050509050019250505060405180910390f35b3480156101da57600080fd5b506100a7600160a060020a036004351661045c565b6101f76102a2565b151561023b576040805160e560020a62461bcd02815260206004820181905260248201526000805160206107cd833981519152604482015290519081900360640190fd5b60008054604051600160a060020a03909116907f8be0079c531659141344cd1fd0a4f28419497f9722a3daafe3b4186f6b6457e0908390a36000805473ffffffffffffffffffffffffffffffffffffffff19169055565b600054600160a060020a03165b90565b600054600160a060020a0316331490565b6102bb6102a2565b15156102ff576040805160e560020a62461bcd02815260206004820181905260248201526000805160206107cd833981519152604482015290519081900360640190fd5b61030a6001826104b1565b50565b60006103176102a2565b151561035b576040805160e560020a62461bcd02815260206004820181905260248201526000805160206107cd833981519152604482015290519081900360640190fd5b610366600183610557565b92915050565b6103746102a2565b15156103b8576040805160e560020a62461bcd02815260206004820181905260248201526000805160206107cd833981519152604482015290519081900360640190fd5b806001838154811015156103c857fe5b9060005260206000200160006101000a815481600160a060020a030219169083600160a060020a031602179055505050565b6060600180548060200260200160405190810160405280929190818152602001828054801561045257602002820191906000526020600020905b8154600160a060020a03168152600190910190602001808311610434575b5050505050905090565b6104646102a2565b15156104a8576040805160e560020a62461bcd02815260206004820181905260248201526000805160206107cd833981519152604482015290519081900360640190fd5b61030a81610646565b6105148280548060200260200160405190810160405280929190818152602001828054801561050957602002820191906000526020600020905b8154600160a060020a031681526001909101906020018083116104eb575b505050505082610734565b151561055357815460018101835560008381526020902001805473ffffffffffffffffffffffffffffffffffffffff1916600160a060020a0383161790555b5050565b8154600090815b818110156105a65783600160a060020a0316858281548110151561057e57fe5b600091825260209091200154600160a060020a0316141561059e576105a6565b60010161055e565b81811015610639576000198201811461061f5784600183038154811015156105ca57fe5b6000918252602090912001548554600160a060020a03909116908690839081106105f057fe5b9060005260206000200160006101000a815481600160a060020a030219169083600160a060020a031602179055505b845461062f866000198301610785565b506001925061063e565b600092505b505092915050565b600160a060020a03811615156106cc576040805160e560020a62461bcd02815260206004820152602660248201527f4f776e61626c653a206e6577206f776e657220697320746865207a65726f206160448201527f6464726573730000000000000000000000000000000000000000000000000000606482015290519081900360840190fd5b60008054604051600160a060020a03808516939216917f8be0079c531659141344cd1fd0a4f28419497f9722a3daafe3b4186f6b6457e091a36000805473ffffffffffffffffffffffffffffffffffffffff1916600160a060020a0392909216919091179055565b8151600090815b818110156106395783600160a060020a0316858281518110151561075b57fe5b90602001906020020151600160a060020a0316141561077d576001925061063e565b60010161073b565b8154818355818111156107a9576000838152602090206107a99181019083016107ae565b505050565b61029f91905b808211156107c857600081556001016107b4565b509056004f776e61626c653a2063616c6c6572206973206e6f7420746865206f776e6572a165627a7a72305820cce4b72ca78ffa0710539c9ea07a709a43fd5962282c16615ff25711788e9eb20029",
  "source": "pragma solidity ^0.4.11;\r\nimport './Ownable.sol';\r\nimport \"./whiteList.sol\";\r\ncontract Operator is Ownable {\r\n\r\n    address[] private _operatorList;\r\n    modifier onlyOperator() {\r\n        require(whiteListAddress.isEligibleAddress(_operatorList,msg.sender),\"Managerable: caller is not the Operator\");\r\n        _;\r\n    }\r\n    modifier onlyOperatorIndex(uint256 index) {\r\n        require(_operatorList.length>index && _operatorList[index] == msg.sender,\"Managerable: caller is not the eligible Operator\");\r\n        _;\r\n    }\r\n    function addOperator(address addAddress)public onlyOwner{\r\n        whiteListAddress.addWhiteListAddress(_operatorList,addAddress);\r\n    }\r\n    function setOperator(uint256 index,address addAddress)public onlyOwner{\r\n        _operatorList[index] = addAddress;\r\n    }\r\n    function removeOperator(address removeAddress)public onlyOwner returns (bool){\r\n        return whiteListAddress.removeWhiteListAddress(_operatorList,removeAddress);\r\n    }\r\n    function getOperator()public view returns (address[]) {\r\n        return _operatorList;\r\n    }\r\n}",
  "sourcePath": "C:\\work\\solidity\\FinnexusOptions_V2\\contracts\\modules\\Operator.sol",
  "compiler": {
    "name": "solc",
    "version": "0.4.26+commit.4563c3fc.Emscripten.clang"
  },
  "schemaVersion": "3.1.0",
  "updatedAt": "2020-08-03T07:47:17.047Z",
  "devdoc": {
    "methods": {
      "isOwner()": {
        "details": "Returns true if the caller is the current owner."
      },
      "owner()": {
        "details": "Returns the address of the current owner."
      },
      "renounceOwnership()": {
        "details": "Leaves the contract without owner. It will not be possible to call `onlyOwner` functions anymore. Can only be called by the current owner.     * NOTE: Renouncing ownership will leave the contract without an owner, thereby removing any functionality that is only available to the owner."
      },
      "transferOwnership(address)": {
        "details": "Transfers ownership of the contract to a new account (`newOwner`). Can only be called by the current owner."
      }
    }
  },
  "userdoc": {
    "methods": {}
  }
}