{
  "contractName": "OptionsPool",
  "abi": [
    {
      "inputs": [
        {
          "internalType": "address",
          "name": "oracleAddr",
          "type": "address"
        },
        {
          "internalType": "address",
          "name": "optionsPriceAddr",
          "type": "address"
        },
        {
          "internalType": "address",
          "name": "ivAddress",
          "type": "address"
        }
      ],
      "payable": false,
      "stateMutability": "nonpayable",
      "type": "constructor"
    },
    {
      "anonymous": false,
      "inputs": [
        {
          "indexed": true,
          "internalType": "address",
          "name": "owner",
          "type": "address"
        },
        {
          "indexed": true,
          "internalType": "uint256",
          "name": "optionID",
          "type": "uint256"
        },
        {
          "indexed": false,
          "internalType": "uint256",
          "name": "amount",
          "type": "uint256"
        }
      ],
      "name": "BurnOption",
      "type": "event"
    },
    {
      "anonymous": false,
      "inputs": [
        {
          "indexed": true,
          "internalType": "address",
          "name": "owner",
          "type": "address"
        },
        {
          "indexed": true,
          "internalType": "uint256",
          "name": "optionID",
          "type": "uint256"
        },
        {
          "indexed": false,
          "internalType": "uint8",
          "name": "optType",
          "type": "uint8"
        },
        {
          "indexed": false,
          "internalType": "uint32",
          "name": "underlying",
          "type": "uint32"
        },
        {
          "indexed": false,
          "internalType": "uint256",
          "name": "expiration",
          "type": "uint256"
        },
        {
          "indexed": false,
          "internalType": "uint256",
          "name": "strikePrice",
          "type": "uint256"
        },
        {
          "indexed": false,
          "internalType": "uint256",
          "name": "amount",
          "type": "uint256"
        }
      ],
      "name": "CreateOption",
      "type": "event"
    },
    {
      "anonymous": false,
      "inputs": [
        {
          "indexed": true,
          "internalType": "address",
          "name": "previousOwner",
          "type": "address"
        },
        {
          "indexed": true,
          "internalType": "address",
          "name": "newOwner",
          "type": "address"
        }
      ],
      "name": "OwnershipTransferred",
      "type": "event"
    },
    {
      "constant": false,
      "inputs": [
        {
          "internalType": "uint256",
          "name": "expiration",
          "type": "uint256"
        }
      ],
      "name": "addExpiration",
      "outputs": [],
      "payable": false,
      "stateMutability": "nonpayable",
      "type": "function"
    },
    {
      "constant": false,
      "inputs": [
        {
          "internalType": "address",
          "name": "addAddress",
          "type": "address"
        }
      ],
      "name": "addOperator",
      "outputs": [],
      "payable": false,
      "stateMutability": "nonpayable",
      "type": "function"
    },
    {
      "constant": false,
      "inputs": [
        {
          "internalType": "uint32",
          "name": "underlying",
          "type": "uint32"
        }
      ],
      "name": "addUnderlyingAsset",
      "outputs": [],
      "payable": false,
      "stateMutability": "nonpayable",
      "type": "function"
    },
    {
      "constant": true,
      "inputs": [
        {
          "internalType": "uint256",
          "name": "expiration",
          "type": "uint256"
        },
        {
          "internalType": "uint32",
          "name": "underlying",
          "type": "uint32"
        }
      ],
      "name": "buyOptionCheck",
      "outputs": [],
      "payable": false,
      "stateMutability": "view",
      "type": "function"
    },
    {
      "constant": true,
      "inputs": [
        {
          "internalType": "uint256",
          "name": "lastOption",
          "type": "uint256"
        },
        {
          "internalType": "uint256",
          "name": "begin",
          "type": "uint256"
        },
        {
          "internalType": "uint256",
          "name": "end",
          "type": "uint256"
        },
        {
          "internalType": "address[]",
          "name": "whiteList",
          "type": "address[]"
        }
      ],
      "name": "calRangeSharedPayment",
      "outputs": [
        {
          "internalType": "int256[]",
          "name": "",
          "type": "int256[]"
        },
        {
          "internalType": "uint256[]",
          "name": "",
          "type": "uint256[]"
        },
        {
          "internalType": "uint256",
          "name": "",
          "type": "uint256"
        }
      ],
      "payable": false,
      "stateMutability": "view",
      "type": "function"
    },
    {
      "constant": true,
      "inputs": [
        {
          "internalType": "uint256",
          "name": "lastOption",
          "type": "uint256"
        },
        {
          "internalType": "uint256",
          "name": "beginOption",
          "type": "uint256"
        },
        {
          "internalType": "uint256",
          "name": "endOption",
          "type": "uint256"
        }
      ],
      "name": "calculatePhaseOccupiedCollateral",
      "outputs": [
        {
          "internalType": "uint256",
          "name": "",
          "type": "uint256"
        },
        {
          "internalType": "uint256",
          "name": "",
          "type": "uint256"
        },
        {
          "internalType": "bool",
          "name": "",
          "type": "bool"
        }
      ],
      "payable": false,
      "stateMutability": "view",
      "type": "function"
    },
    {
      "constant": true,
      "inputs": [
        {
          "internalType": "uint256",
          "name": "lastOption",
          "type": "uint256"
        },
        {
          "internalType": "uint256",
          "name": "begin",
          "type": "uint256"
        },
        {
          "internalType": "uint256",
          "name": "end",
          "type": "uint256"
        },
        {
          "internalType": "address[]",
          "name": "whiteList",
          "type": "address[]"
        }
      ],
      "name": "calculatePhaseOptionsFall",
      "outputs": [
        {
          "internalType": "int256[]",
          "name": "",
          "type": "int256[]"
        }
      ],
      "payable": false,
      "stateMutability": "view",
      "type": "function"
    },
    {
      "constant": true,
      "inputs": [
        {
          "internalType": "uint256",
          "name": "expiration",
          "type": "uint256"
        }
      ],
      "name": "checkExpiration",
      "outputs": [],
      "payable": false,
      "stateMutability": "view",
      "type": "function"
    },
    {
      "constant": true,
      "inputs": [
        {
          "internalType": "uint256",
          "name": "optionID",
          "type": "uint256"
        },
        {
          "internalType": "uint256",
          "name": "amount",
          "type": "uint256"
        }
      ],
      "name": "getBurnedFullPay",
      "outputs": [
        {
          "internalType": "address",
          "name": "",
          "type": "address"
        },
        {
          "internalType": "uint256",
          "name": "",
          "type": "uint256"
        }
      ],
      "payable": false,
      "stateMutability": "view",
      "type": "function"
    },
    {
      "constant": true,
      "inputs": [
        {
          "internalType": "uint256",
          "name": "optionsId",
          "type": "uint256"
        },
        {
          "internalType": "uint256",
          "name": "amount",
          "type": "uint256"
        }
      ],
      "name": "getExerciseWorth",
      "outputs": [
        {
          "internalType": "uint256",
          "name": "",
          "type": "uint256"
        }
      ],
      "payable": false,
      "stateMutability": "view",
      "type": "function"
    },
    {
      "constant": true,
      "inputs": [],
      "name": "getExpirationList",
      "outputs": [
        {
          "internalType": "uint256[]",
          "name": "",
          "type": "uint256[]"
        }
      ],
      "payable": false,
      "stateMutability": "view",
      "type": "function"
    },
    {
      "constant": true,
      "inputs": [],
      "name": "getInputAmountRange",
      "outputs": [
        {
          "internalType": "uint256",
          "name": "",
          "type": "uint256"
        },
        {
          "internalType": "uint256",
          "name": "",
          "type": "uint256"
        }
      ],
      "payable": false,
      "stateMutability": "view",
      "type": "function"
    },
    {
      "constant": true,
      "inputs": [
        {
          "internalType": "uint256",
          "name": "item",
          "type": "uint256"
        }
      ],
      "name": "getItemTimeLimitation",
      "outputs": [
        {
          "internalType": "uint256",
          "name": "",
          "type": "uint256"
        }
      ],
      "payable": false,
      "stateMutability": "view",
      "type": "function"
    },
    {
      "constant": true,
      "inputs": [],
      "name": "getManager",
      "outputs": [
        {
          "internalType": "address",
          "name": "",
          "type": "address"
        }
      ],
      "payable": false,
      "stateMutability": "view",
      "type": "function"
    },
    {
      "constant": true,
      "inputs": [
        {
          "internalType": "address[]",
          "name": "whiteList",
          "type": "address[]"
        }
      ],
      "name": "getNetWrothCalInfo",
      "outputs": [
        {
          "internalType": "uint256",
          "name": "",
          "type": "uint256"
        },
        {
          "internalType": "int256[]",
          "name": "",
          "type": "int256[]"
        }
      ],
      "payable": false,
      "stateMutability": "view",
      "type": "function"
    },
    {
      "constant": true,
      "inputs": [
        {
          "internalType": "address",
          "name": "settlement",
          "type": "address"
        }
      ],
      "name": "getNetWrothLatestWorth",
      "outputs": [
        {
          "internalType": "int256",
          "name": "",
          "type": "int256"
        }
      ],
      "payable": false,
      "stateMutability": "view",
      "type": "function"
    },
    {
      "constant": true,
      "inputs": [],
      "name": "getOccupiedCalInfo",
      "outputs": [
        {
          "internalType": "uint256",
          "name": "",
          "type": "uint256"
        },
        {
          "internalType": "int256",
          "name": "",
          "type": "int256"
        }
      ],
      "payable": false,
      "stateMutability": "view",
      "type": "function"
    },
    {
      "constant": true,
      "inputs": [],
      "name": "getOperator",
      "outputs": [
        {
          "internalType": "address[]",
          "name": "",
          "type": "address[]"
        }
      ],
      "payable": false,
      "stateMutability": "view",
      "type": "function"
    },
    {
      "constant": true,
      "inputs": [],
      "name": "getOptionInfoLength",
      "outputs": [
        {
          "internalType": "uint256",
          "name": "",
          "type": "uint256"
        }
      ],
      "payable": false,
      "stateMutability": "view",
      "type": "function"
    },
    {
      "constant": true,
      "inputs": [
        {
          "internalType": "uint256",
          "name": "from",
          "type": "uint256"
        },
        {
          "internalType": "uint256",
          "name": "size",
          "type": "uint256"
        }
      ],
      "name": "getOptionInfoList",
      "outputs": [
        {
          "internalType": "address[]",
          "name": "",
          "type": "address[]"
        },
        {
          "internalType": "uint256[]",
          "name": "",
          "type": "uint256[]"
        },
        {
          "internalType": "uint256[]",
          "name": "",
          "type": "uint256[]"
        },
        {
          "internalType": "uint256[]",
          "name": "",
          "type": "uint256[]"
        },
        {
          "internalType": "uint256[]",
          "name": "",
          "type": "uint256[]"
        }
      ],
      "payable": false,
      "stateMutability": "view",
      "type": "function"
    },
    {
      "constant": true,
      "inputs": [
        {
          "internalType": "uint256[]",
          "name": "ids",
          "type": "uint256[]"
        }
      ],
      "name": "getOptionInfoListFromID",
      "outputs": [
        {
          "internalType": "address[]",
          "name": "",
          "type": "address[]"
        },
        {
          "internalType": "uint256[]",
          "name": "",
          "type": "uint256[]"
        },
        {
          "internalType": "uint256[]",
          "name": "",
          "type": "uint256[]"
        },
        {
          "internalType": "uint256[]",
          "name": "",
          "type": "uint256[]"
        },
        {
          "internalType": "uint256[]",
          "name": "",
          "type": "uint256[]"
        }
      ],
      "payable": false,
      "stateMutability": "view",
      "type": "function"
    },
    {
      "constant": true,
      "inputs": [
        {
          "internalType": "uint256",
          "name": "optionsId",
          "type": "uint256"
        }
      ],
      "name": "getOptionsById",
      "outputs": [
        {
          "internalType": "uint256",
          "name": "",
          "type": "uint256"
        },
        {
          "internalType": "address",
          "name": "",
          "type": "address"
        },
        {
          "internalType": "uint8",
          "name": "",
          "type": "uint8"
        },
        {
          "internalType": "uint32",
          "name": "",
          "type": "uint32"
        },
        {
          "internalType": "uint256",
          "name": "",
          "type": "uint256"
        },
        {
          "internalType": "uint256",
          "name": "",
          "type": "uint256"
        },
        {
          "internalType": "uint256",
          "name": "",
          "type": "uint256"
        }
      ],
      "payable": false,
      "stateMutability": "view",
      "type": "function"
    },
    {
      "constant": true,
      "inputs": [
        {
          "internalType": "uint256",
          "name": "optionsId",
          "type": "uint256"
        }
      ],
      "name": "getOptionsExtraById",
      "outputs": [
        {
          "internalType": "address",
          "name": "",
          "type": "address"
        },
        {
          "internalType": "uint256",
          "name": "",
          "type": "uint256"
        },
        {
          "internalType": "uint256",
          "name": "",
          "type": "uint256"
        },
        {
          "internalType": "uint256",
          "name": "",
          "type": "uint256"
        },
        {
          "internalType": "uint256",
          "name": "",
          "type": "uint256"
        },
        {
          "internalType": "uint256",
          "name": "",
          "type": "uint256"
        }
      ],
      "payable": false,
      "stateMutability": "view",
      "type": "function"
    },
    {
      "constant": true,
      "inputs": [
        {
          "internalType": "uint256",
          "name": "optionsId",
          "type": "uint256"
        }
      ],
      "name": "getOptionsLimitTimeById",
      "outputs": [
        {
          "internalType": "uint256",
          "name": "",
          "type": "uint256"
        }
      ],
      "payable": false,
      "stateMutability": "view",
      "type": "function"
    },
    {
      "constant": true,
      "inputs": [],
      "name": "getOptionsPriceAddress",
      "outputs": [
        {
          "internalType": "address",
          "name": "",
          "type": "address"
        }
      ],
      "payable": false,
      "stateMutability": "view",
      "type": "function"
    },
    {
      "constant": true,
      "inputs": [],
      "name": "getOracleAddress",
      "outputs": [
        {
          "internalType": "address",
          "name": "",
          "type": "address"
        }
      ],
      "payable": false,
      "stateMutability": "view",
      "type": "function"
    },
    {
      "constant": true,
      "inputs": [],
      "name": "getTimeLimitation",
      "outputs": [
        {
          "internalType": "uint256",
          "name": "",
          "type": "uint256"
        }
      ],
      "payable": false,
      "stateMutability": "view",
      "type": "function"
    },
    {
      "constant": true,
      "inputs": [],
      "name": "getTotalOccupiedCollateral",
      "outputs": [
        {
          "internalType": "uint256",
          "name": "",
          "type": "uint256"
        }
      ],
      "payable": false,
      "stateMutability": "view",
      "type": "function"
    },
    {
      "constant": true,
      "inputs": [],
      "name": "getUnderlyingAssets",
      "outputs": [
        {
          "internalType": "uint32[]",
          "name": "",
          "type": "uint32[]"
        }
      ],
      "payable": false,
      "stateMutability": "view",
      "type": "function"
    },
    {
      "constant": true,
      "inputs": [
        {
          "internalType": "address",
          "name": "user",
          "type": "address"
        }
      ],
      "name": "getUserOptionsID",
      "outputs": [
        {
          "internalType": "uint256[]",
          "name": "",
          "type": "uint256[]"
        }
      ],
      "payable": false,
      "stateMutability": "view",
      "type": "function"
    },
    {
      "constant": true,
      "inputs": [
        {
          "internalType": "address",
          "name": "user",
          "type": "address"
        },
        {
          "internalType": "uint256",
          "name": "from",
          "type": "uint256"
        },
        {
          "internalType": "uint256",
          "name": "size",
          "type": "uint256"
        }
      ],
      "name": "getUserOptionsID",
      "outputs": [
        {
          "internalType": "uint256[]",
          "name": "",
          "type": "uint256[]"
        }
      ],
      "payable": false,
      "stateMutability": "view",
      "type": "function"
    },
    {
      "constant": true,
      "inputs": [],
      "name": "getVolatilityAddress",
      "outputs": [
        {
          "internalType": "address",
          "name": "",
          "type": "address"
        }
      ],
      "payable": false,
      "stateMutability": "view",
      "type": "function"
    },
    {
      "constant": false,
      "inputs": [],
      "name": "initialize",
      "outputs": [],
      "payable": false,
      "stateMutability": "nonpayable",
      "type": "function"
    },
    {
      "constant": true,
      "inputs": [
        {
          "internalType": "uint256",
          "name": "expiration",
          "type": "uint256"
        }
      ],
      "name": "isEligibleExpiration",
      "outputs": [
        {
          "internalType": "bool",
          "name": "",
          "type": "bool"
        }
      ],
      "payable": false,
      "stateMutability": "view",
      "type": "function"
    },
    {
      "constant": true,
      "inputs": [
        {
          "internalType": "uint32",
          "name": "underlying",
          "type": "uint32"
        }
      ],
      "name": "isEligibleUnderlyingAsset",
      "outputs": [
        {
          "internalType": "bool",
          "name": "",
          "type": "bool"
        }
      ],
      "payable": false,
      "stateMutability": "view",
      "type": "function"
    },
    {
      "constant": true,
      "inputs": [],
      "name": "isOwner",
      "outputs": [
        {
          "internalType": "bool",
          "name": "",
          "type": "bool"
        }
      ],
      "payable": false,
      "stateMutability": "view",
      "type": "function"
    },
    {
      "constant": true,
      "inputs": [],
      "name": "owner",
      "outputs": [
        {
          "internalType": "address",
          "name": "",
          "type": "address"
        }
      ],
      "payable": false,
      "stateMutability": "view",
      "type": "function"
    },
    {
      "constant": false,
      "inputs": [
        {
          "internalType": "uint256",
          "name": "removeExpiration",
          "type": "uint256"
        }
      ],
      "name": "removeExpirationList",
      "outputs": [
        {
          "internalType": "bool",
          "name": "",
          "type": "bool"
        }
      ],
      "payable": false,
      "stateMutability": "nonpayable",
      "type": "function"
    },
    {
      "constant": false,
      "inputs": [
        {
          "internalType": "address",
          "name": "removeAddress",
          "type": "address"
        }
      ],
      "name": "removeOperator",
      "outputs": [
        {
          "internalType": "bool",
          "name": "",
          "type": "bool"
        }
      ],
      "payable": false,
      "stateMutability": "nonpayable",
      "type": "function"
    },
    {
      "constant": false,
      "inputs": [
        {
          "internalType": "uint32",
          "name": "removeUnderlying",
          "type": "uint32"
        }
      ],
      "name": "removeUnderlyingAssets",
      "outputs": [
        {
          "internalType": "bool",
          "name": "",
          "type": "bool"
        }
      ],
      "payable": false,
      "stateMutability": "nonpayable",
      "type": "function"
    },
    {
      "constant": false,
      "inputs": [],
      "name": "renounceOwnership",
      "outputs": [],
      "payable": false,
      "stateMutability": "nonpayable",
      "type": "function"
    },
    {
      "constant": false,
      "inputs": [
        {
          "internalType": "uint256",
          "name": "totalOccupied",
          "type": "uint256"
        },
        {
          "internalType": "uint256",
          "name": "beginOption",
          "type": "uint256"
        },
        {
          "internalType": "int256",
          "name": "latestOccpied",
          "type": "int256"
        }
      ],
      "name": "setCollateralPhase",
      "outputs": [],
      "payable": false,
      "stateMutability": "nonpayable",
      "type": "function"
    },
    {
      "constant": false,
      "inputs": [
        {
          "internalType": "uint256",
          "name": "_minAmount",
          "type": "uint256"
        },
        {
          "internalType": "uint256",
          "name": "_maxAmount",
          "type": "uint256"
        }
      ],
      "name": "setInputAmountRange",
      "outputs": [],
      "payable": false,
      "stateMutability": "nonpayable",
      "type": "function"
    },
    {
      "constant": false,
      "inputs": [
        {
          "internalType": "address",
          "name": "managerAddress",
          "type": "address"
        }
      ],
      "name": "setManager",
      "outputs": [],
      "payable": false,
      "stateMutability": "nonpayable",
      "type": "function"
    },
    {
      "constant": false,
      "inputs": [],
      "name": "setOccupiedCollateral",
      "outputs": [],
      "payable": false,
      "stateMutability": "nonpayable",
      "type": "function"
    },
    {
      "constant": false,
      "inputs": [
        {
          "internalType": "uint256",
          "name": "index",
          "type": "uint256"
        },
        {
          "internalType": "address",
          "name": "addAddress",
          "type": "address"
        }
      ],
      "name": "setOperator",
      "outputs": [],
      "payable": false,
      "stateMutability": "nonpayable",
      "type": "function"
    },
    {
      "constant": false,
      "inputs": [
        {
          "internalType": "address[]",
          "name": "operators",
          "type": "address[]"
        }
      ],
      "name": "setOperators",
      "outputs": [],
      "payable": false,
      "stateMutability": "nonpayable",
      "type": "function"
    },
    {
      "constant": false,
      "inputs": [
        {
          "internalType": "address",
          "name": "optionsPrice",
          "type": "address"
        }
      ],
      "name": "setOptionsPriceAddress",
      "outputs": [],
      "payable": false,
      "stateMutability": "nonpayable",
      "type": "function"
    },
    {
      "constant": false,
      "inputs": [
        {
          "internalType": "address",
          "name": "oracle",
          "type": "address"
        }
      ],
      "name": "setOracleAddress",
      "outputs": [],
      "payable": false,
      "stateMutability": "nonpayable",
      "type": "function"
    },
    {
      "constant": false,
      "inputs": [
        {
          "internalType": "uint256",
          "name": "newFirstOption",
          "type": "uint256"
        },
        {
          "internalType": "int256[]",
          "name": "latestNetWorth",
          "type": "int256[]"
        },
        {
          "internalType": "address[]",
          "name": "whiteList",
          "type": "address[]"
        }
      ],
      "name": "setSharedState",
      "outputs": [],
      "payable": false,
      "stateMutability": "nonpayable",
      "type": "function"
    },
    {
      "constant": false,
      "inputs": [
        {
          "internalType": "uint256",
          "name": "_limitation",
          "type": "uint256"
        }
      ],
      "name": "setTimeLimitation",
      "outputs": [],
      "payable": false,
      "stateMutability": "nonpayable",
      "type": "function"
    },
    {
      "constant": false,
      "inputs": [
        {
          "internalType": "address",
          "name": "volatility",
          "type": "address"
        }
      ],
      "name": "setVolatilityAddress",
      "outputs": [],
      "payable": false,
      "stateMutability": "nonpayable",
      "type": "function"
    },
    {
      "constant": false,
      "inputs": [
        {
          "internalType": "address",
          "name": "newOwner",
          "type": "address"
        }
      ],
      "name": "transferOwnership",
      "outputs": [],
      "payable": false,
      "stateMutability": "nonpayable",
      "type": "function"
    },
    {
      "constant": false,
      "inputs": [],
      "name": "update",
      "outputs": [],
      "payable": false,
      "stateMutability": "nonpayable",
      "type": "function"
    },
    {
      "constant": true,
      "inputs": [
        {
          "internalType": "address[]",
          "name": "whiteList",
          "type": "address[]"
        }
      ],
      "name": "getOptionCalRangeAll",
      "outputs": [
        {
          "internalType": "uint256",
          "name": "",
          "type": "uint256"
        },
        {
          "internalType": "int256",
          "name": "",
          "type": "int256"
        },
        {
          "internalType": "uint256",
          "name": "",
          "type": "uint256"
        },
        {
          "internalType": "int256[]",
          "name": "",
          "type": "int256[]"
        },
        {
          "internalType": "uint256",
          "name": "",
          "type": "uint256"
        },
        {
          "internalType": "uint256",
          "name": "",
          "type": "uint256"
        }
      ],
      "payable": false,
      "stateMutability": "view",
      "type": "function"
    },
    {
      "constant": false,
      "inputs": [
        {
          "internalType": "address",
          "name": "from",
          "type": "address"
        },
        {
          "internalType": "address",
          "name": "settlement",
          "type": "address"
        },
        {
          "internalType": "uint256",
          "name": "type_ly_exp",
          "type": "uint256"
        },
        {
          "internalType": "uint256",
          "name": "strikePrice",
          "type": "uint256"
        },
        {
          "internalType": "uint256",
          "name": "optionPrice",
          "type": "uint256"
        },
        {
          "internalType": "uint256",
          "name": "amount",
          "type": "uint256"
        }
      ],
      "name": "createOptions",
      "outputs": [],
      "payable": false,
      "stateMutability": "nonpayable",
      "type": "function"
    },
    {
      "constant": false,
      "inputs": [
        {
          "internalType": "address",
          "name": "from",
          "type": "address"
        },
        {
          "internalType": "uint256",
          "name": "id",
          "type": "uint256"
        },
        {
          "internalType": "uint256",
          "name": "amount",
          "type": "uint256"
        },
        {
          "internalType": "uint256",
          "name": "optionPrice",
          "type": "uint256"
        }
      ],
      "name": "burnOptions",
      "outputs": [],
      "payable": false,
      "stateMutability": "nonpayable",
      "type": "function"
    }
  ],
  "bytecode": "0x6080604052610e106003556c0c9f2c9cd04674edea40000000600455633b9aca006005553480156200003057600080fd5b50604051620054e1380380620054e1833981810160405260608110156200005657600080fd5b508051602082015160409283015160008054600160a060020a03191633178082559451939492939192600160a060020a0316917f8be0079c531659141344cd1fd0a4f28419497f9722a3daafe3b4186f6b6457e0908290a3620000c164010000000062000104810204565b60078054600160a060020a03948516600160a060020a03199182161790915560098054938516938216939093179092556008805491909316911617905562000366565b620001176401000000006200020d810204565b6200018357604080517f08c379a000000000000000000000000000000000000000000000000000000000815260206004820181905260248201527f4f776e61626c653a2063616c6c6572206973206e6f7420746865206f776e6572604482015290519081900360640190fd5b60408051610100810182526201518081526202a30060208201526203f4809181019190915262093a806060820152620d2f0060808201526213c68060a0820152621a5e0060c082015262278d0060e0820152620001e590600e9060086200021f565b506040805180820190915260018082526002602083018190526200020a929062000276565b50565b600054600160a060020a031633145b90565b82805482825590600052602060002090810192821562000264579160200282015b8281111562000264578251829062ffffff1690559160200191906001019062000240565b506200027292915062000325565b5090565b82805482825590600052602060002090600701600890048101928215620003175791602002820160005b83821115620002e357835183826101000a81548163ffffffff021916908360ff1602179055509260200192600401602081600301049283019260010302620002a0565b8015620003155782816101000a81549063ffffffff0219169055600401602081600301049283019260010302620002e3565b505b506200027292915062000342565b6200021c91905b808211156200027257600081556001016200032c565b6200021c91905b808211156200027257805463ffffffff1916815560010162000349565b61516b80620003766000396000f3fe608060405234801561001057600080fd5b50600436106103875760003560e060020a900480637e838fa3116101e2578063afec82fc11610113578063db6ad2bd116100b1578063e7f43c6811610080578063e7f43c68146111d1578063f2fde38b146111d9578063f504e2f0146111ff578063f7de19231461120757610387565b8063db6ad2bd146110b9578063ddf71cd5146110dc578063e7a1c1c01461117f578063e7c56815146111ab57610387565b8063bec3107f116100ed578063bec3107f14611060578063d0ebdbe714611068578063d50095841461108e578063d6d140121461109657610387565b8063afec82fc1461102d578063b18b78dd14611050578063bc9abed21461105857610387565b80639870d7fe116101805780639ef975d21161015a5780639ef975d214610fbc578063a093e2d014610fd9578063a2e6204514610fff578063ac8a584a1461100757610387565b80639870d7fe14610e595780639a2a3a6014610e7f5780639ab91a3514610f9957610387565b80638f32d59b116101bc5780638f32d59b14610de45780639052d5f814610dec578063924a69ce14610df45780639783cbd914610e3c57610387565b80637e838fa314610da35780638129fc1c14610dd45780638da5cb5b14610ddc57610387565b80634688d5d6116102bc5780636d84e2e31161025a578063723931ca11610234578063723931ca14610d3b57806373a3d42414610d585780637cfff2d814610d605780637e1bcb7614610d7d57610387565b80636d84e2e314610cde5780636ed82ec914610cfb578063715018a614610d3357610387565b8063597ce90011610296578063597ce90014610b6f5780635ca4b73b14610bb557806367b8ceb914610bbd5780636a43c05e14610be057610387565b80634688d5d614610add57806348ee201d14610ae55780634c69c00f14610b4957610387565b80632a75ee42116103295780633582d789116103035780633582d789146109825780633ad2fb57146109da57806342e5479d14610a0357806343674c3a14610a2757610387565b80632a75ee421461075a57806332ab5c2014610789578063354af360146108df57610387565b80630c372571116103655780630c3725711461059257806312039cc2146105db5780632415e010146106065780632967eafe1461073457610387565b80630438d4901461038c57806307af1478146105175780630905762214610571575b600080fd5b6103af600480360360408110156103a257600080fd5b5080359060200135611239565b60405180806020018060200180602001806020018060200186810386528b818151815260200191508051906020019060200280838360005b838110156103ff5781810151838201526020016103e7565b5050505090500186810385528a818151815260200191508051906020019060200280838360005b8381101561043e578181015183820152602001610426565b50505050905001868103845289818151815260200191508051906020019060200280838360005b8381101561047d578181015183820152602001610465565b50505050905001868103835288818151815260200191508051906020019060200280838360005b838110156104bc5781810151838201526020016104a4565b50505050905001868103825287818151815260200191508051906020019060200280838360005b838110156104fb5781810151838201526020016104e3565b505050509050019a505050505050505050505060405180910390f35b6105346004803603602081101561052d57600080fd5b503561150d565b60408051600160a060020a0390971687526020870195909552858501939093526060850191909152608084015260a0830152519081900360c00190f35b6105796115c0565b6040805192835260208301919091528051918290030190f35b6105bb600480360360608110156105a857600080fd5b50803590602081013590604001356115ca565b604080519384526020840192909252151582820152519081900360600190f35b610604600480360360608110156105f157600080fd5b508035906020810135906040013561163e565b005b6106046004803603606081101561061c57600080fd5b8135919081019060408101602082013564010000000081111561063e57600080fd5b82018360208201111561065057600080fd5b8035906020019184602083028401116401000000008311171561067257600080fd5b91908080602002602001604051908101604052809392919081815260200183836020028082843760009201919091525092959493602081019350359150506401000000008111156106c257600080fd5b8201836020820111156106d457600080fd5b803590602001918460208302840111640100000000831117156106f657600080fd5b9190808060200260200160405190810160405280939291908181526020018383602002808284376000920191909152509295506117be945050505050565b6106046004803603602081101561074a57600080fd5b5035600160a060020a031661198b565b6107776004803603602081101561077057600080fd5b50356119f7565b60408051918252519081900360200190f35b61083f6004803603608081101561079f57600080fd5b813591602081013591604082013591908101906080810160608201356401000000008111156107cd57600080fd5b8201836020820111156107df57600080fd5b8035906020019184602083028401116401000000008311171561080157600080fd5b919080806020026020016040519081016040528093929190818152602001838360200280828437600092019190915250929550611a0e945050505050565b604051808060200180602001848152602001838103835286818151815260200191508051906020019060200280838360005b83811015610889578181015183820152602001610871565b50505050905001838103825285818151815260200191508051906020019060200280838360005b838110156108c85781810151838201526020016108b0565b505050509050019550505050505060405180910390f35b6103af600480360360208110156108f557600080fd5b81019060208101813564010000000081111561091057600080fd5b82018360208201111561092257600080fd5b8035906020019184602083028401116401000000008311171561094457600080fd5b919080806020026020016040519081016040528093929190818152602001838360200280828437600092019190915250929550611b0e945050505050565b61098a611d65565b60408051602080825283518183015283519192839290830191858101910280838360005b838110156109c65781810151838201526020016109ae565b505050509050019250505060405180910390f35b610604600480360360408110156109f057600080fd5b508035906020013563ffffffff16611dea565b610a0b611e54565b60408051600160a060020a039092168252519081900360200190f35b61098a60048036036080811015610a3d57600080fd5b81359160208101359160408201359190810190608081016060820135640100000000811115610a6b57600080fd5b820183602082011115610a7d57600080fd5b80359060200191846020830284011164010000000083111715610a9f57600080fd5b919080806020026020016040519081016040528093929190818152602001838360200280828437600092019190915250929550611e63945050505050565b610777611f58565b610b0260048036036020811015610afb57600080fd5b5035611f5e565b60408051978852600160a060020a03909616602088015260ff9094168686015263ffffffff9092166060860152608085015260a084015260c0830152519081900360e00190f35b61060460048036036020811015610b5f57600080fd5b5035600160a060020a0316611fd2565b610b9260048036036040811015610b8557600080fd5b508035906020013561203e565b60408051600160a060020a03909316835260208301919091528051918290030190f35b610a0b6120cc565b61077760048036036040811015610bd357600080fd5b50803590602001356120db565b610c8360048036036020811015610bf657600080fd5b810190602081018135640100000000811115610c1157600080fd5b820183602082011115610c2357600080fd5b80359060200191846020830284011164010000000083111715610c4557600080fd5b9190808060200260200160405190810160405280939291908181526020018383602002808284376000920191909152509295506121c2945050505050565b6040518083815260200180602001828103825283818151815260200191508051906020019060200280838360005b83811015610cc9578181015183820152602001610cb1565b50505050905001935050505060405180910390f35b61077760048036036020811015610cf457600080fd5b503561226c565b61060460048036036080811015610d1157600080fd5b50600160a060020a0381351690602081013590604081013590606001356122dc565b61060461249b565b61060460048036036020811015610d5157600080fd5b503561252f565b610777612579565b61060460048036036020811015610d7657600080fd5b5035612603565b61077760048036036020811015610d9357600080fd5b5035600160a060020a031661265e565b610dc060048036036020811015610db957600080fd5b5035612679565b604080519115158252519081900360200190f35b6106046126d6565b610a0b6127a3565b610dc06127b2565b61098a6127c3565b610604600480360360c0811015610e0a57600080fd5b50600160a060020a03813581169160208101359091169060408101359060608101359060808101359060a0013561281a565b61060460048036036020811015610e5257600080fd5b503561294b565b61060460048036036020811015610e6f57600080fd5b5035600160a060020a031661299a565b610f2260048036036020811015610e9557600080fd5b810190602081018135640100000000811115610eb057600080fd5b820183602082011115610ec257600080fd5b80359060200191846020830284011164010000000083111715610ee457600080fd5b9190808060200260200160405190810160405280939291908181526020018383602002808284376000920191909152509295506129f5945050505050565b6040518087815260200186815260200185815260200180602001848152602001838152602001828103825285818151815260200191508051906020019060200280838360005b83811015610f80578181015183820152602001610f68565b5050505090500197505050505050505060405180910390f35b61060460048036036040811015610faf57600080fd5b5080359060200135612a36565b610dc060048036036020811015610fd257600080fd5b5035612a8b565b61060460048036036020811015610fef57600080fd5b5035600160a060020a0316612af0565b610604612b5c565b610dc06004803603602081101561101d57600080fd5b5035600160a060020a0316612ba8565b6106046004803603602081101561104357600080fd5b503563ffffffff16612c05565b610a0b612c60565b610579612c6f565b610777612c79565b6106046004803603602081101561107e57600080fd5b5035600160a060020a0316612c7f565b610a0b612ceb565b610dc0600480360360208110156110ac57600080fd5b503563ffffffff16612cfa565b610dc0600480360360208110156110cf57600080fd5b503563ffffffff16612d57565b610604600480360360208110156110f257600080fd5b81019060208101813564010000000081111561110d57600080fd5b82018360208201111561111f57600080fd5b8035906020019184602083028401116401000000008311171561114157600080fd5b919080806020026020016040519081016040528093929190818152602001838360200280828437600092019190915250929550612de8945050505050565b6106046004803603604081101561119557600080fd5b5080359060200135600160a060020a0316612e45565b61098a600480360360208110156111c157600080fd5b5035600160a060020a0316612ecf565b61098a612f3b565b610604600480360360208110156111ef57600080fd5b5035600160a060020a0316612f9c565b610604612fef565b61098a6004803603606081101561121d57600080fd5b50600160a060020a0381351690602081013590604001356130a5565b6060806060806060600b80549050871061129d576040805160e560020a62461bcd02815260206004820152601660248201527f696e7075742066726f6d206973206f766572666c6f7700000000000000000000604482015290519081900360640190fd5b600086116112f5576040805160e560020a62461bcd02815260206004820152601260248201527f696e7075742073697a65206973207a65726f0000000000000000000000000000604482015290519081900360640190fd5b600b54878701111561130a57600b5487900395505b606086604051908082528060200260200182016040528015611336578160200160208202803883390190505b509050606087604051908082528060200260200182016040528015611365578160200160208202803883390190505b509050606088604051908082528060200260200182016040528015611394578160200160208202803883390190505b5090506060896040519080825280602002602001820160405280156113c3578160200160208202803883390190505b50905060608a6040519080825280602002602001820160405280156113f2578160200160208202803883390190505b50905060005b8b8110156114f9576000600b828f018154811061141157fe5b906000526020600020906005020190508060000160089054906101000a9004600160a060020a031687838151811061144557fe5b600160a060020a03929092166020928302919091019091015280546001820154875160e060020a90920460ff1663ffffffff918216620100000201169087908490811061148e57fe5b60200260200101818152505080600201548583815181106114ab57fe5b60200260200101818152505080600301548483815181106114c857fe5b60200260200101818152505080600401548383815181106114e557fe5b6020908102919091010152506001016113f8565b50939b929a50909850965090945092505050565b6000806000806000806000871180156115285750600b548711155b61157c576040805160e560020a62461bcd02815260206004820152601660248201527f6f7074696f6e206964206973206e6f7420657869737400000000000000000000604482015290519081900360640190fd5b50505060009384525050600c602052506040902080546001820154600283015460038401546004850154600590950154600160a060020a0390941695929491939092565b6011546013549091565b60008060006011548510156115df5760115494505b8585106115f457506000915081905080611635565b858411156116045785935061161c565b60115484101561161c57506000915081905080611635565b6000806116298787613246565b90955093506001925050505b93509350939050565b600a546000901580159061167b575033600160a060020a0316600a828154811061166457fe5b600091825260209091200154600160a060020a0316145b6116b95760405160e560020a62461bcd0281526004018080602001828103825260308152602001806150506030913960400191505060405180910390fd5b600b54831115611713576040805160e560020a62461bcd02815260206004820152601b60248201527f626567696e4f7074696f6e2063616c63756c617465204572726f720000000000604482015290519081900360640190fd5b6011548311156117235760118390555b6012849055701d6329f1c35ca4bfabb9f560ffffffffff19821280159061175b5750701d6329f1c35ca4bfabb9f56100000000008213155b6117af576040805160e560020a62461bcd02815260206004820152601c60248201527f6f7074696f6e732066616c6c2063616c63756c617465206572726f7200000000604482015290519081900360640190fd5b50601380549190910390555050565b600654600160a060020a0316331461180a5760405160e560020a62461bcd028152600401808060200182810382526026815260200180614fda6026913960400191505060405180910390fd5b600b54831115611864576040805160e560020a62461bcd02815260206004820152601e60248201527f6e657746697273744f7074696f6e2063616c63756c617465204572726f720000604482015290519081900360640190fd5b600f5483111561187457600f8390555b805160005b8181101561198457701d6329f1c35ca4bfabb9f560ffffffffff198482815181106118a057fe5b6020026020010151121580156118da5750701d6329f1c35ca4bfabb9f56100000000008482815181106118cf57fe5b602002602001015113155b61192e576040805160e560020a62461bcd02815260206004820152601e60248201527f6c61746573744e6574576f7274682063616c63756c617465206572726f720000604482015290519081900360640190fd5b83818151811061193a57fe5b60200260200101516010600085848151811061195257fe5b602090810291909101810151600160a060020a0316825281019190915260400160002080549091019055600101611879565b5050505050565b6119936127b2565b6119d5576040805160e560020a62461bcd0281526020600482018190526024820152600080516020615080833981519152604482015290519081900360640190fd5b60088054600160a060020a031916600160a060020a0392909216919091179055565b600354600091825260026020526040909120540190565b60608060008686101580611a235750600f5485105b15611a8e578351604051908082528060200260200182016040528015611a53578160200160208202803883390190505b508451604051908082528060200260200182016040528015611a7f578160200160208202803883390190505b50909350915060009050611b04565b86851115611a9a578694505b60606000611aa988888861337a565b9150915080881015611ad0576060611ac2898389613527565b95509193509150611b049050565b8551604051908082528060200260200182016040528015611afb578160200160208202803883390190505b50945090925090505b9450945094915050565b606080606080606060008651905060008111611b74576040805160e560020a62461bcd02815260206004820152601860248201527f696e7075742069647320617272617920697320656d7074790000000000000000604482015290519081900360640190fd5b606081604051908082528060200260200182016040528015611ba0578160200160208202803883390190505b509050606082604051908082528060200260200182016040528015611bcf578160200160208202803883390190505b509050606083604051908082528060200260200182016040528015611bfe578160200160208202803883390190505b509050606084604051908082528060200260200182016040528015611c2d578160200160208202803883390190505b509050606085604051908082528060200260200182016040528015611c5c578160200160208202803883390190505b50905060005b868110156114f9576000611c888e8381518110611c7b57fe5b602002602001015161366d565b80548851919250680100000000000000009004600160a060020a031690889084908110611cb157fe5b600160a060020a03929092166020928302919091019091015280546001820154875160e060020a90920460ff1663ffffffff9182166201000002011690879084908110611cfa57fe5b6020026020010181815250508060020154858381518110611d1757fe5b6020026020010181815250508060030154848381518110611d3457fe5b6020026020010181815250508060040154838381518110611d5157fe5b602090810291909101015250600101611c62565b60606001805480602002602001604051908101604052809291908181526020018280548015611ddf57602002820191906000526020600020906000905b82829054906101000a900463ffffffff1663ffffffff1681526020019060040190602082600301049283019260010382029150808411611da25790505b505050505090505b90565b611df381612d57565b611e47576040805160e560020a62461bcd02815260206004820152601f60248201527f756e6465726c79696e6720697320756e737570706f7274656420617373657400604482015290519081900360640190fd5b611e508261252f565b5050565b600854600160a060020a031690565b60608484101580611e755750600f5483105b15611ead578151604051908082528060200260200182016040528015611ea5578160200160208202803883390190505b509050611f50565b84831115611eb9578492505b600f548411611ec857600f5493505b6060611ed26136f9565b90506060611ee286868685613798565b845190915060005b81811015611f4957611f0e868281518110611f0157fe5b6020026020010151613938565b838281518110611f1a57fe5b602002602001015181611f2957fe5b05838281518110611f3657fe5b6020908102919091010152600101611eea565b5090925050505b949350505050565b60035490565b600080600080600080600080611f738961366d565b805460018201546002830154600384015460049094015467ffffffffffffffff84169e680100000000000000008504600160a060020a03169e5060e060020a90940460ff169c5063ffffffff9092169a50985091965090945092505050565b611fda6127b2565b61201c576040805160e560020a62461bcd0281526020600482018190526024820152600080516020615080833981519152604482015290519081900360640190fd5b60078054600160a060020a031916600160a060020a0392909216919091179055565b600080828060045410156120865760405160e560020a62461bcd0281526004018080602001828103825260248152602001806150e96024913960400191505060405180910390fd5b60001985016000908152600c60205260409020805460018201546003830154600160a060020a0390921691670de0b6b3a764000091028702049350935050509250929050565b600954600160a060020a031690565b60006120e5614d8e565b6120ee8461366d565b6040805160e081018252825467ffffffffffffffff81168252680100000000000000008104600160a060020a0316602083015260e060020a900460ff1691810191909152600182015463ffffffff16606082015260028201546080820152600382015460a082015260049091015460c0820152905061216c816139f0565b6121768184613a4b565b600061218b826060015163ffffffff16613aa7565b905060006121a283604001518460a0015184613b11565b9050806121b557600093505050506121bc565b8402925050505b92915050565b600060606000835190506060816040519080825280602002602001820160405280156121f8578160200160208202803883390190505b50905060005b8281101561225e576010600087838151811061221657fe5b6020026020010151600160a060020a0316600160a060020a031681526020019081526020016000205482828151811061224b57fe5b60209081029190910101526001016121fe565b50600f549350915050915091565b6000808211801561227f5750600b548211155b6122d3576040805160e560020a62461bcd02815260206004820152601660248201527f6f7074696f6e206964206973206e6f7420657869737400000000000000000000604482015290519081900360640190fd5b6121bc826119f7565b600654600160a060020a031633146123285760405160e560020a62461bcd028152600401808060200182810382526026815260200180614fda6026913960400191505060405180910390fd5b8180600454101561236d5760405160e560020a62461bcd0281526004018080602001828103825260248152602001806150e96024913960400191505060405180910390fd5b6003546000858152600260205260409020548591429101106123d9576040805160e560020a62461bcd02815260206004820152601f60248201527f54696d65206c696d69746174696f6e206973206e6f7420657870697265642100604482015290519081900360640190fd5b6123e4868686613b45565b6123ec614d8e565b6123f58661366d565b6040805160e081018252825467ffffffffffffffff81168252680100000000000000008104600160a060020a0316602083015260e060020a900460ff1691810191909152600182015463ffffffff166060820181905260028301546080830152600383015460a083015260049092015460c0820152915060009061247890613aa7565b9050612485828783613d17565b61249182878388613d92565b5050505050505050565b6124a36127b2565b6124e5576040805160e560020a62461bcd0281526020600482018190526024820152600080516020615080833981519152604482015290519081900360640190fd5b60008054604051600160a060020a03909116907f8be0079c531659141344cd1fd0a4f28419497f9722a3daafe3b4186f6b6457e0908390a360008054600160a060020a0319169055565b61253881612a8b565b6125765760405160e560020a62461bcd0281526004018080602001828103825260218152602001806150c86021913960400191505060405180910390fd5b50565b600080601354126125d657601354601254908101908110156125cf5760405160e560020a62461bcd02815260040180806020018281038252602a81526020018061510d602a913960400191505060405180910390fd5b9050611de7565b600060135460000390508060125411156125f557601254039050611de7565b6000915050611de7565b5090565b61260b6127b2565b61264d576040805160e560020a62461bcd0281526020600482018190526024820152600080516020615080833981519152604482015290519081900360640190fd5b612576600e8263ffffffff613e4416565b600160a060020a031660009081526010602052604090205490565b60006126836127b2565b6126c5576040805160e560020a62461bcd0281526020600482018190526024820152600080516020615080833981519152604482015290519081900360640190fd5b6121bc600e8363ffffffff613eb916565b6126de6127b2565b612720576040805160e560020a62461bcd0281526020600482018190526024820152600080516020615080833981519152604482015290519081900360640190fd5b60408051610100810182526201518081526202a30060208201526203f4809181019190915262093a806060820152620d2f0060808201526213c68060a0820152621a5e0060c082015262278d0060e082015261278090600e906008614dca565b506040805180820190915260018082526002602083018190526125769290614e18565b600054600160a060020a031690565b600054600160a060020a0316331490565b6060600e805480602002602001604051908101604052809291908181526020018280548015611ddf57602002820191906000526020600020905b8154815260200190600101908083116127fd575050505050905090565b600654600160a060020a031633146128665760405160e560020a62461bcd028152600401808060200182810382526026815260200180614fda6026913960400191505060405180910390fd5b808060045410156128ab5760405160e560020a62461bcd0281526004018080602001828103825260248152602001806150e96024913960400191505060405180910390fd5b6128b9878787878787613f5f565b6128c1614d8e565b600b546128cd9061366d565b6040805160e081018252825467ffffffffffffffff81168252680100000000000000008104600160a060020a0316602083015260e060020a900460ff1691810191909152600182015463ffffffff16606082015260028201546080820152600382015460a082015260049091015460c0820152905061249181614223565b6129536127b2565b612995576040805160e560020a62461bcd0281526020600482018190526024820152600080516020615080833981519152604482015290519081900360640190fd5b600355565b6129a26127b2565b6129e4576040805160e560020a62461bcd0281526020600482018190526024820152600080516020615080833981519152604482015290519081900360640190fd5b612576600a8263ffffffff61426216565b60008060006060600080600080612a0a6115c0565b9150915060006060612a1b8b6121c2565b600b54959d949c50909a509850929650439550909350505050565b612a3e6127b2565b612a80576040805160e560020a62461bcd0281526020600482018190526024820152600080516020615080833981519152604482015290519081900360640190fd5b600591909155600455565b60006121bc82600e805480602002602001604051908101604052809291908181526020018280548015612add57602002820191906000526020600020905b815481526020019060010190808311612ac9575b50505050506142fa90919063ffffffff16565b612af86127b2565b612b3a576040805160e560020a62461bcd0281526020600482018190526024820152600080516020615080833981519152604482015290519081900360640190fd5b60098054600160a060020a031916600160a060020a0392909216919091179055565b612b646127b2565b612ba6576040805160e560020a62461bcd0281526020600482018190526024820152600080516020615080833981519152604482015290519081900360640190fd5b565b6000612bb26127b2565b612bf4576040805160e560020a62461bcd0281526020600482018190526024820152600080516020615080833981519152604482015290519081900360640190fd5b6121bc600a8363ffffffff61433716565b612c0d6127b2565b612c4f576040805160e560020a62461bcd0281526020600482018190526024820152600080516020615080833981519152604482015290519081900360640190fd5b61257660018263ffffffff61440d16565b600754600160a060020a031690565b6005546004549091565b600b5490565b612c876127b2565b612cc9576040805160e560020a62461bcd0281526020600482018190526024820152600080516020615080833981519152604482015290519081900360640190fd5b60068054600160a060020a031916600160a060020a0392909216919091179055565b600654600160a060020a031690565b6000612d046127b2565b612d46576040805160e560020a62461bcd0281526020600482018190526024820152600080516020615080833981519152604482015290519081900360640190fd5b6121bc60018363ffffffff6144d416565b60006121bc826001805480602002602001604051908101604052809291908181526020018280548015612dd557602002820191906000526020600020906000905b82829054906101000a900463ffffffff1663ffffffff1681526020019060040190602082600301049283019260010382029150808411612d985790505b50505050506145c490919063ffffffff16565b612df06127b2565b612e32576040805160e560020a62461bcd0281526020600482018190526024820152600080516020615080833981519152604482015290519081900360640190fd5b8051611e5090600a906020840190614ec0565b612e4d6127b2565b612e8f576040805160e560020a62461bcd0281526020600482018190526024820152600080516020615080833981519152604482015290519081900360640190fd5b80600a8381548110612e9d57fe5b9060005260206000200160006101000a815481600160a060020a030219169083600160a060020a031602179055505050565b600160a060020a0381166000908152600d6020908152604091829020805483518184028101840190945280845260609392830182828015612f2f57602002820191906000526020600020905b815481526020019060010190808311612f1b575b50505050509050919050565b6060600a805480602002602001604051908101604052809291908181526020018280548015611ddf57602002820191906000526020600020905b8154600160a060020a03168152600190910190602001808311612f75575050505050905090565b612fa46127b2565b612fe6576040805160e560020a62461bcd0281526020600482018190526024820152600080516020615080833981519152604482015290519081900360640190fd5b6125768161460d565b600a546000901580159061302c575033600160a060020a0316600a828154811061301557fe5b600091825260209091200154600160a060020a0316145b61306a5760405160e560020a62461bcd0281526004018080602001828103825260308152602001806150506030913960400191505060405180910390fd5b601354600b5460115460009081908190613086908590816115ca565b925092509250801561309d5761309d83838761163e565b505050505050565b600160a060020a0383166000908152600d60205260409020546060908310613117576040805160e560020a62461bcd02815260206004820152601660248201527f696e7075742066726f6d206973206f766572666c6f7700000000000000000000604482015290519081900360640190fd5b6000821161316f576040805160e560020a62461bcd02815260206004820152601260248201527f696e7075742073697a65206973207a65726f0000000000000000000000000000604482015290519081900360640190fd5b60608260405190808252806020026020018201604052801561319b578160200160208202803883390190505b50600160a060020a0386166000908152600d602052604090205490915084840111156131e057600160a060020a0385166000908152600d602052604090205484900392505b60005b8381101561323b57600160a060020a0386166000908152600d60205260409020805486830190811061321157fe5b906000526020600020015482828151811061322857fe5b60209081029190910101526001016131e3565b5090505b9392505050565b600080600061325885601154866146b0565b909550905060606132676136f9565b905060005b8587101561336e5760006132a5600b898154811061328657fe5b600091825260209091206001600590920201015463ffffffff1661472d565b9050600061335b600b8a815481106132b957fe5b60009182526020918290206040805160e081018252600593909302909101805467ffffffffffffffff81168452680100000000000000008104600160a060020a03169484019490945260e060020a90930460ff1690820152600182015463ffffffff16606082015260028201546080820152600382015460a082015260049091015460c0820152855186908590811061334e57fe5b60200260200101516147be565b60019099019892909201915061326c9050565b96919550909350505050565b60606000606083516040519080825280602002602001820160405280156133ab578160200160208202803883390190505b50905060006133bd87600f54886146b0565b90975090505b85871015613519576000600b88815481106133da57fe5b906000526020600020906005020190506000600c60008a8152602001908152602001600020905060006134368260020154846003015485600201548560040154866005015488600001601c9054906101000a900460ff16614852565b9050816003015481101561350b576003820154825491900390600090613466908a90600160a060020a0316614928565b9050670de0b6b3a7640000846004015483856001015402028161348557fe5b049150701d6329f1c35ca4bfabb9f56100000000008211156134db5760405160e560020a62461bcd0281526004018080602001828103825260288152602001806150a06028913960400191505060405180910390fd5b818682815181106134e857fe5b6020026020010151018682815181106134fd57fe5b602002602001018181525050505b5050600190970196506133c3565b90925090505b935093915050565b6060808251604051908082528060200260200182016040528015613555578160200160208202803883390190505b5090505b83851015611f50576000600b868154811061357057fe5b90600052602060002090600502019050600081600401541115613661576000868152600c6020526040812080549091906135b4908790600160a060020a0316614928565b90506000670de0b6b3a76400008460040154846001015485600301540202816135d957fe5b049050701d6329f1c35ca4bfabb9f561000000000081111561362f5760405160e560020a62461bcd0281526004018080602001828103825260288152602001806150a06028913960400191505060405180910390fd5b8085838151811061363c57fe5b60200260200101510185838151811061365157fe5b6020026020010181815250505050505b50600190940193613559565b600080821180156136805750600b548211155b6136d4576040805160e560020a62461bcd02815260206004820152601660248201527f6f7074696f6e206964206973206e6f7420657869737400000000000000000000604482015290519081900360640190fd5b600b60018303815481106136e457fe5b90600052602060002090600502019050919050565b60015460408051828152602080840282010190915260609190829082801561372b578160200160208202803883390190505b50905060005b82811015613791576137726001828154811061374957fe5b6000918252602090912060088204015460079091166004026101000a900463ffffffff16613aa7565b82828151811061377e57fe5b6020908102919091010152600101613731565b5091505090565b60608083516040519080825280602002602001820160405280156137c6578160200160208202803883390190505b5090505b8486101561392f576000600b87815481106137e157fe5b90600052602060002090600502019050428160020154108061380557506004810154155b156138105750613924565b60018101546000906138279063ffffffff1661472d565b6040805160e081018252845467ffffffffffffffff81168252680100000000000000008104600160a060020a0316602083015260e060020a900460ff1691810191909152600184015463ffffffff16606082015260028401546080820152600384015460a0820152600484015460c0820181905287519293506000926138c29291908990869081106138b557fe5b6020026020010151614971565b90508015613920576000898152600c6020526040902080546138ee908990600160a060020a0316614928565b9250818584815181106138fd57fe5b60200260200101510385848151811061391257fe5b602002602001018181525050505b5050505b6001909501946137ca565b95945050505050565b600754604080517f41976e09000000000000000000000000000000000000000000000000000000008152600160a060020a0384811660048301529151600093849316916341976e09916024808301926020929190829003018186803b1580156139a057600080fd5b505afa1580156139b4573d6000803e3d6000fd5b505050506040513d60208110156139ca57600080fd5b50519050606481108015906139e75750670de0b6b3a76400008111155b6121bc57600080fd5b42816080015111612576576040805160e560020a62461bcd02815260206004820152601160248201527f6f7074696f6e2069732065787069726564000000000000000000000000000000604482015290519081900360640190fd5b808260c001511015611e50576040805160e560020a62461bcd02815260206004820152601d60248201527f6f7074696f6e20616d6f756e7420697320696e73756666696369656e74000000604482015290519081900360640190fd5b600754604080517fda6632570000000000000000000000000000000000000000000000000000000081526004810184905290516000928392600160a060020a039091169163da66325791602480820192602092909190829003018186803b1580156139a057600080fd5b600060ff8416158284111415613b295750600061323f565b60ff841615613b3a57818303613b3e565b8282035b905061323f565b6000613b508361366d565b6040805160e081018252825467ffffffffffffffff81168252680100000000000000008104600160a060020a0316602083015260e060020a900460ff1691810191909152600182015463ffffffff16606082015260028201546080820152600382015460a0820152600482015460c0820152909150613bce906139f0565b6040805160e081018252825467ffffffffffffffff81168252680100000000000000008104600160a060020a0316602083015260e060020a900460ff1691810191909152600182015463ffffffff16606082015260028201546080820152600382015460a0820152600482015460c0820152613c4a9085614a84565b6040805160e081018252825467ffffffffffffffff81168252680100000000000000008104600160a060020a0316602083015260e060020a900460ff1691810191909152600182015463ffffffff16606082015260028201546080820152600382015460a0820152600482015460c0820152613cc69083613a4b565b60048101805483900390556040805183815290518491600160a060020a038716917f1fb99acdc281bccbecb3d0073a307341181a8a7d3cd532fdaef5ce7200401c2d9181900360200190a350505050565b600082613d2d85604001518660a0015185614af1565b029050701d6329f1c35ca4bfabb9f5610000000000811115613d835760405160e560020a62461bcd02815260040180806020018281038252602a815260200180615000602a913960400191505060405180910390fd5b60138054919091039055505050565b6000613d9f858585614971565b85516000190167ffffffffffffffff166000908152600c602052604081206003810154929350918410613dd3576000613ddb565b838260030154035b9050670de0b6b3a764000086828460010154020281613df657fe5b83549190049150613e0f90600160a060020a0316613938565b8381613e1757fe5b9254600160a060020a03166000908152601060205260409020805491909305919091030190555050505050565b613e9d82805480602002602001604051908101604052809291908181526020018280548015613e9257602002820191906000526020600020905b815481526020019060010190808311613e7e575b5050505050826142fa565b611e505781546001810183556000928352602090922090910155565b8154600090815b81811015613ef35783858281548110613ed557fe5b90600052602060002001541415613eeb57613ef3565b600101613ec0565b81811015613f5457600182038114613f3857846001830381548110613f1457fe5b9060005260206000200154858281548110613f2b57fe5b6000918252602090912001555b8454613f48866000198301614f21565b506001925050506121bc565b506000949350505050565b600b546000613f6d86614b0f565b90506000613f7a87614b1c565b9050600b6040518060e001604052808560010167ffffffffffffffff1681526020018b600160a060020a031681526020018460ff1681526020018363ffffffff16815260200142613fca8b614b35565b01815260208082018a90526040918201889052835460018082018655600095865282862085516005909302018054868501518787015167ffffffffffffffff1990921667ffffffffffffffff909516949094177fffffffff0000000000000000000000000000000000000000ffffffffffffffff1668010000000000000000600160a060020a0395861602177fffffff00ffffffffffffffffffffffffffffffffffffffffffffffffffffffff1660e060020a60ff909216919091021781556060860151818301805463ffffffff191663ffffffff9092169190911790556080860151600282015560a0860151600382015560c0909501516004909501949094558d168452600d81529083208054808401825590845292209085019101556140f0614d8e565b600b84815481106140fd57fe5b60009182526020918290206040805160e081018252600593909302909101805467ffffffffffffffff81168452680100000000000000008104600160a060020a03169484019490945260e060020a90930460ff1690820152600182015463ffffffff908116606083015260028301546080830152600383015460a083015260049092015460c0820152915061419b9082908b9089908b908716614b56565b6141a784600101614ce9565b836001018a600160a060020a03167f18f523957030bee670136363e25b2f847bf1bd07bb7b33c6d5475936a9aac70d8585426141e28e614b35565b6040805160ff909516855263ffffffff90931660208501520182820152606082018c9052608082018a9052519081900360a00190a350505050505050505050565b80516000190167ffffffffffffffff166000908152600c6020526040812060028101549091906142549084906147be565b601380549091019055505050565b6142c5828054806020026020016040519081016040528092919081815260200182805480156142ba57602002820191906000526020600020905b8154600160a060020a0316815260019091019060200180831161429c575b505050505082614cfc565b611e50578154600181018355600083815260209020018054600160a060020a038316600160a060020a03199091161790555050565b8151600090815b81811015613f54578385828151811061431657fe5b6020026020010151141561432f576001925050506121bc565b600101614301565b8154600090815b818110156143845783600160a060020a031685828154811061435c57fe5b600091825260209091200154600160a060020a0316141561437c57614384565b60010161433e565b81811015613f5457600182038114613f38578460018303815481106143a557fe5b9060005260206000200160009054906101000a9004600160a060020a03168582815481106143cf57fe5b9060005260206000200160006101000a815481600160a060020a030219169083600160a060020a031602179055508454613f48866000198301614f21565b6144928280548060200260200160405190810160405280929190818152602001828054801561448757602002820191906000526020600020906000905b82829054906101000a900463ffffffff1663ffffffff168152602001906004019060208260030104928301926001038202915080841161444a5790505b5050505050826145c4565b611e50578154600181018355600092835260209092206008830401805460079093166004026101000a63ffffffff818102199094169290931692909202179055565b8154600090815b8181101561452d578363ffffffff168582815481106144f657fe5b6000918252602090912060088204015460079091166004026101000a900463ffffffff1614156145255761452d565b6001016144db565b81811015613f54576001820381146145b45784600183038154811061454e57fe5b90600052602060002090600891828204019190066004029054906101000a900463ffffffff1685828154811061458057fe5b90600052602060002090600891828204019190066004026101000a81548163ffffffff021916908363ffffffff1602179055505b8454613f48866000198301614f4a565b8151600090815b81811015613f54578363ffffffff168582815181106145e657fe5b602002602001015163ffffffff161415614605576001925050506121bc565b6001016145cb565b600160a060020a0381166146555760405160e560020a62461bcd02815260040180806020018281038252602681526020018061502a6026913960400191505060405180910390fd5b60008054604051600160a060020a03808516939216917f8be0079c531659141344cd1fd0a4f28419497f9722a3daafe3b4186f6b6457e091a360008054600160a060020a031916600160a060020a0392909216919091179055565b60008083808611156146c657859250905061351f565b8095505b83861015614721576000600b87815481106146e157fe5b90600052602060002090600502019050428160020154108061470557506004810154155b156147105750614716565b50614721565b6001909501946146ca565b50939485945092505050565b60006121bc8260018054806020026020016040519081016040528092919081815260200182805480156147ab57602002820191906000526020600020906000905b82829054906101000a900463ffffffff1663ffffffff168152602001906004019060208260030104928301926001038202915080841161476e5790505b5050505050614d4b90919063ffffffff16565b60004283608001511115806147d5575060c0830151155b156147e2575060006121bc565b60008360c001516147fc85604001518660a0015186614af1565b029050701d6329f1c35ca4bfabb9f561000000000081111561323f5760405160e560020a62461bcd02815260040180806020018281038252602a815260200180615000602a913960400191505060405180910390fd5b60004285111561491a57600954604080517f055ef6ab000000000000000000000000000000000000000000000000000000008152600481018a9052602481018990524288036044820152606481018790526084810186905260ff851660a48201529051600160a060020a039092169163055ef6ab9160c480820192602092909190829003018186803b1580156148e757600080fd5b505afa1580156148fb573d6000803e3d6000fd5b505050506040513d602081101561491157600080fd5b5051905061491e565b5060005b9695505050505050565b8151600090815b81811015611f505783600160a060020a031685828151811061494d57fe5b6020026020010151600160a060020a0316141561496957611f50565b60010161492f565b6000428460800151111580614984575082155b156149915750600061323f565b6000836149a786604001518760a0015186613b11565b0290506000600c6000600188600001510367ffffffffffffffff16815260200190815260200160002090506000856149ec88604001518960a001518560020154613b11565b029050808303701d6329f1c35ca4bfabb9f560ffffffffff198112801590614a255750701d6329f1c35ca4bfabb9f56100000000008113155b614a79576040805160e560020a62461bcd02815260206004820152601c60248201527f6f7074696f6e732066616c6c2063616c63756c617465206572726f7200000000604482015290519081900360640190fd5b979650505050505050565b80600160a060020a03168260200151600160a060020a031614611e50576040805160e560020a62461bcd02815260206004820152601f60248201527f63616c6c6572206973206e6f7420746865206f7074696f6e73206f776e657200604482015290519081900360640190fd5b600060ff8416158284111415614b0857508161323f565b508061323f565b67ffffffffffffffff1690565b68010000000000000000900467ffffffffffffffff1690565b700100000000000000000000000000000000900467ffffffffffffffff1690565b6000614b6182613aa7565b608087015160085460608901516040808b015181517f185d123200000000000000000000000000000000000000000000000000000000815263ffffffff909316600484015260ff166024830152429093036044820181905260648201859052608482018890528351949550936000938493600160a060020a03169263185d12329260a48083019392829003018186803b158015614bfd57600080fd5b505afa158015614c11573d6000803e3d6000fd5b505050506040513d6040811015614c2757600080fd5b50805160209091015190925090506000614c4089613938565b670de0b6b3a764000081614c5057fe5b6040805160c081018252600160a060020a039c8d168152929091046020808401918252838301988952606084019b8c526080840196875260a084019586529c516000190167ffffffffffffffff166000908152600c909d529b2090518154600160a060020a0319169a16999099178955509751600188015591516002870155509251600385015550505160048201559051600590910155565b6000908152600260205260409020429055565b8151600090815b81811015613f545783600160a060020a0316858281518110614d2157fe5b6020026020010151600160a060020a03161415614d43576001925050506121bc565b600101614d03565b8151600090815b81811015611f50578363ffffffff16858281518110614d6d57fe5b602002602001015163ffffffff161415614d8657611f50565b600101614d52565b6040805160e081018252600080825260208201819052918101829052606081018290526080810182905260a0810182905260c081019190915290565b828054828255906000526020600020908101928215614e0c579160200282015b82811115614e0c578251829062ffffff16905591602001919060010190614dea565b506125ff929150614f7a565b82805482825590600052602060002090600701600890048101928215614eb45791602002820160005b83821115614e8257835183826101000a81548163ffffffff021916908360ff1602179055509260200192600401602081600301049283019260010302614e41565b8015614eb25782816101000a81549063ffffffff0219169055600401602081600301049283019260010302614e82565b505b506125ff929150614f94565b828054828255906000526020600020908101928215614f15579160200282015b82811115614f155782518254600160a060020a031916600160a060020a03909116178255602090920191600190910190614ee0565b506125ff929150614fb5565b815481835581811115614f4557600083815260209020614f45918101908301614f7a565b505050565b815481835581811115614f45576007016008900481600701600890048360005260206000209182019101614f4591905b611de791905b808211156125ff5760008155600101614f80565b611de791905b808211156125ff57805463ffffffff19168155600101614f9a565b611de791905b808211156125ff578054600160a060020a0319168155600101614fbb56fe4d616e6167657261626c653a2063616c6c6572206973206e6f7420746865204d616e616765724f7074696f6e20636f6c6c61746572616c206f636375706965642063616c63756c617465206572726f724f776e61626c653a206e6577206f776e657220697320746865207a65726f20616464726573734d616e6167657261626c653a2063616c6c6572206973206e6f742074686520656c696769626c65204f70657261746f724f776e61626c653a2063616c6c6572206973206e6f7420746865206f776e65726f7074696f6e2074696d65207368617265642076616c75652063616c63756c617465206572726f7265787069726174696f6e2076616c7565206973206e6f7420737570706f72746564696e70757420616d6f756e74206973206c6172676572207468616e206d6178696d69756d546f74616c4f63637570696564436f6c6c61746572616c2063616c63756c617465206f766572666c6f77a265627a7a72315820f073c246fd8b71c93c90a275af8f508967e20ebd72cd46f84a8daeec718722b464736f6c63430005100032",
  "source": "pragma solidity =0.5.16;\nimport \"./OptionsNetWorthCal.sol\";\n/**\n * @title Options pool contract.\n * @dev store options' information and nessesary options' calculation.\n *\n */\ncontract OptionsPool is OptionsNetWorthCal {\n    /**\n     * @dev constructor function , setting contract address.\n     * @param oracleAddr FNX oracle contract address\n     * @param optionsPriceAddr options price contract address\n     * @param ivAddress implied volatility contract address\n     */  \n    constructor (address oracleAddr,address optionsPriceAddr,address ivAddress)public{\n        _oracle = IFNXOracle(oracleAddr);\n        _optionsPrice = IOptionsPrice(optionsPriceAddr);\n        _volatility = IVolatility(ivAddress);\n    }\n    function update() onlyOwner public {\n        \n    }\n    /**\n     * @dev retrieve all information for collateral occupied and net worth calculation.\n     * @param whiteList settlement address whitelist.\n     */ \n    function getOptionCalRangeAll(address[] memory whiteList)public view returns(uint256,int256,uint256,int256[] memory,uint256,uint256){\n        (uint256 occupiedFirst,int256 occupiedlatest) = getOccupiedCalInfo();\n        (uint256 netFirst,int256[] memory netLatest) = getNetWrothCalInfo(whiteList);\n        return (occupiedFirst,occupiedlatest,netFirst,netLatest,allOptions.length,block.number);\n    }\n    /**\n     * @dev create new option,modify collateral occupied and net worth value, only manager contract can invoke this.\n     * @param from user's address.\n     * @param settlement user's input settlement coin.\n     * @param type_ly_exp tuple64 for option type,underlying,expiration.\n     * @param strikePrice user's input new option's strike price.\n     * @param optionPrice current new option's price, calculated by options price contract.\n     * @param amount user's input new option's amount.\n     */ \n    function createOptions(address from,address settlement,uint256 type_ly_exp,uint256 strikePrice,uint256 optionPrice,\n                uint256 amount) onlyManager  Smaller(amount) public {\n        _createOptions(from,settlement,type_ly_exp,strikePrice,optionPrice,amount);\n        OptionsInfo memory info = _getOptionsById(allOptions.length);\n        _addOptionsCollateral(info);\n//        _addNewOptionsNetworth(info);\n    }\n    /**\n     * @dev burn option,modify collateral occupied and net worth value, only manager contract can invoke this.\n     * @param from user's address.\n     * @param id user's input option's id.\n     * @param amount user's input burned option's amount.\n     * @param optionPrice current new option's price, calculated by options price contract.\n     */ \n    function burnOptions(address from,uint256 id,uint256 amount,uint256 optionPrice)public onlyManager Smaller(amount) OutLimitation(id){\n        _burnOptions(from,id,amount);\n        OptionsInfo memory info = _getOptionsById(id);\n        uint256 currentPrice = oracleUnderlyingPrice(info.underlying);\n        _burnOptionsCollateral(info,amount,currentPrice);\n        _burnOptionsNetworth(info,amount,currentPrice,optionPrice);\n    }\n}",
  "sourcePath": "/home/jqg/FinnexusOptions_V2/contracts/OptionsPool/OptionsPool.sol",
  "compiler": {
    "name": "solc",
    "version": "0.5.16+commit.9c3226ce.Emscripten.clang"
  },
  "schemaVersion": "3.2.4",
  "updatedAt": "2020-09-09T03:13:04.328Z",
  "devdoc": {
    "details": "store options' information and nessesary options' calculation. ",
    "methods": {
      "addExpiration(uint256)": {
        "details": "Implementation of add an eligible expiration into the expirationList.",
        "params": {
          "expiration": "new eligible expiration."
        }
      },
      "addOperator(address)": {
        "details": "add a new operator by owner.      "
      },
      "addUnderlyingAsset(uint32)": {
        "details": "Implementation of add an eligible underlying into the underlyingAssets.",
        "params": {
          "underlying": "new eligible underlying."
        }
      },
      "burnOptions(address,uint256,uint256,uint256)": {
        "details": "burn option,modify collateral occupied and net worth value, only manager contract can invoke this.",
        "params": {
          "amount": "user's input burned option's amount.",
          "from": "user's address.",
          "id": "user's input option's id.",
          "optionPrice": "current new option's price, calculated by options price contract."
        }
      },
      "buyOptionCheck(uint256,uint32)": {
        "details": "check option's underlying and expiration.",
        "params": {
          "expiration": "option's expiration",
          "underlying": "option's underlying"
        }
      },
      "calRangeSharedPayment(uint256,uint256,uint256,address[])": {
        "details": "calculate options time shared value,from begin to end in the alloptionsList.",
        "params": {
          "begin": "the begin options position.",
          "end": "the end options position.",
          "lastOption": "the last option position.",
          "whiteList": "eligible collateral address white list."
        }
      },
      "calculatePhaseOccupiedCollateral(uint256,uint256,uint256)": {
        "details": "calculate collateral occupied value.",
        "params": {
          "beginOption": "begin option's poisiton.",
          "endOption": "end option's poisiton.",
          "lastOption": "last option's position."
        }
      },
      "calculatePhaseOptionsFall(uint256,uint256,uint256,address[])": {
        "details": "calculate options payback fall value,from begin to end in the alloptionsList.",
        "params": {
          "begin": "the begin options position.",
          "end": "the end options position.",
          "lastOption": "the last option position.",
          "whiteList": "eligible collateral address white list."
        }
      },
      "checkExpiration(uint256)": {
        "details": "check option's expiration.",
        "params": {
          "expiration": "option's expiration"
        }
      },
      "constructor": {
        "details": "constructor function , setting contract address.",
        "params": {
          "ivAddress": "implied volatility contract address",
          "optionsPriceAddr": "options price contract address",
          "oracleAddr": "FNX oracle contract address"
        }
      },
      "createOptions(address,address,uint256,uint256,uint256,uint256)": {
        "details": "create new option,modify collateral occupied and net worth value, only manager contract can invoke this.",
        "params": {
          "amount": "user's input new option's amount.",
          "from": "user's address.",
          "optionPrice": "current new option's price, calculated by options price contract.",
          "settlement": "user's input settlement coin.",
          "strikePrice": "user's input new option's strike price.",
          "type_ly_exp": "tuple64 for option type,underlying,expiration."
        }
      },
      "getBurnedFullPay(uint256,uint256)": {
        "details": "calculate `amount` number of Option's full price when option is burned.",
        "params": {
          "amount": "option's amount",
          "optionID": "option's optionID"
        }
      },
      "getExerciseWorth(uint256,uint256)": {
        "details": "calculate option's exercise worth.",
        "params": {
          "amount": "option's amount",
          "optionsId": "option's id"
        }
      },
      "getExpirationList()": {
        "details": "Implementation of getting the eligible expirationList."
      },
      "getInputAmountRange()": {
        "details": "get the valid range of input amount"
      },
      "getItemTimeLimitation(uint256)": {
        "details": "Retrieve user's start time for burning. ",
        "params": {
          "item": "item key."
        }
      },
      "getManager()": {
        "details": "get manager address.      "
      },
      "getNetWrothCalInfo(address[])": {
        "details": "retrieve all information for net worth calculation. ",
        "params": {
          "whiteList": "collateral address whitelist."
        }
      },
      "getNetWrothLatestWorth(address)": {
        "details": "retrieve latest options net worth which paid in settlement coin. ",
        "params": {
          "settlement": "settlement coin address."
        }
      },
      "getOccupiedCalInfo()": {
        "details": "retrieve collateral occupied calculation information."
      },
      "getOperator()": {
        "details": "get all operators.      "
      },
      "getOptionCalRangeAll(address[])": {
        "details": "retrieve all information for collateral occupied and net worth calculation.",
        "params": {
          "whiteList": "settlement address whitelist."
        }
      },
      "getOptionInfoLength()": {
        "details": "retrieve all option list length. "
      },
      "getOptionInfoList(uint256,uint256)": {
        "details": "retrieve `size` number of options' information. ",
        "params": {
          "from": "all option list begin positon.",
          "size": "retrieve size."
        }
      },
      "getOptionInfoListFromID(uint256[])": {
        "details": "retrieve given `ids` options' information. ",
        "params": {
          "ids": "retrieved options' id."
        }
      },
      "getOptionsById(uint256)": {
        "details": "retrieve given `optionsId` option's information. ",
        "params": {
          "optionsId": "retrieved option's id."
        }
      },
      "getOptionsExtraById(uint256)": {
        "details": "retrieve given `optionsId` option's extra information. ",
        "params": {
          "optionsId": "retrieved option's id."
        }
      },
      "getOptionsLimitTimeById(uint256)": {
        "details": "retrieve given `optionsId` option's burned limit timestamp. ",
        "params": {
          "optionsId": "retrieved option's id."
        }
      },
      "getTotalOccupiedCollateral()": {
        "details": "get real total collateral occupied value."
      },
      "getUnderlyingAssets()": {
        "details": "Implementation of getting the eligible underlyingAssets."
      },
      "getUserOptionsID(address)": {
        "details": "retrieve user's options' id. ",
        "params": {
          "user": "user's account."
        }
      },
      "getUserOptionsID(address,uint256,uint256)": {
        "details": "retrieve user's `size` number of options' id. ",
        "params": {
          "from": "user's option list begin positon.",
          "size": "retrieve size.",
          "user": "user's account."
        }
      },
      "isEligibleExpiration(uint256)": {
        "details": "Implementation of testing whether the input expiration is eligible.",
        "params": {
          "expiration": "input expiration for testing."
        }
      },
      "isEligibleUnderlyingAsset(uint32)": {
        "details": "Implementation of testing whether the input underlying is eligible.",
        "params": {
          "underlying": "input underlying for testing."
        }
      },
      "isOwner()": {
        "details": "Returns true if the caller is the current owner."
      },
      "owner()": {
        "details": "Returns the address of the current owner."
      },
      "removeExpirationList(uint256)": {
        "details": "Implementation of revoke an invalid expiration from the expirationList.",
        "params": {
          "removeExpiration": "revoked expiration."
        }
      },
      "removeOperator(address)": {
        "details": "remove operator by owner.      "
      },
      "removeUnderlyingAssets(uint32)": {
        "details": "Implementation of revoke an invalid underlying from the underlyingAssets.",
        "params": {
          "removeUnderlying": "revoked underlying."
        }
      },
      "renounceOwnership()": {
        "details": "Leaves the contract without owner. It will not be possible to call `onlyOwner` functions anymore. Can only be called by the current owner.     * NOTE: Renouncing ownership will leave the contract without an owner, thereby removing any functionality that is only available to the owner."
      },
      "setCollateralPhase(uint256,uint256,int256)": {
        "details": "set collateral occupied value, only foundation operator can modify database.",
        "params": {
          "beginOption": "new first valid option's positon.",
          "latestOccpied": "latest occupied value when operater invoke collateral occupied calculation.",
          "totalOccupied": "new collateral calculation result."
        }
      },
      "setInputAmountRange(uint256,uint256)": {
        "details": "set the valid range of input amount",
        "params": {
          "_maxAmount": "the maximum input amount limit",
          "_minAmount": "the minimum input amount limit"
        }
      },
      "setManager(address)": {
        "details": "set manager by owner.      "
      },
      "setOccupiedCollateral()": {
        "details": "calculate collateral occupied value, and modify database, only foundation operator can modify database."
      },
      "setOperator(uint256,address)": {
        "details": "modify indexed operator by owner.      "
      },
      "setOperators(address[])": {
        "details": "set all operators by owner.      "
      },
      "setSharedState(uint256,int256[],address[])": {
        "details": "set latest options net worth balance, only manager contract can modify database.",
        "params": {
          "latestNetWorth": "latest options net worth.",
          "newFirstOption": "new first valid option position.",
          "whiteList": "eligible collateral address white list."
        }
      },
      "setTimeLimitation(uint256)": {
        "details": "set time limitation, only owner can invoke. ",
        "params": {
          "_limitation": "new time limitation."
        }
      },
      "transferOwnership(address)": {
        "details": "Transfers ownership of the contract to a new account (`newOwner`). Can only be called by the current owner."
      }
    },
    "title": "Options pool contract."
  },
  "userdoc": {
    "methods": {}
  }
}