{
  "contractName": "OptionsPrice",
  "abi": [
    {
      "constant": false,
      "inputs": [],
      "name": "renounceOwnership",
      "outputs": [],
      "payable": false,
      "stateMutability": "nonpayable",
      "type": "function"
    },
    {
      "constant": true,
      "inputs": [],
      "name": "owner",
      "outputs": [
        {
          "name": "",
          "type": "address"
        }
      ],
      "payable": false,
      "stateMutability": "view",
      "type": "function"
    },
    {
      "constant": true,
      "inputs": [],
      "name": "isOwner",
      "outputs": [
        {
          "name": "",
          "type": "bool"
        }
      ],
      "payable": false,
      "stateMutability": "view",
      "type": "function"
    },
    {
      "constant": false,
      "inputs": [
        {
          "name": "newOwner",
          "type": "address"
        }
      ],
      "name": "transferOwnership",
      "outputs": [],
      "payable": false,
      "stateMutability": "nonpayable",
      "type": "function"
    },
    {
      "anonymous": false,
      "inputs": [
        {
          "indexed": true,
          "name": "previousOwner",
          "type": "address"
        },
        {
          "indexed": true,
          "name": "newOwner",
          "type": "address"
        }
      ],
      "name": "OwnershipTransferred",
      "type": "event"
    },
    {
      "constant": true,
      "inputs": [
        {
          "name": "currentPrice",
          "type": "uint256"
        },
        {
          "name": "strikePrice",
          "type": "uint256"
        },
        {
          "name": "expiration",
          "type": "uint256"
        },
        {
          "name": "optType",
          "type": "uint8"
        }
      ],
      "name": "getOptionsPrice",
      "outputs": [
        {
          "name": "",
          "type": "uint256"
        }
      ],
      "payable": false,
      "stateMutability": "view",
      "type": "function"
    },
    {
      "constant": true,
      "inputs": [
        {
          "name": "currentPrice",
          "type": "uint256"
        },
        {
          "name": "strikePrice",
          "type": "uint256"
        },
        {
          "name": "expiration",
          "type": "uint256"
        },
        {
          "name": "ivNumerator",
          "type": "uint256"
        },
        {
          "name": "ivDenominator",
          "type": "uint256"
        },
        {
          "name": "optType",
          "type": "uint8"
        }
      ],
      "name": "getOptionsPrice_iv",
      "outputs": [
        {
          "name": "",
          "type": "uint256"
        }
      ],
      "payable": false,
      "stateMutability": "view",
      "type": "function"
    }
  ],
  "bytecode": "0x6301e1338060015560c06040819052600560808190526103e860a081905260039190915560045560008054600160a060020a0319163317808255600160a060020a0316917f8be0079c531659141344cd1fd0a4f28419497f9722a3daafe3b4186f6b6457e0908290a361154f806100776000396000f3006080604052600436106100775763ffffffff7c0100000000000000000000000000000000000000000000000000000000600035041663055ef6ab811461007c5780632f581f48146100b8578063715018a6146100dc5780638da5cb5b146100f35780638f32d59b14610124578063f2fde38b1461014d575b600080fd5b34801561008857600080fd5b506100a660043560243560443560643560843560ff60a4351661016e565b60408051918252519081900360200190f35b3480156100c457600080fd5b506100a660043560243560443560ff606435166101f7565b3480156100e857600080fd5b506100f1610326565b005b3480156100ff57600080fd5b506101086103f2565b60408051600160a060020a039092168252519081900360200190f35b34801561013057600080fd5b50610139610401565b604080519115158252519081900360200190f35b34801561015957600080fd5b506100f1600160a060020a0360043516610412565b60006101786114dd565b50604080518082019091528481526020810184905260ff831615156101c55760408051808201909152600354815260045460208201526101be9089908990899085610493565b91506101ec565b60408051808201909152600354815260045460208201526101be908990899089908561058d565b509695505050505050565b60008060006102046114dd565b600254604080517fad1bb83300000000000000000000000000000000000000000000000000000000815260048101899052602481018a90528151600160a060020a039093169263ad1bb833926044808401939192918290030181600087803b15801561026f57600080fd5b505af1158015610283573d6000803e3d6000fd5b505050506040513d604081101561029957600080fd5b508051602091820151604080518082019091528281529283018190529094509250905060ff851615156102f45760408051808201909152600354815260045460208201526102ed9089908990899085610493565b935061031b565b60408051808201909152600354815260045460208201526102ed908990899089908561058d565b505050949350505050565b61032e610401565b151561039b57604080517f08c379a000000000000000000000000000000000000000000000000000000000815260206004820181905260248201527f4f776e61626c653a2063616c6c6572206973206e6f7420746865206f776e6572604482015290519081900360640190fd5b60008054604051600160a060020a03909116907f8be0079c531659141344cd1fd0a4f28419497f9722a3daafe3b4186f6b6457e0908390a36000805473ffffffffffffffffffffffffffffffffffffffff19169055565b600054600160a060020a031690565b600054600160a060020a0316331490565b61041a610401565b151561048757604080517f08c379a000000000000000000000000000000000000000000000000000000000815260206004820181905260248201527f4f776e61626c653a2063616c6c6572206973206e6f7420746865206f776e6572604482015290519081900360640190fd5b610490816106a2565b50565b600061049d6114dd565b6104a56114dd565b6104ad6114dd565b6104b56114dd565b6104c28a8a8a8a8a6107a7565b935093506104cf846108f2565b93506104da836108f2565b92506104fb8460408051908101604052808d81526020016001815250610b54565b935061051c8360408051908101604052808c81526020016001815250610b54565b925061053e8760408051908101604052808b8152602001600154815250610b54565b915061055161054c83610b7d565b610c04565b915061055d8383610b54565b90506105698482610c2a565b90508060200151816000015181151561057e57fe5b059a9950505050505050505050565b60006105976114dd565b61059f6114dd565b6105a76114dd565b6105af6114dd565b6105bc8a8a8a8a8a6107a7565b935093506105c9846108f2565b93506105d4836108f2565b92506105f6604080519081016040528060018152602001600181525085610c2a565b9350610618604080519081016040528060018152602001600181525084610c2a565b92506106398460408051908101604052808d81526020016001815250610b54565b935061065a8360408051908101604052808c81526020016001815250610b54565b925061067c8760408051908101604052808b8152602001600154815250610b54565b915061068a61054c83610b7d565b91506106968383610b54565b90506105698185610c2a565b600160a060020a038116151561073f57604080517f08c379a000000000000000000000000000000000000000000000000000000000815260206004820152602660248201527f4f776e61626c653a206e6577206f776e657220697320746865207a65726f206160448201527f6464726573730000000000000000000000000000000000000000000000000000606482015290519081900360840190fd5b60008054604051600160a060020a03808516939216917f8be0079c531659141344cd1fd0a4f28419497f9722a3daafe3b4186f6b6457e091a36000805473ffffffffffffffffffffffffffffffffffffffff1916600160a060020a0392909216919091179055565b6107af6114dd565b6107b76114dd565b6107bf6114dd565b6107c76114dd565b6107cf6114dd565b6107d76114dd565b6107df6114dd565b6107e76114dd565b60408051808201909152600081526001602082015295508c8c146108285761080e8d610c4c565b94506108198c610c4c565b93506108258585610c2a565b95505b610832898a610b54565b9250610854836040805190810160405280600181526020016002815250610b54565b9250610860838b610c86565b92506108828360408051908101604052808e8152602001600154815250610b54565b925061088e8684610c86565b95506108c66108c060408051908101604052808e6402540be4000281526020016001546402540be40002815250610ca8565b8a610b54565b91506108d28683610d01565b95506108de8683610c2a565b959d959c50949a5050505050505050505050565b6108fa6114dd565b60006109046114dd565b61090c6114f4565b6109146114dd565b61091c6114dd565b6109246114dd565b61092c6114dd565b6109346114dd565b600061093f8b610d23565b98508815610953576109508b610d36565b9a505b60408051808201825262235883815262989680602080830191909152825160e0810184526301e7566960a082019081526305f5e10060c0830152815283518085018552631540bb45198152633b9aca008184018190528284019190915284518086018652636a2f323181528084018290528286015284518086018652636c8e292919815280840182905260608301528451808601909552634f4a607d855291840191909152608081019290925298509650610a0e8b89610b54565b9550610a30866040805190810160405280600181526020016001815250610c86565b9550610a3b86610c04565b95506040805190810160405280680229a4c508a92ae7d1815260200168056bc75e2d631000008152509450610a708b8c610b54565b9350610a9384604080519081016040528060001981526020016002815250610b54565b9350610a9e84610b7d565b9350610aaa8585610b54565b935060408051908101604052806000815260200160018152509250859150600090505b6005811015610b0f57610af983610af4898460058110610ae957fe5b602002015185610b54565b610c86565b9250610b058287610b54565b9150600101610acd565b610b198484610b54565b9350881515610b4557610b42604080519081016040528060018152602001600181525085610c2a565b93505b50919998505050505050505050565b610b5c6114dd565b610b76610b6884610d6d565b610b7184610d6d565b610e13565b9392505050565b610b856114dd565b6000610b8f6114dd565b610b9884610d23565b91508115610bac57610ba984610d36565b93505b835164010000000002845260408051808201909152602085015185518291610bdd91811515610bd757fe5b05610e41565b815264010000000060209091015290508115610b7657610bfc81610c04565b949350505050565b610c0c6114dd565b50604080518082019091526020808301518252825190820152919050565b610c326114dd565b610b76610c3e84610d6d565b610c4784610d6d565b610e61565b610c546114dd565b604080518082019091526401000000009092029180610c7284610e9d565b815264010000000060209091015292915050565b610c8e6114dd565b610b76610c9a84610d6d565b610ca384610d6d565b610ed4565b610cb06114dd565b8151600013801590610cc757506000826020015112155b1515610ccf57fe5b6040805190810160405280610ce78460000151610f0d565b8152602001610cf98460200151610f0d565b905292915050565b610d096114dd565b610b76610d1584610d6d565b610d1e84610d6d565b610f48565b6020810151905160009182139113141590565b610d3e6114dd565b815160001315610d5057815160000382525b600082602001511215610d695760208201805160000390525b5090565b610d756114dd565b6000806000610d878560000151610f76565b9250610d968560200151610f76565b915082821315610dde576c8fffffffffffffffffffffffff821315610dd9576c8fffffffffffffffffffffffff825b059050610dd28582610f8c565b9350610e0b565b610e07565b6c8fffffffffffffffffffffffff831315610e07576c8fffffffffffffffffffffffff83610dc5565b8493505b505050919050565b610e1b6114dd565b506040805180820190915281518351028152602091820151928201519092029082015290565b600064386bfdba29821115610e5257fe5b610e5b82610fcd565b92915050565b610e696114dd565b5060408051808201909152602080840180518451858401805188519290930291909202038452519051029082015292915050565b600080640100000000831015610eaf57fe5b610eb883611455565b67010000000000000066b17217f7d1cf78909102049392505050565b610edc6114dd565b5060408051808201909152602080840180518451858401805188510291909202018452519051029082015292915050565b80600260018201045b81811015610f42578091506002818285811515610f2f57fe5b0401811515610f3a57fe5b049050610f16565b50919050565b610f506114dd565b506040805180820190915260208281015184510282529151928201519092029082015290565b6000808212610f855781610e5b565b5060000390565b610f946114dd565b6040805190810160405280838560000151811515610fae57fe5b058152602001838560200151811515610fc357fe5b0590529392505050565b6000806000602060ff1660019060020a029150816fde1bc4d19efcac82445da75b00000000029050602060ff168483029060020a90049150816fde1bc4d19efcb00000000000000000000281019050602060ff168483029060020a90049150816f6f0de268cf7e580000000000000000000281019050602060ff168483029060020a90049150816f2504a0cd9a7f720000000000000000000281019050602060ff168483029060020a90049150816f09412833669fdc8000000000000000000281019050602060ff168483029060020a90049150816f01d9d4d714865f5000000000000000000281019050602060ff168483029060020a90049150816e4ef8ce836bba8c00000000000000000281019050602060ff168483029060020a90049150816e0b481d807d1aa680000000000000000281019050602060ff168483029060020a90049150816e016903b00fa354d0000000000000000281019050602060ff168483029060020a90049150816d281cdaac677b34000000000000000281019050602060ff168483029060020a90049150816d0402e2aad725eb800000000000000281019050602060ff168483029060020a90049150816c5d5a6c9f31fe240000000000000281019050602060ff168483029060020a90049150816c07c7890d442a830000000000000281019050602060ff168483029060020a90049150816b9931ed5403452800000000000281019050602060ff168483029060020a90049150816b0af147cf24ce1500000000000281019050602060ff168483029060020a90049150816abac08546b867d0000000000281019050602060ff168483029060020a90049150816a0bac08546b867d000000000281019050602060ff168483029060020a900491508169afc441338061b80000000281019050602060ff168483029060020a90049150816909c3cabbc0056e0000000281019050602060ff168483029060020a900491508168839168328705c800000281019050602060ff168483029060020a9004915081680694120286c04a00000281019050602060ff168483029060020a90049150816750319e98b3d2c4000281019050602060ff168483029060020a90049150816703a52a1e36b820200281019050602060ff168483029060020a900491508166289286e0fce0020281019050602060ff168483029060020a90049150816601b0c59eb534000281019050602060ff168483029060020a900491508165114f95b554000281019050602060ff168483029060020a900491508164aa7210d2000281019050602060ff168483029060020a90049150816406501396000281019050602060ff168483029060020a90049150816339b78e800281019050602060ff168483029060020a90049150816301fd80800281019050602060ff168483029060020a90049150816210fbc00281019050602060ff168483029060020a9004915081618c400281019050602060ff168483029060020a90049150816104620281019050602060ff168483029060020a9004915081602202810190506fde1bc4d19efcac82445da75b000000008181151561144c57fe5b04949350505050565b6000808064010000000084101561146857fe5b600091505b640200000000841061148f57600290930492640100000000919091019061146d565b5060005b602060ff821610156114d65764010000000084800204935064020000000084106114ce576002938490049360ff601f83900316900a91909101905b600101611493565b5092915050565b604080518082019091526000808252602082015290565b610140604051908101604052806005905b61150d6114dd565b81526020019060019003908161150557905050905600a165627a7a7230582093fad30d0cf4ec7849a63ae659dc36fe6efd314a26652e11f4e6e370405493fe0029",
  "source": "pragma solidity ^0.4.26;\r\n\r\nimport \"./modules/Ownable.sol\";\r\nimport \"./modules/Fraction.sol\";\r\nimport \"./interfaces/IVolatility.sol\";\r\ncontract OptionsPrice is Ownable{\r\n    uint256 internal Year = 365 days;\r\n    IVolatility internal volatility;\r\n    Fraction.fractionNumber internal rate = Fraction.fractionNumber(5,1000);\r\n\r\n    function getOptionsPrice(uint256 currentPrice, uint256 strikePrice, uint256 expiration,uint8 optType)public view returns (uint256){\r\n        (uint256 ivNumerator,uint256 ivDenominator) = volatility.calculateIv(expiration,strikePrice);\r\n        Fraction.fractionNumber memory _iv = Fraction.fractionNumber(int256(ivNumerator),int256(ivDenominator));\r\n        if (optType == 0) {\r\n            return callOptionsPrice(currentPrice,strikePrice,expiration,rate,_iv);\r\n        }else{\r\n            return putOptionsPrice(currentPrice,strikePrice,expiration,rate,_iv);\r\n        }\r\n    }\r\n    function getOptionsPrice_iv(uint256 currentPrice, uint256 strikePrice, uint256 expiration,\r\n            uint256 ivNumerator,uint256 ivDenominator,uint8 optType)public view returns (uint256){\r\n        Fraction.fractionNumber memory _iv = Fraction.fractionNumber(int256(ivNumerator),int256(ivDenominator));\r\n        if (optType == 0) {\r\n            return callOptionsPrice(currentPrice,strikePrice,expiration,rate,_iv);\r\n        }else{\r\n            return putOptionsPrice(currentPrice,strikePrice,expiration,rate,_iv);\r\n        }\r\n    }\r\n    function calculateD1D2(uint256 currentPrice, uint256 strikePrice, uint256 expiration,\r\n         Fraction.fractionNumber memory r, Fraction.fractionNumber memory derta) \r\n            internal view returns (Fraction.fractionNumber, Fraction.fractionNumber) {\r\n        Fraction.fractionNumber memory d1 = Fraction.fractionNumber(0,1);\r\n        if (currentPrice != strikePrice){\r\n            Fraction.fractionNumber memory lns = Fraction.fractionLn(currentPrice);\r\n            Fraction.fractionNumber memory lnl = Fraction.fractionLn(strikePrice);\r\n            d1 = Fraction.safeFractionSub(lns, lnl);\r\n        }\r\n        Fraction.fractionNumber memory derta2 = Fraction.safeFractionMul(derta, derta);\r\n        derta2 = Fraction.safeFractionMul(derta2, Fraction.fractionNumber(1,2));\r\n        derta2 = Fraction.safeFractionAdd(derta2, r);\r\n        derta2 = Fraction.safeFractionMul(derta2, Fraction.fractionNumber(int256(expiration),int256(Year)));\r\n        d1 = Fraction.safeFractionAdd(d1, derta2);\r\n        Fraction.fractionNumber memory dertaT = Fraction.safeFractionMul(Fraction.fractionSqrt(Fraction.fractionNumber(int256(expiration*1e10),int256(Year*1e10))), derta);\r\n        d1 = Fraction.safeFractionDiv(d1, dertaT);\r\n        Fraction.fractionNumber memory d2 = Fraction.safeFractionSub(d1, dertaT);\r\n        return (d1, d2);\r\n    }\r\n\r\n    //L*pow(e,-rT)*(1-N(d2)) - S*(1-N(d1))\r\n    function putOptionsPrice(uint256 currentPrice, uint256 strikePrice, uint256 expiration,\r\n            Fraction.fractionNumber memory r, Fraction.fractionNumber memory derta) \r\n                internal view returns (uint256) {\r\n       (Fraction.fractionNumber memory d1, Fraction.fractionNumber memory d2) = calculateD1D2(currentPrice, strikePrice, expiration, r, derta);\r\n        d1 = Fraction.normsDist(d1);\r\n        d2 = Fraction.normsDist(d2);\r\n        d1 = Fraction.safeFractionSub(Fraction.fractionNumber(1,1), d1);\r\n        d2 = Fraction.safeFractionSub(Fraction.fractionNumber(1,1), d2);\r\n        d1 = Fraction.safeFractionMul(d1, Fraction.fractionNumber(int256(currentPrice),1));\r\n        d2 = Fraction.safeFractionMul(d2, Fraction.fractionNumber(int256(strikePrice),1));\r\n        Fraction.fractionNumber memory rt = Fraction.safeFractionMul(r,Fraction.fractionNumber(int256(expiration),int256(Year)));\r\n        rt = Fraction.invert(Fraction.fractionExp(rt));\r\n        Fraction.fractionNumber memory price = Fraction.safeFractionMul(d2, rt);\r\n        price = Fraction.safeFractionSub(price, d1);\r\n        return uint256(price.numerator/price.denominator);\r\n    }\r\n\r\n    /*\r\n        r := FloatNum{\r\n            big.NewInt(5),\r\n            big.NewInt(1000)}\r\n    */\r\n    //S*N(d1)-L*pow(e,-rT)*N(d2)\r\n    function callOptionsPrice(uint256 currentPrice, uint256 strikePrice, uint256 expiration,\r\n            Fraction.fractionNumber memory r, Fraction.fractionNumber memory derta) \r\n                internal view returns (uint256) {\r\n       (Fraction.fractionNumber memory d1, Fraction.fractionNumber memory d2) = calculateD1D2(currentPrice, strikePrice, expiration, r, derta);\r\n        d1 = Fraction.normsDist(d1);\r\n        d2 = Fraction.normsDist(d2);\r\n        d1 = Fraction.safeFractionMul(d1, Fraction.fractionNumber(int256(currentPrice),1));\r\n        d2 = Fraction.safeFractionMul(d2, Fraction.fractionNumber(int256(strikePrice),1));\r\n        Fraction.fractionNumber memory rt = Fraction.safeFractionMul(r,Fraction.fractionNumber(int256(expiration),int256(Year)));\r\n        rt = Fraction.invert(Fraction.fractionExp(rt));\r\n        Fraction.fractionNumber memory price = Fraction.safeFractionMul(d2, rt);\r\n        price = Fraction.safeFractionSub(d1, price);\r\n        return uint256(price.numerator/price.denominator);\r\n    }\r\n}",
  "sourcePath": "C:\\work\\solidity\\FinnexusOptions_V2\\contracts\\optionsPrice.sol",
  "compiler": {
    "name": "solc",
    "version": "0.4.26+commit.4563c3fc.Emscripten.clang"
  },
  "schemaVersion": "3.1.0",
  "updatedAt": "2020-07-20T13:46:56.904Z",
  "devdoc": {
    "methods": {
      "isOwner()": {
        "details": "Returns true if the caller is the current owner."
      },
      "owner()": {
        "details": "Returns the address of the current owner."
      },
      "renounceOwnership()": {
        "details": "Leaves the contract without owner. It will not be possible to call `onlyOwner` functions anymore. Can only be called by the current owner.     * NOTE: Renouncing ownership will leave the contract without an owner, thereby removing any functionality that is only available to the owner."
      },
      "transferOwnership(address)": {
        "details": "Transfers ownership of the contract to a new account (`newOwner`). Can only be called by the current owner."
      }
    }
  },
  "userdoc": {
    "methods": {}
  }
}