{
  "contractName": "OptionsOccupiedCal",
  "abi": [
    {
      "constant": true,
      "inputs": [
        {
          "name": "from",
          "type": "uint256"
        },
        {
          "name": "size",
          "type": "uint256"
        }
      ],
      "name": "getOptionInfoList",
      "outputs": [
        {
          "name": "",
          "type": "address[]"
        },
        {
          "name": "",
          "type": "uint256[]"
        },
        {
          "name": "",
          "type": "uint256[]"
        },
        {
          "name": "",
          "type": "uint256[]"
        },
        {
          "name": "",
          "type": "uint256[]"
        }
      ],
      "payable": false,
      "stateMutability": "view",
      "type": "function"
    },
    {
      "constant": false,
      "inputs": [
        {
          "name": "volatility",
          "type": "address"
        }
      ],
      "name": "setVolatilityAddress",
      "outputs": [],
      "payable": false,
      "stateMutability": "nonpayable",
      "type": "function"
    },
    {
      "constant": true,
      "inputs": [
        {
          "name": "ids",
          "type": "uint256[]"
        }
      ],
      "name": "getOptionInfoListFromID",
      "outputs": [
        {
          "name": "",
          "type": "address[]"
        },
        {
          "name": "",
          "type": "uint256[]"
        },
        {
          "name": "",
          "type": "uint256[]"
        },
        {
          "name": "",
          "type": "uint256[]"
        },
        {
          "name": "",
          "type": "uint256[]"
        }
      ],
      "payable": false,
      "stateMutability": "view",
      "type": "function"
    },
    {
      "constant": true,
      "inputs": [],
      "name": "getUnderlyingAssets",
      "outputs": [
        {
          "name": "",
          "type": "uint32[]"
        }
      ],
      "payable": false,
      "stateMutability": "view",
      "type": "function"
    },
    {
      "constant": true,
      "inputs": [
        {
          "name": "expiration",
          "type": "uint256"
        },
        {
          "name": "underlying",
          "type": "uint32"
        }
      ],
      "name": "buyOptionCheck",
      "outputs": [],
      "payable": false,
      "stateMutability": "view",
      "type": "function"
    },
    {
      "constant": true,
      "inputs": [],
      "name": "getVolatilityAddress",
      "outputs": [
        {
          "name": "",
          "type": "address"
        }
      ],
      "payable": false,
      "stateMutability": "view",
      "type": "function"
    },
    {
      "constant": true,
      "inputs": [
        {
          "name": "optionsId",
          "type": "uint256"
        }
      ],
      "name": "getOptionsById",
      "outputs": [
        {
          "name": "",
          "type": "uint256"
        },
        {
          "name": "",
          "type": "address"
        },
        {
          "name": "",
          "type": "uint8"
        },
        {
          "name": "",
          "type": "uint32"
        },
        {
          "name": "",
          "type": "uint256"
        },
        {
          "name": "",
          "type": "uint256"
        },
        {
          "name": "",
          "type": "uint256"
        }
      ],
      "payable": false,
      "stateMutability": "view",
      "type": "function"
    },
    {
      "constant": false,
      "inputs": [
        {
          "name": "oracle",
          "type": "address"
        }
      ],
      "name": "setOracleAddress",
      "outputs": [],
      "payable": false,
      "stateMutability": "nonpayable",
      "type": "function"
    },
    {
      "constant": true,
      "inputs": [
        {
          "name": "optionID",
          "type": "uint256"
        },
        {
          "name": "amount",
          "type": "uint256"
        }
      ],
      "name": "getBurnedFullPay",
      "outputs": [
        {
          "name": "",
          "type": "address"
        },
        {
          "name": "",
          "type": "uint256"
        }
      ],
      "payable": false,
      "stateMutability": "view",
      "type": "function"
    },
    {
      "constant": true,
      "inputs": [],
      "name": "getBurnTimeLimit",
      "outputs": [
        {
          "name": "",
          "type": "uint256"
        }
      ],
      "payable": false,
      "stateMutability": "view",
      "type": "function"
    },
    {
      "constant": true,
      "inputs": [
        {
          "name": "optionsId",
          "type": "uint256"
        },
        {
          "name": "amount",
          "type": "uint256"
        }
      ],
      "name": "getExerciseWorth",
      "outputs": [
        {
          "name": "",
          "type": "uint256"
        }
      ],
      "payable": false,
      "stateMutability": "view",
      "type": "function"
    },
    {
      "constant": true,
      "inputs": [
        {
          "name": "optionsId",
          "type": "uint256"
        }
      ],
      "name": "getOptionsLimitTimeById",
      "outputs": [
        {
          "name": "",
          "type": "uint256"
        }
      ],
      "payable": false,
      "stateMutability": "view",
      "type": "function"
    },
    {
      "constant": false,
      "inputs": [],
      "name": "renounceOwnership",
      "outputs": [],
      "payable": false,
      "stateMutability": "nonpayable",
      "type": "function"
    },
    {
      "constant": true,
      "inputs": [
        {
          "name": "expiration",
          "type": "uint256"
        }
      ],
      "name": "checkExpiration",
      "outputs": [],
      "payable": false,
      "stateMutability": "view",
      "type": "function"
    },
    {
      "constant": false,
      "inputs": [
        {
          "name": "expiration",
          "type": "uint256"
        }
      ],
      "name": "addExpiration",
      "outputs": [],
      "payable": false,
      "stateMutability": "nonpayable",
      "type": "function"
    },
    {
      "constant": false,
      "inputs": [
        {
          "name": "removeExpiration",
          "type": "uint256"
        }
      ],
      "name": "removeExpirationList",
      "outputs": [
        {
          "name": "",
          "type": "bool"
        }
      ],
      "payable": false,
      "stateMutability": "nonpayable",
      "type": "function"
    },
    {
      "constant": true,
      "inputs": [],
      "name": "owner",
      "outputs": [
        {
          "name": "",
          "type": "address"
        }
      ],
      "payable": false,
      "stateMutability": "view",
      "type": "function"
    },
    {
      "constant": true,
      "inputs": [],
      "name": "isOwner",
      "outputs": [
        {
          "name": "",
          "type": "bool"
        }
      ],
      "payable": false,
      "stateMutability": "view",
      "type": "function"
    },
    {
      "constant": true,
      "inputs": [],
      "name": "getExpirationList",
      "outputs": [
        {
          "name": "",
          "type": "uint256[]"
        }
      ],
      "payable": false,
      "stateMutability": "view",
      "type": "function"
    },
    {
      "constant": false,
      "inputs": [
        {
          "name": "addAddress",
          "type": "address"
        }
      ],
      "name": "addOperator",
      "outputs": [],
      "payable": false,
      "stateMutability": "nonpayable",
      "type": "function"
    },
    {
      "constant": true,
      "inputs": [
        {
          "name": "expiration",
          "type": "uint256"
        }
      ],
      "name": "isEligibleExpiration",
      "outputs": [
        {
          "name": "",
          "type": "bool"
        }
      ],
      "payable": false,
      "stateMutability": "view",
      "type": "function"
    },
    {
      "constant": false,
      "inputs": [
        {
          "name": "removeAddress",
          "type": "address"
        }
      ],
      "name": "removeOperator",
      "outputs": [
        {
          "name": "",
          "type": "bool"
        }
      ],
      "payable": false,
      "stateMutability": "nonpayable",
      "type": "function"
    },
    {
      "constant": false,
      "inputs": [
        {
          "name": "underlying",
          "type": "uint32"
        }
      ],
      "name": "addUnderlyingAsset",
      "outputs": [],
      "payable": false,
      "stateMutability": "nonpayable",
      "type": "function"
    },
    {
      "constant": true,
      "inputs": [],
      "name": "getOracleAddress",
      "outputs": [
        {
          "name": "",
          "type": "address"
        }
      ],
      "payable": false,
      "stateMutability": "view",
      "type": "function"
    },
    {
      "constant": true,
      "inputs": [],
      "name": "getOptionInfoLength",
      "outputs": [
        {
          "name": "",
          "type": "uint256"
        }
      ],
      "payable": false,
      "stateMutability": "view",
      "type": "function"
    },
    {
      "constant": false,
      "inputs": [
        {
          "name": "timeLimit",
          "type": "uint256"
        }
      ],
      "name": "setBurnTimeLimit",
      "outputs": [],
      "payable": false,
      "stateMutability": "nonpayable",
      "type": "function"
    },
    {
      "constant": false,
      "inputs": [
        {
          "name": "managerAddress",
          "type": "address"
        }
      ],
      "name": "setManager",
      "outputs": [],
      "payable": false,
      "stateMutability": "nonpayable",
      "type": "function"
    },
    {
      "constant": true,
      "inputs": [],
      "name": "getManager",
      "outputs": [
        {
          "name": "",
          "type": "address"
        }
      ],
      "payable": false,
      "stateMutability": "view",
      "type": "function"
    },
    {
      "constant": false,
      "inputs": [
        {
          "name": "removeUnderlying",
          "type": "uint32"
        }
      ],
      "name": "removeUnderlyingAssets",
      "outputs": [
        {
          "name": "",
          "type": "bool"
        }
      ],
      "payable": false,
      "stateMutability": "nonpayable",
      "type": "function"
    },
    {
      "constant": true,
      "inputs": [
        {
          "name": "underlying",
          "type": "uint32"
        }
      ],
      "name": "isEligibleUnderlyingAsset",
      "outputs": [
        {
          "name": "",
          "type": "bool"
        }
      ],
      "payable": false,
      "stateMutability": "view",
      "type": "function"
    },
    {
      "constant": false,
      "inputs": [
        {
          "name": "index",
          "type": "uint256"
        },
        {
          "name": "addAddress",
          "type": "address"
        }
      ],
      "name": "setOperator",
      "outputs": [],
      "payable": false,
      "stateMutability": "nonpayable",
      "type": "function"
    },
    {
      "constant": true,
      "inputs": [
        {
          "name": "user",
          "type": "address"
        }
      ],
      "name": "getUserOptionsID",
      "outputs": [
        {
          "name": "",
          "type": "uint256[]"
        }
      ],
      "payable": false,
      "stateMutability": "view",
      "type": "function"
    },
    {
      "constant": true,
      "inputs": [],
      "name": "getOperator",
      "outputs": [
        {
          "name": "",
          "type": "address[]"
        }
      ],
      "payable": false,
      "stateMutability": "view",
      "type": "function"
    },
    {
      "constant": true,
      "inputs": [
        {
          "name": "underlying",
          "type": "uint32"
        }
      ],
      "name": "checkUnderlyingAsset",
      "outputs": [],
      "payable": false,
      "stateMutability": "view",
      "type": "function"
    },
    {
      "constant": false,
      "inputs": [
        {
          "name": "newOwner",
          "type": "address"
        }
      ],
      "name": "transferOwnership",
      "outputs": [],
      "payable": false,
      "stateMutability": "nonpayable",
      "type": "function"
    },
    {
      "constant": true,
      "inputs": [
        {
          "name": "user",
          "type": "address"
        },
        {
          "name": "from",
          "type": "uint256"
        },
        {
          "name": "size",
          "type": "uint256"
        }
      ],
      "name": "getUserOptionsID",
      "outputs": [
        {
          "name": "",
          "type": "uint256[]"
        }
      ],
      "payable": false,
      "stateMutability": "view",
      "type": "function"
    },
    {
      "anonymous": false,
      "inputs": [
        {
          "indexed": true,
          "name": "owner",
          "type": "address"
        },
        {
          "indexed": true,
          "name": "optionID",
          "type": "uint256"
        },
        {
          "indexed": false,
          "name": "optType",
          "type": "uint8"
        },
        {
          "indexed": false,
          "name": "underlying",
          "type": "uint32"
        },
        {
          "indexed": false,
          "name": "expiration",
          "type": "uint256"
        },
        {
          "indexed": false,
          "name": "strikePrice",
          "type": "uint256"
        },
        {
          "indexed": false,
          "name": "amount",
          "type": "uint256"
        }
      ],
      "name": "CreateOption",
      "type": "event"
    },
    {
      "anonymous": false,
      "inputs": [
        {
          "indexed": true,
          "name": "owner",
          "type": "address"
        },
        {
          "indexed": true,
          "name": "optionID",
          "type": "uint256"
        },
        {
          "indexed": false,
          "name": "amount",
          "type": "uint256"
        }
      ],
      "name": "BurnOption",
      "type": "event"
    },
    {
      "anonymous": false,
      "inputs": [
        {
          "indexed": false,
          "name": "value1",
          "type": "uint256"
        },
        {
          "indexed": false,
          "name": "value2",
          "type": "uint256"
        },
        {
          "indexed": false,
          "name": "value3",
          "type": "uint256"
        }
      ],
      "name": "DebugEvent",
      "type": "event"
    },
    {
      "anonymous": false,
      "inputs": [
        {
          "indexed": true,
          "name": "previousOwner",
          "type": "address"
        },
        {
          "indexed": true,
          "name": "newOwner",
          "type": "address"
        }
      ],
      "name": "OwnershipTransferred",
      "type": "event"
    },
    {
      "constant": true,
      "inputs": [],
      "name": "getOccupiedCalInfo",
      "outputs": [
        {
          "name": "",
          "type": "uint256"
        },
        {
          "name": "",
          "type": "int256"
        }
      ],
      "payable": false,
      "stateMutability": "view",
      "type": "function"
    },
    {
      "constant": false,
      "inputs": [],
      "name": "setOccupiedCollateral",
      "outputs": [],
      "payable": false,
      "stateMutability": "nonpayable",
      "type": "function"
    },
    {
      "constant": true,
      "inputs": [
        {
          "name": "lastOption",
          "type": "uint256"
        },
        {
          "name": "beginOption",
          "type": "uint256"
        },
        {
          "name": "endOption",
          "type": "uint256"
        }
      ],
      "name": "calculatePhaseOccupiedCollateral",
      "outputs": [
        {
          "name": "",
          "type": "uint256"
        },
        {
          "name": "",
          "type": "uint256"
        },
        {
          "name": "",
          "type": "bool"
        }
      ],
      "payable": false,
      "stateMutability": "view",
      "type": "function"
    },
    {
      "constant": false,
      "inputs": [
        {
          "name": "totalOccupied",
          "type": "uint256"
        },
        {
          "name": "beginOption",
          "type": "uint256"
        },
        {
          "name": "latestOccpied",
          "type": "int256"
        }
      ],
      "name": "setCollateralPhase",
      "outputs": [],
      "payable": false,
      "stateMutability": "nonpayable",
      "type": "function"
    },
    {
      "constant": true,
      "inputs": [],
      "name": "getTotalOccupiedCollateral",
      "outputs": [
        {
          "name": "",
          "type": "uint256"
        }
      ],
      "payable": false,
      "stateMutability": "view",
      "type": "function"
    }
  ],
  "bytecode": "0x60806040819052610e1060095560008054600160a060020a0319163317808255600160a060020a0316917f8be0079c531659141344cd1fd0a4f28419497f9722a3daafe3b4186f6b6457e0908290a36040805160e0810182526201518081526203f480602082015262093a8091810191909152620d2f0060608201526213c680608082015262278d0060a08201526276a70060c0820152620000a6906008906007620000d2565b50604080518082019091526001808252600260208301819052620000cb929062000129565b506200021c565b82805482825590600052602060002090810192821562000117579160200282015b8281111562000117578251829062ffffff16905591602001919060010190620000f3565b5062000125929150620001d8565b5090565b82805482825590600052602060002090600701600890048101928215620001ca5791602002820160005b838211156200019657835183826101000a81548163ffffffff021916908360ff160217905550926020019260040160208160030104928301926001030262000153565b8015620001c85782816101000a81549063ffffffff021916905560040160208160030104928301926001030262000196565b505b5062000125929150620001f8565b620001f591905b80821115620001255760008155600101620001df565b90565b620001f591905b808211156200012557805463ffffffff19168155600101620001ff565b612cd2806200022c6000396000f3006080604052600436106101df5763ffffffff60e060020a6000350416630438d49081146101e457806309057622146103675780630c3725711461039557806312039cc2146103d35780632967eafe146103f3578063354af360146104145780633582d789146104695780633ad2fb57146104ce57806342e5479d146104ef57806348ee201d146105205780634c69c00f1461057f578063597ce900146105a057806364ed3017146105de57806367b8ceb9146106055780636d84e2e314610620578063715018a614610638578063723931ca1461064d57806373a3d424146106655780637cfff2d81461067a5780637e838fa3146106925780638da5cb5b146106be5780638f32d59b146106d35780639052d5f8146106e85780639870d7fe146106fd5780639ef975d21461071e578063ac8a584a14610736578063afec82fc14610757578063b18b78dd14610775578063bec3107f1461078a578063c5acbe151461079f578063d0ebdbe7146107b7578063d5009584146107d8578063d6d14012146107ed578063db6ad2bd1461080b578063e7a1c1c014610829578063e7c568151461084d578063e7f43c681461086e578063ee29c94a14610883578063f2fde38b146108a1578063f504e2f0146108c2578063f7de1923146108d7575b600080fd5b3480156101f057600080fd5b506101ff6004356024356108fe565b60405180806020018060200180602001806020018060200186810386528b818151815260200191508051906020019060200280838360005b8381101561024f578181015183820152602001610237565b5050505090500186810385528a818151815260200191508051906020019060200280838360005b8381101561028e578181015183820152602001610276565b50505050905001868103845289818151815260200191508051906020019060200280838360005b838110156102cd5781810151838201526020016102b5565b50505050905001868103835288818151815260200191508051906020019060200280838360005b8381101561030c5781810151838201526020016102f4565b50505050905001868103825287818151815260200191508051906020019060200280838360005b8381101561034b578181015183820152602001610333565b505050509050019a505050505050505050505060405180910390f35b34801561037357600080fd5b5061037c610b48565b6040805192835260208301919091528051918290030190f35b3480156103a157600080fd5b506103b3600435602435604435610b52565b604080519384526020840192909252151582820152519081900360600190f35b3480156103df57600080fd5b506103f1600435602435604435610bcd565b005b3480156103ff57600080fd5b506103f1600160a060020a0360043516610ca4565b34801561042057600080fd5b50604080516020600480358082013583810280860185019096528085526101ff95369593946024949385019291829185019084908082843750949750610d1f9650505050505050565b34801561047557600080fd5b5061047e610f38565b60408051602080825283518183015283519192839290830191858101910280838360005b838110156104ba5781810151838201526020016104a2565b505050509050019250505060405180910390f35b3480156104da57600080fd5b506103f160043563ffffffff60243516610fbd565b3480156104fb57600080fd5b50610504611029565b60408051600160a060020a039092168252519081900360200190f35b34801561052c57600080fd5b50610538600435611038565b60408051978852600160a060020a03909616602088015260ff9094168686015263ffffffff9092166060860152608085015260a084015260c0830152519081900360e00190f35b34801561058b57600080fd5b506103f1600160a060020a03600435166110ac565b3480156105ac57600080fd5b506105bb600435602435611127565b60408051600160a060020a03909316835260208301919091528051918290030190f35b3480156105ea57600080fd5b506105f3611197565b60408051918252519081900360200190f35b34801561061157600080fd5b506105f360043560243561119d565b34801561062c57600080fd5b506105f360043561131d565b34801561064457600080fd5b506103f16113a4565b34801561065957600080fd5b506103f1600435611447565b34801561067157600080fd5b506105f36114cf565b34801561068657600080fd5b506103f1600435611521565b34801561069e57600080fd5b506106aa60043561157e565b604080519115158252519081900360200190f35b3480156106ca57600080fd5b506105046115e3565b3480156106df57600080fd5b506106aa6115f2565b3480156106f457600080fd5b5061047e611603565b34801561070957600080fd5b506103f1600160a060020a036004351661165a565b34801561072a57600080fd5b506106aa6004356116b7565b34801561074257600080fd5b506106aa600160a060020a036004351661171c565b34801561076357600080fd5b506103f163ffffffff6004351661177b565b34801561078157600080fd5b506105046117d8565b34801561079657600080fd5b506105f36117e7565b3480156107ab57600080fd5b506103f16004356117ed565b3480156107c357600080fd5b506103f1600160a060020a036004351661183e565b3480156107e457600080fd5b506105046118b9565b3480156107f957600080fd5b506106aa63ffffffff600435166118c8565b34801561081757600080fd5b506106aa63ffffffff60043516611927565b34801561083557600080fd5b506103f1600435600160a060020a03602435166119b8565b34801561085957600080fd5b5061047e600160a060020a0360043516611a46565b34801561087a57600080fd5b5061047e611ab2565b34801561088f57600080fd5b506103f163ffffffff60043516611b13565b3480156108ad57600080fd5b506103f1600160a060020a0360043516611ba2565b3480156108ce57600080fd5b506103f1611bf7565b3480156108e357600080fd5b5061047e600160a060020a0360043516602435604435611cec565b6060806060806060806060806060806000806005805490508d8f01111561093557600554610932908f63ffffffff611dd316565b9c505b60008d1115610b37578c604051908082528060200260200182016040528015610968578160200160208202803883390190505b5096508c604051908082528060200260200182016040528015610995578160200160208202803883390190505b5095508c6040519080825280602002602001820160405280156109c2578160200160208202803883390190505b5094508c6040519080825280602002602001820160405280156109ef578160200160208202803883390190505b5093508c604051908082528060200260200182016040528015610a1c578160200160208202803883390190505b509250600091505b8c821015610b2757600580548f8401908110610a3c57fe5b906000526020600020906005020190508060000160089054906101000a9004600160a060020a03168783815181101515610a7257fe5b600160a060020a03929092166020928302919091019091015280546001820154875160e060020a90920460ff1663ffffffff9182166201000002011690879084908110610abb57fe5b6020908102909101015260028101548551869084908110610ad857fe5b6020908102909101015260038101548451859084908110610af557fe5b6020908102909101015260048101548351849084908110610b1257fe5b60209081029091010152600190910190610a24565b86868686869b509b509b509b509b505b505050505050509295509295909350565b600b54600d549091565b6000806000806000600b54871015610b6a57600b5496505b878710610b805760009450849350839250610bc2565b87861115610b9057879550610ba9565b600b54861015610ba95760009450849350839250610bc2565b610bb38787611e1c565b91509150818160019450945094505b505093509350939050565b600a5460009081108015610c045750600a805433919083908110610bed57fe5b600091825260209091200154600160a060020a0316145b1515610c80576040805160e560020a62461bcd02815260206004820152603060248201527f4d616e6167657261626c653a2063616c6c6572206973206e6f7420746865206560448201527f6c696769626c65204f70657261746f7200000000000000000000000000000000606482015290519081900360840190fd5b600b54831115610c9057600b8390555b50600c9290925550600d8054919091039055565b610cac6115f2565b1515610cf0576040805160e560020a62461bcd0281526020600482018190526024820152600080516020612c87833981519152604482015290519081900360640190fd5b6004805473ffffffffffffffffffffffffffffffffffffffff1916600160a060020a0392909216919091179055565b6060806060806060600060608060608060606000808d51975087604051908082528060200260200182016040528015610d62578160200160208202803883390190505b50965087604051908082528060200260200182016040528015610d8f578160200160208202803883390190505b50955087604051908082528060200260200182016040528015610dbc578160200160208202803883390190505b50945087604051908082528060200260200182016040528015610de9578160200160208202803883390190505b50935087604051908082528060200260200182016040528015610e16578160200160208202803883390190505b509250600091505b87821015610f2457610e468e83815181101515610e3757fe5b90602001906020020151611f5a565b80548851919250680100000000000000009004600160a060020a031690889084908110610e6f57fe5b600160a060020a03929092166020928302919091019091015280546001820154875160e060020a90920460ff1663ffffffff9182166201000002011690879084908110610eb857fe5b6020908102909101015260028101548551869084908110610ed557fe5b6020908102909101015260038101548451859084908110610ef257fe5b6020908102909101015260048101548351849084908110610f0f57fe5b60209081029091010152600190910190610e1e565b50949c939b50919950975095509350505050565b60606001805480602002602001604051908101604052809291908181526020018280548015610fb257602002820191906000526020600020906000905b82829054906101000a900463ffffffff1663ffffffff1681526020019060040190602082600301049283019260010382029150808411610f755790505b505050505090505b90565b610fc681611927565b151561101c576040805160e560020a62461bcd02815260206004820152601f60248201527f756e6465726c79696e6720697320756e737570706f7274656420617373657400604482015290519081900360640190fd5b61102582611447565b5050565b600454600160a060020a031690565b60008060008060008060008061104d89611f5a565b805460018201546002830154600384015460049094015467ffffffffffffffff84169e680100000000000000008504600160a060020a03169e5060e060020a90940460ff169c5063ffffffff9092169a50985091965090945092505050565b6110b46115f2565b15156110f8576040805160e560020a62461bcd0281526020600482018190526024820152600080516020612c87833981519152604482015290519081900360640190fd5b6003805473ffffffffffffffffffffffffffffffffffffffff1916600160a060020a0392909216919091179055565b60001982016000908152600660205260408120600181015460028201546004830154849392600160a060020a031691670de0b6b3a7640000916111819188916111759163ffffffff611fea16565b9063ffffffff611fea16565b81151561118a57fe5b0492509250509250929050565b60095490565b60006111a7612bd7565b6000806111b386611f5a565b6040805160e081018252825467ffffffffffffffff81168252680100000000000000008104600160a060020a0316602083015260e060020a900460ff1691810191909152600182015463ffffffff16606082015260028201546080820152600382015460a082015260049091015460c0820152925061123183612094565b61123b83866120ef565b6003546060840151604080517fda66325700000000000000000000000000000000000000000000000000000000815263ffffffff909216600483015251600160a060020a039092169163da663257916024808201926020929091908290030181600087803b1580156112ac57600080fd5b505af11580156112c0573d6000803e3d6000fd5b505050506040513d60208110156112d657600080fd5b5051604084015160a08501519193506112ef918461214b565b90508015156113015760009350611314565b611311818663ffffffff611fea16565b93505b50505092915050565b6000808211801561133057506005548211155b1515611386576040805160e560020a62461bcd02815260206004820152601660248201527f6f7074696f6e206964206973206e6f7420657869737400000000000000000000604482015290519081900360640190fd5b50600954600019820160009081526006602052604090205401919050565b6113ac6115f2565b15156113f0576040805160e560020a62461bcd0281526020600482018190526024820152600080516020612c87833981519152604482015290519081900360640190fd5b60008054604051600160a060020a03909116907f8be0079c531659141344cd1fd0a4f28419497f9722a3daafe3b4186f6b6457e0908390a36000805473ffffffffffffffffffffffffffffffffffffffff19169055565b611450816116b7565b15156114cc576040805160e560020a62461bcd02815260206004820152602160248201527f65787069726174696f6e2076616c7565206973206e6f7420737570706f72746560448201527f6400000000000000000000000000000000000000000000000000000000000000606482015290519081900360840190fd5b50565b6000806000600d541215156114fa57600d54600c546114f39163ffffffff61218016565b915061151d565b600d54600003905080600c5411156115185780600c5403915061151d565b600091505b5090565b6115296115f2565b151561156d576040805160e560020a62461bcd0281526020600482018190526024820152600080516020612c87833981519152604482015290519081900360640190fd5b6114cc60088263ffffffff6121dd16565b60006115886115f2565b15156115cc576040805160e560020a62461bcd0281526020600482018190526024820152600080516020612c87833981519152604482015290519081900360640190fd5b6115dd60088363ffffffff61225416565b92915050565b600054600160a060020a031690565b600054600160a060020a0316331490565b60606008805480602002602001604051908101604052809291908181526020018280548015610fb257602002820191906000526020600020905b81548152602001906001019080831161163d575050505050905090565b6116626115f2565b15156116a6576040805160e560020a62461bcd0281526020600482018190526024820152600080516020612c87833981519152604482015290519081900360640190fd5b6114cc600a8263ffffffff61230116565b60006115dd82600880548060200260200160405190810160405280929190818152602001828054801561170957602002820191906000526020600020905b8154815260200190600101908083116116f5575b50505050506123a890919063ffffffff16565b60006117266115f2565b151561176a576040805160e560020a62461bcd0281526020600482018190526024820152600080516020612c87833981519152604482015290519081900360640190fd5b6115dd600a8363ffffffff6123e716565b6117836115f2565b15156117c7576040805160e560020a62461bcd0281526020600482018190526024820152600080516020612c87833981519152604482015290519081900360640190fd5b6114cc60018263ffffffff6124be16565b600354600160a060020a031690565b60055490565b6117f56115f2565b1515611839576040805160e560020a62461bcd0281526020600482018190526024820152600080516020612c87833981519152604482015290519081900360640190fd5b600955565b6118466115f2565b151561188a576040805160e560020a62461bcd0281526020600482018190526024820152600080516020612c87833981519152604482015290519081900360640190fd5b6002805473ffffffffffffffffffffffffffffffffffffffff1916600160a060020a0392909216919091179055565b600254600160a060020a031690565b60006118d26115f2565b1515611916576040805160e560020a62461bcd0281526020600482018190526024820152600080516020612c87833981519152604482015290519081900360640190fd5b6115dd60018363ffffffff61258716565b60006115dd8260018054806020026020016040519081016040528092919081815260200182805480156119a557602002820191906000526020600020906000905b82829054906101000a900463ffffffff1663ffffffff16815260200190600401906020826003010492830192600103820291508084116119685790505b505050505061267e90919063ffffffff16565b6119c06115f2565b1515611a04576040805160e560020a62461bcd0281526020600482018190526024820152600080516020612c87833981519152604482015290519081900360640190fd5b80600a83815481101515611a1457fe5b9060005260206000200160006101000a815481600160a060020a030219169083600160a060020a031602179055505050565b600160a060020a038116600090815260076020908152604091829020805483518184028101840190945280845260609392830182828015611aa657602002820191906000526020600020905b815481526020019060010190808311611a92575b50505050509050919050565b6060600a805480602002602001604051908101604052809291908181526020018280548015610fb257602002820191906000526020600020905b8154600160a060020a03168152600190910190602001808311611aec575050505050905090565b6114cc816001805480602002602001604051908101604052809291908181526020018280548015611b8f57602002820191906000526020600020906000905b82829054906101000a900463ffffffff1663ffffffff1681526020019060040190602082600301049283019260010382029150808411611b525790505b50505050506126c990919063ffffffff16565b611baa6115f2565b1515611bee576040805160e560020a62461bcd0281526020600482018190526024820152600080516020612c87833981519152604482015290519081900360640190fd5b6114cc81612729565b60008060008060008080600a80549050118015611c375750600a805433919083908110611c2057fe5b600091825260209091200154600160a060020a0316145b1515611cb3576040805160e560020a62461bcd02815260206004820152603060248201527f4d616e6167657261626c653a2063616c6c6572206973206e6f7420746865206560448201527f6c696769626c65204f70657261746f7200000000000000000000000000000000606482015290519081900360840190fd5b600d5495506005805490509450611ccd85600b5487610b52565b9350935093508115611ce457611ce4848488610bcd565b505050505050565b606080600083604051908082528060200260200182016040528015611d1b578160200160208202803883390190505b50600160a060020a0387166000908152600760205260409020549092508585011115611d6d57600160a060020a038616600090815260076020526040902054611d6a908663ffffffff611dd316565b93505b5060005b83811015611dca57600160a060020a03861660009081526007602052604090208054868301908110611d9f57fe5b90600052602060002001548282815181101515611db857fe5b60209081029091010152600101611d71565b50949350505050565b6000611e1583836040805190810160405280601e81526020017f536166654d6174683a207375627472616374696f6e206f766572666c6f770000815250612817565b9392505050565b600080600060606000806000611e3589600b548a6128b4565b9099509450611e42612935565b9350600092505b87891015611f4b57611e8260058a815481101515611e6357fe5b600091825260209091206001600590920201015463ffffffff16612a4f565b9150611f3a60058a815481101515611e9657fe5b60009182526020918290206040805160e081018252600593909302909101805467ffffffffffffffff81168452680100000000000000008104600160a060020a03169484019490945260e060020a90930460ff1690820152600182015463ffffffff16606082015260028201546080820152600382015460a082015260049091015460c08201528551869085908110611f2b57fe5b90602001906020020151612ae0565b600190990198928301929050611e49565b50909792965091945050505050565b60008082118015611f6d57506005548211155b1515611fc3576040805160e560020a62461bcd02815260206004820152601660248201527f6f7074696f6e206964206973206e6f7420657869737400000000000000000000604482015290519081900360640190fd5b600580546000198401908110611fd557fe5b90600052602060002090600502019050919050565b600080831515611ffd576000915061208d565b5082820282848281151561200d57fe5b0414612089576040805160e560020a62461bcd02815260206004820152602160248201527f536166654d6174683a206d756c7469706c69636174696f6e206f766572666c6f60448201527f7700000000000000000000000000000000000000000000000000000000000000606482015290519081900360840190fd5b8091505b5092915050565b608081015142106114cc576040805160e560020a62461bcd02815260206004820152601160248201527f6f7074696f6e2069732065787069726564000000000000000000000000000000604482015290519081900360640190fd5b60c0820151811115611025576040805160e560020a62461bcd02815260206004820152601d60248201527f6f7074696f6e20616d6f756e7420697320696e73756666696369656e74000000604482015290519081900360640190fd5b600060ff841615828411141561216357506000611e15565b60ff84161561217457818303612178565b8282035b949350505050565b600082820183811015612089576040805160e560020a62461bcd02815260206004820152601b60248201527f536166654d6174683a206164646974696f6e206f766572666c6f770000000000604482015290519081900360640190fd5b6122368280548060200260200160405190810160405280929190818152602001828054801561222b57602002820191906000526020600020905b815481526020019060010190808311612217575b5050505050826123a8565b15156110255781546001810183556000928352602090922090910155565b8154600090815b818110156122905783858281548110151561227257fe5b9060005260206000200154141561228857612290565b60010161225b565b818110156122f457600019820181146122da5784600183038154811015156122b457fe5b906000526020600020015485828154811015156122cd57fe5b6000918252602090912001555b84546122ea866000198301612c13565b50600192506122f9565b600092505b505092915050565b6123648280548060200260200160405190810160405280929190818152602001828054801561235957602002820191906000526020600020905b8154600160a060020a0316815260019091019060200180831161233b575b505050505082612b21565b1515611025578154600181018355600083815260209020018054600160a060020a03831673ffffffffffffffffffffffffffffffffffffffff199091161790555050565b8151600090815b818110156122f4578385828151811015156123c657fe5b9060200190602002015114156123df57600192506122f9565b6001016123af565b8154600090815b818110156124365783600160a060020a0316858281548110151561240e57fe5b600091825260209091200154600160a060020a0316141561242e57612436565b6001016123ee565b818110156122f457600019820181146122da57846001830381548110151561245a57fe5b6000918252602090912001548554600160a060020a039091169086908390811061248057fe5b9060005260206000200160006101000a815481600160a060020a030219169083600160a060020a0316021790555084546122ea866000198301612c13565b6125438280548060200260200160405190810160405280929190818152602001828054801561253857602002820191906000526020600020906000905b82829054906101000a900463ffffffff1663ffffffff16815260200190600401906020826003010492830192600103820291508084116124fb5790505b50505050508261267e565b1515611025578154600181018355600092835260209092206008830401805460079093166004026101000a63ffffffff818102199094169290931692909202179055565b8154600090815b818110156125e2578363ffffffff1685828154811015156125ab57fe5b6000918252602090912060088204015460079091166004026101000a900463ffffffff1614156125da576125e2565b60010161258e565b818110156122f4576000198201811461266e57846001830381548110151561260657fe5b90600052602060002090600891828204019190066004029054906101000a900463ffffffff16858281548110151561263a57fe5b90600052602060002090600891828204019190066004026101000a81548163ffffffff021916908363ffffffff1602179055505b84546122ea866000198301612c3c565b8151600090815b818110156122f4578363ffffffff1685828151811015156126a257fe5b9060200190602002015163ffffffff1614156126c157600192506122f9565b600101612685565b6126d3828261267e565b1515611025576040805160e560020a62461bcd02815260206004820152601f60248201527f77686974654c6973743a207573696e6720696e76616c69642075696e74333200604482015290519081900360640190fd5b600160a060020a03811615156127af576040805160e560020a62461bcd02815260206004820152602660248201527f4f776e61626c653a206e6577206f776e657220697320746865207a65726f206160448201527f6464726573730000000000000000000000000000000000000000000000000000606482015290519081900360840190fd5b60008054604051600160a060020a03808516939216917f8be0079c531659141344cd1fd0a4f28419497f9722a3daafe3b4186f6b6457e091a36000805473ffffffffffffffffffffffffffffffffffffffff1916600160a060020a0392909216919091179055565b60008082858511156128aa5760405160e560020a62461bcd0281526004018080602001828103825283818151815260200191508051906020019080838360005b8381101561286f578181015183820152602001612857565b50505050905090810190601f16801561289c5780820380516001836020036101000a031916815260200191505b509250505060405180910390fd5b5050509103919050565b6000808381818711156128cc5786829350935061292b565b8196505b848710156129245760058054889081106128e657fe5b90600052602060002090600502019050428160020154108061290a57506004810154155b1561291457612919565b612924565b6001909601956128d0565b8687935093505b5050935093915050565b60015460408051828152602080840282010190915260609190829060009083801561296a578160200160208202803883390190505b509150600090505b8281101561208d5760035460018054600160a060020a039092169163da66325791908490811061299e57fe5b90600052602060002090600891828204019190066004029054906101000a900463ffffffff166040518263ffffffff1660e060020a028152600401808263ffffffff168152602001915050602060405180830381600087803b158015612a0357600080fd5b505af1158015612a17573d6000803e3d6000fd5b505050506040513d6020811015612a2d57600080fd5b50518251839083908110612a3d57fe5b60209081029091010152600101612972565b60006115dd826001805480602002602001604051908101604052809291908181526020018280548015612acd57602002820191906000526020600020906000905b82829054906101000a900463ffffffff1663ffffffff1681526020019060040190602082600301049283019260010382029150808411612a905790505b5050505050612b7290919063ffffffff16565b600080428460800151111580612af8575060c0840151155b15612b06576000915061208d565b6121788460c0015161117586604001518760a0015187612bb9565b8151600090815b818110156122f45783600160a060020a03168582815181101515612b4857fe5b90602001906020020151600160a060020a03161415612b6a57600192506122f9565b600101612b28565b8151600090815b81811015612178578363ffffffff168582815181101515612b9657fe5b9060200190602002015163ffffffff161415612bb157612178565b600101612b79565b600060ff8416158284111415612bd0575081611e15565b5080611e15565b6040805160e081018252600080825260208201819052918101829052606081018290526080810182905260a0810182905260c081019190915290565b815481835581811115612c3757600083815260209020612c37918101908301612c6c565b505050565b815481835581811115612c37576007016008900481600701600890048360005260206000209182019101612c3791905b610fba91905b8082111561151d5760008155600101612c7256004f776e61626c653a2063616c6c6572206973206e6f7420746865206f776e6572a165627a7a723058208a0d0ee52b743c13ae257b940dec648280a8400ee2e7ca525468505884ded2720029",
  "source": "pragma solidity ^0.4.26;\r\nimport \"./OptionsBase.sol\";\r\nimport \"./modules/Operator.sol\";\r\nimport \"./OptionsBase.sol\";\r\nimport \"./modules/SafeInt256.sol\";\r\ncontract OptionsOccupiedCal is OptionsBase,Operator {\r\n\r\n    //calculate options Collateral occupied phases\r\n    uint256 private firstOption; \r\n    uint256 private optionsOccupied;\r\n    int256 private optionsLatestOccupied;\r\n    using SafeInt256 for int256;\r\n    //each block burn options\r\n    //index,lastOption,lastBurned\r\n    function getOccupiedCalInfo()public view returns(uint256,int256){\r\n        return (firstOption,optionsLatestOccupied);\r\n    }\r\n    function setOccupiedCollateral() public onlyOperatorIndex(0) {\r\n        int256 latestOccupied = optionsLatestOccupied;\r\n        uint256 lastOption = allOptions.length;\r\n        (uint256 totalOccupied,uint256 beginOption,bool success) = calculatePhaseOccupiedCollateral(lastOption,firstOption,lastOption);\r\n        if (success){\r\n            setCollateralPhase(totalOccupied,beginOption,latestOccupied);\r\n        }\r\n    }\r\n    function calculatePhaseOccupiedCollateral(uint256 lastOption,uint256 beginOption,uint256 endOption) public view returns(uint256,uint256,bool){\r\n        if (beginOption < firstOption){\r\n            beginOption = firstOption;\r\n        }\r\n        if (beginOption>=lastOption){\r\n            return (0,0,false);\r\n        }\r\n        if (endOption>lastOption) {\r\n            endOption = lastOption;\r\n        }else if(endOption < firstOption){\r\n            return (0,0,false);\r\n        }\r\n        (uint256 totalOccupied,uint256 newFirstOption) = _calculateOccupiedCollateral(beginOption,endOption);\r\n        return (totalOccupied,newFirstOption,true);\r\n    }\r\n    function _calculateOccupiedCollateral(uint256 begin,uint256 end)internal view returns(uint256,uint256){\r\n        uint256 newFirstOption;\r\n        (begin,newFirstOption) = getFirstOption(begin,firstOption,end);\r\n        uint256[] memory prices = getUnderlyingPrices();\r\n        uint256 totalOccupied = 0;\r\n        for (;begin<end;begin++){\r\n            uint256 index = _getEligibleUnderlyingIndex(allOptions[begin].underlying);\r\n            uint256 value = calOptionsCollateral(allOptions[begin],prices[index]);\r\n            totalOccupied = totalOccupied+value;\r\n        }\r\n        return (totalOccupied,newFirstOption);\r\n    }\r\n    function setCollateralPhase(uint256 totalOccupied,uint256 beginOption,int256 latestOccpied) public onlyOperatorIndex(0){\r\n        if (beginOption > firstOption){\r\n            firstOption = beginOption;\r\n        }\r\n        optionsOccupied = totalOccupied;\r\n        optionsLatestOccupied -= latestOccpied;\r\n    }\r\n    function getTotalOccupiedCollateral() public view returns (uint256) {\r\n        if (optionsLatestOccupied>=0){\r\n            return optionsOccupied.add(uint256(optionsLatestOccupied));\r\n        }else{\r\n            uint256 latestOccupied = uint256(-optionsLatestOccupied);\r\n            if (optionsOccupied>latestOccupied){\r\n                return optionsOccupied - latestOccupied;\r\n            }else{\r\n                return 0;\r\n            }\r\n        }\r\n    }\r\n    function _addOptionsCollateral(OptionsInfo memory info) internal {\r\n        OptionsInfoEx storage infoEx =  optionExtraMap[info.optionID-1];\r\n        uint256 newOccupied = calOptionsCollateral(info,infoEx.underlyingPrice);\r\n        optionsLatestOccupied = optionsLatestOccupied.add(int256(newOccupied));\r\n    }\r\n    function _burnOptionsCollateral(OptionsInfo memory info,uint256 amount,uint256 underlyingPrice) internal {\r\n        uint256 newOccupied = _getOptionsWorth(info.optType,info.strikePrice,underlyingPrice).mul(amount);\r\n        optionsLatestOccupied = optionsLatestOccupied.sub(int256(newOccupied));\r\n    }\r\n\r\n}",
  "sourcePath": "C:\\work\\solidity\\FinnexusOptions_V2\\contracts\\OptionsOccupiedCal.sol",
  "compiler": {
    "name": "solc",
    "version": "0.4.26+commit.4563c3fc.Emscripten.clang"
  },
  "schemaVersion": "3.1.0",
  "updatedAt": "2020-08-14T00:48:40.036Z",
  "devdoc": {
    "methods": {
      "addExpiration(uint256)": {
        "details": "Implementation of add an eligible expiration into the expirationList.\r",
        "params": {
          "expiration": "new eligible expiration.\r"
        }
      },
      "addUnderlyingAsset(uint32)": {
        "details": "Implementation of add an eligible underlying into the underlyingAssets.\r",
        "params": {
          "underlying": "new eligible underlying.\r"
        }
      },
      "getExpirationList()": {
        "details": "Implementation of getting the eligible expirationList.\r"
      },
      "getUnderlyingAssets()": {
        "details": "Implementation of getting the eligible underlyingAssets.\r"
      },
      "isEligibleExpiration(uint256)": {
        "details": "Implementation of testing whether the input expiration is eligible.\r",
        "params": {
          "expiration": "input expiration for testing.\r"
        }
      },
      "isEligibleUnderlyingAsset(uint32)": {
        "details": "Implementation of testing whether the input underlying is eligible.\r",
        "params": {
          "underlying": "input underlying for testing.\r"
        }
      },
      "isOwner()": {
        "details": "Returns true if the caller is the current owner."
      },
      "owner()": {
        "details": "Returns the address of the current owner."
      },
      "removeExpirationList(uint256)": {
        "details": "Implementation of revoke an invalid expiration from the expirationList.\r",
        "params": {
          "removeExpiration": "revoked expiration.\r"
        }
      },
      "removeUnderlyingAssets(uint32)": {
        "details": "Implementation of revoke an invalid underlying from the underlyingAssets.\r",
        "params": {
          "removeUnderlying": "revoked underlying.\r"
        }
      },
      "renounceOwnership()": {
        "details": "Leaves the contract without owner. It will not be possible to call `onlyOwner` functions anymore. Can only be called by the current owner.     * NOTE: Renouncing ownership will leave the contract without an owner, thereby removing any functionality that is only available to the owner."
      },
      "transferOwnership(address)": {
        "details": "Transfers ownership of the contract to a new account (`newOwner`). Can only be called by the current owner."
      }
    }
  },
  "userdoc": {
    "methods": {
      "setManager(address)": {
        "notice": "contribution period to stop or not."
      }
    }
  }
}