{
  "contractName": "OptionsPool",
  "abi": [
    {
      "constant": true,
      "inputs": [],
      "name": "lastCalBlock_share",
      "outputs": [
        {
          "name": "",
          "type": "uint256"
        }
      ],
      "payable": false,
      "stateMutability": "view",
      "type": "function"
    },
    {
      "constant": true,
      "inputs": [],
      "name": "lastCallOption",
      "outputs": [
        {
          "name": "",
          "type": "uint256"
        }
      ],
      "payable": false,
      "stateMutability": "view",
      "type": "function"
    },
    {
      "constant": true,
      "inputs": [],
      "name": "sharedPhase",
      "outputs": [
        {
          "name": "",
          "type": "uint32"
        }
      ],
      "payable": false,
      "stateMutability": "view",
      "type": "function"
    },
    {
      "constant": false,
      "inputs": [
        {
          "name": "volatility",
          "type": "address"
        }
      ],
      "name": "setVolatilityAddress",
      "outputs": [],
      "payable": false,
      "stateMutability": "nonpayable",
      "type": "function"
    },
    {
      "constant": true,
      "inputs": [],
      "name": "getUnderlyingAssets",
      "outputs": [
        {
          "name": "",
          "type": "uint32[]"
        }
      ],
      "payable": false,
      "stateMutability": "view",
      "type": "function"
    },
    {
      "constant": true,
      "inputs": [
        {
          "name": "",
          "type": "uint256"
        }
      ],
      "name": "expirationList",
      "outputs": [
        {
          "name": "",
          "type": "uint256"
        }
      ],
      "payable": false,
      "stateMutability": "view",
      "type": "function"
    },
    {
      "constant": true,
      "inputs": [
        {
          "name": "",
          "type": "uint256"
        }
      ],
      "name": "underlyingAssets",
      "outputs": [
        {
          "name": "",
          "type": "uint32"
        }
      ],
      "payable": false,
      "stateMutability": "view",
      "type": "function"
    },
    {
      "constant": true,
      "inputs": [],
      "name": "getVolatilityAddress",
      "outputs": [
        {
          "name": "",
          "type": "address"
        }
      ],
      "payable": false,
      "stateMutability": "view",
      "type": "function"
    },
    {
      "constant": false,
      "inputs": [
        {
          "name": "oracle",
          "type": "address"
        }
      ],
      "name": "setOracleAddress",
      "outputs": [],
      "payable": false,
      "stateMutability": "nonpayable",
      "type": "function"
    },
    {
      "constant": true,
      "inputs": [
        {
          "name": "",
          "type": "address"
        },
        {
          "name": "",
          "type": "uint256"
        }
      ],
      "name": "optionsBalances",
      "outputs": [
        {
          "name": "",
          "type": "uint256"
        }
      ],
      "payable": false,
      "stateMutability": "view",
      "type": "function"
    },
    {
      "constant": true,
      "inputs": [],
      "name": "getOptionsPriceAddress",
      "outputs": [
        {
          "name": "",
          "type": "address"
        }
      ],
      "payable": false,
      "stateMutability": "view",
      "type": "function"
    },
    {
      "constant": true,
      "inputs": [],
      "name": "firstOption_share",
      "outputs": [
        {
          "name": "",
          "type": "uint256"
        }
      ],
      "payable": false,
      "stateMutability": "view",
      "type": "function"
    },
    {
      "constant": false,
      "inputs": [],
      "name": "renounceOwnership",
      "outputs": [],
      "payable": false,
      "stateMutability": "nonpayable",
      "type": "function"
    },
    {
      "constant": true,
      "inputs": [],
      "name": "lastCalBlock",
      "outputs": [
        {
          "name": "",
          "type": "uint256"
        }
      ],
      "payable": false,
      "stateMutability": "view",
      "type": "function"
    },
    {
      "constant": true,
      "inputs": [],
      "name": "owner",
      "outputs": [
        {
          "name": "",
          "type": "address"
        }
      ],
      "payable": false,
      "stateMutability": "view",
      "type": "function"
    },
    {
      "constant": true,
      "inputs": [
        {
          "name": "",
          "type": "uint256"
        }
      ],
      "name": "allOptions",
      "outputs": [
        {
          "name": "optionID",
          "type": "uint256"
        },
        {
          "name": "owner",
          "type": "address"
        },
        {
          "name": "optType",
          "type": "uint8"
        },
        {
          "name": "underlying",
          "type": "uint32"
        },
        {
          "name": "expiration",
          "type": "uint256"
        },
        {
          "name": "strikePrice",
          "type": "uint256"
        },
        {
          "name": "amount",
          "type": "uint256"
        }
      ],
      "payable": false,
      "stateMutability": "view",
      "type": "function"
    },
    {
      "constant": true,
      "inputs": [],
      "name": "isOwner",
      "outputs": [
        {
          "name": "",
          "type": "bool"
        }
      ],
      "payable": false,
      "stateMutability": "view",
      "type": "function"
    },
    {
      "constant": false,
      "inputs": [
        {
          "name": "optionsPrice",
          "type": "address"
        }
      ],
      "name": "setOptionsPriceAddress",
      "outputs": [],
      "payable": false,
      "stateMutability": "nonpayable",
      "type": "function"
    },
    {
      "constant": true,
      "inputs": [
        {
          "name": "",
          "type": "uint256"
        },
        {
          "name": "",
          "type": "uint256"
        },
        {
          "name": "",
          "type": "uint256"
        }
      ],
      "name": "burnBlockOptions",
      "outputs": [
        {
          "name": "",
          "type": "uint256"
        }
      ],
      "payable": false,
      "stateMutability": "view",
      "type": "function"
    },
    {
      "constant": false,
      "inputs": [
        {
          "name": "underlying",
          "type": "uint32"
        }
      ],
      "name": "addUnderlyingAsset",
      "outputs": [],
      "payable": false,
      "stateMutability": "nonpayable",
      "type": "function"
    },
    {
      "constant": true,
      "inputs": [],
      "name": "getOracleAddress",
      "outputs": [
        {
          "name": "",
          "type": "address"
        }
      ],
      "payable": false,
      "stateMutability": "view",
      "type": "function"
    },
    {
      "constant": true,
      "inputs": [],
      "name": "optionPhase",
      "outputs": [
        {
          "name": "",
          "type": "uint32"
        }
      ],
      "payable": false,
      "stateMutability": "view",
      "type": "function"
    },
    {
      "constant": false,
      "inputs": [
        {
          "name": "managerAddress",
          "type": "address"
        }
      ],
      "name": "setManager",
      "outputs": [],
      "payable": false,
      "stateMutability": "nonpayable",
      "type": "function"
    },
    {
      "constant": true,
      "inputs": [],
      "name": "getManager",
      "outputs": [
        {
          "name": "",
          "type": "address"
        }
      ],
      "payable": false,
      "stateMutability": "view",
      "type": "function"
    },
    {
      "constant": false,
      "inputs": [
        {
          "name": "removeUnderlying",
          "type": "uint32"
        }
      ],
      "name": "removeUnderlyingAssets",
      "outputs": [
        {
          "name": "",
          "type": "bool"
        }
      ],
      "payable": false,
      "stateMutability": "nonpayable",
      "type": "function"
    },
    {
      "constant": true,
      "inputs": [
        {
          "name": "underlying",
          "type": "uint32"
        }
      ],
      "name": "isEligibleUnderlyingAsset",
      "outputs": [
        {
          "name": "",
          "type": "bool"
        }
      ],
      "payable": false,
      "stateMutability": "view",
      "type": "function"
    },
    {
      "constant": true,
      "inputs": [
        {
          "name": "underlying",
          "type": "uint32"
        }
      ],
      "name": "checkUnderlyingAsset",
      "outputs": [],
      "payable": false,
      "stateMutability": "view",
      "type": "function"
    },
    {
      "constant": false,
      "inputs": [
        {
          "name": "newOwner",
          "type": "address"
        }
      ],
      "name": "transferOwnership",
      "outputs": [],
      "payable": false,
      "stateMutability": "nonpayable",
      "type": "function"
    },
    {
      "inputs": [
        {
          "name": "oracleAddr",
          "type": "address"
        },
        {
          "name": "optionsPriceAddr",
          "type": "address"
        },
        {
          "name": "ivAddress",
          "type": "address"
        }
      ],
      "payable": false,
      "stateMutability": "nonpayable",
      "type": "constructor"
    },
    {
      "anonymous": false,
      "inputs": [
        {
          "indexed": true,
          "name": "owner",
          "type": "address"
        },
        {
          "indexed": true,
          "name": "optionID",
          "type": "uint256"
        },
        {
          "indexed": false,
          "name": "optType",
          "type": "uint8"
        },
        {
          "indexed": false,
          "name": "underlying",
          "type": "uint32"
        },
        {
          "indexed": false,
          "name": "expiration",
          "type": "uint256"
        },
        {
          "indexed": false,
          "name": "strikePrice",
          "type": "uint256"
        },
        {
          "indexed": false,
          "name": "amount",
          "type": "uint256"
        }
      ],
      "name": "CreateOption",
      "type": "event"
    },
    {
      "anonymous": false,
      "inputs": [
        {
          "indexed": true,
          "name": "owner",
          "type": "address"
        },
        {
          "indexed": true,
          "name": "optionID",
          "type": "uint256"
        },
        {
          "indexed": false,
          "name": "amount",
          "type": "uint256"
        }
      ],
      "name": "BurnOption",
      "type": "event"
    },
    {
      "anonymous": false,
      "inputs": [
        {
          "indexed": false,
          "name": "value1",
          "type": "uint256"
        },
        {
          "indexed": false,
          "name": "value2",
          "type": "uint256"
        },
        {
          "indexed": false,
          "name": "value3",
          "type": "uint256"
        }
      ],
      "name": "DebugEvent",
      "type": "event"
    },
    {
      "anonymous": false,
      "inputs": [
        {
          "indexed": true,
          "name": "previousOwner",
          "type": "address"
        },
        {
          "indexed": true,
          "name": "newOwner",
          "type": "address"
        }
      ],
      "name": "OwnershipTransferred",
      "type": "event"
    },
    {
      "constant": true,
      "inputs": [
        {
          "name": "user",
          "type": "address"
        }
      ],
      "name": "getOptionBalances",
      "outputs": [
        {
          "name": "",
          "type": "uint256[]"
        }
      ],
      "payable": false,
      "stateMutability": "view",
      "type": "function"
    },
    {
      "constant": true,
      "inputs": [],
      "name": "getOptionInfoLength",
      "outputs": [
        {
          "name": "",
          "type": "uint256"
        }
      ],
      "payable": false,
      "stateMutability": "view",
      "type": "function"
    },
    {
      "constant": true,
      "inputs": [
        {
          "name": "from",
          "type": "uint256"
        },
        {
          "name": "size",
          "type": "uint256"
        }
      ],
      "name": "getOptionInfoList",
      "outputs": [
        {
          "name": "",
          "type": "address[]"
        },
        {
          "name": "",
          "type": "uint256[]"
        },
        {
          "name": "",
          "type": "uint256[]"
        },
        {
          "name": "",
          "type": "uint256[]"
        },
        {
          "name": "",
          "type": "uint256[]"
        }
      ],
      "payable": false,
      "stateMutability": "view",
      "type": "function"
    },
    {
      "constant": true,
      "inputs": [
        {
          "name": "ids",
          "type": "uint256[]"
        }
      ],
      "name": "getOptionInfoListFromID",
      "outputs": [
        {
          "name": "",
          "type": "address[]"
        },
        {
          "name": "",
          "type": "uint256[]"
        },
        {
          "name": "",
          "type": "uint256[]"
        },
        {
          "name": "",
          "type": "uint256[]"
        },
        {
          "name": "",
          "type": "uint256[]"
        }
      ],
      "payable": false,
      "stateMutability": "view",
      "type": "function"
    },
    {
      "constant": true,
      "inputs": [],
      "name": "getLatestOption",
      "outputs": [
        {
          "name": "",
          "type": "uint256"
        },
        {
          "name": "",
          "type": "address"
        },
        {
          "name": "",
          "type": "uint8"
        },
        {
          "name": "",
          "type": "uint32"
        },
        {
          "name": "",
          "type": "uint256"
        },
        {
          "name": "",
          "type": "uint256"
        },
        {
          "name": "",
          "type": "uint256"
        }
      ],
      "payable": false,
      "stateMutability": "view",
      "type": "function"
    },
    {
      "constant": true,
      "inputs": [
        {
          "name": "optionsId",
          "type": "uint256"
        }
      ],
      "name": "getOptionsById",
      "outputs": [
        {
          "name": "",
          "type": "uint256"
        },
        {
          "name": "",
          "type": "address"
        },
        {
          "name": "",
          "type": "uint8"
        },
        {
          "name": "",
          "type": "uint32"
        },
        {
          "name": "",
          "type": "uint256"
        },
        {
          "name": "",
          "type": "uint256"
        },
        {
          "name": "",
          "type": "uint256"
        }
      ],
      "payable": false,
      "stateMutability": "view",
      "type": "function"
    },
    {
      "constant": false,
      "inputs": [
        {
          "name": "index",
          "type": "uint256"
        }
      ],
      "name": "setPhaseOccupiedCollateral",
      "outputs": [],
      "payable": false,
      "stateMutability": "nonpayable",
      "type": "function"
    },
    {
      "constant": false,
      "inputs": [
        {
          "name": "index",
          "type": "uint256"
        },
        {
          "name": "totalOccupied",
          "type": "uint256"
        },
        {
          "name": "beginOption",
          "type": "uint256"
        },
        {
          "name": "lastOption",
          "type": "uint256"
        },
        {
          "name": "lastBlock",
          "type": "uint256"
        }
      ],
      "name": "setCollateralPhase",
      "outputs": [],
      "payable": false,
      "stateMutability": "nonpayable",
      "type": "function"
    },
    {
      "constant": true,
      "inputs": [
        {
          "name": "index",
          "type": "uint256"
        }
      ],
      "name": "calculatePhaseOccupiedCollateral",
      "outputs": [
        {
          "name": "",
          "type": "uint256"
        },
        {
          "name": "",
          "type": "uint256"
        },
        {
          "name": "",
          "type": "uint256"
        },
        {
          "name": "",
          "type": "uint256"
        }
      ],
      "payable": false,
      "stateMutability": "view",
      "type": "function"
    },
    {
      "constant": false,
      "inputs": [
        {
          "name": "index",
          "type": "uint256"
        },
        {
          "name": "_firstOption",
          "type": "uint256"
        },
        {
          "name": "lastBlock",
          "type": "uint256"
        },
        {
          "name": "calTime",
          "type": "uint256"
        }
      ],
      "name": "setSharedState",
      "outputs": [],
      "payable": false,
      "stateMutability": "nonpayable",
      "type": "function"
    },
    {
      "constant": true,
      "inputs": [
        {
          "name": "index",
          "type": "uint256"
        },
        {
          "name": "whiteList",
          "type": "address[]"
        }
      ],
      "name": "calculatePhaseSharedPayment",
      "outputs": [
        {
          "name": "",
          "type": "uint256[]"
        },
        {
          "name": "",
          "type": "uint256"
        },
        {
          "name": "",
          "type": "uint256"
        }
      ],
      "payable": false,
      "stateMutability": "view",
      "type": "function"
    },
    {
      "constant": true,
      "inputs": [
        {
          "name": "beginIndex",
          "type": "uint256"
        },
        {
          "name": "endIndex",
          "type": "uint256"
        },
        {
          "name": "preTime",
          "type": "uint256"
        },
        {
          "name": "whiteList",
          "type": "address[]"
        },
        {
          "name": "totalSharedPayment",
          "type": "uint256[]"
        }
      ],
      "name": "_calBurnedSharePrice",
      "outputs": [
        {
          "name": "",
          "type": "uint256[]"
        }
      ],
      "payable": false,
      "stateMutability": "view",
      "type": "function"
    },
    {
      "constant": false,
      "inputs": [
        {
          "name": "from",
          "type": "address"
        },
        {
          "name": "optType",
          "type": "uint8"
        },
        {
          "name": "underlying",
          "type": "uint32"
        },
        {
          "name": "expiration",
          "type": "uint256"
        },
        {
          "name": "strikePrice",
          "type": "uint256"
        },
        {
          "name": "amount",
          "type": "uint256"
        },
        {
          "name": "settlement",
          "type": "address"
        }
      ],
      "name": "createOptions",
      "outputs": [
        {
          "name": "",
          "type": "uint256"
        }
      ],
      "payable": false,
      "stateMutability": "nonpayable",
      "type": "function"
    },
    {
      "constant": true,
      "inputs": [],
      "name": "getTotalOccupiedCollateral",
      "outputs": [
        {
          "name": "",
          "type": "uint256"
        }
      ],
      "payable": false,
      "stateMutability": "view",
      "type": "function"
    },
    {
      "constant": false,
      "inputs": [
        {
          "name": "from",
          "type": "address"
        },
        {
          "name": "id",
          "type": "uint256"
        },
        {
          "name": "amount",
          "type": "uint256"
        }
      ],
      "name": "burnOptions",
      "outputs": [],
      "payable": false,
      "stateMutability": "nonpayable",
      "type": "function"
    },
    {
      "constant": true,
      "inputs": [
        {
          "name": "optionsId",
          "type": "uint256"
        },
        {
          "name": "amount",
          "type": "uint256"
        }
      ],
      "name": "getExerciseWorth",
      "outputs": [
        {
          "name": "",
          "type": "uint256"
        }
      ],
      "payable": false,
      "stateMutability": "view",
      "type": "function"
    },
    {
      "constant": true,
      "inputs": [
        {
          "name": "expiration",
          "type": "uint256"
        },
        {
          "name": "underlying",
          "type": "uint32"
        }
      ],
      "name": "buyOptionCheck",
      "outputs": [],
      "payable": false,
      "stateMutability": "view",
      "type": "function"
    },
    {
      "constant": false,
      "inputs": [
        {
          "name": "expiration",
          "type": "uint256"
        }
      ],
      "name": "addExpiration",
      "outputs": [],
      "payable": false,
      "stateMutability": "nonpayable",
      "type": "function"
    },
    {
      "constant": false,
      "inputs": [
        {
          "name": "removeExpiration",
          "type": "uint256"
        }
      ],
      "name": "removeExpirationList",
      "outputs": [
        {
          "name": "",
          "type": "bool"
        }
      ],
      "payable": false,
      "stateMutability": "nonpayable",
      "type": "function"
    },
    {
      "constant": true,
      "inputs": [],
      "name": "getExpirationList",
      "outputs": [
        {
          "name": "",
          "type": "uint256[]"
        }
      ],
      "payable": false,
      "stateMutability": "view",
      "type": "function"
    },
    {
      "constant": true,
      "inputs": [
        {
          "name": "expiration",
          "type": "uint256"
        }
      ],
      "name": "isEligibleExpiration",
      "outputs": [
        {
          "name": "",
          "type": "bool"
        }
      ],
      "payable": false,
      "stateMutability": "view",
      "type": "function"
    },
    {
      "constant": true,
      "inputs": [
        {
          "name": "expiration",
          "type": "uint256"
        }
      ],
      "name": "checkExpiration",
      "outputs": [],
      "payable": false,
      "stateMutability": "view",
      "type": "function"
    }
  ],
  "bytecode": "0x6080604052600b80546101f463ffffffff1991821681179092556000600c556010805490911690911790553480156200003757600080fd5b506040516060806200440083398101604081815282516020840151919093015160008054600160a060020a031916331780825592939192600160a060020a0316917f8be0079c531659141344cd1fd0a4f28419497f9722a3daafe3b4186f6b6457e0908290a3620000b183640100000000620000e2810204565b620000c58264010000000062000174810204565b620000d98164010000000062000206810204565b505050620002a9565b620000f564010000000062000298810204565b15156200015257604080517f08c379a00000000000000000000000000000000000000000000000000000000081526020600482018190526024820152600080516020620043e0833981519152604482015290519081900360640190fd5b60038054600160a060020a031916600160a060020a0392909216919091179055565b6200018764010000000062000298810204565b1515620001e457604080517f08c379a00000000000000000000000000000000000000000000000000000000081526020600482018190526024820152600080516020620043e0833981519152604482015290519081900360640190fd5b60048054600160a060020a031916600160a060020a0392909216919091179055565b6200021964010000000062000298810204565b15156200027657604080517f08c379a00000000000000000000000000000000000000000000000000000000081526020600482018190526024820152600080516020620043e0833981519152604482015290519081900360640190fd5b60058054600160a060020a031916600160a060020a0392909216919091179055565b600054600160a060020a0316331490565b61412780620002b96000396000f3006080604052600436106102425763ffffffff60e060020a6000350416630438d4908114610247578063067b8783146103ca5780630860d37b146103f057806311e6c4a214610417578063132a56271461048857806316f35a7f1461049d5780632967eafe146104cb578063354af360146104ec5780633582d7891461054157806336c146f3146105565780633ad2fb57146105775780633ad98099146105985780633b50c4d1146105b057806342e5479d146105c857806345e19fdd146105f957806348ee201d146106555780634c69c00f1461066d57806355c47cb21461068e5780635ca4b73b146106b257806367290e0d146106c757806367b8ceb9146106dc578063715018a6146106f7578063723931ca1461070c57806373a3d4241461072457806374e85fd2146107395780637cfff2d8146107605780637e2eeb7e146107785780637e838fa31461078d5780638da5cb5b146107b95780638ea745b8146107ce5780638f32d59b146107e65780639052d5f8146107fb57806399deae0a146108105780639ef975d21461084e578063a093e2d014610866578063a95c594a14610887578063ab607154146108a5578063af70df1214610942578063afec82fc146109fe578063b18b78dd14610a1c578063b8a5b7fa14610a31578063bec3107f14610a49578063c27b7dfb14610a5e578063d0ebdbe714610a73578063d500958414610a94578063d665d9a614610aa9578063d6d1401214610aed578063db6ad2bd14610b0b578063ee29c94a14610b29578063f2fde38b14610b47575b600080fd5b34801561025357600080fd5b50610262600435602435610b68565b60405180806020018060200180602001806020018060200186810386528b818151815260200191508051906020019060200280838360005b838110156102b257818101518382015260200161029a565b5050505090500186810385528a818151815260200191508051906020019060200280838360005b838110156102f15781810151838201526020016102d9565b50505050905001868103845289818151815260200191508051906020019060200280838360005b83811015610330578181015183820152602001610318565b50505050905001868103835288818151815260200191508051906020019060200280838360005b8381101561036f578181015183820152602001610357565b50505050905001868103825287818151815260200191508051906020019060200280838360005b838110156103ae578181015183820152602001610396565b505050509050019a505050505050505050505060405180910390f35b3480156103d657600080fd5b506103ee600435602435604435606435608435610db6565b005b3480156103fc57600080fd5b50610405610e3c565b60408051918252519081900360200190f35b34801561042357600080fd5b50610438600160a060020a0360043516610e42565b60408051602080825283518183015283519192839290830191858101910280838360005b8381101561047457818101518382015260200161045c565b505050509050019250505060405180910390f35b34801561049457600080fd5b50610405610eae565b3480156104a957600080fd5b506104b2610eb4565b6040805163ffffffff9092168252519081900360200190f35b3480156104d757600080fd5b506103ee600160a060020a0360043516610ec0565b3480156104f857600080fd5b506040805160206004803580820135838102808601850190965280855261026295369593946024949385019291829185019084908082843750949750610f2e9650505050505050565b34801561054d57600080fd5b50610438611148565b34801561056257600080fd5b506103ee6004356024356044356064356111cd565b34801561058357600080fd5b506103ee60043563ffffffff6024351661128c565b3480156105a457600080fd5b506104056004356112f8565b3480156105bc57600080fd5b506104b2600435611317565b3480156105d457600080fd5b506105dd61134f565b60408051600160a060020a039092168252519081900360200190f35b34801561060557600080fd5b5061060e61135e565b60408051978852600160a060020a03909616602088015260ff9094168686015263ffffffff9092166060860152608085015260a084015260c0830152519081900360e00190f35b34801561066157600080fd5b5061060e600435611438565b34801561067957600080fd5b506103ee600160a060020a036004351661149b565b34801561069a57600080fd5b50610405600160a060020a0360043516602435611509565b3480156106be57600080fd5b506105dd611539565b3480156106d357600080fd5b50610405611548565b3480156106e857600080fd5b5061040560043560243561154e565b34801561070357600080fd5b506103ee6116ec565b34801561071857600080fd5b506103ee600435611782565b34801561073057600080fd5b5061040561180a565b34801561074557600080fd5b506103ee600160a060020a0360043516602435604435611bcf565b34801561076c57600080fd5b506103ee600435611d98565b34801561078457600080fd5b50610405611def565b34801561079957600080fd5b506107a5600435611df5565b604080519115158252519081900360200190f35b3480156107c557600080fd5b506105dd611e54565b3480156107da57600080fd5b5061060e600435611e63565b3480156107f257600080fd5b506107a5611ec3565b34801561080757600080fd5b50610438611ed4565b34801561081c57600080fd5b50610828600435611f2b565b604080519485526020850193909352838301919091526060830152519081900360800190f35b34801561085a57600080fd5b506107a5600435611fef565b34801561087257600080fd5b506103ee600160a060020a036004351661204b565b34801561089357600080fd5b506104056004356024356044356120b9565b3480156108b157600080fd5b506040805160643560048181013560208181028581018201909652818552610438958335956024803596604435963696909560849592909301929091829185019084908082843750506040805187358901803560208181028481018201909552818452989b9a9989019892975090820195509350839250850190849080828437509497506120f99650505050505050565b34801561094e57600080fd5b5060408051602060046024803582810135848102808701860190975280865261099c9684359636966044959194909101929182918501908490808284375094975061243d9650505050505050565b6040518080602001848152602001838152602001828103825285818151815260200191508051906020019060200280838360005b838110156109e85781810151838201526020016109d0565b5050505090500194505050505060405180910390f35b348015610a0a57600080fd5b506103ee63ffffffff600435166124fa565b348015610a2857600080fd5b506105dd612551565b348015610a3d57600080fd5b506103ee600435612560565b348015610a5557600080fd5b506104056125d7565b348015610a6a57600080fd5b506104b26125dd565b348015610a7f57600080fd5b506103ee600160a060020a03600435166125e9565b348015610aa057600080fd5b506105dd612657565b348015610ab557600080fd5b50610405600160a060020a0360043581169060ff602435169063ffffffff6044351690606435906084359060a4359060c43516612666565b348015610af957600080fd5b506107a563ffffffff60043516612a39565b348015610b1757600080fd5b506107a563ffffffff60043516612a92565b348015610b3557600080fd5b506103ee63ffffffff60043516612b1a565b348015610b5357600080fd5b506103ee600160a060020a0360043516612ba0565b6060806060806060806060806060806000806006805490508d8f011115610b9f57600654610b9c908f63ffffffff612bf516565b9c505b60008d1115610da5578c604051908082528060200260200182016040528015610bd2578160200160208202803883390190505b5096508c604051908082528060200260200182016040528015610bff578160200160208202803883390190505b5095508c604051908082528060200260200182016040528015610c2c578160200160208202803883390190505b5094508c604051908082528060200260200182016040528015610c59578160200160208202803883390190505b5093508c604051908082528060200260200182016040528015610c86578160200160208202803883390190505b509250600091505b8c821015610d9557600680548f8401908110610ca657fe5b6000918252602090912060059091020160018101548851919250600160a060020a031690889084908110610cd657fe5b600160a060020a0390921660209283029091019091015260018101548651601060ff60a060020a84048116919091011660020a63ffffffff60a860020a90930483160290911690879084908110610d2957fe5b6020908102909101015260028101548551869084908110610d4657fe5b6020908102909101015260038101548451859084908110610d6357fe5b6020908102909101015260048101548351849084908110610d8057fe5b60209081029091010152600190910190610c8e565b86868686869b509b509b509b509b505b505050505050509295509295909350565b610dbe611ec3565b1515610e02576040805160e560020a62461bcd02815260206004820181905260248201526000805160206140dc833981519152604482015290519081900360640190fd5b600c54831115610e1257600c8390555b81600d541015610e2757600d829055600e8190555b5050506000918252600f602052604090912055565b60125481565b600160a060020a038116600090815260096020908152604091829020805483518184028101840190945280845260609392830182828015610ea257602002820191906000526020600020905b815481526020019060010190808311610e8e575b50505050509050919050565b600d5481565b60105463ffffffff1681565b610ec8611ec3565b1515610f0c576040805160e560020a62461bcd02815260206004820181905260248201526000805160206140dc833981519152604482015290519081900360640190fd5b60058054600160a060020a031916600160a060020a0392909216919091179055565b6060806060806060600060608060608060606000808d51975087604051908082528060200260200182016040528015610f71578160200160208202803883390190505b50965087604051908082528060200260200182016040528015610f9e578160200160208202803883390190505b50955087604051908082528060200260200182016040528015610fcb578160200160208202803883390190505b50945087604051908082528060200260200182016040528015610ff8578160200160208202803883390190505b50935087604051908082528060200260200182016040528015611025578160200160208202803883390190505b509250600091505b87821015611134576110558e8381518110151561104657fe5b90602001906020020151612c3e565b60018101548851919250600160a060020a03169088908490811061107557fe5b600160a060020a0390921660209283029091019091015260018101548651601060ff60a060020a84048116919091011660020a63ffffffff60a860020a909304831602909116908790849081106110c857fe5b60209081029091010152600281015485518690849081106110e557fe5b602090810290910101526003810154845185908490811061110257fe5b602090810290910101526004810154835184908490811061111f57fe5b6020908102909101015260019091019061102d565b50949c939b50919950975095509350505050565b606060018054806020026020016040519081016040528092919081815260200182805480156111c257602002820191906000526020600020906000905b82829054906101000a900463ffffffff1663ffffffff16815260200190600401906020826003010492830192600103820291508084116111855790505b505050505090505b90565b600254600160a060020a03163314611255576040805160e560020a62461bcd02815260206004820152602660248201527f4d616e6167657261626c653a2063616c6c6572206973206e6f7420746865204d60448201527f616e616765720000000000000000000000000000000000000000000000000000606482015290519081900360840190fd5b6011548311156112655760118390555b6012548210156112755760128290555b600093845260146020526040909320929092555050565b61129581612a92565b15156112eb576040805160e560020a62461bcd02815260206004820152601f60248201527f756e6465726c79696e6720697320756e737570706f7274656420617373657400604482015290519081900360640190fd5b6112f482611782565b5050565b600a80548290811061130657fe5b600091825260209091200154905081565b600180548290811061132557fe5b9060005260206000209060089182820401919006600402915054906101000a900463ffffffff1681565b600554600160a060020a031690565b600654600090819081908190819081908190818082116113c8576040805160e560020a62461bcd02815260206004820152601560248201527f6f7074696f6e73206c69737420697320656d7074790000000000000000000000604482015290519081900360640190fd5b6006805460001984019081106113da57fe5b600091825260209091206005909102018054600182015460028301546003840154600490940154929d600160a060020a0383169d5060a060020a830460ff169c5060a860020a90920463ffffffff169a509850919650945092505050565b60008060008060008060008061144d89612c3e565b8054600182015460028301546003840154600490940154929d600160a060020a0383169d5060a060020a830460ff169c5060a860020a90920463ffffffff169a509850919650945092505050565b6114a3611ec3565b15156114e7576040805160e560020a62461bcd02815260206004820181905260248201526000805160206140dc833981519152604482015290519081900360640190fd5b60038054600160a060020a031916600160a060020a0392909216919091179055565b60096020528160005260406000208181548110151561152457fe5b90600052602060002001600091509150505481565b600454600160a060020a031690565b60115481565b6000611558613fda565b60008061156486612c3e565b6040805160e081018252825481526001830154600160a060020a038116602083015260a060020a810460ff169282019290925260a860020a90910463ffffffff16606082015260028201546080820152600382015460a082015260049091015460c082015292506115d483612cce565b6115de8386612d29565b6003546060840151604080517fda66325700000000000000000000000000000000000000000000000000000000815263ffffffff909216600483015251600160a060020a039092169163da663257916024808201926020929091908290030181600087803b15801561164f57600080fd5b505af1158015611663573d6000803e3d6000fd5b505050506040513d602081101561167957600080fd5b505160408401519092506000915060ff1615156116aa578260a001518211156116a5575060a082015181035b6116c0565b8260a001518210156116c057818360a001510390505b8015156116d057600093506116e3565b6116e0818663ffffffff612d8516565b93505b50505092915050565b6116f4611ec3565b1515611738576040805160e560020a62461bcd02815260206004820181905260248201526000805160206140dc833981519152604482015290519081900360640190fd5b60008054604051600160a060020a03909116907f8be0079c531659141344cd1fd0a4f28419497f9722a3daafe3b4186f6b6457e0908390a360008054600160a060020a0319169055565b61178b81611fef565b1515611807576040805160e560020a62461bcd02815260206004820152602160248201527f65787069726174696f6e2076616c7565206973206e6f7420737570706f72746560448201527f6400000000000000000000000000000000000000000000000000000000000000606482015290519081900360840190fd5b50565b60008060006060600080600080600080600080611825612e2f565b600154604080518281526020808402820101909152919c509a508a8015611856578160200160208202803883390190505b509850600097505b8988101561193e5760035460018054600160a060020a039092169163da66325791908b90811061188a57fe5b90600052602060002090600891828204019190066004029054906101000a900463ffffffff166040518263ffffffff1660e060020a028152600401808263ffffffff168152602001915050602060405180830381600087803b1580156118ef57600080fd5b505af1158015611903573d6000803e3d6000fd5b505050506040513d602081101561191957600080fd5b505189518a908a90811061192957fe5b6020908102909101015260019097019661185e565b600654600d5490975095505b86861015611a545761198b60068781548110151561196457fe5b906000526020600020906005020160010160159054906101000a900463ffffffff16612eb0565b9450611a47611a3a6006888154811015156119a257fe5b60009182526020918290206040805160e081018252600593909302909101805483526001810154600160a060020a0381169484019490945260a060020a840460ff169183019190915260a860020a90920463ffffffff16606082015260028201546080820152600382015460a082015260049091015460c08201528b518c9089908110611a2b57fe5b90602001906020020151612f38565b8c9063ffffffff612fb816565b9a5060019095019461194a565b600e5460010193508360011415611a6d578a9b50611bc1565b438411611bbd5760008481526008602052604081208054919950935091505b81881015611bb2578288815481101515611aa257fe5b60009182526020822060029091020101549050611ac760068281548110151561196457fe5b9450611ba5611b98600683815481101515611ade57fe5b60009182526020918290206040805160e081018252600593909302909101805483526001810154600160a060020a0381169484019490945260a060020a840460ff169183019190915260a860020a90920463ffffffff16606082015260028201546080820152600382015460a082015260049091015460c0820152855486908c908110611b6757fe5b60009182526020909120600290910201600101548c89815181101515611b8957fe5b90602001906020020151613015565b8c9063ffffffff612bf516565b9a50600190970196611a8c565b600190930192611a6d565b8a9b505b505050505050505050505090565b611bd7613fda565b600254600160a060020a03163314611c5f576040805160e560020a62461bcd02815260206004820152602660248201527f4d616e6167657261626c653a2063616c6c6572206973206e6f7420746865204d60448201527f616e616765720000000000000000000000000000000000000000000000000000606482015290519081900360840190fd5b611c6883612c3e565b6040805160e081018252825481526001830154600160a060020a038116602083015260a060020a810460ff169282019290925260a860020a90910463ffffffff16606082015260028201546080820152600382015460a082015260049091015460c08201529050611cd881612cce565b611ce28185613066565b611cec8183612d29565b60c0810151611d01908363ffffffff612bf516565b60c082015243600090815260086020908152604080832081518083019092526000198701825281830186905280546001810180835591855292909320611d50926002908102909101919061402a565b50506040805183815290518491600160a060020a038716917f1fb99acdc281bccbecb3d0073a307341181a8a7d3cd532fdaef5ce7200401c2d9181900360200190a350505050565b611da0611ec3565b1515611de4576040805160e560020a62461bcd02815260206004820181905260248201526000805160206140dc833981519152604482015290519081900360640190fd5b611807600a826130d5565b600e5481565b6000611dff611ec3565b1515611e43576040805160e560020a62461bcd02815260206004820181905260248201526000805160206140dc833981519152604482015290519081900360640190fd5b611e4e600a8361314c565b92915050565b600054600160a060020a031690565b6006805482908110611e7157fe5b600091825260209091206005909102018054600182015460028301546003840154600490940154929450600160a060020a0382169360a060020a830460ff169360a860020a90930463ffffffff169287565b600054600160a060020a0316331490565b6060600a8054806020026020016040519081016040528092919081815260200182805480156111c257602002820191906000526020600020905b815481526020019060010190808311611f0e575050505050905090565b600080600080600080600080600080611f65600b60009054906101000a900463ffffffff1663ffffffff168c612d8590919063ffffffff16565b6006549096509450848610611f7957611fe2565b600b54611f9190879063ffffffff90811690612fb816565b935084841115611fa357849350611fb2565b600c54841015611fb257611fe2565b611fbc86856131f9565b9250925083600d5410611fd157600d54611fd3565b835b90508282824399509950995099505b5050505050509193509193565b6000611e4e600a80548060200260200160405190810160405280929190818152602001828054801561204057602002820191906000526020600020905b81548152602001906001019080831161202c575b505050505083613446565b612053611ec3565b1515612097576040805160e560020a62461bcd02815260206004820181905260248201526000805160206140dc833981519152604482015290519081900360640190fd5b60048054600160a060020a031916600160a060020a0392909216919091179055565b6008602052826000526040600020828154811015156120d457fe5b9060005260206000209060020201816002811015156120ef57fe5b0154925083915050565b606060006060600080600080600080600060125460010198508860011415612123578a995061242b565b43891161242757600089815260086020908152604080832080548251818502810185019093528083529193909284015b828210156121a35760008481526020902060408051808201918290529160028581029091019182845b81548152602001906001019080831161217c57505050505081526020019060010190612153565b50505050975087519650600095505b8686101561241c578e88878151811015156121c957fe5b60209081029190910101515110806121fa57508d88878151811015156121eb57fe5b60209081029190910101515110155b1561220457612411565b6006888781518110151561221457fe5b6020908102919091010151518154811061222a57fe5b90600052602060002090600502019450846002015493508c8410806122685750878681518110151561225857fe5b6020908102919091018101510151155b1561227257612411565b60076000898881518110151561228457fe5b60209081029190910181015151825281810192909252604090810160009081206004805460038b015482840154600585015460018e0154885160e060020a63055ef6ab0281529586018490526024860193909352428d0360448601526064850191909152608484015260a060020a900460ff1660a48301529351919750600160a060020a039093169363055ef6ab9360c480820194929392918390030190829087803b15801561233357600080fd5b505af1158015612347573d6000803e3d6000fd5b505050506040513d602081101561235d57600080fd5b5051600384015489519193506123b2916123a6908b908a90811061237d57fe5b6020908102919091018101510151600287015461239a9087612d85565b9063ffffffff612d8516565b9063ffffffff61348516565b60018401549092506123ce908d90600160a060020a03166134c7565b90506123f8828c838151811015156123e257fe5b602090810290910101519063ffffffff612fb816565b8b8281518110151561240657fe5b602090810290910101525b6001909501946121b2565b600190980197612123565b8a99505b50505050505050505095945050505050565b6060600080600080600060606000612476601060009054906101000a900463ffffffff1663ffffffff168b612d8590919063ffffffff16565b600654909550935083851061248a576124ee565b6010546124a290869063ffffffff90811690612fb816565b9250838311156124b4578392506124c3565b6011548310156124c3576124ee565b60008a8152601460205260409020546124e090869085908c613514565b915091508181439750975097505b50505050509250925092565b612502611ec3565b1515612546576040805160e560020a62461bcd02815260206004820181905260248201526000805160206140dc833981519152604482015290519081900360640190fd5b6118076001826136b4565b600354600160a060020a031690565b60008060008061256e611ec3565b15156125b2576040805160e560020a62461bcd02815260206004820181905260248201526000805160206140dc833981519152604482015290519081900360640190fd5b6125bb85611f2b565b93509350935093506125d08585858585610db6565b5050505050565b60065490565b600b5463ffffffff1681565b6125f1611ec3565b1515612635576040805160e560020a62461bcd02815260206004820181905260248201526000805160206140dc833981519152604482015290519081900360640190fd5b60028054600160a060020a031916600160a060020a0392909216919091179055565b600254600160a060020a031690565b6000806000612673613fda565b600254600160a060020a031633146126fb576040805160e560020a62461bcd02815260206004820152602660248201527f4d616e6167657261626c653a2063616c6c6572206973206e6f7420746865204d60448201527f616e616765720000000000000000000000000000000000000000000000000000606482015290519081900360840190fd5b600654600354604080517fda66325700000000000000000000000000000000000000000000000000000000815263ffffffff8d1660048201529051929550600160a060020a039091169163da663257916024808201926020929091908290030181600087803b15801561276d57600080fd5b505af1158015612781573d6000803e3d6000fd5b505050506040513d602081101561279757600080fd5b81019080805190602001909291905050509150600660e0604051908101604052808560010181526020018d600160a060020a031681526020018c60ff1681526020018b63ffffffff1681526020018a815260200189815260200188815250908060018154018082558091505090600182039060005260206000209060050201600090919290919091506000820151816000015560208201518160010160006101000a815481600160a060020a030219169083600160a060020a0316021790555060408201518160010160146101000a81548160ff021916908360ff16021790555060608201518160010160156101000a81548163ffffffff021916908363ffffffff1602179055506080820151816002015560a0820151816003015560c08201518160040155505050600960008c600160a060020a0316600160a060020a0316815260200190815260200160002083600101908060018154018082558091505090600182039060005260206000200160009091929091909150555082600014156129255743600e8190556012555b600680548490811061293357fe5b60009182526020918290206040805160e081018252600593909302909101805483526001810154600160a060020a0381169484019490945260a060020a840460ff169183019190915260a860020a90920463ffffffff16606082015260028201546080820152600382015460a082015260049091015460c082015290506129ba818661377d565b6040805160ff8c16815263ffffffff8b1660208201528082018a9052606081018990526080810188905290516001850191600160a060020a038e16917f18f523957030bee670136363e25b2f847bf1bd07bb7b33c6d5475936a9aac70d9181900360a00190a3612a2a8183612f38565b9b9a5050505050505050505050565b6000612a43611ec3565b1515612a87576040805160e560020a62461bcd02815260206004820181905260248201526000805160206140dc833981519152604482015290519081900360640190fd5b611e4e600183613a8a565b6000611e4e6001805480602002602001604051908101604052809291908181526020018280548015612b0f57602002820191906000526020600020906000905b82829054906101000a900463ffffffff1663ffffffff1681526020019060040190602082600301049283019260010382029150808411612ad25790505b505050505083613b81565b6118076001805480602002602001604051908101604052809291908181526020018280548015612b9557602002820191906000526020600020906000905b82829054906101000a900463ffffffff1663ffffffff1681526020019060040190602082600301049283019260010382029150808411612b585790505b505050505082613bcc565b612ba8611ec3565b1515612bec576040805160e560020a62461bcd02815260206004820181905260248201526000805160206140dc833981519152604482015290519081900360640190fd5b61180781613c2c565b6000612c3783836040805190810160405280601e81526020017f536166654d6174683a207375627472616374696f6e206f766572666c6f770000815250613d0d565b9392505050565b60008082118015612c5157506006548211155b1515612ca7576040805160e560020a62461bcd02815260206004820152601660248201527f6f7074696f6e206964206973206e6f7420657869737400000000000000000000604482015290519081900360640190fd5b600680546000198401908110612cb957fe5b90600052602060002090600502019050919050565b60808101514210611807576040805160e560020a62461bcd02815260206004820152601160248201527f6f7074696f6e2069732065787069726564000000000000000000000000000000604482015290519081900360640190fd5b60c08201518111156112f4576040805160e560020a62461bcd02815260206004820152601d60248201527f6f7074696f6e20616d6f756e7420697320696e73756666696369656e74000000604482015290519081900360640190fd5b600080831515612d985760009150612e28565b50828202828482811515612da857fe5b0414612e24576040805160e560020a62461bcd02815260206004820152602160248201527f536166654d6174683a206d756c7469706c69636174696f6e206f766572666c6f60448201527f7700000000000000000000000000000000000000000000000000000000000000606482015290519081900360840190fd5b8091505b5092915050565b600b54600c5460009182918291829163ffffffff90911690811515612e5057fe5b600b5460065492909104935063ffffffff1690811515612e6c57fe5b0460010190505b80821015612ea8576000828152600f6020526040902054612e9b90849063ffffffff612fb816565b9250600190910190612e73565b509092915050565b6000611e4e6001805480602002602001604051908101604052809291908181526020018280548015612f2d57602002820191906000526020600020906000905b82829054906101000a900463ffffffff1663ffffffff1681526020019060040190602082600301049283019260010382029150808411612ef05790505b505050505083613daa565b600080428460800151111580612f50575060c0840151155b15612f5e5760009150612e28565b5060a08301516040840151600091841060ff909116151415612f9a5760c084015160a0850151612f939163ffffffff612d8516565b9050612e24565b60c0840151612fb090849063ffffffff612d8516565b949350505050565b600082820183811015612e24576040805160e560020a62461bcd02815260206004820152601b60248201527f536166654d6174683a206164646974696f6e206f766572666c6f770000000000604482015290519081900360640190fd5b60a08301516040840151600091829160ff1615908410141561304d5760a0850151613046908563ffffffff612d8516565b9050612fb0565b61305d838563ffffffff612d8516565b95945050505050565b80600160a060020a03168260200151600160a060020a03161415156112f4576040805160e560020a62461bcd02815260206004820152601f60248201527f63616c6c6572206973206e6f7420746865206f7074696f6e73206f776e657200604482015290519081900360640190fd5b61312e8280548060200260200160405190810160405280929190818152602001828054801561312357602002820191906000526020600020905b81548152602001906001019080831161310f575b505050505082613446565b15156112f45781546001810183556000928352602090922090910155565b8154600090815b818110156131885783858281548110151561316a57fe5b9060005260206000200154141561318057613188565b600101613153565b818110156131ec57600019820181146131d25784600183038154811015156131ac57fe5b906000526020600020015485828154811015156131c557fe5b6000918252602090912001555b84546131e2866000198301614068565b50600192506131f1565b600092505b505092915050565b60008060008060006060600080600080600c549750878c11159650861561321e57879b505b60015460408051828152602080840282010190915290965086801561324d578160200160208202803883390190505b509450600093505b858410156133355760035460018054600160a060020a039092169163da66325791908790811061328157fe5b90600052602060002090600891828204019190066004029054906101000a900463ffffffff166040518263ffffffff1660e060020a028152600401808263ffffffff168152602001915050602060405180830381600087803b1580156132e657600080fd5b505af11580156132fa573d6000803e3d6000fd5b505050506040513d602081101561331057600080fd5b5051855186908690811061332057fe5b60209081029091010152600190930192613255565b600092505b8a8c101561342a5761335460068d81548110151561196457fe5b91506133f160068d81548110151561336857fe5b60009182526020918290206040805160e081018252600593909302909101805483526001810154600160a060020a0381169484019490945260a060020a840460ff169183019190915260a860020a90920463ffffffff16606082015260028201546080820152600382015460a082015260049091015460c08201528651879085908110611a2b57fe5b90508680156134005750600081115b1561340d578b9750600096505b61341d838263ffffffff612fb816565b6001909c019b925061333a565b8615613434578b97505b50909a95995094975050505050505050565b8151600090815b818110156131ec5783858281518110151561346457fe5b90602001906020020151141561347d57600192506131f1565b60010161344d565b6000612c3783836040805190810160405280601a81526020017f536166654d6174683a206469766973696f6e206279207a65726f000000000000815250613df1565b8151600090815b81811015612fb05783600160a060020a031685828151811015156134ee57fe5b90602001906020020151600160a060020a0316141561350c57612fb0565b6001016134ce565b6060600080600060606000806000806011549650868d11159550851561353857869c505b8951604051908082528060200260200182016040528015613563578160200160208202803883390190505b5094505b8b8d101561368657600680548e90811061357d57fe5b90600052602060002090600502019350836002015492508a8310806135a457506004840154155b156135ae5761367b565b85156135bc578c9650600095505b600760008e815260200190815260200160002091506136018b8360000154858760030154866004015487600501548a60010160149054906101000a900460ff16613e5d565b9050600081111561367b576001820154613625908b90600160a060020a03166134c7565b925061364e82600301546123a6866004015461239a858760020154612d8590919063ffffffff16565b90506136628186858151811015156123e257fe5b858481518110151561367057fe5b602090810290910101525b6001909c019b613567565b8515613694578c9650600095505b6136a18d8d8d8d896120f9565b9d969c50959a5050505050505050505050565b6137398280548060200260200160405190810160405280929190818152602001828054801561372e57602002820191906000526020600020906000905b82829054906101000a900463ffffffff1663ffffffff16815260200190600401906020826003010492830192600103820291508084116136f15790505b505050505082613b81565b15156112f4578154600181018355600092835260209092206008830401805460079093166004026101000a63ffffffff818102199094169290931692909202179055565b60a08201516080830151600554604080517fad1bb833000000000000000000000000000000000000000000000000000000008152429093036004840181905260248401859052815190936000938493849384938493600160a060020a03169263ad1bb8339260448084019382900301818787803b1580156137fd57600080fd5b505af1158015613811573d6000803e3d6000fd5b505050506040513d604081101561382757600080fd5b508051602091820151600354604080517f41976e09000000000000000000000000000000000000000000000000000000008152600160a060020a038e811660048301529151949a5092985016926341976e09926024808401938290030181600087803b15801561389657600080fd5b505af11580156138aa573d6000803e3d6000fd5b505050506040513d60208110156138c057600080fd5b505160408051828152602081018a905280820189905290519194507f36bc09f07bcf3d3fa05df7f9c56193487df0507ecd1d5a83845b56b4e6d7b733919081900360600190a1604080516156ce81526020810187905280820186905290517f36bc09f07bcf3d3fa05df7f9c56193487df0507ecd1d5a83845b56b4e6d7b7339181900360600190a1600480546040808c0151815160e060020a63055ef6ab0281529384018b9052602484018b9052604484018a9052606484018990526084840188905260ff1660a484015251600160a060020a039091169163055ef6ab9160c48083019260209291908290030181600087803b1580156139bf57600080fd5b505af11580156139d3573d6000803e3d6000fd5b505050506040513d60208110156139e957600080fd5b505191506139fd828463ffffffff61348516565b6040805160c081018252428152600160a060020a039a8b1660208083019182528284019485526060830196875260808301998a5260a083019889529c516000190160009081526007909d5291909b209a518b555160018b018054600160a060020a03191691909a161790985550955160028801555093516003860155516004850155505051600590910155565b8154600090815b81811015613ae5578363ffffffff168582815481101515613aae57fe5b6000918252602090912060088204015460079091166004026101000a900463ffffffff161415613add57613ae5565b600101613a91565b818110156131ec5760001982018114613b71578460018303815481101515613b0957fe5b90600052602060002090600891828204019190066004029054906101000a900463ffffffff168582815481101515613b3d57fe5b90600052602060002090600891828204019190066004026101000a81548163ffffffff021916908363ffffffff1602179055505b84546131e2866000198301614091565b8151600090815b818110156131ec578363ffffffff168582815181101515613ba557fe5b9060200190602002015163ffffffff161415613bc457600192506131f1565b600101613b88565b613bd68282613b81565b15156112f4576040805160e560020a62461bcd02815260206004820152601f60248201527f77686974654c6973743a207573696e6720696e76616c69642075696e74333200604482015290519081900360640190fd5b600160a060020a0381161515613cb2576040805160e560020a62461bcd02815260206004820152602660248201527f4f776e61626c653a206e6577206f776e657220697320746865207a65726f206160448201527f6464726573730000000000000000000000000000000000000000000000000000606482015290519081900360840190fd5b60008054604051600160a060020a03808516939216917f8be0079c531659141344cd1fd0a4f28419497f9722a3daafe3b4186f6b6457e091a360008054600160a060020a031916600160a060020a0392909216919091179055565b6000808285851115613da05760405160e560020a62461bcd0281526004018080602001828103825283818151815260200191508051906020019080838360005b83811015613d65578181015183820152602001613d4d565b50505050905090810190601f168015613d925780820380516001836020036101000a031916815260200191505b509250505060405180910390fd5b5050509103919050565b8151600090815b81811015612fb0578363ffffffff168582815181101515613dce57fe5b9060200190602002015163ffffffff161415613de957612fb0565b600101613db1565b60008082818511613e475760405160e560020a62461bcd02815260040180806020018281038252838181518152602001915080519060200190808383600083811015613d65578181015183820152602001613d4d565b508385811515613e5357fe5b0495945050505050565b600080600080898b11613e7257898903613e76565b8a89035b600480546040805160e060020a63055ef6ab0281529283018c9052602483018c905260448301849052606483018b9052608483018a905260ff891660a484015251929550600160a060020a03169163055ef6ab9160c4808201926020929091908290030181600087803b158015613eec57600080fd5b505af1158015613f00573d6000803e3d6000fd5b505050506040513d6020811015613f1657600080fd5b5051600480546040805160e060020a63055ef6ab0281529283018c9052602483018c9052428d036044840152606483018b9052608483018a905260ff891660a484015251929450600160a060020a03169163055ef6ab9160c4808201926020929091908290030181600087803b158015613f8f57600080fd5b505af1158015613fa3573d6000803e3d6000fd5b505050506040513d6020811015613fb957600080fd5b50519050808211613fcb576000612a2a565b90039998505050505050505050565b60e060405190810160405280600081526020016000600160a060020a03168152602001600060ff168152602001600063ffffffff1681526020016000815260200160008152602001600081525090565b8260028101928215614058579160200282015b8281111561405857825182559160200191906001019061403d565b506140649291506140c1565b5090565b81548183558181111561408c5760008381526020902061408c9181019083016140c1565b505050565b81548183558181111561408c57600701600890048160070160089004836000526020600020918201910161408c91905b6111ca91905b8082111561406457600081556001016140c756004f776e61626c653a2063616c6c6572206973206e6f7420746865206f776e6572a165627a7a72305820c296383e9ce7796625bf3c7ebaee4078077a2476e7d223f6ae52201d813f74b800294f776e61626c653a2063616c6c6572206973206e6f7420746865206f776e6572",
  "source": "pragma solidity ^0.4.26;\r\nimport \"./modules/SafeMath.sol\";\r\nimport \"./modules/Managerable.sol\";\r\nimport \"./interfaces/ICompoundOracle.sol\";\r\nimport \"./modules/underlyingAssets.sol\";\r\nimport \"./interfaces/IOptionsPrice.sol\";\r\nimport \"./interfaces/IVolatility.sol\";\r\ncontract OptionsPool is UnderlyingAssets,Managerable,ImportOracle,ImportOptionsPrice,ImportVolatility {\r\n    \r\n    using SafeMath for uint256;\r\n    struct OptionsInfo {\r\n        uint256     optionID;\r\n        address     owner;\r\n        uint8   \toptType;    //0 for call, 1 for put\r\n        uint32\t\tunderlying;\r\n        uint256\t\texpiration;\r\n        uint256     strikePrice;\r\n        uint256     amount;\r\n    }\r\n\r\n    struct OptionsInfoEx{\r\n        uint256\t\tcreatedTime;\r\n        address     settlement;\r\n        uint256     tokenTimePrice;\r\n        uint256     fullPrice;\r\n        uint256      ivNumerator;\r\n        uint256      ivDenominator;\r\n    }\r\n    //options information\r\n    OptionsInfo[] public allOptions;\r\n    mapping(uint256=>OptionsInfoEx) internal optionExtraMap;\r\n    //each block burn options\r\n    mapping(uint256=>uint256[2][]) public burnBlockOptions;\r\n    //user options balances\r\n    mapping(address=>uint256[]) public optionsBalances;\r\n    //expiration whitelist\r\n    uint256[] public expirationList;\r\n\r\n    //calculate options Collateral occupied phases\r\n    uint32 public optionPhase = 500;\r\n    uint256 internal firstOption = 0;\r\n    uint256 public lastCallOption;\r\n    uint256 public lastCalBlock;\r\n    mapping(uint256=>uint256) internal OptionsPhases;\r\n\r\n    //calculate Options time shared value phasea\r\n    uint32 public sharedPhase = 500;\r\n    uint256 public firstOption_share;\r\n    uint256 public lastCalBlock_share;\r\n    mapping (uint256 =>mapping (address => uint256)) internal OptionsPhaseBalances;\r\n    mapping (uint256 =>uint256) internal OptionsPhaseTimes;\r\n\r\n\r\n    event CreateOption(address indexed owner,uint256 indexed optionID,uint8 optType,uint32 underlying,uint256 expiration,uint256 strikePrice,uint256 amount);\r\n    event BurnOption(address indexed owner,uint256 indexed optionID,uint amount);\r\n    event DebugEvent(uint256 value1,uint256 value2,uint256 value3);\r\n    constructor (address oracleAddr,address optionsPriceAddr,address ivAddress) public{\r\n        setOracleAddress(oracleAddr);\r\n        setOptionsPriceAddress(optionsPriceAddr);\r\n        setVolatilityAddress(ivAddress);\r\n    }\r\n    function getOptionBalances(address user)public view returns(uint256[]){\r\n        return optionsBalances[user];\r\n    }\r\n    function getOptionInfoLength()public view returns (uint256){\r\n        return allOptions.length;\r\n    }\r\n    function getOptionInfoList(uint256 from,uint256 size)public view \r\n                returns(address[],uint256[],uint256[],uint256[],uint256[]){\r\n        if (from+size>allOptions.length){\r\n            size = allOptions.length.sub(from);\r\n        }\r\n        if (size>0){\r\n            address[] memory ownerArr = new address[](size);\r\n            uint256[] memory typeAndUnderArr = new uint256[](size);\r\n            uint256[] memory expArr = new uint256[](size);\r\n            uint256[] memory priceArr = new uint256[](size);\r\n            uint256[] memory amountArr = new uint256[](size);\r\n            for (uint i=0;i<size;i++){\r\n                OptionsInfo storage info = allOptions[from+i];\r\n                ownerArr[i] = info.owner;\r\n                typeAndUnderArr[i] = info.underlying << 16 + info.optType;\r\n                expArr[i] = info.expiration;\r\n                priceArr[i] = info.strikePrice;\r\n                amountArr[i] = info.amount;\r\n            }\r\n            return (ownerArr,typeAndUnderArr,expArr,priceArr,amountArr);\r\n        }\r\n    }\r\n    function getOptionInfoListFromID(uint256[] ids)public view \r\n                returns(address[],uint256[],uint256[],uint256[],uint256[]){\r\n        uint256 size = ids.length;\r\n        address[] memory ownerArr = new address[](size);\r\n        uint256[] memory typeAndUnderArr = new uint256[](size);\r\n        uint256[] memory expArr = new uint256[](size);\r\n        uint256[] memory priceArr = new uint256[](size);\r\n        uint256[] memory amountArr = new uint256[](size);\r\n        for (uint i=0;i<size;i++){\r\n            OptionsInfo storage info = _getOptionsById(ids[i]);\r\n            ownerArr[i] = info.owner;\r\n            typeAndUnderArr[i] = info.underlying << 16 + info.optType;\r\n            expArr[i] = info.expiration;\r\n            priceArr[i] = info.strikePrice;\r\n            amountArr[i] = info.amount;\r\n        }\r\n        return (ownerArr,typeAndUnderArr,expArr,priceArr,amountArr);\r\n    }\r\n    function getLatestOption()public view returns(uint256,address,uint8,uint32,uint256,uint256,uint256){\r\n        uint256 len = allOptions.length;\r\n        require(len>0,\"options list is empty\");\r\n        OptionsInfo storage info = allOptions[len-1];\r\n        return (info.optionID,info.owner,info.optType,info.underlying,info.expiration,info.strikePrice,info.amount);\r\n    }\r\n\r\n    function getOptionsById(uint256 optionsId)public view returns(uint256,address,uint8,uint32,uint256,uint256,uint256){\r\n        OptionsInfo storage info = _getOptionsById(optionsId);\r\n        return (info.optionID,info.owner,info.optType,info.underlying,info.expiration,info.strikePrice,info.amount);\r\n    }\r\n\r\n    function setPhaseOccupiedCollateral(uint256 index) public onlyOwner {\r\n        (uint256 totalOccupied,uint256 beginOption,uint256 lastOption,uint256 blockNum) = calculatePhaseOccupiedCollateral(index);\r\n        setCollateralPhase(index,totalOccupied,beginOption,lastOption,blockNum);\r\n    }\r\n    function setCollateralPhase(uint256 index,uint256 totalOccupied,uint256 beginOption,uint256 lastOption,uint256 lastBlock) public onlyOwner{\r\n        if (beginOption > firstOption){\r\n            firstOption = beginOption;\r\n        }\r\n        if(lastCallOption < lastOption){\r\n            lastCallOption = lastOption;\r\n            lastCalBlock = lastBlock;\r\n        }\r\n        OptionsPhases[index] = totalOccupied;\r\n    }\r\n    function calculatePhaseOccupiedCollateral(uint256 index) public view returns(uint256,uint256,uint256,uint256){\r\n        uint256 beginOption = index.mul(optionPhase);\r\n        uint256 allLen = allOptions.length;\r\n        if (beginOption>=allLen){\r\n            return;\r\n        }\r\n        uint256 lastOption = beginOption.add(optionPhase);\r\n        if (lastOption>allLen) {\r\n            lastOption = allLen;\r\n        }else if(lastOption < firstOption){\r\n            return;\r\n        }\r\n        (uint256 totalOccupied,uint256 newFirstOption) = _calculateOccupiedCollateral(beginOption,lastOption);\r\n        uint256 last = lastCallOption<lastOption ? lastOption : lastCallOption;\r\n        return (totalOccupied,newFirstOption,last,block.number);\r\n    }\r\n    function _calculateOccupiedCollateral(uint256 begin,uint256 end)internal view returns(uint256,uint256){\r\n        uint256 newFirstOption = firstOption;\r\n        bool bfirstPhase = begin <= newFirstOption;\r\n        if (bfirstPhase) {\r\n            begin = newFirstOption;\r\n        }\r\n        uint256 underlyingLen = underlyingAssets.length;\r\n        uint256[] memory prices = new uint256[](underlyingLen);\r\n        for (uint256 i = 0;i<underlyingLen;i++){\r\n            prices[i] = _oracle.getUnderlyingPrice(underlyingAssets[i]);\r\n        }\r\n        uint256 totalOccupied = 0;\r\n        for (;begin<end;begin++){\r\n            uint256 index = _getEligibleUnderlyingIndex(allOptions[begin].underlying);\r\n            uint256 value = calOptionsCollateral(allOptions[begin],prices[index]);\r\n            if (bfirstPhase && value > 0){\r\n                newFirstOption = begin;\r\n                bfirstPhase = false;\r\n            }\r\n            totalOccupied = totalOccupied.add(value);\r\n        }\r\n        //all options in this phase are empty;\r\n        if (bfirstPhase){\r\n            newFirstOption = begin;\r\n        }\r\n        return (totalOccupied,newFirstOption);\r\n    }\r\n    function setSharedState(uint256 index,uint256 _firstOption,uint256 lastBlock,uint256 calTime) public onlyManager{\r\n        if (_firstOption > firstOption_share){\r\n            firstOption_share = _firstOption;\r\n        }\r\n        if(lastBlock < lastCalBlock_share){\r\n            lastCalBlock_share = lastBlock;\r\n        }\r\n        OptionsPhaseTimes[index] = calTime;\r\n    }\r\n    function calculatePhaseSharedPayment(uint256 index,address[] whiteList) public view returns(uint256[],uint256,uint256){\r\n        uint256 beginOption = index.mul(sharedPhase);\r\n        uint256 allLen = allOptions.length;\r\n        if (beginOption>=allLen){\r\n            return;\r\n        }\r\n        uint256 lastOption = beginOption.add(sharedPhase);\r\n        if (lastOption>allLen) {\r\n            lastOption = allLen;\r\n        }else if(lastOption < firstOption_share){\r\n            return;\r\n        }\r\n        (uint256[] memory sharedBalances,uint256 _firstOption) = _calculateSharedPayment(beginOption,lastOption,OptionsPhaseTimes[index],whiteList);\r\n        return (sharedBalances,_firstOption,block.number);\r\n    }\r\n    function _calculateSharedPayment(uint256 begin,uint256 end,uint256 preTime,address[] whiteList)internal view returns(uint256[],uint256){\r\n        uint256 newFirstOption = firstOption_share;\r\n        bool bfirstPhase = begin <= newFirstOption;\r\n        if (bfirstPhase) {\r\n            begin = newFirstOption;\r\n        }\r\n        uint256[] memory totalSharedPayment = new uint256[](whiteList.length);\r\n        for (;begin<end;begin++){\r\n            OptionsInfo storage info = allOptions[begin];\r\n            uint256 tempValue = info.expiration;\r\n            if(tempValue<preTime || info.amount == 0){\r\n                continue;\r\n            }\r\n            if(bfirstPhase){\r\n                newFirstOption = begin;\r\n                bfirstPhase = false;\r\n            }\r\n            OptionsInfoEx storage optionEx = optionExtraMap[begin];\r\n            uint256 timeValue = _calculateTimePrice(preTime,optionEx.createdTime,tempValue,info.strikePrice,\r\n                    optionEx.ivNumerator,optionEx.ivDenominator,info.optType);\r\n            if (timeValue>0){\r\n                tempValue = whiteListAddress._getEligibleIndexAddress(whiteList,optionEx.settlement);\r\n                timeValue = optionEx.tokenTimePrice.mul((timeValue)).mul(info.amount).div(optionEx.fullPrice);\r\n                totalSharedPayment[tempValue] = totalSharedPayment[tempValue].add(timeValue);\r\n            }\r\n        }\r\n        //all options in this phase are empty;\r\n        if(bfirstPhase){\r\n            newFirstOption = begin;\r\n            bfirstPhase = false;\r\n        }\r\n        //burned\r\n        return (_calBurnedSharePrice(begin,end,preTime,whiteList,totalSharedPayment),newFirstOption);\r\n    }\r\n    function _calBurnedSharePrice(uint256 beginIndex,uint256 endIndex,uint256 preTime,address[] whiteList,uint256[] memory totalSharedPayment)public view returns(uint256[]){\r\n        uint256 beginBlock = lastCalBlock_share+1;\r\n        if (beginBlock == 1){\r\n            return totalSharedPayment;\r\n        }\r\n        for (; beginBlock <= block.number;beginBlock++){\r\n            uint256[2][] memory burnedTokens = burnBlockOptions[beginBlock];\r\n            uint burnedLen = burnedTokens.length;\r\n            for (uint256 i = 0;i<burnedLen;i++){\r\n                if(burnedTokens[i][0]<beginIndex || burnedTokens[i][0] >=endIndex){\r\n                   continue;\r\n                }\r\n                OptionsInfo storage info = allOptions[burnedTokens[i][0]];\r\n                uint256 expiration = info.expiration;\r\n                if(expiration<preTime || burnedTokens[i][1] == 0){\r\n                    continue;\r\n                }\r\n                OptionsInfoEx storage optionEx = optionExtraMap[burnedTokens[i][0]];\r\n                uint256 nowValue = _optionsPrice.getOptionsPrice_iv(info.strikePrice,info.strikePrice,expiration-now,optionEx.ivNumerator,\r\n                    optionEx.ivDenominator,info.optType);\r\n                nowValue = optionEx.tokenTimePrice.mul(nowValue).mul(burnedTokens[i][1]).div(optionEx.fullPrice);\r\n                uint256 index = whiteListAddress._getEligibleIndexAddress(whiteList,optionEx.settlement);\r\n                totalSharedPayment[index] = totalSharedPayment[index].add(nowValue);\r\n            }\r\n        }       \r\n        return totalSharedPayment;\r\n    }\r\n    function _calculateTimePrice(uint256 preTime,uint256 createdTime,uint256 expiration,\r\n            uint256 strikePrice,uint256 ivNumerator,uint256 ivDenominator,uint8 optType)internal view returns (uint256){\r\n        uint256 preExpiration = preTime>createdTime ? expiration - preTime : expiration - createdTime;\r\n        uint256 preValue = _optionsPrice.getOptionsPrice_iv(strikePrice,strikePrice,preExpiration,ivNumerator,\r\n            ivDenominator,optType);\r\n        uint256 nowValue = _optionsPrice.getOptionsPrice_iv(strikePrice,strikePrice,expiration-now,ivNumerator,\r\n            ivDenominator,optType);\r\n        return (preValue>nowValue)? preValue-nowValue : 0;\r\n    }\r\n    function createOptions(address from,uint8 optType,uint32 underlying,uint256 expiration,uint256 strikePrice,\r\n        uint256 amount,address settlement) onlyManager public returns (uint256) {\r\n        uint256 optionID = allOptions.length;\r\n        uint256 underlyingPrice =  _oracle.getUnderlyingPrice(underlying);\r\n        allOptions.push(OptionsInfo(optionID+1,from,optType,underlying,expiration,strikePrice,amount));\r\n        optionsBalances[from].push(optionID+1);\r\n        if (optionID == 0){\r\n            lastCalBlock = block.number;\r\n            lastCalBlock_share = block.number;\r\n        }\r\n        OptionsInfo memory info = allOptions[optionID];\r\n        setOptionsExtra(info,settlement);\r\n        emit CreateOption(from,optionID+1,optType,underlying,expiration,strikePrice,amount);\r\n        return calOptionsCollateral(info,underlyingPrice);\r\n    }\r\n    function setOptionsExtra(OptionsInfo memory info,address settlement) internal{\r\n        uint256 strikePrice = info.strikePrice;\r\n        uint256 expiration = info.expiration - now;\r\n        (uint256 ivNumerator,uint256 ivDenominator) = _volatility.calculateIv(expiration,strikePrice);\r\n        uint256 settlePrice = _oracle.getPrice(settlement);\r\n        emit DebugEvent(settlePrice,strikePrice,expiration);\r\n        emit DebugEvent(22222,ivNumerator,ivDenominator);\r\n        uint256 fullPrice = _optionsPrice.getOptionsPrice_iv(strikePrice,strikePrice,expiration,ivNumerator,ivDenominator,info.optType);\r\n        uint256 tokenTimePrice = fullPrice.div(settlePrice);\r\n        optionExtraMap[info.optionID-1]= OptionsInfoEx(now,settlement,tokenTimePrice,fullPrice,ivNumerator,ivDenominator);\r\n    }\r\n    function getTotalOccupiedCollateral() public view returns (uint256) {\r\n        uint256 totalOccupied = sumOptionPhases();\r\n        uint underlyingLen = underlyingAssets.length;\r\n        uint256[] memory prices = new uint256[](underlyingLen);\r\n        for (uint256 i = 0;i<underlyingLen;i++){\r\n            prices[i] = _oracle.getUnderlyingPrice(underlyingAssets[i]);\r\n        }\r\n        uint optionsLen = allOptions.length;\r\n        for (uint256 beginOption = lastCallOption; beginOption < optionsLen;beginOption++){\r\n            uint256 index = _getEligibleUnderlyingIndex(allOptions[beginOption].underlying);\r\n            totalOccupied = totalOccupied.add(calOptionsCollateral(allOptions[beginOption],prices[index]));\r\n        }\r\n        uint256 beginBlock = lastCalBlock+1;\r\n        if (beginBlock == 1){\r\n            return totalOccupied;\r\n        }\r\n        for (; beginBlock <= block.number;beginBlock++){\r\n            uint256[2][] storage burnedTokens = burnBlockOptions[beginBlock];\r\n            uint burnedLen = burnedTokens.length;\r\n            for (i = 0;i<burnedLen;i++){\r\n                uint optionId = burnedTokens[i][0];\r\n                index = _getEligibleUnderlyingIndex(allOptions[optionId].underlying);\r\n                totalOccupied = totalOccupied.sub(calBurnedOptionsCollateral(allOptions[optionId],\r\n                    burnedTokens[i][1],prices[index]));\r\n            }\r\n        }\r\n        return totalOccupied;\r\n    }\r\n    function sumOptionPhases()internal view returns(uint256){\r\n        uint256 totalOccupied = 0;\r\n        uint256 i = firstOption/optionPhase;\r\n        uint256 phaseLen = allOptions.length/optionPhase+1;\r\n        for (;i<phaseLen;i++){\r\n            totalOccupied = totalOccupied.add(OptionsPhases[i]);\r\n        }\r\n        return totalOccupied;\r\n    }\r\n    function calOptionsCollateral(OptionsInfo memory option,uint256 underlyingPrice)internal view returns(uint256){\r\n        if (option.expiration<=now || option.amount == 0){\r\n            return 0;\r\n        }\r\n        uint256 totalOccupied = 0;\r\n        if ((option.optType == 0) == (option.strikePrice>underlyingPrice)){ // call\r\n            totalOccupied = option.strikePrice.mul(option.amount);\r\n        } else {\r\n            totalOccupied = underlyingPrice.mul(option.amount);\r\n        }\r\n        return totalOccupied;\r\n    }\r\n    function calBurnedOptionsCollateral(OptionsInfo memory option,uint256 burned,uint256 underlyingPrice)internal pure returns(uint256){\r\n        uint256 totalOccupied = 0;\r\n        if ((option.optType == 0) == (option.strikePrice>underlyingPrice)){ // call\r\n            totalOccupied = option.strikePrice.mul(burned);\r\n        } else {\r\n            totalOccupied = underlyingPrice.mul(burned);\r\n        }\r\n        return totalOccupied;\r\n    }\r\n    function burnOptions(address from,uint256 id,uint256 amount)public onlyManager{\r\n        OptionsInfo memory info = _getOptionsById(id);\r\n        checkEligible(info);\r\n        checkOwner(info,from);\r\n        checkSufficient(info,amount);\r\n        info.amount = info.amount.sub(amount);\r\n        burnBlockOptions[block.number].push([id-1,amount]);\r\n        emit BurnOption(from,id,amount);\r\n    }\r\n    function getExerciseWorth(uint256 optionsId,uint256 amount)public view returns(uint256){\r\n        OptionsInfo memory info = _getOptionsById(optionsId);\r\n        checkEligible(info);\r\n        checkSufficient(info,amount);\r\n        uint256 underlyingPrice = _oracle.getUnderlyingPrice(info.underlying);\r\n        uint256 tokenPayback = 0;\r\n        if (info.optType == 0){\r\n            if (underlyingPrice > info.strikePrice){\r\n                tokenPayback = underlyingPrice - info.strikePrice;\r\n            }\r\n        }else{\r\n            if ( underlyingPrice < info.strikePrice){\r\n                tokenPayback = info.strikePrice-underlyingPrice;\r\n            }\r\n        }\r\n        if (tokenPayback == 0 ){\r\n            return 0;\r\n        } \r\n        return tokenPayback.mul(amount);\r\n    }\r\n    function _getOptionsById(uint256 id)internal view returns(OptionsInfo storage){\r\n        require(id>0 && id <= allOptions.length,\"option id is not exist\");\r\n        return allOptions[id-1];\r\n    }\r\n    function checkEligible(OptionsInfo memory info)internal view{\r\n        require(info.expiration>now,\"option is expired\");\r\n    }\r\n    function checkOwner(OptionsInfo memory info,address owner)internal pure{\r\n        require(info.owner == owner,\"caller is not the options owner\");\r\n    }\r\n    function checkSufficient(OptionsInfo memory info,uint256 amount) internal pure{\r\n        require(info.amount >= amount,\"option amount is insufficient\");\r\n    }\r\n    function buyOptionCheck(uint256 expiration,uint32 underlying)public view{\r\n        require(isEligibleUnderlyingAsset(underlying) , \"underlying is unsupported asset\");\r\n        checkExpiration(expiration);\r\n    }\r\n        /**\r\n     * @dev Implementation of add an eligible expiration into the expirationList.\r\n     * @param expiration new eligible expiration.\r\n     */\r\n    function addExpiration(uint256 expiration)public onlyOwner{\r\n        whiteListUint256.addWhiteListUint256(expirationList,expiration);\r\n    }\r\n    /**\r\n     * @dev Implementation of revoke an invalid expiration from the expirationList.\r\n     * @param removeExpiration revoked expiration.\r\n     */\r\n    function removeExpirationList(uint256 removeExpiration)public onlyOwner returns(bool) {\r\n        return whiteListUint256.removeWhiteListUint256(expirationList,removeExpiration);\r\n    }\r\n    /**\r\n     * @dev Implementation of getting the eligible expirationList.\r\n     */\r\n    function getExpirationList()public view returns (uint256[]){\r\n        return expirationList;\r\n    }\r\n    /**\r\n     * @dev Implementation of testing whether the input expiration is eligible.\r\n     * @param expiration input expiration for testing.\r\n     */    \r\n    function isEligibleExpiration(uint256 expiration) public view returns (bool){\r\n        return whiteListUint256.isEligibleUint256(expirationList,expiration);\r\n    }\r\n    function checkExpiration(uint256 expiration) public view{\r\n        return require(isEligibleExpiration(expiration),\"expiration value is not supported\");\r\n    }\r\n    function _getEligibleExpirationIndex(uint256 expiration) internal view returns (uint256){\r\n        return whiteListUint256._getEligibleIndexUint256(expirationList,expiration);\r\n    }\r\n\r\n}",
  "sourcePath": "C:\\work\\solidity\\FinnexusOptions_V2\\contracts\\OptionsPool.sol",
  "compiler": {
    "name": "solc",
    "version": "0.4.26+commit.4563c3fc.Emscripten.clang"
  },
  "schemaVersion": "3.1.0",
  "updatedAt": "2020-07-21T14:36:56.510Z",
  "networkType": "ethereum",
  "devdoc": {
    "methods": {
      "addExpiration(uint256)": {
        "details": "Implementation of add an eligible expiration into the expirationList.\r",
        "params": {
          "expiration": "new eligible expiration.\r"
        }
      },
      "addUnderlyingAsset(uint32)": {
        "details": "Implementation of add an eligible underlying into the underlyingAssets.\r",
        "params": {
          "underlying": "new eligible underlying.\r"
        }
      },
      "getExpirationList()": {
        "details": "Implementation of getting the eligible expirationList.\r"
      },
      "getUnderlyingAssets()": {
        "details": "Implementation of getting the eligible underlyingAssets.\r"
      },
      "isEligibleExpiration(uint256)": {
        "details": "Implementation of testing whether the input expiration is eligible.\r",
        "params": {
          "expiration": "input expiration for testing.\r"
        }
      },
      "isEligibleUnderlyingAsset(uint32)": {
        "details": "Implementation of testing whether the input underlying is eligible.\r",
        "params": {
          "underlying": "input underlying for testing.\r"
        }
      },
      "isOwner()": {
        "details": "Returns true if the caller is the current owner."
      },
      "owner()": {
        "details": "Returns the address of the current owner."
      },
      "removeExpirationList(uint256)": {
        "details": "Implementation of revoke an invalid expiration from the expirationList.\r",
        "params": {
          "removeExpiration": "revoked expiration.\r"
        }
      },
      "removeUnderlyingAssets(uint32)": {
        "details": "Implementation of revoke an invalid underlying from the underlyingAssets.\r",
        "params": {
          "removeUnderlying": "revoked underlying.\r"
        }
      },
      "renounceOwnership()": {
        "details": "Leaves the contract without owner. It will not be possible to call `onlyOwner` functions anymore. Can only be called by the current owner.     * NOTE: Renouncing ownership will leave the contract without an owner, thereby removing any functionality that is only available to the owner."
      },
      "transferOwnership(address)": {
        "details": "Transfers ownership of the contract to a new account (`newOwner`). Can only be called by the current owner."
      }
    }
  },
  "userdoc": {
    "methods": {
      "setManager(address)": {
        "notice": "contribution period to stop or not."
      }
    }
  }
}