{
  "contractName": "OptionsManagerV2",
  "abi": [
    {
      "inputs": [
        {
          "internalType": "address",
          "name": "oracleAddr",
          "type": "address"
        },
        {
          "internalType": "address",
          "name": "optionsPriceAddr",
          "type": "address"
        },
        {
          "internalType": "address",
          "name": "optionsPoolAddr",
          "type": "address"
        },
        {
          "internalType": "address",
          "name": "collateralPoolAddr",
          "type": "address"
        },
        {
          "internalType": "address",
          "name": "FPTCoinAddr",
          "type": "address"
        }
      ],
      "payable": false,
      "stateMutability": "nonpayable",
      "type": "constructor"
    },
    {
      "anonymous": false,
      "inputs": [
        {
          "indexed": true,
          "internalType": "address",
          "name": "from",
          "type": "address"
        },
        {
          "indexed": true,
          "internalType": "address",
          "name": "collateral",
          "type": "address"
        },
        {
          "indexed": false,
          "internalType": "uint256",
          "name": "amount",
          "type": "uint256"
        },
        {
          "indexed": false,
          "internalType": "uint256",
          "name": "tokenAmount",
          "type": "uint256"
        }
      ],
      "name": "AddCollateral",
      "type": "event"
    },
    {
      "anonymous": false,
      "inputs": [
        {
          "indexed": true,
          "internalType": "address",
          "name": "from",
          "type": "address"
        },
        {
          "indexed": true,
          "internalType": "address",
          "name": "settlement",
          "type": "address"
        },
        {
          "indexed": true,
          "internalType": "uint256",
          "name": "optionId",
          "type": "uint256"
        },
        {
          "indexed": false,
          "internalType": "uint256",
          "name": "optionPrice",
          "type": "uint256"
        },
        {
          "indexed": false,
          "internalType": "uint256",
          "name": "settlementAmount",
          "type": "uint256"
        },
        {
          "indexed": false,
          "internalType": "uint256",
          "name": "optionAmount",
          "type": "uint256"
        }
      ],
      "name": "BuyOption",
      "type": "event"
    },
    {
      "anonymous": false,
      "inputs": [
        {
          "indexed": false,
          "internalType": "uint256",
          "name": "id",
          "type": "uint256"
        },
        {
          "indexed": false,
          "internalType": "uint256",
          "name": "gas",
          "type": "uint256"
        }
      ],
      "name": "DebugEvent",
      "type": "event"
    },
    {
      "anonymous": false,
      "inputs": [
        {
          "indexed": true,
          "internalType": "address",
          "name": "from",
          "type": "address"
        },
        {
          "indexed": true,
          "internalType": "uint256",
          "name": "optionId",
          "type": "uint256"
        },
        {
          "indexed": false,
          "internalType": "uint256",
          "name": "amount",
          "type": "uint256"
        },
        {
          "indexed": false,
          "internalType": "uint256",
          "name": "sellValue",
          "type": "uint256"
        }
      ],
      "name": "ExerciseOption",
      "type": "event"
    },
    {
      "anonymous": false,
      "inputs": [
        {
          "indexed": true,
          "internalType": "address",
          "name": "previousOwner",
          "type": "address"
        },
        {
          "indexed": true,
          "internalType": "address",
          "name": "newOwner",
          "type": "address"
        }
      ],
      "name": "OwnershipTransferred",
      "type": "event"
    },
    {
      "anonymous": false,
      "inputs": [
        {
          "indexed": true,
          "internalType": "address",
          "name": "from",
          "type": "address"
        },
        {
          "indexed": false,
          "internalType": "address",
          "name": "collateral",
          "type": "address"
        },
        {
          "indexed": false,
          "internalType": "uint256",
          "name": "allRedeem",
          "type": "uint256"
        }
      ],
      "name": "RedeemCollateral",
      "type": "event"
    },
    {
      "anonymous": false,
      "inputs": [
        {
          "indexed": true,
          "internalType": "address",
          "name": "from",
          "type": "address"
        },
        {
          "indexed": true,
          "internalType": "uint256",
          "name": "optionId",
          "type": "uint256"
        },
        {
          "indexed": false,
          "internalType": "uint256",
          "name": "amount",
          "type": "uint256"
        },
        {
          "indexed": false,
          "internalType": "uint256",
          "name": "sellValue",
          "type": "uint256"
        }
      ],
      "name": "SellOption",
      "type": "event"
    },
    {
      "constant": false,
      "inputs": [
        {
          "internalType": "address",
          "name": "collateral",
          "type": "address"
        },
        {
          "internalType": "uint256",
          "name": "amount",
          "type": "uint256"
        }
      ],
      "name": "addCollateral",
      "outputs": [],
      "payable": true,
      "stateMutability": "payable",
      "type": "function"
    },
    {
      "constant": false,
      "inputs": [
        {
          "internalType": "address",
          "name": "addAddress",
          "type": "address"
        }
      ],
      "name": "addWhiteList",
      "outputs": [],
      "payable": false,
      "stateMutability": "nonpayable",
      "type": "function"
    },
    {
      "constant": true,
      "inputs": [
        {
          "internalType": "address",
          "name": "spender",
          "type": "address"
        }
      ],
      "name": "allowance",
      "outputs": [
        {
          "internalType": "uint256",
          "name": "",
          "type": "uint256"
        }
      ],
      "payable": false,
      "stateMutability": "view",
      "type": "function"
    },
    {
      "constant": false,
      "inputs": [
        {
          "internalType": "address",
          "name": "spender",
          "type": "address"
        },
        {
          "internalType": "uint256",
          "name": "amount",
          "type": "uint256"
        }
      ],
      "name": "approve",
      "outputs": [],
      "payable": false,
      "stateMutability": "nonpayable",
      "type": "function"
    },
    {
      "constant": true,
      "inputs": [
        {
          "internalType": "address",
          "name": "account",
          "type": "address"
        }
      ],
      "name": "calCollateralWorth",
      "outputs": [
        {
          "internalType": "uint256[]",
          "name": "",
          "type": "uint256[]"
        }
      ],
      "payable": false,
      "stateMutability": "view",
      "type": "function"
    },
    {
      "constant": true,
      "inputs": [
        {
          "internalType": "uint256",
          "name": "strikePrice",
          "type": "uint256"
        },
        {
          "internalType": "uint256",
          "name": "underlyingPrice",
          "type": "uint256"
        },
        {
          "internalType": "uint256",
          "name": "amount",
          "type": "uint256"
        },
        {
          "internalType": "uint8",
          "name": "optType",
          "type": "uint8"
        }
      ],
      "name": "calOptionsOccupied",
      "outputs": [
        {
          "internalType": "uint256",
          "name": "",
          "type": "uint256"
        }
      ],
      "payable": false,
      "stateMutability": "view",
      "type": "function"
    },
    {
      "constant": true,
      "inputs": [],
      "name": "calculateCollateralRate",
      "outputs": [
        {
          "internalType": "uint256",
          "name": "",
          "type": "uint256"
        }
      ],
      "payable": false,
      "stateMutability": "view",
      "type": "function"
    },
    {
      "constant": true,
      "inputs": [
        {
          "internalType": "address",
          "name": "tmpAddress",
          "type": "address"
        },
        {
          "internalType": "uint256",
          "name": "state",
          "type": "uint256"
        }
      ],
      "name": "checkAddressPermission",
      "outputs": [
        {
          "internalType": "bool",
          "name": "",
          "type": "bool"
        }
      ],
      "payable": false,
      "stateMutability": "view",
      "type": "function"
    },
    {
      "constant": true,
      "inputs": [
        {
          "internalType": "address",
          "name": "spender",
          "type": "address"
        },
        {
          "internalType": "uint256",
          "name": "amount",
          "type": "uint256"
        }
      ],
      "name": "checkAllowance",
      "outputs": [
        {
          "internalType": "bool",
          "name": "",
          "type": "bool"
        }
      ],
      "payable": false,
      "stateMutability": "view",
      "type": "function"
    },
    {
      "constant": true,
      "inputs": [],
      "name": "getAvailableCollateral",
      "outputs": [
        {
          "internalType": "uint256",
          "name": "",
          "type": "uint256"
        }
      ],
      "payable": false,
      "stateMutability": "view",
      "type": "function"
    },
    {
      "constant": true,
      "inputs": [],
      "name": "getCollateralPoolAddress",
      "outputs": [
        {
          "internalType": "address",
          "name": "",
          "type": "address"
        }
      ],
      "payable": false,
      "stateMutability": "view",
      "type": "function"
    },
    {
      "constant": true,
      "inputs": [
        {
          "internalType": "address",
          "name": "collateral",
          "type": "address"
        }
      ],
      "name": "getCollateralRate",
      "outputs": [
        {
          "internalType": "uint256",
          "name": "",
          "type": "uint256"
        }
      ],
      "payable": false,
      "stateMutability": "view",
      "type": "function"
    },
    {
      "constant": true,
      "inputs": [],
      "name": "getFPTCoinAddress",
      "outputs": [
        {
          "internalType": "address",
          "name": "",
          "type": "address"
        }
      ],
      "payable": false,
      "stateMutability": "view",
      "type": "function"
    },
    {
      "constant": true,
      "inputs": [],
      "name": "getInputAmountRange",
      "outputs": [
        {
          "internalType": "uint256",
          "name": "",
          "type": "uint256"
        },
        {
          "internalType": "uint256",
          "name": "",
          "type": "uint256"
        }
      ],
      "payable": false,
      "stateMutability": "view",
      "type": "function"
    },
    {
      "constant": true,
      "inputs": [],
      "name": "getLeftCollateral",
      "outputs": [
        {
          "internalType": "uint256",
          "name": "",
          "type": "uint256"
        }
      ],
      "payable": false,
      "stateMutability": "view",
      "type": "function"
    },
    {
      "constant": true,
      "inputs": [
        {
          "internalType": "address",
          "name": "settlement",
          "type": "address"
        }
      ],
      "name": "getNetWorthBalance",
      "outputs": [
        {
          "internalType": "uint256",
          "name": "",
          "type": "uint256"
        }
      ],
      "payable": false,
      "stateMutability": "view",
      "type": "function"
    },
    {
      "constant": true,
      "inputs": [],
      "name": "getOccupiedCollateral",
      "outputs": [
        {
          "internalType": "uint256",
          "name": "",
          "type": "uint256"
        }
      ],
      "payable": false,
      "stateMutability": "view",
      "type": "function"
    },
    {
      "constant": true,
      "inputs": [],
      "name": "getOptionsPoolAddress",
      "outputs": [
        {
          "internalType": "address",
          "name": "",
          "type": "address"
        }
      ],
      "payable": false,
      "stateMutability": "view",
      "type": "function"
    },
    {
      "constant": true,
      "inputs": [],
      "name": "getOptionsPriceAddress",
      "outputs": [
        {
          "internalType": "address",
          "name": "",
          "type": "address"
        }
      ],
      "payable": false,
      "stateMutability": "view",
      "type": "function"
    },
    {
      "constant": true,
      "inputs": [],
      "name": "getOracleAddress",
      "outputs": [
        {
          "internalType": "address",
          "name": "",
          "type": "address"
        }
      ],
      "payable": false,
      "stateMutability": "view",
      "type": "function"
    },
    {
      "constant": true,
      "inputs": [
        {
          "internalType": "address",
          "name": "settlement",
          "type": "address"
        }
      ],
      "name": "getRealBalance",
      "outputs": [
        {
          "internalType": "int256",
          "name": "",
          "type": "int256"
        }
      ],
      "payable": false,
      "stateMutability": "view",
      "type": "function"
    },
    {
      "constant": true,
      "inputs": [],
      "name": "getTokenNetworth",
      "outputs": [
        {
          "internalType": "uint256",
          "name": "",
          "type": "uint256"
        }
      ],
      "payable": false,
      "stateMutability": "view",
      "type": "function"
    },
    {
      "constant": true,
      "inputs": [],
      "name": "getTotalCollateral",
      "outputs": [
        {
          "internalType": "uint256",
          "name": "",
          "type": "uint256"
        }
      ],
      "payable": false,
      "stateMutability": "view",
      "type": "function"
    },
    {
      "constant": true,
      "inputs": [],
      "name": "getUnlockedCollateral",
      "outputs": [
        {
          "internalType": "uint256",
          "name": "",
          "type": "uint256"
        }
      ],
      "payable": false,
      "stateMutability": "view",
      "type": "function"
    },
    {
      "constant": true,
      "inputs": [
        {
          "internalType": "address",
          "name": "user",
          "type": "address"
        }
      ],
      "name": "getUserPayingUsd",
      "outputs": [
        {
          "internalType": "uint256",
          "name": "",
          "type": "uint256"
        }
      ],
      "payable": false,
      "stateMutability": "view",
      "type": "function"
    },
    {
      "constant": true,
      "inputs": [
        {
          "internalType": "address",
          "name": "account",
          "type": "address"
        }
      ],
      "name": "getUserTotalWorth",
      "outputs": [
        {
          "internalType": "uint256",
          "name": "",
          "type": "uint256"
        }
      ],
      "payable": false,
      "stateMutability": "view",
      "type": "function"
    },
    {
      "constant": true,
      "inputs": [],
      "name": "getWhiteList",
      "outputs": [
        {
          "internalType": "address[]",
          "name": "",
          "type": "address[]"
        }
      ],
      "payable": false,
      "stateMutability": "view",
      "type": "function"
    },
    {
      "constant": true,
      "inputs": [
        {
          "internalType": "address",
          "name": "tmpAddress",
          "type": "address"
        }
      ],
      "name": "isEligibleAddress",
      "outputs": [
        {
          "internalType": "bool",
          "name": "",
          "type": "bool"
        }
      ],
      "payable": false,
      "stateMutability": "view",
      "type": "function"
    },
    {
      "constant": true,
      "inputs": [
        {
          "internalType": "uint256",
          "name": "Amount",
          "type": "uint256"
        }
      ],
      "name": "isInputAmountInRange",
      "outputs": [
        {
          "internalType": "bool",
          "name": "",
          "type": "bool"
        }
      ],
      "payable": false,
      "stateMutability": "view",
      "type": "function"
    },
    {
      "constant": true,
      "inputs": [],
      "name": "isOwner",
      "outputs": [
        {
          "internalType": "bool",
          "name": "",
          "type": "bool"
        }
      ],
      "payable": false,
      "stateMutability": "view",
      "type": "function"
    },
    {
      "constant": false,
      "inputs": [
        {
          "internalType": "address",
          "name": "addAddress",
          "type": "address"
        },
        {
          "internalType": "uint256",
          "name": "permission",
          "type": "uint256"
        }
      ],
      "name": "modifyPermission",
      "outputs": [],
      "payable": false,
      "stateMutability": "nonpayable",
      "type": "function"
    },
    {
      "constant": true,
      "inputs": [],
      "name": "owner",
      "outputs": [
        {
          "internalType": "address",
          "name": "",
          "type": "address"
        }
      ],
      "payable": false,
      "stateMutability": "view",
      "type": "function"
    },
    {
      "constant": false,
      "inputs": [
        {
          "internalType": "uint256",
          "name": "tokenAmount",
          "type": "uint256"
        },
        {
          "internalType": "address",
          "name": "collateral",
          "type": "address"
        }
      ],
      "name": "redeemCollateral",
      "outputs": [],
      "payable": false,
      "stateMutability": "nonpayable",
      "type": "function"
    },
    {
      "constant": false,
      "inputs": [
        {
          "internalType": "address",
          "name": "removeAddress",
          "type": "address"
        }
      ],
      "name": "removeWhiteList",
      "outputs": [
        {
          "internalType": "bool",
          "name": "",
          "type": "bool"
        }
      ],
      "payable": false,
      "stateMutability": "nonpayable",
      "type": "function"
    },
    {
      "constant": false,
      "inputs": [],
      "name": "renounceOwnership",
      "outputs": [],
      "payable": false,
      "stateMutability": "nonpayable",
      "type": "function"
    },
    {
      "constant": false,
      "inputs": [
        {
          "internalType": "address",
          "name": "collateralPool",
          "type": "address"
        }
      ],
      "name": "setCollateralPoolAddress",
      "outputs": [],
      "payable": false,
      "stateMutability": "nonpayable",
      "type": "function"
    },
    {
      "constant": false,
      "inputs": [
        {
          "internalType": "address",
          "name": "collateral",
          "type": "address"
        },
        {
          "internalType": "uint256",
          "name": "colRate",
          "type": "uint256"
        }
      ],
      "name": "setCollateralRate",
      "outputs": [],
      "payable": false,
      "stateMutability": "nonpayable",
      "type": "function"
    },
    {
      "constant": false,
      "inputs": [
        {
          "internalType": "address",
          "name": "FPTCoinAddr",
          "type": "address"
        }
      ],
      "name": "setFPTCoinAddress",
      "outputs": [],
      "payable": false,
      "stateMutability": "nonpayable",
      "type": "function"
    },
    {
      "constant": false,
      "inputs": [
        {
          "internalType": "bool",
          "name": "halt",
          "type": "bool"
        }
      ],
      "name": "setHalt",
      "outputs": [],
      "payable": false,
      "stateMutability": "nonpayable",
      "type": "function"
    },
    {
      "constant": false,
      "inputs": [
        {
          "internalType": "uint256",
          "name": "_minAmount",
          "type": "uint256"
        },
        {
          "internalType": "uint256",
          "name": "_maxAmount",
          "type": "uint256"
        }
      ],
      "name": "setInputAmountRange",
      "outputs": [],
      "payable": false,
      "stateMutability": "nonpayable",
      "type": "function"
    },
    {
      "constant": false,
      "inputs": [
        {
          "internalType": "address",
          "name": "optionsPool",
          "type": "address"
        }
      ],
      "name": "setOptionsPoolAddress",
      "outputs": [],
      "payable": false,
      "stateMutability": "nonpayable",
      "type": "function"
    },
    {
      "constant": false,
      "inputs": [
        {
          "internalType": "address",
          "name": "optionsPrice",
          "type": "address"
        }
      ],
      "name": "setOptionsPriceAddress",
      "outputs": [],
      "payable": false,
      "stateMutability": "nonpayable",
      "type": "function"
    },
    {
      "constant": false,
      "inputs": [
        {
          "internalType": "address",
          "name": "oracle",
          "type": "address"
        }
      ],
      "name": "setOracleAddress",
      "outputs": [],
      "payable": false,
      "stateMutability": "nonpayable",
      "type": "function"
    },
    {
      "constant": false,
      "inputs": [
        {
          "internalType": "bool",
          "name": "_bValid",
          "type": "bool"
        }
      ],
      "name": "setValid",
      "outputs": [],
      "payable": false,
      "stateMutability": "nonpayable",
      "type": "function"
    },
    {
      "constant": false,
      "inputs": [
        {
          "internalType": "address",
          "name": "newOwner",
          "type": "address"
        }
      ],
      "name": "transferOwnership",
      "outputs": [],
      "payable": false,
      "stateMutability": "nonpayable",
      "type": "function"
    },
    {
      "constant": true,
      "inputs": [
        {
          "internalType": "address",
          "name": "user",
          "type": "address"
        },
        {
          "internalType": "address",
          "name": "collateral",
          "type": "address"
        }
      ],
      "name": "userInputCollateral",
      "outputs": [
        {
          "internalType": "uint256",
          "name": "",
          "type": "uint256"
        }
      ],
      "payable": false,
      "stateMutability": "view",
      "type": "function"
    },
    {
      "constant": false,
      "inputs": [],
      "name": "initialize",
      "outputs": [],
      "payable": false,
      "stateMutability": "nonpayable",
      "type": "function"
    },
    {
      "constant": false,
      "inputs": [],
      "name": "update",
      "outputs": [],
      "payable": false,
      "stateMutability": "nonpayable",
      "type": "function"
    },
    {
      "constant": true,
      "inputs": [],
      "name": "getPriceRateRange",
      "outputs": [
        {
          "internalType": "uint256",
          "name": "",
          "type": "uint256"
        },
        {
          "internalType": "uint256",
          "name": "",
          "type": "uint256"
        }
      ],
      "payable": false,
      "stateMutability": "view",
      "type": "function"
    },
    {
      "constant": false,
      "inputs": [
        {
          "internalType": "uint256",
          "name": "_minPriceRate",
          "type": "uint256"
        },
        {
          "internalType": "uint256",
          "name": "_maxPriceRate",
          "type": "uint256"
        }
      ],
      "name": "setPriceRateRange",
      "outputs": [],
      "payable": false,
      "stateMutability": "nonpayable",
      "type": "function"
    },
    {
      "constant": false,
      "inputs": [
        {
          "internalType": "address",
          "name": "settlement",
          "type": "address"
        },
        {
          "internalType": "uint256",
          "name": "settlementAmount",
          "type": "uint256"
        },
        {
          "internalType": "uint256",
          "name": "strikePrice",
          "type": "uint256"
        },
        {
          "internalType": "uint32",
          "name": "underlying",
          "type": "uint32"
        },
        {
          "internalType": "uint256",
          "name": "expiration",
          "type": "uint256"
        },
        {
          "internalType": "uint256",
          "name": "amount",
          "type": "uint256"
        },
        {
          "internalType": "uint8",
          "name": "optType",
          "type": "uint8"
        }
      ],
      "name": "buyOption",
      "outputs": [],
      "payable": true,
      "stateMutability": "payable",
      "type": "function"
    },
    {
      "constant": false,
      "inputs": [
        {
          "internalType": "uint256",
          "name": "optionsId",
          "type": "uint256"
        },
        {
          "internalType": "uint256",
          "name": "amount",
          "type": "uint256"
        }
      ],
      "name": "sellOption",
      "outputs": [],
      "payable": false,
      "stateMutability": "nonpayable",
      "type": "function"
    },
    {
      "constant": false,
      "inputs": [
        {
          "internalType": "uint256",
          "name": "optionsId",
          "type": "uint256"
        },
        {
          "internalType": "uint256",
          "name": "amount",
          "type": "uint256"
        }
      ],
      "name": "exerciseOption",
      "outputs": [],
      "payable": false,
      "stateMutability": "nonpayable",
      "type": "function"
    },
    {
      "constant": true,
      "inputs": [
        {
          "internalType": "uint256",
          "name": "underlyingPrice",
          "type": "uint256"
        },
        {
          "internalType": "uint256",
          "name": "strikePrice",
          "type": "uint256"
        },
        {
          "internalType": "uint256",
          "name": "expiration",
          "type": "uint256"
        },
        {
          "internalType": "uint32",
          "name": "underlying",
          "type": "uint32"
        },
        {
          "internalType": "uint256",
          "name": "amount",
          "type": "uint256"
        },
        {
          "internalType": "uint8",
          "name": "optType",
          "type": "uint8"
        }
      ],
      "name": "getOptionsPrice",
      "outputs": [
        {
          "internalType": "uint256",
          "name": "",
          "type": "uint256"
        }
      ],
      "payable": false,
      "stateMutability": "view",
      "type": "function"
    }
  ],
  "bytecode": "0x60806040526000805460ff199081169091556c0c9f2c9cd04674edea40000000600190815560646002556003805483169055600780549092161790556105dc600d556101f4600e5534801561005357600080fd5b506040516200574838038062005748833981810160405260a081101561007857600080fd5b508051602082015160408084015160608501516080909501516000805461010033810261010060a860020a03199092169190911780835594519697959693959492939204600160a060020a0316917f8be0079c531659141344cd1fd0a4f28419497f9722a3daafe3b4186f6b6457e0908290a360088054600160a060020a03968716600160a060020a031991821617909155600b8054958716958216959095179094556009805493861693851693909317909255600a8054918516919093161790915560078054919092166101000261010060a860020a03199091161790556155e180620001676000396000f3fe6080604052600436106103395760003560e060020a900480638f32d59b116101af578063c5e5a3ed116100fb578063e7122ffd11610099578063f2fde38b11610073578063f2fde38b14610bdf578063f495438714610c12578063f4fdc0c214610c3e578063fb1052bf14610c7757610339565b8063e7122ffd14610b28578063e7cd4a0414610b5b578063ef828b9114610b8e57610339565b8063d6eb5910116100d5578063d6eb591014610ad4578063d7e5799214610ae9578063dab5512914610afe578063e28a327d14610b1357610339565b8063c5e5a3ed14610a7a578063cd40581914610a8f578063d189290414610aa457610339565b8063a56ea40311610168578063b4d5a9c711610142578063b4d5a9c7146109dc578063bc9abed214610a17578063c040725a14610a2c578063c219043b14610a4157610339565b8063a56ea40314610966578063aec6280614610999578063b18b78dd146109c757610339565b80638f32d59b14610862578063925c482c146108775780639ab91a35146108ca578063a093e2d0146108fa578063a20a80451461092d578063a2e62045146107db57610339565b80634c69c00f11610289578063715018a6116102275780638129fc1c116102015780638129fc1c146107db578063813b5d4b146107f0578063817bf86d1461081a5780638da5cb5b1461084d57610339565b8063715018a61461076357806377e071ad146107785780637c9c6712146107ab57610339565b80635ca4b73b116102635780635ca4b73b146106c35780636b6ecea8146106d85780636c64edee1461070b5780636d75b9ee1461073757610339565b80634c69c00f146106275780634cbf63021461065a5780635bf5d8971461069357610339565b80632042e5c2116102f65780633daba0d7116102d05780633daba0d7146105555780633e5beab91461058e57806342049a72146105c1578063447dbeac146105f457610339565b80632042e5c21461049e578063251e2fe3146104e557806332c82a5f1461051657610339565b8063095ea7b31461033e57806309a9d76c146103795780630aaf3832146103de5780630c80d691146104055780631730b3cb146104385780631a5a3fce1461046b575b600080fd5b34801561034a57600080fd5b506103776004803603604081101561036157600080fd5b50600160a060020a038135169060200135610c8c565b005b34801561038557600080fd5b5061038e610cf2565b60408051602080825283518183015283519192839290830191858101910280838360005b838110156103ca5781810151838201526020016103b2565b505050509050019250505060405180910390f35b3480156103ea57600080fd5b506103f3610d55565b60408051918252519081900360200190f35b34801561041157600080fd5b506103f36004803603602081101561042857600080fd5b5035600160a060020a0316610d74565b34801561044457600080fd5b506103776004803603602081101561045b57600080fd5b5035600160a060020a0316610e10565b34801561047757600080fd5b506103776004803603602081101561048e57600080fd5b5035600160a060020a0316610e89565b3480156104aa57600080fd5b506104d1600480360360208110156104c157600080fd5b5035600160a060020a0316610f02565b604080519115158252519081900360200190f35b3480156104f157600080fd5b506104fa610f7e565b60408051600160a060020a039092168252519081900360200190f35b34801561052257600080fd5b506103f36004803603608081101561053957600080fd5b508035906020810135906040810135906060013560ff16610f8d565b34801561056157600080fd5b506104d16004803603604081101561057857600080fd5b50600160a060020a038135169060200135610fbf565b34801561059a57600080fd5b506103f3600480360360208110156105b157600080fd5b5035600160a060020a0316610ff3565b3480156105cd57600080fd5b506103f3600480360360208110156105e457600080fd5b5035600160a060020a031661100e565b34801561060057600080fd5b506103f36004803603602081101561061757600080fd5b5035600160a060020a0316611078565b34801561063357600080fd5b506103776004803603602081101561064a57600080fd5b5035600160a060020a03166111b9565b34801561066657600080fd5b506104d16004803603604081101561067d57600080fd5b50600160a060020a038135169060200135611232565b34801561069f57600080fd5b50610377600480360360408110156106b657600080fd5b5080359060200135611253565b3480156106cf57600080fd5b506104fa6112a8565b3480156106e457600080fd5b506103f3600480360360208110156106fb57600080fd5b5035600160a060020a03166112b7565b34801561071757600080fd5b506103776004803603602081101561072e57600080fd5b50351515611321565b6103776004803603604081101561074d57600080fd5b50600160a060020a03813516906020013561137e565b34801561076f57600080fd5b506103776118ac565b34801561078457600080fd5b506103f36004803603602081101561079b57600080fd5b5035600160a060020a0316611952565b3480156107b757600080fd5b50610377600480360360408110156107ce57600080fd5b508035906020013561196d565b3480156107e757600080fd5b50610377611f51565b3480156107fc57600080fd5b506104d16004803603602081101561081357600080fd5b5035611f9d565b34801561082657600080fd5b506104d16004803603602081101561083d57600080fd5b5035600160a060020a0316611fb5565b34801561085957600080fd5b506104fa612024565b34801561086e57600080fd5b506104d1612038565b610377600480360360e081101561088d57600080fd5b508035600160a060020a031690602081013590604081013590606081013563ffffffff169060808101359060a08101359060c0013560ff1661204e565b3480156108d657600080fd5b50610377600480360360408110156108ed57600080fd5b5080359060200135612393565b34801561090657600080fd5b506103776004803603602081101561091d57600080fd5b5035600160a060020a03166123e8565b34801561093957600080fd5b506103776004803603604081101561095057600080fd5b5080359060200135600160a060020a0316612461565b34801561097257600080fd5b5061038e6004803603602081101561098957600080fd5b5035600160a060020a03166128ac565b3480156109a557600080fd5b506109ae61299a565b6040805192835260208301919091528051918290030190f35b3480156109d357600080fd5b506104fa6129a4565b3480156109e857600080fd5b506103f3600480360360408110156109ff57600080fd5b50600160a060020a03813581169160200135166129b3565b348015610a2357600080fd5b506109ae612a58565b348015610a3857600080fd5b506104fa612a62565b348015610a4d57600080fd5b5061037760048036036040811015610a6457600080fd5b50600160a060020a038135169060200135612a71565b348015610a8657600080fd5b506103f3612ad7565b348015610a9b57600080fd5b506103f3612b98565b348015610ab057600080fd5b5061037760048036036040811015610ac757600080fd5b5080359060200135612c29565b348015610ae057600080fd5b506103f3613080565b348015610af557600080fd5b506104fa6131a5565b348015610b0a57600080fd5b506103f36131b9565b348015610b1f57600080fd5b506103f3613248565b348015610b3457600080fd5b5061037760048036036020811015610b4b57600080fd5b5035600160a060020a0316613255565b348015610b6757600080fd5b5061037760048036036020811015610b7e57600080fd5b5035600160a060020a03166132d4565b348015610b9a57600080fd5b506103f3600480360360c0811015610bb157600080fd5b50803590602081013590604081013590606081013563ffffffff169060808101359060a0013560ff1661334f565b348015610beb57600080fd5b5061037760048036036020811015610c0257600080fd5b5035600160a060020a0316613652565b348015610c1e57600080fd5b5061037760048036036020811015610c3557600080fd5b503515156136a8565b348015610c4a57600080fd5b5061037760048036036040811015610c6157600080fd5b50600160a060020a038135169060200135613705565b348015610c8357600080fd5b506103f3613774565b610c94612038565b610cd6576040805160e560020a62461bcd02815260206004820181905260248201526000805160206154fb833981519152604482015290519081900360640190fd5b600160a060020a03909116600090815260066020526040902055565b60606004805480602002602001604051908101604052809291908181526020018280548015610d4a57602002820191906000526020600020905b8154600160a060020a03168152600190910190602001808311610d2c575b505050505090505b90565b6000610d6f610d62613080565b610d6a612b98565b61386e565b905090565b600a54604080517f0c80d691000000000000000000000000000000000000000000000000000000008152600160a060020a03848116600483015291516000939290921691630c80d69191602480820192602092909190829003018186803b158015610dde57600080fd5b505afa158015610df2573d6000803e3d6000fd5b505050506040513d6020811015610e0857600080fd5b505192915050565b610e18612038565b610e5a576040805160e560020a62461bcd02815260206004820181905260248201526000805160206154fb833981519152604482015290519081900360640190fd5b600a805473ffffffffffffffffffffffffffffffffffffffff1916600160a060020a0392909216919091179055565b610e91612038565b610ed3576040805160e560020a62461bcd02815260206004820181905260248201526000805160206154fb833981519152604482015290519081900360640190fd5b6009805473ffffffffffffffffffffffffffffffffffffffff1916600160a060020a0392909216919091179055565b6000610f0c612038565b610f4e576040805160e560020a62461bcd02815260206004820181905260248201526000805160206154fb833981519152604482015290519081900360640190fd5b600160a060020a038216600090815260056020526040812055610f7860048363ffffffff61388416565b92915050565b600a54600160a060020a031690565b60008060ff8316158587111415610fa75750848302610fac565b508383025b610fb581613972565b9695505050505050565b60075460009060ff161580610fec5750600160a060020a0383166000908152600660205260409020548211155b9392505050565b600160a060020a031660009081526006602052604090205490565b600a54604080517f42049a72000000000000000000000000000000000000000000000000000000008152600160a060020a038481166004830152915160009392909216916342049a7291602480820192602092909190829003018186803b158015610dde57600080fd5b600754604080517f07e77aa0000000000000000000000000000000000000000000000000000000008152600160a060020a0384811660048301529151600093610f789361010090910416916307e77aa0916024808301926020929190829003018186803b1580156110e857600080fd5b505afa1580156110fc573d6000803e3d6000fd5b505050506040513d602081101561111257600080fd5b50516007546040805160e060020a6370a08231028152600160a060020a03878116600483015291516111ad936101009004909216916370a0823191602480820192602092909190829003018186803b15801561116d57600080fd5b505afa158015611181573d6000803e3d6000fd5b505050506040513d602081101561119757600080fd5b50516111a1612ad7565b9063ffffffff61398f16565b9063ffffffff6139e816565b6111c1612038565b611203576040805160e560020a62461bcd02815260206004820181905260248201526000805160206154fb833981519152604482015290519081900360640190fd5b6008805473ffffffffffffffffffffffffffffffffffffffff1916600160a060020a0392909216919091179055565b600160a060020a039190911660009081526005602052604090205481161490565b61125b612038565b61129d576040805160e560020a62461bcd02815260206004820181905260248201526000805160206154fb833981519152604482015290519081900360640190fd5b600e91909155600d55565b600b54600160a060020a031690565b600a54604080517f6b6ecea8000000000000000000000000000000000000000000000000000000008152600160a060020a03848116600483015291516000939290921691636b6ecea891602480820192602092909190829003018186803b158015610dde57600080fd5b611329612038565b61136b576040805160e560020a62461bcd02815260206004820181905260248201526000805160206154fb833981519152604482015290519081900360640190fd5b6007805460ff1916911515919091179055565b60005460ff161561138e57600080fd5b6000805460ff1916600117905560035460ff16156113e4576040805160e560020a62461bcd028152602060048201526017602482015260008051602061558d833981519152604482015290519081900360640190fd5b6113ee8282613a43565b600a54604080517fc3c579cc000000000000000000000000000000000000000000000000000000008152600160a060020a03868116600483015260248201859052600360448301529151939450600093919092169163c3c579cc91606480830192602092919082900301818787803b15801561146957600080fd5b505af115801561147d573d6000803e3d6000fd5b505050506040513d602081101561149357600080fd5b50519182900391905060006114a784613dd0565b600a54604080517f42049a72000000000000000000000000000000000000000000000000000000008152336004820181905291519394508685029361155a936305f5e100928692600160a060020a03909216916342049a7291602480820192602092909190829003018186803b15801561152057600080fd5b505afa158015611534573d6000803e3d6000fd5b505050506040513d602081101561154a57600080fd5b5051018161155457fe5b04610fbf565b6115985760405160e560020a62461bcd02815260040180806020018281038252602e81526020018061555f602e913960400191505060405180910390fd5b60006115a2612ad7565b82816115aa57fe5b600a54604080517f692a76a7000000000000000000000000000000000000000000000000000000008152336004820152602481018790529051939092049350600160a060020a03169163692a76a79160448082019260009290919082900301818387803b15801561161a57600080fd5b505af115801561162e573d6000803e3d6000fd5b5050600a54604080517f2b2d50c3000000000000000000000000000000000000000000000000000000008152600160a060020a038b81166004830152602482018b90529151919092169350632b2d50c39250604480830192600092919082900301818387803b1580156116a057600080fd5b505af11580156116b4573d6000803e3d6000fd5b5050600a54604080517fd56dbe88000000000000000000000000000000000000000000000000000000008152336004820152600160a060020a038b81166024830152604482018b9052915191909216935063d56dbe889250606480830192600092919082900301818387803b15801561172c57600080fd5b505af1158015611740573d6000803e3d6000fd5b5050600a54604080517ffee80a49000000000000000000000000000000000000000000000000000000008152600160a060020a038b81166004830152602482018b9052915191909216935063fee80a499250604480830192600092919082900301818387803b1580156117b257600080fd5b505af11580156117c6573d6000803e3d6000fd5b505060408051888152602081018590528151600160a060020a038b1694503393507f33a089d94f9a0b7d0fe21e69b40d7dbe1965be652c7382cc778d46963db8c49b929181900390910190a3600754604080517f40c10f19000000000000000000000000000000000000000000000000000000008152336004820152602481018490529051610100909204600160a060020a0316916340c10f199160448082019260009290919082900301818387803b15801561188257600080fd5b505af1158015611896573d6000803e3d6000fd5b50506000805460ff191690555050505050505050565b6118b4612038565b6118f6576040805160e560020a62461bcd02815260206004820181905260248201526000805160206154fb833981519152604482015290519081900360640190fd5b60008054604051610100909104600160a060020a0316907f8be0079c531659141344cd1fd0a4f28419497f9722a3daafe3b4186f6b6457e0908390a36000805474ffffffffffffffffffffffffffffffffffffffff0019169055565b600160a060020a03166000908152600c602052604090205490565b60005460ff161561197d57600080fd5b6000805460ff1916600117905560035460ff16156119d3576040805160e560020a62461bcd028152602060048201526017602482015260008051602061558d833981519152604482015290519081900360640190fd5b8080600154101580156119e857508060025411155b611a265760405160e560020a62461bcd0281526004018080602001828103825260298152602001806154906029913960400191505060405180910390fd5b600954604080517f67b8ceb900000000000000000000000000000000000000000000000000000000815260048101869052602481018590529051600092600160a060020a0316916367b8ceb9916044808301926020929190829003018186803b158015611a9257600080fd5b505afa158015611aa6573d6000803e3d6000fd5b505050506040513d6020811015611abc57600080fd5b5051905080611b15576040805160e560020a62461bcd02815260206004820152601b60248201527f54686973206f7074696f6e2063616e6e6f742065786572636973650000000000604482015290519081900360640190fd5b600954604080517f48ee201d000000000000000000000000000000000000000000000000000000008152600481018790529051600092839283928392600160a060020a0316916348ee201d9160248083019260e0929190829003018186803b158015611b8057600080fd5b505afa158015611b94573d6000803e3d6000fd5b505050506040513d60e0811015611baa57600080fd5b5060408101516060820151608083015160a09093015191965094509092509050611bda824263ffffffff613e8d16565b91506000611bed8463ffffffff16613ee8565b600b546040805160e260020a6312df639702815260048101849052602481018690526044810187905263ffffffff8816606482015260ff891660848201529051929350600092600160a060020a0390921691634b7d8e5c9160a480820192602092909190829003018186803b158015611c6557600080fd5b505afa158015611c79573d6000803e3d6000fd5b505050506040513d6020811015611c8f57600080fd5b5051600b546040805160e260020a6312df639702815260048101869052602481018790526044810188905263ffffffff8916606482015260ff8a1660848201529051929350600160a060020a0390911691634b7d8e5c9160a480820192602092909190829003018186803b158015611d0657600080fd5b505afa158015611d1a573d6000803e3d6000fd5b505050506040513d6020811015611d3057600080fd5b5050600954604080517f6ed82ec9000000000000000000000000000000000000000000000000000000008152336004820152602481018d9052604481018c9052606481018490529051600160a060020a0390921691636ed82ec99160848082019260009290919082900301818387803b158015611dac57600080fd5b505af1158015611dc0573d6000803e3d6000fd5b5050600954604080517f597ce900000000000000000000000000000000000000000000000000000000008152600481018f9052602481018e9052815160009550859450600160a060020a039093169263597ce90092604480840193919291829003018186803b158015611e3257600080fd5b505afa158015611e46573d6000803e3d6000fd5b505050506040513d6040811015611e5c57600080fd5b508051602090910151600a54604080517ffee80a49000000000000000000000000000000000000000000000000000000008152600160a060020a038086166004830152602482018590529151949650929450169163fee80a499160448082019260009290919082900301818387803b158015611ed757600080fd5b505af1158015611eeb573d6000803e3d6000fd5b50505050611efa896002613f52565b604080518c8152602081018b905281518e9233927fc939d87d6a5458cd262393bdb2c5408330b7647ca14b752229b0301858a29972929081900390910190a350506000805460ff1916905550505050505050505050565b611f59612038565b611f9b576040805160e560020a62461bcd02815260206004820181905260248201526000805160206154fb833981519152604482015290519081900360640190fd5b565b60008160015410158015610f78575050600254111590565b6000610f7882600480548060200260200160405190810160405280929190818152602001828054801561201157602002820191906000526020600020905b8154600160a060020a03168152600190910190602001808311611ff3575b505050505061417b90919063ffffffff16565b6000546101009004600160a060020a031690565b6000546101009004600160a060020a0316331490565b60005460ff161561205e57600080fd5b6000805460ff1916600117905560035460ff16156120b4576040805160e560020a62461bcd028152602060048201526017602482015260008051602061558d833981519152604482015290519081900360640190fd5b8180600154101580156120c957508060025411155b6121075760405160e560020a62461bcd0281526004018080602001828103825260298152602001806154906029913960400191505060405180910390fd5b600954604080517f3ad2fb570000000000000000000000000000000000000000000000000000000081526004810187905263ffffffff881660248201529051600160a060020a0390921691633ad2fb5791604480820192600092909190829003018186803b15801561217857600080fd5b505afa15801561218c573d6000803e3d6000fd5b5050505060006121a88360ff168763ffffffff168760006141ca565b905060006121bb8763ffffffff16613ee8565b90506121c78882614212565b60006121d5828a8888614282565b600b546040805160e260020a6312df639702815260048101869052602481018d9052604481018b905263ffffffff8c16606482015260ff891660848201529051929350600092600160a060020a0390921691634b7d8e5c9160a480820192602092909190829003018186803b15801561224d57600080fd5b505afa158015612261573d6000803e3d6000fd5b505050506040513d602081101561227757600080fd5b505190508660806122878e613dd0565b9060020a02019650600960009054906101000a9004600160a060020a0316600160a060020a031663924a69ce338e878e6080899060020a0201876080889060020a02018d6040518763ffffffff1660e060020a0281526004018087600160a060020a0316600160a060020a0316815260200186600160a060020a0316600160a060020a031681526020018581526020018481526020018381526020018281526020019650505050505050600060405180830381600087803b15801561234b57600080fd5b505af115801561235f573d6000803e3d6000fd5b5061237b92508e91508d9050640100000000848602048a61453f565b50506000805460ff1916905550505050505050505050565b61239b612038565b6123dd576040805160e560020a62461bcd02815260206004820181905260248201526000805160206154fb833981519152604482015290519081900360640190fd5b600291909155600155565b6123f0612038565b612432576040805160e560020a62461bcd02815260206004820181905260248201526000805160206154fb833981519152604482015290519081900360640190fd5b600b805473ffffffffffffffffffffffffffffffffffffffff1916600160a060020a0392909216919091179055565b60005460ff161561247157600080fd5b6000805460ff1916600117905560035460ff16156124c7576040805160e560020a62461bcd028152602060048201526017602482015260008051602061558d833981519152604482015290519081900360640190fd5b8180600154101580156124dc57508060025411155b61251a5760405160e560020a62461bcd0281526004018080602001828103825260298152602001806154906029913960400191505060405180910390fd5b612525826010611232565b612579576040805160e560020a62461bcd02815260206004820152601f60248201527f736574746c656d656e7420697320756e737570706f7274656420746f6b656e00604482015290519081900360640190fd5b600754604080517f5935573600000000000000000000000000000000000000000000000000000000815233600482015290516000926101009004600160a060020a0316916359355736916024808301926020929190829003018186803b1580156125e257600080fd5b505afa1580156125f6573d6000803e3d6000fd5b505050506040513d602081101561260c57600080fd5b50516007546040805160e060020a6370a082310281523360048201529051929350869284926101009004600160a060020a0316916370a08231916024808301926020929190829003018186803b15801561266557600080fd5b505afa158015612679573d6000803e3d6000fd5b505050506040513d602081101561268f57600080fd5b50510110156126e8576040805160e560020a62461bcd02815260206004820152601e60248201527f53436f696e2062616c616e636520697320696e73756666696369656e74210000604482015290519081900360640190fd5b60006126f333611078565b905060006126ff610d55565b600754604080517f35f0c4fa000000000000000000000000000000000000000000000000000000008152336004820152602481018a905260448101849052815193945060009384936101009004600160a060020a0316926335f0c4fa926064808201939182900301818787803b15801561277857600080fd5b505af115801561278c573d6000803e3d6000fd5b505050506040513d60408110156127a257600080fd5b50805160209091015198039760009250905087156127fe57918290039184156127da578488116127d35760006127d7565b8488035b97505b6000806127e78a866147f0565b909250905081156127fb5781935080830192505b50505b6128098782866148cf565b811561289857600754604080517f9dc29fac000000000000000000000000000000000000000000000000000000008152336004820152602481018590529051610100909204600160a060020a031691639dc29fac9160448082019260009290919082900301818387803b15801561287f57600080fd5b505af1158015612893573d6000803e3d6000fd5b505050505b50506000805460ff19169055505050505050565b606060006128b983611078565b90506060806129238584600480548060200260200160405190810160405280929190818152602001828054801561291957602002820191906000526020600020905b8154600160a060020a031681526001909101906020018083116128fb575b5050505050614af1565b50600454919350915060005b8181101561298f5761297083828151811061294657fe5b602002602001015185838151811061295a57fe5b60200260200101516139e890919063ffffffff16565b84828151811061297c57fe5b602090810291909101015260010161292f565b509195945050505050565b600e54600d549091565b600854600160a060020a031690565b600a54604080517f6ba170b5000000000000000000000000000000000000000000000000000000008152600160a060020a038581166004830152848116602483015291516000939290921691636ba170b591604480820192602092909190829003018186803b158015612a2557600080fd5b505afa158015612a39573d6000803e3d6000fd5b505050506040513d6020811015612a4f57600080fd5b50519392505050565b6002546001549091565b600954600160a060020a031690565b612a79612038565b612abb576040805160e560020a62461bcd02815260206004820181905260248201526000805160206154fb833981519152604482015290519081900360640190fd5b600160a060020a03909116600090815260056020526040902055565b600080600760019054906101000a9004600160a060020a0316600160a060020a03166318160ddd6040518163ffffffff1660e060020a02815260040160206040518083038186803b158015612b2b57600080fd5b505afa158015612b3f573d6000803e3d6000fd5b505050506040513d6020811015612b5557600080fd5b5051905080612b6b576305f5e100915050610d52565b600081612b766131b9565b81612b7d57fe5b04905060648111612b8f576064612b91565b805b9250505090565b600080600960009054906101000a9004600160a060020a0316600160a060020a03166373a3d4246040518163ffffffff1660e060020a02815260040160206040518083038186803b158015612bec57600080fd5b505afa158015612c00573d6000803e3d6000fd5b505050506040513d6020811015612c1657600080fd5b50519050612c2381613972565b91505090565b60005460ff1615612c3957600080fd5b6000805460ff1916600117905560035460ff1615612c8f576040805160e560020a62461bcd028152602060048201526017602482015260008051602061558d833981519152604482015290519081900360640190fd5b808060015410158015612ca457508060025411155b612ce25760405160e560020a62461bcd0281526004018080602001828103825260298152602001806154906029913960400191505060405180910390fd5b600954604080517f48ee201d000000000000000000000000000000000000000000000000000000008152600481018690529051600092839283928392600160a060020a0316916348ee201d9160248083019260e0929190829003018186803b158015612d4d57600080fd5b505afa158015612d61573d6000803e3d6000fd5b505050506040513d60e0811015612d7757600080fd5b5060408101516060820151608083015160a09093015191965094509092509050612da7824263ffffffff613e8d16565b91506000612dba8463ffffffff16613ee8565b600b546040805160e260020a6312df639702815260048101849052602481018690526044810187905263ffffffff8816606482015260ff891660848201529051929350600092600160a060020a0390921691634b7d8e5c9160a480820192602092909190829003018186803b158015612e3257600080fd5b505afa158015612e46573d6000803e3d6000fd5b505050506040513d6020811015612e5c57600080fd5b5051600954604080517f6ed82ec9000000000000000000000000000000000000000000000000000000008152336004820152602481018d9052604481018c9052606481018490529051929350600160a060020a0390911691636ed82ec99160848082019260009290919082900301818387803b158015612edb57600080fd5b505af1158015612eef573d6000803e3d6000fd5b5050600954604080517f597ce900000000000000000000000000000000000000000000000000000000008152600481018e9052602481018d90528151868e029550600094508493600160a060020a03169263597ce9009260448082019391829003018186803b158015612f6157600080fd5b505afa158015612f75573d6000803e3d6000fd5b505050506040513d6040811015612f8b57600080fd5b508051602090910151600a54604080517ffee80a49000000000000000000000000000000000000000000000000000000008152600160a060020a038086166004830152602482018590529151949650929450169163fee80a499160448082019260009290919082900301818387803b15801561300657600080fd5b505af115801561301a573d6000803e3d6000fd5b50505050613029836001613f52565b604080518c81526020810185905281518e9233927f4d6194525a1265d47b1d6b65f640509c7a2a8aa847fd0654fac933032e1348ac929081900390910190a350506000805460ff1916905550505050505050505050565b6004546000908190815b8181101561318e576000600482815481106130a157fe5b6000918252602082200154600160a060020a031691506130c082613dd0565b600a54604080517f0c80d691000000000000000000000000000000000000000000000000000000008152600160a060020a03868116600483015291519394506000939190921691630c80d691916024808301926020929190829003018186803b15801561312c57600080fd5b505afa158015613140573d6000803e3d6000fd5b505050506040513d602081101561315657600080fd5b50519050801561318357613180613173838363ffffffff614ea516565b879063ffffffff614efe16565b95505b50505060010161308a565b50600082121561319f576000612b91565b50919050565b6007546101009004600160a060020a031690565b6000610d6f6131c6613080565b600760019054906101000a9004600160a060020a0316600160a060020a031663dad3eb746040518163ffffffff1660e060020a02815260040160206040518083038186803b15801561321757600080fd5b505afa15801561322b573d6000803e3d6000fd5b505050506040513d602081101561324157600080fd5b505161386e565b6000610d6f610d626131b9565b61325d612038565b61329f576040805160e560020a62461bcd02815260206004820181905260248201526000805160206154fb833981519152604482015290519081900360640190fd5b60078054600160a060020a039092166101000274ffffffffffffffffffffffffffffffffffffffff0019909216919091179055565b6132dc612038565b61331e576040805160e560020a62461bcd02815260206004820181905260248201526000805160206154fb833981519152604482015290519081900360640190fd5b61332f60048263ffffffff614f5f16565b600160a060020a0316600090815260056020526040902063ffffffff9055565b60008061335e87898686610f8d565b905080613369613248565b10156133bf576040805160e560020a62461bcd02815260206004820152601b60248201527f636f6c6c61746572616c20697320696e73756666696369656e74210000000000604482015290519081900360640190fd5b600b546040805160e260020a6312df6397028152600481018b9052602481018a90526044810189905263ffffffff8816606482015260ff861660848201529051600092600160a060020a031691634b7d8e5c9160a4808301926020929190829003018186803b15801561343157600080fd5b505afa158015613445573d6000803e3d6000fd5b505050506040513d602081101561345b57600080fd5b50519050600060ff8516156134ec57600960009054906101000a9004600160a060020a0316600160a060020a031663aef890be6040518163ffffffff1660e060020a02815260040160206040518083038186803b1580156134bb57600080fd5b505afa1580156134cf573d6000803e3d6000fd5b505050506040513d60208110156134e557600080fd5b505161356a565b600960009054906101000a9004600160a060020a0316600160a060020a0316633e77dfd96040518163ffffffff1660e060020a02815260040160206040518083038186803b15801561353d57600080fd5b505afa158015613551573d6000803e3d6000fd5b505050506040513d602081101561356757600080fd5b50515b90508261357682613972565b019050600083613584612b98565b01905060006135916131b9565b600b54604080517ff22f25430000000000000000000000000000000000000000000000000000000081526004810187905260248101869052604481018490529051929350600092600160a060020a039092169163f22f254391606480820192602092909190829003018186803b15801561360a57600080fd5b505afa15801561361e573d6000803e3d6000fd5b505050506040513d602081101561363457600080fd5b50516401000000009502949094049c9b505050505050505050505050565b61365a612038565b61369c576040805160e560020a62461bcd02815260206004820181905260248201526000805160206154fb833981519152604482015290519081900360640190fd5b6136a581615004565b50565b6136b0612038565b6136f2576040805160e560020a62461bcd02815260206004820181905260248201526000805160206154fb833981519152604482015290519081900360640190fd5b6003805460ff1916911515919091179055565b61370d612038565b61374f576040805160e560020a62461bcd02815260206004820181905260248201526000805160206154fb833981519152604482015290519081900360640190fd5b613758826132d4565b600160a060020a039091166000908152600c6020526040902055565b60045460009081908190815b818110156138455760006004828154811061379757fe5b6000918252602082200154600160a060020a031691506137b6826112b7565b90506000811180156137df5750600160a060020a0382166000908152600c602052604090205415155b1561383b57806137ee83613dd0565b029050613801868263ffffffff6139e816565b600160a060020a0383166000908152600c602052604090205490965061383890828161382957fe5b8791900463ffffffff6139e816565b94505b5050600101613780565b82156138605782848161385457fe5b04945050505050610d52565b611388945050505050610d52565b600081831161387e576000610fec565b50900390565b8154600090815b818110156138d15783600160a060020a03168582815481106138a957fe5b600091825260209091200154600160a060020a031614156138c9576138d1565b60010161388b565b818110156139675760018203811461394b578460018303815481106138f257fe5b9060005260206000200160009054906101000a9004600160a060020a031685828154811061391c57fe5b9060005260206000200160006101000a815481600160a060020a030219169083600160a060020a031602179055505b845461395b866000198301615409565b50600192505050610f78565b506000949350505050565b60006103e882613980613774565b028161398857fe5b0492915050565b60008115806139aa575050808202828282816139a757fe5b04145b610f785760405160e560020a62461bcd0281526004018080602001828103825260218152602001806154da6021913960400191505060405180910390fd5b80820182811015610f78576040805160e560020a62461bcd02815260206004820152601b60248201527f536166654d6174683a206164646974696f6e206f766572666c6f770000000000604482015290519081900360640190fd5b6000613a50836001611232565b613aa4576040805160e560020a62461bcd02815260206004820152601f60248201527f736574746c656d656e7420697320756e737570706f7274656420746f6b656e00604482015290519081900360640190fd5b600160a060020a038316613af857600a54604051349350600160a060020a0390911690819084156108fc029085906000818181858888f19350505050158015613af1573d6000803e3d6000fd5b5050613d89565b8115613d89576040805160e060020a6370a0823102815230600482015290518491600091600160a060020a038416916370a08231916024808301926020929190829003018186803b158015613b4c57600080fd5b505afa158015613b60573d6000803e3d6000fd5b505050506040513d6020811015613b7657600080fd5b5051604080517f23b872dd000000000000000000000000000000000000000000000000000000008152336004820152306024820152604481018790529051919250600160a060020a038416916323b872dd916064808201926020929091908290030181600087803b158015613bea57600080fd5b505af1158015613bfe573d6000803e3d6000fd5b505050506040513d6020811015613c1457600080fd5b50506040805160e060020a6370a082310281523060048201529051600091600160a060020a038516916370a0823191602480820192602092909190829003018186803b158015613c6357600080fd5b505afa158015613c77573d6000803e3d6000fd5b505050506040513d6020811015613c8d57600080fd5b505190508181038514613cea576040805160e560020a62461bcd02815260206004820181905260248201527f736574746c656d656e7420746f6b656e207472616e73666572206572726f7221604482015290519081900360640190fd5b600a54604080517fa9059cbb000000000000000000000000000000000000000000000000000000008152600160a060020a0392831660048201526024810188905290519185169163a9059cbb916044808201926020929091908290030181600087803b158015613d5957600080fd5b505af1158015613d6d573d6000803e3d6000fd5b505050506040513d6020811015613d8357600080fd5b50505050505b613d9282611f9d565b61319f5760405160e560020a62461bcd0281526004018080602001828103825260298152602001806154906029913960400191505060405180910390fd5b600854604080517f41976e09000000000000000000000000000000000000000000000000000000008152600160a060020a0384811660048301529151600093849316916341976e09916024808301926020929190829003018186803b158015613e3857600080fd5b505afa158015613e4c573d6000803e3d6000fd5b505050506040513d6020811015613e6257600080fd5b5051905060648110801590613e8457506c0c9f2c9cd04674edea400000008111155b610f7857600080fd5b80820382811115610f78576040805160e560020a62461bcd02815260206004820181905260248201527f536166654d6174683a20737562737472616374696f6e20756e646572666c6f77604482015290519081900360640190fd5b600854604080517fda6632570000000000000000000000000000000000000000000000000000000081526004810184905290516000928392600160a060020a039091169163da66325791602480820192602092909190829003018186803b158015613e3857600080fd5b60045460408051828152602080840282010190915260009190606090828015613f85578160200160208202803883390190505b50905060005b8281101561403a57600060048281548110613fa257fe5b600091825260209091200154600160a060020a03169050613fc4816002611232565b15614031576000613fd482613dd0565b9050613fdf826112b7565b848481518110613feb57fe5b60200260200101818152505061402d61402085858151811061400957fe5b60200260200101518361398f90919063ffffffff16565b879063ffffffff6139e816565b9550505b50600101613f8b565b85841015801561404a5750600086115b6140885760405160e560020a62461bcd02815260040180806020018281038252602381526020018061551b6023913960400191505060405180910390fd5b5060005b82811015614173576000846140bd888585815181106140a757fe5b602002602001015161398f90919063ffffffff16565b816140c457fe5b600a5460048054939092049350600160a060020a031691632454047c913391869081106140ed57fe5b60009182526020822001546040805160e060020a63ffffffff8716028152600160a060020a03948516600482015293909116602484015260448301869052606483018b90525160848084019382900301818387803b15801561414e57600080fd5b505af1158015614162573d6000803e3d6000fd5b50506001909301925061408c915050565b505050505050565b8151600090815b818110156139675783600160a060020a03168582815181106141a057fe5b6020026020010151600160a060020a031614156141c257600192505050610f78565b600101614182565b68010000000000000000830284017001000000000000000000000000000000008302017801000000000000000000000000000000000000000000000000820201949350505050565b816103e8600d5483028161422257fe5b04101580156142405750816103e8600e5483028161423c57fe5b0411155b61427e5760405160e560020a62461bcd0281526004018080602001828103825260218152602001806154b96021913960400191505060405180910390fd5b5050565b600080600061428f6150bf565b915091506000600760019054906101000a9004600160a060020a0316600160a060020a031663dad3eb746040518163ffffffff1660e060020a02815260040160206040518083038186803b1580156142e657600080fd5b505afa1580156142fa573d6000803e3d6000fd5b505050506040513d602081101561431057600080fd5b505190508083101561436c576040805160e560020a62461bcd02815260206004820152601b60248201527f636f6c6c61746572616c20697320696e73756666696369656e74210000000000604482015290519081900360640190fd5b9182900391600060ff861615898911146143885786890261438c565b8688025b90506000600960009054906101000a9004600160a060020a0316600160a060020a0316633e77dfd96040518163ffffffff1660e060020a02815260040160206040518083038186803b1580156143e157600080fd5b505afa1580156143f5573d6000803e3d6000fd5b505050506040513d602081101561440b57600080fd5b5051600954604080517faef890be0000000000000000000000000000000000000000000000000000000081529051929350600092600160a060020a039092169163aef890be91600480820192602092909190829003018186803b15801561447157600080fd5b505afa158015614485573d6000803e3d6000fd5b505050506040513d602081101561449b57600080fd5b505190506103e88282018401860281900490868560ff8c16156144be57846144c0565b855b0102816144c957fe5b04935080871015614524576040805160e560020a62461bcd02815260206004820152601b60248201527f636f6c6c61746572616c20697320696e73756666696369656e74210000000000604482015290519081900360640190fd5b61452f848289615257565b9c9b505050505050505050505050565b6145498484613a43565b92506fffffffffffffffffffffffffffffffff811690700100000000000000000000000000000000900482820281818161457f57fe5b600a54604080517fc3c579cc000000000000000000000000000000000000000000000000000000008152600160a060020a038b811660048301529490930460248401819052600060448501819052915190955090939091169163c3c579cc91606480830192602092919082900301818787803b1580156145fe57600080fd5b505af1158015614612573d6000803e3d6000fd5b505050506040513d602081101561462857600080fd5b505190508181018610156146705760405160e560020a62461bcd02815260040180806020018281038252602181526020018061553e6021913960400191505060405180910390fd5b81810190950394851561470a57600a54604080517f9994eb14000000000000000000000000000000000000000000000000000000008152336004820152600160a060020a038a81166024830152604482018a905291519190921691639994eb1491606480830192600092919082900301818387803b1580156146f157600080fd5b505af1158015614705573d6000803e3d6000fd5b505050505b600954604080517fbec3107f0000000000000000000000000000000000000000000000000000000081529051600092600160a060020a03169163bec3107f916004808301926020929190829003018186803b15801561476857600080fd5b505afa15801561477c573d6000803e3d6000fd5b505050506040513d602081101561479257600080fd5b5051604080518881526020810186905280820188905290519192508291600160a060020a038b169133917f09e4fd1b37f40234b903951f986d8b64cb9c99657348f04cda4a75fbe743684d9181900360600190a45050505050505050565b60008060006147fd612ad7565b9050848102848111156148c157600082868161481557fe5b600754604080517f4b91a07b00000000000000000000000000000000000000000000000000000000815233600482015293909204808b03602485018190528781026044860152925190945086850293610100909204600160a060020a031691634b91a07b91606480830192600092919082900301818387803b15801561489a57600080fd5b505af11580156148ae573d6000803e3d6000fd5b509498509296506148c895505050505050565b8593509150505b9250929050565b816148d957614aec565b60408051600160a060020a038516815260208101849052815133927fc994feb9b99296d80965b47aec6be0d25704ddf95b9b9bc1ed8bc753960d5809928290030190a26060614927846152cd565b90506060806060614939338686614af1565b925092509250600a60009054906101000a9004600160a060020a0316600160a060020a031663a2fa92c73388878787876040518763ffffffff1660e060020a0281526004018087600160a060020a0316600160a060020a0316815260200186815260200180602001806020018060200180602001858103855289818151815260200191508051906020019060200280838360005b838110156149e55781810151838201526020016149cd565b50505050905001858103845288818151815260200191508051906020019060200280838360005b83811015614a24578181015183820152602001614a0c565b50505050905001858103835287818151815260200191508051906020019060200280838360005b83811015614a63578181015183820152602001614a4b565b50505050905001858103825286818151815260200191508051906020019060200280838360005b83811015614aa2578181015183820152602001614a8a565b505050509050019a5050505050505050505050600060405180830381600087803b158015614acf57600080fd5b505af1158015614ae3573d6000803e3d6000fd5b50505050505050505b505050565b6060806060808451604051908082528060200260200182016040528015614b22578160200160208202803883390190505b50905060608551604051908082528060200260200182016040528015614b52578160200160208202803883390190505b50905060005b8651811015614bf457614b7f878281518110614b7057fe5b60200260200101516002611232565b15614bb957614ba0878281518110614b9357fe5b60200260200101516112b7565b828281518110614bac57fe5b6020026020010181815250505b614bd5878281518110614bc857fe5b6020026020010151613dd0565b838281518110614be157fe5b6020908102919091010152600101614b58565b50600a546040517f7a6a0277000000000000000000000000000000000000000000000000000000008152600160a060020a038a811660048301908152602483018b905260a0604484019081528a5160a48501528a516060958695941693637a6a0277938f938f938f938b938d93909290916064810191608482019160c401906020808a01910280838360005b83811015614c98578181015183820152602001614c80565b50505050905001848103835286818151815260200191508051906020019060200280838360005b83811015614cd7578181015183820152602001614cbf565b50505050905001848103825285818151815260200191508051906020019060200280838360005b83811015614d16578181015183820152602001614cfe565b505050509050019850505050505050505060006040518083038186803b158015614d3f57600080fd5b505afa158015614d53573d6000803e3d6000fd5b505050506040513d6000823e601f3d908101601f191682016040908152811015614d7c57600080fd5b8101908080516040519392919084640100000000821115614d9c57600080fd5b908301906020820185811115614db157600080fd5b8251866020820283011164010000000082111715614dce57600080fd5b82525081516020918201928201910280838360005b83811015614dfb578181015183820152602001614de3565b5050505090500160405260200180516040519392919084640100000000821115614e2457600080fd5b908301906020820185811115614e3957600080fd5b8251866020820283011164010000000082111715614e5657600080fd5b82525081516020918201928201910280838360005b83811015614e83578181015183820152602001614e6b565b505050509190910160405250939e929d50969b50909950505050505050505050565b6000811580614ec057505080820282828281614ebd57fe5b05145b610f785760405160e560020a62461bcd0281526004018080602001828103825260238152602001806154476023913960400191505060405180910390fd5b81810182811215600083121514610f78576040805160e560020a62461bcd02815260206004820152601d60248201527f53616665496e743235363a206164646974696f6e206f766572666c6f77000000604482015290519081900360640190fd5b614fc282805480602002602001604051908101604052809291908181526020018280548015614fb757602002820191906000526020600020905b8154600160a060020a03168152600190910190602001808311614f99575b50505050508261417b565b61427e578154600181018355600083815260209020018054600160a060020a03831673ffffffffffffffffffffffffffffffffffffffff199091161790555050565b600160a060020a03811661504c5760405160e560020a62461bcd02815260040180806020018281038252602681526020018061546a6026913960400191505060405180910390fd5b60008054604051600160a060020a038085169361010090930416917f8be0079c531659141344cd1fd0a4f28419497f9722a3daafe3b4186f6b6457e091a360008054600160a060020a039092166101000274ffffffffffffffffffffffffffffffffffffffff0019909216919091179055565b6004546000908190819081908190815b8181101561521b576000600482815481106150e657fe5b6000918252602080832090910154600a54604080517f0c80d691000000000000000000000000000000000000000000000000000000008152600160a060020a039384166004820181905291519196509190921692630c80d69192602480840193829003018186803b15801561515a57600080fd5b505afa15801561516e573d6000803e3d6000fd5b505050506040513d602081101561518457600080fd5b5051905080156152115761519782613dd0565b026000811380156151bf5750600160a060020a0382166000908152600c602052604090205415155b15615211576151d4878263ffffffff614efe16565b96506151e6868263ffffffff6139e816565b600160a060020a0383166000908152600c602052604090205490965061520e90828161382957fe5b94505b50506001016150cf565b5081156152335781838161522b57fe5b049150615239565b61138891505b600084121561524957600061524b565b835b95509093505050509091565b600082846002021161526f5750640100000000610fec565b60008364010000000086028161528157fe5b046380000000019050600083858161529557fe5b049050602060026003848402026801000000000000000060029390930a91900404808002020464010000000001925050509392505050565b606080600480548060200260200160405190810160405280929190818152602001828054801561532657602002820191906000526020600020905b8154600160a060020a03168152600190910190602001808311615308575b50505050509050600061533982856153b8565b905080156153b1578160008151811061534e57fe5b602002602001015182828151811061536257fe5b6020026020010190600160a060020a03169081600160a060020a031681525050838260008151811061539057fe5b6020026020010190600160a060020a03169081600160a060020a0316815250505b5092915050565b8151600090815b818110156154015783600160a060020a03168582815181106153dd57fe5b6020026020010151600160a060020a031614156153f957615401565b6001016153bf565b949350505050565b815481835581811115614aec57600083815260209020614aec918101908301610d5291905b80821115615442576000815560010161542e565b509056fe53616665496e743235363a206d756c7469706c69636174696f6e206f766572666c6f774f776e61626c653a206e6577206f776e657220697320746865207a65726f2061646472657373696e70757420616d6f756e74206973206f7574206f6620696e70757420616d6f756e742072616e6765737472696b655072696365206973206f7574206f662070726963652072616e6765536166654d6174683a206d756c7469706c69636174696f6e206f766572666c6f774f776e61626c653a2063616c6c6572206973206e6f7420746865206f776e65727061796261636b20736574746c656d656e7420697320696e73756666696369656e7421736574746c656d656e7420617373657420697320696e73756666696369656e7421416c6c6f77616e636573203a2075736572277320616c6c6f77616e636520697320756e73756666696369656e74215468697320636f6e74726163742069732068616c746564000000000000000000a265627a7a72315820722605e24b2bdbdd1192d9369303ca6dab829e6b9955ba26226d4db67e525d8064736f6c63430005100032",
  "source": "pragma solidity =0.5.16;\r\nimport \"../modules/SafeMath.sol\";\r\nimport \"./CollateralCal.sol\";\r\nimport \"../modules/tuple64.sol\";\r\n/**\r\n * @title Options manager contract for finnexus proposal v2.\r\n * @dev A Smart-contract to manage Options pool, collatral pool, mine pool, FPTCoin, etc.\r\n *\r\n */\r\ncontract OptionsManagerV2 is CollateralCal {\r\n    using SafeMath for uint256;\r\n\r\n    /**\r\n    * @dev Options manager constructor. set other contract address\r\n    * @param oracleAddr fnx oracle contract address.\r\n    * @param optionsPriceAddr options price contract address\r\n    * @param optionsPoolAddr optoins pool contract address\r\n    * @param FPTCoinAddr FPTCoin contract address\r\n    */\r\n    constructor (address oracleAddr,address optionsPriceAddr,address optionsPoolAddr,address collateralPoolAddr,address FPTCoinAddr) public{\r\n        _oracle = IFNXOracle(oracleAddr);\r\n        _optionsPrice = IOptionsPrice(optionsPriceAddr);\r\n        _optionsPool = IOptionsPool(optionsPoolAddr);\r\n        _collateralPool = ICollateralPool(collateralPoolAddr);\r\n        _FPTCoin = IFPTCoin(FPTCoinAddr);\r\n    }\r\n    function initialize() onlyOwner public {\r\n        \r\n    }\r\n    function update() onlyOwner public {\r\n        \r\n    }\r\n    /**\r\n    * @dev retrieve input price valid range rate, thousandths.\r\n    */ \r\n    function getPriceRateRange() public view returns(uint256,uint256) {\r\n        return (minPriceRate,maxPriceRate);\r\n    }\r\n    /**\r\n    * @dev set input price valid range rate, thousandths.\r\n    */ \r\n    function setPriceRateRange(uint256 _minPriceRate,uint256 _maxPriceRate) public onlyOwner{\r\n        minPriceRate = _minPriceRate;\r\n        maxPriceRate = _maxPriceRate;\r\n    }\r\n    /**\r\n    * @dev check user input price is in valid range.\r\n    * @param strikePrice user input strikePrice\r\n    * @param underlyingPrice current underlying price.\r\n    */ \r\n    function checkStrikePrice(uint256 strikePrice,uint256 underlyingPrice)internal view{\r\n        require(underlyingPrice*maxPriceRate/1000>=strikePrice && underlyingPrice*minPriceRate/1000<=strikePrice,\r\n                \"strikePrice is out of price range\");\r\n    }\r\n    /**\r\n    * @dev user buy option and create new option.\r\n    * @param settlement user's settement coin address\r\n    * @param settlementAmount amount of settlement user want fo pay.\r\n    * @param strikePrice user input option's strike price\r\n    * @param underlying user input option's underlying id, 1 for BTC,2 for ETH\r\n    * @param expiration user input expiration,time limit from now\r\n    * @param amount user input amount of new option user want to buy.\r\n    * @param optType user input option type\r\n    */ \r\n    function buyOption(address settlement,uint256 settlementAmount, uint256 strikePrice,uint32 underlying,\r\n                uint256 expiration,uint256 amount,uint8 optType) nonReentrant notHalted InRange(amount) public payable{\r\n        _optionsPool.buyOptionCheck(expiration,underlying);\r\n        uint256 ty_ly_exp = tuple64.getTuple(uint256(optType),uint256(underlying),uint256(expiration),0);\r\n        uint256 underlyingPrice = oracleUnderlyingPrice(underlying);\r\n        checkStrikePrice(strikePrice,underlyingPrice);\r\n        uint256 optRate = _getOptionsPriceRate(underlyingPrice,strikePrice,amount,optType);\r\n        uint256 optPrice = _optionsPrice.getOptionsPrice(underlyingPrice,strikePrice,expiration,underlying,optType);\r\n        amount = (oraclePrice(settlement)<<128)+amount;\r\n        _optionsPool.createOptions(msg.sender,settlement,ty_ly_exp,(underlyingPrice<<128)+strikePrice,(optPrice<<128)+optRate,amount);\r\n        buyOption_sub(settlement,settlementAmount,(optPrice*optRate)>>32,amount);\r\n    }\r\n    /**\r\n    * @dev subfunction of buy option.\r\n    * @param settlement user's settement coin address\r\n    * @param settlementAmount amount of settlement user want fo pay.\r\n    * @param optionPrice new option's price\r\n    * @param amount user input amount of new option user want to buy.\r\n    */ \r\n    function buyOption_sub(address settlement,uint256 settlementAmount,\r\n            uint256 optionPrice,uint256 amount)internal{\r\n        settlementAmount = getPayableAmount(settlement,settlementAmount);\r\n        uint256 settlePrice = amount >>128;\r\n        amount = uint256(uint128(amount));\r\n        uint256 allPay = amount*optionPrice;\r\n//        uint256 allPayUSd = allPay/1e8;\r\n        allPay = allPay/settlePrice;\r\n        uint256 fee = _collateralPool.addTransactionFee(settlement,allPay,0);\r\n        require(settlementAmount>=allPay+fee,\"settlement asset is insufficient!\");\r\n        settlementAmount = settlementAmount-(allPay+fee);\r\n        if (settlementAmount > 0){\r\n            _collateralPool.transferPayback(msg.sender,settlement,settlementAmount);\r\n        }\r\n        uint256 id =_optionsPool.getOptionInfoLength();\r\n//        _FPTCoin.addMinerBalance(msg.sender,allPayUSd);\r\n        emit BuyOption(msg.sender,settlement,id,optionPrice,allPay,amount); \r\n    }\r\n    /**\r\n    * @dev User sell option.\r\n    * @param optionsId option's ID which was wanted to sell, must owned by user\r\n    * @param amount user input amount of option user want to sell.\r\n    */ \r\n    function sellOption(uint256 optionsId,uint256 amount) nonReentrant notHalted InRange(amount) public{\r\n        (,,uint8 optType,uint32 underlying,uint256 expiration,uint256 strikePrice,) = _optionsPool.getOptionsById(optionsId);\r\n        expiration = expiration.sub(now);\r\n        uint256 currentPrice = oracleUnderlyingPrice(underlying);\r\n        uint256 optPrice = _optionsPrice.getOptionsPrice(currentPrice,strikePrice,expiration,underlying,optType);\r\n        _optionsPool.burnOptions(msg.sender,optionsId,amount,optPrice);\r\n        uint256 allPay = optPrice*amount;\r\n        (address settlement,uint256 fullPay) = _optionsPool.getBurnedFullPay(optionsId,amount);\r\n        _collateralPool.addNetWorthBalance(settlement,int256(fullPay));\r\n        _paybackWorth(allPay,1);\r\n        emit SellOption(msg.sender,optionsId,amount,allPay);\r\n    }\r\n    /**\r\n    * @dev User exercise option.\r\n    * @param optionsId option's ID which was wanted to exercise, must owned by user\r\n    * @param amount user input amount of option user want to exercise.\r\n    */ \r\n    function exerciseOption(uint256 optionsId,uint256 amount) nonReentrant notHalted InRange(amount) public{\r\n        uint256 allPay = _optionsPool.getExerciseWorth(optionsId,amount);\r\n        require(allPay > 0,\"This option cannot exercise\");\r\n        (,,uint8 optType,uint32 underlying,uint256 expiration,uint256 strikePrice,) = _optionsPool.getOptionsById(optionsId);\r\n        expiration = expiration.sub(now);\r\n        uint256 currentPrice = oracleUnderlyingPrice(underlying);\r\n        uint256 optPrice = _optionsPrice.getOptionsPrice(currentPrice,strikePrice,expiration,underlying,optType);\r\n        _optionsPrice.getOptionsPrice(currentPrice,strikePrice,expiration,underlying,optType);\r\n        _optionsPool.burnOptions(msg.sender,optionsId,amount,optPrice);\r\n        (address settlement,uint256 fullPay) = _optionsPool.getBurnedFullPay(optionsId,amount);\r\n        _collateralPool.addNetWorthBalance(settlement,int256(fullPay));\r\n        _paybackWorth(allPay,2);\r\n        emit ExerciseOption(msg.sender,optionsId,amount,allPay);\r\n    }\r\n    function getOptionsPrice(uint256 underlyingPrice, uint256 strikePrice, uint256 expiration,\r\n                    uint32 underlying,uint256 amount,uint8 optType) public view returns(uint256){  \r\n        uint256 buyOccupied = calOptionsOccupied(strikePrice,underlyingPrice,amount,optType);\r\n        require(getAvailableCollateral()>=buyOccupied,\"collateral is insufficient!\");\r\n        uint256 optPrice = _optionsPrice.getOptionsPrice(underlyingPrice,strikePrice,expiration,underlying,optType);\r\n        uint256 selfOccupied = optType == 0 ? _optionsPool.getCallTotalOccupiedCollateral() : _optionsPool.getPutTotalOccupiedCollateral();\r\n        selfOccupied = calculateCollateral(selfOccupied) + buyOccupied;\r\n        uint256 totalOccupied = getOccupiedCollateral() + buyOccupied;\r\n        uint256 totalCollateral = getUnlockedCollateral();\r\n        uint256 ratio = _optionsPrice.calOptionsPriceRatio(selfOccupied,totalOccupied,totalCollateral);\r\n        return (optPrice*ratio)>>32;\r\n    }\r\n    function _getOptionsPriceRate(uint256 underlyingPrice, uint256 strikePrice,uint256 amount,uint8 optType) internal view returns(uint256){\r\n        (uint256 totalCollateral,uint256 rate) = getCollateralAndRate();\r\n        uint256 lockedWorth = _FPTCoin.getTotalLockedWorth();\r\n        require(totalCollateral>=lockedWorth,\"collateral is insufficient!\");\r\n        totalCollateral = totalCollateral - lockedWorth;\r\n        uint256 buyOccupied = ((optType == 0) == (strikePrice>underlyingPrice)) ? strikePrice*amount:underlyingPrice*amount;\r\n        uint256 callCollateral = _optionsPool.getCallTotalOccupiedCollateral();\r\n        uint256 putCollateral = _optionsPool.getPutTotalOccupiedCollateral();\r\n        uint256 totalOccupied = (callCollateral + putCollateral + buyOccupied)*rate/1000;\r\n        buyOccupied = ((optType == 0 ? callCollateral : putCollateral) + buyOccupied)*rate/1000;\r\n        require(totalCollateral>=totalOccupied,\"collateral is insufficient!\");\r\n        return calOptionsPriceRatio(buyOccupied,totalOccupied,totalCollateral);\r\n    }\r\n    function calOptionsPriceRatio(uint256 selfOccupied,uint256 totalOccupied,uint256 totalCollateral) internal pure returns (uint256){\r\n        //r1 + 0.5\r\n        if (selfOccupied*2<=totalOccupied){\r\n            return 4294967296;\r\n        }\r\n        uint256 r1 = (selfOccupied<<32)/totalOccupied+2147483648;\r\n        uint256 r2 = totalOccupied/totalCollateral;\r\n        //r1*r2*1.5\r\n        r1 = (r1*r2*3/2)>>32;\r\n        return ((r1*r1*r1)>>64)+4294967296;\r\n    //        return SmallNumbers.pow(r1,r2);\r\n    }\r\n}\r\n",
  "sourcePath": "C:\\work\\solidity\\FinnexusOptions_V2\\contracts\\OptionsManager\\OptionsManagerV2.sol",
  "compiler": {
    "name": "solc",
    "version": "0.5.16+commit.9c3226ce.Emscripten.clang"
  },
  "schemaVersion": "3.1.0",
  "updatedAt": "2020-10-21T03:26:50.378Z",
  "devdoc": {
    "details": "A Smart-contract to manage Options pool, collatral pool, mine pool, FPTCoin, etc.  ",
    "methods": {
      "addCollateral(address,uint256)": {
        "details": "Deposit collateral in this pool from user.",
        "params": {
          "amount": "the amount of collateral to deposit.",
          "collateral": "The collateral coin address which is in whitelist."
        }
      },
      "addWhiteList(address)": {
        "details": "Implementation of add an eligible address into the whitelist.",
        "params": {
          "addAddress": "new eligible address."
        }
      },
      "buyOption(address,uint256,uint256,uint32,uint256,uint256,uint8)": {
        "details": "user buy option and create new option.",
        "params": {
          "amount": "user input amount of new option user want to buy.",
          "expiration": "user input expiration,time limit from now",
          "optType": "user input option type",
          "settlement": "user's settement coin address",
          "settlementAmount": "amount of settlement user want fo pay.",
          "strikePrice": "user input option's strike price",
          "underlying": "user input option's underlying id, 1 for BTC,2 for ETH"
        }
      },
      "calCollateralWorth(address)": {
        "details": "Retrieve user's collateral worth in all collateral coin.  If user want to redeem all his collateral,and the vacant collateral is sufficient, He can redeem each collateral amount in return list.",
        "params": {
          "account": "the retrieve user's account;"
        }
      },
      "calOptionsOccupied(uint256,uint256,uint256,uint8)": {
        "details": "The auxiliary function for calculate option occupied. ",
        "params": {
          "amount": "option's amount",
          "optType": "option's type, 0 for call, 1 for put.",
          "strikePrice": "option's strike price",
          "underlyingPrice": "option's underlying price"
        }
      },
      "calculateCollateralRate()": {
        "details": "collateral occupation rate calculation     collateral occupation rate = sum(collateral Rate * collateral balance) / sum(collateral balance)"
      },
      "constructor": {
        "details": "Options manager constructor. set other contract address",
        "params": {
          "FPTCoinAddr": "FPTCoin contract address",
          "optionsPoolAddr": "optoins pool contract address",
          "optionsPriceAddr": "options price contract address",
          "oracleAddr": "fnx oracle contract address."
        }
      },
      "exerciseOption(uint256,uint256)": {
        "details": "User exercise option.",
        "params": {
          "amount": "user input amount of option user want to exercise.",
          "optionsId": "option's ID which was wanted to exercise, must owned by user"
        }
      },
      "getAvailableCollateral()": {
        "details": "Retrieve the available collateral worth, the worth of collateral which can used for buy options, priced in USD. "
      },
      "getCollateralRate(address)": {
        "details": "Get the minimum collateral occupation rate."
      },
      "getInputAmountRange()": {
        "details": "get the valid range of input amount"
      },
      "getLeftCollateral()": {
        "details": "Retrieve the left collateral worth, the worth of collateral which can used for redeem collateral, priced in USD. "
      },
      "getOccupiedCollateral()": {
        "details": "Retrieve the occupied collateral worth, multiplied by minimum collateral rate, priced in USD. "
      },
      "getPriceRateRange()": {
        "details": "retrieve input price valid range rate, thousandths."
      },
      "getRealBalance(address)": {
        "details": "Retrieve the balance of collateral, the auxiliary function for the total collateral calculation. "
      },
      "getTokenNetworth()": {
        "details": "Retrieve FPTCoin's net worth, priced in USD."
      },
      "getTotalCollateral()": {
        "details": "Retrieve the total collateral worth, priced in USD. "
      },
      "getUnlockedCollateral()": {
        "details": "Retrieve the unlocked collateral worth, the worth of collateral which currently used for options, priced in USD. "
      },
      "getUserPayingUsd(address)": {
        "details": "Retrieve user's cost of collateral, priced in USD.",
        "params": {
          "user": "input retrieved account "
        }
      },
      "getUserTotalWorth(address)": {
        "details": "Retrieve user's current total worth, priced in USD.",
        "params": {
          "account": "input retrieve account"
        }
      },
      "getWhiteList()": {
        "details": "Implementation of getting the eligible whitelist."
      },
      "isEligibleAddress(address)": {
        "details": "Implementation of testing whether the input address is eligible.",
        "params": {
          "tmpAddress": "input address for testing."
        }
      },
      "isInputAmountInRange(uint256)": {
        "details": "Determine whether the input amount is within the valid range",
        "params": {
          "Amount": "Test value which is user input"
        }
      },
      "isOwner()": {
        "details": "Returns true if the caller is the current owner."
      },
      "owner()": {
        "details": "Returns the address of the current owner."
      },
      "redeemCollateral(uint256,address)": {
        "details": "redeem collateral from this pool, user can input the prioritized collateral,he will get this coin, if this coin is unsufficient, he will get others collateral which in whitelist.",
        "params": {
          "collateral": "The prioritized collateral coin address.",
          "tokenAmount": "the amount of FPTCoin want to redeem."
        }
      },
      "removeWhiteList(address)": {
        "details": "Implementation of revoke an invalid address from the whitelist.",
        "params": {
          "removeAddress": "revoked address."
        }
      },
      "renounceOwnership()": {
        "details": "Leaves the contract without owner. It will not be possible to call `onlyOwner` functions anymore. Can only be called by the current owner.      * NOTE: Renouncing ownership will leave the contract without an owner, thereby removing any functionality that is only available to the owner."
      },
      "sellOption(uint256,uint256)": {
        "details": "User sell option.",
        "params": {
          "amount": "user input amount of option user want to sell.",
          "optionsId": "option's ID which was wanted to sell, must owned by user"
        }
      },
      "setCollateralRate(address,uint256)": {
        "details": "The foundation owner want to set the minimum collateral occupation rate.",
        "params": {
          "colRate": "The thousandths of the minimum collateral occupation rate.",
          "collateral": "collateral coin address"
        }
      },
      "setInputAmountRange(uint256,uint256)": {
        "details": "set the valid range of input amount",
        "params": {
          "_maxAmount": "the maximum input amount limit",
          "_minAmount": "the minimum input amount limit"
        }
      },
      "setPriceRateRange(uint256,uint256)": {
        "details": "set input price valid range rate, thousandths."
      },
      "transferOwnership(address)": {
        "details": "Transfers ownership of the contract to a new account (`newOwner`). Can only be called by the current owner."
      },
      "userInputCollateral(address,address)": {
        "details": "Retrieve user's amount of the specified collateral.",
        "params": {
          "collateral": "input retrieved collateral coin address ",
          "user": "input retrieved account "
        }
      }
    },
    "title": "Options manager contract for finnexus proposal v2."
  },
  "userdoc": {
    "methods": {
      "approve(address,uint256)": {
        "notice": "     * Requirements:      * - `spender` cannot be the zero address."
      },
      "setHalt(bool)": {
        "notice": "function Emergency situation that requires contribution period to stop or not."
      }
    }
  }
}