{
  "contractName": "OptionsBase",
  "abi": [
    {
      "inputs": [],
      "payable": false,
      "stateMutability": "nonpayable",
      "type": "constructor"
    },
    {
      "anonymous": false,
      "inputs": [
        {
          "indexed": true,
          "internalType": "address",
          "name": "owner",
          "type": "address"
        },
        {
          "indexed": true,
          "internalType": "uint256",
          "name": "optionID",
          "type": "uint256"
        },
        {
          "indexed": false,
          "internalType": "uint256",
          "name": "amount",
          "type": "uint256"
        }
      ],
      "name": "BurnOption",
      "type": "event"
    },
    {
      "anonymous": false,
      "inputs": [
        {
          "indexed": true,
          "internalType": "address",
          "name": "owner",
          "type": "address"
        },
        {
          "indexed": true,
          "internalType": "uint256",
          "name": "optionID",
          "type": "uint256"
        },
        {
          "indexed": false,
          "internalType": "uint8",
          "name": "optType",
          "type": "uint8"
        },
        {
          "indexed": false,
          "internalType": "uint32",
          "name": "underlying",
          "type": "uint32"
        },
        {
          "indexed": false,
          "internalType": "uint256",
          "name": "expiration",
          "type": "uint256"
        },
        {
          "indexed": false,
          "internalType": "uint256",
          "name": "strikePrice",
          "type": "uint256"
        },
        {
          "indexed": false,
          "internalType": "uint256",
          "name": "amount",
          "type": "uint256"
        }
      ],
      "name": "CreateOption",
      "type": "event"
    },
    {
      "anonymous": false,
      "inputs": [
        {
          "indexed": true,
          "internalType": "address",
          "name": "previousOwner",
          "type": "address"
        },
        {
          "indexed": true,
          "internalType": "address",
          "name": "newOwner",
          "type": "address"
        }
      ],
      "name": "OwnershipTransferred",
      "type": "event"
    },
    {
      "constant": false,
      "inputs": [
        {
          "internalType": "address",
          "name": "addAddress",
          "type": "address"
        }
      ],
      "name": "addOperator",
      "outputs": [],
      "payable": false,
      "stateMutability": "nonpayable",
      "type": "function"
    },
    {
      "constant": false,
      "inputs": [
        {
          "internalType": "uint32",
          "name": "underlying",
          "type": "uint32"
        }
      ],
      "name": "addUnderlyingAsset",
      "outputs": [],
      "payable": false,
      "stateMutability": "nonpayable",
      "type": "function"
    },
    {
      "constant": true,
      "inputs": [],
      "name": "getManager",
      "outputs": [
        {
          "internalType": "address",
          "name": "",
          "type": "address"
        }
      ],
      "payable": false,
      "stateMutability": "view",
      "type": "function"
    },
    {
      "constant": true,
      "inputs": [],
      "name": "getOperator",
      "outputs": [
        {
          "internalType": "address[]",
          "name": "",
          "type": "address[]"
        }
      ],
      "payable": false,
      "stateMutability": "view",
      "type": "function"
    },
    {
      "constant": true,
      "inputs": [],
      "name": "getOptionsPriceAddress",
      "outputs": [
        {
          "internalType": "address",
          "name": "",
          "type": "address"
        }
      ],
      "payable": false,
      "stateMutability": "view",
      "type": "function"
    },
    {
      "constant": true,
      "inputs": [],
      "name": "getOracleAddress",
      "outputs": [
        {
          "internalType": "address",
          "name": "",
          "type": "address"
        }
      ],
      "payable": false,
      "stateMutability": "view",
      "type": "function"
    },
    {
      "constant": true,
      "inputs": [],
      "name": "getUnderlyingAssets",
      "outputs": [
        {
          "internalType": "uint32[]",
          "name": "",
          "type": "uint32[]"
        }
      ],
      "payable": false,
      "stateMutability": "view",
      "type": "function"
    },
    {
      "constant": true,
      "inputs": [],
      "name": "getVolatilityAddress",
      "outputs": [
        {
          "internalType": "address",
          "name": "",
          "type": "address"
        }
      ],
      "payable": false,
      "stateMutability": "view",
      "type": "function"
    },
    {
      "constant": true,
      "inputs": [
        {
          "internalType": "uint32",
          "name": "underlying",
          "type": "uint32"
        }
      ],
      "name": "isEligibleUnderlyingAsset",
      "outputs": [
        {
          "internalType": "bool",
          "name": "",
          "type": "bool"
        }
      ],
      "payable": false,
      "stateMutability": "view",
      "type": "function"
    },
    {
      "constant": true,
      "inputs": [],
      "name": "isOwner",
      "outputs": [
        {
          "internalType": "bool",
          "name": "",
          "type": "bool"
        }
      ],
      "payable": false,
      "stateMutability": "view",
      "type": "function"
    },
    {
      "constant": true,
      "inputs": [],
      "name": "owner",
      "outputs": [
        {
          "internalType": "address",
          "name": "",
          "type": "address"
        }
      ],
      "payable": false,
      "stateMutability": "view",
      "type": "function"
    },
    {
      "constant": false,
      "inputs": [
        {
          "internalType": "address",
          "name": "removeAddress",
          "type": "address"
        }
      ],
      "name": "removeOperator",
      "outputs": [
        {
          "internalType": "bool",
          "name": "",
          "type": "bool"
        }
      ],
      "payable": false,
      "stateMutability": "nonpayable",
      "type": "function"
    },
    {
      "constant": false,
      "inputs": [
        {
          "internalType": "uint32",
          "name": "removeUnderlying",
          "type": "uint32"
        }
      ],
      "name": "removeUnderlyingAssets",
      "outputs": [
        {
          "internalType": "bool",
          "name": "",
          "type": "bool"
        }
      ],
      "payable": false,
      "stateMutability": "nonpayable",
      "type": "function"
    },
    {
      "constant": false,
      "inputs": [],
      "name": "renounceOwnership",
      "outputs": [],
      "payable": false,
      "stateMutability": "nonpayable",
      "type": "function"
    },
    {
      "constant": false,
      "inputs": [
        {
          "internalType": "address",
          "name": "managerAddress",
          "type": "address"
        }
      ],
      "name": "setManager",
      "outputs": [],
      "payable": false,
      "stateMutability": "nonpayable",
      "type": "function"
    },
    {
      "constant": false,
      "inputs": [
        {
          "internalType": "address[]",
          "name": "operators",
          "type": "address[]"
        }
      ],
      "name": "setOperator",
      "outputs": [],
      "payable": false,
      "stateMutability": "nonpayable",
      "type": "function"
    },
    {
      "constant": false,
      "inputs": [
        {
          "internalType": "uint256",
          "name": "index",
          "type": "uint256"
        },
        {
          "internalType": "address",
          "name": "addAddress",
          "type": "address"
        }
      ],
      "name": "setOperator",
      "outputs": [],
      "payable": false,
      "stateMutability": "nonpayable",
      "type": "function"
    },
    {
      "constant": false,
      "inputs": [
        {
          "internalType": "address",
          "name": "optionsPrice",
          "type": "address"
        }
      ],
      "name": "setOptionsPriceAddress",
      "outputs": [],
      "payable": false,
      "stateMutability": "nonpayable",
      "type": "function"
    },
    {
      "constant": false,
      "inputs": [
        {
          "internalType": "address",
          "name": "oracle",
          "type": "address"
        }
      ],
      "name": "setOracleAddress",
      "outputs": [],
      "payable": false,
      "stateMutability": "nonpayable",
      "type": "function"
    },
    {
      "constant": false,
      "inputs": [
        {
          "internalType": "address",
          "name": "volatility",
          "type": "address"
        }
      ],
      "name": "setVolatilityAddress",
      "outputs": [],
      "payable": false,
      "stateMutability": "nonpayable",
      "type": "function"
    },
    {
      "constant": false,
      "inputs": [
        {
          "internalType": "address",
          "name": "newOwner",
          "type": "address"
        }
      ],
      "name": "transferOwnership",
      "outputs": [],
      "payable": false,
      "stateMutability": "nonpayable",
      "type": "function"
    },
    {
      "constant": false,
      "inputs": [],
      "name": "initialize",
      "outputs": [],
      "payable": false,
      "stateMutability": "nonpayable",
      "type": "function"
    },
    {
      "constant": true,
      "inputs": [],
      "name": "getBurnTimeLimit",
      "outputs": [
        {
          "internalType": "uint256",
          "name": "",
          "type": "uint256"
        }
      ],
      "payable": false,
      "stateMutability": "view",
      "type": "function"
    },
    {
      "constant": false,
      "inputs": [
        {
          "internalType": "uint256",
          "name": "timeLimit",
          "type": "uint256"
        }
      ],
      "name": "setBurnTimeLimit",
      "outputs": [],
      "payable": false,
      "stateMutability": "nonpayable",
      "type": "function"
    },
    {
      "constant": true,
      "inputs": [
        {
          "internalType": "address",
          "name": "user",
          "type": "address"
        }
      ],
      "name": "getUserOptionsID",
      "outputs": [
        {
          "internalType": "uint256[]",
          "name": "",
          "type": "uint256[]"
        }
      ],
      "payable": false,
      "stateMutability": "view",
      "type": "function"
    },
    {
      "constant": true,
      "inputs": [
        {
          "internalType": "address",
          "name": "user",
          "type": "address"
        },
        {
          "internalType": "uint256",
          "name": "from",
          "type": "uint256"
        },
        {
          "internalType": "uint256",
          "name": "size",
          "type": "uint256"
        }
      ],
      "name": "getUserOptionsID",
      "outputs": [
        {
          "internalType": "uint256[]",
          "name": "",
          "type": "uint256[]"
        }
      ],
      "payable": false,
      "stateMutability": "view",
      "type": "function"
    },
    {
      "constant": true,
      "inputs": [],
      "name": "getOptionInfoLength",
      "outputs": [
        {
          "internalType": "uint256",
          "name": "",
          "type": "uint256"
        }
      ],
      "payable": false,
      "stateMutability": "view",
      "type": "function"
    },
    {
      "constant": true,
      "inputs": [
        {
          "internalType": "uint256",
          "name": "from",
          "type": "uint256"
        },
        {
          "internalType": "uint256",
          "name": "size",
          "type": "uint256"
        }
      ],
      "name": "getOptionInfoList",
      "outputs": [
        {
          "internalType": "address[]",
          "name": "",
          "type": "address[]"
        },
        {
          "internalType": "uint256[]",
          "name": "",
          "type": "uint256[]"
        },
        {
          "internalType": "uint256[]",
          "name": "",
          "type": "uint256[]"
        },
        {
          "internalType": "uint256[]",
          "name": "",
          "type": "uint256[]"
        },
        {
          "internalType": "uint256[]",
          "name": "",
          "type": "uint256[]"
        }
      ],
      "payable": false,
      "stateMutability": "view",
      "type": "function"
    },
    {
      "constant": true,
      "inputs": [
        {
          "internalType": "uint256[]",
          "name": "ids",
          "type": "uint256[]"
        }
      ],
      "name": "getOptionInfoListFromID",
      "outputs": [
        {
          "internalType": "address[]",
          "name": "",
          "type": "address[]"
        },
        {
          "internalType": "uint256[]",
          "name": "",
          "type": "uint256[]"
        },
        {
          "internalType": "uint256[]",
          "name": "",
          "type": "uint256[]"
        },
        {
          "internalType": "uint256[]",
          "name": "",
          "type": "uint256[]"
        },
        {
          "internalType": "uint256[]",
          "name": "",
          "type": "uint256[]"
        }
      ],
      "payable": false,
      "stateMutability": "view",
      "type": "function"
    },
    {
      "constant": true,
      "inputs": [
        {
          "internalType": "uint256",
          "name": "optionsId",
          "type": "uint256"
        }
      ],
      "name": "getOptionsLimitTimeById",
      "outputs": [
        {
          "internalType": "uint256",
          "name": "",
          "type": "uint256"
        }
      ],
      "payable": false,
      "stateMutability": "view",
      "type": "function"
    },
    {
      "constant": true,
      "inputs": [
        {
          "internalType": "uint256",
          "name": "optionsId",
          "type": "uint256"
        }
      ],
      "name": "getOptionsById",
      "outputs": [
        {
          "internalType": "uint256",
          "name": "",
          "type": "uint256"
        },
        {
          "internalType": "address",
          "name": "",
          "type": "address"
        },
        {
          "internalType": "uint8",
          "name": "",
          "type": "uint8"
        },
        {
          "internalType": "uint32",
          "name": "",
          "type": "uint32"
        },
        {
          "internalType": "uint256",
          "name": "",
          "type": "uint256"
        },
        {
          "internalType": "uint256",
          "name": "",
          "type": "uint256"
        },
        {
          "internalType": "uint256",
          "name": "",
          "type": "uint256"
        }
      ],
      "payable": false,
      "stateMutability": "view",
      "type": "function"
    },
    {
      "constant": true,
      "inputs": [
        {
          "internalType": "uint256",
          "name": "optionsId",
          "type": "uint256"
        }
      ],
      "name": "getOptionsExtraById",
      "outputs": [
        {
          "internalType": "uint256",
          "name": "",
          "type": "uint256"
        },
        {
          "internalType": "address",
          "name": "",
          "type": "address"
        },
        {
          "internalType": "uint256",
          "name": "",
          "type": "uint256"
        },
        {
          "internalType": "uint256",
          "name": "",
          "type": "uint256"
        },
        {
          "internalType": "uint256",
          "name": "",
          "type": "uint256"
        },
        {
          "internalType": "uint256",
          "name": "",
          "type": "uint256"
        },
        {
          "internalType": "uint256",
          "name": "",
          "type": "uint256"
        }
      ],
      "payable": false,
      "stateMutability": "view",
      "type": "function"
    },
    {
      "constant": true,
      "inputs": [
        {
          "internalType": "uint256",
          "name": "optionsId",
          "type": "uint256"
        },
        {
          "internalType": "uint256",
          "name": "amount",
          "type": "uint256"
        }
      ],
      "name": "getExerciseWorth",
      "outputs": [
        {
          "internalType": "uint256",
          "name": "",
          "type": "uint256"
        }
      ],
      "payable": false,
      "stateMutability": "view",
      "type": "function"
    },
    {
      "constant": true,
      "inputs": [
        {
          "internalType": "uint256",
          "name": "expiration",
          "type": "uint256"
        },
        {
          "internalType": "uint32",
          "name": "underlying",
          "type": "uint32"
        }
      ],
      "name": "buyOptionCheck",
      "outputs": [],
      "payable": false,
      "stateMutability": "view",
      "type": "function"
    },
    {
      "constant": false,
      "inputs": [
        {
          "internalType": "uint256",
          "name": "expiration",
          "type": "uint256"
        }
      ],
      "name": "addExpiration",
      "outputs": [],
      "payable": false,
      "stateMutability": "nonpayable",
      "type": "function"
    },
    {
      "constant": false,
      "inputs": [
        {
          "internalType": "uint256",
          "name": "removeExpiration",
          "type": "uint256"
        }
      ],
      "name": "removeExpirationList",
      "outputs": [
        {
          "internalType": "bool",
          "name": "",
          "type": "bool"
        }
      ],
      "payable": false,
      "stateMutability": "nonpayable",
      "type": "function"
    },
    {
      "constant": true,
      "inputs": [],
      "name": "getExpirationList",
      "outputs": [
        {
          "internalType": "uint256[]",
          "name": "",
          "type": "uint256[]"
        }
      ],
      "payable": false,
      "stateMutability": "view",
      "type": "function"
    },
    {
      "constant": true,
      "inputs": [
        {
          "internalType": "uint256",
          "name": "expiration",
          "type": "uint256"
        }
      ],
      "name": "isEligibleExpiration",
      "outputs": [
        {
          "internalType": "bool",
          "name": "",
          "type": "bool"
        }
      ],
      "payable": false,
      "stateMutability": "view",
      "type": "function"
    },
    {
      "constant": true,
      "inputs": [
        {
          "internalType": "uint256",
          "name": "expiration",
          "type": "uint256"
        }
      ],
      "name": "checkExpiration",
      "outputs": [],
      "payable": false,
      "stateMutability": "view",
      "type": "function"
    },
    {
      "constant": true,
      "inputs": [
        {
          "internalType": "uint256",
          "name": "optionID",
          "type": "uint256"
        },
        {
          "internalType": "uint256",
          "name": "amount",
          "type": "uint256"
        }
      ],
      "name": "getBurnedFullPay",
      "outputs": [
        {
          "internalType": "address",
          "name": "",
          "type": "address"
        },
        {
          "internalType": "uint256",
          "name": "",
          "type": "uint256"
        }
      ],
      "payable": false,
      "stateMutability": "view",
      "type": "function"
    }
  ],
  "bytecode": "0x6080604052610e10600b553480156200001757600080fd5b506200002b64010000000062000031810204565b620001fb565b6040805160e0810182526201518081526203f480602082015262093a8091810191909152620d2f0060608201526213c680608082015262278d0060a08201526276a70060c08201526200008990600a906007620000b1565b50604080518082019091526001808252600260208301819052620000ae929062000108565b50565b828054828255906000526020600020908101928215620000f6579160200282015b82811115620000f6578251829062ffffff16905591602001919060010190620000d2565b5062000104929150620001b7565b5090565b82805482825590600052602060002090600701600890048101928215620001a95791602002820160005b838211156200017557835183826101000a81548163ffffffff021916908360ff160217905550926020019260040160208160030104928301926001030262000132565b8015620001a75782816101000a81549063ffffffff021916905560040160208160030104928301926001030262000175565b505b5062000104929150620001d7565b620001d491905b80821115620001045760008155600101620001be565b90565b620001d491905b808211156200010457805463ffffffff19168155600101620001de565b612809806200020b6000396000f3fe608060405234801561001057600080fd5b506004361061024c5760003560e060020a900480638da5cb5b1161013f578063c5acbe15116100bc578063e7a1c1c011610080578063e7a1c1c014610964578063e7c5681514610990578063e7f43c68146109b6578063f2fde38b146109be578063f7de1923146109e45761024c565b8063c5acbe15146108d3578063d0ebdbe7146108f0578063d500958414610916578063d6d140121461091e578063db6ad2bd146109415761024c565b8063a093e2d011610103578063a093e2d014610854578063ac8a584a1461087a578063afec82fc146108a0578063b18b78dd146108c3578063bec3107f146108cb5761024c565b80638da5cb5b146107f95780638f32d59b146108015780639052d5f8146108095780639870d7fe146108115780639ef975d2146108375761024c565b8063597ce900116101cd578063715018a611610191578063715018a61461077e578063723931ca146107865780637cfff2d8146107a35780637e838fa3146107c05780638129fc1c146107f15761024c565b8063597ce900146106d65780635ca4b73b1461071c57806364ed30171461072457806367b8ceb91461073e5780636d84e2e3146107615761024c565b80633ad2fb57116102145780633ad2fb571461055c57806342082c1e1461058557806342e5479d1461062857806348ee201d1461064c5780634c69c00f146106b05761024c565b80630438d4901461025157806307af1478146103dc5780632967eafe14610439578063354af360146104615780633582d78914610504575b600080fd5b6102746004803603604081101561026757600080fd5b5080359060200135610a16565b60405180806020018060200180602001806020018060200186810386528b818151815260200191508051906020019060200280838360005b838110156102c45781810151838201526020016102ac565b5050505090500186810385528a818151815260200191508051906020019060200280838360005b838110156103035781810151838201526020016102eb565b50505050905001868103845289818151815260200191508051906020019060200280838360005b8381101561034257818101518382015260200161032a565b50505050905001868103835288818151815260200191508051906020019060200280838360005b83811015610381578181015183820152602001610369565b50505050905001868103825287818151815260200191508051906020019060200280838360005b838110156103c05781810151838201526020016103a8565b505050509050019a505050505050505050505060405180910390f35b6103f9600480360360208110156103f257600080fd5b5035610c50565b60408051978852600160a060020a039096166020880152868601949094526060860192909252608085015260a084015260c0830152519081900360e00190f35b61045f6004803603602081101561044f57600080fd5b5035600160a060020a0316610d0e565b005b6102746004803603602081101561047757600080fd5b81019060208101813564010000000081111561049257600080fd5b8201836020820111156104a457600080fd5b803590602001918460208302840111640100000000831117156104c657600080fd5b919080806020026020016040519081016040528093929190818152602001838360200280828437600092019190915250929550610d7a945050505050565b61050c610f8d565b60408051602080825283518183015283519192839290830191858101910280838360005b83811015610548578181015183820152602001610530565b505050509050019250505060405180910390f35b61045f6004803603604081101561057257600080fd5b508035906020013563ffffffff16611012565b61045f6004803603602081101561059b57600080fd5b8101906020810181356401000000008111156105b657600080fd5b8201836020820111156105c857600080fd5b803590602001918460208302840111640100000000831117156105ea57600080fd5b91908080602002602001604051908101604052809392919081815260200183836020028082843760009201919091525092955061107c945050505050565b6106306110d9565b60408051600160a060020a039092168252519081900360200190f35b6106696004803603602081101561066257600080fd5b50356110e8565b60408051978852600160a060020a03909616602088015260ff9094168686015263ffffffff9092166060860152608085015260a084015260c0830152519081900360e00190f35b61045f600480360360208110156106c657600080fd5b5035600160a060020a031661115c565b6106f9600480360360408110156106ec57600080fd5b50803590602001356111c8565b60408051600160a060020a03909316835260208301919091528051918290030190f35b610630611236565b61072c611245565b60408051918252519081900360200190f35b61072c6004803603604081101561075457600080fd5b508035906020013561124b565b61072c6004803603602081101561077757600080fd5b50356113cb565b61045f611450565b61045f6004803603602081101561079c57600080fd5b50356114e4565b61045f600480360360208110156107b957600080fd5b503561152e565b6107dd600480360360208110156107d657600080fd5b5035611589565b604080519115158252519081900360200190f35b61045f6115e6565b61063061165f565b6107dd61166e565b61050c61167f565b61045f6004803603602081101561082757600080fd5b5035600160a060020a03166116d6565b6107dd6004803603602081101561084d57600080fd5b5035611731565b61045f6004803603602081101561086a57600080fd5b5035600160a060020a0316611796565b6107dd6004803603602081101561089057600080fd5b5035600160a060020a0316611802565b61045f600480360360208110156108b657600080fd5b503563ffffffff1661185f565b6106306118ba565b61072c6118c9565b61045f600480360360208110156108e957600080fd5b50356118cf565b61045f6004803603602081101561090657600080fd5b5035600160a060020a031661191e565b61063061198a565b6107dd6004803603602081101561093457600080fd5b503563ffffffff16611999565b6107dd6004803603602081101561095757600080fd5b503563ffffffff166119f6565b61045f6004803603604081101561097a57600080fd5b5080359060200135600160a060020a0316611a87565b61050c600480360360208110156109a657600080fd5b5035600160a060020a0316611b11565b61050c611b7d565b61045f600480360360208110156109d457600080fd5b5035600160a060020a0316611bde565b61050c600480360360608110156109fa57600080fd5b50600160a060020a038135169060208101359060400135611c31565b60608060608060606007805490508688011115610a4357600754610a40908863ffffffff611d1616565b95505b8515610c4657606086604051908082528060200260200182016040528015610a75578160200160208202803883390190505b509050606087604051908082528060200260200182016040528015610aa4578160200160208202803883390190505b509050606088604051908082528060200260200182016040528015610ad3578160200160208202803883390190505b509050606089604051908082528060200260200182016040528015610b02578160200160208202803883390190505b50905060608a604051908082528060200260200182016040528015610b31578160200160208202803883390190505b50905060005b8b811015610c385760006007828f0181548110610b5057fe5b906000526020600020906005020190508060000160089054906101000a9004600160a060020a0316878381518110610b8457fe5b600160a060020a03929092166020928302919091019091015280546001820154875160e060020a90920460ff1663ffffffff9182166201000002011690879084908110610bcd57fe5b6020026020010181815250508060020154858381518110610bea57fe5b6020026020010181815250508060030154848381518110610c0757fe5b6020026020010181815250508060040154838381518110610c2457fe5b602090810291909101015250600101610b37565b509398509196509450925090505b9295509295909350565b60008060008060008060008088118015610c6c57506007548811155b610cc0576040805160e560020a62461bcd02815260206004820152601660248201527f6f7074696f6e206964206973206e6f7420657869737400000000000000000000604482015290519081900360640190fd5b5050506000948552505060086020525050604090208054600182015460028301546003840154600485015460058601546006909601549496600160a060020a03909416959294919390929190565b610d1661166e565b610d58576040805160e560020a62461bcd0281526020600482018190526024820152600080516020612794833981519152604482015290519081900360640190fd5b60048054600160a060020a031916600160a060020a0392909216919091179055565b6060806060806060600086519050606081604051908082528060200260200182016040528015610db4578160200160208202803883390190505b509050606082604051908082528060200260200182016040528015610de3578160200160208202803883390190505b509050606083604051908082528060200260200182016040528015610e12578160200160208202803883390190505b509050606084604051908082528060200260200182016040528015610e41578160200160208202803883390190505b509050606085604051908082528060200260200182016040528015610e70578160200160208202803883390190505b50905060005b86811015610f79576000610e9c8e8381518110610e8f57fe5b6020026020010151611d71565b80548851919250680100000000000000009004600160a060020a031690889084908110610ec557fe5b600160a060020a03929092166020928302919091019091015280546001820154875160e060020a90920460ff1663ffffffff9182166201000002011690879084908110610f0e57fe5b6020026020010181815250508060020154858381518110610f2b57fe5b6020026020010181815250508060030154848381518110610f4857fe5b6020026020010181815250508060040154838381518110610f6557fe5b602090810291909101015250600101610e76565b50939b929a50909850965090945092505050565b6060600180548060200260200160405190810160405280929190818152602001828054801561100757602002820191906000526020600020906000905b82829054906101000a900463ffffffff1663ffffffff1681526020019060040190602082600301049283019260010382029150808411610fca5790505b505050505090505b90565b61101b816119f6565b61106f576040805160e560020a62461bcd02815260206004820152601f60248201527f756e6465726c79696e6720697320756e737570706f7274656420617373657400604482015290519081900360640190fd5b611078826114e4565b5050565b61108461166e565b6110c6576040805160e560020a62461bcd0281526020600482018190526024820152600080516020612794833981519152604482015290519081900360640190fd5b80516110789060069060208401906124f9565b600454600160a060020a031690565b6000806000806000806000806110fd89611d71565b805460018201546002830154600384015460049094015467ffffffffffffffff84169e680100000000000000008504600160a060020a03169e5060e060020a90940460ff169c5063ffffffff9092169a50985091965090945092505050565b61116461166e565b6111a6576040805160e560020a62461bcd0281526020600482018190526024820152600080516020612794833981519152604482015290519081900360640190fd5b60038054600160a060020a031916600160a060020a0392909216919091179055565b60001982016000908152600860205260408120600181015460028201546004830154849392600160a060020a031691670de0b6b3a7640000916112229188916112169163ffffffff611dfd16565b9063ffffffff611dfd16565b8161122957fe5b0492509250509250929050565b600554600160a060020a031690565b600b5490565b600061125561255e565b61125e84611d71565b6040805160e081018252825467ffffffffffffffff81168252680100000000000000008104600160a060020a0316602083015260e060020a900460ff1691810191909152600182015463ffffffff16606082015260028201546080820152600382015460a082015260049091015460c082015290506112dc81611e56565b6112e68184611eb1565b6003546060820151604080517fda66325700000000000000000000000000000000000000000000000000000000815263ffffffff909216600483015251600092600160a060020a03169163da663257916024808301926020929190829003018186803b15801561135557600080fd5b505afa158015611369573d6000803e3d6000fd5b505050506040513d602081101561137f57600080fd5b5051604083015160a084015191925060009161139c919084611f0d565b9050806113af57600093505050506113c5565b6113bf818663ffffffff611dfd16565b93505050505b92915050565b600080821180156113de57506007548211155b611432576040805160e560020a62461bcd02815260206004820152601660248201527f6f7074696f6e206964206973206e6f7420657869737400000000000000000000604482015290519081900360640190fd5b50600b54600019820160009081526008602052604090205401919050565b61145861166e565b61149a576040805160e560020a62461bcd0281526020600482018190526024820152600080516020612794833981519152604482015290519081900360640190fd5b60008054604051600160a060020a03909116907f8be0079c531659141344cd1fd0a4f28419497f9722a3daafe3b4186f6b6457e0908390a360008054600160a060020a0319169055565b6114ed81611731565b61152b5760405160e560020a62461bcd0281526004018080602001828103825260218152602001806127b46021913960400191505060405180910390fd5b50565b61153661166e565b611578576040805160e560020a62461bcd0281526020600482018190526024820152600080516020612794833981519152604482015290519081900360640190fd5b61152b600a8263ffffffff611f4116565b600061159361166e565b6115d5576040805160e560020a62461bcd0281526020600482018190526024820152600080516020612794833981519152604482015290519081900360640190fd5b6113c5600a8363ffffffff611fb616565b6040805160e0810182526201518081526203f480602082015262093a8091810191909152620d2f0060608201526213c680608082015262278d0060a08201526276a70060c082015261163c90600a90600761259a565b5060408051808201909152600180825260026020830181905261152b92906125e8565b600054600160a060020a031690565b600054600160a060020a0316331490565b6060600a80548060200260200160405190810160405280929190818152602001828054801561100757602002820191906000526020600020905b8154815260200190600101908083116116b9575050505050905090565b6116de61166e565b611720576040805160e560020a62461bcd0281526020600482018190526024820152600080516020612794833981519152604482015290519081900360640190fd5b61152b60068263ffffffff61205c16565b60006113c582600a80548060200260200160405190810160405280929190818152602001828054801561178357602002820191906000526020600020905b81548152602001906001019080831161176f575b50505050506120f490919063ffffffff16565b61179e61166e565b6117e0576040805160e560020a62461bcd0281526020600482018190526024820152600080516020612794833981519152604482015290519081900360640190fd5b60058054600160a060020a031916600160a060020a0392909216919091179055565b600061180c61166e565b61184e576040805160e560020a62461bcd0281526020600482018190526024820152600080516020612794833981519152604482015290519081900360640190fd5b6113c560068363ffffffff61213116565b61186761166e565b6118a9576040805160e560020a62461bcd0281526020600482018190526024820152600080516020612794833981519152604482015290519081900360640190fd5b61152b60018263ffffffff61220716565b600354600160a060020a031690565b60075490565b6118d761166e565b611919576040805160e560020a62461bcd0281526020600482018190526024820152600080516020612794833981519152604482015290519081900360640190fd5b600b55565b61192661166e565b611968576040805160e560020a62461bcd0281526020600482018190526024820152600080516020612794833981519152604482015290519081900360640190fd5b60028054600160a060020a031916600160a060020a0392909216919091179055565b600254600160a060020a031690565b60006119a361166e565b6119e5576040805160e560020a62461bcd0281526020600482018190526024820152600080516020612794833981519152604482015290519081900360640190fd5b6113c560018363ffffffff6122ce16565b60006113c5826001805480602002602001604051908101604052809291908181526020018280548015611a7457602002820191906000526020600020906000905b82829054906101000a900463ffffffff1663ffffffff1681526020019060040190602082600301049283019260010382029150808411611a375790505b50505050506123be90919063ffffffff16565b611a8f61166e565b611ad1576040805160e560020a62461bcd0281526020600482018190526024820152600080516020612794833981519152604482015290519081900360640190fd5b8060068381548110611adf57fe5b9060005260206000200160006101000a815481600160a060020a030219169083600160a060020a031602179055505050565b600160a060020a038116600090815260096020908152604091829020805483518184028101840190945280845260609392830182828015611b7157602002820191906000526020600020905b815481526020019060010190808311611b5d575b50505050509050919050565b6060600680548060200260200160405190810160405280929190818152602001828054801561100757602002820191906000526020600020905b8154600160a060020a03168152600190910190602001808311611bb7575050505050905090565b611be661166e565b611c28576040805160e560020a62461bcd0281526020600482018190526024820152600080516020612794833981519152604482015290519081900360640190fd5b61152b81612407565b60608082604051908082528060200260200182016040528015611c5e578160200160208202803883390190505b50600160a060020a0386166000908152600960205260409020549091508484011115611cb057600160a060020a038516600090815260096020526040902054611cad908563ffffffff611d1616565b92505b60005b83811015611d0b57600160a060020a03861660009081526009602052604090208054868301908110611ce157fe5b9060005260206000200154828281518110611cf857fe5b6020908102919091010152600101611cb3565b5090505b9392505050565b808203828111156113c5576040805160e560020a62461bcd02815260206004820181905260248201527f536166654d6174683a20737562737472616374696f6e20756e646572666c6f77604482015290519081900360640190fd5b60008082118015611d8457506007548211155b611dd8576040805160e560020a62461bcd02815260206004820152601660248201527f6f7074696f6e206964206973206e6f7420657869737400000000000000000000604482015290519081900360640190fd5b60076001830381548110611de857fe5b90600052602060002090600502019050919050565b6000811580611e1857505080820282828281611e1557fe5b04145b6113c55760405160e560020a62461bcd0281526004018080602001828103825260218152602001806127736021913960400191505060405180910390fd5b4281608001511161152b576040805160e560020a62461bcd02815260206004820152601160248201527f6f7074696f6e2069732065787069726564000000000000000000000000000000604482015290519081900360640190fd5b808260c001511015611078576040805160e560020a62461bcd02815260206004820152601d60248201527f6f7074696f6e20616d6f756e7420697320696e73756666696369656e74000000604482015290519081900360640190fd5b600060ff8416158284111415611f2557506000611d0f565b60ff841615611f3657818303611f3a565b8282035b9050611d0f565b611f9a82805480602002602001604051908101604052809291908181526020018280548015611f8f57602002820191906000526020600020905b815481526020019060010190808311611f7b575b5050505050826120f4565b6110785781546001810183556000928352602090922090910155565b8154600090815b81811015611ff05783858281548110611fd257fe5b90600052602060002001541415611fe857611ff0565b600101611fbd565b81811015612051576001820381146120355784600183038154811061201157fe5b906000526020600020015485828154811061202857fe5b6000918252602090912001555b8454612045866000198301612690565b506001925050506113c5565b506000949350505050565b6120bf828054806020026020016040519081016040528092919081815260200182805480156120b457602002820191906000526020600020905b8154600160a060020a03168152600190910190602001808311612096575b5050505050826124aa565b611078578154600181018355600083815260209020018054600160a060020a038316600160a060020a03199091161790555050565b8151600090815b81811015612051578385828151811061211057fe5b60200260200101511415612129576001925050506113c5565b6001016120fb565b8154600090815b8181101561217e5783600160a060020a031685828154811061215657fe5b600091825260209091200154600160a060020a031614156121765761217e565b600101612138565b81811015612051576001820381146120355784600183038154811061219f57fe5b9060005260206000200160009054906101000a9004600160a060020a03168582815481106121c957fe5b9060005260206000200160006101000a815481600160a060020a030219169083600160a060020a031602179055508454612045866000198301612690565b61228c8280548060200260200160405190810160405280929190818152602001828054801561228157602002820191906000526020600020906000905b82829054906101000a900463ffffffff1663ffffffff16815260200190600401906020826003010492830192600103820291508084116122445790505b5050505050826123be565b611078578154600181018355600092835260209092206008830401805460079093166004026101000a63ffffffff818102199094169290931692909202179055565b8154600090815b81811015612327578363ffffffff168582815481106122f057fe5b6000918252602090912060088204015460079091166004026101000a900463ffffffff16141561231f57612327565b6001016122d5565b81811015612051576001820381146123ae5784600183038154811061234857fe5b90600052602060002090600891828204019190066004029054906101000a900463ffffffff1685828154811061237a57fe5b90600052602060002090600891828204019190066004026101000a81548163ffffffff021916908363ffffffff1602179055505b84546120458660001983016126b9565b8151600090815b81811015612051578363ffffffff168582815181106123e057fe5b602002602001015163ffffffff1614156123ff576001925050506113c5565b6001016123c5565b600160a060020a03811661244f5760405160e560020a62461bcd02815260040180806020018281038252602681526020018061274d6026913960400191505060405180910390fd5b60008054604051600160a060020a03808516939216917f8be0079c531659141344cd1fd0a4f28419497f9722a3daafe3b4186f6b6457e091a360008054600160a060020a031916600160a060020a0392909216919091179055565b8151600090815b818110156120515783600160a060020a03168582815181106124cf57fe5b6020026020010151600160a060020a031614156124f1576001925050506113c5565b6001016124b1565b82805482825590600052602060002090810192821561254e579160200282015b8281111561254e5782518254600160a060020a031916600160a060020a03909116178255602090920191600190910190612519565b5061255a9291506126ed565b5090565b6040805160e081018252600080825260208201819052918101829052606081018290526080810182905260a0810182905260c081019190915290565b8280548282559060005260206000209081019282156125dc579160200282015b828111156125dc578251829062ffffff169055916020019190600101906125ba565b5061255a929150612711565b828054828255906000526020600020906007016008900481019282156126845791602002820160005b8382111561265257835183826101000a81548163ffffffff021916908360ff1602179055509260200192600401602081600301049283019260010302612611565b80156126825782816101000a81549063ffffffff0219169055600401602081600301049283019260010302612652565b505b5061255a92915061272b565b8154818355818111156126b4576000838152602090206126b4918101908301612711565b505050565b8154818355818111156126b45760070160089004816007016008900483600052602060002091820191016126b49190612711565b61100f91905b8082111561255a578054600160a060020a03191681556001016126f3565b61100f91905b8082111561255a5760008155600101612717565b61100f91905b8082111561255a57805463ffffffff1916815560010161273156fe4f776e61626c653a206e6577206f776e657220697320746865207a65726f2061646472657373536166654d6174683a206d756c7469706c69636174696f6e206f766572666c6f774f776e61626c653a2063616c6c6572206973206e6f7420746865206f776e657265787069726174696f6e2076616c7565206973206e6f7420737570706f72746564a265627a7a72315820bfd0642b5663c0fa7e8db5d63e01f01fb140b4844547ee313cba14492b529a9164736f6c63430005100032",
  "source": "pragma solidity ^0.5.1;\r\nimport \"../modules/SafeMath.sol\";\r\nimport \"./OptionsData.sol\";\r\nimport \"../modules/tuple64.sol\";\r\n/**\r\n * @title Options data contract.\r\n * @dev A Smart-contract to store options info.\r\n *\r\n */\r\ncontract OptionsBase is OptionsData {\r\n    using whiteListUint256 for uint256[];\r\n    using SafeMath for uint256;\r\n\r\n    constructor () public{\r\n        initialize();\r\n    }\r\n    function initialize() public {\r\n        expirationList =  [1 days,3 days, 7 days, 10 days, 15 days, 30 days,90 days];\r\n        underlyingAssets = [1,2];\r\n    }\r\n    /**\r\n     * @dev get option's burn time limit. \r\n     */ \r\n    function getBurnTimeLimit()public view returns(uint256){\r\n        return burnTimeLimit;\r\n    }\r\n    /**\r\n     * @dev set option's burn time limit. \r\n     * @param timeLimit set new option's burn time limit.\r\n     */ \r\n    function setBurnTimeLimit(uint256 timeLimit)public onlyOwner{\r\n        burnTimeLimit = timeLimit;\r\n    }\r\n    /**\r\n     * @dev retrieve user's options' id. \r\n     * @param user user's account.\r\n     */     \r\n    function getUserOptionsID(address user)public view returns(uint256[] memory){\r\n        return optionsBalances[user];\r\n    }\r\n    /**\r\n     * @dev retrieve user's `size` number of options' id. \r\n     * @param user user's account.\r\n     * @param from user's option list begin positon.\r\n     * @param size retrieve size.\r\n     */ \r\n    function getUserOptionsID(address user,uint256 from,uint256 size)public view returns(uint256[] memory){\r\n        uint256[] memory userIdAry = new uint256[](size);\r\n        if (from+size>optionsBalances[user].length){\r\n            size = optionsBalances[user].length.sub(from);\r\n        }\r\n        for (uint256 i= 0;i<size;i++){\r\n            userIdAry[i] = optionsBalances[user][from+i];\r\n        }\r\n        return userIdAry;\r\n    }\r\n    /**\r\n     * @dev retrieve all option list length. \r\n     */ \r\n    function getOptionInfoLength()public view returns (uint256){\r\n        return allOptions.length;\r\n    }\r\n    /**\r\n     * @dev retrieve `size` number of options' information. \r\n     * @param from all option list begin positon.\r\n     * @param size retrieve size.\r\n     */     \r\n    function getOptionInfoList(uint256 from,uint256 size)public view \r\n                returns(address[] memory,uint256[] memory,uint256[] memory,uint256[] memory,uint256[] memory){\r\n        if (from+size>allOptions.length){\r\n            size = allOptions.length.sub(from);\r\n        }\r\n        if (size>0){\r\n            address[] memory ownerArr = new address[](size);\r\n            uint256[] memory typeAndUnderArr = new uint256[](size);\r\n            uint256[] memory expArr = new uint256[](size);\r\n            uint256[] memory priceArr = new uint256[](size);\r\n            uint256[] memory amountArr = new uint256[](size);\r\n            for (uint i=0;i<size;i++){\r\n                OptionsInfo storage info = allOptions[from+i];\r\n                ownerArr[i] = info.owner;\r\n                typeAndUnderArr[i] = (info.underlying << 16) + info.optType;\r\n                expArr[i] = info.expiration;\r\n                priceArr[i] = info.strikePrice;\r\n                amountArr[i] = info.amount;\r\n            }\r\n            return (ownerArr,typeAndUnderArr,expArr,priceArr,amountArr);\r\n        }\r\n    }\r\n    /**\r\n     * @dev retrieve given `ids` options' information. \r\n     * @param ids retrieved options' id.\r\n     */   \r\n    function getOptionInfoListFromID(uint256[] memory ids)public view \r\n                returns(address[] memory,uint256[] memory,uint256[] memory,uint256[] memory,uint256[] memory){\r\n        uint256 size = ids.length;\r\n        address[] memory ownerArr = new address[](size);\r\n        uint256[] memory typeAndUnderArr = new uint256[](size);\r\n        uint256[] memory expArr = new uint256[](size);\r\n        uint256[] memory priceArr = new uint256[](size);\r\n        uint256[] memory amountArr = new uint256[](size);\r\n        for (uint i=0;i<size;i++){\r\n            OptionsInfo storage info = _getOptionsById(ids[i]);\r\n            ownerArr[i] = info.owner;\r\n            typeAndUnderArr[i] = (info.underlying << 16) + info.optType;\r\n            expArr[i] = info.expiration;\r\n            priceArr[i] = info.strikePrice;\r\n            amountArr[i] = info.amount;\r\n        }\r\n        return (ownerArr,typeAndUnderArr,expArr,priceArr,amountArr);\r\n    }\r\n    /**\r\n     * @dev retrieve given `optionsId` option's burned limit timestamp. \r\n     * @param optionsId retrieved option's id.\r\n     */ \r\n    function getOptionsLimitTimeById(uint256 optionsId)public view returns(uint256){\r\n        require(optionsId>0 && optionsId <= allOptions.length,\"option id is not exist\");\r\n        return optionExtraMap[optionsId-1].createdTime + burnTimeLimit;\r\n    }\r\n    /**\r\n     * @dev retrieve given `optionsId` option's information. \r\n     * @param optionsId retrieved option's id.\r\n     */ \r\n    function getOptionsById(uint256 optionsId)public view returns(uint256,address,uint8,uint32,uint256,uint256,uint256){\r\n        OptionsInfo storage info = _getOptionsById(optionsId);\r\n        return (info.optionID,info.owner,info.optType,info.underlying,info.expiration,info.strikePrice,info.amount);\r\n    }\r\n    /**\r\n     * @dev retrieve given `optionsId` option's extra information. \r\n     * @param optionsId retrieved option's id.\r\n     */\r\n    function getOptionsExtraById(uint256 optionsId)public view returns(uint256,address,uint256,uint256,uint256,uint256,uint256){\r\n        require(optionsId>0 && optionsId <= allOptions.length,\"option id is not exist\");\r\n        OptionsInfoEx storage info = optionExtraMap[optionsId];\r\n        return (info.createdTime,info.settlement,info.tokenTimePrice,info.underlyingPrice,\r\n                info.fullPrice,info.ivNumerator,info.ivDenominator);\r\n    }\r\n    /**\r\n     * @dev An auxiliary function, get underlying prices. \r\n     */\r\n    function getUnderlyingPrices()internal view returns(uint256[] memory){\r\n        uint256 underlyingLen = underlyingAssets.length;\r\n        uint256[] memory prices = new uint256[](underlyingLen);\r\n        for (uint256 i = 0;i<underlyingLen;i++){\r\n            prices[i] = _oracle.getUnderlyingPrice(underlyingAssets[i]);\r\n        }\r\n        return prices;\r\n    }\r\n    /**\r\n     * @dev create new option, store option info.\r\n     * @param from option's owner\r\n     * @param settlement the Coin address which user's paying for\r\n     * @param type_ly_exp the tuple64 of option type, underlying,expiration\r\n     * @param strikePrice option's strike price\r\n     * @param optionPrice option's paid price\r\n     * @param amount option's amount\r\n     */\r\n    function _createOptions(address from,address settlement,uint256 type_ly_exp,uint256 strikePrice,uint256 optionPrice,\r\n                uint256 amount) internal {\r\n        uint256 optionID = allOptions.length;\r\n        uint8 optType = uint8(tuple64.getValue0(type_ly_exp));\r\n        uint32 underlying = uint32(tuple64.getValue1(type_ly_exp));\r\n        allOptions.push(OptionsInfo(uint64(optionID+1),from,optType,underlying,tuple64.getValue2(type_ly_exp)+now,strikePrice,amount));\r\n        optionsBalances[from].push(optionID+1);\r\n        OptionsInfo memory info = allOptions[optionID];\r\n        setOptionsExtra(info,settlement,optionPrice,strikePrice,underlying);\r\n        emit CreateOption(from,optionID+1,optType,underlying,tuple64.getValue2(type_ly_exp)+now,strikePrice,amount);\r\n    }\r\n    /**\r\n     * @dev An auxiliary function, store new option's extra information.\r\n     * @param info option's information\r\n     * @param settlement the Coin address which user's paying for\r\n     * @param optionPrice option's paid price\r\n     * @param strikePrice option's strike price\r\n     * @param underlying option's underlying\r\n     */\r\n    function setOptionsExtra(OptionsInfo memory info,address settlement,uint256 optionPrice,uint256 strikePrice,uint256 underlying) internal{\r\n        uint256 underlyingPrice = _oracle.getUnderlyingPrice(underlying);\r\n        uint256 expiration = info.expiration - now;\r\n        (uint256 ivNumerator,uint256 ivDenominator) = _volatility.calculateIv(info.underlying,info.optType,expiration,underlyingPrice,strikePrice);\r\n        uint256 tokenTimePrice = calDecimals/_oracle.getPrice(settlement);\r\n        optionExtraMap[info.optionID-1]= OptionsInfoEx(now,settlement,tokenTimePrice,underlyingPrice,optionPrice,ivNumerator,ivDenominator);\r\n    }\r\n    /**\r\n     * @dev burn an exist option whose id is `id`.\r\n     * @param from option's owner\r\n     * @param amount option's amount\r\n     */\r\n    function _burnOptions(address from,uint256 id,uint256 amount)internal{\r\n        OptionsInfo storage info = _getOptionsById(id);\r\n        checkEligible(info);\r\n        checkBurnable(info.optionID);\r\n        checkOwner(info,from);\r\n        checkSufficient(info,amount);\r\n        info.amount = info.amount-amount;\r\n        emit BurnOption(from,id,amount);\r\n    }\r\n    /**\r\n     * @dev calculate option's exercise worth.\r\n     * @param optionsId option's id\r\n     * @param amount option's amount\r\n     */\r\n    function getExerciseWorth(uint256 optionsId,uint256 amount)public view returns(uint256){\r\n        OptionsInfo memory info = _getOptionsById(optionsId);\r\n        checkEligible(info);\r\n        checkSufficient(info,amount);\r\n        uint256 underlyingPrice = _oracle.getUnderlyingPrice(info.underlying);\r\n        uint256 tokenPayback = _getOptionsPayback(info.optType,info.strikePrice,underlyingPrice);\r\n        if (tokenPayback == 0 ){\r\n            return 0;\r\n        } \r\n        return tokenPayback.mul(amount);\r\n    }\r\n    /**\r\n     * @dev An auxiliary function, calculate option's exercise payback.\r\n     * @param optType option's type\r\n     * @param strikePrice option's strikePrice\r\n     * @param underlyingPrice underlying's price\r\n     */\r\n    function _getOptionsPayback(uint8 optType,uint256 strikePrice,uint256 underlyingPrice)internal pure returns(uint256){\r\n        if ((optType == 0) == (strikePrice>underlyingPrice)){ // call\r\n            return 0;\r\n        } else {\r\n            return (optType == 0) ? underlyingPrice - strikePrice : strikePrice - underlyingPrice;\r\n        }\r\n    }\r\n    /**\r\n     * @dev retrieve option by id, check option's id.\r\n     * @param id option's id\r\n     */\r\n    function _getOptionsById(uint256 id)internal view returns(OptionsInfo storage){\r\n        require(id>0 && id <= allOptions.length,\"option id is not exist\");\r\n        return allOptions[id-1];\r\n    }\r\n    /**\r\n     * @dev check option's burned time limited.\r\n     * @param optionID option's id\r\n     */\r\n    function checkBurnable(uint256 optionID)internal view{\r\n        require(optionExtraMap[optionID-1].createdTime+burnTimeLimit<now,\"option lock limitation is not expired\");\r\n    }\r\n    /**\r\n     * @dev check whether option is eligible, check option's expiration.\r\n     * @param info option's information\r\n     */\r\n    function checkEligible(OptionsInfo memory info)internal view{\r\n        require(info.expiration>now,\"option is expired\");\r\n    }\r\n    /**\r\n     * @dev check whether option's owner is equal.\r\n     * @param info option's information\r\n     * @param owner user's address\r\n     */\r\n    function checkOwner(OptionsInfo memory info,address owner)internal pure{\r\n        require(info.owner == owner,\"caller is not the options owner\");\r\n    }\r\n    /**\r\n     * @dev check whether option's amount is sufficient.\r\n     * @param info option's information\r\n     * @param amount user input amount\r\n     */\r\n    function checkSufficient(OptionsInfo memory info,uint256 amount) internal pure{\r\n        require(info.amount >= amount,\"option amount is insufficient\");\r\n    }\r\n    /**\r\n     * @dev check option's underlying and expiration.\r\n     * @param expiration option's expiration\r\n     * @param underlying option's underlying\r\n     */\r\n    function buyOptionCheck(uint256 expiration,uint32 underlying)public view{\r\n        require(isEligibleUnderlyingAsset(underlying) , \"underlying is unsupported asset\");\r\n        checkExpiration(expiration);\r\n    }\r\n    /**\r\n     * @dev Implementation of add an eligible expiration into the expirationList.\r\n     * @param expiration new eligible expiration.\r\n     */\r\n    function addExpiration(uint256 expiration)public onlyOwner{\r\n        expirationList.addWhiteListUint256(expiration);\r\n    }\r\n    /**\r\n     * @dev Implementation of revoke an invalid expiration from the expirationList.\r\n     * @param removeExpiration revoked expiration.\r\n     */\r\n    function removeExpirationList(uint256 removeExpiration)public onlyOwner returns(bool) {\r\n        return expirationList.removeWhiteListUint256(removeExpiration);\r\n    }\r\n    /**\r\n     * @dev Implementation of getting the eligible expirationList.\r\n     */\r\n    function getExpirationList()public view returns (uint256[] memory){\r\n        return expirationList;\r\n    }\r\n    /**\r\n     * @dev Implementation of testing whether the input expiration is eligible.\r\n     * @param expiration input expiration for testing.\r\n     */    \r\n    function isEligibleExpiration(uint256 expiration) public view returns (bool){\r\n        return expirationList.isEligibleUint256(expiration);\r\n    }\r\n    /**\r\n     * @dev check option's expiration.\r\n     * @param expiration option's expiration\r\n     */\r\n    function checkExpiration(uint256 expiration) public view{\r\n        return require(isEligibleExpiration(expiration),\"expiration value is not supported\");\r\n    }\r\n    /**\r\n     * @dev retrieve index from expiration white list.\r\n            If the input expriation is not found, the index is equal to whitelist's length, \r\n     * @param expiration input expiration\r\n     */\r\n    function _getEligibleExpirationIndex(uint256 expiration) internal view returns (uint256){\r\n        return expirationList._getEligibleIndexUint256(expiration);\r\n    }\r\n    /**\r\n     * @dev An auxiliary function, retrieve first available option's positon.\r\n     * @param begin  the start of option's positon\r\n     * @param latestBegin  the latest begin option positon.\r\n     * @param end  the end of option's positon\r\n     */\r\n    function getFirstOption(uint256 begin,uint256 latestBegin,uint256 end) internal view returns(uint256,uint256){\r\n        uint256 newFirstOption = latestBegin;\r\n        if (begin > newFirstOption){\r\n            //if in other phase, begin != new begin\r\n            return (begin,newFirstOption);\r\n        }\r\n        begin = newFirstOption;\r\n        for (;begin<end;begin++){\r\n            OptionsInfo storage info = allOptions[begin];\r\n            if(info.expiration<now || info.amount == 0){\r\n                continue;\r\n            }\r\n            break;\r\n        }\r\n        //if in first phase, begin = new begin\r\n        return (begin,begin);\r\n    }\r\n    /**\r\n     * @dev calculate option's occupied collateral.\r\n     * @param option  option's information\r\n     * @param underlyingPrice  underlying current price.\r\n     */\r\n    function calOptionsCollateral(OptionsInfo memory option,uint256 underlyingPrice)internal view returns(uint256){\r\n        if (option.expiration<=now || option.amount == 0){\r\n            return 0;\r\n        }\r\n        uint256 totalOccupied = _getOptionsWorth(option.optType,option.strikePrice,underlyingPrice).mul(option.amount);\r\n        return totalOccupied;\r\n    }\r\n    /**\r\n     * @dev calculate one option's occupied collateral.\r\n     * @param optType  option's type\r\n     * @param strikePrice  option's strikePrice\r\n     * @param underlyingPrice  underlying current price.\r\n     */\r\n    function _getOptionsWorth(uint8 optType,uint256 strikePrice,uint256 underlyingPrice)internal pure returns(uint256){\r\n        if ((optType == 0) == (strikePrice>underlyingPrice)){ // call\r\n            return strikePrice;\r\n        } else {\r\n            return underlyingPrice;\r\n        }\r\n    }\r\n    /**\r\n     * @dev calculate `amount` number of Option's full price when option is burned.\r\n     * @param optionID  option's optionID\r\n     * @param amount  option's amount\r\n     */\r\n    function getBurnedFullPay(uint256 optionID,uint256 amount) public view returns(address,uint256){\r\n        OptionsInfoEx storage optionEx = optionExtraMap[optionID-1];\r\n        return (optionEx.settlement,optionEx.fullPrice.mul(optionEx.tokenTimePrice).mul(amount)/calDecimals);\r\n    }\r\n}",
  "sourcePath": "C:\\work\\solidity\\FinnexusOptions_V2\\contracts\\OptionsPool\\Optionsbase.sol",
  "compiler": {
    "name": "solc",
    "version": "0.5.16+commit.9c3226ce.Emscripten.clang"
  },
  "schemaVersion": "3.1.0",
  "updatedAt": "2020-09-02T10:47:05.638Z",
  "devdoc": {
    "details": "A Smart-contract to store options info.  ",
    "methods": {
      "addExpiration(uint256)": {
        "details": "Implementation of add an eligible expiration into the expirationList.",
        "params": {
          "expiration": "new eligible expiration."
        }
      },
      "addOperator(address)": {
        "details": "add a new operator by owner.       "
      },
      "addUnderlyingAsset(uint32)": {
        "details": "Implementation of add an eligible underlying into the underlyingAssets.",
        "params": {
          "underlying": "new eligible underlying."
        }
      },
      "buyOptionCheck(uint256,uint32)": {
        "details": "check option's underlying and expiration.",
        "params": {
          "expiration": "option's expiration",
          "underlying": "option's underlying"
        }
      },
      "checkExpiration(uint256)": {
        "details": "check option's expiration.",
        "params": {
          "expiration": "option's expiration"
        }
      },
      "getBurnTimeLimit()": {
        "details": "get option's burn time limit. "
      },
      "getBurnedFullPay(uint256,uint256)": {
        "details": "calculate `amount` number of Option's full price when option is burned.",
        "params": {
          "amount": "option's amount",
          "optionID": "option's optionID"
        }
      },
      "getExerciseWorth(uint256,uint256)": {
        "details": "calculate option's exercise worth.",
        "params": {
          "amount": "option's amount",
          "optionsId": "option's id"
        }
      },
      "getExpirationList()": {
        "details": "Implementation of getting the eligible expirationList."
      },
      "getManager()": {
        "details": "get manager address.       "
      },
      "getOperator()": {
        "details": "get all operators.       "
      },
      "getOptionInfoLength()": {
        "details": "retrieve all option list length. "
      },
      "getOptionInfoList(uint256,uint256)": {
        "details": "retrieve `size` number of options' information. ",
        "params": {
          "from": "all option list begin positon.",
          "size": "retrieve size."
        }
      },
      "getOptionInfoListFromID(uint256[])": {
        "details": "retrieve given `ids` options' information. ",
        "params": {
          "ids": "retrieved options' id."
        }
      },
      "getOptionsById(uint256)": {
        "details": "retrieve given `optionsId` option's information. ",
        "params": {
          "optionsId": "retrieved option's id."
        }
      },
      "getOptionsExtraById(uint256)": {
        "details": "retrieve given `optionsId` option's extra information. ",
        "params": {
          "optionsId": "retrieved option's id."
        }
      },
      "getOptionsLimitTimeById(uint256)": {
        "details": "retrieve given `optionsId` option's burned limit timestamp. ",
        "params": {
          "optionsId": "retrieved option's id."
        }
      },
      "getUnderlyingAssets()": {
        "details": "Implementation of getting the eligible underlyingAssets."
      },
      "getUserOptionsID(address)": {
        "details": "retrieve user's options' id. ",
        "params": {
          "user": "user's account."
        }
      },
      "getUserOptionsID(address,uint256,uint256)": {
        "details": "retrieve user's `size` number of options' id. ",
        "params": {
          "from": "user's option list begin positon.",
          "size": "retrieve size.",
          "user": "user's account."
        }
      },
      "isEligibleExpiration(uint256)": {
        "details": "Implementation of testing whether the input expiration is eligible.",
        "params": {
          "expiration": "input expiration for testing."
        }
      },
      "isEligibleUnderlyingAsset(uint32)": {
        "details": "Implementation of testing whether the input underlying is eligible.",
        "params": {
          "underlying": "input underlying for testing."
        }
      },
      "isOwner()": {
        "details": "Returns true if the caller is the current owner."
      },
      "owner()": {
        "details": "Returns the address of the current owner."
      },
      "removeExpirationList(uint256)": {
        "details": "Implementation of revoke an invalid expiration from the expirationList.",
        "params": {
          "removeExpiration": "revoked expiration."
        }
      },
      "removeOperator(address)": {
        "details": "remove operator by owner.       "
      },
      "removeUnderlyingAssets(uint32)": {
        "details": "Implementation of revoke an invalid underlying from the underlyingAssets.",
        "params": {
          "removeUnderlying": "revoked underlying."
        }
      },
      "renounceOwnership()": {
        "details": "Leaves the contract without owner. It will not be possible to call `onlyOwner` functions anymore. Can only be called by the current owner.      * NOTE: Renouncing ownership will leave the contract without an owner, thereby removing any functionality that is only available to the owner."
      },
      "setBurnTimeLimit(uint256)": {
        "details": "set option's burn time limit. ",
        "params": {
          "timeLimit": "set new option's burn time limit."
        }
      },
      "setManager(address)": {
        "details": "set manager by owner.       "
      },
      "setOperator(address[])": {
        "details": "set all operators by owner.       "
      },
      "setOperator(uint256,address)": {
        "details": "modify indexed operator by owner.       "
      },
      "transferOwnership(address)": {
        "details": "Transfers ownership of the contract to a new account (`newOwner`). Can only be called by the current owner."
      }
    },
    "title": "Options data contract."
  },
  "userdoc": {
    "methods": {}
  }
}