{
  "contractName": "OptionsPool",
  "abi": [
    {
      "constant": true,
      "inputs": [],
      "name": "lastCalBlock_share",
      "outputs": [
        {
          "name": "",
          "type": "uint256"
        }
      ],
      "payable": false,
      "stateMutability": "view",
      "type": "function"
    },
    {
      "constant": true,
      "inputs": [],
      "name": "lastCallOption",
      "outputs": [
        {
          "name": "",
          "type": "uint256"
        }
      ],
      "payable": false,
      "stateMutability": "view",
      "type": "function"
    },
    {
      "constant": true,
      "inputs": [],
      "name": "sharedPhase",
      "outputs": [
        {
          "name": "",
          "type": "uint32"
        }
      ],
      "payable": false,
      "stateMutability": "view",
      "type": "function"
    },
    {
      "constant": false,
      "inputs": [
        {
          "name": "volatility",
          "type": "address"
        }
      ],
      "name": "setVolatilityAddress",
      "outputs": [],
      "payable": false,
      "stateMutability": "nonpayable",
      "type": "function"
    },
    {
      "constant": true,
      "inputs": [],
      "name": "getUnderlyingAssets",
      "outputs": [
        {
          "name": "",
          "type": "uint32[]"
        }
      ],
      "payable": false,
      "stateMutability": "view",
      "type": "function"
    },
    {
      "constant": true,
      "inputs": [
        {
          "name": "",
          "type": "uint256"
        }
      ],
      "name": "expirationList",
      "outputs": [
        {
          "name": "",
          "type": "uint256"
        }
      ],
      "payable": false,
      "stateMutability": "view",
      "type": "function"
    },
    {
      "constant": true,
      "inputs": [
        {
          "name": "",
          "type": "uint256"
        }
      ],
      "name": "underlyingAssets",
      "outputs": [
        {
          "name": "",
          "type": "uint32"
        }
      ],
      "payable": false,
      "stateMutability": "view",
      "type": "function"
    },
    {
      "constant": true,
      "inputs": [],
      "name": "getVolatilityAddress",
      "outputs": [
        {
          "name": "",
          "type": "address"
        }
      ],
      "payable": false,
      "stateMutability": "view",
      "type": "function"
    },
    {
      "constant": false,
      "inputs": [
        {
          "name": "oracle",
          "type": "address"
        }
      ],
      "name": "setOracleAddress",
      "outputs": [],
      "payable": false,
      "stateMutability": "nonpayable",
      "type": "function"
    },
    {
      "constant": true,
      "inputs": [
        {
          "name": "",
          "type": "address"
        },
        {
          "name": "",
          "type": "uint256"
        }
      ],
      "name": "optionsBalances",
      "outputs": [
        {
          "name": "",
          "type": "uint256"
        }
      ],
      "payable": false,
      "stateMutability": "view",
      "type": "function"
    },
    {
      "constant": true,
      "inputs": [],
      "name": "getOptionsPriceAddress",
      "outputs": [
        {
          "name": "",
          "type": "address"
        }
      ],
      "payable": false,
      "stateMutability": "view",
      "type": "function"
    },
    {
      "constant": true,
      "inputs": [],
      "name": "firstOption_share",
      "outputs": [
        {
          "name": "",
          "type": "uint256"
        }
      ],
      "payable": false,
      "stateMutability": "view",
      "type": "function"
    },
    {
      "constant": false,
      "inputs": [],
      "name": "renounceOwnership",
      "outputs": [],
      "payable": false,
      "stateMutability": "nonpayable",
      "type": "function"
    },
    {
      "constant": true,
      "inputs": [],
      "name": "lastCalBlock",
      "outputs": [
        {
          "name": "",
          "type": "uint256"
        }
      ],
      "payable": false,
      "stateMutability": "view",
      "type": "function"
    },
    {
      "constant": true,
      "inputs": [],
      "name": "owner",
      "outputs": [
        {
          "name": "",
          "type": "address"
        }
      ],
      "payable": false,
      "stateMutability": "view",
      "type": "function"
    },
    {
      "constant": true,
      "inputs": [
        {
          "name": "",
          "type": "uint256"
        }
      ],
      "name": "allOptions",
      "outputs": [
        {
          "name": "optionID",
          "type": "uint256"
        },
        {
          "name": "owner",
          "type": "address"
        },
        {
          "name": "optType",
          "type": "uint8"
        },
        {
          "name": "underlying",
          "type": "uint32"
        },
        {
          "name": "expiration",
          "type": "uint256"
        },
        {
          "name": "strikePrice",
          "type": "uint256"
        },
        {
          "name": "amount",
          "type": "uint256"
        }
      ],
      "payable": false,
      "stateMutability": "view",
      "type": "function"
    },
    {
      "constant": true,
      "inputs": [],
      "name": "isOwner",
      "outputs": [
        {
          "name": "",
          "type": "bool"
        }
      ],
      "payable": false,
      "stateMutability": "view",
      "type": "function"
    },
    {
      "constant": false,
      "inputs": [
        {
          "name": "optionsPrice",
          "type": "address"
        }
      ],
      "name": "setOptionsPriceAddress",
      "outputs": [],
      "payable": false,
      "stateMutability": "nonpayable",
      "type": "function"
    },
    {
      "constant": true,
      "inputs": [
        {
          "name": "",
          "type": "uint256"
        },
        {
          "name": "",
          "type": "uint256"
        },
        {
          "name": "",
          "type": "uint256"
        }
      ],
      "name": "burnBlockOptions",
      "outputs": [
        {
          "name": "",
          "type": "uint256"
        }
      ],
      "payable": false,
      "stateMutability": "view",
      "type": "function"
    },
    {
      "constant": false,
      "inputs": [
        {
          "name": "underlying",
          "type": "uint32"
        }
      ],
      "name": "addUnderlyingAsset",
      "outputs": [],
      "payable": false,
      "stateMutability": "nonpayable",
      "type": "function"
    },
    {
      "constant": true,
      "inputs": [],
      "name": "getOracleAddress",
      "outputs": [
        {
          "name": "",
          "type": "address"
        }
      ],
      "payable": false,
      "stateMutability": "view",
      "type": "function"
    },
    {
      "constant": true,
      "inputs": [],
      "name": "optionPhase",
      "outputs": [
        {
          "name": "",
          "type": "uint32"
        }
      ],
      "payable": false,
      "stateMutability": "view",
      "type": "function"
    },
    {
      "constant": false,
      "inputs": [
        {
          "name": "managerAddress",
          "type": "address"
        }
      ],
      "name": "setManager",
      "outputs": [],
      "payable": false,
      "stateMutability": "nonpayable",
      "type": "function"
    },
    {
      "constant": true,
      "inputs": [],
      "name": "getManager",
      "outputs": [
        {
          "name": "",
          "type": "address"
        }
      ],
      "payable": false,
      "stateMutability": "view",
      "type": "function"
    },
    {
      "constant": false,
      "inputs": [
        {
          "name": "removeUnderlying",
          "type": "uint32"
        }
      ],
      "name": "removeUnderlyingAssets",
      "outputs": [
        {
          "name": "",
          "type": "bool"
        }
      ],
      "payable": false,
      "stateMutability": "nonpayable",
      "type": "function"
    },
    {
      "constant": true,
      "inputs": [
        {
          "name": "underlying",
          "type": "uint32"
        }
      ],
      "name": "isEligibleUnderlyingAsset",
      "outputs": [
        {
          "name": "",
          "type": "bool"
        }
      ],
      "payable": false,
      "stateMutability": "view",
      "type": "function"
    },
    {
      "constant": true,
      "inputs": [
        {
          "name": "underlying",
          "type": "uint32"
        }
      ],
      "name": "checkUnderlyingAsset",
      "outputs": [],
      "payable": false,
      "stateMutability": "view",
      "type": "function"
    },
    {
      "constant": false,
      "inputs": [
        {
          "name": "newOwner",
          "type": "address"
        }
      ],
      "name": "transferOwnership",
      "outputs": [],
      "payable": false,
      "stateMutability": "nonpayable",
      "type": "function"
    },
    {
      "inputs": [
        {
          "name": "oracleAddr",
          "type": "address"
        },
        {
          "name": "optionsPriceAddr",
          "type": "address"
        },
        {
          "name": "ivAddress",
          "type": "address"
        }
      ],
      "payable": false,
      "stateMutability": "nonpayable",
      "type": "constructor"
    },
    {
      "anonymous": false,
      "inputs": [
        {
          "indexed": true,
          "name": "owner",
          "type": "address"
        },
        {
          "indexed": true,
          "name": "optionID",
          "type": "uint256"
        },
        {
          "indexed": false,
          "name": "optType",
          "type": "uint8"
        },
        {
          "indexed": false,
          "name": "underlying",
          "type": "uint32"
        },
        {
          "indexed": false,
          "name": "expiration",
          "type": "uint256"
        },
        {
          "indexed": false,
          "name": "strikePrice",
          "type": "uint256"
        },
        {
          "indexed": false,
          "name": "amount",
          "type": "uint256"
        }
      ],
      "name": "CreateOption",
      "type": "event"
    },
    {
      "anonymous": false,
      "inputs": [
        {
          "indexed": true,
          "name": "owner",
          "type": "address"
        },
        {
          "indexed": true,
          "name": "optionID",
          "type": "uint256"
        },
        {
          "indexed": false,
          "name": "amount",
          "type": "uint256"
        }
      ],
      "name": "BurnOption",
      "type": "event"
    },
    {
      "anonymous": false,
      "inputs": [
        {
          "indexed": false,
          "name": "value1",
          "type": "uint256"
        },
        {
          "indexed": false,
          "name": "value2",
          "type": "uint256"
        },
        {
          "indexed": false,
          "name": "value3",
          "type": "uint256"
        }
      ],
      "name": "DebugEvent",
      "type": "event"
    },
    {
      "anonymous": false,
      "inputs": [
        {
          "indexed": true,
          "name": "previousOwner",
          "type": "address"
        },
        {
          "indexed": true,
          "name": "newOwner",
          "type": "address"
        }
      ],
      "name": "OwnershipTransferred",
      "type": "event"
    },
    {
      "constant": true,
      "inputs": [
        {
          "name": "user",
          "type": "address"
        }
      ],
      "name": "getOptionBalances",
      "outputs": [
        {
          "name": "",
          "type": "uint256[]"
        }
      ],
      "payable": false,
      "stateMutability": "view",
      "type": "function"
    },
    {
      "constant": true,
      "inputs": [],
      "name": "getOptionInfoLength",
      "outputs": [
        {
          "name": "",
          "type": "uint256"
        }
      ],
      "payable": false,
      "stateMutability": "view",
      "type": "function"
    },
    {
      "constant": true,
      "inputs": [
        {
          "name": "from",
          "type": "uint256"
        },
        {
          "name": "size",
          "type": "uint256"
        }
      ],
      "name": "getOptionInfoList",
      "outputs": [
        {
          "name": "",
          "type": "address[]"
        },
        {
          "name": "",
          "type": "uint256[]"
        },
        {
          "name": "",
          "type": "uint256[]"
        },
        {
          "name": "",
          "type": "uint256[]"
        },
        {
          "name": "",
          "type": "uint256[]"
        }
      ],
      "payable": false,
      "stateMutability": "view",
      "type": "function"
    },
    {
      "constant": true,
      "inputs": [
        {
          "name": "ids",
          "type": "uint256[]"
        }
      ],
      "name": "getOptionInfoListFromID",
      "outputs": [
        {
          "name": "",
          "type": "address[]"
        },
        {
          "name": "",
          "type": "uint256[]"
        },
        {
          "name": "",
          "type": "uint256[]"
        },
        {
          "name": "",
          "type": "uint256[]"
        },
        {
          "name": "",
          "type": "uint256[]"
        }
      ],
      "payable": false,
      "stateMutability": "view",
      "type": "function"
    },
    {
      "constant": true,
      "inputs": [],
      "name": "getLatestOption",
      "outputs": [
        {
          "name": "",
          "type": "uint256"
        },
        {
          "name": "",
          "type": "address"
        },
        {
          "name": "",
          "type": "uint8"
        },
        {
          "name": "",
          "type": "uint32"
        },
        {
          "name": "",
          "type": "uint256"
        },
        {
          "name": "",
          "type": "uint256"
        },
        {
          "name": "",
          "type": "uint256"
        }
      ],
      "payable": false,
      "stateMutability": "view",
      "type": "function"
    },
    {
      "constant": true,
      "inputs": [
        {
          "name": "optionsId",
          "type": "uint256"
        }
      ],
      "name": "getOptionsById",
      "outputs": [
        {
          "name": "",
          "type": "uint256"
        },
        {
          "name": "",
          "type": "address"
        },
        {
          "name": "",
          "type": "uint8"
        },
        {
          "name": "",
          "type": "uint32"
        },
        {
          "name": "",
          "type": "uint256"
        },
        {
          "name": "",
          "type": "uint256"
        },
        {
          "name": "",
          "type": "uint256"
        }
      ],
      "payable": false,
      "stateMutability": "view",
      "type": "function"
    },
    {
      "constant": false,
      "inputs": [
        {
          "name": "index",
          "type": "uint256"
        }
      ],
      "name": "setPhaseOccupiedCollateral",
      "outputs": [],
      "payable": false,
      "stateMutability": "nonpayable",
      "type": "function"
    },
    {
      "constant": false,
      "inputs": [
        {
          "name": "index",
          "type": "uint256"
        },
        {
          "name": "totalOccupied",
          "type": "uint256"
        },
        {
          "name": "beginOption",
          "type": "uint256"
        },
        {
          "name": "lastOption",
          "type": "uint256"
        },
        {
          "name": "lastBlock",
          "type": "uint256"
        }
      ],
      "name": "setCollateralPhase",
      "outputs": [],
      "payable": false,
      "stateMutability": "nonpayable",
      "type": "function"
    },
    {
      "constant": true,
      "inputs": [
        {
          "name": "index",
          "type": "uint256"
        }
      ],
      "name": "calculatePhaseOccupiedCollateral",
      "outputs": [
        {
          "name": "",
          "type": "uint256"
        },
        {
          "name": "",
          "type": "uint256"
        },
        {
          "name": "",
          "type": "uint256"
        },
        {
          "name": "",
          "type": "uint256"
        }
      ],
      "payable": false,
      "stateMutability": "view",
      "type": "function"
    },
    {
      "constant": false,
      "inputs": [
        {
          "name": "index",
          "type": "uint256"
        },
        {
          "name": "_firstOption",
          "type": "uint256"
        },
        {
          "name": "prices",
          "type": "uint256[]"
        },
        {
          "name": "lastBlock",
          "type": "uint256"
        },
        {
          "name": "calTime",
          "type": "uint256"
        }
      ],
      "name": "setSharedState",
      "outputs": [],
      "payable": false,
      "stateMutability": "nonpayable",
      "type": "function"
    },
    {
      "constant": true,
      "inputs": [
        {
          "name": "index",
          "type": "uint256"
        },
        {
          "name": "whiteList",
          "type": "address[]"
        }
      ],
      "name": "calculatePhaseSharedPayment",
      "outputs": [
        {
          "name": "",
          "type": "uint256[]"
        },
        {
          "name": "",
          "type": "uint256"
        },
        {
          "name": "",
          "type": "uint256"
        }
      ],
      "payable": false,
      "stateMutability": "view",
      "type": "function"
    },
    {
      "constant": true,
      "inputs": [
        {
          "name": "index",
          "type": "uint256"
        },
        {
          "name": "beginOption",
          "type": "uint256"
        },
        {
          "name": "lastOption",
          "type": "uint256"
        },
        {
          "name": "whiteList",
          "type": "address[]"
        }
      ],
      "name": "calRangeSharedPayment",
      "outputs": [
        {
          "name": "",
          "type": "uint256[]"
        },
        {
          "name": "",
          "type": "uint256"
        },
        {
          "name": "",
          "type": "uint256"
        }
      ],
      "payable": false,
      "stateMutability": "view",
      "type": "function"
    },
    {
      "constant": true,
      "inputs": [
        {
          "name": "beginIndex",
          "type": "uint256"
        },
        {
          "name": "endIndex",
          "type": "uint256"
        },
        {
          "name": "preTime",
          "type": "uint256"
        },
        {
          "name": "whiteList",
          "type": "address[]"
        },
        {
          "name": "totalSharedPayment",
          "type": "uint256[]"
        }
      ],
      "name": "_calBurnedSharePrice",
      "outputs": [
        {
          "name": "",
          "type": "uint256[]"
        }
      ],
      "payable": false,
      "stateMutability": "view",
      "type": "function"
    },
    {
      "constant": true,
      "inputs": [
        {
          "name": "index",
          "type": "uint256"
        },
        {
          "name": "whiteList",
          "type": "address[]"
        }
      ],
      "name": "calculatePhaseOptionsFall",
      "outputs": [
        {
          "name": "",
          "type": "int256[]"
        },
        {
          "name": "",
          "type": "uint256[]"
        }
      ],
      "payable": false,
      "stateMutability": "view",
      "type": "function"
    },
    {
      "constant": false,
      "inputs": [
        {
          "name": "from",
          "type": "address"
        },
        {
          "name": "optType",
          "type": "uint8"
        },
        {
          "name": "underlying",
          "type": "uint32"
        },
        {
          "name": "expiration",
          "type": "uint256"
        },
        {
          "name": "strikePrice",
          "type": "uint256"
        },
        {
          "name": "amount",
          "type": "uint256"
        },
        {
          "name": "settlement",
          "type": "address"
        }
      ],
      "name": "createOptions",
      "outputs": [],
      "payable": false,
      "stateMutability": "nonpayable",
      "type": "function"
    },
    {
      "constant": true,
      "inputs": [],
      "name": "getTotalOccupiedCollateral",
      "outputs": [
        {
          "name": "",
          "type": "uint256"
        }
      ],
      "payable": false,
      "stateMutability": "view",
      "type": "function"
    },
    {
      "constant": false,
      "inputs": [
        {
          "name": "from",
          "type": "address"
        },
        {
          "name": "id",
          "type": "uint256"
        },
        {
          "name": "amount",
          "type": "uint256"
        }
      ],
      "name": "burnOptions",
      "outputs": [],
      "payable": false,
      "stateMutability": "nonpayable",
      "type": "function"
    },
    {
      "constant": true,
      "inputs": [
        {
          "name": "optionsId",
          "type": "uint256"
        },
        {
          "name": "amount",
          "type": "uint256"
        }
      ],
      "name": "getExerciseWorth",
      "outputs": [
        {
          "name": "",
          "type": "uint256"
        }
      ],
      "payable": false,
      "stateMutability": "view",
      "type": "function"
    },
    {
      "constant": true,
      "inputs": [
        {
          "name": "expiration",
          "type": "uint256"
        },
        {
          "name": "underlying",
          "type": "uint32"
        }
      ],
      "name": "buyOptionCheck",
      "outputs": [],
      "payable": false,
      "stateMutability": "view",
      "type": "function"
    },
    {
      "constant": false,
      "inputs": [
        {
          "name": "expiration",
          "type": "uint256"
        }
      ],
      "name": "addExpiration",
      "outputs": [],
      "payable": false,
      "stateMutability": "nonpayable",
      "type": "function"
    },
    {
      "constant": false,
      "inputs": [
        {
          "name": "removeExpiration",
          "type": "uint256"
        }
      ],
      "name": "removeExpirationList",
      "outputs": [
        {
          "name": "",
          "type": "bool"
        }
      ],
      "payable": false,
      "stateMutability": "nonpayable",
      "type": "function"
    },
    {
      "constant": true,
      "inputs": [],
      "name": "getExpirationList",
      "outputs": [
        {
          "name": "",
          "type": "uint256[]"
        }
      ],
      "payable": false,
      "stateMutability": "view",
      "type": "function"
    },
    {
      "constant": true,
      "inputs": [
        {
          "name": "expiration",
          "type": "uint256"
        }
      ],
      "name": "isEligibleExpiration",
      "outputs": [
        {
          "name": "",
          "type": "bool"
        }
      ],
      "payable": false,
      "stateMutability": "view",
      "type": "function"
    },
    {
      "constant": true,
      "inputs": [
        {
          "name": "expiration",
          "type": "uint256"
        }
      ],
      "name": "checkExpiration",
      "outputs": [],
      "payable": false,
      "stateMutability": "view",
      "type": "function"
    }
  ],
  "bytecode": "0x6080604052600b805461019063ffffffff1991821681179092556000600c556010805490911690911790553480156200003757600080fd5b506040516060806200487183398101604081815282516020840151919093015160008054600160a060020a031916331780825592939192600160a060020a0316917f8be0079c531659141344cd1fd0a4f28419497f9722a3daafe3b4186f6b6457e0908290a3620000b183640100000000620000e2810204565b620000c58264010000000062000174810204565b620000d98164010000000062000206810204565b505050620002a9565b620000f564010000000062000298810204565b15156200015257604080517f08c379a0000000000000000000000000000000000000000000000000000000008152602060048201819052602482015260008051602062004851833981519152604482015290519081900360640190fd5b60038054600160a060020a031916600160a060020a0392909216919091179055565b6200018764010000000062000298810204565b1515620001e457604080517f08c379a0000000000000000000000000000000000000000000000000000000008152602060048201819052602482015260008051602062004851833981519152604482015290519081900360640190fd5b60048054600160a060020a031916600160a060020a0392909216919091179055565b6200021964010000000062000298810204565b15156200027657604080517f08c379a0000000000000000000000000000000000000000000000000000000008152602060048201819052602482015260008051602062004851833981519152604482015290519081900360640190fd5b60058054600160a060020a031916600160a060020a0392909216919091179055565b600054600160a060020a0316331490565b61459880620002b96000396000f3006080604052600436106102585763ffffffff60e060020a6000350416630438d490811461025d578063067b8783146103e05780630860d37b1461040657806311e6c4a21461042d578063132a56271461049e57806316f35a7f146104b35780632967eafe146104e157806332ab5c2014610502578063354af360146105c85780633582d7891461061d5780633ad2fb57146106325780633ad98099146106535780633b50c4d11461066b57806342e5479d1461068357806345e19fdd146106b457806348ee201d146107105780634c69c00f14610728578063530b0fd71461074957806355c47cb2146107b05780635ca4b73b146107d457806367290e0d146107e957806367b8ceb9146107fe578063715018a614610819578063723931ca1461082e57806373a3d4241461084657806374e85fd21461085b5780637cfff2d8146108825780637e2eeb7e1461089a5780637e838fa3146108af5780638da5cb5b146108db5780638ea745b8146108f05780638f32d59b146109085780639052d5f81461091d57806399deae0a146109325780639ef975d214610970578063a093e2d014610988578063a95c594a146109a9578063ab607154146109c7578063af70df1214610a64578063afec82fc14610abe578063b18b78dd14610adc578063b8a5b7fa14610af1578063bec3107f14610b09578063c27b7dfb14610b1e578063d0ebdbe714610b33578063d500958414610b54578063d665d9a614610b69578063d6d1401214610bad578063db6ad2bd14610bcb578063e5081c4014610be9578063ee29c94a14610cc5578063f2fde38b14610ce3575b600080fd5b34801561026957600080fd5b50610278600435602435610d04565b60405180806020018060200180602001806020018060200186810386528b818151815260200191508051906020019060200280838360005b838110156102c85781810151838201526020016102b0565b5050505090500186810385528a818151815260200191508051906020019060200280838360005b838110156103075781810151838201526020016102ef565b50505050905001868103845289818151815260200191508051906020019060200280838360005b8381101561034657818101518382015260200161032e565b50505050905001868103835288818151815260200191508051906020019060200280838360005b8381101561038557818101518382015260200161036d565b50505050905001868103825287818151815260200191508051906020019060200280838360005b838110156103c45781810151838201526020016103ac565b505050509050019a505050505050505050505060405180910390f35b3480156103ec57600080fd5b50610404600435602435604435606435608435610f52565b005b34801561041257600080fd5b5061041b610fd8565b60408051918252519081900360200190f35b34801561043957600080fd5b5061044e600160a060020a0360043516610fde565b60408051602080825283518183015283519192839290830191858101910280838360005b8381101561048a578181015183820152602001610472565b505050509050019250505060405180910390f35b3480156104aa57600080fd5b5061041b61104a565b3480156104bf57600080fd5b506104c8611050565b6040805163ffffffff9092168252519081900360200190f35b3480156104ed57600080fd5b50610404600160a060020a036004351661105c565b34801561050e57600080fd5b5060408051606435600481810135602081810285810182019096528185526105669583359560248035966044359636969095608495929093019290918291850190849080828437509497506110ca9650505050505050565b6040518080602001848152602001838152602001828103825285818151815260200191508051906020019060200280838360005b838110156105b257818101518382015260200161059a565b5050505090500194505050505060405180910390f35b3480156105d457600080fd5b5060408051602060048035808201358381028086018501909652808552610278953695939460249493850192918291850190849080828437509497506111359650505050505050565b34801561062957600080fd5b5061044e61134f565b34801561063e57600080fd5b5061040460043563ffffffff602435166113d4565b34801561065f57600080fd5b5061041b600435611440565b34801561067757600080fd5b506104c860043561145f565b34801561068f57600080fd5b50610698611497565b60408051600160a060020a039092168252519081900360200190f35b3480156106c057600080fd5b506106c96114a6565b60408051978852600160a060020a03909616602088015260ff9094168686015263ffffffff9092166060860152608085015260a084015260c0830152519081900360e00190f35b34801561071c57600080fd5b506106c9600435611580565b34801561073457600080fd5b50610404600160a060020a03600435166115e3565b34801561075557600080fd5b5060408051602060046044358181013583810280860185019096528085526104049583359560248035963696956064959394920192918291850190849080828437509497505084359550505060209092013591506116519050565b3480156107bc57600080fd5b5061041b600160a060020a036004351660243561172a565b3480156107e057600080fd5b5061069861175a565b3480156107f557600080fd5b5061041b611769565b34801561080a57600080fd5b5061041b60043560243561176f565b34801561082557600080fd5b5061040461190d565b34801561083a57600080fd5b506104046004356119a3565b34801561085257600080fd5b5061041b611a2b565b34801561086757600080fd5b50610404600160a060020a0360043516602435604435611ce0565b34801561088e57600080fd5b50610404600435611ea9565b3480156108a657600080fd5b5061041b611f00565b3480156108bb57600080fd5b506108c7600435611f06565b604080519115158252519081900360200190f35b3480156108e757600080fd5b50610698611f65565b3480156108fc57600080fd5b506106c9600435611f74565b34801561091457600080fd5b506108c7611fd4565b34801561092957600080fd5b5061044e611fe5565b34801561093e57600080fd5b5061094a60043561203c565b604080519485526020850193909352838301919091526060830152519081900360800190f35b34801561097c57600080fd5b506108c7600435612100565b34801561099457600080fd5b50610404600160a060020a036004351661215c565b3480156109b557600080fd5b5061041b6004356024356044356121ca565b3480156109d357600080fd5b50604080516064356004818101356020818102858101820190965281855261044e958335956024803596604435963696909560849592909301929091829185019084908082843750506040805187358901803560208181028481018201909552818452989b9a99890198929750908201955093508392508501908490808284375094975061220a9650505050505050565b348015610a7057600080fd5b506040805160206004602480358281013584810280870186019097528086526105669684359636966044959194909101929182918501908490808284375094975061254e9650505050505050565b348015610aca57600080fd5b5061040463ffffffff600435166125a7565b348015610ae857600080fd5b506106986125fe565b348015610afd57600080fd5b5061040460043561260d565b348015610b1557600080fd5b5061041b612684565b348015610b2a57600080fd5b506104c861268a565b348015610b3f57600080fd5b50610404600160a060020a0360043516612696565b348015610b6057600080fd5b50610698612704565b348015610b7557600080fd5b50610404600160a060020a0360043581169060ff602435169063ffffffff6044351690606435906084359060a4359060c43516612713565b348015610bb957600080fd5b506108c763ffffffff60043516612a2e565b348015610bd757600080fd5b506108c763ffffffff60043516612a87565b348015610bf557600080fd5b50604080516020600460248035828101358481028087018601909752808652610c4396843596369660449591949091019291829185019084908082843750949750612b0f9650505050505050565b604051808060200180602001838103835285818151815260200191508051906020019060200280838360005b83811015610c87578181015183820152602001610c6f565b5050505090500183810382528481815181526020019150805190602001906020028083836000838110156105b257818101518382015260200161059a565b348015610cd157600080fd5b5061040463ffffffff60043516612cc6565b348015610cef57600080fd5b50610404600160a060020a0360043516612d4c565b6060806060806060806060806060806000806006805490508d8f011115610d3b57600654610d38908f63ffffffff612da116565b9c505b60008d1115610f41578c604051908082528060200260200182016040528015610d6e578160200160208202803883390190505b5096508c604051908082528060200260200182016040528015610d9b578160200160208202803883390190505b5095508c604051908082528060200260200182016040528015610dc8578160200160208202803883390190505b5094508c604051908082528060200260200182016040528015610df5578160200160208202803883390190505b5093508c604051908082528060200260200182016040528015610e22578160200160208202803883390190505b509250600091505b8c821015610f3157600680548f8401908110610e4257fe5b6000918252602090912060059091020160018101548851919250600160a060020a031690889084908110610e7257fe5b600160a060020a0390921660209283029091019091015260018101548651601060ff60a060020a84048116919091011660020a63ffffffff60a860020a90930483160290911690879084908110610ec557fe5b6020908102909101015260028101548551869084908110610ee257fe5b6020908102909101015260038101548451859084908110610eff57fe5b6020908102909101015260048101548351849084908110610f1c57fe5b60209081029091010152600190910190610e2a565b86868686869b509b509b509b509b505b505050505050509295509295909350565b610f5a611fd4565b1515610f9e576040805160e560020a62461bcd028152602060048201819052602482015260008051602061454d833981519152604482015290519081900360640190fd5b600c54831115610fae57600c8390555b81600d541015610fc357600d829055600e8190555b5050506000918252600f602052604090912055565b60125481565b600160a060020a03811660009081526009602090815260409182902080548351818402810184019094528084526060939283018282801561103e57602002820191906000526020600020905b81548152602001906001019080831161102a575b50505050509050919050565b600d5481565b60105463ffffffff1681565b611064611fd4565b15156110a8576040805160e560020a62461bcd028152602060048201819052602482015260008051602061454d833981519152604482015290519081900360640190fd5b60058054600160a060020a031916600160a060020a0392909216919091179055565b6006546060906000908190838282891015806110e7575060115488105b156110f157611128565b828811156110fd578297505b60008a81526013602052604090205461111a908a908a908a612dea565b915091508181439550955095505b5050509450945094915050565b6060806060806060600060608060608060606000808d51975087604051908082528060200260200182016040528015611178578160200160208202803883390190505b509650876040519080825280602002602001820160405280156111a5578160200160208202803883390190505b509550876040519080825280602002602001820160405280156111d2578160200160208202803883390190505b509450876040519080825280602002602001820160405280156111ff578160200160208202803883390190505b5093508760405190808252806020026020018201604052801561122c578160200160208202803883390190505b509250600091505b8782101561133b5761125c8e8381518110151561124d57fe5b90602001906020020151612f8a565b60018101548851919250600160a060020a03169088908490811061127c57fe5b600160a060020a0390921660209283029091019091015260018101548651601060ff60a060020a84048116919091011660020a63ffffffff60a860020a909304831602909116908790849081106112cf57fe5b60209081029091010152600281015485518690849081106112ec57fe5b602090810290910101526003810154845185908490811061130957fe5b602090810290910101526004810154835184908490811061132657fe5b60209081029091010152600190910190611234565b50949c939b50919950975095509350505050565b606060018054806020026020016040519081016040528092919081815260200182805480156113c957602002820191906000526020600020906000905b82829054906101000a900463ffffffff1663ffffffff168152602001906004019060208260030104928301926001038202915080841161138c5790505b505050505090505b90565b6113dd81612a87565b1515611433576040805160e560020a62461bcd02815260206004820152601f60248201527f756e6465726c79696e6720697320756e737570706f7274656420617373657400604482015290519081900360640190fd5b61143c826119a3565b5050565b600a80548290811061144e57fe5b600091825260209091200154905081565b600180548290811061146d57fe5b9060005260206000209060089182820401919006600402915054906101000a900463ffffffff1681565b600554600160a060020a031690565b60065460009081908190819081908190819081808211611510576040805160e560020a62461bcd02815260206004820152601560248201527f6f7074696f6e73206c69737420697320656d7074790000000000000000000000604482015290519081900360640190fd5b60068054600019840190811061152257fe5b600091825260209091206005909102018054600182015460028301546003840154600490940154929d600160a060020a0383169d5060a060020a830460ff169c5060a860020a90920463ffffffff169a509850919650945092505050565b60008060008060008060008061159589612f8a565b8054600182015460028301546003840154600490940154929d600160a060020a0383169d5060a060020a830460ff169c5060a860020a90920463ffffffff169a509850919650945092505050565b6115eb611fd4565b151561162f576040805160e560020a62461bcd028152602060048201819052602482015260008051602061454d833981519152604482015290519081900360640190fd5b60038054600160a060020a031916600160a060020a0392909216919091179055565b600254600160a060020a031633146116d9576040805160e560020a62461bcd02815260206004820152602660248201527f4d616e6167657261626c653a2063616c6c6572206973206e6f7420746865204d60448201527f616e616765720000000000000000000000000000000000000000000000000000606482015290519081900360840190fd5b6011548411156116e95760118490555b6012548210156116f95760128290555b600085815260136020908152604080832084905560148252909120845161172292860190614411565b505050505050565b60096020528160005260406000208181548110151561174557fe5b90600052602060002001600091509150505481565b600454600160a060020a031690565b60115481565b600061177961445c565b60008061178586612f8a565b6040805160e081018252825481526001830154600160a060020a038116602083015260a060020a810460ff169282019290925260a860020a90910463ffffffff16606082015260028201546080820152600382015460a082015260049091015460c082015292506117f58361301a565b6117ff8386613075565b6003546060840151604080517fda66325700000000000000000000000000000000000000000000000000000000815263ffffffff909216600483015251600160a060020a039092169163da663257916024808201926020929091908290030181600087803b15801561187057600080fd5b505af1158015611884573d6000803e3d6000fd5b505050506040513d602081101561189a57600080fd5b505160408401519092506000915060ff1615156118cb578260a001518211156118c6575060a082015181035b6118e1565b8260a001518210156118e157818360a001510390505b8015156118f15760009350611904565b611901818663ffffffff6130d116565b93505b50505092915050565b611915611fd4565b1515611959576040805160e560020a62461bcd028152602060048201819052602482015260008051602061454d833981519152604482015290519081900360640190fd5b60008054604051600160a060020a03909116907f8be0079c531659141344cd1fd0a4f28419497f9722a3daafe3b4186f6b6457e0908390a360008054600160a060020a0319169055565b6119ac81612100565b1515611a28576040805160e560020a62461bcd02815260206004820152602160248201527f65787069726174696f6e2076616c7565206973206e6f7420737570706f72746560448201527f6400000000000000000000000000000000000000000000000000000000000000606482015290519081900360840190fd5b50565b6000806060600080600080600080600080611a4461317b565b9950611a4e6131fc565b600654600d54919a50985096505b87871015611b6657611a9d600688815481101515611a7657fe5b906000526020600020906005020160010160159054906101000a900463ffffffff16613316565b9550611b59611b4c600689815481101515611ab457fe5b60009182526020918290206040805160e081018252600593909302909101805483526001810154600160a060020a0381169484019490945260a060020a840460ff169183019190915260a860020a90920463ffffffff16606082015260028201546080820152600382015460a082015260049091015460c08201528b518c908a908110611b3d57fe5b9060200190602002015161339e565b8b9063ffffffff61341e16565b9950600190960195611a5c565b600e5460010194508460011415611b7f57899a50611cd3565b438511611ccf5760008581526008602052604081208054909550935091505b82821015611cc4578382815481101515611bb457fe5b60009182526020822060029091020101549050611bd9600682815481101515611a7657fe5b9550611cb7611caa600683815481101515611bf057fe5b60009182526020918290206040805160e081018252600593909302909101805483526001810154600160a060020a0381169484019490945260a060020a840460ff169183019190915260a860020a90920463ffffffff16606082015260028201546080820152600382015460a082015260049091015460c08201528654879086908110611c7957fe5b60009182526020909120600290910201600101548c8a815181101515611c9b57fe5b9060200190602002015161347b565b8b9063ffffffff612da116565b9950600190910190611b9e565b600190940193611b7f565b899a505b5050505050505050505090565b611ce861445c565b600254600160a060020a03163314611d70576040805160e560020a62461bcd02815260206004820152602660248201527f4d616e6167657261626c653a2063616c6c6572206973206e6f7420746865204d60448201527f616e616765720000000000000000000000000000000000000000000000000000606482015290519081900360840190fd5b611d7983612f8a565b6040805160e081018252825481526001830154600160a060020a038116602083015260a060020a810460ff169282019290925260a860020a90910463ffffffff16606082015260028201546080820152600382015460a082015260049091015460c08201529050611de98161301a565b611df381856134cc565b611dfd8183613075565b60c0810151611e12908363ffffffff612da116565b60c082015243600090815260086020908152604080832081518083019092526000198701825281830186905280546001810180835591855292909320611e6192600290810290910191906144ac565b50506040805183815290518491600160a060020a038716917f1fb99acdc281bccbecb3d0073a307341181a8a7d3cd532fdaef5ce7200401c2d9181900360200190a350505050565b611eb1611fd4565b1515611ef5576040805160e560020a62461bcd028152602060048201819052602482015260008051602061454d833981519152604482015290519081900360640190fd5b611a28600a8261353b565b600e5481565b6000611f10611fd4565b1515611f54576040805160e560020a62461bcd028152602060048201819052602482015260008051602061454d833981519152604482015290519081900360640190fd5b611f5f600a836135b2565b92915050565b600054600160a060020a031690565b6006805482908110611f8257fe5b600091825260209091206005909102018054600182015460028301546003840154600490940154929450600160a060020a0382169360a060020a830460ff169360a860020a90930463ffffffff169287565b600054600160a060020a0316331490565b6060600a8054806020026020016040519081016040528092919081815260200182805480156113c957602002820191906000526020600020905b81548152602001906001019080831161201f575050505050905090565b600080600080600080600080600080612076600b60009054906101000a900463ffffffff1663ffffffff168c6130d190919063ffffffff16565b600654909650945084861061208a576120f3565b600b546120a290879063ffffffff9081169061341e16565b9350848411156120b4578493506120c3565b600c548410156120c3576120f3565b6120cd868561365f565b9250925083600d54106120e257600d546120e4565b835b90508282824399509950995099505b5050505050509193509193565b6000611f5f600a80548060200260200160405190810160405280929190818152602001828054801561215157602002820191906000526020600020905b81548152602001906001019080831161213d575b50505050508361379a565b612164611fd4565b15156121a8576040805160e560020a62461bcd028152602060048201819052602482015260008051602061454d833981519152604482015290519081900360640190fd5b60048054600160a060020a031916600160a060020a0392909216919091179055565b6008602052826000526040600020828154811015156121e557fe5b90600052602060002090600202018160028110151561220057fe5b0154925083915050565b606060006060600080600080600080600060125460010198508860011415612234578a995061253c565b43891161253857600089815260086020908152604080832080548251818502810185019093528083529193909284015b828210156122b45760008481526020902060408051808201918290529160028581029091019182845b81548152602001906001019080831161228d57505050505081526020019060010190612264565b50505050975087519650600095505b8686101561252d578e88878151811015156122da57fe5b602090810291909101015151108061230b57508d88878151811015156122fc57fe5b60209081029190910101515110155b1561231557612522565b6006888781518110151561232557fe5b6020908102919091010151518154811061233b57fe5b90600052602060002090600502019450846002015493508c8410806123795750878681518110151561236957fe5b6020908102919091018101510151155b1561238357612522565b60076000898881518110151561239557fe5b60209081029190910181015151825281810192909252604090810160009081206004805460038b015482840154600585015460018e0154885160e060020a63055ef6ab0281529586018490526024860193909352428d0360448601526064850191909152608484015260a060020a900460ff1660a48301529351919750600160a060020a039093169363055ef6ab9360c480820194929392918390030190829087803b15801561244457600080fd5b505af1158015612458573d6000803e3d6000fd5b505050506040513d602081101561246e57600080fd5b5051600384015489519193506124c3916124b7908b908a90811061248e57fe5b602090810291909101810151015160028701546124ab90876130d1565b9063ffffffff6130d116565b9063ffffffff6137d916565b60018401549092506124df908d90600160a060020a031661381b565b9050612509828c838151811015156124f357fe5b602090810290910101519063ffffffff61341e16565b8b8281518110151561251757fe5b602090810290910101525b6001909501946122c3565b600190980197612234565b8a99505b50505050505050505095945050505050565b6010546060906000908190819061257090879063ffffffff908116906130d116565b601054909150612599908790839061259390829063ffffffff9081169061341e16565b886110ca565b935093509350509250925092565b6125af611fd4565b15156125f3576040805160e560020a62461bcd028152602060048201819052602482015260008051602061454d833981519152604482015290519081900360640190fd5b611a28600182613868565b600354600160a060020a031690565b60008060008061261b611fd4565b151561265f576040805160e560020a62461bcd028152602060048201819052602482015260008051602061454d833981519152604482015290519081900360640190fd5b6126688561203c565b935093509350935061267d8585858585610f52565b5050505050565b60065490565b600b5463ffffffff1681565b61269e611fd4565b15156126e2576040805160e560020a62461bcd028152602060048201819052602482015260008051602061454d833981519152604482015290519081900360640190fd5b60028054600160a060020a031916600160a060020a0392909216919091179055565b600254600160a060020a031690565b600061271d61445c565b600254600160a060020a031633146127a5576040805160e560020a62461bcd02815260206004820152602660248201527f4d616e6167657261626c653a2063616c6c6572206973206e6f7420746865204d60448201527f616e616765720000000000000000000000000000000000000000000000000000606482015290519081900360840190fd5b6006805490509150600660e0604051908101604052808460010181526020018b600160a060020a031681526020018a60ff1681526020018963ffffffff16815260200188815260200187815260200186815250908060018154018082558091505090600182039060005260206000209060050201600090919290919091506000820151816000015560208201518160010160006101000a815481600160a060020a030219169083600160a060020a0316021790555060408201518160010160146101000a81548160ff021916908360ff16021790555060608201518160010160156101000a81548163ffffffff021916908363ffffffff1602179055506080820151816002015560a0820151816003015560c08201518160040155505050600960008a600160a060020a0316600160a060020a0316815260200190815260200160002082600101908060018154018082558091505090600182039060005260206000200160009091929091909150555081600014156129285743600e8190556012555b600680548390811061293657fe5b60009182526020918290206040805160e081018252600593909302909101805483526001810154600160a060020a0381169484019490945260a060020a840460ff169183019190915260a860020a90920463ffffffff16606082015260028201546080820152600382015460a082015260049091015460c082015290506129bd8184613931565b6040805160ff8a16815263ffffffff89166020820152808201889052606081018790526080810186905290516001840191600160a060020a038c16917f18f523957030bee670136363e25b2f847bf1bd07bb7b33c6d5475936a9aac70d9181900360a00190a3505050505050505050565b6000612a38611fd4565b1515612a7c576040805160e560020a62461bcd028152602060048201819052602482015260008051602061454d833981519152604482015290519081900360640190fd5b611f5f600183613c5d565b6000611f5f6001805480602002602001604051908101604052809291908181526020018280548015612b0457602002820191906000526020600020906000905b82829054906101000a900463ffffffff1663ffffffff1681526020019060040190602082600301049283019260010382029150808411612ac75790505b505050505083613d54565b60608060008060006060806000612b47601060009054906101000a900463ffffffff1663ffffffff168b6130d190919063ffffffff16565b601054909650612b6290879063ffffffff9081169061341e16565b60065490955093508386101580612b7a575060115485105b15612b8457612cb9565b83851115612b90578394505b6011548611612b9f5760115495505b612ba76131fc565b9250612bb686868c8c87613d9f565b915088519050600099505b808a1015612cb2576003548951600160a060020a03909116906341976e09908b908d908110612bec57fe5b906020019060200201516040518263ffffffff1660e060020a0281526004018082600160a060020a0316600160a060020a03168152602001915050602060405180830381600087803b158015612c4157600080fd5b505af1158015612c55573d6000803e3d6000fd5b505050506040513d6020811015612c6b57600080fd5b5051825183908c908110612c7b57fe5b90602001906020020151811515612c8e57fe5b05828b815181101515612c9d57fe5b60209081029091010152600190990198612bc1565b8183975097505b5050505050509250929050565b611a286001805480602002602001604051908101604052809291908181526020018280548015612d4157602002820191906000526020600020906000905b82829054906101000a900463ffffffff1663ffffffff1681526020019060040190602082600301049283019260010382029150808411612d045790505b505050505082613fff565b612d54611fd4565b1515612d98576040805160e560020a62461bcd028152602060048201819052602482015260008051602061454d833981519152604482015290519081900360640190fd5b611a288161405f565b6000612de383836040805190810160405280601e81526020017f536166654d6174683a207375627472616374696f6e206f766572666c6f770000815250614140565b9392505050565b6060600080600060606000806000806011549650868d111595508515612e0e57869c505b8951604051908082528060200260200182016040528015612e39578160200160208202803883390190505b5094505b8b8d1015612f5c57600680548e908110612e5357fe5b90600052602060002090600502019350836002015492508a831080612e7a57506004840154155b15612e8457612f51565b8515612e92578c9650600095505b600760008e81526020019081526020016000209150612ed78b8360000154858760030154866004015487600501548a60010160149054906101000a900460ff166141dd565b90506000811115612f51576001820154612efb908b90600160a060020a031661381b565b9250612f2482600301546124b786600401546124ab8587600201546130d190919063ffffffff16565b9050612f388186858151811015156124f357fe5b8584815181101515612f4657fe5b602090810290910101525b6001909c019b612e3d565b8515612f6a578c9650600095505b612f778d8d8d8d8961220a565b9d969c50959a5050505050505050505050565b60008082118015612f9d57506006548211155b1515612ff3576040805160e560020a62461bcd02815260206004820152601660248201527f6f7074696f6e206964206973206e6f7420657869737400000000000000000000604482015290519081900360640190fd5b60068054600019840190811061300557fe5b90600052602060002090600502019050919050565b60808101514210611a28576040805160e560020a62461bcd02815260206004820152601160248201527f6f7074696f6e2069732065787069726564000000000000000000000000000000604482015290519081900360640190fd5b60c082015181111561143c576040805160e560020a62461bcd02815260206004820152601d60248201527f6f7074696f6e20616d6f756e7420697320696e73756666696369656e74000000604482015290519081900360640190fd5b6000808315156130e45760009150613174565b508282028284828115156130f457fe5b0414613170576040805160e560020a62461bcd02815260206004820152602160248201527f536166654d6174683a206d756c7469706c69636174696f6e206f766572666c6f60448201527f7700000000000000000000000000000000000000000000000000000000000000606482015290519081900360840190fd5b8091505b5092915050565b600b54600c5460009182918291829163ffffffff9091169081151561319c57fe5b600b5460065492909104935063ffffffff16908115156131b857fe5b0460010190505b808210156131f4576000828152600f60205260409020546131e790849063ffffffff61341e16565b92506001909101906131bf565b509092915050565b600154604080518281526020808402820101909152606091908290600090838015613231578160200160208202803883390190505b509150600090505b828110156131745760035460018054600160a060020a039092169163da66325791908490811061326557fe5b90600052602060002090600891828204019190066004029054906101000a900463ffffffff166040518263ffffffff1660e060020a028152600401808263ffffffff168152602001915050602060405180830381600087803b1580156132ca57600080fd5b505af11580156132de573d6000803e3d6000fd5b505050506040513d60208110156132f457600080fd5b5051825183908390811061330457fe5b60209081029091010152600101613239565b6000611f5f600180548060200260200160405190810160405280929190818152602001828054801561339357602002820191906000526020600020906000905b82829054906101000a900463ffffffff1663ffffffff16815260200190600401906020826003010492830192600103820291508084116133565790505b50505050508361435e565b6000804284608001511115806133b6575060c0840151155b156133c45760009150613174565b5060a08301516040840151600091841060ff9091161514156134005760c084015160a08501516133f99163ffffffff6130d116565b9050613170565b60c084015161341690849063ffffffff6130d116565b949350505050565b600082820183811015613170576040805160e560020a62461bcd02815260206004820152601b60248201527f536166654d6174683a206164646974696f6e206f766572666c6f770000000000604482015290519081900360640190fd5b60a08301516040840151600091829160ff161590841014156134b35760a08501516134ac908563ffffffff6130d116565b9050613416565b6134c3838563ffffffff6130d116565b95945050505050565b80600160a060020a03168260200151600160a060020a031614151561143c576040805160e560020a62461bcd02815260206004820152601f60248201527f63616c6c6572206973206e6f7420746865206f7074696f6e73206f776e657200604482015290519081900360640190fd5b6135948280548060200260200160405190810160405280929190818152602001828054801561358957602002820191906000526020600020905b815481526020019060010190808311613575575b50505050508261379a565b151561143c5781546001810183556000928352602090922090910155565b8154600090815b818110156135ee578385828154811015156135d057fe5b906000526020600020015414156135e6576135ee565b6001016135b9565b81811015613652576000198201811461363857846001830381548110151561361257fe5b9060005260206000200154858281548110151561362b57fe5b6000918252602090912001555b84546136488660001983016144d9565b5060019250613657565b600092505b505092915050565b60008060008060606000806000600c549550858a111594508415613681578599505b6136896131fc565b9350600092505b888a1015613780576136aa60068b815481101515611a7657fe5b915061374760068b8154811015156136be57fe5b60009182526020918290206040805160e081018252600593909302909101805483526001810154600160a060020a0381169484019490945260a060020a840460ff169183019190915260a860020a90920463ffffffff16606082015260028201546080820152600382015460a082015260049091015460c08201528551869085908110611b3d57fe5b90508480156137565750600081115b1561376357899550600094505b613773838263ffffffff61341e16565b6001909a01999250613690565b841561378a578995505b5090989397509295505050505050565b8151600090815b81811015613652578385828151811015156137b857fe5b9060200190602002015114156137d15760019250613657565b6001016137a1565b6000612de383836040805190810160405280601a81526020017f536166654d6174683a206469766973696f6e206279207a65726f0000000000008152506143a5565b8151600090815b818110156134165783600160a060020a0316858281518110151561384257fe5b90602001906020020151600160a060020a0316141561386057613416565b600101613822565b6138ed828054806020026020016040519081016040528092919081815260200182805480156138e257602002820191906000526020600020906000905b82829054906101000a900463ffffffff1663ffffffff16815260200190600401906020826003010492830192600103820291508084116138a55790505b505050505082613d54565b151561143c578154600181018355600092835260209092206008830401805460079093166004026101000a63ffffffff818102199094169290931692909202179055565b60a08201516080830151600554606085015160408087015181517fb4277bc100000000000000000000000000000000000000000000000000000000815263ffffffff909316600484015260ff166024830152429093036044820181905260648201859052835190936000938493849384938493600160a060020a03169263b4277bc1926084808301939282900301818787803b1580156139d057600080fd5b505af11580156139e4573d6000803e3d6000fd5b505050506040513d60408110156139fa57600080fd5b508051602091820151600354604080517f41976e09000000000000000000000000000000000000000000000000000000008152600160a060020a038e811660048301529151949a5092985016926341976e09926024808401938290030181600087803b158015613a6957600080fd5b505af1158015613a7d573d6000803e3d6000fd5b505050506040513d6020811015613a9357600080fd5b505160408051828152602081018a905280820189905290519194507f36bc09f07bcf3d3fa05df7f9c56193487df0507ecd1d5a83845b56b4e6d7b733919081900360600190a1604080516156ce81526020810187905280820186905290517f36bc09f07bcf3d3fa05df7f9c56193487df0507ecd1d5a83845b56b4e6d7b7339181900360600190a1600480546040808c0151815160e060020a63055ef6ab0281529384018b9052602484018b9052604484018a9052606484018990526084840188905260ff1660a484015251600160a060020a039091169163055ef6ab9160c48083019260209291908290030181600087803b158015613b9257600080fd5b505af1158015613ba6573d6000803e3d6000fd5b505050506040513d6020811015613bbc57600080fd5b50519150613bd0828463ffffffff6137d916565b6040805160c081018252428152600160a060020a039a8b1660208083019182528284019485526060830196875260808301998a5260a083019889529c516000190160009081526007909d5291909b209a518b555160018b018054600160a060020a03191691909a161790985550955160028801555093516003860155516004850155505051600590910155565b8154600090815b81811015613cb8578363ffffffff168582815481101515613c8157fe5b6000918252602090912060088204015460079091166004026101000a900463ffffffff161415613cb057613cb8565b600101613c64565b818110156136525760001982018114613d44578460018303815481101515613cdc57fe5b90600052602060002090600891828204019190066004029054906101000a900463ffffffff168582815481101515613d1057fe5b90600052602060002090600891828204019190066004026101000a81548163ffffffff021916908363ffffffff1602179055505b8454613648866000198301614502565b8151600090815b81811015613652578363ffffffff168582815181101515613d7857fe5b9060200190602002015163ffffffff161415613d975760019250613657565b600101613d5b565b60608060606000806000601460008a8152602001908152602001600020805480602002602001604051908101604052809291908181526020018280548015613e0657602002820191906000526020600020905b815481526020019060010190808311613df2575b505050505094508751604051908082528060200260200182016040528015613e38578160200160208202803883390190505b5093505b898b1015613ff057613e5660068c815481101515611a7657fe5b9850613ef360068c815481101515613e6a57fe5b60009182526020918290206040805160e081018252600593909302909101805483526001810154600160a060020a0381169484019490945260a060020a840460ff169183019190915260a860020a90920463ffffffff16606082015260028201546080820152600382015460a082015260049091015460c0820152885189908c908110611b3d57fe5b9250613f9060068c815481101515613f0757fe5b60009182526020918290206040805160e081018252600593909302909101805483526001810154600160a060020a0381169484019490945260a060020a840460ff169183019190915260a860020a90920463ffffffff16606082015260028201546080820152600382015460a082015260049091015460c0820152865187908c908110611b3d57fe5b9150828214613fe5575060008a81526007602052604090206001810154613fc1908990600160a060020a031661381b565b9850818303848a815181101515613fd457fe5b602090810290910101805190910190525b6001909a0199613e3c565b50919998505050505050505050565b6140098282613d54565b151561143c576040805160e560020a62461bcd02815260206004820152601f60248201527f77686974654c6973743a207573696e6720696e76616c69642075696e74333200604482015290519081900360640190fd5b600160a060020a03811615156140e5576040805160e560020a62461bcd02815260206004820152602660248201527f4f776e61626c653a206e6577206f776e657220697320746865207a65726f206160448201527f6464726573730000000000000000000000000000000000000000000000000000606482015290519081900360840190fd5b60008054604051600160a060020a03808516939216917f8be0079c531659141344cd1fd0a4f28419497f9722a3daafe3b4186f6b6457e091a360008054600160a060020a031916600160a060020a0392909216919091179055565b60008082858511156141d35760405160e560020a62461bcd0281526004018080602001828103825283818151815260200191508051906020019080838360005b83811015614198578181015183820152602001614180565b50505050905090810190601f1680156141c55780820380516001836020036101000a031916815260200191505b509250505060405180910390fd5b5050509103919050565b600080600080898b116141f2578989036141f6565b8a89035b600480546040805160e060020a63055ef6ab0281529283018c9052602483018c905260448301849052606483018b9052608483018a905260ff891660a484015251929550600160a060020a03169163055ef6ab9160c4808201926020929091908290030181600087803b15801561426c57600080fd5b505af1158015614280573d6000803e3d6000fd5b505050506040513d602081101561429657600080fd5b5051600480546040805160e060020a63055ef6ab0281529283018c9052602483018c9052428d036044840152606483018b9052608483018a905260ff891660a484015251929450600160a060020a03169163055ef6ab9160c4808201926020929091908290030181600087803b15801561430f57600080fd5b505af1158015614323573d6000803e3d6000fd5b505050506040513d602081101561433957600080fd5b5051905080821161434b57600061434f565b8082035b9b9a5050505050505050505050565b8151600090815b81811015613416578363ffffffff16858281518110151561438257fe5b9060200190602002015163ffffffff16141561439d57613416565b600101614365565b600080828185116143fb5760405160e560020a62461bcd02815260040180806020018281038252838181518152602001915080519060200190808383600083811015614198578181015183820152602001614180565b50838581151561440757fe5b0495945050505050565b82805482825590600052602060002090810192821561444c579160200282015b8281111561444c578251825591602001919060010190614431565b50614458929150614532565b5090565b60e060405190810160405280600081526020016000600160a060020a03168152602001600060ff168152602001600063ffffffff1681526020016000815260200160008152602001600081525090565b826002810192821561444c579160200282018281111561444c578251825591602001919060010190614431565b8154818355818111156144fd576000838152602090206144fd918101908301614532565b505050565b8154818355818111156144fd5760070160089004816007016008900483600052602060002091820191016144fd91905b6113d191905b80821115614458576000815560010161453856004f776e61626c653a2063616c6c6572206973206e6f7420746865206f776e6572a165627a7a723058209a7ebf55beb79d62e67b4bcbb23536ab3d7bcde81457dff666bbf5e188c9a20600294f776e61626c653a2063616c6c6572206973206e6f7420746865206f776e6572",
  "source": "pragma solidity ^0.4.26;\r\nimport \"./modules/SafeMath.sol\";\r\nimport \"./modules/Managerable.sol\";\r\nimport \"./interfaces/ICompoundOracle.sol\";\r\nimport \"./modules/underlyingAssets.sol\";\r\nimport \"./interfaces/IOptionsPrice.sol\";\r\nimport \"./interfaces/IVolatility.sol\";\r\ncontract OptionsPool is UnderlyingAssets,Managerable,ImportOracle,ImportOptionsPrice,ImportVolatility {\r\n    \r\n    using SafeMath for uint256;\r\n    struct OptionsInfo {\r\n        uint256     optionID;\r\n        address     owner;\r\n        uint8   \toptType;    //0 for call, 1 for put\r\n        uint32\t\tunderlying;\r\n        uint256\t\texpiration;\r\n        uint256     strikePrice;\r\n        uint256     amount;\r\n    }\r\n\r\n    struct OptionsInfoEx{\r\n        uint256\t\tcreatedTime;\r\n        address     settlement;\r\n        uint256     tokenTimePrice;\r\n        uint256     fullPrice;\r\n        uint256      ivNumerator;\r\n        uint256      ivDenominator;\r\n    }\r\n    //options information\r\n    OptionsInfo[] public allOptions;\r\n    mapping(uint256=>OptionsInfoEx) internal optionExtraMap;\r\n    //each block burn options\r\n    mapping(uint256=>uint256[2][]) public burnBlockOptions;\r\n    //user options balances\r\n    mapping(address=>uint256[]) public optionsBalances;\r\n    //expiration whitelist\r\n    uint256[] public expirationList;\r\n\r\n    //calculate options Collateral occupied phases\r\n    uint32 public optionPhase = 400;\r\n    uint256 internal firstOption = 0;\r\n    uint256 public lastCallOption;\r\n    uint256 public lastCalBlock;\r\n    mapping(uint256=>uint256) internal OptionsPhases;\r\n\r\n    //calculate Options time shared value phasea\r\n    uint32 public sharedPhase = 400;\r\n    uint256 public firstOption_share;\r\n    uint256 public lastCalBlock_share;\r\n    mapping (uint256 =>uint256) internal OptionsPhaseTimes;\r\n    mapping (uint256 =>uint256[]) internal OptionsPhasePrices;\r\n\r\n\r\n    event CreateOption(address indexed owner,uint256 indexed optionID,uint8 optType,uint32 underlying,uint256 expiration,uint256 strikePrice,uint256 amount);\r\n    event BurnOption(address indexed owner,uint256 indexed optionID,uint amount);\r\n    event DebugEvent(uint256 value1,uint256 value2,uint256 value3);\r\n    constructor (address oracleAddr,address optionsPriceAddr,address ivAddress) public{\r\n        setOracleAddress(oracleAddr);\r\n        setOptionsPriceAddress(optionsPriceAddr);\r\n        setVolatilityAddress(ivAddress);\r\n    }\r\n    function getOptionBalances(address user)public view returns(uint256[]){\r\n        return optionsBalances[user];\r\n    }\r\n    function getOptionInfoLength()public view returns (uint256){\r\n        return allOptions.length;\r\n    }\r\n    function getOptionInfoList(uint256 from,uint256 size)public view \r\n                returns(address[],uint256[],uint256[],uint256[],uint256[]){\r\n        if (from+size>allOptions.length){\r\n            size = allOptions.length.sub(from);\r\n        }\r\n        if (size>0){\r\n            address[] memory ownerArr = new address[](size);\r\n            uint256[] memory typeAndUnderArr = new uint256[](size);\r\n            uint256[] memory expArr = new uint256[](size);\r\n            uint256[] memory priceArr = new uint256[](size);\r\n            uint256[] memory amountArr = new uint256[](size);\r\n            for (uint i=0;i<size;i++){\r\n                OptionsInfo storage info = allOptions[from+i];\r\n                ownerArr[i] = info.owner;\r\n                typeAndUnderArr[i] = info.underlying << 16 + info.optType;\r\n                expArr[i] = info.expiration;\r\n                priceArr[i] = info.strikePrice;\r\n                amountArr[i] = info.amount;\r\n            }\r\n            return (ownerArr,typeAndUnderArr,expArr,priceArr,amountArr);\r\n        }\r\n    }\r\n    function getOptionInfoListFromID(uint256[] ids)public view \r\n                returns(address[],uint256[],uint256[],uint256[],uint256[]){\r\n        uint256 size = ids.length;\r\n        address[] memory ownerArr = new address[](size);\r\n        uint256[] memory typeAndUnderArr = new uint256[](size);\r\n        uint256[] memory expArr = new uint256[](size);\r\n        uint256[] memory priceArr = new uint256[](size);\r\n        uint256[] memory amountArr = new uint256[](size);\r\n        for (uint i=0;i<size;i++){\r\n            OptionsInfo storage info = _getOptionsById(ids[i]);\r\n            ownerArr[i] = info.owner;\r\n            typeAndUnderArr[i] = info.underlying << 16 + info.optType;\r\n            expArr[i] = info.expiration;\r\n            priceArr[i] = info.strikePrice;\r\n            amountArr[i] = info.amount;\r\n        }\r\n        return (ownerArr,typeAndUnderArr,expArr,priceArr,amountArr);\r\n    }\r\n    function getLatestOption()public view returns(uint256,address,uint8,uint32,uint256,uint256,uint256){\r\n        uint256 len = allOptions.length;\r\n        require(len>0,\"options list is empty\");\r\n        OptionsInfo storage info = allOptions[len-1];\r\n        return (info.optionID,info.owner,info.optType,info.underlying,info.expiration,info.strikePrice,info.amount);\r\n    }\r\n\r\n    function getOptionsById(uint256 optionsId)public view returns(uint256,address,uint8,uint32,uint256,uint256,uint256){\r\n        OptionsInfo storage info = _getOptionsById(optionsId);\r\n        return (info.optionID,info.owner,info.optType,info.underlying,info.expiration,info.strikePrice,info.amount);\r\n    }\r\n\r\n    function setPhaseOccupiedCollateral(uint256 index) public onlyOwner {\r\n        (uint256 totalOccupied,uint256 beginOption,uint256 lastOption,uint256 blockNum) = calculatePhaseOccupiedCollateral(index);\r\n        setCollateralPhase(index,totalOccupied,beginOption,lastOption,blockNum);\r\n    }\r\n    function setCollateralPhase(uint256 index,uint256 totalOccupied,uint256 beginOption,uint256 lastOption,uint256 lastBlock) public onlyOwner{\r\n        if (beginOption > firstOption){\r\n            firstOption = beginOption;\r\n        }\r\n        if(lastCallOption < lastOption){\r\n            lastCallOption = lastOption;\r\n            lastCalBlock = lastBlock;\r\n        }\r\n        OptionsPhases[index] = totalOccupied;\r\n    }\r\n    function calculatePhaseOccupiedCollateral(uint256 index) public view returns(uint256,uint256,uint256,uint256){\r\n        uint256 beginOption = index.mul(optionPhase);\r\n        uint256 allLen = allOptions.length;\r\n        if (beginOption>=allLen){\r\n            return;\r\n        }\r\n        uint256 lastOption = beginOption.add(optionPhase);\r\n        if (lastOption>allLen) {\r\n            lastOption = allLen;\r\n        }else if(lastOption < firstOption){\r\n            return;\r\n        }\r\n        (uint256 totalOccupied,uint256 newFirstOption) = _calculateOccupiedCollateral(beginOption,lastOption);\r\n        uint256 last = lastCallOption<lastOption ? lastOption : lastCallOption;\r\n        return (totalOccupied,newFirstOption,last,block.number);\r\n    }\r\n    function _calculateOccupiedCollateral(uint256 begin,uint256 end)internal view returns(uint256,uint256){\r\n        uint256 newFirstOption = firstOption;\r\n        bool bfirstPhase = begin <= newFirstOption;\r\n        if (bfirstPhase) {\r\n            begin = newFirstOption;\r\n        }\r\n        uint256[] memory prices = getUnderlyingPrices();\r\n        uint256 totalOccupied = 0;\r\n        for (;begin<end;begin++){\r\n            uint256 index = _getEligibleUnderlyingIndex(allOptions[begin].underlying);\r\n            uint256 value = calOptionsCollateral(allOptions[begin],prices[index]);\r\n            if (bfirstPhase && value > 0){\r\n                newFirstOption = begin;\r\n                bfirstPhase = false;\r\n            }\r\n            totalOccupied = totalOccupied.add(value);\r\n        }\r\n        //all options in this phase are empty;\r\n        if (bfirstPhase){\r\n            newFirstOption = begin;\r\n        }\r\n        return (totalOccupied,newFirstOption);\r\n    }\r\n    function setSharedState(uint256 index,uint256 _firstOption,uint256[] prices,uint256 lastBlock,uint256 calTime) public onlyManager{\r\n        if (_firstOption > firstOption_share){\r\n            firstOption_share = _firstOption;\r\n        }\r\n        if(lastBlock < lastCalBlock_share){\r\n            lastCalBlock_share = lastBlock;\r\n        }\r\n        OptionsPhaseTimes[index] = calTime;\r\n        OptionsPhasePrices[index] = prices;\r\n    }\r\n    function calculatePhaseSharedPayment(uint256 index,address[] memory whiteList) public view returns(uint256[],uint256,uint256){\r\n        uint256 beginOption = index.mul(sharedPhase);\r\n        return calRangeSharedPayment(index,beginOption,beginOption.add(sharedPhase),whiteList);\r\n    }\r\n    function calRangeSharedPayment(uint256 index,uint256 beginOption,uint256 lastOption,address[] memory whiteList) public view returns(uint256[],uint256,uint256){\r\n        uint256 allLen = allOptions.length;\r\n        if (beginOption>=allLen || lastOption < firstOption_share){\r\n            return;\r\n        }\r\n        if (lastOption>allLen) {\r\n            lastOption = allLen;\r\n        }\r\n        (uint256[] memory sharedBalances,uint256 _firstOption) = _calculateSharedPayment(beginOption,lastOption,OptionsPhaseTimes[index],whiteList);\r\n        return (sharedBalances,_firstOption,block.number);\r\n    }\r\n    function _calculateSharedPayment(uint256 begin,uint256 end,uint256 preTime,address[] memory whiteList)internal view returns(uint256[],uint256){\r\n        uint256 newFirstOption = firstOption_share;\r\n        bool bfirstPhase = begin <= newFirstOption;\r\n        if (bfirstPhase) {\r\n            begin = newFirstOption;\r\n        }\r\n        uint256[] memory totalSharedPayment = new uint256[](whiteList.length);\r\n        for (;begin<end;begin++){\r\n            OptionsInfo storage info = allOptions[begin];\r\n            uint256 tempValue = info.expiration;\r\n            if(tempValue<preTime || info.amount == 0){\r\n                continue;\r\n            }\r\n            if(bfirstPhase){\r\n                newFirstOption = begin;\r\n                bfirstPhase = false;\r\n            }\r\n            OptionsInfoEx storage optionEx = optionExtraMap[begin];\r\n            uint256 timeValue = _calculateTimePrice(preTime,optionEx.createdTime,tempValue,info.strikePrice,\r\n                    optionEx.ivNumerator,optionEx.ivDenominator,info.optType);\r\n            if (timeValue>0){\r\n                tempValue = whiteListAddress._getEligibleIndexAddress(whiteList,optionEx.settlement);\r\n                timeValue = optionEx.tokenTimePrice.mul((timeValue)).mul(info.amount).div(optionEx.fullPrice);\r\n                totalSharedPayment[tempValue] = totalSharedPayment[tempValue].add(timeValue);\r\n            }\r\n        }\r\n        //all options in this phase are empty;\r\n        if(bfirstPhase){\r\n            newFirstOption = begin;\r\n            bfirstPhase = false;\r\n        }\r\n        //burned\r\n        return (_calBurnedSharePrice(begin,end,preTime,whiteList,totalSharedPayment),newFirstOption);\r\n    }\r\n    function _calBurnedSharePrice(uint256 beginIndex,uint256 endIndex,uint256 preTime,address[] memory whiteList,uint256[] memory totalSharedPayment)public view returns(uint256[]){\r\n        uint256 beginBlock = lastCalBlock_share+1;\r\n        if (beginBlock == 1){\r\n            return totalSharedPayment;\r\n        }\r\n        for (; beginBlock <= block.number;beginBlock++){\r\n            uint256[2][] memory burnedTokens = burnBlockOptions[beginBlock];\r\n            uint burnedLen = burnedTokens.length;\r\n            for (uint256 i = 0;i<burnedLen;i++){\r\n                if(burnedTokens[i][0]<beginIndex || burnedTokens[i][0] >=endIndex){\r\n                   continue;\r\n                }\r\n                OptionsInfo storage info = allOptions[burnedTokens[i][0]];\r\n                uint256 expiration = info.expiration;\r\n                if(expiration<preTime || burnedTokens[i][1] == 0){\r\n                    continue;\r\n                }\r\n                OptionsInfoEx storage optionEx = optionExtraMap[burnedTokens[i][0]];\r\n                uint256 nowValue = _optionsPrice.getOptionsPrice_iv(info.strikePrice,info.strikePrice,expiration-now,optionEx.ivNumerator,\r\n                    optionEx.ivDenominator,info.optType);\r\n                nowValue = optionEx.tokenTimePrice.mul(nowValue).mul(burnedTokens[i][1]).div(optionEx.fullPrice);\r\n                uint256 index = whiteListAddress._getEligibleIndexAddress(whiteList,optionEx.settlement);\r\n                totalSharedPayment[index] = totalSharedPayment[index].add(nowValue);\r\n            }\r\n        }       \r\n        return totalSharedPayment;\r\n    }\r\n    function _calculateTimePrice(uint256 preTime,uint256 createdTime,uint256 expiration,\r\n            uint256 strikePrice,uint256 ivNumerator,uint256 ivDenominator,uint8 optType)internal view returns (uint256){\r\n        uint256 preExpiration = preTime>createdTime ? expiration - preTime : expiration - createdTime;\r\n        uint256 preValue = _optionsPrice.getOptionsPrice_iv(strikePrice,strikePrice,preExpiration,ivNumerator,\r\n            ivDenominator,optType);\r\n        uint256 nowValue = _optionsPrice.getOptionsPrice_iv(strikePrice,strikePrice,expiration-now,ivNumerator,\r\n            ivDenominator,optType);\r\n        return (preValue>nowValue)? preValue-nowValue : 0;\r\n    }\r\n    function calculatePhaseOptionsFall(uint256 index,address[] memory whiteList) public view returns(int256[],uint256[]){\r\n        uint256 begin = index.mul(sharedPhase);\r\n        uint256 lastOption = begin.add(sharedPhase);\r\n        uint256 allLen = allOptions.length;\r\n        if (begin>=allLen || lastOption < firstOption_share){\r\n            return;\r\n        }\r\n        if (lastOption>allLen) {\r\n            lastOption = allLen;\r\n        }\r\n        if (begin <= firstOption_share) {\r\n            begin = firstOption_share;\r\n        }\r\n        uint256[] memory prices = getUnderlyingPrices();\r\n        int256[] memory OptionsFallBalances = _calRangeOptionsFall(begin,lastOption,index,whiteList,prices);\r\n        uint256 whiteListLen = whiteList.length;\r\n        for (index = 0;index<whiteListLen;index++){\r\n            OptionsFallBalances[index] = OptionsFallBalances[index]/(int256(_oracle.getPrice(whiteList[index])));\r\n        }\r\n        return (OptionsFallBalances,prices);\r\n    }\r\n    function _calRangeOptionsFall(uint256 begin,uint256 lastOption,uint256 index,address[] memory whiteList,uint256[] memory prices)\r\n                 internal view returns(int256[] memory){\r\n        uint256[] memory lastPrice = OptionsPhasePrices[index];\r\n        int256[] memory OptionsFallBalances = new int256[](whiteList.length);\r\n\r\n        for (;begin<lastOption;begin++){\r\n            index = _getEligibleUnderlyingIndex(allOptions[begin].underlying);\r\n            uint256 curValue = calOptionsCollateral(allOptions[begin],prices[index]);\r\n            uint256 preValue = calOptionsCollateral(allOptions[begin],lastPrice[index]);\r\n            if (preValue != curValue){\r\n                OptionsInfoEx storage optionEx = optionExtraMap[begin];\r\n                index = whiteListAddress._getEligibleIndexAddress(whiteList,optionEx.settlement);\r\n                OptionsFallBalances[index] += int256(curValue) - int256(preValue);\r\n            }\r\n        }\r\n        return OptionsFallBalances;\r\n    }\r\n    function getUnderlyingPrices()internal view returns(uint256[] memory){\r\n        uint256 underlyingLen = underlyingAssets.length;\r\n        uint256[] memory prices = new uint256[](underlyingLen);\r\n        for (uint256 i = 0;i<underlyingLen;i++){\r\n            prices[i] = _oracle.getUnderlyingPrice(underlyingAssets[i]);\r\n        }\r\n        return prices;\r\n    }\r\n\r\n    function createOptions(address from,uint8 optType,uint32 underlying,uint256 expiration,uint256 strikePrice,\r\n        uint256 amount,address settlement) onlyManager public {\r\n        uint256 optionID = allOptions.length;\r\n        allOptions.push(OptionsInfo(optionID+1,from,optType,underlying,expiration,strikePrice,amount));\r\n        optionsBalances[from].push(optionID+1);\r\n        if (optionID == 0){\r\n            lastCalBlock = block.number;\r\n            lastCalBlock_share = block.number;\r\n        }\r\n        OptionsInfo memory info = allOptions[optionID];\r\n        setOptionsExtra(info,settlement);\r\n        emit CreateOption(from,optionID+1,optType,underlying,expiration,strikePrice,amount);\r\n    }\r\n    function setOptionsExtra(OptionsInfo memory info,address settlement) internal{\r\n        uint256 strikePrice = info.strikePrice;\r\n        uint256 expiration = info.expiration - now;\r\n        (uint256 ivNumerator,uint256 ivDenominator) = _volatility.calculateIv(info.underlying,info.optType,expiration,strikePrice);\r\n        uint256 settlePrice = _oracle.getPrice(settlement);\r\n        emit DebugEvent(settlePrice,strikePrice,expiration);\r\n        emit DebugEvent(22222,ivNumerator,ivDenominator);\r\n        uint256 fullPrice = _optionsPrice.getOptionsPrice_iv(strikePrice,strikePrice,expiration,ivNumerator,ivDenominator,info.optType);\r\n        uint256 tokenTimePrice = fullPrice.div(settlePrice);\r\n        optionExtraMap[info.optionID-1]= OptionsInfoEx(now,settlement,tokenTimePrice,fullPrice,ivNumerator,ivDenominator);\r\n    }\r\n    function getTotalOccupiedCollateral() public view returns (uint256) {\r\n        uint256 totalOccupied = sumOptionPhases();\r\n        uint256[] memory prices = getUnderlyingPrices();\r\n        uint optionsLen = allOptions.length;\r\n        for (uint256 beginOption = lastCallOption; beginOption < optionsLen;beginOption++){\r\n            uint256 index = _getEligibleUnderlyingIndex(allOptions[beginOption].underlying);\r\n            totalOccupied = totalOccupied.add(calOptionsCollateral(allOptions[beginOption],prices[index]));\r\n        }\r\n        uint256 beginBlock = lastCalBlock+1;\r\n        if (beginBlock == 1){\r\n            return totalOccupied;\r\n        }\r\n        for (; beginBlock <= block.number;beginBlock++){\r\n            uint256[2][] storage burnedTokens = burnBlockOptions[beginBlock];\r\n            uint burnedLen = burnedTokens.length;\r\n            for (uint256 i = 0;i<burnedLen;i++){\r\n                uint optionId = burnedTokens[i][0];\r\n                index = _getEligibleUnderlyingIndex(allOptions[optionId].underlying);\r\n                totalOccupied = totalOccupied.sub(calBurnedOptionsCollateral(allOptions[optionId],\r\n                    burnedTokens[i][1],prices[index]));\r\n            }\r\n        }\r\n        return totalOccupied;\r\n    }\r\n    function sumOptionPhases()internal view returns(uint256){\r\n        uint256 totalOccupied = 0;\r\n        uint256 i = firstOption/optionPhase;\r\n        uint256 phaseLen = allOptions.length/optionPhase+1;\r\n        for (;i<phaseLen;i++){\r\n            totalOccupied = totalOccupied.add(OptionsPhases[i]);\r\n        }\r\n        return totalOccupied;\r\n    }\r\n    function calOptionsCollateral(OptionsInfo memory option,uint256 underlyingPrice)internal view returns(uint256){\r\n        if (option.expiration<=now || option.amount == 0){\r\n            return 0;\r\n        }\r\n        uint256 totalOccupied = 0;\r\n        if ((option.optType == 0) == (option.strikePrice>underlyingPrice)){ // call\r\n            totalOccupied = option.strikePrice.mul(option.amount);\r\n        } else {\r\n            totalOccupied = underlyingPrice.mul(option.amount);\r\n        }\r\n        return totalOccupied;\r\n    }\r\n    function calBurnedOptionsCollateral(OptionsInfo memory option,uint256 burned,uint256 underlyingPrice)internal pure returns(uint256){\r\n        uint256 totalOccupied = 0;\r\n        if ((option.optType == 0) == (option.strikePrice>underlyingPrice)){ // call\r\n            totalOccupied = option.strikePrice.mul(burned);\r\n        } else {\r\n            totalOccupied = underlyingPrice.mul(burned);\r\n        }\r\n        return totalOccupied;\r\n    }\r\n    function burnOptions(address from,uint256 id,uint256 amount)public onlyManager{\r\n        OptionsInfo memory info = _getOptionsById(id);\r\n        checkEligible(info);\r\n        checkOwner(info,from);\r\n        checkSufficient(info,amount);\r\n        info.amount = info.amount.sub(amount);\r\n        burnBlockOptions[block.number].push([id-1,amount]);\r\n        emit BurnOption(from,id,amount);\r\n    }\r\n    function getExerciseWorth(uint256 optionsId,uint256 amount)public view returns(uint256){\r\n        OptionsInfo memory info = _getOptionsById(optionsId);\r\n        checkEligible(info);\r\n        checkSufficient(info,amount);\r\n        uint256 underlyingPrice = _oracle.getUnderlyingPrice(info.underlying);\r\n        uint256 tokenPayback = 0;\r\n        if (info.optType == 0){\r\n            if (underlyingPrice > info.strikePrice){\r\n                tokenPayback = underlyingPrice - info.strikePrice;\r\n            }\r\n        }else{\r\n            if ( underlyingPrice < info.strikePrice){\r\n                tokenPayback = info.strikePrice-underlyingPrice;\r\n            }\r\n        }\r\n        if (tokenPayback == 0 ){\r\n            return 0;\r\n        } \r\n        return tokenPayback.mul(amount);\r\n    }\r\n    function _getOptionsById(uint256 id)internal view returns(OptionsInfo storage){\r\n        require(id>0 && id <= allOptions.length,\"option id is not exist\");\r\n        return allOptions[id-1];\r\n    }\r\n    function checkEligible(OptionsInfo memory info)internal view{\r\n        require(info.expiration>now,\"option is expired\");\r\n    }\r\n    function checkOwner(OptionsInfo memory info,address owner)internal pure{\r\n        require(info.owner == owner,\"caller is not the options owner\");\r\n    }\r\n    function checkSufficient(OptionsInfo memory info,uint256 amount) internal pure{\r\n        require(info.amount >= amount,\"option amount is insufficient\");\r\n    }\r\n    function buyOptionCheck(uint256 expiration,uint32 underlying)public view{\r\n        require(isEligibleUnderlyingAsset(underlying) , \"underlying is unsupported asset\");\r\n        checkExpiration(expiration);\r\n    }\r\n        /**\r\n     * @dev Implementation of add an eligible expiration into the expirationList.\r\n     * @param expiration new eligible expiration.\r\n     */\r\n    function addExpiration(uint256 expiration)public onlyOwner{\r\n        whiteListUint256.addWhiteListUint256(expirationList,expiration);\r\n    }\r\n    /**\r\n     * @dev Implementation of revoke an invalid expiration from the expirationList.\r\n     * @param removeExpiration revoked expiration.\r\n     */\r\n    function removeExpirationList(uint256 removeExpiration)public onlyOwner returns(bool) {\r\n        return whiteListUint256.removeWhiteListUint256(expirationList,removeExpiration);\r\n    }\r\n    /**\r\n     * @dev Implementation of getting the eligible expirationList.\r\n     */\r\n    function getExpirationList()public view returns (uint256[]){\r\n        return expirationList;\r\n    }\r\n    /**\r\n     * @dev Implementation of testing whether the input expiration is eligible.\r\n     * @param expiration input expiration for testing.\r\n     */    \r\n    function isEligibleExpiration(uint256 expiration) public view returns (bool){\r\n        return whiteListUint256.isEligibleUint256(expirationList,expiration);\r\n    }\r\n    function checkExpiration(uint256 expiration) public view{\r\n        return require(isEligibleExpiration(expiration),\"expiration value is not supported\");\r\n    }\r\n    function _getEligibleExpirationIndex(uint256 expiration) internal view returns (uint256){\r\n        return whiteListUint256._getEligibleIndexUint256(expirationList,expiration);\r\n    }\r\n\r\n}",
  "sourcePath": "C:\\work\\solidity\\FinnexusOptions_V2\\contracts\\OptionsPool.sol",
  "compiler": {
    "name": "solc",
    "version": "0.4.26+commit.4563c3fc.Emscripten.clang"
  },
  "schemaVersion": "3.1.0",
  "updatedAt": "2020-07-22T03:09:58.173Z",
  "networkType": "ethereum",
  "devdoc": {
    "methods": {
      "addExpiration(uint256)": {
        "details": "Implementation of add an eligible expiration into the expirationList.\r",
        "params": {
          "expiration": "new eligible expiration.\r"
        }
      },
      "addUnderlyingAsset(uint32)": {
        "details": "Implementation of add an eligible underlying into the underlyingAssets.\r",
        "params": {
          "underlying": "new eligible underlying.\r"
        }
      },
      "getExpirationList()": {
        "details": "Implementation of getting the eligible expirationList.\r"
      },
      "getUnderlyingAssets()": {
        "details": "Implementation of getting the eligible underlyingAssets.\r"
      },
      "isEligibleExpiration(uint256)": {
        "details": "Implementation of testing whether the input expiration is eligible.\r",
        "params": {
          "expiration": "input expiration for testing.\r"
        }
      },
      "isEligibleUnderlyingAsset(uint32)": {
        "details": "Implementation of testing whether the input underlying is eligible.\r",
        "params": {
          "underlying": "input underlying for testing.\r"
        }
      },
      "isOwner()": {
        "details": "Returns true if the caller is the current owner."
      },
      "owner()": {
        "details": "Returns the address of the current owner."
      },
      "removeExpirationList(uint256)": {
        "details": "Implementation of revoke an invalid expiration from the expirationList.\r",
        "params": {
          "removeExpiration": "revoked expiration.\r"
        }
      },
      "removeUnderlyingAssets(uint32)": {
        "details": "Implementation of revoke an invalid underlying from the underlyingAssets.\r",
        "params": {
          "removeUnderlying": "revoked underlying.\r"
        }
      },
      "renounceOwnership()": {
        "details": "Leaves the contract without owner. It will not be possible to call `onlyOwner` functions anymore. Can only be called by the current owner.     * NOTE: Renouncing ownership will leave the contract without an owner, thereby removing any functionality that is only available to the owner."
      },
      "transferOwnership(address)": {
        "details": "Transfers ownership of the contract to a new account (`newOwner`). Can only be called by the current owner."
      }
    }
  },
  "userdoc": {
    "methods": {
      "setManager(address)": {
        "notice": "contribution period to stop or not."
      }
    }
  }
}