{
  "contractName": "OptionsPrice",
  "abi": [
    {
      "constant": false,
      "inputs": [],
      "name": "renounceOwnership",
      "outputs": [],
      "payable": false,
      "stateMutability": "nonpayable",
      "type": "function"
    },
    {
      "constant": true,
      "inputs": [],
      "name": "owner",
      "outputs": [
        {
          "name": "",
          "type": "address"
        }
      ],
      "payable": false,
      "stateMutability": "view",
      "type": "function"
    },
    {
      "constant": true,
      "inputs": [],
      "name": "isOwner",
      "outputs": [
        {
          "name": "",
          "type": "bool"
        }
      ],
      "payable": false,
      "stateMutability": "view",
      "type": "function"
    },
    {
      "constant": false,
      "inputs": [
        {
          "name": "newOwner",
          "type": "address"
        }
      ],
      "name": "transferOwnership",
      "outputs": [],
      "payable": false,
      "stateMutability": "nonpayable",
      "type": "function"
    },
    {
      "anonymous": false,
      "inputs": [
        {
          "indexed": true,
          "name": "previousOwner",
          "type": "address"
        },
        {
          "indexed": true,
          "name": "newOwner",
          "type": "address"
        }
      ],
      "name": "OwnershipTransferred",
      "type": "event"
    },
    {
      "constant": false,
      "inputs": [
        {
          "name": "ivNumerator",
          "type": "int256"
        },
        {
          "name": "ivDenominator",
          "type": "int256"
        }
      ],
      "name": "setIV",
      "outputs": [],
      "payable": false,
      "stateMutability": "nonpayable",
      "type": "function"
    },
    {
      "constant": true,
      "inputs": [],
      "name": "getIV",
      "outputs": [
        {
          "name": "",
          "type": "int256"
        },
        {
          "name": "",
          "type": "int256"
        }
      ],
      "payable": false,
      "stateMutability": "view",
      "type": "function"
    },
    {
      "constant": true,
      "inputs": [
        {
          "name": "currentPrice",
          "type": "uint256"
        },
        {
          "name": "strikePrice",
          "type": "uint256"
        },
        {
          "name": "expiration",
          "type": "uint256"
        },
        {
          "name": "optType",
          "type": "uint8"
        }
      ],
      "name": "getOptionsPrice",
      "outputs": [
        {
          "name": "",
          "type": "uint256"
        }
      ],
      "payable": false,
      "stateMutability": "view",
      "type": "function"
    },
    {
      "constant": true,
      "inputs": [
        {
          "name": "currentPrice",
          "type": "uint256"
        },
        {
          "name": "strikePrice",
          "type": "uint256"
        },
        {
          "name": "expiration",
          "type": "uint256"
        },
        {
          "name": "ivNumerator",
          "type": "uint256"
        },
        {
          "name": "ivDenominator",
          "type": "uint256"
        },
        {
          "name": "optType",
          "type": "uint8"
        }
      ],
      "name": "getOptionsPrice_iv",
      "outputs": [
        {
          "name": "",
          "type": "uint256"
        }
      ],
      "payable": false,
      "stateMutability": "view",
      "type": "function"
    }
  ],
  "bytecode": "0x6301e13380600155600560808190526103e860a081905260028290556003556101006040819052603260c0819052606460e081905260049190915590915560008054600160a060020a0319163317808255600160a060020a0316917f8be0079c531659141344cd1fd0a4f28419497f9722a3daafe3b4186f6b6457e0908290a36115198061008e6000396000f30060806040526004361061008d5763ffffffff7c0100000000000000000000000000000000000000000000000000000000600035041663055ef6ab81146100925780632f581f48146100ce578063715018a6146100f25780638a4698df146101095780638da5cb5b146101245780638f32d59b14610155578063a569a2d71461017e578063f2fde38b146101ac575b600080fd5b34801561009e57600080fd5b506100bc60043560243560443560643560843560ff60a435166101cd565b60408051918252519081900360200190f35b3480156100da57600080fd5b506100bc60043560243560443560ff60643516610256565b3480156100fe57600080fd5b506101076102ed565b005b34801561011557600080fd5b506101076004356024356103a2565b34801561013057600080fd5b5061013961040b565b60408051600160a060020a039092168252519081900360200190f35b34801561016157600080fd5b5061016a61041a565b604080519115158252519081900360200190f35b34801561018a57600080fd5b5061019361042b565b6040805192835260208301919091528051918290030190f35b3480156101b857600080fd5b50610107600160a060020a0360043516610435565b60006101d76114a7565b50604080518082019091528481526020810184905260ff8316151561022457604080518082019091526002548152600354602082015261021d908990899089908561049f565b915061024b565b604080518082019091526002548152600354602082015261021d9089908990899085610599565b509695505050505050565b600060ff821615156102a757604080518082018252600254815260035460208083019190915282518084019093526004548352600554908301526102a0918791879187919061049f565b90506102e5565b604080518082018252600254815260035460208083019190915282518084019093526004548352600554908301526102a09187918791879190610599565b949350505050565b6102f561041a565b151561034b576040805160e560020a62461bcd02815260206004820181905260248201527f4f776e61626c653a2063616c6c6572206973206e6f7420746865206f776e6572604482015290519081900360640190fd5b60008054604051600160a060020a03909116907f8be0079c531659141344cd1fd0a4f28419497f9722a3daafe3b4186f6b6457e0908390a36000805473ffffffffffffffffffffffffffffffffffffffff19169055565b6103aa61041a565b1515610400576040805160e560020a62461bcd02815260206004820181905260248201527f4f776e61626c653a2063616c6c6572206973206e6f7420746865206f776e6572604482015290519081900360640190fd5b600491909155600555565b600054600160a060020a031690565b600054600160a060020a0316331490565b6004546005549091565b61043d61041a565b1515610493576040805160e560020a62461bcd02815260206004820181905260248201527f4f776e61626c653a2063616c6c6572206973206e6f7420746865206f776e6572604482015290519081900360640190fd5b61049c816106ae565b50565b60006104a96114a7565b6104b16114a7565b6104b96114a7565b6104c16114a7565b6104ce8a8a8a8a8a61079c565b935093506104db846108c8565b93506104e6836108c8565b92506105078460408051908101604052808d81526020016001815250610b2a565b93506105288360408051908101604052808c81526020016001815250610b2a565b925061054a8760408051908101604052808b8152602001600154815250610b2a565b915061055d61055883610b53565b610bce565b91506105698383610b2a565b90506105758482610bf4565b90508060200151816000015181151561058a57fe5b059a9950505050505050505050565b60006105a36114a7565b6105ab6114a7565b6105b36114a7565b6105bb6114a7565b6105c88a8a8a8a8a61079c565b935093506105d5846108c8565b93506105e0836108c8565b9250610602604080519081016040528060018152602001600181525085610bf4565b9350610624604080519081016040528060018152602001600181525084610bf4565b92506106458460408051908101604052808d81526020016001815250610b2a565b93506106668360408051908101604052808c81526020016001815250610b2a565b92506106888760408051908101604052808b8152602001600154815250610b2a565b915061069661055883610b53565b91506106a28383610b2a565b90506105758185610bf4565b600160a060020a0381161515610734576040805160e560020a62461bcd02815260206004820152602660248201527f4f776e61626c653a206e6577206f776e657220697320746865207a65726f206160448201527f6464726573730000000000000000000000000000000000000000000000000000606482015290519081900360840190fd5b60008054604051600160a060020a03808516939216917f8be0079c531659141344cd1fd0a4f28419497f9722a3daafe3b4186f6b6457e091a36000805473ffffffffffffffffffffffffffffffffffffffff1916600160a060020a0392909216919091179055565b6107a46114a7565b6107ac6114a7565b6107b46114a7565b6107bc6114a7565b6107c46114a7565b6107cc6114a7565b6107d46114a7565b6107dc6114a7565b6107e58d610c16565b95506107f08c610c16565b94506107fc8686610bf4565b9350610808898a610b2a565b925061082a836040805190810160405280600181526020016002815250610b2a565b9250610836838b610c50565b92506108588360408051908101604052808e8152602001600154815250610b2a565b92506108648484610c50565b935061089c61089660408051908101604052808e6402540be4000281526020016001546402540be40002815250610c72565b8a610b2a565b91506108a88483610ccb565b93506108b48483610bf4565b939d939c50929a5050505050505050505050565b6108d06114a7565b60006108da6114a7565b6108e26114be565b6108ea6114a7565b6108f26114a7565b6108fa6114a7565b6109026114a7565b61090a6114a7565b60006109158b610ced565b98508815610929576109268b610d00565b9a505b60408051808201825262235883815262989680602080830191909152825160e0810184526301e7566960a082019081526305f5e10060c0830152815283518085018552631540bb45198152633b9aca008184018190528284019190915284518086018652636a2f323181528084018290528286015284518086018652636c8e292919815280840182905260608301528451808601909552634f4a607d8552918401919091526080810192909252985096506109e48b89610b2a565b9550610a06866040805190810160405280600181526020016001815250610c50565b9550610a1186610bce565b95506040805190810160405280680229a4c508a92ae7d1815260200168056bc75e2d631000008152509450610a468b8c610b2a565b9350610a6984604080519081016040528060001981526020016002815250610b2a565b9350610a7484610b53565b9350610a808585610b2a565b935060408051908101604052806000815260200160018152509250859150600090505b6005811015610ae557610acf83610aca898460058110610abf57fe5b602002015185610b2a565b610c50565b9250610adb8287610b2a565b9150600101610aa3565b610aef8484610b2a565b9350881515610b1b57610b18604080519081016040528060018152602001600181525085610bf4565b93505b50919998505050505050505050565b610b326114a7565b610b4c610b3e84610d37565b610b4784610d37565b610ddd565b9392505050565b610b5b6114a7565b6000610b656114a7565b610b6e84610ced565b91508115610b8257610b7f84610d00565b93505b835164010000000002845260408051808201909152602085015185518291610bb391811515610bad57fe5b05610e0b565b815264010000000060209091015290508115610b4c576102e5815b610bd66114a7565b50604080518082019091526020808301518252825190820152919050565b610bfc6114a7565b610b4c610c0884610d37565b610c1184610d37565b610e2b565b610c1e6114a7565b604080518082019091526401000000009092029180610c3c84610e67565b815264010000000060209091015292915050565b610c586114a7565b610b4c610c6484610d37565b610c6d84610d37565b610e9e565b610c7a6114a7565b8151600013801590610c9157506000826020015112155b1515610c9957fe5b6040805190810160405280610cb18460000151610ed7565b8152602001610cc38460200151610ed7565b905292915050565b610cd36114a7565b610b4c610cdf84610d37565b610ce884610d37565b610f12565b6020810151905160009182139113141590565b610d086114a7565b815160001315610d1a57815160000382525b600082602001511215610d335760208201805160000390525b5090565b610d3f6114a7565b6000806000610d518560000151610f40565b9250610d608560200151610f40565b915082821315610da8576c8fffffffffffffffffffffffff821315610da3576c8fffffffffffffffffffffffff825b059050610d9c8582610f56565b9350610dd5565b610dd1565b6c8fffffffffffffffffffffffff831315610dd1576c8fffffffffffffffffffffffff83610d8f565b8493505b505050919050565b610de56114a7565b506040805180820190915281518351028152602091820151928201519092029082015290565b600064386bfdba29821115610e1c57fe5b610e2582610f97565b92915050565b610e336114a7565b5060408051808201909152602080840180518451858401805188519290930291909202038452519051029082015292915050565b600080640100000000831015610e7957fe5b610e828361141f565b67010000000000000066b17217f7d1cf78909102049392505050565b610ea66114a7565b5060408051808201909152602080840180518451858401805188510291909202018452519051029082015292915050565b80600260018201045b81811015610f0c578091506002818285811515610ef957fe5b0401811515610f0457fe5b049050610ee0565b50919050565b610f1a6114a7565b506040805180820190915260208281015184510282529151928201519092029082015290565b6000808212610f4f5781610e25565b5060000390565b610f5e6114a7565b6040805190810160405280838560000151811515610f7857fe5b058152602001838560200151811515610f8d57fe5b0590529392505050565b6000806000602060ff1660019060020a029150816fde1bc4d19efcac82445da75b00000000029050602060ff168483029060020a90049150816fde1bc4d19efcb00000000000000000000281019050602060ff168483029060020a90049150816f6f0de268cf7e580000000000000000000281019050602060ff168483029060020a90049150816f2504a0cd9a7f720000000000000000000281019050602060ff168483029060020a90049150816f09412833669fdc8000000000000000000281019050602060ff168483029060020a90049150816f01d9d4d714865f5000000000000000000281019050602060ff168483029060020a90049150816e4ef8ce836bba8c00000000000000000281019050602060ff168483029060020a90049150816e0b481d807d1aa680000000000000000281019050602060ff168483029060020a90049150816e016903b00fa354d0000000000000000281019050602060ff168483029060020a90049150816d281cdaac677b34000000000000000281019050602060ff168483029060020a90049150816d0402e2aad725eb800000000000000281019050602060ff168483029060020a90049150816c5d5a6c9f31fe240000000000000281019050602060ff168483029060020a90049150816c07c7890d442a830000000000000281019050602060ff168483029060020a90049150816b9931ed5403452800000000000281019050602060ff168483029060020a90049150816b0af147cf24ce1500000000000281019050602060ff168483029060020a90049150816abac08546b867d0000000000281019050602060ff168483029060020a90049150816a0bac08546b867d000000000281019050602060ff168483029060020a900491508169afc441338061b80000000281019050602060ff168483029060020a90049150816909c3cabbc0056e0000000281019050602060ff168483029060020a900491508168839168328705c800000281019050602060ff168483029060020a9004915081680694120286c04a00000281019050602060ff168483029060020a90049150816750319e98b3d2c4000281019050602060ff168483029060020a90049150816703a52a1e36b820200281019050602060ff168483029060020a900491508166289286e0fce0020281019050602060ff168483029060020a90049150816601b0c59eb534000281019050602060ff168483029060020a900491508165114f95b554000281019050602060ff168483029060020a900491508164aa7210d2000281019050602060ff168483029060020a90049150816406501396000281019050602060ff168483029060020a90049150816339b78e800281019050602060ff168483029060020a90049150816301fd80800281019050602060ff168483029060020a90049150816210fbc00281019050602060ff168483029060020a9004915081618c400281019050602060ff168483029060020a90049150816104620281019050602060ff168483029060020a9004915081602202810190506fde1bc4d19efcac82445da75b000000008181151561141657fe5b04949350505050565b6000808064010000000084101561143257fe5b600091505b6402000000008410611459576002909304926401000000009190910190611437565b5060005b602060ff821610156114a0576401000000008480020493506402000000008410611498576002938490049360ff601f83900316900a91909101905b60010161145d565b5092915050565b604080518082019091526000808252602082015290565b610140604051908101604052806005905b6114d76114a7565b8152602001906001900390816114cf57905050905600a165627a7a72305820f4f15175c191e0951e3428a0982d4527c82c259142ada209868b15c98099840a0029",
  "source": "pragma solidity ^0.4.26;\r\n\r\nimport \"./Ownable.sol\";\r\nimport \"./Fraction.sol\";\r\n\r\ncontract OptionsPrice is Ownable{\r\n    uint256 internal Year = 365 days;\r\n    Fraction.fractionNumber internal rate = Fraction.fractionNumber(5,1000);\r\n    Fraction.fractionNumber internal iv = Fraction.fractionNumber(50,100);\r\n    function setIV(int256 ivNumerator,int256 ivDenominator)public onlyOwner{\r\n        iv.numerator = ivNumerator;\r\n        iv.denominator = ivDenominator;\r\n    }\r\n    function getIV()public view returns (int256,int256){\r\n        return (iv.numerator,iv.denominator);\r\n    }\r\n    function getOptionsPrice(uint256 currentPrice, uint256 strikePrice, uint256 expiration,uint8 optType)public view returns (uint256){\r\n        if (optType == 0) {\r\n            return callOptionsPrice(currentPrice,strikePrice,expiration,rate,iv);\r\n        }else{\r\n            return putOptionsPrice(currentPrice,strikePrice,expiration,rate,iv);\r\n        }\r\n    }\r\n    function getOptionsPrice_iv(uint256 currentPrice, uint256 strikePrice, uint256 expiration,\r\n            uint256 ivNumerator,uint256 ivDenominator,uint8 optType)public view returns (uint256){\r\n        Fraction.fractionNumber memory _iv = Fraction.fractionNumber(int256(ivNumerator),int256(ivDenominator));\r\n        if (optType == 0) {\r\n            return callOptionsPrice(currentPrice,strikePrice,expiration,rate,_iv);\r\n        }else{\r\n            return putOptionsPrice(currentPrice,strikePrice,expiration,rate,_iv);\r\n        }\r\n    }\r\n    function calculateD1D2(uint256 currentPrice, uint256 strikePrice, uint256 expiration,\r\n         Fraction.fractionNumber memory r, Fraction.fractionNumber memory derta) \r\n            internal view returns (Fraction.fractionNumber, Fraction.fractionNumber) {\r\n        Fraction.fractionNumber memory lns = Fraction.fractionLn(currentPrice);\r\n        Fraction.fractionNumber memory lnl = Fraction.fractionLn(strikePrice);\r\n        Fraction.fractionNumber memory d1 = Fraction.safeFractionSub(lns, lnl);\r\n        Fraction.fractionNumber memory derta2 = Fraction.safeFractionMul(derta, derta);\r\n        derta2 = Fraction.safeFractionMul(derta2, Fraction.fractionNumber(1,2));\r\n        derta2 = Fraction.safeFractionAdd(derta2, r);\r\n        derta2 = Fraction.safeFractionMul(derta2, Fraction.fractionNumber(int256(expiration),int256(Year)));\r\n        d1 = Fraction.safeFractionAdd(d1, derta2);\r\n        Fraction.fractionNumber memory dertaT = Fraction.safeFractionMul(Fraction.fractionSqrt(Fraction.fractionNumber(int256(expiration*1e10),int256(Year*1e10))), derta);\r\n        d1 = Fraction.safeFractionDiv(d1, dertaT);\r\n        Fraction.fractionNumber memory d2 = Fraction.safeFractionSub(d1, dertaT);\r\n        return (d1, d2);\r\n    }\r\n\r\n    //L*pow(e,-rT)*(1-N(d2)) - S*(1-N(d1))\r\n    function putOptionsPrice(uint256 currentPrice, uint256 strikePrice, uint256 expiration,\r\n            Fraction.fractionNumber memory r, Fraction.fractionNumber memory derta) \r\n                internal view returns (uint256) {\r\n       (Fraction.fractionNumber memory d1, Fraction.fractionNumber memory d2) = calculateD1D2(currentPrice, strikePrice, expiration, r, derta);\r\n        d1 = Fraction.normsDist(d1);\r\n        d2 = Fraction.normsDist(d2);\r\n        d1 = Fraction.safeFractionSub(Fraction.fractionNumber(1,1), d1);\r\n        d2 = Fraction.safeFractionSub(Fraction.fractionNumber(1,1), d2);\r\n        d1 = Fraction.safeFractionMul(d1, Fraction.fractionNumber(int256(currentPrice),1));\r\n        d2 = Fraction.safeFractionMul(d2, Fraction.fractionNumber(int256(strikePrice),1));\r\n        Fraction.fractionNumber memory rt = Fraction.safeFractionMul(r,Fraction.fractionNumber(int256(expiration),int256(Year)));\r\n        rt = Fraction.invert(Fraction.fractionExp(rt));\r\n        Fraction.fractionNumber memory price = Fraction.safeFractionMul(d2, rt);\r\n        price = Fraction.safeFractionSub(price, d1);\r\n        return uint256(price.numerator/price.denominator);\r\n    }\r\n\r\n    /*\r\n        r := FloatNum{\r\n            big.NewInt(5),\r\n            big.NewInt(1000)}\r\n    */\r\n    //S*N(d1)-L*pow(e,-rT)*N(d2)\r\n    function callOptionsPrice(uint256 currentPrice, uint256 strikePrice, uint256 expiration,\r\n            Fraction.fractionNumber memory r, Fraction.fractionNumber memory derta) \r\n                internal view returns (uint256) {\r\n       (Fraction.fractionNumber memory d1, Fraction.fractionNumber memory d2) = calculateD1D2(currentPrice, strikePrice, expiration, r, derta);\r\n        d1 = Fraction.normsDist(d1);\r\n        d2 = Fraction.normsDist(d2);\r\n        d1 = Fraction.safeFractionMul(d1, Fraction.fractionNumber(int256(currentPrice),1));\r\n        d2 = Fraction.safeFractionMul(d2, Fraction.fractionNumber(int256(strikePrice),1));\r\n        Fraction.fractionNumber memory rt = Fraction.safeFractionMul(r,Fraction.fractionNumber(int256(expiration),int256(Year)));\r\n        rt = Fraction.invert(Fraction.fractionExp(rt));\r\n        Fraction.fractionNumber memory price = Fraction.safeFractionMul(d2, rt);\r\n        price = Fraction.safeFractionSub(d1, price);\r\n        return uint256(price.numerator/price.denominator);\r\n    }\r\n}",
  "sourcePath": "C:\\work\\solidity\\FinnexusOptions_V2\\contracts\\optionsPrice.sol",
  "compiler": {
    "name": "solc",
    "version": "0.4.26+commit.4563c3fc.Emscripten.clang"
  },
  "schemaVersion": "3.1.0",
  "updatedAt": "2020-07-17T09:23:13.046Z",
  "devdoc": {
    "methods": {
      "isOwner()": {
        "details": "Returns true if the caller is the current owner."
      },
      "owner()": {
        "details": "Returns the address of the current owner."
      },
      "renounceOwnership()": {
        "details": "Leaves the contract without owner. It will not be possible to call `onlyOwner` functions anymore. Can only be called by the current owner.     * NOTE: Renouncing ownership will leave the contract without an owner, thereby removing any functionality that is only available to the owner."
      },
      "transferOwnership(address)": {
        "details": "Transfers ownership of the contract to a new account (`newOwner`). Can only be called by the current owner."
      }
    }
  },
  "userdoc": {
    "methods": {}
  }
}