{
  "contractName": "OptionsBase",
  "abi": [
    {
      "constant": false,
      "inputs": [
        {
          "name": "volatility",
          "type": "address"
        }
      ],
      "name": "setVolatilityAddress",
      "outputs": [],
      "payable": false,
      "stateMutability": "nonpayable",
      "type": "function"
    },
    {
      "constant": true,
      "inputs": [],
      "name": "getUnderlyingAssets",
      "outputs": [
        {
          "name": "",
          "type": "uint32[]"
        }
      ],
      "payable": false,
      "stateMutability": "view",
      "type": "function"
    },
    {
      "constant": true,
      "inputs": [],
      "name": "getVolatilityAddress",
      "outputs": [
        {
          "name": "",
          "type": "address"
        }
      ],
      "payable": false,
      "stateMutability": "view",
      "type": "function"
    },
    {
      "constant": false,
      "inputs": [
        {
          "name": "oracle",
          "type": "address"
        }
      ],
      "name": "setOracleAddress",
      "outputs": [],
      "payable": false,
      "stateMutability": "nonpayable",
      "type": "function"
    },
    {
      "constant": false,
      "inputs": [],
      "name": "renounceOwnership",
      "outputs": [],
      "payable": false,
      "stateMutability": "nonpayable",
      "type": "function"
    },
    {
      "constant": true,
      "inputs": [],
      "name": "owner",
      "outputs": [
        {
          "name": "",
          "type": "address"
        }
      ],
      "payable": false,
      "stateMutability": "view",
      "type": "function"
    },
    {
      "constant": true,
      "inputs": [],
      "name": "isOwner",
      "outputs": [
        {
          "name": "",
          "type": "bool"
        }
      ],
      "payable": false,
      "stateMutability": "view",
      "type": "function"
    },
    {
      "constant": false,
      "inputs": [
        {
          "name": "underlying",
          "type": "uint32"
        }
      ],
      "name": "addUnderlyingAsset",
      "outputs": [],
      "payable": false,
      "stateMutability": "nonpayable",
      "type": "function"
    },
    {
      "constant": true,
      "inputs": [],
      "name": "getOracleAddress",
      "outputs": [
        {
          "name": "",
          "type": "address"
        }
      ],
      "payable": false,
      "stateMutability": "view",
      "type": "function"
    },
    {
      "constant": false,
      "inputs": [
        {
          "name": "managerAddress",
          "type": "address"
        }
      ],
      "name": "setManager",
      "outputs": [],
      "payable": false,
      "stateMutability": "nonpayable",
      "type": "function"
    },
    {
      "constant": true,
      "inputs": [],
      "name": "getManager",
      "outputs": [
        {
          "name": "",
          "type": "address"
        }
      ],
      "payable": false,
      "stateMutability": "view",
      "type": "function"
    },
    {
      "constant": false,
      "inputs": [
        {
          "name": "removeUnderlying",
          "type": "uint32"
        }
      ],
      "name": "removeUnderlyingAssets",
      "outputs": [
        {
          "name": "",
          "type": "bool"
        }
      ],
      "payable": false,
      "stateMutability": "nonpayable",
      "type": "function"
    },
    {
      "constant": true,
      "inputs": [
        {
          "name": "underlying",
          "type": "uint32"
        }
      ],
      "name": "isEligibleUnderlyingAsset",
      "outputs": [
        {
          "name": "",
          "type": "bool"
        }
      ],
      "payable": false,
      "stateMutability": "view",
      "type": "function"
    },
    {
      "constant": true,
      "inputs": [
        {
          "name": "underlying",
          "type": "uint32"
        }
      ],
      "name": "checkUnderlyingAsset",
      "outputs": [],
      "payable": false,
      "stateMutability": "view",
      "type": "function"
    },
    {
      "constant": false,
      "inputs": [
        {
          "name": "newOwner",
          "type": "address"
        }
      ],
      "name": "transferOwnership",
      "outputs": [],
      "payable": false,
      "stateMutability": "nonpayable",
      "type": "function"
    },
    {
      "inputs": [],
      "payable": false,
      "stateMutability": "nonpayable",
      "type": "constructor"
    },
    {
      "anonymous": false,
      "inputs": [
        {
          "indexed": true,
          "name": "owner",
          "type": "address"
        },
        {
          "indexed": true,
          "name": "optionID",
          "type": "uint256"
        },
        {
          "indexed": false,
          "name": "optType",
          "type": "uint8"
        },
        {
          "indexed": false,
          "name": "underlying",
          "type": "uint32"
        },
        {
          "indexed": false,
          "name": "expiration",
          "type": "uint256"
        },
        {
          "indexed": false,
          "name": "strikePrice",
          "type": "uint256"
        },
        {
          "indexed": false,
          "name": "amount",
          "type": "uint256"
        }
      ],
      "name": "CreateOption",
      "type": "event"
    },
    {
      "anonymous": false,
      "inputs": [
        {
          "indexed": true,
          "name": "owner",
          "type": "address"
        },
        {
          "indexed": true,
          "name": "optionID",
          "type": "uint256"
        },
        {
          "indexed": false,
          "name": "amount",
          "type": "uint256"
        }
      ],
      "name": "BurnOption",
      "type": "event"
    },
    {
      "anonymous": false,
      "inputs": [
        {
          "indexed": false,
          "name": "value1",
          "type": "uint256"
        },
        {
          "indexed": false,
          "name": "value2",
          "type": "uint256"
        },
        {
          "indexed": false,
          "name": "value3",
          "type": "uint256"
        }
      ],
      "name": "DebugEvent",
      "type": "event"
    },
    {
      "anonymous": false,
      "inputs": [
        {
          "indexed": true,
          "name": "previousOwner",
          "type": "address"
        },
        {
          "indexed": true,
          "name": "newOwner",
          "type": "address"
        }
      ],
      "name": "OwnershipTransferred",
      "type": "event"
    },
    {
      "constant": true,
      "inputs": [],
      "name": "getBurnTimeLimit",
      "outputs": [
        {
          "name": "",
          "type": "uint256"
        }
      ],
      "payable": false,
      "stateMutability": "view",
      "type": "function"
    },
    {
      "constant": false,
      "inputs": [
        {
          "name": "timeLimit",
          "type": "uint256"
        }
      ],
      "name": "setBurnTimeLimit",
      "outputs": [],
      "payable": false,
      "stateMutability": "nonpayable",
      "type": "function"
    },
    {
      "constant": true,
      "inputs": [
        {
          "name": "user",
          "type": "address"
        }
      ],
      "name": "getUserOptionsID",
      "outputs": [
        {
          "name": "",
          "type": "uint256[]"
        }
      ],
      "payable": false,
      "stateMutability": "view",
      "type": "function"
    },
    {
      "constant": true,
      "inputs": [
        {
          "name": "user",
          "type": "address"
        },
        {
          "name": "from",
          "type": "uint256"
        },
        {
          "name": "size",
          "type": "uint256"
        }
      ],
      "name": "getUserOptionsID",
      "outputs": [
        {
          "name": "",
          "type": "uint256[]"
        }
      ],
      "payable": false,
      "stateMutability": "view",
      "type": "function"
    },
    {
      "constant": true,
      "inputs": [],
      "name": "getOptionInfoLength",
      "outputs": [
        {
          "name": "",
          "type": "uint256"
        }
      ],
      "payable": false,
      "stateMutability": "view",
      "type": "function"
    },
    {
      "constant": true,
      "inputs": [
        {
          "name": "from",
          "type": "uint256"
        },
        {
          "name": "size",
          "type": "uint256"
        }
      ],
      "name": "getOptionInfoList",
      "outputs": [
        {
          "name": "",
          "type": "address[]"
        },
        {
          "name": "",
          "type": "uint256[]"
        },
        {
          "name": "",
          "type": "uint256[]"
        },
        {
          "name": "",
          "type": "uint256[]"
        },
        {
          "name": "",
          "type": "uint256[]"
        }
      ],
      "payable": false,
      "stateMutability": "view",
      "type": "function"
    },
    {
      "constant": true,
      "inputs": [
        {
          "name": "ids",
          "type": "uint256[]"
        }
      ],
      "name": "getOptionInfoListFromID",
      "outputs": [
        {
          "name": "",
          "type": "address[]"
        },
        {
          "name": "",
          "type": "uint256[]"
        },
        {
          "name": "",
          "type": "uint256[]"
        },
        {
          "name": "",
          "type": "uint256[]"
        },
        {
          "name": "",
          "type": "uint256[]"
        }
      ],
      "payable": false,
      "stateMutability": "view",
      "type": "function"
    },
    {
      "constant": true,
      "inputs": [
        {
          "name": "optionsId",
          "type": "uint256"
        }
      ],
      "name": "getOptionsLimitTimeById",
      "outputs": [
        {
          "name": "",
          "type": "uint256"
        }
      ],
      "payable": false,
      "stateMutability": "view",
      "type": "function"
    },
    {
      "constant": true,
      "inputs": [
        {
          "name": "optionsId",
          "type": "uint256"
        }
      ],
      "name": "getOptionsById",
      "outputs": [
        {
          "name": "",
          "type": "uint256"
        },
        {
          "name": "",
          "type": "address"
        },
        {
          "name": "",
          "type": "uint8"
        },
        {
          "name": "",
          "type": "uint32"
        },
        {
          "name": "",
          "type": "uint256"
        },
        {
          "name": "",
          "type": "uint256"
        },
        {
          "name": "",
          "type": "uint256"
        }
      ],
      "payable": false,
      "stateMutability": "view",
      "type": "function"
    },
    {
      "constant": true,
      "inputs": [
        {
          "name": "optionsId",
          "type": "uint256"
        },
        {
          "name": "amount",
          "type": "uint256"
        }
      ],
      "name": "getExerciseWorth",
      "outputs": [
        {
          "name": "",
          "type": "uint256"
        }
      ],
      "payable": false,
      "stateMutability": "view",
      "type": "function"
    },
    {
      "constant": true,
      "inputs": [
        {
          "name": "expiration",
          "type": "uint256"
        },
        {
          "name": "underlying",
          "type": "uint32"
        }
      ],
      "name": "buyOptionCheck",
      "outputs": [],
      "payable": false,
      "stateMutability": "view",
      "type": "function"
    },
    {
      "constant": false,
      "inputs": [
        {
          "name": "expiration",
          "type": "uint256"
        }
      ],
      "name": "addExpiration",
      "outputs": [],
      "payable": false,
      "stateMutability": "nonpayable",
      "type": "function"
    },
    {
      "constant": false,
      "inputs": [
        {
          "name": "removeExpiration",
          "type": "uint256"
        }
      ],
      "name": "removeExpirationList",
      "outputs": [
        {
          "name": "",
          "type": "bool"
        }
      ],
      "payable": false,
      "stateMutability": "nonpayable",
      "type": "function"
    },
    {
      "constant": true,
      "inputs": [],
      "name": "getExpirationList",
      "outputs": [
        {
          "name": "",
          "type": "uint256[]"
        }
      ],
      "payable": false,
      "stateMutability": "view",
      "type": "function"
    },
    {
      "constant": true,
      "inputs": [
        {
          "name": "expiration",
          "type": "uint256"
        }
      ],
      "name": "isEligibleExpiration",
      "outputs": [
        {
          "name": "",
          "type": "bool"
        }
      ],
      "payable": false,
      "stateMutability": "view",
      "type": "function"
    },
    {
      "constant": true,
      "inputs": [
        {
          "name": "expiration",
          "type": "uint256"
        }
      ],
      "name": "checkExpiration",
      "outputs": [],
      "payable": false,
      "stateMutability": "view",
      "type": "function"
    },
    {
      "constant": true,
      "inputs": [
        {
          "name": "optionID",
          "type": "uint256"
        },
        {
          "name": "amount",
          "type": "uint256"
        }
      ],
      "name": "getBurnedFullPay",
      "outputs": [
        {
          "name": "",
          "type": "address"
        },
        {
          "name": "",
          "type": "uint256"
        }
      ],
      "payable": false,
      "stateMutability": "view",
      "type": "function"
    }
  ],
  "bytecode": "0x6080604052610e106009553480156200001757600080fd5b5060008054600160a060020a0319163317808255604051600160a060020a039190911691907f8be0079c531659141344cd1fd0a4f28419497f9722a3daafe3b4186f6b6457e0908290a36040805160e0810182526201518081526203f480602082015262093a8091810191909152620d2f0060608201526213c680608082015262278d0060a08201526276a70060c0820152620000b9906008906007620000e5565b50604080518082019091526001808252600260208301819052620000de92906200013c565b506200022f565b8280548282559060005260206000209081019282156200012a579160200282015b828111156200012a578251829062ffffff1690559160200191906001019062000106565b5062000138929150620001eb565b5090565b82805482825590600052602060002090600701600890048101928215620001dd5791602002820160005b83821115620001a957835183826101000a81548163ffffffff021916908360ff160217905550926020019260040160208160030104928301926001030262000166565b8015620001db5782816101000a81549063ffffffff0219169055600401602081600301049283019260010302620001a9565b505b50620001389291506200020b565b6200020891905b80821115620001385760008155600101620001f2565b90565b6200020891905b808211156200013857805463ffffffff1916815560010162000212565b612087806200023f6000396000f30060806040526004361061017c5763ffffffff60e060020a6000350416630438d49081146101815780632967eafe14610304578063354af360146103275780633582d7891461037c5780633ad2fb57146103e157806342e5479d1461040257806348ee201d146104335780634c69c00f14610492578063597ce900146104b357806364ed3017146104f157806367b8ceb9146105185780636d84e2e314610533578063715018a61461054b578063723931ca146105605780637cfff2d8146105785780637e838fa3146105905780638da5cb5b146105bc5780638f32d59b146105d15780639052d5f8146105e65780639ef975d2146105fb578063afec82fc14610613578063b18b78dd14610631578063bec3107f14610646578063c5acbe151461065b578063d0ebdbe714610673578063d500958414610694578063d6d14012146106a9578063db6ad2bd146106c7578063e7c56815146106e5578063ee29c94a14610706578063f2fde38b14610724578063f7de192314610745575b600080fd5b34801561018d57600080fd5b5061019c60043560243561076c565b60405180806020018060200180602001806020018060200186810386528b818151815260200191508051906020019060200280838360005b838110156101ec5781810151838201526020016101d4565b5050505090500186810385528a818151815260200191508051906020019060200280838360005b8381101561022b578181015183820152602001610213565b50505050905001868103845289818151815260200191508051906020019060200280838360005b8381101561026a578181015183820152602001610252565b50505050905001868103835288818151815260200191508051906020019060200280838360005b838110156102a9578181015183820152602001610291565b50505050905001868103825287818151815260200191508051906020019060200280838360005b838110156102e85781810151838201526020016102d0565b505050509050019a505050505050505050505060405180910390f35b34801561031057600080fd5b50610325600160a060020a03600435166109b6565b005b34801561033357600080fd5b506040805160206004803580820135838102808601850190965280855261019c95369593946024949385019291829185019084908082843750949750610a319650505050505050565b34801561038857600080fd5b50610391610c4a565b60408051602080825283518183015283519192839290830191858101910280838360005b838110156103cd5781810151838201526020016103b5565b505050509050019250505060405180910390f35b3480156103ed57600080fd5b5061032560043563ffffffff60243516610ccf565b34801561040e57600080fd5b50610417610d3b565b60408051600160a060020a039092168252519081900360200190f35b34801561043f57600080fd5b5061044b600435610d4a565b60408051978852600160a060020a03909616602088015260ff9094168686015263ffffffff9092166060860152608085015260a084015260c0830152519081900360e00190f35b34801561049e57600080fd5b50610325600160a060020a0360043516610dbe565b3480156104bf57600080fd5b506104ce600435602435610e39565b60408051600160a060020a03909316835260208301919091528051918290030190f35b3480156104fd57600080fd5b50610506610ea9565b60408051918252519081900360200190f35b34801561052457600080fd5b50610506600435602435610eaf565b34801561053f57600080fd5b5061050660043561102f565b34801561055757600080fd5b506103256110b6565b34801561056c57600080fd5b50610325600435611159565b34801561058457600080fd5b506103256004356111e1565b34801561059c57600080fd5b506105a8600435611238565b604080519115158252519081900360200190f35b3480156105c857600080fd5b50610417611297565b3480156105dd57600080fd5b506105a86112a6565b3480156105f257600080fd5b506103916112b7565b34801561060757600080fd5b506105a860043561130e565b34801561061f57600080fd5b5061032563ffffffff6004351661136a565b34801561063d57600080fd5b506104176113c1565b34801561065257600080fd5b506105066113d0565b34801561066757600080fd5b506103256004356113d6565b34801561067f57600080fd5b50610325600160a060020a0360043516611427565b3480156106a057600080fd5b506104176114a2565b3480156106b557600080fd5b506105a863ffffffff600435166114b1565b3480156106d357600080fd5b506105a863ffffffff6004351661150a565b3480156106f157600080fd5b50610391600160a060020a0360043516611592565b34801561071257600080fd5b5061032563ffffffff600435166115fe565b34801561073057600080fd5b50610325600160a060020a0360043516611684565b34801561075157600080fd5b50610391600160a060020a03600435166024356044356116d9565b6060806060806060806060806060806000806005805490508d8f0111156107a3576005546107a0908f63ffffffff6117c016565b9c505b60008d11156109a5578c6040519080825280602002602001820160405280156107d6578160200160208202803883390190505b5096508c604051908082528060200260200182016040528015610803578160200160208202803883390190505b5095508c604051908082528060200260200182016040528015610830578160200160208202803883390190505b5094508c60405190808252806020026020018201604052801561085d578160200160208202803883390190505b5093508c60405190808252806020026020018201604052801561088a578160200160208202803883390190505b509250600091505b8c82101561099557600580548f84019081106108aa57fe5b906000526020600020906005020190508060000160089054906101000a9004600160a060020a031687838151811015156108e057fe5b600160a060020a03929092166020928302919091019091015280546001820154875160e060020a90920460ff1663ffffffff918216620100000201169087908490811061092957fe5b602090810290910101526002810154855186908490811061094657fe5b602090810290910101526003810154845185908490811061096357fe5b602090810290910101526004810154835184908490811061098057fe5b60209081029091010152600190910190610892565b86868686869b509b509b509b509b505b505050505050509295509295909350565b6109be6112a6565b1515610a02576040805160e560020a62461bcd028152602060048201819052602482015260008051602061203c833981519152604482015290519081900360640190fd5b6004805473ffffffffffffffffffffffffffffffffffffffff1916600160a060020a0392909216919091179055565b6060806060806060600060608060608060606000808d51975087604051908082528060200260200182016040528015610a74578160200160208202803883390190505b50965087604051908082528060200260200182016040528015610aa1578160200160208202803883390190505b50955087604051908082528060200260200182016040528015610ace578160200160208202803883390190505b50945087604051908082528060200260200182016040528015610afb578160200160208202803883390190505b50935087604051908082528060200260200182016040528015610b28578160200160208202803883390190505b509250600091505b87821015610c3657610b588e83815181101515610b4957fe5b90602001906020020151611809565b80548851919250680100000000000000009004600160a060020a031690889084908110610b8157fe5b600160a060020a03929092166020928302919091019091015280546001820154875160e060020a90920460ff1663ffffffff9182166201000002011690879084908110610bca57fe5b6020908102909101015260028101548551869084908110610be757fe5b6020908102909101015260038101548451859084908110610c0457fe5b6020908102909101015260048101548351849084908110610c2157fe5b60209081029091010152600190910190610b30565b50949c939b50919950975095509350505050565b60606001805480602002602001604051908101604052809291908181526020018280548015610cc457602002820191906000526020600020906000905b82829054906101000a900463ffffffff1663ffffffff1681526020019060040190602082600301049283019260010382029150808411610c875790505b505050505090505b90565b610cd88161150a565b1515610d2e576040805160e560020a62461bcd02815260206004820152601f60248201527f756e6465726c79696e6720697320756e737570706f7274656420617373657400604482015290519081900360640190fd5b610d3782611159565b5050565b600454600160a060020a031690565b600080600080600080600080610d5f89611809565b805460018201546002830154600384015460049094015467ffffffffffffffff84169e680100000000000000008504600160a060020a03169e5060e060020a90940460ff169c5063ffffffff9092169a50985091965090945092505050565b610dc66112a6565b1515610e0a576040805160e560020a62461bcd028152602060048201819052602482015260008051602061203c833981519152604482015290519081900360640190fd5b6003805473ffffffffffffffffffffffffffffffffffffffff1916600160a060020a0392909216919091179055565b60001982016000908152600660205260408120600181015460028201546004830154849392600160a060020a031691670de0b6b3a764000091610e93918891610e879163ffffffff61189916565b9063ffffffff61189916565b811515610e9c57fe5b0492509250509250929050565b60095490565b6000610eb9611f88565b600080610ec586611809565b6040805160e081018252825467ffffffffffffffff81168252680100000000000000008104600160a060020a0316602083015260e060020a900460ff1691810191909152600182015463ffffffff16606082015260028201546080820152600382015460a082015260049091015460c08201529250610f4383611943565b610f4d838661199e565b6003546060840151604080517fda66325700000000000000000000000000000000000000000000000000000000815263ffffffff909216600483015251600160a060020a039092169163da663257916024808201926020929091908290030181600087803b158015610fbe57600080fd5b505af1158015610fd2573d6000803e3d6000fd5b505050506040513d6020811015610fe857600080fd5b5051604084015160a085015191935061100191846119fa565b90508015156110135760009350611026565b611023818663ffffffff61189916565b93505b50505092915050565b6000808211801561104257506005548211155b1515611098576040805160e560020a62461bcd02815260206004820152601660248201527f6f7074696f6e206964206973206e6f7420657869737400000000000000000000604482015290519081900360640190fd5b50600954600019820160009081526006602052604090205401919050565b6110be6112a6565b1515611102576040805160e560020a62461bcd028152602060048201819052602482015260008051602061203c833981519152604482015290519081900360640190fd5b60008054604051600160a060020a03909116907f8be0079c531659141344cd1fd0a4f28419497f9722a3daafe3b4186f6b6457e0908390a36000805473ffffffffffffffffffffffffffffffffffffffff19169055565b6111628161130e565b15156111de576040805160e560020a62461bcd02815260206004820152602160248201527f65787069726174696f6e2076616c7565206973206e6f7420737570706f72746560448201527f6400000000000000000000000000000000000000000000000000000000000000606482015290519081900360840190fd5b50565b6111e96112a6565b151561122d576040805160e560020a62461bcd028152602060048201819052602482015260008051602061203c833981519152604482015290519081900360640190fd5b6111de600882611a2f565b60006112426112a6565b1515611286576040805160e560020a62461bcd028152602060048201819052602482015260008051602061203c833981519152604482015290519081900360640190fd5b611291600883611aa6565b92915050565b600054600160a060020a031690565b600054600160a060020a0316331490565b60606008805480602002602001604051908101604052809291908181526020018280548015610cc457602002820191906000526020600020905b8154815260200190600101908083116112f1575050505050905090565b6000611291600880548060200260200160405190810160405280929190818152602001828054801561135f57602002820191906000526020600020905b81548152602001906001019080831161134b575b505050505083611b53565b6113726112a6565b15156113b6576040805160e560020a62461bcd028152602060048201819052602482015260008051602061203c833981519152604482015290519081900360640190fd5b6111de600182611b92565b600354600160a060020a031690565b60055490565b6113de6112a6565b1515611422576040805160e560020a62461bcd028152602060048201819052602482015260008051602061203c833981519152604482015290519081900360640190fd5b600955565b61142f6112a6565b1515611473576040805160e560020a62461bcd028152602060048201819052602482015260008051602061203c833981519152604482015290519081900360640190fd5b6002805473ffffffffffffffffffffffffffffffffffffffff1916600160a060020a0392909216919091179055565b600254600160a060020a031690565b60006114bb6112a6565b15156114ff576040805160e560020a62461bcd028152602060048201819052602482015260008051602061203c833981519152604482015290519081900360640190fd5b611291600183611c5b565b6000611291600180548060200260200160405190810160405280929190818152602001828054801561158757602002820191906000526020600020906000905b82829054906101000a900463ffffffff1663ffffffff168152602001906004019060208260030104928301926001038202915080841161154a5790505b505050505083611d52565b600160a060020a0381166000908152600760209081526040918290208054835181840281018401909452808452606093928301828280156115f257602002820191906000526020600020905b8154815260200190600101908083116115de575b50505050509050919050565b6111de600180548060200260200160405190810160405280929190818152602001828054801561167957602002820191906000526020600020906000905b82829054906101000a900463ffffffff1663ffffffff168152602001906004019060208260030104928301926001038202915080841161163c5790505b505050505082611d9d565b61168c6112a6565b15156116d0576040805160e560020a62461bcd028152602060048201819052602482015260008051602061203c833981519152604482015290519081900360640190fd5b6111de81611dfd565b606080600083604051908082528060200260200182016040528015611708578160200160208202803883390190505b50600160a060020a038716600090815260076020526040902054909250858501111561175a57600160a060020a038616600090815260076020526040902054611757908663ffffffff6117c016565b93505b5060005b838110156117b757600160a060020a0386166000908152600760205260409020805486830190811061178c57fe5b906000526020600020015482828151811015156117a557fe5b6020908102909101015260010161175e565b50949350505050565b600061180283836040805190810160405280601e81526020017f536166654d6174683a207375627472616374696f6e206f766572666c6f770000815250611eeb565b9392505050565b6000808211801561181c57506005548211155b1515611872576040805160e560020a62461bcd02815260206004820152601660248201527f6f7074696f6e206964206973206e6f7420657869737400000000000000000000604482015290519081900360640190fd5b60058054600019840190811061188457fe5b90600052602060002090600502019050919050565b6000808315156118ac576000915061193c565b508282028284828115156118bc57fe5b0414611938576040805160e560020a62461bcd02815260206004820152602160248201527f536166654d6174683a206d756c7469706c69636174696f6e206f766572666c6f60448201527f7700000000000000000000000000000000000000000000000000000000000000606482015290519081900360840190fd5b8091505b5092915050565b608081015142106111de576040805160e560020a62461bcd02815260206004820152601160248201527f6f7074696f6e2069732065787069726564000000000000000000000000000000604482015290519081900360640190fd5b60c0820151811115610d37576040805160e560020a62461bcd02815260206004820152601d60248201527f6f7074696f6e20616d6f756e7420697320696e73756666696369656e74000000604482015290519081900360640190fd5b600060ff8416158284111415611a1257506000611802565b60ff841615611a2357818303611a27565b8282035b949350505050565b611a8882805480602002602001604051908101604052809291908181526020018280548015611a7d57602002820191906000526020600020905b815481526020019060010190808311611a69575b505050505082611b53565b1515610d375781546001810183556000928352602090922090910155565b8154600090815b81811015611ae257838582815481101515611ac457fe5b90600052602060002001541415611ada57611ae2565b600101611aad565b81811015611b465760001982018114611b2c578460018303815481101515611b0657fe5b90600052602060002001548582815481101515611b1f57fe5b6000918252602090912001555b8454611b3c866000198301611fc4565b5060019250611b4b565b600092505b505092915050565b8151600090815b81811015611b4657838582815181101515611b7157fe5b906020019060200201511415611b8a5760019250611b4b565b600101611b5a565b611c1782805480602002602001604051908101604052809291908181526020018280548015611c0c57602002820191906000526020600020906000905b82829054906101000a900463ffffffff1663ffffffff1681526020019060040190602082600301049283019260010382029150808411611bcf5790505b505050505082611d52565b1515610d37578154600181018355600092835260209092206008830401805460079093166004026101000a63ffffffff818102199094169290931692909202179055565b8154600090815b81811015611cb6578363ffffffff168582815481101515611c7f57fe5b6000918252602090912060088204015460079091166004026101000a900463ffffffff161415611cae57611cb6565b600101611c62565b81811015611b465760001982018114611d42578460018303815481101515611cda57fe5b90600052602060002090600891828204019190066004029054906101000a900463ffffffff168582815481101515611d0e57fe5b90600052602060002090600891828204019190066004026101000a81548163ffffffff021916908363ffffffff1602179055505b8454611b3c866000198301611fed565b8151600090815b81811015611b46578363ffffffff168582815181101515611d7657fe5b9060200190602002015163ffffffff161415611d955760019250611b4b565b600101611d59565b611da78282611d52565b1515610d37576040805160e560020a62461bcd02815260206004820152601f60248201527f77686974654c6973743a207573696e6720696e76616c69642075696e74333200604482015290519081900360640190fd5b600160a060020a0381161515611e83576040805160e560020a62461bcd02815260206004820152602660248201527f4f776e61626c653a206e6577206f776e657220697320746865207a65726f206160448201527f6464726573730000000000000000000000000000000000000000000000000000606482015290519081900360840190fd5b60008054604051600160a060020a03808516939216917f8be0079c531659141344cd1fd0a4f28419497f9722a3daafe3b4186f6b6457e091a36000805473ffffffffffffffffffffffffffffffffffffffff1916600160a060020a0392909216919091179055565b6000808285851115611f7e5760405160e560020a62461bcd0281526004018080602001828103825283818151815260200191508051906020019080838360005b83811015611f43578181015183820152602001611f2b565b50505050905090810190601f168015611f705780820380516001836020036101000a031916815260200191505b509250505060405180910390fd5b5050509103919050565b6040805160e081018252600080825260208201819052918101829052606081018290526080810182905260a0810182905260c081019190915290565b815481835581811115611fe857600083815260209020611fe891810190830161201d565b505050565b815481835581811115611fe8576007016008900481600701600890048360005260206000209182019101611fe891905b610ccc91905b808211156120375760008155600101612023565b509056004f776e61626c653a2063616c6c6572206973206e6f7420746865206f776e6572a165627a7a72305820d0ec03490c5911d70ed05218bbd44a1735575ff189fcbf0de0024687afa22e6b0029",
  "source": "pragma solidity ^0.4.26;\r\nimport \"./modules/SafeMath.sol\";\r\nimport \"./modules/Managerable.sol\";\r\nimport \"./interfaces/IFNXOracle.sol\";\r\nimport \"./modules/underlyingAssets.sol\";\r\nimport \"./interfaces/IVolatility.sol\";\r\nimport \"./modules/tuple.sol\";\r\ncontract OptionsBase is UnderlyingAssets,Managerable,ImportOracle,ImportVolatility {\r\n    \r\n    using SafeMath for uint256;\r\n    struct OptionsInfo {\r\n        uint64     optionID;\r\n        address     owner;\r\n        uint8   \toptType;    //0 for call, 1 for put\r\n        uint32\t\tunderlying;\r\n        uint256\t\texpiration;\r\n        uint256     strikePrice;\r\n        uint256     amount;\r\n    }\r\n\r\n    struct OptionsInfoEx{\r\n        uint256\t\t createdTime;\r\n        address      settlement;\r\n        uint256      tokenTimePrice;\r\n        uint256      underlyingPrice;\r\n        uint256      fullPrice;\r\n        uint256      ivNumerator;\r\n        uint256      ivDenominator;\r\n    }\r\n    //options information\r\n    OptionsInfo[] internal allOptions;\r\n    mapping(uint256=>OptionsInfoEx) internal optionExtraMap;\r\n    uint256 constant internal calDecimals = 1e18;\r\n    //user options balances\r\n    mapping(address=>uint256[]) internal optionsBalances;\r\n    //expiration whitelist\r\n    uint256[] internal expirationList;\r\n    uint256 internal burnTimeLimit = 1 hours;\r\n\r\n\r\n    event CreateOption(address indexed owner,uint256 indexed optionID,uint8 optType,uint32 underlying,uint256 expiration,uint256 strikePrice,uint256 amount);\r\n    event BurnOption(address indexed owner,uint256 indexed optionID,uint amount);\r\n    event DebugEvent(uint256 value1,uint256 value2,uint256 value3);\r\n    constructor () public{\r\n        expirationList =  [1 days,3 days, 7 days, 10 days, 15 days, 30 days,90 days];\r\n        underlyingAssets = [1,2];\r\n    }\r\n    function getBurnTimeLimit()public view returns(uint256){\r\n        return burnTimeLimit;\r\n    }\r\n    function setBurnTimeLimit(uint256 timeLimit)public onlyOwner{\r\n        burnTimeLimit = timeLimit;\r\n    }\r\n    function getUserOptionsID(address user)public view returns(uint256[]){\r\n        return optionsBalances[user];\r\n    }\r\n    function getUserOptionsID(address user,uint256 from,uint256 size)public view returns(uint256[]){\r\n        uint256[] memory userIdAry = new uint256[](size);\r\n        if (from+size>optionsBalances[user].length){\r\n            size = optionsBalances[user].length.sub(from);\r\n        }\r\n        for (uint256 i= 0;i<size;i++){\r\n            userIdAry[i] = optionsBalances[user][from+i];\r\n        }\r\n        return userIdAry;\r\n    }\r\n    function getOptionInfoLength()public view returns (uint256){\r\n        return allOptions.length;\r\n    }\r\n    function getOptionInfoList(uint256 from,uint256 size)public view \r\n                returns(address[],uint256[],uint256[],uint256[],uint256[]){\r\n        if (from+size>allOptions.length){\r\n            size = allOptions.length.sub(from);\r\n        }\r\n        if (size>0){\r\n            address[] memory ownerArr = new address[](size);\r\n            uint256[] memory typeAndUnderArr = new uint256[](size);\r\n            uint256[] memory expArr = new uint256[](size);\r\n            uint256[] memory priceArr = new uint256[](size);\r\n            uint256[] memory amountArr = new uint256[](size);\r\n            for (uint i=0;i<size;i++){\r\n                OptionsInfo storage info = allOptions[from+i];\r\n                ownerArr[i] = info.owner;\r\n                typeAndUnderArr[i] = (info.underlying << 16) + info.optType;\r\n                expArr[i] = info.expiration;\r\n                priceArr[i] = info.strikePrice;\r\n                amountArr[i] = info.amount;\r\n            }\r\n            return (ownerArr,typeAndUnderArr,expArr,priceArr,amountArr);\r\n        }\r\n    }\r\n    function getOptionInfoListFromID(uint256[] ids)public view \r\n                returns(address[],uint256[],uint256[],uint256[],uint256[]){\r\n        uint256 size = ids.length;\r\n        address[] memory ownerArr = new address[](size);\r\n        uint256[] memory typeAndUnderArr = new uint256[](size);\r\n        uint256[] memory expArr = new uint256[](size);\r\n        uint256[] memory priceArr = new uint256[](size);\r\n        uint256[] memory amountArr = new uint256[](size);\r\n        for (uint i=0;i<size;i++){\r\n            OptionsInfo storage info = _getOptionsById(ids[i]);\r\n            ownerArr[i] = info.owner;\r\n            typeAndUnderArr[i] = (info.underlying << 16) + info.optType;\r\n            expArr[i] = info.expiration;\r\n            priceArr[i] = info.strikePrice;\r\n            amountArr[i] = info.amount;\r\n        }\r\n        return (ownerArr,typeAndUnderArr,expArr,priceArr,amountArr);\r\n    }\r\n    function getOptionsLimitTimeById(uint256 optionsId)public view returns(uint256){\r\n        require(optionsId>0 && optionsId <= allOptions.length,\"option id is not exist\");\r\n        return optionExtraMap[optionsId-1].createdTime + burnTimeLimit;\r\n    }\r\n    function getOptionsById(uint256 optionsId)public view returns(uint256,address,uint8,uint32,uint256,uint256,uint256){\r\n        OptionsInfo storage info = _getOptionsById(optionsId);\r\n        return (info.optionID,info.owner,info.optType,info.underlying,info.expiration,info.strikePrice,info.amount);\r\n    }\r\n    function getUnderlyingPrices()internal view returns(uint256[] memory){\r\n        uint256 underlyingLen = underlyingAssets.length;\r\n        uint256[] memory prices = new uint256[](underlyingLen);\r\n        for (uint256 i = 0;i<underlyingLen;i++){\r\n            prices[i] = _oracle.getUnderlyingPrice(underlyingAssets[i]);\r\n        }\r\n        return prices;\r\n    }\r\n\r\n    function _createOptions(address from,address settlement,uint256 type_ly_exp,uint256 strikePrice,uint256 optionPrice,\r\n                uint256 amount) internal {\r\n        uint256 optionID = allOptions.length;\r\n        uint8 optType = uint8(tuple64.getValue0(type_ly_exp));\r\n        uint32 underlying = uint32(tuple64.getValue1(type_ly_exp));\r\n        allOptions.push(OptionsInfo(uint64(optionID+1),from,optType,underlying,tuple64.getValue2(type_ly_exp)+now,strikePrice,amount));\r\n        optionsBalances[from].push(optionID+1);\r\n        OptionsInfo memory info = allOptions[optionID];\r\n        setOptionsExtra(info,settlement,optionPrice,strikePrice,underlying);\r\n        emit CreateOption(from,optionID+1,optType,underlying,tuple64.getValue2(type_ly_exp)+now,strikePrice,amount);\r\n    }\r\n    function setOptionsExtra(OptionsInfo memory info,address settlement,uint256 optionPrice,uint256 strikePrice,uint256 underlying) internal{\r\n        uint256 underlyingPrice = _oracle.getUnderlyingPrice(underlying);\r\n        uint256 expiration = info.expiration - now;\r\n        (uint256 ivNumerator,uint256 ivDenominator) = _volatility.calculateIv(info.underlying,info.optType,expiration,underlyingPrice,strikePrice);\r\n        uint256 tokenTimePrice = calDecimals/_oracle.getPrice(settlement);\r\n        optionExtraMap[info.optionID-1]= OptionsInfoEx(now,settlement,tokenTimePrice,underlyingPrice,optionPrice,ivNumerator,ivDenominator);\r\n    }\r\n    function _burnOptions(address from,uint256 id,uint256 amount)internal{\r\n        OptionsInfo storage info = _getOptionsById(id);\r\n        checkEligible(info);\r\n        checkBurnable(info.optionID);\r\n        checkOwner(info,from);\r\n        checkSufficient(info,amount);\r\n        info.amount = info.amount-amount;\r\n        emit BurnOption(from,id,amount);\r\n    }\r\n    function getExerciseWorth(uint256 optionsId,uint256 amount)public view returns(uint256){\r\n        OptionsInfo memory info = _getOptionsById(optionsId);\r\n        checkEligible(info);\r\n        checkSufficient(info,amount);\r\n        uint256 underlyingPrice = _oracle.getUnderlyingPrice(info.underlying);\r\n        uint256 tokenPayback = _getOptionsPayback(info.optType,info.strikePrice,underlyingPrice);\r\n        if (tokenPayback == 0 ){\r\n            return 0;\r\n        } \r\n        return tokenPayback.mul(amount);\r\n    }\r\n    function _getOptionsPayback(uint8 optType,uint256 strikePrice,uint256 underlyingPrice)internal pure returns(uint256){\r\n        if ((optType == 0) == (strikePrice>underlyingPrice)){ // call\r\n            return 0;\r\n        } else {\r\n            return (optType == 0) ? underlyingPrice - strikePrice : strikePrice - underlyingPrice;\r\n        }\r\n    }\r\n    function _getOptionsById(uint256 id)internal view returns(OptionsInfo storage){\r\n        require(id>0 && id <= allOptions.length,\"option id is not exist\");\r\n        return allOptions[id-1];\r\n    }\r\n    function checkBurnable(uint256 optionID)internal view{\r\n        require(optionExtraMap[optionID-1].createdTime+burnTimeLimit<now,\"option lock limitation is not expired\");\r\n    }\r\n    function checkEligible(OptionsInfo memory info)internal view{\r\n        require(info.expiration>now,\"option is expired\");\r\n    }\r\n    function checkOwner(OptionsInfo memory info,address owner)internal pure{\r\n        require(info.owner == owner,\"caller is not the options owner\");\r\n    }\r\n    function checkSufficient(OptionsInfo memory info,uint256 amount) internal pure{\r\n        require(info.amount >= amount,\"option amount is insufficient\");\r\n    }\r\n    function buyOptionCheck(uint256 expiration,uint32 underlying)public view{\r\n        require(isEligibleUnderlyingAsset(underlying) , \"underlying is unsupported asset\");\r\n        checkExpiration(expiration);\r\n    }\r\n        /**\r\n     * @dev Implementation of add an eligible expiration into the expirationList.\r\n     * @param expiration new eligible expiration.\r\n     */\r\n    function addExpiration(uint256 expiration)public onlyOwner{\r\n        whiteListUint256.addWhiteListUint256(expirationList,expiration);\r\n    }\r\n    /**\r\n     * @dev Implementation of revoke an invalid expiration from the expirationList.\r\n     * @param removeExpiration revoked expiration.\r\n     */\r\n    function removeExpirationList(uint256 removeExpiration)public onlyOwner returns(bool) {\r\n        return whiteListUint256.removeWhiteListUint256(expirationList,removeExpiration);\r\n    }\r\n    /**\r\n     * @dev Implementation of getting the eligible expirationList.\r\n     */\r\n    function getExpirationList()public view returns (uint256[]){\r\n        return expirationList;\r\n    }\r\n    /**\r\n     * @dev Implementation of testing whether the input expiration is eligible.\r\n     * @param expiration input expiration for testing.\r\n     */    \r\n    function isEligibleExpiration(uint256 expiration) public view returns (bool){\r\n        return whiteListUint256.isEligibleUint256(expirationList,expiration);\r\n    }\r\n    function checkExpiration(uint256 expiration) public view{\r\n        return require(isEligibleExpiration(expiration),\"expiration value is not supported\");\r\n    }\r\n    function _getEligibleExpirationIndex(uint256 expiration) internal view returns (uint256){\r\n        return whiteListUint256._getEligibleIndexUint256(expirationList,expiration);\r\n    }\r\n    function getFirstOption(uint256 begin,uint256 latestBegin,uint256 end) internal view returns(uint256,uint256){\r\n        uint256 newFirstOption = latestBegin;\r\n        if (begin > newFirstOption){\r\n            //if in other phase, begin != new begin\r\n            return (begin,newFirstOption);\r\n        }\r\n        begin = newFirstOption;\r\n        for (;begin<end;begin++){\r\n            OptionsInfo storage info = allOptions[begin];\r\n            if(info.expiration<now || info.amount == 0){\r\n                continue;\r\n            }\r\n            break;\r\n        }\r\n        //if in first phase, begin = new begin\r\n        return (begin,begin);\r\n    }\r\n    function calOptionsCollateral(OptionsInfo memory option,uint256 underlyingPrice)internal view returns(uint256){\r\n        if (option.expiration<=now || option.amount == 0){\r\n            return 0;\r\n        }\r\n        uint256 totalOccupied = _getOptionsWorth(option.optType,option.strikePrice,underlyingPrice).mul(option.amount);\r\n        return totalOccupied;\r\n    }\r\n    function _getOptionsWorth(uint8 optType,uint256 strikePrice,uint256 underlyingPrice)internal pure returns(uint256){\r\n        if ((optType == 0) == (strikePrice>underlyingPrice)){ // call\r\n            return strikePrice;\r\n        } else {\r\n            return underlyingPrice;\r\n        }\r\n    }\r\n    function getBurnedFullPay(uint256 optionID,uint256 amount) public view returns(address,uint256){\r\n        OptionsInfoEx storage optionEx = optionExtraMap[optionID-1];\r\n        return (optionEx.settlement,optionEx.fullPrice.mul(optionEx.tokenTimePrice).mul(amount)/calDecimals);\r\n    }\r\n}",
  "sourcePath": "C:\\work\\solidity\\FinnexusOptions_V2\\contracts\\Optionsbase.sol",
  "compiler": {
    "name": "solc",
    "version": "0.4.26+commit.4563c3fc.Emscripten.clang"
  },
  "schemaVersion": "3.1.0",
  "updatedAt": "2020-08-06T12:48:04.218Z",
  "devdoc": {
    "methods": {
      "addExpiration(uint256)": {
        "details": "Implementation of add an eligible expiration into the expirationList.\r",
        "params": {
          "expiration": "new eligible expiration.\r"
        }
      },
      "addUnderlyingAsset(uint32)": {
        "details": "Implementation of add an eligible underlying into the underlyingAssets.\r",
        "params": {
          "underlying": "new eligible underlying.\r"
        }
      },
      "getExpirationList()": {
        "details": "Implementation of getting the eligible expirationList.\r"
      },
      "getUnderlyingAssets()": {
        "details": "Implementation of getting the eligible underlyingAssets.\r"
      },
      "isEligibleExpiration(uint256)": {
        "details": "Implementation of testing whether the input expiration is eligible.\r",
        "params": {
          "expiration": "input expiration for testing.\r"
        }
      },
      "isEligibleUnderlyingAsset(uint32)": {
        "details": "Implementation of testing whether the input underlying is eligible.\r",
        "params": {
          "underlying": "input underlying for testing.\r"
        }
      },
      "isOwner()": {
        "details": "Returns true if the caller is the current owner."
      },
      "owner()": {
        "details": "Returns the address of the current owner."
      },
      "removeExpirationList(uint256)": {
        "details": "Implementation of revoke an invalid expiration from the expirationList.\r",
        "params": {
          "removeExpiration": "revoked expiration.\r"
        }
      },
      "removeUnderlyingAssets(uint32)": {
        "details": "Implementation of revoke an invalid underlying from the underlyingAssets.\r",
        "params": {
          "removeUnderlying": "revoked underlying.\r"
        }
      },
      "renounceOwnership()": {
        "details": "Leaves the contract without owner. It will not be possible to call `onlyOwner` functions anymore. Can only be called by the current owner.     * NOTE: Renouncing ownership will leave the contract without an owner, thereby removing any functionality that is only available to the owner."
      },
      "transferOwnership(address)": {
        "details": "Transfers ownership of the contract to a new account (`newOwner`). Can only be called by the current owner."
      }
    }
  },
  "userdoc": {
    "methods": {
      "setManager(address)": {
        "notice": "contribution period to stop or not."
      }
    }
  }
}