{
  "contractName": "OptionsOccupiedCal",
  "abi": [
    {
      "anonymous": false,
      "inputs": [
        {
          "indexed": true,
          "internalType": "address",
          "name": "owner",
          "type": "address"
        },
        {
          "indexed": true,
          "internalType": "uint256",
          "name": "optionID",
          "type": "uint256"
        },
        {
          "indexed": false,
          "internalType": "uint256",
          "name": "amount",
          "type": "uint256"
        }
      ],
      "name": "BurnOption",
      "type": "event"
    },
    {
      "anonymous": false,
      "inputs": [
        {
          "indexed": true,
          "internalType": "address",
          "name": "owner",
          "type": "address"
        },
        {
          "indexed": true,
          "internalType": "uint256",
          "name": "optionID",
          "type": "uint256"
        },
        {
          "indexed": false,
          "internalType": "uint8",
          "name": "optType",
          "type": "uint8"
        },
        {
          "indexed": false,
          "internalType": "uint32",
          "name": "underlying",
          "type": "uint32"
        },
        {
          "indexed": false,
          "internalType": "uint256",
          "name": "expiration",
          "type": "uint256"
        },
        {
          "indexed": false,
          "internalType": "uint256",
          "name": "strikePrice",
          "type": "uint256"
        },
        {
          "indexed": false,
          "internalType": "uint256",
          "name": "amount",
          "type": "uint256"
        }
      ],
      "name": "CreateOption",
      "type": "event"
    },
    {
      "anonymous": false,
      "inputs": [
        {
          "indexed": true,
          "internalType": "address",
          "name": "previousOwner",
          "type": "address"
        },
        {
          "indexed": true,
          "internalType": "address",
          "name": "newOwner",
          "type": "address"
        }
      ],
      "name": "OwnershipTransferred",
      "type": "event"
    },
    {
      "constant": false,
      "inputs": [
        {
          "internalType": "uint256",
          "name": "expiration",
          "type": "uint256"
        }
      ],
      "name": "addExpiration",
      "outputs": [],
      "payable": false,
      "stateMutability": "nonpayable",
      "type": "function"
    },
    {
      "constant": false,
      "inputs": [
        {
          "internalType": "address",
          "name": "addAddress",
          "type": "address"
        }
      ],
      "name": "addOperator",
      "outputs": [],
      "payable": false,
      "stateMutability": "nonpayable",
      "type": "function"
    },
    {
      "constant": false,
      "inputs": [
        {
          "internalType": "uint32",
          "name": "underlying",
          "type": "uint32"
        }
      ],
      "name": "addUnderlyingAsset",
      "outputs": [],
      "payable": false,
      "stateMutability": "nonpayable",
      "type": "function"
    },
    {
      "constant": true,
      "inputs": [
        {
          "internalType": "uint256",
          "name": "expiration",
          "type": "uint256"
        },
        {
          "internalType": "uint32",
          "name": "underlying",
          "type": "uint32"
        }
      ],
      "name": "buyOptionCheck",
      "outputs": [],
      "payable": false,
      "stateMutability": "view",
      "type": "function"
    },
    {
      "constant": true,
      "inputs": [
        {
          "internalType": "uint256",
          "name": "expiration",
          "type": "uint256"
        }
      ],
      "name": "checkExpiration",
      "outputs": [],
      "payable": false,
      "stateMutability": "view",
      "type": "function"
    },
    {
      "constant": true,
      "inputs": [
        {
          "internalType": "uint256",
          "name": "optionID",
          "type": "uint256"
        },
        {
          "internalType": "uint256",
          "name": "amount",
          "type": "uint256"
        }
      ],
      "name": "getBurnedFullPay",
      "outputs": [
        {
          "internalType": "address",
          "name": "",
          "type": "address"
        },
        {
          "internalType": "uint256",
          "name": "",
          "type": "uint256"
        }
      ],
      "payable": false,
      "stateMutability": "view",
      "type": "function"
    },
    {
      "constant": true,
      "inputs": [
        {
          "internalType": "uint256",
          "name": "optionsId",
          "type": "uint256"
        },
        {
          "internalType": "uint256",
          "name": "amount",
          "type": "uint256"
        }
      ],
      "name": "getExerciseWorth",
      "outputs": [
        {
          "internalType": "uint256",
          "name": "",
          "type": "uint256"
        }
      ],
      "payable": false,
      "stateMutability": "view",
      "type": "function"
    },
    {
      "constant": true,
      "inputs": [],
      "name": "getExpirationList",
      "outputs": [
        {
          "internalType": "uint256[]",
          "name": "",
          "type": "uint256[]"
        }
      ],
      "payable": false,
      "stateMutability": "view",
      "type": "function"
    },
    {
      "constant": true,
      "inputs": [],
      "name": "getInputAmountRange",
      "outputs": [
        {
          "internalType": "uint256",
          "name": "",
          "type": "uint256"
        },
        {
          "internalType": "uint256",
          "name": "",
          "type": "uint256"
        }
      ],
      "payable": false,
      "stateMutability": "view",
      "type": "function"
    },
    {
      "constant": true,
      "inputs": [
        {
          "internalType": "uint256",
          "name": "item",
          "type": "uint256"
        }
      ],
      "name": "getItemTimeLimitation",
      "outputs": [
        {
          "internalType": "uint256",
          "name": "",
          "type": "uint256"
        }
      ],
      "payable": false,
      "stateMutability": "view",
      "type": "function"
    },
    {
      "constant": true,
      "inputs": [],
      "name": "getManager",
      "outputs": [
        {
          "internalType": "address",
          "name": "",
          "type": "address"
        }
      ],
      "payable": false,
      "stateMutability": "view",
      "type": "function"
    },
    {
      "constant": true,
      "inputs": [],
      "name": "getOperator",
      "outputs": [
        {
          "internalType": "address[]",
          "name": "",
          "type": "address[]"
        }
      ],
      "payable": false,
      "stateMutability": "view",
      "type": "function"
    },
    {
      "constant": true,
      "inputs": [],
      "name": "getOptionInfoLength",
      "outputs": [
        {
          "internalType": "uint256",
          "name": "",
          "type": "uint256"
        }
      ],
      "payable": false,
      "stateMutability": "view",
      "type": "function"
    },
    {
      "constant": true,
      "inputs": [
        {
          "internalType": "uint256",
          "name": "from",
          "type": "uint256"
        },
        {
          "internalType": "uint256",
          "name": "size",
          "type": "uint256"
        }
      ],
      "name": "getOptionInfoList",
      "outputs": [
        {
          "internalType": "address[]",
          "name": "",
          "type": "address[]"
        },
        {
          "internalType": "uint256[]",
          "name": "",
          "type": "uint256[]"
        },
        {
          "internalType": "uint256[]",
          "name": "",
          "type": "uint256[]"
        },
        {
          "internalType": "uint256[]",
          "name": "",
          "type": "uint256[]"
        },
        {
          "internalType": "uint256[]",
          "name": "",
          "type": "uint256[]"
        }
      ],
      "payable": false,
      "stateMutability": "view",
      "type": "function"
    },
    {
      "constant": true,
      "inputs": [
        {
          "internalType": "uint256[]",
          "name": "ids",
          "type": "uint256[]"
        }
      ],
      "name": "getOptionInfoListFromID",
      "outputs": [
        {
          "internalType": "address[]",
          "name": "",
          "type": "address[]"
        },
        {
          "internalType": "uint256[]",
          "name": "",
          "type": "uint256[]"
        },
        {
          "internalType": "uint256[]",
          "name": "",
          "type": "uint256[]"
        },
        {
          "internalType": "uint256[]",
          "name": "",
          "type": "uint256[]"
        },
        {
          "internalType": "uint256[]",
          "name": "",
          "type": "uint256[]"
        }
      ],
      "payable": false,
      "stateMutability": "view",
      "type": "function"
    },
    {
      "constant": true,
      "inputs": [
        {
          "internalType": "uint256",
          "name": "optionsId",
          "type": "uint256"
        }
      ],
      "name": "getOptionsById",
      "outputs": [
        {
          "internalType": "uint256",
          "name": "",
          "type": "uint256"
        },
        {
          "internalType": "address",
          "name": "",
          "type": "address"
        },
        {
          "internalType": "uint8",
          "name": "",
          "type": "uint8"
        },
        {
          "internalType": "uint32",
          "name": "",
          "type": "uint32"
        },
        {
          "internalType": "uint256",
          "name": "",
          "type": "uint256"
        },
        {
          "internalType": "uint256",
          "name": "",
          "type": "uint256"
        },
        {
          "internalType": "uint256",
          "name": "",
          "type": "uint256"
        }
      ],
      "payable": false,
      "stateMutability": "view",
      "type": "function"
    },
    {
      "constant": true,
      "inputs": [
        {
          "internalType": "uint256",
          "name": "optionsId",
          "type": "uint256"
        }
      ],
      "name": "getOptionsExtraById",
      "outputs": [
        {
          "internalType": "address",
          "name": "",
          "type": "address"
        },
        {
          "internalType": "uint256",
          "name": "",
          "type": "uint256"
        },
        {
          "internalType": "uint256",
          "name": "",
          "type": "uint256"
        },
        {
          "internalType": "uint256",
          "name": "",
          "type": "uint256"
        },
        {
          "internalType": "uint256",
          "name": "",
          "type": "uint256"
        },
        {
          "internalType": "uint256",
          "name": "",
          "type": "uint256"
        }
      ],
      "payable": false,
      "stateMutability": "view",
      "type": "function"
    },
    {
      "constant": true,
      "inputs": [
        {
          "internalType": "uint256",
          "name": "optionsId",
          "type": "uint256"
        }
      ],
      "name": "getOptionsLimitTimeById",
      "outputs": [
        {
          "internalType": "uint256",
          "name": "",
          "type": "uint256"
        }
      ],
      "payable": false,
      "stateMutability": "view",
      "type": "function"
    },
    {
      "constant": true,
      "inputs": [],
      "name": "getOptionsPriceAddress",
      "outputs": [
        {
          "internalType": "address",
          "name": "",
          "type": "address"
        }
      ],
      "payable": false,
      "stateMutability": "view",
      "type": "function"
    },
    {
      "constant": true,
      "inputs": [],
      "name": "getOracleAddress",
      "outputs": [
        {
          "internalType": "address",
          "name": "",
          "type": "address"
        }
      ],
      "payable": false,
      "stateMutability": "view",
      "type": "function"
    },
    {
      "constant": true,
      "inputs": [],
      "name": "getTimeLimitation",
      "outputs": [
        {
          "internalType": "uint256",
          "name": "",
          "type": "uint256"
        }
      ],
      "payable": false,
      "stateMutability": "view",
      "type": "function"
    },
    {
      "constant": true,
      "inputs": [],
      "name": "getUnderlyingAssets",
      "outputs": [
        {
          "internalType": "uint32[]",
          "name": "",
          "type": "uint32[]"
        }
      ],
      "payable": false,
      "stateMutability": "view",
      "type": "function"
    },
    {
      "constant": true,
      "inputs": [
        {
          "internalType": "address",
          "name": "user",
          "type": "address"
        }
      ],
      "name": "getUserOptionsID",
      "outputs": [
        {
          "internalType": "uint256[]",
          "name": "",
          "type": "uint256[]"
        }
      ],
      "payable": false,
      "stateMutability": "view",
      "type": "function"
    },
    {
      "constant": true,
      "inputs": [
        {
          "internalType": "address",
          "name": "user",
          "type": "address"
        },
        {
          "internalType": "uint256",
          "name": "from",
          "type": "uint256"
        },
        {
          "internalType": "uint256",
          "name": "size",
          "type": "uint256"
        }
      ],
      "name": "getUserOptionsID",
      "outputs": [
        {
          "internalType": "uint256[]",
          "name": "",
          "type": "uint256[]"
        }
      ],
      "payable": false,
      "stateMutability": "view",
      "type": "function"
    },
    {
      "constant": true,
      "inputs": [],
      "name": "getVolatilityAddress",
      "outputs": [
        {
          "internalType": "address",
          "name": "",
          "type": "address"
        }
      ],
      "payable": false,
      "stateMutability": "view",
      "type": "function"
    },
    {
      "constant": false,
      "inputs": [],
      "name": "initialize",
      "outputs": [],
      "payable": false,
      "stateMutability": "nonpayable",
      "type": "function"
    },
    {
      "constant": true,
      "inputs": [
        {
          "internalType": "uint256",
          "name": "expiration",
          "type": "uint256"
        }
      ],
      "name": "isEligibleExpiration",
      "outputs": [
        {
          "internalType": "bool",
          "name": "",
          "type": "bool"
        }
      ],
      "payable": false,
      "stateMutability": "view",
      "type": "function"
    },
    {
      "constant": true,
      "inputs": [
        {
          "internalType": "uint32",
          "name": "underlying",
          "type": "uint32"
        }
      ],
      "name": "isEligibleUnderlyingAsset",
      "outputs": [
        {
          "internalType": "bool",
          "name": "",
          "type": "bool"
        }
      ],
      "payable": false,
      "stateMutability": "view",
      "type": "function"
    },
    {
      "constant": true,
      "inputs": [],
      "name": "isOwner",
      "outputs": [
        {
          "internalType": "bool",
          "name": "",
          "type": "bool"
        }
      ],
      "payable": false,
      "stateMutability": "view",
      "type": "function"
    },
    {
      "constant": true,
      "inputs": [],
      "name": "owner",
      "outputs": [
        {
          "internalType": "address",
          "name": "",
          "type": "address"
        }
      ],
      "payable": false,
      "stateMutability": "view",
      "type": "function"
    },
    {
      "constant": false,
      "inputs": [
        {
          "internalType": "uint256",
          "name": "removeExpiration",
          "type": "uint256"
        }
      ],
      "name": "removeExpirationList",
      "outputs": [
        {
          "internalType": "bool",
          "name": "",
          "type": "bool"
        }
      ],
      "payable": false,
      "stateMutability": "nonpayable",
      "type": "function"
    },
    {
      "constant": false,
      "inputs": [
        {
          "internalType": "address",
          "name": "removeAddress",
          "type": "address"
        }
      ],
      "name": "removeOperator",
      "outputs": [
        {
          "internalType": "bool",
          "name": "",
          "type": "bool"
        }
      ],
      "payable": false,
      "stateMutability": "nonpayable",
      "type": "function"
    },
    {
      "constant": false,
      "inputs": [
        {
          "internalType": "uint32",
          "name": "removeUnderlying",
          "type": "uint32"
        }
      ],
      "name": "removeUnderlyingAssets",
      "outputs": [
        {
          "internalType": "bool",
          "name": "",
          "type": "bool"
        }
      ],
      "payable": false,
      "stateMutability": "nonpayable",
      "type": "function"
    },
    {
      "constant": false,
      "inputs": [],
      "name": "renounceOwnership",
      "outputs": [],
      "payable": false,
      "stateMutability": "nonpayable",
      "type": "function"
    },
    {
      "constant": false,
      "inputs": [
        {
          "internalType": "uint256",
          "name": "_minAmount",
          "type": "uint256"
        },
        {
          "internalType": "uint256",
          "name": "_maxAmount",
          "type": "uint256"
        }
      ],
      "name": "setInputAmountRange",
      "outputs": [],
      "payable": false,
      "stateMutability": "nonpayable",
      "type": "function"
    },
    {
      "constant": false,
      "inputs": [
        {
          "internalType": "address",
          "name": "managerAddress",
          "type": "address"
        }
      ],
      "name": "setManager",
      "outputs": [],
      "payable": false,
      "stateMutability": "nonpayable",
      "type": "function"
    },
    {
      "constant": false,
      "inputs": [
        {
          "internalType": "uint256",
          "name": "index",
          "type": "uint256"
        },
        {
          "internalType": "address",
          "name": "addAddress",
          "type": "address"
        }
      ],
      "name": "setOperator",
      "outputs": [],
      "payable": false,
      "stateMutability": "nonpayable",
      "type": "function"
    },
    {
      "constant": false,
      "inputs": [
        {
          "internalType": "address[]",
          "name": "operators",
          "type": "address[]"
        }
      ],
      "name": "setOperators",
      "outputs": [],
      "payable": false,
      "stateMutability": "nonpayable",
      "type": "function"
    },
    {
      "constant": false,
      "inputs": [
        {
          "internalType": "address",
          "name": "optionsPrice",
          "type": "address"
        }
      ],
      "name": "setOptionsPriceAddress",
      "outputs": [],
      "payable": false,
      "stateMutability": "nonpayable",
      "type": "function"
    },
    {
      "constant": false,
      "inputs": [
        {
          "internalType": "address",
          "name": "oracle",
          "type": "address"
        }
      ],
      "name": "setOracleAddress",
      "outputs": [],
      "payable": false,
      "stateMutability": "nonpayable",
      "type": "function"
    },
    {
      "constant": false,
      "inputs": [
        {
          "internalType": "uint256",
          "name": "_limitation",
          "type": "uint256"
        }
      ],
      "name": "setTimeLimitation",
      "outputs": [],
      "payable": false,
      "stateMutability": "nonpayable",
      "type": "function"
    },
    {
      "constant": false,
      "inputs": [
        {
          "internalType": "address",
          "name": "volatility",
          "type": "address"
        }
      ],
      "name": "setVolatilityAddress",
      "outputs": [],
      "payable": false,
      "stateMutability": "nonpayable",
      "type": "function"
    },
    {
      "constant": false,
      "inputs": [
        {
          "internalType": "address",
          "name": "newOwner",
          "type": "address"
        }
      ],
      "name": "transferOwnership",
      "outputs": [],
      "payable": false,
      "stateMutability": "nonpayable",
      "type": "function"
    },
    {
      "constant": true,
      "inputs": [],
      "name": "getOccupiedCalInfo",
      "outputs": [
        {
          "internalType": "uint256",
          "name": "",
          "type": "uint256"
        },
        {
          "internalType": "int256",
          "name": "",
          "type": "int256"
        }
      ],
      "payable": false,
      "stateMutability": "view",
      "type": "function"
    },
    {
      "constant": false,
      "inputs": [],
      "name": "setOccupiedCollateral",
      "outputs": [],
      "payable": false,
      "stateMutability": "nonpayable",
      "type": "function"
    },
    {
      "constant": true,
      "inputs": [
        {
          "internalType": "uint256",
          "name": "lastOption",
          "type": "uint256"
        },
        {
          "internalType": "uint256",
          "name": "beginOption",
          "type": "uint256"
        },
        {
          "internalType": "uint256",
          "name": "endOption",
          "type": "uint256"
        }
      ],
      "name": "calculatePhaseOccupiedCollateral",
      "outputs": [
        {
          "internalType": "uint256",
          "name": "",
          "type": "uint256"
        },
        {
          "internalType": "uint256",
          "name": "",
          "type": "uint256"
        },
        {
          "internalType": "bool",
          "name": "",
          "type": "bool"
        }
      ],
      "payable": false,
      "stateMutability": "view",
      "type": "function"
    },
    {
      "constant": false,
      "inputs": [
        {
          "internalType": "uint256",
          "name": "totalOccupied",
          "type": "uint256"
        },
        {
          "internalType": "uint256",
          "name": "beginOption",
          "type": "uint256"
        },
        {
          "internalType": "int256",
          "name": "latestOccpied",
          "type": "int256"
        }
      ],
      "name": "setCollateralPhase",
      "outputs": [],
      "payable": false,
      "stateMutability": "nonpayable",
      "type": "function"
    },
    {
      "constant": true,
      "inputs": [],
      "name": "getTotalOccupiedCollateral",
      "outputs": [
        {
          "internalType": "uint256",
          "name": "",
          "type": "uint256"
        }
      ],
      "payable": false,
      "stateMutability": "view",
      "type": "function"
    }
  ],
  "bytecode": "0x60806040819052610e106003556c0c9f2c9cd04674edea40000000600455633b9aca0060055560008054600160a060020a0319163317808255600160a060020a0316917f8be0079c531659141344cd1fd0a4f28419497f9722a3daafe3b4186f6b6457e0908290a36200007a64010000000062000080810204565b620002e2565b6200009364010000000062000189810204565b620000ff57604080517f08c379a000000000000000000000000000000000000000000000000000000000815260206004820181905260248201527f4f776e61626c653a2063616c6c6572206973206e6f7420746865206f776e6572604482015290519081900360640190fd5b60408051610100810182526201518081526202a30060208201526203f4809181019190915262093a806060820152620d2f0060808201526213c68060a0820152621a5e0060c082015262278d0060e08201526200016190600e9060086200019b565b50604080518082019091526001808252600260208301819052620001869290620001f2565b50565b600054600160a060020a031633145b90565b828054828255906000526020600020908101928215620001e0579160200282015b82811115620001e0578251829062ffffff16905591602001919060010190620001bc565b50620001ee929150620002a1565b5090565b82805482825590600052602060002090600701600890048101928215620002935791602002820160005b838211156200025f57835183826101000a81548163ffffffff021916908360ff16021790555092602001926004016020816003010492830192600103026200021c565b8015620002915782816101000a81549063ffffffff02191690556004016020816003010492830192600103026200025f565b505b50620001ee929150620002be565b6200019891905b80821115620001ee5760008155600101620002a8565b6200019891905b80821115620001ee57805463ffffffff19168155600101620002c5565b6132b980620002f26000396000f3fe608060405234801561001057600080fd5b50600436106102a45760003560e060020a900480638da5cb5b1161016b578063bec3107f116100d2578063e7a1c1c01161008b578063e7a1c1c014610a9c578063e7c5681514610ac8578063e7f43c6814610aee578063f2fde38b14610af6578063f504e2f014610b1c578063f7de192314610b24576102a4565b8063bec3107f1461097d578063d0ebdbe714610985578063d5009584146109ab578063d6d14012146109b3578063db6ad2bd146109d6578063ddf71cd5146109f9576102a4565b80639ef975d2116101245780639ef975d2146108e1578063a093e2d0146108fe578063ac8a584a14610924578063afec82fc1461094a578063b18b78dd1461096d578063bc9abed214610975576102a4565b80638da5cb5b146108635780638f32d59b1461086b5780639052d5f8146108735780639783cbd91461087b5780639870d7fe146108985780639ab91a35146108be576102a4565b806348ee201d1161020f578063715018a6116101c8578063715018a6146107e0578063723931ca146107e857806373a3d424146108055780637cfff2d81461080d5780637e838fa31461082a5780638129fc1c1461085b576102a4565b806348ee201d146106c85780634c69c00f1461072c578063597ce900146107525780635ca4b73b1461079857806367b8ceb9146107a05780636d84e2e3146107c3576102a4565b80632a75ee42116102615780632a75ee4214610549578063354af360146105785780633582d7891461061b5780633ad2fb571461067357806342e5479d1461069c5780634688d5d6146106c0576102a4565b80630438d490146102a957806307af147814610434578063090576221461048e5780630c372571146104af57806312039cc2146104f85780632967eafe14610523575b600080fd5b6102cc600480360360408110156102bf57600080fd5b5080359060200135610b56565b60405180806020018060200180602001806020018060200186810386528b818151815260200191508051906020019060200280838360005b8381101561031c578181015183820152602001610304565b5050505090500186810385528a818151815260200191508051906020019060200280838360005b8381101561035b578181015183820152602001610343565b50505050905001868103845289818151815260200191508051906020019060200280838360005b8381101561039a578181015183820152602001610382565b50505050905001868103835288818151815260200191508051906020019060200280838360005b838110156103d95781810151838201526020016103c1565b50505050905001868103825287818151815260200191508051906020019060200280838360005b83811015610418578181015183820152602001610400565b505050509050019a505050505050505050505060405180910390f35b6104516004803603602081101561044a57600080fd5b5035610e2a565b60408051600160a060020a0390971687526020870195909552858501939093526060850191909152608084015260a0830152519081900360c00190f35b610496610edd565b6040805192835260208301919091528051918290030190f35b6104d8600480360360608110156104c557600080fd5b5080359060208101359060400135610ee7565b604080519384526020840192909252151582820152519081900360600190f35b6105216004803603606081101561050e57600080fd5b5080359060208101359060400135610f5b565b005b6105216004803603602081101561053957600080fd5b5035600160a060020a03166110db565b6105666004803603602081101561055f57600080fd5b5035611147565b60408051918252519081900360200190f35b6102cc6004803603602081101561058e57600080fd5b8101906020810181356401000000008111156105a957600080fd5b8201836020820111156105bb57600080fd5b803590602001918460208302840111640100000000831117156105dd57600080fd5b91908080602002602001604051908101604052809392919081815260200183836020028082843760009201919091525092955061115e945050505050565b6106236113b5565b60408051602080825283518183015283519192839290830191858101910280838360005b8381101561065f578181015183820152602001610647565b505050509050019250505060405180910390f35b6105216004803603604081101561068957600080fd5b508035906020013563ffffffff1661143a565b6106a46114a4565b60408051600160a060020a039092168252519081900360200190f35b6105666114b3565b6106e5600480360360208110156106de57600080fd5b50356114b9565b60408051978852600160a060020a03909616602088015260ff9094168686015263ffffffff9092166060860152608085015260a084015260c0830152519081900360e00190f35b6105216004803603602081101561074257600080fd5b5035600160a060020a031661152d565b6107756004803603604081101561076857600080fd5b5080359060200135611599565b60408051600160a060020a03909316835260208301919091528051918290030190f35b6106a4611627565b610566600480360360408110156107b657600080fd5b5080359060200135611636565b610566600480360360208110156107d957600080fd5b503561171d565b61052161178d565b610521600480360360208110156107fe57600080fd5b5035611821565b61056661186b565b6105216004803603602081101561082357600080fd5b50356118f5565b6108476004803603602081101561084057600080fd5b5035611950565b604080519115158252519081900360200190f35b6105216119ad565b6106a4611a7a565b610847611a89565b610623611a9a565b6105216004803603602081101561089157600080fd5b5035611af1565b610521600480360360208110156108ae57600080fd5b5035600160a060020a0316611b40565b610521600480360360408110156108d457600080fd5b5080359060200135611b9b565b610847600480360360208110156108f757600080fd5b5035611bf0565b6105216004803603602081101561091457600080fd5b5035600160a060020a0316611c55565b6108476004803603602081101561093a57600080fd5b5035600160a060020a0316611cc1565b6105216004803603602081101561096057600080fd5b503563ffffffff16611d1e565b6106a4611d79565b610496611d88565b610566611d92565b6105216004803603602081101561099b57600080fd5b5035600160a060020a0316611d98565b6106a4611e04565b610847600480360360208110156109c957600080fd5b503563ffffffff16611e13565b610847600480360360208110156109ec57600080fd5b503563ffffffff16611e70565b61052160048036036020811015610a0f57600080fd5b810190602081018135640100000000811115610a2a57600080fd5b820183602082011115610a3c57600080fd5b80359060200191846020830284011164010000000083111715610a5e57600080fd5b919080806020026020016040519081016040528093929190818152602001838360200280828437600092019190915250929550611f01945050505050565b61052160048036036040811015610ab257600080fd5b5080359060200135600160a060020a0316611f5e565b61062360048036036020811015610ade57600080fd5b5035600160a060020a0316611fe8565b610623612054565b61052160048036036020811015610b0c57600080fd5b5035600160a060020a03166120b5565b610521612108565b61062360048036036060811015610b3a57600080fd5b50600160a060020a0381351690602081013590604001356121be565b6060806060806060600b805490508710610bba576040805160e560020a62461bcd02815260206004820152601660248201527f696e7075742066726f6d206973206f766572666c6f7700000000000000000000604482015290519081900360640190fd5b60008611610c12576040805160e560020a62461bcd02815260206004820152601260248201527f696e7075742073697a65206973207a65726f0000000000000000000000000000604482015290519081900360640190fd5b600b548787011115610c2757600b5487900395505b606086604051908082528060200260200182016040528015610c53578160200160208202803883390190505b509050606087604051908082528060200260200182016040528015610c82578160200160208202803883390190505b509050606088604051908082528060200260200182016040528015610cb1578160200160208202803883390190505b509050606089604051908082528060200260200182016040528015610ce0578160200160208202803883390190505b50905060608a604051908082528060200260200182016040528015610d0f578160200160208202803883390190505b50905060005b8b811015610e16576000600b828f0181548110610d2e57fe5b906000526020600020906005020190508060000160089054906101000a9004600160a060020a0316878381518110610d6257fe5b600160a060020a03929092166020928302919091019091015280546001820154875160e060020a90920460ff1663ffffffff9182166201000002011690879084908110610dab57fe5b6020026020010181815250508060020154858381518110610dc857fe5b6020026020010181815250508060030154848381518110610de557fe5b6020026020010181815250508060040154838381518110610e0257fe5b602090810291909101015250600101610d15565b50939b929a50909850965090945092505050565b600080600080600080600087118015610e455750600b548711155b610e99576040805160e560020a62461bcd02815260206004820152601660248201527f6f7074696f6e206964206973206e6f7420657869737400000000000000000000604482015290519081900360640190fd5b50505060009384525050600c602052506040902080546001820154600283015460038401546004850154600590950154600160a060020a0390941695929491939092565b6011546013549091565b6000806000601154851015610efc5760115494505b858510610f1157506000915081905080610f52565b85841115610f2157859350610f39565b601154841015610f3957506000915081905080610f52565b600080610f46878761235f565b90955093506001925050505b93509350939050565b600a5460009015801590610f98575033600160a060020a0316600a8281548110610f8157fe5b600091825260209091200154600160a060020a0316145b610fd65760405160e560020a62461bcd0281526004018080602001828103825260308152602001806131c66030913960400191505060405180910390fd5b600b54831115611030576040805160e560020a62461bcd02815260206004820152601b60248201527f626567696e4f7074696f6e2063616c63756c617465204572726f720000000000604482015290519081900360640190fd5b6011548311156110405760118390555b6012849055701d6329f1c35ca4bfabb9f560ffffffffff1982128015906110785750701d6329f1c35ca4bfabb9f56100000000008213155b6110cc576040805160e560020a62461bcd02815260206004820152601c60248201527f6f7074696f6e732066616c6c2063616c63756c617465206572726f7200000000604482015290519081900360640190fd5b50601380549190910390555050565b6110e3611a89565b611125576040805160e560020a62461bcd02815260206004820181905260248201526000805160206131f6833981519152604482015290519081900360640190fd5b60088054600160a060020a031916600160a060020a0392909216919091179055565b600354600091825260026020526040909120540190565b6060806060806060600086519050600081116111c4576040805160e560020a62461bcd02815260206004820152601860248201527f696e7075742069647320617272617920697320656d7074790000000000000000604482015290519081900360640190fd5b6060816040519080825280602002602001820160405280156111f0578160200160208202803883390190505b50905060608260405190808252806020026020018201604052801561121f578160200160208202803883390190505b50905060608360405190808252806020026020018201604052801561124e578160200160208202803883390190505b50905060608460405190808252806020026020018201604052801561127d578160200160208202803883390190505b5090506060856040519080825280602002602001820160405280156112ac578160200160208202803883390190505b50905060005b86811015610e165760006112d88e83815181106112cb57fe5b6020026020010151612493565b80548851919250680100000000000000009004600160a060020a03169088908490811061130157fe5b600160a060020a03929092166020928302919091019091015280546001820154875160e060020a90920460ff1663ffffffff918216620100000201169087908490811061134a57fe5b602002602001018181525050806002015485838151811061136757fe5b602002602001018181525050806003015484838151811061138457fe5b60200260200101818152505080600401548383815181106113a157fe5b6020908102919091010152506001016112b2565b6060600180548060200260200160405190810160405280929190818152602001828054801561142f57602002820191906000526020600020906000905b82829054906101000a900463ffffffff1663ffffffff16815260200190600401906020826003010492830192600103820291508084116113f25790505b505050505090505b90565b61144381611e70565b611497576040805160e560020a62461bcd02815260206004820152601f60248201527f756e6465726c79696e6720697320756e737570706f7274656420617373657400604482015290519081900360640190fd5b6114a082611821565b5050565b600854600160a060020a031690565b60035490565b6000806000806000806000806114ce89612493565b805460018201546002830154600384015460049094015467ffffffffffffffff84169e680100000000000000008504600160a060020a03169e5060e060020a90940460ff169c5063ffffffff9092169a50985091965090945092505050565b611535611a89565b611577576040805160e560020a62461bcd02815260206004820181905260248201526000805160206131f6833981519152604482015290519081900360640190fd5b60078054600160a060020a031916600160a060020a0392909216919091179055565b600080828060045410156115e15760405160e560020a62461bcd0281526004018080602001828103825260248152602001806132376024913960400191505060405180910390fd5b60001985016000908152600c60205260409020805460018201546003830154600160a060020a0390921691670de0b6b3a764000091028702049350935050509250929050565b600954600160a060020a031690565b6000611640612f2a565b61164984612493565b6040805160e081018252825467ffffffffffffffff81168252680100000000000000008104600160a060020a0316602083015260e060020a900460ff1691810191909152600182015463ffffffff16606082015260028201546080820152600382015460a082015260049091015460c082015290506116c78161251f565b6116d1818461257a565b60006116e6826060015163ffffffff166125d6565b905060006116fd83604001518460a0015184612690565b9050806117105760009350505050611717565b8402925050505b92915050565b600080821180156117305750600b548211155b611784576040805160e560020a62461bcd02815260206004820152601660248201527f6f7074696f6e206964206973206e6f7420657869737400000000000000000000604482015290519081900360640190fd5b61171782611147565b611795611a89565b6117d7576040805160e560020a62461bcd02815260206004820181905260248201526000805160206131f6833981519152604482015290519081900360640190fd5b60008054604051600160a060020a03909116907f8be0079c531659141344cd1fd0a4f28419497f9722a3daafe3b4186f6b6457e0908390a360008054600160a060020a0319169055565b61182a81611bf0565b6118685760405160e560020a62461bcd0281526004018080602001828103825260218152602001806132166021913960400191505060405180910390fd5b50565b600080601354126118c857601354601254908101908110156118c15760405160e560020a62461bcd02815260040180806020018281038252602a81526020018061325b602a913960400191505060405180910390fd5b9050611437565b600060135460000390508060125411156118e757601254039050611437565b6000915050611437565b5090565b6118fd611a89565b61193f576040805160e560020a62461bcd02815260206004820181905260248201526000805160206131f6833981519152604482015290519081900360640190fd5b611868600e8263ffffffff6126c416565b600061195a611a89565b61199c576040805160e560020a62461bcd02815260206004820181905260248201526000805160206131f6833981519152604482015290519081900360640190fd5b611717600e8363ffffffff61273916565b6119b5611a89565b6119f7576040805160e560020a62461bcd02815260206004820181905260248201526000805160206131f6833981519152604482015290519081900360640190fd5b60408051610100810182526201518081526202a30060208201526203f4809181019190915262093a806060820152620d2f0060808201526213c68060a0820152621a5e0060c082015262278d0060e0820152611a5790600e906008612f66565b506040805180820190915260018082526002602083018190526118689290612fb4565b600054600160a060020a031690565b600054600160a060020a0316331490565b6060600e80548060200260200160405190810160405280929190818152602001828054801561142f57602002820191906000526020600020905b815481526020019060010190808311611ad4575050505050905090565b611af9611a89565b611b3b576040805160e560020a62461bcd02815260206004820181905260248201526000805160206131f6833981519152604482015290519081900360640190fd5b600355565b611b48611a89565b611b8a576040805160e560020a62461bcd02815260206004820181905260248201526000805160206131f6833981519152604482015290519081900360640190fd5b611868600a8263ffffffff6127df16565b611ba3611a89565b611be5576040805160e560020a62461bcd02815260206004820181905260248201526000805160206131f6833981519152604482015290519081900360640190fd5b600591909155600455565b600061171782600e805480602002602001604051908101604052809291908181526020018280548015611c4257602002820191906000526020600020905b815481526020019060010190808311611c2e575b505050505061287790919063ffffffff16565b611c5d611a89565b611c9f576040805160e560020a62461bcd02815260206004820181905260248201526000805160206131f6833981519152604482015290519081900360640190fd5b60098054600160a060020a031916600160a060020a0392909216919091179055565b6000611ccb611a89565b611d0d576040805160e560020a62461bcd02815260206004820181905260248201526000805160206131f6833981519152604482015290519081900360640190fd5b611717600a8363ffffffff6128b416565b611d26611a89565b611d68576040805160e560020a62461bcd02815260206004820181905260248201526000805160206131f6833981519152604482015290519081900360640190fd5b61186860018263ffffffff61298a16565b600754600160a060020a031690565b6005546004549091565b600b5490565b611da0611a89565b611de2576040805160e560020a62461bcd02815260206004820181905260248201526000805160206131f6833981519152604482015290519081900360640190fd5b60068054600160a060020a031916600160a060020a0392909216919091179055565b600654600160a060020a031690565b6000611e1d611a89565b611e5f576040805160e560020a62461bcd02815260206004820181905260248201526000805160206131f6833981519152604482015290519081900360640190fd5b61171760018363ffffffff612a5116565b6000611717826001805480602002602001604051908101604052809291908181526020018280548015611eee57602002820191906000526020600020906000905b82829054906101000a900463ffffffff1663ffffffff1681526020019060040190602082600301049283019260010382029150808411611eb15790505b5050505050612b4190919063ffffffff16565b611f09611a89565b611f4b576040805160e560020a62461bcd02815260206004820181905260248201526000805160206131f6833981519152604482015290519081900360640190fd5b80516114a090600a90602084019061305c565b611f66611a89565b611fa8576040805160e560020a62461bcd02815260206004820181905260248201526000805160206131f6833981519152604482015290519081900360640190fd5b80600a8381548110611fb657fe5b9060005260206000200160006101000a815481600160a060020a030219169083600160a060020a031602179055505050565b600160a060020a0381166000908152600d602090815260409182902080548351818402810184019094528084526060939283018282801561204857602002820191906000526020600020905b815481526020019060010190808311612034575b50505050509050919050565b6060600a80548060200260200160405190810160405280929190818152602001828054801561142f57602002820191906000526020600020905b8154600160a060020a0316815260019091019060200180831161208e575050505050905090565b6120bd611a89565b6120ff576040805160e560020a62461bcd02815260206004820181905260248201526000805160206131f6833981519152604482015290519081900360640190fd5b61186881612b8a565b600a5460009015801590612145575033600160a060020a0316600a828154811061212e57fe5b600091825260209091200154600160a060020a0316145b6121835760405160e560020a62461bcd0281526004018080602001828103825260308152602001806131c66030913960400191505060405180910390fd5b601354600b546011546000908190819061219f90859081610ee7565b92509250925080156121b6576121b6838387610f5b565b505050505050565b600160a060020a0383166000908152600d60205260409020546060908310612230576040805160e560020a62461bcd02815260206004820152601660248201527f696e7075742066726f6d206973206f766572666c6f7700000000000000000000604482015290519081900360640190fd5b60008211612288576040805160e560020a62461bcd02815260206004820152601260248201527f696e7075742073697a65206973207a65726f0000000000000000000000000000604482015290519081900360640190fd5b6060826040519080825280602002602001820160405280156122b4578160200160208202803883390190505b50600160a060020a0386166000908152600d602052604090205490915084840111156122f957600160a060020a0385166000908152600d602052604090205484900392505b60005b8381101561235457600160a060020a0386166000908152600d60205260409020805486830190811061232a57fe5b906000526020600020015482828151811061234157fe5b60209081029190910101526001016122fc565b5090505b9392505050565b60008060006123718560115486612c2d565b90955090506060612380612cae565b905060005b858710156124875760006123be600b898154811061239f57fe5b600091825260209091206001600590920201015463ffffffff16612d4d565b90506000612474600b8a815481106123d257fe5b60009182526020918290206040805160e081018252600593909302909101805467ffffffffffffffff81168452680100000000000000008104600160a060020a03169484019490945260e060020a90930460ff1690820152600182015463ffffffff16606082015260028201546080820152600382015460a082015260049091015460c0820152855186908590811061246757fe5b6020026020010151612dde565b6001909901989290920191506123859050565b96919550909350505050565b600080821180156124a65750600b548211155b6124fa576040805160e560020a62461bcd02815260206004820152601660248201527f6f7074696f6e206964206973206e6f7420657869737400000000000000000000604482015290519081900360640190fd5b600b600183038154811061250a57fe5b90600052602060002090600502019050919050565b42816080015111611868576040805160e560020a62461bcd02815260206004820152601160248201527f6f7074696f6e2069732065787069726564000000000000000000000000000000604482015290519081900360640190fd5b808260c0015110156114a0576040805160e560020a62461bcd02815260206004820152601d60248201527f6f7074696f6e20616d6f756e7420697320696e73756666696369656e74000000604482015290519081900360640190fd5b600754604080517fda6632570000000000000000000000000000000000000000000000000000000081526004810184905290516000928392600160a060020a039091169163da66325791602480820192602092909190829003018186803b15801561264057600080fd5b505afa158015612654573d6000803e3d6000fd5b505050506040513d602081101561266a57600080fd5b50519050606481108015906126875750670de0b6b3a76400008111155b61171757600080fd5b600060ff84161582841114156126a857506000612358565b60ff8416156126b9578183036126bd565b8282035b9050612358565b61271d8280548060200260200160405190810160405280929190818152602001828054801561271257602002820191906000526020600020905b8154815260200190600101908083116126fe575b505050505082612877565b6114a05781546001810183556000928352602090922090910155565b8154600090815b81811015612773578385828154811061275557fe5b9060005260206000200154141561276b57612773565b600101612740565b818110156127d4576001820381146127b85784600183038154811061279457fe5b90600052602060002001548582815481106127ab57fe5b6000918252602090912001555b84546127c88660001983016130bd565b50600192505050611717565b506000949350505050565b6128428280548060200260200160405190810160405280929190818152602001828054801561283757602002820191906000526020600020905b8154600160a060020a03168152600190910190602001808311612819575b505050505082612e72565b6114a0578154600181018355600083815260209020018054600160a060020a038316600160a060020a03199091161790555050565b8151600090815b818110156127d4578385828151811061289357fe5b602002602001015114156128ac57600192505050611717565b60010161287e565b8154600090815b818110156129015783600160a060020a03168582815481106128d957fe5b600091825260209091200154600160a060020a031614156128f957612901565b6001016128bb565b818110156127d4576001820381146127b85784600183038154811061292257fe5b9060005260206000200160009054906101000a9004600160a060020a031685828154811061294c57fe5b9060005260206000200160006101000a815481600160a060020a030219169083600160a060020a0316021790555084546127c88660001983016130bd565b612a0f82805480602002602001604051908101604052809291908181526020018280548015612a0457602002820191906000526020600020906000905b82829054906101000a900463ffffffff1663ffffffff16815260200190600401906020826003010492830192600103820291508084116129c75790505b505050505082612b41565b6114a0578154600181018355600092835260209092206008830401805460079093166004026101000a63ffffffff818102199094169290931692909202179055565b8154600090815b81811015612aaa578363ffffffff16858281548110612a7357fe5b6000918252602090912060088204015460079091166004026101000a900463ffffffff161415612aa257612aaa565b600101612a58565b818110156127d457600182038114612b3157846001830381548110612acb57fe5b90600052602060002090600891828204019190066004029054906101000a900463ffffffff16858281548110612afd57fe5b90600052602060002090600891828204019190066004026101000a81548163ffffffff021916908363ffffffff1602179055505b84546127c88660001983016130e6565b8151600090815b818110156127d4578363ffffffff16858281518110612b6357fe5b602002602001015163ffffffff161415612b8257600192505050611717565b600101612b48565b600160a060020a038116612bd25760405160e560020a62461bcd0281526004018080602001828103825260268152602001806131a06026913960400191505060405180910390fd5b60008054604051600160a060020a03808516939216917f8be0079c531659141344cd1fd0a4f28419497f9722a3daafe3b4186f6b6457e091a360008054600160a060020a031916600160a060020a0392909216919091179055565b6000808380861115612c43578592509050612ca6565b8095505b83861015612c9e576000600b8781548110612c5e57fe5b906000526020600020906005020190504281600201541080612c8257506004810154155b15612c8d5750612c93565b50612c9e565b600190950194612c47565b858692509250505b935093915050565b600154604080518281526020808402820101909152606091908290828015612ce0578160200160208202803883390190505b50905060005b82811015612d4657612d2760018281548110612cfe57fe5b6000918252602090912060088204015460079091166004026101000a900463ffffffff166125d6565b828281518110612d3357fe5b6020908102919091010152600101612ce6565b5091505090565b6000611717826001805480602002602001604051908101604052809291908181526020018280548015612dcb57602002820191906000526020600020906000905b82829054906101000a900463ffffffff1663ffffffff1681526020019060040190602082600301049283019260010382029150808411612d8e5790505b5050505050612ec190919063ffffffff16565b6000428360800151111580612df5575060c0830151155b15612e0257506000611717565b60008360c00151612e1c85604001518660a0015186612f0c565b029050701d6329f1c35ca4bfabb9f56100000000008111156123585760405160e560020a62461bcd02815260040180806020018281038252602a815260200180613176602a913960400191505060405180910390fd5b8151600090815b818110156127d45783600160a060020a0316858281518110612e9757fe5b6020026020010151600160a060020a03161415612eb957600192505050611717565b600101612e79565b8151600090815b81811015612f04578363ffffffff16858281518110612ee357fe5b602002602001015163ffffffff161415612efc57612f04565b600101612ec8565b949350505050565b600060ff8416158284111415612f23575081612358565b5080612358565b6040805160e081018252600080825260208201819052918101829052606081018290526080810182905260a0810182905260c081019190915290565b828054828255906000526020600020908101928215612fa8579160200282015b82811115612fa8578251829062ffffff16905591602001919060010190612f86565b506118f1929150613116565b828054828255906000526020600020906007016008900481019282156130505791602002820160005b8382111561301e57835183826101000a81548163ffffffff021916908360ff1602179055509260200192600401602081600301049283019260010302612fdd565b801561304e5782816101000a81549063ffffffff021916905560040160208160030104928301926001030261301e565b505b506118f1929150613130565b8280548282559060005260206000209081019282156130b1579160200282015b828111156130b15782518254600160a060020a031916600160a060020a0390911617825560209092019160019091019061307c565b506118f1929150613151565b8154818355818111156130e1576000838152602090206130e1918101908301613116565b505050565b8154818355818111156130e15760070160089004816007016008900483600052602060002091820191016130e191905b61143791905b808211156118f1576000815560010161311c565b61143791905b808211156118f157805463ffffffff19168155600101613136565b61143791905b808211156118f1578054600160a060020a031916815560010161315756fe4f7074696f6e20636f6c6c61746572616c206f636375706965642063616c63756c617465206572726f724f776e61626c653a206e6577206f776e657220697320746865207a65726f20616464726573734d616e6167657261626c653a2063616c6c6572206973206e6f742074686520656c696769626c65204f70657261746f724f776e61626c653a2063616c6c6572206973206e6f7420746865206f776e657265787069726174696f6e2076616c7565206973206e6f7420737570706f72746564696e70757420616d6f756e74206973206c6172676572207468616e206d6178696d69756d546f74616c4f63637570696564436f6c6c61746572616c2063616c63756c617465206f766572666c6f77a265627a7a723158209b69f7ef55ebcb8a856b21293b5f513790d18399cb46687891587b6ab228944364736f6c63430005100032",
  "source": "pragma solidity =0.5.16;\nimport \"./Optionsbase.sol\";\n/**\n * @title Options collateral occupied calculation contract for finnexus proposal v2.\n * @dev A Smart-contract for collateral occupied calculation.\n *\n */\ncontract OptionsOccupiedCal is OptionsBase {\n\n    /**\n     * @dev retrieve collateral occupied calculation information.\n     */    \n    function getOccupiedCalInfo()public view returns(uint256,int256){\n        return ( occupiedFirstOption,optionsLatestOccupied);\n    }\n    /**\n     * @dev calculate collateral occupied value, and modify database, only foundation operator can modify database.\n     */  \n    function setOccupiedCollateral() public onlyOperatorIndex(0) {\n        int256 latestOccupied = optionsLatestOccupied;\n        uint256 lastOption = allOptions.length;\n        (uint256 totalOccupied,uint256 beginOption,bool success) = calculatePhaseOccupiedCollateral(lastOption, occupiedFirstOption,lastOption);\n        if (success){\n            setCollateralPhase(totalOccupied,beginOption,latestOccupied);\n        }\n    }\n    /**\n     * @dev calculate collateral occupied value.\n     * @param lastOption last option's position.\n     * @param beginOption begin option's poisiton.\n     * @param endOption end option's poisiton.\n     */  \n    function calculatePhaseOccupiedCollateral(uint256 lastOption,uint256 beginOption,uint256 endOption) public view returns(uint256,uint256,bool){\n        if (beginOption <  occupiedFirstOption){\n            beginOption =  occupiedFirstOption;\n        }\n        if (beginOption>=lastOption){\n            return (0,0,false);\n        }\n        if (endOption>lastOption) {\n            endOption = lastOption;\n        }else if(endOption <  occupiedFirstOption){\n            return (0,0,false);\n        }\n        (uint256 totalOccupied,uint256 newFirstOption) = _calculateOccupiedCollateral(beginOption,endOption);\n        return (totalOccupied,newFirstOption,true);\n    }\n    /**\n     * @dev subfunction, calculate collateral occupied value.\n     * @param begin begin option's poisiton.\n     * @param end end option's poisiton.\n     */  \n    function _calculateOccupiedCollateral(uint256 begin,uint256 end)internal view returns(uint256,uint256){\n        uint256 newFirstOption;\n        (begin,newFirstOption) = getFirstOption(begin, occupiedFirstOption,end);\n        uint256[] memory prices = getUnderlyingPrices();\n        uint256 totalOccupied = 0;\n        for (;begin<end;begin++){\n            uint256 index = _getEligibleUnderlyingIndex(allOptions[begin].underlying);\n            uint256 value = calOptionsCollateral(allOptions[begin],prices[index]);\n            totalOccupied = totalOccupied+value;\n        }\n        return (totalOccupied,newFirstOption);\n    }\n    /**\n     * @dev set collateral occupied value, only foundation operator can modify database.\n     * @param totalOccupied new collateral calculation result.\n     * @param beginOption new first valid option's positon.\n     * @param latestOccpied latest occupied value when operater invoke collateral occupied calculation.\n     */  \n    function setCollateralPhase(uint256 totalOccupied,uint256 beginOption,int256 latestOccpied) public onlyOperatorIndex(0){\n        require(beginOption <= allOptions.length, \"beginOption calculate Error\");\n        if (beginOption >  occupiedFirstOption){\n             occupiedFirstOption = beginOption;\n        }\n        optionsOccupied = totalOccupied;\n        require(latestOccpied>=-1e40 && latestOccpied<=1e40,\"options fall calculate error\");\n        optionsLatestOccupied -= latestOccpied;\n    }\n    /**\n     * @dev get real total collateral occupied value.\n     */ \n    function getTotalOccupiedCollateral() public view returns (uint256) {\n        if (optionsLatestOccupied>=0){\n            uint256 result = optionsOccupied+uint256(optionsLatestOccupied);\n            require(result>=optionsOccupied,\"TotalOccupiedCollateral calculate overflow\");\n            return result;\n        }else{\n            uint256 latestOccupied = uint256(-optionsLatestOccupied);\n            if (optionsOccupied>latestOccupied){\n                return optionsOccupied - latestOccupied;\n            }else{\n                return 0;\n            }\n        }\n    }\n    /**\n     * @dev add new option collateral occupied value when user create a new option.\n     * @param info new option's information.\n     */ \n    function _addOptionsCollateral(OptionsInfo memory info) internal {\n        OptionsInfoEx storage infoEx =  optionExtraMap[info.optionID-1];\n        uint256 newOccupied = calOptionsCollateral(info,infoEx.underlyingPrice);\n        optionsLatestOccupied = optionsLatestOccupied+int256(newOccupied);\n    }\n    /**\n     * @dev deduct burned option collateral occupied value when user burn option.\n     * @param info burned option's information.\n     * @param amount burned option's amount.\n     * @param underlyingPrice current underlying price.\n     */ \n    function _burnOptionsCollateral(OptionsInfo memory info,uint256 amount,uint256 underlyingPrice) internal {\n        uint256 newOccupied = _getOptionsWorth(info.optType,info.strikePrice,underlyingPrice)*amount;\n        require(newOccupied<=1e40,\"Option collateral occupied calculate error\");\n        optionsLatestOccupied = optionsLatestOccupied-int256(newOccupied);\n    }\n\n}",
  "sourcePath": "/home/jqg/FinnexusOptions_V2/contracts/OptionsPool/OptionsOccupiedCal.sol",
  "compiler": {
    "name": "solc",
    "version": "0.5.16+commit.9c3226ce.Emscripten.clang"
  },
  "schemaVersion": "3.2.4",
  "updatedAt": "2020-09-09T03:13:04.321Z",
  "devdoc": {
    "details": "A Smart-contract for collateral occupied calculation. ",
    "methods": {
      "addExpiration(uint256)": {
        "details": "Implementation of add an eligible expiration into the expirationList.",
        "params": {
          "expiration": "new eligible expiration."
        }
      },
      "addOperator(address)": {
        "details": "add a new operator by owner.      "
      },
      "addUnderlyingAsset(uint32)": {
        "details": "Implementation of add an eligible underlying into the underlyingAssets.",
        "params": {
          "underlying": "new eligible underlying."
        }
      },
      "buyOptionCheck(uint256,uint32)": {
        "details": "check option's underlying and expiration.",
        "params": {
          "expiration": "option's expiration",
          "underlying": "option's underlying"
        }
      },
      "calculatePhaseOccupiedCollateral(uint256,uint256,uint256)": {
        "details": "calculate collateral occupied value.",
        "params": {
          "beginOption": "begin option's poisiton.",
          "endOption": "end option's poisiton.",
          "lastOption": "last option's position."
        }
      },
      "checkExpiration(uint256)": {
        "details": "check option's expiration.",
        "params": {
          "expiration": "option's expiration"
        }
      },
      "getBurnedFullPay(uint256,uint256)": {
        "details": "calculate `amount` number of Option's full price when option is burned.",
        "params": {
          "amount": "option's amount",
          "optionID": "option's optionID"
        }
      },
      "getExerciseWorth(uint256,uint256)": {
        "details": "calculate option's exercise worth.",
        "params": {
          "amount": "option's amount",
          "optionsId": "option's id"
        }
      },
      "getExpirationList()": {
        "details": "Implementation of getting the eligible expirationList."
      },
      "getInputAmountRange()": {
        "details": "get the valid range of input amount"
      },
      "getItemTimeLimitation(uint256)": {
        "details": "Retrieve user's start time for burning. ",
        "params": {
          "item": "item key."
        }
      },
      "getManager()": {
        "details": "get manager address.      "
      },
      "getOccupiedCalInfo()": {
        "details": "retrieve collateral occupied calculation information."
      },
      "getOperator()": {
        "details": "get all operators.      "
      },
      "getOptionInfoLength()": {
        "details": "retrieve all option list length. "
      },
      "getOptionInfoList(uint256,uint256)": {
        "details": "retrieve `size` number of options' information. ",
        "params": {
          "from": "all option list begin positon.",
          "size": "retrieve size."
        }
      },
      "getOptionInfoListFromID(uint256[])": {
        "details": "retrieve given `ids` options' information. ",
        "params": {
          "ids": "retrieved options' id."
        }
      },
      "getOptionsById(uint256)": {
        "details": "retrieve given `optionsId` option's information. ",
        "params": {
          "optionsId": "retrieved option's id."
        }
      },
      "getOptionsExtraById(uint256)": {
        "details": "retrieve given `optionsId` option's extra information. ",
        "params": {
          "optionsId": "retrieved option's id."
        }
      },
      "getOptionsLimitTimeById(uint256)": {
        "details": "retrieve given `optionsId` option's burned limit timestamp. ",
        "params": {
          "optionsId": "retrieved option's id."
        }
      },
      "getTotalOccupiedCollateral()": {
        "details": "get real total collateral occupied value."
      },
      "getUnderlyingAssets()": {
        "details": "Implementation of getting the eligible underlyingAssets."
      },
      "getUserOptionsID(address)": {
        "details": "retrieve user's options' id. ",
        "params": {
          "user": "user's account."
        }
      },
      "getUserOptionsID(address,uint256,uint256)": {
        "details": "retrieve user's `size` number of options' id. ",
        "params": {
          "from": "user's option list begin positon.",
          "size": "retrieve size.",
          "user": "user's account."
        }
      },
      "isEligibleExpiration(uint256)": {
        "details": "Implementation of testing whether the input expiration is eligible.",
        "params": {
          "expiration": "input expiration for testing."
        }
      },
      "isEligibleUnderlyingAsset(uint32)": {
        "details": "Implementation of testing whether the input underlying is eligible.",
        "params": {
          "underlying": "input underlying for testing."
        }
      },
      "isOwner()": {
        "details": "Returns true if the caller is the current owner."
      },
      "owner()": {
        "details": "Returns the address of the current owner."
      },
      "removeExpirationList(uint256)": {
        "details": "Implementation of revoke an invalid expiration from the expirationList.",
        "params": {
          "removeExpiration": "revoked expiration."
        }
      },
      "removeOperator(address)": {
        "details": "remove operator by owner.      "
      },
      "removeUnderlyingAssets(uint32)": {
        "details": "Implementation of revoke an invalid underlying from the underlyingAssets.",
        "params": {
          "removeUnderlying": "revoked underlying."
        }
      },
      "renounceOwnership()": {
        "details": "Leaves the contract without owner. It will not be possible to call `onlyOwner` functions anymore. Can only be called by the current owner.     * NOTE: Renouncing ownership will leave the contract without an owner, thereby removing any functionality that is only available to the owner."
      },
      "setCollateralPhase(uint256,uint256,int256)": {
        "details": "set collateral occupied value, only foundation operator can modify database.",
        "params": {
          "beginOption": "new first valid option's positon.",
          "latestOccpied": "latest occupied value when operater invoke collateral occupied calculation.",
          "totalOccupied": "new collateral calculation result."
        }
      },
      "setInputAmountRange(uint256,uint256)": {
        "details": "set the valid range of input amount",
        "params": {
          "_maxAmount": "the maximum input amount limit",
          "_minAmount": "the minimum input amount limit"
        }
      },
      "setManager(address)": {
        "details": "set manager by owner.      "
      },
      "setOccupiedCollateral()": {
        "details": "calculate collateral occupied value, and modify database, only foundation operator can modify database."
      },
      "setOperator(uint256,address)": {
        "details": "modify indexed operator by owner.      "
      },
      "setOperators(address[])": {
        "details": "set all operators by owner.      "
      },
      "setTimeLimitation(uint256)": {
        "details": "set time limitation, only owner can invoke. ",
        "params": {
          "_limitation": "new time limitation."
        }
      },
      "transferOwnership(address)": {
        "details": "Transfers ownership of the contract to a new account (`newOwner`). Can only be called by the current owner."
      }
    },
    "title": "Options collateral occupied calculation contract for finnexus proposal v2."
  },
  "userdoc": {
    "methods": {}
  }
}