{
  "contractName": "OptionsPool",
  "abi": [
    {
      "constant": true,
      "inputs": [],
      "name": "lastCalBlock_share",
      "outputs": [
        {
          "name": "",
          "type": "uint256"
        }
      ],
      "payable": false,
      "stateMutability": "view",
      "type": "function"
    },
    {
      "constant": true,
      "inputs": [],
      "name": "lastCallOption",
      "outputs": [
        {
          "name": "",
          "type": "uint256"
        }
      ],
      "payable": false,
      "stateMutability": "view",
      "type": "function"
    },
    {
      "constant": true,
      "inputs": [],
      "name": "sharedPhase",
      "outputs": [
        {
          "name": "",
          "type": "uint32"
        }
      ],
      "payable": false,
      "stateMutability": "view",
      "type": "function"
    },
    {
      "constant": false,
      "inputs": [
        {
          "name": "volatility",
          "type": "address"
        }
      ],
      "name": "setVolatilityAddress",
      "outputs": [],
      "payable": false,
      "stateMutability": "nonpayable",
      "type": "function"
    },
    {
      "constant": true,
      "inputs": [],
      "name": "getUnderlyingAssets",
      "outputs": [
        {
          "name": "",
          "type": "uint32[]"
        }
      ],
      "payable": false,
      "stateMutability": "view",
      "type": "function"
    },
    {
      "constant": true,
      "inputs": [
        {
          "name": "",
          "type": "uint256"
        }
      ],
      "name": "expirationList",
      "outputs": [
        {
          "name": "",
          "type": "uint256"
        }
      ],
      "payable": false,
      "stateMutability": "view",
      "type": "function"
    },
    {
      "constant": true,
      "inputs": [
        {
          "name": "",
          "type": "uint256"
        }
      ],
      "name": "underlyingAssets",
      "outputs": [
        {
          "name": "",
          "type": "uint32"
        }
      ],
      "payable": false,
      "stateMutability": "view",
      "type": "function"
    },
    {
      "constant": true,
      "inputs": [],
      "name": "getVolatilityAddress",
      "outputs": [
        {
          "name": "",
          "type": "address"
        }
      ],
      "payable": false,
      "stateMutability": "view",
      "type": "function"
    },
    {
      "constant": false,
      "inputs": [
        {
          "name": "oracle",
          "type": "address"
        }
      ],
      "name": "setOracleAddress",
      "outputs": [],
      "payable": false,
      "stateMutability": "nonpayable",
      "type": "function"
    },
    {
      "constant": true,
      "inputs": [
        {
          "name": "",
          "type": "address"
        },
        {
          "name": "",
          "type": "uint256"
        }
      ],
      "name": "optionsBalances",
      "outputs": [
        {
          "name": "",
          "type": "uint256"
        }
      ],
      "payable": false,
      "stateMutability": "view",
      "type": "function"
    },
    {
      "constant": true,
      "inputs": [],
      "name": "getOptionsPriceAddress",
      "outputs": [
        {
          "name": "",
          "type": "address"
        }
      ],
      "payable": false,
      "stateMutability": "view",
      "type": "function"
    },
    {
      "constant": false,
      "inputs": [],
      "name": "renounceOwnership",
      "outputs": [],
      "payable": false,
      "stateMutability": "nonpayable",
      "type": "function"
    },
    {
      "constant": true,
      "inputs": [],
      "name": "lastCalBlock",
      "outputs": [
        {
          "name": "",
          "type": "uint256"
        }
      ],
      "payable": false,
      "stateMutability": "view",
      "type": "function"
    },
    {
      "constant": true,
      "inputs": [],
      "name": "owner",
      "outputs": [
        {
          "name": "",
          "type": "address"
        }
      ],
      "payable": false,
      "stateMutability": "view",
      "type": "function"
    },
    {
      "constant": true,
      "inputs": [
        {
          "name": "",
          "type": "uint256"
        }
      ],
      "name": "allOptions",
      "outputs": [
        {
          "name": "optionID",
          "type": "uint256"
        },
        {
          "name": "owner",
          "type": "address"
        },
        {
          "name": "optType",
          "type": "uint8"
        },
        {
          "name": "underlying",
          "type": "uint32"
        },
        {
          "name": "expiration",
          "type": "uint256"
        },
        {
          "name": "strikePrice",
          "type": "uint256"
        },
        {
          "name": "amount",
          "type": "uint256"
        }
      ],
      "payable": false,
      "stateMutability": "view",
      "type": "function"
    },
    {
      "constant": true,
      "inputs": [],
      "name": "isOwner",
      "outputs": [
        {
          "name": "",
          "type": "bool"
        }
      ],
      "payable": false,
      "stateMutability": "view",
      "type": "function"
    },
    {
      "constant": false,
      "inputs": [
        {
          "name": "optionsPrice",
          "type": "address"
        }
      ],
      "name": "setOptionsPriceAddress",
      "outputs": [],
      "payable": false,
      "stateMutability": "nonpayable",
      "type": "function"
    },
    {
      "constant": true,
      "inputs": [
        {
          "name": "",
          "type": "uint256"
        },
        {
          "name": "",
          "type": "uint256"
        },
        {
          "name": "",
          "type": "uint256"
        }
      ],
      "name": "burnBlockOptions",
      "outputs": [
        {
          "name": "",
          "type": "uint256"
        }
      ],
      "payable": false,
      "stateMutability": "view",
      "type": "function"
    },
    {
      "constant": false,
      "inputs": [
        {
          "name": "underlying",
          "type": "uint32"
        }
      ],
      "name": "addUnderlyingAsset",
      "outputs": [],
      "payable": false,
      "stateMutability": "nonpayable",
      "type": "function"
    },
    {
      "constant": true,
      "inputs": [],
      "name": "getOracleAddress",
      "outputs": [
        {
          "name": "",
          "type": "address"
        }
      ],
      "payable": false,
      "stateMutability": "view",
      "type": "function"
    },
    {
      "constant": true,
      "inputs": [],
      "name": "optionPhase",
      "outputs": [
        {
          "name": "",
          "type": "uint32"
        }
      ],
      "payable": false,
      "stateMutability": "view",
      "type": "function"
    },
    {
      "constant": false,
      "inputs": [
        {
          "name": "managerAddress",
          "type": "address"
        }
      ],
      "name": "setManager",
      "outputs": [],
      "payable": false,
      "stateMutability": "nonpayable",
      "type": "function"
    },
    {
      "constant": true,
      "inputs": [],
      "name": "getManager",
      "outputs": [
        {
          "name": "",
          "type": "address"
        }
      ],
      "payable": false,
      "stateMutability": "view",
      "type": "function"
    },
    {
      "constant": false,
      "inputs": [
        {
          "name": "removeUnderlying",
          "type": "uint32"
        }
      ],
      "name": "removeUnderlyingAssets",
      "outputs": [
        {
          "name": "",
          "type": "bool"
        }
      ],
      "payable": false,
      "stateMutability": "nonpayable",
      "type": "function"
    },
    {
      "constant": true,
      "inputs": [
        {
          "name": "underlying",
          "type": "uint32"
        }
      ],
      "name": "isEligibleUnderlyingAsset",
      "outputs": [
        {
          "name": "",
          "type": "bool"
        }
      ],
      "payable": false,
      "stateMutability": "view",
      "type": "function"
    },
    {
      "constant": true,
      "inputs": [
        {
          "name": "underlying",
          "type": "uint32"
        }
      ],
      "name": "checkUnderlyingAsset",
      "outputs": [],
      "payable": false,
      "stateMutability": "view",
      "type": "function"
    },
    {
      "constant": false,
      "inputs": [
        {
          "name": "newOwner",
          "type": "address"
        }
      ],
      "name": "transferOwnership",
      "outputs": [],
      "payable": false,
      "stateMutability": "nonpayable",
      "type": "function"
    },
    {
      "inputs": [],
      "payable": false,
      "stateMutability": "nonpayable",
      "type": "constructor"
    },
    {
      "anonymous": false,
      "inputs": [
        {
          "indexed": true,
          "name": "previousOwner",
          "type": "address"
        },
        {
          "indexed": true,
          "name": "newOwner",
          "type": "address"
        }
      ],
      "name": "OwnershipTransferred",
      "type": "event"
    },
    {
      "constant": true,
      "inputs": [
        {
          "name": "user",
          "type": "address"
        }
      ],
      "name": "getOptionBalances",
      "outputs": [
        {
          "name": "",
          "type": "uint256[]"
        }
      ],
      "payable": false,
      "stateMutability": "view",
      "type": "function"
    },
    {
      "constant": true,
      "inputs": [
        {
          "name": "from",
          "type": "uint256"
        },
        {
          "name": "size",
          "type": "uint256"
        }
      ],
      "name": "getOptionInfoList",
      "outputs": [
        {
          "name": "",
          "type": "address[]"
        },
        {
          "name": "",
          "type": "uint256[]"
        },
        {
          "name": "",
          "type": "uint256[]"
        },
        {
          "name": "",
          "type": "uint256[]"
        },
        {
          "name": "",
          "type": "uint256[]"
        }
      ],
      "payable": false,
      "stateMutability": "view",
      "type": "function"
    },
    {
      "constant": true,
      "inputs": [
        {
          "name": "ids",
          "type": "uint256[]"
        }
      ],
      "name": "getOptionInfoListFromID",
      "outputs": [
        {
          "name": "",
          "type": "address[]"
        },
        {
          "name": "",
          "type": "uint256[]"
        },
        {
          "name": "",
          "type": "uint256[]"
        },
        {
          "name": "",
          "type": "uint256[]"
        },
        {
          "name": "",
          "type": "uint256[]"
        }
      ],
      "payable": false,
      "stateMutability": "view",
      "type": "function"
    },
    {
      "constant": true,
      "inputs": [
        {
          "name": "optionsId",
          "type": "uint256"
        }
      ],
      "name": "getOptionsById",
      "outputs": [
        {
          "name": "",
          "type": "uint256"
        },
        {
          "name": "",
          "type": "address"
        },
        {
          "name": "",
          "type": "uint8"
        },
        {
          "name": "",
          "type": "uint32"
        },
        {
          "name": "",
          "type": "uint256"
        },
        {
          "name": "",
          "type": "uint256"
        },
        {
          "name": "",
          "type": "uint256"
        }
      ],
      "payable": false,
      "stateMutability": "view",
      "type": "function"
    },
    {
      "constant": false,
      "inputs": [
        {
          "name": "index",
          "type": "uint256"
        }
      ],
      "name": "setPhaseOccupiedCollateral",
      "outputs": [],
      "payable": false,
      "stateMutability": "nonpayable",
      "type": "function"
    },
    {
      "constant": false,
      "inputs": [
        {
          "name": "index",
          "type": "uint256"
        },
        {
          "name": "totalOccupied",
          "type": "uint256"
        },
        {
          "name": "beginOption",
          "type": "uint256"
        },
        {
          "name": "lastOption",
          "type": "uint256"
        },
        {
          "name": "lastBlock",
          "type": "uint256"
        }
      ],
      "name": "setCollateralPhase",
      "outputs": [],
      "payable": false,
      "stateMutability": "nonpayable",
      "type": "function"
    },
    {
      "constant": true,
      "inputs": [
        {
          "name": "index",
          "type": "uint256"
        }
      ],
      "name": "calculatePhaseOccupiedCollateral",
      "outputs": [
        {
          "name": "",
          "type": "uint256"
        },
        {
          "name": "",
          "type": "uint256"
        },
        {
          "name": "",
          "type": "uint256"
        }
      ],
      "payable": false,
      "stateMutability": "view",
      "type": "function"
    },
    {
      "constant": true,
      "inputs": [
        {
          "name": "begin",
          "type": "uint256"
        },
        {
          "name": "end",
          "type": "uint256"
        }
      ],
      "name": "_calculateOccupiedCollateral",
      "outputs": [
        {
          "name": "",
          "type": "uint256"
        },
        {
          "name": "",
          "type": "uint256"
        }
      ],
      "payable": false,
      "stateMutability": "view",
      "type": "function"
    },
    {
      "constant": false,
      "inputs": [
        {
          "name": "index",
          "type": "uint256"
        },
        {
          "name": "lastBlock",
          "type": "uint256"
        },
        {
          "name": "calTime",
          "type": "uint256"
        }
      ],
      "name": "setSharedState",
      "outputs": [],
      "payable": false,
      "stateMutability": "nonpayable",
      "type": "function"
    },
    {
      "constant": true,
      "inputs": [
        {
          "name": "index",
          "type": "uint256"
        },
        {
          "name": "whiteList",
          "type": "address[]"
        }
      ],
      "name": "calculatePhaseSharedPayment",
      "outputs": [
        {
          "name": "",
          "type": "uint256[]"
        },
        {
          "name": "",
          "type": "uint256"
        }
      ],
      "payable": false,
      "stateMutability": "view",
      "type": "function"
    },
    {
      "constant": true,
      "inputs": [
        {
          "name": "begin",
          "type": "uint256"
        },
        {
          "name": "end",
          "type": "uint256"
        },
        {
          "name": "preTime",
          "type": "uint256"
        },
        {
          "name": "whiteList",
          "type": "address[]"
        }
      ],
      "name": "_calculateSharedPayment",
      "outputs": [
        {
          "name": "",
          "type": "uint256[]"
        }
      ],
      "payable": false,
      "stateMutability": "view",
      "type": "function"
    },
    {
      "constant": true,
      "inputs": [
        {
          "name": "beginIndex",
          "type": "uint256"
        },
        {
          "name": "endIndex",
          "type": "uint256"
        },
        {
          "name": "preTime",
          "type": "uint256"
        },
        {
          "name": "whiteList",
          "type": "address[]"
        },
        {
          "name": "totalSharedPayment",
          "type": "uint256[]"
        }
      ],
      "name": "_calBurnedSharePrice",
      "outputs": [
        {
          "name": "",
          "type": "uint256[]"
        }
      ],
      "payable": false,
      "stateMutability": "view",
      "type": "function"
    },
    {
      "constant": false,
      "inputs": [
        {
          "name": "optType",
          "type": "uint8"
        },
        {
          "name": "underlying",
          "type": "uint32"
        },
        {
          "name": "expiration",
          "type": "uint256"
        },
        {
          "name": "strikePrice",
          "type": "uint256"
        },
        {
          "name": "amount",
          "type": "uint256"
        },
        {
          "name": "settlement",
          "type": "address"
        }
      ],
      "name": "createOptions",
      "outputs": [
        {
          "name": "",
          "type": "uint256"
        }
      ],
      "payable": false,
      "stateMutability": "nonpayable",
      "type": "function"
    },
    {
      "constant": true,
      "inputs": [],
      "name": "getTotalOccupiedCollateral",
      "outputs": [
        {
          "name": "",
          "type": "uint256"
        }
      ],
      "payable": false,
      "stateMutability": "view",
      "type": "function"
    },
    {
      "constant": false,
      "inputs": [
        {
          "name": "id",
          "type": "uint256"
        },
        {
          "name": "amount",
          "type": "uint256"
        }
      ],
      "name": "burnOptions",
      "outputs": [],
      "payable": false,
      "stateMutability": "nonpayable",
      "type": "function"
    },
    {
      "constant": true,
      "inputs": [
        {
          "name": "optionsId",
          "type": "uint256"
        },
        {
          "name": "amount",
          "type": "uint256"
        }
      ],
      "name": "getExerciseWorth",
      "outputs": [
        {
          "name": "",
          "type": "uint256"
        }
      ],
      "payable": false,
      "stateMutability": "view",
      "type": "function"
    },
    {
      "constant": true,
      "inputs": [
        {
          "name": "expiration",
          "type": "uint256"
        },
        {
          "name": "underlying",
          "type": "uint32"
        }
      ],
      "name": "buyOptionCheck",
      "outputs": [],
      "payable": false,
      "stateMutability": "view",
      "type": "function"
    },
    {
      "constant": false,
      "inputs": [
        {
          "name": "expiration",
          "type": "uint256"
        }
      ],
      "name": "addExpiration",
      "outputs": [],
      "payable": false,
      "stateMutability": "nonpayable",
      "type": "function"
    },
    {
      "constant": false,
      "inputs": [
        {
          "name": "removeExpiration",
          "type": "uint256"
        }
      ],
      "name": "removeExpirationList",
      "outputs": [
        {
          "name": "",
          "type": "bool"
        }
      ],
      "payable": false,
      "stateMutability": "nonpayable",
      "type": "function"
    },
    {
      "constant": true,
      "inputs": [],
      "name": "getExpirationList",
      "outputs": [
        {
          "name": "",
          "type": "uint256[]"
        }
      ],
      "payable": false,
      "stateMutability": "view",
      "type": "function"
    },
    {
      "constant": true,
      "inputs": [
        {
          "name": "expiration",
          "type": "uint256"
        }
      ],
      "name": "isEligibleExpiration",
      "outputs": [
        {
          "name": "",
          "type": "bool"
        }
      ],
      "payable": false,
      "stateMutability": "view",
      "type": "function"
    },
    {
      "constant": true,
      "inputs": [
        {
          "name": "expiration",
          "type": "uint256"
        }
      ],
      "name": "checkExpiration",
      "outputs": [],
      "payable": false,
      "stateMutability": "view",
      "type": "function"
    }
  ],
  "bytecode": "0x6080604052600880546101f463ffffffff1991821681179092556000600b5560128054909116909117905534801561003657600080fd5b5060008054600160a060020a0319163317808255604051600160a060020a039190911691907f8be0079c531659141344cd1fd0a4f28419497f9722a3daafe3b4186f6b6457e0908290a3613c7a8061008f6000396000f3006080604052600436106102375763ffffffff60e060020a6000350416630438d490811461023c578063048e1efa146103bf578063067b8783146103dc5780630860d37b1461040057806309e3d33e1461042757806311e6c4a214610445578063132a5627146104b657806316f35a7f146104cb5780632967eafe146104f9578063354af3601461051a5780633582d7891461056f5780633ad2fb57146105845780633ad98099146105a55780633b50c4d1146105bd57806342e5479d146105d557806348ee201d146106065780634c69c00f1461066557806355c47cb214610686578063591add12146106aa5780635ca4b73b1461070e57806367b8ceb914610723578063715018a61461073e578063723931ca1461075357806373a3d4241461076b5780637cfff2d8146107805780637e2eeb7e146107985780637e838fa3146107ad5780638a4046bc146107d95780638da5cb5b146108125780638ea745b8146108275780638f32d59b1461083f5780639052d5f81461085457806399deae0a146108695780639ef975d21461089f578063a093e2d0146108b7578063a95c594a146108d8578063ab607154146108f6578063ad41e1e914610993578063af70df12146109c7578063afec82fc14610a7c578063b18b78dd14610a9a578063b8a5b7fa14610aaf578063c27b7dfb14610ac7578063d0ebdbe714610adc578063d500958414610afd578063d6d1401214610b12578063db6ad2bd14610b30578063ee29c94a14610b4e578063f2fde38b14610b6c575b600080fd5b34801561024857600080fd5b50610257600435602435610b8d565b60405180806020018060200180602001806020018060200186810386528b818151815260200191508051906020019060200280838360005b838110156102a757818101518382015260200161028f565b5050505090500186810385528a818151815260200191508051906020019060200280838360005b838110156102e65781810151838201526020016102ce565b50505050905001868103845289818151815260200191508051906020019060200280838360005b8381101561032557818101518382015260200161030d565b50505050905001868103835288818151815260200191508051906020019060200280838360005b8381101561036457818101518382015260200161034c565b50505050905001868103825287818151815260200191508051906020019060200280838360005b838110156103a357818101518382015260200161038b565b505050509050019a505050505050505050505060405180910390f35b3480156103cb57600080fd5b506103da600435602435610ddb565b005b3480156103e857600080fd5b506103da600435602435604435606435608435610ed5565b34801561040c57600080fd5b50610415610f5b565b60408051918252519081900360200190f35b34801561043357600080fd5b506103da600435602435604435610f61565b34801561045157600080fd5b50610466600160a060020a0360043516610feb565b60408051602080825283518183015283519192839290830191858101910280838360005b838110156104a257818101518382015260200161048a565b505050509050019250505060405180910390f35b3480156104c257600080fd5b50610415611057565b3480156104d757600080fd5b506104e061105d565b6040805163ffffffff9092168252519081900360200190f35b34801561050557600080fd5b506103da600160a060020a0360043516611069565b34801561052657600080fd5b5060408051602060048035808201358381028086018501909652808552610257953695939460249493850192918291850190849080828437509497506110d79650505050505050565b34801561057b57600080fd5b5061046661130a565b34801561059057600080fd5b506103da60043563ffffffff6024351661138f565b3480156105b157600080fd5b506104156004356113fb565b3480156105c957600080fd5b506104e060043561141a565b3480156105e157600080fd5b506105ea611452565b60408051600160a060020a039092168252519081900360200190f35b34801561061257600080fd5b5061061e600435611461565b60408051978852600160a060020a03909616602088015260ff9094168686015263ffffffff9092166060860152608085015260a084015260c0830152519081900360e00190f35b34801561067157600080fd5b506103da600160a060020a03600435166114c4565b34801561069257600080fd5b50610415600160a060020a0360043516602435611532565b3480156106b657600080fd5b5060408051606435600481810135602081810285810182019096528185526104669583359560248035966044359636969095608495929093019290918291850190849080828437509497506115629650505050505050565b34801561071a57600080fd5b506105ea611710565b34801561072f57600080fd5b5061041560043560243561171f565b34801561074a57600080fd5b506103da61185e565b34801561075f57600080fd5b506103da6004356118f4565b34801561077757600080fd5b5061041561197c565b34801561078c57600080fd5b506103da600435611c6a565b3480156107a457600080fd5b50610415611cc1565b3480156107b957600080fd5b506107c5600435611cc7565b604080519115158252519081900360200190f35b3480156107e557600080fd5b5061041560ff6004351663ffffffff60243516604435606435608435600160a060020a0360a43516611d26565b34801561081e57600080fd5b506105ea611ff5565b34801561083357600080fd5b5061061e600435612004565b34801561084b57600080fd5b506107c5612064565b34801561086057600080fd5b50610466612075565b34801561087557600080fd5b506108816004356120cc565b60408051938452602084019290925282820152519081900360600190f35b3480156108ab57600080fd5b506107c5600435612192565b3480156108c357600080fd5b506103da600160a060020a03600435166121ee565b3480156108e457600080fd5b5061041560043560243560443561225c565b34801561090257600080fd5b506040805160643560048181013560208181028581018201909652818552610466958335956024803596604435963696909560849592909301929091829185019084908082843750506040805187358901803560208181028481018201909552818452989b9a99890198929750908201955093508392508501908490808284375094975061229c9650505050505050565b34801561099f57600080fd5b506109ae6004356024356125ae565b6040805192835260208301919091528051918290030190f35b3480156109d357600080fd5b50604080516020600460248035828101358481028087018601909752808652610a21968435963696604495919490910192918291850190849080828437509497506127889650505050505050565b6040518080602001838152602001828103825284818151815260200191508051906020019060200280838360005b83811015610a67578181015183820152602001610a4f565b50505050905001935050505060405180910390f35b348015610a8857600080fd5b506103da63ffffffff6004351661282c565b348015610aa657600080fd5b506105ea612883565b348015610abb57600080fd5b506103da600435612892565b348015610ad357600080fd5b506104e0612905565b348015610ae857600080fd5b506103da600160a060020a0360043516612911565b348015610b0957600080fd5b506105ea61297f565b348015610b1e57600080fd5b506107c563ffffffff6004351661298e565b348015610b3c57600080fd5b506107c563ffffffff600435166129e7565b348015610b5a57600080fd5b506103da63ffffffff60043516612a6f565b348015610b7857600080fd5b506103da600160a060020a0360043516612af5565b6060806060806060806060806060806000806009805490508d8f011115610bc457600954610bc1908f63ffffffff612b4a16565b9c505b60008d1115610dca578c604051908082528060200260200182016040528015610bf7578160200160208202803883390190505b5096508c604051908082528060200260200182016040528015610c24578160200160208202803883390190505b5095508c604051908082528060200260200182016040528015610c51578160200160208202803883390190505b5094508c604051908082528060200260200182016040528015610c7e578160200160208202803883390190505b5093508c604051908082528060200260200182016040528015610cab578160200160208202803883390190505b509250600091505b8c821015610dba57600980548f8401908110610ccb57fe5b6000918252602090912060059091020160018101548851919250600160a060020a031690889084908110610cfb57fe5b600160a060020a0390921660209283029091019091015260018101548651601060ff60a060020a84048116919091011660020a63ffffffff60a860020a90930483160290911690879084908110610d4e57fe5b6020908102909101015260028101548551869084908110610d6b57fe5b6020908102909101015260038101548451859084908110610d8857fe5b6020908102909101015260048101548351849084908110610da557fe5b60209081029091010152600190910190610cb3565b86868686869b509b509b509b509b505b505050505050509295509295909350565b600254600090600160a060020a03163314610e42576040805160e560020a62461bcd0281526020600482015260266024820152600080516020613bef8339815191526044820152600080516020613c0f833981519152606482015290519081900360840190fd5b610e4b83612b93565b9050610e5681612c23565b610e608133612c7e565b610e6a8183612ce5565b6004810154610e7f908363ffffffff612b4a16565b600482015543600090815260066020908152604080832081518083019092526000198701825281830186905280546001810180835591855292909320610ece9260029081029091019190613b3d565b5050505050565b610edd612064565b1515610f21576040805160e560020a62461bcd0281526020600482018190526024820152600080516020613c2f833981519152604482015290519081900360640190fd5b600b54831115610f3157600b8390555b81600c541015610f4657600c829055600d8190555b5050506000918252600e602052604090912055565b60115481565b600254600160a060020a03163314610fc5576040805160e560020a62461bcd0281526020600482015260266024820152600080516020613bef8339815191526044820152600080516020613c0f833981519152606482015290519081900360840190fd5b601154821015610fd55760118290555b6000928352601060205260409092209190915550565b600160a060020a03811660009081526007602090815260409182902080548351818402810184019094528084526060939283018282801561104b57602002820191906000526020600020905b815481526020019060010190808311611037575b50505050509050919050565b600c5481565b60125463ffffffff1681565b611071612064565b15156110b5576040805160e560020a62461bcd0281526020600482018190526024820152600080516020613c2f833981519152604482015290519081900360640190fd5b60058054600160a060020a031916600160a060020a0392909216919091179055565b6060806060806060600060608060608060606000808d5197508760405190808252806020026020018201604052801561111a578160200160208202803883390190505b50965087604051908082528060200260200182016040528015611147578160200160208202803883390190505b50955087604051908082528060200260200182016040528015611174578160200160208202803883390190505b509450876040519080825280602002602001820160405280156111a1578160200160208202803883390190505b509350876040519080825280602002602001820160405280156111ce578160200160208202803883390190505b509250600091505b878210156112f657600960018f848151811015156111f057fe5b906020019060200201510381548110151561120757fe5b6000918252602090912060059091020160018101548851919250600160a060020a03169088908490811061123757fe5b600160a060020a0390921660209283029091019091015260018101548651601060ff60a060020a84048116919091011660020a63ffffffff60a860020a9093048316029091169087908490811061128a57fe5b60209081029091010152600281015485518690849081106112a757fe5b60209081029091010152600381015484518590849081106112c457fe5b60209081029091010152600481015483518490849081106112e157fe5b602090810290910101526001909101906111d6565b50949c939b50919950975095509350505050565b6060600180548060200260200160405190810160405280929190818152602001828054801561138457602002820191906000526020600020906000905b82829054906101000a900463ffffffff1663ffffffff16815260200190600401906020826003010492830192600103820291508084116113475790505b505050505090505b90565b611398816129e7565b15156113ee576040805160e560020a62461bcd02815260206004820152601f60248201527f756e6465726c79696e6720697320756e737570706f7274656420617373657400604482015290519081900360640190fd5b6113f7826118f4565b5050565b601380548290811061140957fe5b600091825260209091200154905081565b600180548290811061142857fe5b9060005260206000209060089182820401919006600402915054906101000a900463ffffffff1681565b600554600160a060020a031690565b60008060008060008060008061147689612b93565b8054600182015460028301546003840154600490940154929d600160a060020a0383169d5060a060020a830460ff169c5060a860020a90920463ffffffff169a509850919650945092505050565b6114cc612064565b1515611510576040805160e560020a62461bcd0281526020600482018190526024820152600080516020613c2f833981519152604482015290519081900360640190fd5b60038054600160a060020a031916600160a060020a0392909216919091179055565b60076020528160005260406000208181548110151561154d57fe5b90600052602060002001600091509150505481565b6060806000806000806000806000600b548d11151561158157600b549c505b89516040519080825280602002602001820160405280156115ac578160200160208202803883390190505b5097505b8b8d10156116f257600980548e9081106115c657fe5b90600052602060002090600502019650866002015495508a8610806115ed57506004870154155b156115f7576116e7565b600a60008e8152602001908152602001600020945061163c8b8660000154888a6003015489600401548a600501548d60010160149054906101000a900460ff16612d41565b93509350828411156116e7576001850154611661908b90600160a060020a0316612eb4565b91506116a48560030154611698896004015461168c8789038a60020154612f0d90919063ffffffff16565b9063ffffffff612f0d16565b9063ffffffff612fb716565b90506116ce8189848151811015156116b857fe5b602090810290910101519063ffffffff612ff916565b88838151811015156116dc57fe5b602090810290910101525b6001909c019b6115b0565b6116ff8d8d8d8d8c61229c565b9d9c50505050505050505050505050565b600454600160a060020a031690565b60008060008061172e86612b93565b925061173983612c23565b6117438386612ce5565b6003546001840154604080517fda66325700000000000000000000000000000000000000000000000000000000815260a860020a90920463ffffffff16600483015251600160a060020a039092169163da663257916024808201926020929091908290030181600087803b1580156117ba57600080fd5b505af11580156117ce573d6000803e3d6000fd5b505050506040513d60208110156117e457600080fd5b505160018401549092506000915060a060020a900460ff16151561181c5782600301548211156118175750600382015481035b611832565b8260030154821015611832578183600301540390505b8015156118425760009350611855565b611852818663ffffffff612f0d16565b93505b50505092915050565b611866612064565b15156118aa576040805160e560020a62461bcd0281526020600482018190526024820152600080516020613c2f833981519152604482015290519081900360640190fd5b60008054604051600160a060020a03909116907f8be0079c531659141344cd1fd0a4f28419497f9722a3daafe3b4186f6b6457e0908390a360008054600160a060020a0319169055565b6118fd81612192565b1515611979576040805160e560020a62461bcd02815260206004820152602160248201527f65787069726174696f6e2076616c7565206973206e6f7420737570706f72746560448201527f6400000000000000000000000000000000000000000000000000000000000000606482015290519081900360840190fd5b50565b60008060006060600080600080600080600080611997613056565b600154604080518281526020808402820101909152919c509a508a80156119c8578160200160208202803883390190505b509850600097505b89881015611ab05760035460018054600160a060020a039092169163da66325791908b9081106119fc57fe5b90600052602060002090600891828204019190066004029054906101000a900463ffffffff166040518263ffffffff1660e060020a028152600401808263ffffffff168152602001915050602060405180830381600087803b158015611a6157600080fd5b505af1158015611a75573d6000803e3d6000fd5b505050506040513d6020811015611a8b57600080fd5b505189518a908a908110611a9b57fe5b602090810290910101526001909701966119d0565b600954600c5490975060010195505b86861015611b5c57611b00600987815481101515611ad957fe5b906000526020600020906005020160010160159054906101000a900463ffffffff166130d7565b9450611b4f611b42600988815481101515611b1757fe5b90600052602060002090600502018b88815181101515611b3357fe5b9060200190602002015161315f565b8c9063ffffffff612ff916565b9a50600190950194611abf565b600d5460010193508360011415611b75578a9b50611c5c565b438411611c585760008481526006602052604081208054919950935091505b81881015611c4d578288815481101515611baa57fe5b60009182526020822060029091020101549050611bcf600982815481101515611ad957fe5b9450611c40611c33600983815481101515611be657fe5b9060005260206000209060050201858b815481101515611c0257fe5b60009182526020909120600290910201600101548c89815181101515611c2457fe5b906020019060200201516131e5565b8c9063ffffffff612b4a16565b9a50600190970196611b94565b600190930192611b75565b8a9b505b505050505050505050505090565b611c72612064565b1515611cb6576040805160e560020a62461bcd0281526020600482018190526024820152600080516020613c2f833981519152604482015290519081900360640190fd5b61197960138261323e565b600d5481565b6000611cd1612064565b1515611d15576040805160e560020a62461bcd0281526020600482018190526024820152600080516020613c2f833981519152604482015290519081900360640190fd5b611d206013836132b5565b92915050565b600254600090819081908190600160a060020a03163314611d93576040805160e560020a62461bcd0281526020600482015260266024820152600080516020613bef8339815191526044820152600080516020613c0f833981519152606482015290519081900360840190fd5b600954600354604080517fda66325700000000000000000000000000000000000000000000000000000000815263ffffffff8d1660048201529051929550600160a060020a039091169163da663257916024808201926020929091908290030181600087803b158015611e0557600080fd5b505af1158015611e19573d6000803e3d6000fd5b505050506040513d6020811015611e2f57600080fd5b81019080805190602001909291905050509150600960e06040519081016040528085600101815260200133600160a060020a031681526020018c60ff1681526020018b63ffffffff1681526020018a815260200189815260200188815250908060018154018082558091505090600182039060005260206000209060050201600090919290919091506000820151816000015560208201518160010160006101000a815481600160a060020a030219169083600160a060020a0316021790555060408201518160010160146101000a81548160ff021916908360ff16021790555060608201518160010160156101000a81548163ffffffff021916908363ffffffff1602179055506080820151816002015560a0820151816003015560c082015181600401555050506007600033600160a060020a0316600160a060020a031681526020019081526020016000208390806001815401808255809150509060018203906000526020600020016000909192909190915055508260001415611fb55743600d555b6009805484908110611fc357fe5b90600052602060002090600502019050611fdd8186613360565b611fe7818361315f565b9a9950505050505050505050565b600054600160a060020a031690565b600980548290811061201257fe5b600091825260209091206005909102018054600182015460028301546003840154600490940154929450600160a060020a0382169360a060020a830460ff169360a860020a90930463ffffffff169287565b600054600160a060020a0316331490565b6060601380548060200260200160405190810160405280929190818152602001828054801561138457602002820191906000526020600020905b8154815260200190600101908083116120af575050505050905090565b6000806000806000806000806000612105600860009054906101000a900463ffffffff1663ffffffff168b612f0d90919063ffffffff16565b600954909650945084861061211957612185565b60085461213190879063ffffffff90811690612ff916565b93508484111561214357849350612152565b600b5484101561215257612185565b61215c86856125ae565b9250925060018403600c541061217457600c54612179565b600184035b90508282829850985098505b5050505050509193909250565b6000611d2060138054806020026020016040519081016040528092919081815260200182805480156121e357602002820191906000526020600020905b8154815260200190600101908083116121cf575b505050505083613662565b6121f6612064565b151561223a576040805160e560020a62461bcd0281526020600482018190526024820152600080516020613c2f833981519152604482015290519081900360640190fd5b60048054600160a060020a031916600160a060020a0392909216919091179055565b60066020528260005260406000208281548110151561227757fe5b90600052602060002090600202018160028110151561229257fe5b0154925083915050565b6060600060606000806000806000806000601154600101985088600114156122c6578a995061259c565b43891161259c57600089815260066020908152604080832080548251818502810185019093528083529193909284015b828210156123465760008481526020902060408051808201918290529160028581029091019182845b81548152602001906001019080831161231f575050505050815260200190600101906122f6565b50505050975087519650600095505b86861015612591578e888781518110151561236c57fe5b602090810291909101015151108061239d57508d888781518110151561238e57fe5b60209081029190910101515110155b156123a757612586565b600988878151811015156123b757fe5b602090810291909101015151815481106123cd57fe5b90600052602060002090600502019450846002015493508c84108061240b575087868151811015156123fb57fe5b6020908102919091018101510151155b1561241557612586565b600a6000898881518110151561242757fe5b60209081029190910181015151825281810192909252604090810160009081206004805460038b015482840154600585015460018e0154885160e060020a63055ef6ab0281529586018490526024860193909352428d0360448601526064850191909152608484015260a060020a900460ff1660a48301529351919750600160a060020a039093169363055ef6ab9360c480820194929392918390030190829087803b1580156124d657600080fd5b505af11580156124ea573d6000803e3d6000fd5b505050506040513d602081101561250057600080fd5b50516003840154895191935061253d91611698908b908a90811061252057fe5b6020908102919091018101510151600287015461168c9087612f0d565b6001840154909250612559908d90600160a060020a0316612eb4565b905061256d828c838151811015156116b857fe5b8b8281518110151561257b57fe5b602090810290910101525b600190950194612355565b6001909801976122c6565b50505050505050505095945050505050565b60008060008060006060600080600080600b548c1115975087156125d257600b549b505b600b546001546040805182815260208084028201019091529198509650868015612606578160200160208202803883390190505b509450600093505b858410156126ee5760035460018054600160a060020a039092169163da66325791908790811061263a57fe5b90600052602060002090600891828204019190066004029054906101000a900463ffffffff166040518263ffffffff1660e060020a028152600401808263ffffffff168152602001915050602060405180830381600087803b15801561269f57600080fd5b505af11580156126b3573d6000803e3d6000fd5b505050506040513d60208110156126c957600080fd5b505185518690869081106126d957fe5b6020908102909101015260019093019261260e565b600092505b8a8c10156127765761270d60098d815481101515611ad957fe5b915061273d60098d81548110151561272157fe5b90600052602060002090600502018684815181101515611b3357fe5b905087801561274c5750600081115b15612759578b9650600097505b612769838263ffffffff612ff916565b6001909c019b92506126f3565b50909a94995093975050505050505050565b60125460609060009081908190819085906127ae90899063ffffffff90811690612f0d16565b60095490945092508284106127c257612821565b6012546127da90859063ffffffff90811690612ff916565b9150828211156127ec578291506127fb565b600b548210156127fb57612821565b60008881526010602052604090205461281890859084908a611562565b90508043955095505b505050509250929050565b612834612064565b1515612878576040805160e560020a62461bcd0281526020600482018190526024820152600080516020613c2f833981519152604482015290519081900360640190fd5b6119796001826136a1565b600354600160a060020a031690565b600080600061289f612064565b15156128e3576040805160e560020a62461bcd0281526020600482018190526024820152600080516020613c2f833981519152604482015290519081900360640190fd5b6128ec846120cc565b9250925092506128ff8484848443610ed5565b50505050565b60085463ffffffff1681565b612919612064565b151561295d576040805160e560020a62461bcd0281526020600482018190526024820152600080516020613c2f833981519152604482015290519081900360640190fd5b60028054600160a060020a031916600160a060020a0392909216919091179055565b600254600160a060020a031690565b6000612998612064565b15156129dc576040805160e560020a62461bcd0281526020600482018190526024820152600080516020613c2f833981519152604482015290519081900360640190fd5b611d2060018361376a565b6000611d206001805480602002602001604051908101604052809291908181526020018280548015612a6457602002820191906000526020600020906000905b82829054906101000a900463ffffffff1663ffffffff1681526020019060040190602082600301049283019260010382029150808411612a275790505b505050505083613861565b6119796001805480602002602001604051908101604052809291908181526020018280548015612aea57602002820191906000526020600020906000905b82829054906101000a900463ffffffff1663ffffffff1681526020019060040190602082600301049283019260010382029150808411612aad5790505b5050505050826138ac565b612afd612064565b1515612b41576040805160e560020a62461bcd0281526020600482018190526024820152600080516020613c2f833981519152604482015290519081900360640190fd5b6119798161390c565b6000612b8c83836040805190810160405280601e81526020017f536166654d6174683a207375627472616374696f6e206f766572666c6f7700008152506139ed565b9392505050565b60008082118015612ba657506009548211155b1515612bfc576040805160e560020a62461bcd02815260206004820152601660248201527f6f7074696f6e206964206973206e6f7420657869737400000000000000000000604482015290519081900360640190fd5b600980546000198401908110612c0e57fe5b90600052602060002090600502019050919050565b60028101544210611979576040805160e560020a62461bcd02815260206004820152601160248201527f6f7074696f6e2069732065787069726564000000000000000000000000000000604482015290519081900360640190fd5b6001820154600160a060020a038281169116146113f7576040805160e560020a62461bcd02815260206004820152601f60248201527f63616c6c6572206973206e6f7420746865206f7074696f6e73206f776e657200604482015290519081900360640190fd5b60048201548111156113f7576040805160e560020a62461bcd02815260206004820152601d60248201527f6f7074696f6e20616d6f756e7420697320696e73756666696369656e74000000604482015290519081900360640190fd5b60008060008060008a8c11612d58578a8a03612d5c565b8b8a035b600480546040805160e060020a63055ef6ab0281529283018d9052602483018d905260448301849052606483018c9052608483018b905260ff8a1660a484015251929550600160a060020a03169163055ef6ab9160c4808201926020929091908290030181600087803b158015612dd257600080fd5b505af1158015612de6573d6000803e3d6000fd5b505050506040513d6020811015612dfc57600080fd5b5051600480546040805160e060020a63055ef6ab0281529283018d9052602483018d9052428e036044840152606483018c9052608483018b905260ff8a1660a484015251929450600160a060020a03169163055ef6ab9160c4808201926020929091908290030181600087803b158015612e7557600080fd5b505af1158015612e89573d6000803e3d6000fd5b505050506040513d6020811015612e9f57600080fd5b5051919c919b50909950505050505050505050565b8151600090815b81811015612f015783600160a060020a03168582815181101515612edb57fe5b90602001906020020151600160a060020a03161415612ef957612f01565b600101612ebb565b8092505b505092915050565b600080831515612f205760009150612fb0565b50828202828482811515612f3057fe5b0414612fac576040805160e560020a62461bcd02815260206004820152602160248201527f536166654d6174683a206d756c7469706c69636174696f6e206f766572666c6f60448201527f7700000000000000000000000000000000000000000000000000000000000000606482015290519081900360840190fd5b8091505b5092915050565b6000612b8c83836040805190810160405280601a81526020017f536166654d6174683a206469766973696f6e206279207a65726f000000000000815250613a8a565b600082820183811015612fac576040805160e560020a62461bcd02815260206004820152601b60248201527f536166654d6174683a206164646974696f6e206f766572666c6f770000000000604482015290519081900360640190fd5b600854600b5460009182918291829163ffffffff9091169081151561307757fe5b60085460095492909106935063ffffffff169081151561309357fe5b0660010190505b808210156130cf576000828152600e60205260409020546130c290849063ffffffff612ff916565b925060019091019061309a565b509092915050565b6000611d20600180548060200260200160405190810160405280929190818152602001828054801561315457602002820191906000526020600020906000905b82829054906101000a900463ffffffff1663ffffffff16815260200190600401906020826003010492830192600103820291508084116131175790505b505050505083613af6565b60008042846002015411158061317757506004840154155b156131855760009150612fb0565b5060038301546001840154600091841060a060020a90910460ff161514156131c757600484015460038501546131c09163ffffffff612f0d16565b9050612fac565b60048401546131dd90849063ffffffff612f0d16565b949350505050565b60038301546001840154600091829160ff60a060020a9091041615908410141561322557600385015461321e908563ffffffff612f0d16565b90506131dd565b613235838563ffffffff612f0d16565b95945050505050565b6132978280548060200260200160405190810160405280929190818152602001828054801561328c57602002820191906000526020600020905b815481526020019060010190808311613278575b505050505082613662565b15156113f75781546001810183556000928352602090922090910155565b8154600090815b818110156132f1578385828154811015156132d357fe5b906000526020600020015414156132e9576132f1565b6001016132bc565b81811015613355576000198201811461333b57846001830381548110151561331557fe5b9060005260206000200154858281548110151561332e57fe5b6000918252602090912001555b845461334b866000198301613b7b565b5060019250612f05565b506000949350505050565b600254600090819081908190819081908190600160a060020a031633146133d3576040805160e560020a62461bcd0281526020600482015260266024820152600080516020613bef8339815191526044820152600080516020613c0f833981519152606482015290519081900360840190fd5b600389015460028a0154600554604080517fad1bb8330000000000000000000000000000000000000000000000000000000081526004810185905242909303602484018190528151949b509950600160a060020a039091169263ad1bb8339260448082019392918290030181600087803b15801561345057600080fd5b505af1158015613464573d6000803e3d6000fd5b505050506040513d604081101561347a57600080fd5b508051602091820151600354604080517f41976e09000000000000000000000000000000000000000000000000000000008152600160a060020a038e811660048301529151949a5092985016926341976e09926024808401938290030181600087803b1580156134e957600080fd5b505af11580156134fd573d6000803e3d6000fd5b505050506040513d602081101561351357600080fd5b50516004805460018c01546040805160e060020a63055ef6ab0281529384018c9052602484018c9052604484018b9052606484018a90526084840189905260a060020a90910460ff1660a484015251929550600160a060020a03169163055ef6ab9160c4808201926020929091908290030181600087803b15801561359757600080fd5b505af11580156135ab573d6000803e3d6000fd5b505050506040513d60208110156135c157600080fd5b505191506135d5828463ffffffff612fb716565b6040805160c081018252428152600160a060020a039a8b1660208083019182528284019485526060830196875260808301998a5260a083019889529c54600019016000908152600a909d5291909b209a518b555160018b018054600160a060020a03191691909a161790985550955160028801555093516003860155516004850155505051600590910155565b8151600090815b818110156133555783858281518110151561368057fe5b9060200190602002015114156136995760019250612f05565b600101613669565b6137268280548060200260200160405190810160405280929190818152602001828054801561371b57602002820191906000526020600020906000905b82829054906101000a900463ffffffff1663ffffffff16815260200190600401906020826003010492830192600103820291508084116136de5790505b505050505082613861565b15156113f7578154600181018355600092835260209092206008830401805460079093166004026101000a63ffffffff818102199094169290931692909202179055565b8154600090815b818110156137c5578363ffffffff16858281548110151561378e57fe5b6000918252602090912060088204015460079091166004026101000a900463ffffffff1614156137bd576137c5565b600101613771565b8181101561335557600019820181146138515784600183038154811015156137e957fe5b90600052602060002090600891828204019190066004029054906101000a900463ffffffff16858281548110151561381d57fe5b90600052602060002090600891828204019190066004026101000a81548163ffffffff021916908363ffffffff1602179055505b845461334b866000198301613ba4565b8151600090815b81811015613355578363ffffffff16858281518110151561388557fe5b9060200190602002015163ffffffff1614156138a45760019250612f05565b600101613868565b6138b68282613861565b15156113f7576040805160e560020a62461bcd02815260206004820152601f60248201527f77686974654c6973743a207573696e6720696e76616c69642075696e74333200604482015290519081900360640190fd5b600160a060020a0381161515613992576040805160e560020a62461bcd02815260206004820152602660248201527f4f776e61626c653a206e6577206f776e657220697320746865207a65726f206160448201527f6464726573730000000000000000000000000000000000000000000000000000606482015290519081900360840190fd5b60008054604051600160a060020a03808516939216917f8be0079c531659141344cd1fd0a4f28419497f9722a3daafe3b4186f6b6457e091a360008054600160a060020a031916600160a060020a0392909216919091179055565b6000808285851115613a805760405160e560020a62461bcd0281526004018080602001828103825283818151815260200191508051906020019080838360005b83811015613a45578181015183820152602001613a2d565b50505050905090810190601f168015613a725780820380516001836020036101000a031916815260200191505b509250505060405180910390fd5b5050509103919050565b60008082818511613ae05760405160e560020a62461bcd02815260040180806020018281038252838181518152602001915080519060200190808383600083811015613a45578181015183820152602001613a2d565b508385811515613aec57fe5b0495945050505050565b8151600090815b81811015612f01578363ffffffff168582815181101515613b1a57fe5b9060200190602002015163ffffffff161415613b3557612f01565b600101613afd565b8260028101928215613b6b579160200282015b82811115613b6b578251825591602001919060010190613b50565b50613b77929150613bd4565b5090565b815481835581811115613b9f57600083815260209020613b9f918101908301613bd4565b505050565b815481835581811115613b9f576007016008900481600701600890048360005260206000209182019101613b9f91905b61138c91905b80821115613b775760008155600101613bda56004d616e6167657261626c653a2063616c6c6572206973206e6f7420746865204d616e6167657200000000000000000000000000000000000000000000000000004f776e61626c653a2063616c6c6572206973206e6f7420746865206f776e6572a165627a7a723058201d48997554c169ea5351e5a6b35bcc12410bf25fb053e6832e4dfed702bbe0150029",
  "source": "pragma solidity ^0.4.26;\r\nimport \"./modules/SafeMath.sol\";\r\nimport \"./modules/Managerable.sol\";\r\nimport \"./interfaces/ICompoundOracle.sol\";\r\nimport \"./modules/underlyingAssets.sol\";\r\nimport \"./interfaces/IOptionsPrice.sol\";\r\nimport \"./interfaces/IVolatility.sol\";\r\ncontract OptionsPool is UnderlyingAssets,Managerable,ImportOracle,ImportOptionsPrice,ImportVolatility {\r\n    \r\n    using SafeMath for uint256;\r\n    struct OptionsInfo {\r\n        uint256     optionID;\r\n        address     owner;\r\n        uint8   \toptType;    //0 for call, 1 for put\r\n        uint32\t\tunderlying;\r\n        uint256\t\texpiration;\r\n        uint256     strikePrice;\r\n        uint256     amount;\r\n    }\r\n    struct OptionsInfoEx{\r\n        uint256\t\tcreatedTime;\r\n        address     settlement;\r\n        uint256     tokenTimePrice;\r\n        uint256     fullPrice;\r\n        uint256      ivNumerator;\r\n        uint256      ivDenominator;\r\n    }\r\n\r\n    //each block burn options\r\n    mapping(uint256=>uint256[2][]) public burnBlockOptions;\r\n    mapping(address=>uint256[]) public optionsBalances;\r\n    uint256 constant _calDecimal = 10000000000;\r\n    uint32 public optionPhase = 500;\r\n\r\n    OptionsInfo[] public allOptions;\r\n    mapping(uint256=>OptionsInfoEx) optionExtraMap;\r\n\r\n\r\n    uint256 private firstOption = 0;\r\n    uint256 public lastCallOption;\r\n    uint256 public lastCalBlock;\r\n\r\n    mapping(uint256=>uint256) private OptionsPhases;\r\n\r\n    mapping (uint256 =>mapping (address => uint256)) private OptionsPhaseBalances;\r\n    mapping (uint256 =>uint256) private OptionsPhaseTimes;\r\n    uint256 public lastCalBlock_share;\r\n    uint32 public sharedPhase = 500;\r\n\r\n    uint256[] public expirationList;\r\n    \r\n    constructor () public{\r\n    }\r\n    function getOptionBalances(address user)public view returns(uint256[]){\r\n        return optionsBalances[user];\r\n    }\r\n    function getOptionInfoList(uint256 from,uint256 size)public view \r\n                returns(address[],uint256[],uint256[],uint256[],uint256[]){\r\n        if (from+size>allOptions.length){\r\n            size = allOptions.length.sub(from);\r\n        }\r\n        if (size>0){\r\n            address[] memory ownerArr = new address[](size);\r\n            uint256[] memory typeAndUnderArr = new uint256[](size);\r\n            uint256[] memory expArr = new uint256[](size);\r\n            uint256[] memory priceArr = new uint256[](size);\r\n            uint256[] memory amountArr = new uint256[](size);\r\n            for (uint i=0;i<size;i++){\r\n                OptionsInfo storage info = allOptions[from+i];\r\n                ownerArr[i] = info.owner;\r\n                typeAndUnderArr[i] = info.underlying << 16 + info.optType;\r\n                expArr[i] = info.expiration;\r\n                priceArr[i] = info.strikePrice;\r\n                amountArr[i] = info.amount;\r\n            }\r\n            return (ownerArr,typeAndUnderArr,expArr,priceArr,amountArr);\r\n        }\r\n    }\r\n    function getOptionInfoListFromID(uint256[] ids)public view \r\n                returns(address[],uint256[],uint256[],uint256[],uint256[]){\r\n        uint256 size = ids.length;\r\n        address[] memory ownerArr = new address[](size);\r\n        uint256[] memory typeAndUnderArr = new uint256[](size);\r\n        uint256[] memory expArr = new uint256[](size);\r\n        uint256[] memory priceArr = new uint256[](size);\r\n        uint256[] memory amountArr = new uint256[](size);\r\n        for (uint i=0;i<size;i++){\r\n            OptionsInfo storage info = allOptions[ids[i]-1];\r\n            ownerArr[i] = info.owner;\r\n            typeAndUnderArr[i] = info.underlying << 16 + info.optType;\r\n            expArr[i] = info.expiration;\r\n            priceArr[i] = info.strikePrice;\r\n            amountArr[i] = info.amount;\r\n        }\r\n        return (ownerArr,typeAndUnderArr,expArr,priceArr,amountArr);\r\n    }\r\n    function getOptionsById(uint256 optionsId)public view returns(uint256,address,uint8,uint32,uint256,uint256,uint256){\r\n        OptionsInfo storage info = _getOptionsById(optionsId);\r\n        return (info.optionID,info.owner,info.optType,info.underlying,info.expiration,info.strikePrice,info.amount);\r\n    }\r\n\r\n    function setPhaseOccupiedCollateral(uint256 index) public onlyOwner {\r\n        (uint256 totalOccupied,uint256 beginOption,uint256 lastOption) = calculatePhaseOccupiedCollateral(index);\r\n        setCollateralPhase(index,totalOccupied,beginOption,lastOption,block.number);\r\n    }\r\n    function setCollateralPhase(uint256 index,uint256 totalOccupied,uint256 beginOption,uint256 lastOption,uint256 lastBlock) public onlyOwner{\r\n        if (beginOption > firstOption){\r\n            firstOption = beginOption;\r\n        }\r\n        if(lastCallOption < lastOption){\r\n            lastCallOption = lastOption;\r\n            lastCalBlock = lastBlock;\r\n        }\r\n        OptionsPhases[index] = totalOccupied;\r\n    }\r\n    function calculatePhaseOccupiedCollateral(uint256 index) public view returns(uint256,uint256,uint256){\r\n        uint256 beginOption = index.mul(optionPhase);\r\n        uint256 allLen = allOptions.length;\r\n        if (beginOption>=allLen){\r\n            return;\r\n        }\r\n        uint256 lastOption = beginOption.add(optionPhase);\r\n        if (lastOption>allLen) {\r\n            lastOption = allLen;\r\n        }else if(lastOption < firstOption){\r\n            return;\r\n        }\r\n        (uint256 totalOccupied,uint256 newFirstOption) = _calculateOccupiedCollateral(beginOption,lastOption);\r\n        uint256 last = lastCallOption<lastOption-1 ? lastOption-1 : lastCallOption;\r\n        return (totalOccupied,newFirstOption,last);\r\n    }\r\n    function _calculateOccupiedCollateral(uint256 begin,uint256 end)public view returns(uint256,uint256){\r\n        bool bfirstPhase = begin <= firstOption;\r\n        if (bfirstPhase) {\r\n            begin = firstOption;\r\n        }\r\n        uint256 newFirstOption = firstOption;\r\n        uint256 underlyingLen = underlyingAssets.length;\r\n        uint256[] memory prices = new uint256[](underlyingLen);\r\n        for (uint256 i = 0;i<underlyingLen;i++){\r\n            prices[i] = _oracle.getUnderlyingPrice(underlyingAssets[i]);\r\n        }\r\n        uint256 totalOccupied = 0;\r\n        for (;begin<end;begin++){\r\n            uint256 index = _getEligibleUnderlyingIndex(allOptions[begin].underlying);\r\n            uint256 value = calOptionsCollateral(allOptions[begin],prices[index]);\r\n            if (bfirstPhase && value > 0){\r\n                newFirstOption = begin;\r\n                bfirstPhase = false;\r\n            }\r\n            totalOccupied = totalOccupied.add(value);\r\n        }\r\n        return (totalOccupied,newFirstOption);\r\n    }\r\n    function setSharedState(uint256 index,uint256 lastBlock,uint256 calTime) public onlyManager{\r\n        if(lastBlock < lastCalBlock_share){\r\n            lastCalBlock_share = lastBlock;\r\n        }\r\n        OptionsPhaseTimes[index] = calTime;\r\n    }\r\n    function calculatePhaseSharedPayment(uint256 index,address[] whiteList) public view returns(uint256[],uint256){\r\n        uint256 beginOption = index.mul(sharedPhase);\r\n        uint256 allLen = allOptions.length;\r\n        if (beginOption>=allLen){\r\n            return;\r\n        }\r\n        uint256 lastOption = beginOption.add(sharedPhase);\r\n        if (lastOption>allLen) {\r\n            lastOption = allLen;\r\n        }else if(lastOption < firstOption){\r\n            return;\r\n        }\r\n        uint256[] memory sharedBalances = _calculateSharedPayment(beginOption,lastOption,OptionsPhaseTimes[index],whiteList);\r\n        return (sharedBalances,block.number);\r\n    }\r\n    function _calculateSharedPayment(uint256 begin,uint256 end,uint256 preTime,address[] whiteList)public view returns(uint256[]){\r\n        if (begin <= firstOption) {\r\n            begin = firstOption;\r\n        }\r\n        uint256[] memory totalSharedPayment = new uint256[](whiteList.length);\r\n        for (;begin<end;begin++){\r\n            OptionsInfo storage info = allOptions[begin];\r\n            uint256 expiration = info.expiration;\r\n            if(expiration<preTime || info.amount == 0){\r\n                continue;\r\n            }\r\n            OptionsInfoEx storage optionEx = optionExtraMap[begin];\r\n            (uint256 preValue,uint256 nowValue) = _calculateTimePrice(preTime,optionEx.createdTime,expiration,info.strikePrice,\r\n                    optionEx.ivNumerator,optionEx.ivDenominator,info.optType);\r\n            if (preValue > nowValue){\r\n                uint256 index = whiteListAddress._getEligibleIndexAddress(whiteList,optionEx.settlement);\r\n                uint256 sharedValue = optionEx.tokenTimePrice.mul((preValue - nowValue)).mul(info.amount).div(optionEx.fullPrice);\r\n                totalSharedPayment[index] = totalSharedPayment[index].add(sharedValue);\r\n            }\r\n        }\r\n        //burned\r\n        return _calBurnedSharePrice(begin,end,preTime,whiteList,totalSharedPayment);\r\n    }\r\n    function _calBurnedSharePrice(uint256 beginIndex,uint256 endIndex,uint256 preTime,address[] whiteList,uint256[] memory totalSharedPayment)public view returns(uint256[]){\r\n        uint256 beginBlock = lastCalBlock_share+1;\r\n        if (beginBlock == 1){\r\n            return totalSharedPayment;\r\n        }\r\n        for (; beginBlock <= block.number;beginBlock++){\r\n            uint256[2][] memory burnedTokens = burnBlockOptions[beginBlock];\r\n            uint burnedLen = burnedTokens.length;\r\n            for (uint256 i = 0;i<burnedLen;i++){\r\n                if(burnedTokens[i][0]<beginIndex || burnedTokens[i][0] >=endIndex){\r\n                   continue;\r\n                }\r\n                OptionsInfo storage info = allOptions[burnedTokens[i][0]];\r\n                uint256 expiration = info.expiration;\r\n                if(expiration<preTime || burnedTokens[i][1] == 0){\r\n                    continue;\r\n                }\r\n                OptionsInfoEx storage optionEx = optionExtraMap[burnedTokens[i][0]];\r\n                uint256 nowValue = _optionsPrice.getOptionsPrice_iv(info.strikePrice,info.strikePrice,expiration-now,optionEx.ivNumerator,\r\n                    optionEx.ivDenominator,info.optType);\r\n                nowValue = optionEx.tokenTimePrice.mul(nowValue).mul(burnedTokens[i][1]).div(optionEx.fullPrice);\r\n                uint256 index = whiteListAddress._getEligibleIndexAddress(whiteList,optionEx.settlement);\r\n                totalSharedPayment[index] = totalSharedPayment[index].add(nowValue);\r\n            }\r\n        }       \r\n    }\r\n    function _calculateTimePrice(uint256 preTime,uint256 createdTime,uint256 expiration,\r\n            uint256 strikePrice,uint256 ivNumerator,uint256 ivDenominator,uint8 optType)internal view returns (uint256,uint256){\r\n        uint256 preExpiration = preTime>createdTime ? expiration - preTime : expiration - createdTime;\r\n        uint256 preValue = _optionsPrice.getOptionsPrice_iv(strikePrice,strikePrice,preExpiration,ivNumerator,\r\n            ivDenominator,optType);\r\n        uint256 nowValue = _optionsPrice.getOptionsPrice_iv(strikePrice,strikePrice,expiration-now,ivNumerator,\r\n            ivDenominator,optType);\r\n        return (preValue,nowValue);\r\n    }\r\n    function createOptions(uint8 optType,uint32 underlying,uint256 expiration,uint256 strikePrice,\r\n        uint256 amount,address settlement) onlyManager public returns (uint256) {\r\n        uint256 optionID = allOptions.length;\r\n        uint256 underlyingPrice =  _oracle.getUnderlyingPrice(underlying);\r\n        allOptions.push(OptionsInfo(optionID+1,msg.sender,optType,underlying,expiration,strikePrice,amount));\r\n        optionsBalances[msg.sender].push(optionID);\r\n        if (optionID == 0){\r\n            lastCalBlock = block.number;\r\n        }\r\n        OptionsInfo storage info = allOptions[optionID];\r\n        setOptionsExtra(info,settlement);\r\n        return calOptionsCollateral(info,underlyingPrice);\r\n    }\r\n    function setOptionsExtra(OptionsInfo storage info,address settlement) onlyManager internal{\r\n        uint256 strikePrice = info.strikePrice;\r\n        uint256 expiration = info.expiration - now;\r\n        (uint256 ivNumerator,uint256 ivDenominator) = _volatility.calculateIv(strikePrice,expiration);\r\n        uint256 settlePrice = _oracle.getPrice(settlement);\r\n        uint256 fullPrice = _optionsPrice.getOptionsPrice_iv(strikePrice,strikePrice,expiration,ivNumerator,ivDenominator,info.optType);\r\n        uint256 tokenTimePrice = fullPrice.div(settlePrice);\r\n        optionExtraMap[info.optionID-1]= OptionsInfoEx(now,settlement,tokenTimePrice,fullPrice,ivNumerator,ivDenominator);\r\n    }\r\n    function getTotalOccupiedCollateral() public view returns (uint256) {\r\n        uint256 totalOccupied = sumOptionPhases();\r\n        uint underlyingLen = underlyingAssets.length;\r\n        uint256[] memory prices = new uint256[](underlyingLen);\r\n        for (uint256 i = 0;i<underlyingLen;i++){\r\n            prices[i] = _oracle.getUnderlyingPrice(underlyingAssets[i]);\r\n        }\r\n        uint optionsLen = allOptions.length;\r\n        for (uint256 beginOption = lastCallOption+1; beginOption < optionsLen;beginOption++){\r\n            uint256 index = _getEligibleUnderlyingIndex(allOptions[beginOption].underlying);\r\n            totalOccupied = totalOccupied.add(calOptionsCollateral(allOptions[beginOption],prices[index]));\r\n        }\r\n        uint256 beginBlock = lastCalBlock+1;\r\n        if (beginBlock == 1){\r\n            return totalOccupied;\r\n        }\r\n        for (; beginBlock <= block.number;beginBlock++){\r\n            uint256[2][] storage burnedTokens = burnBlockOptions[beginBlock];\r\n            uint burnedLen = burnedTokens.length;\r\n            for (i = 0;i<burnedLen;i++){\r\n                uint optionId = burnedTokens[i][0];\r\n                index = _getEligibleUnderlyingIndex(allOptions[optionId].underlying);\r\n                totalOccupied = totalOccupied.sub(calBurnedOptionsCollateral(allOptions[optionId],\r\n                    burnedTokens[i][1],prices[index]));\r\n            }\r\n        }\r\n        return totalOccupied;\r\n    }\r\n    function sumOptionPhases()internal view returns(uint256){\r\n        uint256 totalOccupied = 0;\r\n        uint256 i = firstOption%optionPhase;\r\n        uint256 phaseLen = allOptions.length%optionPhase+1;\r\n        for (;i<phaseLen;i++){\r\n            totalOccupied = totalOccupied.add(OptionsPhases[i]);\r\n        }\r\n        return totalOccupied;\r\n    }\r\n    function calOptionsCollateral(OptionsInfo storage option,uint256 underlyingPrice)internal view returns(uint256){\r\n        if (option.expiration<=now || option.amount == 0){\r\n            return 0;\r\n        }\r\n        uint256 totalOccupied = 0;\r\n        if ((option.optType == 0) == (option.strikePrice>underlyingPrice)){ // call\r\n            totalOccupied = option.strikePrice.mul(option.amount);\r\n        } else {\r\n            totalOccupied = underlyingPrice.mul(option.amount);\r\n        }\r\n        return totalOccupied;\r\n    }\r\n    function calBurnedOptionsCollateral(OptionsInfo storage option,uint256 burned,uint256 underlyingPrice)internal view returns(uint256){\r\n        uint256 totalOccupied = 0;\r\n        if ((option.optType == 0) == (option.strikePrice>underlyingPrice)){ // call\r\n            totalOccupied = option.strikePrice.mul(burned);\r\n        } else {\r\n            totalOccupied = underlyingPrice.mul(burned);\r\n        }\r\n        return totalOccupied;\r\n    }\r\n    function burnOptions(uint256 id,uint256 amount)public onlyManager{\r\n        OptionsInfo storage info = _getOptionsById(id);\r\n        checkEligible(info);\r\n        checkOwner(info,msg.sender);\r\n        checkSufficient(info,amount);\r\n        info.amount = info.amount.sub(amount);\r\n        burnBlockOptions[block.number].push([id-1,amount]);\r\n    }\r\n    function getExerciseWorth(uint256 optionsId,uint256 amount)public view returns(uint256){\r\n        OptionsInfo storage info = _getOptionsById(optionsId);\r\n        checkEligible(info);\r\n        checkSufficient(info,amount);\r\n        uint256 underlyingPrice = _oracle.getUnderlyingPrice(info.underlying);\r\n        uint256 tokenPayback = 0;\r\n        if (info.optType == 0){\r\n            if (underlyingPrice > info.strikePrice){\r\n                tokenPayback = underlyingPrice - info.strikePrice;\r\n            }\r\n        }else{\r\n            if ( underlyingPrice < info.strikePrice){\r\n                tokenPayback = info.strikePrice-underlyingPrice;\r\n            }\r\n        }\r\n        if (tokenPayback == 0 ){\r\n            return 0;\r\n        } \r\n        return tokenPayback.mul(amount);\r\n    }\r\n    function _getOptionsById(uint256 id)internal view returns(OptionsInfo storage){\r\n        require(id>0 && id <= allOptions.length,\"option id is not exist\");\r\n        return allOptions[id-1];\r\n    }\r\n    function checkEligible(OptionsInfo storage info)internal view{\r\n        require(info.expiration>now,\"option is expired\");\r\n    }\r\n    function checkOwner(OptionsInfo storage info,address owner)internal view{\r\n        require(info.owner == owner,\"caller is not the options owner\");\r\n    }\r\n    function checkSufficient(OptionsInfo storage info,uint256 amount) internal view{\r\n        require(info.amount >= amount,\"option amount is insufficient\");\r\n    }\r\n    function buyOptionCheck(uint256 expiration,uint32 underlying)public view{\r\n        require(isEligibleUnderlyingAsset(underlying) , \"underlying is unsupported asset\");\r\n        checkExpiration(expiration);\r\n    }\r\n        /**\r\n     * @dev Implementation of add an eligible expiration into the expirationList.\r\n     * @param expiration new eligible expiration.\r\n     */\r\n    function addExpiration(uint256 expiration)public onlyOwner{\r\n        whiteListUint256.addWhiteListUint256(expirationList,expiration);\r\n    }\r\n    /**\r\n     * @dev Implementation of revoke an invalid expiration from the expirationList.\r\n     * @param removeExpiration revoked expiration.\r\n     */\r\n    function removeExpirationList(uint256 removeExpiration)public onlyOwner returns(bool) {\r\n        return whiteListUint256.removeWhiteListUint256(expirationList,removeExpiration);\r\n    }\r\n    /**\r\n     * @dev Implementation of getting the eligible expirationList.\r\n     */\r\n    function getExpirationList()public view returns (uint256[]){\r\n        return expirationList;\r\n    }\r\n    /**\r\n     * @dev Implementation of testing whether the input expiration is eligible.\r\n     * @param expiration input expiration for testing.\r\n     */    \r\n    function isEligibleExpiration(uint256 expiration) public view returns (bool){\r\n        return whiteListUint256.isEligibleUint256(expirationList,expiration);\r\n    }\r\n    function checkExpiration(uint256 expiration) public view{\r\n        return require(isEligibleExpiration(expiration),\"expiration value is not supported\");\r\n    }\r\n    function _getEligibleExpirationIndex(uint256 expiration) internal view returns (uint256){\r\n        return whiteListUint256._getEligibleIndexUint256(expirationList,expiration);\r\n    }\r\n\r\n}",
  "sourcePath": "C:\\work\\solidity\\FinnexusOptions_V2\\contracts\\OptionsPool.sol",
  "compiler": {
    "name": "solc",
    "version": "0.4.26+commit.4563c3fc.Emscripten.clang"
  },
  "schemaVersion": "3.1.0",
  "updatedAt": "2020-07-20T14:10:02.113Z",
  "devdoc": {
    "methods": {
      "addExpiration(uint256)": {
        "details": "Implementation of add an eligible expiration into the expirationList.\r",
        "params": {
          "expiration": "new eligible expiration.\r"
        }
      },
      "addUnderlyingAsset(uint32)": {
        "details": "Implementation of add an eligible underlying into the underlyingAssets.\r",
        "params": {
          "underlying": "new eligible underlying.\r"
        }
      },
      "getExpirationList()": {
        "details": "Implementation of getting the eligible expirationList.\r"
      },
      "getUnderlyingAssets()": {
        "details": "Implementation of getting the eligible underlyingAssets.\r"
      },
      "isEligibleExpiration(uint256)": {
        "details": "Implementation of testing whether the input expiration is eligible.\r",
        "params": {
          "expiration": "input expiration for testing.\r"
        }
      },
      "isEligibleUnderlyingAsset(uint32)": {
        "details": "Implementation of testing whether the input underlying is eligible.\r",
        "params": {
          "underlying": "input underlying for testing.\r"
        }
      },
      "isOwner()": {
        "details": "Returns true if the caller is the current owner."
      },
      "owner()": {
        "details": "Returns the address of the current owner."
      },
      "removeExpirationList(uint256)": {
        "details": "Implementation of revoke an invalid expiration from the expirationList.\r",
        "params": {
          "removeExpiration": "revoked expiration.\r"
        }
      },
      "removeUnderlyingAssets(uint32)": {
        "details": "Implementation of revoke an invalid underlying from the underlyingAssets.\r",
        "params": {
          "removeUnderlying": "revoked underlying.\r"
        }
      },
      "renounceOwnership()": {
        "details": "Leaves the contract without owner. It will not be possible to call `onlyOwner` functions anymore. Can only be called by the current owner.     * NOTE: Renouncing ownership will leave the contract without an owner, thereby removing any functionality that is only available to the owner."
      },
      "transferOwnership(address)": {
        "details": "Transfers ownership of the contract to a new account (`newOwner`). Can only be called by the current owner."
      }
    }
  },
  "userdoc": {
    "methods": {
      "setManager(address)": {
        "notice": "contribution period to stop or not."
      }
    }
  }
}