{
  "contractName": "OptionsPrice",
  "abi": [
    {
      "constant": false,
      "inputs": [
        {
          "name": "volatility",
          "type": "address"
        }
      ],
      "name": "setVolatilityAddress",
      "outputs": [],
      "payable": false,
      "stateMutability": "nonpayable",
      "type": "function"
    },
    {
      "constant": true,
      "inputs": [],
      "name": "getVolatilityAddress",
      "outputs": [
        {
          "name": "",
          "type": "address"
        }
      ],
      "payable": false,
      "stateMutability": "view",
      "type": "function"
    },
    {
      "constant": false,
      "inputs": [],
      "name": "renounceOwnership",
      "outputs": [],
      "payable": false,
      "stateMutability": "nonpayable",
      "type": "function"
    },
    {
      "constant": true,
      "inputs": [],
      "name": "owner",
      "outputs": [
        {
          "name": "",
          "type": "address"
        }
      ],
      "payable": false,
      "stateMutability": "view",
      "type": "function"
    },
    {
      "constant": true,
      "inputs": [],
      "name": "isOwner",
      "outputs": [
        {
          "name": "",
          "type": "bool"
        }
      ],
      "payable": false,
      "stateMutability": "view",
      "type": "function"
    },
    {
      "constant": false,
      "inputs": [
        {
          "name": "newOwner",
          "type": "address"
        }
      ],
      "name": "transferOwnership",
      "outputs": [],
      "payable": false,
      "stateMutability": "nonpayable",
      "type": "function"
    },
    {
      "inputs": [
        {
          "name": "ivContract",
          "type": "address"
        }
      ],
      "payable": false,
      "stateMutability": "nonpayable",
      "type": "constructor"
    },
    {
      "anonymous": false,
      "inputs": [
        {
          "indexed": true,
          "name": "previousOwner",
          "type": "address"
        },
        {
          "indexed": true,
          "name": "newOwner",
          "type": "address"
        }
      ],
      "name": "OwnershipTransferred",
      "type": "event"
    },
    {
      "constant": true,
      "inputs": [],
      "name": "getRate",
      "outputs": [
        {
          "name": "",
          "type": "int256"
        },
        {
          "name": "",
          "type": "int256"
        }
      ],
      "payable": false,
      "stateMutability": "view",
      "type": "function"
    },
    {
      "constant": false,
      "inputs": [
        {
          "name": "numerator",
          "type": "int256"
        },
        {
          "name": "denominator",
          "type": "int256"
        }
      ],
      "name": "setRate",
      "outputs": [],
      "payable": false,
      "stateMutability": "nonpayable",
      "type": "function"
    },
    {
      "constant": true,
      "inputs": [
        {
          "name": "currentPrice",
          "type": "uint256"
        },
        {
          "name": "strikePrice",
          "type": "uint256"
        },
        {
          "name": "expiration",
          "type": "uint256"
        },
        {
          "name": "optType",
          "type": "uint8"
        }
      ],
      "name": "getOptionsPrice",
      "outputs": [
        {
          "name": "",
          "type": "uint256"
        }
      ],
      "payable": false,
      "stateMutability": "view",
      "type": "function"
    },
    {
      "constant": true,
      "inputs": [
        {
          "name": "currentPrice",
          "type": "uint256"
        },
        {
          "name": "strikePrice",
          "type": "uint256"
        },
        {
          "name": "expiration",
          "type": "uint256"
        },
        {
          "name": "ivNumerator",
          "type": "uint256"
        },
        {
          "name": "ivDenominator",
          "type": "uint256"
        },
        {
          "name": "optType",
          "type": "uint8"
        }
      ],
      "name": "getOptionsPrice_iv",
      "outputs": [
        {
          "name": "",
          "type": "uint256"
        }
      ],
      "payable": false,
      "stateMutability": "view",
      "type": "function"
    }
  ],
  "bytecode": "0x6301e1338060025560c0604052600560808190526103e860a081905260039190915560045534801561003057600080fd5b50604051602080611800833981016040819052905160008054600160a060020a03191633178082559192600160a060020a0392909216917f8be0079c531659141344cd1fd0a4f28419497f9722a3daafe3b4186f6b6457e0908290a361009e816401000000006100a4810204565b50610155565b6100b5640100000000610144810204565b151561012257604080517f08c379a000000000000000000000000000000000000000000000000000000000815260206004820181905260248201527f4f776e61626c653a2063616c6c6572206973206e6f7420746865206f776e6572604482015290519081900360640190fd5b60018054600160a060020a031916600160a060020a0392909216919091179055565b600054600160a060020a0316331490565b61169c806101646000396000f3006080604052600436106100a35763ffffffff7c0100000000000000000000000000000000000000000000000000000000600035041663055ef6ab81146100a85780632967eafe146100e45780632f581f481461010757806342e5479d1461012b578063679aefce1461015c578063715018a61461018a5780638da5cb5b1461019f5780638f32d59b146101b4578063bfe402f4146101dd578063f2fde38b146101f8575b600080fd5b3480156100b457600080fd5b506100d260043560243560443560643560843560ff60a43516610219565b60408051918252519081900360200190f35b3480156100f057600080fd5b50610105600160a060020a03600435166102a2565b005b34801561011357600080fd5b506100d260043560243560443560ff6064351661031d565b34801561013757600080fd5b5061014061044c565b60408051600160a060020a039092168252519081900360200190f35b34801561016857600080fd5b5061017161045b565b6040805192835260208301919091528051918290030190f35b34801561019657600080fd5b50610105610465565b3480156101ab57600080fd5b50610140610508565b3480156101c057600080fd5b506101c9610517565b604080519115158252519081900360200190f35b3480156101e957600080fd5b50610105600435602435610528565b34801561020457600080fd5b50610105600160a060020a036004351661057f565b600061022361160a565b50604080518082019091528481526020810184905260ff8316151561027057604080518082019091526003548152600454602082015261026990899089908990856105d7565b9150610297565b604080518082019091526003548152600454602082015261026990899089908990856106d1565b509695505050505050565b6102aa610517565b15156102ee576040805160e560020a62461bcd0281526020600482018190526024820152600080516020611651833981519152604482015290519081900360640190fd5b6001805473ffffffffffffffffffffffffffffffffffffffff1916600160a060020a0392909216919091179055565b600080600061032a61160a565b600154604080517fad1bb83300000000000000000000000000000000000000000000000000000000815260048101899052602481018a90528151600160a060020a039093169263ad1bb833926044808401939192918290030181600087803b15801561039557600080fd5b505af11580156103a9573d6000803e3d6000fd5b505050506040513d60408110156103bf57600080fd5b508051602091820151604080518082019091528281529283018190529094509250905060ff8516151561041a57604080518082019091526003548152600454602082015261041390899089908990856105d7565b9350610441565b604080518082019091526003548152600454602082015261041390899089908990856106d1565b505050949350505050565b600154600160a060020a031690565b6003546004549091565b61046d610517565b15156104b1576040805160e560020a62461bcd0281526020600482018190526024820152600080516020611651833981519152604482015290519081900360640190fd5b60008054604051600160a060020a03909116907f8be0079c531659141344cd1fd0a4f28419497f9722a3daafe3b4186f6b6457e0908390a36000805473ffffffffffffffffffffffffffffffffffffffff19169055565b600054600160a060020a031690565b600054600160a060020a0316331490565b610530610517565b1515610574576040805160e560020a62461bcd0281526020600482018190526024820152600080516020611651833981519152604482015290519081900360640190fd5b600391909155600455565b610587610517565b15156105cb576040805160e560020a62461bcd0281526020600482018190526024820152600080516020611651833981519152604482015290519081900360640190fd5b6105d4816107e6565b50565b60006105e161160a565b6105e961160a565b6105f161160a565b6105f961160a565b6106068a8a8a8a8a6108d4565b9350935061061384610a1f565b935061061e83610a1f565b925061063f8460408051908101604052808d81526020016001815250610c81565b93506106608360408051908101604052808c81526020016001815250610c81565b92506106828760408051908101604052808b8152602001600254815250610c81565b915061069561069083610caa565b610d31565b91506106a18383610c81565b90506106ad8482610d57565b9050806020015181600001518115156106c257fe5b059a9950505050505050505050565b60006106db61160a565b6106e361160a565b6106eb61160a565b6106f361160a565b6107008a8a8a8a8a6108d4565b9350935061070d84610a1f565b935061071883610a1f565b925061073a604080519081016040528060018152602001600181525085610d57565b935061075c604080519081016040528060018152602001600181525084610d57565b925061077d8460408051908101604052808d81526020016001815250610c81565b935061079e8360408051908101604052808c81526020016001815250610c81565b92506107c08760408051908101604052808b8152602001600254815250610c81565b91506107ce61069083610caa565b91506107da8383610c81565b90506106ad8185610d57565b600160a060020a038116151561086c576040805160e560020a62461bcd02815260206004820152602660248201527f4f776e61626c653a206e6577206f776e657220697320746865207a65726f206160448201527f6464726573730000000000000000000000000000000000000000000000000000606482015290519081900360840190fd5b60008054604051600160a060020a03808516939216917f8be0079c531659141344cd1fd0a4f28419497f9722a3daafe3b4186f6b6457e091a36000805473ffffffffffffffffffffffffffffffffffffffff1916600160a060020a0392909216919091179055565b6108dc61160a565b6108e461160a565b6108ec61160a565b6108f461160a565b6108fc61160a565b61090461160a565b61090c61160a565b61091461160a565b60408051808201909152600081526001602082015295508c8c146109555761093b8d610d79565b94506109468c610d79565b93506109528585610d57565b95505b61095f898a610c81565b9250610981836040805190810160405280600181526020016002815250610c81565b925061098d838b610db3565b92506109af8360408051908101604052808e8152602001600254815250610c81565b92506109bb8684610db3565b95506109f36109ed60408051908101604052808e6402540be4000281526020016002546402540be40002815250610dd5565b8a610c81565b91506109ff8683610e2e565b9550610a0b8683610d57565b959d959c50949a5050505050505050505050565b610a2761160a565b6000610a3161160a565b610a39611621565b610a4161160a565b610a4961160a565b610a5161160a565b610a5961160a565b610a6161160a565b6000610a6c8b610e50565b98508815610a8057610a7d8b610e63565b9a505b60408051808201825262235883815262989680602080830191909152825160e0810184526301e7566960a082019081526305f5e10060c0830152815283518085018552631540bb45198152633b9aca008184018190528284019190915284518086018652636a2f323181528084018290528286015284518086018652636c8e292919815280840182905260608301528451808601909552634f4a607d855291840191909152608081019290925298509650610b3b8b89610c81565b9550610b5d866040805190810160405280600181526020016001815250610db3565b9550610b6886610d31565b95506040805190810160405280680229a4c508a92ae7d1815260200168056bc75e2d631000008152509450610b9d8b8c610c81565b9350610bc084604080519081016040528060001981526020016002815250610c81565b9350610bcb84610caa565b9350610bd78585610c81565b935060408051908101604052806000815260200160018152509250859150600090505b6005811015610c3c57610c2683610c21898460058110610c1657fe5b602002015185610c81565b610db3565b9250610c328287610c81565b9150600101610bfa565b610c468484610c81565b9350881515610c7257610c6f604080519081016040528060018152602001600181525085610d57565b93505b50919998505050505050505050565b610c8961160a565b610ca3610c9584610e9a565b610c9e84610e9a565b610f40565b9392505050565b610cb261160a565b6000610cbc61160a565b610cc584610e50565b91508115610cd957610cd684610e63565b93505b835164010000000002845260408051808201909152602085015185518291610d0a91811515610d0457fe5b05610f6e565b815264010000000060209091015290508115610ca357610d2981610d31565b949350505050565b610d3961160a565b50604080518082019091526020808301518252825190820152919050565b610d5f61160a565b610ca3610d6b84610e9a565b610d7484610e9a565b610f8e565b610d8161160a565b604080518082019091526401000000009092029180610d9f84610fca565b815264010000000060209091015292915050565b610dbb61160a565b610ca3610dc784610e9a565b610dd084610e9a565b611001565b610ddd61160a565b8151600013801590610df457506000826020015112155b1515610dfc57fe5b6040805190810160405280610e14846000015161103a565b8152602001610e26846020015161103a565b905292915050565b610e3661160a565b610ca3610e4284610e9a565b610e4b84610e9a565b611075565b6020810151905160009182139113141590565b610e6b61160a565b815160001315610e7d57815160000382525b600082602001511215610e965760208201805160000390525b5090565b610ea261160a565b6000806000610eb485600001516110a3565b9250610ec385602001516110a3565b915082821315610f0b576c8fffffffffffffffffffffffff821315610f06576c8fffffffffffffffffffffffff825b059050610eff85826110b9565b9350610f38565b610f34565b6c8fffffffffffffffffffffffff831315610f34576c8fffffffffffffffffffffffff83610ef2565b8493505b505050919050565b610f4861160a565b506040805180820190915281518351028152602091820151928201519092029082015290565b600064386bfdba29821115610f7f57fe5b610f88826110fa565b92915050565b610f9661160a565b5060408051808201909152602080840180518451858401805188519290930291909202038452519051029082015292915050565b600080640100000000831015610fdc57fe5b610fe583611582565b67010000000000000066b17217f7d1cf78909102049392505050565b61100961160a565b5060408051808201909152602080840180518451858401805188510291909202018452519051029082015292915050565b80600260018201045b8181101561106f57809150600281828581151561105c57fe5b040181151561106757fe5b049050611043565b50919050565b61107d61160a565b506040805180820190915260208281015184510282529151928201519092029082015290565b60008082126110b25781610f88565b5060000390565b6110c161160a565b60408051908101604052808385600001518115156110db57fe5b0581526020018385602001518115156110f057fe5b0590529392505050565b6000806000602060ff1660019060020a029150816fde1bc4d19efcac82445da75b00000000029050602060ff168483029060020a90049150816fde1bc4d19efcb00000000000000000000281019050602060ff168483029060020a90049150816f6f0de268cf7e580000000000000000000281019050602060ff168483029060020a90049150816f2504a0cd9a7f720000000000000000000281019050602060ff168483029060020a90049150816f09412833669fdc8000000000000000000281019050602060ff168483029060020a90049150816f01d9d4d714865f5000000000000000000281019050602060ff168483029060020a90049150816e4ef8ce836bba8c00000000000000000281019050602060ff168483029060020a90049150816e0b481d807d1aa680000000000000000281019050602060ff168483029060020a90049150816e016903b00fa354d0000000000000000281019050602060ff168483029060020a90049150816d281cdaac677b34000000000000000281019050602060ff168483029060020a90049150816d0402e2aad725eb800000000000000281019050602060ff168483029060020a90049150816c5d5a6c9f31fe240000000000000281019050602060ff168483029060020a90049150816c07c7890d442a830000000000000281019050602060ff168483029060020a90049150816b9931ed5403452800000000000281019050602060ff168483029060020a90049150816b0af147cf24ce1500000000000281019050602060ff168483029060020a90049150816abac08546b867d0000000000281019050602060ff168483029060020a90049150816a0bac08546b867d000000000281019050602060ff168483029060020a900491508169afc441338061b80000000281019050602060ff168483029060020a90049150816909c3cabbc0056e0000000281019050602060ff168483029060020a900491508168839168328705c800000281019050602060ff168483029060020a9004915081680694120286c04a00000281019050602060ff168483029060020a90049150816750319e98b3d2c4000281019050602060ff168483029060020a90049150816703a52a1e36b820200281019050602060ff168483029060020a900491508166289286e0fce0020281019050602060ff168483029060020a90049150816601b0c59eb534000281019050602060ff168483029060020a900491508165114f95b554000281019050602060ff168483029060020a900491508164aa7210d2000281019050602060ff168483029060020a90049150816406501396000281019050602060ff168483029060020a90049150816339b78e800281019050602060ff168483029060020a90049150816301fd80800281019050602060ff168483029060020a90049150816210fbc00281019050602060ff168483029060020a9004915081618c400281019050602060ff168483029060020a90049150816104620281019050602060ff168483029060020a9004915081602202810190506fde1bc4d19efcac82445da75b000000008181151561157957fe5b04949350505050565b6000808064010000000084101561159557fe5b600091505b64020000000084106115bc57600290930492640100000000919091019061159a565b5060005b602060ff821610156116035764010000000084800204935064020000000084106115fb576002938490049360ff601f83900316900a91909101905b6001016115c0565b5092915050565b604080518082019091526000808252602082015290565b610140604051908101604052806005905b61163a61160a565b815260200190600190039081611632579050509056004f776e61626c653a2063616c6c6572206973206e6f7420746865206f776e6572a165627a7a723058202a7964e68627c165cb466cb19fba40d6485e050f88504da1c68aade3d14c66580029",
  "source": "pragma solidity ^0.4.26;\r\n\r\nimport \"./modules/Ownable.sol\";\r\nimport \"./modules/Fraction.sol\";\r\nimport \"./interfaces/IVolatility.sol\";\r\ncontract OptionsPrice is ImportVolatility{\r\n    constructor (address ivContract) public{\r\n        setVolatilityAddress(ivContract);\r\n    }\r\n    uint256 internal Year = 365 days;\r\n    Fraction.fractionNumber internal rate = Fraction.fractionNumber(5,1000);\r\n    function getRate()public view returns(int256,int256){\r\n        return (rate.numerator,rate.denominator);\r\n    }\r\n    function setRate(int256 numerator,int256 denominator)public onlyOwner{\r\n        rate.numerator = numerator;\r\n        rate.denominator = denominator;\r\n    }\r\n    function getOptionsPrice(uint256 currentPrice, uint256 strikePrice, uint256 expiration,uint8 optType)public view returns (uint256){\r\n        (uint256 ivNumerator,uint256 ivDenominator) = _volatility.calculateIv(expiration,strikePrice);\r\n        Fraction.fractionNumber memory _iv = Fraction.fractionNumber(int256(ivNumerator),int256(ivDenominator));\r\n        if (optType == 0) {\r\n            return callOptionsPrice(currentPrice,strikePrice,expiration,rate,_iv);\r\n        }else{\r\n            return putOptionsPrice(currentPrice,strikePrice,expiration,rate,_iv);\r\n        }\r\n    }\r\n    function getOptionsPrice_iv(uint256 currentPrice, uint256 strikePrice, uint256 expiration,\r\n            uint256 ivNumerator,uint256 ivDenominator,uint8 optType)public view returns (uint256){\r\n        Fraction.fractionNumber memory _iv = Fraction.fractionNumber(int256(ivNumerator),int256(ivDenominator));\r\n        if (optType == 0) {\r\n            return callOptionsPrice(currentPrice,strikePrice,expiration,rate,_iv);\r\n        }else{\r\n            return putOptionsPrice(currentPrice,strikePrice,expiration,rate,_iv);\r\n        }\r\n    }\r\n    function calculateD1D2(uint256 currentPrice, uint256 strikePrice, uint256 expiration,\r\n         Fraction.fractionNumber memory r, Fraction.fractionNumber memory derta) \r\n            internal view returns (Fraction.fractionNumber, Fraction.fractionNumber) {\r\n        Fraction.fractionNumber memory d1 = Fraction.fractionNumber(0,1);\r\n        if (currentPrice != strikePrice){\r\n            Fraction.fractionNumber memory lns = Fraction.fractionLn(currentPrice);\r\n            Fraction.fractionNumber memory lnl = Fraction.fractionLn(strikePrice);\r\n            d1 = Fraction.safeFractionSub(lns, lnl);\r\n        }\r\n        Fraction.fractionNumber memory derta2 = Fraction.safeFractionMul(derta, derta);\r\n        derta2 = Fraction.safeFractionMul(derta2, Fraction.fractionNumber(1,2));\r\n        derta2 = Fraction.safeFractionAdd(derta2, r);\r\n        derta2 = Fraction.safeFractionMul(derta2, Fraction.fractionNumber(int256(expiration),int256(Year)));\r\n        d1 = Fraction.safeFractionAdd(d1, derta2);\r\n        Fraction.fractionNumber memory dertaT = Fraction.safeFractionMul(Fraction.fractionSqrt(Fraction.fractionNumber(int256(expiration*1e10),int256(Year*1e10))), derta);\r\n        d1 = Fraction.safeFractionDiv(d1, dertaT);\r\n        Fraction.fractionNumber memory d2 = Fraction.safeFractionSub(d1, dertaT);\r\n        return (d1, d2);\r\n    }\r\n\r\n    //L*pow(e,-rT)*(1-N(d2)) - S*(1-N(d1))\r\n    function putOptionsPrice(uint256 currentPrice, uint256 strikePrice, uint256 expiration,\r\n            Fraction.fractionNumber memory r, Fraction.fractionNumber memory derta) \r\n                internal view returns (uint256) {\r\n       (Fraction.fractionNumber memory d1, Fraction.fractionNumber memory d2) = calculateD1D2(currentPrice, strikePrice, expiration, r, derta);\r\n        d1 = Fraction.normsDist(d1);\r\n        d2 = Fraction.normsDist(d2);\r\n        d1 = Fraction.safeFractionSub(Fraction.fractionNumber(1,1), d1);\r\n        d2 = Fraction.safeFractionSub(Fraction.fractionNumber(1,1), d2);\r\n        d1 = Fraction.safeFractionMul(d1, Fraction.fractionNumber(int256(currentPrice),1));\r\n        d2 = Fraction.safeFractionMul(d2, Fraction.fractionNumber(int256(strikePrice),1));\r\n        Fraction.fractionNumber memory rt = Fraction.safeFractionMul(r,Fraction.fractionNumber(int256(expiration),int256(Year)));\r\n        rt = Fraction.invert(Fraction.fractionExp(rt));\r\n        Fraction.fractionNumber memory price = Fraction.safeFractionMul(d2, rt);\r\n        price = Fraction.safeFractionSub(price, d1);\r\n        return uint256(price.numerator/price.denominator);\r\n    }\r\n\r\n    /*\r\n        r := FloatNum{\r\n            big.NewInt(5),\r\n            big.NewInt(1000)}\r\n    */\r\n    //S*N(d1)-L*pow(e,-rT)*N(d2)\r\n    function callOptionsPrice(uint256 currentPrice, uint256 strikePrice, uint256 expiration,\r\n            Fraction.fractionNumber memory r, Fraction.fractionNumber memory derta) \r\n                internal view returns (uint256) {\r\n       (Fraction.fractionNumber memory d1, Fraction.fractionNumber memory d2) = calculateD1D2(currentPrice, strikePrice, expiration, r, derta);\r\n        d1 = Fraction.normsDist(d1);\r\n        d2 = Fraction.normsDist(d2);\r\n        d1 = Fraction.safeFractionMul(d1, Fraction.fractionNumber(int256(currentPrice),1));\r\n        d2 = Fraction.safeFractionMul(d2, Fraction.fractionNumber(int256(strikePrice),1));\r\n        Fraction.fractionNumber memory rt = Fraction.safeFractionMul(r,Fraction.fractionNumber(int256(expiration),int256(Year)));\r\n        rt = Fraction.invert(Fraction.fractionExp(rt));\r\n        Fraction.fractionNumber memory price = Fraction.safeFractionMul(d2, rt);\r\n        price = Fraction.safeFractionSub(d1, price);\r\n        return uint256(price.numerator/price.denominator);\r\n    }\r\n}",
  "sourcePath": "C:\\work\\solidity\\FinnexusOptions_V2\\contracts\\optionsPrice.sol",
  "compiler": {
    "name": "solc",
    "version": "0.4.26+commit.4563c3fc.Emscripten.clang"
  },
  "schemaVersion": "3.1.0",
  "updatedAt": "2020-07-21T02:56:25.571Z",
  "devdoc": {
    "methods": {
      "isOwner()": {
        "details": "Returns true if the caller is the current owner."
      },
      "owner()": {
        "details": "Returns the address of the current owner."
      },
      "renounceOwnership()": {
        "details": "Leaves the contract without owner. It will not be possible to call `onlyOwner` functions anymore. Can only be called by the current owner.     * NOTE: Renouncing ownership will leave the contract without an owner, thereby removing any functionality that is only available to the owner."
      },
      "transferOwnership(address)": {
        "details": "Transfers ownership of the contract to a new account (`newOwner`). Can only be called by the current owner."
      }
    }
  },
  "userdoc": {
    "methods": {}
  }
}