{
  "contractName": "OptionsNetWorthCal",
  "abi": [
    {
      "constant": true,
      "inputs": [
        {
          "name": "from",
          "type": "uint256"
        },
        {
          "name": "size",
          "type": "uint256"
        }
      ],
      "name": "getOptionInfoList",
      "outputs": [
        {
          "name": "",
          "type": "address[]"
        },
        {
          "name": "",
          "type": "uint256[]"
        },
        {
          "name": "",
          "type": "uint256[]"
        },
        {
          "name": "",
          "type": "uint256[]"
        },
        {
          "name": "",
          "type": "uint256[]"
        }
      ],
      "payable": false,
      "stateMutability": "view",
      "type": "function"
    },
    {
      "constant": true,
      "inputs": [],
      "name": "getOccupiedCalInfo",
      "outputs": [
        {
          "name": "",
          "type": "uint256"
        },
        {
          "name": "",
          "type": "int256"
        }
      ],
      "payable": false,
      "stateMutability": "view",
      "type": "function"
    },
    {
      "constant": true,
      "inputs": [
        {
          "name": "lastOption",
          "type": "uint256"
        },
        {
          "name": "beginOption",
          "type": "uint256"
        },
        {
          "name": "endOption",
          "type": "uint256"
        }
      ],
      "name": "calculatePhaseOccupiedCollateral",
      "outputs": [
        {
          "name": "",
          "type": "uint256"
        },
        {
          "name": "",
          "type": "uint256"
        },
        {
          "name": "",
          "type": "bool"
        }
      ],
      "payable": false,
      "stateMutability": "view",
      "type": "function"
    },
    {
      "constant": false,
      "inputs": [
        {
          "name": "totalOccupied",
          "type": "uint256"
        },
        {
          "name": "beginOption",
          "type": "uint256"
        },
        {
          "name": "latestOccpied",
          "type": "int256"
        }
      ],
      "name": "setCollateralPhase",
      "outputs": [],
      "payable": false,
      "stateMutability": "nonpayable",
      "type": "function"
    },
    {
      "constant": false,
      "inputs": [
        {
          "name": "volatility",
          "type": "address"
        }
      ],
      "name": "setVolatilityAddress",
      "outputs": [],
      "payable": false,
      "stateMutability": "nonpayable",
      "type": "function"
    },
    {
      "constant": true,
      "inputs": [
        {
          "name": "ids",
          "type": "uint256[]"
        }
      ],
      "name": "getOptionInfoListFromID",
      "outputs": [
        {
          "name": "",
          "type": "address[]"
        },
        {
          "name": "",
          "type": "uint256[]"
        },
        {
          "name": "",
          "type": "uint256[]"
        },
        {
          "name": "",
          "type": "uint256[]"
        },
        {
          "name": "",
          "type": "uint256[]"
        }
      ],
      "payable": false,
      "stateMutability": "view",
      "type": "function"
    },
    {
      "constant": true,
      "inputs": [],
      "name": "getUnderlyingAssets",
      "outputs": [
        {
          "name": "",
          "type": "uint32[]"
        }
      ],
      "payable": false,
      "stateMutability": "view",
      "type": "function"
    },
    {
      "constant": true,
      "inputs": [
        {
          "name": "expiration",
          "type": "uint256"
        },
        {
          "name": "underlying",
          "type": "uint32"
        }
      ],
      "name": "buyOptionCheck",
      "outputs": [],
      "payable": false,
      "stateMutability": "view",
      "type": "function"
    },
    {
      "constant": true,
      "inputs": [],
      "name": "getVolatilityAddress",
      "outputs": [
        {
          "name": "",
          "type": "address"
        }
      ],
      "payable": false,
      "stateMutability": "view",
      "type": "function"
    },
    {
      "constant": true,
      "inputs": [
        {
          "name": "optionsId",
          "type": "uint256"
        }
      ],
      "name": "getOptionsById",
      "outputs": [
        {
          "name": "",
          "type": "uint256"
        },
        {
          "name": "",
          "type": "address"
        },
        {
          "name": "",
          "type": "uint8"
        },
        {
          "name": "",
          "type": "uint32"
        },
        {
          "name": "",
          "type": "uint256"
        },
        {
          "name": "",
          "type": "uint256"
        },
        {
          "name": "",
          "type": "uint256"
        }
      ],
      "payable": false,
      "stateMutability": "view",
      "type": "function"
    },
    {
      "constant": false,
      "inputs": [
        {
          "name": "oracle",
          "type": "address"
        }
      ],
      "name": "setOracleAddress",
      "outputs": [],
      "payable": false,
      "stateMutability": "nonpayable",
      "type": "function"
    },
    {
      "constant": true,
      "inputs": [
        {
          "name": "optionID",
          "type": "uint256"
        },
        {
          "name": "amount",
          "type": "uint256"
        }
      ],
      "name": "getBurnedFullPay",
      "outputs": [
        {
          "name": "",
          "type": "address"
        },
        {
          "name": "",
          "type": "uint256"
        }
      ],
      "payable": false,
      "stateMutability": "view",
      "type": "function"
    },
    {
      "constant": true,
      "inputs": [],
      "name": "getOptionsPriceAddress",
      "outputs": [
        {
          "name": "",
          "type": "address"
        }
      ],
      "payable": false,
      "stateMutability": "view",
      "type": "function"
    },
    {
      "constant": true,
      "inputs": [],
      "name": "getBurnTimeLimit",
      "outputs": [
        {
          "name": "",
          "type": "uint256"
        }
      ],
      "payable": false,
      "stateMutability": "view",
      "type": "function"
    },
    {
      "constant": true,
      "inputs": [
        {
          "name": "optionsId",
          "type": "uint256"
        },
        {
          "name": "amount",
          "type": "uint256"
        }
      ],
      "name": "getExerciseWorth",
      "outputs": [
        {
          "name": "",
          "type": "uint256"
        }
      ],
      "payable": false,
      "stateMutability": "view",
      "type": "function"
    },
    {
      "constant": true,
      "inputs": [
        {
          "name": "optionsId",
          "type": "uint256"
        }
      ],
      "name": "getOptionsLimitTimeById",
      "outputs": [
        {
          "name": "",
          "type": "uint256"
        }
      ],
      "payable": false,
      "stateMutability": "view",
      "type": "function"
    },
    {
      "constant": false,
      "inputs": [],
      "name": "renounceOwnership",
      "outputs": [],
      "payable": false,
      "stateMutability": "nonpayable",
      "type": "function"
    },
    {
      "constant": true,
      "inputs": [
        {
          "name": "expiration",
          "type": "uint256"
        }
      ],
      "name": "checkExpiration",
      "outputs": [],
      "payable": false,
      "stateMutability": "view",
      "type": "function"
    },
    {
      "constant": true,
      "inputs": [],
      "name": "getTotalOccupiedCollateral",
      "outputs": [
        {
          "name": "",
          "type": "uint256"
        }
      ],
      "payable": false,
      "stateMutability": "view",
      "type": "function"
    },
    {
      "constant": false,
      "inputs": [
        {
          "name": "expiration",
          "type": "uint256"
        }
      ],
      "name": "addExpiration",
      "outputs": [],
      "payable": false,
      "stateMutability": "nonpayable",
      "type": "function"
    },
    {
      "constant": false,
      "inputs": [
        {
          "name": "removeExpiration",
          "type": "uint256"
        }
      ],
      "name": "removeExpirationList",
      "outputs": [
        {
          "name": "",
          "type": "bool"
        }
      ],
      "payable": false,
      "stateMutability": "nonpayable",
      "type": "function"
    },
    {
      "constant": true,
      "inputs": [],
      "name": "owner",
      "outputs": [
        {
          "name": "",
          "type": "address"
        }
      ],
      "payable": false,
      "stateMutability": "view",
      "type": "function"
    },
    {
      "constant": true,
      "inputs": [],
      "name": "isOwner",
      "outputs": [
        {
          "name": "",
          "type": "bool"
        }
      ],
      "payable": false,
      "stateMutability": "view",
      "type": "function"
    },
    {
      "constant": true,
      "inputs": [],
      "name": "getExpirationList",
      "outputs": [
        {
          "name": "",
          "type": "uint256[]"
        }
      ],
      "payable": false,
      "stateMutability": "view",
      "type": "function"
    },
    {
      "constant": false,
      "inputs": [
        {
          "name": "addAddress",
          "type": "address"
        }
      ],
      "name": "addOperator",
      "outputs": [],
      "payable": false,
      "stateMutability": "nonpayable",
      "type": "function"
    },
    {
      "constant": true,
      "inputs": [
        {
          "name": "expiration",
          "type": "uint256"
        }
      ],
      "name": "isEligibleExpiration",
      "outputs": [
        {
          "name": "",
          "type": "bool"
        }
      ],
      "payable": false,
      "stateMutability": "view",
      "type": "function"
    },
    {
      "constant": false,
      "inputs": [
        {
          "name": "optionsPrice",
          "type": "address"
        }
      ],
      "name": "setOptionsPriceAddress",
      "outputs": [],
      "payable": false,
      "stateMutability": "nonpayable",
      "type": "function"
    },
    {
      "constant": false,
      "inputs": [
        {
          "name": "removeAddress",
          "type": "address"
        }
      ],
      "name": "removeOperator",
      "outputs": [
        {
          "name": "",
          "type": "bool"
        }
      ],
      "payable": false,
      "stateMutability": "nonpayable",
      "type": "function"
    },
    {
      "constant": false,
      "inputs": [
        {
          "name": "underlying",
          "type": "uint32"
        }
      ],
      "name": "addUnderlyingAsset",
      "outputs": [],
      "payable": false,
      "stateMutability": "nonpayable",
      "type": "function"
    },
    {
      "constant": true,
      "inputs": [],
      "name": "getOracleAddress",
      "outputs": [
        {
          "name": "",
          "type": "address"
        }
      ],
      "payable": false,
      "stateMutability": "view",
      "type": "function"
    },
    {
      "constant": true,
      "inputs": [],
      "name": "getOptionInfoLength",
      "outputs": [
        {
          "name": "",
          "type": "uint256"
        }
      ],
      "payable": false,
      "stateMutability": "view",
      "type": "function"
    },
    {
      "constant": false,
      "inputs": [
        {
          "name": "timeLimit",
          "type": "uint256"
        }
      ],
      "name": "setBurnTimeLimit",
      "outputs": [],
      "payable": false,
      "stateMutability": "nonpayable",
      "type": "function"
    },
    {
      "constant": false,
      "inputs": [
        {
          "name": "managerAddress",
          "type": "address"
        }
      ],
      "name": "setManager",
      "outputs": [],
      "payable": false,
      "stateMutability": "nonpayable",
      "type": "function"
    },
    {
      "constant": true,
      "inputs": [],
      "name": "getManager",
      "outputs": [
        {
          "name": "",
          "type": "address"
        }
      ],
      "payable": false,
      "stateMutability": "view",
      "type": "function"
    },
    {
      "constant": false,
      "inputs": [
        {
          "name": "removeUnderlying",
          "type": "uint32"
        }
      ],
      "name": "removeUnderlyingAssets",
      "outputs": [
        {
          "name": "",
          "type": "bool"
        }
      ],
      "payable": false,
      "stateMutability": "nonpayable",
      "type": "function"
    },
    {
      "constant": true,
      "inputs": [
        {
          "name": "underlying",
          "type": "uint32"
        }
      ],
      "name": "isEligibleUnderlyingAsset",
      "outputs": [
        {
          "name": "",
          "type": "bool"
        }
      ],
      "payable": false,
      "stateMutability": "view",
      "type": "function"
    },
    {
      "constant": false,
      "inputs": [
        {
          "name": "index",
          "type": "uint256"
        },
        {
          "name": "addAddress",
          "type": "address"
        }
      ],
      "name": "setOperator",
      "outputs": [],
      "payable": false,
      "stateMutability": "nonpayable",
      "type": "function"
    },
    {
      "constant": true,
      "inputs": [
        {
          "name": "user",
          "type": "address"
        }
      ],
      "name": "getUserOptionsID",
      "outputs": [
        {
          "name": "",
          "type": "uint256[]"
        }
      ],
      "payable": false,
      "stateMutability": "view",
      "type": "function"
    },
    {
      "constant": true,
      "inputs": [],
      "name": "getOperator",
      "outputs": [
        {
          "name": "",
          "type": "address[]"
        }
      ],
      "payable": false,
      "stateMutability": "view",
      "type": "function"
    },
    {
      "constant": true,
      "inputs": [
        {
          "name": "underlying",
          "type": "uint32"
        }
      ],
      "name": "checkUnderlyingAsset",
      "outputs": [],
      "payable": false,
      "stateMutability": "view",
      "type": "function"
    },
    {
      "constant": false,
      "inputs": [
        {
          "name": "newOwner",
          "type": "address"
        }
      ],
      "name": "transferOwnership",
      "outputs": [],
      "payable": false,
      "stateMutability": "nonpayable",
      "type": "function"
    },
    {
      "constant": false,
      "inputs": [],
      "name": "setOccupiedCollateral",
      "outputs": [],
      "payable": false,
      "stateMutability": "nonpayable",
      "type": "function"
    },
    {
      "constant": true,
      "inputs": [
        {
          "name": "user",
          "type": "address"
        },
        {
          "name": "from",
          "type": "uint256"
        },
        {
          "name": "size",
          "type": "uint256"
        }
      ],
      "name": "getUserOptionsID",
      "outputs": [
        {
          "name": "",
          "type": "uint256[]"
        }
      ],
      "payable": false,
      "stateMutability": "view",
      "type": "function"
    },
    {
      "anonymous": false,
      "inputs": [
        {
          "indexed": true,
          "name": "owner",
          "type": "address"
        },
        {
          "indexed": true,
          "name": "optionID",
          "type": "uint256"
        },
        {
          "indexed": false,
          "name": "optType",
          "type": "uint8"
        },
        {
          "indexed": false,
          "name": "underlying",
          "type": "uint32"
        },
        {
          "indexed": false,
          "name": "expiration",
          "type": "uint256"
        },
        {
          "indexed": false,
          "name": "strikePrice",
          "type": "uint256"
        },
        {
          "indexed": false,
          "name": "amount",
          "type": "uint256"
        }
      ],
      "name": "CreateOption",
      "type": "event"
    },
    {
      "anonymous": false,
      "inputs": [
        {
          "indexed": true,
          "name": "owner",
          "type": "address"
        },
        {
          "indexed": true,
          "name": "optionID",
          "type": "uint256"
        },
        {
          "indexed": false,
          "name": "amount",
          "type": "uint256"
        }
      ],
      "name": "BurnOption",
      "type": "event"
    },
    {
      "anonymous": false,
      "inputs": [
        {
          "indexed": false,
          "name": "value1",
          "type": "uint256"
        },
        {
          "indexed": false,
          "name": "value2",
          "type": "uint256"
        },
        {
          "indexed": false,
          "name": "value3",
          "type": "uint256"
        }
      ],
      "name": "DebugEvent",
      "type": "event"
    },
    {
      "anonymous": false,
      "inputs": [
        {
          "indexed": true,
          "name": "previousOwner",
          "type": "address"
        },
        {
          "indexed": true,
          "name": "newOwner",
          "type": "address"
        }
      ],
      "name": "OwnershipTransferred",
      "type": "event"
    },
    {
      "constant": true,
      "inputs": [
        {
          "name": "whiteList",
          "type": "address[]"
        }
      ],
      "name": "getNetWrothCalInfo",
      "outputs": [
        {
          "name": "",
          "type": "uint256"
        },
        {
          "name": "",
          "type": "int256[]"
        }
      ],
      "payable": false,
      "stateMutability": "view",
      "type": "function"
    },
    {
      "constant": true,
      "inputs": [
        {
          "name": "settlement",
          "type": "address"
        }
      ],
      "name": "getNetWrothLatestWorth",
      "outputs": [
        {
          "name": "",
          "type": "int256"
        }
      ],
      "payable": false,
      "stateMutability": "view",
      "type": "function"
    },
    {
      "constant": false,
      "inputs": [
        {
          "name": "newFirstOption",
          "type": "uint256"
        },
        {
          "name": "latestNetWorth",
          "type": "int256[]"
        },
        {
          "name": "whiteList",
          "type": "address[]"
        }
      ],
      "name": "setSharedState",
      "outputs": [],
      "payable": false,
      "stateMutability": "nonpayable",
      "type": "function"
    },
    {
      "constant": true,
      "inputs": [
        {
          "name": "lastOption",
          "type": "uint256"
        },
        {
          "name": "begin",
          "type": "uint256"
        },
        {
          "name": "end",
          "type": "uint256"
        },
        {
          "name": "whiteList",
          "type": "address[]"
        }
      ],
      "name": "calRangeSharedPayment",
      "outputs": [
        {
          "name": "",
          "type": "int256[]"
        },
        {
          "name": "",
          "type": "uint256[]"
        },
        {
          "name": "",
          "type": "uint256"
        }
      ],
      "payable": false,
      "stateMutability": "view",
      "type": "function"
    },
    {
      "constant": true,
      "inputs": [
        {
          "name": "lastOption",
          "type": "uint256"
        },
        {
          "name": "begin",
          "type": "uint256"
        },
        {
          "name": "end",
          "type": "uint256"
        },
        {
          "name": "whiteList",
          "type": "address[]"
        }
      ],
      "name": "calculatePhaseOptionsFall",
      "outputs": [
        {
          "name": "",
          "type": "int256[]"
        }
      ],
      "payable": false,
      "stateMutability": "view",
      "type": "function"
    }
  ],
  "bytecode": "0x60806040819052610e1060095560008054600160a060020a0319163317808255600160a060020a0316917f8be0079c531659141344cd1fd0a4f28419497f9722a3daafe3b4186f6b6457e0908290a36040805160e0810182526201518081526203f480602082015262093a8091810191909152620d2f0060608201526213c680608082015262278d0060a08201526276a70060c0820152620000a6906008906007620000d2565b50604080518082019091526001808252600260208301819052620000cb929062000129565b506200021c565b82805482825590600052602060002090810192821562000117579160200282015b8281111562000117578251829062ffffff16905591602001919060010190620000f3565b5062000125929150620001d8565b5090565b82805482825590600052602060002090600701600890048101928215620001ca5791602002820160005b838211156200019657835183826101000a81548163ffffffff021916908360ff160217905550926020019260040160208160030104928301926001030262000153565b8015620001c85782816101000a81549063ffffffff021916905560040160208160030104928301926001030262000196565b505b5062000125929150620001f8565b620001f591905b80821115620001255760008155600101620001df565b90565b620001f591905b808211156200012557805463ffffffff19168155600101620001ff565b613a45806200022c6000396000f30060806040526004361061022c5763ffffffff60e060020a6000350416630438d490811461023157806309057622146103b45780630c372571146103e257806312039cc2146104205780632415e010146104405780632967eafe146104d357806332ab5c20146104f4578063354af360146105f85780633582d7891461064d5780633ad2fb57146106b257806342e5479d146106d357806343674c3a1461070457806348ee201d146107685780634c69c00f146107c7578063597ce900146107e85780635ca4b73b1461082657806364ed30171461083b57806367b8ceb9146108625780636a43c05e1461087d5780636d84e2e31461092d578063715018a614610945578063723931ca1461095a57806373a3d424146109725780637cfff2d8146109875780637e1bcb761461099f5780637e838fa3146109c05780638da5cb5b146109ec5780638f32d59b14610a015780639052d5f814610a165780639870d7fe14610a2b5780639ef975d214610a4c578063a093e2d014610a64578063ac8a584a14610a85578063afec82fc14610aa6578063b18b78dd14610ac4578063bec3107f14610ad9578063c5acbe1514610aee578063d0ebdbe714610b06578063d500958414610b27578063d6d1401214610b3c578063db6ad2bd14610b5a578063e7a1c1c014610b78578063e7c5681514610b9c578063e7f43c6814610bbd578063ee29c94a14610bd2578063f2fde38b14610bf0578063f504e2f014610c11578063f7de192314610c26575b600080fd5b34801561023d57600080fd5b5061024c600435602435610c4d565b60405180806020018060200180602001806020018060200186810386528b818151815260200191508051906020019060200280838360005b8381101561029c578181015183820152602001610284565b5050505090500186810385528a818151815260200191508051906020019060200280838360005b838110156102db5781810151838201526020016102c3565b50505050905001868103845289818151815260200191508051906020019060200280838360005b8381101561031a578181015183820152602001610302565b50505050905001868103835288818151815260200191508051906020019060200280838360005b83811015610359578181015183820152602001610341565b50505050905001868103825287818151815260200191508051906020019060200280838360005b83811015610398578181015183820152602001610380565b505050509050019a505050505050505050505060405180910390f35b3480156103c057600080fd5b506103c9610e97565b6040805192835260208301919091528051918290030190f35b3480156103ee57600080fd5b50610400600435602435604435610ea1565b604080519384526020840192909252151582820152519081900360600190f35b34801561042c57600080fd5b5061043e600435602435604435610f1c565b005b34801561044c57600080fd5b5060408051602060046024803582810135848102808701860190975280865261043e96843596369660449591949091019291829185019084908082843750506040805187358901803560208181028481018201909552818452989b9a998901989297509082019550935083925085019084908082843750949750610ff39650505050505050565b3480156104df57600080fd5b5061043e600160a060020a0360043516611101565b34801561050057600080fd5b50604080516064356004818101356020818102858101820190965281855261055895833595602480359660443596369690956084959290930192909182918501908490808284375094975061116f9650505050505050565b604051808060200180602001848152602001838103835286818151815260200191508051906020019060200280838360005b838110156105a257818101518382015260200161058a565b50505050905001838103825285818151815260200191508051906020019060200280838360005b838110156105e15781810151838201526020016105c9565b505050509050019550505050505060405180910390f35b34801561060457600080fd5b506040805160206004803580820135838102808601850190965280855261024c953695939460249493850192918291850190849080828437509497506112789650505050505050565b34801561065957600080fd5b50610662611491565b60408051602080825283518183015283519192839290830191858101910280838360005b8381101561069e578181015183820152602001610686565b505050509050019250505060405180910390f35b3480156106be57600080fd5b5061043e60043563ffffffff60243516611516565b3480156106df57600080fd5b506106e8611582565b60408051600160a060020a039092168252519081900360200190f35b34801561071057600080fd5b5060408051606435600481810135602081810285810182019096528185526106629583359560248035966044359636969095608495929093019290918291850190849080828437509497506115919650505050505050565b34801561077457600080fd5b5061078060043561171b565b60408051978852600160a060020a03909616602088015260ff9094168686015263ffffffff9092166060860152608085015260a084015260c0830152519081900360e00190f35b3480156107d357600080fd5b5061043e600160a060020a036004351661178f565b3480156107f457600080fd5b506108036004356024356117fd565b60408051600160a060020a03909316835260208301919091528051918290030190f35b34801561083257600080fd5b506106e861186d565b34801561084757600080fd5b5061085061187c565b60408051918252519081900360200190f35b34801561086e57600080fd5b50610850600435602435611882565b34801561088957600080fd5b50604080516020600480358082013583810280860185019096528085526108d295369593946024949385019291829185019084908082843750949750611a029650505050505050565b6040518083815260200180602001828103825283818151815260200191508051906020019060200280838360005b83811015610918578181015183820152602001610900565b50505050905001935050505060405180910390f35b34801561093957600080fd5b50610850600435611ab5565b34801561095157600080fd5b5061043e611b3c565b34801561096657600080fd5b5061043e600435611bd2565b34801561097e57600080fd5b50610850611c5a565b34801561099357600080fd5b5061043e600435611cac565b3480156109ab57600080fd5b50610850600160a060020a0360043516611d03565b3480156109cc57600080fd5b506109d8600435611d1e565b604080519115158252519081900360200190f35b3480156109f857600080fd5b506106e8611d7d565b348015610a0d57600080fd5b506109d8611d8c565b348015610a2257600080fd5b50610662611d9d565b348015610a3757600080fd5b5061043e600160a060020a0360043516611df4565b348015610a5857600080fd5b506109d8600435611e4b565b348015610a7057600080fd5b5061043e600160a060020a0360043516611ea7565b348015610a9157600080fd5b506109d8600160a060020a0360043516611f15565b348015610ab257600080fd5b5061043e63ffffffff60043516611f6e565b348015610ad057600080fd5b506106e8611fc5565b348015610ae557600080fd5b50610850611fd4565b348015610afa57600080fd5b5061043e600435611fda565b348015610b1257600080fd5b5061043e600160a060020a036004351661202b565b348015610b3357600080fd5b506106e8612099565b348015610b4857600080fd5b506109d863ffffffff600435166120a8565b348015610b6657600080fd5b506109d863ffffffff60043516612101565b348015610b8457600080fd5b5061043e600435600160a060020a0360243516612189565b348015610ba857600080fd5b50610662600160a060020a0360043516612217565b348015610bc957600080fd5b50610662612283565b348015610bde57600080fd5b5061043e63ffffffff600435166122e4565b348015610bfc57600080fd5b5061043e600160a060020a036004351661236a565b348015610c1d57600080fd5b5061043e6123bf565b348015610c3257600080fd5b50610662600160a060020a03600435166024356044356124b4565b6060806060806060806060806060806000806005805490508d8f011115610c8457600554610c81908f63ffffffff61259b16565b9c505b60008d1115610e86578c604051908082528060200260200182016040528015610cb7578160200160208202803883390190505b5096508c604051908082528060200260200182016040528015610ce4578160200160208202803883390190505b5095508c604051908082528060200260200182016040528015610d11578160200160208202803883390190505b5094508c604051908082528060200260200182016040528015610d3e578160200160208202803883390190505b5093508c604051908082528060200260200182016040528015610d6b578160200160208202803883390190505b509250600091505b8c821015610e7657600580548f8401908110610d8b57fe5b906000526020600020906005020190508060000160089054906101000a9004600160a060020a03168783815181101515610dc157fe5b600160a060020a03929092166020928302919091019091015280546001820154875160e060020a90920460ff1663ffffffff9182166201000002011690879084908110610e0a57fe5b6020908102909101015260028101548551869084908110610e2757fe5b6020908102909101015260038101548451859084908110610e4457fe5b6020908102909101015260048101548351849084908110610e6157fe5b60209081029091010152600190910190610d73565b86868686869b509b509b509b509b505b505050505050509295509295909350565b600b54600d549091565b6000806000806000600b54871015610eb957600b5496505b878710610ecf5760009450849350839250610f11565b87861115610edf57879550610ef8565b600b54861015610ef85760009450849350839250610f11565b610f0287876125e4565b91509150818160019450945094505b505093509350939050565b600a5460009081108015610f535750600a805433919083908110610f3c57fe5b600091825260209091200154600160a060020a0316145b1515610fcf576040805160e560020a62461bcd02815260206004820152603060248201527f4d616e6167657261626c653a2063616c6c6572206973206e6f7420746865206560448201527f6c696769626c65204f70657261746f7200000000000000000000000000000000606482015290519081900360840190fd5b600b54831115610fdf57600b8390555b50600c9290925550600d8054919091039055565b6002546000908190600160a060020a03163314611080576040805160e560020a62461bcd02815260206004820152602660248201527f4d616e6167657261626c653a2063616c6c6572206973206e6f7420746865204d60448201527f616e616765720000000000000000000000000000000000000000000000000000606482015290519081900360840190fd5b600f5485111561109057600f8590555b5050805160005b818110156110fa5783818151811015156110ad57fe5b906020019060200201516010600085848151811015156110c957fe5b6020908102909101810151600160a060020a0316825281019190915260400160002080549091019055600101611097565b5050505050565b611109611d8c565b151561114d576040805160e560020a62461bcd02815260206004820181905260248201526000805160206139fa833981519152604482015290519081900360640190fd5b60048054600160a060020a031916600160a060020a0392909216919091179055565b6060806000606060006060898910158061118a5750600f5488105b156111f55786516040519080825280602002602001820160405280156111ba578160200160208202803883390190505b5087516040519080825280602002602001820160405280156111e6578160200160208202803883390190505b5090965094506000935061126b565b89881115611201578997505b61120c898989612722565b925092508189101561123357611223898389612892565b905080838395509550955061126b565b865160405190808252806020026020018201604052801561125e578160200160208202803883390190505b5083838292509550955095505b5050509450945094915050565b6060806060806060600060608060608060606000808d519750876040519080825280602002602001820160405280156112bb578160200160208202803883390190505b509650876040519080825280602002602001820160405280156112e8578160200160208202803883390190505b50955087604051908082528060200260200182016040528015611315578160200160208202803883390190505b50945087604051908082528060200260200182016040528015611342578160200160208202803883390190505b5093508760405190808252806020026020018201604052801561136f578160200160208202803883390190505b509250600091505b8782101561147d5761139f8e8381518110151561139057fe5b9060200190602002015161299a565b80548851919250680100000000000000009004600160a060020a0316908890849081106113c857fe5b600160a060020a03929092166020928302919091019091015280546001820154875160e060020a90920460ff1663ffffffff918216620100000201169087908490811061141157fe5b602090810290910101526002810154855186908490811061142e57fe5b602090810290910101526003810154845185908490811061144b57fe5b602090810290910101526004810154835184908490811061146857fe5b60209081029091010152600190910190611377565b50949c939b50919950975095509350505050565b6060600180548060200260200160405190810160405280929190818152602001828054801561150b57602002820191906000526020600020906000905b82829054906101000a900463ffffffff1663ffffffff16815260200190600401906020826003010492830192600103820291508084116114ce5790505b505050505090505b90565b61151f81612101565b1515611575576040805160e560020a62461bcd02815260206004820152601f60248201527f756e6465726c79696e6720697320756e737570706f7274656420617373657400604482015290519081900360640190fd5b61157e82611bd2565b5050565b600454600160a060020a031690565b606080606060008088881015806115a95750600f5487105b156115e15785516040519080825280602002602001820160405280156115d9578160200160208202803883390190505b50945061170f565b888711156115ed578896505b600f5488116115fc57600f5497505b611604612a2a565b935061161288888887612b4b565b925085519150600090505b8181101561170b576003548651600160a060020a03909116906341976e099088908490811061164857fe5b906020019060200201516040518263ffffffff1660e060020a0281526004018082600160a060020a0316600160a060020a03168152602001915050602060405180830381600087803b15801561169d57600080fd5b505af11580156116b1573d6000803e3d6000fd5b505050506040513d60208110156116c757600080fd5b505183518490839081106116d757fe5b906020019060200201518115156116ea57fe5b0583828151811015156116f957fe5b6020908102909101015260010161161d565b8294505b50505050949350505050565b6000806000806000806000806117308961299a565b805460018201546002830154600384015460049094015467ffffffffffffffff84169e680100000000000000008504600160a060020a03169e5060e060020a90940460ff169c5063ffffffff9092169a50985091965090945092505050565b611797611d8c565b15156117db576040805160e560020a62461bcd02815260206004820181905260248201526000805160206139fa833981519152604482015290519081900360640190fd5b60038054600160a060020a031916600160a060020a0392909216919091179055565b60001982016000908152600660205260408120600181015460028201546004830154849392600160a060020a031691670de0b6b3a76400009161185791889161184b9163ffffffff612cf316565b9063ffffffff612cf316565b81151561186057fe5b0492509250509250929050565b600e54600160a060020a031690565b60095490565b600061188c61394a565b6000806118988661299a565b6040805160e081018252825467ffffffffffffffff81168252680100000000000000008104600160a060020a0316602083015260e060020a900460ff1691810191909152600182015463ffffffff16606082015260028201546080820152600382015460a082015260049091015460c0820152925061191683612d92565b6119208386612ded565b6003546060840151604080517fda66325700000000000000000000000000000000000000000000000000000000815263ffffffff909216600483015251600160a060020a039092169163da663257916024808201926020929091908290030181600087803b15801561199157600080fd5b505af11580156119a5573d6000803e3d6000fd5b505050506040513d60208110156119bb57600080fd5b5051604084015160a08501519193506119d49184612e49565b90508015156119e657600093506119f9565b6119f6818663ffffffff612cf316565b93505b50505092915050565b600060606000606060008551925082604051908082528060200260200182016040528015611a3a578160200160208202803883390190505b509150600090505b82811015611aa757601060008783815181101515611a5c57fe5b90602001906020020151600160a060020a0316600160a060020a03168152602001908152602001600020548282815181101515611a9557fe5b60209081029091010152600101611a42565b50600f549590945092505050565b60008082118015611ac857506005548211155b1515611b1e576040805160e560020a62461bcd02815260206004820152601660248201527f6f7074696f6e206964206973206e6f7420657869737400000000000000000000604482015290519081900360640190fd5b50600954600019820160009081526006602052604090205401919050565b611b44611d8c565b1515611b88576040805160e560020a62461bcd02815260206004820181905260248201526000805160206139fa833981519152604482015290519081900360640190fd5b60008054604051600160a060020a03909116907f8be0079c531659141344cd1fd0a4f28419497f9722a3daafe3b4186f6b6457e0908390a360008054600160a060020a0319169055565b611bdb81611e4b565b1515611c57576040805160e560020a62461bcd02815260206004820152602160248201527f65787069726174696f6e2076616c7565206973206e6f7420737570706f72746560448201527f6400000000000000000000000000000000000000000000000000000000000000606482015290519081900360840190fd5b50565b6000806000600d54121515611c8557600d54600c54611c7e9163ffffffff612e7e16565b9150611ca8565b600d54600003905080600c541115611ca35780600c54039150611ca8565b600091505b5090565b611cb4611d8c565b1515611cf8576040805160e560020a62461bcd02815260206004820181905260248201526000805160206139fa833981519152604482015290519081900360640190fd5b611c57600882612edb565b600160a060020a031660009081526010602052604090205490565b6000611d28611d8c565b1515611d6c576040805160e560020a62461bcd02815260206004820181905260248201526000805160206139fa833981519152604482015290519081900360640190fd5b611d77600883612f52565b92915050565b600054600160a060020a031690565b600054600160a060020a0316331490565b6060600880548060200260200160405190810160405280929190818152602001828054801561150b57602002820191906000526020600020905b815481526020019060010190808311611dd7575050505050905090565b611dfc611d8c565b1515611e40576040805160e560020a62461bcd02815260206004820181905260248201526000805160206139fa833981519152604482015290519081900360640190fd5b611c57600a82612fff565b6000611d776008805480602002602001604051908101604052809291908181526020018280548015611e9c57602002820191906000526020600020905b815481526020019060010190808311611e88575b505050505083613099565b611eaf611d8c565b1515611ef3576040805160e560020a62461bcd02815260206004820181905260248201526000805160206139fa833981519152604482015290519081900360640190fd5b600e8054600160a060020a031916600160a060020a0392909216919091179055565b6000611f1f611d8c565b1515611f63576040805160e560020a62461bcd02815260206004820181905260248201526000805160206139fa833981519152604482015290519081900360640190fd5b611d77600a836130d8565b611f76611d8c565b1515611fba576040805160e560020a62461bcd02815260206004820181905260248201526000805160206139fa833981519152604482015290519081900360640190fd5b611c576001826131af565b600354600160a060020a031690565b60055490565b611fe2611d8c565b1515612026576040805160e560020a62461bcd02815260206004820181905260248201526000805160206139fa833981519152604482015290519081900360640190fd5b600955565b612033611d8c565b1515612077576040805160e560020a62461bcd02815260206004820181905260248201526000805160206139fa833981519152604482015290519081900360640190fd5b60028054600160a060020a031916600160a060020a0392909216919091179055565b600254600160a060020a031690565b60006120b2611d8c565b15156120f6576040805160e560020a62461bcd02815260206004820181905260248201526000805160206139fa833981519152604482015290519081900360640190fd5b611d77600183613278565b6000611d77600180548060200260200160405190810160405280929190818152602001828054801561217e57602002820191906000526020600020906000905b82829054906101000a900463ffffffff1663ffffffff16815260200190600401906020826003010492830192600103820291508084116121415790505b50505050508361336f565b612191611d8c565b15156121d5576040805160e560020a62461bcd02815260206004820181905260248201526000805160206139fa833981519152604482015290519081900360640190fd5b80600a838154811015156121e557fe5b9060005260206000200160006101000a815481600160a060020a030219169083600160a060020a031602179055505050565b600160a060020a03811660009081526007602090815260409182902080548351818402810184019094528084526060939283018282801561227757602002820191906000526020600020905b815481526020019060010190808311612263575b50505050509050919050565b6060600a80548060200260200160405190810160405280929190818152602001828054801561150b57602002820191906000526020600020905b8154600160a060020a031681526001909101906020018083116122bd575050505050905090565b611c57600180548060200260200160405190810160405280929190818152602001828054801561235f57602002820191906000526020600020906000905b82829054906101000a900463ffffffff1663ffffffff16815260200190600401906020826003010492830192600103820291508084116123225790505b5050505050826133ba565b612372611d8c565b15156123b6576040805160e560020a62461bcd02815260206004820181905260248201526000805160206139fa833981519152604482015290519081900360640190fd5b611c578161341a565b60008060008060008080600a805490501180156123ff5750600a8054339190839081106123e857fe5b600091825260209091200154600160a060020a0316145b151561247b576040805160e560020a62461bcd02815260206004820152603060248201527f4d616e6167657261626c653a2063616c6c6572206973206e6f7420746865206560448201527f6c696769626c65204f70657261746f7200000000000000000000000000000000606482015290519081900360840190fd5b600d549550600580549050945061249585600b5487610ea1565b93509350935081156124ac576124ac848488610f1c565b505050505050565b6060806000836040519080825280602002602001820160405280156124e3578160200160208202803883390190505b50600160a060020a038716600090815260076020526040902054909250858501111561253557600160a060020a038616600090815260076020526040902054612532908663ffffffff61259b16565b93505b5060005b8381101561259257600160a060020a0386166000908152600760205260409020805486830190811061256757fe5b9060005260206000200154828281518110151561258057fe5b60209081029091010152600101612539565b50949350505050565b60006125dd83836040805190810160405280601e81526020017f536166654d6174683a207375627472616374696f6e206f766572666c6f7700008152506134fb565b9392505050565b6000806000606060008060006125fd89600b548a613598565b909950945061260a612a2a565b9350600092505b878910156127135761264a60058a81548110151561262b57fe5b600091825260209091206001600590920201015463ffffffff16613619565b915061270260058a81548110151561265e57fe5b60009182526020918290206040805160e081018252600593909302909101805467ffffffffffffffff81168452680100000000000000008104600160a060020a03169484019490945260e060020a90930460ff1690820152600182015463ffffffff16606082015260028201546080820152600382015460a082015260049091015460c082015285518690859081106126f357fe5b906020019060200201516136a1565b600190990198928301929050612611565b50909792965091945050505050565b6060600060606000806000806000885160405190808252806020026020018201604052801561275b578160200160208202803883390190505b50955061276b8b600f548c613598565b909b5094505b898b101561288157600580548c90811061278757fe5b90600052602060002090600502019350600660008c815260200190815260200160002092506127df8360030154856003015486600201548660050154876006015489600001601c9054906101000a900460ff166136e2565b9150826004015482101561287657600483015460018401549290039161280f908a90600160a060020a03166137ba565b9050670de0b6b3a7640000612837856004015484028560020154612cf390919063ffffffff16565b81151561284057fe5b04915081868281518110151561285257fe5b9060200190602002015101868281518110151561286b57fe5b602090810290910101525b6001909a0199612771565b509399929850919650505050505050565b60608060008060008086516040519080825280602002602001820160405280156128c6578160200160208202803883390190505b5094505b8789101561298d57600580548a9081106128e057fe5b906000526020600020906005020193506000846004015411156129825760008981526006602052604090206001810154909350612927908890600160a060020a03166137ba565b9150670de0b6b3a7640000846004015484600201548560040154020281151561294c57fe5b04905080858381518110151561295e57fe5b9060200190602002015101858381518110151561297757fe5b602090810290910101525b6001909801976128ca565b5092979650505050505050565b600080821180156129ad57506005548211155b1515612a03576040805160e560020a62461bcd02815260206004820152601660248201527f6f7074696f6e206964206973206e6f7420657869737400000000000000000000604482015290519081900360640190fd5b600580546000198401908110612a1557fe5b90600052602060002090600502019050919050565b600154604080518281526020808402820101909152606091908290600090838015612a5f578160200160208202803883390190505b509150600090505b82811015612b445760035460018054600160a060020a039092169163da663257919084908110612a9357fe5b90600052602060002090600891828204019190066004029054906101000a900463ffffffff166040518263ffffffff1660e060020a028152600401808263ffffffff168152602001915050602060405180830381600087803b158015612af857600080fd5b505af1158015612b0c573d6000803e3d6000fd5b505050506040513d6020811015612b2257600080fd5b50518251839083908110612b3257fe5b60209081029091010152600101612a67565b5092915050565b6060806000806000808751604051908082528060200260200182016040528015612b7f578160200160208202803883390190505b5094505b888a1015612ce557600580548b908110612b9957fe5b906000526020600020906005020193504284600201541080612bbd57506004840154155b15612bc757612cda565b6001840154612bdb9063ffffffff16613619565b6040805160e081018252865467ffffffffffffffff81168252680100000000000000008104600160a060020a0316602083015260e060020a900460ff1691810191909152600186015463ffffffff16606082015260028601546080820152600386015460a0820152600486015460c082018190528951929350612c73928a9085908110612c6457fe5b90602001906020020151613807565b92508215612cda5760008a81526006602052604090206001810154909250612ca5908990600160a060020a03166137ba565b9050828582815181101515612cb657fe5b90602001906020020151038582815181101515612ccf57fe5b602090810290910101525b600190990198612b83565b509298975050505050505050565b600080831515612d065760009150612b44565b50828202828482811515612d1657fe5b04146125dd576040805160e560020a62461bcd02815260206004820152602160248201527f536166654d6174683a206d756c7469706c69636174696f6e206f766572666c6f60448201527f7700000000000000000000000000000000000000000000000000000000000000606482015290519081900360840190fd5b60808101514210611c57576040805160e560020a62461bcd02815260206004820152601160248201527f6f7074696f6e2069732065787069726564000000000000000000000000000000604482015290519081900360640190fd5b60c082015181111561157e576040805160e560020a62461bcd02815260206004820152601d60248201527f6f7074696f6e20616d6f756e7420697320696e73756666696369656e74000000604482015290519081900360640190fd5b600060ff8416158284111415612e61575060006125dd565b60ff841615612e7257818303612e76565b8282035b949350505050565b6000828201838110156125dd576040805160e560020a62461bcd02815260206004820152601b60248201527f536166654d6174683a206164646974696f6e206f766572666c6f770000000000604482015290519081900360640190fd5b612f3482805480602002602001604051908101604052809291908181526020018280548015612f2957602002820191906000526020600020905b815481526020019060010190808311612f15575b505050505082613099565b151561157e5781546001810183556000928352602090922090910155565b8154600090815b81811015612f8e57838582815481101515612f7057fe5b90600052602060002001541415612f8657612f8e565b600101612f59565b81811015612ff25760001982018114612fd8578460018303815481101515612fb257fe5b90600052602060002001548582815481101515612fcb57fe5b6000918252602090912001555b8454612fe8866000198301613986565b5060019250612ff7565b600092505b505092915050565b6130628280548060200260200160405190810160405280929190818152602001828054801561305757602002820191906000526020600020905b8154600160a060020a03168152600190910190602001808311613039575b505050505082613894565b151561157e578154600181018355600083815260209020018054600160a060020a038316600160a060020a03199091161790555050565b8151600090815b81811015612ff2578385828151811015156130b757fe5b9060200190602002015114156130d05760019250612ff7565b6001016130a0565b8154600090815b818110156131275783600160a060020a031685828154811015156130ff57fe5b600091825260209091200154600160a060020a0316141561311f57613127565b6001016130df565b81811015612ff25760001982018114612fd857846001830381548110151561314b57fe5b6000918252602090912001548554600160a060020a039091169086908390811061317157fe5b9060005260206000200160006101000a815481600160a060020a030219169083600160a060020a031602179055508454612fe8866000198301613986565b6132348280548060200260200160405190810160405280929190818152602001828054801561322957602002820191906000526020600020906000905b82829054906101000a900463ffffffff1663ffffffff16815260200190600401906020826003010492830192600103820291508084116131ec5790505b50505050508261336f565b151561157e578154600181018355600092835260209092206008830401805460079093166004026101000a63ffffffff818102199094169290931692909202179055565b8154600090815b818110156132d3578363ffffffff16858281548110151561329c57fe5b6000918252602090912060088204015460079091166004026101000a900463ffffffff1614156132cb576132d3565b60010161327f565b81811015612ff2576000198201811461335f5784600183038154811015156132f757fe5b90600052602060002090600891828204019190066004029054906101000a900463ffffffff16858281548110151561332b57fe5b90600052602060002090600891828204019190066004026101000a81548163ffffffff021916908363ffffffff1602179055505b8454612fe88660001983016139af565b8151600090815b81811015612ff2578363ffffffff16858281518110151561339357fe5b9060200190602002015163ffffffff1614156133b25760019250612ff7565b600101613376565b6133c4828261336f565b151561157e576040805160e560020a62461bcd02815260206004820152601f60248201527f77686974654c6973743a207573696e6720696e76616c69642075696e74333200604482015290519081900360640190fd5b600160a060020a03811615156134a0576040805160e560020a62461bcd02815260206004820152602660248201527f4f776e61626c653a206e6577206f776e657220697320746865207a65726f206160448201527f6464726573730000000000000000000000000000000000000000000000000000606482015290519081900360840190fd5b60008054604051600160a060020a03808516939216917f8be0079c531659141344cd1fd0a4f28419497f9722a3daafe3b4186f6b6457e091a360008054600160a060020a031916600160a060020a0392909216919091179055565b600080828585111561358e5760405160e560020a62461bcd0281526004018080602001828103825283818151815260200191508051906020019080838360005b8381101561355357818101518382015260200161353b565b50505050905090810190601f1680156135805780820380516001836020036101000a031916815260200191505b509250505060405180910390fd5b5050509103919050565b6000808381818711156135b05786829350935061360f565b8196505b848710156136085760058054889081106135ca57fe5b9060005260206000209060050201905042816002015410806135ee57506004810154155b156135f8576135fd565b613608565b6001909601956135b4565b8687935093505b5050935093915050565b6000611d77600180548060200260200160405190810160405280929190818152602001828054801561369657602002820191906000526020600020906000905b82829054906101000a900463ffffffff1663ffffffff16815260200190600401906020826003010492830192600103820291508084116136595790505b5050505050836138e5565b6000804284608001511115806136b9575060c0840151155b156136c75760009150612b44565b612e768460c0015161184b86604001518760a001518761392c565b6000428511156137ac57600e54604080517f055ef6ab000000000000000000000000000000000000000000000000000000008152600481018a9052602481018990524288036044820152606481018790526084810186905260ff851660a48201529051600160a060020a039092169163055ef6ab9160c4808201926020929091908290030181600087803b15801561377957600080fd5b505af115801561378d573d6000803e3d6000fd5b505050506040513d60208110156137a357600080fd5b505190506137b0565b5060005b9695505050505050565b8151600090815b81811015612e765783600160a060020a031685828151811015156137e157fe5b90602001906020020151600160a060020a031614156137ff57612e76565b6001016137c1565b60008060008042876080015111158061381e575085155b1561382c576000935061388a565b8561384088604001518960a0015188612e49565b02925060066000600189600001510367ffffffffffffffff16815260200190815260200160002091508561388188604001518960a001518560030154612e49565b02905080830393505b5050509392505050565b8151600090815b81811015612ff25783600160a060020a031685828151811015156138bb57fe5b90602001906020020151600160a060020a031614156138dd5760019250612ff7565b60010161389b565b8151600090815b81811015612e76578363ffffffff16858281518110151561390957fe5b9060200190602002015163ffffffff16141561392457612e76565b6001016138ec565b600060ff84161582841114156139435750816125dd565b50806125dd565b6040805160e081018252600080825260208201819052918101829052606081018290526080810182905260a0810182905260c081019190915290565b8154818355818111156139aa576000838152602090206139aa9181019083016139df565b505050565b8154818355818111156139aa5760070160089004816007016008900483600052602060002091820191016139aa91905b61151391905b80821115611ca857600081556001016139e556004f776e61626c653a2063616c6c6572206973206e6f7420746865206f776e6572a165627a7a7230582008944237099eb3adeac362345d21fe9b6315ac68cf9570d9ead089e21f4a208b0029",
  "source": "pragma solidity ^0.4.26;\r\nimport \"./OptionsBase.sol\";\r\nimport \"./modules/tuple.sol\";\r\nimport \"./OptionsOccupiedCal.sol\";\r\nimport \"./interfaces/IOptionsPrice.sol\";\r\nimport \"./modules/SafeInt256.sol\";\r\ncontract OptionsNetWorthCal is OptionsOccupiedCal,ImportOptionsPrice {\r\n\r\n    uint256 private firstOption;    //firstOption,lastOption,lastBurn\r\n    mapping(address=>int256) private optionsLatestNetWorth;\r\n    using SafeInt256 for int256;\r\n    \r\n    function getNetWrothCalInfo(address[] memory whiteList)public view returns(uint256,int256[]){\r\n        uint256 len = whiteList.length;\r\n        int256[] memory latestNetWorth = new int256[](len);\r\n            for (uint256 i = 0;i<len;i++){\r\n            latestNetWorth[i] = optionsLatestNetWorth[whiteList[i]];\r\n        }\r\n        return (firstOption,latestNetWorth);\r\n    }\r\n    function getNetWrothLatestWorth(address settlement)public view returns(int256){\r\n        return optionsLatestNetWorth[settlement];\r\n    }\r\n    function setSharedState(uint256 newFirstOption,int256[] latestNetWorth,address[] memory whiteList) public onlyManager{\r\n        if (newFirstOption > firstOption){\r\n            firstOption = newFirstOption;\r\n        }\r\n        uint256 len = whiteList.length;\r\n        for (uint256 i = 0;i<len;i++){\r\n            optionsLatestNetWorth[whiteList[i]] += latestNetWorth[i];\r\n        }\r\n    }\r\n    function calRangeSharedPayment(uint256 lastOption,uint256 begin,uint256 end,address[] memory whiteList)\r\n            public view returns(int256[],uint256[],uint256){\r\n        if (begin>=lastOption || end < firstOption){\r\n            return(new int256[](whiteList.length),new uint256[](whiteList.length),0);\r\n        }\r\n        if (end>lastOption) {\r\n            end = lastOption;\r\n        }\r\n        (uint256[] memory sharedBalances,uint256 _firstOption) = _calculateSharedPayment(begin,end,whiteList);\r\n        if (begin < _firstOption){\r\n            int256[] memory newNetworth = calculateExpiredPayment(begin,_firstOption,whiteList);\r\n            return (newNetworth,sharedBalances,_firstOption);\r\n        }\r\n        \r\n        return (new int256[](whiteList.length),sharedBalances,_firstOption);\r\n    }\r\n    function _calculateSharedPayment(uint256 begin,uint256 end,address[] memory whiteList)\r\n            internal view returns(uint256[],uint256){\r\n        uint256[] memory totalSharedPayment = new uint256[](whiteList.length);\r\n        uint256 newFirstOption;\r\n        (begin,newFirstOption) = getFirstOption(begin,firstOption,end); \r\n        for (;begin<end;begin++){\r\n            OptionsInfo storage info = allOptions[begin];\r\n            OptionsInfoEx storage optionEx = optionExtraMap[begin];\r\n            uint256 timeValue = _calculateCurrentPrice(optionEx.underlyingPrice,info.strikePrice,info.expiration,\r\n                optionEx.ivNumerator,optionEx.ivDenominator,info.optType);\r\n            if (timeValue<optionEx.fullPrice){\r\n                timeValue = optionEx.fullPrice - timeValue;\r\n                uint256 index = whiteListAddress._getEligibleIndexAddress(whiteList,optionEx.settlement);\r\n                timeValue = optionEx.tokenTimePrice.mul(timeValue*info.amount)/calDecimals;\r\n                totalSharedPayment[index] = totalSharedPayment[index]+timeValue;\r\n            }\r\n        }\r\n        return (totalSharedPayment,newFirstOption);\r\n    }\r\n    function calculateExpiredPayment(uint256 begin,uint256 end,address[] memory whiteList)internal view returns(int256[]){\r\n        int256[] memory totalExpiredPayment = new int256[](whiteList.length);\r\n        for (;begin<end;begin++){\r\n            OptionsInfo storage info = allOptions[begin];\r\n            if (info.amount>0){\r\n                OptionsInfoEx storage optionEx = optionExtraMap[begin];\r\n                uint256 index = whiteListAddress._getEligibleIndexAddress(whiteList,optionEx.settlement);\r\n                uint256 timeValue = optionEx.fullPrice*optionEx.tokenTimePrice*info.amount/calDecimals;\r\n                totalExpiredPayment[index] = totalExpiredPayment[index]+int256(timeValue);\r\n            }\r\n        }\r\n        return totalExpiredPayment;\r\n    }\r\n    function calculatePhaseOptionsFall(uint256 lastOption,uint256 begin,uint256 end,address[] memory whiteList) public view returns(int256[]){\r\n        if (begin>=lastOption || end < firstOption){\r\n            return new int256[](whiteList.length);\r\n        }\r\n        if (end>lastOption) {\r\n            end = lastOption;\r\n        }\r\n        if (begin <= firstOption) {\r\n            begin = firstOption;\r\n        }\r\n        uint256[] memory prices = getUnderlyingPrices();\r\n        int256[] memory OptionsFallBalances = _calRangeOptionsFall(begin,end,whiteList,prices);\r\n        uint256 whiteListLen = whiteList.length;\r\n        for (uint256 index = 0;index<whiteListLen;index++){\r\n            OptionsFallBalances[index] = OptionsFallBalances[index]/(int256(_oracle.getPrice(whiteList[index])));\r\n        }\r\n        return OptionsFallBalances;\r\n    }\r\n    function _calRangeOptionsFall(uint256 begin,uint256 lastOption,address[] memory whiteList,uint256[] memory prices)\r\n                 internal view returns(int256[] memory){\r\n        int256[] memory OptionsFallBalances = new int256[](whiteList.length);\r\n        for (;begin<lastOption;begin++){\r\n            OptionsInfo storage info = allOptions[begin];\r\n            if(info.expiration<now || info.amount == 0){\r\n                continue;\r\n            }\r\n            index = _getEligibleUnderlyingIndex(info.underlying);\r\n            int256 curValue = _calCurtimeCallateralFall(info,info.amount,prices[index]);\r\n            if (curValue != 0){\r\n                OptionsInfoEx storage optionEx = optionExtraMap[begin];\r\n                uint256 index = whiteListAddress._getEligibleIndexAddress(whiteList,optionEx.settlement);\r\n                OptionsFallBalances[index] = OptionsFallBalances[index]-curValue;\r\n            }\r\n        }\r\n        return OptionsFallBalances;\r\n    }\r\n\r\n    function _calCurtimeCallateralFall(OptionsInfo memory info,uint256 amount,uint256 curPrice) internal view returns(int256){\r\n        if (info.expiration<=now || amount == 0){\r\n            return 0;\r\n        }\r\n        uint256 newFall = _getOptionsPayback(info.optType,info.strikePrice,curPrice)*amount;\r\n        OptionsInfoEx storage optionEx = optionExtraMap[info.optionID-1];\r\n        uint256 OriginFall = _getOptionsPayback(info.optType,info.strikePrice,optionEx.underlyingPrice)*amount;\r\n        return int256(newFall) - int256(OriginFall);\r\n    }\r\n    /*\r\n    function _addNewOptionsNetworth(OptionsInfo memory info)  internal {\r\n        OptionsInfoEx storage infoEx =  optionExtraMap[info.optionID-1];\r\n        uint256 price = _oracle.getPrice(infoEx.settlement);\r\n        uint256 curValue = _calCurtimeCallateralFall(info,info.amount,infoEx.underlyingPrice)/price;\r\n        optionsLatestNetWorth[infoEx.settlement] = optionsLatestNetWorth[infoEx.settlement].sub(int256(curValue));\r\n    }\r\n    */\r\n    function _burnOptionsNetworth(OptionsInfo memory info,uint256 amount,uint256 underlyingPrice,uint256 currentPrice) internal returns (uint256) {\r\n        int256 curValue = _calCurtimeCallateralFall(info,amount,underlyingPrice);\r\n        OptionsInfoEx storage optionEx = optionExtraMap[info.optionID-1];\r\n        uint256 timeWorth = optionEx.fullPrice>currentPrice ? optionEx.fullPrice-currentPrice : 0;\r\n        timeWorth = optionEx.tokenTimePrice.mul(timeWorth*amount)/calDecimals;\r\n        curValue = curValue / int256(_oracle.getPrice(optionEx.settlement));\r\n        int256 value = curValue - int256(timeWorth);\r\n        optionsLatestNetWorth[optionEx.settlement] = optionsLatestNetWorth[optionEx.settlement]+value;\r\n    }\r\n    function _calculateCurrentPrice(uint256 curprice,uint256 strikePrice,uint256 expiration,uint256 ivNumerator,uint256 ivDenominator,uint8 optType)internal view returns (uint256){\r\n        if (expiration > now){\r\n            return _optionsPrice.getOptionsPrice_iv(curprice,strikePrice,expiration-now,ivNumerator,\r\n                ivDenominator,optType);\r\n        }\r\n        return 0;\r\n    }\r\n}",
  "sourcePath": "C:\\work\\solidity\\FinnexusOptions_V2\\contracts\\OptionsNetWorthCal.sol",
  "compiler": {
    "name": "solc",
    "version": "0.4.26+commit.4563c3fc.Emscripten.clang"
  },
  "schemaVersion": "3.1.0",
  "updatedAt": "2020-08-07T00:13:37.481Z",
  "devdoc": {
    "methods": {
      "addExpiration(uint256)": {
        "details": "Implementation of add an eligible expiration into the expirationList.\r",
        "params": {
          "expiration": "new eligible expiration.\r"
        }
      },
      "addUnderlyingAsset(uint32)": {
        "details": "Implementation of add an eligible underlying into the underlyingAssets.\r",
        "params": {
          "underlying": "new eligible underlying.\r"
        }
      },
      "getExpirationList()": {
        "details": "Implementation of getting the eligible expirationList.\r"
      },
      "getUnderlyingAssets()": {
        "details": "Implementation of getting the eligible underlyingAssets.\r"
      },
      "isEligibleExpiration(uint256)": {
        "details": "Implementation of testing whether the input expiration is eligible.\r",
        "params": {
          "expiration": "input expiration for testing.\r"
        }
      },
      "isEligibleUnderlyingAsset(uint32)": {
        "details": "Implementation of testing whether the input underlying is eligible.\r",
        "params": {
          "underlying": "input underlying for testing.\r"
        }
      },
      "isOwner()": {
        "details": "Returns true if the caller is the current owner."
      },
      "owner()": {
        "details": "Returns the address of the current owner."
      },
      "removeExpirationList(uint256)": {
        "details": "Implementation of revoke an invalid expiration from the expirationList.\r",
        "params": {
          "removeExpiration": "revoked expiration.\r"
        }
      },
      "removeUnderlyingAssets(uint32)": {
        "details": "Implementation of revoke an invalid underlying from the underlyingAssets.\r",
        "params": {
          "removeUnderlying": "revoked underlying.\r"
        }
      },
      "renounceOwnership()": {
        "details": "Leaves the contract without owner. It will not be possible to call `onlyOwner` functions anymore. Can only be called by the current owner.     * NOTE: Renouncing ownership will leave the contract without an owner, thereby removing any functionality that is only available to the owner."
      },
      "transferOwnership(address)": {
        "details": "Transfers ownership of the contract to a new account (`newOwner`). Can only be called by the current owner."
      }
    }
  },
  "userdoc": {
    "methods": {
      "setManager(address)": {
        "notice": "contribution period to stop or not."
      }
    }
  }
}