{
  "contractName": "OptionsPool",
  "abi": [
    {
      "inputs": [
        {
          "internalType": "address",
          "name": "oracleAddr",
          "type": "address"
        },
        {
          "internalType": "address",
          "name": "optionsPriceAddr",
          "type": "address"
        },
        {
          "internalType": "address",
          "name": "ivAddress",
          "type": "address"
        }
      ],
      "payable": false,
      "stateMutability": "nonpayable",
      "type": "constructor"
    },
    {
      "anonymous": false,
      "inputs": [
        {
          "indexed": true,
          "internalType": "address",
          "name": "owner",
          "type": "address"
        },
        {
          "indexed": true,
          "internalType": "uint256",
          "name": "optionID",
          "type": "uint256"
        },
        {
          "indexed": false,
          "internalType": "uint256",
          "name": "amount",
          "type": "uint256"
        }
      ],
      "name": "BurnOption",
      "type": "event"
    },
    {
      "anonymous": false,
      "inputs": [
        {
          "indexed": true,
          "internalType": "address",
          "name": "owner",
          "type": "address"
        },
        {
          "indexed": true,
          "internalType": "uint256",
          "name": "optionID",
          "type": "uint256"
        },
        {
          "indexed": false,
          "internalType": "uint8",
          "name": "optType",
          "type": "uint8"
        },
        {
          "indexed": false,
          "internalType": "uint32",
          "name": "underlying",
          "type": "uint32"
        },
        {
          "indexed": false,
          "internalType": "uint256",
          "name": "expiration",
          "type": "uint256"
        },
        {
          "indexed": false,
          "internalType": "uint256",
          "name": "strikePrice",
          "type": "uint256"
        },
        {
          "indexed": false,
          "internalType": "uint256",
          "name": "amount",
          "type": "uint256"
        }
      ],
      "name": "CreateOption",
      "type": "event"
    },
    {
      "anonymous": false,
      "inputs": [
        {
          "indexed": true,
          "internalType": "address",
          "name": "previousOwner",
          "type": "address"
        },
        {
          "indexed": true,
          "internalType": "address",
          "name": "newOwner",
          "type": "address"
        }
      ],
      "name": "OwnershipTransferred",
      "type": "event"
    },
    {
      "constant": false,
      "inputs": [
        {
          "internalType": "uint256",
          "name": "expiration",
          "type": "uint256"
        }
      ],
      "name": "addExpiration",
      "outputs": [],
      "payable": false,
      "stateMutability": "nonpayable",
      "type": "function"
    },
    {
      "constant": false,
      "inputs": [
        {
          "internalType": "address",
          "name": "addAddress",
          "type": "address"
        }
      ],
      "name": "addOperator",
      "outputs": [],
      "payable": false,
      "stateMutability": "nonpayable",
      "type": "function"
    },
    {
      "constant": false,
      "inputs": [
        {
          "internalType": "uint32",
          "name": "underlying",
          "type": "uint32"
        }
      ],
      "name": "addUnderlyingAsset",
      "outputs": [],
      "payable": false,
      "stateMutability": "nonpayable",
      "type": "function"
    },
    {
      "constant": true,
      "inputs": [
        {
          "internalType": "uint256",
          "name": "expiration",
          "type": "uint256"
        },
        {
          "internalType": "uint32",
          "name": "underlying",
          "type": "uint32"
        }
      ],
      "name": "buyOptionCheck",
      "outputs": [],
      "payable": false,
      "stateMutability": "view",
      "type": "function"
    },
    {
      "constant": true,
      "inputs": [
        {
          "internalType": "uint256",
          "name": "lastOption",
          "type": "uint256"
        },
        {
          "internalType": "uint256",
          "name": "begin",
          "type": "uint256"
        },
        {
          "internalType": "uint256",
          "name": "end",
          "type": "uint256"
        },
        {
          "internalType": "address[]",
          "name": "whiteList",
          "type": "address[]"
        }
      ],
      "name": "calRangeSharedPayment",
      "outputs": [
        {
          "internalType": "int256[]",
          "name": "",
          "type": "int256[]"
        },
        {
          "internalType": "uint256[]",
          "name": "",
          "type": "uint256[]"
        },
        {
          "internalType": "uint256",
          "name": "",
          "type": "uint256"
        }
      ],
      "payable": false,
      "stateMutability": "view",
      "type": "function"
    },
    {
      "constant": true,
      "inputs": [
        {
          "internalType": "uint256",
          "name": "lastOption",
          "type": "uint256"
        },
        {
          "internalType": "uint256",
          "name": "beginOption",
          "type": "uint256"
        },
        {
          "internalType": "uint256",
          "name": "endOption",
          "type": "uint256"
        }
      ],
      "name": "calculatePhaseOccupiedCollateral",
      "outputs": [
        {
          "internalType": "uint256",
          "name": "",
          "type": "uint256"
        },
        {
          "internalType": "uint256",
          "name": "",
          "type": "uint256"
        },
        {
          "internalType": "uint256",
          "name": "",
          "type": "uint256"
        },
        {
          "internalType": "bool",
          "name": "",
          "type": "bool"
        }
      ],
      "payable": false,
      "stateMutability": "view",
      "type": "function"
    },
    {
      "constant": true,
      "inputs": [
        {
          "internalType": "uint256",
          "name": "lastOption",
          "type": "uint256"
        },
        {
          "internalType": "uint256",
          "name": "begin",
          "type": "uint256"
        },
        {
          "internalType": "uint256",
          "name": "end",
          "type": "uint256"
        },
        {
          "internalType": "address[]",
          "name": "whiteList",
          "type": "address[]"
        }
      ],
      "name": "calculatePhaseOptionsFall",
      "outputs": [
        {
          "internalType": "int256[]",
          "name": "",
          "type": "int256[]"
        }
      ],
      "payable": false,
      "stateMutability": "view",
      "type": "function"
    },
    {
      "constant": true,
      "inputs": [
        {
          "internalType": "uint256",
          "name": "expiration",
          "type": "uint256"
        }
      ],
      "name": "checkExpiration",
      "outputs": [],
      "payable": false,
      "stateMutability": "view",
      "type": "function"
    },
    {
      "constant": true,
      "inputs": [
        {
          "internalType": "uint256",
          "name": "optionID",
          "type": "uint256"
        },
        {
          "internalType": "uint256",
          "name": "amount",
          "type": "uint256"
        }
      ],
      "name": "getBurnedFullPay",
      "outputs": [
        {
          "internalType": "address",
          "name": "",
          "type": "address"
        },
        {
          "internalType": "uint256",
          "name": "",
          "type": "uint256"
        }
      ],
      "payable": false,
      "stateMutability": "view",
      "type": "function"
    },
    {
      "constant": true,
      "inputs": [],
      "name": "getCallTotalOccupiedCollateral",
      "outputs": [
        {
          "internalType": "uint256",
          "name": "",
          "type": "uint256"
        }
      ],
      "payable": false,
      "stateMutability": "view",
      "type": "function"
    },
    {
      "constant": true,
      "inputs": [
        {
          "internalType": "uint256",
          "name": "optionsId",
          "type": "uint256"
        },
        {
          "internalType": "uint256",
          "name": "amount",
          "type": "uint256"
        }
      ],
      "name": "getExerciseWorth",
      "outputs": [
        {
          "internalType": "uint256",
          "name": "",
          "type": "uint256"
        }
      ],
      "payable": false,
      "stateMutability": "view",
      "type": "function"
    },
    {
      "constant": true,
      "inputs": [],
      "name": "getExpirationList",
      "outputs": [
        {
          "internalType": "uint256[]",
          "name": "",
          "type": "uint256[]"
        }
      ],
      "payable": false,
      "stateMutability": "view",
      "type": "function"
    },
    {
      "constant": true,
      "inputs": [],
      "name": "getInputAmountRange",
      "outputs": [
        {
          "internalType": "uint256",
          "name": "",
          "type": "uint256"
        },
        {
          "internalType": "uint256",
          "name": "",
          "type": "uint256"
        }
      ],
      "payable": false,
      "stateMutability": "view",
      "type": "function"
    },
    {
      "constant": true,
      "inputs": [
        {
          "internalType": "uint256",
          "name": "item",
          "type": "uint256"
        }
      ],
      "name": "getItemTimeLimitation",
      "outputs": [
        {
          "internalType": "uint256",
          "name": "",
          "type": "uint256"
        }
      ],
      "payable": false,
      "stateMutability": "view",
      "type": "function"
    },
    {
      "constant": true,
      "inputs": [],
      "name": "getManager",
      "outputs": [
        {
          "internalType": "address",
          "name": "",
          "type": "address"
        }
      ],
      "payable": false,
      "stateMutability": "view",
      "type": "function"
    },
    {
      "constant": true,
      "inputs": [
        {
          "internalType": "address[]",
          "name": "whiteList",
          "type": "address[]"
        }
      ],
      "name": "getNetWrothCalInfo",
      "outputs": [
        {
          "internalType": "uint256",
          "name": "",
          "type": "uint256"
        },
        {
          "internalType": "int256[]",
          "name": "",
          "type": "int256[]"
        }
      ],
      "payable": false,
      "stateMutability": "view",
      "type": "function"
    },
    {
      "constant": true,
      "inputs": [
        {
          "internalType": "address",
          "name": "settlement",
          "type": "address"
        }
      ],
      "name": "getNetWrothLatestWorth",
      "outputs": [
        {
          "internalType": "int256",
          "name": "",
          "type": "int256"
        }
      ],
      "payable": false,
      "stateMutability": "view",
      "type": "function"
    },
    {
      "constant": true,
      "inputs": [],
      "name": "getOccupiedCalInfo",
      "outputs": [
        {
          "internalType": "uint256",
          "name": "",
          "type": "uint256"
        },
        {
          "internalType": "int256",
          "name": "",
          "type": "int256"
        },
        {
          "internalType": "int256",
          "name": "",
          "type": "int256"
        }
      ],
      "payable": false,
      "stateMutability": "view",
      "type": "function"
    },
    {
      "constant": true,
      "inputs": [],
      "name": "getOperator",
      "outputs": [
        {
          "internalType": "address[]",
          "name": "",
          "type": "address[]"
        }
      ],
      "payable": false,
      "stateMutability": "view",
      "type": "function"
    },
    {
      "constant": true,
      "inputs": [],
      "name": "getOptionInfoLength",
      "outputs": [
        {
          "internalType": "uint256",
          "name": "",
          "type": "uint256"
        }
      ],
      "payable": false,
      "stateMutability": "view",
      "type": "function"
    },
    {
      "constant": true,
      "inputs": [
        {
          "internalType": "uint256",
          "name": "from",
          "type": "uint256"
        },
        {
          "internalType": "uint256",
          "name": "size",
          "type": "uint256"
        }
      ],
      "name": "getOptionInfoList",
      "outputs": [
        {
          "internalType": "address[]",
          "name": "",
          "type": "address[]"
        },
        {
          "internalType": "uint256[]",
          "name": "",
          "type": "uint256[]"
        },
        {
          "internalType": "uint256[]",
          "name": "",
          "type": "uint256[]"
        },
        {
          "internalType": "uint256[]",
          "name": "",
          "type": "uint256[]"
        },
        {
          "internalType": "uint256[]",
          "name": "",
          "type": "uint256[]"
        }
      ],
      "payable": false,
      "stateMutability": "view",
      "type": "function"
    },
    {
      "constant": true,
      "inputs": [
        {
          "internalType": "uint256[]",
          "name": "ids",
          "type": "uint256[]"
        }
      ],
      "name": "getOptionInfoListFromID",
      "outputs": [
        {
          "internalType": "address[]",
          "name": "",
          "type": "address[]"
        },
        {
          "internalType": "uint256[]",
          "name": "",
          "type": "uint256[]"
        },
        {
          "internalType": "uint256[]",
          "name": "",
          "type": "uint256[]"
        },
        {
          "internalType": "uint256[]",
          "name": "",
          "type": "uint256[]"
        },
        {
          "internalType": "uint256[]",
          "name": "",
          "type": "uint256[]"
        }
      ],
      "payable": false,
      "stateMutability": "view",
      "type": "function"
    },
    {
      "constant": true,
      "inputs": [
        {
          "internalType": "uint256",
          "name": "optionsId",
          "type": "uint256"
        }
      ],
      "name": "getOptionsById",
      "outputs": [
        {
          "internalType": "uint256",
          "name": "",
          "type": "uint256"
        },
        {
          "internalType": "address",
          "name": "",
          "type": "address"
        },
        {
          "internalType": "uint8",
          "name": "",
          "type": "uint8"
        },
        {
          "internalType": "uint32",
          "name": "",
          "type": "uint32"
        },
        {
          "internalType": "uint256",
          "name": "",
          "type": "uint256"
        },
        {
          "internalType": "uint256",
          "name": "",
          "type": "uint256"
        },
        {
          "internalType": "uint256",
          "name": "",
          "type": "uint256"
        }
      ],
      "payable": false,
      "stateMutability": "view",
      "type": "function"
    },
    {
      "constant": true,
      "inputs": [
        {
          "internalType": "uint256",
          "name": "optionsId",
          "type": "uint256"
        }
      ],
      "name": "getOptionsExtraById",
      "outputs": [
        {
          "internalType": "address",
          "name": "",
          "type": "address"
        },
        {
          "internalType": "uint256",
          "name": "",
          "type": "uint256"
        },
        {
          "internalType": "uint256",
          "name": "",
          "type": "uint256"
        },
        {
          "internalType": "uint256",
          "name": "",
          "type": "uint256"
        },
        {
          "internalType": "uint256",
          "name": "",
          "type": "uint256"
        },
        {
          "internalType": "uint256",
          "name": "",
          "type": "uint256"
        }
      ],
      "payable": false,
      "stateMutability": "view",
      "type": "function"
    },
    {
      "constant": true,
      "inputs": [
        {
          "internalType": "uint256",
          "name": "optionsId",
          "type": "uint256"
        }
      ],
      "name": "getOptionsLimitTimeById",
      "outputs": [
        {
          "internalType": "uint256",
          "name": "",
          "type": "uint256"
        }
      ],
      "payable": false,
      "stateMutability": "view",
      "type": "function"
    },
    {
      "constant": true,
      "inputs": [],
      "name": "getOptionsPriceAddress",
      "outputs": [
        {
          "internalType": "address",
          "name": "",
          "type": "address"
        }
      ],
      "payable": false,
      "stateMutability": "view",
      "type": "function"
    },
    {
      "constant": true,
      "inputs": [],
      "name": "getOracleAddress",
      "outputs": [
        {
          "internalType": "address",
          "name": "",
          "type": "address"
        }
      ],
      "payable": false,
      "stateMutability": "view",
      "type": "function"
    },
    {
      "constant": true,
      "inputs": [],
      "name": "getPutTotalOccupiedCollateral",
      "outputs": [
        {
          "internalType": "uint256",
          "name": "",
          "type": "uint256"
        }
      ],
      "payable": false,
      "stateMutability": "view",
      "type": "function"
    },
    {
      "constant": true,
      "inputs": [],
      "name": "getTimeLimitation",
      "outputs": [
        {
          "internalType": "uint256",
          "name": "",
          "type": "uint256"
        }
      ],
      "payable": false,
      "stateMutability": "view",
      "type": "function"
    },
    {
      "constant": true,
      "inputs": [],
      "name": "getTotalOccupiedCollateral",
      "outputs": [
        {
          "internalType": "uint256",
          "name": "",
          "type": "uint256"
        }
      ],
      "payable": false,
      "stateMutability": "view",
      "type": "function"
    },
    {
      "constant": true,
      "inputs": [],
      "name": "getUnderlyingAssets",
      "outputs": [
        {
          "internalType": "uint32[]",
          "name": "",
          "type": "uint32[]"
        }
      ],
      "payable": false,
      "stateMutability": "view",
      "type": "function"
    },
    {
      "constant": true,
      "inputs": [
        {
          "internalType": "address",
          "name": "user",
          "type": "address"
        }
      ],
      "name": "getUserOptionsID",
      "outputs": [
        {
          "internalType": "uint256[]",
          "name": "",
          "type": "uint256[]"
        }
      ],
      "payable": false,
      "stateMutability": "view",
      "type": "function"
    },
    {
      "constant": true,
      "inputs": [
        {
          "internalType": "address",
          "name": "user",
          "type": "address"
        },
        {
          "internalType": "uint256",
          "name": "from",
          "type": "uint256"
        },
        {
          "internalType": "uint256",
          "name": "size",
          "type": "uint256"
        }
      ],
      "name": "getUserOptionsID",
      "outputs": [
        {
          "internalType": "uint256[]",
          "name": "",
          "type": "uint256[]"
        }
      ],
      "payable": false,
      "stateMutability": "view",
      "type": "function"
    },
    {
      "constant": true,
      "inputs": [],
      "name": "getVolatilityAddress",
      "outputs": [
        {
          "internalType": "address",
          "name": "",
          "type": "address"
        }
      ],
      "payable": false,
      "stateMutability": "view",
      "type": "function"
    },
    {
      "constant": false,
      "inputs": [],
      "name": "initialize",
      "outputs": [],
      "payable": false,
      "stateMutability": "nonpayable",
      "type": "function"
    },
    {
      "constant": true,
      "inputs": [
        {
          "internalType": "uint256",
          "name": "expiration",
          "type": "uint256"
        }
      ],
      "name": "isEligibleExpiration",
      "outputs": [
        {
          "internalType": "bool",
          "name": "",
          "type": "bool"
        }
      ],
      "payable": false,
      "stateMutability": "view",
      "type": "function"
    },
    {
      "constant": true,
      "inputs": [
        {
          "internalType": "uint32",
          "name": "underlying",
          "type": "uint32"
        }
      ],
      "name": "isEligibleUnderlyingAsset",
      "outputs": [
        {
          "internalType": "bool",
          "name": "",
          "type": "bool"
        }
      ],
      "payable": false,
      "stateMutability": "view",
      "type": "function"
    },
    {
      "constant": true,
      "inputs": [
        {
          "internalType": "uint256",
          "name": "Amount",
          "type": "uint256"
        }
      ],
      "name": "isInputAmountInRange",
      "outputs": [
        {
          "internalType": "bool",
          "name": "",
          "type": "bool"
        }
      ],
      "payable": false,
      "stateMutability": "view",
      "type": "function"
    },
    {
      "constant": true,
      "inputs": [],
      "name": "isOwner",
      "outputs": [
        {
          "internalType": "bool",
          "name": "",
          "type": "bool"
        }
      ],
      "payable": false,
      "stateMutability": "view",
      "type": "function"
    },
    {
      "constant": true,
      "inputs": [],
      "name": "owner",
      "outputs": [
        {
          "internalType": "address",
          "name": "",
          "type": "address"
        }
      ],
      "payable": false,
      "stateMutability": "view",
      "type": "function"
    },
    {
      "constant": false,
      "inputs": [
        {
          "internalType": "uint256",
          "name": "removeExpiration",
          "type": "uint256"
        }
      ],
      "name": "removeExpirationList",
      "outputs": [
        {
          "internalType": "bool",
          "name": "",
          "type": "bool"
        }
      ],
      "payable": false,
      "stateMutability": "nonpayable",
      "type": "function"
    },
    {
      "constant": false,
      "inputs": [
        {
          "internalType": "address",
          "name": "removeAddress",
          "type": "address"
        }
      ],
      "name": "removeOperator",
      "outputs": [
        {
          "internalType": "bool",
          "name": "",
          "type": "bool"
        }
      ],
      "payable": false,
      "stateMutability": "nonpayable",
      "type": "function"
    },
    {
      "constant": false,
      "inputs": [
        {
          "internalType": "uint32",
          "name": "removeUnderlying",
          "type": "uint32"
        }
      ],
      "name": "removeUnderlyingAssets",
      "outputs": [
        {
          "internalType": "bool",
          "name": "",
          "type": "bool"
        }
      ],
      "payable": false,
      "stateMutability": "nonpayable",
      "type": "function"
    },
    {
      "constant": false,
      "inputs": [],
      "name": "renounceOwnership",
      "outputs": [],
      "payable": false,
      "stateMutability": "nonpayable",
      "type": "function"
    },
    {
      "constant": false,
      "inputs": [
        {
          "internalType": "uint256",
          "name": "totalCallOccupied",
          "type": "uint256"
        },
        {
          "internalType": "uint256",
          "name": "totalPutOccupied",
          "type": "uint256"
        },
        {
          "internalType": "uint256",
          "name": "beginOption",
          "type": "uint256"
        },
        {
          "internalType": "int256",
          "name": "latestCallOccpied",
          "type": "int256"
        },
        {
          "internalType": "int256",
          "name": "latestPutOccpied",
          "type": "int256"
        }
      ],
      "name": "setCollateralPhase",
      "outputs": [],
      "payable": false,
      "stateMutability": "nonpayable",
      "type": "function"
    },
    {
      "constant": false,
      "inputs": [
        {
          "internalType": "uint256",
          "name": "_minAmount",
          "type": "uint256"
        },
        {
          "internalType": "uint256",
          "name": "_maxAmount",
          "type": "uint256"
        }
      ],
      "name": "setInputAmountRange",
      "outputs": [],
      "payable": false,
      "stateMutability": "nonpayable",
      "type": "function"
    },
    {
      "constant": false,
      "inputs": [
        {
          "internalType": "address",
          "name": "managerAddress",
          "type": "address"
        }
      ],
      "name": "setManager",
      "outputs": [],
      "payable": false,
      "stateMutability": "nonpayable",
      "type": "function"
    },
    {
      "constant": false,
      "inputs": [],
      "name": "setOccupiedCollateral",
      "outputs": [],
      "payable": false,
      "stateMutability": "nonpayable",
      "type": "function"
    },
    {
      "constant": false,
      "inputs": [
        {
          "internalType": "uint256",
          "name": "index",
          "type": "uint256"
        },
        {
          "internalType": "address",
          "name": "addAddress",
          "type": "address"
        }
      ],
      "name": "setOperator",
      "outputs": [],
      "payable": false,
      "stateMutability": "nonpayable",
      "type": "function"
    },
    {
      "constant": false,
      "inputs": [
        {
          "internalType": "address[]",
          "name": "operators",
          "type": "address[]"
        }
      ],
      "name": "setOperators",
      "outputs": [],
      "payable": false,
      "stateMutability": "nonpayable",
      "type": "function"
    },
    {
      "constant": false,
      "inputs": [
        {
          "internalType": "address",
          "name": "optionsPrice",
          "type": "address"
        }
      ],
      "name": "setOptionsPriceAddress",
      "outputs": [],
      "payable": false,
      "stateMutability": "nonpayable",
      "type": "function"
    },
    {
      "constant": false,
      "inputs": [
        {
          "internalType": "address",
          "name": "oracle",
          "type": "address"
        }
      ],
      "name": "setOracleAddress",
      "outputs": [],
      "payable": false,
      "stateMutability": "nonpayable",
      "type": "function"
    },
    {
      "constant": false,
      "inputs": [
        {
          "internalType": "uint256",
          "name": "newFirstOption",
          "type": "uint256"
        },
        {
          "internalType": "int256[]",
          "name": "latestNetWorth",
          "type": "int256[]"
        },
        {
          "internalType": "address[]",
          "name": "whiteList",
          "type": "address[]"
        }
      ],
      "name": "setSharedState",
      "outputs": [],
      "payable": false,
      "stateMutability": "nonpayable",
      "type": "function"
    },
    {
      "constant": false,
      "inputs": [
        {
          "internalType": "uint256",
          "name": "_limitation",
          "type": "uint256"
        }
      ],
      "name": "setTimeLimitation",
      "outputs": [],
      "payable": false,
      "stateMutability": "nonpayable",
      "type": "function"
    },
    {
      "constant": false,
      "inputs": [
        {
          "internalType": "address",
          "name": "volatility",
          "type": "address"
        }
      ],
      "name": "setVolatilityAddress",
      "outputs": [],
      "payable": false,
      "stateMutability": "nonpayable",
      "type": "function"
    },
    {
      "constant": false,
      "inputs": [
        {
          "internalType": "address",
          "name": "newOwner",
          "type": "address"
        }
      ],
      "name": "transferOwnership",
      "outputs": [],
      "payable": false,
      "stateMutability": "nonpayable",
      "type": "function"
    },
    {
      "constant": false,
      "inputs": [],
      "name": "update",
      "outputs": [],
      "payable": false,
      "stateMutability": "nonpayable",
      "type": "function"
    },
    {
      "constant": true,
      "inputs": [
        {
          "internalType": "address[]",
          "name": "whiteList",
          "type": "address[]"
        }
      ],
      "name": "getOptionCalRangeAll",
      "outputs": [
        {
          "internalType": "uint256",
          "name": "",
          "type": "uint256"
        },
        {
          "internalType": "int256",
          "name": "",
          "type": "int256"
        }
      ],
      "payable": false,
      "stateMutability": "view",
      "type": "function"
    },
    {
      "constant": false,
      "inputs": [
        {
          "internalType": "address",
          "name": "from",
          "type": "address"
        },
        {
          "internalType": "address",
          "name": "settlement",
          "type": "address"
        },
        {
          "internalType": "uint256",
          "name": "type_ly_exp",
          "type": "uint256"
        },
        {
          "internalType": "uint256",
          "name": "strikePrice",
          "type": "uint256"
        },
        {
          "internalType": "uint256",
          "name": "priceRate",
          "type": "uint256"
        },
        {
          "internalType": "uint256",
          "name": "amount",
          "type": "uint256"
        }
      ],
      "name": "createOptions",
      "outputs": [],
      "payable": false,
      "stateMutability": "nonpayable",
      "type": "function"
    },
    {
      "constant": false,
      "inputs": [
        {
          "internalType": "address",
          "name": "from",
          "type": "address"
        },
        {
          "internalType": "uint256",
          "name": "id",
          "type": "uint256"
        },
        {
          "internalType": "uint256",
          "name": "amount",
          "type": "uint256"
        },
        {
          "internalType": "uint256",
          "name": "optionPrice",
          "type": "uint256"
        }
      ],
      "name": "burnOptions",
      "outputs": [],
      "payable": false,
      "stateMutability": "nonpayable",
      "type": "function"
    }
  ],
  "bytecode": "0x6080604052610e106003556c0c9f2c9cd04674edea4000000060045560646005553480156200002d57600080fd5b506040516200576238038062005762833981810160405260608110156200005357600080fd5b508051602082015160409283015160008054600160a060020a03191633178082559451939492939192600160a060020a0316917f8be0079c531659141344cd1fd0a4f28419497f9722a3daafe3b4186f6b6457e0908290a3620000be64010000000062000101810204565b60078054600160a060020a03948516600160a060020a03199182161790915560098054938516938216939093179092556008805491909316911617905562000363565b620001146401000000006200020a810204565b6200018057604080517f08c379a000000000000000000000000000000000000000000000000000000000815260206004820181905260248201527f4f776e61626c653a2063616c6c6572206973206e6f7420746865206f776e6572604482015290519081900360640190fd5b60408051610100810182526201518081526202a30060208201526203f4809181019190915262093a806060820152620d2f0060808201526213c68060a0820152621a5e0060c082015262278d0060e0820152620001e290600e9060086200021c565b5060408051808201909152600180825260026020830181905262000207929062000273565b50565b600054600160a060020a031633145b90565b82805482825590600052602060002090810192821562000261579160200282015b8281111562000261578251829062ffffff169055916020019190600101906200023d565b506200026f92915062000322565b5090565b82805482825590600052602060002090600701600890048101928215620003145791602002820160005b83821115620002e057835183826101000a81548163ffffffff021916908360ff16021790555092602001926004016020816003010492830192600103026200029d565b8015620003125782816101000a81549063ffffffff0219169055600401602081600301049283019260010302620002e0565b505b506200026f9291506200033f565b6200021991905b808211156200026f576000815560010162000329565b6200021991905b808211156200026f57805463ffffffff1916815560010162000346565b6153ef80620003736000396000f3fe608060405234801561001057600080fd5b50600436106103a85760003560e060020a90048063813b5d4b116101ed578063afec82fc11610113578063db6ad2bd116100b1578063e7f43c6811610080578063e7f43c68146111da578063f2fde38b146111e2578063f504e2f014611208578063f7de192314611210576103a8565b8063db6ad2bd146110c2578063ddf71cd5146110e5578063e7a1c1c014611188578063e7c56815146111b4576103a8565b8063bec3107f116100ed578063bec3107f14611069578063d0ebdbe714611071578063d500958414611097578063d6d140121461109f576103a8565b8063afec82fc14611036578063b18b78dd14611059578063bc9abed214611061576103a8565b80639a2a3a601161018b578063a2e620451161015a578063a2e6204514610fcb578063a855040814610fd3578063ac8a584a14611008578063aef890be1461102e576103a8565b80639a2a3a6014610ea95780639ab91a3514610f655780639ef975d214610f88578063a093e2d014610fa5576103a8565b80639052d5f8116101c75780639052d5f814610e16578063924a69ce14610e1e5780639783cbd914610e665780639870d7fe14610e83576103a8565b8063813b5d4b14610de95780638da5cb5b14610e065780638f32d59b14610e0e576103a8565b806348ee201d116102d25780636ed82ec9116102705780637cfff2d81161023f5780637cfff2d814610d6d5780637e1bcb7614610d8a5780637e838fa314610db05780638129fc1c14610de1576103a8565b80636ed82ec914610d08578063715018a614610d40578063723931ca14610d4857806373a3d42414610d65576103a8565b80635ca4b73b116102ac5780635ca4b73b14610bc257806367b8ceb914610bca5780636a43c05e14610bed5780636d84e2e314610ceb576103a8565b806348ee201d14610af25780634c69c00f14610b56578063597ce90014610b7c576103a8565b806332ab5c201161034a5780633e77dfd9116103195780633e77dfd914610a0857806342e5479d14610a1057806343674c3a14610a345780634688d5d614610aea576103a8565b806332ab5c201461078e578063354af360146108e45780633582d789146109875780633ad2fb57146109df576103a8565b80630c372571116103865780630c372571146105b85780632415e010146106095780632967eafe146107395780632a75ee421461075f576103a8565b80630438d490146103ad57806307af1478146105385780630905762214610592575b600080fd5b6103d0600480360360408110156103c357600080fd5b5080359060200135611242565b60405180806020018060200180602001806020018060200186810386528b818151815260200191508051906020019060200280838360005b83811015610420578181015183820152602001610408565b5050505090500186810385528a818151815260200191508051906020019060200280838360005b8381101561045f578181015183820152602001610447565b50505050905001868103845289818151815260200191508051906020019060200280838360005b8381101561049e578181015183820152602001610486565b50505050905001868103835288818151815260200191508051906020019060200280838360005b838110156104dd5781810151838201526020016104c5565b50505050905001868103825287818151815260200191508051906020019060200280838360005b8381101561051c578181015183820152602001610504565b505050509050019a505050505050505050505060405180910390f35b6105556004803603602081101561054e57600080fd5b5035611519565b60408051600160a060020a0390971687526020870195909552858501939093526060850191909152608084015260a0830152519081900360c00190f35b61059a6115cc565b60408051938452602084019290925282820152519081900360600190f35b6105e1600480360360608110156105ce57600080fd5b50803590602081013590604001356115da565b6040805194855260208501939093528383019190915215156060830152519081900360800190f35b6107376004803603606081101561061f57600080fd5b8135919081019060408101602082013564010000000081111561064157600080fd5b82018360208201111561065357600080fd5b8035906020019184602083028401116401000000008311171561067557600080fd5b91908080602002602001604051908101604052809392919081815260200183836020028082843760009201919091525092959493602081019350359150506401000000008111156106c557600080fd5b8201836020820111156106d757600080fd5b803590602001918460208302840111640100000000831117156106f957600080fd5b91908080602002602001604051908101604052809392919081815260200183836020028082843760009201919091525092955061165a945050505050565b005b6107376004803603602081101561074f57600080fd5b5035600160a060020a0316611857565b61077c6004803603602081101561077557600080fd5b50356118c3565b60408051918252519081900360200190f35b610844600480360360808110156107a457600080fd5b813591602081013591604082013591908101906080810160608201356401000000008111156107d257600080fd5b8201836020820111156107e457600080fd5b8035906020019184602083028401116401000000008311171561080657600080fd5b9190808060200260200160405190810160405280939291908181526020018383602002808284376000920191909152509295506118da945050505050565b604051808060200180602001848152602001838103835286818151815260200191508051906020019060200280838360005b8381101561088e578181015183820152602001610876565b50505050905001838103825285818151815260200191508051906020019060200280838360005b838110156108cd5781810151838201526020016108b5565b505050509050019550505050505060405180910390f35b6103d0600480360360208110156108fa57600080fd5b81019060208101813564010000000081111561091557600080fd5b82018360208201111561092757600080fd5b8035906020019184602083028401116401000000008311171561094957600080fd5b9190808060200260200160405190810160405280939291908181526020018383602002808284376000920191909152509295506119da945050505050565b61098f611ca3565b60408051602080825283518183015283519192839290830191858101910280838360005b838110156109cb5781810151838201526020016109b3565b505050509050019250505060405180910390f35b610737600480360360408110156109f557600080fd5b508035906020013563ffffffff16611d28565b61077c611d92565b610a18611e1c565b60408051600160a060020a039092168252519081900360200190f35b61098f60048036036080811015610a4a57600080fd5b81359160208101359160408201359190810190608081016060820135640100000000811115610a7857600080fd5b820183602082011115610a8a57600080fd5b80359060200191846020830284011164010000000083111715610aac57600080fd5b919080806020026020016040519081016040528093929190818152602001838360200280828437600092019190915250929550611e2b945050505050565b61077c611f20565b610b0f60048036036020811015610b0857600080fd5b5035611f26565b60408051978852600160a060020a03909616602088015260ff9094168686015263ffffffff9092166060860152608085015260a084015260c0830152519081900360e00190f35b61073760048036036020811015610b6c57600080fd5b5035600160a060020a0316611f9a565b610b9f60048036036040811015610b9257600080fd5b5080359060200135612006565b60408051600160a060020a03909316835260208301919091528051918290030190f35b610a18612094565b61077c60048036036040811015610be057600080fd5b50803590602001356120a3565b610c9060048036036020811015610c0357600080fd5b810190602081018135640100000000811115610c1e57600080fd5b820183602082011115610c3057600080fd5b80359060200191846020830284011164010000000083111715610c5257600080fd5b91908080602002602001604051908101604052809392919081815260200183836020028082843760009201919091525092955061218a945050505050565b6040518083815260200180602001828103825283818151815260200191508051906020019060200280838360005b83811015610cd6578181015183820152602001610cbe565b50505050905001935050505060405180910390f35b61077c60048036036020811015610d0157600080fd5b5035612235565b61073760048036036080811015610d1e57600080fd5b50600160a060020a0381351690602081013590604081013590606001356122a5565b610737612464565b61073760048036036020811015610d5e57600080fd5b50356124f8565b61077c612542565b61073760048036036020811015610d8357600080fd5b503561255a565b61077c60048036036020811015610da057600080fd5b5035600160a060020a03166125b5565b610dcd60048036036020811015610dc657600080fd5b50356125d0565b604080519115158252519081900360200190f35b61073761262d565b610dcd60048036036020811015610dff57600080fd5b50356126fa565b610a18612712565b610dcd612721565b61098f612732565b610737600480360360c0811015610e3457600080fd5b50600160a060020a03813581169160208101359091169060408101359060608101359060808101359060a00135612789565b61073760048036036020811015610e7c57600080fd5b50356127ef565b61073760048036036020811015610e9957600080fd5b5035600160a060020a031661283e565b610f4c60048036036020811015610ebf57600080fd5b810190602081018135640100000000811115610eda57600080fd5b820183602082011115610eec57600080fd5b80359060200191846020830284011164010000000083111715610f0e57600080fd5b919080806020026020016040519081016040528093929190818152602001838360200280828437600092019190915250929550612899945050505050565b6040805192835260208301919091528051918290030190f35b61073760048036036040811015610f7b57600080fd5b50803590602001356128a1565b610dcd60048036036020811015610f9e57600080fd5b50356128f6565b61073760048036036020811015610fbb57600080fd5b5035600160a060020a031661295b565b6107376129c7565b610737600480360360a0811015610fe957600080fd5b5080359060208101359060408101359060608101359060800135612a13565b610dcd6004803603602081101561101e57600080fd5b5035600160a060020a0316612c2b565b61077c612c88565b6107376004803603602081101561104c57600080fd5b503563ffffffff16612cfd565b610a18612d58565b610f4c612d67565b61077c612d71565b6107376004803603602081101561108757600080fd5b5035600160a060020a0316612d77565b610a18612de3565b610dcd600480360360208110156110b557600080fd5b503563ffffffff16612df2565b610dcd600480360360208110156110d857600080fd5b503563ffffffff16612e4f565b610737600480360360208110156110fb57600080fd5b81019060208101813564010000000081111561111657600080fd5b82018360208201111561112857600080fd5b8035906020019184602083028401116401000000008311171561114a57600080fd5b919080806020026020016040519081016040528093929190818152602001838360200280828437600092019190915250929550612ee0945050505050565b6107376004803603604081101561119e57600080fd5b5080359060200135600160a060020a0316612f3d565b61098f600480360360208110156111ca57600080fd5b5035600160a060020a0316612fc7565b61098f613033565b610737600480360360208110156111f857600080fd5b5035600160a060020a0316613094565b6107376130e7565b61098f6004803603606081101561122657600080fd5b50600160a060020a03813516906020810135906040013561319e565b600b5460609081908190819081908088106112a7576040805160e560020a62461bcd02815260206004820152601660248201527f696e7075742066726f6d206973206f766572666c6f7700000000000000000000604482015290519081900360640190fd5b600087116112ff576040805160e560020a62461bcd02815260206004820152601260248201527f696e7075742073697a65206973207a65726f0000000000000000000000000000604482015290519081900360640190fd5b80878901111561130f5787810396505b60608760405190808252806020026020018201604052801561133b578160200160208202803883390190505b50905060608860405190808252806020026020018201604052801561136a578160200160208202803883390190505b509050606089604051908082528060200260200182016040528015611399578160200160208202803883390190505b50905060608a6040519080825280602002602001820160405280156113c8578160200160208202803883390190505b50905060608b6040519080825280602002602001820160405280156113f7578160200160208202803883390190505b50905060005b8c811015611504576000818f0190506000600b828154811061141b57fe5b906000526020600020906005020190508060000160089054906101000a9004600160a060020a031688848151811061144f57fe5b600160a060020a03929092166020928302919091019091015280546001820154885160e060020a90920460ff1663ffffffff918216620100000201169088908590811061149857fe5b60200260200101818152505080600201548684815181106114b557fe5b60200260200101818152505080600301548584815181106114d257fe5b60200260200101818152505080600401548484815181106114ef57fe5b602090810291909101015250506001016113fd565b50939c929b5090995097509095509350505050565b6000806000806000806000871180156115345750600b548711155b611588576040805160e560020a62461bcd02815260206004820152601660248201527f6f7074696f6e206964206973206e6f7420657869737400000000000000000000604482015290519081900360640190fd5b50505060009384525050600c602052506040902080546001820154600283015460038401546004850154600590950154600160a060020a0390941695929491939092565b601154601454601554909192565b6000806000806011548610156115f05760115495505b86861061160857506000925082915081905080611651565b8685111561161857869450611633565b60115485101561163357506000925082915081905080611651565b6000806000611642898961333f565b91985096509450600193505050505b93509350935093565b600a5460009015801590611697575033600160a060020a0316600a828154811061168057fe5b600091825260209091200154600160a060020a0316145b6116d55760405160e560020a62461bcd02815260040180806020018281038252602d81526020018061531f602d913960400191505060405180910390fd5b600b5484111561172f576040805160e560020a62461bcd02815260206004820152601e60248201527f6e657746697273744f7074696f6e2063616c63756c617465204572726f720000604482015290519081900360640190fd5b600f5484111561173f57600f8490555b815160005b8181101561184f57701d6329f1c35ca4bfabb9f560ffffffffff1985828151811061176b57fe5b6020026020010151121580156117a55750701d6329f1c35ca4bfabb9f561000000000085828151811061179a57fe5b602002602001015113155b6117f9576040805160e560020a62461bcd02815260206004820152601e60248201527f6c61746573744e6574576f7274682063616c63756c617465206572726f720000604482015290519081900360640190fd5b84818151811061180557fe5b60200260200101516010600086848151811061181d57fe5b602090810291909101810151600160a060020a0316825281019190915260400160002080549091019055600101611744565b505050505050565b61185f612721565b6118a1576040805160e560020a62461bcd02815260206004820181905260248201526000805160206152d7833981519152604482015290519081900360640190fd5b60088054600160a060020a031916600160a060020a0392909216919091179055565b600354600091825260026020526040909120540190565b606080600086861015806118ef5750600f5485105b1561195a57835160405190808252806020026020018201604052801561191f578160200160208202803883390190505b50845160405190808252806020026020018201604052801561194b578160200160208202803883390190505b509093509150600090506119d0565b86851115611966578694505b606060006119758888886134af565b915091508088101561199c57606061198e898389613657565b955091935091506119d09050565b85516040519080825280602002602001820160405280156119c7578160200160208202803883390190505b50945090925090505b9450945094915050565b606080606080606060008651905060008111611a40576040805160e560020a62461bcd02815260206004820152601860248201527f696e7075742069647320617272617920697320656d7074790000000000000000604482015290519081900360640190fd5b600b54604080518381526020808502820101909152606090838015611a6f578160200160208202803883390190505b509050606083604051908082528060200260200182016040528015611a9e578160200160208202803883390190505b509050606084604051908082528060200260200182016040528015611acd578160200160208202803883390190505b509050606085604051908082528060200260200182016040528015611afc578160200160208202803883390190505b509050606086604051908082528060200260200182016040528015611b2b578160200160208202803883390190505b50905060005b8781101561150457600060018f8381518110611b4957fe5b6020026020010151039050878110611bab576040805160e560020a62461bcd02815260206004820152601860248201527f696e7075742069647320617272617920697320656d7074790000000000000000604482015290519081900360640190fd5b6000600b8281548110611bba57fe5b906000526020600020906005020190508060000160089054906101000a9004600160a060020a0316888481518110611bee57fe5b600160a060020a03929092166020928302919091019091015280546001820154885160e060020a90920460ff1663ffffffff9182166201000002011690889085908110611c3757fe5b6020026020010181815250508060020154868481518110611c5457fe5b6020026020010181815250508060030154858481518110611c7157fe5b6020026020010181815250508060040154848481518110611c8e57fe5b60209081029190910101525050600101611b31565b60606001805480602002602001604051908101604052809291908181526020018280548015611d1d57602002820191906000526020600020906000905b82829054906101000a900463ffffffff1663ffffffff1681526020019060040190602082600301049283019260010382029150808411611ce05790505b505050505090505b90565b611d3181612e4f565b611d85576040805160e560020a62461bcd02815260206004820152601f60248201527f756e6465726c79696e6720697320756e737570706f7274656420617373657400604482015290519081900360640190fd5b611d8e826124f8565b5050565b60008060145412611def5760145460125490810190811015611de85760405160e560020a62461bcd02815260040180806020018281038252602a815260200180615391602a913960400191505060405180910390fd5b9050611d25565b60006014546000039050806012541115611e0e57601254039050611d25565b6000915050611d25565b5090565b600854600160a060020a031690565b60608484101580611e3d5750600f5483105b15611e75578151604051908082528060200260200182016040528015611e6d578160200160208202803883390190505b509050611f18565b84831115611e81578492505b600f548411611e9057600f5493505b6060611e9a61379d565b90506060611eaa8686868561383c565b845190915060005b81811015611f1157611ed6868281518110611ec957fe5b60200260200101516139dc565b838281518110611ee257fe5b602002602001015181611ef157fe5b05838281518110611efe57fe5b6020908102919091010152600101611eb2565b5090925050505b949350505050565b60035490565b600080600080600080600080611f3b89613a99565b805460018201546002830154600384015460049094015467ffffffffffffffff84169e680100000000000000008504600160a060020a03169e5060e060020a90940460ff169c5063ffffffff9092169a50985091965090945092505050565b611fa2612721565b611fe4576040805160e560020a62461bcd02815260206004820181905260248201526000805160206152d7833981519152604482015290519081900360640190fd5b60078054600160a060020a031916600160a060020a0392909216919091179055565b6000808280600454101561204e5760405160e560020a62461bcd02815260040180806020018281038252602481526020018061536d6024913960400191505060405180910390fd5b60001985016000908152600c60205260409020805460018201546003830154600160a060020a0390921691670de0b6b3a764000091028702049350935050509250929050565b600954600160a060020a031690565b60006120ad615015565b6120b684613a99565b6040805160e081018252825467ffffffffffffffff81168252680100000000000000008104600160a060020a0316602083015260e060020a900460ff1691810191909152600182015463ffffffff16606082015260028201546080820152600382015460a082015260049091015460c0820152905061213481613b25565b61213e8184613b80565b6000612153826060015163ffffffff16613bdc565b9050600061216a83604001518460a0015184613c46565b90508061217d5760009350505050612184565b8402925050505b92915050565b600060606000835190506060816040519080825280602002602001820160405280156121c0578160200160208202803883390190505b50905060005b8281101561222657601060008783815181106121de57fe5b6020026020010151600160a060020a0316600160a060020a031681526020019081526020016000205482828151811061221357fe5b60209081029190910101526001016121c6565b50600f5493509150505b915091565b600080821180156122485750600b548211155b61229c576040805160e560020a62461bcd02815260206004820152601660248201527f6f7074696f6e206964206973206e6f7420657869737400000000000000000000604482015290519081900360640190fd5b612184826118c3565b600654600160a060020a031633146122f15760405160e560020a62461bcd0281526004018080602001828103825260268152602001806152616026913960400191505060405180910390fd5b818060045410156123365760405160e560020a62461bcd02815260040180806020018281038252602481526020018061536d6024913960400191505060405180910390fd5b6003546000858152600260205260409020548591429101106123a2576040805160e560020a62461bcd02815260206004820152601f60248201527f54696d65206c696d69746174696f6e206973206e6f7420657870697265642100604482015290519081900360640190fd5b6123ad868686613c7a565b6123b5615015565b6123be86613a99565b6040805160e081018252825467ffffffffffffffff81168252680100000000000000008104600160a060020a0316602083015260e060020a900460ff1691810191909152600182015463ffffffff166060820181905260028301546080830152600383015460a083015260049092015460c0820152915060009061244190613bdc565b905061244e828783613e4c565b61245a82878388613ee2565b5050505050505050565b61246c612721565b6124ae576040805160e560020a62461bcd02815260206004820181905260248201526000805160206152d7833981519152604482015290519081900360640190fd5b60008054604051600160a060020a03909116907f8be0079c531659141344cd1fd0a4f28419497f9722a3daafe3b4186f6b6457e0908390a360008054600160a060020a0319169055565b612501816128f6565b61253f5760405160e560020a62461bcd02815260040180806020018281038252602181526020018061534c6021913960400191505060405180910390fd5b50565b600061254c612c88565b612554611d92565b01905090565b612562612721565b6125a4576040805160e560020a62461bcd02815260206004820181905260248201526000805160206152d7833981519152604482015290519081900360640190fd5b61253f600e8263ffffffff613f9416565b600160a060020a031660009081526010602052604090205490565b60006125da612721565b61261c576040805160e560020a62461bcd02815260206004820181905260248201526000805160206152d7833981519152604482015290519081900360640190fd5b612184600e8363ffffffff61400916565b612635612721565b612677576040805160e560020a62461bcd02815260206004820181905260248201526000805160206152d7833981519152604482015290519081900360640190fd5b60408051610100810182526201518081526202a30060208201526203f4809181019190915262093a806060820152620d2f0060808201526213c68060a0820152621a5e0060c082015262278d0060e08201526126d790600e906008615051565b5060408051808201909152600180825260026020830181905261253f929061509f565b60008160045410158015612184575050600554111590565b600054600160a060020a031690565b600054600160a060020a0316331490565b6060600e805480602002602001604051908101604052809291908181526020018280548015611d1d57602002820191906000526020600020905b81548152602001906001019080831161276c575050505050905090565b600654600160a060020a031633146127d55760405160e560020a62461bcd0281526004018080602001828103825260268152602001806152616026913960400191505060405180910390fd5b6127e38686868686866140af565b600b5461184f906143b3565b6127f7612721565b612839576040805160e560020a62461bcd02815260206004820181905260248201526000805160206152d7833981519152604482015290519081900360640190fd5b600355565b612846612721565b612888576040805160e560020a62461bcd02815260206004820181905260248201526000805160206152d7833981519152604482015290519081900360640190fd5b61253f600a8263ffffffff61449d16565b600180612230565b6128a9612721565b6128eb576040805160e560020a62461bcd02815260206004820181905260248201526000805160206152d7833981519152604482015290519081900360640190fd5b600591909155600455565b600061218482600e80548060200260200160405190810160405280929190818152602001828054801561294857602002820191906000526020600020905b815481526020019060010190808311612934575b505050505061453590919063ffffffff16565b612963612721565b6129a5576040805160e560020a62461bcd02815260206004820181905260248201526000805160206152d7833981519152604482015290519081900360640190fd5b60098054600160a060020a031916600160a060020a0392909216919091179055565b6129cf612721565b612a11576040805160e560020a62461bcd02815260206004820181905260248201526000805160206152d7833981519152604482015290519081900360640190fd5b565b600a5460019081108015612a50575033600160a060020a0316600a8281548110612a3957fe5b600091825260209091200154600160a060020a0316145b612a8e5760405160e560020a62461bcd02815260040180806020018281038252602d81526020018061531f602d913960400191505060405180910390fd5b600b54841115612ae8576040805160e560020a62461bcd02815260206004820152601b60248201527f626567696e4f7074696f6e2063616c63756c617465204572726f720000000000604482015290519081900360640190fd5b601154841115612af85760118490555b60128690556013859055701d6329f1c35ca4bfabb9f560ffffffffff198312801590612b355750701d6329f1c35ca4bfabb9f56100000000008313155b612b89576040805160e560020a62461bcd02815260206004820152601c60248201527f6f7074696f6e732066616c6c2063616c63756c617465206572726f7200000000604482015290519081900360640190fd5b701d6329f1c35ca4bfabb9f560ffffffffff198212158015612bbc5750701d6329f1c35ca4bfabb9f56100000000008213155b612c10576040805160e560020a62461bcd02815260206004820152601c60248201527f6f7074696f6e732066616c6c2063616c63756c617465206572726f7200000000604482015290519081900360640190fd5b50601480549290920390915560158054919091039055505050565b6000612c35612721565b612c77576040805160e560020a62461bcd02815260206004820181905260248201526000805160206152d7833981519152604482015290519081900360640190fd5b612184600a8363ffffffff61457216565b60008060155412612cde5760155460135490810190811015611de85760405160e560020a62461bcd02815260040180806020018281038252602a815260200180615391602a913960400191505060405180910390fd5b60006015546000039050806013541115611e0e57601354039050611d25565b612d05612721565b612d47576040805160e560020a62461bcd02815260206004820181905260248201526000805160206152d7833981519152604482015290519081900360640190fd5b61253f60018263ffffffff61464816565b600754600160a060020a031690565b6005546004549091565b600b5490565b612d7f612721565b612dc1576040805160e560020a62461bcd02815260206004820181905260248201526000805160206152d7833981519152604482015290519081900360640190fd5b60068054600160a060020a031916600160a060020a0392909216919091179055565b600654600160a060020a031690565b6000612dfc612721565b612e3e576040805160e560020a62461bcd02815260206004820181905260248201526000805160206152d7833981519152604482015290519081900360640190fd5b61218460018363ffffffff61470f16565b6000612184826001805480602002602001604051908101604052809291908181526020018280548015612ecd57602002820191906000526020600020906000905b82829054906101000a900463ffffffff1663ffffffff1681526020019060040190602082600301049283019260010382029150808411612e905790505b50505050506147ff90919063ffffffff16565b612ee8612721565b612f2a576040805160e560020a62461bcd02815260206004820181905260248201526000805160206152d7833981519152604482015290519081900360640190fd5b8051611d8e90600a906020840190615147565b612f45612721565b612f87576040805160e560020a62461bcd02815260206004820181905260248201526000805160206152d7833981519152604482015290519081900360640190fd5b80600a8381548110612f9557fe5b9060005260206000200160006101000a815481600160a060020a030219169083600160a060020a031602179055505050565b600160a060020a0381166000908152600d602090815260409182902080548351818402810184019094528084526060939283018282801561302757602002820191906000526020600020905b815481526020019060010190808311613013575b50505050509050919050565b6060600a805480602002602001604051908101604052809291908181526020018280548015611d1d57602002820191906000526020600020905b8154600160a060020a0316815260019091019060200180831161306d575050505050905090565b61309c612721565b6130de576040805160e560020a62461bcd02815260206004820181905260248201526000805160206152d7833981519152604482015290519081900360640190fd5b61253f81614848565b600a5460019081108015613124575033600160a060020a0316600a828154811061310d57fe5b600091825260209091200154600160a060020a0316145b6131625760405160e560020a62461bcd02815260040180806020018281038252602d81526020018061531f602d913960400191505060405180910390fd5b601454601554600b54601154600090819081908190613183908690816115da565b9350935093509350801561245a5761245a8484848a8a612a13565b600160a060020a0383166000908152600d60205260409020546060908310613210576040805160e560020a62461bcd02815260206004820152601660248201527f696e7075742066726f6d206973206f766572666c6f7700000000000000000000604482015290519081900360640190fd5b60008211613268576040805160e560020a62461bcd02815260206004820152601260248201527f696e7075742073697a65206973207a65726f0000000000000000000000000000604482015290519081900360640190fd5b606082604051908082528060200260200182016040528015613294578160200160208202803883390190505b50600160a060020a0386166000908152600d602052604090205490915084840111156132d957600160a060020a0385166000908152600d602052604090205484900392505b60005b8381101561333457600160a060020a0386166000908152600d60205260409020805486830190811061330a57fe5b906000526020600020015482828151811061332157fe5b60209081029190910101526001016132dc565b5090505b9392505050565b60008060008061335286601154876148eb565b9096509050606061336161379d565b90506000805b8789101561349f5760006133a0600b8b8154811061338157fe5b600091825260209091206001600590920201015463ffffffff16614968565b90506000613456600b8c815481106133b457fe5b60009182526020918290206040805160e081018252600593909302909101805467ffffffffffffffff81168452680100000000000000008104600160a060020a03169484019490945260e060020a90930460ff1690820152600182015463ffffffff16606082015260028201546080820152600382015460a082015260049091015460c0820152865187908590811061344957fe5b60200260200101516149f9565b9050600b8b8154811061346557fe5b600091825260209091206005909102015460e060020a900460ff1661348d5792830192613492565b918201915b5050600190980197613367565b9095509350909150509250925092565b60606000606083516040519080825280602002602001820160405280156134e0578160200160208202803883390190505b50905060006134f287600f54886148eb565b90975090505b85871015613649576000600b888154811061350f57fe5b906000526020600020906005020190506000600c60008a815260200190815260200160002090506000613566826002015484600301548560020154856004015487600001601c9054906101000a900460ff16614a8d565b9050816003015481101561363b576003820154825491900390600090613596908a90600160a060020a0316614b5a565b9050670de0b6b3a764000084600401548385600101540202816135b557fe5b049150701d6329f1c35ca4bfabb9f561000000000082111561360b5760405160e560020a62461bcd0281526004018080602001828103825260288152602001806152f76028913960400191505060405180910390fd5b8186828151811061361857fe5b60200260200101510186828151811061362d57fe5b602002602001018181525050505b5050600190970196506134f8565b90925090505b935093915050565b6060808251604051908082528060200260200182016040528015613685578160200160208202803883390190505b5090505b83851015611f18576000600b86815481106136a057fe5b90600052602060002090600502019050600081600401541115613791576000868152600c6020526040812080549091906136e4908790600160a060020a0316614b5a565b90506000670de0b6b3a764000084600401548460010154856003015402028161370957fe5b049050701d6329f1c35ca4bfabb9f561000000000081111561375f5760405160e560020a62461bcd0281526004018080602001828103825260288152602001806152f76028913960400191505060405180910390fd5b8085838151811061376c57fe5b60200260200101510185838151811061378157fe5b6020026020010181815250505050505b50600190940193613689565b6001546040805182815260208084028201019091526060919082908280156137cf578160200160208202803883390190505b50905060005b8281101561383557613816600182815481106137ed57fe5b6000918252602090912060088204015460079091166004026101000a900463ffffffff16613bdc565b82828151811061382257fe5b60209081029190910101526001016137d5565b5091505090565b606080835160405190808252806020026020018201604052801561386a578160200160208202803883390190505b5090505b848610156139d3576000600b878154811061388557fe5b9060005260206000209060050201905042816002015410806138a957506004810154155b156138b457506139c8565b60018101546000906138cb9063ffffffff16614968565b6040805160e081018252845467ffffffffffffffff81168252680100000000000000008104600160a060020a0316602083015260e060020a900460ff1691810191909152600184015463ffffffff16606082015260028401546080820152600384015460a0820152600484015460c08201819052875192935060009261396692919089908690811061395957fe5b6020026020010151614ba3565b905080156139c4576000898152600c602052604090208054613992908990600160a060020a0316614b5a565b9250818584815181106139a157fe5b6020026020010151038584815181106139b657fe5b602002602001018181525050505b5050505b60019095019461386e565b95945050505050565b600754604080517f41976e09000000000000000000000000000000000000000000000000000000008152600160a060020a0384811660048301529151600093849316916341976e09916024808301926020929190829003018186803b158015613a4457600080fd5b505afa158015613a58573d6000803e3d6000fd5b505050506040513d6020811015613a6e57600080fd5b5051905060648110801590613a9057506c0c9f2c9cd04674edea400000008111155b61218457600080fd5b60008082118015613aac5750600b548211155b613b00576040805160e560020a62461bcd02815260206004820152601660248201527f6f7074696f6e206964206973206e6f7420657869737400000000000000000000604482015290519081900360640190fd5b600b6001830381548110613b1057fe5b90600052602060002090600502019050919050565b4281608001511161253f576040805160e560020a62461bcd02815260206004820152601160248201527f6f7074696f6e2069732065787069726564000000000000000000000000000000604482015290519081900360640190fd5b808260c001511015611d8e576040805160e560020a62461bcd02815260206004820152601d60248201527f6f7074696f6e20616d6f756e7420697320696e73756666696369656e74000000604482015290519081900360640190fd5b600754604080517fda6632570000000000000000000000000000000000000000000000000000000081526004810184905290516000928392600160a060020a039091169163da66325791602480820192602092909190829003018186803b158015613a4457600080fd5b600060ff8416158284111415613c5e57506000613338565b60ff841615613c6f57818303613c73565b8282035b9050613338565b6000613c8583613a99565b6040805160e081018252825467ffffffffffffffff81168252680100000000000000008104600160a060020a0316602083015260e060020a900460ff1691810191909152600182015463ffffffff16606082015260028201546080820152600382015460a0820152600482015460c0820152909150613d0390613b25565b6040805160e081018252825467ffffffffffffffff81168252680100000000000000008104600160a060020a0316602083015260e060020a900460ff1691810191909152600182015463ffffffff16606082015260028201546080820152600382015460a0820152600482015460c0820152613d7f9085614cb6565b6040805160e081018252825467ffffffffffffffff81168252680100000000000000008104600160a060020a0316602083015260e060020a900460ff1691810191909152600182015463ffffffff16606082015260028201546080820152600382015460a0820152600482015460c0820152613dfb9083613b80565b60048101805483900390556040805183815290518491600160a060020a038716917f1fb99acdc281bccbecb3d0073a307341181a8a7d3cd532fdaef5ce7200401c2d9181900360200190a350505050565b600082613e6285604001518660a0015185614d23565b029050701d6329f1c35ca4bfabb9f5610000000000811115613eb85760405160e560020a62461bcd02815260040180806020018281038252602a815260200180615287602a913960400191505060405180910390fd5b604084015160ff16613ed257601480548290039055613edc565b6015805482900390555b50505050565b6000613eef858585614ba3565b85516000190167ffffffffffffffff166000908152600c602052604081206003810154929350918410613f23576000613f2b565b838260030154035b9050670de0b6b3a764000086828460010154020281613f4657fe5b83549190049150613f5f90600160a060020a03166139dc565b8381613f6757fe5b9254600160a060020a03166000908152601060205260409020805491909305919091030190555050505050565b613fed82805480602002602001604051908101604052809291908181526020018280548015613fe257602002820191906000526020600020905b815481526020019060010190808311613fce575b505050505082614535565b611d8e5781546001810183556000928352602090922090910155565b8154600090815b81811015614043578385828154811061402557fe5b9060005260206000200154141561403b57614043565b600101614010565b818110156140a4576001820381146140885784600183038154811061406457fe5b906000526020600020015485828154811061407b57fe5b6000918252602090912001555b84546140988660001983016151a8565b50600192505050612184565b506000949350505050565b600b5460006140bd86614d41565b9050600b6040518060e001604052808460010167ffffffffffffffff1681526020018a600160a060020a031681526020018860ff1681526020018363ffffffff1681526020014261410d8a614d5a565b0181526fffffffffffffffffffffffffffffffff888116602080840191909152908716604092830152835460018082018655600095865282862085516005909302018054868501518787015167ffffffffffffffff1990921667ffffffffffffffff958616177fffffffff0000000000000000000000000000000000000000ffffffffffffffff1668010000000000000000600160a060020a0392831602177fffffff00ffffffffffffffffffffffffffffffffffffffffffffffffffffffff1660e060020a60ff909316929092029190911782556060870151828401805463ffffffff191663ffffffff9092169190911790556080870151600283015560a0870151600383015560c090960151600490910155938d168552600d825291842080548085018255908552932091850116910155600b80546142f691908490811061425357fe5b60009182526020918290206040805160e081018252600593909302909101805467ffffffffffffffff81168452680100000000000000008104600160a060020a03169484019490945260e060020a90930460ff1690820152600182015463ffffffff16606082015260028201546080820152600382015460a082015260049091015460c08201528886887001000000000000000000000000000000008804614d7b565b61430282600101614f70565b70010000000000000000000000000000000084048460018401600160a060020a038b167f18f523957030bee670136363e25b2f847bf1bd07bb7b33c6d5475936a9aac70d8a864261435283614d5a565b6040805160ff909516855263ffffffff909316602085015201828201526401000000006fffffffffffffffffffffffffffffffff888802811691909104811660608401528a166080830152519081900360a00190a350505050505050505050565b6143bb615015565b600b60018303815481106143cb57fe5b600091825260208083206040805160e0810182526005909402909101805467ffffffffffffffff81168552600160a060020a03680100000000000000008204168585015260ff60e060020a9091041684830152600181015463ffffffff1660608501526002808201546080860152600382015460a086015260049091015460c085015260001987018552600c90925283209081015491935091906144709084906149f9565b9050826040015160ff166000141561448f576014805482019055613edc565b601580548201905550505050565b614500828054806020026020016040519081016040528092919081815260200182805480156144f557602002820191906000526020600020905b8154600160a060020a031681526001909101906020018083116144d7575b505050505082614f83565b611d8e578154600181018355600083815260209020018054600160a060020a038316600160a060020a03199091161790555050565b8151600090815b818110156140a4578385828151811061455157fe5b6020026020010151141561456a57600192505050612184565b60010161453c565b8154600090815b818110156145bf5783600160a060020a031685828154811061459757fe5b600091825260209091200154600160a060020a031614156145b7576145bf565b600101614579565b818110156140a457600182038114614088578460018303815481106145e057fe5b9060005260206000200160009054906101000a9004600160a060020a031685828154811061460a57fe5b9060005260206000200160006101000a815481600160a060020a030219169083600160a060020a0316021790555084546140988660001983016151a8565b6146cd828054806020026020016040519081016040528092919081815260200182805480156146c257602002820191906000526020600020906000905b82829054906101000a900463ffffffff1663ffffffff16815260200190600401906020826003010492830192600103820291508084116146855790505b5050505050826147ff565b611d8e578154600181018355600092835260209092206008830401805460079093166004026101000a63ffffffff818102199094169290931692909202179055565b8154600090815b81811015614768578363ffffffff1685828154811061473157fe5b6000918252602090912060088204015460079091166004026101000a900463ffffffff16141561476057614768565b600101614716565b818110156140a4576001820381146147ef5784600183038154811061478957fe5b90600052602060002090600891828204019190066004029054906101000a900463ffffffff168582815481106147bb57fe5b90600052602060002090600891828204019190066004026101000a81548163ffffffff021916908363ffffffff1602179055505b84546140988660001983016151d1565b8151600090815b818110156140a4578363ffffffff1685828151811061482157fe5b602002602001015163ffffffff16141561484057600192505050612184565b600101614806565b600160a060020a0381166148905760405160e560020a62461bcd0281526004018080602001828103825260268152602001806152b16026913960400191505060405180910390fd5b60008054604051600160a060020a03808516939216917f8be0079c531659141344cd1fd0a4f28419497f9722a3daafe3b4186f6b6457e091a360008054600160a060020a031916600160a060020a0392909216919091179055565b600080838086111561490157859250905061364f565b8095505b8386101561495c576000600b878154811061491c57fe5b90600052602060002090600502019050428160020154108061494057506004810154155b1561494b5750614951565b5061495c565b600190950194614905565b50939485945092505050565b60006121848260018054806020026020016040519081016040528092919081815260200182805480156149e657602002820191906000526020600020906000905b82829054906101000a900463ffffffff1663ffffffff16815260200190600401906020826003010492830192600103820291508084116149a95790505b5050505050614fd290919063ffffffff16565b6000428360800151111580614a10575060c0830151155b15614a1d57506000612184565b60008360c00151614a3785604001518660a0015186614d23565b029050701d6329f1c35ca4bfabb9f56100000000008111156133385760405160e560020a62461bcd02815260040180806020018281038252602a815260200180615287602a913960400191505060405180910390fd5b600042841115614b4e57600954604080517f62df80ce000000000000000000000000000000000000000000000000000000008152600481018990526024810188905242870360448201526064810186905260ff851660848201529051600160a060020a03909216916362df80ce9160a480820192602092909190829003018186803b158015614b1b57600080fd5b505afa158015614b2f573d6000803e3d6000fd5b505050506040513d6020811015614b4557600080fd5b505190506139d3565b50600095945050505050565b8151600090815b81811015611f185783600160a060020a0316858281518110614b7f57fe5b6020026020010151600160a060020a03161415614b9b57611f18565b600101614b61565b6000428460800151111580614bb6575082155b15614bc357506000613338565b600083614bd986604001518760a0015186613c46565b0290506000600c6000600188600001510367ffffffffffffffff1681526020019081526020016000209050600085614c1e88604001518960a001518560020154613c46565b029050808303701d6329f1c35ca4bfabb9f560ffffffffff198112801590614c575750701d6329f1c35ca4bfabb9f56100000000008113155b614cab576040805160e560020a62461bcd02815260206004820152601c60248201527f6f7074696f6e732066616c6c2063616c63756c617465206572726f7200000000604482015290519081900360640190fd5b979650505050505050565b80600160a060020a03168260200151600160a060020a031614611d8e576040805160e560020a62461bcd02815260206004820152601f60248201527f63616c6c6572206973206e6f7420746865206f7074696f6e73206f776e657200604482015290519081900360640190fd5b600060ff8416158284111415614d3a575081613338565b5080613338565b68010000000000000000900467ffffffffffffffff1690565b700100000000000000000000000000000000900467ffffffffffffffff1690565b6080850151600854606087015160408089015181517f185d123200000000000000000000000000000000000000000000000000000000815263ffffffff909316600484015260ff16602483015242909303604482018190527001000000000000000000000000000000008604606483018190526fffffffffffffffffffffffffffffffff8716608484015293519092600092600160a060020a039091169163185d12329160a480820192602092909190829003018186803b158015614e3f57600080fd5b505afa158015614e53573d6000803e3d6000fd5b505050506040513d6020811015614e6957600080fd5b505190507001000000000000000000000000000000008604866000866401000000006fffffffffffffffffffffffffffffffff8416670de0b6b3a7640000020481614eb057fe5b6040805160c081018252600160a060020a039d8e168152929091046020808401918252838301998a526401000000006fffffffffffffffffffffffffffffffff9687169790961696909602859004606084019081526080840197885260a084019586529d516000190167ffffffffffffffff166000908152600c909652942090518154600160a060020a0319169b169a909a178a555090516001890155925160028801559651600387015550945160048501555050915160059091015550565b6000908152600260205260409020429055565b8151600090815b818110156140a45783600160a060020a0316858281518110614fa857fe5b6020026020010151600160a060020a03161415614fca57600192505050612184565b600101614f8a565b8151600090815b81811015611f18578363ffffffff16858281518110614ff457fe5b602002602001015163ffffffff16141561500d57611f18565b600101614fd9565b6040805160e081018252600080825260208201819052918101829052606081018290526080810182905260a0810182905260c081019190915290565b828054828255906000526020600020908101928215615093579160200282015b82811115615093578251829062ffffff16905591602001919060010190615071565b50611e18929150615201565b8280548282559060005260206000209060070160089004810192821561513b5791602002820160005b8382111561510957835183826101000a81548163ffffffff021916908360ff16021790555092602001926004016020816003010492830192600103026150c8565b80156151395782816101000a81549063ffffffff0219169055600401602081600301049283019260010302615109565b505b50611e1892915061521b565b82805482825590600052602060002090810192821561519c579160200282015b8281111561519c5782518254600160a060020a031916600160a060020a03909116178255602090920191600190910190615167565b50611e1892915061523c565b8154818355818111156151cc576000838152602090206151cc918101908301615201565b505050565b8154818355818111156151cc5760070160089004816007016008900483600052602060002091820191016151cc91905b611d2591905b80821115611e185760008155600101615207565b611d2591905b80821115611e1857805463ffffffff19168155600101615221565b611d2591905b80821115611e18578054600160a060020a031916815560010161524256fe4d616e6167657261626c653a2063616c6c6572206973206e6f7420746865204d616e616765724f7074696f6e20636f6c6c61746572616c206f636375706965642063616c63756c617465206572726f724f776e61626c653a206e6577206f776e657220697320746865207a65726f20616464726573734f776e61626c653a2063616c6c6572206973206e6f7420746865206f776e65726f7074696f6e2074696d65207368617265642076616c75652063616c63756c617465206572726f724f70657261746f723a2063616c6c6572206973206e6f742074686520656c696769626c65204f70657261746f7265787069726174696f6e2076616c7565206973206e6f7420737570706f72746564696e70757420616d6f756e74206973206c6172676572207468616e206d6178696d69756d546f74616c4f63637570696564436f6c6c61746572616c2063616c63756c617465206f766572666c6f77a265627a7a72315820bf354c6e457829ce9f5c993af703b8d333ff11283aba80243a246e2e0feb7dd764736f6c63430005100032",
  "source": "pragma solidity =0.5.16;\r\nimport \"./OptionsNetWorthCal.sol\";\r\n/**\r\n * @title Options pool contract.\r\n * @dev store options' information and nessesary options' calculation.\r\n *\r\n */\r\ncontract OptionsPool is OptionsNetWorthCal {\r\n    /**\r\n     * @dev constructor function , setting contract address.\r\n     * @param oracleAddr FNX oracle contract address\r\n     * @param optionsPriceAddr options price contract address\r\n     * @param ivAddress implied volatility contract address\r\n     */  \r\n    constructor (address oracleAddr,address optionsPriceAddr,address ivAddress)public{\r\n        _oracle = IFNXOracle(oracleAddr);\r\n        _optionsPrice = IOptionsPrice(optionsPriceAddr);\r\n        _volatility = IVolatility(ivAddress);\r\n    }\r\n    function update() onlyOwner public {\r\n\r\n    }\r\n    /**\r\n     * @dev retrieve all information for collateral occupied and net worth calculation.\r\n     * @param whiteList settlement address whitelist.\r\n     */ \r\n    function getOptionCalRangeAll(address[] memory whiteList)public view returns(uint256,int256){\r\n        return (1,int256(1));\r\n        (uint256 occupiedFirst,int256 callOccupiedlatest,int256 putOccupiedlatest) = getOccupiedCalInfo();\r\n        (uint256 netFirst,int256[] memory netLatest) = getNetWrothCalInfo(whiteList);\r\n//        return (occupiedFirst,callOccupiedlatest,putOccupiedlatest,netFirst,netLatest,allOptions.length,block.number);\r\n    }\r\n    /**\r\n     * @dev create new option,modify collateral occupied and net worth value, only manager contract can invoke this.\r\n     * @param from user's address.\r\n     * @param settlement user's input settlement coin.\r\n     * @param type_ly_exp tuple64 for option type,underlying,expiration.\r\n     * @param strikePrice user's input new option's strike price.\r\n     * @param priceRate current new option's price, calculated by options price contract.\r\n     * @param amount user's input new option's amount.\r\n     */ \r\n    function createOptions(address from,address settlement,uint256 type_ly_exp,uint256 strikePrice,uint256 priceRate,\r\n                uint256 amount) onlyManager public{\r\n        _createOptions(from,settlement,type_ly_exp,strikePrice,priceRate,amount);\r\n        _addOptionsCollateral(allOptions.length);\r\n//        return price;\r\n//        _addNewOptionsNetworth(info);\r\n    }\r\n    /**\r\n     * @dev burn option,modify collateral occupied and net worth value, only manager contract can invoke this.\r\n     * @param from user's address.\r\n     * @param id user's input option's id.\r\n     * @param amount user's input burned option's amount.\r\n     * @param optionPrice current new option's price, calculated by options price contract.\r\n     */ \r\n    function burnOptions(address from,uint256 id,uint256 amount,uint256 optionPrice)public onlyManager Smaller(amount) OutLimitation(id){\r\n        _burnOptions(from,id,amount);\r\n        OptionsInfo memory info = _getOptionsById(id);\r\n        uint256 currentPrice = oracleUnderlyingPrice(info.underlying);\r\n        _burnOptionsCollateral(info,amount,currentPrice);\r\n        _burnOptionsNetworth(info,amount,currentPrice,optionPrice);\r\n    }\r\n}",
  "sourcePath": "C:\\work\\solidity\\FinnexusOptions_V2\\contracts\\OptionsPool\\OptionsPool.sol",
  "compiler": {
    "name": "solc",
    "version": "0.5.16+commit.9c3226ce.Emscripten.clang"
  },
  "schemaVersion": "3.1.0",
  "updatedAt": "2020-10-21T03:26:50.437Z",
  "devdoc": {
    "details": "store options' information and nessesary options' calculation.  ",
    "methods": {
      "addExpiration(uint256)": {
        "details": "Implementation of add an eligible expiration into the expirationList.",
        "params": {
          "expiration": "new eligible expiration."
        }
      },
      "addOperator(address)": {
        "details": "add a new operator by owner.       "
      },
      "addUnderlyingAsset(uint32)": {
        "details": "Implementation of add an eligible underlying into the underlyingAssets.",
        "params": {
          "underlying": "new eligible underlying."
        }
      },
      "burnOptions(address,uint256,uint256,uint256)": {
        "details": "burn option,modify collateral occupied and net worth value, only manager contract can invoke this.",
        "params": {
          "amount": "user's input burned option's amount.",
          "from": "user's address.",
          "id": "user's input option's id.",
          "optionPrice": "current new option's price, calculated by options price contract."
        }
      },
      "buyOptionCheck(uint256,uint32)": {
        "details": "check option's underlying and expiration.",
        "params": {
          "expiration": "option's expiration",
          "underlying": "option's underlying"
        }
      },
      "calRangeSharedPayment(uint256,uint256,uint256,address[])": {
        "details": "calculate options time shared value,from begin to end in the alloptionsList.",
        "params": {
          "begin": "the begin options position.",
          "end": "the end options position.",
          "lastOption": "the last option position.",
          "whiteList": "eligible collateral address white list."
        }
      },
      "calculatePhaseOccupiedCollateral(uint256,uint256,uint256)": {
        "details": "calculate collateral occupied value.",
        "params": {
          "beginOption": "begin option's poisiton.",
          "endOption": "end option's poisiton.",
          "lastOption": "last option's position."
        }
      },
      "calculatePhaseOptionsFall(uint256,uint256,uint256,address[])": {
        "details": "calculate options payback fall value,from begin to end in the alloptionsList.",
        "params": {
          "begin": "the begin options position.",
          "end": "the end options position.",
          "lastOption": "the last option position.",
          "whiteList": "eligible collateral address white list."
        }
      },
      "checkExpiration(uint256)": {
        "details": "check option's expiration.",
        "params": {
          "expiration": "option's expiration"
        }
      },
      "constructor": {
        "details": "constructor function , setting contract address.",
        "params": {
          "ivAddress": "implied volatility contract address",
          "optionsPriceAddr": "options price contract address",
          "oracleAddr": "FNX oracle contract address"
        }
      },
      "createOptions(address,address,uint256,uint256,uint256,uint256)": {
        "details": "create new option,modify collateral occupied and net worth value, only manager contract can invoke this.",
        "params": {
          "amount": "user's input new option's amount.",
          "from": "user's address.",
          "priceRate": "current new option's price, calculated by options price contract.",
          "settlement": "user's input settlement coin.",
          "strikePrice": "user's input new option's strike price.",
          "type_ly_exp": "tuple64 for option type,underlying,expiration."
        }
      },
      "getBurnedFullPay(uint256,uint256)": {
        "details": "calculate `amount` number of Option's full price when option is burned.",
        "params": {
          "amount": "option's amount",
          "optionID": "option's optionID"
        }
      },
      "getCallTotalOccupiedCollateral()": {
        "details": "get call options total collateral occupied value."
      },
      "getExerciseWorth(uint256,uint256)": {
        "details": "calculate option's exercise worth.",
        "params": {
          "amount": "option's amount",
          "optionsId": "option's id"
        }
      },
      "getExpirationList()": {
        "details": "Implementation of getting the eligible expirationList."
      },
      "getInputAmountRange()": {
        "details": "get the valid range of input amount"
      },
      "getItemTimeLimitation(uint256)": {
        "details": "Retrieve user's start time for burning. ",
        "params": {
          "item": "item key."
        }
      },
      "getManager()": {
        "details": "get manager address.       "
      },
      "getNetWrothCalInfo(address[])": {
        "details": "retrieve all information for net worth calculation. ",
        "params": {
          "whiteList": "collateral address whitelist."
        }
      },
      "getNetWrothLatestWorth(address)": {
        "details": "retrieve latest options net worth which paid in settlement coin. ",
        "params": {
          "settlement": "settlement coin address."
        }
      },
      "getOccupiedCalInfo()": {
        "details": "retrieve collateral occupied calculation information."
      },
      "getOperator()": {
        "details": "get all operators.       "
      },
      "getOptionCalRangeAll(address[])": {
        "details": "retrieve all information for collateral occupied and net worth calculation.",
        "params": {
          "whiteList": "settlement address whitelist."
        }
      },
      "getOptionInfoLength()": {
        "details": "retrieve all option list length. "
      },
      "getOptionInfoList(uint256,uint256)": {
        "details": "retrieve `size` number of options' information. ",
        "params": {
          "from": "all option list begin positon.",
          "size": "retrieve size."
        }
      },
      "getOptionInfoListFromID(uint256[])": {
        "details": "retrieve given `ids` options' information. ",
        "params": {
          "ids": "retrieved options' id."
        }
      },
      "getOptionsById(uint256)": {
        "details": "retrieve given `optionsId` option's information. ",
        "params": {
          "optionsId": "retrieved option's id."
        }
      },
      "getOptionsExtraById(uint256)": {
        "details": "retrieve given `optionsId` option's extra information. ",
        "params": {
          "optionsId": "retrieved option's id."
        }
      },
      "getOptionsLimitTimeById(uint256)": {
        "details": "retrieve given `optionsId` option's burned limit timestamp. ",
        "params": {
          "optionsId": "retrieved option's id."
        }
      },
      "getPutTotalOccupiedCollateral()": {
        "details": "get put options total collateral occupied value."
      },
      "getTotalOccupiedCollateral()": {
        "details": "get real total collateral occupied value."
      },
      "getUnderlyingAssets()": {
        "details": "Implementation of getting the eligible underlyingAssets."
      },
      "getUserOptionsID(address)": {
        "details": "retrieve user's options' id. ",
        "params": {
          "user": "user's account."
        }
      },
      "getUserOptionsID(address,uint256,uint256)": {
        "details": "retrieve user's `size` number of options' id. ",
        "params": {
          "from": "user's option list begin positon.",
          "size": "retrieve size.",
          "user": "user's account."
        }
      },
      "isEligibleExpiration(uint256)": {
        "details": "Implementation of testing whether the input expiration is eligible.",
        "params": {
          "expiration": "input expiration for testing."
        }
      },
      "isEligibleUnderlyingAsset(uint32)": {
        "details": "Implementation of testing whether the input underlying is eligible.",
        "params": {
          "underlying": "input underlying for testing."
        }
      },
      "isInputAmountInRange(uint256)": {
        "details": "Determine whether the input amount is within the valid range",
        "params": {
          "Amount": "Test value which is user input"
        }
      },
      "isOwner()": {
        "details": "Returns true if the caller is the current owner."
      },
      "owner()": {
        "details": "Returns the address of the current owner."
      },
      "removeExpirationList(uint256)": {
        "details": "Implementation of revoke an invalid expiration from the expirationList.",
        "params": {
          "removeExpiration": "revoked expiration."
        }
      },
      "removeOperator(address)": {
        "details": "remove operator by owner.       "
      },
      "removeUnderlyingAssets(uint32)": {
        "details": "Implementation of revoke an invalid underlying from the underlyingAssets.",
        "params": {
          "removeUnderlying": "revoked underlying."
        }
      },
      "renounceOwnership()": {
        "details": "Leaves the contract without owner. It will not be possible to call `onlyOwner` functions anymore. Can only be called by the current owner.      * NOTE: Renouncing ownership will leave the contract without an owner, thereby removing any functionality that is only available to the owner."
      },
      "setCollateralPhase(uint256,uint256,uint256,int256,int256)": {
        "details": "set collateral occupied value, only foundation operator can modify database.",
        "params": {
          "beginOption": "new first valid option's positon.",
          "latestCallOccpied": "latest call options' occupied value when operater invoke collateral occupied calculation.",
          "latestPutOccpied": "latest put options' occupied value when operater invoke collateral occupied calculation.",
          "totalCallOccupied": "new call options occupied collateral calculation result.",
          "totalPutOccupied": "new put options occupied collateral calculation result."
        }
      },
      "setInputAmountRange(uint256,uint256)": {
        "details": "set the valid range of input amount",
        "params": {
          "_maxAmount": "the maximum input amount limit",
          "_minAmount": "the minimum input amount limit"
        }
      },
      "setManager(address)": {
        "details": "set manager by owner.       "
      },
      "setOccupiedCollateral()": {
        "details": "calculate collateral occupied value, and modify database, only foundation operator can modify database."
      },
      "setOperator(uint256,address)": {
        "details": "modify indexed operator by owner.       "
      },
      "setOperators(address[])": {
        "details": "set all operators by owner.       "
      },
      "setSharedState(uint256,int256[],address[])": {
        "details": "set latest options net worth balance, only manager contract can modify database.",
        "params": {
          "latestNetWorth": "latest options net worth.",
          "newFirstOption": "new first valid option position.",
          "whiteList": "eligible collateral address white list."
        }
      },
      "setTimeLimitation(uint256)": {
        "details": "set time limitation, only owner can invoke. ",
        "params": {
          "_limitation": "new time limitation."
        }
      },
      "transferOwnership(address)": {
        "details": "Transfers ownership of the contract to a new account (`newOwner`). Can only be called by the current owner."
      }
    },
    "title": "Options pool contract."
  },
  "userdoc": {
    "methods": {}
  }
}