{
  "contractName": "OptionslPool",
  "abi": [
    {
      "constant": true,
      "inputs": [],
      "name": "getWhiteList",
      "outputs": [
        {
          "name": "",
          "type": "address[]"
        }
      ],
      "payable": false,
      "stateMutability": "view",
      "type": "function"
    },
    {
      "constant": true,
      "inputs": [],
      "name": "lastCallOption",
      "outputs": [
        {
          "name": "",
          "type": "uint256"
        }
      ],
      "payable": false,
      "stateMutability": "view",
      "type": "function"
    },
    {
      "constant": false,
      "inputs": [
        {
          "name": "removeAddress",
          "type": "address"
        }
      ],
      "name": "removeWhiteList",
      "outputs": [],
      "payable": false,
      "stateMutability": "nonpayable",
      "type": "function"
    },
    {
      "constant": false,
      "inputs": [],
      "name": "redeemAll",
      "outputs": [],
      "payable": false,
      "stateMutability": "nonpayable",
      "type": "function"
    },
    {
      "constant": true,
      "inputs": [
        {
          "name": "",
          "type": "uint256"
        }
      ],
      "name": "underlyingAssets",
      "outputs": [
        {
          "name": "",
          "type": "uint32"
        }
      ],
      "payable": false,
      "stateMutability": "view",
      "type": "function"
    },
    {
      "constant": true,
      "inputs": [
        {
          "name": "",
          "type": "address"
        },
        {
          "name": "",
          "type": "uint256"
        }
      ],
      "name": "optionsBalances",
      "outputs": [
        {
          "name": "",
          "type": "uint256"
        }
      ],
      "payable": false,
      "stateMutability": "view",
      "type": "function"
    },
    {
      "constant": true,
      "inputs": [],
      "name": "collateralRate",
      "outputs": [
        {
          "name": "value",
          "type": "uint256"
        },
        {
          "name": "exponent",
          "type": "int32"
        }
      ],
      "payable": false,
      "stateMutability": "view",
      "type": "function"
    },
    {
      "constant": true,
      "inputs": [
        {
          "name": "",
          "type": "uint256"
        }
      ],
      "name": "whiteList",
      "outputs": [
        {
          "name": "",
          "type": "address"
        }
      ],
      "payable": false,
      "stateMutability": "view",
      "type": "function"
    },
    {
      "constant": false,
      "inputs": [],
      "name": "renounceOwnership",
      "outputs": [],
      "payable": false,
      "stateMutability": "nonpayable",
      "type": "function"
    },
    {
      "constant": true,
      "inputs": [],
      "name": "lastCalBlock",
      "outputs": [
        {
          "name": "",
          "type": "uint256"
        }
      ],
      "payable": false,
      "stateMutability": "view",
      "type": "function"
    },
    {
      "constant": true,
      "inputs": [
        {
          "name": "tmpAddress",
          "type": "address"
        }
      ],
      "name": "isEligibleAddress",
      "outputs": [
        {
          "name": "",
          "type": "bool"
        }
      ],
      "payable": false,
      "stateMutability": "view",
      "type": "function"
    },
    {
      "constant": true,
      "inputs": [],
      "name": "getTransactionFee",
      "outputs": [
        {
          "name": "",
          "type": "uint256"
        },
        {
          "name": "",
          "type": "int32"
        }
      ],
      "payable": false,
      "stateMutability": "view",
      "type": "function"
    },
    {
      "constant": true,
      "inputs": [],
      "name": "owner",
      "outputs": [
        {
          "name": "",
          "type": "address"
        }
      ],
      "payable": false,
      "stateMutability": "view",
      "type": "function"
    },
    {
      "constant": true,
      "inputs": [
        {
          "name": "",
          "type": "uint256"
        }
      ],
      "name": "allOptions",
      "outputs": [
        {
          "name": "optionID",
          "type": "uint256"
        },
        {
          "name": "owner",
          "type": "address"
        },
        {
          "name": "optType",
          "type": "uint8"
        },
        {
          "name": "underlying",
          "type": "uint32"
        },
        {
          "name": "expiration",
          "type": "uint256"
        },
        {
          "name": "strikePrice",
          "type": "uint256"
        },
        {
          "name": "amount",
          "type": "uint256"
        },
        {
          "name": "ivNumerator",
          "type": "int256"
        },
        {
          "name": "ivDenominator",
          "type": "int256"
        }
      ],
      "payable": false,
      "stateMutability": "view",
      "type": "function"
    },
    {
      "constant": true,
      "inputs": [],
      "name": "isOwner",
      "outputs": [
        {
          "name": "",
          "type": "bool"
        }
      ],
      "payable": false,
      "stateMutability": "view",
      "type": "function"
    },
    {
      "constant": false,
      "inputs": [
        {
          "name": "currency",
          "type": "address"
        }
      ],
      "name": "redeem",
      "outputs": [],
      "payable": false,
      "stateMutability": "nonpayable",
      "type": "function"
    },
    {
      "constant": false,
      "inputs": [
        {
          "name": "removeUnderlying",
          "type": "uint32"
        }
      ],
      "name": "removeunderlyingAssets",
      "outputs": [],
      "payable": false,
      "stateMutability": "nonpayable",
      "type": "function"
    },
    {
      "constant": true,
      "inputs": [
        {
          "name": "",
          "type": "address"
        }
      ],
      "name": "managerFee",
      "outputs": [
        {
          "name": "",
          "type": "uint256"
        }
      ],
      "payable": false,
      "stateMutability": "view",
      "type": "function"
    },
    {
      "constant": true,
      "inputs": [],
      "name": "transactionFee",
      "outputs": [
        {
          "name": "value",
          "type": "uint256"
        },
        {
          "name": "exponent",
          "type": "int32"
        }
      ],
      "payable": false,
      "stateMutability": "view",
      "type": "function"
    },
    {
      "constant": true,
      "inputs": [
        {
          "name": "",
          "type": "uint256"
        },
        {
          "name": "",
          "type": "uint256"
        },
        {
          "name": "",
          "type": "uint256"
        }
      ],
      "name": "burnBlockOptions",
      "outputs": [
        {
          "name": "",
          "type": "uint256"
        }
      ],
      "payable": false,
      "stateMutability": "view",
      "type": "function"
    },
    {
      "constant": false,
      "inputs": [
        {
          "name": "underlying",
          "type": "uint32"
        }
      ],
      "name": "addUnderlyingAsset",
      "outputs": [],
      "payable": false,
      "stateMutability": "nonpayable",
      "type": "function"
    },
    {
      "constant": true,
      "inputs": [],
      "name": "halted",
      "outputs": [
        {
          "name": "",
          "type": "bool"
        }
      ],
      "payable": false,
      "stateMutability": "view",
      "type": "function"
    },
    {
      "constant": true,
      "inputs": [],
      "name": "optionPhase",
      "outputs": [
        {
          "name": "",
          "type": "uint32"
        }
      ],
      "payable": false,
      "stateMutability": "view",
      "type": "function"
    },
    {
      "constant": true,
      "inputs": [
        {
          "name": "settlement",
          "type": "address"
        }
      ],
      "name": "getFeeBalance",
      "outputs": [
        {
          "name": "",
          "type": "uint256"
        }
      ],
      "payable": false,
      "stateMutability": "view",
      "type": "function"
    },
    {
      "constant": true,
      "inputs": [
        {
          "name": "underlying",
          "type": "uint32"
        }
      ],
      "name": "isEligibleUnderlyingAsset",
      "outputs": [
        {
          "name": "",
          "type": "bool"
        }
      ],
      "payable": false,
      "stateMutability": "view",
      "type": "function"
    },
    {
      "constant": false,
      "inputs": [
        {
          "name": "value",
          "type": "uint256"
        },
        {
          "name": "exponent",
          "type": "int32"
        }
      ],
      "name": "setTransactionFee",
      "outputs": [],
      "payable": false,
      "stateMutability": "nonpayable",
      "type": "function"
    },
    {
      "constant": false,
      "inputs": [
        {
          "name": "addAddress",
          "type": "address"
        }
      ],
      "name": "addWhiteList",
      "outputs": [],
      "payable": false,
      "stateMutability": "nonpayable",
      "type": "function"
    },
    {
      "constant": true,
      "inputs": [],
      "name": "getunderlyingAssets",
      "outputs": [
        {
          "name": "",
          "type": "uint32[]"
        }
      ],
      "payable": false,
      "stateMutability": "view",
      "type": "function"
    },
    {
      "constant": true,
      "inputs": [],
      "name": "getAllFeeBalances",
      "outputs": [
        {
          "name": "",
          "type": "address[]"
        },
        {
          "name": "",
          "type": "uint256[]"
        }
      ],
      "payable": false,
      "stateMutability": "view",
      "type": "function"
    },
    {
      "constant": false,
      "inputs": [
        {
          "name": "newOwner",
          "type": "address"
        }
      ],
      "name": "transferOwnership",
      "outputs": [],
      "payable": false,
      "stateMutability": "nonpayable",
      "type": "function"
    },
    {
      "constant": false,
      "inputs": [
        {
          "name": "halt",
          "type": "bool"
        }
      ],
      "name": "setHalt",
      "outputs": [],
      "payable": false,
      "stateMutability": "nonpayable",
      "type": "function"
    },
    {
      "anonymous": false,
      "inputs": [
        {
          "indexed": true,
          "name": "recieptor",
          "type": "address"
        },
        {
          "indexed": true,
          "name": "collateral",
          "type": "address"
        },
        {
          "indexed": false,
          "name": "payback",
          "type": "uint256"
        }
      ],
      "name": "TransferPayback",
      "type": "event"
    },
    {
      "anonymous": false,
      "inputs": [
        {
          "indexed": true,
          "name": "previousOwner",
          "type": "address"
        },
        {
          "indexed": true,
          "name": "newOwner",
          "type": "address"
        }
      ],
      "name": "OwnershipTransferred",
      "type": "event"
    },
    {
      "constant": false,
      "inputs": [
        {
          "name": "index",
          "type": "uint256"
        }
      ],
      "name": "calculatePhaseOccupiedCollateral",
      "outputs": [],
      "payable": false,
      "stateMutability": "nonpayable",
      "type": "function"
    },
    {
      "constant": true,
      "inputs": [],
      "name": "getTotalOccupiedCollateral",
      "outputs": [
        {
          "name": "",
          "type": "uint256"
        }
      ],
      "payable": false,
      "stateMutability": "view",
      "type": "function"
    }
  ],
  "bytecode": "0x6002805460ff1916905560c060408190526003608081905260021960a0526005556006805463fffffffd63ffffffff19918216179091556402540be400600c556000600e819055600f80549092166101f4179091558054600160a060020a0319163317808255600160a060020a0316917f8be0079c531659141344cd1fd0a4f28419497f9722a3daafe3b4186f6b6457e0908290a3611fdd806100a36000396000f3006080604052600436106101875763ffffffff60e060020a60003504166309a9d76c811461018c578063132a5627146101f15780632042e5c2146102185780632f4350c21461023b5780633b50c4d11461025057806355c47cb21461028157806358a6be1c146102a55780635c475d42146102d8578063715018a61461030c57806373a3d424146103215780637e2eeb7e14610336578063817bf86d1461034b57806385d79102146103805780638da5cb5b146103955780638ea745b8146103aa5780638f32d59b1461041857806395a2251f1461042d57806395efd9891461044e5780639965a4d51461046c57806399deae0a1461048d5780639ed3edf0146104a5578063a95c594a146104ba578063afec82fc146104d8578063b9b8af0b146104f6578063c27b7dfb1461050b578063c78f680314610520578063db6ad2bd14610541578063e4a9d2be1461055f578063e7cd4a041461057d578063eba1f5601461059e578063f20568cd146105b3578063f2fde38b14610661578063f495438714610682575b600080fd5b34801561019857600080fd5b506101a161069c565b60408051602080825283518183015283519192839290830191858101910280838360005b838110156101dd5781810151838201526020016101c5565b505050509050019250505060405180910390f35b3480156101fd57600080fd5b506102066106ff565b60408051918252519081900360200190f35b34801561022457600080fd5b50610239600160a060020a0360043516610705565b005b34801561024757600080fd5b506102396107f6565b34801561025c57600080fd5b506102686004356109f4565b6040805163ffffffff9092168252519081900360200190f35b34801561028d57600080fd5b50610206600160a060020a0360043516602435610a2c565b3480156102b157600080fd5b506102ba610a5c565b60408051928352600391820b90910b60208301528051918290030190f35b3480156102e457600080fd5b506102f0600435610a68565b60408051600160a060020a039092168252519081900360200190f35b34801561031857600080fd5b50610239610a90565b34801561032d57600080fd5b50610206610b33565b34801561034257600080fd5b50610206610e13565b34801561035757600080fd5b5061036c600160a060020a0360043516610e19565b604080519115158252519081900360200190f35b34801561038c57600080fd5b506102ba610e30565b3480156103a157600080fd5b506102f0610e3d565b3480156103b657600080fd5b506103c2600435610e4c565b60408051998a52600160a060020a0390981660208a015260ff9096168888015263ffffffff9094166060880152608087019290925260a086015260c085015260e084015261010083015251908190036101200190f35b34801561042457600080fd5b5061036c610ed9565b34801561043957600080fd5b50610239600160a060020a0360043516610eea565b34801561045a57600080fd5b5061023963ffffffff60043516611099565b34801561047857600080fd5b50610206600160a060020a0360043516611198565b34801561049957600080fd5b506102396004356111aa565b3480156104b157600080fd5b506102ba611431565b3480156104c657600080fd5b5061020660043560243560443561143d565b3480156104e457600080fd5b5061023963ffffffff6004351661147d565b34801561050257600080fd5b5061036c611540565b34801561051757600080fd5b50610268611549565b34801561052c57600080fd5b50610206600160a060020a0360043516611555565b34801561054d57600080fd5b5061036c63ffffffff60043516611570565b34801561056b57600080fd5b5061023960043560243560030b611587565b34801561058957600080fd5b50610239600160a060020a03600435166115fa565b3480156105aa57600080fd5b506101a16116bc565b3480156105bf57600080fd5b506105c861173f565b604051808060200180602001838103835285818151815260200191508051906020019060200280838360005b8381101561060c5781810151838201526020016105f4565b50505050905001838103825284818151815260200191508051906020019060200280838360005b8381101561064b578181015183820152602001610633565b5050505090500194505050505060405180910390f35b34801561066d57600080fd5b50610239600160a060020a0360043516611848565b34801561068e57600080fd5b5061023960043515156118a0565b606060038054806020026020016040519081016040528092919081815260200182805480156106f457602002820191906000526020600020905b8154600160a060020a031681526001909101906020018083116106d6575b505050505090505b90565b60105481565b600061070f610ed9565b1515610753576040805160e560020a62461bcd0281526020600482018190526024820152600080516020611f92833981519152604482015290519081900360640190fd5b61075c826118ff565b6003549091508110156107f2576003546000190181146107dd5760038054600019810190811061078857fe5b60009182526020909120015460038054600160a060020a0390921691839081106107ae57fe5b9060005260206000200160006101000a815481600160a060020a030219169083600160a060020a031602179055505b60038054906107f0906000198301611f1f565b505b5050565b6000806000610803610ed9565b1515610847576040805160e560020a62461bcd0281526020600482018190526024820152600080516020611f92833981519152604482015290519081900360640190fd5b600092505b6003548310156107f0576004600060038581548110151561086957fe5b6000918252602080832090910154600160a060020a0316835282019290925260400181205492508211156109e9576000600460006003868154811015156108ac57fe5b6000918252602080832090910154600160a060020a0316835282019290925260400190205560038054849081106108df57fe5b600091825260208220015460038054600160a060020a039092169350908590811061090657fe5b600091825260209091200154600160a060020a0316141561095457604051339083156108fc029084906000818181858888f1935050505015801561094e573d6000803e3d6000fd5b506109e9565b604080517fa9059cbb000000000000000000000000000000000000000000000000000000008152336004820152602481018490529051600160a060020a0383169163a9059cbb9160448083019260209291908290030181600087803b1580156109bc57600080fd5b505af11580156109d0573d6000803e3d6000fd5b505050506040513d60208110156109e657600080fd5b50505b60019092019161084c565b6001805482908110610a0257fe5b9060005260206000209060089182820401919006600402915054906101000a900463ffffffff1681565b600a60205281600052604060002081815481101515610a4757fe5b90600052602060002001600091509150505481565b60075460085460030b82565b6003805482908110610a7657fe5b600091825260209091200154600160a060020a0316905081565b610a98610ed9565b1515610adc576040805160e560020a62461bcd0281526020600482018190526024820152600080516020611f92833981519152604482015290519081900360640190fd5b60008054604051600160a060020a03909116907f8be0079c531659141344cd1fd0a4f28419497f9722a3daafe3b4186f6b6457e0908390a36000805473ffffffffffffffffffffffffffffffffffffffff19169055565b60008060606000806000806000610b48611954565b6001546040805182815260208084028201019091529198508015610b76578160200160208202803883390190505b509550600094505b600154851015610c6057600b5460018054600160a060020a039092169163da663257919088908110610bac57fe5b90600052602060002090600891828204019190066004029054906101000a900463ffffffff166040518263ffffffff1660e060020a028152600401808263ffffffff168152602001915050602060405180830381600087803b158015610c1157600080fd5b505af1158015610c25573d6000803e3d6000fd5b505050506040513d6020811015610c3b57600080fd5b50518651879087908110610c4b57fe5b60209081029091010152600190940193610b7e565b60105460010193505b600d54841015610d0857610cac600d85815481101515610c8557fe5b906000526020600020906007020160010160159054906101000a900463ffffffff1661199f565b9250610cfb610cee600d86815481101515610cc357fe5b90600052602060002090600702018886815181101515610cdf57fe5b906020019060200201516119fa565b889063ffffffff611a9c16565b9650600190930192610c69565b60115460010191505b438211610e07575060008181526009602052604081209094505b8054851015610dfc57610d62600d8287815481101515610d4757fe5b600091825260208220600290910201015481548110610c8557fe5b9250610def610de2600d8388815481101515610d7a57fe5b600091825260208220600290910201015481548110610d9557fe5b90600052602060002090600702018388815481101515610db157fe5b60009182526020909120600290910201600101548987815181101515610dd357fe5b90602001906020020151611b00565b889063ffffffff611b9716565b9650600190940193610d2b565b600190910190610d11565b50949695505050505050565b60115481565b600080610e25836118ff565b600354119392505050565b60055460065460030b9091565b600054600160a060020a031690565b600d805482908110610e5a57fe5b60009182526020909120600790910201805460018201546002830154600384015460048501546005860154600690960154949650600160a060020a0384169574010000000000000000000000000000000000000000850460ff1695750100000000000000000000000000000000000000000090950463ffffffff169489565b600054600160a060020a0316331490565b600080610ef5610ed9565b1515610f39576040805160e560020a62461bcd0281526020600482018190526024820152600080516020611f92833981519152604482015290519081900360640190fd5b600160a060020a03831660009081526004602052604081205492508211610faa576040805160e560020a62461bcd02815260206004820152601260248201527f4974277320656d7074792062616c616e63650000000000000000000000000000604482015290519081900360640190fd5b600160a060020a0383166000818152600460205260408120551515610ffc57604051339083156108fc029084906000818181858888f19350505050158015610ff6573d6000803e3d6000fd5b506107f0565b50604080517fa9059cbb0000000000000000000000000000000000000000000000000000000081523360048201526024810183905290518391600160a060020a0383169163a9059cbb916044808201926020929091908290030181600087803b15801561106857600080fd5b505af115801561107c573d6000803e3d6000fd5b505050506040513d602081101561109257600080fd5b5050505050565b60006110a3610ed9565b15156110e7576040805160e560020a62461bcd0281526020600482018190526024820152600080516020611f92833981519152604482015290519081900360640190fd5b6110f08261199f565b6001549091508110156107f2576001546000190181146111855760018054600019810190811061111c57fe5b90600052602060002090600891828204019190066004029054906101000a900463ffffffff1660018281548110151561115157fe5b90600052602060002090600891828204019190066004026101000a81548163ffffffff021916908363ffffffff1602179055505b60018054906107f0906000198301611f43565b60046020526000908152604090205481565b60008060606000806111ba610ed9565b15156111fe576040805160e560020a62461bcd0281526020600482018190526024820152600080516020611f92833981519152604482015290519081900360640190fd5b600f5461121690879063ffffffff90811690611bd916565b600d54909550851061122757611429565b6012546001870111156112455760018601611243601282611f1f565b505b600f5461125d90869063ffffffff90811690611a9c16565b600d5490945084111561127057600d5493505b60015460408051828152602080840282010190915290801561129c578160200160208202803883390190505b509250600091505b60015482101561138657600b5460018054600160a060020a039092169163da6632579190859081106112d257fe5b90600052602060002090600891828204019190066004029054906101000a900463ffffffff166040518263ffffffff1660e060020a028152600401808263ffffffff168152602001915050602060405180830381600087803b15801561133757600080fd5b505af115801561134b573d6000803e3d6000fd5b505050506040513d602081101561136157600080fd5b5051835184908490811061137157fe5b602090810290910101526001909101906112a4565b5060005b838510156113f1576113a4600d86815481101515610c8557fe5b95506113e46113d7600d878154811015156113bb57fe5b90600052602060002090600702018589815181101515610cdf57fe5b829063ffffffff611a9c16565b600190950194905061138a565b8060128781548110151561140157fe5b9060005260206000200181905550600184036010541015611429576000198401601055436011555b505050505050565b60055460065460030b82565b60096020528260005260406000208281548110151561145857fe5b90600052602060002090600202018160028110151561147357fe5b0154925083915050565b6000611487610ed9565b15156114cb576040805160e560020a62461bcd0281526020600482018190526024820152600080516020611f92833981519152604482015290519081900360640190fd5b6114d48261199f565b6001549091508114156107f257600180548082018255600091909152600881047fb10e2d527612073b26eecdfd717e6a320cf44b4afac2b0732d9fcbe2b7fa0cf601805463ffffffff80861660046007909516949094026101000a938402930219169190911790555050565b60025460ff1681565b600f5463ffffffff1681565b600160a060020a031660009081526004602052604090205490565b60008061157c8361199f565b600154119392505050565b61158f610ed9565b15156115d3576040805160e560020a62461bcd0281526020600482018190526024820152600080516020611f92833981519152604482015290519081900360640190fd5b6005919091556006805460039290920b63ffffffff1663ffffffff19909216919091179055565b6000611604610ed9565b1515611648576040805160e560020a62461bcd0281526020600482018190526024820152600080516020611f92833981519152604482015290519081900360640190fd5b611651826118ff565b6003549091508114156107f257600380546001810182556000919091527fc2575a0e9e593c00f959f8c92f12db2869c3395a3b0502d05e2516446f71f85b018054600160a060020a03841673ffffffffffffffffffffffffffffffffffffffff199091161790555050565b606060018054806020026020016040519081016040528092919081815260200182805480156106f457602002820191906000526020600020906000905b82829054906101000a900463ffffffff1663ffffffff16815260200190600401906020826003010492830192600103820291508084116116f95790505050505050905090565b60608060606000600380549050604051908082528060200260200182016040528015611775578160200160208202803883390190505b509150600090505b6003548110156117df576004600060038381548110151561179a57fe5b6000918252602080832090910154600160a060020a0316835282019290925260400190205482518390839081106117cd57fe5b6020908102909101015260010161177d565b6003828180548060200260200160405190810160405280929190818152602001828054801561183757602002820191906000526020600020905b8154600160a060020a03168152600190910190602001808311611819575b505050505091509350935050509091565b611850610ed9565b1515611894576040805160e560020a62461bcd0281526020600482018190526024820152600080516020611f92833981519152604482015290519081900360640190fd5b61189d81611c78565b50565b6118a8610ed9565b15156118ec576040805160e560020a62461bcd0281526020600482018190526024820152600080516020611f92833981519152604482015290519081900360640190fd5b6002805460ff1916911515919091179055565b6000805b60035481101561194e5782600160a060020a031660038281548110151561192657fe5b600091825260209091200154600160a060020a031614156119465761194e565b600101611903565b92915050565b600080805b6012548110156119995761198f60128281548110151561197557fe5b906000526020600020015483611a9c90919063ffffffff16565b9150600101611959565b50919050565b6000805b60015481101561194e578263ffffffff166001828154811015156119c357fe5b6000918252602090912060088204015460079091166004026101000a900463ffffffff1614156119f25761194e565b6001016119a3565b60038201546001830154600091829160ff7401000000000000000000000000000000000000000090910416159084101415611a4f5760048401546003850154611a489163ffffffff611bd916565b9050611a68565b6004840154611a6590849063ffffffff611bd916565b90505b604080518082019091526007548152600854600390810b810b900b6020820152611a929082611d66565b91505b5092915050565b600082820183811015611af9576040805160e560020a62461bcd02815260206004820152601b60248201527f536166654d6174683a206164646974696f6e206f766572666c6f770000000000604482015290519081900360640190fd5b9392505050565b60038301546001840154600091829160ff7401000000000000000000000000000000000000000090910416159084101415611b51576003850154611b4a908563ffffffff611bd916565b9050611b64565b611b61838563ffffffff611bd916565b90505b604080518082019091526007548152600854600390810b810b900b6020820152611b8e9082611d66565b95945050505050565b6000611af983836040805190810160405280601e81526020017f536166654d6174683a207375627472616374696f6e206f766572666c6f770000815250611dd9565b600080831515611bec5760009150611a95565b50828202828482811515611bfc57fe5b0414611af9576040805160e560020a62461bcd02815260206004820152602160248201527f536166654d6174683a206d756c7469706c69636174696f6e206f766572666c6f60448201527f7700000000000000000000000000000000000000000000000000000000000000606482015290519081900360840190fd5b600160a060020a0381161515611cfe576040805160e560020a62461bcd02815260206004820152602660248201527f4f776e61626c653a206e6577206f776e657220697320746865207a65726f206160448201527f6464726573730000000000000000000000000000000000000000000000000000606482015290519081900360840190fd5b60008054604051600160a060020a03808516939216917f8be0079c531659141344cd1fd0a4f28419497f9722a3daafe3b4186f6b6457e091a36000805473ffffffffffffffffffffffffffffffffffffffff1916600160a060020a0392909216919091179055565b81516000908190611d7d908463ffffffff611bd916565b90506000846020015160030b1315611db2576020840151611dab90829060030b600a0a63ffffffff611bd916565b9050611af9565b6020840151611dd190829060000360030b600a0a63ffffffff611e7616565b949350505050565b6000808285851115611e6c5760405160e560020a62461bcd0281526004018080602001828103825283818151815260200191508051906020019080838360005b83811015611e31578181015183820152602001611e19565b50505050905090810190601f168015611e5e5780820380516001836020036101000a031916815260200191505b509250505060405180910390fd5b5050509103919050565b6000611af983836040805190810160405280601a81526020017f536166654d6174683a206469766973696f6e206279207a65726f00000000000081525060008082818511611f095760405160e560020a62461bcd02815260040180806020018281038252838181518152602001915080519060200190808383600083811015611e31578181015183820152602001611e19565b508385811515611f1557fe5b0495945050505050565b8154818355818111156107f0576000838152602090206107f0918101908301611f73565b8154818355818111156107f05760070160089004816007016008900483600052602060002091820191016107f091905b6106fc91905b80821115611f8d5760008155600101611f79565b509056004f776e61626c653a2063616c6c6572206973206e6f7420746865206f776e6572a165627a7a723058200934422a3f78b1a1ec92e9295a3613937a7768c7222d0b1599f12214b159ca5b0029",
  "source": "pragma solidity ^0.4.26;\r\nimport \"./SafeMath.sol\";\r\nimport \"./TransactionFee.sol\";\r\nimport \"./CompoundOracleInterface.sol\";\r\nimport \"./underlyingAssets.sol\";\r\ncontract OptionslPool is UnderlyingAssets,TransactionFee {\r\n    using SafeMath for uint256;\r\n    struct OptionsInfo {\r\n        uint256     optionID;\r\n        address     owner;\r\n        uint8   \toptType;    //0 for call, 1 for put\r\n        uint32\t\tunderlying;\r\n        uint256\t\texpiration;\r\n        uint256     strikePrice;\r\n        uint256     amount;\r\n        int256     ivNumerator;\r\n        int256     ivDenominator;\r\n    }\r\n\r\n    Number public collateralRate;\r\n    //each block burn options\r\n    mapping(uint256=>uint256[2][]) public burnBlockOptions;\r\n    mapping(address=>uint256[]) public optionsBalances;\r\n    ICompoundOracle internal _oracle;\r\n    uint256 private _calDecimal = 10000000000;\r\n\r\n    OptionsInfo[] public allOptions;\r\n\r\n    uint256 private firstPhase = 0;\r\n    uint32 public optionPhase = 500;\r\n    uint256 public lastCallOption;\r\n    uint256 public lastCalBlock;\r\n\r\n    uint256[] private OptionsPhases;\r\n\r\n    function calculatePhaseOccupiedCollateral(uint256 index) public onlyOwner {\r\n        uint256 beginOption = index.mul(optionPhase);\r\n        if (beginOption>=allOptions.length){\r\n            return;\r\n        }\r\n        if(OptionsPhases.length<index+1){\r\n            OptionsPhases.length = index+1;\r\n        }\r\n        uint256 lastOption = beginOption.add(optionPhase);\r\n        if (lastOption>allOptions.length) {\r\n            lastOption = allOptions.length;\r\n        }\r\n        uint256[] memory prices = new uint256[](underlyingAssets.length);\r\n        for (uint256 i = 0;i<underlyingAssets.length;i++){\r\n            prices[i] = _oracle.getUnderlyingPrice(underlyingAssets[i]);\r\n        }\r\n        uint256 totalOccupied = 0;\r\n        for (;beginOption<lastOption;beginOption++){\r\n            index = _getEligibleUnderlyingIndex(allOptions[beginOption].underlying);\r\n            totalOccupied = totalOccupied.add(calOptionsCollateral(allOptions[beginOption],prices[index]));\r\n        }\r\n        OptionsPhases[index] = totalOccupied;\r\n        if (lastCallOption<lastOption-1) {\r\n            lastCallOption = lastOption-1;\r\n            lastCalBlock = block.number;\r\n        }\r\n    }\r\n    function createOptions(uint8 optType,uint32 underlying,uint256 expiration,uint256 strikePrice,\r\n        uint256 amount,int256 ivNumerator,int256 ivDenominator) internal {\r\n        uint256 optionID = allOptions.length;\r\n        allOptions.push(OptionsInfo(optionID,msg.sender,optType,underlying,expiration,strikePrice,amount,ivNumerator,ivDenominator));\r\n        optionsBalances[msg.sender].push(optionID);\r\n    }\r\n    function getTotalOccupiedCollateral() public view returns (uint256) {\r\n        uint256 totalOccupied = sumOptionPhases();\r\n        uint256[] memory prices = new uint256[](underlyingAssets.length);\r\n        for (uint256 i = 0;i<underlyingAssets.length;i++){\r\n            prices[i] = _oracle.getUnderlyingPrice(underlyingAssets[i]);\r\n        }\r\n        for (uint256 beginOption = lastCallOption+1; beginOption < allOptions.length;beginOption++){\r\n            uint256 index = _getEligibleUnderlyingIndex(allOptions[beginOption].underlying);\r\n            totalOccupied = totalOccupied.add(calOptionsCollateral(allOptions[beginOption],prices[index]));\r\n        }\r\n        for (uint256 beginBlock = lastCalBlock+1; beginBlock <= block.number;beginBlock++){\r\n            uint256[2][] storage burnedTokens = burnBlockOptions[beginBlock];\r\n            for (i = 0;i<burnedTokens.length;i++){\r\n                index = _getEligibleUnderlyingIndex(allOptions[burnedTokens[i][0]].underlying);\r\n                totalOccupied = totalOccupied.sub(calBurnedOptionsCollateral(allOptions[burnedTokens[i][0]],\r\n                    burnedTokens[i][1],prices[index]));\r\n            }\r\n        }\r\n        return totalOccupied;\r\n    }\r\n    function sumOptionPhases()internal view returns(uint256){\r\n        uint256 totalOccupied = 0;\r\n        for (uint256 i=0;i<OptionsPhases.length;i++){\r\n            totalOccupied = totalOccupied.add(OptionsPhases[i]);\r\n        }\r\n        return totalOccupied;\r\n    }\r\n    function calOptionsCollateral(OptionsInfo storage option,uint256 underlyingPrice)internal view returns(uint256){\r\n        uint256 totalOccupied = 0;\r\n        if ((option.optType == 0) == (option.strikePrice>underlyingPrice)){ // call\r\n            totalOccupied = option.strikePrice.mul(option.amount);\r\n        } else {\r\n            totalOccupied = underlyingPrice.mul(option.amount);\r\n        }\r\n        return _calNumberMulUint(collateralRate,totalOccupied);\r\n    }\r\n    function calBurnedOptionsCollateral(OptionsInfo storage option,uint256 burned,uint256 underlyingPrice)internal view returns(uint256){\r\n        uint256 totalOccupied = 0;\r\n        if ((option.optType == 0) == (option.strikePrice>underlyingPrice)){ // call\r\n            totalOccupied = option.strikePrice.mul(burned);\r\n        } else {\r\n            totalOccupied = underlyingPrice.mul(burned);\r\n        }\r\n        return _calNumberMulUint(collateralRate,totalOccupied);\r\n    }\r\n    function burnOptions(uint256 optionIndex,uint256 amount)internal{\r\n        require (optionIndex<allOptions.length,\"option index is out of range!\");\r\n        allOptions[optionIndex].amount = allOptions[optionIndex].amount.sub(amount);\r\n        burnBlockOptions[block.number].push([optionIndex,amount]);\r\n    }\r\n}",
  "sourcePath": "C:\\work\\solidity\\FinnexusOptions_V2\\contracts\\OptionslPool.sol",
  "compiler": {
    "name": "solc",
    "version": "0.4.26+commit.4563c3fc.Emscripten.clang"
  },
  "schemaVersion": "3.1.0",
  "updatedAt": "2020-07-16T13:35:50.281Z",
  "devdoc": {
    "methods": {
      "addUnderlyingAsset(uint32)": {
        "details": "Implementation of add an eligible underlying into the underlyingAssets.\r",
        "params": {
          "underlying": "new eligible underlying.\r"
        }
      },
      "addWhiteList(address)": {
        "details": "Implementation of add an eligible address into the whitelist.\r",
        "params": {
          "addAddress": "new eligible address.\r"
        }
      },
      "getTransactionFee()": {
        "details": "Returns the rate of trasaction fee.\r"
      },
      "getWhiteList()": {
        "details": "Implementation of getting the eligible whitelist.\r"
      },
      "getunderlyingAssets()": {
        "details": "Implementation of getting the eligible underlyingAssets.\r"
      },
      "isEligibleAddress(address)": {
        "details": "Implementation of testing whether the input address is eligible.\r",
        "params": {
          "tmpAddress": "input address for testing.\r"
        }
      },
      "isEligibleUnderlyingAsset(uint32)": {
        "details": "Implementation of testing whether the input underlying is eligible.\r",
        "params": {
          "underlying": "input underlying for testing.\r"
        }
      },
      "isOwner()": {
        "details": "Returns true if the caller is the current owner."
      },
      "owner()": {
        "details": "Returns the address of the current owner."
      },
      "removeWhiteList(address)": {
        "details": "Implementation of revoke an invalid address from the whitelist.\r",
        "params": {
          "removeAddress": "revoked address.\r"
        }
      },
      "removeunderlyingAssets(uint32)": {
        "details": "Implementation of revoke an invalid underlying from the underlyingAssets.\r",
        "params": {
          "removeUnderlying": "revoked underlying.\r"
        }
      },
      "renounceOwnership()": {
        "details": "Leaves the contract without owner. It will not be possible to call `onlyOwner` functions anymore. Can only be called by the current owner.     * NOTE: Renouncing ownership will leave the contract without an owner, thereby removing any functionality that is only available to the owner."
      },
      "setTransactionFee(uint256,int32)": {
        "details": "set the rate of trasaction fee.\r",
        "params": {
          "exponent": "the exponent figures of transaction fee.\r transaction fee = Number(value,exponent);\r",
          "value": "the significant figures of transaction fee .\r"
        }
      },
      "transferOwnership(address)": {
        "details": "Transfers ownership of the contract to a new account (`newOwner`). Can only be called by the current owner."
      }
    }
  },
  "userdoc": {
    "methods": {
      "setHalt(bool)": {
        "notice": "function Emergency situation that requires contribution period to stop or not."
      }
    }
  }
}