{
  "contractName": "OptionsMangerV2",
  "abi": [
    {
      "constant": true,
      "inputs": [],
      "name": "name",
      "outputs": [
        {
          "name": "",
          "type": "string"
        }
      ],
      "payable": false,
      "stateMutability": "view",
      "type": "function"
    },
    {
      "constant": false,
      "inputs": [
        {
          "name": "spender",
          "type": "address"
        },
        {
          "name": "amount",
          "type": "uint256"
        }
      ],
      "name": "approve",
      "outputs": [
        {
          "name": "",
          "type": "bool"
        }
      ],
      "payable": false,
      "stateMutability": "nonpayable",
      "type": "function"
    },
    {
      "constant": true,
      "inputs": [],
      "name": "getWhiteList",
      "outputs": [
        {
          "name": "",
          "type": "address[]"
        }
      ],
      "payable": false,
      "stateMutability": "view",
      "type": "function"
    },
    {
      "constant": true,
      "inputs": [],
      "name": "lastCallOption",
      "outputs": [
        {
          "name": "",
          "type": "uint256"
        }
      ],
      "payable": false,
      "stateMutability": "view",
      "type": "function"
    },
    {
      "constant": true,
      "inputs": [],
      "name": "totalSupply",
      "outputs": [
        {
          "name": "",
          "type": "uint256"
        }
      ],
      "payable": false,
      "stateMutability": "view",
      "type": "function"
    },
    {
      "constant": false,
      "inputs": [
        {
          "name": "removeAddress",
          "type": "address"
        }
      ],
      "name": "removeWhiteList",
      "outputs": [
        {
          "name": "",
          "type": "bool"
        }
      ],
      "payable": false,
      "stateMutability": "nonpayable",
      "type": "function"
    },
    {
      "constant": false,
      "inputs": [
        {
          "name": "sender",
          "type": "address"
        },
        {
          "name": "recipient",
          "type": "address"
        },
        {
          "name": "amount",
          "type": "uint256"
        }
      ],
      "name": "transferFrom",
      "outputs": [
        {
          "name": "",
          "type": "bool"
        }
      ],
      "payable": false,
      "stateMutability": "nonpayable",
      "type": "function"
    },
    {
      "constant": true,
      "inputs": [
        {
          "name": "",
          "type": "address"
        }
      ],
      "name": "collateralBalances",
      "outputs": [
        {
          "name": "",
          "type": "uint256"
        }
      ],
      "payable": false,
      "stateMutability": "view",
      "type": "function"
    },
    {
      "constant": true,
      "inputs": [
        {
          "name": "",
          "type": "address"
        }
      ],
      "name": "premiumBalances",
      "outputs": [
        {
          "name": "",
          "type": "uint256"
        }
      ],
      "payable": false,
      "stateMutability": "view",
      "type": "function"
    },
    {
      "constant": false,
      "inputs": [],
      "name": "redeemAll",
      "outputs": [],
      "payable": false,
      "stateMutability": "nonpayable",
      "type": "function"
    },
    {
      "constant": true,
      "inputs": [],
      "name": "decimals",
      "outputs": [
        {
          "name": "",
          "type": "uint8"
        }
      ],
      "payable": false,
      "stateMutability": "view",
      "type": "function"
    },
    {
      "constant": true,
      "inputs": [
        {
          "name": "feeType",
          "type": "uint256"
        },
        {
          "name": "amount",
          "type": "uint256"
        }
      ],
      "name": "calculateFee",
      "outputs": [
        {
          "name": "",
          "type": "uint256"
        }
      ],
      "payable": false,
      "stateMutability": "view",
      "type": "function"
    },
    {
      "constant": true,
      "inputs": [],
      "name": "getUnderlyingAssets",
      "outputs": [
        {
          "name": "",
          "type": "uint32[]"
        }
      ],
      "payable": false,
      "stateMutability": "view",
      "type": "function"
    },
    {
      "constant": false,
      "inputs": [
        {
          "name": "spender",
          "type": "address"
        },
        {
          "name": "addedValue",
          "type": "uint256"
        }
      ],
      "name": "increaseAllowance",
      "outputs": [
        {
          "name": "",
          "type": "bool"
        }
      ],
      "payable": false,
      "stateMutability": "nonpayable",
      "type": "function"
    },
    {
      "constant": true,
      "inputs": [
        {
          "name": "",
          "type": "uint256"
        }
      ],
      "name": "expirationList",
      "outputs": [
        {
          "name": "",
          "type": "uint256"
        }
      ],
      "payable": false,
      "stateMutability": "view",
      "type": "function"
    },
    {
      "constant": true,
      "inputs": [
        {
          "name": "",
          "type": "uint256"
        }
      ],
      "name": "underlyingAssets",
      "outputs": [
        {
          "name": "",
          "type": "uint32"
        }
      ],
      "payable": false,
      "stateMutability": "view",
      "type": "function"
    },
    {
      "constant": false,
      "inputs": [
        {
          "name": "oracle",
          "type": "address"
        }
      ],
      "name": "setOracleAddress",
      "outputs": [],
      "payable": false,
      "stateMutability": "nonpayable",
      "type": "function"
    },
    {
      "constant": true,
      "inputs": [
        {
          "name": "",
          "type": "address"
        }
      ],
      "name": "feeBalances",
      "outputs": [
        {
          "name": "",
          "type": "uint256"
        }
      ],
      "payable": false,
      "stateMutability": "view",
      "type": "function"
    },
    {
      "constant": true,
      "inputs": [
        {
          "name": "",
          "type": "address"
        },
        {
          "name": "",
          "type": "uint256"
        }
      ],
      "name": "optionsBalances",
      "outputs": [
        {
          "name": "",
          "type": "uint256"
        }
      ],
      "payable": false,
      "stateMutability": "view",
      "type": "function"
    },
    {
      "constant": true,
      "inputs": [],
      "name": "collateralRate",
      "outputs": [
        {
          "name": "numerator",
          "type": "uint256"
        },
        {
          "name": "denominator",
          "type": "uint256"
        }
      ],
      "payable": false,
      "stateMutability": "view",
      "type": "function"
    },
    {
      "constant": true,
      "inputs": [
        {
          "name": "",
          "type": "uint256"
        }
      ],
      "name": "whiteList",
      "outputs": [
        {
          "name": "",
          "type": "address"
        }
      ],
      "payable": false,
      "stateMutability": "view",
      "type": "function"
    },
    {
      "constant": true,
      "inputs": [
        {
          "name": "optionsId",
          "type": "uint256"
        },
        {
          "name": "amount",
          "type": "uint256"
        }
      ],
      "name": "getExerciseWorth",
      "outputs": [
        {
          "name": "",
          "type": "uint256"
        }
      ],
      "payable": false,
      "stateMutability": "view",
      "type": "function"
    },
    {
      "constant": false,
      "inputs": [
        {
          "name": "collateral",
          "type": "address"
        },
        {
          "name": "amount",
          "type": "uint256"
        }
      ],
      "name": "addCollateral",
      "outputs": [],
      "payable": true,
      "stateMutability": "payable",
      "type": "function"
    },
    {
      "constant": true,
      "inputs": [
        {
          "name": "account",
          "type": "address"
        }
      ],
      "name": "balanceOf",
      "outputs": [
        {
          "name": "",
          "type": "uint256"
        }
      ],
      "payable": false,
      "stateMutability": "view",
      "type": "function"
    },
    {
      "constant": false,
      "inputs": [],
      "name": "renounceOwnership",
      "outputs": [],
      "payable": false,
      "stateMutability": "nonpayable",
      "type": "function"
    },
    {
      "constant": true,
      "inputs": [],
      "name": "getTotalOccupiedCollateral",
      "outputs": [
        {
          "name": "",
          "type": "uint256"
        }
      ],
      "payable": false,
      "stateMutability": "view",
      "type": "function"
    },
    {
      "constant": true,
      "inputs": [],
      "name": "lastCalBlock",
      "outputs": [
        {
          "name": "",
          "type": "uint256"
        }
      ],
      "payable": false,
      "stateMutability": "view",
      "type": "function"
    },
    {
      "constant": true,
      "inputs": [
        {
          "name": "tmpAddress",
          "type": "address"
        }
      ],
      "name": "isEligibleAddress",
      "outputs": [
        {
          "name": "",
          "type": "bool"
        }
      ],
      "payable": false,
      "stateMutability": "view",
      "type": "function"
    },
    {
      "constant": true,
      "inputs": [],
      "name": "owner",
      "outputs": [
        {
          "name": "",
          "type": "address"
        }
      ],
      "payable": false,
      "stateMutability": "view",
      "type": "function"
    },
    {
      "constant": true,
      "inputs": [
        {
          "name": "",
          "type": "uint256"
        }
      ],
      "name": "allOptions",
      "outputs": [
        {
          "name": "optionID",
          "type": "uint256"
        },
        {
          "name": "owner",
          "type": "address"
        },
        {
          "name": "optType",
          "type": "uint8"
        },
        {
          "name": "underlying",
          "type": "uint32"
        },
        {
          "name": "expiration",
          "type": "uint256"
        },
        {
          "name": "strikePrice",
          "type": "uint256"
        },
        {
          "name": "amount",
          "type": "uint256"
        },
        {
          "name": "ivNumerator",
          "type": "int256"
        },
        {
          "name": "ivDenominator",
          "type": "int256"
        }
      ],
      "payable": false,
      "stateMutability": "view",
      "type": "function"
    },
    {
      "constant": true,
      "inputs": [],
      "name": "isOwner",
      "outputs": [
        {
          "name": "",
          "type": "bool"
        }
      ],
      "payable": false,
      "stateMutability": "view",
      "type": "function"
    },
    {
      "constant": false,
      "inputs": [
        {
          "name": "currency",
          "type": "address"
        }
      ],
      "name": "redeem",
      "outputs": [],
      "payable": false,
      "stateMutability": "nonpayable",
      "type": "function"
    },
    {
      "constant": true,
      "inputs": [],
      "name": "symbol",
      "outputs": [
        {
          "name": "",
          "type": "string"
        }
      ],
      "payable": false,
      "stateMutability": "view",
      "type": "function"
    },
    {
      "constant": false,
      "inputs": [
        {
          "name": "index",
          "type": "uint256"
        }
      ],
      "name": "calculatePhaseOccupiedCollateral",
      "outputs": [],
      "payable": false,
      "stateMutability": "nonpayable",
      "type": "function"
    },
    {
      "constant": false,
      "inputs": [
        {
          "name": "tokenAmount",
          "type": "uint256"
        },
        {
          "name": "collateral",
          "type": "address"
        }
      ],
      "name": "redeemCollateral",
      "outputs": [],
      "payable": false,
      "stateMutability": "nonpayable",
      "type": "function"
    },
    {
      "constant": false,
      "inputs": [
        {
          "name": "spender",
          "type": "address"
        },
        {
          "name": "subtractedValue",
          "type": "uint256"
        }
      ],
      "name": "decreaseAllowance",
      "outputs": [
        {
          "name": "",
          "type": "bool"
        }
      ],
      "payable": false,
      "stateMutability": "nonpayable",
      "type": "function"
    },
    {
      "constant": false,
      "inputs": [
        {
          "name": "recipient",
          "type": "address"
        },
        {
          "name": "amount",
          "type": "uint256"
        }
      ],
      "name": "transfer",
      "outputs": [
        {
          "name": "",
          "type": "bool"
        }
      ],
      "payable": false,
      "stateMutability": "nonpayable",
      "type": "function"
    },
    {
      "constant": true,
      "inputs": [
        {
          "name": "",
          "type": "uint256"
        },
        {
          "name": "",
          "type": "uint256"
        },
        {
          "name": "",
          "type": "uint256"
        }
      ],
      "name": "burnBlockOptions",
      "outputs": [
        {
          "name": "",
          "type": "uint256"
        }
      ],
      "payable": false,
      "stateMutability": "view",
      "type": "function"
    },
    {
      "constant": false,
      "inputs": [
        {
          "name": "underlying",
          "type": "uint32"
        }
      ],
      "name": "addUnderlyingAsset",
      "outputs": [],
      "payable": false,
      "stateMutability": "nonpayable",
      "type": "function"
    },
    {
      "constant": true,
      "inputs": [],
      "name": "getOracleAddress",
      "outputs": [
        {
          "name": "",
          "type": "address"
        }
      ],
      "payable": false,
      "stateMutability": "view",
      "type": "function"
    },
    {
      "constant": true,
      "inputs": [
        {
          "name": "",
          "type": "address"
        },
        {
          "name": "",
          "type": "address"
        }
      ],
      "name": "userInputCollateral",
      "outputs": [
        {
          "name": "",
          "type": "uint256"
        }
      ],
      "payable": false,
      "stateMutability": "view",
      "type": "function"
    },
    {
      "constant": true,
      "inputs": [],
      "name": "halted",
      "outputs": [
        {
          "name": "",
          "type": "bool"
        }
      ],
      "payable": false,
      "stateMutability": "view",
      "type": "function"
    },
    {
      "constant": false,
      "inputs": [
        {
          "name": "feeType",
          "type": "uint256"
        },
        {
          "name": "numerator",
          "type": "uint256"
        },
        {
          "name": "denominator",
          "type": "uint256"
        }
      ],
      "name": "setTransactionFee",
      "outputs": [],
      "payable": false,
      "stateMutability": "nonpayable",
      "type": "function"
    },
    {
      "constant": true,
      "inputs": [],
      "name": "tokenNetWorth",
      "outputs": [
        {
          "name": "",
          "type": "uint256"
        }
      ],
      "payable": false,
      "stateMutability": "view",
      "type": "function"
    },
    {
      "constant": true,
      "inputs": [],
      "name": "optionPhase",
      "outputs": [
        {
          "name": "",
          "type": "uint32"
        }
      ],
      "payable": false,
      "stateMutability": "view",
      "type": "function"
    },
    {
      "constant": true,
      "inputs": [
        {
          "name": "settlement",
          "type": "address"
        }
      ],
      "name": "getFeeBalance",
      "outputs": [
        {
          "name": "",
          "type": "uint256"
        }
      ],
      "payable": false,
      "stateMutability": "view",
      "type": "function"
    },
    {
      "constant": true,
      "inputs": [
        {
          "name": "feeType",
          "type": "uint256"
        }
      ],
      "name": "getFeeRate",
      "outputs": [
        {
          "name": "",
          "type": "uint256"
        },
        {
          "name": "",
          "type": "uint256"
        }
      ],
      "payable": false,
      "stateMutability": "view",
      "type": "function"
    },
    {
      "constant": false,
      "inputs": [
        {
          "name": "removeUnderlying",
          "type": "uint32"
        }
      ],
      "name": "removeUnderlyingAssets",
      "outputs": [
        {
          "name": "",
          "type": "bool"
        }
      ],
      "payable": false,
      "stateMutability": "nonpayable",
      "type": "function"
    },
    {
      "constant": true,
      "inputs": [
        {
          "name": "underlying",
          "type": "uint32"
        }
      ],
      "name": "isEligibleUnderlyingAsset",
      "outputs": [
        {
          "name": "",
          "type": "bool"
        }
      ],
      "payable": false,
      "stateMutability": "view",
      "type": "function"
    },
    {
      "constant": true,
      "inputs": [
        {
          "name": "owner",
          "type": "address"
        },
        {
          "name": "spender",
          "type": "address"
        }
      ],
      "name": "allowance",
      "outputs": [
        {
          "name": "",
          "type": "uint256"
        }
      ],
      "payable": false,
      "stateMutability": "view",
      "type": "function"
    },
    {
      "constant": true,
      "inputs": [
        {
          "name": "",
          "type": "address"
        }
      ],
      "name": "userCollateralPaying",
      "outputs": [
        {
          "name": "",
          "type": "uint256"
        }
      ],
      "payable": false,
      "stateMutability": "view",
      "type": "function"
    },
    {
      "constant": true,
      "inputs": [
        {
          "name": "",
          "type": "uint256"
        }
      ],
      "name": "FeeRates",
      "outputs": [
        {
          "name": "numerator",
          "type": "uint256"
        },
        {
          "name": "denominator",
          "type": "uint256"
        }
      ],
      "payable": false,
      "stateMutability": "view",
      "type": "function"
    },
    {
      "constant": false,
      "inputs": [
        {
          "name": "addAddress",
          "type": "address"
        }
      ],
      "name": "addWhiteList",
      "outputs": [],
      "payable": false,
      "stateMutability": "nonpayable",
      "type": "function"
    },
    {
      "constant": true,
      "inputs": [
        {
          "name": "underlying",
          "type": "uint32"
        }
      ],
      "name": "checkUnderlyingAsset",
      "outputs": [],
      "payable": false,
      "stateMutability": "view",
      "type": "function"
    },
    {
      "constant": true,
      "inputs": [],
      "name": "getAllFeeBalances",
      "outputs": [
        {
          "name": "",
          "type": "address[]"
        },
        {
          "name": "",
          "type": "uint256[]"
        }
      ],
      "payable": false,
      "stateMutability": "view",
      "type": "function"
    },
    {
      "constant": false,
      "inputs": [
        {
          "name": "newOwner",
          "type": "address"
        }
      ],
      "name": "transferOwnership",
      "outputs": [],
      "payable": false,
      "stateMutability": "nonpayable",
      "type": "function"
    },
    {
      "constant": false,
      "inputs": [
        {
          "name": "halt",
          "type": "bool"
        }
      ],
      "name": "setHalt",
      "outputs": [],
      "payable": false,
      "stateMutability": "nonpayable",
      "type": "function"
    },
    {
      "constant": true,
      "inputs": [
        {
          "name": "tmpAddress",
          "type": "address"
        }
      ],
      "name": "checkEligibleAddress",
      "outputs": [],
      "payable": false,
      "stateMutability": "view",
      "type": "function"
    },
    {
      "anonymous": false,
      "inputs": [
        {
          "indexed": true,
          "name": "from",
          "type": "address"
        },
        {
          "indexed": true,
          "name": "to",
          "type": "address"
        },
        {
          "indexed": false,
          "name": "value",
          "type": "uint256"
        }
      ],
      "name": "Transfer",
      "type": "event"
    },
    {
      "anonymous": false,
      "inputs": [
        {
          "indexed": true,
          "name": "owner",
          "type": "address"
        },
        {
          "indexed": true,
          "name": "spender",
          "type": "address"
        },
        {
          "indexed": false,
          "name": "value",
          "type": "uint256"
        }
      ],
      "name": "Approval",
      "type": "event"
    },
    {
      "anonymous": false,
      "inputs": [
        {
          "indexed": true,
          "name": "recieptor",
          "type": "address"
        },
        {
          "indexed": true,
          "name": "settlement",
          "type": "address"
        },
        {
          "indexed": false,
          "name": "payback",
          "type": "uint256"
        }
      ],
      "name": "FeePayback",
      "type": "event"
    },
    {
      "anonymous": false,
      "inputs": [
        {
          "indexed": true,
          "name": "settlement",
          "type": "address"
        },
        {
          "indexed": false,
          "name": "payback",
          "type": "uint256"
        }
      ],
      "name": "AddFee",
      "type": "event"
    },
    {
      "anonymous": false,
      "inputs": [
        {
          "indexed": true,
          "name": "recieptor",
          "type": "address"
        },
        {
          "indexed": true,
          "name": "settlement",
          "type": "address"
        },
        {
          "indexed": false,
          "name": "payback",
          "type": "uint256"
        }
      ],
      "name": "TransferPayback",
      "type": "event"
    },
    {
      "anonymous": false,
      "inputs": [
        {
          "indexed": true,
          "name": "previousOwner",
          "type": "address"
        },
        {
          "indexed": true,
          "name": "newOwner",
          "type": "address"
        }
      ],
      "name": "OwnershipTransferred",
      "type": "event"
    },
    {
      "constant": true,
      "inputs": [],
      "name": "getOptionsPriceAddress",
      "outputs": [
        {
          "name": "",
          "type": "address"
        }
      ],
      "payable": false,
      "stateMutability": "view",
      "type": "function"
    },
    {
      "constant": false,
      "inputs": [
        {
          "name": "options",
          "type": "address"
        }
      ],
      "name": "setOptionsPriceAddress",
      "outputs": [],
      "payable": false,
      "stateMutability": "nonpayable",
      "type": "function"
    },
    {
      "constant": false,
      "inputs": [
        {
          "name": "settlement",
          "type": "address"
        },
        {
          "name": "settlementAmount",
          "type": "uint256"
        },
        {
          "name": "strikePrice",
          "type": "uint256"
        },
        {
          "name": "underlying",
          "type": "uint32"
        },
        {
          "name": "expiration",
          "type": "uint256"
        },
        {
          "name": "amount",
          "type": "uint256"
        },
        {
          "name": "optType",
          "type": "uint8"
        }
      ],
      "name": "buyOption",
      "outputs": [],
      "payable": true,
      "stateMutability": "payable",
      "type": "function"
    },
    {
      "constant": false,
      "inputs": [
        {
          "name": "optionsId",
          "type": "uint256"
        },
        {
          "name": "amount",
          "type": "uint256"
        }
      ],
      "name": "sellOption",
      "outputs": [],
      "payable": false,
      "stateMutability": "nonpayable",
      "type": "function"
    },
    {
      "constant": false,
      "inputs": [
        {
          "name": "optionsId",
          "type": "uint256"
        },
        {
          "name": "amount",
          "type": "uint256"
        }
      ],
      "name": "exerciseOption",
      "outputs": [],
      "payable": false,
      "stateMutability": "nonpayable",
      "type": "function"
    },
    {
      "constant": false,
      "inputs": [
        {
          "name": "expiration",
          "type": "uint256"
        }
      ],
      "name": "addExpiration",
      "outputs": [],
      "payable": false,
      "stateMutability": "nonpayable",
      "type": "function"
    },
    {
      "constant": false,
      "inputs": [
        {
          "name": "removeExpiration",
          "type": "uint256"
        }
      ],
      "name": "removeExpirationList",
      "outputs": [
        {
          "name": "",
          "type": "bool"
        }
      ],
      "payable": false,
      "stateMutability": "nonpayable",
      "type": "function"
    },
    {
      "constant": true,
      "inputs": [],
      "name": "getExpirationList",
      "outputs": [
        {
          "name": "",
          "type": "uint256[]"
        }
      ],
      "payable": false,
      "stateMutability": "view",
      "type": "function"
    },
    {
      "constant": true,
      "inputs": [
        {
          "name": "expiration",
          "type": "uint256"
        }
      ],
      "name": "isEligibleExpiration",
      "outputs": [
        {
          "name": "",
          "type": "bool"
        }
      ],
      "payable": false,
      "stateMutability": "view",
      "type": "function"
    },
    {
      "constant": true,
      "inputs": [
        {
          "name": "expiration",
          "type": "uint256"
        }
      ],
      "name": "checkExpiration",
      "outputs": [],
      "payable": false,
      "stateMutability": "view",
      "type": "function"
    }
  ],
  "bytecode": "0x6002805460ff199081169091556402540be4006009556000600b55600c805463ffffffff19166101f417905560108054909116905560c0604052600a60808190527f536861726564436f696e0000000000000000000000000000000000000000000060a09081526200007591601191906200024c565b506040805180820190915260058082527f53436f696e0000000000000000000000000000000000000000000000000000006020909201918252620000bc916012916200024c565b50600060158190556402540be4006016556305f5e100601b558054600160a060020a0319163317808255604051600160a060020a039190911691907f8be0079c531659141344cd1fd0a4f28419497f9722a3daafe3b4186f6b6457e0908290a360408051808201825260038082526103e8602080840182815260058054600181810183556000838152975160029283027f036b6384b5eca791c62761152d0c79bb0604c104a5fb6f4eb0703f3154bb3db08181019290925594517f036b6384b5eca791c62761152d0c79bb0604c104a5fb6f4eb0703f3154bb3db1958601558951808b018b5288815280870188815285548085018755868c5291519185028084019290925551908601558951808b018b5288815280870188815285548085018755868c5291519185028084019290925551908601558951808b018b5288815280870188815285548085018755868c5291519185028084019290925551908601558951808b01909a5296895293880194855281549384018255955294519302918201929092559051910155620002f1565b828054600181600116156101000203166002900490600052602060002090601f016020900481019282601f106200028f57805160ff1916838001178555620002bf565b82800160010185558215620002bf579182015b82811115620002bf578251825591602001919060010190620002a2565b50620002cd929150620002d1565b5090565b620002ee91905b80821115620002cd5760008155600101620002d8565b90565b614b6e80620003016000396000f3006080604052600436106103085763ffffffff60e060020a60003504166306fdde03811461030d578063095ea7b31461039757806309a9d76c146103cf578063132a56271461043457806318160ddd1461045b5780632042e5c21461047057806323b872dd1461049157806329bc969d146104bb5780632b4f30ee146104dc5780632f4350c2146104fd578063313ce5671461051457806334e731221461053f5780633582d7891461055a578063395093511461056f5780633ad98099146105935780633b50c4d1146105ab5780634c69c00f146105dc57806353afc025146105fd57806355c47cb21461061e57806358a6be1c146106425780635c475d42146106705780635ca4b73b146106a457806367b8ceb9146106b95780636d75b9ee146106d457806370a08231146106eb578063715018a61461070c578063723931ca1461072157806373a3d424146107395780637c9c67121461074e5780637cfff2d8146107695780637e2eeb7e146107815780637e838fa314610796578063817bf86d146107ae5780638da5cb5b146107cf5780638ea745b8146107e45780638f32d59b146108525780639052d5f814610867578063925c482c1461087c57806395a2251f146108ab57806395d89b41146108cc57806399deae0a146108e15780639ef975d2146108f9578063a093e2d014610911578063a20a804514610932578063a457c2d714610956578063a9059cbb1461097a578063a95c594a1461099e578063afec82fc146109bc578063b18b78dd146109da578063b4d5a9c7146109ef578063b9b8af0b14610a16578063bf36b11014610a2b578063bf7f96df14610a49578063c27b7dfb14610a5e578063c78f680314610a73578063d189290414610a94578063d2aaef4e14610aaf578063d6d1401214610ac7578063db6ad2bd14610ae5578063dd62ed3e14610b03578063ddb944e514610b2a578063e0561aa114610b4b578063e7cd4a0414610b63578063ee29c94a14610b84578063f20568cd14610ba2578063f2fde38b14610c50578063f495438714610c71578063f939fdca14610c8b575b600080fd5b34801561031957600080fd5b50610322610cac565b6040805160208082528351818301528351919283929083019185019080838360005b8381101561035c578181015183820152602001610344565b50505050905090810190601f1680156103895780820380516001836020036101000a031916815260200191505b509250505060405180910390f35b3480156103a357600080fd5b506103bb600160a060020a0360043516602435610d3a565b604080519115158252519081900360200190f35b3480156103db57600080fd5b506103e4610d50565b60408051602080825283518183015283519192839290830191858101910280838360005b83811015610420578181015183820152602001610408565b505050509050019250505060405180910390f35b34801561044057600080fd5b50610449610db3565b60408051918252519081900360200190f35b34801561046757600080fd5b50610449610db9565b34801561047c57600080fd5b506103bb600160a060020a0360043516610dbf565b34801561049d57600080fd5b506103bb600160a060020a0360043581169060243516604435610e1e565b3480156104c757600080fd5b50610449600160a060020a0360043516610ed1565b3480156104e857600080fd5b50610449600160a060020a0360043516610ee3565b34801561050957600080fd5b50610512610ef5565b005b34801561052057600080fd5b50610529610f88565b6040805160ff9092168252519081900360200190f35b34801561054b57600080fd5b50610449600435602435610f8d565b34801561056657600080fd5b506103e4610fd2565b34801561057b57600080fd5b506103bb600160a060020a0360043516602435611055565b34801561059f57600080fd5b50610449600435611091565b3480156105b757600080fd5b506105c36004356110b0565b6040805163ffffffff9092168252519081900360200190f35b3480156105e857600080fd5b50610512600160a060020a03600435166110e8565b34801561060957600080fd5b50610449600160a060020a0360043516611163565b34801561062a57600080fd5b50610449600160a060020a0360043516602435611175565b34801561064e57600080fd5b506106576111a5565b6040805192835260208301919091528051918290030190f35b34801561067c57600080fd5b506106886004356111ae565b60408051600160a060020a039092168252519081900360200190f35b3480156106b057600080fd5b506106886111d6565b3480156106c557600080fd5b506104496004356024356111e5565b610512600160a060020a0360043516602435611335565b3480156106f757600080fd5b50610449600160a060020a036004351661152a565b34801561071857600080fd5b50610512611545565b34801561072d57600080fd5b506105126004356115e8565b34801561074557600080fd5b506104496115f3565b34801561075a57600080fd5b506105126004356024356118d3565b34801561077557600080fd5b50610512600435611963565b34801561078d57600080fd5b506104496119ba565b3480156107a257600080fd5b506103bb6004356119c0565b3480156107ba57600080fd5b506103bb600160a060020a0360043516611a19565b3480156107db57600080fd5b50610688611a26565b3480156107f057600080fd5b506107fc600435611a35565b60408051998a52600160a060020a0390981660208a015260ff9096168888015263ffffffff9094166060880152608087019290925260a086015260c085015260e084015261010083015251908190036101200190f35b34801561085e57600080fd5b506103bb611ab1565b34801561087357600080fd5b506103e4611ac2565b610512600160a060020a036004351660243560443563ffffffff6064351660843560a43560ff60c43516611b19565b3480156108b757600080fd5b50610512600160a060020a0360043516611f99565b3480156108d857600080fd5b50610322612189565b3480156108ed57600080fd5b506105126004356121e4565b34801561090557600080fd5b506103bb60043561246b565b34801561091d57600080fd5b50610512600160a060020a0360043516612478565b34801561093e57600080fd5b50610512600435600160a060020a03602435166124f3565b34801561096257600080fd5b506103bb600160a060020a036004351660243561272c565b34801561098657600080fd5b506103bb600160a060020a03600435166024356127c5565b3480156109aa57600080fd5b506104496004356024356044356127d2565b3480156109c857600080fd5b5061051263ffffffff60043516612812565b3480156109e657600080fd5b50610688612869565b3480156109fb57600080fd5b50610449600160a060020a0360043581169060243516612878565b348015610a2257600080fd5b506103bb612895565b348015610a3757600080fd5b5061051260043560243560443561289e565b348015610a5557600080fd5b50610449612902565b348015610a6a57600080fd5b506105c3612908565b348015610a7f57600080fd5b50610449600160a060020a0360043516612914565b348015610aa057600080fd5b5061051260043560243561292f565b348015610abb57600080fd5b50610657600435612b4b565b348015610ad357600080fd5b506103bb63ffffffff60043516612b6c565b348015610af157600080fd5b506103bb63ffffffff60043516612bc5565b348015610b0f57600080fd5b50610449600160a060020a0360043581169060243516612bd2565b348015610b3657600080fd5b50610449600160a060020a0360043516612bfd565b348015610b5757600080fd5b50610657600435612c0f565b348015610b6f57600080fd5b50610512600160a060020a0360043516612c3b565b348015610b9057600080fd5b5061051263ffffffff60043516612c92565b348015610bae57600080fd5b50610bb7612c9d565b604051808060200180602001838103835285818151815260200191508051906020019060200280838360005b83811015610bfb578181015183820152602001610be3565b50505050905001838103825284818151815260200191508051906020019060200280838360005b83811015610c3a578181015183820152602001610c22565b5050505090500194505050505060405180910390f35b348015610c5c57600080fd5b50610512600160a060020a0360043516612da6565b348015610c7d57600080fd5b506105126004351515612dfb565b348015610c9757600080fd5b50610512600160a060020a0360043516612e5a565b6011805460408051602060026001851615610100026000190190941693909304601f81018490048402820184019092528181529291830182828015610d325780601f10610d0757610100808354040283529160200191610d32565b820191906000526020600020905b815481529060010190602001808311610d1557829003601f168201915b505050505081565b6000610d47338484612e65565b50600192915050565b60606003805480602002602001604051908101604052809291908181526020018280548015610da857602002820191906000526020600020905b8154600160a060020a03168152600190910190602001808311610d8a575b505050505090505b90565b600d5481565b60155490565b6000610dc9611ab1565b1515610e0d576040805160e560020a62461bcd0281526020600482018190526024820152600080516020614b23833981519152604482015290519081900360640190fd5b610e18600383612fd2565b92915050565b6000610e2b848484613084565b60408051606081018252602881527f45524332303a207472616e7366657220616d6f756e74206578636565647320616020808301919091527f6c6c6f77616e636500000000000000000000000000000000000000000000000082840152600160a060020a0387166000908152601482528381203380835292529290922054610ec79287929091610ec291879063ffffffff6131f416565b612e65565b5060019392505050565b60196020526000908152604090205481565b601a6020526000908152604090205481565b6000610eff611ab1565b1515610f43576040805160e560020a62461bcd0281526020600482018190526024820152600080516020614b23833981519152604482015290519081900360640190fd5b5060005b600354811015610f8557610f7d600382815481101515610f6357fe5b600091825260209091200154600160a060020a0316611f99565b600101610f47565b50565b601281565b6000806000610f9b85613291565b8054909250610fb0908563ffffffff61331016565b9050610fc98260010154826133b690919063ffffffff16565b95945050505050565b60606001805480602002602001604051908101604052809291908181526020018280548015610da857602002820191906000526020600020906000905b82829054906101000a900463ffffffff1663ffffffff168152602001906004019060208260030104928301926001038202915080841161100f5790505050505050905090565b336000818152601460209081526040808320600160a060020a03871684529091528120549091610d47918590610ec2908663ffffffff6133f816565b601e80548290811061109f57fe5b600091825260209091200154905081565b60018054829081106110be57fe5b9060005260206000209060089182820401919006600402915054906101000a900463ffffffff1681565b6110f0611ab1565b1515611134576040805160e560020a62461bcd0281526020600482018190526024820152600080516020614b23833981519152604482015290519081900360640190fd5b6008805473ffffffffffffffffffffffffffffffffffffffff1916600160a060020a0392909216919091179055565b60046020526000908152604090205481565b60076020528160005260406000208181548110151561119057fe5b90600052602060002001600091509150505481565b60175460185482565b60038054829081106111bc57fe5b600091825260209091200154600160a060020a0316905081565b601f54600160a060020a031690565b6000806000806111f486613455565b92506111ff836134e1565b611209838661353c565b6008546001840154604080517fda663257000000000000000000000000000000000000000000000000000000008152750100000000000000000000000000000000000000000090920463ffffffff16600483015251600160a060020a039092169163da663257916024808201926020929091908290030181600087803b15801561129257600080fd5b505af11580156112a6573d6000803e3d6000fd5b505050506040513d60208110156112bc57600080fd5b505160018401549092506000915060a060020a900460ff1615156112f35782600301548211156112ee57600383015490035b611309565b8260030154821015611309578183600301540390505b801515611319576000935061132c565b611329818663ffffffff61331016565b93505b50505092915050565b6000806000611344858561359c565b93506000841161139e576040805160e560020a62461bcd02815260206004820152601a60248201527f736574746c656d656e7420616d6f756e74206973207a65726f21000000000000604482015290519081900360640190fd5b600160a060020a0385166000908152601960205260409020546113c7908563ffffffff6133f816565b600160a060020a038616600081815260196020908152604080832094909455338252601d8152838220928252919091522054611409908563ffffffff6133f816565b336000908152601d60209081526040808320600160a060020a038a81168086529184528285209590955560085482517f41976e090000000000000000000000000000000000000000000000000000000081526004810192909252915191909416936341976e099360248083019493928390030190829087803b15801561148e57600080fd5b505af11580156114a2573d6000803e3d6000fd5b505050506040513d60208110156114b857600080fd5b505192506114cc838563ffffffff61331016565b91506114e3601b54836133b690919063ffffffff16565b336000908152601c6020526040902054909150611506908363ffffffff6133f816565b336000818152601c602052604090209190915561152390826136cf565b5050505050565b600160a060020a031660009081526013602052604090205490565b61154d611ab1565b1515611591576040805160e560020a62461bcd0281526020600482018190526024820152600080516020614b23833981519152604482015290519081900360640190fd5b60008054604051600160a060020a03909116907f8be0079c531659141344cd1fd0a4f28419497f9722a3daafe3b4186f6b6457e0908390a36000805473ffffffffffffffffffffffffffffffffffffffff19169055565b610f85601e82613794565b60008060606000806000806000611608613800565b6001546040805182815260208084028201019091529198508015611636578160200160208202803883390190505b509550600094505b6001548510156117205760085460018054600160a060020a039092169163da66325791908890811061166c57fe5b90600052602060002090600891828204019190066004029054906101000a900463ffffffff166040518263ffffffff1660e060020a028152600401808263ffffffff168152602001915050602060405180830381600087803b1580156116d157600080fd5b505af11580156116e5573d6000803e3d6000fd5b505050506040513d60208110156116fb57600080fd5b5051865187908790811061170b57fe5b6020908102909101015260019094019361163e565b600d5460010193505b600a548410156117c85761176c600a8581548110151561174557fe5b906000526020600020906007020160010160159054906101000a900463ffffffff1661384b565b92506117bb6117ae600a8681548110151561178357fe5b9060005260206000209060070201888681518110151561179f57fe5b90602001906020020151613858565b889063ffffffff6133f816565b9650600190930192611729565b600e5460010191505b4382116118c7575060008181526006602052604081209094505b80548510156118bc57611822600a828781548110151561180757fe5b60009182526020822060029091020101548154811061174557fe5b92506118af6118a2600a838881548110151561183a57fe5b60009182526020822060029091020101548154811061185557fe5b9060005260206000209060070201838881548110151561187157fe5b6000918252602090912060029091020160010154898781518110151561189357fe5b906020019060200201516138ba565b889063ffffffff61390a16565b96506001909401936117eb565b6001909101906117d1565b50949695505050505050565b60008080831161192d576040805160e560020a62461bcd02815260206004820152601860248201527f657865726369736520616d6f756e74206973207a65726f210000000000000000604482015290519081900360640190fd5b611937848461394c565b61194184846111e5565b9150600290508115156119535761195d565b61195d82826139da565b50505050565b61196b611ab1565b15156119af576040805160e560020a62461bcd0281526020600482018190526024820152600080516020614b23833981519152604482015290519081900360640190fd5b610f85601e826139f4565b600e5481565b60006119ca611ab1565b1515611a0e576040805160e560020a62461bcd0281526020600482018190526024820152600080516020614b23833981519152604482015290519081900360640190fd5b610e18601e83613a25565b6000610e18600383613a91565b600054600160a060020a031690565b600a805482908110611a4357fe5b60009182526020909120600790910201805460018201546002830154600384015460048501546005860154600690960154949650600160a060020a0384169560a060020a850460ff1695750100000000000000000000000000000000000000000090950463ffffffff169489565b600054600160a060020a0316331490565b6060601e805480602002602001604051908101604052809291908181526020018280548015610da857602002820191906000526020600020905b815481526020019060010190808311611afc575050505050905090565b600080600080600080611b2b896115e8565b611b348a612bc5565b1515611b8a576040805160e560020a62461bcd02815260206004820152601f60248201527f756e6465726c79696e6720697320756e737570706f7274656420617373657400604482015290519081900360640190fd5b611b948d8d61359c565b9b5060008c11611bee576040805160e560020a62461bcd02815260206004820152601a60248201527f736574746c656d656e7420616d6f756e74206973207a65726f21000000000000604482015290519081900360640190fd5b601f54600854604080517fda66325700000000000000000000000000000000000000000000000000000000815263ffffffff8e166004820152905160009950611d3893600160a060020a0390811693632f581f489391169163da6632579160248082019260209290919082900301818f87803b158015611c6d57600080fd5b505af1158015611c81573d6000803e3d6000fd5b505050506040513d6020811015611c9757600080fd5b81019080805190602001909291905050508e8d8c6040518563ffffffff1660e060020a028152600401808581526020018481526020018381526020018260ff1660ff168152602001945050505050602060405180830381600087803b158015611cff57600080fd5b505af1158015611d13573d6000803e3d6000fd5b505050506040513d6020811015611d2957600080fd5b5051899063ffffffff61331016565b9450611d448686610f8d565b9350600860009054906101000a9004600160a060020a0316600160a060020a03166341976e098e6040518263ffffffff1660e060020a0281526004018082600160a060020a0316600160a060020a03168152602001915050602060405180830381600087803b158015611db657600080fd5b505af1158015611dca573d6000803e3d6000fd5b505050506040513d6020811015611de057600080fd5b50519250611df4858563ffffffff6133f816565b611e04848e63ffffffff61331016565b1015611e80576040805160e560020a62461bcd02815260206004820152602160248201527f736574746c656d656e7420617373657420697320696e73756666696369656e7460448201527f2100000000000000000000000000000000000000000000000000000000000000606482015290519081900360840190fd5b601f54604080517fa569a2d70000000000000000000000000000000000000000000000000000000081528151600160a060020a039093169263a569a2d7926004808401939192918290030181600087803b158015611edd57600080fd5b505af1158015611ef1573d6000803e3d6000fd5b505050506040513d6040811015611f0757600080fd5b5080516020909101519092509050611f25858463ffffffff6133b616565b9450611f37848463ffffffff6133b616565b9350611f4a878b8b42018e8c8787613aaa565b611f548d85613c42565b611f7484611f688e8863ffffffff61390a16565b9063ffffffff61390a16565b9b5060008c1115611f8a57611f8a338e8e613cc1565b50505050505050505050505050565b600080611fa4611ab1565b1515611fe8576040805160e560020a62461bcd0281526020600482018190526024820152600080516020614b23833981519152604482015290519081900360640190fd5b600160a060020a03831660009081526004602052604081205492508211612059576040805160e560020a62461bcd02815260206004820152601260248201527f4974277320656d7074792062616c616e63650000000000000000000000000000604482015290519081900360640190fd5b600160a060020a03831660008181526004602052604081205515156120ab57604051339083156108fc029084906000818181858888f193505050501580156120a5573d6000803e3d6000fd5b50612144565b50604080517fa9059cbb0000000000000000000000000000000000000000000000000000000081523360048201526024810183905290518391600160a060020a0383169163a9059cbb916044808201926020929091908290030181600087803b15801561211757600080fd5b505af115801561212b573d6000803e3d6000fd5b505050506040513d602081101561214157600080fd5b50505b604080518381529051600160a060020a0385169133917f747147be90b2a81a2e929994a92cd7bb71396bdbfd02f181867c81187d4f79449181900360200190a3505050565b6012805460408051602060026001851615610100026000190190941693909304601f81018490048402820184019092528181529291830182828015610d325780601f10610d0757610100808354040283529160200191610d32565b60008060606000806121f4611ab1565b1515612238576040805160e560020a62461bcd0281526020600482018190526024820152600080516020614b23833981519152604482015290519081900360640190fd5b600c5461225090879063ffffffff9081169061331016565b600a54909550851061226157612463565b600f5460018701111561227f576001860161227d600f82614a76565b505b600c5461229790869063ffffffff908116906133f816565b600a549094508411156122aa57600a5493505b6001546040805182815260208084028201019091529080156122d6578160200160208202803883390190505b509250600091505b6001548210156123c05760085460018054600160a060020a039092169163da66325791908590811061230c57fe5b90600052602060002090600891828204019190066004029054906101000a900463ffffffff166040518263ffffffff1660e060020a028152600401808263ffffffff168152602001915050602060405180830381600087803b15801561237157600080fd5b505af1158015612385573d6000803e3d6000fd5b505050506040513d602081101561239b57600080fd5b505183518490849081106123ab57fe5b602090810290910101526001909101906122de565b5060005b8385101561242b576123de600a8681548110151561174557fe5b955061241e612411600a878154811015156123f557fe5b9060005260206000209060070201858981518110151561179f57fe5b829063ffffffff6133f816565b60019095019490506123c4565b80600f8781548110151561243b57fe5b906000526020600020018190555060018403600d541015612463576000198401600d5543600e555b505050505050565b6000610e18601e83613e06565b612480611ab1565b15156124c4576040805160e560020a62461bcd0281526020600482018190526024820152600080516020614b23833981519152604482015290519081900360640190fd5b601f805473ffffffffffffffffffffffffffffffffffffffff1916600160a060020a0392909216919091179055565b600080600080600080600061250788611a19565b151561255d576040805160e560020a62461bcd02815260206004820152601f60248201527f736574746c656d656e7420697320756e737570706f7274656420746f6b656e00604482015290519081900360640190fd5b336000908152601360205260409020548911156125c4576040805160e560020a62461bcd02815260206004820152601e60248201527f53436f696e2062616c616e636520697320696e73756666696369656e74210000604482015290519081900360640190fd5b8815156125d057612721565b6125d86115f3565b96506125f1601b5460155461331090919063ffffffff16565b9550612608601b548a61331090919063ffffffff16565b94508561261b888763ffffffff6133f816565b116127215733600090815260136020908152604080832054601c9092529091205461265d9190612651908c63ffffffff61331016565b9063ffffffff6133b616565b336000908152601c6020526040902054909450612680908563ffffffff61390a16565b336000818152601c602052604090209190915561269d908a613e13565b601b546126b1908a9063ffffffff61331016565b9250600491506126c2838984613efe565b9250600090505b6000831180156126da575060035481105b156127175761270d836003838154811015156126f257fe5b600091825260209091200154600160a060020a031684613efe565b92506001016126c9565b612721838361410a565b505050505050505050565b60408051606081018252602581527f45524332303a2064656372656173656420616c6c6f77616e63652062656c6f776020808301919091527f207a65726f0000000000000000000000000000000000000000000000000000008284015233600081815260148352848120600160a060020a0388168252909252928120549092610d479290918691610ec29190879063ffffffff6131f416565b6000610d47338484613084565b6006602052826000526040600020828154811015156127ed57fe5b90600052602060002090600202018160028110151561280857fe5b0154925083915050565b61281a611ab1565b151561285e576040805160e560020a62461bcd0281526020600482018190526024820152600080516020614b23833981519152604482015290519081900360640190fd5b610f85600182614116565b600854600160a060020a031690565b601d60209081526000928352604080842090915290825290205481565b60025460ff1681565b60006128a8611ab1565b15156128ec576040805160e560020a62461bcd0281526020600482018190526024820152600080516020614b23833981519152604482015290519081900360640190fd5b6128f584613291565b9283555060019091015550565b601b5481565b600c5463ffffffff1681565b600160a060020a031660009081526004602052604090205490565b6000808080808080871161298d576040805160e560020a62461bcd02815260206004820152601460248201527f73656c6c20616d6f756e74206973207a65726f21000000000000000000000000604482015290519081900360640190fd5b612997888861394c565b6129a088613455565b60028101546008546001830154604080517fda663257000000000000000000000000000000000000000000000000000000008152750100000000000000000000000000000000000000000090920463ffffffff16600483015251939950429092039750600160a060020a03169163da663257916024808201926020929091908290030181600087803b158015612a3557600080fd5b505af1158015612a49573d6000803e3d6000fd5b505050506040513d6020811015612a5f57600080fd5b5051601f5460038801546001890154604080517f2f581f48000000000000000000000000000000000000000000000000000000008152600481018690526024810193909352604483018a905260a060020a90910460ff16606483015251929650600160a060020a0390911691632f581f48916084808201926020929091908290030181600087803b158015612af357600080fd5b505af1158015612b07573d6000803e3d6000fd5b505050506040513d6020811015612b1d57600080fd5b5051925060019150612b35838863ffffffff61331016565b9050612b4181836139da565b5050505050505050565b6000806000612b5984613291565b8054600190910154909590945092505050565b6000612b76611ab1565b1515612bba576040805160e560020a62461bcd0281526020600482018190526024820152600080516020614b23833981519152604482015290519081900360640190fd5b610e1860018361416d565b6000610e1860018361421c565b600160a060020a03918216600090815260146020908152604080832093909416825291909152205490565b601c6020526000908152604090205481565b6005805482908110612c1d57fe5b60009182526020909120600290910201805460019091015490915082565b612c43611ab1565b1515612c87576040805160e560020a62461bcd0281526020600482018190526024820152600080516020614b23833981519152604482015290519081900360640190fd5b610f85600382614229565b610f85600182614280565b60608060606000600380549050604051908082528060200260200182016040528015612cd3578160200160208202803883390190505b509150600090505b600354811015612d3d5760046000600383815481101515612cf857fe5b6000918252602080832090910154600160a060020a031683528201929092526040019020548251839083908110612d2b57fe5b60209081029091010152600101612cdb565b60038281805480602002602001604051908101604052809291908181526020018280548015612d9557602002820191906000526020600020905b8154600160a060020a03168152600190910190602001808311612d77575b505050505091509350935050509091565b612dae611ab1565b1515612df2576040805160e560020a62461bcd0281526020600482018190526024820152600080516020614b23833981519152604482015290519081900360640190fd5b610f858161428c565b612e03611ab1565b1515612e47576040805160e560020a62461bcd0281526020600482018190526024820152600080516020614b23833981519152604482015290519081900360640190fd5b6002805460ff1916911515919091179055565b610f8560038261437a565b600160a060020a0383161515612eea576040805160e560020a62461bcd028152602060048201526024808201527f45524332303a20617070726f76652066726f6d20746865207a65726f2061646460448201527f7265737300000000000000000000000000000000000000000000000000000000606482015290519081900360840190fd5b600160a060020a0382161515612f70576040805160e560020a62461bcd02815260206004820152602260248201527f45524332303a20617070726f766520746f20746865207a65726f20616464726560448201527f7373000000000000000000000000000000000000000000000000000000000000606482015290519081900360840190fd5b600160a060020a03808416600081815260146020908152604080832094871680845294825291829020859055815185815291517f8c5be1e5ebec7d5bd14f71427d1e84f3dd0314c0f7b2291e5b200ac8c7c3b9259281900390910190a3505050565b600080612fdf84846143e1565b845490915081101561307857835460001901811461305e5783548490600019810190811061300957fe5b6000918252602090912001548454600160a060020a039091169085908390811061302f57fe5b9060005260206000200160006101000a815481600160a060020a030219169083600160a060020a031602179055505b835461306e856000198301614a76565b506001915061307d565b600091505b5092915050565b600160a060020a038316151561310a576040805160e560020a62461bcd02815260206004820152602560248201527f45524332303a207472616e736665722066726f6d20746865207a65726f20616460448201527f6472657373000000000000000000000000000000000000000000000000000000606482015290519081900360840190fd5b600160a060020a0382161515613190576040805160e560020a62461bcd02815260206004820152602360248201527f45524332303a207472616e7366657220746f20746865207a65726f206164647260448201527f6573730000000000000000000000000000000000000000000000000000000000606482015290519081900360840190fd5b61319a838261442e565b6131a482826144fd565b81600160a060020a031683600160a060020a03167fddf252ad1be2c89b69c2b068fc378daa952ba7f163c4a11628f55a4df523b3ef836040518082815260200191505060405180910390a3505050565b60008082858511156132875760405160e560020a62461bcd0281526004018080602001828103825283818151815260200191508051906020019080838360005b8381101561324c578181015183820152602001613234565b50505050905090810190601f1680156132795780820380516001836020036101000a031916815260200191505b509250505060405180910390fd5b5050509103919050565b60055460009082106132ed576040805160e560020a62461bcd02815260206004820152601260248201527f66656520747970652069732076616c6964210000000000000000000000000000604482015290519081900360640190fd5b60058054839081106132fb57fe5b90600052602060002090600202019050919050565b600080831515613323576000915061307d565b5082820282848281151561333357fe5b04146133af576040805160e560020a62461bcd02815260206004820152602160248201527f536166654d6174683a206d756c7469706c69636174696f6e206f766572666c6f60448201527f7700000000000000000000000000000000000000000000000000000000000000606482015290519081900360840190fd5b9392505050565b60006133af83836040805190810160405280601a81526020017f536166654d6174683a206469766973696f6e206279207a65726f0000000000008152506145ac565b6000828201838110156133af576040805160e560020a62461bcd02815260206004820152601b60248201527f536166654d6174683a206164646974696f6e206f766572666c6f770000000000604482015290519081900360640190fd5b600080821180156134685750600a548211155b15156134be576040805160e560020a62461bcd02815260206004820152601660248201527f6f7074696f6e206964206973206e6f7420657869737400000000000000000000604482015290519081900360640190fd5b600a8054839081106134cc57fe5b90600052602060002090600702019050919050565b60028101544210610f85576040805160e560020a62461bcd02815260206004820152601160248201527f6f7074696f6e2069732065787069726564000000000000000000000000000000604482015290519081900360640190fd5b6004820154811115613598576040805160e560020a62461bcd02815260206004820152601d60248201527f6f7074696f6e20616d6f756e7420697320696e73756666696369656e74000000604482015290519081900360640190fd5b5050565b60008060006135aa85611a19565b1515613600576040805160e560020a62461bcd02815260206004820152601f60248201527f736574746c656d656e7420697320756e737570706f7274656420746f6b656e00604482015290519081900360640190fd5b60009150600160a060020a038516151561361c573491506136c7565b60008411156136c75750604080517f23b872dd0000000000000000000000000000000000000000000000000000000081523360048201523060248201526044810185905290518591600160a060020a038316916323b872dd916064808201926020929091908290030181600087803b15801561369757600080fd5b505af11580156136ab573d6000803e3d6000fd5b505050506040513d60208110156136c157600080fd5b50849250505b509392505050565b600160a060020a038216151561372f576040805160e560020a62461bcd02815260206004820152601f60248201527f45524332303a206d696e7420746f20746865207a65726f206164647265737300604482015290519081900360640190fd5b601554613742908263ffffffff6133f816565b60155561374f82826144fd565b604080518281529051600160a060020a038416916000917fddf252ad1be2c89b69c2b068fc378daa952ba7f163c4a11628f55a4df523b3ef9181900360200190a35050565b60006137a08383614618565b835490915081106137fb576040805160e560020a62461bcd02815260206004820152601e60248201527f77686974654c6973743a207573696e6720696e76616c69642076616c75650000604482015290519081900360640190fd5b505050565b600080805b600f548110156138455761383b600f8281548110151561382157fe5b9060005260206000200154836133f890919063ffffffff16565b9150600101613805565b50919050565b6000610e18600183614652565b60038201546001830154600091829160ff60a060020a9091041615908410141561389c57600484015460038501546138959163ffffffff61331016565b90506133af565b60048401546138b290849063ffffffff61331016565b949350505050565b60038301546001840154600091829160ff60a060020a909104161590841014156138fa5760038501546138f3908563ffffffff61331016565b90506138b2565b610fc9838563ffffffff61331016565b60006133af83836040805190810160405280601e81526020017f536166654d6174683a207375627472616374696f6e206f766572666c6f7700008152506131f4565b600061395783613455565b9050613962816134e1565b61396c81336146ab565b613976818361353c565b600481015461398b908363ffffffff61390a16565b6004820155436000908152600660209081526040808320815180830190925260001987018252818301869052805460018101808355918552929093206115239260029081029091019190614a9a565b6139e660018383614712565b91506137fb60008383614712565b6000613a008383614618565b83549091508114156137fb575081546001810183556000928352602090922090910155565b600080613a328484614618565b845490915081101561307857835460001901811461305e57835484906000198101908110613a5c57fe5b90600052602060002001548482815481101515613a7557fe5b600091825260209091200155835461306e856000198301614a76565b600080613a9e84846143e1565b93549093109392505050565b6000600a805490509050600a6101206040519081016040528083815260200133600160a060020a031681526020018a60ff1681526020018963ffffffff16815260200188815260200187815260200186815260200185815260200184815250908060018154018082558091505090600182039060005260206000209060070201600090919290919091506000820151816000015560208201518160010160006101000a815481600160a060020a030219169083600160a060020a0316021790555060408201518160010160146101000a81548160ff021916908360ff16021790555060608201518160010160156101000a81548163ffffffff021916908363ffffffff1602179055506080820151816002015560a0820151816003015560c0820151816004015560e0820151816005015561010082015181600601555050506007600033600160a060020a0316600160a060020a031681526020019081526020016000208190806001815401808255809150509060018203906000526020600020016000909192909190915055505050505050505050565b600160a060020a038216600090815260046020526040902054613c6b908263ffffffff6133f816565b600160a060020a038316600081815260046020908152604091829020939093558051848152905191927f1104eee7f034069140a0655d153038cedf9e65e5724018c555a8d56cfb6bee7792918290030190a25050565b6000811515613ccf5761195d565b600160a060020a0383161515613d1b57604051600160a060020a0385169083156108fc029084906000818181858888f19350505050158015613d15573d6000803e3d6000fd5b50613db5565b50604080517fa9059cbb000000000000000000000000000000000000000000000000000000008152600160a060020a038581166004830152602482018490529151849283169163a9059cbb9160448083019260209291908290030181600087803b158015613d8857600080fd5b505af1158015613d9c573d6000803e3d6000fd5b505050506040513d6020811015613db257600080fd5b50505b82600160a060020a031684600160a060020a03167f8aaaec2388cc390cde69685f78340e15f36d424b6b6b595f549dd883931f9c9b846040518082815260200191505060405180910390a350505050565b600080613a9e8484614618565b600160a060020a0382161515613e99576040805160e560020a62461bcd02815260206004820152602160248201527f45524332303a206275726e2066726f6d20746865207a65726f2061646472657360448201527f7300000000000000000000000000000000000000000000000000000000000000606482015290519081900360840190fd5b613ea3828261442e565b601554613eb6908263ffffffff61390a16565b601555604080518281529051600091600160a060020a038516917fddf252ad1be2c89b69c2b068fc378daa952ba7f163c4a11628f55a4df523b3ef9181900360200190a35050565b6000806000806000613f0f87611a19565b1515613f65576040805160e560020a62461bcd02815260206004820152601f60248201527f736574746c656d656e7420697320756e737570706f7274656420746f6b656e00604482015290519081900360640190fd5b336000908152601d60209081526040808320600160a060020a038b1684529091529020549350831515613f9a578794506140ff565b600854604080517f41976e09000000000000000000000000000000000000000000000000000000008152600160a060020a038a81166004830152915191909216916341976e099160248083019260209291908290030181600087803b15801561400257600080fd5b505af1158015614016573d6000803e3d6000fd5b505050506040513d602081101561402c57600080fd5b50519250614040888463ffffffff6133b616565b915081151561405257600094506140ff565b83821161405f5781614061565b835b336000908152601d60209081526040808320600160a060020a038c168452909152902054909150614098908263ffffffff61390a16565b336000818152601d60209081526040808320600160a060020a038d1684529091529020919091556140cb90888389614a38565b838211156140fa576140f36140e6828563ffffffff61331016565b899063ffffffff61390a16565b94506140ff565b600094505b505050509392505050565b6137fb60018383614712565b60006141228383614652565b83549091508114156137fb57508154600181018355600092835260209092206008830401805460079093166004026101000a63ffffffff818102199094169290931692909202179055565b60008061417a8484614652565b845490915081101561307857835460001901811461420c578354849060001981019081106141a457fe5b90600052602060002090600891828204019190066004029054906101000a900463ffffffff1684828154811015156141d857fe5b90600052602060002090600891828204019190066004026101000a81548163ffffffff021916908363ffffffff1602179055505b835461306e856000198301614ad8565b600080613a9e8484614652565b600061423583836143e1565b83549091508114156137fb578254600181018455600084815260209020018054600160a060020a03841673ffffffffffffffffffffffffffffffffffffffff19909116179055505050565b60006137a08383614652565b600160a060020a0381161515614312576040805160e560020a62461bcd02815260206004820152602660248201527f4f776e61626c653a206e6577206f776e657220697320746865207a65726f206160448201527f6464726573730000000000000000000000000000000000000000000000000000606482015290519081900360840190fd5b60008054604051600160a060020a03808516939216917f8be0079c531659141344cd1fd0a4f28419497f9722a3daafe3b4186f6b6457e091a36000805473ffffffffffffffffffffffffffffffffffffffff1916600160a060020a0392909216919091179055565b600061438683836143e1565b835490915081106137fb576040805160e560020a62461bcd02815260206004820181905260248201527f77686974654c6973743a207573696e6720696e76616c69642061646472657373604482015290519081900360640190fd5b6000805b83548110156133af5782600160a060020a0316848281548110151561440657fe5b600091825260209091200154600160a060020a03161415614426576133af565b6001016143e5565b600160a060020a03821615156144b4576040805160e560020a62461bcd02815260206004820152602360248201527f45524332303a207472616e7366657220746f20746865207a65726f206164647260448201527f6573730000000000000000000000000000000000000000000000000000000000606482015290519081900360840190fd5b600160a060020a0382166000908152601360205260409020546144dd908263ffffffff61390a16565b600160a060020a0390921660009081526013602052604090209190915550565b600160a060020a0382161515614583576040805160e560020a62461bcd02815260206004820152602360248201527f45524332303a207472616e7366657220746f20746865207a65726f206164647260448201527f6573730000000000000000000000000000000000000000000000000000000000606482015290519081900360840190fd5b600160a060020a0382166000908152601360205260409020546144dd908263ffffffff6133f816565b600080828185116146025760405160e560020a62461bcd0281526004018080602001828103825283818151815260200191508051906020019080838360008381101561324c578181015183820152602001613234565b50838581151561460e57fe5b0495945050505050565b6000805b83548110156133af5782848281548110151561463457fe5b9060005260206000200154141561464a576133af565b60010161461c565b6000805b83548110156133af578263ffffffff16848281548110151561467457fe5b6000918252602090912060088204015460079091166004026101000a900463ffffffff1614156146a3576133af565b600101614656565b6001820154600160a060020a03828116911614613598576040805160e560020a62461bcd02815260206004820152601f60248201527f63616c6c6572206973206e6f7420746865206f7074696f6e73206f776e657200604482015290519081900360640190fd5b600080808080808080808a151561472857614a29565b60008c600181111561473657fe5b1461474257601a614745565b60195b97506000965060009550600094505b6003548510156148b2576147a588600060038881548110151561477357fe5b6000918252602080832090910154600160a060020a03168352820192909252604001902054889063ffffffff6133f816565b60085460038054929950600160a060020a03909116916341976e099190889081106147cc57fe5b60009182526020808320909101546040805160e060020a63ffffffff8716028152600160a060020a0390921660048301525160248083019491928390030190829087803b15801561481c57600080fd5b505af1158015614830573d6000803e3d6000fd5b505050506040513d602081101561484657600080fd5b5051600380549195506148a691614899918b91600091908a90811061486757fe5b6000918252602080832090910154600160a060020a03168352820192909252604001902054869063ffffffff61331016565b879063ffffffff6133f816565b50600190940193614754565b8515156148c1578a9850614a29565b8a9250858b11156148d957858b039a508592506148de565b60009a505b6016546148f290849063ffffffff61331016565b925061490886612651858a63ffffffff61331016565b9150600094505b600354851015614a255761496a60165461265189612651868d600060038d81548110151561493957fe5b6000918252602080832090910154600160a060020a031683528201929092526040019020549063ffffffff61331016565b90506149b38189600060038981548110151561498257fe5b6000918252602080832090910154600160a060020a031683528201929092526040019020549063ffffffff61390a16565b8860006003888154811015156149c557fe5b6000918252602080832090910154600160a060020a0316835282019290925260400190205560038054614a1a913391889081106149fe57fe5b600091825260209091200154600160a060020a0316838d614a38565b60019094019361490f565b8a98505b50505050505050509392505050565b6000821515614a4657611523565b614a508284610f8d565b9050614a6c8585614a67868563ffffffff61390a16565b613cc1565b6115238482613c42565b8154818355818111156137fb576000838152602090206137fb918101908301614b08565b8260028101928215614ac8579160200282015b82811115614ac8578251825591602001919060010190614aad565b50614ad4929150614b08565b5090565b8154818355818111156137fb5760070160089004816007016008900483600052602060002091820191016137fb91905b610db091905b80821115614ad45760008155600101614b0e56004f776e61626c653a2063616c6c6572206973206e6f7420746865206f776e6572a165627a7a72305820edfc5fed78fc462a3aeb7f73971f7fb947cdf3b1ed97244e520561b65a310dfc0029",
  "source": "pragma solidity ^0.4.26;\r\nimport \"./SafeMath.sol\";\r\nimport \"./CollateralPool.sol\";\r\nimport \"./IOptionsPrice.sol\";\r\nimport \"./whiteList.sol\";\r\ncontract OptionsMangerV2 is CollateralPool {\r\n    using SafeMath for uint256;\r\n    uint256[] public expirationList;\r\n    IOptionsPrice internal optionsPrice;\r\n    function getOptionsPriceAddress() public view returns(address){\r\n        return address(optionsPrice);\r\n    }\r\n    function setOptionsPriceAddress(address options)public onlyOwner{\r\n        optionsPrice = IOptionsPrice(options);\r\n    }\r\n\r\n    function buyOption(address settlement,uint256 settlementAmount, uint256 strikePrice,uint32 underlying,\r\n        uint256 expiration,uint256 amount,uint8 optType)public payable{\r\n        checkExpiration(expiration);\r\n        require(isEligibleUnderlyingAsset(underlying) , \"underlying is unsupported asset\");\r\n        settlementAmount = getPayableAmount(settlement,settlementAmount);\r\n        require(settlementAmount>0 , \"settlement amount is zero!\");\r\n        uint256 buyFee = 0;\r\n        uint256 allPay = amount.mul(optionsPrice.getOptionsPrice( _oracle.getUnderlyingPrice(underlying),\r\n                            strikePrice,expiration,optType));\r\n        uint256 fee = calculateFee(buyFee,allPay);\r\n        uint256 settlePrice = _oracle.getPrice(settlement);\r\n        require(settlePrice.mul(settlementAmount)>=allPay.add(fee),\"settlement asset is insufficient!\");\r\n        (int256 ivNumerator,int256 ivDenominator) = optionsPrice.getIV();\r\n        allPay = allPay.div(settlePrice);\r\n        fee = fee.div(settlePrice);\r\n        createOptions(optType,underlying,now+expiration,strikePrice,amount,ivNumerator,ivDenominator);\r\n        _addTransactionFee(settlement,fee);\r\n        settlementAmount = settlementAmount.sub(allPay).sub(fee);\r\n        if (settlementAmount > 0){\r\n            _transferPayback(msg.sender,settlement,settlementAmount);\r\n        }\r\n  \r\n    }\r\n    function sellOption(uint256 optionsId,uint256 amount)public{\r\n        require(amount>0 , \"sell amount is zero!\");\r\n        burnOptions(optionsId,amount);\r\n        OptionsInfo storage info = getOptionsById(optionsId);\r\n        uint256 expiration = info.expiration-now;\r\n        uint256 currentPrice = _oracle.getUnderlyingPrice(info.underlying);\r\n        uint256 optPrice = optionsPrice.getOptionsPrice(currentPrice,info.strikePrice,expiration,info.optType);\r\n        uint256 sellFee = 1;\r\n        uint256 allPay = optPrice.mul(amount);\r\n        paybackSeller(allPay,sellFee);\r\n    }\r\n    function exerciseOption(uint256 optionsId,uint256 amount)public{\r\n        require(amount>0 , \"exercise amount is zero!\");\r\n        burnOptions(optionsId,amount);\r\n        uint256 allPay = getExerciseWorth(optionsId,amount);\r\n\r\n        uint256 exerciseFee = 2;\r\n        if (allPay == 0) {\r\n            return;\r\n        }\r\n        paybackSeller(allPay,exerciseFee);\r\n    }\r\n    function paybackSeller(uint256 worth,uint256 feeType) internal{\r\n        worth = _paybackWorth_sub(eBalance.premium,worth,feeType);\r\n        _paybackWorth_sub(eBalance.collateral,worth,feeType);\r\n    }\r\n    /**\r\n     * @dev Implementation of add an eligible expiration into the expirationList.\r\n     * @param expiration new eligible expiration.\r\n     */\r\n    function addExpiration(uint256 expiration)public onlyOwner{\r\n        whiteListUint256.addWhiteListUint256(expirationList,expiration);\r\n    }\r\n    /**\r\n     * @dev Implementation of revoke an invalid expiration from the expirationList.\r\n     * @param removeExpiration revoked expiration.\r\n     */\r\n    function removeExpirationList(uint256 removeExpiration)public onlyOwner returns(bool) {\r\n        return whiteListUint256.removeWhiteListUint256(expirationList,removeExpiration);\r\n    }\r\n    /**\r\n     * @dev Implementation of getting the eligible expirationList.\r\n     */\r\n    function getExpirationList()public view returns (uint256[]){\r\n        return expirationList;\r\n    }\r\n    /**\r\n     * @dev Implementation of testing whether the input expiration is eligible.\r\n     * @param expiration input expiration for testing.\r\n     */    \r\n    function isEligibleExpiration(uint256 expiration) public view returns (bool){\r\n        return whiteListUint256.isEligibleUint256(expirationList,expiration);\r\n    }\r\n    function checkExpiration(uint256 expiration) public view{\r\n        return whiteListUint256.checkEligibleUint256(expirationList,expiration);\r\n    }\r\n    function _getEligibleExpirationIndex(uint256 expiration) internal view returns (uint256){\r\n        return whiteListUint256._getEligibleIndexUint256(expirationList,expiration);\r\n    }\r\n}",
  "sourcePath": "C:\\work\\solidity\\FinnexusOptions_V2\\contracts\\OptionsMangerV2.sol",
  "compiler": {
    "name": "solc",
    "version": "0.4.26+commit.4563c3fc.Emscripten.clang"
  },
  "schemaVersion": "3.1.0",
  "updatedAt": "2020-07-17T09:23:18.689Z",
  "networkType": "ethereum",
  "devdoc": {
    "methods": {
      "addExpiration(uint256)": {
        "details": "Implementation of add an eligible expiration into the expirationList.\r",
        "params": {
          "expiration": "new eligible expiration.\r"
        }
      },
      "addUnderlyingAsset(uint32)": {
        "details": "Implementation of add an eligible underlying into the underlyingAssets.\r",
        "params": {
          "underlying": "new eligible underlying.\r"
        }
      },
      "addWhiteList(address)": {
        "details": "Implementation of add an eligible address into the whitelist.\r",
        "params": {
          "addAddress": "new eligible address.\r"
        }
      },
      "allowance(address,address)": {
        "details": "See {IERC20-allowance}.\r"
      },
      "approve(address,uint256)": {
        "details": "See {IERC20-approve}.\r      * Requirements:\r      * - `spender` cannot be the zero address.\r"
      },
      "balanceOf(address)": {
        "details": "See {IERC20-balanceOf}.\r"
      },
      "decreaseAllowance(address,uint256)": {
        "details": "Atomically decreases the allowance granted to `spender` by the caller.\r      * This is an alternative to {approve} that can be used as a mitigation for\r problems described in {IERC20-approve}.\r      * Emits an {Approval} event indicating the updated allowance.\r      * Requirements:\r      * - `spender` cannot be the zero address.\r - `spender` must have allowance for the caller of at least\r `subtractedValue`.\r"
      },
      "getExpirationList()": {
        "details": "Implementation of getting the eligible expirationList.\r"
      },
      "getUnderlyingAssets()": {
        "details": "Implementation of getting the eligible underlyingAssets.\r"
      },
      "getWhiteList()": {
        "details": "Implementation of getting the eligible whitelist.\r"
      },
      "increaseAllowance(address,uint256)": {
        "details": "Atomically increases the allowance granted to `spender` by the caller.\r      * This is an alternative to {approve} that can be used as a mitigation for\r problems described in {IERC20-approve}.\r      * Emits an {Approval} event indicating the updated allowance.\r      * Requirements:\r      * - `spender` cannot be the zero address.\r"
      },
      "isEligibleAddress(address)": {
        "details": "Implementation of testing whether the input address is eligible.\r",
        "params": {
          "tmpAddress": "input address for testing.\r"
        }
      },
      "isEligibleExpiration(uint256)": {
        "details": "Implementation of testing whether the input expiration is eligible.\r",
        "params": {
          "expiration": "input expiration for testing.\r"
        }
      },
      "isEligibleUnderlyingAsset(uint32)": {
        "details": "Implementation of testing whether the input underlying is eligible.\r",
        "params": {
          "underlying": "input underlying for testing.\r"
        }
      },
      "isOwner()": {
        "details": "Returns true if the caller is the current owner."
      },
      "owner()": {
        "details": "Returns the address of the current owner."
      },
      "removeExpirationList(uint256)": {
        "details": "Implementation of revoke an invalid expiration from the expirationList.\r",
        "params": {
          "removeExpiration": "revoked expiration.\r"
        }
      },
      "removeUnderlyingAssets(uint32)": {
        "details": "Implementation of revoke an invalid underlying from the underlyingAssets.\r",
        "params": {
          "removeUnderlying": "revoked underlying.\r"
        }
      },
      "removeWhiteList(address)": {
        "details": "Implementation of revoke an invalid address from the whitelist.\r",
        "params": {
          "removeAddress": "revoked address.\r"
        }
      },
      "renounceOwnership()": {
        "details": "Leaves the contract without owner. It will not be possible to call `onlyOwner` functions anymore. Can only be called by the current owner.     * NOTE: Renouncing ownership will leave the contract without an owner, thereby removing any functionality that is only available to the owner."
      },
      "setTransactionFee(uint256,uint256,uint256)": {
        "details": "set the rate of trasaction fee.\r",
        "params": {
          "denominator": "thedenominator of transaction fee.\r transaction fee = numerator/denominator;\r",
          "feeType": "the transaction fee type\r",
          "numerator": "the numerator of transaction fee .\r"
        }
      },
      "totalSupply()": {
        "details": "See {IERC20-totalSupply}.\r"
      },
      "transfer(address,uint256)": {
        "details": "See {IERC20-transfer}.\r      * Requirements:\r      * - `recipient` cannot be the zero address.\r - the caller must have a balance of at least `amount`.\r"
      },
      "transferFrom(address,address,uint256)": {
        "details": "See {IERC20-transferFrom}.\r      * Emits an {Approval} event indicating the updated allowance. This is not\r required by the EIP. See the note at the beginning of {ERC20};\r      * Requirements:\r - `sender` and `recipient` cannot be the zero address.\r - `sender` must have a balance of at least `amount`.\r - the caller must have allowance for `sender`'s tokens of at least\r `amount`.\r"
      },
      "transferOwnership(address)": {
        "details": "Transfers ownership of the contract to a new account (`newOwner`). Can only be called by the current owner."
      }
    }
  },
  "userdoc": {
    "methods": {
      "setHalt(bool)": {
        "notice": "function Emergency situation that requires contribution period to stop or not."
      }
    }
  }
}