{
  "contractName": "OptionsBase",
  "abi": [
    {
      "constant": false,
      "inputs": [
        {
          "name": "volatility",
          "type": "address"
        }
      ],
      "name": "setVolatilityAddress",
      "outputs": [],
      "payable": false,
      "stateMutability": "nonpayable",
      "type": "function"
    },
    {
      "constant": true,
      "inputs": [],
      "name": "getUnderlyingAssets",
      "outputs": [
        {
          "name": "",
          "type": "uint32[]"
        }
      ],
      "payable": false,
      "stateMutability": "view",
      "type": "function"
    },
    {
      "constant": true,
      "inputs": [
        {
          "name": "",
          "type": "uint256"
        }
      ],
      "name": "expirationList",
      "outputs": [
        {
          "name": "",
          "type": "uint256"
        }
      ],
      "payable": false,
      "stateMutability": "view",
      "type": "function"
    },
    {
      "constant": true,
      "inputs": [
        {
          "name": "",
          "type": "uint256"
        }
      ],
      "name": "underlyingAssets",
      "outputs": [
        {
          "name": "",
          "type": "uint32"
        }
      ],
      "payable": false,
      "stateMutability": "view",
      "type": "function"
    },
    {
      "constant": true,
      "inputs": [],
      "name": "getVolatilityAddress",
      "outputs": [
        {
          "name": "",
          "type": "address"
        }
      ],
      "payable": false,
      "stateMutability": "view",
      "type": "function"
    },
    {
      "constant": false,
      "inputs": [
        {
          "name": "oracle",
          "type": "address"
        }
      ],
      "name": "setOracleAddress",
      "outputs": [],
      "payable": false,
      "stateMutability": "nonpayable",
      "type": "function"
    },
    {
      "constant": true,
      "inputs": [
        {
          "name": "",
          "type": "address"
        },
        {
          "name": "",
          "type": "uint256"
        }
      ],
      "name": "optionsBalances",
      "outputs": [
        {
          "name": "",
          "type": "uint256"
        }
      ],
      "payable": false,
      "stateMutability": "view",
      "type": "function"
    },
    {
      "constant": true,
      "inputs": [],
      "name": "getOptionsPriceAddress",
      "outputs": [
        {
          "name": "",
          "type": "address"
        }
      ],
      "payable": false,
      "stateMutability": "view",
      "type": "function"
    },
    {
      "constant": false,
      "inputs": [],
      "name": "renounceOwnership",
      "outputs": [],
      "payable": false,
      "stateMutability": "nonpayable",
      "type": "function"
    },
    {
      "constant": true,
      "inputs": [],
      "name": "burnTimeLimit",
      "outputs": [
        {
          "name": "",
          "type": "uint256"
        }
      ],
      "payable": false,
      "stateMutability": "view",
      "type": "function"
    },
    {
      "constant": true,
      "inputs": [],
      "name": "owner",
      "outputs": [
        {
          "name": "",
          "type": "address"
        }
      ],
      "payable": false,
      "stateMutability": "view",
      "type": "function"
    },
    {
      "constant": true,
      "inputs": [
        {
          "name": "",
          "type": "uint256"
        }
      ],
      "name": "allOptions",
      "outputs": [
        {
          "name": "optionID",
          "type": "uint64"
        },
        {
          "name": "owner",
          "type": "address"
        },
        {
          "name": "optType",
          "type": "uint8"
        },
        {
          "name": "underlying",
          "type": "uint32"
        },
        {
          "name": "expiration",
          "type": "uint256"
        },
        {
          "name": "strikePrice",
          "type": "uint256"
        },
        {
          "name": "amount",
          "type": "uint256"
        }
      ],
      "payable": false,
      "stateMutability": "view",
      "type": "function"
    },
    {
      "constant": true,
      "inputs": [],
      "name": "isOwner",
      "outputs": [
        {
          "name": "",
          "type": "bool"
        }
      ],
      "payable": false,
      "stateMutability": "view",
      "type": "function"
    },
    {
      "constant": false,
      "inputs": [
        {
          "name": "optionsPrice",
          "type": "address"
        }
      ],
      "name": "setOptionsPriceAddress",
      "outputs": [],
      "payable": false,
      "stateMutability": "nonpayable",
      "type": "function"
    },
    {
      "constant": false,
      "inputs": [
        {
          "name": "underlying",
          "type": "uint32"
        }
      ],
      "name": "addUnderlyingAsset",
      "outputs": [],
      "payable": false,
      "stateMutability": "nonpayable",
      "type": "function"
    },
    {
      "constant": true,
      "inputs": [],
      "name": "getOracleAddress",
      "outputs": [
        {
          "name": "",
          "type": "address"
        }
      ],
      "payable": false,
      "stateMutability": "view",
      "type": "function"
    },
    {
      "constant": false,
      "inputs": [
        {
          "name": "managerAddress",
          "type": "address"
        }
      ],
      "name": "setManager",
      "outputs": [],
      "payable": false,
      "stateMutability": "nonpayable",
      "type": "function"
    },
    {
      "constant": true,
      "inputs": [],
      "name": "getManager",
      "outputs": [
        {
          "name": "",
          "type": "address"
        }
      ],
      "payable": false,
      "stateMutability": "view",
      "type": "function"
    },
    {
      "constant": false,
      "inputs": [
        {
          "name": "removeUnderlying",
          "type": "uint32"
        }
      ],
      "name": "removeUnderlyingAssets",
      "outputs": [
        {
          "name": "",
          "type": "bool"
        }
      ],
      "payable": false,
      "stateMutability": "nonpayable",
      "type": "function"
    },
    {
      "constant": true,
      "inputs": [
        {
          "name": "underlying",
          "type": "uint32"
        }
      ],
      "name": "isEligibleUnderlyingAsset",
      "outputs": [
        {
          "name": "",
          "type": "bool"
        }
      ],
      "payable": false,
      "stateMutability": "view",
      "type": "function"
    },
    {
      "constant": true,
      "inputs": [
        {
          "name": "underlying",
          "type": "uint32"
        }
      ],
      "name": "checkUnderlyingAsset",
      "outputs": [],
      "payable": false,
      "stateMutability": "view",
      "type": "function"
    },
    {
      "constant": false,
      "inputs": [
        {
          "name": "newOwner",
          "type": "address"
        }
      ],
      "name": "transferOwnership",
      "outputs": [],
      "payable": false,
      "stateMutability": "nonpayable",
      "type": "function"
    },
    {
      "inputs": [
        {
          "name": "oracleAddr",
          "type": "address"
        },
        {
          "name": "optionsPriceAddr",
          "type": "address"
        },
        {
          "name": "ivAddress",
          "type": "address"
        }
      ],
      "payable": false,
      "stateMutability": "nonpayable",
      "type": "constructor"
    },
    {
      "anonymous": false,
      "inputs": [
        {
          "indexed": true,
          "name": "owner",
          "type": "address"
        },
        {
          "indexed": true,
          "name": "optionID",
          "type": "uint256"
        },
        {
          "indexed": false,
          "name": "optType",
          "type": "uint8"
        },
        {
          "indexed": false,
          "name": "underlying",
          "type": "uint32"
        },
        {
          "indexed": false,
          "name": "expiration",
          "type": "uint256"
        },
        {
          "indexed": false,
          "name": "strikePrice",
          "type": "uint256"
        },
        {
          "indexed": false,
          "name": "amount",
          "type": "uint256"
        }
      ],
      "name": "CreateOption",
      "type": "event"
    },
    {
      "anonymous": false,
      "inputs": [
        {
          "indexed": true,
          "name": "owner",
          "type": "address"
        },
        {
          "indexed": true,
          "name": "optionID",
          "type": "uint256"
        },
        {
          "indexed": false,
          "name": "amount",
          "type": "uint256"
        }
      ],
      "name": "BurnOption",
      "type": "event"
    },
    {
      "anonymous": false,
      "inputs": [
        {
          "indexed": false,
          "name": "value1",
          "type": "uint256"
        },
        {
          "indexed": false,
          "name": "value2",
          "type": "uint256"
        },
        {
          "indexed": false,
          "name": "value3",
          "type": "uint256"
        }
      ],
      "name": "DebugEvent",
      "type": "event"
    },
    {
      "anonymous": false,
      "inputs": [
        {
          "indexed": true,
          "name": "previousOwner",
          "type": "address"
        },
        {
          "indexed": true,
          "name": "newOwner",
          "type": "address"
        }
      ],
      "name": "OwnershipTransferred",
      "type": "event"
    },
    {
      "constant": true,
      "inputs": [],
      "name": "getBurnTimeLimit",
      "outputs": [
        {
          "name": "",
          "type": "uint256"
        }
      ],
      "payable": false,
      "stateMutability": "view",
      "type": "function"
    },
    {
      "constant": false,
      "inputs": [
        {
          "name": "timeLimit",
          "type": "uint256"
        }
      ],
      "name": "setBurnTimeLimit",
      "outputs": [],
      "payable": false,
      "stateMutability": "nonpayable",
      "type": "function"
    },
    {
      "constant": true,
      "inputs": [
        {
          "name": "user",
          "type": "address"
        }
      ],
      "name": "getUserOptionsID",
      "outputs": [
        {
          "name": "",
          "type": "uint256[]"
        }
      ],
      "payable": false,
      "stateMutability": "view",
      "type": "function"
    },
    {
      "constant": true,
      "inputs": [
        {
          "name": "user",
          "type": "address"
        },
        {
          "name": "from",
          "type": "uint256"
        },
        {
          "name": "size",
          "type": "uint256"
        }
      ],
      "name": "getUserOptionsID",
      "outputs": [
        {
          "name": "",
          "type": "uint256[]"
        }
      ],
      "payable": false,
      "stateMutability": "view",
      "type": "function"
    },
    {
      "constant": true,
      "inputs": [],
      "name": "getOptionInfoLength",
      "outputs": [
        {
          "name": "",
          "type": "uint256"
        }
      ],
      "payable": false,
      "stateMutability": "view",
      "type": "function"
    },
    {
      "constant": true,
      "inputs": [
        {
          "name": "from",
          "type": "uint256"
        },
        {
          "name": "size",
          "type": "uint256"
        }
      ],
      "name": "getOptionInfoList",
      "outputs": [
        {
          "name": "",
          "type": "address[]"
        },
        {
          "name": "",
          "type": "uint256[]"
        },
        {
          "name": "",
          "type": "uint256[]"
        },
        {
          "name": "",
          "type": "uint256[]"
        },
        {
          "name": "",
          "type": "uint256[]"
        }
      ],
      "payable": false,
      "stateMutability": "view",
      "type": "function"
    },
    {
      "constant": true,
      "inputs": [
        {
          "name": "ids",
          "type": "uint256[]"
        }
      ],
      "name": "getOptionInfoListFromID",
      "outputs": [
        {
          "name": "",
          "type": "address[]"
        },
        {
          "name": "",
          "type": "uint256[]"
        },
        {
          "name": "",
          "type": "uint256[]"
        },
        {
          "name": "",
          "type": "uint256[]"
        },
        {
          "name": "",
          "type": "uint256[]"
        }
      ],
      "payable": false,
      "stateMutability": "view",
      "type": "function"
    },
    {
      "constant": true,
      "inputs": [],
      "name": "getLatestOption",
      "outputs": [
        {
          "name": "",
          "type": "uint256"
        },
        {
          "name": "",
          "type": "address"
        },
        {
          "name": "",
          "type": "uint8"
        },
        {
          "name": "",
          "type": "uint32"
        },
        {
          "name": "",
          "type": "uint256"
        },
        {
          "name": "",
          "type": "uint256"
        },
        {
          "name": "",
          "type": "uint256"
        }
      ],
      "payable": false,
      "stateMutability": "view",
      "type": "function"
    },
    {
      "constant": true,
      "inputs": [
        {
          "name": "optionsId",
          "type": "uint256"
        }
      ],
      "name": "getOptionsLimitTimeById",
      "outputs": [
        {
          "name": "",
          "type": "uint256"
        }
      ],
      "payable": false,
      "stateMutability": "view",
      "type": "function"
    },
    {
      "constant": true,
      "inputs": [
        {
          "name": "optionsId",
          "type": "uint256"
        }
      ],
      "name": "getOptionsById",
      "outputs": [
        {
          "name": "",
          "type": "uint256"
        },
        {
          "name": "",
          "type": "address"
        },
        {
          "name": "",
          "type": "uint8"
        },
        {
          "name": "",
          "type": "uint32"
        },
        {
          "name": "",
          "type": "uint256"
        },
        {
          "name": "",
          "type": "uint256"
        },
        {
          "name": "",
          "type": "uint256"
        }
      ],
      "payable": false,
      "stateMutability": "view",
      "type": "function"
    },
    {
      "constant": false,
      "inputs": [
        {
          "name": "from",
          "type": "address"
        },
        {
          "name": "settlement",
          "type": "address"
        },
        {
          "name": "type_ly_exp",
          "type": "uint256"
        },
        {
          "name": "strikePrice",
          "type": "uint256"
        },
        {
          "name": "optionPrice",
          "type": "uint256"
        },
        {
          "name": "amount",
          "type": "uint256"
        }
      ],
      "name": "createOptions",
      "outputs": [],
      "payable": false,
      "stateMutability": "nonpayable",
      "type": "function"
    },
    {
      "constant": true,
      "inputs": [
        {
          "name": "optionsId",
          "type": "uint256"
        },
        {
          "name": "amount",
          "type": "uint256"
        }
      ],
      "name": "getExerciseWorth",
      "outputs": [
        {
          "name": "",
          "type": "uint256"
        }
      ],
      "payable": false,
      "stateMutability": "view",
      "type": "function"
    },
    {
      "constant": true,
      "inputs": [
        {
          "name": "expiration",
          "type": "uint256"
        },
        {
          "name": "underlying",
          "type": "uint32"
        }
      ],
      "name": "buyOptionCheck",
      "outputs": [],
      "payable": false,
      "stateMutability": "view",
      "type": "function"
    },
    {
      "constant": false,
      "inputs": [
        {
          "name": "expiration",
          "type": "uint256"
        }
      ],
      "name": "addExpiration",
      "outputs": [],
      "payable": false,
      "stateMutability": "nonpayable",
      "type": "function"
    },
    {
      "constant": false,
      "inputs": [
        {
          "name": "removeExpiration",
          "type": "uint256"
        }
      ],
      "name": "removeExpirationList",
      "outputs": [
        {
          "name": "",
          "type": "bool"
        }
      ],
      "payable": false,
      "stateMutability": "nonpayable",
      "type": "function"
    },
    {
      "constant": true,
      "inputs": [],
      "name": "getExpirationList",
      "outputs": [
        {
          "name": "",
          "type": "uint256[]"
        }
      ],
      "payable": false,
      "stateMutability": "view",
      "type": "function"
    },
    {
      "constant": true,
      "inputs": [
        {
          "name": "expiration",
          "type": "uint256"
        }
      ],
      "name": "isEligibleExpiration",
      "outputs": [
        {
          "name": "",
          "type": "bool"
        }
      ],
      "payable": false,
      "stateMutability": "view",
      "type": "function"
    },
    {
      "constant": true,
      "inputs": [
        {
          "name": "expiration",
          "type": "uint256"
        }
      ],
      "name": "checkExpiration",
      "outputs": [],
      "payable": false,
      "stateMutability": "view",
      "type": "function"
    }
  ],
  "bytecode": "0x6080604052610e10600a553480156200001757600080fd5b5060405160608062002f3983398101604081815282516020840151919093015160008054600160a060020a031916331780825592939192600160a060020a0316917f8be0079c531659141344cd1fd0a4f28419497f9722a3daafe3b4186f6b6457e0908290a3620000918364010000000062000140810204565b620000a582640100000000620001d2810204565b620000b98164010000000062000264810204565b6040805160e0810182526201518081526203f480602082015262093a8091810191909152620d2f0060608201526213c680608082015262278d0060a08201526276a70060c08201526200011190600990600762000308565b506040805180820190915260018082526002602083018190526200013692906200035f565b505050506200044f565b62000153640100000000620002f6810204565b1515620001b057604080517f08c379a0000000000000000000000000000000000000000000000000000000008152602060048201819052602482015260008051602062002f19833981519152604482015290519081900360640190fd5b60038054600160a060020a031916600160a060020a0392909216919091179055565b620001e5640100000000620002f6810204565b15156200024257604080517f08c379a0000000000000000000000000000000000000000000000000000000008152602060048201819052602482015260008051602062002f19833981519152604482015290519081900360640190fd5b60048054600160a060020a031916600160a060020a0392909216919091179055565b62000277640100000000620002f6810204565b1515620002d457604080517f08c379a0000000000000000000000000000000000000000000000000000000008152602060048201819052602482015260008051602062002f19833981519152604482015290519081900360640190fd5b60058054600160a060020a031916600160a060020a0392909216919091179055565b600054600160a060020a031633145b90565b8280548282559060005260206000209081019282156200034d579160200282015b828111156200034d578251829062ffffff1690559160200191906001019062000329565b506200035b9291506200040e565b5090565b82805482825590600052602060002090600701600890048101928215620004005791602002820160005b83821115620003cc57835183826101000a81548163ffffffff021916908360ff160217905550926020019260040160208160030104928301926001030262000389565b8015620003fe5782816101000a81549063ffffffff0219169055600401602081600301049283019260010302620003cc565b505b506200035b9291506200042b565b6200030591905b808211156200035b576000815560010162000415565b6200030591905b808211156200035b57805463ffffffff1916815560010162000432565b612aba806200045f6000396000f3006080604052600436106101d45763ffffffff60e060020a6000350416630438d49081146101d95780632967eafe1461035c578063354af3601461037f5780633582d789146103d45780633ad2fb57146104395780633ad980991461045a5780633b50c4d11461048457806342e5479d146104b557806345e19fdd146104e657806348ee201d146105425780634c69c00f1461055a57806355c47cb21461057b5780635ca4b73b1461059f57806364ed3017146105b457806367b8ceb9146105c95780636d84e2e3146105e4578063715018a6146105fc578063723931ca146106115780637b23dbbe146106295780637cfff2d81461063e5780637e838fa3146106565780638da5cb5b146106825780638ea745b8146106975780638f32d59b146107015780639052d5f814610716578063924a69ce1461072b5780639ef975d21461075e578063a093e2d014610776578063afec82fc14610797578063b18b78dd146107b5578063bec3107f146107ca578063c5acbe15146107df578063d0ebdbe7146107f7578063d500958414610818578063d6d140121461082d578063db6ad2bd1461084b578063e7c5681514610869578063ee29c94a1461088a578063f2fde38b146108a8578063f7de1923146108c9575b600080fd5b3480156101e557600080fd5b506101f46004356024356108f0565b60405180806020018060200180602001806020018060200186810386528b818151815260200191508051906020019060200280838360005b8381101561024457818101518382015260200161022c565b5050505090500186810385528a818151815260200191508051906020019060200280838360005b8381101561028357818101518382015260200161026b565b50505050905001868103845289818151815260200191508051906020019060200280838360005b838110156102c25781810151838201526020016102aa565b50505050905001868103835288818151815260200191508051906020019060200280838360005b838110156103015781810151838201526020016102e9565b50505050905001868103825287818151815260200191508051906020019060200280838360005b83811015610340578181015183820152602001610328565b505050509050019a505050505050505050505060405180910390f35b34801561036857600080fd5b5061037d600160a060020a0360043516610b3a565b005b34801561038b57600080fd5b50604080516020600480358082013583810280860185019096528085526101f495369593946024949385019291829185019084908082843750949750610ba89650505050505050565b3480156103e057600080fd5b506103e9610dc1565b60408051602080825283518183015283519192839290830191858101910280838360005b8381101561042557818101518382015260200161040d565b505050509050019250505060405180910390f35b34801561044557600080fd5b5061037d60043563ffffffff60243516610e46565b34801561046657600080fd5b50610472600435610eb2565b60408051918252519081900360200190f35b34801561049057600080fd5b5061049c600435610ed1565b6040805163ffffffff9092168252519081900360200190f35b3480156104c157600080fd5b506104ca610f09565b60408051600160a060020a039092168252519081900360200190f35b3480156104f257600080fd5b506104fb610f18565b60408051978852600160a060020a03909616602088015260ff9094168686015263ffffffff9092166060860152608085015260a084015260c0830152519081900360e00190f35b34801561054e57600080fd5b506104fb600435611003565b34801561056657600080fd5b5061037d600160a060020a0360043516611077565b34801561058757600080fd5b50610472600160a060020a03600435166024356110e5565b3480156105ab57600080fd5b506104ca611115565b3480156105c057600080fd5b50610472611124565b3480156105d557600080fd5b5061047260043560243561112a565b3480156105f057600080fd5b506104726004356112aa565b34801561060857600080fd5b5061037d611331565b34801561061d57600080fd5b5061037d6004356113c7565b34801561063557600080fd5b5061047261144f565b34801561064a57600080fd5b5061037d600435611455565b34801561066257600080fd5b5061066e6004356114ac565b604080519115158252519081900360200190f35b34801561068e57600080fd5b506104ca61150b565b3480156106a357600080fd5b506106af60043561151a565b6040805167ffffffffffffffff9098168852600160a060020a03909616602088015260ff9094168686015263ffffffff9092166060860152608085015260a084015260c0830152519081900360e00190f35b34801561070d57600080fd5b5061066e61158b565b34801561072257600080fd5b506103e961159c565b34801561073757600080fd5b5061037d600160a060020a036004358116906024351660443560643560843560a4356115f3565b34801561076a57600080fd5b5061066e60043561192e565b34801561078257600080fd5b5061037d600160a060020a036004351661198a565b3480156107a357600080fd5b5061037d63ffffffff600435166119f8565b3480156107c157600080fd5b506104ca611a4f565b3480156107d657600080fd5b50610472611a5e565b3480156107eb57600080fd5b5061037d600435611a64565b34801561080357600080fd5b5061037d600160a060020a0360043516611ab5565b34801561082457600080fd5b506104ca611b23565b34801561083957600080fd5b5061066e63ffffffff60043516611b32565b34801561085757600080fd5b5061066e63ffffffff60043516611b8b565b34801561087557600080fd5b506103e9600160a060020a0360043516611c13565b34801561089657600080fd5b5061037d63ffffffff60043516611c7f565b3480156108b457600080fd5b5061037d600160a060020a0360043516611d05565b3480156108d557600080fd5b506103e9600160a060020a0360043516602435604435611d5a565b6060806060806060806060806060806000806006805490508d8f01111561092757600654610924908f63ffffffff611e4116565b9c505b60008d1115610b29578c60405190808252806020026020018201604052801561095a578160200160208202803883390190505b5096508c604051908082528060200260200182016040528015610987578160200160208202803883390190505b5095508c6040519080825280602002602001820160405280156109b4578160200160208202803883390190505b5094508c6040519080825280602002602001820160405280156109e1578160200160208202803883390190505b5093508c604051908082528060200260200182016040528015610a0e578160200160208202803883390190505b509250600091505b8c821015610b1957600680548f8401908110610a2e57fe5b906000526020600020906005020190508060000160089054906101000a9004600160a060020a03168783815181101515610a6457fe5b600160a060020a03929092166020928302919091019091015280546001820154875160e060020a90920460ff1663ffffffff9182166201000002011690879084908110610aad57fe5b6020908102909101015260028101548551869084908110610aca57fe5b6020908102909101015260038101548451859084908110610ae757fe5b6020908102909101015260048101548351849084908110610b0457fe5b60209081029091010152600190910190610a16565b86868686869b509b509b509b509b505b505050505050509295509295909350565b610b4261158b565b1515610b86576040805160e560020a62461bcd0281526020600482018190526024820152600080516020612a6f833981519152604482015290519081900360640190fd5b60058054600160a060020a031916600160a060020a0392909216919091179055565b6060806060806060600060608060608060606000808d51975087604051908082528060200260200182016040528015610beb578160200160208202803883390190505b50965087604051908082528060200260200182016040528015610c18578160200160208202803883390190505b50955087604051908082528060200260200182016040528015610c45578160200160208202803883390190505b50945087604051908082528060200260200182016040528015610c72578160200160208202803883390190505b50935087604051908082528060200260200182016040528015610c9f578160200160208202803883390190505b509250600091505b87821015610dad57610ccf8e83815181101515610cc057fe5b90602001906020020151611e8a565b80548851919250680100000000000000009004600160a060020a031690889084908110610cf857fe5b600160a060020a03929092166020928302919091019091015280546001820154875160e060020a90920460ff1663ffffffff9182166201000002011690879084908110610d4157fe5b6020908102909101015260028101548551869084908110610d5e57fe5b6020908102909101015260038101548451859084908110610d7b57fe5b6020908102909101015260048101548351849084908110610d9857fe5b60209081029091010152600190910190610ca7565b50949c939b50919950975095509350505050565b60606001805480602002602001604051908101604052809291908181526020018280548015610e3b57602002820191906000526020600020906000905b82829054906101000a900463ffffffff1663ffffffff1681526020019060040190602082600301049283019260010382029150808411610dfe5790505b505050505090505b90565b610e4f81611b8b565b1515610ea5576040805160e560020a62461bcd02815260206004820152601f60248201527f756e6465726c79696e6720697320756e737570706f7274656420617373657400604482015290519081900360640190fd5b610eae826113c7565b5050565b6009805482908110610ec057fe5b600091825260209091200154905081565b6001805482908110610edf57fe5b9060005260206000209060089182820401919006600402915054906101000a900463ffffffff1681565b600554600160a060020a031690565b60065460009081908190819081908190819081808211610f82576040805160e560020a62461bcd02815260206004820152601560248201527f6f7074696f6e73206c69737420697320656d7074790000000000000000000000604482015290519081900360640190fd5b600680546000198401908110610f9457fe5b60009182526020909120600590910201805460018201546002830154600384015460049094015467ffffffffffffffff84169e680100000000000000008504600160a060020a03169e5060e060020a90940460ff169c5063ffffffff9092169a50985091965090945092505050565b60008060008060008060008061101889611e8a565b805460018201546002830154600384015460049094015467ffffffffffffffff84169e680100000000000000008504600160a060020a03169e5060e060020a90940460ff169c5063ffffffff9092169a50985091965090945092505050565b61107f61158b565b15156110c3576040805160e560020a62461bcd0281526020600482018190526024820152600080516020612a6f833981519152604482015290519081900360640190fd5b60038054600160a060020a031916600160a060020a0392909216919091179055565b60086020528160005260406000208181548110151561110057fe5b90600052602060002001600091509150505481565b600454600160a060020a031690565b600a5490565b60006111346129bb565b60008061114086611e8a565b6040805160e081018252825467ffffffffffffffff81168252680100000000000000008104600160a060020a0316602083015260e060020a900460ff1691810191909152600182015463ffffffff16606082015260028201546080820152600382015460a082015260049091015460c082015292506111be83611f1a565b6111c88386611f75565b6003546060840151604080517fda66325700000000000000000000000000000000000000000000000000000000815263ffffffff909216600483015251600160a060020a039092169163da663257916024808201926020929091908290030181600087803b15801561123957600080fd5b505af115801561124d573d6000803e3d6000fd5b505050506040513d602081101561126357600080fd5b5051604084015160a085015191935061127c9184611fd1565b905080151561128e57600093506112a1565b61129e818663ffffffff61200616565b93505b50505092915050565b600080821180156112bd57506006548211155b1515611313576040805160e560020a62461bcd02815260206004820152601660248201527f6f7074696f6e206964206973206e6f7420657869737400000000000000000000604482015290519081900360640190fd5b50600a54600019820160009081526007602052604090205401919050565b61133961158b565b151561137d576040805160e560020a62461bcd0281526020600482018190526024820152600080516020612a6f833981519152604482015290519081900360640190fd5b60008054604051600160a060020a03909116907f8be0079c531659141344cd1fd0a4f28419497f9722a3daafe3b4186f6b6457e0908390a360008054600160a060020a0319169055565b6113d08161192e565b151561144c576040805160e560020a62461bcd02815260206004820152602160248201527f65787069726174696f6e2076616c7565206973206e6f7420737570706f72746560448201527f6400000000000000000000000000000000000000000000000000000000000000606482015290519081900360840190fd5b50565b600a5481565b61145d61158b565b15156114a1576040805160e560020a62461bcd0281526020600482018190526024820152600080516020612a6f833981519152604482015290519081900360640190fd5b61144c6009826120b0565b60006114b661158b565b15156114fa576040805160e560020a62461bcd0281526020600482018190526024820152600080516020612a6f833981519152604482015290519081900360640190fd5b611505600983612127565b92915050565b600054600160a060020a031690565b600680548290811061152857fe5b60009182526020909120600590910201805460018201546002830154600384015460049094015467ffffffffffffffff84169550680100000000000000008404600160a060020a03169460e060020a90940460ff169363ffffffff909316929087565b600054600160a060020a0316331490565b60606009805480602002602001604051908101604052809291908181526020018280548015610e3b57602002820191906000526020600020905b8154815260200190600101908083116115d6575050505050905090565b60008060006116006129bb565b600254600160a060020a03163314611688576040805160e560020a62461bcd02815260206004820152602660248201527f4d616e6167657261626c653a2063616c6c6572206973206e6f7420746865204d60448201527f616e616765720000000000000000000000000000000000000000000000000000606482015290519081900360840190fd5b6006549350611696886121d4565b92506116a1886121e1565b9150600660e0604051908101604052808660010167ffffffffffffffff1681526020018c600160a060020a031681526020018560ff1681526020018463ffffffff168152602001426116f28c6121fa565b01815260208082018b90526040918201899052835460018082018655600095865282862085516005909302018054868501518787015167ffffffffffffffff1990921667ffffffffffffffff909516949094177fffffffff0000000000000000000000000000000000000000ffffffffffffffff1668010000000000000000600160a060020a0395861602177fffffff00ffffffffffffffffffffffffffffffffffffffffffffffffffffffff1660e060020a60ff909216919091021781556060860151818301805463ffffffff191663ffffffff9092169190911790556080860151600282015560a0860151600382015560c0909501516004909501949094558e16845260088152908320805480840182559084529220908601910155600680548590811061181e57fe5b60009182526020918290206040805160e081018252600593909302909101805467ffffffffffffffff81168452680100000000000000008104600160a060020a03169484019490945260e060020a90930460ff1690820152600182015463ffffffff16606082015260028201546080820152600382015460a082015260049091015460c082015290506118b2818a8861221b565b836001018a600160a060020a03167f18f523957030bee670136363e25b2f847bf1bd07bb7b33c6d5475936a9aac70d8585426118ed8e6121fa565b6040805160ff909516855263ffffffff90931660208501520182820152606082018c9052608082018a9052519081900360a00190a350505050505050505050565b6000611505600980548060200260200160405190810160405280929190818152602001828054801561197f57602002820191906000526020600020905b81548152602001906001019080831161196b575b5050505050836124ea565b61199261158b565b15156119d6576040805160e560020a62461bcd0281526020600482018190526024820152600080516020612a6f833981519152604482015290519081900360640190fd5b60048054600160a060020a031916600160a060020a0392909216919091179055565b611a0061158b565b1515611a44576040805160e560020a62461bcd0281526020600482018190526024820152600080516020612a6f833981519152604482015290519081900360640190fd5b61144c600182612529565b600354600160a060020a031690565b60065490565b611a6c61158b565b1515611ab0576040805160e560020a62461bcd0281526020600482018190526024820152600080516020612a6f833981519152604482015290519081900360640190fd5b600a55565b611abd61158b565b1515611b01576040805160e560020a62461bcd0281526020600482018190526024820152600080516020612a6f833981519152604482015290519081900360640190fd5b60028054600160a060020a031916600160a060020a0392909216919091179055565b600254600160a060020a031690565b6000611b3c61158b565b1515611b80576040805160e560020a62461bcd0281526020600482018190526024820152600080516020612a6f833981519152604482015290519081900360640190fd5b6115056001836125f2565b60006115056001805480602002602001604051908101604052809291908181526020018280548015611c0857602002820191906000526020600020906000905b82829054906101000a900463ffffffff1663ffffffff1681526020019060040190602082600301049283019260010382029150808411611bcb5790505b5050505050836126e9565b600160a060020a038116600090815260086020908152604091829020805483518184028101840190945280845260609392830182828015611c7357602002820191906000526020600020905b815481526020019060010190808311611c5f575b50505050509050919050565b61144c6001805480602002602001604051908101604052809291908181526020018280548015611cfa57602002820191906000526020600020906000905b82829054906101000a900463ffffffff1663ffffffff1681526020019060040190602082600301049283019260010382029150808411611cbd5790505b505050505082612734565b611d0d61158b565b1515611d51576040805160e560020a62461bcd0281526020600482018190526024820152600080516020612a6f833981519152604482015290519081900360640190fd5b61144c81612794565b606080600083604051908082528060200260200182016040528015611d89578160200160208202803883390190505b50600160a060020a0387166000908152600860205260409020549092508585011115611ddb57600160a060020a038616600090815260086020526040902054611dd8908663ffffffff611e4116565b93505b5060005b83811015611e3857600160a060020a03861660009081526008602052604090208054868301908110611e0d57fe5b90600052602060002001548282815181101515611e2657fe5b60209081029091010152600101611ddf565b50949350505050565b6000611e8383836040805190810160405280601e81526020017f536166654d6174683a207375627472616374696f6e206f766572666c6f770000815250612875565b9392505050565b60008082118015611e9d57506006548211155b1515611ef3576040805160e560020a62461bcd02815260206004820152601660248201527f6f7074696f6e206964206973206e6f7420657869737400000000000000000000604482015290519081900360640190fd5b600680546000198401908110611f0557fe5b90600052602060002090600502019050919050565b6080810151421061144c576040805160e560020a62461bcd02815260206004820152601160248201527f6f7074696f6e2069732065787069726564000000000000000000000000000000604482015290519081900360640190fd5b60c0820151811115610eae576040805160e560020a62461bcd02815260206004820152601d60248201527f6f7074696f6e20616d6f756e7420697320696e73756666696369656e74000000604482015290519081900360640190fd5b600060ff8416158284111415611fe957506000611e83565b60ff841615611ffa57818303611ffe565b8282035b949350505050565b60008083151561201957600091506120a9565b5082820282848281151561202957fe5b04146120a5576040805160e560020a62461bcd02815260206004820152602160248201527f536166654d6174683a206d756c7469706c69636174696f6e206f766572666c6f60448201527f7700000000000000000000000000000000000000000000000000000000000000606482015290519081900360840190fd5b8091505b5092915050565b612109828054806020026020016040519081016040528092919081815260200182805480156120fe57602002820191906000526020600020905b8154815260200190600101908083116120ea575b5050505050826124ea565b1515610eae5781546001810183556000928352602090922090910155565b8154600090815b818110156121635783858281548110151561214557fe5b9060005260206000200154141561215b57612163565b60010161212e565b818110156121c757600019820181146121ad57846001830381548110151561218757fe5b906000526020600020015485828154811015156121a057fe5b6000918252602090912001555b84546121bd8660001983016129f7565b50600192506121cc565b600092505b505092915050565b67ffffffffffffffff1690565b68010000000000000000900467ffffffffffffffff1690565b700100000000000000000000000000000000900467ffffffffffffffff1690565b60a08301516080840151600554606086015160408088015181517fb4277bc100000000000000000000000000000000000000000000000000000000815263ffffffff909316600484015260ff16602483015242909303604482018190526064820185905283519093600093849384938493600160a060020a039093169263b4277bc1926084808201939182900301818787803b1580156122ba57600080fd5b505af11580156122ce573d6000803e3d6000fd5b505050506040513d60408110156122e457600080fd5b5080516020918201516004805460408e81015181517f055ef6ab0000000000000000000000000000000000000000000000000000000081529384018d9052602484018d9052604484018c9052606484018690526084840185905260ff1660a484015251939850919650600160a060020a039091169263055ef6ab9260c4808401938290030181600087803b15801561237b57600080fd5b505af115801561238f573d6000803e3d6000fd5b505050506040513d60208110156123a557600080fd5b5051600354604080517f41976e09000000000000000000000000000000000000000000000000000000008152600160a060020a038c81166004830152915193955061244f9391909216916341976e099160248083019260209291908290030181600087803b15801561241657600080fd5b505af115801561242a573d6000803e3d6000fd5b505050506040513d602081101561244057600080fd5b5051889063ffffffff61291216565b6040805160c081018252428152600160a060020a039a8b166020808301918252828401948552606083019687526080830198895260a083019788529c516000190167ffffffffffffffff1660009081526007909d5291909b209a518b555160018b018054600160a060020a03191691909a16179098555095516002880155945160038701555160048601555050905160059092019190915550565b8151600090815b818110156121c75783858281518110151561250857fe5b90602001906020020151141561252157600192506121cc565b6001016124f1565b6125ae828054806020026020016040519081016040528092919081815260200182805480156125a357602002820191906000526020600020906000905b82829054906101000a900463ffffffff1663ffffffff16815260200190600401906020826003010492830192600103820291508084116125665790505b5050505050826126e9565b1515610eae578154600181018355600092835260209092206008830401805460079093166004026101000a63ffffffff818102199094169290931692909202179055565b8154600090815b8181101561264d578363ffffffff16858281548110151561261657fe5b6000918252602090912060088204015460079091166004026101000a900463ffffffff1614156126455761264d565b6001016125f9565b818110156121c757600019820181146126d957846001830381548110151561267157fe5b90600052602060002090600891828204019190066004029054906101000a900463ffffffff1685828154811015156126a557fe5b90600052602060002090600891828204019190066004026101000a81548163ffffffff021916908363ffffffff1602179055505b84546121bd866000198301612a20565b8151600090815b818110156121c7578363ffffffff16858281518110151561270d57fe5b9060200190602002015163ffffffff16141561272c57600192506121cc565b6001016126f0565b61273e82826126e9565b1515610eae576040805160e560020a62461bcd02815260206004820152601f60248201527f77686974654c6973743a207573696e6720696e76616c69642075696e74333200604482015290519081900360640190fd5b600160a060020a038116151561281a576040805160e560020a62461bcd02815260206004820152602660248201527f4f776e61626c653a206e6577206f776e657220697320746865207a65726f206160448201527f6464726573730000000000000000000000000000000000000000000000000000606482015290519081900360840190fd5b60008054604051600160a060020a03808516939216917f8be0079c531659141344cd1fd0a4f28419497f9722a3daafe3b4186f6b6457e091a360008054600160a060020a031916600160a060020a0392909216919091179055565b60008082858511156129085760405160e560020a62461bcd0281526004018080602001828103825283818151815260200191508051906020019080838360005b838110156128cd5781810151838201526020016128b5565b50505050905090810190601f1680156128fa5780820380516001836020036101000a031916815260200191505b509250505060405180910390fd5b5050509103919050565b6000611e8383836040805190810160405280601a81526020017f536166654d6174683a206469766973696f6e206279207a65726f000000000000815250600080828185116129a55760405160e560020a62461bcd028152600401808060200182810382528381815181526020019150805190602001908083836000838110156128cd5781810151838201526020016128b5565b5083858115156129b157fe5b0495945050505050565b6040805160e081018252600080825260208201819052918101829052606081018290526080810182905260a0810182905260c081019190915290565b815481835581811115612a1b57600083815260209020612a1b918101908301612a50565b505050565b815481835581811115612a1b576007016008900481600701600890048360005260206000209182019101612a1b91905b610e4391905b80821115612a6a5760008155600101612a56565b509056004f776e61626c653a2063616c6c6572206973206e6f7420746865206f776e6572a165627a7a72305820bb64f0b030112bd8d27d11168ebb0662536036155429913abf38d38d0a4a2f0100294f776e61626c653a2063616c6c6572206973206e6f7420746865206f776e6572",
  "source": "pragma solidity ^0.4.26;\r\nimport \"./modules/SafeMath.sol\";\r\nimport \"./modules/Managerable.sol\";\r\nimport \"./interfaces/IFNXOracle.sol\";\r\nimport \"./modules/underlyingAssets.sol\";\r\nimport \"./interfaces/IOptionsPrice.sol\";\r\nimport \"./interfaces/IVolatility.sol\";\r\nimport \"./modules/tuple.sol\";\r\ncontract OptionsBase is UnderlyingAssets,Managerable,ImportOracle,ImportOptionsPrice,ImportVolatility {\r\n    \r\n    using SafeMath for uint256;\r\n    struct OptionsInfo {\r\n        uint64     optionID;\r\n        address     owner;\r\n        uint8   \toptType;    //0 for call, 1 for put\r\n        uint32\t\tunderlying;\r\n        uint256\t\texpiration;\r\n        uint256     strikePrice;\r\n        uint256     amount;\r\n    }\r\n\r\n    struct OptionsInfoEx{\r\n        uint256\t\t createdTime;\r\n        address      settlement;\r\n        uint256      tokenTimePrice;\r\n        uint256      fullPrice;\r\n        uint256      ivNumerator;\r\n        uint256      ivDenominator;\r\n    }\r\n    //options information\r\n    OptionsInfo[] public allOptions;\r\n    mapping(uint256=>OptionsInfoEx) internal optionExtraMap;\r\n\r\n    //user options balances\r\n    mapping(address=>uint256[]) public optionsBalances;\r\n    //expiration whitelist\r\n    uint256[] public expirationList;\r\n    uint256 public burnTimeLimit = 1 hours;\r\n\r\n\r\n    event CreateOption(address indexed owner,uint256 indexed optionID,uint8 optType,uint32 underlying,uint256 expiration,uint256 strikePrice,uint256 amount);\r\n    event BurnOption(address indexed owner,uint256 indexed optionID,uint amount);\r\n    event DebugEvent(uint256 value1,uint256 value2,uint256 value3);\r\n    constructor (address oracleAddr,address optionsPriceAddr,address ivAddress) public{\r\n        setOracleAddress(oracleAddr);\r\n        setOptionsPriceAddress(optionsPriceAddr);\r\n        setVolatilityAddress(ivAddress);\r\n        expirationList =  [1 days,3 days, 7 days, 10 days, 15 days, 30 days,90 days];\r\n        underlyingAssets = [1,2];\r\n    }\r\n    function getBurnTimeLimit()public view returns(uint256){\r\n        return burnTimeLimit;\r\n    }\r\n    function setBurnTimeLimit(uint256 timeLimit)public onlyOwner{\r\n        burnTimeLimit = timeLimit;\r\n    }\r\n    function getUserOptionsID(address user)public view returns(uint256[]){\r\n        return optionsBalances[user];\r\n    }\r\n    function getUserOptionsID(address user,uint256 from,uint256 size)public view returns(uint256[]){\r\n        uint256[] memory userIdAry = new uint256[](size);\r\n        if (from+size>optionsBalances[user].length){\r\n            size = optionsBalances[user].length.sub(from);\r\n        }\r\n        for (uint256 i= 0;i<size;i++){\r\n            userIdAry[i] = optionsBalances[user][from+i];\r\n        }\r\n        return userIdAry;\r\n    }\r\n    function getOptionInfoLength()public view returns (uint256){\r\n        return allOptions.length;\r\n    }\r\n    function getOptionInfoList(uint256 from,uint256 size)public view \r\n                returns(address[],uint256[],uint256[],uint256[],uint256[]){\r\n        if (from+size>allOptions.length){\r\n            size = allOptions.length.sub(from);\r\n        }\r\n        if (size>0){\r\n            address[] memory ownerArr = new address[](size);\r\n            uint256[] memory typeAndUnderArr = new uint256[](size);\r\n            uint256[] memory expArr = new uint256[](size);\r\n            uint256[] memory priceArr = new uint256[](size);\r\n            uint256[] memory amountArr = new uint256[](size);\r\n            for (uint i=0;i<size;i++){\r\n                OptionsInfo storage info = allOptions[from+i];\r\n                ownerArr[i] = info.owner;\r\n                typeAndUnderArr[i] = (info.underlying << 16) + info.optType;\r\n                expArr[i] = info.expiration;\r\n                priceArr[i] = info.strikePrice;\r\n                amountArr[i] = info.amount;\r\n            }\r\n            return (ownerArr,typeAndUnderArr,expArr,priceArr,amountArr);\r\n        }\r\n    }\r\n    function getOptionInfoListFromID(uint256[] ids)public view \r\n                returns(address[],uint256[],uint256[],uint256[],uint256[]){\r\n        uint256 size = ids.length;\r\n        address[] memory ownerArr = new address[](size);\r\n        uint256[] memory typeAndUnderArr = new uint256[](size);\r\n        uint256[] memory expArr = new uint256[](size);\r\n        uint256[] memory priceArr = new uint256[](size);\r\n        uint256[] memory amountArr = new uint256[](size);\r\n        for (uint i=0;i<size;i++){\r\n            OptionsInfo storage info = _getOptionsById(ids[i]);\r\n            ownerArr[i] = info.owner;\r\n            typeAndUnderArr[i] = (info.underlying << 16) + info.optType;\r\n            expArr[i] = info.expiration;\r\n            priceArr[i] = info.strikePrice;\r\n            amountArr[i] = info.amount;\r\n        }\r\n        return (ownerArr,typeAndUnderArr,expArr,priceArr,amountArr);\r\n    }\r\n    function getLatestOption()public view returns(uint256,address,uint8,uint32,uint256,uint256,uint256){\r\n        uint256 len = allOptions.length;\r\n        require(len>0,\"options list is empty\");\r\n        OptionsInfo storage info = allOptions[len-1];\r\n        return (info.optionID,info.owner,info.optType,info.underlying,info.expiration,info.strikePrice,info.amount);\r\n    }\r\n    function getOptionsLimitTimeById(uint256 optionsId)public view returns(uint256){\r\n        require(optionsId>0 && optionsId <= allOptions.length,\"option id is not exist\");\r\n        return optionExtraMap[optionsId-1].createdTime + burnTimeLimit;\r\n    }\r\n    function getOptionsById(uint256 optionsId)public view returns(uint256,address,uint8,uint32,uint256,uint256,uint256){\r\n        OptionsInfo storage info = _getOptionsById(optionsId);\r\n        return (info.optionID,info.owner,info.optType,info.underlying,info.expiration,info.strikePrice,info.amount);\r\n    }\r\n\r\n    function getUnderlyingPrices()internal view returns(uint256[] memory){\r\n        uint256 underlyingLen = underlyingAssets.length;\r\n        uint256[] memory prices = new uint256[](underlyingLen);\r\n        for (uint256 i = 0;i<underlyingLen;i++){\r\n            prices[i] = _oracle.getUnderlyingPrice(underlyingAssets[i]);\r\n        }\r\n        return prices;\r\n    }\r\n\r\n    function createOptions(address from,address settlement,uint256 type_ly_exp,uint256 strikePrice,uint256 optionPrice,\r\n                uint256 amount) onlyManager public {\r\n        uint256 optionID = allOptions.length;\r\n        uint8 optType = uint8(tuple64.getValue0(type_ly_exp));\r\n        uint32 underlying = uint32(tuple64.getValue1(type_ly_exp));\r\n        allOptions.push(OptionsInfo(uint64(optionID+1),from,optType,underlying,tuple64.getValue2(type_ly_exp)+now,strikePrice,amount));\r\n        optionsBalances[from].push(optionID+1);\r\n        OptionsInfo memory info = allOptions[optionID];\r\n        setOptionsExtra(info,settlement,optionPrice);\r\n        emit CreateOption(from,optionID+1,optType,underlying,tuple64.getValue2(type_ly_exp)+now,strikePrice,amount);\r\n    }\r\n    function setOptionsExtra(OptionsInfo memory info,address settlement,uint256 optionPrice) internal{\r\n        uint256 strikePrice = info.strikePrice;\r\n        uint256 expiration = info.expiration - now;\r\n        (uint256 ivNumerator,uint256 ivDenominator) = _volatility.calculateIv(info.underlying,info.optType,expiration,strikePrice);\r\n        uint256 fullPrice = _optionsPrice.getOptionsPrice_iv(strikePrice,strikePrice,expiration,ivNumerator,ivDenominator,info.optType);\r\n        uint256 tokenTimePrice = optionPrice.div(_oracle.getPrice(settlement));\r\n        optionExtraMap[info.optionID-1]= OptionsInfoEx(now,settlement,tokenTimePrice,fullPrice,ivNumerator,ivDenominator);\r\n    }\r\n    function getExerciseWorth(uint256 optionsId,uint256 amount)public view returns(uint256){\r\n        OptionsInfo memory info = _getOptionsById(optionsId);\r\n        checkEligible(info);\r\n        checkSufficient(info,amount);\r\n        uint256 underlyingPrice = _oracle.getUnderlyingPrice(info.underlying);\r\n        uint256 tokenPayback = _getOptionsPayback(info.optType,info.strikePrice,underlyingPrice);\r\n        if (tokenPayback == 0 ){\r\n            return 0;\r\n        } \r\n        return tokenPayback.mul(amount);\r\n    }\r\n    function _getOptionsWorth(uint8 optType,uint256 strikePrice,uint256 underlyingPrice)internal pure returns(uint256){\r\n        if ((optType == 0) == (strikePrice>underlyingPrice)){ // call\r\n            return strikePrice;\r\n        } else {\r\n            return underlyingPrice;\r\n        }\r\n    }\r\n    function _getOptionsPayback(uint8 optType,uint256 strikePrice,uint256 underlyingPrice)internal pure returns(uint256){\r\n        if ((optType == 0) == (strikePrice>underlyingPrice)){ // call\r\n            return 0;\r\n        } else {\r\n            return (optType == 0) ? underlyingPrice - strikePrice : strikePrice - underlyingPrice;\r\n        }\r\n    }\r\n    function _getOptionsById(uint256 id)internal view returns(OptionsInfo storage){\r\n        require(id>0 && id <= allOptions.length,\"option id is not exist\");\r\n        return allOptions[id-1];\r\n    }\r\n    function checkBurnable(uint256 optionID)internal view{\r\n        require(optionExtraMap[optionID-1].createdTime+burnTimeLimit<now,\"option lock limitation is not expired\");\r\n    }\r\n    function checkEligible(OptionsInfo memory info)internal view{\r\n        require(info.expiration>now,\"option is expired\");\r\n    }\r\n    function checkOwner(OptionsInfo memory info,address owner)internal pure{\r\n        require(info.owner == owner,\"caller is not the options owner\");\r\n    }\r\n    function checkSufficient(OptionsInfo memory info,uint256 amount) internal pure{\r\n        require(info.amount >= amount,\"option amount is insufficient\");\r\n    }\r\n    function buyOptionCheck(uint256 expiration,uint32 underlying)public view{\r\n        require(isEligibleUnderlyingAsset(underlying) , \"underlying is unsupported asset\");\r\n        checkExpiration(expiration);\r\n    }\r\n        /**\r\n     * @dev Implementation of add an eligible expiration into the expirationList.\r\n     * @param expiration new eligible expiration.\r\n     */\r\n    function addExpiration(uint256 expiration)public onlyOwner{\r\n        whiteListUint256.addWhiteListUint256(expirationList,expiration);\r\n    }\r\n    /**\r\n     * @dev Implementation of revoke an invalid expiration from the expirationList.\r\n     * @param removeExpiration revoked expiration.\r\n     */\r\n    function removeExpirationList(uint256 removeExpiration)public onlyOwner returns(bool) {\r\n        return whiteListUint256.removeWhiteListUint256(expirationList,removeExpiration);\r\n    }\r\n    /**\r\n     * @dev Implementation of getting the eligible expirationList.\r\n     */\r\n    function getExpirationList()public view returns (uint256[]){\r\n        return expirationList;\r\n    }\r\n    /**\r\n     * @dev Implementation of testing whether the input expiration is eligible.\r\n     * @param expiration input expiration for testing.\r\n     */    \r\n    function isEligibleExpiration(uint256 expiration) public view returns (bool){\r\n        return whiteListUint256.isEligibleUint256(expirationList,expiration);\r\n    }\r\n    function checkExpiration(uint256 expiration) public view{\r\n        return require(isEligibleExpiration(expiration),\"expiration value is not supported\");\r\n    }\r\n    function _getEligibleExpirationIndex(uint256 expiration) internal view returns (uint256){\r\n        return whiteListUint256._getEligibleIndexUint256(expirationList,expiration);\r\n    }\r\n\r\n}",
  "sourcePath": "C:\\work\\solidity\\FinnexusOptions_V2\\contracts\\OptionsBase.sol",
  "compiler": {
    "name": "solc",
    "version": "0.4.26+commit.4563c3fc.Emscripten.clang"
  },
  "schemaVersion": "3.1.0",
  "updatedAt": "2020-07-31T09:18:35.084Z",
  "devdoc": {
    "methods": {
      "addExpiration(uint256)": {
        "details": "Implementation of add an eligible expiration into the expirationList.\r",
        "params": {
          "expiration": "new eligible expiration.\r"
        }
      },
      "addUnderlyingAsset(uint32)": {
        "details": "Implementation of add an eligible underlying into the underlyingAssets.\r",
        "params": {
          "underlying": "new eligible underlying.\r"
        }
      },
      "getExpirationList()": {
        "details": "Implementation of getting the eligible expirationList.\r"
      },
      "getUnderlyingAssets()": {
        "details": "Implementation of getting the eligible underlyingAssets.\r"
      },
      "isEligibleExpiration(uint256)": {
        "details": "Implementation of testing whether the input expiration is eligible.\r",
        "params": {
          "expiration": "input expiration for testing.\r"
        }
      },
      "isEligibleUnderlyingAsset(uint32)": {
        "details": "Implementation of testing whether the input underlying is eligible.\r",
        "params": {
          "underlying": "input underlying for testing.\r"
        }
      },
      "isOwner()": {
        "details": "Returns true if the caller is the current owner."
      },
      "owner()": {
        "details": "Returns the address of the current owner."
      },
      "removeExpirationList(uint256)": {
        "details": "Implementation of revoke an invalid expiration from the expirationList.\r",
        "params": {
          "removeExpiration": "revoked expiration.\r"
        }
      },
      "removeUnderlyingAssets(uint32)": {
        "details": "Implementation of revoke an invalid underlying from the underlyingAssets.\r",
        "params": {
          "removeUnderlying": "revoked underlying.\r"
        }
      },
      "renounceOwnership()": {
        "details": "Leaves the contract without owner. It will not be possible to call `onlyOwner` functions anymore. Can only be called by the current owner.     * NOTE: Renouncing ownership will leave the contract without an owner, thereby removing any functionality that is only available to the owner."
      },
      "transferOwnership(address)": {
        "details": "Transfers ownership of the contract to a new account (`newOwner`). Can only be called by the current owner."
      }
    }
  },
  "userdoc": {
    "methods": {
      "setManager(address)": {
        "notice": "contribution period to stop or not."
      }
    }
  }
}