{
  "contractName": "OptionsPool",
  "abi": [
    {
      "constant": true,
      "inputs": [],
      "name": "lastCalBlock_share",
      "outputs": [
        {
          "name": "",
          "type": "uint256"
        }
      ],
      "payable": false,
      "stateMutability": "view",
      "type": "function"
    },
    {
      "constant": true,
      "inputs": [],
      "name": "lastCallOption",
      "outputs": [
        {
          "name": "",
          "type": "uint256"
        }
      ],
      "payable": false,
      "stateMutability": "view",
      "type": "function"
    },
    {
      "constant": true,
      "inputs": [],
      "name": "sharedPhase",
      "outputs": [
        {
          "name": "",
          "type": "uint32"
        }
      ],
      "payable": false,
      "stateMutability": "view",
      "type": "function"
    },
    {
      "constant": true,
      "inputs": [],
      "name": "getUnderlyingAssets",
      "outputs": [
        {
          "name": "",
          "type": "uint32[]"
        }
      ],
      "payable": false,
      "stateMutability": "view",
      "type": "function"
    },
    {
      "constant": true,
      "inputs": [
        {
          "name": "",
          "type": "uint256"
        }
      ],
      "name": "expirationList",
      "outputs": [
        {
          "name": "",
          "type": "uint256"
        }
      ],
      "payable": false,
      "stateMutability": "view",
      "type": "function"
    },
    {
      "constant": true,
      "inputs": [
        {
          "name": "",
          "type": "uint256"
        }
      ],
      "name": "underlyingAssets",
      "outputs": [
        {
          "name": "",
          "type": "uint32"
        }
      ],
      "payable": false,
      "stateMutability": "view",
      "type": "function"
    },
    {
      "constant": true,
      "inputs": [
        {
          "name": "",
          "type": "address"
        },
        {
          "name": "",
          "type": "uint256"
        }
      ],
      "name": "optionsBalances",
      "outputs": [
        {
          "name": "",
          "type": "uint256"
        }
      ],
      "payable": false,
      "stateMutability": "view",
      "type": "function"
    },
    {
      "constant": false,
      "inputs": [],
      "name": "renounceOwnership",
      "outputs": [],
      "payable": false,
      "stateMutability": "nonpayable",
      "type": "function"
    },
    {
      "constant": true,
      "inputs": [],
      "name": "lastCalBlock",
      "outputs": [
        {
          "name": "",
          "type": "uint256"
        }
      ],
      "payable": false,
      "stateMutability": "view",
      "type": "function"
    },
    {
      "constant": true,
      "inputs": [],
      "name": "owner",
      "outputs": [
        {
          "name": "",
          "type": "address"
        }
      ],
      "payable": false,
      "stateMutability": "view",
      "type": "function"
    },
    {
      "constant": true,
      "inputs": [
        {
          "name": "",
          "type": "uint256"
        }
      ],
      "name": "allOptions",
      "outputs": [
        {
          "name": "optionID",
          "type": "uint256"
        },
        {
          "name": "owner",
          "type": "address"
        },
        {
          "name": "optType",
          "type": "uint8"
        },
        {
          "name": "underlying",
          "type": "uint32"
        },
        {
          "name": "expiration",
          "type": "uint256"
        },
        {
          "name": "strikePrice",
          "type": "uint256"
        },
        {
          "name": "amount",
          "type": "uint256"
        }
      ],
      "payable": false,
      "stateMutability": "view",
      "type": "function"
    },
    {
      "constant": true,
      "inputs": [],
      "name": "isOwner",
      "outputs": [
        {
          "name": "",
          "type": "bool"
        }
      ],
      "payable": false,
      "stateMutability": "view",
      "type": "function"
    },
    {
      "constant": true,
      "inputs": [
        {
          "name": "",
          "type": "uint256"
        },
        {
          "name": "",
          "type": "uint256"
        },
        {
          "name": "",
          "type": "uint256"
        }
      ],
      "name": "burnBlockOptions",
      "outputs": [
        {
          "name": "",
          "type": "uint256"
        }
      ],
      "payable": false,
      "stateMutability": "view",
      "type": "function"
    },
    {
      "constant": false,
      "inputs": [
        {
          "name": "underlying",
          "type": "uint32"
        }
      ],
      "name": "addUnderlyingAsset",
      "outputs": [],
      "payable": false,
      "stateMutability": "nonpayable",
      "type": "function"
    },
    {
      "constant": true,
      "inputs": [],
      "name": "optionPhase",
      "outputs": [
        {
          "name": "",
          "type": "uint32"
        }
      ],
      "payable": false,
      "stateMutability": "view",
      "type": "function"
    },
    {
      "constant": false,
      "inputs": [
        {
          "name": "managerAddress",
          "type": "address"
        }
      ],
      "name": "setManager",
      "outputs": [],
      "payable": false,
      "stateMutability": "nonpayable",
      "type": "function"
    },
    {
      "constant": true,
      "inputs": [],
      "name": "getManager",
      "outputs": [
        {
          "name": "",
          "type": "address"
        }
      ],
      "payable": false,
      "stateMutability": "view",
      "type": "function"
    },
    {
      "constant": false,
      "inputs": [
        {
          "name": "removeUnderlying",
          "type": "uint32"
        }
      ],
      "name": "removeUnderlyingAssets",
      "outputs": [
        {
          "name": "",
          "type": "bool"
        }
      ],
      "payable": false,
      "stateMutability": "nonpayable",
      "type": "function"
    },
    {
      "constant": true,
      "inputs": [
        {
          "name": "underlying",
          "type": "uint32"
        }
      ],
      "name": "isEligibleUnderlyingAsset",
      "outputs": [
        {
          "name": "",
          "type": "bool"
        }
      ],
      "payable": false,
      "stateMutability": "view",
      "type": "function"
    },
    {
      "constant": true,
      "inputs": [
        {
          "name": "underlying",
          "type": "uint32"
        }
      ],
      "name": "checkUnderlyingAsset",
      "outputs": [],
      "payable": false,
      "stateMutability": "view",
      "type": "function"
    },
    {
      "constant": false,
      "inputs": [
        {
          "name": "newOwner",
          "type": "address"
        }
      ],
      "name": "transferOwnership",
      "outputs": [],
      "payable": false,
      "stateMutability": "nonpayable",
      "type": "function"
    },
    {
      "inputs": [],
      "payable": false,
      "stateMutability": "nonpayable",
      "type": "constructor"
    },
    {
      "anonymous": false,
      "inputs": [
        {
          "indexed": true,
          "name": "previousOwner",
          "type": "address"
        },
        {
          "indexed": true,
          "name": "newOwner",
          "type": "address"
        }
      ],
      "name": "OwnershipTransferred",
      "type": "event"
    },
    {
      "constant": true,
      "inputs": [],
      "name": "getOptionsPriceAddress",
      "outputs": [
        {
          "name": "",
          "type": "address"
        }
      ],
      "payable": false,
      "stateMutability": "view",
      "type": "function"
    },
    {
      "constant": false,
      "inputs": [
        {
          "name": "options",
          "type": "address"
        }
      ],
      "name": "setOptionsPriceAddress",
      "outputs": [],
      "payable": false,
      "stateMutability": "nonpayable",
      "type": "function"
    },
    {
      "constant": true,
      "inputs": [
        {
          "name": "user",
          "type": "address"
        }
      ],
      "name": "getOptionBalances",
      "outputs": [
        {
          "name": "",
          "type": "uint256[]"
        }
      ],
      "payable": false,
      "stateMutability": "view",
      "type": "function"
    },
    {
      "constant": true,
      "inputs": [
        {
          "name": "from",
          "type": "uint256"
        },
        {
          "name": "size",
          "type": "uint256"
        }
      ],
      "name": "getOptionInfoList",
      "outputs": [
        {
          "name": "",
          "type": "address[]"
        },
        {
          "name": "",
          "type": "uint256[]"
        },
        {
          "name": "",
          "type": "uint256[]"
        },
        {
          "name": "",
          "type": "uint256[]"
        },
        {
          "name": "",
          "type": "uint256[]"
        }
      ],
      "payable": false,
      "stateMutability": "view",
      "type": "function"
    },
    {
      "constant": true,
      "inputs": [
        {
          "name": "ids",
          "type": "uint256[]"
        }
      ],
      "name": "getOptionInfoListFromID",
      "outputs": [
        {
          "name": "",
          "type": "address[]"
        },
        {
          "name": "",
          "type": "uint256[]"
        },
        {
          "name": "",
          "type": "uint256[]"
        },
        {
          "name": "",
          "type": "uint256[]"
        },
        {
          "name": "",
          "type": "uint256[]"
        }
      ],
      "payable": false,
      "stateMutability": "view",
      "type": "function"
    },
    {
      "constant": true,
      "inputs": [
        {
          "name": "optionsId",
          "type": "uint256"
        }
      ],
      "name": "getOptionsById",
      "outputs": [
        {
          "name": "",
          "type": "uint256"
        },
        {
          "name": "",
          "type": "address"
        },
        {
          "name": "",
          "type": "uint8"
        },
        {
          "name": "",
          "type": "uint32"
        },
        {
          "name": "",
          "type": "uint256"
        },
        {
          "name": "",
          "type": "uint256"
        },
        {
          "name": "",
          "type": "uint256"
        }
      ],
      "payable": false,
      "stateMutability": "view",
      "type": "function"
    },
    {
      "constant": true,
      "inputs": [],
      "name": "getOracleAddress",
      "outputs": [
        {
          "name": "",
          "type": "address"
        }
      ],
      "payable": false,
      "stateMutability": "view",
      "type": "function"
    },
    {
      "constant": false,
      "inputs": [
        {
          "name": "oracle",
          "type": "address"
        }
      ],
      "name": "setOracleAddress",
      "outputs": [],
      "payable": false,
      "stateMutability": "nonpayable",
      "type": "function"
    },
    {
      "constant": false,
      "inputs": [
        {
          "name": "index",
          "type": "uint256"
        }
      ],
      "name": "setPhaseOccupiedCollateral",
      "outputs": [],
      "payable": false,
      "stateMutability": "nonpayable",
      "type": "function"
    },
    {
      "constant": false,
      "inputs": [
        {
          "name": "index",
          "type": "uint256"
        },
        {
          "name": "totalOccupied",
          "type": "uint256"
        },
        {
          "name": "beginOption",
          "type": "uint256"
        },
        {
          "name": "lastOption",
          "type": "uint256"
        },
        {
          "name": "lastBlock",
          "type": "uint256"
        }
      ],
      "name": "setCollateralPhase",
      "outputs": [],
      "payable": false,
      "stateMutability": "nonpayable",
      "type": "function"
    },
    {
      "constant": true,
      "inputs": [
        {
          "name": "index",
          "type": "uint256"
        }
      ],
      "name": "calculatePhaseOccupiedCollateral",
      "outputs": [
        {
          "name": "",
          "type": "uint256"
        },
        {
          "name": "",
          "type": "uint256"
        },
        {
          "name": "",
          "type": "uint256"
        }
      ],
      "payable": false,
      "stateMutability": "view",
      "type": "function"
    },
    {
      "constant": true,
      "inputs": [
        {
          "name": "begin",
          "type": "uint256"
        },
        {
          "name": "end",
          "type": "uint256"
        }
      ],
      "name": "_calculateOccupiedCollateral",
      "outputs": [
        {
          "name": "",
          "type": "uint256"
        },
        {
          "name": "",
          "type": "uint256"
        }
      ],
      "payable": false,
      "stateMutability": "view",
      "type": "function"
    },
    {
      "constant": false,
      "inputs": [
        {
          "name": "index",
          "type": "uint256"
        },
        {
          "name": "lastBlock",
          "type": "uint256"
        },
        {
          "name": "calTime",
          "type": "uint256"
        }
      ],
      "name": "setSharedState",
      "outputs": [],
      "payable": false,
      "stateMutability": "nonpayable",
      "type": "function"
    },
    {
      "constant": true,
      "inputs": [
        {
          "name": "index",
          "type": "uint256"
        },
        {
          "name": "whiteList",
          "type": "address[]"
        }
      ],
      "name": "calculatePhaseSharedPayment",
      "outputs": [
        {
          "name": "",
          "type": "uint256[]"
        },
        {
          "name": "",
          "type": "uint256"
        }
      ],
      "payable": false,
      "stateMutability": "view",
      "type": "function"
    },
    {
      "constant": true,
      "inputs": [
        {
          "name": "begin",
          "type": "uint256"
        },
        {
          "name": "end",
          "type": "uint256"
        },
        {
          "name": "preTime",
          "type": "uint256"
        },
        {
          "name": "whiteList",
          "type": "address[]"
        }
      ],
      "name": "_calculateSharedPayment",
      "outputs": [
        {
          "name": "",
          "type": "uint256[]"
        }
      ],
      "payable": false,
      "stateMutability": "view",
      "type": "function"
    },
    {
      "constant": true,
      "inputs": [
        {
          "name": "beginIndex",
          "type": "uint256"
        },
        {
          "name": "endIndex",
          "type": "uint256"
        },
        {
          "name": "preTime",
          "type": "uint256"
        },
        {
          "name": "whiteList",
          "type": "address[]"
        },
        {
          "name": "totalSharedPayment",
          "type": "uint256[]"
        }
      ],
      "name": "_calBurnedSharePrice",
      "outputs": [
        {
          "name": "",
          "type": "uint256[]"
        }
      ],
      "payable": false,
      "stateMutability": "view",
      "type": "function"
    },
    {
      "constant": false,
      "inputs": [
        {
          "name": "optType",
          "type": "uint8"
        },
        {
          "name": "underlying",
          "type": "uint32"
        },
        {
          "name": "expiration",
          "type": "uint256"
        },
        {
          "name": "strikePrice",
          "type": "uint256"
        },
        {
          "name": "amount",
          "type": "uint256"
        },
        {
          "name": "settlement",
          "type": "address"
        }
      ],
      "name": "createOptions",
      "outputs": [
        {
          "name": "",
          "type": "uint256"
        }
      ],
      "payable": false,
      "stateMutability": "nonpayable",
      "type": "function"
    },
    {
      "constant": true,
      "inputs": [],
      "name": "getTotalOccupiedCollateral",
      "outputs": [
        {
          "name": "",
          "type": "uint256"
        }
      ],
      "payable": false,
      "stateMutability": "view",
      "type": "function"
    },
    {
      "constant": false,
      "inputs": [
        {
          "name": "id",
          "type": "uint256"
        },
        {
          "name": "amount",
          "type": "uint256"
        }
      ],
      "name": "burnOptions",
      "outputs": [],
      "payable": false,
      "stateMutability": "nonpayable",
      "type": "function"
    },
    {
      "constant": true,
      "inputs": [
        {
          "name": "optionsId",
          "type": "uint256"
        },
        {
          "name": "amount",
          "type": "uint256"
        }
      ],
      "name": "getExerciseWorth",
      "outputs": [
        {
          "name": "",
          "type": "uint256"
        }
      ],
      "payable": false,
      "stateMutability": "view",
      "type": "function"
    },
    {
      "constant": true,
      "inputs": [
        {
          "name": "expiration",
          "type": "uint256"
        },
        {
          "name": "underlying",
          "type": "uint32"
        }
      ],
      "name": "buyOptionCheck",
      "outputs": [],
      "payable": false,
      "stateMutability": "view",
      "type": "function"
    },
    {
      "constant": false,
      "inputs": [
        {
          "name": "expiration",
          "type": "uint256"
        }
      ],
      "name": "addExpiration",
      "outputs": [],
      "payable": false,
      "stateMutability": "nonpayable",
      "type": "function"
    },
    {
      "constant": false,
      "inputs": [
        {
          "name": "removeExpiration",
          "type": "uint256"
        }
      ],
      "name": "removeExpirationList",
      "outputs": [
        {
          "name": "",
          "type": "bool"
        }
      ],
      "payable": false,
      "stateMutability": "nonpayable",
      "type": "function"
    },
    {
      "constant": true,
      "inputs": [],
      "name": "getExpirationList",
      "outputs": [
        {
          "name": "",
          "type": "uint256[]"
        }
      ],
      "payable": false,
      "stateMutability": "view",
      "type": "function"
    },
    {
      "constant": true,
      "inputs": [
        {
          "name": "expiration",
          "type": "uint256"
        }
      ],
      "name": "isEligibleExpiration",
      "outputs": [
        {
          "name": "",
          "type": "bool"
        }
      ],
      "payable": false,
      "stateMutability": "view",
      "type": "function"
    },
    {
      "constant": true,
      "inputs": [
        {
          "name": "expiration",
          "type": "uint256"
        }
      ],
      "name": "checkExpiration",
      "outputs": [],
      "payable": false,
      "stateMutability": "view",
      "type": "function"
    }
  ],
  "bytecode": "0x6080604052600580547501f4000000000000000000000000000000000000000060a060020a63ffffffff02199091161790556000600855600f805463ffffffff19166101f417905534801561005357600080fd5b5060008054600160a060020a0319163317808255604051600160a060020a039190911691907f8be0079c531659141344cd1fd0a4f28419497f9722a3daafe3b4186f6b6457e0908290a3613c2a806100ac6000396000f3006080604052600436106102215763ffffffff60e060020a6000350416630438d4908114610226578063048e1efa146103a9578063067b8783146103c65780630860d37b146103ea57806309e3d33e1461041157806311e6c4a21461042f578063132a5627146104a057806316f35a7f146104b5578063354af360146104e35780633582d789146105385780633ad2fb571461054d5780633ad980991461056e5780633b50c4d11461058657806348ee201d1461059e5780634c69c00f146105fd57806355c47cb21461061e578063591add12146106425780635ca4b73b146106a657806367b8ceb9146106d7578063715018a6146106f2578063723931ca1461070757806373a3d4241461071f5780637cfff2d8146107345780637e2eeb7e1461074c5780637e838fa3146107615780638a4046bc1461078d5780638da5cb5b146107c65780638ea745b8146107db5780638f32d59b146107f35780639052d5f81461080857806399deae0a1461081d5780639ef975d214610853578063a093e2d01461086b578063a95c594a1461088c578063ab607154146108aa578063ad41e1e914610947578063af70df121461097b578063afec82fc14610a30578063b18b78dd14610a4e578063b8a5b7fa14610a63578063c27b7dfb14610a7b578063d0ebdbe714610a90578063d500958414610ab1578063d6d1401214610ac6578063db6ad2bd14610ae4578063ee29c94a14610b02578063f2fde38b14610b20575b600080fd5b34801561023257600080fd5b50610241600435602435610b41565b60405180806020018060200180602001806020018060200186810386528b818151815260200191508051906020019060200280838360005b83811015610291578181015183820152602001610279565b5050505090500186810385528a818151815260200191508051906020019060200280838360005b838110156102d05781810151838201526020016102b8565b50505050905001868103845289818151815260200191508051906020019060200280838360005b8381101561030f5781810151838201526020016102f7565b50505050905001868103835288818151815260200191508051906020019060200280838360005b8381101561034e578181015183820152602001610336565b50505050905001868103825287818151815260200191508051906020019060200280838360005b8381101561038d578181015183820152602001610375565b505050509050019a505050505050505050505060405180910390f35b3480156103b557600080fd5b506103c4600435602435610d8f565b005b3480156103d257600080fd5b506103c4600435602435604435606435608435610e89565b3480156103f657600080fd5b506103ff610f0f565b60408051918252519081900360200190f35b34801561041d57600080fd5b506103c4600435602435604435610f15565b34801561043b57600080fd5b50610450600160a060020a0360043516610f9f565b60408051602080825283518183015283519192839290830191858101910280838360005b8381101561048c578181015183820152602001610474565b505050509050019250505060405180910390f35b3480156104ac57600080fd5b506103ff61100b565b3480156104c157600080fd5b506104ca611011565b6040805163ffffffff9092168252519081900360200190f35b3480156104ef57600080fd5b50604080516020600480358082013583810280860185019096528085526102419536959394602494938501929182918501908490808284375094975061101d9650505050505050565b34801561054457600080fd5b50610450611250565b34801561055957600080fd5b506103c460043563ffffffff602435166112d5565b34801561057a57600080fd5b506103ff600435611341565b34801561059257600080fd5b506104ca600435611360565b3480156105aa57600080fd5b506105b6600435611398565b60408051978852600160a060020a03909616602088015260ff9094168686015263ffffffff9092166060860152608085015260a084015260c0830152519081900360e00190f35b34801561060957600080fd5b506103c4600160a060020a03600435166113fb565b34801561062a57600080fd5b506103ff600160a060020a0360043516602435611476565b34801561064e57600080fd5b5060408051606435600481810135602081810285810182019096528185526104509583359560248035966044359636969095608495929093019290918291850190849080828437509497506114a69650505050505050565b3480156106b257600080fd5b506106bb611654565b60408051600160a060020a039092168252519081900360200190f35b3480156106e357600080fd5b506103ff600435602435611663565b3480156106fe57600080fd5b506103c46117a2565b34801561071357600080fd5b506103c4600435611845565b34801561072b57600080fd5b506103ff6118cd565b34801561074057600080fd5b506103c4600435611bbb565b34801561075857600080fd5b506103ff611c12565b34801561076d57600080fd5b50610779600435611c18565b604080519115158252519081900360200190f35b34801561079957600080fd5b506103ff60ff6004351663ffffffff60243516604435606435608435600160a060020a0360a43516611c77565b3480156107d257600080fd5b506106bb611f46565b3480156107e757600080fd5b506105b6600435611f55565b3480156107ff57600080fd5b50610779611fb5565b34801561081457600080fd5b50610450611fc6565b34801561082957600080fd5b5061083560043561201d565b60408051938452602084019290925282820152519081900360600190f35b34801561085f57600080fd5b506107796004356120ea565b34801561087757600080fd5b506103c4600160a060020a0360043516612146565b34801561089857600080fd5b506103ff6004356024356044356121c1565b3480156108b657600080fd5b506040805160643560048181013560208181028581018201909652818552610450958335956024803596604435963696909560849592909301929091829185019084908082843750506040805187358901803560208181028481018201909552818452989b9a9989019892975090820195509350839250850190849080828437509497506122019650505050505050565b34801561095357600080fd5b50610962600435602435612513565b6040805192835260208301919091528051918290030190f35b34801561098757600080fd5b506040805160206004602480358281013584810280870186019097528086526109d5968435963696604495919490910192918291850190849080828437509497506126ed9650505050505050565b6040518080602001838152602001828103825284818151815260200191508051906020019060200280838360005b83811015610a1b578181015183820152602001610a03565b50505050905001935050505060405180910390f35b348015610a3c57600080fd5b506103c463ffffffff60043516612791565b348015610a5a57600080fd5b506106bb6127e8565b348015610a6f57600080fd5b506103c46004356127f7565b348015610a8757600080fd5b506104ca61286a565b348015610a9c57600080fd5b506103c4600160a060020a036004351661287d565b348015610abd57600080fd5b506106bb6128f8565b348015610ad257600080fd5b5061077963ffffffff60043516612907565b348015610af057600080fd5b5061077963ffffffff60043516612960565b348015610b0e57600080fd5b506103c463ffffffff600435166129e8565b348015610b2c57600080fd5b506103c4600160a060020a0360043516612a6e565b6060806060806060806060806060806000806006805490508d8f011115610b7857600654610b75908f63ffffffff612ac316565b9c505b60008d1115610d7e578c604051908082528060200260200182016040528015610bab578160200160208202803883390190505b5096508c604051908082528060200260200182016040528015610bd8578160200160208202803883390190505b5095508c604051908082528060200260200182016040528015610c05578160200160208202803883390190505b5094508c604051908082528060200260200182016040528015610c32578160200160208202803883390190505b5093508c604051908082528060200260200182016040528015610c5f578160200160208202803883390190505b509250600091505b8c821015610d6e57600680548f8401908110610c7f57fe5b6000918252602090912060059091020160018101548851919250600160a060020a031690889084908110610caf57fe5b600160a060020a0390921660209283029091019091015260018101548651601060ff60a060020a84048116919091011660020a63ffffffff60a860020a90930483160290911690879084908110610d0257fe5b6020908102909101015260028101548551869084908110610d1f57fe5b6020908102909101015260038101548451859084908110610d3c57fe5b6020908102909101015260048101548351849084908110610d5957fe5b60209081029091010152600190910190610c67565b86868686869b509b509b509b509b505b505050505050509295509295909350565b600254600090600160a060020a03163314610df6576040805160e560020a62461bcd0281526020600482015260266024820152600080516020613b9f8339815191526044820152600080516020613bbf833981519152606482015290519081900360840190fd5b610dff83612b0c565b9050610e0a81612b9c565b610e148133612bf7565b610e1e8183612c5e565b6004810154610e33908363ffffffff612ac316565b600482015543600090815260036020908152604080832081518083019092526000198701825281830186905280546001810180835591855292909320610e829260029081029091019190613aed565b5050505050565b610e91611fb5565b1515610ed5576040805160e560020a62461bcd0281526020600482018190526024820152600080516020613bdf833981519152604482015290519081900360640190fd5b600854831115610ee55760088390555b816009541015610efa576009829055600a8190555b5050506000918252600b602052604090912055565b600e5481565b600254600160a060020a03163314610f79576040805160e560020a62461bcd0281526020600482015260266024820152600080516020613b9f8339815191526044820152600080516020613bbf833981519152606482015290519081900360840190fd5b600e54821015610f8957600e8290555b6000928352600d60205260409092209190915550565b600160a060020a038116600090815260046020908152604091829020805483518184028101840190945280845260609392830182828015610fff57602002820191906000526020600020905b815481526020019060010190808311610feb575b50505050509050919050565b60095481565b600f5463ffffffff1681565b6060806060806060600060608060608060606000808d51975087604051908082528060200260200182016040528015611060578160200160208202803883390190505b5096508760405190808252806020026020018201604052801561108d578160200160208202803883390190505b509550876040519080825280602002602001820160405280156110ba578160200160208202803883390190505b509450876040519080825280602002602001820160405280156110e7578160200160208202803883390190505b50935087604051908082528060200260200182016040528015611114578160200160208202803883390190505b509250600091505b8782101561123c57600660018f8481518110151561113657fe5b906020019060200201510381548110151561114d57fe5b6000918252602090912060059091020160018101548851919250600160a060020a03169088908490811061117d57fe5b600160a060020a0390921660209283029091019091015260018101548651601060ff60a060020a84048116919091011660020a63ffffffff60a860020a909304831602909116908790849081106111d057fe5b60209081029091010152600281015485518690849081106111ed57fe5b602090810290910101526003810154845185908490811061120a57fe5b602090810290910101526004810154835184908490811061122757fe5b6020908102909101015260019091019061111c565b50949c939b50919950975095509350505050565b606060018054806020026020016040519081016040528092919081815260200182805480156112ca57602002820191906000526020600020906000905b82829054906101000a900463ffffffff1663ffffffff168152602001906004019060208260030104928301926001038202915080841161128d5790505b505050505090505b90565b6112de81612960565b1515611334576040805160e560020a62461bcd02815260206004820152601f60248201527f756e6465726c79696e6720697320756e737570706f7274656420617373657400604482015290519081900360640190fd5b61133d82611845565b5050565b601080548290811061134f57fe5b600091825260209091200154905081565b600180548290811061136e57fe5b9060005260206000209060089182820401919006600402915054906101000a900463ffffffff1681565b6000806000806000806000806113ad89612b0c565b8054600182015460028301546003840154600490940154929d600160a060020a0383169d5060a060020a830460ff169c5060a860020a90920463ffffffff169a509850919650945092505050565b611403611fb5565b1515611447576040805160e560020a62461bcd0281526020600482018190526024820152600080516020613bdf833981519152604482015290519081900360640190fd5b6005805473ffffffffffffffffffffffffffffffffffffffff1916600160a060020a0392909216919091179055565b60046020528160005260406000208181548110151561149157fe5b90600052602060002001600091509150505481565b60608060008060008060008060006008548d1115156114c5576008549c505b89516040519080825280602002602001820160405280156114f0578160200160208202803883390190505b5097505b8b8d101561163657600680548e90811061150a57fe5b90600052602060002090600502019650866002015495508a86108061153157506004870154155b1561153b5761162b565b600760008e815260200190815260200160002094506115808b8660000154888a6003015489600401548a600501548d60010160149054906101000a900460ff16612cba565b935093508284111561162b5760018501546115a5908b90600160a060020a0316612e33565b91506115e885600301546115dc89600401546115d08789038a60020154612e8c90919063ffffffff16565b9063ffffffff612e8c16565b9063ffffffff612f3616565b90506116128189848151811015156115fc57fe5b602090810290910101519063ffffffff612f7816565b888381518110151561162057fe5b602090810290910101525b6001909c019b6114f4565b6116438d8d8d8d8c612201565b9d9c50505050505050505050505050565b601154600160a060020a031690565b60008060008061167286612b0c565b925061167d83612b9c565b6116878386612c5e565b6005546001840154604080517fda66325700000000000000000000000000000000000000000000000000000000815260a860020a90920463ffffffff16600483015251600160a060020a039092169163da663257916024808201926020929091908290030181600087803b1580156116fe57600080fd5b505af1158015611712573d6000803e3d6000fd5b505050506040513d602081101561172857600080fd5b505160018401549092506000915060a060020a900460ff16151561176057826003015482111561175b5750600382015481035b611776565b8260030154821015611776578183600301540390505b8015156117865760009350611799565b611796818663ffffffff612e8c16565b93505b50505092915050565b6117aa611fb5565b15156117ee576040805160e560020a62461bcd0281526020600482018190526024820152600080516020613bdf833981519152604482015290519081900360640190fd5b60008054604051600160a060020a03909116907f8be0079c531659141344cd1fd0a4f28419497f9722a3daafe3b4186f6b6457e0908390a36000805473ffffffffffffffffffffffffffffffffffffffff19169055565b61184e816120ea565b15156118ca576040805160e560020a62461bcd02815260206004820152602160248201527f65787069726174696f6e2076616c7565206973206e6f7420737570706f72746560448201527f6400000000000000000000000000000000000000000000000000000000000000606482015290519081900360840190fd5b50565b600080600060606000806000806000806000806118e8612fd5565b600154604080518281526020808402820101909152919c509a508a8015611919578160200160208202803883390190505b509850600097505b89881015611a015760055460018054600160a060020a039092169163da66325791908b90811061194d57fe5b90600052602060002090600891828204019190066004029054906101000a900463ffffffff166040518263ffffffff1660e060020a028152600401808263ffffffff168152602001915050602060405180830381600087803b1580156119b257600080fd5b505af11580156119c6573d6000803e3d6000fd5b505050506040513d60208110156119dc57600080fd5b505189518a908a9081106119ec57fe5b60209081029091010152600190970196611921565b60065460095490975060010195505b86861015611aad57611a51600687815481101515611a2a57fe5b906000526020600020906005020160010160159054906101000a900463ffffffff1661306b565b9450611aa0611a93600688815481101515611a6857fe5b90600052602060002090600502018b88815181101515611a8457fe5b906020019060200201516130f3565b8c9063ffffffff612f7816565b9a50600190950194611a10565b600a5460010193508360011415611ac6578a9b50611bad565b438411611ba95760008481526003602052604081208054919950935091505b81881015611b9e578288815481101515611afb57fe5b60009182526020822060029091020101549050611b20600682815481101515611a2a57fe5b9450611b91611b84600683815481101515611b3757fe5b9060005260206000209060050201858b815481101515611b5357fe5b60009182526020909120600290910201600101548c89815181101515611b7557fe5b90602001906020020151613179565b8c9063ffffffff612ac316565b9a50600190970196611ae5565b600190930192611ac6565b8a9b505b505050505050505050505090565b611bc3611fb5565b1515611c07576040805160e560020a62461bcd0281526020600482018190526024820152600080516020613bdf833981519152604482015290519081900360640190fd5b6118ca6010826131d2565b600a5481565b6000611c22611fb5565b1515611c66576040805160e560020a62461bcd0281526020600482018190526024820152600080516020613bdf833981519152604482015290519081900360640190fd5b611c71601083613249565b92915050565b600254600090819081908190600160a060020a03163314611ce4576040805160e560020a62461bcd0281526020600482015260266024820152600080516020613b9f8339815191526044820152600080516020613bbf833981519152606482015290519081900360840190fd5b600654600554604080517fda66325700000000000000000000000000000000000000000000000000000000815263ffffffff8d1660048201529051929550600160a060020a039091169163da663257916024808201926020929091908290030181600087803b158015611d5657600080fd5b505af1158015611d6a573d6000803e3d6000fd5b505050506040513d6020811015611d8057600080fd5b81019080805190602001909291905050509150600660e06040519081016040528085600101815260200133600160a060020a031681526020018c60ff1681526020018b63ffffffff1681526020018a815260200189815260200188815250908060018154018082558091505090600182039060005260206000209060050201600090919290919091506000820151816000015560208201518160010160006101000a815481600160a060020a030219169083600160a060020a0316021790555060408201518160010160146101000a81548160ff021916908360ff16021790555060608201518160010160156101000a81548163ffffffff021916908363ffffffff1602179055506080820151816002015560a0820151816003015560c082015181600401555050506004600033600160a060020a0316600160a060020a031681526020019081526020016000208390806001815401808255809150509060018203906000526020600020016000909192909190915055508260001415611f065743600a555b6006805484908110611f1457fe5b90600052602060002090600502019050611f2e81866132f4565b611f3881836130f3565b9a9950505050505050505050565b600054600160a060020a031690565b6006805482908110611f6357fe5b600091825260209091206005909102018054600182015460028301546003840154600490940154929450600160a060020a0382169360a060020a830460ff169360a860020a90930463ffffffff169287565b600054600160a060020a0316331490565b606060108054806020026020016040519081016040528092919081815260200182805480156112ca57602002820191906000526020600020905b815481526020019060010190808311612000575050505050905090565b6000806000806000806000806000612056600560149054906101000a900463ffffffff1663ffffffff168b612e8c90919063ffffffff16565b600654909650945084861061206a576120dd565b60055461208990879063ffffffff60a060020a909104811690612f7816565b93508484111561209b578493506120aa565b6008548410156120aa576120dd565b6120b48685612513565b9250925060018403600954106120cc576009546120d1565b600184035b90508282829850985098505b5050505050509193909250565b6000611c71601080548060200260200160405190810160405280929190818152602001828054801561213b57602002820191906000526020600020905b815481526020019060010190808311612127575b505050505083613605565b61214e611fb5565b1515612192576040805160e560020a62461bcd0281526020600482018190526024820152600080516020613bdf833981519152604482015290519081900360640190fd5b6011805473ffffffffffffffffffffffffffffffffffffffff1916600160a060020a0392909216919091179055565b6003602052826000526040600020828154811015156121dc57fe5b9060005260206000209060020201816002811015156121f757fe5b0154925083915050565b6060600060606000806000806000806000600e546001019850886001141561222b578a9950612501565b43891161250157600089815260036020908152604080832080548251818502810185019093528083529193909284015b828210156122ab5760008481526020902060408051808201918290529160028581029091019182845b8154815260200190600101908083116122845750505050508152602001906001019061225b565b50505050975087519650600095505b868610156124f6578e88878151811015156122d157fe5b602090810291909101015151108061230257508d88878151811015156122f357fe5b60209081029190910101515110155b1561230c576124eb565b6006888781518110151561231c57fe5b6020908102919091010151518154811061233257fe5b90600052602060002090600502019450846002015493508c8410806123705750878681518110151561236057fe5b6020908102919091018101510151155b1561237a576124eb565b60076000898881518110151561238c57fe5b602090810291909101810151518252818101929092526040908101600090812060115460038a0154600480840154600585015460018e0154885160e060020a63055ef6ab0281529384018590526024840194909452428d0360448401526064830191909152608482015260a060020a90910460ff1660a48201529351919750600160a060020a03169363055ef6ab9360c480820194929392918390030190829087803b15801561243b57600080fd5b505af115801561244f573d6000803e3d6000fd5b505050506040513d602081101561246557600080fd5b5051600384015489519193506124a2916115dc908b908a90811061248557fe5b602090810291909101810151015160028701546115d09087612e8c565b60018401549092506124be908d90600160a060020a0316612e33565b90506124d2828c838151811015156115fc57fe5b8b828151811015156124e057fe5b602090810290910101525b6001909501946122ba565b60019098019761222b565b50505050505050505095945050505050565b600080600080600060606000806000806008548c111597508715612537576008549b505b600854600154604080518281526020808402820101909152919850965086801561256b578160200160208202803883390190505b509450600093505b858410156126535760055460018054600160a060020a039092169163da66325791908790811061259f57fe5b90600052602060002090600891828204019190066004029054906101000a900463ffffffff166040518263ffffffff1660e060020a028152600401808263ffffffff168152602001915050602060405180830381600087803b15801561260457600080fd5b505af1158015612618573d6000803e3d6000fd5b505050506040513d602081101561262e57600080fd5b5051855186908690811061263e57fe5b60209081029091010152600190930192612573565b600092505b8a8c10156126db5761267260068d815481101515611a2a57fe5b91506126a260068d81548110151561268657fe5b90600052602060002090600502018684815181101515611a8457fe5b90508780156126b15750600081115b156126be578b9650600097505b6126ce838263ffffffff612f7816565b6001909c019b9250612658565b50909a94995093975050505050505050565b600f54606090600090819081908190859061271390899063ffffffff90811690612e8c16565b600654909450925082841061272757612786565b600f5461273f90859063ffffffff90811690612f7816565b91508282111561275157829150612760565b60085482101561276057612786565b6000888152600d602052604090205461277d90859084908a6114a6565b90508043955095505b505050509250929050565b612799611fb5565b15156127dd576040805160e560020a62461bcd0281526020600482018190526024820152600080516020613bdf833981519152604482015290519081900360640190fd5b6118ca600182613644565b600554600160a060020a031690565b6000806000612804611fb5565b1515612848576040805160e560020a62461bcd0281526020600482018190526024820152600080516020613bdf833981519152604482015290519081900360640190fd5b6128518461201d565b9250925092506128648484848443610e89565b50505050565b60055460a060020a900463ffffffff1681565b612885611fb5565b15156128c9576040805160e560020a62461bcd0281526020600482018190526024820152600080516020613bdf833981519152604482015290519081900360640190fd5b6002805473ffffffffffffffffffffffffffffffffffffffff1916600160a060020a0392909216919091179055565b600254600160a060020a031690565b6000612911611fb5565b1515612955576040805160e560020a62461bcd0281526020600482018190526024820152600080516020613bdf833981519152604482015290519081900360640190fd5b611c7160018361370d565b6000611c7160018054806020026020016040519081016040528092919081815260200182805480156129dd57602002820191906000526020600020906000905b82829054906101000a900463ffffffff1663ffffffff16815260200190600401906020826003010492830192600103820291508084116129a05790505b505050505083613804565b6118ca6001805480602002602001604051908101604052809291908181526020018280548015612a6357602002820191906000526020600020906000905b82829054906101000a900463ffffffff1663ffffffff1681526020019060040190602082600301049283019260010382029150808411612a265790505b50505050508261384f565b612a76611fb5565b1515612aba576040805160e560020a62461bcd0281526020600482018190526024820152600080516020613bdf833981519152604482015290519081900360640190fd5b6118ca816138af565b6000612b0583836040805190810160405280601e81526020017f536166654d6174683a207375627472616374696f6e206f766572666c6f77000081525061399d565b9392505050565b60008082118015612b1f57506006548211155b1515612b75576040805160e560020a62461bcd02815260206004820152601660248201527f6f7074696f6e206964206973206e6f7420657869737400000000000000000000604482015290519081900360640190fd5b600680546000198401908110612b8757fe5b90600052602060002090600502019050919050565b600281015442106118ca576040805160e560020a62461bcd02815260206004820152601160248201527f6f7074696f6e2069732065787069726564000000000000000000000000000000604482015290519081900360640190fd5b6001820154600160a060020a0382811691161461133d576040805160e560020a62461bcd02815260206004820152601f60248201527f63616c6c6572206973206e6f7420746865206f7074696f6e73206f776e657200604482015290519081900360640190fd5b600482015481111561133d576040805160e560020a62461bcd02815260206004820152601d60248201527f6f7074696f6e20616d6f756e7420697320696e73756666696369656e74000000604482015290519081900360640190fd5b60008060008060008a8c11612cd1578a8a03612cd5565b8b8a035b6011546040805160e060020a63055ef6ab028152600481018d9052602481018d905260448101849052606481018c9052608481018b905260ff8a1660a48201529051929550600160a060020a039091169163055ef6ab9160c4808201926020929091908290030181600087803b158015612d4e57600080fd5b505af1158015612d62573d6000803e3d6000fd5b505050506040513d6020811015612d7857600080fd5b50516011546040805160e060020a63055ef6ab028152600481018d9052602481018d9052428e036044820152606481018c9052608481018b905260ff8a1660a48201529051929450600160a060020a039091169163055ef6ab9160c4808201926020929091908290030181600087803b158015612df457600080fd5b505af1158015612e08573d6000803e3d6000fd5b505050506040513d6020811015612e1e57600080fd5b5051919c919b50909950505050505050505050565b8151600090815b81811015612e805783600160a060020a03168582815181101515612e5a57fe5b90602001906020020151600160a060020a03161415612e7857612e80565b600101612e3a565b8092505b505092915050565b600080831515612e9f5760009150612f2f565b50828202828482811515612eaf57fe5b0414612f2b576040805160e560020a62461bcd02815260206004820152602160248201527f536166654d6174683a206d756c7469706c69636174696f6e206f766572666c6f60448201527f7700000000000000000000000000000000000000000000000000000000000000606482015290519081900360840190fd5b8091505b5092915050565b6000612b0583836040805190810160405280601a81526020017f536166654d6174683a206469766973696f6e206279207a65726f000000000000815250613a3a565b600082820183811015612f2b576040805160e560020a62461bcd02815260206004820152601b60248201527f536166654d6174683a206164646974696f6e206f766572666c6f770000000000604482015290519081900360640190fd5b60008060008060009250600560149054906101000a900463ffffffff1663ffffffff1660085481151561300457fe5b60055460065492909106935060a060020a900463ffffffff169081151561302757fe5b0660010190505b80821015613063576000828152600b602052604090205461305690849063ffffffff612f7816565b925060019091019061302e565b509092915050565b6000611c7160018054806020026020016040519081016040528092919081815260200182805480156130e857602002820191906000526020600020906000905b82829054906101000a900463ffffffff1663ffffffff16815260200190600401906020826003010492830192600103820291508084116130ab5790505b505050505083613aa6565b60008042846002015411158061310b57506004840154155b156131195760009150612f2f565b5060038301546001840154600091841060a060020a90910460ff1615141561315b57600484015460038501546131549163ffffffff612e8c16565b9050612f2b565b600484015461317190849063ffffffff612e8c16565b949350505050565b60038301546001840154600091829160ff60a060020a909104161590841014156131b95760038501546131b2908563ffffffff612e8c16565b9050613171565b6131c9838563ffffffff612e8c16565b95945050505050565b61322b8280548060200260200160405190810160405280929190818152602001828054801561322057602002820191906000526020600020905b81548152602001906001019080831161320c575b505050505082613605565b151561133d5781546001810183556000928352602090922090910155565b8154600090815b818110156132855783858281548110151561326757fe5b9060005260206000200154141561327d57613285565b600101613250565b818110156132e957600019820181146132cf5784600183038154811015156132a957fe5b906000526020600020015485828154811015156132c257fe5b6000918252602090912001555b84546132df866000198301613b2b565b5060019250612e84565b506000949350505050565b600254600090819081908190819081908190600160a060020a03163314613367576040805160e560020a62461bcd0281526020600482015260266024820152600080516020613b9f8339815191526044820152600080516020613bbf833981519152606482015290519081900360840190fd5b600389015460028a0154601254604080517fad1bb8330000000000000000000000000000000000000000000000000000000081526004810185905242909303602484018190528151949b509950600160a060020a039091169263ad1bb8339260448082019392918290030181600087803b1580156133e457600080fd5b505af11580156133f8573d6000803e3d6000fd5b505050506040513d604081101561340e57600080fd5b508051602091820151600554604080517f41976e09000000000000000000000000000000000000000000000000000000008152600160a060020a038e811660048301529151949a5092985016926341976e09926024808401938290030181600087803b15801561347d57600080fd5b505af1158015613491573d6000803e3d6000fd5b505050506040513d60208110156134a757600080fd5b505160115460018b01546040805160e060020a63055ef6ab028152600481018c9052602481018c9052604481018b9052606481018a90526084810189905260a060020a90920460ff1660a483015251929550600160a060020a039091169163055ef6ab9160c4808201926020929091908290030181600087803b15801561352d57600080fd5b505af1158015613541573d6000803e3d6000fd5b505050506040513d602081101561355757600080fd5b5051915061356b828463ffffffff612f3616565b6040805160c081018252428152600160a060020a039a8b1660208083019182528284019485526060830196875260808301998a5260a083019889529c546000190160009081526007909d5291909b209a518b555160018b01805473ffffffffffffffffffffffffffffffffffffffff191691909a161790985550955160028801555093516003860155516004850155505051600590910155565b8151600090815b818110156132e95783858281518110151561362357fe5b90602001906020020151141561363c5760019250612e84565b60010161360c565b6136c9828054806020026020016040519081016040528092919081815260200182805480156136be57602002820191906000526020600020906000905b82829054906101000a900463ffffffff1663ffffffff16815260200190600401906020826003010492830192600103820291508084116136815790505b505050505082613804565b151561133d578154600181018355600092835260209092206008830401805460079093166004026101000a63ffffffff818102199094169290931692909202179055565b8154600090815b81811015613768578363ffffffff16858281548110151561373157fe5b6000918252602090912060088204015460079091166004026101000a900463ffffffff16141561376057613768565b600101613714565b818110156132e957600019820181146137f457846001830381548110151561378c57fe5b90600052602060002090600891828204019190066004029054906101000a900463ffffffff1685828154811015156137c057fe5b90600052602060002090600891828204019190066004026101000a81548163ffffffff021916908363ffffffff1602179055505b84546132df866000198301613b54565b8151600090815b818110156132e9578363ffffffff16858281518110151561382857fe5b9060200190602002015163ffffffff1614156138475760019250612e84565b60010161380b565b6138598282613804565b151561133d576040805160e560020a62461bcd02815260206004820152601f60248201527f77686974654c6973743a207573696e6720696e76616c69642075696e74333200604482015290519081900360640190fd5b600160a060020a0381161515613935576040805160e560020a62461bcd02815260206004820152602660248201527f4f776e61626c653a206e6577206f776e657220697320746865207a65726f206160448201527f6464726573730000000000000000000000000000000000000000000000000000606482015290519081900360840190fd5b60008054604051600160a060020a03808516939216917f8be0079c531659141344cd1fd0a4f28419497f9722a3daafe3b4186f6b6457e091a36000805473ffffffffffffffffffffffffffffffffffffffff1916600160a060020a0392909216919091179055565b6000808285851115613a305760405160e560020a62461bcd0281526004018080602001828103825283818151815260200191508051906020019080838360005b838110156139f55781810151838201526020016139dd565b50505050905090810190601f168015613a225780820380516001836020036101000a031916815260200191505b509250505060405180910390fd5b5050509103919050565b60008082818511613a905760405160e560020a62461bcd028152600401808060200182810382528381815181526020019150805190602001908083836000838110156139f55781810151838201526020016139dd565b508385811515613a9c57fe5b0495945050505050565b8151600090815b81811015612e80578363ffffffff168582815181101515613aca57fe5b9060200190602002015163ffffffff161415613ae557612e80565b600101613aad565b8260028101928215613b1b579160200282015b82811115613b1b578251825591602001919060010190613b00565b50613b27929150613b84565b5090565b815481835581811115613b4f57600083815260209020613b4f918101908301613b84565b505050565b815481835581811115613b4f576007016008900481600701600890048360005260206000209182019101613b4f91905b6112d291905b80821115613b275760008155600101613b8a56004d616e6167657261626c653a2063616c6c6572206973206e6f7420746865204d616e6167657200000000000000000000000000000000000000000000000000004f776e61626c653a2063616c6c6572206973206e6f7420746865206f776e6572a165627a7a72305820697220f22a28f79ffbd3bfb1cfff66f3cfbc048f14448e8e2370ca90312fccb20029",
  "source": "pragma solidity ^0.4.26;\r\nimport \"./modules/SafeMath.sol\";\r\nimport \"./modules/Managerable.sol\";\r\nimport \"./interfaces/CompoundOracleInterface.sol\";\r\nimport \"./modules/underlyingAssets.sol\";\r\nimport \"./interfaces/IOptionsPrice.sol\";\r\nimport \"./interfaces/IVolatility.sol\";\r\ncontract OptionsPool is UnderlyingAssets,Managerable {\r\n    \r\n    using SafeMath for uint256;\r\n    struct OptionsInfo {\r\n        uint256     optionID;\r\n        address     owner;\r\n        uint8   \toptType;    //0 for call, 1 for put\r\n        uint32\t\tunderlying;\r\n        uint256\t\texpiration;\r\n        uint256     strikePrice;\r\n        uint256     amount;\r\n    }\r\n    struct OptionsInfoEx{\r\n        uint256\t\tcreatedTime;\r\n        address     settlement;\r\n        uint256     tokenTimePrice;\r\n        uint256     fullPrice;\r\n        uint256      ivNumerator;\r\n        uint256      ivDenominator;\r\n    }\r\n\r\n    //each block burn options\r\n    mapping(uint256=>uint256[2][]) public burnBlockOptions;\r\n    mapping(address=>uint256[]) public optionsBalances;\r\n    ICompoundOracle internal _oracle;\r\n    uint256 constant _calDecimal = 10000000000;\r\n    uint32 public optionPhase = 500;\r\n\r\n    OptionsInfo[] public allOptions;\r\n    mapping(uint256=>OptionsInfoEx) optionExtraMap;\r\n\r\n\r\n    uint256 private firstOption = 0;\r\n    uint256 public lastCallOption;\r\n    uint256 public lastCalBlock;\r\n\r\n    mapping(uint256=>uint256) private OptionsPhases;\r\n\r\n    mapping (uint256 =>mapping (address => uint256)) private OptionsPhaseBalances;\r\n    mapping (uint256 =>uint256) private OptionsPhaseTimes;\r\n    uint256 public lastCalBlock_share;\r\n    uint32 public sharedPhase = 500;\r\n\r\n    uint256[] public expirationList;\r\n    \r\n    IOptionsPrice internal optionsPrice;\r\n    IVolatility internal volatility;\r\n    constructor () public{\r\n    }\r\n    function getOptionsPriceAddress() public view returns(address){\r\n        return address(optionsPrice);\r\n    }\r\n    function setOptionsPriceAddress(address options)public onlyOwner{\r\n        optionsPrice = IOptionsPrice(options);\r\n    }\r\n\r\n    function getOptionBalances(address user)public view returns(uint256[]){\r\n        return optionsBalances[user];\r\n    }\r\n    function getOptionInfoList(uint256 from,uint256 size)public view \r\n                returns(address[],uint256[],uint256[],uint256[],uint256[]){\r\n        if (from+size>allOptions.length){\r\n            size = allOptions.length.sub(from);\r\n        }\r\n        if (size>0){\r\n            address[] memory ownerArr = new address[](size);\r\n            uint256[] memory typeAndUnderArr = new uint256[](size);\r\n            uint256[] memory expArr = new uint256[](size);\r\n            uint256[] memory priceArr = new uint256[](size);\r\n            uint256[] memory amountArr = new uint256[](size);\r\n            for (uint i=0;i<size;i++){\r\n                OptionsInfo storage info = allOptions[from+i];\r\n                ownerArr[i] = info.owner;\r\n                typeAndUnderArr[i] = info.underlying << 16 + info.optType;\r\n                expArr[i] = info.expiration;\r\n                priceArr[i] = info.strikePrice;\r\n                amountArr[i] = info.amount;\r\n            }\r\n            return (ownerArr,typeAndUnderArr,expArr,priceArr,amountArr);\r\n        }\r\n    }\r\n    function getOptionInfoListFromID(uint256[] ids)public view \r\n                returns(address[],uint256[],uint256[],uint256[],uint256[]){\r\n        uint256 size = ids.length;\r\n        address[] memory ownerArr = new address[](size);\r\n        uint256[] memory typeAndUnderArr = new uint256[](size);\r\n        uint256[] memory expArr = new uint256[](size);\r\n        uint256[] memory priceArr = new uint256[](size);\r\n        uint256[] memory amountArr = new uint256[](size);\r\n        for (uint i=0;i<size;i++){\r\n            OptionsInfo storage info = allOptions[ids[i]-1];\r\n            ownerArr[i] = info.owner;\r\n            typeAndUnderArr[i] = info.underlying << 16 + info.optType;\r\n            expArr[i] = info.expiration;\r\n            priceArr[i] = info.strikePrice;\r\n            amountArr[i] = info.amount;\r\n        }\r\n        return (ownerArr,typeAndUnderArr,expArr,priceArr,amountArr);\r\n    }\r\n    function getOptionsById(uint256 optionsId)public view returns(uint256,address,uint8,uint32,uint256,uint256,uint256){\r\n        OptionsInfo storage info = _getOptionsById(optionsId);\r\n        return (info.optionID,info.owner,info.optType,info.underlying,info.expiration,info.strikePrice,info.amount);\r\n    }\r\n    function getOracleAddress() public view returns(address){\r\n        return address(_oracle);\r\n    }\r\n    function setOracleAddress(address oracle)public onlyOwner{\r\n        _oracle = ICompoundOracle(oracle);\r\n    }\r\n    function setPhaseOccupiedCollateral(uint256 index) public onlyOwner {\r\n        (uint256 totalOccupied,uint256 beginOption,uint256 lastOption) = calculatePhaseOccupiedCollateral(index);\r\n        setCollateralPhase(index,totalOccupied,beginOption,lastOption,block.number);\r\n    }\r\n    function setCollateralPhase(uint256 index,uint256 totalOccupied,uint256 beginOption,uint256 lastOption,uint256 lastBlock) public onlyOwner{\r\n        if (beginOption > firstOption){\r\n            firstOption = beginOption;\r\n        }\r\n        if(lastCallOption < lastOption){\r\n            lastCallOption = lastOption;\r\n            lastCalBlock = lastBlock;\r\n        }\r\n        OptionsPhases[index] = totalOccupied;\r\n    }\r\n    function calculatePhaseOccupiedCollateral(uint256 index) public view returns(uint256,uint256,uint256){\r\n        uint256 beginOption = index.mul(optionPhase);\r\n        uint256 allLen = allOptions.length;\r\n        if (beginOption>=allLen){\r\n            return;\r\n        }\r\n        uint256 lastOption = beginOption.add(optionPhase);\r\n        if (lastOption>allLen) {\r\n            lastOption = allLen;\r\n        }else if(lastOption < firstOption){\r\n            return;\r\n        }\r\n        (uint256 totalOccupied,uint256 newFirstOption) = _calculateOccupiedCollateral(beginOption,lastOption);\r\n        uint256 last = lastCallOption<lastOption-1 ? lastOption-1 : lastCallOption;\r\n        return (totalOccupied,newFirstOption,last);\r\n    }\r\n    function _calculateOccupiedCollateral(uint256 begin,uint256 end)public view returns(uint256,uint256){\r\n        bool bfirstPhase = begin <= firstOption;\r\n        if (bfirstPhase) {\r\n            begin = firstOption;\r\n        }\r\n        uint256 newFirstOption = firstOption;\r\n        uint256 underlyingLen = underlyingAssets.length;\r\n        uint256[] memory prices = new uint256[](underlyingLen);\r\n        for (uint256 i = 0;i<underlyingLen;i++){\r\n            prices[i] = _oracle.getUnderlyingPrice(underlyingAssets[i]);\r\n        }\r\n        uint256 totalOccupied = 0;\r\n        for (;begin<end;begin++){\r\n            uint256 index = _getEligibleUnderlyingIndex(allOptions[begin].underlying);\r\n            uint256 value = calOptionsCollateral(allOptions[begin],prices[index]);\r\n            if (bfirstPhase && value > 0){\r\n                newFirstOption = begin;\r\n                bfirstPhase = false;\r\n            }\r\n            totalOccupied = totalOccupied.add(value);\r\n        }\r\n        return (totalOccupied,newFirstOption);\r\n    }\r\n    function setSharedState(uint256 index,uint256 lastBlock,uint256 calTime) public onlyManager{\r\n        if(lastBlock < lastCalBlock_share){\r\n            lastCalBlock_share = lastBlock;\r\n        }\r\n        OptionsPhaseTimes[index] = calTime;\r\n    }\r\n    function calculatePhaseSharedPayment(uint256 index,address[] whiteList) public view returns(uint256[],uint256){\r\n        uint256 beginOption = index.mul(sharedPhase);\r\n        uint256 allLen = allOptions.length;\r\n        if (beginOption>=allLen){\r\n            return;\r\n        }\r\n        uint256 lastOption = beginOption.add(sharedPhase);\r\n        if (lastOption>allLen) {\r\n            lastOption = allLen;\r\n        }else if(lastOption < firstOption){\r\n            return;\r\n        }\r\n        uint256[] memory sharedBalances = _calculateSharedPayment(beginOption,lastOption,OptionsPhaseTimes[index],whiteList);\r\n        return (sharedBalances,block.number);\r\n    }\r\n    function _calculateSharedPayment(uint256 begin,uint256 end,uint256 preTime,address[] whiteList)public view returns(uint256[]){\r\n        if (begin <= firstOption) {\r\n            begin = firstOption;\r\n        }\r\n        uint256[] memory totalSharedPayment = new uint256[](whiteList.length);\r\n        for (;begin<end;begin++){\r\n            OptionsInfo storage info = allOptions[begin];\r\n            uint256 expiration = info.expiration;\r\n            if(expiration<preTime || info.amount == 0){\r\n                continue;\r\n            }\r\n            OptionsInfoEx storage optionEx = optionExtraMap[begin];\r\n            (uint256 preValue,uint256 nowValue) = _calculateTimePrice(preTime,optionEx.createdTime,expiration,info.strikePrice,\r\n                    optionEx.ivNumerator,optionEx.ivDenominator,info.optType);\r\n            if (preValue > nowValue){\r\n                uint256 index = whiteListAddress._getEligibleIndexAddress(whiteList,optionEx.settlement);\r\n                uint256 sharedValue = optionEx.tokenTimePrice.mul((preValue - nowValue)).mul(info.amount).div(optionEx.fullPrice);\r\n                totalSharedPayment[index] = totalSharedPayment[index].add(sharedValue);\r\n            }\r\n        }\r\n        //burned\r\n        return _calBurnedSharePrice(begin,end,preTime,whiteList,totalSharedPayment);\r\n    }\r\n    function _calBurnedSharePrice(uint256 beginIndex,uint256 endIndex,uint256 preTime,address[] whiteList,uint256[] memory totalSharedPayment)public view returns(uint256[]){\r\n        uint256 beginBlock = lastCalBlock_share+1;\r\n        if (beginBlock == 1){\r\n            return totalSharedPayment;\r\n        }\r\n        for (; beginBlock <= block.number;beginBlock++){\r\n            uint256[2][] memory burnedTokens = burnBlockOptions[beginBlock];\r\n            uint burnedLen = burnedTokens.length;\r\n            for (uint256 i = 0;i<burnedLen;i++){\r\n                if(burnedTokens[i][0]<beginIndex || burnedTokens[i][0] >=endIndex){\r\n                   continue;\r\n                }\r\n                OptionsInfo storage info = allOptions[burnedTokens[i][0]];\r\n                uint256 expiration = info.expiration;\r\n                if(expiration<preTime || burnedTokens[i][1] == 0){\r\n                    continue;\r\n                }\r\n                OptionsInfoEx storage optionEx = optionExtraMap[burnedTokens[i][0]];\r\n                uint256 nowValue = optionsPrice.getOptionsPrice_iv(info.strikePrice,info.strikePrice,expiration-now,optionEx.ivNumerator,\r\n                    optionEx.ivDenominator,info.optType);\r\n                nowValue = optionEx.tokenTimePrice.mul(nowValue).mul(burnedTokens[i][1]).div(optionEx.fullPrice);\r\n                uint256 index = whiteListAddress._getEligibleIndexAddress(whiteList,optionEx.settlement);\r\n                totalSharedPayment[index] = totalSharedPayment[index].add(nowValue);\r\n            }\r\n        }       \r\n    }\r\n    function _calculateTimePrice(uint256 preTime,uint256 createdTime,uint256 expiration,\r\n            uint256 strikePrice,uint256 ivNumerator,uint256 ivDenominator,uint8 optType)internal view returns (uint256,uint256){\r\n        uint256 preExpiration = preTime>createdTime ? expiration - preTime : expiration - createdTime;\r\n        uint256 preValue = optionsPrice.getOptionsPrice_iv(strikePrice,strikePrice,preExpiration,ivNumerator,\r\n            ivDenominator,optType);\r\n        uint256 nowValue = optionsPrice.getOptionsPrice_iv(strikePrice,strikePrice,expiration-now,ivNumerator,\r\n            ivDenominator,optType);\r\n        return (preValue,nowValue);\r\n    }\r\n    function createOptions(uint8 optType,uint32 underlying,uint256 expiration,uint256 strikePrice,\r\n        uint256 amount,address settlement) onlyManager public returns (uint256) {\r\n        uint256 optionID = allOptions.length;\r\n        uint256 underlyingPrice =  _oracle.getUnderlyingPrice(underlying);\r\n        allOptions.push(OptionsInfo(optionID+1,msg.sender,optType,underlying,expiration,strikePrice,amount));\r\n        optionsBalances[msg.sender].push(optionID);\r\n        if (optionID == 0){\r\n            lastCalBlock = block.number;\r\n        }\r\n        OptionsInfo storage info = allOptions[optionID];\r\n        setOptionsExtra(info,settlement);\r\n        return calOptionsCollateral(info,underlyingPrice);\r\n    }\r\n    function setOptionsExtra(OptionsInfo storage info,address settlement) onlyManager internal{\r\n        uint256 strikePrice = info.strikePrice;\r\n        uint256 expiration = info.expiration - now;\r\n        (uint256 ivNumerator,uint256 ivDenominator) = volatility.calculateIv(strikePrice,expiration);\r\n        uint256 settlePrice = _oracle.getPrice(settlement);\r\n        uint256 fullPrice = optionsPrice.getOptionsPrice_iv(strikePrice,strikePrice,expiration,ivNumerator,ivDenominator,info.optType);\r\n        uint256 tokenTimePrice = fullPrice.div(settlePrice);\r\n        optionExtraMap[info.optionID-1]= OptionsInfoEx(now,settlement,tokenTimePrice,fullPrice,ivNumerator,ivDenominator);\r\n    }\r\n    function getTotalOccupiedCollateral() public view returns (uint256) {\r\n        uint256 totalOccupied = sumOptionPhases();\r\n        uint underlyingLen = underlyingAssets.length;\r\n        uint256[] memory prices = new uint256[](underlyingLen);\r\n        for (uint256 i = 0;i<underlyingLen;i++){\r\n            prices[i] = _oracle.getUnderlyingPrice(underlyingAssets[i]);\r\n        }\r\n        uint optionsLen = allOptions.length;\r\n        for (uint256 beginOption = lastCallOption+1; beginOption < optionsLen;beginOption++){\r\n            uint256 index = _getEligibleUnderlyingIndex(allOptions[beginOption].underlying);\r\n            totalOccupied = totalOccupied.add(calOptionsCollateral(allOptions[beginOption],prices[index]));\r\n        }\r\n        uint256 beginBlock = lastCalBlock+1;\r\n        if (beginBlock == 1){\r\n            return totalOccupied;\r\n        }\r\n        for (; beginBlock <= block.number;beginBlock++){\r\n            uint256[2][] storage burnedTokens = burnBlockOptions[beginBlock];\r\n            uint burnedLen = burnedTokens.length;\r\n            for (i = 0;i<burnedLen;i++){\r\n                uint optionId = burnedTokens[i][0];\r\n                index = _getEligibleUnderlyingIndex(allOptions[optionId].underlying);\r\n                totalOccupied = totalOccupied.sub(calBurnedOptionsCollateral(allOptions[optionId],\r\n                    burnedTokens[i][1],prices[index]));\r\n            }\r\n        }\r\n        return totalOccupied;\r\n    }\r\n    function sumOptionPhases()internal view returns(uint256){\r\n        uint256 totalOccupied = 0;\r\n        uint256 i = firstOption%optionPhase;\r\n        uint256 phaseLen = allOptions.length%optionPhase+1;\r\n        for (;i<phaseLen;i++){\r\n            totalOccupied = totalOccupied.add(OptionsPhases[i]);\r\n        }\r\n        return totalOccupied;\r\n    }\r\n    function calOptionsCollateral(OptionsInfo storage option,uint256 underlyingPrice)internal view returns(uint256){\r\n        if (option.expiration<=now || option.amount == 0){\r\n            return 0;\r\n        }\r\n        uint256 totalOccupied = 0;\r\n        if ((option.optType == 0) == (option.strikePrice>underlyingPrice)){ // call\r\n            totalOccupied = option.strikePrice.mul(option.amount);\r\n        } else {\r\n            totalOccupied = underlyingPrice.mul(option.amount);\r\n        }\r\n        return totalOccupied;\r\n    }\r\n    function calBurnedOptionsCollateral(OptionsInfo storage option,uint256 burned,uint256 underlyingPrice)internal view returns(uint256){\r\n        uint256 totalOccupied = 0;\r\n        if ((option.optType == 0) == (option.strikePrice>underlyingPrice)){ // call\r\n            totalOccupied = option.strikePrice.mul(burned);\r\n        } else {\r\n            totalOccupied = underlyingPrice.mul(burned);\r\n        }\r\n        return totalOccupied;\r\n    }\r\n    function burnOptions(uint256 id,uint256 amount)public onlyManager{\r\n        OptionsInfo storage info = _getOptionsById(id);\r\n        checkEligible(info);\r\n        checkOwner(info,msg.sender);\r\n        checkSufficient(info,amount);\r\n        info.amount = info.amount.sub(amount);\r\n        burnBlockOptions[block.number].push([id-1,amount]);\r\n    }\r\n    function getExerciseWorth(uint256 optionsId,uint256 amount)public view returns(uint256){\r\n        OptionsInfo storage info = _getOptionsById(optionsId);\r\n        checkEligible(info);\r\n        checkSufficient(info,amount);\r\n        uint256 underlyingPrice = _oracle.getUnderlyingPrice(info.underlying);\r\n        uint256 tokenPayback = 0;\r\n        if (info.optType == 0){\r\n            if (underlyingPrice > info.strikePrice){\r\n                tokenPayback = underlyingPrice - info.strikePrice;\r\n            }\r\n        }else{\r\n            if ( underlyingPrice < info.strikePrice){\r\n                tokenPayback = info.strikePrice-underlyingPrice;\r\n            }\r\n        }\r\n        if (tokenPayback == 0 ){\r\n            return 0;\r\n        } \r\n        return tokenPayback.mul(amount);\r\n    }\r\n    function _getOptionsById(uint256 id)internal view returns(OptionsInfo storage){\r\n        require(id>0 && id <= allOptions.length,\"option id is not exist\");\r\n        return allOptions[id-1];\r\n    }\r\n    function checkEligible(OptionsInfo storage info)internal view{\r\n        require(info.expiration>now,\"option is expired\");\r\n    }\r\n    function checkOwner(OptionsInfo storage info,address owner)internal view{\r\n        require(info.owner == owner,\"caller is not the options owner\");\r\n    }\r\n    function checkSufficient(OptionsInfo storage info,uint256 amount) internal view{\r\n        require(info.amount >= amount,\"option amount is insufficient\");\r\n    }\r\n    function buyOptionCheck(uint256 expiration,uint32 underlying)public view{\r\n        require(isEligibleUnderlyingAsset(underlying) , \"underlying is unsupported asset\");\r\n        checkExpiration(expiration);\r\n    }\r\n        /**\r\n     * @dev Implementation of add an eligible expiration into the expirationList.\r\n     * @param expiration new eligible expiration.\r\n     */\r\n    function addExpiration(uint256 expiration)public onlyOwner{\r\n        whiteListUint256.addWhiteListUint256(expirationList,expiration);\r\n    }\r\n    /**\r\n     * @dev Implementation of revoke an invalid expiration from the expirationList.\r\n     * @param removeExpiration revoked expiration.\r\n     */\r\n    function removeExpirationList(uint256 removeExpiration)public onlyOwner returns(bool) {\r\n        return whiteListUint256.removeWhiteListUint256(expirationList,removeExpiration);\r\n    }\r\n    /**\r\n     * @dev Implementation of getting the eligible expirationList.\r\n     */\r\n    function getExpirationList()public view returns (uint256[]){\r\n        return expirationList;\r\n    }\r\n    /**\r\n     * @dev Implementation of testing whether the input expiration is eligible.\r\n     * @param expiration input expiration for testing.\r\n     */    \r\n    function isEligibleExpiration(uint256 expiration) public view returns (bool){\r\n        return whiteListUint256.isEligibleUint256(expirationList,expiration);\r\n    }\r\n    function checkExpiration(uint256 expiration) public view{\r\n        return require(isEligibleExpiration(expiration),\"expiration value is not supported\");\r\n    }\r\n    function _getEligibleExpirationIndex(uint256 expiration) internal view returns (uint256){\r\n        return whiteListUint256._getEligibleIndexUint256(expirationList,expiration);\r\n    }\r\n\r\n}",
  "sourcePath": "C:\\work\\solidity\\FinnexusOptions_V2\\contracts\\OptionsPool.sol",
  "compiler": {
    "name": "solc",
    "version": "0.4.26+commit.4563c3fc.Emscripten.clang"
  },
  "schemaVersion": "3.1.0",
  "updatedAt": "2020-07-20T13:46:56.804Z",
  "devdoc": {
    "methods": {
      "addExpiration(uint256)": {
        "details": "Implementation of add an eligible expiration into the expirationList.\r",
        "params": {
          "expiration": "new eligible expiration.\r"
        }
      },
      "addUnderlyingAsset(uint32)": {
        "details": "Implementation of add an eligible underlying into the underlyingAssets.\r",
        "params": {
          "underlying": "new eligible underlying.\r"
        }
      },
      "getExpirationList()": {
        "details": "Implementation of getting the eligible expirationList.\r"
      },
      "getUnderlyingAssets()": {
        "details": "Implementation of getting the eligible underlyingAssets.\r"
      },
      "isEligibleExpiration(uint256)": {
        "details": "Implementation of testing whether the input expiration is eligible.\r",
        "params": {
          "expiration": "input expiration for testing.\r"
        }
      },
      "isEligibleUnderlyingAsset(uint32)": {
        "details": "Implementation of testing whether the input underlying is eligible.\r",
        "params": {
          "underlying": "input underlying for testing.\r"
        }
      },
      "isOwner()": {
        "details": "Returns true if the caller is the current owner."
      },
      "owner()": {
        "details": "Returns the address of the current owner."
      },
      "removeExpirationList(uint256)": {
        "details": "Implementation of revoke an invalid expiration from the expirationList.\r",
        "params": {
          "removeExpiration": "revoked expiration.\r"
        }
      },
      "removeUnderlyingAssets(uint32)": {
        "details": "Implementation of revoke an invalid underlying from the underlyingAssets.\r",
        "params": {
          "removeUnderlying": "revoked underlying.\r"
        }
      },
      "renounceOwnership()": {
        "details": "Leaves the contract without owner. It will not be possible to call `onlyOwner` functions anymore. Can only be called by the current owner.     * NOTE: Renouncing ownership will leave the contract without an owner, thereby removing any functionality that is only available to the owner."
      },
      "transferOwnership(address)": {
        "details": "Transfers ownership of the contract to a new account (`newOwner`). Can only be called by the current owner."
      }
    }
  },
  "userdoc": {
    "methods": {
      "setManager(address)": {
        "notice": "contribution period to stop or not."
      }
    }
  }
}