{
  "contractName": "OptionsPriceTest",
  "abi": [
    {
      "constant": true,
      "inputs": [
        {
          "name": "currentPrice",
          "type": "uint256"
        },
        {
          "name": "strikePrice",
          "type": "uint256"
        },
        {
          "name": "expiration",
          "type": "uint256"
        },
        {
          "name": "ivNumerator",
          "type": "uint256"
        },
        {
          "name": "ivDenominator",
          "type": "uint256"
        },
        {
          "name": "optType",
          "type": "uint8"
        }
      ],
      "name": "getOptionsPrice_iv",
      "outputs": [
        {
          "name": "",
          "type": "uint256"
        }
      ],
      "payable": false,
      "stateMutability": "view",
      "type": "function"
    },
    {
      "constant": false,
      "inputs": [
        {
          "name": "volatility",
          "type": "address"
        }
      ],
      "name": "setVolatilityAddress",
      "outputs": [],
      "payable": false,
      "stateMutability": "nonpayable",
      "type": "function"
    },
    {
      "constant": true,
      "inputs": [],
      "name": "getVolatilityAddress",
      "outputs": [
        {
          "name": "",
          "type": "address"
        }
      ],
      "payable": false,
      "stateMutability": "view",
      "type": "function"
    },
    {
      "constant": true,
      "inputs": [
        {
          "name": "currentPrice",
          "type": "uint256"
        },
        {
          "name": "strikePrice",
          "type": "uint256"
        },
        {
          "name": "expiration",
          "type": "uint256"
        },
        {
          "name": "underlying",
          "type": "uint32"
        },
        {
          "name": "optType",
          "type": "uint8"
        }
      ],
      "name": "getOptionsPrice",
      "outputs": [
        {
          "name": "",
          "type": "uint256"
        }
      ],
      "payable": false,
      "stateMutability": "view",
      "type": "function"
    },
    {
      "constant": true,
      "inputs": [],
      "name": "getRate",
      "outputs": [
        {
          "name": "",
          "type": "int256"
        },
        {
          "name": "",
          "type": "int256"
        }
      ],
      "payable": false,
      "stateMutability": "view",
      "type": "function"
    },
    {
      "constant": false,
      "inputs": [],
      "name": "renounceOwnership",
      "outputs": [],
      "payable": false,
      "stateMutability": "nonpayable",
      "type": "function"
    },
    {
      "constant": true,
      "inputs": [],
      "name": "owner",
      "outputs": [
        {
          "name": "",
          "type": "address"
        }
      ],
      "payable": false,
      "stateMutability": "view",
      "type": "function"
    },
    {
      "constant": true,
      "inputs": [],
      "name": "isOwner",
      "outputs": [
        {
          "name": "",
          "type": "bool"
        }
      ],
      "payable": false,
      "stateMutability": "view",
      "type": "function"
    },
    {
      "constant": false,
      "inputs": [
        {
          "name": "numerator",
          "type": "int256"
        },
        {
          "name": "denominator",
          "type": "int256"
        }
      ],
      "name": "setRate",
      "outputs": [],
      "payable": false,
      "stateMutability": "nonpayable",
      "type": "function"
    },
    {
      "constant": false,
      "inputs": [
        {
          "name": "newOwner",
          "type": "address"
        }
      ],
      "name": "transferOwnership",
      "outputs": [],
      "payable": false,
      "stateMutability": "nonpayable",
      "type": "function"
    },
    {
      "inputs": [
        {
          "name": "ivContract",
          "type": "address"
        }
      ],
      "payable": false,
      "stateMutability": "nonpayable",
      "type": "constructor"
    },
    {
      "anonymous": false,
      "inputs": [
        {
          "indexed": true,
          "name": "previousOwner",
          "type": "address"
        },
        {
          "indexed": true,
          "name": "newOwner",
          "type": "address"
        }
      ],
      "name": "OwnershipTransferred",
      "type": "event"
    },
    {
      "constant": true,
      "inputs": [
        {
          "name": "currentPrice",
          "type": "uint256"
        },
        {
          "name": "strikePrice",
          "type": "uint256"
        },
        {
          "name": "expiration",
          "type": "uint256"
        },
        {
          "name": "ivNumerator",
          "type": "uint256"
        },
        {
          "name": "ivDenominator",
          "type": "uint256"
        },
        {
          "name": "optType",
          "type": "uint8"
        }
      ],
      "name": "getOptionsPrice_ivTwice",
      "outputs": [
        {
          "name": "",
          "type": "uint256"
        }
      ],
      "payable": false,
      "stateMutability": "view",
      "type": "function"
    },
    {
      "constant": true,
      "inputs": [
        {
          "name": "currentPrice",
          "type": "uint256"
        },
        {
          "name": "strikePrice",
          "type": "uint256"
        },
        {
          "name": "expiration",
          "type": "uint256"
        },
        {
          "name": "ivNumerator",
          "type": "uint256"
        },
        {
          "name": "ivDenominator",
          "type": "uint256"
        }
      ],
      "name": "testCalculateD1D2_iv",
      "outputs": [
        {
          "name": "",
          "type": "int256"
        },
        {
          "name": "",
          "type": "int256"
        },
        {
          "name": "",
          "type": "int256"
        },
        {
          "name": "",
          "type": "int256"
        }
      ],
      "payable": false,
      "stateMutability": "view",
      "type": "function"
    },
    {
      "constant": true,
      "inputs": [
        {
          "name": "currentPrice",
          "type": "uint256"
        },
        {
          "name": "strikePrice",
          "type": "uint256"
        },
        {
          "name": "expiration",
          "type": "uint256"
        },
        {
          "name": "ivNumerator",
          "type": "uint256"
        },
        {
          "name": "ivDenominator",
          "type": "uint256"
        }
      ],
      "name": "testCalculateND",
      "outputs": [
        {
          "name": "",
          "type": "int256"
        },
        {
          "name": "",
          "type": "int256"
        },
        {
          "name": "",
          "type": "int256"
        },
        {
          "name": "",
          "type": "int256"
        }
      ],
      "payable": false,
      "stateMutability": "view",
      "type": "function"
    }
  ],
  "bytecode": "0x60c0604052600560808190526103e860a081905260029190915560035534801561002857600080fd5b50604051602080611c49833981016040819052905160008054600160a060020a031916331780825591928392600160a060020a031691907f8be0079c531659141344cd1fd0a4f28419497f9722a3daafe3b4186f6b6457e0908290a36100968164010000000061009d810204565b505061014e565b6100ae64010000000061013d810204565b151561011b57604080517f08c379a000000000000000000000000000000000000000000000000000000000815260206004820181905260248201527f4f776e61626c653a2063616c6c6572206973206e6f7420746865206f776e6572604482015290519081900360640190fd5b60018054600160a060020a031916600160a060020a0392909216919091179055565b600054600160a060020a0316331490565b611aec8061015d6000396000f3006080604052600436106100c45763ffffffff7c0100000000000000000000000000000000000000000000000000000000600035041663055ef6ab81146100c95780632967eafe146101055780632deb1b6b1461012857806342e5479d146101525780634b7d8e5c14610183578063679aefce146101b0578063715018a6146101de5780637c523fb5146101f3578063800fb27a1461023d5780638da5cb5b146102615780638f32d59b14610276578063bfe402f41461029f578063f2fde38b146102ba575b600080fd5b3480156100d557600080fd5b506100f360043560243560443560643560843560ff60a435166102db565b60408051918252519081900360200190f35b34801561011157600080fd5b50610126600160a060020a0360043516610364565b005b34801561013457600080fd5b506100f360043560243560443560643560843560ff60a435166103df565b34801561015e57600080fd5b50610167610415565b60408051600160a060020a039092168252519081900360200190f35b34801561018f57600080fd5b506100f360043560243560443563ffffffff6064351660ff60843516610424565b3480156101bc57600080fd5b506101c5610569565b6040805192835260208301919091528051918290030190f35b3480156101ea57600080fd5b50610126610573565b3480156101ff57600080fd5b50610217600435602435604435606435608435610616565b604080519485526020850193909352838301919091526060830152519081900360800190f35b34801561024957600080fd5b506102176004356024356044356064356084356106ab565b34801561026d57600080fd5b50610167610728565b34801561028257600080fd5b5061028b610737565b604080519115158252519081900360200190f35b3480156102ab57600080fd5b50610126600435602435610748565b3480156102c657600080fd5b50610126600160a060020a036004351661079f565b60006102e5611a5a565b50604080518082019091528481526020810184905260ff8316151561033257604080518082019091526002548152600354602082015261032b90899089908990856107f7565b9150610359565b604080518082019091526002548152600354602082015261032b90899089908990856108f3565b509695505050505050565b61036c610737565b15156103b0576040805160e560020a62461bcd0281526020600482018190526024820152600080516020611aa1833981519152604482015290519081900360640190fd5b6001805473ffffffffffffffffffffffffffffffffffffffff1916600160a060020a0392909216919091179055565b60008060006103f28989898989896102db565b9150610405898960648a038989896102db565b9190910198975050505050505050565b600154600160a060020a031690565b6000806000610431611a5a565b600154604080517fb4277bc100000000000000000000000000000000000000000000000000000000815263ffffffff8916600482015260ff88166024820152604481018a9052606481018b90528151600160a060020a039093169263b4277bc1926084808401939192918290030181600087803b1580156104b157600080fd5b505af11580156104c5573d6000803e3d6000fd5b505050506040513d60408110156104db57600080fd5b508051602091820151604080518082019091528281529283018190529094509250905060ff8516151561053657604080518082019091526002548152600354602082015261052f908a908a908a90856107f7565b935061055d565b604080518082019091526002548152600354602082015261052f908a908a908a90856108f3565b50505095945050505050565b6002546003549091565b61057b610737565b15156105bf576040805160e560020a62461bcd0281526020600482018190526024820152600080516020611aa1833981519152604482015290519081900360640190fd5b60008054604051600160a060020a03909116907f8be0079c531659141344cd1fd0a4f28419497f9722a3daafe3b4186f6b6457e0908390a36000805473ffffffffffffffffffffffffffffffffffffffff19169055565b600080600080610624611a5a565b61062c611a5a565b610634611a5a565b6040805180820182528a815260208082018b90528251808401909352600254835260035490830152935061066e908d908d908d9087610a0a565b9150915061067b82610b59565b915061068681610b59565b825160209384015182519290940151909e939d50909b50995090975050505050505050565b6000806000806106b9611a5a565b6106c1611a5a565b6106c9611a5a565b6040805180820182528a815260208082018b905282518084019093526002548352600354908301529350610703908d908d908d9087610a0a565b815160209283015182519290930151909f929e50909c509a5098505050505050505050565b600054600160a060020a031690565b600054600160a060020a0316331490565b610750610737565b1515610794576040805160e560020a62461bcd0281526020600482018190526024820152600080516020611aa1833981519152604482015290519081900360640190fd5b600291909155600355565b6107a7610737565b15156107eb576040805160e560020a62461bcd0281526020600482018190526024820152600080516020611aa1833981519152604482015290519081900360640190fd5b6107f481610e40565b50565b6000610801611a5a565b610809611a5a565b610811611a5a565b610819611a5a565b6108268a8a8a8a8a610a0a565b9350935061083384610b59565b935061083e83610b59565b925061085f8460408051908101604052808d81526020016001815250610e17565b93506108808360408051908101604052808c81526020016001815250610e17565b92506108a48760408051908101604052808b81526020016301e13380815250610e17565b91506108b76108b283610f2e565b610f95565b91506108c38383610e17565b90506108cf8482610fbb565b9050806020015181600001518115156108e457fe5b059a9950505050505050505050565b60006108fd611a5a565b610905611a5a565b61090d611a5a565b610915611a5a565b6109228a8a8a8a8a610a0a565b9350935061092f84610b59565b935061093a83610b59565b925061095c604080519081016040528060018152602001600181525085610fbb565b935061097e604080519081016040528060018152602001600181525084610fbb565b925061099f8460408051908101604052808d81526020016001815250610e17565b93506109c08360408051908101604052808c81526020016001815250610e17565b92506109e48760408051908101604052808b81526020016301e13380815250610e17565b91506109f26108b283610f2e565b91506109fe8383610e17565b90506108cf8185610fbb565b610a12611a5a565b610a1a611a5a565b610a22611a5a565b610a2a611a5a565b610a32611a5a565b610a3a611a5a565b610a42611a5a565b610a4a611a5a565b60408051808201909152600081526001602082015295508c8c14610a8b57610a718d610fdd565b9450610a7c8c610fdd565b9350610a888585610fbb565b95505b610a95898a610e17565b9250610ab7836040805190810160405280600181526020016002815250610e17565b9250610ac3838b611017565b9250610ae78360408051908101604052808e81526020016301e13380815250610e17565b9250610af38684611017565b9550610b2d610b2760408051908101604052808e6402540be4000281526020016301e133806402540be40002815250611039565b8a610e17565b9150610b3986836110e0565b9550610b458683610fbb565b959d959c50949a5050505050505050505050565b610b61611a5a565b600080610b6c611a5a565b610b74611a71565b610b7c611a5a565b610b84611a5a565b610b8c611a5a565b610b94611a5a565b610b9c611a5a565b6000610ba78c611102565b99508915610bbb57610bb88c611115565b9b505b60208c01518c51811515610bcb57fe5b059850600a891315610c125789610bf5576040805180820190915260018082526020820152610c0b565b6040805180820190915260008152600160208201525b9a50610e08565b60408051808201825262235883815262989680602080830191909152825160e0810184526301e7566960a082019081526305f5e10060c0830152815283518085018552631540bb45198152633b9aca008184018190528284019190915284518086018652636a2f323181528084018290528286015284518086018652636c8e292919815280840182905260608301528451808601909552634f4a607d855291840191909152608081019290925298509650610ccd8c89610e17565b9550610cef866040805190810160405280600181526020016001815250611017565b9550610cfa86610f95565b95506040805190810160405280680229a4c508a92ae7d1815260200168056bc75e2d631000008152509450610d2f8c8d610e17565b9350610d5284604080519081016040528060001981526020016002815250610e17565b9350610d5d84610f2e565b9350610d698585610e17565b935060408051908101604052806000815260200160018152509250859150600090505b6005811015610dce57610db883610db3898460058110610da857fe5b602002015185610e17565b611017565b9250610dc48287610e17565b9150600101610d8c565b610dd88484610e17565b9350891515610e0457610e01604080519081016040528060018152602001600181525085610fbb565b93505b839a505b50505050505050505050919050565b610e1f611a5a565b610e39610e2b8461114c565b610e348461114c565b6111f2565b9392505050565b600160a060020a0381161515610ec6576040805160e560020a62461bcd02815260206004820152602660248201527f4f776e61626c653a206e6577206f776e657220697320746865207a65726f206160448201527f6464726573730000000000000000000000000000000000000000000000000000606482015290519081900360840190fd5b60008054604051600160a060020a03808516939216917f8be0079c531659141344cd1fd0a4f28419497f9722a3daafe3b4186f6b6457e091a36000805473ffffffffffffffffffffffffffffffffffffffff1916600160a060020a0392909216919091179055565b610f36611a5a565b6000610f40611a5a565b610f4984611102565b91508115610f5d57610f5a84611115565b93505b610f668461114c565b80516401000000000281529350610f7c84611220565b90508115610e3957610f8d81610f95565b949350505050565b610f9d611a5a565b50604080518082019091526020808301518252825190820152919050565b610fc3611a5a565b610e39610fcf8461114c565b610fd88461114c565b6112d6565b610fe5611a5a565b60408051808201909152640100000000909202918061100384611312565b815264010000000060209091015292915050565b61101f611a5a565b610e3961102b8461114c565b6110348461114c565b611397565b611041611a5a565b815160001380159061105857506000826020015112155b15156110ae576040805160e560020a62461bcd02815260206004820181905260248201527f53717274206d75737420696e707574206120706f7369746976652076616c7565604482015290519081900360640190fd5b60408051908101604052806110c684600001516113d0565b81526020016110d884602001516113d0565b905292915050565b6110e8611a5a565b610e396110f48461114c565b6110fd8461114c565b61140b565b6020810151905160009182139113141590565b61111d611a5a565b81516000131561112f57815160000382525b6000826020015112156111485760208201805160000390525b5090565b611154611a5a565b60008060006111668560000151611439565b92506111758560200151611439565b9150828213156111bd576c8fffffffffffffffffffffffff8213156111b8576c8fffffffffffffffffffffffff825b0590506111b18582611453565b93506111ea565b6111e6565b6c8fffffffffffffffffffffffff8313156111e6576c8fffffffffffffffffffffffff836111a4565b8493505b505050919050565b6111fa611a5a565b506040805180820190915281518351028152602091820151928201519092029082015290565b611228611a5a565b6000611232611a5a565b61123a611a5a565b6020850151855181151561124a57fe5b05925064386bfdba298311156112ad5750506040805180820182528451600290058152602080860180518284015283518085019094528251875103845251908301529061129682611220565b91506112a181611220565b90506111b18282610e17565b60408051908101604052806112c185611494565b815264010000000060209091015293506111ea565b6112de611a5a565b5060408051808201909152602080840180518451858401805188519290930291909202038452519051029082015292915050565b600080640100000000831015611372576040805160e560020a62461bcd02815260206004820181905260248201527f6c6f67652066756e6374696f6e20696e70757420697320746f6f20736d616c6c604482015290519081900360640190fd5b61137b836114fc565b67010000000000000066b17217f7d1cf78909102049392505050565b61139f611a5a565b5060408051808201909152602080840180518451858401805188510291909202018452519051029082015292915050565b80600260018201045b818110156114055780915060028182858115156113f257fe5b04018115156113fd57fe5b0490506113d9565b50919050565b611413611a5a565b506040805180820190915260208281015184510282529151928201519092029082015290565b6000808212611448578161144d565b816000035b92915050565b61145b611a5a565b604080519081016040528083856000015181151561147557fe5b05815260200183856020015181151561148a57fe5b0590529392505050565b600064386bfdba298211156114f3576040805160e560020a62461bcd02815260206004820152601e60248201527f6578702066756e6374696f6e20696e707574206973206f766572666c6f770000604482015290519081900360640190fd5b61144d826115d2565b6000808064010000000084101561155d576040805160e560020a62461bcd02815260206004820152601760248201527f4c6f673220696e70757420697320746f6f20736d616c6c000000000000000000604482015290519081900360640190fd5b600091505b6402000000008410611584576002909304926401000000009190910190611562565b5060005b602060ff821610156115cb5764010000000084800204935064020000000084106115c3576002938490049360ff601f83900316900a91909101905b600101611588565b5092915050565b6000806000602060ff1660019060020a029150816fde1bc4d19efcac82445da75b00000000029050602060ff168483029060020a90049150816fde1bc4d19efcb00000000000000000000281019050602060ff168483029060020a90049150816f6f0de268cf7e580000000000000000000281019050602060ff168483029060020a90049150816f2504a0cd9a7f720000000000000000000281019050602060ff168483029060020a90049150816f09412833669fdc8000000000000000000281019050602060ff168483029060020a90049150816f01d9d4d714865f5000000000000000000281019050602060ff168483029060020a90049150816e4ef8ce836bba8c00000000000000000281019050602060ff168483029060020a90049150816e0b481d807d1aa680000000000000000281019050602060ff168483029060020a90049150816e016903b00fa354d0000000000000000281019050602060ff168483029060020a90049150816d281cdaac677b34000000000000000281019050602060ff168483029060020a90049150816d0402e2aad725eb800000000000000281019050602060ff168483029060020a90049150816c5d5a6c9f31fe240000000000000281019050602060ff168483029060020a90049150816c07c7890d442a830000000000000281019050602060ff168483029060020a90049150816b9931ed5403452800000000000281019050602060ff168483029060020a90049150816b0af147cf24ce1500000000000281019050602060ff168483029060020a90049150816abac08546b867d0000000000281019050602060ff168483029060020a90049150816a0bac08546b867d000000000281019050602060ff168483029060020a900491508169afc441338061b80000000281019050602060ff168483029060020a90049150816909c3cabbc0056e0000000281019050602060ff168483029060020a900491508168839168328705c800000281019050602060ff168483029060020a9004915081680694120286c04a00000281019050602060ff168483029060020a90049150816750319e98b3d2c4000281019050602060ff168483029060020a90049150816703a52a1e36b820200281019050602060ff168483029060020a900491508166289286e0fce0020281019050602060ff168483029060020a90049150816601b0c59eb534000281019050602060ff168483029060020a900491508165114f95b554000281019050602060ff168483029060020a900491508164aa7210d2000281019050602060ff168483029060020a90049150816406501396000281019050602060ff168483029060020a90049150816339b78e800281019050602060ff168483029060020a90049150816301fd80800281019050602060ff168483029060020a90049150816210fbc00281019050602060ff168483029060020a9004915081618c400281019050602060ff168483029060020a90049150816104620281019050602060ff168483029060020a9004915081602202810190506fde1bc4d19efcac82445da75b0000000081811515611a5157fe5b04949350505050565b604080518082019091526000808252602082015290565b610140604051908101604052806005905b611a8a611a5a565b815260200190600190039081611a82579050509056004f776e61626c653a2063616c6c6572206973206e6f7420746865206f776e6572a165627a7a7230582086900cf07be45e65e8d5bdcebfb4ee39d2f2e62140fd226407bde5709995a9ad0029",
  "source": "pragma solidity ^0.4.26;\r\nimport \"./optionsPrice.sol\";\r\ncontract OptionsPriceTest is OptionsPrice{\r\n    constructor (address ivContract) OptionsPrice(ivContract) public{\r\n    }\r\n    function getOptionsPrice_ivTwice(uint256 currentPrice, uint256 strikePrice, uint256 expiration,\r\n            uint256 ivNumerator,uint256 ivDenominator,uint8 optType)public view returns (uint256){\r\n        uint256 value1 = getOptionsPrice_iv(currentPrice,strikePrice,expiration,ivNumerator,ivDenominator,optType);\r\n        uint256 value2 = getOptionsPrice_iv(currentPrice,strikePrice,expiration-100,ivNumerator,ivDenominator,optType);\r\n        return value1 + value2;\r\n    }\r\n    function testCalculateD1D2_iv(uint256 currentPrice, uint256 strikePrice, uint256 expiration,uint256 ivNumerator,uint256 ivDenominator)\r\n        public view returns(int256,int256,int256,int256){\r\n        Fraction.fractionNumber memory _iv = Fraction.fractionNumber(int256(ivNumerator),int256(ivDenominator));\r\n        (Fraction.fractionNumber memory d1, Fraction.fractionNumber memory d2) = calculateD1D2(currentPrice,strikePrice,expiration,rate,_iv);\r\n        return (d1.numerator,d1.denominator,d2.numerator,d2.denominator);\r\n    }\r\n    function testCalculateND(uint256 currentPrice, uint256 strikePrice, uint256 expiration,uint256 ivNumerator,uint256 ivDenominator)\r\n        public view returns(int256,int256,int256,int256){\r\n        Fraction.fractionNumber memory _iv = Fraction.fractionNumber(int256(ivNumerator),int256(ivDenominator));\r\n       (Fraction.fractionNumber memory d1, Fraction.fractionNumber memory d2) = calculateD1D2(currentPrice, strikePrice, expiration, rate, _iv);\r\n        d1 = Fraction.normsDist(d1);\r\n        d2 = Fraction.normsDist(d2);\r\n        return(d1.numerator,d1.denominator,d2.numerator,d2.denominator);\r\n        d1 = Fraction.safeFractionMul(d1, Fraction.fractionNumber(int256(currentPrice),1));\r\n        d2 = Fraction.safeFractionMul(d2, Fraction.fractionNumber(int256(strikePrice),1));\r\n//        Fraction.fractionNumber memory rt = Fraction.safeFractionMul(rate,Fraction.fractionNumber(int256(expiration),int256(Year)));\r\n//        d2 = Fraction.safeFractionMul(d2,Fraction.invert(Fraction.fractionExp(rt)));\r\n//        d1 = Fraction.safeFractionSub(d1, d2);\r\n        return(d1.numerator,d1.denominator,d2.numerator,d2.denominator);\r\n//        return uint256(price.numerator/price.denominator);\r\n    }\r\n}",
  "sourcePath": "C:\\work\\solidity\\FinnexusOptions_V2\\contracts\\optionsPriceTest.sol",
  "compiler": {
    "name": "solc",
    "version": "0.4.26+commit.4563c3fc.Emscripten.clang"
  },
  "schemaVersion": "3.1.0",
  "updatedAt": "2020-07-22T15:09:42.864Z",
  "networkType": "ethereum",
  "devdoc": {
    "methods": {
      "isOwner()": {
        "details": "Returns true if the caller is the current owner."
      },
      "owner()": {
        "details": "Returns the address of the current owner."
      },
      "renounceOwnership()": {
        "details": "Leaves the contract without owner. It will not be possible to call `onlyOwner` functions anymore. Can only be called by the current owner.     * NOTE: Renouncing ownership will leave the contract without an owner, thereby removing any functionality that is only available to the owner."
      },
      "transferOwnership(address)": {
        "details": "Transfers ownership of the contract to a new account (`newOwner`). Can only be called by the current owner."
      }
    }
  },
  "userdoc": {
    "methods": {}
  }
}