{
  "contractName": "OptionsBase",
  "abi": [
    {
      "inputs": [],
      "payable": false,
      "stateMutability": "nonpayable",
      "type": "constructor"
    },
    {
      "anonymous": false,
      "inputs": [
        {
          "indexed": true,
          "internalType": "address",
          "name": "owner",
          "type": "address"
        },
        {
          "indexed": true,
          "internalType": "uint256",
          "name": "optionID",
          "type": "uint256"
        },
        {
          "indexed": false,
          "internalType": "uint256",
          "name": "amount",
          "type": "uint256"
        }
      ],
      "name": "BurnOption",
      "type": "event"
    },
    {
      "anonymous": false,
      "inputs": [
        {
          "indexed": true,
          "internalType": "address",
          "name": "owner",
          "type": "address"
        },
        {
          "indexed": true,
          "internalType": "uint256",
          "name": "optionID",
          "type": "uint256"
        },
        {
          "indexed": false,
          "internalType": "uint8",
          "name": "optType",
          "type": "uint8"
        },
        {
          "indexed": false,
          "internalType": "uint32",
          "name": "underlying",
          "type": "uint32"
        },
        {
          "indexed": false,
          "internalType": "uint256",
          "name": "expiration",
          "type": "uint256"
        },
        {
          "indexed": false,
          "internalType": "uint256",
          "name": "strikePrice",
          "type": "uint256"
        },
        {
          "indexed": false,
          "internalType": "uint256",
          "name": "amount",
          "type": "uint256"
        }
      ],
      "name": "CreateOption",
      "type": "event"
    },
    {
      "anonymous": false,
      "inputs": [
        {
          "indexed": true,
          "internalType": "address",
          "name": "previousOwner",
          "type": "address"
        },
        {
          "indexed": true,
          "internalType": "address",
          "name": "newOwner",
          "type": "address"
        }
      ],
      "name": "OwnershipTransferred",
      "type": "event"
    },
    {
      "constant": false,
      "inputs": [
        {
          "internalType": "address",
          "name": "addAddress",
          "type": "address"
        }
      ],
      "name": "addOperator",
      "outputs": [],
      "payable": false,
      "stateMutability": "nonpayable",
      "type": "function"
    },
    {
      "constant": false,
      "inputs": [
        {
          "internalType": "uint32",
          "name": "underlying",
          "type": "uint32"
        }
      ],
      "name": "addUnderlyingAsset",
      "outputs": [],
      "payable": false,
      "stateMutability": "nonpayable",
      "type": "function"
    },
    {
      "constant": true,
      "inputs": [],
      "name": "getInputAmountRange",
      "outputs": [
        {
          "internalType": "uint256",
          "name": "",
          "type": "uint256"
        },
        {
          "internalType": "uint256",
          "name": "",
          "type": "uint256"
        }
      ],
      "payable": false,
      "stateMutability": "view",
      "type": "function"
    },
    {
      "constant": true,
      "inputs": [
        {
          "internalType": "uint256",
          "name": "item",
          "type": "uint256"
        }
      ],
      "name": "getItemTimeLimitation",
      "outputs": [
        {
          "internalType": "uint256",
          "name": "",
          "type": "uint256"
        }
      ],
      "payable": false,
      "stateMutability": "view",
      "type": "function"
    },
    {
      "constant": true,
      "inputs": [],
      "name": "getManager",
      "outputs": [
        {
          "internalType": "address",
          "name": "",
          "type": "address"
        }
      ],
      "payable": false,
      "stateMutability": "view",
      "type": "function"
    },
    {
      "constant": true,
      "inputs": [],
      "name": "getOperator",
      "outputs": [
        {
          "internalType": "address[]",
          "name": "",
          "type": "address[]"
        }
      ],
      "payable": false,
      "stateMutability": "view",
      "type": "function"
    },
    {
      "constant": true,
      "inputs": [],
      "name": "getOptionsPriceAddress",
      "outputs": [
        {
          "internalType": "address",
          "name": "",
          "type": "address"
        }
      ],
      "payable": false,
      "stateMutability": "view",
      "type": "function"
    },
    {
      "constant": true,
      "inputs": [],
      "name": "getOracleAddress",
      "outputs": [
        {
          "internalType": "address",
          "name": "",
          "type": "address"
        }
      ],
      "payable": false,
      "stateMutability": "view",
      "type": "function"
    },
    {
      "constant": true,
      "inputs": [],
      "name": "getTimeLimitation",
      "outputs": [
        {
          "internalType": "uint256",
          "name": "",
          "type": "uint256"
        }
      ],
      "payable": false,
      "stateMutability": "view",
      "type": "function"
    },
    {
      "constant": true,
      "inputs": [],
      "name": "getUnderlyingAssets",
      "outputs": [
        {
          "internalType": "uint32[]",
          "name": "",
          "type": "uint32[]"
        }
      ],
      "payable": false,
      "stateMutability": "view",
      "type": "function"
    },
    {
      "constant": true,
      "inputs": [],
      "name": "getVolatilityAddress",
      "outputs": [
        {
          "internalType": "address",
          "name": "",
          "type": "address"
        }
      ],
      "payable": false,
      "stateMutability": "view",
      "type": "function"
    },
    {
      "constant": true,
      "inputs": [
        {
          "internalType": "uint32",
          "name": "underlying",
          "type": "uint32"
        }
      ],
      "name": "isEligibleUnderlyingAsset",
      "outputs": [
        {
          "internalType": "bool",
          "name": "",
          "type": "bool"
        }
      ],
      "payable": false,
      "stateMutability": "view",
      "type": "function"
    },
    {
      "constant": true,
      "inputs": [
        {
          "internalType": "uint256",
          "name": "Amount",
          "type": "uint256"
        }
      ],
      "name": "isInputAmountInRange",
      "outputs": [
        {
          "internalType": "bool",
          "name": "",
          "type": "bool"
        }
      ],
      "payable": false,
      "stateMutability": "view",
      "type": "function"
    },
    {
      "constant": true,
      "inputs": [],
      "name": "isOwner",
      "outputs": [
        {
          "internalType": "bool",
          "name": "",
          "type": "bool"
        }
      ],
      "payable": false,
      "stateMutability": "view",
      "type": "function"
    },
    {
      "constant": true,
      "inputs": [],
      "name": "owner",
      "outputs": [
        {
          "internalType": "address",
          "name": "",
          "type": "address"
        }
      ],
      "payable": false,
      "stateMutability": "view",
      "type": "function"
    },
    {
      "constant": false,
      "inputs": [
        {
          "internalType": "address",
          "name": "removeAddress",
          "type": "address"
        }
      ],
      "name": "removeOperator",
      "outputs": [
        {
          "internalType": "bool",
          "name": "",
          "type": "bool"
        }
      ],
      "payable": false,
      "stateMutability": "nonpayable",
      "type": "function"
    },
    {
      "constant": false,
      "inputs": [
        {
          "internalType": "uint32",
          "name": "removeUnderlying",
          "type": "uint32"
        }
      ],
      "name": "removeUnderlyingAssets",
      "outputs": [
        {
          "internalType": "bool",
          "name": "",
          "type": "bool"
        }
      ],
      "payable": false,
      "stateMutability": "nonpayable",
      "type": "function"
    },
    {
      "constant": false,
      "inputs": [],
      "name": "renounceOwnership",
      "outputs": [],
      "payable": false,
      "stateMutability": "nonpayable",
      "type": "function"
    },
    {
      "constant": false,
      "inputs": [
        {
          "internalType": "uint256",
          "name": "_minAmount",
          "type": "uint256"
        },
        {
          "internalType": "uint256",
          "name": "_maxAmount",
          "type": "uint256"
        }
      ],
      "name": "setInputAmountRange",
      "outputs": [],
      "payable": false,
      "stateMutability": "nonpayable",
      "type": "function"
    },
    {
      "constant": false,
      "inputs": [
        {
          "internalType": "address",
          "name": "managerAddress",
          "type": "address"
        }
      ],
      "name": "setManager",
      "outputs": [],
      "payable": false,
      "stateMutability": "nonpayable",
      "type": "function"
    },
    {
      "constant": false,
      "inputs": [
        {
          "internalType": "uint256",
          "name": "index",
          "type": "uint256"
        },
        {
          "internalType": "address",
          "name": "addAddress",
          "type": "address"
        }
      ],
      "name": "setOperator",
      "outputs": [],
      "payable": false,
      "stateMutability": "nonpayable",
      "type": "function"
    },
    {
      "constant": false,
      "inputs": [
        {
          "internalType": "address[]",
          "name": "operators",
          "type": "address[]"
        }
      ],
      "name": "setOperators",
      "outputs": [],
      "payable": false,
      "stateMutability": "nonpayable",
      "type": "function"
    },
    {
      "constant": false,
      "inputs": [
        {
          "internalType": "address",
          "name": "optionsPrice",
          "type": "address"
        }
      ],
      "name": "setOptionsPriceAddress",
      "outputs": [],
      "payable": false,
      "stateMutability": "nonpayable",
      "type": "function"
    },
    {
      "constant": false,
      "inputs": [
        {
          "internalType": "address",
          "name": "oracle",
          "type": "address"
        }
      ],
      "name": "setOracleAddress",
      "outputs": [],
      "payable": false,
      "stateMutability": "nonpayable",
      "type": "function"
    },
    {
      "constant": false,
      "inputs": [
        {
          "internalType": "uint256",
          "name": "_limitation",
          "type": "uint256"
        }
      ],
      "name": "setTimeLimitation",
      "outputs": [],
      "payable": false,
      "stateMutability": "nonpayable",
      "type": "function"
    },
    {
      "constant": false,
      "inputs": [
        {
          "internalType": "address",
          "name": "volatility",
          "type": "address"
        }
      ],
      "name": "setVolatilityAddress",
      "outputs": [],
      "payable": false,
      "stateMutability": "nonpayable",
      "type": "function"
    },
    {
      "constant": false,
      "inputs": [
        {
          "internalType": "address",
          "name": "newOwner",
          "type": "address"
        }
      ],
      "name": "transferOwnership",
      "outputs": [],
      "payable": false,
      "stateMutability": "nonpayable",
      "type": "function"
    },
    {
      "constant": false,
      "inputs": [],
      "name": "initialize",
      "outputs": [],
      "payable": false,
      "stateMutability": "nonpayable",
      "type": "function"
    },
    {
      "constant": true,
      "inputs": [
        {
          "internalType": "address",
          "name": "user",
          "type": "address"
        }
      ],
      "name": "getUserOptionsID",
      "outputs": [
        {
          "internalType": "uint256[]",
          "name": "",
          "type": "uint256[]"
        }
      ],
      "payable": false,
      "stateMutability": "view",
      "type": "function"
    },
    {
      "constant": true,
      "inputs": [
        {
          "internalType": "address",
          "name": "user",
          "type": "address"
        },
        {
          "internalType": "uint256",
          "name": "from",
          "type": "uint256"
        },
        {
          "internalType": "uint256",
          "name": "size",
          "type": "uint256"
        }
      ],
      "name": "getUserOptionsID",
      "outputs": [
        {
          "internalType": "uint256[]",
          "name": "",
          "type": "uint256[]"
        }
      ],
      "payable": false,
      "stateMutability": "view",
      "type": "function"
    },
    {
      "constant": true,
      "inputs": [],
      "name": "getOptionInfoLength",
      "outputs": [
        {
          "internalType": "uint256",
          "name": "",
          "type": "uint256"
        }
      ],
      "payable": false,
      "stateMutability": "view",
      "type": "function"
    },
    {
      "constant": true,
      "inputs": [
        {
          "internalType": "uint256",
          "name": "from",
          "type": "uint256"
        },
        {
          "internalType": "uint256",
          "name": "size",
          "type": "uint256"
        }
      ],
      "name": "getOptionInfoList",
      "outputs": [
        {
          "internalType": "address[]",
          "name": "",
          "type": "address[]"
        },
        {
          "internalType": "uint256[]",
          "name": "",
          "type": "uint256[]"
        },
        {
          "internalType": "uint256[]",
          "name": "",
          "type": "uint256[]"
        },
        {
          "internalType": "uint256[]",
          "name": "",
          "type": "uint256[]"
        },
        {
          "internalType": "uint256[]",
          "name": "",
          "type": "uint256[]"
        }
      ],
      "payable": false,
      "stateMutability": "view",
      "type": "function"
    },
    {
      "constant": true,
      "inputs": [
        {
          "internalType": "uint256[]",
          "name": "ids",
          "type": "uint256[]"
        }
      ],
      "name": "getOptionInfoListFromID",
      "outputs": [
        {
          "internalType": "address[]",
          "name": "",
          "type": "address[]"
        },
        {
          "internalType": "uint256[]",
          "name": "",
          "type": "uint256[]"
        },
        {
          "internalType": "uint256[]",
          "name": "",
          "type": "uint256[]"
        },
        {
          "internalType": "uint256[]",
          "name": "",
          "type": "uint256[]"
        },
        {
          "internalType": "uint256[]",
          "name": "",
          "type": "uint256[]"
        }
      ],
      "payable": false,
      "stateMutability": "view",
      "type": "function"
    },
    {
      "constant": true,
      "inputs": [
        {
          "internalType": "uint256",
          "name": "optionsId",
          "type": "uint256"
        }
      ],
      "name": "getOptionsLimitTimeById",
      "outputs": [
        {
          "internalType": "uint256",
          "name": "",
          "type": "uint256"
        }
      ],
      "payable": false,
      "stateMutability": "view",
      "type": "function"
    },
    {
      "constant": true,
      "inputs": [
        {
          "internalType": "uint256",
          "name": "optionsId",
          "type": "uint256"
        }
      ],
      "name": "getOptionsById",
      "outputs": [
        {
          "internalType": "uint256",
          "name": "",
          "type": "uint256"
        },
        {
          "internalType": "address",
          "name": "",
          "type": "address"
        },
        {
          "internalType": "uint8",
          "name": "",
          "type": "uint8"
        },
        {
          "internalType": "uint32",
          "name": "",
          "type": "uint32"
        },
        {
          "internalType": "uint256",
          "name": "",
          "type": "uint256"
        },
        {
          "internalType": "uint256",
          "name": "",
          "type": "uint256"
        },
        {
          "internalType": "uint256",
          "name": "",
          "type": "uint256"
        }
      ],
      "payable": false,
      "stateMutability": "view",
      "type": "function"
    },
    {
      "constant": true,
      "inputs": [
        {
          "internalType": "uint256",
          "name": "optionsId",
          "type": "uint256"
        }
      ],
      "name": "getOptionsExtraById",
      "outputs": [
        {
          "internalType": "address",
          "name": "",
          "type": "address"
        },
        {
          "internalType": "uint256",
          "name": "",
          "type": "uint256"
        },
        {
          "internalType": "uint256",
          "name": "",
          "type": "uint256"
        },
        {
          "internalType": "uint256",
          "name": "",
          "type": "uint256"
        },
        {
          "internalType": "uint256",
          "name": "",
          "type": "uint256"
        },
        {
          "internalType": "uint256",
          "name": "",
          "type": "uint256"
        }
      ],
      "payable": false,
      "stateMutability": "view",
      "type": "function"
    },
    {
      "constant": true,
      "inputs": [
        {
          "internalType": "uint256",
          "name": "optionsId",
          "type": "uint256"
        },
        {
          "internalType": "uint256",
          "name": "amount",
          "type": "uint256"
        }
      ],
      "name": "getExerciseWorth",
      "outputs": [
        {
          "internalType": "uint256",
          "name": "",
          "type": "uint256"
        }
      ],
      "payable": false,
      "stateMutability": "view",
      "type": "function"
    },
    {
      "constant": true,
      "inputs": [
        {
          "internalType": "uint256",
          "name": "expiration",
          "type": "uint256"
        },
        {
          "internalType": "uint32",
          "name": "underlying",
          "type": "uint32"
        }
      ],
      "name": "buyOptionCheck",
      "outputs": [],
      "payable": false,
      "stateMutability": "view",
      "type": "function"
    },
    {
      "constant": false,
      "inputs": [
        {
          "internalType": "uint256",
          "name": "expiration",
          "type": "uint256"
        }
      ],
      "name": "addExpiration",
      "outputs": [],
      "payable": false,
      "stateMutability": "nonpayable",
      "type": "function"
    },
    {
      "constant": false,
      "inputs": [
        {
          "internalType": "uint256",
          "name": "removeExpiration",
          "type": "uint256"
        }
      ],
      "name": "removeExpirationList",
      "outputs": [
        {
          "internalType": "bool",
          "name": "",
          "type": "bool"
        }
      ],
      "payable": false,
      "stateMutability": "nonpayable",
      "type": "function"
    },
    {
      "constant": true,
      "inputs": [],
      "name": "getExpirationList",
      "outputs": [
        {
          "internalType": "uint256[]",
          "name": "",
          "type": "uint256[]"
        }
      ],
      "payable": false,
      "stateMutability": "view",
      "type": "function"
    },
    {
      "constant": true,
      "inputs": [
        {
          "internalType": "uint256",
          "name": "expiration",
          "type": "uint256"
        }
      ],
      "name": "isEligibleExpiration",
      "outputs": [
        {
          "internalType": "bool",
          "name": "",
          "type": "bool"
        }
      ],
      "payable": false,
      "stateMutability": "view",
      "type": "function"
    },
    {
      "constant": true,
      "inputs": [
        {
          "internalType": "uint256",
          "name": "expiration",
          "type": "uint256"
        }
      ],
      "name": "checkExpiration",
      "outputs": [],
      "payable": false,
      "stateMutability": "view",
      "type": "function"
    },
    {
      "constant": true,
      "inputs": [
        {
          "internalType": "uint256",
          "name": "optionID",
          "type": "uint256"
        },
        {
          "internalType": "uint256",
          "name": "amount",
          "type": "uint256"
        }
      ],
      "name": "getBurnedFullPay",
      "outputs": [
        {
          "internalType": "address",
          "name": "",
          "type": "address"
        },
        {
          "internalType": "uint256",
          "name": "",
          "type": "uint256"
        }
      ],
      "payable": false,
      "stateMutability": "view",
      "type": "function"
    }
  ],
  "bytecode": "0x6080604052610e106003556c0c9f2c9cd04674edea4000000060045560646005553480156200002d57600080fd5b5060008054600160a060020a0319163317808255604051600160a060020a039190911691907f8be0079c531659141344cd1fd0a4f28419497f9722a3daafe3b4186f6b6457e0908290a36200008a64010000000062000090810204565b620002f2565b620000a364010000000062000199810204565b6200010f57604080517f08c379a000000000000000000000000000000000000000000000000000000000815260206004820181905260248201527f4f776e61626c653a2063616c6c6572206973206e6f7420746865206f776e6572604482015290519081900360640190fd5b60408051610100810182526201518081526202a30060208201526203f4809181019190915262093a806060820152620d2f0060808201526213c68060a0820152621a5e0060c082015262278d0060e08201526200017190600e906008620001ab565b5060408051808201909152600180825260026020830181905262000196929062000202565b50565b600054600160a060020a031633145b90565b828054828255906000526020600020908101928215620001f0579160200282015b82811115620001f0578251829062ffffff16905591602001919060010190620001cc565b50620001fe929150620002b1565b5090565b82805482825590600052602060002090600701600890048101928215620002a35791602002820160005b838211156200026f57835183826101000a81548163ffffffff021916908360ff16021790555092602001926004016020816003010492830192600103026200022c565b8015620002a15782816101000a81549063ffffffff02191690556004016020816003010492830192600103026200026f565b505b50620001fe929150620002ce565b620001a891905b80821115620001fe5760008155600101620002b8565b620001a891905b80821115620001fe57805463ffffffff19168155600101620002d5565b612b1280620003026000396000f3fe608060405234801561001057600080fd5b50600436106102785760003560e060020a900480638f32d59b11610155578063bec3107f116100c7578063ddf71cd51161008b578063ddf71cd514610968578063e7a1c1c014610a0b578063e7c5681514610a37578063e7f43c6814610a5d578063f2fde38b14610a65578063f7de192314610a8b57610278565b8063bec3107f146108ec578063d0ebdbe7146108f4578063d50095841461091a578063d6d1401214610922578063db6ad2bd1461094557610278565b80639ef975d2116101195780639ef975d214610837578063a093e2d014610854578063ac8a584a1461087a578063afec82fc146108a0578063b18b78dd146108c3578063bc9abed2146108cb57610278565b80638f32d59b146107c15780639052d5f8146107c95780639783cbd9146107d15780639870d7fe146107ee5780639ab91a351461081457610278565b8063597ce900116101ee578063723931ca116101b2578063723931ca146107295780637cfff2d8146107465780637e838fa3146107635780638129fc1c14610794578063813b5d4b1461079c5780638da5cb5b146107b957610278565b8063597ce900146106935780635ca4b73b146106d957806367b8ceb9146106e15780636d84e2e314610704578063715018a61461072157610278565b80633582d789116102405780633582d7891461055c5780633ad2fb57146105b457806342e5479d146105dd5780634688d5d61461060157806348ee201d146106095780634c69c00f1461066d57610278565b80630438d4901461027d57806307af1478146104085780632967eafe146104625780632a75ee421461048a578063354af360146104b9575b600080fd5b6102a06004803603604081101561029357600080fd5b5080359060200135610abd565b60405180806020018060200180602001806020018060200186810386528b818151815260200191508051906020019060200280838360005b838110156102f05781810151838201526020016102d8565b5050505090500186810385528a818151815260200191508051906020019060200280838360005b8381101561032f578181015183820152602001610317565b50505050905001868103845289818151815260200191508051906020019060200280838360005b8381101561036e578181015183820152602001610356565b50505050905001868103835288818151815260200191508051906020019060200280838360005b838110156103ad578181015183820152602001610395565b50505050905001868103825287818151815260200191508051906020019060200280838360005b838110156103ec5781810151838201526020016103d4565b505050509050019a505050505050505050505060405180910390f35b6104256004803603602081101561041e57600080fd5b5035610d94565b60408051600160a060020a0390971687526020870195909552858501939093526060850191909152608084015260a0830152519081900360c00190f35b6104886004803603602081101561047857600080fd5b5035600160a060020a0316610e47565b005b6104a7600480360360208110156104a057600080fd5b5035610eb3565b60408051918252519081900360200190f35b6102a0600480360360208110156104cf57600080fd5b8101906020810181356401000000008111156104ea57600080fd5b8201836020820111156104fc57600080fd5b8035906020019184602083028401116401000000008311171561051e57600080fd5b919080806020026020016040519081016040528093929190818152602001838360200280828437600092019190915250929550610eca945050505050565b610564611193565b60408051602080825283518183015283519192839290830191858101910280838360005b838110156105a0578181015183820152602001610588565b505050509050019250505060405180910390f35b610488600480360360408110156105ca57600080fd5b508035906020013563ffffffff16611218565b6105e5611282565b60408051600160a060020a039092168252519081900360200190f35b6104a7611291565b6106266004803603602081101561061f57600080fd5b5035611297565b60408051978852600160a060020a03909616602088015260ff9094168686015263ffffffff9092166060860152608085015260a084015260c0830152519081900360e00190f35b6104886004803603602081101561068357600080fd5b5035600160a060020a031661130b565b6106b6600480360360408110156106a957600080fd5b5080359060200135611377565b60408051600160a060020a03909316835260208301919091528051918290030190f35b6105e5611405565b6104a7600480360360408110156106f757600080fd5b5080359060200135611414565b6104a76004803603602081101561071a57600080fd5b50356114fb565b61048861156b565b6104886004803603602081101561073f57600080fd5b50356115ff565b6104886004803603602081101561075c57600080fd5b5035611649565b6107806004803603602081101561077957600080fd5b50356116a4565b604080519115158252519081900360200190f35b610488611701565b610780600480360360208110156107b257600080fd5b50356117ce565b6105e56117e6565b6107806117f5565b610564611806565b610488600480360360208110156107e757600080fd5b503561185d565b6104886004803603602081101561080457600080fd5b5035600160a060020a03166118ac565b6104886004803603604081101561082a57600080fd5b5080359060200135611907565b6107806004803603602081101561084d57600080fd5b503561195c565b6104886004803603602081101561086a57600080fd5b5035600160a060020a03166119c1565b6107806004803603602081101561089057600080fd5b5035600160a060020a0316611a2d565b610488600480360360208110156108b657600080fd5b503563ffffffff16611a8a565b6105e5611ae5565b6108d3611af4565b6040805192835260208301919091528051918290030190f35b6104a7611afe565b6104886004803603602081101561090a57600080fd5b5035600160a060020a0316611b04565b6105e5611b70565b6107806004803603602081101561093857600080fd5b503563ffffffff16611b7f565b6107806004803603602081101561095b57600080fd5b503563ffffffff16611bdc565b6104886004803603602081101561097e57600080fd5b81019060208101813564010000000081111561099957600080fd5b8201836020820111156109ab57600080fd5b803590602001918460208302840111640100000000831117156109cd57600080fd5b919080806020026020016040519081016040528093929190818152602001838360200280828437600092019190915250929550611c6d945050505050565b61048860048036036040811015610a2157600080fd5b5080359060200135600160a060020a0316611cca565b61056460048036036020811015610a4d57600080fd5b5035600160a060020a0316611d54565b610564611dc0565b61048860048036036020811015610a7b57600080fd5b5035600160a060020a0316611e21565b61056460048036036060811015610aa157600080fd5b50600160a060020a038135169060208101359060400135611e74565b600b546060908190819081908190808810610b22576040805160e560020a62461bcd02815260206004820152601660248201527f696e7075742066726f6d206973206f766572666c6f7700000000000000000000604482015290519081900360640190fd5b60008711610b7a576040805160e560020a62461bcd02815260206004820152601260248201527f696e7075742073697a65206973207a65726f0000000000000000000000000000604482015290519081900360640190fd5b808789011115610b8a5787810396505b606087604051908082528060200260200182016040528015610bb6578160200160208202803883390190505b509050606088604051908082528060200260200182016040528015610be5578160200160208202803883390190505b509050606089604051908082528060200260200182016040528015610c14578160200160208202803883390190505b50905060608a604051908082528060200260200182016040528015610c43578160200160208202803883390190505b50905060608b604051908082528060200260200182016040528015610c72578160200160208202803883390190505b50905060005b8c811015610d7f576000818f0190506000600b8281548110610c9657fe5b906000526020600020906005020190508060000160089054906101000a9004600160a060020a0316888481518110610cca57fe5b600160a060020a03929092166020928302919091019091015280546001820154885160e060020a90920460ff1663ffffffff9182166201000002011690889085908110610d1357fe5b6020026020010181815250508060020154868481518110610d3057fe5b6020026020010181815250508060030154858481518110610d4d57fe5b6020026020010181815250508060040154848481518110610d6a57fe5b60209081029190910101525050600101610c78565b50939c929b5090995097509095509350505050565b600080600080600080600087118015610daf5750600b548711155b610e03576040805160e560020a62461bcd02815260206004820152601660248201527f6f7074696f6e206964206973206e6f7420657869737400000000000000000000604482015290519081900360640190fd5b50505060009384525050600c602052506040902080546001820154600283015460038401546004850154600590950154600160a060020a0390941695929491939092565b610e4f6117f5565b610e91576040805160e560020a62461bcd0281526020600482018190526024820152600080516020612a79833981519152604482015290519081900360640190fd5b60088054600160a060020a031916600160a060020a0392909216919091179055565b600354600091825260026020526040909120540190565b606080606080606060008651905060008111610f30576040805160e560020a62461bcd02815260206004820152601860248201527f696e7075742069647320617272617920697320656d7074790000000000000000604482015290519081900360640190fd5b600b54604080518381526020808502820101909152606090838015610f5f578160200160208202803883390190505b509050606083604051908082528060200260200182016040528015610f8e578160200160208202803883390190505b509050606084604051908082528060200260200182016040528015610fbd578160200160208202803883390190505b509050606085604051908082528060200260200182016040528015610fec578160200160208202803883390190505b50905060608660405190808252806020026020018201604052801561101b578160200160208202803883390190505b50905060005b87811015610d7f57600060018f838151811061103957fe5b602002602001015103905087811061109b576040805160e560020a62461bcd02815260206004820152601860248201527f696e7075742069647320617272617920697320656d7074790000000000000000604482015290519081900360640190fd5b6000600b82815481106110aa57fe5b906000526020600020906005020190508060000160089054906101000a9004600160a060020a03168884815181106110de57fe5b600160a060020a03929092166020928302919091019091015280546001820154885160e060020a90920460ff1663ffffffff918216620100000201169088908590811061112757fe5b602002602001018181525050806002015486848151811061114457fe5b602002602001018181525050806003015485848151811061116157fe5b602002602001018181525050806004015484848151811061117e57fe5b60209081029190910101525050600101611021565b6060600180548060200260200160405190810160405280929190818152602001828054801561120d57602002820191906000526020600020906000905b82829054906101000a900463ffffffff1663ffffffff16815260200190600401906020826003010492830192600103820291508084116111d05790505b505050505090505b90565b61122181611bdc565b611275576040805160e560020a62461bcd02815260206004820152601f60248201527f756e6465726c79696e6720697320756e737570706f7274656420617373657400604482015290519081900360640190fd5b61127e826115ff565b5050565b600854600160a060020a031690565b60035490565b6000806000806000806000806112ac89612015565b805460018201546002830154600384015460049094015467ffffffffffffffff84169e680100000000000000008504600160a060020a03169e5060e060020a90940460ff169c5063ffffffff9092169a50985091965090945092505050565b6113136117f5565b611355576040805160e560020a62461bcd0281526020600482018190526024820152600080516020612a79833981519152604482015290519081900360640190fd5b60078054600160a060020a031916600160a060020a0392909216919091179055565b600080828060045410156113bf5760405160e560020a62461bcd028152600401808060200182810382526024815260200180612aba6024913960400191505060405180910390fd5b60001985016000908152600c60205260409020805460018201546003830154600160a060020a0390921691670de0b6b3a764000091028702049350935050509250929050565b600954600160a060020a031690565b600061141e612803565b61142784612015565b6040805160e081018252825467ffffffffffffffff81168252680100000000000000008104600160a060020a0316602083015260e060020a900460ff1691810191909152600182015463ffffffff16606082015260028201546080820152600382015460a082015260049091015460c082015290506114a5816120a1565b6114af81846120fc565b60006114c4826060015163ffffffff16612158565b905060006114db83604001518460a0015184612217565b9050806114ee57600093505050506114f5565b8402925050505b92915050565b6000808211801561150e5750600b548211155b611562576040805160e560020a62461bcd02815260206004820152601660248201527f6f7074696f6e206964206973206e6f7420657869737400000000000000000000604482015290519081900360640190fd5b6114f582610eb3565b6115736117f5565b6115b5576040805160e560020a62461bcd0281526020600482018190526024820152600080516020612a79833981519152604482015290519081900360640190fd5b60008054604051600160a060020a03909116907f8be0079c531659141344cd1fd0a4f28419497f9722a3daafe3b4186f6b6457e0908390a360008054600160a060020a0319169055565b6116088161195c565b6116465760405160e560020a62461bcd028152600401808060200182810382526021815260200180612a996021913960400191505060405180910390fd5b50565b6116516117f5565b611693576040805160e560020a62461bcd0281526020600482018190526024820152600080516020612a79833981519152604482015290519081900360640190fd5b611646600e8263ffffffff61224b16565b60006116ae6117f5565b6116f0576040805160e560020a62461bcd0281526020600482018190526024820152600080516020612a79833981519152604482015290519081900360640190fd5b6114f5600e8363ffffffff6122c016565b6117096117f5565b61174b576040805160e560020a62461bcd0281526020600482018190526024820152600080516020612a79833981519152604482015290519081900360640190fd5b60408051610100810182526201518081526202a30060208201526203f4809181019190915262093a806060820152620d2f0060808201526213c68060a0820152621a5e0060c082015262278d0060e08201526117ab90600e90600861283f565b506040805180820190915260018082526002602083018190526116469290612891565b600081600454101580156114f5575050600554111590565b600054600160a060020a031690565b600054600160a060020a0316331490565b6060600e80548060200260200160405190810160405280929190818152602001828054801561120d57602002820191906000526020600020905b815481526020019060010190808311611840575050505050905090565b6118656117f5565b6118a7576040805160e560020a62461bcd0281526020600482018190526024820152600080516020612a79833981519152604482015290519081900360640190fd5b600355565b6118b46117f5565b6118f6576040805160e560020a62461bcd0281526020600482018190526024820152600080516020612a79833981519152604482015290519081900360640190fd5b611646600a8263ffffffff61236616565b61190f6117f5565b611951576040805160e560020a62461bcd0281526020600482018190526024820152600080516020612a79833981519152604482015290519081900360640190fd5b600591909155600455565b60006114f582600e8054806020026020016040519081016040528092919081815260200182805480156119ae57602002820191906000526020600020905b81548152602001906001019080831161199a575b50505050506123fe90919063ffffffff16565b6119c96117f5565b611a0b576040805160e560020a62461bcd0281526020600482018190526024820152600080516020612a79833981519152604482015290519081900360640190fd5b60098054600160a060020a031916600160a060020a0392909216919091179055565b6000611a376117f5565b611a79576040805160e560020a62461bcd0281526020600482018190526024820152600080516020612a79833981519152604482015290519081900360640190fd5b6114f5600a8363ffffffff61243b16565b611a926117f5565b611ad4576040805160e560020a62461bcd0281526020600482018190526024820152600080516020612a79833981519152604482015290519081900360640190fd5b61164660018263ffffffff61251116565b600754600160a060020a031690565b6005546004549091565b600b5490565b611b0c6117f5565b611b4e576040805160e560020a62461bcd0281526020600482018190526024820152600080516020612a79833981519152604482015290519081900360640190fd5b60068054600160a060020a031916600160a060020a0392909216919091179055565b600654600160a060020a031690565b6000611b896117f5565b611bcb576040805160e560020a62461bcd0281526020600482018190526024820152600080516020612a79833981519152604482015290519081900360640190fd5b6114f560018363ffffffff6125d816565b60006114f5826001805480602002602001604051908101604052809291908181526020018280548015611c5a57602002820191906000526020600020906000905b82829054906101000a900463ffffffff1663ffffffff1681526020019060040190602082600301049283019260010382029150808411611c1d5790505b50505050506126c890919063ffffffff16565b611c756117f5565b611cb7576040805160e560020a62461bcd0281526020600482018190526024820152600080516020612a79833981519152604482015290519081900360640190fd5b805161127e90600a906020840190612939565b611cd26117f5565b611d14576040805160e560020a62461bcd0281526020600482018190526024820152600080516020612a79833981519152604482015290519081900360640190fd5b80600a8381548110611d2257fe5b9060005260206000200160006101000a815481600160a060020a030219169083600160a060020a031602179055505050565b600160a060020a0381166000908152600d6020908152604091829020805483518184028101840190945280845260609392830182828015611db457602002820191906000526020600020905b815481526020019060010190808311611da0575b50505050509050919050565b6060600a80548060200260200160405190810160405280929190818152602001828054801561120d57602002820191906000526020600020905b8154600160a060020a03168152600190910190602001808311611dfa575050505050905090565b611e296117f5565b611e6b576040805160e560020a62461bcd0281526020600482018190526024820152600080516020612a79833981519152604482015290519081900360640190fd5b61164681612711565b600160a060020a0383166000908152600d60205260409020546060908310611ee6576040805160e560020a62461bcd02815260206004820152601660248201527f696e7075742066726f6d206973206f766572666c6f7700000000000000000000604482015290519081900360640190fd5b60008211611f3e576040805160e560020a62461bcd02815260206004820152601260248201527f696e7075742073697a65206973207a65726f0000000000000000000000000000604482015290519081900360640190fd5b606082604051908082528060200260200182016040528015611f6a578160200160208202803883390190505b50600160a060020a0386166000908152600d60205260409020549091508484011115611faf57600160a060020a0385166000908152600d602052604090205484900392505b60005b8381101561200a57600160a060020a0386166000908152600d602052604090208054868301908110611fe057fe5b9060005260206000200154828281518110611ff757fe5b6020908102919091010152600101611fb2565b5090505b9392505050565b600080821180156120285750600b548211155b61207c576040805160e560020a62461bcd02815260206004820152601660248201527f6f7074696f6e206964206973206e6f7420657869737400000000000000000000604482015290519081900360640190fd5b600b600183038154811061208c57fe5b90600052602060002090600502019050919050565b42816080015111611646576040805160e560020a62461bcd02815260206004820152601160248201527f6f7074696f6e2069732065787069726564000000000000000000000000000000604482015290519081900360640190fd5b808260c00151101561127e576040805160e560020a62461bcd02815260206004820152601d60248201527f6f7074696f6e20616d6f756e7420697320696e73756666696369656e74000000604482015290519081900360640190fd5b600754604080517fda6632570000000000000000000000000000000000000000000000000000000081526004810184905290516000928392600160a060020a039091169163da66325791602480820192602092909190829003018186803b1580156121c257600080fd5b505afa1580156121d6573d6000803e3d6000fd5b505050506040513d60208110156121ec57600080fd5b505190506064811080159061220e57506c0c9f2c9cd04674edea400000008111155b6114f557600080fd5b600060ff841615828411141561222f5750600061200e565b60ff84161561224057818303612244565b8282035b905061200e565b6122a48280548060200260200160405190810160405280929190818152602001828054801561229957602002820191906000526020600020905b815481526020019060010190808311612285575b5050505050826123fe565b61127e5781546001810183556000928352602090922090910155565b8154600090815b818110156122fa57838582815481106122dc57fe5b906000526020600020015414156122f2576122fa565b6001016122c7565b8181101561235b5760018203811461233f5784600183038154811061231b57fe5b906000526020600020015485828154811061233257fe5b6000918252602090912001555b845461234f86600019830161299a565b506001925050506114f5565b506000949350505050565b6123c9828054806020026020016040519081016040528092919081815260200182805480156123be57602002820191906000526020600020905b8154600160a060020a031681526001909101906020018083116123a0575b5050505050826127b4565b61127e578154600181018355600083815260209020018054600160a060020a038316600160a060020a03199091161790555050565b8151600090815b8181101561235b578385828151811061241a57fe5b60200260200101511415612433576001925050506114f5565b600101612405565b8154600090815b818110156124885783600160a060020a031685828154811061246057fe5b600091825260209091200154600160a060020a0316141561248057612488565b600101612442565b8181101561235b5760018203811461233f578460018303815481106124a957fe5b9060005260206000200160009054906101000a9004600160a060020a03168582815481106124d357fe5b9060005260206000200160006101000a815481600160a060020a030219169083600160a060020a03160217905550845461234f86600019830161299a565b6125968280548060200260200160405190810160405280929190818152602001828054801561258b57602002820191906000526020600020906000905b82829054906101000a900463ffffffff1663ffffffff168152602001906004019060208260030104928301926001038202915080841161254e5790505b5050505050826126c8565b61127e578154600181018355600092835260209092206008830401805460079093166004026101000a63ffffffff818102199094169290931692909202179055565b8154600090815b81811015612631578363ffffffff168582815481106125fa57fe5b6000918252602090912060088204015460079091166004026101000a900463ffffffff16141561262957612631565b6001016125df565b8181101561235b576001820381146126b85784600183038154811061265257fe5b90600052602060002090600891828204019190066004029054906101000a900463ffffffff1685828154811061268457fe5b90600052602060002090600891828204019190066004026101000a81548163ffffffff021916908363ffffffff1602179055505b845461234f8660001983016129c3565b8151600090815b8181101561235b578363ffffffff168582815181106126ea57fe5b602002602001015163ffffffff161415612709576001925050506114f5565b6001016126cf565b600160a060020a0381166127595760405160e560020a62461bcd028152600401808060200182810382526026815260200180612a536026913960400191505060405180910390fd5b60008054604051600160a060020a03808516939216917f8be0079c531659141344cd1fd0a4f28419497f9722a3daafe3b4186f6b6457e091a360008054600160a060020a031916600160a060020a0392909216919091179055565b8151600090815b8181101561235b5783600160a060020a03168582815181106127d957fe5b6020026020010151600160a060020a031614156127fb576001925050506114f5565b6001016127bb565b6040805160e081018252600080825260208201819052918101829052606081018290526080810182905260a0810182905260c081019190915290565b828054828255906000526020600020908101928215612881579160200282015b82811115612881578251829062ffffff1690559160200191906001019061285f565b5061288d9291506129f3565b5090565b8280548282559060005260206000209060070160089004810192821561292d5791602002820160005b838211156128fb57835183826101000a81548163ffffffff021916908360ff16021790555092602001926004016020816003010492830192600103026128ba565b801561292b5782816101000a81549063ffffffff02191690556004016020816003010492830192600103026128fb565b505b5061288d929150612a0d565b82805482825590600052602060002090810192821561298e579160200282015b8281111561298e5782518254600160a060020a031916600160a060020a03909116178255602090920191600190910190612959565b5061288d929150612a2e565b8154818355818111156129be576000838152602090206129be9181019083016129f3565b505050565b8154818355818111156129be5760070160089004816007016008900483600052602060002091820191016129be91905b61121591905b8082111561288d57600081556001016129f9565b61121591905b8082111561288d57805463ffffffff19168155600101612a13565b61121591905b8082111561288d578054600160a060020a0319168155600101612a3456fe4f776e61626c653a206e6577206f776e657220697320746865207a65726f20616464726573734f776e61626c653a2063616c6c6572206973206e6f7420746865206f776e657265787069726174696f6e2076616c7565206973206e6f7420737570706f72746564696e70757420616d6f756e74206973206c6172676572207468616e206d6178696d69756da265627a7a72315820b5a8a26d4d3bb0596e2d4b5e19be76c8e28baeb397bdc3d504abeebeffaa369864736f6c63430005100032",
  "source": "pragma solidity =0.5.16;\r\nimport \"./OptionsData.sol\";\r\nimport \"../modules/tuple64.sol\";\r\n/**\r\n * @title Options data contract.\r\n * @dev A Smart-contract to store options info.\r\n *\r\n */\r\ncontract OptionsBase is OptionsData {\r\n    using whiteListUint256 for uint256[];\r\n    constructor () public{\r\n        initialize();\r\n    }\r\n    function initialize() onlyOwner public {\r\n        expirationList =  [1 days,2 days,3 days, 7 days, 10 days, 15 days,20 days, 30 days/*,90 days*/];\r\n        underlyingAssets = [1,2];\r\n    }\r\n    /**\r\n     * @dev retrieve user's options' id. \r\n     * @param user user's account.\r\n     */     \r\n    function getUserOptionsID(address user)public view returns(uint256[] memory){\r\n        return optionsBalances[user];\r\n    }\r\n    /**\r\n     * @dev retrieve user's `size` number of options' id. \r\n     * @param user user's account.\r\n     * @param from user's option list begin positon.\r\n     * @param size retrieve size.\r\n     */ \r\n    function getUserOptionsID(address user,uint256 from,uint256 size)public view returns(uint256[] memory){\r\n        require(from <optionsBalances[user].length,\"input from is overflow\");\r\n        require(size>0,\"input size is zero\");\r\n        uint256[] memory userIdAry = new uint256[](size);\r\n        if (from+size>optionsBalances[user].length){\r\n            size = optionsBalances[user].length-from;\r\n        }\r\n        for (uint256 i= 0;i<size;i++){\r\n            userIdAry[i] = optionsBalances[user][from+i];\r\n        }\r\n        return userIdAry;\r\n    }\r\n    /**\r\n     * @dev retrieve all option list length. \r\n     */ \r\n    function getOptionInfoLength()public view returns (uint256){\r\n        return allOptions.length;\r\n    }\r\n    /**\r\n     * @dev retrieve `size` number of options' information. \r\n     * @param from all option list begin positon.\r\n     * @param size retrieve size.\r\n     */     \r\n    function getOptionInfoList(uint256 from,uint256 size)public view \r\n                returns(address[] memory,uint256[] memory,uint256[] memory,uint256[] memory,uint256[] memory){\r\n        uint256 allLen = allOptions.length;\r\n        require(from <allLen,\"input from is overflow\");\r\n        require(size>0,\"input size is zero\");\r\n        if (from+size>allLen){\r\n            size = allLen - from;\r\n        }\r\n        address[] memory ownerArr = new address[](size);\r\n        uint256[] memory typeAndUnderArr = new uint256[](size);\r\n        uint256[] memory expArr = new uint256[](size);\r\n        uint256[] memory priceArr = new uint256[](size);\r\n        uint256[] memory amountArr = new uint256[](size);\r\n        for (uint i=0;i<size;i++){\r\n            uint256 index = from+i; \r\n            OptionsInfo storage infoV2 = allOptions[index];\r\n            ownerArr[i] = infoV2.owner;\r\n            typeAndUnderArr[i] = (infoV2.underlying << 16) + infoV2.optType;\r\n            expArr[i] = infoV2.expiration;\r\n            priceArr[i] = infoV2.strikePrice;\r\n            amountArr[i] = infoV2.amount;\r\n        }\r\n        return (ownerArr,typeAndUnderArr,expArr,priceArr,amountArr);\r\n    }\r\n    /**\r\n     * @dev retrieve given `ids` options' information. \r\n     * @param ids retrieved options' id.\r\n     */   \r\n    function getOptionInfoListFromID(uint256[] memory ids)public view \r\n                returns(address[] memory,uint256[] memory,uint256[] memory,uint256[] memory,uint256[] memory){\r\n        uint256 size = ids.length;\r\n        require(size > 0, \"input ids array is empty\");\r\n        uint256 allLen = allOptions.length;\r\n        address[] memory ownerArr = new address[](size);\r\n        uint256[] memory typeAndUnderArr = new uint256[](size);\r\n        uint256[] memory expArr = new uint256[](size);\r\n        uint256[] memory priceArr = new uint256[](size);\r\n        uint256[] memory amountArr = new uint256[](size);\r\n        for (uint i=0;i<size;i++){\r\n            uint256 index = ids[i]-1; \r\n            require(index < allLen, \"input ids array is empty\");\r\n            OptionsInfo storage infoV2 = allOptions[index];\r\n            ownerArr[i] = infoV2.owner;\r\n            typeAndUnderArr[i] = (infoV2.underlying << 16) + infoV2.optType;\r\n            expArr[i] = infoV2.expiration;\r\n            priceArr[i] = infoV2.strikePrice;\r\n            amountArr[i] = infoV2.amount;\r\n        }\r\n        return (ownerArr,typeAndUnderArr,expArr,priceArr,amountArr);\r\n    }\r\n    /**\r\n     * @dev retrieve given `optionsId` option's burned limit timestamp. \r\n     * @param optionsId retrieved option's id.\r\n     */ \r\n    function getOptionsLimitTimeById(uint256 optionsId)public view returns(uint256){\r\n        require(optionsId>0 && optionsId <= allOptions.length,\"option id is not exist\");\r\n        return getItemTimeLimitation(optionsId);\r\n    }\r\n    /**\r\n     * @dev retrieve given `optionsId` option's information. \r\n     * @param optionsId retrieved option's id.\r\n     */ \r\n    function getOptionsById(uint256 optionsId)public view returns(uint256,address,uint8,uint32,uint256,uint256,uint256){\r\n        OptionsInfo storage info = _getOptionsById(optionsId);\r\n        return (info.optionID,info.owner,info.optType,info.underlying,info.expiration,info.strikePrice,info.amount);\r\n    }\r\n    /**\r\n     * @dev retrieve given `optionsId` option's extra information. \r\n     * @param optionsId retrieved option's id.\r\n     */\r\n    function getOptionsExtraById(uint256 optionsId)public view returns(address,uint256,uint256,uint256,uint256,uint256){\r\n        require(optionsId>0 && optionsId <= allOptions.length,\"option id is not exist\");\r\n        OptionsInfoEx storage info = optionExtraMap[optionsId];\r\n        return (info.settlement,info.tokenTimePrice,info.underlyingPrice,\r\n                info.fullPrice,info.ivNumerator,info.ivDenominator);\r\n    }\r\n    /**\r\n     * @dev An auxiliary function, get underlying prices. \r\n     */\r\n    function getUnderlyingPrices()internal view returns(uint256[] memory){\r\n        uint256 underlyingLen = underlyingAssets.length;\r\n        uint256[] memory prices = new uint256[](underlyingLen);\r\n        for (uint256 i = 0;i<underlyingLen;i++){\r\n            prices[i] = oracleUnderlyingPrice(underlyingAssets[i]);\r\n        }\r\n        return prices;\r\n    }\r\n    /**\r\n     * @dev create new option, store option info.\r\n     * @param from option's owner\r\n     * @param settlement the Coin address which user's paying for\r\n     * @param type_ly_exp the tuple64 of option type, underlying,expiration\r\n     * @param underlyingAndStrike option's strike price and underlying price\r\n     * @param priceAndRate option's paid price and price rate\r\n     * @param amount option's amount\r\n     */\r\n    function _createOptions(address from,address settlement,uint256 type_ly_exp,uint256 underlyingAndStrike,uint256 priceAndRate,\r\n                uint256 amount) internal {\r\n        uint256 optionID = allOptions.length;\r\n        uint32 underlying = uint32(tuple64.getValue1(type_ly_exp));\r\n        allOptions.push(OptionsInfo(uint64(optionID+1),from,uint8(type_ly_exp),underlying,tuple64.getValue2(type_ly_exp)+now,uint256(uint128(underlyingAndStrike)),uint256(uint128(amount))));\r\n        optionsBalances[from].push(uint64(optionID+1));\r\n        setOptionsExtra(allOptions[optionID],settlement,priceAndRate,underlyingAndStrike,amount >>128);\r\n        setItemTimeLimitation(optionID+1);\r\n        uint128 optionPrice = uint128(priceAndRate>>128);\r\n        uint128 rate = uint128(priceAndRate);\r\n        emit CreateOption(from,optionID+1,uint8(type_ly_exp),underlying,tuple64.getValue2(type_ly_exp)+now,(optionPrice*rate)>>32,uint256(uint128(amount)));\r\n    }\r\n    /**\r\n     * @dev An auxiliary function, store new option's extra information.\r\n     * @param info option's information\r\n     * @param settlement the Coin address which user's paying for\r\n     * @param priceAndRate option's paid price\r\n     * @param underlyingAndStrike option's strike price and underlying price\r\n     */\r\n    function setOptionsExtra(OptionsInfo memory info,address settlement,uint256 priceAndRate,uint256 underlyingAndStrike,uint256 settlePrice) internal{\r\n        uint256 underlyingPrice = (underlyingAndStrike>>128);\r\n        uint256 expiration = info.expiration - now;\r\n        uint256 ivNumerator = _volatility.calculateIv(info.underlying,info.optType,expiration,underlyingPrice,uint256(uint128(underlyingAndStrike)));\r\n        uint128 optionPrice = uint128(priceAndRate>>128);\r\n        uint128 rate = uint128(priceAndRate);\r\n        uint256 tokenTimePrice = ((uint256(rate)*calDecimals)>>32)/settlePrice;\r\n        optionExtraMap[info.optionID-1]= OptionsInfoEx(settlement,tokenTimePrice,underlyingPrice,(uint256(optionPrice)*rate)>>32,ivNumerator,1<<32);\r\n    }\r\n    /**\r\n     * @dev burn an exist option whose id is `id`.\r\n     * @param from option's owner\r\n     * @param amount option's amount\r\n     */\r\n    function _burnOptions(address from,uint256 id,uint256 amount)internal{\r\n        OptionsInfo storage info = _getOptionsById(id);\r\n        checkEligible(info);\r\n        checkOwner(info,from);\r\n        checkSufficient(info,amount);\r\n        info.amount = info.amount-amount;\r\n        emit BurnOption(from,id,amount);\r\n    }\r\n    /**\r\n     * @dev calculate option's exercise worth.\r\n     * @param optionsId option's id\r\n     * @param amount option's amount\r\n     */\r\n    function getExerciseWorth(uint256 optionsId,uint256 amount)public view returns(uint256){\r\n        OptionsInfo memory info = _getOptionsById(optionsId);\r\n        checkEligible(info);\r\n        checkSufficient(info,amount);\r\n        uint256 underlyingPrice = oracleUnderlyingPrice(info.underlying);\r\n        uint256 tokenPayback = _getOptionsPayback(info.optType,info.strikePrice,underlyingPrice);\r\n        if (tokenPayback == 0 ){\r\n            return 0;\r\n        } \r\n        return tokenPayback*amount;\r\n    }\r\n    /**\r\n     * @dev An auxiliary function, calculate option's exercise payback.\r\n     * @param optType option's type\r\n     * @param strikePrice option's strikePrice\r\n     * @param underlyingPrice underlying's price\r\n     */\r\n    function _getOptionsPayback(uint8 optType,uint256 strikePrice,uint256 underlyingPrice)internal pure returns(uint256){\r\n        if ((optType == 0) == (strikePrice>underlyingPrice)){ // call\r\n            return 0;\r\n        } else {\r\n            return (optType == 0) ? underlyingPrice - strikePrice : strikePrice - underlyingPrice;\r\n        }\r\n    }\r\n    /**\r\n     * @dev retrieve option by id, check option's id.\r\n     * @param id option's id\r\n     */\r\n    function _getOptionsById(uint256 id)internal view returns(OptionsInfo storage){\r\n        require(id>0 && id <= allOptions.length,\"option id is not exist\");\r\n        return allOptions[id-1];\r\n    }\r\n    /**\r\n     * @dev check whether option is eligible, check option's expiration.\r\n     * @param info option's information\r\n     */\r\n    function checkEligible(OptionsInfo memory info)internal view{\r\n        require(info.expiration>now,\"option is expired\");\r\n    }\r\n    /**\r\n     * @dev check whether option's owner is equal.\r\n     * @param info option's information\r\n     * @param owner user's address\r\n     */\r\n    function checkOwner(OptionsInfo memory info,address owner)internal pure{\r\n        require(info.owner == owner,\"caller is not the options owner\");\r\n    }\r\n    /**\r\n     * @dev check whether option's amount is sufficient.\r\n     * @param info option's information\r\n     * @param amount user input amount\r\n     */\r\n    function checkSufficient(OptionsInfo memory info,uint256 amount) internal pure{\r\n        require(info.amount >= amount,\"option amount is insufficient\");\r\n    }\r\n    /**\r\n     * @dev check option's underlying and expiration.\r\n     * @param expiration option's expiration\r\n     * @param underlying option's underlying\r\n     */\r\n    function buyOptionCheck(uint256 expiration,uint32 underlying)public view{\r\n        require(isEligibleUnderlyingAsset(underlying) , \"underlying is unsupported asset\");\r\n        checkExpiration(expiration);\r\n    }\r\n    /**\r\n     * @dev Implementation of add an eligible expiration into the expirationList.\r\n     * @param expiration new eligible expiration.\r\n     */\r\n    function addExpiration(uint256 expiration)public onlyOwner{\r\n        expirationList.addWhiteListUint256(expiration);\r\n    }\r\n    /**\r\n     * @dev Implementation of revoke an invalid expiration from the expirationList.\r\n     * @param removeExpiration revoked expiration.\r\n     */\r\n    function removeExpirationList(uint256 removeExpiration)public onlyOwner returns(bool) {\r\n        return expirationList.removeWhiteListUint256(removeExpiration);\r\n    }\r\n    /**\r\n     * @dev Implementation of getting the eligible expirationList.\r\n     */\r\n    function getExpirationList()public view returns (uint256[] memory){\r\n        return expirationList;\r\n    }\r\n    /**\r\n     * @dev Implementation of testing whether the input expiration is eligible.\r\n     * @param expiration input expiration for testing.\r\n     */    \r\n    function isEligibleExpiration(uint256 expiration) public view returns (bool){\r\n        return expirationList.isEligibleUint256(expiration);\r\n    }\r\n    /**\r\n     * @dev check option's expiration.\r\n     * @param expiration option's expiration\r\n     */\r\n    function checkExpiration(uint256 expiration) public view{\r\n        return require(isEligibleExpiration(expiration),\"expiration value is not supported\");\r\n    }\r\n    /**\r\n     * @dev retrieve index from expiration white list.\r\n            If the input expriation is not found, the index is equal to whitelist's length, \r\n     * @param expiration input expiration\r\n     */\r\n    function _getEligibleExpirationIndex(uint256 expiration) internal view returns (uint256){\r\n        return expirationList._getEligibleIndexUint256(expiration);\r\n    }\r\n    /**\r\n     * @dev An auxiliary function, retrieve first available option's positon.\r\n     * @param begin  the start of option's positon\r\n     * @param latestBegin  the latest begin option positon.\r\n     * @param end  the end of option's positon\r\n     */\r\n    function getFirstOption(uint256 begin,uint256 latestBegin,uint256 end) internal view returns(uint256,uint256){\r\n        uint256 newFirstOption = latestBegin;\r\n        if (begin > newFirstOption){\r\n            //if in other phase, begin != new begin\r\n            return (begin,newFirstOption);\r\n        }\r\n        begin = newFirstOption;\r\n        for (;begin<end;begin++){\r\n            OptionsInfo storage info = allOptions[begin];\r\n            if(info.expiration<now || info.amount == 0){\r\n                continue;\r\n            }\r\n            break;\r\n        }\r\n        //if in first phase, begin = new begin\r\n        return (begin,begin);\r\n    }\r\n    /**\r\n     * @dev calculate option's occupied collateral.\r\n     * @param option  option's information\r\n     * @param underlyingPrice  underlying current price.\r\n     */\r\n    function calOptionsCollateral(OptionsInfo memory option,uint256 underlyingPrice)internal view returns(uint256){\r\n        if (option.expiration<=now || option.amount == 0){\r\n            return 0;\r\n        }\r\n        uint256 totalOccupied = _getOptionsWorth(option.optType,option.strikePrice,underlyingPrice)*option.amount;\r\n        require(totalOccupied<=1e40,\"Option collateral occupied calculate error\");\r\n        return totalOccupied;\r\n    }\r\n    /**\r\n     * @dev calculate one option's occupied collateral.\r\n     * @param optType  option's type\r\n     * @param strikePrice  option's strikePrice\r\n     * @param underlyingPrice  underlying current price.\r\n     */\r\n    function _getOptionsWorth(uint8 optType,uint256 strikePrice,uint256 underlyingPrice)internal pure returns(uint256){\r\n        if ((optType == 0) == (strikePrice>underlyingPrice)){ // call\r\n            return strikePrice;\r\n        } else {\r\n            return underlyingPrice;\r\n        }\r\n    }\r\n    /**\r\n     * @dev calculate `amount` number of Option's full price when option is burned.\r\n     * @param optionID  option's optionID\r\n     * @param amount  option's amount\r\n     */\r\n    function getBurnedFullPay(uint256 optionID,uint256 amount) Smaller(amount) public view returns(address,uint256){\r\n        OptionsInfoEx storage optionEx = optionExtraMap[optionID-1];\r\n        return (optionEx.settlement,optionEx.fullPrice*optionEx.tokenTimePrice*amount/calDecimals);\r\n    }\r\n}",
  "sourcePath": "C:\\work\\solidity\\FinnexusOptions_V2\\contracts\\OptionsPool\\Optionsbase.sol",
  "compiler": {
    "name": "solc",
    "version": "0.5.16+commit.9c3226ce.Emscripten.clang"
  },
  "schemaVersion": "3.1.0",
  "updatedAt": "2020-10-21T03:26:50.459Z",
  "devdoc": {
    "details": "A Smart-contract to store options info.  ",
    "methods": {
      "addExpiration(uint256)": {
        "details": "Implementation of add an eligible expiration into the expirationList.",
        "params": {
          "expiration": "new eligible expiration."
        }
      },
      "addOperator(address)": {
        "details": "add a new operator by owner.       "
      },
      "addUnderlyingAsset(uint32)": {
        "details": "Implementation of add an eligible underlying into the underlyingAssets.",
        "params": {
          "underlying": "new eligible underlying."
        }
      },
      "buyOptionCheck(uint256,uint32)": {
        "details": "check option's underlying and expiration.",
        "params": {
          "expiration": "option's expiration",
          "underlying": "option's underlying"
        }
      },
      "checkExpiration(uint256)": {
        "details": "check option's expiration.",
        "params": {
          "expiration": "option's expiration"
        }
      },
      "getBurnedFullPay(uint256,uint256)": {
        "details": "calculate `amount` number of Option's full price when option is burned.",
        "params": {
          "amount": "option's amount",
          "optionID": "option's optionID"
        }
      },
      "getExerciseWorth(uint256,uint256)": {
        "details": "calculate option's exercise worth.",
        "params": {
          "amount": "option's amount",
          "optionsId": "option's id"
        }
      },
      "getExpirationList()": {
        "details": "Implementation of getting the eligible expirationList."
      },
      "getInputAmountRange()": {
        "details": "get the valid range of input amount"
      },
      "getItemTimeLimitation(uint256)": {
        "details": "Retrieve user's start time for burning. ",
        "params": {
          "item": "item key."
        }
      },
      "getManager()": {
        "details": "get manager address.       "
      },
      "getOperator()": {
        "details": "get all operators.       "
      },
      "getOptionInfoLength()": {
        "details": "retrieve all option list length. "
      },
      "getOptionInfoList(uint256,uint256)": {
        "details": "retrieve `size` number of options' information. ",
        "params": {
          "from": "all option list begin positon.",
          "size": "retrieve size."
        }
      },
      "getOptionInfoListFromID(uint256[])": {
        "details": "retrieve given `ids` options' information. ",
        "params": {
          "ids": "retrieved options' id."
        }
      },
      "getOptionsById(uint256)": {
        "details": "retrieve given `optionsId` option's information. ",
        "params": {
          "optionsId": "retrieved option's id."
        }
      },
      "getOptionsExtraById(uint256)": {
        "details": "retrieve given `optionsId` option's extra information. ",
        "params": {
          "optionsId": "retrieved option's id."
        }
      },
      "getOptionsLimitTimeById(uint256)": {
        "details": "retrieve given `optionsId` option's burned limit timestamp. ",
        "params": {
          "optionsId": "retrieved option's id."
        }
      },
      "getUnderlyingAssets()": {
        "details": "Implementation of getting the eligible underlyingAssets."
      },
      "getUserOptionsID(address)": {
        "details": "retrieve user's options' id. ",
        "params": {
          "user": "user's account."
        }
      },
      "getUserOptionsID(address,uint256,uint256)": {
        "details": "retrieve user's `size` number of options' id. ",
        "params": {
          "from": "user's option list begin positon.",
          "size": "retrieve size.",
          "user": "user's account."
        }
      },
      "isEligibleExpiration(uint256)": {
        "details": "Implementation of testing whether the input expiration is eligible.",
        "params": {
          "expiration": "input expiration for testing."
        }
      },
      "isEligibleUnderlyingAsset(uint32)": {
        "details": "Implementation of testing whether the input underlying is eligible.",
        "params": {
          "underlying": "input underlying for testing."
        }
      },
      "isInputAmountInRange(uint256)": {
        "details": "Determine whether the input amount is within the valid range",
        "params": {
          "Amount": "Test value which is user input"
        }
      },
      "isOwner()": {
        "details": "Returns true if the caller is the current owner."
      },
      "owner()": {
        "details": "Returns the address of the current owner."
      },
      "removeExpirationList(uint256)": {
        "details": "Implementation of revoke an invalid expiration from the expirationList.",
        "params": {
          "removeExpiration": "revoked expiration."
        }
      },
      "removeOperator(address)": {
        "details": "remove operator by owner.       "
      },
      "removeUnderlyingAssets(uint32)": {
        "details": "Implementation of revoke an invalid underlying from the underlyingAssets.",
        "params": {
          "removeUnderlying": "revoked underlying."
        }
      },
      "renounceOwnership()": {
        "details": "Leaves the contract without owner. It will not be possible to call `onlyOwner` functions anymore. Can only be called by the current owner.      * NOTE: Renouncing ownership will leave the contract without an owner, thereby removing any functionality that is only available to the owner."
      },
      "setInputAmountRange(uint256,uint256)": {
        "details": "set the valid range of input amount",
        "params": {
          "_maxAmount": "the maximum input amount limit",
          "_minAmount": "the minimum input amount limit"
        }
      },
      "setManager(address)": {
        "details": "set manager by owner.       "
      },
      "setOperator(uint256,address)": {
        "details": "modify indexed operator by owner.       "
      },
      "setOperators(address[])": {
        "details": "set all operators by owner.       "
      },
      "setTimeLimitation(uint256)": {
        "details": "set time limitation, only owner can invoke. ",
        "params": {
          "_limitation": "new time limitation."
        }
      },
      "transferOwnership(address)": {
        "details": "Transfers ownership of the contract to a new account (`newOwner`). Can only be called by the current owner."
      }
    },
    "title": "Options data contract."
  },
  "userdoc": {
    "methods": {}
  }
}