{
  "contractName": "OptionsNetWorthCal",
  "abi": [
    {
      "constant": true,
      "inputs": [
        {
          "name": "from",
          "type": "uint256"
        },
        {
          "name": "size",
          "type": "uint256"
        }
      ],
      "name": "getOptionInfoList",
      "outputs": [
        {
          "name": "",
          "type": "address[]"
        },
        {
          "name": "",
          "type": "uint256[]"
        },
        {
          "name": "",
          "type": "uint256[]"
        },
        {
          "name": "",
          "type": "uint256[]"
        },
        {
          "name": "",
          "type": "uint256[]"
        }
      ],
      "payable": false,
      "stateMutability": "view",
      "type": "function"
    },
    {
      "constant": true,
      "inputs": [],
      "name": "getOccupiedCalInfo",
      "outputs": [
        {
          "name": "",
          "type": "uint256"
        },
        {
          "name": "",
          "type": "int256"
        }
      ],
      "payable": false,
      "stateMutability": "view",
      "type": "function"
    },
    {
      "constant": true,
      "inputs": [
        {
          "name": "lastOption",
          "type": "uint256"
        },
        {
          "name": "beginOption",
          "type": "uint256"
        },
        {
          "name": "endOption",
          "type": "uint256"
        }
      ],
      "name": "calculatePhaseOccupiedCollateral",
      "outputs": [
        {
          "name": "",
          "type": "uint256"
        },
        {
          "name": "",
          "type": "uint256"
        },
        {
          "name": "",
          "type": "bool"
        }
      ],
      "payable": false,
      "stateMutability": "view",
      "type": "function"
    },
    {
      "constant": false,
      "inputs": [
        {
          "name": "totalOccupied",
          "type": "uint256"
        },
        {
          "name": "beginOption",
          "type": "uint256"
        },
        {
          "name": "latestOccpied",
          "type": "int256"
        }
      ],
      "name": "setCollateralPhase",
      "outputs": [],
      "payable": false,
      "stateMutability": "nonpayable",
      "type": "function"
    },
    {
      "constant": false,
      "inputs": [
        {
          "name": "volatility",
          "type": "address"
        }
      ],
      "name": "setVolatilityAddress",
      "outputs": [],
      "payable": false,
      "stateMutability": "nonpayable",
      "type": "function"
    },
    {
      "constant": true,
      "inputs": [
        {
          "name": "ids",
          "type": "uint256[]"
        }
      ],
      "name": "getOptionInfoListFromID",
      "outputs": [
        {
          "name": "",
          "type": "address[]"
        },
        {
          "name": "",
          "type": "uint256[]"
        },
        {
          "name": "",
          "type": "uint256[]"
        },
        {
          "name": "",
          "type": "uint256[]"
        },
        {
          "name": "",
          "type": "uint256[]"
        }
      ],
      "payable": false,
      "stateMutability": "view",
      "type": "function"
    },
    {
      "constant": true,
      "inputs": [],
      "name": "getUnderlyingAssets",
      "outputs": [
        {
          "name": "",
          "type": "uint32[]"
        }
      ],
      "payable": false,
      "stateMutability": "view",
      "type": "function"
    },
    {
      "constant": true,
      "inputs": [
        {
          "name": "expiration",
          "type": "uint256"
        },
        {
          "name": "underlying",
          "type": "uint32"
        }
      ],
      "name": "buyOptionCheck",
      "outputs": [],
      "payable": false,
      "stateMutability": "view",
      "type": "function"
    },
    {
      "constant": true,
      "inputs": [],
      "name": "getVolatilityAddress",
      "outputs": [
        {
          "name": "",
          "type": "address"
        }
      ],
      "payable": false,
      "stateMutability": "view",
      "type": "function"
    },
    {
      "constant": true,
      "inputs": [],
      "name": "getLatestOption",
      "outputs": [
        {
          "name": "",
          "type": "uint256"
        },
        {
          "name": "",
          "type": "address"
        },
        {
          "name": "",
          "type": "uint8"
        },
        {
          "name": "",
          "type": "uint32"
        },
        {
          "name": "",
          "type": "uint256"
        },
        {
          "name": "",
          "type": "uint256"
        },
        {
          "name": "",
          "type": "uint256"
        }
      ],
      "payable": false,
      "stateMutability": "view",
      "type": "function"
    },
    {
      "constant": true,
      "inputs": [
        {
          "name": "optionsId",
          "type": "uint256"
        }
      ],
      "name": "getOptionsById",
      "outputs": [
        {
          "name": "",
          "type": "uint256"
        },
        {
          "name": "",
          "type": "address"
        },
        {
          "name": "",
          "type": "uint8"
        },
        {
          "name": "",
          "type": "uint32"
        },
        {
          "name": "",
          "type": "uint256"
        },
        {
          "name": "",
          "type": "uint256"
        },
        {
          "name": "",
          "type": "uint256"
        }
      ],
      "payable": false,
      "stateMutability": "view",
      "type": "function"
    },
    {
      "constant": false,
      "inputs": [
        {
          "name": "oracle",
          "type": "address"
        }
      ],
      "name": "setOracleAddress",
      "outputs": [],
      "payable": false,
      "stateMutability": "nonpayable",
      "type": "function"
    },
    {
      "constant": true,
      "inputs": [
        {
          "name": "optionID",
          "type": "uint256"
        },
        {
          "name": "amount",
          "type": "uint256"
        }
      ],
      "name": "getBurnedFullPay",
      "outputs": [
        {
          "name": "",
          "type": "address"
        },
        {
          "name": "",
          "type": "uint256"
        }
      ],
      "payable": false,
      "stateMutability": "view",
      "type": "function"
    },
    {
      "constant": true,
      "inputs": [],
      "name": "getOptionsPriceAddress",
      "outputs": [
        {
          "name": "",
          "type": "address"
        }
      ],
      "payable": false,
      "stateMutability": "view",
      "type": "function"
    },
    {
      "constant": true,
      "inputs": [],
      "name": "getBurnTimeLimit",
      "outputs": [
        {
          "name": "",
          "type": "uint256"
        }
      ],
      "payable": false,
      "stateMutability": "view",
      "type": "function"
    },
    {
      "constant": true,
      "inputs": [
        {
          "name": "optionsId",
          "type": "uint256"
        },
        {
          "name": "amount",
          "type": "uint256"
        }
      ],
      "name": "getExerciseWorth",
      "outputs": [
        {
          "name": "",
          "type": "uint256"
        }
      ],
      "payable": false,
      "stateMutability": "view",
      "type": "function"
    },
    {
      "constant": true,
      "inputs": [
        {
          "name": "optionsId",
          "type": "uint256"
        }
      ],
      "name": "getOptionsLimitTimeById",
      "outputs": [
        {
          "name": "",
          "type": "uint256"
        }
      ],
      "payable": false,
      "stateMutability": "view",
      "type": "function"
    },
    {
      "constant": false,
      "inputs": [],
      "name": "renounceOwnership",
      "outputs": [],
      "payable": false,
      "stateMutability": "nonpayable",
      "type": "function"
    },
    {
      "constant": true,
      "inputs": [
        {
          "name": "expiration",
          "type": "uint256"
        }
      ],
      "name": "checkExpiration",
      "outputs": [],
      "payable": false,
      "stateMutability": "view",
      "type": "function"
    },
    {
      "constant": true,
      "inputs": [],
      "name": "getTotalOccupiedCollateral",
      "outputs": [
        {
          "name": "",
          "type": "uint256"
        }
      ],
      "payable": false,
      "stateMutability": "view",
      "type": "function"
    },
    {
      "constant": false,
      "inputs": [
        {
          "name": "expiration",
          "type": "uint256"
        }
      ],
      "name": "addExpiration",
      "outputs": [],
      "payable": false,
      "stateMutability": "nonpayable",
      "type": "function"
    },
    {
      "constant": false,
      "inputs": [
        {
          "name": "removeExpiration",
          "type": "uint256"
        }
      ],
      "name": "removeExpirationList",
      "outputs": [
        {
          "name": "",
          "type": "bool"
        }
      ],
      "payable": false,
      "stateMutability": "nonpayable",
      "type": "function"
    },
    {
      "constant": true,
      "inputs": [],
      "name": "owner",
      "outputs": [
        {
          "name": "",
          "type": "address"
        }
      ],
      "payable": false,
      "stateMutability": "view",
      "type": "function"
    },
    {
      "constant": true,
      "inputs": [],
      "name": "isOwner",
      "outputs": [
        {
          "name": "",
          "type": "bool"
        }
      ],
      "payable": false,
      "stateMutability": "view",
      "type": "function"
    },
    {
      "constant": true,
      "inputs": [],
      "name": "getExpirationList",
      "outputs": [
        {
          "name": "",
          "type": "uint256[]"
        }
      ],
      "payable": false,
      "stateMutability": "view",
      "type": "function"
    },
    {
      "constant": false,
      "inputs": [
        {
          "name": "addAddress",
          "type": "address"
        }
      ],
      "name": "addOperator",
      "outputs": [],
      "payable": false,
      "stateMutability": "nonpayable",
      "type": "function"
    },
    {
      "constant": true,
      "inputs": [
        {
          "name": "expiration",
          "type": "uint256"
        }
      ],
      "name": "isEligibleExpiration",
      "outputs": [
        {
          "name": "",
          "type": "bool"
        }
      ],
      "payable": false,
      "stateMutability": "view",
      "type": "function"
    },
    {
      "constant": false,
      "inputs": [
        {
          "name": "optionsPrice",
          "type": "address"
        }
      ],
      "name": "setOptionsPriceAddress",
      "outputs": [],
      "payable": false,
      "stateMutability": "nonpayable",
      "type": "function"
    },
    {
      "constant": false,
      "inputs": [
        {
          "name": "removeAddress",
          "type": "address"
        }
      ],
      "name": "removeOperator",
      "outputs": [
        {
          "name": "",
          "type": "bool"
        }
      ],
      "payable": false,
      "stateMutability": "nonpayable",
      "type": "function"
    },
    {
      "constant": false,
      "inputs": [
        {
          "name": "underlying",
          "type": "uint32"
        }
      ],
      "name": "addUnderlyingAsset",
      "outputs": [],
      "payable": false,
      "stateMutability": "nonpayable",
      "type": "function"
    },
    {
      "constant": true,
      "inputs": [],
      "name": "getOracleAddress",
      "outputs": [
        {
          "name": "",
          "type": "address"
        }
      ],
      "payable": false,
      "stateMutability": "view",
      "type": "function"
    },
    {
      "constant": true,
      "inputs": [],
      "name": "getOptionInfoLength",
      "outputs": [
        {
          "name": "",
          "type": "uint256"
        }
      ],
      "payable": false,
      "stateMutability": "view",
      "type": "function"
    },
    {
      "constant": false,
      "inputs": [
        {
          "name": "timeLimit",
          "type": "uint256"
        }
      ],
      "name": "setBurnTimeLimit",
      "outputs": [],
      "payable": false,
      "stateMutability": "nonpayable",
      "type": "function"
    },
    {
      "constant": false,
      "inputs": [
        {
          "name": "managerAddress",
          "type": "address"
        }
      ],
      "name": "setManager",
      "outputs": [],
      "payable": false,
      "stateMutability": "nonpayable",
      "type": "function"
    },
    {
      "constant": true,
      "inputs": [],
      "name": "getManager",
      "outputs": [
        {
          "name": "",
          "type": "address"
        }
      ],
      "payable": false,
      "stateMutability": "view",
      "type": "function"
    },
    {
      "constant": false,
      "inputs": [
        {
          "name": "removeUnderlying",
          "type": "uint32"
        }
      ],
      "name": "removeUnderlyingAssets",
      "outputs": [
        {
          "name": "",
          "type": "bool"
        }
      ],
      "payable": false,
      "stateMutability": "nonpayable",
      "type": "function"
    },
    {
      "constant": true,
      "inputs": [
        {
          "name": "underlying",
          "type": "uint32"
        }
      ],
      "name": "isEligibleUnderlyingAsset",
      "outputs": [
        {
          "name": "",
          "type": "bool"
        }
      ],
      "payable": false,
      "stateMutability": "view",
      "type": "function"
    },
    {
      "constant": false,
      "inputs": [
        {
          "name": "index",
          "type": "uint256"
        },
        {
          "name": "addAddress",
          "type": "address"
        }
      ],
      "name": "setOperator",
      "outputs": [],
      "payable": false,
      "stateMutability": "nonpayable",
      "type": "function"
    },
    {
      "constant": true,
      "inputs": [
        {
          "name": "user",
          "type": "address"
        }
      ],
      "name": "getUserOptionsID",
      "outputs": [
        {
          "name": "",
          "type": "uint256[]"
        }
      ],
      "payable": false,
      "stateMutability": "view",
      "type": "function"
    },
    {
      "constant": true,
      "inputs": [],
      "name": "getOperator",
      "outputs": [
        {
          "name": "",
          "type": "address[]"
        }
      ],
      "payable": false,
      "stateMutability": "view",
      "type": "function"
    },
    {
      "constant": true,
      "inputs": [
        {
          "name": "underlying",
          "type": "uint32"
        }
      ],
      "name": "checkUnderlyingAsset",
      "outputs": [],
      "payable": false,
      "stateMutability": "view",
      "type": "function"
    },
    {
      "constant": false,
      "inputs": [
        {
          "name": "newOwner",
          "type": "address"
        }
      ],
      "name": "transferOwnership",
      "outputs": [],
      "payable": false,
      "stateMutability": "nonpayable",
      "type": "function"
    },
    {
      "constant": false,
      "inputs": [],
      "name": "setOccupiedCollateral",
      "outputs": [],
      "payable": false,
      "stateMutability": "nonpayable",
      "type": "function"
    },
    {
      "constant": true,
      "inputs": [
        {
          "name": "user",
          "type": "address"
        },
        {
          "name": "from",
          "type": "uint256"
        },
        {
          "name": "size",
          "type": "uint256"
        }
      ],
      "name": "getUserOptionsID",
      "outputs": [
        {
          "name": "",
          "type": "uint256[]"
        }
      ],
      "payable": false,
      "stateMutability": "view",
      "type": "function"
    },
    {
      "anonymous": false,
      "inputs": [
        {
          "indexed": true,
          "name": "owner",
          "type": "address"
        },
        {
          "indexed": true,
          "name": "optionID",
          "type": "uint256"
        },
        {
          "indexed": false,
          "name": "optType",
          "type": "uint8"
        },
        {
          "indexed": false,
          "name": "underlying",
          "type": "uint32"
        },
        {
          "indexed": false,
          "name": "expiration",
          "type": "uint256"
        },
        {
          "indexed": false,
          "name": "strikePrice",
          "type": "uint256"
        },
        {
          "indexed": false,
          "name": "amount",
          "type": "uint256"
        }
      ],
      "name": "CreateOption",
      "type": "event"
    },
    {
      "anonymous": false,
      "inputs": [
        {
          "indexed": true,
          "name": "owner",
          "type": "address"
        },
        {
          "indexed": true,
          "name": "optionID",
          "type": "uint256"
        },
        {
          "indexed": false,
          "name": "amount",
          "type": "uint256"
        }
      ],
      "name": "BurnOption",
      "type": "event"
    },
    {
      "anonymous": false,
      "inputs": [
        {
          "indexed": false,
          "name": "value1",
          "type": "uint256"
        },
        {
          "indexed": false,
          "name": "value2",
          "type": "uint256"
        },
        {
          "indexed": false,
          "name": "value3",
          "type": "uint256"
        }
      ],
      "name": "DebugEvent",
      "type": "event"
    },
    {
      "anonymous": false,
      "inputs": [
        {
          "indexed": true,
          "name": "previousOwner",
          "type": "address"
        },
        {
          "indexed": true,
          "name": "newOwner",
          "type": "address"
        }
      ],
      "name": "OwnershipTransferred",
      "type": "event"
    },
    {
      "constant": true,
      "inputs": [
        {
          "name": "whiteList",
          "type": "address[]"
        }
      ],
      "name": "getNetWrothCalInfo",
      "outputs": [
        {
          "name": "",
          "type": "uint256"
        },
        {
          "name": "",
          "type": "int256[]"
        }
      ],
      "payable": false,
      "stateMutability": "view",
      "type": "function"
    },
    {
      "constant": true,
      "inputs": [
        {
          "name": "settlement",
          "type": "address"
        }
      ],
      "name": "getNetWrothLatestWorth",
      "outputs": [
        {
          "name": "",
          "type": "int256"
        }
      ],
      "payable": false,
      "stateMutability": "view",
      "type": "function"
    },
    {
      "constant": false,
      "inputs": [
        {
          "name": "newFirstOption",
          "type": "uint256"
        },
        {
          "name": "latestNetWorth",
          "type": "int256[]"
        },
        {
          "name": "whiteList",
          "type": "address[]"
        }
      ],
      "name": "setSharedState",
      "outputs": [],
      "payable": false,
      "stateMutability": "nonpayable",
      "type": "function"
    },
    {
      "constant": true,
      "inputs": [
        {
          "name": "lastOption",
          "type": "uint256"
        },
        {
          "name": "begin",
          "type": "uint256"
        },
        {
          "name": "end",
          "type": "uint256"
        },
        {
          "name": "whiteList",
          "type": "address[]"
        }
      ],
      "name": "calRangeSharedPayment",
      "outputs": [
        {
          "name": "",
          "type": "uint256[]"
        },
        {
          "name": "",
          "type": "uint256"
        },
        {
          "name": "",
          "type": "bool"
        }
      ],
      "payable": false,
      "stateMutability": "view",
      "type": "function"
    },
    {
      "constant": true,
      "inputs": [
        {
          "name": "begin",
          "type": "uint256"
        },
        {
          "name": "end",
          "type": "uint256"
        },
        {
          "name": "whiteList",
          "type": "address[]"
        }
      ],
      "name": "calculateExpiredPayment",
      "outputs": [
        {
          "name": "",
          "type": "uint256[]"
        }
      ],
      "payable": false,
      "stateMutability": "view",
      "type": "function"
    },
    {
      "constant": true,
      "inputs": [
        {
          "name": "lastOption",
          "type": "uint256"
        },
        {
          "name": "begin",
          "type": "uint256"
        },
        {
          "name": "end",
          "type": "uint256"
        },
        {
          "name": "whiteList",
          "type": "address[]"
        }
      ],
      "name": "calculatePhaseOptionsFall",
      "outputs": [
        {
          "name": "",
          "type": "int256[]"
        }
      ],
      "payable": false,
      "stateMutability": "view",
      "type": "function"
    }
  ],
  "bytecode": "0x60806040819052610e1060095560008054600160a060020a0319163317808255600160a060020a0316917f8be0079c531659141344cd1fd0a4f28419497f9722a3daafe3b4186f6b6457e0908290a36040805160e0810182526201518081526203f480602082015262093a8091810191909152620d2f0060608201526213c680608082015262278d0060a08201526276a70060c0820152620000a6906008906007620000d2565b50604080518082019091526001808252600260208301819052620000cb929062000129565b506200021c565b82805482825590600052602060002090810192821562000117579160200282015b8281111562000117578251829062ffffff16905591602001919060010190620000f3565b5062000125929150620001d8565b5090565b82805482825590600052602060002090600701600890048101928215620001ca5791602002820160005b838211156200019657835183826101000a81548163ffffffff021916908360ff160217905550926020019260040160208160030104928301926001030262000153565b8015620001c85782816101000a81549063ffffffff021916905560040160208160030104928301926001030262000196565b505b5062000125929150620001f8565b620001f591905b80821115620001255760008155600101620001df565b90565b620001f591905b808211156200012557805463ffffffff19168155600101620001ff565b613b7c806200022c6000396000f3006080604052600436106102425763ffffffff60e060020a6000350416630438d490811461024757806309057622146103ca5780630c372571146103f857806312039cc2146104365780632415e010146104565780632967eafe146104e957806332ab5c201461050a578063354af360146105d45780633582d789146106295780633ad2fb571461068e57806342e5479d146106af57806343674c3a146106e057806345e19fdd1461074457806348ee201d146107a05780634c69c00f146107b8578063597ce900146107d95780635ca4b73b1461081757806364ed30171461082c57806367b8ceb9146108535780636a43c05e1461086e5780636d84e2e31461091e578063715018a614610936578063723931ca1461094b57806373a3d424146109635780637cfff2d8146109785780637e1bcb76146109905780637e838fa3146109b15780638da5cb5b146109dd5780638f32d59b146109f25780639052d5f814610a075780639870d7fe14610a1c5780639ef975d214610a3d578063a093e2d014610a55578063ac8a584a14610a76578063afec82fc14610a97578063b18b78dd14610ab5578063bec3107f14610aca578063c0c5fea714610adf578063c5acbe1514610b3d578063d0ebdbe714610b55578063d500958414610b76578063d6d1401214610b8b578063db6ad2bd14610ba9578063e7a1c1c014610bc7578063e7c5681514610beb578063e7f43c6814610c0c578063ee29c94a14610c21578063f2fde38b14610c3f578063f504e2f014610c60578063f7de192314610c75575b600080fd5b34801561025357600080fd5b50610262600435602435610c9c565b60405180806020018060200180602001806020018060200186810386528b818151815260200191508051906020019060200280838360005b838110156102b257818101518382015260200161029a565b5050505090500186810385528a818151815260200191508051906020019060200280838360005b838110156102f15781810151838201526020016102d9565b50505050905001868103845289818151815260200191508051906020019060200280838360005b83811015610330578181015183820152602001610318565b50505050905001868103835288818151815260200191508051906020019060200280838360005b8381101561036f578181015183820152602001610357565b50505050905001868103825287818151815260200191508051906020019060200280838360005b838110156103ae578181015183820152602001610396565b505050509050019a505050505050505050505060405180910390f35b3480156103d657600080fd5b506103df610ee6565b6040805192835260208301919091528051918290030190f35b34801561040457600080fd5b50610416600435602435604435610ef0565b604080519384526020840192909252151582820152519081900360600190f35b34801561044257600080fd5b50610454600435602435604435610f6b565b005b34801561046257600080fd5b5060408051602060046024803582810135848102808701860190975280865261045496843596369660449591949091019291829185019084908082843750506040805187358901803560208181028481018201909552818452989b9a9989019892975090820195509350839250850190849080828437509497506110429650505050505050565b3480156104f557600080fd5b50610454600160a060020a0360043516611150565b34801561051657600080fd5b50604080516064356004818101356020818102858101820190965281855261056e9583359560248035966044359636969095608495929093019290918291850190849080828437509497506111be9650505050505050565b604051808060200184815260200183151515158152602001828103825285818151815260200191508051906020019060200280838360005b838110156105be5781810151838201526020016105a6565b5050505090500194505050505060405180910390f35b3480156105e057600080fd5b50604080516020600480358082013583810280860185019096528085526102629536959394602494938501929182918501908490808284375094975061121f9650505050505050565b34801561063557600080fd5b5061063e611438565b60408051602080825283518183015283519192839290830191858101910280838360005b8381101561067a578181015183820152602001610662565b505050509050019250505060405180910390f35b34801561069a57600080fd5b5061045460043563ffffffff602435166114bd565b3480156106bb57600080fd5b506106c4611529565b60408051600160a060020a039092168252519081900360200190f35b3480156106ec57600080fd5b50604080516064356004818101356020818102858101820190965281855261063e9583359560248035966044359636969095608495929093019290918291850190849080828437509497506115389650505050505050565b34801561075057600080fd5b50610759611694565b60408051978852600160a060020a03909616602088015260ff9094168686015263ffffffff9092166060860152608085015260a084015260c0830152519081900360e00190f35b3480156107ac57600080fd5b5061075960043561177f565b3480156107c457600080fd5b50610454600160a060020a03600435166117f3565b3480156107e557600080fd5b506107f4600435602435611861565b60408051600160a060020a03909316835260208301919091528051918290030190f35b34801561082357600080fd5b506106c46118c1565b34801561083857600080fd5b506108416118d0565b60408051918252519081900360200190f35b34801561085f57600080fd5b506108416004356024356118d6565b34801561087a57600080fd5b50604080516020600480358082013583810280860185019096528085526108c395369593946024949385019291829185019084908082843750949750611a569650505050505050565b6040518083815260200180602001828103825283818151815260200191508051906020019060200280838360005b838110156109095781810151838201526020016108f1565b50505050905001935050505060405180910390f35b34801561092a57600080fd5b50610841600435611b09565b34801561094257600080fd5b50610454611b91565b34801561095757600080fd5b50610454600435611c27565b34801561096f57600080fd5b50610841611caf565b34801561098457600080fd5b50610454600435611d01565b34801561099c57600080fd5b50610841600160a060020a0360043516611d58565b3480156109bd57600080fd5b506109c9600435611d73565b604080519115158252519081900360200190f35b3480156109e957600080fd5b506106c4611dd2565b3480156109fe57600080fd5b506109c9611de1565b348015610a1357600080fd5b5061063e611df2565b348015610a2857600080fd5b50610454600160a060020a0360043516611e49565b348015610a4957600080fd5b506109c9600435611ea0565b348015610a6157600080fd5b50610454600160a060020a0360043516611efc565b348015610a8257600080fd5b506109c9600160a060020a0360043516611f6a565b348015610aa357600080fd5b5061045463ffffffff60043516611fc3565b348015610ac157600080fd5b506106c461201a565b348015610ad657600080fd5b50610841612029565b348015610aeb57600080fd5b50604080516020600460443581810135838102808601850190965280855261063e95833595602480359636969560649593949201929182918501908490808284375094975061202f9650505050505050565b348015610b4957600080fd5b5061045460043561213d565b348015610b6157600080fd5b50610454600160a060020a036004351661218e565b348015610b8257600080fd5b506106c46121fc565b348015610b9757600080fd5b506109c963ffffffff6004351661220b565b348015610bb557600080fd5b506109c963ffffffff60043516612264565b348015610bd357600080fd5b50610454600435600160a060020a03602435166122ec565b348015610bf757600080fd5b5061063e600160a060020a036004351661237a565b348015610c1857600080fd5b5061063e6123e6565b348015610c2d57600080fd5b5061045463ffffffff60043516612447565b348015610c4b57600080fd5b50610454600160a060020a03600435166124cd565b348015610c6c57600080fd5b50610454612522565b348015610c8157600080fd5b5061063e600160a060020a0360043516602435604435612617565b6060806060806060806060806060806000806005805490508d8f011115610cd357600554610cd0908f63ffffffff6126fe16565b9c505b60008d1115610ed5578c604051908082528060200260200182016040528015610d06578160200160208202803883390190505b5096508c604051908082528060200260200182016040528015610d33578160200160208202803883390190505b5095508c604051908082528060200260200182016040528015610d60578160200160208202803883390190505b5094508c604051908082528060200260200182016040528015610d8d578160200160208202803883390190505b5093508c604051908082528060200260200182016040528015610dba578160200160208202803883390190505b509250600091505b8c821015610ec557600580548f8401908110610dda57fe5b906000526020600020906005020190508060000160089054906101000a9004600160a060020a03168783815181101515610e1057fe5b600160a060020a03929092166020928302919091019091015280546001820154875160e060020a90920460ff1663ffffffff9182166201000002011690879084908110610e5957fe5b6020908102909101015260028101548551869084908110610e7657fe5b6020908102909101015260038101548451859084908110610e9357fe5b6020908102909101015260048101548351849084908110610eb057fe5b60209081029091010152600190910190610dc2565b86868686869b509b509b509b509b505b505050505050509295509295909350565b600b54600d549091565b6000806000806000600b54871015610f0857600b5496505b878710610f1e5760009450849350839250610f60565b87861115610f2e57879550610f47565b600b54861015610f475760009450849350839250610f60565b610f518787612747565b91509150818160019450945094505b505093509350939050565b600a5460009081108015610fa25750600a805433919083908110610f8b57fe5b600091825260209091200154600160a060020a0316145b151561101e576040805160e560020a62461bcd02815260206004820152603060248201527f4d616e6167657261626c653a2063616c6c6572206973206e6f7420746865206560448201527f6c696769626c65204f70657261746f7200000000000000000000000000000000606482015290519081900360840190fd5b600b5483111561102e57600b8390555b50600c9290925550600d8054919091039055565b6002546000908190600160a060020a031633146110cf576040805160e560020a62461bcd02815260206004820152602660248201527f4d616e6167657261626c653a2063616c6c6572206973206e6f7420746865204d60448201527f616e616765720000000000000000000000000000000000000000000000000000606482015290519081900360840190fd5b600f548511156110df57600f8590555b5050805160005b818110156111495783818151811015156110fc57fe5b9060200190602002015160106000858481518110151561111857fe5b6020908102909101810151600160a060020a03168252810191909152604001600020805490910190556001016110e6565b5050505050565b611158611de1565b151561119c576040805160e560020a62461bcd0281526020600482018190526024820152600080516020613b31833981519152604482015290519081900360640190fd5b60048054600160a060020a031916600160a060020a0392909216919091179055565b60606000806060600088881015806111d75750600f5487105b156111ed57909350600092508291508390611213565b888711156111f9578896505b611204888888612893565b91509150818160019450945094505b50509450945094915050565b6060806060806060600060608060608060606000808d51975087604051908082528060200260200182016040528015611262578160200160208202803883390190505b5096508760405190808252806020026020018201604052801561128f578160200160208202803883390190505b509550876040519080825280602002602001820160405280156112bc578160200160208202803883390190505b509450876040519080825280602002602001820160405280156112e9578160200160208202803883390190505b50935087604051908082528060200260200182016040528015611316578160200160208202803883390190505b509250600091505b87821015611424576113468e8381518110151561133757fe5b90602001906020020151612a0a565b80548851919250680100000000000000009004600160a060020a03169088908490811061136f57fe5b600160a060020a03929092166020928302919091019091015280546001820154875160e060020a90920460ff1663ffffffff91821662010000020116908790849081106113b857fe5b60209081029091010152600281015485518690849081106113d557fe5b60209081029091010152600381015484518590849081106113f257fe5b602090810290910101526004810154835184908490811061140f57fe5b6020908102909101015260019091019061131e565b50949c939b50919950975095509350505050565b606060018054806020026020016040519081016040528092919081815260200182805480156114b257602002820191906000526020600020906000905b82829054906101000a900463ffffffff1663ffffffff16815260200190600401906020826003010492830192600103820291508084116114755790505b505050505090505b90565b6114c681612264565b151561151c576040805160e560020a62461bcd02815260206004820152601f60248201527f756e6465726c79696e6720697320756e737570706f7274656420617373657400604482015290519081900360640190fd5b61152582611c27565b5050565b600454600160a060020a031690565b606080606060008088881015806115505750600f5487105b1561155a57611688565b88871115611566578896505b600f54881161157557600f5497505b61157d612a9a565b935061158b88888887612bbb565b925085519150600090505b81811015611684576003548651600160a060020a03909116906341976e09908890849081106115c157fe5b906020019060200201516040518263ffffffff1660e060020a0281526004018082600160a060020a0316600160a060020a03168152602001915050602060405180830381600087803b15801561161657600080fd5b505af115801561162a573d6000803e3d6000fd5b505050506040513d602081101561164057600080fd5b5051835184908390811061165057fe5b9060200190602002015181151561166357fe5b05838281518110151561167257fe5b60209081029091010152600101611596565b8294505b50505050949350505050565b600554600090819081908190819081908190818082116116fe576040805160e560020a62461bcd02815260206004820152601560248201527f6f7074696f6e73206c69737420697320656d7074790000000000000000000000604482015290519081900360640190fd5b60058054600019840190811061171057fe5b60009182526020909120600590910201805460018201546002830154600384015460049094015467ffffffffffffffff84169e680100000000000000008504600160a060020a03169e5060e060020a90940460ff169c5063ffffffff9092169a50985091965090945092505050565b60008060008060008060008061179489612a0a565b805460018201546002830154600384015460049094015467ffffffffffffffff84169e680100000000000000008504600160a060020a03169e5060e060020a90940460ff169c5063ffffffff9092169a50985091965090945092505050565b6117fb611de1565b151561183f576040805160e560020a62461bcd0281526020600482018190526024820152600080516020613b31833981519152604482015290519081900360640190fd5b60038054600160a060020a031916600160a060020a0392909216919091179055565b6000198201600090815260066020526040812060018101546002820154839291600160a060020a0316906118b590670de0b6b3a7640000906118a9908863ffffffff612d5916565b9063ffffffff612df816565b92509250509250929050565b600e54600160a060020a031690565b60095490565b60006118e0613a81565b6000806118ec86612a0a565b6040805160e081018252825467ffffffffffffffff81168252680100000000000000008104600160a060020a0316602083015260e060020a900460ff1691810191909152600182015463ffffffff16606082015260028201546080820152600382015460a082015260049091015460c0820152925061196a83612e3a565b6119748386612e95565b6003546060840151604080517fda66325700000000000000000000000000000000000000000000000000000000815263ffffffff909216600483015251600160a060020a039092169163da663257916024808201926020929091908290030181600087803b1580156119e557600080fd5b505af11580156119f9573d6000803e3d6000fd5b505050506040513d6020811015611a0f57600080fd5b5051604084015160a0850151919350611a289184612ef1565b9050801515611a3a5760009350611a4d565b611a4a818663ffffffff612d5916565b93505b50505092915050565b600060606000606060008551925082604051908082528060200260200182016040528015611a8e578160200160208202803883390190505b509150600090505b82811015611afb57601060008783815181101515611ab057fe5b90602001906020020151600160a060020a0316600160a060020a03168152602001908152602001600020548282815181101515611ae957fe5b60209081029091010152600101611a96565b50600f549590945092505050565b60008082118015611b1c57506005548211155b1515611b72576040805160e560020a62461bcd02815260206004820152601660248201527f6f7074696f6e206964206973206e6f7420657869737400000000000000000000604482015290519081900360640190fd5b506009546000198201600090815260066020526040902054015b919050565b611b99611de1565b1515611bdd576040805160e560020a62461bcd0281526020600482018190526024820152600080516020613b31833981519152604482015290519081900360640190fd5b60008054604051600160a060020a03909116907f8be0079c531659141344cd1fd0a4f28419497f9722a3daafe3b4186f6b6457e0908390a360008054600160a060020a0319169055565b611c3081611ea0565b1515611cac576040805160e560020a62461bcd02815260206004820152602160248201527f65787069726174696f6e2076616c7565206973206e6f7420737570706f72746560448201527f6400000000000000000000000000000000000000000000000000000000000000606482015290519081900360840190fd5b50565b6000806000600d54121515611cda57600d54600c54611cd39163ffffffff612f2616565b9150611cfd565b600d54600003905080600c541115611cf85780600c54039150611cfd565b600091505b5090565b611d09611de1565b1515611d4d576040805160e560020a62461bcd0281526020600482018190526024820152600080516020613b31833981519152604482015290519081900360640190fd5b611cac600882612f83565b600160a060020a031660009081526010602052604090205490565b6000611d7d611de1565b1515611dc1576040805160e560020a62461bcd0281526020600482018190526024820152600080516020613b31833981519152604482015290519081900360640190fd5b611dcc600883612ffa565b92915050565b600054600160a060020a031690565b600054600160a060020a0316331490565b606060088054806020026020016040519081016040528092919081815260200182805480156114b257602002820191906000526020600020905b815481526020019060010190808311611e2c575050505050905090565b611e51611de1565b1515611e95576040805160e560020a62461bcd0281526020600482018190526024820152600080516020613b31833981519152604482015290519081900360640190fd5b611cac600a826130a7565b6000611dcc6008805480602002602001604051908101604052809291908181526020018280548015611ef157602002820191906000526020600020905b815481526020019060010190808311611edd575b505050505083613141565b611f04611de1565b1515611f48576040805160e560020a62461bcd0281526020600482018190526024820152600080516020613b31833981519152604482015290519081900360640190fd5b600e8054600160a060020a031916600160a060020a0392909216919091179055565b6000611f74611de1565b1515611fb8576040805160e560020a62461bcd0281526020600482018190526024820152600080516020613b31833981519152604482015290519081900360640190fd5b611dcc600a83613180565b611fcb611de1565b151561200f576040805160e560020a62461bcd0281526020600482018190526024820152600080516020613b31833981519152604482015290519081900360640190fd5b611cac600182613257565b600354600160a060020a031690565b60055490565b6060806000806000808651604051908082528060200260200182016040528015612063578160200160208202803883390190505b5094505b8789101561213057600580548a90811061207d57fe5b600091825260208083208c8452600690915260409092206001810154600590920290920195509093506120ba908890600160a060020a0316613320565b91506120e3670de0b6b3a76400006118a986600401548660020154612d5990919063ffffffff16565b905061210d8186848151811015156120f757fe5b602090810290910101519063ffffffff612f2616565b858381518110151561211b57fe5b60209081029091010152600190980197612067565b5092979650505050505050565b612145611de1565b1515612189576040805160e560020a62461bcd0281526020600482018190526024820152600080516020613b31833981519152604482015290519081900360640190fd5b600955565b612196611de1565b15156121da576040805160e560020a62461bcd0281526020600482018190526024820152600080516020613b31833981519152604482015290519081900360640190fd5b60028054600160a060020a031916600160a060020a0392909216919091179055565b600254600160a060020a031690565b6000612215611de1565b1515612259576040805160e560020a62461bcd0281526020600482018190526024820152600080516020613b31833981519152604482015290519081900360640190fd5b611dcc60018361336d565b6000611dcc60018054806020026020016040519081016040528092919081815260200182805480156122e157602002820191906000526020600020906000905b82829054906101000a900463ffffffff1663ffffffff16815260200190600401906020826003010492830192600103820291508084116122a45790505b505050505083613464565b6122f4611de1565b1515612338576040805160e560020a62461bcd0281526020600482018190526024820152600080516020613b31833981519152604482015290519081900360640190fd5b80600a8381548110151561234857fe5b9060005260206000200160006101000a815481600160a060020a030219169083600160a060020a031602179055505050565b600160a060020a0381166000908152600760209081526040918290208054835181840281018401909452808452606093928301828280156123da57602002820191906000526020600020905b8154815260200190600101908083116123c6575b50505050509050919050565b6060600a8054806020026020016040519081016040528092919081815260200182805480156114b257602002820191906000526020600020905b8154600160a060020a03168152600190910190602001808311612420575050505050905090565b611cac60018054806020026020016040519081016040528092919081815260200182805480156124c257602002820191906000526020600020906000905b82829054906101000a900463ffffffff1663ffffffff16815260200190600401906020826003010492830192600103820291508084116124855790505b5050505050826134af565b6124d5611de1565b1515612519576040805160e560020a62461bcd0281526020600482018190526024820152600080516020613b31833981519152604482015290519081900360640190fd5b611cac8161350f565b60008060008060008080600a805490501180156125625750600a80543391908390811061254b57fe5b600091825260209091200154600160a060020a0316145b15156125de576040805160e560020a62461bcd02815260206004820152603060248201527f4d616e6167657261626c653a2063616c6c6572206973206e6f7420746865206560448201527f6c696769626c65204f70657261746f7200000000000000000000000000000000606482015290519081900360840190fd5b600d54955060058054905094506125f885600b5487610ef0565b935093509350811561260f5761260f848488610f6b565b505050505050565b606080600083604051908082528060200260200182016040528015612646578160200160208202803883390190505b50600160a060020a038716600090815260076020526040902054909250858501111561269857600160a060020a038616600090815260076020526040902054612695908663ffffffff6126fe16565b93505b5060005b838110156126f557600160a060020a038616600090815260076020526040902080548683019081106126ca57fe5b906000526020600020015482828151811015156126e357fe5b6020908102909101015260010161269c565b50949350505050565b600061274083836040805190810160405280601e81526020017f536166654d6174683a207375627472616374696f6e206f766572666c6f7700008152506135f0565b9392505050565b60008060006060600080600061276089600b548a61368d565b909950945061276d612a9a565b9350600092505b87891015612884576127ad60058a81548110151561278e57fe5b600091825260209091206001600590920201015463ffffffff1661370e565b915061286560058a8154811015156127c157fe5b60009182526020918290206040805160e081018252600593909302909101805467ffffffffffffffff81168452680100000000000000008104600160a060020a03169484019490945260e060020a90930460ff1690820152600182015463ffffffff16606082015260028201546080820152600382015460a082015260049091015460c0820152855186908590811061285657fe5b90602001906020020151613796565b9050612877838263ffffffff612f2616565b6001909901989250612774565b50909792965091945050505050565b606060006060600080600080600088516040519080825280602002602001820160405280156128cc578160200160208202803883390190505b5095506128dc8b600f548c61368d565b909b5094505b898b10156129f957600580548c9081106128f857fe5b90600052602060002090600502019350600660008c815260200190815260200160002092506129508360030154856003015486600201548660050154876006015489600001601c9054906101000a900460ff166137d7565b915082600401548210156129ee576004830154600184015492900391612980908a90600160a060020a0316613320565b90506129c1670de0b6b3a76400006118a985600401546118a988600401546129b5888a60020154612d5990919063ffffffff16565b9063ffffffff612d5916565b91506129d58287838151811015156120f757fe5b86828151811015156129e357fe5b602090810290910101525b6001909a01996128e2565b509399929850919650505050505050565b60008082118015612a1d57506005548211155b1515612a73576040805160e560020a62461bcd02815260206004820152601660248201527f6f7074696f6e206964206973206e6f7420657869737400000000000000000000604482015290519081900360640190fd5b600580546000198401908110612a8557fe5b90600052602060002090600502019050919050565b600154604080518281526020808402820101909152606091908290600090838015612acf578160200160208202803883390190505b509150600090505b82811015612bb45760035460018054600160a060020a039092169163da663257919084908110612b0357fe5b90600052602060002090600891828204019190066004029054906101000a900463ffffffff166040518263ffffffff1660e060020a028152600401808263ffffffff168152602001915050602060405180830381600087803b158015612b6857600080fd5b505af1158015612b7c573d6000803e3d6000fd5b505050506040513d6020811015612b9257600080fd5b50518251839083908110612ba257fe5b60209081029091010152600101612ad7565b5092915050565b6060806000806000808751604051908082528060200260200182016040528015612bef578160200160208202803883390190505b5094505b888a1015612d4b57600580548b908110612c0957fe5b906000526020600020906005020193504284600201541080612c2d57506004840154155b15612c3757612d40565b6001840154612c4b9063ffffffff1661370e565b6040805160e081018252865467ffffffffffffffff81168252680100000000000000008104600160a060020a0316602083015260e060020a900460ff1691810191909152600186015463ffffffff16606082015260028601546080820152600386015460a0820152600486015460c082018190528951929350612ce3928a9085908110612cd457fe5b906020019060200201516138af565b92508215612d405760008a81526006602052604090206001810154909250612d15908990600160a060020a0316613320565b9050612d20836138e6565b8582815181101515612d2e57fe5b60209081029091010180519190910390525b600190990198612bf3565b509298975050505050505050565b600080831515612d6c5760009150612bb4565b50828202828482811515612d7c57fe5b0414612740576040805160e560020a62461bcd02815260206004820152602160248201527f536166654d6174683a206d756c7469706c69636174696f6e206f766572666c6f60448201527f7700000000000000000000000000000000000000000000000000000000000000606482015290519081900360840190fd5b600061274083836040805190810160405280601a81526020017f536166654d6174683a206469766973696f6e206279207a65726f00000000000081525061395f565b60808101514210611cac576040805160e560020a62461bcd02815260206004820152601160248201527f6f7074696f6e2069732065787069726564000000000000000000000000000000604482015290519081900360640190fd5b60c0820151811115611525576040805160e560020a62461bcd02815260206004820152601d60248201527f6f7074696f6e20616d6f756e7420697320696e73756666696369656e74000000604482015290519081900360640190fd5b600060ff8416158284111415612f0957506000612740565b60ff841615612f1a57818303612f1e565b8282035b949350505050565b600082820183811015612740576040805160e560020a62461bcd02815260206004820152601b60248201527f536166654d6174683a206164646974696f6e206f766572666c6f770000000000604482015290519081900360640190fd5b612fdc82805480602002602001604051908101604052809291908181526020018280548015612fd157602002820191906000526020600020905b815481526020019060010190808311612fbd575b505050505082613141565b15156115255781546001810183556000928352602090922090910155565b8154600090815b818110156130365783858281548110151561301857fe5b9060005260206000200154141561302e57613036565b600101613001565b8181101561309a576000198201811461308057846001830381548110151561305a57fe5b9060005260206000200154858281548110151561307357fe5b6000918252602090912001555b8454613090866000198301613abd565b506001925061309f565b600092505b505092915050565b61310a828054806020026020016040519081016040528092919081815260200182805480156130ff57602002820191906000526020600020905b8154600160a060020a031681526001909101906020018083116130e1575b5050505050826139cb565b1515611525578154600181018355600083815260209020018054600160a060020a038316600160a060020a03199091161790555050565b8151600090815b8181101561309a5783858281518110151561315f57fe5b906020019060200201511415613178576001925061309f565b600101613148565b8154600090815b818110156131cf5783600160a060020a031685828154811015156131a757fe5b600091825260209091200154600160a060020a031614156131c7576131cf565b600101613187565b8181101561309a57600019820181146130805784600183038154811015156131f357fe5b6000918252602090912001548554600160a060020a039091169086908390811061321957fe5b9060005260206000200160006101000a815481600160a060020a030219169083600160a060020a031602179055508454613090866000198301613abd565b6132dc828054806020026020016040519081016040528092919081815260200182805480156132d157602002820191906000526020600020906000905b82829054906101000a900463ffffffff1663ffffffff16815260200190600401906020826003010492830192600103820291508084116132945790505b505050505082613464565b1515611525578154600181018355600092835260209092206008830401805460079093166004026101000a63ffffffff818102199094169290931692909202179055565b8151600090815b81811015612f1e5783600160a060020a0316858281518110151561334757fe5b90602001906020020151600160a060020a0316141561336557612f1e565b600101613327565b8154600090815b818110156133c8578363ffffffff16858281548110151561339157fe5b6000918252602090912060088204015460079091166004026101000a900463ffffffff1614156133c0576133c8565b600101613374565b8181101561309a57600019820181146134545784600183038154811015156133ec57fe5b90600052602060002090600891828204019190066004029054906101000a900463ffffffff16858281548110151561342057fe5b90600052602060002090600891828204019190066004026101000a81548163ffffffff021916908363ffffffff1602179055505b8454613090866000198301613ae6565b8151600090815b8181101561309a578363ffffffff16858281518110151561348857fe5b9060200190602002015163ffffffff1614156134a7576001925061309f565b60010161346b565b6134b98282613464565b1515611525576040805160e560020a62461bcd02815260206004820152601f60248201527f77686974654c6973743a207573696e6720696e76616c69642075696e74333200604482015290519081900360640190fd5b600160a060020a0381161515613595576040805160e560020a62461bcd02815260206004820152602660248201527f4f776e61626c653a206e6577206f776e657220697320746865207a65726f206160448201527f6464726573730000000000000000000000000000000000000000000000000000606482015290519081900360840190fd5b60008054604051600160a060020a03808516939216917f8be0079c531659141344cd1fd0a4f28419497f9722a3daafe3b4186f6b6457e091a360008054600160a060020a031916600160a060020a0392909216919091179055565b60008082858511156136835760405160e560020a62461bcd0281526004018080602001828103825283818151815260200191508051906020019080838360005b83811015613648578181015183820152602001613630565b50505050905090810190601f1680156136755780820380516001836020036101000a031916815260200191505b509250505060405180910390fd5b5050509103919050565b6000808381818711156136a557868293509350613704565b8196505b848710156136fd5760058054889081106136bf57fe5b9060005260206000209060050201905042816002015410806136e357506004810154155b156136ed576136f2565b6136fd565b6001909601956136a9565b8687935093505b5050935093915050565b6000611dcc600180548060200260200160405190810160405280929190818152602001828054801561378b57602002820191906000526020600020906000905b82829054906101000a900463ffffffff1663ffffffff168152602001906004019060208260030104928301926001038202915080841161374e5790505b505050505083613a1c565b6000804284608001511115806137ae575060c0840151155b156137bc5760009150612bb4565b612f1e8460c001516129b586604001518760a0015187613a63565b6000428511156138a157600e54604080517f055ef6ab000000000000000000000000000000000000000000000000000000008152600481018a9052602481018990524288036044820152606481018790526084810186905260ff851660a48201529051600160a060020a039092169163055ef6ab9160c4808201926020929091908290030181600087803b15801561386e57600080fd5b505af1158015613882573d6000803e3d6000fd5b505050506040513d602081101561389857600080fd5b505190506138a5565b5060005b9695505050505050565b60004284608001511115806138c2575082155b156138cf57506000612740565b612f1e836129b586604001518760a0015186612ef1565b60007f7fffffffffffffffffffffffffffffffffffffffffffffffffffffffffffffff8211611b8c576040805160e560020a62461bcd02815260206004820152601b60248201527f536166654d6174683a20746f496e74323536206f766572666c6f770000000000604482015290519081900360640190fd5b600080828185116139b55760405160e560020a62461bcd02815260040180806020018281038252838181518152602001915080519060200190808383600083811015613648578181015183820152602001613630565b5083858115156139c157fe5b0495945050505050565b8151600090815b8181101561309a5783600160a060020a031685828151811015156139f257fe5b90602001906020020151600160a060020a03161415613a14576001925061309f565b6001016139d2565b8151600090815b81811015612f1e578363ffffffff168582815181101515613a4057fe5b9060200190602002015163ffffffff161415613a5b57612f1e565b600101613a23565b600060ff8416158284111415613a7a575081612740565b5080612740565b6040805160e081018252600080825260208201819052918101829052606081018290526080810182905260a0810182905260c081019190915290565b815481835581811115613ae157600083815260209020613ae1918101908301613b16565b505050565b815481835581811115613ae1576007016008900481600701600890048360005260206000209182019101613ae191905b6114ba91905b80821115611cfd5760008155600101613b1c56004f776e61626c653a2063616c6c6572206973206e6f7420746865206f776e6572a165627a7a7230582059eaeca2e15ca1a52933e03e550e7acfdf754e3db4f7c28c809b16a61833d54d0029",
  "source": "pragma solidity ^0.4.26;\r\nimport \"./OptionsBase.sol\";\r\nimport \"./modules/tuple.sol\";\r\nimport \"./OptionsOccupiedCal.sol\";\r\nimport \"./interfaces/IOptionsPrice.sol\";\r\ncontract OptionsNetWorthCal is OptionsOccupiedCal,ImportOptionsPrice {\r\n\r\n    uint256 private firstOption;    //firstOption,lastOption,lastBurn\r\n    mapping(address=>int256) private optionsLatestNetWorth;\r\n    \r\n    function getNetWrothCalInfo(address[] memory whiteList)public view returns(uint256,int256[]){\r\n        uint256 len = whiteList.length;\r\n        int256[] memory latestNetWorth = new int256[](len);\r\n            for (uint256 i = 0;i<len;i++){\r\n            latestNetWorth[i] = optionsLatestNetWorth[whiteList[i]];\r\n        }\r\n        return (firstOption,latestNetWorth);\r\n    }\r\n    function getNetWrothLatestWorth(address settlement)public view returns(int256){\r\n        return optionsLatestNetWorth[settlement];\r\n    }\r\n    function setSharedState(uint256 newFirstOption,int256[] latestNetWorth,address[] memory whiteList) public onlyManager{\r\n        if (newFirstOption > firstOption){\r\n            firstOption = newFirstOption;\r\n        }\r\n        uint256 len = whiteList.length;\r\n        for (uint256 i = 0;i<len;i++){\r\n            optionsLatestNetWorth[whiteList[i]] += latestNetWorth[i];\r\n        }\r\n    }\r\n    function calRangeSharedPayment(uint256 lastOption,uint256 begin,uint256 end,address[] memory whiteList)\r\n            public view returns(uint256[],uint256,bool){\r\n        if (begin>=lastOption || end < firstOption){\r\n            return(sharedBalances,0,false);\r\n        }\r\n        if (end>lastOption) {\r\n            end = lastOption;\r\n        }\r\n        (uint256[] memory sharedBalances,uint256 _firstOption) = \r\n            _calculateSharedPayment(begin,end,whiteList);\r\n        return (sharedBalances,_firstOption,true);\r\n    }\r\n    function _calculateSharedPayment(uint256 begin,uint256 end,address[] memory whiteList)\r\n            internal view returns(uint256[],uint256){\r\n        uint256[] memory totalSharedPayment = new uint256[](whiteList.length);\r\n        uint256 newFirstOption;\r\n        (begin,newFirstOption) = getFirstOption(begin,firstOption,end); \r\n        for (;begin<end;begin++){\r\n            OptionsInfo storage info = allOptions[begin];\r\n            OptionsInfoEx storage optionEx = optionExtraMap[begin];\r\n            uint256 timeValue = _calculateCurrentPrice(optionEx.underlyingPrice,info.strikePrice,info.expiration,\r\n                optionEx.ivNumerator,optionEx.ivDenominator,info.optType);\r\n            if (timeValue<optionEx.fullPrice){\r\n                timeValue = optionEx.fullPrice - timeValue;\r\n                uint256 index = whiteListAddress._getEligibleIndexAddress(whiteList,optionEx.settlement);\r\n                timeValue = optionEx.tokenTimePrice.mul(timeValue).mul(info.amount).div(optionEx.fullPrice).div(calDecimals);\r\n                totalSharedPayment[index] = totalSharedPayment[index].add(timeValue);\r\n            }\r\n        }\r\n        return (totalSharedPayment,newFirstOption);\r\n    }\r\n    function calculateExpiredPayment(uint256 begin,uint256 end,address[] memory whiteList)public view returns(uint256[]){\r\n        uint256[] memory totalExpiredPayment = new uint256[](whiteList.length);\r\n        for (;begin<end;begin++){\r\n            OptionsInfo storage info = allOptions[begin];\r\n            OptionsInfoEx storage optionEx = optionExtraMap[begin];\r\n            uint256 index = whiteListAddress._getEligibleIndexAddress(whiteList,optionEx.settlement);\r\n            uint256 timeValue = optionEx.tokenTimePrice.mul(info.amount).div(calDecimals);\r\n            totalExpiredPayment[index] = totalExpiredPayment[index].add(timeValue);\r\n        }\r\n        return totalExpiredPayment;\r\n    }\r\n    function calculatePhaseOptionsFall(uint256 lastOption,uint256 begin,uint256 end,address[] memory whiteList) public view returns(int256[]){\r\n        if (begin>=lastOption || end < firstOption){\r\n            return;\r\n        }\r\n        if (end>lastOption) {\r\n            end = lastOption;\r\n        }\r\n        if (begin <= firstOption) {\r\n            begin = firstOption;\r\n        }\r\n        uint256[] memory prices = getUnderlyingPrices();\r\n        int256[] memory OptionsFallBalances = _calRangeOptionsFall(begin,end,whiteList,prices);\r\n        uint256 whiteListLen = whiteList.length;\r\n        for (uint256 index = 0;index<whiteListLen;index++){\r\n            OptionsFallBalances[index] = OptionsFallBalances[index]/(int256(_oracle.getPrice(whiteList[index])));\r\n        }\r\n        return OptionsFallBalances;\r\n    }\r\n    function _calRangeOptionsFall(uint256 begin,uint256 lastOption,address[] memory whiteList,uint256[] memory prices)\r\n                 internal view returns(int256[] memory){\r\n        int256[] memory OptionsFallBalances = new int256[](whiteList.length);\r\n        for (;begin<lastOption;begin++){\r\n            OptionsInfo storage info = allOptions[begin];\r\n            if(info.expiration<now || info.amount == 0){\r\n                continue;\r\n            }\r\n            index = _getEligibleUnderlyingIndex(info.underlying);\r\n            uint256 curValue = _calCurtimeCallateralFall(info,info.amount,prices[index]);\r\n            if (curValue != 0){\r\n                OptionsInfoEx storage optionEx = optionExtraMap[begin];\r\n                uint256 index = whiteListAddress._getEligibleIndexAddress(whiteList,optionEx.settlement);\r\n                OptionsFallBalances[index] -= SafeMath.toInt256(curValue);\r\n            }\r\n        }\r\n        return OptionsFallBalances;\r\n    }\r\n\r\n    function _calCurtimeCallateralFall(OptionsInfo memory info,uint256 amount,uint256 curPrice) internal view returns(uint256){\r\n        if (info.expiration<=now || amount == 0){\r\n            return 0;\r\n        }\r\n        return _getOptionsPayback(info.optType,info.strikePrice,curPrice).mul(amount);\r\n    }\r\n    function _addNewOptionsNetworth(OptionsInfo memory info)  internal {\r\n        OptionsInfoEx storage infoEx =  optionExtraMap[info.optionID-1];\r\n        uint256 curValue = _calCurtimeCallateralFall(info,info.amount,infoEx.underlyingPrice);\r\n        optionsLatestNetWorth[infoEx.settlement] -= SafeMath.toInt256(curValue);\r\n    }\r\n    function _burnOptionsNetworth(OptionsInfo memory info,uint256 amount,uint256 underlyingPrice,uint256 currentPrice) internal returns (uint256) {\r\n        uint256 curValue = _calCurtimeCallateralFall(info,amount,underlyingPrice);\r\n        OptionsInfoEx storage optionEx = optionExtraMap[info.optionID-1];\r\n        uint256 timeWorth = optionEx.fullPrice>currentPrice ? optionEx.fullPrice-currentPrice : 0;\r\n        optionsLatestNetWorth[optionEx.settlement] += SafeMath.toInt256(curValue);\r\n        optionsLatestNetWorth[optionEx.settlement] -= SafeMath.toInt256(timeWorth.mul(amount));\r\n    }\r\n    function _calculateCurrentPrice(uint256 curprice,uint256 strikePrice,uint256 expiration,uint256 ivNumerator,uint256 ivDenominator,uint8 optType)internal view returns (uint256){\r\n        if (expiration > now){\r\n            return _optionsPrice.getOptionsPrice_iv(curprice,strikePrice,expiration-now,ivNumerator,\r\n                ivDenominator,optType);\r\n        }\r\n        return 0;\r\n    }\r\n}",
  "sourcePath": "C:\\work\\solidity\\FinnexusOptions_V2\\contracts\\OptionsNetWorthCal.sol",
  "compiler": {
    "name": "solc",
    "version": "0.4.26+commit.4563c3fc.Emscripten.clang"
  },
  "schemaVersion": "3.1.0",
  "updatedAt": "2020-08-03T14:27:23.389Z",
  "devdoc": {
    "methods": {
      "addExpiration(uint256)": {
        "details": "Implementation of add an eligible expiration into the expirationList.\r",
        "params": {
          "expiration": "new eligible expiration.\r"
        }
      },
      "addUnderlyingAsset(uint32)": {
        "details": "Implementation of add an eligible underlying into the underlyingAssets.\r",
        "params": {
          "underlying": "new eligible underlying.\r"
        }
      },
      "getExpirationList()": {
        "details": "Implementation of getting the eligible expirationList.\r"
      },
      "getUnderlyingAssets()": {
        "details": "Implementation of getting the eligible underlyingAssets.\r"
      },
      "isEligibleExpiration(uint256)": {
        "details": "Implementation of testing whether the input expiration is eligible.\r",
        "params": {
          "expiration": "input expiration for testing.\r"
        }
      },
      "isEligibleUnderlyingAsset(uint32)": {
        "details": "Implementation of testing whether the input underlying is eligible.\r",
        "params": {
          "underlying": "input underlying for testing.\r"
        }
      },
      "isOwner()": {
        "details": "Returns true if the caller is the current owner."
      },
      "owner()": {
        "details": "Returns the address of the current owner."
      },
      "removeExpirationList(uint256)": {
        "details": "Implementation of revoke an invalid expiration from the expirationList.\r",
        "params": {
          "removeExpiration": "revoked expiration.\r"
        }
      },
      "removeUnderlyingAssets(uint32)": {
        "details": "Implementation of revoke an invalid underlying from the underlyingAssets.\r",
        "params": {
          "removeUnderlying": "revoked underlying.\r"
        }
      },
      "renounceOwnership()": {
        "details": "Leaves the contract without owner. It will not be possible to call `onlyOwner` functions anymore. Can only be called by the current owner.     * NOTE: Renouncing ownership will leave the contract without an owner, thereby removing any functionality that is only available to the owner."
      },
      "transferOwnership(address)": {
        "details": "Transfers ownership of the contract to a new account (`newOwner`). Can only be called by the current owner."
      }
    }
  },
  "userdoc": {
    "methods": {
      "setManager(address)": {
        "notice": "contribution period to stop or not."
      }
    }
  }
}