{
  "contractName": "OptionsManagerV2",
  "abi": [
    {
      "inputs": [
        {
          "internalType": "address",
          "name": "oracleAddr",
          "type": "address"
        },
        {
          "internalType": "address",
          "name": "optionsPriceAddr",
          "type": "address"
        },
        {
          "internalType": "address",
          "name": "optionsPoolAddr",
          "type": "address"
        },
        {
          "internalType": "address",
          "name": "collateralPoolAddr",
          "type": "address"
        },
        {
          "internalType": "address",
          "name": "FPTCoinAddr",
          "type": "address"
        }
      ],
      "payable": false,
      "stateMutability": "nonpayable",
      "type": "constructor"
    },
    {
      "anonymous": false,
      "inputs": [
        {
          "indexed": true,
          "internalType": "address",
          "name": "from",
          "type": "address"
        },
        {
          "indexed": true,
          "internalType": "address",
          "name": "collateral",
          "type": "address"
        },
        {
          "indexed": false,
          "internalType": "uint256",
          "name": "amount",
          "type": "uint256"
        },
        {
          "indexed": false,
          "internalType": "uint256",
          "name": "tokenAmount",
          "type": "uint256"
        }
      ],
      "name": "AddCollateral",
      "type": "event"
    },
    {
      "anonymous": false,
      "inputs": [
        {
          "indexed": true,
          "internalType": "address",
          "name": "from",
          "type": "address"
        },
        {
          "indexed": true,
          "internalType": "address",
          "name": "settlement",
          "type": "address"
        },
        {
          "indexed": true,
          "internalType": "uint256",
          "name": "optionId",
          "type": "uint256"
        },
        {
          "indexed": false,
          "internalType": "uint256",
          "name": "optionPrice",
          "type": "uint256"
        },
        {
          "indexed": false,
          "internalType": "uint256",
          "name": "settlementAmount",
          "type": "uint256"
        },
        {
          "indexed": false,
          "internalType": "uint256",
          "name": "optionAmount",
          "type": "uint256"
        }
      ],
      "name": "BuyOption",
      "type": "event"
    },
    {
      "anonymous": false,
      "inputs": [
        {
          "indexed": true,
          "internalType": "address",
          "name": "from",
          "type": "address"
        },
        {
          "indexed": true,
          "internalType": "uint256",
          "name": "optionId",
          "type": "uint256"
        },
        {
          "indexed": false,
          "internalType": "uint256",
          "name": "amount",
          "type": "uint256"
        },
        {
          "indexed": false,
          "internalType": "uint256",
          "name": "sellValue",
          "type": "uint256"
        }
      ],
      "name": "ExerciseOption",
      "type": "event"
    },
    {
      "anonymous": false,
      "inputs": [
        {
          "indexed": true,
          "internalType": "address",
          "name": "previousOwner",
          "type": "address"
        },
        {
          "indexed": true,
          "internalType": "address",
          "name": "newOwner",
          "type": "address"
        }
      ],
      "name": "OwnershipTransferred",
      "type": "event"
    },
    {
      "anonymous": false,
      "inputs": [
        {
          "indexed": true,
          "internalType": "address",
          "name": "from",
          "type": "address"
        },
        {
          "indexed": false,
          "internalType": "address",
          "name": "collateral",
          "type": "address"
        },
        {
          "indexed": false,
          "internalType": "uint256",
          "name": "allRedeem",
          "type": "uint256"
        }
      ],
      "name": "RedeemCollateral",
      "type": "event"
    },
    {
      "anonymous": false,
      "inputs": [
        {
          "indexed": true,
          "internalType": "address",
          "name": "from",
          "type": "address"
        },
        {
          "indexed": true,
          "internalType": "uint256",
          "name": "optionId",
          "type": "uint256"
        },
        {
          "indexed": false,
          "internalType": "uint256",
          "name": "amount",
          "type": "uint256"
        },
        {
          "indexed": false,
          "internalType": "uint256",
          "name": "sellValue",
          "type": "uint256"
        }
      ],
      "name": "SellOption",
      "type": "event"
    },
    {
      "constant": false,
      "inputs": [
        {
          "internalType": "address",
          "name": "collateral",
          "type": "address"
        },
        {
          "internalType": "uint256",
          "name": "amount",
          "type": "uint256"
        }
      ],
      "name": "addCollateral",
      "outputs": [],
      "payable": true,
      "stateMutability": "payable",
      "type": "function"
    },
    {
      "constant": false,
      "inputs": [
        {
          "internalType": "address",
          "name": "settlement",
          "type": "address"
        },
        {
          "internalType": "uint256",
          "name": "amount",
          "type": "uint256"
        }
      ],
      "name": "addNetBalance",
      "outputs": [],
      "payable": true,
      "stateMutability": "payable",
      "type": "function"
    },
    {
      "constant": false,
      "inputs": [
        {
          "internalType": "address",
          "name": "addAddress",
          "type": "address"
        }
      ],
      "name": "addOperator",
      "outputs": [],
      "payable": false,
      "stateMutability": "nonpayable",
      "type": "function"
    },
    {
      "constant": false,
      "inputs": [
        {
          "internalType": "address",
          "name": "addAddress",
          "type": "address"
        }
      ],
      "name": "addWhiteList",
      "outputs": [],
      "payable": false,
      "stateMutability": "nonpayable",
      "type": "function"
    },
    {
      "constant": true,
      "inputs": [
        {
          "internalType": "address",
          "name": "account",
          "type": "address"
        }
      ],
      "name": "calCollateralWorth",
      "outputs": [
        {
          "internalType": "uint256[]",
          "name": "",
          "type": "uint256[]"
        }
      ],
      "payable": false,
      "stateMutability": "view",
      "type": "function"
    },
    {
      "constant": true,
      "inputs": [
        {
          "internalType": "uint256",
          "name": "strikePrice",
          "type": "uint256"
        },
        {
          "internalType": "uint256",
          "name": "underlyingPrice",
          "type": "uint256"
        },
        {
          "internalType": "uint256",
          "name": "amount",
          "type": "uint256"
        },
        {
          "internalType": "uint8",
          "name": "optType",
          "type": "uint8"
        }
      ],
      "name": "calOptionsOccupied",
      "outputs": [
        {
          "internalType": "uint256",
          "name": "",
          "type": "uint256"
        }
      ],
      "payable": false,
      "stateMutability": "view",
      "type": "function"
    },
    {
      "constant": false,
      "inputs": [],
      "name": "calSharedPayment",
      "outputs": [],
      "payable": false,
      "stateMutability": "nonpayable",
      "type": "function"
    },
    {
      "constant": true,
      "inputs": [],
      "name": "calculateCollateralRate",
      "outputs": [
        {
          "internalType": "uint256",
          "name": "",
          "type": "uint256"
        }
      ],
      "payable": false,
      "stateMutability": "view",
      "type": "function"
    },
    {
      "constant": true,
      "inputs": [
        {
          "internalType": "address",
          "name": "tmpAddress",
          "type": "address"
        }
      ],
      "name": "checkAddressPayIn",
      "outputs": [
        {
          "internalType": "bool",
          "name": "",
          "type": "bool"
        }
      ],
      "payable": false,
      "stateMutability": "view",
      "type": "function"
    },
    {
      "constant": true,
      "inputs": [
        {
          "internalType": "address",
          "name": "tmpAddress",
          "type": "address"
        }
      ],
      "name": "checkAddressRedeemOut",
      "outputs": [
        {
          "internalType": "bool",
          "name": "",
          "type": "bool"
        }
      ],
      "payable": false,
      "stateMutability": "view",
      "type": "function"
    },
    {
      "constant": true,
      "inputs": [],
      "name": "getAvailableCollateral",
      "outputs": [
        {
          "internalType": "uint256",
          "name": "",
          "type": "uint256"
        }
      ],
      "payable": false,
      "stateMutability": "view",
      "type": "function"
    },
    {
      "constant": true,
      "inputs": [],
      "name": "getCollateralPoolAddress",
      "outputs": [
        {
          "internalType": "address",
          "name": "",
          "type": "address"
        }
      ],
      "payable": false,
      "stateMutability": "view",
      "type": "function"
    },
    {
      "constant": true,
      "inputs": [
        {
          "internalType": "address",
          "name": "collateral",
          "type": "address"
        }
      ],
      "name": "getCollateralRate",
      "outputs": [
        {
          "internalType": "uint256",
          "name": "",
          "type": "uint256"
        }
      ],
      "payable": false,
      "stateMutability": "view",
      "type": "function"
    },
    {
      "constant": true,
      "inputs": [],
      "name": "getFPTCoinAddress",
      "outputs": [
        {
          "internalType": "address",
          "name": "",
          "type": "address"
        }
      ],
      "payable": false,
      "stateMutability": "view",
      "type": "function"
    },
    {
      "constant": true,
      "inputs": [],
      "name": "getInputAmountRange",
      "outputs": [
        {
          "internalType": "uint256",
          "name": "",
          "type": "uint256"
        },
        {
          "internalType": "uint256",
          "name": "",
          "type": "uint256"
        }
      ],
      "payable": false,
      "stateMutability": "view",
      "type": "function"
    },
    {
      "constant": true,
      "inputs": [],
      "name": "getLeftCollateral",
      "outputs": [
        {
          "internalType": "uint256",
          "name": "",
          "type": "uint256"
        }
      ],
      "payable": false,
      "stateMutability": "view",
      "type": "function"
    },
    {
      "constant": true,
      "inputs": [
        {
          "internalType": "address",
          "name": "settlement",
          "type": "address"
        }
      ],
      "name": "getNetWorthBalance",
      "outputs": [
        {
          "internalType": "uint256",
          "name": "",
          "type": "uint256"
        }
      ],
      "payable": false,
      "stateMutability": "view",
      "type": "function"
    },
    {
      "constant": true,
      "inputs": [],
      "name": "getOccupiedCollateral",
      "outputs": [
        {
          "internalType": "uint256",
          "name": "",
          "type": "uint256"
        }
      ],
      "payable": false,
      "stateMutability": "view",
      "type": "function"
    },
    {
      "constant": true,
      "inputs": [],
      "name": "getOperator",
      "outputs": [
        {
          "internalType": "address[]",
          "name": "",
          "type": "address[]"
        }
      ],
      "payable": false,
      "stateMutability": "view",
      "type": "function"
    },
    {
      "constant": true,
      "inputs": [],
      "name": "getOptionsPoolAddress",
      "outputs": [
        {
          "internalType": "address",
          "name": "",
          "type": "address"
        }
      ],
      "payable": false,
      "stateMutability": "view",
      "type": "function"
    },
    {
      "constant": true,
      "inputs": [],
      "name": "getOptionsPriceAddress",
      "outputs": [
        {
          "internalType": "address",
          "name": "",
          "type": "address"
        }
      ],
      "payable": false,
      "stateMutability": "view",
      "type": "function"
    },
    {
      "constant": true,
      "inputs": [],
      "name": "getOracleAddress",
      "outputs": [
        {
          "internalType": "address",
          "name": "",
          "type": "address"
        }
      ],
      "payable": false,
      "stateMutability": "view",
      "type": "function"
    },
    {
      "constant": true,
      "inputs": [
        {
          "internalType": "address",
          "name": "settlement",
          "type": "address"
        }
      ],
      "name": "getRealBalance",
      "outputs": [
        {
          "internalType": "int256",
          "name": "",
          "type": "int256"
        }
      ],
      "payable": false,
      "stateMutability": "view",
      "type": "function"
    },
    {
      "constant": true,
      "inputs": [],
      "name": "getTokenNetworth",
      "outputs": [
        {
          "internalType": "uint256",
          "name": "",
          "type": "uint256"
        }
      ],
      "payable": false,
      "stateMutability": "view",
      "type": "function"
    },
    {
      "constant": true,
      "inputs": [],
      "name": "getTotalCollateral",
      "outputs": [
        {
          "internalType": "uint256",
          "name": "",
          "type": "uint256"
        }
      ],
      "payable": false,
      "stateMutability": "view",
      "type": "function"
    },
    {
      "constant": true,
      "inputs": [],
      "name": "getUnlockedCollateral",
      "outputs": [
        {
          "internalType": "uint256",
          "name": "",
          "type": "uint256"
        }
      ],
      "payable": false,
      "stateMutability": "view",
      "type": "function"
    },
    {
      "constant": true,
      "inputs": [
        {
          "internalType": "address",
          "name": "user",
          "type": "address"
        }
      ],
      "name": "getUserPayingUsd",
      "outputs": [
        {
          "internalType": "uint256",
          "name": "",
          "type": "uint256"
        }
      ],
      "payable": false,
      "stateMutability": "view",
      "type": "function"
    },
    {
      "constant": true,
      "inputs": [
        {
          "internalType": "address",
          "name": "account",
          "type": "address"
        }
      ],
      "name": "getUserTotalWorth",
      "outputs": [
        {
          "internalType": "uint256",
          "name": "",
          "type": "uint256"
        }
      ],
      "payable": false,
      "stateMutability": "view",
      "type": "function"
    },
    {
      "constant": true,
      "inputs": [],
      "name": "getWhiteList",
      "outputs": [
        {
          "internalType": "address[]",
          "name": "",
          "type": "address[]"
        }
      ],
      "payable": false,
      "stateMutability": "view",
      "type": "function"
    },
    {
      "constant": true,
      "inputs": [
        {
          "internalType": "address",
          "name": "tmpAddress",
          "type": "address"
        }
      ],
      "name": "isEligibleAddress",
      "outputs": [
        {
          "internalType": "bool",
          "name": "",
          "type": "bool"
        }
      ],
      "payable": false,
      "stateMutability": "view",
      "type": "function"
    },
    {
      "constant": true,
      "inputs": [],
      "name": "isOwner",
      "outputs": [
        {
          "internalType": "bool",
          "name": "",
          "type": "bool"
        }
      ],
      "payable": false,
      "stateMutability": "view",
      "type": "function"
    },
    {
      "constant": false,
      "inputs": [
        {
          "internalType": "address",
          "name": "addAddress",
          "type": "address"
        },
        {
          "internalType": "uint256",
          "name": "permission",
          "type": "uint256"
        }
      ],
      "name": "modifyPermission",
      "outputs": [],
      "payable": false,
      "stateMutability": "nonpayable",
      "type": "function"
    },
    {
      "constant": true,
      "inputs": [],
      "name": "owner",
      "outputs": [
        {
          "internalType": "address",
          "name": "",
          "type": "address"
        }
      ],
      "payable": false,
      "stateMutability": "view",
      "type": "function"
    },
    {
      "constant": false,
      "inputs": [
        {
          "internalType": "uint256",
          "name": "tokenAmount",
          "type": "uint256"
        },
        {
          "internalType": "address",
          "name": "collateral",
          "type": "address"
        }
      ],
      "name": "redeemCollateral",
      "outputs": [],
      "payable": false,
      "stateMutability": "nonpayable",
      "type": "function"
    },
    {
      "constant": false,
      "inputs": [
        {
          "internalType": "address",
          "name": "removeAddress",
          "type": "address"
        }
      ],
      "name": "removeOperator",
      "outputs": [
        {
          "internalType": "bool",
          "name": "",
          "type": "bool"
        }
      ],
      "payable": false,
      "stateMutability": "nonpayable",
      "type": "function"
    },
    {
      "constant": false,
      "inputs": [
        {
          "internalType": "address",
          "name": "removeAddress",
          "type": "address"
        }
      ],
      "name": "removeWhiteList",
      "outputs": [
        {
          "internalType": "bool",
          "name": "",
          "type": "bool"
        }
      ],
      "payable": false,
      "stateMutability": "nonpayable",
      "type": "function"
    },
    {
      "constant": false,
      "inputs": [],
      "name": "renounceOwnership",
      "outputs": [],
      "payable": false,
      "stateMutability": "nonpayable",
      "type": "function"
    },
    {
      "constant": false,
      "inputs": [
        {
          "internalType": "address",
          "name": "collateralPool",
          "type": "address"
        }
      ],
      "name": "setCollateralPoolAddress",
      "outputs": [],
      "payable": false,
      "stateMutability": "nonpayable",
      "type": "function"
    },
    {
      "constant": false,
      "inputs": [
        {
          "internalType": "address",
          "name": "collateral",
          "type": "address"
        },
        {
          "internalType": "uint256",
          "name": "colRate",
          "type": "uint256"
        }
      ],
      "name": "setCollateralRate",
      "outputs": [],
      "payable": false,
      "stateMutability": "nonpayable",
      "type": "function"
    },
    {
      "constant": false,
      "inputs": [
        {
          "internalType": "address",
          "name": "FPTCoinAddr",
          "type": "address"
        }
      ],
      "name": "setFPTCoinAddress",
      "outputs": [],
      "payable": false,
      "stateMutability": "nonpayable",
      "type": "function"
    },
    {
      "constant": false,
      "inputs": [
        {
          "internalType": "bool",
          "name": "halt",
          "type": "bool"
        }
      ],
      "name": "setHalt",
      "outputs": [],
      "payable": false,
      "stateMutability": "nonpayable",
      "type": "function"
    },
    {
      "constant": false,
      "inputs": [
        {
          "internalType": "uint256",
          "name": "_minAmount",
          "type": "uint256"
        },
        {
          "internalType": "uint256",
          "name": "_maxAmount",
          "type": "uint256"
        }
      ],
      "name": "setInputAmountRange",
      "outputs": [],
      "payable": false,
      "stateMutability": "nonpayable",
      "type": "function"
    },
    {
      "constant": false,
      "inputs": [
        {
          "internalType": "address[]",
          "name": "operators",
          "type": "address[]"
        }
      ],
      "name": "setOperator",
      "outputs": [],
      "payable": false,
      "stateMutability": "nonpayable",
      "type": "function"
    },
    {
      "constant": false,
      "inputs": [
        {
          "internalType": "uint256",
          "name": "index",
          "type": "uint256"
        },
        {
          "internalType": "address",
          "name": "addAddress",
          "type": "address"
        }
      ],
      "name": "setOperator",
      "outputs": [],
      "payable": false,
      "stateMutability": "nonpayable",
      "type": "function"
    },
    {
      "constant": false,
      "inputs": [
        {
          "internalType": "address",
          "name": "optionsPool",
          "type": "address"
        }
      ],
      "name": "setOptionsPoolAddress",
      "outputs": [],
      "payable": false,
      "stateMutability": "nonpayable",
      "type": "function"
    },
    {
      "constant": false,
      "inputs": [
        {
          "internalType": "address",
          "name": "optionsPrice",
          "type": "address"
        }
      ],
      "name": "setOptionsPriceAddress",
      "outputs": [],
      "payable": false,
      "stateMutability": "nonpayable",
      "type": "function"
    },
    {
      "constant": false,
      "inputs": [
        {
          "internalType": "address",
          "name": "oracle",
          "type": "address"
        }
      ],
      "name": "setOracleAddress",
      "outputs": [],
      "payable": false,
      "stateMutability": "nonpayable",
      "type": "function"
    },
    {
      "constant": false,
      "inputs": [
        {
          "internalType": "int256[]",
          "name": "newNetworth",
          "type": "int256[]"
        },
        {
          "internalType": "int256[]",
          "name": "sharedBalances",
          "type": "int256[]"
        },
        {
          "internalType": "uint256",
          "name": "firstOption",
          "type": "uint256"
        }
      ],
      "name": "setSharedPayment",
      "outputs": [],
      "payable": false,
      "stateMutability": "nonpayable",
      "type": "function"
    },
    {
      "constant": false,
      "inputs": [
        {
          "internalType": "address",
          "name": "newOwner",
          "type": "address"
        }
      ],
      "name": "transferOwnership",
      "outputs": [],
      "payable": false,
      "stateMutability": "nonpayable",
      "type": "function"
    },
    {
      "constant": true,
      "inputs": [
        {
          "internalType": "address",
          "name": "user",
          "type": "address"
        },
        {
          "internalType": "address",
          "name": "collateral",
          "type": "address"
        }
      ],
      "name": "userInputCollateral",
      "outputs": [
        {
          "internalType": "uint256",
          "name": "",
          "type": "uint256"
        }
      ],
      "payable": false,
      "stateMutability": "view",
      "type": "function"
    },
    {
      "constant": false,
      "inputs": [],
      "name": "initialize",
      "outputs": [],
      "payable": false,
      "stateMutability": "nonpayable",
      "type": "function"
    },
    {
      "constant": true,
      "inputs": [],
      "name": "getPriceRateRange",
      "outputs": [
        {
          "internalType": "uint256",
          "name": "",
          "type": "uint256"
        },
        {
          "internalType": "uint256",
          "name": "",
          "type": "uint256"
        }
      ],
      "payable": false,
      "stateMutability": "view",
      "type": "function"
    },
    {
      "constant": false,
      "inputs": [
        {
          "internalType": "uint256",
          "name": "_minPriceRate",
          "type": "uint256"
        },
        {
          "internalType": "uint256",
          "name": "_maxPriceRate",
          "type": "uint256"
        }
      ],
      "name": "setPriceRateRange",
      "outputs": [],
      "payable": false,
      "stateMutability": "nonpayable",
      "type": "function"
    },
    {
      "constant": false,
      "inputs": [
        {
          "internalType": "address",
          "name": "settlement",
          "type": "address"
        },
        {
          "internalType": "uint256",
          "name": "settlementAmount",
          "type": "uint256"
        },
        {
          "internalType": "uint256",
          "name": "strikePrice",
          "type": "uint256"
        },
        {
          "internalType": "uint32",
          "name": "underlying",
          "type": "uint32"
        },
        {
          "internalType": "uint256",
          "name": "expiration",
          "type": "uint256"
        },
        {
          "internalType": "uint256",
          "name": "amount",
          "type": "uint256"
        },
        {
          "internalType": "uint8",
          "name": "optType",
          "type": "uint8"
        }
      ],
      "name": "buyOption",
      "outputs": [],
      "payable": true,
      "stateMutability": "payable",
      "type": "function"
    },
    {
      "constant": false,
      "inputs": [
        {
          "internalType": "uint256",
          "name": "optionsId",
          "type": "uint256"
        },
        {
          "internalType": "uint256",
          "name": "amount",
          "type": "uint256"
        }
      ],
      "name": "sellOption",
      "outputs": [],
      "payable": false,
      "stateMutability": "nonpayable",
      "type": "function"
    },
    {
      "constant": false,
      "inputs": [
        {
          "internalType": "uint256",
          "name": "optionsId",
          "type": "uint256"
        },
        {
          "internalType": "uint256",
          "name": "amount",
          "type": "uint256"
        }
      ],
      "name": "exerciseOption",
      "outputs": [],
      "payable": false,
      "stateMutability": "nonpayable",
      "type": "function"
    }
  ],
  "bytecode": "0x60806040526000805460ff60a860020a60ff0201191690556c0c9f2c9cd04674edea40000000600a55633b9aca00600b556105dc600c556101f4600d553480156200004957600080fd5b5060405162005f0038038062005f00833981810160405260a08110156200006f57600080fd5b50805160208201516040830151606084015160809094015160048054600160a060020a0319908116600160a060020a03968716179091556008805482169486169490941790935560058054841692851692909217909155600680548316948416949094179093556003805490911691909216179055615e0c80620000f46000396000f3fe60806040526004361061036f5760003560e060020a90048063a093e2d0116101ca578063cd405819116100fb578063e7a1c1c011610099578063f2fde38b11610073578063f2fde38b14610dd1578063f495438714610e04578063f4fdc0c214610e30578063fb1052bf14610e695761036f565b8063e7a1c1c014610d50578063e7cd4a0414610d89578063e7f43c6814610dbc5761036f565b8063d7e57992116100d5578063d7e5799214610cde578063dab5512914610cf3578063e28a327d14610d08578063e7122ffd14610d1d5761036f565b8063cd40581914610c84578063d189290414610c99578063d6eb591014610cc95761036f565b8063b4d5a9c711610168578063bdac4bf611610142578063bdac4bf614610bee578063c040725a14610c21578063c219043b14610c36578063c5e5a3ed14610c6f5761036f565b8063b4d5a9c714610b89578063bc2c300214610bc4578063bc9abed214610bd95761036f565b8063a56ea403116101a4578063a56ea40314610ae0578063ac8a584a14610b13578063aec6280614610b46578063b18b78dd14610b745761036f565b8063a093e2d01461093e578063a20a804514610971578063a37c4fcf146109aa5761036f565b80635ca4b73b116102a4578063817bf86d116102425780638f32d59b1161021c5780638f32d59b14610873578063925c482c146108885780639870d7fe146108db5780639ab91a351461090e5761036f565b8063817bf86d146107ff5780638691a8c5146108325780638da5cb5b1461085e5761036f565b8063715018a61161027e578063715018a61461077257806377e071ad146107875780637c9c6712146107ba5780638129fc1c146107ea5761036f565b80635ca4b73b146106fe5780636b6ecea8146107135780636d75b9ee146107465761036f565b8063251e2fe31161031157806342082c1e116102eb57806342082c1e146105b8578063447dbeac146106685780634c69c00f1461069b5780635bf5d897146106ce5761036f565b8063251e2fe31461051557806332c82a5f1461054657806342049a72146105855761036f565b80630c80d6911161034d5780630c80d691146104475780631730b3cb1461047a5780631a5a3fce146104af5780632042e5c2146104e25761036f565b8063059621d71461037457806309a9d76c146103bb5780630aaf383214610420575b600080fd5b34801561038057600080fd5b506103a76004803603602081101561039757600080fd5b5035600160a060020a0316610e7e565b604080519115158252519081900360200190f35b3480156103c757600080fd5b506103d0610eb8565b60408051602080825283518183015283519192839290830191858101910280838360005b8381101561040c5781810151838201526020016103f4565b505050509050019250505060405180910390f35b34801561042c57600080fd5b50610435610f1b565b60408051918252519081900360200190f35b34801561045357600080fd5b506104356004803603602081101561046a57600080fd5b5035600160a060020a0316610f3a565b34801561048657600080fd5b506104ad6004803603602081101561049d57600080fd5b5035600160a060020a0316611080565b005b3480156104bb57600080fd5b506104ad600480360360208110156104d257600080fd5b5035600160a060020a03166110ec565b3480156104ee57600080fd5b506103a76004803603602081101561050557600080fd5b5035600160a060020a0316611158565b34801561052157600080fd5b5061052a6111b5565b60408051600160a060020a039092168252519081900360200190f35b34801561055257600080fd5b506104356004803603608081101561056957600080fd5b508035906020810135906040810135906060013560ff166111c4565b34801561059157600080fd5b50610435600480360360208110156105a857600080fd5b5035600160a060020a03166111f6565b3480156105c457600080fd5b506104ad600480360360208110156105db57600080fd5b8101906020810181356401000000008111156105f657600080fd5b82018360208201111561060857600080fd5b8035906020019184602083028401116401000000008311171561062a57600080fd5b919080806020026020016040519081016040528093929190818152602001838360200280828437600092019190915250929550611292945050505050565b34801561067457600080fd5b506104356004803603602081101561068b57600080fd5b5035600160a060020a03166112f3565b3480156106a757600080fd5b506104ad600480360360208110156106be57600080fd5b5035600160a060020a031661142a565b3480156106da57600080fd5b506104ad600480360360408110156106f157600080fd5b5080359060200135611496565b34801561070a57600080fd5b5061052a6114eb565b34801561071f57600080fd5b506104356004803603602081101561073657600080fd5b5035600160a060020a03166114fa565b6104ad6004803603604081101561075c57600080fd5b50600160a060020a038135169060200135611655565b34801561077e57600080fd5b506104ad611b12565b34801561079357600080fd5b50610435600480360360208110156107aa57600080fd5b5035600160a060020a0316611bb8565b3480156107c657600080fd5b506104ad600480360360408110156107dd57600080fd5b5080359060200135611bd3565b3480156107f657600080fd5b506104ad61215e565b34801561080b57600080fd5b506103a76004803603602081101561082257600080fd5b5035600160a060020a0316612160565b6104ad6004803603604081101561084857600080fd5b50600160a060020a0381351690602001356121cf565b34801561086a57600080fd5b5061052a6122cb565b34801561087f57600080fd5b506103a76122df565b6104ad600480360360e081101561089e57600080fd5b508035600160a060020a031690602081013590604081013590606081013563ffffffff169060808101359060a08101359060c0013560ff166122f5565b3480156108e757600080fd5b506104ad600480360360208110156108fe57600080fd5b5035600160a060020a0316612678565b34801561091a57600080fd5b506104ad6004803603604081101561093157600080fd5b50803590602001356126d6565b34801561094a57600080fd5b506104ad6004803603602081101561096157600080fd5b5035600160a060020a031661272b565b34801561097d57600080fd5b506104ad6004803603604081101561099457600080fd5b5080359060200135600160a060020a0316612797565b3480156109b657600080fd5b506104ad600480360360608110156109cd57600080fd5b8101906020810181356401000000008111156109e857600080fd5b8201836020820111156109fa57600080fd5b80359060200191846020830284011164010000000083111715610a1c57600080fd5b9190808060200260200160405190810160405280939291908181526020018383602002808284376000920191909152509295949360208101935035915050640100000000811115610a6c57600080fd5b820183602082011115610a7e57600080fd5b80359060200191846020830284011164010000000083111715610aa057600080fd5b9190808060200260200160405190810160405280939291908181526020018383602002808284376000920191909152509295505091359250612b88915050565b348015610aec57600080fd5b506103d060048036036020811015610b0357600080fd5b5035600160a060020a0316612e28565b348015610b1f57600080fd5b506103a760048036036020811015610b3657600080fd5b5035600160a060020a0316612f16565b348015610b5257600080fd5b50610b5b612f73565b6040805192835260208301919091528051918290030190f35b348015610b8057600080fd5b5061052a612f7d565b348015610b9557600080fd5b5061043560048036036040811015610bac57600080fd5b50600160a060020a0381358116916020013516612f8c565b348015610bd057600080fd5b506104ad613033565b348015610be557600080fd5b50610b5b613732565b348015610bfa57600080fd5b506103a760048036036020811015610c1157600080fd5b5035600160a060020a031661373c565b348015610c2d57600080fd5b5061052a613770565b348015610c4257600080fd5b506104ad60048036036040811015610c5957600080fd5b50600160a060020a03813516906020013561377f565b348015610c7b57600080fd5b506104356137e5565b348015610c9057600080fd5b506104356138a6565b348015610ca557600080fd5b506104ad60048036036040811015610cbc57600080fd5b5080359060200135613937565b348015610cd557600080fd5b50610435613dd3565b348015610cea57600080fd5b5061052a613edf565b348015610cff57600080fd5b50610435613eee565b348015610d1457600080fd5b50610435613f7d565b348015610d2957600080fd5b506104ad60048036036020811015610d4057600080fd5b5035600160a060020a0316613f8a565b348015610d5c57600080fd5b506104ad60048036036040811015610d7357600080fd5b5080359060200135600160a060020a0316613ff6565b348015610d9557600080fd5b506104ad60048036036020811015610dac57600080fd5b5035600160a060020a0316614080565b348015610dc857600080fd5b506103d06140fb565b348015610ddd57600080fd5b506104ad60048036036020811015610df457600080fd5b5035600160a060020a031661415b565b348015610e1057600080fd5b506104ad60048036036020811015610e2757600080fd5b503515156141ae565b348015610e3c57600080fd5b506104ad60048036036040811015610e5357600080fd5b50600160a060020a038135169060200135614228565b348015610e7557600080fd5b50610435614297565b6000610e8982612160565b8015610eb05750600160a060020a0382166000908152600260208190526040909120548116145b90505b919050565b60606001805480602002602001604051908101604052809291908181526020018280548015610f1057602002820191906000526020600020905b8154600160a060020a03168152600190910190602001808311610ef2575b505050505090505b90565b6000610f35610f28613dd3565b610f306138a6565b61435d565b905090565b600654604080517f6b6ecea8000000000000000000000000000000000000000000000000000000008152600160a060020a038481166004830152915160009384931691636b6ecea8916024808301926020929190829003018186803b158015610fa257600080fd5b505afa158015610fb6573d6000803e3d6000fd5b505050506040513d6020811015610fcc57600080fd5b5051600554604080517f7e1bcb76000000000000000000000000000000000000000000000000000000008152600160a060020a03878116600483015291519394506000939190921691637e1bcb76916024808301926020929190829003018186803b15801561103a57600080fd5b505afa15801561104e573d6000803e3d6000fd5b505050506040513d602081101561106457600080fd5b50519050611078828263ffffffff61437816565b949350505050565b6110886122df565b6110ca576040805160e560020a62461bcd0281526020600482018190526024820152600080516020615d54833981519152604482015290519081900360640190fd5b60068054600160a060020a031916600160a060020a0392909216919091179055565b6110f46122df565b611136576040805160e560020a62461bcd0281526020600482018190526024820152600080516020615d54833981519152604482015290519081900360640190fd5b60058054600160a060020a031916600160a060020a0392909216919091179055565b60006111626122df565b6111a4576040805160e560020a62461bcd0281526020600482018190526024820152600080516020615d54833981519152604482015290519081900360640190fd5b610eb060018363ffffffff6143ba16565b600654600160a060020a031690565b60008060ff83161585871114156111de57508483026111e3565b508383025b6111ec816144a8565b9695505050505050565b600654604080517f42049a72000000000000000000000000000000000000000000000000000000008152600160a060020a038481166004830152915160009392909216916342049a7291602480820192602092909190829003018186803b15801561126057600080fd5b505afa158015611274573d6000803e3d6000fd5b505050506040513d602081101561128a57600080fd5b505192915050565b61129a6122df565b6112dc576040805160e560020a62461bcd0281526020600482018190526024820152600080516020615d54833981519152604482015290519081900360640190fd5b80516112ef906007906020840190615bcb565b5050565b600354604080517f07e77aa0000000000000000000000000000000000000000000000000000000008152600160a060020a0384811660048301529151600093610eb09316916307e77aa0916024808301926020929190829003018186803b15801561135d57600080fd5b505afa158015611371573d6000803e3d6000fd5b505050506040513d602081101561138757600080fd5b50516003546040805160e060020a6370a08231028152600160a060020a038781166004830152915161141e9392909216916370a0823191602480820192602092909190829003018186803b1580156113de57600080fd5b505afa1580156113f2573d6000803e3d6000fd5b505050506040513d602081101561140857600080fd5b50516114126137e5565b9063ffffffff6144c516565b9063ffffffff61451e16565b6114326122df565b611474576040805160e560020a62461bcd0281526020600482018190526024820152600080516020615d54833981519152604482015290519081900360640190fd5b60048054600160a060020a031916600160a060020a0392909216919091179055565b61149e6122df565b6114e0576040805160e560020a62461bcd0281526020600482018190526024820152600080516020615d54833981519152604482015290519081900360640190fd5b600d91909155600c55565b600854600160a060020a031690565b600654604080517f6b6ecea8000000000000000000000000000000000000000000000000000000008152600160a060020a038481166004830152915160009384931691636b6ecea8916024808301926020929190829003018186803b15801561156257600080fd5b505afa158015611576573d6000803e3d6000fd5b505050506040513d602081101561158c57600080fd5b5051600554604080517f7e1bcb76000000000000000000000000000000000000000000000000000000008152600160a060020a03878116600483015291519394506000939190921691637e1bcb76916024808301926020929190829003018186803b1580156115fa57600080fd5b505afa15801561160e573d6000803e3d6000fd5b505050506040513d602081101561162457600080fd5b50519050611638828263ffffffff61437816565b9150600082131561164b57509050610eb3565b5060009392505050565b60005460ff161561166557600080fd5b6000805460ff19166001179081905560a860020a900460ff16156116c1576040805160e560020a62461bcd0281526020600482015260176024820152600080516020615db8833981519152604482015290519081900360640190fd5b6116cb8282614579565b600654604080517fc3c579cc000000000000000000000000000000000000000000000000000000008152600160a060020a03868116600483015260248201859052600360448301529151939450600093919092169163c3c579cc91606480830192602092919082900301818787803b15801561174657600080fd5b505af115801561175a573d6000803e3d6000fd5b505050506040513d602081101561177057600080fd5b505160048054604080517f41976e09000000000000000000000000000000000000000000000000000000008152600160a060020a03888116948201949094529051958490039593945060009392909116916341976e0991602480820192602092909190829003018186803b1580156117e757600080fd5b505afa1580156117fb573d6000803e3d6000fd5b505050506040513d602081101561181157600080fd5b5051905082810260006118226137e5565b828161182a57fe5b600654604080517f692a76a7000000000000000000000000000000000000000000000000000000008152336004820152602481018790529051939092049350600160a060020a03169163692a76a79160448082019260009290919082900301818387803b15801561189a57600080fd5b505af11580156118ae573d6000803e3d6000fd5b5050600654604080517f2b2d50c3000000000000000000000000000000000000000000000000000000008152600160a060020a038b81166004830152602482018b90529151919092169350632b2d50c39250604480830192600092919082900301818387803b15801561192057600080fd5b505af1158015611934573d6000803e3d6000fd5b5050600654604080517fd56dbe88000000000000000000000000000000000000000000000000000000008152336004820152600160a060020a038b81166024830152604482018b9052915191909216935063d56dbe889250606480830192600092919082900301818387803b1580156119ac57600080fd5b505af11580156119c0573d6000803e3d6000fd5b50506006546040805160e060020a63fee80a49028152600160a060020a038b81166004830152602482018b9052915191909216935063fee80a499250604480830192600092919082900301818387803b158015611a1c57600080fd5b505af1158015611a30573d6000803e3d6000fd5b505060408051888152602081018590528151600160a060020a038b1694503393507f33a089d94f9a0b7d0fe21e69b40d7dbe1965be652c7382cc778d46963db8c49b929181900390910190a3600354604080517f40c10f19000000000000000000000000000000000000000000000000000000008152336004820152602481018490529051600160a060020a03909216916340c10f199160448082019260009290919082900301818387803b158015611ae857600080fd5b505af1158015611afc573d6000803e3d6000fd5b50506000805460ff191690555050505050505050565b611b1a6122df565b611b5c576040805160e560020a62461bcd0281526020600482018190526024820152600080516020615d54833981519152604482015290519081900360640190fd5b60008054604051610100909104600160a060020a0316907f8be0079c531659141344cd1fd0a4f28419497f9722a3daafe3b4186f6b6457e0908390a36000805474ffffffffffffffffffffffffffffffffffffffff0019169055565b600160a060020a031660009081526009602052604090205490565b60005460ff1615611be357600080fd5b6000805460ff19166001179081905560a860020a900460ff1615611c3f576040805160e560020a62461bcd0281526020600482015260176024820152600080516020615db8833981519152604482015290519081900360640190fd5b611c48816148c5565b600554604080517f67b8ceb900000000000000000000000000000000000000000000000000000000815260048101859052602481018490529051600092600160a060020a0316916367b8ceb9916044808301926020929190829003018186803b158015611cb457600080fd5b505afa158015611cc8573d6000803e3d6000fd5b505050506040513d6020811015611cde57600080fd5b5051905080611d37576040805160e560020a62461bcd02815260206004820152601b60248201527f54686973206f7074696f6e2063616e6e6f742065786572636973650000000000604482015290519081900360640190fd5b600554604080517f48ee201d000000000000000000000000000000000000000000000000000000008152600481018690529051600092839283928392600160a060020a0316916348ee201d9160248083019260e0929190829003018186803b158015611da257600080fd5b505afa158015611db6573d6000803e3d6000fd5b505050506040513d60e0811015611dcc57600080fd5b5060408101516060820151608083015160a09093015191965094509092509050611dfc824263ffffffff61491716565b60048054604080517fda66325700000000000000000000000000000000000000000000000000000000815263ffffffff88169381019390935251929450600092600160a060020a039091169163da663257916024808301926020929190829003018186803b158015611e6d57600080fd5b505afa158015611e81573d6000803e3d6000fd5b505050506040513d6020811015611e9757600080fd5b5051600854604080517f4b7d8e5c00000000000000000000000000000000000000000000000000000000815260048101849052602481018690526044810187905263ffffffff8816606482015260ff891660848201529051929350600092600160a060020a0390921691634b7d8e5c9160a480820192602092909190829003018186803b158015611f2757600080fd5b505afa158015611f3b573d6000803e3d6000fd5b505050506040513d6020811015611f5157600080fd5b5051600554604080517f6ed82ec9000000000000000000000000000000000000000000000000000000008152336004820152602481018d9052604481018c9052606481018490529051929350600160a060020a0390911691636ed82ec99160848082019260009290919082900301818387803b158015611fd057600080fd5b505af1158015611fe4573d6000803e3d6000fd5b5050600554604080517f597ce900000000000000000000000000000000000000000000000000000000008152600481018e9052602481018d9052815160009550859450600160a060020a039093169263597ce90092604480840193919291829003018186803b15801561205657600080fd5b505afa15801561206a573d6000803e3d6000fd5b505050506040513d604081101561208057600080fd5b5080516020909101516006546040805160e060020a63fee80a49028152600160a060020a038086166004830152602482018590529151949650929450169163fee80a499160448082019260009290919082900301818387803b1580156120e557600080fd5b505af11580156120f9573d6000803e3d6000fd5b50505050612108896002614972565b604080518b8152602081018b905281518d9233927fc939d87d6a5458cd262393bdb2c5408330b7647ca14b752229b0301858a29972929081900390910190a350506000805460ff19169055505050505050505050565b565b6000610eb08260018054806020026020016040519081016040528092919081815260200182805480156121bc57602002820191906000526020600020905b8154600160a060020a0316815260019091019060200180831161219e575b5050505050614c1a90919063ffffffff16565b6007546001908110801561220c575033600160a060020a0316600782815481106121f557fe5b600091825260209091200154600160a060020a0316145b61224a5760405160e560020a62461bcd028152600401808060200182810382526030815260200180615d246030913960400191505060405180910390fd5b6122548383614579565b6006546040805160e060020a63fee80a49028152600160a060020a03878116600483015260248201859052915193955091169163fee80a499160448082019260009290919082900301818387803b1580156122ae57600080fd5b505af11580156122c2573d6000803e3d6000fd5b50505050505050565b6000546101009004600160a060020a031690565b6000546101009004600160a060020a0316331490565b60005460ff161561230557600080fd5b6000805460ff19166001179081905560a860020a900460ff1615612361576040805160e560020a62461bcd0281526020600482015260176024820152600080516020615db8833981519152604482015290519081900360640190fd5b600554604080517f3ad2fb570000000000000000000000000000000000000000000000000000000081526004810186905263ffffffff871660248201529051600160a060020a0390921691633ad2fb5791604480820192600092909190829003018186803b1580156123d257600080fd5b505afa1580156123e6573d6000803e3d6000fd5b5050505060006124028260ff168663ffffffff16866000614c69565b60048054604080517fda66325700000000000000000000000000000000000000000000000000000000815263ffffffff8a169381019390935251929350600092600160a060020a039091169163da663257916024808301926020929190829003018186803b15801561247357600080fd5b505afa158015612487573d6000803e3d6000fd5b505050506040513d602081101561249d57600080fd5b505190506124ab8782614cb1565b600854604080517f4b7d8e5c00000000000000000000000000000000000000000000000000000000815260048101849052602481018a90526044810188905263ffffffff8916606482015260ff861660848201529051600092600160a060020a031691634b7d8e5c9160a4808301926020929190829003018186803b15801561253357600080fd5b505afa158015612547573d6000803e3d6000fd5b505050506040513d602081101561255d57600080fd5b5051905061256d888387876111c4565b612575613f7d565b10156125cb576040805160e560020a62461bcd02815260206004820152601b60248201527f636f6c6c61746572616c20697320696e73756666696369656e74210000000000604482015290519081900360640190fd5b600554604080517f924a69ce000000000000000000000000000000000000000000000000000000008152336004820152600160a060020a038d8116602483015260448201879052606482018c90526084820185905260a482018990529151919092169163924a69ce9160c480830192600092919082900301818387803b15801561265457600080fd5b505af1158015612668573d6000803e3d6000fd5b50505050611afc8a8a8388614d1d565b6126806122df565b6126c2576040805160e560020a62461bcd0281526020600482018190526024820152600080516020615d54833981519152604482015290519081900360640190fd5b6126d360078263ffffffff6150de16565b50565b6126de6122df565b612720576040805160e560020a62461bcd0281526020600482018190526024820152600080516020615d54833981519152604482015290519081900360640190fd5b600b91909155600a55565b6127336122df565b612775576040805160e560020a62461bcd0281526020600482018190526024820152600080516020615d54833981519152604482015290519081900360640190fd5b60088054600160a060020a031916600160a060020a0392909216919091179055565b60005460ff16156127a757600080fd5b6000805460ff19166001179081905560a860020a900460ff1615612803576040805160e560020a62461bcd0281526020600482015260176024820152600080516020615db8833981519152604482015290519081900360640190fd5b61280c826148c5565b61281581610e7e565b612869576040805160e560020a62461bcd02815260206004820152601f60248201527f736574746c656d656e7420697320756e737570706f7274656420746f6b656e00604482015290519081900360640190fd5b600354604080517f593557360000000000000000000000000000000000000000000000000000000081523360048201529051600092600160a060020a0316916359355736916024808301926020929190829003018186803b1580156128cd57600080fd5b505afa1580156128e1573d6000803e3d6000fd5b505050506040513d60208110156128f757600080fd5b50516003546040805160e060020a6370a08231028152336004820152905192935085928492600160a060020a0316916370a08231916024808301926020929190829003018186803b15801561294b57600080fd5b505afa15801561295f573d6000803e3d6000fd5b505050506040513d602081101561297557600080fd5b50510110156129ce576040805160e560020a62461bcd02815260206004820152601e60248201527f53436f696e2062616c616e636520697320696e73756666696369656e74210000604482015290519081900360640190fd5b60006129d9336112f3565b905060006129e5610f1b565b600354604080517f35f0c4fa000000000000000000000000000000000000000000000000000000008152336004820152602481018990526044810184905281519394506000938493600160a060020a0316926335f0c4fa926064808201939182900301818787803b158015612a5957600080fd5b505af1158015612a6d573d6000803e3d6000fd5b505050506040513d6040811015612a8357600080fd5b5080516020909101519703966000925090508615612adf5791829003918415612abb57848711612ab4576000612ab8565b8487035b96505b600080612ac88986615176565b90925090508115612adc5781935080830192505b50505b612aea868286615253565b8115612b7557600354604080517f9dc29fac000000000000000000000000000000000000000000000000000000008152336004820152602481018590529051600160a060020a0390921691639dc29fac9160448082019260009290919082900301818387803b158015612b5c57600080fd5b505af1158015612b70573d6000803e3d6000fd5b505050505b50506000805460ff191690555050505050565b60075460009015801590612bc5575033600160a060020a031660078281548110612bae57fe5b600091825260209091200154600160a060020a0316145b612c035760405160e560020a62461bcd028152600401808060200182810382526030815260200180615d246030913960400191505060405180910390fd5b6005546040517f2415e01000000000000000000000000000000000000000000000000000000000815260048101848152606060248301908152865160648401528651600160a060020a0390941693632415e0109387938993600193919290916044820191608401906020808801910280838360005b83811015612c90578181015183820152602001612c78565b505050509050018381038252848181548152602001915080548015612cde57602002820191906000526020600020905b8154600160a060020a03168152600190910190602001808311612cc0575b505095505050505050600060405180830381600087803b158015612d0157600080fd5b505af1158015612d15573d6000803e3d6000fd5b5050600654604080517f1f88286a000000000000000000000000000000000000000000000000000000008152600481019182526001805460448301819052600160a060020a039094169550631f88286a945092899291829160248201916064019086908015612dad57602002820191906000526020600020905b8154600160a060020a03168152600190910190602001808311612d8f575b50508381038252845181528451602091820191808701910280838360005b83811015612de3578181015183820152602001612dcb565b50505050905001945050505050600060405180830381600087803b158015612e0a57600080fd5b505af1158015612e1e573d6000803e3d6000fd5b5050505050505050565b60606000612e35836112f3565b9050606080612e9f85846001805480602002602001604051908101604052809291908181526020018280548015612e9557602002820191906000526020600020905b8154600160a060020a03168152600190910190602001808311612e77575b5050505050615475565b50600154919350915060005b81811015612f0b57612eec838281518110612ec257fe5b6020026020010151858381518110612ed657fe5b602002602001015161451e90919063ffffffff16565b848281518110612ef857fe5b6020908102919091010152600101612eab565b509195945050505050565b6000612f206122df565b612f62576040805160e560020a62461bcd0281526020600482018190526024820152600080516020615d54833981519152604482015290519081900360640190fd5b610eb060078363ffffffff6143ba16565b600d54600c549091565b600454600160a060020a031690565b600654604080517f6ba170b5000000000000000000000000000000000000000000000000000000008152600160a060020a038581166004830152848116602483015291516000939290921691636ba170b591604480820192602092909190829003018186803b158015612ffe57600080fd5b505afa158015613012573d6000803e3d6000fd5b505050506040513d602081101561302857600080fd5b505190505b92915050565b60075460009015801590613070575033600160a060020a03166007828154811061305957fe5b600091825260209091200154600160a060020a0316145b6130ae5760405160e560020a62461bcd028152600401808060200182810382526030815260200180615d246030913960400191505060405180910390fd5b6060600180548060200260200160405190810160405280929190818152602001828054801561310657602002820191906000526020600020905b8154600160a060020a031681526001909101906020018083116130e8575b50506005546040517f6a43c05e00000000000000000000000000000000000000000000000000000000815260206004820181815287516024840152875197985060009760609750600160a060020a039094169550636a43c05e945088939092839260449091019181860191028083838c5b8381101561318f578181015183820152602001613177565b505050509050019250505060006040518083038186803b1580156131b257600080fd5b505afa1580156131c6573d6000803e3d6000fd5b505050506040513d6000823e601f3d908101601f1916820160409081528110156131ef57600080fd5b81516020830180516040519294929383019291908464010000000082111561321657600080fd5b90830190602082018581111561322b57600080fd5b825186602082028301116401000000008211171561324857600080fd5b82525081516020918201928201910280838360005b8381101561327557818101518382015260200161325d565b50505050905001604052505050915091506000600560009054906101000a9004600160a060020a0316600160a060020a031663bec3107f6040518163ffffffff1660e060020a02815260040160206040518083038186803b1580156132d957600080fd5b505afa1580156132ed573d6000803e3d6000fd5b505050506040513d602081101561330357600080fd5b50516005546040517f32ab5c200000000000000000000000000000000000000000000000000000000081526004810183815260248201879052604482018490526080606483019081528851608484015288519495506060948594600094600160a060020a03909116936332ab5c209389938c9385938f939092909160a40190602085810191028083838e5b838110156133a657818101518382015260200161338e565b505050509050019550505050505060006040518083038186803b1580156133cc57600080fd5b505afa1580156133e0573d6000803e3d6000fd5b505050506040513d6000823e601f3d908101601f19168201604052606081101561340957600080fd5b810190808051604051939291908464010000000082111561342957600080fd5b90830190602082018581111561343e57600080fd5b825186602082028301116401000000008211171561345b57600080fd5b82525081516020918201928201910280838360005b83811015613488578181015183820152602001613470565b50505050905001604052602001805160405193929190846401000000008211156134b157600080fd5b9083019060208201858111156134c657600080fd5b82518660208202830111640100000000821117156134e357600080fd5b82525081516020918201928201910280838360005b838110156135105781810151838201526020016134f8565b50505050905001604052602001805190602001909291905050509250925092506060600560009054906101000a9004600160a060020a0316600160a060020a03166343674c3a8684888c6040518563ffffffff1660e060020a0281526004018085815260200184815260200183815260200180602001828103825283818151815260200191508051906020019060200280838360005b838110156135be5781810151838201526020016135a6565b505050509050019550505050505060006040518083038186803b1580156135e457600080fd5b505afa1580156135f8573d6000803e3d6000fd5b505050506040513d6000823e601f3d908101601f19168201604052602081101561362157600080fd5b810190808051604051939291908464010000000082111561364157600080fd5b90830190602082018581111561365657600080fd5b825186602082028301116401000000008211171561367357600080fd5b82525081516020918201928201910280838360005b838110156136a0578181015183820152602001613688565b50505050905001604052505050905060008090505b815181101561371b578181815181106136ca57fe5b60200260200101518782815181106136de57fe5b60200260200101518583815181106136f257fe5b6020026020010151030182828151811061370857fe5b60209081029190910101526001016136b5565b50613727848284612b88565b505050505050505050565b600b54600a549091565b600061374782612160565b8015610eb0575050600160a060020a031660009081526002602052604090205460019081161490565b600554600160a060020a031690565b6137876122df565b6137c9576040805160e560020a62461bcd0281526020600482018190526024820152600080516020615d54833981519152604482015290519081900360640190fd5b600160a060020a03909116600090815260026020526040902055565b600080600360009054906101000a9004600160a060020a0316600160a060020a03166318160ddd6040518163ffffffff1660e060020a02815260040160206040518083038186803b15801561383957600080fd5b505afa15801561384d573d6000803e3d6000fd5b505050506040513d602081101561386357600080fd5b5051905080613879576305f5e100915050610f18565b600081613884613eee565b8161388b57fe5b0490506064811161389d57606461389f565b805b9250505090565b600080600560009054906101000a9004600160a060020a0316600160a060020a03166373a3d4246040518163ffffffff1660e060020a02815260040160206040518083038186803b1580156138fa57600080fd5b505afa15801561390e573d6000803e3d6000fd5b505050506040513d602081101561392457600080fd5b50519050613931816144a8565b91505090565b60005460ff161561394757600080fd5b6000805460ff19166001179081905560a860020a900460ff16156139a3576040805160e560020a62461bcd0281526020600482015260176024820152600080516020615db8833981519152604482015290519081900360640190fd5b6139ac816148c5565b600554604080517f48ee201d000000000000000000000000000000000000000000000000000000008152600481018590529051600092839283928392600160a060020a0316916348ee201d9160248083019260e0929190829003018186803b158015613a1757600080fd5b505afa158015613a2b573d6000803e3d6000fd5b505050506040513d60e0811015613a4157600080fd5b5060408101516060820151608083015160a09093015191965094509092509050613a71824263ffffffff61491716565b60048054604080517fda66325700000000000000000000000000000000000000000000000000000000815263ffffffff88169381019390935251929450600092600160a060020a039091169163da663257916024808301926020929190829003018186803b158015613ae257600080fd5b505afa158015613af6573d6000803e3d6000fd5b505050506040513d6020811015613b0c57600080fd5b5051600854604080517f4b7d8e5c00000000000000000000000000000000000000000000000000000000815260048101849052602481018690526044810187905263ffffffff8816606482015260ff891660848201529051929350600092600160a060020a0390921691634b7d8e5c9160a480820192602092909190829003018186803b158015613b9c57600080fd5b505afa158015613bb0573d6000803e3d6000fd5b505050506040513d6020811015613bc657600080fd5b5051600554604080517f6ed82ec9000000000000000000000000000000000000000000000000000000008152336004820152602481018c9052604481018b9052606481018490529051929350600160a060020a0390911691636ed82ec99160848082019260009290919082900301818387803b158015613c4557600080fd5b505af1158015613c59573d6000803e3d6000fd5b5050600554604080517f597ce900000000000000000000000000000000000000000000000000000000008152600481018d9052602481018c90528151868d029550600094508493600160a060020a03169263597ce9009260448082019391829003018186803b158015613ccb57600080fd5b505afa158015613cdf573d6000803e3d6000fd5b505050506040513d6040811015613cf557600080fd5b5080516020909101516006546040805160e060020a63fee80a49028152600160a060020a038086166004830152602482018590529151949650929450169163fee80a499160448082019260009290919082900301818387803b158015613d5a57600080fd5b505af1158015613d6e573d6000803e3d6000fd5b50505050613d7d836001614972565b604080518b81526020810185905281518d9233927f4d6194525a1265d47b1d6b65f640509c7a2a8aa847fd0654fac933032e1348ac929081900390910190a350506000805460ff19169055505050505050505050565b6001546000908190815b81811015613ec857600060018281548110613df457fe5b600091825260208083209091015460048054604080517f41976e09000000000000000000000000000000000000000000000000000000008152600160a060020a0394851693810184905290519296509216926341976e099260248082019391829003018186803b158015613e6757600080fd5b505afa158015613e7b573d6000803e3d6000fd5b505050506040513d6020811015613e9157600080fd5b505190506000613ea083610f3a565b90508015613ebd57613eba8683830263ffffffff61437816565b95505b505050600101613ddd565b506000821215613ed957600061389f565b50919050565b600354600160a060020a031690565b6000610f35613efb613dd3565b600360009054906101000a9004600160a060020a0316600160a060020a031663dad3eb746040518163ffffffff1660e060020a02815260040160206040518083038186803b158015613f4c57600080fd5b505afa158015613f60573d6000803e3d6000fd5b505050506040513d6020811015613f7657600080fd5b505161435d565b6000610f35610f28613eee565b613f926122df565b613fd4576040805160e560020a62461bcd0281526020600482018190526024820152600080516020615d54833981519152604482015290519081900360640190fd5b60038054600160a060020a031916600160a060020a0392909216919091179055565b613ffe6122df565b614040576040805160e560020a62461bcd0281526020600482018190526024820152600080516020615d54833981519152604482015290519081900360640190fd5b806007838154811061404e57fe5b9060005260206000200160006101000a815481600160a060020a030219169083600160a060020a031602179055505050565b6140886122df565b6140ca576040805160e560020a62461bcd0281526020600482018190526024820152600080516020615d54833981519152604482015290519081900360640190fd5b6140db60018263ffffffff6150de16565b600160a060020a0316600090815260026020526040902063ffffffff9055565b60606007805480602002602001604051908101604052809291908181526020018280548015610f1057602002820191906000526020600020908154600160a060020a03168152600190910190602001808311610ef2575050505050905090565b6141636122df565b6141a5576040805160e560020a62461bcd0281526020600482018190526024820152600080516020615d54833981519152604482015290519081900360640190fd5b6126d3816158af565b6141b66122df565b6141f8576040805160e560020a62461bcd0281526020600482018190526024820152600080516020615d54833981519152604482015290519081900360640190fd5b6000805491151560a860020a0275ff00000000000000000000000000000000000000000019909216919091179055565b6142306122df565b614272576040805160e560020a62461bcd0281526020600482018190526024820152600080516020615d54833981519152604482015290519081900360640190fd5b61427b82614080565b600160a060020a03909116600090815260096020526040902055565b60015460009081908190815b81811015614334576000600182815481106142ba57fe5b6000918252602082200154600160a060020a031691506142d9826114fa565b90506142eb868263ffffffff61451e16565b600160a060020a0383166000908152600960205260409020549096506143289061431b908363ffffffff6144c516565b869063ffffffff61451e16565b945050506001016142a3565b831561434f5783838161434357fe5b04945050505050610f18565b611388945050505050610f18565b600081831161436d576000614371565b8183035b9392505050565b600061437183836040518060400160405280601d81526020017f53616665496e743235363a206164646974696f6e206f766572666c6f7700000081525061596a565b8154600090815b818110156144075783600160a060020a03168582815481106143df57fe5b600091825260209091200154600160a060020a031614156143ff57614407565b6001016143c1565b8181101561449d576001820381146144815784600183038154811061442857fe5b9060005260206000200160009054906101000a9004600160a060020a031685828154811061445257fe5b9060005260206000200160006101000a815481600160a060020a030219169083600160a060020a031602179055505b8454614491866000198301615c30565b5060019250505061302d565b506000949350505050565b60006103e8826144b6614297565b02816144be57fe5b0492915050565b60008115806144e0575050808202828282816144dd57fe5b04145b61302d5760405160e560020a62461bcd028152600401808060200182810382526021815260200180615d036021913960400191505060405180910390fd5b8082018281101561302d576040805160e560020a62461bcd02815260206004820152601b60248201527f536166654d6174683a206164646974696f6e206f766572666c6f770000000000604482015290519081900360640190fd5b60006145848361373c565b6145d8576040805160e560020a62461bcd02815260206004820152601f60248201527f736574746c656d656e7420697320756e737570706f7274656420746f6b656e00604482015290519081900360640190fd5b6000600160a060020a03841661462c57506006546040513491600160a060020a031690819083156108fc029084906000818181858888f19350505050158015614625573d6000803e3d6000fd5b50506148c0565b82156148c0576040805160e060020a6370a0823102815230600482015290518591600091600160a060020a038416916370a08231916024808301926020929190829003018186803b15801561468057600080fd5b505afa158015614694573d6000803e3d6000fd5b505050506040513d60208110156146aa57600080fd5b5051604080517f23b872dd000000000000000000000000000000000000000000000000000000008152336004820152306024820152604481018890529051919250600160a060020a038416916323b872dd916064808201926020929091908290030181600087803b15801561471e57600080fd5b505af1158015614732573d6000803e3d6000fd5b505050506040513d602081101561474857600080fd5b50506040805160e060020a6370a082310281523060048201529051600091600160a060020a038516916370a0823191602480820192602092909190829003018186803b15801561479757600080fd5b505afa1580156147ab573d6000803e3d6000fd5b505050506040513d60208110156147c157600080fd5b50519050818103861461481e576040805160e560020a62461bcd02815260206004820181905260248201527f736574746c656d656e7420746f6b656e207472616e73666572206572726f7221604482015290519081900360640190fd5b600654604080517fa9059cbb000000000000000000000000000000000000000000000000000000008152600160a060020a0392831660048201526024810189905290518896509185169163a9059cbb916044808201926020929091908290030181600087803b15801561489057600080fd5b505af11580156148a4573d6000803e3d6000fd5b505050506040513d60208110156148ba57600080fd5b50505050505b614371815b80600a54101580156148d9575080600b5411155b6126d35760405160e560020a62461bcd028152600401808060200182810382526029815260200180615cb96029913960400191505060405180910390fd5b8082038281111561302d576040805160e560020a62461bcd02815260206004820181905260248201527f536166654d6174683a20737562737472616374696f6e20756e646572666c6f77604482015290519081900360640190fd5b600154604080518281526020808402820101909152600091906060908280156149a5578160200160208202803883390190505b50905060005b82811015614ad9576000600182815481106149c257fe5b600091825260209091200154600160a060020a031690506149e4816004615a76565b15614ad05760048054604080517f41976e09000000000000000000000000000000000000000000000000000000008152600160a060020a03858116948201949094529051600093909216916341976e0991602480820192602092909190829003018186803b158015614a5557600080fd5b505afa158015614a69573d6000803e3d6000fd5b505050506040513d6020811015614a7f57600080fd5b50519050614a8c826114fa565b848481518110614a9857fe5b602002602001018181525050614acc848481518110614ab357fe5b602002602001015182028761451e90919063ffffffff16565b9550505b506001016149ab565b858410158015614ae95750600086115b614b275760405160e560020a62461bcd028152600401808060200182810382526023815260200180615d746023913960400191505060405180910390fd5b5060005b82811015614c1257600084614b5c88858581518110614b4657fe5b60200260200101516144c590919063ffffffff16565b81614b6357fe5b60065460018054939092049350600160a060020a031691632454047c91339186908110614b8c57fe5b60009182526020822001546040805160e060020a63ffffffff8716028152600160a060020a03948516600482015293909116602484015260448301869052606483018b90525160848084019382900301818387803b158015614bed57600080fd5b505af1158015614c01573d6000803e3d6000fd5b505060019093019250614b2b915050565b505050505050565b8151600090815b8181101561449d5783600160a060020a0316858281518110614c3f57fe5b6020026020010151600160a060020a03161415614c615760019250505061302d565b600101614c21565b68010000000000000000830284017001000000000000000000000000000000008302017801000000000000000000000000000000000000000000000000820201949350505050565b816103e8600c54830281614cc157fe5b0410158015614cdf5750816103e8600d54830281614cdb57fe5b0411155b6112ef5760405160e560020a62461bcd028152600401808060200182810382526021815260200180615ce26021913960400191505060405180910390fd5b614d278484614579565b92506000600460009054906101000a9004600160a060020a0316600160a060020a03166341976e09866040518263ffffffff1660e060020a0281526004018082600160a060020a0316600160a060020a0316815260200191505060206040518083038186803b158015614d9957600080fd5b505afa158015614dad573d6000803e3d6000fd5b505050506040513d6020811015614dc357600080fd5b505190508282026305f5e1008104828281614dda57fe5b600654604080517fc3c579cc000000000000000000000000000000000000000000000000000000008152600160a060020a038c811660048301529490930460248401819052600060448501819052915190965090939091169163c3c579cc91606480830192602092919082900301818787803b158015614e5957600080fd5b505af1158015614e6d573d6000803e3d6000fd5b505050506040513d6020811015614e8357600080fd5b50519050828101871015614ecb5760405160e560020a62461bcd028152600401808060200182810382526021815260200180615d976021913960400191505060405180910390fd5b614edd8784830163ffffffff61491716565b96508615614f7257600654604080517f9994eb14000000000000000000000000000000000000000000000000000000008152336004820152600160a060020a038b81166024830152604482018b905291519190921691639994eb1491606480830192600092919082900301818387803b158015614f5957600080fd5b505af1158015614f6d573d6000803e3d6000fd5b505050505b600554604080517fbec3107f0000000000000000000000000000000000000000000000000000000081529051600092600160a060020a03169163bec3107f916004808301926020929190829003018186803b158015614fd057600080fd5b505afa158015614fe4573d6000803e3d6000fd5b505050506040513d6020811015614ffa57600080fd5b5051600354604080517f8399d9f3000000000000000000000000000000000000000000000000000000008152336004820152602481018790529051929350600160a060020a0390911691638399d9f39160448082019260009290919082900301818387803b15801561506b57600080fd5b505af115801561507f573d6000803e3d6000fd5b5050604080518a8152602081018890528082018a90529051849350600160a060020a038d16925033917f09e4fd1b37f40234b903951f986d8b64cb9c99657348f04cda4a75fbe743684d919081900360600190a4505050505050505050565b6151418280548060200260200160405190810160405280929190818152602001828054801561513657602002820191906000526020600020905b8154600160a060020a03168152600190910190602001808311615118575b505050505082614c1a565b6112ef578154600181018355600083815260209020018054600160a060020a038316600160a060020a03199091161790555050565b60008060006151836137e5565b90508481028481111561524557600082868161519b57fe5b60035491900491508382029082890390600160a060020a0316634b91a07b33838881816151c457fe5b046040518463ffffffff1660e060020a0281526004018084600160a060020a0316600160a060020a031681526020018381526020018281526020019350505050600060405180830381600087803b15801561521e57600080fd5b505af1158015615232573d6000803e3d6000fd5b5094985092965061524c95505050505050565b8593509150505b9250929050565b8161525d57615470565b60408051600160a060020a038516815260208101849052815133927fc994feb9b99296d80965b47aec6be0d25704ddf95b9b9bc1ed8bc753960d5809928290030190a260606152ab84615a97565b905060608060606152bd338686615475565b925092509250600660009054906101000a9004600160a060020a0316600160a060020a031663a2fa92c73388878787876040518763ffffffff1660e060020a0281526004018087600160a060020a0316600160a060020a0316815260200186815260200180602001806020018060200180602001858103855289818151815260200191508051906020019060200280838360005b83811015615369578181015183820152602001615351565b50505050905001858103845288818151815260200191508051906020019060200280838360005b838110156153a8578181015183820152602001615390565b50505050905001858103835287818151815260200191508051906020019060200280838360005b838110156153e75781810151838201526020016153cf565b50505050905001858103825286818151815260200191508051906020019060200280838360005b8381101561542657818101518382015260200161540e565b505050509050019a5050505050505050505050600060405180830381600087803b15801561545357600080fd5b505af1158015615467573d6000803e3d6000fd5b50505050505050505b505050565b60608060608084516040519080825280602002602001820160405280156154a6578160200160208202803883390190505b509050606085516040519080825280602002602001820160405280156154d6578160200160208202803883390190505b50905060005b86518110156155fe576155038782815181106154f457fe5b60200260200101516002615a76565b1561553d5761552487828151811061551757fe5b60200260200101516114fa565b82828151811061553057fe5b6020026020010181815250505b6004548751600160a060020a03909116906341976e099089908490811061556057fe5b60200260200101516040518263ffffffff1660e060020a0281526004018082600160a060020a0316600160a060020a0316815260200191505060206040518083038186803b1580156155b157600080fd5b505afa1580156155c5573d6000803e3d6000fd5b505050506040513d60208110156155db57600080fd5b505183518490839081106155eb57fe5b60209081029190910101526001016154dc565b506006546040517f7a6a0277000000000000000000000000000000000000000000000000000000008152600160a060020a038a811660048301908152602483018b905260a0604484019081528a5160a48501528a516060958695941693637a6a0277938f938f938f938b938d93909290916064810191608482019160c401906020808a01910280838360005b838110156156a257818101518382015260200161568a565b50505050905001848103835286818151815260200191508051906020019060200280838360005b838110156156e15781810151838201526020016156c9565b50505050905001848103825285818151815260200191508051906020019060200280838360005b83811015615720578181015183820152602001615708565b505050509050019850505050505050505060006040518083038186803b15801561574957600080fd5b505afa15801561575d573d6000803e3d6000fd5b505050506040513d6000823e601f3d908101601f19168201604090815281101561578657600080fd5b81019080805160405193929190846401000000008211156157a657600080fd5b9083019060208201858111156157bb57600080fd5b82518660208202830111640100000000821117156157d857600080fd5b82525081516020918201928201910280838360005b838110156158055781810151838201526020016157ed565b505050509050016040526020018051604051939291908464010000000082111561582e57600080fd5b90830190602082018581111561584357600080fd5b825186602082028301116401000000008211171561586057600080fd5b82525081516020918201928201910280838360005b8381101561588d578181015183820152602001615875565b505050509190910160405250939e929d50969b50909950505050505050505050565b600160a060020a0381166158f75760405160e560020a62461bcd028152600401808060200182810382526026815260200180615c936026913960400191505060405180910390fd5b60008054604051600160a060020a038085169361010090930416917f8be0079c531659141344cd1fd0a4f28419497f9722a3daafe3b4186f6b6457e091a360008054600160a060020a039092166101000274ffffffffffffffffffffffffffffffffffffffff0019909216919091179055565b6000838301818512158285121514615983579050614371565b60008512615a23578285821215615a1b5760405160e560020a62461bcd0281526004018080602001828103825283818151815260200191508051906020019080838360005b838110156159e05781810151838201526020016159c8565b50505050905090810190601f168015615a0d5780820380516001836020036101000a031916815260200191505b509250505060405180910390fd5b509050614371565b8285821315615a1b5760405160e560020a62461bcd0281526020600482018181528351602484015283519092839260449091019190850190808383600083156159e05781810151838201526020016159c8565b600160a060020a039190911660009081526002602052604090205481161490565b6060806001805480602002602001604051908101604052809291908181526020018280548015615af057602002820191906000526020600020905b8154600160a060020a03168152600190910190602001808311615ad2575b505050505090506000615b038285615b82565b90508015615b7b5781600081518110615b1857fe5b6020026020010151828281518110615b2c57fe5b6020026020010190600160a060020a03169081600160a060020a0316815250508382600081518110615b5a57fe5b6020026020010190600160a060020a03169081600160a060020a0316815250505b5092915050565b8151600090815b818110156110785783600160a060020a0316858281518110615ba757fe5b6020026020010151600160a060020a03161415615bc357611078565b600101615b89565b828054828255906000526020600020908101928215615c20579160200282015b82811115615c205782518254600160a060020a031916600160a060020a03909116178255602090920191600190910190615beb565b50615c2c929150615c54565b5090565b81548183558181111561547057600083815260209020615470918101908301615c78565b610f1891905b80821115615c2c578054600160a060020a0319168155600101615c5a565b610f1891905b80821115615c2c5760008155600101615c7e56fe4f776e61626c653a206e6577206f776e657220697320746865207a65726f2061646472657373696e70757420616d6f756e74206973206f7574206f6620696e70757420616d6f756e742072616e6765737472696b655072696365206973206f7574206f662070726963652072616e6765536166654d6174683a206d756c7469706c69636174696f6e206f766572666c6f774d616e6167657261626c653a2063616c6c6572206973206e6f742074686520656c696769626c65204f70657261746f724f776e61626c653a2063616c6c6572206973206e6f7420746865206f776e65727061796261636b20736574746c656d656e7420697320696e73756666696369656e7421736574746c656d656e7420617373657420697320696e73756666696369656e74215468697320636f6e74726163742069732068616c746564000000000000000000a265627a7a7231582087945b77af49487510c4bf940f5082ba6dd7658dedf89b174771074e6ae7122f64736f6c63430005100032",
  "source": "pragma solidity ^0.5.1;\r\nimport \"../modules/SafeMath.sol\";\r\nimport \"./CollateralCal.sol\";\r\nimport \"../modules/tuple64.sol\";\r\n/**\r\n * @title Options manager contract for finnexus proposal v2.\r\n * @dev A Smart-contract to manage Options pool, collatral pool, mine pool, FPTCoin, etc.\r\n *\r\n */\r\ncontract OptionsManagerV2 is CollateralCal {\r\n    using SafeMath for uint256;\r\n\r\n    /**\r\n    * @dev Options manager constructor. set other contract address\r\n    * @param oracleAddr fnx oracle contract address.\r\n    * @param optionsPriceAddr options price contract address\r\n    * @param optionsPoolAddr optoins pool contract address\r\n    * @param FPTCoinAddr FPTCoin contract address\r\n    */\r\n    constructor (address oracleAddr,address optionsPriceAddr,address optionsPoolAddr,address collateralPoolAddr,address FPTCoinAddr) public{\r\n        _oracle = IFNXOracle(oracleAddr);\r\n        _optionsPrice = IOptionsPrice(optionsPriceAddr);\r\n        _optionsPool = IOptionsPool(optionsPoolAddr);\r\n        _collateralPool = ICollateralPool(collateralPoolAddr);\r\n        _FPTCoin = IFPTCoin(FPTCoinAddr);\r\n    }\r\n    function initialize() public {\r\n        \r\n    }\r\n    /**\r\n    * @dev retrieve input price valid range rate, thousandths.\r\n    */ \r\n    function getPriceRateRange() public view returns(uint256,uint256) {\r\n        return (minPriceRate,maxPriceRate);\r\n    }\r\n    /**\r\n    * @dev set input price valid range rate, thousandths.\r\n    */ \r\n    function setPriceRateRange(uint256 _minPriceRate,uint256 _maxPriceRate) public onlyOwner{\r\n        minPriceRate = _minPriceRate;\r\n        maxPriceRate = _maxPriceRate;\r\n    }\r\n    /**\r\n    * @dev check user input price is in valid range.\r\n    * @param strikePrice user input strikePrice\r\n    * @param underlyingPrice current underlying price.\r\n    */ \r\n    function checkStrikePrice(uint256 strikePrice,uint256 underlyingPrice)internal view{\r\n        require(underlyingPrice*maxPriceRate/1000>=strikePrice && underlyingPrice*minPriceRate/1000<=strikePrice,\r\n                \"strikePrice is out of price range\");\r\n    }\r\n    /**\r\n    * @dev user buy option and create new option.\r\n    * @param settlement user's settement coin address\r\n    * @param settlementAmount amount of settlement user want fo pay.\r\n    * @param strikePrice user input option's strike price\r\n    * @param underlying user input option's underlying id, 1 for BTC,2 for ETH\r\n    * @param expiration user input expiration,time limit from now\r\n    * @param amount user input amount of new option user want to buy.\r\n    * @param optType user input option type\r\n    */ \r\n    function buyOption(address settlement,uint256 settlementAmount, uint256 strikePrice,uint32 underlying,\r\n                uint256 expiration,uint256 amount,uint8 optType) nonReentrant notHalted public payable{\r\n        _optionsPool.buyOptionCheck(expiration,underlying);\r\n        uint256 ty_ly_exp = tuple64.getTuple(uint256(optType),uint256(underlying),uint256(expiration),0);\r\n        uint256 underlyingPrice = _oracle.getUnderlyingPrice(underlying);\r\n        checkStrikePrice(strikePrice,underlyingPrice);\r\n        uint256 optionPrice = _optionsPrice.getOptionsPrice(underlyingPrice,strikePrice,expiration,underlying,optType); \r\n        require(getAvailableCollateral()>=calOptionsOccupied(strikePrice,underlyingPrice,amount,optType),\"collateral is insufficient!\");\r\n        _optionsPool.createOptions(msg.sender,settlement,ty_ly_exp,strikePrice,optionPrice,amount);\r\n        buyOption_sub(settlement,settlementAmount,optionPrice,amount);\r\n    }\r\n    /**\r\n    * @dev subfunction of buy option.\r\n    * @param settlement user's settement coin address\r\n    * @param settlementAmount amount of settlement user want fo pay.\r\n    * @param optionPrice new option's price\r\n    * @param amount user input amount of new option user want to buy.\r\n    */ \r\n    function buyOption_sub(address settlement,uint256 settlementAmount,\r\n            uint256 optionPrice,uint256 amount)internal{\r\n        settlementAmount = getPayableAmount(settlement,settlementAmount);\r\n        uint256 settlePrice = _oracle.getPrice(settlement);\r\n        uint256 allPay = amount*optionPrice;\r\n        uint256 allPayUSd = allPay/1e8;\r\n        allPay = allPay/settlePrice;\r\n        uint256 fee = _collateralPool.addTransactionFee(settlement,allPay,0);\r\n        require(settlementAmount>=allPay+fee,\"settlement asset is insufficient!\");\r\n        settlementAmount = settlementAmount.sub(allPay+fee);\r\n        if (settlementAmount > 0){\r\n            _collateralPool.transferPayback(msg.sender,settlement,settlementAmount);\r\n        }\r\n        uint256 id =_optionsPool.getOptionInfoLength();\r\n        _FPTCoin.addMinerBalance(msg.sender,allPayUSd);\r\n        emit BuyOption(msg.sender,settlement,id,optionPrice,allPay,amount); \r\n    }\r\n    /**\r\n    * @dev User sell option.\r\n    * @param optionsId option's ID which was wanted to sell, must owned by user\r\n    * @param amount user input amount of option user want to sell.\r\n    */ \r\n    function sellOption(uint256 optionsId,uint256 amount) nonReentrant notHalted public{\r\n        checkInputAmount(amount);\r\n        (,,uint8 optType,uint32 underlying,uint256 expiration,uint256 strikePrice,) = _optionsPool.getOptionsById(optionsId);\r\n        expiration = expiration.sub(now);\r\n        uint256 currentPrice = _oracle.getUnderlyingPrice(underlying);\r\n        uint256 optPrice = _optionsPrice.getOptionsPrice(currentPrice,strikePrice,expiration,underlying,optType);\r\n        _optionsPool.burnOptions(msg.sender,optionsId,amount,optPrice);\r\n        uint256 allPay = optPrice*amount;\r\n        (address settlement,uint256 fullPay) = _optionsPool.getBurnedFullPay(optionsId,amount);\r\n        _collateralPool.addNetWorthBalance(settlement,int256(fullPay));\r\n        _paybackWorth(allPay,1);\r\n        emit SellOption(msg.sender,optionsId,amount,allPay);\r\n    }\r\n    /**\r\n    * @dev User exercise option.\r\n    * @param optionsId option's ID which was wanted to exercise, must owned by user\r\n    * @param amount user input amount of option user want to exercise.\r\n    */ \r\n    function exerciseOption(uint256 optionsId,uint256 amount) nonReentrant notHalted public{\r\n        checkInputAmount(amount);\r\n        uint256 allPay = _optionsPool.getExerciseWorth(optionsId,amount);\r\n        require(allPay > 0,\"This option cannot exercise\");\r\n        (,,uint8 optType,uint32 underlying,uint256 expiration,uint256 strikePrice,) = _optionsPool.getOptionsById(optionsId);\r\n        expiration = expiration.sub(now);\r\n        uint256 currentPrice = _oracle.getUnderlyingPrice(underlying);\r\n        uint256 optPrice = _optionsPrice.getOptionsPrice(currentPrice,strikePrice,expiration,underlying,optType);\r\n        _optionsPool.burnOptions(msg.sender,optionsId,amount,optPrice);\r\n        (address settlement,uint256 fullPay) = _optionsPool.getBurnedFullPay(optionsId,amount);\r\n        _collateralPool.addNetWorthBalance(settlement,int256(fullPay));\r\n        _paybackWorth(allPay,2);\r\n        emit ExerciseOption(msg.sender,optionsId,amount,allPay);\r\n    }\r\n}",
  "sourcePath": "C:\\work\\solidity\\FinnexusOptions_V2\\contracts\\OptionsManager\\OptionsManagerV2.sol",
  "compiler": {
    "name": "solc",
    "version": "0.5.16+commit.9c3226ce.Emscripten.clang"
  },
  "schemaVersion": "3.1.0",
  "updatedAt": "2020-09-02T10:47:05.617Z",
  "devdoc": {
    "details": "A Smart-contract to manage Options pool, collatral pool, mine pool, FPTCoin, etc.  ",
    "methods": {
      "addCollateral(address,uint256)": {
        "details": "Deposit collateral in this pool from user.",
        "params": {
          "amount": "the amount of collateral to deposit.",
          "collateral": "The collateral coin address which is in whitelist."
        }
      },
      "addNetBalance(address,uint256)": {
        "details": "The foundation operator want to add some coin to netbalance, which can increase the FPTCoin net worth.",
        "params": {
          "amount": "the amount of the settlement coin which the foundation operator want to transfer in this contract address.",
          "settlement": "the settlement coin address which the foundation operator want to transfer in this contract address."
        }
      },
      "addOperator(address)": {
        "details": "add a new operator by owner.       "
      },
      "addWhiteList(address)": {
        "details": "Implementation of add an eligible address into the whitelist.",
        "params": {
          "addAddress": "new eligible address."
        }
      },
      "buyOption(address,uint256,uint256,uint32,uint256,uint256,uint8)": {
        "details": "user buy option and create new option.",
        "params": {
          "amount": "user input amount of new option user want to buy.",
          "expiration": "user input expiration,time limit from now",
          "optType": "user input option type",
          "settlement": "user's settement coin address",
          "settlementAmount": "amount of settlement user want fo pay.",
          "strikePrice": "user input option's strike price",
          "underlying": "user input option's underlying id, 1 for BTC,2 for ETH"
        }
      },
      "calCollateralWorth(address)": {
        "details": "Retrieve user's collateral worth in all collateral coin.  If user want to redeem all his collateral,and the vacant collateral is sufficient, He can redeem each collateral amount in return list.",
        "params": {
          "account": "the retrieve user's account;"
        }
      },
      "calOptionsOccupied(uint256,uint256,uint256,uint8)": {
        "details": "The auxiliary function for calculate option occupied. ",
        "params": {
          "amount": "option's amount",
          "optType": "option's type, 0 for call, 1 for put.",
          "strikePrice": "option's strike price",
          "underlyingPrice": "option's underlying price"
        }
      },
      "calSharedPayment()": {
        "details": "Calculate the collateral pool shared worth. The foundation operator will invoke this function frequently"
      },
      "calculateCollateralRate()": {
        "details": "collateral occupation rate calculation     collateral occupation rate = sum(collateral Rate * collateral balance) / sum(collateral balance)"
      },
      "constructor": {
        "details": "Options manager constructor. set other contract address",
        "params": {
          "FPTCoinAddr": "FPTCoin contract address",
          "optionsPoolAddr": "optoins pool contract address",
          "optionsPriceAddr": "options price contract address",
          "oracleAddr": "fnx oracle contract address."
        }
      },
      "exerciseOption(uint256,uint256)": {
        "details": "User exercise option.",
        "params": {
          "amount": "user input amount of option user want to exercise.",
          "optionsId": "option's ID which was wanted to exercise, must owned by user"
        }
      },
      "getAvailableCollateral()": {
        "details": "Retrieve the available collateral worth, the worth of collateral which can used for buy options, priced in USD. "
      },
      "getCollateralRate(address)": {
        "details": "Get the minimum collateral occupation rate."
      },
      "getInputAmountRange()": {
        "details": "get the valid range of input amount"
      },
      "getLeftCollateral()": {
        "details": "Retrieve the left collateral worth, the worth of collateral which can used for redeem collateral, priced in USD. "
      },
      "getOccupiedCollateral()": {
        "details": "Retrieve the occupied collateral worth, multiplied by minimum collateral rate, priced in USD. "
      },
      "getOperator()": {
        "details": "get all operators.       "
      },
      "getPriceRateRange()": {
        "details": "retrieve input price valid range rate, thousandths."
      },
      "getRealBalance(address)": {
        "details": "Retrieve the balance of collateral, the auxiliary function for the total collateral calculation. "
      },
      "getTokenNetworth()": {
        "details": "Retrieve FPTCoin's net worth, priced in USD."
      },
      "getTotalCollateral()": {
        "details": "Retrieve the total collateral worth, priced in USD. "
      },
      "getUnlockedCollateral()": {
        "details": "Retrieve the unlocked collateral worth, the worth of collateral which currently used for options, priced in USD. "
      },
      "getUserPayingUsd(address)": {
        "details": "Retrieve user's cost of collateral, priced in USD.",
        "params": {
          "user": "input retrieved account "
        }
      },
      "getUserTotalWorth(address)": {
        "details": "Retrieve user's current total worth, priced in USD.",
        "params": {
          "account": "input retrieve account"
        }
      },
      "getWhiteList()": {
        "details": "Implementation of getting the eligible whitelist."
      },
      "isEligibleAddress(address)": {
        "details": "Implementation of testing whether the input address is eligible.",
        "params": {
          "tmpAddress": "input address for testing."
        }
      },
      "isOwner()": {
        "details": "Returns true if the caller is the current owner."
      },
      "owner()": {
        "details": "Returns the address of the current owner."
      },
      "redeemCollateral(uint256,address)": {
        "details": "redeem collateral from this pool, user can input the prioritized collateral,he will get this coin, if this coin is unsufficient, he will get others collateral which in whitelist.",
        "params": {
          "collateral": "The prioritized collateral coin address.",
          "tokenAmount": "the amount of FPTCoin want to redeem."
        }
      },
      "removeOperator(address)": {
        "details": "remove operator by owner.       "
      },
      "removeWhiteList(address)": {
        "details": "Implementation of revoke an invalid address from the whitelist.",
        "params": {
          "removeAddress": "revoked address."
        }
      },
      "renounceOwnership()": {
        "details": "Leaves the contract without owner. It will not be possible to call `onlyOwner` functions anymore. Can only be called by the current owner.      * NOTE: Renouncing ownership will leave the contract without an owner, thereby removing any functionality that is only available to the owner."
      },
      "sellOption(uint256,uint256)": {
        "details": "User sell option.",
        "params": {
          "amount": "user input amount of option user want to sell.",
          "optionsId": "option's ID which was wanted to sell, must owned by user"
        }
      },
      "setCollateralRate(address,uint256)": {
        "details": "The foundation owner want to set the minimum collateral occupation rate.",
        "params": {
          "colRate": "The thousandths of the minimum collateral occupation rate.",
          "collateral": "collateral coin address"
        }
      },
      "setInputAmountRange(uint256,uint256)": {
        "details": "set the valid range of input amount",
        "params": {
          "_maxAmount": "the maximum input amount limit",
          "_minAmount": "the minimum input amount limit"
        }
      },
      "setOperator(address[])": {
        "details": "set all operators by owner.       "
      },
      "setOperator(uint256,address)": {
        "details": "modify indexed operator by owner.       "
      },
      "setPriceRateRange(uint256,uint256)": {
        "details": "set input price valid range rate, thousandths."
      },
      "setSharedPayment(int256[],int256[],uint256)": {
        "details": "Set the calculation results of the collateral pool shared worth. The foundation operator will invoke this function frequently",
        "params": {
          "firstOption": "The new first unexpired option's index.",
          "newNetworth": "Current expired options' net worth ",
          "sharedBalances": "All unexpired options' shared balance distributed by time."
        }
      },
      "transferOwnership(address)": {
        "details": "Transfers ownership of the contract to a new account (`newOwner`). Can only be called by the current owner."
      },
      "userInputCollateral(address,address)": {
        "details": "Retrieve user's amount of the specified collateral.",
        "params": {
          "collateral": "input retrieved collateral coin address ",
          "user": "input retrieved account "
        }
      }
    },
    "title": "Options manager contract for finnexus proposal v2."
  },
  "userdoc": {
    "methods": {
      "setHalt(bool)": {
        "notice": "function Emergency situation that requires contribution period to stop or not."
      }
    }
  }
}