{
  "contractName": "OptionsNetWorthCal",
  "abi": [
    {
      "anonymous": false,
      "inputs": [
        {
          "indexed": true,
          "internalType": "address",
          "name": "owner",
          "type": "address"
        },
        {
          "indexed": true,
          "internalType": "uint256",
          "name": "optionID",
          "type": "uint256"
        },
        {
          "indexed": false,
          "internalType": "uint256",
          "name": "amount",
          "type": "uint256"
        }
      ],
      "name": "BurnOption",
      "type": "event"
    },
    {
      "anonymous": false,
      "inputs": [
        {
          "indexed": true,
          "internalType": "address",
          "name": "owner",
          "type": "address"
        },
        {
          "indexed": true,
          "internalType": "uint256",
          "name": "optionID",
          "type": "uint256"
        },
        {
          "indexed": false,
          "internalType": "uint8",
          "name": "optType",
          "type": "uint8"
        },
        {
          "indexed": false,
          "internalType": "uint32",
          "name": "underlying",
          "type": "uint32"
        },
        {
          "indexed": false,
          "internalType": "uint256",
          "name": "expiration",
          "type": "uint256"
        },
        {
          "indexed": false,
          "internalType": "uint256",
          "name": "strikePrice",
          "type": "uint256"
        },
        {
          "indexed": false,
          "internalType": "uint256",
          "name": "amount",
          "type": "uint256"
        }
      ],
      "name": "CreateOption",
      "type": "event"
    },
    {
      "anonymous": false,
      "inputs": [
        {
          "indexed": true,
          "internalType": "address",
          "name": "previousOwner",
          "type": "address"
        },
        {
          "indexed": true,
          "internalType": "address",
          "name": "newOwner",
          "type": "address"
        }
      ],
      "name": "OwnershipTransferred",
      "type": "event"
    },
    {
      "constant": false,
      "inputs": [
        {
          "internalType": "uint256",
          "name": "expiration",
          "type": "uint256"
        }
      ],
      "name": "addExpiration",
      "outputs": [],
      "payable": false,
      "stateMutability": "nonpayable",
      "type": "function"
    },
    {
      "constant": false,
      "inputs": [
        {
          "internalType": "address",
          "name": "addAddress",
          "type": "address"
        }
      ],
      "name": "addOperator",
      "outputs": [],
      "payable": false,
      "stateMutability": "nonpayable",
      "type": "function"
    },
    {
      "constant": false,
      "inputs": [
        {
          "internalType": "uint32",
          "name": "underlying",
          "type": "uint32"
        }
      ],
      "name": "addUnderlyingAsset",
      "outputs": [],
      "payable": false,
      "stateMutability": "nonpayable",
      "type": "function"
    },
    {
      "constant": true,
      "inputs": [
        {
          "internalType": "uint256",
          "name": "expiration",
          "type": "uint256"
        },
        {
          "internalType": "uint32",
          "name": "underlying",
          "type": "uint32"
        }
      ],
      "name": "buyOptionCheck",
      "outputs": [],
      "payable": false,
      "stateMutability": "view",
      "type": "function"
    },
    {
      "constant": true,
      "inputs": [
        {
          "internalType": "uint256",
          "name": "lastOption",
          "type": "uint256"
        },
        {
          "internalType": "uint256",
          "name": "beginOption",
          "type": "uint256"
        },
        {
          "internalType": "uint256",
          "name": "endOption",
          "type": "uint256"
        }
      ],
      "name": "calculatePhaseOccupiedCollateral",
      "outputs": [
        {
          "internalType": "uint256",
          "name": "",
          "type": "uint256"
        },
        {
          "internalType": "uint256",
          "name": "",
          "type": "uint256"
        },
        {
          "internalType": "bool",
          "name": "",
          "type": "bool"
        }
      ],
      "payable": false,
      "stateMutability": "view",
      "type": "function"
    },
    {
      "constant": true,
      "inputs": [
        {
          "internalType": "uint256",
          "name": "expiration",
          "type": "uint256"
        }
      ],
      "name": "checkExpiration",
      "outputs": [],
      "payable": false,
      "stateMutability": "view",
      "type": "function"
    },
    {
      "constant": true,
      "inputs": [],
      "name": "getBurnTimeLimit",
      "outputs": [
        {
          "internalType": "uint256",
          "name": "",
          "type": "uint256"
        }
      ],
      "payable": false,
      "stateMutability": "view",
      "type": "function"
    },
    {
      "constant": true,
      "inputs": [
        {
          "internalType": "uint256",
          "name": "optionID",
          "type": "uint256"
        },
        {
          "internalType": "uint256",
          "name": "amount",
          "type": "uint256"
        }
      ],
      "name": "getBurnedFullPay",
      "outputs": [
        {
          "internalType": "address",
          "name": "",
          "type": "address"
        },
        {
          "internalType": "uint256",
          "name": "",
          "type": "uint256"
        }
      ],
      "payable": false,
      "stateMutability": "view",
      "type": "function"
    },
    {
      "constant": true,
      "inputs": [
        {
          "internalType": "uint256",
          "name": "optionsId",
          "type": "uint256"
        },
        {
          "internalType": "uint256",
          "name": "amount",
          "type": "uint256"
        }
      ],
      "name": "getExerciseWorth",
      "outputs": [
        {
          "internalType": "uint256",
          "name": "",
          "type": "uint256"
        }
      ],
      "payable": false,
      "stateMutability": "view",
      "type": "function"
    },
    {
      "constant": true,
      "inputs": [],
      "name": "getExpirationList",
      "outputs": [
        {
          "internalType": "uint256[]",
          "name": "",
          "type": "uint256[]"
        }
      ],
      "payable": false,
      "stateMutability": "view",
      "type": "function"
    },
    {
      "constant": true,
      "inputs": [],
      "name": "getManager",
      "outputs": [
        {
          "internalType": "address",
          "name": "",
          "type": "address"
        }
      ],
      "payable": false,
      "stateMutability": "view",
      "type": "function"
    },
    {
      "constant": true,
      "inputs": [],
      "name": "getOccupiedCalInfo",
      "outputs": [
        {
          "internalType": "uint256",
          "name": "",
          "type": "uint256"
        },
        {
          "internalType": "int256",
          "name": "",
          "type": "int256"
        }
      ],
      "payable": false,
      "stateMutability": "view",
      "type": "function"
    },
    {
      "constant": true,
      "inputs": [],
      "name": "getOperator",
      "outputs": [
        {
          "internalType": "address[]",
          "name": "",
          "type": "address[]"
        }
      ],
      "payable": false,
      "stateMutability": "view",
      "type": "function"
    },
    {
      "constant": true,
      "inputs": [],
      "name": "getOptionInfoLength",
      "outputs": [
        {
          "internalType": "uint256",
          "name": "",
          "type": "uint256"
        }
      ],
      "payable": false,
      "stateMutability": "view",
      "type": "function"
    },
    {
      "constant": true,
      "inputs": [
        {
          "internalType": "uint256",
          "name": "from",
          "type": "uint256"
        },
        {
          "internalType": "uint256",
          "name": "size",
          "type": "uint256"
        }
      ],
      "name": "getOptionInfoList",
      "outputs": [
        {
          "internalType": "address[]",
          "name": "",
          "type": "address[]"
        },
        {
          "internalType": "uint256[]",
          "name": "",
          "type": "uint256[]"
        },
        {
          "internalType": "uint256[]",
          "name": "",
          "type": "uint256[]"
        },
        {
          "internalType": "uint256[]",
          "name": "",
          "type": "uint256[]"
        },
        {
          "internalType": "uint256[]",
          "name": "",
          "type": "uint256[]"
        }
      ],
      "payable": false,
      "stateMutability": "view",
      "type": "function"
    },
    {
      "constant": true,
      "inputs": [
        {
          "internalType": "uint256[]",
          "name": "ids",
          "type": "uint256[]"
        }
      ],
      "name": "getOptionInfoListFromID",
      "outputs": [
        {
          "internalType": "address[]",
          "name": "",
          "type": "address[]"
        },
        {
          "internalType": "uint256[]",
          "name": "",
          "type": "uint256[]"
        },
        {
          "internalType": "uint256[]",
          "name": "",
          "type": "uint256[]"
        },
        {
          "internalType": "uint256[]",
          "name": "",
          "type": "uint256[]"
        },
        {
          "internalType": "uint256[]",
          "name": "",
          "type": "uint256[]"
        }
      ],
      "payable": false,
      "stateMutability": "view",
      "type": "function"
    },
    {
      "constant": true,
      "inputs": [
        {
          "internalType": "uint256",
          "name": "optionsId",
          "type": "uint256"
        }
      ],
      "name": "getOptionsById",
      "outputs": [
        {
          "internalType": "uint256",
          "name": "",
          "type": "uint256"
        },
        {
          "internalType": "address",
          "name": "",
          "type": "address"
        },
        {
          "internalType": "uint8",
          "name": "",
          "type": "uint8"
        },
        {
          "internalType": "uint32",
          "name": "",
          "type": "uint32"
        },
        {
          "internalType": "uint256",
          "name": "",
          "type": "uint256"
        },
        {
          "internalType": "uint256",
          "name": "",
          "type": "uint256"
        },
        {
          "internalType": "uint256",
          "name": "",
          "type": "uint256"
        }
      ],
      "payable": false,
      "stateMutability": "view",
      "type": "function"
    },
    {
      "constant": true,
      "inputs": [
        {
          "internalType": "uint256",
          "name": "optionsId",
          "type": "uint256"
        }
      ],
      "name": "getOptionsExtraById",
      "outputs": [
        {
          "internalType": "uint256",
          "name": "",
          "type": "uint256"
        },
        {
          "internalType": "address",
          "name": "",
          "type": "address"
        },
        {
          "internalType": "uint256",
          "name": "",
          "type": "uint256"
        },
        {
          "internalType": "uint256",
          "name": "",
          "type": "uint256"
        },
        {
          "internalType": "uint256",
          "name": "",
          "type": "uint256"
        },
        {
          "internalType": "uint256",
          "name": "",
          "type": "uint256"
        },
        {
          "internalType": "uint256",
          "name": "",
          "type": "uint256"
        }
      ],
      "payable": false,
      "stateMutability": "view",
      "type": "function"
    },
    {
      "constant": true,
      "inputs": [
        {
          "internalType": "uint256",
          "name": "optionsId",
          "type": "uint256"
        }
      ],
      "name": "getOptionsLimitTimeById",
      "outputs": [
        {
          "internalType": "uint256",
          "name": "",
          "type": "uint256"
        }
      ],
      "payable": false,
      "stateMutability": "view",
      "type": "function"
    },
    {
      "constant": true,
      "inputs": [],
      "name": "getOptionsPriceAddress",
      "outputs": [
        {
          "internalType": "address",
          "name": "",
          "type": "address"
        }
      ],
      "payable": false,
      "stateMutability": "view",
      "type": "function"
    },
    {
      "constant": true,
      "inputs": [],
      "name": "getOracleAddress",
      "outputs": [
        {
          "internalType": "address",
          "name": "",
          "type": "address"
        }
      ],
      "payable": false,
      "stateMutability": "view",
      "type": "function"
    },
    {
      "constant": true,
      "inputs": [],
      "name": "getTotalOccupiedCollateral",
      "outputs": [
        {
          "internalType": "uint256",
          "name": "",
          "type": "uint256"
        }
      ],
      "payable": false,
      "stateMutability": "view",
      "type": "function"
    },
    {
      "constant": true,
      "inputs": [],
      "name": "getUnderlyingAssets",
      "outputs": [
        {
          "internalType": "uint32[]",
          "name": "",
          "type": "uint32[]"
        }
      ],
      "payable": false,
      "stateMutability": "view",
      "type": "function"
    },
    {
      "constant": true,
      "inputs": [
        {
          "internalType": "address",
          "name": "user",
          "type": "address"
        }
      ],
      "name": "getUserOptionsID",
      "outputs": [
        {
          "internalType": "uint256[]",
          "name": "",
          "type": "uint256[]"
        }
      ],
      "payable": false,
      "stateMutability": "view",
      "type": "function"
    },
    {
      "constant": true,
      "inputs": [
        {
          "internalType": "address",
          "name": "user",
          "type": "address"
        },
        {
          "internalType": "uint256",
          "name": "from",
          "type": "uint256"
        },
        {
          "internalType": "uint256",
          "name": "size",
          "type": "uint256"
        }
      ],
      "name": "getUserOptionsID",
      "outputs": [
        {
          "internalType": "uint256[]",
          "name": "",
          "type": "uint256[]"
        }
      ],
      "payable": false,
      "stateMutability": "view",
      "type": "function"
    },
    {
      "constant": true,
      "inputs": [],
      "name": "getVolatilityAddress",
      "outputs": [
        {
          "internalType": "address",
          "name": "",
          "type": "address"
        }
      ],
      "payable": false,
      "stateMutability": "view",
      "type": "function"
    },
    {
      "constant": false,
      "inputs": [],
      "name": "initialize",
      "outputs": [],
      "payable": false,
      "stateMutability": "nonpayable",
      "type": "function"
    },
    {
      "constant": true,
      "inputs": [
        {
          "internalType": "uint256",
          "name": "expiration",
          "type": "uint256"
        }
      ],
      "name": "isEligibleExpiration",
      "outputs": [
        {
          "internalType": "bool",
          "name": "",
          "type": "bool"
        }
      ],
      "payable": false,
      "stateMutability": "view",
      "type": "function"
    },
    {
      "constant": true,
      "inputs": [
        {
          "internalType": "uint32",
          "name": "underlying",
          "type": "uint32"
        }
      ],
      "name": "isEligibleUnderlyingAsset",
      "outputs": [
        {
          "internalType": "bool",
          "name": "",
          "type": "bool"
        }
      ],
      "payable": false,
      "stateMutability": "view",
      "type": "function"
    },
    {
      "constant": true,
      "inputs": [],
      "name": "isOwner",
      "outputs": [
        {
          "internalType": "bool",
          "name": "",
          "type": "bool"
        }
      ],
      "payable": false,
      "stateMutability": "view",
      "type": "function"
    },
    {
      "constant": true,
      "inputs": [],
      "name": "owner",
      "outputs": [
        {
          "internalType": "address",
          "name": "",
          "type": "address"
        }
      ],
      "payable": false,
      "stateMutability": "view",
      "type": "function"
    },
    {
      "constant": false,
      "inputs": [
        {
          "internalType": "uint256",
          "name": "removeExpiration",
          "type": "uint256"
        }
      ],
      "name": "removeExpirationList",
      "outputs": [
        {
          "internalType": "bool",
          "name": "",
          "type": "bool"
        }
      ],
      "payable": false,
      "stateMutability": "nonpayable",
      "type": "function"
    },
    {
      "constant": false,
      "inputs": [
        {
          "internalType": "address",
          "name": "removeAddress",
          "type": "address"
        }
      ],
      "name": "removeOperator",
      "outputs": [
        {
          "internalType": "bool",
          "name": "",
          "type": "bool"
        }
      ],
      "payable": false,
      "stateMutability": "nonpayable",
      "type": "function"
    },
    {
      "constant": false,
      "inputs": [
        {
          "internalType": "uint32",
          "name": "removeUnderlying",
          "type": "uint32"
        }
      ],
      "name": "removeUnderlyingAssets",
      "outputs": [
        {
          "internalType": "bool",
          "name": "",
          "type": "bool"
        }
      ],
      "payable": false,
      "stateMutability": "nonpayable",
      "type": "function"
    },
    {
      "constant": false,
      "inputs": [],
      "name": "renounceOwnership",
      "outputs": [],
      "payable": false,
      "stateMutability": "nonpayable",
      "type": "function"
    },
    {
      "constant": false,
      "inputs": [
        {
          "internalType": "uint256",
          "name": "timeLimit",
          "type": "uint256"
        }
      ],
      "name": "setBurnTimeLimit",
      "outputs": [],
      "payable": false,
      "stateMutability": "nonpayable",
      "type": "function"
    },
    {
      "constant": false,
      "inputs": [
        {
          "internalType": "uint256",
          "name": "totalOccupied",
          "type": "uint256"
        },
        {
          "internalType": "uint256",
          "name": "beginOption",
          "type": "uint256"
        },
        {
          "internalType": "int256",
          "name": "latestOccpied",
          "type": "int256"
        }
      ],
      "name": "setCollateralPhase",
      "outputs": [],
      "payable": false,
      "stateMutability": "nonpayable",
      "type": "function"
    },
    {
      "constant": false,
      "inputs": [
        {
          "internalType": "address",
          "name": "managerAddress",
          "type": "address"
        }
      ],
      "name": "setManager",
      "outputs": [],
      "payable": false,
      "stateMutability": "nonpayable",
      "type": "function"
    },
    {
      "constant": false,
      "inputs": [],
      "name": "setOccupiedCollateral",
      "outputs": [],
      "payable": false,
      "stateMutability": "nonpayable",
      "type": "function"
    },
    {
      "constant": false,
      "inputs": [
        {
          "internalType": "address[]",
          "name": "operators",
          "type": "address[]"
        }
      ],
      "name": "setOperator",
      "outputs": [],
      "payable": false,
      "stateMutability": "nonpayable",
      "type": "function"
    },
    {
      "constant": false,
      "inputs": [
        {
          "internalType": "uint256",
          "name": "index",
          "type": "uint256"
        },
        {
          "internalType": "address",
          "name": "addAddress",
          "type": "address"
        }
      ],
      "name": "setOperator",
      "outputs": [],
      "payable": false,
      "stateMutability": "nonpayable",
      "type": "function"
    },
    {
      "constant": false,
      "inputs": [
        {
          "internalType": "address",
          "name": "optionsPrice",
          "type": "address"
        }
      ],
      "name": "setOptionsPriceAddress",
      "outputs": [],
      "payable": false,
      "stateMutability": "nonpayable",
      "type": "function"
    },
    {
      "constant": false,
      "inputs": [
        {
          "internalType": "address",
          "name": "oracle",
          "type": "address"
        }
      ],
      "name": "setOracleAddress",
      "outputs": [],
      "payable": false,
      "stateMutability": "nonpayable",
      "type": "function"
    },
    {
      "constant": false,
      "inputs": [
        {
          "internalType": "address",
          "name": "volatility",
          "type": "address"
        }
      ],
      "name": "setVolatilityAddress",
      "outputs": [],
      "payable": false,
      "stateMutability": "nonpayable",
      "type": "function"
    },
    {
      "constant": false,
      "inputs": [
        {
          "internalType": "address",
          "name": "newOwner",
          "type": "address"
        }
      ],
      "name": "transferOwnership",
      "outputs": [],
      "payable": false,
      "stateMutability": "nonpayable",
      "type": "function"
    },
    {
      "constant": true,
      "inputs": [
        {
          "internalType": "address[]",
          "name": "whiteList",
          "type": "address[]"
        }
      ],
      "name": "getNetWrothCalInfo",
      "outputs": [
        {
          "internalType": "uint256",
          "name": "",
          "type": "uint256"
        },
        {
          "internalType": "int256[]",
          "name": "",
          "type": "int256[]"
        }
      ],
      "payable": false,
      "stateMutability": "view",
      "type": "function"
    },
    {
      "constant": true,
      "inputs": [
        {
          "internalType": "address",
          "name": "settlement",
          "type": "address"
        }
      ],
      "name": "getNetWrothLatestWorth",
      "outputs": [
        {
          "internalType": "int256",
          "name": "",
          "type": "int256"
        }
      ],
      "payable": false,
      "stateMutability": "view",
      "type": "function"
    },
    {
      "constant": false,
      "inputs": [
        {
          "internalType": "uint256",
          "name": "newFirstOption",
          "type": "uint256"
        },
        {
          "internalType": "int256[]",
          "name": "latestNetWorth",
          "type": "int256[]"
        },
        {
          "internalType": "address[]",
          "name": "whiteList",
          "type": "address[]"
        }
      ],
      "name": "setSharedState",
      "outputs": [],
      "payable": false,
      "stateMutability": "nonpayable",
      "type": "function"
    },
    {
      "constant": true,
      "inputs": [
        {
          "internalType": "uint256",
          "name": "lastOption",
          "type": "uint256"
        },
        {
          "internalType": "uint256",
          "name": "begin",
          "type": "uint256"
        },
        {
          "internalType": "uint256",
          "name": "end",
          "type": "uint256"
        },
        {
          "internalType": "address[]",
          "name": "whiteList",
          "type": "address[]"
        }
      ],
      "name": "calRangeSharedPayment",
      "outputs": [
        {
          "internalType": "int256[]",
          "name": "",
          "type": "int256[]"
        },
        {
          "internalType": "uint256[]",
          "name": "",
          "type": "uint256[]"
        },
        {
          "internalType": "uint256",
          "name": "",
          "type": "uint256"
        }
      ],
      "payable": false,
      "stateMutability": "view",
      "type": "function"
    },
    {
      "constant": true,
      "inputs": [
        {
          "internalType": "uint256",
          "name": "lastOption",
          "type": "uint256"
        },
        {
          "internalType": "uint256",
          "name": "begin",
          "type": "uint256"
        },
        {
          "internalType": "uint256",
          "name": "end",
          "type": "uint256"
        },
        {
          "internalType": "address[]",
          "name": "whiteList",
          "type": "address[]"
        }
      ],
      "name": "calculatePhaseOptionsFall",
      "outputs": [
        {
          "internalType": "int256[]",
          "name": "",
          "type": "int256[]"
        }
      ],
      "payable": false,
      "stateMutability": "view",
      "type": "function"
    }
  ],
  "bytecode": "0x6080604052610e10600b556200001d64010000000062000023810204565b620001ed565b6040805160e0810182526201518081526203f480602082015262093a8091810191909152620d2f0060608201526213c680608082015262278d0060a08201526276a70060c08201526200007b90600a906007620000a3565b50604080518082019091526001808252600260208301819052620000a09290620000fa565b50565b828054828255906000526020600020908101928215620000e8579160200282015b82811115620000e8578251829062ffffff16905591602001919060010190620000c4565b50620000f6929150620001a9565b5090565b828054828255906000526020600020906007016008900481019282156200019b5791602002820160005b838211156200016757835183826101000a81548163ffffffff021916908360ff160217905550926020019260040160208160030104928301926001030262000124565b8015620001995782816101000a81549063ffffffff021916905560040160208160030104928301926001030262000167565b505b50620000f6929150620001c9565b620001c691905b80821115620000f65760008155600101620001b0565b90565b620001c691905b80821115620000f657805463ffffffff19168155600101620001d0565b613e1f80620001fd6000396000f3fe608060405234801561001057600080fd5b50600436106102da5760003560e060020a900480637cfff2d811610186578063b18b78dd116100ed578063db6ad2bd116100a6578063e7f43c6811610080578063e7f43c6814610f3d578063f2fde38b14610f45578063f504e2f014610f6b578063f7de192314610f73576102da565b8063db6ad2bd14610ec8578063e7a1c1c014610eeb578063e7c5681514610f17576102da565b8063b18b78dd14610e4a578063bec3107f14610e52578063c5acbe1514610e5a578063d0ebdbe714610e77578063d500958414610e9d578063d6d1401214610ea5576102da565b80639052d5f81161013f5780639052d5f814610d905780639870d7fe14610d985780639ef975d214610dbe578063a093e2d014610ddb578063ac8a584a14610e01578063afec82fc14610e27576102da565b80637cfff2d814610d045780637e1bcb7614610d215780637e838fa314610d475780638129fc1c14610d785780638da5cb5b14610d805780638f32d59b14610d88576102da565b806342e5479d1161024557806364ed3017116101fe5780636d84e2e3116101d85780636d84e2e314610cba578063715018a614610cd7578063723931ca14610cdf57806373a3d42414610cfc576102da565b806364ed301714610b7f57806367b8ceb914610b995780636a43c05e14610bbc576102da565b806342e5479d146109cd57806343674c3a146109f157806348ee201d14610aa75780634c69c00f14610b0b578063597ce90014610b315780635ca4b73b14610b77576102da565b80632967eafe116102975780632967eafe1461068a57806332ab5c20146106b0578063354af360146108065780633582d789146108a95780633ad2fb571461090157806342082c1e1461092a576102da565b80630438d490146102df57806307af14781461046a57806309057622146104c75780630c372571146104e857806312039cc2146105315780632415e0101461055c575b600080fd5b610302600480360360408110156102f557600080fd5b5080359060200135610fa5565b60405180806020018060200180602001806020018060200186810386528b818151815260200191508051906020019060200280838360005b8381101561035257818101518382015260200161033a565b5050505090500186810385528a818151815260200191508051906020019060200280838360005b83811015610391578181015183820152602001610379565b50505050905001868103845289818151815260200191508051906020019060200280838360005b838110156103d05781810151838201526020016103b8565b50505050905001868103835288818151815260200191508051906020019060200280838360005b8381101561040f5781810151838201526020016103f7565b50505050905001868103825287818151815260200191508051906020019060200280838360005b8381101561044e578181015183820152602001610436565b505050509050019a505050505050505050505060405180910390f35b6104876004803603602081101561048057600080fd5b50356111df565b60408051978852600160a060020a039096166020880152868601949094526060860192909252608085015260a084015260c0830152519081900360e00190f35b6104cf61129d565b6040805192835260208301919091528051918290030190f35b610511600480360360608110156104fe57600080fd5b50803590602081013590604001356112a7565b604080519384526020840192909252151582820152519081900360600190f35b61055a6004803603606081101561054757600080fd5b508035906020810135906040013561131b565b005b61055a6004803603606081101561057257600080fd5b8135919081019060408101602082013564010000000081111561059457600080fd5b8201836020820111156105a657600080fd5b803590602001918460208302840111640100000000831117156105c857600080fd5b919080806020026020016040519081016040528093929190818152602001838360200280828437600092019190915250929594936020810193503591505064010000000081111561061857600080fd5b82018360208201111561062a57600080fd5b8035906020019184602083028401116401000000008311171561064c57600080fd5b9190808060200260200160405190810160405280939291908181526020018383602002808284376000920191909152509295506113ba945050505050565b61055a600480360360208110156106a057600080fd5b5035600160a060020a0316611480565b610766600480360360808110156106c657600080fd5b813591602081013591604082013591908101906080810160608201356401000000008111156106f457600080fd5b82018360208201111561070657600080fd5b8035906020019184602083028401116401000000008311171561072857600080fd5b9190808060200260200160405190810160405280939291908181526020018383602002808284376000920191909152509295506114ec945050505050565b604051808060200180602001848152602001838103835286818151815260200191508051906020019060200280838360005b838110156107b0578181015183820152602001610798565b50505050905001838103825285818151815260200191508051906020019060200280838360005b838110156107ef5781810151838201526020016107d7565b505050509050019550505050505060405180910390f35b6103026004803603602081101561081c57600080fd5b81019060208101813564010000000081111561083757600080fd5b82018360208201111561084957600080fd5b8035906020019184602083028401116401000000008311171561086b57600080fd5b9190808060200260200160405190810160405280939291908181526020018383602002808284376000920191909152509295506115ec945050505050565b6108b16117ff565b60408051602080825283518183015283519192839290830191858101910280838360005b838110156108ed5781810151838201526020016108d5565b505050509050019250505060405180910390f35b61055a6004803603604081101561091757600080fd5b508035906020013563ffffffff16611884565b61055a6004803603602081101561094057600080fd5b81019060208101813564010000000081111561095b57600080fd5b82018360208201111561096d57600080fd5b8035906020019184602083028401116401000000008311171561098f57600080fd5b9190808060200260200160405190810160405280939291908181526020018383602002808284376000920191909152509295506118ee945050505050565b6109d561194b565b60408051600160a060020a039092168252519081900360200190f35b6108b160048036036080811015610a0757600080fd5b81359160208101359160408201359190810190608081016060820135640100000000811115610a3557600080fd5b820183602082011115610a4757600080fd5b80359060200191846020830284011164010000000083111715610a6957600080fd5b91908080602002602001604051908101604052809392919081815260200183836020028082843760009201919091525092955061195a945050505050565b610ac460048036036020811015610abd57600080fd5b5035611ad5565b60408051978852600160a060020a03909616602088015260ff9094168686015263ffffffff9092166060860152608085015260a084015260c0830152519081900360e00190f35b61055a60048036036020811015610b2157600080fd5b5035600160a060020a0316611b49565b610b5460048036036040811015610b4757600080fd5b5080359060200135611bb5565b60408051600160a060020a03909316835260208301919091528051918290030190f35b6109d5611c23565b610b87611c32565b60408051918252519081900360200190f35b610b8760048036036040811015610baf57600080fd5b5080359060200135611c38565b610c5f60048036036020811015610bd257600080fd5b810190602081018135640100000000811115610bed57600080fd5b820183602082011115610bff57600080fd5b80359060200191846020830284011164010000000083111715610c2157600080fd5b919080806020026020016040519081016040528093929190818152602001838360200280828437600092019190915250929550611db8945050505050565b6040518083815260200180602001828103825283818151815260200191508051906020019060200280838360005b83811015610ca5578181015183820152602001610c8d565b50505050905001935050505060405180910390f35b610b8760048036036020811015610cd057600080fd5b5035611e62565b61055a611ee7565b61055a60048036036020811015610cf557600080fd5b5035611f7b565b610b87611fc5565b61055a60048036036020811015610d1a57600080fd5b5035612019565b610b8760048036036020811015610d3757600080fd5b5035600160a060020a0316612074565b610d6460048036036020811015610d5d57600080fd5b503561208f565b604080519115158252519081900360200190f35b61055a6120ec565b6109d5612165565b610d64612174565b6108b1612185565b61055a60048036036020811015610dae57600080fd5b5035600160a060020a03166121dc565b610d6460048036036020811015610dd457600080fd5b5035612237565b61055a60048036036020811015610df157600080fd5b5035600160a060020a031661229c565b610d6460048036036020811015610e1757600080fd5b5035600160a060020a0316612308565b61055a60048036036020811015610e3d57600080fd5b503563ffffffff16612365565b6109d56123c0565b610b876123cf565b61055a60048036036020811015610e7057600080fd5b50356123d5565b61055a60048036036020811015610e8d57600080fd5b5035600160a060020a0316612424565b6109d5612490565b610d6460048036036020811015610ebb57600080fd5b503563ffffffff1661249f565b610d6460048036036020811015610ede57600080fd5b503563ffffffff166124fc565b61055a60048036036040811015610f0157600080fd5b5080359060200135600160a060020a031661258d565b6108b160048036036020811015610f2d57600080fd5b5035600160a060020a0316612617565b6108b1612683565b61055a60048036036020811015610f5b57600080fd5b5035600160a060020a03166126e4565b61055a612737565b6108b160048036036060811015610f8957600080fd5b50600160a060020a0381351690602081013590604001356127ed565b60608060608060606007805490508688011115610fd257600754610fcf908863ffffffff6128d216565b95505b85156111d557606086604051908082528060200260200182016040528015611004578160200160208202803883390190505b509050606087604051908082528060200260200182016040528015611033578160200160208202803883390190505b509050606088604051908082528060200260200182016040528015611062578160200160208202803883390190505b509050606089604051908082528060200260200182016040528015611091578160200160208202803883390190505b50905060608a6040519080825280602002602001820160405280156110c0578160200160208202803883390190505b50905060005b8b8110156111c75760006007828f01815481106110df57fe5b906000526020600020906005020190508060000160089054906101000a9004600160a060020a031687838151811061111357fe5b600160a060020a03929092166020928302919091019091015280546001820154875160e060020a90920460ff1663ffffffff918216620100000201169087908490811061115c57fe5b602002602001018181525050806002015485838151811061117957fe5b602002602001018181525050806003015484838151811061119657fe5b60200260200101818152505080600401548383815181106111b357fe5b6020908102919091010152506001016110c6565b509398509196509450925090505b9295509295909350565b600080600080600080600080881180156111fb57506007548811155b61124f576040805160e560020a62461bcd02815260206004820152601660248201527f6f7074696f6e206964206973206e6f7420657869737400000000000000000000604482015290519081900360640190fd5b5050506000948552505060086020525050604090208054600182015460028301546003840154600485015460058601546006909601549496600160a060020a03909416959294919390929190565b600e546010549091565b6000806000600e548510156112bc57600e5494505b8585106112d157506000915081905080611312565b858411156112e1578593506112f9565b600e548410156112f957506000915081905080611312565b600080611306878761292d565b90955093506001925050505b93509350939050565b60065460009015801590611358575033600160a060020a03166006828154811061134157fe5b600091825260209091200154600160a060020a0316145b6113965760405160e560020a62461bcd028152600401808060200182810382526030815260200180613d7a6030913960400191505060405180910390fd5b600e548311156113a657600e8390555b50600f929092555060108054919091039055565b600254600160a060020a031633146114065760405160e560020a62461bcd028152600401808060200182810382526026815260200180613d0d6026913960400191505060405180910390fd5b600c5483111561141657600c8390555b805160005b818110156114795783818151811061142f57fe5b6020026020010151600d600085848151811061144757fe5b602090810291909101810151600160a060020a031682528101919091526040016000208054909101905560010161141b565b5050505050565b611488612174565b6114ca576040805160e560020a62461bcd0281526020600482018190526024820152600080516020613daa833981519152604482015290519081900360640190fd5b60048054600160a060020a031916600160a060020a0392909216919091179055565b606080600086861015806115015750600c5485105b1561156c578351604051908082528060200260200182016040528015611531578160200160208202803883390190505b50845160405190808252806020026020018201604052801561155d578160200160208202803883390190505b509093509150600090506115e2565b86851115611578578694505b60606000611587888888612a61565b91509150808810156115ae5760606115a0898389612bce565b955091935091506115e29050565b85516040519080825280602002602001820160405280156115d9578160200160208202803883390190505b50945090925090505b9450945094915050565b6060806060806060600086519050606081604051908082528060200260200182016040528015611626578160200160208202803883390190505b509050606082604051908082528060200260200182016040528015611655578160200160208202803883390190505b509050606083604051908082528060200260200182016040528015611684578160200160208202803883390190505b5090506060846040519080825280602002602001820160405280156116b3578160200160208202803883390190505b5090506060856040519080825280602002602001820160405280156116e2578160200160208202803883390190505b50905060005b868110156117eb57600061170e8e838151811061170157fe5b6020026020010151612cc4565b80548851919250680100000000000000009004600160a060020a03169088908490811061173757fe5b600160a060020a03929092166020928302919091019091015280546001820154875160e060020a90920460ff1663ffffffff918216620100000201169087908490811061178057fe5b602002602001018181525050806002015485838151811061179d57fe5b60200260200101818152505080600301548483815181106117ba57fe5b60200260200101818152505080600401548383815181106117d757fe5b6020908102919091010152506001016116e8565b50939b929a50909850965090945092505050565b6060600180548060200260200160405190810160405280929190818152602001828054801561187957602002820191906000526020600020906000905b82829054906101000a900463ffffffff1663ffffffff168152602001906004019060208260030104928301926001038202915080841161183c5790505b505050505090505b90565b61188d816124fc565b6118e1576040805160e560020a62461bcd02815260206004820152601f60248201527f756e6465726c79696e6720697320756e737570706f7274656420617373657400604482015290519081900360640190fd5b6118ea82611f7b565b5050565b6118f6612174565b611938576040805160e560020a62461bcd0281526020600482018190526024820152600080516020613daa833981519152604482015290519081900360640190fd5b80516118ea906006906020840190613abd565b600454600160a060020a031690565b6060848410158061196c5750600c5483105b156119a457815160405190808252806020026020018201604052801561199c578160200160208202803883390190505b509050611acd565b848311156119b0578492505b600c5484116119bf57600c5493505b60606119c9612d50565b905060606119d986868685612e6b565b845190915060005b81811015611ac6576003548651600160a060020a03909116906341976e0990889084908110611a0c57fe5b60200260200101516040518263ffffffff1660e060020a0281526004018082600160a060020a0316600160a060020a0316815260200191505060206040518083038186803b158015611a5d57600080fd5b505afa158015611a71573d6000803e3d6000fd5b505050506040513d6020811015611a8757600080fd5b50518351849083908110611a9757fe5b602002602001015181611aa657fe5b05838281518110611ab357fe5b60209081029190910101526001016119e1565b5090925050505b949350505050565b600080600080600080600080611aea89612cc4565b805460018201546002830154600384015460049094015467ffffffffffffffff84169e680100000000000000008504600160a060020a03169e5060e060020a90940460ff169c5063ffffffff9092169a50985091965090945092505050565b611b51612174565b611b93576040805160e560020a62461bcd0281526020600482018190526024820152600080516020613daa833981519152604482015290519081900360640190fd5b60038054600160a060020a031916600160a060020a0392909216919091179055565b60001982016000908152600860205260408120600181015460028201546004830154849392600160a060020a031691670de0b6b3a764000091611c0f918891611c039163ffffffff61300e16565b9063ffffffff61300e16565b81611c1657fe5b0492509250509250929050565b600554600160a060020a031690565b600b5490565b6000611c42613b1e565b611c4b84612cc4565b6040805160e081018252825467ffffffffffffffff81168252680100000000000000008104600160a060020a0316602083015260e060020a900460ff1691810191909152600182015463ffffffff16606082015260028201546080820152600382015460a082015260049091015460c08201529050611cc981613067565b611cd381846130c2565b6003546060820151604080517fda66325700000000000000000000000000000000000000000000000000000000815263ffffffff909216600483015251600092600160a060020a03169163da663257916024808301926020929190829003018186803b158015611d4257600080fd5b505afa158015611d56573d6000803e3d6000fd5b505050506040513d6020811015611d6c57600080fd5b5051604083015160a0840151919250600091611d8991908461311e565b905080611d9c5760009350505050611db2565b611dac818663ffffffff61300e16565b93505050505b92915050565b60006060600083519050606081604051908082528060200260200182016040528015611dee578160200160208202803883390190505b50905060005b82811015611e5457600d6000878381518110611e0c57fe5b6020026020010151600160a060020a0316600160a060020a0316815260200190815260200160002054828281518110611e4157fe5b6020908102919091010152600101611df4565b50600c549350915050915091565b60008082118015611e7557506007548211155b611ec9576040805160e560020a62461bcd02815260206004820152601660248201527f6f7074696f6e206964206973206e6f7420657869737400000000000000000000604482015290519081900360640190fd5b50600b54600019820160009081526008602052604090205401919050565b611eef612174565b611f31576040805160e560020a62461bcd0281526020600482018190526024820152600080516020613daa833981519152604482015290519081900360640190fd5b60008054604051600160a060020a03909116907f8be0079c531659141344cd1fd0a4f28419497f9722a3daafe3b4186f6b6457e0908390a360008054600160a060020a0319169055565b611f8481612237565b611fc25760405160e560020a62461bcd028152600401808060200182810382526021815260200180613dca6021913960400191505060405180910390fd5b50565b60008060105412611fec57601054600f54611fe59163ffffffff61315216565b9050611881565b6000601054600003905080600f54111561200b57600f54039050611881565b6000915050611881565b5090565b612021612174565b612063576040805160e560020a62461bcd0281526020600482018190526024820152600080516020613daa833981519152604482015290519081900360640190fd5b611fc2600a8263ffffffff6131ad16565b600160a060020a03166000908152600d602052604090205490565b6000612099612174565b6120db576040805160e560020a62461bcd0281526020600482018190526024820152600080516020613daa833981519152604482015290519081900360640190fd5b611db2600a8363ffffffff61322216565b6040805160e0810182526201518081526203f480602082015262093a8091810191909152620d2f0060608201526213c680608082015262278d0060a08201526276a70060c082015261214290600a906007613b5a565b50604080518082019091526001808252600260208301819052611fc29290613ba8565b600054600160a060020a031690565b600054600160a060020a0316331490565b6060600a80548060200260200160405190810160405280929190818152602001828054801561187957602002820191906000526020600020905b8154815260200190600101908083116121bf575050505050905090565b6121e4612174565b612226576040805160e560020a62461bcd0281526020600482018190526024820152600080516020613daa833981519152604482015290519081900360640190fd5b611fc260068263ffffffff6132c816565b6000611db282600a80548060200260200160405190810160405280929190818152602001828054801561228957602002820191906000526020600020905b815481526020019060010190808311612275575b505050505061336090919063ffffffff16565b6122a4612174565b6122e6576040805160e560020a62461bcd0281526020600482018190526024820152600080516020613daa833981519152604482015290519081900360640190fd5b60058054600160a060020a031916600160a060020a0392909216919091179055565b6000612312612174565b612354576040805160e560020a62461bcd0281526020600482018190526024820152600080516020613daa833981519152604482015290519081900360640190fd5b611db260068363ffffffff61339d16565b61236d612174565b6123af576040805160e560020a62461bcd0281526020600482018190526024820152600080516020613daa833981519152604482015290519081900360640190fd5b611fc260018263ffffffff61347316565b600354600160a060020a031690565b60075490565b6123dd612174565b61241f576040805160e560020a62461bcd0281526020600482018190526024820152600080516020613daa833981519152604482015290519081900360640190fd5b600b55565b61242c612174565b61246e576040805160e560020a62461bcd0281526020600482018190526024820152600080516020613daa833981519152604482015290519081900360640190fd5b60028054600160a060020a031916600160a060020a0392909216919091179055565b600254600160a060020a031690565b60006124a9612174565b6124eb576040805160e560020a62461bcd0281526020600482018190526024820152600080516020613daa833981519152604482015290519081900360640190fd5b611db260018363ffffffff61353a16565b6000611db282600180548060200260200160405190810160405280929190818152602001828054801561257a57602002820191906000526020600020906000905b82829054906101000a900463ffffffff1663ffffffff168152602001906004019060208260030104928301926001038202915080841161253d5790505b505050505061362a90919063ffffffff16565b612595612174565b6125d7576040805160e560020a62461bcd0281526020600482018190526024820152600080516020613daa833981519152604482015290519081900360640190fd5b80600683815481106125e557fe5b9060005260206000200160006101000a815481600160a060020a030219169083600160a060020a031602179055505050565b600160a060020a03811660009081526009602090815260409182902080548351818402810184019094528084526060939283018282801561267757602002820191906000526020600020905b815481526020019060010190808311612663575b50505050509050919050565b6060600680548060200260200160405190810160405280929190818152602001828054801561187957602002820191906000526020600020905b8154600160a060020a031681526001909101906020018083116126bd575050505050905090565b6126ec612174565b61272e576040805160e560020a62461bcd0281526020600482018190526024820152600080516020613daa833981519152604482015290519081900360640190fd5b611fc281613673565b60065460009015801590612774575033600160a060020a03166006828154811061275d57fe5b600091825260209091200154600160a060020a0316145b6127b25760405160e560020a62461bcd028152600401808060200182810382526030815260200180613d7a6030913960400191505060405180910390fd5b601054600754600e54600090819081906127ce908590816112a7565b92509250925080156127e5576127e583838761131b565b505050505050565b6060808260405190808252806020026020018201604052801561281a578160200160208202803883390190505b50600160a060020a038616600090815260096020526040902054909150848401111561286c57600160a060020a038516600090815260096020526040902054612869908563ffffffff6128d216565b92505b60005b838110156128c757600160a060020a0386166000908152600960205260409020805486830190811061289d57fe5b90600052602060002001548282815181106128b457fe5b602090810291909101015260010161286f565b5090505b9392505050565b80820382811115611db2576040805160e560020a62461bcd02815260206004820181905260248201527f536166654d6174683a20737562737472616374696f6e20756e646572666c6f77604482015290519081900360640190fd5b600080600061293f85600e5486613716565b9095509050606061294e612d50565b905060005b85871015612a5557600061298c6007898154811061296d57fe5b600091825260209091206001600590920201015463ffffffff16613793565b90506000612a4260078a815481106129a057fe5b60009182526020918290206040805160e081018252600593909302909101805467ffffffffffffffff81168452680100000000000000008104600160a060020a03169484019490945260e060020a90930460ff1690820152600182015463ffffffff16606082015260028201546080820152600382015460a082015260049091015460c08201528551869085908110612a3557fe5b6020026020010151613824565b6001909901989290920191506129539050565b96919550909350505050565b6060600060608351604051908082528060200260200182016040528015612a92578160200160208202803883390190505b5090506000612aa487600c5488613716565b90975090505b85871015612bc057600060078881548110612ac157fe5b906000526020600020906005020190506000600860008a815260200190815260200160002090506000612b1d8260030154846003015485600201548560050154866006015488600001601c9054906101000a900460ff16613865565b90508160040154811015612bb2576004820154600183015491900390600090612b50908a90600160a060020a031661393b565b9050670de0b6b3a7640000612b7885600401548402856002015461300e90919063ffffffff16565b81612b7f57fe5b04915081868281518110612b8f57fe5b602002602001015101868281518110612ba457fe5b602002602001018181525050505b505060019097019650612aaa565b90925090505b935093915050565b6060808251604051908082528060200260200182016040528015612bfc578160200160208202803883390190505b5090505b83851015611acd57600060078681548110612c1757fe5b90600052602060002090600502019050600081600401541115612cb85760008681526008602052604081206001810154909190612c5e908790600160a060020a031661393b565b90506000670de0b6b3a7640000846004015484600201548560040154020281612c8357fe5b04905080858381518110612c9357fe5b602002602001015101858381518110612ca857fe5b6020026020010181815250505050505b50600190940193612c00565b60008082118015612cd757506007548211155b612d2b576040805160e560020a62461bcd02815260206004820152601660248201527f6f7074696f6e206964206973206e6f7420657869737400000000000000000000604482015290519081900360640190fd5b60076001830381548110612d3b57fe5b90600052602060002090600502019050919050565b600154604080518281526020808402820101909152606091908290828015612d82578160200160208202803883390190505b50905060005b82811015612e645760035460018054600160a060020a039092169163da663257919084908110612db457fe5b90600052602060002090600891828204019190066004029054906101000a900463ffffffff166040518263ffffffff1660e060020a028152600401808263ffffffff16815260200191505060206040518083038186803b158015612e1757600080fd5b505afa158015612e2b573d6000803e3d6000fd5b505050506040513d6020811015612e4157600080fd5b50518251839083908110612e5157fe5b6020908102919091010152600101612d88565b5091505090565b6060808351604051908082528060200260200182016040528015612e99578160200160208202803883390190505b5090505b8486101561300557600060078781548110612eb457fe5b906000526020600020906005020190504281600201541080612ed857506004810154155b15612ee35750612ffa565b6001810154600090612efa9063ffffffff16613793565b6040805160e081018252845467ffffffffffffffff81168252680100000000000000008104600160a060020a0316602083015260e060020a900460ff1691810191909152600184015463ffffffff16606082015260028401546080820152600384015460a0820152600484015460c082018190528751929350600092612f95929190899086908110612f8857fe5b6020026020010151613984565b90508015612ff65760008981526008602052604090206001810154612fc4908990600160a060020a031661393b565b925081858481518110612fd357fe5b602002602001015103858481518110612fe857fe5b602002602001018181525050505b5050505b600190950194612e9d565b95945050505050565b60008115806130295750508082028282828161302657fe5b04145b611db25760405160e560020a62461bcd028152600401808060200182810382526021815260200180613d596021913960400191505060405180910390fd5b42816080015111611fc2576040805160e560020a62461bcd02815260206004820152601160248201527f6f7074696f6e2069732065787069726564000000000000000000000000000000604482015290519081900360640190fd5b808260c0015110156118ea576040805160e560020a62461bcd02815260206004820152601d60248201527f6f7074696f6e20616d6f756e7420697320696e73756666696369656e74000000604482015290519081900360640190fd5b600060ff8416158284111415613136575060006128cb565b60ff8416156131475781830361314b565b8282035b90506128cb565b80820182811015611db2576040805160e560020a62461bcd02815260206004820152601b60248201527f536166654d6174683a206164646974696f6e206f766572666c6f770000000000604482015290519081900360640190fd5b613206828054806020026020016040519081016040528092919081815260200182805480156131fb57602002820191906000526020600020905b8154815260200190600101908083116131e7575b505050505082613360565b6118ea5781546001810183556000928352602090922090910155565b8154600090815b8181101561325c578385828154811061323e57fe5b906000526020600020015414156132545761325c565b600101613229565b818110156132bd576001820381146132a15784600183038154811061327d57fe5b906000526020600020015485828154811061329457fe5b6000918252602090912001555b84546132b1866000198301613c50565b50600192505050611db2565b506000949350505050565b61332b8280548060200260200160405190810160405280929190818152602001828054801561332057602002820191906000526020600020905b8154600160a060020a03168152600190910190602001808311613302575b505050505082613a0d565b6118ea578154600181018355600083815260209020018054600160a060020a038316600160a060020a03199091161790555050565b8151600090815b818110156132bd578385828151811061337c57fe5b6020026020010151141561339557600192505050611db2565b600101613367565b8154600090815b818110156133ea5783600160a060020a03168582815481106133c257fe5b600091825260209091200154600160a060020a031614156133e2576133ea565b6001016133a4565b818110156132bd576001820381146132a15784600183038154811061340b57fe5b9060005260206000200160009054906101000a9004600160a060020a031685828154811061343557fe5b9060005260206000200160006101000a815481600160a060020a030219169083600160a060020a0316021790555084546132b1866000198301613c50565b6134f8828054806020026020016040519081016040528092919081815260200182805480156134ed57602002820191906000526020600020906000905b82829054906101000a900463ffffffff1663ffffffff16815260200190600401906020826003010492830192600103820291508084116134b05790505b50505050508261362a565b6118ea578154600181018355600092835260209092206008830401805460079093166004026101000a63ffffffff818102199094169290931692909202179055565b8154600090815b81811015613593578363ffffffff1685828154811061355c57fe5b6000918252602090912060088204015460079091166004026101000a900463ffffffff16141561358b57613593565b600101613541565b818110156132bd5760018203811461361a578460018303815481106135b457fe5b90600052602060002090600891828204019190066004029054906101000a900463ffffffff168582815481106135e657fe5b90600052602060002090600891828204019190066004026101000a81548163ffffffff021916908363ffffffff1602179055505b84546132b1866000198301613c79565b8151600090815b818110156132bd578363ffffffff1685828151811061364c57fe5b602002602001015163ffffffff16141561366b57600192505050611db2565b600101613631565b600160a060020a0381166136bb5760405160e560020a62461bcd028152600401808060200182810382526026815260200180613d336026913960400191505060405180910390fd5b60008054604051600160a060020a03808516939216917f8be0079c531659141344cd1fd0a4f28419497f9722a3daafe3b4186f6b6457e091a360008054600160a060020a031916600160a060020a0392909216919091179055565b600080838086111561372c578592509050612bc6565b8095505b838610156137875760006007878154811061374757fe5b90600052602060002090600502019050428160020154108061376b57506004810154155b15613776575061377c565b50613787565b600190950194613730565b50939485945092505050565b6000611db282600180548060200260200160405190810160405280929190818152602001828054801561381157602002820191906000526020600020906000905b82829054906101000a900463ffffffff1663ffffffff16815260200190600401906020826003010492830192600103820291508084116137d45790505b5050505050613a5c90919063ffffffff16565b600042836080015111158061383b575060c0830151155b1561384857506000611db2565b6000611acd8460c00151611c0386604001518760a0015187613a9f565b60004285111561392d57600554604080517f055ef6ab000000000000000000000000000000000000000000000000000000008152600481018a9052602481018990524288036044820152606481018790526084810186905260ff851660a48201529051600160a060020a039092169163055ef6ab9160c480820192602092909190829003018186803b1580156138fa57600080fd5b505afa15801561390e573d6000803e3d6000fd5b505050506040513d602081101561392457600080fd5b50519050613931565b5060005b9695505050505050565b8151600090815b81811015611acd5783600160a060020a031685828151811061396057fe5b6020026020010151600160a060020a0316141561397c57611acd565b600101613942565b6000428460800151111580613997575082155b156139a4575060006128cb565b6000836139ba86604001518760a001518661311e565b029050600060086000600188600001510367ffffffffffffffff16815260200190815260200160002090506000856139ff88604001518960a00151856003015461311e565b029092039695505050505050565b8151600090815b818110156132bd5783600160a060020a0316858281518110613a3257fe5b6020026020010151600160a060020a03161415613a5457600192505050611db2565b600101613a14565b8151600090815b81811015611acd578363ffffffff16858281518110613a7e57fe5b602002602001015163ffffffff161415613a9757611acd565b600101613a63565b600060ff8416158284111415613ab65750816128cb565b50806128cb565b828054828255906000526020600020908101928215613b12579160200282015b82811115613b125782518254600160a060020a031916600160a060020a03909116178255602090920191600190910190613add565b50612015929150613cad565b6040805160e081018252600080825260208201819052918101829052606081018290526080810182905260a0810182905260c081019190915290565b828054828255906000526020600020908101928215613b9c579160200282015b82811115613b9c578251829062ffffff16905591602001919060010190613b7a565b50612015929150613cd1565b82805482825590600052602060002090600701600890048101928215613c445791602002820160005b83821115613c1257835183826101000a81548163ffffffff021916908360ff1602179055509260200192600401602081600301049283019260010302613bd1565b8015613c425782816101000a81549063ffffffff0219169055600401602081600301049283019260010302613c12565b505b50612015929150613ceb565b815481835581811115613c7457600083815260209020613c74918101908301613cd1565b505050565b815481835581811115613c74576007016008900481600701600890048360005260206000209182019101613c749190613cd1565b61188191905b80821115612015578054600160a060020a0319168155600101613cb3565b61188191905b808211156120155760008155600101613cd7565b61188191905b8082111561201557805463ffffffff19168155600101613cf156fe4d616e6167657261626c653a2063616c6c6572206973206e6f7420746865204d616e616765724f776e61626c653a206e6577206f776e657220697320746865207a65726f2061646472657373536166654d6174683a206d756c7469706c69636174696f6e206f766572666c6f774d616e6167657261626c653a2063616c6c6572206973206e6f742074686520656c696769626c65204f70657261746f724f776e61626c653a2063616c6c6572206973206e6f7420746865206f776e657265787069726174696f6e2076616c7565206973206e6f7420737570706f72746564a265627a7a72315820edfd8da5b038fee1c53e477b5932de6b922ea43fdca3b95db66cca8c09cfd80564736f6c63430005100032",
  "source": "pragma solidity ^0.5.1;\r\nimport \"./OptionsOccupiedCal.sol\";\r\nimport \"../modules/SafeInt256.sol\";\r\n/**\r\n * @title Options net worth calculation contract for finnexus proposal v2.\r\n * @dev A Smart-contract for net worth calculation.\r\n *\r\n */\r\ncontract OptionsNetWorthCal is OptionsOccupiedCal {\r\n    using SafeInt256 for int256;\r\n    /**\r\n     * @dev retrieve all information for net worth calculation. \r\n     * @param whiteList collateral address whitelist.\r\n     */ \r\n    function getNetWrothCalInfo(address[] memory whiteList)public view returns(uint256,int256[] memory){\r\n        uint256 len = whiteList.length;\r\n        int256[] memory latestNetWorth = new int256[](len);\r\n            for (uint256 i = 0;i<len;i++){\r\n            latestNetWorth[i] = optionsLatestNetWorth[whiteList[i]];\r\n        }\r\n        return ( netWorthirstOption,latestNetWorth);\r\n    }\r\n    /**\r\n     * @dev retrieve latest options net worth which paid in settlement coin. \r\n     * @param settlement settlement coin address.\r\n     */ \r\n    function getNetWrothLatestWorth(address settlement)public view returns(int256){\r\n        return optionsLatestNetWorth[settlement];\r\n    }\r\n    /**\r\n     * @dev set latest options net worth balance, only manager contract can modify database.\r\n     * @param newFirstOption new first valid option position.\r\n     * @param latestNetWorth latest options net worth.\r\n     * @param whiteList eligible collateral address white list.\r\n     */ \r\n    function setSharedState(uint256 newFirstOption,int256[] memory latestNetWorth,address[] memory whiteList) public onlyManager{\r\n        if (newFirstOption >  netWorthirstOption){\r\n             netWorthirstOption = newFirstOption;\r\n        }\r\n        uint256 len = whiteList.length;\r\n        for (uint256 i = 0;i<len;i++){\r\n            optionsLatestNetWorth[whiteList[i]] += latestNetWorth[i];\r\n        }\r\n    }\r\n    /**\r\n     * @dev calculate options time shared value,from begin to end in the alloptionsList.\r\n     * @param lastOption the last option position.\r\n     * @param begin the begin options position.\r\n     * @param end the end options position.\r\n     * @param whiteList eligible collateral address white list.\r\n     */\r\n    function calRangeSharedPayment(uint256 lastOption,uint256 begin,uint256 end,address[] memory whiteList)\r\n            public view returns(int256[] memory,uint256[] memory,uint256){\r\n        if (begin>=lastOption || end <  netWorthirstOption){\r\n            return(new int256[](whiteList.length),new uint256[](whiteList.length),0);\r\n        }\r\n        if (end>lastOption) {\r\n            end = lastOption;\r\n        }\r\n        (uint256[] memory sharedBalances,uint256 _firstOption) = _calculateSharedPayment(begin,end,whiteList);\r\n        if (begin < _firstOption){\r\n            int256[] memory newNetworth = calculateExpiredPayment(begin,_firstOption,whiteList);\r\n            return (newNetworth,sharedBalances,_firstOption);\r\n        }\r\n        \r\n        return (new int256[](whiteList.length),sharedBalances,_firstOption);\r\n    }\r\n    /**\r\n     * @dev subfunction, calculate options time shared value,from begin to end in the alloptionsList.\r\n     * @param begin the begin options position.\r\n     * @param end the end options position.\r\n     * @param whiteList eligible collateral address white list.\r\n     */\r\n    function _calculateSharedPayment(uint256 begin,uint256 end,address[] memory whiteList)\r\n            internal view returns(uint256[] memory,uint256){\r\n        uint256[] memory totalSharedPayment = new uint256[](whiteList.length);\r\n        uint256 newFirstOption;\r\n        (begin,newFirstOption) = getFirstOption(begin, netWorthirstOption,end); \r\n        for (;begin<end;begin++){\r\n            OptionsInfo storage info = allOptions[begin];\r\n            OptionsInfoEx storage optionEx = optionExtraMap[begin];\r\n            uint256 timeValue = _calculateCurrentPrice(optionEx.underlyingPrice,info.strikePrice,info.expiration,\r\n                optionEx.ivNumerator,optionEx.ivDenominator,info.optType);\r\n            if (timeValue<optionEx.fullPrice){\r\n                timeValue = optionEx.fullPrice - timeValue;\r\n                uint256 index = whiteListAddress._getEligibleIndexAddress(whiteList,optionEx.settlement);\r\n                timeValue = optionEx.tokenTimePrice.mul(timeValue*info.amount)/calDecimals;\r\n                totalSharedPayment[index] = totalSharedPayment[index]+timeValue;\r\n            }\r\n        }\r\n        return (totalSharedPayment,newFirstOption);\r\n    }\r\n    /**\r\n     * @dev subfunction, calculate expired options shared value,from begin to end in the alloptionsList.\r\n     * @param begin the begin options position.\r\n     * @param end the end options position.\r\n     * @param whiteList eligible collateral address white list.\r\n     */\r\n    function calculateExpiredPayment(uint256 begin,uint256 end,address[] memory whiteList)internal view returns(int256[] memory){\r\n        int256[] memory totalExpiredPayment = new int256[](whiteList.length);\r\n        for (;begin<end;begin++){\r\n            OptionsInfo storage info = allOptions[begin];\r\n            if (info.amount>0){\r\n                OptionsInfoEx storage optionEx = optionExtraMap[begin];\r\n                uint256 index = whiteListAddress._getEligibleIndexAddress(whiteList,optionEx.settlement);\r\n                uint256 timeValue = optionEx.fullPrice*optionEx.tokenTimePrice*info.amount/calDecimals;\r\n                totalExpiredPayment[index] = totalExpiredPayment[index]+int256(timeValue);\r\n            }\r\n        }\r\n        return totalExpiredPayment;\r\n    }\r\n    /**\r\n     * @dev calculate options payback fall value,from begin to end in the alloptionsList.\r\n     * @param lastOption the last option position.\r\n     * @param begin the begin options position.\r\n     * @param end the end options position.\r\n     * @param whiteList eligible collateral address white list.\r\n     */\r\n    function calculatePhaseOptionsFall(uint256 lastOption,uint256 begin,uint256 end,address[] memory whiteList) public view returns(int256[] memory){\r\n        if (begin>=lastOption || end <  netWorthirstOption){\r\n            return new int256[](whiteList.length);\r\n        }\r\n        if (end>lastOption) {\r\n            end = lastOption;\r\n        }\r\n        if (begin <=  netWorthirstOption) {\r\n            begin =  netWorthirstOption;\r\n        }\r\n        uint256[] memory prices = getUnderlyingPrices();\r\n        int256[] memory OptionsFallBalances = _calRangeOptionsFall(begin,end,whiteList,prices);\r\n        uint256 whiteListLen = whiteList.length;\r\n        for (uint256 index = 0;index<whiteListLen;index++){\r\n            OptionsFallBalances[index] = OptionsFallBalances[index]/(int256(_oracle.getPrice(whiteList[index])));\r\n        }\r\n        return OptionsFallBalances;\r\n    }\r\n    /**\r\n     * @dev subfunction, calculate options payback fall value,from begin to lastOption in the alloptionsList.\r\n     * @param begin the begin option position.\r\n     * @param lastOption the last option position.\r\n     * @param whiteList eligible collateral address white list.\r\n     * @param prices eligible underlying price list.\r\n     */\r\n    function _calRangeOptionsFall(uint256 begin,uint256 lastOption,address[] memory whiteList,uint256[] memory prices)\r\n                 internal view returns(int256[] memory){\r\n        int256[] memory OptionsFallBalances = new int256[](whiteList.length);\r\n        for (;begin<lastOption;begin++){\r\n            OptionsInfo storage info = allOptions[begin];\r\n            if(info.expiration<now || info.amount == 0){\r\n                continue;\r\n            }\r\n            uint256 index = _getEligibleUnderlyingIndex(info.underlying);\r\n            int256 curValue = _calCurtimeCallateralFall(info,info.amount,prices[index]);\r\n            if (curValue != 0){\r\n                OptionsInfoEx storage optionEx = optionExtraMap[begin];\r\n                index = whiteListAddress._getEligibleIndexAddress(whiteList,optionEx.settlement);\r\n                OptionsFallBalances[index] = OptionsFallBalances[index]-curValue;\r\n            }\r\n        }\r\n        return OptionsFallBalances;\r\n    }\r\n    /**\r\n     * @dev subfunction, calculate option payback fall value.\r\n     * @param info the option information.\r\n     * @param amount the option amount to calculate.\r\n     * @param curPrice current underlying price.\r\n     */\r\n    function _calCurtimeCallateralFall(OptionsInfo memory info,uint256 amount,uint256 curPrice) internal view returns(int256){\r\n        if (info.expiration<=now || amount == 0){\r\n            return 0;\r\n        }\r\n        uint256 newFall = _getOptionsPayback(info.optType,info.strikePrice,curPrice)*amount;\r\n        OptionsInfoEx storage optionEx = optionExtraMap[info.optionID-1];\r\n        uint256 OriginFall = _getOptionsPayback(info.optType,info.strikePrice,optionEx.underlyingPrice)*amount;\r\n        return int256(newFall) - int256(OriginFall);\r\n    }\r\n    /*\r\n    function _addNewOptionsNetworth(OptionsInfo memory info)  internal {\r\n        OptionsInfoEx storage infoEx =  optionExtraMap[info.optionID-1];\r\n        uint256 price = _oracle.getPrice(infoEx.settlement);\r\n        uint256 curValue = _calCurtimeCallateralFall(info,info.amount,infoEx.underlyingPrice)/price;\r\n        optionsLatestNetWorth[infoEx.settlement] = optionsLatestNetWorth[infoEx.settlement].sub(int256(curValue));\r\n    }\r\n    */\r\n    /**\r\n     * @dev set burn option net worth change.\r\n     * @param info the option information.\r\n     * @param amount the option amount to calculate.\r\n     * @param underlyingPrice underlying price when option is created.\r\n     * @param currentPrice current underlying price.\r\n     */\r\n    function _burnOptionsNetworth(OptionsInfo memory info,uint256 amount,uint256 underlyingPrice,uint256 currentPrice) internal {\r\n        int256 curValue = _calCurtimeCallateralFall(info,amount,underlyingPrice);\r\n        OptionsInfoEx storage optionEx = optionExtraMap[info.optionID-1];\r\n        uint256 timeWorth = optionEx.fullPrice>currentPrice ? optionEx.fullPrice-currentPrice : 0;\r\n        timeWorth = optionEx.tokenTimePrice.mul(timeWorth*amount)/calDecimals;\r\n        curValue = curValue / int256(_oracle.getPrice(optionEx.settlement));\r\n        int256 value = curValue - int256(timeWorth);\r\n        optionsLatestNetWorth[optionEx.settlement] = optionsLatestNetWorth[optionEx.settlement]+value;\r\n    }\r\n    /**\r\n     * @dev An anxiliary function, calculate time shared current option price.\r\n     * @param curprice underlying price when option is created.\r\n     * @param strikePrice the option strikePrice.\r\n     * @param expiration option time expiration time left, equal option.expiration - now.\r\n     * @param ivNumerator Implied valotility numerator when option is created.\r\n     * @param ivDenominator Implied valotility denominator when option is created.\r\n     */\r\n    function _calculateCurrentPrice(uint256 curprice,uint256 strikePrice,uint256 expiration,uint256 ivNumerator,uint256 ivDenominator,uint8 optType)internal view returns (uint256){\r\n        if (expiration > now){\r\n            return _optionsPrice.getOptionsPrice_iv(curprice,strikePrice,expiration-now,ivNumerator,\r\n                ivDenominator,optType);\r\n        }\r\n        return 0;\r\n    }\r\n}",
  "sourcePath": "C:\\work\\solidity\\FinnexusOptions_V2\\contracts\\OptionsPool\\OptionsNetWorthCal.sol",
  "compiler": {
    "name": "solc",
    "version": "0.5.16+commit.9c3226ce.Emscripten.clang"
  },
  "schemaVersion": "3.1.0",
  "updatedAt": "2020-09-02T10:47:05.661Z",
  "devdoc": {
    "details": "A Smart-contract for net worth calculation.  ",
    "methods": {
      "addExpiration(uint256)": {
        "details": "Implementation of add an eligible expiration into the expirationList.",
        "params": {
          "expiration": "new eligible expiration."
        }
      },
      "addOperator(address)": {
        "details": "add a new operator by owner.       "
      },
      "addUnderlyingAsset(uint32)": {
        "details": "Implementation of add an eligible underlying into the underlyingAssets.",
        "params": {
          "underlying": "new eligible underlying."
        }
      },
      "buyOptionCheck(uint256,uint32)": {
        "details": "check option's underlying and expiration.",
        "params": {
          "expiration": "option's expiration",
          "underlying": "option's underlying"
        }
      },
      "calRangeSharedPayment(uint256,uint256,uint256,address[])": {
        "details": "calculate options time shared value,from begin to end in the alloptionsList.",
        "params": {
          "begin": "the begin options position.",
          "end": "the end options position.",
          "lastOption": "the last option position.",
          "whiteList": "eligible collateral address white list."
        }
      },
      "calculatePhaseOccupiedCollateral(uint256,uint256,uint256)": {
        "details": "calculate collateral occupied value.",
        "params": {
          "beginOption": "begin option's poisiton.",
          "endOption": "end option's poisiton.",
          "lastOption": "last option's position."
        }
      },
      "calculatePhaseOptionsFall(uint256,uint256,uint256,address[])": {
        "details": "calculate options payback fall value,from begin to end in the alloptionsList.",
        "params": {
          "begin": "the begin options position.",
          "end": "the end options position.",
          "lastOption": "the last option position.",
          "whiteList": "eligible collateral address white list."
        }
      },
      "checkExpiration(uint256)": {
        "details": "check option's expiration.",
        "params": {
          "expiration": "option's expiration"
        }
      },
      "getBurnTimeLimit()": {
        "details": "get option's burn time limit. "
      },
      "getBurnedFullPay(uint256,uint256)": {
        "details": "calculate `amount` number of Option's full price when option is burned.",
        "params": {
          "amount": "option's amount",
          "optionID": "option's optionID"
        }
      },
      "getExerciseWorth(uint256,uint256)": {
        "details": "calculate option's exercise worth.",
        "params": {
          "amount": "option's amount",
          "optionsId": "option's id"
        }
      },
      "getExpirationList()": {
        "details": "Implementation of getting the eligible expirationList."
      },
      "getManager()": {
        "details": "get manager address.       "
      },
      "getNetWrothCalInfo(address[])": {
        "details": "retrieve all information for net worth calculation. ",
        "params": {
          "whiteList": "collateral address whitelist."
        }
      },
      "getNetWrothLatestWorth(address)": {
        "details": "retrieve latest options net worth which paid in settlement coin. ",
        "params": {
          "settlement": "settlement coin address."
        }
      },
      "getOccupiedCalInfo()": {
        "details": "retrieve collateral occupied calculation information."
      },
      "getOperator()": {
        "details": "get all operators.       "
      },
      "getOptionInfoLength()": {
        "details": "retrieve all option list length. "
      },
      "getOptionInfoList(uint256,uint256)": {
        "details": "retrieve `size` number of options' information. ",
        "params": {
          "from": "all option list begin positon.",
          "size": "retrieve size."
        }
      },
      "getOptionInfoListFromID(uint256[])": {
        "details": "retrieve given `ids` options' information. ",
        "params": {
          "ids": "retrieved options' id."
        }
      },
      "getOptionsById(uint256)": {
        "details": "retrieve given `optionsId` option's information. ",
        "params": {
          "optionsId": "retrieved option's id."
        }
      },
      "getOptionsExtraById(uint256)": {
        "details": "retrieve given `optionsId` option's extra information. ",
        "params": {
          "optionsId": "retrieved option's id."
        }
      },
      "getOptionsLimitTimeById(uint256)": {
        "details": "retrieve given `optionsId` option's burned limit timestamp. ",
        "params": {
          "optionsId": "retrieved option's id."
        }
      },
      "getTotalOccupiedCollateral()": {
        "details": "get real total collateral occupied value."
      },
      "getUnderlyingAssets()": {
        "details": "Implementation of getting the eligible underlyingAssets."
      },
      "getUserOptionsID(address)": {
        "details": "retrieve user's options' id. ",
        "params": {
          "user": "user's account."
        }
      },
      "getUserOptionsID(address,uint256,uint256)": {
        "details": "retrieve user's `size` number of options' id. ",
        "params": {
          "from": "user's option list begin positon.",
          "size": "retrieve size.",
          "user": "user's account."
        }
      },
      "isEligibleExpiration(uint256)": {
        "details": "Implementation of testing whether the input expiration is eligible.",
        "params": {
          "expiration": "input expiration for testing."
        }
      },
      "isEligibleUnderlyingAsset(uint32)": {
        "details": "Implementation of testing whether the input underlying is eligible.",
        "params": {
          "underlying": "input underlying for testing."
        }
      },
      "isOwner()": {
        "details": "Returns true if the caller is the current owner."
      },
      "owner()": {
        "details": "Returns the address of the current owner."
      },
      "removeExpirationList(uint256)": {
        "details": "Implementation of revoke an invalid expiration from the expirationList.",
        "params": {
          "removeExpiration": "revoked expiration."
        }
      },
      "removeOperator(address)": {
        "details": "remove operator by owner.       "
      },
      "removeUnderlyingAssets(uint32)": {
        "details": "Implementation of revoke an invalid underlying from the underlyingAssets.",
        "params": {
          "removeUnderlying": "revoked underlying."
        }
      },
      "renounceOwnership()": {
        "details": "Leaves the contract without owner. It will not be possible to call `onlyOwner` functions anymore. Can only be called by the current owner.      * NOTE: Renouncing ownership will leave the contract without an owner, thereby removing any functionality that is only available to the owner."
      },
      "setBurnTimeLimit(uint256)": {
        "details": "set option's burn time limit. ",
        "params": {
          "timeLimit": "set new option's burn time limit."
        }
      },
      "setCollateralPhase(uint256,uint256,int256)": {
        "details": "set collateral occupied value, only foundation operator can modify database.",
        "params": {
          "beginOption": "new first valid option's positon.",
          "latestOccpied": "latest occupied value when operater invoke collateral occupied calculation.",
          "totalOccupied": "new collateral calculation result."
        }
      },
      "setManager(address)": {
        "details": "set manager by owner.       "
      },
      "setOccupiedCollateral()": {
        "details": "calculate collateral occupied value, and modify database, only foundation operator can modify database."
      },
      "setOperator(address[])": {
        "details": "set all operators by owner.       "
      },
      "setOperator(uint256,address)": {
        "details": "modify indexed operator by owner.       "
      },
      "setSharedState(uint256,int256[],address[])": {
        "details": "set latest options net worth balance, only manager contract can modify database.",
        "params": {
          "latestNetWorth": "latest options net worth.",
          "newFirstOption": "new first valid option position.",
          "whiteList": "eligible collateral address white list."
        }
      },
      "transferOwnership(address)": {
        "details": "Transfers ownership of the contract to a new account (`newOwner`). Can only be called by the current owner."
      }
    },
    "title": "Options net worth calculation contract for finnexus proposal v2."
  },
  "userdoc": {
    "methods": {}
  }
}