{
  "contractName": "OptionsPoolTest",
  "abi": [
    {
      "constant": true,
      "inputs": [
        {
          "name": "from",
          "type": "uint256"
        },
        {
          "name": "size",
          "type": "uint256"
        }
      ],
      "name": "getOptionInfoList",
      "outputs": [
        {
          "name": "",
          "type": "address[]"
        },
        {
          "name": "",
          "type": "uint256[]"
        },
        {
          "name": "",
          "type": "uint256[]"
        },
        {
          "name": "",
          "type": "uint256[]"
        },
        {
          "name": "",
          "type": "uint256[]"
        }
      ],
      "payable": false,
      "stateMutability": "view",
      "type": "function"
    },
    {
      "constant": true,
      "inputs": [],
      "name": "getOccupiedCalInfo",
      "outputs": [
        {
          "name": "",
          "type": "uint256"
        },
        {
          "name": "",
          "type": "int256"
        }
      ],
      "payable": false,
      "stateMutability": "view",
      "type": "function"
    },
    {
      "constant": true,
      "inputs": [
        {
          "name": "lastOption",
          "type": "uint256"
        },
        {
          "name": "beginOption",
          "type": "uint256"
        },
        {
          "name": "endOption",
          "type": "uint256"
        }
      ],
      "name": "calculatePhaseOccupiedCollateral",
      "outputs": [
        {
          "name": "",
          "type": "uint256"
        },
        {
          "name": "",
          "type": "uint256"
        },
        {
          "name": "",
          "type": "bool"
        }
      ],
      "payable": false,
      "stateMutability": "view",
      "type": "function"
    },
    {
      "constant": false,
      "inputs": [
        {
          "name": "totalOccupied",
          "type": "uint256"
        },
        {
          "name": "beginOption",
          "type": "uint256"
        },
        {
          "name": "latestOccpied",
          "type": "int256"
        }
      ],
      "name": "setCollateralPhase",
      "outputs": [],
      "payable": false,
      "stateMutability": "nonpayable",
      "type": "function"
    },
    {
      "constant": false,
      "inputs": [
        {
          "name": "newFirstOption",
          "type": "uint256"
        },
        {
          "name": "latestNetWorth",
          "type": "int256[]"
        },
        {
          "name": "whiteList",
          "type": "address[]"
        }
      ],
      "name": "setSharedState",
      "outputs": [],
      "payable": false,
      "stateMutability": "nonpayable",
      "type": "function"
    },
    {
      "constant": false,
      "inputs": [
        {
          "name": "volatility",
          "type": "address"
        }
      ],
      "name": "setVolatilityAddress",
      "outputs": [],
      "payable": false,
      "stateMutability": "nonpayable",
      "type": "function"
    },
    {
      "constant": true,
      "inputs": [
        {
          "name": "lastOption",
          "type": "uint256"
        },
        {
          "name": "begin",
          "type": "uint256"
        },
        {
          "name": "end",
          "type": "uint256"
        },
        {
          "name": "whiteList",
          "type": "address[]"
        }
      ],
      "name": "calRangeSharedPayment",
      "outputs": [
        {
          "name": "",
          "type": "int256[]"
        },
        {
          "name": "",
          "type": "uint256[]"
        },
        {
          "name": "",
          "type": "uint256"
        }
      ],
      "payable": false,
      "stateMutability": "view",
      "type": "function"
    },
    {
      "constant": true,
      "inputs": [
        {
          "name": "ids",
          "type": "uint256[]"
        }
      ],
      "name": "getOptionInfoListFromID",
      "outputs": [
        {
          "name": "",
          "type": "address[]"
        },
        {
          "name": "",
          "type": "uint256[]"
        },
        {
          "name": "",
          "type": "uint256[]"
        },
        {
          "name": "",
          "type": "uint256[]"
        },
        {
          "name": "",
          "type": "uint256[]"
        }
      ],
      "payable": false,
      "stateMutability": "view",
      "type": "function"
    },
    {
      "constant": true,
      "inputs": [],
      "name": "getUnderlyingAssets",
      "outputs": [
        {
          "name": "",
          "type": "uint32[]"
        }
      ],
      "payable": false,
      "stateMutability": "view",
      "type": "function"
    },
    {
      "constant": true,
      "inputs": [
        {
          "name": "expiration",
          "type": "uint256"
        },
        {
          "name": "underlying",
          "type": "uint32"
        }
      ],
      "name": "buyOptionCheck",
      "outputs": [],
      "payable": false,
      "stateMutability": "view",
      "type": "function"
    },
    {
      "constant": true,
      "inputs": [],
      "name": "getVolatilityAddress",
      "outputs": [
        {
          "name": "",
          "type": "address"
        }
      ],
      "payable": false,
      "stateMutability": "view",
      "type": "function"
    },
    {
      "constant": true,
      "inputs": [
        {
          "name": "lastOption",
          "type": "uint256"
        },
        {
          "name": "begin",
          "type": "uint256"
        },
        {
          "name": "end",
          "type": "uint256"
        },
        {
          "name": "whiteList",
          "type": "address[]"
        }
      ],
      "name": "calculatePhaseOptionsFall",
      "outputs": [
        {
          "name": "",
          "type": "int256[]"
        }
      ],
      "payable": false,
      "stateMutability": "view",
      "type": "function"
    },
    {
      "constant": true,
      "inputs": [
        {
          "name": "optionsId",
          "type": "uint256"
        }
      ],
      "name": "getOptionsById",
      "outputs": [
        {
          "name": "",
          "type": "uint256"
        },
        {
          "name": "",
          "type": "address"
        },
        {
          "name": "",
          "type": "uint8"
        },
        {
          "name": "",
          "type": "uint32"
        },
        {
          "name": "",
          "type": "uint256"
        },
        {
          "name": "",
          "type": "uint256"
        },
        {
          "name": "",
          "type": "uint256"
        }
      ],
      "payable": false,
      "stateMutability": "view",
      "type": "function"
    },
    {
      "constant": false,
      "inputs": [
        {
          "name": "oracle",
          "type": "address"
        }
      ],
      "name": "setOracleAddress",
      "outputs": [],
      "payable": false,
      "stateMutability": "nonpayable",
      "type": "function"
    },
    {
      "constant": true,
      "inputs": [
        {
          "name": "optionID",
          "type": "uint256"
        },
        {
          "name": "amount",
          "type": "uint256"
        }
      ],
      "name": "getBurnedFullPay",
      "outputs": [
        {
          "name": "",
          "type": "address"
        },
        {
          "name": "",
          "type": "uint256"
        }
      ],
      "payable": false,
      "stateMutability": "view",
      "type": "function"
    },
    {
      "constant": true,
      "inputs": [],
      "name": "getOptionsPriceAddress",
      "outputs": [
        {
          "name": "",
          "type": "address"
        }
      ],
      "payable": false,
      "stateMutability": "view",
      "type": "function"
    },
    {
      "constant": true,
      "inputs": [],
      "name": "getBurnTimeLimit",
      "outputs": [
        {
          "name": "",
          "type": "uint256"
        }
      ],
      "payable": false,
      "stateMutability": "view",
      "type": "function"
    },
    {
      "constant": true,
      "inputs": [
        {
          "name": "optionsId",
          "type": "uint256"
        },
        {
          "name": "amount",
          "type": "uint256"
        }
      ],
      "name": "getExerciseWorth",
      "outputs": [
        {
          "name": "",
          "type": "uint256"
        }
      ],
      "payable": false,
      "stateMutability": "view",
      "type": "function"
    },
    {
      "constant": true,
      "inputs": [
        {
          "name": "whiteList",
          "type": "address[]"
        }
      ],
      "name": "getNetWrothCalInfo",
      "outputs": [
        {
          "name": "",
          "type": "uint256"
        },
        {
          "name": "",
          "type": "int256[]"
        }
      ],
      "payable": false,
      "stateMutability": "view",
      "type": "function"
    },
    {
      "constant": true,
      "inputs": [
        {
          "name": "optionsId",
          "type": "uint256"
        }
      ],
      "name": "getOptionsLimitTimeById",
      "outputs": [
        {
          "name": "",
          "type": "uint256"
        }
      ],
      "payable": false,
      "stateMutability": "view",
      "type": "function"
    },
    {
      "constant": false,
      "inputs": [
        {
          "name": "from",
          "type": "address"
        },
        {
          "name": "id",
          "type": "uint256"
        },
        {
          "name": "amount",
          "type": "uint256"
        },
        {
          "name": "optionPrice",
          "type": "uint256"
        }
      ],
      "name": "burnOptions",
      "outputs": [],
      "payable": false,
      "stateMutability": "nonpayable",
      "type": "function"
    },
    {
      "constant": false,
      "inputs": [],
      "name": "renounceOwnership",
      "outputs": [],
      "payable": false,
      "stateMutability": "nonpayable",
      "type": "function"
    },
    {
      "constant": true,
      "inputs": [
        {
          "name": "expiration",
          "type": "uint256"
        }
      ],
      "name": "checkExpiration",
      "outputs": [],
      "payable": false,
      "stateMutability": "view",
      "type": "function"
    },
    {
      "constant": true,
      "inputs": [],
      "name": "getTotalOccupiedCollateral",
      "outputs": [
        {
          "name": "",
          "type": "uint256"
        }
      ],
      "payable": false,
      "stateMutability": "view",
      "type": "function"
    },
    {
      "constant": false,
      "inputs": [
        {
          "name": "expiration",
          "type": "uint256"
        }
      ],
      "name": "addExpiration",
      "outputs": [],
      "payable": false,
      "stateMutability": "nonpayable",
      "type": "function"
    },
    {
      "constant": true,
      "inputs": [
        {
          "name": "settlement",
          "type": "address"
        }
      ],
      "name": "getNetWrothLatestWorth",
      "outputs": [
        {
          "name": "",
          "type": "int256"
        }
      ],
      "payable": false,
      "stateMutability": "view",
      "type": "function"
    },
    {
      "constant": false,
      "inputs": [
        {
          "name": "removeExpiration",
          "type": "uint256"
        }
      ],
      "name": "removeExpirationList",
      "outputs": [
        {
          "name": "",
          "type": "bool"
        }
      ],
      "payable": false,
      "stateMutability": "nonpayable",
      "type": "function"
    },
    {
      "constant": true,
      "inputs": [],
      "name": "owner",
      "outputs": [
        {
          "name": "",
          "type": "address"
        }
      ],
      "payable": false,
      "stateMutability": "view",
      "type": "function"
    },
    {
      "constant": true,
      "inputs": [],
      "name": "isOwner",
      "outputs": [
        {
          "name": "",
          "type": "bool"
        }
      ],
      "payable": false,
      "stateMutability": "view",
      "type": "function"
    },
    {
      "constant": true,
      "inputs": [],
      "name": "getExpirationList",
      "outputs": [
        {
          "name": "",
          "type": "uint256[]"
        }
      ],
      "payable": false,
      "stateMutability": "view",
      "type": "function"
    },
    {
      "constant": false,
      "inputs": [
        {
          "name": "from",
          "type": "address"
        },
        {
          "name": "settlement",
          "type": "address"
        },
        {
          "name": "type_ly_exp",
          "type": "uint256"
        },
        {
          "name": "strikePrice",
          "type": "uint256"
        },
        {
          "name": "optionPrice",
          "type": "uint256"
        },
        {
          "name": "amount",
          "type": "uint256"
        }
      ],
      "name": "createOptions",
      "outputs": [],
      "payable": false,
      "stateMutability": "nonpayable",
      "type": "function"
    },
    {
      "constant": false,
      "inputs": [
        {
          "name": "addAddress",
          "type": "address"
        }
      ],
      "name": "addOperator",
      "outputs": [],
      "payable": false,
      "stateMutability": "nonpayable",
      "type": "function"
    },
    {
      "constant": true,
      "inputs": [
        {
          "name": "whiteList",
          "type": "address[]"
        }
      ],
      "name": "getOptionCalRangeAll",
      "outputs": [
        {
          "name": "",
          "type": "uint256"
        },
        {
          "name": "",
          "type": "int256"
        },
        {
          "name": "",
          "type": "uint256"
        },
        {
          "name": "",
          "type": "int256[]"
        },
        {
          "name": "",
          "type": "uint256"
        },
        {
          "name": "",
          "type": "uint256"
        }
      ],
      "payable": false,
      "stateMutability": "view",
      "type": "function"
    },
    {
      "constant": true,
      "inputs": [
        {
          "name": "expiration",
          "type": "uint256"
        }
      ],
      "name": "isEligibleExpiration",
      "outputs": [
        {
          "name": "",
          "type": "bool"
        }
      ],
      "payable": false,
      "stateMutability": "view",
      "type": "function"
    },
    {
      "constant": false,
      "inputs": [
        {
          "name": "optionsPrice",
          "type": "address"
        }
      ],
      "name": "setOptionsPriceAddress",
      "outputs": [],
      "payable": false,
      "stateMutability": "nonpayable",
      "type": "function"
    },
    {
      "constant": false,
      "inputs": [
        {
          "name": "removeAddress",
          "type": "address"
        }
      ],
      "name": "removeOperator",
      "outputs": [
        {
          "name": "",
          "type": "bool"
        }
      ],
      "payable": false,
      "stateMutability": "nonpayable",
      "type": "function"
    },
    {
      "constant": false,
      "inputs": [
        {
          "name": "underlying",
          "type": "uint32"
        }
      ],
      "name": "addUnderlyingAsset",
      "outputs": [],
      "payable": false,
      "stateMutability": "nonpayable",
      "type": "function"
    },
    {
      "constant": true,
      "inputs": [],
      "name": "getOracleAddress",
      "outputs": [
        {
          "name": "",
          "type": "address"
        }
      ],
      "payable": false,
      "stateMutability": "view",
      "type": "function"
    },
    {
      "constant": true,
      "inputs": [],
      "name": "getOptionInfoLength",
      "outputs": [
        {
          "name": "",
          "type": "uint256"
        }
      ],
      "payable": false,
      "stateMutability": "view",
      "type": "function"
    },
    {
      "constant": false,
      "inputs": [
        {
          "name": "timeLimit",
          "type": "uint256"
        }
      ],
      "name": "setBurnTimeLimit",
      "outputs": [],
      "payable": false,
      "stateMutability": "nonpayable",
      "type": "function"
    },
    {
      "constant": false,
      "inputs": [
        {
          "name": "managerAddress",
          "type": "address"
        }
      ],
      "name": "setManager",
      "outputs": [],
      "payable": false,
      "stateMutability": "nonpayable",
      "type": "function"
    },
    {
      "constant": true,
      "inputs": [],
      "name": "getManager",
      "outputs": [
        {
          "name": "",
          "type": "address"
        }
      ],
      "payable": false,
      "stateMutability": "view",
      "type": "function"
    },
    {
      "constant": false,
      "inputs": [
        {
          "name": "removeUnderlying",
          "type": "uint32"
        }
      ],
      "name": "removeUnderlyingAssets",
      "outputs": [
        {
          "name": "",
          "type": "bool"
        }
      ],
      "payable": false,
      "stateMutability": "nonpayable",
      "type": "function"
    },
    {
      "constant": true,
      "inputs": [
        {
          "name": "underlying",
          "type": "uint32"
        }
      ],
      "name": "isEligibleUnderlyingAsset",
      "outputs": [
        {
          "name": "",
          "type": "bool"
        }
      ],
      "payable": false,
      "stateMutability": "view",
      "type": "function"
    },
    {
      "constant": false,
      "inputs": [
        {
          "name": "index",
          "type": "uint256"
        },
        {
          "name": "addAddress",
          "type": "address"
        }
      ],
      "name": "setOperator",
      "outputs": [],
      "payable": false,
      "stateMutability": "nonpayable",
      "type": "function"
    },
    {
      "constant": true,
      "inputs": [
        {
          "name": "user",
          "type": "address"
        }
      ],
      "name": "getUserOptionsID",
      "outputs": [
        {
          "name": "",
          "type": "uint256[]"
        }
      ],
      "payable": false,
      "stateMutability": "view",
      "type": "function"
    },
    {
      "constant": true,
      "inputs": [],
      "name": "getOperator",
      "outputs": [
        {
          "name": "",
          "type": "address[]"
        }
      ],
      "payable": false,
      "stateMutability": "view",
      "type": "function"
    },
    {
      "constant": true,
      "inputs": [
        {
          "name": "underlying",
          "type": "uint32"
        }
      ],
      "name": "checkUnderlyingAsset",
      "outputs": [],
      "payable": false,
      "stateMutability": "view",
      "type": "function"
    },
    {
      "constant": false,
      "inputs": [
        {
          "name": "newOwner",
          "type": "address"
        }
      ],
      "name": "transferOwnership",
      "outputs": [],
      "payable": false,
      "stateMutability": "nonpayable",
      "type": "function"
    },
    {
      "constant": false,
      "inputs": [],
      "name": "setOccupiedCollateral",
      "outputs": [],
      "payable": false,
      "stateMutability": "nonpayable",
      "type": "function"
    },
    {
      "constant": true,
      "inputs": [
        {
          "name": "user",
          "type": "address"
        },
        {
          "name": "from",
          "type": "uint256"
        },
        {
          "name": "size",
          "type": "uint256"
        }
      ],
      "name": "getUserOptionsID",
      "outputs": [
        {
          "name": "",
          "type": "uint256[]"
        }
      ],
      "payable": false,
      "stateMutability": "view",
      "type": "function"
    },
    {
      "inputs": [
        {
          "name": "oracleAddr",
          "type": "address"
        },
        {
          "name": "optionsPriceAddr",
          "type": "address"
        },
        {
          "name": "ivAddress",
          "type": "address"
        }
      ],
      "payable": false,
      "stateMutability": "nonpayable",
      "type": "constructor"
    },
    {
      "anonymous": false,
      "inputs": [
        {
          "indexed": true,
          "name": "owner",
          "type": "address"
        },
        {
          "indexed": true,
          "name": "optionID",
          "type": "uint256"
        },
        {
          "indexed": false,
          "name": "optType",
          "type": "uint8"
        },
        {
          "indexed": false,
          "name": "underlying",
          "type": "uint32"
        },
        {
          "indexed": false,
          "name": "expiration",
          "type": "uint256"
        },
        {
          "indexed": false,
          "name": "strikePrice",
          "type": "uint256"
        },
        {
          "indexed": false,
          "name": "amount",
          "type": "uint256"
        }
      ],
      "name": "CreateOption",
      "type": "event"
    },
    {
      "anonymous": false,
      "inputs": [
        {
          "indexed": true,
          "name": "owner",
          "type": "address"
        },
        {
          "indexed": true,
          "name": "optionID",
          "type": "uint256"
        },
        {
          "indexed": false,
          "name": "amount",
          "type": "uint256"
        }
      ],
      "name": "BurnOption",
      "type": "event"
    },
    {
      "anonymous": false,
      "inputs": [
        {
          "indexed": false,
          "name": "value1",
          "type": "uint256"
        },
        {
          "indexed": false,
          "name": "value2",
          "type": "uint256"
        },
        {
          "indexed": false,
          "name": "value3",
          "type": "uint256"
        }
      ],
      "name": "DebugEvent",
      "type": "event"
    },
    {
      "anonymous": false,
      "inputs": [
        {
          "indexed": true,
          "name": "previousOwner",
          "type": "address"
        },
        {
          "indexed": true,
          "name": "newOwner",
          "type": "address"
        }
      ],
      "name": "OwnershipTransferred",
      "type": "event"
    },
    {
      "constant": true,
      "inputs": [
        {
          "name": "optType",
          "type": "uint8"
        },
        {
          "name": "strikePrice",
          "type": "uint256"
        },
        {
          "name": "underlyingPrice",
          "type": "uint256"
        }
      ],
      "name": "getOptionsWorth",
      "outputs": [
        {
          "name": "",
          "type": "uint256"
        }
      ],
      "payable": false,
      "stateMutability": "pure",
      "type": "function"
    },
    {
      "constant": true,
      "inputs": [
        {
          "name": "optType",
          "type": "uint8"
        },
        {
          "name": "strikePrice",
          "type": "uint256"
        },
        {
          "name": "underlyingPrice",
          "type": "uint256"
        }
      ],
      "name": "getOptionsPayback",
      "outputs": [
        {
          "name": "",
          "type": "uint256"
        }
      ],
      "payable": false,
      "stateMutability": "pure",
      "type": "function"
    }
  ],
  "bytecode": "0x6080604052610e106009553480156200001757600080fd5b5060405160608062004e2983398101604081815282516020840151919093015160008054600160a060020a031916331780825592939192859285928592600160a060020a0316917f8be0079c531659141344cd1fd0a4f28419497f9722a3daafe3b4186f6b6457e0908290a36040805160e0810182526201518081526203f480602082015262093a8091810191909152620d2f0060608201526213c680608082015262278d0060a08201526276a70060c0820152620000db90600890600762000148565b506040805180820190915260018082526002602083018190526200010092906200019f565b5060038054600160a060020a03948516600160a060020a031991821617909155600e805493851693821693909317909255600480549190931691161790555062000292915050565b8280548282559060005260206000209081019282156200018d579160200282015b828111156200018d578251829062ffffff1690559160200191906001019062000169565b506200019b9291506200024e565b5090565b82805482825590600052602060002090600701600890048101928215620002405791602002820160005b838211156200020c57835183826101000a81548163ffffffff021916908360ff1602179055509260200192600401602081600301049283019260010302620001c9565b80156200023e5782816101000a81549063ffffffff02191690556004016020816003010492830192600103026200020c565b505b506200019b9291506200026e565b6200026b91905b808211156200019b576000815560010162000255565b90565b6200026b91905b808211156200019b57805463ffffffff1916815560010162000275565b614b8780620002a26000396000f3006080604052600436106102635763ffffffff60e060020a6000350416630438d490811461026857806309057622146103eb5780630c3725711461041957806312039cc2146104575780632415e010146104775780632967eafe1461050a5780632b38f1801461052b57806332ab5c201461055e578063354af360146106625780633582d789146106b75780633ad2fb571461071c57806342e5479d1461073d57806343674c3a1461076e57806348ee201d146107d25780634c69c00f14610831578063597ce900146108525780635ca4b73b1461089057806364ed3017146108a557806367b8ceb9146108ba5780636a43c05e146108d55780636d84e2e3146109855780636ed82ec91461099d578063715018a6146109c7578063723931ca146109dc57806373a3d424146109f45780637cfff2d814610a095780637e1bcb7614610a215780637e838fa314610a425780638da5cb5b14610a6e5780638f32d59b14610a835780639052d5f814610a98578063924a69ce14610aad5780639870d7fe14610ae05780639a2a3a6014610b015780639ef975d214610bcd578063a093e2d014610be5578063ac8a584a14610c06578063afec82fc14610c27578063b18b78dd14610c45578063bec3107f14610c5a578063c5acbe1514610c6f578063d0ebdbe714610c87578063d500958414610ca8578063d6d1401214610cbd578063db6ad2bd14610cdb578063e7a1c1c014610cf9578063e7c5681514610d1d578063e7f43c6814610d3e578063ed55283414610d53578063ee29c94a14610d74578063f2fde38b14610d92578063f504e2f014610db3578063f7de192314610dc8575b600080fd5b34801561027457600080fd5b50610283600435602435610def565b60405180806020018060200180602001806020018060200186810386528b818151815260200191508051906020019060200280838360005b838110156102d35781810151838201526020016102bb565b5050505090500186810385528a818151815260200191508051906020019060200280838360005b838110156103125781810151838201526020016102fa565b50505050905001868103845289818151815260200191508051906020019060200280838360005b83811015610351578181015183820152602001610339565b50505050905001868103835288818151815260200191508051906020019060200280838360005b83811015610390578181015183820152602001610378565b50505050905001868103825287818151815260200191508051906020019060200280838360005b838110156103cf5781810151838201526020016103b7565b505050509050019a505050505050505050505060405180910390f35b3480156103f757600080fd5b50610400611039565b6040805192835260208301919091528051918290030190f35b34801561042557600080fd5b50610437600435602435604435611043565b604080519384526020840192909252151582820152519081900360600190f35b34801561046357600080fd5b506104756004356024356044356110be565b005b34801561048357600080fd5b5060408051602060046024803582810135848102808701860190975280865261047596843596369660449591949091019291829185019084908082843750506040805187358901803560208181028481018201909552818452989b9a9989019892975090820195509350839250850190849080828437509497506111959650505050505050565b34801561051657600080fd5b50610475600160a060020a03600435166112a3565b34801561053757600080fd5b5061054c60ff60043516602435604435611311565b60408051918252519081900360200190f35b34801561056a57600080fd5b5060408051606435600481810135602081810285810182019096528185526105c29583359560248035966044359636969095608495929093019290918291850190849080828437509497506113289650505050505050565b604051808060200180602001848152602001838103835286818151815260200191508051906020019060200280838360005b8381101561060c5781810151838201526020016105f4565b50505050905001838103825285818151815260200191508051906020019060200280838360005b8381101561064b578181015183820152602001610633565b505050509050019550505050505060405180910390f35b34801561066e57600080fd5b5060408051602060048035808201358381028086018501909652808552610283953695939460249493850192918291850190849080828437509497506114319650505050505050565b3480156106c357600080fd5b506106cc61164a565b60408051602080825283518183015283519192839290830191858101910280838360005b838110156107085781810151838201526020016106f0565b505050509050019250505060405180910390f35b34801561072857600080fd5b5061047560043563ffffffff602435166116cf565b34801561074957600080fd5b5061075261173b565b60408051600160a060020a039092168252519081900360200190f35b34801561077a57600080fd5b5060408051606435600481810135602081810285810182019096528185526106cc95833595602480359660443596369690956084959290930192909182918501908490808284375094975061174a9650505050505050565b3480156107de57600080fd5b506107ea6004356118d4565b60408051978852600160a060020a03909616602088015260ff9094168686015263ffffffff9092166060860152608085015260a084015260c0830152519081900360e00190f35b34801561083d57600080fd5b50610475600160a060020a0360043516611948565b34801561085e57600080fd5b5061086d6004356024356119b6565b60408051600160a060020a03909316835260208301919091528051918290030190f35b34801561089c57600080fd5b50610752611a26565b3480156108b157600080fd5b5061054c611a35565b3480156108c657600080fd5b5061054c600435602435611a3b565b3480156108e157600080fd5b506040805160206004803580820135838102808601850190965280855261092a95369593946024949385019291829185019084908082843750949750611bbb9650505050505050565b6040518083815260200180602001828103825283818151815260200191508051906020019060200280838360005b83811015610970578181015183820152602001610958565b50505050905001935050505060405180910390f35b34801561099157600080fd5b5061054c600435611c6e565b3480156109a957600080fd5b50610475600160a060020a0360043516602435604435606435611cf5565b3480156109d357600080fd5b50610475611ebf565b3480156109e857600080fd5b50610475600435611f55565b348015610a0057600080fd5b5061054c611fdd565b348015610a1557600080fd5b5061047560043561202f565b348015610a2d57600080fd5b5061054c600160a060020a036004351661208c565b348015610a4e57600080fd5b50610a5a6004356120a7565b604080519115158252519081900360200190f35b348015610a7a57600080fd5b5061075261210c565b348015610a8f57600080fd5b50610a5a61211b565b348015610aa457600080fd5b506106cc61212c565b348015610ab957600080fd5b50610475600160a060020a036004358116906024351660443560643560843560a435612183565b348015610aec57600080fd5b50610475600160a060020a03600435166122ab565b348015610b0d57600080fd5b5060408051602060048035808201358381028086018501909652808552610b56953695939460249493850192918291850190849080828437509497506123089650505050505050565b6040518087815260200186815260200185815260200180602001848152602001838152602001828103825285818151815260200191508051906020019060200280838360005b83811015610bb4578181015183820152602001610b9c565b5050505090500197505050505050505060405180910390f35b348015610bd957600080fd5b50610a5a600435612349565b348015610bf157600080fd5b50610475600160a060020a03600435166123ae565b348015610c1257600080fd5b50610a5a600160a060020a036004351661241c565b348015610c3357600080fd5b5061047563ffffffff6004351661247b565b348015610c5157600080fd5b506107526124d8565b348015610c6657600080fd5b5061054c6124e7565b348015610c7b57600080fd5b506104756004356124ed565b348015610c9357600080fd5b50610475600160a060020a036004351661253e565b348015610cb457600080fd5b506107526125ac565b348015610cc957600080fd5b50610a5a63ffffffff600435166125bb565b348015610ce757600080fd5b50610a5a63ffffffff6004351661261a565b348015610d0557600080fd5b50610475600435600160a060020a03602435166126ab565b348015610d2957600080fd5b506106cc600160a060020a0360043516612739565b348015610d4a57600080fd5b506106cc6127a5565b348015610d5f57600080fd5b5061054c60ff60043516602435604435612806565b348015610d8057600080fd5b5061047563ffffffff60043516612813565b348015610d9e57600080fd5b50610475600160a060020a03600435166128a2565b348015610dbf57600080fd5b506104756128f7565b348015610dd457600080fd5b506106cc600160a060020a03600435166024356044356129ec565b6060806060806060806060806060806000806005805490508d8f011115610e2657600554610e23908f63ffffffff612ad316565b9c505b60008d1115611028578c604051908082528060200260200182016040528015610e59578160200160208202803883390190505b5096508c604051908082528060200260200182016040528015610e86578160200160208202803883390190505b5095508c604051908082528060200260200182016040528015610eb3578160200160208202803883390190505b5094508c604051908082528060200260200182016040528015610ee0578160200160208202803883390190505b5093508c604051908082528060200260200182016040528015610f0d578160200160208202803883390190505b509250600091505b8c82101561101857600580548f8401908110610f2d57fe5b906000526020600020906005020190508060000160089054906101000a9004600160a060020a03168783815181101515610f6357fe5b600160a060020a03929092166020928302919091019091015280546001820154875160e060020a90920460ff1663ffffffff9182166201000002011690879084908110610fac57fe5b6020908102909101015260028101548551869084908110610fc957fe5b6020908102909101015260038101548451859084908110610fe657fe5b602090810290910101526004810154835184908490811061100357fe5b60209081029091010152600190910190610f15565b86868686869b509b509b509b509b505b505050505050509295509295909350565b600b54600d549091565b6000806000806000600b5487101561105b57600b5496505b87871061107157600094508493508392506110b3565b878611156110815787955061109a565b600b5486101561109a57600094508493508392506110b3565b6110a48787612b15565b91509150818160019450945094505b505093509350939050565b600a54600090811080156110f55750600a8054339190839081106110de57fe5b600091825260209091200154600160a060020a0316145b1515611171576040805160e560020a62461bcd02815260206004820152603060248201527f4d616e6167657261626c653a2063616c6c6572206973206e6f7420746865206560448201527f6c696769626c65204f70657261746f7200000000000000000000000000000000606482015290519081900360840190fd5b600b5483111561118157600b8390555b50600c9290925550600d8054919091039055565b6002546000908190600160a060020a03163314611222576040805160e560020a62461bcd02815260206004820152602660248201527f4d616e6167657261626c653a2063616c6c6572206973206e6f7420746865204d60448201527f616e616765720000000000000000000000000000000000000000000000000000606482015290519081900360840190fd5b600f5485111561123257600f8590555b5050805160005b8181101561129c57838181518110151561124f57fe5b9060200190602002015160106000858481518110151561126b57fe5b6020908102909101810151600160a060020a0316825281019190915260400160002080549091019055600101611239565b5050505050565b6112ab61211b565b15156112ef576040805160e560020a62461bcd0281526020600482018190526024820152600080516020614b3c833981519152604482015290519081900360640190fd5b60048054600160a060020a031916600160a060020a0392909216919091179055565b600061131e848484612c53565b90505b9392505050565b606080600060606000606089891015806113435750600f5488105b156113ae578651604051908082528060200260200182016040528015611373578160200160208202803883390190505b50875160405190808252806020026020018201604052801561139f578160200160208202803883390190505b50909650945060009350611424565b898811156113ba578997505b6113c5898989612c71565b92509250818910156113ec576113dc898389612de1565b9050808383955095509550611424565b8651604051908082528060200260200182016040528015611417578160200160208202803883390190505b5083838292509550955095505b5050509450945094915050565b6060806060806060600060608060608060606000808d51975087604051908082528060200260200182016040528015611474578160200160208202803883390190505b509650876040519080825280602002602001820160405280156114a1578160200160208202803883390190505b509550876040519080825280602002602001820160405280156114ce578160200160208202803883390190505b509450876040519080825280602002602001820160405280156114fb578160200160208202803883390190505b50935087604051908082528060200260200182016040528015611528578160200160208202803883390190505b509250600091505b87821015611636576115588e8381518110151561154957fe5b90602001906020020151612ee9565b80548851919250680100000000000000009004600160a060020a03169088908490811061158157fe5b600160a060020a03929092166020928302919091019091015280546001820154875160e060020a90920460ff1663ffffffff91821662010000020116908790849081106115ca57fe5b60209081029091010152600281015485518690849081106115e757fe5b602090810290910101526003810154845185908490811061160457fe5b602090810290910101526004810154835184908490811061162157fe5b60209081029091010152600190910190611530565b50949c939b50919950975095509350505050565b606060018054806020026020016040519081016040528092919081815260200182805480156116c457602002820191906000526020600020906000905b82829054906101000a900463ffffffff1663ffffffff16815260200190600401906020826003010492830192600103820291508084116116875790505b505050505090505b90565b6116d88161261a565b151561172e576040805160e560020a62461bcd02815260206004820152601f60248201527f756e6465726c79696e6720697320756e737570706f7274656420617373657400604482015290519081900360640190fd5b61173782611f55565b5050565b600454600160a060020a031690565b606080606060008088881015806117625750600f5487105b1561179a578551604051908082528060200260200182016040528015611792578160200160208202803883390190505b5094506118c8565b888711156117a6578896505b600f5488116117b557600f5497505b6117bd612f79565b93506117cb8888888761309a565b925085519150600090505b818110156118c4576003548651600160a060020a03909116906341976e099088908490811061180157fe5b906020019060200201516040518263ffffffff1660e060020a0281526004018082600160a060020a0316600160a060020a03168152602001915050602060405180830381600087803b15801561185657600080fd5b505af115801561186a573d6000803e3d6000fd5b505050506040513d602081101561188057600080fd5b5051835184908390811061189057fe5b906020019060200201518115156118a357fe5b0583828151811015156118b257fe5b602090810290910101526001016117d6565b8294505b50505050949350505050565b6000806000806000806000806118e989612ee9565b805460018201546002830154600384015460049094015467ffffffffffffffff84169e680100000000000000008504600160a060020a03169e5060e060020a90940460ff169c5063ffffffff9092169a50985091965090945092505050565b61195061211b565b1515611994576040805160e560020a62461bcd0281526020600482018190526024820152600080516020614b3c833981519152604482015290519081900360640190fd5b60038054600160a060020a031916600160a060020a0392909216919091179055565b60001982016000908152600660205260408120600181015460028201546004830154849392600160a060020a031691670de0b6b3a764000091611a10918891611a049163ffffffff61324216565b9063ffffffff61324216565b811515611a1957fe5b0492509250509250929050565b600e54600160a060020a031690565b60095490565b6000611a45614a8c565b600080611a5186612ee9565b6040805160e081018252825467ffffffffffffffff81168252680100000000000000008104600160a060020a0316602083015260e060020a900460ff1691810191909152600182015463ffffffff16606082015260028201546080820152600382015460a082015260049091015460c08201529250611acf836132e1565b611ad9838661333c565b6003546060840151604080517fda66325700000000000000000000000000000000000000000000000000000000815263ffffffff909216600483015251600160a060020a039092169163da663257916024808201926020929091908290030181600087803b158015611b4a57600080fd5b505af1158015611b5e573d6000803e3d6000fd5b505050506040513d6020811015611b7457600080fd5b5051604084015160a0850151919350611b8d9184613398565b9050801515611b9f5760009350611bb2565b611baf818663ffffffff61324216565b93505b50505092915050565b600060606000606060008551925082604051908082528060200260200182016040528015611bf3578160200160208202803883390190505b509150600090505b82811015611c6057601060008783815181101515611c1557fe5b90602001906020020151600160a060020a0316600160a060020a03168152602001908152602001600020548282815181101515611c4e57fe5b60209081029091010152600101611bfb565b50600f549590945092505050565b60008082118015611c8157506005548211155b1515611cd7576040805160e560020a62461bcd02815260206004820152601660248201527f6f7074696f6e206964206973206e6f7420657869737400000000000000000000604482015290519081900360640190fd5b50600954600019820160009081526006602052604090205401919050565b611cfd614a8c565b600254600090600160a060020a03163314611d88576040805160e560020a62461bcd02815260206004820152602660248201527f4d616e6167657261626c653a2063616c6c6572206973206e6f7420746865204d60448201527f616e616765720000000000000000000000000000000000000000000000000000606482015290519081900360840190fd5b611d938686866133cc565b611d9c85612ee9565b6040805160e081018252825467ffffffffffffffff81168252680100000000000000008104600160a060020a0390811660208085019190915260e060020a90920460ff1683850152600185015463ffffffff16606084018190526002860154608085015260038087015460a086015260049687015460c08601525485517fda663257000000000000000000000000000000000000000000000000000000008152968701919091529351929650929092169263da6632579260248083019391928290030181600087803b158015611e7157600080fd5b505af1158015611e85573d6000803e3d6000fd5b505050506040513d6020811015611e9b57600080fd5b50519050611eaa8285836135b3565b611eb6828583866135eb565b50505050505050565b611ec761211b565b1515611f0b576040805160e560020a62461bcd0281526020600482018190526024820152600080516020614b3c833981519152604482015290519081900360640190fd5b60008054604051600160a060020a03909116907f8be0079c531659141344cd1fd0a4f28419497f9722a3daafe3b4186f6b6457e0908390a360008054600160a060020a0319169055565b611f5e81612349565b1515611fda576040805160e560020a62461bcd02815260206004820152602160248201527f65787069726174696f6e2076616c7565206973206e6f7420737570706f72746560448201527f6400000000000000000000000000000000000000000000000000000000000000606482015290519081900360840190fd5b50565b6000806000600d5412151561200857600d54600c546120019163ffffffff61374816565b915061202b565b600d54600003905080600c5411156120265780600c5403915061202b565b600091505b5090565b61203761211b565b151561207b576040805160e560020a62461bcd0281526020600482018190526024820152600080516020614b3c833981519152604482015290519081900360640190fd5b611fda60088263ffffffff6137a516565b600160a060020a031660009081526010602052604090205490565b60006120b161211b565b15156120f5576040805160e560020a62461bcd0281526020600482018190526024820152600080516020614b3c833981519152604482015290519081900360640190fd5b61210660088363ffffffff61381c16565b92915050565b600054600160a060020a031690565b600054600160a060020a0316331490565b606060088054806020026020016040519081016040528092919081815260200182805480156116c457602002820191906000526020600020905b815481526020019060010190808311612166575050505050905090565b61218b614a8c565b600254600160a060020a03163314612213576040805160e560020a62461bcd02815260206004820152602660248201527f4d616e6167657261626c653a2063616c6c6572206973206e6f7420746865204d60448201527f616e616765720000000000000000000000000000000000000000000000000000606482015290519081900360840190fd5b6122218787878787876138c9565b60055461222d90612ee9565b6040805160e081018252825467ffffffffffffffff81168252680100000000000000008104600160a060020a0316602083015260e060020a900460ff1691810191909152600182015463ffffffff16606082015260028201546080820152600382015460a082015260049091015460c08201529050611eb681613b89565b6122b361211b565b15156122f7576040805160e560020a62461bcd0281526020600482018190526024820152600080516020614b3c833981519152604482015290519081900360640190fd5b611fda600a8263ffffffff613bd816565b6000806000606060008060008060006060612321611039565b9350935061232e8b611bbb565b600554959d949c50909a509850929650439550909350505050565b600061210682600880548060200260200160405190810160405280929190818152602001828054801561239b57602002820191906000526020600020905b815481526020019060010190808311612387575b5050505050613c7290919063ffffffff16565b6123b661211b565b15156123fa576040805160e560020a62461bcd0281526020600482018190526024820152600080516020614b3c833981519152604482015290519081900360640190fd5b600e8054600160a060020a031916600160a060020a0392909216919091179055565b600061242661211b565b151561246a576040805160e560020a62461bcd0281526020600482018190526024820152600080516020614b3c833981519152604482015290519081900360640190fd5b612106600a8363ffffffff613cb116565b61248361211b565b15156124c7576040805160e560020a62461bcd0281526020600482018190526024820152600080516020614b3c833981519152604482015290519081900360640190fd5b611fda60018263ffffffff613d8816565b600354600160a060020a031690565b60055490565b6124f561211b565b1515612539576040805160e560020a62461bcd0281526020600482018190526024820152600080516020614b3c833981519152604482015290519081900360640190fd5b600955565b61254661211b565b151561258a576040805160e560020a62461bcd0281526020600482018190526024820152600080516020614b3c833981519152604482015290519081900360640190fd5b60028054600160a060020a031916600160a060020a0392909216919091179055565b600254600160a060020a031690565b60006125c561211b565b1515612609576040805160e560020a62461bcd0281526020600482018190526024820152600080516020614b3c833981519152604482015290519081900360640190fd5b61210660018363ffffffff613e5116565b600061210682600180548060200260200160405190810160405280929190818152602001828054801561269857602002820191906000526020600020906000905b82829054906101000a900463ffffffff1663ffffffff168152602001906004019060208260030104928301926001038202915080841161265b5790505b5050505050613f4890919063ffffffff16565b6126b361211b565b15156126f7576040805160e560020a62461bcd0281526020600482018190526024820152600080516020614b3c833981519152604482015290519081900360640190fd5b80600a8381548110151561270757fe5b9060005260206000200160006101000a815481600160a060020a030219169083600160a060020a031602179055505050565b600160a060020a03811660009081526007602090815260409182902080548351818402810184019094528084526060939283018282801561279957602002820191906000526020600020905b815481526020019060010190808311612785575b50505050509050919050565b6060600a8054806020026020016040519081016040528092919081815260200182805480156116c457602002820191906000526020600020905b8154600160a060020a031681526001909101906020018083116127df575050505050905090565b600061131e848484613398565b611fda81600180548060200260200160405190810160405280929190818152602001828054801561288f57602002820191906000526020600020906000905b82829054906101000a900463ffffffff1663ffffffff16815260200190600401906020826003010492830192600103820291508084116128525790505b5050505050613f9390919063ffffffff16565b6128aa61211b565b15156128ee576040805160e560020a62461bcd0281526020600482018190526024820152600080516020614b3c833981519152604482015290519081900360640190fd5b611fda81613ff3565b60008060008060008080600a805490501180156129375750600a80543391908390811061292057fe5b600091825260209091200154600160a060020a0316145b15156129b3576040805160e560020a62461bcd02815260206004820152603060248201527f4d616e6167657261626c653a2063616c6c6572206973206e6f7420746865206560448201527f6c696769626c65204f70657261746f7200000000000000000000000000000000606482015290519081900360840190fd5b600d54955060058054905094506129cd85600b5487611043565b93509350935081156129e4576129e48484886110be565b505050505050565b606080600083604051908082528060200260200182016040528015612a1b578160200160208202803883390190505b50600160a060020a0387166000908152600760205260409020549092508585011115612a6d57600160a060020a038616600090815260076020526040902054612a6a908663ffffffff612ad316565b93505b5060005b83811015612aca57600160a060020a03861660009081526007602052604090208054868301908110612a9f57fe5b90600052602060002001548282815181101515612ab857fe5b60209081029091010152600101612a71565b50949350505050565b600061132183836040805190810160405280601e81526020017f536166654d6174683a207375627472616374696f6e206f766572666c6f7700008152506140d4565b600080600060606000806000612b2e89600b548a614177565b9099509450612b3b612f79565b9350600092505b87891015612c4457612b7b60058a815481101515612b5c57fe5b600091825260209091206001600590920201015463ffffffff166141f8565b9150612c3360058a815481101515612b8f57fe5b60009182526020918290206040805160e081018252600593909302909101805467ffffffffffffffff81168452680100000000000000008104600160a060020a03169484019490945260e060020a90930460ff1690820152600182015463ffffffff16606082015260028201546080820152600382015460a082015260049091015460c08201528551869085908110612c2457fe5b90602001906020020151614289565b600190990198928301929050612b42565b50909792965091945050505050565b600060ff8416158284111415612c6a575081611321565b5080611321565b60606000606060008060008060008851604051908082528060200260200182016040528015612caa578160200160208202803883390190505b509550612cba8b600f548c614177565b909b5094505b898b1015612dd057600580548c908110612cd657fe5b90600052602060002090600502019350600660008c81526020019081526020016000209250612d2e8360030154856003015486600201548660050154876006015489600001601c9054906101000a900460ff166142d2565b91508260040154821015612dc5576004830154600184015492900391612d5e908a90600160a060020a03166143aa565b9050670de0b6b3a7640000612d8685600401548402856002015461324290919063ffffffff16565b811515612d8f57fe5b049150818682815181101515612da157fe5b90602001906020020151018682815181101515612dba57fe5b602090810290910101525b6001909a0199612cc0565b509399929850919650505050505050565b6060806000806000808651604051908082528060200260200182016040528015612e15578160200160208202803883390190505b5094505b87891015612edc57600580548a908110612e2f57fe5b90600052602060002090600502019350600084600401541115612ed15760008981526006602052604090206001810154909350612e76908890600160a060020a03166143aa565b9150670de0b6b3a76400008460040154846002015485600401540202811515612e9b57fe5b049050808583815181101515612ead57fe5b90602001906020020151018583815181101515612ec657fe5b602090810290910101525b600190980197612e19565b5092979650505050505050565b60008082118015612efc57506005548211155b1515612f52576040805160e560020a62461bcd02815260206004820152601660248201527f6f7074696f6e206964206973206e6f7420657869737400000000000000000000604482015290519081900360640190fd5b600580546000198401908110612f6457fe5b90600052602060002090600502019050919050565b600154604080518281526020808402820101909152606091908290600090838015612fae578160200160208202803883390190505b509150600090505b828110156130935760035460018054600160a060020a039092169163da663257919084908110612fe257fe5b90600052602060002090600891828204019190066004029054906101000a900463ffffffff166040518263ffffffff1660e060020a028152600401808263ffffffff168152602001915050602060405180830381600087803b15801561304757600080fd5b505af115801561305b573d6000803e3d6000fd5b505050506040513d602081101561307157600080fd5b5051825183908390811061308157fe5b60209081029091010152600101612fb6565b5092915050565b60608060008060008087516040519080825280602002602001820160405280156130ce578160200160208202803883390190505b5094505b888a101561323457600580548b9081106130e857fe5b90600052602060002090600502019350428460020154108061310c57506004840154155b1561311657613229565b600184015461312a9063ffffffff166141f8565b6040805160e081018252865467ffffffffffffffff81168252680100000000000000008104600160a060020a0316602083015260e060020a900460ff1691810191909152600186015463ffffffff16606082015260028601546080820152600386015460a0820152600486015460c0820181905289519293506131c2928a90859081106131b357fe5b906020019060200201516143f7565b925082156132295760008a815260066020526040902060018101549092506131f4908990600160a060020a03166143aa565b905082858281518110151561320557fe5b9060200190602002015103858281518110151561321e57fe5b602090810290910101525b6001909901986130d2565b509298975050505050505050565b6000808315156132555760009150613093565b5082820282848281151561326557fe5b0414611321576040805160e560020a62461bcd02815260206004820152602160248201527f536166654d6174683a206d756c7469706c69636174696f6e206f766572666c6f60448201527f7700000000000000000000000000000000000000000000000000000000000000606482015290519081900360840190fd5b60808101514210611fda576040805160e560020a62461bcd02815260206004820152601160248201527f6f7074696f6e2069732065787069726564000000000000000000000000000000604482015290519081900360640190fd5b60c0820151811115611737576040805160e560020a62461bcd02815260206004820152601d60248201527f6f7074696f6e20616d6f756e7420697320696e73756666696369656e74000000604482015290519081900360640190fd5b600060ff84161582841114156133b057506000611321565b60ff8416156133c1578183036133c5565b8282035b9050611321565b60006133d783612ee9565b6040805160e081018252825467ffffffffffffffff81168252680100000000000000008104600160a060020a0316602083015260e060020a900460ff1691810191909152600182015463ffffffff16606082015260028201546080820152600382015460a0820152600482015460c0820152909150613455906132e1565b805461346a9067ffffffffffffffff16614484565b6040805160e081018252825467ffffffffffffffff81168252680100000000000000008104600160a060020a0316602083015260e060020a900460ff1691810191909152600182015463ffffffff16606082015260028201546080820152600382015460a0820152600482015460c08201526134e69085614519565b6040805160e081018252825467ffffffffffffffff81168252680100000000000000008104600160a060020a0316602083015260e060020a900460ff1691810191909152600182015463ffffffff16606082015260028201546080820152600382015460a0820152600482015460c0820152613562908361333c565b60048101805483900390556040805183815290518491600160a060020a038716917f1fb99acdc281bccbecb3d0073a307341181a8a7d3cd532fdaef5ce7200401c2d9181900360200190a350505050565b60006135cc83611a0486604001518760a0015186612c53565b600d549091506135e2908263ffffffff61458816565b600d5550505050565b60008060008060006135fe8989896143f7565b89516000190167ffffffffffffffff16600090815260066020526040902060048101549195509350861061363357600061363b565b858360040154035b9150670de0b6b3a764000061365f898402856002015461324290919063ffffffff16565b81151561366857fe5b6003546001860154604080517f41976e09000000000000000000000000000000000000000000000000000000008152600160a060020a039283166004820152905194909304955016916341976e09916024808201926020929091908290030181600087803b1580156136d957600080fd5b505af11580156136ed573d6000803e3d6000fd5b505050506040513d602081101561370357600080fd5b50518481151561370f57fe5b600190940154600160a060020a031660009081526010602052604090208054919094059290920391909101909155509095945050505050565b600082820183811015611321576040805160e560020a62461bcd02815260206004820152601b60248201527f536166654d6174683a206164646974696f6e206f766572666c6f770000000000604482015290519081900360640190fd5b6137fe828054806020026020016040519081016040528092919081815260200182805480156137f357602002820191906000526020600020905b8154815260200190600101908083116137df575b505050505082613c72565b15156117375781546001810183556000928352602090922090910155565b8154600090815b818110156138585783858281548110151561383a57fe5b9060005260206000200154141561385057613858565b600101613823565b818110156138bc57600019820181146138a257846001830381548110151561387c57fe5b9060005260206000200154858281548110151561389557fe5b6000918252602090912001555b84546138b2866000198301614ac8565b50600192506138c1565b600092505b505092915050565b60008060006138d6614a8c565b60055493506138e4886145cd565b92506138ef886145da565b9150600560e0604051908101604052808660010167ffffffffffffffff1681526020018c600160a060020a031681526020018560ff1681526020018463ffffffff168152602001426139408c6145f3565b01815260208082018b905260409182018990528354600180820186556000958652828620855160059384029091018054878601518888015167ffffffffffffffff1990921667ffffffffffffffff909416939093177fffffffff0000000000000000000000000000000000000000ffffffffffffffff1668010000000000000000600160a060020a0394851602177fffffff00ffffffffffffffffffffffffffffffffffffffffffffffffffffffff1660e060020a60ff909216919091021781556060870151818401805463ffffffff191663ffffffff9092169190911790556080870151600282015560a0870151600382015560c090960151600490960195909555938f168552600782529184208054808501825590855293209187019190920155805485908110613a6f57fe5b60009182526020918290206040805160e081018252600593909302909101805467ffffffffffffffff81168452680100000000000000008104600160a060020a03169484019490945260e060020a90930460ff1690820152600182015463ffffffff908116606083015260028301546080830152600383015460a083015260049092015460c08201529150613b0d9082908b9089908b908716614614565b836001018a600160a060020a03167f18f523957030bee670136363e25b2f847bf1bd07bb7b33c6d5475936a9aac70d858542613b488e6145f3565b6040805160ff909516855263ffffffff90931660208501520182820152606082018c9052608082018a9052519081900360a00190a350505050505050505050565b80516000190167ffffffffffffffff1660009081526006602052604081206003810154909190613bba908490614289565b600d54909150613bd0908263ffffffff6148d716565b600d55505050565b613c3b82805480602002602001604051908101604052809291908181526020018280548015613c3057602002820191906000526020600020905b8154600160a060020a03168152600190910190602001808311613c12575b505050505082614919565b1515611737578154600181018355600083815260209020018054600160a060020a038316600160a060020a03199091161790555050565b8151600090815b818110156138bc57838582815181101515613c9057fe5b906020019060200201511415613ca957600192506138c1565b600101613c79565b8154600090815b81811015613d005783600160a060020a03168582815481101515613cd857fe5b600091825260209091200154600160a060020a03161415613cf857613d00565b600101613cb8565b818110156138bc57600019820181146138a2578460018303815481101515613d2457fe5b6000918252602090912001548554600160a060020a0390911690869083908110613d4a57fe5b9060005260206000200160006101000a815481600160a060020a030219169083600160a060020a0316021790555084546138b2866000198301614ac8565b613e0d82805480602002602001604051908101604052809291908181526020018280548015613e0257602002820191906000526020600020906000905b82829054906101000a900463ffffffff1663ffffffff1681526020019060040190602082600301049283019260010382029150808411613dc55790505b505050505082613f48565b1515611737578154600181018355600092835260209092206008830401805460079093166004026101000a63ffffffff818102199094169290931692909202179055565b8154600090815b81811015613eac578363ffffffff168582815481101515613e7557fe5b6000918252602090912060088204015460079091166004026101000a900463ffffffff161415613ea457613eac565b600101613e58565b818110156138bc5760001982018114613f38578460018303815481101515613ed057fe5b90600052602060002090600891828204019190066004029054906101000a900463ffffffff168582815481101515613f0457fe5b90600052602060002090600891828204019190066004026101000a81548163ffffffff021916908363ffffffff1602179055505b84546138b2866000198301614af1565b8151600090815b818110156138bc578363ffffffff168582815181101515613f6c57fe5b9060200190602002015163ffffffff161415613f8b57600192506138c1565b600101613f4f565b613f9d8282613f48565b1515611737576040805160e560020a62461bcd02815260206004820152601f60248201527f77686974654c6973743a207573696e6720696e76616c69642075696e74333200604482015290519081900360640190fd5b600160a060020a0381161515614079576040805160e560020a62461bcd02815260206004820152602660248201527f4f776e61626c653a206e6577206f776e657220697320746865207a65726f206160448201527f6464726573730000000000000000000000000000000000000000000000000000606482015290519081900360840190fd5b60008054604051600160a060020a03808516939216917f8be0079c531659141344cd1fd0a4f28419497f9722a3daafe3b4186f6b6457e091a360008054600160a060020a031916600160a060020a0392909216919091179055565b60008082858511156141675760405160e560020a62461bcd0281526004018080602001828103825283818151815260200191508051906020019080838360005b8381101561412c578181015183820152602001614114565b50505050905090810190601f1680156141595780820380516001836020036101000a031916815260200191505b509250505060405180910390fd5b505050818303805b509392505050565b60008083818187111561418f578682935093506141ee565b8196505b848710156141e75760058054889081106141a957fe5b9060005260206000209060050201905042816002015410806141cd57506004810154155b156141d7576141dc565b6141e7565b600190960195614193565b8687935093505b5050935093915050565b600061210682600180548060200260200160405190810160405280929190818152602001828054801561427657602002820191906000526020600020906000905b82829054906101000a900463ffffffff1663ffffffff16815260200190600401906020826003010492830192600103820291508084116142395790505b505050505061496a90919063ffffffff16565b6000804284608001511115806142a1575060c0840151155b156142af5760009150613093565b6142ca8460c00151611a0486604001518760a0015187612c53565b949350505050565b60004285111561439c57600e54604080517f055ef6ab000000000000000000000000000000000000000000000000000000008152600481018a9052602481018990524288036044820152606481018790526084810186905260ff851660a48201529051600160a060020a039092169163055ef6ab9160c4808201926020929091908290030181600087803b15801561436957600080fd5b505af115801561437d573d6000803e3d6000fd5b505050506040513d602081101561439357600080fd5b505190506143a0565b5060005b9695505050505050565b8151600090815b818110156142ca5783600160a060020a031685828151811015156143d157fe5b90602001906020020151600160a060020a031614156143ef576142ca565b6001016143b1565b60008060008042876080015111158061440e575085155b1561441c576000935061447a565b8561443088604001518960a0015188613398565b02925060066000600189600001510367ffffffffffffffff16815260200190815260200160002091508561447188604001518960a001518560030154613398565b02905080830393505b5050509392505050565b600954600019820160009081526006602052604090205442910110611fda576040805160e560020a62461bcd02815260206004820152602560248201527f6f7074696f6e206c6f636b206c696d69746174696f6e206973206e6f7420657860448201527f7069726564000000000000000000000000000000000000000000000000000000606482015290519081900360840190fd5b80600160a060020a03168260200151600160a060020a0316141515611737576040805160e560020a62461bcd02815260206004820152601f60248201527f63616c6c6572206973206e6f7420746865206f7074696f6e73206f776e657200604482015290519081900360640190fd5b600061132183836000036040805190810160405280601e81526020017f536166654d6174683a207375627472616374696f6e206f766572666c6f7700008152506149b1565b67ffffffffffffffff1690565b68010000000000000000900467ffffffffffffffff1690565b700100000000000000000000000000000000900467ffffffffffffffff1690565b6000806000806000600360009054906101000a9004600160a060020a0316600160a060020a031663da663257876040518263ffffffff1660e060020a02815260040180828152602001915050602060405180830381600087803b15801561467a57600080fd5b505af115801561468e573d6000803e3d6000fd5b505050506040513d60208110156146a457600080fd5b81019080805190602001909291905050509450428a60800151039350600460009054906101000a9004600160a060020a0316600160a060020a031663185d12328b606001518c6040015187898c6040518663ffffffff1660e060020a028152600401808663ffffffff1663ffffffff1681526020018560ff1660ff168152602001848152602001838152602001828152602001955050505050506040805180830381600087803b15801561475757600080fd5b505af115801561476b573d6000803e3d6000fd5b505050506040513d604081101561478157600080fd5b508051602091820151600354604080517f41976e09000000000000000000000000000000000000000000000000000000008152600160a060020a038f81166004830152915194985092965016926341976e09926024808401938290030181600087803b1580156147f057600080fd5b505af1158015614804573d6000803e3d6000fd5b505050506040513d602081101561481a57600080fd5b5051670de0b6b3a764000081151561482e57fe5b6040805160e081018252428152600160a060020a039c8d1660208083019182529490930481830190815260608201998a52608082019c8d5260a0820197885260c082019687529d516000190167ffffffffffffffff16600090815260069485905291909120905181559051600182018054600160a060020a03191691909c1617909a55995160028a01555092516003880155945160048701555092516005850155505051910155565b600061132183836040805190810160405280601d81526020017f53616665496e743235363a206164646974696f6e206f766572666c6f770000008152506149b1565b8151600090815b818110156138bc5783600160a060020a0316858281518110151561494057fe5b90602001906020020151600160a060020a0316141561496257600192506138c1565b600101614920565b8151600090815b818110156142ca578363ffffffff16858281518110151561498e57fe5b9060200190602002015163ffffffff1614156149a9576142ca565b600101614971565b6000808085121581851215146149cb57838501915061416f565b60008512614a3457508383018285821215614a2b5760405160e560020a62461bcd0281526004018080602001828103825283818151815260200191508051906020019080838360008381101561412c578181015183820152602001614114565b5080915061416f565b508383018285821315614a2b5760405160e560020a62461bcd0281526004018080602001828103825283818151815260200191508051906020019080838360008381101561412c578181015183820152602001614114565b6040805160e081018252600080825260208201819052918101829052606081018290526080810182905260a0810182905260c081019190915290565b815481835581811115614aec57600083815260209020614aec918101908301614b21565b505050565b815481835581811115614aec576007016008900481600701600890048360005260206000209182019101614aec91905b6116cc91905b8082111561202b5760008155600101614b2756004f776e61626c653a2063616c6c6572206973206e6f7420746865206f776e6572a165627a7a72305820b42f1c69dd6403e2c5397f0814aa8a32670e3b84932cbd74d56078eee69e1bdd0029",
  "source": "pragma solidity ^0.4.26;\r\nimport \"../OptionsPool.sol\";\r\ncontract OptionsPoolTest is OptionsPool {\r\n        constructor (address oracleAddr,address optionsPriceAddr,address ivAddress) OptionsPool(oracleAddr,optionsPriceAddr,ivAddress) public{\r\n    }\r\n    function getOptionsWorth(uint8 optType,uint256 strikePrice,uint256 underlyingPrice) public pure returns(uint256){\r\n        return _getOptionsWorth(optType,strikePrice,underlyingPrice);\r\n    }\r\n    function getOptionsPayback(uint8 optType,uint256 strikePrice,uint256 underlyingPrice)public pure returns(uint256){\r\n         return _getOptionsPayback(optType,strikePrice,underlyingPrice);\r\n    }\r\n    /*\r\n    function calTimeSharedPrice()public view returns(uint256){\r\n        uint256 timeValue;\r\n        if (begin>=optionPhaseInfo_Share[1] || preTime<optionEx.createdTime){\r\n            timeValue = _calculateFirstTimePrice(optionEx.fullPrice,tempValue,info.strikePrice,\r\n                optionEx.ivNumerator,optionEx.ivDenominator,info.optType);\r\n        }else{\r\n            timeValue = _calculateTimePrice(preTime,tempValue,info.strikePrice,\r\n                optionEx.ivNumerator,optionEx.ivDenominator,info.optType);\r\n        }\r\n    }\r\n    function _calculateFirstTimePrice(uint256 fullPrice,uint256 expiration,uint256 curTime,\r\n            uint256 strikePrice,uint256 ivNumerator,uint256 ivDenominator,uint8 optType)internal view returns (uint256){\r\n        uint256 nowValue = _calculateCurrentPrice(expiration,curTime,strikePrice,ivNumerator,\r\n            ivDenominator,optType);\r\n        return (fullPrice>nowValue)? fullPrice-nowValue : 0;\r\n    }\r\n    function _calculateTimePrice(uint256 preTime,uint256 expiration,uint256 curTime,\r\n            uint256 strikePrice,uint256 ivNumerator,uint256 ivDenominator,uint8 optType)internal view returns (uint256){\r\n        uint256 preValue = _optionsPrice.getOptionsPrice_iv(strikePrice,strikePrice,expiration-preTime,ivNumerator,\r\n            ivDenominator,optType);\r\n        uint256 nowValue = _calculateCurrentPrice(expiration,curTime,strikePrice,ivNumerator,\r\n            ivDenominator,optType);\r\n        return (preValue>nowValue)? preValue-nowValue : 0;\r\n    }\r\n    function _calculateCurrentPrice(uint256 expiration,uint256 curTime,uint256 strikePrice,uint256 ivNumerator,uint256 ivDenominator,uint8 optType)internal view returns (uint256){\r\n        if (expiration > curTime){\r\n        return _optionsPrice.getOptionsPrice_iv(strikePrice,strikePrice,expiration-curTime,ivNumerator,\r\n            ivDenominator,optType);\r\n        }\r\n        return 0;\r\n    }\r\n    */\r\n}\r\n\r\n",
  "sourcePath": "C:\\work\\solidity\\FinnexusOptions_V2\\contracts\\test\\optionPoolTest.sol",
  "compiler": {
    "name": "solc",
    "version": "0.4.26+commit.4563c3fc.Emscripten.clang"
  },
  "schemaVersion": "3.1.0",
  "updatedAt": "2020-08-12T10:47:35.110Z",
  "devdoc": {
    "methods": {
      "addExpiration(uint256)": {
        "details": "Implementation of add an eligible expiration into the expirationList.\r",
        "params": {
          "expiration": "new eligible expiration.\r"
        }
      },
      "addUnderlyingAsset(uint32)": {
        "details": "Implementation of add an eligible underlying into the underlyingAssets.\r",
        "params": {
          "underlying": "new eligible underlying.\r"
        }
      },
      "getExpirationList()": {
        "details": "Implementation of getting the eligible expirationList.\r"
      },
      "getUnderlyingAssets()": {
        "details": "Implementation of getting the eligible underlyingAssets.\r"
      },
      "isEligibleExpiration(uint256)": {
        "details": "Implementation of testing whether the input expiration is eligible.\r",
        "params": {
          "expiration": "input expiration for testing.\r"
        }
      },
      "isEligibleUnderlyingAsset(uint32)": {
        "details": "Implementation of testing whether the input underlying is eligible.\r",
        "params": {
          "underlying": "input underlying for testing.\r"
        }
      },
      "isOwner()": {
        "details": "Returns true if the caller is the current owner."
      },
      "owner()": {
        "details": "Returns the address of the current owner."
      },
      "removeExpirationList(uint256)": {
        "details": "Implementation of revoke an invalid expiration from the expirationList.\r",
        "params": {
          "removeExpiration": "revoked expiration.\r"
        }
      },
      "removeUnderlyingAssets(uint32)": {
        "details": "Implementation of revoke an invalid underlying from the underlyingAssets.\r",
        "params": {
          "removeUnderlying": "revoked underlying.\r"
        }
      },
      "renounceOwnership()": {
        "details": "Leaves the contract without owner. It will not be possible to call `onlyOwner` functions anymore. Can only be called by the current owner.     * NOTE: Renouncing ownership will leave the contract without an owner, thereby removing any functionality that is only available to the owner."
      },
      "transferOwnership(address)": {
        "details": "Transfers ownership of the contract to a new account (`newOwner`). Can only be called by the current owner."
      }
    }
  },
  "userdoc": {
    "methods": {
      "setManager(address)": {
        "notice": "contribution period to stop or not."
      }
    }
  }
}