{
  "contractName": "OptionsPoolTest",
  "abi": [
    {
      "constant": true,
      "inputs": [
        {
          "name": "from",
          "type": "uint256"
        },
        {
          "name": "size",
          "type": "uint256"
        }
      ],
      "name": "getOptionInfoList",
      "outputs": [
        {
          "name": "",
          "type": "address[]"
        },
        {
          "name": "",
          "type": "uint256[]"
        },
        {
          "name": "",
          "type": "uint256[]"
        },
        {
          "name": "",
          "type": "uint256[]"
        },
        {
          "name": "",
          "type": "uint256[]"
        }
      ],
      "payable": false,
      "stateMutability": "view",
      "type": "function"
    },
    {
      "constant": true,
      "inputs": [],
      "name": "sharedPhase",
      "outputs": [
        {
          "name": "",
          "type": "uint32"
        }
      ],
      "payable": false,
      "stateMutability": "view",
      "type": "function"
    },
    {
      "constant": false,
      "inputs": [
        {
          "name": "volatility",
          "type": "address"
        }
      ],
      "name": "setVolatilityAddress",
      "outputs": [],
      "payable": false,
      "stateMutability": "nonpayable",
      "type": "function"
    },
    {
      "constant": true,
      "inputs": [
        {
          "name": "calInfo",
          "type": "uint256"
        },
        {
          "name": "begin",
          "type": "uint256"
        },
        {
          "name": "end",
          "type": "uint256"
        },
        {
          "name": "whiteList",
          "type": "address[]"
        }
      ],
      "name": "calRangeSharedPayment",
      "outputs": [
        {
          "name": "",
          "type": "uint256[]"
        },
        {
          "name": "",
          "type": "uint256"
        },
        {
          "name": "",
          "type": "bool"
        }
      ],
      "payable": false,
      "stateMutability": "view",
      "type": "function"
    },
    {
      "constant": true,
      "inputs": [
        {
          "name": "ids",
          "type": "uint256[]"
        }
      ],
      "name": "getOptionInfoListFromID",
      "outputs": [
        {
          "name": "",
          "type": "address[]"
        },
        {
          "name": "",
          "type": "uint256[]"
        },
        {
          "name": "",
          "type": "uint256[]"
        },
        {
          "name": "",
          "type": "uint256[]"
        },
        {
          "name": "",
          "type": "uint256[]"
        }
      ],
      "payable": false,
      "stateMutability": "view",
      "type": "function"
    },
    {
      "constant": true,
      "inputs": [],
      "name": "getUnderlyingAssets",
      "outputs": [
        {
          "name": "",
          "type": "uint32[]"
        }
      ],
      "payable": false,
      "stateMutability": "view",
      "type": "function"
    },
    {
      "constant": true,
      "inputs": [
        {
          "name": "expiration",
          "type": "uint256"
        },
        {
          "name": "underlying",
          "type": "uint32"
        }
      ],
      "name": "buyOptionCheck",
      "outputs": [],
      "payable": false,
      "stateMutability": "view",
      "type": "function"
    },
    {
      "constant": true,
      "inputs": [
        {
          "name": "",
          "type": "uint256"
        }
      ],
      "name": "expirationList",
      "outputs": [
        {
          "name": "",
          "type": "uint256"
        }
      ],
      "payable": false,
      "stateMutability": "view",
      "type": "function"
    },
    {
      "constant": true,
      "inputs": [
        {
          "name": "",
          "type": "uint256"
        }
      ],
      "name": "underlyingAssets",
      "outputs": [
        {
          "name": "",
          "type": "uint32"
        }
      ],
      "payable": false,
      "stateMutability": "view",
      "type": "function"
    },
    {
      "constant": true,
      "inputs": [],
      "name": "getVolatilityAddress",
      "outputs": [
        {
          "name": "",
          "type": "address"
        }
      ],
      "payable": false,
      "stateMutability": "view",
      "type": "function"
    },
    {
      "constant": true,
      "inputs": [],
      "name": "getOptionCalRangeAll",
      "outputs": [
        {
          "name": "",
          "type": "uint256"
        },
        {
          "name": "",
          "type": "uint256"
        },
        {
          "name": "",
          "type": "uint256"
        },
        {
          "name": "",
          "type": "uint256"
        },
        {
          "name": "",
          "type": "uint256"
        },
        {
          "name": "",
          "type": "uint256"
        }
      ],
      "payable": false,
      "stateMutability": "view",
      "type": "function"
    },
    {
      "constant": true,
      "inputs": [],
      "name": "getLatestOption",
      "outputs": [
        {
          "name": "",
          "type": "uint256"
        },
        {
          "name": "",
          "type": "address"
        },
        {
          "name": "",
          "type": "uint8"
        },
        {
          "name": "",
          "type": "uint32"
        },
        {
          "name": "",
          "type": "uint256"
        },
        {
          "name": "",
          "type": "uint256"
        },
        {
          "name": "",
          "type": "uint256"
        }
      ],
      "payable": false,
      "stateMutability": "view",
      "type": "function"
    },
    {
      "constant": true,
      "inputs": [
        {
          "name": "optionsId",
          "type": "uint256"
        }
      ],
      "name": "getOptionsById",
      "outputs": [
        {
          "name": "",
          "type": "uint256"
        },
        {
          "name": "",
          "type": "address"
        },
        {
          "name": "",
          "type": "uint8"
        },
        {
          "name": "",
          "type": "uint32"
        },
        {
          "name": "",
          "type": "uint256"
        },
        {
          "name": "",
          "type": "uint256"
        },
        {
          "name": "",
          "type": "uint256"
        }
      ],
      "payable": false,
      "stateMutability": "view",
      "type": "function"
    },
    {
      "constant": false,
      "inputs": [
        {
          "name": "oracle",
          "type": "address"
        }
      ],
      "name": "setOracleAddress",
      "outputs": [],
      "payable": false,
      "stateMutability": "nonpayable",
      "type": "function"
    },
    {
      "constant": true,
      "inputs": [
        {
          "name": "",
          "type": "address"
        },
        {
          "name": "",
          "type": "uint256"
        }
      ],
      "name": "optionsBalances",
      "outputs": [
        {
          "name": "",
          "type": "uint256"
        }
      ],
      "payable": false,
      "stateMutability": "view",
      "type": "function"
    },
    {
      "constant": true,
      "inputs": [],
      "name": "getOptionsPriceAddress",
      "outputs": [
        {
          "name": "",
          "type": "address"
        }
      ],
      "payable": false,
      "stateMutability": "view",
      "type": "function"
    },
    {
      "constant": true,
      "inputs": [],
      "name": "getBurnTimeLimit",
      "outputs": [
        {
          "name": "",
          "type": "uint256"
        }
      ],
      "payable": false,
      "stateMutability": "view",
      "type": "function"
    },
    {
      "constant": true,
      "inputs": [
        {
          "name": "optionsId",
          "type": "uint256"
        },
        {
          "name": "amount",
          "type": "uint256"
        }
      ],
      "name": "getExerciseWorth",
      "outputs": [
        {
          "name": "",
          "type": "uint256"
        }
      ],
      "payable": false,
      "stateMutability": "view",
      "type": "function"
    },
    {
      "constant": true,
      "inputs": [
        {
          "name": "optionsId",
          "type": "uint256"
        }
      ],
      "name": "getOptionsLimitTimeById",
      "outputs": [
        {
          "name": "",
          "type": "uint256"
        }
      ],
      "payable": false,
      "stateMutability": "view",
      "type": "function"
    },
    {
      "constant": false,
      "inputs": [],
      "name": "renounceOwnership",
      "outputs": [],
      "payable": false,
      "stateMutability": "nonpayable",
      "type": "function"
    },
    {
      "constant": true,
      "inputs": [
        {
          "name": "expiration",
          "type": "uint256"
        }
      ],
      "name": "checkExpiration",
      "outputs": [],
      "payable": false,
      "stateMutability": "view",
      "type": "function"
    },
    {
      "constant": true,
      "inputs": [],
      "name": "getTotalOccupiedCollateral",
      "outputs": [
        {
          "name": "",
          "type": "uint256"
        }
      ],
      "payable": false,
      "stateMutability": "view",
      "type": "function"
    },
    {
      "constant": false,
      "inputs": [
        {
          "name": "from",
          "type": "address"
        },
        {
          "name": "id",
          "type": "uint256"
        },
        {
          "name": "amount",
          "type": "uint256"
        }
      ],
      "name": "burnOptions",
      "outputs": [],
      "payable": false,
      "stateMutability": "nonpayable",
      "type": "function"
    },
    {
      "constant": true,
      "inputs": [],
      "name": "burnTimeLimit",
      "outputs": [
        {
          "name": "",
          "type": "uint256"
        }
      ],
      "payable": false,
      "stateMutability": "view",
      "type": "function"
    },
    {
      "constant": false,
      "inputs": [
        {
          "name": "expiration",
          "type": "uint256"
        }
      ],
      "name": "addExpiration",
      "outputs": [],
      "payable": false,
      "stateMutability": "nonpayable",
      "type": "function"
    },
    {
      "constant": false,
      "inputs": [
        {
          "name": "removeExpiration",
          "type": "uint256"
        }
      ],
      "name": "removeExpirationList",
      "outputs": [
        {
          "name": "",
          "type": "bool"
        }
      ],
      "payable": false,
      "stateMutability": "nonpayable",
      "type": "function"
    },
    {
      "constant": true,
      "inputs": [],
      "name": "owner",
      "outputs": [
        {
          "name": "",
          "type": "address"
        }
      ],
      "payable": false,
      "stateMutability": "view",
      "type": "function"
    },
    {
      "constant": true,
      "inputs": [
        {
          "name": "",
          "type": "uint256"
        }
      ],
      "name": "allOptions",
      "outputs": [
        {
          "name": "optionID",
          "type": "uint64"
        },
        {
          "name": "owner",
          "type": "address"
        },
        {
          "name": "optType",
          "type": "uint8"
        },
        {
          "name": "underlying",
          "type": "uint32"
        },
        {
          "name": "expiration",
          "type": "uint256"
        },
        {
          "name": "strikePrice",
          "type": "uint256"
        },
        {
          "name": "amount",
          "type": "uint256"
        }
      ],
      "payable": false,
      "stateMutability": "view",
      "type": "function"
    },
    {
      "constant": true,
      "inputs": [],
      "name": "isOwner",
      "outputs": [
        {
          "name": "",
          "type": "bool"
        }
      ],
      "payable": false,
      "stateMutability": "view",
      "type": "function"
    },
    {
      "constant": false,
      "inputs": [
        {
          "name": "calInfo",
          "type": "uint256"
        },
        {
          "name": "firstOption",
          "type": "uint256"
        },
        {
          "name": "prices",
          "type": "uint256[]"
        },
        {
          "name": "calTime",
          "type": "uint256"
        }
      ],
      "name": "setSharedState",
      "outputs": [],
      "payable": false,
      "stateMutability": "nonpayable",
      "type": "function"
    },
    {
      "constant": true,
      "inputs": [],
      "name": "getExpirationList",
      "outputs": [
        {
          "name": "",
          "type": "uint256[]"
        }
      ],
      "payable": false,
      "stateMutability": "view",
      "type": "function"
    },
    {
      "constant": false,
      "inputs": [
        {
          "name": "from",
          "type": "address"
        },
        {
          "name": "settlement",
          "type": "address"
        },
        {
          "name": "type_ly_exp",
          "type": "uint256"
        },
        {
          "name": "strikePrice",
          "type": "uint256"
        },
        {
          "name": "optionPrice",
          "type": "uint256"
        },
        {
          "name": "amount",
          "type": "uint256"
        }
      ],
      "name": "createOptions",
      "outputs": [],
      "payable": false,
      "stateMutability": "nonpayable",
      "type": "function"
    },
    {
      "constant": true,
      "inputs": [
        {
          "name": "index",
          "type": "uint256"
        }
      ],
      "name": "getsharedPhaseCalInfo",
      "outputs": [
        {
          "name": "",
          "type": "uint256"
        },
        {
          "name": "",
          "type": "uint256[]"
        }
      ],
      "payable": false,
      "stateMutability": "view",
      "type": "function"
    },
    {
      "constant": false,
      "inputs": [
        {
          "name": "addAddress",
          "type": "address"
        }
      ],
      "name": "addOperator",
      "outputs": [],
      "payable": false,
      "stateMutability": "nonpayable",
      "type": "function"
    },
    {
      "constant": true,
      "inputs": [],
      "name": "getOptionPhaseCalRange",
      "outputs": [
        {
          "name": "",
          "type": "uint256"
        },
        {
          "name": "",
          "type": "uint256"
        },
        {
          "name": "",
          "type": "uint256"
        }
      ],
      "payable": false,
      "stateMutability": "view",
      "type": "function"
    },
    {
      "constant": true,
      "inputs": [
        {
          "name": "calInfo",
          "type": "uint256"
        }
      ],
      "name": "calculatePhaseOccupiedCollateral",
      "outputs": [
        {
          "name": "",
          "type": "uint256"
        },
        {
          "name": "",
          "type": "uint256"
        },
        {
          "name": "",
          "type": "bool"
        }
      ],
      "payable": false,
      "stateMutability": "view",
      "type": "function"
    },
    {
      "constant": true,
      "inputs": [
        {
          "name": "",
          "type": "uint256"
        }
      ],
      "name": "_operatorList",
      "outputs": [
        {
          "name": "",
          "type": "address"
        }
      ],
      "payable": false,
      "stateMutability": "view",
      "type": "function"
    },
    {
      "constant": true,
      "inputs": [
        {
          "name": "expiration",
          "type": "uint256"
        }
      ],
      "name": "isEligibleExpiration",
      "outputs": [
        {
          "name": "",
          "type": "bool"
        }
      ],
      "payable": false,
      "stateMutability": "view",
      "type": "function"
    },
    {
      "constant": false,
      "inputs": [
        {
          "name": "optionsPrice",
          "type": "address"
        }
      ],
      "name": "setOptionsPriceAddress",
      "outputs": [],
      "payable": false,
      "stateMutability": "nonpayable",
      "type": "function"
    },
    {
      "constant": false,
      "inputs": [
        {
          "name": "removeAddress",
          "type": "address"
        }
      ],
      "name": "removeOperator",
      "outputs": [
        {
          "name": "",
          "type": "bool"
        }
      ],
      "payable": false,
      "stateMutability": "nonpayable",
      "type": "function"
    },
    {
      "constant": true,
      "inputs": [
        {
          "name": "calInfo",
          "type": "uint256"
        },
        {
          "name": "whiteList",
          "type": "address[]"
        }
      ],
      "name": "calculatePhaseSharedPayment",
      "outputs": [
        {
          "name": "",
          "type": "uint256[]"
        },
        {
          "name": "",
          "type": "uint256"
        },
        {
          "name": "",
          "type": "bool"
        }
      ],
      "payable": false,
      "stateMutability": "view",
      "type": "function"
    },
    {
      "constant": false,
      "inputs": [
        {
          "name": "underlying",
          "type": "uint32"
        }
      ],
      "name": "addUnderlyingAsset",
      "outputs": [],
      "payable": false,
      "stateMutability": "nonpayable",
      "type": "function"
    },
    {
      "constant": true,
      "inputs": [],
      "name": "getOracleAddress",
      "outputs": [
        {
          "name": "",
          "type": "address"
        }
      ],
      "payable": false,
      "stateMutability": "view",
      "type": "function"
    },
    {
      "constant": false,
      "inputs": [
        {
          "name": "calInfo",
          "type": "uint256"
        },
        {
          "name": "totalOccupied",
          "type": "uint256"
        },
        {
          "name": "beginOption",
          "type": "uint256"
        }
      ],
      "name": "setCollateralPhase",
      "outputs": [],
      "payable": false,
      "stateMutability": "nonpayable",
      "type": "function"
    },
    {
      "constant": false,
      "inputs": [
        {
          "name": "calInfo",
          "type": "uint256"
        }
      ],
      "name": "setPhaseOccupiedCollateral",
      "outputs": [],
      "payable": false,
      "stateMutability": "nonpayable",
      "type": "function"
    },
    {
      "constant": true,
      "inputs": [],
      "name": "getOptionInfoLength",
      "outputs": [
        {
          "name": "",
          "type": "uint256"
        }
      ],
      "payable": false,
      "stateMutability": "view",
      "type": "function"
    },
    {
      "constant": true,
      "inputs": [],
      "name": "optionPhase",
      "outputs": [
        {
          "name": "",
          "type": "uint32"
        }
      ],
      "payable": false,
      "stateMutability": "view",
      "type": "function"
    },
    {
      "constant": false,
      "inputs": [
        {
          "name": "timeLimit",
          "type": "uint256"
        }
      ],
      "name": "setBurnTimeLimit",
      "outputs": [],
      "payable": false,
      "stateMutability": "nonpayable",
      "type": "function"
    },
    {
      "constant": false,
      "inputs": [
        {
          "name": "managerAddress",
          "type": "address"
        }
      ],
      "name": "setManager",
      "outputs": [],
      "payable": false,
      "stateMutability": "nonpayable",
      "type": "function"
    },
    {
      "constant": true,
      "inputs": [],
      "name": "getManager",
      "outputs": [
        {
          "name": "",
          "type": "address"
        }
      ],
      "payable": false,
      "stateMutability": "view",
      "type": "function"
    },
    {
      "constant": false,
      "inputs": [
        {
          "name": "removeUnderlying",
          "type": "uint32"
        }
      ],
      "name": "removeUnderlyingAssets",
      "outputs": [
        {
          "name": "",
          "type": "bool"
        }
      ],
      "payable": false,
      "stateMutability": "nonpayable",
      "type": "function"
    },
    {
      "constant": true,
      "inputs": [
        {
          "name": "underlying",
          "type": "uint32"
        }
      ],
      "name": "isEligibleUnderlyingAsset",
      "outputs": [
        {
          "name": "",
          "type": "bool"
        }
      ],
      "payable": false,
      "stateMutability": "view",
      "type": "function"
    },
    {
      "constant": true,
      "inputs": [
        {
          "name": "calInfo",
          "type": "uint256"
        },
        {
          "name": "whiteList",
          "type": "address[]"
        }
      ],
      "name": "calculatePhaseOptionsFall",
      "outputs": [
        {
          "name": "",
          "type": "int256[]"
        },
        {
          "name": "",
          "type": "uint256[]"
        }
      ],
      "payable": false,
      "stateMutability": "view",
      "type": "function"
    },
    {
      "constant": false,
      "inputs": [
        {
          "name": "index",
          "type": "uint256"
        },
        {
          "name": "addAddress",
          "type": "address"
        }
      ],
      "name": "setOperator",
      "outputs": [],
      "payable": false,
      "stateMutability": "nonpayable",
      "type": "function"
    },
    {
      "constant": true,
      "inputs": [
        {
          "name": "user",
          "type": "address"
        }
      ],
      "name": "getUserOptionsID",
      "outputs": [
        {
          "name": "",
          "type": "uint256[]"
        }
      ],
      "payable": false,
      "stateMutability": "view",
      "type": "function"
    },
    {
      "constant": true,
      "inputs": [],
      "name": "getOperator",
      "outputs": [
        {
          "name": "",
          "type": "address[]"
        }
      ],
      "payable": false,
      "stateMutability": "view",
      "type": "function"
    },
    {
      "constant": true,
      "inputs": [
        {
          "name": "underlying",
          "type": "uint32"
        }
      ],
      "name": "checkUnderlyingAsset",
      "outputs": [],
      "payable": false,
      "stateMutability": "view",
      "type": "function"
    },
    {
      "constant": false,
      "inputs": [
        {
          "name": "newOwner",
          "type": "address"
        }
      ],
      "name": "transferOwnership",
      "outputs": [],
      "payable": false,
      "stateMutability": "nonpayable",
      "type": "function"
    },
    {
      "constant": true,
      "inputs": [],
      "name": "getsharedPhaseCalRange",
      "outputs": [
        {
          "name": "",
          "type": "uint256"
        },
        {
          "name": "",
          "type": "uint256"
        },
        {
          "name": "",
          "type": "uint256"
        },
        {
          "name": "",
          "type": "uint256"
        }
      ],
      "payable": false,
      "stateMutability": "view",
      "type": "function"
    },
    {
      "inputs": [
        {
          "name": "oracleAddr",
          "type": "address"
        },
        {
          "name": "optionsPriceAddr",
          "type": "address"
        },
        {
          "name": "ivAddress",
          "type": "address"
        }
      ],
      "payable": false,
      "stateMutability": "nonpayable",
      "type": "constructor"
    },
    {
      "anonymous": false,
      "inputs": [
        {
          "indexed": true,
          "name": "owner",
          "type": "address"
        },
        {
          "indexed": true,
          "name": "optionID",
          "type": "uint256"
        },
        {
          "indexed": false,
          "name": "optType",
          "type": "uint8"
        },
        {
          "indexed": false,
          "name": "underlying",
          "type": "uint32"
        },
        {
          "indexed": false,
          "name": "expiration",
          "type": "uint256"
        },
        {
          "indexed": false,
          "name": "strikePrice",
          "type": "uint256"
        },
        {
          "indexed": false,
          "name": "amount",
          "type": "uint256"
        }
      ],
      "name": "CreateOption",
      "type": "event"
    },
    {
      "anonymous": false,
      "inputs": [
        {
          "indexed": true,
          "name": "owner",
          "type": "address"
        },
        {
          "indexed": true,
          "name": "optionID",
          "type": "uint256"
        },
        {
          "indexed": false,
          "name": "amount",
          "type": "uint256"
        }
      ],
      "name": "BurnOption",
      "type": "event"
    },
    {
      "anonymous": false,
      "inputs": [
        {
          "indexed": false,
          "name": "value1",
          "type": "uint256"
        },
        {
          "indexed": false,
          "name": "value2",
          "type": "uint256"
        },
        {
          "indexed": false,
          "name": "value3",
          "type": "uint256"
        }
      ],
      "name": "DebugEvent",
      "type": "event"
    },
    {
      "anonymous": false,
      "inputs": [
        {
          "indexed": true,
          "name": "previousOwner",
          "type": "address"
        },
        {
          "indexed": true,
          "name": "newOwner",
          "type": "address"
        }
      ],
      "name": "OwnershipTransferred",
      "type": "event"
    },
    {
      "constant": true,
      "inputs": [
        {
          "name": "optType",
          "type": "uint8"
        },
        {
          "name": "strikePrice",
          "type": "uint256"
        },
        {
          "name": "underlyingPrice",
          "type": "uint256"
        }
      ],
      "name": "getOptionsWorth",
      "outputs": [
        {
          "name": "",
          "type": "uint256"
        }
      ],
      "payable": false,
      "stateMutability": "pure",
      "type": "function"
    },
    {
      "constant": true,
      "inputs": [
        {
          "name": "optType",
          "type": "uint8"
        },
        {
          "name": "strikePrice",
          "type": "uint256"
        },
        {
          "name": "underlyingPrice",
          "type": "uint256"
        }
      ],
      "name": "getOptionsPayback",
      "outputs": [
        {
          "name": "",
          "type": "uint256"
        }
      ],
      "payable": false,
      "stateMutability": "pure",
      "type": "function"
    }
  ],
  "bytecode": "0x6080604052610e10600a55600c805461019063ffffffff1991821681179092556013805490911690911790553480156200003857600080fd5b506040516060806200557483398101604081815282516020840151919093015160008054600160a060020a031916331780825592939192859285928592859285928592600160a060020a0316917f8be0079c531659141344cd1fd0a4f28419497f9722a3daafe3b4186f6b6457e0908290a3620000be8364010000000062000173810204565b620000d28264010000000062000205810204565b620000e68164010000000062000297810204565b6040805160e0810182526201518081526203f480602082015262093a8091810191909152620d2f0060608201526213c680608082015262278d0060a08201526276a70060c08201526200013e9060099060076200033b565b5060408051808201909152600180825260026020830181905262000163929062000392565b5050505050505050505062000482565b6200018664010000000062000329810204565b1515620001e357604080517f08c379a0000000000000000000000000000000000000000000000000000000008152602060048201819052602482015260008051602062005554833981519152604482015290519081900360640190fd5b60038054600160a060020a031916600160a060020a0392909216919091179055565b6200021864010000000062000329810204565b15156200027557604080517f08c379a0000000000000000000000000000000000000000000000000000000008152602060048201819052602482015260008051602062005554833981519152604482015290519081900360640190fd5b60048054600160a060020a031916600160a060020a0392909216919091179055565b620002aa64010000000062000329810204565b15156200030757604080517f08c379a0000000000000000000000000000000000000000000000000000000008152602060048201819052602482015260008051602062005554833981519152604482015290519081900360640190fd5b60058054600160a060020a031916600160a060020a0392909216919091179055565b600054600160a060020a031633145b90565b82805482825590600052602060002090810192821562000380579160200282015b8281111562000380578251829062ffffff169055916020019190600101906200035c565b506200038e92915062000441565b5090565b82805482825590600052602060002090600701600890048101928215620004335791602002820160005b83821115620003ff57835183826101000a81548163ffffffff021916908360ff1602179055509260200192600401602081600301049283019260010302620003bc565b8015620004315782816101000a81549063ffffffff0219169055600401602081600301049283019260010302620003ff565b505b506200038e9291506200045e565b6200033891905b808211156200038e576000815560010162000448565b6200033891905b808211156200038e57805463ffffffff1916815560010162000465565b6150c280620004926000396000f3006080604052600436106102bb5763ffffffff60e060020a6000350416630438d49081146102c057806316f35a7f146104435780632967eafe146104715780632b38f1801461049457806332ab5c20146104c7578063354af360146105915780633582d789146105e65780633ad2fb571461064b5780633ad980991461066c5780633b50c4d11461068457806342e5479d1461069c57806344244d27146106cd57806345e19fdd1461071557806348ee201d146107715780634c69c00f1461078957806355c47cb2146107aa5780635ca4b73b146107ce57806364ed3017146107e357806367b8ceb9146107f85780636d84e2e314610813578063715018a61461082b578063723931ca1461084057806373a3d4241461085857806374e85fd21461086d5780637b23dbbe146108945780637cfff2d8146108a95780637e838fa3146108c15780638da5cb5b146108ed5780638ea745b8146109025780638f32d59b1461096c5780638ff239e6146109815780639052d5f8146109e1578063924a69ce146109f657806397a918e914610a295780639870d7fe14610a9c57806398dae82814610abd57806399deae0a14610af05780639b16bfaf14610b285780639ef975d214610b40578063a093e2d014610b58578063ac8a584a14610b79578063af70df1214610b9a578063afec82fc14610bf4578063b18b78dd14610c12578063b452bc0414610c27578063b8a5b7fa14610c45578063bec3107f14610c5d578063c27b7dfb14610c72578063c5acbe1514610c87578063d0ebdbe714610c9f578063d500958414610cc0578063d6d1401214610cd5578063db6ad2bd14610cf3578063e5081c4014610d11578063e7a1c1c014610ded578063e7c5681514610e11578063e7f43c6814610e32578063ed55283414610e47578063ee29c94a14610e68578063f2fde38b14610e86578063fa1cf1f014610ea7575b600080fd5b3480156102cc57600080fd5b506102db600435602435610ee2565b60405180806020018060200180602001806020018060200186810386528b818151815260200191508051906020019060200280838360005b8381101561032b578181015183820152602001610313565b5050505090500186810385528a818151815260200191508051906020019060200280838360005b8381101561036a578181015183820152602001610352565b50505050905001868103845289818151815260200191508051906020019060200280838360005b838110156103a9578181015183820152602001610391565b50505050905001868103835288818151815260200191508051906020019060200280838360005b838110156103e85781810151838201526020016103d0565b50505050905001868103825287818151815260200191508051906020019060200280838360005b8381101561042757818101518382015260200161040f565b505050509050019a505050505050505050505060405180910390f35b34801561044f57600080fd5b5061045861112f565b6040805163ffffffff9092168252519081900360200190f35b34801561047d57600080fd5b50610492600160a060020a036004351661113b565b005b3480156104a057600080fd5b506104b560ff600435166024356044356111a9565b60408051918252519081900360200190f35b3480156104d357600080fd5b50604080516064356004818101356020818102858101820190965281855261052b9583359560248035966044359636969095608495929093019290918291850190849080828437509497506111c09650505050505050565b604051808060200184815260200183151515158152602001828103825285818151815260200191508051906020019060200280838360005b8381101561057b578181015183820152602001610563565b5050505090500194505050505060405180910390f35b34801561059d57600080fd5b50604080516020600480358082013583810280860185019096528085526102db9536959394602494938501929182918501908490808284375094975061125e9650505050505050565b3480156105f257600080fd5b506105fb61147a565b60408051602080825283518183015283519192839290830191858101910280838360005b8381101561063757818101518382015260200161061f565b505050509050019250505060405180910390f35b34801561065757600080fd5b5061049260043563ffffffff602435166114ff565b34801561067857600080fd5b506104b560043561156b565b34801561069057600080fd5b5061045860043561158a565b3480156106a857600080fd5b506106b16115c2565b60408051600160a060020a039092168252519081900360200190f35b3480156106d957600080fd5b506106e26115d1565b604080519687526020870195909552858501939093526060850191909152608084015260a0830152519081900360c00190f35b34801561072157600080fd5b5061072a6115e5565b60408051978852600160a060020a03909616602088015260ff9094168686015263ffffffff9092166060860152608085015260a084015260c0830152519081900360e00190f35b34801561077d57600080fd5b5061072a6004356116d0565b34801561079557600080fd5b50610492600160a060020a0360043516611744565b3480156107b657600080fd5b506104b5600160a060020a03600435166024356117b2565b3480156107da57600080fd5b506106b16117e2565b3480156107ef57600080fd5b506104b56117f1565b34801561080457600080fd5b506104b56004356024356117f7565b34801561081f57600080fd5b506104b5600435611977565b34801561083757600080fd5b50610492611995565b34801561084c57600080fd5b50610492600435611a2b565b34801561086457600080fd5b506104b5611ab3565b34801561087957600080fd5b50610492600160a060020a0360043516602435604435611d5b565b3480156108a057600080fd5b506104b5612018565b3480156108b557600080fd5b5061049260043561201e565b3480156108cd57600080fd5b506108d9600435612075565b604080519115158252519081900360200190f35b3480156108f957600080fd5b506106b16120d4565b34801561090e57600080fd5b5061091a6004356120e3565b6040805167ffffffffffffffff9098168852600160a060020a03909616602088015260ff9094168686015263ffffffff9092166060860152608085015260a084015260c0830152519081900360e00190f35b34801561097857600080fd5b506108d9612154565b34801561098d57600080fd5b50604080516020600460443581810135838102808601850190965280855261049295833595602480359636969560649593949201929182918501908490808284375094975050933594506121659350505050565b3480156109ed57600080fd5b506105fb612290565b348015610a0257600080fd5b50610492600160a060020a036004358116906024351660443560643560843560a4356122e7565b348015610a3557600080fd5b50610a41600435612622565b6040518083815260200180602001828103825283818151815260200191508051906020019060200280838360005b83811015610a87578181015183820152602001610a6f565b50505050905001935050505060405180910390f35b348015610aa857600080fd5b50610492600160a060020a0360043516612695565b348015610ac957600080fd5b50610ad26126ec565b60408051938452602084019290925282820152519081900360600190f35b348015610afc57600080fd5b50610b086004356126fc565b604080519384526020840192909252151582820152519081900360600190f35b348015610b3457600080fd5b506106b16004356127c4565b348015610b4c57600080fd5b506108d96004356127ec565b348015610b6457600080fd5b50610492600160a060020a0360043516612848565b348015610b8557600080fd5b506108d9600160a060020a03600435166128b6565b348015610ba657600080fd5b5060408051602060046024803582810135848102808701860190975280865261052b9684359636966044959194909101929182918501908490808284375094975061290f9650505050505050565b348015610c0057600080fd5b5061049263ffffffff60043516612966565b348015610c1e57600080fd5b506106b16129bd565b348015610c3357600080fd5b506104926004356024356044356129cc565b348015610c5157600080fd5b50610492600435612af1565b348015610c6957600080fd5b506104b5612bca565b348015610c7e57600080fd5b50610458612bd0565b348015610c9357600080fd5b50610492600435612bdc565b348015610cab57600080fd5b50610492600160a060020a0360043516612c2d565b348015610ccc57600080fd5b506106b1612c9b565b348015610ce157600080fd5b506108d963ffffffff60043516612caa565b348015610cff57600080fd5b506108d963ffffffff60043516612d03565b348015610d1d57600080fd5b50604080516020600460248035828101358481028087018601909752808652610d6b96843596369660449591949091019291829185019084908082843750949750612d8b9650505050505050565b604051808060200180602001838103835285818151815260200191508051906020019060200280838360005b83811015610daf578181015183820152602001610d97565b50505050905001838103825284818151815260200191508051906020019060200280838360008381101561057b578181015183820152602001610563565b348015610df957600080fd5b50610492600435600160a060020a0360243516612f5b565b348015610e1d57600080fd5b506105fb600160a060020a0360043516612fe9565b348015610e3e57600080fd5b506105fb613055565b348015610e5357600080fd5b506104b560ff600435166024356044356130b6565b348015610e7457600080fd5b5061049263ffffffff600435166130c3565b348015610e9257600080fd5b50610492600160a060020a0360043516613149565b348015610eb357600080fd5b50610ebc61319e565b604080519485526020850193909352838301919091526060830152519081900360800190f35b6060806060806060806060806060806000806006805490508d8f011115610f1957600654610f16908f63ffffffff6131b016565b9c505b60008d111561111e578c604051908082528060200260200182016040528015610f4c578160200160208202803883390190505b5096508c604051908082528060200260200182016040528015610f79578160200160208202803883390190505b5095508c604051908082528060200260200182016040528015610fa6578160200160208202803883390190505b5094508c604051908082528060200260200182016040528015610fd3578160200160208202803883390190505b5093508c604051908082528060200260200182016040528015611000578160200160208202803883390190505b509250600091505b8c82101561110e57600680548f840190811061102057fe5b906000526020600020906005020190508060000160089054906101000a9004600160a060020a0316878381518110151561105657fe5b600160a060020a03909216602092830290910190910152805460018201548751601060ff60e060020a90940484160190921660020a63ffffffff9182160216908790849081106110a257fe5b60209081029091010152600281015485518690849081106110bf57fe5b60209081029091010152600381015484518590849081106110dc57fe5b60209081029091010152600481015483518490849081106110f957fe5b60209081029091010152600190910190611008565b86868686869b509b509b509b509b505b505050505050509295509295909350565b60135463ffffffff1681565b611143612154565b1515611187576040805160e560020a62461bcd0281526020600482018190526024820152600080516020615077833981519152604482015290519081900360640190fd5b60058054600160a060020a031916600160a060020a0392909216919091179055565b60006111b68484846131f2565b90505b9392505050565b6060600080606060006111d289613210565b881015806111e1575060145487105b156111f757909350600092508291508390611252565b61120089613210565b8711156112135761121089613210565b96505b6112438888601760006112258e613229565b81526020019081526020016000205461123d8d613236565b8a613257565b91509150818160019450945094505b50509450945094915050565b6060806060806060600060608060608060606000808d519750876040519080825280602002602001820160405280156112a1578160200160208202803883390190505b509650876040519080825280602002602001820160405280156112ce578160200160208202803883390190505b509550876040519080825280602002602001820160405280156112fb578160200160208202803883390190505b50945087604051908082528060200260200182016040528015611328578160200160208202803883390190505b50935087604051908082528060200260200182016040528015611355578160200160208202803883390190505b509250600091505b87821015611466576113858e8381518110151561137657fe5b906020019060200201516133d0565b80548851919250680100000000000000009004600160a060020a0316908890849081106113ae57fe5b600160a060020a03909216602092830290910190910152805460018201548751601060ff60e060020a90940484160190921660020a63ffffffff9182160216908790849081106113fa57fe5b602090810290910101526002810154855186908490811061141757fe5b602090810290910101526003810154845185908490811061143457fe5b602090810290910101526004810154835184908490811061145157fe5b6020908102909101015260019091019061135d565b50949c939b50919950975095509350505050565b606060018054806020026020016040519081016040528092919081815260200182805480156114f457602002820191906000526020600020906000905b82829054906101000a900463ffffffff1663ffffffff16815260200190600401906020826003010492830192600103820291508084116114b75790505b505050505090505b90565b61150881612d03565b151561155e576040805160e560020a62461bcd02815260206004820152601f60248201527f756e6465726c79696e6720697320756e737570706f7274656420617373657400604482015290519081900360640190fd5b61156782611a2b565b5050565b600980548290811061157957fe5b600091825260209091200154905081565b600180548290811061159857fe5b9060005260206000209060089182820401919006600402915054906101000a900463ffffffff1681565b600554600160a060020a031690565b600d54600654601254919283929043904290565b6006546000908190819081908190819081908180821161164f576040805160e560020a62461bcd02815260206004820152601560248201527f6f7074696f6e73206c69737420697320656d7074790000000000000000000000604482015290519081900360640190fd5b60068054600019840190811061166157fe5b60009182526020909120600590910201805460018201546002830154600384015460049094015467ffffffffffffffff84169e680100000000000000008504600160a060020a03169e5060e060020a90940460ff169c5063ffffffff9092169a50985091965090945092505050565b6000806000806000806000806116e5896133d0565b805460018201546002830154600384015460049094015467ffffffffffffffff84169e680100000000000000008504600160a060020a03169e5060e060020a90940460ff169c5063ffffffff9092169a50985091965090945092505050565b61174c612154565b1515611790576040805160e560020a62461bcd0281526020600482018190526024820152600080516020615077833981519152604482015290519081900360640190fd5b60038054600160a060020a031916600160a060020a0392909216919091179055565b6008602052816000526040600020818154811015156117cd57fe5b90600052602060002001600091509150505481565b600454600160a060020a031690565b600a5490565b6000611801614f34565b60008061180d866133d0565b6040805160e081018252825467ffffffffffffffff81168252680100000000000000008104600160a060020a0316602083015260e060020a900460ff1691810191909152600182015463ffffffff16606082015260028201546080820152600382015460a082015260049091015460c0820152925061188b83613460565b61189583866134bb565b6003546060840151604080517fda66325700000000000000000000000000000000000000000000000000000000815263ffffffff909216600483015251600160a060020a039092169163da663257916024808201926020929091908290030181600087803b15801561190657600080fd5b505af115801561191a573d6000803e3d6000fd5b505050506040513d602081101561193057600080fd5b5051604084015160a08501519193506119499184613517565b905080151561195b576000935061196e565b61196b818663ffffffff61354b16565b93505b50505092915050565b600a546000198201600090815260076020526040902054015b919050565b61199d612154565b15156119e1576040805160e560020a62461bcd0281526020600482018190526024820152600080516020615077833981519152604482015290519081900360640190fd5b60008054604051600160a060020a03909116907f8be0079c531659141344cd1fd0a4f28419497f9722a3daafe3b4186f6b6457e0908390a360008054600160a060020a0319169055565b611a34816127ec565b1515611ab0576040805160e560020a62461bcd02815260206004820152602160248201527f65787069726174696f6e2076616c7565206973206e6f7420737570706f72746560448201527f6400000000000000000000000000000000000000000000000000000000000000606482015290519081900360840190fd5b50565b60008060606000806000806000611ac8614f70565b6000611ad26135f5565b9850611adc613676565b600654600e54919950975095505b86861015611bf857611b23600687815481101515611b0457fe5b600091825260209091206001600590920201015463ffffffff16613790565b9450611beb611bde600688815481101515611b3a57fe5b60009182526020918290206040805160e081018252600593909302909101805467ffffffffffffffff81168452680100000000000000008104600160a060020a03169484019490945260e060020a90930460ff1690820152600182015463ffffffff16606082015260028201546080820152600382015460a082015260049091015460c08201528a518b9089908110611bcf57fe5b90602001906020020151613818565b8a9063ffffffff61386116565b9850600190950194611aea565b601254600f5490945092505b83831015611d4d57600083815260116020526040908190208151808301928390529160029082845b815481526020019060010190808311611c2c575093955085935060009250611c52915050565b6020020151600e54909150811015611d4257611c76600682815481101515611b0457fe5b9450611d3f611d32600683815481101515611c8d57fe5b60009182526020918290206040805160e081018252600593909302909101805467ffffffffffffffff81168452680100000000000000008104600160a060020a03168486015260e060020a900460ff1691830191909152600181015463ffffffff16606083015260028101546080830152600381015460a08301526004015460c0820152908501518b518c908a908110611d2357fe5b906020019060200201516138be565b8a9063ffffffff6131b016565b98505b600190920191611c04565b509698975050505050505050565b600254600090600160a060020a03163314611de6576040805160e560020a62461bcd02815260206004820152602660248201527f4d616e6167657261626c653a2063616c6c6572206973206e6f7420746865204d60448201527f616e616765720000000000000000000000000000000000000000000000000000606482015290519081900360840190fd5b611def836133d0565b6040805160e081018252825467ffffffffffffffff81168252680100000000000000008104600160a060020a0316602083015260e060020a900460ff1691810191909152600182015463ffffffff16606082015260028201546080820152600382015460a0820152600482015460c0820152909150611e6d90613460565b8054611e829067ffffffffffffffff166138ec565b6040805160e081018252825467ffffffffffffffff81168252680100000000000000008104600160a060020a0316602083015260e060020a900460ff1691810191909152600182015463ffffffff16606082015260028201546080820152600382015460a0820152600482015460c0820152611efe9085613981565b6040805160e081018252825467ffffffffffffffff81168252680100000000000000008104600160a060020a0316602083015260e060020a900460ff1691810191909152600182015463ffffffff16606082015260028201546080820152600382015460a0820152600482015460c0820152611f7a90836134bb565b6004810154611f8f908363ffffffff6131b016565b60048201556040805180820182526000198501815260208082018590526012546000908152601190915291909120611fc8916002614f8b565b506012805460010190556040805183815290518491600160a060020a038716917f1fb99acdc281bccbecb3d0073a307341181a8a7d3cd532fdaef5ce7200401c2d9181900360200190a350505050565b600a5481565b612026612154565b151561206a576040805160e560020a62461bcd0281526020600482018190526024820152600080516020615077833981519152604482015290519081900360640190fd5b611ab06009826139f0565b600061207f612154565b15156120c3576040805160e560020a62461bcd0281526020600482018190526024820152600080516020615077833981519152604482015290519081900360640190fd5b6120ce600983613a67565b92915050565b600054600160a060020a031690565b60068054829081106120f157fe5b60009182526020909120600590910201805460018201546002830154600384015460049094015467ffffffffffffffff84169550680100000000000000008404600160a060020a03169460e060020a90940460ff169363ffffffff909316929087565b600054600160a060020a0316331490565b600254600160a060020a031633146121ed576040805160e560020a62461bcd02815260206004820152602660248201527f4d616e6167657261626c653a2063616c6c6572206973206e6f7420746865204d60448201527f616e616765720000000000000000000000000000000000000000000000000000606482015290519081900360840190fd5b6014548311156121fd5760148390555b61220684613210565b60135463ffffffff168061221987613229565b0201111561223a5761222a84613210565b60155561223684613236565b6016555b806017600061224887613229565b815260200190815260200160002081905550816018600061226887613229565b81526020019081526020016000209080519060200190612289929190614fc9565b5050505050565b606060098054806020026020016040519081016040528092919081815260200182805480156114f457602002820191906000526020600020905b8154815260200190600101908083116122ca575050505050905090565b60008060006122f4614f34565b600254600160a060020a0316331461237c576040805160e560020a62461bcd02815260206004820152602660248201527f4d616e6167657261626c653a2063616c6c6572206973206e6f7420746865204d60448201527f616e616765720000000000000000000000000000000000000000000000000000606482015290519081900360840190fd5b600654935061238a88613229565b925061239588613210565b9150600660e0604051908101604052808660010167ffffffffffffffff1681526020018c600160a060020a031681526020018560ff1681526020018463ffffffff168152602001426123e68c613236565b01815260208082018b90526040918201899052835460018082018655600095865282862085516005909302018054868501518787015167ffffffffffffffff1990921667ffffffffffffffff909516949094177fffffffff0000000000000000000000000000000000000000ffffffffffffffff1668010000000000000000600160a060020a0395861602177fffffff00ffffffffffffffffffffffffffffffffffffffffffffffffffffffff1660e060020a60ff909216919091021781556060860151818301805463ffffffff191663ffffffff9092169190911790556080860151600282015560a0860151600382015560c0909501516004909501949094558e16845260088152908320805480840182559084529220908601910155600680548590811061251257fe5b60009182526020918290206040805160e081018252600593909302909101805467ffffffffffffffff81168452680100000000000000008104600160a060020a03169484019490945260e060020a90930460ff1690820152600182015463ffffffff16606082015260028201546080820152600382015460a082015260049091015460c082015290506125a6818a88613b14565b836001018a600160a060020a03167f18f523957030bee670136363e25b2f847bf1bd07bb7b33c6d5475936a9aac70d8585426125e18e613236565b6040805160ff909516855263ffffffff90931660208501520182820152606082018c9052608082018a9052519081900360a00190a350505050505050505050565b6000818152601760209081526040808320546018835281842080548351818602810186019094528084526060949293919283919083018282801561268557602002820191906000526020600020905b815481526020019060010190808311612671575b5050505050905091509150915091565b61269d612154565b15156126e1576040805160e560020a62461bcd0281526020600482018190526024820152600080516020615077833981519152604482015290519081900360640190fd5b611ab0600b82613de3565b600d546006546012549192909190565b600c5460009081908190819081908190819061272d9063ffffffff166127218a613229565b9063ffffffff61354b16565b935061273888613210565b841061274d57600096508695508594506127b9565b600c5461276590859063ffffffff9081169061386116565b925061277088613210565b8311156127875761278088613210565b92506127a0565b600d548310156127a057600096508695508594506127b9565b6127aa8484613e7d565b91509150818160019650965096505b505050509193909250565b600b8054829081106127d257fe5b600091825260209091200154600160a060020a0316905081565b60006120ce600980548060200260200160405190810160405280929190818152602001828054801561283d57602002820191906000526020600020905b815481526020019060010190808311612829575b505050505083613fc1565b612850612154565b1515612894576040805160e560020a62461bcd0281526020600482018190526024820152600080516020615077833981519152604482015290519081900360640190fd5b60048054600160a060020a031916600160a060020a0392909216919091179055565b60006128c0612154565b1515612904576040805160e560020a62461bcd0281526020600482018190526024820152600080516020615077833981519152604482015290519081900360640190fd5b6120ce600b83614000565b6013546060906000908190819061292f9063ffffffff1661272188613229565b601354909150612958908790839061295290829063ffffffff9081169061386116565b886111c0565b935093509350509250925092565b61296e612154565b15156129b2576040805160e560020a62461bcd0281526020600482018190526024820152600080516020615077833981519152604482015290519081900360640190fd5b611ab06001826140d7565b600354600160a060020a031690565b600b5460009081108015612a035750600b8054339190839081106129ec57fe5b600091825260209091200154600160a060020a0316145b1515612a7f576040805160e560020a62461bcd02815260206004820152603060248201527f4d616e6167657261626c653a2063616c6c6572206973206e6f7420746865206560448201527f6c696769626c65204f70657261746f7200000000000000000000000000000000606482015290519081900360840190fd5b600d54821115612a8f57600d8290555b612a9884613210565b600c5463ffffffff1680612aab87613229565b02011115612acc57612abc84613210565b600e55612ac884613236565b600f555b8260106000612ada87613229565b815260208101919091526040016000205550505050565b60008060008080600b80549050118015612b2e5750600b805433919083908110612b1757fe5b600091825260209091200154600160a060020a0316145b1515612baa576040805160e560020a62461bcd02815260206004820152603060248201527f4d616e6167657261626c653a2063616c6c6572206973206e6f7420746865206560448201527f6c696769626c65204f70657261746f7200000000000000000000000000000000606482015290519081900360840190fd5b612bb3856126fc565b9350935093508115612289576122898585856129cc565b60065490565b600c5463ffffffff1681565b612be4612154565b1515612c28576040805160e560020a62461bcd0281526020600482018190526024820152600080516020615077833981519152604482015290519081900360640190fd5b600a55565b612c35612154565b1515612c79576040805160e560020a62461bcd0281526020600482018190526024820152600080516020615077833981519152604482015290519081900360640190fd5b60028054600160a060020a031916600160a060020a0392909216919091179055565b600254600160a060020a031690565b6000612cb4612154565b1515612cf8576040805160e560020a62461bcd0281526020600482018190526024820152600080516020615077833981519152604482015290519081900360640190fd5b6120ce6001836141a0565b60006120ce6001805480602002602001604051908101604052809291908181526020018280548015612d8057602002820191906000526020600020906000905b82829054906101000a900463ffffffff1663ffffffff1681526020019060040190602082600301049283019260010382029150808411612d435790505b505050505083614297565b606080600080606080600080612dbc601360009054906101000a900463ffffffff1663ffffffff166127218c613229565b601354909650612dd790879063ffffffff9081169061386116565b9450612de28a613210565b86101580612df1575060145485105b15612dfb57612f4e565b612e048a613210565b851115612e1757612e148a613210565b94505b6014548611612e265760145495505b612e2e613676565b9350612e4e8686612e3e8d613229565b612e478e613236565b8d896142e2565b925088519150600090505b81811015612f47576003548951600160a060020a03909116906341976e09908b9084908110612e8457fe5b906020019060200201516040518263ffffffff1660e060020a0281526004018082600160a060020a0316600160a060020a03168152602001915050602060405180830381600087803b158015612ed957600080fd5b505af1158015612eed573d6000803e3d6000fd5b505050506040513d6020811015612f0357600080fd5b50518351849083908110612f1357fe5b90602001906020020151811515612f2657fe5b058382815181101515612f3557fe5b60209081029091010152600101612e59565b8284975097505b5050505050509250929050565b612f63612154565b1515612fa7576040805160e560020a62461bcd0281526020600482018190526024820152600080516020615077833981519152604482015290519081900360640190fd5b80600b83815481101515612fb757fe5b9060005260206000200160006101000a815481600160a060020a030219169083600160a060020a031602179055505050565b600160a060020a03811660009081526008602090815260409182902080548351818402810184019094528084526060939283018282801561304957602002820191906000526020600020905b815481526020019060010190808311613035575b50505050509050919050565b6060600b8054806020026020016040519081016040528092919081815260200182805480156114f457602002820191906000526020600020905b8154600160a060020a0316815260019091019060200180831161308f575050505050905090565b60006111b6848484613517565b611ab0600180548060200260200160405190810160405280929190818152602001828054801561313e57602002820191906000526020600020906000905b82829054906101000a900463ffffffff1663ffffffff16815260200190600401906020826003010492830192600103820291508084116131015790505b5050505050826144b4565b613151612154565b1515613195576040805160e560020a62461bcd0281526020600482018190526024820152600080516020615077833981519152604482015290519081900360640190fd5b611ab081614514565b60145460065460125491929091904290565b60006111b983836040805190810160405280601e81526020017f536166654d6174683a207375627472616374696f6e206f766572666c6f7700008152506145f5565b600060ff84161582841114156132095750816111b9565b50806111b9565b68010000000000000000900467ffffffffffffffff1690565b67ffffffffffffffff1690565b700100000000000000000000000000000000900467ffffffffffffffff1690565b606060008060606000806000806132718d8d8d8d8d614692565b945061327e8d8d8d61486d565b909d5095505b8b8d10156133bd57600680548e90811061329a57fe5b90600052602060002090600502019350836002015492508a8310806132c157506004840154155b156132cb576133b2565b600760008e815260200190815260200160002091506133168d8c84600001548688600301548760030154886004015489600501548c600001601c9054906101000a900460ff166148f2565b905060008111156133b257600182015461333a908a90600160a060020a031661493b565b925061336f8260030154613363866004015461272185876002015461354b90919063ffffffff16565b9063ffffffff61498816565b905061339981868581518110151561338357fe5b602090810290910101519063ffffffff61386116565b85848151811015156133a757fe5b602090810290910101525b6001909c019b613284565b50929b939a509298505050505050505050565b600080821180156133e357506006548211155b1515613439576040805160e560020a62461bcd02815260206004820152601660248201527f6f7074696f6e206964206973206e6f7420657869737400000000000000000000604482015290519081900360640190fd5b60068054600019840190811061344b57fe5b90600052602060002090600502019050919050565b60808101514210611ab0576040805160e560020a62461bcd02815260206004820152601160248201527f6f7074696f6e2069732065787069726564000000000000000000000000000000604482015290519081900360640190fd5b60c0820151811115611567576040805160e560020a62461bcd02815260206004820152601d60248201527f6f7074696f6e20616d6f756e7420697320696e73756666696369656e74000000604482015290519081900360640190fd5b600060ff841615828411141561352f575060006111b9565b60ff84161561354057818303613544565b8282035b90506111b9565b60008083151561355e57600091506135ee565b5082820282848281151561356e57fe5b04146135ea576040805160e560020a62461bcd02815260206004820152602160248201527f536166654d6174683a206d756c7469706c69636174696f6e206f766572666c6f60448201527f7700000000000000000000000000000000000000000000000000000000000000606482015290519081900360840190fd5b8091505b5092915050565b600c5460009081908190819063ffffffff16600d82015481151561361557fe5b600c54919004925063ffffffff16600d6001015481151561363257fe5b0460010190505b8082101561366e5760008281526010602052604090205461366190849063ffffffff61386116565b9250600190910190613639565b509092915050565b6001546040805182815260208084028201019091526060919082906000908380156136ab578160200160208202803883390190505b509150600090505b828110156135ee5760035460018054600160a060020a039092169163da6632579190849081106136df57fe5b90600052602060002090600891828204019190066004029054906101000a900463ffffffff166040518263ffffffff1660e060020a028152600401808263ffffffff168152602001915050602060405180830381600087803b15801561374457600080fd5b505af1158015613758573d6000803e3d6000fd5b505050506040513d602081101561376e57600080fd5b5051825183908390811061377e57fe5b602090810290910101526001016136b3565b60006120ce600180548060200260200160405190810160405280929190818152602001828054801561380d57602002820191906000526020600020906000905b82829054906101000a900463ffffffff1663ffffffff16815260200190600401906020826003010492830192600103820291508084116137d05790505b5050505050836149ca565b600080428460800151111580613830575060c0840151155b1561383e57600091506135ee565b6138598460c0015161272186604001518760a00151876131f2565b949350505050565b6000828201838110156135ea576040805160e560020a62461bcd02815260206004820152601b60248201527f536166654d6174683a206164646974696f6e206f766572666c6f770000000000604482015290519081900360640190fd5b60004284608001511115156138d5575060006111b9565b6111b68361272186604001518760a00151866131f2565b600a54600019820160009081526007602052604090205442910110611ab0576040805160e560020a62461bcd02815260206004820152602560248201527f6f7074696f6e206c6f636b206c696d69746174696f6e206973206e6f7420657860448201527f7069726564000000000000000000000000000000000000000000000000000000606482015290519081900360840190fd5b80600160a060020a03168260200151600160a060020a0316141515611567576040805160e560020a62461bcd02815260206004820152601f60248201527f63616c6c6572206973206e6f7420746865206f7074696f6e73206f776e657200604482015290519081900360640190fd5b613a4982805480602002602001604051908101604052809291908181526020018280548015613a3e57602002820191906000526020600020905b815481526020019060010190808311613a2a575b505050505082613fc1565b15156115675781546001810183556000928352602090922090910155565b8154600090815b81811015613aa357838582815481101515613a8557fe5b90600052602060002001541415613a9b57613aa3565b600101613a6e565b81811015613b075760001982018114613aed578460018303815481101515613ac757fe5b90600052602060002001548582815481101515613ae057fe5b6000918252602090912001555b8454613afd866000198301615003565b5060019250613b0c565b600092505b505092915050565b60a08301516080840151600554606086015160408088015181517fb4277bc100000000000000000000000000000000000000000000000000000000815263ffffffff909316600484015260ff16602483015242909303604482018190526064820185905283519093600093849384938493600160a060020a039093169263b4277bc1926084808201939182900301818787803b158015613bb357600080fd5b505af1158015613bc7573d6000803e3d6000fd5b505050506040513d6040811015613bdd57600080fd5b5080516020918201516004805460408e81015181517f055ef6ab0000000000000000000000000000000000000000000000000000000081529384018d9052602484018d9052604484018c9052606484018690526084840185905260ff1660a484015251939850919650600160a060020a039091169263055ef6ab9260c4808401938290030181600087803b158015613c7457600080fd5b505af1158015613c88573d6000803e3d6000fd5b505050506040513d6020811015613c9e57600080fd5b5051600354604080517f41976e09000000000000000000000000000000000000000000000000000000008152600160a060020a038c811660048301529151939550613d489391909216916341976e099160248083019260209291908290030181600087803b158015613d0f57600080fd5b505af1158015613d23573d6000803e3d6000fd5b505050506040513d6020811015613d3957600080fd5b5051889063ffffffff61498816565b6040805160c081018252428152600160a060020a039a8b166020808301918252828401948552606083019687526080830198895260a083019788529c516000190167ffffffffffffffff1660009081526007909d5291909b209a518b555160018b018054600160a060020a03191691909a16179098555095516002880155945160038701555160048601555050905160059092019190915550565b613e4682805480602002602001604051908101604052809291908181526020018280548015613e3b57602002820191906000526020600020905b8154600160a060020a03168152600190910190602001808311613e1d575b505050505082614a11565b1515611567578154600181018355600083815260209020018054600160a060020a038316600160a060020a03199091161790555050565b600d546000908190808511801590606090849081908190613e9c578599505b613ea4613676565b9350600092505b888a1015613fa757613ec560068b815481101515611b0457fe5b9150613f6e60068b815481101515613ed957fe5b60009182526020918290206040805160e081018252600593909302909101805467ffffffffffffffff81168452680100000000000000008104600160a060020a03169484019490945260e060020a90930460ff1690820152600182015463ffffffff16606082015260028201546080820152600382015460a082015260049091015460c08201528551869085908110611bcf57fe5b9050848015613f7d5750600081115b15613f8a57899550600094505b613f9a838263ffffffff61386116565b6001909a01999250613eab565b8415613fb1578995505b5090989397509295505050505050565b8151600090815b81811015613b0757838582815181101515613fdf57fe5b906020019060200201511415613ff85760019250613b0c565b600101613fc8565b8154600090815b8181101561404f5783600160a060020a0316858281548110151561402757fe5b600091825260209091200154600160a060020a031614156140475761404f565b600101614007565b81811015613b075760001982018114613aed57846001830381548110151561407357fe5b6000918252602090912001548554600160a060020a039091169086908390811061409957fe5b9060005260206000200160006101000a815481600160a060020a030219169083600160a060020a031602179055508454613afd866000198301615003565b61415c8280548060200260200160405190810160405280929190818152602001828054801561415157602002820191906000526020600020906000905b82829054906101000a900463ffffffff1663ffffffff16815260200190600401906020826003010492830192600103820291508084116141145790505b505050505082614297565b1515611567578154600181018355600092835260209092206008830401805460079093166004026101000a63ffffffff818102199094169290931692909202179055565b8154600090815b818110156141fb578363ffffffff1685828154811015156141c457fe5b6000918252602090912060088204015460079091166004026101000a900463ffffffff1614156141f3576141fb565b6001016141a7565b81811015613b07576000198201811461428757846001830381548110151561421f57fe5b90600052602060002090600891828204019190066004029054906101000a900463ffffffff16858281548110151561425357fe5b90600052602060002090600891828204019190066004026101000a81548163ffffffff021916908363ffffffff1602179055505b8454613afd86600019830161502c565b8151600090815b81811015613b07578363ffffffff1685828151811015156142bb57fe5b9060200190602002015163ffffffff1614156142da5760019250613b0c565b60010161429e565b60608060006060600080600080601860008d815260200190815260200160002080548060200260200160405190810160405280929190818152602001828054801561434c57602002820191906000526020600020905b815481526020019060010190808311614338575b50505050509650601760008d81526020019081526020016000205495506143778e8e8d898b8f614a62565b94505b8c8e10156144a257600680548f90811061439057fe5b9060005260206000209060050201935085846002015410806143b457506004840154155b156143be57614497565b60018401546143d29063ffffffff16613790565b9b5061440a8485600401548e8a51116143ec576000614405565b898f8151811015156143fa57fe5b906020019060200201515b614c0f565b92506144328485600401548b8f81518110151561442357fe5b90602001906020020151614c52565b9150828214614497575060008d81526007602052604090206001810154614463908b90600160a060020a031661493b565b9b5061446e82614c94565b61447784614c94565b03858d81518110151561448657fe5b602090810290910101805190910190525b6001909d019c61437a565b50929c9b505050505050505050505050565b6144be8282614297565b1515611567576040805160e560020a62461bcd02815260206004820152601f60248201527f77686974654c6973743a207573696e6720696e76616c69642075696e74333200604482015290519081900360640190fd5b600160a060020a038116151561459a576040805160e560020a62461bcd02815260206004820152602660248201527f4f776e61626c653a206e6577206f776e657220697320746865207a65726f206160448201527f6464726573730000000000000000000000000000000000000000000000000000606482015290519081900360840190fd5b60008054604051600160a060020a03808516939216917f8be0079c531659141344cd1fd0a4f28419497f9722a3daafe3b4186f6b6457e091a360008054600160a060020a031916600160a060020a0392909216919091179055565b60008082858511156146885760405160e560020a62461bcd0281526004018080602001828103825283818151815260200191508051906020019080838360005b8381101561464d578181015183820152602001614635565b50505050905090810190601f16801561467a5780820380516001836020036101000a031916815260200191505b509250505060405180910390fd5b5050509103919050565b606080600061469f614f70565b600080600080600089516040519080825280602002602001820160405280156146d2578160200160208202803883390190505b5060165490985096505b8a87101561485b57600087815260116020526040908190208151808301928390529160029082845b81548152602001906001019080831161470457505050505095508d86600060028110151561472e57fe5b60200201511080614740575085518d11155b1561474a57614850565b855160068054909190811061475b57fe5b90600052602060002090600502019450846002015493508b84108061478257506020860151155b1561478c57614850565b8551600090815260076020526040812093506147db90879060200201518d8560000154878960030154886003015489600401548a600501548d600001601c9054906101000a900460ff16614d0d565b60038401549092506148079061336388600160200201516002870154612721908763ffffffff61354b16565b6001840154909250614823908b90600160a060020a031661493b565b905061483782898381518110151561338357fe5b888281518110151561484557fe5b602090810290910101525b6001909601956146dc565b50959c9b505050505050505050505050565b60145460009081908181871115614889578682935093506148e8565b8196505b858710156148e15760068054889081106148a357fe5b9060005260206000209060050201905084816002015410806148c757506004810154155b156148d1576148d6565b6148e1565b60019096019561488d565b8687935093505b5050935093915050565b60008060006149088c8c8c8c8c8c8c8c8c614d0d565b91506149178989888888614df3565b905080821161492757600061492b565b8082035b9c9b505050505050505050505050565b8151600090815b818110156138595783600160a060020a0316858281518110151561496257fe5b90602001906020020151600160a060020a0316141561498057613859565b600101614942565b60006111b983836040805190810160405280601a81526020017f536166654d6174683a206469766973696f6e206279207a65726f000000000000815250614ec8565b8151600090815b81811015613859578363ffffffff1685828151811015156149ee57fe5b9060200190602002015163ffffffff161415614a0957613859565b6001016149d1565b8151600090815b81811015613b075783600160a060020a03168582815181101515614a3857fe5b90602001906020020151600160a060020a03161415614a5a5760019250613b0c565b600101614a18565b6060806000614a6f614f70565b6000806000808851604051908082528060200260200182016040528015614aa0578160200160208202803883390190505b5060165490975095505b8b861015614bfd57600086815260116020526040908190208151808301928390529160029082845b815481526020019060010190808311614ad257505050505094508d856000600281101515614afc57fe5b60200201511080614b0e575084518d11155b15614b1857614bf2565b8451600680549091908110614b2957fe5b906000526020600020906005020193508a84600201541080614b4d57506020850151155b15614b5757614bf2565b6001840154614b6b9063ffffffff16613790565b9250614b96848660016020020151858d5111614b88576000614405565b8c868151811015156143fa57fe5b91508115614bf25750835160009081526007602052604090206001810154614bc8908a90600160a060020a031661493b565b9250614bd382614c94565b8784815181101515614be157fe5b602090810290910101805190910190525b600190950194614aaa565b50949c9b505050505050505050505050565b6000601460010154845467ffffffffffffffff1611614c4a57835460038501546135449184916127219160e060020a900460ff169087613517565b5060006111b9565b6000428460020154111580614c65575081155b15614c72575060006111b9565b835460038501546111b69184916127219160e060020a900460ff169087613517565b60007f7fffffffffffffffffffffffffffffffffffffffffffffffffffffffffffffff8211611990576040805160e560020a62461bcd02815260206004820152601b60248201527f536166654d6174683a20746f496e74323536206f766572666c6f770000000000604482015290519081900360640190fd5b6015546000908a101580614d2057508789105b15614d2c575083614de6565b60048054604080517f055ef6ab000000000000000000000000000000000000000000000000000000008152928301899052602483018990528b8a036044840152606483018790526084830186905260ff851660a484015251600160a060020a039091169163055ef6ab9160c48083019260209291908290030181600087803b158015614db757600080fd5b505af1158015614dcb573d6000803e3d6000fd5b505050506040513d6020811015614de157600080fd5b505190505b9998505050505050505050565b600042861115614ebb5760048054604080517f055ef6ab000000000000000000000000000000000000000000000000000000008152928301889052602483018890524289036044840152606483018790526084830186905260ff851660a484015251600160a060020a039091169163055ef6ab9160c48083019260209291908290030181600087803b158015614e8857600080fd5b505af1158015614e9c573d6000803e3d6000fd5b505050506040513d6020811015614eb257600080fd5b50519050614ebf565b5060005b95945050505050565b60008082818511614f1e5760405160e560020a62461bcd0281526004018080602001828103825283818151815260200191508051906020019080838360008381101561464d578181015183820152602001614635565b508385811515614f2a57fe5b0495945050505050565b6040805160e081018252600080825260208201819052918101829052606081018290526080810182905260a0810182905260c081019190915290565b60408051808201825290600290829080388339509192915050565b8260028101928215614fb9579160200282015b82811115614fb9578251825591602001919060010190614f9e565b50614fc592915061505c565b5090565b828054828255906000526020600020908101928215614fb95791602002820182811115614fb9578251825591602001919060010190614f9e565b8154818355818111156150275760008381526020902061502791810190830161505c565b505050565b81548183558181111561502757600701600890048160070160089004836000526020600020918201910161502791905b6114fc91905b80821115614fc5576000815560010161506256004f776e61626c653a2063616c6c6572206973206e6f7420746865206f776e6572a165627a7a723058204deadd0e4b2153a2302509a6f9a256ea70b4564349c4c4fd46e60de36ae8f07800294f776e61626c653a2063616c6c6572206973206e6f7420746865206f776e6572",
  "source": "pragma solidity ^0.4.26;\r\nimport \"../OptionsPool.sol\";\r\ncontract OptionsPoolTest is OptionsPool {\r\n        constructor (address oracleAddr,address optionsPriceAddr,address ivAddress) OptionsPool(oracleAddr,optionsPriceAddr,ivAddress) public{\r\n    }\r\n    function getOptionsWorth(uint8 optType,uint256 strikePrice,uint256 underlyingPrice) public pure returns(uint256){\r\n        return _getOptionsWorth(optType,strikePrice,underlyingPrice);\r\n    }\r\n    function getOptionsPayback(uint8 optType,uint256 strikePrice,uint256 underlyingPrice)public pure returns(uint256){\r\n         return _getOptionsPayback(optType,strikePrice,underlyingPrice);\r\n    }\r\n    /*\r\n    function calTimeSharedPrice()public view returns(uint256){\r\n        uint256 timeValue;\r\n        if (begin>=optionPhaseInfo_Share[1] || preTime<optionEx.createdTime){\r\n            timeValue = _calculateFirstTimePrice(optionEx.fullPrice,tempValue,info.strikePrice,\r\n                optionEx.ivNumerator,optionEx.ivDenominator,info.optType);\r\n        }else{\r\n            timeValue = _calculateTimePrice(preTime,tempValue,info.strikePrice,\r\n                optionEx.ivNumerator,optionEx.ivDenominator,info.optType);\r\n        }\r\n    }\r\n    function _calculateFirstTimePrice(uint256 fullPrice,uint256 expiration,uint256 curTime,\r\n            uint256 strikePrice,uint256 ivNumerator,uint256 ivDenominator,uint8 optType)internal view returns (uint256){\r\n        uint256 nowValue = _calculateCurrentPrice(expiration,curTime,strikePrice,ivNumerator,\r\n            ivDenominator,optType);\r\n        return (fullPrice>nowValue)? fullPrice-nowValue : 0;\r\n    }\r\n    function _calculateTimePrice(uint256 preTime,uint256 expiration,uint256 curTime,\r\n            uint256 strikePrice,uint256 ivNumerator,uint256 ivDenominator,uint8 optType)internal view returns (uint256){\r\n        uint256 preValue = _optionsPrice.getOptionsPrice_iv(strikePrice,strikePrice,expiration-preTime,ivNumerator,\r\n            ivDenominator,optType);\r\n        uint256 nowValue = _calculateCurrentPrice(expiration,curTime,strikePrice,ivNumerator,\r\n            ivDenominator,optType);\r\n        return (preValue>nowValue)? preValue-nowValue : 0;\r\n    }\r\n    function _calculateCurrentPrice(uint256 expiration,uint256 curTime,uint256 strikePrice,uint256 ivNumerator,uint256 ivDenominator,uint8 optType)internal view returns (uint256){\r\n        if (expiration > curTime){\r\n        return _optionsPrice.getOptionsPrice_iv(strikePrice,strikePrice,expiration-curTime,ivNumerator,\r\n            ivDenominator,optType);\r\n        }\r\n        return 0;\r\n    }\r\n    */\r\n}\r\n\r\n",
  "sourcePath": "C:\\work\\solidity\\FinnexusOptions_V2\\contracts\\test\\optionPoolTest.sol",
  "compiler": {
    "name": "solc",
    "version": "0.4.26+commit.4563c3fc.Emscripten.clang"
  },
  "schemaVersion": "3.1.0",
  "updatedAt": "2020-07-30T11:11:17.681Z",
  "devdoc": {
    "methods": {
      "addExpiration(uint256)": {
        "details": "Implementation of add an eligible expiration into the expirationList.\r",
        "params": {
          "expiration": "new eligible expiration.\r"
        }
      },
      "addUnderlyingAsset(uint32)": {
        "details": "Implementation of add an eligible underlying into the underlyingAssets.\r",
        "params": {
          "underlying": "new eligible underlying.\r"
        }
      },
      "getExpirationList()": {
        "details": "Implementation of getting the eligible expirationList.\r"
      },
      "getUnderlyingAssets()": {
        "details": "Implementation of getting the eligible underlyingAssets.\r"
      },
      "isEligibleExpiration(uint256)": {
        "details": "Implementation of testing whether the input expiration is eligible.\r",
        "params": {
          "expiration": "input expiration for testing.\r"
        }
      },
      "isEligibleUnderlyingAsset(uint32)": {
        "details": "Implementation of testing whether the input underlying is eligible.\r",
        "params": {
          "underlying": "input underlying for testing.\r"
        }
      },
      "isOwner()": {
        "details": "Returns true if the caller is the current owner."
      },
      "owner()": {
        "details": "Returns the address of the current owner."
      },
      "removeExpirationList(uint256)": {
        "details": "Implementation of revoke an invalid expiration from the expirationList.\r",
        "params": {
          "removeExpiration": "revoked expiration.\r"
        }
      },
      "removeUnderlyingAssets(uint32)": {
        "details": "Implementation of revoke an invalid underlying from the underlyingAssets.\r",
        "params": {
          "removeUnderlying": "revoked underlying.\r"
        }
      },
      "renounceOwnership()": {
        "details": "Leaves the contract without owner. It will not be possible to call `onlyOwner` functions anymore. Can only be called by the current owner.     * NOTE: Renouncing ownership will leave the contract without an owner, thereby removing any functionality that is only available to the owner."
      },
      "transferOwnership(address)": {
        "details": "Transfers ownership of the contract to a new account (`newOwner`). Can only be called by the current owner."
      }
    }
  },
  "userdoc": {
    "methods": {
      "setManager(address)": {
        "notice": "contribution period to stop or not."
      }
    }
  }
}