{
  "contractName": "OptionsNetWorthCal",
  "abi": [
    {
      "anonymous": false,
      "inputs": [
        {
          "indexed": true,
          "internalType": "address",
          "name": "owner",
          "type": "address"
        },
        {
          "indexed": true,
          "internalType": "uint256",
          "name": "optionID",
          "type": "uint256"
        },
        {
          "indexed": false,
          "internalType": "uint256",
          "name": "amount",
          "type": "uint256"
        }
      ],
      "name": "BurnOption",
      "type": "event"
    },
    {
      "anonymous": false,
      "inputs": [
        {
          "indexed": true,
          "internalType": "address",
          "name": "owner",
          "type": "address"
        },
        {
          "indexed": true,
          "internalType": "uint256",
          "name": "optionID",
          "type": "uint256"
        },
        {
          "indexed": false,
          "internalType": "uint8",
          "name": "optType",
          "type": "uint8"
        },
        {
          "indexed": false,
          "internalType": "uint32",
          "name": "underlying",
          "type": "uint32"
        },
        {
          "indexed": false,
          "internalType": "uint256",
          "name": "expiration",
          "type": "uint256"
        },
        {
          "indexed": false,
          "internalType": "uint256",
          "name": "strikePrice",
          "type": "uint256"
        },
        {
          "indexed": false,
          "internalType": "uint256",
          "name": "amount",
          "type": "uint256"
        }
      ],
      "name": "CreateOption",
      "type": "event"
    },
    {
      "anonymous": false,
      "inputs": [
        {
          "indexed": true,
          "internalType": "address",
          "name": "previousOwner",
          "type": "address"
        },
        {
          "indexed": true,
          "internalType": "address",
          "name": "newOwner",
          "type": "address"
        }
      ],
      "name": "OwnershipTransferred",
      "type": "event"
    },
    {
      "constant": false,
      "inputs": [
        {
          "internalType": "uint256",
          "name": "expiration",
          "type": "uint256"
        }
      ],
      "name": "addExpiration",
      "outputs": [],
      "payable": false,
      "stateMutability": "nonpayable",
      "type": "function"
    },
    {
      "constant": false,
      "inputs": [
        {
          "internalType": "address",
          "name": "addAddress",
          "type": "address"
        }
      ],
      "name": "addOperator",
      "outputs": [],
      "payable": false,
      "stateMutability": "nonpayable",
      "type": "function"
    },
    {
      "constant": false,
      "inputs": [
        {
          "internalType": "uint32",
          "name": "underlying",
          "type": "uint32"
        }
      ],
      "name": "addUnderlyingAsset",
      "outputs": [],
      "payable": false,
      "stateMutability": "nonpayable",
      "type": "function"
    },
    {
      "constant": true,
      "inputs": [
        {
          "internalType": "uint256",
          "name": "expiration",
          "type": "uint256"
        },
        {
          "internalType": "uint32",
          "name": "underlying",
          "type": "uint32"
        }
      ],
      "name": "buyOptionCheck",
      "outputs": [],
      "payable": false,
      "stateMutability": "view",
      "type": "function"
    },
    {
      "constant": true,
      "inputs": [
        {
          "internalType": "uint256",
          "name": "lastOption",
          "type": "uint256"
        },
        {
          "internalType": "uint256",
          "name": "beginOption",
          "type": "uint256"
        },
        {
          "internalType": "uint256",
          "name": "endOption",
          "type": "uint256"
        }
      ],
      "name": "calculatePhaseOccupiedCollateral",
      "outputs": [
        {
          "internalType": "uint256",
          "name": "",
          "type": "uint256"
        },
        {
          "internalType": "uint256",
          "name": "",
          "type": "uint256"
        },
        {
          "internalType": "uint256",
          "name": "",
          "type": "uint256"
        },
        {
          "internalType": "bool",
          "name": "",
          "type": "bool"
        }
      ],
      "payable": false,
      "stateMutability": "view",
      "type": "function"
    },
    {
      "constant": true,
      "inputs": [
        {
          "internalType": "uint256",
          "name": "expiration",
          "type": "uint256"
        }
      ],
      "name": "checkExpiration",
      "outputs": [],
      "payable": false,
      "stateMutability": "view",
      "type": "function"
    },
    {
      "constant": true,
      "inputs": [
        {
          "internalType": "uint256",
          "name": "optionID",
          "type": "uint256"
        },
        {
          "internalType": "uint256",
          "name": "amount",
          "type": "uint256"
        }
      ],
      "name": "getBurnedFullPay",
      "outputs": [
        {
          "internalType": "address",
          "name": "",
          "type": "address"
        },
        {
          "internalType": "uint256",
          "name": "",
          "type": "uint256"
        }
      ],
      "payable": false,
      "stateMutability": "view",
      "type": "function"
    },
    {
      "constant": true,
      "inputs": [],
      "name": "getCallTotalOccupiedCollateral",
      "outputs": [
        {
          "internalType": "uint256",
          "name": "",
          "type": "uint256"
        }
      ],
      "payable": false,
      "stateMutability": "view",
      "type": "function"
    },
    {
      "constant": true,
      "inputs": [
        {
          "internalType": "uint256",
          "name": "optionsId",
          "type": "uint256"
        },
        {
          "internalType": "uint256",
          "name": "amount",
          "type": "uint256"
        }
      ],
      "name": "getExerciseWorth",
      "outputs": [
        {
          "internalType": "uint256",
          "name": "",
          "type": "uint256"
        }
      ],
      "payable": false,
      "stateMutability": "view",
      "type": "function"
    },
    {
      "constant": true,
      "inputs": [],
      "name": "getExpirationList",
      "outputs": [
        {
          "internalType": "uint256[]",
          "name": "",
          "type": "uint256[]"
        }
      ],
      "payable": false,
      "stateMutability": "view",
      "type": "function"
    },
    {
      "constant": true,
      "inputs": [],
      "name": "getInputAmountRange",
      "outputs": [
        {
          "internalType": "uint256",
          "name": "",
          "type": "uint256"
        },
        {
          "internalType": "uint256",
          "name": "",
          "type": "uint256"
        }
      ],
      "payable": false,
      "stateMutability": "view",
      "type": "function"
    },
    {
      "constant": true,
      "inputs": [
        {
          "internalType": "uint256",
          "name": "item",
          "type": "uint256"
        }
      ],
      "name": "getItemTimeLimitation",
      "outputs": [
        {
          "internalType": "uint256",
          "name": "",
          "type": "uint256"
        }
      ],
      "payable": false,
      "stateMutability": "view",
      "type": "function"
    },
    {
      "constant": true,
      "inputs": [],
      "name": "getManager",
      "outputs": [
        {
          "internalType": "address",
          "name": "",
          "type": "address"
        }
      ],
      "payable": false,
      "stateMutability": "view",
      "type": "function"
    },
    {
      "constant": true,
      "inputs": [],
      "name": "getOccupiedCalInfo",
      "outputs": [
        {
          "internalType": "uint256",
          "name": "",
          "type": "uint256"
        },
        {
          "internalType": "int256",
          "name": "",
          "type": "int256"
        },
        {
          "internalType": "int256",
          "name": "",
          "type": "int256"
        }
      ],
      "payable": false,
      "stateMutability": "view",
      "type": "function"
    },
    {
      "constant": true,
      "inputs": [],
      "name": "getOperator",
      "outputs": [
        {
          "internalType": "address[]",
          "name": "",
          "type": "address[]"
        }
      ],
      "payable": false,
      "stateMutability": "view",
      "type": "function"
    },
    {
      "constant": true,
      "inputs": [],
      "name": "getOptionInfoLength",
      "outputs": [
        {
          "internalType": "uint256",
          "name": "",
          "type": "uint256"
        }
      ],
      "payable": false,
      "stateMutability": "view",
      "type": "function"
    },
    {
      "constant": true,
      "inputs": [
        {
          "internalType": "uint256",
          "name": "from",
          "type": "uint256"
        },
        {
          "internalType": "uint256",
          "name": "size",
          "type": "uint256"
        }
      ],
      "name": "getOptionInfoList",
      "outputs": [
        {
          "internalType": "address[]",
          "name": "",
          "type": "address[]"
        },
        {
          "internalType": "uint256[]",
          "name": "",
          "type": "uint256[]"
        },
        {
          "internalType": "uint256[]",
          "name": "",
          "type": "uint256[]"
        },
        {
          "internalType": "uint256[]",
          "name": "",
          "type": "uint256[]"
        },
        {
          "internalType": "uint256[]",
          "name": "",
          "type": "uint256[]"
        }
      ],
      "payable": false,
      "stateMutability": "view",
      "type": "function"
    },
    {
      "constant": true,
      "inputs": [
        {
          "internalType": "uint256[]",
          "name": "ids",
          "type": "uint256[]"
        }
      ],
      "name": "getOptionInfoListFromID",
      "outputs": [
        {
          "internalType": "address[]",
          "name": "",
          "type": "address[]"
        },
        {
          "internalType": "uint256[]",
          "name": "",
          "type": "uint256[]"
        },
        {
          "internalType": "uint256[]",
          "name": "",
          "type": "uint256[]"
        },
        {
          "internalType": "uint256[]",
          "name": "",
          "type": "uint256[]"
        },
        {
          "internalType": "uint256[]",
          "name": "",
          "type": "uint256[]"
        }
      ],
      "payable": false,
      "stateMutability": "view",
      "type": "function"
    },
    {
      "constant": true,
      "inputs": [
        {
          "internalType": "uint256",
          "name": "optionsId",
          "type": "uint256"
        }
      ],
      "name": "getOptionsById",
      "outputs": [
        {
          "internalType": "uint256",
          "name": "",
          "type": "uint256"
        },
        {
          "internalType": "address",
          "name": "",
          "type": "address"
        },
        {
          "internalType": "uint8",
          "name": "",
          "type": "uint8"
        },
        {
          "internalType": "uint32",
          "name": "",
          "type": "uint32"
        },
        {
          "internalType": "uint256",
          "name": "",
          "type": "uint256"
        },
        {
          "internalType": "uint256",
          "name": "",
          "type": "uint256"
        },
        {
          "internalType": "uint256",
          "name": "",
          "type": "uint256"
        }
      ],
      "payable": false,
      "stateMutability": "view",
      "type": "function"
    },
    {
      "constant": true,
      "inputs": [
        {
          "internalType": "uint256",
          "name": "optionsId",
          "type": "uint256"
        }
      ],
      "name": "getOptionsExtraById",
      "outputs": [
        {
          "internalType": "address",
          "name": "",
          "type": "address"
        },
        {
          "internalType": "uint256",
          "name": "",
          "type": "uint256"
        },
        {
          "internalType": "uint256",
          "name": "",
          "type": "uint256"
        },
        {
          "internalType": "uint256",
          "name": "",
          "type": "uint256"
        },
        {
          "internalType": "uint256",
          "name": "",
          "type": "uint256"
        },
        {
          "internalType": "uint256",
          "name": "",
          "type": "uint256"
        }
      ],
      "payable": false,
      "stateMutability": "view",
      "type": "function"
    },
    {
      "constant": true,
      "inputs": [
        {
          "internalType": "uint256",
          "name": "optionsId",
          "type": "uint256"
        }
      ],
      "name": "getOptionsLimitTimeById",
      "outputs": [
        {
          "internalType": "uint256",
          "name": "",
          "type": "uint256"
        }
      ],
      "payable": false,
      "stateMutability": "view",
      "type": "function"
    },
    {
      "constant": true,
      "inputs": [],
      "name": "getOptionsPriceAddress",
      "outputs": [
        {
          "internalType": "address",
          "name": "",
          "type": "address"
        }
      ],
      "payable": false,
      "stateMutability": "view",
      "type": "function"
    },
    {
      "constant": true,
      "inputs": [],
      "name": "getOracleAddress",
      "outputs": [
        {
          "internalType": "address",
          "name": "",
          "type": "address"
        }
      ],
      "payable": false,
      "stateMutability": "view",
      "type": "function"
    },
    {
      "constant": true,
      "inputs": [],
      "name": "getPutTotalOccupiedCollateral",
      "outputs": [
        {
          "internalType": "uint256",
          "name": "",
          "type": "uint256"
        }
      ],
      "payable": false,
      "stateMutability": "view",
      "type": "function"
    },
    {
      "constant": true,
      "inputs": [],
      "name": "getTimeLimitation",
      "outputs": [
        {
          "internalType": "uint256",
          "name": "",
          "type": "uint256"
        }
      ],
      "payable": false,
      "stateMutability": "view",
      "type": "function"
    },
    {
      "constant": true,
      "inputs": [],
      "name": "getTotalOccupiedCollateral",
      "outputs": [
        {
          "internalType": "uint256",
          "name": "",
          "type": "uint256"
        }
      ],
      "payable": false,
      "stateMutability": "view",
      "type": "function"
    },
    {
      "constant": true,
      "inputs": [],
      "name": "getUnderlyingAssets",
      "outputs": [
        {
          "internalType": "uint32[]",
          "name": "",
          "type": "uint32[]"
        }
      ],
      "payable": false,
      "stateMutability": "view",
      "type": "function"
    },
    {
      "constant": true,
      "inputs": [
        {
          "internalType": "address",
          "name": "user",
          "type": "address"
        }
      ],
      "name": "getUserOptionsID",
      "outputs": [
        {
          "internalType": "uint256[]",
          "name": "",
          "type": "uint256[]"
        }
      ],
      "payable": false,
      "stateMutability": "view",
      "type": "function"
    },
    {
      "constant": true,
      "inputs": [
        {
          "internalType": "address",
          "name": "user",
          "type": "address"
        },
        {
          "internalType": "uint256",
          "name": "from",
          "type": "uint256"
        },
        {
          "internalType": "uint256",
          "name": "size",
          "type": "uint256"
        }
      ],
      "name": "getUserOptionsID",
      "outputs": [
        {
          "internalType": "uint256[]",
          "name": "",
          "type": "uint256[]"
        }
      ],
      "payable": false,
      "stateMutability": "view",
      "type": "function"
    },
    {
      "constant": true,
      "inputs": [],
      "name": "getVolatilityAddress",
      "outputs": [
        {
          "internalType": "address",
          "name": "",
          "type": "address"
        }
      ],
      "payable": false,
      "stateMutability": "view",
      "type": "function"
    },
    {
      "constant": false,
      "inputs": [],
      "name": "initialize",
      "outputs": [],
      "payable": false,
      "stateMutability": "nonpayable",
      "type": "function"
    },
    {
      "constant": true,
      "inputs": [
        {
          "internalType": "uint256",
          "name": "expiration",
          "type": "uint256"
        }
      ],
      "name": "isEligibleExpiration",
      "outputs": [
        {
          "internalType": "bool",
          "name": "",
          "type": "bool"
        }
      ],
      "payable": false,
      "stateMutability": "view",
      "type": "function"
    },
    {
      "constant": true,
      "inputs": [
        {
          "internalType": "uint32",
          "name": "underlying",
          "type": "uint32"
        }
      ],
      "name": "isEligibleUnderlyingAsset",
      "outputs": [
        {
          "internalType": "bool",
          "name": "",
          "type": "bool"
        }
      ],
      "payable": false,
      "stateMutability": "view",
      "type": "function"
    },
    {
      "constant": true,
      "inputs": [
        {
          "internalType": "uint256",
          "name": "Amount",
          "type": "uint256"
        }
      ],
      "name": "isInputAmountInRange",
      "outputs": [
        {
          "internalType": "bool",
          "name": "",
          "type": "bool"
        }
      ],
      "payable": false,
      "stateMutability": "view",
      "type": "function"
    },
    {
      "constant": true,
      "inputs": [],
      "name": "isOwner",
      "outputs": [
        {
          "internalType": "bool",
          "name": "",
          "type": "bool"
        }
      ],
      "payable": false,
      "stateMutability": "view",
      "type": "function"
    },
    {
      "constant": true,
      "inputs": [],
      "name": "owner",
      "outputs": [
        {
          "internalType": "address",
          "name": "",
          "type": "address"
        }
      ],
      "payable": false,
      "stateMutability": "view",
      "type": "function"
    },
    {
      "constant": false,
      "inputs": [
        {
          "internalType": "uint256",
          "name": "removeExpiration",
          "type": "uint256"
        }
      ],
      "name": "removeExpirationList",
      "outputs": [
        {
          "internalType": "bool",
          "name": "",
          "type": "bool"
        }
      ],
      "payable": false,
      "stateMutability": "nonpayable",
      "type": "function"
    },
    {
      "constant": false,
      "inputs": [
        {
          "internalType": "address",
          "name": "removeAddress",
          "type": "address"
        }
      ],
      "name": "removeOperator",
      "outputs": [
        {
          "internalType": "bool",
          "name": "",
          "type": "bool"
        }
      ],
      "payable": false,
      "stateMutability": "nonpayable",
      "type": "function"
    },
    {
      "constant": false,
      "inputs": [
        {
          "internalType": "uint32",
          "name": "removeUnderlying",
          "type": "uint32"
        }
      ],
      "name": "removeUnderlyingAssets",
      "outputs": [
        {
          "internalType": "bool",
          "name": "",
          "type": "bool"
        }
      ],
      "payable": false,
      "stateMutability": "nonpayable",
      "type": "function"
    },
    {
      "constant": false,
      "inputs": [],
      "name": "renounceOwnership",
      "outputs": [],
      "payable": false,
      "stateMutability": "nonpayable",
      "type": "function"
    },
    {
      "constant": false,
      "inputs": [
        {
          "internalType": "uint256",
          "name": "totalCallOccupied",
          "type": "uint256"
        },
        {
          "internalType": "uint256",
          "name": "totalPutOccupied",
          "type": "uint256"
        },
        {
          "internalType": "uint256",
          "name": "beginOption",
          "type": "uint256"
        },
        {
          "internalType": "int256",
          "name": "latestCallOccpied",
          "type": "int256"
        },
        {
          "internalType": "int256",
          "name": "latestPutOccpied",
          "type": "int256"
        }
      ],
      "name": "setCollateralPhase",
      "outputs": [],
      "payable": false,
      "stateMutability": "nonpayable",
      "type": "function"
    },
    {
      "constant": false,
      "inputs": [
        {
          "internalType": "uint256",
          "name": "_minAmount",
          "type": "uint256"
        },
        {
          "internalType": "uint256",
          "name": "_maxAmount",
          "type": "uint256"
        }
      ],
      "name": "setInputAmountRange",
      "outputs": [],
      "payable": false,
      "stateMutability": "nonpayable",
      "type": "function"
    },
    {
      "constant": false,
      "inputs": [
        {
          "internalType": "address",
          "name": "managerAddress",
          "type": "address"
        }
      ],
      "name": "setManager",
      "outputs": [],
      "payable": false,
      "stateMutability": "nonpayable",
      "type": "function"
    },
    {
      "constant": false,
      "inputs": [],
      "name": "setOccupiedCollateral",
      "outputs": [],
      "payable": false,
      "stateMutability": "nonpayable",
      "type": "function"
    },
    {
      "constant": false,
      "inputs": [
        {
          "internalType": "uint256",
          "name": "index",
          "type": "uint256"
        },
        {
          "internalType": "address",
          "name": "addAddress",
          "type": "address"
        }
      ],
      "name": "setOperator",
      "outputs": [],
      "payable": false,
      "stateMutability": "nonpayable",
      "type": "function"
    },
    {
      "constant": false,
      "inputs": [
        {
          "internalType": "address[]",
          "name": "operators",
          "type": "address[]"
        }
      ],
      "name": "setOperators",
      "outputs": [],
      "payable": false,
      "stateMutability": "nonpayable",
      "type": "function"
    },
    {
      "constant": false,
      "inputs": [
        {
          "internalType": "address",
          "name": "optionsPrice",
          "type": "address"
        }
      ],
      "name": "setOptionsPriceAddress",
      "outputs": [],
      "payable": false,
      "stateMutability": "nonpayable",
      "type": "function"
    },
    {
      "constant": false,
      "inputs": [
        {
          "internalType": "address",
          "name": "oracle",
          "type": "address"
        }
      ],
      "name": "setOracleAddress",
      "outputs": [],
      "payable": false,
      "stateMutability": "nonpayable",
      "type": "function"
    },
    {
      "constant": false,
      "inputs": [
        {
          "internalType": "uint256",
          "name": "_limitation",
          "type": "uint256"
        }
      ],
      "name": "setTimeLimitation",
      "outputs": [],
      "payable": false,
      "stateMutability": "nonpayable",
      "type": "function"
    },
    {
      "constant": false,
      "inputs": [
        {
          "internalType": "address",
          "name": "volatility",
          "type": "address"
        }
      ],
      "name": "setVolatilityAddress",
      "outputs": [],
      "payable": false,
      "stateMutability": "nonpayable",
      "type": "function"
    },
    {
      "constant": false,
      "inputs": [
        {
          "internalType": "address",
          "name": "newOwner",
          "type": "address"
        }
      ],
      "name": "transferOwnership",
      "outputs": [],
      "payable": false,
      "stateMutability": "nonpayable",
      "type": "function"
    },
    {
      "constant": true,
      "inputs": [
        {
          "internalType": "address[]",
          "name": "whiteList",
          "type": "address[]"
        }
      ],
      "name": "getNetWrothCalInfo",
      "outputs": [
        {
          "internalType": "uint256",
          "name": "",
          "type": "uint256"
        },
        {
          "internalType": "int256[]",
          "name": "",
          "type": "int256[]"
        }
      ],
      "payable": false,
      "stateMutability": "view",
      "type": "function"
    },
    {
      "constant": true,
      "inputs": [
        {
          "internalType": "address",
          "name": "settlement",
          "type": "address"
        }
      ],
      "name": "getNetWrothLatestWorth",
      "outputs": [
        {
          "internalType": "int256",
          "name": "",
          "type": "int256"
        }
      ],
      "payable": false,
      "stateMutability": "view",
      "type": "function"
    },
    {
      "constant": false,
      "inputs": [
        {
          "internalType": "uint256",
          "name": "newFirstOption",
          "type": "uint256"
        },
        {
          "internalType": "int256[]",
          "name": "latestNetWorth",
          "type": "int256[]"
        },
        {
          "internalType": "address[]",
          "name": "whiteList",
          "type": "address[]"
        }
      ],
      "name": "setSharedState",
      "outputs": [],
      "payable": false,
      "stateMutability": "nonpayable",
      "type": "function"
    },
    {
      "constant": true,
      "inputs": [
        {
          "internalType": "uint256",
          "name": "lastOption",
          "type": "uint256"
        },
        {
          "internalType": "uint256",
          "name": "begin",
          "type": "uint256"
        },
        {
          "internalType": "uint256",
          "name": "end",
          "type": "uint256"
        },
        {
          "internalType": "address[]",
          "name": "whiteList",
          "type": "address[]"
        }
      ],
      "name": "calRangeSharedPayment",
      "outputs": [
        {
          "internalType": "int256[]",
          "name": "",
          "type": "int256[]"
        },
        {
          "internalType": "uint256[]",
          "name": "",
          "type": "uint256[]"
        },
        {
          "internalType": "uint256",
          "name": "",
          "type": "uint256"
        }
      ],
      "payable": false,
      "stateMutability": "view",
      "type": "function"
    },
    {
      "constant": true,
      "inputs": [
        {
          "internalType": "uint256",
          "name": "lastOption",
          "type": "uint256"
        },
        {
          "internalType": "uint256",
          "name": "begin",
          "type": "uint256"
        },
        {
          "internalType": "uint256",
          "name": "end",
          "type": "uint256"
        },
        {
          "internalType": "address[]",
          "name": "whiteList",
          "type": "address[]"
        }
      ],
      "name": "calculatePhaseOptionsFall",
      "outputs": [
        {
          "internalType": "int256[]",
          "name": "",
          "type": "int256[]"
        }
      ],
      "payable": false,
      "stateMutability": "view",
      "type": "function"
    }
  ],
  "bytecode": "0x60806040819052610e106003556c0c9f2c9cd04674edea40000000600455606460055560008054600160a060020a0319163317808255600160a060020a0316917f8be0079c531659141344cd1fd0a4f28419497f9722a3daafe3b4186f6b6457e0908290a3620000776401000000006200007d810204565b620002df565b6200009064010000000062000186810204565b620000fc57604080517f08c379a000000000000000000000000000000000000000000000000000000000815260206004820181905260248201527f4f776e61626c653a2063616c6c6572206973206e6f7420746865206f776e6572604482015290519081900360640190fd5b60408051610100810182526201518081526202a30060208201526203f4809181019190915262093a806060820152620d2f0060808201526213c68060a0820152621a5e0060c082015262278d0060e08201526200015e90600e90600862000198565b50604080518082019091526001808252600260208301819052620001839290620001ef565b50565b600054600160a060020a031633145b90565b828054828255906000526020600020908101928215620001dd579160200282015b82811115620001dd578251829062ffffff16905591602001919060010190620001b9565b50620001eb9291506200029e565b5090565b82805482825590600052602060002090600701600890048101928215620002905791602002820160005b838211156200025c57835183826101000a81548163ffffffff021916908360ff160217905550926020019260040160208160030104928301926001030262000219565b80156200028e5782816101000a81549063ffffffff02191690556004016020816003010492830192600103026200025c565b505b50620001eb929150620002bb565b6200019591905b80821115620001eb5760008155600101620002a5565b6200019591905b80821115620001eb57805463ffffffff19168155600101620002c2565b61464b80620002ef6000396000f3fe608060405234801561001057600080fd5b506004361061037c5760003560e060020a900480638129fc1c116101d7578063b18b78dd11610108578063ddf71cd5116100a6578063e7f43c6811610080578063e7f43c6814611083578063f2fde38b1461108b578063f504e2f0146110b1578063f7de1923146110b95761037c565b8063ddf71cd514610f8e578063e7a1c1c014611031578063e7c568151461105d5761037c565b8063d0ebdbe7116100e2578063d0ebdbe714610f1a578063d500958414610f40578063d6d1401214610f48578063db6ad2bd14610f6b5761037c565b8063b18b78dd14610ee9578063bc9abed214610ef1578063bec3107f14610f125761037c565b80639ab91a3511610175578063a85504081161014f578063a855040814610e63578063ac8a584a14610e98578063aef890be14610ebe578063afec82fc14610ec65761037c565b80639ab91a3514610dfd5780639ef975d214610e20578063a093e2d014610e3d5761037c565b80638f32d59b116101b15780638f32d59b14610daa5780639052d5f814610db25780639783cbd914610dba5780639870d7fe14610dd75761037c565b80638129fc1c14610d7d578063813b5d4b14610d855780638da5cb5b14610da25761037c565b80634688d5d6116102b15780636d84e2e31161024f57806373a3d4241161022957806373a3d42414610d015780637cfff2d814610d095780637e1bcb7614610d265780637e838fa314610d4c5761037c565b80636d84e2e314610cbf578063715018a614610cdc578063723931ca14610ce45761037c565b8063597ce9001161028b578063597ce90014610b505780635ca4b73b14610b9657806367b8ceb914610b9e5780636a43c05e14610bc15761037c565b80634688d5d614610abe57806348ee201d14610ac65780634c69c00f14610b2a5761037c565b806332ab5c201161031e5780633ad2fb57116102f85780633ad2fb57146109b35780633e77dfd9146109dc57806342e5479d146109e457806343674c3a14610a085761037c565b806332ab5c2014610762578063354af360146108b85780633582d7891461095b5761037c565b80630c3725711161035a5780630c3725711461058c5780632415e010146105dd5780632967eafe1461070d5780632a75ee42146107335761037c565b80630438d4901461038157806307af14781461050c5780630905762214610566575b600080fd5b6103a46004803603604081101561039757600080fd5b50803590602001356110eb565b60405180806020018060200180602001806020018060200186810386528b818151815260200191508051906020019060200280838360005b838110156103f45781810151838201526020016103dc565b5050505090500186810385528a818151815260200191508051906020019060200280838360005b8381101561043357818101518382015260200161041b565b50505050905001868103845289818151815260200191508051906020019060200280838360005b8381101561047257818101518382015260200161045a565b50505050905001868103835288818151815260200191508051906020019060200280838360005b838110156104b1578181015183820152602001610499565b50505050905001868103825287818151815260200191508051906020019060200280838360005b838110156104f05781810151838201526020016104d8565b505050509050019a505050505050505050505060405180910390f35b6105296004803603602081101561052257600080fd5b50356113c2565b60408051600160a060020a0390971687526020870195909552858501939093526060850191909152608084015260a0830152519081900360c00190f35b61056e611475565b60408051938452602084019290925282820152519081900360600190f35b6105b5600480360360608110156105a257600080fd5b5080359060208101359060400135611483565b6040805194855260208501939093528383019190915215156060830152519081900360800190f35b61070b600480360360608110156105f357600080fd5b8135919081019060408101602082013564010000000081111561061557600080fd5b82018360208201111561062757600080fd5b8035906020019184602083028401116401000000008311171561064957600080fd5b919080806020026020016040519081016040528093929190818152602001838360200280828437600092019190915250929594936020810193503591505064010000000081111561069957600080fd5b8201836020820111156106ab57600080fd5b803590602001918460208302840111640100000000831117156106cd57600080fd5b919080806020026020016040519081016040528093929190818152602001838360200280828437600092019190915250929550611503945050505050565b005b61070b6004803603602081101561072357600080fd5b5035600160a060020a0316611700565b6107506004803603602081101561074957600080fd5b503561176c565b60408051918252519081900360200190f35b6108186004803603608081101561077857600080fd5b813591602081013591604082013591908101906080810160608201356401000000008111156107a657600080fd5b8201836020820111156107b857600080fd5b803590602001918460208302840111640100000000831117156107da57600080fd5b919080806020026020016040519081016040528093929190818152602001838360200280828437600092019190915250929550611783945050505050565b604051808060200180602001848152602001838103835286818151815260200191508051906020019060200280838360005b8381101561086257818101518382015260200161084a565b50505050905001838103825285818151815260200191508051906020019060200280838360005b838110156108a1578181015183820152602001610889565b505050509050019550505050505060405180910390f35b6103a4600480360360208110156108ce57600080fd5b8101906020810181356401000000008111156108e957600080fd5b8201836020820111156108fb57600080fd5b8035906020019184602083028401116401000000008311171561091d57600080fd5b919080806020026020016040519081016040528093929190818152602001838360200280828437600092019190915250929550611883945050505050565b610963611b4c565b60408051602080825283518183015283519192839290830191858101910280838360005b8381101561099f578181015183820152602001610987565b505050509050019250505060405180910390f35b61070b600480360360408110156109c957600080fd5b508035906020013563ffffffff16611bd1565b610750611c3b565b6109ec611cc5565b60408051600160a060020a039092168252519081900360200190f35b61096360048036036080811015610a1e57600080fd5b81359160208101359160408201359190810190608081016060820135640100000000811115610a4c57600080fd5b820183602082011115610a5e57600080fd5b80359060200191846020830284011164010000000083111715610a8057600080fd5b919080806020026020016040519081016040528093929190818152602001838360200280828437600092019190915250929550611cd4945050505050565b610750611dc9565b610ae360048036036020811015610adc57600080fd5b5035611dcf565b60408051978852600160a060020a03909616602088015260ff9094168686015263ffffffff9092166060860152608085015260a084015260c0830152519081900360e00190f35b61070b60048036036020811015610b4057600080fd5b5035600160a060020a0316611e43565b610b7360048036036040811015610b6657600080fd5b5080359060200135611eaf565b60408051600160a060020a03909316835260208301919091528051918290030190f35b6109ec611f3d565b61075060048036036040811015610bb457600080fd5b5080359060200135611f4c565b610c6460048036036020811015610bd757600080fd5b810190602081018135640100000000811115610bf257600080fd5b820183602082011115610c0457600080fd5b80359060200191846020830284011164010000000083111715610c2657600080fd5b919080806020026020016040519081016040528093929190818152602001838360200280828437600092019190915250929550612033945050505050565b6040518083815260200180602001828103825283818151815260200191508051906020019060200280838360005b83811015610caa578181015183820152602001610c92565b50505050905001935050505060405180910390f35b61075060048036036020811015610cd557600080fd5b50356120dd565b61070b61214d565b61070b60048036036020811015610cfa57600080fd5b50356121e1565b61075061222b565b61070b60048036036020811015610d1f57600080fd5b5035612243565b61075060048036036020811015610d3c57600080fd5b5035600160a060020a031661229e565b610d6960048036036020811015610d6257600080fd5b50356122b9565b604080519115158252519081900360200190f35b61070b612316565b610d6960048036036020811015610d9b57600080fd5b50356123e3565b6109ec6123fb565b610d6961240a565b61096361241b565b61070b60048036036020811015610dd057600080fd5b5035612472565b61070b60048036036020811015610ded57600080fd5b5035600160a060020a03166124c1565b61070b60048036036040811015610e1357600080fd5b508035906020013561251c565b610d6960048036036020811015610e3657600080fd5b5035612571565b61070b60048036036020811015610e5357600080fd5b5035600160a060020a03166125d6565b61070b600480360360a0811015610e7957600080fd5b5080359060208101359060408101359060608101359060800135612642565b610d6960048036036020811015610eae57600080fd5b5035600160a060020a031661285a565b6107506128b7565b61070b60048036036020811015610edc57600080fd5b503563ffffffff1661292c565b6109ec612987565b610ef9612996565b6040805192835260208301919091528051918290030190f35b6107506129a0565b61070b60048036036020811015610f3057600080fd5b5035600160a060020a03166129a6565b6109ec612a12565b610d6960048036036020811015610f5e57600080fd5b503563ffffffff16612a21565b610d6960048036036020811015610f8157600080fd5b503563ffffffff16612a7e565b61070b60048036036020811015610fa457600080fd5b810190602081018135640100000000811115610fbf57600080fd5b820183602082011115610fd157600080fd5b80359060200191846020830284011164010000000083111715610ff357600080fd5b919080806020026020016040519081016040528093929190818152602001838360200280828437600092019190915250929550612b0f945050505050565b61070b6004803603604081101561104757600080fd5b5080359060200135600160a060020a0316612b6c565b6109636004803603602081101561107357600080fd5b5035600160a060020a0316612bf6565b610963612c62565b61070b600480360360208110156110a157600080fd5b5035600160a060020a0316612cc3565b61070b612d16565b610963600480360360608110156110cf57600080fd5b50600160a060020a038135169060208101359060400135612dd7565b600b546060908190819081908190808810611150576040805160e560020a62461bcd02815260206004820152601660248201527f696e7075742066726f6d206973206f766572666c6f7700000000000000000000604482015290519081900360640190fd5b600087116111a8576040805160e560020a62461bcd02815260206004820152601260248201527f696e7075742073697a65206973207a65726f0000000000000000000000000000604482015290519081900360640190fd5b8087890111156111b85787810396505b6060876040519080825280602002602001820160405280156111e4578160200160208202803883390190505b509050606088604051908082528060200260200182016040528015611213578160200160208202803883390190505b509050606089604051908082528060200260200182016040528015611242578160200160208202803883390190505b50905060608a604051908082528060200260200182016040528015611271578160200160208202803883390190505b50905060608b6040519080825280602002602001820160405280156112a0578160200160208202803883390190505b50905060005b8c8110156113ad576000818f0190506000600b82815481106112c457fe5b906000526020600020906005020190508060000160089054906101000a9004600160a060020a03168884815181106112f857fe5b600160a060020a03929092166020928302919091019091015280546001820154885160e060020a90920460ff1663ffffffff918216620100000201169088908590811061134157fe5b602002602001018181525050806002015486848151811061135e57fe5b602002602001018181525050806003015485848151811061137b57fe5b602002602001018181525050806004015484848151811061139857fe5b602090810291909101015250506001016112a6565b50939c929b5090995097509095509350505050565b6000806000806000806000871180156113dd5750600b548711155b611431576040805160e560020a62461bcd02815260206004820152601660248201527f6f7074696f6e206964206973206e6f7420657869737400000000000000000000604482015290519081900360640190fd5b50505060009384525050600c602052506040902080546001820154600283015460038401546004850154600590950154600160a060020a0390941695929491939092565b601154601454601554909192565b6000806000806011548610156114995760115495505b8686106114b1575060009250829150819050806114fa565b868511156114c1578694506114dc565b6011548510156114dc575060009250829150819050806114fa565b60008060006114eb8989612f78565b91985096509450600193505050505b93509350935093565b600a5460009015801590611540575033600160a060020a0316600a828154811061152957fe5b600091825260209091200154600160a060020a0316145b61157e5760405160e560020a62461bcd02815260040180806020018281038252602d81526020018061457b602d913960400191505060405180910390fd5b600b548411156115d8576040805160e560020a62461bcd02815260206004820152601e60248201527f6e657746697273744f7074696f6e2063616c63756c617465204572726f720000604482015290519081900360640190fd5b600f548411156115e857600f8490555b815160005b818110156116f857701d6329f1c35ca4bfabb9f560ffffffffff1985828151811061161457fe5b60200260200101511215801561164e5750701d6329f1c35ca4bfabb9f561000000000085828151811061164357fe5b602002602001015113155b6116a2576040805160e560020a62461bcd02815260206004820152601e60248201527f6c61746573744e6574576f7274682063616c63756c617465206572726f720000604482015290519081900360640190fd5b8481815181106116ae57fe5b6020026020010151601060008684815181106116c657fe5b602090810291909101810151600160a060020a03168252810191909152604001600020805490910190556001016115ed565b505050505050565b61170861240a565b61174a576040805160e560020a62461bcd0281526020600482018190526024820152600080516020614533833981519152604482015290519081900360640190fd5b60088054600160a060020a031916600160a060020a0392909216919091179055565b600354600091825260026020526040909120540190565b606080600086861015806117985750600f5485105b156118035783516040519080825280602002602001820160405280156117c8578160200160208202803883390190505b5084516040519080825280602002602001820160405280156117f4578160200160208202803883390190505b50909350915060009050611879565b8685111561180f578694505b6060600061181e8888886130e8565b9150915080881015611845576060611837898389613290565b955091935091506118799050565b8551604051908082528060200260200182016040528015611870578160200160208202803883390190505b50945090925090505b9450945094915050565b6060806060806060600086519050600081116118e9576040805160e560020a62461bcd02815260206004820152601860248201527f696e7075742069647320617272617920697320656d7074790000000000000000604482015290519081900360640190fd5b600b54604080518381526020808502820101909152606090838015611918578160200160208202803883390190505b509050606083604051908082528060200260200182016040528015611947578160200160208202803883390190505b509050606084604051908082528060200260200182016040528015611976578160200160208202803883390190505b5090506060856040519080825280602002602001820160405280156119a5578160200160208202803883390190505b5090506060866040519080825280602002602001820160405280156119d4578160200160208202803883390190505b50905060005b878110156113ad57600060018f83815181106119f257fe5b6020026020010151039050878110611a54576040805160e560020a62461bcd02815260206004820152601860248201527f696e7075742069647320617272617920697320656d7074790000000000000000604482015290519081900360640190fd5b6000600b8281548110611a6357fe5b906000526020600020906005020190508060000160089054906101000a9004600160a060020a0316888481518110611a9757fe5b600160a060020a03929092166020928302919091019091015280546001820154885160e060020a90920460ff1663ffffffff9182166201000002011690889085908110611ae057fe5b6020026020010181815250508060020154868481518110611afd57fe5b6020026020010181815250508060030154858481518110611b1a57fe5b6020026020010181815250508060040154848481518110611b3757fe5b602090810291909101015250506001016119da565b60606001805480602002602001604051908101604052809291908181526020018280548015611bc657602002820191906000526020600020906000905b82829054906101000a900463ffffffff1663ffffffff1681526020019060040190602082600301049283019260010382029150808411611b895790505b505050505090505b90565b611bda81612a7e565b611c2e576040805160e560020a62461bcd02815260206004820152601f60248201527f756e6465726c79696e6720697320756e737570706f7274656420617373657400604482015290519081900360640190fd5b611c37826121e1565b5050565b60008060145412611c985760145460125490810190811015611c915760405160e560020a62461bcd02815260040180806020018281038252602a8152602001806145ed602a913960400191505060405180910390fd5b9050611bce565b60006014546000039050806012541115611cb757601254039050611bce565b6000915050611bce565b5090565b600854600160a060020a031690565b60608484101580611ce65750600f5483105b15611d1e578151604051908082528060200260200182016040528015611d16578160200160208202803883390190505b509050611dc1565b84831115611d2a578492505b600f548411611d3957600f5493505b6060611d436133d6565b90506060611d5386868685613475565b845190915060005b81811015611dba57611d7f868281518110611d7257fe5b6020026020010151613615565b838281518110611d8b57fe5b602002602001015181611d9a57fe5b05838281518110611da757fe5b6020908102919091010152600101611d5b565b5090925050505b949350505050565b60035490565b600080600080600080600080611de4896136d2565b805460018201546002830154600384015460049094015467ffffffffffffffff84169e680100000000000000008504600160a060020a03169e5060e060020a90940460ff169c5063ffffffff9092169a50985091965090945092505050565b611e4b61240a565b611e8d576040805160e560020a62461bcd0281526020600482018190526024820152600080516020614533833981519152604482015290519081900360640190fd5b60078054600160a060020a031916600160a060020a0392909216919091179055565b60008082806004541015611ef75760405160e560020a62461bcd0281526004018080602001828103825260248152602001806145c96024913960400191505060405180910390fd5b60001985016000908152600c60205260409020805460018201546003830154600160a060020a0390921691670de0b6b3a764000091028702049350935050509250929050565b600954600160a060020a031690565b6000611f56614297565b611f5f846136d2565b6040805160e081018252825467ffffffffffffffff81168252680100000000000000008104600160a060020a0316602083015260e060020a900460ff1691810191909152600182015463ffffffff16606082015260028201546080820152600382015460a082015260049091015460c08201529050611fdd8161375e565b611fe781846137b9565b6000611ffc826060015163ffffffff16613815565b9050600061201383604001518460a001518461387f565b905080612026576000935050505061202d565b8402925050505b92915050565b60006060600083519050606081604051908082528060200260200182016040528015612069578160200160208202803883390190505b50905060005b828110156120cf576010600087838151811061208757fe5b6020026020010151600160a060020a0316600160a060020a03168152602001908152602001600020548282815181106120bc57fe5b602090810291909101015260010161206f565b50600f549350915050915091565b600080821180156120f05750600b548211155b612144576040805160e560020a62461bcd02815260206004820152601660248201527f6f7074696f6e206964206973206e6f7420657869737400000000000000000000604482015290519081900360640190fd5b61202d8261176c565b61215561240a565b612197576040805160e560020a62461bcd0281526020600482018190526024820152600080516020614533833981519152604482015290519081900360640190fd5b60008054604051600160a060020a03909116907f8be0079c531659141344cd1fd0a4f28419497f9722a3daafe3b4186f6b6457e0908390a360008054600160a060020a0319169055565b6121ea81612571565b6122285760405160e560020a62461bcd0281526004018080602001828103825260218152602001806145a86021913960400191505060405180910390fd5b50565b60006122356128b7565b61223d611c3b565b01905090565b61224b61240a565b61228d576040805160e560020a62461bcd0281526020600482018190526024820152600080516020614533833981519152604482015290519081900360640190fd5b612228600e8263ffffffff6138b316565b600160a060020a031660009081526010602052604090205490565b60006122c361240a565b612305576040805160e560020a62461bcd0281526020600482018190526024820152600080516020614533833981519152604482015290519081900360640190fd5b61202d600e8363ffffffff61392816565b61231e61240a565b612360576040805160e560020a62461bcd0281526020600482018190526024820152600080516020614533833981519152604482015290519081900360640190fd5b60408051610100810182526201518081526202a30060208201526203f4809181019190915262093a806060820152620d2f0060808201526213c68060a0820152621a5e0060c082015262278d0060e08201526123c090600e9060086142d3565b506040805180820190915260018082526002602083018190526122289290614321565b6000816004541015801561202d575050600554111590565b600054600160a060020a031690565b600054600160a060020a0316331490565b6060600e805480602002602001604051908101604052809291908181526020018280548015611bc657602002820191906000526020600020905b815481526020019060010190808311612455575050505050905090565b61247a61240a565b6124bc576040805160e560020a62461bcd0281526020600482018190526024820152600080516020614533833981519152604482015290519081900360640190fd5b600355565b6124c961240a565b61250b576040805160e560020a62461bcd0281526020600482018190526024820152600080516020614533833981519152604482015290519081900360640190fd5b612228600a8263ffffffff6139ce16565b61252461240a565b612566576040805160e560020a62461bcd0281526020600482018190526024820152600080516020614533833981519152604482015290519081900360640190fd5b600591909155600455565b600061202d82600e8054806020026020016040519081016040528092919081815260200182805480156125c357602002820191906000526020600020905b8154815260200190600101908083116125af575b5050505050613a6690919063ffffffff16565b6125de61240a565b612620576040805160e560020a62461bcd0281526020600482018190526024820152600080516020614533833981519152604482015290519081900360640190fd5b60098054600160a060020a031916600160a060020a0392909216919091179055565b600a546001908110801561267f575033600160a060020a0316600a828154811061266857fe5b600091825260209091200154600160a060020a0316145b6126bd5760405160e560020a62461bcd02815260040180806020018281038252602d81526020018061457b602d913960400191505060405180910390fd5b600b54841115612717576040805160e560020a62461bcd02815260206004820152601b60248201527f626567696e4f7074696f6e2063616c63756c617465204572726f720000000000604482015290519081900360640190fd5b6011548411156127275760118490555b60128690556013859055701d6329f1c35ca4bfabb9f560ffffffffff1983128015906127645750701d6329f1c35ca4bfabb9f56100000000008313155b6127b8576040805160e560020a62461bcd02815260206004820152601c60248201527f6f7074696f6e732066616c6c2063616c63756c617465206572726f7200000000604482015290519081900360640190fd5b701d6329f1c35ca4bfabb9f560ffffffffff1982121580156127eb5750701d6329f1c35ca4bfabb9f56100000000008213155b61283f576040805160e560020a62461bcd02815260206004820152601c60248201527f6f7074696f6e732066616c6c2063616c63756c617465206572726f7200000000604482015290519081900360640190fd5b50601480549290920390915560158054919091039055505050565b600061286461240a565b6128a6576040805160e560020a62461bcd0281526020600482018190526024820152600080516020614533833981519152604482015290519081900360640190fd5b61202d600a8363ffffffff613aa316565b6000806015541261290d5760155460135490810190811015611c915760405160e560020a62461bcd02815260040180806020018281038252602a8152602001806145ed602a913960400191505060405180910390fd5b60006015546000039050806013541115611cb757601354039050611bce565b61293461240a565b612976576040805160e560020a62461bcd0281526020600482018190526024820152600080516020614533833981519152604482015290519081900360640190fd5b61222860018263ffffffff613b7916565b600754600160a060020a031690565b6005546004549091565b600b5490565b6129ae61240a565b6129f0576040805160e560020a62461bcd0281526020600482018190526024820152600080516020614533833981519152604482015290519081900360640190fd5b60068054600160a060020a031916600160a060020a0392909216919091179055565b600654600160a060020a031690565b6000612a2b61240a565b612a6d576040805160e560020a62461bcd0281526020600482018190526024820152600080516020614533833981519152604482015290519081900360640190fd5b61202d60018363ffffffff613c4016565b600061202d826001805480602002602001604051908101604052809291908181526020018280548015612afc57602002820191906000526020600020906000905b82829054906101000a900463ffffffff1663ffffffff1681526020019060040190602082600301049283019260010382029150808411612abf5790505b5050505050613d3090919063ffffffff16565b612b1761240a565b612b59576040805160e560020a62461bcd0281526020600482018190526024820152600080516020614533833981519152604482015290519081900360640190fd5b8051611c3790600a9060208401906143c9565b612b7461240a565b612bb6576040805160e560020a62461bcd0281526020600482018190526024820152600080516020614533833981519152604482015290519081900360640190fd5b80600a8381548110612bc457fe5b9060005260206000200160006101000a815481600160a060020a030219169083600160a060020a031602179055505050565b600160a060020a0381166000908152600d6020908152604091829020805483518184028101840190945280845260609392830182828015612c5657602002820191906000526020600020905b815481526020019060010190808311612c42575b50505050509050919050565b6060600a805480602002602001604051908101604052809291908181526020018280548015611bc657602002820191906000526020600020905b8154600160a060020a03168152600190910190602001808311612c9c575050505050905090565b612ccb61240a565b612d0d576040805160e560020a62461bcd0281526020600482018190526024820152600080516020614533833981519152604482015290519081900360640190fd5b61222881613d79565b600a5460019081108015612d53575033600160a060020a0316600a8281548110612d3c57fe5b600091825260209091200154600160a060020a0316145b612d915760405160e560020a62461bcd02815260040180806020018281038252602d81526020018061457b602d913960400191505060405180910390fd5b601454601554600b54601154600090819081908190612db290869081611483565b93509350935093508015612dcd57612dcd8484848a8a612642565b5050505050505050565b600160a060020a0383166000908152600d60205260409020546060908310612e49576040805160e560020a62461bcd02815260206004820152601660248201527f696e7075742066726f6d206973206f766572666c6f7700000000000000000000604482015290519081900360640190fd5b60008211612ea1576040805160e560020a62461bcd02815260206004820152601260248201527f696e7075742073697a65206973207a65726f0000000000000000000000000000604482015290519081900360640190fd5b606082604051908082528060200260200182016040528015612ecd578160200160208202803883390190505b50600160a060020a0386166000908152600d60205260409020549091508484011115612f1257600160a060020a0385166000908152600d602052604090205484900392505b60005b83811015612f6d57600160a060020a0386166000908152600d602052604090208054868301908110612f4357fe5b9060005260206000200154828281518110612f5a57fe5b6020908102919091010152600101612f15565b5090505b9392505050565b600080600080612f8b8660115487613e1c565b90965090506060612f9a6133d6565b90506000805b878910156130d8576000612fd9600b8b81548110612fba57fe5b600091825260209091206001600590920201015463ffffffff16613e99565b9050600061308f600b8c81548110612fed57fe5b60009182526020918290206040805160e081018252600593909302909101805467ffffffffffffffff81168452680100000000000000008104600160a060020a03169484019490945260e060020a90930460ff1690820152600182015463ffffffff16606082015260028201546080820152600382015460a082015260049091015460c0820152865187908590811061308257fe5b6020026020010151613f2a565b9050600b8b8154811061309e57fe5b600091825260209091206005909102015460e060020a900460ff166130c657928301926130cb565b918201915b5050600190980197612fa0565b9095509350909150509250925092565b6060600060608351604051908082528060200260200182016040528015613119578160200160208202803883390190505b509050600061312b87600f5488613e1c565b90975090505b85871015613282576000600b888154811061314857fe5b906000526020600020906005020190506000600c60008a81526020019081526020016000209050600061319f826002015484600301548560020154856004015487600001601c9054906101000a900460ff16613fbe565b905081600301548110156132745760038201548254919003906000906131cf908a90600160a060020a031661408b565b9050670de0b6b3a764000084600401548385600101540202816131ee57fe5b049150701d6329f1c35ca4bfabb9f56100000000008211156132445760405160e560020a62461bcd0281526004018080602001828103825260288152602001806145536028913960400191505060405180910390fd5b8186828151811061325157fe5b60200260200101510186828151811061326657fe5b602002602001018181525050505b505060019097019650613131565b90925090505b935093915050565b60608082516040519080825280602002602001820160405280156132be578160200160208202803883390190505b5090505b83851015611dc1576000600b86815481106132d957fe5b906000526020600020906005020190506000816004015411156133ca576000868152600c60205260408120805490919061331d908790600160a060020a031661408b565b90506000670de0b6b3a764000084600401548460010154856003015402028161334257fe5b049050701d6329f1c35ca4bfabb9f56100000000008111156133985760405160e560020a62461bcd0281526004018080602001828103825260288152602001806145536028913960400191505060405180910390fd5b808583815181106133a557fe5b6020026020010151018583815181106133ba57fe5b6020026020010181815250505050505b506001909401936132c2565b600154604080518281526020808402820101909152606091908290828015613408578160200160208202803883390190505b50905060005b8281101561346e5761344f6001828154811061342657fe5b6000918252602090912060088204015460079091166004026101000a900463ffffffff16613815565b82828151811061345b57fe5b602090810291909101015260010161340e565b5091505090565b60608083516040519080825280602002602001820160405280156134a3578160200160208202803883390190505b5090505b8486101561360c576000600b87815481106134be57fe5b9060005260206000209060050201905042816002015410806134e257506004810154155b156134ed5750613601565b60018101546000906135049063ffffffff16613e99565b6040805160e081018252845467ffffffffffffffff81168252680100000000000000008104600160a060020a0316602083015260e060020a900460ff1691810191909152600184015463ffffffff16606082015260028401546080820152600384015460a0820152600484015460c08201819052875192935060009261359f92919089908690811061359257fe5b60200260200101516140d4565b905080156135fd576000898152600c6020526040902080546135cb908990600160a060020a031661408b565b9250818584815181106135da57fe5b6020026020010151038584815181106135ef57fe5b602002602001018181525050505b5050505b6001909501946134a7565b95945050505050565b600754604080517f41976e09000000000000000000000000000000000000000000000000000000008152600160a060020a0384811660048301529151600093849316916341976e09916024808301926020929190829003018186803b15801561367d57600080fd5b505afa158015613691573d6000803e3d6000fd5b505050506040513d60208110156136a757600080fd5b50519050606481108015906136c957506c0c9f2c9cd04674edea400000008111155b61202d57600080fd5b600080821180156136e55750600b548211155b613739576040805160e560020a62461bcd02815260206004820152601660248201527f6f7074696f6e206964206973206e6f7420657869737400000000000000000000604482015290519081900360640190fd5b600b600183038154811061374957fe5b90600052602060002090600502019050919050565b42816080015111612228576040805160e560020a62461bcd02815260206004820152601160248201527f6f7074696f6e2069732065787069726564000000000000000000000000000000604482015290519081900360640190fd5b808260c001511015611c37576040805160e560020a62461bcd02815260206004820152601d60248201527f6f7074696f6e20616d6f756e7420697320696e73756666696369656e74000000604482015290519081900360640190fd5b600754604080517fda6632570000000000000000000000000000000000000000000000000000000081526004810184905290516000928392600160a060020a039091169163da66325791602480820192602092909190829003018186803b15801561367d57600080fd5b600060ff841615828411141561389757506000612f71565b60ff8416156138a8578183036138ac565b8282035b9050612f71565b61390c8280548060200260200160405190810160405280929190818152602001828054801561390157602002820191906000526020600020905b8154815260200190600101908083116138ed575b505050505082613a66565b611c375781546001810183556000928352602090922090910155565b8154600090815b81811015613962578385828154811061394457fe5b9060005260206000200154141561395a57613962565b60010161392f565b818110156139c3576001820381146139a75784600183038154811061398357fe5b906000526020600020015485828154811061399a57fe5b6000918252602090912001555b84546139b786600019830161442a565b5060019250505061202d565b506000949350505050565b613a3182805480602002602001604051908101604052809291908181526020018280548015613a2657602002820191906000526020600020905b8154600160a060020a03168152600190910190602001808311613a08575b5050505050826141e7565b611c37578154600181018355600083815260209020018054600160a060020a038316600160a060020a03199091161790555050565b8151600090815b818110156139c35783858281518110613a8257fe5b60200260200101511415613a9b5760019250505061202d565b600101613a6d565b8154600090815b81811015613af05783600160a060020a0316858281548110613ac857fe5b600091825260209091200154600160a060020a03161415613ae857613af0565b600101613aaa565b818110156139c3576001820381146139a757846001830381548110613b1157fe5b9060005260206000200160009054906101000a9004600160a060020a0316858281548110613b3b57fe5b9060005260206000200160006101000a815481600160a060020a030219169083600160a060020a0316021790555084546139b786600019830161442a565b613bfe82805480602002602001604051908101604052809291908181526020018280548015613bf357602002820191906000526020600020906000905b82829054906101000a900463ffffffff1663ffffffff1681526020019060040190602082600301049283019260010382029150808411613bb65790505b505050505082613d30565b611c37578154600181018355600092835260209092206008830401805460079093166004026101000a63ffffffff818102199094169290931692909202179055565b8154600090815b81811015613c99578363ffffffff16858281548110613c6257fe5b6000918252602090912060088204015460079091166004026101000a900463ffffffff161415613c9157613c99565b600101613c47565b818110156139c357600182038114613d2057846001830381548110613cba57fe5b90600052602060002090600891828204019190066004029054906101000a900463ffffffff16858281548110613cec57fe5b90600052602060002090600891828204019190066004026101000a81548163ffffffff021916908363ffffffff1602179055505b84546139b7866000198301614453565b8151600090815b818110156139c3578363ffffffff16858281518110613d5257fe5b602002602001015163ffffffff161415613d715760019250505061202d565b600101613d37565b600160a060020a038116613dc15760405160e560020a62461bcd02815260040180806020018281038252602681526020018061450d6026913960400191505060405180910390fd5b60008054604051600160a060020a03808516939216917f8be0079c531659141344cd1fd0a4f28419497f9722a3daafe3b4186f6b6457e091a360008054600160a060020a031916600160a060020a0392909216919091179055565b6000808380861115613e32578592509050613288565b8095505b83861015613e8d576000600b8781548110613e4d57fe5b906000526020600020906005020190504281600201541080613e7157506004810154155b15613e7c5750613e82565b50613e8d565b600190950194613e36565b50939485945092505050565b600061202d826001805480602002602001604051908101604052809291908181526020018280548015613f1757602002820191906000526020600020906000905b82829054906101000a900463ffffffff1663ffffffff1681526020019060040190602082600301049283019260010382029150808411613eda5790505b505050505061423690919063ffffffff16565b6000428360800151111580613f41575060c0830151155b15613f4e5750600061202d565b60008360c00151613f6885604001518660a0015186614279565b029050701d6329f1c35ca4bfabb9f5610000000000811115612f715760405160e560020a62461bcd02815260040180806020018281038252602a8152602001806144e3602a913960400191505060405180910390fd5b60004284111561407f57600954604080517f62df80ce000000000000000000000000000000000000000000000000000000008152600481018990526024810188905242870360448201526064810186905260ff851660848201529051600160a060020a03909216916362df80ce9160a480820192602092909190829003018186803b15801561404c57600080fd5b505afa158015614060573d6000803e3d6000fd5b505050506040513d602081101561407657600080fd5b5051905061360c565b50600095945050505050565b8151600090815b81811015611dc15783600160a060020a03168582815181106140b057fe5b6020026020010151600160a060020a031614156140cc57611dc1565b600101614092565b60004284608001511115806140e7575082155b156140f457506000612f71565b60008361410a86604001518760a001518661387f565b0290506000600c6000600188600001510367ffffffffffffffff168152602001908152602001600020905060008561414f88604001518960a00151856002015461387f565b029050808303701d6329f1c35ca4bfabb9f560ffffffffff1981128015906141885750701d6329f1c35ca4bfabb9f56100000000008113155b6141dc576040805160e560020a62461bcd02815260206004820152601c60248201527f6f7074696f6e732066616c6c2063616c63756c617465206572726f7200000000604482015290519081900360640190fd5b979650505050505050565b8151600090815b818110156139c35783600160a060020a031685828151811061420c57fe5b6020026020010151600160a060020a0316141561422e5760019250505061202d565b6001016141ee565b8151600090815b81811015611dc1578363ffffffff1685828151811061425857fe5b602002602001015163ffffffff16141561427157611dc1565b60010161423d565b600060ff8416158284111415614290575081612f71565b5080612f71565b6040805160e081018252600080825260208201819052918101829052606081018290526080810182905260a0810182905260c081019190915290565b828054828255906000526020600020908101928215614315579160200282015b82811115614315578251829062ffffff169055916020019190600101906142f3565b50611cc1929150614483565b828054828255906000526020600020906007016008900481019282156143bd5791602002820160005b8382111561438b57835183826101000a81548163ffffffff021916908360ff160217905550926020019260040160208160030104928301926001030261434a565b80156143bb5782816101000a81549063ffffffff021916905560040160208160030104928301926001030261438b565b505b50611cc192915061449d565b82805482825590600052602060002090810192821561441e579160200282015b8281111561441e5782518254600160a060020a031916600160a060020a039091161782556020909201916001909101906143e9565b50611cc19291506144be565b81548183558181111561444e5760008381526020902061444e918101908301614483565b505050565b81548183558181111561444e57600701600890048160070160089004836000526020600020918201910161444e91905b611bce91905b80821115611cc15760008155600101614489565b611bce91905b80821115611cc157805463ffffffff191681556001016144a3565b611bce91905b80821115611cc1578054600160a060020a03191681556001016144c456fe4f7074696f6e20636f6c6c61746572616c206f636375706965642063616c63756c617465206572726f724f776e61626c653a206e6577206f776e657220697320746865207a65726f20616464726573734f776e61626c653a2063616c6c6572206973206e6f7420746865206f776e65726f7074696f6e2074696d65207368617265642076616c75652063616c63756c617465206572726f724f70657261746f723a2063616c6c6572206973206e6f742074686520656c696769626c65204f70657261746f7265787069726174696f6e2076616c7565206973206e6f7420737570706f72746564696e70757420616d6f756e74206973206c6172676572207468616e206d6178696d69756d546f74616c4f63637570696564436f6c6c61746572616c2063616c63756c617465206f766572666c6f77a265627a7a723158201bf5be28243f7d12150b09437acc338bfdebdcaa547c3da26cf3f88e1771fc6c64736f6c63430005100032",
  "source": "pragma solidity =0.5.16;\r\nimport \"./OptionsOccupiedCal.sol\";\r\n/**\r\n * @title Options net worth calculation contract for finnexus proposal v2.\r\n * @dev A Smart-contract for net worth calculation.\r\n *\r\n */\r\ncontract OptionsNetWorthCal is OptionsOccupiedCal {\r\n    /**\r\n     * @dev retrieve all information for net worth calculation. \r\n     * @param whiteList collateral address whitelist.\r\n     */ \r\n    function getNetWrothCalInfo(address[] memory whiteList)public view returns(uint256,int256[] memory){\r\n        uint256 len = whiteList.length;\r\n        int256[] memory latestNetWorth = new int256[](len);\r\n            for (uint256 i = 0;i<len;i++){\r\n            latestNetWorth[i] = optionsLatestNetWorth[whiteList[i]];\r\n        }\r\n        return ( netWorthirstOption,latestNetWorth);\r\n    }\r\n    /**\r\n     * @dev retrieve latest options net worth which paid in settlement coin. \r\n     * @param settlement settlement coin address.\r\n     */ \r\n    function getNetWrothLatestWorth(address settlement)public view returns(int256){\r\n        return optionsLatestNetWorth[settlement];\r\n    }\r\n    /**\r\n     * @dev set latest options net worth balance, only manager contract can modify database.\r\n     * @param newFirstOption new first valid option position.\r\n     * @param latestNetWorth latest options net worth.\r\n     * @param whiteList eligible collateral address white list.\r\n     */ \r\n    function setSharedState(uint256 newFirstOption,int256[] memory latestNetWorth,address[] memory whiteList) public onlyOperatorIndex(0){\r\n        require(newFirstOption <= allOptions.length, \"newFirstOption calculate Error\");\r\n        if (newFirstOption >  netWorthirstOption){\r\n             netWorthirstOption = newFirstOption;\r\n        }\r\n        uint256 len = whiteList.length;\r\n        for (uint256 i = 0;i<len;i++){\r\n            require(latestNetWorth[i]>=-1e40 && latestNetWorth[i]<=1e40,\"latestNetWorth calculate error\");\r\n            optionsLatestNetWorth[whiteList[i]] += latestNetWorth[i];\r\n        }\r\n    }\r\n    /**\r\n     * @dev calculate options time shared value,from begin to end in the alloptionsList.\r\n     * @param lastOption the last option position.\r\n     * @param begin the begin options position.\r\n     * @param end the end options position.\r\n     * @param whiteList eligible collateral address white list.\r\n     */\r\n    function calRangeSharedPayment(uint256 lastOption,uint256 begin,uint256 end,address[] memory whiteList)\r\n            public view returns(int256[] memory,uint256[] memory,uint256){\r\n        if (begin>=lastOption || end <  netWorthirstOption){\r\n            return(new int256[](whiteList.length),new uint256[](whiteList.length),0);\r\n        }\r\n        if (end>lastOption) {\r\n            end = lastOption;\r\n        }\r\n        (uint256[] memory sharedBalances,uint256 _firstOption) = _calculateSharedPayment(begin,end,whiteList);\r\n        if (begin < _firstOption){\r\n            int256[] memory newNetworth = calculateExpiredPayment(begin,_firstOption,whiteList);\r\n            return (newNetworth,sharedBalances,_firstOption);\r\n        }\r\n        \r\n        return (new int256[](whiteList.length),sharedBalances,_firstOption);\r\n    }\r\n    /**\r\n     * @dev subfunction, calculate options time shared value,from begin to end in the alloptionsList.\r\n     * @param begin the begin options position.\r\n     * @param end the end options position.\r\n     * @param whiteList eligible collateral address white list.\r\n     */\r\n    function _calculateSharedPayment(uint256 begin,uint256 end,address[] memory whiteList)\r\n            internal view returns(uint256[] memory,uint256){\r\n        uint256[] memory totalSharedPayment = new uint256[](whiteList.length);\r\n        uint256 newFirstOption;\r\n        (begin,newFirstOption) = getFirstOption(begin, netWorthirstOption,end); \r\n        for (;begin<end;begin++){\r\n            OptionsInfo storage info = allOptions[begin];\r\n            OptionsInfoEx storage optionEx = optionExtraMap[begin];\r\n            uint256 timeValue = _calculateCurrentPrice(optionEx.underlyingPrice,info.strikePrice,info.expiration,\r\n                optionEx.ivNumerator,info.optType);\r\n            if (timeValue<optionEx.fullPrice){\r\n                timeValue = optionEx.fullPrice - timeValue;\r\n                uint256 index = whiteListAddress._getEligibleIndexAddress(whiteList,optionEx.settlement);\r\n                timeValue = optionEx.tokenTimePrice*timeValue*info.amount/calDecimals;\r\n                require(timeValue<=1e40,\"option time shared value calculate error\");\r\n                totalSharedPayment[index] = totalSharedPayment[index]+timeValue;\r\n            }\r\n        }\r\n        return (totalSharedPayment,newFirstOption);\r\n    }\r\n    /**\r\n     * @dev subfunction, calculate expired options shared value,from begin to end in the alloptionsList.\r\n     * @param begin the begin options position.\r\n     * @param end the end options position.\r\n     * @param whiteList eligible collateral address white list.\r\n     */\r\n    function calculateExpiredPayment(uint256 begin,uint256 end,address[] memory whiteList)internal view returns(int256[] memory){\r\n        int256[] memory totalExpiredPayment = new int256[](whiteList.length);\r\n        for (;begin<end;begin++){\r\n            OptionsInfo storage info = allOptions[begin];\r\n            if (info.amount>0){\r\n                OptionsInfoEx storage optionEx = optionExtraMap[begin];\r\n                uint256 index = whiteListAddress._getEligibleIndexAddress(whiteList,optionEx.settlement);\r\n                uint256 timeValue = optionEx.fullPrice*optionEx.tokenTimePrice*info.amount/calDecimals;\r\n                require(timeValue<=1e40,\"option time shared value calculate error\");\r\n                totalExpiredPayment[index] = totalExpiredPayment[index]+int256(timeValue);\r\n            }\r\n        }\r\n        return totalExpiredPayment;\r\n    }\r\n    /**\r\n     * @dev calculate options payback fall value,from begin to end in the alloptionsList.\r\n     * @param lastOption the last option position.\r\n     * @param begin the begin options position.\r\n     * @param end the end options position.\r\n     * @param whiteList eligible collateral address white list.\r\n     */\r\n    function calculatePhaseOptionsFall(uint256 lastOption,uint256 begin,uint256 end,address[] memory whiteList) public view returns(int256[] memory){\r\n        if (begin>=lastOption || end <  netWorthirstOption){\r\n            return new int256[](whiteList.length);\r\n        }\r\n        if (end>lastOption) {\r\n            end = lastOption;\r\n        }\r\n        if (begin <=  netWorthirstOption) {\r\n            begin =  netWorthirstOption;\r\n        }\r\n        uint256[] memory prices = getUnderlyingPrices();\r\n        int256[] memory OptionsFallBalances = _calRangeOptionsFall(begin,end,whiteList,prices);\r\n        uint256 whiteListLen = whiteList.length;\r\n        for (uint256 index = 0;index<whiteListLen;index++){\r\n            OptionsFallBalances[index] = OptionsFallBalances[index]/(int256(oraclePrice(whiteList[index])));\r\n        }\r\n        return OptionsFallBalances;\r\n    }\r\n    /**\r\n     * @dev subfunction, calculate options payback fall value,from begin to lastOption in the alloptionsList.\r\n     * @param begin the begin option position.\r\n     * @param lastOption the last option position.\r\n     * @param whiteList eligible collateral address white list.\r\n     * @param prices eligible underlying price list.\r\n     */\r\n    function _calRangeOptionsFall(uint256 begin,uint256 lastOption,address[] memory whiteList,uint256[] memory prices)\r\n                 internal view returns(int256[] memory){\r\n        int256[] memory OptionsFallBalances = new int256[](whiteList.length);\r\n        for (;begin<lastOption;begin++){\r\n            OptionsInfo storage info = allOptions[begin];\r\n            if(info.expiration<now || info.amount == 0){\r\n                continue;\r\n            }\r\n            uint256 index = _getEligibleUnderlyingIndex(info.underlying);\r\n            int256 curValue = _calCurtimeCallateralFall(info,info.amount,prices[index]);\r\n            if (curValue != 0){\r\n                OptionsInfoEx storage optionEx = optionExtraMap[begin];\r\n                index = whiteListAddress._getEligibleIndexAddress(whiteList,optionEx.settlement);\r\n                OptionsFallBalances[index] = OptionsFallBalances[index]-curValue;\r\n            }\r\n        }\r\n        return OptionsFallBalances;\r\n    }\r\n    /**\r\n     * @dev subfunction, calculate option payback fall value.\r\n     * @param info the option information.\r\n     * @param amount the option amount to calculate.\r\n     * @param curPrice current underlying price.\r\n     */\r\n    function _calCurtimeCallateralFall(OptionsInfo memory info,uint256 amount,uint256 curPrice) internal view returns(int256){\r\n        if (info.expiration<=now || amount == 0){\r\n            return 0;\r\n        }\r\n        uint256 newFall = _getOptionsPayback(info.optType,info.strikePrice,curPrice)*amount;\r\n        OptionsInfoEx storage optionEx = optionExtraMap[info.optionID-1];\r\n        uint256 OriginFall = _getOptionsPayback(info.optType,info.strikePrice,optionEx.underlyingPrice)*amount;\r\n        int256 curValue = int256(newFall) - int256(OriginFall);\r\n        require(curValue>=-1e40 && curValue<=1e40,\"options fall calculate error\");\r\n        return curValue;\r\n    }\r\n    /*\r\n    function _addNewOptionsNetworth(OptionsInfo memory info)  internal {\r\n        OptionsInfoEx storage infoEx =  optionExtraMap[info.optionID-1];\r\n        uint256 price = oraclePrice(infoEx.settlement);\r\n        uint256 curValue = _calCurtimeCallateralFall(info,info.amount,infoEx.underlyingPrice)/price;\r\n        optionsLatestNetWorth[infoEx.settlement] = optionsLatestNetWorth[infoEx.settlement].sub(int256(curValue));\r\n    }\r\n    */\r\n    /**\r\n     * @dev set burn option net worth change.\r\n     * @param info the option information.\r\n     * @param amount the option amount to calculate.\r\n     * @param underlyingPrice underlying price when option is created.\r\n     * @param currentPrice current underlying price.\r\n     */\r\n    function _burnOptionsNetworth(OptionsInfo memory info,uint256 amount,uint256 underlyingPrice,uint256 currentPrice) internal {\r\n        int256 curValue = _calCurtimeCallateralFall(info,amount,underlyingPrice);\r\n        OptionsInfoEx storage optionEx = optionExtraMap[info.optionID-1];\r\n        uint256 timeWorth = optionEx.fullPrice>currentPrice ? optionEx.fullPrice-currentPrice : 0;\r\n        timeWorth = optionEx.tokenTimePrice*timeWorth*amount/calDecimals;\r\n        curValue = curValue / int256(oraclePrice(optionEx.settlement));\r\n        int256 value = curValue - int256(timeWorth);\r\n        optionsLatestNetWorth[optionEx.settlement] = optionsLatestNetWorth[optionEx.settlement]+value;\r\n    }\r\n    /**\r\n     * @dev An anxiliary function, calculate time shared current option price.\r\n     * @param curprice underlying price when option is created.\r\n     * @param strikePrice the option strikePrice.\r\n     * @param expiration option time expiration time left, equal option.expiration - now.\r\n     * @param ivNumerator Implied valotility numerator when option is created.\r\n     */\r\n    function _calculateCurrentPrice(uint256 curprice,uint256 strikePrice,uint256 expiration,uint256 ivNumerator,uint8 optType)internal view returns (uint256){\r\n        if (expiration > now){\r\n            return _optionsPrice.getOptionsPrice_iv(curprice,strikePrice,expiration-now,ivNumerator,\r\n                optType);\r\n        }\r\n        return 0;\r\n    }\r\n}",
  "sourcePath": "C:\\work\\solidity\\FinnexusOptions_V2\\contracts\\OptionsPool\\OptionsNetWorthCal.sol",
  "compiler": {
    "name": "solc",
    "version": "0.5.16+commit.9c3226ce.Emscripten.clang"
  },
  "schemaVersion": "3.1.0",
  "updatedAt": "2020-10-21T03:26:50.404Z",
  "devdoc": {
    "details": "A Smart-contract for net worth calculation.  ",
    "methods": {
      "addExpiration(uint256)": {
        "details": "Implementation of add an eligible expiration into the expirationList.",
        "params": {
          "expiration": "new eligible expiration."
        }
      },
      "addOperator(address)": {
        "details": "add a new operator by owner.       "
      },
      "addUnderlyingAsset(uint32)": {
        "details": "Implementation of add an eligible underlying into the underlyingAssets.",
        "params": {
          "underlying": "new eligible underlying."
        }
      },
      "buyOptionCheck(uint256,uint32)": {
        "details": "check option's underlying and expiration.",
        "params": {
          "expiration": "option's expiration",
          "underlying": "option's underlying"
        }
      },
      "calRangeSharedPayment(uint256,uint256,uint256,address[])": {
        "details": "calculate options time shared value,from begin to end in the alloptionsList.",
        "params": {
          "begin": "the begin options position.",
          "end": "the end options position.",
          "lastOption": "the last option position.",
          "whiteList": "eligible collateral address white list."
        }
      },
      "calculatePhaseOccupiedCollateral(uint256,uint256,uint256)": {
        "details": "calculate collateral occupied value.",
        "params": {
          "beginOption": "begin option's poisiton.",
          "endOption": "end option's poisiton.",
          "lastOption": "last option's position."
        }
      },
      "calculatePhaseOptionsFall(uint256,uint256,uint256,address[])": {
        "details": "calculate options payback fall value,from begin to end in the alloptionsList.",
        "params": {
          "begin": "the begin options position.",
          "end": "the end options position.",
          "lastOption": "the last option position.",
          "whiteList": "eligible collateral address white list."
        }
      },
      "checkExpiration(uint256)": {
        "details": "check option's expiration.",
        "params": {
          "expiration": "option's expiration"
        }
      },
      "getBurnedFullPay(uint256,uint256)": {
        "details": "calculate `amount` number of Option's full price when option is burned.",
        "params": {
          "amount": "option's amount",
          "optionID": "option's optionID"
        }
      },
      "getCallTotalOccupiedCollateral()": {
        "details": "get call options total collateral occupied value."
      },
      "getExerciseWorth(uint256,uint256)": {
        "details": "calculate option's exercise worth.",
        "params": {
          "amount": "option's amount",
          "optionsId": "option's id"
        }
      },
      "getExpirationList()": {
        "details": "Implementation of getting the eligible expirationList."
      },
      "getInputAmountRange()": {
        "details": "get the valid range of input amount"
      },
      "getItemTimeLimitation(uint256)": {
        "details": "Retrieve user's start time for burning. ",
        "params": {
          "item": "item key."
        }
      },
      "getManager()": {
        "details": "get manager address.       "
      },
      "getNetWrothCalInfo(address[])": {
        "details": "retrieve all information for net worth calculation. ",
        "params": {
          "whiteList": "collateral address whitelist."
        }
      },
      "getNetWrothLatestWorth(address)": {
        "details": "retrieve latest options net worth which paid in settlement coin. ",
        "params": {
          "settlement": "settlement coin address."
        }
      },
      "getOccupiedCalInfo()": {
        "details": "retrieve collateral occupied calculation information."
      },
      "getOperator()": {
        "details": "get all operators.       "
      },
      "getOptionInfoLength()": {
        "details": "retrieve all option list length. "
      },
      "getOptionInfoList(uint256,uint256)": {
        "details": "retrieve `size` number of options' information. ",
        "params": {
          "from": "all option list begin positon.",
          "size": "retrieve size."
        }
      },
      "getOptionInfoListFromID(uint256[])": {
        "details": "retrieve given `ids` options' information. ",
        "params": {
          "ids": "retrieved options' id."
        }
      },
      "getOptionsById(uint256)": {
        "details": "retrieve given `optionsId` option's information. ",
        "params": {
          "optionsId": "retrieved option's id."
        }
      },
      "getOptionsExtraById(uint256)": {
        "details": "retrieve given `optionsId` option's extra information. ",
        "params": {
          "optionsId": "retrieved option's id."
        }
      },
      "getOptionsLimitTimeById(uint256)": {
        "details": "retrieve given `optionsId` option's burned limit timestamp. ",
        "params": {
          "optionsId": "retrieved option's id."
        }
      },
      "getPutTotalOccupiedCollateral()": {
        "details": "get put options total collateral occupied value."
      },
      "getTotalOccupiedCollateral()": {
        "details": "get real total collateral occupied value."
      },
      "getUnderlyingAssets()": {
        "details": "Implementation of getting the eligible underlyingAssets."
      },
      "getUserOptionsID(address)": {
        "details": "retrieve user's options' id. ",
        "params": {
          "user": "user's account."
        }
      },
      "getUserOptionsID(address,uint256,uint256)": {
        "details": "retrieve user's `size` number of options' id. ",
        "params": {
          "from": "user's option list begin positon.",
          "size": "retrieve size.",
          "user": "user's account."
        }
      },
      "isEligibleExpiration(uint256)": {
        "details": "Implementation of testing whether the input expiration is eligible.",
        "params": {
          "expiration": "input expiration for testing."
        }
      },
      "isEligibleUnderlyingAsset(uint32)": {
        "details": "Implementation of testing whether the input underlying is eligible.",
        "params": {
          "underlying": "input underlying for testing."
        }
      },
      "isInputAmountInRange(uint256)": {
        "details": "Determine whether the input amount is within the valid range",
        "params": {
          "Amount": "Test value which is user input"
        }
      },
      "isOwner()": {
        "details": "Returns true if the caller is the current owner."
      },
      "owner()": {
        "details": "Returns the address of the current owner."
      },
      "removeExpirationList(uint256)": {
        "details": "Implementation of revoke an invalid expiration from the expirationList.",
        "params": {
          "removeExpiration": "revoked expiration."
        }
      },
      "removeOperator(address)": {
        "details": "remove operator by owner.       "
      },
      "removeUnderlyingAssets(uint32)": {
        "details": "Implementation of revoke an invalid underlying from the underlyingAssets.",
        "params": {
          "removeUnderlying": "revoked underlying."
        }
      },
      "renounceOwnership()": {
        "details": "Leaves the contract without owner. It will not be possible to call `onlyOwner` functions anymore. Can only be called by the current owner.      * NOTE: Renouncing ownership will leave the contract without an owner, thereby removing any functionality that is only available to the owner."
      },
      "setCollateralPhase(uint256,uint256,uint256,int256,int256)": {
        "details": "set collateral occupied value, only foundation operator can modify database.",
        "params": {
          "beginOption": "new first valid option's positon.",
          "latestCallOccpied": "latest call options' occupied value when operater invoke collateral occupied calculation.",
          "latestPutOccpied": "latest put options' occupied value when operater invoke collateral occupied calculation.",
          "totalCallOccupied": "new call options occupied collateral calculation result.",
          "totalPutOccupied": "new put options occupied collateral calculation result."
        }
      },
      "setInputAmountRange(uint256,uint256)": {
        "details": "set the valid range of input amount",
        "params": {
          "_maxAmount": "the maximum input amount limit",
          "_minAmount": "the minimum input amount limit"
        }
      },
      "setManager(address)": {
        "details": "set manager by owner.       "
      },
      "setOccupiedCollateral()": {
        "details": "calculate collateral occupied value, and modify database, only foundation operator can modify database."
      },
      "setOperator(uint256,address)": {
        "details": "modify indexed operator by owner.       "
      },
      "setOperators(address[])": {
        "details": "set all operators by owner.       "
      },
      "setSharedState(uint256,int256[],address[])": {
        "details": "set latest options net worth balance, only manager contract can modify database.",
        "params": {
          "latestNetWorth": "latest options net worth.",
          "newFirstOption": "new first valid option position.",
          "whiteList": "eligible collateral address white list."
        }
      },
      "setTimeLimitation(uint256)": {
        "details": "set time limitation, only owner can invoke. ",
        "params": {
          "_limitation": "new time limitation."
        }
      },
      "transferOwnership(address)": {
        "details": "Transfers ownership of the contract to a new account (`newOwner`). Can only be called by the current owner."
      }
    },
    "title": "Options net worth calculation contract for finnexus proposal v2."
  },
  "userdoc": {
    "methods": {}
  }
}