{
  "contractName": "OptionsPrice",
  "abi": [
    {
      "constant": false,
      "inputs": [
        {
          "name": "volatility",
          "type": "address"
        }
      ],
      "name": "setVolatilityAddress",
      "outputs": [],
      "payable": false,
      "stateMutability": "nonpayable",
      "type": "function"
    },
    {
      "constant": true,
      "inputs": [],
      "name": "getVolatilityAddress",
      "outputs": [
        {
          "name": "",
          "type": "address"
        }
      ],
      "payable": false,
      "stateMutability": "view",
      "type": "function"
    },
    {
      "constant": false,
      "inputs": [],
      "name": "renounceOwnership",
      "outputs": [],
      "payable": false,
      "stateMutability": "nonpayable",
      "type": "function"
    },
    {
      "constant": true,
      "inputs": [],
      "name": "owner",
      "outputs": [
        {
          "name": "",
          "type": "address"
        }
      ],
      "payable": false,
      "stateMutability": "view",
      "type": "function"
    },
    {
      "constant": true,
      "inputs": [],
      "name": "isOwner",
      "outputs": [
        {
          "name": "",
          "type": "bool"
        }
      ],
      "payable": false,
      "stateMutability": "view",
      "type": "function"
    },
    {
      "constant": false,
      "inputs": [
        {
          "name": "newOwner",
          "type": "address"
        }
      ],
      "name": "transferOwnership",
      "outputs": [],
      "payable": false,
      "stateMutability": "nonpayable",
      "type": "function"
    },
    {
      "inputs": [
        {
          "name": "ivContract",
          "type": "address"
        }
      ],
      "payable": false,
      "stateMutability": "nonpayable",
      "type": "constructor"
    },
    {
      "anonymous": false,
      "inputs": [
        {
          "indexed": true,
          "name": "previousOwner",
          "type": "address"
        },
        {
          "indexed": true,
          "name": "newOwner",
          "type": "address"
        }
      ],
      "name": "OwnershipTransferred",
      "type": "event"
    },
    {
      "constant": true,
      "inputs": [],
      "name": "getRate",
      "outputs": [
        {
          "name": "",
          "type": "int256"
        },
        {
          "name": "",
          "type": "int256"
        }
      ],
      "payable": false,
      "stateMutability": "view",
      "type": "function"
    },
    {
      "constant": false,
      "inputs": [
        {
          "name": "numerator",
          "type": "int256"
        },
        {
          "name": "denominator",
          "type": "int256"
        }
      ],
      "name": "setRate",
      "outputs": [],
      "payable": false,
      "stateMutability": "nonpayable",
      "type": "function"
    },
    {
      "constant": false,
      "inputs": [
        {
          "name": "_minPrice",
          "type": "uint256"
        },
        {
          "name": "_maxPrice",
          "type": "uint256"
        }
      ],
      "name": "setPriceRange",
      "outputs": [],
      "payable": false,
      "stateMutability": "nonpayable",
      "type": "function"
    },
    {
      "constant": true,
      "inputs": [
        {
          "name": "currentPrice",
          "type": "uint256"
        },
        {
          "name": "strikePrice",
          "type": "uint256"
        },
        {
          "name": "expiration",
          "type": "uint256"
        },
        {
          "name": "underlying",
          "type": "uint32"
        },
        {
          "name": "optType",
          "type": "uint8"
        }
      ],
      "name": "getOptionsPrice",
      "outputs": [
        {
          "name": "",
          "type": "uint256"
        }
      ],
      "payable": false,
      "stateMutability": "view",
      "type": "function"
    },
    {
      "constant": true,
      "inputs": [
        {
          "name": "currentPrice",
          "type": "uint256"
        },
        {
          "name": "strikePrice",
          "type": "uint256"
        },
        {
          "name": "expiration",
          "type": "uint256"
        },
        {
          "name": "ivNumerator",
          "type": "uint256"
        },
        {
          "name": "ivDenominator",
          "type": "uint256"
        },
        {
          "name": "optType",
          "type": "uint8"
        }
      ],
      "name": "getOptionsPrice_iv",
      "outputs": [
        {
          "name": "",
          "type": "uint256"
        }
      ],
      "payable": false,
      "stateMutability": "view",
      "type": "function"
    }
  ],
  "bytecode": "0x60c0604052600560808190526103e860a08190526002829055600381905568056bc75e2d63100000600455905534801561003857600080fd5b50604051602080611b29833981016040819052905160008054600160a060020a03191633178082559192600160a060020a0392909216917f8be0079c531659141344cd1fd0a4f28419497f9722a3daafe3b4186f6b6457e0908290a36100a6816401000000006100ac810204565b5061015d565b6100bd64010000000061014c810204565b151561012a57604080517f08c379a000000000000000000000000000000000000000000000000000000000815260206004820181905260248201527f4f776e61626c653a2063616c6c6572206973206e6f7420746865206f776e6572604482015290519081900360640190fd5b60018054600160a060020a031916600160a060020a0392909216919091179055565b600054600160a060020a0316331490565b6119bd8061016c6000396000f3006080604052600436106100ae5763ffffffff7c0100000000000000000000000000000000000000000000000000000000600035041663055ef6ab81146100b35780632967eafe146100ef578063349fd2e51461011257806342e5479d1461012d5780634b7d8e5c1461015e578063679aefce1461018b578063715018a6146101b95780638da5cb5b146101ce5780638f32d59b146101e3578063bfe402f41461020c578063f2fde38b14610227575b600080fd5b3480156100bf57600080fd5b506100dd60043560243560443560643560843560ff60a43516610248565b60408051918252519081900360200190f35b3480156100fb57600080fd5b50610110600160a060020a03600435166102d1565b005b34801561011e57600080fd5b5061011060043560243561034c565b34801561013957600080fd5b506101426103a3565b60408051600160a060020a039092168252519081900360200190f35b34801561016a57600080fd5b506100dd60043560243560443563ffffffff6064351660ff608435166103b2565b34801561019757600080fd5b506101a06104fe565b6040805192835260208301919091528051918290030190f35b3480156101c557600080fd5b50610110610508565b3480156101da57600080fd5b506101426105ab565b3480156101ef57600080fd5b506101f86105ba565b604080519115158252519081900360200190f35b34801561021857600080fd5b506101106004356024356105cb565b34801561023357600080fd5b50610110600160a060020a0360043516610622565b600061025261192b565b50604080518082019091528481526020810184905260ff8316151561029f576040805180820190915260025481526003546020820152610298908990899089908561067a565b91506102c6565b60408051808201909152600254815260035460208201526102989089908990899085610776565b509695505050505050565b6102d96105ba565b151561031d576040805160e560020a62461bcd0281526020600482018190526024820152600080516020611972833981519152604482015290519081900360640190fd5b6001805473ffffffffffffffffffffffffffffffffffffffff1916600160a060020a0392909216919091179055565b6103546105ba565b1515610398576040805160e560020a62461bcd0281526020600482018190526024820152600080516020611972833981519152604482015290519081900360640190fd5b600591909155600455565b600154600160a060020a031690565b60008060006103bf61192b565b600154604080517f185d123200000000000000000000000000000000000000000000000000000000815263ffffffff8916600482015260ff88166024820152604481018a9052606481018c9052608481018b90528151600160a060020a039093169263185d12329260a4808401939192918290030181600087803b15801561044657600080fd5b505af115801561045a573d6000803e3d6000fd5b505050506040513d604081101561047057600080fd5b508051602091820151604080518082019091528281529283018190529094509250905060ff851615156104cb5760408051808201909152600254815260035460208201526104c4908a908a908a908561067a565b93506104f2565b60408051808201909152600254815260035460208201526104c4908a908a908a9085610776565b50505095945050505050565b6002546003549091565b6105106105ba565b1515610554576040805160e560020a62461bcd0281526020600482018190526024820152600080516020611972833981519152604482015290519081900360640190fd5b60008054604051600160a060020a03909116907f8be0079c531659141344cd1fd0a4f28419497f9722a3daafe3b4186f6b6457e0908390a36000805473ffffffffffffffffffffffffffffffffffffffff19169055565b600054600160a060020a031690565b600054600160a060020a0316331490565b6105d36105ba565b1515610617576040805160e560020a62461bcd0281526020600482018190526024820152600080516020611972833981519152604482015290519081900360640190fd5b600291909155600355565b61062a6105ba565b151561066e576040805160e560020a62461bcd0281526020600482018190526024820152600080516020611972833981519152604482015290519081900360640190fd5b6106778161088d565b50565b600061068461192b565b61068c61192b565b61069461192b565b61069c61192b565b6106a98a8a8a8a8a61097b565b935093506106b684610aca565b93506106c183610aca565b92506106e28460408051908101604052808d81526020016001815250610d88565b93506107038360408051908101604052808c81526020016001815250610d88565b92506107278760408051908101604052808b81526020016301e13380815250610d88565b915061073a61073583610db1565b610e18565b91506107468383610d88565b90506107528482610e3e565b90508060200151816000015181151561076757fe5b059a9950505050505050505050565b600061078061192b565b61078861192b565b61079061192b565b61079861192b565b6107a58a8a8a8a8a61097b565b935093506107b284610aca565b93506107bd83610aca565b92506107df604080519081016040528060018152602001600181525085610e3e565b9350610801604080519081016040528060018152602001600181525084610e3e565b92506108228460408051908101604052808d81526020016001815250610d88565b93506108438360408051908101604052808c81526020016001815250610d88565b92506108678760408051908101604052808b81526020016301e13380815250610d88565b915061087561073583610db1565b91506108818383610d88565b90506107528185610e3e565b600160a060020a0381161515610913576040805160e560020a62461bcd02815260206004820152602660248201527f4f776e61626c653a206e6577206f776e657220697320746865207a65726f206160448201527f6464726573730000000000000000000000000000000000000000000000000000606482015290519081900360840190fd5b60008054604051600160a060020a03808516939216917f8be0079c531659141344cd1fd0a4f28419497f9722a3daafe3b4186f6b6457e091a36000805473ffffffffffffffffffffffffffffffffffffffff1916600160a060020a0392909216919091179055565b61098361192b565b61098b61192b565b61099361192b565b61099b61192b565b6109a361192b565b6109ab61192b565b6109b361192b565b6109bb61192b565b60408051808201909152600081526001602082015295508c8c146109fc576109e28d610e60565b94506109ed8c610e60565b93506109f98585610e3e565b95505b610a06898a610d88565b9250610a28836040805190810160405280600181526020016002815250610d88565b9250610a34838b610e9a565b9250610a588360408051908101604052808e81526020016301e13380815250610d88565b9250610a648684610e9a565b9550610a9e610a9860408051908101604052808e6402540be4000281526020016301e133806402540be40002815250610ebc565b8a610d88565b9150610aaa8683610f63565b9550610ab68683610e3e565b959d959c50949a5050505050505050505050565b610ad261192b565b600080610add61192b565b610ae5611942565b610aed61192b565b610af561192b565b610afd61192b565b610b0561192b565b610b0d61192b565b6000610b188c610f85565b99508915610b2c57610b298c610f98565b9b505b60208c01518c51811515610b3c57fe5b059850600a891315610b835789610b66576040805180820190915260018082526020820152610b7c565b6040805180820190915260008152600160208201525b9a50610d79565b60408051808201825262235883815262989680602080830191909152825160e0810184526301e7566960a082019081526305f5e10060c0830152815283518085018552631540bb45198152633b9aca008184018190528284019190915284518086018652636a2f323181528084018290528286015284518086018652636c8e292919815280840182905260608301528451808601909552634f4a607d855291840191909152608081019290925298509650610c3e8c89610d88565b9550610c60866040805190810160405280600181526020016001815250610e9a565b9550610c6b86610e18565b95506040805190810160405280680229a4c508a92ae7d1815260200168056bc75e2d631000008152509450610ca08c8d610d88565b9350610cc384604080519081016040528060001981526020016002815250610d88565b9350610cce84610db1565b9350610cda8585610d88565b935060408051908101604052806000815260200160018152509250859150600090505b6005811015610d3f57610d2983610d24898460058110610d1957fe5b602002015185610d88565b610e9a565b9250610d358287610d88565b9150600101610cfd565b610d498484610d88565b9350891515610d7557610d72604080519081016040528060018152602001600181525085610e3e565b93505b839a505b50505050505050505050919050565b610d9061192b565b610daa610d9c84610fcf565b610da584610fcf565b611068565b9392505050565b610db961192b565b6000610dc361192b565b610dcc84610f85565b91508115610de057610ddd84610f98565b93505b610de984610fcf565b80516401000000000281529350610dff84611096565b90508115610daa57610e1081610e18565b949350505050565b610e2061192b565b50604080518082019091526020808301518252825190820152919050565b610e4661192b565b610daa610e5284610fcf565b610e5b84610fcf565b61114c565b610e6861192b565b604080518082019091526401000000009092029180610e8684611188565b815264010000000060209091015292915050565b610ea261192b565b610daa610eae84610fcf565b610eb784610fcf565b61120d565b610ec461192b565b8151600013801590610edb57506000826020015112155b1515610f31576040805160e560020a62461bcd02815260206004820181905260248201527f53717274206d75737420696e707574206120706f7369746976652076616c7565604482015290519081900360640190fd5b6040805190810160405280610f498460000151611246565b8152602001610f5b8460200151611246565b905292915050565b610f6b61192b565b610daa610f7784610fcf565b610f8084610fcf565b611281565b6020810151905160009182139113141590565b610fa061192b565b815160001315610fb257815160000382525b600082602001511215610fcb5760208201805160000390525b5090565b610fd761192b565b6000806000610fe985600001516112af565b9250610ff885602001516112af565b91508282131561103c576f01000000000000000000000000000000821315611037576050825b9060020a9005905061103085826112c9565b9350611060565b61105c565b6f0100000000000000000000000000000083131561105c5760508361101e565b8493505b505050919050565b61107061192b565b506040805180820190915281518351028152602091820151928201519092029082015290565b61109e61192b565b60006110a861192b565b6110b061192b565b602085015185518115156110c057fe5b05925064386bfdba298311156111235750506040805180820182528451600290058152602080860180518284015283518085019094528251875103845251908301529061110c82611096565b915061111781611096565b90506110308282610d88565b604080519081016040528061113785611365565b81526401000000006020909101529350611060565b61115461192b565b5060408051808201909152602080840180518451858401805188519290930291909202038452519051029082015292915050565b6000806401000000008310156111e8576040805160e560020a62461bcd02815260206004820181905260248201527f6c6f67652066756e6374696f6e20696e70757420697320746f6f20736d616c6c604482015290519081900360640190fd5b6111f1836113cd565b67010000000000000066b17217f7d1cf78909102049392505050565b61121561192b565b5060408051808201909152602080840180518451858401805188510291909202018452519051029082015292915050565b80600260018201045b8181101561127b57809150600281828581151561126857fe5b040181151561127357fe5b04905061124f565b50919050565b61128961192b565b506040805180820190915260208281015184510282529151928201519092029082015290565b60008082126112be57816112c3565b816000035b92915050565b6112d161192b565b6020830151821261132c576040805160e560020a62461bcd02815260206004820152601b60248201527f6672616374696f6e206e756d626572206973206f766572666c6f770000000000604482015290519081900360640190fd5b604080519081016040528083856000015181151561134657fe5b05815260200183856020015181151561135b57fe5b0590529392505050565b600064386bfdba298211156113c4576040805160e560020a62461bcd02815260206004820152601e60248201527f6578702066756e6374696f6e20696e707574206973206f766572666c6f770000604482015290519081900360640190fd5b6112c3826114a3565b6000808064010000000084101561142e576040805160e560020a62461bcd02815260206004820152601760248201527f4c6f673220696e70757420697320746f6f20736d616c6c000000000000000000604482015290519081900360640190fd5b600091505b6402000000008410611455576002909304926401000000009190910190611433565b5060005b602060ff8216101561149c576401000000008480020493506402000000008410611494576002938490049360ff601f83900316900a91909101905b600101611459565b5092915050565b6000806000602060ff1660019060020a029150816fde1bc4d19efcac82445da75b00000000029050602060ff168483029060020a90049150816fde1bc4d19efcb00000000000000000000281019050602060ff168483029060020a90049150816f6f0de268cf7e580000000000000000000281019050602060ff168483029060020a90049150816f2504a0cd9a7f720000000000000000000281019050602060ff168483029060020a90049150816f09412833669fdc8000000000000000000281019050602060ff168483029060020a90049150816f01d9d4d714865f5000000000000000000281019050602060ff168483029060020a90049150816e4ef8ce836bba8c00000000000000000281019050602060ff168483029060020a90049150816e0b481d807d1aa680000000000000000281019050602060ff168483029060020a90049150816e016903b00fa354d0000000000000000281019050602060ff168483029060020a90049150816d281cdaac677b34000000000000000281019050602060ff168483029060020a90049150816d0402e2aad725eb800000000000000281019050602060ff168483029060020a90049150816c5d5a6c9f31fe240000000000000281019050602060ff168483029060020a90049150816c07c7890d442a830000000000000281019050602060ff168483029060020a90049150816b9931ed5403452800000000000281019050602060ff168483029060020a90049150816b0af147cf24ce1500000000000281019050602060ff168483029060020a90049150816abac08546b867d0000000000281019050602060ff168483029060020a90049150816a0bac08546b867d000000000281019050602060ff168483029060020a900491508169afc441338061b80000000281019050602060ff168483029060020a90049150816909c3cabbc0056e0000000281019050602060ff168483029060020a900491508168839168328705c800000281019050602060ff168483029060020a9004915081680694120286c04a00000281019050602060ff168483029060020a90049150816750319e98b3d2c4000281019050602060ff168483029060020a90049150816703a52a1e36b820200281019050602060ff168483029060020a900491508166289286e0fce0020281019050602060ff168483029060020a90049150816601b0c59eb534000281019050602060ff168483029060020a900491508165114f95b554000281019050602060ff168483029060020a900491508164aa7210d2000281019050602060ff168483029060020a90049150816406501396000281019050602060ff168483029060020a90049150816339b78e800281019050602060ff168483029060020a90049150816301fd80800281019050602060ff168483029060020a90049150816210fbc00281019050602060ff168483029060020a9004915081618c400281019050602060ff168483029060020a90049150816104620281019050602060ff168483029060020a9004915081602202810190506fde1bc4d19efcac82445da75b000000008181151561192257fe5b04949350505050565b604080518082019091526000808252602082015290565b610140604051908101604052806005905b61195b61192b565b815260200190600190039081611953579050509056004f776e61626c653a2063616c6c6572206973206e6f7420746865206f776e6572a165627a7a72305820b29b75b87e726aa88d60f07fe5ed03c523d0aa09666e04f0759ab668188f57e60029",
  "source": "pragma solidity ^0.4.26;\r\n\r\nimport \"./modules/Ownable.sol\";\r\nimport \"./modules/Fraction.sol\";\r\nimport \"./interfaces/IVolatility.sol\";\r\ncontract OptionsPrice is ImportVolatility{\r\n    constructor (address ivContract) public{\r\n        setVolatilityAddress(ivContract);\r\n    }\r\n    uint256 constant internal Year = 365 days;\r\n    Fraction.fractionNumber internal rate = Fraction.fractionNumber(5,1000);\r\n    uint256 private maxPrice = 1e20;\r\n    uint256 private minPrice = 1e3;\r\n    //B_S formulas r\r\n    function getRate()public view returns(int256,int256){\r\n        return (rate.numerator,rate.denominator);\r\n    }\r\n    function setRate(int256 numerator,int256 denominator)public onlyOwner{\r\n        rate.numerator = numerator;\r\n        rate.denominator = denominator;\r\n    }\r\n    function setPriceRange(uint256 _minPrice,uint256 _maxPrice) public onlyOwner{\r\n        minPrice = _minPrice;\r\n        maxPrice = _maxPrice;\r\n    }\r\n    function getOptionsPrice(uint256 currentPrice, uint256 strikePrice, uint256 expiration,uint32 underlying,uint8 optType)public view returns (uint256){\r\n        (uint256 ivNumerator,uint256 ivDenominator) = _volatility.calculateIv(underlying,optType,expiration,currentPrice,strikePrice);\r\n        Fraction.fractionNumber memory _iv = Fraction.fractionNumber(int256(ivNumerator),int256(ivDenominator));\r\n        if (optType == 0) {\r\n            return callOptionsPrice(currentPrice,strikePrice,expiration,rate,_iv);\r\n        }else{\r\n            return putOptionsPrice(currentPrice,strikePrice,expiration,rate,_iv);\r\n        }\r\n    }\r\n    function getOptionsPrice_iv(uint256 currentPrice, uint256 strikePrice, uint256 expiration,\r\n            uint256 ivNumerator,uint256 ivDenominator,uint8 optType)public view returns (uint256){\r\n        Fraction.fractionNumber memory _iv = Fraction.fractionNumber(int256(ivNumerator),int256(ivDenominator));\r\n        if (optType == 0) {\r\n            return callOptionsPrice(currentPrice,strikePrice,expiration,rate,_iv);\r\n        }else{\r\n            return putOptionsPrice(currentPrice,strikePrice,expiration,rate,_iv);\r\n        }\r\n    }\r\n    function calculateD1D2(uint256 currentPrice, uint256 strikePrice, uint256 expiration,\r\n         Fraction.fractionNumber memory r, Fraction.fractionNumber memory derta) \r\n            internal pure returns (Fraction.fractionNumber, Fraction.fractionNumber) {\r\n        Fraction.fractionNumber memory d1 = Fraction.fractionNumber(0,1);\r\n        if (currentPrice != strikePrice){\r\n            Fraction.fractionNumber memory lns = Fraction.fractionLn(currentPrice);\r\n            Fraction.fractionNumber memory lnl = Fraction.fractionLn(strikePrice);\r\n            d1 = Fraction.safeFractionSub(lns, lnl);\r\n        }\r\n        Fraction.fractionNumber memory derta2 = Fraction.safeFractionMul(derta, derta);\r\n        derta2 = Fraction.safeFractionMul(derta2, Fraction.fractionNumber(1,2));\r\n        derta2 = Fraction.safeFractionAdd(derta2, r);\r\n        derta2 = Fraction.safeFractionMul(derta2, Fraction.fractionNumber(int256(expiration),int256(Year)));\r\n        d1 = Fraction.safeFractionAdd(d1, derta2);\r\n        Fraction.fractionNumber memory dertaT = Fraction.safeFractionMul(Fraction.fractionSqrt(Fraction.fractionNumber(int256(expiration*1e10),int256(Year*1e10))), derta);\r\n        d1 = Fraction.safeFractionDiv(d1, dertaT);\r\n        Fraction.fractionNumber memory d2 = Fraction.safeFractionSub(d1, dertaT);\r\n        return (d1, d2);\r\n    }\r\n\r\n    //L*pow(e,-rT)*(1-N(d2)) - S*(1-N(d1))\r\n    function putOptionsPrice(uint256 currentPrice, uint256 strikePrice, uint256 expiration,\r\n            Fraction.fractionNumber memory r, Fraction.fractionNumber memory derta) \r\n                internal view returns (uint256) {\r\n       (Fraction.fractionNumber memory d1, Fraction.fractionNumber memory d2) = calculateD1D2(currentPrice, strikePrice, expiration, r, derta);\r\n        d1 = Fraction.normsDist(d1);\r\n        d2 = Fraction.normsDist(d2);\r\n        d1 = Fraction.safeFractionSub(Fraction.fractionNumber(1,1), d1);\r\n        d2 = Fraction.safeFractionSub(Fraction.fractionNumber(1,1), d2);\r\n        d1 = Fraction.safeFractionMul(d1, Fraction.fractionNumber(int256(currentPrice),1));\r\n        d2 = Fraction.safeFractionMul(d2, Fraction.fractionNumber(int256(strikePrice),1));\r\n        Fraction.fractionNumber memory rt = Fraction.safeFractionMul(r,Fraction.fractionNumber(int256(expiration),int256(Year)));\r\n        rt = Fraction.invert(Fraction.fractionExp(rt));\r\n        Fraction.fractionNumber memory price = Fraction.safeFractionMul(d2, rt);\r\n        price = Fraction.safeFractionSub(price, d1);\r\n        return uint256(price.numerator/price.denominator);\r\n    }\r\n\r\n    /*\r\n        r := FloatNum{\r\n            big.NewInt(5),\r\n            big.NewInt(1000)}\r\n    */\r\n    //S*N(d1)-L*pow(e,-rT)*N(d2)\r\n    function callOptionsPrice(uint256 currentPrice, uint256 strikePrice, uint256 expiration,\r\n            Fraction.fractionNumber memory r, Fraction.fractionNumber memory derta) \r\n                internal view returns (uint256) {\r\n       (Fraction.fractionNumber memory d1, Fraction.fractionNumber memory d2) = calculateD1D2(currentPrice, strikePrice, expiration, r, derta);\r\n        d1 = Fraction.normsDist(d1);\r\n        d2 = Fraction.normsDist(d2);\r\n        d1 = Fraction.safeFractionMul(d1, Fraction.fractionNumber(int256(currentPrice),1));\r\n        d2 = Fraction.safeFractionMul(d2, Fraction.fractionNumber(int256(strikePrice),1));\r\n        Fraction.fractionNumber memory rt = Fraction.safeFractionMul(r,Fraction.fractionNumber(int256(expiration),int256(Year)));\r\n        rt = Fraction.invert(Fraction.fractionExp(rt));\r\n        Fraction.fractionNumber memory price = Fraction.safeFractionMul(d2, rt);\r\n        price = Fraction.safeFractionSub(d1, price);\r\n        return uint256(price.numerator/price.denominator);\r\n    }\r\n}",
  "sourcePath": "C:\\work\\solidity\\FinnexusOptions_V2\\contracts\\optionsPrice.sol",
  "compiler": {
    "name": "solc",
    "version": "0.4.26+commit.4563c3fc.Emscripten.clang"
  },
  "schemaVersion": "3.1.0",
  "updatedAt": "2020-08-05T06:53:16.333Z",
  "devdoc": {
    "methods": {
      "isOwner()": {
        "details": "Returns true if the caller is the current owner."
      },
      "owner()": {
        "details": "Returns the address of the current owner."
      },
      "renounceOwnership()": {
        "details": "Leaves the contract without owner. It will not be possible to call `onlyOwner` functions anymore. Can only be called by the current owner.     * NOTE: Renouncing ownership will leave the contract without an owner, thereby removing any functionality that is only available to the owner."
      },
      "transferOwnership(address)": {
        "details": "Transfers ownership of the contract to a new account (`newOwner`). Can only be called by the current owner."
      }
    }
  },
  "userdoc": {
    "methods": {}
  }
}