{
  "contractName": "OptionsNetWorthCal",
  "abi": [
    {
      "constant": true,
      "inputs": [
        {
          "name": "from",
          "type": "uint256"
        },
        {
          "name": "size",
          "type": "uint256"
        }
      ],
      "name": "getOptionInfoList",
      "outputs": [
        {
          "name": "",
          "type": "address[]"
        },
        {
          "name": "",
          "type": "uint256[]"
        },
        {
          "name": "",
          "type": "uint256[]"
        },
        {
          "name": "",
          "type": "uint256[]"
        },
        {
          "name": "",
          "type": "uint256[]"
        }
      ],
      "payable": false,
      "stateMutability": "view",
      "type": "function"
    },
    {
      "constant": true,
      "inputs": [],
      "name": "getOccupiedCalInfo",
      "outputs": [
        {
          "name": "",
          "type": "uint256"
        },
        {
          "name": "",
          "type": "int256"
        }
      ],
      "payable": false,
      "stateMutability": "view",
      "type": "function"
    },
    {
      "constant": true,
      "inputs": [
        {
          "name": "lastOption",
          "type": "uint256"
        },
        {
          "name": "beginOption",
          "type": "uint256"
        },
        {
          "name": "endOption",
          "type": "uint256"
        }
      ],
      "name": "calculatePhaseOccupiedCollateral",
      "outputs": [
        {
          "name": "",
          "type": "uint256"
        },
        {
          "name": "",
          "type": "uint256"
        },
        {
          "name": "",
          "type": "bool"
        }
      ],
      "payable": false,
      "stateMutability": "view",
      "type": "function"
    },
    {
      "constant": false,
      "inputs": [
        {
          "name": "totalOccupied",
          "type": "uint256"
        },
        {
          "name": "beginOption",
          "type": "uint256"
        },
        {
          "name": "latestOccpied",
          "type": "int256"
        }
      ],
      "name": "setCollateralPhase",
      "outputs": [],
      "payable": false,
      "stateMutability": "nonpayable",
      "type": "function"
    },
    {
      "constant": false,
      "inputs": [
        {
          "name": "volatility",
          "type": "address"
        }
      ],
      "name": "setVolatilityAddress",
      "outputs": [],
      "payable": false,
      "stateMutability": "nonpayable",
      "type": "function"
    },
    {
      "constant": true,
      "inputs": [
        {
          "name": "ids",
          "type": "uint256[]"
        }
      ],
      "name": "getOptionInfoListFromID",
      "outputs": [
        {
          "name": "",
          "type": "address[]"
        },
        {
          "name": "",
          "type": "uint256[]"
        },
        {
          "name": "",
          "type": "uint256[]"
        },
        {
          "name": "",
          "type": "uint256[]"
        },
        {
          "name": "",
          "type": "uint256[]"
        }
      ],
      "payable": false,
      "stateMutability": "view",
      "type": "function"
    },
    {
      "constant": true,
      "inputs": [],
      "name": "getUnderlyingAssets",
      "outputs": [
        {
          "name": "",
          "type": "uint32[]"
        }
      ],
      "payable": false,
      "stateMutability": "view",
      "type": "function"
    },
    {
      "constant": true,
      "inputs": [
        {
          "name": "expiration",
          "type": "uint256"
        },
        {
          "name": "underlying",
          "type": "uint32"
        }
      ],
      "name": "buyOptionCheck",
      "outputs": [],
      "payable": false,
      "stateMutability": "view",
      "type": "function"
    },
    {
      "constant": true,
      "inputs": [],
      "name": "getVolatilityAddress",
      "outputs": [
        {
          "name": "",
          "type": "address"
        }
      ],
      "payable": false,
      "stateMutability": "view",
      "type": "function"
    },
    {
      "constant": true,
      "inputs": [],
      "name": "getLatestOption",
      "outputs": [
        {
          "name": "",
          "type": "uint256"
        },
        {
          "name": "",
          "type": "address"
        },
        {
          "name": "",
          "type": "uint8"
        },
        {
          "name": "",
          "type": "uint32"
        },
        {
          "name": "",
          "type": "uint256"
        },
        {
          "name": "",
          "type": "uint256"
        },
        {
          "name": "",
          "type": "uint256"
        }
      ],
      "payable": false,
      "stateMutability": "view",
      "type": "function"
    },
    {
      "constant": true,
      "inputs": [
        {
          "name": "optionsId",
          "type": "uint256"
        }
      ],
      "name": "getOptionsById",
      "outputs": [
        {
          "name": "",
          "type": "uint256"
        },
        {
          "name": "",
          "type": "address"
        },
        {
          "name": "",
          "type": "uint8"
        },
        {
          "name": "",
          "type": "uint32"
        },
        {
          "name": "",
          "type": "uint256"
        },
        {
          "name": "",
          "type": "uint256"
        },
        {
          "name": "",
          "type": "uint256"
        }
      ],
      "payable": false,
      "stateMutability": "view",
      "type": "function"
    },
    {
      "constant": false,
      "inputs": [
        {
          "name": "oracle",
          "type": "address"
        }
      ],
      "name": "setOracleAddress",
      "outputs": [],
      "payable": false,
      "stateMutability": "nonpayable",
      "type": "function"
    },
    {
      "constant": true,
      "inputs": [
        {
          "name": "optionID",
          "type": "uint256"
        },
        {
          "name": "amount",
          "type": "uint256"
        }
      ],
      "name": "getBurnedFullPay",
      "outputs": [
        {
          "name": "",
          "type": "address"
        },
        {
          "name": "",
          "type": "uint256"
        }
      ],
      "payable": false,
      "stateMutability": "view",
      "type": "function"
    },
    {
      "constant": true,
      "inputs": [],
      "name": "getOptionsPriceAddress",
      "outputs": [
        {
          "name": "",
          "type": "address"
        }
      ],
      "payable": false,
      "stateMutability": "view",
      "type": "function"
    },
    {
      "constant": true,
      "inputs": [],
      "name": "getBurnTimeLimit",
      "outputs": [
        {
          "name": "",
          "type": "uint256"
        }
      ],
      "payable": false,
      "stateMutability": "view",
      "type": "function"
    },
    {
      "constant": true,
      "inputs": [
        {
          "name": "optionsId",
          "type": "uint256"
        },
        {
          "name": "amount",
          "type": "uint256"
        }
      ],
      "name": "getExerciseWorth",
      "outputs": [
        {
          "name": "",
          "type": "uint256"
        }
      ],
      "payable": false,
      "stateMutability": "view",
      "type": "function"
    },
    {
      "constant": true,
      "inputs": [
        {
          "name": "optionsId",
          "type": "uint256"
        }
      ],
      "name": "getOptionsLimitTimeById",
      "outputs": [
        {
          "name": "",
          "type": "uint256"
        }
      ],
      "payable": false,
      "stateMutability": "view",
      "type": "function"
    },
    {
      "constant": false,
      "inputs": [],
      "name": "renounceOwnership",
      "outputs": [],
      "payable": false,
      "stateMutability": "nonpayable",
      "type": "function"
    },
    {
      "constant": true,
      "inputs": [
        {
          "name": "expiration",
          "type": "uint256"
        }
      ],
      "name": "checkExpiration",
      "outputs": [],
      "payable": false,
      "stateMutability": "view",
      "type": "function"
    },
    {
      "constant": true,
      "inputs": [],
      "name": "getTotalOccupiedCollateral",
      "outputs": [
        {
          "name": "",
          "type": "uint256"
        }
      ],
      "payable": false,
      "stateMutability": "view",
      "type": "function"
    },
    {
      "constant": false,
      "inputs": [
        {
          "name": "expiration",
          "type": "uint256"
        }
      ],
      "name": "addExpiration",
      "outputs": [],
      "payable": false,
      "stateMutability": "nonpayable",
      "type": "function"
    },
    {
      "constant": false,
      "inputs": [
        {
          "name": "removeExpiration",
          "type": "uint256"
        }
      ],
      "name": "removeExpirationList",
      "outputs": [
        {
          "name": "",
          "type": "bool"
        }
      ],
      "payable": false,
      "stateMutability": "nonpayable",
      "type": "function"
    },
    {
      "constant": true,
      "inputs": [],
      "name": "owner",
      "outputs": [
        {
          "name": "",
          "type": "address"
        }
      ],
      "payable": false,
      "stateMutability": "view",
      "type": "function"
    },
    {
      "constant": true,
      "inputs": [],
      "name": "isOwner",
      "outputs": [
        {
          "name": "",
          "type": "bool"
        }
      ],
      "payable": false,
      "stateMutability": "view",
      "type": "function"
    },
    {
      "constant": true,
      "inputs": [],
      "name": "getExpirationList",
      "outputs": [
        {
          "name": "",
          "type": "uint256[]"
        }
      ],
      "payable": false,
      "stateMutability": "view",
      "type": "function"
    },
    {
      "constant": false,
      "inputs": [
        {
          "name": "addAddress",
          "type": "address"
        }
      ],
      "name": "addOperator",
      "outputs": [],
      "payable": false,
      "stateMutability": "nonpayable",
      "type": "function"
    },
    {
      "constant": true,
      "inputs": [
        {
          "name": "expiration",
          "type": "uint256"
        }
      ],
      "name": "isEligibleExpiration",
      "outputs": [
        {
          "name": "",
          "type": "bool"
        }
      ],
      "payable": false,
      "stateMutability": "view",
      "type": "function"
    },
    {
      "constant": false,
      "inputs": [
        {
          "name": "optionsPrice",
          "type": "address"
        }
      ],
      "name": "setOptionsPriceAddress",
      "outputs": [],
      "payable": false,
      "stateMutability": "nonpayable",
      "type": "function"
    },
    {
      "constant": false,
      "inputs": [
        {
          "name": "removeAddress",
          "type": "address"
        }
      ],
      "name": "removeOperator",
      "outputs": [
        {
          "name": "",
          "type": "bool"
        }
      ],
      "payable": false,
      "stateMutability": "nonpayable",
      "type": "function"
    },
    {
      "constant": false,
      "inputs": [
        {
          "name": "underlying",
          "type": "uint32"
        }
      ],
      "name": "addUnderlyingAsset",
      "outputs": [],
      "payable": false,
      "stateMutability": "nonpayable",
      "type": "function"
    },
    {
      "constant": true,
      "inputs": [],
      "name": "getOracleAddress",
      "outputs": [
        {
          "name": "",
          "type": "address"
        }
      ],
      "payable": false,
      "stateMutability": "view",
      "type": "function"
    },
    {
      "constant": true,
      "inputs": [],
      "name": "getOptionInfoLength",
      "outputs": [
        {
          "name": "",
          "type": "uint256"
        }
      ],
      "payable": false,
      "stateMutability": "view",
      "type": "function"
    },
    {
      "constant": false,
      "inputs": [
        {
          "name": "timeLimit",
          "type": "uint256"
        }
      ],
      "name": "setBurnTimeLimit",
      "outputs": [],
      "payable": false,
      "stateMutability": "nonpayable",
      "type": "function"
    },
    {
      "constant": false,
      "inputs": [
        {
          "name": "managerAddress",
          "type": "address"
        }
      ],
      "name": "setManager",
      "outputs": [],
      "payable": false,
      "stateMutability": "nonpayable",
      "type": "function"
    },
    {
      "constant": true,
      "inputs": [],
      "name": "getManager",
      "outputs": [
        {
          "name": "",
          "type": "address"
        }
      ],
      "payable": false,
      "stateMutability": "view",
      "type": "function"
    },
    {
      "constant": false,
      "inputs": [
        {
          "name": "removeUnderlying",
          "type": "uint32"
        }
      ],
      "name": "removeUnderlyingAssets",
      "outputs": [
        {
          "name": "",
          "type": "bool"
        }
      ],
      "payable": false,
      "stateMutability": "nonpayable",
      "type": "function"
    },
    {
      "constant": true,
      "inputs": [
        {
          "name": "underlying",
          "type": "uint32"
        }
      ],
      "name": "isEligibleUnderlyingAsset",
      "outputs": [
        {
          "name": "",
          "type": "bool"
        }
      ],
      "payable": false,
      "stateMutability": "view",
      "type": "function"
    },
    {
      "constant": false,
      "inputs": [
        {
          "name": "index",
          "type": "uint256"
        },
        {
          "name": "addAddress",
          "type": "address"
        }
      ],
      "name": "setOperator",
      "outputs": [],
      "payable": false,
      "stateMutability": "nonpayable",
      "type": "function"
    },
    {
      "constant": true,
      "inputs": [
        {
          "name": "user",
          "type": "address"
        }
      ],
      "name": "getUserOptionsID",
      "outputs": [
        {
          "name": "",
          "type": "uint256[]"
        }
      ],
      "payable": false,
      "stateMutability": "view",
      "type": "function"
    },
    {
      "constant": true,
      "inputs": [],
      "name": "getOperator",
      "outputs": [
        {
          "name": "",
          "type": "address[]"
        }
      ],
      "payable": false,
      "stateMutability": "view",
      "type": "function"
    },
    {
      "constant": true,
      "inputs": [
        {
          "name": "underlying",
          "type": "uint32"
        }
      ],
      "name": "checkUnderlyingAsset",
      "outputs": [],
      "payable": false,
      "stateMutability": "view",
      "type": "function"
    },
    {
      "constant": false,
      "inputs": [
        {
          "name": "newOwner",
          "type": "address"
        }
      ],
      "name": "transferOwnership",
      "outputs": [],
      "payable": false,
      "stateMutability": "nonpayable",
      "type": "function"
    },
    {
      "constant": false,
      "inputs": [],
      "name": "setOccupiedCollateral",
      "outputs": [],
      "payable": false,
      "stateMutability": "nonpayable",
      "type": "function"
    },
    {
      "constant": true,
      "inputs": [
        {
          "name": "user",
          "type": "address"
        },
        {
          "name": "from",
          "type": "uint256"
        },
        {
          "name": "size",
          "type": "uint256"
        }
      ],
      "name": "getUserOptionsID",
      "outputs": [
        {
          "name": "",
          "type": "uint256[]"
        }
      ],
      "payable": false,
      "stateMutability": "view",
      "type": "function"
    },
    {
      "anonymous": false,
      "inputs": [
        {
          "indexed": true,
          "name": "owner",
          "type": "address"
        },
        {
          "indexed": true,
          "name": "optionID",
          "type": "uint256"
        },
        {
          "indexed": false,
          "name": "optType",
          "type": "uint8"
        },
        {
          "indexed": false,
          "name": "underlying",
          "type": "uint32"
        },
        {
          "indexed": false,
          "name": "expiration",
          "type": "uint256"
        },
        {
          "indexed": false,
          "name": "strikePrice",
          "type": "uint256"
        },
        {
          "indexed": false,
          "name": "amount",
          "type": "uint256"
        }
      ],
      "name": "CreateOption",
      "type": "event"
    },
    {
      "anonymous": false,
      "inputs": [
        {
          "indexed": true,
          "name": "owner",
          "type": "address"
        },
        {
          "indexed": true,
          "name": "optionID",
          "type": "uint256"
        },
        {
          "indexed": false,
          "name": "amount",
          "type": "uint256"
        }
      ],
      "name": "BurnOption",
      "type": "event"
    },
    {
      "anonymous": false,
      "inputs": [
        {
          "indexed": false,
          "name": "value1",
          "type": "uint256"
        },
        {
          "indexed": false,
          "name": "value2",
          "type": "uint256"
        },
        {
          "indexed": false,
          "name": "value3",
          "type": "uint256"
        }
      ],
      "name": "DebugEvent",
      "type": "event"
    },
    {
      "anonymous": false,
      "inputs": [
        {
          "indexed": true,
          "name": "previousOwner",
          "type": "address"
        },
        {
          "indexed": true,
          "name": "newOwner",
          "type": "address"
        }
      ],
      "name": "OwnershipTransferred",
      "type": "event"
    },
    {
      "constant": true,
      "inputs": [
        {
          "name": "whiteList",
          "type": "address[]"
        }
      ],
      "name": "getNetWrothCalInfo",
      "outputs": [
        {
          "name": "",
          "type": "uint256"
        },
        {
          "name": "",
          "type": "int256[]"
        }
      ],
      "payable": false,
      "stateMutability": "view",
      "type": "function"
    },
    {
      "constant": true,
      "inputs": [
        {
          "name": "settlement",
          "type": "address"
        }
      ],
      "name": "getNetWrothLatestWorth",
      "outputs": [
        {
          "name": "",
          "type": "int256"
        }
      ],
      "payable": false,
      "stateMutability": "view",
      "type": "function"
    },
    {
      "constant": false,
      "inputs": [
        {
          "name": "newFirstOption",
          "type": "uint256"
        },
        {
          "name": "latestNetWorth",
          "type": "int256[]"
        },
        {
          "name": "whiteList",
          "type": "address[]"
        }
      ],
      "name": "setSharedState",
      "outputs": [],
      "payable": false,
      "stateMutability": "nonpayable",
      "type": "function"
    },
    {
      "constant": true,
      "inputs": [
        {
          "name": "lastOption",
          "type": "uint256"
        },
        {
          "name": "begin",
          "type": "uint256"
        },
        {
          "name": "end",
          "type": "uint256"
        },
        {
          "name": "whiteList",
          "type": "address[]"
        }
      ],
      "name": "calRangeSharedPayment",
      "outputs": [
        {
          "name": "",
          "type": "uint256[]"
        },
        {
          "name": "",
          "type": "uint256"
        },
        {
          "name": "",
          "type": "bool"
        }
      ],
      "payable": false,
      "stateMutability": "view",
      "type": "function"
    },
    {
      "constant": true,
      "inputs": [
        {
          "name": "begin",
          "type": "uint256"
        },
        {
          "name": "end",
          "type": "uint256"
        },
        {
          "name": "whiteList",
          "type": "address[]"
        }
      ],
      "name": "calculateExpiredPayment",
      "outputs": [
        {
          "name": "",
          "type": "int256[]"
        }
      ],
      "payable": false,
      "stateMutability": "view",
      "type": "function"
    },
    {
      "constant": true,
      "inputs": [
        {
          "name": "lastOption",
          "type": "uint256"
        },
        {
          "name": "begin",
          "type": "uint256"
        },
        {
          "name": "end",
          "type": "uint256"
        },
        {
          "name": "whiteList",
          "type": "address[]"
        }
      ],
      "name": "calculatePhaseOptionsFall",
      "outputs": [
        {
          "name": "",
          "type": "int256[]"
        }
      ],
      "payable": false,
      "stateMutability": "view",
      "type": "function"
    }
  ],
  "bytecode": "0x60806040819052610e1060095560008054600160a060020a0319163317808255600160a060020a0316917f8be0079c531659141344cd1fd0a4f28419497f9722a3daafe3b4186f6b6457e0908290a36040805160e0810182526201518081526203f480602082015262093a8091810191909152620d2f0060608201526213c680608082015262278d0060a08201526276a70060c0820152620000a6906008906007620000d2565b50604080518082019091526001808252600260208301819052620000cb929062000129565b506200021c565b82805482825590600052602060002090810192821562000117579160200282015b8281111562000117578251829062ffffff16905591602001919060010190620000f3565b5062000125929150620001d8565b5090565b82805482825590600052602060002090600701600890048101928215620001ca5791602002820160005b838211156200019657835183826101000a81548163ffffffff021916908360ff160217905550926020019260040160208160030104928301926001030262000153565b8015620001c85782816101000a81549063ffffffff021916905560040160208160030104928301926001030262000196565b505b5062000125929150620001f8565b620001f591905b80821115620001255760008155600101620001df565b90565b620001f591905b808211156200012557805463ffffffff19168155600101620001ff565b613a9d806200022c6000396000f3006080604052600436106102425763ffffffff60e060020a6000350416630438d490811461024757806309057622146103ca5780630c372571146103f857806312039cc2146104365780632415e010146104565780632967eafe146104e957806332ab5c201461050a578063354af360146105d45780633582d789146106295780633ad2fb571461068e57806342e5479d146106af57806343674c3a146106e057806345e19fdd1461074457806348ee201d146107a05780634c69c00f146107b8578063597ce900146107d95780635ca4b73b1461081757806364ed30171461082c57806367b8ceb9146108535780636a43c05e1461086e5780636d84e2e31461091e578063715018a614610936578063723931ca1461094b57806373a3d424146109635780637cfff2d8146109785780637e1bcb76146109905780637e838fa3146109b15780638da5cb5b146109dd5780638f32d59b146109f25780639052d5f814610a075780639870d7fe14610a1c5780639ef975d214610a3d578063a093e2d014610a55578063ac8a584a14610a76578063afec82fc14610a97578063b18b78dd14610ab5578063bec3107f14610aca578063c0c5fea714610adf578063c5acbe1514610b3d578063d0ebdbe714610b55578063d500958414610b76578063d6d1401214610b8b578063db6ad2bd14610ba9578063e7a1c1c014610bc7578063e7c5681514610beb578063e7f43c6814610c0c578063ee29c94a14610c21578063f2fde38b14610c3f578063f504e2f014610c60578063f7de192314610c75575b600080fd5b34801561025357600080fd5b50610262600435602435610c9c565b60405180806020018060200180602001806020018060200186810386528b818151815260200191508051906020019060200280838360005b838110156102b257818101518382015260200161029a565b5050505090500186810385528a818151815260200191508051906020019060200280838360005b838110156102f15781810151838201526020016102d9565b50505050905001868103845289818151815260200191508051906020019060200280838360005b83811015610330578181015183820152602001610318565b50505050905001868103835288818151815260200191508051906020019060200280838360005b8381101561036f578181015183820152602001610357565b50505050905001868103825287818151815260200191508051906020019060200280838360005b838110156103ae578181015183820152602001610396565b505050509050019a505050505050505050505060405180910390f35b3480156103d657600080fd5b506103df610ee6565b6040805192835260208301919091528051918290030190f35b34801561040457600080fd5b50610416600435602435604435610ef0565b604080519384526020840192909252151582820152519081900360600190f35b34801561044257600080fd5b50610454600435602435604435610f6b565b005b34801561046257600080fd5b5060408051602060046024803582810135848102808701860190975280865261045496843596369660449591949091019291829185019084908082843750506040805187358901803560208181028481018201909552818452989b9a9989019892975090820195509350839250850190849080828437509497506110429650505050505050565b3480156104f557600080fd5b50610454600160a060020a0360043516611150565b34801561051657600080fd5b50604080516064356004818101356020818102858101820190965281855261056e9583359560248035966044359636969095608495929093019290918291850190849080828437509497506111be9650505050505050565b604051808060200184815260200183151515158152602001828103825285818151815260200191508051906020019060200280838360005b838110156105be5781810151838201526020016105a6565b5050505090500194505050505060405180910390f35b3480156105e057600080fd5b5060408051602060048035808201358381028086018501909652808552610262953695939460249493850192918291850190849080828437509497506112489650505050505050565b34801561063557600080fd5b5061063e611461565b60408051602080825283518183015283519192839290830191858101910280838360005b8381101561067a578181015183820152602001610662565b505050509050019250505060405180910390f35b34801561069a57600080fd5b5061045460043563ffffffff602435166114e6565b3480156106bb57600080fd5b506106c4611552565b60408051600160a060020a039092168252519081900360200190f35b3480156106ec57600080fd5b50604080516064356004818101356020818102858101820190965281855261063e9583359560248035966044359636969095608495929093019290918291850190849080828437509497506115619650505050505050565b34801561075057600080fd5b506107596116eb565b60408051978852600160a060020a03909616602088015260ff9094168686015263ffffffff9092166060860152608085015260a084015260c0830152519081900360e00190f35b3480156107ac57600080fd5b506107596004356117d6565b3480156107c457600080fd5b50610454600160a060020a036004351661184a565b3480156107e557600080fd5b506107f46004356024356118b8565b60408051600160a060020a03909316835260208301919091528051918290030190f35b34801561082357600080fd5b506106c4611928565b34801561083857600080fd5b50610841611937565b60408051918252519081900360200190f35b34801561085f57600080fd5b5061084160043560243561193d565b34801561087a57600080fd5b50604080516020600480358082013583810280860185019096528085526108c395369593946024949385019291829185019084908082843750949750611abd9650505050505050565b6040518083815260200180602001828103825283818151815260200191508051906020019060200280838360005b838110156109095781810151838201526020016108f1565b50505050905001935050505060405180910390f35b34801561092a57600080fd5b50610841600435611b70565b34801561094257600080fd5b50610454611bf7565b34801561095757600080fd5b50610454600435611c8d565b34801561096f57600080fd5b50610841611d15565b34801561098457600080fd5b50610454600435611d67565b34801561099c57600080fd5b50610841600160a060020a0360043516611dbe565b3480156109bd57600080fd5b506109c9600435611dd9565b604080519115158252519081900360200190f35b3480156109e957600080fd5b506106c4611e38565b3480156109fe57600080fd5b506109c9611e47565b348015610a1357600080fd5b5061063e611e58565b348015610a2857600080fd5b50610454600160a060020a0360043516611eaf565b348015610a4957600080fd5b506109c9600435611f06565b348015610a6157600080fd5b50610454600160a060020a0360043516611f62565b348015610a8257600080fd5b506109c9600160a060020a0360043516611fd0565b348015610aa357600080fd5b5061045463ffffffff60043516612029565b348015610ac157600080fd5b506106c4612080565b348015610ad657600080fd5b5061084161208f565b348015610aeb57600080fd5b50604080516020600460443581810135838102808601850190965280855261063e9583359560248035963696956064959394920192918291850190849080828437509497506120959650505050505050565b348015610b4957600080fd5b50610454600435612190565b348015610b6157600080fd5b50610454600160a060020a03600435166121e1565b348015610b8257600080fd5b506106c461224f565b348015610b9757600080fd5b506109c963ffffffff6004351661225e565b348015610bb557600080fd5b506109c963ffffffff600435166122b7565b348015610bd357600080fd5b50610454600435600160a060020a036024351661233f565b348015610bf757600080fd5b5061063e600160a060020a03600435166123cd565b348015610c1857600080fd5b5061063e612439565b348015610c2d57600080fd5b5061045463ffffffff6004351661249a565b348015610c4b57600080fd5b50610454600160a060020a0360043516612520565b348015610c6c57600080fd5b50610454612575565b348015610c8157600080fd5b5061063e600160a060020a036004351660243560443561266a565b6060806060806060806060806060806000806005805490508d8f011115610cd357600554610cd0908f63ffffffff61275116565b9c505b60008d1115610ed5578c604051908082528060200260200182016040528015610d06578160200160208202803883390190505b5096508c604051908082528060200260200182016040528015610d33578160200160208202803883390190505b5095508c604051908082528060200260200182016040528015610d60578160200160208202803883390190505b5094508c604051908082528060200260200182016040528015610d8d578160200160208202803883390190505b5093508c604051908082528060200260200182016040528015610dba578160200160208202803883390190505b509250600091505b8c821015610ec557600580548f8401908110610dda57fe5b906000526020600020906005020190508060000160089054906101000a9004600160a060020a03168783815181101515610e1057fe5b600160a060020a03929092166020928302919091019091015280546001820154875160e060020a90920460ff1663ffffffff9182166201000002011690879084908110610e5957fe5b6020908102909101015260028101548551869084908110610e7657fe5b6020908102909101015260038101548451859084908110610e9357fe5b6020908102909101015260048101548351849084908110610eb057fe5b60209081029091010152600190910190610dc2565b86868686869b509b509b509b509b505b505050505050509295509295909350565b600b54600d549091565b6000806000806000600b54871015610f0857600b5496505b878710610f1e5760009450849350839250610f60565b87861115610f2e57879550610f47565b600b54861015610f475760009450849350839250610f60565b610f51878761279a565b91509150818160019450945094505b505093509350939050565b600a5460009081108015610fa25750600a805433919083908110610f8b57fe5b600091825260209091200154600160a060020a0316145b151561101e576040805160e560020a62461bcd02815260206004820152603060248201527f4d616e6167657261626c653a2063616c6c6572206973206e6f7420746865206560448201527f6c696769626c65204f70657261746f7200000000000000000000000000000000606482015290519081900360840190fd5b600b5483111561102e57600b8390555b50600c9290925550600d8054919091039055565b6002546000908190600160a060020a031633146110cf576040805160e560020a62461bcd02815260206004820152602660248201527f4d616e6167657261626c653a2063616c6c6572206973206e6f7420746865204d60448201527f616e616765720000000000000000000000000000000000000000000000000000606482015290519081900360840190fd5b600f548511156110df57600f8590555b5050805160005b818110156111495783818151811015156110fc57fe5b9060200190602002015160106000858481518110151561111857fe5b6020908102909101810151600160a060020a03168252810191909152604001600020805490910190556001016110e6565b5050505050565b611158611e47565b151561119c576040805160e560020a62461bcd0281526020600482018190526024820152600080516020613a52833981519152604482015290519081900360640190fd5b60048054600160a060020a031916600160a060020a0392909216919091179055565b60606000806060600088881015806111d75750600f5487105b15611216578551604051908082528060200260200182016040528015611207578160200160208202803883390190505b5094506000935083925061123c565b88871115611222578896505b61122d8888886128d8565b91509150818160019450945094505b50509450945094915050565b6060806060806060600060608060608060606000808d5197508760405190808252806020026020018201604052801561128b578160200160208202803883390190505b509650876040519080825280602002602001820160405280156112b8578160200160208202803883390190505b509550876040519080825280602002602001820160405280156112e5578160200160208202803883390190505b50945087604051908082528060200260200182016040528015611312578160200160208202803883390190505b5093508760405190808252806020026020018201604052801561133f578160200160208202803883390190505b509250600091505b8782101561144d5761136f8e8381518110151561136057fe5b90602001906020020151612a48565b80548851919250680100000000000000009004600160a060020a03169088908490811061139857fe5b600160a060020a03929092166020928302919091019091015280546001820154875160e060020a90920460ff1663ffffffff91821662010000020116908790849081106113e157fe5b60209081029091010152600281015485518690849081106113fe57fe5b602090810290910101526003810154845185908490811061141b57fe5b602090810290910101526004810154835184908490811061143857fe5b60209081029091010152600190910190611347565b50949c939b50919950975095509350505050565b606060018054806020026020016040519081016040528092919081815260200182805480156114db57602002820191906000526020600020906000905b82829054906101000a900463ffffffff1663ffffffff168152602001906004019060208260030104928301926001038202915080841161149e5790505b505050505090505b90565b6114ef816122b7565b1515611545576040805160e560020a62461bcd02815260206004820152601f60248201527f756e6465726c79696e6720697320756e737570706f7274656420617373657400604482015290519081900360640190fd5b61154e82611c8d565b5050565b600454600160a060020a031690565b606080606060008088881015806115795750600f5487105b156115b15785516040519080825280602002602001820160405280156115a9578160200160208202803883390190505b5094506116df565b888711156115bd578896505b600f5488116115cc57600f5497505b6115d4612ad8565b93506115e288888887612bf9565b925085519150600090505b818110156116db576003548651600160a060020a03909116906341976e099088908490811061161857fe5b906020019060200201516040518263ffffffff1660e060020a0281526004018082600160a060020a0316600160a060020a03168152602001915050602060405180830381600087803b15801561166d57600080fd5b505af1158015611681573d6000803e3d6000fd5b505050506040513d602081101561169757600080fd5b505183518490839081106116a757fe5b906020019060200201518115156116ba57fe5b0583828151811015156116c957fe5b602090810290910101526001016115ed565b8294505b50505050949350505050565b60055460009081908190819081908190819081808211611755576040805160e560020a62461bcd02815260206004820152601560248201527f6f7074696f6e73206c69737420697320656d7074790000000000000000000000604482015290519081900360640190fd5b60058054600019840190811061176757fe5b60009182526020909120600590910201805460018201546002830154600384015460049094015467ffffffffffffffff84169e680100000000000000008504600160a060020a03169e5060e060020a90940460ff169c5063ffffffff9092169a50985091965090945092505050565b6000806000806000806000806117eb89612a48565b805460018201546002830154600384015460049094015467ffffffffffffffff84169e680100000000000000008504600160a060020a03169e5060e060020a90940460ff169c5063ffffffff9092169a50985091965090945092505050565b611852611e47565b1515611896576040805160e560020a62461bcd0281526020600482018190526024820152600080516020613a52833981519152604482015290519081900360640190fd5b60038054600160a060020a031916600160a060020a0392909216919091179055565b60001982016000908152600660205260408120600181015460028201546004830154849392600160a060020a031691670de0b6b3a7640000916119129188916119069163ffffffff612da116565b9063ffffffff612da116565b81151561191b57fe5b0492509250509250929050565b600e54600160a060020a031690565b60095490565b60006119476139a2565b60008061195386612a48565b6040805160e081018252825467ffffffffffffffff81168252680100000000000000008104600160a060020a0316602083015260e060020a900460ff1691810191909152600182015463ffffffff16606082015260028201546080820152600382015460a082015260049091015460c082015292506119d183612e40565b6119db8386612e9b565b6003546060840151604080517fda66325700000000000000000000000000000000000000000000000000000000815263ffffffff909216600483015251600160a060020a039092169163da663257916024808201926020929091908290030181600087803b158015611a4c57600080fd5b505af1158015611a60573d6000803e3d6000fd5b505050506040513d6020811015611a7657600080fd5b5051604084015160a0850151919350611a8f9184612ef7565b9050801515611aa15760009350611ab4565b611ab1818663ffffffff612da116565b93505b50505092915050565b600060606000606060008551925082604051908082528060200260200182016040528015611af5578160200160208202803883390190505b509150600090505b82811015611b6257601060008783815181101515611b1757fe5b90602001906020020151600160a060020a0316600160a060020a03168152602001908152602001600020548282815181101515611b5057fe5b60209081029091010152600101611afd565b50600f549590945092505050565b60008082118015611b8357506005548211155b1515611bd9576040805160e560020a62461bcd02815260206004820152601660248201527f6f7074696f6e206964206973206e6f7420657869737400000000000000000000604482015290519081900360640190fd5b50600954600019820160009081526006602052604090205401919050565b611bff611e47565b1515611c43576040805160e560020a62461bcd0281526020600482018190526024820152600080516020613a52833981519152604482015290519081900360640190fd5b60008054604051600160a060020a03909116907f8be0079c531659141344cd1fd0a4f28419497f9722a3daafe3b4186f6b6457e0908390a360008054600160a060020a0319169055565b611c9681611f06565b1515611d12576040805160e560020a62461bcd02815260206004820152602160248201527f65787069726174696f6e2076616c7565206973206e6f7420737570706f72746560448201527f6400000000000000000000000000000000000000000000000000000000000000606482015290519081900360840190fd5b50565b6000806000600d54121515611d4057600d54600c54611d399163ffffffff612f2c16565b9150611d63565b600d54600003905080600c541115611d5e5780600c54039150611d63565b600091505b5090565b611d6f611e47565b1515611db3576040805160e560020a62461bcd0281526020600482018190526024820152600080516020613a52833981519152604482015290519081900360640190fd5b611d12600882612f89565b600160a060020a031660009081526010602052604090205490565b6000611de3611e47565b1515611e27576040805160e560020a62461bcd0281526020600482018190526024820152600080516020613a52833981519152604482015290519081900360640190fd5b611e32600883613000565b92915050565b600054600160a060020a031690565b600054600160a060020a0316331490565b606060088054806020026020016040519081016040528092919081815260200182805480156114db57602002820191906000526020600020905b815481526020019060010190808311611e92575050505050905090565b611eb7611e47565b1515611efb576040805160e560020a62461bcd0281526020600482018190526024820152600080516020613a52833981519152604482015290519081900360640190fd5b611d12600a826130ad565b6000611e326008805480602002602001604051908101604052809291908181526020018280548015611f5757602002820191906000526020600020905b815481526020019060010190808311611f43575b505050505083613147565b611f6a611e47565b1515611fae576040805160e560020a62461bcd0281526020600482018190526024820152600080516020613a52833981519152604482015290519081900360640190fd5b600e8054600160a060020a031916600160a060020a0392909216919091179055565b6000611fda611e47565b151561201e576040805160e560020a62461bcd0281526020600482018190526024820152600080516020613a52833981519152604482015290519081900360640190fd5b611e32600a83613186565b612031611e47565b1515612075576040805160e560020a62461bcd0281526020600482018190526024820152600080516020613a52833981519152604482015290519081900360640190fd5b611d1260018261325d565b600354600160a060020a031690565b60055490565b60608060008060008086516040519080825280602002602001820160405280156120c9578160200160208202803883390190505b5094505b8789101561218357600580548a9081106120e357fe5b90600052602060002090600502019350600084600401541115612178576000898152600660205260409020600181015490935061212a908890600160a060020a0316613326565b60048501546002850154919350670de0b6b3a7640000910204905080858381518110151561215457fe5b9060200190602002015101858381518110151561216d57fe5b602090810290910101525b6001909801976120cd565b5092979650505050505050565b612198611e47565b15156121dc576040805160e560020a62461bcd0281526020600482018190526024820152600080516020613a52833981519152604482015290519081900360640190fd5b600955565b6121e9611e47565b151561222d576040805160e560020a62461bcd0281526020600482018190526024820152600080516020613a52833981519152604482015290519081900360640190fd5b60028054600160a060020a031916600160a060020a0392909216919091179055565b600254600160a060020a031690565b6000612268611e47565b15156122ac576040805160e560020a62461bcd0281526020600482018190526024820152600080516020613a52833981519152604482015290519081900360640190fd5b611e32600183613373565b6000611e32600180548060200260200160405190810160405280929190818152602001828054801561233457602002820191906000526020600020906000905b82829054906101000a900463ffffffff1663ffffffff16815260200190600401906020826003010492830192600103820291508084116122f75790505b50505050508361346a565b612347611e47565b151561238b576040805160e560020a62461bcd0281526020600482018190526024820152600080516020613a52833981519152604482015290519081900360640190fd5b80600a8381548110151561239b57fe5b9060005260206000200160006101000a815481600160a060020a030219169083600160a060020a031602179055505050565b600160a060020a03811660009081526007602090815260409182902080548351818402810184019094528084526060939283018282801561242d57602002820191906000526020600020905b815481526020019060010190808311612419575b50505050509050919050565b6060600a8054806020026020016040519081016040528092919081815260200182805480156114db57602002820191906000526020600020905b8154600160a060020a03168152600190910190602001808311612473575050505050905090565b611d12600180548060200260200160405190810160405280929190818152602001828054801561251557602002820191906000526020600020906000905b82829054906101000a900463ffffffff1663ffffffff16815260200190600401906020826003010492830192600103820291508084116124d85790505b5050505050826134b5565b612528611e47565b151561256c576040805160e560020a62461bcd0281526020600482018190526024820152600080516020613a52833981519152604482015290519081900360640190fd5b611d1281613515565b60008060008060008080600a805490501180156125b55750600a80543391908390811061259e57fe5b600091825260209091200154600160a060020a0316145b1515612631576040805160e560020a62461bcd02815260206004820152603060248201527f4d616e6167657261626c653a2063616c6c6572206973206e6f7420746865206560448201527f6c696769626c65204f70657261746f7200000000000000000000000000000000606482015290519081900360840190fd5b600d549550600580549050945061264b85600b5487610ef0565b935093509350811561266257612662848488610f6b565b505050505050565b606080600083604051908082528060200260200182016040528015612699578160200160208202803883390190505b50600160a060020a03871660009081526007602052604090205490925085850111156126eb57600160a060020a0386166000908152600760205260409020546126e8908663ffffffff61275116565b93505b5060005b8381101561274857600160a060020a0386166000908152600760205260409020805486830190811061271d57fe5b9060005260206000200154828281518110151561273657fe5b602090810290910101526001016126ef565b50949350505050565b600061279383836040805190810160405280601e81526020017f536166654d6174683a207375627472616374696f6e206f766572666c6f7700008152506135f6565b9392505050565b6000806000606060008060006127b389600b548a613693565b90995094506127c0612ad8565b9350600092505b878910156128c95761280060058a8154811015156127e157fe5b600091825260209091206001600590920201015463ffffffff16613714565b91506128b860058a81548110151561281457fe5b60009182526020918290206040805160e081018252600593909302909101805467ffffffffffffffff81168452680100000000000000008104600160a060020a03169484019490945260e060020a90930460ff1690820152600182015463ffffffff16606082015260028201546080820152600382015460a082015260049091015460c082015285518690859081106128a957fe5b9060200190602002015161379c565b6001909901989283019290506127c7565b50909792965091945050505050565b60606000606060008060008060008851604051908082528060200260200182016040528015612911578160200160208202803883390190505b5095506129218b600f548c613693565b909b5094505b898b1015612a3757600580548c90811061293d57fe5b90600052602060002090600502019350600660008c815260200190815260200160002092506129958360030154856003015486600201548660050154876006015489600001601c9054906101000a900460ff166137dd565b91508260040154821015612a2c5760048301546001840154929003916129c5908a90600160a060020a0316613326565b9050670de0b6b3a76400006129ed856004015484028560020154612da190919063ffffffff16565b8115156129f657fe5b049150818682815181101515612a0857fe5b90602001906020020151018682815181101515612a2157fe5b602090810290910101525b6001909a0199612927565b509399929850919650505050505050565b60008082118015612a5b57506005548211155b1515612ab1576040805160e560020a62461bcd02815260206004820152601660248201527f6f7074696f6e206964206973206e6f7420657869737400000000000000000000604482015290519081900360640190fd5b600580546000198401908110612ac357fe5b90600052602060002090600502019050919050565b600154604080518281526020808402820101909152606091908290600090838015612b0d578160200160208202803883390190505b509150600090505b82811015612bf25760035460018054600160a060020a039092169163da663257919084908110612b4157fe5b90600052602060002090600891828204019190066004029054906101000a900463ffffffff166040518263ffffffff1660e060020a028152600401808263ffffffff168152602001915050602060405180830381600087803b158015612ba657600080fd5b505af1158015612bba573d6000803e3d6000fd5b505050506040513d6020811015612bd057600080fd5b50518251839083908110612be057fe5b60209081029091010152600101612b15565b5092915050565b6060806000806000808751604051908082528060200260200182016040528015612c2d578160200160208202803883390190505b5094505b888a1015612d9357600580548b908110612c4757fe5b906000526020600020906005020193504284600201541080612c6b57506004840154155b15612c7557612d88565b6001840154612c899063ffffffff16613714565b6040805160e081018252865467ffffffffffffffff81168252680100000000000000008104600160a060020a0316602083015260e060020a900460ff1691810191909152600186015463ffffffff16606082015260028601546080820152600386015460a0820152600486015460c082018190528951929350612d21928a9085908110612d1257fe5b906020019060200201516138b5565b92508215612d885760008a81526006602052604090206001810154909250612d53908990600160a060020a0316613326565b9050828582815181101515612d6457fe5b90602001906020020151038582815181101515612d7d57fe5b602090810290910101525b600190990198612c31565b509298975050505050505050565b600080831515612db45760009150612bf2565b50828202828482811515612dc457fe5b0414612793576040805160e560020a62461bcd02815260206004820152602160248201527f536166654d6174683a206d756c7469706c69636174696f6e206f766572666c6f60448201527f7700000000000000000000000000000000000000000000000000000000000000606482015290519081900360840190fd5b60808101514210611d12576040805160e560020a62461bcd02815260206004820152601160248201527f6f7074696f6e2069732065787069726564000000000000000000000000000000604482015290519081900360640190fd5b60c082015181111561154e576040805160e560020a62461bcd02815260206004820152601d60248201527f6f7074696f6e20616d6f756e7420697320696e73756666696369656e74000000604482015290519081900360640190fd5b600060ff8416158284111415612f0f57506000612793565b60ff841615612f2057818303612f24565b8282035b949350505050565b600082820183811015612793576040805160e560020a62461bcd02815260206004820152601b60248201527f536166654d6174683a206164646974696f6e206f766572666c6f770000000000604482015290519081900360640190fd5b612fe282805480602002602001604051908101604052809291908181526020018280548015612fd757602002820191906000526020600020905b815481526020019060010190808311612fc3575b505050505082613147565b151561154e5781546001810183556000928352602090922090910155565b8154600090815b8181101561303c5783858281548110151561301e57fe5b906000526020600020015414156130345761303c565b600101613007565b818110156130a0576000198201811461308657846001830381548110151561306057fe5b9060005260206000200154858281548110151561307957fe5b6000918252602090912001555b84546130968660001983016139de565b50600192506130a5565b600092505b505092915050565b6131108280548060200260200160405190810160405280929190818152602001828054801561310557602002820191906000526020600020905b8154600160a060020a031681526001909101906020018083116130e7575b5050505050826138ec565b151561154e578154600181018355600083815260209020018054600160a060020a038316600160a060020a03199091161790555050565b8151600090815b818110156130a05783858281518110151561316557fe5b90602001906020020151141561317e57600192506130a5565b60010161314e565b8154600090815b818110156131d55783600160a060020a031685828154811015156131ad57fe5b600091825260209091200154600160a060020a031614156131cd576131d5565b60010161318d565b818110156130a057600019820181146130865784600183038154811015156131f957fe5b6000918252602090912001548554600160a060020a039091169086908390811061321f57fe5b9060005260206000200160006101000a815481600160a060020a030219169083600160a060020a0316021790555084546130968660001983016139de565b6132e2828054806020026020016040519081016040528092919081815260200182805480156132d757602002820191906000526020600020906000905b82829054906101000a900463ffffffff1663ffffffff168152602001906004019060208260030104928301926001038202915080841161329a5790505b50505050508261346a565b151561154e578154600181018355600092835260209092206008830401805460079093166004026101000a63ffffffff818102199094169290931692909202179055565b8151600090815b81811015612f245783600160a060020a0316858281518110151561334d57fe5b90602001906020020151600160a060020a0316141561336b57612f24565b60010161332d565b8154600090815b818110156133ce578363ffffffff16858281548110151561339757fe5b6000918252602090912060088204015460079091166004026101000a900463ffffffff1614156133c6576133ce565b60010161337a565b818110156130a0576000198201811461345a5784600183038154811015156133f257fe5b90600052602060002090600891828204019190066004029054906101000a900463ffffffff16858281548110151561342657fe5b90600052602060002090600891828204019190066004026101000a81548163ffffffff021916908363ffffffff1602179055505b8454613096866000198301613a07565b8151600090815b818110156130a0578363ffffffff16858281518110151561348e57fe5b9060200190602002015163ffffffff1614156134ad57600192506130a5565b600101613471565b6134bf828261346a565b151561154e576040805160e560020a62461bcd02815260206004820152601f60248201527f77686974654c6973743a207573696e6720696e76616c69642075696e74333200604482015290519081900360640190fd5b600160a060020a038116151561359b576040805160e560020a62461bcd02815260206004820152602660248201527f4f776e61626c653a206e6577206f776e657220697320746865207a65726f206160448201527f6464726573730000000000000000000000000000000000000000000000000000606482015290519081900360840190fd5b60008054604051600160a060020a03808516939216917f8be0079c531659141344cd1fd0a4f28419497f9722a3daafe3b4186f6b6457e091a360008054600160a060020a031916600160a060020a0392909216919091179055565b60008082858511156136895760405160e560020a62461bcd0281526004018080602001828103825283818151815260200191508051906020019080838360005b8381101561364e578181015183820152602001613636565b50505050905090810190601f16801561367b5780820380516001836020036101000a031916815260200191505b509250505060405180910390fd5b5050509103919050565b6000808381818711156136ab5786829350935061370a565b8196505b848710156137035760058054889081106136c557fe5b9060005260206000209060050201905042816002015410806136e957506004810154155b156136f3576136f8565b613703565b6001909601956136af565b8687935093505b5050935093915050565b6000611e32600180548060200260200160405190810160405280929190818152602001828054801561379157602002820191906000526020600020906000905b82829054906101000a900463ffffffff1663ffffffff16815260200190600401906020826003010492830192600103820291508084116137545790505b50505050508361393d565b6000804284608001511115806137b4575060c0840151155b156137c25760009150612bf2565b612f248460c0015161190686604001518760a0015187613984565b6000428511156138a757600e54604080517f055ef6ab000000000000000000000000000000000000000000000000000000008152600481018a9052602481018990524288036044820152606481018790526084810186905260ff851660a48201529051600160a060020a039092169163055ef6ab9160c4808201926020929091908290030181600087803b15801561387457600080fd5b505af1158015613888573d6000803e3d6000fd5b505050506040513d602081101561389e57600080fd5b505190506138ab565b5060005b9695505050505050565b60004284608001511115806138c8575082155b156138d557506000612793565b612f248361190686604001518760a0015186612ef7565b8151600090815b818110156130a05783600160a060020a0316858281518110151561391357fe5b90602001906020020151600160a060020a0316141561393557600192506130a5565b6001016138f3565b8151600090815b81811015612f24578363ffffffff16858281518110151561396157fe5b9060200190602002015163ffffffff16141561397c57612f24565b600101613944565b600060ff841615828411141561399b575081612793565b5080612793565b6040805160e081018252600080825260208201819052918101829052606081018290526080810182905260a0810182905260c081019190915290565b815481835581811115613a0257600083815260209020613a02918101908301613a37565b505050565b815481835581811115613a02576007016008900481600701600890048360005260206000209182019101613a0291905b6114e391905b80821115611d635760008155600101613a3d56004f776e61626c653a2063616c6c6572206973206e6f7420746865206f776e6572a165627a7a7230582051bfa8b6c73d7ae6c9510d840c5c10da8282bbe4b4198282a0bfc83dbec2326f0029",
  "source": "pragma solidity ^0.4.26;\r\nimport \"./OptionsBase.sol\";\r\nimport \"./modules/tuple.sol\";\r\nimport \"./OptionsOccupiedCal.sol\";\r\nimport \"./interfaces/IOptionsPrice.sol\";\r\nimport \"./modules/SafeInt256.sol\";\r\ncontract OptionsNetWorthCal is OptionsOccupiedCal,ImportOptionsPrice {\r\n\r\n    uint256 private firstOption;    //firstOption,lastOption,lastBurn\r\n    mapping(address=>int256) private optionsLatestNetWorth;\r\n    using SafeInt256 for int256;\r\n    \r\n    function getNetWrothCalInfo(address[] memory whiteList)public view returns(uint256,int256[]){\r\n        uint256 len = whiteList.length;\r\n        int256[] memory latestNetWorth = new int256[](len);\r\n            for (uint256 i = 0;i<len;i++){\r\n            latestNetWorth[i] = optionsLatestNetWorth[whiteList[i]];\r\n        }\r\n        return (firstOption,latestNetWorth);\r\n    }\r\n    function getNetWrothLatestWorth(address settlement)public view returns(int256){\r\n        return optionsLatestNetWorth[settlement];\r\n    }\r\n    function setSharedState(uint256 newFirstOption,int256[] latestNetWorth,address[] memory whiteList) public onlyManager{\r\n        if (newFirstOption > firstOption){\r\n            firstOption = newFirstOption;\r\n        }\r\n        uint256 len = whiteList.length;\r\n        for (uint256 i = 0;i<len;i++){\r\n            optionsLatestNetWorth[whiteList[i]] += latestNetWorth[i];\r\n        }\r\n    }\r\n    function calRangeSharedPayment(uint256 lastOption,uint256 begin,uint256 end,address[] memory whiteList)\r\n            public view returns(uint256[],uint256,bool){\r\n        if (begin>=lastOption || end < firstOption){\r\n            return(new uint256[](whiteList.length),0,false);\r\n        }\r\n        if (end>lastOption) {\r\n            end = lastOption;\r\n        }\r\n        (uint256[] memory sharedBalances,uint256 _firstOption) = \r\n            _calculateSharedPayment(begin,end,whiteList);\r\n        return (sharedBalances,_firstOption,true);\r\n    }\r\n    function _calculateSharedPayment(uint256 begin,uint256 end,address[] memory whiteList)\r\n            internal view returns(uint256[],uint256){\r\n        uint256[] memory totalSharedPayment = new uint256[](whiteList.length);\r\n        uint256 newFirstOption;\r\n        (begin,newFirstOption) = getFirstOption(begin,firstOption,end); \r\n        for (;begin<end;begin++){\r\n            OptionsInfo storage info = allOptions[begin];\r\n            OptionsInfoEx storage optionEx = optionExtraMap[begin];\r\n            uint256 timeValue = _calculateCurrentPrice(optionEx.underlyingPrice,info.strikePrice,info.expiration,\r\n                optionEx.ivNumerator,optionEx.ivDenominator,info.optType);\r\n            if (timeValue<optionEx.fullPrice){\r\n                timeValue = optionEx.fullPrice - timeValue;\r\n                uint256 index = whiteListAddress._getEligibleIndexAddress(whiteList,optionEx.settlement);\r\n                timeValue = optionEx.tokenTimePrice.mul(timeValue*info.amount)/calDecimals;\r\n                totalSharedPayment[index] = totalSharedPayment[index]+timeValue;\r\n            }\r\n        }\r\n        return (totalSharedPayment,newFirstOption);\r\n    }\r\n    function calculateExpiredPayment(uint256 begin,uint256 end,address[] memory whiteList)public view returns(int256[]){\r\n        int256[] memory totalExpiredPayment = new int256[](whiteList.length);\r\n        for (;begin<end;begin++){\r\n            OptionsInfo storage info = allOptions[begin];\r\n            if (info.amount>0){\r\n                OptionsInfoEx storage optionEx = optionExtraMap[begin];\r\n                uint256 index = whiteListAddress._getEligibleIndexAddress(whiteList,optionEx.settlement);\r\n                uint256 timeValue = optionEx.tokenTimePrice*info.amount/calDecimals;\r\n                totalExpiredPayment[index] = totalExpiredPayment[index]+int256(timeValue);\r\n            }\r\n        }\r\n        return totalExpiredPayment;\r\n    }\r\n    function calculatePhaseOptionsFall(uint256 lastOption,uint256 begin,uint256 end,address[] memory whiteList) public view returns(int256[]){\r\n        if (begin>=lastOption || end < firstOption){\r\n            return new int256[](whiteList.length);\r\n        }\r\n        if (end>lastOption) {\r\n            end = lastOption;\r\n        }\r\n        if (begin <= firstOption) {\r\n            begin = firstOption;\r\n        }\r\n        uint256[] memory prices = getUnderlyingPrices();\r\n        int256[] memory OptionsFallBalances = _calRangeOptionsFall(begin,end,whiteList,prices);\r\n        uint256 whiteListLen = whiteList.length;\r\n        for (uint256 index = 0;index<whiteListLen;index++){\r\n            OptionsFallBalances[index] = OptionsFallBalances[index]/(int256(_oracle.getPrice(whiteList[index])));\r\n        }\r\n        return OptionsFallBalances;\r\n    }\r\n    function _calRangeOptionsFall(uint256 begin,uint256 lastOption,address[] memory whiteList,uint256[] memory prices)\r\n                 internal view returns(int256[] memory){\r\n        int256[] memory OptionsFallBalances = new int256[](whiteList.length);\r\n        for (;begin<lastOption;begin++){\r\n            OptionsInfo storage info = allOptions[begin];\r\n            if(info.expiration<now || info.amount == 0){\r\n                continue;\r\n            }\r\n            index = _getEligibleUnderlyingIndex(info.underlying);\r\n            uint256 curValue = _calCurtimeCallateralFall(info,info.amount,prices[index]);\r\n            if (curValue != 0){\r\n                OptionsInfoEx storage optionEx = optionExtraMap[begin];\r\n                uint256 index = whiteListAddress._getEligibleIndexAddress(whiteList,optionEx.settlement);\r\n                OptionsFallBalances[index] = OptionsFallBalances[index]-int256(curValue);\r\n            }\r\n        }\r\n        return OptionsFallBalances;\r\n    }\r\n\r\n    function _calCurtimeCallateralFall(OptionsInfo memory info,uint256 amount,uint256 curPrice) internal view returns(uint256){\r\n        if (info.expiration<=now || amount == 0){\r\n            return 0;\r\n        }\r\n        return _getOptionsPayback(info.optType,info.strikePrice,curPrice).mul(amount);\r\n    }\r\n    function _addNewOptionsNetworth(OptionsInfo memory info)  internal {\r\n        OptionsInfoEx storage infoEx =  optionExtraMap[info.optionID-1];\r\n        uint256 price = _oracle.getPrice(infoEx.settlement);\r\n        uint256 curValue = _calCurtimeCallateralFall(info,info.amount,infoEx.underlyingPrice)/price;\r\n        optionsLatestNetWorth[infoEx.settlement] = optionsLatestNetWorth[infoEx.settlement].sub(int256(curValue));\r\n    }\r\n    function _burnOptionsNetworth(OptionsInfo memory info,uint256 amount,uint256 underlyingPrice,uint256 currentPrice) internal returns (uint256) {\r\n        uint256 curValue = _calCurtimeCallateralFall(info,amount,underlyingPrice);\r\n        OptionsInfoEx storage optionEx = optionExtraMap[info.optionID-1];\r\n        uint256 timeWorth = optionEx.fullPrice>currentPrice ? optionEx.fullPrice-currentPrice : 0;\r\n        timeWorth = optionEx.tokenTimePrice.mul(timeWorth*amount)/calDecimals;\r\n        curValue = curValue / _oracle.getPrice(optionEx.settlement);\r\n        int256 value = int256(curValue) - int256(timeWorth);\r\n        optionsLatestNetWorth[optionEx.settlement] = optionsLatestNetWorth[optionEx.settlement]+value;\r\n    }\r\n    function _calculateCurrentPrice(uint256 curprice,uint256 strikePrice,uint256 expiration,uint256 ivNumerator,uint256 ivDenominator,uint8 optType)internal view returns (uint256){\r\n        if (expiration > now){\r\n            return _optionsPrice.getOptionsPrice_iv(curprice,strikePrice,expiration-now,ivNumerator,\r\n                ivDenominator,optType);\r\n        }\r\n        return 0;\r\n    }\r\n}",
  "sourcePath": "C:\\work\\solidity\\FinnexusOptions_V2\\contracts\\OptionsNetWorthCal.sol",
  "compiler": {
    "name": "solc",
    "version": "0.4.26+commit.4563c3fc.Emscripten.clang"
  },
  "schemaVersion": "3.1.0",
  "updatedAt": "2020-08-05T06:53:16.069Z",
  "devdoc": {
    "methods": {
      "addExpiration(uint256)": {
        "details": "Implementation of add an eligible expiration into the expirationList.\r",
        "params": {
          "expiration": "new eligible expiration.\r"
        }
      },
      "addUnderlyingAsset(uint32)": {
        "details": "Implementation of add an eligible underlying into the underlyingAssets.\r",
        "params": {
          "underlying": "new eligible underlying.\r"
        }
      },
      "getExpirationList()": {
        "details": "Implementation of getting the eligible expirationList.\r"
      },
      "getUnderlyingAssets()": {
        "details": "Implementation of getting the eligible underlyingAssets.\r"
      },
      "isEligibleExpiration(uint256)": {
        "details": "Implementation of testing whether the input expiration is eligible.\r",
        "params": {
          "expiration": "input expiration for testing.\r"
        }
      },
      "isEligibleUnderlyingAsset(uint32)": {
        "details": "Implementation of testing whether the input underlying is eligible.\r",
        "params": {
          "underlying": "input underlying for testing.\r"
        }
      },
      "isOwner()": {
        "details": "Returns true if the caller is the current owner."
      },
      "owner()": {
        "details": "Returns the address of the current owner."
      },
      "removeExpirationList(uint256)": {
        "details": "Implementation of revoke an invalid expiration from the expirationList.\r",
        "params": {
          "removeExpiration": "revoked expiration.\r"
        }
      },
      "removeUnderlyingAssets(uint32)": {
        "details": "Implementation of revoke an invalid underlying from the underlyingAssets.\r",
        "params": {
          "removeUnderlying": "revoked underlying.\r"
        }
      },
      "renounceOwnership()": {
        "details": "Leaves the contract without owner. It will not be possible to call `onlyOwner` functions anymore. Can only be called by the current owner.     * NOTE: Renouncing ownership will leave the contract without an owner, thereby removing any functionality that is only available to the owner."
      },
      "transferOwnership(address)": {
        "details": "Transfers ownership of the contract to a new account (`newOwner`). Can only be called by the current owner."
      }
    }
  },
  "userdoc": {
    "methods": {
      "setManager(address)": {
        "notice": "contribution period to stop or not."
      }
    }
  }
}