{
  "contractName": "OptionsData",
  "abi": [
    {
      "anonymous": false,
      "inputs": [
        {
          "indexed": true,
          "internalType": "address",
          "name": "owner",
          "type": "address"
        },
        {
          "indexed": true,
          "internalType": "uint256",
          "name": "optionID",
          "type": "uint256"
        },
        {
          "indexed": false,
          "internalType": "uint256",
          "name": "amount",
          "type": "uint256"
        }
      ],
      "name": "BurnOption",
      "type": "event"
    },
    {
      "anonymous": false,
      "inputs": [
        {
          "indexed": true,
          "internalType": "address",
          "name": "owner",
          "type": "address"
        },
        {
          "indexed": true,
          "internalType": "uint256",
          "name": "optionID",
          "type": "uint256"
        },
        {
          "indexed": false,
          "internalType": "uint8",
          "name": "optType",
          "type": "uint8"
        },
        {
          "indexed": false,
          "internalType": "uint32",
          "name": "underlying",
          "type": "uint32"
        },
        {
          "indexed": false,
          "internalType": "uint256",
          "name": "expiration",
          "type": "uint256"
        },
        {
          "indexed": false,
          "internalType": "uint256",
          "name": "strikePrice",
          "type": "uint256"
        },
        {
          "indexed": false,
          "internalType": "uint256",
          "name": "amount",
          "type": "uint256"
        }
      ],
      "name": "CreateOption",
      "type": "event"
    },
    {
      "anonymous": false,
      "inputs": [
        {
          "indexed": true,
          "internalType": "address",
          "name": "previousOwner",
          "type": "address"
        },
        {
          "indexed": true,
          "internalType": "address",
          "name": "newOwner",
          "type": "address"
        }
      ],
      "name": "OwnershipTransferred",
      "type": "event"
    },
    {
      "constant": false,
      "inputs": [
        {
          "internalType": "address",
          "name": "addAddress",
          "type": "address"
        }
      ],
      "name": "addOperator",
      "outputs": [],
      "payable": false,
      "stateMutability": "nonpayable",
      "type": "function"
    },
    {
      "constant": false,
      "inputs": [
        {
          "internalType": "uint32",
          "name": "underlying",
          "type": "uint32"
        }
      ],
      "name": "addUnderlyingAsset",
      "outputs": [],
      "payable": false,
      "stateMutability": "nonpayable",
      "type": "function"
    },
    {
      "constant": true,
      "inputs": [],
      "name": "getInputAmountRange",
      "outputs": [
        {
          "internalType": "uint256",
          "name": "",
          "type": "uint256"
        },
        {
          "internalType": "uint256",
          "name": "",
          "type": "uint256"
        }
      ],
      "payable": false,
      "stateMutability": "view",
      "type": "function"
    },
    {
      "constant": true,
      "inputs": [
        {
          "internalType": "uint256",
          "name": "item",
          "type": "uint256"
        }
      ],
      "name": "getItemTimeLimitation",
      "outputs": [
        {
          "internalType": "uint256",
          "name": "",
          "type": "uint256"
        }
      ],
      "payable": false,
      "stateMutability": "view",
      "type": "function"
    },
    {
      "constant": true,
      "inputs": [],
      "name": "getManager",
      "outputs": [
        {
          "internalType": "address",
          "name": "",
          "type": "address"
        }
      ],
      "payable": false,
      "stateMutability": "view",
      "type": "function"
    },
    {
      "constant": true,
      "inputs": [],
      "name": "getOperator",
      "outputs": [
        {
          "internalType": "address[]",
          "name": "",
          "type": "address[]"
        }
      ],
      "payable": false,
      "stateMutability": "view",
      "type": "function"
    },
    {
      "constant": true,
      "inputs": [],
      "name": "getOptionsPriceAddress",
      "outputs": [
        {
          "internalType": "address",
          "name": "",
          "type": "address"
        }
      ],
      "payable": false,
      "stateMutability": "view",
      "type": "function"
    },
    {
      "constant": true,
      "inputs": [],
      "name": "getOracleAddress",
      "outputs": [
        {
          "internalType": "address",
          "name": "",
          "type": "address"
        }
      ],
      "payable": false,
      "stateMutability": "view",
      "type": "function"
    },
    {
      "constant": true,
      "inputs": [],
      "name": "getTimeLimitation",
      "outputs": [
        {
          "internalType": "uint256",
          "name": "",
          "type": "uint256"
        }
      ],
      "payable": false,
      "stateMutability": "view",
      "type": "function"
    },
    {
      "constant": true,
      "inputs": [],
      "name": "getUnderlyingAssets",
      "outputs": [
        {
          "internalType": "uint32[]",
          "name": "",
          "type": "uint32[]"
        }
      ],
      "payable": false,
      "stateMutability": "view",
      "type": "function"
    },
    {
      "constant": true,
      "inputs": [],
      "name": "getVolatilityAddress",
      "outputs": [
        {
          "internalType": "address",
          "name": "",
          "type": "address"
        }
      ],
      "payable": false,
      "stateMutability": "view",
      "type": "function"
    },
    {
      "constant": true,
      "inputs": [
        {
          "internalType": "uint32",
          "name": "underlying",
          "type": "uint32"
        }
      ],
      "name": "isEligibleUnderlyingAsset",
      "outputs": [
        {
          "internalType": "bool",
          "name": "",
          "type": "bool"
        }
      ],
      "payable": false,
      "stateMutability": "view",
      "type": "function"
    },
    {
      "constant": true,
      "inputs": [],
      "name": "isOwner",
      "outputs": [
        {
          "internalType": "bool",
          "name": "",
          "type": "bool"
        }
      ],
      "payable": false,
      "stateMutability": "view",
      "type": "function"
    },
    {
      "constant": true,
      "inputs": [],
      "name": "owner",
      "outputs": [
        {
          "internalType": "address",
          "name": "",
          "type": "address"
        }
      ],
      "payable": false,
      "stateMutability": "view",
      "type": "function"
    },
    {
      "constant": false,
      "inputs": [
        {
          "internalType": "address",
          "name": "removeAddress",
          "type": "address"
        }
      ],
      "name": "removeOperator",
      "outputs": [
        {
          "internalType": "bool",
          "name": "",
          "type": "bool"
        }
      ],
      "payable": false,
      "stateMutability": "nonpayable",
      "type": "function"
    },
    {
      "constant": false,
      "inputs": [
        {
          "internalType": "uint32",
          "name": "removeUnderlying",
          "type": "uint32"
        }
      ],
      "name": "removeUnderlyingAssets",
      "outputs": [
        {
          "internalType": "bool",
          "name": "",
          "type": "bool"
        }
      ],
      "payable": false,
      "stateMutability": "nonpayable",
      "type": "function"
    },
    {
      "constant": false,
      "inputs": [],
      "name": "renounceOwnership",
      "outputs": [],
      "payable": false,
      "stateMutability": "nonpayable",
      "type": "function"
    },
    {
      "constant": false,
      "inputs": [
        {
          "internalType": "uint256",
          "name": "_minAmount",
          "type": "uint256"
        },
        {
          "internalType": "uint256",
          "name": "_maxAmount",
          "type": "uint256"
        }
      ],
      "name": "setInputAmountRange",
      "outputs": [],
      "payable": false,
      "stateMutability": "nonpayable",
      "type": "function"
    },
    {
      "constant": false,
      "inputs": [
        {
          "internalType": "address",
          "name": "managerAddress",
          "type": "address"
        }
      ],
      "name": "setManager",
      "outputs": [],
      "payable": false,
      "stateMutability": "nonpayable",
      "type": "function"
    },
    {
      "constant": false,
      "inputs": [
        {
          "internalType": "uint256",
          "name": "index",
          "type": "uint256"
        },
        {
          "internalType": "address",
          "name": "addAddress",
          "type": "address"
        }
      ],
      "name": "setOperator",
      "outputs": [],
      "payable": false,
      "stateMutability": "nonpayable",
      "type": "function"
    },
    {
      "constant": false,
      "inputs": [
        {
          "internalType": "address[]",
          "name": "operators",
          "type": "address[]"
        }
      ],
      "name": "setOperators",
      "outputs": [],
      "payable": false,
      "stateMutability": "nonpayable",
      "type": "function"
    },
    {
      "constant": false,
      "inputs": [
        {
          "internalType": "address",
          "name": "optionsPrice",
          "type": "address"
        }
      ],
      "name": "setOptionsPriceAddress",
      "outputs": [],
      "payable": false,
      "stateMutability": "nonpayable",
      "type": "function"
    },
    {
      "constant": false,
      "inputs": [
        {
          "internalType": "address",
          "name": "oracle",
          "type": "address"
        }
      ],
      "name": "setOracleAddress",
      "outputs": [],
      "payable": false,
      "stateMutability": "nonpayable",
      "type": "function"
    },
    {
      "constant": false,
      "inputs": [
        {
          "internalType": "uint256",
          "name": "_limitation",
          "type": "uint256"
        }
      ],
      "name": "setTimeLimitation",
      "outputs": [],
      "payable": false,
      "stateMutability": "nonpayable",
      "type": "function"
    },
    {
      "constant": false,
      "inputs": [
        {
          "internalType": "address",
          "name": "volatility",
          "type": "address"
        }
      ],
      "name": "setVolatilityAddress",
      "outputs": [],
      "payable": false,
      "stateMutability": "nonpayable",
      "type": "function"
    },
    {
      "constant": false,
      "inputs": [
        {
          "internalType": "address",
          "name": "newOwner",
          "type": "address"
        }
      ],
      "name": "transferOwnership",
      "outputs": [],
      "payable": false,
      "stateMutability": "nonpayable",
      "type": "function"
    }
  ],
  "bytecode": "0x60806040819052610e106003556c0c9f2c9cd04674edea40000000600455633b9aca0060055560008054600160a060020a0319163317808255600160a060020a0316917f8be0079c531659141344cd1fd0a4f28419497f9722a3daafe3b4186f6b6457e0908290a36112e0806100766000396000f3fe608060405234801561001057600080fd5b50600436106101ab576000357c010000000000000000000000000000000000000000000000000000000090048063a093e2d0116100fb578063d5009584116100b4578063ddf71cd51161008e578063ddf71cd514610457578063e7a1c1c0146104fa578063e7f43c6814610526578063f2fde38b1461052e576101ab565b8063d500958414610409578063d6d1401214610411578063db6ad2bd14610434576101ab565b8063a093e2d01461034b578063ac8a584a14610371578063afec82fc14610397578063b18b78dd146103ba578063bc9abed2146103c2578063d0ebdbe7146103e3576101ab565b80635ca4b73b116101685780638f32d59b116101425780638f32d59b146102c95780639783cbd9146102e55780639870d7fe146103025780639ab91a3514610328576101ab565b80635ca4b73b146102b1578063715018a6146102b95780638da5cb5b146102c1576101ab565b80632967eafe146101b05780632a75ee42146101d85780633582d7891461020757806342e5479d1461025f5780634688d5d6146102835780634c69c00f1461028b575b600080fd5b6101d6600480360360208110156101c657600080fd5b5035600160a060020a0316610554565b005b6101f5600480360360208110156101ee57600080fd5b50356105c0565b60408051918252519081900360200190f35b61020f6105d7565b60408051602080825283518183015283519192839290830191858101910280838360005b8381101561024b578181015183820152602001610233565b505050509050019250505060405180910390f35b61026761065c565b60408051600160a060020a039092168252519081900360200190f35b6101f561066b565b6101d6600480360360208110156102a157600080fd5b5035600160a060020a0316610671565b6102676106dd565b6101d66106ec565b610267610780565b6102d161078f565b604080519115158252519081900360200190f35b6101d6600480360360208110156102fb57600080fd5b50356107a0565b6101d66004803603602081101561031857600080fd5b5035600160a060020a03166107ef565b6101d66004803603604081101561033e57600080fd5b508035906020013561084d565b6101d66004803603602081101561036157600080fd5b5035600160a060020a03166108a2565b6102d16004803603602081101561038757600080fd5b5035600160a060020a031661090e565b6101d6600480360360208110156103ad57600080fd5b503563ffffffff16610971565b6102676109cc565b6103ca6109db565b6040805192835260208301919091528051918290030190f35b6101d6600480360360208110156103f957600080fd5b5035600160a060020a03166109e5565b610267610a51565b6102d16004803603602081101561042757600080fd5b503563ffffffff16610a60565b6102d16004803603602081101561044a57600080fd5b503563ffffffff16610abd565b6101d66004803603602081101561046d57600080fd5b81019060208101813564010000000081111561048857600080fd5b82018360208201111561049a57600080fd5b803590602001918460208302840111640100000000831117156104bc57600080fd5b919080806020026020016040519081016040528093929190818152602001838360200280828437600092019190915250929550610b4e945050505050565b6101d66004803603604081101561051057600080fd5b5080359060200135600160a060020a0316610baf565b61020f610c39565b6101d66004803603602081101561054457600080fd5b5035600160a060020a0316610c9a565b61055c61078f565b61059e576040805160e560020a62461bcd028152602060048201819052602482015260008051602061128c833981519152604482015290519081900360640190fd5b60088054600160a060020a031916600160a060020a0392909216919091179055565b600354600091825260026020526040909120540190565b6060600180548060200260200160405190810160405280929190818152602001828054801561065157602002820191906000526020600020906000905b82829054906101000a900463ffffffff1663ffffffff16815260200190600401906020826003010492830192600103820291508084116106145790505b505050505090505b90565b600854600160a060020a031690565b60035490565b61067961078f565b6106bb576040805160e560020a62461bcd028152602060048201819052602482015260008051602061128c833981519152604482015290519081900360640190fd5b60078054600160a060020a031916600160a060020a0392909216919091179055565b600954600160a060020a031690565b6106f461078f565b610736576040805160e560020a62461bcd028152602060048201819052602482015260008051602061128c833981519152604482015290519081900360640190fd5b60008054604051600160a060020a03909116907f8be0079c531659141344cd1fd0a4f28419497f9722a3daafe3b4186f6b6457e0908390a360008054600160a060020a0319169055565b600054600160a060020a031690565b600054600160a060020a0316331490565b6107a861078f565b6107ea576040805160e560020a62461bcd028152602060048201819052602482015260008051602061128c833981519152604482015290519081900360640190fd5b600355565b6107f761078f565b610839576040805160e560020a62461bcd028152602060048201819052602482015260008051602061128c833981519152604482015290519081900360640190fd5b61084a600a8263ffffffff610ced16565b50565b61085561078f565b610897576040805160e560020a62461bcd028152602060048201819052602482015260008051602061128c833981519152604482015290519081900360640190fd5b600591909155600455565b6108aa61078f565b6108ec576040805160e560020a62461bcd028152602060048201819052602482015260008051602061128c833981519152604482015290519081900360640190fd5b60098054600160a060020a031916600160a060020a0392909216919091179055565b600061091861078f565b61095a576040805160e560020a62461bcd028152602060048201819052602482015260008051602061128c833981519152604482015290519081900360640190fd5b61096b600a8363ffffffff610d8516565b92915050565b61097961078f565b6109bb576040805160e560020a62461bcd028152602060048201819052602482015260008051602061128c833981519152604482015290519081900360640190fd5b61084a60018263ffffffff610e7316565b600754600160a060020a031690565b6005546004549091565b6109ed61078f565b610a2f576040805160e560020a62461bcd028152602060048201819052602482015260008051602061128c833981519152604482015290519081900360640190fd5b60068054600160a060020a031916600160a060020a0392909216919091179055565b600654600160a060020a031690565b6000610a6a61078f565b610aac576040805160e560020a62461bcd028152602060048201819052602482015260008051602061128c833981519152604482015290519081900360640190fd5b61096b60018363ffffffff610f3a16565b600061096b826001805480602002602001604051908101604052809291908181526020018280548015610b3b57602002820191906000526020600020906000905b82829054906101000a900463ffffffff1663ffffffff1681526020019060040190602082600301049283019260010382029150808411610afe5790505b505050505061102a90919063ffffffff16565b610b5661078f565b610b98576040805160e560020a62461bcd028152602060048201819052602482015260008051602061128c833981519152604482015290519081900360640190fd5b8051610bab90600a906020840190611165565b5050565b610bb761078f565b610bf9576040805160e560020a62461bcd028152602060048201819052602482015260008051602061128c833981519152604482015290519081900360640190fd5b80600a8381548110610c0757fe5b9060005260206000200160006101000a815481600160a060020a030219169083600160a060020a031602179055505050565b6060600a80548060200260200160405190810160405280929190818152602001828054801561065157602002820191906000526020600020905b8154600160a060020a03168152600190910190602001808311610c73575050505050905090565b610ca261078f565b610ce4576040805160e560020a62461bcd028152602060048201819052602482015260008051602061128c833981519152604482015290519081900360640190fd5b61084a81611073565b610d5082805480602002602001604051908101604052809291908181526020018280548015610d4557602002820191906000526020600020905b8154600160a060020a03168152600190910190602001808311610d27575b505050505082611116565b610bab578154600181018355600083815260209020018054600160a060020a038316600160a060020a03199091161790555050565b8154600090815b81811015610dd25783600160a060020a0316858281548110610daa57fe5b600091825260209091200154600160a060020a03161415610dca57610dd2565b600101610d8c565b81811015610e6857600182038114610e4c57846001830381548110610df357fe5b9060005260206000200160009054906101000a9004600160a060020a0316858281548110610e1d57fe5b9060005260206000200160006101000a815481600160a060020a030219169083600160a060020a031602179055505b8454610e5c8660001983016111ca565b5060019250505061096b565b506000949350505050565b610ef882805480602002602001604051908101604052809291908181526020018280548015610eed57602002820191906000526020600020906000905b82829054906101000a900463ffffffff1663ffffffff1681526020019060040190602082600301049283019260010382029150808411610eb05790505b50505050508261102a565b610bab578154600181018355600092835260209092206008830401805460079093166004026101000a63ffffffff818102199094169290931692909202179055565b8154600090815b81811015610f93578363ffffffff16858281548110610f5c57fe5b6000918252602090912060088204015460079091166004026101000a900463ffffffff161415610f8b57610f93565b600101610f41565b81811015610e685760018203811461101a57846001830381548110610fb457fe5b90600052602060002090600891828204019190066004029054906101000a900463ffffffff16858281548110610fe657fe5b90600052602060002090600891828204019190066004026101000a81548163ffffffff021916908363ffffffff1602179055505b8454610e5c8660001983016111f3565b8151600090815b81811015610e68578363ffffffff1685828151811061104c57fe5b602002602001015163ffffffff16141561106b5760019250505061096b565b600101611031565b600160a060020a0381166110bb5760405160e560020a62461bcd0281526004018080602001828103825260268152602001806112666026913960400191505060405180910390fd5b60008054604051600160a060020a03808516939216917f8be0079c531659141344cd1fd0a4f28419497f9722a3daafe3b4186f6b6457e091a360008054600160a060020a031916600160a060020a0392909216919091179055565b8151600090815b81811015610e685783600160a060020a031685828151811061113b57fe5b6020026020010151600160a060020a0316141561115d5760019250505061096b565b60010161111d565b8280548282559060005260206000209081019282156111ba579160200282015b828111156111ba5782518254600160a060020a031916600160a060020a03909116178255602090920191600190910190611185565b506111c6929150611227565b5090565b8154818355818111156111ee576000838152602090206111ee91810190830161124b565b505050565b8154818355818111156111ee5760070160089004816007016008900483600052602060002091820191016111ee919061124b565b61065991905b808211156111c6578054600160a060020a031916815560010161122d565b61065991905b808211156111c6576000815560010161125156fe4f776e61626c653a206e6577206f776e657220697320746865207a65726f20616464726573734f776e61626c653a2063616c6c6572206973206e6f7420746865206f776e6572a265627a7a72315820c03ebba2ec6e3feeaf5c67e632cdae35c9280bfdf226985fdd31f33837f9698d64736f6c63430005100032",
  "source": "pragma solidity =0.5.16;\nimport \"../modules/Managerable.sol\";\nimport \"../interfaces/IFNXOracle.sol\";\nimport \"../modules/underlyingAssets.sol\";\nimport \"../interfaces/IVolatility.sol\";\nimport \"../interfaces/IOptionsPrice.sol\";\nimport \"../modules/Operator.sol\";\nimport \"../modules/ImputRange.sol\";\nimport \"../modules/timeLimitation.sol\";\ncontract OptionsData is UnderlyingAssets,timeLimitation,ImputRange,Managerable,ImportOracle,ImportVolatility,ImportOptionsPrice,Operator{\n        // store option info\n    struct OptionsInfo {\n        uint64     optionID;    //an increasing nubmer id, begin from one.\n        address     owner;      // option's owner\n        uint8   \toptType;    //0 for call, 1 for put\n        uint32\t\tunderlying; // underlying ID, 1 for BTC,2 for ETH\n        uint256\t\texpiration; // Expiration timestamp\n        uint256     strikePrice;    //strike price\n        uint256     amount;         // mint amount\n    }\n    // store option extra info\n    struct OptionsInfoEx{\n        address      settlement;    //user's settlement paying for option. \n        uint256      tokenTimePrice; //option's buying price based on settlement, used for options share calculation\n        uint256      underlyingPrice;//underlying price when option is created.\n        uint256      fullPrice;      //option's buying price.\n        uint256      ivNumerator;   // option's iv numerator when option is created.\n        uint256      ivDenominator;// option's iv denominator when option is created.\n    }\n    //all options information list\n    OptionsInfo[] internal allOptions;\n    // all option's extra information map\n    mapping(uint256=>OptionsInfoEx) internal optionExtraMap;\n    // option share value calculation's decimal\n    uint256 constant internal calDecimals = 1e18;\n    //user options balances\n    mapping(address=>uint256[]) internal optionsBalances;\n    //expiration whitelist\n    uint256[] internal expirationList;\n    \n    // first option position which is needed calculate.\n    uint256 internal netWorthirstOption;\n    // options latest networth balance. store all options's net worth share started from first option.\n    mapping(address=>int256) internal optionsLatestNetWorth;\n\n    // first option position which is needed calculate.\n    uint256 internal occupiedFirstOption; \n    //latest calcutated Options Occupied value.\n    uint256 internal optionsOccupied;\n    //latest Options volatile occupied value when bought or selled options.\n    int256 internal optionsLatestOccupied;\n\n    /**\n     * @dev Emitted when `owner` create a new option. \n     * @param owner new option's owner\n     * @param optionID new option's id\n     * @param optionID new option's type \n     * @param underlying new option's underlying \n     * @param expiration new option's expiration timestamp\n     * @param strikePrice  new option's strikePrice\n     * @param amount  new option's amount\n     */\n    event CreateOption(address indexed owner,uint256 indexed optionID,uint8 optType,uint32 underlying,uint256 expiration,uint256 strikePrice,uint256 amount);\n    /**\n     * @dev Emitted when `owner` burn `amount` his option which id is `optionID`. \n     */    \n    event BurnOption(address indexed owner,uint256 indexed optionID,uint amount);\n}",
  "sourcePath": "/home/jqg/FinnexusOptions_V2/contracts/OptionsPool/OptionsData.sol",
  "compiler": {
    "name": "solc",
    "version": "0.5.16+commit.9c3226ce.Emscripten.clang"
  },
  "schemaVersion": "3.2.4",
  "updatedAt": "2020-09-09T03:13:04.301Z",
  "devdoc": {
    "methods": {
      "addOperator(address)": {
        "details": "add a new operator by owner.      "
      },
      "addUnderlyingAsset(uint32)": {
        "details": "Implementation of add an eligible underlying into the underlyingAssets.",
        "params": {
          "underlying": "new eligible underlying."
        }
      },
      "getInputAmountRange()": {
        "details": "get the valid range of input amount"
      },
      "getItemTimeLimitation(uint256)": {
        "details": "Retrieve user's start time for burning. ",
        "params": {
          "item": "item key."
        }
      },
      "getManager()": {
        "details": "get manager address.      "
      },
      "getOperator()": {
        "details": "get all operators.      "
      },
      "getUnderlyingAssets()": {
        "details": "Implementation of getting the eligible underlyingAssets."
      },
      "isEligibleUnderlyingAsset(uint32)": {
        "details": "Implementation of testing whether the input underlying is eligible.",
        "params": {
          "underlying": "input underlying for testing."
        }
      },
      "isOwner()": {
        "details": "Returns true if the caller is the current owner."
      },
      "owner()": {
        "details": "Returns the address of the current owner."
      },
      "removeOperator(address)": {
        "details": "remove operator by owner.      "
      },
      "removeUnderlyingAssets(uint32)": {
        "details": "Implementation of revoke an invalid underlying from the underlyingAssets.",
        "params": {
          "removeUnderlying": "revoked underlying."
        }
      },
      "renounceOwnership()": {
        "details": "Leaves the contract without owner. It will not be possible to call `onlyOwner` functions anymore. Can only be called by the current owner.     * NOTE: Renouncing ownership will leave the contract without an owner, thereby removing any functionality that is only available to the owner."
      },
      "setInputAmountRange(uint256,uint256)": {
        "details": "set the valid range of input amount",
        "params": {
          "_maxAmount": "the maximum input amount limit",
          "_minAmount": "the minimum input amount limit"
        }
      },
      "setManager(address)": {
        "details": "set manager by owner.      "
      },
      "setOperator(uint256,address)": {
        "details": "modify indexed operator by owner.      "
      },
      "setOperators(address[])": {
        "details": "set all operators by owner.      "
      },
      "setTimeLimitation(uint256)": {
        "details": "set time limitation, only owner can invoke. ",
        "params": {
          "_limitation": "new time limitation."
        }
      },
      "transferOwnership(address)": {
        "details": "Transfers ownership of the contract to a new account (`newOwner`). Can only be called by the current owner."
      }
    }
  },
  "userdoc": {
    "methods": {}
  }
}