{
  "contractName": "OptionsPriceTest",
  "abi": [
    {
      "constant": true,
      "inputs": [
        {
          "name": "currentPrice",
          "type": "uint256"
        },
        {
          "name": "strikePrice",
          "type": "uint256"
        },
        {
          "name": "expiration",
          "type": "uint256"
        },
        {
          "name": "ivNumerator",
          "type": "uint256"
        },
        {
          "name": "ivDenominator",
          "type": "uint256"
        },
        {
          "name": "optType",
          "type": "uint8"
        }
      ],
      "name": "getOptionsPrice_iv",
      "outputs": [
        {
          "name": "",
          "type": "uint256"
        }
      ],
      "payable": false,
      "stateMutability": "view",
      "type": "function"
    },
    {
      "constant": false,
      "inputs": [
        {
          "name": "volatility",
          "type": "address"
        }
      ],
      "name": "setVolatilityAddress",
      "outputs": [],
      "payable": false,
      "stateMutability": "nonpayable",
      "type": "function"
    },
    {
      "constant": true,
      "inputs": [],
      "name": "getVolatilityAddress",
      "outputs": [
        {
          "name": "",
          "type": "address"
        }
      ],
      "payable": false,
      "stateMutability": "view",
      "type": "function"
    },
    {
      "constant": true,
      "inputs": [
        {
          "name": "currentPrice",
          "type": "uint256"
        },
        {
          "name": "strikePrice",
          "type": "uint256"
        },
        {
          "name": "expiration",
          "type": "uint256"
        },
        {
          "name": "underlying",
          "type": "uint32"
        },
        {
          "name": "optType",
          "type": "uint8"
        }
      ],
      "name": "getOptionsPrice",
      "outputs": [
        {
          "name": "",
          "type": "uint256"
        }
      ],
      "payable": false,
      "stateMutability": "view",
      "type": "function"
    },
    {
      "constant": true,
      "inputs": [],
      "name": "getRate",
      "outputs": [
        {
          "name": "",
          "type": "int256"
        },
        {
          "name": "",
          "type": "int256"
        }
      ],
      "payable": false,
      "stateMutability": "view",
      "type": "function"
    },
    {
      "constant": false,
      "inputs": [],
      "name": "renounceOwnership",
      "outputs": [],
      "payable": false,
      "stateMutability": "nonpayable",
      "type": "function"
    },
    {
      "constant": true,
      "inputs": [],
      "name": "owner",
      "outputs": [
        {
          "name": "",
          "type": "address"
        }
      ],
      "payable": false,
      "stateMutability": "view",
      "type": "function"
    },
    {
      "constant": true,
      "inputs": [],
      "name": "isOwner",
      "outputs": [
        {
          "name": "",
          "type": "bool"
        }
      ],
      "payable": false,
      "stateMutability": "view",
      "type": "function"
    },
    {
      "constant": false,
      "inputs": [
        {
          "name": "numerator",
          "type": "int256"
        },
        {
          "name": "denominator",
          "type": "int256"
        }
      ],
      "name": "setRate",
      "outputs": [],
      "payable": false,
      "stateMutability": "nonpayable",
      "type": "function"
    },
    {
      "constant": false,
      "inputs": [
        {
          "name": "newOwner",
          "type": "address"
        }
      ],
      "name": "transferOwnership",
      "outputs": [],
      "payable": false,
      "stateMutability": "nonpayable",
      "type": "function"
    },
    {
      "inputs": [
        {
          "name": "ivContract",
          "type": "address"
        }
      ],
      "payable": false,
      "stateMutability": "nonpayable",
      "type": "constructor"
    },
    {
      "anonymous": false,
      "inputs": [
        {
          "indexed": true,
          "name": "previousOwner",
          "type": "address"
        },
        {
          "indexed": true,
          "name": "newOwner",
          "type": "address"
        }
      ],
      "name": "OwnershipTransferred",
      "type": "event"
    },
    {
      "constant": true,
      "inputs": [
        {
          "name": "currentPrice",
          "type": "uint256"
        },
        {
          "name": "strikePrice",
          "type": "uint256"
        },
        {
          "name": "expiration",
          "type": "uint256"
        },
        {
          "name": "ivNumerator",
          "type": "uint256"
        },
        {
          "name": "ivDenominator",
          "type": "uint256"
        }
      ],
      "name": "testCalculateD1D2_iv",
      "outputs": [
        {
          "name": "",
          "type": "int256"
        },
        {
          "name": "",
          "type": "int256"
        },
        {
          "name": "",
          "type": "int256"
        },
        {
          "name": "",
          "type": "int256"
        }
      ],
      "payable": false,
      "stateMutability": "view",
      "type": "function"
    },
    {
      "constant": true,
      "inputs": [
        {
          "name": "currentPrice",
          "type": "uint256"
        },
        {
          "name": "strikePrice",
          "type": "uint256"
        },
        {
          "name": "expiration",
          "type": "uint256"
        },
        {
          "name": "ivNumerator",
          "type": "uint256"
        },
        {
          "name": "ivDenominator",
          "type": "uint256"
        }
      ],
      "name": "testCalculateND1ND2_iv",
      "outputs": [
        {
          "name": "",
          "type": "int256"
        },
        {
          "name": "",
          "type": "int256"
        },
        {
          "name": "",
          "type": "int256"
        },
        {
          "name": "",
          "type": "int256"
        }
      ],
      "payable": false,
      "stateMutability": "view",
      "type": "function"
    }
  ],
  "bytecode": "0x60c0604052600560808190526103e860a081905260029190915560035534801561002857600080fd5b50604051602080611a1a833981016040819052905160008054600160a060020a031916331780825591928392600160a060020a031691907f8be0079c531659141344cd1fd0a4f28419497f9722a3daafe3b4186f6b6457e0908290a36100968164010000000061009d810204565b505061014e565b6100ae64010000000061013d810204565b151561011b57604080517f08c379a000000000000000000000000000000000000000000000000000000000815260206004820181905260248201527f4f776e61626c653a2063616c6c6572206973206e6f7420746865206f776e6572604482015290519081900360640190fd5b60018054600160a060020a031916600160a060020a0392909216919091179055565b600054600160a060020a0316331490565b6118bd8061015d6000396000f3006080604052600436106100b95763ffffffff7c010000000000000000000000000000000000000000000000000000000060003504166301b7bc2c81146100be578063055ef6ab146101085780632967eafe1461014457806342e5479d146101675780634b7d8e5c14610198578063679aefce146101c5578063715018a6146101f3578063800fb27a146102085780638da5cb5b1461022c5780638f32d59b14610241578063bfe402f41461026a578063f2fde38b14610285575b600080fd5b3480156100ca57600080fd5b506100e26004356024356044356064356084356102a6565b604080519485526020850193909352838301919091526060830152519081900360800190f35b34801561011457600080fd5b5061013260043560243560443560643560843560ff60a4351661033b565b60408051918252519081900360200190f35b34801561015057600080fd5b50610165600160a060020a03600435166103c4565b005b34801561017357600080fd5b5061017c61043f565b60408051600160a060020a039092168252519081900360200190f35b3480156101a457600080fd5b5061013260043560243560443563ffffffff6064351660ff6084351661044e565b3480156101d157600080fd5b506101da61059a565b6040805192835260208301919091528051918290030190f35b3480156101ff57600080fd5b506101656105a4565b34801561021457600080fd5b506100e2600435602435604435606435608435610647565b34801561023857600080fd5b5061017c6106c4565b34801561024d57600080fd5b506102566106d3565b604080519115158252519081900360200190f35b34801561027657600080fd5b506101656004356024356106e4565b34801561029157600080fd5b50610165600160a060020a036004351661073b565b6000806000806102b461182b565b6102bc61182b565b6102c461182b565b6040805180820182528a815260208082018b9052825180840190935260025483526003549083015293506102fe908d908d908d9087610793565b9150915061030b826108d0565b9150610316816108d0565b825160209384015182519290940151909e939d50909b50995090975050505050505050565b600061034561182b565b50604080518082019091528481526020810184905260ff8316151561039257604080518082019091526002548152600354602082015261038b9089908990899085610b22565b91506103b9565b604080518082019091526002548152600354602082015261038b9089908990899085610bdd565b509695505050505050565b6103cc6106d3565b1515610410576040805160e560020a62461bcd0281526020600482018190526024820152600080516020611872833981519152604482015290519081900360640190fd5b6001805473ffffffffffffffffffffffffffffffffffffffff1916600160a060020a0392909216919091179055565b600154600160a060020a031690565b600080600061045b61182b565b600154604080517f185d123200000000000000000000000000000000000000000000000000000000815263ffffffff8916600482015260ff88166024820152604481018a9052606481018c9052608481018b90528151600160a060020a039093169263185d12329260a4808401939192918290030181600087803b1580156104e257600080fd5b505af11580156104f6573d6000803e3d6000fd5b505050506040513d604081101561050c57600080fd5b508051602091820151604080518082019091528281529283018190529094509250905060ff85161515610567576040805180820190915260025481526003546020820152610560908a908a908a9085610b22565b935061058e565b6040805180820190915260025481526003546020820152610560908a908a908a9085610bdd565b50505095945050505050565b6002546003549091565b6105ac6106d3565b15156105f0576040805160e560020a62461bcd0281526020600482018190526024820152600080516020611872833981519152604482015290519081900360640190fd5b60008054604051600160a060020a03909116907f8be0079c531659141344cd1fd0a4f28419497f9722a3daafe3b4186f6b6457e0908390a36000805473ffffffffffffffffffffffffffffffffffffffff19169055565b60008060008061065561182b565b61065d61182b565b61066561182b565b6040805180820182528a815260208082018b90528251808401909352600254835260035490830152935061069f908d908d908d9087610793565b815160209283015182519290930151909f929e50909c509a5098505050505050505050565b600054600160a060020a031690565b600054600160a060020a0316331490565b6106ec6106d3565b1515610730576040805160e560020a62461bcd0281526020600482018190526024820152600080516020611872833981519152604482015290519081900360640190fd5b600291909155600355565b6107436106d3565b1515610787576040805160e560020a62461bcd0281526020600482018190526024820152600080516020611872833981519152604482015290519081900360640190fd5b61079081610c7b565b50565b61079b61182b565b6107a361182b565b6107ab61182b565b6107b361182b565b8789146107e0576107db6107c689610d69565b6107cf8b610d69565b9063ffffffff610da316565b6107f6565b6040805180820190915260008152600160208201525b9150610808858063ffffffff610dc416565b60208101805160020290529050610825818763ffffffff610dd916565b604080518082019091528881526301e13380602082015290915061085090829063ffffffff610dc416565b9050610862828263ffffffff610dd916565b915061089c8560408051908101604052806108838b6402540be40002610dee565b8152632178ddce6020909101529063ffffffff610dc416565b90506108ae828263ffffffff610e2916565b91506108c0828263ffffffff610da316565b9199919850909650505050505050565b6108d861182b565b6000806108e3611842565b6108eb61182b565b6108f361182b565b6108fb61182b565b600061090689610e3e565b9650861561091a5761091789610e51565b98505b6020890151895181151561092a57fe5b059550600a861315610971578661095457604080518082019091526001808252602082015261096a565b6040805180820190915260008152600160208201525b9750610b16565b6040805160e0810182526301e7566960a082019081526305f5e10060c0830152815281518083018352631540bb45198152633b9aca0060208281018290528084019290925283518085018552636a2f323181528083018290528385015283518085018552636c8e2929198152808301829052606084015283518085018552634f4a607d8152808301919091526080830152825180840190935262235883835262989680908301529550610a25908a90610dc4565b602081015181510181529350610a3a84610e88565b9350610a46898a610dc4565b6020810180516001190290529850610a5d89610eae565b9850610a8f6040805190810160405280680229a4c508a92ae7d1815260200168056bc75e2d631000008152508a610dc4565b985060408051908101604052806000815260200160018152509250839150600090505b6005811015610af457610ade83610ad9878460058110610ace57fe5b602002015185610dc4565b610dd9565b9250610aea8285610dc4565b9150600101610ab2565b610afe8984610dc4565b9850861515610b1257885160208a01510389525b8897505b50505050505050919050565b6000610b2c61182b565b610b3461182b565b610b418888888888610793565b91509150610b4e826108d0565b9150610b59816108d0565b825189028352805188028152604080518082019091528781526301e133806020820152909150610b9090869063ffffffff610dc416565b9450610bbb610bae610ba187610eae565b839063ffffffff610e2916565b839063ffffffff610da316565b915081602001518260000151811515610bd057fe5b0598975050505050505050565b6000610be761182b565b610bef61182b565b610bfc8888888888610793565b91509150610c09826108d0565b9150610c14816108d0565b8251602080850151919091038a0284528151818301510389028252604080518082019091528881526301e1338091810191909152909150610c5c90869063ffffffff610dc416565b9450610bbb826107cf610c6e88610eae565b849063ffffffff610e2916565b600160a060020a0381161515610d01576040805160e560020a62461bcd02815260206004820152602660248201527f4f776e61626c653a206e6577206f776e657220697320746865207a65726f206160448201527f6464726573730000000000000000000000000000000000000000000000000000606482015290519081900360840190fd5b60008054604051600160a060020a03808516939216917f8be0079c531659141344cd1fd0a4f28419497f9722a3daafe3b4186f6b6457e091a36000805473ffffffffffffffffffffffffffffffffffffffff1916600160a060020a0392909216919091179055565b610d7161182b565b604080518082019091526401000000009092029180610d8f84610f0f565b815264010000000060209091015292915050565b610dab61182b565b610dbd610db88484610f94565b610fd0565b9392505050565b610dcc61182b565b610dbd610db88484611069565b610de161182b565b610dbd610db88484611097565b80600260018201045b81811015610e23578091506002818285811515610e1057fe5b0401811515610e1b57fe5b049050610df7565b50919050565b610e3161182b565b610dbd610db884846110d0565b6020810151905160009182139113141590565b610e5961182b565b815160001315610e6b57815160000382525b600082602001511215610e845760208201805160000390525b5090565b610e9061182b565b50604080518082019091526020808301518252825190820152919050565b610eb661182b565b6000610ec183610e3e565b90508015610ed557610ed283610e51565b92505b610ede83610fd0565b80516401000000000281529250610ef4836110fe565b92508015610f0857610f0583610e88565b92505b5090919050565b600080640100000000831015610f6f576040805160e560020a62461bcd02815260206004820181905260248201527f6c6f67652066756e6374696f6e20696e70757420697320746f6f20736d616c6c604482015290519081900360640190fd5b610f78836111b4565b67010000000000000066b17217f7d1cf78909102049392505050565b610f9c61182b565b5060408051808201909152602080840180518451858401805188519290930291909202038452519051029082015292915050565b610fd861182b565b6000806000610fea856000015161128a565b9250610ff9856020015161128a565b91508282131561103d576f01000000000000000000000000000000821315611038576050825b9060020a9005905061103185826112a4565b9350611061565b61105d565b6f0100000000000000000000000000000083131561105d5760508361101f565b8493505b505050919050565b61107161182b565b506040805180820190915281518351028152602091820151928201519092029082015290565b61109f61182b565b5060408051808201909152602080840180518451858401805188510291909202018452519051029082015292915050565b6110d861182b565b506040805180820190915260208281015184510282529151928201519092029082015290565b61110661182b565b600061111061182b565b61111861182b565b6020850151855181151561112857fe5b05925064386bfdba2983111561118b57505060408051808201825284516002900581526020808601805182840152835180850190945282518751038452519083015290611174826110fe565b915061117f816110fe565b90506110318282610dc4565b604080519081016040528061119f85611340565b81526401000000006020909101529350611061565b60008080640100000000841015611215576040805160e560020a62461bcd02815260206004820152601760248201527f4c6f673220696e70757420697320746f6f20736d616c6c000000000000000000604482015290519081900360640190fd5b600091505b640200000000841061123c57600290930492640100000000919091019061121a565b5060005b602060ff8216101561128357640100000000848002049350640200000000841061127b576002938490049360ff601f83900316900a91909101905b600101611240565b5092915050565b6000808212611299578161129e565b816000035b92915050565b6112ac61182b565b60208301518212611307576040805160e560020a62461bcd02815260206004820152601b60248201527f6672616374696f6e206e756d626572206973206f766572666c6f770000000000604482015290519081900360640190fd5b604080519081016040528083856000015181151561132157fe5b05815260200183856020015181151561133657fe5b0590529392505050565b600064386bfdba2982111561139f576040805160e560020a62461bcd02815260206004820152601e60248201527f6578702066756e6374696f6e20696e707574206973206f766572666c6f770000604482015290519081900360640190fd5b61129e826000806000602060ff1660019060020a029150816fde1bc4d19efcac82445da75b00000000029050602060ff168483029060020a90049150816fde1bc4d19efcb00000000000000000000281019050602060ff168483029060020a90049150816f6f0de268cf7e580000000000000000000281019050602060ff168483029060020a90049150816f2504a0cd9a7f720000000000000000000281019050602060ff168483029060020a90049150816f09412833669fdc8000000000000000000281019050602060ff168483029060020a90049150816f01d9d4d714865f5000000000000000000281019050602060ff168483029060020a90049150816e4ef8ce836bba8c00000000000000000281019050602060ff168483029060020a90049150816e0b481d807d1aa680000000000000000281019050602060ff168483029060020a90049150816e016903b00fa354d0000000000000000281019050602060ff168483029060020a90049150816d281cdaac677b34000000000000000281019050602060ff168483029060020a90049150816d0402e2aad725eb800000000000000281019050602060ff168483029060020a90049150816c5d5a6c9f31fe240000000000000281019050602060ff168483029060020a90049150816c07c7890d442a830000000000000281019050602060ff168483029060020a90049150816b9931ed5403452800000000000281019050602060ff168483029060020a90049150816b0af147cf24ce1500000000000281019050602060ff168483029060020a90049150816abac08546b867d0000000000281019050602060ff168483029060020a90049150816a0bac08546b867d000000000281019050602060ff168483029060020a900491508169afc441338061b80000000281019050602060ff168483029060020a90049150816909c3cabbc0056e0000000281019050602060ff168483029060020a900491508168839168328705c800000281019050602060ff168483029060020a9004915081680694120286c04a00000281019050602060ff168483029060020a90049150816750319e98b3d2c4000281019050602060ff168483029060020a90049150816703a52a1e36b820200281019050602060ff168483029060020a900491508166289286e0fce0020281019050602060ff168483029060020a90049150816601b0c59eb534000281019050602060ff168483029060020a900491508165114f95b554000281019050602060ff168483029060020a900491508164aa7210d2000281019050602060ff168483029060020a90049150816406501396000281019050602060ff168483029060020a90049150816339b78e800281019050602060ff168483029060020a90049150816301fd80800281019050602060ff168483029060020a90049150816210fbc00281019050602060ff168483029060020a9004915081618c400281019050602060ff168483029060020a90049150816104620281019050602060ff168483029060020a9004915081602202810190506fde1bc4d19efcac82445da75b000000008181151561182257fe5b04949350505050565b604080518082019091526000808252602082015290565b610140604051908101604052806005905b61185b61182b565b815260200190600190039081611853579050509056004f776e61626c653a2063616c6c6572206973206e6f7420746865206f776e6572a165627a7a7230582041da56f7d436a1d1b0949497b722a51c708b78c00dd9d2e65a33f5b6d69018700029",
  "source": "pragma solidity ^0.4.26;\r\nimport \"../optionsPrice.sol\";\r\ncontract OptionsPriceTest is OptionsPrice{\r\n    constructor (address ivContract) OptionsPrice(ivContract) public{\r\n    }\r\n    function testCalculateD1D2_iv(uint256 currentPrice, uint256 strikePrice, uint256 expiration,uint256 ivNumerator,uint256 ivDenominator)\r\n        public view returns(int256,int256,int256,int256){\r\n        Fraction.fractionNumber memory _iv = Fraction.fractionNumber(int256(ivNumerator),int256(ivDenominator));\r\n        (Fraction.fractionNumber memory d1, Fraction.fractionNumber memory d2) = calculateD1D2(currentPrice,strikePrice,expiration,rate,_iv);\r\n        return (d1.numerator,d1.denominator,d2.numerator,d2.denominator);\r\n    }\r\n    function testCalculateND1ND2_iv(uint256 currentPrice, uint256 strikePrice, uint256 expiration,uint256 ivNumerator,uint256 ivDenominator)\r\n        public view returns(int256,int256,int256,int256){\r\n        Fraction.fractionNumber memory _iv = Fraction.fractionNumber(int256(ivNumerator),int256(ivDenominator));\r\n        (Fraction.fractionNumber memory d1, Fraction.fractionNumber memory d2) = calculateD1D2(currentPrice,strikePrice,expiration,rate,_iv);\r\n        d1 = d1.normsDist();\r\n        d2 = d2.normsDist();\r\n        return (d1.numerator,d1.denominator,d2.numerator,d2.denominator);\r\n    }\r\n}",
  "sourcePath": "C:\\work\\solidity\\FinnexusOptions_V2\\contracts\\test\\optionsPriceTest.sol",
  "compiler": {
    "name": "solc",
    "version": "0.4.26+commit.4563c3fc.Emscripten.clang"
  },
  "schemaVersion": "3.1.0",
  "updatedAt": "2020-08-14T00:48:40.310Z",
  "devdoc": {
    "methods": {
      "isOwner()": {
        "details": "Returns true if the caller is the current owner."
      },
      "owner()": {
        "details": "Returns the address of the current owner."
      },
      "renounceOwnership()": {
        "details": "Leaves the contract without owner. It will not be possible to call `onlyOwner` functions anymore. Can only be called by the current owner.     * NOTE: Renouncing ownership will leave the contract without an owner, thereby removing any functionality that is only available to the owner."
      },
      "transferOwnership(address)": {
        "details": "Transfers ownership of the contract to a new account (`newOwner`). Can only be called by the current owner."
      }
    }
  },
  "userdoc": {
    "methods": {}
  }
}