{
  "contractName": "OptionsPool",
  "abi": [
    {
      "constant": true,
      "inputs": [],
      "name": "lastCalBlock_share",
      "outputs": [
        {
          "name": "",
          "type": "uint256"
        }
      ],
      "payable": false,
      "stateMutability": "view",
      "type": "function"
    },
    {
      "constant": true,
      "inputs": [],
      "name": "lastCallOption",
      "outputs": [
        {
          "name": "",
          "type": "uint256"
        }
      ],
      "payable": false,
      "stateMutability": "view",
      "type": "function"
    },
    {
      "constant": true,
      "inputs": [],
      "name": "sharedPhase",
      "outputs": [
        {
          "name": "",
          "type": "uint32"
        }
      ],
      "payable": false,
      "stateMutability": "view",
      "type": "function"
    },
    {
      "constant": false,
      "inputs": [
        {
          "name": "volatility",
          "type": "address"
        }
      ],
      "name": "setVolatilityAddress",
      "outputs": [],
      "payable": false,
      "stateMutability": "nonpayable",
      "type": "function"
    },
    {
      "constant": true,
      "inputs": [],
      "name": "getUnderlyingAssets",
      "outputs": [
        {
          "name": "",
          "type": "uint32[]"
        }
      ],
      "payable": false,
      "stateMutability": "view",
      "type": "function"
    },
    {
      "constant": true,
      "inputs": [
        {
          "name": "",
          "type": "uint256"
        }
      ],
      "name": "expirationList",
      "outputs": [
        {
          "name": "",
          "type": "uint256"
        }
      ],
      "payable": false,
      "stateMutability": "view",
      "type": "function"
    },
    {
      "constant": true,
      "inputs": [
        {
          "name": "",
          "type": "uint256"
        }
      ],
      "name": "underlyingAssets",
      "outputs": [
        {
          "name": "",
          "type": "uint32"
        }
      ],
      "payable": false,
      "stateMutability": "view",
      "type": "function"
    },
    {
      "constant": true,
      "inputs": [],
      "name": "getVolatilityAddress",
      "outputs": [
        {
          "name": "",
          "type": "address"
        }
      ],
      "payable": false,
      "stateMutability": "view",
      "type": "function"
    },
    {
      "constant": false,
      "inputs": [
        {
          "name": "oracle",
          "type": "address"
        }
      ],
      "name": "setOracleAddress",
      "outputs": [],
      "payable": false,
      "stateMutability": "nonpayable",
      "type": "function"
    },
    {
      "constant": true,
      "inputs": [
        {
          "name": "",
          "type": "address"
        },
        {
          "name": "",
          "type": "uint256"
        }
      ],
      "name": "optionsBalances",
      "outputs": [
        {
          "name": "",
          "type": "uint256"
        }
      ],
      "payable": false,
      "stateMutability": "view",
      "type": "function"
    },
    {
      "constant": true,
      "inputs": [],
      "name": "getOptionsPriceAddress",
      "outputs": [
        {
          "name": "",
          "type": "address"
        }
      ],
      "payable": false,
      "stateMutability": "view",
      "type": "function"
    },
    {
      "constant": true,
      "inputs": [],
      "name": "firstOption_share",
      "outputs": [
        {
          "name": "",
          "type": "uint256"
        }
      ],
      "payable": false,
      "stateMutability": "view",
      "type": "function"
    },
    {
      "constant": false,
      "inputs": [],
      "name": "renounceOwnership",
      "outputs": [],
      "payable": false,
      "stateMutability": "nonpayable",
      "type": "function"
    },
    {
      "constant": true,
      "inputs": [],
      "name": "lastCalBlock",
      "outputs": [
        {
          "name": "",
          "type": "uint256"
        }
      ],
      "payable": false,
      "stateMutability": "view",
      "type": "function"
    },
    {
      "constant": true,
      "inputs": [],
      "name": "owner",
      "outputs": [
        {
          "name": "",
          "type": "address"
        }
      ],
      "payable": false,
      "stateMutability": "view",
      "type": "function"
    },
    {
      "constant": true,
      "inputs": [
        {
          "name": "",
          "type": "uint256"
        }
      ],
      "name": "allOptions",
      "outputs": [
        {
          "name": "optionID",
          "type": "uint256"
        },
        {
          "name": "owner",
          "type": "address"
        },
        {
          "name": "optType",
          "type": "uint8"
        },
        {
          "name": "underlying",
          "type": "uint32"
        },
        {
          "name": "expiration",
          "type": "uint256"
        },
        {
          "name": "strikePrice",
          "type": "uint256"
        },
        {
          "name": "amount",
          "type": "uint256"
        }
      ],
      "payable": false,
      "stateMutability": "view",
      "type": "function"
    },
    {
      "constant": true,
      "inputs": [],
      "name": "isOwner",
      "outputs": [
        {
          "name": "",
          "type": "bool"
        }
      ],
      "payable": false,
      "stateMutability": "view",
      "type": "function"
    },
    {
      "constant": false,
      "inputs": [
        {
          "name": "optionsPrice",
          "type": "address"
        }
      ],
      "name": "setOptionsPriceAddress",
      "outputs": [],
      "payable": false,
      "stateMutability": "nonpayable",
      "type": "function"
    },
    {
      "constant": true,
      "inputs": [
        {
          "name": "",
          "type": "uint256"
        },
        {
          "name": "",
          "type": "uint256"
        },
        {
          "name": "",
          "type": "uint256"
        }
      ],
      "name": "burnBlockOptions",
      "outputs": [
        {
          "name": "",
          "type": "uint256"
        }
      ],
      "payable": false,
      "stateMutability": "view",
      "type": "function"
    },
    {
      "constant": false,
      "inputs": [
        {
          "name": "underlying",
          "type": "uint32"
        }
      ],
      "name": "addUnderlyingAsset",
      "outputs": [],
      "payable": false,
      "stateMutability": "nonpayable",
      "type": "function"
    },
    {
      "constant": true,
      "inputs": [],
      "name": "getOracleAddress",
      "outputs": [
        {
          "name": "",
          "type": "address"
        }
      ],
      "payable": false,
      "stateMutability": "view",
      "type": "function"
    },
    {
      "constant": true,
      "inputs": [],
      "name": "optionPhase",
      "outputs": [
        {
          "name": "",
          "type": "uint32"
        }
      ],
      "payable": false,
      "stateMutability": "view",
      "type": "function"
    },
    {
      "constant": false,
      "inputs": [
        {
          "name": "managerAddress",
          "type": "address"
        }
      ],
      "name": "setManager",
      "outputs": [],
      "payable": false,
      "stateMutability": "nonpayable",
      "type": "function"
    },
    {
      "constant": true,
      "inputs": [],
      "name": "getManager",
      "outputs": [
        {
          "name": "",
          "type": "address"
        }
      ],
      "payable": false,
      "stateMutability": "view",
      "type": "function"
    },
    {
      "constant": false,
      "inputs": [
        {
          "name": "removeUnderlying",
          "type": "uint32"
        }
      ],
      "name": "removeUnderlyingAssets",
      "outputs": [
        {
          "name": "",
          "type": "bool"
        }
      ],
      "payable": false,
      "stateMutability": "nonpayable",
      "type": "function"
    },
    {
      "constant": true,
      "inputs": [
        {
          "name": "underlying",
          "type": "uint32"
        }
      ],
      "name": "isEligibleUnderlyingAsset",
      "outputs": [
        {
          "name": "",
          "type": "bool"
        }
      ],
      "payable": false,
      "stateMutability": "view",
      "type": "function"
    },
    {
      "constant": true,
      "inputs": [
        {
          "name": "underlying",
          "type": "uint32"
        }
      ],
      "name": "checkUnderlyingAsset",
      "outputs": [],
      "payable": false,
      "stateMutability": "view",
      "type": "function"
    },
    {
      "constant": false,
      "inputs": [
        {
          "name": "newOwner",
          "type": "address"
        }
      ],
      "name": "transferOwnership",
      "outputs": [],
      "payable": false,
      "stateMutability": "nonpayable",
      "type": "function"
    },
    {
      "inputs": [],
      "payable": false,
      "stateMutability": "nonpayable",
      "type": "constructor"
    },
    {
      "anonymous": false,
      "inputs": [
        {
          "indexed": true,
          "name": "owner",
          "type": "address"
        },
        {
          "indexed": true,
          "name": "optionID",
          "type": "uint256"
        },
        {
          "indexed": false,
          "name": "optType",
          "type": "uint8"
        },
        {
          "indexed": false,
          "name": "underlying",
          "type": "uint32"
        },
        {
          "indexed": false,
          "name": "expiration",
          "type": "uint256"
        },
        {
          "indexed": false,
          "name": "strikePrice",
          "type": "uint256"
        },
        {
          "indexed": false,
          "name": "amount",
          "type": "uint256"
        }
      ],
      "name": "CreateOption",
      "type": "event"
    },
    {
      "anonymous": false,
      "inputs": [
        {
          "indexed": true,
          "name": "owner",
          "type": "address"
        },
        {
          "indexed": true,
          "name": "optionID",
          "type": "uint256"
        },
        {
          "indexed": false,
          "name": "amount",
          "type": "uint256"
        }
      ],
      "name": "BurnOption",
      "type": "event"
    },
    {
      "anonymous": false,
      "inputs": [
        {
          "indexed": true,
          "name": "previousOwner",
          "type": "address"
        },
        {
          "indexed": true,
          "name": "newOwner",
          "type": "address"
        }
      ],
      "name": "OwnershipTransferred",
      "type": "event"
    },
    {
      "constant": true,
      "inputs": [
        {
          "name": "user",
          "type": "address"
        }
      ],
      "name": "getOptionBalances",
      "outputs": [
        {
          "name": "",
          "type": "uint256[]"
        }
      ],
      "payable": false,
      "stateMutability": "view",
      "type": "function"
    },
    {
      "constant": true,
      "inputs": [
        {
          "name": "from",
          "type": "uint256"
        },
        {
          "name": "size",
          "type": "uint256"
        }
      ],
      "name": "getOptionInfoList",
      "outputs": [
        {
          "name": "",
          "type": "address[]"
        },
        {
          "name": "",
          "type": "uint256[]"
        },
        {
          "name": "",
          "type": "uint256[]"
        },
        {
          "name": "",
          "type": "uint256[]"
        },
        {
          "name": "",
          "type": "uint256[]"
        }
      ],
      "payable": false,
      "stateMutability": "view",
      "type": "function"
    },
    {
      "constant": true,
      "inputs": [
        {
          "name": "ids",
          "type": "uint256[]"
        }
      ],
      "name": "getOptionInfoListFromID",
      "outputs": [
        {
          "name": "",
          "type": "address[]"
        },
        {
          "name": "",
          "type": "uint256[]"
        },
        {
          "name": "",
          "type": "uint256[]"
        },
        {
          "name": "",
          "type": "uint256[]"
        },
        {
          "name": "",
          "type": "uint256[]"
        }
      ],
      "payable": false,
      "stateMutability": "view",
      "type": "function"
    },
    {
      "constant": true,
      "inputs": [
        {
          "name": "optionsId",
          "type": "uint256"
        }
      ],
      "name": "getOptionsById",
      "outputs": [
        {
          "name": "",
          "type": "uint256"
        },
        {
          "name": "",
          "type": "address"
        },
        {
          "name": "",
          "type": "uint8"
        },
        {
          "name": "",
          "type": "uint32"
        },
        {
          "name": "",
          "type": "uint256"
        },
        {
          "name": "",
          "type": "uint256"
        },
        {
          "name": "",
          "type": "uint256"
        }
      ],
      "payable": false,
      "stateMutability": "view",
      "type": "function"
    },
    {
      "constant": false,
      "inputs": [
        {
          "name": "index",
          "type": "uint256"
        }
      ],
      "name": "setPhaseOccupiedCollateral",
      "outputs": [],
      "payable": false,
      "stateMutability": "nonpayable",
      "type": "function"
    },
    {
      "constant": false,
      "inputs": [
        {
          "name": "index",
          "type": "uint256"
        },
        {
          "name": "totalOccupied",
          "type": "uint256"
        },
        {
          "name": "beginOption",
          "type": "uint256"
        },
        {
          "name": "lastOption",
          "type": "uint256"
        },
        {
          "name": "lastBlock",
          "type": "uint256"
        }
      ],
      "name": "setCollateralPhase",
      "outputs": [],
      "payable": false,
      "stateMutability": "nonpayable",
      "type": "function"
    },
    {
      "constant": true,
      "inputs": [
        {
          "name": "index",
          "type": "uint256"
        }
      ],
      "name": "calculatePhaseOccupiedCollateral",
      "outputs": [
        {
          "name": "",
          "type": "uint256"
        },
        {
          "name": "",
          "type": "uint256"
        },
        {
          "name": "",
          "type": "uint256"
        },
        {
          "name": "",
          "type": "uint256"
        }
      ],
      "payable": false,
      "stateMutability": "view",
      "type": "function"
    },
    {
      "constant": false,
      "inputs": [
        {
          "name": "index",
          "type": "uint256"
        },
        {
          "name": "_firstOption",
          "type": "uint256"
        },
        {
          "name": "lastBlock",
          "type": "uint256"
        },
        {
          "name": "calTime",
          "type": "uint256"
        }
      ],
      "name": "setSharedState",
      "outputs": [],
      "payable": false,
      "stateMutability": "nonpayable",
      "type": "function"
    },
    {
      "constant": true,
      "inputs": [
        {
          "name": "index",
          "type": "uint256"
        },
        {
          "name": "whiteList",
          "type": "address[]"
        }
      ],
      "name": "calculatePhaseSharedPayment",
      "outputs": [
        {
          "name": "",
          "type": "uint256[]"
        },
        {
          "name": "",
          "type": "uint256"
        },
        {
          "name": "",
          "type": "uint256"
        }
      ],
      "payable": false,
      "stateMutability": "view",
      "type": "function"
    },
    {
      "constant": true,
      "inputs": [
        {
          "name": "beginIndex",
          "type": "uint256"
        },
        {
          "name": "endIndex",
          "type": "uint256"
        },
        {
          "name": "preTime",
          "type": "uint256"
        },
        {
          "name": "whiteList",
          "type": "address[]"
        },
        {
          "name": "totalSharedPayment",
          "type": "uint256[]"
        }
      ],
      "name": "_calBurnedSharePrice",
      "outputs": [
        {
          "name": "",
          "type": "uint256[]"
        }
      ],
      "payable": false,
      "stateMutability": "view",
      "type": "function"
    },
    {
      "constant": false,
      "inputs": [
        {
          "name": "optType",
          "type": "uint8"
        },
        {
          "name": "underlying",
          "type": "uint32"
        },
        {
          "name": "expiration",
          "type": "uint256"
        },
        {
          "name": "strikePrice",
          "type": "uint256"
        },
        {
          "name": "amount",
          "type": "uint256"
        },
        {
          "name": "settlement",
          "type": "address"
        }
      ],
      "name": "createOptions",
      "outputs": [
        {
          "name": "",
          "type": "uint256"
        }
      ],
      "payable": false,
      "stateMutability": "nonpayable",
      "type": "function"
    },
    {
      "constant": true,
      "inputs": [],
      "name": "getTotalOccupiedCollateral",
      "outputs": [
        {
          "name": "",
          "type": "uint256"
        }
      ],
      "payable": false,
      "stateMutability": "view",
      "type": "function"
    },
    {
      "constant": false,
      "inputs": [
        {
          "name": "id",
          "type": "uint256"
        },
        {
          "name": "amount",
          "type": "uint256"
        }
      ],
      "name": "burnOptions",
      "outputs": [],
      "payable": false,
      "stateMutability": "nonpayable",
      "type": "function"
    },
    {
      "constant": true,
      "inputs": [
        {
          "name": "optionsId",
          "type": "uint256"
        },
        {
          "name": "amount",
          "type": "uint256"
        }
      ],
      "name": "getExerciseWorth",
      "outputs": [
        {
          "name": "",
          "type": "uint256"
        }
      ],
      "payable": false,
      "stateMutability": "view",
      "type": "function"
    },
    {
      "constant": true,
      "inputs": [
        {
          "name": "expiration",
          "type": "uint256"
        },
        {
          "name": "underlying",
          "type": "uint32"
        }
      ],
      "name": "buyOptionCheck",
      "outputs": [],
      "payable": false,
      "stateMutability": "view",
      "type": "function"
    },
    {
      "constant": false,
      "inputs": [
        {
          "name": "expiration",
          "type": "uint256"
        }
      ],
      "name": "addExpiration",
      "outputs": [],
      "payable": false,
      "stateMutability": "nonpayable",
      "type": "function"
    },
    {
      "constant": false,
      "inputs": [
        {
          "name": "removeExpiration",
          "type": "uint256"
        }
      ],
      "name": "removeExpirationList",
      "outputs": [
        {
          "name": "",
          "type": "bool"
        }
      ],
      "payable": false,
      "stateMutability": "nonpayable",
      "type": "function"
    },
    {
      "constant": true,
      "inputs": [],
      "name": "getExpirationList",
      "outputs": [
        {
          "name": "",
          "type": "uint256[]"
        }
      ],
      "payable": false,
      "stateMutability": "view",
      "type": "function"
    },
    {
      "constant": true,
      "inputs": [
        {
          "name": "expiration",
          "type": "uint256"
        }
      ],
      "name": "isEligibleExpiration",
      "outputs": [
        {
          "name": "",
          "type": "bool"
        }
      ],
      "payable": false,
      "stateMutability": "view",
      "type": "function"
    },
    {
      "constant": true,
      "inputs": [
        {
          "name": "expiration",
          "type": "uint256"
        }
      ],
      "name": "checkExpiration",
      "outputs": [],
      "payable": false,
      "stateMutability": "view",
      "type": "function"
    }
  ],
  "bytecode": "0x6080604052600b80546101f463ffffffff1991821681179092556000600c5560108054909116909117905534801561003657600080fd5b5060008054600160a060020a0319163317808255604051600160a060020a039190911691907f8be0079c531659141344cd1fd0a4f28419497f9722a3daafe3b4186f6b6457e0908290a3613f608061008f6000396000f30060806040526004361061022c5763ffffffff60e060020a6000350416630438d4908114610231578063048e1efa146103b4578063067b8783146103d15780630860d37b146103f557806311e6c4a21461041c578063132a56271461048d57806316f35a7f146104a25780632967eafe146104d0578063354af360146104f15780633582d7891461054657806336c146f31461055b5780633ad2fb571461057c5780633ad980991461059d5780633b50c4d1146105b557806342e5479d146105cd57806348ee201d146105fe5780634c69c00f1461065d57806355c47cb21461067e5780635ca4b73b146106a257806367290e0d146106b757806367b8ceb9146106cc578063715018a6146106e7578063723931ca146106fc57806373a3d424146107145780637cfff2d8146107295780637e2eeb7e146107415780637e838fa3146107565780638a4046bc146107825780638da5cb5b146107bb5780638ea745b8146107d05780638f32d59b146107e85780639052d5f8146107fd57806399deae0a146108125780639ef975d214610850578063a093e2d014610868578063a95c594a14610889578063ab607154146108a7578063af70df1214610944578063afec82fc14610a00578063b18b78dd14610a1e578063b8a5b7fa14610a33578063c27b7dfb14610a4b578063d0ebdbe714610a60578063d500958414610a81578063d6d1401214610a96578063db6ad2bd14610ab4578063ee29c94a14610ad2578063f2fde38b14610af0575b600080fd5b34801561023d57600080fd5b5061024c600435602435610b11565b60405180806020018060200180602001806020018060200186810386528b818151815260200191508051906020019060200280838360005b8381101561029c578181015183820152602001610284565b5050505090500186810385528a818151815260200191508051906020019060200280838360005b838110156102db5781810151838201526020016102c3565b50505050905001868103845289818151815260200191508051906020019060200280838360005b8381101561031a578181015183820152602001610302565b50505050905001868103835288818151815260200191508051906020019060200280838360005b83811015610359578181015183820152602001610341565b50505050905001868103825287818151815260200191508051906020019060200280838360005b83811015610398578181015183820152602001610380565b505050509050019a505050505050505050505060405180910390f35b3480156103c057600080fd5b506103cf600435602435610d5f565b005b3480156103dd57600080fd5b506103cf600435602435604435606435608435610f1e565b34801561040157600080fd5b5061040a610fa4565b60408051918252519081900360200190f35b34801561042857600080fd5b5061043d600160a060020a0360043516610faa565b60408051602080825283518183015283519192839290830191858101910280838360005b83811015610479578181015183820152602001610461565b505050509050019250505060405180910390f35b34801561049957600080fd5b5061040a611016565b3480156104ae57600080fd5b506104b761101c565b6040805163ffffffff9092168252519081900360200190f35b3480156104dc57600080fd5b506103cf600160a060020a0360043516611028565b3480156104fd57600080fd5b506040805160206004803580820135838102808601850190965280855261024c953695939460249493850192918291850190849080828437509497506110969650505050505050565b34801561055257600080fd5b5061043d6112b0565b34801561056757600080fd5b506103cf600435602435604435606435611335565b34801561058857600080fd5b506103cf60043563ffffffff602435166113f4565b3480156105a957600080fd5b5061040a600435611460565b3480156105c157600080fd5b506104b760043561147f565b3480156105d957600080fd5b506105e26114b7565b60408051600160a060020a039092168252519081900360200190f35b34801561060a57600080fd5b506106166004356114c6565b60408051978852600160a060020a03909616602088015260ff9094168686015263ffffffff9092166060860152608085015260a084015260c0830152519081900360e00190f35b34801561066957600080fd5b506103cf600160a060020a0360043516611529565b34801561068a57600080fd5b5061040a600160a060020a0360043516602435611597565b3480156106ae57600080fd5b506105e26115c7565b3480156106c357600080fd5b5061040a6115d6565b3480156106d857600080fd5b5061040a6004356024356115dc565b3480156106f357600080fd5b506103cf61177a565b34801561070857600080fd5b506103cf600435611810565b34801561072057600080fd5b5061040a611898565b34801561073557600080fd5b506103cf600435611c60565b34801561074d57600080fd5b5061040a611cb7565b34801561076257600080fd5b5061076e600435611cbd565b604080519115158252519081900360200190f35b34801561078e57600080fd5b5061040a60ff6004351663ffffffff60243516604435606435608435600160a060020a0360a43516611d1c565b3480156107c757600080fd5b506105e26120e5565b3480156107dc57600080fd5b506106166004356120f4565b3480156107f457600080fd5b5061076e612154565b34801561080957600080fd5b5061043d612165565b34801561081e57600080fd5b5061082a6004356121bc565b604080519485526020850193909352838301919091526060830152519081900360800190f35b34801561085c57600080fd5b5061076e600435612286565b34801561087457600080fd5b506103cf600160a060020a03600435166122e2565b34801561089557600080fd5b5061040a600435602435604435612350565b3480156108b357600080fd5b50604080516064356004818101356020818102858101820190965281855261043d958335956024803596604435963696909560849592909301929091829185019084908082843750506040805187358901803560208181028481018201909552818452989b9a9989019892975090820195509350839250850190849080828437509497506123909650505050505050565b34801561095057600080fd5b5060408051602060046024803582810135848102808701860190975280865261099e968435963696604495919490910192918291850190849080828437509497506126d49650505050505050565b6040518080602001848152602001838152602001828103825285818151815260200191508051906020019060200280838360005b838110156109ea5781810151838201526020016109d2565b5050505090500194505050505060405180910390f35b348015610a0c57600080fd5b506103cf63ffffffff60043516612791565b348015610a2a57600080fd5b506105e26127e8565b348015610a3f57600080fd5b506103cf6004356127f7565b348015610a5757600080fd5b506104b761286e565b348015610a6c57600080fd5b506103cf600160a060020a036004351661287a565b348015610a8d57600080fd5b506105e26128e8565b348015610aa257600080fd5b5061076e63ffffffff600435166128f7565b348015610ac057600080fd5b5061076e63ffffffff60043516612950565b348015610ade57600080fd5b506103cf63ffffffff600435166129d8565b348015610afc57600080fd5b506103cf600160a060020a0360043516612a5e565b6060806060806060806060806060806000806006805490508d8f011115610b4857600654610b45908f63ffffffff612ab316565b9c505b60008d1115610d4e578c604051908082528060200260200182016040528015610b7b578160200160208202803883390190505b5096508c604051908082528060200260200182016040528015610ba8578160200160208202803883390190505b5095508c604051908082528060200260200182016040528015610bd5578160200160208202803883390190505b5094508c604051908082528060200260200182016040528015610c02578160200160208202803883390190505b5093508c604051908082528060200260200182016040528015610c2f578160200160208202803883390190505b509250600091505b8c821015610d3e57600680548f8401908110610c4f57fe5b6000918252602090912060059091020160018101548851919250600160a060020a031690889084908110610c7f57fe5b600160a060020a0390921660209283029091019091015260018101548651601060ff60a060020a84048116919091011660020a63ffffffff60a860020a90930483160290911690879084908110610cd257fe5b6020908102909101015260028101548551869084908110610cef57fe5b6020908102909101015260038101548451859084908110610d0c57fe5b6020908102909101015260048101548351849084908110610d2957fe5b60209081029091010152600190910190610c37565b86868686869b509b509b509b509b505b505050505050509295509295909350565b610d67613e13565b600254600160a060020a03163314610def576040805160e560020a62461bcd02815260206004820152602660248201527f4d616e6167657261626c653a2063616c6c6572206973206e6f7420746865204d60448201527f616e616765720000000000000000000000000000000000000000000000000000606482015290519081900360840190fd5b610df883612afc565b6040805160e081018252825481526001830154600160a060020a038116602083015260a060020a810460ff169282019290925260a860020a90910463ffffffff16606082015260028201546080820152600382015460a082015260049091015460c08201529050610e6881612b8c565b610e728132612be7565b610e7c8183612c56565b60c0810151610e91908363ffffffff612ab316565b60c082015243600090815260086020908152604080832081518083019092526000198701825281830186905280546001810180835591855292909320610ee09260029081029091019190613e63565b5050604080518381529051849132917f1fb99acdc281bccbecb3d0073a307341181a8a7d3cd532fdaef5ce7200401c2d9181900360200190a3505050565b610f26612154565b1515610f6a576040805160e560020a62461bcd0281526020600482018190526024820152600080516020613f15833981519152604482015290519081900360640190fd5b600c54831115610f7a57600c8390555b81600d541015610f8f57600d829055600e8190555b5050506000918252600f602052604090912055565b60125481565b600160a060020a03811660009081526009602090815260409182902080548351818402810184019094528084526060939283018282801561100a57602002820191906000526020600020905b815481526020019060010190808311610ff6575b50505050509050919050565b600d5481565b60105463ffffffff1681565b611030612154565b1515611074576040805160e560020a62461bcd0281526020600482018190526024820152600080516020613f15833981519152604482015290519081900360640190fd5b60058054600160a060020a031916600160a060020a0392909216919091179055565b6060806060806060600060608060608060606000808d519750876040519080825280602002602001820160405280156110d9578160200160208202803883390190505b50965087604051908082528060200260200182016040528015611106578160200160208202803883390190505b50955087604051908082528060200260200182016040528015611133578160200160208202803883390190505b50945087604051908082528060200260200182016040528015611160578160200160208202803883390190505b5093508760405190808252806020026020018201604052801561118d578160200160208202803883390190505b509250600091505b8782101561129c576111bd8e838151811015156111ae57fe5b90602001906020020151612afc565b60018101548851919250600160a060020a0316908890849081106111dd57fe5b600160a060020a0390921660209283029091019091015260018101548651601060ff60a060020a84048116919091011660020a63ffffffff60a860020a9093048316029091169087908490811061123057fe5b602090810290910101526002810154855186908490811061124d57fe5b602090810290910101526003810154845185908490811061126a57fe5b602090810290910101526004810154835184908490811061128757fe5b60209081029091010152600190910190611195565b50949c939b50919950975095509350505050565b6060600180548060200260200160405190810160405280929190818152602001828054801561132a57602002820191906000526020600020906000905b82829054906101000a900463ffffffff1663ffffffff16815260200190600401906020826003010492830192600103820291508084116112ed5790505b505050505090505b90565b600254600160a060020a031633146113bd576040805160e560020a62461bcd02815260206004820152602660248201527f4d616e6167657261626c653a2063616c6c6572206973206e6f7420746865204d60448201527f616e616765720000000000000000000000000000000000000000000000000000606482015290519081900360840190fd5b6011548311156113cd5760118390555b6012548210156113dd5760128290555b600093845260146020526040909320929092555050565b6113fd81612950565b1515611453576040805160e560020a62461bcd02815260206004820152601f60248201527f756e6465726c79696e6720697320756e737570706f7274656420617373657400604482015290519081900360640190fd5b61145c82611810565b5050565b600a80548290811061146e57fe5b600091825260209091200154905081565b600180548290811061148d57fe5b9060005260206000209060089182820401919006600402915054906101000a900463ffffffff1681565b600554600160a060020a031690565b6000806000806000806000806114db89612afc565b8054600182015460028301546003840154600490940154929d600160a060020a0383169d5060a060020a830460ff169c5060a860020a90920463ffffffff169a509850919650945092505050565b611531612154565b1515611575576040805160e560020a62461bcd0281526020600482018190526024820152600080516020613f15833981519152604482015290519081900360640190fd5b60038054600160a060020a031916600160a060020a0392909216919091179055565b6009602052816000526040600020818154811015156115b257fe5b90600052602060002001600091509150505481565b600454600160a060020a031690565b60115481565b60006115e6613e13565b6000806115f286612afc565b6040805160e081018252825481526001830154600160a060020a038116602083015260a060020a810460ff169282019290925260a860020a90910463ffffffff16606082015260028201546080820152600382015460a082015260049091015460c0820152925061166283612b8c565b61166c8386612c56565b6003546060840151604080517fda66325700000000000000000000000000000000000000000000000000000000815263ffffffff909216600483015251600160a060020a039092169163da663257916024808201926020929091908290030181600087803b1580156116dd57600080fd5b505af11580156116f1573d6000803e3d6000fd5b505050506040513d602081101561170757600080fd5b505160408401519092506000915060ff161515611738578260a00151821115611733575060a082015181035b61174e565b8260a0015182101561174e57818360a001510390505b80151561175e5760009350611771565b61176e818663ffffffff612cb216565b93505b50505092915050565b611782612154565b15156117c6576040805160e560020a62461bcd0281526020600482018190526024820152600080516020613f15833981519152604482015290519081900360640190fd5b60008054604051600160a060020a03909116907f8be0079c531659141344cd1fd0a4f28419497f9722a3daafe3b4186f6b6457e0908390a360008054600160a060020a0319169055565b61181981612286565b1515611895576040805160e560020a62461bcd02815260206004820152602160248201527f65787069726174696f6e2076616c7565206973206e6f7420737570706f72746560448201527f6400000000000000000000000000000000000000000000000000000000000000606482015290519081900360840190fd5b50565b600080600060606000806000806000806000806118b3612d5c565b600154604080518281526020808402820101909152919c509a508a80156118e4578160200160208202803883390190505b509850600097505b898810156119cc5760035460018054600160a060020a039092169163da66325791908b90811061191857fe5b90600052602060002090600891828204019190066004029054906101000a900463ffffffff166040518263ffffffff1660e060020a028152600401808263ffffffff168152602001915050602060405180830381600087803b15801561197d57600080fd5b505af1158015611991573d6000803e3d6000fd5b505050506040513d60208110156119a757600080fd5b505189518a908a9081106119b757fe5b602090810290910101526001909701966118ec565b600654600d5490975060010195505b86861015611ae557611a1c6006878154811015156119f557fe5b906000526020600020906005020160010160159054906101000a900463ffffffff16612ddd565b9450611ad8611acb600688815481101515611a3357fe5b60009182526020918290206040805160e081018252600593909302909101805483526001810154600160a060020a0381169484019490945260a060020a840460ff169183019190915260a860020a90920463ffffffff16606082015260028201546080820152600382015460a082015260049091015460c08201528b518c9089908110611abc57fe5b90602001906020020151612e65565b8c9063ffffffff612ee516565b9a506001909501946119db565b600e5460010193508360011415611afe578a9b50611c52565b438411611c4e5760008481526008602052604081208054919950935091505b81881015611c43578288815481101515611b3357fe5b60009182526020822060029091020101549050611b586006828154811015156119f557fe5b9450611c36611c29600683815481101515611b6f57fe5b60009182526020918290206040805160e081018252600593909302909101805483526001810154600160a060020a0381169484019490945260a060020a840460ff169183019190915260a860020a90920463ffffffff16606082015260028201546080820152600382015460a082015260049091015460c0820152855486908c908110611bf857fe5b60009182526020909120600290910201600101548c89815181101515611c1a57fe5b90602001906020020151612f42565b8c9063ffffffff612ab316565b9a50600190970196611b1d565b600190930192611afe565b8a9b505b505050505050505050505090565b611c68612154565b1515611cac576040805160e560020a62461bcd0281526020600482018190526024820152600080516020613f15833981519152604482015290519081900360640190fd5b611895600a82612f93565b600e5481565b6000611cc7612154565b1515611d0b576040805160e560020a62461bcd0281526020600482018190526024820152600080516020613f15833981519152604482015290519081900360640190fd5b611d16600a8361300a565b92915050565b6000806000611d29613e13565b600254600160a060020a03163314611db1576040805160e560020a62461bcd02815260206004820152602660248201527f4d616e6167657261626c653a2063616c6c6572206973206e6f7420746865204d60448201527f616e616765720000000000000000000000000000000000000000000000000000606482015290519081900360840190fd5b600654600354604080517fda66325700000000000000000000000000000000000000000000000000000000815263ffffffff8d1660048201529051929550600160a060020a039091169163da663257916024808201926020929091908290030181600087803b158015611e2357600080fd5b505af1158015611e37573d6000803e3d6000fd5b505050506040513d6020811015611e4d57600080fd5b81019080805190602001909291905050509150600660e06040519081016040528085600101815260200132600160a060020a031681526020018c60ff1681526020018b63ffffffff1681526020018a815260200189815260200188815250908060018154018082558091505090600182039060005260206000209060050201600090919290919091506000820151816000015560208201518160010160006101000a815481600160a060020a030219169083600160a060020a0316021790555060408201518160010160146101000a81548160ff021916908360ff16021790555060608201518160010160156101000a81548163ffffffff021916908363ffffffff1602179055506080820151816002015560a0820151816003015560c082015181600401555050506009600032600160a060020a0316600160a060020a031681526020019081526020016000208360010190806001815401808255809150509060018203906000526020600020016000909192909190915055508260001415611fdb5743600e8190556012555b6006805484908110611fe957fe5b60009182526020918290206040805160e081018252600593909302909101805483526001810154600160a060020a0381169484019490945260a060020a840460ff169183019190915260a860020a90920463ffffffff16606082015260028201546080820152600382015460a082015260049091015460c0820152905061207081866130b7565b6040805160ff8c16815263ffffffff8b1660208201528082018a905260608101899052608081018890529051600185019132917f18f523957030bee670136363e25b2f847bf1bd07bb7b33c6d5475936a9aac70d9181900360a00190a36120d78183612e65565b9a9950505050505050505050565b600054600160a060020a031690565b600680548290811061210257fe5b600091825260209091206005909102018054600182015460028301546003840154600490940154929450600160a060020a0382169360a060020a830460ff169360a860020a90930463ffffffff169287565b600054600160a060020a0316331490565b6060600a80548060200260200160405190810160405280929190818152602001828054801561132a57602002820191906000526020600020905b81548152602001906001019080831161219f575050505050905090565b6000806000806000806000806000806121f6600b60009054906101000a900463ffffffff1663ffffffff168c612cb290919063ffffffff16565b600654909650945084861061220a57612279565b600b5461222290879063ffffffff90811690612ee516565b93508484111561223457849350612243565b600c5484101561224357612279565b61224d8685613340565b9250925060018403600d541061226557600d5461226a565b600184035b90508282824399509950995099505b5050505050509193509193565b6000611d16600a8054806020026020016040519081016040528092919081815260200182805480156122d757602002820191906000526020600020905b8154815260200190600101908083116122c3575b50505050508361358d565b6122ea612154565b151561232e576040805160e560020a62461bcd0281526020600482018190526024820152600080516020613f15833981519152604482015290519081900360640190fd5b60048054600160a060020a031916600160a060020a0392909216919091179055565b60086020528260005260406000208281548110151561236b57fe5b90600052602060002090600202018160028110151561238657fe5b0154925083915050565b6060600060606000806000806000806000601254600101985088600114156123ba578a99506126c2565b4389116126be57600089815260086020908152604080832080548251818502810185019093528083529193909284015b8282101561243a5760008481526020902060408051808201918290529160028581029091019182845b815481526020019060010190808311612413575050505050815260200190600101906123ea565b50505050975087519650600095505b868610156126b3578e888781518110151561246057fe5b602090810291909101015151108061249157508d888781518110151561248257fe5b60209081029190910101515110155b1561249b576126a8565b600688878151811015156124ab57fe5b602090810291909101015151815481106124c157fe5b90600052602060002090600502019450846002015493508c8410806124ff575087868151811015156124ef57fe5b6020908102919091018101510151155b15612509576126a8565b60076000898881518110151561251b57fe5b60209081029190910181015151825281810192909252604090810160009081206004805460038b015482840154600585015460018e0154885160e060020a63055ef6ab0281529586018490526024860193909352428d0360448601526064850191909152608484015260a060020a900460ff1660a48301529351919750600160a060020a039093169363055ef6ab9360c480820194929392918390030190829087803b1580156125ca57600080fd5b505af11580156125de573d6000803e3d6000fd5b505050506040513d60208110156125f457600080fd5b5051600384015489519193506126499161263d908b908a90811061261457fe5b602090810291909101810151015160028701546126319087612cb2565b9063ffffffff612cb216565b9063ffffffff6135cc16565b6001840154909250612665908d90600160a060020a031661360e565b905061268f828c8381518110151561267957fe5b602090810290910101519063ffffffff612ee516565b8b8281518110151561269d57fe5b602090810290910101525b600190950194612449565b6001909801976123ba565b8a99505b50505050505050505095945050505050565b606060008060008060006060600061270d601060009054906101000a900463ffffffff1663ffffffff168b612cb290919063ffffffff16565b600654909550935083851061272157612785565b60105461273990869063ffffffff90811690612ee516565b92508383111561274b5783925061275a565b60115483101561275a57612785565b60008a81526014602052604090205461277790869085908c61365b565b915091508181439750975097505b50505050509250925092565b612799612154565b15156127dd576040805160e560020a62461bcd0281526020600482018190526024820152600080516020613f15833981519152604482015290519081900360640190fd5b611895600182613804565b600354600160a060020a031690565b600080600080612805612154565b1515612849576040805160e560020a62461bcd0281526020600482018190526024820152600080516020613f15833981519152604482015290519081900360640190fd5b612852856121bc565b93509350935093506128678585858585610f1e565b5050505050565b600b5463ffffffff1681565b612882612154565b15156128c6576040805160e560020a62461bcd0281526020600482018190526024820152600080516020613f15833981519152604482015290519081900360640190fd5b60028054600160a060020a031916600160a060020a0392909216919091179055565b600254600160a060020a031690565b6000612901612154565b1515612945576040805160e560020a62461bcd0281526020600482018190526024820152600080516020613f15833981519152604482015290519081900360640190fd5b611d166001836138cd565b6000611d1660018054806020026020016040519081016040528092919081815260200182805480156129cd57602002820191906000526020600020906000905b82829054906101000a900463ffffffff1663ffffffff16815260200190600401906020826003010492830192600103820291508084116129905790505b5050505050836139c4565b6118956001805480602002602001604051908101604052809291908181526020018280548015612a5357602002820191906000526020600020906000905b82829054906101000a900463ffffffff1663ffffffff1681526020019060040190602082600301049283019260010382029150808411612a165790505b505050505082613a0f565b612a66612154565b1515612aaa576040805160e560020a62461bcd0281526020600482018190526024820152600080516020613f15833981519152604482015290519081900360640190fd5b61189581613a6f565b6000612af583836040805190810160405280601e81526020017f536166654d6174683a207375627472616374696f6e206f766572666c6f770000815250613b50565b9392505050565b60008082118015612b0f57506006548211155b1515612b65576040805160e560020a62461bcd02815260206004820152601660248201527f6f7074696f6e206964206973206e6f7420657869737400000000000000000000604482015290519081900360640190fd5b600680546000198401908110612b7757fe5b90600052602060002090600502019050919050565b60808101514210611895576040805160e560020a62461bcd02815260206004820152601160248201527f6f7074696f6e2069732065787069726564000000000000000000000000000000604482015290519081900360640190fd5b80600160a060020a03168260200151600160a060020a031614151561145c576040805160e560020a62461bcd02815260206004820152601f60248201527f63616c6c6572206973206e6f7420746865206f7074696f6e73206f776e657200604482015290519081900360640190fd5b60c082015181111561145c576040805160e560020a62461bcd02815260206004820152601d60248201527f6f7074696f6e20616d6f756e7420697320696e73756666696369656e74000000604482015290519081900360640190fd5b600080831515612cc55760009150612d55565b50828202828482811515612cd557fe5b0414612d51576040805160e560020a62461bcd02815260206004820152602160248201527f536166654d6174683a206d756c7469706c69636174696f6e206f766572666c6f60448201527f7700000000000000000000000000000000000000000000000000000000000000606482015290519081900360840190fd5b8091505b5092915050565b600b54600c5460009182918291829163ffffffff90911690811515612d7d57fe5b600b5460065492909106935063ffffffff1690811515612d9957fe5b0660010190505b80821015612dd5576000828152600f6020526040902054612dc890849063ffffffff612ee516565b9250600190910190612da0565b509092915050565b6000611d166001805480602002602001604051908101604052809291908181526020018280548015612e5a57602002820191906000526020600020906000905b82829054906101000a900463ffffffff1663ffffffff1681526020019060040190602082600301049283019260010382029150808411612e1d5790505b505050505083613bed565b600080428460800151111580612e7d575060c0840151155b15612e8b5760009150612d55565b5060a08301516040840151600091841060ff909116151415612ec75760c084015160a0850151612ec09163ffffffff612cb216565b9050612d51565b60c0840151612edd90849063ffffffff612cb216565b949350505050565b600082820183811015612d51576040805160e560020a62461bcd02815260206004820152601b60248201527f536166654d6174683a206164646974696f6e206f766572666c6f770000000000604482015290519081900360640190fd5b60a08301516040840151600091829160ff16159084101415612f7a5760a0850151612f73908563ffffffff612cb216565b9050612edd565b612f8a838563ffffffff612cb216565b95945050505050565b612fec82805480602002602001604051908101604052809291908181526020018280548015612fe157602002820191906000526020600020905b815481526020019060010190808311612fcd575b50505050508261358d565b151561145c5781546001810183556000928352602090922090910155565b8154600090815b818110156130465783858281548110151561302857fe5b9060005260206000200154141561303e57613046565b600101613011565b818110156130aa576000198201811461309057846001830381548110151561306a57fe5b9060005260206000200154858281548110151561308357fe5b6000918252602090912001555b84546130a0866000198301613ea1565b50600192506130af565b600092505b505092915050565b60a08201516080830151600554604080517fad1bb833000000000000000000000000000000000000000000000000000000008152600481018590524290930360248401819052815190936000938493849384938493600160a060020a03169263ad1bb8339260448084019382900301818787803b15801561313757600080fd5b505af115801561314b573d6000803e3d6000fd5b505050506040513d604081101561316157600080fd5b508051602091820151600354604080517f41976e09000000000000000000000000000000000000000000000000000000008152600160a060020a038e811660048301529151949a5092985016926341976e09926024808401938290030181600087803b1580156131d057600080fd5b505af11580156131e4573d6000803e3d6000fd5b505050506040513d60208110156131fa57600080fd5b5051600480546040808d0151815160e060020a63055ef6ab0281529384018c9052602484018c9052604484018b9052606484018a90526084840189905260ff1660a484015251929550600160a060020a03169163055ef6ab9160c4808201926020929091908290030181600087803b15801561327557600080fd5b505af1158015613289573d6000803e3d6000fd5b505050506040513d602081101561329f57600080fd5b505191506132b3828463ffffffff6135cc16565b6040805160c081018252428152600160a060020a039a8b1660208083019182528284019485526060830196875260808301998a5260a083019889529c516000190160009081526007909d5291909b209a518b555160018b018054600160a060020a03191691909a161790985550955160028801555093516003860155516004850155505051600590910155565b60008060008060006060600080600080600c549750878c11159650861561336557879b505b600154604080518281526020808402820101909152909650868015613394578160200160208202803883390190505b509450600093505b8584101561347c5760035460018054600160a060020a039092169163da6632579190879081106133c857fe5b90600052602060002090600891828204019190066004029054906101000a900463ffffffff166040518263ffffffff1660e060020a028152600401808263ffffffff168152602001915050602060405180830381600087803b15801561342d57600080fd5b505af1158015613441573d6000803e3d6000fd5b505050506040513d602081101561345757600080fd5b5051855186908690811061346757fe5b6020908102909101015260019093019261339c565b600092505b8a8c10156135715761349b60068d8154811015156119f557fe5b915061353860068d8154811015156134af57fe5b60009182526020918290206040805160e081018252600593909302909101805483526001810154600160a060020a0381169484019490945260a060020a840460ff169183019190915260a860020a90920463ffffffff16606082015260028201546080820152600382015460a082015260049091015460c08201528651879085908110611abc57fe5b90508680156135475750600081115b15613554578b9750600096505b613564838263ffffffff612ee516565b6001909c019b9250613481565b861561357b578b97505b50909a95995094975050505050505050565b8151600090815b818110156130aa578385828151811015156135ab57fe5b9060200190602002015114156135c457600192506130af565b600101613594565b6000612af583836040805190810160405280601a81526020017f536166654d6174683a206469766973696f6e206279207a65726f000000000000815250613c34565b8151600090815b81811015612edd5783600160a060020a0316858281518110151561363557fe5b90602001906020020151600160a060020a0316141561365357612edd565b600101613615565b60606000806000606060008060008060006011549750878e11159650861561368157879d505b8a516040519080825280602002602001820160405280156136ac578160200160208202803883390190505b5095505b8c8e10156137d557600680548f9081106136c657fe5b90600052602060002090600502019450846002015493508b8410806136ed57506004850154155b156136f7576137ca565b8615613705578d9750600096505b600760008f8152602001908152602001600020925061374a8c8460000154868860030154876004015488600501548b60010160149054906101000a900460ff16613ca0565b91509150808211156137ca5760018301549181900391613774908c90600160a060020a031661360e565b935061379d836003015461263d8760040154612631868860020154612cb290919063ffffffff16565b90506137b181878681518110151561267957fe5b86858151811015156137bf57fe5b602090810290910101525b6001909d019c6136b0565b86156137e3578d9750600096505b6137f08e8e8e8e8a612390565b9e979d50969b505050505050505050505050565b6138898280548060200260200160405190810160405280929190818152602001828054801561387e57602002820191906000526020600020906000905b82829054906101000a900463ffffffff1663ffffffff16815260200190600401906020826003010492830192600103820291508084116138415790505b5050505050826139c4565b151561145c578154600181018355600092835260209092206008830401805460079093166004026101000a63ffffffff818102199094169290931692909202179055565b8154600090815b81811015613928578363ffffffff1685828154811015156138f157fe5b6000918252602090912060088204015460079091166004026101000a900463ffffffff16141561392057613928565b6001016138d4565b818110156130aa57600019820181146139b457846001830381548110151561394c57fe5b90600052602060002090600891828204019190066004029054906101000a900463ffffffff16858281548110151561398057fe5b90600052602060002090600891828204019190066004026101000a81548163ffffffff021916908363ffffffff1602179055505b84546130a0866000198301613eca565b8151600090815b818110156130aa578363ffffffff1685828151811015156139e857fe5b9060200190602002015163ffffffff161415613a0757600192506130af565b6001016139cb565b613a1982826139c4565b151561145c576040805160e560020a62461bcd02815260206004820152601f60248201527f77686974654c6973743a207573696e6720696e76616c69642075696e74333200604482015290519081900360640190fd5b600160a060020a0381161515613af5576040805160e560020a62461bcd02815260206004820152602660248201527f4f776e61626c653a206e6577206f776e657220697320746865207a65726f206160448201527f6464726573730000000000000000000000000000000000000000000000000000606482015290519081900360840190fd5b60008054604051600160a060020a03808516939216917f8be0079c531659141344cd1fd0a4f28419497f9722a3daafe3b4186f6b6457e091a360008054600160a060020a031916600160a060020a0392909216919091179055565b6000808285851115613be35760405160e560020a62461bcd0281526004018080602001828103825283818151815260200191508051906020019080838360005b83811015613ba8578181015183820152602001613b90565b50505050905090810190601f168015613bd55780820380516001836020036101000a031916815260200191505b509250505060405180910390fd5b5050509103919050565b8151600090815b81811015612edd578363ffffffff168582815181101515613c1157fe5b9060200190602002015163ffffffff161415613c2c57612edd565b600101613bf4565b60008082818511613c8a5760405160e560020a62461bcd02815260040180806020018281038252838181518152602001915080519060200190808383600083811015613ba8578181015183820152602001613b90565b508385811515613c9657fe5b0495945050505050565b60008060008060008a8c11613cb7578a8a03613cbb565b8b8a035b600480546040805160e060020a63055ef6ab0281529283018d9052602483018d905260448301849052606483018c9052608483018b905260ff8a1660a484015251929550600160a060020a03169163055ef6ab9160c4808201926020929091908290030181600087803b158015613d3157600080fd5b505af1158015613d45573d6000803e3d6000fd5b505050506040513d6020811015613d5b57600080fd5b5051600480546040805160e060020a63055ef6ab0281529283018d9052602483018d9052428e036044840152606483018c9052608483018b905260ff8a1660a484015251929450600160a060020a03169163055ef6ab9160c4808201926020929091908290030181600087803b158015613dd457600080fd5b505af1158015613de8573d6000803e3d6000fd5b505050506040513d6020811015613dfe57600080fd5b5051919c919b50909950505050505050505050565b60e060405190810160405280600081526020016000600160a060020a03168152602001600060ff168152602001600063ffffffff1681526020016000815260200160008152602001600081525090565b8260028101928215613e91579160200282015b82811115613e91578251825591602001919060010190613e76565b50613e9d929150613efa565b5090565b815481835581811115613ec557600083815260209020613ec5918101908301613efa565b505050565b815481835581811115613ec5576007016008900481600701600890048360005260206000209182019101613ec591905b61133291905b80821115613e9d5760008155600101613f0056004f776e61626c653a2063616c6c6572206973206e6f7420746865206f776e6572a165627a7a7230582020bce6360e5cb39e231de83b61605ba24661fb78b77e57d2e6e3695842b9f13a0029",
  "source": "pragma solidity ^0.4.26;\r\nimport \"./modules/SafeMath.sol\";\r\nimport \"./modules/Managerable.sol\";\r\nimport \"./interfaces/ICompoundOracle.sol\";\r\nimport \"./modules/underlyingAssets.sol\";\r\nimport \"./interfaces/IOptionsPrice.sol\";\r\nimport \"./interfaces/IVolatility.sol\";\r\ncontract OptionsPool is UnderlyingAssets,Managerable,ImportOracle,ImportOptionsPrice,ImportVolatility {\r\n    \r\n    using SafeMath for uint256;\r\n    struct OptionsInfo {\r\n        uint256     optionID;\r\n        address     owner;\r\n        uint8   \toptType;    //0 for call, 1 for put\r\n        uint32\t\tunderlying;\r\n        uint256\t\texpiration;\r\n        uint256     strikePrice;\r\n        uint256     amount;\r\n    }\r\n\r\n    struct OptionsInfoEx{\r\n        uint256\t\tcreatedTime;\r\n        address     settlement;\r\n        uint256     tokenTimePrice;\r\n        uint256     fullPrice;\r\n        uint256      ivNumerator;\r\n        uint256      ivDenominator;\r\n    }\r\n    //options information\r\n    OptionsInfo[] public allOptions;\r\n    mapping(uint256=>OptionsInfoEx) internal optionExtraMap;\r\n    //each block burn options\r\n    mapping(uint256=>uint256[2][]) public burnBlockOptions;\r\n    //user options balances\r\n    mapping(address=>uint256[]) public optionsBalances;\r\n    //expiration whitelist\r\n    uint256[] public expirationList;\r\n\r\n    //calculate options Collateral occupied phases\r\n    uint32 public optionPhase = 500;\r\n    uint256 internal firstOption = 0;\r\n    uint256 public lastCallOption;\r\n    uint256 public lastCalBlock;\r\n    mapping(uint256=>uint256) internal OptionsPhases;\r\n\r\n    //calculate Options time shared value phasea\r\n    uint32 public sharedPhase = 500;\r\n    uint256 public firstOption_share;\r\n    uint256 public lastCalBlock_share;\r\n    mapping (uint256 =>mapping (address => uint256)) internal OptionsPhaseBalances;\r\n    mapping (uint256 =>uint256) internal OptionsPhaseTimes;\r\n\r\n\r\n    event CreateOption(address indexed owner,uint256 indexed optionID,uint8 optType,uint32 underlying,uint256 expiration,uint256 strikePrice,uint256 amount);\r\n    event BurnOption(address indexed owner,uint256 indexed optionID,uint amount);\r\n    constructor () public{\r\n    }\r\n    function getOptionBalances(address user)public view returns(uint256[]){\r\n        return optionsBalances[user];\r\n    }\r\n    function getOptionInfoList(uint256 from,uint256 size)public view \r\n                returns(address[],uint256[],uint256[],uint256[],uint256[]){\r\n        if (from+size>allOptions.length){\r\n            size = allOptions.length.sub(from);\r\n        }\r\n        if (size>0){\r\n            address[] memory ownerArr = new address[](size);\r\n            uint256[] memory typeAndUnderArr = new uint256[](size);\r\n            uint256[] memory expArr = new uint256[](size);\r\n            uint256[] memory priceArr = new uint256[](size);\r\n            uint256[] memory amountArr = new uint256[](size);\r\n            for (uint i=0;i<size;i++){\r\n                OptionsInfo storage info = allOptions[from+i];\r\n                ownerArr[i] = info.owner;\r\n                typeAndUnderArr[i] = info.underlying << 16 + info.optType;\r\n                expArr[i] = info.expiration;\r\n                priceArr[i] = info.strikePrice;\r\n                amountArr[i] = info.amount;\r\n            }\r\n            return (ownerArr,typeAndUnderArr,expArr,priceArr,amountArr);\r\n        }\r\n    }\r\n    function getOptionInfoListFromID(uint256[] ids)public view \r\n                returns(address[],uint256[],uint256[],uint256[],uint256[]){\r\n        uint256 size = ids.length;\r\n        address[] memory ownerArr = new address[](size);\r\n        uint256[] memory typeAndUnderArr = new uint256[](size);\r\n        uint256[] memory expArr = new uint256[](size);\r\n        uint256[] memory priceArr = new uint256[](size);\r\n        uint256[] memory amountArr = new uint256[](size);\r\n        for (uint i=0;i<size;i++){\r\n            OptionsInfo storage info = _getOptionsById(ids[i]);\r\n            ownerArr[i] = info.owner;\r\n            typeAndUnderArr[i] = info.underlying << 16 + info.optType;\r\n            expArr[i] = info.expiration;\r\n            priceArr[i] = info.strikePrice;\r\n            amountArr[i] = info.amount;\r\n        }\r\n        return (ownerArr,typeAndUnderArr,expArr,priceArr,amountArr);\r\n    }\r\n    function getOptionsById(uint256 optionsId)public view returns(uint256,address,uint8,uint32,uint256,uint256,uint256){\r\n        OptionsInfo storage info = _getOptionsById(optionsId);\r\n        return (info.optionID,info.owner,info.optType,info.underlying,info.expiration,info.strikePrice,info.amount);\r\n    }\r\n\r\n    function setPhaseOccupiedCollateral(uint256 index) public onlyOwner {\r\n        (uint256 totalOccupied,uint256 beginOption,uint256 lastOption,uint256 blockNum) = calculatePhaseOccupiedCollateral(index);\r\n        setCollateralPhase(index,totalOccupied,beginOption,lastOption,blockNum);\r\n    }\r\n    function setCollateralPhase(uint256 index,uint256 totalOccupied,uint256 beginOption,uint256 lastOption,uint256 lastBlock) public onlyOwner{\r\n        if (beginOption > firstOption){\r\n            firstOption = beginOption;\r\n        }\r\n        if(lastCallOption < lastOption){\r\n            lastCallOption = lastOption;\r\n            lastCalBlock = lastBlock;\r\n        }\r\n        OptionsPhases[index] = totalOccupied;\r\n    }\r\n    function calculatePhaseOccupiedCollateral(uint256 index) public view returns(uint256,uint256,uint256,uint256){\r\n        uint256 beginOption = index.mul(optionPhase);\r\n        uint256 allLen = allOptions.length;\r\n        if (beginOption>=allLen){\r\n            return;\r\n        }\r\n        uint256 lastOption = beginOption.add(optionPhase);\r\n        if (lastOption>allLen) {\r\n            lastOption = allLen;\r\n        }else if(lastOption < firstOption){\r\n            return;\r\n        }\r\n        (uint256 totalOccupied,uint256 newFirstOption) = _calculateOccupiedCollateral(beginOption,lastOption);\r\n        uint256 last = lastCallOption<lastOption-1 ? lastOption-1 : lastCallOption;\r\n        return (totalOccupied,newFirstOption,last,block.number);\r\n    }\r\n    function _calculateOccupiedCollateral(uint256 begin,uint256 end)internal view returns(uint256,uint256){\r\n        uint256 newFirstOption = firstOption;\r\n        bool bfirstPhase = begin <= newFirstOption;\r\n        if (bfirstPhase) {\r\n            begin = newFirstOption;\r\n        }\r\n        uint256 underlyingLen = underlyingAssets.length;\r\n        uint256[] memory prices = new uint256[](underlyingLen);\r\n        for (uint256 i = 0;i<underlyingLen;i++){\r\n            prices[i] = _oracle.getUnderlyingPrice(underlyingAssets[i]);\r\n        }\r\n        uint256 totalOccupied = 0;\r\n        for (;begin<end;begin++){\r\n            uint256 index = _getEligibleUnderlyingIndex(allOptions[begin].underlying);\r\n            uint256 value = calOptionsCollateral(allOptions[begin],prices[index]);\r\n            if (bfirstPhase && value > 0){\r\n                newFirstOption = begin;\r\n                bfirstPhase = false;\r\n            }\r\n            totalOccupied = totalOccupied.add(value);\r\n        }\r\n        //all options in this phase are empty;\r\n        if (bfirstPhase){\r\n            newFirstOption = begin;\r\n        }\r\n        return (totalOccupied,newFirstOption);\r\n    }\r\n    function setSharedState(uint256 index,uint256 _firstOption,uint256 lastBlock,uint256 calTime) public onlyManager{\r\n        if (_firstOption > firstOption_share){\r\n            firstOption_share = _firstOption;\r\n        }\r\n        if(lastBlock < lastCalBlock_share){\r\n            lastCalBlock_share = lastBlock;\r\n        }\r\n        OptionsPhaseTimes[index] = calTime;\r\n    }\r\n    function calculatePhaseSharedPayment(uint256 index,address[] whiteList) public view returns(uint256[],uint256,uint256){\r\n        uint256 beginOption = index.mul(sharedPhase);\r\n        uint256 allLen = allOptions.length;\r\n        if (beginOption>=allLen){\r\n            return;\r\n        }\r\n        uint256 lastOption = beginOption.add(sharedPhase);\r\n        if (lastOption>allLen) {\r\n            lastOption = allLen;\r\n        }else if(lastOption < firstOption_share){\r\n            return;\r\n        }\r\n        (uint256[] memory sharedBalances,uint256 _firstOption) = _calculateSharedPayment(beginOption,lastOption,OptionsPhaseTimes[index],whiteList);\r\n        return (sharedBalances,_firstOption,block.number);\r\n    }\r\n    function _calculateSharedPayment(uint256 begin,uint256 end,uint256 preTime,address[] whiteList)internal view returns(uint256[],uint256){\r\n        uint256 newFirstOption = firstOption_share;\r\n        bool bfirstPhase = begin <= newFirstOption;\r\n        if (bfirstPhase) {\r\n            begin = newFirstOption;\r\n        }\r\n        uint256[] memory totalSharedPayment = new uint256[](whiteList.length);\r\n        for (;begin<end;begin++){\r\n            OptionsInfo storage info = allOptions[begin];\r\n            uint256 tempValue = info.expiration;\r\n            if(tempValue<preTime || info.amount == 0){\r\n                continue;\r\n            }\r\n            if(bfirstPhase){\r\n                newFirstOption = begin;\r\n                bfirstPhase = false;\r\n            }\r\n            OptionsInfoEx storage optionEx = optionExtraMap[begin];\r\n            (uint256 preValue,uint256 nowValue) = _calculateTimePrice(preTime,optionEx.createdTime,tempValue,info.strikePrice,\r\n                    optionEx.ivNumerator,optionEx.ivDenominator,info.optType);\r\n            if (preValue > nowValue){\r\n                preValue = preValue - nowValue;\r\n                tempValue = whiteListAddress._getEligibleIndexAddress(whiteList,optionEx.settlement);\r\n                nowValue = optionEx.tokenTimePrice.mul((preValue)).mul(info.amount).div(optionEx.fullPrice);\r\n                totalSharedPayment[tempValue] = totalSharedPayment[tempValue].add(nowValue);\r\n            }\r\n        }\r\n        //all options in this phase are empty;\r\n        if(bfirstPhase){\r\n            newFirstOption = begin;\r\n            bfirstPhase = false;\r\n        }\r\n        //burned\r\n        return (_calBurnedSharePrice(begin,end,preTime,whiteList,totalSharedPayment),newFirstOption);\r\n    }\r\n    function _calBurnedSharePrice(uint256 beginIndex,uint256 endIndex,uint256 preTime,address[] whiteList,uint256[] memory totalSharedPayment)public view returns(uint256[]){\r\n        uint256 beginBlock = lastCalBlock_share+1;\r\n        if (beginBlock == 1){\r\n            return totalSharedPayment;\r\n        }\r\n        for (; beginBlock <= block.number;beginBlock++){\r\n            uint256[2][] memory burnedTokens = burnBlockOptions[beginBlock];\r\n            uint burnedLen = burnedTokens.length;\r\n            for (uint256 i = 0;i<burnedLen;i++){\r\n                if(burnedTokens[i][0]<beginIndex || burnedTokens[i][0] >=endIndex){\r\n                   continue;\r\n                }\r\n                OptionsInfo storage info = allOptions[burnedTokens[i][0]];\r\n                uint256 expiration = info.expiration;\r\n                if(expiration<preTime || burnedTokens[i][1] == 0){\r\n                    continue;\r\n                }\r\n                OptionsInfoEx storage optionEx = optionExtraMap[burnedTokens[i][0]];\r\n                uint256 nowValue = _optionsPrice.getOptionsPrice_iv(info.strikePrice,info.strikePrice,expiration-now,optionEx.ivNumerator,\r\n                    optionEx.ivDenominator,info.optType);\r\n                nowValue = optionEx.tokenTimePrice.mul(nowValue).mul(burnedTokens[i][1]).div(optionEx.fullPrice);\r\n                uint256 index = whiteListAddress._getEligibleIndexAddress(whiteList,optionEx.settlement);\r\n                totalSharedPayment[index] = totalSharedPayment[index].add(nowValue);\r\n            }\r\n        }       \r\n        return totalSharedPayment;\r\n    }\r\n    function _calculateTimePrice(uint256 preTime,uint256 createdTime,uint256 expiration,\r\n            uint256 strikePrice,uint256 ivNumerator,uint256 ivDenominator,uint8 optType)internal view returns (uint256,uint256){\r\n        uint256 preExpiration = preTime>createdTime ? expiration - preTime : expiration - createdTime;\r\n        uint256 preValue = _optionsPrice.getOptionsPrice_iv(strikePrice,strikePrice,preExpiration,ivNumerator,\r\n            ivDenominator,optType);\r\n        uint256 nowValue = _optionsPrice.getOptionsPrice_iv(strikePrice,strikePrice,expiration-now,ivNumerator,\r\n            ivDenominator,optType);\r\n        return (preValue,nowValue);\r\n    }\r\n    function createOptions(uint8 optType,uint32 underlying,uint256 expiration,uint256 strikePrice,\r\n        uint256 amount,address settlement) onlyManager public returns (uint256) {\r\n        uint256 optionID = allOptions.length;\r\n        uint256 underlyingPrice =  _oracle.getUnderlyingPrice(underlying);\r\n        allOptions.push(OptionsInfo(optionID+1,tx.origin,optType,underlying,expiration,strikePrice,amount));\r\n        optionsBalances[tx.origin].push(optionID+1);\r\n        if (optionID == 0){\r\n            lastCalBlock = block.number;\r\n            lastCalBlock_share = block.number;\r\n        }\r\n        OptionsInfo memory info = allOptions[optionID];\r\n        setOptionsExtra(info,settlement);\r\n        emit CreateOption(tx.origin,optionID+1,optType,underlying,expiration,strikePrice,amount);\r\n        return calOptionsCollateral(info,underlyingPrice);\r\n    }\r\n    function setOptionsExtra(OptionsInfo memory info,address settlement) internal{\r\n        uint256 strikePrice = info.strikePrice;\r\n        uint256 expiration = info.expiration - now;\r\n        (uint256 ivNumerator,uint256 ivDenominator) = _volatility.calculateIv(strikePrice,expiration);\r\n        uint256 settlePrice = _oracle.getPrice(settlement);\r\n        uint256 fullPrice = _optionsPrice.getOptionsPrice_iv(strikePrice,strikePrice,expiration,ivNumerator,ivDenominator,info.optType);\r\n        uint256 tokenTimePrice = fullPrice.div(settlePrice);\r\n        optionExtraMap[info.optionID-1]= OptionsInfoEx(now,settlement,tokenTimePrice,fullPrice,ivNumerator,ivDenominator);\r\n    }\r\n    function getTotalOccupiedCollateral() public view returns (uint256) {\r\n        uint256 totalOccupied = sumOptionPhases();\r\n        uint underlyingLen = underlyingAssets.length;\r\n        uint256[] memory prices = new uint256[](underlyingLen);\r\n        for (uint256 i = 0;i<underlyingLen;i++){\r\n            prices[i] = _oracle.getUnderlyingPrice(underlyingAssets[i]);\r\n        }\r\n        uint optionsLen = allOptions.length;\r\n        for (uint256 beginOption = lastCallOption+1; beginOption < optionsLen;beginOption++){\r\n            uint256 index = _getEligibleUnderlyingIndex(allOptions[beginOption].underlying);\r\n            totalOccupied = totalOccupied.add(calOptionsCollateral(allOptions[beginOption],prices[index]));\r\n        }\r\n        uint256 beginBlock = lastCalBlock+1;\r\n        if (beginBlock == 1){\r\n            return totalOccupied;\r\n        }\r\n        for (; beginBlock <= block.number;beginBlock++){\r\n            uint256[2][] storage burnedTokens = burnBlockOptions[beginBlock];\r\n            uint burnedLen = burnedTokens.length;\r\n            for (i = 0;i<burnedLen;i++){\r\n                uint optionId = burnedTokens[i][0];\r\n                index = _getEligibleUnderlyingIndex(allOptions[optionId].underlying);\r\n                totalOccupied = totalOccupied.sub(calBurnedOptionsCollateral(allOptions[optionId],\r\n                    burnedTokens[i][1],prices[index]));\r\n            }\r\n        }\r\n        return totalOccupied;\r\n    }\r\n    function sumOptionPhases()internal view returns(uint256){\r\n        uint256 totalOccupied = 0;\r\n        uint256 i = firstOption%optionPhase;\r\n        uint256 phaseLen = allOptions.length%optionPhase+1;\r\n        for (;i<phaseLen;i++){\r\n            totalOccupied = totalOccupied.add(OptionsPhases[i]);\r\n        }\r\n        return totalOccupied;\r\n    }\r\n    function calOptionsCollateral(OptionsInfo memory option,uint256 underlyingPrice)internal view returns(uint256){\r\n        if (option.expiration<=now || option.amount == 0){\r\n            return 0;\r\n        }\r\n        uint256 totalOccupied = 0;\r\n        if ((option.optType == 0) == (option.strikePrice>underlyingPrice)){ // call\r\n            totalOccupied = option.strikePrice.mul(option.amount);\r\n        } else {\r\n            totalOccupied = underlyingPrice.mul(option.amount);\r\n        }\r\n        return totalOccupied;\r\n    }\r\n    function calBurnedOptionsCollateral(OptionsInfo memory option,uint256 burned,uint256 underlyingPrice)internal pure returns(uint256){\r\n        uint256 totalOccupied = 0;\r\n        if ((option.optType == 0) == (option.strikePrice>underlyingPrice)){ // call\r\n            totalOccupied = option.strikePrice.mul(burned);\r\n        } else {\r\n            totalOccupied = underlyingPrice.mul(burned);\r\n        }\r\n        return totalOccupied;\r\n    }\r\n    function burnOptions(uint256 id,uint256 amount)public onlyManager{\r\n        OptionsInfo memory info = _getOptionsById(id);\r\n        checkEligible(info);\r\n        checkOwner(info,tx.origin);\r\n        checkSufficient(info,amount);\r\n        info.amount = info.amount.sub(amount);\r\n        burnBlockOptions[block.number].push([id-1,amount]);\r\n        emit BurnOption(tx.origin,id,amount);\r\n    }\r\n    function getExerciseWorth(uint256 optionsId,uint256 amount)public view returns(uint256){\r\n        OptionsInfo memory info = _getOptionsById(optionsId);\r\n        checkEligible(info);\r\n        checkSufficient(info,amount);\r\n        uint256 underlyingPrice = _oracle.getUnderlyingPrice(info.underlying);\r\n        uint256 tokenPayback = 0;\r\n        if (info.optType == 0){\r\n            if (underlyingPrice > info.strikePrice){\r\n                tokenPayback = underlyingPrice - info.strikePrice;\r\n            }\r\n        }else{\r\n            if ( underlyingPrice < info.strikePrice){\r\n                tokenPayback = info.strikePrice-underlyingPrice;\r\n            }\r\n        }\r\n        if (tokenPayback == 0 ){\r\n            return 0;\r\n        } \r\n        return tokenPayback.mul(amount);\r\n    }\r\n    function _getOptionsById(uint256 id)internal view returns(OptionsInfo storage){\r\n        require(id>0 && id <= allOptions.length,\"option id is not exist\");\r\n        return allOptions[id-1];\r\n    }\r\n    function checkEligible(OptionsInfo memory info)internal view{\r\n        require(info.expiration>now,\"option is expired\");\r\n    }\r\n    function checkOwner(OptionsInfo memory info,address owner)internal pure{\r\n        require(info.owner == owner,\"caller is not the options owner\");\r\n    }\r\n    function checkSufficient(OptionsInfo memory info,uint256 amount) internal pure{\r\n        require(info.amount >= amount,\"option amount is insufficient\");\r\n    }\r\n    function buyOptionCheck(uint256 expiration,uint32 underlying)public view{\r\n        require(isEligibleUnderlyingAsset(underlying) , \"underlying is unsupported asset\");\r\n        checkExpiration(expiration);\r\n    }\r\n        /**\r\n     * @dev Implementation of add an eligible expiration into the expirationList.\r\n     * @param expiration new eligible expiration.\r\n     */\r\n    function addExpiration(uint256 expiration)public onlyOwner{\r\n        whiteListUint256.addWhiteListUint256(expirationList,expiration);\r\n    }\r\n    /**\r\n     * @dev Implementation of revoke an invalid expiration from the expirationList.\r\n     * @param removeExpiration revoked expiration.\r\n     */\r\n    function removeExpirationList(uint256 removeExpiration)public onlyOwner returns(bool) {\r\n        return whiteListUint256.removeWhiteListUint256(expirationList,removeExpiration);\r\n    }\r\n    /**\r\n     * @dev Implementation of getting the eligible expirationList.\r\n     */\r\n    function getExpirationList()public view returns (uint256[]){\r\n        return expirationList;\r\n    }\r\n    /**\r\n     * @dev Implementation of testing whether the input expiration is eligible.\r\n     * @param expiration input expiration for testing.\r\n     */    \r\n    function isEligibleExpiration(uint256 expiration) public view returns (bool){\r\n        return whiteListUint256.isEligibleUint256(expirationList,expiration);\r\n    }\r\n    function checkExpiration(uint256 expiration) public view{\r\n        return require(isEligibleExpiration(expiration),\"expiration value is not supported\");\r\n    }\r\n    function _getEligibleExpirationIndex(uint256 expiration) internal view returns (uint256){\r\n        return whiteListUint256._getEligibleIndexUint256(expirationList,expiration);\r\n    }\r\n\r\n}",
  "sourcePath": "C:\\work\\solidity\\FinnexusOptions_V2\\contracts\\OptionsPool.sol",
  "compiler": {
    "name": "solc",
    "version": "0.4.26+commit.4563c3fc.Emscripten.clang"
  },
  "schemaVersion": "3.1.0",
  "updatedAt": "2020-07-21T01:43:31.190Z",
  "devdoc": {
    "methods": {
      "addExpiration(uint256)": {
        "details": "Implementation of add an eligible expiration into the expirationList.\r",
        "params": {
          "expiration": "new eligible expiration.\r"
        }
      },
      "addUnderlyingAsset(uint32)": {
        "details": "Implementation of add an eligible underlying into the underlyingAssets.\r",
        "params": {
          "underlying": "new eligible underlying.\r"
        }
      },
      "getExpirationList()": {
        "details": "Implementation of getting the eligible expirationList.\r"
      },
      "getUnderlyingAssets()": {
        "details": "Implementation of getting the eligible underlyingAssets.\r"
      },
      "isEligibleExpiration(uint256)": {
        "details": "Implementation of testing whether the input expiration is eligible.\r",
        "params": {
          "expiration": "input expiration for testing.\r"
        }
      },
      "isEligibleUnderlyingAsset(uint32)": {
        "details": "Implementation of testing whether the input underlying is eligible.\r",
        "params": {
          "underlying": "input underlying for testing.\r"
        }
      },
      "isOwner()": {
        "details": "Returns true if the caller is the current owner."
      },
      "owner()": {
        "details": "Returns the address of the current owner."
      },
      "removeExpirationList(uint256)": {
        "details": "Implementation of revoke an invalid expiration from the expirationList.\r",
        "params": {
          "removeExpiration": "revoked expiration.\r"
        }
      },
      "removeUnderlyingAssets(uint32)": {
        "details": "Implementation of revoke an invalid underlying from the underlyingAssets.\r",
        "params": {
          "removeUnderlying": "revoked underlying.\r"
        }
      },
      "renounceOwnership()": {
        "details": "Leaves the contract without owner. It will not be possible to call `onlyOwner` functions anymore. Can only be called by the current owner.     * NOTE: Renouncing ownership will leave the contract without an owner, thereby removing any functionality that is only available to the owner."
      },
      "transferOwnership(address)": {
        "details": "Transfers ownership of the contract to a new account (`newOwner`). Can only be called by the current owner."
      }
    }
  },
  "userdoc": {
    "methods": {
      "setManager(address)": {
        "notice": "contribution period to stop or not."
      }
    }
  }
}