{
  "contractName": "OptionsManagerV2",
  "abi": [
    {
      "constant": true,
      "inputs": [
        {
          "name": "",
          "type": "address"
        }
      ],
      "name": "lockedBalances",
      "outputs": [
        {
          "name": "",
          "type": "uint256"
        }
      ],
      "payable": false,
      "stateMutability": "view",
      "type": "function"
    },
    {
      "constant": true,
      "inputs": [
        {
          "name": "tmpAddress",
          "type": "address"
        }
      ],
      "name": "checkAddressRedeemOut",
      "outputs": [
        {
          "name": "",
          "type": "bool"
        }
      ],
      "payable": false,
      "stateMutability": "view",
      "type": "function"
    },
    {
      "constant": true,
      "inputs": [],
      "name": "name",
      "outputs": [
        {
          "name": "",
          "type": "string"
        }
      ],
      "payable": false,
      "stateMutability": "view",
      "type": "function"
    },
    {
      "constant": false,
      "inputs": [
        {
          "name": "spender",
          "type": "address"
        },
        {
          "name": "amount",
          "type": "uint256"
        }
      ],
      "name": "approve",
      "outputs": [
        {
          "name": "",
          "type": "bool"
        }
      ],
      "payable": false,
      "stateMutability": "nonpayable",
      "type": "function"
    },
    {
      "constant": true,
      "inputs": [],
      "name": "getWhiteList",
      "outputs": [
        {
          "name": "",
          "type": "address[]"
        }
      ],
      "payable": false,
      "stateMutability": "view",
      "type": "function"
    },
    {
      "constant": true,
      "inputs": [],
      "name": "getLeftCollateral",
      "outputs": [
        {
          "name": "",
          "type": "uint256"
        }
      ],
      "payable": false,
      "stateMutability": "view",
      "type": "function"
    },
    {
      "constant": true,
      "inputs": [
        {
          "name": "",
          "type": "address"
        }
      ],
      "name": "netWorthBalances",
      "outputs": [
        {
          "name": "",
          "type": "uint256"
        }
      ],
      "payable": false,
      "stateMutability": "view",
      "type": "function"
    },
    {
      "constant": true,
      "inputs": [],
      "name": "totalSupply",
      "outputs": [
        {
          "name": "",
          "type": "uint256"
        }
      ],
      "payable": false,
      "stateMutability": "view",
      "type": "function"
    },
    {
      "constant": false,
      "inputs": [
        {
          "name": "optionsPool",
          "type": "address"
        }
      ],
      "name": "setOptionsPoolAddress",
      "outputs": [],
      "payable": false,
      "stateMutability": "nonpayable",
      "type": "function"
    },
    {
      "constant": false,
      "inputs": [
        {
          "name": "removeAddress",
          "type": "address"
        }
      ],
      "name": "removeWhiteList",
      "outputs": [
        {
          "name": "",
          "type": "bool"
        }
      ],
      "payable": false,
      "stateMutability": "nonpayable",
      "type": "function"
    },
    {
      "constant": false,
      "inputs": [
        {
          "name": "sender",
          "type": "address"
        },
        {
          "name": "recipient",
          "type": "address"
        },
        {
          "name": "amount",
          "type": "uint256"
        }
      ],
      "name": "transferFrom",
      "outputs": [
        {
          "name": "",
          "type": "bool"
        }
      ],
      "payable": false,
      "stateMutability": "nonpayable",
      "type": "function"
    },
    {
      "constant": true,
      "inputs": [
        {
          "name": "",
          "type": "address"
        }
      ],
      "name": "balances",
      "outputs": [
        {
          "name": "",
          "type": "uint256"
        }
      ],
      "payable": false,
      "stateMutability": "view",
      "type": "function"
    },
    {
      "constant": true,
      "inputs": [
        {
          "name": "",
          "type": "address"
        }
      ],
      "name": "collateralBalances",
      "outputs": [
        {
          "name": "",
          "type": "uint256"
        }
      ],
      "payable": false,
      "stateMutability": "view",
      "type": "function"
    },
    {
      "constant": false,
      "inputs": [],
      "name": "redeemAll",
      "outputs": [],
      "payable": false,
      "stateMutability": "nonpayable",
      "type": "function"
    },
    {
      "constant": true,
      "inputs": [],
      "name": "decimals",
      "outputs": [
        {
          "name": "",
          "type": "uint8"
        }
      ],
      "payable": false,
      "stateMutability": "view",
      "type": "function"
    },
    {
      "constant": true,
      "inputs": [
        {
          "name": "strikePrice",
          "type": "uint256"
        },
        {
          "name": "underlyingPrice",
          "type": "uint256"
        },
        {
          "name": "amount",
          "type": "uint256"
        },
        {
          "name": "optType",
          "type": "uint8"
        }
      ],
      "name": "calOptionsOccupied",
      "outputs": [
        {
          "name": "",
          "type": "uint256"
        }
      ],
      "payable": false,
      "stateMutability": "view",
      "type": "function"
    },
    {
      "constant": true,
      "inputs": [
        {
          "name": "feeType",
          "type": "uint256"
        },
        {
          "name": "amount",
          "type": "uint256"
        }
      ],
      "name": "calculateFee",
      "outputs": [
        {
          "name": "",
          "type": "uint256"
        }
      ],
      "payable": false,
      "stateMutability": "view",
      "type": "function"
    },
    {
      "constant": false,
      "inputs": [
        {
          "name": "spender",
          "type": "address"
        },
        {
          "name": "addedValue",
          "type": "uint256"
        }
      ],
      "name": "increaseAllowance",
      "outputs": [
        {
          "name": "",
          "type": "bool"
        }
      ],
      "payable": false,
      "stateMutability": "nonpayable",
      "type": "function"
    },
    {
      "constant": true,
      "inputs": [
        {
          "name": "user",
          "type": "address"
        }
      ],
      "name": "getUserPayingUsd",
      "outputs": [
        {
          "name": "",
          "type": "uint256"
        }
      ],
      "payable": false,
      "stateMutability": "view",
      "type": "function"
    },
    {
      "constant": true,
      "inputs": [
        {
          "name": "account",
          "type": "address"
        }
      ],
      "name": "getUserTotalWorth",
      "outputs": [
        {
          "name": "",
          "type": "uint256"
        }
      ],
      "payable": false,
      "stateMutability": "view",
      "type": "function"
    },
    {
      "constant": false,
      "inputs": [
        {
          "name": "oracle",
          "type": "address"
        }
      ],
      "name": "setOracleAddress",
      "outputs": [],
      "payable": false,
      "stateMutability": "nonpayable",
      "type": "function"
    },
    {
      "constant": true,
      "inputs": [],
      "name": "getBuyerMinerRate",
      "outputs": [
        {
          "name": "",
          "type": "uint256"
        }
      ],
      "payable": false,
      "stateMutability": "view",
      "type": "function"
    },
    {
      "constant": true,
      "inputs": [
        {
          "name": "",
          "type": "address"
        }
      ],
      "name": "feeBalances",
      "outputs": [
        {
          "name": "",
          "type": "uint256"
        }
      ],
      "payable": false,
      "stateMutability": "view",
      "type": "function"
    },
    {
      "constant": true,
      "inputs": [],
      "name": "collateralRate",
      "outputs": [
        {
          "name": "numerator",
          "type": "uint256"
        },
        {
          "name": "denominator",
          "type": "uint256"
        }
      ],
      "payable": false,
      "stateMutability": "view",
      "type": "function"
    },
    {
      "constant": true,
      "inputs": [],
      "name": "getFNXMinePoolAddress",
      "outputs": [
        {
          "name": "",
          "type": "address"
        }
      ],
      "payable": false,
      "stateMutability": "view",
      "type": "function"
    },
    {
      "constant": true,
      "inputs": [
        {
          "name": "",
          "type": "uint256"
        }
      ],
      "name": "whiteList",
      "outputs": [
        {
          "name": "",
          "type": "address"
        }
      ],
      "payable": false,
      "stateMutability": "view",
      "type": "function"
    },
    {
      "constant": true,
      "inputs": [],
      "name": "getOptionsPriceAddress",
      "outputs": [
        {
          "name": "",
          "type": "address"
        }
      ],
      "payable": false,
      "stateMutability": "view",
      "type": "function"
    },
    {
      "constant": false,
      "inputs": [
        {
          "name": "thousandths",
          "type": "uint256"
        }
      ],
      "name": "setBuyerMinerRate",
      "outputs": [],
      "payable": false,
      "stateMutability": "nonpayable",
      "type": "function"
    },
    {
      "constant": false,
      "inputs": [
        {
          "name": "collateral",
          "type": "address"
        },
        {
          "name": "amount",
          "type": "uint256"
        }
      ],
      "name": "addCollateral",
      "outputs": [],
      "payable": true,
      "stateMutability": "payable",
      "type": "function"
    },
    {
      "constant": false,
      "inputs": [
        {
          "name": "fnxMinePool",
          "type": "address"
        }
      ],
      "name": "setFNXMinePoolAddress",
      "outputs": [],
      "payable": false,
      "stateMutability": "nonpayable",
      "type": "function"
    },
    {
      "constant": true,
      "inputs": [
        {
          "name": "account",
          "type": "address"
        }
      ],
      "name": "balanceOf",
      "outputs": [
        {
          "name": "",
          "type": "uint256"
        }
      ],
      "payable": false,
      "stateMutability": "view",
      "type": "function"
    },
    {
      "constant": false,
      "inputs": [],
      "name": "renounceOwnership",
      "outputs": [],
      "payable": false,
      "stateMutability": "nonpayable",
      "type": "function"
    },
    {
      "constant": true,
      "inputs": [
        {
          "name": "tmpAddress",
          "type": "address"
        }
      ],
      "name": "isEligibleAddress",
      "outputs": [
        {
          "name": "",
          "type": "bool"
        }
      ],
      "payable": false,
      "stateMutability": "view",
      "type": "function"
    },
    {
      "constant": true,
      "inputs": [
        {
          "name": "",
          "type": "address"
        }
      ],
      "name": "lockedTotalWorth",
      "outputs": [
        {
          "name": "",
          "type": "uint256"
        }
      ],
      "payable": false,
      "stateMutability": "view",
      "type": "function"
    },
    {
      "constant": true,
      "inputs": [],
      "name": "getCollateralRate",
      "outputs": [
        {
          "name": "",
          "type": "uint256"
        },
        {
          "name": "",
          "type": "uint256"
        }
      ],
      "payable": false,
      "stateMutability": "view",
      "type": "function"
    },
    {
      "constant": true,
      "inputs": [],
      "name": "owner",
      "outputs": [
        {
          "name": "",
          "type": "address"
        }
      ],
      "payable": false,
      "stateMutability": "view",
      "type": "function"
    },
    {
      "constant": true,
      "inputs": [],
      "name": "isOwner",
      "outputs": [
        {
          "name": "",
          "type": "bool"
        }
      ],
      "payable": false,
      "stateMutability": "view",
      "type": "function"
    },
    {
      "constant": false,
      "inputs": [
        {
          "name": "currency",
          "type": "address"
        }
      ],
      "name": "redeem",
      "outputs": [],
      "payable": false,
      "stateMutability": "nonpayable",
      "type": "function"
    },
    {
      "constant": true,
      "inputs": [],
      "name": "symbol",
      "outputs": [
        {
          "name": "",
          "type": "string"
        }
      ],
      "payable": false,
      "stateMutability": "view",
      "type": "function"
    },
    {
      "constant": false,
      "inputs": [
        {
          "name": "calInfo",
          "type": "uint256"
        }
      ],
      "name": "setPhaseSharedPayment",
      "outputs": [],
      "payable": false,
      "stateMutability": "nonpayable",
      "type": "function"
    },
    {
      "constant": false,
      "inputs": [
        {
          "name": "optionsPrice",
          "type": "address"
        }
      ],
      "name": "setOptionsPriceAddress",
      "outputs": [],
      "payable": false,
      "stateMutability": "nonpayable",
      "type": "function"
    },
    {
      "constant": false,
      "inputs": [
        {
          "name": "tokenAmount",
          "type": "uint256"
        },
        {
          "name": "collateral",
          "type": "address"
        }
      ],
      "name": "redeemCollateral",
      "outputs": [],
      "payable": false,
      "stateMutability": "nonpayable",
      "type": "function"
    },
    {
      "constant": false,
      "inputs": [
        {
          "name": "spender",
          "type": "address"
        },
        {
          "name": "subtractedValue",
          "type": "uint256"
        }
      ],
      "name": "decreaseAllowance",
      "outputs": [
        {
          "name": "",
          "type": "bool"
        }
      ],
      "payable": false,
      "stateMutability": "nonpayable",
      "type": "function"
    },
    {
      "constant": true,
      "inputs": [
        {
          "name": "account",
          "type": "address"
        }
      ],
      "name": "calCollateralWorth",
      "outputs": [
        {
          "name": "",
          "type": "uint256[]"
        }
      ],
      "payable": false,
      "stateMutability": "view",
      "type": "function"
    },
    {
      "constant": false,
      "inputs": [
        {
          "name": "recipient",
          "type": "address"
        },
        {
          "name": "amount",
          "type": "uint256"
        }
      ],
      "name": "transfer",
      "outputs": [
        {
          "name": "",
          "type": "bool"
        }
      ],
      "payable": false,
      "stateMutability": "nonpayable",
      "type": "function"
    },
    {
      "constant": true,
      "inputs": [],
      "name": "getOracleAddress",
      "outputs": [
        {
          "name": "",
          "type": "address"
        }
      ],
      "payable": false,
      "stateMutability": "view",
      "type": "function"
    },
    {
      "constant": false,
      "inputs": [
        {
          "name": "operator",
          "type": "address"
        }
      ],
      "name": "setOperator",
      "outputs": [],
      "payable": false,
      "stateMutability": "nonpayable",
      "type": "function"
    },
    {
      "constant": true,
      "inputs": [
        {
          "name": "user",
          "type": "address"
        },
        {
          "name": "collateral",
          "type": "address"
        }
      ],
      "name": "userInputCollateral",
      "outputs": [
        {
          "name": "",
          "type": "uint256"
        }
      ],
      "payable": false,
      "stateMutability": "view",
      "type": "function"
    },
    {
      "constant": true,
      "inputs": [],
      "name": "halted",
      "outputs": [
        {
          "name": "",
          "type": "bool"
        }
      ],
      "payable": false,
      "stateMutability": "view",
      "type": "function"
    },
    {
      "constant": true,
      "inputs": [
        {
          "name": "tmpAddress",
          "type": "address"
        }
      ],
      "name": "checkAddressPayIn",
      "outputs": [
        {
          "name": "",
          "type": "bool"
        }
      ],
      "payable": false,
      "stateMutability": "view",
      "type": "function"
    },
    {
      "constant": false,
      "inputs": [
        {
          "name": "feeType",
          "type": "uint256"
        },
        {
          "name": "numerator",
          "type": "uint256"
        },
        {
          "name": "denominator",
          "type": "uint256"
        }
      ],
      "name": "setTransactionFee",
      "outputs": [],
      "payable": false,
      "stateMutability": "nonpayable",
      "type": "function"
    },
    {
      "constant": true,
      "inputs": [],
      "name": "getOptionsPoolAddress",
      "outputs": [
        {
          "name": "",
          "type": "address"
        }
      ],
      "payable": false,
      "stateMutability": "view",
      "type": "function"
    },
    {
      "constant": false,
      "inputs": [
        {
          "name": "addAddress",
          "type": "address"
        },
        {
          "name": "permission",
          "type": "uint256"
        }
      ],
      "name": "modifyPermission",
      "outputs": [],
      "payable": false,
      "stateMutability": "nonpayable",
      "type": "function"
    },
    {
      "constant": true,
      "inputs": [
        {
          "name": "account",
          "type": "address"
        }
      ],
      "name": "getLockedBalance",
      "outputs": [
        {
          "name": "",
          "type": "uint256"
        },
        {
          "name": "",
          "type": "uint256"
        }
      ],
      "payable": false,
      "stateMutability": "view",
      "type": "function"
    },
    {
      "constant": true,
      "inputs": [],
      "name": "getTokenNetworth",
      "outputs": [
        {
          "name": "",
          "type": "uint256"
        }
      ],
      "payable": false,
      "stateMutability": "view",
      "type": "function"
    },
    {
      "constant": true,
      "inputs": [
        {
          "name": "settlement",
          "type": "address"
        }
      ],
      "name": "getFeeBalance",
      "outputs": [
        {
          "name": "",
          "type": "uint256"
        }
      ],
      "payable": false,
      "stateMutability": "view",
      "type": "function"
    },
    {
      "constant": false,
      "inputs": [
        {
          "name": "calInfo",
          "type": "uint256"
        },
        {
          "name": "sharedBalances",
          "type": "int256[]"
        },
        {
          "name": "prices",
          "type": "uint256[]"
        },
        {
          "name": "firstOption",
          "type": "uint256"
        },
        {
          "name": "calTime",
          "type": "uint256"
        }
      ],
      "name": "setSharedPayment",
      "outputs": [],
      "payable": false,
      "stateMutability": "nonpayable",
      "type": "function"
    },
    {
      "constant": true,
      "inputs": [],
      "name": "getOccupiedCollateral",
      "outputs": [
        {
          "name": "",
          "type": "uint256"
        }
      ],
      "payable": false,
      "stateMutability": "view",
      "type": "function"
    },
    {
      "constant": true,
      "inputs": [
        {
          "name": "feeType",
          "type": "uint256"
        }
      ],
      "name": "getFeeRate",
      "outputs": [
        {
          "name": "",
          "type": "uint256"
        },
        {
          "name": "",
          "type": "uint256"
        }
      ],
      "payable": false,
      "stateMutability": "view",
      "type": "function"
    },
    {
      "constant": true,
      "inputs": [],
      "name": "getTotalCollateral",
      "outputs": [
        {
          "name": "",
          "type": "uint256"
        }
      ],
      "payable": false,
      "stateMutability": "view",
      "type": "function"
    },
    {
      "constant": true,
      "inputs": [],
      "name": "getUnlockedCollateral",
      "outputs": [
        {
          "name": "",
          "type": "uint256"
        }
      ],
      "payable": false,
      "stateMutability": "view",
      "type": "function"
    },
    {
      "constant": true,
      "inputs": [
        {
          "name": "owner",
          "type": "address"
        },
        {
          "name": "spender",
          "type": "address"
        }
      ],
      "name": "allowance",
      "outputs": [
        {
          "name": "",
          "type": "uint256"
        }
      ],
      "payable": false,
      "stateMutability": "view",
      "type": "function"
    },
    {
      "constant": true,
      "inputs": [
        {
          "name": "",
          "type": "address"
        }
      ],
      "name": "userCollateralPaying",
      "outputs": [
        {
          "name": "",
          "type": "uint256"
        }
      ],
      "payable": false,
      "stateMutability": "view",
      "type": "function"
    },
    {
      "constant": true,
      "inputs": [
        {
          "name": "",
          "type": "uint256"
        }
      ],
      "name": "FeeRates",
      "outputs": [
        {
          "name": "numerator",
          "type": "uint256"
        },
        {
          "name": "denominator",
          "type": "uint256"
        }
      ],
      "payable": false,
      "stateMutability": "view",
      "type": "function"
    },
    {
      "constant": true,
      "inputs": [],
      "name": "getAvailableCollateral",
      "outputs": [
        {
          "name": "",
          "type": "uint256"
        }
      ],
      "payable": false,
      "stateMutability": "view",
      "type": "function"
    },
    {
      "constant": false,
      "inputs": [
        {
          "name": "addAddress",
          "type": "address"
        }
      ],
      "name": "addWhiteList",
      "outputs": [],
      "payable": false,
      "stateMutability": "nonpayable",
      "type": "function"
    },
    {
      "constant": true,
      "inputs": [],
      "name": "getOperator",
      "outputs": [
        {
          "name": "",
          "type": "address"
        }
      ],
      "payable": false,
      "stateMutability": "view",
      "type": "function"
    },
    {
      "constant": false,
      "inputs": [
        {
          "name": "numerator",
          "type": "uint256"
        },
        {
          "name": "denominator",
          "type": "uint256"
        }
      ],
      "name": "setCollateralRate",
      "outputs": [],
      "payable": false,
      "stateMutability": "nonpayable",
      "type": "function"
    },
    {
      "constant": true,
      "inputs": [],
      "name": "getAllFeeBalances",
      "outputs": [
        {
          "name": "",
          "type": "address[]"
        },
        {
          "name": "",
          "type": "uint256[]"
        }
      ],
      "payable": false,
      "stateMutability": "view",
      "type": "function"
    },
    {
      "constant": false,
      "inputs": [
        {
          "name": "newOwner",
          "type": "address"
        }
      ],
      "name": "transferOwnership",
      "outputs": [],
      "payable": false,
      "stateMutability": "nonpayable",
      "type": "function"
    },
    {
      "constant": false,
      "inputs": [
        {
          "name": "halt",
          "type": "bool"
        }
      ],
      "name": "setHalt",
      "outputs": [],
      "payable": false,
      "stateMutability": "nonpayable",
      "type": "function"
    },
    {
      "inputs": [
        {
          "name": "oracleAddr",
          "type": "address"
        },
        {
          "name": "optionsPriceAddr",
          "type": "address"
        },
        {
          "name": "optionsPoolAddr",
          "type": "address"
        },
        {
          "name": "MinePoolAddr",
          "type": "address"
        }
      ],
      "payable": false,
      "stateMutability": "nonpayable",
      "type": "constructor"
    },
    {
      "anonymous": false,
      "inputs": [
        {
          "indexed": true,
          "name": "from",
          "type": "address"
        },
        {
          "indexed": true,
          "name": "settlement",
          "type": "address"
        },
        {
          "indexed": true,
          "name": "optionId",
          "type": "uint256"
        },
        {
          "indexed": false,
          "name": "optionPrice",
          "type": "uint256"
        },
        {
          "indexed": false,
          "name": "settlementAmount",
          "type": "uint256"
        },
        {
          "indexed": false,
          "name": "optionAmount",
          "type": "uint256"
        }
      ],
      "name": "BuyOption",
      "type": "event"
    },
    {
      "anonymous": false,
      "inputs": [
        {
          "indexed": true,
          "name": "from",
          "type": "address"
        },
        {
          "indexed": true,
          "name": "optionId",
          "type": "uint256"
        },
        {
          "indexed": false,
          "name": "amount",
          "type": "uint256"
        },
        {
          "indexed": false,
          "name": "sellValue",
          "type": "uint256"
        }
      ],
      "name": "SellOption",
      "type": "event"
    },
    {
      "anonymous": false,
      "inputs": [
        {
          "indexed": true,
          "name": "from",
          "type": "address"
        },
        {
          "indexed": true,
          "name": "optionId",
          "type": "uint256"
        },
        {
          "indexed": false,
          "name": "amount",
          "type": "uint256"
        },
        {
          "indexed": false,
          "name": "sellValue",
          "type": "uint256"
        }
      ],
      "name": "ExerciseOption",
      "type": "event"
    },
    {
      "anonymous": false,
      "inputs": [
        {
          "indexed": false,
          "name": "value0",
          "type": "uint256"
        },
        {
          "indexed": false,
          "name": "value1",
          "type": "uint256"
        },
        {
          "indexed": false,
          "name": "value2",
          "type": "uint256"
        },
        {
          "indexed": false,
          "name": "value3",
          "type": "uint256"
        }
      ],
      "name": "DebugEvent",
      "type": "event"
    },
    {
      "anonymous": false,
      "inputs": [
        {
          "indexed": true,
          "name": "from",
          "type": "address"
        },
        {
          "indexed": true,
          "name": "collateral",
          "type": "address"
        },
        {
          "indexed": false,
          "name": "amount",
          "type": "uint256"
        },
        {
          "indexed": false,
          "name": "tokenAmount",
          "type": "uint256"
        }
      ],
      "name": "AddCollateral",
      "type": "event"
    },
    {
      "anonymous": false,
      "inputs": [
        {
          "indexed": true,
          "name": "from",
          "type": "address"
        },
        {
          "indexed": false,
          "name": "collateral",
          "type": "address"
        },
        {
          "indexed": false,
          "name": "allRedeem",
          "type": "uint256"
        }
      ],
      "name": "RedeemCollateral",
      "type": "event"
    },
    {
      "anonymous": false,
      "inputs": [
        {
          "indexed": true,
          "name": "value1",
          "type": "uint256"
        },
        {
          "indexed": true,
          "name": "value2",
          "type": "uint256"
        },
        {
          "indexed": true,
          "name": "value3",
          "type": "uint256"
        }
      ],
      "name": "DebugEvent",
      "type": "event"
    },
    {
      "anonymous": false,
      "inputs": [
        {
          "indexed": true,
          "name": "owner",
          "type": "address"
        },
        {
          "indexed": false,
          "name": "amount",
          "type": "uint256"
        },
        {
          "indexed": false,
          "name": "worth",
          "type": "uint256"
        }
      ],
      "name": "AddLocked",
      "type": "event"
    },
    {
      "anonymous": false,
      "inputs": [
        {
          "indexed": true,
          "name": "owner",
          "type": "address"
        },
        {
          "indexed": false,
          "name": "amount",
          "type": "uint256"
        },
        {
          "indexed": false,
          "name": "worth",
          "type": "uint256"
        }
      ],
      "name": "BurnLocked",
      "type": "event"
    },
    {
      "anonymous": false,
      "inputs": [
        {
          "indexed": true,
          "name": "recieptor",
          "type": "address"
        },
        {
          "indexed": true,
          "name": "settlement",
          "type": "address"
        },
        {
          "indexed": false,
          "name": "payback",
          "type": "uint256"
        }
      ],
      "name": "FeePayback",
      "type": "event"
    },
    {
      "anonymous": false,
      "inputs": [
        {
          "indexed": true,
          "name": "settlement",
          "type": "address"
        },
        {
          "indexed": false,
          "name": "payback",
          "type": "uint256"
        }
      ],
      "name": "AddFee",
      "type": "event"
    },
    {
      "anonymous": false,
      "inputs": [
        {
          "indexed": true,
          "name": "recieptor",
          "type": "address"
        },
        {
          "indexed": true,
          "name": "settlement",
          "type": "address"
        },
        {
          "indexed": false,
          "name": "payback",
          "type": "uint256"
        }
      ],
      "name": "TransferPayback",
      "type": "event"
    },
    {
      "anonymous": false,
      "inputs": [
        {
          "indexed": true,
          "name": "previousOwner",
          "type": "address"
        },
        {
          "indexed": true,
          "name": "newOwner",
          "type": "address"
        }
      ],
      "name": "OwnershipTransferred",
      "type": "event"
    },
    {
      "anonymous": false,
      "inputs": [
        {
          "indexed": true,
          "name": "from",
          "type": "address"
        },
        {
          "indexed": true,
          "name": "to",
          "type": "address"
        },
        {
          "indexed": false,
          "name": "value",
          "type": "uint256"
        }
      ],
      "name": "Transfer",
      "type": "event"
    },
    {
      "anonymous": false,
      "inputs": [
        {
          "indexed": true,
          "name": "owner",
          "type": "address"
        },
        {
          "indexed": true,
          "name": "spender",
          "type": "address"
        },
        {
          "indexed": false,
          "name": "value",
          "type": "uint256"
        }
      ],
      "name": "Approval",
      "type": "event"
    },
    {
      "constant": false,
      "inputs": [
        {
          "name": "settlement",
          "type": "address"
        },
        {
          "name": "settlementAmount",
          "type": "uint256"
        },
        {
          "name": "strikePrice",
          "type": "uint256"
        },
        {
          "name": "underlying",
          "type": "uint32"
        },
        {
          "name": "expiration",
          "type": "uint256"
        },
        {
          "name": "amount",
          "type": "uint256"
        },
        {
          "name": "optType",
          "type": "uint8"
        }
      ],
      "name": "buyOption",
      "outputs": [],
      "payable": true,
      "stateMutability": "payable",
      "type": "function"
    },
    {
      "constant": false,
      "inputs": [
        {
          "name": "optionsId",
          "type": "uint256"
        },
        {
          "name": "amount",
          "type": "uint256"
        }
      ],
      "name": "sellOption",
      "outputs": [],
      "payable": false,
      "stateMutability": "nonpayable",
      "type": "function"
    },
    {
      "constant": false,
      "inputs": [
        {
          "name": "optionsId",
          "type": "uint256"
        },
        {
          "name": "amount",
          "type": "uint256"
        }
      ],
      "name": "exerciseOption",
      "outputs": [],
      "payable": false,
      "stateMutability": "nonpayable",
      "type": "function"
    }
  ],
  "bytecode": "0x6000805460ff191681556003556004805460a060020a60ff021916905560c0604052600a60808190527f536861726564436f696e0000000000000000000000000000000000000000000060a09081526200005d91600b919062000525565b506040805180820190915260058082527f53436f696e0000000000000000000000000000000000000000000000000000006020909201918252620000a491600c9162000525565b506000600d5560408051808201909152600380825260016020909201829052601355601455348015620000d657600080fd5b5060405160808062006053833981016040818152825160208401519184015160609094015160048054600160a060020a031916331790819055919492939091600160a060020a0316906000907f8be0079c531659141344cd1fd0a4f28419497f9722a3daafe3b4186f6b6457e0908290a360408051808201825260038082526103e8602080840182815260088054600181810183556000838152975160029283027ff3f7a9fe364faab93b216da50a3214154f22a0a2b415b23a84c8169e8b636ee38181019290925594517ff3f7a9fe364faab93b216da50a3214154f22a0a2b415b23a84c8169e8b636ee4958601558951808b018b5288815280870188815285548085018755868c5291519185028084019290925551908601558951808b018b5288815280870188815285548085018755868c5291519185028084019290925551908601558951808b018b5288815280870188815285548085018755868c5291519185028084019290925551908601558951808b01909a52968952938801948552815493840182559552945193029182019290925590519101556200028584640100000000620002cb810204565b62000299836401000000006200035d810204565b620002ad82640100000000620003ef810204565b620002c18164010000000062000481810204565b50505050620005c7565b620002de64010000000062000513810204565b15156200033b57604080517f08c379a0000000000000000000000000000000000000000000000000000000008152602060048201819052602482015260008051602062006033833981519152604482015290519081900360640190fd5b60108054600160a060020a031916600160a060020a0392909216919091179055565b6200037064010000000062000513810204565b1515620003cd57604080517f08c379a0000000000000000000000000000000000000000000000000000000008152602060048201819052602482015260008051602062006033833981519152604482015290519081900360640190fd5b60198054600160a060020a031916600160a060020a0392909216919091179055565b6200040264010000000062000513810204565b15156200045f57604080517f08c379a0000000000000000000000000000000000000000000000000000000008152602060048201819052602482015260008051602062006033833981519152604482015290519081900360640190fd5b60118054600160a060020a031916600160a060020a0392909216919091179055565b6200049464010000000062000513810204565b1515620004f157604080517f08c379a0000000000000000000000000000000000000000000000000000000008152602060048201819052602482015260008051602062006033833981519152604482015290519081900360640190fd5b60098054600160a060020a031916600160a060020a0392909216919091179055565b600454600160a060020a031633145b90565b828054600181600116156101000203166002900490600052602060002090601f016020900481019282601f106200056857805160ff191683800117855562000598565b8280016001018555821562000598579182015b82811115620005985782518255916020019190600101906200057b565b50620005a6929150620005aa565b5090565b6200052291905b80821115620005a65760008155600101620005b1565b615a5c80620005d76000396000f30060806040526004361061034a5763ffffffff60e060020a6000350416630483a7f6811461034f578063059621d71461038257806306fdde03146103b7578063095ea7b31461044157806309a9d76c146104655780630aaf3832146104ca5780630ecfad1e146104df57806318160ddd146105005780631a5a3fce146105155780632042e5c21461053857806323b872dd1461055957806327e235e31461058357806329bc969d146105a45780632f4350c2146105c5578063313ce567146105da57806332c82a5f1461060557806334e7312214610629578063395093511461064457806342049a7214610668578063447dbeac146106895780634c69c00f146106aa57806352bf0aa3146106cb57806353afc025146106e057806358a6be1c1461070157806359653ec91461072f5780635c475d42146107605780635ca4b73b1461077857806360ee0d381461078d5780636d75b9ee146107a55780636f2b70cd146107bc57806370a08231146107dd578063715018a6146107fe5780637c9c671214610813578063817bf86d1461082e57806381ee8a2e1461084f578063852185fc146108705780638da5cb5b146108855780638f32d59b1461089a578063925c482c146108af57806395a2251f146108de57806395d89b41146108ff578063a04115f614610914578063a093e2d01461092c578063a20a80451461094d578063a457c2d714610971578063a56ea40314610995578063a9059cbb146109b6578063b18b78dd146109da578063b3ab15fb146109ef578063b4d5a9c714610a10578063b9b8af0b14610a37578063bdac4bf614610a4c578063bf36b11014610a6d578063c040725a14610a8b578063c219043b14610aa0578063c408689314610ac4578063c5e5a3ed14610ae5578063c78f680314610afa578063c7e2f8bd14610b1b578063cd40581914610bb7578063d189290414610bcc578063d2aaef4e14610be7578063d6eb591014610bff578063dab5512914610c14578063dd62ed3e14610c29578063ddb944e514610c50578063e0561aa114610c71578063e28a327d14610c89578063e7cd4a0414610c9e578063e7f43c6814610cbf578063ef63e1f714610cd4578063f20568cd14610cef578063f2fde38b14610d9d578063f495438714610dbe575b600080fd5b34801561035b57600080fd5b50610370600160a060020a0360043516610dd8565b60408051918252519081900360200190f35b34801561038e57600080fd5b506103a3600160a060020a0360043516610dea565b604080519115158252519081900360200190f35b3480156103c357600080fd5b506103cc610e22565b6040805160208082528351818301528351919283929083019185019080838360005b838110156104065781810151838201526020016103ee565b50505050905090810190601f1680156104335780820380516001836020036101000a031916815260200191505b509250505060405180910390f35b34801561044d57600080fd5b506103a3600160a060020a0360043516602435610eb0565b34801561047157600080fd5b5061047a610ec6565b60408051602080825283518183015283519192839290830191858101910280838360005b838110156104b657818101518382015260200161049e565b505050509050019250505060405180910390f35b3480156104d657600080fd5b50610370610f29565b3480156104eb57600080fd5b50610370600160a060020a0360043516610f4f565b34801561050c57600080fd5b50610370610f61565b34801561052157600080fd5b50610536600160a060020a0360043516610f67565b005b34801561054457600080fd5b506103a3600160a060020a0360043516610fd5565b34801561056557600080fd5b506103a3600160a060020a036004358116906024351660443561102e565b34801561058f57600080fd5b50610370600160a060020a0360043516611122565b3480156105b057600080fd5b50610370600160a060020a0360043516611134565b3480156105d157600080fd5b50610536611146565b3480156105e657600080fd5b506105ef6111d9565b6040805160ff9092168252519081900360200190f35b34801561061157600080fd5b5061037060043560243560443560ff606435166111de565b34801561063557600080fd5b5061037060043560243561122c565b34801561065057600080fd5b506103a3600160a060020a0360043516602435611273565b34801561067457600080fd5b50610370600160a060020a03600435166112b4565b34801561069557600080fd5b50610370600160a060020a03600435166112cf565b3480156106b657600080fd5b50610536600160a060020a036004351661131c565b3480156106d757600080fd5b5061037061138a565b3480156106ec57600080fd5b50610370600160a060020a0360043516611390565b34801561070d57600080fd5b506107166113a2565b6040805192835260208301919091528051918290030190f35b34801561073b57600080fd5b506107446113ab565b60408051600160a060020a039092168252519081900360200190f35b34801561076c57600080fd5b506107446004356113ba565b34801561078457600080fd5b506107446113e2565b34801561079957600080fd5b506105366004356113f1565b610536600160a060020a0360043516602435611442565b3480156107c857600080fd5b50610536600160a060020a03600435166116c7565b3480156107e957600080fd5b50610370600160a060020a0360043516611735565b34801561080a57600080fd5b50610536611750565b34801561081f57600080fd5b506105366004356024356117e6565b34801561083a57600080fd5b506103a3600160a060020a03600435166119c1565b34801561085b57600080fd5b50610370600160a060020a0360043516611a27565b34801561087c57600080fd5b50610716611a39565b34801561089157600080fd5b50610744611a43565b3480156108a657600080fd5b506103a3611a52565b610536600160a060020a036004351660243560443563ffffffff6064351660843560a43560ff60c43516611a63565b3480156108ea57600080fd5b50610536600160a060020a0360043516611d82565b34801561090b57600080fd5b506103cc611f72565b34801561092057600080fd5b50610536600435611fcd565b34801561093857600080fd5b50610536600160a060020a03600435166123b7565b34801561095957600080fd5b50610536600435600160a060020a0360243516612425565b34801561097d57600080fd5b506103a3600160a060020a036004351660243561259c565b3480156109a157600080fd5b5061047a600160a060020a0360043516612635565b3480156109c257600080fd5b506103a3600160a060020a03600435166024356126ec565b3480156109e657600080fd5b506107446127dc565b3480156109fb57600080fd5b50610536600160a060020a03600435166127eb565b348015610a1c57600080fd5b50610370600160a060020a0360043581169060243516612859565b348015610a4357600080fd5b506103a3612884565b348015610a5857600080fd5b506103a3600160a060020a03600435166128a5565b348015610a7957600080fd5b506105366004356024356044356128d9565b348015610a9757600080fd5b5061074461293d565b348015610aac57600080fd5b50610536600160a060020a036004351660243561294c565b348015610ad057600080fd5b50610716600160a060020a03600435166129b4565b348015610af157600080fd5b506103706129dc565b348015610b0657600080fd5b50610370600160a060020a0360043516612a0e565b348015610b2757600080fd5b5060408051602060046024803582810135848102808701860190975280865261053696843596369660449591949091019291829185019084908082843750506040805187358901803560208181028481018201909552818452989b9a998901989297509082019550935083925085019084908082843750949750508435955050506020909201359150612a299050565b348015610bc357600080fd5b50610370612ca1565b348015610bd857600080fd5b50610536600435602435612d35565b348015610bf357600080fd5b5061071660043561309b565b348015610c0b57600080fd5b506103706130bc565b348015610c2057600080fd5b506103706131c4565b348015610c3557600080fd5b50610370600160a060020a03600435811690602435166131d4565b348015610c5c57600080fd5b50610370600160a060020a03600435166131ff565b348015610c7d57600080fd5b50610716600435613211565b348015610c9557600080fd5b5061037061323d565b348015610caa57600080fd5b50610536600160a060020a0360043516613252565b348015610ccb57600080fd5b506107446132c9565b348015610ce057600080fd5b506105366004356024356132d8565b348015610cfb57600080fd5b50610d0461332f565b604051808060200180602001838103835285818151815260200191508051906020019060200280838360005b83811015610d48578181015183820152602001610d30565b50505050905001838103825284818151815260200191508051906020019060200280838360005b83811015610d87578181015183820152602001610d6f565b5050505090500194505050505060405180910390f35b348015610da957600080fd5b50610536600160a060020a0360043516613438565b348015610dca57600080fd5b50610536600435151561348d565b600e6020526000908152604090205481565b6000610df5826119c1565b8015610e1c5750600160a060020a0382166000908152600660205260409020546002908116145b92915050565b600b805460408051602060026001851615610100026000190190941693909304601f81018490048402820184019092528181529291830182828015610ea85780601f10610e7d57610100808354040283529160200191610ea8565b820191906000526020600020905b815481529060010190602001808311610e8b57829003601f168201915b505050505081565b6000610ebd338484613519565b50600192915050565b60606005805480602002602001604051908101604052809291908181526020018280548015610f1e57602002820191906000526020600020905b8154600160a060020a03168152600190910190602001808311610f00575b505050505090505b90565b6000610f4a610f36612ca1565b610f3e6130bc565b9063ffffffff61368616565b905090565b60156020526000908152604090205481565b60035490565b610f6f611a52565b1515610fb3576040805160e560020a62461bcd02815260206004820181905260248201526000805160206159f1833981519152604482015290519081900360640190fd5b60118054600160a060020a031916600160a060020a0392909216919091179055565b6000610fdf611a52565b1515611023576040805160e560020a62461bcd02815260206004820181905260248201526000805160206159f1833981519152604482015290519081900360640190fd5b610e1c6005836136c8565b600954600090600160a060020a03161515611081576040805160e560020a62461bcd0281526020600482015260166024820152600080516020615a11833981519152604482015290519081900360640190fd5b600954604080517fef56807f000000000000000000000000000000000000000000000000000000008152600160a060020a0387811660048301528681166024830152604482018690529151919092169163ef56807f91606480830192600092919082900301818387803b1580156110f757600080fd5b505af115801561110b573d6000803e3d6000fd5b5050505061111a8484846137b5565b949350505050565b60016020526000908152604090205481565b60166020526000908152604090205481565b6000611150611a52565b1515611194576040805160e560020a62461bcd02815260206004820181905260248201526000805160206159f1833981519152604482015290519081900360640190fd5b5060005b6005548110156111d6576111ce6005828154811015156111b457fe5b600091825260209091200154600160a060020a0316611d82565b600101611198565b50565b601281565b60008060ff8316158587111415611206576111ff868563ffffffff61386316565b9050611219565b611216858563ffffffff61386316565b90505b6112228161390d565b9695505050505050565b600080600061123a8561393c565b805490925061124f908563ffffffff61386316565b90506112688260010154826139bb90919063ffffffff16565b92505b505092915050565b336000818152600260209081526040808320600160a060020a03871684529091528120549091610ebd9185906112af908663ffffffff6139fd16565b613519565b600160a060020a031660009081526017602052604090205490565b600160a060020a0381166000908152600f60209081526040808320546001909252822054610e1c9190611310906113046129dc565b9063ffffffff61386316565b9063ffffffff6139fd16565b611324611a52565b1515611368576040805160e560020a62461bcd02815260206004820181905260248201526000805160206159f1833981519152604482015290519081900360640190fd5b60108054600160a060020a031916600160a060020a0392909216919091179055565b600a5490565b60076020526000908152604090205481565b60135460145482565b600954600160a060020a031690565b60058054829081106113c857fe5b600091825260209091200154600160a060020a0316905081565b601954600160a060020a031690565b6113f9611a52565b151561143d576040805160e560020a62461bcd02815260206004820181905260248201526000805160206159f1833981519152604482015290519081900360640190fd5b600a55565b6000806000806114528686613a5a565b9450600085116114ac576040805160e560020a62461bcd02815260206004820152601a60248201527f736574746c656d656e7420616d6f756e74206973207a65726f21000000000000604482015290519081900360640190fd5b6114b760038661122c565b93506114c38685613b8d565b6114d3858563ffffffff61368616565b6010546040805160e060020a6341976e09028152600160a060020a038a8116600483015291519398509116916341976e09916024808201926020929091908290030181600087803b15801561152757600080fd5b505af115801561153b573d6000803e3d6000fd5b505050506040513d602081101561155157600080fd5b50519250611565838663ffffffff61386316565b915061157f6115726129dc565b839063ffffffff6139bb16565b336000908152601760205260409020549091506115a2908363ffffffff6139fd16565b33600090815260176020908152604080832093909355600160a060020a03891682526016905220546115da908663ffffffff6139fd16565b600160a060020a0387166000818152601660209081526040808320949094553382526018815283822092825291909152205461161c908663ffffffff6139fd16565b336000908152601860209081526040808320600160a060020a038b168452825280832093909355601590522054611659908663ffffffff6139fd16565b600160a060020a0387166000818152601560209081526040918290209390935580518881529283018490528051919233927f33a089d94f9a0b7d0fe21e69b40d7dbe1965be652c7382cc778d46963db8c49b929181900390910190a36116bf3382613c0c565b505050505050565b6116cf611a52565b1515611713576040805160e560020a62461bcd02815260206004820181905260248201526000805160206159f1833981519152604482015290519081900360640190fd5b60098054600160a060020a031916600160a060020a0392909216919091179055565b600160a060020a031660009081526001602052604090205490565b611758611a52565b151561179c576040805160e560020a62461bcd02815260206004820181905260248201526000805160206159f1833981519152604482015290519081900360640190fd5b600454604051600091600160a060020a0316907f8be0079c531659141344cd1fd0a4f28419497f9722a3daafe3b4186f6b6457e0908390a360048054600160a060020a0319169055565b600080821161183f576040805160e560020a62461bcd02815260206004820152601860248201527f657865726369736520616d6f756e74206973207a65726f210000000000000000604482015290519081900360640190fd5b601154604080517f67b8ceb900000000000000000000000000000000000000000000000000000000815260048101869052602481018590529051600160a060020a03909216916367b8ceb9916044808201926020929091908290030181600087803b1580156118ad57600080fd5b505af11580156118c1573d6000803e3d6000fd5b505050506040513d60208110156118d757600080fd5b505190508015156118e7576119bc565b601154604080517f74e85fd200000000000000000000000000000000000000000000000000000000815233600482015260248101869052604481018590529051600160a060020a03909216916374e85fd29160648082019260009290919082900301818387803b15801561195a57600080fd5b505af115801561196e573d6000803e3d6000fd5b5050604080518581526020810185905281518794503393507fc939d87d6a5458cd262393bdb2c5408330b7647ca14b752229b0301858a29972929181900390910190a36119bc816002613cf0565b505050565b6000610e1c6005805480602002602001604051908101604052809291908181526020018280548015611a1c57602002820191906000526020600020905b8154600160a060020a031681526001909101906020018083116119fe575b505050505083613f01565b600f6020526000908152604090205481565b6013546014549091565b600454600160a060020a031690565b600454600160a060020a0316331490565b601154604080517f3ad2fb570000000000000000000000000000000000000000000000000000000081526004810186905263ffffffff87166024820152905160009283928392600160a060020a0390921691633ad2fb5791604480820192869290919082900301818387803b158015611adb57600080fd5b505af1158015611aef573d6000803e3d6000fd5b50505050611b098460ff168863ffffffff16886000613f52565b601054604080517fda66325700000000000000000000000000000000000000000000000000000000815263ffffffff8b1660048201529051929550600160a060020a039091169163da663257916024808201926020929091908290030181600087803b158015611b7857600080fd5b505af1158015611b8c573d6000803e3d6000fd5b505050506040513d6020811015611ba257600080fd5b5051601954604080517f4b7d8e5c00000000000000000000000000000000000000000000000000000000815260048101849052602481018c9052604481018a905263ffffffff8b16606482015260ff881660848201529051929450600160a060020a0390911691634b7d8e5c9160a4808201926020929091908290030181600087803b158015611c3157600080fd5b505af1158015611c45573d6000803e3d6000fd5b505050506040513d6020811015611c5b57600080fd5b50519050611c6b888387876111de565b611c7361323d565b1015611cc9576040805160e560020a62461bcd02815260206004820152601b60248201527f636f6c6c61746572616c20697320696e73756666696369656e74210000000000604482015290519081900360640190fd5b601154604080517f924a69ce000000000000000000000000000000000000000000000000000000008152336004820152600160a060020a038d8116602483015260448201879052606482018c90526084820186905260a482018990529151919092169163924a69ce9160c480830192600092919082900301818387803b158015611d5257600080fd5b505af1158015611d66573d6000803e3d6000fd5b50505050611d768a8a8388613f9a565b50505050505050505050565b600080611d8d611a52565b1515611dd1576040805160e560020a62461bcd02815260206004820181905260248201526000805160206159f1833981519152604482015290519081900360640190fd5b600160a060020a03831660009081526007602052604081205492508211611e42576040805160e560020a62461bcd02815260206004820152601260248201527f4974277320656d7074792062616c616e63650000000000000000000000000000604482015290519081900360640190fd5b600160a060020a0383166000818152600760205260408120551515611e9457604051339083156108fc029084906000818181858888f19350505050158015611e8e573d6000803e3d6000fd5b50611f2d565b50604080517fa9059cbb0000000000000000000000000000000000000000000000000000000081523360048201526024810183905290518391600160a060020a0383169163a9059cbb916044808201926020929091908290030181600087803b158015611f0057600080fd5b505af1158015611f14573d6000803e3d6000fd5b505050506040513d6020811015611f2a57600080fd5b50505b604080518381529051600160a060020a0385169133917f747147be90b2a81a2e929994a92cd7bb71396bdbfd02f181867c81187d4f79449181900360200190a3505050565b600c805460408051602060026001851615610100026000190190941693909304601f81018490048402820184019092528181529291830182828015610ea85780601f10610e7d57610100808354040283529160200191610ea8565b6012546060906000908190839081908390600160a060020a03163314612063576040805160e560020a62461bcd02815260206004820152602760248201527f4d616e6167657261626c653a2063616c6c6572206973206e6f7420746865204f60448201527f70657261746f7200000000000000000000000000000000000000000000000000606482015290519081900360840190fd5b601154604080517faf70df12000000000000000000000000000000000000000000000000000000008152600481018a8152602482019283526005805460448401819052600160a060020a039095169463af70df12948d949293929091606490910190849080156120fc57602002820191906000526020600020905b8154600160a060020a031681526001909101906020018083116120de575b50509350505050600060405180830381600087803b15801561211d57600080fd5b505af1158015612131573d6000803e3d6000fd5b505050506040513d6000823e601f3d908101601f19168201604052606081101561215a57600080fd5b81019080805164010000000081111561217257600080fd5b8201602081018481111561218557600080fd5b81518560208202830111640100000000821117156121a257600080fd5b50506020820151604090920151909950909750955050841590506123ae57601154604080517fe5081c40000000000000000000000000000000000000000000000000000000008152600481018a8152602482019283526005805460448401819052600160a060020a039095169463e5081c40948d9492939290916064909101908490801561225957602002820191906000526020600020905b8154600160a060020a0316815260019091019060200180831161223b575b50509350505050600060405180830381600087803b15801561227a57600080fd5b505af115801561228e573d6000803e3d6000fd5b505050506040513d6000823e601f3d908101601f1916820160409081528110156122b757600080fd5b8101908080516401000000008111156122cf57600080fd5b820160208101848111156122e257600080fd5b81518560208202830111640100000000821117156122ff57600080fd5b5050929190602001805164010000000081111561231b57600080fd5b8201602081018481111561232e57600080fd5b815185602082028301116401000000008211171561234b57600080fd5b50949750955060009450505050505b82518110156123a157858181518110151561237157fe5b90602001906020020151838281518110151561238957fe5b6020908102909101018051909101905260010161235a565b6123ae8784848842612a29565b50505050505050565b6123bf611a52565b1515612403576040805160e560020a62461bcd02815260206004820181905260248201526000805160206159f1833981519152604482015290519081900360640190fd5b60198054600160a060020a031916600160a060020a0392909216919091179055565b600080600080600061243686610dea565b151561248c576040805160e560020a62461bcd02815260206004820152601f60248201527f736574746c656d656e7420697320756e737570706f7274656420746f6b656e00604482015290519081900360640190fd5b336000908152600e602090815260408083205460019092529091205401871115612500576040805160e560020a62461bcd02815260206004820152601e60248201527f53436f696e2062616c616e636520697320696e73756666696369656e74210000604482015290519081900360640190fd5b86151561250c576123ae565b612514610f29565b94506125208786614271565b9350935083870396506000871115612561578285039450612541878661433b565b9150915060008211156125615761255833836143c6565b92810192918201915b83836156ce7f36bc09f07bcf3d3fa05df7f9c56193487df0507ecd1d5a83845b56b4e6d7b73360405160405180910390a46123ae86846144a6565b60408051606081018252602581527f45524332303a2064656372656173656420616c6c6f77616e63652062656c6f776020808301919091527f207a65726f0000000000000000000000000000000000000000000000000000008284015233600081815260028352848120600160a060020a0388168252909252928120549092610ebd92909186916112af9190879063ffffffff6149f916565b606080606060008061266b866005600081548110151561265157fe5b600091825260209091200154600160a060020a0316614a96565b5060055491955093509150600090505b818110156126e2576126c2838281518110151561269457fe5b9060200190602002015185838151811015156126ac57fe5b602090810290910101519063ffffffff6139fd16565b84828151811015156126d057fe5b6020908102909101015260010161267b565b5091949350505050565b600954600090600160a060020a0316151561273f576040805160e560020a62461bcd0281526020600482015260166024820152600080516020615a11833981519152604482015290519081900360640190fd5b600954604080517fef56807f000000000000000000000000000000000000000000000000000000008152336004820152600160a060020a038681166024830152604482018690529151919092169163ef56807f91606480830192600092919082900301818387803b1580156127b357600080fd5b505af11580156127c7573d6000803e3d6000fd5b505050506127d58383614f0b565b9392505050565b601054600160a060020a031690565b6127f3611a52565b1515612837576040805160e560020a62461bcd02815260206004820181905260248201526000805160206159f1833981519152604482015290519081900360640190fd5b60128054600160a060020a031916600160a060020a0392909216919091179055565b600160a060020a03918216600090815260186020908152604080832093909416825291909152205490565b60045474010000000000000000000000000000000000000000900460ff1681565b60006128b0826119c1565b8015610e1c575050600160a060020a031660009081526006602052604090205460019081161490565b60006128e3611a52565b1515612927576040805160e560020a62461bcd02815260206004820181905260248201526000805160206159f1833981519152604482015290519081900360640190fd5b6129308461393c565b9283555060019091015550565b601154600160a060020a031690565b612954611a52565b1515612998576040805160e560020a62461bcd02815260206004820181905260248201526000805160206159f1833981519152604482015290519081900360640190fd5b600160a060020a03909116600090815260066020526040902055565b600160a060020a03166000908152600e6020908152604080832054600f909252909120549091565b6000600354600014156129f457506305f5e100610f26565b6003546129ff6131c4565b811515612a0857fe5b04905090565b600160a060020a031660009081526007602052604090205490565b6012546000908190600160a060020a03163314612ab6576040805160e560020a62461bcd02815260206004820152602760248201527f4d616e6167657261626c653a2063616c6c6572206973206e6f7420746865204f60448201527f70657261746f7200000000000000000000000000000000000000000000000000606482015290519081900360840190fd5b6011546040517f8ff239e6000000000000000000000000000000000000000000000000000000008152600481018981526024820187905260648201869052608060448301908152885160848401528851600160a060020a0390941693638ff239e6938c938a938c938b9360a401906020808701910280838360005b83811015612b49578181015183820152602001612b31565b5050505090500195505050505050600060405180830381600087803b158015612b7157600080fd5b505af1158015612b85573d6000803e3d6000fd5b50505050600091505b85518210156123ae576005805483908110612ba557fe5b60009182526020822001548751600160a060020a039091169250879084908110612bcb57fe5b6020908102909101015112612c3a57612c1c8683815181101515612beb57fe5b6020908102909101810151600160a060020a038416600090815260159092526040909120549063ffffffff6139fd16565b600160a060020a038216600090815260156020526040902055612c96565b612c7c8683815181101515612c4b57fe5b6020908102909101810151600160a060020a038416600090815260159092526040822054910363ffffffff61368616565b600160a060020a0382166000908152601560205260409020555b600190910190612b8e565b600080601160009054906101000a9004600160a060020a0316600160a060020a03166373a3d4246040518163ffffffff1660e060020a028152600401602060405180830381600087803b158015612cf757600080fd5b505af1158015612d0b573d6000803e3d6000fd5b505050506040513d6020811015612d2157600080fd5b50519050612d2e8161390d565b91505b5090565b6000808080808080808811612d94576040805160e560020a62461bcd02815260206004820152601460248201527f73656c6c20616d6f756e74206973207a65726f21000000000000000000000000604482015290519081900360640190fd5b601154604080517f74e85fd2000000000000000000000000000000000000000000000000000000008152336004820152602481018c9052604481018b90529051600160a060020a03909216916374e85fd29160648082019260009290919082900301818387803b158015612e0757600080fd5b505af1158015612e1b573d6000803e3d6000fd5b5050601154604080517f48ee201d000000000000000000000000000000000000000000000000000000008152600481018e90529051600160a060020a0390921693506348ee201d925060248082019260e0929091908290030181600087803b158015612e8657600080fd5b505af1158015612e9a573d6000803e3d6000fd5b505050506040513d60e0811015612eb057600080fd5b5060408101516060820151608083015160a09093015191995097509095509350612ee0854263ffffffff61368616565b601054604080517fda66325700000000000000000000000000000000000000000000000000000000815263ffffffff8a1660048201529051929750600160a060020a039091169163da663257916024808201926020929091908290030181600087803b158015612f4f57600080fd5b505af1158015612f63573d6000803e3d6000fd5b505050506040513d6020811015612f7957600080fd5b5051601954604080517f4b7d8e5c00000000000000000000000000000000000000000000000000000000815260048101849052602481018890526044810189905263ffffffff8a16606482015260ff8b1660848201529051929550600160a060020a0390911691634b7d8e5c9160a4808201926020929091908290030181600087803b15801561300857600080fd5b505af115801561301c573d6000803e3d6000fd5b505050506040513d602081101561303257600080fd5b50519150613046828963ffffffff61386316565b604080518a81526020810183905281519293508b9233927f4d6194525a1265d47b1d6b65f640509c7a2a8aa847fd0654fac933032e1348ac928290030190a3613090816001613cf0565b505050505050505050565b60008060006130a98461393c565b8054600190910154909590945092505050565b60055460009081908180805b838310156131ba5760058054849081106130de57fe5b60009182526020808320909101546010546040805160e060020a6341976e09028152600160a060020a0393841660048201819052915191975091909216936341976e099360248084019491939192918390030190829087803b15801561314357600080fd5b505af1158015613157573d6000803e3d6000fd5b505050506040513d602081101561316d57600080fd5b5051600160a060020a0383166000908152601560205260409020549091506131ad906131a090839063ffffffff61386316565b869063ffffffff6139fd16565b94506001909201916130c8565b5092949350505050565b6000610f4a600d54610f3e6130bc565b600160a060020a03918216600090815260026020908152604080832093909416825291909152205490565b60176020526000908152604090205481565b600880548290811061321f57fe5b60009182526020909120600290910201805460019091015490915082565b6000610f4a61324a612ca1565b610f3e6131c4565b61325a611a52565b151561329e576040805160e560020a62461bcd02815260206004820181905260248201526000805160206159f1833981519152604482015290519081900360640190fd5b6132a9600582614f18565b600160a060020a0316600090815260066020526040902063ffffffff9055565b601254600160a060020a031690565b6132e0611a52565b1515613324576040805160e560020a62461bcd02815260206004820181905260248201526000805160206159f1833981519152604482015290519081900360640190fd5b601391909155601455565b60608060606000600580549050604051908082528060200260200182016040528015613365578160200160208202803883390190505b509150600090505b6005548110156133cf576007600060058381548110151561338a57fe5b6000918252602080832090910154600160a060020a0316835282019290925260400190205482518390839081106133bd57fe5b6020908102909101015260010161336d565b6005828180548060200260200160405190810160405280929190818152602001828054801561342757602002820191906000526020600020905b8154600160a060020a03168152600190910190602001808311613409575b505050505091509350935050509091565b613440611a52565b1515613484576040805160e560020a62461bcd02815260206004820181905260248201526000805160206159f1833981519152604482015290519081900360640190fd5b6111d681614fb2565b613495611a52565b15156134d9576040805160e560020a62461bcd02815260206004820181905260248201526000805160206159f1833981519152604482015290519081900360640190fd5b60048054911515740100000000000000000000000000000000000000000274ff000000000000000000000000000000000000000019909216919091179055565b600160a060020a038316151561359e576040805160e560020a62461bcd028152602060048201526024808201527f45524332303a20617070726f76652066726f6d20746865207a65726f2061646460448201527f7265737300000000000000000000000000000000000000000000000000000000606482015290519081900360840190fd5b600160a060020a0382161515613624576040805160e560020a62461bcd02815260206004820152602260248201527f45524332303a20617070726f766520746f20746865207a65726f20616464726560448201527f7373000000000000000000000000000000000000000000000000000000000000606482015290519081900360840190fd5b600160a060020a03808416600081815260026020908152604080832094871680845294825291829020859055815185815291517f8c5be1e5ebec7d5bd14f71427d1e84f3dd0314c0f7b2291e5b200ac8c7c3b9259281900390910190a3505050565b60006127d583836040805190810160405280601e81526020017f536166654d6174683a207375627472616374696f6e206f766572666c6f7700008152506149f9565b8154600090815b818110156137175783600160a060020a031685828154811015156136ef57fe5b600091825260209091200154600160a060020a0316141561370f57613717565b6001016136cf565b818110156137aa576000198201811461379057846001830381548110151561373b57fe5b6000918252602090912001548554600160a060020a039091169086908390811061376157fe5b9060005260206000200160006101000a815481600160a060020a030219169083600160a060020a031602179055505b84546137a08660001983016159b7565b506001925061126b565b506000949350505050565b60006137c2848484615094565b60408051606081018252602881527f45524332303a207472616e7366657220616d6f756e74206578636565647320616020808301919091527f6c6c6f77616e636500000000000000000000000000000000000000000000000082840152600160a060020a038716600090815260028252838120338083529252929092205461385992879290916112af91879063ffffffff6149f916565b5060019392505050565b6000808315156138765760009150613906565b5082820282848281151561388657fe5b0414613902576040805160e560020a62461bcd02815260206004820152602160248201527f536166654d6174683a206d756c7469706c69636174696f6e206f766572666c6f60448201527f7700000000000000000000000000000000000000000000000000000000000000606482015290519081900360840190fd5b8091505b5092915050565b6013546000908190613925908463ffffffff61386316565b6014549091506127d590829063ffffffff6139bb16565b6008546000908210613998576040805160e560020a62461bcd02815260206004820152601260248201527f66656520747970652069732076616c6964210000000000000000000000000000604482015290519081900360640190fd5b60088054839081106139a657fe5b90600052602060002090600202019050919050565b60006127d583836040805190810160405280601a81526020017f536166654d6174683a206469766973696f6e206279207a65726f000000000000815250615204565b600082820183811015613902576040805160e560020a62461bcd02815260206004820152601b60248201527f536166654d6174683a206164646974696f6e206f766572666c6f770000000000604482015290519081900360640190fd5b6000806000613a68856128a5565b1515613abe576040805160e560020a62461bcd02815260206004820152601f60248201527f736574746c656d656e7420697320756e737570706f7274656420746f6b656e00604482015290519081900360640190fd5b60009150600160a060020a0385161515613ada57349150613b85565b6000841115613b855750604080517f23b872dd0000000000000000000000000000000000000000000000000000000081523360048201523060248201526044810185905290518591600160a060020a038316916323b872dd916064808201926020929091908290030181600087803b158015613b5557600080fd5b505af1158015613b69573d6000803e3d6000fd5b505050506040513d6020811015613b7f57600080fd5b50849250505b509392505050565b600160a060020a038216600090815260076020526040902054613bb6908263ffffffff6139fd16565b600160a060020a038316600081815260076020908152604091829020939093558051848152905191927f1104eee7f034069140a0655d153038cedf9e65e5724018c555a8d56cfb6bee7792918290030190a25050565b600954600160a060020a03161515613c5c576040805160e560020a62461bcd0281526020600482015260166024820152600080516020615a11833981519152604482015290519081900360640190fd5b600954604080517f8af2a470000000000000000000000000000000000000000000000000000000008152600160a060020a0385811660048301526024820185905291519190921691638af2a47091604480830192600092919082900301818387803b158015613cca57600080fd5b505af1158015613cde573d6000803e3d6000fd5b50505050613cec8282615270565b5050565b600554604080518281526020808402820101909152600091906060908390819081908190868015613d2b578160200160208202803883390190505b509450600093505b85841015613e56576005805485908110613d4957fe5b60009182526020808320909101546010546040805160e060020a6341976e09028152600160a060020a0393841660048201819052915191985091909216936341976e099360248084019491939192918390030190829087803b158015613dae57600080fd5b505af1158015613dc2573d6000803e3d6000fd5b505050506040513d6020811015613dd857600080fd5b5051600160a060020a038416600090815260156020526040902054865191935090869086908110613e0557fe5b602090810290910101528451613e4990613e3c90879087908110613e2557fe5b60209081029091010151849063ffffffff61386316565b889063ffffffff6139fd16565b9650600190930192613d33565b861515613e6257613090565b600093505b8584101561309057613ea787613e9b8b8888815181101515613e8557fe5b602090810290910101519063ffffffff61386316565b9063ffffffff6139bb16565b9050613ed1818686815181101515613ebb57fe5b602090810290910101519063ffffffff61368616565b600160a060020a038416600090815260156020526040902055613ef63384838b615335565b600190930192613e67565b8151600090815b818110156137aa5783600160a060020a03168582815181101515613f2857fe5b90602001906020020151600160a060020a03161415613f4a576001925061126b565b600101613f08565b68010000000000000000830284017001000000000000000000000000000000008302017801000000000000000000000000000000000000000000000000820201949350505050565b6000808080613faf858763ffffffff61386316565b9350613fbb8888613a5a565b965060008711614015576040805160e560020a62461bcd02815260206004820152601a60248201527f736574746c656d656e7420616d6f756e74206973207a65726f21000000000000604482015290519081900360640190fd5b61402060008561122c565b6010546040805160e060020a6341976e09028152600160a060020a038c8116600483015291519396509116916341976e09916024808201926020929091908290030181600087803b15801561407457600080fd5b505af1158015614088573d6000803e3d6000fd5b505050506040513d602081101561409e57600080fd5b505191506140b2848463ffffffff6139fd16565b6140c2838963ffffffff61386316565b101561413e576040805160e560020a62461bcd02815260206004820152602160248201527f736574746c656d656e7420617373657420697320696e73756666696369656e7460448201527f2100000000000000000000000000000000000000000000000000000000000000606482015290519081900360840190fd5b61414e848363ffffffff6139bb16565b9350614160838363ffffffff6139bb16565b925061416c8884613b8d565b61418083610f3e898763ffffffff61368616565b965060008711156141965761419633898961537a565b601160009054906101000a9004600160a060020a0316600160a060020a03166345e19fdd6040518163ffffffff1660e060020a02815260040160e060405180830381600087803b1580156141e957600080fd5b505af11580156141fd573d6000803e3d6000fd5b505050506040513d60e081101561421357600080fd5b5051604080518881526020810187905280820188905290519192508291600160a060020a038b169133917f09e4fd1b37f40234b903951f986d8b64cb9c99657348f04cda4a75fbe743684d9181900360600190a45050505050505050565b6000806000806000806000614285336129b4565b94509450846000141561429e576000965086955061432f565b600092506000915084848115156142b157fe5b0490508885106142d5578891506142ce828263ffffffff61386316565b92506142dc565b8491508392505b87831115614309576142f4888263ffffffff6139bb16565b9150614306828263ffffffff61386316565b92505b60008211156143275761431c33836154c0565b81839650965061432f565b600096508695505b50505050509250929050565b600080600080600080600061434e6129dc565b9450614360898663ffffffff61386316565b9350878411156143b75761437a888663ffffffff6139bb16565b925061438c838663ffffffff61386316565b9150508188036143ac33826143a7818963ffffffff61386316565b615542565b82829650965061432f565b50969791965090945050505050565b600954600160a060020a03161515614416576040805160e560020a62461bcd0281526020600482015260166024820152600080516020615a11833981519152604482015290519081900360640190fd5b600954604080517f2a04d0c7000000000000000000000000000000000000000000000000000000008152600160a060020a0385811660048301526024820185905291519190921691632a04d0c791604480830192600092919082900301818387803b15801561448457600080fd5b505af1158015614498573d6000803e3d6000fd5b50505050613cec82826155dd565b806060808080600081818080806144bd338e614a96565b995099509950600580548060200260200160405190810160405280929190818152602001828054801561451957602002820191906000526020600020905b8154600160a060020a031681526001909101906020018083116144fb575b5050505050965061452a878e6156c8565b955085156145995786600081518110151561454157fe5b90602001906020020151878781518110151561455957fe5b600160a060020a0390921660209283029091019091015286518d908890600090811061458157fe5b600160a060020a039092166020928302909101909101525b86519550856040519080825280602002602001820160405280156145c7578160200160208202803883390190505b509450600093505b85841080156145de575060008c115b156147735786848151811015156145f157fe5b9060200190602002015192506146268a8581518110151561460e57fe5b906020019060200201518986815181101515613e8557fe5b9150818c6104577f36bc09f07bcf3d3fa05df7f9c56193487df0507ecd1d5a83845b56b4e6d7b73360405160405180910390a4818c101561470f57614689888581518110151561467257fe5b602090810290910101518d9063ffffffff6139bb16565b336000908152601860209081526040808320600160a060020a03881684529091529020549091506146c8908390613e9b908f830363ffffffff61386316565b336000908152601860209081526040808320600160a060020a0388168452909152902055845181908690869081106146fc57fe5b6020908102909101015260009b50614773565b336000908152601860209081526040808320600160a060020a038716845290915281205589518a908590811061474157fe5b90602001906020020151858581518110151561475957fe5b602090810290910101529a8190039a6001909301926145cf565b60008c111561482a5760009150600093505b858410156147d3576147c66147b989868151811015156147a157fe5b906020019060200201518b87815181101515613e8557fe5b839063ffffffff6139fd16565b6001909401939150614785565b600093505b8584101561482a576148076147f983613e9b8f8d89815181101515613e8557fe5b86868151811015156126ac57fe5b858581518110151561481557fe5b602090810290910101526001909301926147d8565b61488e600580548060200260200160405190810160405280929190818152602001828054801561488357602002820191906000526020600020905b8154600160a060020a03168152600190910190602001808311614865575b50505050508e6156c8565b935083156148fd5784848151811015156148a457fe5b9060200190602002015190508460008151811015156148bf57fe5b9060200190602002015185858151811015156148d757fe5b6020908102909101015284518190869060009081106148f257fe5b602090810290910101525b600093505b858410156149a757848481518110151561491857fe5b906020019060200201518b6104577f36bc09f07bcf3d3fa05df7f9c56193487df0507ecd1d5a83845b56b4e6d7b73360405160405180910390a461499c3360058681548110151561496557fe5b6000918252602090912001548751600160a060020a039091169088908890811061498b57fe5b906020019060200201516004615335565b600190930192614902565b60408051600160a060020a038f168152602081018d9052815133927fc994feb9b99296d80965b47aec6be0d25704ddf95b9b9bc1ed8bc753960d5809928290030190a250505050505050505050505050565b6000808285851115614a8c5760405160e560020a62461bcd0281526004018080602001828103825283818151815260200191508051906020019080838360005b83811015614a51578181015183820152602001614a39565b50505050905090810190601f168015614a7e5780820380516001836020036101000a031916815260200191505b509250505060405180910390fd5b5050509103919050565b606080606080600060608060606000806000806005805480602002602001604051908101604052809291908181526020018280548015614aff57602002820191906000526020600020905b8154600160a060020a03168152600190910190602001808311614ae1575b50505050509850614b10898e6156c8565b97508715614b7f57886000815181101515614b2757fe5b906020019060200201518989815181101515614b3f57fe5b600160a060020a0390921660209283029091019091015288518d908a906000908110614b6757fe5b600160a060020a039092166020928302909101909101525b8851975087604051908082528060200260200182016040528015614bad578160200160208202803883390190505b50965087604051908082528060200260200182016040528015614bda578160200160208202803883390190505b50955087604051908082528060200260200182016040528015614c07578160200160208202803883390190505b5094506000935060009250614c1b8e6112cf565b9150600090505b87811015614e6357614d0c601660008b84815181101515614c3f57fe5b90602001906020020151600160a060020a0316600160a060020a0316815260200190815260200160002054601560008c85815181101515614c7c57fe5b90602001906020020151600160a060020a0316600160a060020a03168152602001908152602001600020546018600033600160a060020a0316600160a060020a0316815260200190815260200160002060008d86815181101515614cdc57fe5b90602001906020020151600160a060020a0316600160a060020a0316815260200190815260200160002054615715565b8883815181101515614d1a57fe5b9060200190602002018884815181101515614d3157fe5b60209081029091010191909152526010548951600160a060020a03909116906341976e09908b9084908110614d6257fe5b906020019060200201516040518263ffffffff1660e060020a0281526004018082600160a060020a0316600160a060020a03168152602001915050602060405180830381600087803b158015614db757600080fd5b505af1158015614dcb573d6000803e3d6000fd5b505050506040513d6020811015614de157600080fd5b50518551869083908110614df157fe5b602090810290910101528651614e3690614e2990899084908110614e1157fe5b906020019060200201518784815181101515613e8557fe5b859063ffffffff6139fd16565b9350614e59614e4c8783815181101515614e1157fe5b849063ffffffff6139fd16565b9250600101614c22565b818410614eb1575060005b87811015614eac57614e8c84613e9b848a85815181101515613e8557fe5b8782815181101515614e9a57fe5b60209081029091010152600101614e6e565b614ef6565b5082900360005b87811015614ef657614ed683613e9b848985815181101515613e8557fe5b8682815181101515614ee457fe5b60209081029091010152600101614eb8565b50949c939b5091995091975050505050505050565b6000610ebd338484615094565b614f7b82805480602002602001604051908101604052809291908181526020018280548015614f7057602002820191906000526020600020905b8154600160a060020a03168152600190910190602001808311614f52575b505050505082613f01565b1515613cec578154600181018355600083815260209020018054600160a060020a038316600160a060020a03199091161790555050565b600160a060020a0381161515615038576040805160e560020a62461bcd02815260206004820152602660248201527f4f776e61626c653a206e6577206f776e657220697320746865207a65726f206160448201527f6464726573730000000000000000000000000000000000000000000000000000606482015290519081900360840190fd5b600454604051600160a060020a038084169216907f8be0079c531659141344cd1fd0a4f28419497f9722a3daafe3b4186f6b6457e090600090a360048054600160a060020a031916600160a060020a0392909216919091179055565b600160a060020a038316151561511a576040805160e560020a62461bcd02815260206004820152602560248201527f45524332303a207472616e736665722066726f6d20746865207a65726f20616460448201527f6472657373000000000000000000000000000000000000000000000000000000606482015290519081900360840190fd5b600160a060020a03821615156151a0576040805160e560020a62461bcd02815260206004820152602360248201527f45524332303a207472616e7366657220746f20746865207a65726f206164647260448201527f6573730000000000000000000000000000000000000000000000000000000000606482015290519081900360840190fd5b6151aa838261574d565b6151b4828261581c565b81600160a060020a031683600160a060020a03167fddf252ad1be2c89b69c2b068fc378daa952ba7f163c4a11628f55a4df523b3ef836040518082815260200191505060405180910390a3505050565b6000808281851161525a5760405160e560020a62461bcd02815260040180806020018281038252838181518152602001915080519060200190808383600083811015614a51578181015183820152602001614a39565b50838581151561526657fe5b0495945050505050565b600160a060020a03821615156152d0576040805160e560020a62461bcd02815260206004820152601f60248201527f45524332303a206d696e7420746f20746865207a65726f206164647265737300604482015290519081900360640190fd5b6003546152e3908263ffffffff6139fd16565b6003556152f0828261581c565b604080518281529051600160a060020a038416916000917fddf252ad1be2c89b69c2b068fc378daa952ba7f163c4a11628f55a4df523b3ef9181900360200190a35050565b600082151561534357615373565b61534d828461122c565b90506153698585615364868563ffffffff61368616565b61537a565b6153738482613b8d565b5050505050565b6000811515615388576154ba565b600160a060020a03831615156153d457604051600160a060020a0385169083156108fc029084906000818181858888f193505050501580156153ce573d6000803e3d6000fd5b5061546e565b50604080517fa9059cbb000000000000000000000000000000000000000000000000000000008152600160a060020a038581166004830152602482018490529151849283169163a9059cbb9160448083019260209291908290030181600087803b15801561544157600080fd5b505af1158015615455573d6000803e3d6000fd5b505050506040513d602081101561546b57600080fd5b50505b82600160a060020a031684600160a060020a03167f8aaaec2388cc390cde69685f78340e15f36d424b6b6b595f549dd883931f9c9b846040518082815260200191505060405180910390a35b50505050565b600160a060020a0382166000908152600e602052604081205490808083111561537357600160a060020a0385166000908152600f60205260409020549150828410615515576155108584846158cb565b615373565b615535615528838563ffffffff6139bb16565b859063ffffffff61386316565b90506153738585836158cb565b600954604080517f2a04d0c7000000000000000000000000000000000000000000000000000000008152600160a060020a0386811660048301526024820186905291519190921691632a04d0c791604480830192600092919082900301818387803b1580156155b057600080fd5b505af11580156155c4573d6000803e3d6000fd5b505050506155d2838361574d565b6119bc838383615942565b600160a060020a0382161515615663576040805160e560020a62461bcd02815260206004820152602160248201527f45524332303a206275726e2066726f6d20746865207a65726f2061646472657360448201527f7300000000000000000000000000000000000000000000000000000000000000606482015290519081900360840190fd5b61566d828261574d565b600354615680908263ffffffff61368616565b600355604080518281529051600091600160a060020a038516917fddf252ad1be2c89b69c2b068fc378daa952ba7f163c4a11628f55a4df523b3ef9181900360200190a35050565b8151600090815b8181101561111a5783600160a060020a031685828151811015156156ef57fe5b90602001906020020151600160a060020a0316141561570d5761111a565b6001016156cf565b6000808061572d86613e9b878763ffffffff61386316565b905080615740868263ffffffff61368616565b9250925050935093915050565b600160a060020a03821615156157d3576040805160e560020a62461bcd02815260206004820152602360248201527f45524332303a207472616e7366657220746f20746865207a65726f206164647260448201527f6573730000000000000000000000000000000000000000000000000000000000606482015290519081900360840190fd5b600160a060020a0382166000908152600160205260409020546157fc908263ffffffff61368616565b600160a060020a0390921660009081526001602052604090209190915550565b600160a060020a03821615156158a2576040805160e560020a62461bcd02815260206004820152602360248201527f45524332303a207472616e7366657220746f20746865207a65726f206164647260448201527f6573730000000000000000000000000000000000000000000000000000000000606482015290519081900360840190fd5b600160a060020a0382166000908152600160205260409020546157fc908263ffffffff6139fd16565b600160a060020a0383166000818152600e6020908152604080832080548790039055600f82529182902080548590039055600d80548590039055815185815290810184905281517f3eff168ce30c25c5e643633b70f58850a0085c0a411d1b53e501a655a90bae1a929181900390910190a2505050565b600160a060020a0383166000818152600e60209081526040808320805487019055600f825291829020805485019055600d80548590039055815185815290810184905281517f8eb48086ad9abd7f3270b68172da958c7507500a9e0c8a9897a5c85ae7d8c0e9929181900390910190a2505050565b8154818355818111156119bc576000838152602090206119bc918101908301610f2691905b80821115612d3157600081556001016159dc56004f776e61626c653a2063616c6c6572206973206e6f7420746865206f776e6572466e784d696e65506f6f6c206973206e6f742073657400000000000000000000a165627a7a7230582087763d5c9748e580fbbc959ccf74a4a10e28de3ef5a17449ef813cfd13bc272b00294f776e61626c653a2063616c6c6572206973206e6f7420746865206f776e6572",
  "source": "pragma solidity ^0.4.26;\r\nimport \"./modules/SafeMath.sol\";\r\nimport \"./CollateralPool.sol\";\r\nimport \"./modules/whiteList.sol\";\r\nimport \"./interfaces/IOptionsPrice.sol\";\r\nimport \"./modules/tuple.sol\";\r\ncontract OptionsManagerV2 is CollateralPool,ImportOptionsPrice {\r\n    using SafeMath for uint256;\r\n    constructor (address oracleAddr,address optionsPriceAddr,address optionsPoolAddr,address MinePoolAddr) public{\r\n        setOracleAddress(oracleAddr);\r\n        setOptionsPriceAddress(optionsPriceAddr);\r\n        setOptionsPoolAddress(optionsPoolAddr);\r\n        setFNXMinePoolAddress(MinePoolAddr);\r\n    }\r\n\r\n    event BuyOption(address indexed from,address indexed settlement,uint256 indexed optionId,uint256 optionPrice,uint256 settlementAmount,uint256 optionAmount);\r\n    event SellOption(address indexed from,uint256 indexed optionId,uint256 amount,uint256 sellValue);\r\n    event ExerciseOption(address indexed from,uint256 indexed optionId,uint256 amount,uint256 sellValue);\r\n    event DebugEvent(uint256 value0,uint256 value1,uint256 value2,uint256 value3);\r\n    function buyOption(address settlement,uint256 settlementAmount, uint256 strikePrice,uint32 underlying,\r\n                uint256 expiration,uint256 amount,uint8 optType)public payable{\r\n        _optionsPool.buyOptionCheck(expiration,underlying);\r\n        uint256 ty_ly_exp = tuple64.getTuple(uint256(optType),uint256(underlying),uint256(expiration),0);\r\n        uint256 underlyingPrice = _oracle.getUnderlyingPrice(underlying);\r\n        uint256 optionPrice = _optionsPrice.getOptionsPrice(underlyingPrice,strikePrice,expiration,underlying,optType); \r\n        require(getAvailableCollateral()>=calOptionsOccupied(strikePrice,underlyingPrice,amount,optType),\"collateral is insufficient!\");\r\n        _optionsPool.createOptions(msg.sender,settlement,ty_ly_exp,strikePrice,underlyingPrice,amount);\r\n        buyOption_sub(settlement,settlementAmount,optionPrice,amount);\r\n    }\r\n    function buyOption_sub(address settlement,uint256 settlementAmount,\r\n            uint256 optionPrice,uint256 amount)internal{\r\n        \r\n        uint256 allPay = amount.mul(optionPrice);\r\n        settlementAmount = getPayableAmount(settlement,settlementAmount);\r\n        require(settlementAmount>0 , \"settlement amount is zero!\");\r\n        uint256 fee = calculateFee(buyFee,allPay);\r\n        uint256 settlePrice = _oracle.getPrice(settlement);\r\n        require(settlePrice.mul(settlementAmount)>=allPay.add(fee),\"settlement asset is insufficient!\");\r\n        allPay = allPay.div(settlePrice);\r\n        fee = fee.div(settlePrice);\r\n        _addTransactionFee(settlement,fee);\r\n        settlementAmount = settlementAmount.sub(allPay).sub(fee);\r\n        if (settlementAmount > 0){\r\n            _transferPayback(msg.sender,settlement,settlementAmount);\r\n        }\r\n        (uint256 id,,,,,,)=_optionsPool.getLatestOption();\r\n        emit BuyOption(msg.sender,settlement,id,optionPrice,allPay,amount); \r\n    }\r\n    function sellOption(uint256 optionsId,uint256 amount)public{\r\n        require(amount>0 , \"sell amount is zero!\");\r\n        _optionsPool.burnOptions(msg.sender,optionsId,amount);\r\n        (,,uint8 optType,uint32 underlying,uint256 expiration,uint256 strikePrice,) = _optionsPool.getOptionsById(optionsId);\r\n        expiration = expiration.sub(now);\r\n        uint256 currentPrice = _oracle.getUnderlyingPrice(underlying);\r\n        uint256 optPrice = _optionsPrice.getOptionsPrice(currentPrice,strikePrice,expiration,underlying,optType);\r\n        uint256 allPay = optPrice.mul(amount);\r\n        emit SellOption(msg.sender,optionsId,amount,allPay);\r\n        _paybackWorth(allPay,sellFee);\r\n    }\r\n    function exerciseOption(uint256 optionsId,uint256 amount)public{\r\n        require(amount>0 , \"exercise amount is zero!\");\r\n        uint256 allPay = _optionsPool.getExerciseWorth(optionsId,amount);\r\n        if (allPay == 0) {\r\n            return;\r\n        }\r\n        _optionsPool.burnOptions(msg.sender,optionsId,amount);\r\n        emit ExerciseOption(msg.sender,optionsId,amount,allPay);\r\n        _paybackWorth(allPay,exerciseFee);\r\n    }\r\n\r\n}",
  "sourcePath": "C:\\work\\solidity\\FinnexusOptions_V2\\contracts\\OptionsManagerV2.sol",
  "compiler": {
    "name": "solc",
    "version": "0.4.26+commit.4563c3fc.Emscripten.clang"
  },
  "schemaVersion": "3.1.0",
  "updatedAt": "2020-07-29T05:14:30.773Z",
  "networkType": "ethereum",
  "devdoc": {
    "methods": {
      "addWhiteList(address)": {
        "details": "Implementation of add an eligible address into the whitelist.\r",
        "params": {
          "addAddress": "new eligible address.\r"
        }
      },
      "allowance(address,address)": {
        "details": "See {IERC20-allowance}.\r"
      },
      "approve(address,uint256)": {
        "details": "See {IERC20-approve}.\r      * Requirements:\r      * - `spender` cannot be the zero address.\r"
      },
      "balanceOf(address)": {
        "details": "See {IERC20-balanceOf}.\r"
      },
      "decreaseAllowance(address,uint256)": {
        "details": "Atomically decreases the allowance granted to `spender` by the caller.\r      * This is an alternative to {approve} that can be used as a mitigation for\r problems described in {IERC20-approve}.\r      * Emits an {Approval} event indicating the updated allowance.\r      * Requirements:\r      * - `spender` cannot be the zero address.\r - `spender` must have allowance for the caller of at least\r `subtractedValue`.\r"
      },
      "getWhiteList()": {
        "details": "Implementation of getting the eligible whitelist.\r"
      },
      "increaseAllowance(address,uint256)": {
        "details": "Atomically increases the allowance granted to `spender` by the caller.\r      * This is an alternative to {approve} that can be used as a mitigation for\r problems described in {IERC20-approve}.\r      * Emits an {Approval} event indicating the updated allowance.\r      * Requirements:\r      * - `spender` cannot be the zero address.\r"
      },
      "isEligibleAddress(address)": {
        "details": "Implementation of testing whether the input address is eligible.\r",
        "params": {
          "tmpAddress": "input address for testing.\r"
        }
      },
      "isOwner()": {
        "details": "Returns true if the caller is the current owner."
      },
      "owner()": {
        "details": "Returns the address of the current owner."
      },
      "removeWhiteList(address)": {
        "details": "Implementation of revoke an invalid address from the whitelist.\r",
        "params": {
          "removeAddress": "revoked address.\r"
        }
      },
      "renounceOwnership()": {
        "details": "Leaves the contract without owner. It will not be possible to call `onlyOwner` functions anymore. Can only be called by the current owner.     * NOTE: Renouncing ownership will leave the contract without an owner, thereby removing any functionality that is only available to the owner."
      },
      "setTransactionFee(uint256,uint256,uint256)": {
        "details": "set the rate of trasaction fee.\r",
        "params": {
          "denominator": "thedenominator of transaction fee.\r transaction fee = numerator/denominator;\r",
          "feeType": "the transaction fee type\r",
          "numerator": "the numerator of transaction fee .\r"
        }
      },
      "totalSupply()": {
        "details": "See {IERC20-totalSupply}.\r"
      },
      "transferOwnership(address)": {
        "details": "Transfers ownership of the contract to a new account (`newOwner`). Can only be called by the current owner."
      }
    }
  },
  "userdoc": {
    "methods": {
      "setHalt(bool)": {
        "notice": "function Emergency situation that requires contribution period to stop or not."
      },
      "setOperator(address)": {
        "notice": "contribution period to stop or not."
      }
    }
  }
}