{
  "contractName": "OptionsManagerV2",
  "abi": [
    {
      "constant": true,
      "inputs": [
        {
          "name": "",
          "type": "address"
        }
      ],
      "name": "lockedBalances",
      "outputs": [
        {
          "name": "",
          "type": "uint256"
        }
      ],
      "payable": false,
      "stateMutability": "view",
      "type": "function"
    },
    {
      "constant": true,
      "inputs": [],
      "name": "name",
      "outputs": [
        {
          "name": "",
          "type": "string"
        }
      ],
      "payable": false,
      "stateMutability": "view",
      "type": "function"
    },
    {
      "constant": false,
      "inputs": [
        {
          "name": "spender",
          "type": "address"
        },
        {
          "name": "amount",
          "type": "uint256"
        }
      ],
      "name": "approve",
      "outputs": [
        {
          "name": "",
          "type": "bool"
        }
      ],
      "payable": false,
      "stateMutability": "nonpayable",
      "type": "function"
    },
    {
      "constant": true,
      "inputs": [],
      "name": "getWhiteList",
      "outputs": [
        {
          "name": "",
          "type": "address[]"
        }
      ],
      "payable": false,
      "stateMutability": "view",
      "type": "function"
    },
    {
      "constant": true,
      "inputs": [],
      "name": "getLeftCollateral",
      "outputs": [
        {
          "name": "",
          "type": "uint256"
        }
      ],
      "payable": false,
      "stateMutability": "view",
      "type": "function"
    },
    {
      "constant": true,
      "inputs": [
        {
          "name": "",
          "type": "address"
        }
      ],
      "name": "netWorthBalances",
      "outputs": [
        {
          "name": "",
          "type": "uint256"
        }
      ],
      "payable": false,
      "stateMutability": "view",
      "type": "function"
    },
    {
      "constant": true,
      "inputs": [],
      "name": "totalSupply",
      "outputs": [
        {
          "name": "",
          "type": "uint256"
        }
      ],
      "payable": false,
      "stateMutability": "view",
      "type": "function"
    },
    {
      "constant": false,
      "inputs": [
        {
          "name": "optionsPool",
          "type": "address"
        }
      ],
      "name": "setOptionsPoolAddress",
      "outputs": [],
      "payable": false,
      "stateMutability": "nonpayable",
      "type": "function"
    },
    {
      "constant": false,
      "inputs": [
        {
          "name": "removeAddress",
          "type": "address"
        }
      ],
      "name": "removeWhiteList",
      "outputs": [
        {
          "name": "",
          "type": "bool"
        }
      ],
      "payable": false,
      "stateMutability": "nonpayable",
      "type": "function"
    },
    {
      "constant": false,
      "inputs": [
        {
          "name": "sender",
          "type": "address"
        },
        {
          "name": "recipient",
          "type": "address"
        },
        {
          "name": "amount",
          "type": "uint256"
        }
      ],
      "name": "transferFrom",
      "outputs": [
        {
          "name": "",
          "type": "bool"
        }
      ],
      "payable": false,
      "stateMutability": "nonpayable",
      "type": "function"
    },
    {
      "constant": true,
      "inputs": [
        {
          "name": "",
          "type": "address"
        }
      ],
      "name": "balances",
      "outputs": [
        {
          "name": "",
          "type": "uint256"
        }
      ],
      "payable": false,
      "stateMutability": "view",
      "type": "function"
    },
    {
      "constant": true,
      "inputs": [
        {
          "name": "",
          "type": "address"
        }
      ],
      "name": "collateralBalances",
      "outputs": [
        {
          "name": "",
          "type": "uint256"
        }
      ],
      "payable": false,
      "stateMutability": "view",
      "type": "function"
    },
    {
      "constant": true,
      "inputs": [
        {
          "name": "collateral",
          "type": "address"
        }
      ],
      "name": "getCollateralMinerRate",
      "outputs": [
        {
          "name": "",
          "type": "uint256"
        }
      ],
      "payable": false,
      "stateMutability": "view",
      "type": "function"
    },
    {
      "constant": false,
      "inputs": [],
      "name": "redeemAll",
      "outputs": [],
      "payable": false,
      "stateMutability": "nonpayable",
      "type": "function"
    },
    {
      "constant": true,
      "inputs": [],
      "name": "decimals",
      "outputs": [
        {
          "name": "",
          "type": "uint8"
        }
      ],
      "payable": false,
      "stateMutability": "view",
      "type": "function"
    },
    {
      "constant": false,
      "inputs": [
        {
          "name": "collateral",
          "type": "address"
        },
        {
          "name": "thousandths",
          "type": "uint256"
        }
      ],
      "name": "setCollateralMinerRate",
      "outputs": [],
      "payable": false,
      "stateMutability": "nonpayable",
      "type": "function"
    },
    {
      "constant": true,
      "inputs": [
        {
          "name": "strikePrice",
          "type": "uint256"
        },
        {
          "name": "underlyingPrice",
          "type": "uint256"
        },
        {
          "name": "amount",
          "type": "uint256"
        },
        {
          "name": "optType",
          "type": "uint8"
        }
      ],
      "name": "calOptionsOccupied",
      "outputs": [
        {
          "name": "",
          "type": "uint256"
        }
      ],
      "payable": false,
      "stateMutability": "view",
      "type": "function"
    },
    {
      "constant": true,
      "inputs": [
        {
          "name": "feeType",
          "type": "uint256"
        },
        {
          "name": "amount",
          "type": "uint256"
        }
      ],
      "name": "calculateFee",
      "outputs": [
        {
          "name": "",
          "type": "uint256"
        }
      ],
      "payable": false,
      "stateMutability": "view",
      "type": "function"
    },
    {
      "constant": false,
      "inputs": [
        {
          "name": "spender",
          "type": "address"
        },
        {
          "name": "addedValue",
          "type": "uint256"
        }
      ],
      "name": "increaseAllowance",
      "outputs": [
        {
          "name": "",
          "type": "bool"
        }
      ],
      "payable": false,
      "stateMutability": "nonpayable",
      "type": "function"
    },
    {
      "constant": true,
      "inputs": [
        {
          "name": "user",
          "type": "address"
        }
      ],
      "name": "getUserPayingUsd",
      "outputs": [
        {
          "name": "",
          "type": "uint256"
        }
      ],
      "payable": false,
      "stateMutability": "view",
      "type": "function"
    },
    {
      "constant": true,
      "inputs": [
        {
          "name": "account",
          "type": "address"
        }
      ],
      "name": "getUserTotalWorth",
      "outputs": [
        {
          "name": "",
          "type": "uint256"
        }
      ],
      "payable": false,
      "stateMutability": "view",
      "type": "function"
    },
    {
      "constant": false,
      "inputs": [
        {
          "name": "oracle",
          "type": "address"
        }
      ],
      "name": "setOracleAddress",
      "outputs": [],
      "payable": false,
      "stateMutability": "nonpayable",
      "type": "function"
    },
    {
      "constant": true,
      "inputs": [
        {
          "name": "",
          "type": "address"
        }
      ],
      "name": "feeBalances",
      "outputs": [
        {
          "name": "",
          "type": "uint256"
        }
      ],
      "payable": false,
      "stateMutability": "view",
      "type": "function"
    },
    {
      "constant": true,
      "inputs": [],
      "name": "collateralRate",
      "outputs": [
        {
          "name": "numerator",
          "type": "uint256"
        },
        {
          "name": "denominator",
          "type": "uint256"
        }
      ],
      "payable": false,
      "stateMutability": "view",
      "type": "function"
    },
    {
      "constant": true,
      "inputs": [
        {
          "name": "",
          "type": "uint256"
        }
      ],
      "name": "whiteList",
      "outputs": [
        {
          "name": "",
          "type": "address"
        }
      ],
      "payable": false,
      "stateMutability": "view",
      "type": "function"
    },
    {
      "constant": true,
      "inputs": [],
      "name": "getOptionsPriceAddress",
      "outputs": [
        {
          "name": "",
          "type": "address"
        }
      ],
      "payable": false,
      "stateMutability": "view",
      "type": "function"
    },
    {
      "constant": false,
      "inputs": [
        {
          "name": "collateral",
          "type": "address"
        },
        {
          "name": "amount",
          "type": "uint256"
        }
      ],
      "name": "addCollateral",
      "outputs": [],
      "payable": true,
      "stateMutability": "payable",
      "type": "function"
    },
    {
      "constant": true,
      "inputs": [
        {
          "name": "account",
          "type": "address"
        }
      ],
      "name": "balanceOf",
      "outputs": [
        {
          "name": "",
          "type": "uint256"
        }
      ],
      "payable": false,
      "stateMutability": "view",
      "type": "function"
    },
    {
      "constant": false,
      "inputs": [],
      "name": "renounceOwnership",
      "outputs": [],
      "payable": false,
      "stateMutability": "nonpayable",
      "type": "function"
    },
    {
      "constant": true,
      "inputs": [
        {
          "name": "tmpAddress",
          "type": "address"
        }
      ],
      "name": "isEligibleAddress",
      "outputs": [
        {
          "name": "",
          "type": "bool"
        }
      ],
      "payable": false,
      "stateMutability": "view",
      "type": "function"
    },
    {
      "constant": true,
      "inputs": [
        {
          "name": "",
          "type": "address"
        }
      ],
      "name": "lockedTotalWorth",
      "outputs": [
        {
          "name": "",
          "type": "uint256"
        }
      ],
      "payable": false,
      "stateMutability": "view",
      "type": "function"
    },
    {
      "constant": true,
      "inputs": [],
      "name": "getCollateralRate",
      "outputs": [
        {
          "name": "",
          "type": "uint256"
        },
        {
          "name": "",
          "type": "uint256"
        }
      ],
      "payable": false,
      "stateMutability": "view",
      "type": "function"
    },
    {
      "constant": true,
      "inputs": [],
      "name": "owner",
      "outputs": [
        {
          "name": "",
          "type": "address"
        }
      ],
      "payable": false,
      "stateMutability": "view",
      "type": "function"
    },
    {
      "constant": true,
      "inputs": [],
      "name": "isOwner",
      "outputs": [
        {
          "name": "",
          "type": "bool"
        }
      ],
      "payable": false,
      "stateMutability": "view",
      "type": "function"
    },
    {
      "constant": false,
      "inputs": [
        {
          "name": "currency",
          "type": "address"
        }
      ],
      "name": "redeem",
      "outputs": [],
      "payable": false,
      "stateMutability": "nonpayable",
      "type": "function"
    },
    {
      "constant": true,
      "inputs": [],
      "name": "symbol",
      "outputs": [
        {
          "name": "",
          "type": "string"
        }
      ],
      "payable": false,
      "stateMutability": "view",
      "type": "function"
    },
    {
      "constant": false,
      "inputs": [
        {
          "name": "calInfo",
          "type": "uint256"
        }
      ],
      "name": "setPhaseSharedPayment",
      "outputs": [],
      "payable": false,
      "stateMutability": "nonpayable",
      "type": "function"
    },
    {
      "constant": false,
      "inputs": [
        {
          "name": "optionsPrice",
          "type": "address"
        }
      ],
      "name": "setOptionsPriceAddress",
      "outputs": [],
      "payable": false,
      "stateMutability": "nonpayable",
      "type": "function"
    },
    {
      "constant": false,
      "inputs": [
        {
          "name": "tokenAmount",
          "type": "uint256"
        },
        {
          "name": "collateral",
          "type": "address"
        }
      ],
      "name": "redeemCollateral",
      "outputs": [],
      "payable": false,
      "stateMutability": "nonpayable",
      "type": "function"
    },
    {
      "constant": false,
      "inputs": [
        {
          "name": "spender",
          "type": "address"
        },
        {
          "name": "subtractedValue",
          "type": "uint256"
        }
      ],
      "name": "decreaseAllowance",
      "outputs": [
        {
          "name": "",
          "type": "bool"
        }
      ],
      "payable": false,
      "stateMutability": "nonpayable",
      "type": "function"
    },
    {
      "constant": false,
      "inputs": [
        {
          "name": "settlement",
          "type": "address"
        },
        {
          "name": "thousandths",
          "type": "uint256"
        }
      ],
      "name": "setBuyerMinerRate",
      "outputs": [],
      "payable": false,
      "stateMutability": "nonpayable",
      "type": "function"
    },
    {
      "constant": true,
      "inputs": [
        {
          "name": "account",
          "type": "address"
        }
      ],
      "name": "calCollateralWorth",
      "outputs": [
        {
          "name": "",
          "type": "uint256[]"
        }
      ],
      "payable": false,
      "stateMutability": "view",
      "type": "function"
    },
    {
      "constant": false,
      "inputs": [
        {
          "name": "recipient",
          "type": "address"
        },
        {
          "name": "amount",
          "type": "uint256"
        }
      ],
      "name": "transfer",
      "outputs": [
        {
          "name": "",
          "type": "bool"
        }
      ],
      "payable": false,
      "stateMutability": "nonpayable",
      "type": "function"
    },
    {
      "constant": true,
      "inputs": [],
      "name": "getOracleAddress",
      "outputs": [
        {
          "name": "",
          "type": "address"
        }
      ],
      "payable": false,
      "stateMutability": "view",
      "type": "function"
    },
    {
      "constant": true,
      "inputs": [
        {
          "name": "settlement",
          "type": "address"
        }
      ],
      "name": "getBuyerMinerRate",
      "outputs": [
        {
          "name": "",
          "type": "uint256"
        }
      ],
      "payable": false,
      "stateMutability": "view",
      "type": "function"
    },
    {
      "constant": false,
      "inputs": [
        {
          "name": "operator",
          "type": "address"
        }
      ],
      "name": "setOperator",
      "outputs": [],
      "payable": false,
      "stateMutability": "nonpayable",
      "type": "function"
    },
    {
      "constant": true,
      "inputs": [
        {
          "name": "user",
          "type": "address"
        },
        {
          "name": "collateral",
          "type": "address"
        }
      ],
      "name": "userInputCollateral",
      "outputs": [
        {
          "name": "",
          "type": "uint256"
        }
      ],
      "payable": false,
      "stateMutability": "view",
      "type": "function"
    },
    {
      "constant": true,
      "inputs": [],
      "name": "halted",
      "outputs": [
        {
          "name": "",
          "type": "bool"
        }
      ],
      "payable": false,
      "stateMutability": "view",
      "type": "function"
    },
    {
      "constant": false,
      "inputs": [
        {
          "name": "feeType",
          "type": "uint256"
        },
        {
          "name": "numerator",
          "type": "uint256"
        },
        {
          "name": "denominator",
          "type": "uint256"
        }
      ],
      "name": "setTransactionFee",
      "outputs": [],
      "payable": false,
      "stateMutability": "nonpayable",
      "type": "function"
    },
    {
      "constant": true,
      "inputs": [],
      "name": "getOptionsPoolAddress",
      "outputs": [
        {
          "name": "",
          "type": "address"
        }
      ],
      "payable": false,
      "stateMutability": "view",
      "type": "function"
    },
    {
      "constant": true,
      "inputs": [
        {
          "name": "account",
          "type": "address"
        }
      ],
      "name": "getLockedBalance",
      "outputs": [
        {
          "name": "",
          "type": "uint256"
        },
        {
          "name": "",
          "type": "uint256"
        }
      ],
      "payable": false,
      "stateMutability": "view",
      "type": "function"
    },
    {
      "constant": true,
      "inputs": [],
      "name": "getTokenNetworth",
      "outputs": [
        {
          "name": "",
          "type": "uint256"
        }
      ],
      "payable": false,
      "stateMutability": "view",
      "type": "function"
    },
    {
      "constant": true,
      "inputs": [
        {
          "name": "settlement",
          "type": "address"
        }
      ],
      "name": "getFeeBalance",
      "outputs": [
        {
          "name": "",
          "type": "uint256"
        }
      ],
      "payable": false,
      "stateMutability": "view",
      "type": "function"
    },
    {
      "constant": false,
      "inputs": [
        {
          "name": "calInfo",
          "type": "uint256"
        },
        {
          "name": "sharedBalances",
          "type": "int256[]"
        },
        {
          "name": "prices",
          "type": "uint256[]"
        },
        {
          "name": "firstOption",
          "type": "uint256"
        },
        {
          "name": "calTime",
          "type": "uint256"
        }
      ],
      "name": "setSharedPayment",
      "outputs": [],
      "payable": false,
      "stateMutability": "nonpayable",
      "type": "function"
    },
    {
      "constant": true,
      "inputs": [],
      "name": "getOccupiedCollateral",
      "outputs": [
        {
          "name": "",
          "type": "uint256"
        }
      ],
      "payable": false,
      "stateMutability": "view",
      "type": "function"
    },
    {
      "constant": true,
      "inputs": [
        {
          "name": "feeType",
          "type": "uint256"
        }
      ],
      "name": "getFeeRate",
      "outputs": [
        {
          "name": "",
          "type": "uint256"
        },
        {
          "name": "",
          "type": "uint256"
        }
      ],
      "payable": false,
      "stateMutability": "view",
      "type": "function"
    },
    {
      "constant": true,
      "inputs": [],
      "name": "getTotalCollateral",
      "outputs": [
        {
          "name": "",
          "type": "uint256"
        }
      ],
      "payable": false,
      "stateMutability": "view",
      "type": "function"
    },
    {
      "constant": true,
      "inputs": [],
      "name": "getUnlockedCollateral",
      "outputs": [
        {
          "name": "",
          "type": "uint256"
        }
      ],
      "payable": false,
      "stateMutability": "view",
      "type": "function"
    },
    {
      "constant": true,
      "inputs": [
        {
          "name": "owner",
          "type": "address"
        },
        {
          "name": "spender",
          "type": "address"
        }
      ],
      "name": "allowance",
      "outputs": [
        {
          "name": "",
          "type": "uint256"
        }
      ],
      "payable": false,
      "stateMutability": "view",
      "type": "function"
    },
    {
      "constant": true,
      "inputs": [
        {
          "name": "",
          "type": "address"
        }
      ],
      "name": "userCollateralPaying",
      "outputs": [
        {
          "name": "",
          "type": "uint256"
        }
      ],
      "payable": false,
      "stateMutability": "view",
      "type": "function"
    },
    {
      "constant": true,
      "inputs": [
        {
          "name": "",
          "type": "uint256"
        }
      ],
      "name": "FeeRates",
      "outputs": [
        {
          "name": "numerator",
          "type": "uint256"
        },
        {
          "name": "denominator",
          "type": "uint256"
        }
      ],
      "payable": false,
      "stateMutability": "view",
      "type": "function"
    },
    {
      "constant": true,
      "inputs": [],
      "name": "getAvailableCollateral",
      "outputs": [
        {
          "name": "",
          "type": "uint256"
        }
      ],
      "payable": false,
      "stateMutability": "view",
      "type": "function"
    },
    {
      "constant": false,
      "inputs": [
        {
          "name": "addAddress",
          "type": "address"
        }
      ],
      "name": "addWhiteList",
      "outputs": [],
      "payable": false,
      "stateMutability": "nonpayable",
      "type": "function"
    },
    {
      "constant": true,
      "inputs": [],
      "name": "getOperator",
      "outputs": [
        {
          "name": "",
          "type": "address"
        }
      ],
      "payable": false,
      "stateMutability": "view",
      "type": "function"
    },
    {
      "constant": false,
      "inputs": [
        {
          "name": "numerator",
          "type": "uint256"
        },
        {
          "name": "denominator",
          "type": "uint256"
        }
      ],
      "name": "setCollateralRate",
      "outputs": [],
      "payable": false,
      "stateMutability": "nonpayable",
      "type": "function"
    },
    {
      "constant": true,
      "inputs": [],
      "name": "getAllFeeBalances",
      "outputs": [
        {
          "name": "",
          "type": "address[]"
        },
        {
          "name": "",
          "type": "uint256[]"
        }
      ],
      "payable": false,
      "stateMutability": "view",
      "type": "function"
    },
    {
      "constant": false,
      "inputs": [
        {
          "name": "newOwner",
          "type": "address"
        }
      ],
      "name": "transferOwnership",
      "outputs": [],
      "payable": false,
      "stateMutability": "nonpayable",
      "type": "function"
    },
    {
      "constant": false,
      "inputs": [
        {
          "name": "halt",
          "type": "bool"
        }
      ],
      "name": "setHalt",
      "outputs": [],
      "payable": false,
      "stateMutability": "nonpayable",
      "type": "function"
    },
    {
      "constant": true,
      "inputs": [
        {
          "name": "tmpAddress",
          "type": "address"
        }
      ],
      "name": "checkEligibleAddress",
      "outputs": [],
      "payable": false,
      "stateMutability": "view",
      "type": "function"
    },
    {
      "inputs": [
        {
          "name": "oracleAddr",
          "type": "address"
        },
        {
          "name": "optionsPriceAddr",
          "type": "address"
        },
        {
          "name": "optionsPoolAddr",
          "type": "address"
        }
      ],
      "payable": false,
      "stateMutability": "nonpayable",
      "type": "constructor"
    },
    {
      "anonymous": false,
      "inputs": [
        {
          "indexed": true,
          "name": "from",
          "type": "address"
        },
        {
          "indexed": true,
          "name": "settlement",
          "type": "address"
        },
        {
          "indexed": true,
          "name": "optionId",
          "type": "uint256"
        },
        {
          "indexed": false,
          "name": "optionPrice",
          "type": "uint256"
        },
        {
          "indexed": false,
          "name": "settlementAmount",
          "type": "uint256"
        },
        {
          "indexed": false,
          "name": "optionAmount",
          "type": "uint256"
        }
      ],
      "name": "BuyOption",
      "type": "event"
    },
    {
      "anonymous": false,
      "inputs": [
        {
          "indexed": true,
          "name": "from",
          "type": "address"
        },
        {
          "indexed": true,
          "name": "optionId",
          "type": "uint256"
        },
        {
          "indexed": false,
          "name": "amount",
          "type": "uint256"
        },
        {
          "indexed": false,
          "name": "sellValue",
          "type": "uint256"
        }
      ],
      "name": "SellOption",
      "type": "event"
    },
    {
      "anonymous": false,
      "inputs": [
        {
          "indexed": true,
          "name": "from",
          "type": "address"
        },
        {
          "indexed": true,
          "name": "optionId",
          "type": "uint256"
        },
        {
          "indexed": false,
          "name": "amount",
          "type": "uint256"
        },
        {
          "indexed": false,
          "name": "sellValue",
          "type": "uint256"
        }
      ],
      "name": "ExerciseOption",
      "type": "event"
    },
    {
      "anonymous": false,
      "inputs": [
        {
          "indexed": false,
          "name": "value0",
          "type": "uint256"
        },
        {
          "indexed": false,
          "name": "value1",
          "type": "uint256"
        },
        {
          "indexed": false,
          "name": "value2",
          "type": "uint256"
        },
        {
          "indexed": false,
          "name": "value3",
          "type": "uint256"
        }
      ],
      "name": "DebugEvent",
      "type": "event"
    },
    {
      "anonymous": false,
      "inputs": [
        {
          "indexed": true,
          "name": "from",
          "type": "address"
        },
        {
          "indexed": true,
          "name": "collateral",
          "type": "address"
        },
        {
          "indexed": false,
          "name": "amount",
          "type": "uint256"
        },
        {
          "indexed": false,
          "name": "tokenAmount",
          "type": "uint256"
        }
      ],
      "name": "AddCollateral",
      "type": "event"
    },
    {
      "anonymous": false,
      "inputs": [
        {
          "indexed": true,
          "name": "from",
          "type": "address"
        },
        {
          "indexed": false,
          "name": "collateral",
          "type": "address"
        },
        {
          "indexed": false,
          "name": "allRedeem",
          "type": "uint256"
        }
      ],
      "name": "RedeemCollateral",
      "type": "event"
    },
    {
      "anonymous": false,
      "inputs": [
        {
          "indexed": true,
          "name": "value1",
          "type": "uint256"
        },
        {
          "indexed": true,
          "name": "value2",
          "type": "uint256"
        },
        {
          "indexed": true,
          "name": "value3",
          "type": "uint256"
        }
      ],
      "name": "DebugEvent",
      "type": "event"
    },
    {
      "anonymous": false,
      "inputs": [
        {
          "indexed": true,
          "name": "owner",
          "type": "address"
        },
        {
          "indexed": false,
          "name": "amount",
          "type": "uint256"
        },
        {
          "indexed": false,
          "name": "worth",
          "type": "uint256"
        }
      ],
      "name": "AddLocked",
      "type": "event"
    },
    {
      "anonymous": false,
      "inputs": [
        {
          "indexed": true,
          "name": "owner",
          "type": "address"
        },
        {
          "indexed": false,
          "name": "amount",
          "type": "uint256"
        },
        {
          "indexed": false,
          "name": "worth",
          "type": "uint256"
        }
      ],
      "name": "BurnLocked",
      "type": "event"
    },
    {
      "anonymous": false,
      "inputs": [
        {
          "indexed": true,
          "name": "from",
          "type": "address"
        },
        {
          "indexed": true,
          "name": "to",
          "type": "address"
        },
        {
          "indexed": false,
          "name": "value",
          "type": "uint256"
        }
      ],
      "name": "Transfer",
      "type": "event"
    },
    {
      "anonymous": false,
      "inputs": [
        {
          "indexed": true,
          "name": "owner",
          "type": "address"
        },
        {
          "indexed": true,
          "name": "spender",
          "type": "address"
        },
        {
          "indexed": false,
          "name": "value",
          "type": "uint256"
        }
      ],
      "name": "Approval",
      "type": "event"
    },
    {
      "anonymous": false,
      "inputs": [
        {
          "indexed": true,
          "name": "recieptor",
          "type": "address"
        },
        {
          "indexed": true,
          "name": "settlement",
          "type": "address"
        },
        {
          "indexed": false,
          "name": "payback",
          "type": "uint256"
        }
      ],
      "name": "FeePayback",
      "type": "event"
    },
    {
      "anonymous": false,
      "inputs": [
        {
          "indexed": true,
          "name": "settlement",
          "type": "address"
        },
        {
          "indexed": false,
          "name": "payback",
          "type": "uint256"
        }
      ],
      "name": "AddFee",
      "type": "event"
    },
    {
      "anonymous": false,
      "inputs": [
        {
          "indexed": true,
          "name": "recieptor",
          "type": "address"
        },
        {
          "indexed": true,
          "name": "settlement",
          "type": "address"
        },
        {
          "indexed": false,
          "name": "payback",
          "type": "uint256"
        }
      ],
      "name": "TransferPayback",
      "type": "event"
    },
    {
      "anonymous": false,
      "inputs": [
        {
          "indexed": true,
          "name": "previousOwner",
          "type": "address"
        },
        {
          "indexed": true,
          "name": "newOwner",
          "type": "address"
        }
      ],
      "name": "OwnershipTransferred",
      "type": "event"
    },
    {
      "constant": false,
      "inputs": [
        {
          "name": "settlement",
          "type": "address"
        },
        {
          "name": "settlementAmount",
          "type": "uint256"
        },
        {
          "name": "strikePrice",
          "type": "uint256"
        },
        {
          "name": "underlying",
          "type": "uint32"
        },
        {
          "name": "expiration",
          "type": "uint256"
        },
        {
          "name": "amount",
          "type": "uint256"
        },
        {
          "name": "optType",
          "type": "uint8"
        }
      ],
      "name": "buyOption",
      "outputs": [],
      "payable": true,
      "stateMutability": "payable",
      "type": "function"
    },
    {
      "constant": false,
      "inputs": [
        {
          "name": "optionsId",
          "type": "uint256"
        },
        {
          "name": "amount",
          "type": "uint256"
        }
      ],
      "name": "sellOption",
      "outputs": [],
      "payable": false,
      "stateMutability": "nonpayable",
      "type": "function"
    },
    {
      "constant": false,
      "inputs": [
        {
          "name": "optionsId",
          "type": "uint256"
        },
        {
          "name": "amount",
          "type": "uint256"
        }
      ],
      "name": "exerciseOption",
      "outputs": [],
      "payable": false,
      "stateMutability": "nonpayable",
      "type": "function"
    }
  ],
  "bytecode": "0x6000805460ff60a860020a60ff02011916815560065560c0604052600a60808190527f536861726564436f696e0000000000000000000000000000000000000000000060a09081526200005691600791906200047e565b506040805180820190915260058082527f53436f696e00000000000000000000000000000000000000000000000000000060209092019182526200009d916008916200047e565b50600060095560408051808201909152600380825260016020909201829052601255601355348015620000cf57600080fd5b5060405160608062005aef8339810160408181528251602084015191909301516000805461010033810261010060a860020a0319909216919091178083559394929304600160a060020a0316917f8be0079c531659141344cd1fd0a4f28419497f9722a3daafe3b4186f6b6457e0908290a360408051808201825260038082526103e860208084018281528354600181810186556000868152965160029283027fc2575a0e9e593c00f959f8c92f12db2869c3395a3b0502d05e2516446f71f85b8181019290925593517fc2575a0e9e593c00f959f8c92f12db2869c3395a3b0502d05e2516446f71f85c948501558851808a018a5287815280860187815288548085018a55898b5291519185028084019290925551908501558851808a018a5287815280860187815288548085018a55898b5291519185028084019290925551908501558851808a018a5287815280860187815288548085018a55898b5291519185028084019290925551908501558851808a01909952868952938801948552855490810186559490955294519290930292830191909155519101556200028083640100000000620002b1810204565b620002948264010000000062000343810204565b620002a881640100000000620003d5810204565b50505062000520565b620002c464010000000062000467810204565b15156200032157604080517f08c379a0000000000000000000000000000000000000000000000000000000008152602060048201819052602482015260008051602062005acf833981519152604482015290519081900360640190fd5b600f8054600160a060020a031916600160a060020a0392909216919091179055565b6200035664010000000062000467810204565b1515620003b357604080517f08c379a0000000000000000000000000000000000000000000000000000000008152602060048201819052602482015260008051602062005acf833981519152604482015290519081900360640190fd5b60188054600160a060020a031916600160a060020a0392909216919091179055565b620003e864010000000062000467810204565b15156200044557604080517f08c379a0000000000000000000000000000000000000000000000000000000008152602060048201819052602482015260008051602062005acf833981519152604482015290519081900360640190fd5b60108054600160a060020a031916600160a060020a0392909216919091179055565b6000546101009004600160a060020a031633145b90565b828054600181600116156101000203166002900490600052602060002090601f016020900481019282601f10620004c157805160ff1916838001178555620004f1565b82800160010185558215620004f1579182015b82811115620004f1578251825591602001919060010190620004d4565b50620004ff92915062000503565b5090565b6200047b91905b80821115620004ff57600081556001016200050a565b61559f80620005306000396000f3006080604052600436106103345763ffffffff60e060020a6000350416630483a7f6811461033957806306fdde031461036c578063095ea7b3146103f657806309a9d76c1461042e5780630aaf3832146104935780630ecfad1e146104a857806318160ddd146104c95780631a5a3fce146104de5780632042e5c21461050157806323b872dd1461052257806327e235e31461054c57806329bc969d1461056d5780632c79414f1461058e5780632f4350c2146105af578063313ce567146105c4578063328ed62b146105ef57806332c82a5f1461061357806334e7312214610637578063395093511461065257806342049a7214610676578063447dbeac146106975780634c69c00f146106b857806353afc025146106d957806358a6be1c146106fa5780635c475d42146107285780635ca4b73b1461075c5780636d75b9ee1461077157806370a0823114610788578063715018a6146107a95780637c9c6712146107be578063817bf86d146107d957806381ee8a2e146107fa578063852185fc1461081b5780638da5cb5b146108305780638f32d59b14610845578063925c482c1461085a57806395a2251f1461088957806395d89b41146108aa578063a04115f6146108bf578063a093e2d0146108d7578063a20a8045146108f8578063a457c2d71461091c578063a46e5d97146105ef578063a56ea40314610940578063a9059cbb14610961578063b18b78dd14610985578063b2a302981461058e578063b3ab15fb1461099a578063b4d5a9c7146109bb578063b9b8af0b146109e2578063bf36b110146109f7578063c040725a14610a15578063c408689314610a2a578063c5e5a3ed14610a4b578063c78f680314610a60578063c7e2f8bd14610a81578063cd40581914610b1d578063d189290414610b32578063d2aaef4e14610b4d578063d6eb591014610b65578063dab5512914610b7a578063dd62ed3e14610b8f578063ddb944e514610bb6578063e0561aa114610bd7578063e28a327d14610bef578063e7cd4a0414610c04578063e7f43c6814610c25578063ef63e1f714610c3a578063f20568cd14610c55578063f2fde38b14610d03578063f495438714610d24578063f939fdca14610d3e575b600080fd5b34801561034557600080fd5b5061035a600160a060020a0360043516610d5f565b60408051918252519081900360200190f35b34801561037857600080fd5b50610381610d71565b6040805160208082528351818301528351919283929083019185019080838360005b838110156103bb5781810151838201526020016103a3565b50505050905090810190601f1680156103e85780820380516001836020036101000a031916815260200191505b509250505060405180910390f35b34801561040257600080fd5b5061041a600160a060020a0360043516602435610dff565b604080519115158252519081900360200190f35b34801561043a57600080fd5b50610443610e15565b60408051602080825283518183015283519192839290830191858101910280838360005b8381101561047f578181015183820152602001610467565b505050509050019250505060405180910390f35b34801561049f57600080fd5b5061035a610e78565b3480156104b457600080fd5b5061035a600160a060020a0360043516610e9e565b3480156104d557600080fd5b5061035a610eb0565b3480156104ea57600080fd5b506104ff600160a060020a0360043516610eb6565b005b34801561050d57600080fd5b5061041a600160a060020a0360043516610f31565b34801561052e57600080fd5b5061041a600160a060020a0360043581169060243516604435610f90565b34801561055857600080fd5b5061035a600160a060020a0360043516611043565b34801561057957600080fd5b5061035a600160a060020a0360043516611055565b34801561059a57600080fd5b5061035a600160a060020a0360043516611067565b3480156105bb57600080fd5b506104ff611082565b3480156105d057600080fd5b506105d9611115565b6040805160ff9092168252519081900360200190f35b3480156105fb57600080fd5b506104ff600160a060020a036004351660243561111a565b34801561061f57600080fd5b5061035a60043560243560443560ff60643516611182565b34801561064357600080fd5b5061035a6004356024356111d0565b34801561065e57600080fd5b5061041a600160a060020a0360043516602435611217565b34801561068257600080fd5b5061035a600160a060020a0360043516611253565b3480156106a357600080fd5b5061035a600160a060020a036004351661126e565b3480156106c457600080fd5b506104ff600160a060020a03600435166112bb565b3480156106e557600080fd5b5061035a600160a060020a0360043516611336565b34801561070657600080fd5b5061070f611348565b6040805192835260208301919091528051918290030190f35b34801561073457600080fd5b50610740600435611351565b60408051600160a060020a039092168252519081900360200190f35b34801561076857600080fd5b50610740611379565b6104ff600160a060020a0360043516602435611388565b34801561079457600080fd5b5061035a600160a060020a036004351661160d565b3480156107b557600080fd5b506104ff611628565b3480156107ca57600080fd5b506104ff6004356024356116d0565b3480156107e557600080fd5b5061041a600160a060020a03600435166118ab565b34801561080657600080fd5b5061035a600160a060020a0360043516611911565b34801561082757600080fd5b5061070f611923565b34801561083c57600080fd5b5061074061192d565b34801561085157600080fd5b5061041a611941565b6104ff600160a060020a036004351660243560443563ffffffff6064351660843560a43560ff60c43516611957565b34801561089557600080fd5b506104ff600160a060020a0360043516611c76565b3480156108b657600080fd5b50610381611e66565b3480156108cb57600080fd5b506104ff600435611ec1565b3480156108e357600080fd5b506104ff600160a060020a03600435166122ab565b34801561090457600080fd5b506104ff600435600160a060020a0360243516612326565b34801561092857600080fd5b5061041a600160a060020a036004351660243561249d565b34801561094c57600080fd5b50610443600160a060020a0360043516612536565b34801561096d57600080fd5b5061041a600160a060020a03600435166024356125ed565b34801561099157600080fd5b506107406125fa565b3480156109a657600080fd5b506104ff600160a060020a0360043516612609565b3480156109c757600080fd5b5061035a600160a060020a0360043581169060243516612684565b3480156109ee57600080fd5b5061041a6126af565b348015610a0357600080fd5b506104ff6004356024356044356126d1565b348015610a2157600080fd5b50610740612735565b348015610a3657600080fd5b5061070f600160a060020a0360043516612744565b348015610a5757600080fd5b5061035a61276c565b348015610a6c57600080fd5b5061035a600160a060020a036004351661279e565b348015610a8d57600080fd5b506040805160206004602480358281013584810280870186019097528086526104ff96843596369660449591949091019291829185019084908082843750506040805187358901803560208181028481018201909552818452989b9a9989019892975090820195509350839250850190849080828437509497505084359550505060209092013591506127b99050565b348015610b2957600080fd5b5061035a612a31565b348015610b3e57600080fd5b506104ff600435602435612ac5565b348015610b5957600080fd5b5061070f600435612e2b565b348015610b7157600080fd5b5061035a612e4c565b348015610b8657600080fd5b5061035a612f54565b348015610b9b57600080fd5b5061035a600160a060020a0360043581169060243516612f64565b348015610bc257600080fd5b5061035a600160a060020a0360043516612f8f565b348015610be357600080fd5b5061070f600435612fa1565b348015610bfb57600080fd5b5061035a612fcd565b348015610c1057600080fd5b506104ff600160a060020a0360043516612fe2565b348015610c3157600080fd5b50610740613039565b348015610c4657600080fd5b506104ff600435602435613048565b348015610c6157600080fd5b50610c6a61309f565b604051808060200180602001838103835285818151815260200191508051906020019060200280838360005b83811015610cae578181015183820152602001610c96565b50505050905001838103825284818151815260200191508051906020019060200280838360005b83811015610ced578181015183820152602001610cd5565b5050505090500194505050505060405180910390f35b348015610d0f57600080fd5b506104ff600160a060020a03600435166131a8565b348015610d3057600080fd5b506104ff60043515156131fd565b348015610d4a57600080fd5b506104ff600160a060020a036004351661328b565b600a6020526000908152604090205481565b6007805460408051602060026001851615610100026000190190941693909304601f81018490048402820184019092528181529291830182828015610df75780601f10610dcc57610100808354040283529160200191610df7565b820191906000526020600020905b815481529060010190602001808311610dda57829003601f168201915b505050505081565b6000610e0c3384846132ef565b50600192915050565b60606001805480602002602001604051908101604052809291908181526020018280548015610e6d57602002820191906000526020600020905b8154600160a060020a03168152600190910190602001808311610e4f575b505050505090505b90565b6000610e99610e85612a31565b610e8d612e4c565b9063ffffffff61345c16565b905090565b60146020526000908152604090205481565b60065490565b610ebe611941565b1515610f02576040805160e560020a62461bcd0281526020600482018190526024820152600080516020615554833981519152604482015290519081900360640190fd5b6010805473ffffffffffffffffffffffffffffffffffffffff1916600160a060020a0392909216919091179055565b6000610f3b611941565b1515610f7f576040805160e560020a62461bcd0281526020600482018190526024820152600080516020615554833981519152604482015290519081900360640190fd5b610f8a6001836134a5565b92915050565b6000610f9d848484613592565b60408051606081018252602881527f45524332303a207472616e7366657220616d6f756e74206578636565647320616020808301919091527f6c6c6f77616e636500000000000000000000000000000000000000000000000082840152600160a060020a0387166000908152600582528381203380835292529290922054611039928792909161103491879063ffffffff61370216565b6132ef565b5060019392505050565b60046020526000908152604090205481565b60156020526000908152604090205481565b600160a060020a03166000908152600d602052604090205490565b600061108c611941565b15156110d0576040805160e560020a62461bcd0281526020600482018190526024820152600080516020615554833981519152604482015290519081900360640190fd5b5060005b6001548110156111125761110a6001828154811015156110f057fe5b600091825260209091200154600160a060020a0316611c76565b6001016110d4565b50565b601281565b611122611941565b1515611166576040805160e560020a62461bcd0281526020600482018190526024820152600080516020615554833981519152604482015290519081900360640190fd5b600160a060020a039091166000908152600d6020526040902055565b60008060ff83161585871114156111aa576111a3868563ffffffff61379f16565b90506111bd565b6111ba858563ffffffff61379f16565b90505b6111c681613849565b9695505050505050565b60008060006111de85613878565b80549092506111f3908563ffffffff61379f16565b905061120c8260010154826138f790919063ffffffff16565b92505b505092915050565b336000818152600560209081526040808320600160a060020a03871684529091528120549091610e0c918590611034908663ffffffff61393916565b600160a060020a031660009081526016602052604090205490565b600160a060020a0381166000908152600b60209081526040808320546004909252822054610f8a91906112af906112a361276c565b9063ffffffff61379f16565b9063ffffffff61393916565b6112c3611941565b1515611307576040805160e560020a62461bcd0281526020600482018190526024820152600080516020615554833981519152604482015290519081900360640190fd5b600f805473ffffffffffffffffffffffffffffffffffffffff1916600160a060020a0392909216919091179055565b60026020526000908152604090205481565b60125460135482565b600180548290811061135f57fe5b600091825260209091200154600160a060020a0316905081565b601854600160a060020a031690565b6000806000806113988686613996565b9450600085116113f2576040805160e560020a62461bcd02815260206004820152601a60248201527f736574746c656d656e7420616d6f756e74206973207a65726f21000000000000604482015290519081900360640190fd5b6113fd6003866111d0565b93506114098685613ac9565b611419858563ffffffff61345c16565b600f546040805160e060020a6341976e09028152600160a060020a038a8116600483015291519398509116916341976e09916024808201926020929091908290030181600087803b15801561146d57600080fd5b505af1158015611481573d6000803e3d6000fd5b505050506040513d602081101561149757600080fd5b505192506114ab838663ffffffff61379f16565b91506114c56114b861276c565b839063ffffffff6138f716565b336000908152601660205260409020549091506114e8908363ffffffff61393916565b33600090815260166020908152604080832093909355600160a060020a0389168252601590522054611520908663ffffffff61393916565b600160a060020a03871660008181526015602090815260408083209490945533825260178152838220928252919091522054611562908663ffffffff61393916565b336000908152601760209081526040808320600160a060020a038b16845282528083209390935560149052205461159f908663ffffffff61393916565b600160a060020a0387166000818152601460209081526040918290209390935580518881529283018490528051919233927f33a089d94f9a0b7d0fe21e69b40d7dbe1965be652c7382cc778d46963db8c49b929181900390910190a36116053382613b48565b505050505050565b600160a060020a031660009081526004602052604090205490565b611630611941565b1515611674576040805160e560020a62461bcd0281526020600482018190526024820152600080516020615554833981519152604482015290519081900360640190fd5b60008054604051610100909104600160a060020a0316907f8be0079c531659141344cd1fd0a4f28419497f9722a3daafe3b4186f6b6457e0908390a36000805474ffffffffffffffffffffffffffffffffffffffff0019169055565b6000808211611729576040805160e560020a62461bcd02815260206004820152601860248201527f657865726369736520616d6f756e74206973207a65726f210000000000000000604482015290519081900360640190fd5b601054604080517f67b8ceb900000000000000000000000000000000000000000000000000000000815260048101869052602481018590529051600160a060020a03909216916367b8ceb9916044808201926020929091908290030181600087803b15801561179757600080fd5b505af11580156117ab573d6000803e3d6000fd5b505050506040513d60208110156117c157600080fd5b505190508015156117d1576118a6565b601054604080517f74e85fd200000000000000000000000000000000000000000000000000000000815233600482015260248101869052604481018590529051600160a060020a03909216916374e85fd29160648082019260009290919082900301818387803b15801561184457600080fd5b505af1158015611858573d6000803e3d6000fd5b5050604080518581526020810185905281518794503393507fc939d87d6a5458cd262393bdb2c5408330b7647ca14b752229b0301858a29972929181900390910190a36118a6816002613c0d565b505050565b6000610f8a600180548060200260200160405190810160405280929190818152602001828054801561190657602002820191906000526020600020905b8154600160a060020a031681526001909101906020018083116118e8575b505050505083613e1e565b600b6020526000908152604090205481565b6012546013549091565b6000546101009004600160a060020a031690565b6000546101009004600160a060020a0316331490565b601054604080517f3ad2fb570000000000000000000000000000000000000000000000000000000081526004810186905263ffffffff87166024820152905160009283928392600160a060020a0390921691633ad2fb5791604480820192869290919082900301818387803b1580156119cf57600080fd5b505af11580156119e3573d6000803e3d6000fd5b505050506119fd8460ff168863ffffffff16886000613e6f565b600f54604080517fda66325700000000000000000000000000000000000000000000000000000000815263ffffffff8b1660048201529051929550600160a060020a039091169163da663257916024808201926020929091908290030181600087803b158015611a6c57600080fd5b505af1158015611a80573d6000803e3d6000fd5b505050506040513d6020811015611a9657600080fd5b5051601854604080517f4b7d8e5c00000000000000000000000000000000000000000000000000000000815260048101849052602481018c9052604481018a905263ffffffff8b16606482015260ff881660848201529051929450600160a060020a0390911691634b7d8e5c9160a4808201926020929091908290030181600087803b158015611b2557600080fd5b505af1158015611b39573d6000803e3d6000fd5b505050506040513d6020811015611b4f57600080fd5b50519050611b5f88838787611182565b611b67612fcd565b1015611bbd576040805160e560020a62461bcd02815260206004820152601b60248201527f636f6c6c61746572616c20697320696e73756666696369656e74210000000000604482015290519081900360640190fd5b601054604080517f924a69ce000000000000000000000000000000000000000000000000000000008152336004820152600160a060020a038d8116602483015260448201879052606482018c90526084820186905260a482018990529151919092169163924a69ce9160c480830192600092919082900301818387803b158015611c4657600080fd5b505af1158015611c5a573d6000803e3d6000fd5b50505050611c6a8a8a8388613eb7565b50505050505050505050565b600080611c81611941565b1515611cc5576040805160e560020a62461bcd0281526020600482018190526024820152600080516020615554833981519152604482015290519081900360640190fd5b600160a060020a03831660009081526002602052604081205492508211611d36576040805160e560020a62461bcd02815260206004820152601260248201527f4974277320656d7074792062616c616e63650000000000000000000000000000604482015290519081900360640190fd5b600160a060020a0383166000818152600260205260408120551515611d8857604051339083156108fc029084906000818181858888f19350505050158015611d82573d6000803e3d6000fd5b50611e21565b50604080517fa9059cbb0000000000000000000000000000000000000000000000000000000081523360048201526024810183905290518391600160a060020a0383169163a9059cbb916044808201926020929091908290030181600087803b158015611df457600080fd5b505af1158015611e08573d6000803e3d6000fd5b505050506040513d6020811015611e1e57600080fd5b50505b604080518381529051600160a060020a0385169133917f747147be90b2a81a2e929994a92cd7bb71396bdbfd02f181867c81187d4f79449181900360200190a3505050565b6008805460408051602060026001851615610100026000190190941693909304601f81018490048402820184019092528181529291830182828015610df75780601f10610dcc57610100808354040283529160200191610df7565b6011546060906000908190839081908390600160a060020a03163314611f57576040805160e560020a62461bcd02815260206004820152602760248201527f4d616e6167657261626c653a2063616c6c6572206973206e6f7420746865204f60448201527f70657261746f7200000000000000000000000000000000000000000000000000606482015290519081900360840190fd5b601054604080517faf70df12000000000000000000000000000000000000000000000000000000008152600481018a8152602482019283526001805460448401819052600160a060020a039095169463af70df12948d94929392909160649091019084908015611ff057602002820191906000526020600020905b8154600160a060020a03168152600190910190602001808311611fd2575b50509350505050600060405180830381600087803b15801561201157600080fd5b505af1158015612025573d6000803e3d6000fd5b505050506040513d6000823e601f3d908101601f19168201604052606081101561204e57600080fd5b81019080805164010000000081111561206657600080fd5b8201602081018481111561207957600080fd5b815185602082028301116401000000008211171561209657600080fd5b50506020820151604090920151909950909750955050841590506122a257601054604080517fe5081c40000000000000000000000000000000000000000000000000000000008152600481018a8152602482019283526001805460448401819052600160a060020a039095169463e5081c40948d9492939290916064909101908490801561214d57602002820191906000526020600020905b8154600160a060020a0316815260019091019060200180831161212f575b50509350505050600060405180830381600087803b15801561216e57600080fd5b505af1158015612182573d6000803e3d6000fd5b505050506040513d6000823e601f3d908101601f1916820160409081528110156121ab57600080fd5b8101908080516401000000008111156121c357600080fd5b820160208101848111156121d657600080fd5b81518560208202830111640100000000821117156121f357600080fd5b5050929190602001805164010000000081111561220f57600080fd5b8201602081018481111561222257600080fd5b815185602082028301116401000000008211171561223f57600080fd5b50949750955060009450505050505b825181101561229557858181518110151561226557fe5b90602001906020020151838281518110151561227d57fe5b6020908102909101018051909101905260010161224e565b6122a287848488426127b9565b50505050505050565b6122b3611941565b15156122f7576040805160e560020a62461bcd0281526020600482018190526024820152600080516020615554833981519152604482015290519081900360640190fd5b6018805473ffffffffffffffffffffffffffffffffffffffff1916600160a060020a0392909216919091179055565b6000806000806000612337866118ab565b151561238d576040805160e560020a62461bcd02815260206004820152601f60248201527f736574746c656d656e7420697320756e737570706f7274656420746f6b656e00604482015290519081900360640190fd5b336000908152600a602090815260408083205460049092529091205401871115612401576040805160e560020a62461bcd02815260206004820152601e60248201527f53436f696e2062616c616e636520697320696e73756666696369656e74210000604482015290519081900360640190fd5b86151561240d576122a2565b612415610e78565b9450612421878661418e565b93509350838703965060008711156124625782850394506124428786614258565b9150915060008211156124625761245933836142e3565b92810192918201915b83836156ce7f36bc09f07bcf3d3fa05df7f9c56193487df0507ecd1d5a83845b56b4e6d7b73360405160405180910390a46122a286846143ce565b60408051606081018252602581527f45524332303a2064656372656173656420616c6c6f77616e63652062656c6f776020808301919091527f207a65726f0000000000000000000000000000000000000000000000000000008284015233600081815260058352848120600160a060020a0388168252909252928120549092610e0c92909186916110349190879063ffffffff61370216565b606080606060008061256c866001600081548110151561255257fe5b600091825260209091200154600160a060020a0316614921565b5060015491955093509150600090505b818110156125e3576125c3838281518110151561259557fe5b9060200190602002015185838151811015156125ad57fe5b602090810290910101519063ffffffff61393916565b84828151811015156125d157fe5b6020908102909101015260010161257c565b5091949350505050565b6000610e0c338484613592565b600f54600160a060020a031690565b612611611941565b1515612655576040805160e560020a62461bcd0281526020600482018190526024820152600080516020615554833981519152604482015290519081900360640190fd5b6011805473ffffffffffffffffffffffffffffffffffffffff1916600160a060020a0392909216919091179055565b600160a060020a03918216600090815260176020908152604080832093909416825291909152205490565b6000547501000000000000000000000000000000000000000000900460ff1681565b60006126db611941565b151561271f576040805160e560020a62461bcd0281526020600482018190526024820152600080516020615554833981519152604482015290519081900360640190fd5b61272884613878565b9283555060019091015550565b601054600160a060020a031690565b600160a060020a03166000908152600a6020908152604080832054600b909252909120549091565b60006006546000141561278457506305f5e100610e75565b60065461278f612f54565b81151561279857fe5b04905090565b600160a060020a031660009081526002602052604090205490565b6011546000908190600160a060020a03163314612846576040805160e560020a62461bcd02815260206004820152602760248201527f4d616e6167657261626c653a2063616c6c6572206973206e6f7420746865204f60448201527f70657261746f7200000000000000000000000000000000000000000000000000606482015290519081900360840190fd5b6010546040517f8ff239e6000000000000000000000000000000000000000000000000000000008152600481018981526024820187905260648201869052608060448301908152885160848401528851600160a060020a0390941693638ff239e6938c938a938c938b9360a401906020808701910280838360005b838110156128d95781810151838201526020016128c1565b5050505090500195505050505050600060405180830381600087803b15801561290157600080fd5b505af1158015612915573d6000803e3d6000fd5b50505050600091505b85518210156122a257600180548390811061293557fe5b60009182526020822001548751600160a060020a03909116925087908490811061295b57fe5b60209081029091010151126129ca576129ac868381518110151561297b57fe5b6020908102909101810151600160a060020a038416600090815260149092526040909120549063ffffffff61393916565b600160a060020a038216600090815260146020526040902055612a26565b612a0c86838151811015156129db57fe5b6020908102909101810151600160a060020a038416600090815260149092526040822054910363ffffffff61345c16565b600160a060020a0382166000908152601460205260409020555b60019091019061291e565b600080601060009054906101000a9004600160a060020a0316600160a060020a03166373a3d4246040518163ffffffff1660e060020a028152600401602060405180830381600087803b158015612a8757600080fd5b505af1158015612a9b573d6000803e3d6000fd5b505050506040513d6020811015612ab157600080fd5b50519050612abe81613849565b91505b5090565b6000808080808080808811612b24576040805160e560020a62461bcd02815260206004820152601460248201527f73656c6c20616d6f756e74206973207a65726f21000000000000000000000000604482015290519081900360640190fd5b601054604080517f74e85fd2000000000000000000000000000000000000000000000000000000008152336004820152602481018c9052604481018b90529051600160a060020a03909216916374e85fd29160648082019260009290919082900301818387803b158015612b9757600080fd5b505af1158015612bab573d6000803e3d6000fd5b5050601054604080517f48ee201d000000000000000000000000000000000000000000000000000000008152600481018e90529051600160a060020a0390921693506348ee201d925060248082019260e0929091908290030181600087803b158015612c1657600080fd5b505af1158015612c2a573d6000803e3d6000fd5b505050506040513d60e0811015612c4057600080fd5b5060408101516060820151608083015160a09093015191995097509095509350612c70854263ffffffff61345c16565b600f54604080517fda66325700000000000000000000000000000000000000000000000000000000815263ffffffff8a1660048201529051929750600160a060020a039091169163da663257916024808201926020929091908290030181600087803b158015612cdf57600080fd5b505af1158015612cf3573d6000803e3d6000fd5b505050506040513d6020811015612d0957600080fd5b5051601854604080517f4b7d8e5c00000000000000000000000000000000000000000000000000000000815260048101849052602481018890526044810189905263ffffffff8a16606482015260ff8b1660848201529051929550600160a060020a0390911691634b7d8e5c9160a4808201926020929091908290030181600087803b158015612d9857600080fd5b505af1158015612dac573d6000803e3d6000fd5b505050506040513d6020811015612dc257600080fd5b50519150612dd6828963ffffffff61379f16565b604080518a81526020810183905281519293508b9233927f4d6194525a1265d47b1d6b65f640509c7a2a8aa847fd0654fac933032e1348ac928290030190a3612e20816001613c0d565b505050505050505050565b6000806000612e3984613878565b8054600190910154909590945092505050565b60015460009081908180805b83831015612f4a576001805484908110612e6e57fe5b6000918252602080832090910154600f546040805160e060020a6341976e09028152600160a060020a0393841660048201819052915191975091909216936341976e099360248084019491939192918390030190829087803b158015612ed357600080fd5b505af1158015612ee7573d6000803e3d6000fd5b505050506040513d6020811015612efd57600080fd5b5051600160a060020a038316600090815260146020526040902054909150612f3d90612f3090839063ffffffff61379f16565b869063ffffffff61393916565b9450600190920191612e58565b5092949350505050565b6000610e99600954610e8d612e4c565b600160a060020a03918216600090815260056020908152604080832093909416825291909152205490565b60166020526000908152604090205481565b6003805482908110612faf57fe5b60009182526020909120600290910201805460019091015490915082565b6000610e99612fda612a31565b610e8d612f54565b612fea611941565b151561302e576040805160e560020a62461bcd0281526020600482018190526024820152600080516020615554833981519152604482015290519081900360640190fd5b611112600182614d96565b601154600160a060020a031690565b613050611941565b1515613094576040805160e560020a62461bcd0281526020600482018190526024820152600080516020615554833981519152604482015290519081900360640190fd5b601291909155601355565b606080606060006001805490506040519080825280602002602001820160405280156130d5578160200160208202803883390190505b509150600090505b60015481101561313f57600260006001838154811015156130fa57fe5b6000918252602080832090910154600160a060020a03168352820192909252604001902054825183908390811061312d57fe5b602090810290910101526001016130dd565b6001828180548060200260200160405190810160405280929190818152602001828054801561319757602002820191906000526020600020905b8154600160a060020a03168152600190910190602001808311613179575b505050505091509350935050509091565b6131b0611941565b15156131f4576040805160e560020a62461bcd0281526020600482018190526024820152600080516020615554833981519152604482015290519081900360640190fd5b61111281614e3c565b613205611941565b1515613249576040805160e560020a62461bcd0281526020600482018190526024820152600080516020615554833981519152604482015290519081900360640190fd5b6000805491151575010000000000000000000000000000000000000000000275ff00000000000000000000000000000000000000000019909216919091179055565b61111260018054806020026020016040519081016040528092919081815260200182805480156132e457602002820191906000526020600020905b8154600160a060020a031681526001909101906020018083116132c6575b505050505082614f35565b600160a060020a0383161515613374576040805160e560020a62461bcd028152602060048201526024808201527f45524332303a20617070726f76652066726f6d20746865207a65726f2061646460448201527f7265737300000000000000000000000000000000000000000000000000000000606482015290519081900360840190fd5b600160a060020a03821615156133fa576040805160e560020a62461bcd02815260206004820152602260248201527f45524332303a20617070726f766520746f20746865207a65726f20616464726560448201527f7373000000000000000000000000000000000000000000000000000000000000606482015290519081900360840190fd5b600160a060020a03808416600081815260056020908152604080832094871680845294825291829020859055815185815291517f8c5be1e5ebec7d5bd14f71427d1e84f3dd0314c0f7b2291e5b200ac8c7c3b9259281900390910190a3505050565b600061349e83836040805190810160405280601e81526020017f536166654d6174683a207375627472616374696f6e206f766572666c6f770000815250613702565b9392505050565b8154600090815b818110156134f45783600160a060020a031685828154811015156134cc57fe5b600091825260209091200154600160a060020a031614156134ec576134f4565b6001016134ac565b81811015613587576000198201811461356d57846001830381548110151561351857fe5b6000918252602090912001548554600160a060020a039091169086908390811061353e57fe5b9060005260206000200160006101000a815481600160a060020a030219169083600160a060020a031602179055505b845461357d86600019830161551a565b506001925061120f565b506000949350505050565b600160a060020a0383161515613618576040805160e560020a62461bcd02815260206004820152602560248201527f45524332303a207472616e736665722066726f6d20746865207a65726f20616460448201527f6472657373000000000000000000000000000000000000000000000000000000606482015290519081900360840190fd5b600160a060020a038216151561369e576040805160e560020a62461bcd02815260206004820152602360248201527f45524332303a207472616e7366657220746f20746865207a65726f206164647260448201527f6573730000000000000000000000000000000000000000000000000000000000606482015290519081900360840190fd5b6136a88382614f95565b6136b28282615064565b81600160a060020a031683600160a060020a03167fddf252ad1be2c89b69c2b068fc378daa952ba7f163c4a11628f55a4df523b3ef836040518082815260200191505060405180910390a3505050565b60008082858511156137955760405160e560020a62461bcd0281526004018080602001828103825283818151815260200191508051906020019080838360005b8381101561375a578181015183820152602001613742565b50505050905090810190601f1680156137875780820380516001836020036101000a031916815260200191505b509250505060405180910390fd5b5050509103919050565b6000808315156137b25760009150613842565b508282028284828115156137c257fe5b041461383e576040805160e560020a62461bcd02815260206004820152602160248201527f536166654d6174683a206d756c7469706c69636174696f6e206f766572666c6f60448201527f7700000000000000000000000000000000000000000000000000000000000000606482015290519081900360840190fd5b8091505b5092915050565b6012546000908190613861908463ffffffff61379f16565b60135490915061349e90829063ffffffff6138f716565b60035460009082106138d4576040805160e560020a62461bcd02815260206004820152601260248201527f66656520747970652069732076616c6964210000000000000000000000000000604482015290519081900360640190fd5b60038054839081106138e257fe5b90600052602060002090600202019050919050565b600061349e83836040805190810160405280601a81526020017f536166654d6174683a206469766973696f6e206279207a65726f000000000000815250615113565b60008282018381101561383e576040805160e560020a62461bcd02815260206004820152601b60248201527f536166654d6174683a206164646974696f6e206f766572666c6f770000000000604482015290519081900360640190fd5b60008060006139a4856118ab565b15156139fa576040805160e560020a62461bcd02815260206004820152601f60248201527f736574746c656d656e7420697320756e737570706f7274656420746f6b656e00604482015290519081900360640190fd5b60009150600160a060020a0385161515613a1657349150613ac1565b6000841115613ac15750604080517f23b872dd0000000000000000000000000000000000000000000000000000000081523360048201523060248201526044810185905290518591600160a060020a038316916323b872dd916064808201926020929091908290030181600087803b158015613a9157600080fd5b505af1158015613aa5573d6000803e3d6000fd5b505050506040513d6020811015613abb57600080fd5b50849250505b509392505050565b600160a060020a038216600090815260026020526040902054613af2908263ffffffff61393916565b600160a060020a038316600081815260026020908152604091829020939093558051848152905191927f1104eee7f034069140a0655d153038cedf9e65e5724018c555a8d56cfb6bee7792918290030190a25050565b600160a060020a0382161515613ba8576040805160e560020a62461bcd02815260206004820152601f60248201527f45524332303a206d696e7420746f20746865207a65726f206164647265737300604482015290519081900360640190fd5b600654613bbb908263ffffffff61393916565b600655613bc88282615064565b604080518281529051600160a060020a038416916000917fddf252ad1be2c89b69c2b068fc378daa952ba7f163c4a11628f55a4df523b3ef9181900360200190a35050565b600154604080518281526020808402820101909152600091906060908390819081908190868015613c48578160200160208202803883390190505b509450600093505b85841015613d73576001805485908110613c6657fe5b6000918252602080832090910154600f546040805160e060020a6341976e09028152600160a060020a0393841660048201819052915191985091909216936341976e099360248084019491939192918390030190829087803b158015613ccb57600080fd5b505af1158015613cdf573d6000803e3d6000fd5b505050506040513d6020811015613cf557600080fd5b5051600160a060020a038416600090815260146020526040902054865191935090869086908110613d2257fe5b602090810290910101528451613d6690613d5990879087908110613d4257fe5b60209081029091010151849063ffffffff61379f16565b889063ffffffff61393916565b9650600190930192613c50565b861515613d7f57612e20565b600093505b85841015612e2057613dc487613db88b8888815181101515613da257fe5b602090810290910101519063ffffffff61379f16565b9063ffffffff6138f716565b9050613dee818686815181101515613dd857fe5b602090810290910101519063ffffffff61345c16565b600160a060020a038416600090815260146020526040902055613e133384838b61517f565b600190930192613d84565b8151600090815b818110156135875783600160a060020a03168582815181101515613e4557fe5b90602001906020020151600160a060020a03161415613e67576001925061120f565b600101613e25565b68010000000000000000830284017001000000000000000000000000000000008302017801000000000000000000000000000000000000000000000000820201949350505050565b6000808080613ecc858763ffffffff61379f16565b9350613ed88888613996565b965060008711613f32576040805160e560020a62461bcd02815260206004820152601a60248201527f736574746c656d656e7420616d6f756e74206973207a65726f21000000000000604482015290519081900360640190fd5b613f3d6000856111d0565b600f546040805160e060020a6341976e09028152600160a060020a038c8116600483015291519396509116916341976e09916024808201926020929091908290030181600087803b158015613f9157600080fd5b505af1158015613fa5573d6000803e3d6000fd5b505050506040513d6020811015613fbb57600080fd5b50519150613fcf848463ffffffff61393916565b613fdf838963ffffffff61379f16565b101561405b576040805160e560020a62461bcd02815260206004820152602160248201527f736574746c656d656e7420617373657420697320696e73756666696369656e7460448201527f2100000000000000000000000000000000000000000000000000000000000000606482015290519081900360840190fd5b61406b848363ffffffff6138f716565b935061407d838363ffffffff6138f716565b92506140898884613ac9565b61409d83610e8d898763ffffffff61345c16565b965060008711156140b3576140b33389896151c4565b601060009054906101000a9004600160a060020a0316600160a060020a03166345e19fdd6040518163ffffffff1660e060020a02815260040160e060405180830381600087803b15801561410657600080fd5b505af115801561411a573d6000803e3d6000fd5b505050506040513d60e081101561413057600080fd5b5051604080518881526020810187905280820188905290519192508291600160a060020a038b169133917f09e4fd1b37f40234b903951f986d8b64cb9c99657348f04cda4a75fbe743684d9181900360600190a45050505050505050565b60008060008060008060006141a233612744565b9450945084600014156141bb576000965086955061424c565b600092506000915084848115156141ce57fe5b0490508885106141f2578891506141eb828263ffffffff61379f16565b92506141f9565b8491508392505b8783111561422657614211888263ffffffff6138f716565b9150614223828263ffffffff61379f16565b92505b600082111561424457614239338361530a565b81839650965061424c565b600096508695505b50505050509250929050565b600080600080600080600061426b61276c565b945061427d898663ffffffff61379f16565b9350878411156142d457614297888663ffffffff6138f716565b92506142a9838663ffffffff61379f16565b9150508188036142c933826142c4818963ffffffff61379f16565b61538c565b82829650965061424c565b50969791965090945050505050565b600160a060020a0382161515614369576040805160e560020a62461bcd02815260206004820152602160248201527f45524332303a206275726e2066726f6d20746865207a65726f2061646472657360448201527f7300000000000000000000000000000000000000000000000000000000000000606482015290519081900360840190fd5b6143738282614f95565b600654614386908263ffffffff61345c16565b600655604080518281529051600091600160a060020a038516917fddf252ad1be2c89b69c2b068fc378daa952ba7f163c4a11628f55a4df523b3ef9181900360200190a35050565b806060808080600081818080806143e5338e614921565b995099509950600180548060200260200160405190810160405280929190818152602001828054801561444157602002820191906000526020600020905b8154600160a060020a03168152600190910190602001808311614423575b50505050509650614452878e6153a1565b955085156144c15786600081518110151561446957fe5b90602001906020020151878781518110151561448157fe5b600160a060020a0390921660209283029091019091015286518d90889060009081106144a957fe5b600160a060020a039092166020928302909101909101525b86519550856040519080825280602002602001820160405280156144ef578160200160208202803883390190505b509450600093505b8584108015614506575060008c115b1561469b57868481518110151561451957fe5b90602001906020020151925061454e8a8581518110151561453657fe5b906020019060200201518986815181101515613da257fe5b9150818c6104577f36bc09f07bcf3d3fa05df7f9c56193487df0507ecd1d5a83845b56b4e6d7b73360405160405180910390a4818c1015614637576145b1888581518110151561459a57fe5b602090810290910101518d9063ffffffff6138f716565b336000908152601760209081526040808320600160a060020a03881684529091529020549091506145f0908390613db8908f830363ffffffff61379f16565b336000908152601760209081526040808320600160a060020a03881684529091529020558451819086908690811061462457fe5b6020908102909101015260009b5061469b565b336000908152601760209081526040808320600160a060020a038716845290915281205589518a908590811061466957fe5b90602001906020020151858581518110151561468157fe5b602090810290910101529a8190039a6001909301926144f7565b60008c11156147525760009150600093505b858410156146fb576146ee6146e189868151811015156146c957fe5b906020019060200201518b87815181101515613da257fe5b839063ffffffff61393916565b60019094019391506146ad565b600093505b858410156147525761472f61472183613db88f8d89815181101515613da257fe5b86868151811015156125ad57fe5b858581518110151561473d57fe5b60209081029091010152600190930192614700565b6147b660018054806020026020016040519081016040528092919081815260200182805480156147ab57602002820191906000526020600020905b8154600160a060020a0316815260019091019060200180831161478d575b50505050508e6153a1565b935083156148255784848151811015156147cc57fe5b9060200190602002015190508460008151811015156147e757fe5b9060200190602002015185858151811015156147ff57fe5b60209081029091010152845181908690600090811061481a57fe5b602090810290910101525b600093505b858410156148cf57848481518110151561484057fe5b906020019060200201518b6104577f36bc09f07bcf3d3fa05df7f9c56193487df0507ecd1d5a83845b56b4e6d7b73360405160405180910390a46148c43360018681548110151561488d57fe5b6000918252602090912001548751600160a060020a03909116908890889081106148b357fe5b90602001906020020151600461517f565b60019093019261482a565b60408051600160a060020a038f168152602081018d9052815133927fc994feb9b99296d80965b47aec6be0d25704ddf95b9b9bc1ed8bc753960d5809928290030190a250505050505050505050505050565b60608060608060006060806060600080600080600180548060200260200160405190810160405280929190818152602001828054801561498a57602002820191906000526020600020905b8154600160a060020a0316815260019091019060200180831161496c575b5050505050985061499b898e6153a1565b97508715614a0a578860008151811015156149b257fe5b9060200190602002015189898151811015156149ca57fe5b600160a060020a0390921660209283029091019091015288518d908a9060009081106149f257fe5b600160a060020a039092166020928302909101909101525b8851975087604051908082528060200260200182016040528015614a38578160200160208202803883390190505b50965087604051908082528060200260200182016040528015614a65578160200160208202803883390190505b50955087604051908082528060200260200182016040528015614a92578160200160208202803883390190505b5094506000935060009250614aa68e61126e565b9150600090505b87811015614cee57614b97601560008b84815181101515614aca57fe5b90602001906020020151600160a060020a0316600160a060020a0316815260200190815260200160002054601460008c85815181101515614b0757fe5b90602001906020020151600160a060020a0316600160a060020a03168152602001908152602001600020546017600033600160a060020a0316600160a060020a0316815260200190815260200160002060008d86815181101515614b6757fe5b90602001906020020151600160a060020a0316600160a060020a03168152602001908152602001600020546153f6565b8883815181101515614ba557fe5b9060200190602002018884815181101515614bbc57fe5b6020908102909101019190915252600f548951600160a060020a03909116906341976e09908b9084908110614bed57fe5b906020019060200201516040518263ffffffff1660e060020a0281526004018082600160a060020a0316600160a060020a03168152602001915050602060405180830381600087803b158015614c4257600080fd5b505af1158015614c56573d6000803e3d6000fd5b505050506040513d6020811015614c6c57600080fd5b50518551869083908110614c7c57fe5b602090810290910101528651614cc190614cb490899084908110614c9c57fe5b906020019060200201518784815181101515613da257fe5b859063ffffffff61393916565b9350614ce4614cd78783815181101515614c9c57fe5b849063ffffffff61393916565b9250600101614aad565b818410614d3c575060005b87811015614d3757614d1784613db8848a85815181101515613da257fe5b8782815181101515614d2557fe5b60209081029091010152600101614cf9565b614d81565b5082900360005b87811015614d8157614d6183613db8848985815181101515613da257fe5b8682815181101515614d6f57fe5b60209081029091010152600101614d43565b50949c939b5091995091975050505050505050565b614df982805480602002602001604051908101604052809291908181526020018280548015614dee57602002820191906000526020600020905b8154600160a060020a03168152600190910190602001808311614dd0575b505050505082613e1e565b1515614e3857815460018101835560008381526020902001805473ffffffffffffffffffffffffffffffffffffffff1916600160a060020a0383161790555b5050565b600160a060020a0381161515614ec2576040805160e560020a62461bcd02815260206004820152602660248201527f4f776e61626c653a206e6577206f776e657220697320746865207a65726f206160448201527f6464726573730000000000000000000000000000000000000000000000000000606482015290519081900360840190fd5b60008054604051600160a060020a038085169361010090930416917f8be0079c531659141344cd1fd0a4f28419497f9722a3daafe3b4186f6b6457e091a360008054600160a060020a039092166101000274ffffffffffffffffffffffffffffffffffffffff0019909216919091179055565b614f3f8282613e1e565b1515614e38576040805160e560020a62461bcd02815260206004820181905260248201527f77686974654c6973743a207573696e6720696e76616c69642061646472657373604482015290519081900360640190fd5b600160a060020a038216151561501b576040805160e560020a62461bcd02815260206004820152602360248201527f45524332303a207472616e7366657220746f20746865207a65726f206164647260448201527f6573730000000000000000000000000000000000000000000000000000000000606482015290519081900360840190fd5b600160a060020a038216600090815260046020526040902054615044908263ffffffff61345c16565b600160a060020a0390921660009081526004602052604090209190915550565b600160a060020a03821615156150ea576040805160e560020a62461bcd02815260206004820152602360248201527f45524332303a207472616e7366657220746f20746865207a65726f206164647260448201527f6573730000000000000000000000000000000000000000000000000000000000606482015290519081900360840190fd5b600160a060020a038216600090815260046020526040902054615044908263ffffffff61393916565b600080828185116151695760405160e560020a62461bcd0281526004018080602001828103825283818151815260200191508051906020019080838360008381101561375a578181015183820152602001613742565b50838581151561517557fe5b0495945050505050565b600082151561518d576151bd565b61519782846111d0565b90506151b385856151ae868563ffffffff61345c16565b6151c4565b6151bd8482613ac9565b5050505050565b60008115156151d257615304565b600160a060020a038316151561521e57604051600160a060020a0385169083156108fc029084906000818181858888f19350505050158015615218573d6000803e3d6000fd5b506152b8565b50604080517fa9059cbb000000000000000000000000000000000000000000000000000000008152600160a060020a038581166004830152602482018490529151849283169163a9059cbb9160448083019260209291908290030181600087803b15801561528b57600080fd5b505af115801561529f573d6000803e3d6000fd5b505050506040513d60208110156152b557600080fd5b50505b82600160a060020a031684600160a060020a03167f8aaaec2388cc390cde69685f78340e15f36d424b6b6b595f549dd883931f9c9b846040518082815260200191505060405180910390a35b50505050565b600160a060020a0382166000908152600a60205260408120549080808311156151bd57600160a060020a0385166000908152600b6020526040902054915082841061535f5761535a85848461542e565b6151bd565b61537f615372838563ffffffff6138f716565b859063ffffffff61379f16565b90506151bd85858361542e565b6153968383614f95565b6118a68383836154a5565b8151600090815b818110156153ee5783600160a060020a031685828151811015156153c857fe5b90602001906020020151600160a060020a031614156153e6576153ee565b6001016153a8565b949350505050565b6000808061540e86613db8878763ffffffff61379f16565b905080615421868263ffffffff61345c16565b9250925050935093915050565b600160a060020a0383166000818152600a6020908152604080832080548790039055600b82529182902080548590039055600980548590039055815185815290810184905281517f3eff168ce30c25c5e643633b70f58850a0085c0a411d1b53e501a655a90bae1a929181900390910190a2505050565b600160a060020a0383166000818152600a60209081526040808320805487019055600b825291829020805485019055600980548590039055815185815290810184905281517f8eb48086ad9abd7f3270b68172da958c7507500a9e0c8a9897a5c85ae7d8c0e9929181900390910190a2505050565b8154818355818111156118a6576000838152602090206118a6918101908301610e7591905b80821115612ac1576000815560010161553f56004f776e61626c653a2063616c6c6572206973206e6f7420746865206f776e6572a165627a7a7230582086a280d5952d86fc1ee933f1f49d2ee16ca6e7d6c431da8467cdffa378184ee100294f776e61626c653a2063616c6c6572206973206e6f7420746865206f776e6572",
  "source": "pragma solidity ^0.4.26;\r\nimport \"./modules/SafeMath.sol\";\r\nimport \"./CollateralPool.sol\";\r\nimport \"./modules/whiteList.sol\";\r\nimport \"./interfaces/IOptionsPrice.sol\";\r\nimport \"./modules/tuple.sol\";\r\ncontract OptionsManagerV2 is CollateralPool,ImportOptionsPrice {\r\n    using SafeMath for uint256;\r\n    constructor (address oracleAddr,address optionsPriceAddr,address optionsPoolAddr) public{\r\n        setOracleAddress(oracleAddr);\r\n        setOptionsPriceAddress(optionsPriceAddr);\r\n        setOptionsPoolAddress(optionsPoolAddr);\r\n    }\r\n\r\n    event BuyOption(address indexed from,address indexed settlement,uint256 indexed optionId,uint256 optionPrice,uint256 settlementAmount,uint256 optionAmount);\r\n    event SellOption(address indexed from,uint256 indexed optionId,uint256 amount,uint256 sellValue);\r\n    event ExerciseOption(address indexed from,uint256 indexed optionId,uint256 amount,uint256 sellValue);\r\n    event DebugEvent(uint256 value0,uint256 value1,uint256 value2,uint256 value3);\r\n    function buyOption(address settlement,uint256 settlementAmount, uint256 strikePrice,uint32 underlying,\r\n                uint256 expiration,uint256 amount,uint8 optType)public payable{\r\n        _optionsPool.buyOptionCheck(expiration,underlying);\r\n        uint256 ty_ly_exp = tuple64.getTuple(uint256(optType),uint256(underlying),uint256(expiration),0);\r\n        uint256 underlyingPrice = _oracle.getUnderlyingPrice(underlying);\r\n        uint256 optionPrice = _optionsPrice.getOptionsPrice(underlyingPrice,strikePrice,expiration,underlying,optType); \r\n        require(getAvailableCollateral()>=calOptionsOccupied(strikePrice,underlyingPrice,amount,optType),\"collateral is insufficient!\");\r\n        _optionsPool.createOptions(msg.sender,settlement,ty_ly_exp,strikePrice,underlyingPrice,amount);\r\n        buyOption_sub(settlement,settlementAmount,optionPrice,amount);\r\n    }\r\n    function buyOption_sub(address settlement,uint256 settlementAmount,\r\n            uint256 optionPrice,uint256 amount)internal{\r\n        \r\n        uint256 allPay = amount.mul(optionPrice);\r\n        settlementAmount = getPayableAmount(settlement,settlementAmount);\r\n        require(settlementAmount>0 , \"settlement amount is zero!\");\r\n        uint256 fee = calculateFee(buyFee,allPay);\r\n        uint256 settlePrice = _oracle.getPrice(settlement);\r\n        require(settlePrice.mul(settlementAmount)>=allPay.add(fee),\"settlement asset is insufficient!\");\r\n        allPay = allPay.div(settlePrice);\r\n        fee = fee.div(settlePrice);\r\n        _addTransactionFee(settlement,fee);\r\n        settlementAmount = settlementAmount.sub(allPay).sub(fee);\r\n        if (settlementAmount > 0){\r\n            _transferPayback(msg.sender,settlement,settlementAmount);\r\n        }\r\n        (uint256 id,,,,,,)=_optionsPool.getLatestOption();\r\n        emit BuyOption(msg.sender,settlement,id,optionPrice,allPay,amount); \r\n    }\r\n    function sellOption(uint256 optionsId,uint256 amount)public{\r\n        require(amount>0 , \"sell amount is zero!\");\r\n        _optionsPool.burnOptions(msg.sender,optionsId,amount);\r\n        (,,uint8 optType,uint32 underlying,uint256 expiration,uint256 strikePrice,) = _optionsPool.getOptionsById(optionsId);\r\n        expiration = expiration.sub(now);\r\n        uint256 currentPrice = _oracle.getUnderlyingPrice(underlying);\r\n        uint256 optPrice = _optionsPrice.getOptionsPrice(currentPrice,strikePrice,expiration,underlying,optType);\r\n        uint256 allPay = optPrice.mul(amount);\r\n        emit SellOption(msg.sender,optionsId,amount,allPay);\r\n        _paybackWorth(allPay,sellFee);\r\n    }\r\n    function exerciseOption(uint256 optionsId,uint256 amount)public{\r\n        require(amount>0 , \"exercise amount is zero!\");\r\n        uint256 allPay = _optionsPool.getExerciseWorth(optionsId,amount);\r\n        if (allPay == 0) {\r\n            return;\r\n        }\r\n        _optionsPool.burnOptions(msg.sender,optionsId,amount);\r\n        emit ExerciseOption(msg.sender,optionsId,amount,allPay);\r\n        _paybackWorth(allPay,exerciseFee);\r\n    }\r\n\r\n}",
  "sourcePath": "C:\\work\\solidity\\FinnexusOptions_V2\\contracts\\OptionsManagerV2.sol",
  "compiler": {
    "name": "solc",
    "version": "0.4.26+commit.4563c3fc.Emscripten.clang"
  },
  "schemaVersion": "3.1.0",
  "updatedAt": "2020-07-28T14:35:12.773Z",
  "devdoc": {
    "methods": {
      "addWhiteList(address)": {
        "details": "Implementation of add an eligible address into the whitelist.\r",
        "params": {
          "addAddress": "new eligible address.\r"
        }
      },
      "allowance(address,address)": {
        "details": "See {IERC20-allowance}.\r"
      },
      "approve(address,uint256)": {
        "details": "See {IERC20-approve}.\r      * Requirements:\r      * - `spender` cannot be the zero address.\r"
      },
      "balanceOf(address)": {
        "details": "See {IERC20-balanceOf}.\r"
      },
      "decreaseAllowance(address,uint256)": {
        "details": "Atomically decreases the allowance granted to `spender` by the caller.\r      * This is an alternative to {approve} that can be used as a mitigation for\r problems described in {IERC20-approve}.\r      * Emits an {Approval} event indicating the updated allowance.\r      * Requirements:\r      * - `spender` cannot be the zero address.\r - `spender` must have allowance for the caller of at least\r `subtractedValue`.\r"
      },
      "getWhiteList()": {
        "details": "Implementation of getting the eligible whitelist.\r"
      },
      "increaseAllowance(address,uint256)": {
        "details": "Atomically increases the allowance granted to `spender` by the caller.\r      * This is an alternative to {approve} that can be used as a mitigation for\r problems described in {IERC20-approve}.\r      * Emits an {Approval} event indicating the updated allowance.\r      * Requirements:\r      * - `spender` cannot be the zero address.\r"
      },
      "isEligibleAddress(address)": {
        "details": "Implementation of testing whether the input address is eligible.\r",
        "params": {
          "tmpAddress": "input address for testing.\r"
        }
      },
      "isOwner()": {
        "details": "Returns true if the caller is the current owner."
      },
      "owner()": {
        "details": "Returns the address of the current owner."
      },
      "removeWhiteList(address)": {
        "details": "Implementation of revoke an invalid address from the whitelist.\r",
        "params": {
          "removeAddress": "revoked address.\r"
        }
      },
      "renounceOwnership()": {
        "details": "Leaves the contract without owner. It will not be possible to call `onlyOwner` functions anymore. Can only be called by the current owner.     * NOTE: Renouncing ownership will leave the contract without an owner, thereby removing any functionality that is only available to the owner."
      },
      "setTransactionFee(uint256,uint256,uint256)": {
        "details": "set the rate of trasaction fee.\r",
        "params": {
          "denominator": "thedenominator of transaction fee.\r transaction fee = numerator/denominator;\r",
          "feeType": "the transaction fee type\r",
          "numerator": "the numerator of transaction fee .\r"
        }
      },
      "totalSupply()": {
        "details": "See {IERC20-totalSupply}.\r"
      },
      "transfer(address,uint256)": {
        "details": "See {IERC20-transfer}.\r      * Requirements:\r      * - `recipient` cannot be the zero address.\r - the caller must have a balance of at least `amount`.\r"
      },
      "transferFrom(address,address,uint256)": {
        "details": "See {IERC20-transferFrom}.\r      * Emits an {Approval} event indicating the updated allowance. This is not\r required by the EIP. See the note at the beginning of {ERC20};\r      * Requirements:\r - `sender` and `recipient` cannot be the zero address.\r - `sender` must have a balance of at least `amount`.\r - the caller must have allowance for `sender`'s tokens of at least\r `amount`.\r"
      },
      "transferOwnership(address)": {
        "details": "Transfers ownership of the contract to a new account (`newOwner`). Can only be called by the current owner."
      }
    }
  },
  "userdoc": {
    "methods": {
      "setHalt(bool)": {
        "notice": "function Emergency situation that requires contribution period to stop or not."
      },
      "setOperator(address)": {
        "notice": "contribution period to stop or not."
      }
    }
  }
}