{
  "contractName": "OptionsPoolTest",
  "abi": [
    {
      "constant": true,
      "inputs": [
        {
          "name": "from",
          "type": "uint256"
        },
        {
          "name": "size",
          "type": "uint256"
        }
      ],
      "name": "getOptionInfoList",
      "outputs": [
        {
          "name": "",
          "type": "address[]"
        },
        {
          "name": "",
          "type": "uint256[]"
        },
        {
          "name": "",
          "type": "uint256[]"
        },
        {
          "name": "",
          "type": "uint256[]"
        },
        {
          "name": "",
          "type": "uint256[]"
        }
      ],
      "payable": false,
      "stateMutability": "view",
      "type": "function"
    },
    {
      "constant": true,
      "inputs": [],
      "name": "sharedPhase",
      "outputs": [
        {
          "name": "",
          "type": "uint32"
        }
      ],
      "payable": false,
      "stateMutability": "view",
      "type": "function"
    },
    {
      "constant": false,
      "inputs": [
        {
          "name": "volatility",
          "type": "address"
        }
      ],
      "name": "setVolatilityAddress",
      "outputs": [],
      "payable": false,
      "stateMutability": "nonpayable",
      "type": "function"
    },
    {
      "constant": true,
      "inputs": [
        {
          "name": "calInfo",
          "type": "uint256"
        },
        {
          "name": "begin",
          "type": "uint256"
        },
        {
          "name": "end",
          "type": "uint256"
        },
        {
          "name": "whiteList",
          "type": "address[]"
        }
      ],
      "name": "calRangeSharedPayment",
      "outputs": [
        {
          "name": "",
          "type": "uint256[]"
        },
        {
          "name": "",
          "type": "uint256"
        },
        {
          "name": "",
          "type": "bool"
        }
      ],
      "payable": false,
      "stateMutability": "view",
      "type": "function"
    },
    {
      "constant": true,
      "inputs": [
        {
          "name": "ids",
          "type": "uint256[]"
        }
      ],
      "name": "getOptionInfoListFromID",
      "outputs": [
        {
          "name": "",
          "type": "address[]"
        },
        {
          "name": "",
          "type": "uint256[]"
        },
        {
          "name": "",
          "type": "uint256[]"
        },
        {
          "name": "",
          "type": "uint256[]"
        },
        {
          "name": "",
          "type": "uint256[]"
        }
      ],
      "payable": false,
      "stateMutability": "view",
      "type": "function"
    },
    {
      "constant": true,
      "inputs": [],
      "name": "getUnderlyingAssets",
      "outputs": [
        {
          "name": "",
          "type": "uint32[]"
        }
      ],
      "payable": false,
      "stateMutability": "view",
      "type": "function"
    },
    {
      "constant": true,
      "inputs": [
        {
          "name": "expiration",
          "type": "uint256"
        },
        {
          "name": "underlying",
          "type": "uint32"
        }
      ],
      "name": "buyOptionCheck",
      "outputs": [],
      "payable": false,
      "stateMutability": "view",
      "type": "function"
    },
    {
      "constant": true,
      "inputs": [
        {
          "name": "",
          "type": "uint256"
        }
      ],
      "name": "expirationList",
      "outputs": [
        {
          "name": "",
          "type": "uint256"
        }
      ],
      "payable": false,
      "stateMutability": "view",
      "type": "function"
    },
    {
      "constant": true,
      "inputs": [
        {
          "name": "",
          "type": "uint256"
        }
      ],
      "name": "underlyingAssets",
      "outputs": [
        {
          "name": "",
          "type": "uint32"
        }
      ],
      "payable": false,
      "stateMutability": "view",
      "type": "function"
    },
    {
      "constant": true,
      "inputs": [],
      "name": "getVolatilityAddress",
      "outputs": [
        {
          "name": "",
          "type": "address"
        }
      ],
      "payable": false,
      "stateMutability": "view",
      "type": "function"
    },
    {
      "constant": true,
      "inputs": [],
      "name": "getOptionCalRangeAll",
      "outputs": [
        {
          "name": "",
          "type": "uint256"
        },
        {
          "name": "",
          "type": "uint256"
        },
        {
          "name": "",
          "type": "uint256"
        },
        {
          "name": "",
          "type": "uint256"
        },
        {
          "name": "",
          "type": "uint256"
        },
        {
          "name": "",
          "type": "uint256"
        }
      ],
      "payable": false,
      "stateMutability": "view",
      "type": "function"
    },
    {
      "constant": true,
      "inputs": [],
      "name": "getLatestOption",
      "outputs": [
        {
          "name": "",
          "type": "uint256"
        },
        {
          "name": "",
          "type": "address"
        },
        {
          "name": "",
          "type": "uint8"
        },
        {
          "name": "",
          "type": "uint32"
        },
        {
          "name": "",
          "type": "uint256"
        },
        {
          "name": "",
          "type": "uint256"
        },
        {
          "name": "",
          "type": "uint256"
        }
      ],
      "payable": false,
      "stateMutability": "view",
      "type": "function"
    },
    {
      "constant": true,
      "inputs": [
        {
          "name": "optionsId",
          "type": "uint256"
        }
      ],
      "name": "getOptionsById",
      "outputs": [
        {
          "name": "",
          "type": "uint256"
        },
        {
          "name": "",
          "type": "address"
        },
        {
          "name": "",
          "type": "uint8"
        },
        {
          "name": "",
          "type": "uint32"
        },
        {
          "name": "",
          "type": "uint256"
        },
        {
          "name": "",
          "type": "uint256"
        },
        {
          "name": "",
          "type": "uint256"
        }
      ],
      "payable": false,
      "stateMutability": "view",
      "type": "function"
    },
    {
      "constant": false,
      "inputs": [
        {
          "name": "oracle",
          "type": "address"
        }
      ],
      "name": "setOracleAddress",
      "outputs": [],
      "payable": false,
      "stateMutability": "nonpayable",
      "type": "function"
    },
    {
      "constant": true,
      "inputs": [
        {
          "name": "",
          "type": "address"
        },
        {
          "name": "",
          "type": "uint256"
        }
      ],
      "name": "optionsBalances",
      "outputs": [
        {
          "name": "",
          "type": "uint256"
        }
      ],
      "payable": false,
      "stateMutability": "view",
      "type": "function"
    },
    {
      "constant": true,
      "inputs": [],
      "name": "getOptionsPriceAddress",
      "outputs": [
        {
          "name": "",
          "type": "address"
        }
      ],
      "payable": false,
      "stateMutability": "view",
      "type": "function"
    },
    {
      "constant": true,
      "inputs": [
        {
          "name": "optionsId",
          "type": "uint256"
        },
        {
          "name": "amount",
          "type": "uint256"
        }
      ],
      "name": "getExerciseWorth",
      "outputs": [
        {
          "name": "",
          "type": "uint256"
        }
      ],
      "payable": false,
      "stateMutability": "view",
      "type": "function"
    },
    {
      "constant": false,
      "inputs": [],
      "name": "renounceOwnership",
      "outputs": [],
      "payable": false,
      "stateMutability": "nonpayable",
      "type": "function"
    },
    {
      "constant": true,
      "inputs": [
        {
          "name": "expiration",
          "type": "uint256"
        }
      ],
      "name": "checkExpiration",
      "outputs": [],
      "payable": false,
      "stateMutability": "view",
      "type": "function"
    },
    {
      "constant": true,
      "inputs": [],
      "name": "getTotalOccupiedCollateral",
      "outputs": [
        {
          "name": "",
          "type": "uint256"
        }
      ],
      "payable": false,
      "stateMutability": "view",
      "type": "function"
    },
    {
      "constant": false,
      "inputs": [
        {
          "name": "from",
          "type": "address"
        },
        {
          "name": "id",
          "type": "uint256"
        },
        {
          "name": "amount",
          "type": "uint256"
        }
      ],
      "name": "burnOptions",
      "outputs": [],
      "payable": false,
      "stateMutability": "nonpayable",
      "type": "function"
    },
    {
      "constant": false,
      "inputs": [
        {
          "name": "expiration",
          "type": "uint256"
        }
      ],
      "name": "addExpiration",
      "outputs": [],
      "payable": false,
      "stateMutability": "nonpayable",
      "type": "function"
    },
    {
      "constant": false,
      "inputs": [
        {
          "name": "removeExpiration",
          "type": "uint256"
        }
      ],
      "name": "removeExpirationList",
      "outputs": [
        {
          "name": "",
          "type": "bool"
        }
      ],
      "payable": false,
      "stateMutability": "nonpayable",
      "type": "function"
    },
    {
      "constant": true,
      "inputs": [],
      "name": "owner",
      "outputs": [
        {
          "name": "",
          "type": "address"
        }
      ],
      "payable": false,
      "stateMutability": "view",
      "type": "function"
    },
    {
      "constant": true,
      "inputs": [
        {
          "name": "",
          "type": "uint256"
        }
      ],
      "name": "allOptions",
      "outputs": [
        {
          "name": "optionID",
          "type": "uint64"
        },
        {
          "name": "owner",
          "type": "address"
        },
        {
          "name": "optType",
          "type": "uint8"
        },
        {
          "name": "underlying",
          "type": "uint32"
        },
        {
          "name": "expiration",
          "type": "uint256"
        },
        {
          "name": "strikePrice",
          "type": "uint256"
        },
        {
          "name": "amount",
          "type": "uint256"
        }
      ],
      "payable": false,
      "stateMutability": "view",
      "type": "function"
    },
    {
      "constant": true,
      "inputs": [],
      "name": "isOwner",
      "outputs": [
        {
          "name": "",
          "type": "bool"
        }
      ],
      "payable": false,
      "stateMutability": "view",
      "type": "function"
    },
    {
      "constant": false,
      "inputs": [
        {
          "name": "calInfo",
          "type": "uint256"
        },
        {
          "name": "firstOption",
          "type": "uint256"
        },
        {
          "name": "prices",
          "type": "uint256[]"
        },
        {
          "name": "calTime",
          "type": "uint256"
        }
      ],
      "name": "setSharedState",
      "outputs": [],
      "payable": false,
      "stateMutability": "nonpayable",
      "type": "function"
    },
    {
      "constant": true,
      "inputs": [],
      "name": "getExpirationList",
      "outputs": [
        {
          "name": "",
          "type": "uint256[]"
        }
      ],
      "payable": false,
      "stateMutability": "view",
      "type": "function"
    },
    {
      "constant": false,
      "inputs": [
        {
          "name": "from",
          "type": "address"
        },
        {
          "name": "settlement",
          "type": "address"
        },
        {
          "name": "type_ly_exp",
          "type": "uint256"
        },
        {
          "name": "strikePrice",
          "type": "uint256"
        },
        {
          "name": "underlyingPrice",
          "type": "uint256"
        },
        {
          "name": "amount",
          "type": "uint256"
        }
      ],
      "name": "createOptions",
      "outputs": [],
      "payable": false,
      "stateMutability": "nonpayable",
      "type": "function"
    },
    {
      "constant": true,
      "inputs": [
        {
          "name": "index",
          "type": "uint256"
        }
      ],
      "name": "getsharedPhaseCalInfo",
      "outputs": [
        {
          "name": "",
          "type": "uint256"
        },
        {
          "name": "",
          "type": "uint256[]"
        }
      ],
      "payable": false,
      "stateMutability": "view",
      "type": "function"
    },
    {
      "constant": true,
      "inputs": [],
      "name": "getOptionPhaseCalRange",
      "outputs": [
        {
          "name": "",
          "type": "uint256"
        },
        {
          "name": "",
          "type": "uint256"
        },
        {
          "name": "",
          "type": "uint256"
        }
      ],
      "payable": false,
      "stateMutability": "view",
      "type": "function"
    },
    {
      "constant": true,
      "inputs": [
        {
          "name": "calInfo",
          "type": "uint256"
        }
      ],
      "name": "calculatePhaseOccupiedCollateral",
      "outputs": [
        {
          "name": "",
          "type": "uint256"
        },
        {
          "name": "",
          "type": "uint256"
        },
        {
          "name": "",
          "type": "bool"
        }
      ],
      "payable": false,
      "stateMutability": "view",
      "type": "function"
    },
    {
      "constant": true,
      "inputs": [
        {
          "name": "expiration",
          "type": "uint256"
        }
      ],
      "name": "isEligibleExpiration",
      "outputs": [
        {
          "name": "",
          "type": "bool"
        }
      ],
      "payable": false,
      "stateMutability": "view",
      "type": "function"
    },
    {
      "constant": false,
      "inputs": [
        {
          "name": "optionsPrice",
          "type": "address"
        }
      ],
      "name": "setOptionsPriceAddress",
      "outputs": [],
      "payable": false,
      "stateMutability": "nonpayable",
      "type": "function"
    },
    {
      "constant": true,
      "inputs": [
        {
          "name": "calInfo",
          "type": "uint256"
        },
        {
          "name": "whiteList",
          "type": "address[]"
        }
      ],
      "name": "calculatePhaseSharedPayment",
      "outputs": [
        {
          "name": "",
          "type": "uint256[]"
        },
        {
          "name": "",
          "type": "uint256"
        },
        {
          "name": "",
          "type": "bool"
        }
      ],
      "payable": false,
      "stateMutability": "view",
      "type": "function"
    },
    {
      "constant": false,
      "inputs": [
        {
          "name": "underlying",
          "type": "uint32"
        }
      ],
      "name": "addUnderlyingAsset",
      "outputs": [],
      "payable": false,
      "stateMutability": "nonpayable",
      "type": "function"
    },
    {
      "constant": true,
      "inputs": [],
      "name": "getOracleAddress",
      "outputs": [
        {
          "name": "",
          "type": "address"
        }
      ],
      "payable": false,
      "stateMutability": "view",
      "type": "function"
    },
    {
      "constant": false,
      "inputs": [
        {
          "name": "operator",
          "type": "address"
        }
      ],
      "name": "setOperator",
      "outputs": [],
      "payable": false,
      "stateMutability": "nonpayable",
      "type": "function"
    },
    {
      "constant": false,
      "inputs": [
        {
          "name": "calInfo",
          "type": "uint256"
        },
        {
          "name": "totalOccupied",
          "type": "uint256"
        },
        {
          "name": "beginOption",
          "type": "uint256"
        }
      ],
      "name": "setCollateralPhase",
      "outputs": [],
      "payable": false,
      "stateMutability": "nonpayable",
      "type": "function"
    },
    {
      "constant": false,
      "inputs": [
        {
          "name": "calInfo",
          "type": "uint256"
        }
      ],
      "name": "setPhaseOccupiedCollateral",
      "outputs": [],
      "payable": false,
      "stateMutability": "nonpayable",
      "type": "function"
    },
    {
      "constant": true,
      "inputs": [],
      "name": "getOptionInfoLength",
      "outputs": [
        {
          "name": "",
          "type": "uint256"
        }
      ],
      "payable": false,
      "stateMutability": "view",
      "type": "function"
    },
    {
      "constant": true,
      "inputs": [],
      "name": "optionPhase",
      "outputs": [
        {
          "name": "",
          "type": "uint32"
        }
      ],
      "payable": false,
      "stateMutability": "view",
      "type": "function"
    },
    {
      "constant": false,
      "inputs": [
        {
          "name": "managerAddress",
          "type": "address"
        }
      ],
      "name": "setManager",
      "outputs": [],
      "payable": false,
      "stateMutability": "nonpayable",
      "type": "function"
    },
    {
      "constant": true,
      "inputs": [],
      "name": "getManager",
      "outputs": [
        {
          "name": "",
          "type": "address"
        }
      ],
      "payable": false,
      "stateMutability": "view",
      "type": "function"
    },
    {
      "constant": false,
      "inputs": [
        {
          "name": "removeUnderlying",
          "type": "uint32"
        }
      ],
      "name": "removeUnderlyingAssets",
      "outputs": [
        {
          "name": "",
          "type": "bool"
        }
      ],
      "payable": false,
      "stateMutability": "nonpayable",
      "type": "function"
    },
    {
      "constant": true,
      "inputs": [
        {
          "name": "underlying",
          "type": "uint32"
        }
      ],
      "name": "isEligibleUnderlyingAsset",
      "outputs": [
        {
          "name": "",
          "type": "bool"
        }
      ],
      "payable": false,
      "stateMutability": "view",
      "type": "function"
    },
    {
      "constant": true,
      "inputs": [
        {
          "name": "calInfo",
          "type": "uint256"
        },
        {
          "name": "whiteList",
          "type": "address[]"
        }
      ],
      "name": "calculatePhaseOptionsFall",
      "outputs": [
        {
          "name": "",
          "type": "int256[]"
        },
        {
          "name": "",
          "type": "uint256[]"
        }
      ],
      "payable": false,
      "stateMutability": "view",
      "type": "function"
    },
    {
      "constant": true,
      "inputs": [
        {
          "name": "user",
          "type": "address"
        }
      ],
      "name": "getUserOptionsID",
      "outputs": [
        {
          "name": "",
          "type": "uint256[]"
        }
      ],
      "payable": false,
      "stateMutability": "view",
      "type": "function"
    },
    {
      "constant": true,
      "inputs": [],
      "name": "getOperator",
      "outputs": [
        {
          "name": "",
          "type": "address"
        }
      ],
      "payable": false,
      "stateMutability": "view",
      "type": "function"
    },
    {
      "constant": true,
      "inputs": [
        {
          "name": "underlying",
          "type": "uint32"
        }
      ],
      "name": "checkUnderlyingAsset",
      "outputs": [],
      "payable": false,
      "stateMutability": "view",
      "type": "function"
    },
    {
      "constant": false,
      "inputs": [
        {
          "name": "newOwner",
          "type": "address"
        }
      ],
      "name": "transferOwnership",
      "outputs": [],
      "payable": false,
      "stateMutability": "nonpayable",
      "type": "function"
    },
    {
      "constant": true,
      "inputs": [],
      "name": "getsharedPhaseCalRange",
      "outputs": [
        {
          "name": "",
          "type": "uint256"
        },
        {
          "name": "",
          "type": "uint256"
        },
        {
          "name": "",
          "type": "uint256"
        },
        {
          "name": "",
          "type": "uint256"
        }
      ],
      "payable": false,
      "stateMutability": "view",
      "type": "function"
    },
    {
      "inputs": [
        {
          "name": "oracleAddr",
          "type": "address"
        },
        {
          "name": "optionsPriceAddr",
          "type": "address"
        },
        {
          "name": "ivAddress",
          "type": "address"
        }
      ],
      "payable": false,
      "stateMutability": "nonpayable",
      "type": "constructor"
    },
    {
      "anonymous": false,
      "inputs": [
        {
          "indexed": true,
          "name": "owner",
          "type": "address"
        },
        {
          "indexed": true,
          "name": "optionID",
          "type": "uint256"
        },
        {
          "indexed": false,
          "name": "optType",
          "type": "uint8"
        },
        {
          "indexed": false,
          "name": "underlying",
          "type": "uint32"
        },
        {
          "indexed": false,
          "name": "expiration",
          "type": "uint256"
        },
        {
          "indexed": false,
          "name": "strikePrice",
          "type": "uint256"
        },
        {
          "indexed": false,
          "name": "amount",
          "type": "uint256"
        }
      ],
      "name": "CreateOption",
      "type": "event"
    },
    {
      "anonymous": false,
      "inputs": [
        {
          "indexed": true,
          "name": "owner",
          "type": "address"
        },
        {
          "indexed": true,
          "name": "optionID",
          "type": "uint256"
        },
        {
          "indexed": false,
          "name": "amount",
          "type": "uint256"
        }
      ],
      "name": "BurnOption",
      "type": "event"
    },
    {
      "anonymous": false,
      "inputs": [
        {
          "indexed": false,
          "name": "value1",
          "type": "uint256"
        },
        {
          "indexed": false,
          "name": "value2",
          "type": "uint256"
        },
        {
          "indexed": false,
          "name": "value3",
          "type": "uint256"
        }
      ],
      "name": "DebugEvent",
      "type": "event"
    },
    {
      "anonymous": false,
      "inputs": [
        {
          "indexed": true,
          "name": "previousOwner",
          "type": "address"
        },
        {
          "indexed": true,
          "name": "newOwner",
          "type": "address"
        }
      ],
      "name": "OwnershipTransferred",
      "type": "event"
    },
    {
      "constant": true,
      "inputs": [
        {
          "name": "optType",
          "type": "uint8"
        },
        {
          "name": "strikePrice",
          "type": "uint256"
        },
        {
          "name": "underlyingPrice",
          "type": "uint256"
        }
      ],
      "name": "getOptionsWorth",
      "outputs": [
        {
          "name": "",
          "type": "uint256"
        }
      ],
      "payable": false,
      "stateMutability": "pure",
      "type": "function"
    },
    {
      "constant": true,
      "inputs": [
        {
          "name": "optType",
          "type": "uint8"
        },
        {
          "name": "strikePrice",
          "type": "uint256"
        },
        {
          "name": "underlyingPrice",
          "type": "uint256"
        }
      ],
      "name": "getOptionsPayback",
      "outputs": [
        {
          "name": "",
          "type": "uint256"
        }
      ],
      "payable": false,
      "stateMutability": "pure",
      "type": "function"
    }
  ],
  "bytecode": "0x6080604052600a8054750190000000000000000000000000000000000000000060a060020a63ffffffff02199091161790556011805463ffffffff19166101901790553480156200004f57600080fd5b5060405160608062004e7783398101604081815282516020840151919093015160008054600160a060020a031916331780825592939192859285928592859285928592600160a060020a0316917f8be0079c531659141344cd1fd0a4f28419497f9722a3daafe3b4186f6b6457e0908290a3620000d5836401000000006200018a810204565b620000e9826401000000006200021c810204565b620000fd81640100000000620002ae810204565b6040805160e0810182526201518081526203f480602082015262093a8091810191909152620d2f0060608201526213c680608082015262278d0060a08201526276a70060c08201526200015590600990600762000352565b506040805180820190915260018082526002602083018190526200017a9290620003a9565b5050505050505050505062000499565b6200019d64010000000062000340810204565b1515620001fa57604080517f08c379a0000000000000000000000000000000000000000000000000000000008152602060048201819052602482015260008051602062004e57833981519152604482015290519081900360640190fd5b60038054600160a060020a031916600160a060020a0392909216919091179055565b6200022f64010000000062000340810204565b15156200028c57604080517f08c379a0000000000000000000000000000000000000000000000000000000008152602060048201819052602482015260008051602062004e57833981519152604482015290519081900360640190fd5b60048054600160a060020a031916600160a060020a0392909216919091179055565b620002c164010000000062000340810204565b15156200031e57604080517f08c379a0000000000000000000000000000000000000000000000000000000008152602060048201819052602482015260008051602062004e57833981519152604482015290519081900360640190fd5b60058054600160a060020a031916600160a060020a0392909216919091179055565b600054600160a060020a031633145b90565b82805482825590600052602060002090810192821562000397579160200282015b8281111562000397578251829062ffffff1690559160200191906001019062000373565b50620003a592915062000458565b5090565b828054828255906000526020600020906007016008900481019282156200044a5791602002820160005b838211156200041657835183826101000a81548163ffffffff021916908360ff1602179055509260200192600401602081600301049283019260010302620003d3565b8015620004485782816101000a81549063ffffffff021916905560040160208160030104928301926001030262000416565b505b50620003a592915062000475565b6200034f91905b80821115620003a557600081556001016200045f565b6200034f91905b80821115620003a557805463ffffffff191681556001016200047c565b6149ae80620004a96000396000f30060806040526004361061026e5763ffffffff60e060020a6000350416630438d490811461027357806316f35a7f146103f65780632967eafe146104245780632b38f1801461044757806332ab5c201461047a578063354af360146105445780633582d789146105995780633ad2fb57146105fe5780633ad980991461061f5780633b50c4d11461063757806342e5479d1461064f57806344244d271461068057806345e19fdd146106c857806348ee201d146107245780634c69c00f1461073c57806355c47cb21461075d5780635ca4b73b1461078157806367b8ceb914610796578063715018a6146107b1578063723931ca146107c657806373a3d424146107de57806374e85fd2146107f35780637cfff2d81461081a5780637e838fa3146108325780638da5cb5b1461085e5780638ea745b8146108735780638f32d59b146108dd5780638ff239e6146108f25780639052d5f814610952578063924a69ce1461096757806397a918e91461099a57806398dae82814610a0d57806399deae0a14610a405780639ef975d214610a78578063a093e2d014610a90578063af70df1214610ab1578063afec82fc14610b0b578063b18b78dd14610b29578063b3ab15fb14610b3e578063b452bc0414610b5f578063b8a5b7fa14610b7d578063bec3107f14610b95578063c27b7dfb14610baa578063d0ebdbe714610bbf578063d500958414610be0578063d6d1401214610bf5578063db6ad2bd14610c13578063e5081c4014610c31578063e7c5681514610d0d578063e7f43c6814610d2e578063ed55283414610d43578063ee29c94a14610d64578063f2fde38b14610d82578063fa1cf1f014610da3575b600080fd5b34801561027f57600080fd5b5061028e600435602435610dde565b60405180806020018060200180602001806020018060200186810386528b818151815260200191508051906020019060200280838360005b838110156102de5781810151838201526020016102c6565b5050505090500186810385528a818151815260200191508051906020019060200280838360005b8381101561031d578181015183820152602001610305565b50505050905001868103845289818151815260200191508051906020019060200280838360005b8381101561035c578181015183820152602001610344565b50505050905001868103835288818151815260200191508051906020019060200280838360005b8381101561039b578181015183820152602001610383565b50505050905001868103825287818151815260200191508051906020019060200280838360005b838110156103da5781810151838201526020016103c2565b505050509050019a505050505050505050505060405180910390f35b34801561040257600080fd5b5061040b61102b565b6040805163ffffffff9092168252519081900360200190f35b34801561043057600080fd5b50610445600160a060020a0360043516611037565b005b34801561045357600080fd5b5061046860ff600435166024356044356110a5565b60408051918252519081900360200190f35b34801561048657600080fd5b5060408051606435600481810135602081810285810182019096528185526104de9583359560248035966044359636969095608495929093019290918291850190849080828437509497506110bc9650505050505050565b604051808060200184815260200183151515158152602001828103825285818151815260200191508051906020019060200280838360005b8381101561052e578181015183820152602001610516565b5050505090500194505050505060405180910390f35b34801561055057600080fd5b506040805160206004803580820135838102808601850190965280855261028e9536959394602494938501929182918501908490808284375094975061115a9650505050505050565b3480156105a557600080fd5b506105ae611371565b60408051602080825283518183015283519192839290830191858101910280838360005b838110156105ea5781810151838201526020016105d2565b505050509050019250505060405180910390f35b34801561060a57600080fd5b5061044560043563ffffffff602435166113f6565b34801561062b57600080fd5b50610468600435611462565b34801561064357600080fd5b5061040b600435611481565b34801561065b57600080fd5b506106646114b9565b60408051600160a060020a039092168252519081900360200190f35b34801561068c57600080fd5b506106956114c8565b604080519687526020870195909552858501939093526060850191909152608084015260a0830152519081900360c00190f35b3480156106d457600080fd5b506106dd6114dc565b60408051978852600160a060020a03909616602088015260ff9094168686015263ffffffff9092166060860152608085015260a084015260c0830152519081900360e00190f35b34801561073057600080fd5b506106dd6004356115c2565b34801561074857600080fd5b50610445600160a060020a0360043516611631565b34801561076957600080fd5b50610468600160a060020a036004351660243561169f565b34801561078d57600080fd5b506106646116cf565b3480156107a257600080fd5b506104686004356024356116de565b3480156107bd57600080fd5b50610445611859565b3480156107d257600080fd5b506104456004356118ef565b3480156107ea57600080fd5b50610468611977565b3480156107ff57600080fd5b50610445600160a060020a0360043516602435604435611c15565b34801561082657600080fd5b50610445600435611eae565b34801561083e57600080fd5b5061084a600435611f05565b604080519115158252519081900360200190f35b34801561086a57600080fd5b50610664611f64565b34801561087f57600080fd5b5061088b600435611f73565b6040805167ffffffffffffffff9098168852600160a060020a03909616602088015260ff9094168686015263ffffffff9092166060860152608085015260a084015260c0830152519081900360e00190f35b3480156108e957600080fd5b5061084a611fdf565b3480156108fe57600080fd5b5060408051602060046044358181013583810280860185019096528085526104459583359560248035963696956064959394920192918291850190849080828437509497505093359450611ff09350505050565b34801561095e57600080fd5b506105ae61211b565b34801561097357600080fd5b50610445600160a060020a036004358116906024351660443560643560843560a435612172565b3480156109a657600080fd5b506109b26004356124a3565b6040518083815260200180602001828103825283818151815260200191508051906020019060200280838360005b838110156109f85781810151838201526020016109e0565b50505050905001935050505060405180910390f35b348015610a1957600080fd5b50610a22612516565b60408051938452602084019290925282820152519081900360600190f35b348015610a4c57600080fd5b50610a58600435612526565b604080519384526020840192909252151582820152519081900360600190f35b348015610a8457600080fd5b5061084a600435612600565b348015610a9c57600080fd5b50610445600160a060020a036004351661265c565b348015610abd57600080fd5b506040805160206004602480358281013584810280870186019097528086526104de968435963696604495919490910192918291850190849080828437509497506126ca9650505050505050565b348015610b1757600080fd5b5061044563ffffffff60043516612721565b348015610b3557600080fd5b50610664612778565b348015610b4a57600080fd5b50610445600160a060020a0360043516612787565b348015610b6b57600080fd5b506104456004356024356044356127f5565b348015610b8957600080fd5b506104456004356128f5565b348015610ba157600080fd5b506104686129aa565b348015610bb657600080fd5b5061040b6129b0565b348015610bcb57600080fd5b50610445600160a060020a03600435166129c3565b348015610bec57600080fd5b50610664612a31565b348015610c0157600080fd5b5061084a63ffffffff60043516612a40565b348015610c1f57600080fd5b5061084a63ffffffff60043516612a99565b348015610c3d57600080fd5b50604080516020600460248035828101358481028087018601909752808652610c8b96843596369660449591949091019291829185019084908082843750949750612b219650505050505050565b604051808060200180602001838103835285818151815260200191508051906020019060200280838360005b83811015610ccf578181015183820152602001610cb7565b50505050905001838103825284818151815260200191508051906020019060200280838360008381101561052e578181015183820152602001610516565b348015610d1957600080fd5b506105ae600160a060020a0360043516612ce8565b348015610d3a57600080fd5b50610664612d54565b348015610d4f57600080fd5b5061046860ff60043516602435604435612d63565b348015610d7057600080fd5b5061044563ffffffff60043516612d70565b348015610d8e57600080fd5b50610445600160a060020a0360043516612df6565b348015610daf57600080fd5b50610db8612e4b565b604080519485526020850193909352838301919091526060830152519081900360800190f35b6060806060806060806060806060806000806006805490508d8f011115610e1557600654610e12908f63ffffffff612e5d16565b9c505b60008d111561101a578c604051908082528060200260200182016040528015610e48578160200160208202803883390190505b5096508c604051908082528060200260200182016040528015610e75578160200160208202803883390190505b5095508c604051908082528060200260200182016040528015610ea2578160200160208202803883390190505b5094508c604051908082528060200260200182016040528015610ecf578160200160208202803883390190505b5093508c604051908082528060200260200182016040528015610efc578160200160208202803883390190505b509250600091505b8c82101561100a57600680548f8401908110610f1c57fe5b906000526020600020906005020190508060000160089054906101000a9004600160a060020a03168783815181101515610f5257fe5b600160a060020a03909216602092830290910190910152805460018201548751601060ff60e060020a90940484160190921660020a63ffffffff918216021690879084908110610f9e57fe5b6020908102909101015260028101548551869084908110610fbb57fe5b6020908102909101015260038101548451859084908110610fd857fe5b6020908102909101015260048101548351849084908110610ff557fe5b60209081029091010152600190910190610f04565b86868686869b509b509b509b509b505b505050505050509295509295909350565b60115463ffffffff1681565b61103f611fdf565b1515611083576040805160e560020a62461bcd0281526020600482018190526024820152600080516020614963833981519152604482015290519081900360640190fd5b60058054600160a060020a031916600160a060020a0392909216919091179055565b60006110b2848484612e9f565b90505b9392505050565b6060600080606060006110ce89612ebd565b881015806110dd575060125487105b156110f35790935060009250829150839061114e565b6110fc89612ebd565b87111561110f5761110c89612ebd565b96505b61113f8888601560006111218e612ed1565b8152602001908152602001600020546111398d612ede565b8a612eff565b91509150818160019450945094505b50509450945094915050565b6060806060806060600060608060608060606000808d5197508760405190808252806020026020018201604052801561119d578160200160208202803883390190505b509650876040519080825280602002602001820160405280156111ca578160200160208202803883390190505b509550876040519080825280602002602001820160405280156111f7578160200160208202803883390190505b50945087604051908082528060200260200182016040528015611224578160200160208202803883390190505b50935087604051908082528060200260200182016040528015611251578160200160208202803883390190505b509250600091505b8782101561135d576112818e8381518110151561127257fe5b906020019060200201516130e3565b80548851919250604060020a9004600160a060020a0316908890849081106112a557fe5b600160a060020a03909216602092830290910190910152805460018201548751601060ff60e060020a90940484160190921660020a63ffffffff9182160216908790849081106112f157fe5b602090810290910101526002810154855186908490811061130e57fe5b602090810290910101526003810154845185908490811061132b57fe5b602090810290910101526004810154835184908490811061134857fe5b60209081029091010152600190910190611259565b50949c939b50919950975095509350505050565b606060018054806020026020016040519081016040528092919081815260200182805480156113eb57602002820191906000526020600020906000905b82829054906101000a900463ffffffff1663ffffffff16815260200190600401906020826003010492830192600103820291508084116113ae5790505b505050505090505b90565b6113ff81612a99565b1515611455576040805160e560020a62461bcd02815260206004820152601f60248201527f756e6465726c79696e6720697320756e737570706f7274656420617373657400604482015290519081900360640190fd5b61145e826118ef565b5050565b600980548290811061147057fe5b600091825260209091200154905081565b600180548290811061148f57fe5b9060005260206000209060089182820401919006600402915054906101000a900463ffffffff1681565b600554600160a060020a031690565b600b54600654601054919283929043904290565b60065460009081908190819081908190819081808211611546576040805160e560020a62461bcd02815260206004820152601560248201527f6f7074696f6e73206c69737420697320656d7074790000000000000000000000604482015290519081900360640190fd5b60068054600019840190811061155857fe5b60009182526020909120600590910201805460018201546002830154600384015460049094015467ffffffffffffffff84169e604060020a8504600160a060020a03169e5060e060020a90940460ff169c5063ffffffff9092169a50985091965090945092505050565b6000806000806000806000806115d7896130e3565b805460018201546002830154600384015460049094015467ffffffffffffffff84169e604060020a8504600160a060020a03169e5060e060020a90940460ff169c5063ffffffff9092169a50985091965090945092505050565b611639611fdf565b151561167d576040805160e560020a62461bcd0281526020600482018190526024820152600080516020614963833981519152604482015290519081900360640190fd5b60038054600160a060020a031916600160a060020a0392909216919091179055565b6008602052816000526040600020818154811015156116ba57fe5b90600052602060002001600091509150505481565b600454600160a060020a031690565b60006116e8614820565b6000806116f4866130e3565b6040805160e081018252825467ffffffffffffffff81168252604060020a8104600160a060020a0316602083015260e060020a900460ff1691810191909152600182015463ffffffff16606082015260028201546080820152600382015460a082015260049091015460c0820152925061176d83613173565b61177783866131ce565b6003546060840151604080517fda66325700000000000000000000000000000000000000000000000000000000815263ffffffff909216600483015251600160a060020a039092169163da663257916024808201926020929091908290030181600087803b1580156117e857600080fd5b505af11580156117fc573d6000803e3d6000fd5b505050506040513d602081101561181257600080fd5b5051604084015160a085015191935061182b918461322a565b905080151561183d5760009350611850565b61184d818663ffffffff61325e16565b93505b50505092915050565b611861611fdf565b15156118a5576040805160e560020a62461bcd0281526020600482018190526024820152600080516020614963833981519152604482015290519081900360640190fd5b60008054604051600160a060020a03909116907f8be0079c531659141344cd1fd0a4f28419497f9722a3daafe3b4186f6b6457e0908390a360008054600160a060020a0319169055565b6118f881612600565b1515611974576040805160e560020a62461bcd02815260206004820152602160248201527f65787069726174696f6e2076616c7565206973206e6f7420737570706f72746560448201527f6400000000000000000000000000000000000000000000000000000000000000606482015290519081900360840190fd5b50565b6000806060600080600080600061198c61485c565b6000611996613308565b98506119a0613397565b600654600c54919950975095505b86861015611ab7576119e76006878154811015156119c857fe5b600091825260209091206001600590920201015463ffffffff166134b1565b9450611aaa611a9d6006888154811015156119fe57fe5b60009182526020918290206040805160e081018252600593909302909101805467ffffffffffffffff81168452604060020a8104600160a060020a03169484019490945260e060020a90930460ff1690820152600182015463ffffffff16606082015260028201546080820152600382015460a082015260049091015460c08201528a518b9089908110611a8e57fe5b90602001906020020151613539565b8a9063ffffffff61358216565b98506001909501946119ae565b601054600d5490945092505b83831015611c07576000838152600f6020526040908190208151808301928390529160029082845b815481526020019060010190808311611aeb575093955085935060009250611b11915050565b6020020151600c54909150811015611bfc57611b356006828154811015156119c857fe5b9450611bf9611bec600683815481101515611b4c57fe5b60009182526020918290206040805160e081018252600593909302909101805467ffffffffffffffff81168452604060020a8104600160a060020a03168486015260e060020a900460ff1691830191909152600181015463ffffffff16606083015260028101546080830152600381015460a08301526004015460c0820152908501518b518c908a908110611bdd57fe5b906020019060200201516135df565b8a9063ffffffff612e5d16565b98505b600190920191611ac3565b509698975050505050505050565b600254600090600160a060020a03163314611ca0576040805160e560020a62461bcd02815260206004820152602660248201527f4d616e6167657261626c653a2063616c6c6572206973206e6f7420746865204d60448201527f616e616765720000000000000000000000000000000000000000000000000000606482015290519081900360840190fd5b611ca9836130e3565b6040805160e081018252825467ffffffffffffffff81168252604060020a8104600160a060020a0316602083015260e060020a900460ff1691810191909152600182015463ffffffff16606082015260028201546080820152600382015460a0820152600482015460c0820152909150611d2290613173565b6040805160e081018252825467ffffffffffffffff81168252604060020a8104600160a060020a0316602083015260e060020a900460ff1691810191909152600182015463ffffffff16606082015260028201546080820152600382015460a0820152600482015460c0820152611d99908561360d565b6040805160e081018252825467ffffffffffffffff81168252604060020a8104600160a060020a0316602083015260e060020a900460ff1691810191909152600182015463ffffffff16606082015260028201546080820152600382015460a0820152600482015460c0820152611e1090836131ce565b6004810154611e25908363ffffffff612e5d16565b60048201556040805180820182526000198501815260208082018590526010546000908152600f90915291909120611e5e916002614877565b506010805460010190556040805183815290518491600160a060020a038716917f1fb99acdc281bccbecb3d0073a307341181a8a7d3cd532fdaef5ce7200401c2d9181900360200190a350505050565b611eb6611fdf565b1515611efa576040805160e560020a62461bcd0281526020600482018190526024820152600080516020614963833981519152604482015290519081900360640190fd5b61197460098261367c565b6000611f0f611fdf565b1515611f53576040805160e560020a62461bcd0281526020600482018190526024820152600080516020614963833981519152604482015290519081900360640190fd5b611f5e6009836136f3565b92915050565b600054600160a060020a031690565b6006805482908110611f8157fe5b60009182526020909120600590910201805460018201546002830154600384015460049094015467ffffffffffffffff84169550604060020a8404600160a060020a03169460e060020a90940460ff169363ffffffff909316929087565b600054600160a060020a0316331490565b600254600160a060020a03163314612078576040805160e560020a62461bcd02815260206004820152602660248201527f4d616e6167657261626c653a2063616c6c6572206973206e6f7420746865204d60448201527f616e616765720000000000000000000000000000000000000000000000000000606482015290519081900360840190fd5b6012548311156120885760128390555b61209184612ebd565b60115463ffffffff16806120a487612ed1565b020111156120c5576120b584612ebd565b6013556120c184612ede565b6014555b80601560006120d387612ed1565b81526020019081526020016000208190555081601660006120f387612ed1565b815260200190815260200160002090805190602001906121149291906148b5565b5050505050565b606060098054806020026020016040519081016040528092919081815260200182805480156113eb57602002820191906000526020600020905b815481526020019060010190808311612155575050505050905090565b600080600061217f614820565b600254600160a060020a03163314612207576040805160e560020a62461bcd02815260206004820152602660248201527f4d616e6167657261626c653a2063616c6c6572206973206e6f7420746865204d60448201527f616e616765720000000000000000000000000000000000000000000000000000606482015290519081900360840190fd5b600654935061221588612ed1565b925061222088612ebd565b9150600660e0604051908101604052808660010167ffffffffffffffff1681526020018c600160a060020a031681526020018560ff1681526020018463ffffffff168152602001426122718c612ede565b01815260208082018b90526040918201899052835460018082018655600095865282862085516005909302018054868501518787015167ffffffffffffffff1990921667ffffffffffffffff909516949094177fffffffff0000000000000000000000000000000000000000ffffffffffffffff16604060020a600160a060020a0395861602177fffffff00ffffffffffffffffffffffffffffffffffffffffffffffffffffffff1660e060020a60ff909216919091021781556060860151818301805463ffffffff191663ffffffff9092169190911790556080860151600282015560a0860151600382015560c0909501516004909501949094558e16845260088152908320805480840182559084529220908601910155600680548590811061239857fe5b60009182526020918290206040805160e081018252600593909302909101805467ffffffffffffffff81168452604060020a8104600160a060020a03169484019490945260e060020a90930460ff1690820152600182015463ffffffff16606082015260028201546080820152600382015460a082015260049091015460c08201529050612427818a886137a0565b836001018a600160a060020a03167f18f523957030bee670136363e25b2f847bf1bd07bb7b33c6d5475936a9aac70d8585426124628e612ede565b6040805160ff909516855263ffffffff90931660208501520182820152606082018c9052608082018a9052519081900360a00190a350505050505050505050565b6000818152601560209081526040808320546016835281842080548351818602810186019094528084526060949293919283919083018282801561250657602002820191906000526020600020905b8154815260200190600101908083116124f2575b5050505050905091509150915091565b600b546006546010549192909190565b6000806000806000806000612562600a60149054906101000a900463ffffffff1663ffffffff166125568a612ed1565b9063ffffffff61325e16565b935061256d88612ebd565b841061258257600096508695508594506125f5565b600a546125a190859063ffffffff60a060020a90910481169061358216565b92506125ac88612ebd565b8311156125c3576125bc88612ebd565b92506125dc565b600b548310156125dc57600096508695508594506125f5565b6125e68484613a62565b91509150818160019650965096505b505050509193909250565b6000611f5e600980548060200260200160405190810160405280929190818152602001828054801561265157602002820191906000526020600020905b81548152602001906001019080831161263d575b505050505083613ba1565b612664611fdf565b15156126a8576040805160e560020a62461bcd0281526020600482018190526024820152600080516020614963833981519152604482015290519081900360640190fd5b60048054600160a060020a031916600160a060020a0392909216919091179055565b601154606090600090819081906126ea9063ffffffff1661255688612ed1565b601154909150612713908790839061270d90829063ffffffff9081169061358216565b886110bc565b935093509350509250925092565b612729611fdf565b151561276d576040805160e560020a62461bcd0281526020600482018190526024820152600080516020614963833981519152604482015290519081900360640190fd5b611974600182613be0565b600354600160a060020a031690565b61278f611fdf565b15156127d3576040805160e560020a62461bcd0281526020600482018190526024820152600080516020614963833981519152604482015290519081900360640190fd5b600a8054600160a060020a031916600160a060020a0392909216919091179055565b600a54600160a060020a0316331461287d576040805160e560020a62461bcd02815260206004820152602760248201527f4d616e6167657261626c653a2063616c6c6572206973206e6f7420746865204f60448201527f70657261746f7200000000000000000000000000000000000000000000000000606482015290519081900360840190fd5b600b5481111561288d57600b8190555b61289683612ebd565b600a5460a060020a900463ffffffff16806128b086612ed1565b020111156128d1576128c183612ebd565b600c556128cd83612ede565b600d555b81600e60006128df86612ed1565b8152602081019190915260400160002055505050565b600a5460009081908190600160a060020a03163314612984576040805160e560020a62461bcd02815260206004820152602760248201527f4d616e6167657261626c653a2063616c6c6572206973206e6f7420746865204f60448201527f70657261746f7200000000000000000000000000000000000000000000000000606482015290519081900360840190fd5b61298d84612526565b92509250925080156129a4576129a48484846127f5565b50505050565b60065490565b600a5460a060020a900463ffffffff1681565b6129cb611fdf565b1515612a0f576040805160e560020a62461bcd0281526020600482018190526024820152600080516020614963833981519152604482015290519081900360640190fd5b60028054600160a060020a031916600160a060020a0392909216919091179055565b600254600160a060020a031690565b6000612a4a611fdf565b1515612a8e576040805160e560020a62461bcd0281526020600482018190526024820152600080516020614963833981519152604482015290519081900360640190fd5b611f5e600183613ca9565b6000611f5e6001805480602002602001604051908101604052809291908181526020018280548015612b1657602002820191906000526020600020906000905b82829054906101000a900463ffffffff1663ffffffff1681526020019060040190602082600301049283019260010382029150808411612ad95790505b505050505083613da0565b606080600080606080600080612b52601160009054906101000a900463ffffffff1663ffffffff166125568c612ed1565b601154909650612b6d90879063ffffffff9081169061358216565b9450612b788a612ebd565b86101580612b87575060125485105b15612b9157612cdb565b612b9a8a612ebd565b851115612bad57612baa8a612ebd565b94505b6012548611612bbc5760125495505b612bc4613397565b9350612bdb8686612bd48d612ed1565b8c88613deb565b925088519150600090505b81811015612cd4576003548951600160a060020a03909116906341976e09908b9084908110612c1157fe5b906020019060200201516040518263ffffffff1660e060020a0281526004018082600160a060020a0316600160a060020a03168152602001915050602060405180830381600087803b158015612c6657600080fd5b505af1158015612c7a573d6000803e3d6000fd5b505050506040513d6020811015612c9057600080fd5b50518351849083908110612ca057fe5b90602001906020020151811515612cb357fe5b058382815181101515612cc257fe5b60209081029091010152600101612be6565b8284975097505b5050505050509250929050565b600160a060020a038116600090815260086020908152604091829020805483518184028101840190945280845260609392830182828015612d4857602002820191906000526020600020905b815481526020019060010190808311612d34575b50505050509050919050565b600a54600160a060020a031690565b60006110b284848461322a565b6119746001805480602002602001604051908101604052809291908181526020018280548015612deb57602002820191906000526020600020906000905b82829054906101000a900463ffffffff1663ffffffff1681526020019060040190602082600301049283019260010382029150808411612dae5790505b50505050508261408f565b612dfe611fdf565b1515612e42576040805160e560020a62461bcd0281526020600482018190526024820152600080516020614963833981519152604482015290519081900360640190fd5b611974816140ef565b60125460065460105491929091904290565b60006110b583836040805190810160405280601e81526020017f536166654d6174683a207375627472616374696f6e206f766572666c6f7700008152506141d0565b600060ff8416158284111415612eb65750816110b5565b50806110b5565b604060020a900467ffffffffffffffff1690565b67ffffffffffffffff1690565b700100000000000000000000000000000000900467ffffffffffffffff1690565b60606000806060600080600080612f178d8d8d61426d565b8a51604080518281526020808402820101909152929f509097508015612f47578160200160208202803883390190505b5094505b8b8d10156130c257600680548e908110612f6157fe5b90600052602060002090600502019350836002015492508a831080612f8857506004840154155b15612f92576130b7565b60008d81526007602052604090206013549092508d101580612fb4575081548b105b15612fef57612fe882600301548486600301548560050154866006015489600001601c9054906101000a900460ff166142f2565b905061301d565b61301a8b8486600301548560050154866006015489600001601c9054906101000a900460ff16614322565b90505b60008111156130b757600182015461303f908a90600160a060020a03166143f9565b92506130748260030154613068866004015461255685876002015461325e90919063ffffffff16565b9063ffffffff61444616565b905061309e81868581518110151561308857fe5b602090810290910101519063ffffffff61358216565b85848151811015156130ac57fe5b602090810290910101525b6001909c019b612f4b565b6130d08d8d8d8d8d8a614488565b9d959c50949a5050505050505050505050565b600080821180156130f657506006548211155b151561314c576040805160e560020a62461bcd02815260206004820152601660248201527f6f7074696f6e206964206973206e6f7420657869737400000000000000000000604482015290519081900360640190fd5b60068054600019840190811061315e57fe5b90600052602060002090600502019050919050565b60808101514210611974576040805160e560020a62461bcd02815260206004820152601160248201527f6f7074696f6e2069732065787069726564000000000000000000000000000000604482015290519081900360640190fd5b60c082015181111561145e576040805160e560020a62461bcd02815260206004820152601d60248201527f6f7074696f6e20616d6f756e7420697320696e73756666696369656e74000000604482015290519081900360640190fd5b600060ff8416158284111415613242575060006110b5565b60ff84161561325357818303613257565b8282035b90506110b5565b6000808315156132715760009150613301565b5082820282848281151561328157fe5b04146132fd576040805160e560020a62461bcd02815260206004820152602160248201527f536166654d6174683a206d756c7469706c69636174696f6e206f766572666c6f60448201527f7700000000000000000000000000000000000000000000000000000000000000606482015290519081900360840190fd5b8091505b5092915050565b600a5460009081908190819060a060020a900463ffffffff16600b82015481151561332f57fe5b600a54919004925060a060020a900463ffffffff16600b6001015481151561335357fe5b0460010190505b8082101561338f576000828152600e602052604090205461338290849063ffffffff61358216565b925060019091019061335a565b509092915050565b6001546040805182815260208084028201019091526060919082906000908380156133cc578160200160208202803883390190505b509150600090505b828110156133015760035460018054600160a060020a039092169163da66325791908490811061340057fe5b90600052602060002090600891828204019190066004029054906101000a900463ffffffff166040518263ffffffff1660e060020a028152600401808263ffffffff168152602001915050602060405180830381600087803b15801561346557600080fd5b505af1158015613479573d6000803e3d6000fd5b505050506040513d602081101561348f57600080fd5b5051825183908390811061349f57fe5b602090810290910101526001016133d4565b6000611f5e600180548060200260200160405190810160405280929190818152602001828054801561352e57602002820191906000526020600020906000905b82829054906101000a900463ffffffff1663ffffffff16815260200190600401906020826003010492830192600103820291508084116134f15790505b5050505050836146ae565b600080428460800151111580613551575060c0840151155b1561355f5760009150613301565b61357a8460c0015161255686604001518760a0015187612e9f565b949350505050565b6000828201838110156132fd576040805160e560020a62461bcd02815260206004820152601b60248201527f536166654d6174683a206164646974696f6e206f766572666c6f770000000000604482015290519081900360640190fd5b60004284608001511115156135f6575060006110b5565b6110b28361255686604001518760a0015186612e9f565b80600160a060020a03168260200151600160a060020a031614151561145e576040805160e560020a62461bcd02815260206004820152601f60248201527f63616c6c6572206973206e6f7420746865206f7074696f6e73206f776e657200604482015290519081900360640190fd5b6136d5828054806020026020016040519081016040528092919081815260200182805480156136ca57602002820191906000526020600020905b8154815260200190600101908083116136b6575b505050505082613ba1565b151561145e5781546001810183556000928352602090922090910155565b8154600090815b8181101561372f5783858281548110151561371157fe5b906000526020600020015414156137275761372f565b6001016136fa565b81811015613793576000198201811461377957846001830381548110151561375357fe5b9060005260206000200154858281548110151561376c57fe5b6000918252602090912001555b84546137898660001983016148ef565b5060019250613798565b600092505b505092915050565b60a08301516080840151600554606086015160408088015181517fb4277bc100000000000000000000000000000000000000000000000000000000815263ffffffff909316600484015260ff16602483015242909303604482018190526064820185905283519093600093849384938493600160a060020a039093169263b4277bc1926084808201939182900301818787803b15801561383f57600080fd5b505af1158015613853573d6000803e3d6000fd5b505050506040513d604081101561386957600080fd5b5080516020918201516004805460408e810151815160e060020a63055ef6ab0281529384018d9052602484018d9052604484018c9052606484018690526084840185905260ff1660a484015251939850919650600160a060020a039091169263055ef6ab9260c4808401938290030181600087803b1580156138ea57600080fd5b505af11580156138fe573d6000803e3d6000fd5b505050506040513d602081101561391457600080fd5b5051600354604080517f41976e09000000000000000000000000000000000000000000000000000000008152600160a060020a038c8116600483015291519395506139be9391909216916341976e099160248083019260209291908290030181600087803b15801561398557600080fd5b505af1158015613999573d6000803e3d6000fd5b505050506040513d60208110156139af57600080fd5b5051839063ffffffff61444616565b6040805160e081018252428152600160a060020a039a8b16602080830191825282840194855260608301968752608083019b8c5260a0830198895260c083019788529c516000190167ffffffffffffffff1660009081526007909d5291909b209a518b555160018b018054600160a060020a03191691909a161790985550955160028801559451600387015592516004860155505051600583015551600690910155565b600b546000908190808511801590606090849081908190613a81578599505b613a89613397565b9350600092505b888a1015613b8757613aaa60068b8154811015156119c857fe5b9150613b4e60068b815481101515613abe57fe5b60009182526020918290206040805160e081018252600593909302909101805467ffffffffffffffff81168452604060020a8104600160a060020a03169484019490945260e060020a90930460ff1690820152600182015463ffffffff16606082015260028201546080820152600382015460a082015260049091015460c08201528551869085908110611a8e57fe5b9050848015613b5d5750600081115b15613b6a57899550600094505b613b7a838263ffffffff61358216565b6001909a01999250613a90565b8415613b91578995505b5090989397509295505050505050565b8151600090815b8181101561379357838582815181101515613bbf57fe5b906020019060200201511415613bd85760019250613798565b600101613ba8565b613c6582805480602002602001604051908101604052809291908181526020018280548015613c5a57602002820191906000526020600020906000905b82829054906101000a900463ffffffff1663ffffffff1681526020019060040190602082600301049283019260010382029150808411613c1d5790505b505050505082613da0565b151561145e578154600181018355600092835260209092206008830401805460079093166004026101000a63ffffffff818102199094169290931692909202179055565b8154600090815b81811015613d04578363ffffffff168582815481101515613ccd57fe5b6000918252602090912060088204015460079091166004026101000a900463ffffffff161415613cfc57613d04565b600101613cb0565b818110156137935760001982018114613d90578460018303815481101515613d2857fe5b90600052602060002090600891828204019190066004029054906101000a900463ffffffff168582815481101515613d5c57fe5b90600052602060002090600891828204019190066004026101000a81548163ffffffff021916908363ffffffff1602179055505b8454613789866000198301614918565b8151600090815b81811015613793578363ffffffff168582815181101515613dc457fe5b9060200190602002015163ffffffff161415613de35760019250613798565b600101613da7565b6060806060600080600080601660008b8152602001908152602001600020805480602002602001604051908101604052809291908181526020018280548015613e5357602002820191906000526020600020905b815481526020019060010190808311613e3f575b505050505095508851604051908082528060200260200182016040528015613e85578160200160208202803883390190505b5094505b8a8c101561407f57613ea360068d8154811015156119c857fe5b9950613f4760068d815481101515613eb757fe5b60009182526020918290206040805160e081018252600593909302909101805467ffffffffffffffff81168452604060020a8104600160a060020a03169484019490945260e060020a90930460ff1690820152600182015463ffffffff16606082015260028201546080820152600382015460a082015260049091015460c082015289518a908d908110611a8e57fe5b6013549094508c10613f6a5760008c815260076020526040902060040154613f83565b858a815181101515613f7857fe5b906020019060200201515b925061401f60068d815481101515613f9757fe5b60009182526020918290206040805160e081018252600593909302909101805467ffffffffffffffff81168452604060020a8104600160a060020a03169484019490945260e060020a90930460ff1690820152600182015463ffffffff16606082015260028201546080820152600382015460a082015260049091015460c082015284613539565b9150838214614074575060008b81526007602052604090206001810154614050908a90600160a060020a03166143f9565b9950818403858b81518110151561406357fe5b602090810290910101805190910190525b6001909b019a613e89565b50929a9950505050505050505050565b6140998282613da0565b151561145e576040805160e560020a62461bcd02815260206004820152601f60248201527f77686974654c6973743a207573696e6720696e76616c69642075696e74333200604482015290519081900360640190fd5b600160a060020a0381161515614175576040805160e560020a62461bcd02815260206004820152602660248201527f4f776e61626c653a206e6577206f776e657220697320746865207a65726f206160448201527f6464726573730000000000000000000000000000000000000000000000000000606482015290519081900360840190fd5b60008054604051600160a060020a03808516939216917f8be0079c531659141344cd1fd0a4f28419497f9722a3daafe3b4186f6b6457e091a360008054600160a060020a031916600160a060020a0392909216919091179055565b60008082858511156142635760405160e560020a62461bcd0281526004018080602001828103825283818151815260200191508051906020019080838360005b83811015614228578181015183820152602001614210565b50505050905090810190601f1680156142555780820380516001836020036101000a031916815260200191505b509250505060405180910390fd5b5050509103919050565b60125460009081908181871115614289578682935093506142e8565b8196505b858710156142e15760068054889081106142a357fe5b9060005260206000209060050201905084816002015410806142c757506004810154155b156142d1576142d6565b6142e1565b60019096019561428d565b8687935093505b5050935093915050565b60008061430287878787876146f5565b9050808811614312576000614316565b8088035b98975050505050505050565b600480546040805160e060020a63055ef6ab028152928301879052602483018790528888036044840152606483018690526084830185905260ff841660a48401525160009283928392600160a060020a039091169163055ef6ab9160c480830192602092919082900301818787803b15801561439d57600080fd5b505af11580156143b1573d6000803e3d6000fd5b505050506040513d60208110156143c757600080fd5b505191506143d888888888886146f5565b90508082116143e85760006143ec565b8082035b9998505050505050505050565b8151600090815b8181101561357a5783600160a060020a0316858281518110151561442057fe5b90602001906020020151600160a060020a0316141561443e5761357a565b600101614400565b60006110b583836040805190810160405280601a81526020017f536166654d6174683a206469766973696f6e206279207a65726f0000000000008152506147b4565b6060600061449461485c565b60145491506000808080805b8a87101561469c576000878152600f6020526040908190208151808301928390529160029082845b8154815260200190600101908083116144c857505050505095508d8660006002811015156144f257fe5b60200201511080614504575085518d11155b1561450e57614691565b855160068054909190811061451f57fe5b90600052602060002090600502019450846002015493508b84108061454657506020860151155b1561455057614691565b855160009081526007602090815260408083206004805460038b0154600584015460068501548d54875160e060020a63055ef6ab0281529586018490526024860193909352428d0360448601526064850191909152608484015260e060020a900460ff1660a48301529251919750600160a060020a039092169363055ef6ab9360c480850194919392918390030190829087803b1580156145f057600080fd5b505af1158015614604573d6000803e3d6000fd5b505050506040513d602081101561461a57600080fd5b505160038401549092506146489061306888600160200201516002870154612556908763ffffffff61325e16565b6001840154909250614664908b90600160a060020a03166143f9565b9050614678828a8381518110151561308857fe5b898281518110151561468657fe5b602090810290910101525b6001909601956144a0565b50969c9b505050505050505050505050565b8151600090815b8181101561357a578363ffffffff1685828151811015156146d257fe5b9060200190602002015163ffffffff1614156146ed5761357a565b6001016146b5565b6000428611156147a757600480546040805160e060020a63055ef6ab028152928301889052602483018890524289036044840152606483018790526084830186905260ff851660a484015251600160a060020a039091169163055ef6ab9160c48083019260209291908290030181600087803b15801561477457600080fd5b505af1158015614788573d6000803e3d6000fd5b505050506040513d602081101561479e57600080fd5b505190506147ab565b5060005b95945050505050565b6000808281851161480a5760405160e560020a62461bcd02815260040180806020018281038252838181518152602001915080519060200190808383600083811015614228578181015183820152602001614210565b50838581151561481657fe5b0495945050505050565b6040805160e081018252600080825260208201819052918101829052606081018290526080810182905260a0810182905260c081019190915290565b60408051808201825290600290829080388339509192915050565b82600281019282156148a5579160200282015b828111156148a557825182559160200191906001019061488a565b506148b1929150614948565b5090565b8280548282559060005260206000209081019282156148a557916020028201828111156148a557825182559160200191906001019061488a565b81548183558181111561491357600083815260209020614913918101908301614948565b505050565b81548183558181111561491357600701600890048160070160089004836000526020600020918201910161491391905b6113f391905b808211156148b1576000815560010161494e56004f776e61626c653a2063616c6c6572206973206e6f7420746865206f776e6572a165627a7a72305820fcc26615d319ad575e94150ffe1357176b21c328d8957c3dc9a44f75e7e2e02e00294f776e61626c653a2063616c6c6572206973206e6f7420746865206f776e6572",
  "source": "pragma solidity ^0.4.26;\r\nimport \"../OptionsPool.sol\";\r\ncontract OptionsPoolTest is OptionsPool {\r\n        constructor (address oracleAddr,address optionsPriceAddr,address ivAddress) OptionsPool(oracleAddr,optionsPriceAddr,ivAddress) public{\r\n    }\r\n    function getOptionsWorth(uint8 optType,uint256 strikePrice,uint256 underlyingPrice) public pure returns(uint256){\r\n        return _getOptionsWorth(optType,strikePrice,underlyingPrice);\r\n    }\r\n    function getOptionsPayback(uint8 optType,uint256 strikePrice,uint256 underlyingPrice)public pure returns(uint256){\r\n         return _getOptionsPayback(optType,strikePrice,underlyingPrice);\r\n    }\r\n    /*\r\n    function calTimeSharedPrice()public view returns(uint256){\r\n        uint256 timeValue;\r\n        if (begin>=optionPhaseInfo_Share[1] || preTime<optionEx.createdTime){\r\n            timeValue = _calculateFirstTimePrice(optionEx.fullPrice,tempValue,info.strikePrice,\r\n                optionEx.ivNumerator,optionEx.ivDenominator,info.optType);\r\n        }else{\r\n            timeValue = _calculateTimePrice(preTime,tempValue,info.strikePrice,\r\n                optionEx.ivNumerator,optionEx.ivDenominator,info.optType);\r\n        }\r\n    }\r\n    function _calculateFirstTimePrice(uint256 fullPrice,uint256 expiration,uint256 curTime,\r\n            uint256 strikePrice,uint256 ivNumerator,uint256 ivDenominator,uint8 optType)internal view returns (uint256){\r\n        uint256 nowValue = _calculateCurrentPrice(expiration,curTime,strikePrice,ivNumerator,\r\n            ivDenominator,optType);\r\n        return (fullPrice>nowValue)? fullPrice-nowValue : 0;\r\n    }\r\n    function _calculateTimePrice(uint256 preTime,uint256 expiration,uint256 curTime,\r\n            uint256 strikePrice,uint256 ivNumerator,uint256 ivDenominator,uint8 optType)internal view returns (uint256){\r\n        uint256 preValue = _optionsPrice.getOptionsPrice_iv(strikePrice,strikePrice,expiration-preTime,ivNumerator,\r\n            ivDenominator,optType);\r\n        uint256 nowValue = _calculateCurrentPrice(expiration,curTime,strikePrice,ivNumerator,\r\n            ivDenominator,optType);\r\n        return (preValue>nowValue)? preValue-nowValue : 0;\r\n    }\r\n    function _calculateCurrentPrice(uint256 expiration,uint256 curTime,uint256 strikePrice,uint256 ivNumerator,uint256 ivDenominator,uint8 optType)internal view returns (uint256){\r\n        if (expiration > curTime){\r\n        return _optionsPrice.getOptionsPrice_iv(strikePrice,strikePrice,expiration-curTime,ivNumerator,\r\n            ivDenominator,optType);\r\n        }\r\n        return 0;\r\n    }\r\n    */\r\n}\r\n\r\n",
  "sourcePath": "C:\\work\\solidity\\FinnexusOptions_V2\\contracts\\test\\optionPoolTest.sol",
  "compiler": {
    "name": "solc",
    "version": "0.4.26+commit.4563c3fc.Emscripten.clang"
  },
  "schemaVersion": "3.1.0",
  "updatedAt": "2020-07-28T14:35:12.991Z",
  "devdoc": {
    "methods": {
      "addExpiration(uint256)": {
        "details": "Implementation of add an eligible expiration into the expirationList.\r",
        "params": {
          "expiration": "new eligible expiration.\r"
        }
      },
      "addUnderlyingAsset(uint32)": {
        "details": "Implementation of add an eligible underlying into the underlyingAssets.\r",
        "params": {
          "underlying": "new eligible underlying.\r"
        }
      },
      "getExpirationList()": {
        "details": "Implementation of getting the eligible expirationList.\r"
      },
      "getUnderlyingAssets()": {
        "details": "Implementation of getting the eligible underlyingAssets.\r"
      },
      "isEligibleExpiration(uint256)": {
        "details": "Implementation of testing whether the input expiration is eligible.\r",
        "params": {
          "expiration": "input expiration for testing.\r"
        }
      },
      "isEligibleUnderlyingAsset(uint32)": {
        "details": "Implementation of testing whether the input underlying is eligible.\r",
        "params": {
          "underlying": "input underlying for testing.\r"
        }
      },
      "isOwner()": {
        "details": "Returns true if the caller is the current owner."
      },
      "owner()": {
        "details": "Returns the address of the current owner."
      },
      "removeExpirationList(uint256)": {
        "details": "Implementation of revoke an invalid expiration from the expirationList.\r",
        "params": {
          "removeExpiration": "revoked expiration.\r"
        }
      },
      "removeUnderlyingAssets(uint32)": {
        "details": "Implementation of revoke an invalid underlying from the underlyingAssets.\r",
        "params": {
          "removeUnderlying": "revoked underlying.\r"
        }
      },
      "renounceOwnership()": {
        "details": "Leaves the contract without owner. It will not be possible to call `onlyOwner` functions anymore. Can only be called by the current owner.     * NOTE: Renouncing ownership will leave the contract without an owner, thereby removing any functionality that is only available to the owner."
      },
      "transferOwnership(address)": {
        "details": "Transfers ownership of the contract to a new account (`newOwner`). Can only be called by the current owner."
      }
    }
  },
  "userdoc": {
    "methods": {
      "setManager(address)": {
        "notice": "contribution period to stop or not."
      },
      "setOperator(address)": {
        "notice": "contribution period to stop or not."
      }
    }
  }
}