{
  "contractName": "OptionsManagerV2",
  "abi": [
    {
      "constant": true,
      "inputs": [
        {
          "name": "tmpAddress",
          "type": "address"
        }
      ],
      "name": "checkAddressRedeemOut",
      "outputs": [
        {
          "name": "",
          "type": "bool"
        }
      ],
      "payable": false,
      "stateMutability": "view",
      "type": "function"
    },
    {
      "constant": true,
      "inputs": [],
      "name": "getWhiteList",
      "outputs": [
        {
          "name": "",
          "type": "address[]"
        }
      ],
      "payable": false,
      "stateMutability": "view",
      "type": "function"
    },
    {
      "constant": true,
      "inputs": [],
      "name": "getLeftCollateral",
      "outputs": [
        {
          "name": "",
          "type": "uint256"
        }
      ],
      "payable": false,
      "stateMutability": "view",
      "type": "function"
    },
    {
      "constant": false,
      "inputs": [
        {
          "name": "collateralPool",
          "type": "address"
        }
      ],
      "name": "setCollateralPoolAddress",
      "outputs": [],
      "payable": false,
      "stateMutability": "nonpayable",
      "type": "function"
    },
    {
      "constant": false,
      "inputs": [
        {
          "name": "optionsPool",
          "type": "address"
        }
      ],
      "name": "setOptionsPoolAddress",
      "outputs": [],
      "payable": false,
      "stateMutability": "nonpayable",
      "type": "function"
    },
    {
      "constant": false,
      "inputs": [
        {
          "name": "removeAddress",
          "type": "address"
        }
      ],
      "name": "removeWhiteList",
      "outputs": [
        {
          "name": "",
          "type": "bool"
        }
      ],
      "payable": false,
      "stateMutability": "nonpayable",
      "type": "function"
    },
    {
      "constant": true,
      "inputs": [],
      "name": "getCollateralPoolAddress",
      "outputs": [
        {
          "name": "",
          "type": "address"
        }
      ],
      "payable": false,
      "stateMutability": "view",
      "type": "function"
    },
    {
      "constant": false,
      "inputs": [],
      "name": "redeemAll",
      "outputs": [],
      "payable": false,
      "stateMutability": "nonpayable",
      "type": "function"
    },
    {
      "constant": true,
      "inputs": [
        {
          "name": "strikePrice",
          "type": "uint256"
        },
        {
          "name": "underlyingPrice",
          "type": "uint256"
        },
        {
          "name": "amount",
          "type": "uint256"
        },
        {
          "name": "optType",
          "type": "uint8"
        }
      ],
      "name": "calOptionsOccupied",
      "outputs": [
        {
          "name": "",
          "type": "uint256"
        }
      ],
      "payable": false,
      "stateMutability": "view",
      "type": "function"
    },
    {
      "constant": true,
      "inputs": [
        {
          "name": "feeType",
          "type": "uint256"
        },
        {
          "name": "amount",
          "type": "uint256"
        }
      ],
      "name": "calculateFee",
      "outputs": [
        {
          "name": "",
          "type": "uint256"
        }
      ],
      "payable": false,
      "stateMutability": "view",
      "type": "function"
    },
    {
      "constant": true,
      "inputs": [
        {
          "name": "user",
          "type": "address"
        }
      ],
      "name": "getUserPayingUsd",
      "outputs": [
        {
          "name": "",
          "type": "uint256"
        }
      ],
      "payable": false,
      "stateMutability": "view",
      "type": "function"
    },
    {
      "constant": true,
      "inputs": [
        {
          "name": "account",
          "type": "address"
        }
      ],
      "name": "getUserTotalWorth",
      "outputs": [
        {
          "name": "",
          "type": "uint256"
        }
      ],
      "payable": false,
      "stateMutability": "view",
      "type": "function"
    },
    {
      "constant": false,
      "inputs": [
        {
          "name": "oracle",
          "type": "address"
        }
      ],
      "name": "setOracleAddress",
      "outputs": [],
      "payable": false,
      "stateMutability": "nonpayable",
      "type": "function"
    },
    {
      "constant": true,
      "inputs": [],
      "name": "getOptionsPriceAddress",
      "outputs": [
        {
          "name": "",
          "type": "address"
        }
      ],
      "payable": false,
      "stateMutability": "view",
      "type": "function"
    },
    {
      "constant": false,
      "inputs": [
        {
          "name": "collateral",
          "type": "address"
        },
        {
          "name": "amount",
          "type": "uint256"
        }
      ],
      "name": "addCollateral",
      "outputs": [],
      "payable": true,
      "stateMutability": "payable",
      "type": "function"
    },
    {
      "constant": false,
      "inputs": [],
      "name": "renounceOwnership",
      "outputs": [],
      "payable": false,
      "stateMutability": "nonpayable",
      "type": "function"
    },
    {
      "constant": true,
      "inputs": [
        {
          "name": "tmpAddress",
          "type": "address"
        }
      ],
      "name": "isEligibleAddress",
      "outputs": [
        {
          "name": "",
          "type": "bool"
        }
      ],
      "payable": false,
      "stateMutability": "view",
      "type": "function"
    },
    {
      "constant": true,
      "inputs": [],
      "name": "getCollateralRate",
      "outputs": [
        {
          "name": "",
          "type": "uint256"
        },
        {
          "name": "",
          "type": "uint256"
        }
      ],
      "payable": false,
      "stateMutability": "view",
      "type": "function"
    },
    {
      "constant": false,
      "inputs": [
        {
          "name": "settlement",
          "type": "address"
        },
        {
          "name": "amount",
          "type": "uint256"
        }
      ],
      "name": "addNetBalance",
      "outputs": [],
      "payable": true,
      "stateMutability": "payable",
      "type": "function"
    },
    {
      "constant": true,
      "inputs": [],
      "name": "owner",
      "outputs": [
        {
          "name": "",
          "type": "address"
        }
      ],
      "payable": false,
      "stateMutability": "view",
      "type": "function"
    },
    {
      "constant": true,
      "inputs": [],
      "name": "isOwner",
      "outputs": [
        {
          "name": "",
          "type": "bool"
        }
      ],
      "payable": false,
      "stateMutability": "view",
      "type": "function"
    },
    {
      "constant": false,
      "inputs": [
        {
          "name": "currency",
          "type": "address"
        }
      ],
      "name": "redeem",
      "outputs": [],
      "payable": false,
      "stateMutability": "nonpayable",
      "type": "function"
    },
    {
      "constant": false,
      "inputs": [
        {
          "name": "addAddress",
          "type": "address"
        }
      ],
      "name": "addOperator",
      "outputs": [],
      "payable": false,
      "stateMutability": "nonpayable",
      "type": "function"
    },
    {
      "constant": false,
      "inputs": [
        {
          "name": "calInfo",
          "type": "uint256"
        }
      ],
      "name": "setPhaseSharedPayment",
      "outputs": [],
      "payable": false,
      "stateMutability": "nonpayable",
      "type": "function"
    },
    {
      "constant": false,
      "inputs": [
        {
          "name": "optionsPrice",
          "type": "address"
        }
      ],
      "name": "setOptionsPriceAddress",
      "outputs": [],
      "payable": false,
      "stateMutability": "nonpayable",
      "type": "function"
    },
    {
      "constant": false,
      "inputs": [
        {
          "name": "tokenAmount",
          "type": "uint256"
        },
        {
          "name": "collateral",
          "type": "address"
        }
      ],
      "name": "redeemCollateral",
      "outputs": [],
      "payable": false,
      "stateMutability": "nonpayable",
      "type": "function"
    },
    {
      "constant": true,
      "inputs": [
        {
          "name": "account",
          "type": "address"
        }
      ],
      "name": "calCollateralWorth",
      "outputs": [
        {
          "name": "",
          "type": "uint256[]"
        }
      ],
      "payable": false,
      "stateMutability": "view",
      "type": "function"
    },
    {
      "constant": false,
      "inputs": [
        {
          "name": "removeAddress",
          "type": "address"
        }
      ],
      "name": "removeOperator",
      "outputs": [
        {
          "name": "",
          "type": "bool"
        }
      ],
      "payable": false,
      "stateMutability": "nonpayable",
      "type": "function"
    },
    {
      "constant": true,
      "inputs": [],
      "name": "getOracleAddress",
      "outputs": [
        {
          "name": "",
          "type": "address"
        }
      ],
      "payable": false,
      "stateMutability": "view",
      "type": "function"
    },
    {
      "constant": true,
      "inputs": [
        {
          "name": "user",
          "type": "address"
        },
        {
          "name": "collateral",
          "type": "address"
        }
      ],
      "name": "userInputCollateral",
      "outputs": [
        {
          "name": "",
          "type": "uint256"
        }
      ],
      "payable": false,
      "stateMutability": "view",
      "type": "function"
    },
    {
      "constant": true,
      "inputs": [
        {
          "name": "tmpAddress",
          "type": "address"
        }
      ],
      "name": "checkAddressPayIn",
      "outputs": [
        {
          "name": "",
          "type": "bool"
        }
      ],
      "payable": false,
      "stateMutability": "view",
      "type": "function"
    },
    {
      "constant": false,
      "inputs": [
        {
          "name": "feeType",
          "type": "uint256"
        },
        {
          "name": "numerator",
          "type": "uint256"
        },
        {
          "name": "denominator",
          "type": "uint256"
        }
      ],
      "name": "setTransactionFee",
      "outputs": [],
      "payable": false,
      "stateMutability": "nonpayable",
      "type": "function"
    },
    {
      "constant": true,
      "inputs": [],
      "name": "getOptionsPoolAddress",
      "outputs": [
        {
          "name": "",
          "type": "address"
        }
      ],
      "payable": false,
      "stateMutability": "view",
      "type": "function"
    },
    {
      "constant": false,
      "inputs": [
        {
          "name": "addAddress",
          "type": "address"
        },
        {
          "name": "permission",
          "type": "uint256"
        }
      ],
      "name": "modifyPermission",
      "outputs": [],
      "payable": false,
      "stateMutability": "nonpayable",
      "type": "function"
    },
    {
      "constant": true,
      "inputs": [],
      "name": "getTokenNetworth",
      "outputs": [
        {
          "name": "",
          "type": "uint256"
        }
      ],
      "payable": false,
      "stateMutability": "view",
      "type": "function"
    },
    {
      "constant": true,
      "inputs": [
        {
          "name": "settlement",
          "type": "address"
        }
      ],
      "name": "getFeeBalance",
      "outputs": [
        {
          "name": "",
          "type": "uint256"
        }
      ],
      "payable": false,
      "stateMutability": "view",
      "type": "function"
    },
    {
      "constant": false,
      "inputs": [
        {
          "name": "calInfo",
          "type": "uint256"
        },
        {
          "name": "sharedBalances",
          "type": "int256[]"
        },
        {
          "name": "prices",
          "type": "uint256[]"
        },
        {
          "name": "firstOption",
          "type": "uint256"
        },
        {
          "name": "calTime",
          "type": "uint256"
        }
      ],
      "name": "setSharedPayment",
      "outputs": [],
      "payable": false,
      "stateMutability": "nonpayable",
      "type": "function"
    },
    {
      "constant": true,
      "inputs": [],
      "name": "getOccupiedCollateral",
      "outputs": [
        {
          "name": "",
          "type": "uint256"
        }
      ],
      "payable": false,
      "stateMutability": "view",
      "type": "function"
    },
    {
      "constant": true,
      "inputs": [
        {
          "name": "feeType",
          "type": "uint256"
        }
      ],
      "name": "getFeeRate",
      "outputs": [
        {
          "name": "",
          "type": "uint256"
        },
        {
          "name": "",
          "type": "uint256"
        }
      ],
      "payable": false,
      "stateMutability": "view",
      "type": "function"
    },
    {
      "constant": true,
      "inputs": [],
      "name": "getTotalCollateral",
      "outputs": [
        {
          "name": "",
          "type": "uint256"
        }
      ],
      "payable": false,
      "stateMutability": "view",
      "type": "function"
    },
    {
      "constant": true,
      "inputs": [],
      "name": "getFPTCoinAddress",
      "outputs": [
        {
          "name": "",
          "type": "address"
        }
      ],
      "payable": false,
      "stateMutability": "view",
      "type": "function"
    },
    {
      "constant": true,
      "inputs": [],
      "name": "getUnlockedCollateral",
      "outputs": [
        {
          "name": "",
          "type": "uint256"
        }
      ],
      "payable": false,
      "stateMutability": "view",
      "type": "function"
    },
    {
      "constant": true,
      "inputs": [],
      "name": "getAvailableCollateral",
      "outputs": [
        {
          "name": "",
          "type": "uint256"
        }
      ],
      "payable": false,
      "stateMutability": "view",
      "type": "function"
    },
    {
      "constant": false,
      "inputs": [
        {
          "name": "FPTCoinAddr",
          "type": "address"
        }
      ],
      "name": "setFPTCoinAddress",
      "outputs": [],
      "payable": false,
      "stateMutability": "nonpayable",
      "type": "function"
    },
    {
      "constant": false,
      "inputs": [
        {
          "name": "index",
          "type": "uint256"
        },
        {
          "name": "addAddress",
          "type": "address"
        }
      ],
      "name": "setOperator",
      "outputs": [],
      "payable": false,
      "stateMutability": "nonpayable",
      "type": "function"
    },
    {
      "constant": false,
      "inputs": [
        {
          "name": "addAddress",
          "type": "address"
        }
      ],
      "name": "addWhiteList",
      "outputs": [],
      "payable": false,
      "stateMutability": "nonpayable",
      "type": "function"
    },
    {
      "constant": true,
      "inputs": [],
      "name": "getOperator",
      "outputs": [
        {
          "name": "",
          "type": "address[]"
        }
      ],
      "payable": false,
      "stateMutability": "view",
      "type": "function"
    },
    {
      "constant": false,
      "inputs": [
        {
          "name": "numerator",
          "type": "uint256"
        },
        {
          "name": "denominator",
          "type": "uint256"
        }
      ],
      "name": "setCollateralRate",
      "outputs": [],
      "payable": false,
      "stateMutability": "nonpayable",
      "type": "function"
    },
    {
      "constant": true,
      "inputs": [],
      "name": "getAllFeeBalances",
      "outputs": [
        {
          "name": "",
          "type": "address[]"
        },
        {
          "name": "",
          "type": "uint256[]"
        }
      ],
      "payable": false,
      "stateMutability": "view",
      "type": "function"
    },
    {
      "constant": false,
      "inputs": [
        {
          "name": "newOwner",
          "type": "address"
        }
      ],
      "name": "transferOwnership",
      "outputs": [],
      "payable": false,
      "stateMutability": "nonpayable",
      "type": "function"
    },
    {
      "constant": false,
      "inputs": [
        {
          "name": "halt",
          "type": "bool"
        }
      ],
      "name": "setHalt",
      "outputs": [],
      "payable": false,
      "stateMutability": "nonpayable",
      "type": "function"
    },
    {
      "inputs": [
        {
          "name": "oracleAddr",
          "type": "address"
        },
        {
          "name": "optionsPriceAddr",
          "type": "address"
        },
        {
          "name": "optionsPoolAddr",
          "type": "address"
        },
        {
          "name": "collateralPoolAddr",
          "type": "address"
        },
        {
          "name": "FPTCoinAddr",
          "type": "address"
        }
      ],
      "payable": false,
      "stateMutability": "nonpayable",
      "type": "constructor"
    },
    {
      "anonymous": false,
      "inputs": [
        {
          "indexed": true,
          "name": "from",
          "type": "address"
        },
        {
          "indexed": true,
          "name": "settlement",
          "type": "address"
        },
        {
          "indexed": true,
          "name": "optionId",
          "type": "uint256"
        },
        {
          "indexed": false,
          "name": "optionPrice",
          "type": "uint256"
        },
        {
          "indexed": false,
          "name": "settlementAmount",
          "type": "uint256"
        },
        {
          "indexed": false,
          "name": "optionAmount",
          "type": "uint256"
        }
      ],
      "name": "BuyOption",
      "type": "event"
    },
    {
      "anonymous": false,
      "inputs": [
        {
          "indexed": true,
          "name": "from",
          "type": "address"
        },
        {
          "indexed": true,
          "name": "optionId",
          "type": "uint256"
        },
        {
          "indexed": false,
          "name": "amount",
          "type": "uint256"
        },
        {
          "indexed": false,
          "name": "sellValue",
          "type": "uint256"
        }
      ],
      "name": "SellOption",
      "type": "event"
    },
    {
      "anonymous": false,
      "inputs": [
        {
          "indexed": true,
          "name": "from",
          "type": "address"
        },
        {
          "indexed": true,
          "name": "optionId",
          "type": "uint256"
        },
        {
          "indexed": false,
          "name": "amount",
          "type": "uint256"
        },
        {
          "indexed": false,
          "name": "sellValue",
          "type": "uint256"
        }
      ],
      "name": "ExerciseOption",
      "type": "event"
    },
    {
      "anonymous": false,
      "inputs": [
        {
          "indexed": false,
          "name": "value0",
          "type": "uint256"
        },
        {
          "indexed": false,
          "name": "value1",
          "type": "uint256"
        },
        {
          "indexed": false,
          "name": "value2",
          "type": "uint256"
        },
        {
          "indexed": false,
          "name": "value3",
          "type": "uint256"
        }
      ],
      "name": "DebugEvent",
      "type": "event"
    },
    {
      "anonymous": false,
      "inputs": [
        {
          "indexed": true,
          "name": "from",
          "type": "address"
        },
        {
          "indexed": true,
          "name": "collateral",
          "type": "address"
        },
        {
          "indexed": false,
          "name": "amount",
          "type": "uint256"
        },
        {
          "indexed": false,
          "name": "tokenAmount",
          "type": "uint256"
        }
      ],
      "name": "AddCollateral",
      "type": "event"
    },
    {
      "anonymous": false,
      "inputs": [
        {
          "indexed": true,
          "name": "from",
          "type": "address"
        },
        {
          "indexed": false,
          "name": "collateral",
          "type": "address"
        },
        {
          "indexed": false,
          "name": "allRedeem",
          "type": "uint256"
        }
      ],
      "name": "RedeemCollateral",
      "type": "event"
    },
    {
      "anonymous": false,
      "inputs": [
        {
          "indexed": true,
          "name": "value1",
          "type": "uint256"
        },
        {
          "indexed": true,
          "name": "value2",
          "type": "uint256"
        },
        {
          "indexed": true,
          "name": "value3",
          "type": "uint256"
        }
      ],
      "name": "DebugEvent",
      "type": "event"
    },
    {
      "anonymous": false,
      "inputs": [
        {
          "indexed": true,
          "name": "recieptor",
          "type": "address"
        },
        {
          "indexed": true,
          "name": "settlement",
          "type": "address"
        },
        {
          "indexed": false,
          "name": "payback",
          "type": "uint256"
        }
      ],
      "name": "FeePayback",
      "type": "event"
    },
    {
      "anonymous": false,
      "inputs": [
        {
          "indexed": true,
          "name": "settlement",
          "type": "address"
        },
        {
          "indexed": false,
          "name": "payback",
          "type": "uint256"
        }
      ],
      "name": "AddFee",
      "type": "event"
    },
    {
      "anonymous": false,
      "inputs": [
        {
          "indexed": true,
          "name": "recieptor",
          "type": "address"
        },
        {
          "indexed": true,
          "name": "settlement",
          "type": "address"
        },
        {
          "indexed": false,
          "name": "payback",
          "type": "uint256"
        }
      ],
      "name": "TransferPayback",
      "type": "event"
    },
    {
      "anonymous": false,
      "inputs": [
        {
          "indexed": true,
          "name": "previousOwner",
          "type": "address"
        },
        {
          "indexed": true,
          "name": "newOwner",
          "type": "address"
        }
      ],
      "name": "OwnershipTransferred",
      "type": "event"
    },
    {
      "constant": false,
      "inputs": [
        {
          "name": "settlement",
          "type": "address"
        },
        {
          "name": "settlementAmount",
          "type": "uint256"
        },
        {
          "name": "strikePrice",
          "type": "uint256"
        },
        {
          "name": "underlying",
          "type": "uint32"
        },
        {
          "name": "expiration",
          "type": "uint256"
        },
        {
          "name": "amount",
          "type": "uint256"
        },
        {
          "name": "optType",
          "type": "uint8"
        }
      ],
      "name": "buyOption",
      "outputs": [],
      "payable": true,
      "stateMutability": "payable",
      "type": "function"
    },
    {
      "constant": false,
      "inputs": [
        {
          "name": "optionsId",
          "type": "uint256"
        },
        {
          "name": "amount",
          "type": "uint256"
        }
      ],
      "name": "sellOption",
      "outputs": [],
      "payable": false,
      "stateMutability": "nonpayable",
      "type": "function"
    },
    {
      "constant": false,
      "inputs": [
        {
          "name": "optionsId",
          "type": "uint256"
        },
        {
          "name": "amount",
          "type": "uint256"
        }
      ],
      "name": "exerciseOption",
      "outputs": [],
      "payable": false,
      "stateMutability": "nonpayable",
      "type": "function"
    }
  ],
  "bytecode": "0x6000805460ff60a860020a60ff02011916905560c060405260056080819052600160a0819052600a91909155600b553480156200003b57600080fd5b5060405160a08062005c71833981016040818152825160208401519184015160608501516080909501516000805461010033810261010060a860020a0319909216919091178083559497959693959492939204600160a060020a0316917f8be0079c531659141344cd1fd0a4f28419497f9722a3daafe3b4186f6b6457e0908290a360408051808201825260008082526103e860208084018281526004805460018181018355828752965160029182027f8a35acfbc15ff81a39ae7d344fd709f28e8600b4aa8c65c6b64bfe7fe36bd19b8181019290925593517f8a35acfbc15ff81a39ae7d344fd709f28e8600b4aa8c65c6b64bfe7fe36bd19c948501558851808a018a52603281528086018781528454808b018655858a5291519184028084019290925551908501558851808a018a528781528086018781528454808b018655858a5291519184028084019290925551908501558851808a018a528781528086018781528454808b018655858a5291519184028084019290925551908501558851808a01909952868952938801948552815496870182559452945193909202918201929092559051910155620001fc8564010000000062000257810204565b6200021084640100000000620002e9810204565b62000224836401000000006200037b810204565b62000238816401000000006200040d810204565b6200024c826401000000006200049f810204565b505050505062000547565b6200026a64010000000062000531810204565b1515620002c757604080517f08c379a0000000000000000000000000000000000000000000000000000000008152602060048201819052602482015260008051602062005c51833981519152604482015290519081900360640190fd5b60068054600160a060020a031916600160a060020a0392909216919091179055565b620002fc64010000000062000531810204565b15156200035957604080517f08c379a0000000000000000000000000000000000000000000000000000000008152602060048201819052602482015260008051602062005c51833981519152604482015290519081900360640190fd5b600c8054600160a060020a031916600160a060020a0392909216919091179055565b6200038e64010000000062000531810204565b1515620003eb57604080517f08c379a0000000000000000000000000000000000000000000000000000000008152602060048201819052602482015260008051602062005c51833981519152604482015290519081900360640190fd5b60078054600160a060020a031916600160a060020a0392909216919091179055565b6200042064010000000062000531810204565b15156200047d57604080517f08c379a0000000000000000000000000000000000000000000000000000000008152602060048201819052602482015260008051602062005c51833981519152604482015290519081900360640190fd5b60058054600160a060020a031916600160a060020a0392909216919091179055565b620004b264010000000062000531810204565b15156200050f57604080517f08c379a0000000000000000000000000000000000000000000000000000000008152602060048201819052602482015260008051602062005c51833981519152604482015290519081900360640190fd5b60088054600160a060020a031916600160a060020a0392909216919091179055565b6000546101009004600160a060020a0316331490565b6156fa80620005576000396000f30060806040526004361061026e5763ffffffff60e060020a600035041663059621d7811461027357806309a9d76c146102a85780630aaf38321461030d5780631730b3cb146103345780631a5a3fce146103575780632042e5c214610378578063251e2fe3146103995780632f4350c2146103ca57806332c82a5f146103df57806334e731221461040357806342049a721461041e578063447dbeac1461043f5780634c69c00f146104605780635ca4b73b146104815780636d75b9ee14610496578063715018a6146104ad5780637c9c6712146104c2578063817bf86d146104dd578063852185fc146104fe5780638691a8c51461052c5780638da5cb5b146105435780638f32d59b14610558578063925c482c1461056d57806395a2251f1461059c5780639870d7fe146105bd578063a04115f6146105de578063a093e2d0146105f6578063a20a804514610617578063a56ea4031461063b578063ac8a584a1461065c578063b18b78dd1461067d578063b4d5a9c714610692578063bdac4bf6146106b9578063bf36b110146106da578063c040725a146106f8578063c219043b1461070d578063c5e5a3ed14610731578063c78f680314610746578063c7e2f8bd14610767578063cd40581914610803578063d189290414610818578063d2aaef4e14610833578063d6eb59101461084b578063d7e5799214610860578063dab5512914610875578063e28a327d1461088a578063e7122ffd1461089f578063e7a1c1c0146108c0578063e7cd4a04146108e4578063e7f43c6814610905578063ef63e1f71461091a578063f20568cd14610935578063f2fde38b146109e3578063f495438714610a04575b600080fd5b34801561027f57600080fd5b50610294600160a060020a0360043516610a1e565b604080519115158252519081900360200190f35b3480156102b457600080fd5b506102bd610a56565b60408051602080825283518183015283519192839290830191858101910280838360005b838110156102f95781810151838201526020016102e1565b505050509050019250505060405180910390f35b34801561031957600080fd5b50610322610ab9565b60408051918252519081900360200190f35b34801561034057600080fd5b50610355600160a060020a0360043516610ad8565b005b34801561036357600080fd5b50610355600160a060020a0360043516610b53565b34801561038457600080fd5b50610294600160a060020a0360043516610bce565b3480156103a557600080fd5b506103ae610c27565b60408051600160a060020a039092168252519081900360200190f35b3480156103d657600080fd5b50610355610c36565b3480156103eb57600080fd5b5061032260043560243560443560ff60643516610cc9565b34801561040f57600080fd5b50610322600435602435610d17565b34801561042a57600080fd5b50610322600160a060020a0360043516610d5e565b34801561044b57600080fd5b50610322600160a060020a0360043516610dfb565b34801561046c57600080fd5b50610355600160a060020a0360043516610f4b565b34801561048d57600080fd5b506103ae610fc6565b610355600160a060020a0360043516602435610fd5565b3480156104b957600080fd5b5061035561147c565b3480156104ce57600080fd5b50610355600435602435611524565b3480156104e957600080fd5b50610294600160a060020a0360043516611775565b34801561050a57600080fd5b506105136117db565b6040805192835260208301919091528051918290030190f35b610355600160a060020a03600435166024356117e5565b34801561054f57600080fd5b506103ae61192f565b34801561056457600080fd5b50610294611943565b610355600160a060020a036004351660243560443563ffffffff6064351660843560a43560ff60c43516611959565b3480156105a857600080fd5b50610355600160a060020a0360043516611cd7565b3480156105c957600080fd5b50610355600160a060020a0360043516611ec7565b3480156105ea57600080fd5b50610355600435611f1e565b34801561060257600080fd5b50610355600160a060020a0360043516612334565b34801561062357600080fd5b50610355600435600160a060020a03602435166123af565b34801561064757600080fd5b506102bd600160a060020a0360043516612733565b34801561066857600080fd5b50610294600160a060020a03600435166127f9565b34801561068957600080fd5b506103ae612852565b34801561069e57600080fd5b50610322600160a060020a0360043581169060243516612861565b3480156106c557600080fd5b50610294600160a060020a0360043516612907565b3480156106e657600080fd5b5061035560043560243560443561293b565b34801561070457600080fd5b506103ae61299f565b34801561071957600080fd5b50610355600160a060020a03600435166024356129ae565b34801561073d57600080fd5b50610322612a16565b34801561075257600080fd5b50610322600160a060020a0360043516612ac7565b34801561077357600080fd5b5060408051602060046024803582810135848102808701860190975280865261035596843596369660449591949091019291829185019084908082843750506040805187358901803560208181028481018201909552818452989b9a998901989297509082019550935083925085019084908082843750949750508435955050506020909201359150612ae29050565b34801561080f57600080fd5b50610322612df8565b34801561082457600080fd5b50610355600435602435612e8b565b34801561083f57600080fd5b50610513600435613258565b34801561085757600080fd5b50610322613279565b34801561086c57600080fd5b506103ae6133fd565b34801561088157600080fd5b5061032261340c565b34801561089657600080fd5b5061032261349d565b3480156108ab57600080fd5b50610355600160a060020a03600435166134aa565b3480156108cc57600080fd5b50610355600435600160a060020a0360243516613525565b3480156108f057600080fd5b50610355600160a060020a03600435166135b3565b34801561091157600080fd5b506102bd61362a565b34801561092657600080fd5b5061035560043560243561368a565b34801561094157600080fd5b5061094a6136e1565b604051808060200180602001838103835285818151815260200191508051906020019060200280838360005b8381101561098e578181015183820152602001610976565b50505050905001838103825284818151815260200191508051906020019060200280838360005b838110156109cd5781810151838201526020016109b5565b5050505090500194505050505060405180910390f35b3480156109ef57600080fd5b50610355600160a060020a03600435166137ea565b348015610a1057600080fd5b50610355600435151561383f565b6000610a2982611775565b8015610a505750600160a060020a0382166000908152600260208190526040909120548116145b92915050565b60606001805480602002602001604051908101604052809291908181526020018280548015610aae57602002820191906000526020600020905b8154600160a060020a03168152600190910190602001808311610a90575b505050505090505b90565b6000610ad3610ac6613279565b610ace612df8565b6138bb565b905090565b610ae0611943565b1515610b24576040805160e560020a62461bcd028152602060048201819052602482015260008051602061568f833981519152604482015290519081900360640190fd5b6008805473ffffffffffffffffffffffffffffffffffffffff1916600160a060020a0392909216919091179055565b610b5b611943565b1515610b9f576040805160e560020a62461bcd028152602060048201819052602482015260008051602061568f833981519152604482015290519081900360640190fd5b6007805473ffffffffffffffffffffffffffffffffffffffff1916600160a060020a0392909216919091179055565b6000610bd8611943565b1515610c1c576040805160e560020a62461bcd028152602060048201819052602482015260008051602061568f833981519152604482015290519081900360640190fd5b610a506001836138d6565b600854600160a060020a031690565b6000610c40611943565b1515610c84576040805160e560020a62461bcd028152602060048201819052602482015260008051602061568f833981519152604482015290519081900360640190fd5b5060005b600154811015610cc657610cbe600182815481101515610ca457fe5b600091825260209091200154600160a060020a0316611cd7565b600101610c88565b50565b60008060ff8316158587111415610cf157610cea868563ffffffff6139c316565b9050610d04565b610d01858563ffffffff6139c316565b90505b610d0d81613a6d565b9695505050505050565b6000806000610d2585613a9c565b8054909250610d3a908563ffffffff6139c316565b9050610d53826001015482613b1b90919063ffffffff16565b92505b505092915050565b600854604080517f42049a72000000000000000000000000000000000000000000000000000000008152600160a060020a038481166004830152915160009392909216916342049a729160248082019260209290919082900301818787803b158015610dc957600080fd5b505af1158015610ddd573d6000803e3d6000fd5b505050506040513d6020811015610df357600080fd5b505192915050565b600554604080517f07e77aa0000000000000000000000000000000000000000000000000000000008152600160a060020a0384811660048301529151600093610a509316916307e77aa091602480830192602092919082900301818887803b158015610e6657600080fd5b505af1158015610e7a573d6000803e3d6000fd5b505050506040513d6020811015610e9057600080fd5b5051600554604080517f70a08231000000000000000000000000000000000000000000000000000000008152600160a060020a0387811660048301529151610f3f9392909216916370a08231916024808201926020929091908290030181600087803b158015610eff57600080fd5b505af1158015610f13573d6000803e3d6000fd5b505050506040513d6020811015610f2957600080fd5b5051610f33612a16565b9063ffffffff6139c316565b9063ffffffff613b5d16565b610f53611943565b1515610f97576040805160e560020a62461bcd028152602060048201819052602482015260008051602061568f833981519152604482015290519081900360640190fd5b6006805473ffffffffffffffffffffffffffffffffffffffff1916600160a060020a0392909216919091179055565b600c54600160a060020a031690565b6000805481908190819060ff1615610fec57600080fd5b6000805460ff19166001179081905560a860020a900460ff1615611048576040805160e560020a62461bcd02815260206004820152601760248201526000805160206156af833981519152604482015290519081900360640190fd5b6110528686613bba565b9450600085116110ac576040805160e560020a62461bcd02815260206004820152601a60248201527f736574746c656d656e7420616d6f756e74206973207a65726f21000000000000604482015290519081900360640190fd5b6110b7600386610d17565b93506110c38685613dc3565b6110d3858563ffffffff613e4c16565b6006546040805160e060020a6341976e09028152600160a060020a038a8116600483015291519398509116916341976e09916024808201926020929091908290030181600087803b15801561112757600080fd5b505af115801561113b573d6000803e3d6000fd5b505050506040513d602081101561115157600080fd5b50519250611165838663ffffffff6139c316565b915061117f611172612a16565b839063ffffffff613b1b16565b600854604080517f692a76a7000000000000000000000000000000000000000000000000000000008152336004820152602481018690529051929350600160a060020a039091169163692a76a79160448082019260009290919082900301818387803b1580156111ee57600080fd5b505af1158015611202573d6000803e3d6000fd5b5050600854604080517f2b2d50c3000000000000000000000000000000000000000000000000000000008152600160a060020a038b81166004830152602482018b90529151919092169350632b2d50c39250604480830192600092919082900301818387803b15801561127457600080fd5b505af1158015611288573d6000803e3d6000fd5b5050600854604080517fd56dbe88000000000000000000000000000000000000000000000000000000008152336004820152600160a060020a038b81166024830152604482018b9052915191909216935063d56dbe889250606480830192600092919082900301818387803b15801561130057600080fd5b505af1158015611314573d6000803e3d6000fd5b5050600854604080517f7b064052000000000000000000000000000000000000000000000000000000008152600160a060020a038b81166004830152602482018b90529151919092169350637b0640529250604480830192600092919082900301818387803b15801561138657600080fd5b505af115801561139a573d6000803e3d6000fd5b505060408051888152602081018590528151600160a060020a038b1694503393507f33a089d94f9a0b7d0fe21e69b40d7dbe1965be652c7382cc778d46963db8c49b929181900390910190a3600554604080517f40c10f19000000000000000000000000000000000000000000000000000000008152336004820152602481018490529051600160a060020a03909216916340c10f199160448082019260009290919082900301818387803b15801561145257600080fd5b505af1158015611466573d6000803e3d6000fd5b50506000805460ff191690555050505050505050565b611484611943565b15156114c8576040805160e560020a62461bcd028152602060048201819052602482015260008051602061568f833981519152604482015290519081900360640190fd5b60008054604051610100909104600160a060020a0316907f8be0079c531659141344cd1fd0a4f28419497f9722a3daafe3b4186f6b6457e0908390a36000805474ffffffffffffffffffffffffffffffffffffffff0019169055565b6000805460ff161561153557600080fd5b6000805460ff19166001179081905560a860020a900460ff1615611591576040805160e560020a62461bcd02815260206004820152601760248201526000805160206156af833981519152604482015290519081900360640190fd5b600082116115e9576040805160e560020a62461bcd02815260206004820152601860248201527f657865726369736520616d6f756e74206973207a65726f210000000000000000604482015290519081900360640190fd5b600754604080517f67b8ceb900000000000000000000000000000000000000000000000000000000815260048101869052602481018590529051600160a060020a03909216916367b8ceb9916044808201926020929091908290030181600087803b15801561165757600080fd5b505af115801561166b573d6000803e3d6000fd5b505050506040513d602081101561168157600080fd5b5051905080151561169157611766565b600754604080517f74e85fd200000000000000000000000000000000000000000000000000000000815233600482015260248101869052604481018590529051600160a060020a03909216916374e85fd29160648082019260009290919082900301818387803b15801561170457600080fd5b505af1158015611718573d6000803e3d6000fd5b5050604080518581526020810185905281518794503393507fc939d87d6a5458cd262393bdb2c5408330b7647ca14b752229b0301858a29972929181900390910190a3611766816002613e8e565b50506000805460ff1916905550565b6000610a5060018054806020026020016040519081016040528092919081815260200182805480156117d057602002820191906000526020600020905b8154600160a060020a031681526001909101906020018083116117b2575b505050505083614176565b600a54600b549091565b6009546001908110801561181c5750600980543391908390811061180557fe5b600091825260209091200154600160a060020a0316145b1515611898576040805160e560020a62461bcd02815260206004820152603060248201527f4d616e6167657261626c653a2063616c6c6572206973206e6f7420746865206560448201527f6c696769626c65204f70657261746f7200000000000000000000000000000000606482015290519081900360840190fd5b6118a28383613bba565b600854604080517f7b064052000000000000000000000000000000000000000000000000000000008152600160a060020a038781166004830152602482018590529151939550911691637b0640529160448082019260009290919082900301818387803b15801561191257600080fd5b505af1158015611926573d6000803e3d6000fd5b50505050505050565b6000546101009004600160a060020a031690565b6000546101009004600160a060020a0316331490565b600080548190819060ff161561196e57600080fd5b6000805460ff19166001179081905560a860020a900460ff16156119ca576040805160e560020a62461bcd02815260206004820152601760248201526000805160206156af833981519152604482015290519081900360640190fd5b600754604080517f3ad2fb570000000000000000000000000000000000000000000000000000000081526004810189905263ffffffff8a1660248201529051600160a060020a0390921691633ad2fb579160448082019260009290919082900301818387803b158015611a3c57600080fd5b505af1158015611a50573d6000803e3d6000fd5b50505050611a6a8460ff168863ffffffff168860006141c7565b600654604080517fda66325700000000000000000000000000000000000000000000000000000000815263ffffffff8b1660048201529051929550600160a060020a039091169163da663257916024808201926020929091908290030181600087803b158015611ad957600080fd5b505af1158015611aed573d6000803e3d6000fd5b505050506040513d6020811015611b0357600080fd5b5051600c54604080517f4b7d8e5c00000000000000000000000000000000000000000000000000000000815260048101849052602481018c9052604481018a905263ffffffff8b16606482015260ff881660848201529051929450600160a060020a0390911691634b7d8e5c9160a4808201926020929091908290030181600087803b158015611b9257600080fd5b505af1158015611ba6573d6000803e3d6000fd5b505050506040513d6020811015611bbc57600080fd5b50519050611bcc88838787610cc9565b611bd461349d565b1015611c2a576040805160e560020a62461bcd02815260206004820152601b60248201527f636f6c6c61746572616c20697320696e73756666696369656e74210000000000604482015290519081900360640190fd5b600754604080517f924a69ce000000000000000000000000000000000000000000000000000000008152336004820152600160a060020a038d8116602483015260448201879052606482018c90526084820185905260a482018990529151919092169163924a69ce9160c480830192600092919082900301818387803b158015611cb357600080fd5b505af1158015611cc7573d6000803e3d6000fd5b505050506114668a8a838861420f565b600080611ce2611943565b1515611d26576040805160e560020a62461bcd028152602060048201819052602482015260008051602061568f833981519152604482015290519081900360640190fd5b600160a060020a03831660009081526003602052604081205492508211611d97576040805160e560020a62461bcd02815260206004820152601260248201527f4974277320656d7074792062616c616e63650000000000000000000000000000604482015290519081900360640190fd5b600160a060020a0383166000818152600360205260408120551515611de957604051339083156108fc029084906000818181858888f19350505050158015611de3573d6000803e3d6000fd5b50611e82565b50604080517fa9059cbb0000000000000000000000000000000000000000000000000000000081523360048201526024810183905290518391600160a060020a0383169163a9059cbb916044808201926020929091908290030181600087803b158015611e5557600080fd5b505af1158015611e69573d6000803e3d6000fd5b505050506040513d6020811015611e7f57600080fd5b50505b604080518381529051600160a060020a0385169133917f747147be90b2a81a2e929994a92cd7bb71396bdbfd02f181867c81187d4f79449181900360200190a3505050565b611ecf611943565b1515611f13576040805160e560020a62461bcd028152602060048201819052602482015260008051602061568f833981519152604482015290519081900360640190fd5b610cc6600982614611565b606060008060608060008080600980549050118015611f6057506009805433919083908110611f4957fe5b600091825260209091200154600160a060020a0316145b1515611fdc576040805160e560020a62461bcd02815260206004820152603060248201527f4d616e6167657261626c653a2063616c6c6572206973206e6f7420746865206560448201527f6c696769626c65204f70657261746f7200000000000000000000000000000000606482015290519081900360840190fd5b600754604080517faf70df12000000000000000000000000000000000000000000000000000000008152600481018b8152602482019283526001805460448401819052600160a060020a039095169463af70df12948e9492939290916064909101908490801561207557602002820191906000526020600020905b8154600160a060020a03168152600190910190602001808311612057575b50509350505050600060405180830381600087803b15801561209657600080fd5b505af11580156120aa573d6000803e3d6000fd5b505050506040513d6000823e601f3d908101601f1916820160405260608110156120d357600080fd5b8101908080516401000000008111156120eb57600080fd5b820160208101848111156120fe57600080fd5b815185602082028301116401000000008211171561211b57600080fd5b50506020820151604090920151909a509098509650508515905061232a57600754604080517fe5081c40000000000000000000000000000000000000000000000000000000008152600481018b8152602482019283526001805460448401819052600160a060020a039095169463e5081c40948e949293929091606490910190849080156121d257602002820191906000526020600020905b8154600160a060020a031681526001909101906020018083116121b4575b50509350505050600060405180830381600087803b1580156121f357600080fd5b505af1158015612207573d6000803e3d6000fd5b505050506040513d6000823e601f3d908101601f19168201604090815281101561223057600080fd5b81019080805164010000000081111561224857600080fd5b8201602081018481111561225b57600080fd5b815185602082028301116401000000008211171561227857600080fd5b5050929190602001805164010000000081111561229457600080fd5b820160208101848111156122a757600080fd5b81518560208202830111640100000000821117156122c457600080fd5b50949850965060009550505050505b835182101561231d5786828151811015156122ea57fe5b90602001906020020151848381518110151561230257fe5b602090810290910101805190910190526001909101906122d3565b61232a8885858942612ae2565b5050505050505050565b61233c611943565b1515612380576040805160e560020a62461bcd028152602060048201819052602482015260008051602061568f833981519152604482015290519081900360640190fd5b600c805473ffffffffffffffffffffffffffffffffffffffff1916600160a060020a0392909216919091179055565b6000805481908190819081908190819060ff16156123cc57600080fd5b6000805460ff19166001179081905560a860020a900460ff1615612428576040805160e560020a62461bcd02815260206004820152601760248201526000805160206156af833981519152604482015290519081900360640190fd5b61243188610a1e565b1515612487576040805160e560020a62461bcd02815260206004820152601f60248201527f736574746c656d656e7420697320756e737570706f7274656420746f6b656e00604482015290519081900360640190fd5b600554604080517f593557360000000000000000000000000000000000000000000000000000000081523360048201529051600160a060020a03909216916359355736916024808201926020929091908290030181600087803b1580156124ed57600080fd5b505af1158015612501573d6000803e3d6000fd5b505050506040513d602081101561251757600080fd5b5051600554604080517f70a0823100000000000000000000000000000000000000000000000000000000815233600482015290519299508b928a92600160a060020a0316916370a082319160248083019260209291908290030181600087803b15801561258357600080fd5b505af1158015612597573d6000803e3d6000fd5b505050506040513d60208110156125ad57600080fd5b5051011015612606576040805160e560020a62461bcd02815260206004820152601e60248201527f53436f696e2062616c616e636520697320696e73756666696369656e74210000604482015290519081900360640190fd5b8815156126125761271e565b61261b33610dfb565b9550612625610ab9565b945061263189866146b8565b9903986000945092508389111561268557828503945060008711156126655786891161265e576000612662565b8689035b98505b61266f8986614891565b9150915060008211156126855781935080830192505b612690888488614998565b600084111561271e57600554604080517f9dc29fac000000000000000000000000000000000000000000000000000000008152336004820152602481018790529051600160a060020a0390921691639dc29fac9160448082019260009290919082900301818387803b15801561270557600080fd5b505af1158015612719573d6000803e3d6000fd5b505050505b50506000805460ff1916905550505050505050565b6060600060608060008061274687610dfb565b9450612777876001600081548110151561275c57fe5b600091825260209091200154600160a060020a031687614acf565b5060015491955093509150600090505b818110156127ee576127ce83828151811015156127a057fe5b9060200190602002015185838151811015156127b857fe5b602090810290910101519063ffffffff613b5d16565b84828151811015156127dc57fe5b60209081029091010152600101612787565b509195945050505050565b6000612803611943565b1515612847576040805160e560020a62461bcd028152602060048201819052602482015260008051602061568f833981519152604482015290519081900360640190fd5b610a506009836138d6565b600654600160a060020a031690565b600854604080517fb4d5a9c7000000000000000000000000000000000000000000000000000000008152600160a060020a03858116600483015284811660248301529151600093929092169163b4d5a9c79160448082019260209290919082900301818787803b1580156128d457600080fd5b505af11580156128e8573d6000803e3d6000fd5b505050506040513d60208110156128fe57600080fd5b50909392505050565b600061291282611775565b8015610a50575050600160a060020a031660009081526002602052604090205460019081161490565b6000612945611943565b1515612989576040805160e560020a62461bcd028152602060048201819052602482015260008051602061568f833981519152604482015290519081900360640190fd5b61299284613a9c565b9283555060019091015550565b600754600160a060020a031690565b6129b6611943565b15156129fa576040805160e560020a62461bcd028152602060048201819052602482015260008051602061568f833981519152604482015290519081900360640190fd5b600160a060020a03909116600090815260026020526040902055565b600080600560009054906101000a9004600160a060020a0316600160a060020a03166318160ddd6040518163ffffffff1660e060020a028152600401602060405180830381600087803b158015612a6c57600080fd5b505af1158015612a80573d6000803e3d6000fd5b505050506040513d6020811015612a9657600080fd5b50519050801515612aad576305f5e1009150612ac3565b80612ab661340c565b811515612abf57fe5b0491505b5090565b600160a060020a031660009081526003602052604090205490565b600080600080600980549050118015612b1e57506009805433919083908110612b0757fe5b600091825260209091200154600160a060020a0316145b1515612b9a576040805160e560020a62461bcd02815260206004820152603060248201527f4d616e6167657261626c653a2063616c6c6572206973206e6f7420746865206560448201527f6c696769626c65204f70657261746f7200000000000000000000000000000000606482015290519081900360840190fd5b6007546040517f8ff239e6000000000000000000000000000000000000000000000000000000008152600481018a81526024820188905260648201879052608060448301908152895160848401528951600160a060020a0390941693638ff239e6938d938b938d938c9360a401906020808701910280838360005b83811015612c2d578181015183820152602001612c15565b5050505090500195505050505050600060405180830381600087803b158015612c5557600080fd5b505af1158015612c69573d6000803e3d6000fd5b50505050600092505b865183101561232a576001805484908110612c8957fe5b60009182526020822001548851600160a060020a039091169350889085908110612caf57fe5b6020908102909101015112612d5c576008548751600160a060020a0390911690637b0640529084908a9087908110612ce357fe5b906020019060200201516040518363ffffffff1660e060020a0281526004018083600160a060020a0316600160a060020a0316815260200182815260200192505050600060405180830381600087803b158015612d3f57600080fd5b505af1158015612d53573d6000803e3d6000fd5b50505050612ded565b6008548751600160a060020a039091169063a337f4509084908a9087908110612d8157fe5b602090810290910101516040805160e060020a63ffffffff8616028152600160a060020a039093166004840152600091820360248401525160448084019382900301818387803b158015612dd457600080fd5b505af1158015612de8573d6000803e3d6000fd5b505050505b600190920191612c72565b600080600760009054906101000a9004600160a060020a0316600160a060020a03166373a3d4246040518163ffffffff1660e060020a028152600401602060405180830381600087803b158015612e4e57600080fd5b505af1158015612e62573d6000803e3d6000fd5b505050506040513d6020811015612e7857600080fd5b50519050612e8581613a6d565b91505090565b6000805481908190819081908190819060ff1615612ea857600080fd5b6000805460ff19166001179081905560a860020a900460ff1615612f04576040805160e560020a62461bcd02815260206004820152601760248201526000805160206156af833981519152604482015290519081900360640190fd5b60008811612f5c576040805160e560020a62461bcd02815260206004820152601460248201527f73656c6c20616d6f756e74206973207a65726f21000000000000000000000000604482015290519081900360640190fd5b600754604080517f74e85fd2000000000000000000000000000000000000000000000000000000008152336004820152602481018c9052604481018b90529051600160a060020a03909216916374e85fd29160648082019260009290919082900301818387803b158015612fcf57600080fd5b505af1158015612fe3573d6000803e3d6000fd5b5050600754604080517f48ee201d000000000000000000000000000000000000000000000000000000008152600481018e90529051600160a060020a0390921693506348ee201d925060248082019260e0929091908290030181600087803b15801561304e57600080fd5b505af1158015613062573d6000803e3d6000fd5b505050506040513d60e081101561307857600080fd5b5060408101516060820151608083015160a090930151919950975090955093506130a8854263ffffffff613e4c16565b600654604080517fda66325700000000000000000000000000000000000000000000000000000000815263ffffffff8a1660048201529051929750600160a060020a039091169163da663257916024808201926020929091908290030181600087803b15801561311757600080fd5b505af115801561312b573d6000803e3d6000fd5b505050506040513d602081101561314157600080fd5b5051600c54604080517f4b7d8e5c00000000000000000000000000000000000000000000000000000000815260048101849052602481018890526044810189905263ffffffff8a16606482015260ff8b1660848201529051929550600160a060020a0390911691634b7d8e5c9160a4808201926020929091908290030181600087803b1580156131d057600080fd5b505af11580156131e4573d6000803e3d6000fd5b505050506040513d60208110156131fa57600080fd5b5051915061320e828963ffffffff6139c316565b604080518a81526020810183905281519293508b9233927f4d6194525a1265d47b1d6b65f640509c7a2a8aa847fd0654fac933032e1348ac928290030190a361271e816001613e8e565b600080600061326684613a9c565b8054600190910154909590945092505050565b60015460009081908180805b838310156133f357600180548490811061329b57fe5b60009182526020808320909101546006546040805160e060020a6341976e09028152600160a060020a0393841660048201819052915191975091909216936341976e099360248084019491939192918390030190829087803b15801561330057600080fd5b505af1158015613314573d6000803e3d6000fd5b505050506040513d602081101561332a57600080fd5b5051600854604080517f6b6ecea8000000000000000000000000000000000000000000000000000000008152600160a060020a03868116600483015291519394506133e6936133d9939290921691636b6ecea8916024808201926020929091908290030181600087803b1580156133a057600080fd5b505af11580156133b4573d6000803e3d6000fd5b505050506040513d60208110156133ca57600080fd5b5051839063ffffffff6139c316565b869063ffffffff613b5d16565b9450600190920191613285565b5092949350505050565b600554600160a060020a031690565b6000610ad3613419613279565b600560009054906101000a9004600160a060020a0316600160a060020a031663dad3eb746040518163ffffffff1660e060020a028152600401602060405180830381600087803b15801561346c57600080fd5b505af1158015613480573d6000803e3d6000fd5b505050506040513d602081101561349657600080fd5b50516138bb565b6000610ad3610ac661340c565b6134b2611943565b15156134f6576040805160e560020a62461bcd028152602060048201819052602482015260008051602061568f833981519152604482015290519081900360640190fd5b6005805473ffffffffffffffffffffffffffffffffffffffff1916600160a060020a0392909216919091179055565b61352d611943565b1515613571576040805160e560020a62461bcd028152602060048201819052602482015260008051602061568f833981519152604482015290519081900360640190fd5b8060098381548110151561358157fe5b9060005260206000200160006101000a815481600160a060020a030219169083600160a060020a031602179055505050565b6135bb611943565b15156135ff576040805160e560020a62461bcd028152602060048201819052602482015260008051602061568f833981519152604482015290519081900360640190fd5b61360a600182614611565b600160a060020a0316600090815260026020526040902063ffffffff9055565b60606009805480602002602001604051908101604052809291908181526020018280548015610aae57602002820191906000526020600020908154600160a060020a03168152600190910190602001808311610a90575050505050905090565b613692611943565b15156136d6576040805160e560020a62461bcd028152602060048201819052602482015260008051602061568f833981519152604482015290519081900360640190fd5b600a91909155600b55565b60608060606000600180549050604051908082528060200260200182016040528015613717578160200160208202803883390190505b509150600090505b600154811015613781576003600060018381548110151561373c57fe5b6000918252602080832090910154600160a060020a03168352820192909252604001902054825183908390811061376f57fe5b6020908102909101015260010161371f565b600182818054806020026020016040519081016040528092919081815260200182805480156137d957602002820191906000526020600020905b8154600160a060020a031681526001909101906020018083116137bb575b505050505091509350935050509091565b6137f2611943565b1515613836576040805160e560020a62461bcd028152602060048201819052602482015260008051602061568f833981519152604482015290519081900360640190fd5b610cc681614e50565b613847611943565b151561388b576040805160e560020a62461bcd028152602060048201819052602482015260008051602061568f833981519152604482015290519081900360640190fd5b6000805491151560a860020a0275ff00000000000000000000000000000000000000000019909216919091179055565b60008183116138cb5760006138cf565b8183035b9392505050565b8154600090815b818110156139255783600160a060020a031685828154811015156138fd57fe5b600091825260209091200154600160a060020a0316141561391d57613925565b6001016138dd565b818110156139b8576000198201811461399e57846001830381548110151561394957fe5b6000918252602090912001548554600160a060020a039091169086908390811061396f57fe5b9060005260206000200160006101000a815481600160a060020a030219169083600160a060020a031602179055505b84546139ae86600019830161564b565b5060019250610d56565b506000949350505050565b6000808315156139d65760009150613a66565b508282028284828115156139e657fe5b0414613a62576040805160e560020a62461bcd02815260206004820152602160248201527f536166654d6174683a206d756c7469706c69636174696f6e206f766572666c6f60448201527f7700000000000000000000000000000000000000000000000000000000000000606482015290519081900360840190fd5b8091505b5092915050565b600a546000908190613a85908463ffffffff6139c316565b600b549091506138cf90829063ffffffff613b1b16565b6004546000908210613af8576040805160e560020a62461bcd02815260206004820152601260248201527f66656520747970652069732076616c6964210000000000000000000000000000604482015290519081900360640190fd5b6004805483908110613b0657fe5b90600052602060002090600202019050919050565b60006138cf83836040805190810160405280601a81526020017f536166654d6174683a206469766973696f6e206279207a65726f000000000000815250614f49565b600082820183811015613a62576040805160e560020a62461bcd02815260206004820152601b60248201527f536166654d6174683a206164646974696f6e206f766572666c6f770000000000604482015290519081900360640190fd5b6000806000613bc885612907565b1515613c1e576040805160e560020a62461bcd02815260206004820152601f60248201527f736574746c656d656e7420697320756e737570706f7274656420746f6b656e00604482015290519081900360640190fd5b60009150600160a060020a0385161515613c7557600854604051349350600160a060020a039091169083156108fc029084906000818181858888f19350505050158015613c6f573d6000803e3d6000fd5b50613dbb565b6000841115613dbb5750604080517f23b872dd0000000000000000000000000000000000000000000000000000000081523360048201523060248201526044810185905290518591600160a060020a038316916323b872dd916064808201926020929091908290030181600087803b158015613cf057600080fd5b505af1158015613d04573d6000803e3d6000fd5b505050506040513d6020811015613d1a57600080fd5b5050600854604080517fa9059cbb000000000000000000000000000000000000000000000000000000008152600160a060020a0392831660048201526024810187905290518694509183169163a9059cbb916044808201926020929091908290030181600087803b158015613d8e57600080fd5b505af1158015613da2573d6000803e3d6000fd5b505050506040513d6020811015613db857600080fd5b50505b509392505050565b6000811115613e4857600160a060020a038216600090815260036020526040902054613df5908263ffffffff613b5d16565b600160a060020a038316600081815260036020908152604091829020939093558051848152905191927f1104eee7f034069140a0655d153038cedf9e65e5724018c555a8d56cfb6bee7792918290030190a25b5050565b60006138cf83836040805190810160405280601e81526020017f536166654d6174683a207375627472616374696f6e206f766572666c6f770000815250614ff1565b600154604080518281526020808402820101909152600091906060908390819081908190868015613ec9578160200160208202803883390190505b509450600093505b8584101561406d576001805485908110613ee757fe5b60009182526020808320909101546006546040805160e060020a6341976e09028152600160a060020a0393841660048201819052915191985091909216936341976e099360248084019491939192918390030190829087803b158015613f4c57600080fd5b505af1158015613f60573d6000803e3d6000fd5b505050506040513d6020811015613f7657600080fd5b5051600854604080517f6b6ecea8000000000000000000000000000000000000000000000000000000008152600160a060020a0387811660048301529151939550911691636b6ecea8916024808201926020929091908290030181600087803b158015613fe257600080fd5b505af1158015613ff6573d6000803e3d6000fd5b505050506040513d602081101561400c57600080fd5b5051855186908690811061401c57fe5b602090810290910101528451614060906140539087908790811061403c57fe5b60209081029091010151849063ffffffff6139c316565b889063ffffffff613b5d16565b9650600190930192613ed1565b8615156140795761416b565b600093505b8584101561416b576140be876140b28b888881518110151561409c57fe5b602090810290910101519063ffffffff6139c316565b9063ffffffff613b1b16565b60085460018054929350600160a060020a0390911691632454047c913391889081106140e657fe5b60009182526020822001546040805160e060020a63ffffffff8716028152600160a060020a03948516600482015293909116602484015260448301869052606483018d90525160848084019382900301818387803b15801561414757600080fd5b505af115801561415b573d6000803e3d6000fd5b50506001909501945061407e9050565b505050505050505050565b8151600090815b818110156139b85783600160a060020a0316858281518110151561419d57fe5b90602001906020020151600160a060020a031614156141bf5760019250610d56565b60010161417d565b68010000000000000000830284017001000000000000000000000000000000008302017801000000000000000000000000000000000000000000000000820201949350505050565b600080808080614225868863ffffffff6139c316565b94506142318989613bba565b97506000881161428b576040805160e560020a62461bcd02815260206004820152601a60248201527f736574746c656d656e7420616d6f756e74206973207a65726f21000000000000604482015290519081900360640190fd5b614296600086610d17565b6006546040805160e060020a6341976e09028152600160a060020a038d8116600483015291519397509116916341976e09916024808201926020929091908290030181600087803b1580156142ea57600080fd5b505af11580156142fe573d6000803e3d6000fd5b505050506040513d602081101561431457600080fd5b50519250614328858563ffffffff613b5d16565b614338848a63ffffffff6139c316565b10156143b4576040805160e560020a62461bcd02815260206004820152602160248201527f736574746c656d656e7420617373657420697320696e73756666696369656e7460448201527f2100000000000000000000000000000000000000000000000000000000000000606482015290519081900360840190fd5b6143c8856305f5e10063ffffffff613b1b16565b91506143da858463ffffffff613b1b16565b94506143ec848463ffffffff613b1b16565b93506143f88985613dc3565b6144188461440c8a8863ffffffff613e4c16565b9063ffffffff613e4c16565b975060008811156144b057600854604080517f9994eb14000000000000000000000000000000000000000000000000000000008152336004820152600160a060020a038c81166024830152604482018c905291519190921691639994eb1491606480830192600092919082900301818387803b15801561449757600080fd5b505af11580156144ab573d6000803e3d6000fd5b505050505b600760009054906101000a9004600160a060020a0316600160a060020a031663bec3107f6040518163ffffffff1660e060020a028152600401602060405180830381600087803b15801561450357600080fd5b505af1158015614517573d6000803e3d6000fd5b505050506040513d602081101561452d57600080fd5b5051600554604080517f8399d9f3000000000000000000000000000000000000000000000000000000008152336004820152602481018690529051929350600160a060020a0390911691638399d9f39160448082019260009290919082900301818387803b15801561459e57600080fd5b505af11580156145b2573d6000803e3d6000fd5b5050604080518a8152602081018990528082018a90529051849350600160a060020a038d16925033917f09e4fd1b37f40234b903951f986d8b64cb9c99657348f04cda4a75fbe743684d919081900360600190a4505050505050505050565b6146748280548060200260200160405190810160405280929190818152602001828054801561466957602002820191906000526020600020905b8154600160a060020a0316815260019091019060200180831161464b575b505050505082614176565b1515613e48578154600181018355600083815260209020018054600160a060020a03831673ffffffffffffffffffffffffffffffffffffffff199091161790555050565b60008080808080808715156146cc57614885565b600554604080517fc40868930000000000000000000000000000000000000000000000000000000081523360048201528151600160a060020a039093169263c4086893926024808401939192918290030181600087803b15801561472f57600080fd5b505af1158015614743573d6000803e3d6000fd5b505050506040513d604081101561475957600080fd5b508051602090910151909550935084151561477a5760009650869550614885565b6000925060009150848481151561478d57fe5b0490508885106147b1578891506147aa828263ffffffff6139c316565b92506147b8565b8491508392505b878311156147e5576147d0888263ffffffff613b1b16565b91506147e2828263ffffffff6139c316565b92505b600082111561487d57600554604080517fc872e8dc000000000000000000000000000000000000000000000000000000008152336004820152602481018590529051600160a060020a039092169163c872e8dc9160448082019260009290919082900301818387803b15801561485a57600080fd5b505af115801561486e573d6000803e3d6000fd5b50505050818396509650614885565b600096508695505b50505050509250929050565b60008060008060008060006148a4612a16565b94506148b6898663ffffffff6139c316565b935087841115614989576148d0888663ffffffff613b1b16565b92506148e2838663ffffffff6139c316565b600554909250838a039150600160a060020a0316634b91a07b338361490d818a63ffffffff6139c316565b6040518463ffffffff1660e060020a0281526004018084600160a060020a0316600160a060020a031681526020018381526020018281526020019350505050600060405180830381600087803b15801561496657600080fd5b505af115801561497a573d6000803e3d6000fd5b50505050828296509650614885565b50969791965090945050505050565b606080808415156149a857614ac7565b60408051600160a060020a038816815260208101879052815133927fc994feb9b99296d80965b47aec6be0d25704ddf95b9b9bc1ed8bc753960d5809928290030190a26149f6338786614acf565b925092509250826001815181101515614a0b57fe5b90602001906020020151836000815181101515614a2457fe5b60209081029091010151604051610d05907f36bc09f07bcf3d3fa05df7f9c56193487df0507ecd1d5a83845b56b4e6d7b73390600090a4816001815181101515614a6a57fe5b90602001906020020151826000815181101515614a8357fe5b60209081029091010151604051610d05907f36bc09f07bcf3d3fa05df7f9c56193487df0507ecd1d5a83845b56b4e6d7b73390600090a4614ac78686858585615052565b505050505050565b60608060608060608060606000806000614ae88c615515565b96508651604051908082528060200260200182016040528015614b15578160200160208202803883390190505b5095508651604051908082528060200260200182016040528015614b43578160200160208202803883390190505b5094508651604051908082528060200260200182016040528015614b71578160200160208202803883390190505b5093506000925060009150600090505b8651811015614da5576008548751600160a060020a039091169063af830e5190899084908110614bad57fe5b906020019060200201518f6040518363ffffffff1660e060020a0281526004018083600160a060020a0316600160a060020a0316815260200182600160a060020a0316600160a060020a03168152602001925050506040805180830381600087803b158015614c1b57600080fd5b505af1158015614c2f573d6000803e3d6000fd5b505050506040513d6040811015614c4557600080fd5b5080516020909101518751889084908110614c5c57fe5b9060200190602002018784815181101515614c7357fe5b60209081029091010191909152526006548751600160a060020a03909116906341976e0990899084908110614ca457fe5b906020019060200201516040518263ffffffff1660e060020a0281526004018082600160a060020a0316600160a060020a03168152602001915050602060405180830381600087803b158015614cf957600080fd5b505af1158015614d0d573d6000803e3d6000fd5b505050506040513d6020811015614d2357600080fd5b50518451859083908110614d3357fe5b602090810290910101528551614d7890614d6b90889084908110614d5357fe5b90602001906020020151868481518110151561409c57fe5b849063ffffffff613b5d16565b9250614d9b614d8e8683815181101515614d5357fe5b839063ffffffff613b5d16565b9150600101614b81565b8a8310614df4575060005b8651811015614def57614dcf836140b28d898581518110151561409c57fe5b8682815181101515614ddd57fe5b60209081029091010152600101614db0565b614e3c565b50988190039860005b8651811015614e3c57614e1c826140b28d888581518110151561409c57fe5b8582815181101515614e2a57fe5b60209081029091010152600101614dfd565b50939b929a50909850909650505050505050565b600160a060020a0381161515614ed6576040805160e560020a62461bcd02815260206004820152602660248201527f4f776e61626c653a206e6577206f776e657220697320746865207a65726f206160448201527f6464726573730000000000000000000000000000000000000000000000000000606482015290519081900360840190fd5b60008054604051600160a060020a038085169361010090930416917f8be0079c531659141344cd1fd0a4f28419497f9722a3daafe3b4186f6b6457e091a360008054600160a060020a039092166101000274ffffffffffffffffffffffffffffffffffffffff0019909216919091179055565b60008082818511614fdb5760405160e560020a62461bcd0281526004018080602001828103825283818151815260200191508051906020019080838360005b83811015614fa0578181015183820152602001614f88565b50505050905090810190601f168015614fcd5780820380516001836020036101000a031916815260200191505b509250505060405180910390fd5b508385811515614fe757fe5b0495945050505050565b60008082858511156150485760405160e560020a62461bcd02815260040180806020018281038252838181518152602001915080519060200190808383600083811015614fa0578181015183820152602001614f88565b5050509103919050565b6060600060606000806150648a615515565b94508451935083604051908082528060200260200182016040528015615094578160200160208202803883390190505b509250600091505b83821080156150ab5750600089115b15615368576150d988838151811015156150c157fe5b90602001906020020151878481518110151561409c57fe5b90508089101561528f576008548551600160a060020a0390911690635ed74bfd90339088908690811061510857fe5b906020019060200201516151db856140b28f8803600860009054906101000a9004600160a060020a0316600160a060020a031663b4d5a9c7338f8d81518110151561514f57fe5b60209081029091018101516040805160e060020a63ffffffff8716028152600160a060020a039485166004820152939091166024840152516044808401938290030181600087803b1580156151a357600080fd5b505af11580156151b7573d6000803e3d6000fd5b505050506040513d60208110156151cd57600080fd5b50519063ffffffff6139c316565b6040805160e060020a63ffffffff8716028152600160a060020a03948516600482015292909316602483015260448201529051606480830192600092919082900301818387803b15801561522e57600080fd5b505af1158015615242573d6000803e3d6000fd5b5050505061526e868381518110151561525757fe5b602090810290910101518a9063ffffffff613b1b16565b838381518110151561527c57fe5b6020908102909101015260009850615368565b6008548551600160a060020a0390911690635ed74bfd9033908890869081106152b457fe5b602090810290910101516040805160e060020a63ffffffff8616028152600160a060020a039384166004820152929091166024830152600060448301819052905160648084019382900301818387803b15801561531057600080fd5b505af1158015615324573d6000803e3d6000fd5b50505050878281518110151561533657fe5b90602001906020020151838381518110151561534e57fe5b60209081029091010152978890039760019091019061509c565b600089111561541d575060009050805b838210156153c6576153b96153ac878481518110151561539457fe5b90602001906020020151898581518110151561409c57fe5b829063ffffffff613b5d16565b6001909201919050615378565b600091505b8382101561541d576153fa6153ec826140b28c8b8781518110151561409c57fe5b84848151811015156127b857fe5b838381518110151561540857fe5b602090810290910101526001909101906153cb565b600091505b83821015615509576008548551600160a060020a0390911690632454047c90339088908690811061544f57fe5b90602001906020020151868681518110151561546757fe5b9060200190602002015160046040518563ffffffff1660e060020a0281526004018085600160a060020a0316600160a060020a0316815260200184600160a060020a0316600160a060020a03168152602001838152602001828152602001945050505050600060405180830381600087803b1580156154e557600080fd5b505af11580156154f9573d6000803e3d6000fd5b5050600190930192506154229050565b50505050505050505050565b6060806000600180548060200260200160405190810160405280929190818152602001828054801561557057602002820191906000526020600020905b8154600160a060020a03168152600190910190602001808311615552575b5050505050915061558182856155f6565b90508015613a665781600081518110151561559857fe5b9060200190602002015182828151811015156155b057fe5b600160a060020a0390921660209283029091019091015281518490839060009081106155d857fe5b600160a060020a039092166020928302909101909101525092915050565b8151600090815b818110156156435783600160a060020a0316858281518110151561561d57fe5b90602001906020020151600160a060020a0316141561563b57615643565b6001016155fd565b949350505050565b81548183558181111561566f5760008381526020902061566f918101908301615674565b505050565b610ab691905b80821115612ac3576000815560010161567a56004f776e61626c653a2063616c6c6572206973206e6f7420746865206f776e65725468697320636f6e74726163742069732068616c746564000000000000000000a165627a7a72305820e025a26815d36bfbe24dceec4313a73295e67ec0cbb3703c75201a4b11c45a6f00294f776e61626c653a2063616c6c6572206973206e6f7420746865206f776e6572",
  "source": "pragma solidity ^0.4.26;\r\nimport \"./modules/SafeMath.sol\";\r\nimport \"./CollateralCal.sol\";\r\nimport \"./modules/whiteList.sol\";\r\nimport \"./interfaces/IOptionsPrice.sol\";\r\nimport \"./modules/tuple.sol\";\r\ncontract OptionsManagerV2 is CollateralCal,ImportOptionsPrice {\r\n    using SafeMath for uint256;\r\n    constructor (address oracleAddr,address optionsPriceAddr,address optionsPoolAddr,address collateralPoolAddr,address FPTCoinAddr) public{\r\n        setOracleAddress(oracleAddr);\r\n        setOptionsPriceAddress(optionsPriceAddr);\r\n        setOptionsPoolAddress(optionsPoolAddr);\r\n        setFPTCoinAddress(FPTCoinAddr);\r\n        setCollateralPoolAddress(collateralPoolAddr);\r\n    }\r\n    /*\r\n    uint256 maxAmount = 1e30;\r\n    uint256 minAmount = 1e9;\r\n    function getInputAmountRange() public view returns(uint256,uint256) {\r\n        return (minAmount,maxAmount);\r\n    }\r\n    function setInputAmountRange(uint256 _minAmount,uint256 _maxAmount) public onlyOwner{\r\n        minAmount = _minAmount;\r\n        maxAmount = _maxAmount;\r\n    }\r\n    */\r\n    event BuyOption(address indexed from,address indexed settlement,uint256 indexed optionId,uint256 optionPrice,uint256 settlementAmount,uint256 optionAmount);\r\n    event SellOption(address indexed from,uint256 indexed optionId,uint256 amount,uint256 sellValue);\r\n    event ExerciseOption(address indexed from,uint256 indexed optionId,uint256 amount,uint256 sellValue);\r\n    event DebugEvent(uint256 value0,uint256 value1,uint256 value2,uint256 value3);\r\n    function buyOption(address settlement,uint256 settlementAmount, uint256 strikePrice,uint32 underlying,\r\n                uint256 expiration,uint256 amount,uint8 optType) nonReentrant notHalted public payable{\r\n        _optionsPool.buyOptionCheck(expiration,underlying);\r\n        uint256 ty_ly_exp = tuple64.getTuple(uint256(optType),uint256(underlying),uint256(expiration),0);\r\n        uint256 underlyingPrice = _oracle.getUnderlyingPrice(underlying);\r\n        uint256 optionPrice = _optionsPrice.getOptionsPrice(underlyingPrice,strikePrice,expiration,underlying,optType); \r\n        require(getAvailableCollateral()>=calOptionsOccupied(strikePrice,underlyingPrice,amount,optType),\"collateral is insufficient!\");\r\n        _optionsPool.createOptions(msg.sender,settlement,ty_ly_exp,strikePrice,optionPrice,amount);\r\n        buyOption_sub(settlement,settlementAmount,optionPrice,amount);\r\n    }\r\n    function buyOption_sub(address settlement,uint256 settlementAmount,\r\n            uint256 optionPrice,uint256 amount)internal{\r\n        \r\n        uint256 allPay = amount.mul(optionPrice);\r\n        settlementAmount = getPayableAmount(settlement,settlementAmount);\r\n        require(settlementAmount>0 , \"settlement amount is zero!\");\r\n        uint256 fee = calculateFee(buyFee,allPay);\r\n        uint256 settlePrice = _oracle.getPrice(settlement);\r\n        require(settlePrice.mul(settlementAmount)>=allPay.add(fee),\"settlement asset is insufficient!\");\r\n        uint256 allPayUSd = allPay.div(1e8);\r\n        allPay = allPay.div(settlePrice);\r\n        fee = fee.div(settlePrice);\r\n        _addTransactionFee(settlement,fee);\r\n        settlementAmount = settlementAmount.sub(allPay).sub(fee);\r\n        if (settlementAmount > 0){\r\n            _collateralPool.transferPayback(msg.sender,settlement,settlementAmount);\r\n        }\r\n        uint256 id =_optionsPool.getOptionInfoLength();\r\n        _FPTCoin.addMinerBalance(msg.sender,allPayUSd);\r\n        emit BuyOption(msg.sender,settlement,id,optionPrice,allPay,amount); \r\n    }\r\n    function sellOption(uint256 optionsId,uint256 amount) nonReentrant notHalted public{\r\n        require(amount>0 , \"sell amount is zero!\");\r\n        _optionsPool.burnOptions(msg.sender,optionsId,amount);\r\n        (,,uint8 optType,uint32 underlying,uint256 expiration,uint256 strikePrice,) = _optionsPool.getOptionsById(optionsId);\r\n        expiration = expiration.sub(now);\r\n        uint256 currentPrice = _oracle.getUnderlyingPrice(underlying);\r\n        uint256 optPrice = _optionsPrice.getOptionsPrice(currentPrice,strikePrice,expiration,underlying,optType);\r\n        uint256 allPay = optPrice.mul(amount);\r\n        emit SellOption(msg.sender,optionsId,amount,allPay);\r\n        _paybackWorth(allPay,sellFee);\r\n    }\r\n    function exerciseOption(uint256 optionsId,uint256 amount) nonReentrant notHalted public{\r\n        require(amount>0 , \"exercise amount is zero!\");\r\n        uint256 allPay = _optionsPool.getExerciseWorth(optionsId,amount);\r\n        if (allPay == 0) {\r\n            return;\r\n        }\r\n        _optionsPool.burnOptions(msg.sender,optionsId,amount);\r\n        emit ExerciseOption(msg.sender,optionsId,amount,allPay);\r\n        _paybackWorth(allPay,exerciseFee);\r\n    }\r\n\r\n}",
  "sourcePath": "C:\\work\\solidity\\FinnexusOptions_V2\\contracts\\OptionsManagerV2.sol",
  "compiler": {
    "name": "solc",
    "version": "0.4.26+commit.4563c3fc.Emscripten.clang"
  },
  "schemaVersion": "3.1.0",
  "updatedAt": "2020-08-03T07:47:16.905Z",
  "devdoc": {
    "methods": {
      "addWhiteList(address)": {
        "details": "Implementation of add an eligible address into the whitelist.\r",
        "params": {
          "addAddress": "new eligible address.\r"
        }
      },
      "getWhiteList()": {
        "details": "Implementation of getting the eligible whitelist.\r"
      },
      "isEligibleAddress(address)": {
        "details": "Implementation of testing whether the input address is eligible.\r",
        "params": {
          "tmpAddress": "input address for testing.\r"
        }
      },
      "isOwner()": {
        "details": "Returns true if the caller is the current owner."
      },
      "owner()": {
        "details": "Returns the address of the current owner."
      },
      "removeWhiteList(address)": {
        "details": "Implementation of revoke an invalid address from the whitelist.\r",
        "params": {
          "removeAddress": "revoked address.\r"
        }
      },
      "renounceOwnership()": {
        "details": "Leaves the contract without owner. It will not be possible to call `onlyOwner` functions anymore. Can only be called by the current owner.     * NOTE: Renouncing ownership will leave the contract without an owner, thereby removing any functionality that is only available to the owner."
      },
      "setTransactionFee(uint256,uint256,uint256)": {
        "details": "set the rate of trasaction fee.\r",
        "params": {
          "denominator": "thedenominator of transaction fee.\r transaction fee = numerator/denominator;\r",
          "feeType": "the transaction fee type\r",
          "numerator": "the numerator of transaction fee .\r"
        }
      },
      "transferOwnership(address)": {
        "details": "Transfers ownership of the contract to a new account (`newOwner`). Can only be called by the current owner."
      }
    }
  },
  "userdoc": {
    "methods": {
      "setHalt(bool)": {
        "notice": "function Emergency situation that requires contribution period to stop or not."
      }
    }
  }
}