{
  "contractName": "OptionsPriceTest",
  "abi": [
    {
      "constant": true,
      "inputs": [
        {
          "name": "currentPrice",
          "type": "uint256"
        },
        {
          "name": "strikePrice",
          "type": "uint256"
        },
        {
          "name": "expiration",
          "type": "uint256"
        },
        {
          "name": "ivNumerator",
          "type": "uint256"
        },
        {
          "name": "ivDenominator",
          "type": "uint256"
        },
        {
          "name": "optType",
          "type": "uint8"
        }
      ],
      "name": "getOptionsPrice_iv",
      "outputs": [
        {
          "name": "",
          "type": "uint256"
        }
      ],
      "payable": false,
      "stateMutability": "view",
      "type": "function"
    },
    {
      "constant": true,
      "inputs": [
        {
          "name": "currentPrice",
          "type": "uint256"
        },
        {
          "name": "strikePrice",
          "type": "uint256"
        },
        {
          "name": "expiration",
          "type": "uint256"
        },
        {
          "name": "optType",
          "type": "uint8"
        }
      ],
      "name": "getOptionsPrice",
      "outputs": [
        {
          "name": "",
          "type": "uint256"
        }
      ],
      "payable": false,
      "stateMutability": "view",
      "type": "function"
    },
    {
      "constant": false,
      "inputs": [],
      "name": "renounceOwnership",
      "outputs": [],
      "payable": false,
      "stateMutability": "nonpayable",
      "type": "function"
    },
    {
      "constant": true,
      "inputs": [],
      "name": "owner",
      "outputs": [
        {
          "name": "",
          "type": "address"
        }
      ],
      "payable": false,
      "stateMutability": "view",
      "type": "function"
    },
    {
      "constant": true,
      "inputs": [],
      "name": "isOwner",
      "outputs": [
        {
          "name": "",
          "type": "bool"
        }
      ],
      "payable": false,
      "stateMutability": "view",
      "type": "function"
    },
    {
      "constant": false,
      "inputs": [
        {
          "name": "newOwner",
          "type": "address"
        }
      ],
      "name": "transferOwnership",
      "outputs": [],
      "payable": false,
      "stateMutability": "nonpayable",
      "type": "function"
    },
    {
      "anonymous": false,
      "inputs": [
        {
          "indexed": true,
          "name": "previousOwner",
          "type": "address"
        },
        {
          "indexed": true,
          "name": "newOwner",
          "type": "address"
        }
      ],
      "name": "OwnershipTransferred",
      "type": "event"
    },
    {
      "constant": true,
      "inputs": [
        {
          "name": "currentPrice",
          "type": "uint256"
        },
        {
          "name": "strikePrice",
          "type": "uint256"
        },
        {
          "name": "expiration",
          "type": "uint256"
        }
      ],
      "name": "testCalculateD1D2",
      "outputs": [
        {
          "name": "",
          "type": "int256"
        },
        {
          "name": "",
          "type": "int256"
        },
        {
          "name": "",
          "type": "int256"
        },
        {
          "name": "",
          "type": "int256"
        }
      ],
      "payable": false,
      "stateMutability": "view",
      "type": "function"
    },
    {
      "constant": true,
      "inputs": [
        {
          "name": "currentPrice",
          "type": "uint256"
        },
        {
          "name": "strikePrice",
          "type": "uint256"
        },
        {
          "name": "expiration",
          "type": "uint256"
        },
        {
          "name": "ivNumerator",
          "type": "uint256"
        },
        {
          "name": "ivDenominator",
          "type": "uint256"
        }
      ],
      "name": "testCalculateND",
      "outputs": [
        {
          "name": "",
          "type": "int256"
        },
        {
          "name": "",
          "type": "int256"
        },
        {
          "name": "",
          "type": "int256"
        },
        {
          "name": "",
          "type": "int256"
        }
      ],
      "payable": false,
      "stateMutability": "view",
      "type": "function"
    }
  ],
  "bytecode": "0x6301e1338060015560c06040819052600560808190526103e860a081905260039190915560045560008054600160a060020a0319163317808255600160a060020a0316917f8be0079c531659141344cd1fd0a4f28419497f9722a3daafe3b4186f6b6457e0908290a3611789806100776000396000f30060806040526004361061008d5763ffffffff7c0100000000000000000000000000000000000000000000000000000000600035041663055ef6ab81146100925780631bd25fd8146100ce5780632f581f4814610112578063715018a6146101365780637c523fb51461014d5780638da5cb5b146101715780638f32d59b146101a2578063f2fde38b146101cb575b600080fd5b34801561009e57600080fd5b506100bc60043560243560443560643560843560ff60a435166101ec565b60408051918252519081900360200190f35b3480156100da57600080fd5b506100ec600435602435604435610275565b604080519485526020850193909352838301919091526060830152519081900360800190f35b34801561011e57600080fd5b506100bc60043560243560443560ff6064351661039a565b34801561014257600080fd5b5061014b6104c9565b005b34801561015957600080fd5b506100ec600435602435604435606435608435610595565b34801561017d57600080fd5b5061018661062c565b60408051600160a060020a039092168252519081900360200190f35b3480156101ae57600080fd5b506101b761063b565b604080519115158252519081900360200190f35b3480156101d757600080fd5b5061014b600160a060020a036004351661064c565b60006101f6611717565b50604080518082019091528481526020810184905260ff8316151561024357604080518082019091526003548152600454602082015261023c90899089908990856106cd565b915061026a565b604080518082019091526003548152600454602082015261023c90899089908990856107c7565b509695505050505050565b600080600080600080610286611717565b61028e611717565b610296611717565b600254604080517fad1bb833000000000000000000000000000000000000000000000000000000008152600481018d9052602481018e90528151600160a060020a039093169263ad1bb833926044808401939192918290030181600087803b15801561030157600080fd5b505af1158015610315573d6000803e3d6000fd5b505050506040513d604081101561032b57600080fd5b50805160209182015160408051808201825283815280850183905281518083019092526003548252600454948201949094529197509550909350610375908d908d908d90876108dc565b815160209283015182519290930151909f929e50909c509a5098505050505050505050565b60008060006103a7611717565b600254604080517fad1bb83300000000000000000000000000000000000000000000000000000000815260048101899052602481018a90528151600160a060020a039093169263ad1bb833926044808401939192918290030181600087803b15801561041257600080fd5b505af1158015610426573d6000803e3d6000fd5b505050506040513d604081101561043c57600080fd5b508051602091820151604080518082019091528281529283018190529094509250905060ff8516151561049757604080518082019091526003548152600454602082015261049090899089908990856106cd565b93506104be565b604080518082019091526003548152600454602082015261049090899089908990856107c7565b505050949350505050565b6104d161063b565b151561053e57604080517f08c379a000000000000000000000000000000000000000000000000000000000815260206004820181905260248201527f4f776e61626c653a2063616c6c6572206973206e6f7420746865206f776e6572604482015290519081900360640190fd5b60008054604051600160a060020a03909116907f8be0079c531659141344cd1fd0a4f28419497f9722a3daafe3b4186f6b6457e0908390a36000805473ffffffffffffffffffffffffffffffffffffffff19169055565b6000806000806105a3611717565b6105ab611717565b6105b3611717565b6040805180820182528a815260208082018b9052825180840190935260035483526004549083015293506105ed908d908d908d90876108dc565b915091506105fa82610a27565b5090508061060781610a27565b825160209384015182519290940151909e939d50909b50995090975050505050505050565b600054600160a060020a031690565b600054600160a060020a0316331490565b61065461063b565b15156106c157604080517f08c379a000000000000000000000000000000000000000000000000000000000815260206004820181905260248201527f4f776e61626c653a2063616c6c6572206973206e6f7420746865206f776e6572604482015290519081900360640190fd5b6106ca81610cb2565b50565b60006106d7611717565b6106df611717565b6106e7611717565b6106ef611717565b6106fc8a8a8a8a8a6108dc565b9350935061070984610a27565b935061071483610a27565b92506107358460408051908101604052808d81526020016001815250610c89565b93506107568360408051908101604052808c81526020016001815250610c89565b92506107788760408051908101604052808b8152602001600154815250610c89565b915061078b61078683610db7565b610e3e565b91506107978383610c89565b90506107a38482610e64565b9050806020015181600001518115156107b857fe5b059a9950505050505050505050565b60006107d1611717565b6107d9611717565b6107e1611717565b6107e9611717565b6107f68a8a8a8a8a6108dc565b9350935061080384610a27565b935061080e83610a27565b9250610830604080519081016040528060018152602001600181525085610e64565b9350610852604080519081016040528060018152602001600181525084610e64565b92506108738460408051908101604052808d81526020016001815250610c89565b93506108948360408051908101604052808c81526020016001815250610c89565b92506108b68760408051908101604052808b8152602001600154815250610c89565b91506108c461078683610db7565b91506108d08383610c89565b90506107a38185610e64565b6108e4611717565b6108ec611717565b6108f4611717565b6108fc611717565b610904611717565b61090c611717565b610914611717565b61091c611717565b60408051808201909152600081526001602082015295508c8c1461095d576109438d610e86565b945061094e8c610e86565b935061095a8585610e64565b95505b610967898a610c89565b9250610989836040805190810160405280600181526020016002815250610c89565b9250610995838b610ec0565b92506109b78360408051908101604052808e8152602001600154815250610c89565b92506109c38684610ec0565b95506109fb6109f560408051908101604052808e6402540be4000281526020016001546402540be40002815250610ee2565b8a610c89565b9150610a078683610f3b565b9550610a138683610e64565b959d959c50949a5050505050505050505050565b610a2f611717565b6000610a39611717565b610a4161172e565b610a49611717565b610a51611717565b610a59611717565b610a61611717565b610a69611717565b6000610a748b610f5d565b98508815610a8857610a858b610f70565b9a505b60408051808201825262235883815262989680602080830191909152825160e0810184526301e7566960a082019081526305f5e10060c0830152815283518085018552631540bb45198152633b9aca008184018190528284019190915284518086018652636a2f323181528084018290528286015284518086018652636c8e292919815280840182905260608301528451808601909552634f4a607d855291840191909152608081019290925298509650610b438b89610c89565b9550610b65866040805190810160405280600181526020016001815250610ec0565b9550610b7086610e3e565b95506040805190810160405280680229a4c508a92ae7d1815260200168056bc75e2d631000008152509450610ba58b8c610c89565b9350610bc884604080519081016040528060001981526020016002815250610c89565b9350610bd384610db7565b9350610bdf8585610c89565b935060408051908101604052806000815260200160018152509250859150600090505b6005811015610c4457610c2e83610c29898460058110610c1e57fe5b602002015185610c89565b610ec0565b9250610c3a8287610c89565b9150600101610c02565b610c4e8484610c89565b9350881515610c7a57610c77604080519081016040528060018152602001600181525085610e64565b93505b50919998505050505050505050565b610c91611717565b610cab610c9d84610fa7565b610ca684610fa7565b61104d565b9392505050565b600160a060020a0381161515610d4f57604080517f08c379a000000000000000000000000000000000000000000000000000000000815260206004820152602660248201527f4f776e61626c653a206e6577206f776e657220697320746865207a65726f206160448201527f6464726573730000000000000000000000000000000000000000000000000000606482015290519081900360840190fd5b60008054604051600160a060020a03808516939216917f8be0079c531659141344cd1fd0a4f28419497f9722a3daafe3b4186f6b6457e091a36000805473ffffffffffffffffffffffffffffffffffffffff1916600160a060020a0392909216919091179055565b610dbf611717565b6000610dc9611717565b610dd284610f5d565b91508115610de657610de384610f70565b93505b835164010000000002845260408051808201909152602085015185518291610e1791811515610e1157fe5b0561107b565b815264010000000060209091015290508115610cab57610e3681610e3e565b949350505050565b610e46611717565b50604080518082019091526020808301518252825190820152919050565b610e6c611717565b610cab610e7884610fa7565b610e8184610fa7565b61109b565b610e8e611717565b604080518082019091526401000000009092029180610eac846110d7565b815264010000000060209091015292915050565b610ec8611717565b610cab610ed484610fa7565b610edd84610fa7565b61110e565b610eea611717565b8151600013801590610f0157506000826020015112155b1515610f0957fe5b6040805190810160405280610f218460000151611147565b8152602001610f338460200151611147565b905292915050565b610f43611717565b610cab610f4f84610fa7565b610f5884610fa7565b611182565b6020810151905160009182139113141590565b610f78611717565b815160001315610f8a57815160000382525b600082602001511215610fa35760208201805160000390525b5090565b610faf611717565b6000806000610fc185600001516111b0565b9250610fd085602001516111b0565b915082821315611018576c8fffffffffffffffffffffffff821315611013576c8fffffffffffffffffffffffff825b05905061100c85826111c6565b9350611045565b611041565b6c8fffffffffffffffffffffffff831315611041576c8fffffffffffffffffffffffff83610fff565b8493505b505050919050565b611055611717565b506040805180820190915281518351028152602091820151928201519092029082015290565b600064386bfdba2982111561108c57fe5b61109582611207565b92915050565b6110a3611717565b5060408051808201909152602080840180518451858401805188519290930291909202038452519051029082015292915050565b6000806401000000008310156110e957fe5b6110f28361168f565b67010000000000000066b17217f7d1cf78909102049392505050565b611116611717565b5060408051808201909152602080840180518451858401805188510291909202018452519051029082015292915050565b80600260018201045b8181101561117c57809150600281828581151561116957fe5b040181151561117457fe5b049050611150565b50919050565b61118a611717565b506040805180820190915260208281015184510282529151928201519092029082015290565b60008082126111bf5781611095565b5060000390565b6111ce611717565b60408051908101604052808385600001518115156111e857fe5b0581526020018385602001518115156111fd57fe5b0590529392505050565b6000806000602060ff1660019060020a029150816fde1bc4d19efcac82445da75b00000000029050602060ff168483029060020a90049150816fde1bc4d19efcb00000000000000000000281019050602060ff168483029060020a90049150816f6f0de268cf7e580000000000000000000281019050602060ff168483029060020a90049150816f2504a0cd9a7f720000000000000000000281019050602060ff168483029060020a90049150816f09412833669fdc8000000000000000000281019050602060ff168483029060020a90049150816f01d9d4d714865f5000000000000000000281019050602060ff168483029060020a90049150816e4ef8ce836bba8c00000000000000000281019050602060ff168483029060020a90049150816e0b481d807d1aa680000000000000000281019050602060ff168483029060020a90049150816e016903b00fa354d0000000000000000281019050602060ff168483029060020a90049150816d281cdaac677b34000000000000000281019050602060ff168483029060020a90049150816d0402e2aad725eb800000000000000281019050602060ff168483029060020a90049150816c5d5a6c9f31fe240000000000000281019050602060ff168483029060020a90049150816c07c7890d442a830000000000000281019050602060ff168483029060020a90049150816b9931ed5403452800000000000281019050602060ff168483029060020a90049150816b0af147cf24ce1500000000000281019050602060ff168483029060020a90049150816abac08546b867d0000000000281019050602060ff168483029060020a90049150816a0bac08546b867d000000000281019050602060ff168483029060020a900491508169afc441338061b80000000281019050602060ff168483029060020a90049150816909c3cabbc0056e0000000281019050602060ff168483029060020a900491508168839168328705c800000281019050602060ff168483029060020a9004915081680694120286c04a00000281019050602060ff168483029060020a90049150816750319e98b3d2c4000281019050602060ff168483029060020a90049150816703a52a1e36b820200281019050602060ff168483029060020a900491508166289286e0fce0020281019050602060ff168483029060020a90049150816601b0c59eb534000281019050602060ff168483029060020a900491508165114f95b554000281019050602060ff168483029060020a900491508164aa7210d2000281019050602060ff168483029060020a90049150816406501396000281019050602060ff168483029060020a90049150816339b78e800281019050602060ff168483029060020a90049150816301fd80800281019050602060ff168483029060020a90049150816210fbc00281019050602060ff168483029060020a9004915081618c400281019050602060ff168483029060020a90049150816104620281019050602060ff168483029060020a9004915081602202810190506fde1bc4d19efcac82445da75b000000008181151561168657fe5b04949350505050565b600080806401000000008410156116a257fe5b600091505b64020000000084106116c95760029093049264010000000091909101906116a7565b5060005b602060ff82161015611710576401000000008480020493506402000000008410611708576002938490049360ff601f83900316900a91909101905b6001016116cd565b5092915050565b604080518082019091526000808252602082015290565b610140604051908101604052806005905b611747611717565b81526020019060019003908161173f57905050905600a165627a7a72305820f4a2aacd2b28916afe1b87b354923bba8faaa6a4ede6966f0764c1ab99cccad90029",
  "source": "pragma solidity ^0.4.26;\r\n\r\nimport \"./optionsPrice.sol\";\r\ncontract OptionsPriceTest is OptionsPrice{\r\n    function testCalculateD1D2(uint256 currentPrice, uint256 strikePrice, uint256 expiration)\r\n        public view returns(int256,int256,int256,int256){\r\n        (uint256 ivNumerator,uint256 ivDenominator) = volatility.calculateIv(expiration,strikePrice);\r\n        Fraction.fractionNumber memory _iv = Fraction.fractionNumber(int256(ivNumerator),int256(ivDenominator));\r\n        (Fraction.fractionNumber memory d1, Fraction.fractionNumber memory d2) = calculateD1D2(currentPrice,strikePrice,expiration,rate,_iv);\r\n        return (d1.numerator,d1.denominator,d2.numerator,d2.denominator);\r\n    }\r\n    function testCalculateND(uint256 currentPrice, uint256 strikePrice, uint256 expiration,uint256 ivNumerator,uint256 ivDenominator)\r\n        public view returns(int256,int256,int256,int256){\r\n        Fraction.fractionNumber memory _iv = Fraction.fractionNumber(int256(ivNumerator),int256(ivDenominator));\r\n       (Fraction.fractionNumber memory d1, Fraction.fractionNumber memory d2) = calculateD1D2(currentPrice, strikePrice, expiration, rate, _iv);\r\n        d1 = Fraction.normsDist(d1);\r\n        d1 = d2;\r\n        d2 = Fraction.normsDist(d2);\r\n        return(d1.numerator,d1.denominator,d2.numerator,d2.denominator);\r\n        d1 = Fraction.safeFractionMul(d1, Fraction.fractionNumber(int256(currentPrice),1));\r\n        d2 = Fraction.safeFractionMul(d2, Fraction.fractionNumber(int256(strikePrice),1));\r\n//        Fraction.fractionNumber memory rt = Fraction.safeFractionMul(rate,Fraction.fractionNumber(int256(expiration),int256(Year)));\r\n//        d2 = Fraction.safeFractionMul(d2,Fraction.invert(Fraction.fractionExp(rt)));\r\n//        d1 = Fraction.safeFractionSub(d1, d2);\r\n        return(d1.numerator,d1.denominator,d2.numerator,d2.denominator);\r\n//        return uint256(price.numerator/price.denominator);\r\n    }\r\n}",
  "sourcePath": "C:\\work\\solidity\\FinnexusOptions_V2\\contracts\\optionsPriceTest.sol",
  "compiler": {
    "name": "solc",
    "version": "0.4.26+commit.4563c3fc.Emscripten.clang"
  },
  "schemaVersion": "3.1.0",
  "updatedAt": "2020-07-20T13:46:56.910Z",
  "devdoc": {
    "methods": {
      "isOwner()": {
        "details": "Returns true if the caller is the current owner."
      },
      "owner()": {
        "details": "Returns the address of the current owner."
      },
      "renounceOwnership()": {
        "details": "Leaves the contract without owner. It will not be possible to call `onlyOwner` functions anymore. Can only be called by the current owner.     * NOTE: Renouncing ownership will leave the contract without an owner, thereby removing any functionality that is only available to the owner."
      },
      "transferOwnership(address)": {
        "details": "Transfers ownership of the contract to a new account (`newOwner`). Can only be called by the current owner."
      }
    }
  },
  "userdoc": {
    "methods": {}
  }
}