{
  "contractName": "OptionsManagerV2",
  "abi": [
    {
      "inputs": [
        {
          "internalType": "address",
          "name": "oracleAddr",
          "type": "address"
        },
        {
          "internalType": "address",
          "name": "optionsPriceAddr",
          "type": "address"
        },
        {
          "internalType": "address",
          "name": "optionsPoolAddr",
          "type": "address"
        },
        {
          "internalType": "address",
          "name": "collateralPoolAddr",
          "type": "address"
        },
        {
          "internalType": "address",
          "name": "FPTCoinAddr",
          "type": "address"
        }
      ],
      "payable": false,
      "stateMutability": "nonpayable",
      "type": "constructor"
    },
    {
      "anonymous": false,
      "inputs": [
        {
          "indexed": true,
          "internalType": "address",
          "name": "from",
          "type": "address"
        },
        {
          "indexed": true,
          "internalType": "address",
          "name": "collateral",
          "type": "address"
        },
        {
          "indexed": false,
          "internalType": "uint256",
          "name": "amount",
          "type": "uint256"
        },
        {
          "indexed": false,
          "internalType": "uint256",
          "name": "tokenAmount",
          "type": "uint256"
        }
      ],
      "name": "AddCollateral",
      "type": "event"
    },
    {
      "anonymous": false,
      "inputs": [
        {
          "indexed": true,
          "internalType": "address",
          "name": "from",
          "type": "address"
        },
        {
          "indexed": true,
          "internalType": "address",
          "name": "settlement",
          "type": "address"
        },
        {
          "indexed": true,
          "internalType": "uint256",
          "name": "optionId",
          "type": "uint256"
        },
        {
          "indexed": false,
          "internalType": "uint256",
          "name": "optionPrice",
          "type": "uint256"
        },
        {
          "indexed": false,
          "internalType": "uint256",
          "name": "settlementAmount",
          "type": "uint256"
        },
        {
          "indexed": false,
          "internalType": "uint256",
          "name": "optionAmount",
          "type": "uint256"
        }
      ],
      "name": "BuyOption",
      "type": "event"
    },
    {
      "anonymous": false,
      "inputs": [
        {
          "indexed": false,
          "internalType": "uint256",
          "name": "id",
          "type": "uint256"
        },
        {
          "indexed": false,
          "internalType": "uint256",
          "name": "gas",
          "type": "uint256"
        }
      ],
      "name": "DebugEvent",
      "type": "event"
    },
    {
      "anonymous": false,
      "inputs": [
        {
          "indexed": true,
          "internalType": "address",
          "name": "from",
          "type": "address"
        },
        {
          "indexed": true,
          "internalType": "uint256",
          "name": "optionId",
          "type": "uint256"
        },
        {
          "indexed": false,
          "internalType": "uint256",
          "name": "amount",
          "type": "uint256"
        },
        {
          "indexed": false,
          "internalType": "uint256",
          "name": "sellValue",
          "type": "uint256"
        }
      ],
      "name": "ExerciseOption",
      "type": "event"
    },
    {
      "anonymous": false,
      "inputs": [
        {
          "indexed": true,
          "internalType": "address",
          "name": "previousOwner",
          "type": "address"
        },
        {
          "indexed": true,
          "internalType": "address",
          "name": "newOwner",
          "type": "address"
        }
      ],
      "name": "OwnershipTransferred",
      "type": "event"
    },
    {
      "anonymous": false,
      "inputs": [
        {
          "indexed": true,
          "internalType": "address",
          "name": "from",
          "type": "address"
        },
        {
          "indexed": false,
          "internalType": "address",
          "name": "collateral",
          "type": "address"
        },
        {
          "indexed": false,
          "internalType": "uint256",
          "name": "allRedeem",
          "type": "uint256"
        }
      ],
      "name": "RedeemCollateral",
      "type": "event"
    },
    {
      "anonymous": false,
      "inputs": [
        {
          "indexed": true,
          "internalType": "address",
          "name": "from",
          "type": "address"
        },
        {
          "indexed": true,
          "internalType": "uint256",
          "name": "optionId",
          "type": "uint256"
        },
        {
          "indexed": false,
          "internalType": "uint256",
          "name": "amount",
          "type": "uint256"
        },
        {
          "indexed": false,
          "internalType": "uint256",
          "name": "sellValue",
          "type": "uint256"
        }
      ],
      "name": "SellOption",
      "type": "event"
    },
    {
      "constant": false,
      "inputs": [
        {
          "internalType": "address",
          "name": "collateral",
          "type": "address"
        },
        {
          "internalType": "uint256",
          "name": "amount",
          "type": "uint256"
        }
      ],
      "name": "addCollateral",
      "outputs": [],
      "payable": true,
      "stateMutability": "payable",
      "type": "function"
    },
    {
      "constant": false,
      "inputs": [
        {
          "internalType": "address",
          "name": "addAddress",
          "type": "address"
        }
      ],
      "name": "addWhiteList",
      "outputs": [],
      "payable": false,
      "stateMutability": "nonpayable",
      "type": "function"
    },
    {
      "constant": true,
      "inputs": [
        {
          "internalType": "address",
          "name": "spender",
          "type": "address"
        }
      ],
      "name": "allowance",
      "outputs": [
        {
          "internalType": "uint256",
          "name": "",
          "type": "uint256"
        }
      ],
      "payable": false,
      "stateMutability": "view",
      "type": "function"
    },
    {
      "constant": false,
      "inputs": [
        {
          "internalType": "address",
          "name": "spender",
          "type": "address"
        },
        {
          "internalType": "uint256",
          "name": "amount",
          "type": "uint256"
        }
      ],
      "name": "approve",
      "outputs": [],
      "payable": false,
      "stateMutability": "nonpayable",
      "type": "function"
    },
    {
      "constant": true,
      "inputs": [
        {
          "internalType": "address",
          "name": "account",
          "type": "address"
        }
      ],
      "name": "calCollateralWorth",
      "outputs": [
        {
          "internalType": "uint256[]",
          "name": "",
          "type": "uint256[]"
        }
      ],
      "payable": false,
      "stateMutability": "view",
      "type": "function"
    },
    {
      "constant": true,
      "inputs": [
        {
          "internalType": "uint256",
          "name": "strikePrice",
          "type": "uint256"
        },
        {
          "internalType": "uint256",
          "name": "underlyingPrice",
          "type": "uint256"
        },
        {
          "internalType": "uint256",
          "name": "amount",
          "type": "uint256"
        },
        {
          "internalType": "uint8",
          "name": "optType",
          "type": "uint8"
        }
      ],
      "name": "calOptionsOccupied",
      "outputs": [
        {
          "internalType": "uint256",
          "name": "",
          "type": "uint256"
        }
      ],
      "payable": false,
      "stateMutability": "view",
      "type": "function"
    },
    {
      "constant": true,
      "inputs": [],
      "name": "calculateCollateralRate",
      "outputs": [
        {
          "internalType": "uint256",
          "name": "",
          "type": "uint256"
        }
      ],
      "payable": false,
      "stateMutability": "view",
      "type": "function"
    },
    {
      "constant": true,
      "inputs": [
        {
          "internalType": "address",
          "name": "tmpAddress",
          "type": "address"
        },
        {
          "internalType": "uint256",
          "name": "state",
          "type": "uint256"
        }
      ],
      "name": "checkAddressPermission",
      "outputs": [
        {
          "internalType": "bool",
          "name": "",
          "type": "bool"
        }
      ],
      "payable": false,
      "stateMutability": "view",
      "type": "function"
    },
    {
      "constant": true,
      "inputs": [
        {
          "internalType": "address",
          "name": "spender",
          "type": "address"
        },
        {
          "internalType": "uint256",
          "name": "amount",
          "type": "uint256"
        }
      ],
      "name": "checkAllowance",
      "outputs": [
        {
          "internalType": "bool",
          "name": "",
          "type": "bool"
        }
      ],
      "payable": false,
      "stateMutability": "view",
      "type": "function"
    },
    {
      "constant": true,
      "inputs": [],
      "name": "getAvailableCollateral",
      "outputs": [
        {
          "internalType": "uint256",
          "name": "",
          "type": "uint256"
        }
      ],
      "payable": false,
      "stateMutability": "view",
      "type": "function"
    },
    {
      "constant": true,
      "inputs": [],
      "name": "getCollateralPoolAddress",
      "outputs": [
        {
          "internalType": "address",
          "name": "",
          "type": "address"
        }
      ],
      "payable": false,
      "stateMutability": "view",
      "type": "function"
    },
    {
      "constant": true,
      "inputs": [
        {
          "internalType": "address",
          "name": "collateral",
          "type": "address"
        }
      ],
      "name": "getCollateralRate",
      "outputs": [
        {
          "internalType": "uint256",
          "name": "",
          "type": "uint256"
        }
      ],
      "payable": false,
      "stateMutability": "view",
      "type": "function"
    },
    {
      "constant": true,
      "inputs": [],
      "name": "getFPTCoinAddress",
      "outputs": [
        {
          "internalType": "address",
          "name": "",
          "type": "address"
        }
      ],
      "payable": false,
      "stateMutability": "view",
      "type": "function"
    },
    {
      "constant": true,
      "inputs": [],
      "name": "getInputAmountRange",
      "outputs": [
        {
          "internalType": "uint256",
          "name": "",
          "type": "uint256"
        },
        {
          "internalType": "uint256",
          "name": "",
          "type": "uint256"
        }
      ],
      "payable": false,
      "stateMutability": "view",
      "type": "function"
    },
    {
      "constant": true,
      "inputs": [],
      "name": "getLeftCollateral",
      "outputs": [
        {
          "internalType": "uint256",
          "name": "",
          "type": "uint256"
        }
      ],
      "payable": false,
      "stateMutability": "view",
      "type": "function"
    },
    {
      "constant": true,
      "inputs": [
        {
          "internalType": "address",
          "name": "settlement",
          "type": "address"
        }
      ],
      "name": "getNetWorthBalance",
      "outputs": [
        {
          "internalType": "uint256",
          "name": "",
          "type": "uint256"
        }
      ],
      "payable": false,
      "stateMutability": "view",
      "type": "function"
    },
    {
      "constant": true,
      "inputs": [],
      "name": "getOccupiedCollateral",
      "outputs": [
        {
          "internalType": "uint256",
          "name": "",
          "type": "uint256"
        }
      ],
      "payable": false,
      "stateMutability": "view",
      "type": "function"
    },
    {
      "constant": true,
      "inputs": [],
      "name": "getOptionsPoolAddress",
      "outputs": [
        {
          "internalType": "address",
          "name": "",
          "type": "address"
        }
      ],
      "payable": false,
      "stateMutability": "view",
      "type": "function"
    },
    {
      "constant": true,
      "inputs": [],
      "name": "getOptionsPriceAddress",
      "outputs": [
        {
          "internalType": "address",
          "name": "",
          "type": "address"
        }
      ],
      "payable": false,
      "stateMutability": "view",
      "type": "function"
    },
    {
      "constant": true,
      "inputs": [],
      "name": "getOracleAddress",
      "outputs": [
        {
          "internalType": "address",
          "name": "",
          "type": "address"
        }
      ],
      "payable": false,
      "stateMutability": "view",
      "type": "function"
    },
    {
      "constant": true,
      "inputs": [
        {
          "internalType": "address",
          "name": "settlement",
          "type": "address"
        }
      ],
      "name": "getRealBalance",
      "outputs": [
        {
          "internalType": "int256",
          "name": "",
          "type": "int256"
        }
      ],
      "payable": false,
      "stateMutability": "view",
      "type": "function"
    },
    {
      "constant": true,
      "inputs": [],
      "name": "getTokenNetworth",
      "outputs": [
        {
          "internalType": "uint256",
          "name": "",
          "type": "uint256"
        }
      ],
      "payable": false,
      "stateMutability": "view",
      "type": "function"
    },
    {
      "constant": true,
      "inputs": [],
      "name": "getTotalCollateral",
      "outputs": [
        {
          "internalType": "uint256",
          "name": "",
          "type": "uint256"
        }
      ],
      "payable": false,
      "stateMutability": "view",
      "type": "function"
    },
    {
      "constant": true,
      "inputs": [],
      "name": "getUnlockedCollateral",
      "outputs": [
        {
          "internalType": "uint256",
          "name": "",
          "type": "uint256"
        }
      ],
      "payable": false,
      "stateMutability": "view",
      "type": "function"
    },
    {
      "constant": true,
      "inputs": [
        {
          "internalType": "address",
          "name": "user",
          "type": "address"
        }
      ],
      "name": "getUserPayingUsd",
      "outputs": [
        {
          "internalType": "uint256",
          "name": "",
          "type": "uint256"
        }
      ],
      "payable": false,
      "stateMutability": "view",
      "type": "function"
    },
    {
      "constant": true,
      "inputs": [
        {
          "internalType": "address",
          "name": "account",
          "type": "address"
        }
      ],
      "name": "getUserTotalWorth",
      "outputs": [
        {
          "internalType": "uint256",
          "name": "",
          "type": "uint256"
        }
      ],
      "payable": false,
      "stateMutability": "view",
      "type": "function"
    },
    {
      "constant": true,
      "inputs": [],
      "name": "getWhiteList",
      "outputs": [
        {
          "internalType": "address[]",
          "name": "",
          "type": "address[]"
        }
      ],
      "payable": false,
      "stateMutability": "view",
      "type": "function"
    },
    {
      "constant": true,
      "inputs": [
        {
          "internalType": "address",
          "name": "tmpAddress",
          "type": "address"
        }
      ],
      "name": "isEligibleAddress",
      "outputs": [
        {
          "internalType": "bool",
          "name": "",
          "type": "bool"
        }
      ],
      "payable": false,
      "stateMutability": "view",
      "type": "function"
    },
    {
      "constant": true,
      "inputs": [
        {
          "internalType": "uint256",
          "name": "Amount",
          "type": "uint256"
        }
      ],
      "name": "isInputAmountInRange",
      "outputs": [
        {
          "internalType": "bool",
          "name": "",
          "type": "bool"
        }
      ],
      "payable": false,
      "stateMutability": "view",
      "type": "function"
    },
    {
      "constant": true,
      "inputs": [],
      "name": "isOwner",
      "outputs": [
        {
          "internalType": "bool",
          "name": "",
          "type": "bool"
        }
      ],
      "payable": false,
      "stateMutability": "view",
      "type": "function"
    },
    {
      "constant": false,
      "inputs": [
        {
          "internalType": "address",
          "name": "addAddress",
          "type": "address"
        },
        {
          "internalType": "uint256",
          "name": "permission",
          "type": "uint256"
        }
      ],
      "name": "modifyPermission",
      "outputs": [],
      "payable": false,
      "stateMutability": "nonpayable",
      "type": "function"
    },
    {
      "constant": true,
      "inputs": [],
      "name": "owner",
      "outputs": [
        {
          "internalType": "address",
          "name": "",
          "type": "address"
        }
      ],
      "payable": false,
      "stateMutability": "view",
      "type": "function"
    },
    {
      "constant": false,
      "inputs": [
        {
          "internalType": "uint256",
          "name": "tokenAmount",
          "type": "uint256"
        },
        {
          "internalType": "address",
          "name": "collateral",
          "type": "address"
        }
      ],
      "name": "redeemCollateral",
      "outputs": [],
      "payable": false,
      "stateMutability": "nonpayable",
      "type": "function"
    },
    {
      "constant": false,
      "inputs": [
        {
          "internalType": "address",
          "name": "removeAddress",
          "type": "address"
        }
      ],
      "name": "removeWhiteList",
      "outputs": [
        {
          "internalType": "bool",
          "name": "",
          "type": "bool"
        }
      ],
      "payable": false,
      "stateMutability": "nonpayable",
      "type": "function"
    },
    {
      "constant": false,
      "inputs": [],
      "name": "renounceOwnership",
      "outputs": [],
      "payable": false,
      "stateMutability": "nonpayable",
      "type": "function"
    },
    {
      "constant": false,
      "inputs": [
        {
          "internalType": "address",
          "name": "collateralPool",
          "type": "address"
        }
      ],
      "name": "setCollateralPoolAddress",
      "outputs": [],
      "payable": false,
      "stateMutability": "nonpayable",
      "type": "function"
    },
    {
      "constant": false,
      "inputs": [
        {
          "internalType": "address",
          "name": "collateral",
          "type": "address"
        },
        {
          "internalType": "uint256",
          "name": "colRate",
          "type": "uint256"
        }
      ],
      "name": "setCollateralRate",
      "outputs": [],
      "payable": false,
      "stateMutability": "nonpayable",
      "type": "function"
    },
    {
      "constant": false,
      "inputs": [
        {
          "internalType": "address",
          "name": "FPTCoinAddr",
          "type": "address"
        }
      ],
      "name": "setFPTCoinAddress",
      "outputs": [],
      "payable": false,
      "stateMutability": "nonpayable",
      "type": "function"
    },
    {
      "constant": false,
      "inputs": [
        {
          "internalType": "bool",
          "name": "halt",
          "type": "bool"
        }
      ],
      "name": "setHalt",
      "outputs": [],
      "payable": false,
      "stateMutability": "nonpayable",
      "type": "function"
    },
    {
      "constant": false,
      "inputs": [
        {
          "internalType": "uint256",
          "name": "_minAmount",
          "type": "uint256"
        },
        {
          "internalType": "uint256",
          "name": "_maxAmount",
          "type": "uint256"
        }
      ],
      "name": "setInputAmountRange",
      "outputs": [],
      "payable": false,
      "stateMutability": "nonpayable",
      "type": "function"
    },
    {
      "constant": false,
      "inputs": [
        {
          "internalType": "address",
          "name": "optionsPool",
          "type": "address"
        }
      ],
      "name": "setOptionsPoolAddress",
      "outputs": [],
      "payable": false,
      "stateMutability": "nonpayable",
      "type": "function"
    },
    {
      "constant": false,
      "inputs": [
        {
          "internalType": "address",
          "name": "optionsPrice",
          "type": "address"
        }
      ],
      "name": "setOptionsPriceAddress",
      "outputs": [],
      "payable": false,
      "stateMutability": "nonpayable",
      "type": "function"
    },
    {
      "constant": false,
      "inputs": [
        {
          "internalType": "address",
          "name": "oracle",
          "type": "address"
        }
      ],
      "name": "setOracleAddress",
      "outputs": [],
      "payable": false,
      "stateMutability": "nonpayable",
      "type": "function"
    },
    {
      "constant": false,
      "inputs": [
        {
          "internalType": "bool",
          "name": "_bValid",
          "type": "bool"
        }
      ],
      "name": "setValid",
      "outputs": [],
      "payable": false,
      "stateMutability": "nonpayable",
      "type": "function"
    },
    {
      "constant": false,
      "inputs": [
        {
          "internalType": "address",
          "name": "newOwner",
          "type": "address"
        }
      ],
      "name": "transferOwnership",
      "outputs": [],
      "payable": false,
      "stateMutability": "nonpayable",
      "type": "function"
    },
    {
      "constant": true,
      "inputs": [
        {
          "internalType": "address",
          "name": "user",
          "type": "address"
        },
        {
          "internalType": "address",
          "name": "collateral",
          "type": "address"
        }
      ],
      "name": "userInputCollateral",
      "outputs": [
        {
          "internalType": "uint256",
          "name": "",
          "type": "uint256"
        }
      ],
      "payable": false,
      "stateMutability": "view",
      "type": "function"
    },
    {
      "constant": false,
      "inputs": [],
      "name": "initialize",
      "outputs": [],
      "payable": false,
      "stateMutability": "nonpayable",
      "type": "function"
    },
    {
      "constant": false,
      "inputs": [],
      "name": "update",
      "outputs": [],
      "payable": false,
      "stateMutability": "nonpayable",
      "type": "function"
    },
    {
      "constant": true,
      "inputs": [],
      "name": "getPriceRateRange",
      "outputs": [
        {
          "internalType": "uint256",
          "name": "",
          "type": "uint256"
        },
        {
          "internalType": "uint256",
          "name": "",
          "type": "uint256"
        }
      ],
      "payable": false,
      "stateMutability": "view",
      "type": "function"
    },
    {
      "constant": false,
      "inputs": [
        {
          "internalType": "uint256",
          "name": "_minPriceRate",
          "type": "uint256"
        },
        {
          "internalType": "uint256",
          "name": "_maxPriceRate",
          "type": "uint256"
        }
      ],
      "name": "setPriceRateRange",
      "outputs": [],
      "payable": false,
      "stateMutability": "nonpayable",
      "type": "function"
    },
    {
      "constant": false,
      "inputs": [
        {
          "internalType": "address",
          "name": "settlement",
          "type": "address"
        },
        {
          "internalType": "uint256",
          "name": "settlementAmount",
          "type": "uint256"
        },
        {
          "internalType": "uint256",
          "name": "strikePrice",
          "type": "uint256"
        },
        {
          "internalType": "uint32",
          "name": "underlying",
          "type": "uint32"
        },
        {
          "internalType": "uint256",
          "name": "expiration",
          "type": "uint256"
        },
        {
          "internalType": "uint256",
          "name": "amount",
          "type": "uint256"
        },
        {
          "internalType": "uint8",
          "name": "optType",
          "type": "uint8"
        }
      ],
      "name": "buyOption",
      "outputs": [],
      "payable": true,
      "stateMutability": "payable",
      "type": "function"
    },
    {
      "constant": false,
      "inputs": [
        {
          "internalType": "uint256",
          "name": "optionsId",
          "type": "uint256"
        },
        {
          "internalType": "uint256",
          "name": "amount",
          "type": "uint256"
        }
      ],
      "name": "sellOption",
      "outputs": [],
      "payable": false,
      "stateMutability": "nonpayable",
      "type": "function"
    },
    {
      "constant": false,
      "inputs": [
        {
          "internalType": "uint256",
          "name": "optionsId",
          "type": "uint256"
        },
        {
          "internalType": "uint256",
          "name": "amount",
          "type": "uint256"
        }
      ],
      "name": "exerciseOption",
      "outputs": [],
      "payable": false,
      "stateMutability": "nonpayable",
      "type": "function"
    },
    {
      "constant": false,
      "inputs": [
        {
          "internalType": "uint256",
          "name": "underlyingPrice",
          "type": "uint256"
        },
        {
          "internalType": "uint256",
          "name": "strikePrice",
          "type": "uint256"
        },
        {
          "internalType": "uint256",
          "name": "expiration",
          "type": "uint256"
        },
        {
          "internalType": "uint32",
          "name": "underlying",
          "type": "uint32"
        },
        {
          "internalType": "uint256",
          "name": "amount",
          "type": "uint256"
        },
        {
          "internalType": "uint8",
          "name": "optType",
          "type": "uint8"
        }
      ],
      "name": "getOptionsPrice",
      "outputs": [
        {
          "internalType": "uint256",
          "name": "",
          "type": "uint256"
        }
      ],
      "payable": false,
      "stateMutability": "nonpayable",
      "type": "function"
    }
  ],
  "bytecode": "0x60806040526000805460ff199081169091556c0c9f2c9cd04674edea40000000600190815560646002556003805483169055600780549092161790556105dc600d556101f4600e5534801561005357600080fd5b50604051620055d4380380620055d4833981810160405260a081101561007857600080fd5b508051602082015160408084015160608501516080909501516000805461010033810261010060a860020a03199092169190911780835594519697959693959492939204600160a060020a0316917f8be0079c531659141344cd1fd0a4f28419497f9722a3daafe3b4186f6b6457e0908290a360088054600160a060020a03968716600160a060020a031991821617909155600b8054958716958216959095179094556009805493861693851693909317909255600a8054918516919093161790915560078054919092166101000261010060a860020a031990911617905561546d80620001676000396000f3fe6080604052600436106103395760003560e060020a900480638f32d59b116101af578063c5e5a3ed116100fb578063e7122ffd11610099578063f2fde38b11610073578063f2fde38b14610bdf578063f495438714610c12578063f4fdc0c214610c3e578063fb1052bf14610c7757610339565b8063e7122ffd14610b28578063e7cd4a0414610b5b578063ef828b9114610b8e57610339565b8063d6eb5910116100d5578063d6eb591014610ad4578063d7e5799214610ae9578063dab5512914610afe578063e28a327d14610b1357610339565b8063c5e5a3ed14610a7a578063cd40581914610a8f578063d189290414610aa457610339565b8063a56ea40311610168578063b4d5a9c711610142578063b4d5a9c7146109dc578063bc9abed214610a17578063c040725a14610a2c578063c219043b14610a4157610339565b8063a56ea40314610966578063aec6280614610999578063b18b78dd146109c757610339565b80638f32d59b14610862578063925c482c146108775780639ab91a35146108ca578063a093e2d0146108fa578063a20a80451461092d578063a2e62045146107db57610339565b80634c69c00f11610289578063715018a6116102275780638129fc1c116102015780638129fc1c146107db578063813b5d4b146107f0578063817bf86d1461081a5780638da5cb5b1461084d57610339565b8063715018a61461076357806377e071ad146107785780637c9c6712146107ab57610339565b80635ca4b73b116102635780635ca4b73b146106c35780636b6ecea8146106d85780636c64edee1461070b5780636d75b9ee1461073757610339565b80634c69c00f146106275780634cbf63021461065a5780635bf5d8971461069357610339565b80632042e5c2116102f65780633daba0d7116102d05780633daba0d7146105555780633e5beab91461058e57806342049a72146105c1578063447dbeac146105f457610339565b80632042e5c21461049e578063251e2fe3146104e557806332c82a5f1461051657610339565b8063095ea7b31461033e57806309a9d76c146103795780630aaf3832146103de5780630c80d691146104055780631730b3cb146104385780631a5a3fce1461046b575b600080fd5b34801561034a57600080fd5b506103776004803603604081101561036157600080fd5b50600160a060020a038135169060200135610c8c565b005b34801561038557600080fd5b5061038e610cf2565b60408051602080825283518183015283519192839290830191858101910280838360005b838110156103ca5781810151838201526020016103b2565b505050509050019250505060405180910390f35b3480156103ea57600080fd5b506103f3610d55565b60408051918252519081900360200190f35b34801561041157600080fd5b506103f36004803603602081101561042857600080fd5b5035600160a060020a0316610d74565b34801561044457600080fd5b506103776004803603602081101561045b57600080fd5b5035600160a060020a0316610e10565b34801561047757600080fd5b506103776004803603602081101561048e57600080fd5b5035600160a060020a0316610e89565b3480156104aa57600080fd5b506104d1600480360360208110156104c157600080fd5b5035600160a060020a0316610f02565b604080519115158252519081900360200190f35b3480156104f157600080fd5b506104fa610f7e565b60408051600160a060020a039092168252519081900360200190f35b34801561052257600080fd5b506103f36004803603608081101561053957600080fd5b508035906020810135906040810135906060013560ff16610f8d565b34801561056157600080fd5b506104d16004803603604081101561057857600080fd5b50600160a060020a038135169060200135610fbf565b34801561059a57600080fd5b506103f3600480360360208110156105b157600080fd5b5035600160a060020a0316610ff3565b3480156105cd57600080fd5b506103f3600480360360208110156105e457600080fd5b5035600160a060020a031661100e565b34801561060057600080fd5b506103f36004803603602081101561061757600080fd5b5035600160a060020a0316611078565b34801561063357600080fd5b506103776004803603602081101561064a57600080fd5b5035600160a060020a03166111b9565b34801561066657600080fd5b506104d16004803603604081101561067d57600080fd5b50600160a060020a038135169060200135611232565b34801561069f57600080fd5b50610377600480360360408110156106b657600080fd5b5080359060200135611253565b3480156106cf57600080fd5b506104fa6112a8565b3480156106e457600080fd5b506103f3600480360360208110156106fb57600080fd5b5035600160a060020a03166112b7565b34801561071757600080fd5b506103776004803603602081101561072e57600080fd5b50351515611321565b6103776004803603604081101561074d57600080fd5b50600160a060020a03813516906020013561137e565b34801561076f57600080fd5b506103776118ac565b34801561078457600080fd5b506103f36004803603602081101561079b57600080fd5b5035600160a060020a0316611952565b3480156107b757600080fd5b50610377600480360360408110156107ce57600080fd5b508035906020013561196d565b3480156107e757600080fd5b50610377611ec9565b3480156107fc57600080fd5b506104d16004803603602081101561081357600080fd5b5035611f15565b34801561082657600080fd5b506104d16004803603602081101561083d57600080fd5b5035600160a060020a0316611f2d565b34801561085957600080fd5b506104fa611f9c565b34801561086e57600080fd5b506104d1611fb0565b610377600480360360e081101561088d57600080fd5b508035600160a060020a031690602081013590604081013590606081013563ffffffff169060808101359060a08101359060c0013560ff16611fc6565b3480156108d657600080fd5b50610377600480360360408110156108ed57600080fd5b508035906020013561232a565b34801561090657600080fd5b506103776004803603602081101561091d57600080fd5b5035600160a060020a031661237f565b34801561093957600080fd5b506103776004803603604081101561095057600080fd5b5080359060200135600160a060020a03166123f8565b34801561097257600080fd5b5061038e6004803603602081101561098957600080fd5b5035600160a060020a0316612843565b3480156109a557600080fd5b506109ae612931565b6040805192835260208301919091528051918290030190f35b3480156109d357600080fd5b506104fa61293b565b3480156109e857600080fd5b506103f3600480360360408110156109ff57600080fd5b50600160a060020a038135811691602001351661294a565b348015610a2357600080fd5b506109ae6129ef565b348015610a3857600080fd5b506104fa6129f9565b348015610a4d57600080fd5b5061037760048036036040811015610a6457600080fd5b50600160a060020a038135169060200135612a08565b348015610a8657600080fd5b506103f3612a6e565b348015610a9b57600080fd5b506103f3612b2f565b348015610ab057600080fd5b5061037760048036036040811015610ac757600080fd5b5080359060200135612bc0565b348015610ae057600080fd5b506103f361302d565b348015610af557600080fd5b506104fa613152565b348015610b0a57600080fd5b506103f3613166565b348015610b1f57600080fd5b506103f36131f5565b348015610b3457600080fd5b5061037760048036036020811015610b4b57600080fd5b5035600160a060020a0316613202565b348015610b6757600080fd5b5061037760048036036020811015610b7e57600080fd5b5035600160a060020a0316613281565b348015610b9a57600080fd5b506103f3600480360360c0811015610bb157600080fd5b50803590602081013590604081013590606081013563ffffffff169060808101359060a0013560ff166132fc565b348015610beb57600080fd5b5061037760048036036020811015610c0257600080fd5b5035600160a060020a031661376f565b348015610c1e57600080fd5b5061037760048036036020811015610c3557600080fd5b503515156137c5565b348015610c4a57600080fd5b5061037760048036036040811015610c6157600080fd5b50600160a060020a038135169060200135613822565b348015610c8357600080fd5b506103f3613891565b610c94611fb0565b610cd6576040805160e560020a62461bcd0281526020600482018190526024820152600080516020615367833981519152604482015290519081900360640190fd5b600160a060020a03909116600090815260066020526040902055565b60606004805480602002602001604051908101604052809291908181526020018280548015610d4a57602002820191906000526020600020905b8154600160a060020a03168152600190910190602001808311610d2c575b505050505090505b90565b6000610d6f610d6261302d565b610d6a612b2f565b61398b565b905090565b600a54604080517f0c80d691000000000000000000000000000000000000000000000000000000008152600160a060020a03848116600483015291516000939290921691630c80d69191602480820192602092909190829003018186803b158015610dde57600080fd5b505afa158015610df2573d6000803e3d6000fd5b505050506040513d6020811015610e0857600080fd5b505192915050565b610e18611fb0565b610e5a576040805160e560020a62461bcd0281526020600482018190526024820152600080516020615367833981519152604482015290519081900360640190fd5b600a805473ffffffffffffffffffffffffffffffffffffffff1916600160a060020a0392909216919091179055565b610e91611fb0565b610ed3576040805160e560020a62461bcd0281526020600482018190526024820152600080516020615367833981519152604482015290519081900360640190fd5b6009805473ffffffffffffffffffffffffffffffffffffffff1916600160a060020a0392909216919091179055565b6000610f0c611fb0565b610f4e576040805160e560020a62461bcd0281526020600482018190526024820152600080516020615367833981519152604482015290519081900360640190fd5b600160a060020a038216600090815260056020526040812055610f7860048363ffffffff6139a116565b92915050565b600a54600160a060020a031690565b60008060ff8316158587111415610fa75750848302610fac565b508383025b610fb581613a8f565b9695505050505050565b60075460009060ff161580610fec5750600160a060020a0383166000908152600660205260409020548211155b9392505050565b600160a060020a031660009081526006602052604090205490565b600a54604080517f42049a72000000000000000000000000000000000000000000000000000000008152600160a060020a038481166004830152915160009392909216916342049a7291602480820192602092909190829003018186803b158015610dde57600080fd5b600754604080517f07e77aa0000000000000000000000000000000000000000000000000000000008152600160a060020a0384811660048301529151600093610f789361010090910416916307e77aa0916024808301926020929190829003018186803b1580156110e857600080fd5b505afa1580156110fc573d6000803e3d6000fd5b505050506040513d602081101561111257600080fd5b50516007546040805160e060020a6370a08231028152600160a060020a03878116600483015291516111ad936101009004909216916370a0823191602480820192602092909190829003018186803b15801561116d57600080fd5b505afa158015611181573d6000803e3d6000fd5b505050506040513d602081101561119757600080fd5b50516111a1612a6e565b9063ffffffff613aac16565b9063ffffffff613b0516565b6111c1611fb0565b611203576040805160e560020a62461bcd0281526020600482018190526024820152600080516020615367833981519152604482015290519081900360640190fd5b6008805473ffffffffffffffffffffffffffffffffffffffff1916600160a060020a0392909216919091179055565b600160a060020a039190911660009081526005602052604090205481161490565b61125b611fb0565b61129d576040805160e560020a62461bcd0281526020600482018190526024820152600080516020615367833981519152604482015290519081900360640190fd5b600e91909155600d55565b600b54600160a060020a031690565b600a54604080517f6b6ecea8000000000000000000000000000000000000000000000000000000008152600160a060020a03848116600483015291516000939290921691636b6ecea891602480820192602092909190829003018186803b158015610dde57600080fd5b611329611fb0565b61136b576040805160e560020a62461bcd0281526020600482018190526024820152600080516020615367833981519152604482015290519081900360640190fd5b6007805460ff1916911515919091179055565b60005460ff161561138e57600080fd5b6000805460ff1916600117905560035460ff16156113e4576040805160e560020a62461bcd0281526020600482015260176024820152600080516020615419833981519152604482015290519081900360640190fd5b6113ee8282613b60565b600a54604080517fc3c579cc000000000000000000000000000000000000000000000000000000008152600160a060020a03868116600483015260248201859052600360448301529151939450600093919092169163c3c579cc91606480830192602092919082900301818787803b15801561146957600080fd5b505af115801561147d573d6000803e3d6000fd5b505050506040513d602081101561149357600080fd5b50519182900391905060006114a784613ef0565b600a54604080517f42049a72000000000000000000000000000000000000000000000000000000008152336004820181905291519394508685029361155a936305f5e100928692600160a060020a03909216916342049a7291602480820192602092909190829003018186803b15801561152057600080fd5b505afa158015611534573d6000803e3d6000fd5b505050506040513d602081101561154a57600080fd5b5051018161155457fe5b04610fbf565b6115985760405160e560020a62461bcd02815260040180806020018281038252602e8152602001806153eb602e913960400191505060405180910390fd5b60006115a2612a6e565b82816115aa57fe5b600a54604080517f692a76a7000000000000000000000000000000000000000000000000000000008152336004820152602481018790529051939092049350600160a060020a03169163692a76a79160448082019260009290919082900301818387803b15801561161a57600080fd5b505af115801561162e573d6000803e3d6000fd5b5050600a54604080517f2b2d50c3000000000000000000000000000000000000000000000000000000008152600160a060020a038b81166004830152602482018b90529151919092169350632b2d50c39250604480830192600092919082900301818387803b1580156116a057600080fd5b505af11580156116b4573d6000803e3d6000fd5b5050600a54604080517fd56dbe88000000000000000000000000000000000000000000000000000000008152336004820152600160a060020a038b81166024830152604482018b9052915191909216935063d56dbe889250606480830192600092919082900301818387803b15801561172c57600080fd5b505af1158015611740573d6000803e3d6000fd5b5050600a54604080517ffee80a49000000000000000000000000000000000000000000000000000000008152600160a060020a038b81166004830152602482018b9052915191909216935063fee80a499250604480830192600092919082900301818387803b1580156117b257600080fd5b505af11580156117c6573d6000803e3d6000fd5b505060408051888152602081018590528151600160a060020a038b1694503393507f33a089d94f9a0b7d0fe21e69b40d7dbe1965be652c7382cc778d46963db8c49b929181900390910190a3600754604080517f40c10f19000000000000000000000000000000000000000000000000000000008152336004820152602481018490529051610100909204600160a060020a0316916340c10f199160448082019260009290919082900301818387803b15801561188257600080fd5b505af1158015611896573d6000803e3d6000fd5b50506000805460ff191690555050505050505050565b6118b4611fb0565b6118f6576040805160e560020a62461bcd0281526020600482018190526024820152600080516020615367833981519152604482015290519081900360640190fd5b60008054604051610100909104600160a060020a0316907f8be0079c531659141344cd1fd0a4f28419497f9722a3daafe3b4186f6b6457e0908390a36000805474ffffffffffffffffffffffffffffffffffffffff0019169055565b600160a060020a03166000908152600c602052604090205490565b60005460ff161561197d57600080fd5b6000805460ff1916600117905560035460ff16156119d3576040805160e560020a62461bcd0281526020600482015260176024820152600080516020615419833981519152604482015290519081900360640190fd5b8080600154101580156119e857508060025411155b611a265760405160e560020a62461bcd0281526004018080602001828103825260298152602001806152fc6029913960400191505060405180910390fd5b600954604080517f67b8ceb900000000000000000000000000000000000000000000000000000000815260048101869052602481018590529051600092600160a060020a0316916367b8ceb9916044808301926020929190829003018186803b158015611a9257600080fd5b505afa158015611aa6573d6000803e3d6000fd5b505050506040513d6020811015611abc57600080fd5b5051905080611b15576040805160e560020a62461bcd02815260206004820152601b60248201527f54686973206f7074696f6e2063616e6e6f742065786572636973650000000000604482015290519081900360640190fd5b600954604080517f48ee201d000000000000000000000000000000000000000000000000000000008152600481018790529051600092839283928392600160a060020a0316916348ee201d9160248083019260e0929190829003018186803b158015611b8057600080fd5b505afa158015611b94573d6000803e3d6000fd5b505050506040513d60e0811015611baa57600080fd5b5060408101516060820151608083015160a09093015191965094509092509050611bda824263ffffffff613fad16565b91506000611bed8463ffffffff16614008565b600b54604080517f4b7d8e5c00000000000000000000000000000000000000000000000000000000815260048101849052602481018690526044810187905263ffffffff8816606482015260ff891660848201529051929350600092600160a060020a0390921691634b7d8e5c9160a480820192602092909190829003018186803b158015611c7b57600080fd5b505afa158015611c8f573d6000803e3d6000fd5b505050506040513d6020811015611ca557600080fd5b5051600954604080517f6ed82ec9000000000000000000000000000000000000000000000000000000008152336004820152602481018e9052604481018d9052606481018490529051929350600160a060020a0390911691636ed82ec99160848082019260009290919082900301818387803b158015611d2457600080fd5b505af1158015611d38573d6000803e3d6000fd5b5050600954604080517f597ce900000000000000000000000000000000000000000000000000000000008152600481018f9052602481018e9052815160009550859450600160a060020a039093169263597ce90092604480840193919291829003018186803b158015611daa57600080fd5b505afa158015611dbe573d6000803e3d6000fd5b505050506040513d6040811015611dd457600080fd5b508051602090910151600a54604080517ffee80a49000000000000000000000000000000000000000000000000000000008152600160a060020a038086166004830152602482018590529151949650929450169163fee80a499160448082019260009290919082900301818387803b158015611e4f57600080fd5b505af1158015611e63573d6000803e3d6000fd5b50505050611e72896002614072565b604080518c8152602081018b905281518e9233927fc939d87d6a5458cd262393bdb2c5408330b7647ca14b752229b0301858a29972929081900390910190a350506000805460ff1916905550505050505050505050565b611ed1611fb0565b611f13576040805160e560020a62461bcd0281526020600482018190526024820152600080516020615367833981519152604482015290519081900360640190fd5b565b60008160015410158015610f78575050600254111590565b6000610f78826004805480602002602001604051908101604052809291908181526020018280548015611f8957602002820191906000526020600020905b8154600160a060020a03168152600190910190602001808311611f6b575b505050505061429b90919063ffffffff16565b6000546101009004600160a060020a031690565b6000546101009004600160a060020a0316331490565b60005460ff1615611fd657600080fd5b6000805460ff1916600117905560035460ff161561202c576040805160e560020a62461bcd0281526020600482015260176024820152600080516020615419833981519152604482015290519081900360640190fd5b81806001541015801561204157508060025411155b61207f5760405160e560020a62461bcd0281526004018080602001828103825260298152602001806152fc6029913960400191505060405180910390fd5b6000805160206153aa83398151915260015a6040805192835260208301919091528051918290030190a1600954604080517f3ad2fb570000000000000000000000000000000000000000000000000000000081526004810187905263ffffffff881660248201529051600160a060020a0390921691633ad2fb5791604480820192600092909190829003018186803b15801561211a57600080fd5b505afa15801561212e573d6000803e3d6000fd5b505050506000805160206153aa83398151915260015a6040805192835260208301919091528051918290030190a160006121748360ff168763ffffffff168760006142ea565b905060006121878763ffffffff16614008565b90506000805160206153aa83398151915260015a6040805192835260208301919091528051918290030190a16121bd8882614332565b60006121cb828a88886143a2565b90506000805160206153aa83398151915260015a6040805192835260208301919091528051918290030190a1600954604080517f924a69ce000000000000000000000000000000000000000000000000000000008152336004820152600160a060020a038e8116602483015260448201879052606482018d90526084820185905260a482018a90529151600093929092169163924a69ce9160c48082019260209290919082900301818787803b15801561228457600080fd5b505af1158015612298573d6000803e3d6000fd5b505050506040513d60208110156122ae57600080fd5b505190506000805160206153aa83398151915260015a6040805192835260208301919091528051918290030190a16122e88c8c838a6145bf565b6000805160206153aa83398151915260015a6040805192835260208301919091528051918290030190a150506000805460ff1916905550505050505050505050565b612332611fb0565b612374576040805160e560020a62461bcd0281526020600482018190526024820152600080516020615367833981519152604482015290519081900360640190fd5b600291909155600155565b612387611fb0565b6123c9576040805160e560020a62461bcd0281526020600482018190526024820152600080516020615367833981519152604482015290519081900360640190fd5b600b805473ffffffffffffffffffffffffffffffffffffffff1916600160a060020a0392909216919091179055565b60005460ff161561240857600080fd5b6000805460ff1916600117905560035460ff161561245e576040805160e560020a62461bcd0281526020600482015260176024820152600080516020615419833981519152604482015290519081900360640190fd5b81806001541015801561247357508060025411155b6124b15760405160e560020a62461bcd0281526004018080602001828103825260298152602001806152fc6029913960400191505060405180910390fd5b6124bc826010611232565b612510576040805160e560020a62461bcd02815260206004820152601f60248201527f736574746c656d656e7420697320756e737570706f7274656420746f6b656e00604482015290519081900360640190fd5b600754604080517f5935573600000000000000000000000000000000000000000000000000000000815233600482015290516000926101009004600160a060020a0316916359355736916024808301926020929190829003018186803b15801561257957600080fd5b505afa15801561258d573d6000803e3d6000fd5b505050506040513d60208110156125a357600080fd5b50516007546040805160e060020a6370a082310281523360048201529051929350869284926101009004600160a060020a0316916370a08231916024808301926020929190829003018186803b1580156125fc57600080fd5b505afa158015612610573d6000803e3d6000fd5b505050506040513d602081101561262657600080fd5b505101101561267f576040805160e560020a62461bcd02815260206004820152601e60248201527f53436f696e2062616c616e636520697320696e73756666696369656e74210000604482015290519081900360640190fd5b600061268a33611078565b90506000612696610d55565b600754604080517f35f0c4fa000000000000000000000000000000000000000000000000000000008152336004820152602481018a905260448101849052815193945060009384936101009004600160a060020a0316926335f0c4fa926064808201939182900301818787803b15801561270f57600080fd5b505af1158015612723573d6000803e3d6000fd5b505050506040513d604081101561273957600080fd5b508051602090910151980397600092509050871561279557918290039184156127715784881161276a57600061276e565b8488035b97505b60008061277e8a8661486a565b909250905081156127925781935080830192505b50505b6127a0878286614949565b811561282f57600754604080517f9dc29fac000000000000000000000000000000000000000000000000000000008152336004820152602481018590529051610100909204600160a060020a031691639dc29fac9160448082019260009290919082900301818387803b15801561281657600080fd5b505af115801561282a573d6000803e3d6000fd5b505050505b50506000805460ff19169055505050505050565b6060600061285083611078565b90506060806128ba858460048054806020026020016040519081016040528092919081815260200182805480156128b057602002820191906000526020600020905b8154600160a060020a03168152600190910190602001808311612892575b5050505050614b6b565b50600454919350915060005b81811015612926576129078382815181106128dd57fe5b60200260200101518583815181106128f157fe5b6020026020010151613b0590919063ffffffff16565b84828151811061291357fe5b60209081029190910101526001016128c6565b509195945050505050565b600e54600d549091565b600854600160a060020a031690565b600a54604080517f6ba170b5000000000000000000000000000000000000000000000000000000008152600160a060020a038581166004830152848116602483015291516000939290921691636ba170b591604480820192602092909190829003018186803b1580156129bc57600080fd5b505afa1580156129d0573d6000803e3d6000fd5b505050506040513d60208110156129e657600080fd5b50519392505050565b6002546001549091565b600954600160a060020a031690565b612a10611fb0565b612a52576040805160e560020a62461bcd0281526020600482018190526024820152600080516020615367833981519152604482015290519081900360640190fd5b600160a060020a03909116600090815260056020526040902055565b600080600760019054906101000a9004600160a060020a0316600160a060020a03166318160ddd6040518163ffffffff1660e060020a02815260040160206040518083038186803b158015612ac257600080fd5b505afa158015612ad6573d6000803e3d6000fd5b505050506040513d6020811015612aec57600080fd5b5051905080612b02576305f5e100915050610d52565b600081612b0d613166565b81612b1457fe5b04905060648111612b26576064612b28565b805b9250505090565b600080600960009054906101000a9004600160a060020a0316600160a060020a03166373a3d4246040518163ffffffff1660e060020a02815260040160206040518083038186803b158015612b8357600080fd5b505afa158015612b97573d6000803e3d6000fd5b505050506040513d6020811015612bad57600080fd5b50519050612bba81613a8f565b91505090565b60005460ff1615612bd057600080fd5b6000805460ff1916600117905560035460ff1615612c26576040805160e560020a62461bcd0281526020600482015260176024820152600080516020615419833981519152604482015290519081900360640190fd5b808060015410158015612c3b57508060025411155b612c795760405160e560020a62461bcd0281526004018080602001828103825260298152602001806152fc6029913960400191505060405180910390fd5b600954604080517f48ee201d000000000000000000000000000000000000000000000000000000008152600481018690529051600092839283928392600160a060020a0316916348ee201d9160248083019260e0929190829003018186803b158015612ce457600080fd5b505afa158015612cf8573d6000803e3d6000fd5b505050506040513d60e0811015612d0e57600080fd5b5060408101516060820151608083015160a09093015191965094509092509050612d3e824263ffffffff613fad16565b91506000612d518463ffffffff16614008565b600b54604080517f4b7d8e5c00000000000000000000000000000000000000000000000000000000815260048101849052602481018690526044810187905263ffffffff8816606482015260ff891660848201529051929350600092600160a060020a0390921691634b7d8e5c9160a480820192602092909190829003018186803b158015612ddf57600080fd5b505afa158015612df3573d6000803e3d6000fd5b505050506040513d6020811015612e0957600080fd5b5051600954604080517f6ed82ec9000000000000000000000000000000000000000000000000000000008152336004820152602481018d9052604481018c9052606481018490529051929350600160a060020a0390911691636ed82ec99160848082019260009290919082900301818387803b158015612e8857600080fd5b505af1158015612e9c573d6000803e3d6000fd5b5050600954604080517f597ce900000000000000000000000000000000000000000000000000000000008152600481018e9052602481018d90528151868e029550600094508493600160a060020a03169263597ce9009260448082019391829003018186803b158015612f0e57600080fd5b505afa158015612f22573d6000803e3d6000fd5b505050506040513d6040811015612f3857600080fd5b508051602090910151600a54604080517ffee80a49000000000000000000000000000000000000000000000000000000008152600160a060020a038086166004830152602482018590529151949650929450169163fee80a499160448082019260009290919082900301818387803b158015612fb357600080fd5b505af1158015612fc7573d6000803e3d6000fd5b50505050612fd6836001614072565b604080518c81526020810185905281518e9233927f4d6194525a1265d47b1d6b65f640509c7a2a8aa847fd0654fac933032e1348ac929081900390910190a350506000805460ff1916905550505050505050505050565b6004546000908190815b8181101561313b5760006004828154811061304e57fe5b6000918252602082200154600160a060020a0316915061306d82613ef0565b600a54604080517f0c80d691000000000000000000000000000000000000000000000000000000008152600160a060020a03868116600483015291519394506000939190921691630c80d691916024808301926020929190829003018186803b1580156130d957600080fd5b505afa1580156130ed573d6000803e3d6000fd5b505050506040513d602081101561310357600080fd5b5051905080156131305761312d613120838363ffffffff614f1f16565b879063ffffffff614f7816565b95505b505050600101613037565b50600082121561314c576000612b28565b50919050565b6007546101009004600160a060020a031690565b6000610d6f61317361302d565b600760019054906101000a9004600160a060020a0316600160a060020a031663dad3eb746040518163ffffffff1660e060020a02815260040160206040518083038186803b1580156131c457600080fd5b505afa1580156131d8573d6000803e3d6000fd5b505050506040513d60208110156131ee57600080fd5b505161398b565b6000610d6f610d62613166565b61320a611fb0565b61324c576040805160e560020a62461bcd0281526020600482018190526024820152600080516020615367833981519152604482015290519081900360640190fd5b60078054600160a060020a039092166101000274ffffffffffffffffffffffffffffffffffffffff0019909216919091179055565b613289611fb0565b6132cb576040805160e560020a62461bcd0281526020600482018190526024820152600080516020615367833981519152604482015290519081900360640190fd5b6132dc60048263ffffffff614fd916565b600160a060020a0316600090815260056020526040902063ffffffff9055565b60008061330b87898686610f8d565b90506000805160206153aa833981519152600b5a6040805192835260208301919091528051918290030190a1806133406131f5565b1015613396576040805160e560020a62461bcd02815260206004820152601b60248201527f636f6c6c61746572616c20697320696e73756666696369656e74210000000000604482015290519081900360640190fd5b6000805160206153aa833981519152600b5a6040805192835260208301919091528051918290030190a1600b54604080517f4b7d8e5c000000000000000000000000000000000000000000000000000000008152600481018b9052602481018a90526044810189905263ffffffff8816606482015260ff861660848201529051600092600160a060020a031691634b7d8e5c9160a4808301926020929190829003018186803b15801561344857600080fd5b505afa15801561345c573d6000803e3d6000fd5b505050506040513d602081101561347257600080fd5b505190506000805160206153aa833981519152600b5a6040805192835260208301919091528051918290030190a1600060ff85161561352d57600960009054906101000a9004600160a060020a0316600160a060020a031663aef890be6040518163ffffffff1660e060020a02815260040160206040518083038186803b1580156134fc57600080fd5b505afa158015613510573d6000803e3d6000fd5b505050506040513d602081101561352657600080fd5b50516135ab565b600960009054906101000a9004600160a060020a0316600160a060020a0316633e77dfd96040518163ffffffff1660e060020a02815260040160206040518083038186803b15801561357e57600080fd5b505afa158015613592573d6000803e3d6000fd5b505050506040513d60208110156135a857600080fd5b50515b90506000805160206153aa833981519152600b5a6040805192835260208301919091528051918290030190a1826135e182613a8f565b0190506000805160206153aa833981519152600b5a6040805192835260208301919091528051918290030190a1600083613619612b2f565b0190506000805160206153aa833981519152600b5a6040805192835260208301919091528051918290030190a16000613650613166565b90506000805160206153aa833981519152600b5a6040805192835260208301919091528051918290030190a1600b54604080517ff22f254300000000000000000000000000000000000000000000000000000000815260048101869052602481018590526044810184905281516000938493600160a060020a039091169263f22f25439260648083019392829003018186803b1580156136ef57600080fd5b505afa158015613703573d6000803e3d6000fd5b505050506040513d604081101561371957600080fd5b50805160209091015190925090506000805160206153aa833981519152600b5a6040805192835260208301919091528051918290030190a1808287028161375c57fe5b049e9d5050505050505050505050505050565b613777611fb0565b6137b9576040805160e560020a62461bcd0281526020600482018190526024820152600080516020615367833981519152604482015290519081900360640190fd5b6137c28161507e565b50565b6137cd611fb0565b61380f576040805160e560020a62461bcd0281526020600482018190526024820152600080516020615367833981519152604482015290519081900360640190fd5b6003805460ff1916911515919091179055565b61382a611fb0565b61386c576040805160e560020a62461bcd0281526020600482018190526024820152600080516020615367833981519152604482015290519081900360640190fd5b61387582613281565b600160a060020a039091166000908152600c6020526040902055565b60045460009081908190815b81811015613962576000600482815481106138b457fe5b6000918252602082200154600160a060020a031691506138d3826112b7565b90506000811180156138fc5750600160a060020a0382166000908152600c602052604090205415155b15613958578061390b83613ef0565b02905061391e868263ffffffff613b0516565b600160a060020a0383166000908152600c602052604090205490965061395590828161394657fe5b8791900463ffffffff613b0516565b94505b505060010161389d565b821561397d5782848161397157fe5b04945050505050610d52565b611388945050505050610d52565b600081831161399b576000610fec565b50900390565b8154600090815b818110156139ee5783600160a060020a03168582815481106139c657fe5b600091825260209091200154600160a060020a031614156139e6576139ee565b6001016139a8565b81811015613a8457600182038114613a6857846001830381548110613a0f57fe5b9060005260206000200160009054906101000a9004600160a060020a0316858281548110613a3957fe5b9060005260206000200160006101000a815481600160a060020a030219169083600160a060020a031602179055505b8454613a78866000198301615275565b50600192505050610f78565b506000949350505050565b60006103e882613a9d613891565b0281613aa557fe5b0492915050565b6000811580613ac757505080820282828281613ac457fe5b04145b610f785760405160e560020a62461bcd0281526004018080602001828103825260218152602001806153466021913960400191505060405180910390fd5b80820182811015610f78576040805160e560020a62461bcd02815260206004820152601b60248201527f536166654d6174683a206164646974696f6e206f766572666c6f770000000000604482015290519081900360640190fd5b6000613b6d836001611232565b613bc1576040805160e560020a62461bcd02815260206004820152601f60248201527f736574746c656d656e7420697320756e737570706f7274656420746f6b656e00604482015290519081900360640190fd5b6000600160a060020a038416613c155750600a546040513491600160a060020a031690819083156108fc029084906000818181858888f19350505050158015613c0e573d6000803e3d6000fd5b5050613ea9565b8215613ea9576040805160e060020a6370a0823102815230600482015290518591600091600160a060020a038416916370a08231916024808301926020929190829003018186803b158015613c6957600080fd5b505afa158015613c7d573d6000803e3d6000fd5b505050506040513d6020811015613c9357600080fd5b5051604080517f23b872dd000000000000000000000000000000000000000000000000000000008152336004820152306024820152604481018890529051919250600160a060020a038416916323b872dd916064808201926020929091908290030181600087803b158015613d0757600080fd5b505af1158015613d1b573d6000803e3d6000fd5b505050506040513d6020811015613d3157600080fd5b50506040805160e060020a6370a082310281523060048201529051600091600160a060020a038516916370a0823191602480820192602092909190829003018186803b158015613d8057600080fd5b505afa158015613d94573d6000803e3d6000fd5b505050506040513d6020811015613daa57600080fd5b505190508181038614613e07576040805160e560020a62461bcd02815260206004820181905260248201527f736574746c656d656e7420746f6b656e207472616e73666572206572726f7221604482015290519081900360640190fd5b600a54604080517fa9059cbb000000000000000000000000000000000000000000000000000000008152600160a060020a0392831660048201526024810189905290518896509185169163a9059cbb916044808201926020929091908290030181600087803b158015613e7957600080fd5b505af1158015613e8d573d6000803e3d6000fd5b505050506040513d6020811015613ea357600080fd5b50505050505b613eb281611f15565b610fec5760405160e560020a62461bcd0281526004018080602001828103825260298152602001806152fc6029913960400191505060405180910390fd5b600854604080517f41976e09000000000000000000000000000000000000000000000000000000008152600160a060020a0384811660048301529151600093849316916341976e09916024808301926020929190829003018186803b158015613f5857600080fd5b505afa158015613f6c573d6000803e3d6000fd5b505050506040513d6020811015613f8257600080fd5b5051905060648110801590613fa457506c0c9f2c9cd04674edea400000008111155b610f7857600080fd5b80820382811115610f78576040805160e560020a62461bcd02815260206004820181905260248201527f536166654d6174683a20737562737472616374696f6e20756e646572666c6f77604482015290519081900360640190fd5b600854604080517fda6632570000000000000000000000000000000000000000000000000000000081526004810184905290516000928392600160a060020a039091169163da66325791602480820192602092909190829003018186803b158015613f5857600080fd5b600454604080518281526020808402820101909152600091906060908280156140a5578160200160208202803883390190505b50905060005b8281101561415a576000600482815481106140c257fe5b600091825260209091200154600160a060020a031690506140e4816002611232565b156141515760006140f482613ef0565b90506140ff826112b7565b84848151811061410b57fe5b60200260200101818152505061414d61414085858151811061412957fe5b602002602001015183613aac90919063ffffffff16565b879063ffffffff613b0516565b9550505b506001016140ab565b85841015801561416a5750600086115b6141a85760405160e560020a62461bcd0281526004018080602001828103825260238152602001806153876023913960400191505060405180910390fd5b5060005b82811015614293576000846141dd888585815181106141c757fe5b6020026020010151613aac90919063ffffffff16565b816141e457fe5b600a5460048054939092049350600160a060020a031691632454047c9133918690811061420d57fe5b60009182526020822001546040805160e060020a63ffffffff8716028152600160a060020a03948516600482015293909116602484015260448301869052606483018b90525160848084019382900301818387803b15801561426e57600080fd5b505af1158015614282573d6000803e3d6000fd5b5050600190930192506141ac915050565b505050505050565b8151600090815b81811015613a845783600160a060020a03168582815181106142c057fe5b6020026020010151600160a060020a031614156142e257600192505050610f78565b6001016142a2565b68010000000000000000830284017001000000000000000000000000000000008302017801000000000000000000000000000000000000000000000000820201949350505050565b816103e8600d5483028161434257fe5b04101580156143605750816103e8600e5483028161435c57fe5b0411155b61439e5760405160e560020a62461bcd0281526004018080602001828103825260218152602001806153256021913960400191505060405180910390fd5b5050565b6000806143ad613891565b905060006143b9613166565b9050600060ff851615888811146143d2578588026143d6565b8587025b600954604080517fb206e84d00000000000000000000000000000000000000000000000000000000815281519394506000938493600160a060020a03169263b206e84d9260048082019391829003018186803b15801561443557600080fd5b505afa158015614449573d6000803e3d6000fd5b505050506040513d604081101561445f57600080fd5b50805160209091015190925090506103e88183018401860281900490868560ff8b161561448c578461448e565b855b01028161449757fe5b049350808510156144f2576040805160e560020a62461bcd02815260206004820152601b60248201527f636f6c6c61746572616c20697320696e73756666696369656e74210000000000604482015290519081900360640190fd5b600b54604080517ff22f254300000000000000000000000000000000000000000000000000000000815260048101879052602481018490526044810188905281516000938493600160a060020a039091169263f22f25439260648083019392829003018186803b15801561456557600080fd5b505afa158015614579573d6000803e3d6000fd5b505050506040513d604081101561458f57600080fd5b5080516020909101519092509050806401000000008302816145ad57fe5b049d9c50505050505050505050505050565b6145c98484613b60565b925060006145d685613ef0565b90508282026305f5e10081048282816145eb57fe5b600a54604080517fc3c579cc000000000000000000000000000000000000000000000000000000008152600160a060020a038c811660048301529490930460248401819052600060448501819052915190965090939091169163c3c579cc91606480830192602092919082900301818787803b15801561466a57600080fd5b505af115801561467e573d6000803e3d6000fd5b505050506040513d602081101561469457600080fd5b505190508281018710156146dc5760405160e560020a62461bcd0281526004018080602001828103825260218152602001806153ca6021913960400191505060405180910390fd5b6146ee8784830163ffffffff613fad16565b9650861561478357600a54604080517f9994eb14000000000000000000000000000000000000000000000000000000008152336004820152600160a060020a038b81166024830152604482018b905291519190921691639994eb1491606480830192600092919082900301818387803b15801561476a57600080fd5b505af115801561477e573d6000803e3d6000fd5b505050505b600954604080517fbec3107f0000000000000000000000000000000000000000000000000000000081529051600092600160a060020a03169163bec3107f916004808301926020929190829003018186803b1580156147e157600080fd5b505afa1580156147f5573d6000803e3d6000fd5b505050506040513d602081101561480b57600080fd5b5051604080518981526020810187905280820189905290519192508291600160a060020a038c169133917f09e4fd1b37f40234b903951f986d8b64cb9c99657348f04cda4a75fbe743684d9181900360600190a4505050505050505050565b6000806000614877612a6e565b90508481028481111561493b57600082868161488f57fe5b600754604080517f4b91a07b00000000000000000000000000000000000000000000000000000000815233600482015293909204808b03602485018190528781026044860152925190945086850293610100909204600160a060020a031691634b91a07b91606480830192600092919082900301818387803b15801561491457600080fd5b505af1158015614928573d6000803e3d6000fd5b5094985092965061494295505050505050565b8593509150505b9250929050565b8161495357614b66565b60408051600160a060020a038516815260208101849052815133927fc994feb9b99296d80965b47aec6be0d25704ddf95b9b9bc1ed8bc753960d5809928290030190a260606149a184615139565b905060608060606149b3338686614b6b565b925092509250600a60009054906101000a9004600160a060020a0316600160a060020a031663a2fa92c73388878787876040518763ffffffff1660e060020a0281526004018087600160a060020a0316600160a060020a0316815260200186815260200180602001806020018060200180602001858103855289818151815260200191508051906020019060200280838360005b83811015614a5f578181015183820152602001614a47565b50505050905001858103845288818151815260200191508051906020019060200280838360005b83811015614a9e578181015183820152602001614a86565b50505050905001858103835287818151815260200191508051906020019060200280838360005b83811015614add578181015183820152602001614ac5565b50505050905001858103825286818151815260200191508051906020019060200280838360005b83811015614b1c578181015183820152602001614b04565b505050509050019a5050505050505050505050600060405180830381600087803b158015614b4957600080fd5b505af1158015614b5d573d6000803e3d6000fd5b50505050505050505b505050565b6060806060808451604051908082528060200260200182016040528015614b9c578160200160208202803883390190505b50905060608551604051908082528060200260200182016040528015614bcc578160200160208202803883390190505b50905060005b8651811015614c6e57614bf9878281518110614bea57fe5b60200260200101516002611232565b15614c3357614c1a878281518110614c0d57fe5b60200260200101516112b7565b828281518110614c2657fe5b6020026020010181815250505b614c4f878281518110614c4257fe5b6020026020010151613ef0565b838281518110614c5b57fe5b6020908102919091010152600101614bd2565b50600a546040517f7a6a0277000000000000000000000000000000000000000000000000000000008152600160a060020a038a811660048301908152602483018b905260a0604484019081528a5160a48501528a516060958695941693637a6a0277938f938f938f938b938d93909290916064810191608482019160c401906020808a01910280838360005b83811015614d12578181015183820152602001614cfa565b50505050905001848103835286818151815260200191508051906020019060200280838360005b83811015614d51578181015183820152602001614d39565b50505050905001848103825285818151815260200191508051906020019060200280838360005b83811015614d90578181015183820152602001614d78565b505050509050019850505050505050505060006040518083038186803b158015614db957600080fd5b505afa158015614dcd573d6000803e3d6000fd5b505050506040513d6000823e601f3d908101601f191682016040908152811015614df657600080fd5b8101908080516040519392919084640100000000821115614e1657600080fd5b908301906020820185811115614e2b57600080fd5b8251866020820283011164010000000082111715614e4857600080fd5b82525081516020918201928201910280838360005b83811015614e75578181015183820152602001614e5d565b5050505090500160405260200180516040519392919084640100000000821115614e9e57600080fd5b908301906020820185811115614eb357600080fd5b8251866020820283011164010000000082111715614ed057600080fd5b82525081516020918201928201910280838360005b83811015614efd578181015183820152602001614ee5565b505050509190910160405250939e929d50969b50909950505050505050505050565b6000811580614f3a57505080820282828281614f3757fe5b05145b610f785760405160e560020a62461bcd0281526004018080602001828103825260238152602001806152b36023913960400191505060405180910390fd5b81810182811215600083121514610f78576040805160e560020a62461bcd02815260206004820152601d60248201527f53616665496e743235363a206164646974696f6e206f766572666c6f77000000604482015290519081900360640190fd5b61503c8280548060200260200160405190810160405280929190818152602001828054801561503157602002820191906000526020600020905b8154600160a060020a03168152600190910190602001808311615013575b50505050508261429b565b61439e578154600181018355600083815260209020018054600160a060020a03831673ffffffffffffffffffffffffffffffffffffffff199091161790555050565b600160a060020a0381166150c65760405160e560020a62461bcd0281526004018080602001828103825260268152602001806152d66026913960400191505060405180910390fd5b60008054604051600160a060020a038085169361010090930416917f8be0079c531659141344cd1fd0a4f28419497f9722a3daafe3b4186f6b6457e091a360008054600160a060020a039092166101000274ffffffffffffffffffffffffffffffffffffffff0019909216919091179055565b606080600480548060200260200160405190810160405280929190818152602001828054801561519257602002820191906000526020600020905b8154600160a060020a03168152600190910190602001808311615174575b5050505050905060006151a58285615224565b9050801561521d57816000815181106151ba57fe5b60200260200101518282815181106151ce57fe5b6020026020010190600160a060020a03169081600160a060020a03168152505083826000815181106151fc57fe5b6020026020010190600160a060020a03169081600160a060020a0316815250505b5092915050565b8151600090815b8181101561526d5783600160a060020a031685828151811061524957fe5b6020026020010151600160a060020a031614156152655761526d565b60010161522b565b949350505050565b815481835581811115614b6657600083815260209020614b66918101908301610d5291905b808211156152ae576000815560010161529a565b509056fe53616665496e743235363a206d756c7469706c69636174696f6e206f766572666c6f774f776e61626c653a206e6577206f776e657220697320746865207a65726f2061646472657373696e70757420616d6f756e74206973206f7574206f6620696e70757420616d6f756e742072616e6765737472696b655072696365206973206f7574206f662070726963652072616e6765536166654d6174683a206d756c7469706c69636174696f6e206f766572666c6f774f776e61626c653a2063616c6c6572206973206e6f7420746865206f776e65727061796261636b20736574746c656d656e7420697320696e73756666696369656e74213488b7fb091def6ae0d21272edd1ca7ed4e6733f0794f66c7c2d0f5dcdc50a26736574746c656d656e7420617373657420697320696e73756666696369656e7421416c6c6f77616e636573203a2075736572277320616c6c6f77616e636520697320756e73756666696369656e74215468697320636f6e74726163742069732068616c746564000000000000000000a265627a7a723158206358b7c60b24216841e3559fcd89ab1b84ae5e19ab36fcf9e17d7d09356ac78d64736f6c63430005100032",
  "source": "pragma solidity =0.5.16;\r\nimport \"../modules/SafeMath.sol\";\r\nimport \"./CollateralCal.sol\";\r\nimport \"../modules/tuple64.sol\";\r\n/**\r\n * @title Options manager contract for finnexus proposal v2.\r\n * @dev A Smart-contract to manage Options pool, collatral pool, mine pool, FPTCoin, etc.\r\n *\r\n */\r\ncontract OptionsManagerV2 is CollateralCal {\r\n    using SafeMath for uint256;\r\n\r\n    /**\r\n    * @dev Options manager constructor. set other contract address\r\n    * @param oracleAddr fnx oracle contract address.\r\n    * @param optionsPriceAddr options price contract address\r\n    * @param optionsPoolAddr optoins pool contract address\r\n    * @param FPTCoinAddr FPTCoin contract address\r\n    */\r\n    constructor (address oracleAddr,address optionsPriceAddr,address optionsPoolAddr,address collateralPoolAddr,address FPTCoinAddr) public{\r\n        _oracle = IFNXOracle(oracleAddr);\r\n        _optionsPrice = IOptionsPrice(optionsPriceAddr);\r\n        _optionsPool = IOptionsPool(optionsPoolAddr);\r\n        _collateralPool = ICollateralPool(collateralPoolAddr);\r\n        _FPTCoin = IFPTCoin(FPTCoinAddr);\r\n    }\r\n    function initialize() onlyOwner public {\r\n        \r\n    }\r\n    function update() onlyOwner public {\r\n        \r\n    }\r\n    /**\r\n    * @dev retrieve input price valid range rate, thousandths.\r\n    */ \r\n    function getPriceRateRange() public view returns(uint256,uint256) {\r\n        return (minPriceRate,maxPriceRate);\r\n    }\r\n    /**\r\n    * @dev set input price valid range rate, thousandths.\r\n    */ \r\n    function setPriceRateRange(uint256 _minPriceRate,uint256 _maxPriceRate) public onlyOwner{\r\n        minPriceRate = _minPriceRate;\r\n        maxPriceRate = _maxPriceRate;\r\n    }\r\n    /**\r\n    * @dev check user input price is in valid range.\r\n    * @param strikePrice user input strikePrice\r\n    * @param underlyingPrice current underlying price.\r\n    */ \r\n    function checkStrikePrice(uint256 strikePrice,uint256 underlyingPrice)internal view{\r\n        require(underlyingPrice*maxPriceRate/1000>=strikePrice && underlyingPrice*minPriceRate/1000<=strikePrice,\r\n                \"strikePrice is out of price range\");\r\n    }\r\n    /**\r\n    * @dev user buy option and create new option.\r\n    * @param settlement user's settement coin address\r\n    * @param settlementAmount amount of settlement user want fo pay.\r\n    * @param strikePrice user input option's strike price\r\n    * @param underlying user input option's underlying id, 1 for BTC,2 for ETH\r\n    * @param expiration user input expiration,time limit from now\r\n    * @param amount user input amount of new option user want to buy.\r\n    * @param optType user input option type\r\n    */ \r\n    function buyOption(address settlement,uint256 settlementAmount, uint256 strikePrice,uint32 underlying,\r\n                uint256 expiration,uint256 amount,uint8 optType) nonReentrant notHalted InRange(amount) public payable{\r\n        emit DebugEvent(1,gasleft());\r\n        _optionsPool.buyOptionCheck(expiration,underlying);\r\n        emit DebugEvent(1,gasleft());\r\n        uint256 ty_ly_exp = tuple64.getTuple(uint256(optType),uint256(underlying),uint256(expiration),0);\r\n        uint256 underlyingPrice = oracleUnderlyingPrice(underlying);\r\n        emit DebugEvent(1,gasleft());\r\n        checkStrikePrice(strikePrice,underlyingPrice);\r\n        uint256 optRate = _getOptionsPriceRate(underlyingPrice,strikePrice,amount,optType);\r\n        emit DebugEvent(1,gasleft()); \r\n        uint256 optionPrice =_optionsPool.createOptions(msg.sender,settlement,ty_ly_exp,strikePrice,optRate,amount);\r\n        emit DebugEvent(1,gasleft());\r\n        buyOption_sub(settlement,settlementAmount,optionPrice,amount);\r\n        emit DebugEvent(1,gasleft());\r\n    }\r\n    /**\r\n    * @dev subfunction of buy option.\r\n    * @param settlement user's settement coin address\r\n    * @param settlementAmount amount of settlement user want fo pay.\r\n    * @param optionPrice new option's price\r\n    * @param amount user input amount of new option user want to buy.\r\n    */ \r\n    function buyOption_sub(address settlement,uint256 settlementAmount,\r\n            uint256 optionPrice,uint256 amount)internal{\r\n        settlementAmount = getPayableAmount(settlement,settlementAmount);\r\n        uint256 settlePrice = oraclePrice(settlement);\r\n        uint256 allPay = amount*optionPrice;\r\n        uint256 allPayUSd = allPay/1e8;\r\n        allPay = allPay/settlePrice;\r\n        uint256 fee = _collateralPool.addTransactionFee(settlement,allPay,0);\r\n        require(settlementAmount>=allPay+fee,\"settlement asset is insufficient!\");\r\n        settlementAmount = settlementAmount.sub(allPay+fee);\r\n        if (settlementAmount > 0){\r\n            _collateralPool.transferPayback(msg.sender,settlement,settlementAmount);\r\n        }\r\n        uint256 id =_optionsPool.getOptionInfoLength();\r\n//        _FPTCoin.addMinerBalance(msg.sender,allPayUSd);\r\n        emit BuyOption(msg.sender,settlement,id,optionPrice,allPay,amount); \r\n    }\r\n    /**\r\n    * @dev User sell option.\r\n    * @param optionsId option's ID which was wanted to sell, must owned by user\r\n    * @param amount user input amount of option user want to sell.\r\n    */ \r\n    function sellOption(uint256 optionsId,uint256 amount) nonReentrant notHalted InRange(amount) public{\r\n        (,,uint8 optType,uint32 underlying,uint256 expiration,uint256 strikePrice,) = _optionsPool.getOptionsById(optionsId);\r\n        expiration = expiration.sub(now);\r\n        uint256 currentPrice = oracleUnderlyingPrice(underlying);\r\n        uint256 optPrice = _optionsPrice.getOptionsPrice(currentPrice,strikePrice,expiration,underlying,optType);\r\n        _optionsPool.burnOptions(msg.sender,optionsId,amount,optPrice);\r\n        uint256 allPay = optPrice*amount;\r\n        (address settlement,uint256 fullPay) = _optionsPool.getBurnedFullPay(optionsId,amount);\r\n        _collateralPool.addNetWorthBalance(settlement,int256(fullPay));\r\n        _paybackWorth(allPay,1);\r\n        emit SellOption(msg.sender,optionsId,amount,allPay);\r\n    }\r\n    /**\r\n    * @dev User exercise option.\r\n    * @param optionsId option's ID which was wanted to exercise, must owned by user\r\n    * @param amount user input amount of option user want to exercise.\r\n    */ \r\n    function exerciseOption(uint256 optionsId,uint256 amount) nonReentrant notHalted InRange(amount) public{\r\n        uint256 allPay = _optionsPool.getExerciseWorth(optionsId,amount);\r\n        require(allPay > 0,\"This option cannot exercise\");\r\n        (,,uint8 optType,uint32 underlying,uint256 expiration,uint256 strikePrice,) = _optionsPool.getOptionsById(optionsId);\r\n        expiration = expiration.sub(now);\r\n        uint256 currentPrice = oracleUnderlyingPrice(underlying);\r\n        uint256 optPrice = _optionsPrice.getOptionsPrice(currentPrice,strikePrice,expiration,underlying,optType);\r\n        _optionsPool.burnOptions(msg.sender,optionsId,amount,optPrice);\r\n        (address settlement,uint256 fullPay) = _optionsPool.getBurnedFullPay(optionsId,amount);\r\n        _collateralPool.addNetWorthBalance(settlement,int256(fullPay));\r\n        _paybackWorth(allPay,2);\r\n        emit ExerciseOption(msg.sender,optionsId,amount,allPay);\r\n    }\r\n    function getOptionsPrice(uint256 underlyingPrice, uint256 strikePrice, uint256 expiration,\r\n                    uint32 underlying,uint256 amount,uint8 optType) public returns(uint256){  \r\n        uint256 buyOccupied = calOptionsOccupied(strikePrice,underlyingPrice,amount,optType);\r\n        emit DebugEvent(11,gasleft());\r\n        require(getAvailableCollateral()>=buyOccupied,\"collateral is insufficient!\");\r\n        emit DebugEvent(11,gasleft());\r\n        uint256 optPrice = _optionsPrice.getOptionsPrice(underlyingPrice,strikePrice,expiration,underlying,optType);\r\n        emit DebugEvent(11,gasleft());\r\n        uint256 selfOccupied = optType == 0 ? _optionsPool.getCallTotalOccupiedCollateral() : _optionsPool.getPutTotalOccupiedCollateral();\r\n        emit DebugEvent(11,gasleft());\r\n        selfOccupied = calculateCollateral(selfOccupied) + buyOccupied;\r\n        emit DebugEvent(11,gasleft());\r\n        uint256 totalOccupied = getOccupiedCollateral() + buyOccupied;\r\n        emit DebugEvent(11,gasleft());\r\n        uint256 totalCollateral = getUnlockedCollateral();\r\n        emit DebugEvent(11,gasleft());\r\n        (uint256 ratioNumerator,uint256 ratioDenominator) = _optionsPrice.calOptionsPriceRatio(selfOccupied,totalOccupied,totalCollateral);\r\n        emit DebugEvent(11,gasleft());\r\n        return optPrice*ratioNumerator/ratioDenominator;\r\n    }\r\n    function _getOptionsPriceRate(uint256 underlyingPrice, uint256 strikePrice,uint256 amount,uint8 optType) internal view returns(uint256){\r\n        uint256 rate = calculateCollateralRate();\r\n        uint256 totalCollateral = getUnlockedCollateral();\r\n        uint256 buyOccupied = ((optType == 0) == (strikePrice>underlyingPrice)) ? strikePrice*amount:underlyingPrice*amount;\r\n        (uint256 callCollateral,uint256 putCollateral) = _optionsPool.getAllOccupiedCollateral();\r\n        uint256 totalOccupied = (callCollateral + putCollateral + buyOccupied)*rate/1000;\r\n        buyOccupied = ((optType == 0 ? callCollateral : putCollateral) + buyOccupied)*rate/1000;\r\n        require(totalCollateral>=totalOccupied,\"collateral is insufficient!\");\r\n        (uint256 ratioNumerator,uint256 ratioDenominator) = _optionsPrice.calOptionsPriceRatio(buyOccupied,totalOccupied,totalCollateral);\r\n        return (ratioNumerator<<32)/ratioDenominator;\r\n    }\r\n}",
  "sourcePath": "C:\\work\\solidity\\FinnexusOptions_V2\\contracts\\OptionsManager\\OptionsManagerV2.sol",
  "compiler": {
    "name": "solc",
    "version": "0.5.16+commit.9c3226ce.Emscripten.clang"
  },
  "schemaVersion": "3.1.0",
  "updatedAt": "2020-10-15T03:03:37.665Z",
  "devdoc": {
    "details": "A Smart-contract to manage Options pool, collatral pool, mine pool, FPTCoin, etc.  ",
    "methods": {
      "addCollateral(address,uint256)": {
        "details": "Deposit collateral in this pool from user.",
        "params": {
          "amount": "the amount of collateral to deposit.",
          "collateral": "The collateral coin address which is in whitelist."
        }
      },
      "addWhiteList(address)": {
        "details": "Implementation of add an eligible address into the whitelist.",
        "params": {
          "addAddress": "new eligible address."
        }
      },
      "buyOption(address,uint256,uint256,uint32,uint256,uint256,uint8)": {
        "details": "user buy option and create new option.",
        "params": {
          "amount": "user input amount of new option user want to buy.",
          "expiration": "user input expiration,time limit from now",
          "optType": "user input option type",
          "settlement": "user's settement coin address",
          "settlementAmount": "amount of settlement user want fo pay.",
          "strikePrice": "user input option's strike price",
          "underlying": "user input option's underlying id, 1 for BTC,2 for ETH"
        }
      },
      "calCollateralWorth(address)": {
        "details": "Retrieve user's collateral worth in all collateral coin.  If user want to redeem all his collateral,and the vacant collateral is sufficient, He can redeem each collateral amount in return list.",
        "params": {
          "account": "the retrieve user's account;"
        }
      },
      "calOptionsOccupied(uint256,uint256,uint256,uint8)": {
        "details": "The auxiliary function for calculate option occupied. ",
        "params": {
          "amount": "option's amount",
          "optType": "option's type, 0 for call, 1 for put.",
          "strikePrice": "option's strike price",
          "underlyingPrice": "option's underlying price"
        }
      },
      "calculateCollateralRate()": {
        "details": "collateral occupation rate calculation     collateral occupation rate = sum(collateral Rate * collateral balance) / sum(collateral balance)"
      },
      "constructor": {
        "details": "Options manager constructor. set other contract address",
        "params": {
          "FPTCoinAddr": "FPTCoin contract address",
          "optionsPoolAddr": "optoins pool contract address",
          "optionsPriceAddr": "options price contract address",
          "oracleAddr": "fnx oracle contract address."
        }
      },
      "exerciseOption(uint256,uint256)": {
        "details": "User exercise option.",
        "params": {
          "amount": "user input amount of option user want to exercise.",
          "optionsId": "option's ID which was wanted to exercise, must owned by user"
        }
      },
      "getAvailableCollateral()": {
        "details": "Retrieve the available collateral worth, the worth of collateral which can used for buy options, priced in USD. "
      },
      "getCollateralRate(address)": {
        "details": "Get the minimum collateral occupation rate."
      },
      "getInputAmountRange()": {
        "details": "get the valid range of input amount"
      },
      "getLeftCollateral()": {
        "details": "Retrieve the left collateral worth, the worth of collateral which can used for redeem collateral, priced in USD. "
      },
      "getOccupiedCollateral()": {
        "details": "Retrieve the occupied collateral worth, multiplied by minimum collateral rate, priced in USD. "
      },
      "getPriceRateRange()": {
        "details": "retrieve input price valid range rate, thousandths."
      },
      "getRealBalance(address)": {
        "details": "Retrieve the balance of collateral, the auxiliary function for the total collateral calculation. "
      },
      "getTokenNetworth()": {
        "details": "Retrieve FPTCoin's net worth, priced in USD."
      },
      "getTotalCollateral()": {
        "details": "Retrieve the total collateral worth, priced in USD. "
      },
      "getUnlockedCollateral()": {
        "details": "Retrieve the unlocked collateral worth, the worth of collateral which currently used for options, priced in USD. "
      },
      "getUserPayingUsd(address)": {
        "details": "Retrieve user's cost of collateral, priced in USD.",
        "params": {
          "user": "input retrieved account "
        }
      },
      "getUserTotalWorth(address)": {
        "details": "Retrieve user's current total worth, priced in USD.",
        "params": {
          "account": "input retrieve account"
        }
      },
      "getWhiteList()": {
        "details": "Implementation of getting the eligible whitelist."
      },
      "isEligibleAddress(address)": {
        "details": "Implementation of testing whether the input address is eligible.",
        "params": {
          "tmpAddress": "input address for testing."
        }
      },
      "isInputAmountInRange(uint256)": {
        "details": "Determine whether the input amount is within the valid range",
        "params": {
          "Amount": "Test value which is user input"
        }
      },
      "isOwner()": {
        "details": "Returns true if the caller is the current owner."
      },
      "owner()": {
        "details": "Returns the address of the current owner."
      },
      "redeemCollateral(uint256,address)": {
        "details": "redeem collateral from this pool, user can input the prioritized collateral,he will get this coin, if this coin is unsufficient, he will get others collateral which in whitelist.",
        "params": {
          "collateral": "The prioritized collateral coin address.",
          "tokenAmount": "the amount of FPTCoin want to redeem."
        }
      },
      "removeWhiteList(address)": {
        "details": "Implementation of revoke an invalid address from the whitelist.",
        "params": {
          "removeAddress": "revoked address."
        }
      },
      "renounceOwnership()": {
        "details": "Leaves the contract without owner. It will not be possible to call `onlyOwner` functions anymore. Can only be called by the current owner.      * NOTE: Renouncing ownership will leave the contract without an owner, thereby removing any functionality that is only available to the owner."
      },
      "sellOption(uint256,uint256)": {
        "details": "User sell option.",
        "params": {
          "amount": "user input amount of option user want to sell.",
          "optionsId": "option's ID which was wanted to sell, must owned by user"
        }
      },
      "setCollateralRate(address,uint256)": {
        "details": "The foundation owner want to set the minimum collateral occupation rate.",
        "params": {
          "colRate": "The thousandths of the minimum collateral occupation rate.",
          "collateral": "collateral coin address"
        }
      },
      "setInputAmountRange(uint256,uint256)": {
        "details": "set the valid range of input amount",
        "params": {
          "_maxAmount": "the maximum input amount limit",
          "_minAmount": "the minimum input amount limit"
        }
      },
      "setPriceRateRange(uint256,uint256)": {
        "details": "set input price valid range rate, thousandths."
      },
      "transferOwnership(address)": {
        "details": "Transfers ownership of the contract to a new account (`newOwner`). Can only be called by the current owner."
      },
      "userInputCollateral(address,address)": {
        "details": "Retrieve user's amount of the specified collateral.",
        "params": {
          "collateral": "input retrieved collateral coin address ",
          "user": "input retrieved account "
        }
      }
    },
    "title": "Options manager contract for finnexus proposal v2."
  },
  "userdoc": {
    "methods": {
      "approve(address,uint256)": {
        "notice": "     * Requirements:      * - `spender` cannot be the zero address."
      },
      "setHalt(bool)": {
        "notice": "function Emergency situation that requires contribution period to stop or not."
      }
    }
  }
}