{
  "contractName": "OptionsManagerV2",
  "abi": [
    {
      "constant": true,
      "inputs": [
        {
          "name": "tmpAddress",
          "type": "address"
        }
      ],
      "name": "checkAddressRedeemOut",
      "outputs": [
        {
          "name": "",
          "type": "bool"
        }
      ],
      "payable": false,
      "stateMutability": "view",
      "type": "function"
    },
    {
      "constant": true,
      "inputs": [],
      "name": "getWhiteList",
      "outputs": [
        {
          "name": "",
          "type": "address[]"
        }
      ],
      "payable": false,
      "stateMutability": "view",
      "type": "function"
    },
    {
      "constant": true,
      "inputs": [],
      "name": "getLeftCollateral",
      "outputs": [
        {
          "name": "",
          "type": "uint256"
        }
      ],
      "payable": false,
      "stateMutability": "view",
      "type": "function"
    },
    {
      "constant": true,
      "inputs": [
        {
          "name": "settlement",
          "type": "address"
        }
      ],
      "name": "getRealBalance",
      "outputs": [
        {
          "name": "",
          "type": "int256"
        }
      ],
      "payable": false,
      "stateMutability": "view",
      "type": "function"
    },
    {
      "constant": false,
      "inputs": [
        {
          "name": "collateralPool",
          "type": "address"
        }
      ],
      "name": "setCollateralPoolAddress",
      "outputs": [],
      "payable": false,
      "stateMutability": "nonpayable",
      "type": "function"
    },
    {
      "constant": false,
      "inputs": [
        {
          "name": "optionsPool",
          "type": "address"
        }
      ],
      "name": "setOptionsPoolAddress",
      "outputs": [],
      "payable": false,
      "stateMutability": "nonpayable",
      "type": "function"
    },
    {
      "constant": false,
      "inputs": [
        {
          "name": "removeAddress",
          "type": "address"
        }
      ],
      "name": "removeWhiteList",
      "outputs": [
        {
          "name": "",
          "type": "bool"
        }
      ],
      "payable": false,
      "stateMutability": "nonpayable",
      "type": "function"
    },
    {
      "constant": true,
      "inputs": [],
      "name": "getCollateralPoolAddress",
      "outputs": [
        {
          "name": "",
          "type": "address"
        }
      ],
      "payable": false,
      "stateMutability": "view",
      "type": "function"
    },
    {
      "constant": false,
      "inputs": [],
      "name": "redeemAll",
      "outputs": [],
      "payable": false,
      "stateMutability": "nonpayable",
      "type": "function"
    },
    {
      "constant": true,
      "inputs": [
        {
          "name": "strikePrice",
          "type": "uint256"
        },
        {
          "name": "underlyingPrice",
          "type": "uint256"
        },
        {
          "name": "amount",
          "type": "uint256"
        },
        {
          "name": "optType",
          "type": "uint8"
        }
      ],
      "name": "calOptionsOccupied",
      "outputs": [
        {
          "name": "",
          "type": "uint256"
        }
      ],
      "payable": false,
      "stateMutability": "view",
      "type": "function"
    },
    {
      "constant": true,
      "inputs": [
        {
          "name": "feeType",
          "type": "uint256"
        },
        {
          "name": "amount",
          "type": "uint256"
        }
      ],
      "name": "calculateFee",
      "outputs": [
        {
          "name": "",
          "type": "uint256"
        }
      ],
      "payable": false,
      "stateMutability": "view",
      "type": "function"
    },
    {
      "constant": true,
      "inputs": [
        {
          "name": "user",
          "type": "address"
        }
      ],
      "name": "getUserPayingUsd",
      "outputs": [
        {
          "name": "",
          "type": "uint256"
        }
      ],
      "payable": false,
      "stateMutability": "view",
      "type": "function"
    },
    {
      "constant": true,
      "inputs": [
        {
          "name": "account",
          "type": "address"
        }
      ],
      "name": "getUserTotalWorth",
      "outputs": [
        {
          "name": "",
          "type": "uint256"
        }
      ],
      "payable": false,
      "stateMutability": "view",
      "type": "function"
    },
    {
      "constant": false,
      "inputs": [
        {
          "name": "oracle",
          "type": "address"
        }
      ],
      "name": "setOracleAddress",
      "outputs": [],
      "payable": false,
      "stateMutability": "nonpayable",
      "type": "function"
    },
    {
      "constant": true,
      "inputs": [],
      "name": "getOptionsPriceAddress",
      "outputs": [
        {
          "name": "",
          "type": "address"
        }
      ],
      "payable": false,
      "stateMutability": "view",
      "type": "function"
    },
    {
      "constant": true,
      "inputs": [
        {
          "name": "settlement",
          "type": "address"
        }
      ],
      "name": "getNetWorthBalance",
      "outputs": [
        {
          "name": "",
          "type": "uint256"
        }
      ],
      "payable": false,
      "stateMutability": "view",
      "type": "function"
    },
    {
      "constant": false,
      "inputs": [
        {
          "name": "collateral",
          "type": "address"
        },
        {
          "name": "amount",
          "type": "uint256"
        }
      ],
      "name": "addCollateral",
      "outputs": [],
      "payable": true,
      "stateMutability": "payable",
      "type": "function"
    },
    {
      "constant": false,
      "inputs": [],
      "name": "renounceOwnership",
      "outputs": [],
      "payable": false,
      "stateMutability": "nonpayable",
      "type": "function"
    },
    {
      "constant": true,
      "inputs": [
        {
          "name": "tmpAddress",
          "type": "address"
        }
      ],
      "name": "isEligibleAddress",
      "outputs": [
        {
          "name": "",
          "type": "bool"
        }
      ],
      "payable": false,
      "stateMutability": "view",
      "type": "function"
    },
    {
      "constant": true,
      "inputs": [],
      "name": "getCollateralRate",
      "outputs": [
        {
          "name": "",
          "type": "uint256"
        },
        {
          "name": "",
          "type": "uint256"
        }
      ],
      "payable": false,
      "stateMutability": "view",
      "type": "function"
    },
    {
      "constant": false,
      "inputs": [
        {
          "name": "settlement",
          "type": "address"
        },
        {
          "name": "amount",
          "type": "uint256"
        }
      ],
      "name": "addNetBalance",
      "outputs": [],
      "payable": true,
      "stateMutability": "payable",
      "type": "function"
    },
    {
      "constant": true,
      "inputs": [],
      "name": "owner",
      "outputs": [
        {
          "name": "",
          "type": "address"
        }
      ],
      "payable": false,
      "stateMutability": "view",
      "type": "function"
    },
    {
      "constant": true,
      "inputs": [],
      "name": "isOwner",
      "outputs": [
        {
          "name": "",
          "type": "bool"
        }
      ],
      "payable": false,
      "stateMutability": "view",
      "type": "function"
    },
    {
      "constant": false,
      "inputs": [
        {
          "name": "currency",
          "type": "address"
        }
      ],
      "name": "redeem",
      "outputs": [],
      "payable": false,
      "stateMutability": "nonpayable",
      "type": "function"
    },
    {
      "constant": false,
      "inputs": [
        {
          "name": "addAddress",
          "type": "address"
        }
      ],
      "name": "addOperator",
      "outputs": [],
      "payable": false,
      "stateMutability": "nonpayable",
      "type": "function"
    },
    {
      "constant": false,
      "inputs": [
        {
          "name": "_minAmount",
          "type": "uint256"
        },
        {
          "name": "_maxAmount",
          "type": "uint256"
        }
      ],
      "name": "setInputAmountRange",
      "outputs": [],
      "payable": false,
      "stateMutability": "nonpayable",
      "type": "function"
    },
    {
      "constant": false,
      "inputs": [
        {
          "name": "optionsPrice",
          "type": "address"
        }
      ],
      "name": "setOptionsPriceAddress",
      "outputs": [],
      "payable": false,
      "stateMutability": "nonpayable",
      "type": "function"
    },
    {
      "constant": false,
      "inputs": [
        {
          "name": "tokenAmount",
          "type": "uint256"
        },
        {
          "name": "collateral",
          "type": "address"
        }
      ],
      "name": "redeemCollateral",
      "outputs": [],
      "payable": false,
      "stateMutability": "nonpayable",
      "type": "function"
    },
    {
      "constant": false,
      "inputs": [
        {
          "name": "newNetworth",
          "type": "int256[]"
        },
        {
          "name": "sharedBalances",
          "type": "int256[]"
        },
        {
          "name": "firstOption",
          "type": "uint256"
        }
      ],
      "name": "setSharedPayment",
      "outputs": [],
      "payable": false,
      "stateMutability": "nonpayable",
      "type": "function"
    },
    {
      "constant": true,
      "inputs": [
        {
          "name": "account",
          "type": "address"
        }
      ],
      "name": "calCollateralWorth",
      "outputs": [
        {
          "name": "",
          "type": "uint256[]"
        }
      ],
      "payable": false,
      "stateMutability": "view",
      "type": "function"
    },
    {
      "constant": false,
      "inputs": [
        {
          "name": "_timeLimited",
          "type": "uint256"
        }
      ],
      "name": "setCollateralTimeLimited",
      "outputs": [],
      "payable": false,
      "stateMutability": "nonpayable",
      "type": "function"
    },
    {
      "constant": false,
      "inputs": [
        {
          "name": "removeAddress",
          "type": "address"
        }
      ],
      "name": "removeOperator",
      "outputs": [
        {
          "name": "",
          "type": "bool"
        }
      ],
      "payable": false,
      "stateMutability": "nonpayable",
      "type": "function"
    },
    {
      "constant": true,
      "inputs": [],
      "name": "getOracleAddress",
      "outputs": [
        {
          "name": "",
          "type": "address"
        }
      ],
      "payable": false,
      "stateMutability": "view",
      "type": "function"
    },
    {
      "constant": true,
      "inputs": [
        {
          "name": "user",
          "type": "address"
        },
        {
          "name": "collateral",
          "type": "address"
        }
      ],
      "name": "userInputCollateral",
      "outputs": [
        {
          "name": "",
          "type": "uint256"
        }
      ],
      "payable": false,
      "stateMutability": "view",
      "type": "function"
    },
    {
      "constant": false,
      "inputs": [],
      "name": "calSharedPayment",
      "outputs": [],
      "payable": false,
      "stateMutability": "nonpayable",
      "type": "function"
    },
    {
      "constant": true,
      "inputs": [],
      "name": "getInputAmountRange",
      "outputs": [
        {
          "name": "",
          "type": "uint256"
        },
        {
          "name": "",
          "type": "uint256"
        }
      ],
      "payable": false,
      "stateMutability": "view",
      "type": "function"
    },
    {
      "constant": true,
      "inputs": [
        {
          "name": "tmpAddress",
          "type": "address"
        }
      ],
      "name": "checkAddressPayIn",
      "outputs": [
        {
          "name": "",
          "type": "bool"
        }
      ],
      "payable": false,
      "stateMutability": "view",
      "type": "function"
    },
    {
      "constant": false,
      "inputs": [
        {
          "name": "feeType",
          "type": "uint256"
        },
        {
          "name": "numerator",
          "type": "uint256"
        },
        {
          "name": "denominator",
          "type": "uint256"
        }
      ],
      "name": "setTransactionFee",
      "outputs": [],
      "payable": false,
      "stateMutability": "nonpayable",
      "type": "function"
    },
    {
      "constant": true,
      "inputs": [],
      "name": "getOptionsPoolAddress",
      "outputs": [
        {
          "name": "",
          "type": "address"
        }
      ],
      "payable": false,
      "stateMutability": "view",
      "type": "function"
    },
    {
      "constant": false,
      "inputs": [
        {
          "name": "addAddress",
          "type": "address"
        },
        {
          "name": "permission",
          "type": "uint256"
        }
      ],
      "name": "modifyPermission",
      "outputs": [],
      "payable": false,
      "stateMutability": "nonpayable",
      "type": "function"
    },
    {
      "constant": true,
      "inputs": [],
      "name": "getTokenNetworth",
      "outputs": [
        {
          "name": "",
          "type": "uint256"
        }
      ],
      "payable": false,
      "stateMutability": "view",
      "type": "function"
    },
    {
      "constant": true,
      "inputs": [
        {
          "name": "settlement",
          "type": "address"
        }
      ],
      "name": "getFeeBalance",
      "outputs": [
        {
          "name": "",
          "type": "uint256"
        }
      ],
      "payable": false,
      "stateMutability": "view",
      "type": "function"
    },
    {
      "constant": true,
      "inputs": [],
      "name": "getOccupiedCollateral",
      "outputs": [
        {
          "name": "",
          "type": "uint256"
        }
      ],
      "payable": false,
      "stateMutability": "view",
      "type": "function"
    },
    {
      "constant": true,
      "inputs": [
        {
          "name": "feeType",
          "type": "uint256"
        }
      ],
      "name": "getFeeRate",
      "outputs": [
        {
          "name": "",
          "type": "uint256"
        },
        {
          "name": "",
          "type": "uint256"
        }
      ],
      "payable": false,
      "stateMutability": "view",
      "type": "function"
    },
    {
      "constant": true,
      "inputs": [],
      "name": "getTotalCollateral",
      "outputs": [
        {
          "name": "",
          "type": "uint256"
        }
      ],
      "payable": false,
      "stateMutability": "view",
      "type": "function"
    },
    {
      "constant": true,
      "inputs": [],
      "name": "getFPTCoinAddress",
      "outputs": [
        {
          "name": "",
          "type": "address"
        }
      ],
      "payable": false,
      "stateMutability": "view",
      "type": "function"
    },
    {
      "constant": true,
      "inputs": [],
      "name": "getUnlockedCollateral",
      "outputs": [
        {
          "name": "",
          "type": "uint256"
        }
      ],
      "payable": false,
      "stateMutability": "view",
      "type": "function"
    },
    {
      "constant": true,
      "inputs": [],
      "name": "getAvailableCollateral",
      "outputs": [
        {
          "name": "",
          "type": "uint256"
        }
      ],
      "payable": false,
      "stateMutability": "view",
      "type": "function"
    },
    {
      "constant": false,
      "inputs": [
        {
          "name": "FPTCoinAddr",
          "type": "address"
        }
      ],
      "name": "setFPTCoinAddress",
      "outputs": [],
      "payable": false,
      "stateMutability": "nonpayable",
      "type": "function"
    },
    {
      "constant": false,
      "inputs": [
        {
          "name": "index",
          "type": "uint256"
        },
        {
          "name": "addAddress",
          "type": "address"
        }
      ],
      "name": "setOperator",
      "outputs": [],
      "payable": false,
      "stateMutability": "nonpayable",
      "type": "function"
    },
    {
      "constant": false,
      "inputs": [
        {
          "name": "addAddress",
          "type": "address"
        }
      ],
      "name": "addWhiteList",
      "outputs": [],
      "payable": false,
      "stateMutability": "nonpayable",
      "type": "function"
    },
    {
      "constant": true,
      "inputs": [],
      "name": "getOperator",
      "outputs": [
        {
          "name": "",
          "type": "address[]"
        }
      ],
      "payable": false,
      "stateMutability": "view",
      "type": "function"
    },
    {
      "constant": false,
      "inputs": [
        {
          "name": "numerator",
          "type": "uint256"
        },
        {
          "name": "denominator",
          "type": "uint256"
        }
      ],
      "name": "setCollateralRate",
      "outputs": [],
      "payable": false,
      "stateMutability": "nonpayable",
      "type": "function"
    },
    {
      "constant": true,
      "inputs": [],
      "name": "getAllFeeBalances",
      "outputs": [
        {
          "name": "",
          "type": "address[]"
        },
        {
          "name": "",
          "type": "uint256[]"
        }
      ],
      "payable": false,
      "stateMutability": "view",
      "type": "function"
    },
    {
      "constant": false,
      "inputs": [
        {
          "name": "newOwner",
          "type": "address"
        }
      ],
      "name": "transferOwnership",
      "outputs": [],
      "payable": false,
      "stateMutability": "nonpayable",
      "type": "function"
    },
    {
      "constant": false,
      "inputs": [
        {
          "name": "halt",
          "type": "bool"
        }
      ],
      "name": "setHalt",
      "outputs": [],
      "payable": false,
      "stateMutability": "nonpayable",
      "type": "function"
    },
    {
      "inputs": [
        {
          "name": "oracleAddr",
          "type": "address"
        },
        {
          "name": "optionsPriceAddr",
          "type": "address"
        },
        {
          "name": "optionsPoolAddr",
          "type": "address"
        },
        {
          "name": "collateralPoolAddr",
          "type": "address"
        },
        {
          "name": "FPTCoinAddr",
          "type": "address"
        }
      ],
      "payable": false,
      "stateMutability": "nonpayable",
      "type": "constructor"
    },
    {
      "anonymous": false,
      "inputs": [
        {
          "indexed": true,
          "name": "from",
          "type": "address"
        },
        {
          "indexed": true,
          "name": "settlement",
          "type": "address"
        },
        {
          "indexed": true,
          "name": "optionId",
          "type": "uint256"
        },
        {
          "indexed": false,
          "name": "optionPrice",
          "type": "uint256"
        },
        {
          "indexed": false,
          "name": "settlementAmount",
          "type": "uint256"
        },
        {
          "indexed": false,
          "name": "optionAmount",
          "type": "uint256"
        }
      ],
      "name": "BuyOption",
      "type": "event"
    },
    {
      "anonymous": false,
      "inputs": [
        {
          "indexed": true,
          "name": "from",
          "type": "address"
        },
        {
          "indexed": true,
          "name": "optionId",
          "type": "uint256"
        },
        {
          "indexed": false,
          "name": "amount",
          "type": "uint256"
        },
        {
          "indexed": false,
          "name": "sellValue",
          "type": "uint256"
        }
      ],
      "name": "SellOption",
      "type": "event"
    },
    {
      "anonymous": false,
      "inputs": [
        {
          "indexed": true,
          "name": "from",
          "type": "address"
        },
        {
          "indexed": true,
          "name": "optionId",
          "type": "uint256"
        },
        {
          "indexed": false,
          "name": "amount",
          "type": "uint256"
        },
        {
          "indexed": false,
          "name": "sellValue",
          "type": "uint256"
        }
      ],
      "name": "ExerciseOption",
      "type": "event"
    },
    {
      "anonymous": false,
      "inputs": [
        {
          "indexed": false,
          "name": "value0",
          "type": "uint256"
        },
        {
          "indexed": false,
          "name": "value1",
          "type": "uint256"
        },
        {
          "indexed": false,
          "name": "value2",
          "type": "uint256"
        },
        {
          "indexed": false,
          "name": "value3",
          "type": "uint256"
        }
      ],
      "name": "DebugEvent",
      "type": "event"
    },
    {
      "anonymous": false,
      "inputs": [
        {
          "indexed": true,
          "name": "from",
          "type": "address"
        },
        {
          "indexed": true,
          "name": "collateral",
          "type": "address"
        },
        {
          "indexed": false,
          "name": "amount",
          "type": "uint256"
        },
        {
          "indexed": false,
          "name": "tokenAmount",
          "type": "uint256"
        }
      ],
      "name": "AddCollateral",
      "type": "event"
    },
    {
      "anonymous": false,
      "inputs": [
        {
          "indexed": true,
          "name": "from",
          "type": "address"
        },
        {
          "indexed": false,
          "name": "collateral",
          "type": "address"
        },
        {
          "indexed": false,
          "name": "allRedeem",
          "type": "uint256"
        }
      ],
      "name": "RedeemCollateral",
      "type": "event"
    },
    {
      "anonymous": false,
      "inputs": [
        {
          "indexed": true,
          "name": "value1",
          "type": "uint256"
        },
        {
          "indexed": true,
          "name": "value2",
          "type": "uint256"
        },
        {
          "indexed": true,
          "name": "value3",
          "type": "uint256"
        }
      ],
      "name": "DebugEvent",
      "type": "event"
    },
    {
      "anonymous": false,
      "inputs": [
        {
          "indexed": false,
          "name": "value1",
          "type": "int256"
        },
        {
          "indexed": false,
          "name": "value2",
          "type": "int256"
        },
        {
          "indexed": false,
          "name": "value3",
          "type": "int256"
        }
      ],
      "name": "DebugEventInt",
      "type": "event"
    },
    {
      "anonymous": false,
      "inputs": [
        {
          "indexed": true,
          "name": "recieptor",
          "type": "address"
        },
        {
          "indexed": true,
          "name": "settlement",
          "type": "address"
        },
        {
          "indexed": false,
          "name": "payback",
          "type": "uint256"
        }
      ],
      "name": "FeePayback",
      "type": "event"
    },
    {
      "anonymous": false,
      "inputs": [
        {
          "indexed": true,
          "name": "settlement",
          "type": "address"
        },
        {
          "indexed": false,
          "name": "payback",
          "type": "uint256"
        }
      ],
      "name": "AddFee",
      "type": "event"
    },
    {
      "anonymous": false,
      "inputs": [
        {
          "indexed": true,
          "name": "recieptor",
          "type": "address"
        },
        {
          "indexed": true,
          "name": "settlement",
          "type": "address"
        },
        {
          "indexed": false,
          "name": "payback",
          "type": "uint256"
        }
      ],
      "name": "TransferPayback",
      "type": "event"
    },
    {
      "anonymous": false,
      "inputs": [
        {
          "indexed": true,
          "name": "previousOwner",
          "type": "address"
        },
        {
          "indexed": true,
          "name": "newOwner",
          "type": "address"
        }
      ],
      "name": "OwnershipTransferred",
      "type": "event"
    },
    {
      "constant": true,
      "inputs": [],
      "name": "getPriceRateRange",
      "outputs": [
        {
          "name": "",
          "type": "uint256"
        },
        {
          "name": "",
          "type": "uint256"
        }
      ],
      "payable": false,
      "stateMutability": "view",
      "type": "function"
    },
    {
      "constant": false,
      "inputs": [
        {
          "name": "_minPriceRate",
          "type": "uint256"
        },
        {
          "name": "_maxPriceRate",
          "type": "uint256"
        }
      ],
      "name": "setPriceRateRange",
      "outputs": [],
      "payable": false,
      "stateMutability": "nonpayable",
      "type": "function"
    },
    {
      "constant": false,
      "inputs": [
        {
          "name": "settlement",
          "type": "address"
        },
        {
          "name": "settlementAmount",
          "type": "uint256"
        },
        {
          "name": "strikePrice",
          "type": "uint256"
        },
        {
          "name": "underlying",
          "type": "uint32"
        },
        {
          "name": "expiration",
          "type": "uint256"
        },
        {
          "name": "amount",
          "type": "uint256"
        },
        {
          "name": "optType",
          "type": "uint8"
        }
      ],
      "name": "buyOption",
      "outputs": [],
      "payable": true,
      "stateMutability": "payable",
      "type": "function"
    },
    {
      "constant": false,
      "inputs": [
        {
          "name": "optionsId",
          "type": "uint256"
        },
        {
          "name": "amount",
          "type": "uint256"
        }
      ],
      "name": "sellOption",
      "outputs": [],
      "payable": false,
      "stateMutability": "nonpayable",
      "type": "function"
    },
    {
      "constant": false,
      "inputs": [
        {
          "name": "optionsId",
          "type": "uint256"
        },
        {
          "name": "amount",
          "type": "uint256"
        }
      ],
      "name": "exerciseOption",
      "outputs": [],
      "payable": false,
      "stateMutability": "nonpayable",
      "type": "function"
    }
  ],
  "bytecode": "0x6000805460ff60a860020a60ff02011916905560c060405260056080819052600160a0819052600a91909155600b55610e10600d556c0c9f2c9cd04674edea40000000600e55633b9aca00600f556105dc6011556101f46012553480156200006657600080fd5b5060405160a08062006464833981016040818152825160208401519184015160608501516080909501516000805461010033810261010060a860020a0319909216919091178083559497959693959492939204600160a060020a0316917f8be0079c531659141344cd1fd0a4f28419497f9722a3daafe3b4186f6b6457e0908290a360408051808201825260008082526103e860208084018281526004805460018181018355828752965160029182027f8a35acfbc15ff81a39ae7d344fd709f28e8600b4aa8c65c6b64bfe7fe36bd19b8181019290925593517f8a35acfbc15ff81a39ae7d344fd709f28e8600b4aa8c65c6b64bfe7fe36bd19c948501558851808a018a52603281528086018781528454808b018655858a5291519184028084019290925551908501558851808a018a528781528086018781528454808b018655858a5291519184028084019290925551908501558851808a018a528781528086018781528454808b018655858a5291519184028084019290925551908501558851808a01909952868952938801948552815496870182559452945193909202918201929092559051910155620002278564010000000062000282810204565b6200023b8464010000000062000314810204565b6200024f83640100000000620003a6810204565b620002638164010000000062000438810204565b6200027782640100000000620004ca810204565b505050505062000572565b620002956401000000006200055c810204565b1515620002f257604080517f08c379a0000000000000000000000000000000000000000000000000000000008152602060048201819052602482015260008051602062006444833981519152604482015290519081900360640190fd5b60068054600160a060020a031916600160a060020a0392909216919091179055565b620003276401000000006200055c810204565b15156200038457604080517f08c379a0000000000000000000000000000000000000000000000000000000008152602060048201819052602482015260008051602062006444833981519152604482015290519081900360640190fd5b60108054600160a060020a031916600160a060020a0392909216919091179055565b620003b96401000000006200055c810204565b15156200041657604080517f08c379a0000000000000000000000000000000000000000000000000000000008152602060048201819052602482015260008051602062006444833981519152604482015290519081900360640190fd5b60078054600160a060020a031916600160a060020a0392909216919091179055565b6200044b6401000000006200055c810204565b1515620004a857604080517f08c379a0000000000000000000000000000000000000000000000000000000008152602060048201819052602482015260008051602062006444833981519152604482015290519081900360640190fd5b60058054600160a060020a031916600160a060020a0392909216919091179055565b620004dd6401000000006200055c810204565b15156200053a57604080517f08c379a0000000000000000000000000000000000000000000000000000000008152602060048201819052602482015260008051602062006444833981519152604482015290519081900360640190fd5b60088054600160a060020a031916600160a060020a0392909216919091179055565b6000546101009004600160a060020a0316331490565b615ec280620005826000396000f3006080604052600436106102bb5763ffffffff60e060020a600035041663059621d781146102c057806309a9d76c146102f55780630aaf38321461035a5780630c80d691146103815780631730b3cb146103a25780631a5a3fce146103c55780632042e5c2146103e6578063251e2fe3146104075780632f4350c21461043857806332c82a5f1461044d57806334e731221461047157806342049a721461048c578063447dbeac146104ad5780634c69c00f146104ce5780635bf5d897146104ef5780635ca4b73b1461050a5780636b6ecea81461051f5780636d75b9ee14610540578063715018a6146105575780637c9c67121461056c578063817bf86d14610587578063852185fc146105a85780638691a8c5146105d65780638da5cb5b146105ed5780638f32d59b14610602578063925c482c1461061757806395a2251f146106465780639870d7fe146106675780639ab91a3514610688578063a093e2d0146106a3578063a20a8045146106c4578063a37c4fcf146106e8578063a56ea40314610778578063a8cbcb0114610799578063ac8a584a146107b1578063aec62806146107d2578063b18b78dd146107e7578063b4d5a9c7146107fc578063bc2c300214610823578063bc9abed214610838578063bdac4bf61461084d578063bf36b1101461086e578063c040725a1461088c578063c219043b146108a1578063c5e5a3ed146108c5578063c78f6803146108da578063cd405819146108fb578063d189290414610910578063d2aaef4e1461092b578063d6eb591014610943578063d7e5799214610958578063dab551291461096d578063e28a327d14610982578063e7122ffd14610997578063e7a1c1c0146109b8578063e7cd4a04146109dc578063e7f43c68146109fd578063ef63e1f714610a12578063f20568cd14610a2d578063f2fde38b14610adb578063f495438714610afc575b600080fd5b3480156102cc57600080fd5b506102e1600160a060020a0360043516610b16565b604080519115158252519081900360200190f35b34801561030157600080fd5b5061030a610b4e565b60408051602080825283518183015283519192839290830191858101910280838360005b8381101561034657818101518382015260200161032e565b505050509050019250505060405180910390f35b34801561036657600080fd5b5061036f610bb1565b60408051918252519081900360200190f35b34801561038d57600080fd5b5061036f600160a060020a0360043516610bd0565b3480156103ae57600080fd5b506103c3600160a060020a0360043516610d1b565b005b3480156103d157600080fd5b506103c3600160a060020a0360043516610d96565b3480156103f257600080fd5b506102e1600160a060020a0360043516610e11565b34801561041357600080fd5b5061041c610e6a565b60408051600160a060020a039092168252519081900360200190f35b34801561044457600080fd5b506103c3610e79565b34801561045957600080fd5b5061036f60043560243560443560ff60643516610f0c565b34801561047d57600080fd5b5061036f600435602435610f3e565b34801561049857600080fd5b5061036f600160a060020a0360043516610f7e565b3480156104b957600080fd5b5061036f600160a060020a036004351661101b565b3480156104da57600080fd5b506103c3600160a060020a036004351661116b565b3480156104fb57600080fd5b506103c36004356024356111e6565b34801561051657600080fd5b5061041c61123d565b34801561052b57600080fd5b5061036f600160a060020a036004351661124c565b6103c3600160a060020a03600435166024356113aa565b34801561056357600080fd5b506103c361183c565b34801561057857600080fd5b506103c36004356024356118e4565b34801561059357600080fd5b506102e1600160a060020a0360043516611e1b565b3480156105b457600080fd5b506105bd611e81565b6040805192835260208301919091528051918290030190f35b6103c3600160a060020a0360043516602435611e8b565b3480156105f957600080fd5b5061041c611fbf565b34801561060e57600080fd5b506102e1611fd3565b6103c3600160a060020a036004351660243560443563ffffffff6064351660843560a43560ff60c43516611fe9565b34801561065257600080fd5b506103c3600160a060020a0360043516612370565b34801561067357600080fd5b506103c3600160a060020a0360043516612560565b34801561069457600080fd5b506103c36004356024356125b7565b3480156106af57600080fd5b506103c3600160a060020a036004351661260e565b3480156106d057600080fd5b506103c3600435600160a060020a0360243516612689565b3480156106f457600080fd5b50604080516020600480358082013583810280860185019096528085526103c395369593946024949385019291829185019084908082843750506040805187358901803560208181028481018201909552818452989b9a9989019892975090820195509350839250850190849080828437509497505093359450612b359350505050565b34801561078457600080fd5b5061030a600160a060020a0360043516612e0d565b3480156107a557600080fd5b506103c3600435612ed3565b3480156107bd57600080fd5b506102e1600160a060020a0360043516612f24565b3480156107de57600080fd5b506105bd612f7d565b3480156107f357600080fd5b5061041c612f87565b34801561080857600080fd5b5061036f600160a060020a0360043581169060243516612f96565b34801561082f57600080fd5b506103c361303c565b34801561084457600080fd5b506105bd61378b565b34801561085957600080fd5b506102e1600160a060020a0360043516613795565b34801561087a57600080fd5b506103c36004356024356044356137c9565b34801561089857600080fd5b5061041c61382d565b3480156108ad57600080fd5b506103c3600160a060020a036004351660243561383c565b3480156108d157600080fd5b5061036f6138a4565b3480156108e657600080fd5b5061036f600160a060020a036004351661396b565b34801561090757600080fd5b5061036f613986565b34801561091c57600080fd5b506103c3600435602435613a1a565b34801561093757600080fd5b506105bd600435613ed2565b34801561094f57600080fd5b5061036f613ef3565b34801561096457600080fd5b5061041c614005565b34801561097957600080fd5b5061036f614014565b34801561098e57600080fd5b5061036f6140a5565b3480156109a357600080fd5b506103c3600160a060020a03600435166140b2565b3480156109c457600080fd5b506103c3600435600160a060020a036024351661412d565b3480156109e857600080fd5b506103c3600160a060020a03600435166141bb565b348015610a0957600080fd5b5061030a614232565b348015610a1e57600080fd5b506103c3600435602435614292565b348015610a3957600080fd5b50610a426142e9565b604051808060200180602001838103835285818151815260200191508051906020019060200280838360005b83811015610a86578181015183820152602001610a6e565b50505050905001838103825284818151815260200191508051906020019060200280838360005b83811015610ac5578181015183820152602001610aad565b5050505090500194505050505060405180910390f35b348015610ae757600080fd5b506103c3600160a060020a03600435166143f2565b348015610b0857600080fd5b506103c36004351515614447565b6000610b2182611e1b565b8015610b485750600160a060020a0382166000908152600260208190526040909120548116145b92915050565b60606001805480602002602001604051908101604052809291908181526020018280548015610ba657602002820191906000526020600020905b8154600160a060020a03168152600190910190602001808311610b88575b505050505090505b90565b6000610bcb610bbe613ef3565b610bc6613986565b6144c3565b905090565b600854604080517f6b6ecea8000000000000000000000000000000000000000000000000000000008152600160a060020a038481166004830152915160009384938493911691636b6ecea89160248082019260209290919082900301818787803b158015610c3d57600080fd5b505af1158015610c51573d6000803e3d6000fd5b505050506040513d6020811015610c6757600080fd5b5051600754604080517f7e1bcb76000000000000000000000000000000000000000000000000000000008152600160a060020a0388811660048301529151939550911691637e1bcb76916024808201926020929091908290030181600087803b158015610cd357600080fd5b505af1158015610ce7573d6000803e3d6000fd5b505050506040513d6020811015610cfd57600080fd5b50519050610d11828263ffffffff6144de16565b92505b5050919050565b610d23611fd3565b1515610d67576040805160e560020a62461bcd0281526020600482018190526024820152600080516020615e57833981519152604482015290519081900360640190fd5b6008805473ffffffffffffffffffffffffffffffffffffffff1916600160a060020a0392909216919091179055565b610d9e611fd3565b1515610de2576040805160e560020a62461bcd0281526020600482018190526024820152600080516020615e57833981519152604482015290519081900360640190fd5b6007805473ffffffffffffffffffffffffffffffffffffffff1916600160a060020a0392909216919091179055565b6000610e1b611fd3565b1515610e5f576040805160e560020a62461bcd0281526020600482018190526024820152600080516020615e57833981519152604482015290519081900360640190fd5b610b48600183614520565b600854600160a060020a031690565b6000610e83611fd3565b1515610ec7576040805160e560020a62461bcd0281526020600482018190526024820152600080516020615e57833981519152604482015290519081900360640190fd5b5060005b600154811015610f0957610f01600182815481101515610ee757fe5b600091825260209091200154600160a060020a0316612370565b600101610ecb565b50565b60008060ff8316158587111415610f265750848302610f2b565b508383025b610f348161460d565b9695505050505050565b6000806000610f4c8561463d565b8054909250610f61908563ffffffff6146bc16565b9050816001015481811515610f7257fe5b0492505b505092915050565b600854604080517f42049a72000000000000000000000000000000000000000000000000000000008152600160a060020a038481166004830152915160009392909216916342049a729160248082019260209290919082900301818787803b158015610fe957600080fd5b505af1158015610ffd573d6000803e3d6000fd5b505050506040513d602081101561101357600080fd5b505192915050565b600554604080517f07e77aa0000000000000000000000000000000000000000000000000000000008152600160a060020a0384811660048301529151600093610b489316916307e77aa091602480830192602092919082900301818887803b15801561108657600080fd5b505af115801561109a573d6000803e3d6000fd5b505050506040513d60208110156110b057600080fd5b5051600554604080517f70a08231000000000000000000000000000000000000000000000000000000008152600160a060020a038781166004830152915161115f9392909216916370a08231916024808201926020929091908290030181600087803b15801561111f57600080fd5b505af1158015611133573d6000803e3d6000fd5b505050506040513d602081101561114957600080fd5b50516111536138a4565b9063ffffffff6146bc16565b9063ffffffff61476616565b611173611fd3565b15156111b7576040805160e560020a62461bcd0281526020600482018190526024820152600080516020615e57833981519152604482015290519081900360640190fd5b6006805473ffffffffffffffffffffffffffffffffffffffff1916600160a060020a0392909216919091179055565b6111ee611fd3565b1515611232576040805160e560020a62461bcd0281526020600482018190526024820152600080516020615e57833981519152604482015290519081900360640190fd5b601291909155601155565b601054600160a060020a031690565b600854604080517f6b6ecea8000000000000000000000000000000000000000000000000000000008152600160a060020a038481166004830152915160009384938493911691636b6ecea89160248082019260209290919082900301818787803b1580156112b957600080fd5b505af11580156112cd573d6000803e3d6000fd5b505050506040513d60208110156112e357600080fd5b5051600754604080517f7e1bcb76000000000000000000000000000000000000000000000000000000008152600160a060020a0388811660048301529151939550911691637e1bcb76916024808201926020929091908290030181600087803b15801561134f57600080fd5b505af1158015611363573d6000803e3d6000fd5b505050506040513d602081101561137957600080fd5b5051905061138d828263ffffffff6144de16565b915060008213156113a057819250610d14565b5060009392505050565b6000805481908190819060ff16156113c157600080fd5b6000805460ff19166001179081905560a860020a900460ff161561141d576040805160e560020a62461bcd0281526020600482015260176024820152600080516020615e77833981519152604482015290519081900360640190fd5b61142786866147c3565b945060008511611481576040805160e560020a62461bcd02815260206004820152601a60248201527f736574746c656d656e7420616d6f756e74206973207a65726f21000000000000604482015290519081900360640190fd5b61148c600386610f3e565b935061149886856149d5565b6006546040805160e060020a6341976e09028152600160a060020a0389811660048301529151978790039791909216916341976e099160248083019260209291908290030181600087803b1580156114ef57600080fd5b505af1158015611503573d6000803e3d6000fd5b505050506040513d602081101561151957600080fd5b5051925061152d838663ffffffff6146bc16565b91506115376138a4565b8281151561154157fe5b600854604080517f692a76a7000000000000000000000000000000000000000000000000000000008152336004820152602481018790529051939092049350600160a060020a03169163692a76a79160448082019260009290919082900301818387803b1580156115b157600080fd5b505af11580156115c5573d6000803e3d6000fd5b5050600854604080517f2b2d50c3000000000000000000000000000000000000000000000000000000008152600160a060020a038b81166004830152602482018b90529151919092169350632b2d50c39250604480830192600092919082900301818387803b15801561163757600080fd5b505af115801561164b573d6000803e3d6000fd5b5050600854604080517fd56dbe88000000000000000000000000000000000000000000000000000000008152336004820152600160a060020a038b81166024830152604482018b9052915191909216935063d56dbe889250606480830192600092919082900301818387803b1580156116c357600080fd5b505af11580156116d7573d6000803e3d6000fd5b50506008546040805160e060020a63fee80a49028152600160a060020a038b81166004830152602482018b9052915191909216935063fee80a499250604480830192600092919082900301818387803b15801561173357600080fd5b505af1158015611747573d6000803e3d6000fd5b5050336000818152600c602090815260409182902042905581518a81529081018690528151600160a060020a038c1695509293507f33a089d94f9a0b7d0fe21e69b40d7dbe1965be652c7382cc778d46963db8c49b929081900390910190a3600554604080517f40c10f19000000000000000000000000000000000000000000000000000000008152336004820152602481018490529051600160a060020a03909216916340c10f199160448082019260009290919082900301818387803b15801561181257600080fd5b505af1158015611826573d6000803e3d6000fd5b50506000805460ff191690555050505050505050565b611844611fd3565b1515611888576040805160e560020a62461bcd0281526020600482018190526024820152600080516020615e57833981519152604482015290519081900360640190fd5b60008054604051610100909104600160a060020a0316907f8be0079c531659141344cd1fd0a4f28419497f9722a3daafe3b4186f6b6457e0908390a36000805474ffffffffffffffffffffffffffffffffffffffff0019169055565b600080548190819081908190819081908190819060ff161561190557600080fd5b6000805460ff19166001179081905560a860020a900460ff1615611961576040805160e560020a62461bcd0281526020600482015260176024820152600080516020615e77833981519152604482015290519081900360640190fd5b61196a8a614a36565b600754604080517f67b8ceb9000000000000000000000000000000000000000000000000000000008152600481018e9052602481018d90529051600160a060020a03909216916367b8ceb9916044808201926020929091908290030181600087803b1580156119d857600080fd5b505af11580156119ec573d6000803e3d6000fd5b505050506040513d6020811015611a0257600080fd5b50519850881515611a1257611e04565b600754604080517f48ee201d000000000000000000000000000000000000000000000000000000008152600481018e90529051600160a060020a03909216916348ee201d9160248082019260e0929091908290030181600087803b158015611a7957600080fd5b505af1158015611a8d573d6000803e3d6000fd5b505050506040513d60e0811015611aa357600080fd5b506040808201516060830151608084015160a09094015160065484517fda66325700000000000000000000000000000000000000000000000000000000815263ffffffff841660048201529451939d50919b50429094039950929750600160a060020a039092169163da663257916024808201926020929091908290030181600087803b158015611b3357600080fd5b505af1158015611b47573d6000803e3d6000fd5b505050506040513d6020811015611b5d57600080fd5b5051601054604080517f4b7d8e5c0000000000000000000000000000000000000000000000000000000081526004810184905260248101899052604481018a905263ffffffff8b16606482015260ff8c1660848201529051929650600160a060020a0390911691634b7d8e5c9160a4808201926020929091908290030181600087803b158015611bec57600080fd5b505af1158015611c00573d6000803e3d6000fd5b505050506040513d6020811015611c1657600080fd5b5051600754604080517f6ed82ec9000000000000000000000000000000000000000000000000000000008152336004820152602481018f9052604481018e9052606481018490529051929550600160a060020a0390911691636ed82ec99160848082019260009290919082900301818387803b158015611c9557600080fd5b505af1158015611ca9573d6000803e3d6000fd5b50505050600760009054906101000a9004600160a060020a0316600160a060020a031663597ce9008c8c6040518363ffffffff1660e060020a02815260040180838152602001828152602001925050506040805180830381600087803b158015611d1257600080fd5b505af1158015611d26573d6000803e3d6000fd5b505050506040513d6040811015611d3c57600080fd5b5080516020909101516008546040805160e060020a63fee80a49028152600160a060020a038086166004830152602482018590529151949650929450169163fee80a499160448082019260009290919082900301818387803b158015611da157600080fd5b505af1158015611db5573d6000803e3d6000fd5b50505050611dc4896002614ac6565b604080518b8152602081018b905281518d9233927fc939d87d6a5458cd262393bdb2c5408330b7647ca14b752229b0301858a29972929081900390910190a35b50506000805460ff19169055505050505050505050565b6000610b486001805480602002602001604051908101604052809291908181526020018280548015611e7657602002820191906000526020600020905b8154600160a060020a03168152600190910190602001808311611e58575b505050505083614d1e565b600a54600b549091565b60095460019081108015611ec257506009805433919083908110611eab57fe5b600091825260209091200154600160a060020a0316145b1515611f3e576040805160e560020a62461bcd02815260206004820152603060248201527f4d616e6167657261626c653a2063616c6c6572206973206e6f7420746865206560448201527f6c696769626c65204f70657261746f7200000000000000000000000000000000606482015290519081900360840190fd5b611f4883836147c3565b6008546040805160e060020a63fee80a49028152600160a060020a03878116600483015260248201859052915193955091169163fee80a499160448082019260009290919082900301818387803b158015611fa257600080fd5b505af1158015611fb6573d6000803e3d6000fd5b50505050505050565b6000546101009004600160a060020a031690565b6000546101009004600160a060020a0316331490565b600080548190819060ff1615611ffe57600080fd5b6000805460ff19166001179081905560a860020a900460ff161561205a576040805160e560020a62461bcd0281526020600482015260176024820152600080516020615e77833981519152604482015290519081900360640190fd5b600754604080517f3ad2fb570000000000000000000000000000000000000000000000000000000081526004810189905263ffffffff8a1660248201529051600160a060020a0390921691633ad2fb579160448082019260009290919082900301818387803b1580156120cc57600080fd5b505af11580156120e0573d6000803e3d6000fd5b505050506120fa8460ff168863ffffffff16886000614d6f565b600654604080517fda66325700000000000000000000000000000000000000000000000000000000815263ffffffff8b1660048201529051929550600160a060020a039091169163da663257916024808201926020929091908290030181600087803b15801561216957600080fd5b505af115801561217d573d6000803e3d6000fd5b505050506040513d602081101561219357600080fd5b505191506121a18883614db7565b601054604080517f4b7d8e5c00000000000000000000000000000000000000000000000000000000815260048101859052602481018b90526044810189905263ffffffff8a16606482015260ff871660848201529051600160a060020a0390921691634b7d8e5c9160a4808201926020929091908290030181600087803b15801561222b57600080fd5b505af115801561223f573d6000803e3d6000fd5b505050506040513d602081101561225557600080fd5b5051905061226588838787610f0c565b61226d6140a5565b10156122c3576040805160e560020a62461bcd02815260206004820152601b60248201527f636f6c6c61746572616c20697320696e73756666696369656e74210000000000604482015290519081900360640190fd5b600754604080517f924a69ce000000000000000000000000000000000000000000000000000000008152336004820152600160a060020a038d8116602483015260448201879052606482018c90526084820185905260a482018990529151919092169163924a69ce9160c480830192600092919082900301818387803b15801561234c57600080fd5b505af1158015612360573d6000803e3d6000fd5b505050506118268a8a8388614e57565b60008061237b611fd3565b15156123bf576040805160e560020a62461bcd0281526020600482018190526024820152600080516020615e57833981519152604482015290519081900360640190fd5b600160a060020a03831660009081526003602052604081205492508211612430576040805160e560020a62461bcd02815260206004820152601260248201527f4974277320656d7074792062616c616e63650000000000000000000000000000604482015290519081900360640190fd5b600160a060020a038316600081815260036020526040812055151561248257604051339083156108fc029084906000818181858888f1935050505015801561247c573d6000803e3d6000fd5b5061251b565b50604080517fa9059cbb0000000000000000000000000000000000000000000000000000000081523360048201526024810183905290518391600160a060020a0383169163a9059cbb916044808201926020929091908290030181600087803b1580156124ee57600080fd5b505af1158015612502573d6000803e3d6000fd5b505050506040513d602081101561251857600080fd5b50505b604080518381529051600160a060020a0385169133917f747147be90b2a81a2e929994a92cd7bb71396bdbfd02f181867c81187d4f79449181900360200190a3505050565b612568611fd3565b15156125ac576040805160e560020a62461bcd0281526020600482018190526024820152600080516020615e57833981519152604482015290519081900360640190fd5b610f09600982615229565b6125bf611fd3565b1515612603576040805160e560020a62461bcd0281526020600482018190526024820152600080516020615e57833981519152604482015290519081900360640190fd5b600f91909155600e55565b612616611fd3565b151561265a576040805160e560020a62461bcd0281526020600482018190526024820152600080516020615e57833981519152604482015290519081900360640190fd5b6010805473ffffffffffffffffffffffffffffffffffffffff1916600160a060020a0392909216919091179055565b6000805481908190819081908190819060ff16156126a657600080fd5b6000805460ff19166001179081905560a860020a900460ff1615612702576040805160e560020a62461bcd0281526020600482015260176024820152600080516020615e77833981519152604482015290519081900360640190fd5b61270b89614a36565b61271488610b16565b151561276a576040805160e560020a62461bcd02815260206004820152601f60248201527f736574746c656d656e7420697320756e737570706f7274656420746f6b656e00604482015290519081900360640190fd5b600d54336000908152600c6020526040902054429101106127fb576040805160e560020a62461bcd02815260206004820152602960248201527f636f6c6c61746572616c206c6f636b206c696d69746174696f6e206973206e6f60448201527f7420657870697265640000000000000000000000000000000000000000000000606482015290519081900360840190fd5b600554604080517f593557360000000000000000000000000000000000000000000000000000000081523360048201529051600160a060020a03909216916359355736916024808201926020929091908290030181600087803b15801561286157600080fd5b505af1158015612875573d6000803e3d6000fd5b505050506040513d602081101561288b57600080fd5b5051600554604080517f70a0823100000000000000000000000000000000000000000000000000000000815233600482015290519299508b928a92600160a060020a0316916370a082319160248083019260209291908290030181600087803b1580156128f757600080fd5b505af115801561290b573d6000803e3d6000fd5b505050506040513d602081101561292157600080fd5b505101101561297a576040805160e560020a62461bcd02815260206004820152601e60248201527f53436f696e2062616c616e636520697320696e73756666696369656e74210000604482015290519081900360640190fd5b6129833361101b565b955061298d610bb1565b600554604080517f35f0c4fa000000000000000000000000000000000000000000000000000000008152336004820152602481018d9052604481018490528151939850600160a060020a03909216926335f0c4fa9260648082019392918290030181600087803b158015612a0057600080fd5b505af1158015612a14573d6000803e3d6000fd5b505050506040513d6040811015612a2a57600080fd5b50805160209091015199039860009450925083891115612a875782850394506000871115612a6757868911612a60576000612a64565b8689035b98505b612a7189866152d0565b915091506000821115612a875781935080830192505b612a928884886153ba565b6000841115612b2057600554604080517f9dc29fac000000000000000000000000000000000000000000000000000000008152336004820152602481018790529051600160a060020a0390921691639dc29fac9160448082019260009290919082900301818387803b158015612b0757600080fd5b505af1158015612b1b573d6000803e3d6000fd5b505050505b50506000805460ff1916905550505050505050565b60095460009081108015612b6c57506009805433919083908110612b5557fe5b600091825260209091200154600160a060020a0316145b1515612be8576040805160e560020a62461bcd02815260206004820152603060248201527f4d616e6167657261626c653a2063616c6c6572206973206e6f7420746865206560448201527f6c696769626c65204f70657261746f7200000000000000000000000000000000606482015290519081900360840190fd5b6007546040517f2415e01000000000000000000000000000000000000000000000000000000000815260048101848152606060248301908152865160648401528651600160a060020a0390941693632415e0109387938993600193919290916044820191608401906020808801910280838360005b83811015612c75578181015183820152602001612c5d565b505050509050018381038252848181548152602001915080548015612cc357602002820191906000526020600020905b8154600160a060020a03168152600190910190602001808311612ca5575b505095505050505050600060405180830381600087803b158015612ce657600080fd5b505af1158015612cfa573d6000803e3d6000fd5b5050600854604080517f1f88286a000000000000000000000000000000000000000000000000000000008152600481019182526001805460448301819052600160a060020a039094169550631f88286a945092899291829160248201916064019086908015612d9257602002820191906000526020600020905b8154600160a060020a03168152600190910190602001808311612d74575b50508381038252845181528451602091820191808701910280838360005b83811015612dc8578181015183820152602001612db0565b50505050905001945050505050600060405180830381600087803b158015612def57600080fd5b505af1158015612e03573d6000803e3d6000fd5b5050505050505050565b60606000606080600080612e208761101b565b9450612e518760016000815481101515612e3657fe5b600091825260209091200154600160a060020a0316876155ca565b5060015491955093509150600090505b81811015612ec857612ea88382815181101515612e7a57fe5b906020019060200201518583815181101515612e9257fe5b602090810290910101519063ffffffff61476616565b8482815181101515612eb657fe5b60209081029091010152600101612e61565b509195945050505050565b612edb611fd3565b1515612f1f576040805160e560020a62461bcd0281526020600482018190526024820152600080516020615e57833981519152604482015290519081900360640190fd5b600d55565b6000612f2e611fd3565b1515612f72576040805160e560020a62461bcd0281526020600482018190526024820152600080516020615e57833981519152604482015290519081900360640190fd5b610b48600983614520565b6012546011549091565b600654600160a060020a031690565b600854604080517f6ba170b5000000000000000000000000000000000000000000000000000000008152600160a060020a038581166004830152848116602483015291516000939290921691636ba170b59160448082019260209290919082900301818787803b15801561300957600080fd5b505af115801561301d573d6000803e3d6000fd5b505050506040513d602081101561303357600080fd5b50909392505050565b60606000606060006060600080606080600080806009805490501180156130865750600980543391908390811061306f57fe5b600091825260209091200154600160a060020a0316145b1515613102576040805160e560020a62461bcd02815260206004820152603060248201527f4d616e6167657261626c653a2063616c6c6572206973206e6f7420746865206560448201527f6c696769626c65204f70657261746f7200000000000000000000000000000000606482015290519081900360840190fd5b600180548060200260200160405190810160405280929190818152602001828054801561315857602002820191906000526020600020905b8154600160a060020a0316815260019091019060200180831161313a575b50505050509a50600760009054906101000a9004600160a060020a0316600160a060020a0316636a43c05e8c6040518263ffffffff1660e060020a0281526004018080602001828103825283818151815260200191508051906020019060200280838360005b838110156131d65781810151838201526020016131be565b5050505090500192505050600060405180830381600087803b1580156131fb57600080fd5b505af115801561320f573d6000803e3d6000fd5b505050506040513d6000823e601f3d908101601f19168201604090815281101561323857600080fd5b81516020830180519193928301929164010000000081111561325957600080fd5b8201602081018481111561326c57600080fd5b815185602082028301116401000000008211171561328957600080fd5b505092919050505099509950600760009054906101000a9004600160a060020a0316600160a060020a031663bec3107f6040518163ffffffff1660e060020a028152600401602060405180830381600087803b1580156132e857600080fd5b505af11580156132fc573d6000803e3d6000fd5b505050506040513d602081101561331257600080fd5b81019080805190602001909291905050509750600760009054906101000a9004600160a060020a0316600160a060020a03166332ab5c20898c8b8f6040518563ffffffff1660e060020a0281526004018085815260200184815260200183815260200180602001828103825283818151815260200191508051906020019060200280838360005b838110156133b1578181015183820152602001613399565b5050505090500195505050505050600060405180830381600087803b1580156133d957600080fd5b505af11580156133ed573d6000803e3d6000fd5b505050506040513d6000823e601f3d908101601f19168201604052606081101561341657600080fd5b81019080805164010000000081111561342e57600080fd5b8201602081018481111561344157600080fd5b815185602082028301116401000000008211171561345e57600080fd5b50506020820151604090920151909a509098509650508515905061377e57600760009054906101000a9004600160a060020a0316600160a060020a031663c0c5fea78b888e6040518463ffffffff1660e060020a0281526004018084815260200183815260200180602001828103825283818151815260200191508051906020019060200280838360005b838110156135015781810151838201526020016134e9565b50505050905001945050505050600060405180830381600087803b15801561352857600080fd5b505af115801561353c573d6000803e3d6000fd5b505050506040513d6000823e601f3d908101601f19168201604052602081101561356557600080fd5b81019080805164010000000081111561357d57600080fd5b8201602081018481111561359057600080fd5b81518560208202830111640100000000821117156135ad57600080fd5b50509291905050509350600760009054906101000a9004600160a060020a0316600160a060020a03166343674c3a89888b8f6040518563ffffffff1660e060020a0281526004018085815260200184815260200183815260200180602001828103825283818151815260200191508051906020019060200280838360005b8381101561364357818101518382015260200161362b565b5050505090500195505050505050600060405180830381600087803b15801561366b57600080fd5b505af115801561367f573d6000803e3d6000fd5b505050506040513d6000823e601f3d908101601f1916820160405260208110156136a857600080fd5b8101908080516401000000008111156136c057600080fd5b820160208101848111156136d357600080fd5b81518560208202830111640100000000821117156136f057600080fd5b5090965060009550505050505b825182101561377357828281518110151561371457fe5b90602001906020020151898381518110151561372c57fe5b90602001906020020151888481518110151561374457fe5b906020019060200201510301838381518110151561375e57fe5b602090810290910101526001909101906136fd565b61377e848488612b35565b5050505050505050505050565b600f54600e549091565b60006137a082611e1b565b8015610b48575050600160a060020a031660009081526002602052604090205460019081161490565b60006137d3611fd3565b1515613817576040805160e560020a62461bcd0281526020600482018190526024820152600080516020615e57833981519152604482015290519081900360640190fd5b6138208461463d565b9283555060019091015550565b600754600160a060020a031690565b613844611fd3565b1515613888576040805160e560020a62461bcd0281526020600482018190526024820152600080516020615e57833981519152604482015290519081900360640190fd5b600160a060020a03909116600090815260026020526040902055565b6000806000600560009054906101000a9004600160a060020a0316600160a060020a03166318160ddd6040518163ffffffff1660e060020a028152600401602060405180830381600087803b1580156138fc57600080fd5b505af1158015613910573d6000803e3d6000fd5b505050506040513d602081101561392657600080fd5b5051915081151561393d576305f5e1009250613966565b81613946614014565b81151561394f57fe5b04905060648111613961576064613963565b805b92505b505090565b600160a060020a031660009081526003602052604090205490565b600080600760009054906101000a9004600160a060020a0316600160a060020a03166373a3d4246040518163ffffffff1660e060020a028152600401602060405180830381600087803b1580156139dc57600080fd5b505af11580156139f0573d6000803e3d6000fd5b505050506040513d6020811015613a0657600080fd5b50519050613a138161460d565b91505b5090565b600080548190819081908190819081908190819060ff1615613a3b57600080fd5b6000805460ff19166001179081905560a860020a900460ff1615613a97576040805160e560020a62461bcd0281526020600482015260176024820152600080516020615e77833981519152604482015290519081900360640190fd5b613aa08a614a36565b600754604080517f48ee201d000000000000000000000000000000000000000000000000000000008152600481018e90529051600160a060020a03909216916348ee201d9160248082019260e0929091908290030181600087803b158015613b0757600080fd5b505af1158015613b1b573d6000803e3d6000fd5b505050506040513d60e0811015613b3157600080fd5b5060408101516060820151608083015160a090930151919b5099509097509550613b61874263ffffffff61598b16565b600654604080517fda66325700000000000000000000000000000000000000000000000000000000815263ffffffff8c1660048201529051929950600160a060020a039091169163da663257916024808201926020929091908290030181600087803b158015613bd057600080fd5b505af1158015613be4573d6000803e3d6000fd5b505050506040513d6020811015613bfa57600080fd5b5051601054604080517f4b7d8e5c00000000000000000000000000000000000000000000000000000000815260048101849052602481018a9052604481018b905263ffffffff8c16606482015260ff8d1660848201529051929750600160a060020a0390911691634b7d8e5c9160a4808201926020929091908290030181600087803b158015613c8957600080fd5b505af1158015613c9d573d6000803e3d6000fd5b505050506040513d6020811015613cb357600080fd5b5051600754604080517f6ed82ec9000000000000000000000000000000000000000000000000000000008152336004820152602481018f9052604481018e9052606481018490529051929650600160a060020a0390911691636ed82ec99160848082019260009290919082900301818387803b158015613d3257600080fd5b505af1158015613d46573d6000803e3d6000fd5b50505050613d5d8a856146bc90919063ffffffff16565b600754604080517f597ce900000000000000000000000000000000000000000000000000000000008152600481018f9052602481018e90528151939650600160a060020a039092169263597ce9009260448082019392918290030181600087803b158015613dca57600080fd5b505af1158015613dde573d6000803e3d6000fd5b505050506040513d6040811015613df457600080fd5b5080516020909101516008546040805160e060020a63fee80a49028152600160a060020a038086166004830152602482018590529151949650929450169163fee80a499160448082019260009290919082900301818387803b158015613e5957600080fd5b505af1158015613e6d573d6000803e3d6000fd5b50505050613e7c836001614ac6565b604080518b81526020810185905281518d9233927f4d6194525a1265d47b1d6b65f640509c7a2a8aa847fd0654fac933032e1348ac929081900390910190a350506000805460ff19169055505050505050505050565b6000806000613ee08461463d565b8054600190910154909590945092505050565b6001546000908190818080805b84841015613fe8576001805485908110613f1657fe5b60009182526020808320909101546006546040805160e060020a6341976e09028152600160a060020a0393841660048201819052915191985091909216936341976e099360248084019491939192918390030190829087803b158015613f7b57600080fd5b505af1158015613f8f573d6000803e3d6000fd5b505050506040513d6020811015613fa557600080fd5b50519150613fb283610bd0565b90508015613fdd57613fda613fcd838363ffffffff6159cd16565b879063ffffffff6144de16565b95505b600190930192613f00565b6000861215613ff8576000613ffa565b855b965050505050505090565b600554600160a060020a031690565b6000610bcb614021613ef3565b600560009054906101000a9004600160a060020a0316600160a060020a031663dad3eb746040518163ffffffff1660e060020a028152600401602060405180830381600087803b15801561407457600080fd5b505af1158015614088573d6000803e3d6000fd5b505050506040513d602081101561409e57600080fd5b50516144c3565b6000610bcb610bbe614014565b6140ba611fd3565b15156140fe576040805160e560020a62461bcd0281526020600482018190526024820152600080516020615e57833981519152604482015290519081900360640190fd5b6005805473ffffffffffffffffffffffffffffffffffffffff1916600160a060020a0392909216919091179055565b614135611fd3565b1515614179576040805160e560020a62461bcd0281526020600482018190526024820152600080516020615e57833981519152604482015290519081900360640190fd5b8060098381548110151561418957fe5b9060005260206000200160006101000a815481600160a060020a030219169083600160a060020a031602179055505050565b6141c3611fd3565b1515614207576040805160e560020a62461bcd0281526020600482018190526024820152600080516020615e57833981519152604482015290519081900360640190fd5b614212600182615229565b600160a060020a0316600090815260026020526040902063ffffffff9055565b60606009805480602002602001604051908101604052809291908181526020018280548015610ba657602002820191906000526020600020908154600160a060020a03168152600190910190602001808311610b88575050505050905090565b61429a611fd3565b15156142de576040805160e560020a62461bcd0281526020600482018190526024820152600080516020615e57833981519152604482015290519081900360640190fd5b600a91909155600b55565b6060806060600060018054905060405190808252806020026020018201604052801561431f578160200160208202803883390190505b509150600090505b600154811015614389576003600060018381548110151561434457fe5b6000918252602080832090910154600160a060020a03168352820192909252604001902054825183908390811061437757fe5b60209081029091010152600101614327565b600182818054806020026020016040519081016040528092919081815260200182805480156143e157602002820191906000526020600020905b8154600160a060020a031681526001909101906020018083116143c3575b505050505091509350935050509091565b6143fa611fd3565b151561443e576040805160e560020a62461bcd0281526020600482018190526024820152600080516020615e57833981519152604482015290519081900360640190fd5b610f0981615a6c565b61444f611fd3565b1515614493576040805160e560020a62461bcd0281526020600482018190526024820152600080516020615e57833981519152604482015290519081900360640190fd5b6000805491151560a860020a0275ff00000000000000000000000000000000000000000019909216919091179055565b60008183116144d35760006144d7565b8183035b9392505050565b60006144d783836040805190810160405280601d81526020017f53616665496e743235363a206164646974696f6e206f766572666c6f77000000815250615b65565b8154600090815b8181101561456f5783600160a060020a0316858281548110151561454757fe5b600091825260209091200154600160a060020a031614156145675761456f565b600101614527565b8181101561460257600019820181146145e857846001830381548110151561459357fe5b6000918252602090912001548554600160a060020a03909116908690839081106145b957fe5b9060005260206000200160006101000a815481600160a060020a030219169083600160a060020a031602179055505b84546145f8866000198301615e13565b5060019250610f76565b506000949350505050565b600a546000908190614625908463ffffffff6146bc16565b600b549091508181151561463557fe5b049392505050565b6004546000908210614699576040805160e560020a62461bcd02815260206004820152601260248201527f66656520747970652069732076616c6964210000000000000000000000000000604482015290519081900360640190fd5b60048054839081106146a757fe5b90600052602060002090600202019050919050565b6000808315156146cf576000915061475f565b508282028284828115156146df57fe5b041461475b576040805160e560020a62461bcd02815260206004820152602160248201527f536166654d6174683a206d756c7469706c69636174696f6e206f766572666c6f60448201527f7700000000000000000000000000000000000000000000000000000000000000606482015290519081900360840190fd5b8091505b5092915050565b60008282018381101561475b576040805160e560020a62461bcd02815260206004820152601b60248201527f536166654d6174683a206164646974696f6e206f766572666c6f770000000000604482015290519081900360640190fd5b60008060006147d185613795565b1515614827576040805160e560020a62461bcd02815260206004820152601f60248201527f736574746c656d656e7420697320756e737570706f7274656420746f6b656e00604482015290519081900360640190fd5b60009150600160a060020a038516151561487e57600854604051349350600160a060020a039091169083156108fc029084906000818181858888f19350505050158015614878573d6000803e3d6000fd5b506149c4565b60008411156149c45750604080517f23b872dd0000000000000000000000000000000000000000000000000000000081523360048201523060248201526044810185905290518591600160a060020a038316916323b872dd916064808201926020929091908290030181600087803b1580156148f957600080fd5b505af115801561490d573d6000803e3d6000fd5b505050506040513d602081101561492357600080fd5b5050600854604080517fa9059cbb000000000000000000000000000000000000000000000000000000008152600160a060020a0392831660048201526024810187905290518694509183169163a9059cbb916044808201926020929091908290030181600087803b15801561499757600080fd5b505af11580156149ab573d6000803e3d6000fd5b505050506040513d60208110156149c157600080fd5b50505b6149cd82614a36565b509392505050565b6000811115614a3257600160a060020a038216600081815260036020908152604091829020805485019055815184815291517f1104eee7f034069140a0655d153038cedf9e65e5724018c555a8d56cfb6bee779281900390910190a25b5050565b80600e5410158015614a4a575080600f5411155b1515610f09576040805160e560020a62461bcd02815260206004820152602960248201527f696e70757420616d6f756e74206973206f7574206f6620696e70757420616d6f60448201527f756e742072616e67650000000000000000000000000000000000000000000000606482015290519081900360840190fd5b600154604080518281526020808402820101909152600091906060908390819081908190868015614b01578160200160208202803883390190505b509450600093505b85841015614c1a576001805485908110614b1f57fe5b60009182526020808320909101546006546040805160e060020a6341976e09028152600160a060020a0393841660048201819052915191985091909216936341976e099360248084019491939192918390030190829087803b158015614b8457600080fd5b505af1158015614b98573d6000803e3d6000fd5b505050506040513d6020811015614bae57600080fd5b50519150614bbb8361124c565b8585815181101515614bc957fe5b602090810290910101528451614c0d90614c0090879087908110614be957fe5b60209081029091010151849063ffffffff6146bc16565b889063ffffffff61476616565b9650600190930192614b09565b861515614c2657614d13565b600093505b85841015614d135786614c5c8a8787815181101515614c4657fe5b602090810290910101519063ffffffff6146bc16565b811515614c6557fe5b60085460018054939092049350600160a060020a031691632454047c91339188908110614c8e57fe5b60009182526020822001546040805160e060020a63ffffffff8716028152600160a060020a03948516600482015293909116602484015260448301869052606483018d90525160848084019382900301818387803b158015614cef57600080fd5b505af1158015614d03573d6000803e3d6000fd5b505060019095019450614c2b9050565b505050505050505050565b8151600090815b818110156146025783600160a060020a03168582815181101515614d4557fe5b90602001906020020151600160a060020a03161415614d675760019250610f76565b600101614d25565b68010000000000000000830284017001000000000000000000000000000000008302017801000000000000000000000000000000000000000000000000820201949350505050565b60115482906103e89083020410158015614ddb575060125482906103e89083020411155b1515614a32576040805160e560020a62461bcd02815260206004820152602160248201527f737472696b655072696365206973206f7574206f662070726963652072616e6760448201527f6500000000000000000000000000000000000000000000000000000000000000606482015290519081900360840190fd5b600080808080614e6d868863ffffffff6146bc16565b9450614e7989896147c3565b975060008811614ed3576040805160e560020a62461bcd02815260206004820152601a60248201527f736574746c656d656e7420616d6f756e74206973207a65726f21000000000000604482015290519081900360640190fd5b614ede600086610f3e565b6006546040805160e060020a6341976e09028152600160a060020a038d8116600483015291519397509116916341976e09916024808201926020929091908290030181600087803b158015614f3257600080fd5b505af1158015614f46573d6000803e3d6000fd5b505050506040513d6020811015614f5c57600080fd5b50519250848401614f73848a63ffffffff6146bc16565b1015614fef576040805160e560020a62461bcd02815260206004820152602160248201527f736574746c656d656e7420617373657420697320696e73756666696369656e7460448201527f2100000000000000000000000000000000000000000000000000000000000000606482015290519081900360840190fd5b6305f5e10085049150828581151561500357fe5b049450828481151561501157fe5b04935061501e89856149d5565b6150308886860163ffffffff61598b16565b975060008811156150c857600854604080517f9994eb14000000000000000000000000000000000000000000000000000000008152336004820152600160a060020a038c81166024830152604482018c905291519190921691639994eb1491606480830192600092919082900301818387803b1580156150af57600080fd5b505af11580156150c3573d6000803e3d6000fd5b505050505b600760009054906101000a9004600160a060020a0316600160a060020a031663bec3107f6040518163ffffffff1660e060020a028152600401602060405180830381600087803b15801561511b57600080fd5b505af115801561512f573d6000803e3d6000fd5b505050506040513d602081101561514557600080fd5b5051600554604080517f8399d9f3000000000000000000000000000000000000000000000000000000008152336004820152602481018690529051929350600160a060020a0390911691638399d9f39160448082019260009290919082900301818387803b1580156151b657600080fd5b505af11580156151ca573d6000803e3d6000fd5b5050604080518a8152602081018990528082018a90529051849350600160a060020a038d16925033917f09e4fd1b37f40234b903951f986d8b64cb9c99657348f04cda4a75fbe743684d919081900360600190a4505050505050505050565b61528c8280548060200260200160405190810160405280929190818152602001828054801561528157602002820191906000526020600020905b8154600160a060020a03168152600190910190602001808311615263575b505050505082614d1e565b1515614a32578154600181018355600083815260209020018054600160a060020a03831673ffffffffffffffffffffffffffffffffffffffff199091161790555050565b60008060008060008060006152e36138a4565b94508489029350878411156153a75784888115156152fd57fe5b60055491900493508584029250838a039150600160a060020a0316634b91a07b3383888181151561532a57fe5b046040518463ffffffff1660e060020a0281526004018084600160a060020a0316600160a060020a031681526020018381526020018281526020019350505050600060405180830381600087803b15801561538457600080fd5b505af1158015615398573d6000803e3d6000fd5b505050508282965096506153ae565b8884965096505b50505050509250929050565b60608080808515156153cb57611fb6565b60408051600160a060020a038916815260208101889052815133927fc994feb9b99296d80965b47aec6be0d25704ddf95b9b9bc1ed8bc753960d5809928290030190a26154193388876155ca565b93509350935061542887615c7c565b6008546040517fa2fa92c70000000000000000000000000000000000000000000000000000000081523360048201818152602483018b905260c060448401908152855160c48501528551959650600160a060020a039094169463a2fa92c79492938c9388938c938c938c93916064820191608481019160a482019160e401906020808c01910280838360005b838110156154cc5781810151838201526020016154b4565b50505050905001858103845288818151815260200191508051906020019060200280838360005b8381101561550b5781810151838201526020016154f3565b50505050905001858103835287818151815260200191508051906020019060200280838360005b8381101561554a578181015183820152602001615532565b50505050905001858103825286818151815260200191508051906020019060200280838360005b83811015615589578181015183820152602001615571565b505050509050019a5050505050505050505050600060405180830381600087803b1580156155b657600080fd5b505af115801561377e573d6000803e3d6000fd5b60608060608060608060006060806155e18b615c7c565b9550855160405190808252806020026020018201604052801561560e578160200160208202803883390190505b509450855160405190808252806020026020018201604052801561563c578160200160208202803883390190505b509350600092505b855183101561574c5761566d868481518110151561565e57fe5b9060200190602002015161124c565b848481518110151561567b57fe5b602090810290910101526006548651600160a060020a03909116906341976e09908890869081106156a857fe5b906020019060200201516040518263ffffffff1660e060020a0281526004018082600160a060020a0316600160a060020a03168152602001915050602060405180830381600087803b1580156156fd57600080fd5b505af1158015615711573d6000803e3d6000fd5b505050506040513d602081101561572757600080fd5b5051855186908590811061573757fe5b60209081029091010152600190920191615644565b600860009054906101000a9004600160a060020a0316600160a060020a0316637a6a02778d8c89888a6040518663ffffffff1660e060020a0281526004018086600160a060020a0316600160a060020a03168152602001858152602001806020018060200180602001848103845287818151815260200191508051906020019060200280838360005b838110156157ed5781810151838201526020016157d5565b50505050905001848103835286818151815260200191508051906020019060200280838360005b8381101561582c578181015183820152602001615814565b50505050905001848103825285818151815260200191508051906020019060200280838360005b8381101561586b578181015183820152602001615853565b5050505090500198505050505050505050600060405180830381600087803b15801561589657600080fd5b505af11580156158aa573d6000803e3d6000fd5b505050506040513d6000823e601f3d908101601f1916820160409081528110156158d357600080fd5b8101908080516401000000008111156158eb57600080fd5b820160208101848111156158fe57600080fd5b815185602082028301116401000000008211171561591b57600080fd5b5050929190602001805164010000000081111561593757600080fd5b8201602081018481111561594a57600080fd5b815185602082028301116401000000008211171561596757600080fd5b50509291905050509150915081818698509850985050505050505093509350939050565b60006144d783836040805190810160405280601e81526020017f536166654d6174683a207375627472616374696f6e206f766572666c6f770000815250615d5d565b6000808315156159e0576000915061475f565b508282028284828115156159f057fe5b051461475b576040805160e560020a62461bcd02815260206004820152602160248201527f536166654d6174683a206d756c7469706c69636174696f6e206f766572666c6f60448201527f7700000000000000000000000000000000000000000000000000000000000000606482015290519081900360840190fd5b600160a060020a0381161515615af2576040805160e560020a62461bcd02815260206004820152602660248201527f4f776e61626c653a206e6577206f776e657220697320746865207a65726f206160448201527f6464726573730000000000000000000000000000000000000000000000000000606482015290519081900360840190fd5b60008054604051600160a060020a038085169361010090930416917f8be0079c531659141344cd1fd0a4f28419497f9722a3daafe3b4186f6b6457e091a360008054600160a060020a039092166101000274ffffffffffffffffffffffffffffffffffffffff0019909216919091179055565b600080808512158185121514615b7f5783850191506149cd565b60008512615c2457508383018285821215615c1b5760405160e560020a62461bcd0281526004018080602001828103825283818151815260200191508051906020019080838360005b83811015615be0578181015183820152602001615bc8565b50505050905090810190601f168015615c0d5780820380516001836020036101000a031916815260200191505b509250505060405180910390fd5b508091506149cd565b508383018285821315615c1b5760405160e560020a62461bcd02815260040180806020018281038252838181518152602001915080519060200190808383600083811015615be0578181015183820152602001615bc8565b60608060006001805480602002602001604051908101604052809291908181526020018280548015615cd757602002820191906000526020600020905b8154600160a060020a03168152600190910190602001808311615cb9575b50505050509150615ce88285615dbe565b9050801561475f57816000815181101515615cff57fe5b906020019060200201518282815181101515615d1757fe5b600160a060020a039092166020928302909101909101528151849083906000908110615d3f57fe5b600160a060020a039092166020928302909101909101525092915050565b6000808285851115615db45760405160e560020a62461bcd02815260040180806020018281038252838181518152602001915080519060200190808383600083811015615be0578181015183820152602001615bc8565b5050509103919050565b8151600090815b81811015615e0b5783600160a060020a03168582815181101515615de557fe5b90602001906020020151600160a060020a03161415615e0357615e0b565b600101615dc5565b949350505050565b815481835581811115615e3757600083815260209020615e37918101908301615e3c565b505050565b610bae91905b80821115613a165760008155600101615e4256004f776e61626c653a2063616c6c6572206973206e6f7420746865206f776e65725468697320636f6e74726163742069732068616c746564000000000000000000a165627a7a72305820d5e9e2832978cd40f5354bf38b19b3467b6ce44f1c3abd2c25790f766da5498000294f776e61626c653a2063616c6c6572206973206e6f7420746865206f776e6572",
  "source": "pragma solidity ^0.4.26;\r\nimport \"./modules/SafeMath.sol\";\r\nimport \"./CollateralCal.sol\";\r\nimport \"./modules/whiteList.sol\";\r\nimport \"./interfaces/IOptionsPrice.sol\";\r\nimport \"./modules/tuple.sol\";\r\ncontract OptionsManagerV2 is CollateralCal,ImportOptionsPrice {\r\n    using SafeMath for uint256;\r\n\r\n    constructor (address oracleAddr,address optionsPriceAddr,address optionsPoolAddr,address collateralPoolAddr,address FPTCoinAddr) public{\r\n        setOracleAddress(oracleAddr);\r\n        setOptionsPriceAddress(optionsPriceAddr);\r\n        setOptionsPoolAddress(optionsPoolAddr);\r\n        setFPTCoinAddress(FPTCoinAddr);\r\n        setCollateralPoolAddress(collateralPoolAddr);\r\n    }\r\n\r\n    uint256 internal maxPriceRate = 1500;\r\n    uint256 internal minPriceRate = 500;\r\n    function getPriceRateRange() public view returns(uint256,uint256) {\r\n        return (minPriceRate,maxPriceRate);\r\n    }\r\n    function setPriceRateRange(uint256 _minPriceRate,uint256 _maxPriceRate) public onlyOwner{\r\n        minPriceRate = _minPriceRate;\r\n        maxPriceRate = _maxPriceRate;\r\n    }\r\n    function checkStrikePrice(uint256 strikePrice,uint256 underlyingPrice)internal view{\r\n        require(underlyingPrice*maxPriceRate/1000>=strikePrice && underlyingPrice*minPriceRate/1000<=strikePrice,\r\n                \"strikePrice is out of price range\");\r\n    }\r\n    event BuyOption(address indexed from,address indexed settlement,uint256 indexed optionId,uint256 optionPrice,uint256 settlementAmount,uint256 optionAmount);\r\n    event SellOption(address indexed from,uint256 indexed optionId,uint256 amount,uint256 sellValue);\r\n    event ExerciseOption(address indexed from,uint256 indexed optionId,uint256 amount,uint256 sellValue);\r\n    event DebugEvent(uint256 value0,uint256 value1,uint256 value2,uint256 value3);\r\n    function buyOption(address settlement,uint256 settlementAmount, uint256 strikePrice,uint32 underlying,\r\n                uint256 expiration,uint256 amount,uint8 optType) nonReentrant notHalted public payable{\r\n        _optionsPool.buyOptionCheck(expiration,underlying);\r\n        uint256 ty_ly_exp = tuple64.getTuple(uint256(optType),uint256(underlying),uint256(expiration),0);\r\n        uint256 underlyingPrice = _oracle.getUnderlyingPrice(underlying);\r\n        checkStrikePrice(strikePrice,underlyingPrice);\r\n        uint256 optionPrice = _optionsPrice.getOptionsPrice(underlyingPrice,strikePrice,expiration,underlying,optType); \r\n        require(getAvailableCollateral()>=calOptionsOccupied(strikePrice,underlyingPrice,amount,optType),\"collateral is insufficient!\");\r\n        _optionsPool.createOptions(msg.sender,settlement,ty_ly_exp,strikePrice,optionPrice,amount);\r\n        buyOption_sub(settlement,settlementAmount,optionPrice,amount);\r\n    }\r\n\r\n    function buyOption_sub(address settlement,uint256 settlementAmount,\r\n            uint256 optionPrice,uint256 amount)internal{\r\n        \r\n        uint256 allPay = amount.mul(optionPrice);\r\n        settlementAmount = getPayableAmount(settlement,settlementAmount);\r\n        require(settlementAmount>0 , \"settlement amount is zero!\");\r\n        uint256 fee = calculateFee(buyFee,allPay);\r\n        uint256 settlePrice = _oracle.getPrice(settlement);\r\n        require(settlePrice.mul(settlementAmount)>=allPay+fee,\"settlement asset is insufficient!\");\r\n        uint256 allPayUSd = allPay/1e8;\r\n        allPay = allPay/settlePrice;\r\n        fee = fee/settlePrice;\r\n        _addTransactionFee(settlement,fee);\r\n        settlementAmount = settlementAmount.sub(allPay+fee);\r\n        if (settlementAmount > 0){\r\n            _collateralPool.transferPayback(msg.sender,settlement,settlementAmount);\r\n        }\r\n        uint256 id =_optionsPool.getOptionInfoLength();\r\n        _FPTCoin.addMinerBalance(msg.sender,allPayUSd);\r\n        emit BuyOption(msg.sender,settlement,id,optionPrice,allPay,amount); \r\n    }\r\n    function sellOption(uint256 optionsId,uint256 amount) nonReentrant notHalted public{\r\n        checkInputAmount(amount);\r\n        (,,uint8 optType,uint32 underlying,uint256 expiration,uint256 strikePrice,) = _optionsPool.getOptionsById(optionsId);\r\n        expiration = expiration.sub(now);\r\n        uint256 currentPrice = _oracle.getUnderlyingPrice(underlying);\r\n        uint256 optPrice = _optionsPrice.getOptionsPrice(currentPrice,strikePrice,expiration,underlying,optType);\r\n        _optionsPool.burnOptions(msg.sender,optionsId,amount,optPrice);\r\n        uint256 allPay = optPrice.mul(amount);\r\n        (address settlement,uint256 fullPay) = _optionsPool.getBurnedFullPay(optionsId,amount);\r\n        _collateralPool.addNetWorthBalance(settlement,int256(fullPay));\r\n        _paybackWorth(allPay,sellFee);\r\n        emit SellOption(msg.sender,optionsId,amount,allPay);\r\n    }\r\n    function exerciseOption(uint256 optionsId,uint256 amount) nonReentrant notHalted public{\r\n        checkInputAmount(amount);\r\n        uint256 allPay = _optionsPool.getExerciseWorth(optionsId,amount);\r\n        if (allPay == 0) {\r\n            return;\r\n        }\r\n        (,,uint8 optType,uint32 underlying,uint256 expiration,uint256 strikePrice,) = _optionsPool.getOptionsById(optionsId);\r\n        expiration = expiration-now;\r\n        uint256 currentPrice = _oracle.getUnderlyingPrice(underlying);\r\n        uint256 optPrice = _optionsPrice.getOptionsPrice(currentPrice,strikePrice,expiration,underlying,optType);\r\n        _optionsPool.burnOptions(msg.sender,optionsId,amount,optPrice);\r\n        (address settlement,uint256 fullPay) = _optionsPool.getBurnedFullPay(optionsId,amount);\r\n        _collateralPool.addNetWorthBalance(settlement,int256(fullPay));\r\n        _paybackWorth(allPay,exerciseFee);\r\n        emit ExerciseOption(msg.sender,optionsId,amount,allPay);\r\n    }\r\n}",
  "sourcePath": "C:\\work\\solidity\\FinnexusOptions_V2\\contracts\\OptionsManagerV2.sol",
  "compiler": {
    "name": "solc",
    "version": "0.4.26+commit.4563c3fc.Emscripten.clang"
  },
  "schemaVersion": "3.1.0",
  "updatedAt": "2020-08-05T06:53:16.043Z",
  "devdoc": {
    "methods": {
      "addWhiteList(address)": {
        "details": "Implementation of add an eligible address into the whitelist.\r",
        "params": {
          "addAddress": "new eligible address.\r"
        }
      },
      "getWhiteList()": {
        "details": "Implementation of getting the eligible whitelist.\r"
      },
      "isEligibleAddress(address)": {
        "details": "Implementation of testing whether the input address is eligible.\r",
        "params": {
          "tmpAddress": "input address for testing.\r"
        }
      },
      "isOwner()": {
        "details": "Returns true if the caller is the current owner."
      },
      "owner()": {
        "details": "Returns the address of the current owner."
      },
      "removeWhiteList(address)": {
        "details": "Implementation of revoke an invalid address from the whitelist.\r",
        "params": {
          "removeAddress": "revoked address.\r"
        }
      },
      "renounceOwnership()": {
        "details": "Leaves the contract without owner. It will not be possible to call `onlyOwner` functions anymore. Can only be called by the current owner.     * NOTE: Renouncing ownership will leave the contract without an owner, thereby removing any functionality that is only available to the owner."
      },
      "setTransactionFee(uint256,uint256,uint256)": {
        "details": "set the rate of trasaction fee.\r",
        "params": {
          "denominator": "thedenominator of transaction fee.\r transaction fee = numerator/denominator;\r",
          "feeType": "the transaction fee type\r",
          "numerator": "the numerator of transaction fee .\r"
        }
      },
      "transferOwnership(address)": {
        "details": "Transfers ownership of the contract to a new account (`newOwner`). Can only be called by the current owner."
      }
    }
  },
  "userdoc": {
    "methods": {
      "setHalt(bool)": {
        "notice": "function Emergency situation that requires contribution period to stop or not."
      }
    }
  }
}