{
  "contractName": "OptionsPool",
  "abi": [
    {
      "constant": true,
      "inputs": [
        {
          "name": "from",
          "type": "uint256"
        },
        {
          "name": "size",
          "type": "uint256"
        }
      ],
      "name": "getOptionInfoList",
      "outputs": [
        {
          "name": "",
          "type": "address[]"
        },
        {
          "name": "",
          "type": "uint256[]"
        },
        {
          "name": "",
          "type": "uint256[]"
        },
        {
          "name": "",
          "type": "uint256[]"
        },
        {
          "name": "",
          "type": "uint256[]"
        }
      ],
      "payable": false,
      "stateMutability": "view",
      "type": "function"
    },
    {
      "constant": true,
      "inputs": [],
      "name": "sharedPhase",
      "outputs": [
        {
          "name": "",
          "type": "uint32"
        }
      ],
      "payable": false,
      "stateMutability": "view",
      "type": "function"
    },
    {
      "constant": false,
      "inputs": [
        {
          "name": "volatility",
          "type": "address"
        }
      ],
      "name": "setVolatilityAddress",
      "outputs": [],
      "payable": false,
      "stateMutability": "nonpayable",
      "type": "function"
    },
    {
      "constant": true,
      "inputs": [
        {
          "name": "ids",
          "type": "uint256[]"
        }
      ],
      "name": "getOptionInfoListFromID",
      "outputs": [
        {
          "name": "",
          "type": "address[]"
        },
        {
          "name": "",
          "type": "uint256[]"
        },
        {
          "name": "",
          "type": "uint256[]"
        },
        {
          "name": "",
          "type": "uint256[]"
        },
        {
          "name": "",
          "type": "uint256[]"
        }
      ],
      "payable": false,
      "stateMutability": "view",
      "type": "function"
    },
    {
      "constant": true,
      "inputs": [],
      "name": "getUnderlyingAssets",
      "outputs": [
        {
          "name": "",
          "type": "uint32[]"
        }
      ],
      "payable": false,
      "stateMutability": "view",
      "type": "function"
    },
    {
      "constant": true,
      "inputs": [
        {
          "name": "expiration",
          "type": "uint256"
        },
        {
          "name": "underlying",
          "type": "uint32"
        }
      ],
      "name": "buyOptionCheck",
      "outputs": [],
      "payable": false,
      "stateMutability": "view",
      "type": "function"
    },
    {
      "constant": true,
      "inputs": [
        {
          "name": "",
          "type": "uint256"
        }
      ],
      "name": "expirationList",
      "outputs": [
        {
          "name": "",
          "type": "uint256"
        }
      ],
      "payable": false,
      "stateMutability": "view",
      "type": "function"
    },
    {
      "constant": true,
      "inputs": [
        {
          "name": "",
          "type": "uint256"
        }
      ],
      "name": "underlyingAssets",
      "outputs": [
        {
          "name": "",
          "type": "uint32"
        }
      ],
      "payable": false,
      "stateMutability": "view",
      "type": "function"
    },
    {
      "constant": true,
      "inputs": [],
      "name": "getVolatilityAddress",
      "outputs": [
        {
          "name": "",
          "type": "address"
        }
      ],
      "payable": false,
      "stateMutability": "view",
      "type": "function"
    },
    {
      "constant": true,
      "inputs": [],
      "name": "getLatestOption",
      "outputs": [
        {
          "name": "",
          "type": "uint256"
        },
        {
          "name": "",
          "type": "address"
        },
        {
          "name": "",
          "type": "uint8"
        },
        {
          "name": "",
          "type": "uint32"
        },
        {
          "name": "",
          "type": "uint256"
        },
        {
          "name": "",
          "type": "uint256"
        },
        {
          "name": "",
          "type": "uint256"
        }
      ],
      "payable": false,
      "stateMutability": "view",
      "type": "function"
    },
    {
      "constant": true,
      "inputs": [
        {
          "name": "optionsId",
          "type": "uint256"
        }
      ],
      "name": "getOptionsById",
      "outputs": [
        {
          "name": "",
          "type": "uint256"
        },
        {
          "name": "",
          "type": "address"
        },
        {
          "name": "",
          "type": "uint8"
        },
        {
          "name": "",
          "type": "uint32"
        },
        {
          "name": "",
          "type": "uint256"
        },
        {
          "name": "",
          "type": "uint256"
        },
        {
          "name": "",
          "type": "uint256"
        }
      ],
      "payable": false,
      "stateMutability": "view",
      "type": "function"
    },
    {
      "constant": false,
      "inputs": [
        {
          "name": "oracle",
          "type": "address"
        }
      ],
      "name": "setOracleAddress",
      "outputs": [],
      "payable": false,
      "stateMutability": "nonpayable",
      "type": "function"
    },
    {
      "constant": true,
      "inputs": [
        {
          "name": "",
          "type": "address"
        },
        {
          "name": "",
          "type": "uint256"
        }
      ],
      "name": "optionsBalances",
      "outputs": [
        {
          "name": "",
          "type": "uint256"
        }
      ],
      "payable": false,
      "stateMutability": "view",
      "type": "function"
    },
    {
      "constant": true,
      "inputs": [],
      "name": "getOptionsPriceAddress",
      "outputs": [
        {
          "name": "",
          "type": "address"
        }
      ],
      "payable": false,
      "stateMutability": "view",
      "type": "function"
    },
    {
      "constant": true,
      "inputs": [],
      "name": "getBurnTimeLimit",
      "outputs": [
        {
          "name": "",
          "type": "uint256"
        }
      ],
      "payable": false,
      "stateMutability": "view",
      "type": "function"
    },
    {
      "constant": true,
      "inputs": [
        {
          "name": "optionsId",
          "type": "uint256"
        },
        {
          "name": "amount",
          "type": "uint256"
        }
      ],
      "name": "getExerciseWorth",
      "outputs": [
        {
          "name": "",
          "type": "uint256"
        }
      ],
      "payable": false,
      "stateMutability": "view",
      "type": "function"
    },
    {
      "constant": false,
      "inputs": [],
      "name": "renounceOwnership",
      "outputs": [],
      "payable": false,
      "stateMutability": "nonpayable",
      "type": "function"
    },
    {
      "constant": true,
      "inputs": [
        {
          "name": "expiration",
          "type": "uint256"
        }
      ],
      "name": "checkExpiration",
      "outputs": [],
      "payable": false,
      "stateMutability": "view",
      "type": "function"
    },
    {
      "constant": true,
      "inputs": [],
      "name": "burnTimeLimit",
      "outputs": [
        {
          "name": "",
          "type": "uint256"
        }
      ],
      "payable": false,
      "stateMutability": "view",
      "type": "function"
    },
    {
      "constant": false,
      "inputs": [
        {
          "name": "expiration",
          "type": "uint256"
        }
      ],
      "name": "addExpiration",
      "outputs": [],
      "payable": false,
      "stateMutability": "nonpayable",
      "type": "function"
    },
    {
      "constant": false,
      "inputs": [
        {
          "name": "removeExpiration",
          "type": "uint256"
        }
      ],
      "name": "removeExpirationList",
      "outputs": [
        {
          "name": "",
          "type": "bool"
        }
      ],
      "payable": false,
      "stateMutability": "nonpayable",
      "type": "function"
    },
    {
      "constant": true,
      "inputs": [],
      "name": "owner",
      "outputs": [
        {
          "name": "",
          "type": "address"
        }
      ],
      "payable": false,
      "stateMutability": "view",
      "type": "function"
    },
    {
      "constant": true,
      "inputs": [
        {
          "name": "",
          "type": "uint256"
        }
      ],
      "name": "allOptions",
      "outputs": [
        {
          "name": "optionID",
          "type": "uint64"
        },
        {
          "name": "owner",
          "type": "address"
        },
        {
          "name": "optType",
          "type": "uint8"
        },
        {
          "name": "underlying",
          "type": "uint32"
        },
        {
          "name": "expiration",
          "type": "uint256"
        },
        {
          "name": "strikePrice",
          "type": "uint256"
        },
        {
          "name": "amount",
          "type": "uint256"
        }
      ],
      "payable": false,
      "stateMutability": "view",
      "type": "function"
    },
    {
      "constant": true,
      "inputs": [],
      "name": "isOwner",
      "outputs": [
        {
          "name": "",
          "type": "bool"
        }
      ],
      "payable": false,
      "stateMutability": "view",
      "type": "function"
    },
    {
      "constant": true,
      "inputs": [],
      "name": "getExpirationList",
      "outputs": [
        {
          "name": "",
          "type": "uint256[]"
        }
      ],
      "payable": false,
      "stateMutability": "view",
      "type": "function"
    },
    {
      "constant": false,
      "inputs": [
        {
          "name": "from",
          "type": "address"
        },
        {
          "name": "settlement",
          "type": "address"
        },
        {
          "name": "type_ly_exp",
          "type": "uint256"
        },
        {
          "name": "strikePrice",
          "type": "uint256"
        },
        {
          "name": "optionPrice",
          "type": "uint256"
        },
        {
          "name": "amount",
          "type": "uint256"
        }
      ],
      "name": "createOptions",
      "outputs": [],
      "payable": false,
      "stateMutability": "nonpayable",
      "type": "function"
    },
    {
      "constant": false,
      "inputs": [
        {
          "name": "addAddress",
          "type": "address"
        }
      ],
      "name": "addOperator",
      "outputs": [],
      "payable": false,
      "stateMutability": "nonpayable",
      "type": "function"
    },
    {
      "constant": true,
      "inputs": [
        {
          "name": "",
          "type": "uint256"
        }
      ],
      "name": "_operatorList",
      "outputs": [
        {
          "name": "",
          "type": "address"
        }
      ],
      "payable": false,
      "stateMutability": "view",
      "type": "function"
    },
    {
      "constant": true,
      "inputs": [
        {
          "name": "expiration",
          "type": "uint256"
        }
      ],
      "name": "isEligibleExpiration",
      "outputs": [
        {
          "name": "",
          "type": "bool"
        }
      ],
      "payable": false,
      "stateMutability": "view",
      "type": "function"
    },
    {
      "constant": false,
      "inputs": [
        {
          "name": "optionsPrice",
          "type": "address"
        }
      ],
      "name": "setOptionsPriceAddress",
      "outputs": [],
      "payable": false,
      "stateMutability": "nonpayable",
      "type": "function"
    },
    {
      "constant": false,
      "inputs": [
        {
          "name": "removeAddress",
          "type": "address"
        }
      ],
      "name": "removeOperator",
      "outputs": [
        {
          "name": "",
          "type": "bool"
        }
      ],
      "payable": false,
      "stateMutability": "nonpayable",
      "type": "function"
    },
    {
      "constant": false,
      "inputs": [
        {
          "name": "underlying",
          "type": "uint32"
        }
      ],
      "name": "addUnderlyingAsset",
      "outputs": [],
      "payable": false,
      "stateMutability": "nonpayable",
      "type": "function"
    },
    {
      "constant": true,
      "inputs": [],
      "name": "getOracleAddress",
      "outputs": [
        {
          "name": "",
          "type": "address"
        }
      ],
      "payable": false,
      "stateMutability": "view",
      "type": "function"
    },
    {
      "constant": true,
      "inputs": [],
      "name": "getOptionInfoLength",
      "outputs": [
        {
          "name": "",
          "type": "uint256"
        }
      ],
      "payable": false,
      "stateMutability": "view",
      "type": "function"
    },
    {
      "constant": true,
      "inputs": [],
      "name": "optionPhase",
      "outputs": [
        {
          "name": "",
          "type": "uint32"
        }
      ],
      "payable": false,
      "stateMutability": "view",
      "type": "function"
    },
    {
      "constant": false,
      "inputs": [
        {
          "name": "timeLimit",
          "type": "uint256"
        }
      ],
      "name": "setBurnTimeLimit",
      "outputs": [],
      "payable": false,
      "stateMutability": "nonpayable",
      "type": "function"
    },
    {
      "constant": false,
      "inputs": [
        {
          "name": "managerAddress",
          "type": "address"
        }
      ],
      "name": "setManager",
      "outputs": [],
      "payable": false,
      "stateMutability": "nonpayable",
      "type": "function"
    },
    {
      "constant": true,
      "inputs": [],
      "name": "getManager",
      "outputs": [
        {
          "name": "",
          "type": "address"
        }
      ],
      "payable": false,
      "stateMutability": "view",
      "type": "function"
    },
    {
      "constant": false,
      "inputs": [
        {
          "name": "removeUnderlying",
          "type": "uint32"
        }
      ],
      "name": "removeUnderlyingAssets",
      "outputs": [
        {
          "name": "",
          "type": "bool"
        }
      ],
      "payable": false,
      "stateMutability": "nonpayable",
      "type": "function"
    },
    {
      "constant": true,
      "inputs": [
        {
          "name": "underlying",
          "type": "uint32"
        }
      ],
      "name": "isEligibleUnderlyingAsset",
      "outputs": [
        {
          "name": "",
          "type": "bool"
        }
      ],
      "payable": false,
      "stateMutability": "view",
      "type": "function"
    },
    {
      "constant": false,
      "inputs": [
        {
          "name": "index",
          "type": "uint256"
        },
        {
          "name": "addAddress",
          "type": "address"
        }
      ],
      "name": "setOperator",
      "outputs": [],
      "payable": false,
      "stateMutability": "nonpayable",
      "type": "function"
    },
    {
      "constant": true,
      "inputs": [
        {
          "name": "user",
          "type": "address"
        }
      ],
      "name": "getUserOptionsID",
      "outputs": [
        {
          "name": "",
          "type": "uint256[]"
        }
      ],
      "payable": false,
      "stateMutability": "view",
      "type": "function"
    },
    {
      "constant": true,
      "inputs": [],
      "name": "getOperator",
      "outputs": [
        {
          "name": "",
          "type": "address[]"
        }
      ],
      "payable": false,
      "stateMutability": "view",
      "type": "function"
    },
    {
      "constant": true,
      "inputs": [
        {
          "name": "underlying",
          "type": "uint32"
        }
      ],
      "name": "checkUnderlyingAsset",
      "outputs": [],
      "payable": false,
      "stateMutability": "view",
      "type": "function"
    },
    {
      "constant": false,
      "inputs": [
        {
          "name": "newOwner",
          "type": "address"
        }
      ],
      "name": "transferOwnership",
      "outputs": [],
      "payable": false,
      "stateMutability": "nonpayable",
      "type": "function"
    },
    {
      "inputs": [
        {
          "name": "oracleAddr",
          "type": "address"
        },
        {
          "name": "optionsPriceAddr",
          "type": "address"
        },
        {
          "name": "ivAddress",
          "type": "address"
        }
      ],
      "payable": false,
      "stateMutability": "nonpayable",
      "type": "constructor"
    },
    {
      "anonymous": false,
      "inputs": [
        {
          "indexed": true,
          "name": "owner",
          "type": "address"
        },
        {
          "indexed": true,
          "name": "optionID",
          "type": "uint256"
        },
        {
          "indexed": false,
          "name": "optType",
          "type": "uint8"
        },
        {
          "indexed": false,
          "name": "underlying",
          "type": "uint32"
        },
        {
          "indexed": false,
          "name": "expiration",
          "type": "uint256"
        },
        {
          "indexed": false,
          "name": "strikePrice",
          "type": "uint256"
        },
        {
          "indexed": false,
          "name": "amount",
          "type": "uint256"
        }
      ],
      "name": "CreateOption",
      "type": "event"
    },
    {
      "anonymous": false,
      "inputs": [
        {
          "indexed": true,
          "name": "owner",
          "type": "address"
        },
        {
          "indexed": true,
          "name": "optionID",
          "type": "uint256"
        },
        {
          "indexed": false,
          "name": "amount",
          "type": "uint256"
        }
      ],
      "name": "BurnOption",
      "type": "event"
    },
    {
      "anonymous": false,
      "inputs": [
        {
          "indexed": false,
          "name": "value1",
          "type": "uint256"
        },
        {
          "indexed": false,
          "name": "value2",
          "type": "uint256"
        },
        {
          "indexed": false,
          "name": "value3",
          "type": "uint256"
        }
      ],
      "name": "DebugEvent",
      "type": "event"
    },
    {
      "anonymous": false,
      "inputs": [
        {
          "indexed": true,
          "name": "previousOwner",
          "type": "address"
        },
        {
          "indexed": true,
          "name": "newOwner",
          "type": "address"
        }
      ],
      "name": "OwnershipTransferred",
      "type": "event"
    },
    {
      "constant": true,
      "inputs": [],
      "name": "getOptionCalRangeAll",
      "outputs": [
        {
          "name": "",
          "type": "uint256"
        },
        {
          "name": "",
          "type": "uint256"
        },
        {
          "name": "",
          "type": "uint256"
        },
        {
          "name": "",
          "type": "uint256"
        },
        {
          "name": "",
          "type": "uint256"
        },
        {
          "name": "",
          "type": "uint256"
        }
      ],
      "payable": false,
      "stateMutability": "view",
      "type": "function"
    },
    {
      "constant": true,
      "inputs": [],
      "name": "getOptionPhaseCalRange",
      "outputs": [
        {
          "name": "",
          "type": "uint256"
        },
        {
          "name": "",
          "type": "uint256"
        },
        {
          "name": "",
          "type": "uint256"
        }
      ],
      "payable": false,
      "stateMutability": "view",
      "type": "function"
    },
    {
      "constant": true,
      "inputs": [],
      "name": "getsharedPhaseCalRange",
      "outputs": [
        {
          "name": "",
          "type": "uint256"
        },
        {
          "name": "",
          "type": "uint256"
        },
        {
          "name": "",
          "type": "uint256"
        },
        {
          "name": "",
          "type": "uint256"
        }
      ],
      "payable": false,
      "stateMutability": "view",
      "type": "function"
    },
    {
      "constant": true,
      "inputs": [
        {
          "name": "index",
          "type": "uint256"
        }
      ],
      "name": "getsharedPhaseCalInfo",
      "outputs": [
        {
          "name": "",
          "type": "uint256"
        },
        {
          "name": "",
          "type": "uint256[]"
        }
      ],
      "payable": false,
      "stateMutability": "view",
      "type": "function"
    },
    {
      "constant": false,
      "inputs": [
        {
          "name": "calInfo",
          "type": "uint256"
        }
      ],
      "name": "setPhaseOccupiedCollateral",
      "outputs": [],
      "payable": false,
      "stateMutability": "nonpayable",
      "type": "function"
    },
    {
      "constant": false,
      "inputs": [
        {
          "name": "calInfo",
          "type": "uint256"
        },
        {
          "name": "totalOccupied",
          "type": "uint256"
        },
        {
          "name": "beginOption",
          "type": "uint256"
        }
      ],
      "name": "setCollateralPhase",
      "outputs": [],
      "payable": false,
      "stateMutability": "nonpayable",
      "type": "function"
    },
    {
      "constant": true,
      "inputs": [
        {
          "name": "calInfo",
          "type": "uint256"
        }
      ],
      "name": "calculatePhaseOccupiedCollateral",
      "outputs": [
        {
          "name": "",
          "type": "uint256"
        },
        {
          "name": "",
          "type": "uint256"
        },
        {
          "name": "",
          "type": "bool"
        }
      ],
      "payable": false,
      "stateMutability": "view",
      "type": "function"
    },
    {
      "constant": false,
      "inputs": [
        {
          "name": "calInfo",
          "type": "uint256"
        },
        {
          "name": "firstOption",
          "type": "uint256"
        },
        {
          "name": "prices",
          "type": "uint256[]"
        },
        {
          "name": "calTime",
          "type": "uint256"
        }
      ],
      "name": "setSharedState",
      "outputs": [],
      "payable": false,
      "stateMutability": "nonpayable",
      "type": "function"
    },
    {
      "constant": true,
      "inputs": [
        {
          "name": "calInfo",
          "type": "uint256"
        },
        {
          "name": "whiteList",
          "type": "address[]"
        }
      ],
      "name": "calculatePhaseSharedPayment",
      "outputs": [
        {
          "name": "",
          "type": "uint256[]"
        },
        {
          "name": "",
          "type": "uint256"
        },
        {
          "name": "",
          "type": "bool"
        }
      ],
      "payable": false,
      "stateMutability": "view",
      "type": "function"
    },
    {
      "constant": true,
      "inputs": [
        {
          "name": "calInfo",
          "type": "uint256"
        },
        {
          "name": "begin",
          "type": "uint256"
        },
        {
          "name": "end",
          "type": "uint256"
        },
        {
          "name": "whiteList",
          "type": "address[]"
        }
      ],
      "name": "calRangeSharedPayment",
      "outputs": [
        {
          "name": "",
          "type": "uint256[]"
        },
        {
          "name": "",
          "type": "uint256"
        },
        {
          "name": "",
          "type": "bool"
        }
      ],
      "payable": false,
      "stateMutability": "view",
      "type": "function"
    },
    {
      "constant": true,
      "inputs": [
        {
          "name": "calInfo",
          "type": "uint256"
        },
        {
          "name": "whiteList",
          "type": "address[]"
        }
      ],
      "name": "calculatePhaseOptionsFall",
      "outputs": [
        {
          "name": "",
          "type": "int256[]"
        },
        {
          "name": "",
          "type": "uint256[]"
        }
      ],
      "payable": false,
      "stateMutability": "view",
      "type": "function"
    },
    {
      "constant": true,
      "inputs": [],
      "name": "getTotalOccupiedCollateral",
      "outputs": [
        {
          "name": "",
          "type": "uint256"
        }
      ],
      "payable": false,
      "stateMutability": "view",
      "type": "function"
    },
    {
      "constant": false,
      "inputs": [
        {
          "name": "from",
          "type": "address"
        },
        {
          "name": "id",
          "type": "uint256"
        },
        {
          "name": "amount",
          "type": "uint256"
        }
      ],
      "name": "burnOptions",
      "outputs": [],
      "payable": false,
      "stateMutability": "nonpayable",
      "type": "function"
    }
  ],
  "bytecode": "0x6080604052610e10600a55600c805461019063ffffffff1991821681179092556013805490911690911790553480156200003857600080fd5b506040516060806200555f83398101604081815282516020840151919093015160008054600160a060020a031916331780825592939192859285928592600160a060020a0316917f8be0079c531659141344cd1fd0a4f28419497f9722a3daafe3b4186f6b6457e0908290a3620000b8836401000000006200016a810204565b620000cc82640100000000620001fc810204565b620000e0816401000000006200028e810204565b6040805160e0810182526201518081526203f480602082015262093a8091810191909152620d2f0060608201526213c680608082015262278d0060a08201526276a70060c08201526200013890600990600762000332565b506040805180820190915260018082526002602083018190526200015d929062000389565b5050505050505062000479565b6200017d64010000000062000320810204565b1515620001da57604080517f08c379a000000000000000000000000000000000000000000000000000000000815260206004820181905260248201526000805160206200553f833981519152604482015290519081900360640190fd5b60038054600160a060020a031916600160a060020a0392909216919091179055565b6200020f64010000000062000320810204565b15156200026c57604080517f08c379a000000000000000000000000000000000000000000000000000000000815260206004820181905260248201526000805160206200553f833981519152604482015290519081900360640190fd5b60048054600160a060020a031916600160a060020a0392909216919091179055565b620002a164010000000062000320810204565b1515620002fe57604080517f08c379a000000000000000000000000000000000000000000000000000000000815260206004820181905260248201526000805160206200553f833981519152604482015290519081900360640190fd5b60058054600160a060020a031916600160a060020a0392909216919091179055565b600054600160a060020a031633145b90565b82805482825590600052602060002090810192821562000377579160200282015b8281111562000377578251829062ffffff1690559160200191906001019062000353565b506200038592915062000438565b5090565b828054828255906000526020600020906007016008900481019282156200042a5791602002820160005b83821115620003f657835183826101000a81548163ffffffff021916908360ff1602179055509260200192600401602081600301049283019260010302620003b3565b8015620004285782816101000a81549063ffffffff0219169055600401602081600301049283019260010302620003f6565b505b506200038592915062000455565b6200032f91905b808211156200038557600081556001016200043f565b6200032f91905b808211156200038557805463ffffffff191681556001016200045c565b6150b680620004896000396000f30060806040526004361061029a5763ffffffff60e060020a6000350416630438d490811461029f57806316f35a7f146104225780632967eafe1461045057806332ab5c2014610473578063354af3601461053d5780633582d789146105925780633ad2fb57146105f75780633ad98099146106185780633b50c4d11461064257806342e5479d1461065a57806344244d271461068b57806345e19fdd146106d357806348ee201d1461072f5780634c69c00f1461074757806355c47cb2146107685780635ca4b73b1461078c57806364ed3017146107a157806367b8ceb9146107b6578063715018a6146107d1578063723931ca146107e657806373a3d424146107fe57806374e85fd2146108135780637b23dbbe1461083a5780637cfff2d81461084f5780637e838fa3146108675780638da5cb5b146108935780638ea745b8146108a85780638f32d59b146109125780638ff239e6146109275780639052d5f814610987578063924a69ce1461099c57806397a918e9146109cf5780639870d7fe14610a4257806398dae82814610a6357806399deae0a14610a965780639b16bfaf14610ace5780639ef975d214610ae6578063a093e2d014610afe578063ac8a584a14610b1f578063af70df1214610b40578063afec82fc14610b9a578063b18b78dd14610bb8578063b452bc0414610bcd578063b8a5b7fa14610beb578063bec3107f14610c03578063c27b7dfb14610c18578063c5acbe1514610c2d578063d0ebdbe714610c45578063d500958414610c66578063d6d1401214610c7b578063db6ad2bd14610c99578063e5081c4014610cb7578063e7a1c1c014610d93578063e7c5681514610db7578063e7f43c6814610dd8578063ee29c94a14610ded578063f2fde38b14610e0b578063fa1cf1f014610e2c575b600080fd5b3480156102ab57600080fd5b506102ba600435602435610e67565b60405180806020018060200180602001806020018060200186810386528b818151815260200191508051906020019060200280838360005b8381101561030a5781810151838201526020016102f2565b5050505090500186810385528a818151815260200191508051906020019060200280838360005b83811015610349578181015183820152602001610331565b50505050905001868103845289818151815260200191508051906020019060200280838360005b83811015610388578181015183820152602001610370565b50505050905001868103835288818151815260200191508051906020019060200280838360005b838110156103c75781810151838201526020016103af565b50505050905001868103825287818151815260200191508051906020019060200280838360005b838110156104065781810151838201526020016103ee565b505050509050019a505050505050505050505060405180910390f35b34801561042e57600080fd5b506104376110b4565b6040805163ffffffff9092168252519081900360200190f35b34801561045c57600080fd5b50610471600160a060020a03600435166110c0565b005b34801561047f57600080fd5b5060408051606435600481810135602081810285810182019096528185526104d795833595602480359660443596369690956084959290930192909182918501908490808284375094975061112e9650505050505050565b604051808060200184815260200183151515158152602001828103825285818151815260200191508051906020019060200280838360005b8381101561052757818101518382015260200161050f565b5050505090500194505050505060405180910390f35b34801561054957600080fd5b50604080516020600480358082013583810280860185019096528085526102ba953695939460249493850192918291850190849080828437509497506111cc9650505050505050565b34801561059e57600080fd5b506105a76113e8565b60408051602080825283518183015283519192839290830191858101910280838360005b838110156105e35781810151838201526020016105cb565b505050509050019250505060405180910390f35b34801561060357600080fd5b5061047160043563ffffffff6024351661146d565b34801561062457600080fd5b506106306004356114d9565b60408051918252519081900360200190f35b34801561064e57600080fd5b506104376004356114f8565b34801561066657600080fd5b5061066f611530565b60408051600160a060020a039092168252519081900360200190f35b34801561069757600080fd5b506106a061153f565b604080519687526020870195909552858501939093526060850191909152608084015260a0830152519081900360c00190f35b3480156106df57600080fd5b506106e8611553565b60408051978852600160a060020a03909616602088015260ff9094168686015263ffffffff9092166060860152608085015260a084015260c0830152519081900360e00190f35b34801561073b57600080fd5b506106e860043561163e565b34801561075357600080fd5b50610471600160a060020a03600435166116b2565b34801561077457600080fd5b50610630600160a060020a0360043516602435611720565b34801561079857600080fd5b5061066f611750565b3480156107ad57600080fd5b5061063061175f565b3480156107c257600080fd5b50610630600435602435611765565b3480156107dd57600080fd5b506104716118e5565b3480156107f257600080fd5b5061047160043561197b565b34801561080a57600080fd5b50610630611a03565b34801561081f57600080fd5b50610471600160a060020a0360043516602435604435611cab565b34801561084657600080fd5b50610630611f68565b34801561085b57600080fd5b50610471600435611f6e565b34801561087357600080fd5b5061087f600435611fc5565b604080519115158252519081900360200190f35b34801561089f57600080fd5b5061066f612026565b3480156108b457600080fd5b506108c0600435612035565b6040805167ffffffffffffffff9098168852600160a060020a03909616602088015260ff9094168686015263ffffffff9092166060860152608085015260a084015260c0830152519081900360e00190f35b34801561091e57600080fd5b5061087f6120a6565b34801561093357600080fd5b50604080516020600460443581810135838102808601850190965280855261047195833595602480359636969560649593949201929182918501908490808284375094975050933594506120b79350505050565b34801561099357600080fd5b506105a76121e2565b3480156109a857600080fd5b50610471600160a060020a036004358116906024351660443560643560843560a435612239565b3480156109db57600080fd5b506109e7600435612574565b6040518083815260200180602001828103825283818151815260200191508051906020019060200280838360005b83811015610a2d578181015183820152602001610a15565b50505050905001935050505060405180910390f35b348015610a4e57600080fd5b50610471600160a060020a03600435166125e7565b348015610a6f57600080fd5b50610a7861263e565b60408051938452602084019290925282820152519081900360600190f35b348015610aa257600080fd5b50610aae60043561264e565b604080519384526020840192909252151582820152519081900360600190f35b348015610ada57600080fd5b5061066f600435612716565b348015610af257600080fd5b5061087f60043561273e565b348015610b0a57600080fd5b50610471600160a060020a036004351661279a565b348015610b2b57600080fd5b5061087f600160a060020a0360043516612808565b348015610b4c57600080fd5b506040805160206004602480358281013584810280870186019097528086526104d7968435963696604495919490910192918291850190849080828437509497506128619650505050505050565b348015610ba657600080fd5b5061047163ffffffff600435166128b8565b348015610bc457600080fd5b5061066f61290f565b348015610bd957600080fd5b5061047160043560243560443561291e565b348015610bf757600080fd5b50610471600435612a43565b348015610c0f57600080fd5b50610630612b1c565b348015610c2457600080fd5b50610437612b22565b348015610c3957600080fd5b50610471600435612b2e565b348015610c5157600080fd5b50610471600160a060020a0360043516612b7f565b348015610c7257600080fd5b5061066f612bed565b348015610c8757600080fd5b5061087f63ffffffff60043516612bfc565b348015610ca557600080fd5b5061087f63ffffffff60043516612c55565b348015610cc357600080fd5b50604080516020600460248035828101358481028087018601909752808652610d1196843596369660449591949091019291829185019084908082843750949750612cdd9650505050505050565b604051808060200180602001838103835285818151815260200191508051906020019060200280838360005b83811015610d55578181015183820152602001610d3d565b50505050905001838103825284818151815260200191508051906020019060200280838360008381101561052757818101518382015260200161050f565b348015610d9f57600080fd5b50610471600435600160a060020a0360243516612ead565b348015610dc357600080fd5b506105a7600160a060020a0360043516612f3b565b348015610de457600080fd5b506105a7612fa7565b348015610df957600080fd5b5061047163ffffffff60043516613008565b348015610e1757600080fd5b50610471600160a060020a036004351661308e565b348015610e3857600080fd5b50610e416130e3565b604080519485526020850193909352838301919091526060830152519081900360800190f35b6060806060806060806060806060806000806006805490508d8f011115610e9e57600654610e9b908f63ffffffff6130f516565b9c505b60008d11156110a3578c604051908082528060200260200182016040528015610ed1578160200160208202803883390190505b5096508c604051908082528060200260200182016040528015610efe578160200160208202803883390190505b5095508c604051908082528060200260200182016040528015610f2b578160200160208202803883390190505b5094508c604051908082528060200260200182016040528015610f58578160200160208202803883390190505b5093508c604051908082528060200260200182016040528015610f85578160200160208202803883390190505b509250600091505b8c82101561109357600680548f8401908110610fa557fe5b906000526020600020906005020190508060000160089054906101000a9004600160a060020a03168783815181101515610fdb57fe5b600160a060020a03909216602092830290910190910152805460018201548751601060ff60e060020a90940484160190921660020a63ffffffff91821602169087908490811061102757fe5b602090810290910101526002810154855186908490811061104457fe5b602090810290910101526003810154845185908490811061106157fe5b602090810290910101526004810154835184908490811061107e57fe5b60209081029091010152600190910190610f8d565b86868686869b509b509b509b509b505b505050505050509295509295909350565b60135463ffffffff1681565b6110c86120a6565b151561110c576040805160e560020a62461bcd028152602060048201819052602482015260008051602061506b833981519152604482015290519081900360640190fd5b60058054600160a060020a031916600160a060020a0392909216919091179055565b6060600080606060006111408961313e565b8810158061114f575060145487105b15611165579093506000925082915083906111c0565b61116e8961313e565b8711156111815761117e8961313e565b96505b6111b18888601760006111938e613157565b8152602001908152602001600020546111ab8d613164565b8a613185565b91509150818160019450945094505b50509450945094915050565b6060806060806060600060608060608060606000808d5197508760405190808252806020026020018201604052801561120f578160200160208202803883390190505b5096508760405190808252806020026020018201604052801561123c578160200160208202803883390190505b50955087604051908082528060200260200182016040528015611269578160200160208202803883390190505b50945087604051908082528060200260200182016040528015611296578160200160208202803883390190505b509350876040519080825280602002602001820160405280156112c3578160200160208202803883390190505b509250600091505b878210156113d4576112f38e838151811015156112e457fe5b90602001906020020151613369565b80548851919250680100000000000000009004600160a060020a03169088908490811061131c57fe5b600160a060020a03909216602092830290910190910152805460018201548751601060ff60e060020a90940484160190921660020a63ffffffff91821602169087908490811061136857fe5b602090810290910101526002810154855186908490811061138557fe5b60209081029091010152600381015484518590849081106113a257fe5b60209081029091010152600481015483518490849081106113bf57fe5b602090810290910101526001909101906112cb565b50949c939b50919950975095509350505050565b6060600180548060200260200160405190810160405280929190818152602001828054801561146257602002820191906000526020600020906000905b82829054906101000a900463ffffffff1663ffffffff16815260200190600401906020826003010492830192600103820291508084116114255790505b505050505090505b90565b61147681612c55565b15156114cc576040805160e560020a62461bcd02815260206004820152601f60248201527f756e6465726c79696e6720697320756e737570706f7274656420617373657400604482015290519081900360640190fd5b6114d58261197b565b5050565b60098054829081106114e757fe5b600091825260209091200154905081565b600180548290811061150657fe5b9060005260206000209060089182820401919006600402915054906101000a900463ffffffff1681565b600554600160a060020a031690565b600d54600654601254919283929043904290565b600654600090819081908190819081908190818082116115bd576040805160e560020a62461bcd02815260206004820152601560248201527f6f7074696f6e73206c69737420697320656d7074790000000000000000000000604482015290519081900360640190fd5b6006805460001984019081106115cf57fe5b60009182526020909120600590910201805460018201546002830154600384015460049094015467ffffffffffffffff84169e680100000000000000008504600160a060020a03169e5060e060020a90940460ff169c5063ffffffff9092169a50985091965090945092505050565b60008060008060008060008061165389613369565b805460018201546002830154600384015460049094015467ffffffffffffffff84169e680100000000000000008504600160a060020a03169e5060e060020a90940460ff169c5063ffffffff9092169a50985091965090945092505050565b6116ba6120a6565b15156116fe576040805160e560020a62461bcd028152602060048201819052602482015260008051602061506b833981519152604482015290519081900360640190fd5b60038054600160a060020a031916600160a060020a0392909216919091179055565b60086020528160005260406000208181548110151561173b57fe5b90600052602060002001600091509150505481565b600454600160a060020a031690565b600a5490565b600061176f614f28565b60008061177b86613369565b6040805160e081018252825467ffffffffffffffff81168252680100000000000000008104600160a060020a0316602083015260e060020a900460ff1691810191909152600182015463ffffffff16606082015260028201546080820152600382015460a082015260049091015460c082015292506117f9836133f9565b6118038386613454565b6003546060840151604080517fda66325700000000000000000000000000000000000000000000000000000000815263ffffffff909216600483015251600160a060020a039092169163da663257916024808201926020929091908290030181600087803b15801561187457600080fd5b505af1158015611888573d6000803e3d6000fd5b505050506040513d602081101561189e57600080fd5b5051604084015160a08501519193506118b791846134b0565b90508015156118c957600093506118dc565b6118d9818663ffffffff6134e516565b93505b50505092915050565b6118ed6120a6565b1515611931576040805160e560020a62461bcd028152602060048201819052602482015260008051602061506b833981519152604482015290519081900360640190fd5b60008054604051600160a060020a03909116907f8be0079c531659141344cd1fd0a4f28419497f9722a3daafe3b4186f6b6457e0908390a360008054600160a060020a0319169055565b6119848161273e565b1515611a00576040805160e560020a62461bcd02815260206004820152602160248201527f65787069726174696f6e2076616c7565206973206e6f7420737570706f72746560448201527f6400000000000000000000000000000000000000000000000000000000000000606482015290519081900360840190fd5b50565b60008060606000806000806000611a18614f64565b6000611a2261358f565b9850611a2c613610565b600654600e54919950975095505b86861015611b4857611a73600687815481101515611a5457fe5b600091825260209091206001600590920201015463ffffffff1661372a565b9450611b3b611b2e600688815481101515611a8a57fe5b60009182526020918290206040805160e081018252600593909302909101805467ffffffffffffffff81168452680100000000000000008104600160a060020a03169484019490945260e060020a90930460ff1690820152600182015463ffffffff16606082015260028201546080820152600382015460a082015260049091015460c08201528a518b9089908110611b1f57fe5b906020019060200201516137b2565b8a9063ffffffff6137f316565b9850600190950194611a3a565b601254600f5490945092505b83831015611c9d57600083815260116020526040908190208151808301928390529160029082845b815481526020019060010190808311611b7c575093955085935060009250611ba2915050565b6020020151600e54909150811015611c9257611bc6600682815481101515611a5457fe5b9450611c8f611c82600683815481101515611bdd57fe5b60009182526020918290206040805160e081018252600593909302909101805467ffffffffffffffff81168452680100000000000000008104600160a060020a03168486015260e060020a900460ff1691830191909152600181015463ffffffff16606083015260028101546080830152600381015460a08301526004015460c0820152908501518b518c908a908110611c7357fe5b90602001906020020151613850565b8a9063ffffffff6130f516565b98505b600190920191611b54565b509698975050505050505050565b600254600090600160a060020a03163314611d36576040805160e560020a62461bcd02815260206004820152602660248201527f4d616e6167657261626c653a2063616c6c6572206973206e6f7420746865204d60448201527f616e616765720000000000000000000000000000000000000000000000000000606482015290519081900360840190fd5b611d3f83613369565b6040805160e081018252825467ffffffffffffffff81168252680100000000000000008104600160a060020a0316602083015260e060020a900460ff1691810191909152600182015463ffffffff16606082015260028201546080820152600382015460a0820152600482015460c0820152909150611dbd906133f9565b8054611dd29067ffffffffffffffff1661387e565b6040805160e081018252825467ffffffffffffffff81168252680100000000000000008104600160a060020a0316602083015260e060020a900460ff1691810191909152600182015463ffffffff16606082015260028201546080820152600382015460a0820152600482015460c0820152611e4e9085613913565b6040805160e081018252825467ffffffffffffffff81168252680100000000000000008104600160a060020a0316602083015260e060020a900460ff1691810191909152600182015463ffffffff16606082015260028201546080820152600382015460a0820152600482015460c0820152611eca9083613454565b6004810154611edf908363ffffffff6130f516565b60048201556040805180820182526000198501815260208082018590526012546000908152601190915291909120611f18916002614f7f565b506012805460010190556040805183815290518491600160a060020a038716917f1fb99acdc281bccbecb3d0073a307341181a8a7d3cd532fdaef5ce7200401c2d9181900360200190a350505050565b600a5481565b611f766120a6565b1515611fba576040805160e560020a62461bcd028152602060048201819052602482015260008051602061506b833981519152604482015290519081900360640190fd5b611a00600982613982565b6000611fcf6120a6565b1515612013576040805160e560020a62461bcd028152602060048201819052602482015260008051602061506b833981519152604482015290519081900360640190fd5b61201e6009836139f9565b90505b919050565b600054600160a060020a031690565b600680548290811061204357fe5b60009182526020909120600590910201805460018201546002830154600384015460049094015467ffffffffffffffff84169550680100000000000000008404600160a060020a03169460e060020a90940460ff169363ffffffff909316929087565b600054600160a060020a0316331490565b600254600160a060020a0316331461213f576040805160e560020a62461bcd02815260206004820152602660248201527f4d616e6167657261626c653a2063616c6c6572206973206e6f7420746865204d60448201527f616e616765720000000000000000000000000000000000000000000000000000606482015290519081900360840190fd5b60145483111561214f5760148390555b6121588461313e565b60135463ffffffff168061216b87613157565b0201111561218c5761217c8461313e565b60155561218884613164565b6016555b806017600061219a87613157565b81526020019081526020016000208190555081601860006121ba87613157565b815260200190815260200160002090805190602001906121db929190614fbd565b5050505050565b6060600980548060200260200160405190810160405280929190818152602001828054801561146257602002820191906000526020600020905b81548152602001906001019080831161221c575050505050905090565b6000806000612246614f28565b600254600160a060020a031633146122ce576040805160e560020a62461bcd02815260206004820152602660248201527f4d616e6167657261626c653a2063616c6c6572206973206e6f7420746865204d60448201527f616e616765720000000000000000000000000000000000000000000000000000606482015290519081900360840190fd5b60065493506122dc88613157565b92506122e78861313e565b9150600660e0604051908101604052808660010167ffffffffffffffff1681526020018c600160a060020a031681526020018560ff1681526020018463ffffffff168152602001426123388c613164565b01815260208082018b90526040918201899052835460018082018655600095865282862085516005909302018054868501518787015167ffffffffffffffff1990921667ffffffffffffffff909516949094177fffffffff0000000000000000000000000000000000000000ffffffffffffffff1668010000000000000000600160a060020a0395861602177fffffff00ffffffffffffffffffffffffffffffffffffffffffffffffffffffff1660e060020a60ff909216919091021781556060860151818301805463ffffffff191663ffffffff9092169190911790556080860151600282015560a0860151600382015560c0909501516004909501949094558e16845260088152908320805480840182559084529220908601910155600680548590811061246457fe5b60009182526020918290206040805160e081018252600593909302909101805467ffffffffffffffff81168452680100000000000000008104600160a060020a03169484019490945260e060020a90930460ff1690820152600182015463ffffffff16606082015260028201546080820152600382015460a082015260049091015460c082015290506124f8818a88613aa6565b836001018a600160a060020a03167f18f523957030bee670136363e25b2f847bf1bd07bb7b33c6d5475936a9aac70d8585426125338e613164565b6040805160ff909516855263ffffffff90931660208501520182820152606082018c9052608082018a9052519081900360a00190a350505050505050505050565b600081815260176020908152604080832054601883528184208054835181860281018601909452808452606094929391928391908301828280156125d757602002820191906000526020600020905b8154815260200190600101908083116125c3575b5050505050905091509150915091565b6125ef6120a6565b1515612633576040805160e560020a62461bcd028152602060048201819052602482015260008051602061506b833981519152604482015290519081900360640190fd5b611a00600b82613d75565b600d546006546012549192909190565b600c5460009081908190819081908190819061267f9063ffffffff166126738a613157565b9063ffffffff6134e516565b935061268a8861313e565b841061269f576000965086955085945061270b565b600c546126b790859063ffffffff908116906137f316565b92506126c28861313e565b8311156126d9576126d28861313e565b92506126f2565b600d548310156126f2576000965086955085945061270b565b6126fc8484613e0f565b91509150818160019650965096505b505050509193909250565b600b80548290811061272457fe5b600091825260209091200154600160a060020a0316905081565b600061201e600980548060200260200160405190810160405280929190818152602001828054801561278f57602002820191906000526020600020905b81548152602001906001019080831161277b575b505050505083613f53565b6127a26120a6565b15156127e6576040805160e560020a62461bcd028152602060048201819052602482015260008051602061506b833981519152604482015290519081900360640190fd5b60048054600160a060020a031916600160a060020a0392909216919091179055565b60006128126120a6565b1515612856576040805160e560020a62461bcd028152602060048201819052602482015260008051602061506b833981519152604482015290519081900360640190fd5b61201e600b83613f92565b601354606090600090819081906128819063ffffffff1661267388613157565b6013549091506128aa90879083906128a490829063ffffffff908116906137f316565b8861112e565b935093509350509250925092565b6128c06120a6565b1515612904576040805160e560020a62461bcd028152602060048201819052602482015260008051602061506b833981519152604482015290519081900360640190fd5b611a00600182614069565b600354600160a060020a031690565b600b54600090811080156129555750600b80543391908390811061293e57fe5b600091825260209091200154600160a060020a0316145b15156129d1576040805160e560020a62461bcd02815260206004820152603060248201527f4d616e6167657261626c653a2063616c6c6572206973206e6f7420746865206560448201527f6c696769626c65204f70657261746f7200000000000000000000000000000000606482015290519081900360840190fd5b600d548211156129e157600d8290555b6129ea8461313e565b600c5463ffffffff16806129fd87613157565b02011115612a1e57612a0e8461313e565b600e55612a1a84613164565b600f555b8260106000612a2c87613157565b815260208101919091526040016000205550505050565b60008060008080600b80549050118015612a805750600b805433919083908110612a6957fe5b600091825260209091200154600160a060020a0316145b1515612afc576040805160e560020a62461bcd02815260206004820152603060248201527f4d616e6167657261626c653a2063616c6c6572206973206e6f7420746865206560448201527f6c696769626c65204f70657261746f7200000000000000000000000000000000606482015290519081900360840190fd5b612b058561264e565b93509350935081156121db576121db85858561291e565b60065490565b600c5463ffffffff1681565b612b366120a6565b1515612b7a576040805160e560020a62461bcd028152602060048201819052602482015260008051602061506b833981519152604482015290519081900360640190fd5b600a55565b612b876120a6565b1515612bcb576040805160e560020a62461bcd028152602060048201819052602482015260008051602061506b833981519152604482015290519081900360640190fd5b60028054600160a060020a031916600160a060020a0392909216919091179055565b600254600160a060020a031690565b6000612c066120a6565b1515612c4a576040805160e560020a62461bcd028152602060048201819052602482015260008051602061506b833981519152604482015290519081900360640190fd5b61201e600183614132565b600061201e6001805480602002602001604051908101604052809291908181526020018280548015612cd257602002820191906000526020600020906000905b82829054906101000a900463ffffffff1663ffffffff1681526020019060040190602082600301049283019260010382029150808411612c955790505b505050505083614229565b606080600080606080600080612d0e601360009054906101000a900463ffffffff1663ffffffff166126738c613157565b601354909650612d2990879063ffffffff908116906137f316565b9450612d348a61313e565b86101580612d43575060145485105b15612d4d57612ea0565b612d568a61313e565b851115612d6957612d668a61313e565b94505b6014548611612d785760145495505b612d80613610565b9350612da08686612d908d613157565b612d998e613164565b8d89614274565b925088519150600090505b81811015612e99576003548951600160a060020a03909116906341976e09908b9084908110612dd657fe5b906020019060200201516040518263ffffffff1660e060020a0281526004018082600160a060020a0316600160a060020a03168152602001915050602060405180830381600087803b158015612e2b57600080fd5b505af1158015612e3f573d6000803e3d6000fd5b505050506040513d6020811015612e5557600080fd5b50518351849083908110612e6557fe5b90602001906020020151811515612e7857fe5b058382815181101515612e8757fe5b60209081029091010152600101612dab565b8284975097505b5050505050509250929050565b612eb56120a6565b1515612ef9576040805160e560020a62461bcd028152602060048201819052602482015260008051602061506b833981519152604482015290519081900360640190fd5b80600b83815481101515612f0957fe5b9060005260206000200160006101000a815481600160a060020a030219169083600160a060020a031602179055505050565b600160a060020a038116600090815260086020908152604091829020805483518184028101840190945280845260609392830182828015612f9b57602002820191906000526020600020905b815481526020019060010190808311612f87575b50505050509050919050565b6060600b80548060200260200160405190810160405280929190818152602001828054801561146257602002820191906000526020600020905b8154600160a060020a03168152600190910190602001808311612fe1575050505050905090565b611a00600180548060200260200160405190810160405280929190818152602001828054801561308357602002820191906000526020600020906000905b82829054906101000a900463ffffffff1663ffffffff16815260200190600401906020826003010492830192600103820291508084116130465790505b505050505082614436565b6130966120a6565b15156130da576040805160e560020a62461bcd028152602060048201819052602482015260008051602061506b833981519152604482015290519081900360640190fd5b611a0081614496565b60145460065460125491929091904290565b600061313783836040805190810160405280601e81526020017f536166654d6174683a207375627472616374696f6e206f766572666c6f770000815250614577565b9392505050565b68010000000000000000900467ffffffffffffffff1690565b67ffffffffffffffff1690565b700100000000000000000000000000000000900467ffffffffffffffff1690565b6060600080606060008060008061319d8d8d8d614614565b8a51604080518281526020808402820101909152929f5090975080156131cd578160200160208202803883390190505b5094505b8b8d101561334857600680548e9081106131e757fe5b90600052602060002090600502019350836002015492508a83108061320e57506004840154155b156132185761333d565b60008d81526007602052604090206015549092508d10158061323a575081548b105b156132755761326e82600301548486600301548560040154866005015489600001601c9054906101000a900460ff16614699565b90506132a3565b6132a08b8486600301548560040154866005015489600001601c9054906101000a900460ff166146c9565b90505b600081111561333d5760018201546132c5908a90600160a060020a03166147b6565b92506132fa82600301546132ee86600401546126738587600201546134e590919063ffffffff16565b9063ffffffff61480316565b905061332481868581518110151561330e57fe5b602090810290910101519063ffffffff6137f316565b858481518110151561333257fe5b602090810290910101525b6001909c019b6131d1565b6133568d8d8d8d8d8a614845565b9d959c50949a5050505050505050505050565b6000808211801561337c57506006548211155b15156133d2576040805160e560020a62461bcd02815260206004820152601660248201527f6f7074696f6e206964206973206e6f7420657869737400000000000000000000604482015290519081900360640190fd5b6006805460001984019081106133e457fe5b90600052602060002090600502019050919050565b60808101514210611a00576040805160e560020a62461bcd02815260206004820152601160248201527f6f7074696f6e2069732065787069726564000000000000000000000000000000604482015290519081900360640190fd5b60c08201518111156114d5576040805160e560020a62461bcd02815260206004820152601d60248201527f6f7074696f6e20616d6f756e7420697320696e73756666696369656e74000000604482015290519081900360640190fd5b600060ff84161582841114156134c857506000613137565b60ff8416156134d9578183036134dd565b8282035b949350505050565b6000808315156134f85760009150613588565b5082820282848281151561350857fe5b0414613584576040805160e560020a62461bcd02815260206004820152602160248201527f536166654d6174683a206d756c7469706c69636174696f6e206f766572666c6f60448201527f7700000000000000000000000000000000000000000000000000000000000000606482015290519081900360840190fd5b8091505b5092915050565b600c5460009081908190819063ffffffff16600d8201548115156135af57fe5b600c54919004925063ffffffff16600d600101548115156135cc57fe5b0460010190505b80821015613608576000828152601060205260409020546135fb90849063ffffffff6137f316565b92506001909101906135d3565b509092915050565b600154604080518281526020808402820101909152606091908290600090838015613645578160200160208202803883390190505b509150600090505b828110156135885760035460018054600160a060020a039092169163da66325791908490811061367957fe5b90600052602060002090600891828204019190066004029054906101000a900463ffffffff166040518263ffffffff1660e060020a028152600401808263ffffffff168152602001915050602060405180830381600087803b1580156136de57600080fd5b505af11580156136f2573d6000803e3d6000fd5b505050506040513d602081101561370857600080fd5b5051825183908390811061371857fe5b6020908102909101015260010161364d565b600061201e60018054806020026020016040519081016040528092919081815260200182805480156137a757602002820191906000526020600020906000905b82829054906101000a900463ffffffff1663ffffffff168152602001906004019060208260030104928301926001038202915080841161376a5790505b505050505083614a95565b6000804284608001511115806137ca575060c0840151155b156137d85760009150613588565b6134dd8460c0015161267386604001518760a0015187614adc565b600082820183811015613584576040805160e560020a62461bcd02815260206004820152601b60248201527f536166654d6174683a206164646974696f6e206f766572666c6f770000000000604482015290519081900360640190fd5b600042846080015111151561386757506000613137565b6134dd8361267386604001518760a0015186614adc565b600a54600019820160009081526007602052604090205442910110611a00576040805160e560020a62461bcd02815260206004820152602560248201527f6f7074696f6e206c6f636b206c696d69746174696f6e206973206e6f7420657860448201527f7069726564000000000000000000000000000000000000000000000000000000606482015290519081900360840190fd5b80600160a060020a03168260200151600160a060020a03161415156114d5576040805160e560020a62461bcd02815260206004820152601f60248201527f63616c6c6572206973206e6f7420746865206f7074696f6e73206f776e657200604482015290519081900360640190fd5b6139db828054806020026020016040519081016040528092919081815260200182805480156139d057602002820191906000526020600020905b8154815260200190600101908083116139bc575b505050505082613f53565b15156114d55781546001810183556000928352602090922090910155565b8154600090815b81811015613a3557838582815481101515613a1757fe5b90600052602060002001541415613a2d57613a35565b600101613a00565b81811015613a995760001982018114613a7f578460018303815481101515613a5957fe5b90600052602060002001548582815481101515613a7257fe5b6000918252602090912001555b8454613a8f866000198301614ff7565b5060019250613a9e565b600092505b505092915050565b60a08301516080840151600554606086015160408088015181517fb4277bc100000000000000000000000000000000000000000000000000000000815263ffffffff909316600484015260ff16602483015242909303604482018190526064820185905283519093600093849384938493600160a060020a039093169263b4277bc1926084808201939182900301818787803b158015613b4557600080fd5b505af1158015613b59573d6000803e3d6000fd5b505050506040513d6040811015613b6f57600080fd5b5080516020918201516004805460408e81015181517f055ef6ab0000000000000000000000000000000000000000000000000000000081529384018d9052602484018d9052604484018c9052606484018690526084840185905260ff1660a484015251939850919650600160a060020a039091169263055ef6ab9260c4808401938290030181600087803b158015613c0657600080fd5b505af1158015613c1a573d6000803e3d6000fd5b505050506040513d6020811015613c3057600080fd5b5051600354604080517f41976e09000000000000000000000000000000000000000000000000000000008152600160a060020a038c811660048301529151939550613cda9391909216916341976e099160248083019260209291908290030181600087803b158015613ca157600080fd5b505af1158015613cb5573d6000803e3d6000fd5b505050506040513d6020811015613ccb57600080fd5b5051889063ffffffff61480316565b6040805160c081018252428152600160a060020a039a8b166020808301918252828401948552606083019687526080830198895260a083019788529c516000190167ffffffffffffffff1660009081526007909d5291909b209a518b555160018b018054600160a060020a03191691909a16179098555095516002880155945160038701555160048601555050905160059092019190915550565b613dd882805480602002602001604051908101604052809291908181526020018280548015613dcd57602002820191906000526020600020905b8154600160a060020a03168152600190910190602001808311613daf575b505050505082614afa565b15156114d5578154600181018355600083815260209020018054600160a060020a038316600160a060020a03199091161790555050565b600d546000908190808511801590606090849081908190613e2e578599505b613e36613610565b9350600092505b888a1015613f3957613e5760068b815481101515611a5457fe5b9150613f0060068b815481101515613e6b57fe5b60009182526020918290206040805160e081018252600593909302909101805467ffffffffffffffff81168452680100000000000000008104600160a060020a03169484019490945260e060020a90930460ff1690820152600182015463ffffffff16606082015260028201546080820152600382015460a082015260049091015460c08201528551869085908110611b1f57fe5b9050848015613f0f5750600081115b15613f1c57899550600094505b613f2c838263ffffffff6137f316565b6001909a01999250613e3d565b8415613f43578995505b5090989397509295505050505050565b8151600090815b81811015613a9957838582815181101515613f7157fe5b906020019060200201511415613f8a5760019250613a9e565b600101613f5a565b8154600090815b81811015613fe15783600160a060020a03168582815481101515613fb957fe5b600091825260209091200154600160a060020a03161415613fd957613fe1565b600101613f99565b81811015613a995760001982018114613a7f57846001830381548110151561400557fe5b6000918252602090912001548554600160a060020a039091169086908390811061402b57fe5b9060005260206000200160006101000a815481600160a060020a030219169083600160a060020a031602179055508454613a8f866000198301614ff7565b6140ee828054806020026020016040519081016040528092919081815260200182805480156140e357602002820191906000526020600020906000905b82829054906101000a900463ffffffff1663ffffffff16815260200190600401906020826003010492830192600103820291508084116140a65790505b505050505082614229565b15156114d5578154600181018355600092835260209092206008830401805460079093166004026101000a63ffffffff818102199094169290931692909202179055565b8154600090815b8181101561418d578363ffffffff16858281548110151561415657fe5b6000918252602090912060088204015460079091166004026101000a900463ffffffff1614156141855761418d565b600101614139565b81811015613a9957600019820181146142195784600183038154811015156141b157fe5b90600052602060002090600891828204019190066004029054906101000a900463ffffffff1685828154811015156141e557fe5b90600052602060002090600891828204019190066004026101000a81548163ffffffff021916908363ffffffff1602179055505b8454613a8f866000198301615020565b8151600090815b81811015613a99578363ffffffff16858281518110151561424d57fe5b9060200190602002015163ffffffff16141561426c5760019250613a9e565b600101614230565b60608060006060600080600080601860008d81526020019081526020016000208054806020026020016040519081016040528092919081815260200182805480156142de57602002820191906000526020600020905b8154815260200190600101908083116142ca575b50505050509650601760008d81526020019081526020016000205495506143098e8e8d898b8f614b4b565b94505b8c8e101561442457600680548f90811061432257fe5b90600052602060002090600502019350858460020154108061434657506004840154155b1561435057614419565b60018401546143649063ffffffff1661372a565b9b5061438c848560040154898f81518110151561437d57fe5b90602001906020020151614ce9565b92506143b48485600401548b8f8151811015156143a557fe5b90602001906020020151614d2c565b9150828214614419575060008d815260076020526040902060018101546143e5908b90600160a060020a03166147b6565b9b506143f082614d6e565b6143f984614d6e565b03858d81518110151561440857fe5b602090810290910101805190910190525b6001909d019c61430c565b50929c9b505050505050505050505050565b6144408282614229565b15156114d5576040805160e560020a62461bcd02815260206004820152601f60248201527f77686974654c6973743a207573696e6720696e76616c69642075696e74333200604482015290519081900360640190fd5b600160a060020a038116151561451c576040805160e560020a62461bcd02815260206004820152602660248201527f4f776e61626c653a206e6577206f776e657220697320746865207a65726f206160448201527f6464726573730000000000000000000000000000000000000000000000000000606482015290519081900360840190fd5b60008054604051600160a060020a03808516939216917f8be0079c531659141344cd1fd0a4f28419497f9722a3daafe3b4186f6b6457e091a360008054600160a060020a031916600160a060020a0392909216919091179055565b600080828585111561460a5760405160e560020a62461bcd0281526004018080602001828103825283818151815260200191508051906020019080838360005b838110156145cf5781810151838201526020016145b7565b50505050905090810190601f1680156145fc5780820380516001836020036101000a031916815260200191505b509250505060405180910390fd5b5050509103919050565b601454600090819081818711156146305786829350935061468f565b8196505b8587101561468857600680548890811061464a57fe5b90600052602060002090600502019050848160020154108061466e57506004810154155b156146785761467d565b614688565b600190960195614634565b8687935093505b5050935093915050565b6000806146a98787878787614de7565b90508088116146b95760006146bd565b8088035b98975050505050505050565b60048054604080517f055ef6ab000000000000000000000000000000000000000000000000000000008152928301879052602483018790528888036044840152606483018690526084830185905260ff841660a48401525160009283928392600160a060020a039091169163055ef6ab9160c480830192602092919082900301818787803b15801561475a57600080fd5b505af115801561476e573d6000803e3d6000fd5b505050506040513d602081101561478457600080fd5b505191506147958888888888614de7565b90508082116147a55760006147a9565b8082035b9998505050505050505050565b8151600090815b818110156134dd5783600160a060020a031685828151811015156147dd57fe5b90602001906020020151600160a060020a031614156147fb576134dd565b6001016147bd565b600061313783836040805190810160405280601a81526020017f536166654d6174683a206469766973696f6e206279207a65726f000000000000815250614ebc565b60606000614851614f64565b60165491506000808080805b8a871015614a8357600087815260116020526040908190208151808301928390529160029082845b81548152602001906001019080831161488557505050505095508d8660006002811015156148af57fe5b602002015110806148c1575085518d11155b156148cb57614a78565b85516006805490919081106148dc57fe5b90600052602060002090600502019450846002015493508b84108061490357506020860151155b1561490d57614a78565b600760008781602002015181526020019081526020016000209250600460009054906101000a9004600160a060020a0316600160a060020a031663055ef6ab866003015487600301548f8803876004015488600501548b600001601c9054906101000a900460ff166040518763ffffffff1660e060020a028152600401808781526020018681526020018581526020018481526020018381526020018260ff1660ff1681526020019650505050505050602060405180830381600087803b1580156149d757600080fd5b505af11580156149eb573d6000803e3d6000fd5b505050506040513d6020811015614a0157600080fd5b50516003840154909250614a2f906132ee88600160200201516002870154612673908763ffffffff6134e516565b6001840154909250614a4b908b90600160a060020a03166147b6565b9050614a5f828a8381518110151561330e57fe5b8982815181101515614a6d57fe5b602090810290910101525b60019096019561485d565b50969c9b505050505050505050505050565b8151600090815b818110156134dd578363ffffffff168582815181101515614ab957fe5b9060200190602002015163ffffffff161415614ad4576134dd565b600101614a9c565b600060ff8416158284111415614af3575081613137565b5080613137565b8151600090815b81811015613a995783600160a060020a03168582815181101515614b2157fe5b90602001906020020151600160a060020a03161415614b435760019250613a9e565b600101614b01565b6060806000614b58614f64565b6000806000808851604051908082528060200260200182016040528015614b89578160200160208202803883390190505b5060165490975095505b8b861015614cd757600086815260116020526040908190208151808301928390529160029082845b815481526020019060010190808311614bbb57505050505094508d856000600281101515614be557fe5b60200201511080614bf7575084518d11155b15614c0157614ccc565b8451600680549091908110614c1257fe5b906000526020600020906005020193508a84600201541080614c3657506020850151155b15614c4057614ccc565b6001840154614c549063ffffffff1661372a565b9250614c708486600160200201518c8681518110151561437d57fe5b91508115614ccc5750835160009081526007602052604090206001810154614ca2908a90600160a060020a03166147b6565b9250614cad82614d6e565b8784815181101515614cbb57fe5b602090810290910101805190910190525b600190950194614b93565b50949c9b505050505050505050505050565b6000601460010154845467ffffffffffffffff1611614d2457835460038501546134dd9184916126739160e060020a900460ff1690876134b0565b506000613137565b6000428460020154111580614d3f575081155b15614d4c57506000613137565b835460038501546134dd9184916126739160e060020a900460ff1690876134b0565b60007f7fffffffffffffffffffffffffffffffffffffffffffffffffffffffffffffff8211612021576040805160e560020a62461bcd02815260206004820152601b60248201527f536166654d6174683a20746f496e74323536206f766572666c6f770000000000604482015290519081900360640190fd5b600042861115614eaf5760048054604080517f055ef6ab000000000000000000000000000000000000000000000000000000008152928301889052602483018890524289036044840152606483018790526084830186905260ff851660a484015251600160a060020a039091169163055ef6ab9160c48083019260209291908290030181600087803b158015614e7c57600080fd5b505af1158015614e90573d6000803e3d6000fd5b505050506040513d6020811015614ea657600080fd5b50519050614eb3565b5060005b95945050505050565b60008082818511614f125760405160e560020a62461bcd028152600401808060200182810382528381815181526020019150805190602001908083836000838110156145cf5781810151838201526020016145b7565b508385811515614f1e57fe5b0495945050505050565b6040805160e081018252600080825260208201819052918101829052606081018290526080810182905260a0810182905260c081019190915290565b60408051808201825290600290829080388339509192915050565b8260028101928215614fad579160200282015b82811115614fad578251825591602001919060010190614f92565b50614fb9929150615050565b5090565b828054828255906000526020600020908101928215614fad5791602002820182811115614fad578251825591602001919060010190614f92565b81548183558181111561501b5760008381526020902061501b918101908301615050565b505050565b81548183558181111561501b57600701600890048160070160089004836000526020600020918201910161501b91905b61146a91905b80821115614fb9576000815560010161505656004f776e61626c653a2063616c6c6572206973206e6f7420746865206f776e6572a165627a7a72305820cdf54ae1333f6f841ee00ed31a8a1eb043f411acfde845eb8186e6cd7bf5ad2600294f776e61626c653a2063616c6c6572206973206e6f7420746865206f776e6572",
  "source": "pragma solidity ^0.4.26;\r\nimport \"./OptionsBase.sol\";\r\nimport \"./modules/tuple.sol\";\r\nimport \"./modules/Operator.sol\";\r\n\r\ncontract OptionsPool is OptionsBase,Operator {\r\n\r\n    //calculate options Collateral occupied phases\r\n    uint32 public optionPhase = 400;\r\n    uint256[3] internal optionPhaseInfo;    //firstOption,lastOption,lastBurn\r\n    mapping(uint256=>uint256) internal OptionsPhases;\r\n    //each burn options\r\n    mapping(uint256=>uint256[2]) internal burnedOptions;\r\n    uint256 internal burnedLength;\r\n    //calculate Options time shared value phases\r\n    uint32 public sharedPhase = 400;\r\n    uint256[3] internal optionPhaseInfo_Share;  //firstOption,lastOption,lastBurn\r\n    mapping (uint256 =>uint256) internal OptionsPhaseTimes;\r\n    mapping (uint256 =>uint256[]) internal OptionsPhasePrices;\r\n    //each block burn options\r\n\r\n    constructor (address oracleAddr,address optionsPriceAddr,address ivAddress) OptionsBase(oracleAddr,optionsPriceAddr,ivAddress) public{\r\n    }\r\n    function getOptionCalRangeAll()public view returns(uint256,uint256,uint256,uint256,uint256,uint256){\r\n        return (optionPhaseInfo[0],optionPhaseInfo[0],allOptions.length,burnedLength,block.number,now);\r\n    }\r\n    function getOptionPhaseCalRange()public view returns(uint256,uint256,uint256){\r\n        return (optionPhaseInfo[0],allOptions.length,burnedLength);\r\n    }\r\n    function getsharedPhaseCalRange()public view returns(uint256,uint256,uint256,uint256){\r\n        return (optionPhaseInfo_Share[0],allOptions.length,burnedLength,now);\r\n    }\r\n    function getsharedPhaseCalInfo(uint256 index)public view returns(uint256,uint256[]){\r\n        return (OptionsPhaseTimes[index],OptionsPhasePrices[index]);\r\n    }\r\n    //index,lastOption,lastBurned\r\n    function setPhaseOccupiedCollateral(uint256 calInfo) public onlyOperatorIndex(0) {\r\n        (uint256 totalOccupied,uint256 beginOption,bool success) = calculatePhaseOccupiedCollateral(calInfo);\r\n        if (success){\r\n            setCollateralPhase(calInfo,totalOccupied,beginOption);\r\n        }\r\n    }\r\n    function setCollateralPhase(uint256 calInfo,uint256 totalOccupied,uint256 beginOption) public onlyOperatorIndex(0){\r\n        if (beginOption > optionPhaseInfo[0]){\r\n            optionPhaseInfo[0] = beginOption;\r\n        }\r\n        if (tuple64.getValue0(calInfo)*optionPhase+optionPhase > tuple64.getValue1(calInfo)){\r\n            optionPhaseInfo[1] = tuple64.getValue1(calInfo);\r\n            optionPhaseInfo[2] = tuple64.getValue2(calInfo);\r\n        }\r\n        OptionsPhases[tuple64.getValue0(calInfo)] = totalOccupied;\r\n    }\r\n    function calculatePhaseOccupiedCollateral(uint256 calInfo) public view returns(uint256,uint256,bool){\r\n        uint256 beginOption = tuple64.getValue0(calInfo).mul(optionPhase);\r\n        if (beginOption>=tuple64.getValue1(calInfo)){\r\n            return (0,0,false);\r\n        }\r\n        uint256 endOption = beginOption.add(optionPhase);\r\n        if (endOption>tuple64.getValue1(calInfo)) {\r\n            endOption = tuple64.getValue1(calInfo);\r\n        }else if(endOption < optionPhaseInfo[0]){\r\n            return (0,0,false);\r\n        }\r\n        (uint256 totalOccupied,uint256 newFirstOption) = _calculateOccupiedCollateral(beginOption,endOption);\r\n        return (totalOccupied,newFirstOption,true);\r\n    }\r\n    function _calculateOccupiedCollateral(uint256 begin,uint256 end)internal view returns(uint256,uint256){\r\n        uint256 newFirstOption = optionPhaseInfo[0];\r\n        bool bfirstPhase = begin <= newFirstOption;\r\n        if (bfirstPhase) {\r\n            begin = newFirstOption;\r\n        }\r\n        uint256[] memory prices = getUnderlyingPrices();\r\n        uint256 totalOccupied = 0;\r\n        for (;begin<end;begin++){\r\n            uint256 index = _getEligibleUnderlyingIndex(allOptions[begin].underlying);\r\n            uint256 value = calOptionsCollateral(allOptions[begin],prices[index]);\r\n            if (bfirstPhase && value > 0){\r\n                newFirstOption = begin;\r\n                bfirstPhase = false;\r\n            }\r\n            totalOccupied = totalOccupied.add(value);\r\n        }\r\n        //all options in this phase are empty;\r\n        if (bfirstPhase){\r\n            newFirstOption = begin;\r\n        }\r\n        return (totalOccupied,newFirstOption);\r\n    }\r\n    function setSharedState(uint256 calInfo,uint256 firstOption,uint256[] prices,uint256 calTime) public onlyManager{\r\n        if (firstOption > optionPhaseInfo_Share[0]){\r\n            optionPhaseInfo_Share[0] = firstOption;\r\n        }\r\n        if (tuple64.getValue0(calInfo)*sharedPhase+sharedPhase > tuple64.getValue1(calInfo)){\r\n            optionPhaseInfo_Share[1] = tuple64.getValue1(calInfo);\r\n            optionPhaseInfo_Share[2] = tuple64.getValue2(calInfo);\r\n        }\r\n        OptionsPhaseTimes[tuple64.getValue0(calInfo)] = calTime;\r\n        OptionsPhasePrices[tuple64.getValue0(calInfo)] = prices;\r\n    }\r\n    function calculatePhaseSharedPayment(uint256 calInfo,address[] memory whiteList)\r\n        public view returns(uint256[],uint256,bool){\r\n        uint256 beginOption = tuple64.getValue0(calInfo).mul(sharedPhase);\r\n        return calRangeSharedPayment(calInfo,beginOption,beginOption.add(sharedPhase),whiteList);\r\n    }\r\n    function calRangeSharedPayment(uint256 calInfo,uint256 begin,uint256 end,address[] memory whiteList)\r\n            public view returns(uint256[],uint256,bool){\r\n        if (begin>=tuple64.getValue1(calInfo) || end < optionPhaseInfo_Share[0]){\r\n            return(sharedBalances,0,false);\r\n        }\r\n        if (end>tuple64.getValue1(calInfo)) {\r\n            end = tuple64.getValue1(calInfo);\r\n        }\r\n        (uint256[] memory sharedBalances,uint256 _firstOption) = \r\n            _calculateSharedPayment(begin,end,OptionsPhaseTimes[tuple64.getValue0(calInfo)],tuple64.getValue2(calInfo),whiteList);\r\n        return (sharedBalances,_firstOption,true);\r\n    }\r\n    function _calculateSharedPayment(uint256 begin,uint256 end,uint256 preTime,uint256 lastburn,address[] memory whiteList)\r\n            internal view returns(uint256[],uint256){\r\n        uint256 newFirstOption;\r\n        (begin,newFirstOption) = getSharedFirstOption(begin,end,preTime);       \r\n        uint256[] memory totalSharedPayment = new uint256[](whiteList.length);\r\n        for (;begin<end;begin++){\r\n            OptionsInfo storage info = allOptions[begin];\r\n            uint256 tempValue = info.expiration;\r\n            if(tempValue<preTime || info.amount == 0){\r\n                continue;\r\n            }\r\n            OptionsInfoEx storage optionEx = optionExtraMap[begin];\r\n            uint256 timeValue;\r\n            if (begin>=optionPhaseInfo_Share[1] || preTime<optionEx.createdTime){\r\n                timeValue = _calculateFirstTimePrice(optionEx.fullPrice,tempValue,info.strikePrice,\r\n                    optionEx.ivNumerator,optionEx.ivDenominator,info.optType);\r\n            }else{\r\n                timeValue = _calculateTimePrice(preTime,tempValue,info.strikePrice,\r\n                    optionEx.ivNumerator,optionEx.ivDenominator,info.optType);\r\n            }\r\n            if (timeValue>0){\r\n                tempValue = whiteListAddress._getEligibleIndexAddress(whiteList,optionEx.settlement);\r\n                timeValue = optionEx.tokenTimePrice.mul(timeValue).mul(info.amount).div(optionEx.fullPrice);\r\n                totalSharedPayment[tempValue] = totalSharedPayment[tempValue].add(timeValue);\r\n            }\r\n        }\r\n        //burned\r\n        return (_calBurnedSharePrice(begin,end,preTime,lastburn,whiteList,totalSharedPayment),newFirstOption);\r\n    }\r\n    function getSharedFirstOption(uint256 begin,uint256 end,uint256 preTime) internal view returns(uint256,uint256){\r\n        uint256 newFirstOption = optionPhaseInfo_Share[0];\r\n        if (begin > newFirstOption){\r\n            return (begin,newFirstOption);\r\n        }\r\n        begin = newFirstOption;\r\n        for (;begin<end;begin++){\r\n            OptionsInfo storage info = allOptions[begin];\r\n            if(info.expiration<preTime || info.amount == 0){\r\n                continue;\r\n            }\r\n            break;\r\n        }\r\n        return (begin,begin);\r\n    }\r\n    function _calBurnedSharePrice(uint256 beginIndex,uint256 endIndex,uint256 preTime,uint256 lastburn,\r\n            address[] memory whiteList,uint256[] memory totalSharedPayment)internal view returns(uint256[]){\r\n        for (uint256 i = optionPhaseInfo_Share[2];i<lastburn;i++){\r\n            uint256[2] memory burnInfo = burnedOptions[i];\r\n            if(burnInfo[0]<beginIndex || burnInfo[0] >=endIndex){\r\n                continue;\r\n            }\r\n            OptionsInfo storage info = allOptions[burnInfo[0]];\r\n            uint256 expiration = info.expiration;\r\n            if(expiration<preTime || burnInfo[1] == 0){\r\n                continue;\r\n            }\r\n            OptionsInfoEx storage optionEx = optionExtraMap[burnInfo[0]];\r\n            uint256 preValue = _optionsPrice.getOptionsPrice_iv(info.strikePrice,info.strikePrice,expiration-preTime,optionEx.ivNumerator,\r\n                optionEx.ivDenominator,info.optType);\r\n            preValue = optionEx.tokenTimePrice.mul(preValue).mul(burnInfo[1]).div(optionEx.fullPrice);\r\n            uint256 index = whiteListAddress._getEligibleIndexAddress(whiteList,optionEx.settlement);\r\n            totalSharedPayment[index] = totalSharedPayment[index].add(preValue);\r\n        }     \r\n        return totalSharedPayment;\r\n    }\r\n    function _calculateFirstTimePrice(uint256 fullPrice,uint256 expiration,\r\n            uint256 strikePrice,uint256 ivNumerator,uint256 ivDenominator,uint8 optType)internal view returns (uint256){\r\n        uint256 nowValue = _calculateCurrentPrice(expiration,strikePrice,ivNumerator,\r\n            ivDenominator,optType);\r\n        return (fullPrice>nowValue)? fullPrice-nowValue : 0;\r\n    }\r\n    function _calculateTimePrice(uint256 preTime,uint256 expiration,\r\n            uint256 strikePrice,uint256 ivNumerator,uint256 ivDenominator,uint8 optType)internal view returns (uint256){\r\n        uint256 preValue = _optionsPrice.getOptionsPrice_iv(strikePrice,strikePrice,expiration-preTime,ivNumerator,\r\n            ivDenominator,optType);\r\n        uint256 nowValue = _calculateCurrentPrice(expiration,strikePrice,ivNumerator,\r\n            ivDenominator,optType);\r\n        return (preValue>nowValue)? preValue-nowValue : 0;\r\n    }\r\n    function _calculateCurrentPrice(uint256 expiration,uint256 strikePrice,uint256 ivNumerator,uint256 ivDenominator,uint8 optType)internal view returns (uint256){\r\n        if (expiration > now){\r\n            return _optionsPrice.getOptionsPrice_iv(strikePrice,strikePrice,expiration-now,ivNumerator,\r\n                ivDenominator,optType);\r\n        }\r\n        return 0;\r\n    }\r\n    function calculatePhaseOptionsFall(uint256 calInfo,address[] memory whiteList) public view returns(int256[],uint256[]){\r\n        uint256 begin = tuple64.getValue0(calInfo).mul(sharedPhase);\r\n        uint256 end = begin.add(sharedPhase);\r\n        if (begin>=tuple64.getValue1(calInfo) || end < optionPhaseInfo_Share[0]){\r\n            return;\r\n        }\r\n        if (end>tuple64.getValue1(calInfo)) {\r\n            end = tuple64.getValue1(calInfo);\r\n        }\r\n        if (begin <= optionPhaseInfo_Share[0]) {\r\n            begin = optionPhaseInfo_Share[0];\r\n        }\r\n        uint256[] memory prices = getUnderlyingPrices();\r\n        int256[] memory OptionsFallBalances = _calRangeOptionsFall(begin,end,tuple64.getValue0(calInfo),tuple64.getValue2(calInfo),whiteList,prices);\r\n        uint256 whiteListLen = whiteList.length;\r\n        for (uint256 index = 0;index<whiteListLen;index++){\r\n            OptionsFallBalances[index] = OptionsFallBalances[index]/(int256(_oracle.getPrice(whiteList[index])));\r\n        }\r\n        return (OptionsFallBalances,prices);\r\n    }\r\n    function _calRangeOptionsFall(uint256 begin,uint256 lastOption,uint256 index,uint256 lastburn,address[] memory whiteList,uint256[] memory prices)\r\n                 internal view returns(int256[] memory){\r\n        uint256[] memory lastPrice = OptionsPhasePrices[index];\r\n        uint256 preTime = OptionsPhaseTimes[index];\r\n        int256[] memory OptionsFallBalances = _calBurnedOptionsFall(begin,lastOption,lastburn,preTime,lastPrice,whiteList);\r\n\r\n        for (;begin<lastOption;begin++){\r\n            OptionsInfo storage info = allOptions[begin];\r\n            if(info.expiration<preTime || info.amount == 0){\r\n                continue;\r\n            }\r\n            index = _getEligibleUnderlyingIndex(info.underlying);\r\n            uint256 preValue = _calPretimeCallateralFall(info,info.amount,lastPrice[index]);\r\n            uint256 curValue = _calCurtimeCallateralFall(info,info.amount,prices[index]);\r\n            if (preValue != curValue){\r\n                OptionsInfoEx storage optionEx = optionExtraMap[begin];\r\n                index = whiteListAddress._getEligibleIndexAddress(whiteList,optionEx.settlement);\r\n                OptionsFallBalances[index] += SafeMath.toInt256(preValue) - SafeMath.toInt256(curValue);\r\n            }\r\n        }\r\n        return OptionsFallBalances;\r\n    }\r\n    function _calBurnedOptionsFall(uint256 beginIndex,uint256 endIndex,uint256 lastburn,uint256 preTime,\r\n                uint256[] memory lastPrice,address[] memory whiteList)\r\n                internal view returns(int256[] memory){\r\n        int256[] memory OptionsFallBalances = new int256[](whiteList.length);\r\n        for (uint256 i = optionPhaseInfo_Share[2];i<lastburn;i++){\r\n            uint256[2] memory burnInfo = burnedOptions[i];\r\n            if(burnInfo[0]<beginIndex || burnInfo[0] >=endIndex){\r\n                continue;\r\n            }\r\n            OptionsInfo storage info = allOptions[burnInfo[0]];\r\n            if(info.expiration<preTime || burnInfo[1] == 0){\r\n                continue;\r\n            }\r\n            uint256 index = _getEligibleUnderlyingIndex(info.underlying);\r\n            uint256 preValue = _calPretimeCallateralFall(info,burnInfo[1],lastPrice[index]);\r\n            if (preValue != 0){\r\n                OptionsInfoEx storage optionEx = optionExtraMap[burnInfo[0]];\r\n                index = whiteListAddress._getEligibleIndexAddress(whiteList,optionEx.settlement);\r\n                OptionsFallBalances[index] += SafeMath.toInt256(preValue);\r\n            }\r\n        }     \r\n        return OptionsFallBalances;\r\n    }\r\n    function _calPretimeCallateralFall(OptionsInfo storage info,uint256 prePrice,uint256 amount) internal view returns(uint256){\r\n        if(info.optionID<=optionPhaseInfo_Share[1]){\r\n            return _getOptionsPayback(info.optType,info.strikePrice,prePrice).mul(amount);\r\n        }else{\r\n            return 0;\r\n        }\r\n    }\r\n    function _calCurtimeCallateralFall(OptionsInfo storage info,uint256 curPrice,uint256 amount) internal view returns(uint256){\r\n        if (info.expiration<=now || amount == 0){\r\n            return 0;\r\n        }\r\n        return _getOptionsPayback(info.optType,info.strikePrice,curPrice).mul(amount);\r\n    }\r\n    function getTotalOccupiedCollateral() public view returns (uint256) {\r\n        uint256 totalOccupied = sumOptionPhases();\r\n        uint256[] memory prices = getUnderlyingPrices();\r\n        uint optionsLen = allOptions.length;\r\n        for (uint256 beginOption = optionPhaseInfo[1]; beginOption < optionsLen;beginOption++){\r\n            uint256 index = _getEligibleUnderlyingIndex(allOptions[beginOption].underlying);\r\n            totalOccupied = totalOccupied.add(calOptionsCollateral(allOptions[beginOption],prices[index]));\r\n        }\r\n        uint burnedLen = burnedLength;\r\n        for (uint256 i = optionPhaseInfo[2];i<burnedLen;i++){\r\n            uint256[2] memory burnInfo = burnedOptions[i];\r\n            uint optionId = burnInfo[0];\r\n            if (optionId<optionPhaseInfo[1]){\r\n                index = _getEligibleUnderlyingIndex(allOptions[optionId].underlying);\r\n                totalOccupied = totalOccupied.sub(calBurnedOptionsCollateral(allOptions[optionId],\r\n                    burnInfo[1],prices[index]));\r\n            }\r\n        }\r\n        return totalOccupied;\r\n    }\r\n    function calBurnedOptionsCollateral(OptionsInfo memory option,uint256 burned,uint256 underlyingPrice)internal view returns(uint256){\r\n        if (option.expiration<=now){\r\n            return 0;\r\n        }        \r\n        return _getOptionsWorth(option.optType,option.strikePrice,underlyingPrice).mul(burned);\r\n    }\r\n    function sumOptionPhases()internal view returns(uint256){\r\n        uint256 totalOccupied = 0;\r\n        uint256 i = optionPhaseInfo[0]/optionPhase;\r\n        uint256 phaseLen = optionPhaseInfo[1]/optionPhase+1;\r\n        for (;i<phaseLen;i++){\r\n            totalOccupied = totalOccupied.add(OptionsPhases[i]);\r\n        }\r\n        return totalOccupied;\r\n    }\r\n    function calOptionsCollateral(OptionsInfo memory option,uint256 underlyingPrice)internal view returns(uint256){\r\n        if (option.expiration<=now || option.amount == 0){\r\n            return 0;\r\n        }\r\n        uint256 totalOccupied = _getOptionsWorth(option.optType,option.strikePrice,underlyingPrice).mul(option.amount);\r\n        return totalOccupied;\r\n    }\r\n    function burnOptions(address from,uint256 id,uint256 amount)public onlyManager{\r\n        OptionsInfo storage info = _getOptionsById(id);\r\n        checkEligible(info);\r\n        checkBurnable(info.optionID);\r\n        checkOwner(info,from);\r\n        checkSufficient(info,amount);\r\n        info.amount = info.amount.sub(amount);\r\n        burnedOptions[burnedLength] = [id-1,amount];\r\n        burnedLength++;\r\n        emit BurnOption(from,id,amount);\r\n    }\r\n}",
  "sourcePath": "C:\\work\\solidity\\FinnexusOptions_V2\\contracts\\OptionsPool.sol",
  "compiler": {
    "name": "solc",
    "version": "0.4.26+commit.4563c3fc.Emscripten.clang"
  },
  "schemaVersion": "3.1.0",
  "updatedAt": "2020-07-29T14:43:43.268Z",
  "devdoc": {
    "methods": {
      "addExpiration(uint256)": {
        "details": "Implementation of add an eligible expiration into the expirationList.\r",
        "params": {
          "expiration": "new eligible expiration.\r"
        }
      },
      "addUnderlyingAsset(uint32)": {
        "details": "Implementation of add an eligible underlying into the underlyingAssets.\r",
        "params": {
          "underlying": "new eligible underlying.\r"
        }
      },
      "getExpirationList()": {
        "details": "Implementation of getting the eligible expirationList.\r"
      },
      "getUnderlyingAssets()": {
        "details": "Implementation of getting the eligible underlyingAssets.\r"
      },
      "isEligibleExpiration(uint256)": {
        "details": "Implementation of testing whether the input expiration is eligible.\r",
        "params": {
          "expiration": "input expiration for testing.\r"
        }
      },
      "isEligibleUnderlyingAsset(uint32)": {
        "details": "Implementation of testing whether the input underlying is eligible.\r",
        "params": {
          "underlying": "input underlying for testing.\r"
        }
      },
      "isOwner()": {
        "details": "Returns true if the caller is the current owner."
      },
      "owner()": {
        "details": "Returns the address of the current owner."
      },
      "removeExpirationList(uint256)": {
        "details": "Implementation of revoke an invalid expiration from the expirationList.\r",
        "params": {
          "removeExpiration": "revoked expiration.\r"
        }
      },
      "removeUnderlyingAssets(uint32)": {
        "details": "Implementation of revoke an invalid underlying from the underlyingAssets.\r",
        "params": {
          "removeUnderlying": "revoked underlying.\r"
        }
      },
      "renounceOwnership()": {
        "details": "Leaves the contract without owner. It will not be possible to call `onlyOwner` functions anymore. Can only be called by the current owner.     * NOTE: Renouncing ownership will leave the contract without an owner, thereby removing any functionality that is only available to the owner."
      },
      "transferOwnership(address)": {
        "details": "Transfers ownership of the contract to a new account (`newOwner`). Can only be called by the current owner."
      }
    }
  },
  "userdoc": {
    "methods": {
      "setManager(address)": {
        "notice": "contribution period to stop or not."
      }
    }
  }
}