{
  "contractName": "OptionsPriceNew",
  "abi": [
    {
      "inputs": [],
      "payable": false,
      "stateMutability": "nonpayable",
      "type": "constructor"
    },
    {
      "constant": true,
      "inputs": [],
      "name": "FIXED_ONE",
      "outputs": [
        {
          "internalType": "int256",
          "name": "",
          "type": "int256"
        }
      ],
      "payable": false,
      "stateMutability": "view",
      "type": "function"
    },
    {
      "constant": true,
      "inputs": [
        {
          "internalType": "uint256",
          "name": "currentPrice",
          "type": "uint256"
        },
        {
          "internalType": "uint256",
          "name": "strikePrice",
          "type": "uint256"
        },
        {
          "internalType": "uint256",
          "name": "expiration",
          "type": "uint256"
        },
        {
          "internalType": "uint32",
          "name": "underlying",
          "type": "uint32"
        },
        {
          "internalType": "uint8",
          "name": "optType",
          "type": "uint8"
        }
      ],
      "name": "getOptionsPrice",
      "outputs": [
        {
          "internalType": "uint256",
          "name": "",
          "type": "uint256"
        }
      ],
      "payable": false,
      "stateMutability": "view",
      "type": "function"
    },
    {
      "constant": true,
      "inputs": [
        {
          "internalType": "uint256",
          "name": "currentPrice",
          "type": "uint256"
        },
        {
          "internalType": "uint256",
          "name": "strikePrice",
          "type": "uint256"
        },
        {
          "internalType": "uint256",
          "name": "expiration",
          "type": "uint256"
        },
        {
          "internalType": "uint256",
          "name": "_iv",
          "type": "uint256"
        },
        {
          "internalType": "uint8",
          "name": "optType",
          "type": "uint8"
        }
      ],
      "name": "getOptionsPrice_iv",
      "outputs": [
        {
          "internalType": "uint256",
          "name": "",
          "type": "uint256"
        }
      ],
      "payable": false,
      "stateMutability": "view",
      "type": "function"
    }
  ],
  "bytecode": "0x608060405234801561001057600080fd5b50610c32806100206000396000f3fe608060405234801561001057600080fd5b506004361061005d577c010000000000000000000000000000000000000000000000000000000060003504634b7d8e5c811461006257806362df80ce146100b2578063f0ead170146100ea575b600080fd5b6100a0600480360360a081101561007857600080fd5b50803590602081013590604081013590606081013563ffffffff16906080013560ff166100f2565b60408051918252519081900360200190f35b6100a0600480360360a08110156100c857600080fd5b508035906020810135906040810135906060810135906080013560ff1661017e565b6100a06101f8565b600064010000000060ff83166101165761010e87878784610201565b915050610175565b8260ff166001141561012e5761010e87878784610265565b60028360ff16106101735760405160e560020a62461bcd028152600401808060200182810382526031815260200180610bcd6031913960400191505060405180910390fd5b505b95945050505050565b600060ff821661019b5761019486868686610201565b9050610175565b8160ff16600114156101b35761019486868686610265565b60028260ff16106101755760405160e560020a62461bcd028152600401808060200182810382526031815260200180610bcd6031913960400191505060405180910390fd5b64010000000081565b6000806000610212878787876102b2565b9150915061021f8261032c565b915061022a8161032c565b90508581028783020391506000821361024457600061025a565b6401000000006000808412900380841891909104185b979650505050505050565b6000806000610276878787876102b2565b915091506102838261032c565b915061028e8161032c565b6401000000009283038802920386029182039190506000821361024457600061025a565b60008060008587146102e4576102ce640100000000870261047b565b6102de640100000000890261047b565b036102e7565b60005b6301e1338064020000000086800204870204908101915061030a60028202610501565b90508064010000000083028161031c57fe5b0598908903975095505050505050565b6000808212801561033e578260000392505b640600000000831315610366578061035b5764010000000061035e565b60005b915050610476565b633b4ce231600064010000000085830282811283039081188290041801680100000000000000008161039457fe5b0590506402000000006000869003860205945060206103b28661053f565b6801000000000000000060006401548cdd6f640100000000868002838112840390811882900418808802848112850390811883900418808902858112860390811884900418808a028681128703908118949094049093189384026401d23dd4ee199093026401c80ef026909102635b47c396199092026351c2fcea8a020191909101010160029590950a63662114cf9490940293909304840281811290910390811891909104189650908461046d5764010000000096909603955b86955050505050505b919050565b60006401000000008210156104da576040805160e560020a62461bcd02815260206004820181905260248201527f6c6f67652066756e6374696f6e20696e70757420697320746f6f20736d616c6c604482015290519081900360640190fd5b60006104e583610587565b67010000000000000066b17217f7d1cf78909102049392505050565b6401000000000280600260018201045b818110156105395780915060028182858161052857fe5b04018161053157fe5b049050610511565b50919050565b60008082128015610551578260000392505b600061055c84610654565b905081156105805780680100000000000000008161057657fe5b0492505050610476565b9392505050565b60006401000000008210156105e6576040805160e560020a62461bcd02815260206004820152601760248201527f4c6f673220696e70757420697320746f6f20736d616c6c000000000000000000604482015290519081900360640190fd5b60005b640200000000831061060757600290920491640100000000016105e9565b60005b602060ff8216101561064d576401000000008480020493506402000000008410610645576002938490049360ff601f83900316900a91909101905b60010161060a565b5092915050565b600064386bfdba298211156106b3576040805160e560020a62461bcd02815260206004820152601e60248201527f6578702066756e6374696f6e20696e707574206973206f766572666c6f770000604482015290519081900360640190fd5b6106bc826106c2565b92915050565b600080602060ff1660019060020a0290506000816fde1bc4d19efcac82445da75b00000000029050602060ff16848302908060020a82049150509150816fde1bc4d19efcb00000000000000000000281019050602060ff16848302908060020a82049150509150816f6f0de268cf7e580000000000000000000281019050602060ff16848302908060020a82049150509150816f2504a0cd9a7f720000000000000000000281019050602060ff16848302908060020a82049150509150816f09412833669fdc8000000000000000000281019050602060ff16848302908060020a82049150509150816f01d9d4d714865f5000000000000000000281019050602060ff16848302908060020a82049150509150816e4ef8ce836bba8c00000000000000000281019050602060ff16848302908060020a82049150509150816e0b481d807d1aa680000000000000000281019050602060ff16848302908060020a82049150509150816e016903b00fa354d0000000000000000281019050602060ff16848302908060020a82049150509150816d281cdaac677b34000000000000000281019050602060ff16848302908060020a82049150509150816d0402e2aad725eb800000000000000281019050602060ff16848302908060020a82049150509150816c5d5a6c9f31fe240000000000000281019050602060ff16848302908060020a82049150509150816c07c7890d442a830000000000000281019050602060ff16848302908060020a82049150509150816b9931ed5403452800000000000281019050602060ff16848302908060020a82049150509150816b0af147cf24ce1500000000000281019050602060ff16848302908060020a82049150509150816abac08546b867d0000000000281019050602060ff16848302908060020a82049150509150816a0bac08546b867d000000000281019050602060ff16848302908060020a820491505091508169afc441338061b80000000281019050602060ff16848302908060020a82049150509150816909c3cabbc0056e0000000281019050602060ff16848302908060020a820491505091508168839168328705c800000281019050602060ff16848302908060020a8204915050915081680694120286c04a00000281019050602060ff16848302908060020a82049150509150816750319e98b3d2c4000281019050602060ff16848302908060020a82049150509150816703a52a1e36b820200281019050602060ff16848302908060020a820491505091508166289286e0fce0020281019050602060ff16848302908060020a82049150509150816601b0c59eb534000281019050602060ff16848302908060020a820491505091508165114f95b554000281019050602060ff16848302908060020a820491505091508164aa7210d2000281019050602060ff16848302908060020a82049150509150816406501396000281019050602060ff16848302908060020a82049150509150816339b78e800281019050602060ff16848302908060020a82049150509150816301fd80800281019050602060ff16848302908060020a82049150509150816210fbc00281019050602060ff16848302908060020a8204915050915081618c400281019050602060ff16848302908060020a82049150509150816104620281019050602060ff16848302908060020a8204915050915081602202810190506fde1bc4d19efcac82445da75b000000008181610bc357fe5b0494935050505056fe204d75737420696e707574203020666f722063616c6c206f7074696f6e206f72203120666f7220707574206f7074696f6ea265627a7a72315820ce9d717172f4222865853cc237fe5eb98f85225a727ca4d5fe9eed2f9819546c64736f6c63430005100032",
  "source": "pragma solidity =0.5.16;\r\n\r\nimport \"./modules/Ownable.sol\";\r\nimport \"./interfaces/IVolatility.sol\";\r\nimport \"./modules/SmallNumbers.sol\";\r\n/**\r\n * @title Options price calculation contract.\r\n * @dev calculate options' price, using B-S formulas.\r\n *\r\n */\r\ncontract OptionsPriceNew{\r\n    // one year seconds\r\n    uint256 constant internal Year = 365 days;\r\n    int256 constant public FIXED_ONE = 1 << 32; // 0x100000000\r\n\r\n    /**\r\n     * @dev constructor function , setting contract address.\r\n     */  \r\n    constructor () public{\r\n    }\r\n\r\n\r\n    /**\r\n     * @dev calculate option's price using B_S formulas\r\n     * @param currentPrice current underlying price.\r\n     * @param strikePrice option's strike price.\r\n     * @param expiration option's expiration left time. Equal option's expiration timestamp - now.\r\n     * @param underlying option's underlying id, 1 for BTC, 2 for ETH.\r\n     * @param optType option's type, 0 for CALL, 2 for PUT.\r\n     */\r\n    function getOptionsPrice(uint256 currentPrice, uint256 strikePrice, uint256 expiration,uint32 underlying,uint8 optType)public view returns (uint256){\r\n        uint256 _iv = 1<<32;\r\n        if (optType == 0) {\r\n            return callOptionsPrice(currentPrice,strikePrice,expiration,_iv);\r\n        }else if (optType == 1){\r\n            return putOptionsPrice(currentPrice,strikePrice,expiration,_iv);\r\n        }else{\r\n            require(optType<2,\" Must input 0 for call option or 1 for put option\");\r\n        }\r\n    }\r\n    /**\r\n     * @dev calculate option's price using B_S formulas with user input iv.\r\n     * @param currentPrice current underlying price.\r\n     * @param strikePrice option's strike price.\r\n     * @param expiration option's expiration left time. Equal option's expiration timestamp - now.\r\n     * @param _iv user input iv numerator.\r\n     * @param optType option's type, 0 for CALL, 2 for PUT.\r\n     */\r\n    function getOptionsPrice_iv(uint256 currentPrice, uint256 strikePrice, uint256 expiration,\r\n            uint256 _iv,uint8 optType)public view returns (uint256){\r\n        if (optType == 0) {\r\n            return callOptionsPrice(currentPrice,strikePrice,expiration,_iv);\r\n        }else if (optType == 1){\r\n            return putOptionsPrice(currentPrice,strikePrice,expiration,_iv);\r\n        }else{\r\n            require(optType<2,\" Must input 0 for call option or 1 for put option\");\r\n        }\r\n    }\r\n    /**\r\n     * @dev An auxiliary function, calculate parameter d1 and d2 in B_S formulas.\r\n     * @param currentPrice current underlying price.\r\n     * @param strikePrice option's strike price.\r\n     * @param expiration option's expiration left time. Equal option's expiration timestamp - now.\r\n     * @param derta implied volatility value in B-S formulas.\r\n     */\r\n    function calculateD1D2(uint256 currentPrice, uint256 strikePrice, uint256 expiration, uint256 derta) \r\n            internal pure returns (int256,int256) {\r\n        int256 d1 = (currentPrice == strikePrice)  ? 0 : \r\n                int256(SmallNumbers.fixedLoge(currentPrice<<32))-int256(SmallNumbers.fixedLoge(strikePrice<<32));\r\n        uint256 derta2 = (derta*derta)>>33;//0.5*derta^2\r\n        derta2 = derta2*expiration/Year;\r\n        d1 = d1+int256(derta2);\r\n        derta2 = SmallNumbers.sqrt(derta2<<1);\r\n        d1 = (d1<<32)/int256(derta2);\r\n        return (d1, d1 - int256(derta2));\r\n    }\r\n    /**\r\n     * @dev An auxiliary function, calculate put option price using B_S formulas.\r\n     * @param currentPrice current underlying price.\r\n     * @param strikePrice option's strike price.\r\n     * @param expiration option's expiration left time. Equal option's expiration timestamp - now.\r\n     * @param derta implied volatility value in B-S formulas.\r\n     */\r\n    //L*pow(e,-rT)*(1-N(d2)) - S*(1-N(d1))\r\n    function putOptionsPrice(uint256 currentPrice, uint256 strikePrice, uint256 expiration, uint256 derta) \r\n                internal pure returns (uint256) {\r\n       (int256 d1, int256 d2) = calculateD1D2(currentPrice, strikePrice, expiration, derta);\r\n        d1 = SmallNumbers.normsDist(d1);\r\n        d2 = SmallNumbers.normsDist(d2);\r\n        d1 = (FIXED_ONE - d1)*int256(currentPrice);\r\n        d2 = (FIXED_ONE - d2)*int256(strikePrice);\r\n        d1 = d2 - d1;\r\n        return (d1>0) ? uint256(d1>>32) : 0;\r\n    }\r\n    /**\r\n     * @dev An auxiliary function, calculate call option price using B_S formulas.\r\n     * @param currentPrice current underlying price.\r\n     * @param strikePrice option's strike price.\r\n     * @param expiration option's expiration left time. Equal option's expiration timestamp - now.\r\n     * @param derta implied volatility value in B-S formulas.\r\n     */\r\n    //S*N(d1)-L*pow(e,-rT)*N(d2)\r\n    function callOptionsPrice(uint256 currentPrice, uint256 strikePrice, uint256 expiration, uint256 derta) \r\n                internal pure returns (uint256) {\r\n       (int256 d1, int256 d2) = calculateD1D2(currentPrice, strikePrice, expiration, derta);\r\n        d1 = SmallNumbers.normsDist(d1);\r\n        d2 = SmallNumbers.normsDist(d2);\r\n        d1 = d1*int256(currentPrice)-d2*int256(strikePrice);\r\n        return (d1>0) ? uint256(d1>>32) : 0;\r\n    }\r\n\r\n}",
  "sourcePath": "C:\\work\\solidity\\FinnexusOptions_V2\\contracts\\optionsPriceNew.sol",
  "compiler": {
    "name": "solc",
    "version": "0.5.16+commit.9c3226ce.Emscripten.clang"
  },
  "schemaVersion": "3.1.0",
  "updatedAt": "2020-10-15T03:03:37.769Z",
  "devdoc": {
    "details": "calculate options' price, using B-S formulas.  ",
    "methods": {
      "constructor": {
        "details": "constructor function , setting contract address."
      },
      "getOptionsPrice(uint256,uint256,uint256,uint32,uint8)": {
        "details": "calculate option's price using B_S formulas",
        "params": {
          "currentPrice": "current underlying price.",
          "expiration": "option's expiration left time. Equal option's expiration timestamp - now.",
          "optType": "option's type, 0 for CALL, 2 for PUT.",
          "strikePrice": "option's strike price.",
          "underlying": "option's underlying id, 1 for BTC, 2 for ETH."
        }
      },
      "getOptionsPrice_iv(uint256,uint256,uint256,uint256,uint8)": {
        "details": "calculate option's price using B_S formulas with user input iv.",
        "params": {
          "_iv": "user input iv numerator.",
          "currentPrice": "current underlying price.",
          "expiration": "option's expiration left time. Equal option's expiration timestamp - now.",
          "optType": "option's type, 0 for CALL, 2 for PUT.",
          "strikePrice": "option's strike price."
        }
      }
    },
    "title": "Options price calculation contract."
  },
  "userdoc": {
    "methods": {}
  }
}