{
  "contractName": "OptionsPoolTest",
  "abi": [
    {
      "constant": true,
      "inputs": [
        {
          "name": "from",
          "type": "uint256"
        },
        {
          "name": "size",
          "type": "uint256"
        }
      ],
      "name": "getOptionInfoList",
      "outputs": [
        {
          "name": "",
          "type": "address[]"
        },
        {
          "name": "",
          "type": "uint256[]"
        },
        {
          "name": "",
          "type": "uint256[]"
        },
        {
          "name": "",
          "type": "uint256[]"
        },
        {
          "name": "",
          "type": "uint256[]"
        }
      ],
      "payable": false,
      "stateMutability": "view",
      "type": "function"
    },
    {
      "constant": true,
      "inputs": [],
      "name": "sharedPhase",
      "outputs": [
        {
          "name": "",
          "type": "uint32"
        }
      ],
      "payable": false,
      "stateMutability": "view",
      "type": "function"
    },
    {
      "constant": false,
      "inputs": [
        {
          "name": "volatility",
          "type": "address"
        }
      ],
      "name": "setVolatilityAddress",
      "outputs": [],
      "payable": false,
      "stateMutability": "nonpayable",
      "type": "function"
    },
    {
      "constant": true,
      "inputs": [
        {
          "name": "calInfo",
          "type": "uint256"
        },
        {
          "name": "begin",
          "type": "uint256"
        },
        {
          "name": "end",
          "type": "uint256"
        },
        {
          "name": "whiteList",
          "type": "address[]"
        }
      ],
      "name": "calRangeSharedPayment",
      "outputs": [
        {
          "name": "",
          "type": "uint256[]"
        },
        {
          "name": "",
          "type": "uint256"
        },
        {
          "name": "",
          "type": "bool"
        }
      ],
      "payable": false,
      "stateMutability": "view",
      "type": "function"
    },
    {
      "constant": true,
      "inputs": [
        {
          "name": "ids",
          "type": "uint256[]"
        }
      ],
      "name": "getOptionInfoListFromID",
      "outputs": [
        {
          "name": "",
          "type": "address[]"
        },
        {
          "name": "",
          "type": "uint256[]"
        },
        {
          "name": "",
          "type": "uint256[]"
        },
        {
          "name": "",
          "type": "uint256[]"
        },
        {
          "name": "",
          "type": "uint256[]"
        }
      ],
      "payable": false,
      "stateMutability": "view",
      "type": "function"
    },
    {
      "constant": true,
      "inputs": [],
      "name": "getUnderlyingAssets",
      "outputs": [
        {
          "name": "",
          "type": "uint32[]"
        }
      ],
      "payable": false,
      "stateMutability": "view",
      "type": "function"
    },
    {
      "constant": true,
      "inputs": [
        {
          "name": "expiration",
          "type": "uint256"
        },
        {
          "name": "underlying",
          "type": "uint32"
        }
      ],
      "name": "buyOptionCheck",
      "outputs": [],
      "payable": false,
      "stateMutability": "view",
      "type": "function"
    },
    {
      "constant": true,
      "inputs": [
        {
          "name": "",
          "type": "uint256"
        }
      ],
      "name": "expirationList",
      "outputs": [
        {
          "name": "",
          "type": "uint256"
        }
      ],
      "payable": false,
      "stateMutability": "view",
      "type": "function"
    },
    {
      "constant": true,
      "inputs": [
        {
          "name": "",
          "type": "uint256"
        }
      ],
      "name": "underlyingAssets",
      "outputs": [
        {
          "name": "",
          "type": "uint32"
        }
      ],
      "payable": false,
      "stateMutability": "view",
      "type": "function"
    },
    {
      "constant": true,
      "inputs": [],
      "name": "getVolatilityAddress",
      "outputs": [
        {
          "name": "",
          "type": "address"
        }
      ],
      "payable": false,
      "stateMutability": "view",
      "type": "function"
    },
    {
      "constant": true,
      "inputs": [],
      "name": "getOptionCalRangeAll",
      "outputs": [
        {
          "name": "",
          "type": "uint256"
        },
        {
          "name": "",
          "type": "uint256"
        },
        {
          "name": "",
          "type": "uint256"
        },
        {
          "name": "",
          "type": "uint256"
        },
        {
          "name": "",
          "type": "uint256"
        },
        {
          "name": "",
          "type": "uint256"
        }
      ],
      "payable": false,
      "stateMutability": "view",
      "type": "function"
    },
    {
      "constant": true,
      "inputs": [],
      "name": "getLatestOption",
      "outputs": [
        {
          "name": "",
          "type": "uint256"
        },
        {
          "name": "",
          "type": "address"
        },
        {
          "name": "",
          "type": "uint8"
        },
        {
          "name": "",
          "type": "uint32"
        },
        {
          "name": "",
          "type": "uint256"
        },
        {
          "name": "",
          "type": "uint256"
        },
        {
          "name": "",
          "type": "uint256"
        }
      ],
      "payable": false,
      "stateMutability": "view",
      "type": "function"
    },
    {
      "constant": true,
      "inputs": [
        {
          "name": "optionsId",
          "type": "uint256"
        }
      ],
      "name": "getOptionsById",
      "outputs": [
        {
          "name": "",
          "type": "uint256"
        },
        {
          "name": "",
          "type": "address"
        },
        {
          "name": "",
          "type": "uint8"
        },
        {
          "name": "",
          "type": "uint32"
        },
        {
          "name": "",
          "type": "uint256"
        },
        {
          "name": "",
          "type": "uint256"
        },
        {
          "name": "",
          "type": "uint256"
        }
      ],
      "payable": false,
      "stateMutability": "view",
      "type": "function"
    },
    {
      "constant": false,
      "inputs": [
        {
          "name": "oracle",
          "type": "address"
        }
      ],
      "name": "setOracleAddress",
      "outputs": [],
      "payable": false,
      "stateMutability": "nonpayable",
      "type": "function"
    },
    {
      "constant": true,
      "inputs": [
        {
          "name": "",
          "type": "address"
        },
        {
          "name": "",
          "type": "uint256"
        }
      ],
      "name": "optionsBalances",
      "outputs": [
        {
          "name": "",
          "type": "uint256"
        }
      ],
      "payable": false,
      "stateMutability": "view",
      "type": "function"
    },
    {
      "constant": true,
      "inputs": [],
      "name": "getOptionsPriceAddress",
      "outputs": [
        {
          "name": "",
          "type": "address"
        }
      ],
      "payable": false,
      "stateMutability": "view",
      "type": "function"
    },
    {
      "constant": true,
      "inputs": [],
      "name": "getBurnTimeLimit",
      "outputs": [
        {
          "name": "",
          "type": "uint256"
        }
      ],
      "payable": false,
      "stateMutability": "view",
      "type": "function"
    },
    {
      "constant": true,
      "inputs": [
        {
          "name": "optionsId",
          "type": "uint256"
        },
        {
          "name": "amount",
          "type": "uint256"
        }
      ],
      "name": "getExerciseWorth",
      "outputs": [
        {
          "name": "",
          "type": "uint256"
        }
      ],
      "payable": false,
      "stateMutability": "view",
      "type": "function"
    },
    {
      "constant": true,
      "inputs": [
        {
          "name": "optionsId",
          "type": "uint256"
        }
      ],
      "name": "getOptionsLimitTimeById",
      "outputs": [
        {
          "name": "",
          "type": "uint256"
        }
      ],
      "payable": false,
      "stateMutability": "view",
      "type": "function"
    },
    {
      "constant": false,
      "inputs": [],
      "name": "renounceOwnership",
      "outputs": [],
      "payable": false,
      "stateMutability": "nonpayable",
      "type": "function"
    },
    {
      "constant": true,
      "inputs": [
        {
          "name": "expiration",
          "type": "uint256"
        }
      ],
      "name": "checkExpiration",
      "outputs": [],
      "payable": false,
      "stateMutability": "view",
      "type": "function"
    },
    {
      "constant": true,
      "inputs": [],
      "name": "getTotalOccupiedCollateral",
      "outputs": [
        {
          "name": "",
          "type": "uint256"
        }
      ],
      "payable": false,
      "stateMutability": "view",
      "type": "function"
    },
    {
      "constant": false,
      "inputs": [
        {
          "name": "from",
          "type": "address"
        },
        {
          "name": "id",
          "type": "uint256"
        },
        {
          "name": "amount",
          "type": "uint256"
        }
      ],
      "name": "burnOptions",
      "outputs": [],
      "payable": false,
      "stateMutability": "nonpayable",
      "type": "function"
    },
    {
      "constant": true,
      "inputs": [],
      "name": "burnTimeLimit",
      "outputs": [
        {
          "name": "",
          "type": "uint256"
        }
      ],
      "payable": false,
      "stateMutability": "view",
      "type": "function"
    },
    {
      "constant": false,
      "inputs": [
        {
          "name": "expiration",
          "type": "uint256"
        }
      ],
      "name": "addExpiration",
      "outputs": [],
      "payable": false,
      "stateMutability": "nonpayable",
      "type": "function"
    },
    {
      "constant": false,
      "inputs": [
        {
          "name": "removeExpiration",
          "type": "uint256"
        }
      ],
      "name": "removeExpirationList",
      "outputs": [
        {
          "name": "",
          "type": "bool"
        }
      ],
      "payable": false,
      "stateMutability": "nonpayable",
      "type": "function"
    },
    {
      "constant": true,
      "inputs": [],
      "name": "owner",
      "outputs": [
        {
          "name": "",
          "type": "address"
        }
      ],
      "payable": false,
      "stateMutability": "view",
      "type": "function"
    },
    {
      "constant": true,
      "inputs": [
        {
          "name": "",
          "type": "uint256"
        }
      ],
      "name": "allOptions",
      "outputs": [
        {
          "name": "optionID",
          "type": "uint64"
        },
        {
          "name": "owner",
          "type": "address"
        },
        {
          "name": "optType",
          "type": "uint8"
        },
        {
          "name": "underlying",
          "type": "uint32"
        },
        {
          "name": "expiration",
          "type": "uint256"
        },
        {
          "name": "strikePrice",
          "type": "uint256"
        },
        {
          "name": "amount",
          "type": "uint256"
        }
      ],
      "payable": false,
      "stateMutability": "view",
      "type": "function"
    },
    {
      "constant": true,
      "inputs": [],
      "name": "isOwner",
      "outputs": [
        {
          "name": "",
          "type": "bool"
        }
      ],
      "payable": false,
      "stateMutability": "view",
      "type": "function"
    },
    {
      "constant": false,
      "inputs": [
        {
          "name": "calInfo",
          "type": "uint256"
        },
        {
          "name": "firstOption",
          "type": "uint256"
        },
        {
          "name": "prices",
          "type": "uint256[]"
        },
        {
          "name": "calTime",
          "type": "uint256"
        }
      ],
      "name": "setSharedState",
      "outputs": [],
      "payable": false,
      "stateMutability": "nonpayable",
      "type": "function"
    },
    {
      "constant": true,
      "inputs": [],
      "name": "getExpirationList",
      "outputs": [
        {
          "name": "",
          "type": "uint256[]"
        }
      ],
      "payable": false,
      "stateMutability": "view",
      "type": "function"
    },
    {
      "constant": false,
      "inputs": [
        {
          "name": "from",
          "type": "address"
        },
        {
          "name": "settlement",
          "type": "address"
        },
        {
          "name": "type_ly_exp",
          "type": "uint256"
        },
        {
          "name": "strikePrice",
          "type": "uint256"
        },
        {
          "name": "optionPrice",
          "type": "uint256"
        },
        {
          "name": "amount",
          "type": "uint256"
        }
      ],
      "name": "createOptions",
      "outputs": [],
      "payable": false,
      "stateMutability": "nonpayable",
      "type": "function"
    },
    {
      "constant": true,
      "inputs": [
        {
          "name": "index",
          "type": "uint256"
        }
      ],
      "name": "getsharedPhaseCalInfo",
      "outputs": [
        {
          "name": "",
          "type": "uint256"
        },
        {
          "name": "",
          "type": "uint256[]"
        }
      ],
      "payable": false,
      "stateMutability": "view",
      "type": "function"
    },
    {
      "constant": false,
      "inputs": [
        {
          "name": "addAddress",
          "type": "address"
        }
      ],
      "name": "addOperator",
      "outputs": [],
      "payable": false,
      "stateMutability": "nonpayable",
      "type": "function"
    },
    {
      "constant": true,
      "inputs": [],
      "name": "getOptionPhaseCalRange",
      "outputs": [
        {
          "name": "",
          "type": "uint256"
        },
        {
          "name": "",
          "type": "uint256"
        },
        {
          "name": "",
          "type": "uint256"
        }
      ],
      "payable": false,
      "stateMutability": "view",
      "type": "function"
    },
    {
      "constant": true,
      "inputs": [
        {
          "name": "calInfo",
          "type": "uint256"
        }
      ],
      "name": "calculatePhaseOccupiedCollateral",
      "outputs": [
        {
          "name": "",
          "type": "uint256"
        },
        {
          "name": "",
          "type": "uint256"
        },
        {
          "name": "",
          "type": "bool"
        }
      ],
      "payable": false,
      "stateMutability": "view",
      "type": "function"
    },
    {
      "constant": true,
      "inputs": [
        {
          "name": "",
          "type": "uint256"
        }
      ],
      "name": "_operatorList",
      "outputs": [
        {
          "name": "",
          "type": "address"
        }
      ],
      "payable": false,
      "stateMutability": "view",
      "type": "function"
    },
    {
      "constant": true,
      "inputs": [
        {
          "name": "expiration",
          "type": "uint256"
        }
      ],
      "name": "isEligibleExpiration",
      "outputs": [
        {
          "name": "",
          "type": "bool"
        }
      ],
      "payable": false,
      "stateMutability": "view",
      "type": "function"
    },
    {
      "constant": false,
      "inputs": [
        {
          "name": "optionsPrice",
          "type": "address"
        }
      ],
      "name": "setOptionsPriceAddress",
      "outputs": [],
      "payable": false,
      "stateMutability": "nonpayable",
      "type": "function"
    },
    {
      "constant": false,
      "inputs": [
        {
          "name": "removeAddress",
          "type": "address"
        }
      ],
      "name": "removeOperator",
      "outputs": [
        {
          "name": "",
          "type": "bool"
        }
      ],
      "payable": false,
      "stateMutability": "nonpayable",
      "type": "function"
    },
    {
      "constant": true,
      "inputs": [
        {
          "name": "calInfo",
          "type": "uint256"
        },
        {
          "name": "whiteList",
          "type": "address[]"
        }
      ],
      "name": "calculatePhaseSharedPayment",
      "outputs": [
        {
          "name": "",
          "type": "uint256[]"
        },
        {
          "name": "",
          "type": "uint256"
        },
        {
          "name": "",
          "type": "bool"
        }
      ],
      "payable": false,
      "stateMutability": "view",
      "type": "function"
    },
    {
      "constant": false,
      "inputs": [
        {
          "name": "underlying",
          "type": "uint32"
        }
      ],
      "name": "addUnderlyingAsset",
      "outputs": [],
      "payable": false,
      "stateMutability": "nonpayable",
      "type": "function"
    },
    {
      "constant": true,
      "inputs": [],
      "name": "getOracleAddress",
      "outputs": [
        {
          "name": "",
          "type": "address"
        }
      ],
      "payable": false,
      "stateMutability": "view",
      "type": "function"
    },
    {
      "constant": false,
      "inputs": [
        {
          "name": "calInfo",
          "type": "uint256"
        },
        {
          "name": "totalOccupied",
          "type": "uint256"
        },
        {
          "name": "beginOption",
          "type": "uint256"
        }
      ],
      "name": "setCollateralPhase",
      "outputs": [],
      "payable": false,
      "stateMutability": "nonpayable",
      "type": "function"
    },
    {
      "constant": false,
      "inputs": [
        {
          "name": "calInfo",
          "type": "uint256"
        }
      ],
      "name": "setPhaseOccupiedCollateral",
      "outputs": [],
      "payable": false,
      "stateMutability": "nonpayable",
      "type": "function"
    },
    {
      "constant": true,
      "inputs": [],
      "name": "getOptionInfoLength",
      "outputs": [
        {
          "name": "",
          "type": "uint256"
        }
      ],
      "payable": false,
      "stateMutability": "view",
      "type": "function"
    },
    {
      "constant": true,
      "inputs": [],
      "name": "optionPhase",
      "outputs": [
        {
          "name": "",
          "type": "uint32"
        }
      ],
      "payable": false,
      "stateMutability": "view",
      "type": "function"
    },
    {
      "constant": false,
      "inputs": [
        {
          "name": "timeLimit",
          "type": "uint256"
        }
      ],
      "name": "setBurnTimeLimit",
      "outputs": [],
      "payable": false,
      "stateMutability": "nonpayable",
      "type": "function"
    },
    {
      "constant": false,
      "inputs": [
        {
          "name": "managerAddress",
          "type": "address"
        }
      ],
      "name": "setManager",
      "outputs": [],
      "payable": false,
      "stateMutability": "nonpayable",
      "type": "function"
    },
    {
      "constant": true,
      "inputs": [],
      "name": "getManager",
      "outputs": [
        {
          "name": "",
          "type": "address"
        }
      ],
      "payable": false,
      "stateMutability": "view",
      "type": "function"
    },
    {
      "constant": false,
      "inputs": [
        {
          "name": "removeUnderlying",
          "type": "uint32"
        }
      ],
      "name": "removeUnderlyingAssets",
      "outputs": [
        {
          "name": "",
          "type": "bool"
        }
      ],
      "payable": false,
      "stateMutability": "nonpayable",
      "type": "function"
    },
    {
      "constant": true,
      "inputs": [
        {
          "name": "underlying",
          "type": "uint32"
        }
      ],
      "name": "isEligibleUnderlyingAsset",
      "outputs": [
        {
          "name": "",
          "type": "bool"
        }
      ],
      "payable": false,
      "stateMutability": "view",
      "type": "function"
    },
    {
      "constant": true,
      "inputs": [
        {
          "name": "calInfo",
          "type": "uint256"
        },
        {
          "name": "whiteList",
          "type": "address[]"
        }
      ],
      "name": "calculatePhaseOptionsFall",
      "outputs": [
        {
          "name": "",
          "type": "int256[]"
        },
        {
          "name": "",
          "type": "uint256[]"
        }
      ],
      "payable": false,
      "stateMutability": "view",
      "type": "function"
    },
    {
      "constant": false,
      "inputs": [
        {
          "name": "index",
          "type": "uint256"
        },
        {
          "name": "addAddress",
          "type": "address"
        }
      ],
      "name": "setOperator",
      "outputs": [],
      "payable": false,
      "stateMutability": "nonpayable",
      "type": "function"
    },
    {
      "constant": true,
      "inputs": [
        {
          "name": "user",
          "type": "address"
        }
      ],
      "name": "getUserOptionsID",
      "outputs": [
        {
          "name": "",
          "type": "uint256[]"
        }
      ],
      "payable": false,
      "stateMutability": "view",
      "type": "function"
    },
    {
      "constant": true,
      "inputs": [],
      "name": "getOperator",
      "outputs": [
        {
          "name": "",
          "type": "address[]"
        }
      ],
      "payable": false,
      "stateMutability": "view",
      "type": "function"
    },
    {
      "constant": true,
      "inputs": [
        {
          "name": "underlying",
          "type": "uint32"
        }
      ],
      "name": "checkUnderlyingAsset",
      "outputs": [],
      "payable": false,
      "stateMutability": "view",
      "type": "function"
    },
    {
      "constant": false,
      "inputs": [
        {
          "name": "newOwner",
          "type": "address"
        }
      ],
      "name": "transferOwnership",
      "outputs": [],
      "payable": false,
      "stateMutability": "nonpayable",
      "type": "function"
    },
    {
      "constant": true,
      "inputs": [
        {
          "name": "user",
          "type": "address"
        },
        {
          "name": "from",
          "type": "uint256"
        },
        {
          "name": "size",
          "type": "uint256"
        }
      ],
      "name": "getUserOptionsID",
      "outputs": [
        {
          "name": "",
          "type": "uint256[]"
        }
      ],
      "payable": false,
      "stateMutability": "view",
      "type": "function"
    },
    {
      "constant": true,
      "inputs": [],
      "name": "getsharedPhaseCalRange",
      "outputs": [
        {
          "name": "",
          "type": "uint256"
        },
        {
          "name": "",
          "type": "uint256"
        },
        {
          "name": "",
          "type": "uint256"
        },
        {
          "name": "",
          "type": "uint256"
        }
      ],
      "payable": false,
      "stateMutability": "view",
      "type": "function"
    },
    {
      "inputs": [
        {
          "name": "oracleAddr",
          "type": "address"
        },
        {
          "name": "optionsPriceAddr",
          "type": "address"
        },
        {
          "name": "ivAddress",
          "type": "address"
        }
      ],
      "payable": false,
      "stateMutability": "nonpayable",
      "type": "constructor"
    },
    {
      "anonymous": false,
      "inputs": [
        {
          "indexed": true,
          "name": "owner",
          "type": "address"
        },
        {
          "indexed": true,
          "name": "optionID",
          "type": "uint256"
        },
        {
          "indexed": false,
          "name": "optType",
          "type": "uint8"
        },
        {
          "indexed": false,
          "name": "underlying",
          "type": "uint32"
        },
        {
          "indexed": false,
          "name": "expiration",
          "type": "uint256"
        },
        {
          "indexed": false,
          "name": "strikePrice",
          "type": "uint256"
        },
        {
          "indexed": false,
          "name": "amount",
          "type": "uint256"
        }
      ],
      "name": "CreateOption",
      "type": "event"
    },
    {
      "anonymous": false,
      "inputs": [
        {
          "indexed": true,
          "name": "owner",
          "type": "address"
        },
        {
          "indexed": true,
          "name": "optionID",
          "type": "uint256"
        },
        {
          "indexed": false,
          "name": "amount",
          "type": "uint256"
        }
      ],
      "name": "BurnOption",
      "type": "event"
    },
    {
      "anonymous": false,
      "inputs": [
        {
          "indexed": false,
          "name": "value1",
          "type": "uint256"
        },
        {
          "indexed": false,
          "name": "value2",
          "type": "uint256"
        },
        {
          "indexed": false,
          "name": "value3",
          "type": "uint256"
        }
      ],
      "name": "DebugEvent",
      "type": "event"
    },
    {
      "anonymous": false,
      "inputs": [
        {
          "indexed": true,
          "name": "previousOwner",
          "type": "address"
        },
        {
          "indexed": true,
          "name": "newOwner",
          "type": "address"
        }
      ],
      "name": "OwnershipTransferred",
      "type": "event"
    },
    {
      "constant": true,
      "inputs": [
        {
          "name": "optType",
          "type": "uint8"
        },
        {
          "name": "strikePrice",
          "type": "uint256"
        },
        {
          "name": "underlyingPrice",
          "type": "uint256"
        }
      ],
      "name": "getOptionsWorth",
      "outputs": [
        {
          "name": "",
          "type": "uint256"
        }
      ],
      "payable": false,
      "stateMutability": "pure",
      "type": "function"
    },
    {
      "constant": true,
      "inputs": [
        {
          "name": "optType",
          "type": "uint8"
        },
        {
          "name": "strikePrice",
          "type": "uint256"
        },
        {
          "name": "underlyingPrice",
          "type": "uint256"
        }
      ],
      "name": "getOptionsPayback",
      "outputs": [
        {
          "name": "",
          "type": "uint256"
        }
      ],
      "payable": false,
      "stateMutability": "pure",
      "type": "function"
    }
  ],
  "bytecode": "0x6080604052610e10600a55600c805461019063ffffffff1991821681179092556013805490911690911790553480156200003857600080fd5b50604051606080620056dd83398101604081815282516020840151919093015160008054600160a060020a031916331780825592939192859285928592859285928592600160a060020a0316917f8be0079c531659141344cd1fd0a4f28419497f9722a3daafe3b4186f6b6457e0908290a3620000be8364010000000062000173810204565b620000d28264010000000062000205810204565b620000e68164010000000062000297810204565b6040805160e0810182526201518081526203f480602082015262093a8091810191909152620d2f0060608201526213c680608082015262278d0060a08201526276a70060c08201526200013e9060099060076200033b565b5060408051808201909152600180825260026020830181905262000163929062000392565b5050505050505050505062000482565b6200018664010000000062000329810204565b1515620001e357604080517f08c379a00000000000000000000000000000000000000000000000000000000081526020600482018190526024820152600080516020620056bd833981519152604482015290519081900360640190fd5b60038054600160a060020a031916600160a060020a0392909216919091179055565b6200021864010000000062000329810204565b15156200027557604080517f08c379a00000000000000000000000000000000000000000000000000000000081526020600482018190526024820152600080516020620056bd833981519152604482015290519081900360640190fd5b60048054600160a060020a031916600160a060020a0392909216919091179055565b620002aa64010000000062000329810204565b15156200030757604080517f08c379a00000000000000000000000000000000000000000000000000000000081526020600482018190526024820152600080516020620056bd833981519152604482015290519081900360640190fd5b60058054600160a060020a031916600160a060020a0392909216919091179055565b600054600160a060020a031633145b90565b82805482825590600052602060002090810192821562000380579160200282015b8281111562000380578251829062ffffff169055916020019190600101906200035c565b506200038e92915062000441565b5090565b82805482825590600052602060002090600701600890048101928215620004335791602002820160005b83821115620003ff57835183826101000a81548163ffffffff021916908360ff1602179055509260200192600401602081600301049283019260010302620003bc565b8015620004315782816101000a81549063ffffffff0219169055600401602081600301049283019260010302620003ff565b505b506200038e9291506200045e565b6200033891905b808211156200038e576000815560010162000448565b6200033891905b808211156200038e57805463ffffffff1916815560010162000465565b61522b80620004926000396000f3006080604052600436106102c65763ffffffff60e060020a6000350416630438d49081146102cb57806316f35a7f1461044e5780632967eafe1461047c5780632b38f1801461049f57806332ab5c20146104d2578063354af3601461059c5780633582d789146105f15780633ad2fb57146106565780633ad98099146106775780633b50c4d11461068f57806342e5479d146106a757806344244d27146106d857806345e19fdd1461072057806348ee201d1461077c5780634c69c00f1461079457806355c47cb2146107b55780635ca4b73b146107d957806364ed3017146107ee57806367b8ceb9146108035780636d84e2e31461081e578063715018a614610836578063723931ca1461084b57806373a3d4241461086357806374e85fd2146108785780637b23dbbe1461089f5780637cfff2d8146108b45780637e838fa3146108cc5780638da5cb5b146108f85780638ea745b81461090d5780638f32d59b146109775780638ff239e61461098c5780639052d5f8146109ec578063924a69ce14610a0157806397a918e914610a345780639870d7fe14610aa757806398dae82814610ac857806399deae0a14610afb5780639b16bfaf14610b335780639ef975d214610b4b578063a093e2d014610b63578063ac8a584a14610b84578063af70df1214610ba5578063afec82fc14610bff578063b18b78dd14610c1d578063b452bc0414610c32578063b8a5b7fa14610c50578063bec3107f14610c68578063c27b7dfb14610c7d578063c5acbe1514610c92578063d0ebdbe714610caa578063d500958414610ccb578063d6d1401214610ce0578063db6ad2bd14610cfe578063e5081c4014610d1c578063e7a1c1c014610df8578063e7c5681514610e1c578063e7f43c6814610e3d578063ed55283414610e52578063ee29c94a14610e73578063f2fde38b14610e91578063f7de192314610eb2578063fa1cf1f014610ed9575b600080fd5b3480156102d757600080fd5b506102e6600435602435610f14565b60405180806020018060200180602001806020018060200186810386528b818151815260200191508051906020019060200280838360005b8381101561033657818101518382015260200161031e565b5050505090500186810385528a818151815260200191508051906020019060200280838360005b8381101561037557818101518382015260200161035d565b50505050905001868103845289818151815260200191508051906020019060200280838360005b838110156103b457818101518382015260200161039c565b50505050905001868103835288818151815260200191508051906020019060200280838360005b838110156103f35781810151838201526020016103db565b50505050905001868103825287818151815260200191508051906020019060200280838360005b8381101561043257818101518382015260200161041a565b505050509050019a505050505050505050505060405180910390f35b34801561045a57600080fd5b5061046361115e565b6040805163ffffffff9092168252519081900360200190f35b34801561048857600080fd5b5061049d600160a060020a036004351661116a565b005b3480156104ab57600080fd5b506104c060ff600435166024356044356111d8565b60408051918252519081900360200190f35b3480156104de57600080fd5b5060408051606435600481810135602081810285810182019096528185526105369583359560248035966044359636969095608495929093019290918291850190849080828437509497506111ef9650505050505050565b604051808060200184815260200183151515158152602001828103825285818151815260200191508051906020019060200280838360005b8381101561058657818101518382015260200161056e565b5050505090500194505050505060405180910390f35b3480156105a857600080fd5b50604080516020600480358082013583810280860185019096528085526102e69536959394602494938501929182918501908490808284375094975061128d9650505050505050565b3480156105fd57600080fd5b506106066114a6565b60408051602080825283518183015283519192839290830191858101910280838360005b8381101561064257818101518382015260200161062a565b505050509050019250505060405180910390f35b34801561066257600080fd5b5061049d60043563ffffffff6024351661152b565b34801561068357600080fd5b506104c0600435611597565b34801561069b57600080fd5b506104636004356115b6565b3480156106b357600080fd5b506106bc6115ee565b60408051600160a060020a039092168252519081900360200190f35b3480156106e457600080fd5b506106ed6115fd565b604080519687526020870195909552858501939093526060850191909152608084015260a0830152519081900360c00190f35b34801561072c57600080fd5b50610735611611565b60408051978852600160a060020a03909616602088015260ff9094168686015263ffffffff9092166060860152608085015260a084015260c0830152519081900360e00190f35b34801561078857600080fd5b506107356004356116fc565b3480156107a057600080fd5b5061049d600160a060020a0360043516611770565b3480156107c157600080fd5b506104c0600160a060020a03600435166024356117de565b3480156107e557600080fd5b506106bc61180e565b3480156107fa57600080fd5b506104c061181d565b34801561080f57600080fd5b506104c0600435602435611823565b34801561082a57600080fd5b506104c06004356119a3565b34801561084257600080fd5b5061049d611a2b565b34801561085757600080fd5b5061049d600435611ac1565b34801561086f57600080fd5b506104c0611b49565b34801561088457600080fd5b5061049d600160a060020a0360043516602435604435611df1565b3480156108ab57600080fd5b506104c06120ae565b3480156108c057600080fd5b5061049d6004356120b4565b3480156108d857600080fd5b506108e460043561210b565b604080519115158252519081900360200190f35b34801561090457600080fd5b506106bc61216a565b34801561091957600080fd5b50610925600435612179565b6040805167ffffffffffffffff9098168852600160a060020a03909616602088015260ff9094168686015263ffffffff9092166060860152608085015260a084015260c0830152519081900360e00190f35b34801561098357600080fd5b506108e46121ea565b34801561099857600080fd5b50604080516020600460443581810135838102808601850190965280855261049d95833595602480359636969560649593949201929182918501908490808284375094975050933594506121fb9350505050565b3480156109f857600080fd5b50610606612325565b348015610a0d57600080fd5b5061049d600160a060020a036004358116906024351660443560643560843560a43561237c565b348015610a4057600080fd5b50610a4c6004356126b7565b6040518083815260200180602001828103825283818151815260200191508051906020019060200280838360005b83811015610a92578181015183820152602001610a7a565b50505050905001935050505060405180910390f35b348015610ab357600080fd5b5061049d600160a060020a036004351661272a565b348015610ad457600080fd5b50610add612781565b60408051938452602084019290925282820152519081900360600190f35b348015610b0757600080fd5b50610b13600435612791565b604080519384526020840192909252151582820152519081900360600190f35b348015610b3f57600080fd5b506106bc600435612859565b348015610b5757600080fd5b506108e4600435612881565b348015610b6f57600080fd5b5061049d600160a060020a03600435166128dd565b348015610b9057600080fd5b506108e4600160a060020a036004351661294b565b348015610bb157600080fd5b50604080516020600460248035828101358481028087018601909752808652610536968435963696604495919490910192918291850190849080828437509497506129a49650505050505050565b348015610c0b57600080fd5b5061049d63ffffffff600435166129fb565b348015610c2957600080fd5b506106bc612a52565b348015610c3e57600080fd5b5061049d600435602435604435612a61565b348015610c5c57600080fd5b5061049d600435612b86565b348015610c7457600080fd5b506104c0612c5f565b348015610c8957600080fd5b50610463612c65565b348015610c9e57600080fd5b5061049d600435612c71565b348015610cb657600080fd5b5061049d600160a060020a0360043516612cc2565b348015610cd757600080fd5b506106bc612d30565b348015610cec57600080fd5b506108e463ffffffff60043516612d3f565b348015610d0a57600080fd5b506108e463ffffffff60043516612d98565b348015610d2857600080fd5b50604080516020600460248035828101358481028087018601909752808652610d7696843596369660449591949091019291829185019084908082843750949750612e209650505050505050565b604051808060200180602001838103835285818151815260200191508051906020019060200280838360005b83811015610dba578181015183820152602001610da2565b50505050905001838103825284818151815260200191508051906020019060200280838360008381101561058657818101518382015260200161056e565b348015610e0457600080fd5b5061049d600435600160a060020a0360243516612ff0565b348015610e2857600080fd5b50610606600160a060020a036004351661307e565b348015610e4957600080fd5b506106066130ea565b348015610e5e57600080fd5b506104c060ff6004351660243560443561314b565b348015610e7f57600080fd5b5061049d63ffffffff60043516613158565b348015610e9d57600080fd5b5061049d600160a060020a03600435166131de565b348015610ebe57600080fd5b50610606600160a060020a0360043516602435604435613233565b348015610ee557600080fd5b50610eee61331a565b604080519485526020850193909352838301919091526060830152519081900360800190f35b6060806060806060806060806060806000806006805490508d8f011115610f4b57600654610f48908f63ffffffff61332c16565b9c505b60008d111561114d578c604051908082528060200260200182016040528015610f7e578160200160208202803883390190505b5096508c604051908082528060200260200182016040528015610fab578160200160208202803883390190505b5095508c604051908082528060200260200182016040528015610fd8578160200160208202803883390190505b5094508c604051908082528060200260200182016040528015611005578160200160208202803883390190505b5093508c604051908082528060200260200182016040528015611032578160200160208202803883390190505b509250600091505b8c82101561113d57600680548f840190811061105257fe5b906000526020600020906005020190508060000160089054906101000a9004600160a060020a0316878381518110151561108857fe5b600160a060020a03929092166020928302919091019091015280546001820154875160e060020a90920460ff1663ffffffff91821662010000020116908790849081106110d157fe5b60209081029091010152600281015485518690849081106110ee57fe5b602090810290910101526003810154845185908490811061110b57fe5b602090810290910101526004810154835184908490811061112857fe5b6020908102909101015260019091019061103a565b86868686869b509b509b509b509b505b505050505050509295509295909350565b60135463ffffffff1681565b6111726121ea565b15156111b6576040805160e560020a62461bcd02815260206004820181905260248201526000805160206151e0833981519152604482015290519081900360640190fd5b60058054600160a060020a031916600160a060020a0392909216919091179055565b60006111e584848461336e565b90505b9392505050565b6060600080606060006112018961338c565b88101580611210575060145487105b1561122657909350600092508291508390611281565b61122f8961338c565b8711156112425761123f8961338c565b96505b6112728888601760006112548e6133a5565b81526020019081526020016000205461126c8d6133b2565b8a6133d3565b91509150818160019450945094505b50509450945094915050565b6060806060806060600060608060608060606000808d519750876040519080825280602002602001820160405280156112d0578160200160208202803883390190505b509650876040519080825280602002602001820160405280156112fd578160200160208202803883390190505b5095508760405190808252806020026020018201604052801561132a578160200160208202803883390190505b50945087604051908082528060200260200182016040528015611357578160200160208202803883390190505b50935087604051908082528060200260200182016040528015611384578160200160208202803883390190505b509250600091505b87821015611492576113b48e838151811015156113a557fe5b90602001906020020151613553565b80548851919250680100000000000000009004600160a060020a0316908890849081106113dd57fe5b600160a060020a03929092166020928302919091019091015280546001820154875160e060020a90920460ff1663ffffffff918216620100000201169087908490811061142657fe5b602090810290910101526002810154855186908490811061144357fe5b602090810290910101526003810154845185908490811061146057fe5b602090810290910101526004810154835184908490811061147d57fe5b6020908102909101015260019091019061138c565b50949c939b50919950975095509350505050565b6060600180548060200260200160405190810160405280929190818152602001828054801561152057602002820191906000526020600020906000905b82829054906101000a900463ffffffff1663ffffffff16815260200190600401906020826003010492830192600103820291508084116114e35790505b505050505090505b90565b61153481612d98565b151561158a576040805160e560020a62461bcd02815260206004820152601f60248201527f756e6465726c79696e6720697320756e737570706f7274656420617373657400604482015290519081900360640190fd5b61159382611ac1565b5050565b60098054829081106115a557fe5b600091825260209091200154905081565b60018054829081106115c457fe5b9060005260206000209060089182820401919006600402915054906101000a900463ffffffff1681565b600554600160a060020a031690565b600d54600654601254919283929043904290565b6006546000908190819081908190819081908180821161167b576040805160e560020a62461bcd02815260206004820152601560248201527f6f7074696f6e73206c69737420697320656d7074790000000000000000000000604482015290519081900360640190fd5b60068054600019840190811061168d57fe5b60009182526020909120600590910201805460018201546002830154600384015460049094015467ffffffffffffffff84169e680100000000000000008504600160a060020a03169e5060e060020a90940460ff169c5063ffffffff9092169a50985091965090945092505050565b60008060008060008060008061171189613553565b805460018201546002830154600384015460049094015467ffffffffffffffff84169e680100000000000000008504600160a060020a03169e5060e060020a90940460ff169c5063ffffffff9092169a50985091965090945092505050565b6117786121ea565b15156117bc576040805160e560020a62461bcd02815260206004820181905260248201526000805160206151e0833981519152604482015290519081900360640190fd5b60038054600160a060020a031916600160a060020a0392909216919091179055565b6008602052816000526040600020818154811015156117f957fe5b90600052602060002001600091509150505481565b600454600160a060020a031690565b600a5490565b600061182d61509d565b60008061183986613553565b6040805160e081018252825467ffffffffffffffff81168252680100000000000000008104600160a060020a0316602083015260e060020a900460ff1691810191909152600182015463ffffffff16606082015260028201546080820152600382015460a082015260049091015460c082015292506118b7836135e3565b6118c1838661363e565b6003546060840151604080517fda66325700000000000000000000000000000000000000000000000000000000815263ffffffff909216600483015251600160a060020a039092169163da663257916024808201926020929091908290030181600087803b15801561193257600080fd5b505af1158015611946573d6000803e3d6000fd5b505050506040513d602081101561195c57600080fd5b5051604084015160a0850151919350611975918461369a565b9050801515611987576000935061199a565b611997818663ffffffff6136ce16565b93505b50505092915050565b600080821180156119b657506006548211155b1515611a0c576040805160e560020a62461bcd02815260206004820152601660248201527f6f7074696f6e206964206973206e6f7420657869737400000000000000000000604482015290519081900360640190fd5b50600a546000198201600090815260076020526040902054015b919050565b611a336121ea565b1515611a77576040805160e560020a62461bcd02815260206004820181905260248201526000805160206151e0833981519152604482015290519081900360640190fd5b60008054604051600160a060020a03909116907f8be0079c531659141344cd1fd0a4f28419497f9722a3daafe3b4186f6b6457e0908390a360008054600160a060020a0319169055565b611aca81612881565b1515611b46576040805160e560020a62461bcd02815260206004820152602160248201527f65787069726174696f6e2076616c7565206973206e6f7420737570706f72746560448201527f6400000000000000000000000000000000000000000000000000000000000000606482015290519081900360840190fd5b50565b60008060606000806000806000611b5e6150d9565b6000611b68613778565b9850611b726137f9565b600654600e54919950975095505b86861015611c8e57611bb9600687815481101515611b9a57fe5b600091825260209091206001600590920201015463ffffffff16613913565b9450611c81611c74600688815481101515611bd057fe5b60009182526020918290206040805160e081018252600593909302909101805467ffffffffffffffff81168452680100000000000000008104600160a060020a03169484019490945260e060020a90930460ff1690820152600182015463ffffffff16606082015260028201546080820152600382015460a082015260049091015460c08201528a518b9089908110611c6557fe5b9060200190602002015161399b565b8a9063ffffffff6139e416565b9850600190950194611b80565b601254600f5490945092505b83831015611de357600083815260116020526040908190208151808301928390529160029082845b815481526020019060010190808311611cc2575093955085935060009250611ce8915050565b6020020151600e54909150811015611dd857611d0c600682815481101515611b9a57fe5b9450611dd5611dc8600683815481101515611d2357fe5b60009182526020918290206040805160e081018252600593909302909101805467ffffffffffffffff81168452680100000000000000008104600160a060020a03168486015260e060020a900460ff1691830191909152600181015463ffffffff16606083015260028101546080830152600381015460a08301526004015460c0820152908501518b518c908a908110611db957fe5b90602001906020020151613a41565b8a9063ffffffff61332c16565b98505b600190920191611c9a565b509698975050505050505050565b600254600090600160a060020a03163314611e7c576040805160e560020a62461bcd02815260206004820152602660248201527f4d616e6167657261626c653a2063616c6c6572206973206e6f7420746865204d60448201527f616e616765720000000000000000000000000000000000000000000000000000606482015290519081900360840190fd5b611e8583613553565b6040805160e081018252825467ffffffffffffffff81168252680100000000000000008104600160a060020a0316602083015260e060020a900460ff1691810191909152600182015463ffffffff16606082015260028201546080820152600382015460a0820152600482015460c0820152909150611f03906135e3565b8054611f189067ffffffffffffffff16613a6f565b6040805160e081018252825467ffffffffffffffff81168252680100000000000000008104600160a060020a0316602083015260e060020a900460ff1691810191909152600182015463ffffffff16606082015260028201546080820152600382015460a0820152600482015460c0820152611f949085613b04565b6040805160e081018252825467ffffffffffffffff81168252680100000000000000008104600160a060020a0316602083015260e060020a900460ff1691810191909152600182015463ffffffff16606082015260028201546080820152600382015460a0820152600482015460c0820152612010908361363e565b6004810154612025908363ffffffff61332c16565b6004820155604080518082018252600019850181526020808201859052601254600090815260119091529190912061205e9160026150f4565b506012805460010190556040805183815290518491600160a060020a038716917f1fb99acdc281bccbecb3d0073a307341181a8a7d3cd532fdaef5ce7200401c2d9181900360200190a350505050565b600a5481565b6120bc6121ea565b1515612100576040805160e560020a62461bcd02815260206004820181905260248201526000805160206151e0833981519152604482015290519081900360640190fd5b611b46600982613b73565b60006121156121ea565b1515612159576040805160e560020a62461bcd02815260206004820181905260248201526000805160206151e0833981519152604482015290519081900360640190fd5b612164600983613bea565b92915050565b600054600160a060020a031690565b600680548290811061218757fe5b60009182526020909120600590910201805460018201546002830154600384015460049094015467ffffffffffffffff84169550680100000000000000008404600160a060020a03169460e060020a90940460ff169363ffffffff909316929087565b600054600160a060020a0316331490565b600254600160a060020a03163314612283576040805160e560020a62461bcd02815260206004820152602660248201527f4d616e6167657261626c653a2063616c6c6572206973206e6f7420746865204d60448201527f616e616765720000000000000000000000000000000000000000000000000000606482015290519081900360840190fd5b6014548311156122935760148390555b61229c8461338c565b60135463ffffffff16806122af876133a5565b0201106122cf576122bf8461338c565b6015556122cb846133b2565b6016555b80601760006122dd876133a5565b81526020019081526020016000208190555081601860006122fd876133a5565b8152602001908152602001600020908051906020019061231e929190615132565b5050505050565b6060600980548060200260200160405190810160405280929190818152602001828054801561152057602002820191906000526020600020905b81548152602001906001019080831161235f575050505050905090565b600080600061238961509d565b600254600160a060020a03163314612411576040805160e560020a62461bcd02815260206004820152602660248201527f4d616e6167657261626c653a2063616c6c6572206973206e6f7420746865204d60448201527f616e616765720000000000000000000000000000000000000000000000000000606482015290519081900360840190fd5b600654935061241f886133a5565b925061242a8861338c565b9150600660e0604051908101604052808660010167ffffffffffffffff1681526020018c600160a060020a031681526020018560ff1681526020018463ffffffff1681526020014261247b8c6133b2565b01815260208082018b90526040918201899052835460018082018655600095865282862085516005909302018054868501518787015167ffffffffffffffff1990921667ffffffffffffffff909516949094177fffffffff0000000000000000000000000000000000000000ffffffffffffffff1668010000000000000000600160a060020a0395861602177fffffff00ffffffffffffffffffffffffffffffffffffffffffffffffffffffff1660e060020a60ff909216919091021781556060860151818301805463ffffffff191663ffffffff9092169190911790556080860151600282015560a0860151600382015560c0909501516004909501949094558e1684526008815290832080548084018255908452922090860191015560068054859081106125a757fe5b60009182526020918290206040805160e081018252600593909302909101805467ffffffffffffffff81168452680100000000000000008104600160a060020a03169484019490945260e060020a90930460ff1690820152600182015463ffffffff16606082015260028201546080820152600382015460a082015260049091015460c0820152905061263b818a88613c97565b836001018a600160a060020a03167f18f523957030bee670136363e25b2f847bf1bd07bb7b33c6d5475936a9aac70d8585426126768e6133b2565b6040805160ff909516855263ffffffff90931660208501520182820152606082018c9052608082018a9052519081900360a00190a350505050505050505050565b6000818152601760209081526040808320546018835281842080548351818602810186019094528084526060949293919283919083018282801561271a57602002820191906000526020600020905b815481526020019060010190808311612706575b5050505050905091509150915091565b6127326121ea565b1515612776576040805160e560020a62461bcd02815260206004820181905260248201526000805160206151e0833981519152604482015290519081900360640190fd5b611b46600b82613f66565b600d546006546012549192909190565b600c546000908190819081908190819081906127c29063ffffffff166127b68a6133a5565b9063ffffffff6136ce16565b93506127cd8861338c565b84106127e2576000965086955085945061284e565b600c546127fa90859063ffffffff908116906139e416565b92506128058861338c565b83111561281c576128158861338c565b9250612835565b600d54831015612835576000965086955085945061284e565b61283f8484614000565b91509150818160019650965096505b505050509193909250565b600b80548290811061286757fe5b600091825260209091200154600160a060020a0316905081565b600061216460098054806020026020016040519081016040528092919081815260200182805480156128d257602002820191906000526020600020905b8154815260200190600101908083116128be575b50505050508361411e565b6128e56121ea565b1515612929576040805160e560020a62461bcd02815260206004820181905260248201526000805160206151e0833981519152604482015290519081900360640190fd5b60048054600160a060020a031916600160a060020a0392909216919091179055565b60006129556121ea565b1515612999576040805160e560020a62461bcd02815260206004820181905260248201526000805160206151e0833981519152604482015290519081900360640190fd5b612164600b8361415d565b601354606090600090819081906129c49063ffffffff166127b6886133a5565b6013549091506129ed90879083906129e790829063ffffffff908116906139e416565b886111ef565b935093509350509250925092565b612a036121ea565b1515612a47576040805160e560020a62461bcd02815260206004820181905260248201526000805160206151e0833981519152604482015290519081900360640190fd5b611b46600182614234565b600354600160a060020a031690565b600b5460009081108015612a985750600b805433919083908110612a8157fe5b600091825260209091200154600160a060020a0316145b1515612b14576040805160e560020a62461bcd02815260206004820152603060248201527f4d616e6167657261626c653a2063616c6c6572206973206e6f7420746865206560448201527f6c696769626c65204f70657261746f7200000000000000000000000000000000606482015290519081900360840190fd5b600d54821115612b2457600d8290555b612b2d8461338c565b600c5463ffffffff1680612b40876133a5565b02011115612b6157612b518461338c565b600e55612b5d846133b2565b600f555b8260106000612b6f876133a5565b815260208101919091526040016000205550505050565b60008060008080600b80549050118015612bc35750600b805433919083908110612bac57fe5b600091825260209091200154600160a060020a0316145b1515612c3f576040805160e560020a62461bcd02815260206004820152603060248201527f4d616e6167657261626c653a2063616c6c6572206973206e6f7420746865206560448201527f6c696769626c65204f70657261746f7200000000000000000000000000000000606482015290519081900360840190fd5b612c4885612791565b935093509350811561231e5761231e858585612a61565b60065490565b600c5463ffffffff1681565b612c796121ea565b1515612cbd576040805160e560020a62461bcd02815260206004820181905260248201526000805160206151e0833981519152604482015290519081900360640190fd5b600a55565b612cca6121ea565b1515612d0e576040805160e560020a62461bcd02815260206004820181905260248201526000805160206151e0833981519152604482015290519081900360640190fd5b60028054600160a060020a031916600160a060020a0392909216919091179055565b600254600160a060020a031690565b6000612d496121ea565b1515612d8d576040805160e560020a62461bcd02815260206004820181905260248201526000805160206151e0833981519152604482015290519081900360640190fd5b6121646001836142fd565b60006121646001805480602002602001604051908101604052809291908181526020018280548015612e1557602002820191906000526020600020906000905b82829054906101000a900463ffffffff1663ffffffff1681526020019060040190602082600301049283019260010382029150808411612dd85790505b5050505050836143f4565b606080600080606080600080612e51601360009054906101000a900463ffffffff1663ffffffff166127b68c6133a5565b601354909650612e6c90879063ffffffff908116906139e416565b9450612e778a61338c565b86101580612e86575060145485105b15612e9057612fe3565b612e998a61338c565b851115612eac57612ea98a61338c565b94505b6014548611612ebb5760145495505b612ec36137f9565b9350612ee38686612ed38d6133a5565b612edc8e6133b2565b8d8961443f565b925088519150600090505b81811015612fdc576003548951600160a060020a03909116906341976e09908b9084908110612f1957fe5b906020019060200201516040518263ffffffff1660e060020a0281526004018082600160a060020a0316600160a060020a03168152602001915050602060405180830381600087803b158015612f6e57600080fd5b505af1158015612f82573d6000803e3d6000fd5b505050506040513d6020811015612f9857600080fd5b50518351849083908110612fa857fe5b90602001906020020151811515612fbb57fe5b058382815181101515612fca57fe5b60209081029091010152600101612eee565b8284975097505b5050505050509250929050565b612ff86121ea565b151561303c576040805160e560020a62461bcd02815260206004820181905260248201526000805160206151e0833981519152604482015290519081900360640190fd5b80600b8381548110151561304c57fe5b9060005260206000200160006101000a815481600160a060020a030219169083600160a060020a031602179055505050565b600160a060020a0381166000908152600860209081526040918290208054835181840281018401909452808452606093928301828280156130de57602002820191906000526020600020905b8154815260200190600101908083116130ca575b50505050509050919050565b6060600b80548060200260200160405190810160405280929190818152602001828054801561152057602002820191906000526020600020905b8154600160a060020a03168152600190910190602001808311613124575050505050905090565b60006111e584848461369a565b611b4660018054806020026020016040519081016040528092919081815260200182805480156131d357602002820191906000526020600020906000905b82829054906101000a900463ffffffff1663ffffffff16815260200190600401906020826003010492830192600103820291508084116131965790505b505050505082614611565b6131e66121ea565b151561322a576040805160e560020a62461bcd02815260206004820181905260248201526000805160206151e0833981519152604482015290519081900360640190fd5b611b4681614671565b606080600083604051908082528060200260200182016040528015613262578160200160208202803883390190505b50600160a060020a03871660009081526008602052604090205490925085850111156132b457600160a060020a0386166000908152600860205260409020546132b1908663ffffffff61332c16565b93505b5060005b8381101561331157600160a060020a038616600090815260086020526040902080548683019081106132e657fe5b906000526020600020015482828151811015156132ff57fe5b602090810290910101526001016132b8565b50949350505050565b60145460065460125491929091904290565b60006111e883836040805190810160405280601e81526020017f536166654d6174683a207375627472616374696f6e206f766572666c6f770000815250614752565b600060ff84161582841114156133855750816111e8565b50806111e8565b68010000000000000000900467ffffffffffffffff1690565b67ffffffffffffffff1690565b700100000000000000000000000000000000900467ffffffffffffffff1690565b60606000606060008060008060006133ee8d8d8d8d8d6147ef565b95506134018d6014600001548e8e6149ca565b909d5094505b8b8d101561354057600680548e90811061341d57fe5b90600052602060002090600502019350836002015492508a83108061344457506004840154155b1561344e57613535565b600760008e815260200190815260200160002091506134998d8c84600001548688600301548760030154886004015489600501548c600001601c9054906101000a900460ff16614a4c565b905060008111156135355760018201546134bd908a90600160a060020a0316614a95565b92506134f282600301546134e686600401546127b68587600201546136ce90919063ffffffff16565b9063ffffffff614ae216565b905061351c81878581518110151561350657fe5b602090810290910101519063ffffffff6139e416565b868481518110151561352a57fe5b602090810290910101525b6001909c019b613407565b50939b929a509198505050505050505050565b6000808211801561356657506006548211155b15156135bc576040805160e560020a62461bcd02815260206004820152601660248201527f6f7074696f6e206964206973206e6f7420657869737400000000000000000000604482015290519081900360640190fd5b6006805460001984019081106135ce57fe5b90600052602060002090600502019050919050565b60808101514210611b46576040805160e560020a62461bcd02815260206004820152601160248201527f6f7074696f6e2069732065787069726564000000000000000000000000000000604482015290519081900360640190fd5b60c0820151811115611593576040805160e560020a62461bcd02815260206004820152601d60248201527f6f7074696f6e20616d6f756e7420697320696e73756666696369656e74000000604482015290519081900360640190fd5b600060ff84161582841114156136b2575060006111e8565b60ff8416156136c3578183036136c7565b8282035b90506111e8565b6000808315156136e15760009150613771565b508282028284828115156136f157fe5b041461376d576040805160e560020a62461bcd02815260206004820152602160248201527f536166654d6174683a206d756c7469706c69636174696f6e206f766572666c6f60448201527f7700000000000000000000000000000000000000000000000000000000000000606482015290519081900360840190fd5b8091505b5092915050565b600c5460009081908190819063ffffffff16600d82015481151561379857fe5b600c54919004925063ffffffff16600d600101548115156137b557fe5b0460010190505b808210156137f1576000828152601060205260409020546137e490849063ffffffff6139e416565b92506001909101906137bc565b509092915050565b60015460408051828152602080840282010190915260609190829060009083801561382e578160200160208202803883390190505b509150600090505b828110156137715760035460018054600160a060020a039092169163da66325791908490811061386257fe5b90600052602060002090600891828204019190066004029054906101000a900463ffffffff166040518263ffffffff1660e060020a028152600401808263ffffffff168152602001915050602060405180830381600087803b1580156138c757600080fd5b505af11580156138db573d6000803e3d6000fd5b505050506040513d60208110156138f157600080fd5b5051825183908390811061390157fe5b60209081029091010152600101613836565b6000612164600180548060200260200160405190810160405280929190818152602001828054801561399057602002820191906000526020600020906000905b82829054906101000a900463ffffffff1663ffffffff16815260200190600401906020826003010492830192600103820291508084116139535790505b505050505083614b24565b6000804284608001511115806139b3575060c0840151155b156139c15760009150613771565b6139dc8460c001516127b686604001518760a001518761336e565b949350505050565b60008282018381101561376d576040805160e560020a62461bcd02815260206004820152601b60248201527f536166654d6174683a206164646974696f6e206f766572666c6f770000000000604482015290519081900360640190fd5b6000428460800151111515613a58575060006111e8565b6111e5836127b686604001518760a001518661336e565b600a54600019820160009081526007602052604090205442910110611b46576040805160e560020a62461bcd02815260206004820152602560248201527f6f7074696f6e206c6f636b206c696d69746174696f6e206973206e6f7420657860448201527f7069726564000000000000000000000000000000000000000000000000000000606482015290519081900360840190fd5b80600160a060020a03168260200151600160a060020a0316141515611593576040805160e560020a62461bcd02815260206004820152601f60248201527f63616c6c6572206973206e6f7420746865206f7074696f6e73206f776e657200604482015290519081900360640190fd5b613bcc82805480602002602001604051908101604052809291908181526020018280548015613bc157602002820191906000526020600020905b815481526020019060010190808311613bad575b50505050508261411e565b15156115935781546001810183556000928352602090922090910155565b8154600090815b81811015613c2657838582815481101515613c0857fe5b90600052602060002001541415613c1e57613c26565b600101613bf1565b81811015613c8a5760001982018114613c70578460018303815481101515613c4a57fe5b90600052602060002001548582815481101515613c6357fe5b6000918252602090912001555b8454613c8086600019830161516c565b5060019250613c8f565b600092505b505092915050565b60a08301516080840151600554606086015160408088015181517fb4277bc100000000000000000000000000000000000000000000000000000000815263ffffffff909316600484015260ff16602483015242909303604482018190526064820185905283519093600093849384938493600160a060020a039093169263b4277bc1926084808201939182900301818787803b158015613d3657600080fd5b505af1158015613d4a573d6000803e3d6000fd5b505050506040513d6040811015613d6057600080fd5b5080516020918201516004805460408e81015181517f055ef6ab0000000000000000000000000000000000000000000000000000000081529384018d9052602484018d9052604484018c9052606484018690526084840185905260ff1660a484015251939850919650600160a060020a039091169263055ef6ab9260c4808401938290030181600087803b158015613df757600080fd5b505af1158015613e0b573d6000803e3d6000fd5b505050506040513d6020811015613e2157600080fd5b5051600354604080517f41976e09000000000000000000000000000000000000000000000000000000008152600160a060020a038c811660048301529151939550613ecb9391909216916341976e099160248083019260209291908290030181600087803b158015613e9257600080fd5b505af1158015613ea6573d6000803e3d6000fd5b505050506040513d6020811015613ebc57600080fd5b5051889063ffffffff614ae216565b6040805160c081018252428152600160a060020a039a8b166020808301918252828401948552606083019687526080830198895260a083019788529c516000190167ffffffffffffffff1660009081526007909d5291909b209a518b555160018b018054600160a060020a03191691909a16179098555095516002880155945160038701555160048601555050905160059092019190915550565b613fc982805480602002602001604051908101604052809291908181526020018280548015613fbe57602002820191906000526020600020905b8154600160a060020a03168152600190910190602001808311613fa0575b505050505082614b6b565b1515611593578154600181018355600083815260209020018054600160a060020a038316600160a060020a03199091161790555050565b60008080606081808061401989600d8301548a426149ca565b90995094506140266137f9565b9350600092505b8789101561410f5761404760068a815481101515611b9a57fe5b91506140f060068a81548110151561405b57fe5b60009182526020918290206040805160e081018252600593909302909101805467ffffffffffffffff81168452680100000000000000008104600160a060020a03169484019490945260e060020a90930460ff1690820152600182015463ffffffff16606082015260028201546080820152600382015460a082015260049091015460c08201528551869085908110611c6557fe5b9050614102838263ffffffff6139e416565b600190990198925061402d565b50909792965091945050505050565b8151600090815b81811015613c8a5783858281518110151561413c57fe5b9060200190602002015114156141555760019250613c8f565b600101614125565b8154600090815b818110156141ac5783600160a060020a0316858281548110151561418457fe5b600091825260209091200154600160a060020a031614156141a4576141ac565b600101614164565b81811015613c8a5760001982018114613c705784600183038154811015156141d057fe5b6000918252602090912001548554600160a060020a03909116908690839081106141f657fe5b9060005260206000200160006101000a815481600160a060020a030219169083600160a060020a031602179055508454613c8086600019830161516c565b6142b9828054806020026020016040519081016040528092919081815260200182805480156142ae57602002820191906000526020600020906000905b82829054906101000a900463ffffffff1663ffffffff16815260200190600401906020826003010492830192600103820291508084116142715790505b5050505050826143f4565b1515611593578154600181018355600092835260209092206008830401805460079093166004026101000a63ffffffff818102199094169290931692909202179055565b8154600090815b81811015614358578363ffffffff16858281548110151561432157fe5b6000918252602090912060088204015460079091166004026101000a900463ffffffff16141561435057614358565b600101614304565b81811015613c8a57600019820181146143e457846001830381548110151561437c57fe5b90600052602060002090600891828204019190066004029054906101000a900463ffffffff1685828154811015156143b057fe5b90600052602060002090600891828204019190066004026101000a81548163ffffffff021916908363ffffffff1602179055505b8454613c80866000198301615195565b8151600090815b81811015613c8a578363ffffffff16858281518110151561441857fe5b9060200190602002015163ffffffff1614156144375760019250613c8f565b6001016143fb565b60608060006060600080600080601860008d81526020019081526020016000208054806020026020016040519081016040528092919081815260200182805480156144a957602002820191906000526020600020905b815481526020019060010190808311614495575b50505050509650601760008d81526020019081526020016000205495506144d48e8e8d898b8f614bbc565b94505b8c8e10156145ff57600680548f9081106144ed57fe5b90600052602060002090600502019350858460020154108061451157506004840154155b1561451b576145f4565b600184015461452f9063ffffffff16613913565b9b506145678485600401548e8a5111614549576000614562565b898f81518110151561455757fe5b906020019060200201515b614d69565b925061458f8485600401548b8f81518110151561458057fe5b90602001906020020151614dac565b91508282146145f4575060008d815260076020526040902060018101546145c0908b90600160a060020a0316614a95565b9b506145cb82614dee565b6145d484614dee565b03858d8151811015156145e357fe5b602090810290910101805190910190525b6001909d019c6144d7565b50929c9b505050505050505050505050565b61461b82826143f4565b1515611593576040805160e560020a62461bcd02815260206004820152601f60248201527f77686974654c6973743a207573696e6720696e76616c69642075696e74333200604482015290519081900360640190fd5b600160a060020a03811615156146f7576040805160e560020a62461bcd02815260206004820152602660248201527f4f776e61626c653a206e6577206f776e657220697320746865207a65726f206160448201527f6464726573730000000000000000000000000000000000000000000000000000606482015290519081900360840190fd5b60008054604051600160a060020a03808516939216917f8be0079c531659141344cd1fd0a4f28419497f9722a3daafe3b4186f6b6457e091a360008054600160a060020a031916600160a060020a0392909216919091179055565b60008082858511156147e55760405160e560020a62461bcd0281526004018080602001828103825283818151815260200191508051906020019080838360005b838110156147aa578181015183820152602001614792565b50505050905090810190601f1680156147d75780820380516001836020036101000a031916815260200191505b509250505060405180910390fd5b5050509103919050565b60608060006147fc6150d9565b6000806000806000895160405190808252806020026020018201604052801561482f578160200160208202803883390190505b5060165490985096505b8a8710156149b857600087815260116020526040908190208151808301928390529160029082845b81548152602001906001019080831161486157505050505095508d86600060028110151561488b57fe5b6020020151108061489d575085518d11155b156148a7576149ad565b85516006805490919081106148b857fe5b90600052602060002090600502019450846002015493508b8410806148df57506020860151155b156148e9576149ad565b85516000908152600760205260408120935061493890879060200201518d8560000154878960030154886003015489600401548a600501548d600001601c9054906101000a900460ff16614e67565b6003840154909250614964906134e6886001602002015160028701546127b6908763ffffffff6136ce16565b6001840154909250614980908b90600160a060020a0316614a95565b905061499482898381518110151561350657fe5b88828151811015156149a257fe5b602090810290910101525b600190960195614839565b50959c9b505050505050505050505050565b6000808481818811156149e257878293509350614a41565b8197505b85881015614a3a5760068054899081106149fc57fe5b906000526020600020906005020190508481600201541080614a2057506004810154155b15614a2a57614a2f565b614a3a565b6001909701966149e6565b8788935093505b505094509492505050565b6000806000614a628c8c8c8c8c8c8c8c8c614e67565b9150614a718989888888614f5c565b9050808211614a81576000614a85565b8082035b9c9b505050505050505050505050565b8151600090815b818110156139dc5783600160a060020a03168582815181101515614abc57fe5b90602001906020020151600160a060020a03161415614ada576139dc565b600101614a9c565b60006111e883836040805190810160405280601a81526020017f536166654d6174683a206469766973696f6e206279207a65726f000000000000815250615031565b8151600090815b818110156139dc578363ffffffff168582815181101515614b4857fe5b9060200190602002015163ffffffff161415614b63576139dc565b600101614b2b565b8151600090815b81811015613c8a5783600160a060020a03168582815181101515614b9257fe5b90602001906020020151600160a060020a03161415614bb45760019250613c8f565b600101614b72565b6060806000614bc96150d9565b6000806000808851604051908082528060200260200182016040528015614bfa578160200160208202803883390190505b5060165490975095505b8b861015614d5757600086815260116020526040908190208151808301928390529160029082845b815481526020019060010190808311614c2c57505050505094508d856000600281101515614c5657fe5b60200201511080614c68575084518d11155b15614c7257614d4c565b8451600680549091908110614c8357fe5b906000526020600020906005020193508a84600201541080614ca757506020850151155b15614cb157614d4c565b6001840154614cc59063ffffffff16613913565b9250614cf0848660016020020151858d5111614ce2576000614562565b8c8681518110151561455757fe5b91508115614d4c5750835160009081526007602052604090206001810154614d22908a90600160a060020a0316614a95565b9250614d2d82614dee565b8784815181101515614d3b57fe5b602090810290910101805190910190525b600190950194614c04565b50949c9b505050505050505050505050565b6000601460010154845467ffffffffffffffff1611614da457835460038501546136c79184916127b69160e060020a900460ff16908761369a565b5060006111e8565b6000428460020154111580614dbf575081155b15614dcc575060006111e8565b835460038501546111e59184916127b69160e060020a900460ff16908761369a565b60007f7fffffffffffffffffffffffffffffffffffffffffffffffffffffffffffffff8211611a26576040805160e560020a62461bcd02815260206004820152601b60248201527f536166654d6174683a20746f496e74323536206f766572666c6f770000000000604482015290519081900360640190fd5b6015546000908a101580614e7a57508789105b15614e86575083614f4f565b868910614e9557506000614f4f565b60048054604080517f055ef6ab000000000000000000000000000000000000000000000000000000008152928301899052602483018990528b8a036044840152606483018790526084830186905260ff851660a484015251600160a060020a039091169163055ef6ab9160c48083019260209291908290030181600087803b158015614f2057600080fd5b505af1158015614f34573d6000803e3d6000fd5b505050506040513d6020811015614f4a57600080fd5b505190505b9998505050505050505050565b6000428611156150245760048054604080517f055ef6ab000000000000000000000000000000000000000000000000000000008152928301889052602483018890524289036044840152606483018790526084830186905260ff851660a484015251600160a060020a039091169163055ef6ab9160c48083019260209291908290030181600087803b158015614ff157600080fd5b505af1158015615005573d6000803e3d6000fd5b505050506040513d602081101561501b57600080fd5b50519050615028565b5060005b95945050505050565b600080828185116150875760405160e560020a62461bcd028152600401808060200182810382528381815181526020019150805190602001908083836000838110156147aa578181015183820152602001614792565b50838581151561509357fe5b0495945050505050565b6040805160e081018252600080825260208201819052918101829052606081018290526080810182905260a0810182905260c081019190915290565b60408051808201825290600290829080388339509192915050565b8260028101928215615122579160200282015b82811115615122578251825591602001919060010190615107565b5061512e9291506151c5565b5090565b8280548282559060005260206000209081019282156151225791602002820182811115615122578251825591602001919060010190615107565b815481835581811115615190576000838152602090206151909181019083016151c5565b505050565b81548183558181111561519057600701600890048160070160089004836000526020600020918201910161519091905b61152891905b8082111561512e57600081556001016151cb56004f776e61626c653a2063616c6c6572206973206e6f7420746865206f776e6572a165627a7a72305820c9afe9a323b486f824e9245fbf4305e1d6c308ea30c38db432b4841df16bd5b100294f776e61626c653a2063616c6c6572206973206e6f7420746865206f776e6572",
  "source": "pragma solidity ^0.4.26;\r\nimport \"../OptionsPool.sol\";\r\ncontract OptionsPoolTest is OptionsPool {\r\n        constructor (address oracleAddr,address optionsPriceAddr,address ivAddress) OptionsPool(oracleAddr,optionsPriceAddr,ivAddress) public{\r\n    }\r\n    function getOptionsWorth(uint8 optType,uint256 strikePrice,uint256 underlyingPrice) public pure returns(uint256){\r\n        return _getOptionsWorth(optType,strikePrice,underlyingPrice);\r\n    }\r\n    function getOptionsPayback(uint8 optType,uint256 strikePrice,uint256 underlyingPrice)public pure returns(uint256){\r\n         return _getOptionsPayback(optType,strikePrice,underlyingPrice);\r\n    }\r\n    /*\r\n    function calTimeSharedPrice()public view returns(uint256){\r\n        uint256 timeValue;\r\n        if (begin>=optionPhaseInfo_Share[1] || preTime<optionEx.createdTime){\r\n            timeValue = _calculateFirstTimePrice(optionEx.fullPrice,tempValue,info.strikePrice,\r\n                optionEx.ivNumerator,optionEx.ivDenominator,info.optType);\r\n        }else{\r\n            timeValue = _calculateTimePrice(preTime,tempValue,info.strikePrice,\r\n                optionEx.ivNumerator,optionEx.ivDenominator,info.optType);\r\n        }\r\n    }\r\n    function _calculateFirstTimePrice(uint256 fullPrice,uint256 expiration,uint256 curTime,\r\n            uint256 strikePrice,uint256 ivNumerator,uint256 ivDenominator,uint8 optType)internal view returns (uint256){\r\n        uint256 nowValue = _calculateCurrentPrice(expiration,curTime,strikePrice,ivNumerator,\r\n            ivDenominator,optType);\r\n        return (fullPrice>nowValue)? fullPrice-nowValue : 0;\r\n    }\r\n    function _calculateTimePrice(uint256 preTime,uint256 expiration,uint256 curTime,\r\n            uint256 strikePrice,uint256 ivNumerator,uint256 ivDenominator,uint8 optType)internal view returns (uint256){\r\n        uint256 preValue = _optionsPrice.getOptionsPrice_iv(strikePrice,strikePrice,expiration-preTime,ivNumerator,\r\n            ivDenominator,optType);\r\n        uint256 nowValue = _calculateCurrentPrice(expiration,curTime,strikePrice,ivNumerator,\r\n            ivDenominator,optType);\r\n        return (preValue>nowValue)? preValue-nowValue : 0;\r\n    }\r\n    function _calculateCurrentPrice(uint256 expiration,uint256 curTime,uint256 strikePrice,uint256 ivNumerator,uint256 ivDenominator,uint8 optType)internal view returns (uint256){\r\n        if (expiration > curTime){\r\n        return _optionsPrice.getOptionsPrice_iv(strikePrice,strikePrice,expiration-curTime,ivNumerator,\r\n            ivDenominator,optType);\r\n        }\r\n        return 0;\r\n    }\r\n    */\r\n}\r\n\r\n",
  "sourcePath": "C:\\work\\solidity\\FinnexusOptions_V2\\contracts\\test\\optionPoolTest.sol",
  "compiler": {
    "name": "solc",
    "version": "0.4.26+commit.4563c3fc.Emscripten.clang"
  },
  "schemaVersion": "3.1.0",
  "updatedAt": "2020-08-01T12:28:46.458Z",
  "devdoc": {
    "methods": {
      "addExpiration(uint256)": {
        "details": "Implementation of add an eligible expiration into the expirationList.\r",
        "params": {
          "expiration": "new eligible expiration.\r"
        }
      },
      "addUnderlyingAsset(uint32)": {
        "details": "Implementation of add an eligible underlying into the underlyingAssets.\r",
        "params": {
          "underlying": "new eligible underlying.\r"
        }
      },
      "getExpirationList()": {
        "details": "Implementation of getting the eligible expirationList.\r"
      },
      "getUnderlyingAssets()": {
        "details": "Implementation of getting the eligible underlyingAssets.\r"
      },
      "isEligibleExpiration(uint256)": {
        "details": "Implementation of testing whether the input expiration is eligible.\r",
        "params": {
          "expiration": "input expiration for testing.\r"
        }
      },
      "isEligibleUnderlyingAsset(uint32)": {
        "details": "Implementation of testing whether the input underlying is eligible.\r",
        "params": {
          "underlying": "input underlying for testing.\r"
        }
      },
      "isOwner()": {
        "details": "Returns true if the caller is the current owner."
      },
      "owner()": {
        "details": "Returns the address of the current owner."
      },
      "removeExpirationList(uint256)": {
        "details": "Implementation of revoke an invalid expiration from the expirationList.\r",
        "params": {
          "removeExpiration": "revoked expiration.\r"
        }
      },
      "removeUnderlyingAssets(uint32)": {
        "details": "Implementation of revoke an invalid underlying from the underlyingAssets.\r",
        "params": {
          "removeUnderlying": "revoked underlying.\r"
        }
      },
      "renounceOwnership()": {
        "details": "Leaves the contract without owner. It will not be possible to call `onlyOwner` functions anymore. Can only be called by the current owner.     * NOTE: Renouncing ownership will leave the contract without an owner, thereby removing any functionality that is only available to the owner."
      },
      "transferOwnership(address)": {
        "details": "Transfers ownership of the contract to a new account (`newOwner`). Can only be called by the current owner."
      }
    }
  },
  "userdoc": {
    "methods": {
      "setManager(address)": {
        "notice": "contribution period to stop or not."
      }
    }
  }
}