{
  "contractName": "OptionsPool",
  "abi": [
    {
      "constant": true,
      "inputs": [
        {
          "name": "from",
          "type": "uint256"
        },
        {
          "name": "size",
          "type": "uint256"
        }
      ],
      "name": "getOptionInfoList",
      "outputs": [
        {
          "name": "",
          "type": "address[]"
        },
        {
          "name": "",
          "type": "uint256[]"
        },
        {
          "name": "",
          "type": "uint256[]"
        },
        {
          "name": "",
          "type": "uint256[]"
        },
        {
          "name": "",
          "type": "uint256[]"
        }
      ],
      "payable": false,
      "stateMutability": "view",
      "type": "function"
    },
    {
      "constant": true,
      "inputs": [],
      "name": "sharedPhase",
      "outputs": [
        {
          "name": "",
          "type": "uint32"
        }
      ],
      "payable": false,
      "stateMutability": "view",
      "type": "function"
    },
    {
      "constant": false,
      "inputs": [
        {
          "name": "volatility",
          "type": "address"
        }
      ],
      "name": "setVolatilityAddress",
      "outputs": [],
      "payable": false,
      "stateMutability": "nonpayable",
      "type": "function"
    },
    {
      "constant": true,
      "inputs": [
        {
          "name": "ids",
          "type": "uint256[]"
        }
      ],
      "name": "getOptionInfoListFromID",
      "outputs": [
        {
          "name": "",
          "type": "address[]"
        },
        {
          "name": "",
          "type": "uint256[]"
        },
        {
          "name": "",
          "type": "uint256[]"
        },
        {
          "name": "",
          "type": "uint256[]"
        },
        {
          "name": "",
          "type": "uint256[]"
        }
      ],
      "payable": false,
      "stateMutability": "view",
      "type": "function"
    },
    {
      "constant": true,
      "inputs": [],
      "name": "getUnderlyingAssets",
      "outputs": [
        {
          "name": "",
          "type": "uint32[]"
        }
      ],
      "payable": false,
      "stateMutability": "view",
      "type": "function"
    },
    {
      "constant": true,
      "inputs": [
        {
          "name": "expiration",
          "type": "uint256"
        },
        {
          "name": "underlying",
          "type": "uint32"
        }
      ],
      "name": "buyOptionCheck",
      "outputs": [],
      "payable": false,
      "stateMutability": "view",
      "type": "function"
    },
    {
      "constant": true,
      "inputs": [
        {
          "name": "",
          "type": "uint256"
        }
      ],
      "name": "expirationList",
      "outputs": [
        {
          "name": "",
          "type": "uint256"
        }
      ],
      "payable": false,
      "stateMutability": "view",
      "type": "function"
    },
    {
      "constant": true,
      "inputs": [
        {
          "name": "",
          "type": "uint256"
        }
      ],
      "name": "underlyingAssets",
      "outputs": [
        {
          "name": "",
          "type": "uint32"
        }
      ],
      "payable": false,
      "stateMutability": "view",
      "type": "function"
    },
    {
      "constant": true,
      "inputs": [],
      "name": "getVolatilityAddress",
      "outputs": [
        {
          "name": "",
          "type": "address"
        }
      ],
      "payable": false,
      "stateMutability": "view",
      "type": "function"
    },
    {
      "constant": true,
      "inputs": [],
      "name": "getLatestOption",
      "outputs": [
        {
          "name": "",
          "type": "uint256"
        },
        {
          "name": "",
          "type": "address"
        },
        {
          "name": "",
          "type": "uint8"
        },
        {
          "name": "",
          "type": "uint32"
        },
        {
          "name": "",
          "type": "uint256"
        },
        {
          "name": "",
          "type": "uint256"
        },
        {
          "name": "",
          "type": "uint256"
        }
      ],
      "payable": false,
      "stateMutability": "view",
      "type": "function"
    },
    {
      "constant": true,
      "inputs": [
        {
          "name": "optionsId",
          "type": "uint256"
        }
      ],
      "name": "getOptionsById",
      "outputs": [
        {
          "name": "",
          "type": "uint256"
        },
        {
          "name": "",
          "type": "address"
        },
        {
          "name": "",
          "type": "uint8"
        },
        {
          "name": "",
          "type": "uint32"
        },
        {
          "name": "",
          "type": "uint256"
        },
        {
          "name": "",
          "type": "uint256"
        },
        {
          "name": "",
          "type": "uint256"
        }
      ],
      "payable": false,
      "stateMutability": "view",
      "type": "function"
    },
    {
      "constant": false,
      "inputs": [
        {
          "name": "oracle",
          "type": "address"
        }
      ],
      "name": "setOracleAddress",
      "outputs": [],
      "payable": false,
      "stateMutability": "nonpayable",
      "type": "function"
    },
    {
      "constant": true,
      "inputs": [
        {
          "name": "",
          "type": "address"
        },
        {
          "name": "",
          "type": "uint256"
        }
      ],
      "name": "optionsBalances",
      "outputs": [
        {
          "name": "",
          "type": "uint256"
        }
      ],
      "payable": false,
      "stateMutability": "view",
      "type": "function"
    },
    {
      "constant": true,
      "inputs": [],
      "name": "getOptionsPriceAddress",
      "outputs": [
        {
          "name": "",
          "type": "address"
        }
      ],
      "payable": false,
      "stateMutability": "view",
      "type": "function"
    },
    {
      "constant": true,
      "inputs": [
        {
          "name": "optionsId",
          "type": "uint256"
        },
        {
          "name": "amount",
          "type": "uint256"
        }
      ],
      "name": "getExerciseWorth",
      "outputs": [
        {
          "name": "",
          "type": "uint256"
        }
      ],
      "payable": false,
      "stateMutability": "view",
      "type": "function"
    },
    {
      "constant": false,
      "inputs": [],
      "name": "renounceOwnership",
      "outputs": [],
      "payable": false,
      "stateMutability": "nonpayable",
      "type": "function"
    },
    {
      "constant": true,
      "inputs": [
        {
          "name": "expiration",
          "type": "uint256"
        }
      ],
      "name": "checkExpiration",
      "outputs": [],
      "payable": false,
      "stateMutability": "view",
      "type": "function"
    },
    {
      "constant": false,
      "inputs": [
        {
          "name": "expiration",
          "type": "uint256"
        }
      ],
      "name": "addExpiration",
      "outputs": [],
      "payable": false,
      "stateMutability": "nonpayable",
      "type": "function"
    },
    {
      "constant": false,
      "inputs": [
        {
          "name": "removeExpiration",
          "type": "uint256"
        }
      ],
      "name": "removeExpirationList",
      "outputs": [
        {
          "name": "",
          "type": "bool"
        }
      ],
      "payable": false,
      "stateMutability": "nonpayable",
      "type": "function"
    },
    {
      "constant": true,
      "inputs": [],
      "name": "owner",
      "outputs": [
        {
          "name": "",
          "type": "address"
        }
      ],
      "payable": false,
      "stateMutability": "view",
      "type": "function"
    },
    {
      "constant": true,
      "inputs": [
        {
          "name": "",
          "type": "uint256"
        }
      ],
      "name": "allOptions",
      "outputs": [
        {
          "name": "optionID",
          "type": "uint64"
        },
        {
          "name": "owner",
          "type": "address"
        },
        {
          "name": "optType",
          "type": "uint8"
        },
        {
          "name": "underlying",
          "type": "uint32"
        },
        {
          "name": "expiration",
          "type": "uint256"
        },
        {
          "name": "strikePrice",
          "type": "uint256"
        },
        {
          "name": "amount",
          "type": "uint256"
        }
      ],
      "payable": false,
      "stateMutability": "view",
      "type": "function"
    },
    {
      "constant": true,
      "inputs": [],
      "name": "isOwner",
      "outputs": [
        {
          "name": "",
          "type": "bool"
        }
      ],
      "payable": false,
      "stateMutability": "view",
      "type": "function"
    },
    {
      "constant": true,
      "inputs": [],
      "name": "getExpirationList",
      "outputs": [
        {
          "name": "",
          "type": "uint256[]"
        }
      ],
      "payable": false,
      "stateMutability": "view",
      "type": "function"
    },
    {
      "constant": false,
      "inputs": [
        {
          "name": "from",
          "type": "address"
        },
        {
          "name": "settlement",
          "type": "address"
        },
        {
          "name": "type_ly_exp",
          "type": "uint256"
        },
        {
          "name": "strikePrice",
          "type": "uint256"
        },
        {
          "name": "underlyingPrice",
          "type": "uint256"
        },
        {
          "name": "amount",
          "type": "uint256"
        }
      ],
      "name": "createOptions",
      "outputs": [],
      "payable": false,
      "stateMutability": "nonpayable",
      "type": "function"
    },
    {
      "constant": true,
      "inputs": [
        {
          "name": "expiration",
          "type": "uint256"
        }
      ],
      "name": "isEligibleExpiration",
      "outputs": [
        {
          "name": "",
          "type": "bool"
        }
      ],
      "payable": false,
      "stateMutability": "view",
      "type": "function"
    },
    {
      "constant": false,
      "inputs": [
        {
          "name": "optionsPrice",
          "type": "address"
        }
      ],
      "name": "setOptionsPriceAddress",
      "outputs": [],
      "payable": false,
      "stateMutability": "nonpayable",
      "type": "function"
    },
    {
      "constant": false,
      "inputs": [
        {
          "name": "underlying",
          "type": "uint32"
        }
      ],
      "name": "addUnderlyingAsset",
      "outputs": [],
      "payable": false,
      "stateMutability": "nonpayable",
      "type": "function"
    },
    {
      "constant": true,
      "inputs": [],
      "name": "getOracleAddress",
      "outputs": [
        {
          "name": "",
          "type": "address"
        }
      ],
      "payable": false,
      "stateMutability": "view",
      "type": "function"
    },
    {
      "constant": false,
      "inputs": [
        {
          "name": "operator",
          "type": "address"
        }
      ],
      "name": "setOperator",
      "outputs": [],
      "payable": false,
      "stateMutability": "nonpayable",
      "type": "function"
    },
    {
      "constant": true,
      "inputs": [],
      "name": "getOptionInfoLength",
      "outputs": [
        {
          "name": "",
          "type": "uint256"
        }
      ],
      "payable": false,
      "stateMutability": "view",
      "type": "function"
    },
    {
      "constant": true,
      "inputs": [],
      "name": "optionPhase",
      "outputs": [
        {
          "name": "",
          "type": "uint32"
        }
      ],
      "payable": false,
      "stateMutability": "view",
      "type": "function"
    },
    {
      "constant": false,
      "inputs": [
        {
          "name": "managerAddress",
          "type": "address"
        }
      ],
      "name": "setManager",
      "outputs": [],
      "payable": false,
      "stateMutability": "nonpayable",
      "type": "function"
    },
    {
      "constant": true,
      "inputs": [],
      "name": "getManager",
      "outputs": [
        {
          "name": "",
          "type": "address"
        }
      ],
      "payable": false,
      "stateMutability": "view",
      "type": "function"
    },
    {
      "constant": false,
      "inputs": [
        {
          "name": "removeUnderlying",
          "type": "uint32"
        }
      ],
      "name": "removeUnderlyingAssets",
      "outputs": [
        {
          "name": "",
          "type": "bool"
        }
      ],
      "payable": false,
      "stateMutability": "nonpayable",
      "type": "function"
    },
    {
      "constant": true,
      "inputs": [
        {
          "name": "underlying",
          "type": "uint32"
        }
      ],
      "name": "isEligibleUnderlyingAsset",
      "outputs": [
        {
          "name": "",
          "type": "bool"
        }
      ],
      "payable": false,
      "stateMutability": "view",
      "type": "function"
    },
    {
      "constant": true,
      "inputs": [
        {
          "name": "user",
          "type": "address"
        }
      ],
      "name": "getUserOptionsID",
      "outputs": [
        {
          "name": "",
          "type": "uint256[]"
        }
      ],
      "payable": false,
      "stateMutability": "view",
      "type": "function"
    },
    {
      "constant": true,
      "inputs": [],
      "name": "getOperator",
      "outputs": [
        {
          "name": "",
          "type": "address"
        }
      ],
      "payable": false,
      "stateMutability": "view",
      "type": "function"
    },
    {
      "constant": true,
      "inputs": [
        {
          "name": "underlying",
          "type": "uint32"
        }
      ],
      "name": "checkUnderlyingAsset",
      "outputs": [],
      "payable": false,
      "stateMutability": "view",
      "type": "function"
    },
    {
      "constant": false,
      "inputs": [
        {
          "name": "newOwner",
          "type": "address"
        }
      ],
      "name": "transferOwnership",
      "outputs": [],
      "payable": false,
      "stateMutability": "nonpayable",
      "type": "function"
    },
    {
      "inputs": [
        {
          "name": "oracleAddr",
          "type": "address"
        },
        {
          "name": "optionsPriceAddr",
          "type": "address"
        },
        {
          "name": "ivAddress",
          "type": "address"
        }
      ],
      "payable": false,
      "stateMutability": "nonpayable",
      "type": "constructor"
    },
    {
      "anonymous": false,
      "inputs": [
        {
          "indexed": true,
          "name": "owner",
          "type": "address"
        },
        {
          "indexed": true,
          "name": "optionID",
          "type": "uint256"
        },
        {
          "indexed": false,
          "name": "optType",
          "type": "uint8"
        },
        {
          "indexed": false,
          "name": "underlying",
          "type": "uint32"
        },
        {
          "indexed": false,
          "name": "expiration",
          "type": "uint256"
        },
        {
          "indexed": false,
          "name": "strikePrice",
          "type": "uint256"
        },
        {
          "indexed": false,
          "name": "amount",
          "type": "uint256"
        }
      ],
      "name": "CreateOption",
      "type": "event"
    },
    {
      "anonymous": false,
      "inputs": [
        {
          "indexed": true,
          "name": "owner",
          "type": "address"
        },
        {
          "indexed": true,
          "name": "optionID",
          "type": "uint256"
        },
        {
          "indexed": false,
          "name": "amount",
          "type": "uint256"
        }
      ],
      "name": "BurnOption",
      "type": "event"
    },
    {
      "anonymous": false,
      "inputs": [
        {
          "indexed": false,
          "name": "value1",
          "type": "uint256"
        },
        {
          "indexed": false,
          "name": "value2",
          "type": "uint256"
        },
        {
          "indexed": false,
          "name": "value3",
          "type": "uint256"
        }
      ],
      "name": "DebugEvent",
      "type": "event"
    },
    {
      "anonymous": false,
      "inputs": [
        {
          "indexed": true,
          "name": "previousOwner",
          "type": "address"
        },
        {
          "indexed": true,
          "name": "newOwner",
          "type": "address"
        }
      ],
      "name": "OwnershipTransferred",
      "type": "event"
    },
    {
      "constant": true,
      "inputs": [],
      "name": "getOptionPhaseCalRange",
      "outputs": [
        {
          "name": "",
          "type": "uint256"
        },
        {
          "name": "",
          "type": "uint256"
        },
        {
          "name": "",
          "type": "uint256"
        }
      ],
      "payable": false,
      "stateMutability": "view",
      "type": "function"
    },
    {
      "constant": true,
      "inputs": [],
      "name": "getsharedPhaseCalRange",
      "outputs": [
        {
          "name": "",
          "type": "uint256"
        },
        {
          "name": "",
          "type": "uint256"
        },
        {
          "name": "",
          "type": "uint256"
        },
        {
          "name": "",
          "type": "uint256"
        }
      ],
      "payable": false,
      "stateMutability": "view",
      "type": "function"
    },
    {
      "constant": true,
      "inputs": [
        {
          "name": "index",
          "type": "uint256"
        }
      ],
      "name": "getsharedPhaseCalInfo",
      "outputs": [
        {
          "name": "",
          "type": "uint256"
        },
        {
          "name": "",
          "type": "uint256[]"
        }
      ],
      "payable": false,
      "stateMutability": "view",
      "type": "function"
    },
    {
      "constant": false,
      "inputs": [
        {
          "name": "calInfo",
          "type": "uint256"
        }
      ],
      "name": "setPhaseOccupiedCollateral",
      "outputs": [],
      "payable": false,
      "stateMutability": "nonpayable",
      "type": "function"
    },
    {
      "constant": false,
      "inputs": [
        {
          "name": "calInfo",
          "type": "uint256"
        },
        {
          "name": "totalOccupied",
          "type": "uint256"
        },
        {
          "name": "beginOption",
          "type": "uint256"
        }
      ],
      "name": "setCollateralPhase",
      "outputs": [],
      "payable": false,
      "stateMutability": "nonpayable",
      "type": "function"
    },
    {
      "constant": true,
      "inputs": [
        {
          "name": "calInfo",
          "type": "uint256"
        }
      ],
      "name": "calculatePhaseOccupiedCollateral",
      "outputs": [
        {
          "name": "",
          "type": "uint256"
        },
        {
          "name": "",
          "type": "uint256"
        },
        {
          "name": "",
          "type": "bool"
        }
      ],
      "payable": false,
      "stateMutability": "view",
      "type": "function"
    },
    {
      "constant": false,
      "inputs": [
        {
          "name": "calInfo",
          "type": "uint256"
        },
        {
          "name": "firstOption",
          "type": "uint256"
        },
        {
          "name": "prices",
          "type": "uint256[]"
        },
        {
          "name": "calTime",
          "type": "uint256"
        }
      ],
      "name": "setSharedState",
      "outputs": [],
      "payable": false,
      "stateMutability": "nonpayable",
      "type": "function"
    },
    {
      "constant": true,
      "inputs": [
        {
          "name": "calInfo",
          "type": "uint256"
        },
        {
          "name": "whiteList",
          "type": "address[]"
        }
      ],
      "name": "calculatePhaseSharedPayment",
      "outputs": [
        {
          "name": "",
          "type": "uint256[]"
        },
        {
          "name": "",
          "type": "uint256"
        },
        {
          "name": "",
          "type": "bool"
        }
      ],
      "payable": false,
      "stateMutability": "view",
      "type": "function"
    },
    {
      "constant": true,
      "inputs": [
        {
          "name": "calInfo",
          "type": "uint256"
        },
        {
          "name": "begin",
          "type": "uint256"
        },
        {
          "name": "end",
          "type": "uint256"
        },
        {
          "name": "whiteList",
          "type": "address[]"
        }
      ],
      "name": "calRangeSharedPayment",
      "outputs": [
        {
          "name": "",
          "type": "uint256[]"
        },
        {
          "name": "",
          "type": "uint256"
        },
        {
          "name": "",
          "type": "bool"
        }
      ],
      "payable": false,
      "stateMutability": "view",
      "type": "function"
    },
    {
      "constant": true,
      "inputs": [
        {
          "name": "calInfo",
          "type": "uint256"
        },
        {
          "name": "whiteList",
          "type": "address[]"
        }
      ],
      "name": "calculatePhaseOptionsFall",
      "outputs": [
        {
          "name": "",
          "type": "int256[]"
        },
        {
          "name": "",
          "type": "uint256[]"
        }
      ],
      "payable": false,
      "stateMutability": "view",
      "type": "function"
    },
    {
      "constant": true,
      "inputs": [],
      "name": "getTotalOccupiedCollateral",
      "outputs": [
        {
          "name": "",
          "type": "uint256"
        }
      ],
      "payable": false,
      "stateMutability": "view",
      "type": "function"
    },
    {
      "constant": false,
      "inputs": [
        {
          "name": "from",
          "type": "address"
        },
        {
          "name": "id",
          "type": "uint256"
        },
        {
          "name": "amount",
          "type": "uint256"
        }
      ],
      "name": "burnOptions",
      "outputs": [],
      "payable": false,
      "stateMutability": "nonpayable",
      "type": "function"
    }
  ],
  "bytecode": "0x6080604052600a8054750190000000000000000000000000000000000000000060a060020a63ffffffff02199091161790556011805463ffffffff19166101901790553480156200004f57600080fd5b5060405160608062004cdb83398101604081815282516020840151919093015160008054600160a060020a031916331780825592939192859285928592600160a060020a0316917f8be0079c531659141344cd1fd0a4f28419497f9722a3daafe3b4186f6b6457e0908290a3620000cf8364010000000062000181810204565b620000e38264010000000062000213810204565b620000f781640100000000620002a5810204565b6040805160e0810182526201518081526203f480602082015262093a8091810191909152620d2f0060608201526213c680608082015262278d0060a08201526276a70060c08201526200014f90600990600762000349565b50604080518082019091526001808252600260208301819052620001749290620003a0565b5050505050505062000490565b6200019464010000000062000337810204565b1515620001f157604080517f08c379a0000000000000000000000000000000000000000000000000000000008152602060048201819052602482015260008051602062004cbb833981519152604482015290519081900360640190fd5b60038054600160a060020a031916600160a060020a0392909216919091179055565b6200022664010000000062000337810204565b15156200028357604080517f08c379a0000000000000000000000000000000000000000000000000000000008152602060048201819052602482015260008051602062004cbb833981519152604482015290519081900360640190fd5b60048054600160a060020a031916600160a060020a0392909216919091179055565b620002b864010000000062000337810204565b15156200031557604080517f08c379a0000000000000000000000000000000000000000000000000000000008152602060048201819052602482015260008051602062004cbb833981519152604482015290519081900360640190fd5b60058054600160a060020a031916600160a060020a0392909216919091179055565b600054600160a060020a031633145b90565b8280548282559060005260206000209081019282156200038e579160200282015b828111156200038e578251829062ffffff169055916020019190600101906200036a565b506200039c9291506200044f565b5090565b82805482825590600052602060002090600701600890048101928215620004415791602002820160005b838211156200040d57835183826101000a81548163ffffffff021916908360ff1602179055509260200192600401602081600301049283019260010302620003ca565b80156200043f5782816101000a81549063ffffffff02191690556004016020816003010492830192600103026200040d565b505b506200039c9291506200046c565b6200034691905b808211156200039c576000815560010162000456565b6200034691905b808211156200039c57805463ffffffff1916815560010162000473565b61481b80620004a06000396000f30060806040526004361061024d5763ffffffff60e060020a6000350416630438d490811461025257806316f35a7f146103d55780632967eafe1461040357806332ab5c2014610426578063354af360146104f05780633582d789146105455780633ad2fb57146105aa5780633ad98099146105cb5780633b50c4d1146105f557806342e5479d1461060d57806345e19fdd1461063e57806348ee201d1461069a5780634c69c00f146106b257806355c47cb2146106d35780635ca4b73b146106f757806367b8ceb91461070c578063715018a614610727578063723931ca1461073c57806373a3d4241461075457806374e85fd2146107695780637cfff2d8146107905780637e838fa3146107a85780638da5cb5b146107d45780638ea745b8146107e95780638f32d59b146108535780638ff239e6146108685780639052d5f8146108c8578063924a69ce146108dd57806397a918e91461091057806398dae8281461098357806399deae0a146109b65780639ef975d2146109ee578063a093e2d014610a06578063af70df1214610a27578063afec82fc14610a81578063b18b78dd14610a9f578063b3ab15fb14610ab4578063b452bc0414610ad5578063b8a5b7fa14610af3578063bec3107f14610b0b578063c27b7dfb14610b20578063d0ebdbe714610b35578063d500958414610b56578063d6d1401214610b6b578063db6ad2bd14610b89578063e5081c4014610ba7578063e7c5681514610c83578063e7f43c6814610ca4578063ee29c94a14610cb9578063f2fde38b14610cd7578063fa1cf1f014610cf8575b600080fd5b34801561025e57600080fd5b5061026d600435602435610d33565b60405180806020018060200180602001806020018060200186810386528b818151815260200191508051906020019060200280838360005b838110156102bd5781810151838201526020016102a5565b5050505090500186810385528a818151815260200191508051906020019060200280838360005b838110156102fc5781810151838201526020016102e4565b50505050905001868103845289818151815260200191508051906020019060200280838360005b8381101561033b578181015183820152602001610323565b50505050905001868103835288818151815260200191508051906020019060200280838360005b8381101561037a578181015183820152602001610362565b50505050905001868103825287818151815260200191508051906020019060200280838360005b838110156103b95781810151838201526020016103a1565b505050509050019a505050505050505050505060405180910390f35b3480156103e157600080fd5b506103ea610f80565b6040805163ffffffff9092168252519081900360200190f35b34801561040f57600080fd5b50610424600160a060020a0360043516610f8c565b005b34801561043257600080fd5b50604080516064356004818101356020818102858101820190965281855261048a958335956024803596604435963696909560849592909301929091829185019084908082843750949750610ffa9650505050505050565b604051808060200184815260200183151515158152602001828103825285818151815260200191508051906020019060200280838360005b838110156104da5781810151838201526020016104c2565b5050505090500194505050505060405180910390f35b3480156104fc57600080fd5b506040805160206004803580820135838102808601850190965280855261026d953695939460249493850192918291850190849080828437509497506110989650505050505050565b34801561055157600080fd5b5061055a6112b4565b60408051602080825283518183015283519192839290830191858101910280838360005b8381101561059657818101518382015260200161057e565b505050509050019250505060405180910390f35b3480156105b657600080fd5b5061042460043563ffffffff60243516611339565b3480156105d757600080fd5b506105e36004356113a5565b60408051918252519081900360200190f35b34801561060157600080fd5b506103ea6004356113c4565b34801561061957600080fd5b506106226113fc565b60408051600160a060020a039092168252519081900360200190f35b34801561064a57600080fd5b5061065361140b565b60408051978852600160a060020a03909616602088015260ff9094168686015263ffffffff9092166060860152608085015260a084015260c0830152519081900360e00190f35b3480156106a657600080fd5b506106536004356114f6565b3480156106be57600080fd5b50610424600160a060020a036004351661156a565b3480156106df57600080fd5b506105e3600160a060020a03600435166024356115d8565b34801561070357600080fd5b50610622611608565b34801561071857600080fd5b506105e3600435602435611617565b34801561073357600080fd5b50610424611797565b34801561074857600080fd5b5061042460043561182d565b34801561076057600080fd5b506105e36118b5565b34801561077557600080fd5b50610424600160a060020a0360043516602435604435611b51565b34801561079c57600080fd5b50610424600435611d1a565b3480156107b457600080fd5b506107c0600435611d71565b604080519115158252519081900360200190f35b3480156107e057600080fd5b50610622611dd0565b3480156107f557600080fd5b50610801600435611ddf565b6040805167ffffffffffffffff9098168852600160a060020a03909616602088015260ff9094168686015263ffffffff9092166060860152608085015260a084015260c0830152519081900360e00190f35b34801561085f57600080fd5b506107c0611e50565b34801561087457600080fd5b5060408051602060046044358181013583810280860185019096528085526104249583359560248035963696956064959394920192918291850190849080828437509497505093359450611e619350505050565b3480156108d457600080fd5b5061055a611f8c565b3480156108e957600080fd5b50610424600160a060020a036004358116906024351660443560643560843560a435611fe3565b34801561091c57600080fd5b5061092860043561231e565b6040518083815260200180602001828103825283818151815260200191508051906020019060200280838360005b8381101561096e578181015183820152602001610956565b50505050905001935050505060405180910390f35b34801561098f57600080fd5b50610998612391565b60408051938452602084019290925282820152519081900360600190f35b3480156109c257600080fd5b506109ce6004356123a1565b604080519384526020840192909252151582820152519081900360600190f35b3480156109fa57600080fd5b506107c060043561247b565b348015610a1257600080fd5b50610424600160a060020a03600435166124d7565b348015610a3357600080fd5b5060408051602060046024803582810135848102808701860190975280865261048a968435963696604495919490910192918291850190849080828437509497506125459650505050505050565b348015610a8d57600080fd5b5061042463ffffffff6004351661259c565b348015610aab57600080fd5b506106226125f3565b348015610ac057600080fd5b50610424600160a060020a0360043516612602565b348015610ae157600080fd5b50610424600435602435604435612670565b348015610aff57600080fd5b50610424600435612770565b348015610b1757600080fd5b506105e3612825565b348015610b2c57600080fd5b506103ea61282b565b348015610b4157600080fd5b50610424600160a060020a036004351661283e565b348015610b6257600080fd5b506106226128ac565b348015610b7757600080fd5b506107c063ffffffff600435166128bb565b348015610b9557600080fd5b506107c063ffffffff60043516612914565b348015610bb357600080fd5b50604080516020600460248035828101358481028087018601909752808652610c019684359636966044959194909101929182918501908490808284375094975061299c9650505050505050565b604051808060200180602001838103835285818151815260200191508051906020019060200280838360005b83811015610c45578181015183820152602001610c2d565b5050505090500183810382528481815181526020019150805190602001906020028083836000838110156104da5781810151838201526020016104c2565b348015610c8f57600080fd5b5061055a600160a060020a0360043516612b63565b348015610cb057600080fd5b50610622612bcf565b348015610cc557600080fd5b5061042463ffffffff60043516612bde565b348015610ce357600080fd5b50610424600160a060020a0360043516612c64565b348015610d0457600080fd5b50610d0d612cb9565b604080519485526020850193909352838301919091526060830152519081900360800190f35b6060806060806060806060806060806000806006805490508d8f011115610d6a57600654610d67908f63ffffffff612ccb16565b9c505b60008d1115610f6f578c604051908082528060200260200182016040528015610d9d578160200160208202803883390190505b5096508c604051908082528060200260200182016040528015610dca578160200160208202803883390190505b5095508c604051908082528060200260200182016040528015610df7578160200160208202803883390190505b5094508c604051908082528060200260200182016040528015610e24578160200160208202803883390190505b5093508c604051908082528060200260200182016040528015610e51578160200160208202803883390190505b509250600091505b8c821015610f5f57600680548f8401908110610e7157fe5b906000526020600020906005020190508060000160089054906101000a9004600160a060020a03168783815181101515610ea757fe5b600160a060020a03909216602092830290910190910152805460018201548751601060ff60e060020a90940484160190921660020a63ffffffff918216021690879084908110610ef357fe5b6020908102909101015260028101548551869084908110610f1057fe5b6020908102909101015260038101548451859084908110610f2d57fe5b6020908102909101015260048101548351849084908110610f4a57fe5b60209081029091010152600190910190610e59565b86868686869b509b509b509b509b505b505050505050509295509295909350565b60115463ffffffff1681565b610f94611e50565b1515610fd8576040805160e560020a62461bcd02815260206004820181905260248201526000805160206147d0833981519152604482015290519081900360640190fd5b60058054600160a060020a031916600160a060020a0392909216919091179055565b60606000806060600061100c89612d14565b8810158061101b575060125487105b156110315790935060009250829150839061108c565b61103a89612d14565b87111561104d5761104a89612d14565b96505b61107d88886015600061105f8e612d2d565b8152602001908152602001600020546110778d612d3a565b8a612d5b565b91509150818160019450945094505b50509450945094915050565b6060806060806060600060608060608060606000808d519750876040519080825280602002602001820160405280156110db578160200160208202803883390190505b50965087604051908082528060200260200182016040528015611108578160200160208202803883390190505b50955087604051908082528060200260200182016040528015611135578160200160208202803883390190505b50945087604051908082528060200260200182016040528015611162578160200160208202803883390190505b5093508760405190808252806020026020018201604052801561118f578160200160208202803883390190505b509250600091505b878210156112a0576111bf8e838151811015156111b057fe5b90602001906020020151612f3f565b80548851919250680100000000000000009004600160a060020a0316908890849081106111e857fe5b600160a060020a03909216602092830290910190910152805460018201548751601060ff60e060020a90940484160190921660020a63ffffffff91821602169087908490811061123457fe5b602090810290910101526002810154855186908490811061125157fe5b602090810290910101526003810154845185908490811061126e57fe5b602090810290910101526004810154835184908490811061128b57fe5b60209081029091010152600190910190611197565b50949c939b50919950975095509350505050565b6060600180548060200260200160405190810160405280929190818152602001828054801561132e57602002820191906000526020600020906000905b82829054906101000a900463ffffffff1663ffffffff16815260200190600401906020826003010492830192600103820291508084116112f15790505b505050505090505b90565b61134281612914565b1515611398576040805160e560020a62461bcd02815260206004820152601f60248201527f756e6465726c79696e6720697320756e737570706f7274656420617373657400604482015290519081900360640190fd5b6113a18261182d565b5050565b60098054829081106113b357fe5b600091825260209091200154905081565b60018054829081106113d257fe5b9060005260206000209060089182820401919006600402915054906101000a900463ffffffff1681565b600554600160a060020a031690565b60065460009081908190819081908190819081808211611475576040805160e560020a62461bcd02815260206004820152601560248201527f6f7074696f6e73206c69737420697320656d7074790000000000000000000000604482015290519081900360640190fd5b60068054600019840190811061148757fe5b60009182526020909120600590910201805460018201546002830154600384015460049094015467ffffffffffffffff84169e680100000000000000008504600160a060020a03169e5060e060020a90940460ff169c5063ffffffff9092169a50985091965090945092505050565b60008060008060008060008061150b89612f3f565b805460018201546002830154600384015460049094015467ffffffffffffffff84169e680100000000000000008504600160a060020a03169e5060e060020a90940460ff169c5063ffffffff9092169a50985091965090945092505050565b611572611e50565b15156115b6576040805160e560020a62461bcd02815260206004820181905260248201526000805160206147d0833981519152604482015290519081900360640190fd5b60038054600160a060020a031916600160a060020a0392909216919091179055565b6008602052816000526040600020818154811015156115f357fe5b90600052602060002001600091509150505481565b600454600160a060020a031690565b600061162161468d565b60008061162d86612f3f565b6040805160e081018252825467ffffffffffffffff81168252680100000000000000008104600160a060020a0316602083015260e060020a900460ff1691810191909152600182015463ffffffff16606082015260028201546080820152600382015460a082015260049091015460c082015292506116ab83612fcf565b6116b5838661302a565b6003546060840151604080517fda66325700000000000000000000000000000000000000000000000000000000815263ffffffff909216600483015251600160a060020a039092169163da663257916024808201926020929091908290030181600087803b15801561172657600080fd5b505af115801561173a573d6000803e3d6000fd5b505050506040513d602081101561175057600080fd5b5051604084015160a08501519193506117699184613086565b905080151561177b576000935061178e565b61178b818663ffffffff6130bb16565b93505b50505092915050565b61179f611e50565b15156117e3576040805160e560020a62461bcd02815260206004820181905260248201526000805160206147d0833981519152604482015290519081900360640190fd5b60008054604051600160a060020a03909116907f8be0079c531659141344cd1fd0a4f28419497f9722a3daafe3b4186f6b6457e0908390a360008054600160a060020a0319169055565b6118368161247b565b15156118b2576040805160e560020a62461bcd02815260206004820152602160248201527f65787069726174696f6e2076616c7565206973206e6f7420737570706f72746560448201527f6400000000000000000000000000000000000000000000000000000000000000606482015290519081900360840190fd5b50565b600080606060008060008060006118ca6146c9565b60006118d4613165565b98506118de6131f4565b600654600c54919950975095505b868610156119fa5761192560068781548110151561190657fe5b600091825260209091206001600590920201015463ffffffff1661330e565b94506119ed6119e060068881548110151561193c57fe5b60009182526020918290206040805160e081018252600593909302909101805467ffffffffffffffff81168452680100000000000000008104600160a060020a03169484019490945260e060020a90930460ff1690820152600182015463ffffffff16606082015260028201546080820152600382015460a082015260049091015460c08201528a518b90899081106119d157fe5b90602001906020020151613396565b8a9063ffffffff6133d716565b98506001909501946118ec565b601054600d5490945092505b83831015611b43576000838152600f6020526040908190208151808301928390529160029082845b815481526020019060010190808311611a2e575093955085935060009250611a54915050565b60200201519050611a6d60068281548110151561190657fe5b9450611b36611b29600683815481101515611a8457fe5b60009182526020918290206040805160e081018252600593909302909101805467ffffffffffffffff81168452680100000000000000008104600160a060020a03168486015260e060020a900460ff1691830191909152600181015463ffffffff16606083015260028101546080830152600381015460a08301526004015460c0820152908501518b518c908a908110611b1a57fe5b90602001906020020151613434565b8a9063ffffffff612ccb16565b9850600190920191611a06565b509698975050505050505050565b611b5961468d565b600254600160a060020a03163314611be1576040805160e560020a62461bcd02815260206004820152602660248201527f4d616e6167657261626c653a2063616c6c6572206973206e6f7420746865204d60448201527f616e616765720000000000000000000000000000000000000000000000000000606482015290519081900360840190fd5b611bea83612f3f565b6040805160e081018252825467ffffffffffffffff81168252680100000000000000008104600160a060020a0316602083015260e060020a900460ff1691810191909152600182015463ffffffff16606082015260028201546080820152600382015460a082015260049091015460c08201529050611c6881612fcf565b611c72818561344d565b611c7c818361302a565b60c0810151611c91908363ffffffff612ccb16565b60c08201526040805180820182526000198501815260208082018590526010546000908152600f90915291909120611cca9160026146e4565b506010805460010190556040805183815290518491600160a060020a038716917f1fb99acdc281bccbecb3d0073a307341181a8a7d3cd532fdaef5ce7200401c2d9181900360200190a350505050565b611d22611e50565b1515611d66576040805160e560020a62461bcd02815260206004820181905260248201526000805160206147d0833981519152604482015290519081900360640190fd5b6118b26009826134bc565b6000611d7b611e50565b1515611dbf576040805160e560020a62461bcd02815260206004820181905260248201526000805160206147d0833981519152604482015290519081900360640190fd5b611dca600983613533565b92915050565b600054600160a060020a031690565b6006805482908110611ded57fe5b60009182526020909120600590910201805460018201546002830154600384015460049094015467ffffffffffffffff84169550680100000000000000008404600160a060020a03169460e060020a90940460ff169363ffffffff909316929087565b600054600160a060020a0316331490565b600254600160a060020a03163314611ee9576040805160e560020a62461bcd02815260206004820152602660248201527f4d616e6167657261626c653a2063616c6c6572206973206e6f7420746865204d60448201527f616e616765720000000000000000000000000000000000000000000000000000606482015290519081900360840190fd5b601254831115611ef95760128390555b611f0284612d14565b60115463ffffffff1680611f1587612d2d565b02011115611f3657611f2684612d14565b601355611f3284612d3a565b6014555b8060156000611f4487612d2d565b8152602001908152602001600020819055508160166000611f6487612d2d565b81526020019081526020016000209080519060200190611f85929190614722565b5050505050565b6060600980548060200260200160405190810160405280929190818152602001828054801561132e57602002820191906000526020600020905b815481526020019060010190808311611fc6575050505050905090565b6000806000611ff061468d565b600254600160a060020a03163314612078576040805160e560020a62461bcd02815260206004820152602660248201527f4d616e6167657261626c653a2063616c6c6572206973206e6f7420746865204d60448201527f616e616765720000000000000000000000000000000000000000000000000000606482015290519081900360840190fd5b600654935061208688612d2d565b925061209188612d14565b9150600660e0604051908101604052808660010167ffffffffffffffff1681526020018c600160a060020a031681526020018560ff1681526020018463ffffffff168152602001426120e28c612d3a565b01815260208082018b90526040918201899052835460018082018655600095865282862085516005909302018054868501518787015167ffffffffffffffff1990921667ffffffffffffffff909516949094177fffffffff0000000000000000000000000000000000000000ffffffffffffffff1668010000000000000000600160a060020a0395861602177fffffff00ffffffffffffffffffffffffffffffffffffffffffffffffffffffff1660e060020a60ff909216919091021781556060860151818301805463ffffffff191663ffffffff9092169190911790556080860151600282015560a0860151600382015560c0909501516004909501949094558e16845260088152908320805480840182559084529220908601910155600680548590811061220e57fe5b60009182526020918290206040805160e081018252600593909302909101805467ffffffffffffffff81168452680100000000000000008104600160a060020a03169484019490945260e060020a90930460ff1690820152600182015463ffffffff16606082015260028201546080820152600382015460a082015260049091015460c082015290506122a2818a886135e0565b836001018a600160a060020a03167f18f523957030bee670136363e25b2f847bf1bd07bb7b33c6d5475936a9aac70d8585426122dd8e612d3a565b6040805160ff909516855263ffffffff90931660208501520182820152606082018c9052608082018a9052519081900360a00190a350505050505050505050565b6000818152601560209081526040808320546016835281842080548351818602810186019094528084526060949293919283919083018282801561238157602002820191906000526020600020905b81548152602001906001019080831161236d575b5050505050905091509150915091565b600b546006546010549192909190565b60008060008060008060006123dd600a60149054906101000a900463ffffffff1663ffffffff166123d18a612d2d565b9063ffffffff6130bb16565b93506123e888612d14565b84106123fd5760009650869550859450612470565b600a5461241c90859063ffffffff60a060020a9091048116906133d716565b925061242788612d14565b83111561243e5761243788612d14565b9250612457565b600b548310156124575760009650869550859450612470565b61246184846138a2565b91509150818160019650965096505b505050509193909250565b6000611dca60098054806020026020016040519081016040528092919081815260200182805480156124cc57602002820191906000526020600020905b8154815260200190600101908083116124b8575b5050505050836139e6565b6124df611e50565b1515612523576040805160e560020a62461bcd02815260206004820181905260248201526000805160206147d0833981519152604482015290519081900360640190fd5b60048054600160a060020a031916600160a060020a0392909216919091179055565b601154606090600090819081906125659063ffffffff166123d188612d2d565b60115490915061258e908790839061258890829063ffffffff908116906133d716565b88610ffa565b935093509350509250925092565b6125a4611e50565b15156125e8576040805160e560020a62461bcd02815260206004820181905260248201526000805160206147d0833981519152604482015290519081900360640190fd5b6118b2600182613a25565b600354600160a060020a031690565b61260a611e50565b151561264e576040805160e560020a62461bcd02815260206004820181905260248201526000805160206147d0833981519152604482015290519081900360640190fd5b600a8054600160a060020a031916600160a060020a0392909216919091179055565b600a54600160a060020a031633146126f8576040805160e560020a62461bcd02815260206004820152602760248201527f4d616e6167657261626c653a2063616c6c6572206973206e6f7420746865204f60448201527f70657261746f7200000000000000000000000000000000000000000000000000606482015290519081900360840190fd5b600b5481111561270857600b8190555b61271183612d14565b600a5460a060020a900463ffffffff168061272b86612d2d565b0201111561274c5761273c83612d14565b600c5561274883612d3a565b600d555b81600e600061275a86612d2d565b8152602081019190915260400160002055505050565b600a5460009081908190600160a060020a031633146127ff576040805160e560020a62461bcd02815260206004820152602760248201527f4d616e6167657261626c653a2063616c6c6572206973206e6f7420746865204f60448201527f70657261746f7200000000000000000000000000000000000000000000000000606482015290519081900360840190fd5b612808846123a1565b925092509250801561281f5761281f848484612670565b50505050565b60065490565b600a5460a060020a900463ffffffff1681565b612846611e50565b151561288a576040805160e560020a62461bcd02815260206004820181905260248201526000805160206147d0833981519152604482015290519081900360640190fd5b60028054600160a060020a031916600160a060020a0392909216919091179055565b600254600160a060020a031690565b60006128c5611e50565b1515612909576040805160e560020a62461bcd02815260206004820181905260248201526000805160206147d0833981519152604482015290519081900360640190fd5b611dca600183613aee565b6000611dca600180548060200260200160405190810160405280929190818152602001828054801561299157602002820191906000526020600020906000905b82829054906101000a900463ffffffff1663ffffffff16815260200190600401906020826003010492830192600103820291508084116129545790505b505050505083613be5565b6060806000806060806000806129cd601160009054906101000a900463ffffffff1663ffffffff166123d18c612d2d565b6011549096506129e890879063ffffffff908116906133d716565b94506129f38a612d14565b86101580612a02575060125485105b15612a0c57612b56565b612a158a612d14565b851115612a2857612a258a612d14565b94505b6012548611612a375760125495505b612a3f6131f4565b9350612a568686612a4f8d612d2d565b8c88613c30565b925088519150600090505b81811015612b4f576003548951600160a060020a03909116906341976e09908b9084908110612a8c57fe5b906020019060200201516040518263ffffffff1660e060020a0281526004018082600160a060020a0316600160a060020a03168152602001915050602060405180830381600087803b158015612ae157600080fd5b505af1158015612af5573d6000803e3d6000fd5b505050506040513d6020811015612b0b57600080fd5b50518351849083908110612b1b57fe5b90602001906020020151811515612b2e57fe5b058382815181101515612b3d57fe5b60209081029091010152600101612a61565b8284975097505b5050505050509250929050565b600160a060020a038116600090815260086020908152604091829020805483518184028101840190945280845260609392830182828015612bc357602002820191906000526020600020905b815481526020019060010190808311612baf575b50505050509050919050565b600a54600160a060020a031690565b6118b26001805480602002602001604051908101604052809291908181526020018280548015612c5957602002820191906000526020600020906000905b82829054906101000a900463ffffffff1663ffffffff1681526020019060040190602082600301049283019260010382029150808411612c1c5790505b505050505082613ede565b612c6c611e50565b1515612cb0576040805160e560020a62461bcd02815260206004820181905260248201526000805160206147d0833981519152604482015290519081900360640190fd5b6118b281613f3e565b60125460065460105491929091904290565b6000612d0d83836040805190810160405280601e81526020017f536166654d6174683a207375627472616374696f6e206f766572666c6f77000081525061401f565b9392505050565b68010000000000000000900467ffffffffffffffff1690565b67ffffffffffffffff1690565b700100000000000000000000000000000000900467ffffffffffffffff1690565b60606000806060600080600080612d738d8d8d6140bc565b8a51604080518281526020808402820101909152929f509097508015612da3578160200160208202803883390190505b5094505b8b8d1015612f1e57600680548e908110612dbd57fe5b90600052602060002090600502019350836002015492508a831080612de457506004840154155b15612dee57612f13565b60008d81526007602052604090206013549092508d101580612e10575081548b105b15612e4b57612e4482600301548486600301548560050154866006015489600001601c9054906101000a900460ff16614141565b9050612e79565b612e768b8486600301548560050154866006015489600001601c9054906101000a900460ff16614171565b90505b6000811115612f13576001820154612e9b908a90600160a060020a0316614248565b9250612ed08260030154612ec486600401546123d18587600201546130bb90919063ffffffff16565b9063ffffffff61429516565b9050612efa818685815181101515612ee457fe5b602090810290910101519063ffffffff6133d716565b8584815181101515612f0857fe5b602090810290910101525b6001909c019b612da7565b612f2c8d8d8d8d8d8a6142d7565b9d959c50949a5050505050505050505050565b60008082118015612f5257506006548211155b1515612fa8576040805160e560020a62461bcd02815260206004820152601660248201527f6f7074696f6e206964206973206e6f7420657869737400000000000000000000604482015290519081900360640190fd5b600680546000198401908110612fba57fe5b90600052602060002090600502019050919050565b608081015142106118b2576040805160e560020a62461bcd02815260206004820152601160248201527f6f7074696f6e2069732065787069726564000000000000000000000000000000604482015290519081900360640190fd5b60c08201518111156113a1576040805160e560020a62461bcd02815260206004820152601d60248201527f6f7074696f6e20616d6f756e7420697320696e73756666696369656e74000000604482015290519081900360640190fd5b600060ff841615828411141561309e57506000612d0d565b60ff8416156130af578183036130b3565b8282035b949350505050565b6000808315156130ce576000915061315e565b508282028284828115156130de57fe5b041461315a576040805160e560020a62461bcd02815260206004820152602160248201527f536166654d6174683a206d756c7469706c69636174696f6e206f766572666c6f60448201527f7700000000000000000000000000000000000000000000000000000000000000606482015290519081900360840190fd5b8091505b5092915050565b600a5460009081908190819060a060020a900463ffffffff16600b82015481151561318c57fe5b600a54919004925060a060020a900463ffffffff16600b600101548115156131b057fe5b0460010190505b808210156131ec576000828152600e60205260409020546131df90849063ffffffff6133d716565b92506001909101906131b7565b509092915050565b600154604080518281526020808402820101909152606091908290600090838015613229578160200160208202803883390190505b509150600090505b8281101561315e5760035460018054600160a060020a039092169163da66325791908490811061325d57fe5b90600052602060002090600891828204019190066004029054906101000a900463ffffffff166040518263ffffffff1660e060020a028152600401808263ffffffff168152602001915050602060405180830381600087803b1580156132c257600080fd5b505af11580156132d6573d6000803e3d6000fd5b505050506040513d60208110156132ec57600080fd5b505182518390839081106132fc57fe5b60209081029091010152600101613231565b6000611dca600180548060200260200160405190810160405280929190818152602001828054801561338b57602002820191906000526020600020906000905b82829054906101000a900463ffffffff1663ffffffff168152602001906004019060208260030104928301926001038202915080841161334e5790505b5050505050836144fd565b6000804284608001511115806133ae575060c0840151155b156133bc576000915061315e565b6130b38460c001516123d186604001518760a0015187614544565b60008282018381101561315a576040805160e560020a62461bcd02815260206004820152601b60248201527f536166654d6174683a206164646974696f6e206f766572666c6f770000000000604482015290519081900360640190fd5b60006130b3836123d186604001518760a0015186614544565b80600160a060020a03168260200151600160a060020a03161415156113a1576040805160e560020a62461bcd02815260206004820152601f60248201527f63616c6c6572206973206e6f7420746865206f7074696f6e73206f776e657200604482015290519081900360640190fd5b6135158280548060200260200160405190810160405280929190818152602001828054801561350a57602002820191906000526020600020905b8154815260200190600101908083116134f6575b5050505050826139e6565b15156113a15781546001810183556000928352602090922090910155565b8154600090815b8181101561356f5783858281548110151561355157fe5b906000526020600020015414156135675761356f565b60010161353a565b818110156135d357600019820181146135b957846001830381548110151561359357fe5b906000526020600020015485828154811015156135ac57fe5b6000918252602090912001555b84546135c986600019830161475c565b50600192506135d8565b600092505b505092915050565b60a08301516080840151600554606086015160408088015181517fb4277bc100000000000000000000000000000000000000000000000000000000815263ffffffff909316600484015260ff16602483015242909303604482018190526064820185905283519093600093849384938493600160a060020a039093169263b4277bc1926084808201939182900301818787803b15801561367f57600080fd5b505af1158015613693573d6000803e3d6000fd5b505050506040513d60408110156136a957600080fd5b5080516020918201516004805460408e810151815160e060020a63055ef6ab0281529384018d9052602484018d9052604484018c9052606484018690526084840185905260ff1660a484015251939850919650600160a060020a039091169263055ef6ab9260c4808401938290030181600087803b15801561372a57600080fd5b505af115801561373e573d6000803e3d6000fd5b505050506040513d602081101561375457600080fd5b5051600354604080517f41976e09000000000000000000000000000000000000000000000000000000008152600160a060020a038c8116600483015291519395506137fe9391909216916341976e099160248083019260209291908290030181600087803b1580156137c557600080fd5b505af11580156137d9573d6000803e3d6000fd5b505050506040513d60208110156137ef57600080fd5b5051839063ffffffff61429516565b6040805160e081018252428152600160a060020a039a8b16602080830191825282840194855260608301968752608083019b8c5260a0830198895260c083019788529c516000190167ffffffffffffffff1660009081526007909d5291909b209a518b555160018b018054600160a060020a03191691909a161790985550955160028801559451600387015592516004860155505051600583015551600690910155565b600b5460009081908085118015906060908490819081906138c1578599505b6138c96131f4565b9350600092505b888a10156139cc576138ea60068b81548110151561190657fe5b915061399360068b8154811015156138fe57fe5b60009182526020918290206040805160e081018252600593909302909101805467ffffffffffffffff81168452680100000000000000008104600160a060020a03169484019490945260e060020a90930460ff1690820152600182015463ffffffff16606082015260028201546080820152600382015460a082015260049091015460c082015285518690859081106119d157fe5b90508480156139a25750600081115b156139af57899550600094505b6139bf838263ffffffff6133d716565b6001909a019992506138d0565b84156139d6578995505b5090989397509295505050505050565b8151600090815b818110156135d357838582815181101515613a0457fe5b906020019060200201511415613a1d57600192506135d8565b6001016139ed565b613aaa82805480602002602001604051908101604052809291908181526020018280548015613a9f57602002820191906000526020600020906000905b82829054906101000a900463ffffffff1663ffffffff1681526020019060040190602082600301049283019260010382029150808411613a625790505b505050505082613be5565b15156113a1578154600181018355600092835260209092206008830401805460079093166004026101000a63ffffffff818102199094169290931692909202179055565b8154600090815b81811015613b49578363ffffffff168582815481101515613b1257fe5b6000918252602090912060088204015460079091166004026101000a900463ffffffff161415613b4157613b49565b600101613af5565b818110156135d35760001982018114613bd5578460018303815481101515613b6d57fe5b90600052602060002090600891828204019190066004029054906101000a900463ffffffff168582815481101515613ba157fe5b90600052602060002090600891828204019190066004026101000a81548163ffffffff021916908363ffffffff1602179055505b84546135c9866000198301614785565b8151600090815b818110156135d3578363ffffffff168582815181101515613c0957fe5b9060200190602002015163ffffffff161415613c2857600192506135d8565b600101613bec565b6060806060600080600080601660008b8152602001908152602001600020805480602002602001604051908101604052809291908181526020018280548015613c9857602002820191906000526020600020905b815481526020019060010190808311613c84575b505050505095508851604051908082528060200260200182016040528015613cca578160200160208202803883390190505b5094505b8a8c1015613ece57613ce860068d81548110151561190657fe5b9950613d9160068d815481101515613cfc57fe5b60009182526020918290206040805160e081018252600593909302909101805467ffffffffffffffff81168452680100000000000000008104600160a060020a03169484019490945260e060020a90930460ff1690820152600182015463ffffffff16606082015260028201546080820152600382015460a082015260049091015460c082015289518a908d9081106119d157fe5b6013549094508c10613db45760008c815260076020526040902060040154613dcd565b858a815181101515613dc257fe5b906020019060200201515b9250613e6e60068d815481101515613de157fe5b60009182526020918290206040805160e081018252600593909302909101805467ffffffffffffffff81168452680100000000000000008104600160a060020a03169484019490945260e060020a90930460ff1690820152600182015463ffffffff16606082015260028201546080820152600382015460a082015260049091015460c082015284613396565b9150838214613ec3575060008b81526007602052604090206001810154613e9f908a90600160a060020a0316614248565b9950818403858b815181101515613eb257fe5b602090810290910101805190910190525b6001909b019a613cce565b50929a9950505050505050505050565b613ee88282613be5565b15156113a1576040805160e560020a62461bcd02815260206004820152601f60248201527f77686974654c6973743a207573696e6720696e76616c69642075696e74333200604482015290519081900360640190fd5b600160a060020a0381161515613fc4576040805160e560020a62461bcd02815260206004820152602660248201527f4f776e61626c653a206e6577206f776e657220697320746865207a65726f206160448201527f6464726573730000000000000000000000000000000000000000000000000000606482015290519081900360840190fd5b60008054604051600160a060020a03808516939216917f8be0079c531659141344cd1fd0a4f28419497f9722a3daafe3b4186f6b6457e091a360008054600160a060020a031916600160a060020a0392909216919091179055565b60008082858511156140b25760405160e560020a62461bcd0281526004018080602001828103825283818151815260200191508051906020019080838360005b8381101561407757818101518382015260200161405f565b50505050905090810190601f1680156140a45780820380516001836020036101000a031916815260200191505b509250505060405180910390fd5b5050509103919050565b601254600090819081818711156140d857868293509350614137565b8196505b858710156141305760068054889081106140f257fe5b90600052602060002090600502019050848160020154108061411657506004810154155b1561412057614125565b614130565b6001909601956140dc565b8687935093505b5050935093915050565b6000806141518787878787614562565b9050808811614161576000614165565b8088035b98975050505050505050565b600480546040805160e060020a63055ef6ab028152928301879052602483018790528888036044840152606483018690526084830185905260ff841660a48401525160009283928392600160a060020a039091169163055ef6ab9160c480830192602092919082900301818787803b1580156141ec57600080fd5b505af1158015614200573d6000803e3d6000fd5b505050506040513d602081101561421657600080fd5b505191506142278888888888614562565b905080821161423757600061423b565b8082035b9998505050505050505050565b8151600090815b818110156130b35783600160a060020a0316858281518110151561426f57fe5b90602001906020020151600160a060020a0316141561428d576130b3565b60010161424f565b6000612d0d83836040805190810160405280601a81526020017f536166654d6174683a206469766973696f6e206279207a65726f000000000000815250614621565b606060006142e36146c9565b60145491506000808080805b8a8710156144eb576000878152600f6020526040908190208151808301928390529160029082845b81548152602001906001019080831161431757505050505095508d86600060028110151561434157fe5b60200201511080614353575085518d11155b1561435d576144e0565b855160068054909190811061436e57fe5b90600052602060002090600502019450846002015493508b84108061439557506020860151155b1561439f576144e0565b855160009081526007602090815260408083206004805460038b0154600584015460068501548d54875160e060020a63055ef6ab0281529586018490526024860193909352428d0360448601526064850191909152608484015260e060020a900460ff1660a48301529251919750600160a060020a039092169363055ef6ab9360c480850194919392918390030190829087803b15801561443f57600080fd5b505af1158015614453573d6000803e3d6000fd5b505050506040513d602081101561446957600080fd5b5051600384015490925061449790612ec4886001602002015160028701546123d1908763ffffffff6130bb16565b60018401549092506144b3908b90600160a060020a0316614248565b90506144c7828a83815181101515612ee457fe5b89828151811015156144d557fe5b602090810290910101525b6001909601956142ef565b50969c9b505050505050505050505050565b8151600090815b818110156130b3578363ffffffff16858281518110151561452157fe5b9060200190602002015163ffffffff16141561453c576130b3565b600101614504565b600060ff841615828411141561455b575081612d0d565b5080612d0d565b60004286111561461457600480546040805160e060020a63055ef6ab028152928301889052602483018890524289036044840152606483018790526084830186905260ff851660a484015251600160a060020a039091169163055ef6ab9160c48083019260209291908290030181600087803b1580156145e157600080fd5b505af11580156145f5573d6000803e3d6000fd5b505050506040513d602081101561460b57600080fd5b50519050614618565b5060005b95945050505050565b600080828185116146775760405160e560020a62461bcd0281526004018080602001828103825283818151815260200191508051906020019080838360008381101561407757818101518382015260200161405f565b50838581151561468357fe5b0495945050505050565b6040805160e081018252600080825260208201819052918101829052606081018290526080810182905260a0810182905260c081019190915290565b60408051808201825290600290829080388339509192915050565b8260028101928215614712579160200282015b828111156147125782518255916020019190600101906146f7565b5061471e9291506147b5565b5090565b82805482825590600052602060002090810192821561471257916020028201828111156147125782518255916020019190600101906146f7565b815481835581811115614780576000838152602090206147809181019083016147b5565b505050565b81548183558181111561478057600701600890048160070160089004836000526020600020918201910161478091905b61133691905b8082111561471e57600081556001016147bb56004f776e61626c653a2063616c6c6572206973206e6f7420746865206f776e6572a165627a7a72305820bd2c11d917e9c64b1526c5ffcd24d3e753e06b8161e872808d9d87792d0d89cc00294f776e61626c653a2063616c6c6572206973206e6f7420746865206f776e6572",
  "source": "pragma solidity ^0.4.26;\r\nimport \"./OptionsBase.sol\";\r\nimport \"./modules/tuple.sol\";\r\nimport \"./modules/Operator.sol\";\r\ncontract OptionsPool is OptionsBase,Operator {\r\n\r\n    //calculate options Collateral occupied phases\r\n    uint32 public optionPhase = 400;\r\n    uint256[3] internal optionPhaseInfo;    //firstOption,lastOption,lastBurn\r\n    mapping(uint256=>uint256) internal OptionsPhases;\r\n    //each burn options\r\n    mapping(uint256=>uint256[2]) internal burnedOptions;\r\n    uint256 internal burnedLength;\r\n    //calculate Options time shared value phases\r\n    uint32 public sharedPhase = 400;\r\n    uint256[3] internal optionPhaseInfo_Share;  //firstOption,lastOption,lastBurn\r\n    mapping (uint256 =>uint256) internal OptionsPhaseTimes;\r\n    mapping (uint256 =>uint256[]) internal OptionsPhasePrices;\r\n    //each block burn options\r\n\r\n    constructor (address oracleAddr,address optionsPriceAddr,address ivAddress) OptionsBase(oracleAddr,optionsPriceAddr,ivAddress) public{\r\n    }\r\n\r\n    function getOptionPhaseCalRange()public view returns(uint256,uint256,uint256){\r\n        return (optionPhaseInfo[0],allOptions.length,burnedLength);\r\n    }\r\n    function getsharedPhaseCalRange()public view returns(uint256,uint256,uint256,uint256){\r\n        return (optionPhaseInfo_Share[0],allOptions.length,burnedLength,now);\r\n    }\r\n    function getsharedPhaseCalInfo(uint256 index)public view returns(uint256,uint256[]){\r\n        return (OptionsPhaseTimes[index],OptionsPhasePrices[index]);\r\n    }\r\n    //index,lastOption,lastBurned\r\n    function setPhaseOccupiedCollateral(uint256 calInfo) public onlyOperator {\r\n        (uint256 totalOccupied,uint256 beginOption,bool success) = calculatePhaseOccupiedCollateral(calInfo);\r\n        if (success){\r\n            setCollateralPhase(calInfo,totalOccupied,beginOption);\r\n        }\r\n    }\r\n    function setCollateralPhase(uint256 calInfo,uint256 totalOccupied,uint256 beginOption) public onlyOperator{\r\n        if (beginOption > optionPhaseInfo[0]){\r\n            optionPhaseInfo[0] = beginOption;\r\n        }\r\n        if (tuple64.getValue0(calInfo)*optionPhase+optionPhase > tuple64.getValue1(calInfo)){\r\n            optionPhaseInfo[1] = tuple64.getValue1(calInfo);\r\n            optionPhaseInfo[2] = tuple64.getValue2(calInfo);\r\n        }\r\n        OptionsPhases[tuple64.getValue0(calInfo)] = totalOccupied;\r\n    }\r\n    function calculatePhaseOccupiedCollateral(uint256 calInfo) public view returns(uint256,uint256,bool){\r\n        uint256 beginOption = tuple64.getValue0(calInfo).mul(optionPhase);\r\n        if (beginOption>=tuple64.getValue1(calInfo)){\r\n            return (0,0,false);\r\n        }\r\n        uint256 endOption = beginOption.add(optionPhase);\r\n        if (endOption>tuple64.getValue1(calInfo)) {\r\n            endOption = tuple64.getValue1(calInfo);\r\n        }else if(endOption < optionPhaseInfo[0]){\r\n            return (0,0,false);\r\n        }\r\n        (uint256 totalOccupied,uint256 newFirstOption) = _calculateOccupiedCollateral(beginOption,endOption);\r\n        return (totalOccupied,newFirstOption,true);\r\n    }\r\n    function _calculateOccupiedCollateral(uint256 begin,uint256 end)internal view returns(uint256,uint256){\r\n        uint256 newFirstOption = optionPhaseInfo[0];\r\n        bool bfirstPhase = begin <= newFirstOption;\r\n        if (bfirstPhase) {\r\n            begin = newFirstOption;\r\n        }\r\n        uint256[] memory prices = getUnderlyingPrices();\r\n        uint256 totalOccupied = 0;\r\n        for (;begin<end;begin++){\r\n            uint256 index = _getEligibleUnderlyingIndex(allOptions[begin].underlying);\r\n            uint256 value = calOptionsCollateral(allOptions[begin],prices[index]);\r\n            if (bfirstPhase && value > 0){\r\n                newFirstOption = begin;\r\n                bfirstPhase = false;\r\n            }\r\n            totalOccupied = totalOccupied.add(value);\r\n        }\r\n        //all options in this phase are empty;\r\n        if (bfirstPhase){\r\n            newFirstOption = begin;\r\n        }\r\n        return (totalOccupied,newFirstOption);\r\n    }\r\n    function setSharedState(uint256 calInfo,uint256 firstOption,uint256[] prices,uint256 calTime) public onlyManager{\r\n        if (firstOption > optionPhaseInfo_Share[0]){\r\n            optionPhaseInfo_Share[0] = firstOption;\r\n        }\r\n        if (tuple64.getValue0(calInfo)*sharedPhase+sharedPhase > tuple64.getValue1(calInfo)){\r\n            optionPhaseInfo_Share[1] = tuple64.getValue1(calInfo);\r\n            optionPhaseInfo_Share[2] = tuple64.getValue2(calInfo);\r\n        }\r\n        OptionsPhaseTimes[tuple64.getValue0(calInfo)] = calTime;\r\n        OptionsPhasePrices[tuple64.getValue0(calInfo)] = prices;\r\n    }\r\n    function calculatePhaseSharedPayment(uint256 calInfo,address[] memory whiteList)\r\n        public view returns(uint256[],uint256,bool){\r\n        uint256 beginOption = tuple64.getValue0(calInfo).mul(sharedPhase);\r\n        return calRangeSharedPayment(calInfo,beginOption,beginOption.add(sharedPhase),whiteList);\r\n    }\r\n    function calRangeSharedPayment(uint256 calInfo,uint256 begin,uint256 end,address[] memory whiteList)\r\n            public view returns(uint256[],uint256,bool){\r\n        if (begin>=tuple64.getValue1(calInfo) || end < optionPhaseInfo_Share[0]){\r\n            return(sharedBalances,0,false);\r\n        }\r\n        if (end>tuple64.getValue1(calInfo)) {\r\n            end = tuple64.getValue1(calInfo);\r\n        }\r\n        (uint256[] memory sharedBalances,uint256 _firstOption) = \r\n            _calculateSharedPayment(begin,end,OptionsPhaseTimes[tuple64.getValue0(calInfo)],tuple64.getValue2(calInfo),whiteList);\r\n        return (sharedBalances,_firstOption,true);\r\n    }\r\n    function _calculateSharedPayment(uint256 begin,uint256 end,uint256 preTime,uint256 lastburn,address[] memory whiteList)\r\n            internal view returns(uint256[],uint256){\r\n        uint256 newFirstOption;\r\n        (begin,newFirstOption) = getSharedFirstOption(begin,end,preTime);       \r\n        uint256[] memory totalSharedPayment = new uint256[](whiteList.length);\r\n        for (;begin<end;begin++){\r\n            OptionsInfo storage info = allOptions[begin];\r\n            uint256 tempValue = info.expiration;\r\n            if(tempValue<preTime || info.amount == 0){\r\n                continue;\r\n            }\r\n            OptionsInfoEx storage optionEx = optionExtraMap[begin];\r\n            uint256 timeValue;\r\n            if (begin>=optionPhaseInfo_Share[1] || preTime<optionEx.createdTime){\r\n                timeValue = _calculateFirstTimePrice(optionEx.fullPrice,tempValue,info.strikePrice,\r\n                    optionEx.ivNumerator,optionEx.ivDenominator,info.optType);\r\n            }else{\r\n                timeValue = _calculateTimePrice(preTime,tempValue,info.strikePrice,\r\n                    optionEx.ivNumerator,optionEx.ivDenominator,info.optType);\r\n            }\r\n            if (timeValue>0){\r\n                tempValue = whiteListAddress._getEligibleIndexAddress(whiteList,optionEx.settlement);\r\n                timeValue = optionEx.tokenTimePrice.mul((timeValue)).mul(info.amount).div(optionEx.fullPrice);\r\n                totalSharedPayment[tempValue] = totalSharedPayment[tempValue].add(timeValue);\r\n            }\r\n        }\r\n        //burned\r\n        return (_calBurnedSharePrice(begin,end,preTime,lastburn,whiteList,totalSharedPayment),newFirstOption);\r\n    }\r\n    function getSharedFirstOption(uint256 begin,uint256 end,uint256 preTime) internal view returns(uint256,uint256){\r\n        uint256 newFirstOption = optionPhaseInfo_Share[0];\r\n        if (begin > newFirstOption){\r\n            return (begin,newFirstOption);\r\n        }\r\n        begin = newFirstOption;\r\n        for (;begin<end;begin++){\r\n            OptionsInfo storage info = allOptions[begin];\r\n            if(info.expiration<preTime || info.amount == 0){\r\n                continue;\r\n            }\r\n            break;\r\n        }\r\n        return (begin,begin);\r\n    }\r\n    function _calBurnedSharePrice(uint256 beginIndex,uint256 endIndex,uint256 preTime,uint256 lastburn,\r\n            address[] memory whiteList,uint256[] memory totalSharedPayment)internal view returns(uint256[]){\r\n        for (uint256 i = optionPhaseInfo_Share[2];i<lastburn;i++){\r\n            uint256[2] memory burnInfo = burnedOptions[i];\r\n            if(burnInfo[0]<beginIndex || burnInfo[0] >=endIndex){\r\n                continue;\r\n            }\r\n            OptionsInfo storage info = allOptions[burnInfo[0]];\r\n            uint256 expiration = info.expiration;\r\n            if(expiration<preTime || burnInfo[1] == 0){\r\n                continue;\r\n            }\r\n            OptionsInfoEx storage optionEx = optionExtraMap[burnInfo[0]];\r\n            uint256 nowValue = _optionsPrice.getOptionsPrice_iv(info.strikePrice,info.strikePrice,expiration-now,optionEx.ivNumerator,\r\n                optionEx.ivDenominator,info.optType);\r\n            nowValue = optionEx.tokenTimePrice.mul(nowValue).mul(burnInfo[1]).div(optionEx.fullPrice);\r\n            uint256 index = whiteListAddress._getEligibleIndexAddress(whiteList,optionEx.settlement);\r\n            totalSharedPayment[index] = totalSharedPayment[index].add(nowValue);\r\n        }     \r\n        return totalSharedPayment;\r\n    }\r\n    function _calculateFirstTimePrice(uint256 fullPrice,uint256 expiration,\r\n            uint256 strikePrice,uint256 ivNumerator,uint256 ivDenominator,uint8 optType)internal view returns (uint256){\r\n        uint256 nowValue = _calculateCurrentPrice(expiration,strikePrice,ivNumerator,\r\n            ivDenominator,optType);\r\n        return (fullPrice>nowValue)? fullPrice-nowValue : 0;\r\n    }\r\n    function _calculateTimePrice(uint256 preTime,uint256 expiration,\r\n            uint256 strikePrice,uint256 ivNumerator,uint256 ivDenominator,uint8 optType)internal view returns (uint256){\r\n        uint256 preValue = _optionsPrice.getOptionsPrice_iv(strikePrice,strikePrice,expiration-preTime,ivNumerator,\r\n            ivDenominator,optType);\r\n        uint256 nowValue = _calculateCurrentPrice(expiration,strikePrice,ivNumerator,\r\n            ivDenominator,optType);\r\n        return (preValue>nowValue)? preValue-nowValue : 0;\r\n    }\r\n    function _calculateCurrentPrice(uint256 expiration,uint256 strikePrice,uint256 ivNumerator,uint256 ivDenominator,uint8 optType)internal view returns (uint256){\r\n        if (expiration > now){\r\n        return _optionsPrice.getOptionsPrice_iv(strikePrice,strikePrice,expiration-now,ivNumerator,\r\n            ivDenominator,optType);\r\n        }\r\n        return 0;\r\n    }\r\n    function calculatePhaseOptionsFall(uint256 calInfo,address[] memory whiteList) public view returns(int256[],uint256[]){\r\n        uint256 begin = tuple64.getValue0(calInfo).mul(sharedPhase);\r\n        uint256 end = begin.add(sharedPhase);\r\n        if (begin>=tuple64.getValue1(calInfo) || end < optionPhaseInfo_Share[0]){\r\n            return;\r\n        }\r\n        if (end>tuple64.getValue1(calInfo)) {\r\n            end = tuple64.getValue1(calInfo);\r\n        }\r\n        if (begin <= optionPhaseInfo_Share[0]) {\r\n            begin = optionPhaseInfo_Share[0];\r\n        }\r\n        uint256[] memory prices = getUnderlyingPrices();\r\n        int256[] memory OptionsFallBalances = _calRangeOptionsFall(begin,end,tuple64.getValue0(calInfo),whiteList,prices);\r\n        uint256 whiteListLen = whiteList.length;\r\n        for (uint256 index = 0;index<whiteListLen;index++){\r\n            OptionsFallBalances[index] = OptionsFallBalances[index]/(int256(_oracle.getPrice(whiteList[index])));\r\n        }\r\n        return (OptionsFallBalances,prices);\r\n    }\r\n    function _calRangeOptionsFall(uint256 begin,uint256 lastOption,uint256 index,address[] memory whiteList,uint256[] memory prices)\r\n                 internal view returns(int256[] memory){\r\n        uint256[] memory lastPrice = OptionsPhasePrices[index];\r\n        int256[] memory OptionsFallBalances = new int256[](whiteList.length);\r\n\r\n        for (;begin<lastOption;begin++){\r\n            index = _getEligibleUnderlyingIndex(allOptions[begin].underlying);\r\n            uint256 curValue = calOptionsCollateral(allOptions[begin],prices[index]);\r\n            uint256 prePrice = begin < optionPhaseInfo_Share[1] ? lastPrice[index] : optionExtraMap[begin].underlyingPrice;\r\n            uint256 preValue = calOptionsCollateral(allOptions[begin],prePrice);\r\n            if (preValue != curValue){\r\n                OptionsInfoEx storage optionEx = optionExtraMap[begin];\r\n                index = whiteListAddress._getEligibleIndexAddress(whiteList,optionEx.settlement);\r\n                OptionsFallBalances[index] += int256(curValue) - int256(preValue);\r\n            }\r\n        }\r\n        return OptionsFallBalances;\r\n    }\r\n    function getTotalOccupiedCollateral() public view returns (uint256) {\r\n        uint256 totalOccupied = sumOptionPhases();\r\n        uint256[] memory prices = getUnderlyingPrices();\r\n        uint optionsLen = allOptions.length;\r\n        for (uint256 beginOption = optionPhaseInfo[1]; beginOption < optionsLen;beginOption++){\r\n            uint256 index = _getEligibleUnderlyingIndex(allOptions[beginOption].underlying);\r\n            totalOccupied = totalOccupied.add(calOptionsCollateral(allOptions[beginOption],prices[index]));\r\n        }\r\n        uint burnedLen = burnedLength;\r\n        for (uint256 i = optionPhaseInfo[2];i<burnedLen;i++){\r\n            uint256[2] memory burnInfo = burnedOptions[i];\r\n            uint optionId = burnInfo[0];\r\n            index = _getEligibleUnderlyingIndex(allOptions[optionId].underlying);\r\n            totalOccupied = totalOccupied.sub(calBurnedOptionsCollateral(allOptions[optionId],\r\n                burnInfo[1],prices[index]));\r\n        }\r\n        return totalOccupied;\r\n    }\r\n    function calBurnedOptionsCollateral(OptionsInfo memory option,uint256 burned,uint256 underlyingPrice)internal pure returns(uint256){\r\n        return _getOptionsWorth(option.optType,option.strikePrice,underlyingPrice).mul(burned);\r\n    }\r\n    function sumOptionPhases()internal view returns(uint256){\r\n        uint256 totalOccupied = 0;\r\n        uint256 i = optionPhaseInfo[0]/optionPhase;\r\n        uint256 phaseLen = optionPhaseInfo[1]/optionPhase+1;\r\n        for (;i<phaseLen;i++){\r\n            totalOccupied = totalOccupied.add(OptionsPhases[i]);\r\n        }\r\n        return totalOccupied;\r\n    }\r\n    function calOptionsCollateral(OptionsInfo memory option,uint256 underlyingPrice)internal view returns(uint256){\r\n        if (option.expiration<=now || option.amount == 0){\r\n            return 0;\r\n        }\r\n        uint256 totalOccupied = _getOptionsWorth(option.optType,option.strikePrice,underlyingPrice).mul(option.amount);\r\n        return totalOccupied;\r\n    }\r\n    function burnOptions(address from,uint256 id,uint256 amount)public onlyManager{\r\n        OptionsInfo memory info = _getOptionsById(id);\r\n        checkEligible(info);\r\n        checkOwner(info,from);\r\n        checkSufficient(info,amount);\r\n        info.amount = info.amount.sub(amount);\r\n        burnedOptions[burnedLength] = [id-1,amount];\r\n        burnedLength++;\r\n        emit BurnOption(from,id,amount);\r\n    }\r\n}",
  "sourcePath": "C:\\work\\solidity\\FinnexusOptions_V2\\contracts\\OptionsPool.sol",
  "compiler": {
    "name": "solc",
    "version": "0.4.26+commit.4563c3fc.Emscripten.clang"
  },
  "schemaVersion": "3.1.0",
  "updatedAt": "2020-07-27T01:12:24.716Z",
  "devdoc": {
    "methods": {
      "addExpiration(uint256)": {
        "details": "Implementation of add an eligible expiration into the expirationList.\r",
        "params": {
          "expiration": "new eligible expiration.\r"
        }
      },
      "addUnderlyingAsset(uint32)": {
        "details": "Implementation of add an eligible underlying into the underlyingAssets.\r",
        "params": {
          "underlying": "new eligible underlying.\r"
        }
      },
      "getExpirationList()": {
        "details": "Implementation of getting the eligible expirationList.\r"
      },
      "getUnderlyingAssets()": {
        "details": "Implementation of getting the eligible underlyingAssets.\r"
      },
      "isEligibleExpiration(uint256)": {
        "details": "Implementation of testing whether the input expiration is eligible.\r",
        "params": {
          "expiration": "input expiration for testing.\r"
        }
      },
      "isEligibleUnderlyingAsset(uint32)": {
        "details": "Implementation of testing whether the input underlying is eligible.\r",
        "params": {
          "underlying": "input underlying for testing.\r"
        }
      },
      "isOwner()": {
        "details": "Returns true if the caller is the current owner."
      },
      "owner()": {
        "details": "Returns the address of the current owner."
      },
      "removeExpirationList(uint256)": {
        "details": "Implementation of revoke an invalid expiration from the expirationList.\r",
        "params": {
          "removeExpiration": "revoked expiration.\r"
        }
      },
      "removeUnderlyingAssets(uint32)": {
        "details": "Implementation of revoke an invalid underlying from the underlyingAssets.\r",
        "params": {
          "removeUnderlying": "revoked underlying.\r"
        }
      },
      "renounceOwnership()": {
        "details": "Leaves the contract without owner. It will not be possible to call `onlyOwner` functions anymore. Can only be called by the current owner.     * NOTE: Renouncing ownership will leave the contract without an owner, thereby removing any functionality that is only available to the owner."
      },
      "transferOwnership(address)": {
        "details": "Transfers ownership of the contract to a new account (`newOwner`). Can only be called by the current owner."
      }
    }
  },
  "userdoc": {
    "methods": {
      "setManager(address)": {
        "notice": "contribution period to stop or not."
      },
      "setOperator(address)": {
        "notice": "contribution period to stop or not."
      }
    }
  }
}