{
  "contractName": "OptionsMangerV2",
  "abi": [
    {
      "constant": true,
      "inputs": [],
      "name": "name",
      "outputs": [
        {
          "name": "",
          "type": "string"
        }
      ],
      "payable": false,
      "stateMutability": "view",
      "type": "function"
    },
    {
      "constant": false,
      "inputs": [
        {
          "name": "spender",
          "type": "address"
        },
        {
          "name": "amount",
          "type": "uint256"
        }
      ],
      "name": "approve",
      "outputs": [
        {
          "name": "",
          "type": "bool"
        }
      ],
      "payable": false,
      "stateMutability": "nonpayable",
      "type": "function"
    },
    {
      "constant": true,
      "inputs": [],
      "name": "getWhiteList",
      "outputs": [
        {
          "name": "",
          "type": "address[]"
        }
      ],
      "payable": false,
      "stateMutability": "view",
      "type": "function"
    },
    {
      "constant": true,
      "inputs": [],
      "name": "lastCallOption",
      "outputs": [
        {
          "name": "",
          "type": "uint256"
        }
      ],
      "payable": false,
      "stateMutability": "view",
      "type": "function"
    },
    {
      "constant": true,
      "inputs": [],
      "name": "totalSupply",
      "outputs": [
        {
          "name": "",
          "type": "uint256"
        }
      ],
      "payable": false,
      "stateMutability": "view",
      "type": "function"
    },
    {
      "constant": false,
      "inputs": [
        {
          "name": "removeAddress",
          "type": "address"
        }
      ],
      "name": "removeWhiteList",
      "outputs": [],
      "payable": false,
      "stateMutability": "nonpayable",
      "type": "function"
    },
    {
      "constant": false,
      "inputs": [
        {
          "name": "sender",
          "type": "address"
        },
        {
          "name": "recipient",
          "type": "address"
        },
        {
          "name": "amount",
          "type": "uint256"
        }
      ],
      "name": "transferFrom",
      "outputs": [
        {
          "name": "",
          "type": "bool"
        }
      ],
      "payable": false,
      "stateMutability": "nonpayable",
      "type": "function"
    },
    {
      "constant": true,
      "inputs": [
        {
          "name": "",
          "type": "address"
        }
      ],
      "name": "collateralBalances",
      "outputs": [
        {
          "name": "",
          "type": "uint256"
        }
      ],
      "payable": false,
      "stateMutability": "view",
      "type": "function"
    },
    {
      "constant": false,
      "inputs": [],
      "name": "redeemAll",
      "outputs": [],
      "payable": false,
      "stateMutability": "nonpayable",
      "type": "function"
    },
    {
      "constant": true,
      "inputs": [],
      "name": "decimals",
      "outputs": [
        {
          "name": "",
          "type": "uint8"
        }
      ],
      "payable": false,
      "stateMutability": "view",
      "type": "function"
    },
    {
      "constant": false,
      "inputs": [
        {
          "name": "spender",
          "type": "address"
        },
        {
          "name": "addedValue",
          "type": "uint256"
        }
      ],
      "name": "increaseAllowance",
      "outputs": [
        {
          "name": "",
          "type": "bool"
        }
      ],
      "payable": false,
      "stateMutability": "nonpayable",
      "type": "function"
    },
    {
      "constant": true,
      "inputs": [
        {
          "name": "",
          "type": "uint256"
        }
      ],
      "name": "underlyingAssets",
      "outputs": [
        {
          "name": "",
          "type": "uint32"
        }
      ],
      "payable": false,
      "stateMutability": "view",
      "type": "function"
    },
    {
      "constant": true,
      "inputs": [],
      "name": "collateralRate",
      "outputs": [
        {
          "name": "value",
          "type": "uint256"
        },
        {
          "name": "exponent",
          "type": "int32"
        }
      ],
      "payable": false,
      "stateMutability": "view",
      "type": "function"
    },
    {
      "constant": true,
      "inputs": [
        {
          "name": "",
          "type": "uint256"
        }
      ],
      "name": "whiteList",
      "outputs": [
        {
          "name": "",
          "type": "address"
        }
      ],
      "payable": false,
      "stateMutability": "view",
      "type": "function"
    },
    {
      "constant": false,
      "inputs": [
        {
          "name": "collateral",
          "type": "address"
        },
        {
          "name": "amount",
          "type": "uint256"
        }
      ],
      "name": "addCollateral",
      "outputs": [],
      "payable": true,
      "stateMutability": "payable",
      "type": "function"
    },
    {
      "constant": true,
      "inputs": [
        {
          "name": "account",
          "type": "address"
        }
      ],
      "name": "balanceOf",
      "outputs": [
        {
          "name": "",
          "type": "uint256"
        }
      ],
      "payable": false,
      "stateMutability": "view",
      "type": "function"
    },
    {
      "constant": false,
      "inputs": [],
      "name": "renounceOwnership",
      "outputs": [],
      "payable": false,
      "stateMutability": "nonpayable",
      "type": "function"
    },
    {
      "constant": true,
      "inputs": [],
      "name": "getTotalOccupiedCollateral",
      "outputs": [
        {
          "name": "",
          "type": "uint256"
        }
      ],
      "payable": false,
      "stateMutability": "view",
      "type": "function"
    },
    {
      "constant": true,
      "inputs": [],
      "name": "lastCalBlock",
      "outputs": [
        {
          "name": "",
          "type": "uint256"
        }
      ],
      "payable": false,
      "stateMutability": "view",
      "type": "function"
    },
    {
      "constant": true,
      "inputs": [
        {
          "name": "tmpAddress",
          "type": "address"
        }
      ],
      "name": "isEligibleAddress",
      "outputs": [
        {
          "name": "",
          "type": "bool"
        }
      ],
      "payable": false,
      "stateMutability": "view",
      "type": "function"
    },
    {
      "constant": true,
      "inputs": [],
      "name": "getTransactionFee",
      "outputs": [
        {
          "name": "",
          "type": "uint256"
        },
        {
          "name": "",
          "type": "int32"
        }
      ],
      "payable": false,
      "stateMutability": "view",
      "type": "function"
    },
    {
      "constant": true,
      "inputs": [],
      "name": "owner",
      "outputs": [
        {
          "name": "",
          "type": "address"
        }
      ],
      "payable": false,
      "stateMutability": "view",
      "type": "function"
    },
    {
      "constant": true,
      "inputs": [
        {
          "name": "",
          "type": "uint256"
        }
      ],
      "name": "allOptions",
      "outputs": [
        {
          "name": "optType",
          "type": "uint8"
        },
        {
          "name": "underlying",
          "type": "uint32"
        },
        {
          "name": "expiration",
          "type": "uint256"
        },
        {
          "name": "strikePrice",
          "type": "uint256"
        },
        {
          "name": "amount",
          "type": "uint256"
        },
        {
          "name": "volatility",
          "type": "uint256"
        }
      ],
      "payable": false,
      "stateMutability": "view",
      "type": "function"
    },
    {
      "constant": true,
      "inputs": [],
      "name": "isOwner",
      "outputs": [
        {
          "name": "",
          "type": "bool"
        }
      ],
      "payable": false,
      "stateMutability": "view",
      "type": "function"
    },
    {
      "constant": false,
      "inputs": [
        {
          "name": "currency",
          "type": "address"
        }
      ],
      "name": "redeem",
      "outputs": [],
      "payable": false,
      "stateMutability": "nonpayable",
      "type": "function"
    },
    {
      "constant": true,
      "inputs": [],
      "name": "symbol",
      "outputs": [
        {
          "name": "",
          "type": "string"
        }
      ],
      "payable": false,
      "stateMutability": "view",
      "type": "function"
    },
    {
      "constant": false,
      "inputs": [
        {
          "name": "removeUnderlying",
          "type": "uint32"
        }
      ],
      "name": "removeunderlyingAssets",
      "outputs": [],
      "payable": false,
      "stateMutability": "nonpayable",
      "type": "function"
    },
    {
      "constant": true,
      "inputs": [
        {
          "name": "",
          "type": "address"
        }
      ],
      "name": "managerFee",
      "outputs": [
        {
          "name": "",
          "type": "uint256"
        }
      ],
      "payable": false,
      "stateMutability": "view",
      "type": "function"
    },
    {
      "constant": false,
      "inputs": [
        {
          "name": "index",
          "type": "uint256"
        }
      ],
      "name": "calculatePhaseOccupiedCollateral",
      "outputs": [],
      "payable": false,
      "stateMutability": "nonpayable",
      "type": "function"
    },
    {
      "constant": true,
      "inputs": [],
      "name": "transactionFee",
      "outputs": [
        {
          "name": "value",
          "type": "uint256"
        },
        {
          "name": "exponent",
          "type": "int32"
        }
      ],
      "payable": false,
      "stateMutability": "view",
      "type": "function"
    },
    {
      "constant": false,
      "inputs": [
        {
          "name": "tokenAmount",
          "type": "uint256"
        },
        {
          "name": "collateral",
          "type": "address"
        }
      ],
      "name": "redeemCollateral",
      "outputs": [],
      "payable": false,
      "stateMutability": "nonpayable",
      "type": "function"
    },
    {
      "constant": false,
      "inputs": [
        {
          "name": "spender",
          "type": "address"
        },
        {
          "name": "subtractedValue",
          "type": "uint256"
        }
      ],
      "name": "decreaseAllowance",
      "outputs": [
        {
          "name": "",
          "type": "bool"
        }
      ],
      "payable": false,
      "stateMutability": "nonpayable",
      "type": "function"
    },
    {
      "constant": false,
      "inputs": [
        {
          "name": "recipient",
          "type": "address"
        },
        {
          "name": "amount",
          "type": "uint256"
        }
      ],
      "name": "transfer",
      "outputs": [
        {
          "name": "",
          "type": "bool"
        }
      ],
      "payable": false,
      "stateMutability": "nonpayable",
      "type": "function"
    },
    {
      "constant": true,
      "inputs": [
        {
          "name": "",
          "type": "uint256"
        },
        {
          "name": "",
          "type": "uint256"
        },
        {
          "name": "",
          "type": "uint256"
        }
      ],
      "name": "burnBlockOptions",
      "outputs": [
        {
          "name": "",
          "type": "uint256"
        }
      ],
      "payable": false,
      "stateMutability": "view",
      "type": "function"
    },
    {
      "constant": false,
      "inputs": [
        {
          "name": "underlying",
          "type": "uint32"
        }
      ],
      "name": "addUnderlyingAsset",
      "outputs": [],
      "payable": false,
      "stateMutability": "nonpayable",
      "type": "function"
    },
    {
      "constant": true,
      "inputs": [
        {
          "name": "",
          "type": "address"
        },
        {
          "name": "",
          "type": "address"
        }
      ],
      "name": "userInputCollateral",
      "outputs": [
        {
          "name": "",
          "type": "uint256"
        }
      ],
      "payable": false,
      "stateMutability": "view",
      "type": "function"
    },
    {
      "constant": true,
      "inputs": [],
      "name": "halted",
      "outputs": [
        {
          "name": "",
          "type": "bool"
        }
      ],
      "payable": false,
      "stateMutability": "view",
      "type": "function"
    },
    {
      "constant": true,
      "inputs": [],
      "name": "tokenNetWorth",
      "outputs": [
        {
          "name": "",
          "type": "uint256"
        }
      ],
      "payable": false,
      "stateMutability": "view",
      "type": "function"
    },
    {
      "constant": true,
      "inputs": [],
      "name": "optionPhase",
      "outputs": [
        {
          "name": "",
          "type": "uint32"
        }
      ],
      "payable": false,
      "stateMutability": "view",
      "type": "function"
    },
    {
      "constant": true,
      "inputs": [
        {
          "name": "settlement",
          "type": "address"
        }
      ],
      "name": "getFeeBalance",
      "outputs": [
        {
          "name": "",
          "type": "uint256"
        }
      ],
      "payable": false,
      "stateMutability": "view",
      "type": "function"
    },
    {
      "constant": true,
      "inputs": [
        {
          "name": "",
          "type": "address"
        }
      ],
      "name": "PremiumBalances",
      "outputs": [
        {
          "name": "",
          "type": "uint256"
        }
      ],
      "payable": false,
      "stateMutability": "view",
      "type": "function"
    },
    {
      "constant": true,
      "inputs": [
        {
          "name": "underlying",
          "type": "uint32"
        }
      ],
      "name": "isEligibleUnderlyingAsset",
      "outputs": [
        {
          "name": "",
          "type": "bool"
        }
      ],
      "payable": false,
      "stateMutability": "view",
      "type": "function"
    },
    {
      "constant": true,
      "inputs": [
        {
          "name": "owner",
          "type": "address"
        },
        {
          "name": "spender",
          "type": "address"
        }
      ],
      "name": "allowance",
      "outputs": [
        {
          "name": "",
          "type": "uint256"
        }
      ],
      "payable": false,
      "stateMutability": "view",
      "type": "function"
    },
    {
      "constant": true,
      "inputs": [
        {
          "name": "",
          "type": "address"
        }
      ],
      "name": "userCollateralPaying",
      "outputs": [
        {
          "name": "",
          "type": "uint256"
        }
      ],
      "payable": false,
      "stateMutability": "view",
      "type": "function"
    },
    {
      "constant": false,
      "inputs": [
        {
          "name": "value",
          "type": "uint256"
        },
        {
          "name": "exponent",
          "type": "int32"
        }
      ],
      "name": "setTransactionFee",
      "outputs": [],
      "payable": false,
      "stateMutability": "nonpayable",
      "type": "function"
    },
    {
      "constant": false,
      "inputs": [
        {
          "name": "addAddress",
          "type": "address"
        }
      ],
      "name": "addWhiteList",
      "outputs": [],
      "payable": false,
      "stateMutability": "nonpayable",
      "type": "function"
    },
    {
      "constant": true,
      "inputs": [],
      "name": "getunderlyingAssets",
      "outputs": [
        {
          "name": "",
          "type": "uint32[]"
        }
      ],
      "payable": false,
      "stateMutability": "view",
      "type": "function"
    },
    {
      "constant": true,
      "inputs": [],
      "name": "getAllFeeBalances",
      "outputs": [
        {
          "name": "",
          "type": "address[]"
        },
        {
          "name": "",
          "type": "uint256[]"
        }
      ],
      "payable": false,
      "stateMutability": "view",
      "type": "function"
    },
    {
      "constant": false,
      "inputs": [
        {
          "name": "newOwner",
          "type": "address"
        }
      ],
      "name": "transferOwnership",
      "outputs": [],
      "payable": false,
      "stateMutability": "nonpayable",
      "type": "function"
    },
    {
      "constant": false,
      "inputs": [
        {
          "name": "halt",
          "type": "bool"
        }
      ],
      "name": "setHalt",
      "outputs": [],
      "payable": false,
      "stateMutability": "nonpayable",
      "type": "function"
    },
    {
      "anonymous": false,
      "inputs": [
        {
          "indexed": true,
          "name": "from",
          "type": "address"
        },
        {
          "indexed": true,
          "name": "to",
          "type": "address"
        },
        {
          "indexed": false,
          "name": "value",
          "type": "uint256"
        }
      ],
      "name": "Transfer",
      "type": "event"
    },
    {
      "anonymous": false,
      "inputs": [
        {
          "indexed": true,
          "name": "owner",
          "type": "address"
        },
        {
          "indexed": true,
          "name": "spender",
          "type": "address"
        },
        {
          "indexed": false,
          "name": "value",
          "type": "uint256"
        }
      ],
      "name": "Approval",
      "type": "event"
    },
    {
      "anonymous": false,
      "inputs": [
        {
          "indexed": true,
          "name": "recieptor",
          "type": "address"
        },
        {
          "indexed": true,
          "name": "collateral",
          "type": "address"
        },
        {
          "indexed": false,
          "name": "payback",
          "type": "uint256"
        }
      ],
      "name": "TransferPayback",
      "type": "event"
    },
    {
      "anonymous": false,
      "inputs": [
        {
          "indexed": true,
          "name": "previousOwner",
          "type": "address"
        },
        {
          "indexed": true,
          "name": "newOwner",
          "type": "address"
        }
      ],
      "name": "OwnershipTransferred",
      "type": "event"
    },
    {
      "constant": false,
      "inputs": [
        {
          "name": "settlement",
          "type": "address"
        },
        {
          "name": "settlementAmount",
          "type": "uint256"
        },
        {
          "name": "strikePrice",
          "type": "uint256"
        },
        {
          "name": "underlying",
          "type": "uint32"
        },
        {
          "name": "expiration",
          "type": "uint256"
        },
        {
          "name": "amount",
          "type": "uint256"
        },
        {
          "name": "optType",
          "type": "uint8"
        }
      ],
      "name": "buyOption",
      "outputs": [],
      "payable": true,
      "stateMutability": "payable",
      "type": "function"
    },
    {
      "constant": false,
      "inputs": [],
      "name": "sellOption",
      "outputs": [],
      "payable": true,
      "stateMutability": "payable",
      "type": "function"
    },
    {
      "constant": false,
      "inputs": [],
      "name": "exerciseOption",
      "outputs": [],
      "payable": true,
      "stateMutability": "payable",
      "type": "function"
    }
  ],
  "bytecode": "0x6002805460ff199081169091556003608081905260021960a0526005556006805463fffffffd63ffffffff19918216179091556402540be400600b556000600d55600e80549091166101f4179055601280549091169055610100604052600a60c08190527f536861726564436f696e0000000000000000000000000000000000000000000060e090815262000098916013919062000145565b506040805180820190915260058082527f53436f696e0000000000000000000000000000000000000000000000000000006020909201918252620000df9160149162000145565b50600060178190556402540be4006018556305f5e100601b558054600160a060020a0319163317808255604051600160a060020a039190911691907f8be0079c531659141344cd1fd0a4f28419497f9722a3daafe3b4186f6b6457e0908290a3620001ea565b828054600181600116156101000203166002900490600052602060002090601f016020900481019282601f106200018857805160ff1916838001178555620001b8565b82800160010185558215620001b8579182015b82811115620001b85782518255916020019190600101906200019b565b50620001c6929150620001ca565b5090565b620001e791905b80821115620001c65760008155600101620001d1565b90565b6139a780620001fa6000396000f3006080604052600436106102635763ffffffff60e060020a60003504166306fdde038114610268578063095ea7b3146102f257806309a9d76c1461032a578063132a56271461038f57806318160ddd146103b65780632042e5c2146103cb57806323b872dd146103ee57806329bc969d146104185780632f4350c214610439578063313ce5671461044e57806339509351146104795780633b50c4d11461049d57806358a6be1c146104ce5780635c475d42146105015780636d75b9ee1461053557806370a082311461054c578063715018a61461056d57806373a3d424146105825780637e2eeb7e14610597578063817bf86d146105ac57806385d79102146105cd5780638da5cb5b146105e25780638ea745b8146105f75780638f32d59b1461064b578063925c482c1461066057806395a2251f1461068f57806395d89b41146106b057806395efd989146106c55780639965a4d5146106e357806399deae0a146107045780639ed3edf01461071c578063a20a804514610731578063a457c2d714610755578063a9059cbb14610779578063a95c594a1461079d578063afec82fc146107bb578063b4d5a9c7146107d9578063b9b8af0b14610800578063bf7f96df14610815578063c27b7dfb1461082a578063c78f68031461083f578063cbb7bbc914610860578063db10b64214610881578063db6ad2bd14610889578063dd62ed3e146108a7578063ddb944e5146108ce578063e4a9d2be146108ef578063e7cd4a041461090d578063e8a3253514610881578063eba1f5601461092e578063f20568cd14610943578063f2fde38b146109f1578063f495438714610a12575b600080fd5b34801561027457600080fd5b5061027d610a2c565b6040805160208082528351818301528351919283929083019185019080838360005b838110156102b757818101518382015260200161029f565b50505050905090810190601f1680156102e45780820380516001836020036101000a031916815260200191505b509250505060405180910390f35b3480156102fe57600080fd5b50610316600160a060020a0360043516602435610aba565b604080519115158252519081900360200190f35b34801561033657600080fd5b5061033f610ad0565b60408051602080825283518183015283519192839290830191858101910280838360005b8381101561037b578181015183820152602001610363565b505050509050019250505060405180910390f35b34801561039b57600080fd5b506103a4610b33565b60408051918252519081900360200190f35b3480156103c257600080fd5b506103a4610b39565b3480156103d757600080fd5b506103ec600160a060020a0360043516610b3f565b005b3480156103fa57600080fd5b50610316600160a060020a0360043581169060243516604435610c30565b34801561042457600080fd5b506103a4600160a060020a0360043516610ce3565b34801561044557600080fd5b506103ec610cf5565b34801561045a57600080fd5b50610463610ef3565b6040805160ff9092168252519081900360200190f35b34801561048557600080fd5b50610316600160a060020a0360043516602435610ef8565b3480156104a957600080fd5b506104b5600435610f34565b6040805163ffffffff9092168252519081900360200190f35b3480156104da57600080fd5b506104e3610f6c565b60408051928352600391820b90910b60208301528051918290030190f35b34801561050d57600080fd5b50610519600435610f78565b60408051600160a060020a039092168252519081900360200190f35b6103ec600160a060020a0360043516602435610fa0565b34801561055857600080fd5b506103a4600160a060020a0360043516611130565b34801561057957600080fd5b506103ec61114b565b34801561058e57600080fd5b506103a46111ee565b3480156105a357600080fd5b506103a46114c8565b3480156105b857600080fd5b50610316600160a060020a03600435166114ce565b3480156105d957600080fd5b506104e36114e5565b3480156105ee57600080fd5b506105196114f2565b34801561060357600080fd5b5061060f600435611501565b6040805160ff909716875263ffffffff9095166020870152858501939093526060850191909152608084015260a0830152519081900360c00190f35b34801561065757600080fd5b50610316611551565b6103ec600160a060020a036004351660243560443563ffffffff6064351660843560a43560ff60c43516611562565b34801561069b57600080fd5b506103ec600160a060020a03600435166118c2565b3480156106bc57600080fd5b5061027d611a6a565b3480156106d157600080fd5b506103ec63ffffffff60043516611ac5565b3480156106ef57600080fd5b506103a4600160a060020a0360043516611bc4565b34801561071057600080fd5b506103ec600435611bd6565b34801561072857600080fd5b506104e3611e5d565b34801561073d57600080fd5b506103ec600435600160a060020a0360243516611e69565b34801561076157600080fd5b50610316600160a060020a036004351660243561203a565b34801561078557600080fd5b50610316600160a060020a03600435166024356120d3565b3480156107a957600080fd5b506103a46004356024356044356120e0565b3480156107c757600080fd5b506103ec63ffffffff60043516612120565b3480156107e557600080fd5b506103a4600160a060020a03600435811690602435166121e3565b34801561080c57600080fd5b50610316612200565b34801561082157600080fd5b506103a4612209565b34801561083657600080fd5b506104b561220f565b34801561084b57600080fd5b506103a4600160a060020a036004351661221b565b34801561086c57600080fd5b506103a4600160a060020a0360043516612236565b6103ec612248565b34801561089557600080fd5b5061031663ffffffff6004351661224a565b3480156108b357600080fd5b506103a4600160a060020a0360043581169060243516612261565b3480156108da57600080fd5b506103a4600160a060020a036004351661228c565b3480156108fb57600080fd5b506103ec60043560243560030b61229e565b34801561091957600080fd5b506103ec600160a060020a0360043516612311565b34801561093a57600080fd5b5061033f6123d3565b34801561094f57600080fd5b50610958612456565b604051808060200180602001838103835285818151815260200191508051906020019060200280838360005b8381101561099c578181015183820152602001610984565b50505050905001838103825284818151815260200191508051906020019060200280838360005b838110156109db5781810151838201526020016109c3565b5050505090500194505050505060405180910390f35b3480156109fd57600080fd5b506103ec600160a060020a036004351661255f565b348015610a1e57600080fd5b506103ec60043515156125b7565b6013805460408051602060026001851615610100026000190190941693909304601f81018490048402820184019092528181529291830182828015610ab25780601f10610a8757610100808354040283529160200191610ab2565b820191906000526020600020905b815481529060010190602001808311610a9557829003601f168201915b505050505081565b6000610ac7338484612616565b50600192915050565b60606003805480602002602001604051908101604052809291908181526020018280548015610b2857602002820191906000526020600020905b8154600160a060020a03168152600190910190602001808311610b0a575b505050505090505b90565b600f5481565b60175490565b6000610b49611551565b1515610b8d576040805160e560020a62461bcd028152602060048201819052602482015260008051602061395c833981519152604482015290519081900360640190fd5b610b9682612783565b600354909150811015610c2c57600354600019018114610c1757600380546000198101908110610bc257fe5b60009182526020909120015460038054600160a060020a039092169183908110610be857fe5b9060005260206000200160006101000a815481600160a060020a030219169083600160a060020a031602179055505b6003805490610c2a9060001983016138e9565b505b5050565b6000610c3d8484846127d8565b60408051606081018252602881527f45524332303a207472616e7366657220616d6f756e74206578636565647320616020808301919091527f6c6c6f77616e636500000000000000000000000000000000000000000000000082840152600160a060020a0387166000908152601682528381203380835292529290922054610cd99287929091610cd491879063ffffffff61294816565b612616565b5060019392505050565b60196020526000908152604090205481565b6000806000610d02611551565b1515610d46576040805160e560020a62461bcd028152602060048201819052602482015260008051602061395c833981519152604482015290519081900360640190fd5b600092505b600354831015610c2a5760046000600385815481101515610d6857fe5b6000918252602080832090910154600160a060020a031683528201929092526040018120549250821115610ee857600060046000600386815481101515610dab57fe5b6000918252602080832090910154600160a060020a031683528201929092526040019020556003805484908110610dde57fe5b600091825260208220015460038054600160a060020a0390921693509085908110610e0557fe5b600091825260209091200154600160a060020a03161415610e5357604051339083156108fc029084906000818181858888f19350505050158015610e4d573d6000803e3d6000fd5b50610ee8565b604080517fa9059cbb000000000000000000000000000000000000000000000000000000008152336004820152602481018490529051600160a060020a0383169163a9059cbb9160448083019260209291908290030181600087803b158015610ebb57600080fd5b505af1158015610ecf573d6000803e3d6000fd5b505050506040513d6020811015610ee557600080fd5b50505b600190920191610d4b565b601281565b336000818152601660209081526040808320600160a060020a03871684529091528120549091610ac7918590610cd4908663ffffffff6129e516565b6001805482908110610f4257fe5b9060005260206000209060089182820401919006600402915054906101000a900463ffffffff1681565b60075460085460030b82565b6003805482908110610f8657fe5b600091825260209091200154600160a060020a0316905081565b600160a060020a03821660009081526019602052604081205481908190610fcd908563ffffffff6129e516565b600160a060020a038616600081815260196020908152604080832094909455338252601d815283822092825291909152205461100f908563ffffffff6129e516565b336000908152601d60209081526040808320600160a060020a038a811680865291845282852095909555600a5482517f41976e090000000000000000000000000000000000000000000000000000000081526004810192909252915191909416936341976e099360248083019493928390030190829087803b15801561109457600080fd5b505af11580156110a8573d6000803e3d6000fd5b505050506040513d60208110156110be57600080fd5b505192506110d2838563ffffffff612a4d16565b91506110e9601b5483612aec90919063ffffffff16565b336000908152601c602052604090205490915061110c908363ffffffff6129e516565b336000818152601c60205260409020919091556111299082612b35565b5050505050565b600160a060020a031660009081526015602052604090205490565b611153611551565b1515611197576040805160e560020a62461bcd028152602060048201819052602482015260008051602061395c833981519152604482015290519081900360640190fd5b60008054604051600160a060020a03909116907f8be0079c531659141344cd1fd0a4f28419497f9722a3daafe3b4186f6b6457e0908390a36000805473ffffffffffffffffffffffffffffffffffffffff19169055565b60008060606000806000806000611203612bfa565b6001546040805182815260208084028201019091529198508015611231578160200160208202803883390190505b509550600094505b60015485101561131b57600a5460018054600160a060020a039092169163da66325791908890811061126757fe5b90600052602060002090600891828204019190066004029054906101000a900463ffffffff166040518263ffffffff1660e060020a028152600401808263ffffffff168152602001915050602060405180830381600087803b1580156112cc57600080fd5b505af11580156112e0573d6000803e3d6000fd5b505050506040513d60208110156112f657600080fd5b5051865187908790811061130657fe5b60209081029091010152600190940193611239565b600f5460010193505b600c548410156113bd57611361600c8581548110151561134057fe5b6000918252602090912060059091020154610100900463ffffffff16612c45565b92506113b06113a3600c8681548110151561137857fe5b9060005260206000209060050201888681518110151561139457fe5b90602001906020020151612ca0565b889063ffffffff6129e516565b9650600190930192611324565b60105460010191505b4382116114bc575060008181526009602052604081209094505b80548510156114b157611417600c82878154811015156113fc57fe5b60009182526020822060029091020101548154811061134057fe5b92506114a4611497600c838881548110151561142f57fe5b60009182526020822060029091020101548154811061144a57fe5b9060005260206000209060050201838881548110151561146657fe5b6000918252602090912060029091020160010154898781518110151561148857fe5b90602001906020020151612d24565b889063ffffffff612d9f16565b96506001909401936113e0565b6001909101906113c6565b50949695505050505050565b60105481565b6000806114da83612783565b600354119392505050565b60055460065460030b9091565b600054600160a060020a031690565b600c80548290811061150f57fe5b60009182526020909120600590910201805460018201546002830154600384015460049094015460ff8416955061010090930463ffffffff1693919290919086565b600054600160a060020a0316331490565b60008060008060006115738961224a565b15156115c9576040805160e560020a62461bcd02815260206004820152601f60248201527f756e6465726c79696e6720697320756e737570706f7274656420617373657400604482015290519081900360640190fd5b6115d38c8c612de1565b9a5060008b1161162d576040805160e560020a62461bcd02815260206004820152601a60248201527f736574746c656d656e7420616d6f756e74206973207a65726f21000000000000604482015290519081900360640190fd5b600a54604080517fda66325700000000000000000000000000000000000000000000000000000000815263ffffffff8c1660048201529051600160a060020a039092169163da663257916024808201926020929091908290030181600087803b15801561169957600080fd5b505af11580156116ad573d6000803e3d6000fd5b505050506040513d60208110156116c357600080fd5b5051601e54604080517f2f581f4800000000000000000000000000000000000000000000000000000000815260048101849052602481018e9052604481018c905260ff8a1660648201529051929750600160a060020a0390911691632f581f48916084808201926020929091908290030181600087803b15801561174657600080fd5b505af115801561175a573d6000803e3d6000fd5b505050506040513d602081101561177057600080fd5b50519350611784848863ffffffff612a4d16565b9250600a60009054906101000a9004600160a060020a0316600160a060020a03166341976e098d6040518263ffffffff1660e060020a0281526004018082600160a060020a0316600160a060020a03168152602001915050602060405180830381600087803b1580156117f657600080fd5b505af115801561180a573d6000803e3d6000fd5b505050506040513d602081101561182057600080fd5b50519150611834828c63ffffffff612a4d16565b9050828110156118b4576040805160e560020a62461bcd02815260206004820152602160248201527f736574746c656d656e7420617373657420697320696e73756666696369656e7460448201527f2100000000000000000000000000000000000000000000000000000000000000606482015290519081900360840190fd5b505050505050505050505050565b6000806118cd611551565b1515611911576040805160e560020a62461bcd028152602060048201819052602482015260008051602061395c833981519152604482015290519081900360640190fd5b600160a060020a03831660009081526004602052604081205492508211611982576040805160e560020a62461bcd02815260206004820152601260248201527f4974277320656d7074792062616c616e63650000000000000000000000000000604482015290519081900360640190fd5b600160a060020a03831660008181526004602052604081205515156119d457604051339083156108fc029084906000818181858888f193505050501580156119ce573d6000803e3d6000fd5b50610c2a565b50604080517fa9059cbb0000000000000000000000000000000000000000000000000000000081523360048201526024810183905290518391600160a060020a0383169163a9059cbb916044808201926020929091908290030181600087803b158015611a4057600080fd5b505af1158015611a54573d6000803e3d6000fd5b505050506040513d602081101561112957600080fd5b6014805460408051602060026001851615610100026000190190941693909304601f81018490048402820184019092528181529291830182828015610ab25780601f10610a8757610100808354040283529160200191610ab2565b6000611acf611551565b1515611b13576040805160e560020a62461bcd028152602060048201819052602482015260008051602061395c833981519152604482015290519081900360640190fd5b611b1c82612c45565b600154909150811015610c2c57600154600019018114611bb157600180546000198101908110611b4857fe5b90600052602060002090600891828204019190066004029054906101000a900463ffffffff16600182815481101515611b7d57fe5b90600052602060002090600891828204019190066004026101000a81548163ffffffff021916908363ffffffff1602179055505b6001805490610c2a90600019830161390d565b60046020526000908152604090205481565b6000806060600080611be6611551565b1515611c2a576040805160e560020a62461bcd028152602060048201819052602482015260008051602061395c833981519152604482015290519081900360640190fd5b600e54611c4290879063ffffffff90811690612a4d16565b600c549095508510611c5357611e55565b601154600187011115611c715760018601611c6f6011826138e9565b505b600e54611c8990869063ffffffff908116906129e516565b600c54909450841115611c9c57600c5493505b600154604080518281526020808402820101909152908015611cc8578160200160208202803883390190505b509250600091505b600154821015611db257600a5460018054600160a060020a039092169163da663257919085908110611cfe57fe5b90600052602060002090600891828204019190066004029054906101000a900463ffffffff166040518263ffffffff1660e060020a028152600401808263ffffffff168152602001915050602060405180830381600087803b158015611d6357600080fd5b505af1158015611d77573d6000803e3d6000fd5b505050506040513d6020811015611d8d57600080fd5b50518351849084908110611d9d57fe5b60209081029091010152600190910190611cd0565b5060005b83851015611e1d57611dd0600c8681548110151561134057fe5b9550611e10611e03600c87815481101515611de757fe5b9060005260206000209060050201858981518110151561139457fe5b829063ffffffff6129e516565b6001909501949050611db6565b80601187815481101515611e2d57fe5b906000526020600020018190555060018403600f541015611e55576000198401600f55436010555b505050505050565b60055460065460030b82565b3360009081526015602052604081205481908190819081908190881115611eda576040805160e560020a62461bcd02815260206004820152601e60248201527f53436f696e2062616c616e636520697320696e73756666696369656e74210000604482015290519081900360640190fd5b871515611ee657612030565b611eee6111ee565b9550611f07601b54601754612a4d90919063ffffffff16565b9450611f1e601b5489612a4d90919063ffffffff16565b935084611f31878663ffffffff6129e516565b116120305733600090815260156020908152604080832054601c90925290912054611f739190611f67908b63ffffffff612a4d16565b9063ffffffff612aec16565b336000908152601c6020526040902054909350611f96908463ffffffff612d9f16565b336000818152601c6020526040902091909155611fb39089612f14565b601b54611fc790899063ffffffff612a4d16565b9150611fd38288612fff565b9150600090505b600082118015611feb575060035481105b156120275761201d8260038381548110151561200357fe5b600091825260209091200154600160a060020a0316612fff565b9150600101611fda565b61203082613196565b5050505050505050565b60408051606081018252602581527f45524332303a2064656372656173656420616c6c6f77616e63652062656c6f776020808301919091527f207a65726f0000000000000000000000000000000000000000000000000000008284015233600081815260168352848120600160a060020a0388168252909252928120549092610ac79290918691610cd49190879063ffffffff61294816565b6000610ac73384846127d8565b6009602052826000526040600020828154811015156120fb57fe5b90600052602060002090600202018160028110151561211657fe5b0154925083915050565b600061212a611551565b151561216e576040805160e560020a62461bcd028152602060048201819052602482015260008051602061395c833981519152604482015290519081900360640190fd5b61217782612c45565b600154909150811415610c2c57600180548082018255600091909152600881047fb10e2d527612073b26eecdfd717e6a320cf44b4afac2b0732d9fcbe2b7fa0cf601805463ffffffff80861660046007909516949094026101000a938402930219169190911790555050565b601d60209081526000928352604080842090915290825290205481565b60025460ff1681565b601b5481565b600e5463ffffffff1681565b600160a060020a031660009081526004602052604090205490565b601a6020526000908152604090205481565b565b60008061225683612c45565b600154119392505050565b600160a060020a03918216600090815260166020908152604080832093909416825291909152205490565b601c6020526000908152604090205481565b6122a6611551565b15156122ea576040805160e560020a62461bcd028152602060048201819052602482015260008051602061395c833981519152604482015290519081900360640190fd5b6005919091556006805460039290920b63ffffffff1663ffffffff19909216919091179055565b600061231b611551565b151561235f576040805160e560020a62461bcd028152602060048201819052602482015260008051602061395c833981519152604482015290519081900360640190fd5b61236882612783565b600354909150811415610c2c57600380546001810182556000919091527fc2575a0e9e593c00f959f8c92f12db2869c3395a3b0502d05e2516446f71f85b018054600160a060020a03841673ffffffffffffffffffffffffffffffffffffffff199091161790555050565b60606001805480602002602001604051908101604052809291908181526020018280548015610b2857602002820191906000526020600020906000905b82829054906101000a900463ffffffff1663ffffffff16815260200190600401906020826003010492830192600103820291508084116124105790505050505050905090565b6060806060600060038054905060405190808252806020026020018201604052801561248c578160200160208202803883390190505b509150600090505b6003548110156124f657600460006003838154811015156124b157fe5b6000918252602080832090910154600160a060020a0316835282019290925260400190205482518390839081106124e457fe5b60209081029091010152600101612494565b6003828180548060200260200160405190810160405280929190818152602001828054801561254e57602002820191906000526020600020905b8154600160a060020a03168152600190910190602001808311612530575b505050505091509350935050509091565b612567611551565b15156125ab576040805160e560020a62461bcd028152602060048201819052602482015260008051602061395c833981519152604482015290519081900360640190fd5b6125b481613460565b50565b6125bf611551565b1515612603576040805160e560020a62461bcd028152602060048201819052602482015260008051602061395c833981519152604482015290519081900360640190fd5b6002805460ff1916911515919091179055565b600160a060020a038316151561269b576040805160e560020a62461bcd028152602060048201526024808201527f45524332303a20617070726f76652066726f6d20746865207a65726f2061646460448201527f7265737300000000000000000000000000000000000000000000000000000000606482015290519081900360840190fd5b600160a060020a0382161515612721576040805160e560020a62461bcd02815260206004820152602260248201527f45524332303a20617070726f766520746f20746865207a65726f20616464726560448201527f7373000000000000000000000000000000000000000000000000000000000000606482015290519081900360840190fd5b600160a060020a03808416600081815260166020908152604080832094871680845294825291829020859055815185815291517f8c5be1e5ebec7d5bd14f71427d1e84f3dd0314c0f7b2291e5b200ac8c7c3b9259281900390910190a3505050565b6000805b6003548110156127d25782600160a060020a03166003828154811015156127aa57fe5b600091825260209091200154600160a060020a031614156127ca576127d2565b600101612787565b92915050565b600160a060020a038316151561285e576040805160e560020a62461bcd02815260206004820152602560248201527f45524332303a207472616e736665722066726f6d20746865207a65726f20616460448201527f6472657373000000000000000000000000000000000000000000000000000000606482015290519081900360840190fd5b600160a060020a03821615156128e4576040805160e560020a62461bcd02815260206004820152602360248201527f45524332303a207472616e7366657220746f20746865207a65726f206164647260448201527f6573730000000000000000000000000000000000000000000000000000000000606482015290519081900360840190fd5b6128ee838261354e565b6128f8828261361d565b81600160a060020a031683600160a060020a03167fddf252ad1be2c89b69c2b068fc378daa952ba7f163c4a11628f55a4df523b3ef836040518082815260200191505060405180910390a3505050565b60008082858511156129db5760405160e560020a62461bcd0281526004018080602001828103825283818151815260200191508051906020019080838360005b838110156129a0578181015183820152602001612988565b50505050905090810190601f1680156129cd5780820380516001836020036101000a031916815260200191505b509250505060405180910390fd5b5050509103919050565b600082820183811015612a42576040805160e560020a62461bcd02815260206004820152601b60248201527f536166654d6174683a206164646974696f6e206f766572666c6f770000000000604482015290519081900360640190fd5b8091505b5092915050565b600080831515612a605760009150612a46565b50828202828482811515612a7057fe5b0414612a42576040805160e560020a62461bcd02815260206004820152602160248201527f536166654d6174683a206d756c7469706c69636174696f6e206f766572666c6f60448201527f7700000000000000000000000000000000000000000000000000000000000000606482015290519081900360840190fd5b6000612b2e83836040805190810160405280601a81526020017f536166654d6174683a206469766973696f6e206279207a65726f0000000000008152506136cc565b9392505050565b600160a060020a0382161515612b95576040805160e560020a62461bcd02815260206004820152601f60248201527f45524332303a206d696e7420746f20746865207a65726f206164647265737300604482015290519081900360640190fd5b601754612ba8908263ffffffff6129e516565b601755612bb5828261361d565b604080518281529051600160a060020a038416916000917fddf252ad1be2c89b69c2b068fc378daa952ba7f163c4a11628f55a4df523b3ef9181900360200190a35050565b600080805b601154811015612c3f57612c35601182815481101515612c1b57fe5b9060005260206000200154836129e590919063ffffffff16565b9150600101612bff565b50919050565b6000805b6001548110156127d2578263ffffffff16600182815481101515612c6957fe5b6000918252602090912060088204015460079091166004026101000a900463ffffffff161415612c98576127d2565b600101612c49565b60028201548254600091829160ff16159084101415612cd95760038401546002850154612cd29163ffffffff612a4d16565b9050612cf2565b6003840154612cef90849063ffffffff612a4d16565b90505b604080518082019091526007548152600854600390810b810b900b6020820152612d1c9082613738565b949350505050565b60028301548354600091829160ff16159084101415612d59576002850154612d52908563ffffffff612a4d16565b9050612d6c565b612d69838563ffffffff612a4d16565b90505b604080518082019091526007548152600854600390810b810b900b6020820152612d969082613738565b95945050505050565b6000612b2e83836040805190810160405280601e81526020017f536166654d6174683a207375627472616374696f6e206f766572666c6f770000815250612948565b6000806000612def856114ce565b1515612e45576040805160e560020a62461bcd02815260206004820152601f60248201527f736574746c656d656e7420697320756e737570706f7274656420746f6b656e00604482015290519081900360640190fd5b60009150600160a060020a0385161515612e6157349150612f0c565b6000841115612f0c5750604080517f23b872dd0000000000000000000000000000000000000000000000000000000081523360048201523060248201526044810185905290518591600160a060020a038316916323b872dd916064808201926020929091908290030181600087803b158015612edc57600080fd5b505af1158015612ef0573d6000803e3d6000fd5b505050506040513d6020811015612f0657600080fd5b50849250505b509392505050565b600160a060020a0382161515612f9a576040805160e560020a62461bcd02815260206004820152602160248201527f45524332303a206275726e2066726f6d20746865207a65726f2061646472657360448201527f7300000000000000000000000000000000000000000000000000000000000000606482015290519081900360840190fd5b612fa4828261354e565b601754612fb7908263ffffffff612d9f16565b601755604080518281529051600091600160a060020a038516917fddf252ad1be2c89b69c2b068fc378daa952ba7f163c4a11628f55a4df523b3ef9181900360200190a35050565b336000908152601d60209081526040808320600160a060020a03851684529091528120548180808315156130355786945061318c565b600a54604080517f41976e09000000000000000000000000000000000000000000000000000000008152600160a060020a038981166004830152915191909216916341976e099160248083019260209291908290030181600087803b15801561309d57600080fd5b505af11580156130b1573d6000803e3d6000fd5b505050506040513d60208110156130c757600080fd5b505192506130db878463ffffffff612aec16565b91508115156130ed576000945061318c565b8382116130fa57816130fc565b835b336000908152601d60209081526040808320600160a060020a038b168452909152902054909150613133908263ffffffff612d9f16565b336000818152601d60209081526040808320600160a060020a038c1684529091529020919091556131659087836137a3565b8382111561318757613180611497828563ffffffff612a4d16565b945061318c565b600094505b5050505092915050565b60008080808080808715156131aa57612030565b6018546131be90899063ffffffff612a4d16565b96506000955060009450600093505b60035484101561332d5761321f601a60006003878154811015156131ed57fe5b6000918252602080832090910154600160a060020a03168352820192909252604001902054879063ffffffff6129e516565b600a5460038054929850600160a060020a03909116916341976e0991908790811061324657fe5b60009182526020808320909101546040805160e060020a63ffffffff8716028152600160a060020a0390921660048301525160248083019491928390030190829087803b15801561329657600080fd5b505af11580156132aa573d6000803e3d6000fd5b505050506040513d60208110156132c057600080fd5b5051600380549194506133219161331491601a9160009190899081106132e257fe5b6000918252602080832090910154600160a060020a03168352820192909252604001902054859063ffffffff612a4d16565b869063ffffffff6129e516565b506001909301926131cd565b61334185611f67898963ffffffff612a4d16565b9150600093505b600354841015612030576133a4601854611f6788611f6786601a600060038c81548110151561337357fe5b6000918252602080832090910154600160a060020a031683528201929092526040019020549063ffffffff612a4d16565b90506133ee81601a60006003888154811015156133bd57fe5b6000918252602080832090910154600160a060020a031683528201929092526040019020549063ffffffff612d9f16565b601a600060038781548110151561340157fe5b6000918252602080832090910154600160a060020a03168352820192909252604001902055600380546134559133918790811061343a57fe5b600091825260209091200154600160a060020a0316836137a3565b600190930192613348565b600160a060020a03811615156134e6576040805160e560020a62461bcd02815260206004820152602660248201527f4f776e61626c653a206e6577206f776e657220697320746865207a65726f206160448201527f6464726573730000000000000000000000000000000000000000000000000000606482015290519081900360840190fd5b60008054604051600160a060020a03808516939216917f8be0079c531659141344cd1fd0a4f28419497f9722a3daafe3b4186f6b6457e091a36000805473ffffffffffffffffffffffffffffffffffffffff1916600160a060020a0392909216919091179055565b600160a060020a03821615156135d4576040805160e560020a62461bcd02815260206004820152602360248201527f45524332303a207472616e7366657220746f20746865207a65726f206164647260448201527f6573730000000000000000000000000000000000000000000000000000000000606482015290519081900360840190fd5b600160a060020a0382166000908152601560205260409020546135fd908263ffffffff612d9f16565b600160a060020a0390921660009081526015602052604090209190915550565b600160a060020a03821615156136a3576040805160e560020a62461bcd02815260206004820152602360248201527f45524332303a207472616e7366657220746f20746865207a65726f206164647260448201527f6573730000000000000000000000000000000000000000000000000000000000606482015290519081900360840190fd5b600160a060020a0382166000908152601560205260409020546135fd908263ffffffff6129e516565b600080828185116137225760405160e560020a62461bcd028152600401808060200182810382528381815181526020019150805190602001908083836000838110156129a0578181015183820152602001612988565b50838581151561372e57fe5b0495945050505050565b8151600090819061374f908463ffffffff612a4d16565b90506000846020015160030b131561378457602084015161377d90829060030b600a0a63ffffffff612a4d16565b9050612a42565b6020840151612d1c90829060000360030b600a0a63ffffffff612aec16565b60008115156137b1576138e3565b600160a060020a03831615156137fd57604051600160a060020a0385169083156108fc029084906000818181858888f193505050501580156137f7573d6000803e3d6000fd5b50613897565b50604080517fa9059cbb000000000000000000000000000000000000000000000000000000008152600160a060020a038581166004830152602482018490529151849283169163a9059cbb9160448083019260209291908290030181600087803b15801561386a57600080fd5b505af115801561387e573d6000803e3d6000fd5b505050506040513d602081101561389457600080fd5b50505b82600160a060020a031684600160a060020a03167f8aaaec2388cc390cde69685f78340e15f36d424b6b6b595f549dd883931f9c9b846040518082815260200191505060405180910390a35b50505050565b815481835581811115610c2a57600083815260209020610c2a91810190830161393d565b815481835581811115610c2a576007016008900481600701600890048360005260206000209182019101610c2a91905b610b3091905b808211156139575760008155600101613943565b509056004f776e61626c653a2063616c6c6572206973206e6f7420746865206f776e6572a165627a7a7230582004ff843fb2150a026ce1a86fd8a6d9440461a0c10f833e7148b54394bb5809350029",
  "source": "pragma solidity ^0.4.26;\r\nimport \"./SafeMath.sol\";\r\nimport \"./CollateralPool.sol\";\r\nimport \"./IOptionsPrice.sol\";\r\ncontract OptionsMangerV2 is CollateralPool {\r\n    using SafeMath for uint256;\r\n    IOptionsPrice internal optionsPrice;\r\n    function buyOption(address settlement,uint256 settlementAmount, uint256 strikePrice,uint32 underlying,\r\n        uint256 expiration,uint256 amount,uint8 optType)public payable{\r\n        require(isEligibleUnderlyingAsset(underlying) , \"underlying is unsupported asset\");\r\n        settlementAmount = getPayableAmount(settlement,settlementAmount);\r\n        require(settlementAmount>0 , \"settlement amount is zero!\");\r\n        uint256 currentPrice = _oracle.getUnderlyingPrice(underlying);\r\n        uint256 optPrice = optionsPrice.getOptionsPrice(currentPrice,strikePrice,expiration,optType);\r\n        uint256 allPay = optPrice.mul(amount);\r\n        uint256 settlePrice = _oracle.getPrice(settlement);\r\n        uint256 allSettle = settlePrice.mul(settlementAmount);\r\n        require(allSettle>=allPay,\"settlement asset is insufficient!\");\r\n    }\r\n    function sellOption()public payable{\r\n\r\n    }\r\n    function exerciseOption()public payable{\r\n\r\n    }\r\n\r\n}",
  "sourcePath": "C:\\work\\solidity\\FinnexusOptions_V2\\contracts\\OptionsMangerV2.sol",
  "compiler": {
    "name": "solc",
    "version": "0.4.26+commit.4563c3fc.Emscripten.clang"
  },
  "schemaVersion": "3.1.0",
  "updatedAt": "2020-07-16T13:05:57.880Z",
  "devdoc": {
    "methods": {
      "addUnderlyingAsset(uint32)": {
        "details": "Implementation of add an eligible underlying into the underlyingAssets.\r",
        "params": {
          "underlying": "new eligible underlying.\r"
        }
      },
      "addWhiteList(address)": {
        "details": "Implementation of add an eligible address into the whitelist.\r",
        "params": {
          "addAddress": "new eligible address.\r"
        }
      },
      "allowance(address,address)": {
        "details": "See {IERC20-allowance}.\r"
      },
      "approve(address,uint256)": {
        "details": "See {IERC20-approve}.\r      * Requirements:\r      * - `spender` cannot be the zero address.\r"
      },
      "balanceOf(address)": {
        "details": "See {IERC20-balanceOf}.\r"
      },
      "decreaseAllowance(address,uint256)": {
        "details": "Atomically decreases the allowance granted to `spender` by the caller.\r      * This is an alternative to {approve} that can be used as a mitigation for\r problems described in {IERC20-approve}.\r      * Emits an {Approval} event indicating the updated allowance.\r      * Requirements:\r      * - `spender` cannot be the zero address.\r - `spender` must have allowance for the caller of at least\r `subtractedValue`.\r"
      },
      "getTransactionFee()": {
        "details": "Returns the rate of trasaction fee.\r"
      },
      "getWhiteList()": {
        "details": "Implementation of getting the eligible whitelist.\r"
      },
      "getunderlyingAssets()": {
        "details": "Implementation of getting the eligible underlyingAssets.\r"
      },
      "increaseAllowance(address,uint256)": {
        "details": "Atomically increases the allowance granted to `spender` by the caller.\r      * This is an alternative to {approve} that can be used as a mitigation for\r problems described in {IERC20-approve}.\r      * Emits an {Approval} event indicating the updated allowance.\r      * Requirements:\r      * - `spender` cannot be the zero address.\r"
      },
      "isEligibleAddress(address)": {
        "details": "Implementation of testing whether the input address is eligible.\r",
        "params": {
          "tmpAddress": "input address for testing.\r"
        }
      },
      "isEligibleUnderlyingAsset(uint32)": {
        "details": "Implementation of testing whether the input underlying is eligible.\r",
        "params": {
          "underlying": "input underlying for testing.\r"
        }
      },
      "isOwner()": {
        "details": "Returns true if the caller is the current owner."
      },
      "owner()": {
        "details": "Returns the address of the current owner."
      },
      "removeWhiteList(address)": {
        "details": "Implementation of revoke an invalid address from the whitelist.\r",
        "params": {
          "removeAddress": "revoked address.\r"
        }
      },
      "removeunderlyingAssets(uint32)": {
        "details": "Implementation of revoke an invalid underlying from the underlyingAssets.\r",
        "params": {
          "removeUnderlying": "revoked underlying.\r"
        }
      },
      "renounceOwnership()": {
        "details": "Leaves the contract without owner. It will not be possible to call `onlyOwner` functions anymore. Can only be called by the current owner.     * NOTE: Renouncing ownership will leave the contract without an owner, thereby removing any functionality that is only available to the owner."
      },
      "setTransactionFee(uint256,int32)": {
        "details": "set the rate of trasaction fee.\r",
        "params": {
          "exponent": "the exponent figures of transaction fee.\r transaction fee = Number(value,exponent);\r",
          "value": "the significant figures of transaction fee .\r"
        }
      },
      "totalSupply()": {
        "details": "See {IERC20-totalSupply}.\r"
      },
      "transfer(address,uint256)": {
        "details": "See {IERC20-transfer}.\r      * Requirements:\r      * - `recipient` cannot be the zero address.\r - the caller must have a balance of at least `amount`.\r"
      },
      "transferFrom(address,address,uint256)": {
        "details": "See {IERC20-transferFrom}.\r      * Emits an {Approval} event indicating the updated allowance. This is not\r required by the EIP. See the note at the beginning of {ERC20};\r      * Requirements:\r - `sender` and `recipient` cannot be the zero address.\r - `sender` must have a balance of at least `amount`.\r - the caller must have allowance for `sender`'s tokens of at least\r `amount`.\r"
      },
      "transferOwnership(address)": {
        "details": "Transfers ownership of the contract to a new account (`newOwner`). Can only be called by the current owner."
      }
    }
  },
  "userdoc": {
    "methods": {
      "setHalt(bool)": {
        "notice": "function Emergency situation that requires contribution period to stop or not."
      }
    }
  }
}