{
  "contractName": "OptionsPriceTest",
  "abi": [
    {
      "constant": true,
      "inputs": [
        {
          "name": "currentPrice",
          "type": "uint256"
        },
        {
          "name": "strikePrice",
          "type": "uint256"
        },
        {
          "name": "expiration",
          "type": "uint256"
        },
        {
          "name": "ivNumerator",
          "type": "uint256"
        },
        {
          "name": "ivDenominator",
          "type": "uint256"
        },
        {
          "name": "optType",
          "type": "uint8"
        }
      ],
      "name": "getOptionsPrice_iv",
      "outputs": [
        {
          "name": "",
          "type": "uint256"
        }
      ],
      "payable": false,
      "stateMutability": "view",
      "type": "function"
    },
    {
      "constant": true,
      "inputs": [
        {
          "name": "currentPrice",
          "type": "uint256"
        },
        {
          "name": "strikePrice",
          "type": "uint256"
        },
        {
          "name": "expiration",
          "type": "uint256"
        },
        {
          "name": "optType",
          "type": "uint8"
        }
      ],
      "name": "getOptionsPrice",
      "outputs": [
        {
          "name": "",
          "type": "uint256"
        }
      ],
      "payable": false,
      "stateMutability": "view",
      "type": "function"
    },
    {
      "constant": false,
      "inputs": [],
      "name": "renounceOwnership",
      "outputs": [],
      "payable": false,
      "stateMutability": "nonpayable",
      "type": "function"
    },
    {
      "constant": false,
      "inputs": [
        {
          "name": "ivNumerator",
          "type": "int256"
        },
        {
          "name": "ivDenominator",
          "type": "int256"
        }
      ],
      "name": "setIV",
      "outputs": [],
      "payable": false,
      "stateMutability": "nonpayable",
      "type": "function"
    },
    {
      "constant": true,
      "inputs": [],
      "name": "owner",
      "outputs": [
        {
          "name": "",
          "type": "address"
        }
      ],
      "payable": false,
      "stateMutability": "view",
      "type": "function"
    },
    {
      "constant": true,
      "inputs": [],
      "name": "isOwner",
      "outputs": [
        {
          "name": "",
          "type": "bool"
        }
      ],
      "payable": false,
      "stateMutability": "view",
      "type": "function"
    },
    {
      "constant": true,
      "inputs": [],
      "name": "getIV",
      "outputs": [
        {
          "name": "",
          "type": "int256"
        },
        {
          "name": "",
          "type": "int256"
        }
      ],
      "payable": false,
      "stateMutability": "view",
      "type": "function"
    },
    {
      "constant": false,
      "inputs": [
        {
          "name": "newOwner",
          "type": "address"
        }
      ],
      "name": "transferOwnership",
      "outputs": [],
      "payable": false,
      "stateMutability": "nonpayable",
      "type": "function"
    },
    {
      "anonymous": false,
      "inputs": [
        {
          "indexed": true,
          "name": "previousOwner",
          "type": "address"
        },
        {
          "indexed": true,
          "name": "newOwner",
          "type": "address"
        }
      ],
      "name": "OwnershipTransferred",
      "type": "event"
    },
    {
      "constant": true,
      "inputs": [
        {
          "name": "currentPrice",
          "type": "uint256"
        },
        {
          "name": "strikePrice",
          "type": "uint256"
        },
        {
          "name": "expiration",
          "type": "uint256"
        }
      ],
      "name": "testCalculateD1D2",
      "outputs": [
        {
          "name": "",
          "type": "int256"
        },
        {
          "name": "",
          "type": "int256"
        },
        {
          "name": "",
          "type": "int256"
        },
        {
          "name": "",
          "type": "int256"
        }
      ],
      "payable": false,
      "stateMutability": "view",
      "type": "function"
    },
    {
      "constant": true,
      "inputs": [
        {
          "name": "currentPrice",
          "type": "uint256"
        },
        {
          "name": "strikePrice",
          "type": "uint256"
        },
        {
          "name": "expiration",
          "type": "uint256"
        },
        {
          "name": "ivNumerator",
          "type": "uint256"
        },
        {
          "name": "ivDenominator",
          "type": "uint256"
        }
      ],
      "name": "testCalculateND",
      "outputs": [
        {
          "name": "",
          "type": "int256"
        },
        {
          "name": "",
          "type": "int256"
        },
        {
          "name": "",
          "type": "int256"
        },
        {
          "name": "",
          "type": "int256"
        }
      ],
      "payable": false,
      "stateMutability": "view",
      "type": "function"
    }
  ],
  "bytecode": "0x6301e13380600155600560808190526103e860a081905260028290556003556101006040819052603260c0819052606460e081905260049190915590915560008054600160a060020a0319163317808255600160a060020a0316917f8be0079c531659141344cd1fd0a4f28419497f9722a3daafe3b4186f6b6457e0908290a36116a48061008e6000396000f3006080604052600436106100a35763ffffffff7c0100000000000000000000000000000000000000000000000000000000600035041663055ef6ab81146100a85780631bd25fd8146100e45780632f581f4814610128578063715018a61461014c5780637c523fb5146101635780638a4698df146101875780638da5cb5b146101a25780638f32d59b146101d3578063a569a2d7146101fc578063f2fde38b1461022a575b600080fd5b3480156100b457600080fd5b506100d260043560243560443560643560843560ff60a4351661024b565b60408051918252519081900360200190f35b3480156100f057600080fd5b506101026004356024356044356102d4565b604080519485526020850193909352838301919091526060830152519081900360800190f35b34801561013457600080fd5b506100d260043560243560443560ff6064351661034a565b34801561015857600080fd5b506101616103e1565b005b34801561016f57600080fd5b50610102600435602435604435606435608435610496565b34801561019357600080fd5b5061016160043560243561052d565b3480156101ae57600080fd5b506101b7610596565b60408051600160a060020a039092168252519081900360200190f35b3480156101df57600080fd5b506101e86105a5565b604080519115158252519081900360200190f35b34801561020857600080fd5b506102116105b6565b6040805192835260208301919091528051918290030190f35b34801561023657600080fd5b50610161600160a060020a03600435166105c0565b6000610255611632565b50604080518082019091528481526020810184905260ff831615156102a257604080518082019091526002548152600354602082015261029b908990899089908561062a565b91506102c9565b604080518082019091526002548152600354602082015261029b9089908990899085610724565b509695505050505050565b6000806000806102e2611632565b6102ea611632565b60408051808201825260025481526003546020808301919091528251808401909352600454835260055490830152610328918b918b918b9190610839565b815160209283015182519290930151909c929b50909950975095505050505050565b600060ff8216151561039b5760408051808201825260025481526003546020808301919091528251808401909352600454835260055490830152610394918791879187919061062a565b90506103d9565b604080518082018252600254815260035460208083019190915282518084019093526004548352600554908301526103949187918791879190610724565b949350505050565b6103e96105a5565b151561043f576040805160e560020a62461bcd02815260206004820181905260248201527f4f776e61626c653a2063616c6c6572206973206e6f7420746865206f776e6572604482015290519081900360640190fd5b60008054604051600160a060020a03909116907f8be0079c531659141344cd1fd0a4f28419497f9722a3daafe3b4186f6b6457e0908390a36000805473ffffffffffffffffffffffffffffffffffffffff19169055565b6000806000806104a4611632565b6104ac611632565b6104b4611632565b6040805180820182528a815260208082018b9052825180840190935260025483526003549083015293506104ee908d908d908d9087610839565b915091506104fb82610965565b5090508061050881610965565b825160209384015182519290940151909e939d50909b50995090975050505050505050565b6105356105a5565b151561058b576040805160e560020a62461bcd02815260206004820181905260248201527f4f776e61626c653a2063616c6c6572206973206e6f7420746865206f776e6572604482015290519081900360640190fd5b600491909155600555565b600054600160a060020a031690565b600054600160a060020a0316331490565b6004546005549091565b6105c86105a5565b151561061e576040805160e560020a62461bcd02815260206004820181905260248201527f4f776e61626c653a2063616c6c6572206973206e6f7420746865206f776e6572604482015290519081900360640190fd5b61062781610bf0565b50565b6000610634611632565b61063c611632565b610644611632565b61064c611632565b6106598a8a8a8a8a610839565b9350935061066684610965565b935061067183610965565b92506106928460408051908101604052808d81526020016001815250610bc7565b93506106b38360408051908101604052808c81526020016001815250610bc7565b92506106d58760408051908101604052808b8152602001600154815250610bc7565b91506106e86106e383610cde565b610d59565b91506106f48383610bc7565b90506107008482610d7f565b90508060200151816000015181151561071557fe5b059a9950505050505050505050565b600061072e611632565b610736611632565b61073e611632565b610746611632565b6107538a8a8a8a8a610839565b9350935061076084610965565b935061076b83610965565b925061078d604080519081016040528060018152602001600181525085610d7f565b93506107af604080519081016040528060018152602001600181525084610d7f565b92506107d08460408051908101604052808d81526020016001815250610bc7565b93506107f18360408051908101604052808c81526020016001815250610bc7565b92506108138760408051908101604052808b8152602001600154815250610bc7565b91506108216106e383610cde565b915061082d8383610bc7565b90506107008185610d7f565b610841611632565b610849611632565b610851611632565b610859611632565b610861611632565b610869611632565b610871611632565b610879611632565b6108828d610da1565b955061088d8c610da1565b94506108998686610d7f565b93506108a5898a610bc7565b92506108c7836040805190810160405280600181526020016002815250610bc7565b92506108d3838b610ddb565b92506108f58360408051908101604052808e8152602001600154815250610bc7565b92506109018484610ddb565b935061093961093360408051908101604052808e6402540be4000281526020016001546402540be40002815250610dfd565b8a610bc7565b91506109458483610e56565b93506109518483610d7f565b939d939c50929a5050505050505050505050565b61096d611632565b6000610977611632565b61097f611649565b610987611632565b61098f611632565b610997611632565b61099f611632565b6109a7611632565b60006109b28b610e78565b985088156109c6576109c38b610e8b565b9a505b60408051808201825262235883815262989680602080830191909152825160e0810184526301e7566960a082019081526305f5e10060c0830152815283518085018552631540bb45198152633b9aca008184018190528284019190915284518086018652636a2f323181528084018290528286015284518086018652636c8e292919815280840182905260608301528451808601909552634f4a607d855291840191909152608081019290925298509650610a818b89610bc7565b9550610aa3866040805190810160405280600181526020016001815250610ddb565b9550610aae86610d59565b95506040805190810160405280680229a4c508a92ae7d1815260200168056bc75e2d631000008152509450610ae38b8c610bc7565b9350610b0684604080519081016040528060001981526020016002815250610bc7565b9350610b1184610cde565b9350610b1d8585610bc7565b935060408051908101604052806000815260200160018152509250859150600090505b6005811015610b8257610b6c83610b67898460058110610b5c57fe5b602002015185610bc7565b610ddb565b9250610b788287610bc7565b9150600101610b40565b610b8c8484610bc7565b9350881515610bb857610bb5604080519081016040528060018152602001600181525085610d7f565b93505b50919998505050505050505050565b610bcf611632565b610be9610bdb84610ec2565b610be484610ec2565b610f68565b9392505050565b600160a060020a0381161515610c76576040805160e560020a62461bcd02815260206004820152602660248201527f4f776e61626c653a206e6577206f776e657220697320746865207a65726f206160448201527f6464726573730000000000000000000000000000000000000000000000000000606482015290519081900360840190fd5b60008054604051600160a060020a03808516939216917f8be0079c531659141344cd1fd0a4f28419497f9722a3daafe3b4186f6b6457e091a36000805473ffffffffffffffffffffffffffffffffffffffff1916600160a060020a0392909216919091179055565b610ce6611632565b6000610cf0611632565b610cf984610e78565b91508115610d0d57610d0a84610e8b565b93505b835164010000000002845260408051808201909152602085015185518291610d3e91811515610d3857fe5b05610f96565b815264010000000060209091015290508115610be9576103d9815b610d61611632565b50604080518082019091526020808301518252825190820152919050565b610d87611632565b610be9610d9384610ec2565b610d9c84610ec2565b610fb6565b610da9611632565b604080518082019091526401000000009092029180610dc784610ff2565b815264010000000060209091015292915050565b610de3611632565b610be9610def84610ec2565b610df884610ec2565b611029565b610e05611632565b8151600013801590610e1c57506000826020015112155b1515610e2457fe5b6040805190810160405280610e3c8460000151611062565b8152602001610e4e8460200151611062565b905292915050565b610e5e611632565b610be9610e6a84610ec2565b610e7384610ec2565b61109d565b6020810151905160009182139113141590565b610e93611632565b815160001315610ea557815160000382525b600082602001511215610ebe5760208201805160000390525b5090565b610eca611632565b6000806000610edc85600001516110cb565b9250610eeb85602001516110cb565b915082821315610f33576c8fffffffffffffffffffffffff821315610f2e576c8fffffffffffffffffffffffff825b059050610f2785826110e1565b9350610f60565b610f5c565b6c8fffffffffffffffffffffffff831315610f5c576c8fffffffffffffffffffffffff83610f1a565b8493505b505050919050565b610f70611632565b506040805180820190915281518351028152602091820151928201519092029082015290565b600064386bfdba29821115610fa757fe5b610fb082611122565b92915050565b610fbe611632565b5060408051808201909152602080840180518451858401805188519290930291909202038452519051029082015292915050565b60008064010000000083101561100457fe5b61100d836115aa565b67010000000000000066b17217f7d1cf78909102049392505050565b611031611632565b5060408051808201909152602080840180518451858401805188510291909202018452519051029082015292915050565b80600260018201045b8181101561109757809150600281828581151561108457fe5b040181151561108f57fe5b04905061106b565b50919050565b6110a5611632565b506040805180820190915260208281015184510282529151928201519092029082015290565b60008082126110da5781610fb0565b5060000390565b6110e9611632565b604080519081016040528083856000015181151561110357fe5b05815260200183856020015181151561111857fe5b0590529392505050565b6000806000602060ff1660019060020a029150816fde1bc4d19efcac82445da75b00000000029050602060ff168483029060020a90049150816fde1bc4d19efcb00000000000000000000281019050602060ff168483029060020a90049150816f6f0de268cf7e580000000000000000000281019050602060ff168483029060020a90049150816f2504a0cd9a7f720000000000000000000281019050602060ff168483029060020a90049150816f09412833669fdc8000000000000000000281019050602060ff168483029060020a90049150816f01d9d4d714865f5000000000000000000281019050602060ff168483029060020a90049150816e4ef8ce836bba8c00000000000000000281019050602060ff168483029060020a90049150816e0b481d807d1aa680000000000000000281019050602060ff168483029060020a90049150816e016903b00fa354d0000000000000000281019050602060ff168483029060020a90049150816d281cdaac677b34000000000000000281019050602060ff168483029060020a90049150816d0402e2aad725eb800000000000000281019050602060ff168483029060020a90049150816c5d5a6c9f31fe240000000000000281019050602060ff168483029060020a90049150816c07c7890d442a830000000000000281019050602060ff168483029060020a90049150816b9931ed5403452800000000000281019050602060ff168483029060020a90049150816b0af147cf24ce1500000000000281019050602060ff168483029060020a90049150816abac08546b867d0000000000281019050602060ff168483029060020a90049150816a0bac08546b867d000000000281019050602060ff168483029060020a900491508169afc441338061b80000000281019050602060ff168483029060020a90049150816909c3cabbc0056e0000000281019050602060ff168483029060020a900491508168839168328705c800000281019050602060ff168483029060020a9004915081680694120286c04a00000281019050602060ff168483029060020a90049150816750319e98b3d2c4000281019050602060ff168483029060020a90049150816703a52a1e36b820200281019050602060ff168483029060020a900491508166289286e0fce0020281019050602060ff168483029060020a90049150816601b0c59eb534000281019050602060ff168483029060020a900491508165114f95b554000281019050602060ff168483029060020a900491508164aa7210d2000281019050602060ff168483029060020a90049150816406501396000281019050602060ff168483029060020a90049150816339b78e800281019050602060ff168483029060020a90049150816301fd80800281019050602060ff168483029060020a90049150816210fbc00281019050602060ff168483029060020a9004915081618c400281019050602060ff168483029060020a90049150816104620281019050602060ff168483029060020a9004915081602202810190506fde1bc4d19efcac82445da75b00000000818115156115a157fe5b04949350505050565b600080806401000000008410156115bd57fe5b600091505b64020000000084106115e45760029093049264010000000091909101906115c2565b5060005b602060ff8216101561162b576401000000008480020493506402000000008410611623576002938490049360ff601f83900316900a91909101905b6001016115e8565b5092915050565b604080518082019091526000808252602082015290565b610140604051908101604052806005905b611662611632565b81526020019060019003908161165a57905050905600a165627a7a72305820214e97148179a53adf0cc620ff5fa76f4da01d4b950cc2ad55dcfa5f39abd1a40029",
  "source": "pragma solidity ^0.4.26;\r\n\r\nimport \"./optionsPrice.sol\";\r\ncontract OptionsPriceTest is OptionsPrice{\r\n    function testCalculateD1D2(uint256 currentPrice, uint256 strikePrice, uint256 expiration)\r\n        public view returns(int256,int256,int256,int256){\r\n        (Fraction.fractionNumber memory d1, Fraction.fractionNumber memory d2) = calculateD1D2(currentPrice,strikePrice,expiration,rate,iv);\r\n        return (d1.numerator,d1.denominator,d2.numerator,d2.denominator);\r\n    }\r\n    function testCalculateND(uint256 currentPrice, uint256 strikePrice, uint256 expiration,uint256 ivNumerator,uint256 ivDenominator)\r\n        public view returns(int256,int256,int256,int256){\r\n        Fraction.fractionNumber memory _iv = Fraction.fractionNumber(int256(ivNumerator),int256(ivDenominator));\r\n       (Fraction.fractionNumber memory d1, Fraction.fractionNumber memory d2) = calculateD1D2(currentPrice, strikePrice, expiration, rate, _iv);\r\n        d1 = Fraction.normsDist(d1);\r\n        d1 = d2;\r\n        d2 = Fraction.normsDist(d2);\r\n        return(d1.numerator,d1.denominator,d2.numerator,d2.denominator);\r\n        d1 = Fraction.safeFractionMul(d1, Fraction.fractionNumber(int256(currentPrice),1));\r\n        d2 = Fraction.safeFractionMul(d2, Fraction.fractionNumber(int256(strikePrice),1));\r\n//        Fraction.fractionNumber memory rt = Fraction.safeFractionMul(rate,Fraction.fractionNumber(int256(expiration),int256(Year)));\r\n//        d2 = Fraction.safeFractionMul(d2,Fraction.invert(Fraction.fractionExp(rt)));\r\n//        d1 = Fraction.safeFractionSub(d1, d2);\r\n        return(d1.numerator,d1.denominator,d2.numerator,d2.denominator);\r\n//        return uint256(price.numerator/price.denominator);\r\n    }\r\n}",
  "sourcePath": "C:\\work\\solidity\\FinnexusOptions_V2\\contracts\\optionsPriceTest.sol",
  "compiler": {
    "name": "solc",
    "version": "0.4.26+commit.4563c3fc.Emscripten.clang"
  },
  "schemaVersion": "3.1.0",
  "updatedAt": "2020-07-17T09:23:18.678Z",
  "networkType": "ethereum",
  "devdoc": {
    "methods": {
      "isOwner()": {
        "details": "Returns true if the caller is the current owner."
      },
      "owner()": {
        "details": "Returns the address of the current owner."
      },
      "renounceOwnership()": {
        "details": "Leaves the contract without owner. It will not be possible to call `onlyOwner` functions anymore. Can only be called by the current owner.     * NOTE: Renouncing ownership will leave the contract without an owner, thereby removing any functionality that is only available to the owner."
      },
      "transferOwnership(address)": {
        "details": "Transfers ownership of the contract to a new account (`newOwner`). Can only be called by the current owner."
      }
    }
  },
  "userdoc": {
    "methods": {}
  }
}