{
  "contractName": "OptionsPriceTest",
  "abi": [
    {
      "inputs": [
        {
          "internalType": "address",
          "name": "ivContract",
          "type": "address"
        }
      ],
      "payable": false,
      "stateMutability": "nonpayable",
      "type": "constructor"
    },
    {
      "anonymous": false,
      "inputs": [
        {
          "indexed": true,
          "internalType": "address",
          "name": "previousOwner",
          "type": "address"
        },
        {
          "indexed": true,
          "internalType": "address",
          "name": "newOwner",
          "type": "address"
        }
      ],
      "name": "OwnershipTransferred",
      "type": "event"
    },
    {
      "constant": true,
      "inputs": [],
      "name": "getRate",
      "outputs": [
        {
          "internalType": "int256",
          "name": "",
          "type": "int256"
        },
        {
          "internalType": "int256",
          "name": "",
          "type": "int256"
        }
      ],
      "payable": false,
      "stateMutability": "view",
      "type": "function"
    },
    {
      "constant": true,
      "inputs": [],
      "name": "getVolatilityAddress",
      "outputs": [
        {
          "internalType": "address",
          "name": "",
          "type": "address"
        }
      ],
      "payable": false,
      "stateMutability": "view",
      "type": "function"
    },
    {
      "constant": true,
      "inputs": [],
      "name": "isOwner",
      "outputs": [
        {
          "internalType": "bool",
          "name": "",
          "type": "bool"
        }
      ],
      "payable": false,
      "stateMutability": "view",
      "type": "function"
    },
    {
      "constant": true,
      "inputs": [],
      "name": "owner",
      "outputs": [
        {
          "internalType": "address",
          "name": "",
          "type": "address"
        }
      ],
      "payable": false,
      "stateMutability": "view",
      "type": "function"
    },
    {
      "constant": false,
      "inputs": [],
      "name": "renounceOwnership",
      "outputs": [],
      "payable": false,
      "stateMutability": "nonpayable",
      "type": "function"
    },
    {
      "constant": false,
      "inputs": [
        {
          "internalType": "int256",
          "name": "numerator",
          "type": "int256"
        },
        {
          "internalType": "int256",
          "name": "denominator",
          "type": "int256"
        }
      ],
      "name": "setRate",
      "outputs": [],
      "payable": false,
      "stateMutability": "nonpayable",
      "type": "function"
    },
    {
      "constant": false,
      "inputs": [
        {
          "internalType": "address",
          "name": "volatility",
          "type": "address"
        }
      ],
      "name": "setVolatilityAddress",
      "outputs": [],
      "payable": false,
      "stateMutability": "nonpayable",
      "type": "function"
    },
    {
      "constant": false,
      "inputs": [
        {
          "internalType": "address",
          "name": "newOwner",
          "type": "address"
        }
      ],
      "name": "transferOwnership",
      "outputs": [],
      "payable": false,
      "stateMutability": "nonpayable",
      "type": "function"
    },
    {
      "constant": false,
      "inputs": [
        {
          "internalType": "uint256",
          "name": "zoom",
          "type": "uint256"
        }
      ],
      "name": "setExpirationZoom",
      "outputs": [],
      "payable": false,
      "stateMutability": "nonpayable",
      "type": "function"
    },
    {
      "constant": true,
      "inputs": [
        {
          "internalType": "uint256",
          "name": "currentPrice",
          "type": "uint256"
        },
        {
          "internalType": "uint256",
          "name": "strikePrice",
          "type": "uint256"
        },
        {
          "internalType": "uint256",
          "name": "expiration",
          "type": "uint256"
        },
        {
          "internalType": "uint256",
          "name": "ivNumerator",
          "type": "uint256"
        },
        {
          "internalType": "uint256",
          "name": "ivDenominator",
          "type": "uint256"
        }
      ],
      "name": "testCalculateD1D2_iv",
      "outputs": [
        {
          "internalType": "int256",
          "name": "",
          "type": "int256"
        },
        {
          "internalType": "int256",
          "name": "",
          "type": "int256"
        },
        {
          "internalType": "int256",
          "name": "",
          "type": "int256"
        },
        {
          "internalType": "int256",
          "name": "",
          "type": "int256"
        }
      ],
      "payable": false,
      "stateMutability": "view",
      "type": "function"
    },
    {
      "constant": true,
      "inputs": [
        {
          "internalType": "uint256",
          "name": "currentPrice",
          "type": "uint256"
        },
        {
          "internalType": "uint256",
          "name": "strikePrice",
          "type": "uint256"
        },
        {
          "internalType": "uint256",
          "name": "expiration",
          "type": "uint256"
        },
        {
          "internalType": "uint256",
          "name": "ivNumerator",
          "type": "uint256"
        },
        {
          "internalType": "uint256",
          "name": "ivDenominator",
          "type": "uint256"
        }
      ],
      "name": "testCalculateND1ND2_iv",
      "outputs": [
        {
          "internalType": "int256",
          "name": "",
          "type": "int256"
        },
        {
          "internalType": "int256",
          "name": "",
          "type": "int256"
        },
        {
          "internalType": "int256",
          "name": "",
          "type": "int256"
        },
        {
          "internalType": "int256",
          "name": "",
          "type": "int256"
        }
      ],
      "payable": false,
      "stateMutability": "view",
      "type": "function"
    },
    {
      "constant": true,
      "inputs": [
        {
          "internalType": "uint256",
          "name": "currentPrice",
          "type": "uint256"
        },
        {
          "internalType": "uint256",
          "name": "strikePrice",
          "type": "uint256"
        },
        {
          "internalType": "uint256",
          "name": "expiration",
          "type": "uint256"
        },
        {
          "internalType": "uint32",
          "name": "underlying",
          "type": "uint32"
        },
        {
          "internalType": "uint8",
          "name": "optType",
          "type": "uint8"
        }
      ],
      "name": "getOptionsPrice",
      "outputs": [
        {
          "internalType": "uint256",
          "name": "",
          "type": "uint256"
        }
      ],
      "payable": false,
      "stateMutability": "view",
      "type": "function"
    },
    {
      "constant": true,
      "inputs": [
        {
          "internalType": "uint256",
          "name": "currentPrice",
          "type": "uint256"
        },
        {
          "internalType": "uint256",
          "name": "strikePrice",
          "type": "uint256"
        },
        {
          "internalType": "uint256",
          "name": "expiration",
          "type": "uint256"
        },
        {
          "internalType": "uint256",
          "name": "ivNumerator",
          "type": "uint256"
        },
        {
          "internalType": "uint256",
          "name": "ivDenominator",
          "type": "uint256"
        },
        {
          "internalType": "uint8",
          "name": "optType",
          "type": "uint8"
        }
      ],
      "name": "getOptionsPrice_iv",
      "outputs": [
        {
          "internalType": "uint256",
          "name": "",
          "type": "uint256"
        }
      ],
      "payable": false,
      "stateMutability": "view",
      "type": "function"
    }
  ],
  "bytecode": "0x60c0604052600060808190526103e860a0819052600291909155600355600160045534801561002d57600080fd5b5060405162001c7c38038062001c7c8339818101604052602081101561005257600080fd5b505160008054600160a060020a03191633178082556040518392600160a060020a039290921691907f8be0079c531659141344cd1fd0a4f28419497f9722a3daafe3b4186f6b6457e0908290a36100b1816401000000006100b8810204565b5050610167565b6100c9640100000000610156810204565b61013457604080517f08c379a000000000000000000000000000000000000000000000000000000000815260206004820181905260248201527f4f776e61626c653a2063616c6c6572206973206e6f7420746865206f776e6572604482015290519081900360640190fd5b60018054600160a060020a031916600160a060020a0392909216919091179055565b600054600160a060020a0316331490565b611b0580620001776000396000f3fe608060405234801561001057600080fd5b50600436106100ec576000357c010000000000000000000000000000000000000000000000000000000090048063715018a6116100a95780638f32d59b116100835780638f32d59b1461028c578063bfe402f4146102a8578063c6dfbc86146102cb578063f2fde38b146102e8576100ec565b8063715018a614610247578063800fb27a1461024f5780638da5cb5b14610284576100ec565b806301b7bc2c146100f1578063055ef6ab1461014c5780632967eafe1461019c57806342e5479d146101c45780634b7d8e5c146101e8578063679aefce14610226575b600080fd5b610126600480360360a081101561010757600080fd5b508035906020810135906040810135906060810135906080013561030e565b604080519485526020850193909352838301919091526060830152519081900360800190f35b61018a600480360360c081101561016257600080fd5b5080359060208101359060408101359060608101359060808101359060a0013560ff166103a7565b60408051918252519081900360200190f35b6101c2600480360360208110156101b257600080fd5b5035600160a060020a03166103cb565b005b6101cc610444565b60408051600160a060020a039092168252519081900360200190f35b61018a600480360360a08110156101fe57600080fd5b50803590602081013590604081013590606081013563ffffffff16906080013560ff16610453565b61022e610475565b6040805192835260208301919091528051918290030190f35b6101c261047f565b610126600480360360a081101561026557600080fd5b5080359060208101359060408101359060608101359060800135610520565b6101cc6105a1565b6102946105b0565b604080519115158252519081900360200190f35b6101c2600480360360408110156102be57600080fd5b50803590602001356105c1565b6101c2600480360360208110156102e157600080fd5b5035610616565b6101c2600480360360208110156102fe57600080fd5b5035600160a060020a031661061b565b60008060008061031c611a12565b604051806040016040528088815260200187815250905061033b611a12565b610343611a12565b604080518082019091526002548152600354602082015261036a908d908d908d9087610671565b91509150610377826107b2565b9150610382816107b2565b825160209384015182519290940151909e939d50909b50995090975050505050505050565b6000600454850294506103be878787878787610a06565b90505b9695505050505050565b6103d36105b0565b610415576040805160e560020a62461bcd0281526020600482018190526024820152600080516020611a80833981519152604482015290519081900360640190fd5b6001805473ffffffffffffffffffffffffffffffffffffffff1916600160a060020a0392909216919091179055565b600154600160a060020a031690565b6000600454840293506104698686868686610adf565b90505b95945050505050565b6002546003549091565b6104876105b0565b6104c9576040805160e560020a62461bcd0281526020600482018190526024820152600080516020611a80833981519152604482015290519081900360640190fd5b60008054604051600160a060020a03909116907f8be0079c531659141344cd1fd0a4f28419497f9722a3daafe3b4186f6b6457e0908390a36000805473ffffffffffffffffffffffffffffffffffffffff19169055565b60008060008061052e611a12565b604051806040016040528088815260200187815250905061054d611a12565b610555611a12565b604080518082019091526002548152600354602082015261057c908d908d908d9087610671565b815160209283015182519290930151909f929e50909c509a5098505050505050505050565b600054600160a060020a031690565b600054600160a060020a0316331490565b6105c96105b0565b61060b576040805160e560020a62461bcd0281526020600482018190526024820152600080516020611a80833981519152604482015290519081900360640190fd5b600291909155600355565b600455565b6106236105b0565b610665576040805160e560020a62461bcd0281526020600482018190526024820152600080516020611a80833981519152604482015290519081900360640190fd5b61066e81610c7c565b50565b610679611a12565b610681611a12565b610689611a12565b8688146106b6576106b161069c88610d2c565b6106a58a610d2c565b9063ffffffff610d6616565b6106ce565b60405180604001604052806000815260200160018152505b90506106d8611a12565b6106e8858063ffffffff610d8716565b60208101805160020290529050610705818763ffffffff610d9c16565b905061073260405180604001604052808981526020016301e1338081525082610d8790919063ffffffff16565b9050610744828263ffffffff610d9c16565b915061077e8560405180604001604052806107658b6402540be40002610db1565b8152632178ddce6020909101529063ffffffff610d8716565b9050610790828263ffffffff610de816565b91506107a2828263ffffffff610d6616565b9199919850909650505050505050565b6107ba611a12565b60006107c583610dfd565b905080156107d9576107d683610e10565b92505b600083602001518460000151816107ec57fe5b059050600a81131561083a5781610819576040518060400160405280600181526020016001815250610831565b60405180604001604052806000815260200160018152505b92505050610a01565b610842611a2c565b506040805160e0810182526301e7566960a082019081526305f5e10060c0830152815281518083018352631540bb45198152633b9aca0060208281018290528084019290925283518085018552636a2f323181528083018290528385015283518085018552636c8e292919815280830182905260608401528351808501909452634f4a607d84529083015260808101919091526108dd611a12565b61090186604051806040016040528062235883815260200162989680815250610d87565b60208101518151018152905061091681610e47565b90506109228687610d87565b602081018051600119029052955061093986610e6d565b955061096b6040518060400160405280680229a4c508a92ae7d1815260200168056bc75e2d6310000081525087610d87565b9550610975611a12565b50604080518082019091526000815260016020820152610993611a12565b508160005b60058110156109da576109c4836109bf8784600581106109b457fe5b602002015185610d87565b610d9c565b92506109d08285610d87565b9150600101610998565b506109e58883610d87565b9750856109f757875160208901510388525b8796505050505050505b919050565b6000610a10611a12565b50604080518082019091528481526020810184905260ff8316610a5c576040805180820190915260025481526003546020820152610a549089908990899085610ece565b9150506103c1565b8260ff1660011415610a8f576040805180820190915260025481526003546020820152610a549089908990899085610fa2565b60028360ff1610610ad45760405160e560020a62461bcd028152600401808060200182810382526031815260200180611aa06031913960400191505060405180910390fd5b509695505050505050565b600154604080517f185d123200000000000000000000000000000000000000000000000000000000815263ffffffff8516600482015260ff84166024820152604481018690526064810188905260848101879052815160009384938493600160a060020a039092169263185d12329260a4808201939291829003018186803b158015610b6a57600080fd5b505afa158015610b7e573d6000803e3d6000fd5b505050506040513d6040811015610b9457600080fd5b5080516020909101519092509050610baa611a12565b50604080518082019091528281526020810182905260ff8516610bf8576040805180820190915260025481526003546020820152610bee908a908a908a9085610ece565b935050505061046c565b8460ff1660011415610c2b576040805180820190915260025481526003546020820152610bee908a908a908a9085610fa2565b60028560ff1610610c705760405160e560020a62461bcd028152600401808060200182810382526031815260200180611aa06031913960400191505060405180910390fd5b50505095945050505050565b600160a060020a038116610cc45760405160e560020a62461bcd028152600401808060200182810382526026815260200180611a5a6026913960400191505060405180910390fd5b60008054604051600160a060020a03808516939216917f8be0079c531659141344cd1fd0a4f28419497f9722a3daafe3b4186f6b6457e091a36000805473ffffffffffffffffffffffffffffffffffffffff1916600160a060020a0392909216919091179055565b610d34611a12565b604080518082019091526401000000009092029180610d5284611054565b815264010000000060209091015292915050565b610d6e611a12565b610d80610d7b84846110da565b611116565b9392505050565b610d8f611a12565b610d80610d7b84846111cd565b610da4611a12565b610d80610d7b84846111fb565b80600260018201045b81811015610de257809150600281828581610dd157fe5b040181610dda57fe5b049050610dba565b50919050565b610df0611a12565b610d80610d7b8484611234565b6020810151905160009182139113141590565b610e18611a12565b815160001315610e2a57815160000382525b600082602001511215610e435760208201805160000390525b5090565b610e4f611a12565b50604080518082019091526020808301518252825190820152919050565b610e75611a12565b6000610e8083610dfd565b90508015610e9457610e9183610e10565b92505b610e9d83611116565b80516401000000000281529250610eb383611262565b92508015610ec757610ec483610e47565b92505b5090919050565b6000610ed8611a12565b610ee0611a12565b610eed8888888888610671565b91509150610efa826107b2565b9150610f05816107b2565b8251890283528051880281528551909150610f3157610f2a828263ffffffff610d6616565b9150610f87565b604080518082019091528681526301e133806020820152610f5990869063ffffffff610d8716565b9450610f84610f77610f6a87610e6d565b839063ffffffff610de816565b839063ffffffff610d6616565b91505b6020820151825181610f9557fe5b0598975050505050505050565b6000610fac611a12565b610fb4611a12565b610fc18888888888610671565b91509150610fce826107b2565b9150610fd9816107b2565b8251602080850151919091038a0284528151908201510388028152855190915061100d57610f2a818363ffffffff610d6616565b604080518082019091528681526301e13380602082015261103590869063ffffffff610d8716565b9450610f84826106a561104788610e6d565b849063ffffffff610de816565b60006401000000008210156110b3576040805160e560020a62461bcd02815260206004820181905260248201527f6c6f67652066756e6374696f6e20696e70757420697320746f6f20736d616c6c604482015290519081900360640190fd5b60006110be83611335565b67010000000000000066b17217f7d1cf78909102049392505050565b6110e2611a12565b5060408051808201909152602080840180518451858401805188519290930291909202038452519051029082015292915050565b61111e611a12565b60008083600001511215611136578251600003611139565b82515b90506000808460200151121561115657836020015160000361115c565b83602001515b9050818113156111a5576f010000000000000000000000000000008113156111a0576050815b60029190910a60008083129003918218041891506108318483611402565b6111c5565b6f010000000000000000000000000000008213156111c557605082611182565b509192915050565b6111d5611a12565b506040805180820190915281518351028152602091820151928201519092029082015290565b611203611a12565b5060408051808201909152602080840180518451858401805188510291909202018452519051029082015292915050565b61123c611a12565b506040805180820190915260208281015184510282529151928201519092029082015290565b61126a611a12565b6000826020015183600001518161127d57fe5b05905064386bfdba2981111561130a57611295611a12565b604051806040016040528060028660000151816112ae57fe5b05815260208681015191015290506112c4611a12565b506040805180820190915281518551038152602080860151908201526112e982611262565b91506112f481611262565b90506113008282610d87565b9350505050610a01565b604051806040016040528061131e8361149a565b81526401000000006020909101529150610a019050565b6000640100000000821015611394576040805160e560020a62461bcd02815260206004820152601760248201527f4c6f673220696e70757420697320746f6f20736d616c6c000000000000000000604482015290519081900360640190fd5b60005b64020000000083106113b55760029092049164010000000001611397565b60005b602060ff821610156113fb5764010000000084800204935064020000000084106113f3576002938490049360ff601f83900316900a91909101905b6001016113b8565b5092915050565b61140a611a12565b81836020015113611465576040805160e560020a62461bcd02815260206004820152601b60248201527f6672616374696f6e206e756d626572206973206f766572666c6f770000000000604482015290519081900360640190fd5b60405180604001604052808385600001518161147d57fe5b0581526020018385602001518161149057fe5b0590529392505050565b600064386bfdba298211156114f9576040805160e560020a62461bcd02815260206004820152601e60248201527f6578702066756e6374696f6e20696e707574206973206f766572666c6f770000604482015290519081900360640190fd5b61150282611508565b92915050565b600080602060ff1660019060020a0290506000816fde1bc4d19efcac82445da75b00000000029050602060ff16848302908060020a82049150509150816fde1bc4d19efcb00000000000000000000281019050602060ff16848302908060020a82049150509150816f6f0de268cf7e580000000000000000000281019050602060ff16848302908060020a82049150509150816f2504a0cd9a7f720000000000000000000281019050602060ff16848302908060020a82049150509150816f09412833669fdc8000000000000000000281019050602060ff16848302908060020a82049150509150816f01d9d4d714865f5000000000000000000281019050602060ff16848302908060020a82049150509150816e4ef8ce836bba8c00000000000000000281019050602060ff16848302908060020a82049150509150816e0b481d807d1aa680000000000000000281019050602060ff16848302908060020a82049150509150816e016903b00fa354d0000000000000000281019050602060ff16848302908060020a82049150509150816d281cdaac677b34000000000000000281019050602060ff16848302908060020a82049150509150816d0402e2aad725eb800000000000000281019050602060ff16848302908060020a82049150509150816c5d5a6c9f31fe240000000000000281019050602060ff16848302908060020a82049150509150816c07c7890d442a830000000000000281019050602060ff16848302908060020a82049150509150816b9931ed5403452800000000000281019050602060ff16848302908060020a82049150509150816b0af147cf24ce1500000000000281019050602060ff16848302908060020a82049150509150816abac08546b867d0000000000281019050602060ff16848302908060020a82049150509150816a0bac08546b867d000000000281019050602060ff16848302908060020a820491505091508169afc441338061b80000000281019050602060ff16848302908060020a82049150509150816909c3cabbc0056e0000000281019050602060ff16848302908060020a820491505091508168839168328705c800000281019050602060ff16848302908060020a8204915050915081680694120286c04a00000281019050602060ff16848302908060020a82049150509150816750319e98b3d2c4000281019050602060ff16848302908060020a82049150509150816703a52a1e36b820200281019050602060ff16848302908060020a820491505091508166289286e0fce0020281019050602060ff16848302908060020a82049150509150816601b0c59eb534000281019050602060ff16848302908060020a820491505091508165114f95b554000281019050602060ff16848302908060020a820491505091508164aa7210d2000281019050602060ff16848302908060020a82049150509150816406501396000281019050602060ff16848302908060020a82049150509150816339b78e800281019050602060ff16848302908060020a82049150509150816301fd80800281019050602060ff16848302908060020a82049150509150816210fbc00281019050602060ff16848302908060020a8204915050915081618c400281019050602060ff16848302908060020a82049150509150816104620281019050602060ff16848302908060020a8204915050915081602202810190506fde1bc4d19efcac82445da75b000000008181611a0957fe5b04949350505050565b604051806040016040528060008152602001600081525090565b6040518060a001604052806005905b611a43611a12565b815260200190600190039081611a3b579050509056fe4f776e61626c653a206e6577206f776e657220697320746865207a65726f20616464726573734f776e61626c653a2063616c6c6572206973206e6f7420746865206f776e6572204d75737420696e707574203020666f722063616c6c206f7074696f6e206f72203120666f7220707574206f7074696f6ea265627a7a723158204954abe45440301350e1058d734e06eb17a2783d410920a24fa598ad30bc9ab064736f6c63430005100032",
  "source": "pragma solidity =0.5.16;\nimport \"../optionsPrice.sol\";\ncontract OptionsPriceTest is OptionsPrice{\n    uint256 expirationZoom = 1;\n    constructor (address ivContract) OptionsPrice(ivContract) public{\n    }\n    function setExpirationZoom(uint256 zoom) public{\n        expirationZoom = zoom;\n    }\n    function testCalculateD1D2_iv(uint256 currentPrice, uint256 strikePrice, uint256 expiration,uint256 ivNumerator,uint256 ivDenominator)\n        public view returns(int256,int256,int256,int256){\n        Fraction.fractionNumber memory _iv = Fraction.fractionNumber(int256(ivNumerator),int256(ivDenominator));\n        (Fraction.fractionNumber memory d1, Fraction.fractionNumber memory d2) = calculateD1D2(currentPrice,strikePrice,expiration,rate,_iv);\n        return (d1.numerator,d1.denominator,d2.numerator,d2.denominator);\n    }\n    function testCalculateND1ND2_iv(uint256 currentPrice, uint256 strikePrice, uint256 expiration,uint256 ivNumerator,uint256 ivDenominator)\n        public view returns(int256,int256,int256,int256){\n        Fraction.fractionNumber memory _iv = Fraction.fractionNumber(int256(ivNumerator),int256(ivDenominator));\n        (Fraction.fractionNumber memory d1, Fraction.fractionNumber memory d2) = calculateD1D2(currentPrice,strikePrice,expiration,rate,_iv);\n        d1 = d1.normsDist();\n        d2 = d2.normsDist();\n        return (d1.numerator,d1.denominator,d2.numerator,d2.denominator);\n    }\n        /**\n     * @dev calculate option's price using B_S formulas\n     * @param currentPrice current underlying price.\n     * @param strikePrice option's strike price.\n     * @param expiration option's expiration left time. Equal option's expiration timestamp - now.\n     * @param underlying option's underlying id, 1 for BTC, 2 for ETH.\n     * @param optType option's type, 0 for CALL, 2 for PUT.\n     */\n    function getOptionsPrice(uint256 currentPrice, uint256 strikePrice, uint256 expiration,uint32 underlying,uint8 optType)public view returns (uint256){\n        expiration = expiration * expirationZoom;\n        return OptionsPrice.getOptionsPrice(currentPrice,strikePrice,expiration,underlying,optType);\n    }\n    /**\n     * @dev calculate option's price using B_S formulas with user input iv.\n     * @param currentPrice current underlying price.\n     * @param strikePrice option's strike price.\n     * @param expiration option's expiration left time. Equal option's expiration timestamp - now.\n     * @param ivNumerator user input iv numerator.\n     * @param ivDenominator user input iv denominator.\n     * @param optType option's type, 0 for CALL, 2 for PUT.\n     */\n    function getOptionsPrice_iv(uint256 currentPrice, uint256 strikePrice, uint256 expiration,\n            uint256 ivNumerator,uint256 ivDenominator,uint8 optType)public view returns (uint256){\n                expiration = expiration * expirationZoom;\n        return OptionsPrice.getOptionsPrice_iv(currentPrice,strikePrice,expiration,ivNumerator,ivDenominator,optType);\n    }\n}",
  "sourcePath": "/home/jqg/FinnexusOptions_V2/contracts/test/optionsPriceTest.sol",
  "compiler": {
    "name": "solc",
    "version": "0.5.16+commit.9c3226ce.Emscripten.clang"
  },
  "schemaVersion": "3.2.4",
  "updatedAt": "2020-09-09T03:13:04.532Z",
  "devdoc": {
    "methods": {
      "getOptionsPrice(uint256,uint256,uint256,uint32,uint8)": {
        "details": "calculate option's price using B_S formulas",
        "params": {
          "currentPrice": "current underlying price.",
          "expiration": "option's expiration left time. Equal option's expiration timestamp - now.",
          "optType": "option's type, 0 for CALL, 2 for PUT.",
          "strikePrice": "option's strike price.",
          "underlying": "option's underlying id, 1 for BTC, 2 for ETH."
        }
      },
      "getOptionsPrice_iv(uint256,uint256,uint256,uint256,uint256,uint8)": {
        "details": "calculate option's price using B_S formulas with user input iv.",
        "params": {
          "currentPrice": "current underlying price.",
          "expiration": "option's expiration left time. Equal option's expiration timestamp - now.",
          "ivDenominator": "user input iv denominator.",
          "ivNumerator": "user input iv numerator.",
          "optType": "option's type, 0 for CALL, 2 for PUT.",
          "strikePrice": "option's strike price."
        }
      },
      "getRate()": {
        "details": "get B_S formulas r"
      },
      "isOwner()": {
        "details": "Returns true if the caller is the current owner."
      },
      "owner()": {
        "details": "Returns the address of the current owner."
      },
      "renounceOwnership()": {
        "details": "Leaves the contract without owner. It will not be possible to call `onlyOwner` functions anymore. Can only be called by the current owner.     * NOTE: Renouncing ownership will leave the contract without an owner, thereby removing any functionality that is only available to the owner."
      },
      "setRate(int256,int256)": {
        "details": "set B_S formulas r"
      },
      "transferOwnership(address)": {
        "details": "Transfers ownership of the contract to a new account (`newOwner`). Can only be called by the current owner."
      }
    }
  },
  "userdoc": {
    "methods": {}
  }
}