{
  "contractName": "OptionsPool",
  "abi": [
    {
      "constant": true,
      "inputs": [],
      "name": "lastCalBlock_share",
      "outputs": [
        {
          "name": "",
          "type": "uint256"
        }
      ],
      "payable": false,
      "stateMutability": "view",
      "type": "function"
    },
    {
      "constant": true,
      "inputs": [],
      "name": "lastCallOption",
      "outputs": [
        {
          "name": "",
          "type": "uint256"
        }
      ],
      "payable": false,
      "stateMutability": "view",
      "type": "function"
    },
    {
      "constant": true,
      "inputs": [],
      "name": "sharedPhase",
      "outputs": [
        {
          "name": "",
          "type": "uint32"
        }
      ],
      "payable": false,
      "stateMutability": "view",
      "type": "function"
    },
    {
      "constant": false,
      "inputs": [
        {
          "name": "volatility",
          "type": "address"
        }
      ],
      "name": "setVolatilityAddress",
      "outputs": [],
      "payable": false,
      "stateMutability": "nonpayable",
      "type": "function"
    },
    {
      "constant": true,
      "inputs": [],
      "name": "getUnderlyingAssets",
      "outputs": [
        {
          "name": "",
          "type": "uint32[]"
        }
      ],
      "payable": false,
      "stateMutability": "view",
      "type": "function"
    },
    {
      "constant": true,
      "inputs": [
        {
          "name": "",
          "type": "uint256"
        }
      ],
      "name": "expirationList",
      "outputs": [
        {
          "name": "",
          "type": "uint256"
        }
      ],
      "payable": false,
      "stateMutability": "view",
      "type": "function"
    },
    {
      "constant": true,
      "inputs": [
        {
          "name": "",
          "type": "uint256"
        }
      ],
      "name": "underlyingAssets",
      "outputs": [
        {
          "name": "",
          "type": "uint32"
        }
      ],
      "payable": false,
      "stateMutability": "view",
      "type": "function"
    },
    {
      "constant": true,
      "inputs": [],
      "name": "getVolatilityAddress",
      "outputs": [
        {
          "name": "",
          "type": "address"
        }
      ],
      "payable": false,
      "stateMutability": "view",
      "type": "function"
    },
    {
      "constant": false,
      "inputs": [
        {
          "name": "oracle",
          "type": "address"
        }
      ],
      "name": "setOracleAddress",
      "outputs": [],
      "payable": false,
      "stateMutability": "nonpayable",
      "type": "function"
    },
    {
      "constant": true,
      "inputs": [
        {
          "name": "",
          "type": "address"
        },
        {
          "name": "",
          "type": "uint256"
        }
      ],
      "name": "optionsBalances",
      "outputs": [
        {
          "name": "",
          "type": "uint256"
        }
      ],
      "payable": false,
      "stateMutability": "view",
      "type": "function"
    },
    {
      "constant": true,
      "inputs": [],
      "name": "getOptionsPriceAddress",
      "outputs": [
        {
          "name": "",
          "type": "address"
        }
      ],
      "payable": false,
      "stateMutability": "view",
      "type": "function"
    },
    {
      "constant": true,
      "inputs": [],
      "name": "firstOption_share",
      "outputs": [
        {
          "name": "",
          "type": "uint256"
        }
      ],
      "payable": false,
      "stateMutability": "view",
      "type": "function"
    },
    {
      "constant": false,
      "inputs": [],
      "name": "renounceOwnership",
      "outputs": [],
      "payable": false,
      "stateMutability": "nonpayable",
      "type": "function"
    },
    {
      "constant": true,
      "inputs": [],
      "name": "lastCalBlock",
      "outputs": [
        {
          "name": "",
          "type": "uint256"
        }
      ],
      "payable": false,
      "stateMutability": "view",
      "type": "function"
    },
    {
      "constant": true,
      "inputs": [],
      "name": "owner",
      "outputs": [
        {
          "name": "",
          "type": "address"
        }
      ],
      "payable": false,
      "stateMutability": "view",
      "type": "function"
    },
    {
      "constant": true,
      "inputs": [
        {
          "name": "",
          "type": "uint256"
        }
      ],
      "name": "allOptions",
      "outputs": [
        {
          "name": "optionID",
          "type": "uint256"
        },
        {
          "name": "owner",
          "type": "address"
        },
        {
          "name": "optType",
          "type": "uint8"
        },
        {
          "name": "underlying",
          "type": "uint32"
        },
        {
          "name": "expiration",
          "type": "uint256"
        },
        {
          "name": "strikePrice",
          "type": "uint256"
        },
        {
          "name": "amount",
          "type": "uint256"
        }
      ],
      "payable": false,
      "stateMutability": "view",
      "type": "function"
    },
    {
      "constant": true,
      "inputs": [],
      "name": "isOwner",
      "outputs": [
        {
          "name": "",
          "type": "bool"
        }
      ],
      "payable": false,
      "stateMutability": "view",
      "type": "function"
    },
    {
      "constant": false,
      "inputs": [
        {
          "name": "optionsPrice",
          "type": "address"
        }
      ],
      "name": "setOptionsPriceAddress",
      "outputs": [],
      "payable": false,
      "stateMutability": "nonpayable",
      "type": "function"
    },
    {
      "constant": true,
      "inputs": [
        {
          "name": "",
          "type": "uint256"
        },
        {
          "name": "",
          "type": "uint256"
        },
        {
          "name": "",
          "type": "uint256"
        }
      ],
      "name": "burnBlockOptions",
      "outputs": [
        {
          "name": "",
          "type": "uint256"
        }
      ],
      "payable": false,
      "stateMutability": "view",
      "type": "function"
    },
    {
      "constant": false,
      "inputs": [
        {
          "name": "underlying",
          "type": "uint32"
        }
      ],
      "name": "addUnderlyingAsset",
      "outputs": [],
      "payable": false,
      "stateMutability": "nonpayable",
      "type": "function"
    },
    {
      "constant": true,
      "inputs": [],
      "name": "getOracleAddress",
      "outputs": [
        {
          "name": "",
          "type": "address"
        }
      ],
      "payable": false,
      "stateMutability": "view",
      "type": "function"
    },
    {
      "constant": true,
      "inputs": [],
      "name": "optionPhase",
      "outputs": [
        {
          "name": "",
          "type": "uint32"
        }
      ],
      "payable": false,
      "stateMutability": "view",
      "type": "function"
    },
    {
      "constant": false,
      "inputs": [
        {
          "name": "managerAddress",
          "type": "address"
        }
      ],
      "name": "setManager",
      "outputs": [],
      "payable": false,
      "stateMutability": "nonpayable",
      "type": "function"
    },
    {
      "constant": true,
      "inputs": [],
      "name": "getManager",
      "outputs": [
        {
          "name": "",
          "type": "address"
        }
      ],
      "payable": false,
      "stateMutability": "view",
      "type": "function"
    },
    {
      "constant": false,
      "inputs": [
        {
          "name": "removeUnderlying",
          "type": "uint32"
        }
      ],
      "name": "removeUnderlyingAssets",
      "outputs": [
        {
          "name": "",
          "type": "bool"
        }
      ],
      "payable": false,
      "stateMutability": "nonpayable",
      "type": "function"
    },
    {
      "constant": true,
      "inputs": [
        {
          "name": "underlying",
          "type": "uint32"
        }
      ],
      "name": "isEligibleUnderlyingAsset",
      "outputs": [
        {
          "name": "",
          "type": "bool"
        }
      ],
      "payable": false,
      "stateMutability": "view",
      "type": "function"
    },
    {
      "constant": true,
      "inputs": [
        {
          "name": "underlying",
          "type": "uint32"
        }
      ],
      "name": "checkUnderlyingAsset",
      "outputs": [],
      "payable": false,
      "stateMutability": "view",
      "type": "function"
    },
    {
      "constant": false,
      "inputs": [
        {
          "name": "newOwner",
          "type": "address"
        }
      ],
      "name": "transferOwnership",
      "outputs": [],
      "payable": false,
      "stateMutability": "nonpayable",
      "type": "function"
    },
    {
      "inputs": [
        {
          "name": "oracleAddr",
          "type": "address"
        },
        {
          "name": "optionsPriceAddr",
          "type": "address"
        },
        {
          "name": "ivAddress",
          "type": "address"
        }
      ],
      "payable": false,
      "stateMutability": "nonpayable",
      "type": "constructor"
    },
    {
      "anonymous": false,
      "inputs": [
        {
          "indexed": true,
          "name": "owner",
          "type": "address"
        },
        {
          "indexed": true,
          "name": "optionID",
          "type": "uint256"
        },
        {
          "indexed": false,
          "name": "optType",
          "type": "uint8"
        },
        {
          "indexed": false,
          "name": "underlying",
          "type": "uint32"
        },
        {
          "indexed": false,
          "name": "expiration",
          "type": "uint256"
        },
        {
          "indexed": false,
          "name": "strikePrice",
          "type": "uint256"
        },
        {
          "indexed": false,
          "name": "amount",
          "type": "uint256"
        }
      ],
      "name": "CreateOption",
      "type": "event"
    },
    {
      "anonymous": false,
      "inputs": [
        {
          "indexed": true,
          "name": "owner",
          "type": "address"
        },
        {
          "indexed": true,
          "name": "optionID",
          "type": "uint256"
        },
        {
          "indexed": false,
          "name": "amount",
          "type": "uint256"
        }
      ],
      "name": "BurnOption",
      "type": "event"
    },
    {
      "anonymous": false,
      "inputs": [
        {
          "indexed": true,
          "name": "previousOwner",
          "type": "address"
        },
        {
          "indexed": true,
          "name": "newOwner",
          "type": "address"
        }
      ],
      "name": "OwnershipTransferred",
      "type": "event"
    },
    {
      "constant": true,
      "inputs": [
        {
          "name": "user",
          "type": "address"
        }
      ],
      "name": "getOptionBalances",
      "outputs": [
        {
          "name": "",
          "type": "uint256[]"
        }
      ],
      "payable": false,
      "stateMutability": "view",
      "type": "function"
    },
    {
      "constant": true,
      "inputs": [
        {
          "name": "from",
          "type": "uint256"
        },
        {
          "name": "size",
          "type": "uint256"
        }
      ],
      "name": "getOptionInfoList",
      "outputs": [
        {
          "name": "",
          "type": "address[]"
        },
        {
          "name": "",
          "type": "uint256[]"
        },
        {
          "name": "",
          "type": "uint256[]"
        },
        {
          "name": "",
          "type": "uint256[]"
        },
        {
          "name": "",
          "type": "uint256[]"
        }
      ],
      "payable": false,
      "stateMutability": "view",
      "type": "function"
    },
    {
      "constant": true,
      "inputs": [
        {
          "name": "ids",
          "type": "uint256[]"
        }
      ],
      "name": "getOptionInfoListFromID",
      "outputs": [
        {
          "name": "",
          "type": "address[]"
        },
        {
          "name": "",
          "type": "uint256[]"
        },
        {
          "name": "",
          "type": "uint256[]"
        },
        {
          "name": "",
          "type": "uint256[]"
        },
        {
          "name": "",
          "type": "uint256[]"
        }
      ],
      "payable": false,
      "stateMutability": "view",
      "type": "function"
    },
    {
      "constant": true,
      "inputs": [],
      "name": "getLatestOption",
      "outputs": [
        {
          "name": "",
          "type": "uint256"
        },
        {
          "name": "",
          "type": "address"
        },
        {
          "name": "",
          "type": "uint8"
        },
        {
          "name": "",
          "type": "uint32"
        },
        {
          "name": "",
          "type": "uint256"
        },
        {
          "name": "",
          "type": "uint256"
        },
        {
          "name": "",
          "type": "uint256"
        }
      ],
      "payable": false,
      "stateMutability": "view",
      "type": "function"
    },
    {
      "constant": true,
      "inputs": [
        {
          "name": "optionsId",
          "type": "uint256"
        }
      ],
      "name": "getOptionsById",
      "outputs": [
        {
          "name": "",
          "type": "uint256"
        },
        {
          "name": "",
          "type": "address"
        },
        {
          "name": "",
          "type": "uint8"
        },
        {
          "name": "",
          "type": "uint32"
        },
        {
          "name": "",
          "type": "uint256"
        },
        {
          "name": "",
          "type": "uint256"
        },
        {
          "name": "",
          "type": "uint256"
        }
      ],
      "payable": false,
      "stateMutability": "view",
      "type": "function"
    },
    {
      "constant": false,
      "inputs": [
        {
          "name": "index",
          "type": "uint256"
        }
      ],
      "name": "setPhaseOccupiedCollateral",
      "outputs": [],
      "payable": false,
      "stateMutability": "nonpayable",
      "type": "function"
    },
    {
      "constant": false,
      "inputs": [
        {
          "name": "index",
          "type": "uint256"
        },
        {
          "name": "totalOccupied",
          "type": "uint256"
        },
        {
          "name": "beginOption",
          "type": "uint256"
        },
        {
          "name": "lastOption",
          "type": "uint256"
        },
        {
          "name": "lastBlock",
          "type": "uint256"
        }
      ],
      "name": "setCollateralPhase",
      "outputs": [],
      "payable": false,
      "stateMutability": "nonpayable",
      "type": "function"
    },
    {
      "constant": true,
      "inputs": [
        {
          "name": "index",
          "type": "uint256"
        }
      ],
      "name": "calculatePhaseOccupiedCollateral",
      "outputs": [
        {
          "name": "",
          "type": "uint256"
        },
        {
          "name": "",
          "type": "uint256"
        },
        {
          "name": "",
          "type": "uint256"
        },
        {
          "name": "",
          "type": "uint256"
        }
      ],
      "payable": false,
      "stateMutability": "view",
      "type": "function"
    },
    {
      "constant": false,
      "inputs": [
        {
          "name": "index",
          "type": "uint256"
        },
        {
          "name": "_firstOption",
          "type": "uint256"
        },
        {
          "name": "lastBlock",
          "type": "uint256"
        },
        {
          "name": "calTime",
          "type": "uint256"
        }
      ],
      "name": "setSharedState",
      "outputs": [],
      "payable": false,
      "stateMutability": "nonpayable",
      "type": "function"
    },
    {
      "constant": true,
      "inputs": [
        {
          "name": "index",
          "type": "uint256"
        },
        {
          "name": "whiteList",
          "type": "address[]"
        }
      ],
      "name": "calculatePhaseSharedPayment",
      "outputs": [
        {
          "name": "",
          "type": "uint256[]"
        },
        {
          "name": "",
          "type": "uint256"
        },
        {
          "name": "",
          "type": "uint256"
        }
      ],
      "payable": false,
      "stateMutability": "view",
      "type": "function"
    },
    {
      "constant": true,
      "inputs": [
        {
          "name": "beginIndex",
          "type": "uint256"
        },
        {
          "name": "endIndex",
          "type": "uint256"
        },
        {
          "name": "preTime",
          "type": "uint256"
        },
        {
          "name": "whiteList",
          "type": "address[]"
        },
        {
          "name": "totalSharedPayment",
          "type": "uint256[]"
        }
      ],
      "name": "_calBurnedSharePrice",
      "outputs": [
        {
          "name": "",
          "type": "uint256[]"
        }
      ],
      "payable": false,
      "stateMutability": "view",
      "type": "function"
    },
    {
      "constant": false,
      "inputs": [
        {
          "name": "from",
          "type": "address"
        },
        {
          "name": "optType",
          "type": "uint8"
        },
        {
          "name": "underlying",
          "type": "uint32"
        },
        {
          "name": "expiration",
          "type": "uint256"
        },
        {
          "name": "strikePrice",
          "type": "uint256"
        },
        {
          "name": "amount",
          "type": "uint256"
        },
        {
          "name": "settlement",
          "type": "address"
        }
      ],
      "name": "createOptions",
      "outputs": [
        {
          "name": "",
          "type": "uint256"
        }
      ],
      "payable": false,
      "stateMutability": "nonpayable",
      "type": "function"
    },
    {
      "constant": true,
      "inputs": [],
      "name": "getTotalOccupiedCollateral",
      "outputs": [
        {
          "name": "",
          "type": "uint256"
        }
      ],
      "payable": false,
      "stateMutability": "view",
      "type": "function"
    },
    {
      "constant": false,
      "inputs": [
        {
          "name": "from",
          "type": "address"
        },
        {
          "name": "id",
          "type": "uint256"
        },
        {
          "name": "amount",
          "type": "uint256"
        }
      ],
      "name": "burnOptions",
      "outputs": [],
      "payable": false,
      "stateMutability": "nonpayable",
      "type": "function"
    },
    {
      "constant": true,
      "inputs": [
        {
          "name": "optionsId",
          "type": "uint256"
        },
        {
          "name": "amount",
          "type": "uint256"
        }
      ],
      "name": "getExerciseWorth",
      "outputs": [
        {
          "name": "",
          "type": "uint256"
        }
      ],
      "payable": false,
      "stateMutability": "view",
      "type": "function"
    },
    {
      "constant": true,
      "inputs": [
        {
          "name": "expiration",
          "type": "uint256"
        },
        {
          "name": "underlying",
          "type": "uint32"
        }
      ],
      "name": "buyOptionCheck",
      "outputs": [],
      "payable": false,
      "stateMutability": "view",
      "type": "function"
    },
    {
      "constant": false,
      "inputs": [
        {
          "name": "expiration",
          "type": "uint256"
        }
      ],
      "name": "addExpiration",
      "outputs": [],
      "payable": false,
      "stateMutability": "nonpayable",
      "type": "function"
    },
    {
      "constant": false,
      "inputs": [
        {
          "name": "removeExpiration",
          "type": "uint256"
        }
      ],
      "name": "removeExpirationList",
      "outputs": [
        {
          "name": "",
          "type": "bool"
        }
      ],
      "payable": false,
      "stateMutability": "nonpayable",
      "type": "function"
    },
    {
      "constant": true,
      "inputs": [],
      "name": "getExpirationList",
      "outputs": [
        {
          "name": "",
          "type": "uint256[]"
        }
      ],
      "payable": false,
      "stateMutability": "view",
      "type": "function"
    },
    {
      "constant": true,
      "inputs": [
        {
          "name": "expiration",
          "type": "uint256"
        }
      ],
      "name": "isEligibleExpiration",
      "outputs": [
        {
          "name": "",
          "type": "bool"
        }
      ],
      "payable": false,
      "stateMutability": "view",
      "type": "function"
    },
    {
      "constant": true,
      "inputs": [
        {
          "name": "expiration",
          "type": "uint256"
        }
      ],
      "name": "checkExpiration",
      "outputs": [],
      "payable": false,
      "stateMutability": "view",
      "type": "function"
    }
  ],
  "bytecode": "0x6080604052600b80546101f463ffffffff1991821681179092556000600c556010805490911690911790553480156200003757600080fd5b506040516060806200435e83398101604081815282516020840151919093015160008054600160a060020a031916331780825592939192600160a060020a0316917f8be0079c531659141344cd1fd0a4f28419497f9722a3daafe3b4186f6b6457e0908290a3620000b183640100000000620000e2810204565b620000c58264010000000062000174810204565b620000d98164010000000062000206810204565b505050620002a9565b620000f564010000000062000298810204565b15156200015257604080517f08c379a000000000000000000000000000000000000000000000000000000000815260206004820181905260248201526000805160206200433e833981519152604482015290519081900360640190fd5b60038054600160a060020a031916600160a060020a0392909216919091179055565b6200018764010000000062000298810204565b1515620001e457604080517f08c379a000000000000000000000000000000000000000000000000000000000815260206004820181905260248201526000805160206200433e833981519152604482015290519081900360640190fd5b60048054600160a060020a031916600160a060020a0392909216919091179055565b6200021964010000000062000298810204565b15156200027657604080517f08c379a000000000000000000000000000000000000000000000000000000000815260206004820181905260248201526000805160206200433e833981519152604482015290519081900360640190fd5b60058054600160a060020a031916600160a060020a0392909216919091179055565b600054600160a060020a0316331490565b61408580620002b96000396000f3006080604052600436106102375763ffffffff60e060020a6000350416630438d490811461023c578063067b8783146103bf5780630860d37b146103e557806311e6c4a21461040c578063132a56271461047d57806316f35a7f146104925780632967eafe146104c0578063354af360146104e15780633582d7891461053657806336c146f31461054b5780633ad2fb571461056c5780633ad980991461058d5780633b50c4d1146105a557806342e5479d146105bd57806345e19fdd146105ee57806348ee201d1461064a5780634c69c00f1461066257806355c47cb2146106835780635ca4b73b146106a757806367290e0d146106bc57806367b8ceb9146106d1578063715018a6146106ec578063723931ca1461070157806373a3d4241461071957806374e85fd21461072e5780637cfff2d8146107555780637e2eeb7e1461076d5780637e838fa3146107825780638da5cb5b146107ae5780638ea745b8146107c35780638f32d59b146107db5780639052d5f8146107f057806399deae0a146108055780639ef975d214610843578063a093e2d01461085b578063a95c594a1461087c578063ab6071541461089a578063af70df1214610937578063afec82fc146109f3578063b18b78dd14610a11578063b8a5b7fa14610a26578063c27b7dfb14610a3e578063d0ebdbe714610a53578063d500958414610a74578063d665d9a614610a89578063d6d1401214610acd578063db6ad2bd14610aeb578063ee29c94a14610b09578063f2fde38b14610b27575b600080fd5b34801561024857600080fd5b50610257600435602435610b48565b60405180806020018060200180602001806020018060200186810386528b818151815260200191508051906020019060200280838360005b838110156102a757818101518382015260200161028f565b5050505090500186810385528a818151815260200191508051906020019060200280838360005b838110156102e65781810151838201526020016102ce565b50505050905001868103845289818151815260200191508051906020019060200280838360005b8381101561032557818101518382015260200161030d565b50505050905001868103835288818151815260200191508051906020019060200280838360005b8381101561036457818101518382015260200161034c565b50505050905001868103825287818151815260200191508051906020019060200280838360005b838110156103a357818101518382015260200161038b565b505050509050019a505050505050505050505060405180910390f35b3480156103cb57600080fd5b506103e3600435602435604435606435608435610d96565b005b3480156103f157600080fd5b506103fa610e1c565b60408051918252519081900360200190f35b34801561041857600080fd5b5061042d600160a060020a0360043516610e22565b60408051602080825283518183015283519192839290830191858101910280838360005b83811015610469578181015183820152602001610451565b505050509050019250505060405180910390f35b34801561048957600080fd5b506103fa610e8e565b34801561049e57600080fd5b506104a7610e94565b6040805163ffffffff9092168252519081900360200190f35b3480156104cc57600080fd5b506103e3600160a060020a0360043516610ea0565b3480156104ed57600080fd5b506040805160206004803580820135838102808601850190965280855261025795369593946024949385019291829185019084908082843750949750610f0e9650505050505050565b34801561054257600080fd5b5061042d611128565b34801561055757600080fd5b506103e36004356024356044356064356111ad565b34801561057857600080fd5b506103e360043563ffffffff6024351661126c565b34801561059957600080fd5b506103fa6004356112d8565b3480156105b157600080fd5b506104a76004356112f7565b3480156105c957600080fd5b506105d261132f565b60408051600160a060020a039092168252519081900360200190f35b3480156105fa57600080fd5b5061060361133e565b60408051978852600160a060020a03909616602088015260ff9094168686015263ffffffff9092166060860152608085015260a084015260c0830152519081900360e00190f35b34801561065657600080fd5b50610603600435611418565b34801561066e57600080fd5b506103e3600160a060020a036004351661147b565b34801561068f57600080fd5b506103fa600160a060020a03600435166024356114e9565b3480156106b357600080fd5b506105d2611519565b3480156106c857600080fd5b506103fa611528565b3480156106dd57600080fd5b506103fa60043560243561152e565b3480156106f857600080fd5b506103e36116cc565b34801561070d57600080fd5b506103e3600435611762565b34801561072557600080fd5b506103fa6117ea565b34801561073a57600080fd5b506103e3600160a060020a0360043516602435604435611bb2565b34801561076157600080fd5b506103e3600435611d7b565b34801561077957600080fd5b506103fa611dd2565b34801561078e57600080fd5b5061079a600435611dd8565b604080519115158252519081900360200190f35b3480156107ba57600080fd5b506105d2611e37565b3480156107cf57600080fd5b50610603600435611e46565b3480156107e757600080fd5b5061079a611ea6565b3480156107fc57600080fd5b5061042d611eb7565b34801561081157600080fd5b5061081d600435611f0e565b604080519485526020850193909352838301919091526060830152519081900360800190f35b34801561084f57600080fd5b5061079a600435611fd8565b34801561086757600080fd5b506103e3600160a060020a0360043516612034565b34801561088857600080fd5b506103fa6004356024356044356120a2565b3480156108a657600080fd5b50604080516064356004818101356020818102858101820190965281855261042d958335956024803596604435963696909560849592909301929091829185019084908082843750506040805187358901803560208181028481018201909552818452989b9a9989019892975090820195509350839250850190849080828437509497506120e29650505050505050565b34801561094357600080fd5b50604080516020600460248035828101358481028087018601909752808652610991968435963696604495919490910192918291850190849080828437509497506124269650505050505050565b6040518080602001848152602001838152602001828103825285818151815260200191508051906020019060200280838360005b838110156109dd5781810151838201526020016109c5565b5050505090500194505050505060405180910390f35b3480156109ff57600080fd5b506103e363ffffffff600435166124e3565b348015610a1d57600080fd5b506105d261253a565b348015610a3257600080fd5b506103e3600435612549565b348015610a4a57600080fd5b506104a76125c0565b348015610a5f57600080fd5b506103e3600160a060020a03600435166125cc565b348015610a8057600080fd5b506105d261263a565b348015610a9557600080fd5b506103fa600160a060020a0360043581169060ff602435169063ffffffff6044351690606435906084359060a4359060c43516612649565b348015610ad957600080fd5b5061079a63ffffffff60043516612a1c565b348015610af757600080fd5b5061079a63ffffffff60043516612a75565b348015610b1557600080fd5b506103e363ffffffff60043516612afd565b348015610b3357600080fd5b506103e3600160a060020a0360043516612b83565b6060806060806060806060806060806000806006805490508d8f011115610b7f57600654610b7c908f63ffffffff612bd816565b9c505b60008d1115610d85578c604051908082528060200260200182016040528015610bb2578160200160208202803883390190505b5096508c604051908082528060200260200182016040528015610bdf578160200160208202803883390190505b5095508c604051908082528060200260200182016040528015610c0c578160200160208202803883390190505b5094508c604051908082528060200260200182016040528015610c39578160200160208202803883390190505b5093508c604051908082528060200260200182016040528015610c66578160200160208202803883390190505b509250600091505b8c821015610d7557600680548f8401908110610c8657fe5b6000918252602090912060059091020160018101548851919250600160a060020a031690889084908110610cb657fe5b600160a060020a0390921660209283029091019091015260018101548651601060ff60a060020a84048116919091011660020a63ffffffff60a860020a90930483160290911690879084908110610d0957fe5b6020908102909101015260028101548551869084908110610d2657fe5b6020908102909101015260038101548451859084908110610d4357fe5b6020908102909101015260048101548351849084908110610d6057fe5b60209081029091010152600190910190610c6e565b86868686869b509b509b509b509b505b505050505050509295509295909350565b610d9e611ea6565b1515610de2576040805160e560020a62461bcd028152602060048201819052602482015260008051602061403a833981519152604482015290519081900360640190fd5b600c54831115610df257600c8390555b81600d541015610e0757600d829055600e8190555b5050506000918252600f602052604090912055565b60125481565b600160a060020a038116600090815260096020908152604091829020805483518184028101840190945280845260609392830182828015610e8257602002820191906000526020600020905b815481526020019060010190808311610e6e575b50505050509050919050565b600d5481565b60105463ffffffff1681565b610ea8611ea6565b1515610eec576040805160e560020a62461bcd028152602060048201819052602482015260008051602061403a833981519152604482015290519081900360640190fd5b60058054600160a060020a031916600160a060020a0392909216919091179055565b6060806060806060600060608060608060606000808d51975087604051908082528060200260200182016040528015610f51578160200160208202803883390190505b50965087604051908082528060200260200182016040528015610f7e578160200160208202803883390190505b50955087604051908082528060200260200182016040528015610fab578160200160208202803883390190505b50945087604051908082528060200260200182016040528015610fd8578160200160208202803883390190505b50935087604051908082528060200260200182016040528015611005578160200160208202803883390190505b509250600091505b87821015611114576110358e8381518110151561102657fe5b90602001906020020151612c21565b60018101548851919250600160a060020a03169088908490811061105557fe5b600160a060020a0390921660209283029091019091015260018101548651601060ff60a060020a84048116919091011660020a63ffffffff60a860020a909304831602909116908790849081106110a857fe5b60209081029091010152600281015485518690849081106110c557fe5b60209081029091010152600381015484518590849081106110e257fe5b60209081029091010152600481015483518490849081106110ff57fe5b6020908102909101015260019091019061100d565b50949c939b50919950975095509350505050565b606060018054806020026020016040519081016040528092919081815260200182805480156111a257602002820191906000526020600020906000905b82829054906101000a900463ffffffff1663ffffffff16815260200190600401906020826003010492830192600103820291508084116111655790505b505050505090505b90565b600254600160a060020a03163314611235576040805160e560020a62461bcd02815260206004820152602660248201527f4d616e6167657261626c653a2063616c6c6572206973206e6f7420746865204d60448201527f616e616765720000000000000000000000000000000000000000000000000000606482015290519081900360840190fd5b6011548311156112455760118390555b6012548210156112555760128290555b600093845260146020526040909320929092555050565b61127581612a75565b15156112cb576040805160e560020a62461bcd02815260206004820152601f60248201527f756e6465726c79696e6720697320756e737570706f7274656420617373657400604482015290519081900360640190fd5b6112d482611762565b5050565b600a8054829081106112e657fe5b600091825260209091200154905081565b600180548290811061130557fe5b9060005260206000209060089182820401919006600402915054906101000a900463ffffffff1681565b600554600160a060020a031690565b600654600090819081908190819081908190818082116113a8576040805160e560020a62461bcd02815260206004820152601560248201527f6f7074696f6e73206c69737420697320656d7074790000000000000000000000604482015290519081900360640190fd5b6006805460001984019081106113ba57fe5b600091825260209091206005909102018054600182015460028301546003840154600490940154929d600160a060020a0383169d5060a060020a830460ff169c5060a860020a90920463ffffffff169a509850919650945092505050565b60008060008060008060008061142d89612c21565b8054600182015460028301546003840154600490940154929d600160a060020a0383169d5060a060020a830460ff169c5060a860020a90920463ffffffff169a509850919650945092505050565b611483611ea6565b15156114c7576040805160e560020a62461bcd028152602060048201819052602482015260008051602061403a833981519152604482015290519081900360640190fd5b60038054600160a060020a031916600160a060020a0392909216919091179055565b60096020528160005260406000208181548110151561150457fe5b90600052602060002001600091509150505481565b600454600160a060020a031690565b60115481565b6000611538613f38565b60008061154486612c21565b6040805160e081018252825481526001830154600160a060020a038116602083015260a060020a810460ff169282019290925260a860020a90910463ffffffff16606082015260028201546080820152600382015460a082015260049091015460c082015292506115b483612cb1565b6115be8386612d0c565b6003546060840151604080517fda66325700000000000000000000000000000000000000000000000000000000815263ffffffff909216600483015251600160a060020a039092169163da663257916024808201926020929091908290030181600087803b15801561162f57600080fd5b505af1158015611643573d6000803e3d6000fd5b505050506040513d602081101561165957600080fd5b505160408401519092506000915060ff16151561168a578260a00151821115611685575060a082015181035b6116a0565b8260a001518210156116a057818360a001510390505b8015156116b057600093506116c3565b6116c0818663ffffffff612d6816565b93505b50505092915050565b6116d4611ea6565b1515611718576040805160e560020a62461bcd028152602060048201819052602482015260008051602061403a833981519152604482015290519081900360640190fd5b60008054604051600160a060020a03909116907f8be0079c531659141344cd1fd0a4f28419497f9722a3daafe3b4186f6b6457e0908390a360008054600160a060020a0319169055565b61176b81611fd8565b15156117e7576040805160e560020a62461bcd02815260206004820152602160248201527f65787069726174696f6e2076616c7565206973206e6f7420737570706f72746560448201527f6400000000000000000000000000000000000000000000000000000000000000606482015290519081900360840190fd5b50565b60008060006060600080600080600080600080611805612e12565b600154604080518281526020808402820101909152919c509a508a8015611836578160200160208202803883390190505b509850600097505b8988101561191e5760035460018054600160a060020a039092169163da66325791908b90811061186a57fe5b90600052602060002090600891828204019190066004029054906101000a900463ffffffff166040518263ffffffff1660e060020a028152600401808263ffffffff168152602001915050602060405180830381600087803b1580156118cf57600080fd5b505af11580156118e3573d6000803e3d6000fd5b505050506040513d60208110156118f957600080fd5b505189518a908a90811061190957fe5b6020908102909101015260019097019661183e565b600654600d5490975060010195505b86861015611a375761196e60068781548110151561194757fe5b906000526020600020906005020160010160159054906101000a900463ffffffff16612e93565b9450611a2a611a1d60068881548110151561198557fe5b60009182526020918290206040805160e081018252600593909302909101805483526001810154600160a060020a0381169484019490945260a060020a840460ff169183019190915260a860020a90920463ffffffff16606082015260028201546080820152600382015460a082015260049091015460c08201528b518c9089908110611a0e57fe5b90602001906020020151612f1b565b8c9063ffffffff612f9b16565b9a5060019095019461192d565b600e5460010193508360011415611a50578a9b50611ba4565b438411611ba05760008481526008602052604081208054919950935091505b81881015611b95578288815481101515611a8557fe5b60009182526020822060029091020101549050611aaa60068281548110151561194757fe5b9450611b88611b7b600683815481101515611ac157fe5b60009182526020918290206040805160e081018252600593909302909101805483526001810154600160a060020a0381169484019490945260a060020a840460ff169183019190915260a860020a90920463ffffffff16606082015260028201546080820152600382015460a082015260049091015460c0820152855486908c908110611b4a57fe5b60009182526020909120600290910201600101548c89815181101515611b6c57fe5b90602001906020020151612ff8565b8c9063ffffffff612bd816565b9a50600190970196611a6f565b600190930192611a50565b8a9b505b505050505050505050505090565b611bba613f38565b600254600160a060020a03163314611c42576040805160e560020a62461bcd02815260206004820152602660248201527f4d616e6167657261626c653a2063616c6c6572206973206e6f7420746865204d60448201527f616e616765720000000000000000000000000000000000000000000000000000606482015290519081900360840190fd5b611c4b83612c21565b6040805160e081018252825481526001830154600160a060020a038116602083015260a060020a810460ff169282019290925260a860020a90910463ffffffff16606082015260028201546080820152600382015460a082015260049091015460c08201529050611cbb81612cb1565b611cc58185613049565b611ccf8183612d0c565b60c0810151611ce4908363ffffffff612bd816565b60c082015243600090815260086020908152604080832081518083019092526000198701825281830186905280546001810180835591855292909320611d339260029081029091019190613f88565b50506040805183815290518491600160a060020a038716917f1fb99acdc281bccbecb3d0073a307341181a8a7d3cd532fdaef5ce7200401c2d9181900360200190a350505050565b611d83611ea6565b1515611dc7576040805160e560020a62461bcd028152602060048201819052602482015260008051602061403a833981519152604482015290519081900360640190fd5b6117e7600a826130b8565b600e5481565b6000611de2611ea6565b1515611e26576040805160e560020a62461bcd028152602060048201819052602482015260008051602061403a833981519152604482015290519081900360640190fd5b611e31600a8361312f565b92915050565b600054600160a060020a031690565b6006805482908110611e5457fe5b600091825260209091206005909102018054600182015460028301546003840154600490940154929450600160a060020a0382169360a060020a830460ff169360a860020a90930463ffffffff169287565b600054600160a060020a0316331490565b6060600a8054806020026020016040519081016040528092919081815260200182805480156111a257602002820191906000526020600020905b815481526020019060010190808311611ef1575050505050905090565b600080600080600080600080600080611f48600b60009054906101000a900463ffffffff1663ffffffff168c612d6890919063ffffffff16565b6006549096509450848610611f5c57611fcb565b600b54611f7490879063ffffffff90811690612f9b16565b935084841115611f8657849350611f95565b600c54841015611f9557611fcb565b611f9f86856131dc565b9250925060018403600d5410611fb757600d54611fbc565b600184035b90508282824399509950995099505b5050505050509193509193565b6000611e31600a80548060200260200160405190810160405280929190818152602001828054801561202957602002820191906000526020600020905b815481526020019060010190808311612015575b505050505083613429565b61203c611ea6565b1515612080576040805160e560020a62461bcd028152602060048201819052602482015260008051602061403a833981519152604482015290519081900360640190fd5b60048054600160a060020a031916600160a060020a0392909216919091179055565b6008602052826000526040600020828154811015156120bd57fe5b9060005260206000209060020201816002811015156120d857fe5b0154925083915050565b60606000606060008060008060008060006012546001019850886001141561210c578a9950612414565b43891161241057600089815260086020908152604080832080548251818502810185019093528083529193909284015b8282101561218c5760008481526020902060408051808201918290529160028581029091019182845b8154815260200190600101908083116121655750505050508152602001906001019061213c565b50505050975087519650600095505b86861015612405578e88878151811015156121b257fe5b60209081029190910101515110806121e357508d88878151811015156121d457fe5b60209081029190910101515110155b156121ed576123fa565b600688878151811015156121fd57fe5b6020908102919091010151518154811061221357fe5b90600052602060002090600502019450846002015493508c8410806122515750878681518110151561224157fe5b6020908102919091018101510151155b1561225b576123fa565b60076000898881518110151561226d57fe5b60209081029190910181015151825281810192909252604090810160009081206004805460038b015482840154600585015460018e0154885160e060020a63055ef6ab0281529586018490526024860193909352428d0360448601526064850191909152608484015260a060020a900460ff1660a48301529351919750600160a060020a039093169363055ef6ab9360c480820194929392918390030190829087803b15801561231c57600080fd5b505af1158015612330573d6000803e3d6000fd5b505050506040513d602081101561234657600080fd5b50516003840154895191935061239b9161238f908b908a90811061236657fe5b602090810291909101810151015160028701546123839087612d68565b9063ffffffff612d6816565b9063ffffffff61346816565b60018401549092506123b7908d90600160a060020a03166134aa565b90506123e1828c838151811015156123cb57fe5b602090810290910101519063ffffffff612f9b16565b8b828151811015156123ef57fe5b602090810290910101525b60019095019461219b565b60019098019761210c565b8a99505b50505050505050505095945050505050565b606060008060008060006060600061245f601060009054906101000a900463ffffffff1663ffffffff168b612d6890919063ffffffff16565b6006549095509350838510612473576124d7565b60105461248b90869063ffffffff90811690612f9b16565b92508383111561249d578392506124ac565b6011548310156124ac576124d7565b60008a8152601460205260409020546124c990869085908c6134f7565b915091508181439750975097505b50505050509250925092565b6124eb611ea6565b151561252f576040805160e560020a62461bcd028152602060048201819052602482015260008051602061403a833981519152604482015290519081900360640190fd5b6117e76001826136a0565b600354600160a060020a031690565b600080600080612557611ea6565b151561259b576040805160e560020a62461bcd028152602060048201819052602482015260008051602061403a833981519152604482015290519081900360640190fd5b6125a485611f0e565b93509350935093506125b98585858585610d96565b5050505050565b600b5463ffffffff1681565b6125d4611ea6565b1515612618576040805160e560020a62461bcd028152602060048201819052602482015260008051602061403a833981519152604482015290519081900360640190fd5b60028054600160a060020a031916600160a060020a0392909216919091179055565b600254600160a060020a031690565b6000806000612656613f38565b600254600160a060020a031633146126de576040805160e560020a62461bcd02815260206004820152602660248201527f4d616e6167657261626c653a2063616c6c6572206973206e6f7420746865204d60448201527f616e616765720000000000000000000000000000000000000000000000000000606482015290519081900360840190fd5b600654600354604080517fda66325700000000000000000000000000000000000000000000000000000000815263ffffffff8d1660048201529051929550600160a060020a039091169163da663257916024808201926020929091908290030181600087803b15801561275057600080fd5b505af1158015612764573d6000803e3d6000fd5b505050506040513d602081101561277a57600080fd5b81019080805190602001909291905050509150600660e0604051908101604052808560010181526020018d600160a060020a031681526020018c60ff1681526020018b63ffffffff1681526020018a815260200189815260200188815250908060018154018082558091505090600182039060005260206000209060050201600090919290919091506000820151816000015560208201518160010160006101000a815481600160a060020a030219169083600160a060020a0316021790555060408201518160010160146101000a81548160ff021916908360ff16021790555060608201518160010160156101000a81548163ffffffff021916908363ffffffff1602179055506080820151816002015560a0820151816003015560c08201518160040155505050600960008c600160a060020a0316600160a060020a0316815260200190815260200160002083600101908060018154018082558091505090600182039060005260206000200160009091929091909150555082600014156129085743600e8190556012555b600680548490811061291657fe5b60009182526020918290206040805160e081018252600593909302909101805483526001810154600160a060020a0381169484019490945260a060020a840460ff169183019190915260a860020a90920463ffffffff16606082015260028201546080820152600382015460a082015260049091015460c0820152905061299d8186613769565b6040805160ff8c16815263ffffffff8b1660208201528082018a9052606081018990526080810188905290516001850191600160a060020a038e16917f18f523957030bee670136363e25b2f847bf1bd07bb7b33c6d5475936a9aac70d9181900360a00190a3612a0d8183612f1b565b9b9a5050505050505050505050565b6000612a26611ea6565b1515612a6a576040805160e560020a62461bcd028152602060048201819052602482015260008051602061403a833981519152604482015290519081900360640190fd5b611e316001836139f2565b6000611e316001805480602002602001604051908101604052809291908181526020018280548015612af257602002820191906000526020600020906000905b82829054906101000a900463ffffffff1663ffffffff1681526020019060040190602082600301049283019260010382029150808411612ab55790505b505050505083613ae9565b6117e76001805480602002602001604051908101604052809291908181526020018280548015612b7857602002820191906000526020600020906000905b82829054906101000a900463ffffffff1663ffffffff1681526020019060040190602082600301049283019260010382029150808411612b3b5790505b505050505082613b34565b612b8b611ea6565b1515612bcf576040805160e560020a62461bcd028152602060048201819052602482015260008051602061403a833981519152604482015290519081900360640190fd5b6117e781613b94565b6000612c1a83836040805190810160405280601e81526020017f536166654d6174683a207375627472616374696f6e206f766572666c6f770000815250613c75565b9392505050565b60008082118015612c3457506006548211155b1515612c8a576040805160e560020a62461bcd02815260206004820152601660248201527f6f7074696f6e206964206973206e6f7420657869737400000000000000000000604482015290519081900360640190fd5b600680546000198401908110612c9c57fe5b90600052602060002090600502019050919050565b608081015142106117e7576040805160e560020a62461bcd02815260206004820152601160248201527f6f7074696f6e2069732065787069726564000000000000000000000000000000604482015290519081900360640190fd5b60c08201518111156112d4576040805160e560020a62461bcd02815260206004820152601d60248201527f6f7074696f6e20616d6f756e7420697320696e73756666696369656e74000000604482015290519081900360640190fd5b600080831515612d7b5760009150612e0b565b50828202828482811515612d8b57fe5b0414612e07576040805160e560020a62461bcd02815260206004820152602160248201527f536166654d6174683a206d756c7469706c69636174696f6e206f766572666c6f60448201527f7700000000000000000000000000000000000000000000000000000000000000606482015290519081900360840190fd5b8091505b5092915050565b600b54600c5460009182918291829163ffffffff90911690811515612e3357fe5b600b5460065492909106935063ffffffff1690811515612e4f57fe5b0660010190505b80821015612e8b576000828152600f6020526040902054612e7e90849063ffffffff612f9b16565b9250600190910190612e56565b509092915050565b6000611e316001805480602002602001604051908101604052809291908181526020018280548015612f1057602002820191906000526020600020906000905b82829054906101000a900463ffffffff1663ffffffff1681526020019060040190602082600301049283019260010382029150808411612ed35790505b505050505083613d12565b600080428460800151111580612f33575060c0840151155b15612f415760009150612e0b565b5060a08301516040840151600091841060ff909116151415612f7d5760c084015160a0850151612f769163ffffffff612d6816565b9050612e07565b60c0840151612f9390849063ffffffff612d6816565b949350505050565b600082820183811015612e07576040805160e560020a62461bcd02815260206004820152601b60248201527f536166654d6174683a206164646974696f6e206f766572666c6f770000000000604482015290519081900360640190fd5b60a08301516040840151600091829160ff161590841014156130305760a0850151613029908563ffffffff612d6816565b9050612f93565b613040838563ffffffff612d6816565b95945050505050565b80600160a060020a03168260200151600160a060020a03161415156112d4576040805160e560020a62461bcd02815260206004820152601f60248201527f63616c6c6572206973206e6f7420746865206f7074696f6e73206f776e657200604482015290519081900360640190fd5b6131118280548060200260200160405190810160405280929190818152602001828054801561310657602002820191906000526020600020905b8154815260200190600101908083116130f2575b505050505082613429565b15156112d45781546001810183556000928352602090922090910155565b8154600090815b8181101561316b5783858281548110151561314d57fe5b906000526020600020015414156131635761316b565b600101613136565b818110156131cf57600019820181146131b557846001830381548110151561318f57fe5b906000526020600020015485828154811015156131a857fe5b6000918252602090912001555b84546131c5866000198301613fc6565b50600192506131d4565b600092505b505092915050565b60008060008060006060600080600080600c549750878c11159650861561320157879b505b600154604080518281526020808402820101909152909650868015613230578160200160208202803883390190505b509450600093505b858410156133185760035460018054600160a060020a039092169163da66325791908790811061326457fe5b90600052602060002090600891828204019190066004029054906101000a900463ffffffff166040518263ffffffff1660e060020a028152600401808263ffffffff168152602001915050602060405180830381600087803b1580156132c957600080fd5b505af11580156132dd573d6000803e3d6000fd5b505050506040513d60208110156132f357600080fd5b5051855186908690811061330357fe5b60209081029091010152600190930192613238565b600092505b8a8c101561340d5761333760068d81548110151561194757fe5b91506133d460068d81548110151561334b57fe5b60009182526020918290206040805160e081018252600593909302909101805483526001810154600160a060020a0381169484019490945260a060020a840460ff169183019190915260a860020a90920463ffffffff16606082015260028201546080820152600382015460a082015260049091015460c08201528651879085908110611a0e57fe5b90508680156133e35750600081115b156133f0578b9750600096505b613400838263ffffffff612f9b16565b6001909c019b925061331d565b8615613417578b97505b50909a95995094975050505050505050565b8151600090815b818110156131cf5783858281518110151561344757fe5b90602001906020020151141561346057600192506131d4565b600101613430565b6000612c1a83836040805190810160405280601a81526020017f536166654d6174683a206469766973696f6e206279207a65726f000000000000815250613d59565b8151600090815b81811015612f935783600160a060020a031685828151811015156134d157fe5b90602001906020020151600160a060020a031614156134ef57612f93565b6001016134b1565b60606000806000606060008060008060006011549750878e11159650861561351d57879d505b8a51604051908082528060200260200182016040528015613548578160200160208202803883390190505b5095505b8c8e101561367157600680548f90811061356257fe5b90600052602060002090600502019450846002015493508b84108061358957506004850154155b1561359357613666565b86156135a1578d9750600096505b600760008f815260200190815260200160002092506135e68c8460000154868860030154876004015488600501548b60010160149054906101000a900460ff16613dc5565b91509150808211156136665760018301549181900391613610908c90600160a060020a03166134aa565b9350613639836003015461238f8760040154612383868860020154612d6890919063ffffffff16565b905061364d8187868151811015156123cb57fe5b868581518110151561365b57fe5b602090810290910101525b6001909d019c61354c565b861561367f578d9750600096505b61368c8e8e8e8e8a6120e2565b9e979d50969b505050505050505050505050565b6137258280548060200260200160405190810160405280929190818152602001828054801561371a57602002820191906000526020600020906000905b82829054906101000a900463ffffffff1663ffffffff16815260200190600401906020826003010492830192600103820291508084116136dd5790505b505050505082613ae9565b15156112d4578154600181018355600092835260209092206008830401805460079093166004026101000a63ffffffff818102199094169290931692909202179055565b60a08201516080830151600554604080517fad1bb833000000000000000000000000000000000000000000000000000000008152600481018590524290930360248401819052815190936000938493849384938493600160a060020a03169263ad1bb8339260448084019382900301818787803b1580156137e957600080fd5b505af11580156137fd573d6000803e3d6000fd5b505050506040513d604081101561381357600080fd5b508051602091820151600354604080517f41976e09000000000000000000000000000000000000000000000000000000008152600160a060020a038e811660048301529151949a5092985016926341976e09926024808401938290030181600087803b15801561388257600080fd5b505af1158015613896573d6000803e3d6000fd5b505050506040513d60208110156138ac57600080fd5b5051600480546040808d0151815160e060020a63055ef6ab0281529384018c9052602484018c9052604484018b9052606484018a90526084840189905260ff1660a484015251929550600160a060020a03169163055ef6ab9160c4808201926020929091908290030181600087803b15801561392757600080fd5b505af115801561393b573d6000803e3d6000fd5b505050506040513d602081101561395157600080fd5b50519150613965828463ffffffff61346816565b6040805160c081018252428152600160a060020a039a8b1660208083019182528284019485526060830196875260808301998a5260a083019889529c516000190160009081526007909d5291909b209a518b555160018b018054600160a060020a03191691909a161790985550955160028801555093516003860155516004850155505051600590910155565b8154600090815b81811015613a4d578363ffffffff168582815481101515613a1657fe5b6000918252602090912060088204015460079091166004026101000a900463ffffffff161415613a4557613a4d565b6001016139f9565b818110156131cf5760001982018114613ad9578460018303815481101515613a7157fe5b90600052602060002090600891828204019190066004029054906101000a900463ffffffff168582815481101515613aa557fe5b90600052602060002090600891828204019190066004026101000a81548163ffffffff021916908363ffffffff1602179055505b84546131c5866000198301613fef565b8151600090815b818110156131cf578363ffffffff168582815181101515613b0d57fe5b9060200190602002015163ffffffff161415613b2c57600192506131d4565b600101613af0565b613b3e8282613ae9565b15156112d4576040805160e560020a62461bcd02815260206004820152601f60248201527f77686974654c6973743a207573696e6720696e76616c69642075696e74333200604482015290519081900360640190fd5b600160a060020a0381161515613c1a576040805160e560020a62461bcd02815260206004820152602660248201527f4f776e61626c653a206e6577206f776e657220697320746865207a65726f206160448201527f6464726573730000000000000000000000000000000000000000000000000000606482015290519081900360840190fd5b60008054604051600160a060020a03808516939216917f8be0079c531659141344cd1fd0a4f28419497f9722a3daafe3b4186f6b6457e091a360008054600160a060020a031916600160a060020a0392909216919091179055565b6000808285851115613d085760405160e560020a62461bcd0281526004018080602001828103825283818151815260200191508051906020019080838360005b83811015613ccd578181015183820152602001613cb5565b50505050905090810190601f168015613cfa5780820380516001836020036101000a031916815260200191505b509250505060405180910390fd5b5050509103919050565b8151600090815b81811015612f93578363ffffffff168582815181101515613d3657fe5b9060200190602002015163ffffffff161415613d5157612f93565b600101613d19565b60008082818511613daf5760405160e560020a62461bcd02815260040180806020018281038252838181518152602001915080519060200190808383600083811015613ccd578181015183820152602001613cb5565b508385811515613dbb57fe5b0495945050505050565b60008060008060008a8c11613ddc578a8a03613de0565b8b8a035b600480546040805160e060020a63055ef6ab0281529283018d9052602483018d905260448301849052606483018c9052608483018b905260ff8a1660a484015251929550600160a060020a03169163055ef6ab9160c4808201926020929091908290030181600087803b158015613e5657600080fd5b505af1158015613e6a573d6000803e3d6000fd5b505050506040513d6020811015613e8057600080fd5b5051600480546040805160e060020a63055ef6ab0281529283018d9052602483018d9052428e036044840152606483018c9052608483018b905260ff8a1660a484015251929450600160a060020a03169163055ef6ab9160c4808201926020929091908290030181600087803b158015613ef957600080fd5b505af1158015613f0d573d6000803e3d6000fd5b505050506040513d6020811015613f2357600080fd5b5051919c919b50909950505050505050505050565b60e060405190810160405280600081526020016000600160a060020a03168152602001600060ff168152602001600063ffffffff1681526020016000815260200160008152602001600081525090565b8260028101928215613fb6579160200282015b82811115613fb6578251825591602001919060010190613f9b565b50613fc292915061401f565b5090565b815481835581811115613fea57600083815260209020613fea91810190830161401f565b505050565b815481835581811115613fea576007016008900481600701600890048360005260206000209182019101613fea91905b6111aa91905b80821115613fc2576000815560010161402556004f776e61626c653a2063616c6c6572206973206e6f7420746865206f776e6572a165627a7a723058207281aef2a4f6c4e7088dea3344af0b1f99b74baffb2adb37f00ca8668f79f6f400294f776e61626c653a2063616c6c6572206973206e6f7420746865206f776e6572",
  "source": "pragma solidity ^0.4.26;\r\nimport \"./modules/SafeMath.sol\";\r\nimport \"./modules/Managerable.sol\";\r\nimport \"./interfaces/ICompoundOracle.sol\";\r\nimport \"./modules/underlyingAssets.sol\";\r\nimport \"./interfaces/IOptionsPrice.sol\";\r\nimport \"./interfaces/IVolatility.sol\";\r\ncontract OptionsPool is UnderlyingAssets,Managerable,ImportOracle,ImportOptionsPrice,ImportVolatility {\r\n    \r\n    using SafeMath for uint256;\r\n    struct OptionsInfo {\r\n        uint256     optionID;\r\n        address     owner;\r\n        uint8   \toptType;    //0 for call, 1 for put\r\n        uint32\t\tunderlying;\r\n        uint256\t\texpiration;\r\n        uint256     strikePrice;\r\n        uint256     amount;\r\n    }\r\n\r\n    struct OptionsInfoEx{\r\n        uint256\t\tcreatedTime;\r\n        address     settlement;\r\n        uint256     tokenTimePrice;\r\n        uint256     fullPrice;\r\n        uint256      ivNumerator;\r\n        uint256      ivDenominator;\r\n    }\r\n    //options information\r\n    OptionsInfo[] public allOptions;\r\n    mapping(uint256=>OptionsInfoEx) internal optionExtraMap;\r\n    //each block burn options\r\n    mapping(uint256=>uint256[2][]) public burnBlockOptions;\r\n    //user options balances\r\n    mapping(address=>uint256[]) public optionsBalances;\r\n    //expiration whitelist\r\n    uint256[] public expirationList;\r\n\r\n    //calculate options Collateral occupied phases\r\n    uint32 public optionPhase = 500;\r\n    uint256 internal firstOption = 0;\r\n    uint256 public lastCallOption;\r\n    uint256 public lastCalBlock;\r\n    mapping(uint256=>uint256) internal OptionsPhases;\r\n\r\n    //calculate Options time shared value phasea\r\n    uint32 public sharedPhase = 500;\r\n    uint256 public firstOption_share;\r\n    uint256 public lastCalBlock_share;\r\n    mapping (uint256 =>mapping (address => uint256)) internal OptionsPhaseBalances;\r\n    mapping (uint256 =>uint256) internal OptionsPhaseTimes;\r\n\r\n\r\n    event CreateOption(address indexed owner,uint256 indexed optionID,uint8 optType,uint32 underlying,uint256 expiration,uint256 strikePrice,uint256 amount);\r\n    event BurnOption(address indexed owner,uint256 indexed optionID,uint amount);\r\n    constructor (address oracleAddr,address optionsPriceAddr,address ivAddress) public{\r\n        setOracleAddress(oracleAddr);\r\n        setOptionsPriceAddress(optionsPriceAddr);\r\n        setVolatilityAddress(ivAddress);\r\n    }\r\n    function getOptionBalances(address user)public view returns(uint256[]){\r\n        return optionsBalances[user];\r\n    }\r\n    function getOptionInfoList(uint256 from,uint256 size)public view \r\n                returns(address[],uint256[],uint256[],uint256[],uint256[]){\r\n        if (from+size>allOptions.length){\r\n            size = allOptions.length.sub(from);\r\n        }\r\n        if (size>0){\r\n            address[] memory ownerArr = new address[](size);\r\n            uint256[] memory typeAndUnderArr = new uint256[](size);\r\n            uint256[] memory expArr = new uint256[](size);\r\n            uint256[] memory priceArr = new uint256[](size);\r\n            uint256[] memory amountArr = new uint256[](size);\r\n            for (uint i=0;i<size;i++){\r\n                OptionsInfo storage info = allOptions[from+i];\r\n                ownerArr[i] = info.owner;\r\n                typeAndUnderArr[i] = info.underlying << 16 + info.optType;\r\n                expArr[i] = info.expiration;\r\n                priceArr[i] = info.strikePrice;\r\n                amountArr[i] = info.amount;\r\n            }\r\n            return (ownerArr,typeAndUnderArr,expArr,priceArr,amountArr);\r\n        }\r\n    }\r\n    function getOptionInfoListFromID(uint256[] ids)public view \r\n                returns(address[],uint256[],uint256[],uint256[],uint256[]){\r\n        uint256 size = ids.length;\r\n        address[] memory ownerArr = new address[](size);\r\n        uint256[] memory typeAndUnderArr = new uint256[](size);\r\n        uint256[] memory expArr = new uint256[](size);\r\n        uint256[] memory priceArr = new uint256[](size);\r\n        uint256[] memory amountArr = new uint256[](size);\r\n        for (uint i=0;i<size;i++){\r\n            OptionsInfo storage info = _getOptionsById(ids[i]);\r\n            ownerArr[i] = info.owner;\r\n            typeAndUnderArr[i] = info.underlying << 16 + info.optType;\r\n            expArr[i] = info.expiration;\r\n            priceArr[i] = info.strikePrice;\r\n            amountArr[i] = info.amount;\r\n        }\r\n        return (ownerArr,typeAndUnderArr,expArr,priceArr,amountArr);\r\n    }\r\n    function getLatestOption()public view returns(uint256,address,uint8,uint32,uint256,uint256,uint256){\r\n        uint256 len = allOptions.length;\r\n        require(len>0,\"options list is empty\");\r\n        OptionsInfo storage info = allOptions[len-1];\r\n        return (info.optionID,info.owner,info.optType,info.underlying,info.expiration,info.strikePrice,info.amount);\r\n    }\r\n\r\n    function getOptionsById(uint256 optionsId)public view returns(uint256,address,uint8,uint32,uint256,uint256,uint256){\r\n        OptionsInfo storage info = _getOptionsById(optionsId);\r\n        return (info.optionID,info.owner,info.optType,info.underlying,info.expiration,info.strikePrice,info.amount);\r\n    }\r\n\r\n    function setPhaseOccupiedCollateral(uint256 index) public onlyOwner {\r\n        (uint256 totalOccupied,uint256 beginOption,uint256 lastOption,uint256 blockNum) = calculatePhaseOccupiedCollateral(index);\r\n        setCollateralPhase(index,totalOccupied,beginOption,lastOption,blockNum);\r\n    }\r\n    function setCollateralPhase(uint256 index,uint256 totalOccupied,uint256 beginOption,uint256 lastOption,uint256 lastBlock) public onlyOwner{\r\n        if (beginOption > firstOption){\r\n            firstOption = beginOption;\r\n        }\r\n        if(lastCallOption < lastOption){\r\n            lastCallOption = lastOption;\r\n            lastCalBlock = lastBlock;\r\n        }\r\n        OptionsPhases[index] = totalOccupied;\r\n    }\r\n    function calculatePhaseOccupiedCollateral(uint256 index) public view returns(uint256,uint256,uint256,uint256){\r\n        uint256 beginOption = index.mul(optionPhase);\r\n        uint256 allLen = allOptions.length;\r\n        if (beginOption>=allLen){\r\n            return;\r\n        }\r\n        uint256 lastOption = beginOption.add(optionPhase);\r\n        if (lastOption>allLen) {\r\n            lastOption = allLen;\r\n        }else if(lastOption < firstOption){\r\n            return;\r\n        }\r\n        (uint256 totalOccupied,uint256 newFirstOption) = _calculateOccupiedCollateral(beginOption,lastOption);\r\n        uint256 last = lastCallOption<lastOption-1 ? lastOption-1 : lastCallOption;\r\n        return (totalOccupied,newFirstOption,last,block.number);\r\n    }\r\n    function _calculateOccupiedCollateral(uint256 begin,uint256 end)internal view returns(uint256,uint256){\r\n        uint256 newFirstOption = firstOption;\r\n        bool bfirstPhase = begin <= newFirstOption;\r\n        if (bfirstPhase) {\r\n            begin = newFirstOption;\r\n        }\r\n        uint256 underlyingLen = underlyingAssets.length;\r\n        uint256[] memory prices = new uint256[](underlyingLen);\r\n        for (uint256 i = 0;i<underlyingLen;i++){\r\n            prices[i] = _oracle.getUnderlyingPrice(underlyingAssets[i]);\r\n        }\r\n        uint256 totalOccupied = 0;\r\n        for (;begin<end;begin++){\r\n            uint256 index = _getEligibleUnderlyingIndex(allOptions[begin].underlying);\r\n            uint256 value = calOptionsCollateral(allOptions[begin],prices[index]);\r\n            if (bfirstPhase && value > 0){\r\n                newFirstOption = begin;\r\n                bfirstPhase = false;\r\n            }\r\n            totalOccupied = totalOccupied.add(value);\r\n        }\r\n        //all options in this phase are empty;\r\n        if (bfirstPhase){\r\n            newFirstOption = begin;\r\n        }\r\n        return (totalOccupied,newFirstOption);\r\n    }\r\n    function setSharedState(uint256 index,uint256 _firstOption,uint256 lastBlock,uint256 calTime) public onlyManager{\r\n        if (_firstOption > firstOption_share){\r\n            firstOption_share = _firstOption;\r\n        }\r\n        if(lastBlock < lastCalBlock_share){\r\n            lastCalBlock_share = lastBlock;\r\n        }\r\n        OptionsPhaseTimes[index] = calTime;\r\n    }\r\n    function calculatePhaseSharedPayment(uint256 index,address[] whiteList) public view returns(uint256[],uint256,uint256){\r\n        uint256 beginOption = index.mul(sharedPhase);\r\n        uint256 allLen = allOptions.length;\r\n        if (beginOption>=allLen){\r\n            return;\r\n        }\r\n        uint256 lastOption = beginOption.add(sharedPhase);\r\n        if (lastOption>allLen) {\r\n            lastOption = allLen;\r\n        }else if(lastOption < firstOption_share){\r\n            return;\r\n        }\r\n        (uint256[] memory sharedBalances,uint256 _firstOption) = _calculateSharedPayment(beginOption,lastOption,OptionsPhaseTimes[index],whiteList);\r\n        return (sharedBalances,_firstOption,block.number);\r\n    }\r\n    function _calculateSharedPayment(uint256 begin,uint256 end,uint256 preTime,address[] whiteList)internal view returns(uint256[],uint256){\r\n        uint256 newFirstOption = firstOption_share;\r\n        bool bfirstPhase = begin <= newFirstOption;\r\n        if (bfirstPhase) {\r\n            begin = newFirstOption;\r\n        }\r\n        uint256[] memory totalSharedPayment = new uint256[](whiteList.length);\r\n        for (;begin<end;begin++){\r\n            OptionsInfo storage info = allOptions[begin];\r\n            uint256 tempValue = info.expiration;\r\n            if(tempValue<preTime || info.amount == 0){\r\n                continue;\r\n            }\r\n            if(bfirstPhase){\r\n                newFirstOption = begin;\r\n                bfirstPhase = false;\r\n            }\r\n            OptionsInfoEx storage optionEx = optionExtraMap[begin];\r\n            (uint256 preValue,uint256 nowValue) = _calculateTimePrice(preTime,optionEx.createdTime,tempValue,info.strikePrice,\r\n                    optionEx.ivNumerator,optionEx.ivDenominator,info.optType);\r\n            if (preValue > nowValue){\r\n                preValue = preValue - nowValue;\r\n                tempValue = whiteListAddress._getEligibleIndexAddress(whiteList,optionEx.settlement);\r\n                nowValue = optionEx.tokenTimePrice.mul((preValue)).mul(info.amount).div(optionEx.fullPrice);\r\n                totalSharedPayment[tempValue] = totalSharedPayment[tempValue].add(nowValue);\r\n            }\r\n        }\r\n        //all options in this phase are empty;\r\n        if(bfirstPhase){\r\n            newFirstOption = begin;\r\n            bfirstPhase = false;\r\n        }\r\n        //burned\r\n        return (_calBurnedSharePrice(begin,end,preTime,whiteList,totalSharedPayment),newFirstOption);\r\n    }\r\n    function _calBurnedSharePrice(uint256 beginIndex,uint256 endIndex,uint256 preTime,address[] whiteList,uint256[] memory totalSharedPayment)public view returns(uint256[]){\r\n        uint256 beginBlock = lastCalBlock_share+1;\r\n        if (beginBlock == 1){\r\n            return totalSharedPayment;\r\n        }\r\n        for (; beginBlock <= block.number;beginBlock++){\r\n            uint256[2][] memory burnedTokens = burnBlockOptions[beginBlock];\r\n            uint burnedLen = burnedTokens.length;\r\n            for (uint256 i = 0;i<burnedLen;i++){\r\n                if(burnedTokens[i][0]<beginIndex || burnedTokens[i][0] >=endIndex){\r\n                   continue;\r\n                }\r\n                OptionsInfo storage info = allOptions[burnedTokens[i][0]];\r\n                uint256 expiration = info.expiration;\r\n                if(expiration<preTime || burnedTokens[i][1] == 0){\r\n                    continue;\r\n                }\r\n                OptionsInfoEx storage optionEx = optionExtraMap[burnedTokens[i][0]];\r\n                uint256 nowValue = _optionsPrice.getOptionsPrice_iv(info.strikePrice,info.strikePrice,expiration-now,optionEx.ivNumerator,\r\n                    optionEx.ivDenominator,info.optType);\r\n                nowValue = optionEx.tokenTimePrice.mul(nowValue).mul(burnedTokens[i][1]).div(optionEx.fullPrice);\r\n                uint256 index = whiteListAddress._getEligibleIndexAddress(whiteList,optionEx.settlement);\r\n                totalSharedPayment[index] = totalSharedPayment[index].add(nowValue);\r\n            }\r\n        }       \r\n        return totalSharedPayment;\r\n    }\r\n    function _calculateTimePrice(uint256 preTime,uint256 createdTime,uint256 expiration,\r\n            uint256 strikePrice,uint256 ivNumerator,uint256 ivDenominator,uint8 optType)internal view returns (uint256,uint256){\r\n        uint256 preExpiration = preTime>createdTime ? expiration - preTime : expiration - createdTime;\r\n        uint256 preValue = _optionsPrice.getOptionsPrice_iv(strikePrice,strikePrice,preExpiration,ivNumerator,\r\n            ivDenominator,optType);\r\n        uint256 nowValue = _optionsPrice.getOptionsPrice_iv(strikePrice,strikePrice,expiration-now,ivNumerator,\r\n            ivDenominator,optType);\r\n        return (preValue,nowValue);\r\n    }\r\n    function createOptions(address from,uint8 optType,uint32 underlying,uint256 expiration,uint256 strikePrice,\r\n        uint256 amount,address settlement) onlyManager public returns (uint256) {\r\n        uint256 optionID = allOptions.length;\r\n        uint256 underlyingPrice =  _oracle.getUnderlyingPrice(underlying);\r\n        allOptions.push(OptionsInfo(optionID+1,from,optType,underlying,expiration,strikePrice,amount));\r\n        optionsBalances[from].push(optionID+1);\r\n        if (optionID == 0){\r\n            lastCalBlock = block.number;\r\n            lastCalBlock_share = block.number;\r\n        }\r\n        OptionsInfo memory info = allOptions[optionID];\r\n        setOptionsExtra(info,settlement);\r\n        emit CreateOption(from,optionID+1,optType,underlying,expiration,strikePrice,amount);\r\n        return calOptionsCollateral(info,underlyingPrice);\r\n    }\r\n    function setOptionsExtra(OptionsInfo memory info,address settlement) internal{\r\n        uint256 strikePrice = info.strikePrice;\r\n        uint256 expiration = info.expiration - now;\r\n        (uint256 ivNumerator,uint256 ivDenominator) = _volatility.calculateIv(strikePrice,expiration);\r\n        uint256 settlePrice = _oracle.getPrice(settlement);\r\n        uint256 fullPrice = _optionsPrice.getOptionsPrice_iv(strikePrice,strikePrice,expiration,ivNumerator,ivDenominator,info.optType);\r\n        uint256 tokenTimePrice = fullPrice.div(settlePrice);\r\n        optionExtraMap[info.optionID-1]= OptionsInfoEx(now,settlement,tokenTimePrice,fullPrice,ivNumerator,ivDenominator);\r\n    }\r\n    function getTotalOccupiedCollateral() public view returns (uint256) {\r\n        uint256 totalOccupied = sumOptionPhases();\r\n        uint underlyingLen = underlyingAssets.length;\r\n        uint256[] memory prices = new uint256[](underlyingLen);\r\n        for (uint256 i = 0;i<underlyingLen;i++){\r\n            prices[i] = _oracle.getUnderlyingPrice(underlyingAssets[i]);\r\n        }\r\n        uint optionsLen = allOptions.length;\r\n        for (uint256 beginOption = lastCallOption+1; beginOption < optionsLen;beginOption++){\r\n            uint256 index = _getEligibleUnderlyingIndex(allOptions[beginOption].underlying);\r\n            totalOccupied = totalOccupied.add(calOptionsCollateral(allOptions[beginOption],prices[index]));\r\n        }\r\n        uint256 beginBlock = lastCalBlock+1;\r\n        if (beginBlock == 1){\r\n            return totalOccupied;\r\n        }\r\n        for (; beginBlock <= block.number;beginBlock++){\r\n            uint256[2][] storage burnedTokens = burnBlockOptions[beginBlock];\r\n            uint burnedLen = burnedTokens.length;\r\n            for (i = 0;i<burnedLen;i++){\r\n                uint optionId = burnedTokens[i][0];\r\n                index = _getEligibleUnderlyingIndex(allOptions[optionId].underlying);\r\n                totalOccupied = totalOccupied.sub(calBurnedOptionsCollateral(allOptions[optionId],\r\n                    burnedTokens[i][1],prices[index]));\r\n            }\r\n        }\r\n        return totalOccupied;\r\n    }\r\n    function sumOptionPhases()internal view returns(uint256){\r\n        uint256 totalOccupied = 0;\r\n        uint256 i = firstOption%optionPhase;\r\n        uint256 phaseLen = allOptions.length%optionPhase+1;\r\n        for (;i<phaseLen;i++){\r\n            totalOccupied = totalOccupied.add(OptionsPhases[i]);\r\n        }\r\n        return totalOccupied;\r\n    }\r\n    function calOptionsCollateral(OptionsInfo memory option,uint256 underlyingPrice)internal view returns(uint256){\r\n        if (option.expiration<=now || option.amount == 0){\r\n            return 0;\r\n        }\r\n        uint256 totalOccupied = 0;\r\n        if ((option.optType == 0) == (option.strikePrice>underlyingPrice)){ // call\r\n            totalOccupied = option.strikePrice.mul(option.amount);\r\n        } else {\r\n            totalOccupied = underlyingPrice.mul(option.amount);\r\n        }\r\n        return totalOccupied;\r\n    }\r\n    function calBurnedOptionsCollateral(OptionsInfo memory option,uint256 burned,uint256 underlyingPrice)internal pure returns(uint256){\r\n        uint256 totalOccupied = 0;\r\n        if ((option.optType == 0) == (option.strikePrice>underlyingPrice)){ // call\r\n            totalOccupied = option.strikePrice.mul(burned);\r\n        } else {\r\n            totalOccupied = underlyingPrice.mul(burned);\r\n        }\r\n        return totalOccupied;\r\n    }\r\n    function burnOptions(address from,uint256 id,uint256 amount)public onlyManager{\r\n        OptionsInfo memory info = _getOptionsById(id);\r\n        checkEligible(info);\r\n        checkOwner(info,from);\r\n        checkSufficient(info,amount);\r\n        info.amount = info.amount.sub(amount);\r\n        burnBlockOptions[block.number].push([id-1,amount]);\r\n        emit BurnOption(from,id,amount);\r\n    }\r\n    function getExerciseWorth(uint256 optionsId,uint256 amount)public view returns(uint256){\r\n        OptionsInfo memory info = _getOptionsById(optionsId);\r\n        checkEligible(info);\r\n        checkSufficient(info,amount);\r\n        uint256 underlyingPrice = _oracle.getUnderlyingPrice(info.underlying);\r\n        uint256 tokenPayback = 0;\r\n        if (info.optType == 0){\r\n            if (underlyingPrice > info.strikePrice){\r\n                tokenPayback = underlyingPrice - info.strikePrice;\r\n            }\r\n        }else{\r\n            if ( underlyingPrice < info.strikePrice){\r\n                tokenPayback = info.strikePrice-underlyingPrice;\r\n            }\r\n        }\r\n        if (tokenPayback == 0 ){\r\n            return 0;\r\n        } \r\n        return tokenPayback.mul(amount);\r\n    }\r\n    function _getOptionsById(uint256 id)internal view returns(OptionsInfo storage){\r\n        require(id>0 && id <= allOptions.length,\"option id is not exist\");\r\n        return allOptions[id-1];\r\n    }\r\n    function checkEligible(OptionsInfo memory info)internal view{\r\n        require(info.expiration>now,\"option is expired\");\r\n    }\r\n    function checkOwner(OptionsInfo memory info,address owner)internal pure{\r\n        require(info.owner == owner,\"caller is not the options owner\");\r\n    }\r\n    function checkSufficient(OptionsInfo memory info,uint256 amount) internal pure{\r\n        require(info.amount >= amount,\"option amount is insufficient\");\r\n    }\r\n    function buyOptionCheck(uint256 expiration,uint32 underlying)public view{\r\n        require(isEligibleUnderlyingAsset(underlying) , \"underlying is unsupported asset\");\r\n        checkExpiration(expiration);\r\n    }\r\n        /**\r\n     * @dev Implementation of add an eligible expiration into the expirationList.\r\n     * @param expiration new eligible expiration.\r\n     */\r\n    function addExpiration(uint256 expiration)public onlyOwner{\r\n        whiteListUint256.addWhiteListUint256(expirationList,expiration);\r\n    }\r\n    /**\r\n     * @dev Implementation of revoke an invalid expiration from the expirationList.\r\n     * @param removeExpiration revoked expiration.\r\n     */\r\n    function removeExpirationList(uint256 removeExpiration)public onlyOwner returns(bool) {\r\n        return whiteListUint256.removeWhiteListUint256(expirationList,removeExpiration);\r\n    }\r\n    /**\r\n     * @dev Implementation of getting the eligible expirationList.\r\n     */\r\n    function getExpirationList()public view returns (uint256[]){\r\n        return expirationList;\r\n    }\r\n    /**\r\n     * @dev Implementation of testing whether the input expiration is eligible.\r\n     * @param expiration input expiration for testing.\r\n     */    \r\n    function isEligibleExpiration(uint256 expiration) public view returns (bool){\r\n        return whiteListUint256.isEligibleUint256(expirationList,expiration);\r\n    }\r\n    function checkExpiration(uint256 expiration) public view{\r\n        return require(isEligibleExpiration(expiration),\"expiration value is not supported\");\r\n    }\r\n    function _getEligibleExpirationIndex(uint256 expiration) internal view returns (uint256){\r\n        return whiteListUint256._getEligibleIndexUint256(expirationList,expiration);\r\n    }\r\n\r\n}",
  "sourcePath": "C:\\work\\solidity\\FinnexusOptions_V2\\contracts\\OptionsPool.sol",
  "compiler": {
    "name": "solc",
    "version": "0.4.26+commit.4563c3fc.Emscripten.clang"
  },
  "schemaVersion": "3.1.0",
  "updatedAt": "2020-07-21T02:56:25.472Z",
  "devdoc": {
    "methods": {
      "addExpiration(uint256)": {
        "details": "Implementation of add an eligible expiration into the expirationList.\r",
        "params": {
          "expiration": "new eligible expiration.\r"
        }
      },
      "addUnderlyingAsset(uint32)": {
        "details": "Implementation of add an eligible underlying into the underlyingAssets.\r",
        "params": {
          "underlying": "new eligible underlying.\r"
        }
      },
      "getExpirationList()": {
        "details": "Implementation of getting the eligible expirationList.\r"
      },
      "getUnderlyingAssets()": {
        "details": "Implementation of getting the eligible underlyingAssets.\r"
      },
      "isEligibleExpiration(uint256)": {
        "details": "Implementation of testing whether the input expiration is eligible.\r",
        "params": {
          "expiration": "input expiration for testing.\r"
        }
      },
      "isEligibleUnderlyingAsset(uint32)": {
        "details": "Implementation of testing whether the input underlying is eligible.\r",
        "params": {
          "underlying": "input underlying for testing.\r"
        }
      },
      "isOwner()": {
        "details": "Returns true if the caller is the current owner."
      },
      "owner()": {
        "details": "Returns the address of the current owner."
      },
      "removeExpirationList(uint256)": {
        "details": "Implementation of revoke an invalid expiration from the expirationList.\r",
        "params": {
          "removeExpiration": "revoked expiration.\r"
        }
      },
      "removeUnderlyingAssets(uint32)": {
        "details": "Implementation of revoke an invalid underlying from the underlyingAssets.\r",
        "params": {
          "removeUnderlying": "revoked underlying.\r"
        }
      },
      "renounceOwnership()": {
        "details": "Leaves the contract without owner. It will not be possible to call `onlyOwner` functions anymore. Can only be called by the current owner.     * NOTE: Renouncing ownership will leave the contract without an owner, thereby removing any functionality that is only available to the owner."
      },
      "transferOwnership(address)": {
        "details": "Transfers ownership of the contract to a new account (`newOwner`). Can only be called by the current owner."
      }
    }
  },
  "userdoc": {
    "methods": {
      "setManager(address)": {
        "notice": "contribution period to stop or not."
      }
    }
  }
}