{
  "contractName": "OptionsMangerV2",
  "abi": [
    {
      "constant": true,
      "inputs": [],
      "name": "name",
      "outputs": [
        {
          "name": "",
          "type": "string"
        }
      ],
      "payable": false,
      "stateMutability": "view",
      "type": "function"
    },
    {
      "constant": false,
      "inputs": [
        {
          "name": "spender",
          "type": "address"
        },
        {
          "name": "amount",
          "type": "uint256"
        }
      ],
      "name": "approve",
      "outputs": [
        {
          "name": "",
          "type": "bool"
        }
      ],
      "payable": false,
      "stateMutability": "nonpayable",
      "type": "function"
    },
    {
      "constant": true,
      "inputs": [],
      "name": "getWhiteList",
      "outputs": [
        {
          "name": "",
          "type": "address[]"
        }
      ],
      "payable": false,
      "stateMutability": "view",
      "type": "function"
    },
    {
      "constant": true,
      "inputs": [],
      "name": "getLeftCollateral",
      "outputs": [
        {
          "name": "",
          "type": "uint256"
        }
      ],
      "payable": false,
      "stateMutability": "view",
      "type": "function"
    },
    {
      "constant": true,
      "inputs": [
        {
          "name": "",
          "type": "address"
        }
      ],
      "name": "netWorthBalances",
      "outputs": [
        {
          "name": "",
          "type": "uint256"
        }
      ],
      "payable": false,
      "stateMutability": "view",
      "type": "function"
    },
    {
      "constant": true,
      "inputs": [],
      "name": "totalSupply",
      "outputs": [
        {
          "name": "",
          "type": "uint256"
        }
      ],
      "payable": false,
      "stateMutability": "view",
      "type": "function"
    },
    {
      "constant": false,
      "inputs": [
        {
          "name": "optionsPool",
          "type": "address"
        }
      ],
      "name": "setOptionsPoolAddress",
      "outputs": [],
      "payable": false,
      "stateMutability": "nonpayable",
      "type": "function"
    },
    {
      "constant": false,
      "inputs": [
        {
          "name": "removeAddress",
          "type": "address"
        }
      ],
      "name": "removeWhiteList",
      "outputs": [
        {
          "name": "",
          "type": "bool"
        }
      ],
      "payable": false,
      "stateMutability": "nonpayable",
      "type": "function"
    },
    {
      "constant": false,
      "inputs": [
        {
          "name": "sender",
          "type": "address"
        },
        {
          "name": "recipient",
          "type": "address"
        },
        {
          "name": "amount",
          "type": "uint256"
        }
      ],
      "name": "transferFrom",
      "outputs": [
        {
          "name": "",
          "type": "bool"
        }
      ],
      "payable": false,
      "stateMutability": "nonpayable",
      "type": "function"
    },
    {
      "constant": true,
      "inputs": [
        {
          "name": "",
          "type": "address"
        }
      ],
      "name": "balances",
      "outputs": [
        {
          "name": "",
          "type": "uint256"
        }
      ],
      "payable": false,
      "stateMutability": "view",
      "type": "function"
    },
    {
      "constant": true,
      "inputs": [
        {
          "name": "",
          "type": "address"
        }
      ],
      "name": "collateralBalances",
      "outputs": [
        {
          "name": "",
          "type": "uint256"
        }
      ],
      "payable": false,
      "stateMutability": "view",
      "type": "function"
    },
    {
      "constant": false,
      "inputs": [],
      "name": "redeemAll",
      "outputs": [],
      "payable": false,
      "stateMutability": "nonpayable",
      "type": "function"
    },
    {
      "constant": true,
      "inputs": [],
      "name": "decimals",
      "outputs": [
        {
          "name": "",
          "type": "uint8"
        }
      ],
      "payable": false,
      "stateMutability": "view",
      "type": "function"
    },
    {
      "constant": true,
      "inputs": [
        {
          "name": "feeType",
          "type": "uint256"
        },
        {
          "name": "amount",
          "type": "uint256"
        }
      ],
      "name": "calculateFee",
      "outputs": [
        {
          "name": "",
          "type": "uint256"
        }
      ],
      "payable": false,
      "stateMutability": "view",
      "type": "function"
    },
    {
      "constant": false,
      "inputs": [
        {
          "name": "spender",
          "type": "address"
        },
        {
          "name": "addedValue",
          "type": "uint256"
        }
      ],
      "name": "increaseAllowance",
      "outputs": [
        {
          "name": "",
          "type": "bool"
        }
      ],
      "payable": false,
      "stateMutability": "nonpayable",
      "type": "function"
    },
    {
      "constant": true,
      "inputs": [
        {
          "name": "user",
          "type": "address"
        }
      ],
      "name": "getUserPayingUsd",
      "outputs": [
        {
          "name": "",
          "type": "uint256"
        }
      ],
      "payable": false,
      "stateMutability": "view",
      "type": "function"
    },
    {
      "constant": false,
      "inputs": [
        {
          "name": "oracle",
          "type": "address"
        }
      ],
      "name": "setOracleAddress",
      "outputs": [],
      "payable": false,
      "stateMutability": "nonpayable",
      "type": "function"
    },
    {
      "constant": true,
      "inputs": [
        {
          "name": "",
          "type": "address"
        }
      ],
      "name": "feeBalances",
      "outputs": [
        {
          "name": "",
          "type": "uint256"
        }
      ],
      "payable": false,
      "stateMutability": "view",
      "type": "function"
    },
    {
      "constant": true,
      "inputs": [],
      "name": "collateralRate",
      "outputs": [
        {
          "name": "numerator",
          "type": "uint256"
        },
        {
          "name": "denominator",
          "type": "uint256"
        }
      ],
      "payable": false,
      "stateMutability": "view",
      "type": "function"
    },
    {
      "constant": true,
      "inputs": [
        {
          "name": "",
          "type": "uint256"
        }
      ],
      "name": "whiteList",
      "outputs": [
        {
          "name": "",
          "type": "address"
        }
      ],
      "payable": false,
      "stateMutability": "view",
      "type": "function"
    },
    {
      "constant": true,
      "inputs": [],
      "name": "getOptionsPriceAddress",
      "outputs": [
        {
          "name": "",
          "type": "address"
        }
      ],
      "payable": false,
      "stateMutability": "view",
      "type": "function"
    },
    {
      "constant": false,
      "inputs": [
        {
          "name": "collateral",
          "type": "address"
        },
        {
          "name": "amount",
          "type": "uint256"
        }
      ],
      "name": "addCollateral",
      "outputs": [],
      "payable": true,
      "stateMutability": "payable",
      "type": "function"
    },
    {
      "constant": true,
      "inputs": [
        {
          "name": "account",
          "type": "address"
        }
      ],
      "name": "balanceOf",
      "outputs": [
        {
          "name": "",
          "type": "uint256"
        }
      ],
      "payable": false,
      "stateMutability": "view",
      "type": "function"
    },
    {
      "constant": false,
      "inputs": [],
      "name": "renounceOwnership",
      "outputs": [],
      "payable": false,
      "stateMutability": "nonpayable",
      "type": "function"
    },
    {
      "constant": true,
      "inputs": [
        {
          "name": "tmpAddress",
          "type": "address"
        }
      ],
      "name": "isEligibleAddress",
      "outputs": [
        {
          "name": "",
          "type": "bool"
        }
      ],
      "payable": false,
      "stateMutability": "view",
      "type": "function"
    },
    {
      "constant": true,
      "inputs": [],
      "name": "getCollateralRate",
      "outputs": [
        {
          "name": "",
          "type": "uint256"
        },
        {
          "name": "",
          "type": "uint256"
        }
      ],
      "payable": false,
      "stateMutability": "view",
      "type": "function"
    },
    {
      "constant": true,
      "inputs": [],
      "name": "owner",
      "outputs": [
        {
          "name": "",
          "type": "address"
        }
      ],
      "payable": false,
      "stateMutability": "view",
      "type": "function"
    },
    {
      "constant": true,
      "inputs": [],
      "name": "isOwner",
      "outputs": [
        {
          "name": "",
          "type": "bool"
        }
      ],
      "payable": false,
      "stateMutability": "view",
      "type": "function"
    },
    {
      "constant": false,
      "inputs": [
        {
          "name": "currency",
          "type": "address"
        }
      ],
      "name": "redeem",
      "outputs": [],
      "payable": false,
      "stateMutability": "nonpayable",
      "type": "function"
    },
    {
      "constant": true,
      "inputs": [],
      "name": "symbol",
      "outputs": [
        {
          "name": "",
          "type": "string"
        }
      ],
      "payable": false,
      "stateMutability": "view",
      "type": "function"
    },
    {
      "constant": false,
      "inputs": [
        {
          "name": "index",
          "type": "uint256"
        }
      ],
      "name": "setPhaseSharedPayment",
      "outputs": [],
      "payable": false,
      "stateMutability": "nonpayable",
      "type": "function"
    },
    {
      "constant": false,
      "inputs": [
        {
          "name": "optionsPrice",
          "type": "address"
        }
      ],
      "name": "setOptionsPriceAddress",
      "outputs": [],
      "payable": false,
      "stateMutability": "nonpayable",
      "type": "function"
    },
    {
      "constant": false,
      "inputs": [
        {
          "name": "tokenAmount",
          "type": "uint256"
        },
        {
          "name": "collateral",
          "type": "address"
        }
      ],
      "name": "redeemCollateral",
      "outputs": [],
      "payable": false,
      "stateMutability": "nonpayable",
      "type": "function"
    },
    {
      "constant": false,
      "inputs": [
        {
          "name": "spender",
          "type": "address"
        },
        {
          "name": "subtractedValue",
          "type": "uint256"
        }
      ],
      "name": "decreaseAllowance",
      "outputs": [
        {
          "name": "",
          "type": "bool"
        }
      ],
      "payable": false,
      "stateMutability": "nonpayable",
      "type": "function"
    },
    {
      "constant": false,
      "inputs": [
        {
          "name": "recipient",
          "type": "address"
        },
        {
          "name": "amount",
          "type": "uint256"
        }
      ],
      "name": "transfer",
      "outputs": [
        {
          "name": "",
          "type": "bool"
        }
      ],
      "payable": false,
      "stateMutability": "nonpayable",
      "type": "function"
    },
    {
      "constant": true,
      "inputs": [],
      "name": "getOracleAddress",
      "outputs": [
        {
          "name": "",
          "type": "address"
        }
      ],
      "payable": false,
      "stateMutability": "view",
      "type": "function"
    },
    {
      "constant": true,
      "inputs": [
        {
          "name": "user",
          "type": "address"
        },
        {
          "name": "collateral",
          "type": "address"
        }
      ],
      "name": "userInputCollateral",
      "outputs": [
        {
          "name": "",
          "type": "uint256"
        }
      ],
      "payable": false,
      "stateMutability": "view",
      "type": "function"
    },
    {
      "constant": false,
      "inputs": [
        {
          "name": "index",
          "type": "uint256"
        },
        {
          "name": "sharedBalances",
          "type": "uint256[]"
        },
        {
          "name": "firstOption",
          "type": "uint256"
        },
        {
          "name": "lastBlock",
          "type": "uint256"
        },
        {
          "name": "calTime",
          "type": "uint256"
        }
      ],
      "name": "setSharedPayment",
      "outputs": [],
      "payable": false,
      "stateMutability": "nonpayable",
      "type": "function"
    },
    {
      "constant": true,
      "inputs": [],
      "name": "halted",
      "outputs": [
        {
          "name": "",
          "type": "bool"
        }
      ],
      "payable": false,
      "stateMutability": "view",
      "type": "function"
    },
    {
      "constant": false,
      "inputs": [
        {
          "name": "feeType",
          "type": "uint256"
        },
        {
          "name": "numerator",
          "type": "uint256"
        },
        {
          "name": "denominator",
          "type": "uint256"
        }
      ],
      "name": "setTransactionFee",
      "outputs": [],
      "payable": false,
      "stateMutability": "nonpayable",
      "type": "function"
    },
    {
      "constant": true,
      "inputs": [],
      "name": "getOptionsPoolAddress",
      "outputs": [
        {
          "name": "",
          "type": "address"
        }
      ],
      "payable": false,
      "stateMutability": "view",
      "type": "function"
    },
    {
      "constant": true,
      "inputs": [],
      "name": "getTokenNetworth",
      "outputs": [
        {
          "name": "",
          "type": "uint256"
        }
      ],
      "payable": false,
      "stateMutability": "view",
      "type": "function"
    },
    {
      "constant": true,
      "inputs": [
        {
          "name": "settlement",
          "type": "address"
        }
      ],
      "name": "getFeeBalance",
      "outputs": [
        {
          "name": "",
          "type": "uint256"
        }
      ],
      "payable": false,
      "stateMutability": "view",
      "type": "function"
    },
    {
      "constant": true,
      "inputs": [],
      "name": "getOccupiedCollateral",
      "outputs": [
        {
          "name": "",
          "type": "uint256"
        }
      ],
      "payable": false,
      "stateMutability": "view",
      "type": "function"
    },
    {
      "constant": true,
      "inputs": [
        {
          "name": "feeType",
          "type": "uint256"
        }
      ],
      "name": "getFeeRate",
      "outputs": [
        {
          "name": "",
          "type": "uint256"
        },
        {
          "name": "",
          "type": "uint256"
        }
      ],
      "payable": false,
      "stateMutability": "view",
      "type": "function"
    },
    {
      "constant": true,
      "inputs": [],
      "name": "getTotalCollateral",
      "outputs": [
        {
          "name": "",
          "type": "uint256"
        }
      ],
      "payable": false,
      "stateMutability": "view",
      "type": "function"
    },
    {
      "constant": true,
      "inputs": [
        {
          "name": "owner",
          "type": "address"
        },
        {
          "name": "spender",
          "type": "address"
        }
      ],
      "name": "allowance",
      "outputs": [
        {
          "name": "",
          "type": "uint256"
        }
      ],
      "payable": false,
      "stateMutability": "view",
      "type": "function"
    },
    {
      "constant": true,
      "inputs": [
        {
          "name": "",
          "type": "address"
        }
      ],
      "name": "userCollateralPaying",
      "outputs": [
        {
          "name": "",
          "type": "uint256"
        }
      ],
      "payable": false,
      "stateMutability": "view",
      "type": "function"
    },
    {
      "constant": true,
      "inputs": [
        {
          "name": "",
          "type": "uint256"
        }
      ],
      "name": "FeeRates",
      "outputs": [
        {
          "name": "numerator",
          "type": "uint256"
        },
        {
          "name": "denominator",
          "type": "uint256"
        }
      ],
      "payable": false,
      "stateMutability": "view",
      "type": "function"
    },
    {
      "constant": false,
      "inputs": [
        {
          "name": "addAddress",
          "type": "address"
        }
      ],
      "name": "addWhiteList",
      "outputs": [],
      "payable": false,
      "stateMutability": "nonpayable",
      "type": "function"
    },
    {
      "constant": false,
      "inputs": [
        {
          "name": "numerator",
          "type": "uint256"
        },
        {
          "name": "denominator",
          "type": "uint256"
        }
      ],
      "name": "setCollateralRate",
      "outputs": [],
      "payable": false,
      "stateMutability": "nonpayable",
      "type": "function"
    },
    {
      "constant": true,
      "inputs": [],
      "name": "getAllFeeBalances",
      "outputs": [
        {
          "name": "",
          "type": "address[]"
        },
        {
          "name": "",
          "type": "uint256[]"
        }
      ],
      "payable": false,
      "stateMutability": "view",
      "type": "function"
    },
    {
      "constant": false,
      "inputs": [
        {
          "name": "newOwner",
          "type": "address"
        }
      ],
      "name": "transferOwnership",
      "outputs": [],
      "payable": false,
      "stateMutability": "nonpayable",
      "type": "function"
    },
    {
      "constant": false,
      "inputs": [
        {
          "name": "halt",
          "type": "bool"
        }
      ],
      "name": "setHalt",
      "outputs": [],
      "payable": false,
      "stateMutability": "nonpayable",
      "type": "function"
    },
    {
      "constant": true,
      "inputs": [
        {
          "name": "tmpAddress",
          "type": "address"
        }
      ],
      "name": "checkEligibleAddress",
      "outputs": [],
      "payable": false,
      "stateMutability": "view",
      "type": "function"
    },
    {
      "inputs": [
        {
          "name": "oracleAddr",
          "type": "address"
        },
        {
          "name": "optionsPriceAddr",
          "type": "address"
        },
        {
          "name": "optionsPoolAddr",
          "type": "address"
        }
      ],
      "payable": false,
      "stateMutability": "nonpayable",
      "type": "constructor"
    },
    {
      "anonymous": false,
      "inputs": [
        {
          "indexed": true,
          "name": "from",
          "type": "address"
        },
        {
          "indexed": true,
          "name": "settlement",
          "type": "address"
        },
        {
          "indexed": true,
          "name": "optionId",
          "type": "uint256"
        },
        {
          "indexed": false,
          "name": "optionPrice",
          "type": "uint256"
        },
        {
          "indexed": false,
          "name": "settlementAmount",
          "type": "uint256"
        },
        {
          "indexed": false,
          "name": "optionAmount",
          "type": "uint256"
        }
      ],
      "name": "BuyOption",
      "type": "event"
    },
    {
      "anonymous": false,
      "inputs": [
        {
          "indexed": true,
          "name": "from",
          "type": "address"
        },
        {
          "indexed": true,
          "name": "optionId",
          "type": "uint256"
        },
        {
          "indexed": false,
          "name": "amount",
          "type": "uint256"
        },
        {
          "indexed": false,
          "name": "sellValue",
          "type": "uint256"
        }
      ],
      "name": "SellOption",
      "type": "event"
    },
    {
      "anonymous": false,
      "inputs": [
        {
          "indexed": true,
          "name": "from",
          "type": "address"
        },
        {
          "indexed": true,
          "name": "optionId",
          "type": "uint256"
        },
        {
          "indexed": false,
          "name": "amount",
          "type": "uint256"
        },
        {
          "indexed": false,
          "name": "sellValue",
          "type": "uint256"
        }
      ],
      "name": "ExerciseOption",
      "type": "event"
    },
    {
      "anonymous": false,
      "inputs": [
        {
          "indexed": true,
          "name": "from",
          "type": "address"
        },
        {
          "indexed": true,
          "name": "collateral",
          "type": "address"
        },
        {
          "indexed": false,
          "name": "amount",
          "type": "uint256"
        },
        {
          "indexed": false,
          "name": "tokenAmount",
          "type": "uint256"
        }
      ],
      "name": "AddCollateral",
      "type": "event"
    },
    {
      "anonymous": false,
      "inputs": [
        {
          "indexed": true,
          "name": "from",
          "type": "address"
        },
        {
          "indexed": false,
          "name": "tokenAmount",
          "type": "uint256"
        }
      ],
      "name": "RedeemCollateral",
      "type": "event"
    },
    {
      "anonymous": false,
      "inputs": [
        {
          "indexed": true,
          "name": "value1",
          "type": "uint256"
        },
        {
          "indexed": true,
          "name": "value2",
          "type": "uint256"
        },
        {
          "indexed": true,
          "name": "value3",
          "type": "uint256"
        }
      ],
      "name": "DebugEvent",
      "type": "event"
    },
    {
      "anonymous": false,
      "inputs": [
        {
          "indexed": true,
          "name": "from",
          "type": "address"
        },
        {
          "indexed": true,
          "name": "to",
          "type": "address"
        },
        {
          "indexed": false,
          "name": "value",
          "type": "uint256"
        }
      ],
      "name": "Transfer",
      "type": "event"
    },
    {
      "anonymous": false,
      "inputs": [
        {
          "indexed": true,
          "name": "owner",
          "type": "address"
        },
        {
          "indexed": true,
          "name": "spender",
          "type": "address"
        },
        {
          "indexed": false,
          "name": "value",
          "type": "uint256"
        }
      ],
      "name": "Approval",
      "type": "event"
    },
    {
      "anonymous": false,
      "inputs": [
        {
          "indexed": true,
          "name": "recieptor",
          "type": "address"
        },
        {
          "indexed": true,
          "name": "settlement",
          "type": "address"
        },
        {
          "indexed": false,
          "name": "payback",
          "type": "uint256"
        }
      ],
      "name": "FeePayback",
      "type": "event"
    },
    {
      "anonymous": false,
      "inputs": [
        {
          "indexed": true,
          "name": "settlement",
          "type": "address"
        },
        {
          "indexed": false,
          "name": "payback",
          "type": "uint256"
        }
      ],
      "name": "AddFee",
      "type": "event"
    },
    {
      "anonymous": false,
      "inputs": [
        {
          "indexed": true,
          "name": "recieptor",
          "type": "address"
        },
        {
          "indexed": true,
          "name": "settlement",
          "type": "address"
        },
        {
          "indexed": false,
          "name": "payback",
          "type": "uint256"
        }
      ],
      "name": "TransferPayback",
      "type": "event"
    },
    {
      "anonymous": false,
      "inputs": [
        {
          "indexed": true,
          "name": "previousOwner",
          "type": "address"
        },
        {
          "indexed": true,
          "name": "newOwner",
          "type": "address"
        }
      ],
      "name": "OwnershipTransferred",
      "type": "event"
    },
    {
      "constant": false,
      "inputs": [
        {
          "name": "settlement",
          "type": "address"
        },
        {
          "name": "settlementAmount",
          "type": "uint256"
        },
        {
          "name": "strikePrice",
          "type": "uint256"
        },
        {
          "name": "underlying",
          "type": "uint32"
        },
        {
          "name": "expiration",
          "type": "uint256"
        },
        {
          "name": "amount",
          "type": "uint256"
        },
        {
          "name": "optType",
          "type": "uint8"
        }
      ],
      "name": "buyOption",
      "outputs": [],
      "payable": true,
      "stateMutability": "payable",
      "type": "function"
    },
    {
      "constant": false,
      "inputs": [
        {
          "name": "optionsId",
          "type": "uint256"
        },
        {
          "name": "amount",
          "type": "uint256"
        }
      ],
      "name": "sellOption",
      "outputs": [],
      "payable": false,
      "stateMutability": "nonpayable",
      "type": "function"
    },
    {
      "constant": false,
      "inputs": [
        {
          "name": "optionsId",
          "type": "uint256"
        },
        {
          "name": "amount",
          "type": "uint256"
        }
      ],
      "name": "exerciseOption",
      "outputs": [],
      "payable": false,
      "stateMutability": "nonpayable",
      "type": "function"
    }
  ],
  "bytecode": "0x6000805460ff60a860020a60ff02011916905560c0604052600a60808190527f536861726564436f696e0000000000000000000000000000000000000000000060a090815262000053916004919062000479565b506040805180820190915260058082527f53436f696e000000000000000000000000000000000000000000000000000000602090920191825262000098918162000479565b50600060085560408051808201909152600380825260016020909201829052600b55600c55348015620000ca57600080fd5b5060405160608062004c5a8339810160408181528251602084015191909301516000805461010033810261010060a860020a0319909216919091178083559394929304600160a060020a0316917f8be0079c531659141344cd1fd0a4f28419497f9722a3daafe3b4186f6b6457e0908290a360408051808201825260038082526103e860208084018281528354600181810186556000868152965160029283027fc2575a0e9e593c00f959f8c92f12db2869c3395a3b0502d05e2516446f71f85b8181019290925593517fc2575a0e9e593c00f959f8c92f12db2869c3395a3b0502d05e2516446f71f85c948501558851808a018a5287815280860187815288548085018a55898b5291519185028084019290925551908501558851808a018a5287815280860187815288548085018a55898b5291519185028084019290925551908501558851808a018a5287815280860187815288548085018a55898b5291519185028084019290925551908501558851808a01909952868952938801948552855490810186559490955294519290930292830191909155519101556200027b83640100000000620002ac810204565b6200028f826401000000006200033e810204565b620002a381640100000000620003d0810204565b5050506200051b565b620002bf64010000000062000462810204565b15156200031c57604080517f08c379a0000000000000000000000000000000000000000000000000000000008152602060048201819052602482015260008051602062004c3a833981519152604482015290519081900360640190fd5b60098054600160a060020a031916600160a060020a0392909216919091179055565b6200035164010000000062000462810204565b1515620003ae57604080517f08c379a0000000000000000000000000000000000000000000000000000000008152602060048201819052602482015260008051602062004c3a833981519152604482015290519081900360640190fd5b60118054600160a060020a031916600160a060020a0392909216919091179055565b620003e364010000000062000462810204565b15156200044057604080517f08c379a0000000000000000000000000000000000000000000000000000000008152602060048201819052602482015260008051602062004c3a833981519152604482015290519081900360640190fd5b600a8054600160a060020a031916600160a060020a0392909216919091179055565b6000546101009004600160a060020a031633145b90565b828054600181600116156101000203166002900490600052602060002090601f016020900481019282601f10620004bc57805160ff1916838001178555620004ec565b82800160010185558215620004ec579182015b82811115620004ec578251825591602001919060010190620004cf565b50620004fa929150620004fe565b5090565b6200047691905b80821115620004fa576000815560010162000505565b61470f806200052b6000396000f30060806040526004361061029a5763ffffffff60e060020a60003504166306fdde03811461029f578063095ea7b31461032957806309a9d76c146103615780630aaf3832146103c65780630ecfad1e146103ed57806318160ddd1461040e5780631a5a3fce146104235780632042e5c21461044657806323b872dd1461046757806327e235e31461049157806329bc969d146104b25780632f4350c2146104d3578063313ce567146104e857806334e7312214610513578063395093511461052e57806342049a72146105525780634c69c00f1461057357806353afc0251461059457806358a6be1c146105b55780635c475d42146105e35780635ca4b73b146106175780636d75b9ee1461062c57806370a0823114610643578063715018a6146106645780637c9c671214610679578063817bf86d14610694578063852185fc146106b55780638da5cb5b146106ca5780638f32d59b146106df578063925c482c146106f457806395a2251f1461072357806395d89b4114610744578063a04115f614610759578063a093e2d014610771578063a20a804514610792578063a457c2d7146107b6578063a9059cbb146107da578063b18b78dd146107fe578063b4d5a9c714610813578063b7480d741461083a578063b9b8af0b146108a1578063bf36b110146108b6578063c040725a146108d4578063c5e5a3ed146108e9578063c78f6803146108fe578063cd4058191461091f578063d189290414610934578063d2aaef4e1461094f578063d6eb591014610967578063dd62ed3e1461097c578063ddb944e5146109a3578063e0561aa1146109c4578063e7cd4a04146109dc578063ef63e1f7146109fd578063f20568cd14610a18578063f2fde38b14610ac6578063f495438714610ae7578063f939fdca14610b01575b600080fd5b3480156102ab57600080fd5b506102b4610b22565b6040805160208082528351818301528351919283929083019185019080838360005b838110156102ee5781810151838201526020016102d6565b50505050905090810190601f16801561031b5780820380516001836020036101000a031916815260200191505b509250505060405180910390f35b34801561033557600080fd5b5061034d600160a060020a0360043516602435610bb0565b604080519115158252519081900360200190f35b34801561036d57600080fd5b50610376610bc6565b60408051602080825283518183015283519192839290830191858101910280838360005b838110156103b257818101518382015260200161039a565b505050509050019250505060405180910390f35b3480156103d257600080fd5b506103db610c29565b60408051918252519081900360200190f35b3480156103f957600080fd5b506103db600160a060020a0360043516610c41565b34801561041a57600080fd5b506103db610c53565b34801561042f57600080fd5b50610444600160a060020a0360043516610c59565b005b34801561045257600080fd5b5061034d600160a060020a0360043516610cd4565b34801561047357600080fd5b5061034d600160a060020a0360043581169060243516604435610d33565b34801561049d57600080fd5b506103db600160a060020a0360043516610de6565b3480156104be57600080fd5b506103db600160a060020a0360043516610df8565b3480156104df57600080fd5b50610444610e0a565b3480156104f457600080fd5b506104fd610e9d565b6040805160ff9092168252519081900360200190f35b34801561051f57600080fd5b506103db600435602435610ea2565b34801561053a57600080fd5b5061034d600160a060020a0360043516602435610ee9565b34801561055e57600080fd5b506103db600160a060020a0360043516610f25565b34801561057f57600080fd5b50610444600160a060020a0360043516610f40565b3480156105a057600080fd5b506103db600160a060020a0360043516610fbb565b3480156105c157600080fd5b506105ca610fcd565b6040805192835260208301919091528051918290030190f35b3480156105ef57600080fd5b506105fb600435610fd6565b60408051600160a060020a039092168252519081900360200190f35b34801561062357600080fd5b506105fb610ffe565b610444600160a060020a036004351660243561100d565b34801561064f57600080fd5b506103db600160a060020a0360043516611292565b34801561067057600080fd5b506104446112ad565b34801561068557600080fd5b50610444600435602435611355565b3480156106a057600080fd5b5061034d600160a060020a0360043516611530565b3480156106c157600080fd5b506105ca611596565b3480156106d657600080fd5b506105fb6115a0565b3480156106eb57600080fd5b5061034d6115b4565b610444600160a060020a036004351660243560443563ffffffff6064351660843560a43560ff60c435166115ca565b34801561072f57600080fd5b50610444600160a060020a036004351661179d565b34801561075057600080fd5b506102b461198d565b34801561076557600080fd5b506104446004356119e8565b34801561077d57600080fd5b50610444600160a060020a0360043516611ba4565b34801561079e57600080fd5b50610444600435600160a060020a0360243516611c1f565b3480156107c257600080fd5b5061034d600160a060020a0360043516602435611e0b565b3480156107e657600080fd5b5061034d600160a060020a0360043516602435611ea4565b34801561080a57600080fd5b506105fb611eb1565b34801561081f57600080fd5b506103db600160a060020a0360043581169060243516611ec0565b34801561084657600080fd5b506040805160206004602480358281013584810280870186019097528086526104449684359636966044959194909101929182918501908490808284375094975050843595505050602083013592604001359150611eeb9050565b3480156108ad57600080fd5b5061034d612072565b3480156108c257600080fd5b50610444600435602435604435612094565b3480156108e057600080fd5b506105fb6120f8565b3480156108f557600080fd5b506103db612107565b34801561090a57600080fd5b506103db600160a060020a0360043516612139565b34801561092b57600080fd5b506103db612154565b34801561094057600080fd5b506104446004356024356121e8565b34801561095b57600080fd5b506105ca600435612542565b34801561097357600080fd5b506103db612563565b34801561098857600080fd5b506103db600160a060020a036004358116906024351661266b565b3480156109af57600080fd5b506103db600160a060020a0360043516612696565b3480156109d057600080fd5b506105ca6004356126a8565b3480156109e857600080fd5b50610444600160a060020a03600435166126d4565b348015610a0957600080fd5b5061044460043560243561272b565b348015610a2457600080fd5b50610a2d612782565b604051808060200180602001838103835285818151815260200191508051906020019060200280838360005b83811015610a71578181015183820152602001610a59565b50505050905001838103825284818151815260200191508051906020019060200280838360005b83811015610ab0578181015183820152602001610a98565b5050505090500194505050505060405180910390f35b348015610ad257600080fd5b50610444600160a060020a036004351661288b565b348015610af357600080fd5b5061044460043515156128e0565b348015610b0d57600080fd5b50610444600160a060020a036004351661296e565b6004805460408051602060026001851615610100026000190190941693909304601f81018490048402820184019092528181529291830182828015610ba85780601f10610b7d57610100808354040283529160200191610ba8565b820191906000526020600020905b815481529060010190602001808311610b8b57829003601f168201915b505050505081565b6000610bbd3384846129d2565b50600192915050565b60606001805480602002602001604051908101604052809291908181526020018280548015610c1e57602002820191906000526020600020905b8154600160a060020a03168152600190910190602001808311610c00575b505050505090505b90565b6000610c33612154565b610c3b612563565b03905090565b600d6020526000908152604090205481565b60085490565b610c616115b4565b1515610ca5576040805160e560020a62461bcd02815260206004820181905260248201526000805160206146c4833981519152604482015290519081900360640190fd5b600a805473ffffffffffffffffffffffffffffffffffffffff1916600160a060020a0392909216919091179055565b6000610cde6115b4565b1515610d22576040805160e560020a62461bcd02815260206004820181905260248201526000805160206146c4833981519152604482015290519081900360640190fd5b610d2d600183612b3f565b92915050565b6000610d40848484612c2c565b60408051606081018252602881527f45524332303a207472616e7366657220616d6f756e74206578636565647320616020808301919091527f6c6c6f77616e636500000000000000000000000000000000000000000000000082840152600160a060020a0387166000908152600782528381203380835292529290922054610ddc9287929091610dd791879063ffffffff612d9c16565b6129d2565b5060019392505050565b60066020526000908152604090205481565b600e6020526000908152604090205481565b6000610e146115b4565b1515610e58576040805160e560020a62461bcd02815260206004820181905260248201526000805160206146c4833981519152604482015290519081900360640190fd5b5060005b600154811015610e9a57610e92600182815481101515610e7857fe5b600091825260209091200154600160a060020a031661179d565b600101610e5c565b50565b601281565b6000806000610eb085612e39565b8054909250610ec5908563ffffffff612eb816565b9050610ede826001015482612f6290919063ffffffff16565b92505b505092915050565b336000818152600760209081526040808320600160a060020a03871684529091528120549091610bbd918590610dd7908663ffffffff612fab16565b600160a060020a03166000908152600f602052604090205490565b610f486115b4565b1515610f8c576040805160e560020a62461bcd02815260206004820181905260248201526000805160206146c4833981519152604482015290519081900360640190fd5b6009805473ffffffffffffffffffffffffffffffffffffffff1916600160a060020a0392909216919091179055565b60026020526000908152604090205481565b600b54600c5482565b6001805482908110610fe457fe5b600091825260209091200154600160a060020a0316905081565b601154600160a060020a031690565b60008060008061101d8686613008565b945060008511611077576040805160e560020a62461bcd02815260206004820152601a60248201527f736574746c656d656e7420616d6f756e74206973207a65726f21000000000000604482015290519081900360640190fd5b611082600386610ea2565b935061108e868561313b565b61109e858563ffffffff6131ba16565b6009546040805160e060020a6341976e09028152600160a060020a038a8116600483015291519398509116916341976e09916024808201926020929091908290030181600087803b1580156110f257600080fd5b505af1158015611106573d6000803e3d6000fd5b505050506040513d602081101561111c57600080fd5b50519250611130838663ffffffff612eb816565b915061114a61113d612107565b839063ffffffff612f6216565b336000908152600f602052604090205490915061116d908363ffffffff612fab16565b336000908152600f6020908152604080832093909355600160a060020a0389168252600e905220546111a5908663ffffffff612fab16565b600160a060020a0387166000818152600e6020908152604080832094909455338252601081528382209282529190915220546111e7908663ffffffff612fab16565b336000908152601060209081526040808320600160a060020a038b168452825280832093909355600d90522054611224908663ffffffff612fab16565b600160a060020a0387166000818152600d60209081526040918290209390935580518881529283018490528051919233927f33a089d94f9a0b7d0fe21e69b40d7dbe1965be652c7382cc778d46963db8c49b929181900390910190a361128a33826131fc565b505050505050565b600160a060020a031660009081526006602052604090205490565b6112b56115b4565b15156112f9576040805160e560020a62461bcd02815260206004820181905260248201526000805160206146c4833981519152604482015290519081900360640190fd5b60008054604051610100909104600160a060020a0316907f8be0079c531659141344cd1fd0a4f28419497f9722a3daafe3b4186f6b6457e0908390a36000805474ffffffffffffffffffffffffffffffffffffffff0019169055565b60008082116113ae576040805160e560020a62461bcd02815260206004820152601860248201527f657865726369736520616d6f756e74206973207a65726f210000000000000000604482015290519081900360640190fd5b600a54604080517f67b8ceb900000000000000000000000000000000000000000000000000000000815260048101869052602481018590529051600160a060020a03909216916367b8ceb9916044808201926020929091908290030181600087803b15801561141c57600080fd5b505af1158015611430573d6000803e3d6000fd5b505050506040513d602081101561144657600080fd5b505190508015156114565761152b565b600a54604080517f74e85fd200000000000000000000000000000000000000000000000000000000815233600482015260248101869052604481018590529051600160a060020a03909216916374e85fd29160648082019260009290919082900301818387803b1580156114c957600080fd5b505af11580156114dd573d6000803e3d6000fd5b5050604080518581526020810185905281518794503393507fc939d87d6a5458cd262393bdb2c5408330b7647ca14b752229b0301858a29972929181900390910190a361152b8160026132c1565b505050565b6000610d2d600180548060200260200160405190810160405280929190818152602001828054801561158b57602002820191906000526020600020905b8154600160a060020a0316815260019091019060200180831161156d575b5050505050836134d1565b600b54600c549091565b6000546101009004600160a060020a031690565b6000546101009004600160a060020a0316331490565b600a54604080517f3ad2fb570000000000000000000000000000000000000000000000000000000081526004810186905263ffffffff871660248201529051600092600160a060020a031691633ad2fb57916044808301928692919082900301818387803b15801561163b57600080fd5b505af115801561164f573d6000803e3d6000fd5b5050600a54604080517fd665d9a600000000000000000000000000000000000000000000000000000000815233600482015260ff8716602482015263ffffffff8a1660448201524289016064820152608481018b905260a48101889052600160a060020a038d811660c4830152915191909216935063d665d9a6925060e48083019260209291908290030181600087803b1580156116ec57600080fd5b505af1158015611700573d6000803e3d6000fd5b505050506040513d602081101561171657600080fd5b5051905061172381613522565b90508061172e610c29565b1015611784576040805160e560020a62461bcd02815260206004820152601b60248201527f636f6c6c61746572616c20697320696e73756666696369656e74210000000000604482015290519081900360640190fd5b61179388888888888888613551565b5050505050505050565b6000806117a86115b4565b15156117ec576040805160e560020a62461bcd02815260206004820181905260248201526000805160206146c4833981519152604482015290519081900360640190fd5b600160a060020a0383166000908152600260205260408120549250821161185d576040805160e560020a62461bcd02815260206004820152601260248201527f4974277320656d7074792062616c616e63650000000000000000000000000000604482015290519081900360640190fd5b600160a060020a03831660008181526002602052604081205515156118af57604051339083156108fc029084906000818181858888f193505050501580156118a9573d6000803e3d6000fd5b50611948565b50604080517fa9059cbb0000000000000000000000000000000000000000000000000000000081523360048201526024810183905290518391600160a060020a0383169163a9059cbb916044808201926020929091908290030181600087803b15801561191b57600080fd5b505af115801561192f573d6000803e3d6000fd5b505050506040513d602081101561194557600080fd5b50505b604080518381529051600160a060020a0385169133917f747147be90b2a81a2e929994a92cd7bb71396bdbfd02f181867c81187d4f79449181900360200190a3505050565b6005805460408051602060026001851615610100026000190190941693909304601f81018490048402820184019092528181529291830182828015610ba85780601f10610b7d57610100808354040283529160200191610ba8565b60606000806119f56115b4565b1515611a39576040805160e560020a62461bcd02815260206004820181905260248201526000805160206146c4833981519152604482015290519081900360640190fd5b600a54604080517faf70df1200000000000000000000000000000000000000000000000000000000815260048101878152602482019283526001805460448401819052600160a060020a039095169463af70df12948a94929392909160649091019084908015611ad257602002820191906000526020600020905b8154600160a060020a03168152600190910190602001808311611ab4575b50509350505050600060405180830381600087803b158015611af357600080fd5b505af1158015611b07573d6000803e3d6000fd5b505050506040513d6000823e601f3d908101601f191682016040526060811015611b3057600080fd5b810190808051640100000000811115611b4857600080fd5b82016020810184811115611b5b57600080fd5b8151856020820283011164010000000082111715611b7857600080fd5b505060208201516040909201519096509094509250611b9e915085905084848442611eeb565b50505050565b611bac6115b4565b1515611bf0576040805160e560020a62461bcd02815260206004820181905260248201526000805160206146c4833981519152604482015290519081900360640190fd5b6011805473ffffffffffffffffffffffffffffffffffffffff1916600160a060020a0392909216919091179055565b600080600080611c2e85611530565b1515611c84576040805160e560020a62461bcd02815260206004820152601f60248201527f736574746c656d656e7420697320756e737570706f7274656420746f6b656e00604482015290519081900360640190fd5b33600090815260066020526040902054861115611ceb576040805160e560020a62461bcd02815260206004820152601e60248201527f53436f696e2062616c616e636520697320696e73756666696369656e74210000604482015290519081900360640190fd5b851515611cf75761128a565b600a60009054906101000a9004600160a060020a0316600160a060020a03166373a3d4246040518163ffffffff1660e060020a028152600401602060405180830381600087803b158015611d4a57600080fd5b505af1158015611d5e573d6000803e3d6000fd5b505050506040513d6020811015611d7457600080fd5b50519350611d80612563565b9250611d9760085484612f6290919063ffffffff16565b9150611da9868363ffffffff612eb816565b905082611dbc858363ffffffff612fab16565b1161128a57611dcd868683856139f7565b60408051878152905133917f925b1add21f66e1e2c8c9e9fffb3e0f4105df02dbd05c280f2fe4d19f5c50be5919081900360200190a2505050505050565b60408051606081018252602581527f45524332303a2064656372656173656420616c6c6f77616e63652062656c6f776020808301919091527f207a65726f0000000000000000000000000000000000000000000000000000008284015233600081815260078352848120600160a060020a0388168252909252928120549092610bbd9290918691610dd79190879063ffffffff612d9c16565b6000610bbd338484612c2c565b600954600160a060020a031690565b600160a060020a03918216600090815260106020908152604080832093909416825291909152205490565b600080611ef66115b4565b1515611f3a576040805160e560020a62461bcd02815260206004820181905260248201526000805160206146c4833981519152604482015290519081900360640190fd5b600a54604080517f36c146f3000000000000000000000000000000000000000000000000000000008152600481018a90526024810188905260448101879052606481018690529051600160a060020a03909216916336c146f39160848082019260009290919082900301818387803b158015611fb557600080fd5b505af1158015611fc9573d6000803e3d6000fd5b50505050600091505b8551821015612069576001805483908110611fe957fe5b6000918252602090912001548651600160a060020a0390911691506120459087908490811061201457fe5b6020908102909101810151600160a060020a0384166000908152600d9092526040909120549063ffffffff612fab16565b600160a060020a0382166000908152600d6020526040902055600190910190611fd2565b50505050505050565b6000547501000000000000000000000000000000000000000000900460ff1681565b600061209e6115b4565b15156120e2576040805160e560020a62461bcd02815260206004820181905260248201526000805160206146c4833981519152604482015290519081900360640190fd5b6120eb84612e39565b9283555060019091015550565b600a54600160a060020a031690565b60006008546000141561211f57506305f5e100610c26565b60085461212a612563565b81151561213357fe5b04905090565b600160a060020a031660009081526002602052604090205490565b600080600a60009054906101000a9004600160a060020a0316600160a060020a03166373a3d4246040518163ffffffff1660e060020a028152600401602060405180830381600087803b1580156121aa57600080fd5b505af11580156121be573d6000803e3d6000fd5b505050506040513d60208110156121d457600080fd5b505190506121e181613522565b91505b5090565b6000808080808080808811612247576040805160e560020a62461bcd02815260206004820152601460248201527f73656c6c20616d6f756e74206973207a65726f21000000000000000000000000604482015290519081900360640190fd5b600a54604080517f74e85fd2000000000000000000000000000000000000000000000000000000008152336004820152602481018c9052604481018b90529051600160a060020a03909216916374e85fd29160648082019260009290919082900301818387803b1580156122ba57600080fd5b505af11580156122ce573d6000803e3d6000fd5b5050600a54604080517f48ee201d000000000000000000000000000000000000000000000000000000008152600481018e90529051600160a060020a0390921693506348ee201d925060248082019260e0929091908290030181600087803b15801561233957600080fd5b505af115801561234d573d6000803e3d6000fd5b505050506040513d60e081101561236357600080fd5b5060408101516060820151608083015160a09093015191995097509095509350612393854263ffffffff6131ba16565b600954604080517fda66325700000000000000000000000000000000000000000000000000000000815263ffffffff8a1660048201529051929750600160a060020a039091169163da663257916024808201926020929091908290030181600087803b15801561240257600080fd5b505af1158015612416573d6000803e3d6000fd5b505050506040513d602081101561242c57600080fd5b5051601154604080517f2f581f4800000000000000000000000000000000000000000000000000000000815260048101849052602481018890526044810189905260ff8b1660648201529051929550600160a060020a0390911691632f581f48916084808201926020929091908290030181600087803b1580156124af57600080fd5b505af11580156124c3573d6000803e3d6000fd5b505050506040513d60208110156124d957600080fd5b505191506124ed828963ffffffff612eb816565b604080518a81526020810183905281519293508b9233927f4d6194525a1265d47b1d6b65f640509c7a2a8aa847fd0654fac933032e1348ac928290030190a36125378160016132c1565b505050505050505050565b600080600061255084612e39565b8054600190910154909590945092505050565b60015460009081908180805b8383101561266157600180548490811061258557fe5b60009182526020808320909101546009546040805160e060020a6341976e09028152600160a060020a0393841660048201819052915191975091909216936341976e099360248084019491939192918390030190829087803b1580156125ea57600080fd5b505af11580156125fe573d6000803e3d6000fd5b505050506040513d602081101561261457600080fd5b5051600160a060020a0383166000908152600d60205260409020549091506126549061264790839063ffffffff612eb816565b869063ffffffff612fab16565b945060019092019161256f565b5092949350505050565b600160a060020a03918216600090815260076020908152604080832093909416825291909152205490565b600f6020526000908152604090205481565b60038054829081106126b657fe5b60009182526020909120600290910201805460019091015490915082565b6126dc6115b4565b1515612720576040805160e560020a62461bcd02815260206004820181905260248201526000805160206146c4833981519152604482015290519081900360640190fd5b610e9a600182613c23565b6127336115b4565b1515612777576040805160e560020a62461bcd02815260206004820181905260248201526000805160206146c4833981519152604482015290519081900360640190fd5b600b91909155600c55565b606080606060006001805490506040519080825280602002602001820160405280156127b8578160200160208202803883390190505b509150600090505b60015481101561282257600260006001838154811015156127dd57fe5b6000918252602080832090910154600160a060020a03168352820192909252604001902054825183908390811061281057fe5b602090810290910101526001016127c0565b6001828180548060200260200160405190810160405280929190818152602001828054801561287a57602002820191906000526020600020905b8154600160a060020a0316815260019091019060200180831161285c575b505050505091509350935050509091565b6128936115b4565b15156128d7576040805160e560020a62461bcd02815260206004820181905260248201526000805160206146c4833981519152604482015290519081900360640190fd5b610e9a81613cc9565b6128e86115b4565b151561292c576040805160e560020a62461bcd02815260206004820181905260248201526000805160206146c4833981519152604482015290519081900360640190fd5b6000805491151575010000000000000000000000000000000000000000000275ff00000000000000000000000000000000000000000019909216919091179055565b610e9a60018054806020026020016040519081016040528092919081815260200182805480156129c757602002820191906000526020600020905b8154600160a060020a031681526001909101906020018083116129a9575b505050505082613dc2565b600160a060020a0383161515612a57576040805160e560020a62461bcd028152602060048201526024808201527f45524332303a20617070726f76652066726f6d20746865207a65726f2061646460448201527f7265737300000000000000000000000000000000000000000000000000000000606482015290519081900360840190fd5b600160a060020a0382161515612add576040805160e560020a62461bcd02815260206004820152602260248201527f45524332303a20617070726f766520746f20746865207a65726f20616464726560448201527f7373000000000000000000000000000000000000000000000000000000000000606482015290519081900360840190fd5b600160a060020a03808416600081815260076020908152604080832094871680845294825291829020859055815185815291517f8c5be1e5ebec7d5bd14f71427d1e84f3dd0314c0f7b2291e5b200ac8c7c3b9259281900390910190a3505050565b8154600090815b81811015612b8e5783600160a060020a03168582815481101515612b6657fe5b600091825260209091200154600160a060020a03161415612b8657612b8e565b600101612b46565b81811015612c215760001982018114612c07578460018303815481101515612bb257fe5b6000918252602090912001548554600160a060020a0390911690869083908110612bd857fe5b9060005260206000200160006101000a815481600160a060020a030219169083600160a060020a031602179055505b8454612c1786600019830161468a565b5060019250610ee1565b506000949350505050565b600160a060020a0383161515612cb2576040805160e560020a62461bcd02815260206004820152602560248201527f45524332303a207472616e736665722066726f6d20746865207a65726f20616460448201527f6472657373000000000000000000000000000000000000000000000000000000606482015290519081900360840190fd5b600160a060020a0382161515612d38576040805160e560020a62461bcd02815260206004820152602360248201527f45524332303a207472616e7366657220746f20746865207a65726f206164647260448201527f6573730000000000000000000000000000000000000000000000000000000000606482015290519081900360840190fd5b612d428382613e22565b612d4c8282613ef1565b81600160a060020a031683600160a060020a03167fddf252ad1be2c89b69c2b068fc378daa952ba7f163c4a11628f55a4df523b3ef836040518082815260200191505060405180910390a3505050565b6000808285851115612e2f5760405160e560020a62461bcd0281526004018080602001828103825283818151815260200191508051906020019080838360005b83811015612df4578181015183820152602001612ddc565b50505050905090810190601f168015612e215780820380516001836020036101000a031916815260200191505b509250505060405180910390fd5b5050509103919050565b6003546000908210612e95576040805160e560020a62461bcd02815260206004820152601260248201527f66656520747970652069732076616c6964210000000000000000000000000000604482015290519081900360640190fd5b6003805483908110612ea357fe5b90600052602060002090600202019050919050565b600080831515612ecb5760009150612f5b565b50828202828482811515612edb57fe5b0414612f57576040805160e560020a62461bcd02815260206004820152602160248201527f536166654d6174683a206d756c7469706c69636174696f6e206f766572666c6f60448201527f7700000000000000000000000000000000000000000000000000000000000000606482015290519081900360840190fd5b8091505b5092915050565b6000612fa483836040805190810160405280601a81526020017f536166654d6174683a206469766973696f6e206279207a65726f000000000000815250613fa0565b9392505050565b600082820183811015612f57576040805160e560020a62461bcd02815260206004820152601b60248201527f536166654d6174683a206164646974696f6e206f766572666c6f770000000000604482015290519081900360640190fd5b600080600061301685611530565b151561306c576040805160e560020a62461bcd02815260206004820152601f60248201527f736574746c656d656e7420697320756e737570706f7274656420746f6b656e00604482015290519081900360640190fd5b60009150600160a060020a038516151561308857349150613133565b60008411156131335750604080517f23b872dd0000000000000000000000000000000000000000000000000000000081523360048201523060248201526044810185905290518591600160a060020a038316916323b872dd916064808201926020929091908290030181600087803b15801561310357600080fd5b505af1158015613117573d6000803e3d6000fd5b505050506040513d602081101561312d57600080fd5b50849250505b509392505050565b600160a060020a038216600090815260026020526040902054613164908263ffffffff612fab16565b600160a060020a038316600081815260026020908152604091829020939093558051848152905191927f1104eee7f034069140a0655d153038cedf9e65e5724018c555a8d56cfb6bee7792918290030190a25050565b6000612fa483836040805190810160405280601e81526020017f536166654d6174683a207375627472616374696f6e206f766572666c6f770000815250612d9c565b600160a060020a038216151561325c576040805160e560020a62461bcd02815260206004820152601f60248201527f45524332303a206d696e7420746f20746865207a65726f206164647265737300604482015290519081900360640190fd5b60085461326f908263ffffffff612fab16565b60085561327c8282613ef1565b604080518281529051600160a060020a038416916000917fddf252ad1be2c89b69c2b068fc378daa952ba7f163c4a11628f55a4df523b3ef9181900360200190a35050565b6001546040805182815260208084028201019091526000919060609083908190819081908680156132fc578160200160208202803883390190505b509450600093505b8584101561342657600180548590811061331a57fe5b60009182526020808320909101546009546040805160e060020a6341976e09028152600160a060020a0393841660048201819052915191985091909216936341976e099360248084019491939192918390030190829087803b15801561337f57600080fd5b505af1158015613393573d6000803e3d6000fd5b505050506040513d60208110156133a957600080fd5b5051600160a060020a0384166000908152600d60205260409020548651919350908690869081106133d657fe5b60209081029091010152845161341a9061340d908790879081106133f657fe5b60209081029091010151849063ffffffff612eb816565b889063ffffffff612fab16565b50600190930192613304565b86151561343257612537565b600093505b85841015612537576134778761346b8b888881518110151561345557fe5b602090810290910101519063ffffffff612eb816565b9063ffffffff612f6216565b90506134a181868681518110151561348b57fe5b602090810290910101519063ffffffff6131ba16565b600160a060020a0384166000908152600d60205260409020556134c63384838b61400c565b600190930192613437565b8151600090815b81811015612c215783600160a060020a031685828151811015156134f857fe5b90602001906020020151600160a060020a0316141561351a5760019250610ee1565b6001016134d8565b600b54600090819061353a908463ffffffff612eb816565b600c54909150612fa490829063ffffffff612f6216565b600080600080600080600960009054906101000a9004600160a060020a0316600160a060020a031663da6632578b6040518263ffffffff1660e060020a028152600401808263ffffffff168152602001915050602060405180830381600087803b1580156135be57600080fd5b505af11580156135d2573d6000803e3d6000fd5b505050506040513d60208110156135e857600080fd5b5051601154604080517f2f581f4800000000000000000000000000000000000000000000000000000000815260048101849052602481018f9052604481018d905260ff8b1660648201529051929850600160a060020a0390911691632f581f48916084808201926020929091908290030181600087803b15801561366b57600080fd5b505af115801561367f573d6000803e3d6000fd5b505050506040513d602081101561369557600080fd5b505194506136a9888663ffffffff612eb816565b93506136b58d8d613008565b9b5060008c1161370f576040805160e560020a62461bcd02815260206004820152601a60248201527f736574746c656d656e7420616d6f756e74206973207a65726f21000000000000604482015290519081900360640190fd5b61371a600085610ea2565b9250600960009054906101000a9004600160a060020a0316600160a060020a03166341976e098e6040518263ffffffff1660e060020a0281526004018082600160a060020a0316600160a060020a03168152602001915050602060405180830381600087803b15801561378c57600080fd5b505af11580156137a0573d6000803e3d6000fd5b505050506040513d60208110156137b657600080fd5b505191506137ca848463ffffffff612fab16565b6137da838e63ffffffff612eb816565b1015613856576040805160e560020a62461bcd02815260206004820152602160248201527f736574746c656d656e7420617373657420697320696e73756666696369656e7460448201527f2100000000000000000000000000000000000000000000000000000000000000606482015290519081900360840190fd5b613866848363ffffffff612f6216565b9350613878838363ffffffff612f6216565b92506138848d8461313b565b6138a4836138988e8763ffffffff6131ba16565b9063ffffffff6131ba16565b9b5060008c11156138ba576138ba338e8e614051565b600a60009054906101000a9004600160a060020a0316600160a060020a03166345e19fdd6040518163ffffffff1660e060020a02815260040160e060405180830381600087803b15801561390d57600080fd5b505af1158015613921573d6000803e3d6000fd5b505050506040513d60e081101561393757600080fd5b81019080805190602001909291908051906020019092919080519060200190929190805190602001909291908051906020019092919080519060200190929190805190602001909291905050505050505050509050808d600160a060020a031633600160a060020a03167f09e4fd1b37f40234b903951f986d8b64cb9c99657348f04cda4a75fbe743684d88888d60405180848152602001838152602001828152602001935050505060405180910390a450505050505050505050505050565b33600090815260066020908152604080832054600f9092528220548291606091839182918291613a319161346b908d63ffffffff612eb816565b336000908152600f6020526040902054909650613a54908763ffffffff6131ba16565b336000818152600f6020526040902091909155613a71908b614196565b600154604080518281526020808402820101909152909550858015613aa0578160200160208202803883390190505b509350613aae888a89614281565b6001805460408051602080840282018101909252828152949c50929650613b149392830182828015613b0957602002820191906000526020600020905b8154600160a060020a03168152600190910190602001808311613aeb575b50505050508a614428565b9150828483815181101515613b2557fe5b602090810290910101525060005b600088118015613b4257508481105b15613ba257613b7588600183815481101515613b5a57fe5b600091825260209091200154600160a060020a031689614281565b855191995093508390859083908110613b8a57fe5b60209081029091010180519091019052600101613b33565b6000881115613bb957613bb688868661447d565b93505b5060005b84811015613c1757613c0f33600183815481101515613bd857fe5b6000918252602090912001548651600160a060020a0390911690879085908110613bfe57fe5b90602001906020020151600461400c565b600101613bbd565b50505050505050505050565b613c8682805480602002602001604051908101604052809291908181526020018280548015613c7b57602002820191906000526020600020905b8154600160a060020a03168152600190910190602001808311613c5d575b5050505050826134d1565b1515613cc557815460018101835560008381526020902001805473ffffffffffffffffffffffffffffffffffffffff1916600160a060020a0383161790555b5050565b600160a060020a0381161515613d4f576040805160e560020a62461bcd02815260206004820152602660248201527f4f776e61626c653a206e6577206f776e657220697320746865207a65726f206160448201527f6464726573730000000000000000000000000000000000000000000000000000606482015290519081900360840190fd5b60008054604051600160a060020a038085169361010090930416917f8be0079c531659141344cd1fd0a4f28419497f9722a3daafe3b4186f6b6457e091a360008054600160a060020a039092166101000274ffffffffffffffffffffffffffffffffffffffff0019909216919091179055565b613dcc82826134d1565b1515613cc5576040805160e560020a62461bcd02815260206004820181905260248201527f77686974654c6973743a207573696e6720696e76616c69642061646472657373604482015290519081900360640190fd5b600160a060020a0382161515613ea8576040805160e560020a62461bcd02815260206004820152602360248201527f45524332303a207472616e7366657220746f20746865207a65726f206164647260448201527f6573730000000000000000000000000000000000000000000000000000000000606482015290519081900360840190fd5b600160a060020a038216600090815260066020526040902054613ed1908263ffffffff6131ba16565b600160a060020a0390921660009081526006602052604090209190915550565b600160a060020a0382161515613f77576040805160e560020a62461bcd02815260206004820152602360248201527f45524332303a207472616e7366657220746f20746865207a65726f206164647260448201527f6573730000000000000000000000000000000000000000000000000000000000606482015290519081900360840190fd5b600160a060020a038216600090815260066020526040902054613ed1908263ffffffff612fab16565b60008082818511613ff65760405160e560020a62461bcd02815260040180806020018281038252838181518152602001915080519060200190808383600083811015612df4578181015183820152602001612ddc565b50838581151561400257fe5b0495945050505050565b600082151561401a5761404a565b6140248284610ea2565b9050614040858561403b868563ffffffff6131ba16565b614051565b61404a848261313b565b5050505050565b600081151561405f57611b9e565b600160a060020a03831615156140ab57604051600160a060020a0385169083156108fc029084906000818181858888f193505050501580156140a5573d6000803e3d6000fd5b50614145565b50604080517fa9059cbb000000000000000000000000000000000000000000000000000000008152600160a060020a038581166004830152602482018490529151849283169163a9059cbb9160448083019260209291908290030181600087803b15801561411857600080fd5b505af115801561412c573d6000803e3d6000fd5b505050506040513d602081101561414257600080fd5b50505b82600160a060020a031684600160a060020a03167f8aaaec2388cc390cde69685f78340e15f36d424b6b6b595f549dd883931f9c9b846040518082815260200191505060405180910390a350505050565b600160a060020a038216151561421c576040805160e560020a62461bcd02815260206004820152602160248201527f45524332303a206275726e2066726f6d20746865207a65726f2061646472657360448201527f7300000000000000000000000000000000000000000000000000000000000000606482015290519081900360840190fd5b6142268282613e22565b600854614239908263ffffffff6131ba16565b600855604080518281529051600091600160a060020a038516917fddf252ad1be2c89b69c2b068fc378daa952ba7f163c4a11628f55a4df523b3ef9181900360200190a35050565b336000908152601060209081526040808320600160a060020a03861684529091528120548190818080808415156142be578996506000955061441b565b6142ce888663ffffffff612eb816565b600160a060020a038a166000908152600d6020908152604080832054600e9092529091205491955061430a9161346b908863ffffffff612eb816565b945084841015614318578394505b84151561432b578996506000955061441b565b6009546040805160e060020a6341976e09028152600160a060020a038c81166004830152915191909216916341976e099160248083019260209291908290030181600087803b15801561437d57600080fd5b505af1158015614391573d6000803e3d6000fd5b505050506040513d60208110156143a757600080fd5b505192506143bb8a8463ffffffff612f6216565b91508115156143d0576000965086955061441b565b8482116143dd57816143df565b845b905084821115614413576144096143fc828563ffffffff612eb816565b8b9063ffffffff6131ba16565b819650965061441b565b600096509450845b5050505050935093915050565b8151600090815b818110156144755783600160a060020a0316858281518110151561444f57fe5b90602001906020020151600160a060020a0316141561446d57614475565b60010161442f565b949350505050565b6060600060606000806000809450876040519080825280602002602001820160405280156144b5578160200160208202803883390190505b509350600092505b878310156146015760018054849081106144d357fe5b6000918252602090912001548751600160a060020a03909116925061452f908890859081106144fe57fe5b6020908102909101810151600160a060020a0385166000908152600d9092526040909120549063ffffffff6131ba16565b848481518110151561453d57fe5b60209081029091018101919091526009546040805160e060020a6341976e09028152600160a060020a038681166004830152915191909216926341976e0992602480820193918290030181600087803b15801561459957600080fd5b505af11580156145ad573d6000803e3d6000fd5b505050506040513d60208110156145c357600080fd5b505184519091506145f590612647908690869081106145de57fe5b60209081029091010151839063ffffffff612eb816565b506001909201916144bd565b84151561460d5761467e565b600092505b8783101561467a576146576146338661346b8c888881518110151561345557fe5b888581518110151561464157fe5b602090810290910101519063ffffffff612fab16565b878481518110151561466557fe5b60209081029091010152600190920191614612565b8695505b50505050509392505050565b81548183558181111561152b5760008381526020902061152b918101908301610c2691905b808211156121e457600081556001016146af56004f776e61626c653a2063616c6c6572206973206e6f7420746865206f776e6572a165627a7a7230582070a5335aaaaa6fe4d5f5a852c94de59d988aaee0e43fa42e839a4a5db426ee3b00294f776e61626c653a2063616c6c6572206973206e6f7420746865206f776e6572",
  "source": "pragma solidity ^0.4.26;\r\nimport \"./modules/SafeMath.sol\";\r\nimport \"./CollateralPool.sol\";\r\nimport \"./modules/whiteList.sol\";\r\nimport \"./interfaces/IOptionsPrice.sol\";\r\ncontract OptionsMangerV2 is CollateralPool,ImportOptionsPrice {\r\n    constructor (address oracleAddr,address optionsPriceAddr,address optionsPoolAddr) public{\r\n        setOracleAddress(oracleAddr);\r\n        setOptionsPriceAddress(optionsPriceAddr);\r\n        setOptionsPoolAddress(optionsPoolAddr);\r\n    }\r\n    using SafeMath for uint256;\r\n    event BuyOption(address indexed from,address indexed settlement,uint256 indexed optionId,uint256 optionPrice,uint256 settlementAmount,uint256 optionAmount);\r\n    event SellOption(address indexed from,uint256 indexed optionId,uint256 amount,uint256 sellValue);\r\n    event ExerciseOption(address indexed from,uint256 indexed optionId,uint256 amount,uint256 sellValue);\r\n    function buyOption(address settlement,uint256 settlementAmount, uint256 strikePrice,uint32 underlying,\r\n        uint256 expiration,uint256 amount,uint8 optType)public payable{\r\n        _optionsPool.buyOptionCheck(expiration,underlying);\r\n        uint256 CollateralNeed = _optionsPool.createOptions(msg.sender,optType,underlying,now+expiration,strikePrice,amount,settlement);\r\n        CollateralNeed = calculateCollateral(CollateralNeed);\r\n        require(getLeftCollateral()>=CollateralNeed,\"collateral is insufficient!\");\r\n        buyOption_sub(settlement,settlementAmount,strikePrice,underlying,expiration,amount,optType);\r\n    }\r\n    function buyOption_sub(address settlement,uint256 settlementAmount, uint256 strikePrice,\r\n            uint32 underlying,uint256 expiration,uint256 amount,uint8 optType)internal{\r\n        uint256 underlyingPrice = _oracle.getUnderlyingPrice(underlying);\r\n        uint256 optionPrice = _optionsPrice.getOptionsPrice(underlyingPrice,strikePrice,expiration,optType);\r\n        uint256 allPay = amount.mul(optionPrice);\r\n        settlementAmount = getPayableAmount(settlement,settlementAmount);\r\n        require(settlementAmount>0 , \"settlement amount is zero!\");\r\n        uint256 fee = calculateFee(buyFee,allPay);\r\n        uint256 settlePrice = _oracle.getPrice(settlement);\r\n        require(settlePrice.mul(settlementAmount)>=allPay.add(fee),\"settlement asset is insufficient!\");\r\n        allPay = allPay.div(settlePrice);\r\n        fee = fee.div(settlePrice);\r\n        _addTransactionFee(settlement,fee);\r\n        settlementAmount = settlementAmount.sub(allPay).sub(fee);\r\n        if (settlementAmount > 0){\r\n            _transferPayback(msg.sender,settlement,settlementAmount);\r\n        }\r\n        (uint256 id,,,,,,)=_optionsPool.getLatestOption();\r\n        emit BuyOption(msg.sender,settlement,id,optionPrice,allPay,amount); \r\n    }\r\n    function sellOption(uint256 optionsId,uint256 amount)public{\r\n        require(amount>0 , \"sell amount is zero!\");\r\n        _optionsPool.burnOptions(msg.sender,optionsId,amount);\r\n        (,,uint8 optType,uint32 underlying,uint256 expiration,uint256 strikePrice,) = _optionsPool.getOptionsById(optionsId);\r\n        expiration = expiration.sub(now);\r\n        uint256 currentPrice = _oracle.getUnderlyingPrice(underlying);\r\n        uint256 optPrice = _optionsPrice.getOptionsPrice(currentPrice,strikePrice,expiration,optType);\r\n        uint256 allPay = optPrice.mul(amount);\r\n        emit SellOption(msg.sender,optionsId,amount,allPay);\r\n        _paybackWorth(allPay,sellFee);\r\n    }\r\n    function exerciseOption(uint256 optionsId,uint256 amount)public{\r\n        require(amount>0 , \"exercise amount is zero!\");\r\n        uint256 allPay = _optionsPool.getExerciseWorth(optionsId,amount);\r\n        if (allPay == 0) {\r\n            return;\r\n        }\r\n        _optionsPool.burnOptions(msg.sender,optionsId,amount);\r\n        emit ExerciseOption(msg.sender,optionsId,amount,allPay);\r\n        _paybackWorth(allPay,exerciseFee);\r\n    }\r\n\r\n}",
  "sourcePath": "C:\\work\\solidity\\FinnexusOptions_V2\\contracts\\OptionsMangerV2.sol",
  "compiler": {
    "name": "solc",
    "version": "0.4.26+commit.4563c3fc.Emscripten.clang"
  },
  "schemaVersion": "3.1.0",
  "updatedAt": "2020-07-21T14:36:56.562Z",
  "networkType": "ethereum",
  "devdoc": {
    "methods": {
      "addWhiteList(address)": {
        "details": "Implementation of add an eligible address into the whitelist.\r",
        "params": {
          "addAddress": "new eligible address.\r"
        }
      },
      "allowance(address,address)": {
        "details": "See {IERC20-allowance}.\r"
      },
      "approve(address,uint256)": {
        "details": "See {IERC20-approve}.\r      * Requirements:\r      * - `spender` cannot be the zero address.\r"
      },
      "balanceOf(address)": {
        "details": "See {IERC20-balanceOf}.\r"
      },
      "decreaseAllowance(address,uint256)": {
        "details": "Atomically decreases the allowance granted to `spender` by the caller.\r      * This is an alternative to {approve} that can be used as a mitigation for\r problems described in {IERC20-approve}.\r      * Emits an {Approval} event indicating the updated allowance.\r      * Requirements:\r      * - `spender` cannot be the zero address.\r - `spender` must have allowance for the caller of at least\r `subtractedValue`.\r"
      },
      "getWhiteList()": {
        "details": "Implementation of getting the eligible whitelist.\r"
      },
      "increaseAllowance(address,uint256)": {
        "details": "Atomically increases the allowance granted to `spender` by the caller.\r      * This is an alternative to {approve} that can be used as a mitigation for\r problems described in {IERC20-approve}.\r      * Emits an {Approval} event indicating the updated allowance.\r      * Requirements:\r      * - `spender` cannot be the zero address.\r"
      },
      "isEligibleAddress(address)": {
        "details": "Implementation of testing whether the input address is eligible.\r",
        "params": {
          "tmpAddress": "input address for testing.\r"
        }
      },
      "isOwner()": {
        "details": "Returns true if the caller is the current owner."
      },
      "owner()": {
        "details": "Returns the address of the current owner."
      },
      "removeWhiteList(address)": {
        "details": "Implementation of revoke an invalid address from the whitelist.\r",
        "params": {
          "removeAddress": "revoked address.\r"
        }
      },
      "renounceOwnership()": {
        "details": "Leaves the contract without owner. It will not be possible to call `onlyOwner` functions anymore. Can only be called by the current owner.     * NOTE: Renouncing ownership will leave the contract without an owner, thereby removing any functionality that is only available to the owner."
      },
      "setTransactionFee(uint256,uint256,uint256)": {
        "details": "set the rate of trasaction fee.\r",
        "params": {
          "denominator": "thedenominator of transaction fee.\r transaction fee = numerator/denominator;\r",
          "feeType": "the transaction fee type\r",
          "numerator": "the numerator of transaction fee .\r"
        }
      },
      "totalSupply()": {
        "details": "See {IERC20-totalSupply}.\r"
      },
      "transfer(address,uint256)": {
        "details": "See {IERC20-transfer}.\r      * Requirements:\r      * - `recipient` cannot be the zero address.\r - the caller must have a balance of at least `amount`.\r"
      },
      "transferFrom(address,address,uint256)": {
        "details": "See {IERC20-transferFrom}.\r      * Emits an {Approval} event indicating the updated allowance. This is not\r required by the EIP. See the note at the beginning of {ERC20};\r      * Requirements:\r - `sender` and `recipient` cannot be the zero address.\r - `sender` must have a balance of at least `amount`.\r - the caller must have allowance for `sender`'s tokens of at least\r `amount`.\r"
      },
      "transferOwnership(address)": {
        "details": "Transfers ownership of the contract to a new account (`newOwner`). Can only be called by the current owner."
      }
    }
  },
  "userdoc": {
    "methods": {
      "setHalt(bool)": {
        "notice": "function Emergency situation that requires contribution period to stop or not."
      }
    }
  }
}