{
  "contractName": "OptionsBase",
  "abi": [
    {
      "constant": false,
      "inputs": [
        {
          "name": "volatility",
          "type": "address"
        }
      ],
      "name": "setVolatilityAddress",
      "outputs": [],
      "payable": false,
      "stateMutability": "nonpayable",
      "type": "function"
    },
    {
      "constant": true,
      "inputs": [],
      "name": "getUnderlyingAssets",
      "outputs": [
        {
          "name": "",
          "type": "uint32[]"
        }
      ],
      "payable": false,
      "stateMutability": "view",
      "type": "function"
    },
    {
      "constant": true,
      "inputs": [
        {
          "name": "",
          "type": "uint256"
        }
      ],
      "name": "expirationList",
      "outputs": [
        {
          "name": "",
          "type": "uint256"
        }
      ],
      "payable": false,
      "stateMutability": "view",
      "type": "function"
    },
    {
      "constant": true,
      "inputs": [
        {
          "name": "",
          "type": "uint256"
        }
      ],
      "name": "underlyingAssets",
      "outputs": [
        {
          "name": "",
          "type": "uint32"
        }
      ],
      "payable": false,
      "stateMutability": "view",
      "type": "function"
    },
    {
      "constant": true,
      "inputs": [],
      "name": "getVolatilityAddress",
      "outputs": [
        {
          "name": "",
          "type": "address"
        }
      ],
      "payable": false,
      "stateMutability": "view",
      "type": "function"
    },
    {
      "constant": false,
      "inputs": [
        {
          "name": "oracle",
          "type": "address"
        }
      ],
      "name": "setOracleAddress",
      "outputs": [],
      "payable": false,
      "stateMutability": "nonpayable",
      "type": "function"
    },
    {
      "constant": true,
      "inputs": [
        {
          "name": "",
          "type": "address"
        },
        {
          "name": "",
          "type": "uint256"
        }
      ],
      "name": "optionsBalances",
      "outputs": [
        {
          "name": "",
          "type": "uint256"
        }
      ],
      "payable": false,
      "stateMutability": "view",
      "type": "function"
    },
    {
      "constant": true,
      "inputs": [],
      "name": "getOptionsPriceAddress",
      "outputs": [
        {
          "name": "",
          "type": "address"
        }
      ],
      "payable": false,
      "stateMutability": "view",
      "type": "function"
    },
    {
      "constant": false,
      "inputs": [],
      "name": "renounceOwnership",
      "outputs": [],
      "payable": false,
      "stateMutability": "nonpayable",
      "type": "function"
    },
    {
      "constant": true,
      "inputs": [],
      "name": "owner",
      "outputs": [
        {
          "name": "",
          "type": "address"
        }
      ],
      "payable": false,
      "stateMutability": "view",
      "type": "function"
    },
    {
      "constant": true,
      "inputs": [
        {
          "name": "",
          "type": "uint256"
        }
      ],
      "name": "allOptions",
      "outputs": [
        {
          "name": "optionID",
          "type": "uint256"
        },
        {
          "name": "owner",
          "type": "address"
        },
        {
          "name": "optType",
          "type": "uint8"
        },
        {
          "name": "underlying",
          "type": "uint32"
        },
        {
          "name": "expiration",
          "type": "uint256"
        },
        {
          "name": "strikePrice",
          "type": "uint256"
        },
        {
          "name": "amount",
          "type": "uint256"
        }
      ],
      "payable": false,
      "stateMutability": "view",
      "type": "function"
    },
    {
      "constant": true,
      "inputs": [],
      "name": "isOwner",
      "outputs": [
        {
          "name": "",
          "type": "bool"
        }
      ],
      "payable": false,
      "stateMutability": "view",
      "type": "function"
    },
    {
      "constant": false,
      "inputs": [
        {
          "name": "optionsPrice",
          "type": "address"
        }
      ],
      "name": "setOptionsPriceAddress",
      "outputs": [],
      "payable": false,
      "stateMutability": "nonpayable",
      "type": "function"
    },
    {
      "constant": false,
      "inputs": [
        {
          "name": "underlying",
          "type": "uint32"
        }
      ],
      "name": "addUnderlyingAsset",
      "outputs": [],
      "payable": false,
      "stateMutability": "nonpayable",
      "type": "function"
    },
    {
      "constant": true,
      "inputs": [],
      "name": "getOracleAddress",
      "outputs": [
        {
          "name": "",
          "type": "address"
        }
      ],
      "payable": false,
      "stateMutability": "view",
      "type": "function"
    },
    {
      "constant": false,
      "inputs": [
        {
          "name": "managerAddress",
          "type": "address"
        }
      ],
      "name": "setManager",
      "outputs": [],
      "payable": false,
      "stateMutability": "nonpayable",
      "type": "function"
    },
    {
      "constant": true,
      "inputs": [],
      "name": "getManager",
      "outputs": [
        {
          "name": "",
          "type": "address"
        }
      ],
      "payable": false,
      "stateMutability": "view",
      "type": "function"
    },
    {
      "constant": false,
      "inputs": [
        {
          "name": "removeUnderlying",
          "type": "uint32"
        }
      ],
      "name": "removeUnderlyingAssets",
      "outputs": [
        {
          "name": "",
          "type": "bool"
        }
      ],
      "payable": false,
      "stateMutability": "nonpayable",
      "type": "function"
    },
    {
      "constant": true,
      "inputs": [
        {
          "name": "underlying",
          "type": "uint32"
        }
      ],
      "name": "isEligibleUnderlyingAsset",
      "outputs": [
        {
          "name": "",
          "type": "bool"
        }
      ],
      "payable": false,
      "stateMutability": "view",
      "type": "function"
    },
    {
      "constant": true,
      "inputs": [
        {
          "name": "underlying",
          "type": "uint32"
        }
      ],
      "name": "checkUnderlyingAsset",
      "outputs": [],
      "payable": false,
      "stateMutability": "view",
      "type": "function"
    },
    {
      "constant": false,
      "inputs": [
        {
          "name": "newOwner",
          "type": "address"
        }
      ],
      "name": "transferOwnership",
      "outputs": [],
      "payable": false,
      "stateMutability": "nonpayable",
      "type": "function"
    },
    {
      "inputs": [
        {
          "name": "oracleAddr",
          "type": "address"
        },
        {
          "name": "optionsPriceAddr",
          "type": "address"
        },
        {
          "name": "ivAddress",
          "type": "address"
        }
      ],
      "payable": false,
      "stateMutability": "nonpayable",
      "type": "constructor"
    },
    {
      "anonymous": false,
      "inputs": [
        {
          "indexed": true,
          "name": "owner",
          "type": "address"
        },
        {
          "indexed": true,
          "name": "optionID",
          "type": "uint256"
        },
        {
          "indexed": false,
          "name": "optType",
          "type": "uint8"
        },
        {
          "indexed": false,
          "name": "underlying",
          "type": "uint32"
        },
        {
          "indexed": false,
          "name": "expiration",
          "type": "uint256"
        },
        {
          "indexed": false,
          "name": "strikePrice",
          "type": "uint256"
        },
        {
          "indexed": false,
          "name": "amount",
          "type": "uint256"
        }
      ],
      "name": "CreateOption",
      "type": "event"
    },
    {
      "anonymous": false,
      "inputs": [
        {
          "indexed": true,
          "name": "owner",
          "type": "address"
        },
        {
          "indexed": true,
          "name": "optionID",
          "type": "uint256"
        },
        {
          "indexed": false,
          "name": "amount",
          "type": "uint256"
        }
      ],
      "name": "BurnOption",
      "type": "event"
    },
    {
      "anonymous": false,
      "inputs": [
        {
          "indexed": false,
          "name": "value1",
          "type": "uint256"
        },
        {
          "indexed": false,
          "name": "value2",
          "type": "uint256"
        },
        {
          "indexed": false,
          "name": "value3",
          "type": "uint256"
        }
      ],
      "name": "DebugEvent",
      "type": "event"
    },
    {
      "anonymous": false,
      "inputs": [
        {
          "indexed": true,
          "name": "previousOwner",
          "type": "address"
        },
        {
          "indexed": true,
          "name": "newOwner",
          "type": "address"
        }
      ],
      "name": "OwnershipTransferred",
      "type": "event"
    },
    {
      "constant": true,
      "inputs": [
        {
          "name": "user",
          "type": "address"
        }
      ],
      "name": "getUserOptionsID",
      "outputs": [
        {
          "name": "",
          "type": "uint256[]"
        }
      ],
      "payable": false,
      "stateMutability": "view",
      "type": "function"
    },
    {
      "constant": true,
      "inputs": [],
      "name": "getOptionInfoLength",
      "outputs": [
        {
          "name": "",
          "type": "uint256"
        }
      ],
      "payable": false,
      "stateMutability": "view",
      "type": "function"
    },
    {
      "constant": true,
      "inputs": [
        {
          "name": "from",
          "type": "uint256"
        },
        {
          "name": "size",
          "type": "uint256"
        }
      ],
      "name": "getOptionInfoList",
      "outputs": [
        {
          "name": "",
          "type": "address[]"
        },
        {
          "name": "",
          "type": "uint256[]"
        },
        {
          "name": "",
          "type": "uint256[]"
        },
        {
          "name": "",
          "type": "uint256[]"
        },
        {
          "name": "",
          "type": "uint256[]"
        }
      ],
      "payable": false,
      "stateMutability": "view",
      "type": "function"
    },
    {
      "constant": true,
      "inputs": [
        {
          "name": "ids",
          "type": "uint256[]"
        }
      ],
      "name": "getOptionInfoListFromID",
      "outputs": [
        {
          "name": "",
          "type": "address[]"
        },
        {
          "name": "",
          "type": "uint256[]"
        },
        {
          "name": "",
          "type": "uint256[]"
        },
        {
          "name": "",
          "type": "uint256[]"
        },
        {
          "name": "",
          "type": "uint256[]"
        }
      ],
      "payable": false,
      "stateMutability": "view",
      "type": "function"
    },
    {
      "constant": true,
      "inputs": [],
      "name": "getLatestOption",
      "outputs": [
        {
          "name": "",
          "type": "uint256"
        },
        {
          "name": "",
          "type": "address"
        },
        {
          "name": "",
          "type": "uint8"
        },
        {
          "name": "",
          "type": "uint32"
        },
        {
          "name": "",
          "type": "uint256"
        },
        {
          "name": "",
          "type": "uint256"
        },
        {
          "name": "",
          "type": "uint256"
        }
      ],
      "payable": false,
      "stateMutability": "view",
      "type": "function"
    },
    {
      "constant": true,
      "inputs": [
        {
          "name": "optionsId",
          "type": "uint256"
        }
      ],
      "name": "getOptionsById",
      "outputs": [
        {
          "name": "",
          "type": "uint256"
        },
        {
          "name": "",
          "type": "address"
        },
        {
          "name": "",
          "type": "uint8"
        },
        {
          "name": "",
          "type": "uint32"
        },
        {
          "name": "",
          "type": "uint256"
        },
        {
          "name": "",
          "type": "uint256"
        },
        {
          "name": "",
          "type": "uint256"
        }
      ],
      "payable": false,
      "stateMutability": "view",
      "type": "function"
    },
    {
      "constant": false,
      "inputs": [
        {
          "name": "from",
          "type": "address"
        },
        {
          "name": "settlement",
          "type": "address"
        },
        {
          "name": "type_ly_exp",
          "type": "uint256"
        },
        {
          "name": "strikePrice",
          "type": "uint256"
        },
        {
          "name": "optionPrice",
          "type": "uint256"
        },
        {
          "name": "amount",
          "type": "uint256"
        }
      ],
      "name": "createOptions",
      "outputs": [],
      "payable": false,
      "stateMutability": "nonpayable",
      "type": "function"
    },
    {
      "constant": true,
      "inputs": [
        {
          "name": "optionsId",
          "type": "uint256"
        },
        {
          "name": "amount",
          "type": "uint256"
        }
      ],
      "name": "getExerciseWorth",
      "outputs": [
        {
          "name": "",
          "type": "uint256"
        }
      ],
      "payable": false,
      "stateMutability": "view",
      "type": "function"
    },
    {
      "constant": true,
      "inputs": [
        {
          "name": "expiration",
          "type": "uint256"
        },
        {
          "name": "underlying",
          "type": "uint32"
        }
      ],
      "name": "buyOptionCheck",
      "outputs": [],
      "payable": false,
      "stateMutability": "view",
      "type": "function"
    },
    {
      "constant": false,
      "inputs": [
        {
          "name": "expiration",
          "type": "uint256"
        }
      ],
      "name": "addExpiration",
      "outputs": [],
      "payable": false,
      "stateMutability": "nonpayable",
      "type": "function"
    },
    {
      "constant": false,
      "inputs": [
        {
          "name": "removeExpiration",
          "type": "uint256"
        }
      ],
      "name": "removeExpirationList",
      "outputs": [
        {
          "name": "",
          "type": "bool"
        }
      ],
      "payable": false,
      "stateMutability": "nonpayable",
      "type": "function"
    },
    {
      "constant": true,
      "inputs": [],
      "name": "getExpirationList",
      "outputs": [
        {
          "name": "",
          "type": "uint256[]"
        }
      ],
      "payable": false,
      "stateMutability": "view",
      "type": "function"
    },
    {
      "constant": true,
      "inputs": [
        {
          "name": "expiration",
          "type": "uint256"
        }
      ],
      "name": "isEligibleExpiration",
      "outputs": [
        {
          "name": "",
          "type": "bool"
        }
      ],
      "payable": false,
      "stateMutability": "view",
      "type": "function"
    },
    {
      "constant": true,
      "inputs": [
        {
          "name": "expiration",
          "type": "uint256"
        }
      ],
      "name": "checkExpiration",
      "outputs": [],
      "payable": false,
      "stateMutability": "view",
      "type": "function"
    }
  ],
  "bytecode": "0x60806040523480156200001157600080fd5b5060405160608062002bfa83398101604081815282516020840151919093015160008054600160a060020a031916331780825592939192600160a060020a0316917f8be0079c531659141344cd1fd0a4f28419497f9722a3daafe3b4186f6b6457e0908290a36200008b8364010000000062000132810204565b6200009f82640100000000620001c4810204565b620000b38164010000000062000256810204565b6040805160e0810182526201518081526203f480602082015262093a8091810191909152620d2f0060608201526213c680608082015262278d0060a08201526276a70060c08201526200010b906009906007620002fa565b506040805160208101909152600180825262000128918162000351565b5050505062000441565b62000145640100000000620002e8810204565b1515620001a257604080517f08c379a0000000000000000000000000000000000000000000000000000000008152602060048201819052602482015260008051602062002bda833981519152604482015290519081900360640190fd5b60038054600160a060020a031916600160a060020a0392909216919091179055565b620001d7640100000000620002e8810204565b15156200023457604080517f08c379a0000000000000000000000000000000000000000000000000000000008152602060048201819052602482015260008051602062002bda833981519152604482015290519081900360640190fd5b60048054600160a060020a031916600160a060020a0392909216919091179055565b62000269640100000000620002e8810204565b1515620002c657604080517f08c379a0000000000000000000000000000000000000000000000000000000008152602060048201819052602482015260008051602062002bda833981519152604482015290519081900360640190fd5b60058054600160a060020a031916600160a060020a0392909216919091179055565b600054600160a060020a031633145b90565b8280548282559060005260206000209081019282156200033f579160200282015b828111156200033f578251829062ffffff169055916020019190600101906200031b565b506200034d92915062000400565b5090565b82805482825590600052602060002090600701600890048101928215620003f25791602002820160005b83821115620003be57835183826101000a81548163ffffffff021916908360ff16021790555092602001926004016020816003010492830192600103026200037b565b8015620003f05782816101000a81549063ffffffff0219169055600401602081600301049283019260010302620003be565b505b506200034d9291506200041d565b620002f791905b808211156200034d576000815560010162000407565b620002f791905b808211156200034d57805463ffffffff1916815560010162000424565b61278980620004516000396000f3006080604052600436106101b65763ffffffff7c01000000000000000000000000000000000000000000000000000000006000350416630438d49081146101bb5780632967eafe1461033e578063354af360146103615780633582d789146103b65780633ad2fb571461041b5780633ad980991461043c5780633b50c4d11461046657806342e5479d1461049757806345e19fdd146104c857806348ee201d146105245780634c69c00f1461053c57806355c47cb21461055d5780635ca4b73b1461058157806367b8ceb914610596578063715018a6146105b1578063723931ca146105c65780637cfff2d8146105de5780637e838fa3146105f65780638da5cb5b146106225780638ea745b8146106375780638f32d59b1461064f5780639052d5f814610664578063924a69ce146106795780639ef975d2146106ac578063a093e2d0146106c4578063afec82fc146106e5578063b18b78dd14610703578063bec3107f14610718578063d0ebdbe71461072d578063d50095841461074e578063d6d1401214610763578063db6ad2bd14610781578063e7c568151461079f578063ee29c94a146107c0578063f2fde38b146107de575b600080fd5b3480156101c757600080fd5b506101d66004356024356107ff565b60405180806020018060200180602001806020018060200186810386528b818151815260200191508051906020019060200280838360005b8381101561022657818101518382015260200161020e565b5050505090500186810385528a818151815260200191508051906020019060200280838360005b8381101561026557818101518382015260200161024d565b50505050905001868103845289818151815260200191508051906020019060200280838360005b838110156102a457818101518382015260200161028c565b50505050905001868103835288818151815260200191508051906020019060200280838360005b838110156102e35781810151838201526020016102cb565b50505050905001868103825287818151815260200191508051906020019060200280838360005b8381101561032257818101518382015260200161030a565b505050509050019a505050505050505050505060405180910390f35b34801561034a57600080fd5b5061035f600160a060020a0360043516610a4d565b005b34801561036d57600080fd5b50604080516020600480358082013583810280860185019096528085526101d695369593946024949385019291829185019084908082843750949750610abb9650505050505050565b3480156103c257600080fd5b506103cb610cd5565b60408051602080825283518183015283519192839290830191858101910280838360005b838110156104075781810151838201526020016103ef565b505050509050019250505060405180910390f35b34801561042757600080fd5b5061035f60043563ffffffff60243516610d5a565b34801561044857600080fd5b50610454600435610dc6565b60408051918252519081900360200190f35b34801561047257600080fd5b5061047e600435610de5565b6040805163ffffffff9092168252519081900360200190f35b3480156104a357600080fd5b506104ac610e1d565b60408051600160a060020a039092168252519081900360200190f35b3480156104d457600080fd5b506104dd610e2c565b60408051978852600160a060020a03909616602088015260ff9094168686015263ffffffff9092166060860152608085015260a084015260c0830152519081900360e00190f35b34801561053057600080fd5b506104dd600435610f06565b34801561054857600080fd5b5061035f600160a060020a0360043516610f69565b34801561056957600080fd5b50610454600160a060020a0360043516602435610fd7565b34801561058d57600080fd5b506104ac611007565b3480156105a257600080fd5b50610454600435602435611016565b3480156105bd57600080fd5b5061035f6111b4565b3480156105d257600080fd5b5061035f60043561124a565b3480156105ea57600080fd5b5061035f6004356112d2565b34801561060257600080fd5b5061060e600435611329565b604080519115158252519081900360200190f35b34801561062e57600080fd5b506104ac611388565b34801561064357600080fd5b506104dd600435611397565b34801561065b57600080fd5b5061060e6113f7565b34801561067057600080fd5b506103cb611408565b34801561068557600080fd5b5061035f600160a060020a036004358116906024351660443560643560843560a43561145f565b3480156106b857600080fd5b5061060e600435611757565b3480156106d057600080fd5b5061035f600160a060020a03600435166117b3565b3480156106f157600080fd5b5061035f63ffffffff60043516611821565b34801561070f57600080fd5b506104ac611878565b34801561072457600080fd5b50610454611887565b34801561073957600080fd5b5061035f600160a060020a036004351661188d565b34801561075a57600080fd5b506104ac6118fb565b34801561076f57600080fd5b5061060e63ffffffff6004351661190a565b34801561078d57600080fd5b5061060e63ffffffff60043516611963565b3480156107ab57600080fd5b506103cb600160a060020a03600435166119eb565b3480156107cc57600080fd5b5061035f63ffffffff60043516611a57565b3480156107ea57600080fd5b5061035f600160a060020a0360043516611add565b6060806060806060806060806060806000806006805490508d8f01111561083657600654610833908f63ffffffff611b3216565b9c505b60008d1115610a3c578c604051908082528060200260200182016040528015610869578160200160208202803883390190505b5096508c604051908082528060200260200182016040528015610896578160200160208202803883390190505b5095508c6040519080825280602002602001820160405280156108c3578160200160208202803883390190505b5094508c6040519080825280602002602001820160405280156108f0578160200160208202803883390190505b5093508c60405190808252806020026020018201604052801561091d578160200160208202803883390190505b509250600091505b8c821015610a2c57600680548f840190811061093d57fe5b6000918252602090912060059091020160018101548851919250600160a060020a03169088908490811061096d57fe5b600160a060020a0390921660209283029091019091015260018101548651601060ff60a060020a84048116919091011660020a63ffffffff60a860020a909304831602909116908790849081106109c057fe5b60209081029091010152600281015485518690849081106109dd57fe5b60209081029091010152600381015484518590849081106109fa57fe5b6020908102909101015260048101548351849084908110610a1757fe5b60209081029091010152600190910190610925565b86868686869b509b509b509b509b505b505050505050509295509295909350565b610a556113f7565b1515610a99576040805160e560020a62461bcd028152602060048201819052602482015260008051602061273e833981519152604482015290519081900360640190fd5b60058054600160a060020a031916600160a060020a0392909216919091179055565b6060806060806060600060608060608060606000808d51975087604051908082528060200260200182016040528015610afe578160200160208202803883390190505b50965087604051908082528060200260200182016040528015610b2b578160200160208202803883390190505b50955087604051908082528060200260200182016040528015610b58578160200160208202803883390190505b50945087604051908082528060200260200182016040528015610b85578160200160208202803883390190505b50935087604051908082528060200260200182016040528015610bb2578160200160208202803883390190505b509250600091505b87821015610cc157610be28e83815181101515610bd357fe5b90602001906020020151611b7b565b60018101548851919250600160a060020a031690889084908110610c0257fe5b600160a060020a0390921660209283029091019091015260018101548651601060ff60a060020a84048116919091011660020a63ffffffff60a860020a90930483160290911690879084908110610c5557fe5b6020908102909101015260028101548551869084908110610c7257fe5b6020908102909101015260038101548451859084908110610c8f57fe5b6020908102909101015260048101548351849084908110610cac57fe5b60209081029091010152600190910190610bba565b50949c939b50919950975095509350505050565b60606001805480602002602001604051908101604052809291908181526020018280548015610d4f57602002820191906000526020600020906000905b82829054906101000a900463ffffffff1663ffffffff1681526020019060040190602082600301049283019260010382029150808411610d125790505b505050505090505b90565b610d6381611963565b1515610db9576040805160e560020a62461bcd02815260206004820152601f60248201527f756e6465726c79696e6720697320756e737570706f7274656420617373657400604482015290519081900360640190fd5b610dc28261124a565b5050565b6009805482908110610dd457fe5b600091825260209091200154905081565b6001805482908110610df357fe5b9060005260206000209060089182820401919006600402915054906101000a900463ffffffff1681565b600554600160a060020a031690565b60065460009081908190819081908190819081808211610e96576040805160e560020a62461bcd02815260206004820152601560248201527f6f7074696f6e73206c69737420697320656d7074790000000000000000000000604482015290519081900360640190fd5b600680546000198401908110610ea857fe5b600091825260209091206005909102018054600182015460028301546003840154600490940154929d600160a060020a0383169d5060a060020a830460ff169c5060a860020a90920463ffffffff169a509850919650945092505050565b600080600080600080600080610f1b89611b7b565b8054600182015460028301546003840154600490940154929d600160a060020a0383169d5060a060020a830460ff169c5060a860020a90920463ffffffff169a509850919650945092505050565b610f716113f7565b1515610fb5576040805160e560020a62461bcd028152602060048201819052602482015260008051602061273e833981519152604482015290519081900360640190fd5b60038054600160a060020a031916600160a060020a0392909216919091179055565b600860205281600052604060002081815481101515610ff257fe5b90600052602060002001600091509150505481565b600454600160a060020a031690565b6000611020612676565b60008061102c86611b7b565b6040805160e081018252825481526001830154600160a060020a038116602083015260a060020a810460ff169282019290925260a860020a90910463ffffffff16606082015260028201546080820152600382015460a082015260049091015460c0820152925061109c83611c0b565b6110a68386611c66565b6003546060840151604080517fda66325700000000000000000000000000000000000000000000000000000000815263ffffffff909216600483015251600160a060020a039092169163da663257916024808201926020929091908290030181600087803b15801561111757600080fd5b505af115801561112b573d6000803e3d6000fd5b505050506040513d602081101561114157600080fd5b505160408401519092506000915060ff161515611172578260a0015182111561116d575060a082015181035b611188565b8260a0015182101561118857818360a001510390505b80151561119857600093506111ab565b6111a8818663ffffffff611cc216565b93505b50505092915050565b6111bc6113f7565b1515611200576040805160e560020a62461bcd028152602060048201819052602482015260008051602061273e833981519152604482015290519081900360640190fd5b60008054604051600160a060020a03909116907f8be0079c531659141344cd1fd0a4f28419497f9722a3daafe3b4186f6b6457e0908390a360008054600160a060020a0319169055565b61125381611757565b15156112cf576040805160e560020a62461bcd02815260206004820152602160248201527f65787069726174696f6e2076616c7565206973206e6f7420737570706f72746560448201527f6400000000000000000000000000000000000000000000000000000000000000606482015290519081900360840190fd5b50565b6112da6113f7565b151561131e576040805160e560020a62461bcd028152602060048201819052602482015260008051602061273e833981519152604482015290519081900360640190fd5b6112cf600982611d6c565b60006113336113f7565b1515611377576040805160e560020a62461bcd028152602060048201819052602482015260008051602061273e833981519152604482015290519081900360640190fd5b611382600983611de3565b92915050565b600054600160a060020a031690565b60068054829081106113a557fe5b600091825260209091206005909102018054600182015460028301546003840154600490940154929450600160a060020a0382169360a060020a830460ff169360a860020a90930463ffffffff169287565b600054600160a060020a0316331490565b60606009805480602002602001604051908101604052809291908181526020018280548015610d4f57602002820191906000526020600020905b815481526020019060010190808311611442575050505050905090565b600080600061146c612676565b600254600160a060020a031633146114f4576040805160e560020a62461bcd02815260206004820152602660248201527f4d616e6167657261626c653a2063616c6c6572206973206e6f7420746865204d60448201527f616e616765720000000000000000000000000000000000000000000000000000606482015290519081900360840190fd5b600654935061150288611e90565b925061150d88611e9d565b9150600660e0604051908101604052808660010181526020018c600160a060020a031681526020018560ff1681526020018463ffffffff168152602001426115548c611eb6565b01815260208082018b9052604091820189905283546001808201865560009586528286208551600590930201918255848301518282018054878701516060890151600160a060020a0319909216600160a060020a039485161774ff0000000000000000000000000000000000000000191660a060020a60ff909216919091021778ffffffff000000000000000000000000000000000000000000191660a860020a63ffffffff909216919091021790556080860151600284015560a0860151600384015560c090950151600490920191909155928e16845260088152908320805480840182559084529220908601910155600680548590811061165357fe5b60009182526020918290206040805160e081018252600593909302909101805483526001810154600160a060020a0381169484019490945260a060020a840460ff169183019190915260a860020a90920463ffffffff16606082015260028201546080820152600382015460a082015260049091015460c082015290506116db818a88611ed7565b836001018a600160a060020a03167f18f523957030bee670136363e25b2f847bf1bd07bb7b33c6d5475936a9aac70d8585426117168e611eb6565b6040805160ff909516855263ffffffff90931660208501520182820152606082018c9052608082018a9052519081900360a00190a350505050505050505050565b600061138260098054806020026020016040519081016040528092919081815260200182805480156117a857602002820191906000526020600020905b815481526020019060010190808311611794575b5050505050836121a5565b6117bb6113f7565b15156117ff576040805160e560020a62461bcd028152602060048201819052602482015260008051602061273e833981519152604482015290519081900360640190fd5b60048054600160a060020a031916600160a060020a0392909216919091179055565b6118296113f7565b151561186d576040805160e560020a62461bcd028152602060048201819052602482015260008051602061273e833981519152604482015290519081900360640190fd5b6112cf6001826121e4565b600354600160a060020a031690565b60065490565b6118956113f7565b15156118d9576040805160e560020a62461bcd028152602060048201819052602482015260008051602061273e833981519152604482015290519081900360640190fd5b60028054600160a060020a031916600160a060020a0392909216919091179055565b600254600160a060020a031690565b60006119146113f7565b1515611958576040805160e560020a62461bcd028152602060048201819052602482015260008051602061273e833981519152604482015290519081900360640190fd5b6113826001836122ad565b600061138260018054806020026020016040519081016040528092919081815260200182805480156119e057602002820191906000526020600020906000905b82829054906101000a900463ffffffff1663ffffffff16815260200190600401906020826003010492830192600103820291508084116119a35790505b5050505050836123a4565b600160a060020a038116600090815260086020908152604091829020805483518184028101840190945280845260609392830182828015611a4b57602002820191906000526020600020905b815481526020019060010190808311611a37575b50505050509050919050565b6112cf6001805480602002602001604051908101604052809291908181526020018280548015611ad257602002820191906000526020600020906000905b82829054906101000a900463ffffffff1663ffffffff1681526020019060040190602082600301049283019260010382029150808411611a955790505b5050505050826123ef565b611ae56113f7565b1515611b29576040805160e560020a62461bcd028152602060048201819052602482015260008051602061273e833981519152604482015290519081900360640190fd5b6112cf8161244f565b6000611b7483836040805190810160405280601e81526020017f536166654d6174683a207375627472616374696f6e206f766572666c6f770000815250612530565b9392505050565b60008082118015611b8e57506006548211155b1515611be4576040805160e560020a62461bcd02815260206004820152601660248201527f6f7074696f6e206964206973206e6f7420657869737400000000000000000000604482015290519081900360640190fd5b600680546000198401908110611bf657fe5b90600052602060002090600502019050919050565b608081015142106112cf576040805160e560020a62461bcd02815260206004820152601160248201527f6f7074696f6e2069732065787069726564000000000000000000000000000000604482015290519081900360640190fd5b60c0820151811115610dc2576040805160e560020a62461bcd02815260206004820152601d60248201527f6f7074696f6e20616d6f756e7420697320696e73756666696369656e74000000604482015290519081900360640190fd5b600080831515611cd55760009150611d65565b50828202828482811515611ce557fe5b0414611d61576040805160e560020a62461bcd02815260206004820152602160248201527f536166654d6174683a206d756c7469706c69636174696f6e206f766572666c6f60448201527f7700000000000000000000000000000000000000000000000000000000000000606482015290519081900360840190fd5b8091505b5092915050565b611dc582805480602002602001604051908101604052809291908181526020018280548015611dba57602002820191906000526020600020905b815481526020019060010190808311611da6575b5050505050826121a5565b1515610dc25781546001810183556000928352602090922090910155565b8154600090815b81811015611e1f57838582815481101515611e0157fe5b90600052602060002001541415611e1757611e1f565b600101611dea565b81811015611e835760001982018114611e69578460018303815481101515611e4357fe5b90600052602060002001548582815481101515611e5c57fe5b6000918252602090912001555b8454611e798660001983016126c6565b5060019250611e88565b600092505b505092915050565b67ffffffffffffffff1690565b68010000000000000000900467ffffffffffffffff1690565b700100000000000000000000000000000000900467ffffffffffffffff1690565b60a08301516080840151600554606086015160408088015181517fb4277bc100000000000000000000000000000000000000000000000000000000815263ffffffff909316600484015260ff16602483015242909303604482018190526064820185905283519093600093849384938493600160a060020a039093169263b4277bc1926084808201939182900301818787803b158015611f7657600080fd5b505af1158015611f8a573d6000803e3d6000fd5b505050506040513d6040811015611fa057600080fd5b5080516020918201516004805460408e81015181517f055ef6ab0000000000000000000000000000000000000000000000000000000081529384018d9052602484018d9052604484018c9052606484018690526084840185905260ff1660a484015251939850919650600160a060020a039091169263055ef6ab9260c4808401938290030181600087803b15801561203757600080fd5b505af115801561204b573d6000803e3d6000fd5b505050506040513d602081101561206157600080fd5b5051600354604080517f41976e09000000000000000000000000000000000000000000000000000000008152600160a060020a038c81166004830152915193955061210b9391909216916341976e099160248083019260209291908290030181600087803b1580156120d257600080fd5b505af11580156120e6573d6000803e3d6000fd5b505050506040513d60208110156120fc57600080fd5b5051839063ffffffff6125cd16565b6040805160e081018252428152600160a060020a039a8b16602080830191825282840194855260608301968752608083019b8c5260a0830198895260c083019788529c516000190160009081526007909d5291909b209a518b555160018b018054600160a060020a03191691909a161790985550955160028801559451600387015592516004860155505051600583015551600690910155565b8151600090815b81811015611e83578385828151811015156121c357fe5b9060200190602002015114156121dc5760019250611e88565b6001016121ac565b6122698280548060200260200160405190810160405280929190818152602001828054801561225e57602002820191906000526020600020906000905b82829054906101000a900463ffffffff1663ffffffff16815260200190600401906020826003010492830192600103820291508084116122215790505b5050505050826123a4565b1515610dc2578154600181018355600092835260209092206008830401805460079093166004026101000a63ffffffff818102199094169290931692909202179055565b8154600090815b81811015612308578363ffffffff1685828154811015156122d157fe5b6000918252602090912060088204015460079091166004026101000a900463ffffffff16141561230057612308565b6001016122b4565b81811015611e83576000198201811461239457846001830381548110151561232c57fe5b90600052602060002090600891828204019190066004029054906101000a900463ffffffff16858281548110151561236057fe5b90600052602060002090600891828204019190066004026101000a81548163ffffffff021916908363ffffffff1602179055505b8454611e798660001983016126ef565b8151600090815b81811015611e83578363ffffffff1685828151811015156123c857fe5b9060200190602002015163ffffffff1614156123e75760019250611e88565b6001016123ab565b6123f982826123a4565b1515610dc2576040805160e560020a62461bcd02815260206004820152601f60248201527f77686974654c6973743a207573696e6720696e76616c69642075696e74333200604482015290519081900360640190fd5b600160a060020a03811615156124d5576040805160e560020a62461bcd02815260206004820152602660248201527f4f776e61626c653a206e6577206f776e657220697320746865207a65726f206160448201527f6464726573730000000000000000000000000000000000000000000000000000606482015290519081900360840190fd5b60008054604051600160a060020a03808516939216917f8be0079c531659141344cd1fd0a4f28419497f9722a3daafe3b4186f6b6457e091a360008054600160a060020a031916600160a060020a0392909216919091179055565b60008082858511156125c35760405160e560020a62461bcd0281526004018080602001828103825283818151815260200191508051906020019080838360005b83811015612588578181015183820152602001612570565b50505050905090810190601f1680156125b55780820380516001836020036101000a031916815260200191505b509250505060405180910390fd5b5050509103919050565b6000611b7483836040805190810160405280601a81526020017f536166654d6174683a206469766973696f6e206279207a65726f000000000000815250600080828185116126605760405160e560020a62461bcd02815260040180806020018281038252838181518152602001915080519060200190808383600083811015612588578181015183820152602001612570565b50838581151561266c57fe5b0495945050505050565b60e060405190810160405280600081526020016000600160a060020a03168152602001600060ff168152602001600063ffffffff1681526020016000815260200160008152602001600081525090565b8154818355818111156126ea576000838152602090206126ea91810190830161271f565b505050565b8154818355818111156126ea5760070160089004816007016008900483600052602060002091820191016126ea91905b610d5791905b808211156127395760008155600101612725565b509056004f776e61626c653a2063616c6c6572206973206e6f7420746865206f776e6572a165627a7a72305820c18c224e0568f08082bb21ffd16f8eea8bddae9d428ac0037c6c3140dd8f775600294f776e61626c653a2063616c6c6572206973206e6f7420746865206f776e6572",
  "source": "pragma solidity ^0.4.26;\r\nimport \"./modules/SafeMath.sol\";\r\nimport \"./modules/Managerable.sol\";\r\nimport \"./interfaces/ICompoundOracle.sol\";\r\nimport \"./modules/underlyingAssets.sol\";\r\nimport \"./interfaces/IOptionsPrice.sol\";\r\nimport \"./interfaces/IVolatility.sol\";\r\nimport \"./modules/tuple.sol\";\r\ncontract OptionsBase is UnderlyingAssets,Managerable,ImportOracle,ImportOptionsPrice,ImportVolatility {\r\n    \r\n    using SafeMath for uint256;\r\n    struct OptionsInfo {\r\n        uint256     optionID;\r\n        address     owner;\r\n        uint8   \toptType;    //0 for call, 1 for put\r\n        uint32\t\tunderlying;\r\n        uint256\t\texpiration;\r\n        uint256     strikePrice;\r\n        uint256     amount;\r\n    }\r\n\r\n    struct OptionsInfoEx{\r\n        uint256\t\t createdTime;\r\n        address      settlement;\r\n        uint256      tokenTimePrice;\r\n        uint256      fullPrice;\r\n        uint256      optionPrice;\r\n        uint256      ivNumerator;\r\n        uint256      ivDenominator;\r\n    }\r\n    //options information\r\n    OptionsInfo[] public allOptions;\r\n    mapping(uint256=>OptionsInfoEx) internal optionExtraMap;\r\n\r\n    //user options balances\r\n    mapping(address=>uint256[]) public optionsBalances;\r\n    //expiration whitelist\r\n    uint256[] public expirationList;\r\n\r\n    event CreateOption(address indexed owner,uint256 indexed optionID,uint8 optType,uint32 underlying,uint256 expiration,uint256 strikePrice,uint256 amount);\r\n    event BurnOption(address indexed owner,uint256 indexed optionID,uint amount);\r\n    event DebugEvent(uint256 value1,uint256 value2,uint256 value3);\r\n    constructor (address oracleAddr,address optionsPriceAddr,address ivAddress) public{\r\n        setOracleAddress(oracleAddr);\r\n        setOptionsPriceAddress(optionsPriceAddr);\r\n        setVolatilityAddress(ivAddress);\r\n        expirationList =  [1 days,3 days, 7 days, 10 days, 15 days, 30 days,90 days];\r\n        underlyingAssets = [1];\r\n    }\r\n    function getUserOptionsID(address user)public view returns(uint256[]){\r\n        return optionsBalances[user];\r\n    }\r\n    function getOptionInfoLength()public view returns (uint256){\r\n        return allOptions.length;\r\n    }\r\n    function getOptionInfoList(uint256 from,uint256 size)public view \r\n                returns(address[],uint256[],uint256[],uint256[],uint256[]){\r\n        if (from+size>allOptions.length){\r\n            size = allOptions.length.sub(from);\r\n        }\r\n        if (size>0){\r\n            address[] memory ownerArr = new address[](size);\r\n            uint256[] memory typeAndUnderArr = new uint256[](size);\r\n            uint256[] memory expArr = new uint256[](size);\r\n            uint256[] memory priceArr = new uint256[](size);\r\n            uint256[] memory amountArr = new uint256[](size);\r\n            for (uint i=0;i<size;i++){\r\n                OptionsInfo storage info = allOptions[from+i];\r\n                ownerArr[i] = info.owner;\r\n                typeAndUnderArr[i] = info.underlying << 16 + info.optType;\r\n                expArr[i] = info.expiration;\r\n                priceArr[i] = info.strikePrice;\r\n                amountArr[i] = info.amount;\r\n            }\r\n            return (ownerArr,typeAndUnderArr,expArr,priceArr,amountArr);\r\n        }\r\n    }\r\n    function getOptionInfoListFromID(uint256[] ids)public view \r\n                returns(address[],uint256[],uint256[],uint256[],uint256[]){\r\n        uint256 size = ids.length;\r\n        address[] memory ownerArr = new address[](size);\r\n        uint256[] memory typeAndUnderArr = new uint256[](size);\r\n        uint256[] memory expArr = new uint256[](size);\r\n        uint256[] memory priceArr = new uint256[](size);\r\n        uint256[] memory amountArr = new uint256[](size);\r\n        for (uint i=0;i<size;i++){\r\n            OptionsInfo storage info = _getOptionsById(ids[i]);\r\n            ownerArr[i] = info.owner;\r\n            typeAndUnderArr[i] = info.underlying << 16 + info.optType;\r\n            expArr[i] = info.expiration;\r\n            priceArr[i] = info.strikePrice;\r\n            amountArr[i] = info.amount;\r\n        }\r\n        return (ownerArr,typeAndUnderArr,expArr,priceArr,amountArr);\r\n    }\r\n    function getLatestOption()public view returns(uint256,address,uint8,uint32,uint256,uint256,uint256){\r\n        uint256 len = allOptions.length;\r\n        require(len>0,\"options list is empty\");\r\n        OptionsInfo storage info = allOptions[len-1];\r\n        return (info.optionID,info.owner,info.optType,info.underlying,info.expiration,info.strikePrice,info.amount);\r\n    }\r\n\r\n    function getOptionsById(uint256 optionsId)public view returns(uint256,address,uint8,uint32,uint256,uint256,uint256){\r\n        OptionsInfo storage info = _getOptionsById(optionsId);\r\n        return (info.optionID,info.owner,info.optType,info.underlying,info.expiration,info.strikePrice,info.amount);\r\n    }\r\n\r\n    function getUnderlyingPrices()internal view returns(uint256[] memory){\r\n        uint256 underlyingLen = underlyingAssets.length;\r\n        uint256[] memory prices = new uint256[](underlyingLen);\r\n        for (uint256 i = 0;i<underlyingLen;i++){\r\n            prices[i] = _oracle.getUnderlyingPrice(underlyingAssets[i]);\r\n        }\r\n        return prices;\r\n    }\r\n\r\n    function createOptions(address from,address settlement,uint256 type_ly_exp,uint256 strikePrice,uint256 optionPrice,\r\n                uint256 amount) onlyManager public {\r\n        uint256 optionID = allOptions.length;\r\n        uint8 optType = uint8(tuple64.getValue0(type_ly_exp));\r\n        uint32 underlying = uint32(tuple64.getValue1(type_ly_exp));\r\n        allOptions.push(OptionsInfo(optionID+1,from,optType,underlying,tuple64.getValue2(type_ly_exp)+now,strikePrice,amount));\r\n        optionsBalances[from].push(optionID+1);\r\n        OptionsInfo memory info = allOptions[optionID];\r\n        setOptionsExtra(info,settlement,optionPrice);\r\n        emit CreateOption(from,optionID+1,optType,underlying,tuple64.getValue2(type_ly_exp)+now,strikePrice,amount);\r\n    }\r\n    function setOptionsExtra(OptionsInfo memory info,address settlement,uint256 optionPrice) internal{\r\n        uint256 strikePrice = info.strikePrice;\r\n        uint256 expiration = info.expiration - now;\r\n        (uint256 ivNumerator,uint256 ivDenominator) = _volatility.calculateIv(info.underlying,info.optType,expiration,strikePrice);\r\n        uint256 fullPrice = _optionsPrice.getOptionsPrice_iv(strikePrice,strikePrice,expiration,ivNumerator,ivDenominator,info.optType);\r\n        uint256 tokenTimePrice = fullPrice.div(_oracle.getPrice(settlement));\r\n        optionExtraMap[info.optionID-1]= OptionsInfoEx(now,settlement,tokenTimePrice,fullPrice,optionPrice,ivNumerator,ivDenominator);\r\n    }\r\n\r\n\r\n    function getExerciseWorth(uint256 optionsId,uint256 amount)public view returns(uint256){\r\n        OptionsInfo memory info = _getOptionsById(optionsId);\r\n        checkEligible(info);\r\n        checkSufficient(info,amount);\r\n        uint256 underlyingPrice = _oracle.getUnderlyingPrice(info.underlying);\r\n        uint256 tokenPayback = 0;\r\n        if (info.optType == 0){\r\n            if (underlyingPrice > info.strikePrice){\r\n                tokenPayback = underlyingPrice - info.strikePrice;\r\n            }\r\n        }else{\r\n            if ( underlyingPrice < info.strikePrice){\r\n                tokenPayback = info.strikePrice-underlyingPrice;\r\n            }\r\n        }\r\n        if (tokenPayback == 0 ){\r\n            return 0;\r\n        } \r\n        return tokenPayback.mul(amount);\r\n    }\r\n    function _getOptionsById(uint256 id)internal view returns(OptionsInfo storage){\r\n        require(id>0 && id <= allOptions.length,\"option id is not exist\");\r\n        return allOptions[id-1];\r\n    }\r\n    function checkEligible(OptionsInfo memory info)internal view{\r\n        require(info.expiration>now,\"option is expired\");\r\n    }\r\n    function checkOwner(OptionsInfo memory info,address owner)internal pure{\r\n        require(info.owner == owner,\"caller is not the options owner\");\r\n    }\r\n    function checkSufficient(OptionsInfo memory info,uint256 amount) internal pure{\r\n        require(info.amount >= amount,\"option amount is insufficient\");\r\n    }\r\n    function buyOptionCheck(uint256 expiration,uint32 underlying)public view{\r\n        require(isEligibleUnderlyingAsset(underlying) , \"underlying is unsupported asset\");\r\n        checkExpiration(expiration);\r\n    }\r\n        /**\r\n     * @dev Implementation of add an eligible expiration into the expirationList.\r\n     * @param expiration new eligible expiration.\r\n     */\r\n    function addExpiration(uint256 expiration)public onlyOwner{\r\n        whiteListUint256.addWhiteListUint256(expirationList,expiration);\r\n    }\r\n    /**\r\n     * @dev Implementation of revoke an invalid expiration from the expirationList.\r\n     * @param removeExpiration revoked expiration.\r\n     */\r\n    function removeExpirationList(uint256 removeExpiration)public onlyOwner returns(bool) {\r\n        return whiteListUint256.removeWhiteListUint256(expirationList,removeExpiration);\r\n    }\r\n    /**\r\n     * @dev Implementation of getting the eligible expirationList.\r\n     */\r\n    function getExpirationList()public view returns (uint256[]){\r\n        return expirationList;\r\n    }\r\n    /**\r\n     * @dev Implementation of testing whether the input expiration is eligible.\r\n     * @param expiration input expiration for testing.\r\n     */    \r\n    function isEligibleExpiration(uint256 expiration) public view returns (bool){\r\n        return whiteListUint256.isEligibleUint256(expirationList,expiration);\r\n    }\r\n    function checkExpiration(uint256 expiration) public view{\r\n        return require(isEligibleExpiration(expiration),\"expiration value is not supported\");\r\n    }\r\n    function _getEligibleExpirationIndex(uint256 expiration) internal view returns (uint256){\r\n        return whiteListUint256._getEligibleIndexUint256(expirationList,expiration);\r\n    }\r\n\r\n}",
  "sourcePath": "C:\\work\\solidity\\FinnexusOptions_V2\\contracts\\OptionsBase.sol",
  "compiler": {
    "name": "solc",
    "version": "0.4.26+commit.4563c3fc.Emscripten.clang"
  },
  "schemaVersion": "3.1.0",
  "updatedAt": "2020-07-22T15:09:36.445Z",
  "devdoc": {
    "methods": {
      "addExpiration(uint256)": {
        "details": "Implementation of add an eligible expiration into the expirationList.\r",
        "params": {
          "expiration": "new eligible expiration.\r"
        }
      },
      "addUnderlyingAsset(uint32)": {
        "details": "Implementation of add an eligible underlying into the underlyingAssets.\r",
        "params": {
          "underlying": "new eligible underlying.\r"
        }
      },
      "getExpirationList()": {
        "details": "Implementation of getting the eligible expirationList.\r"
      },
      "getUnderlyingAssets()": {
        "details": "Implementation of getting the eligible underlyingAssets.\r"
      },
      "isEligibleExpiration(uint256)": {
        "details": "Implementation of testing whether the input expiration is eligible.\r",
        "params": {
          "expiration": "input expiration for testing.\r"
        }
      },
      "isEligibleUnderlyingAsset(uint32)": {
        "details": "Implementation of testing whether the input underlying is eligible.\r",
        "params": {
          "underlying": "input underlying for testing.\r"
        }
      },
      "isOwner()": {
        "details": "Returns true if the caller is the current owner."
      },
      "owner()": {
        "details": "Returns the address of the current owner."
      },
      "removeExpirationList(uint256)": {
        "details": "Implementation of revoke an invalid expiration from the expirationList.\r",
        "params": {
          "removeExpiration": "revoked expiration.\r"
        }
      },
      "removeUnderlyingAssets(uint32)": {
        "details": "Implementation of revoke an invalid underlying from the underlyingAssets.\r",
        "params": {
          "removeUnderlying": "revoked underlying.\r"
        }
      },
      "renounceOwnership()": {
        "details": "Leaves the contract without owner. It will not be possible to call `onlyOwner` functions anymore. Can only be called by the current owner.     * NOTE: Renouncing ownership will leave the contract without an owner, thereby removing any functionality that is only available to the owner."
      },
      "transferOwnership(address)": {
        "details": "Transfers ownership of the contract to a new account (`newOwner`). Can only be called by the current owner."
      }
    }
  },
  "userdoc": {
    "methods": {
      "setManager(address)": {
        "notice": "contribution period to stop or not."
      }
    }
  }
}