{
  "contractName": "OptionsOccupiedCal",
  "abi": [
    {
      "anonymous": false,
      "inputs": [
        {
          "indexed": true,
          "internalType": "address",
          "name": "owner",
          "type": "address"
        },
        {
          "indexed": true,
          "internalType": "uint256",
          "name": "optionID",
          "type": "uint256"
        },
        {
          "indexed": false,
          "internalType": "uint256",
          "name": "amount",
          "type": "uint256"
        }
      ],
      "name": "BurnOption",
      "type": "event"
    },
    {
      "anonymous": false,
      "inputs": [
        {
          "indexed": true,
          "internalType": "address",
          "name": "owner",
          "type": "address"
        },
        {
          "indexed": true,
          "internalType": "uint256",
          "name": "optionID",
          "type": "uint256"
        },
        {
          "indexed": false,
          "internalType": "uint8",
          "name": "optType",
          "type": "uint8"
        },
        {
          "indexed": false,
          "internalType": "uint32",
          "name": "underlying",
          "type": "uint32"
        },
        {
          "indexed": false,
          "internalType": "uint256",
          "name": "expiration",
          "type": "uint256"
        },
        {
          "indexed": false,
          "internalType": "uint256",
          "name": "strikePrice",
          "type": "uint256"
        },
        {
          "indexed": false,
          "internalType": "uint256",
          "name": "amount",
          "type": "uint256"
        }
      ],
      "name": "CreateOption",
      "type": "event"
    },
    {
      "anonymous": false,
      "inputs": [
        {
          "indexed": true,
          "internalType": "address",
          "name": "previousOwner",
          "type": "address"
        },
        {
          "indexed": true,
          "internalType": "address",
          "name": "newOwner",
          "type": "address"
        }
      ],
      "name": "OwnershipTransferred",
      "type": "event"
    },
    {
      "constant": false,
      "inputs": [
        {
          "internalType": "uint256",
          "name": "expiration",
          "type": "uint256"
        }
      ],
      "name": "addExpiration",
      "outputs": [],
      "payable": false,
      "stateMutability": "nonpayable",
      "type": "function"
    },
    {
      "constant": false,
      "inputs": [
        {
          "internalType": "address",
          "name": "addAddress",
          "type": "address"
        }
      ],
      "name": "addOperator",
      "outputs": [],
      "payable": false,
      "stateMutability": "nonpayable",
      "type": "function"
    },
    {
      "constant": false,
      "inputs": [
        {
          "internalType": "uint32",
          "name": "underlying",
          "type": "uint32"
        }
      ],
      "name": "addUnderlyingAsset",
      "outputs": [],
      "payable": false,
      "stateMutability": "nonpayable",
      "type": "function"
    },
    {
      "constant": true,
      "inputs": [
        {
          "internalType": "uint256",
          "name": "expiration",
          "type": "uint256"
        },
        {
          "internalType": "uint32",
          "name": "underlying",
          "type": "uint32"
        }
      ],
      "name": "buyOptionCheck",
      "outputs": [],
      "payable": false,
      "stateMutability": "view",
      "type": "function"
    },
    {
      "constant": true,
      "inputs": [
        {
          "internalType": "uint256",
          "name": "expiration",
          "type": "uint256"
        }
      ],
      "name": "checkExpiration",
      "outputs": [],
      "payable": false,
      "stateMutability": "view",
      "type": "function"
    },
    {
      "constant": true,
      "inputs": [
        {
          "internalType": "uint256",
          "name": "optionID",
          "type": "uint256"
        },
        {
          "internalType": "uint256",
          "name": "amount",
          "type": "uint256"
        }
      ],
      "name": "getBurnedFullPay",
      "outputs": [
        {
          "internalType": "address",
          "name": "",
          "type": "address"
        },
        {
          "internalType": "uint256",
          "name": "",
          "type": "uint256"
        }
      ],
      "payable": false,
      "stateMutability": "view",
      "type": "function"
    },
    {
      "constant": true,
      "inputs": [
        {
          "internalType": "uint256",
          "name": "optionsId",
          "type": "uint256"
        },
        {
          "internalType": "uint256",
          "name": "amount",
          "type": "uint256"
        }
      ],
      "name": "getExerciseWorth",
      "outputs": [
        {
          "internalType": "uint256",
          "name": "",
          "type": "uint256"
        }
      ],
      "payable": false,
      "stateMutability": "view",
      "type": "function"
    },
    {
      "constant": true,
      "inputs": [],
      "name": "getExpirationList",
      "outputs": [
        {
          "internalType": "uint256[]",
          "name": "",
          "type": "uint256[]"
        }
      ],
      "payable": false,
      "stateMutability": "view",
      "type": "function"
    },
    {
      "constant": true,
      "inputs": [],
      "name": "getInputAmountRange",
      "outputs": [
        {
          "internalType": "uint256",
          "name": "",
          "type": "uint256"
        },
        {
          "internalType": "uint256",
          "name": "",
          "type": "uint256"
        }
      ],
      "payable": false,
      "stateMutability": "view",
      "type": "function"
    },
    {
      "constant": true,
      "inputs": [
        {
          "internalType": "uint256",
          "name": "item",
          "type": "uint256"
        }
      ],
      "name": "getItemTimeLimitation",
      "outputs": [
        {
          "internalType": "uint256",
          "name": "",
          "type": "uint256"
        }
      ],
      "payable": false,
      "stateMutability": "view",
      "type": "function"
    },
    {
      "constant": true,
      "inputs": [],
      "name": "getManager",
      "outputs": [
        {
          "internalType": "address",
          "name": "",
          "type": "address"
        }
      ],
      "payable": false,
      "stateMutability": "view",
      "type": "function"
    },
    {
      "constant": true,
      "inputs": [],
      "name": "getOperator",
      "outputs": [
        {
          "internalType": "address[]",
          "name": "",
          "type": "address[]"
        }
      ],
      "payable": false,
      "stateMutability": "view",
      "type": "function"
    },
    {
      "constant": true,
      "inputs": [],
      "name": "getOptionInfoLength",
      "outputs": [
        {
          "internalType": "uint256",
          "name": "",
          "type": "uint256"
        }
      ],
      "payable": false,
      "stateMutability": "view",
      "type": "function"
    },
    {
      "constant": true,
      "inputs": [
        {
          "internalType": "uint256",
          "name": "from",
          "type": "uint256"
        },
        {
          "internalType": "uint256",
          "name": "size",
          "type": "uint256"
        }
      ],
      "name": "getOptionInfoList",
      "outputs": [
        {
          "internalType": "address[]",
          "name": "",
          "type": "address[]"
        },
        {
          "internalType": "uint256[]",
          "name": "",
          "type": "uint256[]"
        },
        {
          "internalType": "uint256[]",
          "name": "",
          "type": "uint256[]"
        },
        {
          "internalType": "uint256[]",
          "name": "",
          "type": "uint256[]"
        },
        {
          "internalType": "uint256[]",
          "name": "",
          "type": "uint256[]"
        }
      ],
      "payable": false,
      "stateMutability": "view",
      "type": "function"
    },
    {
      "constant": true,
      "inputs": [
        {
          "internalType": "uint256[]",
          "name": "ids",
          "type": "uint256[]"
        }
      ],
      "name": "getOptionInfoListFromID",
      "outputs": [
        {
          "internalType": "address[]",
          "name": "",
          "type": "address[]"
        },
        {
          "internalType": "uint256[]",
          "name": "",
          "type": "uint256[]"
        },
        {
          "internalType": "uint256[]",
          "name": "",
          "type": "uint256[]"
        },
        {
          "internalType": "uint256[]",
          "name": "",
          "type": "uint256[]"
        },
        {
          "internalType": "uint256[]",
          "name": "",
          "type": "uint256[]"
        }
      ],
      "payable": false,
      "stateMutability": "view",
      "type": "function"
    },
    {
      "constant": true,
      "inputs": [
        {
          "internalType": "uint256",
          "name": "optionsId",
          "type": "uint256"
        }
      ],
      "name": "getOptionsById",
      "outputs": [
        {
          "internalType": "uint256",
          "name": "",
          "type": "uint256"
        },
        {
          "internalType": "address",
          "name": "",
          "type": "address"
        },
        {
          "internalType": "uint8",
          "name": "",
          "type": "uint8"
        },
        {
          "internalType": "uint32",
          "name": "",
          "type": "uint32"
        },
        {
          "internalType": "uint256",
          "name": "",
          "type": "uint256"
        },
        {
          "internalType": "uint256",
          "name": "",
          "type": "uint256"
        },
        {
          "internalType": "uint256",
          "name": "",
          "type": "uint256"
        }
      ],
      "payable": false,
      "stateMutability": "view",
      "type": "function"
    },
    {
      "constant": true,
      "inputs": [
        {
          "internalType": "uint256",
          "name": "optionsId",
          "type": "uint256"
        }
      ],
      "name": "getOptionsExtraById",
      "outputs": [
        {
          "internalType": "address",
          "name": "",
          "type": "address"
        },
        {
          "internalType": "uint256",
          "name": "",
          "type": "uint256"
        },
        {
          "internalType": "uint256",
          "name": "",
          "type": "uint256"
        },
        {
          "internalType": "uint256",
          "name": "",
          "type": "uint256"
        },
        {
          "internalType": "uint256",
          "name": "",
          "type": "uint256"
        },
        {
          "internalType": "uint256",
          "name": "",
          "type": "uint256"
        }
      ],
      "payable": false,
      "stateMutability": "view",
      "type": "function"
    },
    {
      "constant": true,
      "inputs": [
        {
          "internalType": "uint256",
          "name": "optionsId",
          "type": "uint256"
        }
      ],
      "name": "getOptionsLimitTimeById",
      "outputs": [
        {
          "internalType": "uint256",
          "name": "",
          "type": "uint256"
        }
      ],
      "payable": false,
      "stateMutability": "view",
      "type": "function"
    },
    {
      "constant": true,
      "inputs": [],
      "name": "getOptionsPriceAddress",
      "outputs": [
        {
          "internalType": "address",
          "name": "",
          "type": "address"
        }
      ],
      "payable": false,
      "stateMutability": "view",
      "type": "function"
    },
    {
      "constant": true,
      "inputs": [],
      "name": "getOracleAddress",
      "outputs": [
        {
          "internalType": "address",
          "name": "",
          "type": "address"
        }
      ],
      "payable": false,
      "stateMutability": "view",
      "type": "function"
    },
    {
      "constant": true,
      "inputs": [],
      "name": "getTimeLimitation",
      "outputs": [
        {
          "internalType": "uint256",
          "name": "",
          "type": "uint256"
        }
      ],
      "payable": false,
      "stateMutability": "view",
      "type": "function"
    },
    {
      "constant": true,
      "inputs": [],
      "name": "getUnderlyingAssets",
      "outputs": [
        {
          "internalType": "uint32[]",
          "name": "",
          "type": "uint32[]"
        }
      ],
      "payable": false,
      "stateMutability": "view",
      "type": "function"
    },
    {
      "constant": true,
      "inputs": [
        {
          "internalType": "address",
          "name": "user",
          "type": "address"
        }
      ],
      "name": "getUserOptionsID",
      "outputs": [
        {
          "internalType": "uint256[]",
          "name": "",
          "type": "uint256[]"
        }
      ],
      "payable": false,
      "stateMutability": "view",
      "type": "function"
    },
    {
      "constant": true,
      "inputs": [
        {
          "internalType": "address",
          "name": "user",
          "type": "address"
        },
        {
          "internalType": "uint256",
          "name": "from",
          "type": "uint256"
        },
        {
          "internalType": "uint256",
          "name": "size",
          "type": "uint256"
        }
      ],
      "name": "getUserOptionsID",
      "outputs": [
        {
          "internalType": "uint256[]",
          "name": "",
          "type": "uint256[]"
        }
      ],
      "payable": false,
      "stateMutability": "view",
      "type": "function"
    },
    {
      "constant": true,
      "inputs": [],
      "name": "getVolatilityAddress",
      "outputs": [
        {
          "internalType": "address",
          "name": "",
          "type": "address"
        }
      ],
      "payable": false,
      "stateMutability": "view",
      "type": "function"
    },
    {
      "constant": false,
      "inputs": [],
      "name": "initialize",
      "outputs": [],
      "payable": false,
      "stateMutability": "nonpayable",
      "type": "function"
    },
    {
      "constant": true,
      "inputs": [
        {
          "internalType": "uint256",
          "name": "expiration",
          "type": "uint256"
        }
      ],
      "name": "isEligibleExpiration",
      "outputs": [
        {
          "internalType": "bool",
          "name": "",
          "type": "bool"
        }
      ],
      "payable": false,
      "stateMutability": "view",
      "type": "function"
    },
    {
      "constant": true,
      "inputs": [
        {
          "internalType": "uint32",
          "name": "underlying",
          "type": "uint32"
        }
      ],
      "name": "isEligibleUnderlyingAsset",
      "outputs": [
        {
          "internalType": "bool",
          "name": "",
          "type": "bool"
        }
      ],
      "payable": false,
      "stateMutability": "view",
      "type": "function"
    },
    {
      "constant": true,
      "inputs": [
        {
          "internalType": "uint256",
          "name": "Amount",
          "type": "uint256"
        }
      ],
      "name": "isInputAmountInRange",
      "outputs": [
        {
          "internalType": "bool",
          "name": "",
          "type": "bool"
        }
      ],
      "payable": false,
      "stateMutability": "view",
      "type": "function"
    },
    {
      "constant": true,
      "inputs": [],
      "name": "isOwner",
      "outputs": [
        {
          "internalType": "bool",
          "name": "",
          "type": "bool"
        }
      ],
      "payable": false,
      "stateMutability": "view",
      "type": "function"
    },
    {
      "constant": true,
      "inputs": [],
      "name": "owner",
      "outputs": [
        {
          "internalType": "address",
          "name": "",
          "type": "address"
        }
      ],
      "payable": false,
      "stateMutability": "view",
      "type": "function"
    },
    {
      "constant": false,
      "inputs": [
        {
          "internalType": "uint256",
          "name": "removeExpiration",
          "type": "uint256"
        }
      ],
      "name": "removeExpirationList",
      "outputs": [
        {
          "internalType": "bool",
          "name": "",
          "type": "bool"
        }
      ],
      "payable": false,
      "stateMutability": "nonpayable",
      "type": "function"
    },
    {
      "constant": false,
      "inputs": [
        {
          "internalType": "address",
          "name": "removeAddress",
          "type": "address"
        }
      ],
      "name": "removeOperator",
      "outputs": [
        {
          "internalType": "bool",
          "name": "",
          "type": "bool"
        }
      ],
      "payable": false,
      "stateMutability": "nonpayable",
      "type": "function"
    },
    {
      "constant": false,
      "inputs": [
        {
          "internalType": "uint32",
          "name": "removeUnderlying",
          "type": "uint32"
        }
      ],
      "name": "removeUnderlyingAssets",
      "outputs": [
        {
          "internalType": "bool",
          "name": "",
          "type": "bool"
        }
      ],
      "payable": false,
      "stateMutability": "nonpayable",
      "type": "function"
    },
    {
      "constant": false,
      "inputs": [],
      "name": "renounceOwnership",
      "outputs": [],
      "payable": false,
      "stateMutability": "nonpayable",
      "type": "function"
    },
    {
      "constant": false,
      "inputs": [
        {
          "internalType": "uint256",
          "name": "_minAmount",
          "type": "uint256"
        },
        {
          "internalType": "uint256",
          "name": "_maxAmount",
          "type": "uint256"
        }
      ],
      "name": "setInputAmountRange",
      "outputs": [],
      "payable": false,
      "stateMutability": "nonpayable",
      "type": "function"
    },
    {
      "constant": false,
      "inputs": [
        {
          "internalType": "address",
          "name": "managerAddress",
          "type": "address"
        }
      ],
      "name": "setManager",
      "outputs": [],
      "payable": false,
      "stateMutability": "nonpayable",
      "type": "function"
    },
    {
      "constant": false,
      "inputs": [
        {
          "internalType": "uint256",
          "name": "index",
          "type": "uint256"
        },
        {
          "internalType": "address",
          "name": "addAddress",
          "type": "address"
        }
      ],
      "name": "setOperator",
      "outputs": [],
      "payable": false,
      "stateMutability": "nonpayable",
      "type": "function"
    },
    {
      "constant": false,
      "inputs": [
        {
          "internalType": "address[]",
          "name": "operators",
          "type": "address[]"
        }
      ],
      "name": "setOperators",
      "outputs": [],
      "payable": false,
      "stateMutability": "nonpayable",
      "type": "function"
    },
    {
      "constant": false,
      "inputs": [
        {
          "internalType": "address",
          "name": "optionsPrice",
          "type": "address"
        }
      ],
      "name": "setOptionsPriceAddress",
      "outputs": [],
      "payable": false,
      "stateMutability": "nonpayable",
      "type": "function"
    },
    {
      "constant": false,
      "inputs": [
        {
          "internalType": "address",
          "name": "oracle",
          "type": "address"
        }
      ],
      "name": "setOracleAddress",
      "outputs": [],
      "payable": false,
      "stateMutability": "nonpayable",
      "type": "function"
    },
    {
      "constant": false,
      "inputs": [
        {
          "internalType": "uint256",
          "name": "_limitation",
          "type": "uint256"
        }
      ],
      "name": "setTimeLimitation",
      "outputs": [],
      "payable": false,
      "stateMutability": "nonpayable",
      "type": "function"
    },
    {
      "constant": false,
      "inputs": [
        {
          "internalType": "address",
          "name": "volatility",
          "type": "address"
        }
      ],
      "name": "setVolatilityAddress",
      "outputs": [],
      "payable": false,
      "stateMutability": "nonpayable",
      "type": "function"
    },
    {
      "constant": false,
      "inputs": [
        {
          "internalType": "address",
          "name": "newOwner",
          "type": "address"
        }
      ],
      "name": "transferOwnership",
      "outputs": [],
      "payable": false,
      "stateMutability": "nonpayable",
      "type": "function"
    },
    {
      "constant": true,
      "inputs": [],
      "name": "getOccupiedCalInfo",
      "outputs": [
        {
          "internalType": "uint256",
          "name": "",
          "type": "uint256"
        },
        {
          "internalType": "int256",
          "name": "",
          "type": "int256"
        },
        {
          "internalType": "int256",
          "name": "",
          "type": "int256"
        }
      ],
      "payable": false,
      "stateMutability": "view",
      "type": "function"
    },
    {
      "constant": false,
      "inputs": [],
      "name": "setOccupiedCollateral",
      "outputs": [],
      "payable": false,
      "stateMutability": "nonpayable",
      "type": "function"
    },
    {
      "constant": true,
      "inputs": [
        {
          "internalType": "uint256",
          "name": "lastOption",
          "type": "uint256"
        },
        {
          "internalType": "uint256",
          "name": "beginOption",
          "type": "uint256"
        },
        {
          "internalType": "uint256",
          "name": "endOption",
          "type": "uint256"
        }
      ],
      "name": "calculatePhaseOccupiedCollateral",
      "outputs": [
        {
          "internalType": "uint256",
          "name": "",
          "type": "uint256"
        },
        {
          "internalType": "uint256",
          "name": "",
          "type": "uint256"
        },
        {
          "internalType": "uint256",
          "name": "",
          "type": "uint256"
        },
        {
          "internalType": "bool",
          "name": "",
          "type": "bool"
        }
      ],
      "payable": false,
      "stateMutability": "view",
      "type": "function"
    },
    {
      "constant": false,
      "inputs": [
        {
          "internalType": "uint256",
          "name": "totalCallOccupied",
          "type": "uint256"
        },
        {
          "internalType": "uint256",
          "name": "totalPutOccupied",
          "type": "uint256"
        },
        {
          "internalType": "uint256",
          "name": "beginOption",
          "type": "uint256"
        },
        {
          "internalType": "int256",
          "name": "latestCallOccpied",
          "type": "int256"
        },
        {
          "internalType": "int256",
          "name": "latestPutOccpied",
          "type": "int256"
        }
      ],
      "name": "setCollateralPhase",
      "outputs": [],
      "payable": false,
      "stateMutability": "nonpayable",
      "type": "function"
    },
    {
      "constant": true,
      "inputs": [],
      "name": "getCallTotalOccupiedCollateral",
      "outputs": [
        {
          "internalType": "uint256",
          "name": "",
          "type": "uint256"
        }
      ],
      "payable": false,
      "stateMutability": "view",
      "type": "function"
    },
    {
      "constant": true,
      "inputs": [],
      "name": "getPutTotalOccupiedCollateral",
      "outputs": [
        {
          "internalType": "uint256",
          "name": "",
          "type": "uint256"
        }
      ],
      "payable": false,
      "stateMutability": "view",
      "type": "function"
    },
    {
      "constant": true,
      "inputs": [],
      "name": "getTotalOccupiedCollateral",
      "outputs": [
        {
          "internalType": "uint256",
          "name": "",
          "type": "uint256"
        }
      ],
      "payable": false,
      "stateMutability": "view",
      "type": "function"
    }
  ],
  "bytecode": "0x60806040819052610e106003556c0c9f2c9cd04674edea40000000600455606460055560008054600160a060020a0319163317808255600160a060020a0316917f8be0079c531659141344cd1fd0a4f28419497f9722a3daafe3b4186f6b6457e0908290a3620000776401000000006200007d810204565b620002df565b6200009064010000000062000186810204565b620000fc57604080517f08c379a000000000000000000000000000000000000000000000000000000000815260206004820181905260248201527f4f776e61626c653a2063616c6c6572206973206e6f7420746865206f776e6572604482015290519081900360640190fd5b60408051610100810182526201518081526202a30060208201526203f4809181019190915262093a806060820152620d2f0060808201526213c68060a0820152621a5e0060c082015262278d0060e08201526200015e90600e90600862000198565b50604080518082019091526001808252600260208301819052620001839290620001ef565b50565b600054600160a060020a031633145b90565b828054828255906000526020600020908101928215620001dd579160200282015b82811115620001dd578251829062ffffff16905591602001919060010190620001b9565b50620001eb9291506200029e565b5090565b82805482825590600052602060002090600701600890048101928215620002905791602002820160005b838211156200025c57835183826101000a81548163ffffffff021916908360ff160217905550926020019260040160208160030104928301926001030262000219565b80156200028e5782816101000a81549063ffffffff02191690556004016020816003010492830192600103026200025c565b505b50620001eb929150620002bb565b6200019591905b80821115620001eb5760008155600101620002a5565b6200019591905b80821115620001eb57805463ffffffff19168155600101620002c2565b61357480620002ef6000396000f3fe608060405234801561001057600080fd5b50600436106102f55760003560e060020a900480638da5cb5b116101a1578063bc9abed2116100ed578063ddf71cd5116100a6578063e7f43c6811610080578063e7f43c6814610b9e578063f2fde38b14610ba6578063f504e2f014610bcc578063f7de192314610bd4576102f5565b8063ddf71cd514610aa9578063e7a1c1c014610b4c578063e7c5681514610b78576102f5565b8063bc9abed214610a0c578063bec3107f14610a2d578063d0ebdbe714610a35578063d500958414610a5b578063d6d1401214610a63578063db6ad2bd14610a86576102f5565b80639ef975d21161015a578063ac8a584a11610134578063ac8a584a146109b3578063aef890be146109d9578063afec82fc146109e1578063b18b78dd14610a04576102f5565b80639ef975d21461093b578063a093e2d014610958578063a85504081461097e576102f5565b80638da5cb5b146108bd5780638f32d59b146108c55780639052d5f8146108cd5780639783cbd9146108d55780639870d7fe146108f25780639ab91a3514610918576102f5565b806348ee201d11610260578063715018a6116102195780637cfff2d8116101f35780637cfff2d81461084a5780637e838fa3146108675780638129fc1c14610898578063813b5d4b146108a0576102f5565b8063715018a61461081d578063723931ca1461082557806373a3d42414610842576102f5565b806348ee201d146107055780634c69c00f14610769578063597ce9001461078f5780635ca4b73b146107d557806367b8ceb9146107dd5780636d84e2e314610800576102f5565b8063354af360116102b2578063354af360146105ad5780633582d789146106505780633ad2fb57146106a85780633e77dfd9146106d157806342e5479d146106d95780634688d5d6146106fd576102f5565b80630438d490146102fa57806307af14781461048557806309057622146104df5780630c372571146105055780632967eafe146105565780632a75ee421461057e575b600080fd5b61031d6004803603604081101561031057600080fd5b5080359060200135610c06565b60405180806020018060200180602001806020018060200186810386528b818151815260200191508051906020019060200280838360005b8381101561036d578181015183820152602001610355565b5050505090500186810385528a818151815260200191508051906020019060200280838360005b838110156103ac578181015183820152602001610394565b50505050905001868103845289818151815260200191508051906020019060200280838360005b838110156103eb5781810151838201526020016103d3565b50505050905001868103835288818151815260200191508051906020019060200280838360005b8381101561042a578181015183820152602001610412565b50505050905001868103825287818151815260200191508051906020019060200280838360005b83811015610469578181015183820152602001610451565b505050509050019a505050505050505050505060405180910390f35b6104a26004803603602081101561049b57600080fd5b5035610edd565b60408051600160a060020a0390971687526020870195909552858501939093526060850191909152608084015260a0830152519081900360c00190f35b6104e7610f90565b60408051938452602084019290925282820152519081900360600190f35b61052e6004803603606081101561051b57600080fd5b5080359060208101359060400135610f9e565b6040805194855260208501939093528383019190915215156060830152519081900360800190f35b61057c6004803603602081101561056c57600080fd5b5035600160a060020a031661101e565b005b61059b6004803603602081101561059457600080fd5b503561108a565b60408051918252519081900360200190f35b61031d600480360360208110156105c357600080fd5b8101906020810181356401000000008111156105de57600080fd5b8201836020820111156105f057600080fd5b8035906020019184602083028401116401000000008311171561061257600080fd5b9190808060200260200160405190810160405280939291908181526020018383602002808284376000920191909152509295506110a1945050505050565b61065861136a565b60408051602080825283518183015283519192839290830191858101910280838360005b8381101561069457818101518382015260200161067c565b505050509050019250505060405180910390f35b61057c600480360360408110156106be57600080fd5b508035906020013563ffffffff166113ef565b61059b611459565b6106e16114e3565b60408051600160a060020a039092168252519081900360200190f35b61059b6114f2565b6107226004803603602081101561071b57600080fd5b50356114f8565b60408051978852600160a060020a03909616602088015260ff9094168686015263ffffffff9092166060860152608085015260a084015260c0830152519081900360e00190f35b61057c6004803603602081101561077f57600080fd5b5035600160a060020a031661156c565b6107b2600480360360408110156107a557600080fd5b50803590602001356115d8565b60408051600160a060020a03909316835260208301919091528051918290030190f35b6106e1611666565b61059b600480360360408110156107f357600080fd5b5080359060200135611675565b61059b6004803603602081101561081657600080fd5b503561175c565b61057c6117cc565b61057c6004803603602081101561083b57600080fd5b5035611860565b61059b6118aa565b61057c6004803603602081101561086057600080fd5b50356118c2565b6108846004803603602081101561087d57600080fd5b503561191d565b604080519115158252519081900360200190f35b61057c61197a565b610884600480360360208110156108b657600080fd5b5035611a47565b6106e1611a5f565b610884611a6e565b610658611a7f565b61057c600480360360208110156108eb57600080fd5b5035611ad6565b61057c6004803603602081101561090857600080fd5b5035600160a060020a0316611b25565b61057c6004803603604081101561092e57600080fd5b5080359060200135611b80565b6108846004803603602081101561095157600080fd5b5035611bd5565b61057c6004803603602081101561096e57600080fd5b5035600160a060020a0316611c3a565b61057c600480360360a081101561099457600080fd5b5080359060208101359060408101359060608101359060800135611ca6565b610884600480360360208110156109c957600080fd5b5035600160a060020a0316611ebe565b61059b611f1b565b61057c600480360360208110156109f757600080fd5b503563ffffffff16611f90565b6106e1611feb565b610a14611ffa565b6040805192835260208301919091528051918290030190f35b61059b612004565b61057c60048036036020811015610a4b57600080fd5b5035600160a060020a031661200a565b6106e1612076565b61088460048036036020811015610a7957600080fd5b503563ffffffff16612085565b61088460048036036020811015610a9c57600080fd5b503563ffffffff166120e2565b61057c60048036036020811015610abf57600080fd5b810190602081018135640100000000811115610ada57600080fd5b820183602082011115610aec57600080fd5b80359060200191846020830284011164010000000083111715610b0e57600080fd5b919080806020026020016040519081016040528093929190818152602001838360200280828437600092019190915250929550612173945050505050565b61057c60048036036040811015610b6257600080fd5b5080359060200135600160a060020a03166121d0565b61065860048036036020811015610b8e57600080fd5b5035600160a060020a031661225a565b6106586122c6565b61057c60048036036020811015610bbc57600080fd5b5035600160a060020a0316612327565b61057c61237a565b61065860048036036060811015610bea57600080fd5b50600160a060020a03813516906020810135906040013561243b565b600b546060908190819081908190808810610c6b576040805160e560020a62461bcd02815260206004820152601660248201527f696e7075742066726f6d206973206f766572666c6f7700000000000000000000604482015290519081900360640190fd5b60008711610cc3576040805160e560020a62461bcd02815260206004820152601260248201527f696e7075742073697a65206973207a65726f0000000000000000000000000000604482015290519081900360640190fd5b808789011115610cd35787810396505b606087604051908082528060200260200182016040528015610cff578160200160208202803883390190505b509050606088604051908082528060200260200182016040528015610d2e578160200160208202803883390190505b509050606089604051908082528060200260200182016040528015610d5d578160200160208202803883390190505b50905060608a604051908082528060200260200182016040528015610d8c578160200160208202803883390190505b50905060608b604051908082528060200260200182016040528015610dbb578160200160208202803883390190505b50905060005b8c811015610ec8576000818f0190506000600b8281548110610ddf57fe5b906000526020600020906005020190508060000160089054906101000a9004600160a060020a0316888481518110610e1357fe5b600160a060020a03929092166020928302919091019091015280546001820154885160e060020a90920460ff1663ffffffff9182166201000002011690889085908110610e5c57fe5b6020026020010181815250508060020154868481518110610e7957fe5b6020026020010181815250508060030154858481518110610e9657fe5b6020026020010181815250508060040154848481518110610eb357fe5b60209081029190910101525050600101610dc1565b50939c929b5090995097509095509350505050565b600080600080600080600087118015610ef85750600b548711155b610f4c576040805160e560020a62461bcd02815260206004820152601660248201527f6f7074696f6e206964206973206e6f7420657869737400000000000000000000604482015290519081900360640190fd5b50505060009384525050600c602052506040902080546001820154600283015460038401546004850154600590950154600160a060020a0390941695929491939092565b601154601454601554909192565b600080600080601154861015610fb45760115495505b868610610fcc57506000925082915081905080611015565b86851115610fdc57869450610ff7565b601154851015610ff757506000925082915081905080611015565b600080600061100689896125dc565b91985096509450600193505050505b93509350935093565b611026611a6e565b611068576040805160e560020a62461bcd0281526020600482018190526024820152600080516020613484833981519152604482015290519081900360640190fd5b60088054600160a060020a031916600160a060020a0392909216919091179055565b600354600091825260026020526040909120540190565b606080606080606060008651905060008111611107576040805160e560020a62461bcd02815260206004820152601860248201527f696e7075742069647320617272617920697320656d7074790000000000000000604482015290519081900360640190fd5b600b54604080518381526020808502820101909152606090838015611136578160200160208202803883390190505b509050606083604051908082528060200260200182016040528015611165578160200160208202803883390190505b509050606084604051908082528060200260200182016040528015611194578160200160208202803883390190505b5090506060856040519080825280602002602001820160405280156111c3578160200160208202803883390190505b5090506060866040519080825280602002602001820160405280156111f2578160200160208202803883390190505b50905060005b87811015610ec857600060018f838151811061121057fe5b6020026020010151039050878110611272576040805160e560020a62461bcd02815260206004820152601860248201527f696e7075742069647320617272617920697320656d7074790000000000000000604482015290519081900360640190fd5b6000600b828154811061128157fe5b906000526020600020906005020190508060000160089054906101000a9004600160a060020a03168884815181106112b557fe5b600160a060020a03929092166020928302919091019091015280546001820154885160e060020a90920460ff1663ffffffff91821662010000020116908890859081106112fe57fe5b602002602001018181525050806002015486848151811061131b57fe5b602002602001018181525050806003015485848151811061133857fe5b602002602001018181525050806004015484848151811061135557fe5b602090810291909101015250506001016111f8565b606060018054806020026020016040519081016040528092919081815260200182805480156113e457602002820191906000526020600020906000905b82829054906101000a900463ffffffff1663ffffffff16815260200190600401906020826003010492830192600103820291508084116113a75790505b505050505090505b90565b6113f8816120e2565b61144c576040805160e560020a62461bcd02815260206004820152601f60248201527f756e6465726c79696e6720697320756e737570706f7274656420617373657400604482015290519081900360640190fd5b61145582611860565b5050565b600080601454126114b657601454601254908101908110156114af5760405160e560020a62461bcd02815260040180806020018281038252602a815260200180613516602a913960400191505060405180910390fd5b90506113ec565b600060145460000390508060125411156114d5576012540390506113ec565b60009150506113ec565b5090565b600854600160a060020a031690565b60035490565b60008060008060008060008061150d8961274c565b805460018201546002830154600384015460049094015467ffffffffffffffff84169e680100000000000000008504600160a060020a03169e5060e060020a90940460ff169c5063ffffffff9092169a50985091965090945092505050565b611574611a6e565b6115b6576040805160e560020a62461bcd0281526020600482018190526024820152600080516020613484833981519152604482015290519081900360640190fd5b60078054600160a060020a031916600160a060020a0392909216919091179055565b600080828060045410156116205760405160e560020a62461bcd0281526004018080602001828103825260248152602001806134f26024913960400191505060405180910390fd5b60001985016000908152600c60205260409020805460018201546003830154600160a060020a0390921691670de0b6b3a764000091028702049350935050509250929050565b600954600160a060020a031690565b600061167f6131e8565b6116888461274c565b6040805160e081018252825467ffffffffffffffff81168252680100000000000000008104600160a060020a0316602083015260e060020a900460ff1691810191909152600182015463ffffffff16606082015260028201546080820152600382015460a082015260049091015460c08201529050611706816127d8565b6117108184612833565b6000611725826060015163ffffffff1661288f565b9050600061173c83604001518460a001518461294e565b90508061174f5760009350505050611756565b8402925050505b92915050565b6000808211801561176f5750600b548211155b6117c3576040805160e560020a62461bcd02815260206004820152601660248201527f6f7074696f6e206964206973206e6f7420657869737400000000000000000000604482015290519081900360640190fd5b6117568261108a565b6117d4611a6e565b611816576040805160e560020a62461bcd0281526020600482018190526024820152600080516020613484833981519152604482015290519081900360640190fd5b60008054604051600160a060020a03909116907f8be0079c531659141344cd1fd0a4f28419497f9722a3daafe3b4186f6b6457e0908390a360008054600160a060020a0319169055565b61186981611bd5565b6118a75760405160e560020a62461bcd0281526004018080602001828103825260218152602001806134d16021913960400191505060405180910390fd5b50565b60006118b4611f1b565b6118bc611459565b01905090565b6118ca611a6e565b61190c576040805160e560020a62461bcd0281526020600482018190526024820152600080516020613484833981519152604482015290519081900360640190fd5b6118a7600e8263ffffffff61298216565b6000611927611a6e565b611969576040805160e560020a62461bcd0281526020600482018190526024820152600080516020613484833981519152604482015290519081900360640190fd5b611756600e8363ffffffff6129f716565b611982611a6e565b6119c4576040805160e560020a62461bcd0281526020600482018190526024820152600080516020613484833981519152604482015290519081900360640190fd5b60408051610100810182526201518081526202a30060208201526203f4809181019190915262093a806060820152620d2f0060808201526213c68060a0820152621a5e0060c082015262278d0060e0820152611a2490600e906008613224565b506040805180820190915260018082526002602083018190526118a79290613272565b60008160045410158015611756575050600554111590565b600054600160a060020a031690565b600054600160a060020a0316331490565b6060600e8054806020026020016040519081016040528092919081815260200182805480156113e457602002820191906000526020600020905b815481526020019060010190808311611ab9575050505050905090565b611ade611a6e565b611b20576040805160e560020a62461bcd0281526020600482018190526024820152600080516020613484833981519152604482015290519081900360640190fd5b600355565b611b2d611a6e565b611b6f576040805160e560020a62461bcd0281526020600482018190526024820152600080516020613484833981519152604482015290519081900360640190fd5b6118a7600a8263ffffffff612a9d16565b611b88611a6e565b611bca576040805160e560020a62461bcd0281526020600482018190526024820152600080516020613484833981519152604482015290519081900360640190fd5b600591909155600455565b600061175682600e805480602002602001604051908101604052809291908181526020018280548015611c2757602002820191906000526020600020905b815481526020019060010190808311611c13575b5050505050612b3590919063ffffffff16565b611c42611a6e565b611c84576040805160e560020a62461bcd0281526020600482018190526024820152600080516020613484833981519152604482015290519081900360640190fd5b60098054600160a060020a031916600160a060020a0392909216919091179055565b600a5460019081108015611ce3575033600160a060020a0316600a8281548110611ccc57fe5b600091825260209091200154600160a060020a0316145b611d215760405160e560020a62461bcd02815260040180806020018281038252602d8152602001806134a4602d913960400191505060405180910390fd5b600b54841115611d7b576040805160e560020a62461bcd02815260206004820152601b60248201527f626567696e4f7074696f6e2063616c63756c617465204572726f720000000000604482015290519081900360640190fd5b601154841115611d8b5760118490555b60128690556013859055701d6329f1c35ca4bfabb9f560ffffffffff198312801590611dc85750701d6329f1c35ca4bfabb9f56100000000008313155b611e1c576040805160e560020a62461bcd02815260206004820152601c60248201527f6f7074696f6e732066616c6c2063616c63756c617465206572726f7200000000604482015290519081900360640190fd5b701d6329f1c35ca4bfabb9f560ffffffffff198212158015611e4f5750701d6329f1c35ca4bfabb9f56100000000008213155b611ea3576040805160e560020a62461bcd02815260206004820152601c60248201527f6f7074696f6e732066616c6c2063616c63756c617465206572726f7200000000604482015290519081900360640190fd5b50601480549290920390915560158054919091039055505050565b6000611ec8611a6e565b611f0a576040805160e560020a62461bcd0281526020600482018190526024820152600080516020613484833981519152604482015290519081900360640190fd5b611756600a8363ffffffff612b7216565b60008060155412611f7157601554601354908101908110156114af5760405160e560020a62461bcd02815260040180806020018281038252602a815260200180613516602a913960400191505060405180910390fd5b600060155460000390508060135411156114d5576013540390506113ec565b611f98611a6e565b611fda576040805160e560020a62461bcd0281526020600482018190526024820152600080516020613484833981519152604482015290519081900360640190fd5b6118a760018263ffffffff612c4816565b600754600160a060020a031690565b6005546004549091565b600b5490565b612012611a6e565b612054576040805160e560020a62461bcd0281526020600482018190526024820152600080516020613484833981519152604482015290519081900360640190fd5b60068054600160a060020a031916600160a060020a0392909216919091179055565b600654600160a060020a031690565b600061208f611a6e565b6120d1576040805160e560020a62461bcd0281526020600482018190526024820152600080516020613484833981519152604482015290519081900360640190fd5b61175660018363ffffffff612d0f16565b600061175682600180548060200260200160405190810160405280929190818152602001828054801561216057602002820191906000526020600020906000905b82829054906101000a900463ffffffff1663ffffffff16815260200190600401906020826003010492830192600103820291508084116121235790505b5050505050612dff90919063ffffffff16565b61217b611a6e565b6121bd576040805160e560020a62461bcd0281526020600482018190526024820152600080516020613484833981519152604482015290519081900360640190fd5b805161145590600a90602084019061331a565b6121d8611a6e565b61221a576040805160e560020a62461bcd0281526020600482018190526024820152600080516020613484833981519152604482015290519081900360640190fd5b80600a838154811061222857fe5b9060005260206000200160006101000a815481600160a060020a030219169083600160a060020a031602179055505050565b600160a060020a0381166000908152600d60209081526040918290208054835181840281018401909452808452606093928301828280156122ba57602002820191906000526020600020905b8154815260200190600101908083116122a6575b50505050509050919050565b6060600a8054806020026020016040519081016040528092919081815260200182805480156113e457602002820191906000526020600020905b8154600160a060020a03168152600190910190602001808311612300575050505050905090565b61232f611a6e565b612371576040805160e560020a62461bcd0281526020600482018190526024820152600080516020613484833981519152604482015290519081900360640190fd5b6118a781612e48565b600a54600190811080156123b7575033600160a060020a0316600a82815481106123a057fe5b600091825260209091200154600160a060020a0316145b6123f55760405160e560020a62461bcd02815260040180806020018281038252602d8152602001806134a4602d913960400191505060405180910390fd5b601454601554600b5460115460009081908190819061241690869081610f9e565b93509350935093508015612431576124318484848a8a611ca6565b5050505050505050565b600160a060020a0383166000908152600d602052604090205460609083106124ad576040805160e560020a62461bcd02815260206004820152601660248201527f696e7075742066726f6d206973206f766572666c6f7700000000000000000000604482015290519081900360640190fd5b60008211612505576040805160e560020a62461bcd02815260206004820152601260248201527f696e7075742073697a65206973207a65726f0000000000000000000000000000604482015290519081900360640190fd5b606082604051908082528060200260200182016040528015612531578160200160208202803883390190505b50600160a060020a0386166000908152600d6020526040902054909150848401111561257657600160a060020a0385166000908152600d602052604090205484900392505b60005b838110156125d157600160a060020a0386166000908152600d6020526040902080548683019081106125a757fe5b90600052602060002001548282815181106125be57fe5b6020908102919091010152600101612579565b5090505b9392505050565b6000806000806125ef8660115487612eeb565b909650905060606125fe612f6c565b90506000805b8789101561273c57600061263d600b8b8154811061261e57fe5b600091825260209091206001600590920201015463ffffffff1661300b565b905060006126f3600b8c8154811061265157fe5b60009182526020918290206040805160e081018252600593909302909101805467ffffffffffffffff81168452680100000000000000008104600160a060020a03169484019490945260e060020a90930460ff1690820152600182015463ffffffff16606082015260028201546080820152600382015460a082015260049091015460c082015286518790859081106126e657fe5b602002602001015161309c565b9050600b8b8154811061270257fe5b600091825260209091206005909102015460e060020a900460ff1661272a579283019261272f565b918201915b5050600190980197612604565b9095509350909150509250925092565b6000808211801561275f5750600b548211155b6127b3576040805160e560020a62461bcd02815260206004820152601660248201527f6f7074696f6e206964206973206e6f7420657869737400000000000000000000604482015290519081900360640190fd5b600b60018303815481106127c357fe5b90600052602060002090600502019050919050565b428160800151116118a7576040805160e560020a62461bcd02815260206004820152601160248201527f6f7074696f6e2069732065787069726564000000000000000000000000000000604482015290519081900360640190fd5b808260c001511015611455576040805160e560020a62461bcd02815260206004820152601d60248201527f6f7074696f6e20616d6f756e7420697320696e73756666696369656e74000000604482015290519081900360640190fd5b600754604080517fda6632570000000000000000000000000000000000000000000000000000000081526004810184905290516000928392600160a060020a039091169163da66325791602480820192602092909190829003018186803b1580156128f957600080fd5b505afa15801561290d573d6000803e3d6000fd5b505050506040513d602081101561292357600080fd5b505190506064811080159061294557506c0c9f2c9cd04674edea400000008111155b61175657600080fd5b600060ff8416158284111415612966575060006125d5565b60ff8416156129775781830361297b565b8282035b90506125d5565b6129db828054806020026020016040519081016040528092919081815260200182805480156129d057602002820191906000526020600020905b8154815260200190600101908083116129bc575b505050505082612b35565b6114555781546001810183556000928352602090922090910155565b8154600090815b81811015612a315783858281548110612a1357fe5b90600052602060002001541415612a2957612a31565b6001016129fe565b81811015612a9257600182038114612a7657846001830381548110612a5257fe5b9060005260206000200154858281548110612a6957fe5b6000918252602090912001555b8454612a8686600019830161337b565b50600192505050611756565b506000949350505050565b612b0082805480602002602001604051908101604052809291908181526020018280548015612af557602002820191906000526020600020905b8154600160a060020a03168152600190910190602001808311612ad7575b505050505082613130565b611455578154600181018355600083815260209020018054600160a060020a038316600160a060020a03199091161790555050565b8151600090815b81811015612a925783858281518110612b5157fe5b60200260200101511415612b6a57600192505050611756565b600101612b3c565b8154600090815b81811015612bbf5783600160a060020a0316858281548110612b9757fe5b600091825260209091200154600160a060020a03161415612bb757612bbf565b600101612b79565b81811015612a9257600182038114612a7657846001830381548110612be057fe5b9060005260206000200160009054906101000a9004600160a060020a0316858281548110612c0a57fe5b9060005260206000200160006101000a815481600160a060020a030219169083600160a060020a031602179055508454612a8686600019830161337b565b612ccd82805480602002602001604051908101604052809291908181526020018280548015612cc257602002820191906000526020600020906000905b82829054906101000a900463ffffffff1663ffffffff1681526020019060040190602082600301049283019260010382029150808411612c855790505b505050505082612dff565b611455578154600181018355600092835260209092206008830401805460079093166004026101000a63ffffffff818102199094169290931692909202179055565b8154600090815b81811015612d68578363ffffffff16858281548110612d3157fe5b6000918252602090912060088204015460079091166004026101000a900463ffffffff161415612d6057612d68565b600101612d16565b81811015612a9257600182038114612def57846001830381548110612d8957fe5b90600052602060002090600891828204019190066004029054906101000a900463ffffffff16858281548110612dbb57fe5b90600052602060002090600891828204019190066004026101000a81548163ffffffff021916908363ffffffff1602179055505b8454612a868660001983016133a4565b8151600090815b81811015612a92578363ffffffff16858281518110612e2157fe5b602002602001015163ffffffff161415612e4057600192505050611756565b600101612e06565b600160a060020a038116612e905760405160e560020a62461bcd02815260040180806020018281038252602681526020018061345e6026913960400191505060405180910390fd5b60008054604051600160a060020a03808516939216917f8be0079c531659141344cd1fd0a4f28419497f9722a3daafe3b4186f6b6457e091a360008054600160a060020a031916600160a060020a0392909216919091179055565b6000808380861115612f01578592509050612f64565b8095505b83861015612f5c576000600b8781548110612f1c57fe5b906000526020600020906005020190504281600201541080612f4057506004810154155b15612f4b5750612f51565b50612f5c565b600190950194612f05565b858692509250505b935093915050565b600154604080518281526020808402820101909152606091908290828015612f9e578160200160208202803883390190505b50905060005b8281101561300457612fe560018281548110612fbc57fe5b6000918252602090912060088204015460079091166004026101000a900463ffffffff1661288f565b828281518110612ff157fe5b6020908102919091010152600101612fa4565b5091505090565b600061175682600180548060200260200160405190810160405280929190818152602001828054801561308957602002820191906000526020600020906000905b82829054906101000a900463ffffffff1663ffffffff168152602001906004019060208260030104928301926001038202915080841161304c5790505b505050505061317f90919063ffffffff16565b60004283608001511115806130b3575060c0830151155b156130c057506000611756565b60008360c001516130da85604001518660a00151866131ca565b029050701d6329f1c35ca4bfabb9f56100000000008111156125d55760405160e560020a62461bcd02815260040180806020018281038252602a815260200180613434602a913960400191505060405180910390fd5b8151600090815b81811015612a925783600160a060020a031685828151811061315557fe5b6020026020010151600160a060020a0316141561317757600192505050611756565b600101613137565b8151600090815b818110156131c2578363ffffffff168582815181106131a157fe5b602002602001015163ffffffff1614156131ba576131c2565b600101613186565b949350505050565b600060ff84161582841114156131e15750816125d5565b50806125d5565b6040805160e081018252600080825260208201819052918101829052606081018290526080810182905260a0810182905260c081019190915290565b828054828255906000526020600020908101928215613266579160200282015b82811115613266578251829062ffffff16905591602001919060010190613244565b506114df9291506133d4565b8280548282559060005260206000209060070160089004810192821561330e5791602002820160005b838211156132dc57835183826101000a81548163ffffffff021916908360ff160217905550926020019260040160208160030104928301926001030261329b565b801561330c5782816101000a81549063ffffffff02191690556004016020816003010492830192600103026132dc565b505b506114df9291506133ee565b82805482825590600052602060002090810192821561336f579160200282015b8281111561336f5782518254600160a060020a031916600160a060020a0390911617825560209092019160019091019061333a565b506114df92915061340f565b81548183558181111561339f5760008381526020902061339f9181019083016133d4565b505050565b81548183558181111561339f57600701600890048160070160089004836000526020600020918201910161339f91905b6113ec91905b808211156114df57600081556001016133da565b6113ec91905b808211156114df57805463ffffffff191681556001016133f4565b6113ec91905b808211156114df578054600160a060020a031916815560010161341556fe4f7074696f6e20636f6c6c61746572616c206f636375706965642063616c63756c617465206572726f724f776e61626c653a206e6577206f776e657220697320746865207a65726f20616464726573734f776e61626c653a2063616c6c6572206973206e6f7420746865206f776e65724f70657261746f723a2063616c6c6572206973206e6f742074686520656c696769626c65204f70657261746f7265787069726174696f6e2076616c7565206973206e6f7420737570706f72746564696e70757420616d6f756e74206973206c6172676572207468616e206d6178696d69756d546f74616c4f63637570696564436f6c6c61746572616c2063616c63756c617465206f766572666c6f77a265627a7a72315820dfe446600402a5aeeaf202fed2ecdbbfde1dd3176a2e64ba5ce7cf3f3261bf3d64736f6c63430005100032",
  "source": "pragma solidity =0.5.16;\r\nimport \"./Optionsbase.sol\";\r\n/**\r\n * @title Options collateral occupied calculation contract for finnexus proposal v2.\r\n * @dev A Smart-contract for collateral occupied calculation.\r\n *\r\n */\r\ncontract OptionsOccupiedCal is OptionsBase {\r\n\r\n    /**\r\n     * @dev retrieve collateral occupied calculation information.\r\n     */    \r\n    function getOccupiedCalInfo()public view returns(uint256,int256,int256){\r\n        return (occupiedFirstOption,callLatestOccupied,putLatestOccupied);\r\n    }\r\n    /**\r\n     * @dev calculate collateral occupied value, and modify database, only foundation operator can modify database.\r\n     */  \r\n    function setOccupiedCollateral() public onlyOperatorIndex(1) {\r\n        int256 latestCallOccupied = callLatestOccupied;\r\n        int256 latestPutOccupied = putLatestOccupied;\r\n        uint256 lastOption = allOptions.length;\r\n        (uint256 totalCallOccupied,uint256 totalPutOccupied,uint256 beginOption,bool success) = calculatePhaseOccupiedCollateral(lastOption, occupiedFirstOption,lastOption);\r\n        if (success){\r\n            setCollateralPhase(totalCallOccupied,totalPutOccupied,beginOption,latestCallOccupied,latestPutOccupied);\r\n        }\r\n    }\r\n    /**\r\n     * @dev calculate collateral occupied value.\r\n     * @param lastOption last option's position.\r\n     * @param beginOption begin option's poisiton.\r\n     * @param endOption end option's poisiton.\r\n     */  \r\n    function calculatePhaseOccupiedCollateral(uint256 lastOption,uint256 beginOption,uint256 endOption) public view returns(uint256,uint256,uint256,bool){\r\n        if (beginOption <  occupiedFirstOption){\r\n            beginOption =  occupiedFirstOption;\r\n        }\r\n        if (beginOption>=lastOption){\r\n            return (0,0,0,false);\r\n        }\r\n        if (endOption>lastOption) {\r\n            endOption = lastOption;\r\n        }else if(endOption <  occupiedFirstOption){\r\n            return (0,0,0,false);\r\n        }\r\n        (uint256 totalCallOccupied,uint256 totalPutOccupied,uint256 newFirstOption) = _calculateOccupiedCollateral(beginOption,endOption);\r\n        return (totalCallOccupied,totalPutOccupied,newFirstOption,true);\r\n    }\r\n    /**\r\n     * @dev subfunction, calculate collateral occupied value.\r\n     * @param begin begin option's poisiton.\r\n     * @param end end option's poisiton.\r\n     */  \r\n    function _calculateOccupiedCollateral(uint256 begin,uint256 end)internal view returns(uint256,uint256,uint256){\r\n        uint256 newFirstOption;\r\n        (begin,newFirstOption) = getFirstOption(begin, occupiedFirstOption,end);\r\n        uint256[] memory prices = getUnderlyingPrices();\r\n        uint256 totalCallOccupied = 0;\r\n        uint256 totalPutOccupied = 0;\r\n        for (;begin<end;begin++){\r\n            uint256 index = _getEligibleUnderlyingIndex(allOptions[begin].underlying);\r\n            uint256 value = calOptionsCollateral(allOptions[begin],prices[index]);\r\n            if (allOptions[begin].optType == 0){\r\n                totalCallOccupied += value;\r\n            }else{\r\n                totalPutOccupied += value;\r\n            }\r\n        }\r\n        return (totalCallOccupied,totalPutOccupied,newFirstOption);\r\n    }\r\n    /**\r\n     * @dev set collateral occupied value, only foundation operator can modify database.\r\n     * @param totalCallOccupied new call options occupied collateral calculation result.\r\n     * @param totalPutOccupied new put options occupied collateral calculation result.\r\n     * @param beginOption new first valid option's positon.\r\n     * @param latestCallOccpied latest call options' occupied value when operater invoke collateral occupied calculation.\r\n     * @param latestPutOccpied latest put options' occupied value when operater invoke collateral occupied calculation.\r\n     */  \r\n    function setCollateralPhase(uint256 totalCallOccupied,uint256 totalPutOccupied,uint256 beginOption,\r\n            int256 latestCallOccpied,int256 latestPutOccpied) public onlyOperatorIndex(1){\r\n        require(beginOption <= allOptions.length, \"beginOption calculate Error\");\r\n        if (beginOption >  occupiedFirstOption){\r\n             occupiedFirstOption = beginOption;\r\n        }\r\n        callOccupied = totalCallOccupied;\r\n        putOccupied = totalPutOccupied;\r\n        require(latestCallOccpied>=-1e40 && latestCallOccpied<=1e40,\"options fall calculate error\");\r\n        require(latestPutOccpied>=-1e40 && latestPutOccpied<=1e40,\"options fall calculate error\");\r\n        callLatestOccupied -= latestCallOccpied;\r\n        putLatestOccupied -= latestPutOccpied;\r\n    }\r\n\r\n    /**\r\n     * @dev get call options total collateral occupied value.\r\n     */ \r\n    function getCallTotalOccupiedCollateral() public view returns (uint256) {\r\n        if (callLatestOccupied>=0){\r\n            uint256 result = callOccupied+uint256(callLatestOccupied);\r\n            require(result>=callOccupied,\"TotalOccupiedCollateral calculate overflow\");\r\n            return result;\r\n        }else{\r\n            uint256 latestOccupied = uint256(-callLatestOccupied);\r\n            if (callOccupied>latestOccupied){\r\n                return callOccupied - latestOccupied;\r\n            }else{\r\n                return 0;\r\n            }\r\n        }\r\n    }\r\n        /**\r\n     * @dev get put options total collateral occupied value.\r\n     */ \r\n    function getPutTotalOccupiedCollateral() public view returns (uint256) {\r\n        if (putLatestOccupied>=0){\r\n            uint256 result = putOccupied+uint256(putLatestOccupied);\r\n            require(result>=putOccupied,\"TotalOccupiedCollateral calculate overflow\");\r\n            return result;\r\n        }else{\r\n            uint256 latestOccupied = uint256(-putLatestOccupied);\r\n            if (putOccupied>latestOccupied){\r\n                return putOccupied - latestOccupied;\r\n            }else{\r\n                return 0;\r\n            }\r\n        }\r\n    }\r\n    /**\r\n     * @dev get real total collateral occupied value.\r\n     */ \r\n    function getTotalOccupiedCollateral() public view returns (uint256) {\r\n        return getCallTotalOccupiedCollateral() + getPutTotalOccupiedCollateral();\r\n    }\r\n    /**\r\n     * @dev add new option collateral occupied value when user create a new option.\r\n     * @param optionID new option's ID.\r\n     */ \r\n    function _addOptionsCollateral(uint256 optionID) internal {\r\n        OptionsInfo memory info = allOptions[optionID-1];\r\n        OptionsInfoEx storage infoEx =  optionExtraMap[optionID-1];\r\n        uint256 newOccupied = calOptionsCollateral(info,infoEx.underlyingPrice);\r\n        if (info.optType == 0){\r\n            callLatestOccupied += int256(newOccupied);\r\n        }else{\r\n            putLatestOccupied += int256(newOccupied);\r\n        }\r\n    }\r\n    /**\r\n     * @dev deduct burned option collateral occupied value when user burn option.\r\n     * @param info burned option's information.\r\n     * @param amount burned option's amount.\r\n     * @param underlyingPrice current underlying price.\r\n     */ \r\n    function _burnOptionsCollateral(OptionsInfo memory info,uint256 amount,uint256 underlyingPrice) internal {\r\n        uint256 newOccupied = _getOptionsWorth(info.optType,info.strikePrice,underlyingPrice)*amount;\r\n        require(newOccupied<=1e40,\"Option collateral occupied calculate error\");\r\n        if (info.optType == 0){\r\n            callLatestOccupied -= int256(newOccupied);\r\n        }else{\r\n            putLatestOccupied -= int256(newOccupied);\r\n        }\r\n    }\r\n\r\n}",
  "sourcePath": "C:\\work\\solidity\\FinnexusOptions_V2\\contracts\\OptionsPool\\OptionsOccupiedCal.sol",
  "compiler": {
    "name": "solc",
    "version": "0.5.16+commit.9c3226ce.Emscripten.clang"
  },
  "schemaVersion": "3.1.0",
  "updatedAt": "2020-10-21T03:26:50.425Z",
  "devdoc": {
    "details": "A Smart-contract for collateral occupied calculation.  ",
    "methods": {
      "addExpiration(uint256)": {
        "details": "Implementation of add an eligible expiration into the expirationList.",
        "params": {
          "expiration": "new eligible expiration."
        }
      },
      "addOperator(address)": {
        "details": "add a new operator by owner.       "
      },
      "addUnderlyingAsset(uint32)": {
        "details": "Implementation of add an eligible underlying into the underlyingAssets.",
        "params": {
          "underlying": "new eligible underlying."
        }
      },
      "buyOptionCheck(uint256,uint32)": {
        "details": "check option's underlying and expiration.",
        "params": {
          "expiration": "option's expiration",
          "underlying": "option's underlying"
        }
      },
      "calculatePhaseOccupiedCollateral(uint256,uint256,uint256)": {
        "details": "calculate collateral occupied value.",
        "params": {
          "beginOption": "begin option's poisiton.",
          "endOption": "end option's poisiton.",
          "lastOption": "last option's position."
        }
      },
      "checkExpiration(uint256)": {
        "details": "check option's expiration.",
        "params": {
          "expiration": "option's expiration"
        }
      },
      "getBurnedFullPay(uint256,uint256)": {
        "details": "calculate `amount` number of Option's full price when option is burned.",
        "params": {
          "amount": "option's amount",
          "optionID": "option's optionID"
        }
      },
      "getCallTotalOccupiedCollateral()": {
        "details": "get call options total collateral occupied value."
      },
      "getExerciseWorth(uint256,uint256)": {
        "details": "calculate option's exercise worth.",
        "params": {
          "amount": "option's amount",
          "optionsId": "option's id"
        }
      },
      "getExpirationList()": {
        "details": "Implementation of getting the eligible expirationList."
      },
      "getInputAmountRange()": {
        "details": "get the valid range of input amount"
      },
      "getItemTimeLimitation(uint256)": {
        "details": "Retrieve user's start time for burning. ",
        "params": {
          "item": "item key."
        }
      },
      "getManager()": {
        "details": "get manager address.       "
      },
      "getOccupiedCalInfo()": {
        "details": "retrieve collateral occupied calculation information."
      },
      "getOperator()": {
        "details": "get all operators.       "
      },
      "getOptionInfoLength()": {
        "details": "retrieve all option list length. "
      },
      "getOptionInfoList(uint256,uint256)": {
        "details": "retrieve `size` number of options' information. ",
        "params": {
          "from": "all option list begin positon.",
          "size": "retrieve size."
        }
      },
      "getOptionInfoListFromID(uint256[])": {
        "details": "retrieve given `ids` options' information. ",
        "params": {
          "ids": "retrieved options' id."
        }
      },
      "getOptionsById(uint256)": {
        "details": "retrieve given `optionsId` option's information. ",
        "params": {
          "optionsId": "retrieved option's id."
        }
      },
      "getOptionsExtraById(uint256)": {
        "details": "retrieve given `optionsId` option's extra information. ",
        "params": {
          "optionsId": "retrieved option's id."
        }
      },
      "getOptionsLimitTimeById(uint256)": {
        "details": "retrieve given `optionsId` option's burned limit timestamp. ",
        "params": {
          "optionsId": "retrieved option's id."
        }
      },
      "getPutTotalOccupiedCollateral()": {
        "details": "get put options total collateral occupied value."
      },
      "getTotalOccupiedCollateral()": {
        "details": "get real total collateral occupied value."
      },
      "getUnderlyingAssets()": {
        "details": "Implementation of getting the eligible underlyingAssets."
      },
      "getUserOptionsID(address)": {
        "details": "retrieve user's options' id. ",
        "params": {
          "user": "user's account."
        }
      },
      "getUserOptionsID(address,uint256,uint256)": {
        "details": "retrieve user's `size` number of options' id. ",
        "params": {
          "from": "user's option list begin positon.",
          "size": "retrieve size.",
          "user": "user's account."
        }
      },
      "isEligibleExpiration(uint256)": {
        "details": "Implementation of testing whether the input expiration is eligible.",
        "params": {
          "expiration": "input expiration for testing."
        }
      },
      "isEligibleUnderlyingAsset(uint32)": {
        "details": "Implementation of testing whether the input underlying is eligible.",
        "params": {
          "underlying": "input underlying for testing."
        }
      },
      "isInputAmountInRange(uint256)": {
        "details": "Determine whether the input amount is within the valid range",
        "params": {
          "Amount": "Test value which is user input"
        }
      },
      "isOwner()": {
        "details": "Returns true if the caller is the current owner."
      },
      "owner()": {
        "details": "Returns the address of the current owner."
      },
      "removeExpirationList(uint256)": {
        "details": "Implementation of revoke an invalid expiration from the expirationList.",
        "params": {
          "removeExpiration": "revoked expiration."
        }
      },
      "removeOperator(address)": {
        "details": "remove operator by owner.       "
      },
      "removeUnderlyingAssets(uint32)": {
        "details": "Implementation of revoke an invalid underlying from the underlyingAssets.",
        "params": {
          "removeUnderlying": "revoked underlying."
        }
      },
      "renounceOwnership()": {
        "details": "Leaves the contract without owner. It will not be possible to call `onlyOwner` functions anymore. Can only be called by the current owner.      * NOTE: Renouncing ownership will leave the contract without an owner, thereby removing any functionality that is only available to the owner."
      },
      "setCollateralPhase(uint256,uint256,uint256,int256,int256)": {
        "details": "set collateral occupied value, only foundation operator can modify database.",
        "params": {
          "beginOption": "new first valid option's positon.",
          "latestCallOccpied": "latest call options' occupied value when operater invoke collateral occupied calculation.",
          "latestPutOccpied": "latest put options' occupied value when operater invoke collateral occupied calculation.",
          "totalCallOccupied": "new call options occupied collateral calculation result.",
          "totalPutOccupied": "new put options occupied collateral calculation result."
        }
      },
      "setInputAmountRange(uint256,uint256)": {
        "details": "set the valid range of input amount",
        "params": {
          "_maxAmount": "the maximum input amount limit",
          "_minAmount": "the minimum input amount limit"
        }
      },
      "setManager(address)": {
        "details": "set manager by owner.       "
      },
      "setOccupiedCollateral()": {
        "details": "calculate collateral occupied value, and modify database, only foundation operator can modify database."
      },
      "setOperator(uint256,address)": {
        "details": "modify indexed operator by owner.       "
      },
      "setOperators(address[])": {
        "details": "set all operators by owner.       "
      },
      "setTimeLimitation(uint256)": {
        "details": "set time limitation, only owner can invoke. ",
        "params": {
          "_limitation": "new time limitation."
        }
      },
      "transferOwnership(address)": {
        "details": "Transfers ownership of the contract to a new account (`newOwner`). Can only be called by the current owner."
      }
    },
    "title": "Options collateral occupied calculation contract for finnexus proposal v2."
  },
  "userdoc": {
    "methods": {}
  }
}