{
  "contractName": "OptionsPool",
  "abi": [
    {
      "constant": true,
      "inputs": [
        {
          "name": "from",
          "type": "uint256"
        },
        {
          "name": "size",
          "type": "uint256"
        }
      ],
      "name": "getOptionInfoList",
      "outputs": [
        {
          "name": "",
          "type": "address[]"
        },
        {
          "name": "",
          "type": "uint256[]"
        },
        {
          "name": "",
          "type": "uint256[]"
        },
        {
          "name": "",
          "type": "uint256[]"
        },
        {
          "name": "",
          "type": "uint256[]"
        }
      ],
      "payable": false,
      "stateMutability": "view",
      "type": "function"
    },
    {
      "constant": true,
      "inputs": [],
      "name": "sharedPhase",
      "outputs": [
        {
          "name": "",
          "type": "uint32"
        }
      ],
      "payable": false,
      "stateMutability": "view",
      "type": "function"
    },
    {
      "constant": false,
      "inputs": [
        {
          "name": "volatility",
          "type": "address"
        }
      ],
      "name": "setVolatilityAddress",
      "outputs": [],
      "payable": false,
      "stateMutability": "nonpayable",
      "type": "function"
    },
    {
      "constant": true,
      "inputs": [
        {
          "name": "ids",
          "type": "uint256[]"
        }
      ],
      "name": "getOptionInfoListFromID",
      "outputs": [
        {
          "name": "",
          "type": "address[]"
        },
        {
          "name": "",
          "type": "uint256[]"
        },
        {
          "name": "",
          "type": "uint256[]"
        },
        {
          "name": "",
          "type": "uint256[]"
        },
        {
          "name": "",
          "type": "uint256[]"
        }
      ],
      "payable": false,
      "stateMutability": "view",
      "type": "function"
    },
    {
      "constant": true,
      "inputs": [],
      "name": "getUnderlyingAssets",
      "outputs": [
        {
          "name": "",
          "type": "uint32[]"
        }
      ],
      "payable": false,
      "stateMutability": "view",
      "type": "function"
    },
    {
      "constant": true,
      "inputs": [
        {
          "name": "expiration",
          "type": "uint256"
        },
        {
          "name": "underlying",
          "type": "uint32"
        }
      ],
      "name": "buyOptionCheck",
      "outputs": [],
      "payable": false,
      "stateMutability": "view",
      "type": "function"
    },
    {
      "constant": true,
      "inputs": [
        {
          "name": "",
          "type": "uint256"
        }
      ],
      "name": "expirationList",
      "outputs": [
        {
          "name": "",
          "type": "uint256"
        }
      ],
      "payable": false,
      "stateMutability": "view",
      "type": "function"
    },
    {
      "constant": true,
      "inputs": [
        {
          "name": "",
          "type": "uint256"
        }
      ],
      "name": "underlyingAssets",
      "outputs": [
        {
          "name": "",
          "type": "uint32"
        }
      ],
      "payable": false,
      "stateMutability": "view",
      "type": "function"
    },
    {
      "constant": true,
      "inputs": [],
      "name": "getVolatilityAddress",
      "outputs": [
        {
          "name": "",
          "type": "address"
        }
      ],
      "payable": false,
      "stateMutability": "view",
      "type": "function"
    },
    {
      "constant": true,
      "inputs": [],
      "name": "getLatestOption",
      "outputs": [
        {
          "name": "",
          "type": "uint256"
        },
        {
          "name": "",
          "type": "address"
        },
        {
          "name": "",
          "type": "uint8"
        },
        {
          "name": "",
          "type": "uint32"
        },
        {
          "name": "",
          "type": "uint256"
        },
        {
          "name": "",
          "type": "uint256"
        },
        {
          "name": "",
          "type": "uint256"
        }
      ],
      "payable": false,
      "stateMutability": "view",
      "type": "function"
    },
    {
      "constant": true,
      "inputs": [
        {
          "name": "optionsId",
          "type": "uint256"
        }
      ],
      "name": "getOptionsById",
      "outputs": [
        {
          "name": "",
          "type": "uint256"
        },
        {
          "name": "",
          "type": "address"
        },
        {
          "name": "",
          "type": "uint8"
        },
        {
          "name": "",
          "type": "uint32"
        },
        {
          "name": "",
          "type": "uint256"
        },
        {
          "name": "",
          "type": "uint256"
        },
        {
          "name": "",
          "type": "uint256"
        }
      ],
      "payable": false,
      "stateMutability": "view",
      "type": "function"
    },
    {
      "constant": false,
      "inputs": [
        {
          "name": "oracle",
          "type": "address"
        }
      ],
      "name": "setOracleAddress",
      "outputs": [],
      "payable": false,
      "stateMutability": "nonpayable",
      "type": "function"
    },
    {
      "constant": true,
      "inputs": [
        {
          "name": "",
          "type": "address"
        },
        {
          "name": "",
          "type": "uint256"
        }
      ],
      "name": "optionsBalances",
      "outputs": [
        {
          "name": "",
          "type": "uint256"
        }
      ],
      "payable": false,
      "stateMutability": "view",
      "type": "function"
    },
    {
      "constant": true,
      "inputs": [],
      "name": "getOptionsPriceAddress",
      "outputs": [
        {
          "name": "",
          "type": "address"
        }
      ],
      "payable": false,
      "stateMutability": "view",
      "type": "function"
    },
    {
      "constant": true,
      "inputs": [
        {
          "name": "optionsId",
          "type": "uint256"
        },
        {
          "name": "amount",
          "type": "uint256"
        }
      ],
      "name": "getExerciseWorth",
      "outputs": [
        {
          "name": "",
          "type": "uint256"
        }
      ],
      "payable": false,
      "stateMutability": "view",
      "type": "function"
    },
    {
      "constant": false,
      "inputs": [],
      "name": "renounceOwnership",
      "outputs": [],
      "payable": false,
      "stateMutability": "nonpayable",
      "type": "function"
    },
    {
      "constant": true,
      "inputs": [
        {
          "name": "expiration",
          "type": "uint256"
        }
      ],
      "name": "checkExpiration",
      "outputs": [],
      "payable": false,
      "stateMutability": "view",
      "type": "function"
    },
    {
      "constant": false,
      "inputs": [
        {
          "name": "expiration",
          "type": "uint256"
        }
      ],
      "name": "addExpiration",
      "outputs": [],
      "payable": false,
      "stateMutability": "nonpayable",
      "type": "function"
    },
    {
      "constant": false,
      "inputs": [
        {
          "name": "removeExpiration",
          "type": "uint256"
        }
      ],
      "name": "removeExpirationList",
      "outputs": [
        {
          "name": "",
          "type": "bool"
        }
      ],
      "payable": false,
      "stateMutability": "nonpayable",
      "type": "function"
    },
    {
      "constant": true,
      "inputs": [],
      "name": "owner",
      "outputs": [
        {
          "name": "",
          "type": "address"
        }
      ],
      "payable": false,
      "stateMutability": "view",
      "type": "function"
    },
    {
      "constant": true,
      "inputs": [
        {
          "name": "",
          "type": "uint256"
        }
      ],
      "name": "allOptions",
      "outputs": [
        {
          "name": "optionID",
          "type": "uint256"
        },
        {
          "name": "owner",
          "type": "address"
        },
        {
          "name": "optType",
          "type": "uint8"
        },
        {
          "name": "underlying",
          "type": "uint32"
        },
        {
          "name": "expiration",
          "type": "uint256"
        },
        {
          "name": "strikePrice",
          "type": "uint256"
        },
        {
          "name": "amount",
          "type": "uint256"
        }
      ],
      "payable": false,
      "stateMutability": "view",
      "type": "function"
    },
    {
      "constant": true,
      "inputs": [],
      "name": "isOwner",
      "outputs": [
        {
          "name": "",
          "type": "bool"
        }
      ],
      "payable": false,
      "stateMutability": "view",
      "type": "function"
    },
    {
      "constant": true,
      "inputs": [],
      "name": "getExpirationList",
      "outputs": [
        {
          "name": "",
          "type": "uint256[]"
        }
      ],
      "payable": false,
      "stateMutability": "view",
      "type": "function"
    },
    {
      "constant": false,
      "inputs": [
        {
          "name": "from",
          "type": "address"
        },
        {
          "name": "settlement",
          "type": "address"
        },
        {
          "name": "type_ly_exp",
          "type": "uint256"
        },
        {
          "name": "strikePrice",
          "type": "uint256"
        },
        {
          "name": "optionPrice",
          "type": "uint256"
        },
        {
          "name": "amount",
          "type": "uint256"
        }
      ],
      "name": "createOptions",
      "outputs": [],
      "payable": false,
      "stateMutability": "nonpayable",
      "type": "function"
    },
    {
      "constant": true,
      "inputs": [
        {
          "name": "expiration",
          "type": "uint256"
        }
      ],
      "name": "isEligibleExpiration",
      "outputs": [
        {
          "name": "",
          "type": "bool"
        }
      ],
      "payable": false,
      "stateMutability": "view",
      "type": "function"
    },
    {
      "constant": false,
      "inputs": [
        {
          "name": "optionsPrice",
          "type": "address"
        }
      ],
      "name": "setOptionsPriceAddress",
      "outputs": [],
      "payable": false,
      "stateMutability": "nonpayable",
      "type": "function"
    },
    {
      "constant": false,
      "inputs": [
        {
          "name": "underlying",
          "type": "uint32"
        }
      ],
      "name": "addUnderlyingAsset",
      "outputs": [],
      "payable": false,
      "stateMutability": "nonpayable",
      "type": "function"
    },
    {
      "constant": true,
      "inputs": [],
      "name": "getOracleAddress",
      "outputs": [
        {
          "name": "",
          "type": "address"
        }
      ],
      "payable": false,
      "stateMutability": "view",
      "type": "function"
    },
    {
      "constant": true,
      "inputs": [],
      "name": "getOptionInfoLength",
      "outputs": [
        {
          "name": "",
          "type": "uint256"
        }
      ],
      "payable": false,
      "stateMutability": "view",
      "type": "function"
    },
    {
      "constant": true,
      "inputs": [],
      "name": "optionPhase",
      "outputs": [
        {
          "name": "",
          "type": "uint32"
        }
      ],
      "payable": false,
      "stateMutability": "view",
      "type": "function"
    },
    {
      "constant": false,
      "inputs": [
        {
          "name": "managerAddress",
          "type": "address"
        }
      ],
      "name": "setManager",
      "outputs": [],
      "payable": false,
      "stateMutability": "nonpayable",
      "type": "function"
    },
    {
      "constant": true,
      "inputs": [],
      "name": "getManager",
      "outputs": [
        {
          "name": "",
          "type": "address"
        }
      ],
      "payable": false,
      "stateMutability": "view",
      "type": "function"
    },
    {
      "constant": false,
      "inputs": [
        {
          "name": "removeUnderlying",
          "type": "uint32"
        }
      ],
      "name": "removeUnderlyingAssets",
      "outputs": [
        {
          "name": "",
          "type": "bool"
        }
      ],
      "payable": false,
      "stateMutability": "nonpayable",
      "type": "function"
    },
    {
      "constant": true,
      "inputs": [
        {
          "name": "underlying",
          "type": "uint32"
        }
      ],
      "name": "isEligibleUnderlyingAsset",
      "outputs": [
        {
          "name": "",
          "type": "bool"
        }
      ],
      "payable": false,
      "stateMutability": "view",
      "type": "function"
    },
    {
      "constant": true,
      "inputs": [
        {
          "name": "user",
          "type": "address"
        }
      ],
      "name": "getUserOptionsID",
      "outputs": [
        {
          "name": "",
          "type": "uint256[]"
        }
      ],
      "payable": false,
      "stateMutability": "view",
      "type": "function"
    },
    {
      "constant": true,
      "inputs": [
        {
          "name": "underlying",
          "type": "uint32"
        }
      ],
      "name": "checkUnderlyingAsset",
      "outputs": [],
      "payable": false,
      "stateMutability": "view",
      "type": "function"
    },
    {
      "constant": false,
      "inputs": [
        {
          "name": "newOwner",
          "type": "address"
        }
      ],
      "name": "transferOwnership",
      "outputs": [],
      "payable": false,
      "stateMutability": "nonpayable",
      "type": "function"
    },
    {
      "inputs": [
        {
          "name": "oracleAddr",
          "type": "address"
        },
        {
          "name": "optionsPriceAddr",
          "type": "address"
        },
        {
          "name": "ivAddress",
          "type": "address"
        }
      ],
      "payable": false,
      "stateMutability": "nonpayable",
      "type": "constructor"
    },
    {
      "anonymous": false,
      "inputs": [
        {
          "indexed": true,
          "name": "owner",
          "type": "address"
        },
        {
          "indexed": true,
          "name": "optionID",
          "type": "uint256"
        },
        {
          "indexed": false,
          "name": "optType",
          "type": "uint8"
        },
        {
          "indexed": false,
          "name": "underlying",
          "type": "uint32"
        },
        {
          "indexed": false,
          "name": "expiration",
          "type": "uint256"
        },
        {
          "indexed": false,
          "name": "strikePrice",
          "type": "uint256"
        },
        {
          "indexed": false,
          "name": "amount",
          "type": "uint256"
        }
      ],
      "name": "CreateOption",
      "type": "event"
    },
    {
      "anonymous": false,
      "inputs": [
        {
          "indexed": true,
          "name": "owner",
          "type": "address"
        },
        {
          "indexed": true,
          "name": "optionID",
          "type": "uint256"
        },
        {
          "indexed": false,
          "name": "amount",
          "type": "uint256"
        }
      ],
      "name": "BurnOption",
      "type": "event"
    },
    {
      "anonymous": false,
      "inputs": [
        {
          "indexed": false,
          "name": "value1",
          "type": "uint256"
        },
        {
          "indexed": false,
          "name": "value2",
          "type": "uint256"
        },
        {
          "indexed": false,
          "name": "value3",
          "type": "uint256"
        }
      ],
      "name": "DebugEvent",
      "type": "event"
    },
    {
      "anonymous": false,
      "inputs": [
        {
          "indexed": true,
          "name": "previousOwner",
          "type": "address"
        },
        {
          "indexed": true,
          "name": "newOwner",
          "type": "address"
        }
      ],
      "name": "OwnershipTransferred",
      "type": "event"
    },
    {
      "constant": true,
      "inputs": [],
      "name": "getOptionPhaseCalRange",
      "outputs": [
        {
          "name": "",
          "type": "uint256"
        },
        {
          "name": "",
          "type": "uint256"
        },
        {
          "name": "",
          "type": "uint256"
        }
      ],
      "payable": false,
      "stateMutability": "view",
      "type": "function"
    },
    {
      "constant": true,
      "inputs": [],
      "name": "getsharedPhaseCalRange",
      "outputs": [
        {
          "name": "",
          "type": "uint256"
        },
        {
          "name": "",
          "type": "uint256"
        },
        {
          "name": "",
          "type": "uint256"
        },
        {
          "name": "",
          "type": "uint256"
        }
      ],
      "payable": false,
      "stateMutability": "view",
      "type": "function"
    },
    {
      "constant": true,
      "inputs": [
        {
          "name": "index",
          "type": "uint256"
        }
      ],
      "name": "getsharedPhaseCalInfo",
      "outputs": [
        {
          "name": "",
          "type": "uint256"
        },
        {
          "name": "",
          "type": "uint256[]"
        }
      ],
      "payable": false,
      "stateMutability": "view",
      "type": "function"
    },
    {
      "constant": false,
      "inputs": [
        {
          "name": "calInfo",
          "type": "uint256"
        }
      ],
      "name": "setPhaseOccupiedCollateral",
      "outputs": [],
      "payable": false,
      "stateMutability": "nonpayable",
      "type": "function"
    },
    {
      "constant": false,
      "inputs": [
        {
          "name": "calInfo",
          "type": "uint256"
        },
        {
          "name": "totalOccupied",
          "type": "uint256"
        },
        {
          "name": "beginOption",
          "type": "uint256"
        }
      ],
      "name": "setCollateralPhase",
      "outputs": [],
      "payable": false,
      "stateMutability": "nonpayable",
      "type": "function"
    },
    {
      "constant": true,
      "inputs": [
        {
          "name": "calInfo",
          "type": "uint256"
        }
      ],
      "name": "calculatePhaseOccupiedCollateral",
      "outputs": [
        {
          "name": "",
          "type": "uint256"
        },
        {
          "name": "",
          "type": "uint256"
        },
        {
          "name": "",
          "type": "bool"
        }
      ],
      "payable": false,
      "stateMutability": "view",
      "type": "function"
    },
    {
      "constant": false,
      "inputs": [
        {
          "name": "calInfo",
          "type": "uint256"
        },
        {
          "name": "firstOption",
          "type": "uint256"
        },
        {
          "name": "prices",
          "type": "uint256[]"
        },
        {
          "name": "calTime",
          "type": "uint256"
        }
      ],
      "name": "setSharedState",
      "outputs": [],
      "payable": false,
      "stateMutability": "nonpayable",
      "type": "function"
    },
    {
      "constant": true,
      "inputs": [
        {
          "name": "calInfo",
          "type": "uint256"
        },
        {
          "name": "whiteList",
          "type": "address[]"
        }
      ],
      "name": "calculatePhaseSharedPayment",
      "outputs": [
        {
          "name": "",
          "type": "uint256[]"
        },
        {
          "name": "",
          "type": "uint256"
        },
        {
          "name": "",
          "type": "bool"
        }
      ],
      "payable": false,
      "stateMutability": "view",
      "type": "function"
    },
    {
      "constant": true,
      "inputs": [
        {
          "name": "calInfo",
          "type": "uint256"
        },
        {
          "name": "begin",
          "type": "uint256"
        },
        {
          "name": "end",
          "type": "uint256"
        },
        {
          "name": "whiteList",
          "type": "address[]"
        }
      ],
      "name": "calRangeSharedPayment",
      "outputs": [
        {
          "name": "",
          "type": "uint256[]"
        },
        {
          "name": "",
          "type": "uint256"
        },
        {
          "name": "",
          "type": "bool"
        }
      ],
      "payable": false,
      "stateMutability": "view",
      "type": "function"
    },
    {
      "constant": true,
      "inputs": [
        {
          "name": "beginIndex",
          "type": "uint256"
        },
        {
          "name": "endIndex",
          "type": "uint256"
        },
        {
          "name": "preTime",
          "type": "uint256"
        },
        {
          "name": "lastburn",
          "type": "uint256"
        },
        {
          "name": "whiteList",
          "type": "address[]"
        },
        {
          "name": "totalSharedPayment",
          "type": "uint256[]"
        }
      ],
      "name": "_calBurnedSharePrice",
      "outputs": [
        {
          "name": "",
          "type": "uint256[]"
        }
      ],
      "payable": false,
      "stateMutability": "view",
      "type": "function"
    },
    {
      "constant": true,
      "inputs": [
        {
          "name": "calInfo",
          "type": "uint256"
        },
        {
          "name": "whiteList",
          "type": "address[]"
        }
      ],
      "name": "calculatePhaseOptionsFall",
      "outputs": [
        {
          "name": "",
          "type": "int256[]"
        },
        {
          "name": "",
          "type": "uint256[]"
        }
      ],
      "payable": false,
      "stateMutability": "view",
      "type": "function"
    },
    {
      "constant": true,
      "inputs": [],
      "name": "getTotalOccupiedCollateral",
      "outputs": [
        {
          "name": "",
          "type": "uint256"
        }
      ],
      "payable": false,
      "stateMutability": "view",
      "type": "function"
    },
    {
      "constant": false,
      "inputs": [
        {
          "name": "from",
          "type": "address"
        },
        {
          "name": "id",
          "type": "uint256"
        },
        {
          "name": "amount",
          "type": "uint256"
        }
      ],
      "name": "burnOptions",
      "outputs": [],
      "payable": false,
      "stateMutability": "nonpayable",
      "type": "function"
    }
  ],
  "bytecode": "0x6080604052600a805461019063ffffffff1991821681179092556011805490911690911790553480156200003257600080fd5b5060405160608062004ab383398101604081815282516020840151919093015160008054600160a060020a031916331780825592939192859285928592600160a060020a0316917f8be0079c531659141344cd1fd0a4f28419497f9722a3daafe3b4186f6b6457e0908290a3620000b2836401000000006200015c810204565b620000c682640100000000620001ee810204565b620000da8164010000000062000280810204565b6040805160e0810182526201518081526203f480602082015262093a8091810191909152620d2f0060608201526213c680608082015262278d0060a08201526276a70060c08201526200013290600990600762000324565b50604080516020810190915260018082526200014f91816200037b565b505050505050506200046b565b6200016f64010000000062000312810204565b1515620001cc57604080517f08c379a0000000000000000000000000000000000000000000000000000000008152602060048201819052602482015260008051602062004a93833981519152604482015290519081900360640190fd5b60038054600160a060020a031916600160a060020a0392909216919091179055565b6200020164010000000062000312810204565b15156200025e57604080517f08c379a0000000000000000000000000000000000000000000000000000000008152602060048201819052602482015260008051602062004a93833981519152604482015290519081900360640190fd5b60048054600160a060020a031916600160a060020a0392909216919091179055565b6200029364010000000062000312810204565b1515620002f057604080517f08c379a0000000000000000000000000000000000000000000000000000000008152602060048201819052602482015260008051602062004a93833981519152604482015290519081900360640190fd5b60058054600160a060020a031916600160a060020a0392909216919091179055565b600054600160a060020a031633145b90565b82805482825590600052602060002090810192821562000369579160200282015b8281111562000369578251829062ffffff1690559160200191906001019062000345565b50620003779291506200042a565b5090565b828054828255906000526020600020906007016008900481019282156200041c5791602002820160005b83821115620003e857835183826101000a81548163ffffffff021916908360ff1602179055509260200192600401602081600301049283019260010302620003a5565b80156200041a5782816101000a81549063ffffffff0219169055600401602081600301049283019260010302620003e8565b505b506200037792915062000447565b6200032191905b8082111562000377576000815560010162000431565b6200032191905b808211156200037757805463ffffffff191681556001016200044e565b614618806200047b6000396000f3006080604052600436106102425763ffffffff60e060020a6000350416630438d490811461024757806316f35a7f146103ca5780632967eafe146103f857806332ab5c201461041b578063354af360146104e55780633582d7891461053a5780633ad2fb571461059f5780633ad98099146105c05780633b50c4d1146105ea57806342e5479d1461060257806345e19fdd1461063357806348ee201d1461068f5780634c69c00f146106a757806355c47cb2146106c85780635a62c729146106ec5780635ca4b73b1461078c57806367b8ceb9146107a1578063715018a6146107bc578063723931ca146107d157806373a3d424146107e957806374e85fd2146107fe5780637cfff2d8146108255780637e838fa31461083d5780638da5cb5b146108695780638ea745b81461087e5780638f32d59b146108965780638ff239e6146108ab5780639052d5f81461090b578063924a69ce1461092057806397a918e91461095357806398dae828146109c657806399deae0a146109f95780639ef975d214610a31578063a093e2d014610a49578063af70df1214610a6a578063afec82fc14610ac4578063b18b78dd14610ae2578063b452bc0414610af7578063b8a5b7fa14610b15578063bec3107f14610b2d578063c27b7dfb14610b42578063d0ebdbe714610b57578063d500958414610b78578063d6d1401214610b8d578063db6ad2bd14610bab578063e5081c4014610bc9578063e7c5681514610ca5578063ee29c94a14610cc6578063f2fde38b14610ce4578063fa1cf1f014610d05575b600080fd5b34801561025357600080fd5b50610262600435602435610d40565b60405180806020018060200180602001806020018060200186810386528b818151815260200191508051906020019060200280838360005b838110156102b257818101518382015260200161029a565b5050505090500186810385528a818151815260200191508051906020019060200280838360005b838110156102f15781810151838201526020016102d9565b50505050905001868103845289818151815260200191508051906020019060200280838360005b83811015610330578181015183820152602001610318565b50505050905001868103835288818151815260200191508051906020019060200280838360005b8381101561036f578181015183820152602001610357565b50505050905001868103825287818151815260200191508051906020019060200280838360005b838110156103ae578181015183820152602001610396565b505050509050019a505050505050505050505060405180910390f35b3480156103d657600080fd5b506103df610f8e565b6040805163ffffffff9092168252519081900360200190f35b34801561040457600080fd5b50610419600160a060020a0360043516610f9a565b005b34801561042757600080fd5b50604080516064356004818101356020818102858101820190965281855261047f9583359560248035966044359636969095608495929093019290918291850190849080828437509497506110089650505050505050565b604051808060200184815260200183151515158152602001828103825285818151815260200191508051906020019060200280838360005b838110156104cf5781810151838201526020016104b7565b5050505090500194505050505060405180910390f35b3480156104f157600080fd5b5060408051602060048035808201358381028086018501909652808552610262953695939460249493850192918291850190849080828437509497506110a69650505050505050565b34801561054657600080fd5b5061054f6112c0565b60408051602080825283518183015283519192839290830191858101910280838360005b8381101561058b578181015183820152602001610573565b505050509050019250505060405180910390f35b3480156105ab57600080fd5b5061041960043563ffffffff60243516611345565b3480156105cc57600080fd5b506105d86004356113b1565b60408051918252519081900360200190f35b3480156105f657600080fd5b506103df6004356113d0565b34801561060e57600080fd5b50610617611408565b60408051600160a060020a039092168252519081900360200190f35b34801561063f57600080fd5b50610648611417565b60408051978852600160a060020a03909616602088015260ff9094168686015263ffffffff9092166060860152608085015260a084015260c0830152519081900360e00190f35b34801561069b57600080fd5b506106486004356114f1565b3480156106b357600080fd5b50610419600160a060020a0360043516611554565b3480156106d457600080fd5b506105d8600160a060020a03600435166024356115c2565b3480156106f857600080fd5b50604080516020600460843581810135838102808601850190965280855261054f95833595602480359660443596606435963696919560a495949091019282919085019084908082843750506040805187358901803560208181028481018201909552818452989b9a9989019892975090820195509350839250850190849080828437509497506115f29650505050505050565b34801561079857600080fd5b50610617611849565b3480156107ad57600080fd5b506105d8600435602435611858565b3480156107c857600080fd5b506104196119f6565b3480156107dd57600080fd5b50610419600435611a8c565b3480156107f557600080fd5b506105d8611b14565b34801561080a57600080fd5b50610419600160a060020a0360043516602435604435611d9e565b34801561083157600080fd5b50610419600435611f59565b34801561084957600080fd5b50610855600435611fb0565b604080519115158252519081900360200190f35b34801561087557600080fd5b5061061761200f565b34801561088a57600080fd5b5061064860043561201e565b3480156108a257600080fd5b5061085561207e565b3480156108b757600080fd5b506040805160206004604435818101358381028086018501909652808552610419958335956024803596369695606495939492019291829185019084908082843750949750509335945061208f9350505050565b34801561091757600080fd5b5061054f6121ba565b34801561092c57600080fd5b50610419600160a060020a036004358116906024351660443560643560843560a435612211565b34801561095f57600080fd5b5061096b600435612509565b6040518083815260200180602001828103825283818151815260200191508051906020019060200280838360005b838110156109b1578181015183820152602001610999565b50505050905001935050505060405180910390f35b3480156109d257600080fd5b506109db61257c565b60408051938452602084019290925282820152519081900360600190f35b348015610a0557600080fd5b50610a1160043561258c565b604080519384526020840192909252151582820152519081900360600190f35b348015610a3d57600080fd5b50610855600435612648565b348015610a5557600080fd5b50610419600160a060020a03600435166126a4565b348015610a7657600080fd5b5060408051602060046024803582810135848102808701860190975280865261047f968435963696604495919490910192918291850190849080828437509497506127129650505050505050565b348015610ad057600080fd5b5061041963ffffffff60043516612769565b348015610aee57600080fd5b506106176127c0565b348015610b0357600080fd5b506104196004356024356044356127cf565b348015610b2157600080fd5b5061041960043561288c565b348015610b3957600080fd5b506105d8612903565b348015610b4e57600080fd5b506103df612909565b348015610b6357600080fd5b50610419600160a060020a0360043516612915565b348015610b8457600080fd5b50610617612983565b348015610b9957600080fd5b5061085563ffffffff60043516612992565b348015610bb757600080fd5b5061085563ffffffff600435166129eb565b348015610bd557600080fd5b50604080516020600460248035828101358481028087018601909752808652610c2396843596369660449591949091019291829185019084908082843750949750612a739650505050505050565b604051808060200180602001838103835285818151815260200191508051906020019060200280838360005b83811015610c67578181015183820152602001610c4f565b5050505090500183810382528481815181526020019150805190602001906020028083836000838110156104cf5781810151838201526020016104b7565b348015610cb157600080fd5b5061054f600160a060020a0360043516612c3a565b348015610cd257600080fd5b5061041963ffffffff60043516612ca6565b348015610cf057600080fd5b50610419600160a060020a0360043516612d2c565b348015610d1157600080fd5b50610d1a612d81565b604080519485526020850193909352838301919091526060830152519081900360800190f35b6060806060806060806060806060806000806006805490508d8f011115610d7757600654610d74908f63ffffffff612d9316565b9c505b60008d1115610f7d578c604051908082528060200260200182016040528015610daa578160200160208202803883390190505b5096508c604051908082528060200260200182016040528015610dd7578160200160208202803883390190505b5095508c604051908082528060200260200182016040528015610e04578160200160208202803883390190505b5094508c604051908082528060200260200182016040528015610e31578160200160208202803883390190505b5093508c604051908082528060200260200182016040528015610e5e578160200160208202803883390190505b509250600091505b8c821015610f6d57600680548f8401908110610e7e57fe5b6000918252602090912060059091020160018101548851919250600160a060020a031690889084908110610eae57fe5b600160a060020a0390921660209283029091019091015260018101548651601060ff60a060020a84048116919091011660020a63ffffffff60a860020a90930483160290911690879084908110610f0157fe5b6020908102909101015260028101548551869084908110610f1e57fe5b6020908102909101015260038101548451859084908110610f3b57fe5b6020908102909101015260048101548351849084908110610f5857fe5b60209081029091010152600190910190610e66565b86868686869b509b509b509b509b505b505050505050509295509295909350565b60115463ffffffff1681565b610fa261207e565b1515610fe6576040805160e560020a62461bcd02815260206004820181905260248201526000805160206145cd833981519152604482015290519081900360640190fd5b60058054600160a060020a031916600160a060020a0392909216919091179055565b60606000806060600061101a89612ddc565b88101580611029575060125487105b1561103f5790935060009250829150839061109a565b61104889612ddc565b87111561105b5761105889612ddc565b96505b61108b88886015600061106d8e612df5565b8152602001908152602001600020546110858d612e02565b8a612e23565b91509150818160019450945094505b50509450945094915050565b6060806060806060600060608060608060606000808d519750876040519080825280602002602001820160405280156110e9578160200160208202803883390190505b50965087604051908082528060200260200182016040528015611116578160200160208202803883390190505b50955087604051908082528060200260200182016040528015611143578160200160208202803883390190505b50945087604051908082528060200260200182016040528015611170578160200160208202803883390190505b5093508760405190808252806020026020018201604052801561119d578160200160208202803883390190505b509250600091505b878210156112ac576111cd8e838151811015156111be57fe5b90602001906020020151612fa1565b60018101548851919250600160a060020a0316908890849081106111ed57fe5b600160a060020a0390921660209283029091019091015260018101548651601060ff60a060020a84048116919091011660020a63ffffffff60a860020a9093048316029091169087908490811061124057fe5b602090810290910101526002810154855186908490811061125d57fe5b602090810290910101526003810154845185908490811061127a57fe5b602090810290910101526004810154835184908490811061129757fe5b602090810290910101526001909101906111a5565b50949c939b50919950975095509350505050565b6060600180548060200260200160405190810160405280929190818152602001828054801561133a57602002820191906000526020600020906000905b82829054906101000a900463ffffffff1663ffffffff16815260200190600401906020826003010492830192600103820291508084116112fd5790505b505050505090505b90565b61134e816129eb565b15156113a4576040805160e560020a62461bcd02815260206004820152601f60248201527f756e6465726c79696e6720697320756e737570706f7274656420617373657400604482015290519081900360640190fd5b6113ad82611a8c565b5050565b60098054829081106113bf57fe5b600091825260209091200154905081565b60018054829081106113de57fe5b9060005260206000209060089182820401919006600402915054906101000a900463ffffffff1681565b600554600160a060020a031690565b60065460009081908190819081908190819081808211611481576040805160e560020a62461bcd02815260206004820152601560248201527f6f7074696f6e73206c69737420697320656d7074790000000000000000000000604482015290519081900360640190fd5b60068054600019840190811061149357fe5b600091825260209091206005909102018054600182015460028301546003840154600490940154929d600160a060020a0383169d5060a060020a830460ff169c5060a860020a90920463ffffffff169a509850919650945092505050565b60008060008060008060008061150689612fa1565b8054600182015460028301546003840154600490940154929d600160a060020a0383169d5060a060020a830460ff169c5060a860020a90920463ffffffff169a509850919650945092505050565b61155c61207e565b15156115a0576040805160e560020a62461bcd02815260206004820181905260248201526000805160206145cd833981519152604482015290519081900360640190fd5b60038054600160a060020a031916600160a060020a0392909216919091179055565b6008602052816000526040600020818154811015156115dd57fe5b90600052602060002001600091509150505481565b606060006115fe614476565b60145491506000808080805b8a871015611837576000878152600f6020526040908190208151808301928390529160029082845b81548152602001906001019080831161163257505050505095508d86600060028110151561165c57fe5b6020020151108061166e575085518d11155b156116785761182c565b855160068054909190811061168957fe5b90600052602060002090600502019450846002015493508b8410806116b057506020860151155b156116ba5761182c565b855160009081526007602090815260408083206004805460038b01546005840154600685015460018e0154875160e060020a63055ef6ab0281529586018490526024860193909352428d0360448601526064850191909152608484015260a060020a900460ff1660a48301529251919750600160a060020a039092169363055ef6ab9360c480850194919392918390030190829087803b15801561175d57600080fd5b505af1158015611771573d6000803e3d6000fd5b505050506040513d602081101561178757600080fd5b505160038401549092506117cd906117c1886001602002015160028701546117b5908763ffffffff61303116565b9063ffffffff61303116565b9063ffffffff6130db16565b60018401549092506117e9908b90600160a060020a031661311d565b9050611813828a838151811015156117fd57fe5b602090810290910101519063ffffffff61317616565b898281518110151561182157fe5b602090810290910101525b60019096019561160a565b50969c9b505050505050505050505050565b600454600160a060020a031690565b6000611862614491565b60008061186e86612fa1565b6040805160e081018252825481526001830154600160a060020a038116602083015260a060020a810460ff169282019290925260a860020a90910463ffffffff16606082015260028201546080820152600382015460a082015260049091015460c082015292506118de836131d3565b6118e8838661322e565b6003546060840151604080517fda66325700000000000000000000000000000000000000000000000000000000815263ffffffff909216600483015251600160a060020a039092169163da663257916024808201926020929091908290030181600087803b15801561195957600080fd5b505af115801561196d573d6000803e3d6000fd5b505050506040513d602081101561198357600080fd5b505160408401519092506000915060ff1615156119b4578260a001518211156119af575060a082015181035b6119ca565b8260a001518210156119ca57818360a001510390505b8015156119da57600093506119ed565b6119ea818663ffffffff61303116565b93505b50505092915050565b6119fe61207e565b1515611a42576040805160e560020a62461bcd02815260206004820181905260248201526000805160206145cd833981519152604482015290519081900360640190fd5b60008054604051600160a060020a03909116907f8be0079c531659141344cd1fd0a4f28419497f9722a3daafe3b4186f6b6457e0908390a360008054600160a060020a0319169055565b611a9581612648565b1515611b11576040805160e560020a62461bcd02815260206004820152602160248201527f65787069726174696f6e2076616c7565206973206e6f7420737570706f72746560448201527f6400000000000000000000000000000000000000000000000000000000000000606482015290519081900360840190fd5b50565b60008060606000806000806000611b29614476565b6000611b3361328a565b9850611b3d61330b565b600654600c54919950975095505b86861015611c5557611b8c600687815481101515611b6557fe5b906000526020600020906005020160010160159054906101000a900463ffffffff16613425565b9450611c48611c3b600688815481101515611ba357fe5b60009182526020918290206040805160e081018252600593909302909101805483526001810154600160a060020a0381169484019490945260a060020a840460ff169183019190915260a860020a90920463ffffffff16606082015260028201546080820152600382015460a082015260049091015460c08201528a518b9089908110611c2c57fe5b906020019060200201516134ad565b8a9063ffffffff61317616565b9850600190950194611b4b565b601054600d5490945092505b83831015611d90576000838152600f6020526040908190208151808301928390529160029082845b815481526020019060010190808311611c89575093955085935060009250611caf915050565b60200201519050611cc8600682815481101515611b6557fe5b9450611d83611d76600683815481101515611cdf57fe5b60009182526020918290206040805160e081018252600593909302909101805483526001810154600160a060020a0381168486015260a060020a810460ff169284019290925260a860020a90910463ffffffff16606083015260028101546080830152600381015460a08301526004015460c0820152908501518b518c908a908110611d6757fe5b9060200190602002015161352d565b8a9063ffffffff612d9316565b9850600190920191611c61565b509698975050505050505050565b611da6614491565b600254600160a060020a03163314611e2e576040805160e560020a62461bcd02815260206004820152602660248201527f4d616e6167657261626c653a2063616c6c6572206973206e6f7420746865204d60448201527f616e616765720000000000000000000000000000000000000000000000000000606482015290519081900360840190fd5b611e3783612fa1565b6040805160e081018252825481526001830154600160a060020a038116602083015260a060020a810460ff169282019290925260a860020a90910463ffffffff16606082015260028201546080820152600382015460a082015260049091015460c08201529050611ea7816131d3565b611eb1818561357e565b611ebb818361322e565b60c0810151611ed0908363ffffffff612d9316565b60c08201526040805180820182526000198501815260208082018590526010546000908152600f90915291909120611f099160026144e1565b506010805460010190556040805183815290518491600160a060020a038716917f1fb99acdc281bccbecb3d0073a307341181a8a7d3cd532fdaef5ce7200401c2d9181900360200190a350505050565b611f6161207e565b1515611fa5576040805160e560020a62461bcd02815260206004820181905260248201526000805160206145cd833981519152604482015290519081900360640190fd5b611b116009826135ed565b6000611fba61207e565b1515611ffe576040805160e560020a62461bcd02815260206004820181905260248201526000805160206145cd833981519152604482015290519081900360640190fd5b612009600983613664565b92915050565b600054600160a060020a031690565b600680548290811061202c57fe5b600091825260209091206005909102018054600182015460028301546003840154600490940154929450600160a060020a0382169360a060020a830460ff169360a860020a90930463ffffffff169287565b600054600160a060020a0316331490565b600254600160a060020a03163314612117576040805160e560020a62461bcd02815260206004820152602660248201527f4d616e6167657261626c653a2063616c6c6572206973206e6f7420746865204d60448201527f616e616765720000000000000000000000000000000000000000000000000000606482015290519081900360840190fd5b6012548311156121275760128390555b61213084612ddc565b60115463ffffffff168061214387612df5565b020111156121645761215484612ddc565b60135561216084612e02565b6014555b806015600061217287612df5565b815260200190815260200160002081905550816016600061219287612df5565b815260200190815260200160002090805190602001906121b392919061451f565b5050505050565b6060600980548060200260200160405190810160405280929190818152602001828054801561133a57602002820191906000526020600020905b8154815260200190600101908083116121f4575050505050905090565b600080600061221e614491565b600254600160a060020a031633146122a6576040805160e560020a62461bcd02815260206004820152602660248201527f4d616e6167657261626c653a2063616c6c6572206973206e6f7420746865204d60448201527f616e616765720000000000000000000000000000000000000000000000000000606482015290519081900360840190fd5b60065493506122b488612df5565b92506122bf88612ddc565b9150600660e0604051908101604052808660010181526020018c600160a060020a031681526020018560ff1681526020018463ffffffff168152602001426123068c612e02565b01815260208082018b9052604091820189905283546001808201865560009586528286208551600590930201918255848301518282018054878701516060890151600160a060020a0319909216600160a060020a039485161774ff0000000000000000000000000000000000000000191660a060020a60ff909216919091021778ffffffff000000000000000000000000000000000000000000191660a860020a63ffffffff909216919091021790556080860151600284015560a0860151600384015560c090950151600490920191909155928e16845260088152908320805480840182559084529220908601910155600680548590811061240557fe5b60009182526020918290206040805160e081018252600593909302909101805483526001810154600160a060020a0381169484019490945260a060020a840460ff169183019190915260a860020a90920463ffffffff16606082015260028201546080820152600382015460a082015260049091015460c0820152905061248d818a8861370f565b836001018a600160a060020a03167f18f523957030bee670136363e25b2f847bf1bd07bb7b33c6d5475936a9aac70d8585426124c88e612e02565b6040805160ff909516855263ffffffff90931660208501520182820152606082018c9052608082018a9052519081900360a00190a350505050505050505050565b6000818152601560209081526040808320546016835281842080548351818602810186019094528084526060949293919283919083018282801561256c57602002820191906000526020600020905b815481526020019060010190808311612558575b5050505050905091509150915091565b600b546006546010549192909190565b600a546000908190819081908190819081906125b19063ffffffff166117b58a612df5565b93506125bc88612ddc565b84106125d1576000965086955085945061263d565b600a546125e990859063ffffffff9081169061317616565b92506125f488612ddc565b83111561260b5761260488612ddc565b9250612624565b600b54831015612624576000965086955085945061263d565b61262e84846139c7565b91509150818160019650965096505b505050509193909250565b6000612009600980548060200260200160405190810160405280929190818152602001828054801561269957602002820191906000526020600020905b815481526020019060010190808311612685575b505050505083613aff565b6126ac61207e565b15156126f0576040805160e560020a62461bcd02815260206004820181905260248201526000805160206145cd833981519152604482015290519081900360640190fd5b60048054600160a060020a031916600160a060020a0392909216919091179055565b601154606090600090819081906127329063ffffffff166117b588612df5565b60115490915061275b908790839061275590829063ffffffff9081169061317616565b88611008565b935093509350509250925092565b61277161207e565b15156127b5576040805160e560020a62461bcd02815260206004820181905260248201526000805160206145cd833981519152604482015290519081900360640190fd5b611b11600182613b3e565b600354600160a060020a031690565b6127d761207e565b151561281b576040805160e560020a62461bcd02815260206004820181905260248201526000805160206145cd833981519152604482015290519081900360640190fd5b600b5481111561282b57600b8190555b61283483612ddc565b600a5463ffffffff168061284786612df5565b020111156128685761285883612ddc565b600c5561286483612e02565b600d555b81600e600061287686612df5565b8152602081019190915260400160002055505050565b600080600061289961207e565b15156128dd576040805160e560020a62461bcd02815260206004820181905260248201526000805160206145cd833981519152604482015290519081900360640190fd5b6128e68461258c565b92509250925080156128fd576128fd8484846127cf565b50505050565b60065490565b600a5463ffffffff1681565b61291d61207e565b1515612961576040805160e560020a62461bcd02815260206004820181905260248201526000805160206145cd833981519152604482015290519081900360640190fd5b60028054600160a060020a031916600160a060020a0392909216919091179055565b600254600160a060020a031690565b600061299c61207e565b15156129e0576040805160e560020a62461bcd02815260206004820181905260248201526000805160206145cd833981519152604482015290519081900360640190fd5b612009600183613c07565b60006120096001805480602002602001604051908101604052809291908181526020018280548015612a6857602002820191906000526020600020906000905b82829054906101000a900463ffffffff1663ffffffff1681526020019060040190602082600301049283019260010382029150808411612a2b5790505b505050505083613cfe565b606080600080606080600080612aa4601160009054906101000a900463ffffffff1663ffffffff166117b58c612df5565b601154909650612abf90879063ffffffff9081169061317616565b9450612aca8a612ddc565b86101580612ad9575060125485105b15612ae357612c2d565b612aec8a612ddc565b851115612aff57612afc8a612ddc565b94505b6012548611612b0e5760125495505b612b1661330b565b9350612b2d8686612b268d612df5565b8c88613d49565b925088519150600090505b81811015612c26576003548951600160a060020a03909116906341976e09908b9084908110612b6357fe5b906020019060200201516040518263ffffffff1660e060020a0281526004018082600160a060020a0316600160a060020a03168152602001915050602060405180830381600087803b158015612bb857600080fd5b505af1158015612bcc573d6000803e3d6000fd5b505050506040513d6020811015612be257600080fd5b50518351849083908110612bf257fe5b90602001906020020151811515612c0557fe5b058382815181101515612c1457fe5b60209081029091010152600101612b38565b8284975097505b5050505050509250929050565b600160a060020a038116600090815260086020908152604091829020805483518184028101840190945280845260609392830182828015612c9a57602002820191906000526020600020905b815481526020019060010190808311612c86575b50505050509050919050565b611b116001805480602002602001604051908101604052809291908181526020018280548015612d2157602002820191906000526020600020906000905b82829054906101000a900463ffffffff1663ffffffff1681526020019060040190602082600301049283019260010382029150808411612ce45790505b505050505082613fdf565b612d3461207e565b1515612d78576040805160e560020a62461bcd02815260206004820181905260248201526000805160206145cd833981519152604482015290519081900360640190fd5b611b118161403f565b60125460065460105491929091904290565b6000612dd583836040805190810160405280601e81526020017f536166654d6174683a207375627472616374696f6e206f766572666c6f770000815250614120565b9392505050565b68010000000000000000900467ffffffffffffffff1690565b67ffffffffffffffff1690565b700100000000000000000000000000000000900467ffffffffffffffff1690565b60606000806060600080600080612e3b8d8d8d6141bd565b8a51604080518281526020808402820101909152929f509097508015612e6b578160200160208202803883390190505b5094505b8b8d1015612f8057600680548e908110612e8557fe5b90600052602060002090600502019350836002015492508a831080612eac57506004840154155b15612eb657612f75565b600760008e81526020019081526020016000209150612efb8b8360000154858760030154866005015487600601548a60010160149054906101000a900460ff16614242565b90506000811115612f75576001820154612f1f908a90600160a060020a031661311d565b9250612f4882600301546117c186600401546117b585876002015461303190919063ffffffff16565b9050612f5c8186858151811015156117fd57fe5b8584815181101515612f6a57fe5b602090810290910101525b6001909c019b612e6f565b612f8e8d8d8d8d8d8a6115f2565b9d959c50949a5050505050505050505050565b60008082118015612fb457506006548211155b151561300a576040805160e560020a62461bcd02815260206004820152601660248201527f6f7074696f6e206964206973206e6f7420657869737400000000000000000000604482015290519081900360640190fd5b60068054600019840190811061301c57fe5b90600052602060002090600502019050919050565b60008083151561304457600091506130d4565b5082820282848281151561305457fe5b04146130d0576040805160e560020a62461bcd02815260206004820152602160248201527f536166654d6174683a206d756c7469706c69636174696f6e206f766572666c6f60448201527f7700000000000000000000000000000000000000000000000000000000000000606482015290519081900360840190fd5b8091505b5092915050565b6000612dd583836040805190810160405280601a81526020017f536166654d6174683a206469766973696f6e206279207a65726f0000000000008152506143c3565b8151600090815b8181101561316a5783600160a060020a0316858281518110151561314457fe5b90602001906020020151600160a060020a031614156131625761316a565b600101613124565b8092505b505092915050565b6000828201838110156130d0576040805160e560020a62461bcd02815260206004820152601b60248201527f536166654d6174683a206164646974696f6e206f766572666c6f770000000000604482015290519081900360640190fd5b60808101514210611b11576040805160e560020a62461bcd02815260206004820152601160248201527f6f7074696f6e2069732065787069726564000000000000000000000000000000604482015290519081900360640190fd5b60c08201518111156113ad576040805160e560020a62461bcd02815260206004820152601d60248201527f6f7074696f6e20616d6f756e7420697320696e73756666696369656e74000000604482015290519081900360640190fd5b600a5460009081908190819063ffffffff16600b8201548115156132aa57fe5b600a54919004925063ffffffff16600b600101548115156132c757fe5b0460010190505b80821015613303576000828152600e60205260409020546132f690849063ffffffff61317616565b92506001909101906132ce565b509092915050565b600154604080518281526020808402820101909152606091908290600090838015613340578160200160208202803883390190505b509150600090505b828110156130d45760035460018054600160a060020a039092169163da66325791908490811061337457fe5b90600052602060002090600891828204019190066004029054906101000a900463ffffffff166040518263ffffffff1660e060020a028152600401808263ffffffff168152602001915050602060405180830381600087803b1580156133d957600080fd5b505af11580156133ed573d6000803e3d6000fd5b505050506040513d602081101561340357600080fd5b5051825183908390811061341357fe5b60209081029091010152600101613348565b600061200960018054806020026020016040519081016040528092919081815260200182805480156134a257602002820191906000526020600020906000905b82829054906101000a900463ffffffff1663ffffffff16815260200190600401906020826003010492830192600103820291508084116134655790505b50505050508361442f565b6000804284608001511115806134c5575060c0840151155b156134d357600091506130d4565b5060a08301516040840151600091841060ff90911615141561350f5760c084015160a08501516135089163ffffffff61303116565b90506130d0565b60c084015161352590849063ffffffff61303116565b949350505050565b60a08301516040840151600091829160ff161590841014156135655760a085015161355e908563ffffffff61303116565b9050613525565b613575838563ffffffff61303116565b95945050505050565b80600160a060020a03168260200151600160a060020a03161415156113ad576040805160e560020a62461bcd02815260206004820152601f60248201527f63616c6c6572206973206e6f7420746865206f7074696f6e73206f776e657200604482015290519081900360640190fd5b6136468280548060200260200160405190810160405280929190818152602001828054801561363b57602002820191906000526020600020905b815481526020019060010190808311613627575b505050505082613aff565b15156113ad5781546001810183556000928352602090922090910155565b8154600090815b818110156136a05783858281548110151561368257fe5b90600052602060002001541415613698576136a0565b60010161366b565b8181101561370457600019820181146136ea5784600183038154811015156136c457fe5b906000526020600020015485828154811015156136dd57fe5b6000918252602090912001555b84546136fa866000198301614559565b506001925061316e565b506000949350505050565b60a08301516080840151600554606086015160408088015181517fb4277bc100000000000000000000000000000000000000000000000000000000815263ffffffff909316600484015260ff16602483015242909303604482018190526064820185905283519093600093849384938493600160a060020a039093169263b4277bc1926084808201939182900301818787803b1580156137ae57600080fd5b505af11580156137c2573d6000803e3d6000fd5b505050506040513d60408110156137d857600080fd5b5080516020918201516004805460408e810151815160e060020a63055ef6ab0281529384018d9052602484018d9052604484018c9052606484018690526084840185905260ff1660a484015251939850919650600160a060020a039091169263055ef6ab9260c4808401938290030181600087803b15801561385957600080fd5b505af115801561386d573d6000803e3d6000fd5b505050506040513d602081101561388357600080fd5b5051600354604080517f41976e09000000000000000000000000000000000000000000000000000000008152600160a060020a038c81166004830152915193955061392d9391909216916341976e099160248083019260209291908290030181600087803b1580156138f457600080fd5b505af1158015613908573d6000803e3d6000fd5b505050506040513d602081101561391e57600080fd5b5051839063ffffffff6130db16565b6040805160e081018252428152600160a060020a039a8b16602080830191825282840194855260608301968752608083019b8c5260a0830198895260c083019788529c516000190160009081526007909d5291909b209a518b555160018b018054600160a060020a03191691909a161790985550955160028801559451600387015592516004860155505051600583015551600690910155565b600b5460009081908085118015906060908490819081906139e6578599505b6139ee61330b565b9350600092505b888a1015613ae557613a0f60068b815481101515611b6557fe5b9150613aac60068b815481101515613a2357fe5b60009182526020918290206040805160e081018252600593909302909101805483526001810154600160a060020a0381169484019490945260a060020a840460ff169183019190915260a860020a90920463ffffffff16606082015260028201546080820152600382015460a082015260049091015460c08201528551869085908110611c2c57fe5b9050848015613abb5750600081115b15613ac857899550600094505b613ad8838263ffffffff61317616565b6001909a019992506139f5565b8415613aef578995505b5090989397509295505050505050565b8151600090815b8181101561370457838582815181101515613b1d57fe5b906020019060200201511415613b36576001925061316e565b600101613b06565b613bc382805480602002602001604051908101604052809291908181526020018280548015613bb857602002820191906000526020600020906000905b82829054906101000a900463ffffffff1663ffffffff1681526020019060040190602082600301049283019260010382029150808411613b7b5790505b505050505082613cfe565b15156113ad578154600181018355600092835260209092206008830401805460079093166004026101000a63ffffffff818102199094169290931692909202179055565b8154600090815b81811015613c62578363ffffffff168582815481101515613c2b57fe5b6000918252602090912060088204015460079091166004026101000a900463ffffffff161415613c5a57613c62565b600101613c0e565b818110156137045760001982018114613cee578460018303815481101515613c8657fe5b90600052602060002090600891828204019190066004029054906101000a900463ffffffff168582815481101515613cba57fe5b90600052602060002090600891828204019190066004026101000a81548163ffffffff021916908363ffffffff1602179055505b84546136fa866000198301614582565b8151600090815b81811015613704578363ffffffff168582815181101515613d2257fe5b9060200190602002015163ffffffff161415613d41576001925061316e565b600101613d05565b6060806060600080600080601660008b8152602001908152602001600020805480602002602001604051908101604052809291908181526020018280548015613db157602002820191906000526020600020905b815481526020019060010190808311613d9d575b505050505095508851604051908082528060200260200182016040528015613de3578160200160208202803883390190505b5094505b8a8c1015613fcf57613e0160068d815481101515611b6557fe5b9950613e9e60068d815481101515613e1557fe5b60009182526020918290206040805160e081018252600593909302909101805483526001810154600160a060020a0381169484019490945260a060020a840460ff169183019190915260a860020a90920463ffffffff16606082015260028201546080820152600382015460a082015260049091015460c082015289518a908d908110611c2c57fe5b6013549094508c10613ec15760008c815260076020526040902060040154613eda565b858a815181101515613ecf57fe5b906020019060200201515b9250613f6f60068d815481101515613eee57fe5b60009182526020918290206040805160e081018252600593909302909101805483526001810154600160a060020a0381169484019490945260a060020a840460ff169183019190915260a860020a90920463ffffffff16606082015260028201546080820152600382015460a082015260049091015460c0820152846134ad565b9150838214613fc4575060008b81526007602052604090206001810154613fa0908a90600160a060020a031661311d565b9950818403858b815181101515613fb357fe5b602090810290910101805190910190525b6001909b019a613de7565b50929a9950505050505050505050565b613fe98282613cfe565b15156113ad576040805160e560020a62461bcd02815260206004820152601f60248201527f77686974654c6973743a207573696e6720696e76616c69642075696e74333200604482015290519081900360640190fd5b600160a060020a03811615156140c5576040805160e560020a62461bcd02815260206004820152602660248201527f4f776e61626c653a206e6577206f776e657220697320746865207a65726f206160448201527f6464726573730000000000000000000000000000000000000000000000000000606482015290519081900360840190fd5b60008054604051600160a060020a03808516939216917f8be0079c531659141344cd1fd0a4f28419497f9722a3daafe3b4186f6b6457e091a360008054600160a060020a031916600160a060020a0392909216919091179055565b60008082858511156141b35760405160e560020a62461bcd0281526004018080602001828103825283818151815260200191508051906020019080838360005b83811015614178578181015183820152602001614160565b50505050905090810190601f1680156141a55780820380516001836020036101000a031916815260200191505b509250505060405180910390fd5b5050509103919050565b601254600090819081818711156141d957868293509350614238565b8196505b858710156142315760068054889081106141f357fe5b90600052602060002090600502019050848160020154108061421757506004810154155b1561422157614226565b614231565b6001909601956141dd565b8687935093505b5050935093915050565b600080600080898b116142575789890361425b565b8a89035b600480546040805160e060020a63055ef6ab0281529283018c9052602483018c905260448301849052606483018b9052608483018a905260ff891660a484015251929550600160a060020a03169163055ef6ab9160c4808201926020929091908290030181600087803b1580156142d157600080fd5b505af11580156142e5573d6000803e3d6000fd5b505050506040513d60208110156142fb57600080fd5b5051600480546040805160e060020a63055ef6ab0281529283018c9052602483018c9052428d036044840152606483018b9052608483018a905260ff891660a484015251929450600160a060020a03169163055ef6ab9160c4808201926020929091908290030181600087803b15801561437457600080fd5b505af1158015614388573d6000803e3d6000fd5b505050506040513d602081101561439e57600080fd5b505190508082116143b05760006143b4565b8082035b9b9a5050505050505050505050565b600080828185116144195760405160e560020a62461bcd02815260040180806020018281038252838181518152602001915080519060200190808383600083811015614178578181015183820152602001614160565b50838581151561442557fe5b0495945050505050565b8151600090815b8181101561316a578363ffffffff16858281518110151561445357fe5b9060200190602002015163ffffffff16141561446e5761316a565b600101614436565b60408051808201825290600290829080388339509192915050565b60e060405190810160405280600081526020016000600160a060020a03168152602001600060ff168152602001600063ffffffff1681526020016000815260200160008152602001600081525090565b826002810192821561450f579160200282015b8281111561450f5782518255916020019190600101906144f4565b5061451b9291506145b2565b5090565b82805482825590600052602060002090810192821561450f579160200282018281111561450f5782518255916020019190600101906144f4565b81548183558181111561457d5760008381526020902061457d9181019083016145b2565b505050565b81548183558181111561457d57600701600890048160070160089004836000526020600020918201910161457d91905b61134291905b8082111561451b57600081556001016145b856004f776e61626c653a2063616c6c6572206973206e6f7420746865206f776e6572a165627a7a723058209a328e425010d1847154abbde64e354302556451f237fb0a88af5d529e59452f00294f776e61626c653a2063616c6c6572206973206e6f7420746865206f776e6572",
  "source": "pragma solidity ^0.4.26;\r\nimport \"./OptionsBase.sol\";\r\nimport \"./modules/tuple.sol\";\r\ncontract OptionsPool is OptionsBase {\r\n\r\n    //calculate options Collateral occupied phases\r\n    uint32 public optionPhase = 400;\r\n    uint256[3] internal optionPhaseInfo;    //firstOption,lastOption,lastBurn\r\n    mapping(uint256=>uint256) internal OptionsPhases;\r\n    //each burn options\r\n    mapping(uint256=>uint256[2]) internal burnedOptions;\r\n    uint256 internal burnedLength;\r\n    //calculate Options time shared value phases\r\n    uint32 public sharedPhase = 400;\r\n    uint256[3] internal optionPhaseInfo_Share;  //firstOption,lastOption,lastBurn\r\n    mapping (uint256 =>uint256) internal OptionsPhaseTimes;\r\n    mapping (uint256 =>uint256[]) internal OptionsPhasePrices;\r\n    //each block burn options\r\n\r\n    constructor (address oracleAddr,address optionsPriceAddr,address ivAddress) OptionsBase(oracleAddr,optionsPriceAddr,ivAddress) public{\r\n    }\r\n\r\n    function getOptionPhaseCalRange()public view returns(uint256,uint256,uint256){\r\n        return (optionPhaseInfo[0],allOptions.length,burnedLength);\r\n    }\r\n    function getsharedPhaseCalRange()public view returns(uint256,uint256,uint256,uint256){\r\n        return (optionPhaseInfo_Share[0],allOptions.length,burnedLength,now);\r\n    }\r\n    function getsharedPhaseCalInfo(uint256 index)public view returns(uint256,uint256[]){\r\n        return (OptionsPhaseTimes[index],OptionsPhasePrices[index]);\r\n    }\r\n    //index,lastOption,lastBurned\r\n    function setPhaseOccupiedCollateral(uint256 calInfo) public onlyOwner {\r\n        (uint256 totalOccupied,uint256 beginOption,bool success) = calculatePhaseOccupiedCollateral(calInfo);\r\n        if (success){\r\n            setCollateralPhase(calInfo,totalOccupied,beginOption);\r\n        }\r\n    }\r\n    function setCollateralPhase(uint256 calInfo,uint256 totalOccupied,uint256 beginOption) public onlyOwner{\r\n        if (beginOption > optionPhaseInfo[0]){\r\n            optionPhaseInfo[0] = beginOption;\r\n        }\r\n        if (tuple64.getValue0(calInfo)*optionPhase+optionPhase > tuple64.getValue1(calInfo)){\r\n            optionPhaseInfo[1] = tuple64.getValue1(calInfo);\r\n            optionPhaseInfo[2] = tuple64.getValue2(calInfo);\r\n        }\r\n        OptionsPhases[tuple64.getValue0(calInfo)] = totalOccupied;\r\n    }\r\n    function calculatePhaseOccupiedCollateral(uint256 calInfo) public view returns(uint256,uint256,bool){\r\n        uint256 beginOption = tuple64.getValue0(calInfo).mul(optionPhase);\r\n        if (beginOption>=tuple64.getValue1(calInfo)){\r\n            return (0,0,false);\r\n        }\r\n        uint256 endOption = beginOption.add(optionPhase);\r\n        if (endOption>tuple64.getValue1(calInfo)) {\r\n            endOption = tuple64.getValue1(calInfo);\r\n        }else if(endOption < optionPhaseInfo[0]){\r\n            return (0,0,false);\r\n        }\r\n        (uint256 totalOccupied,uint256 newFirstOption) = _calculateOccupiedCollateral(beginOption,endOption);\r\n        return (totalOccupied,newFirstOption,true);\r\n    }\r\n    function _calculateOccupiedCollateral(uint256 begin,uint256 end)internal view returns(uint256,uint256){\r\n        uint256 newFirstOption = optionPhaseInfo[0];\r\n        bool bfirstPhase = begin <= newFirstOption;\r\n        if (bfirstPhase) {\r\n            begin = newFirstOption;\r\n        }\r\n        uint256[] memory prices = getUnderlyingPrices();\r\n        uint256 totalOccupied = 0;\r\n        for (;begin<end;begin++){\r\n            uint256 index = _getEligibleUnderlyingIndex(allOptions[begin].underlying);\r\n            uint256 value = calOptionsCollateral(allOptions[begin],prices[index]);\r\n            if (bfirstPhase && value > 0){\r\n                newFirstOption = begin;\r\n                bfirstPhase = false;\r\n            }\r\n            totalOccupied = totalOccupied.add(value);\r\n        }\r\n        //all options in this phase are empty;\r\n        if (bfirstPhase){\r\n            newFirstOption = begin;\r\n        }\r\n        return (totalOccupied,newFirstOption);\r\n    }\r\n    function setSharedState(uint256 calInfo,uint256 firstOption,uint256[] prices,uint256 calTime) public onlyManager{\r\n        if (firstOption > optionPhaseInfo_Share[0]){\r\n            optionPhaseInfo_Share[0] = firstOption;\r\n        }\r\n        if (tuple64.getValue0(calInfo)*sharedPhase+sharedPhase > tuple64.getValue1(calInfo)){\r\n            optionPhaseInfo_Share[1] = tuple64.getValue1(calInfo);\r\n            optionPhaseInfo_Share[2] = tuple64.getValue2(calInfo);\r\n        }\r\n        OptionsPhaseTimes[tuple64.getValue0(calInfo)] = calTime;\r\n        OptionsPhasePrices[tuple64.getValue0(calInfo)] = prices;\r\n    }\r\n    function calculatePhaseSharedPayment(uint256 calInfo,address[] memory whiteList)\r\n        public view returns(uint256[],uint256,bool){\r\n        uint256 beginOption = tuple64.getValue0(calInfo).mul(sharedPhase);\r\n        return calRangeSharedPayment(calInfo,beginOption,beginOption.add(sharedPhase),whiteList);\r\n    }\r\n    function calRangeSharedPayment(uint256 calInfo,uint256 begin,uint256 end,address[] memory whiteList)\r\n            public view returns(uint256[],uint256,bool){\r\n        if (begin>=tuple64.getValue1(calInfo) || end < optionPhaseInfo_Share[0]){\r\n            return(sharedBalances,0,false);\r\n        }\r\n        if (end>tuple64.getValue1(calInfo)) {\r\n            end = tuple64.getValue1(calInfo);\r\n        }\r\n        (uint256[] memory sharedBalances,uint256 _firstOption) = \r\n            _calculateSharedPayment(begin,end,OptionsPhaseTimes[tuple64.getValue0(calInfo)],tuple64.getValue2(calInfo),whiteList);\r\n        return (sharedBalances,_firstOption,true);\r\n    }\r\n    function _calculateSharedPayment(uint256 begin,uint256 end,uint256 preTime,uint256 lastburn,address[] memory whiteList)\r\n            internal view returns(uint256[],uint256){\r\n        \r\n        uint256 newFirstOption;\r\n        (begin,newFirstOption) = getSharedFirstOption(begin,end,preTime);\r\n        uint256[] memory totalSharedPayment = new uint256[](whiteList.length);\r\n        for (;begin<end;begin++){\r\n            OptionsInfo storage info = allOptions[begin];\r\n            uint256 tempValue = info.expiration;\r\n            if(tempValue<preTime || info.amount == 0){\r\n                continue;\r\n            }\r\n            OptionsInfoEx storage optionEx = optionExtraMap[begin];\r\n            uint256 timeValue = _calculateTimePrice(preTime,optionEx.createdTime,tempValue,info.strikePrice,\r\n                    optionEx.ivNumerator,optionEx.ivDenominator,info.optType);\r\n            if (timeValue>0){\r\n                tempValue = whiteListAddress._getEligibleIndexAddress(whiteList,optionEx.settlement);\r\n                timeValue = optionEx.tokenTimePrice.mul((timeValue)).mul(info.amount).div(optionEx.fullPrice);\r\n                totalSharedPayment[tempValue] = totalSharedPayment[tempValue].add(timeValue);\r\n            }\r\n        }\r\n        //burned\r\n        return (_calBurnedSharePrice(begin,end,preTime,lastburn,whiteList,totalSharedPayment),newFirstOption);\r\n    }\r\n    function getSharedFirstOption(uint256 begin,uint256 end,uint256 preTime) internal view returns(uint256,uint256){\r\n        uint256 newFirstOption = optionPhaseInfo_Share[0];\r\n        if (begin > newFirstOption){\r\n            return (begin,newFirstOption);\r\n        }\r\n        begin = newFirstOption;\r\n        for (;begin<end;begin++){\r\n            OptionsInfo storage info = allOptions[begin];\r\n            if(info.expiration<preTime || info.amount == 0){\r\n                continue;\r\n            }\r\n            break;\r\n        }\r\n        return (begin,begin);\r\n    }\r\n    function _calBurnedSharePrice(uint256 beginIndex,uint256 endIndex,uint256 preTime,uint256 lastburn,address[] memory whiteList,uint256[] memory totalSharedPayment)public view returns(uint256[]){\r\n        for (uint256 i = optionPhaseInfo_Share[2];i<lastburn;i++){\r\n            uint256[2] memory burnInfo = burnedOptions[i];\r\n            if(burnInfo[0]<beginIndex || burnInfo[0] >=endIndex){\r\n                continue;\r\n            }\r\n            OptionsInfo storage info = allOptions[burnInfo[0]];\r\n            uint256 expiration = info.expiration;\r\n            if(expiration<preTime || burnInfo[1] == 0){\r\n                continue;\r\n            }\r\n            OptionsInfoEx storage optionEx = optionExtraMap[burnInfo[0]];\r\n            uint256 nowValue = _optionsPrice.getOptionsPrice_iv(info.strikePrice,info.strikePrice,expiration-now,optionEx.ivNumerator,\r\n                optionEx.ivDenominator,info.optType);\r\n            nowValue = optionEx.tokenTimePrice.mul(nowValue).mul(burnInfo[1]).div(optionEx.fullPrice);\r\n            uint256 index = whiteListAddress._getEligibleIndexAddress(whiteList,optionEx.settlement);\r\n            totalSharedPayment[index] = totalSharedPayment[index].add(nowValue);\r\n        }     \r\n        return totalSharedPayment;\r\n    }\r\n    function _calculateTimePrice(uint256 preTime,uint256 createdTime,uint256 expiration,\r\n            uint256 strikePrice,uint256 ivNumerator,uint256 ivDenominator,uint8 optType)internal view returns (uint256){\r\n        uint256 preExpiration = preTime>createdTime ? expiration - preTime : expiration - createdTime;\r\n        uint256 preValue = _optionsPrice.getOptionsPrice_iv(strikePrice,strikePrice,preExpiration,ivNumerator,\r\n            ivDenominator,optType);\r\n        uint256 nowValue = _optionsPrice.getOptionsPrice_iv(strikePrice,strikePrice,expiration-now,ivNumerator,\r\n            ivDenominator,optType);\r\n        return (preValue>nowValue)? preValue-nowValue : 0;\r\n    }\r\n    function calculatePhaseOptionsFall(uint256 calInfo,address[] memory whiteList) public view returns(int256[],uint256[]){\r\n        uint256 begin = tuple64.getValue0(calInfo).mul(sharedPhase);\r\n        uint256 end = begin.add(sharedPhase);\r\n        if (begin>=tuple64.getValue1(calInfo) || end < optionPhaseInfo_Share[0]){\r\n            return;\r\n        }\r\n        if (end>tuple64.getValue1(calInfo)) {\r\n            end = tuple64.getValue1(calInfo);\r\n        }\r\n        if (begin <= optionPhaseInfo_Share[0]) {\r\n            begin = optionPhaseInfo_Share[0];\r\n        }\r\n        uint256[] memory prices = getUnderlyingPrices();\r\n        int256[] memory OptionsFallBalances = _calRangeOptionsFall(begin,end,tuple64.getValue0(calInfo),whiteList,prices);\r\n        uint256 whiteListLen = whiteList.length;\r\n        for (uint256 index = 0;index<whiteListLen;index++){\r\n            OptionsFallBalances[index] = OptionsFallBalances[index]/(int256(_oracle.getPrice(whiteList[index])));\r\n        }\r\n        return (OptionsFallBalances,prices);\r\n    }\r\n    function _calRangeOptionsFall(uint256 begin,uint256 lastOption,uint256 index,address[] memory whiteList,uint256[] memory prices)\r\n                 internal view returns(int256[] memory){\r\n        uint256[] memory lastPrice = OptionsPhasePrices[index];\r\n        int256[] memory OptionsFallBalances = new int256[](whiteList.length);\r\n\r\n        for (;begin<lastOption;begin++){\r\n            index = _getEligibleUnderlyingIndex(allOptions[begin].underlying);\r\n            uint256 curValue = calOptionsCollateral(allOptions[begin],prices[index]);\r\n            uint256 prePrice = begin < optionPhaseInfo_Share[1] ? lastPrice[index] : optionExtraMap[begin].optionPrice;\r\n            uint256 preValue = calOptionsCollateral(allOptions[begin],prePrice);\r\n            if (preValue != curValue){\r\n                OptionsInfoEx storage optionEx = optionExtraMap[begin];\r\n                index = whiteListAddress._getEligibleIndexAddress(whiteList,optionEx.settlement);\r\n                OptionsFallBalances[index] += int256(curValue) - int256(preValue);\r\n            }\r\n        }\r\n        return OptionsFallBalances;\r\n    }\r\n    function getTotalOccupiedCollateral() public view returns (uint256) {\r\n        uint256 totalOccupied = sumOptionPhases();\r\n        uint256[] memory prices = getUnderlyingPrices();\r\n        uint optionsLen = allOptions.length;\r\n        for (uint256 beginOption = optionPhaseInfo[1]; beginOption < optionsLen;beginOption++){\r\n            uint256 index = _getEligibleUnderlyingIndex(allOptions[beginOption].underlying);\r\n            totalOccupied = totalOccupied.add(calOptionsCollateral(allOptions[beginOption],prices[index]));\r\n        }\r\n        uint burnedLen = burnedLength;\r\n        for (uint256 i = optionPhaseInfo[2];i<burnedLen;i++){\r\n            uint256[2] memory burnInfo = burnedOptions[i];\r\n            uint optionId = burnInfo[0];\r\n            index = _getEligibleUnderlyingIndex(allOptions[optionId].underlying);\r\n            totalOccupied = totalOccupied.sub(calBurnedOptionsCollateral(allOptions[optionId],\r\n                burnInfo[1],prices[index]));\r\n        }\r\n        return totalOccupied;\r\n    }\r\n    function calBurnedOptionsCollateral(OptionsInfo memory option,uint256 burned,uint256 underlyingPrice)internal pure returns(uint256){\r\n        uint256 totalOccupied = 0;\r\n        if ((option.optType == 0) == (option.strikePrice>underlyingPrice)){ // call\r\n            totalOccupied = option.strikePrice.mul(burned);\r\n        } else {\r\n            totalOccupied = underlyingPrice.mul(burned);\r\n        }\r\n        return totalOccupied;\r\n    }\r\n    function sumOptionPhases()internal view returns(uint256){\r\n        uint256 totalOccupied = 0;\r\n        uint256 i = optionPhaseInfo[0]/optionPhase;\r\n        uint256 phaseLen = optionPhaseInfo[1]/optionPhase+1;\r\n        for (;i<phaseLen;i++){\r\n            totalOccupied = totalOccupied.add(OptionsPhases[i]);\r\n        }\r\n        return totalOccupied;\r\n    }\r\n    function calOptionsCollateral(OptionsInfo memory option,uint256 underlyingPrice)internal view returns(uint256){\r\n        if (option.expiration<=now || option.amount == 0){\r\n            return 0;\r\n        }\r\n        uint256 totalOccupied = 0;\r\n        if ((option.optType == 0) == (option.strikePrice>underlyingPrice)){ // call\r\n            totalOccupied = option.strikePrice.mul(option.amount);\r\n        } else {\r\n            totalOccupied = underlyingPrice.mul(option.amount);\r\n        }\r\n        return totalOccupied;\r\n    }\r\n    function burnOptions(address from,uint256 id,uint256 amount)public onlyManager{\r\n        OptionsInfo memory info = _getOptionsById(id);\r\n        checkEligible(info);\r\n        checkOwner(info,from);\r\n        checkSufficient(info,amount);\r\n        info.amount = info.amount.sub(amount);\r\n        burnedOptions[burnedLength] = [id-1,amount];\r\n        burnedLength++;\r\n        emit BurnOption(from,id,amount);\r\n    }\r\n}",
  "sourcePath": "C:\\work\\solidity\\FinnexusOptions_V2\\contracts\\OptionsPool.sol",
  "compiler": {
    "name": "solc",
    "version": "0.4.26+commit.4563c3fc.Emscripten.clang"
  },
  "schemaVersion": "3.1.0",
  "updatedAt": "2020-07-22T15:09:42.884Z",
  "networkType": "ethereum",
  "devdoc": {
    "methods": {
      "addExpiration(uint256)": {
        "details": "Implementation of add an eligible expiration into the expirationList.\r",
        "params": {
          "expiration": "new eligible expiration.\r"
        }
      },
      "addUnderlyingAsset(uint32)": {
        "details": "Implementation of add an eligible underlying into the underlyingAssets.\r",
        "params": {
          "underlying": "new eligible underlying.\r"
        }
      },
      "getExpirationList()": {
        "details": "Implementation of getting the eligible expirationList.\r"
      },
      "getUnderlyingAssets()": {
        "details": "Implementation of getting the eligible underlyingAssets.\r"
      },
      "isEligibleExpiration(uint256)": {
        "details": "Implementation of testing whether the input expiration is eligible.\r",
        "params": {
          "expiration": "input expiration for testing.\r"
        }
      },
      "isEligibleUnderlyingAsset(uint32)": {
        "details": "Implementation of testing whether the input underlying is eligible.\r",
        "params": {
          "underlying": "input underlying for testing.\r"
        }
      },
      "isOwner()": {
        "details": "Returns true if the caller is the current owner."
      },
      "owner()": {
        "details": "Returns the address of the current owner."
      },
      "removeExpirationList(uint256)": {
        "details": "Implementation of revoke an invalid expiration from the expirationList.\r",
        "params": {
          "removeExpiration": "revoked expiration.\r"
        }
      },
      "removeUnderlyingAssets(uint32)": {
        "details": "Implementation of revoke an invalid underlying from the underlyingAssets.\r",
        "params": {
          "removeUnderlying": "revoked underlying.\r"
        }
      },
      "renounceOwnership()": {
        "details": "Leaves the contract without owner. It will not be possible to call `onlyOwner` functions anymore. Can only be called by the current owner.     * NOTE: Renouncing ownership will leave the contract without an owner, thereby removing any functionality that is only available to the owner."
      },
      "transferOwnership(address)": {
        "details": "Transfers ownership of the contract to a new account (`newOwner`). Can only be called by the current owner."
      }
    }
  },
  "userdoc": {
    "methods": {
      "setManager(address)": {
        "notice": "contribution period to stop or not."
      }
    }
  }
}