{
  "contractName": "OptionsBase",
  "abi": [
    {
      "constant": false,
      "inputs": [
        {
          "name": "volatility",
          "type": "address"
        }
      ],
      "name": "setVolatilityAddress",
      "outputs": [],
      "payable": false,
      "stateMutability": "nonpayable",
      "type": "function"
    },
    {
      "constant": true,
      "inputs": [],
      "name": "getUnderlyingAssets",
      "outputs": [
        {
          "name": "",
          "type": "uint32[]"
        }
      ],
      "payable": false,
      "stateMutability": "view",
      "type": "function"
    },
    {
      "constant": true,
      "inputs": [],
      "name": "getVolatilityAddress",
      "outputs": [
        {
          "name": "",
          "type": "address"
        }
      ],
      "payable": false,
      "stateMutability": "view",
      "type": "function"
    },
    {
      "constant": false,
      "inputs": [
        {
          "name": "oracle",
          "type": "address"
        }
      ],
      "name": "setOracleAddress",
      "outputs": [],
      "payable": false,
      "stateMutability": "nonpayable",
      "type": "function"
    },
    {
      "constant": false,
      "inputs": [],
      "name": "renounceOwnership",
      "outputs": [],
      "payable": false,
      "stateMutability": "nonpayable",
      "type": "function"
    },
    {
      "constant": true,
      "inputs": [],
      "name": "owner",
      "outputs": [
        {
          "name": "",
          "type": "address"
        }
      ],
      "payable": false,
      "stateMutability": "view",
      "type": "function"
    },
    {
      "constant": true,
      "inputs": [],
      "name": "isOwner",
      "outputs": [
        {
          "name": "",
          "type": "bool"
        }
      ],
      "payable": false,
      "stateMutability": "view",
      "type": "function"
    },
    {
      "constant": false,
      "inputs": [
        {
          "name": "underlying",
          "type": "uint32"
        }
      ],
      "name": "addUnderlyingAsset",
      "outputs": [],
      "payable": false,
      "stateMutability": "nonpayable",
      "type": "function"
    },
    {
      "constant": true,
      "inputs": [],
      "name": "getOracleAddress",
      "outputs": [
        {
          "name": "",
          "type": "address"
        }
      ],
      "payable": false,
      "stateMutability": "view",
      "type": "function"
    },
    {
      "constant": false,
      "inputs": [
        {
          "name": "managerAddress",
          "type": "address"
        }
      ],
      "name": "setManager",
      "outputs": [],
      "payable": false,
      "stateMutability": "nonpayable",
      "type": "function"
    },
    {
      "constant": true,
      "inputs": [],
      "name": "getManager",
      "outputs": [
        {
          "name": "",
          "type": "address"
        }
      ],
      "payable": false,
      "stateMutability": "view",
      "type": "function"
    },
    {
      "constant": false,
      "inputs": [
        {
          "name": "removeUnderlying",
          "type": "uint32"
        }
      ],
      "name": "removeUnderlyingAssets",
      "outputs": [
        {
          "name": "",
          "type": "bool"
        }
      ],
      "payable": false,
      "stateMutability": "nonpayable",
      "type": "function"
    },
    {
      "constant": true,
      "inputs": [
        {
          "name": "underlying",
          "type": "uint32"
        }
      ],
      "name": "isEligibleUnderlyingAsset",
      "outputs": [
        {
          "name": "",
          "type": "bool"
        }
      ],
      "payable": false,
      "stateMutability": "view",
      "type": "function"
    },
    {
      "constant": true,
      "inputs": [
        {
          "name": "underlying",
          "type": "uint32"
        }
      ],
      "name": "checkUnderlyingAsset",
      "outputs": [],
      "payable": false,
      "stateMutability": "view",
      "type": "function"
    },
    {
      "constant": false,
      "inputs": [
        {
          "name": "newOwner",
          "type": "address"
        }
      ],
      "name": "transferOwnership",
      "outputs": [],
      "payable": false,
      "stateMutability": "nonpayable",
      "type": "function"
    },
    {
      "inputs": [],
      "payable": false,
      "stateMutability": "nonpayable",
      "type": "constructor"
    },
    {
      "anonymous": false,
      "inputs": [
        {
          "indexed": true,
          "name": "owner",
          "type": "address"
        },
        {
          "indexed": true,
          "name": "optionID",
          "type": "uint256"
        },
        {
          "indexed": false,
          "name": "optType",
          "type": "uint8"
        },
        {
          "indexed": false,
          "name": "underlying",
          "type": "uint32"
        },
        {
          "indexed": false,
          "name": "expiration",
          "type": "uint256"
        },
        {
          "indexed": false,
          "name": "strikePrice",
          "type": "uint256"
        },
        {
          "indexed": false,
          "name": "amount",
          "type": "uint256"
        }
      ],
      "name": "CreateOption",
      "type": "event"
    },
    {
      "anonymous": false,
      "inputs": [
        {
          "indexed": true,
          "name": "owner",
          "type": "address"
        },
        {
          "indexed": true,
          "name": "optionID",
          "type": "uint256"
        },
        {
          "indexed": false,
          "name": "amount",
          "type": "uint256"
        }
      ],
      "name": "BurnOption",
      "type": "event"
    },
    {
      "anonymous": false,
      "inputs": [
        {
          "indexed": false,
          "name": "value1",
          "type": "uint256"
        },
        {
          "indexed": false,
          "name": "value2",
          "type": "uint256"
        },
        {
          "indexed": false,
          "name": "value3",
          "type": "uint256"
        }
      ],
      "name": "DebugEvent",
      "type": "event"
    },
    {
      "anonymous": false,
      "inputs": [
        {
          "indexed": true,
          "name": "previousOwner",
          "type": "address"
        },
        {
          "indexed": true,
          "name": "newOwner",
          "type": "address"
        }
      ],
      "name": "OwnershipTransferred",
      "type": "event"
    },
    {
      "constant": true,
      "inputs": [],
      "name": "getBurnTimeLimit",
      "outputs": [
        {
          "name": "",
          "type": "uint256"
        }
      ],
      "payable": false,
      "stateMutability": "view",
      "type": "function"
    },
    {
      "constant": false,
      "inputs": [
        {
          "name": "timeLimit",
          "type": "uint256"
        }
      ],
      "name": "setBurnTimeLimit",
      "outputs": [],
      "payable": false,
      "stateMutability": "nonpayable",
      "type": "function"
    },
    {
      "constant": true,
      "inputs": [
        {
          "name": "user",
          "type": "address"
        }
      ],
      "name": "getUserOptionsID",
      "outputs": [
        {
          "name": "",
          "type": "uint256[]"
        }
      ],
      "payable": false,
      "stateMutability": "view",
      "type": "function"
    },
    {
      "constant": true,
      "inputs": [
        {
          "name": "user",
          "type": "address"
        },
        {
          "name": "from",
          "type": "uint256"
        },
        {
          "name": "size",
          "type": "uint256"
        }
      ],
      "name": "getUserOptionsID",
      "outputs": [
        {
          "name": "",
          "type": "uint256[]"
        }
      ],
      "payable": false,
      "stateMutability": "view",
      "type": "function"
    },
    {
      "constant": true,
      "inputs": [],
      "name": "getOptionInfoLength",
      "outputs": [
        {
          "name": "",
          "type": "uint256"
        }
      ],
      "payable": false,
      "stateMutability": "view",
      "type": "function"
    },
    {
      "constant": true,
      "inputs": [
        {
          "name": "from",
          "type": "uint256"
        },
        {
          "name": "size",
          "type": "uint256"
        }
      ],
      "name": "getOptionInfoList",
      "outputs": [
        {
          "name": "",
          "type": "address[]"
        },
        {
          "name": "",
          "type": "uint256[]"
        },
        {
          "name": "",
          "type": "uint256[]"
        },
        {
          "name": "",
          "type": "uint256[]"
        },
        {
          "name": "",
          "type": "uint256[]"
        }
      ],
      "payable": false,
      "stateMutability": "view",
      "type": "function"
    },
    {
      "constant": true,
      "inputs": [
        {
          "name": "ids",
          "type": "uint256[]"
        }
      ],
      "name": "getOptionInfoListFromID",
      "outputs": [
        {
          "name": "",
          "type": "address[]"
        },
        {
          "name": "",
          "type": "uint256[]"
        },
        {
          "name": "",
          "type": "uint256[]"
        },
        {
          "name": "",
          "type": "uint256[]"
        },
        {
          "name": "",
          "type": "uint256[]"
        }
      ],
      "payable": false,
      "stateMutability": "view",
      "type": "function"
    },
    {
      "constant": true,
      "inputs": [],
      "name": "getLatestOption",
      "outputs": [
        {
          "name": "",
          "type": "uint256"
        },
        {
          "name": "",
          "type": "address"
        },
        {
          "name": "",
          "type": "uint8"
        },
        {
          "name": "",
          "type": "uint32"
        },
        {
          "name": "",
          "type": "uint256"
        },
        {
          "name": "",
          "type": "uint256"
        },
        {
          "name": "",
          "type": "uint256"
        }
      ],
      "payable": false,
      "stateMutability": "view",
      "type": "function"
    },
    {
      "constant": true,
      "inputs": [
        {
          "name": "optionsId",
          "type": "uint256"
        }
      ],
      "name": "getOptionsLimitTimeById",
      "outputs": [
        {
          "name": "",
          "type": "uint256"
        }
      ],
      "payable": false,
      "stateMutability": "view",
      "type": "function"
    },
    {
      "constant": true,
      "inputs": [
        {
          "name": "optionsId",
          "type": "uint256"
        }
      ],
      "name": "getOptionsById",
      "outputs": [
        {
          "name": "",
          "type": "uint256"
        },
        {
          "name": "",
          "type": "address"
        },
        {
          "name": "",
          "type": "uint8"
        },
        {
          "name": "",
          "type": "uint32"
        },
        {
          "name": "",
          "type": "uint256"
        },
        {
          "name": "",
          "type": "uint256"
        },
        {
          "name": "",
          "type": "uint256"
        }
      ],
      "payable": false,
      "stateMutability": "view",
      "type": "function"
    },
    {
      "constant": true,
      "inputs": [
        {
          "name": "optionsId",
          "type": "uint256"
        },
        {
          "name": "amount",
          "type": "uint256"
        }
      ],
      "name": "getExerciseWorth",
      "outputs": [
        {
          "name": "",
          "type": "uint256"
        }
      ],
      "payable": false,
      "stateMutability": "view",
      "type": "function"
    },
    {
      "constant": true,
      "inputs": [
        {
          "name": "expiration",
          "type": "uint256"
        },
        {
          "name": "underlying",
          "type": "uint32"
        }
      ],
      "name": "buyOptionCheck",
      "outputs": [],
      "payable": false,
      "stateMutability": "view",
      "type": "function"
    },
    {
      "constant": false,
      "inputs": [
        {
          "name": "expiration",
          "type": "uint256"
        }
      ],
      "name": "addExpiration",
      "outputs": [],
      "payable": false,
      "stateMutability": "nonpayable",
      "type": "function"
    },
    {
      "constant": false,
      "inputs": [
        {
          "name": "removeExpiration",
          "type": "uint256"
        }
      ],
      "name": "removeExpirationList",
      "outputs": [
        {
          "name": "",
          "type": "bool"
        }
      ],
      "payable": false,
      "stateMutability": "nonpayable",
      "type": "function"
    },
    {
      "constant": true,
      "inputs": [],
      "name": "getExpirationList",
      "outputs": [
        {
          "name": "",
          "type": "uint256[]"
        }
      ],
      "payable": false,
      "stateMutability": "view",
      "type": "function"
    },
    {
      "constant": true,
      "inputs": [
        {
          "name": "expiration",
          "type": "uint256"
        }
      ],
      "name": "isEligibleExpiration",
      "outputs": [
        {
          "name": "",
          "type": "bool"
        }
      ],
      "payable": false,
      "stateMutability": "view",
      "type": "function"
    },
    {
      "constant": true,
      "inputs": [
        {
          "name": "expiration",
          "type": "uint256"
        }
      ],
      "name": "checkExpiration",
      "outputs": [],
      "payable": false,
      "stateMutability": "view",
      "type": "function"
    },
    {
      "constant": true,
      "inputs": [
        {
          "name": "optionID",
          "type": "uint256"
        },
        {
          "name": "amount",
          "type": "uint256"
        }
      ],
      "name": "getBurnedFullPay",
      "outputs": [
        {
          "name": "",
          "type": "address"
        },
        {
          "name": "",
          "type": "uint256"
        }
      ],
      "payable": false,
      "stateMutability": "view",
      "type": "function"
    }
  ],
  "bytecode": "0x6080604052610e106009553480156200001757600080fd5b5060008054600160a060020a0319163317808255604051600160a060020a039190911691907f8be0079c531659141344cd1fd0a4f28419497f9722a3daafe3b4186f6b6457e0908290a36040805160e0810182526201518081526203f480602082015262093a8091810191909152620d2f0060608201526213c680608082015262278d0060a08201526276a70060c0820152620000b9906008906007620000e5565b50604080518082019091526001808252600260208301819052620000de92906200013c565b506200022f565b8280548282559060005260206000209081019282156200012a579160200282015b828111156200012a578251829062ffffff1690559160200191906001019062000106565b5062000138929150620001eb565b5090565b82805482825590600052602060002090600701600890048101928215620001dd5791602002820160005b83821115620001a957835183826101000a81548163ffffffff021916908360ff160217905550926020019260040160208160030104928301926001030262000166565b8015620001db5782816101000a81549063ffffffff0219169055600401602081600301049283019260010302620001a9565b505b50620001389291506200020b565b6200020891905b80821115620001385760008155600101620001f2565b90565b6200020891905b808211156200013857805463ffffffff1916815560010162000212565b612230806200023f6000396000f3006080604052600436106101875763ffffffff60e060020a6000350416630438d490811461018c5780632967eafe1461030f578063354af360146103325780633582d789146103875780633ad2fb57146103ec57806342e5479d1461040d57806345e19fdd1461043e57806348ee201d1461049a5780634c69c00f146104b2578063597ce900146104d357806364ed30171461051157806367b8ceb9146105385780636d84e2e314610553578063715018a61461056b578063723931ca146105805780637cfff2d8146105985780637e838fa3146105b05780638da5cb5b146105dc5780638f32d59b146105f15780639052d5f8146106065780639ef975d21461061b578063afec82fc14610633578063b18b78dd14610651578063bec3107f14610666578063c5acbe151461067b578063d0ebdbe714610693578063d5009584146106b4578063d6d14012146106c9578063db6ad2bd146106e7578063e7c5681514610705578063ee29c94a14610726578063f2fde38b14610744578063f7de192314610765575b600080fd5b34801561019857600080fd5b506101a760043560243561078c565b60405180806020018060200180602001806020018060200186810386528b818151815260200191508051906020019060200280838360005b838110156101f75781810151838201526020016101df565b5050505090500186810385528a818151815260200191508051906020019060200280838360005b8381101561023657818101518382015260200161021e565b50505050905001868103845289818151815260200191508051906020019060200280838360005b8381101561027557818101518382015260200161025d565b50505050905001868103835288818151815260200191508051906020019060200280838360005b838110156102b457818101518382015260200161029c565b50505050905001868103825287818151815260200191508051906020019060200280838360005b838110156102f35781810151838201526020016102db565b505050509050019a505050505050505050505060405180910390f35b34801561031b57600080fd5b50610330600160a060020a03600435166109d6565b005b34801561033e57600080fd5b50604080516020600480358082013583810280860185019096528085526101a795369593946024949385019291829185019084908082843750949750610a519650505050505050565b34801561039357600080fd5b5061039c610c6a565b60408051602080825283518183015283519192839290830191858101910280838360005b838110156103d85781810151838201526020016103c0565b505050509050019250505060405180910390f35b3480156103f857600080fd5b5061033060043563ffffffff60243516610cef565b34801561041957600080fd5b50610422610d5b565b60408051600160a060020a039092168252519081900360200190f35b34801561044a57600080fd5b50610453610d6a565b60408051978852600160a060020a03909616602088015260ff9094168686015263ffffffff9092166060860152608085015260a084015260c0830152519081900360e00190f35b3480156104a657600080fd5b50610453600435610e55565b3480156104be57600080fd5b50610330600160a060020a0360043516610ec9565b3480156104df57600080fd5b506104ee600435602435610f44565b60408051600160a060020a03909316835260208301919091528051918290030190f35b34801561051d57600080fd5b50610526610fa4565b60408051918252519081900360200190f35b34801561054457600080fd5b50610526600435602435610faa565b34801561055f57600080fd5b5061052660043561112a565b34801561057757600080fd5b506103306111b1565b34801561058c57600080fd5b50610330600435611254565b3480156105a457600080fd5b506103306004356112dc565b3480156105bc57600080fd5b506105c8600435611333565b604080519115158252519081900360200190f35b3480156105e857600080fd5b50610422611392565b3480156105fd57600080fd5b506105c86113a1565b34801561061257600080fd5b5061039c6113b2565b34801561062757600080fd5b506105c8600435611409565b34801561063f57600080fd5b5061033063ffffffff60043516611465565b34801561065d57600080fd5b506104226114bc565b34801561067257600080fd5b506105266114cb565b34801561068757600080fd5b506103306004356114d1565b34801561069f57600080fd5b50610330600160a060020a0360043516611522565b3480156106c057600080fd5b5061042261159d565b3480156106d557600080fd5b506105c863ffffffff600435166115ac565b3480156106f357600080fd5b506105c863ffffffff60043516611605565b34801561071157600080fd5b5061039c600160a060020a036004351661168d565b34801561073257600080fd5b5061033063ffffffff600435166116f9565b34801561075057600080fd5b50610330600160a060020a036004351661177f565b34801561077157600080fd5b5061039c600160a060020a03600435166024356044356117d4565b6060806060806060806060806060806000806005805490508d8f0111156107c3576005546107c0908f63ffffffff6118bb16565b9c505b60008d11156109c5578c6040519080825280602002602001820160405280156107f6578160200160208202803883390190505b5096508c604051908082528060200260200182016040528015610823578160200160208202803883390190505b5095508c604051908082528060200260200182016040528015610850578160200160208202803883390190505b5094508c60405190808252806020026020018201604052801561087d578160200160208202803883390190505b5093508c6040519080825280602002602001820160405280156108aa578160200160208202803883390190505b509250600091505b8c8210156109b557600580548f84019081106108ca57fe5b906000526020600020906005020190508060000160089054906101000a9004600160a060020a0316878381518110151561090057fe5b600160a060020a03929092166020928302919091019091015280546001820154875160e060020a90920460ff1663ffffffff918216620100000201169087908490811061094957fe5b602090810290910101526002810154855186908490811061096657fe5b602090810290910101526003810154845185908490811061098357fe5b60209081029091010152600481015483518490849081106109a057fe5b602090810290910101526001909101906108b2565b86868686869b509b509b509b509b505b505050505050509295509295909350565b6109de6113a1565b1515610a22576040805160e560020a62461bcd02815260206004820181905260248201526000805160206121e5833981519152604482015290519081900360640190fd5b6004805473ffffffffffffffffffffffffffffffffffffffff1916600160a060020a0392909216919091179055565b6060806060806060600060608060608060606000808d51975087604051908082528060200260200182016040528015610a94578160200160208202803883390190505b50965087604051908082528060200260200182016040528015610ac1578160200160208202803883390190505b50955087604051908082528060200260200182016040528015610aee578160200160208202803883390190505b50945087604051908082528060200260200182016040528015610b1b578160200160208202803883390190505b50935087604051908082528060200260200182016040528015610b48578160200160208202803883390190505b509250600091505b87821015610c5657610b788e83815181101515610b6957fe5b90602001906020020151611904565b80548851919250680100000000000000009004600160a060020a031690889084908110610ba157fe5b600160a060020a03929092166020928302919091019091015280546001820154875160e060020a90920460ff1663ffffffff9182166201000002011690879084908110610bea57fe5b6020908102909101015260028101548551869084908110610c0757fe5b6020908102909101015260038101548451859084908110610c2457fe5b6020908102909101015260048101548351849084908110610c4157fe5b60209081029091010152600190910190610b50565b50949c939b50919950975095509350505050565b60606001805480602002602001604051908101604052809291908181526020018280548015610ce457602002820191906000526020600020906000905b82829054906101000a900463ffffffff1663ffffffff1681526020019060040190602082600301049283019260010382029150808411610ca75790505b505050505090505b90565b610cf881611605565b1515610d4e576040805160e560020a62461bcd02815260206004820152601f60248201527f756e6465726c79696e6720697320756e737570706f7274656420617373657400604482015290519081900360640190fd5b610d5782611254565b5050565b600454600160a060020a031690565b60055460009081908190819081908190819081808211610dd4576040805160e560020a62461bcd02815260206004820152601560248201527f6f7074696f6e73206c69737420697320656d7074790000000000000000000000604482015290519081900360640190fd5b600580546000198401908110610de657fe5b60009182526020909120600590910201805460018201546002830154600384015460049094015467ffffffffffffffff84169e680100000000000000008504600160a060020a03169e5060e060020a90940460ff169c5063ffffffff9092169a50985091965090945092505050565b600080600080600080600080610e6a89611904565b805460018201546002830154600384015460049094015467ffffffffffffffff84169e680100000000000000008504600160a060020a03169e5060e060020a90940460ff169c5063ffffffff9092169a50985091965090945092505050565b610ed16113a1565b1515610f15576040805160e560020a62461bcd02815260206004820181905260248201526000805160206121e5833981519152604482015290519081900360640190fd5b6003805473ffffffffffffffffffffffffffffffffffffffff1916600160a060020a0392909216919091179055565b6000198201600090815260066020526040812060018101546002820154839291600160a060020a031690610f9890670de0b6b3a764000090610f8c908863ffffffff61199416565b9063ffffffff611a3e16565b92509250509250929050565b60095490565b6000610fb4612131565b600080610fc086611904565b6040805160e081018252825467ffffffffffffffff81168252680100000000000000008104600160a060020a0316602083015260e060020a900460ff1691810191909152600182015463ffffffff16606082015260028201546080820152600382015460a082015260049091015460c0820152925061103e83611a80565b6110488386611adb565b6003546060840151604080517fda66325700000000000000000000000000000000000000000000000000000000815263ffffffff909216600483015251600160a060020a039092169163da663257916024808201926020929091908290030181600087803b1580156110b957600080fd5b505af11580156110cd573d6000803e3d6000fd5b505050506040513d60208110156110e357600080fd5b5051604084015160a08501519193506110fc9184611b37565b905080151561110e5760009350611121565b61111e818663ffffffff61199416565b93505b50505092915050565b6000808211801561113d57506005548211155b1515611193576040805160e560020a62461bcd02815260206004820152601660248201527f6f7074696f6e206964206973206e6f7420657869737400000000000000000000604482015290519081900360640190fd5b50600954600019820160009081526006602052604090205401919050565b6111b96113a1565b15156111fd576040805160e560020a62461bcd02815260206004820181905260248201526000805160206121e5833981519152604482015290519081900360640190fd5b60008054604051600160a060020a03909116907f8be0079c531659141344cd1fd0a4f28419497f9722a3daafe3b4186f6b6457e0908390a36000805473ffffffffffffffffffffffffffffffffffffffff19169055565b61125d81611409565b15156112d9576040805160e560020a62461bcd02815260206004820152602160248201527f65787069726174696f6e2076616c7565206973206e6f7420737570706f72746560448201527f6400000000000000000000000000000000000000000000000000000000000000606482015290519081900360840190fd5b50565b6112e46113a1565b1515611328576040805160e560020a62461bcd02815260206004820181905260248201526000805160206121e5833981519152604482015290519081900360640190fd5b6112d9600882611b6c565b600061133d6113a1565b1515611381576040805160e560020a62461bcd02815260206004820181905260248201526000805160206121e5833981519152604482015290519081900360640190fd5b61138c600883611be3565b92915050565b600054600160a060020a031690565b600054600160a060020a0316331490565b60606008805480602002602001604051908101604052809291908181526020018280548015610ce457602002820191906000526020600020905b8154815260200190600101908083116113ec575050505050905090565b600061138c600880548060200260200160405190810160405280929190818152602001828054801561145a57602002820191906000526020600020905b815481526020019060010190808311611446575b505050505083611c90565b61146d6113a1565b15156114b1576040805160e560020a62461bcd02815260206004820181905260248201526000805160206121e5833981519152604482015290519081900360640190fd5b6112d9600182611ccf565b600354600160a060020a031690565b60055490565b6114d96113a1565b151561151d576040805160e560020a62461bcd02815260206004820181905260248201526000805160206121e5833981519152604482015290519081900360640190fd5b600955565b61152a6113a1565b151561156e576040805160e560020a62461bcd02815260206004820181905260248201526000805160206121e5833981519152604482015290519081900360640190fd5b6002805473ffffffffffffffffffffffffffffffffffffffff1916600160a060020a0392909216919091179055565b600254600160a060020a031690565b60006115b66113a1565b15156115fa576040805160e560020a62461bcd02815260206004820181905260248201526000805160206121e5833981519152604482015290519081900360640190fd5b61138c600183611d98565b600061138c600180548060200260200160405190810160405280929190818152602001828054801561168257602002820191906000526020600020906000905b82829054906101000a900463ffffffff1663ffffffff16815260200190600401906020826003010492830192600103820291508084116116455790505b505050505083611e8f565b600160a060020a0381166000908152600760209081526040918290208054835181840281018401909452808452606093928301828280156116ed57602002820191906000526020600020905b8154815260200190600101908083116116d9575b50505050509050919050565b6112d9600180548060200260200160405190810160405280929190818152602001828054801561177457602002820191906000526020600020906000905b82829054906101000a900463ffffffff1663ffffffff16815260200190600401906020826003010492830192600103820291508084116117375790505b505050505082611eda565b6117876113a1565b15156117cb576040805160e560020a62461bcd02815260206004820181905260248201526000805160206121e5833981519152604482015290519081900360640190fd5b6112d981611f3a565b606080600083604051908082528060200260200182016040528015611803578160200160208202803883390190505b50600160a060020a038716600090815260076020526040902054909250858501111561185557600160a060020a038616600090815260076020526040902054611852908663ffffffff6118bb16565b93505b5060005b838110156118b257600160a060020a0386166000908152600760205260409020805486830190811061188757fe5b906000526020600020015482828151811015156118a057fe5b60209081029091010152600101611859565b50949350505050565b60006118fd83836040805190810160405280601e81526020017f536166654d6174683a207375627472616374696f6e206f766572666c6f770000815250612028565b9392505050565b6000808211801561191757506005548211155b151561196d576040805160e560020a62461bcd02815260206004820152601660248201527f6f7074696f6e206964206973206e6f7420657869737400000000000000000000604482015290519081900360640190fd5b60058054600019840190811061197f57fe5b90600052602060002090600502019050919050565b6000808315156119a75760009150611a37565b508282028284828115156119b757fe5b0414611a33576040805160e560020a62461bcd02815260206004820152602160248201527f536166654d6174683a206d756c7469706c69636174696f6e206f766572666c6f60448201527f7700000000000000000000000000000000000000000000000000000000000000606482015290519081900360840190fd5b8091505b5092915050565b60006118fd83836040805190810160405280601a81526020017f536166654d6174683a206469766973696f6e206279207a65726f0000000000008152506120c5565b608081015142106112d9576040805160e560020a62461bcd02815260206004820152601160248201527f6f7074696f6e2069732065787069726564000000000000000000000000000000604482015290519081900360640190fd5b60c0820151811115610d57576040805160e560020a62461bcd02815260206004820152601d60248201527f6f7074696f6e20616d6f756e7420697320696e73756666696369656e74000000604482015290519081900360640190fd5b600060ff8416158284111415611b4f575060006118fd565b60ff841615611b6057818303611b64565b8282035b949350505050565b611bc582805480602002602001604051908101604052809291908181526020018280548015611bba57602002820191906000526020600020905b815481526020019060010190808311611ba6575b505050505082611c90565b1515610d575781546001810183556000928352602090922090910155565b8154600090815b81811015611c1f57838582815481101515611c0157fe5b90600052602060002001541415611c1757611c1f565b600101611bea565b81811015611c835760001982018114611c69578460018303815481101515611c4357fe5b90600052602060002001548582815481101515611c5c57fe5b6000918252602090912001555b8454611c7986600019830161216d565b5060019250611c88565b600092505b505092915050565b8151600090815b81811015611c8357838582815181101515611cae57fe5b906020019060200201511415611cc75760019250611c88565b600101611c97565b611d5482805480602002602001604051908101604052809291908181526020018280548015611d4957602002820191906000526020600020906000905b82829054906101000a900463ffffffff1663ffffffff1681526020019060040190602082600301049283019260010382029150808411611d0c5790505b505050505082611e8f565b1515610d57578154600181018355600092835260209092206008830401805460079093166004026101000a63ffffffff818102199094169290931692909202179055565b8154600090815b81811015611df3578363ffffffff168582815481101515611dbc57fe5b6000918252602090912060088204015460079091166004026101000a900463ffffffff161415611deb57611df3565b600101611d9f565b81811015611c835760001982018114611e7f578460018303815481101515611e1757fe5b90600052602060002090600891828204019190066004029054906101000a900463ffffffff168582815481101515611e4b57fe5b90600052602060002090600891828204019190066004026101000a81548163ffffffff021916908363ffffffff1602179055505b8454611c79866000198301612196565b8151600090815b81811015611c83578363ffffffff168582815181101515611eb357fe5b9060200190602002015163ffffffff161415611ed25760019250611c88565b600101611e96565b611ee48282611e8f565b1515610d57576040805160e560020a62461bcd02815260206004820152601f60248201527f77686974654c6973743a207573696e6720696e76616c69642075696e74333200604482015290519081900360640190fd5b600160a060020a0381161515611fc0576040805160e560020a62461bcd02815260206004820152602660248201527f4f776e61626c653a206e6577206f776e657220697320746865207a65726f206160448201527f6464726573730000000000000000000000000000000000000000000000000000606482015290519081900360840190fd5b60008054604051600160a060020a03808516939216917f8be0079c531659141344cd1fd0a4f28419497f9722a3daafe3b4186f6b6457e091a36000805473ffffffffffffffffffffffffffffffffffffffff1916600160a060020a0392909216919091179055565b60008082858511156120bb5760405160e560020a62461bcd0281526004018080602001828103825283818151815260200191508051906020019080838360005b83811015612080578181015183820152602001612068565b50505050905090810190601f1680156120ad5780820380516001836020036101000a031916815260200191505b509250505060405180910390fd5b5050509103919050565b6000808281851161211b5760405160e560020a62461bcd02815260040180806020018281038252838181518152602001915080519060200190808383600083811015612080578181015183820152602001612068565b50838581151561212757fe5b0495945050505050565b6040805160e081018252600080825260208201819052918101829052606081018290526080810182905260a0810182905260c081019190915290565b815481835581811115612191576000838152602090206121919181019083016121c6565b505050565b81548183558181111561219157600701600890048160070160089004836000526020600020918201910161219191905b610cec91905b808211156121e057600081556001016121cc565b509056004f776e61626c653a2063616c6c6572206973206e6f7420746865206f776e6572a165627a7a7230582029a62441ab4ce53c32a685000994602af9700d087ec5cd9e06a125dc26e7dba10029",
  "source": "pragma solidity ^0.4.26;\r\nimport \"./modules/SafeMath.sol\";\r\nimport \"./modules/Managerable.sol\";\r\nimport \"./interfaces/IFNXOracle.sol\";\r\nimport \"./modules/underlyingAssets.sol\";\r\nimport \"./interfaces/IVolatility.sol\";\r\nimport \"./modules/tuple.sol\";\r\ncontract OptionsBase is UnderlyingAssets,Managerable,ImportOracle,ImportVolatility {\r\n    \r\n    using SafeMath for uint256;\r\n    struct OptionsInfo {\r\n        uint64     optionID;\r\n        address     owner;\r\n        uint8   \toptType;    //0 for call, 1 for put\r\n        uint32\t\tunderlying;\r\n        uint256\t\texpiration;\r\n        uint256     strikePrice;\r\n        uint256     amount;\r\n    }\r\n\r\n    struct OptionsInfoEx{\r\n        uint256\t\t createdTime;\r\n        address      settlement;\r\n        uint256      tokenTimePrice;\r\n        uint256      underlyingPrice;\r\n        uint256      fullPrice;\r\n        uint256      ivNumerator;\r\n        uint256      ivDenominator;\r\n    }\r\n    //options information\r\n    OptionsInfo[] internal allOptions;\r\n    mapping(uint256=>OptionsInfoEx) internal optionExtraMap;\r\n    uint256 constant internal calDecimals = 1e18;\r\n    //user options balances\r\n    mapping(address=>uint256[]) internal optionsBalances;\r\n    //expiration whitelist\r\n    uint256[] internal expirationList;\r\n    uint256 internal burnTimeLimit = 1 hours;\r\n\r\n\r\n    event CreateOption(address indexed owner,uint256 indexed optionID,uint8 optType,uint32 underlying,uint256 expiration,uint256 strikePrice,uint256 amount);\r\n    event BurnOption(address indexed owner,uint256 indexed optionID,uint amount);\r\n    event DebugEvent(uint256 value1,uint256 value2,uint256 value3);\r\n    constructor () public{\r\n\r\n        expirationList =  [1 days,3 days, 7 days, 10 days, 15 days, 30 days,90 days];\r\n        underlyingAssets = [1,2];\r\n    }\r\n    function getBurnTimeLimit()public view returns(uint256){\r\n        return burnTimeLimit;\r\n    }\r\n    function setBurnTimeLimit(uint256 timeLimit)public onlyOwner{\r\n        burnTimeLimit = timeLimit;\r\n    }\r\n    function getUserOptionsID(address user)public view returns(uint256[]){\r\n        return optionsBalances[user];\r\n    }\r\n    function getUserOptionsID(address user,uint256 from,uint256 size)public view returns(uint256[]){\r\n        uint256[] memory userIdAry = new uint256[](size);\r\n        if (from+size>optionsBalances[user].length){\r\n            size = optionsBalances[user].length.sub(from);\r\n        }\r\n        for (uint256 i= 0;i<size;i++){\r\n            userIdAry[i] = optionsBalances[user][from+i];\r\n        }\r\n        return userIdAry;\r\n    }\r\n    function getOptionInfoLength()public view returns (uint256){\r\n        return allOptions.length;\r\n    }\r\n    function getOptionInfoList(uint256 from,uint256 size)public view \r\n                returns(address[],uint256[],uint256[],uint256[],uint256[]){\r\n        if (from+size>allOptions.length){\r\n            size = allOptions.length.sub(from);\r\n        }\r\n        if (size>0){\r\n            address[] memory ownerArr = new address[](size);\r\n            uint256[] memory typeAndUnderArr = new uint256[](size);\r\n            uint256[] memory expArr = new uint256[](size);\r\n            uint256[] memory priceArr = new uint256[](size);\r\n            uint256[] memory amountArr = new uint256[](size);\r\n            for (uint i=0;i<size;i++){\r\n                OptionsInfo storage info = allOptions[from+i];\r\n                ownerArr[i] = info.owner;\r\n                typeAndUnderArr[i] = (info.underlying << 16) + info.optType;\r\n                expArr[i] = info.expiration;\r\n                priceArr[i] = info.strikePrice;\r\n                amountArr[i] = info.amount;\r\n            }\r\n            return (ownerArr,typeAndUnderArr,expArr,priceArr,amountArr);\r\n        }\r\n    }\r\n    function getOptionInfoListFromID(uint256[] ids)public view \r\n                returns(address[],uint256[],uint256[],uint256[],uint256[]){\r\n        uint256 size = ids.length;\r\n        address[] memory ownerArr = new address[](size);\r\n        uint256[] memory typeAndUnderArr = new uint256[](size);\r\n        uint256[] memory expArr = new uint256[](size);\r\n        uint256[] memory priceArr = new uint256[](size);\r\n        uint256[] memory amountArr = new uint256[](size);\r\n        for (uint i=0;i<size;i++){\r\n            OptionsInfo storage info = _getOptionsById(ids[i]);\r\n            ownerArr[i] = info.owner;\r\n            typeAndUnderArr[i] = (info.underlying << 16) + info.optType;\r\n            expArr[i] = info.expiration;\r\n            priceArr[i] = info.strikePrice;\r\n            amountArr[i] = info.amount;\r\n        }\r\n        return (ownerArr,typeAndUnderArr,expArr,priceArr,amountArr);\r\n    }\r\n    function getLatestOption()public view returns(uint256,address,uint8,uint32,uint256,uint256,uint256){\r\n        uint256 len = allOptions.length;\r\n        require(len>0,\"options list is empty\");\r\n        OptionsInfo storage info = allOptions[len-1];\r\n        return (info.optionID,info.owner,info.optType,info.underlying,info.expiration,info.strikePrice,info.amount);\r\n    }\r\n    function getOptionsLimitTimeById(uint256 optionsId)public view returns(uint256){\r\n        require(optionsId>0 && optionsId <= allOptions.length,\"option id is not exist\");\r\n        return optionExtraMap[optionsId-1].createdTime + burnTimeLimit;\r\n    }\r\n    function getOptionsById(uint256 optionsId)public view returns(uint256,address,uint8,uint32,uint256,uint256,uint256){\r\n        OptionsInfo storage info = _getOptionsById(optionsId);\r\n        return (info.optionID,info.owner,info.optType,info.underlying,info.expiration,info.strikePrice,info.amount);\r\n    }\r\n    function getUnderlyingPrices()internal view returns(uint256[] memory){\r\n        uint256 underlyingLen = underlyingAssets.length;\r\n        uint256[] memory prices = new uint256[](underlyingLen);\r\n        for (uint256 i = 0;i<underlyingLen;i++){\r\n            prices[i] = _oracle.getUnderlyingPrice(underlyingAssets[i]);\r\n        }\r\n        return prices;\r\n    }\r\n\r\n    function _createOptions(address from,address settlement,uint256 type_ly_exp,uint256 strikePrice,uint256 optionPrice,\r\n                uint256 amount) internal {\r\n        uint256 optionID = allOptions.length;\r\n        uint8 optType = uint8(tuple64.getValue0(type_ly_exp));\r\n        uint32 underlying = uint32(tuple64.getValue1(type_ly_exp));\r\n        allOptions.push(OptionsInfo(uint64(optionID+1),from,optType,underlying,tuple64.getValue2(type_ly_exp)+now,strikePrice,amount));\r\n        optionsBalances[from].push(optionID+1);\r\n        OptionsInfo memory info = allOptions[optionID];\r\n        setOptionsExtra(info,settlement,optionPrice,strikePrice,underlying);\r\n        emit CreateOption(from,optionID+1,optType,underlying,tuple64.getValue2(type_ly_exp)+now,strikePrice,amount);\r\n    }\r\n    function setOptionsExtra(OptionsInfo memory info,address settlement,uint256 optionPrice,uint256 strikePrice,uint256 underlying) internal{\r\n        uint256 underlyingPrice = _oracle.getUnderlyingPrice(underlying);\r\n        uint256 expiration = info.expiration - now;\r\n        (uint256 ivNumerator,uint256 ivDenominator) = _volatility.calculateIv(info.underlying,info.optType,expiration,strikePrice);\r\n        uint256 tokenTimePrice = optionPrice.mul(calDecimals).div(_oracle.getPrice(settlement));\r\n        optionExtraMap[info.optionID-1]= OptionsInfoEx(now,settlement,tokenTimePrice,underlyingPrice,optionPrice,ivNumerator,ivDenominator);\r\n    }\r\n    function _burnOptions(address from,uint256 id,uint256 amount)internal{\r\n        OptionsInfo storage info = _getOptionsById(id);\r\n        checkEligible(info);\r\n        checkBurnable(info.optionID);\r\n        checkOwner(info,from);\r\n        checkSufficient(info,amount);\r\n        info.amount = info.amount.sub(amount);\r\n        emit BurnOption(from,id,amount);\r\n    }\r\n    function getExerciseWorth(uint256 optionsId,uint256 amount)public view returns(uint256){\r\n        OptionsInfo memory info = _getOptionsById(optionsId);\r\n        checkEligible(info);\r\n        checkSufficient(info,amount);\r\n        uint256 underlyingPrice = _oracle.getUnderlyingPrice(info.underlying);\r\n        uint256 tokenPayback = _getOptionsPayback(info.optType,info.strikePrice,underlyingPrice);\r\n        if (tokenPayback == 0 ){\r\n            return 0;\r\n        } \r\n        return tokenPayback.mul(amount);\r\n    }\r\n    function _getOptionsPayback(uint8 optType,uint256 strikePrice,uint256 underlyingPrice)internal pure returns(uint256){\r\n        if ((optType == 0) == (strikePrice>underlyingPrice)){ // call\r\n            return 0;\r\n        } else {\r\n            return (optType == 0) ? underlyingPrice - strikePrice : strikePrice - underlyingPrice;\r\n        }\r\n    }\r\n    function _getOptionsById(uint256 id)internal view returns(OptionsInfo storage){\r\n        require(id>0 && id <= allOptions.length,\"option id is not exist\");\r\n        return allOptions[id-1];\r\n    }\r\n    function checkBurnable(uint256 optionID)internal view{\r\n        require(optionExtraMap[optionID-1].createdTime+burnTimeLimit<now,\"option lock limitation is not expired\");\r\n    }\r\n    function checkEligible(OptionsInfo memory info)internal view{\r\n        require(info.expiration>now,\"option is expired\");\r\n    }\r\n    function checkOwner(OptionsInfo memory info,address owner)internal pure{\r\n        require(info.owner == owner,\"caller is not the options owner\");\r\n    }\r\n    function checkSufficient(OptionsInfo memory info,uint256 amount) internal pure{\r\n        require(info.amount >= amount,\"option amount is insufficient\");\r\n    }\r\n    function buyOptionCheck(uint256 expiration,uint32 underlying)public view{\r\n        require(isEligibleUnderlyingAsset(underlying) , \"underlying is unsupported asset\");\r\n        checkExpiration(expiration);\r\n    }\r\n        /**\r\n     * @dev Implementation of add an eligible expiration into the expirationList.\r\n     * @param expiration new eligible expiration.\r\n     */\r\n    function addExpiration(uint256 expiration)public onlyOwner{\r\n        whiteListUint256.addWhiteListUint256(expirationList,expiration);\r\n    }\r\n    /**\r\n     * @dev Implementation of revoke an invalid expiration from the expirationList.\r\n     * @param removeExpiration revoked expiration.\r\n     */\r\n    function removeExpirationList(uint256 removeExpiration)public onlyOwner returns(bool) {\r\n        return whiteListUint256.removeWhiteListUint256(expirationList,removeExpiration);\r\n    }\r\n    /**\r\n     * @dev Implementation of getting the eligible expirationList.\r\n     */\r\n    function getExpirationList()public view returns (uint256[]){\r\n        return expirationList;\r\n    }\r\n    /**\r\n     * @dev Implementation of testing whether the input expiration is eligible.\r\n     * @param expiration input expiration for testing.\r\n     */    \r\n    function isEligibleExpiration(uint256 expiration) public view returns (bool){\r\n        return whiteListUint256.isEligibleUint256(expirationList,expiration);\r\n    }\r\n    function checkExpiration(uint256 expiration) public view{\r\n        return require(isEligibleExpiration(expiration),\"expiration value is not supported\");\r\n    }\r\n    function _getEligibleExpirationIndex(uint256 expiration) internal view returns (uint256){\r\n        return whiteListUint256._getEligibleIndexUint256(expirationList,expiration);\r\n    }\r\n    function getFirstOption(uint256 begin,uint256 latestBegin,uint256 end) internal view returns(uint256,uint256){\r\n        uint256 newFirstOption = latestBegin;\r\n        if (begin > newFirstOption){\r\n            //if in other phase, begin != new begin\r\n            return (begin,newFirstOption);\r\n        }\r\n        begin = newFirstOption;\r\n        for (;begin<end;begin++){\r\n            OptionsInfo storage info = allOptions[begin];\r\n            if(info.expiration<now || info.amount == 0){\r\n                continue;\r\n            }\r\n            break;\r\n        }\r\n        //if in first phase, begin = new begin\r\n        return (begin,begin);\r\n    }\r\n    function calOptionsCollateral(OptionsInfo memory option,uint256 underlyingPrice)internal view returns(uint256){\r\n        if (option.expiration<=now || option.amount == 0){\r\n            return 0;\r\n        }\r\n        uint256 totalOccupied = _getOptionsWorth(option.optType,option.strikePrice,underlyingPrice).mul(option.amount);\r\n        return totalOccupied;\r\n    }\r\n    function _getOptionsWorth(uint8 optType,uint256 strikePrice,uint256 underlyingPrice)internal pure returns(uint256){\r\n        if ((optType == 0) == (strikePrice>underlyingPrice)){ // call\r\n            return strikePrice;\r\n        } else {\r\n            return underlyingPrice;\r\n        }\r\n    }\r\n    function getBurnedFullPay(uint256 optionID,uint256 amount) public view returns(address,uint256){\r\n        OptionsInfoEx storage optionEx = optionExtraMap[optionID-1];\r\n        return (optionEx.settlement,optionEx.tokenTimePrice.mul(amount).div(calDecimals));\r\n    }\r\n}",
  "sourcePath": "C:\\work\\solidity\\FinnexusOptions_V2\\contracts\\Optionsbase.sol",
  "compiler": {
    "name": "solc",
    "version": "0.4.26+commit.4563c3fc.Emscripten.clang"
  },
  "schemaVersion": "3.1.0",
  "updatedAt": "2020-08-03T14:27:23.363Z",
  "devdoc": {
    "methods": {
      "addExpiration(uint256)": {
        "details": "Implementation of add an eligible expiration into the expirationList.\r",
        "params": {
          "expiration": "new eligible expiration.\r"
        }
      },
      "addUnderlyingAsset(uint32)": {
        "details": "Implementation of add an eligible underlying into the underlyingAssets.\r",
        "params": {
          "underlying": "new eligible underlying.\r"
        }
      },
      "getExpirationList()": {
        "details": "Implementation of getting the eligible expirationList.\r"
      },
      "getUnderlyingAssets()": {
        "details": "Implementation of getting the eligible underlyingAssets.\r"
      },
      "isEligibleExpiration(uint256)": {
        "details": "Implementation of testing whether the input expiration is eligible.\r",
        "params": {
          "expiration": "input expiration for testing.\r"
        }
      },
      "isEligibleUnderlyingAsset(uint32)": {
        "details": "Implementation of testing whether the input underlying is eligible.\r",
        "params": {
          "underlying": "input underlying for testing.\r"
        }
      },
      "isOwner()": {
        "details": "Returns true if the caller is the current owner."
      },
      "owner()": {
        "details": "Returns the address of the current owner."
      },
      "removeExpirationList(uint256)": {
        "details": "Implementation of revoke an invalid expiration from the expirationList.\r",
        "params": {
          "removeExpiration": "revoked expiration.\r"
        }
      },
      "removeUnderlyingAssets(uint32)": {
        "details": "Implementation of revoke an invalid underlying from the underlyingAssets.\r",
        "params": {
          "removeUnderlying": "revoked underlying.\r"
        }
      },
      "renounceOwnership()": {
        "details": "Leaves the contract without owner. It will not be possible to call `onlyOwner` functions anymore. Can only be called by the current owner.     * NOTE: Renouncing ownership will leave the contract without an owner, thereby removing any functionality that is only available to the owner."
      },
      "transferOwnership(address)": {
        "details": "Transfers ownership of the contract to a new account (`newOwner`). Can only be called by the current owner."
      }
    }
  },
  "userdoc": {
    "methods": {
      "setManager(address)": {
        "notice": "contribution period to stop or not."
      }
    }
  }
}