{
  "contractName": "OptionsPoolTest",
  "abi": [
    {
      "constant": true,
      "inputs": [
        {
          "name": "from",
          "type": "uint256"
        },
        {
          "name": "size",
          "type": "uint256"
        }
      ],
      "name": "getOptionInfoList",
      "outputs": [
        {
          "name": "",
          "type": "address[]"
        },
        {
          "name": "",
          "type": "uint256[]"
        },
        {
          "name": "",
          "type": "uint256[]"
        },
        {
          "name": "",
          "type": "uint256[]"
        },
        {
          "name": "",
          "type": "uint256[]"
        }
      ],
      "payable": false,
      "stateMutability": "view",
      "type": "function"
    },
    {
      "constant": true,
      "inputs": [],
      "name": "sharedPhase",
      "outputs": [
        {
          "name": "",
          "type": "uint32"
        }
      ],
      "payable": false,
      "stateMutability": "view",
      "type": "function"
    },
    {
      "constant": false,
      "inputs": [
        {
          "name": "volatility",
          "type": "address"
        }
      ],
      "name": "setVolatilityAddress",
      "outputs": [],
      "payable": false,
      "stateMutability": "nonpayable",
      "type": "function"
    },
    {
      "constant": true,
      "inputs": [
        {
          "name": "calInfo",
          "type": "uint256"
        },
        {
          "name": "begin",
          "type": "uint256"
        },
        {
          "name": "end",
          "type": "uint256"
        },
        {
          "name": "whiteList",
          "type": "address[]"
        }
      ],
      "name": "calRangeSharedPayment",
      "outputs": [
        {
          "name": "",
          "type": "uint256[]"
        },
        {
          "name": "",
          "type": "uint256"
        },
        {
          "name": "",
          "type": "bool"
        }
      ],
      "payable": false,
      "stateMutability": "view",
      "type": "function"
    },
    {
      "constant": true,
      "inputs": [
        {
          "name": "ids",
          "type": "uint256[]"
        }
      ],
      "name": "getOptionInfoListFromID",
      "outputs": [
        {
          "name": "",
          "type": "address[]"
        },
        {
          "name": "",
          "type": "uint256[]"
        },
        {
          "name": "",
          "type": "uint256[]"
        },
        {
          "name": "",
          "type": "uint256[]"
        },
        {
          "name": "",
          "type": "uint256[]"
        }
      ],
      "payable": false,
      "stateMutability": "view",
      "type": "function"
    },
    {
      "constant": true,
      "inputs": [],
      "name": "getUnderlyingAssets",
      "outputs": [
        {
          "name": "",
          "type": "uint32[]"
        }
      ],
      "payable": false,
      "stateMutability": "view",
      "type": "function"
    },
    {
      "constant": true,
      "inputs": [
        {
          "name": "expiration",
          "type": "uint256"
        },
        {
          "name": "underlying",
          "type": "uint32"
        }
      ],
      "name": "buyOptionCheck",
      "outputs": [],
      "payable": false,
      "stateMutability": "view",
      "type": "function"
    },
    {
      "constant": true,
      "inputs": [
        {
          "name": "",
          "type": "uint256"
        }
      ],
      "name": "expirationList",
      "outputs": [
        {
          "name": "",
          "type": "uint256"
        }
      ],
      "payable": false,
      "stateMutability": "view",
      "type": "function"
    },
    {
      "constant": true,
      "inputs": [
        {
          "name": "",
          "type": "uint256"
        }
      ],
      "name": "underlyingAssets",
      "outputs": [
        {
          "name": "",
          "type": "uint32"
        }
      ],
      "payable": false,
      "stateMutability": "view",
      "type": "function"
    },
    {
      "constant": true,
      "inputs": [],
      "name": "getVolatilityAddress",
      "outputs": [
        {
          "name": "",
          "type": "address"
        }
      ],
      "payable": false,
      "stateMutability": "view",
      "type": "function"
    },
    {
      "constant": true,
      "inputs": [],
      "name": "getOptionCalRangeAll",
      "outputs": [
        {
          "name": "",
          "type": "uint256"
        },
        {
          "name": "",
          "type": "uint256"
        },
        {
          "name": "",
          "type": "uint256"
        },
        {
          "name": "",
          "type": "uint256"
        },
        {
          "name": "",
          "type": "uint256"
        },
        {
          "name": "",
          "type": "uint256"
        }
      ],
      "payable": false,
      "stateMutability": "view",
      "type": "function"
    },
    {
      "constant": true,
      "inputs": [],
      "name": "getLatestOption",
      "outputs": [
        {
          "name": "",
          "type": "uint256"
        },
        {
          "name": "",
          "type": "address"
        },
        {
          "name": "",
          "type": "uint8"
        },
        {
          "name": "",
          "type": "uint32"
        },
        {
          "name": "",
          "type": "uint256"
        },
        {
          "name": "",
          "type": "uint256"
        },
        {
          "name": "",
          "type": "uint256"
        }
      ],
      "payable": false,
      "stateMutability": "view",
      "type": "function"
    },
    {
      "constant": true,
      "inputs": [
        {
          "name": "optionsId",
          "type": "uint256"
        }
      ],
      "name": "getOptionsById",
      "outputs": [
        {
          "name": "",
          "type": "uint256"
        },
        {
          "name": "",
          "type": "address"
        },
        {
          "name": "",
          "type": "uint8"
        },
        {
          "name": "",
          "type": "uint32"
        },
        {
          "name": "",
          "type": "uint256"
        },
        {
          "name": "",
          "type": "uint256"
        },
        {
          "name": "",
          "type": "uint256"
        }
      ],
      "payable": false,
      "stateMutability": "view",
      "type": "function"
    },
    {
      "constant": false,
      "inputs": [
        {
          "name": "oracle",
          "type": "address"
        }
      ],
      "name": "setOracleAddress",
      "outputs": [],
      "payable": false,
      "stateMutability": "nonpayable",
      "type": "function"
    },
    {
      "constant": true,
      "inputs": [
        {
          "name": "",
          "type": "address"
        },
        {
          "name": "",
          "type": "uint256"
        }
      ],
      "name": "optionsBalances",
      "outputs": [
        {
          "name": "",
          "type": "uint256"
        }
      ],
      "payable": false,
      "stateMutability": "view",
      "type": "function"
    },
    {
      "constant": true,
      "inputs": [],
      "name": "getOptionsPriceAddress",
      "outputs": [
        {
          "name": "",
          "type": "address"
        }
      ],
      "payable": false,
      "stateMutability": "view",
      "type": "function"
    },
    {
      "constant": true,
      "inputs": [],
      "name": "getBurnTimeLimit",
      "outputs": [
        {
          "name": "",
          "type": "uint256"
        }
      ],
      "payable": false,
      "stateMutability": "view",
      "type": "function"
    },
    {
      "constant": true,
      "inputs": [
        {
          "name": "optionsId",
          "type": "uint256"
        },
        {
          "name": "amount",
          "type": "uint256"
        }
      ],
      "name": "getExerciseWorth",
      "outputs": [
        {
          "name": "",
          "type": "uint256"
        }
      ],
      "payable": false,
      "stateMutability": "view",
      "type": "function"
    },
    {
      "constant": false,
      "inputs": [],
      "name": "renounceOwnership",
      "outputs": [],
      "payable": false,
      "stateMutability": "nonpayable",
      "type": "function"
    },
    {
      "constant": true,
      "inputs": [
        {
          "name": "expiration",
          "type": "uint256"
        }
      ],
      "name": "checkExpiration",
      "outputs": [],
      "payable": false,
      "stateMutability": "view",
      "type": "function"
    },
    {
      "constant": true,
      "inputs": [],
      "name": "getTotalOccupiedCollateral",
      "outputs": [
        {
          "name": "",
          "type": "uint256"
        }
      ],
      "payable": false,
      "stateMutability": "view",
      "type": "function"
    },
    {
      "constant": false,
      "inputs": [
        {
          "name": "from",
          "type": "address"
        },
        {
          "name": "id",
          "type": "uint256"
        },
        {
          "name": "amount",
          "type": "uint256"
        }
      ],
      "name": "burnOptions",
      "outputs": [],
      "payable": false,
      "stateMutability": "nonpayable",
      "type": "function"
    },
    {
      "constant": true,
      "inputs": [],
      "name": "burnTimeLimit",
      "outputs": [
        {
          "name": "",
          "type": "uint256"
        }
      ],
      "payable": false,
      "stateMutability": "view",
      "type": "function"
    },
    {
      "constant": false,
      "inputs": [
        {
          "name": "expiration",
          "type": "uint256"
        }
      ],
      "name": "addExpiration",
      "outputs": [],
      "payable": false,
      "stateMutability": "nonpayable",
      "type": "function"
    },
    {
      "constant": false,
      "inputs": [
        {
          "name": "removeExpiration",
          "type": "uint256"
        }
      ],
      "name": "removeExpirationList",
      "outputs": [
        {
          "name": "",
          "type": "bool"
        }
      ],
      "payable": false,
      "stateMutability": "nonpayable",
      "type": "function"
    },
    {
      "constant": true,
      "inputs": [],
      "name": "owner",
      "outputs": [
        {
          "name": "",
          "type": "address"
        }
      ],
      "payable": false,
      "stateMutability": "view",
      "type": "function"
    },
    {
      "constant": true,
      "inputs": [
        {
          "name": "",
          "type": "uint256"
        }
      ],
      "name": "allOptions",
      "outputs": [
        {
          "name": "optionID",
          "type": "uint64"
        },
        {
          "name": "owner",
          "type": "address"
        },
        {
          "name": "optType",
          "type": "uint8"
        },
        {
          "name": "underlying",
          "type": "uint32"
        },
        {
          "name": "expiration",
          "type": "uint256"
        },
        {
          "name": "strikePrice",
          "type": "uint256"
        },
        {
          "name": "amount",
          "type": "uint256"
        }
      ],
      "payable": false,
      "stateMutability": "view",
      "type": "function"
    },
    {
      "constant": true,
      "inputs": [],
      "name": "isOwner",
      "outputs": [
        {
          "name": "",
          "type": "bool"
        }
      ],
      "payable": false,
      "stateMutability": "view",
      "type": "function"
    },
    {
      "constant": false,
      "inputs": [
        {
          "name": "calInfo",
          "type": "uint256"
        },
        {
          "name": "firstOption",
          "type": "uint256"
        },
        {
          "name": "prices",
          "type": "uint256[]"
        },
        {
          "name": "calTime",
          "type": "uint256"
        }
      ],
      "name": "setSharedState",
      "outputs": [],
      "payable": false,
      "stateMutability": "nonpayable",
      "type": "function"
    },
    {
      "constant": true,
      "inputs": [],
      "name": "getExpirationList",
      "outputs": [
        {
          "name": "",
          "type": "uint256[]"
        }
      ],
      "payable": false,
      "stateMutability": "view",
      "type": "function"
    },
    {
      "constant": false,
      "inputs": [
        {
          "name": "from",
          "type": "address"
        },
        {
          "name": "settlement",
          "type": "address"
        },
        {
          "name": "type_ly_exp",
          "type": "uint256"
        },
        {
          "name": "strikePrice",
          "type": "uint256"
        },
        {
          "name": "optionPrice",
          "type": "uint256"
        },
        {
          "name": "amount",
          "type": "uint256"
        }
      ],
      "name": "createOptions",
      "outputs": [],
      "payable": false,
      "stateMutability": "nonpayable",
      "type": "function"
    },
    {
      "constant": true,
      "inputs": [
        {
          "name": "index",
          "type": "uint256"
        }
      ],
      "name": "getsharedPhaseCalInfo",
      "outputs": [
        {
          "name": "",
          "type": "uint256"
        },
        {
          "name": "",
          "type": "uint256[]"
        }
      ],
      "payable": false,
      "stateMutability": "view",
      "type": "function"
    },
    {
      "constant": false,
      "inputs": [
        {
          "name": "addAddress",
          "type": "address"
        }
      ],
      "name": "addOperator",
      "outputs": [],
      "payable": false,
      "stateMutability": "nonpayable",
      "type": "function"
    },
    {
      "constant": true,
      "inputs": [],
      "name": "getOptionPhaseCalRange",
      "outputs": [
        {
          "name": "",
          "type": "uint256"
        },
        {
          "name": "",
          "type": "uint256"
        },
        {
          "name": "",
          "type": "uint256"
        }
      ],
      "payable": false,
      "stateMutability": "view",
      "type": "function"
    },
    {
      "constant": true,
      "inputs": [
        {
          "name": "calInfo",
          "type": "uint256"
        }
      ],
      "name": "calculatePhaseOccupiedCollateral",
      "outputs": [
        {
          "name": "",
          "type": "uint256"
        },
        {
          "name": "",
          "type": "uint256"
        },
        {
          "name": "",
          "type": "bool"
        }
      ],
      "payable": false,
      "stateMutability": "view",
      "type": "function"
    },
    {
      "constant": true,
      "inputs": [
        {
          "name": "",
          "type": "uint256"
        }
      ],
      "name": "_operatorList",
      "outputs": [
        {
          "name": "",
          "type": "address"
        }
      ],
      "payable": false,
      "stateMutability": "view",
      "type": "function"
    },
    {
      "constant": true,
      "inputs": [
        {
          "name": "expiration",
          "type": "uint256"
        }
      ],
      "name": "isEligibleExpiration",
      "outputs": [
        {
          "name": "",
          "type": "bool"
        }
      ],
      "payable": false,
      "stateMutability": "view",
      "type": "function"
    },
    {
      "constant": false,
      "inputs": [
        {
          "name": "optionsPrice",
          "type": "address"
        }
      ],
      "name": "setOptionsPriceAddress",
      "outputs": [],
      "payable": false,
      "stateMutability": "nonpayable",
      "type": "function"
    },
    {
      "constant": false,
      "inputs": [
        {
          "name": "removeAddress",
          "type": "address"
        }
      ],
      "name": "removeOperator",
      "outputs": [
        {
          "name": "",
          "type": "bool"
        }
      ],
      "payable": false,
      "stateMutability": "nonpayable",
      "type": "function"
    },
    {
      "constant": true,
      "inputs": [
        {
          "name": "calInfo",
          "type": "uint256"
        },
        {
          "name": "whiteList",
          "type": "address[]"
        }
      ],
      "name": "calculatePhaseSharedPayment",
      "outputs": [
        {
          "name": "",
          "type": "uint256[]"
        },
        {
          "name": "",
          "type": "uint256"
        },
        {
          "name": "",
          "type": "bool"
        }
      ],
      "payable": false,
      "stateMutability": "view",
      "type": "function"
    },
    {
      "constant": false,
      "inputs": [
        {
          "name": "underlying",
          "type": "uint32"
        }
      ],
      "name": "addUnderlyingAsset",
      "outputs": [],
      "payable": false,
      "stateMutability": "nonpayable",
      "type": "function"
    },
    {
      "constant": true,
      "inputs": [],
      "name": "getOracleAddress",
      "outputs": [
        {
          "name": "",
          "type": "address"
        }
      ],
      "payable": false,
      "stateMutability": "view",
      "type": "function"
    },
    {
      "constant": false,
      "inputs": [
        {
          "name": "calInfo",
          "type": "uint256"
        },
        {
          "name": "totalOccupied",
          "type": "uint256"
        },
        {
          "name": "beginOption",
          "type": "uint256"
        }
      ],
      "name": "setCollateralPhase",
      "outputs": [],
      "payable": false,
      "stateMutability": "nonpayable",
      "type": "function"
    },
    {
      "constant": false,
      "inputs": [
        {
          "name": "calInfo",
          "type": "uint256"
        }
      ],
      "name": "setPhaseOccupiedCollateral",
      "outputs": [],
      "payable": false,
      "stateMutability": "nonpayable",
      "type": "function"
    },
    {
      "constant": true,
      "inputs": [],
      "name": "getOptionInfoLength",
      "outputs": [
        {
          "name": "",
          "type": "uint256"
        }
      ],
      "payable": false,
      "stateMutability": "view",
      "type": "function"
    },
    {
      "constant": true,
      "inputs": [],
      "name": "optionPhase",
      "outputs": [
        {
          "name": "",
          "type": "uint32"
        }
      ],
      "payable": false,
      "stateMutability": "view",
      "type": "function"
    },
    {
      "constant": false,
      "inputs": [
        {
          "name": "timeLimit",
          "type": "uint256"
        }
      ],
      "name": "setBurnTimeLimit",
      "outputs": [],
      "payable": false,
      "stateMutability": "nonpayable",
      "type": "function"
    },
    {
      "constant": false,
      "inputs": [
        {
          "name": "managerAddress",
          "type": "address"
        }
      ],
      "name": "setManager",
      "outputs": [],
      "payable": false,
      "stateMutability": "nonpayable",
      "type": "function"
    },
    {
      "constant": true,
      "inputs": [],
      "name": "getManager",
      "outputs": [
        {
          "name": "",
          "type": "address"
        }
      ],
      "payable": false,
      "stateMutability": "view",
      "type": "function"
    },
    {
      "constant": false,
      "inputs": [
        {
          "name": "removeUnderlying",
          "type": "uint32"
        }
      ],
      "name": "removeUnderlyingAssets",
      "outputs": [
        {
          "name": "",
          "type": "bool"
        }
      ],
      "payable": false,
      "stateMutability": "nonpayable",
      "type": "function"
    },
    {
      "constant": true,
      "inputs": [
        {
          "name": "underlying",
          "type": "uint32"
        }
      ],
      "name": "isEligibleUnderlyingAsset",
      "outputs": [
        {
          "name": "",
          "type": "bool"
        }
      ],
      "payable": false,
      "stateMutability": "view",
      "type": "function"
    },
    {
      "constant": true,
      "inputs": [
        {
          "name": "calInfo",
          "type": "uint256"
        },
        {
          "name": "whiteList",
          "type": "address[]"
        }
      ],
      "name": "calculatePhaseOptionsFall",
      "outputs": [
        {
          "name": "",
          "type": "int256[]"
        },
        {
          "name": "",
          "type": "uint256[]"
        }
      ],
      "payable": false,
      "stateMutability": "view",
      "type": "function"
    },
    {
      "constant": false,
      "inputs": [
        {
          "name": "index",
          "type": "uint256"
        },
        {
          "name": "addAddress",
          "type": "address"
        }
      ],
      "name": "setOperator",
      "outputs": [],
      "payable": false,
      "stateMutability": "nonpayable",
      "type": "function"
    },
    {
      "constant": true,
      "inputs": [
        {
          "name": "user",
          "type": "address"
        }
      ],
      "name": "getUserOptionsID",
      "outputs": [
        {
          "name": "",
          "type": "uint256[]"
        }
      ],
      "payable": false,
      "stateMutability": "view",
      "type": "function"
    },
    {
      "constant": true,
      "inputs": [],
      "name": "getOperator",
      "outputs": [
        {
          "name": "",
          "type": "address[]"
        }
      ],
      "payable": false,
      "stateMutability": "view",
      "type": "function"
    },
    {
      "constant": true,
      "inputs": [
        {
          "name": "underlying",
          "type": "uint32"
        }
      ],
      "name": "checkUnderlyingAsset",
      "outputs": [],
      "payable": false,
      "stateMutability": "view",
      "type": "function"
    },
    {
      "constant": false,
      "inputs": [
        {
          "name": "newOwner",
          "type": "address"
        }
      ],
      "name": "transferOwnership",
      "outputs": [],
      "payable": false,
      "stateMutability": "nonpayable",
      "type": "function"
    },
    {
      "constant": true,
      "inputs": [],
      "name": "getsharedPhaseCalRange",
      "outputs": [
        {
          "name": "",
          "type": "uint256"
        },
        {
          "name": "",
          "type": "uint256"
        },
        {
          "name": "",
          "type": "uint256"
        },
        {
          "name": "",
          "type": "uint256"
        }
      ],
      "payable": false,
      "stateMutability": "view",
      "type": "function"
    },
    {
      "inputs": [
        {
          "name": "oracleAddr",
          "type": "address"
        },
        {
          "name": "optionsPriceAddr",
          "type": "address"
        },
        {
          "name": "ivAddress",
          "type": "address"
        }
      ],
      "payable": false,
      "stateMutability": "nonpayable",
      "type": "constructor"
    },
    {
      "anonymous": false,
      "inputs": [
        {
          "indexed": true,
          "name": "owner",
          "type": "address"
        },
        {
          "indexed": true,
          "name": "optionID",
          "type": "uint256"
        },
        {
          "indexed": false,
          "name": "optType",
          "type": "uint8"
        },
        {
          "indexed": false,
          "name": "underlying",
          "type": "uint32"
        },
        {
          "indexed": false,
          "name": "expiration",
          "type": "uint256"
        },
        {
          "indexed": false,
          "name": "strikePrice",
          "type": "uint256"
        },
        {
          "indexed": false,
          "name": "amount",
          "type": "uint256"
        }
      ],
      "name": "CreateOption",
      "type": "event"
    },
    {
      "anonymous": false,
      "inputs": [
        {
          "indexed": true,
          "name": "owner",
          "type": "address"
        },
        {
          "indexed": true,
          "name": "optionID",
          "type": "uint256"
        },
        {
          "indexed": false,
          "name": "amount",
          "type": "uint256"
        }
      ],
      "name": "BurnOption",
      "type": "event"
    },
    {
      "anonymous": false,
      "inputs": [
        {
          "indexed": false,
          "name": "value1",
          "type": "uint256"
        },
        {
          "indexed": false,
          "name": "value2",
          "type": "uint256"
        },
        {
          "indexed": false,
          "name": "value3",
          "type": "uint256"
        }
      ],
      "name": "DebugEvent",
      "type": "event"
    },
    {
      "anonymous": false,
      "inputs": [
        {
          "indexed": true,
          "name": "previousOwner",
          "type": "address"
        },
        {
          "indexed": true,
          "name": "newOwner",
          "type": "address"
        }
      ],
      "name": "OwnershipTransferred",
      "type": "event"
    },
    {
      "constant": true,
      "inputs": [
        {
          "name": "optType",
          "type": "uint8"
        },
        {
          "name": "strikePrice",
          "type": "uint256"
        },
        {
          "name": "underlyingPrice",
          "type": "uint256"
        }
      ],
      "name": "getOptionsWorth",
      "outputs": [
        {
          "name": "",
          "type": "uint256"
        }
      ],
      "payable": false,
      "stateMutability": "pure",
      "type": "function"
    },
    {
      "constant": true,
      "inputs": [
        {
          "name": "optType",
          "type": "uint8"
        },
        {
          "name": "strikePrice",
          "type": "uint256"
        },
        {
          "name": "underlyingPrice",
          "type": "uint256"
        }
      ],
      "name": "getOptionsPayback",
      "outputs": [
        {
          "name": "",
          "type": "uint256"
        }
      ],
      "payable": false,
      "stateMutability": "pure",
      "type": "function"
    }
  ],
  "bytecode": "0x6080604052610e10600a55600c805461019063ffffffff1991821681179092556013805490911690911790553480156200003857600080fd5b50604051606080620055e483398101604081815282516020840151919093015160008054600160a060020a031916331780825592939192859285928592859285928592600160a060020a0316917f8be0079c531659141344cd1fd0a4f28419497f9722a3daafe3b4186f6b6457e0908290a3620000be8364010000000062000173810204565b620000d28264010000000062000205810204565b620000e68164010000000062000297810204565b6040805160e0810182526201518081526203f480602082015262093a8091810191909152620d2f0060608201526213c680608082015262278d0060a08201526276a70060c08201526200013e9060099060076200033b565b5060408051808201909152600180825260026020830181905262000163929062000392565b5050505050505050505062000482565b6200018664010000000062000329810204565b1515620001e357604080517f08c379a00000000000000000000000000000000000000000000000000000000081526020600482018190526024820152600080516020620055c4833981519152604482015290519081900360640190fd5b60038054600160a060020a031916600160a060020a0392909216919091179055565b6200021864010000000062000329810204565b15156200027557604080517f08c379a00000000000000000000000000000000000000000000000000000000081526020600482018190526024820152600080516020620055c4833981519152604482015290519081900360640190fd5b60048054600160a060020a031916600160a060020a0392909216919091179055565b620002aa64010000000062000329810204565b15156200030757604080517f08c379a00000000000000000000000000000000000000000000000000000000081526020600482018190526024820152600080516020620055c4833981519152604482015290519081900360640190fd5b60058054600160a060020a031916600160a060020a0392909216919091179055565b600054600160a060020a031633145b90565b82805482825590600052602060002090810192821562000380579160200282015b8281111562000380578251829062ffffff169055916020019190600101906200035c565b506200038e92915062000441565b5090565b82805482825590600052602060002090600701600890048101928215620004335791602002820160005b83821115620003ff57835183826101000a81548163ffffffff021916908360ff1602179055509260200192600401602081600301049283019260010302620003bc565b8015620004315782816101000a81549063ffffffff0219169055600401602081600301049283019260010302620003ff565b505b506200038e9291506200045e565b6200033891905b808211156200038e576000815560010162000448565b6200033891905b808211156200038e57805463ffffffff1916815560010162000465565b61513280620004926000396000f3006080604052600436106102b05763ffffffff60e060020a6000350416630438d49081146102b557806316f35a7f146104385780632967eafe146104665780632b38f1801461048957806332ab5c20146104bc578063354af360146105865780633582d789146105db5780633ad2fb57146106405780633ad98099146106615780633b50c4d11461067957806342e5479d1461069157806344244d27146106c257806345e19fdd1461070a57806348ee201d146107665780634c69c00f1461077e57806355c47cb21461079f5780635ca4b73b146107c357806364ed3017146107d857806367b8ceb9146107ed578063715018a614610808578063723931ca1461081d57806373a3d4241461083557806374e85fd21461084a5780637b23dbbe146108715780637cfff2d8146108865780637e838fa31461089e5780638da5cb5b146108ca5780638ea745b8146108df5780638f32d59b146109495780638ff239e61461095e5780639052d5f8146109be578063924a69ce146109d357806397a918e914610a065780639870d7fe14610a7957806398dae82814610a9a57806399deae0a14610acd5780639b16bfaf14610b055780639ef975d214610b1d578063a093e2d014610b35578063ac8a584a14610b56578063af70df1214610b77578063afec82fc14610bd1578063b18b78dd14610bef578063b452bc0414610c04578063b8a5b7fa14610c22578063bec3107f14610c3a578063c27b7dfb14610c4f578063c5acbe1514610c64578063d0ebdbe714610c7c578063d500958414610c9d578063d6d1401214610cb2578063db6ad2bd14610cd0578063e5081c4014610cee578063e7a1c1c014610dca578063e7c5681514610dee578063e7f43c6814610e0f578063ed55283414610e24578063ee29c94a14610e45578063f2fde38b14610e63578063fa1cf1f014610e84575b600080fd5b3480156102c157600080fd5b506102d0600435602435610ebf565b60405180806020018060200180602001806020018060200186810386528b818151815260200191508051906020019060200280838360005b83811015610320578181015183820152602001610308565b5050505090500186810385528a818151815260200191508051906020019060200280838360005b8381101561035f578181015183820152602001610347565b50505050905001868103845289818151815260200191508051906020019060200280838360005b8381101561039e578181015183820152602001610386565b50505050905001868103835288818151815260200191508051906020019060200280838360005b838110156103dd5781810151838201526020016103c5565b50505050905001868103825287818151815260200191508051906020019060200280838360005b8381101561041c578181015183820152602001610404565b505050509050019a505050505050505050505060405180910390f35b34801561044457600080fd5b5061044d61110c565b6040805163ffffffff9092168252519081900360200190f35b34801561047257600080fd5b50610487600160a060020a0360043516611118565b005b34801561049557600080fd5b506104aa60ff60043516602435604435611186565b60408051918252519081900360200190f35b3480156104c857600080fd5b50604080516064356004818101356020818102858101820190965281855261052095833595602480359660443596369690956084959290930192909182918501908490808284375094975061119d9650505050505050565b604051808060200184815260200183151515158152602001828103825285818151815260200191508051906020019060200280838360005b83811015610570578181015183820152602001610558565b5050505090500194505050505060405180910390f35b34801561059257600080fd5b50604080516020600480358082013583810280860185019096528085526102d09536959394602494938501929182918501908490808284375094975061123b9650505050505050565b3480156105e757600080fd5b506105f0611457565b60408051602080825283518183015283519192839290830191858101910280838360005b8381101561062c578181015183820152602001610614565b505050509050019250505060405180910390f35b34801561064c57600080fd5b5061048760043563ffffffff602435166114dc565b34801561066d57600080fd5b506104aa600435611548565b34801561068557600080fd5b5061044d600435611567565b34801561069d57600080fd5b506106a661159f565b60408051600160a060020a039092168252519081900360200190f35b3480156106ce57600080fd5b506106d76115ae565b604080519687526020870195909552858501939093526060850191909152608084015260a0830152519081900360c00190f35b34801561071657600080fd5b5061071f6115c2565b60408051978852600160a060020a03909616602088015260ff9094168686015263ffffffff9092166060860152608085015260a084015260c0830152519081900360e00190f35b34801561077257600080fd5b5061071f6004356116ad565b34801561078a57600080fd5b50610487600160a060020a0360043516611721565b3480156107ab57600080fd5b506104aa600160a060020a036004351660243561178f565b3480156107cf57600080fd5b506106a66117bf565b3480156107e457600080fd5b506104aa6117ce565b3480156107f957600080fd5b506104aa6004356024356117d4565b34801561081457600080fd5b50610487611954565b34801561082957600080fd5b506104876004356119ea565b34801561084157600080fd5b506104aa611a72565b34801561085657600080fd5b50610487600160a060020a0360043516602435604435611d1a565b34801561087d57600080fd5b506104aa611fd7565b34801561089257600080fd5b50610487600435611fdd565b3480156108aa57600080fd5b506108b6600435612034565b604080519115158252519081900360200190f35b3480156108d657600080fd5b506106a6612095565b3480156108eb57600080fd5b506108f76004356120a4565b6040805167ffffffffffffffff9098168852600160a060020a03909616602088015260ff9094168686015263ffffffff9092166060860152608085015260a084015260c0830152519081900360e00190f35b34801561095557600080fd5b506108b6612115565b34801561096a57600080fd5b50604080516020600460443581810135838102808601850190965280855261048795833595602480359636969560649593949201929182918501908490808284375094975050933594506121269350505050565b3480156109ca57600080fd5b506105f0612251565b3480156109df57600080fd5b50610487600160a060020a036004358116906024351660443560643560843560a4356122a8565b348015610a1257600080fd5b50610a1e6004356125e3565b6040518083815260200180602001828103825283818151815260200191508051906020019060200280838360005b83811015610a64578181015183820152602001610a4c565b50505050905001935050505060405180910390f35b348015610a8557600080fd5b50610487600160a060020a0360043516612656565b348015610aa657600080fd5b50610aaf6126ad565b60408051938452602084019290925282820152519081900360600190f35b348015610ad957600080fd5b50610ae56004356126bd565b604080519384526020840192909252151582820152519081900360600190f35b348015610b1157600080fd5b506106a6600435612785565b348015610b2957600080fd5b506108b66004356127ad565b348015610b4157600080fd5b50610487600160a060020a0360043516612809565b348015610b6257600080fd5b506108b6600160a060020a0360043516612877565b348015610b8357600080fd5b50604080516020600460248035828101358481028087018601909752808652610520968435963696604495919490910192918291850190849080828437509497506128d09650505050505050565b348015610bdd57600080fd5b5061048763ffffffff60043516612927565b348015610bfb57600080fd5b506106a661297e565b348015610c1057600080fd5b5061048760043560243560443561298d565b348015610c2e57600080fd5b50610487600435612ab2565b348015610c4657600080fd5b506104aa612b8b565b348015610c5b57600080fd5b5061044d612b91565b348015610c7057600080fd5b50610487600435612b9d565b348015610c8857600080fd5b50610487600160a060020a0360043516612bee565b348015610ca957600080fd5b506106a6612c5c565b348015610cbe57600080fd5b506108b663ffffffff60043516612c6b565b348015610cdc57600080fd5b506108b663ffffffff60043516612cc4565b348015610cfa57600080fd5b50604080516020600460248035828101358481028087018601909752808652610d4896843596369660449591949091019291829185019084908082843750949750612d4c9650505050505050565b604051808060200180602001838103835285818151815260200191508051906020019060200280838360005b83811015610d8c578181015183820152602001610d74565b505050509050018381038252848181518152602001915080519060200190602002808383600083811015610570578181015183820152602001610558565b348015610dd657600080fd5b50610487600435600160a060020a0360243516612f1c565b348015610dfa57600080fd5b506105f0600160a060020a0360043516612faa565b348015610e1b57600080fd5b506105f0613016565b348015610e3057600080fd5b506104aa60ff60043516602435604435613077565b348015610e5157600080fd5b5061048763ffffffff60043516613084565b348015610e6f57600080fd5b50610487600160a060020a036004351661310a565b348015610e9057600080fd5b50610e9961315f565b604080519485526020850193909352838301919091526060830152519081900360800190f35b6060806060806060806060806060806000806006805490508d8f011115610ef657600654610ef3908f63ffffffff61317116565b9c505b60008d11156110fb578c604051908082528060200260200182016040528015610f29578160200160208202803883390190505b5096508c604051908082528060200260200182016040528015610f56578160200160208202803883390190505b5095508c604051908082528060200260200182016040528015610f83578160200160208202803883390190505b5094508c604051908082528060200260200182016040528015610fb0578160200160208202803883390190505b5093508c604051908082528060200260200182016040528015610fdd578160200160208202803883390190505b509250600091505b8c8210156110eb57600680548f8401908110610ffd57fe5b906000526020600020906005020190508060000160089054906101000a9004600160a060020a0316878381518110151561103357fe5b600160a060020a03909216602092830290910190910152805460018201548751601060ff60e060020a90940484160190921660020a63ffffffff91821602169087908490811061107f57fe5b602090810290910101526002810154855186908490811061109c57fe5b60209081029091010152600381015484518590849081106110b957fe5b60209081029091010152600481015483518490849081106110d657fe5b60209081029091010152600190910190610fe5565b86868686869b509b509b509b509b505b505050505050509295509295909350565b60135463ffffffff1681565b611120612115565b1515611164576040805160e560020a62461bcd02815260206004820181905260248201526000805160206150e7833981519152604482015290519081900360640190fd5b60058054600160a060020a031916600160a060020a0392909216919091179055565b60006111938484846131b3565b90505b9392505050565b6060600080606060006111af896131d1565b881015806111be575060145487105b156111d45790935060009250829150839061122f565b6111dd896131d1565b8711156111f0576111ed896131d1565b96505b6112208888601760006112028e6131ea565b81526020019081526020016000205461121a8d6131f7565b8a613218565b91509150818160019450945094505b50509450945094915050565b6060806060806060600060608060608060606000808d5197508760405190808252806020026020018201604052801561127e578160200160208202803883390190505b509650876040519080825280602002602001820160405280156112ab578160200160208202803883390190505b509550876040519080825280602002602001820160405280156112d8578160200160208202803883390190505b50945087604051908082528060200260200182016040528015611305578160200160208202803883390190505b50935087604051908082528060200260200182016040528015611332578160200160208202803883390190505b509250600091505b87821015611443576113628e8381518110151561135357fe5b906020019060200201516133fc565b80548851919250680100000000000000009004600160a060020a03169088908490811061138b57fe5b600160a060020a03909216602092830290910190910152805460018201548751601060ff60e060020a90940484160190921660020a63ffffffff9182160216908790849081106113d757fe5b60209081029091010152600281015485518690849081106113f457fe5b602090810290910101526003810154845185908490811061141157fe5b602090810290910101526004810154835184908490811061142e57fe5b6020908102909101015260019091019061133a565b50949c939b50919950975095509350505050565b606060018054806020026020016040519081016040528092919081815260200182805480156114d157602002820191906000526020600020906000905b82829054906101000a900463ffffffff1663ffffffff16815260200190600401906020826003010492830192600103820291508084116114945790505b505050505090505b90565b6114e581612cc4565b151561153b576040805160e560020a62461bcd02815260206004820152601f60248201527f756e6465726c79696e6720697320756e737570706f7274656420617373657400604482015290519081900360640190fd5b611544826119ea565b5050565b600980548290811061155657fe5b600091825260209091200154905081565b600180548290811061157557fe5b9060005260206000209060089182820401919006600402915054906101000a900463ffffffff1681565b600554600160a060020a031690565b600d54600654601254919283929043904290565b6006546000908190819081908190819081908180821161162c576040805160e560020a62461bcd02815260206004820152601560248201527f6f7074696f6e73206c69737420697320656d7074790000000000000000000000604482015290519081900360640190fd5b60068054600019840190811061163e57fe5b60009182526020909120600590910201805460018201546002830154600384015460049094015467ffffffffffffffff84169e680100000000000000008504600160a060020a03169e5060e060020a90940460ff169c5063ffffffff9092169a50985091965090945092505050565b6000806000806000806000806116c2896133fc565b805460018201546002830154600384015460049094015467ffffffffffffffff84169e680100000000000000008504600160a060020a03169e5060e060020a90940460ff169c5063ffffffff9092169a50985091965090945092505050565b611729612115565b151561176d576040805160e560020a62461bcd02815260206004820181905260248201526000805160206150e7833981519152604482015290519081900360640190fd5b60038054600160a060020a031916600160a060020a0392909216919091179055565b6008602052816000526040600020818154811015156117aa57fe5b90600052602060002001600091509150505481565b600454600160a060020a031690565b600a5490565b60006117de614fa4565b6000806117ea866133fc565b6040805160e081018252825467ffffffffffffffff81168252680100000000000000008104600160a060020a0316602083015260e060020a900460ff1691810191909152600182015463ffffffff16606082015260028201546080820152600382015460a082015260049091015460c082015292506118688361348c565b61187283866134e7565b6003546060840151604080517fda66325700000000000000000000000000000000000000000000000000000000815263ffffffff909216600483015251600160a060020a039092169163da663257916024808201926020929091908290030181600087803b1580156118e357600080fd5b505af11580156118f7573d6000803e3d6000fd5b505050506040513d602081101561190d57600080fd5b5051604084015160a08501519193506119269184613543565b9050801515611938576000935061194b565b611948818663ffffffff61357716565b93505b50505092915050565b61195c612115565b15156119a0576040805160e560020a62461bcd02815260206004820181905260248201526000805160206150e7833981519152604482015290519081900360640190fd5b60008054604051600160a060020a03909116907f8be0079c531659141344cd1fd0a4f28419497f9722a3daafe3b4186f6b6457e0908390a360008054600160a060020a0319169055565b6119f3816127ad565b1515611a6f576040805160e560020a62461bcd02815260206004820152602160248201527f65787069726174696f6e2076616c7565206973206e6f7420737570706f72746560448201527f6400000000000000000000000000000000000000000000000000000000000000606482015290519081900360840190fd5b50565b60008060606000806000806000611a87614fe0565b6000611a91613621565b9850611a9b6136a2565b600654600e54919950975095505b86861015611bb757611ae2600687815481101515611ac357fe5b600091825260209091206001600590920201015463ffffffff166137bc565b9450611baa611b9d600688815481101515611af957fe5b60009182526020918290206040805160e081018252600593909302909101805467ffffffffffffffff81168452680100000000000000008104600160a060020a03169484019490945260e060020a90930460ff1690820152600182015463ffffffff16606082015260028201546080820152600382015460a082015260049091015460c08201528a518b9089908110611b8e57fe5b90602001906020020151613844565b8a9063ffffffff61388d16565b9850600190950194611aa9565b601254600f5490945092505b83831015611d0c57600083815260116020526040908190208151808301928390529160029082845b815481526020019060010190808311611beb575093955085935060009250611c11915050565b6020020151600e54909150811015611d0157611c35600682815481101515611ac357fe5b9450611cfe611cf1600683815481101515611c4c57fe5b60009182526020918290206040805160e081018252600593909302909101805467ffffffffffffffff81168452680100000000000000008104600160a060020a03168486015260e060020a900460ff1691830191909152600181015463ffffffff16606083015260028101546080830152600381015460a08301526004015460c0820152908501518b518c908a908110611ce257fe5b906020019060200201516138ea565b8a9063ffffffff61317116565b98505b600190920191611bc3565b509698975050505050505050565b600254600090600160a060020a03163314611da5576040805160e560020a62461bcd02815260206004820152602660248201527f4d616e6167657261626c653a2063616c6c6572206973206e6f7420746865204d60448201527f616e616765720000000000000000000000000000000000000000000000000000606482015290519081900360840190fd5b611dae836133fc565b6040805160e081018252825467ffffffffffffffff81168252680100000000000000008104600160a060020a0316602083015260e060020a900460ff1691810191909152600182015463ffffffff16606082015260028201546080820152600382015460a0820152600482015460c0820152909150611e2c9061348c565b8054611e419067ffffffffffffffff16613918565b6040805160e081018252825467ffffffffffffffff81168252680100000000000000008104600160a060020a0316602083015260e060020a900460ff1691810191909152600182015463ffffffff16606082015260028201546080820152600382015460a0820152600482015460c0820152611ebd90856139ad565b6040805160e081018252825467ffffffffffffffff81168252680100000000000000008104600160a060020a0316602083015260e060020a900460ff1691810191909152600182015463ffffffff16606082015260028201546080820152600382015460a0820152600482015460c0820152611f3990836134e7565b6004810154611f4e908363ffffffff61317116565b60048201556040805180820182526000198501815260208082018590526012546000908152601190915291909120611f87916002614ffb565b506012805460010190556040805183815290518491600160a060020a038716917f1fb99acdc281bccbecb3d0073a307341181a8a7d3cd532fdaef5ce7200401c2d9181900360200190a350505050565b600a5481565b611fe5612115565b1515612029576040805160e560020a62461bcd02815260206004820181905260248201526000805160206150e7833981519152604482015290519081900360640190fd5b611a6f600982613a1c565b600061203e612115565b1515612082576040805160e560020a62461bcd02815260206004820181905260248201526000805160206150e7833981519152604482015290519081900360640190fd5b61208d600983613a93565b90505b919050565b600054600160a060020a031690565b60068054829081106120b257fe5b60009182526020909120600590910201805460018201546002830154600384015460049094015467ffffffffffffffff84169550680100000000000000008404600160a060020a03169460e060020a90940460ff169363ffffffff909316929087565b600054600160a060020a0316331490565b600254600160a060020a031633146121ae576040805160e560020a62461bcd02815260206004820152602660248201527f4d616e6167657261626c653a2063616c6c6572206973206e6f7420746865204d60448201527f616e616765720000000000000000000000000000000000000000000000000000606482015290519081900360840190fd5b6014548311156121be5760148390555b6121c7846131d1565b60135463ffffffff16806121da876131ea565b020111156121fb576121eb846131d1565b6015556121f7846131f7565b6016555b8060176000612209876131ea565b8152602001908152602001600020819055508160186000612229876131ea565b8152602001908152602001600020908051906020019061224a929190615039565b5050505050565b606060098054806020026020016040519081016040528092919081815260200182805480156114d157602002820191906000526020600020905b81548152602001906001019080831161228b575050505050905090565b60008060006122b5614fa4565b600254600160a060020a0316331461233d576040805160e560020a62461bcd02815260206004820152602660248201527f4d616e6167657261626c653a2063616c6c6572206973206e6f7420746865204d60448201527f616e616765720000000000000000000000000000000000000000000000000000606482015290519081900360840190fd5b600654935061234b886131ea565b9250612356886131d1565b9150600660e0604051908101604052808660010167ffffffffffffffff1681526020018c600160a060020a031681526020018560ff1681526020018463ffffffff168152602001426123a78c6131f7565b01815260208082018b90526040918201899052835460018082018655600095865282862085516005909302018054868501518787015167ffffffffffffffff1990921667ffffffffffffffff909516949094177fffffffff0000000000000000000000000000000000000000ffffffffffffffff1668010000000000000000600160a060020a0395861602177fffffff00ffffffffffffffffffffffffffffffffffffffffffffffffffffffff1660e060020a60ff909216919091021781556060860151818301805463ffffffff191663ffffffff9092169190911790556080860151600282015560a0860151600382015560c0909501516004909501949094558e1684526008815290832080548084018255908452922090860191015560068054859081106124d357fe5b60009182526020918290206040805160e081018252600593909302909101805467ffffffffffffffff81168452680100000000000000008104600160a060020a03169484019490945260e060020a90930460ff1690820152600182015463ffffffff16606082015260028201546080820152600382015460a082015260049091015460c08201529050612567818a88613b40565b836001018a600160a060020a03167f18f523957030bee670136363e25b2f847bf1bd07bb7b33c6d5475936a9aac70d8585426125a28e6131f7565b6040805160ff909516855263ffffffff90931660208501520182820152606082018c9052608082018a9052519081900360a00190a350505050505050505050565b6000818152601760209081526040808320546018835281842080548351818602810186019094528084526060949293919283919083018282801561264657602002820191906000526020600020905b815481526020019060010190808311612632575b5050505050905091509150915091565b61265e612115565b15156126a2576040805160e560020a62461bcd02815260206004820181905260248201526000805160206150e7833981519152604482015290519081900360640190fd5b611a6f600b82613e0f565b600d546006546012549192909190565b600c546000908190819081908190819081906126ee9063ffffffff166126e28a6131ea565b9063ffffffff61357716565b93506126f9886131d1565b841061270e576000965086955085945061277a565b600c5461272690859063ffffffff9081169061388d16565b9250612731886131d1565b83111561274857612741886131d1565b9250612761565b600d54831015612761576000965086955085945061277a565b61276b8484613ea9565b91509150818160019650965096505b505050509193909250565b600b80548290811061279357fe5b600091825260209091200154600160a060020a0316905081565b600061208d60098054806020026020016040519081016040528092919081815260200182805480156127fe57602002820191906000526020600020905b8154815260200190600101908083116127ea575b505050505083613fed565b612811612115565b1515612855576040805160e560020a62461bcd02815260206004820181905260248201526000805160206150e7833981519152604482015290519081900360640190fd5b60048054600160a060020a031916600160a060020a0392909216919091179055565b6000612881612115565b15156128c5576040805160e560020a62461bcd02815260206004820181905260248201526000805160206150e7833981519152604482015290519081900360640190fd5b61208d600b8361402c565b601354606090600090819081906128f09063ffffffff166126e2886131ea565b601354909150612919908790839061291390829063ffffffff9081169061388d16565b8861119d565b935093509350509250925092565b61292f612115565b1515612973576040805160e560020a62461bcd02815260206004820181905260248201526000805160206150e7833981519152604482015290519081900360640190fd5b611a6f600182614103565b600354600160a060020a031690565b600b54600090811080156129c45750600b8054339190839081106129ad57fe5b600091825260209091200154600160a060020a0316145b1515612a40576040805160e560020a62461bcd02815260206004820152603060248201527f4d616e6167657261626c653a2063616c6c6572206973206e6f7420746865206560448201527f6c696769626c65204f70657261746f7200000000000000000000000000000000606482015290519081900360840190fd5b600d54821115612a5057600d8290555b612a59846131d1565b600c5463ffffffff1680612a6c876131ea565b02011115612a8d57612a7d846131d1565b600e55612a89846131f7565b600f555b8260106000612a9b876131ea565b815260208101919091526040016000205550505050565b60008060008080600b80549050118015612aef5750600b805433919083908110612ad857fe5b600091825260209091200154600160a060020a0316145b1515612b6b576040805160e560020a62461bcd02815260206004820152603060248201527f4d616e6167657261626c653a2063616c6c6572206973206e6f7420746865206560448201527f6c696769626c65204f70657261746f7200000000000000000000000000000000606482015290519081900360840190fd5b612b74856126bd565b935093509350811561224a5761224a85858561298d565b60065490565b600c5463ffffffff1681565b612ba5612115565b1515612be9576040805160e560020a62461bcd02815260206004820181905260248201526000805160206150e7833981519152604482015290519081900360640190fd5b600a55565b612bf6612115565b1515612c3a576040805160e560020a62461bcd02815260206004820181905260248201526000805160206150e7833981519152604482015290519081900360640190fd5b60028054600160a060020a031916600160a060020a0392909216919091179055565b600254600160a060020a031690565b6000612c75612115565b1515612cb9576040805160e560020a62461bcd02815260206004820181905260248201526000805160206150e7833981519152604482015290519081900360640190fd5b61208d6001836141cc565b600061208d6001805480602002602001604051908101604052809291908181526020018280548015612d4157602002820191906000526020600020906000905b82829054906101000a900463ffffffff1663ffffffff1681526020019060040190602082600301049283019260010382029150808411612d045790505b5050505050836142c3565b606080600080606080600080612d7d601360009054906101000a900463ffffffff1663ffffffff166126e28c6131ea565b601354909650612d9890879063ffffffff9081169061388d16565b9450612da38a6131d1565b86101580612db2575060145485105b15612dbc57612f0f565b612dc58a6131d1565b851115612dd857612dd58a6131d1565b94505b6014548611612de75760145495505b612def6136a2565b9350612e0f8686612dff8d6131ea565b612e088e6131f7565b8d8961430e565b925088519150600090505b81811015612f08576003548951600160a060020a03909116906341976e09908b9084908110612e4557fe5b906020019060200201516040518263ffffffff1660e060020a0281526004018082600160a060020a0316600160a060020a03168152602001915050602060405180830381600087803b158015612e9a57600080fd5b505af1158015612eae573d6000803e3d6000fd5b505050506040513d6020811015612ec457600080fd5b50518351849083908110612ed457fe5b90602001906020020151811515612ee757fe5b058382815181101515612ef657fe5b60209081029091010152600101612e1a565b8284975097505b5050505050509250929050565b612f24612115565b1515612f68576040805160e560020a62461bcd02815260206004820181905260248201526000805160206150e7833981519152604482015290519081900360640190fd5b80600b83815481101515612f7857fe5b9060005260206000200160006101000a815481600160a060020a030219169083600160a060020a031602179055505050565b600160a060020a03811660009081526008602090815260409182902080548351818402810184019094528084526060939283018282801561300a57602002820191906000526020600020905b815481526020019060010190808311612ff6575b50505050509050919050565b6060600b8054806020026020016040519081016040528092919081815260200182805480156114d157602002820191906000526020600020905b8154600160a060020a03168152600190910190602001808311613050575050505050905090565b6000611193848484613543565b611a6f60018054806020026020016040519081016040528092919081815260200182805480156130ff57602002820191906000526020600020906000905b82829054906101000a900463ffffffff1663ffffffff16815260200190600401906020826003010492830192600103820291508084116130c25790505b5050505050826144d0565b613112612115565b1515613156576040805160e560020a62461bcd02815260206004820181905260248201526000805160206150e7833981519152604482015290519081900360640190fd5b611a6f81614530565b60145460065460125491929091904290565b600061119683836040805190810160405280601e81526020017f536166654d6174683a207375627472616374696f6e206f766572666c6f770000815250614611565b600060ff84161582841114156131ca575081611196565b5080611196565b68010000000000000000900467ffffffffffffffff1690565b67ffffffffffffffff1690565b700100000000000000000000000000000000900467ffffffffffffffff1690565b606060008060606000806000806132308d8d8d6146ae565b8a51604080518281526020808402820101909152929f509097508015613260578160200160208202803883390190505b5094505b8b8d10156133db57600680548e90811061327a57fe5b90600052602060002090600502019350836002015492508a8310806132a157506004840154155b156132ab576133d0565b60008d81526007602052604090206015549092508d1015806132cd575081548b105b156133085761330182600301548486600301548560040154866005015489600001601c9054906101000a900460ff16614733565b9050613336565b6133338b8486600301548560040154866005015489600001601c9054906101000a900460ff16614763565b90505b60008111156133d0576001820154613358908a90600160a060020a0316614850565b925061338d826003015461338186600401546126e285876002015461357790919063ffffffff16565b9063ffffffff61489d16565b90506133b78186858151811015156133a157fe5b602090810290910101519063ffffffff61388d16565b85848151811015156133c557fe5b602090810290910101525b6001909c019b613264565b6133e98d8d8d8d8d8a6148df565b9d959c50949a5050505050505050505050565b6000808211801561340f57506006548211155b1515613465576040805160e560020a62461bcd02815260206004820152601660248201527f6f7074696f6e206964206973206e6f7420657869737400000000000000000000604482015290519081900360640190fd5b60068054600019840190811061347757fe5b90600052602060002090600502019050919050565b60808101514210611a6f576040805160e560020a62461bcd02815260206004820152601160248201527f6f7074696f6e2069732065787069726564000000000000000000000000000000604482015290519081900360640190fd5b60c0820151811115611544576040805160e560020a62461bcd02815260206004820152601d60248201527f6f7074696f6e20616d6f756e7420697320696e73756666696369656e74000000604482015290519081900360640190fd5b600060ff841615828411141561355b57506000611196565b60ff84161561356c57818303613570565b8282035b9050611196565b60008083151561358a576000915061361a565b5082820282848281151561359a57fe5b0414613616576040805160e560020a62461bcd02815260206004820152602160248201527f536166654d6174683a206d756c7469706c69636174696f6e206f766572666c6f60448201527f7700000000000000000000000000000000000000000000000000000000000000606482015290519081900360840190fd5b8091505b5092915050565b600c5460009081908190819063ffffffff16600d82015481151561364157fe5b600c54919004925063ffffffff16600d6001015481151561365e57fe5b0460010190505b8082101561369a5760008281526010602052604090205461368d90849063ffffffff61388d16565b9250600190910190613665565b509092915050565b6001546040805182815260208084028201019091526060919082906000908380156136d7578160200160208202803883390190505b509150600090505b8281101561361a5760035460018054600160a060020a039092169163da66325791908490811061370b57fe5b90600052602060002090600891828204019190066004029054906101000a900463ffffffff166040518263ffffffff1660e060020a028152600401808263ffffffff168152602001915050602060405180830381600087803b15801561377057600080fd5b505af1158015613784573d6000803e3d6000fd5b505050506040513d602081101561379a57600080fd5b505182518390839081106137aa57fe5b602090810290910101526001016136df565b600061208d600180548060200260200160405190810160405280929190818152602001828054801561383957602002820191906000526020600020906000905b82829054906101000a900463ffffffff1663ffffffff16815260200190600401906020826003010492830192600103820291508084116137fc5790505b505050505083614b2f565b60008042846080015111158061385c575060c0840151155b1561386a576000915061361a565b6138858460c001516126e286604001518760a00151876131b3565b949350505050565b600082820183811015613616576040805160e560020a62461bcd02815260206004820152601b60248201527f536166654d6174683a206164646974696f6e206f766572666c6f770000000000604482015290519081900360640190fd5b600042846080015111151561390157506000611196565b611193836126e286604001518760a00151866131b3565b600a54600019820160009081526007602052604090205442910110611a6f576040805160e560020a62461bcd02815260206004820152602560248201527f6f7074696f6e206c6f636b206c696d69746174696f6e206973206e6f7420657860448201527f7069726564000000000000000000000000000000000000000000000000000000606482015290519081900360840190fd5b80600160a060020a03168260200151600160a060020a0316141515611544576040805160e560020a62461bcd02815260206004820152601f60248201527f63616c6c6572206973206e6f7420746865206f7074696f6e73206f776e657200604482015290519081900360640190fd5b613a7582805480602002602001604051908101604052809291908181526020018280548015613a6a57602002820191906000526020600020905b815481526020019060010190808311613a56575b505050505082613fed565b15156115445781546001810183556000928352602090922090910155565b8154600090815b81811015613acf57838582815481101515613ab157fe5b90600052602060002001541415613ac757613acf565b600101613a9a565b81811015613b335760001982018114613b19578460018303815481101515613af357fe5b90600052602060002001548582815481101515613b0c57fe5b6000918252602090912001555b8454613b29866000198301615073565b5060019250613b38565b600092505b505092915050565b60a08301516080840151600554606086015160408088015181517fb4277bc100000000000000000000000000000000000000000000000000000000815263ffffffff909316600484015260ff16602483015242909303604482018190526064820185905283519093600093849384938493600160a060020a039093169263b4277bc1926084808201939182900301818787803b158015613bdf57600080fd5b505af1158015613bf3573d6000803e3d6000fd5b505050506040513d6040811015613c0957600080fd5b5080516020918201516004805460408e81015181517f055ef6ab0000000000000000000000000000000000000000000000000000000081529384018d9052602484018d9052604484018c9052606484018690526084840185905260ff1660a484015251939850919650600160a060020a039091169263055ef6ab9260c4808401938290030181600087803b158015613ca057600080fd5b505af1158015613cb4573d6000803e3d6000fd5b505050506040513d6020811015613cca57600080fd5b5051600354604080517f41976e09000000000000000000000000000000000000000000000000000000008152600160a060020a038c811660048301529151939550613d749391909216916341976e099160248083019260209291908290030181600087803b158015613d3b57600080fd5b505af1158015613d4f573d6000803e3d6000fd5b505050506040513d6020811015613d6557600080fd5b5051889063ffffffff61489d16565b6040805160c081018252428152600160a060020a039a8b166020808301918252828401948552606083019687526080830198895260a083019788529c516000190167ffffffffffffffff1660009081526007909d5291909b209a518b555160018b018054600160a060020a03191691909a16179098555095516002880155945160038701555160048601555050905160059092019190915550565b613e7282805480602002602001604051908101604052809291908181526020018280548015613e6757602002820191906000526020600020905b8154600160a060020a03168152600190910190602001808311613e49575b505050505082614b76565b1515611544578154600181018355600083815260209020018054600160a060020a038316600160a060020a03199091161790555050565b600d546000908190808511801590606090849081908190613ec8578599505b613ed06136a2565b9350600092505b888a1015613fd357613ef160068b815481101515611ac357fe5b9150613f9a60068b815481101515613f0557fe5b60009182526020918290206040805160e081018252600593909302909101805467ffffffffffffffff81168452680100000000000000008104600160a060020a03169484019490945260e060020a90930460ff1690820152600182015463ffffffff16606082015260028201546080820152600382015460a082015260049091015460c08201528551869085908110611b8e57fe5b9050848015613fa95750600081115b15613fb657899550600094505b613fc6838263ffffffff61388d16565b6001909a01999250613ed7565b8415613fdd578995505b5090989397509295505050505050565b8151600090815b81811015613b335783858281518110151561400b57fe5b9060200190602002015114156140245760019250613b38565b600101613ff4565b8154600090815b8181101561407b5783600160a060020a0316858281548110151561405357fe5b600091825260209091200154600160a060020a031614156140735761407b565b600101614033565b81811015613b335760001982018114613b1957846001830381548110151561409f57fe5b6000918252602090912001548554600160a060020a03909116908690839081106140c557fe5b9060005260206000200160006101000a815481600160a060020a030219169083600160a060020a031602179055508454613b29866000198301615073565b6141888280548060200260200160405190810160405280929190818152602001828054801561417d57602002820191906000526020600020906000905b82829054906101000a900463ffffffff1663ffffffff16815260200190600401906020826003010492830192600103820291508084116141405790505b5050505050826142c3565b1515611544578154600181018355600092835260209092206008830401805460079093166004026101000a63ffffffff818102199094169290931692909202179055565b8154600090815b81811015614227578363ffffffff1685828154811015156141f057fe5b6000918252602090912060088204015460079091166004026101000a900463ffffffff16141561421f57614227565b6001016141d3565b81811015613b3357600019820181146142b357846001830381548110151561424b57fe5b90600052602060002090600891828204019190066004029054906101000a900463ffffffff16858281548110151561427f57fe5b90600052602060002090600891828204019190066004026101000a81548163ffffffff021916908363ffffffff1602179055505b8454613b2986600019830161509c565b8151600090815b81811015613b33578363ffffffff1685828151811015156142e757fe5b9060200190602002015163ffffffff1614156143065760019250613b38565b6001016142ca565b60608060006060600080600080601860008d815260200190815260200160002080548060200260200160405190810160405280929190818152602001828054801561437857602002820191906000526020600020905b815481526020019060010190808311614364575b50505050509650601760008d81526020019081526020016000205495506143a38e8e8d898b8f614bc7565b94505b8c8e10156144be57600680548f9081106143bc57fe5b9060005260206000209060050201935085846002015410806143e057506004840154155b156143ea576144b3565b60018401546143fe9063ffffffff166137bc565b9b50614426848560040154898f81518110151561441757fe5b90602001906020020151614d65565b925061444e8485600401548b8f81518110151561443f57fe5b90602001906020020151614da8565b91508282146144b3575060008d8152600760205260409020600181015461447f908b90600160a060020a0316614850565b9b5061448a82614dea565b61449384614dea565b03858d8151811015156144a257fe5b602090810290910101805190910190525b6001909d019c6143a6565b50929c9b505050505050505050505050565b6144da82826142c3565b1515611544576040805160e560020a62461bcd02815260206004820152601f60248201527f77686974654c6973743a207573696e6720696e76616c69642075696e74333200604482015290519081900360640190fd5b600160a060020a03811615156145b6576040805160e560020a62461bcd02815260206004820152602660248201527f4f776e61626c653a206e6577206f776e657220697320746865207a65726f206160448201527f6464726573730000000000000000000000000000000000000000000000000000606482015290519081900360840190fd5b60008054604051600160a060020a03808516939216917f8be0079c531659141344cd1fd0a4f28419497f9722a3daafe3b4186f6b6457e091a360008054600160a060020a031916600160a060020a0392909216919091179055565b60008082858511156146a45760405160e560020a62461bcd0281526004018080602001828103825283818151815260200191508051906020019080838360005b83811015614669578181015183820152602001614651565b50505050905090810190601f1680156146965780820380516001836020036101000a031916815260200191505b509250505060405180910390fd5b5050509103919050565b601454600090819081818711156146ca57868293509350614729565b8196505b858710156147225760068054889081106146e457fe5b90600052602060002090600502019050848160020154108061470857506004810154155b1561471257614717565b614722565b6001909601956146ce565b8687935093505b5050935093915050565b6000806147438787878787614e63565b9050808811614753576000614757565b8088035b98975050505050505050565b60048054604080517f055ef6ab000000000000000000000000000000000000000000000000000000008152928301879052602483018790528888036044840152606483018690526084830185905260ff841660a48401525160009283928392600160a060020a039091169163055ef6ab9160c480830192602092919082900301818787803b1580156147f457600080fd5b505af1158015614808573d6000803e3d6000fd5b505050506040513d602081101561481e57600080fd5b5051915061482f8888888888614e63565b905080821161483f576000614843565b8082035b9998505050505050505050565b8151600090815b818110156138855783600160a060020a0316858281518110151561487757fe5b90602001906020020151600160a060020a0316141561489557613885565b600101614857565b600061119683836040805190810160405280601a81526020017f536166654d6174683a206469766973696f6e206279207a65726f000000000000815250614f38565b606060006148eb614fe0565b60165491506000808080805b8a871015614b1d57600087815260116020526040908190208151808301928390529160029082845b81548152602001906001019080831161491f57505050505095508d86600060028110151561494957fe5b6020020151108061495b575085518d11155b1561496557614b12565b855160068054909190811061497657fe5b90600052602060002090600502019450846002015493508b84108061499d57506020860151155b156149a757614b12565b600760008781602002015181526020019081526020016000209250600460009054906101000a9004600160a060020a0316600160a060020a031663055ef6ab866003015487600301548f8803876004015488600501548b600001601c9054906101000a900460ff166040518763ffffffff1660e060020a028152600401808781526020018681526020018581526020018481526020018381526020018260ff1660ff1681526020019650505050505050602060405180830381600087803b158015614a7157600080fd5b505af1158015614a85573d6000803e3d6000fd5b505050506040513d6020811015614a9b57600080fd5b50516003840154909250614ac990613381886001602002015160028701546126e2908763ffffffff61357716565b6001840154909250614ae5908b90600160a060020a0316614850565b9050614af9828a838151811015156133a157fe5b8982815181101515614b0757fe5b602090810290910101525b6001909601956148f7565b50969c9b505050505050505050505050565b8151600090815b81811015613885578363ffffffff168582815181101515614b5357fe5b9060200190602002015163ffffffff161415614b6e57613885565b600101614b36565b8151600090815b81811015613b335783600160a060020a03168582815181101515614b9d57fe5b90602001906020020151600160a060020a03161415614bbf5760019250613b38565b600101614b7d565b6060806000614bd4614fe0565b6000806000808851604051908082528060200260200182016040528015614c05578160200160208202803883390190505b5060165490975095505b8b861015614d5357600086815260116020526040908190208151808301928390529160029082845b815481526020019060010190808311614c3757505050505094508d856000600281101515614c6157fe5b60200201511080614c73575084518d11155b15614c7d57614d48565b8451600680549091908110614c8e57fe5b906000526020600020906005020193508a84600201541080614cb257506020850151155b15614cbc57614d48565b6001840154614cd09063ffffffff166137bc565b9250614cec8486600160200201518c8681518110151561441757fe5b91508115614d485750835160009081526007602052604090206001810154614d1e908a90600160a060020a0316614850565b9250614d2982614dea565b8784815181101515614d3757fe5b602090810290910101805190910190525b600190950194614c0f565b50949c9b505050505050505050505050565b6000601460010154845467ffffffffffffffff1611614da057835460038501546135709184916126e29160e060020a900460ff169087613543565b506000611196565b6000428460020154111580614dbb575081155b15614dc857506000611196565b835460038501546111939184916126e29160e060020a900460ff169087613543565b60007f7fffffffffffffffffffffffffffffffffffffffffffffffffffffffffffffff8211612090576040805160e560020a62461bcd02815260206004820152601b60248201527f536166654d6174683a20746f496e74323536206f766572666c6f770000000000604482015290519081900360640190fd5b600042861115614f2b5760048054604080517f055ef6ab000000000000000000000000000000000000000000000000000000008152928301889052602483018890524289036044840152606483018790526084830186905260ff851660a484015251600160a060020a039091169163055ef6ab9160c48083019260209291908290030181600087803b158015614ef857600080fd5b505af1158015614f0c573d6000803e3d6000fd5b505050506040513d6020811015614f2257600080fd5b50519050614f2f565b5060005b95945050505050565b60008082818511614f8e5760405160e560020a62461bcd02815260040180806020018281038252838181518152602001915080519060200190808383600083811015614669578181015183820152602001614651565b508385811515614f9a57fe5b0495945050505050565b6040805160e081018252600080825260208201819052918101829052606081018290526080810182905260a0810182905260c081019190915290565b60408051808201825290600290829080388339509192915050565b8260028101928215615029579160200282015b8281111561502957825182559160200191906001019061500e565b506150359291506150cc565b5090565b828054828255906000526020600020908101928215615029579160200282018281111561502957825182559160200191906001019061500e565b815481835581811115615097576000838152602090206150979181019083016150cc565b505050565b81548183558181111561509757600701600890048160070160089004836000526020600020918201910161509791905b6114d991905b8082111561503557600081556001016150d256004f776e61626c653a2063616c6c6572206973206e6f7420746865206f776e6572a165627a7a7230582058a2e41433d7318970c50bba41fb6c2a7413487ed1411ce11515b18edf6758f300294f776e61626c653a2063616c6c6572206973206e6f7420746865206f776e6572",
  "source": "pragma solidity ^0.4.26;\r\nimport \"../OptionsPool.sol\";\r\ncontract OptionsPoolTest is OptionsPool {\r\n        constructor (address oracleAddr,address optionsPriceAddr,address ivAddress) OptionsPool(oracleAddr,optionsPriceAddr,ivAddress) public{\r\n    }\r\n    function getOptionsWorth(uint8 optType,uint256 strikePrice,uint256 underlyingPrice) public pure returns(uint256){\r\n        return _getOptionsWorth(optType,strikePrice,underlyingPrice);\r\n    }\r\n    function getOptionsPayback(uint8 optType,uint256 strikePrice,uint256 underlyingPrice)public pure returns(uint256){\r\n         return _getOptionsPayback(optType,strikePrice,underlyingPrice);\r\n    }\r\n    /*\r\n    function calTimeSharedPrice()public view returns(uint256){\r\n        uint256 timeValue;\r\n        if (begin>=optionPhaseInfo_Share[1] || preTime<optionEx.createdTime){\r\n            timeValue = _calculateFirstTimePrice(optionEx.fullPrice,tempValue,info.strikePrice,\r\n                optionEx.ivNumerator,optionEx.ivDenominator,info.optType);\r\n        }else{\r\n            timeValue = _calculateTimePrice(preTime,tempValue,info.strikePrice,\r\n                optionEx.ivNumerator,optionEx.ivDenominator,info.optType);\r\n        }\r\n    }\r\n    function _calculateFirstTimePrice(uint256 fullPrice,uint256 expiration,uint256 curTime,\r\n            uint256 strikePrice,uint256 ivNumerator,uint256 ivDenominator,uint8 optType)internal view returns (uint256){\r\n        uint256 nowValue = _calculateCurrentPrice(expiration,curTime,strikePrice,ivNumerator,\r\n            ivDenominator,optType);\r\n        return (fullPrice>nowValue)? fullPrice-nowValue : 0;\r\n    }\r\n    function _calculateTimePrice(uint256 preTime,uint256 expiration,uint256 curTime,\r\n            uint256 strikePrice,uint256 ivNumerator,uint256 ivDenominator,uint8 optType)internal view returns (uint256){\r\n        uint256 preValue = _optionsPrice.getOptionsPrice_iv(strikePrice,strikePrice,expiration-preTime,ivNumerator,\r\n            ivDenominator,optType);\r\n        uint256 nowValue = _calculateCurrentPrice(expiration,curTime,strikePrice,ivNumerator,\r\n            ivDenominator,optType);\r\n        return (preValue>nowValue)? preValue-nowValue : 0;\r\n    }\r\n    function _calculateCurrentPrice(uint256 expiration,uint256 curTime,uint256 strikePrice,uint256 ivNumerator,uint256 ivDenominator,uint8 optType)internal view returns (uint256){\r\n        if (expiration > curTime){\r\n        return _optionsPrice.getOptionsPrice_iv(strikePrice,strikePrice,expiration-curTime,ivNumerator,\r\n            ivDenominator,optType);\r\n        }\r\n        return 0;\r\n    }\r\n    */\r\n}\r\n\r\n",
  "sourcePath": "C:\\work\\solidity\\FinnexusOptions_V2\\contracts\\test\\optionPoolTest.sol",
  "compiler": {
    "name": "solc",
    "version": "0.4.26+commit.4563c3fc.Emscripten.clang"
  },
  "schemaVersion": "3.1.0",
  "updatedAt": "2020-07-29T14:43:43.421Z",
  "devdoc": {
    "methods": {
      "addExpiration(uint256)": {
        "details": "Implementation of add an eligible expiration into the expirationList.\r",
        "params": {
          "expiration": "new eligible expiration.\r"
        }
      },
      "addUnderlyingAsset(uint32)": {
        "details": "Implementation of add an eligible underlying into the underlyingAssets.\r",
        "params": {
          "underlying": "new eligible underlying.\r"
        }
      },
      "getExpirationList()": {
        "details": "Implementation of getting the eligible expirationList.\r"
      },
      "getUnderlyingAssets()": {
        "details": "Implementation of getting the eligible underlyingAssets.\r"
      },
      "isEligibleExpiration(uint256)": {
        "details": "Implementation of testing whether the input expiration is eligible.\r",
        "params": {
          "expiration": "input expiration for testing.\r"
        }
      },
      "isEligibleUnderlyingAsset(uint32)": {
        "details": "Implementation of testing whether the input underlying is eligible.\r",
        "params": {
          "underlying": "input underlying for testing.\r"
        }
      },
      "isOwner()": {
        "details": "Returns true if the caller is the current owner."
      },
      "owner()": {
        "details": "Returns the address of the current owner."
      },
      "removeExpirationList(uint256)": {
        "details": "Implementation of revoke an invalid expiration from the expirationList.\r",
        "params": {
          "removeExpiration": "revoked expiration.\r"
        }
      },
      "removeUnderlyingAssets(uint32)": {
        "details": "Implementation of revoke an invalid underlying from the underlyingAssets.\r",
        "params": {
          "removeUnderlying": "revoked underlying.\r"
        }
      },
      "renounceOwnership()": {
        "details": "Leaves the contract without owner. It will not be possible to call `onlyOwner` functions anymore. Can only be called by the current owner.     * NOTE: Renouncing ownership will leave the contract without an owner, thereby removing any functionality that is only available to the owner."
      },
      "transferOwnership(address)": {
        "details": "Transfers ownership of the contract to a new account (`newOwner`). Can only be called by the current owner."
      }
    }
  },
  "userdoc": {
    "methods": {
      "setManager(address)": {
        "notice": "contribution period to stop or not."
      }
    }
  }
}