{
  "contractName": "OptionsPrice",
  "abi": [
    {
      "constant": false,
      "inputs": [
        {
          "name": "volatility",
          "type": "address"
        }
      ],
      "name": "setVolatilityAddress",
      "outputs": [],
      "payable": false,
      "stateMutability": "nonpayable",
      "type": "function"
    },
    {
      "constant": true,
      "inputs": [],
      "name": "getVolatilityAddress",
      "outputs": [
        {
          "name": "",
          "type": "address"
        }
      ],
      "payable": false,
      "stateMutability": "view",
      "type": "function"
    },
    {
      "constant": false,
      "inputs": [],
      "name": "renounceOwnership",
      "outputs": [],
      "payable": false,
      "stateMutability": "nonpayable",
      "type": "function"
    },
    {
      "constant": true,
      "inputs": [],
      "name": "owner",
      "outputs": [
        {
          "name": "",
          "type": "address"
        }
      ],
      "payable": false,
      "stateMutability": "view",
      "type": "function"
    },
    {
      "constant": true,
      "inputs": [],
      "name": "isOwner",
      "outputs": [
        {
          "name": "",
          "type": "bool"
        }
      ],
      "payable": false,
      "stateMutability": "view",
      "type": "function"
    },
    {
      "constant": false,
      "inputs": [
        {
          "name": "newOwner",
          "type": "address"
        }
      ],
      "name": "transferOwnership",
      "outputs": [],
      "payable": false,
      "stateMutability": "nonpayable",
      "type": "function"
    },
    {
      "inputs": [
        {
          "name": "ivContract",
          "type": "address"
        }
      ],
      "payable": false,
      "stateMutability": "nonpayable",
      "type": "constructor"
    },
    {
      "anonymous": false,
      "inputs": [
        {
          "indexed": true,
          "name": "previousOwner",
          "type": "address"
        },
        {
          "indexed": true,
          "name": "newOwner",
          "type": "address"
        }
      ],
      "name": "OwnershipTransferred",
      "type": "event"
    },
    {
      "constant": true,
      "inputs": [],
      "name": "getRate",
      "outputs": [
        {
          "name": "",
          "type": "int256"
        },
        {
          "name": "",
          "type": "int256"
        }
      ],
      "payable": false,
      "stateMutability": "view",
      "type": "function"
    },
    {
      "constant": false,
      "inputs": [
        {
          "name": "numerator",
          "type": "int256"
        },
        {
          "name": "denominator",
          "type": "int256"
        }
      ],
      "name": "setRate",
      "outputs": [],
      "payable": false,
      "stateMutability": "nonpayable",
      "type": "function"
    },
    {
      "constant": true,
      "inputs": [
        {
          "name": "currentPrice",
          "type": "uint256"
        },
        {
          "name": "strikePrice",
          "type": "uint256"
        },
        {
          "name": "expiration",
          "type": "uint256"
        },
        {
          "name": "underlying",
          "type": "uint32"
        },
        {
          "name": "optType",
          "type": "uint8"
        }
      ],
      "name": "getOptionsPrice",
      "outputs": [
        {
          "name": "",
          "type": "uint256"
        }
      ],
      "payable": false,
      "stateMutability": "view",
      "type": "function"
    },
    {
      "constant": true,
      "inputs": [
        {
          "name": "currentPrice",
          "type": "uint256"
        },
        {
          "name": "strikePrice",
          "type": "uint256"
        },
        {
          "name": "expiration",
          "type": "uint256"
        },
        {
          "name": "ivNumerator",
          "type": "uint256"
        },
        {
          "name": "ivDenominator",
          "type": "uint256"
        },
        {
          "name": "optType",
          "type": "uint8"
        }
      ],
      "name": "getOptionsPrice_iv",
      "outputs": [
        {
          "name": "",
          "type": "uint256"
        }
      ],
      "payable": false,
      "stateMutability": "view",
      "type": "function"
    }
  ],
  "bytecode": "0x60c0604052600560808190526103e860a081905260029190915560035534801561002857600080fd5b50604051602080611a95833981016040819052905160008054600160a060020a03191633178082559192600160a060020a0392909216917f8be0079c531659141344cd1fd0a4f28419497f9722a3daafe3b4186f6b6457e0908290a36100968164010000000061009c810204565b5061014d565b6100ad64010000000061013c810204565b151561011a57604080517f08c379a000000000000000000000000000000000000000000000000000000000815260206004820181905260248201527f4f776e61626c653a2063616c6c6572206973206e6f7420746865206f776e6572604482015290519081900360640190fd5b60018054600160a060020a031916600160a060020a0392909216919091179055565b600054600160a060020a0316331490565b6119398061015c6000396000f3006080604052600436106100a35763ffffffff7c0100000000000000000000000000000000000000000000000000000000600035041663055ef6ab81146100a85780632967eafe146100e457806342e5479d146101075780634b7d8e5c14610138578063679aefce14610165578063715018a6146101935780638da5cb5b146101a85780638f32d59b146101bd578063bfe402f4146101e6578063f2fde38b14610201575b600080fd5b3480156100b457600080fd5b506100d260043560243560443560643560843560ff60a43516610222565b60408051918252519081900360200190f35b3480156100f057600080fd5b50610105600160a060020a03600435166102ab565b005b34801561011357600080fd5b5061011c610326565b60408051600160a060020a039092168252519081900360200190f35b34801561014457600080fd5b506100d260043560243560443563ffffffff6064351660ff60843516610335565b34801561017157600080fd5b5061017a61047a565b6040805192835260208301919091528051918290030190f35b34801561019f57600080fd5b50610105610484565b3480156101b457600080fd5b5061011c610527565b3480156101c957600080fd5b506101d2610536565b604080519115158252519081900360200190f35b3480156101f257600080fd5b50610105600435602435610547565b34801561020d57600080fd5b50610105600160a060020a036004351661059e565b600061022c6118a7565b50604080518082019091528481526020810184905260ff8316151561027957604080518082019091526002548152600354602082015261027290899089908990856105f6565b91506102a0565b604080518082019091526002548152600354602082015261027290899089908990856106f2565b509695505050505050565b6102b3610536565b15156102f7576040805160e560020a62461bcd02815260206004820181905260248201526000805160206118ee833981519152604482015290519081900360640190fd5b6001805473ffffffffffffffffffffffffffffffffffffffff1916600160a060020a0392909216919091179055565b600154600160a060020a031690565b60008060006103426118a7565b600154604080517fb4277bc100000000000000000000000000000000000000000000000000000000815263ffffffff8916600482015260ff88166024820152604481018a9052606481018b90528151600160a060020a039093169263b4277bc1926084808401939192918290030181600087803b1580156103c257600080fd5b505af11580156103d6573d6000803e3d6000fd5b505050506040513d60408110156103ec57600080fd5b508051602091820151604080518082019091528281529283018190529094509250905060ff85161515610447576040805180820190915260025481526003546020820152610440908a908a908a90856105f6565b935061046e565b6040805180820190915260025481526003546020820152610440908a908a908a90856106f2565b50505095945050505050565b6002546003549091565b61048c610536565b15156104d0576040805160e560020a62461bcd02815260206004820181905260248201526000805160206118ee833981519152604482015290519081900360640190fd5b60008054604051600160a060020a03909116907f8be0079c531659141344cd1fd0a4f28419497f9722a3daafe3b4186f6b6457e0908390a36000805473ffffffffffffffffffffffffffffffffffffffff19169055565b600054600160a060020a031690565b600054600160a060020a0316331490565b61054f610536565b1515610593576040805160e560020a62461bcd02815260206004820181905260248201526000805160206118ee833981519152604482015290519081900360640190fd5b600291909155600355565b6105a6610536565b15156105ea576040805160e560020a62461bcd02815260206004820181905260248201526000805160206118ee833981519152604482015290519081900360640190fd5b6105f381610809565b50565b60006106006118a7565b6106086118a7565b6106106118a7565b6106186118a7565b6106258a8a8a8a8a6108f7565b9350935061063284610a46565b935061063d83610a46565b925061065e8460408051908101604052808d81526020016001815250610d04565b935061067f8360408051908101604052808c81526020016001815250610d04565b92506106a38760408051908101604052808b81526020016301e13380815250610d04565b91506106b66106b183610d2d565b610d94565b91506106c28383610d04565b90506106ce8482610dba565b9050806020015181600001518115156106e357fe5b059a9950505050505050505050565b60006106fc6118a7565b6107046118a7565b61070c6118a7565b6107146118a7565b6107218a8a8a8a8a6108f7565b9350935061072e84610a46565b935061073983610a46565b925061075b604080519081016040528060018152602001600181525085610dba565b935061077d604080519081016040528060018152602001600181525084610dba565b925061079e8460408051908101604052808d81526020016001815250610d04565b93506107bf8360408051908101604052808c81526020016001815250610d04565b92506107e38760408051908101604052808b81526020016301e13380815250610d04565b91506107f16106b183610d2d565b91506107fd8383610d04565b90506106ce8185610dba565b600160a060020a038116151561088f576040805160e560020a62461bcd02815260206004820152602660248201527f4f776e61626c653a206e6577206f776e657220697320746865207a65726f206160448201527f6464726573730000000000000000000000000000000000000000000000000000606482015290519081900360840190fd5b60008054604051600160a060020a03808516939216917f8be0079c531659141344cd1fd0a4f28419497f9722a3daafe3b4186f6b6457e091a36000805473ffffffffffffffffffffffffffffffffffffffff1916600160a060020a0392909216919091179055565b6108ff6118a7565b6109076118a7565b61090f6118a7565b6109176118a7565b61091f6118a7565b6109276118a7565b61092f6118a7565b6109376118a7565b60408051808201909152600081526001602082015295508c8c146109785761095e8d610ddc565b94506109698c610ddc565b93506109758585610dba565b95505b610982898a610d04565b92506109a4836040805190810160405280600181526020016002815250610d04565b92506109b0838b610e16565b92506109d48360408051908101604052808e81526020016301e13380815250610d04565b92506109e08684610e16565b9550610a1a610a1460408051908101604052808e6402540be4000281526020016301e133806402540be40002815250610e38565b8a610d04565b9150610a268683610edf565b9550610a328683610dba565b959d959c50949a5050505050505050505050565b610a4e6118a7565b600080610a596118a7565b610a616118be565b610a696118a7565b610a716118a7565b610a796118a7565b610a816118a7565b610a896118a7565b6000610a948c610f01565b99508915610aa857610aa58c610f14565b9b505b60208c01518c51811515610ab857fe5b059850600a891315610aff5789610ae2576040805180820190915260018082526020820152610af8565b6040805180820190915260008152600160208201525b9a50610cf5565b60408051808201825262235883815262989680602080830191909152825160e0810184526301e7566960a082019081526305f5e10060c0830152815283518085018552631540bb45198152633b9aca008184018190528284019190915284518086018652636a2f323181528084018290528286015284518086018652636c8e292919815280840182905260608301528451808601909552634f4a607d855291840191909152608081019290925298509650610bba8c89610d04565b9550610bdc866040805190810160405280600181526020016001815250610e16565b9550610be786610d94565b95506040805190810160405280680229a4c508a92ae7d1815260200168056bc75e2d631000008152509450610c1c8c8d610d04565b9350610c3f84604080519081016040528060001981526020016002815250610d04565b9350610c4a84610d2d565b9350610c568585610d04565b935060408051908101604052806000815260200160018152509250859150600090505b6005811015610cbb57610ca583610ca0898460058110610c9557fe5b602002015185610d04565b610e16565b9250610cb18287610d04565b9150600101610c79565b610cc58484610d04565b9350891515610cf157610cee604080519081016040528060018152602001600181525085610dba565b93505b839a505b50505050505050505050919050565b610d0c6118a7565b610d26610d1884610f4b565b610d2184610f4b565b610fe4565b9392505050565b610d356118a7565b6000610d3f6118a7565b610d4884610f01565b91508115610d5c57610d5984610f14565b93505b610d6584610f4b565b80516401000000000281529350610d7b84611012565b90508115610d2657610d8c81610d94565b949350505050565b610d9c6118a7565b50604080518082019091526020808301518252825190820152919050565b610dc26118a7565b610d26610dce84610f4b565b610dd784610f4b565b6110c8565b610de46118a7565b604080518082019091526401000000009092029180610e0284611104565b815264010000000060209091015292915050565b610e1e6118a7565b610d26610e2a84610f4b565b610e3384610f4b565b611189565b610e406118a7565b8151600013801590610e5757506000826020015112155b1515610ead576040805160e560020a62461bcd02815260206004820181905260248201527f53717274206d75737420696e707574206120706f7369746976652076616c7565604482015290519081900360640190fd5b6040805190810160405280610ec584600001516111c2565b8152602001610ed784602001516111c2565b905292915050565b610ee76118a7565b610d26610ef384610f4b565b610efc84610f4b565b6111fd565b6020810151905160009182139113141590565b610f1c6118a7565b815160001315610f2e57815160000382525b600082602001511215610f475760208201805160000390525b5090565b610f536118a7565b6000806000610f65856000015161122b565b9250610f74856020015161122b565b915082821315610fb8576f01000000000000000000000000000000821315610fb3576050825b9060020a90059050610fac8582611245565b9350610fdc565b610fd8565b6f01000000000000000000000000000000831315610fd857605083610f9a565b8493505b505050919050565b610fec6118a7565b506040805180820190915281518351028152602091820151928201519092029082015290565b61101a6118a7565b60006110246118a7565b61102c6118a7565b6020850151855181151561103c57fe5b05925064386bfdba2983111561109f5750506040805180820182528451600290058152602080860180518284015283518085019094528251875103845251908301529061108882611012565b915061109381611012565b9050610fac8282610d04565b60408051908101604052806110b3856112e1565b81526401000000006020909101529350610fdc565b6110d06118a7565b5060408051808201909152602080840180518451858401805188519290930291909202038452519051029082015292915050565b600080640100000000831015611164576040805160e560020a62461bcd02815260206004820181905260248201527f6c6f67652066756e6374696f6e20696e70757420697320746f6f20736d616c6c604482015290519081900360640190fd5b61116d83611349565b67010000000000000066b17217f7d1cf78909102049392505050565b6111916118a7565b5060408051808201909152602080840180518451858401805188510291909202018452519051029082015292915050565b80600260018201045b818110156111f75780915060028182858115156111e457fe5b04018115156111ef57fe5b0490506111cb565b50919050565b6112056118a7565b506040805180820190915260208281015184510282529151928201519092029082015290565b600080821261123a578161123f565b816000035b92915050565b61124d6118a7565b602083015182126112a8576040805160e560020a62461bcd02815260206004820152601b60248201527f6672616374696f6e206e756d626572206973206f766572666c6f770000000000604482015290519081900360640190fd5b60408051908101604052808385600001518115156112c257fe5b0581526020018385602001518115156112d757fe5b0590529392505050565b600064386bfdba29821115611340576040805160e560020a62461bcd02815260206004820152601e60248201527f6578702066756e6374696f6e20696e707574206973206f766572666c6f770000604482015290519081900360640190fd5b61123f8261141f565b600080806401000000008410156113aa576040805160e560020a62461bcd02815260206004820152601760248201527f4c6f673220696e70757420697320746f6f20736d616c6c000000000000000000604482015290519081900360640190fd5b600091505b64020000000084106113d15760029093049264010000000091909101906113af565b5060005b602060ff82161015611418576401000000008480020493506402000000008410611410576002938490049360ff601f83900316900a91909101905b6001016113d5565b5092915050565b6000806000602060ff1660019060020a029150816fde1bc4d19efcac82445da75b00000000029050602060ff168483029060020a90049150816fde1bc4d19efcb00000000000000000000281019050602060ff168483029060020a90049150816f6f0de268cf7e580000000000000000000281019050602060ff168483029060020a90049150816f2504a0cd9a7f720000000000000000000281019050602060ff168483029060020a90049150816f09412833669fdc8000000000000000000281019050602060ff168483029060020a90049150816f01d9d4d714865f5000000000000000000281019050602060ff168483029060020a90049150816e4ef8ce836bba8c00000000000000000281019050602060ff168483029060020a90049150816e0b481d807d1aa680000000000000000281019050602060ff168483029060020a90049150816e016903b00fa354d0000000000000000281019050602060ff168483029060020a90049150816d281cdaac677b34000000000000000281019050602060ff168483029060020a90049150816d0402e2aad725eb800000000000000281019050602060ff168483029060020a90049150816c5d5a6c9f31fe240000000000000281019050602060ff168483029060020a90049150816c07c7890d442a830000000000000281019050602060ff168483029060020a90049150816b9931ed5403452800000000000281019050602060ff168483029060020a90049150816b0af147cf24ce1500000000000281019050602060ff168483029060020a90049150816abac08546b867d0000000000281019050602060ff168483029060020a90049150816a0bac08546b867d000000000281019050602060ff168483029060020a900491508169afc441338061b80000000281019050602060ff168483029060020a90049150816909c3cabbc0056e0000000281019050602060ff168483029060020a900491508168839168328705c800000281019050602060ff168483029060020a9004915081680694120286c04a00000281019050602060ff168483029060020a90049150816750319e98b3d2c4000281019050602060ff168483029060020a90049150816703a52a1e36b820200281019050602060ff168483029060020a900491508166289286e0fce0020281019050602060ff168483029060020a90049150816601b0c59eb534000281019050602060ff168483029060020a900491508165114f95b554000281019050602060ff168483029060020a900491508164aa7210d2000281019050602060ff168483029060020a90049150816406501396000281019050602060ff168483029060020a90049150816339b78e800281019050602060ff168483029060020a90049150816301fd80800281019050602060ff168483029060020a90049150816210fbc00281019050602060ff168483029060020a9004915081618c400281019050602060ff168483029060020a90049150816104620281019050602060ff168483029060020a9004915081602202810190506fde1bc4d19efcac82445da75b000000008181151561189e57fe5b04949350505050565b604080518082019091526000808252602082015290565b610140604051908101604052806005905b6118d76118a7565b8152602001906001900390816118cf579050509056004f776e61626c653a2063616c6c6572206973206e6f7420746865206f776e6572a165627a7a723058208139c43d5be101bcd53b7d4530cdba892bfa9335df1f847d7501820ecb34e7d30029",
  "source": "pragma solidity ^0.4.26;\r\n\r\nimport \"./modules/Ownable.sol\";\r\nimport \"./modules/Fraction.sol\";\r\nimport \"./interfaces/IVolatility.sol\";\r\ncontract OptionsPrice is ImportVolatility{\r\n    constructor (address ivContract) public{\r\n        setVolatilityAddress(ivContract);\r\n    }\r\n    uint256 constant Year = 365 days;\r\n    Fraction.fractionNumber internal rate = Fraction.fractionNumber(5,1000);\r\n    function getRate()public view returns(int256,int256){\r\n        return (rate.numerator,rate.denominator);\r\n    }\r\n    function setRate(int256 numerator,int256 denominator)public onlyOwner{\r\n        rate.numerator = numerator;\r\n        rate.denominator = denominator;\r\n    }\r\n    function getOptionsPrice(uint256 currentPrice, uint256 strikePrice, uint256 expiration,uint32 underlying,uint8 optType)public view returns (uint256){\r\n        (uint256 ivNumerator,uint256 ivDenominator) = _volatility.calculateIv(underlying,optType,expiration,strikePrice);\r\n        Fraction.fractionNumber memory _iv = Fraction.fractionNumber(int256(ivNumerator),int256(ivDenominator));\r\n        if (optType == 0) {\r\n            return callOptionsPrice(currentPrice,strikePrice,expiration,rate,_iv);\r\n        }else{\r\n            return putOptionsPrice(currentPrice,strikePrice,expiration,rate,_iv);\r\n        }\r\n    }\r\n    function getOptionsPrice_iv(uint256 currentPrice, uint256 strikePrice, uint256 expiration,\r\n            uint256 ivNumerator,uint256 ivDenominator,uint8 optType)public view returns (uint256){\r\n        Fraction.fractionNumber memory _iv = Fraction.fractionNumber(int256(ivNumerator),int256(ivDenominator));\r\n        if (optType == 0) {\r\n            return callOptionsPrice(currentPrice,strikePrice,expiration,rate,_iv);\r\n        }else{\r\n            return putOptionsPrice(currentPrice,strikePrice,expiration,rate,_iv);\r\n        }\r\n    }\r\n    function calculateD1D2(uint256 currentPrice, uint256 strikePrice, uint256 expiration,\r\n         Fraction.fractionNumber memory r, Fraction.fractionNumber memory derta) \r\n            internal pure returns (Fraction.fractionNumber, Fraction.fractionNumber) {\r\n        Fraction.fractionNumber memory d1 = Fraction.fractionNumber(0,1);\r\n        if (currentPrice != strikePrice){\r\n            Fraction.fractionNumber memory lns = Fraction.fractionLn(currentPrice);\r\n            Fraction.fractionNumber memory lnl = Fraction.fractionLn(strikePrice);\r\n            d1 = Fraction.safeFractionSub(lns, lnl);\r\n        }\r\n        Fraction.fractionNumber memory derta2 = Fraction.safeFractionMul(derta, derta);\r\n        derta2 = Fraction.safeFractionMul(derta2, Fraction.fractionNumber(1,2));\r\n        derta2 = Fraction.safeFractionAdd(derta2, r);\r\n        derta2 = Fraction.safeFractionMul(derta2, Fraction.fractionNumber(int256(expiration),int256(Year)));\r\n        d1 = Fraction.safeFractionAdd(d1, derta2);\r\n        Fraction.fractionNumber memory dertaT = Fraction.safeFractionMul(Fraction.fractionSqrt(Fraction.fractionNumber(int256(expiration*1e10),int256(Year*1e10))), derta);\r\n        d1 = Fraction.safeFractionDiv(d1, dertaT);\r\n        Fraction.fractionNumber memory d2 = Fraction.safeFractionSub(d1, dertaT);\r\n        return (d1, d2);\r\n    }\r\n\r\n    //L*pow(e,-rT)*(1-N(d2)) - S*(1-N(d1))\r\n    function putOptionsPrice(uint256 currentPrice, uint256 strikePrice, uint256 expiration,\r\n            Fraction.fractionNumber memory r, Fraction.fractionNumber memory derta) \r\n                internal pure returns (uint256) {\r\n       (Fraction.fractionNumber memory d1, Fraction.fractionNumber memory d2) = calculateD1D2(currentPrice, strikePrice, expiration, r, derta);\r\n        d1 = Fraction.normsDist(d1);\r\n        d2 = Fraction.normsDist(d2);\r\n        d1 = Fraction.safeFractionSub(Fraction.fractionNumber(1,1), d1);\r\n        d2 = Fraction.safeFractionSub(Fraction.fractionNumber(1,1), d2);\r\n        d1 = Fraction.safeFractionMul(d1, Fraction.fractionNumber(int256(currentPrice),1));\r\n        d2 = Fraction.safeFractionMul(d2, Fraction.fractionNumber(int256(strikePrice),1));\r\n        Fraction.fractionNumber memory rt = Fraction.safeFractionMul(r,Fraction.fractionNumber(int256(expiration),int256(Year)));\r\n        rt = Fraction.invert(Fraction.fractionExp(rt));\r\n        Fraction.fractionNumber memory price = Fraction.safeFractionMul(d2, rt);\r\n        price = Fraction.safeFractionSub(price, d1);\r\n        return uint256(price.numerator/price.denominator);\r\n    }\r\n\r\n    /*\r\n        r := FloatNum{\r\n            big.NewInt(5),\r\n            big.NewInt(1000)}\r\n    */\r\n    //S*N(d1)-L*pow(e,-rT)*N(d2)\r\n    function callOptionsPrice(uint256 currentPrice, uint256 strikePrice, uint256 expiration,\r\n            Fraction.fractionNumber memory r, Fraction.fractionNumber memory derta) \r\n                internal pure returns (uint256) {\r\n       (Fraction.fractionNumber memory d1, Fraction.fractionNumber memory d2) = calculateD1D2(currentPrice, strikePrice, expiration, r, derta);\r\n        d1 = Fraction.normsDist(d1);\r\n        d2 = Fraction.normsDist(d2);\r\n        d1 = Fraction.safeFractionMul(d1, Fraction.fractionNumber(int256(currentPrice),1));\r\n        d2 = Fraction.safeFractionMul(d2, Fraction.fractionNumber(int256(strikePrice),1));\r\n        Fraction.fractionNumber memory rt = Fraction.safeFractionMul(r,Fraction.fractionNumber(int256(expiration),int256(Year)));\r\n        rt = Fraction.invert(Fraction.fractionExp(rt));\r\n        Fraction.fractionNumber memory price = Fraction.safeFractionMul(d2, rt);\r\n        price = Fraction.safeFractionSub(d1, price);\r\n        return uint256(price.numerator/price.denominator);\r\n    }\r\n}",
  "sourcePath": "C:\\work\\solidity\\FinnexusOptions_V2\\contracts\\optionsPrice.sol",
  "compiler": {
    "name": "solc",
    "version": "0.4.26+commit.4563c3fc.Emscripten.clang"
  },
  "schemaVersion": "3.1.0",
  "updatedAt": "2020-07-27T01:12:31.053Z",
  "networkType": "ethereum",
  "devdoc": {
    "methods": {
      "isOwner()": {
        "details": "Returns true if the caller is the current owner."
      },
      "owner()": {
        "details": "Returns the address of the current owner."
      },
      "renounceOwnership()": {
        "details": "Leaves the contract without owner. It will not be possible to call `onlyOwner` functions anymore. Can only be called by the current owner.     * NOTE: Renouncing ownership will leave the contract without an owner, thereby removing any functionality that is only available to the owner."
      },
      "transferOwnership(address)": {
        "details": "Transfers ownership of the contract to a new account (`newOwner`). Can only be called by the current owner."
      }
    }
  },
  "userdoc": {
    "methods": {}
  }
}