{
  "contractName": "OptionsPriceTest",
  "abi": [
    {
      "inputs": [
        {
          "internalType": "address",
          "name": "ivContract",
          "type": "address"
        }
      ],
      "payable": false,
      "stateMutability": "nonpayable",
      "type": "constructor"
    },
    {
      "anonymous": false,
      "inputs": [
        {
          "indexed": true,
          "internalType": "address",
          "name": "previousOwner",
          "type": "address"
        },
        {
          "indexed": true,
          "internalType": "address",
          "name": "newOwner",
          "type": "address"
        }
      ],
      "name": "OwnershipTransferred",
      "type": "event"
    },
    {
      "constant": true,
      "inputs": [
        {
          "internalType": "uint256",
          "name": "selfOccupied",
          "type": "uint256"
        },
        {
          "internalType": "uint256",
          "name": "totalOccupied",
          "type": "uint256"
        },
        {
          "internalType": "uint256",
          "name": "totalCollateral",
          "type": "uint256"
        }
      ],
      "name": "calOptionsPriceRatio",
      "outputs": [
        {
          "internalType": "uint256",
          "name": "",
          "type": "uint256"
        },
        {
          "internalType": "uint256",
          "name": "",
          "type": "uint256"
        }
      ],
      "payable": false,
      "stateMutability": "view",
      "type": "function"
    },
    {
      "constant": true,
      "inputs": [],
      "name": "getRate",
      "outputs": [
        {
          "internalType": "int256",
          "name": "",
          "type": "int256"
        },
        {
          "internalType": "int256",
          "name": "",
          "type": "int256"
        }
      ],
      "payable": false,
      "stateMutability": "view",
      "type": "function"
    },
    {
      "constant": true,
      "inputs": [],
      "name": "getRatioR2",
      "outputs": [
        {
          "internalType": "int256",
          "name": "",
          "type": "int256"
        },
        {
          "internalType": "int256",
          "name": "",
          "type": "int256"
        }
      ],
      "payable": false,
      "stateMutability": "view",
      "type": "function"
    },
    {
      "constant": true,
      "inputs": [],
      "name": "getVolatilityAddress",
      "outputs": [
        {
          "internalType": "address",
          "name": "",
          "type": "address"
        }
      ],
      "payable": false,
      "stateMutability": "view",
      "type": "function"
    },
    {
      "constant": true,
      "inputs": [],
      "name": "isOwner",
      "outputs": [
        {
          "internalType": "bool",
          "name": "",
          "type": "bool"
        }
      ],
      "payable": false,
      "stateMutability": "view",
      "type": "function"
    },
    {
      "constant": true,
      "inputs": [],
      "name": "owner",
      "outputs": [
        {
          "internalType": "address",
          "name": "",
          "type": "address"
        }
      ],
      "payable": false,
      "stateMutability": "view",
      "type": "function"
    },
    {
      "constant": false,
      "inputs": [],
      "name": "renounceOwnership",
      "outputs": [],
      "payable": false,
      "stateMutability": "nonpayable",
      "type": "function"
    },
    {
      "constant": false,
      "inputs": [
        {
          "internalType": "int256",
          "name": "numerator",
          "type": "int256"
        },
        {
          "internalType": "int256",
          "name": "denominator",
          "type": "int256"
        }
      ],
      "name": "setRate",
      "outputs": [],
      "payable": false,
      "stateMutability": "nonpayable",
      "type": "function"
    },
    {
      "constant": false,
      "inputs": [
        {
          "internalType": "int256",
          "name": "numerator",
          "type": "int256"
        },
        {
          "internalType": "int256",
          "name": "denominator",
          "type": "int256"
        }
      ],
      "name": "setRatioR2",
      "outputs": [],
      "payable": false,
      "stateMutability": "nonpayable",
      "type": "function"
    },
    {
      "constant": false,
      "inputs": [
        {
          "internalType": "address",
          "name": "volatility",
          "type": "address"
        }
      ],
      "name": "setVolatilityAddress",
      "outputs": [],
      "payable": false,
      "stateMutability": "nonpayable",
      "type": "function"
    },
    {
      "constant": false,
      "inputs": [
        {
          "internalType": "address",
          "name": "newOwner",
          "type": "address"
        }
      ],
      "name": "transferOwnership",
      "outputs": [],
      "payable": false,
      "stateMutability": "nonpayable",
      "type": "function"
    },
    {
      "constant": false,
      "inputs": [
        {
          "internalType": "uint256",
          "name": "zoom",
          "type": "uint256"
        }
      ],
      "name": "setExpirationZoom",
      "outputs": [],
      "payable": false,
      "stateMutability": "nonpayable",
      "type": "function"
    },
    {
      "constant": true,
      "inputs": [
        {
          "internalType": "uint256",
          "name": "currentPrice",
          "type": "uint256"
        },
        {
          "internalType": "uint256",
          "name": "strikePrice",
          "type": "uint256"
        },
        {
          "internalType": "uint256",
          "name": "expiration",
          "type": "uint256"
        },
        {
          "internalType": "uint256",
          "name": "ivNumerator",
          "type": "uint256"
        },
        {
          "internalType": "uint256",
          "name": "ivDenominator",
          "type": "uint256"
        }
      ],
      "name": "testCalculateD1D2_iv",
      "outputs": [
        {
          "internalType": "int256",
          "name": "",
          "type": "int256"
        },
        {
          "internalType": "int256",
          "name": "",
          "type": "int256"
        },
        {
          "internalType": "int256",
          "name": "",
          "type": "int256"
        },
        {
          "internalType": "int256",
          "name": "",
          "type": "int256"
        }
      ],
      "payable": false,
      "stateMutability": "view",
      "type": "function"
    },
    {
      "constant": true,
      "inputs": [
        {
          "internalType": "uint256",
          "name": "currentPrice",
          "type": "uint256"
        },
        {
          "internalType": "uint256",
          "name": "strikePrice",
          "type": "uint256"
        },
        {
          "internalType": "uint256",
          "name": "expiration",
          "type": "uint256"
        },
        {
          "internalType": "uint256",
          "name": "ivNumerator",
          "type": "uint256"
        },
        {
          "internalType": "uint256",
          "name": "ivDenominator",
          "type": "uint256"
        }
      ],
      "name": "testCalculateND1ND2_iv",
      "outputs": [
        {
          "internalType": "int256",
          "name": "",
          "type": "int256"
        },
        {
          "internalType": "int256",
          "name": "",
          "type": "int256"
        },
        {
          "internalType": "int256",
          "name": "",
          "type": "int256"
        },
        {
          "internalType": "int256",
          "name": "",
          "type": "int256"
        }
      ],
      "payable": false,
      "stateMutability": "view",
      "type": "function"
    },
    {
      "constant": true,
      "inputs": [
        {
          "internalType": "uint256",
          "name": "currentPrice",
          "type": "uint256"
        },
        {
          "internalType": "uint256",
          "name": "strikePrice",
          "type": "uint256"
        },
        {
          "internalType": "uint256",
          "name": "expiration",
          "type": "uint256"
        },
        {
          "internalType": "uint32",
          "name": "underlying",
          "type": "uint32"
        },
        {
          "internalType": "uint8",
          "name": "optType",
          "type": "uint8"
        }
      ],
      "name": "getOptionsPrice",
      "outputs": [
        {
          "internalType": "uint256",
          "name": "",
          "type": "uint256"
        }
      ],
      "payable": false,
      "stateMutability": "view",
      "type": "function"
    },
    {
      "constant": true,
      "inputs": [
        {
          "internalType": "uint256",
          "name": "currentPrice",
          "type": "uint256"
        },
        {
          "internalType": "uint256",
          "name": "strikePrice",
          "type": "uint256"
        },
        {
          "internalType": "uint256",
          "name": "expiration",
          "type": "uint256"
        },
        {
          "internalType": "uint256",
          "name": "ivNumerator",
          "type": "uint256"
        },
        {
          "internalType": "uint8",
          "name": "optType",
          "type": "uint8"
        }
      ],
      "name": "getOptionsPrice_iv",
      "outputs": [
        {
          "internalType": "uint256",
          "name": "",
          "type": "uint256"
        }
      ],
      "payable": false,
      "stateMutability": "view",
      "type": "function"
    }
  ],
  "bytecode": "0x600060808190526103e860a0819052600291909155600355610100604052600460c0819052600160e0819052908055600581905560065534801561004257600080fd5b5060405162001e7538038062001e758339818101604052602081101561006757600080fd5b505160008054600160a060020a03191633178082556040518392600160a060020a039290921691907f8be0079c531659141344cd1fd0a4f28419497f9722a3daafe3b4186f6b6457e0908290a36100c6816401000000006100cd810204565b505061017c565b6100de64010000000061016b810204565b61014957604080517f08c379a000000000000000000000000000000000000000000000000000000000815260206004820181905260248201527f4f776e61626c653a2063616c6c6572206973206e6f7420746865206f776e6572604482015290519081900360640190fd5b60018054600160a060020a031916600160a060020a0392909216919091179055565b600054600160a060020a0316331490565b611ce9806200018c6000396000f3fe608060405234801561001057600080fd5b506004361061011d576000357c010000000000000000000000000000000000000000000000000000000090048063800fb27a116100b4578063bfe402f411610083578063bfe402f4146102fe578063c6dfbc8614610321578063f22f25431461033e578063f2fde38b146103675761011d565b8063800fb27a1461029d5780638da5cb5b146102d25780638f32d59b146102da578063ad66ba76146102f65761011d565b80634d6d2100116100f05780634d6d21001461021957806362df80ce1461023c578063679aefce14610274578063715018a6146102955761011d565b806301b7bc2c146101225780632967eafe1461017d57806342e5479d146101a55780634b7d8e5c146101c9575b600080fd5b610157600480360360a081101561013857600080fd5b508035906020810135906040810135906060810135906080013561038d565b604080519485526020850193909352838301919091526060830152519081900360800190f35b6101a36004803603602081101561019357600080fd5b5035600160a060020a0316610426565b005b6101ad61049f565b60408051600160a060020a039092168252519081900360200190f35b610207600480360360a08110156101df57600080fd5b50803590602081013590604081013590606081013563ffffffff16906080013560ff166104ae565b60408051918252519081900360200190f35b6101a36004803603604081101561022f57600080fd5b50803590602001356104d0565b610207600480360360a081101561025257600080fd5b508035906020810135906040810135906060810135906080013560ff16610525565b61027c61053b565b6040805192835260208301919091528051918290030190f35b6101a3610545565b610157600480360360a08110156102b357600080fd5b50803590602081013590604081013590606081013590608001356105e6565b6101ad610667565b6102e2610676565b604080519115158252519081900360200190f35b61027c610687565b6101a36004803603604081101561031457600080fd5b5080359060200135610691565b6101a36004803603602081101561033757600080fd5b50356106e6565b61027c6004803603606081101561035457600080fd5b50803590602081013590604001356106eb565b6101a36004803603602081101561037d57600080fd5b5035600160a060020a0316610792565b60008060008061039b611bf6565b60405180604001604052808881526020018781525090506103ba611bf6565b6103c2611bf6565b60408051808201909152600254815260035460208201526103e9908d908d908d90876107e8565b915091506103f682610929565b915061040181610929565b825160209384015182519290940151909e939d50909b50995090975050505050505050565b61042e610676565b610470576040805160e560020a62461bcd0281526020600482018190526024820152600080516020611c64833981519152604482015290519081900360640190fd5b6001805473ffffffffffffffffffffffffffffffffffffffff1916600160a060020a0392909216919091179055565b600154600160a060020a031690565b6000600654840293506104c48686868686610b7d565b90505b95945050505050565b6104d8610676565b61051a576040805160e560020a62461bcd0281526020600482018190526024820152600080516020611c64833981519152604482015290519081900360640190fd5b600491909155600555565b6000600654840293506104c48686868686610d13565b6002546003549091565b61054d610676565b61058f576040805160e560020a62461bcd0281526020600482018190526024820152600080516020611c64833981519152604482015290519081900360640190fd5b60008054604051600160a060020a03909116907f8be0079c531659141344cd1fd0a4f28419497f9722a3daafe3b4186f6b6457e0908390a36000805473ffffffffffffffffffffffffffffffffffffffff19169055565b6000806000806105f4611bf6565b6040518060400160405280888152602001878152509050610613611bf6565b61061b611bf6565b6040805180820190915260025481526003546020820152610642908d908d908d90876107e8565b815160209283015182519290930151909f929e50909c509a5098505050505050505050565b600054600160a060020a031690565b600054600160a060020a0316331490565b6004546005549091565b610699610676565b6106db576040805160e560020a62461bcd0281526020600482018190526024820152600080516020611c64833981519152604482015290519081900360640190fd5b600291909155600355565b600655565b6000808385600202116107035750600190508061078a565b61070b611bf6565b50604080518082019091526002808702860182528502602082015261072e611bf6565b604080518082018252600454815260055460208083019190915282518084019093528883528201879052610768919063ffffffff610dee16565b905061077a828263ffffffff610e0f16565b8051602090910151909450925050505b935093915050565b61079a610676565b6107dc576040805160e560020a62461bcd0281526020600482018190526024820152600080516020611c64833981519152604482015290519081900360640190fd5b6107e581610e34565b50565b6107f0611bf6565b6107f8611bf6565b610800611bf6565b86881461082d5761082861081388610ee4565b61081c8a610ee4565b9063ffffffff610f1e16565b610845565b60405180604001604052806000815260200160018152505b905061084f611bf6565b61085f858063ffffffff610dee16565b6020810180516002029052905061087c818763ffffffff610f3316565b90506108a960405180604001604052808981526020016301e1338081525082610dee90919063ffffffff16565b90506108bb828263ffffffff610f3316565b91506108f58560405180604001604052806108dc8b6402540be40002610f48565b8152632178ddce6020909101529063ffffffff610dee16565b9050610907828263ffffffff610f7f16565b9150610919828263ffffffff610f1e16565b9199919850909650505050505050565b610931611bf6565b600061093c83610f94565b905080156109505761094d83610fa7565b92505b6000836020015184600001518161096357fe5b059050600a8113156109b157816109905760405180604001604052806001815260200160018152506109a8565b60405180604001604052806000815260200160018152505b92505050610b78565b6109b9611c10565b506040805160e0810182526301e7566960a082019081526305f5e10060c0830152815281518083018352631540bb45198152633b9aca0060208281018290528084019290925283518085018552636a2f323181528083018290528385015283518085018552636c8e292919815280830182905260608401528351808501909452634f4a607d8452908301526080810191909152610a54611bf6565b610a7886604051806040016040528062235883815260200162989680815250610dee565b602081015181510181529050610a8d81610fde565b9050610a998687610dee565b6020810180516001190290529550610ab086611004565b9550610ae26040518060400160405280680229a4c508a92ae7d1815260200168056bc75e2d6310000081525087610dee565b9550610aec611bf6565b50604080518082019091526000815260016020820152610b0a611bf6565b508160005b6005811015610b5157610b3b83610b36878460058110610b2b57fe5b602002015185610dee565b610f33565b9250610b478285610dee565b9150600101610b0f565b50610b5c8883610dee565b975085610b6e57875160208901510388525b8796505050505050505b919050565b600154604080517f185d123200000000000000000000000000000000000000000000000000000000815263ffffffff8516600482015260ff8416602482015260448101869052606481018890526084810187905290516000928392600160a060020a039091169163185d12329160a480820192602092909190829003018186803b158015610c0a57600080fd5b505afa158015610c1e573d6000803e3d6000fd5b505050506040513d6020811015610c3457600080fd5b50519050610c40611bf6565b50604080518082019091526305f5e100808252602082015260ff8416610c90576040805180820190915260025481526003546020820152610c879089908990899085611065565b925050506104c7565b8360ff1660011415610cc3576040805180820190915260025481526003546020820152610c879089908990899085611139565b60028460ff1610610d085760405160e560020a62461bcd028152600401808060200182810382526031815260200180611c846031913960400191505060405180910390fd5b505095945050505050565b6000610d1d611bf6565b50604080518082019091528381526305f5e100602082015260ff8316610d6c576040805180820190915260025481526003546020820152610d649088908890889085611065565b9150506104c7565b8260ff1660011415610d9f576040805180820190915260025481526003546020820152610d649088908890889085611139565b60028360ff1610610de45760405160e560020a62461bcd028152600401808060200182810382526031815260200180611c846031913960400191505060405180910390fd5b5095945050505050565b610df6611bf6565b610e08610e0384846111eb565b611219565b9392505050565b610e17611bf6565b610e29610e23846112d0565b83610dee565b9250610e0883611004565b600160a060020a038116610e7c5760405160e560020a62461bcd028152600401808060200182810382526026815260200180611c3e6026913960400191505060405180910390fd5b60008054604051600160a060020a03808516939216917f8be0079c531659141344cd1fd0a4f28419497f9722a3daafe3b4186f6b6457e091a36000805473ffffffffffffffffffffffffffffffffffffffff1916600160a060020a0392909216919091179055565b610eec611bf6565b604080518082019091526401000000009092029180610f0a8461131d565b815264010000000060209091015292915050565b610f26611bf6565b610e08610e0384846113a3565b610f3b611bf6565b610e08610e0384846113df565b80600260018201045b81811015610f7957809150600281828581610f6857fe5b040181610f7157fe5b049050610f51565b50919050565b610f87611bf6565b610e08610e038484611418565b6020810151905160009182139113141590565b610faf611bf6565b815160001315610fc157815160000382525b600082602001511215610fda5760208201805160000390525b5090565b610fe6611bf6565b50604080518082019091526020808301518252825190820152919050565b61100c611bf6565b600061101783610f94565b9050801561102b5761102883610fa7565b92505b61103483611219565b8051640100000000028152925061104a83611446565b9250801561105e5761105b83610fde565b92505b5090919050565b600061106f611bf6565b611077611bf6565b61108488888888886107e8565b9150915061109182610929565b915061109c81610929565b82518902835280518802815285519091506110c8576110c1828263ffffffff610f1e16565b915061111e565b604080518082019091528681526301e1338060208201526110f090869063ffffffff610dee16565b945061111b61110e61110187611004565b839063ffffffff610f7f16565b839063ffffffff610f1e16565b91505b602082015182518161112c57fe5b0598975050505050505050565b6000611143611bf6565b61114b611bf6565b61115888888888886107e8565b9150915061116582610929565b915061117081610929565b8251602080850151919091038a028452815190820151038802815285519091506111a4576110c1818363ffffffff610f1e16565b604080518082019091528681526301e1338060208201526111cc90869063ffffffff610dee16565b945061111b8261081c6111de88611004565b849063ffffffff610f7f16565b6111f3611bf6565b506040805180820190915281518351028152602091820151928201519092029082015290565b611221611bf6565b6000808360000151121561123957825160000361123c565b82515b90506000808460200151121561125957836020015160000361125f565b83602001515b9050818113156112a8576f010000000000000000000000000000008113156112a3576050815b60029190910a60008083129003918218041891506109a88483611519565b6112c8565b6f010000000000000000000000000000008213156112c857605082611285565b509192915050565b6112d8611bf6565b602082015182516000919064010000000002816112f157fe5b05905060405180604001604052806113088361131d565b81526401000000006020909101529392505050565b600064010000000082101561137c576040805160e560020a62461bcd02815260206004820181905260248201527f6c6f67652066756e6374696f6e20696e70757420697320746f6f20736d616c6c604482015290519081900360640190fd5b6000611387836115b1565b67010000000000000066b17217f7d1cf78909102049392505050565b6113ab611bf6565b5060408051808201909152602080840180518451858401805188519290930291909202038452519051029082015292915050565b6113e7611bf6565b5060408051808201909152602080840180518451858401805188510291909202018452519051029082015292915050565b611420611bf6565b506040805180820190915260208281015184510282529151928201519092029082015290565b61144e611bf6565b6000826020015183600001518161146157fe5b05905064386bfdba298111156114ee57611479611bf6565b6040518060400160405280600286600001518161149257fe5b05815260208681015191015290506114a8611bf6565b506040805180820190915281518551038152602080860151908201526114cd82611446565b91506114d881611446565b90506114e48282610dee565b9350505050610b78565b60405180604001604052806115028361167e565b81526401000000006020909101529150610b789050565b611521611bf6565b8183602001511361157c576040805160e560020a62461bcd02815260206004820152601b60248201527f6672616374696f6e206e756d626572206973206f766572666c6f770000000000604482015290519081900360640190fd5b60405180604001604052808385600001518161159457fe5b058152602001838560200151816115a757fe5b0590529392505050565b6000640100000000821015611610576040805160e560020a62461bcd02815260206004820152601760248201527f4c6f673220696e70757420697320746f6f20736d616c6c000000000000000000604482015290519081900360640190fd5b60005b64020000000083106116315760029092049164010000000001611613565b60005b602060ff8216101561167757640100000000848002049350640200000000841061166f576002938490049360ff601f83900316900a91909101905b600101611634565b5092915050565b600064386bfdba298211156116dd576040805160e560020a62461bcd02815260206004820152601e60248201527f6578702066756e6374696f6e20696e707574206973206f766572666c6f770000604482015290519081900360640190fd5b6116e6826116ec565b92915050565b600080602060ff1660019060020a0290506000816fde1bc4d19efcac82445da75b00000000029050602060ff16848302908060020a82049150509150816fde1bc4d19efcb00000000000000000000281019050602060ff16848302908060020a82049150509150816f6f0de268cf7e580000000000000000000281019050602060ff16848302908060020a82049150509150816f2504a0cd9a7f720000000000000000000281019050602060ff16848302908060020a82049150509150816f09412833669fdc8000000000000000000281019050602060ff16848302908060020a82049150509150816f01d9d4d714865f5000000000000000000281019050602060ff16848302908060020a82049150509150816e4ef8ce836bba8c00000000000000000281019050602060ff16848302908060020a82049150509150816e0b481d807d1aa680000000000000000281019050602060ff16848302908060020a82049150509150816e016903b00fa354d0000000000000000281019050602060ff16848302908060020a82049150509150816d281cdaac677b34000000000000000281019050602060ff16848302908060020a82049150509150816d0402e2aad725eb800000000000000281019050602060ff16848302908060020a82049150509150816c5d5a6c9f31fe240000000000000281019050602060ff16848302908060020a82049150509150816c07c7890d442a830000000000000281019050602060ff16848302908060020a82049150509150816b9931ed5403452800000000000281019050602060ff16848302908060020a82049150509150816b0af147cf24ce1500000000000281019050602060ff16848302908060020a82049150509150816abac08546b867d0000000000281019050602060ff16848302908060020a82049150509150816a0bac08546b867d000000000281019050602060ff16848302908060020a820491505091508169afc441338061b80000000281019050602060ff16848302908060020a82049150509150816909c3cabbc0056e0000000281019050602060ff16848302908060020a820491505091508168839168328705c800000281019050602060ff16848302908060020a8204915050915081680694120286c04a00000281019050602060ff16848302908060020a82049150509150816750319e98b3d2c4000281019050602060ff16848302908060020a82049150509150816703a52a1e36b820200281019050602060ff16848302908060020a820491505091508166289286e0fce0020281019050602060ff16848302908060020a82049150509150816601b0c59eb534000281019050602060ff16848302908060020a820491505091508165114f95b554000281019050602060ff16848302908060020a820491505091508164aa7210d2000281019050602060ff16848302908060020a82049150509150816406501396000281019050602060ff16848302908060020a82049150509150816339b78e800281019050602060ff16848302908060020a82049150509150816301fd80800281019050602060ff16848302908060020a82049150509150816210fbc00281019050602060ff16848302908060020a8204915050915081618c400281019050602060ff16848302908060020a82049150509150816104620281019050602060ff16848302908060020a8204915050915081602202810190506fde1bc4d19efcac82445da75b000000008181611bed57fe5b04949350505050565b604051806040016040528060008152602001600081525090565b6040518060a001604052806005905b611c27611bf6565b815260200190600190039081611c1f579050509056fe4f776e61626c653a206e6577206f776e657220697320746865207a65726f20616464726573734f776e61626c653a2063616c6c6572206973206e6f7420746865206f776e6572204d75737420696e707574203020666f722063616c6c206f7074696f6e206f72203120666f7220707574206f7074696f6ea265627a7a72315820feec85eb618376565898289339f61aef4d17ce3d228479a2395a587be182663e64736f6c63430005100032",
  "source": "pragma solidity =0.5.16;\r\nimport \"../optionsPrice.sol\";\r\ncontract OptionsPriceTest is OptionsPrice{\r\n    uint256 expirationZoom = 1;\r\n    constructor (address ivContract) OptionsPrice(ivContract) public{\r\n    }\r\n    function setExpirationZoom(uint256 zoom) public{\r\n        expirationZoom = zoom;\r\n    }\r\n    function testCalculateD1D2_iv(uint256 currentPrice, uint256 strikePrice, uint256 expiration,uint256 ivNumerator,uint256 ivDenominator)\r\n        public view returns(int256,int256,int256,int256){\r\n        Fraction.fractionNumber memory _iv = Fraction.fractionNumber(int256(ivNumerator),int256(ivDenominator));\r\n        (Fraction.fractionNumber memory d1, Fraction.fractionNumber memory d2) = calculateD1D2(currentPrice,strikePrice,expiration,rate,_iv);\r\n        return (d1.numerator,d1.denominator,d2.numerator,d2.denominator);\r\n    }\r\n    function testCalculateND1ND2_iv(uint256 currentPrice, uint256 strikePrice, uint256 expiration,uint256 ivNumerator,uint256 ivDenominator)\r\n        public view returns(int256,int256,int256,int256){\r\n        Fraction.fractionNumber memory _iv = Fraction.fractionNumber(int256(ivNumerator),int256(ivDenominator));\r\n        (Fraction.fractionNumber memory d1, Fraction.fractionNumber memory d2) = calculateD1D2(currentPrice,strikePrice,expiration,rate,_iv);\r\n        d1 = d1.normsDist();\r\n        d2 = d2.normsDist();\r\n        return (d1.numerator,d1.denominator,d2.numerator,d2.denominator);\r\n    }\r\n        /**\r\n     * @dev calculate option's price using B_S formulas\r\n     * @param currentPrice current underlying price.\r\n     * @param strikePrice option's strike price.\r\n     * @param expiration option's expiration left time. Equal option's expiration timestamp - now.\r\n     * @param underlying option's underlying id, 1 for BTC, 2 for ETH.\r\n     * @param optType option's type, 0 for CALL, 2 for PUT.\r\n     */\r\n    function getOptionsPrice(uint256 currentPrice, uint256 strikePrice, uint256 expiration,uint32 underlying,uint8 optType)public view returns (uint256){\r\n        expiration = expiration * expirationZoom;\r\n        return OptionsPrice.getOptionsPrice(currentPrice,strikePrice,expiration,underlying,optType);\r\n    }\r\n    /**\r\n     * @dev calculate option's price using B_S formulas with user input iv.\r\n     * @param currentPrice current underlying price.\r\n     * @param strikePrice option's strike price.\r\n     * @param expiration option's expiration left time. Equal option's expiration timestamp - now.\r\n     * @param ivNumerator user input iv numerator.\r\n     * @param optType option's type, 0 for CALL, 2 for PUT.\r\n     */\r\n    function getOptionsPrice_iv(uint256 currentPrice, uint256 strikePrice, uint256 expiration,\r\n            uint256 ivNumerator,uint8 optType)public view returns (uint256){\r\n                expiration = expiration * expirationZoom;\r\n        return OptionsPrice.getOptionsPrice_iv(currentPrice,strikePrice,expiration,ivNumerator,optType);\r\n    }\r\n}",
  "sourcePath": "C:\\work\\solidity\\FinnexusOptions_V2\\contracts\\test\\optionsPriceTest.sol",
  "compiler": {
    "name": "solc",
    "version": "0.5.16+commit.9c3226ce.Emscripten.clang"
  },
  "schemaVersion": "3.1.0",
  "updatedAt": "2020-10-15T03:03:37.985Z",
  "devdoc": {
    "methods": {
      "getOptionsPrice(uint256,uint256,uint256,uint32,uint8)": {
        "details": "calculate option's price using B_S formulas",
        "params": {
          "currentPrice": "current underlying price.",
          "expiration": "option's expiration left time. Equal option's expiration timestamp - now.",
          "optType": "option's type, 0 for CALL, 2 for PUT.",
          "strikePrice": "option's strike price.",
          "underlying": "option's underlying id, 1 for BTC, 2 for ETH."
        }
      },
      "getOptionsPrice_iv(uint256,uint256,uint256,uint256,uint8)": {
        "details": "calculate option's price using B_S formulas with user input iv.",
        "params": {
          "currentPrice": "current underlying price.",
          "expiration": "option's expiration left time. Equal option's expiration timestamp - now.",
          "ivNumerator": "user input iv numerator.",
          "optType": "option's type, 0 for CALL, 2 for PUT.",
          "strikePrice": "option's strike price."
        }
      },
      "getRate()": {
        "details": "get B_S formulas r"
      },
      "getRatioR2()": {
        "details": "get options price ratio for R2"
      },
      "isOwner()": {
        "details": "Returns true if the caller is the current owner."
      },
      "owner()": {
        "details": "Returns the address of the current owner."
      },
      "renounceOwnership()": {
        "details": "Leaves the contract without owner. It will not be possible to call `onlyOwner` functions anymore. Can only be called by the current owner.      * NOTE: Renouncing ownership will leave the contract without an owner, thereby removing any functionality that is only available to the owner."
      },
      "setRate(int256,int256)": {
        "details": "set B_S formulas r"
      },
      "setRatioR2(int256,int256)": {
        "details": "set options price ratio for R2"
      },
      "transferOwnership(address)": {
        "details": "Transfers ownership of the contract to a new account (`newOwner`). Can only be called by the current owner."
      }
    }
  },
  "userdoc": {
    "methods": {}
  }
}