{
  "contractName": "OptionsPrice",
  "abi": [
    {
      "constant": false,
      "inputs": [
        {
          "name": "volatility",
          "type": "address"
        }
      ],
      "name": "setVolatilityAddress",
      "outputs": [],
      "payable": false,
      "stateMutability": "nonpayable",
      "type": "function"
    },
    {
      "constant": true,
      "inputs": [],
      "name": "getVolatilityAddress",
      "outputs": [
        {
          "name": "",
          "type": "address"
        }
      ],
      "payable": false,
      "stateMutability": "view",
      "type": "function"
    },
    {
      "constant": false,
      "inputs": [],
      "name": "renounceOwnership",
      "outputs": [],
      "payable": false,
      "stateMutability": "nonpayable",
      "type": "function"
    },
    {
      "constant": true,
      "inputs": [],
      "name": "owner",
      "outputs": [
        {
          "name": "",
          "type": "address"
        }
      ],
      "payable": false,
      "stateMutability": "view",
      "type": "function"
    },
    {
      "constant": true,
      "inputs": [],
      "name": "isOwner",
      "outputs": [
        {
          "name": "",
          "type": "bool"
        }
      ],
      "payable": false,
      "stateMutability": "view",
      "type": "function"
    },
    {
      "constant": false,
      "inputs": [
        {
          "name": "newOwner",
          "type": "address"
        }
      ],
      "name": "transferOwnership",
      "outputs": [],
      "payable": false,
      "stateMutability": "nonpayable",
      "type": "function"
    },
    {
      "inputs": [
        {
          "name": "ivContract",
          "type": "address"
        }
      ],
      "payable": false,
      "stateMutability": "nonpayable",
      "type": "constructor"
    },
    {
      "anonymous": false,
      "inputs": [
        {
          "indexed": true,
          "name": "previousOwner",
          "type": "address"
        },
        {
          "indexed": true,
          "name": "newOwner",
          "type": "address"
        }
      ],
      "name": "OwnershipTransferred",
      "type": "event"
    },
    {
      "constant": true,
      "inputs": [],
      "name": "getRate",
      "outputs": [
        {
          "name": "",
          "type": "int256"
        },
        {
          "name": "",
          "type": "int256"
        }
      ],
      "payable": false,
      "stateMutability": "view",
      "type": "function"
    },
    {
      "constant": false,
      "inputs": [
        {
          "name": "numerator",
          "type": "int256"
        },
        {
          "name": "denominator",
          "type": "int256"
        }
      ],
      "name": "setRate",
      "outputs": [],
      "payable": false,
      "stateMutability": "nonpayable",
      "type": "function"
    },
    {
      "constant": true,
      "inputs": [
        {
          "name": "currentPrice",
          "type": "uint256"
        },
        {
          "name": "strikePrice",
          "type": "uint256"
        },
        {
          "name": "expiration",
          "type": "uint256"
        },
        {
          "name": "underlying",
          "type": "uint32"
        },
        {
          "name": "optType",
          "type": "uint8"
        }
      ],
      "name": "getOptionsPrice",
      "outputs": [
        {
          "name": "",
          "type": "uint256"
        }
      ],
      "payable": false,
      "stateMutability": "view",
      "type": "function"
    },
    {
      "constant": true,
      "inputs": [
        {
          "name": "currentPrice",
          "type": "uint256"
        },
        {
          "name": "strikePrice",
          "type": "uint256"
        },
        {
          "name": "expiration",
          "type": "uint256"
        },
        {
          "name": "ivNumerator",
          "type": "uint256"
        },
        {
          "name": "ivDenominator",
          "type": "uint256"
        },
        {
          "name": "optType",
          "type": "uint8"
        }
      ],
      "name": "getOptionsPrice_iv",
      "outputs": [
        {
          "name": "",
          "type": "uint256"
        }
      ],
      "payable": false,
      "stateMutability": "view",
      "type": "function"
    }
  ],
  "bytecode": "0x60c0604052600560808190526103e860a081905260029190915560035534801561002857600080fd5b50604051602080611b62833981016040819052905160008054600160a060020a03191633178082559192600160a060020a0392909216917f8be0079c531659141344cd1fd0a4f28419497f9722a3daafe3b4186f6b6457e0908290a36100968164010000000061009c810204565b5061014d565b6100ad64010000000061013c810204565b151561011a57604080517f08c379a000000000000000000000000000000000000000000000000000000000815260206004820181905260248201527f4f776e61626c653a2063616c6c6572206973206e6f7420746865206f776e6572604482015290519081900360640190fd5b60018054600160a060020a031916600160a060020a0392909216919091179055565b600054600160a060020a0316331490565b611a068061015c6000396000f3006080604052600436106100a35763ffffffff7c0100000000000000000000000000000000000000000000000000000000600035041663055ef6ab81146100a85780632967eafe146100e457806342e5479d146101075780634b7d8e5c14610138578063679aefce14610165578063715018a6146101935780638da5cb5b146101a85780638f32d59b146101bd578063bfe402f4146101e6578063f2fde38b14610201575b600080fd5b3480156100b457600080fd5b506100d260043560243560443560643560843560ff60a43516610222565b60408051918252519081900360200190f35b3480156100f057600080fd5b50610105600160a060020a03600435166102ab565b005b34801561011357600080fd5b5061011c610326565b60408051600160a060020a039092168252519081900360200190f35b34801561014457600080fd5b506100d260043560243560443563ffffffff6064351660ff60843516610335565b34801561017157600080fd5b5061017a610481565b6040805192835260208301919091528051918290030190f35b34801561019f57600080fd5b5061010561048b565b3480156101b457600080fd5b5061011c61052e565b3480156101c957600080fd5b506101d261053d565b604080519115158252519081900360200190f35b3480156101f257600080fd5b5061010560043560243561054e565b34801561020d57600080fd5b50610105600160a060020a03600435166105a5565b600061022c611974565b50604080518082019091528481526020810184905260ff8316151561027957604080518082019091526002548152600354602082015261027290899089908990856105fd565b91506102a0565b6040805180820190915260025481526003546020820152610272908990899089908561071a565b509695505050505050565b6102b361053d565b15156102f7576040805160e560020a62461bcd02815260206004820181905260248201526000805160206119bb833981519152604482015290519081900360640190fd5b6001805473ffffffffffffffffffffffffffffffffffffffff1916600160a060020a0392909216919091179055565b600154600160a060020a031690565b6000806000610342611974565b600154604080517f185d123200000000000000000000000000000000000000000000000000000000815263ffffffff8916600482015260ff88166024820152604481018a9052606481018c9052608481018b90528151600160a060020a039093169263185d12329260a4808401939192918290030181600087803b1580156103c957600080fd5b505af11580156103dd573d6000803e3d6000fd5b505050506040513d60408110156103f357600080fd5b508051602091820151604080518082019091528281529283018190529094509250905060ff8516151561044e576040805180820190915260025481526003546020820152610447908a908a908a90856105fd565b9350610475565b6040805180820190915260025481526003546020820152610447908a908a908a908561071a565b50505095945050505050565b6002546003549091565b61049361053d565b15156104d7576040805160e560020a62461bcd02815260206004820181905260248201526000805160206119bb833981519152604482015290519081900360640190fd5b60008054604051600160a060020a03909116907f8be0079c531659141344cd1fd0a4f28419497f9722a3daafe3b4186f6b6457e0908390a36000805473ffffffffffffffffffffffffffffffffffffffff19169055565b600054600160a060020a031690565b600054600160a060020a0316331490565b61055661053d565b151561059a576040805160e560020a62461bcd02815260206004820181905260248201526000805160206119bb833981519152604482015290519081900360640190fd5b600291909155600355565b6105ad61053d565b15156105f1576040805160e560020a62461bcd02815260206004820181905260248201526000805160206119bb833981519152604482015290519081900360640190fd5b6105fa8161085c565b50565b6000610607611974565b61060f611974565b610617611974565b61061f611974565b61062c8a8a8a8a8a61094a565b9350935061063984610ac9565b935061064483610ac9565b604080518082019091528b81526001602082015290935061066c90859063ffffffff610dc316565b604080518082019091528a81526001602082015290945061069490849063ffffffff610dc316565b604080518082019091528981526301e1338060208201529093506106bf90889063ffffffff610dc316565b91506106d26106cd83610dec565b610e53565b91506106e4838363ffffffff610dc316565b90506106f6848263ffffffff610e7916565b90508060200151816000015181151561070b57fe5b059a9950505050505050505050565b6000610724611974565b61072c611974565b610734611974565b61073c611974565b6107498a8a8a8a8a61094a565b9350935061075684610ac9565b935061076183610ac9565b6040805180820190915260018082526020820152909350610788908563ffffffff610e7916565b60408051808201909152600180825260208201529094506107af908463ffffffff610e7916565b604080518082019091528b8152600160208201529093506107d790859063ffffffff610dc316565b604080518082019091528a8152600160208201529094506107ff90849063ffffffff610dc316565b604080518082019091528981526301e13380602082015290935061082a90889063ffffffff610dc316565b91506108386106cd83610dec565b915061084a838363ffffffff610dc316565b90506106f6818563ffffffff610e7916565b600160a060020a03811615156108e2576040805160e560020a62461bcd02815260206004820152602660248201527f4f776e61626c653a206e6577206f776e657220697320746865207a65726f206160448201527f6464726573730000000000000000000000000000000000000000000000000000606482015290519081900360840190fd5b60008054604051600160a060020a03808516939216917f8be0079c531659141344cd1fd0a4f28419497f9722a3daafe3b4186f6b6457e091a36000805473ffffffffffffffffffffffffffffffffffffffff1916600160a060020a0392909216919091179055565b610952611974565b61095a611974565b610962611974565b61096a611974565b610972611974565b61097a611974565b610982611974565b60408051808201909152600081526001602082015294508b8b146109c9576109a98c610e9b565b93506109b48b610e9b565b92506109c6848463ffffffff610e7916565b94505b6109d9888063ffffffff610dc316565b604080518082019091526001815260026020820152909250610a0290839063ffffffff610dc316565b9150610a14828a63ffffffff610ed516565b604080518082019091528b81526301e133806020820152909250610a3f90839063ffffffff610dc316565b9150610a51858363ffffffff610ed516565b9450610a9288610a8660408051908101604052808e6402540be4000281526020016301e133806402540be40002815250610ef7565b9063ffffffff610dc316565b9150610aa4858363ffffffff610f9e16565b9450610ab6858363ffffffff610e7916565b949c949b50939950505050505050505050565b610ad1611974565b600080610adc611974565b610ae461198b565b610aec611974565b610af4611974565b610afc611974565b610b04611974565b610b0c611974565b6000610b178c610fc0565b99508915610b2b57610b288c610fd3565b9b505b60208c01518c51811515610b3b57fe5b059850600a891315610b825789610b65576040805180820190915260018082526020820152610b7b565b6040805180820190915260008152600160208201525b9a50610db4565b60408051808201825262235883815262989680602080830191909152825160e0810184526301e7566960a082019081526305f5e10060c0830152815283518085018552631540bb45198152633b9aca008184018190528284019190915284518086018652636a2f323181528084018290528286015284518086018652636c8e292919815280840182905260608301528451808601909552634f4a607d855291840191909152608081019290925298509650610c438c8963ffffffff610dc316565b6040805180820190915260018082526020820152909650610c6b90879063ffffffff610ed516565b9550610c7686610e53565b60408051808201909152680229a4c508a92ae7d1815268056bc75e2d6310000060208201529096509450610cb08c8063ffffffff610dc316565b60408051808201909152600019815260026020820152909450610cda90859063ffffffff610dc316565b9350610ce584610dec565b9350610cf7858563ffffffff610dc316565b935060408051908101604052806000815260200160018152509250859150600090505b6005811015610d7057610d54610d4783898460058110610d3657fe5b60200201519063ffffffff610dc316565b849063ffffffff610ed516565b9250610d66828763ffffffff610ed516565b9150600101610d1a565b610d80848463ffffffff610dc316565b9350891515610db0576040805180820190915260018082526020820152610dad908563ffffffff610e7916565b93505b839a505b50505050505050505050919050565b610dcb611974565b610de5610dd78461100a565b610de08461100a565b6110ab565b9392505050565b610df4611974565b6000610dfe611974565b610e0784610fc0565b91508115610e1b57610e1884610fd3565b93505b610e248461100a565b80516401000000000281529350610e3a846110d9565b90508115610de557610e4b81610e53565b949350505050565b610e5b611974565b50604080518082019091526020808301518252825190820152919050565b610e81611974565b610de5610e8d8461100a565b610e968461100a565b611195565b610ea3611974565b604080518082019091526401000000009092029180610ec1846111d1565b815264010000000060209091015292915050565b610edd611974565b610de5610ee98461100a565b610ef28461100a565b611256565b610eff611974565b8151600013801590610f1657506000826020015112155b1515610f6c576040805160e560020a62461bcd02815260206004820181905260248201527f53717274206d75737420696e707574206120706f7369746976652076616c7565604482015290519081900360640190fd5b6040805190810160405280610f84846000015161128f565b8152602001610f96846020015161128f565b905292915050565b610fa6611974565b610de5610fb28461100a565b610fbb8461100a565b6112ca565b6020810151905160009182139113141590565b610fdb611974565b815160001315610fed57815160000382525b6000826020015112156110065760208201805160000390525b5090565b611012611974565b600080600061102485600001516112f8565b925061103385602001516112f8565b91508282131561107f576f0100000000000000000000000000000082131561107a576050825b60029190910a90059050611073858263ffffffff61131216565b93506110a3565b61109f565b6f0100000000000000000000000000000083131561109f57605083611059565b8493505b505050919050565b6110b3611974565b506040805180820190915281518351028152602091820151928201519092029082015290565b6110e1611974565b60006110eb611974565b6110f3611974565b6020850151855181151561110357fe5b05925064386bfdba2983111561116c5750506040805180820182528451600290058152602080860180518284015283518085019094528251875103845251908301529061114f826110d9565b915061115a816110d9565b9050611073828263ffffffff610dc316565b6040805190810160405280611180856113ae565b815264010000000060209091015293506110a3565b61119d611974565b5060408051808201909152602080840180518451858401805188519290930291909202038452519051029082015292915050565b600080640100000000831015611231576040805160e560020a62461bcd02815260206004820181905260248201527f6c6f67652066756e6374696f6e20696e70757420697320746f6f20736d616c6c604482015290519081900360640190fd5b61123a83611416565b67010000000000000066b17217f7d1cf78909102049392505050565b61125e611974565b5060408051808201909152602080840180518451858401805188510291909202018452519051029082015292915050565b80600260018201045b818110156112c45780915060028182858115156112b157fe5b04018115156112bc57fe5b049050611298565b50919050565b6112d2611974565b506040805180820190915260208281015184510282529151928201519092029082015290565b6000808212611307578161130c565b816000035b92915050565b61131a611974565b60208301518212611375576040805160e560020a62461bcd02815260206004820152601b60248201527f6672616374696f6e206e756d626572206973206f766572666c6f770000000000604482015290519081900360640190fd5b604080519081016040528083856000015181151561138f57fe5b0581526020018385602001518115156113a457fe5b0590529392505050565b600064386bfdba2982111561140d576040805160e560020a62461bcd02815260206004820152601e60248201527f6578702066756e6374696f6e20696e707574206973206f766572666c6f770000604482015290519081900360640190fd5b61130c826114ec565b60008080640100000000841015611477576040805160e560020a62461bcd02815260206004820152601760248201527f4c6f673220696e70757420697320746f6f20736d616c6c000000000000000000604482015290519081900360640190fd5b600091505b640200000000841061149e57600290930492640100000000919091019061147c565b5060005b602060ff821610156114e55764010000000084800204935064020000000084106114dd576002938490049360ff601f83900316900a91909101905b6001016114a2565b5092915050565b6000806000602060ff1660019060020a029150816fde1bc4d19efcac82445da75b00000000029050602060ff168483029060020a90049150816fde1bc4d19efcb00000000000000000000281019050602060ff168483029060020a90049150816f6f0de268cf7e580000000000000000000281019050602060ff168483029060020a90049150816f2504a0cd9a7f720000000000000000000281019050602060ff168483029060020a90049150816f09412833669fdc8000000000000000000281019050602060ff168483029060020a90049150816f01d9d4d714865f5000000000000000000281019050602060ff168483029060020a90049150816e4ef8ce836bba8c00000000000000000281019050602060ff168483029060020a90049150816e0b481d807d1aa680000000000000000281019050602060ff168483029060020a90049150816e016903b00fa354d0000000000000000281019050602060ff168483029060020a90049150816d281cdaac677b34000000000000000281019050602060ff168483029060020a90049150816d0402e2aad725eb800000000000000281019050602060ff168483029060020a90049150816c5d5a6c9f31fe240000000000000281019050602060ff168483029060020a90049150816c07c7890d442a830000000000000281019050602060ff168483029060020a90049150816b9931ed5403452800000000000281019050602060ff168483029060020a90049150816b0af147cf24ce1500000000000281019050602060ff168483029060020a90049150816abac08546b867d0000000000281019050602060ff168483029060020a90049150816a0bac08546b867d000000000281019050602060ff168483029060020a900491508169afc441338061b80000000281019050602060ff168483029060020a90049150816909c3cabbc0056e0000000281019050602060ff168483029060020a900491508168839168328705c800000281019050602060ff168483029060020a9004915081680694120286c04a00000281019050602060ff168483029060020a90049150816750319e98b3d2c4000281019050602060ff168483029060020a90049150816703a52a1e36b820200281019050602060ff168483029060020a900491508166289286e0fce0020281019050602060ff168483029060020a90049150816601b0c59eb534000281019050602060ff168483029060020a900491508165114f95b554000281019050602060ff168483029060020a900491508164aa7210d2000281019050602060ff168483029060020a90049150816406501396000281019050602060ff168483029060020a90049150816339b78e800281019050602060ff168483029060020a90049150816301fd80800281019050602060ff168483029060020a90049150816210fbc00281019050602060ff168483029060020a9004915081618c400281019050602060ff168483029060020a90049150816104620281019050602060ff168483029060020a9004915081602202810190506fde1bc4d19efcac82445da75b000000008181151561196b57fe5b04949350505050565b604080518082019091526000808252602082015290565b610140604051908101604052806005905b6119a4611974565b81526020019060019003908161199c579050509056004f776e61626c653a2063616c6c6572206973206e6f7420746865206f776e6572a165627a7a7230582083a41811aaca90d2c80bc2f65a4d47205c6b03a5ae2b33852f3235b67ba7c7190029",
  "source": "pragma solidity ^0.4.26;\r\n\r\nimport \"./modules/Ownable.sol\";\r\nimport \"./modules/Fraction.sol\";\r\nimport \"./interfaces/IVolatility.sol\";\r\ncontract OptionsPrice is ImportVolatility{\r\n    using Fraction for Fraction.fractionNumber;\r\n    constructor (address ivContract) public{\r\n        setVolatilityAddress(ivContract);\r\n    }\r\n    uint256 constant internal Year = 365 days;\r\n    Fraction.fractionNumber internal rate = Fraction.fractionNumber(5,1000);\r\n    //B_S formulas r\r\n    function getRate()public view returns(int256,int256){\r\n        return (rate.numerator,rate.denominator);\r\n    }\r\n    function setRate(int256 numerator,int256 denominator)public onlyOwner{\r\n        rate.numerator = numerator;\r\n        rate.denominator = denominator;\r\n    }\r\n    function getOptionsPrice(uint256 currentPrice, uint256 strikePrice, uint256 expiration,uint32 underlying,uint8 optType)public view returns (uint256){\r\n        (uint256 ivNumerator,uint256 ivDenominator) = _volatility.calculateIv(underlying,optType,expiration,currentPrice,strikePrice);\r\n        Fraction.fractionNumber memory _iv = Fraction.fractionNumber(int256(ivNumerator),int256(ivDenominator));\r\n        if (optType == 0) {\r\n            return callOptionsPrice(currentPrice,strikePrice,expiration,rate,_iv);\r\n        }else{\r\n            return putOptionsPrice(currentPrice,strikePrice,expiration,rate,_iv);\r\n        }\r\n    }\r\n    function getOptionsPrice_iv(uint256 currentPrice, uint256 strikePrice, uint256 expiration,\r\n            uint256 ivNumerator,uint256 ivDenominator,uint8 optType)public view returns (uint256){\r\n        Fraction.fractionNumber memory _iv = Fraction.fractionNumber(int256(ivNumerator),int256(ivDenominator));\r\n        if (optType == 0) {\r\n            return callOptionsPrice(currentPrice,strikePrice,expiration,rate,_iv);\r\n        }else{\r\n            return putOptionsPrice(currentPrice,strikePrice,expiration,rate,_iv);\r\n        }\r\n    }\r\n    function calculateD1D2(uint256 currentPrice, uint256 strikePrice, uint256 expiration,\r\n         Fraction.fractionNumber memory r, Fraction.fractionNumber memory derta) \r\n            internal pure returns (Fraction.fractionNumber, Fraction.fractionNumber) {\r\n        Fraction.fractionNumber memory d1 = Fraction.fractionNumber(0,1);\r\n        if (currentPrice != strikePrice){\r\n            Fraction.fractionNumber memory lns = Fraction.ln(currentPrice);\r\n            Fraction.fractionNumber memory lnl = Fraction.ln(strikePrice);\r\n            d1 = lns.sub(lnl);\r\n        }\r\n        Fraction.fractionNumber memory derta2 = derta.mul(derta);\r\n        derta2 = derta2.mul(Fraction.fractionNumber(1,2));\r\n        derta2 = derta2.add(r);\r\n        derta2 = derta2.mul(Fraction.fractionNumber(int256(expiration),int256(Year)));\r\n        d1 = d1.add(derta2);\r\n        derta2 = Fraction.fractionNumber(int256(expiration*1e10),int256(Year*1e10)).sqrt().mul(derta);\r\n        d1 = d1.div(derta2);\r\n        Fraction.fractionNumber memory d2 = d1.sub(derta2);\r\n        return (d1, d2);\r\n    }\r\n\r\n    //L*pow(e,-rT)*(1-N(d2)) - S*(1-N(d1))\r\n    function putOptionsPrice(uint256 currentPrice, uint256 strikePrice, uint256 expiration,\r\n            Fraction.fractionNumber memory r, Fraction.fractionNumber memory derta) \r\n                internal pure returns (uint256) {\r\n       (Fraction.fractionNumber memory d1, Fraction.fractionNumber memory d2) = calculateD1D2(currentPrice, strikePrice, expiration, r, derta);\r\n        d1 = d1.normsDist();\r\n        d2 = d2.normsDist();\r\n        d1 = Fraction.fractionNumber(1,1).sub(d1);\r\n        d2 = Fraction.fractionNumber(1,1).sub(d2);\r\n        d1 = d1.mul(Fraction.fractionNumber(int256(currentPrice),1));\r\n        d2 = d2.mul(Fraction.fractionNumber(int256(strikePrice),1));\r\n        Fraction.fractionNumber memory rt = r.mul(Fraction.fractionNumber(int256(expiration),int256(Year)));\r\n        rt = rt.exp().invert();\r\n        Fraction.fractionNumber memory price = d2.mul(rt);\r\n        price = price.sub(d1);\r\n        return uint256(price.numerator/price.denominator);\r\n    }\r\n\r\n    /*\r\n        r := FloatNum{\r\n            big.NewInt(5),\r\n            big.NewInt(1000)}\r\n    */\r\n    //S*N(d1)-L*pow(e,-rT)*N(d2)\r\n    function callOptionsPrice(uint256 currentPrice, uint256 strikePrice, uint256 expiration,\r\n            Fraction.fractionNumber memory r, Fraction.fractionNumber memory derta) \r\n                internal pure returns (uint256) {\r\n       (Fraction.fractionNumber memory d1, Fraction.fractionNumber memory d2) = calculateD1D2(currentPrice, strikePrice, expiration, r, derta);\r\n        d1 = d1.normsDist();\r\n        d2 = d2.normsDist();\r\n        d1 = d1.mul(Fraction.fractionNumber(int256(currentPrice),1));\r\n        d2 = d2.mul(Fraction.fractionNumber(int256(strikePrice),1));\r\n        Fraction.fractionNumber memory rt = r.mul(Fraction.fractionNumber(int256(expiration),int256(Year)));\r\n        rt = rt.exp().invert();\r\n        Fraction.fractionNumber memory price = d2.mul(rt);\r\n        price = d1.sub(price);\r\n        return uint256(price.numerator/price.denominator);\r\n    }\r\n}",
  "sourcePath": "C:\\work\\solidity\\FinnexusOptions_V2\\contracts\\optionsPrice.sol",
  "compiler": {
    "name": "solc",
    "version": "0.4.26+commit.4563c3fc.Emscripten.clang"
  },
  "schemaVersion": "3.1.0",
  "updatedAt": "2020-08-12T10:47:35.093Z",
  "devdoc": {
    "methods": {
      "isOwner()": {
        "details": "Returns true if the caller is the current owner."
      },
      "owner()": {
        "details": "Returns the address of the current owner."
      },
      "renounceOwnership()": {
        "details": "Leaves the contract without owner. It will not be possible to call `onlyOwner` functions anymore. Can only be called by the current owner.     * NOTE: Renouncing ownership will leave the contract without an owner, thereby removing any functionality that is only available to the owner."
      },
      "transferOwnership(address)": {
        "details": "Transfers ownership of the contract to a new account (`newOwner`). Can only be called by the current owner."
      }
    }
  },
  "userdoc": {
    "methods": {}
  }
}