{
  "contractName": "OptionsPool",
  "abi": [
    {
      "constant": true,
      "inputs": [
        {
          "name": "from",
          "type": "uint256"
        },
        {
          "name": "size",
          "type": "uint256"
        }
      ],
      "name": "getOptionInfoList",
      "outputs": [
        {
          "name": "",
          "type": "address[]"
        },
        {
          "name": "",
          "type": "uint256[]"
        },
        {
          "name": "",
          "type": "uint256[]"
        },
        {
          "name": "",
          "type": "uint256[]"
        },
        {
          "name": "",
          "type": "uint256[]"
        }
      ],
      "payable": false,
      "stateMutability": "view",
      "type": "function"
    },
    {
      "constant": true,
      "inputs": [],
      "name": "sharedPhase",
      "outputs": [
        {
          "name": "",
          "type": "uint32"
        }
      ],
      "payable": false,
      "stateMutability": "view",
      "type": "function"
    },
    {
      "constant": false,
      "inputs": [
        {
          "name": "volatility",
          "type": "address"
        }
      ],
      "name": "setVolatilityAddress",
      "outputs": [],
      "payable": false,
      "stateMutability": "nonpayable",
      "type": "function"
    },
    {
      "constant": true,
      "inputs": [
        {
          "name": "ids",
          "type": "uint256[]"
        }
      ],
      "name": "getOptionInfoListFromID",
      "outputs": [
        {
          "name": "",
          "type": "address[]"
        },
        {
          "name": "",
          "type": "uint256[]"
        },
        {
          "name": "",
          "type": "uint256[]"
        },
        {
          "name": "",
          "type": "uint256[]"
        },
        {
          "name": "",
          "type": "uint256[]"
        }
      ],
      "payable": false,
      "stateMutability": "view",
      "type": "function"
    },
    {
      "constant": true,
      "inputs": [],
      "name": "getUnderlyingAssets",
      "outputs": [
        {
          "name": "",
          "type": "uint32[]"
        }
      ],
      "payable": false,
      "stateMutability": "view",
      "type": "function"
    },
    {
      "constant": true,
      "inputs": [
        {
          "name": "expiration",
          "type": "uint256"
        },
        {
          "name": "underlying",
          "type": "uint32"
        }
      ],
      "name": "buyOptionCheck",
      "outputs": [],
      "payable": false,
      "stateMutability": "view",
      "type": "function"
    },
    {
      "constant": true,
      "inputs": [
        {
          "name": "",
          "type": "uint256"
        }
      ],
      "name": "expirationList",
      "outputs": [
        {
          "name": "",
          "type": "uint256"
        }
      ],
      "payable": false,
      "stateMutability": "view",
      "type": "function"
    },
    {
      "constant": true,
      "inputs": [
        {
          "name": "",
          "type": "uint256"
        }
      ],
      "name": "underlyingAssets",
      "outputs": [
        {
          "name": "",
          "type": "uint32"
        }
      ],
      "payable": false,
      "stateMutability": "view",
      "type": "function"
    },
    {
      "constant": true,
      "inputs": [],
      "name": "getVolatilityAddress",
      "outputs": [
        {
          "name": "",
          "type": "address"
        }
      ],
      "payable": false,
      "stateMutability": "view",
      "type": "function"
    },
    {
      "constant": true,
      "inputs": [],
      "name": "getLatestOption",
      "outputs": [
        {
          "name": "",
          "type": "uint256"
        },
        {
          "name": "",
          "type": "address"
        },
        {
          "name": "",
          "type": "uint8"
        },
        {
          "name": "",
          "type": "uint32"
        },
        {
          "name": "",
          "type": "uint256"
        },
        {
          "name": "",
          "type": "uint256"
        },
        {
          "name": "",
          "type": "uint256"
        }
      ],
      "payable": false,
      "stateMutability": "view",
      "type": "function"
    },
    {
      "constant": true,
      "inputs": [
        {
          "name": "optionsId",
          "type": "uint256"
        }
      ],
      "name": "getOptionsById",
      "outputs": [
        {
          "name": "",
          "type": "uint256"
        },
        {
          "name": "",
          "type": "address"
        },
        {
          "name": "",
          "type": "uint8"
        },
        {
          "name": "",
          "type": "uint32"
        },
        {
          "name": "",
          "type": "uint256"
        },
        {
          "name": "",
          "type": "uint256"
        },
        {
          "name": "",
          "type": "uint256"
        }
      ],
      "payable": false,
      "stateMutability": "view",
      "type": "function"
    },
    {
      "constant": false,
      "inputs": [
        {
          "name": "oracle",
          "type": "address"
        }
      ],
      "name": "setOracleAddress",
      "outputs": [],
      "payable": false,
      "stateMutability": "nonpayable",
      "type": "function"
    },
    {
      "constant": true,
      "inputs": [
        {
          "name": "",
          "type": "address"
        },
        {
          "name": "",
          "type": "uint256"
        }
      ],
      "name": "optionsBalances",
      "outputs": [
        {
          "name": "",
          "type": "uint256"
        }
      ],
      "payable": false,
      "stateMutability": "view",
      "type": "function"
    },
    {
      "constant": true,
      "inputs": [],
      "name": "getOptionsPriceAddress",
      "outputs": [
        {
          "name": "",
          "type": "address"
        }
      ],
      "payable": false,
      "stateMutability": "view",
      "type": "function"
    },
    {
      "constant": true,
      "inputs": [
        {
          "name": "optionsId",
          "type": "uint256"
        },
        {
          "name": "amount",
          "type": "uint256"
        }
      ],
      "name": "getExerciseWorth",
      "outputs": [
        {
          "name": "",
          "type": "uint256"
        }
      ],
      "payable": false,
      "stateMutability": "view",
      "type": "function"
    },
    {
      "constant": false,
      "inputs": [],
      "name": "renounceOwnership",
      "outputs": [],
      "payable": false,
      "stateMutability": "nonpayable",
      "type": "function"
    },
    {
      "constant": true,
      "inputs": [
        {
          "name": "expiration",
          "type": "uint256"
        }
      ],
      "name": "checkExpiration",
      "outputs": [],
      "payable": false,
      "stateMutability": "view",
      "type": "function"
    },
    {
      "constant": false,
      "inputs": [
        {
          "name": "expiration",
          "type": "uint256"
        }
      ],
      "name": "addExpiration",
      "outputs": [],
      "payable": false,
      "stateMutability": "nonpayable",
      "type": "function"
    },
    {
      "constant": false,
      "inputs": [
        {
          "name": "removeExpiration",
          "type": "uint256"
        }
      ],
      "name": "removeExpirationList",
      "outputs": [
        {
          "name": "",
          "type": "bool"
        }
      ],
      "payable": false,
      "stateMutability": "nonpayable",
      "type": "function"
    },
    {
      "constant": true,
      "inputs": [],
      "name": "owner",
      "outputs": [
        {
          "name": "",
          "type": "address"
        }
      ],
      "payable": false,
      "stateMutability": "view",
      "type": "function"
    },
    {
      "constant": true,
      "inputs": [
        {
          "name": "",
          "type": "uint256"
        }
      ],
      "name": "allOptions",
      "outputs": [
        {
          "name": "optionID",
          "type": "uint64"
        },
        {
          "name": "owner",
          "type": "address"
        },
        {
          "name": "optType",
          "type": "uint8"
        },
        {
          "name": "underlying",
          "type": "uint32"
        },
        {
          "name": "expiration",
          "type": "uint256"
        },
        {
          "name": "strikePrice",
          "type": "uint256"
        },
        {
          "name": "amount",
          "type": "uint256"
        }
      ],
      "payable": false,
      "stateMutability": "view",
      "type": "function"
    },
    {
      "constant": true,
      "inputs": [],
      "name": "isOwner",
      "outputs": [
        {
          "name": "",
          "type": "bool"
        }
      ],
      "payable": false,
      "stateMutability": "view",
      "type": "function"
    },
    {
      "constant": true,
      "inputs": [],
      "name": "getExpirationList",
      "outputs": [
        {
          "name": "",
          "type": "uint256[]"
        }
      ],
      "payable": false,
      "stateMutability": "view",
      "type": "function"
    },
    {
      "constant": false,
      "inputs": [
        {
          "name": "from",
          "type": "address"
        },
        {
          "name": "settlement",
          "type": "address"
        },
        {
          "name": "type_ly_exp",
          "type": "uint256"
        },
        {
          "name": "strikePrice",
          "type": "uint256"
        },
        {
          "name": "underlyingPrice",
          "type": "uint256"
        },
        {
          "name": "amount",
          "type": "uint256"
        }
      ],
      "name": "createOptions",
      "outputs": [],
      "payable": false,
      "stateMutability": "nonpayable",
      "type": "function"
    },
    {
      "constant": true,
      "inputs": [
        {
          "name": "expiration",
          "type": "uint256"
        }
      ],
      "name": "isEligibleExpiration",
      "outputs": [
        {
          "name": "",
          "type": "bool"
        }
      ],
      "payable": false,
      "stateMutability": "view",
      "type": "function"
    },
    {
      "constant": false,
      "inputs": [
        {
          "name": "optionsPrice",
          "type": "address"
        }
      ],
      "name": "setOptionsPriceAddress",
      "outputs": [],
      "payable": false,
      "stateMutability": "nonpayable",
      "type": "function"
    },
    {
      "constant": false,
      "inputs": [
        {
          "name": "underlying",
          "type": "uint32"
        }
      ],
      "name": "addUnderlyingAsset",
      "outputs": [],
      "payable": false,
      "stateMutability": "nonpayable",
      "type": "function"
    },
    {
      "constant": true,
      "inputs": [],
      "name": "getOracleAddress",
      "outputs": [
        {
          "name": "",
          "type": "address"
        }
      ],
      "payable": false,
      "stateMutability": "view",
      "type": "function"
    },
    {
      "constant": false,
      "inputs": [
        {
          "name": "operator",
          "type": "address"
        }
      ],
      "name": "setOperator",
      "outputs": [],
      "payable": false,
      "stateMutability": "nonpayable",
      "type": "function"
    },
    {
      "constant": true,
      "inputs": [],
      "name": "getOptionInfoLength",
      "outputs": [
        {
          "name": "",
          "type": "uint256"
        }
      ],
      "payable": false,
      "stateMutability": "view",
      "type": "function"
    },
    {
      "constant": true,
      "inputs": [],
      "name": "optionPhase",
      "outputs": [
        {
          "name": "",
          "type": "uint32"
        }
      ],
      "payable": false,
      "stateMutability": "view",
      "type": "function"
    },
    {
      "constant": false,
      "inputs": [
        {
          "name": "managerAddress",
          "type": "address"
        }
      ],
      "name": "setManager",
      "outputs": [],
      "payable": false,
      "stateMutability": "nonpayable",
      "type": "function"
    },
    {
      "constant": true,
      "inputs": [],
      "name": "getManager",
      "outputs": [
        {
          "name": "",
          "type": "address"
        }
      ],
      "payable": false,
      "stateMutability": "view",
      "type": "function"
    },
    {
      "constant": false,
      "inputs": [
        {
          "name": "removeUnderlying",
          "type": "uint32"
        }
      ],
      "name": "removeUnderlyingAssets",
      "outputs": [
        {
          "name": "",
          "type": "bool"
        }
      ],
      "payable": false,
      "stateMutability": "nonpayable",
      "type": "function"
    },
    {
      "constant": true,
      "inputs": [
        {
          "name": "underlying",
          "type": "uint32"
        }
      ],
      "name": "isEligibleUnderlyingAsset",
      "outputs": [
        {
          "name": "",
          "type": "bool"
        }
      ],
      "payable": false,
      "stateMutability": "view",
      "type": "function"
    },
    {
      "constant": true,
      "inputs": [
        {
          "name": "user",
          "type": "address"
        }
      ],
      "name": "getUserOptionsID",
      "outputs": [
        {
          "name": "",
          "type": "uint256[]"
        }
      ],
      "payable": false,
      "stateMutability": "view",
      "type": "function"
    },
    {
      "constant": true,
      "inputs": [],
      "name": "getOperator",
      "outputs": [
        {
          "name": "",
          "type": "address"
        }
      ],
      "payable": false,
      "stateMutability": "view",
      "type": "function"
    },
    {
      "constant": true,
      "inputs": [
        {
          "name": "underlying",
          "type": "uint32"
        }
      ],
      "name": "checkUnderlyingAsset",
      "outputs": [],
      "payable": false,
      "stateMutability": "view",
      "type": "function"
    },
    {
      "constant": false,
      "inputs": [
        {
          "name": "newOwner",
          "type": "address"
        }
      ],
      "name": "transferOwnership",
      "outputs": [],
      "payable": false,
      "stateMutability": "nonpayable",
      "type": "function"
    },
    {
      "inputs": [
        {
          "name": "oracleAddr",
          "type": "address"
        },
        {
          "name": "optionsPriceAddr",
          "type": "address"
        },
        {
          "name": "ivAddress",
          "type": "address"
        }
      ],
      "payable": false,
      "stateMutability": "nonpayable",
      "type": "constructor"
    },
    {
      "anonymous": false,
      "inputs": [
        {
          "indexed": true,
          "name": "owner",
          "type": "address"
        },
        {
          "indexed": true,
          "name": "optionID",
          "type": "uint256"
        },
        {
          "indexed": false,
          "name": "optType",
          "type": "uint8"
        },
        {
          "indexed": false,
          "name": "underlying",
          "type": "uint32"
        },
        {
          "indexed": false,
          "name": "expiration",
          "type": "uint256"
        },
        {
          "indexed": false,
          "name": "strikePrice",
          "type": "uint256"
        },
        {
          "indexed": false,
          "name": "amount",
          "type": "uint256"
        }
      ],
      "name": "CreateOption",
      "type": "event"
    },
    {
      "anonymous": false,
      "inputs": [
        {
          "indexed": true,
          "name": "owner",
          "type": "address"
        },
        {
          "indexed": true,
          "name": "optionID",
          "type": "uint256"
        },
        {
          "indexed": false,
          "name": "amount",
          "type": "uint256"
        }
      ],
      "name": "BurnOption",
      "type": "event"
    },
    {
      "anonymous": false,
      "inputs": [
        {
          "indexed": false,
          "name": "value1",
          "type": "uint256"
        },
        {
          "indexed": false,
          "name": "value2",
          "type": "uint256"
        },
        {
          "indexed": false,
          "name": "value3",
          "type": "uint256"
        }
      ],
      "name": "DebugEvent",
      "type": "event"
    },
    {
      "anonymous": false,
      "inputs": [
        {
          "indexed": true,
          "name": "previousOwner",
          "type": "address"
        },
        {
          "indexed": true,
          "name": "newOwner",
          "type": "address"
        }
      ],
      "name": "OwnershipTransferred",
      "type": "event"
    },
    {
      "constant": true,
      "inputs": [],
      "name": "getOptionCalRangeAll",
      "outputs": [
        {
          "name": "",
          "type": "uint256"
        },
        {
          "name": "",
          "type": "uint256"
        },
        {
          "name": "",
          "type": "uint256"
        },
        {
          "name": "",
          "type": "uint256"
        },
        {
          "name": "",
          "type": "uint256"
        },
        {
          "name": "",
          "type": "uint256"
        }
      ],
      "payable": false,
      "stateMutability": "view",
      "type": "function"
    },
    {
      "constant": true,
      "inputs": [],
      "name": "getOptionPhaseCalRange",
      "outputs": [
        {
          "name": "",
          "type": "uint256"
        },
        {
          "name": "",
          "type": "uint256"
        },
        {
          "name": "",
          "type": "uint256"
        }
      ],
      "payable": false,
      "stateMutability": "view",
      "type": "function"
    },
    {
      "constant": true,
      "inputs": [],
      "name": "getsharedPhaseCalRange",
      "outputs": [
        {
          "name": "",
          "type": "uint256"
        },
        {
          "name": "",
          "type": "uint256"
        },
        {
          "name": "",
          "type": "uint256"
        },
        {
          "name": "",
          "type": "uint256"
        }
      ],
      "payable": false,
      "stateMutability": "view",
      "type": "function"
    },
    {
      "constant": true,
      "inputs": [
        {
          "name": "index",
          "type": "uint256"
        }
      ],
      "name": "getsharedPhaseCalInfo",
      "outputs": [
        {
          "name": "",
          "type": "uint256"
        },
        {
          "name": "",
          "type": "uint256[]"
        }
      ],
      "payable": false,
      "stateMutability": "view",
      "type": "function"
    },
    {
      "constant": false,
      "inputs": [
        {
          "name": "calInfo",
          "type": "uint256"
        }
      ],
      "name": "setPhaseOccupiedCollateral",
      "outputs": [],
      "payable": false,
      "stateMutability": "nonpayable",
      "type": "function"
    },
    {
      "constant": false,
      "inputs": [
        {
          "name": "calInfo",
          "type": "uint256"
        },
        {
          "name": "totalOccupied",
          "type": "uint256"
        },
        {
          "name": "beginOption",
          "type": "uint256"
        }
      ],
      "name": "setCollateralPhase",
      "outputs": [],
      "payable": false,
      "stateMutability": "nonpayable",
      "type": "function"
    },
    {
      "constant": true,
      "inputs": [
        {
          "name": "calInfo",
          "type": "uint256"
        }
      ],
      "name": "calculatePhaseOccupiedCollateral",
      "outputs": [
        {
          "name": "",
          "type": "uint256"
        },
        {
          "name": "",
          "type": "uint256"
        },
        {
          "name": "",
          "type": "bool"
        }
      ],
      "payable": false,
      "stateMutability": "view",
      "type": "function"
    },
    {
      "constant": false,
      "inputs": [
        {
          "name": "calInfo",
          "type": "uint256"
        },
        {
          "name": "firstOption",
          "type": "uint256"
        },
        {
          "name": "prices",
          "type": "uint256[]"
        },
        {
          "name": "calTime",
          "type": "uint256"
        }
      ],
      "name": "setSharedState",
      "outputs": [],
      "payable": false,
      "stateMutability": "nonpayable",
      "type": "function"
    },
    {
      "constant": true,
      "inputs": [
        {
          "name": "calInfo",
          "type": "uint256"
        },
        {
          "name": "whiteList",
          "type": "address[]"
        }
      ],
      "name": "calculatePhaseSharedPayment",
      "outputs": [
        {
          "name": "",
          "type": "uint256[]"
        },
        {
          "name": "",
          "type": "uint256"
        },
        {
          "name": "",
          "type": "bool"
        }
      ],
      "payable": false,
      "stateMutability": "view",
      "type": "function"
    },
    {
      "constant": true,
      "inputs": [
        {
          "name": "calInfo",
          "type": "uint256"
        },
        {
          "name": "begin",
          "type": "uint256"
        },
        {
          "name": "end",
          "type": "uint256"
        },
        {
          "name": "whiteList",
          "type": "address[]"
        }
      ],
      "name": "calRangeSharedPayment",
      "outputs": [
        {
          "name": "",
          "type": "uint256[]"
        },
        {
          "name": "",
          "type": "uint256"
        },
        {
          "name": "",
          "type": "bool"
        }
      ],
      "payable": false,
      "stateMutability": "view",
      "type": "function"
    },
    {
      "constant": true,
      "inputs": [
        {
          "name": "calInfo",
          "type": "uint256"
        },
        {
          "name": "whiteList",
          "type": "address[]"
        }
      ],
      "name": "calculatePhaseOptionsFall",
      "outputs": [
        {
          "name": "",
          "type": "int256[]"
        },
        {
          "name": "",
          "type": "uint256[]"
        }
      ],
      "payable": false,
      "stateMutability": "view",
      "type": "function"
    },
    {
      "constant": true,
      "inputs": [],
      "name": "getTotalOccupiedCollateral",
      "outputs": [
        {
          "name": "",
          "type": "uint256"
        }
      ],
      "payable": false,
      "stateMutability": "view",
      "type": "function"
    },
    {
      "constant": false,
      "inputs": [
        {
          "name": "from",
          "type": "address"
        },
        {
          "name": "id",
          "type": "uint256"
        },
        {
          "name": "amount",
          "type": "uint256"
        }
      ],
      "name": "burnOptions",
      "outputs": [],
      "payable": false,
      "stateMutability": "nonpayable",
      "type": "function"
    }
  ],
  "bytecode": "0x6080604052600a8054750190000000000000000000000000000000000000000060a060020a63ffffffff02199091161790556011805463ffffffff19166101901790553480156200004f57600080fd5b5060405160608062004df283398101604081815282516020840151919093015160008054600160a060020a031916331780825592939192859285928592600160a060020a0316917f8be0079c531659141344cd1fd0a4f28419497f9722a3daafe3b4186f6b6457e0908290a3620000cf8364010000000062000181810204565b620000e38264010000000062000213810204565b620000f781640100000000620002a5810204565b6040805160e0810182526201518081526203f480602082015262093a8091810191909152620d2f0060608201526213c680608082015262278d0060a08201526276a70060c08201526200014f90600990600762000349565b50604080518082019091526001808252600260208301819052620001749290620003a0565b5050505050505062000490565b6200019464010000000062000337810204565b1515620001f157604080517f08c379a0000000000000000000000000000000000000000000000000000000008152602060048201819052602482015260008051602062004dd2833981519152604482015290519081900360640190fd5b60038054600160a060020a031916600160a060020a0392909216919091179055565b6200022664010000000062000337810204565b15156200028357604080517f08c379a0000000000000000000000000000000000000000000000000000000008152602060048201819052602482015260008051602062004dd2833981519152604482015290519081900360640190fd5b60048054600160a060020a031916600160a060020a0392909216919091179055565b620002b864010000000062000337810204565b15156200031557604080517f08c379a0000000000000000000000000000000000000000000000000000000008152602060048201819052602482015260008051602062004dd2833981519152604482015290519081900360640190fd5b60058054600160a060020a031916600160a060020a0392909216919091179055565b600054600160a060020a031633145b90565b8280548282559060005260206000209081019282156200038e579160200282015b828111156200038e578251829062ffffff169055916020019190600101906200036a565b506200039c9291506200044f565b5090565b82805482825590600052602060002090600701600890048101928215620004415791602002820160005b838211156200040d57835183826101000a81548163ffffffff021916908360ff1602179055509260200192600401602081600301049283019260010302620003ca565b80156200043f5782816101000a81549063ffffffff02191690556004016020816003010492830192600103026200040d565b505b506200039c9291506200046c565b6200034691905b808211156200039c576000815560010162000456565b6200034691905b808211156200039c57805463ffffffff1916815560010162000473565b61493280620004a06000396000f3006080604052600436106102585763ffffffff60e060020a6000350416630438d490811461025d57806316f35a7f146103e05780632967eafe1461040e57806332ab5c2014610431578063354af360146104fb5780633582d789146105505780633ad2fb57146105b55780633ad98099146105d65780633b50c4d11461060057806342e5479d1461061857806344244d271461064957806345e19fdd1461069157806348ee201d146106ed5780634c69c00f1461070557806355c47cb2146107265780635ca4b73b1461074a57806367b8ceb91461075f578063715018a61461077a578063723931ca1461078f57806373a3d424146107a757806374e85fd2146107bc5780637cfff2d8146107e35780637e838fa3146107fb5780638da5cb5b146108275780638ea745b81461083c5780638f32d59b146108a65780638ff239e6146108bb5780639052d5f81461091b578063924a69ce1461093057806397a918e91461096357806398dae828146109d657806399deae0a14610a095780639ef975d214610a41578063a093e2d014610a59578063af70df1214610a7a578063afec82fc14610ad4578063b18b78dd14610af2578063b3ab15fb14610b07578063b452bc0414610b28578063b8a5b7fa14610b46578063bec3107f14610b5e578063c27b7dfb14610b73578063d0ebdbe714610b88578063d500958414610ba9578063d6d1401214610bbe578063db6ad2bd14610bdc578063e5081c4014610bfa578063e7c5681514610cd6578063e7f43c6814610cf7578063ee29c94a14610d0c578063f2fde38b14610d2a578063fa1cf1f014610d4b575b600080fd5b34801561026957600080fd5b50610278600435602435610d86565b60405180806020018060200180602001806020018060200186810386528b818151815260200191508051906020019060200280838360005b838110156102c85781810151838201526020016102b0565b5050505090500186810385528a818151815260200191508051906020019060200280838360005b838110156103075781810151838201526020016102ef565b50505050905001868103845289818151815260200191508051906020019060200280838360005b8381101561034657818101518382015260200161032e565b50505050905001868103835288818151815260200191508051906020019060200280838360005b8381101561038557818101518382015260200161036d565b50505050905001868103825287818151815260200191508051906020019060200280838360005b838110156103c45781810151838201526020016103ac565b505050509050019a505050505050505050505060405180910390f35b3480156103ec57600080fd5b506103f5610fd3565b6040805163ffffffff9092168252519081900360200190f35b34801561041a57600080fd5b5061042f600160a060020a0360043516610fdf565b005b34801561043d57600080fd5b50604080516064356004818101356020818102858101820190965281855261049595833595602480359660443596369690956084959290930192909182918501908490808284375094975061104d9650505050505050565b604051808060200184815260200183151515158152602001828103825285818151815260200191508051906020019060200280838360005b838110156104e55781810151838201526020016104cd565b5050505090500194505050505060405180910390f35b34801561050757600080fd5b5060408051602060048035808201358381028086018501909652808552610278953695939460249493850192918291850190849080828437509497506110eb9650505050505050565b34801561055c57600080fd5b50610565611302565b60408051602080825283518183015283519192839290830191858101910280838360005b838110156105a1578181015183820152602001610589565b505050509050019250505060405180910390f35b3480156105c157600080fd5b5061042f60043563ffffffff60243516611387565b3480156105e257600080fd5b506105ee6004356113f3565b60408051918252519081900360200190f35b34801561060c57600080fd5b506103f5600435611412565b34801561062457600080fd5b5061062d61144a565b60408051600160a060020a039092168252519081900360200190f35b34801561065557600080fd5b5061065e611459565b604080519687526020870195909552858501939093526060850191909152608084015260a0830152519081900360c00190f35b34801561069d57600080fd5b506106a661146d565b60408051978852600160a060020a03909616602088015260ff9094168686015263ffffffff9092166060860152608085015260a084015260c0830152519081900360e00190f35b3480156106f957600080fd5b506106a6600435611553565b34801561071157600080fd5b5061042f600160a060020a03600435166115c2565b34801561073257600080fd5b506105ee600160a060020a0360043516602435611630565b34801561075657600080fd5b5061062d611660565b34801561076b57600080fd5b506105ee60043560243561166f565b34801561078657600080fd5b5061042f6117ea565b34801561079b57600080fd5b5061042f600435611880565b3480156107b357600080fd5b506105ee611908565b3480156107c857600080fd5b5061042f600160a060020a0360043516602435604435611ba6565b3480156107ef57600080fd5b5061042f600435611e3f565b34801561080757600080fd5b50610813600435611e96565b604080519115158252519081900360200190f35b34801561083357600080fd5b5061062d611ef5565b34801561084857600080fd5b50610854600435611f04565b6040805167ffffffffffffffff9098168852600160a060020a03909616602088015260ff9094168686015263ffffffff9092166060860152608085015260a084015260c0830152519081900360e00190f35b3480156108b257600080fd5b50610813611f70565b3480156108c757600080fd5b50604080516020600460443581810135838102808601850190965280855261042f9583359560248035963696956064959394920192918291850190849080828437509497505093359450611f819350505050565b34801561092757600080fd5b506105656120ac565b34801561093c57600080fd5b5061042f600160a060020a036004358116906024351660443560643560843560a435612103565b34801561096f57600080fd5b5061097b600435612434565b6040518083815260200180602001828103825283818151815260200191508051906020019060200280838360005b838110156109c15781810151838201526020016109a9565b50505050905001935050505060405180910390f35b3480156109e257600080fd5b506109eb6124a7565b60408051938452602084019290925282820152519081900360600190f35b348015610a1557600080fd5b50610a216004356124b7565b604080519384526020840192909252151582820152519081900360600190f35b348015610a4d57600080fd5b50610813600435612591565b348015610a6557600080fd5b5061042f600160a060020a03600435166125ed565b348015610a8657600080fd5b506040805160206004602480358281013584810280870186019097528086526104959684359636966044959194909101929182918501908490808284375094975061265b9650505050505050565b348015610ae057600080fd5b5061042f63ffffffff600435166126b2565b348015610afe57600080fd5b5061062d612709565b348015610b1357600080fd5b5061042f600160a060020a0360043516612718565b348015610b3457600080fd5b5061042f600435602435604435612786565b348015610b5257600080fd5b5061042f600435612886565b348015610b6a57600080fd5b506105ee61293b565b348015610b7f57600080fd5b506103f5612941565b348015610b9457600080fd5b5061042f600160a060020a0360043516612954565b348015610bb557600080fd5b5061062d6129c2565b348015610bca57600080fd5b5061081363ffffffff600435166129d1565b348015610be857600080fd5b5061081363ffffffff60043516612a2a565b348015610c0657600080fd5b50604080516020600460248035828101358481028087018601909752808652610c5496843596369660449591949091019291829185019084908082843750949750612ab29650505050505050565b604051808060200180602001838103835285818151815260200191508051906020019060200280838360005b83811015610c98578181015183820152602001610c80565b5050505090500183810382528481815181526020019150805190602001906020028083836000838110156104e55781810151838201526020016104cd565b348015610ce257600080fd5b50610565600160a060020a0360043516612c79565b348015610d0357600080fd5b5061062d612ce5565b348015610d1857600080fd5b5061042f63ffffffff60043516612cf4565b348015610d3657600080fd5b5061042f600160a060020a0360043516612d7a565b348015610d5757600080fd5b50610d60612dcf565b604080519485526020850193909352838301919091526060830152519081900360800190f35b6060806060806060806060806060806000806006805490508d8f011115610dbd57600654610dba908f63ffffffff612de116565b9c505b60008d1115610fc2578c604051908082528060200260200182016040528015610df0578160200160208202803883390190505b5096508c604051908082528060200260200182016040528015610e1d578160200160208202803883390190505b5095508c604051908082528060200260200182016040528015610e4a578160200160208202803883390190505b5094508c604051908082528060200260200182016040528015610e77578160200160208202803883390190505b5093508c604051908082528060200260200182016040528015610ea4578160200160208202803883390190505b509250600091505b8c821015610fb257600680548f8401908110610ec457fe5b906000526020600020906005020190508060000160089054906101000a9004600160a060020a03168783815181101515610efa57fe5b600160a060020a03909216602092830290910190910152805460018201548751601060ff60e060020a90940484160190921660020a63ffffffff918216021690879084908110610f4657fe5b6020908102909101015260028101548551869084908110610f6357fe5b6020908102909101015260038101548451859084908110610f8057fe5b6020908102909101015260048101548351849084908110610f9d57fe5b60209081029091010152600190910190610eac565b86868686869b509b509b509b509b505b505050505050509295509295909350565b60115463ffffffff1681565b610fe7611f70565b151561102b576040805160e560020a62461bcd02815260206004820181905260248201526000805160206148e7833981519152604482015290519081900360640190fd5b60058054600160a060020a031916600160a060020a0392909216919091179055565b60606000806060600061105f89612e2a565b8810158061106e575060125487105b15611084579093506000925082915083906110df565b61108d89612e2a565b8711156110a05761109d89612e2a565b96505b6110d08888601560006110b28e612e3e565b8152602001908152602001600020546110ca8d612e4b565b8a612e6c565b91509150818160019450945094505b50509450945094915050565b6060806060806060600060608060608060606000808d5197508760405190808252806020026020018201604052801561112e578160200160208202803883390190505b5096508760405190808252806020026020018201604052801561115b578160200160208202803883390190505b50955087604051908082528060200260200182016040528015611188578160200160208202803883390190505b509450876040519080825280602002602001820160405280156111b5578160200160208202803883390190505b509350876040519080825280602002602001820160405280156111e2578160200160208202803883390190505b509250600091505b878210156112ee576112128e8381518110151561120357fe5b90602001906020020151613050565b80548851919250604060020a9004600160a060020a03169088908490811061123657fe5b600160a060020a03909216602092830290910190910152805460018201548751601060ff60e060020a90940484160190921660020a63ffffffff91821602169087908490811061128257fe5b602090810290910101526002810154855186908490811061129f57fe5b60209081029091010152600381015484518590849081106112bc57fe5b60209081029091010152600481015483518490849081106112d957fe5b602090810290910101526001909101906111ea565b50949c939b50919950975095509350505050565b6060600180548060200260200160405190810160405280929190818152602001828054801561137c57602002820191906000526020600020906000905b82829054906101000a900463ffffffff1663ffffffff168152602001906004019060208260030104928301926001038202915080841161133f5790505b505050505090505b90565b61139081612a2a565b15156113e6576040805160e560020a62461bcd02815260206004820152601f60248201527f756e6465726c79696e6720697320756e737570706f7274656420617373657400604482015290519081900360640190fd5b6113ef82611880565b5050565b600980548290811061140157fe5b600091825260209091200154905081565b600180548290811061142057fe5b9060005260206000209060089182820401919006600402915054906101000a900463ffffffff1681565b600554600160a060020a031690565b600b54600654601054919283929043904290565b600654600090819081908190819081908190818082116114d7576040805160e560020a62461bcd02815260206004820152601560248201527f6f7074696f6e73206c69737420697320656d7074790000000000000000000000604482015290519081900360640190fd5b6006805460001984019081106114e957fe5b60009182526020909120600590910201805460018201546002830154600384015460049094015467ffffffffffffffff84169e604060020a8504600160a060020a03169e5060e060020a90940460ff169c5063ffffffff9092169a50985091965090945092505050565b60008060008060008060008061156889613050565b805460018201546002830154600384015460049094015467ffffffffffffffff84169e604060020a8504600160a060020a03169e5060e060020a90940460ff169c5063ffffffff9092169a50985091965090945092505050565b6115ca611f70565b151561160e576040805160e560020a62461bcd02815260206004820181905260248201526000805160206148e7833981519152604482015290519081900360640190fd5b60038054600160a060020a031916600160a060020a0392909216919091179055565b60086020528160005260406000208181548110151561164b57fe5b90600052602060002001600091509150505481565b600454600160a060020a031690565b60006116796147a4565b60008061168586613050565b6040805160e081018252825467ffffffffffffffff81168252604060020a8104600160a060020a0316602083015260e060020a900460ff1691810191909152600182015463ffffffff16606082015260028201546080820152600382015460a082015260049091015460c082015292506116fe836130e0565b611708838661313b565b6003546060840151604080517fda66325700000000000000000000000000000000000000000000000000000000815263ffffffff909216600483015251600160a060020a039092169163da663257916024808201926020929091908290030181600087803b15801561177957600080fd5b505af115801561178d573d6000803e3d6000fd5b505050506040513d60208110156117a357600080fd5b5051604084015160a08501519193506117bc9184613197565b90508015156117ce57600093506117e1565b6117de818663ffffffff6131cc16565b93505b50505092915050565b6117f2611f70565b1515611836576040805160e560020a62461bcd02815260206004820181905260248201526000805160206148e7833981519152604482015290519081900360640190fd5b60008054604051600160a060020a03909116907f8be0079c531659141344cd1fd0a4f28419497f9722a3daafe3b4186f6b6457e0908390a360008054600160a060020a0319169055565b61188981612591565b1515611905576040805160e560020a62461bcd02815260206004820152602160248201527f65787069726174696f6e2076616c7565206973206e6f7420737570706f72746560448201527f6400000000000000000000000000000000000000000000000000000000000000606482015290519081900360840190fd5b50565b6000806060600080600080600061191d6147e0565b6000611927613276565b9850611931613305565b600654600c54919950975095505b86861015611a485761197860068781548110151561195957fe5b600091825260209091206001600590920201015463ffffffff1661341f565b9450611a3b611a2e60068881548110151561198f57fe5b60009182526020918290206040805160e081018252600593909302909101805467ffffffffffffffff81168452604060020a8104600160a060020a03169484019490945260e060020a90930460ff1690820152600182015463ffffffff16606082015260028201546080820152600382015460a082015260049091015460c08201528a518b9089908110611a1f57fe5b906020019060200201516134a7565b8a9063ffffffff6134e816565b985060019095019461193f565b601054600d5490945092505b83831015611b98576000838152600f6020526040908190208151808301928390529160029082845b815481526020019060010190808311611a7c575093955085935060009250611aa2915050565b6020020151600c54909150811015611b8d57611ac660068281548110151561195957fe5b9450611b8a611b7d600683815481101515611add57fe5b60009182526020918290206040805160e081018252600593909302909101805467ffffffffffffffff81168452604060020a8104600160a060020a03168486015260e060020a900460ff1691830191909152600181015463ffffffff16606083015260028101546080830152600381015460a08301526004015460c0820152908501518b518c908a908110611b6e57fe5b90602001906020020151613545565b8a9063ffffffff612de116565b98505b600190920191611a54565b509698975050505050505050565b600254600090600160a060020a03163314611c31576040805160e560020a62461bcd02815260206004820152602660248201527f4d616e6167657261626c653a2063616c6c6572206973206e6f7420746865204d60448201527f616e616765720000000000000000000000000000000000000000000000000000606482015290519081900360840190fd5b611c3a83613050565b6040805160e081018252825467ffffffffffffffff81168252604060020a8104600160a060020a0316602083015260e060020a900460ff1691810191909152600182015463ffffffff16606082015260028201546080820152600382015460a0820152600482015460c0820152909150611cb3906130e0565b6040805160e081018252825467ffffffffffffffff81168252604060020a8104600160a060020a0316602083015260e060020a900460ff1691810191909152600182015463ffffffff16606082015260028201546080820152600382015460a0820152600482015460c0820152611d2a9085613573565b6040805160e081018252825467ffffffffffffffff81168252604060020a8104600160a060020a0316602083015260e060020a900460ff1691810191909152600182015463ffffffff16606082015260028201546080820152600382015460a0820152600482015460c0820152611da1908361313b565b6004810154611db6908363ffffffff612de116565b60048201556040805180820182526000198501815260208082018590526010546000908152600f90915291909120611def9160026147fb565b506010805460010190556040805183815290518491600160a060020a038716917f1fb99acdc281bccbecb3d0073a307341181a8a7d3cd532fdaef5ce7200401c2d9181900360200190a350505050565b611e47611f70565b1515611e8b576040805160e560020a62461bcd02815260206004820181905260248201526000805160206148e7833981519152604482015290519081900360640190fd5b6119056009826135e2565b6000611ea0611f70565b1515611ee4576040805160e560020a62461bcd02815260206004820181905260248201526000805160206148e7833981519152604482015290519081900360640190fd5b611eef600983613659565b92915050565b600054600160a060020a031690565b6006805482908110611f1257fe5b60009182526020909120600590910201805460018201546002830154600384015460049094015467ffffffffffffffff84169550604060020a8404600160a060020a03169460e060020a90940460ff169363ffffffff909316929087565b600054600160a060020a0316331490565b600254600160a060020a03163314612009576040805160e560020a62461bcd02815260206004820152602660248201527f4d616e6167657261626c653a2063616c6c6572206973206e6f7420746865204d60448201527f616e616765720000000000000000000000000000000000000000000000000000606482015290519081900360840190fd5b6012548311156120195760128390555b61202284612e2a565b60115463ffffffff168061203587612e3e565b020111156120565761204684612e2a565b60135561205284612e4b565b6014555b806015600061206487612e3e565b815260200190815260200160002081905550816016600061208487612e3e565b815260200190815260200160002090805190602001906120a5929190614839565b5050505050565b6060600980548060200260200160405190810160405280929190818152602001828054801561137c57602002820191906000526020600020905b8154815260200190600101908083116120e6575050505050905090565b60008060006121106147a4565b600254600160a060020a03163314612198576040805160e560020a62461bcd02815260206004820152602660248201527f4d616e6167657261626c653a2063616c6c6572206973206e6f7420746865204d60448201527f616e616765720000000000000000000000000000000000000000000000000000606482015290519081900360840190fd5b60065493506121a688612e3e565b92506121b188612e2a565b9150600660e0604051908101604052808660010167ffffffffffffffff1681526020018c600160a060020a031681526020018560ff1681526020018463ffffffff168152602001426122028c612e4b565b01815260208082018b90526040918201899052835460018082018655600095865282862085516005909302018054868501518787015167ffffffffffffffff1990921667ffffffffffffffff909516949094177fffffffff0000000000000000000000000000000000000000ffffffffffffffff16604060020a600160a060020a0395861602177fffffff00ffffffffffffffffffffffffffffffffffffffffffffffffffffffff1660e060020a60ff909216919091021781556060860151818301805463ffffffff191663ffffffff9092169190911790556080860151600282015560a0860151600382015560c0909501516004909501949094558e16845260088152908320805480840182559084529220908601910155600680548590811061232957fe5b60009182526020918290206040805160e081018252600593909302909101805467ffffffffffffffff81168452604060020a8104600160a060020a03169484019490945260e060020a90930460ff1690820152600182015463ffffffff16606082015260028201546080820152600382015460a082015260049091015460c082015290506123b8818a88613706565b836001018a600160a060020a03167f18f523957030bee670136363e25b2f847bf1bd07bb7b33c6d5475936a9aac70d8585426123f38e612e4b565b6040805160ff909516855263ffffffff90931660208501520182820152606082018c9052608082018a9052519081900360a00190a350505050505050505050565b6000818152601560209081526040808320546016835281842080548351818602810186019094528084526060949293919283919083018282801561249757602002820191906000526020600020905b815481526020019060010190808311612483575b5050505050905091509150915091565b600b546006546010549192909190565b60008060008060008060006124f3600a60149054906101000a900463ffffffff1663ffffffff166124e78a612e3e565b9063ffffffff6131cc16565b93506124fe88612e2a565b84106125135760009650869550859450612586565b600a5461253290859063ffffffff60a060020a9091048116906134e816565b925061253d88612e2a565b8311156125545761254d88612e2a565b925061256d565b600b5483101561256d5760009650869550859450612586565b61257784846139c8565b91509150818160019650965096505b505050509193909250565b6000611eef60098054806020026020016040519081016040528092919081815260200182805480156125e257602002820191906000526020600020905b8154815260200190600101908083116125ce575b505050505083613b07565b6125f5611f70565b1515612639576040805160e560020a62461bcd02815260206004820181905260248201526000805160206148e7833981519152604482015290519081900360640190fd5b60048054600160a060020a031916600160a060020a0392909216919091179055565b6011546060906000908190819061267b9063ffffffff166124e788612e3e565b6011549091506126a4908790839061269e90829063ffffffff908116906134e816565b8861104d565b935093509350509250925092565b6126ba611f70565b15156126fe576040805160e560020a62461bcd02815260206004820181905260248201526000805160206148e7833981519152604482015290519081900360640190fd5b611905600182613b46565b600354600160a060020a031690565b612720611f70565b1515612764576040805160e560020a62461bcd02815260206004820181905260248201526000805160206148e7833981519152604482015290519081900360640190fd5b600a8054600160a060020a031916600160a060020a0392909216919091179055565b600a54600160a060020a0316331461280e576040805160e560020a62461bcd02815260206004820152602760248201527f4d616e6167657261626c653a2063616c6c6572206973206e6f7420746865204f60448201527f70657261746f7200000000000000000000000000000000000000000000000000606482015290519081900360840190fd5b600b5481111561281e57600b8190555b61282783612e2a565b600a5460a060020a900463ffffffff168061284186612e3e565b020111156128625761285283612e2a565b600c5561285e83612e4b565b600d555b81600e600061287086612e3e565b8152602081019190915260400160002055505050565b600a5460009081908190600160a060020a03163314612915576040805160e560020a62461bcd02815260206004820152602760248201527f4d616e6167657261626c653a2063616c6c6572206973206e6f7420746865204f60448201527f70657261746f7200000000000000000000000000000000000000000000000000606482015290519081900360840190fd5b61291e846124b7565b925092509250801561293557612935848484612786565b50505050565b60065490565b600a5460a060020a900463ffffffff1681565b61295c611f70565b15156129a0576040805160e560020a62461bcd02815260206004820181905260248201526000805160206148e7833981519152604482015290519081900360640190fd5b60028054600160a060020a031916600160a060020a0392909216919091179055565b600254600160a060020a031690565b60006129db611f70565b1515612a1f576040805160e560020a62461bcd02815260206004820181905260248201526000805160206148e7833981519152604482015290519081900360640190fd5b611eef600183613c0f565b6000611eef6001805480602002602001604051908101604052809291908181526020018280548015612aa757602002820191906000526020600020906000905b82829054906101000a900463ffffffff1663ffffffff1681526020019060040190602082600301049283019260010382029150808411612a6a5790505b505050505083613d06565b606080600080606080600080612ae3601160009054906101000a900463ffffffff1663ffffffff166124e78c612e3e565b601154909650612afe90879063ffffffff908116906134e816565b9450612b098a612e2a565b86101580612b18575060125485105b15612b2257612c6c565b612b2b8a612e2a565b851115612b3e57612b3b8a612e2a565b94505b6012548611612b4d5760125495505b612b55613305565b9350612b6c8686612b658d612e3e565b8c88613d51565b925088519150600090505b81811015612c65576003548951600160a060020a03909116906341976e09908b9084908110612ba257fe5b906020019060200201516040518263ffffffff1660e060020a0281526004018082600160a060020a0316600160a060020a03168152602001915050602060405180830381600087803b158015612bf757600080fd5b505af1158015612c0b573d6000803e3d6000fd5b505050506040513d6020811015612c2157600080fd5b50518351849083908110612c3157fe5b90602001906020020151811515612c4457fe5b058382815181101515612c5357fe5b60209081029091010152600101612b77565b8284975097505b5050505050509250929050565b600160a060020a038116600090815260086020908152604091829020805483518184028101840190945280845260609392830182828015612cd957602002820191906000526020600020905b815481526020019060010190808311612cc5575b50505050509050919050565b600a54600160a060020a031690565b6119056001805480602002602001604051908101604052809291908181526020018280548015612d6f57602002820191906000526020600020906000905b82829054906101000a900463ffffffff1663ffffffff1681526020019060040190602082600301049283019260010382029150808411612d325790505b505050505082613ff5565b612d82611f70565b1515612dc6576040805160e560020a62461bcd02815260206004820181905260248201526000805160206148e7833981519152604482015290519081900360640190fd5b61190581614055565b60125460065460105491929091904290565b6000612e2383836040805190810160405280601e81526020017f536166654d6174683a207375627472616374696f6e206f766572666c6f770000815250614136565b9392505050565b604060020a900467ffffffffffffffff1690565b67ffffffffffffffff1690565b700100000000000000000000000000000000900467ffffffffffffffff1690565b60606000806060600080600080612e848d8d8d6141d3565b8a51604080518281526020808402820101909152929f509097508015612eb4578160200160208202803883390190505b5094505b8b8d101561302f57600680548e908110612ece57fe5b90600052602060002090600502019350836002015492508a831080612ef557506004840154155b15612eff57613024565b60008d81526007602052604090206013549092508d101580612f21575081548b105b15612f5c57612f5582600301548486600301548560050154866006015489600001601c9054906101000a900460ff16614258565b9050612f8a565b612f878b8486600301548560050154866006015489600001601c9054906101000a900460ff16614288565b90505b6000811115613024576001820154612fac908a90600160a060020a031661435f565b9250612fe18260030154612fd586600401546124e78587600201546131cc90919063ffffffff16565b9063ffffffff6143ac16565b905061300b818685815181101515612ff557fe5b602090810290910101519063ffffffff6134e816565b858481518110151561301957fe5b602090810290910101525b6001909c019b612eb8565b61303d8d8d8d8d8d8a6143ee565b9d959c50949a5050505050505050505050565b6000808211801561306357506006548211155b15156130b9576040805160e560020a62461bcd02815260206004820152601660248201527f6f7074696f6e206964206973206e6f7420657869737400000000000000000000604482015290519081900360640190fd5b6006805460001984019081106130cb57fe5b90600052602060002090600502019050919050565b60808101514210611905576040805160e560020a62461bcd02815260206004820152601160248201527f6f7074696f6e2069732065787069726564000000000000000000000000000000604482015290519081900360640190fd5b60c08201518111156113ef576040805160e560020a62461bcd02815260206004820152601d60248201527f6f7074696f6e20616d6f756e7420697320696e73756666696369656e74000000604482015290519081900360640190fd5b600060ff84161582841114156131af57506000612e23565b60ff8416156131c0578183036131c4565b8282035b949350505050565b6000808315156131df576000915061326f565b508282028284828115156131ef57fe5b041461326b576040805160e560020a62461bcd02815260206004820152602160248201527f536166654d6174683a206d756c7469706c69636174696f6e206f766572666c6f60448201527f7700000000000000000000000000000000000000000000000000000000000000606482015290519081900360840190fd5b8091505b5092915050565b600a5460009081908190819060a060020a900463ffffffff16600b82015481151561329d57fe5b600a54919004925060a060020a900463ffffffff16600b600101548115156132c157fe5b0460010190505b808210156132fd576000828152600e60205260409020546132f090849063ffffffff6134e816565b92506001909101906132c8565b509092915050565b60015460408051828152602080840282010190915260609190829060009083801561333a578160200160208202803883390190505b509150600090505b8281101561326f5760035460018054600160a060020a039092169163da66325791908490811061336e57fe5b90600052602060002090600891828204019190066004029054906101000a900463ffffffff166040518263ffffffff1660e060020a028152600401808263ffffffff168152602001915050602060405180830381600087803b1580156133d357600080fd5b505af11580156133e7573d6000803e3d6000fd5b505050506040513d60208110156133fd57600080fd5b5051825183908390811061340d57fe5b60209081029091010152600101613342565b6000611eef600180548060200260200160405190810160405280929190818152602001828054801561349c57602002820191906000526020600020906000905b82829054906101000a900463ffffffff1663ffffffff168152602001906004019060208260030104928301926001038202915080841161345f5790505b505050505083614614565b6000804284608001511115806134bf575060c0840151155b156134cd576000915061326f565b6131c48460c001516124e786604001518760a001518761465b565b60008282018381101561326b576040805160e560020a62461bcd02815260206004820152601b60248201527f536166654d6174683a206164646974696f6e206f766572666c6f770000000000604482015290519081900360640190fd5b600042846080015111151561355c57506000612e23565b6131c4836124e786604001518760a001518661465b565b80600160a060020a03168260200151600160a060020a03161415156113ef576040805160e560020a62461bcd02815260206004820152601f60248201527f63616c6c6572206973206e6f7420746865206f7074696f6e73206f776e657200604482015290519081900360640190fd5b61363b8280548060200260200160405190810160405280929190818152602001828054801561363057602002820191906000526020600020905b81548152602001906001019080831161361c575b505050505082613b07565b15156113ef5781546001810183556000928352602090922090910155565b8154600090815b818110156136955783858281548110151561367757fe5b9060005260206000200154141561368d57613695565b600101613660565b818110156136f957600019820181146136df5784600183038154811015156136b957fe5b906000526020600020015485828154811015156136d257fe5b6000918252602090912001555b84546136ef866000198301614873565b50600192506136fe565b600092505b505092915050565b60a08301516080840151600554606086015160408088015181517fb4277bc100000000000000000000000000000000000000000000000000000000815263ffffffff909316600484015260ff16602483015242909303604482018190526064820185905283519093600093849384938493600160a060020a039093169263b4277bc1926084808201939182900301818787803b1580156137a557600080fd5b505af11580156137b9573d6000803e3d6000fd5b505050506040513d60408110156137cf57600080fd5b5080516020918201516004805460408e810151815160e060020a63055ef6ab0281529384018d9052602484018d9052604484018c9052606484018690526084840185905260ff1660a484015251939850919650600160a060020a039091169263055ef6ab9260c4808401938290030181600087803b15801561385057600080fd5b505af1158015613864573d6000803e3d6000fd5b505050506040513d602081101561387a57600080fd5b5051600354604080517f41976e09000000000000000000000000000000000000000000000000000000008152600160a060020a038c8116600483015291519395506139249391909216916341976e099160248083019260209291908290030181600087803b1580156138eb57600080fd5b505af11580156138ff573d6000803e3d6000fd5b505050506040513d602081101561391557600080fd5b5051839063ffffffff6143ac16565b6040805160e081018252428152600160a060020a039a8b16602080830191825282840194855260608301968752608083019b8c5260a0830198895260c083019788529c516000190167ffffffffffffffff1660009081526007909d5291909b209a518b555160018b018054600160a060020a03191691909a161790985550955160028801559451600387015592516004860155505051600583015551600690910155565b600b5460009081908085118015906060908490819081906139e7578599505b6139ef613305565b9350600092505b888a1015613aed57613a1060068b81548110151561195957fe5b9150613ab460068b815481101515613a2457fe5b60009182526020918290206040805160e081018252600593909302909101805467ffffffffffffffff81168452604060020a8104600160a060020a03169484019490945260e060020a90930460ff1690820152600182015463ffffffff16606082015260028201546080820152600382015460a082015260049091015460c08201528551869085908110611a1f57fe5b9050848015613ac35750600081115b15613ad057899550600094505b613ae0838263ffffffff6134e816565b6001909a019992506139f6565b8415613af7578995505b5090989397509295505050505050565b8151600090815b818110156136f957838582815181101515613b2557fe5b906020019060200201511415613b3e57600192506136fe565b600101613b0e565b613bcb82805480602002602001604051908101604052809291908181526020018280548015613bc057602002820191906000526020600020906000905b82829054906101000a900463ffffffff1663ffffffff1681526020019060040190602082600301049283019260010382029150808411613b835790505b505050505082613d06565b15156113ef578154600181018355600092835260209092206008830401805460079093166004026101000a63ffffffff818102199094169290931692909202179055565b8154600090815b81811015613c6a578363ffffffff168582815481101515613c3357fe5b6000918252602090912060088204015460079091166004026101000a900463ffffffff161415613c6257613c6a565b600101613c16565b818110156136f95760001982018114613cf6578460018303815481101515613c8e57fe5b90600052602060002090600891828204019190066004029054906101000a900463ffffffff168582815481101515613cc257fe5b90600052602060002090600891828204019190066004026101000a81548163ffffffff021916908363ffffffff1602179055505b84546136ef86600019830161489c565b8151600090815b818110156136f9578363ffffffff168582815181101515613d2a57fe5b9060200190602002015163ffffffff161415613d4957600192506136fe565b600101613d0d565b6060806060600080600080601660008b8152602001908152602001600020805480602002602001604051908101604052809291908181526020018280548015613db957602002820191906000526020600020905b815481526020019060010190808311613da5575b505050505095508851604051908082528060200260200182016040528015613deb578160200160208202803883390190505b5094505b8a8c1015613fe557613e0960068d81548110151561195957fe5b9950613ead60068d815481101515613e1d57fe5b60009182526020918290206040805160e081018252600593909302909101805467ffffffffffffffff81168452604060020a8104600160a060020a03169484019490945260e060020a90930460ff1690820152600182015463ffffffff16606082015260028201546080820152600382015460a082015260049091015460c082015289518a908d908110611a1f57fe5b6013549094508c10613ed05760008c815260076020526040902060040154613ee9565b858a815181101515613ede57fe5b906020019060200201515b9250613f8560068d815481101515613efd57fe5b60009182526020918290206040805160e081018252600593909302909101805467ffffffffffffffff81168452604060020a8104600160a060020a03169484019490945260e060020a90930460ff1690820152600182015463ffffffff16606082015260028201546080820152600382015460a082015260049091015460c0820152846134a7565b9150838214613fda575060008b81526007602052604090206001810154613fb6908a90600160a060020a031661435f565b9950818403858b815181101515613fc957fe5b602090810290910101805190910190525b6001909b019a613def565b50929a9950505050505050505050565b613fff8282613d06565b15156113ef576040805160e560020a62461bcd02815260206004820152601f60248201527f77686974654c6973743a207573696e6720696e76616c69642075696e74333200604482015290519081900360640190fd5b600160a060020a03811615156140db576040805160e560020a62461bcd02815260206004820152602660248201527f4f776e61626c653a206e6577206f776e657220697320746865207a65726f206160448201527f6464726573730000000000000000000000000000000000000000000000000000606482015290519081900360840190fd5b60008054604051600160a060020a03808516939216917f8be0079c531659141344cd1fd0a4f28419497f9722a3daafe3b4186f6b6457e091a360008054600160a060020a031916600160a060020a0392909216919091179055565b60008082858511156141c95760405160e560020a62461bcd0281526004018080602001828103825283818151815260200191508051906020019080838360005b8381101561418e578181015183820152602001614176565b50505050905090810190601f1680156141bb5780820380516001836020036101000a031916815260200191505b509250505060405180910390fd5b5050509103919050565b601254600090819081818711156141ef5786829350935061424e565b8196505b8587101561424757600680548890811061420957fe5b90600052602060002090600502019050848160020154108061422d57506004810154155b156142375761423c565b614247565b6001909601956141f3565b8687935093505b5050935093915050565b6000806142688787878787614679565b905080881161427857600061427c565b8088035b98975050505050505050565b600480546040805160e060020a63055ef6ab028152928301879052602483018790528888036044840152606483018690526084830185905260ff841660a48401525160009283928392600160a060020a039091169163055ef6ab9160c480830192602092919082900301818787803b15801561430357600080fd5b505af1158015614317573d6000803e3d6000fd5b505050506040513d602081101561432d57600080fd5b5051915061433e8888888888614679565b905080821161434e576000614352565b8082035b9998505050505050505050565b8151600090815b818110156131c45783600160a060020a0316858281518110151561438657fe5b90602001906020020151600160a060020a031614156143a4576131c4565b600101614366565b6000612e2383836040805190810160405280601a81526020017f536166654d6174683a206469766973696f6e206279207a65726f000000000000815250614738565b606060006143fa6147e0565b60145491506000808080805b8a871015614602576000878152600f6020526040908190208151808301928390529160029082845b81548152602001906001019080831161442e57505050505095508d86600060028110151561445857fe5b6020020151108061446a575085518d11155b15614474576145f7565b855160068054909190811061448557fe5b90600052602060002090600502019450846002015493508b8410806144ac57506020860151155b156144b6576145f7565b855160009081526007602090815260408083206004805460038b0154600584015460068501548d54875160e060020a63055ef6ab0281529586018490526024860193909352428d0360448601526064850191909152608484015260e060020a900460ff1660a48301529251919750600160a060020a039092169363055ef6ab9360c480850194919392918390030190829087803b15801561455657600080fd5b505af115801561456a573d6000803e3d6000fd5b505050506040513d602081101561458057600080fd5b505160038401549092506145ae90612fd5886001602002015160028701546124e7908763ffffffff6131cc16565b60018401549092506145ca908b90600160a060020a031661435f565b90506145de828a83815181101515612ff557fe5b89828151811015156145ec57fe5b602090810290910101525b600190960195614406565b50969c9b505050505050505050505050565b8151600090815b818110156131c4578363ffffffff16858281518110151561463857fe5b9060200190602002015163ffffffff161415614653576131c4565b60010161461b565b600060ff8416158284111415614672575081612e23565b5080612e23565b60004286111561472b57600480546040805160e060020a63055ef6ab028152928301889052602483018890524289036044840152606483018790526084830186905260ff851660a484015251600160a060020a039091169163055ef6ab9160c48083019260209291908290030181600087803b1580156146f857600080fd5b505af115801561470c573d6000803e3d6000fd5b505050506040513d602081101561472257600080fd5b5051905061472f565b5060005b95945050505050565b6000808281851161478e5760405160e560020a62461bcd0281526004018080602001828103825283818151815260200191508051906020019080838360008381101561418e578181015183820152602001614176565b50838581151561479a57fe5b0495945050505050565b6040805160e081018252600080825260208201819052918101829052606081018290526080810182905260a0810182905260c081019190915290565b60408051808201825290600290829080388339509192915050565b8260028101928215614829579160200282015b8281111561482957825182559160200191906001019061480e565b506148359291506148cc565b5090565b828054828255906000526020600020908101928215614829579160200282018281111561482957825182559160200191906001019061480e565b815481835581811115614897576000838152602090206148979181019083016148cc565b505050565b81548183558181111561489757600701600890048160070160089004836000526020600020918201910161489791905b61138491905b8082111561483557600081556001016148d256004f776e61626c653a2063616c6c6572206973206e6f7420746865206f776e6572a165627a7a72305820b961c752009bd131b4bf58f919ebf00c36c4c06566e6de1a5a6027f9de1beeca00294f776e61626c653a2063616c6c6572206973206e6f7420746865206f776e6572",
  "source": "pragma solidity ^0.4.26;\r\nimport \"./OptionsBase.sol\";\r\nimport \"./modules/tuple.sol\";\r\nimport \"./modules/Operator.sol\";\r\n\r\ncontract OptionsPool is OptionsBase,Operator {\r\n\r\n    //calculate options Collateral occupied phases\r\n    uint32 public optionPhase = 400;\r\n    uint256[3] internal optionPhaseInfo;    //firstOption,lastOption,lastBurn\r\n    mapping(uint256=>uint256) internal OptionsPhases;\r\n    //each burn options\r\n    mapping(uint256=>uint256[2]) internal burnedOptions;\r\n    uint256 internal burnedLength;\r\n    //calculate Options time shared value phases\r\n    uint32 public sharedPhase = 400;\r\n    uint256[3] internal optionPhaseInfo_Share;  //firstOption,lastOption,lastBurn\r\n    mapping (uint256 =>uint256) internal OptionsPhaseTimes;\r\n    mapping (uint256 =>uint256[]) internal OptionsPhasePrices;\r\n    //each block burn options\r\n\r\n    constructor (address oracleAddr,address optionsPriceAddr,address ivAddress) OptionsBase(oracleAddr,optionsPriceAddr,ivAddress) public{\r\n    }\r\n    function getOptionCalRangeAll()public view returns(uint256,uint256,uint256,uint256,uint256,uint256){\r\n        return (optionPhaseInfo[0],optionPhaseInfo[0],allOptions.length,burnedLength,block.number,now);\r\n    }\r\n    function getOptionPhaseCalRange()public view returns(uint256,uint256,uint256){\r\n        return (optionPhaseInfo[0],allOptions.length,burnedLength);\r\n    }\r\n    function getsharedPhaseCalRange()public view returns(uint256,uint256,uint256,uint256){\r\n        return (optionPhaseInfo_Share[0],allOptions.length,burnedLength,now);\r\n    }\r\n    function getsharedPhaseCalInfo(uint256 index)public view returns(uint256,uint256[]){\r\n        return (OptionsPhaseTimes[index],OptionsPhasePrices[index]);\r\n    }\r\n    //index,lastOption,lastBurned\r\n    function setPhaseOccupiedCollateral(uint256 calInfo) public onlyOperator {\r\n        (uint256 totalOccupied,uint256 beginOption,bool success) = calculatePhaseOccupiedCollateral(calInfo);\r\n        if (success){\r\n            setCollateralPhase(calInfo,totalOccupied,beginOption);\r\n        }\r\n    }\r\n    function setCollateralPhase(uint256 calInfo,uint256 totalOccupied,uint256 beginOption) public onlyOperator{\r\n        if (beginOption > optionPhaseInfo[0]){\r\n            optionPhaseInfo[0] = beginOption;\r\n        }\r\n        if (tuple64.getValue0(calInfo)*optionPhase+optionPhase > tuple64.getValue1(calInfo)){\r\n            optionPhaseInfo[1] = tuple64.getValue1(calInfo);\r\n            optionPhaseInfo[2] = tuple64.getValue2(calInfo);\r\n        }\r\n        OptionsPhases[tuple64.getValue0(calInfo)] = totalOccupied;\r\n    }\r\n    function calculatePhaseOccupiedCollateral(uint256 calInfo) public view returns(uint256,uint256,bool){\r\n        uint256 beginOption = tuple64.getValue0(calInfo).mul(optionPhase);\r\n        if (beginOption>=tuple64.getValue1(calInfo)){\r\n            return (0,0,false);\r\n        }\r\n        uint256 endOption = beginOption.add(optionPhase);\r\n        if (endOption>tuple64.getValue1(calInfo)) {\r\n            endOption = tuple64.getValue1(calInfo);\r\n        }else if(endOption < optionPhaseInfo[0]){\r\n            return (0,0,false);\r\n        }\r\n        (uint256 totalOccupied,uint256 newFirstOption) = _calculateOccupiedCollateral(beginOption,endOption);\r\n        return (totalOccupied,newFirstOption,true);\r\n    }\r\n    function _calculateOccupiedCollateral(uint256 begin,uint256 end)internal view returns(uint256,uint256){\r\n        uint256 newFirstOption = optionPhaseInfo[0];\r\n        bool bfirstPhase = begin <= newFirstOption;\r\n        if (bfirstPhase) {\r\n            begin = newFirstOption;\r\n        }\r\n        uint256[] memory prices = getUnderlyingPrices();\r\n        uint256 totalOccupied = 0;\r\n        for (;begin<end;begin++){\r\n            uint256 index = _getEligibleUnderlyingIndex(allOptions[begin].underlying);\r\n            uint256 value = calOptionsCollateral(allOptions[begin],prices[index]);\r\n            if (bfirstPhase && value > 0){\r\n                newFirstOption = begin;\r\n                bfirstPhase = false;\r\n            }\r\n            totalOccupied = totalOccupied.add(value);\r\n        }\r\n        //all options in this phase are empty;\r\n        if (bfirstPhase){\r\n            newFirstOption = begin;\r\n        }\r\n        return (totalOccupied,newFirstOption);\r\n    }\r\n    function setSharedState(uint256 calInfo,uint256 firstOption,uint256[] prices,uint256 calTime) public onlyManager{\r\n        if (firstOption > optionPhaseInfo_Share[0]){\r\n            optionPhaseInfo_Share[0] = firstOption;\r\n        }\r\n        if (tuple64.getValue0(calInfo)*sharedPhase+sharedPhase > tuple64.getValue1(calInfo)){\r\n            optionPhaseInfo_Share[1] = tuple64.getValue1(calInfo);\r\n            optionPhaseInfo_Share[2] = tuple64.getValue2(calInfo);\r\n        }\r\n        OptionsPhaseTimes[tuple64.getValue0(calInfo)] = calTime;\r\n        OptionsPhasePrices[tuple64.getValue0(calInfo)] = prices;\r\n    }\r\n    function calculatePhaseSharedPayment(uint256 calInfo,address[] memory whiteList)\r\n        public view returns(uint256[],uint256,bool){\r\n        uint256 beginOption = tuple64.getValue0(calInfo).mul(sharedPhase);\r\n        return calRangeSharedPayment(calInfo,beginOption,beginOption.add(sharedPhase),whiteList);\r\n    }\r\n    function calRangeSharedPayment(uint256 calInfo,uint256 begin,uint256 end,address[] memory whiteList)\r\n            public view returns(uint256[],uint256,bool){\r\n        if (begin>=tuple64.getValue1(calInfo) || end < optionPhaseInfo_Share[0]){\r\n            return(sharedBalances,0,false);\r\n        }\r\n        if (end>tuple64.getValue1(calInfo)) {\r\n            end = tuple64.getValue1(calInfo);\r\n        }\r\n        (uint256[] memory sharedBalances,uint256 _firstOption) = \r\n            _calculateSharedPayment(begin,end,OptionsPhaseTimes[tuple64.getValue0(calInfo)],tuple64.getValue2(calInfo),whiteList);\r\n        return (sharedBalances,_firstOption,true);\r\n    }\r\n    function _calculateSharedPayment(uint256 begin,uint256 end,uint256 preTime,uint256 lastburn,address[] memory whiteList)\r\n            internal view returns(uint256[],uint256){\r\n        uint256 newFirstOption;\r\n        (begin,newFirstOption) = getSharedFirstOption(begin,end,preTime);       \r\n        uint256[] memory totalSharedPayment = new uint256[](whiteList.length);\r\n        for (;begin<end;begin++){\r\n            OptionsInfo storage info = allOptions[begin];\r\n            uint256 tempValue = info.expiration;\r\n            if(tempValue<preTime || info.amount == 0){\r\n                continue;\r\n            }\r\n            OptionsInfoEx storage optionEx = optionExtraMap[begin];\r\n            uint256 timeValue;\r\n            if (begin>=optionPhaseInfo_Share[1] || preTime<optionEx.createdTime){\r\n                timeValue = _calculateFirstTimePrice(optionEx.fullPrice,tempValue,info.strikePrice,\r\n                    optionEx.ivNumerator,optionEx.ivDenominator,info.optType);\r\n            }else{\r\n                timeValue = _calculateTimePrice(preTime,tempValue,info.strikePrice,\r\n                    optionEx.ivNumerator,optionEx.ivDenominator,info.optType);\r\n            }\r\n            if (timeValue>0){\r\n                tempValue = whiteListAddress._getEligibleIndexAddress(whiteList,optionEx.settlement);\r\n                timeValue = optionEx.tokenTimePrice.mul((timeValue)).mul(info.amount).div(optionEx.fullPrice);\r\n                totalSharedPayment[tempValue] = totalSharedPayment[tempValue].add(timeValue);\r\n            }\r\n        }\r\n        //burned\r\n        return (_calBurnedSharePrice(begin,end,preTime,lastburn,whiteList,totalSharedPayment),newFirstOption);\r\n    }\r\n    function getSharedFirstOption(uint256 begin,uint256 end,uint256 preTime) internal view returns(uint256,uint256){\r\n        uint256 newFirstOption = optionPhaseInfo_Share[0];\r\n        if (begin > newFirstOption){\r\n            return (begin,newFirstOption);\r\n        }\r\n        begin = newFirstOption;\r\n        for (;begin<end;begin++){\r\n            OptionsInfo storage info = allOptions[begin];\r\n            if(info.expiration<preTime || info.amount == 0){\r\n                continue;\r\n            }\r\n            break;\r\n        }\r\n        return (begin,begin);\r\n    }\r\n    function _calBurnedSharePrice(uint256 beginIndex,uint256 endIndex,uint256 preTime,uint256 lastburn,\r\n            address[] memory whiteList,uint256[] memory totalSharedPayment)internal view returns(uint256[]){\r\n        for (uint256 i = optionPhaseInfo_Share[2];i<lastburn;i++){\r\n            uint256[2] memory burnInfo = burnedOptions[i];\r\n            if(burnInfo[0]<beginIndex || burnInfo[0] >=endIndex){\r\n                continue;\r\n            }\r\n            OptionsInfo storage info = allOptions[burnInfo[0]];\r\n            uint256 expiration = info.expiration;\r\n            if(expiration<preTime || burnInfo[1] == 0){\r\n                continue;\r\n            }\r\n            OptionsInfoEx storage optionEx = optionExtraMap[burnInfo[0]];\r\n            uint256 nowValue = _optionsPrice.getOptionsPrice_iv(info.strikePrice,info.strikePrice,expiration-now,optionEx.ivNumerator,\r\n                optionEx.ivDenominator,info.optType);\r\n            nowValue = optionEx.tokenTimePrice.mul(nowValue).mul(burnInfo[1]).div(optionEx.fullPrice);\r\n            uint256 index = whiteListAddress._getEligibleIndexAddress(whiteList,optionEx.settlement);\r\n            totalSharedPayment[index] = totalSharedPayment[index].add(nowValue);\r\n        }     \r\n        return totalSharedPayment;\r\n    }\r\n    function _calculateFirstTimePrice(uint256 fullPrice,uint256 expiration,\r\n            uint256 strikePrice,uint256 ivNumerator,uint256 ivDenominator,uint8 optType)internal view returns (uint256){\r\n        uint256 nowValue = _calculateCurrentPrice(expiration,strikePrice,ivNumerator,\r\n            ivDenominator,optType);\r\n        return (fullPrice>nowValue)? fullPrice-nowValue : 0;\r\n    }\r\n    function _calculateTimePrice(uint256 preTime,uint256 expiration,\r\n            uint256 strikePrice,uint256 ivNumerator,uint256 ivDenominator,uint8 optType)internal view returns (uint256){\r\n        uint256 preValue = _optionsPrice.getOptionsPrice_iv(strikePrice,strikePrice,expiration-preTime,ivNumerator,\r\n            ivDenominator,optType);\r\n        uint256 nowValue = _calculateCurrentPrice(expiration,strikePrice,ivNumerator,\r\n            ivDenominator,optType);\r\n        return (preValue>nowValue)? preValue-nowValue : 0;\r\n    }\r\n    function _calculateCurrentPrice(uint256 expiration,uint256 strikePrice,uint256 ivNumerator,uint256 ivDenominator,uint8 optType)internal view returns (uint256){\r\n        if (expiration > now){\r\n            return _optionsPrice.getOptionsPrice_iv(strikePrice,strikePrice,expiration-now,ivNumerator,\r\n                ivDenominator,optType);\r\n        }\r\n        return 0;\r\n    }\r\n    function calculatePhaseOptionsFall(uint256 calInfo,address[] memory whiteList) public view returns(int256[],uint256[]){\r\n        uint256 begin = tuple64.getValue0(calInfo).mul(sharedPhase);\r\n        uint256 end = begin.add(sharedPhase);\r\n        if (begin>=tuple64.getValue1(calInfo) || end < optionPhaseInfo_Share[0]){\r\n            return;\r\n        }\r\n        if (end>tuple64.getValue1(calInfo)) {\r\n            end = tuple64.getValue1(calInfo);\r\n        }\r\n        if (begin <= optionPhaseInfo_Share[0]) {\r\n            begin = optionPhaseInfo_Share[0];\r\n        }\r\n        uint256[] memory prices = getUnderlyingPrices();\r\n        int256[] memory OptionsFallBalances = _calRangeOptionsFall(begin,end,tuple64.getValue0(calInfo),whiteList,prices);\r\n        uint256 whiteListLen = whiteList.length;\r\n        for (uint256 index = 0;index<whiteListLen;index++){\r\n            OptionsFallBalances[index] = OptionsFallBalances[index]/(int256(_oracle.getPrice(whiteList[index])));\r\n        }\r\n        return (OptionsFallBalances,prices);\r\n    }\r\n    function _calRangeOptionsFall(uint256 begin,uint256 lastOption,uint256 index,address[] memory whiteList,uint256[] memory prices)\r\n                 internal view returns(int256[] memory){\r\n        uint256[] memory lastPrice = OptionsPhasePrices[index];\r\n        int256[] memory OptionsFallBalances = new int256[](whiteList.length);\r\n\r\n        for (;begin<lastOption;begin++){\r\n            index = _getEligibleUnderlyingIndex(allOptions[begin].underlying);\r\n            uint256 curValue = calOptionsCollateral(allOptions[begin],prices[index]);\r\n            uint256 prePrice = begin < optionPhaseInfo_Share[1] ? lastPrice[index] : optionExtraMap[begin].underlyingPrice;\r\n            uint256 preValue = calOptionsCollateral(allOptions[begin],prePrice);\r\n            if (preValue != curValue){\r\n                OptionsInfoEx storage optionEx = optionExtraMap[begin];\r\n                index = whiteListAddress._getEligibleIndexAddress(whiteList,optionEx.settlement);\r\n                OptionsFallBalances[index] += int256(curValue) - int256(preValue);\r\n            }\r\n        }\r\n        return OptionsFallBalances;\r\n    }\r\n    function getTotalOccupiedCollateral() public view returns (uint256) {\r\n        uint256 totalOccupied = sumOptionPhases();\r\n        uint256[] memory prices = getUnderlyingPrices();\r\n        uint optionsLen = allOptions.length;\r\n        for (uint256 beginOption = optionPhaseInfo[1]; beginOption < optionsLen;beginOption++){\r\n            uint256 index = _getEligibleUnderlyingIndex(allOptions[beginOption].underlying);\r\n            totalOccupied = totalOccupied.add(calOptionsCollateral(allOptions[beginOption],prices[index]));\r\n        }\r\n        uint burnedLen = burnedLength;\r\n        for (uint256 i = optionPhaseInfo[2];i<burnedLen;i++){\r\n            uint256[2] memory burnInfo = burnedOptions[i];\r\n            uint optionId = burnInfo[0];\r\n            if (optionId<optionPhaseInfo[1]){\r\n                index = _getEligibleUnderlyingIndex(allOptions[optionId].underlying);\r\n                totalOccupied = totalOccupied.sub(calBurnedOptionsCollateral(allOptions[optionId],\r\n                    burnInfo[1],prices[index]));\r\n            }\r\n        }\r\n        return totalOccupied;\r\n    }\r\n    function calBurnedOptionsCollateral(OptionsInfo memory option,uint256 burned,uint256 underlyingPrice)internal view returns(uint256){\r\n        if (option.expiration<=now){\r\n            return 0;\r\n        }        \r\n        return _getOptionsWorth(option.optType,option.strikePrice,underlyingPrice).mul(burned);\r\n    }\r\n    function sumOptionPhases()internal view returns(uint256){\r\n        uint256 totalOccupied = 0;\r\n        uint256 i = optionPhaseInfo[0]/optionPhase;\r\n        uint256 phaseLen = optionPhaseInfo[1]/optionPhase+1;\r\n        for (;i<phaseLen;i++){\r\n            totalOccupied = totalOccupied.add(OptionsPhases[i]);\r\n        }\r\n        return totalOccupied;\r\n    }\r\n    function calOptionsCollateral(OptionsInfo memory option,uint256 underlyingPrice)internal view returns(uint256){\r\n        if (option.expiration<=now || option.amount == 0){\r\n            return 0;\r\n        }\r\n        uint256 totalOccupied = _getOptionsWorth(option.optType,option.strikePrice,underlyingPrice).mul(option.amount);\r\n        return totalOccupied;\r\n    }\r\n    function burnOptions(address from,uint256 id,uint256 amount)public onlyManager{\r\n        OptionsInfo storage info = _getOptionsById(id);\r\n        checkEligible(info);\r\n        checkOwner(info,from);\r\n        checkSufficient(info,amount);\r\n        info.amount = info.amount.sub(amount);\r\n        burnedOptions[burnedLength] = [id-1,amount];\r\n        burnedLength++;\r\n        emit BurnOption(from,id,amount);\r\n    }\r\n}",
  "sourcePath": "C:\\work\\solidity\\FinnexusOptions_V2\\contracts\\OptionsPool.sol",
  "compiler": {
    "name": "solc",
    "version": "0.4.26+commit.4563c3fc.Emscripten.clang"
  },
  "schemaVersion": "3.1.0",
  "updatedAt": "2020-07-29T05:14:30.810Z",
  "networkType": "ethereum",
  "devdoc": {
    "methods": {
      "addExpiration(uint256)": {
        "details": "Implementation of add an eligible expiration into the expirationList.\r",
        "params": {
          "expiration": "new eligible expiration.\r"
        }
      },
      "addUnderlyingAsset(uint32)": {
        "details": "Implementation of add an eligible underlying into the underlyingAssets.\r",
        "params": {
          "underlying": "new eligible underlying.\r"
        }
      },
      "getExpirationList()": {
        "details": "Implementation of getting the eligible expirationList.\r"
      },
      "getUnderlyingAssets()": {
        "details": "Implementation of getting the eligible underlyingAssets.\r"
      },
      "isEligibleExpiration(uint256)": {
        "details": "Implementation of testing whether the input expiration is eligible.\r",
        "params": {
          "expiration": "input expiration for testing.\r"
        }
      },
      "isEligibleUnderlyingAsset(uint32)": {
        "details": "Implementation of testing whether the input underlying is eligible.\r",
        "params": {
          "underlying": "input underlying for testing.\r"
        }
      },
      "isOwner()": {
        "details": "Returns true if the caller is the current owner."
      },
      "owner()": {
        "details": "Returns the address of the current owner."
      },
      "removeExpirationList(uint256)": {
        "details": "Implementation of revoke an invalid expiration from the expirationList.\r",
        "params": {
          "removeExpiration": "revoked expiration.\r"
        }
      },
      "removeUnderlyingAssets(uint32)": {
        "details": "Implementation of revoke an invalid underlying from the underlyingAssets.\r",
        "params": {
          "removeUnderlying": "revoked underlying.\r"
        }
      },
      "renounceOwnership()": {
        "details": "Leaves the contract without owner. It will not be possible to call `onlyOwner` functions anymore. Can only be called by the current owner.     * NOTE: Renouncing ownership will leave the contract without an owner, thereby removing any functionality that is only available to the owner."
      },
      "transferOwnership(address)": {
        "details": "Transfers ownership of the contract to a new account (`newOwner`). Can only be called by the current owner."
      }
    }
  },
  "userdoc": {
    "methods": {
      "setManager(address)": {
        "notice": "contribution period to stop or not."
      },
      "setOperator(address)": {
        "notice": "contribution period to stop or not."
      }
    }
  }
}