{
  "contractName": "OptionsPoolTest",
  "abi": [
    {
      "constant": true,
      "inputs": [
        {
          "name": "from",
          "type": "uint256"
        },
        {
          "name": "size",
          "type": "uint256"
        }
      ],
      "name": "getOptionInfoList",
      "outputs": [
        {
          "name": "",
          "type": "address[]"
        },
        {
          "name": "",
          "type": "uint256[]"
        },
        {
          "name": "",
          "type": "uint256[]"
        },
        {
          "name": "",
          "type": "uint256[]"
        },
        {
          "name": "",
          "type": "uint256[]"
        }
      ],
      "payable": false,
      "stateMutability": "view",
      "type": "function"
    },
    {
      "constant": true,
      "inputs": [],
      "name": "sharedPhase",
      "outputs": [
        {
          "name": "",
          "type": "uint32"
        }
      ],
      "payable": false,
      "stateMutability": "view",
      "type": "function"
    },
    {
      "constant": false,
      "inputs": [
        {
          "name": "volatility",
          "type": "address"
        }
      ],
      "name": "setVolatilityAddress",
      "outputs": [],
      "payable": false,
      "stateMutability": "nonpayable",
      "type": "function"
    },
    {
      "constant": true,
      "inputs": [
        {
          "name": "calInfo",
          "type": "uint256"
        },
        {
          "name": "begin",
          "type": "uint256"
        },
        {
          "name": "end",
          "type": "uint256"
        },
        {
          "name": "whiteList",
          "type": "address[]"
        }
      ],
      "name": "calRangeSharedPayment",
      "outputs": [
        {
          "name": "",
          "type": "uint256[]"
        },
        {
          "name": "",
          "type": "uint256"
        },
        {
          "name": "",
          "type": "bool"
        }
      ],
      "payable": false,
      "stateMutability": "view",
      "type": "function"
    },
    {
      "constant": true,
      "inputs": [
        {
          "name": "ids",
          "type": "uint256[]"
        }
      ],
      "name": "getOptionInfoListFromID",
      "outputs": [
        {
          "name": "",
          "type": "address[]"
        },
        {
          "name": "",
          "type": "uint256[]"
        },
        {
          "name": "",
          "type": "uint256[]"
        },
        {
          "name": "",
          "type": "uint256[]"
        },
        {
          "name": "",
          "type": "uint256[]"
        }
      ],
      "payable": false,
      "stateMutability": "view",
      "type": "function"
    },
    {
      "constant": true,
      "inputs": [],
      "name": "getUnderlyingAssets",
      "outputs": [
        {
          "name": "",
          "type": "uint32[]"
        }
      ],
      "payable": false,
      "stateMutability": "view",
      "type": "function"
    },
    {
      "constant": true,
      "inputs": [
        {
          "name": "expiration",
          "type": "uint256"
        },
        {
          "name": "underlying",
          "type": "uint32"
        }
      ],
      "name": "buyOptionCheck",
      "outputs": [],
      "payable": false,
      "stateMutability": "view",
      "type": "function"
    },
    {
      "constant": true,
      "inputs": [
        {
          "name": "",
          "type": "uint256"
        }
      ],
      "name": "expirationList",
      "outputs": [
        {
          "name": "",
          "type": "uint256"
        }
      ],
      "payable": false,
      "stateMutability": "view",
      "type": "function"
    },
    {
      "constant": true,
      "inputs": [
        {
          "name": "",
          "type": "uint256"
        }
      ],
      "name": "underlyingAssets",
      "outputs": [
        {
          "name": "",
          "type": "uint32"
        }
      ],
      "payable": false,
      "stateMutability": "view",
      "type": "function"
    },
    {
      "constant": true,
      "inputs": [],
      "name": "getVolatilityAddress",
      "outputs": [
        {
          "name": "",
          "type": "address"
        }
      ],
      "payable": false,
      "stateMutability": "view",
      "type": "function"
    },
    {
      "constant": true,
      "inputs": [],
      "name": "getLatestOption",
      "outputs": [
        {
          "name": "",
          "type": "uint256"
        },
        {
          "name": "",
          "type": "address"
        },
        {
          "name": "",
          "type": "uint8"
        },
        {
          "name": "",
          "type": "uint32"
        },
        {
          "name": "",
          "type": "uint256"
        },
        {
          "name": "",
          "type": "uint256"
        },
        {
          "name": "",
          "type": "uint256"
        }
      ],
      "payable": false,
      "stateMutability": "view",
      "type": "function"
    },
    {
      "constant": true,
      "inputs": [
        {
          "name": "optionsId",
          "type": "uint256"
        }
      ],
      "name": "getOptionsById",
      "outputs": [
        {
          "name": "",
          "type": "uint256"
        },
        {
          "name": "",
          "type": "address"
        },
        {
          "name": "",
          "type": "uint8"
        },
        {
          "name": "",
          "type": "uint32"
        },
        {
          "name": "",
          "type": "uint256"
        },
        {
          "name": "",
          "type": "uint256"
        },
        {
          "name": "",
          "type": "uint256"
        }
      ],
      "payable": false,
      "stateMutability": "view",
      "type": "function"
    },
    {
      "constant": false,
      "inputs": [
        {
          "name": "oracle",
          "type": "address"
        }
      ],
      "name": "setOracleAddress",
      "outputs": [],
      "payable": false,
      "stateMutability": "nonpayable",
      "type": "function"
    },
    {
      "constant": true,
      "inputs": [
        {
          "name": "",
          "type": "address"
        },
        {
          "name": "",
          "type": "uint256"
        }
      ],
      "name": "optionsBalances",
      "outputs": [
        {
          "name": "",
          "type": "uint256"
        }
      ],
      "payable": false,
      "stateMutability": "view",
      "type": "function"
    },
    {
      "constant": true,
      "inputs": [],
      "name": "getOptionsPriceAddress",
      "outputs": [
        {
          "name": "",
          "type": "address"
        }
      ],
      "payable": false,
      "stateMutability": "view",
      "type": "function"
    },
    {
      "constant": true,
      "inputs": [
        {
          "name": "optionsId",
          "type": "uint256"
        },
        {
          "name": "amount",
          "type": "uint256"
        }
      ],
      "name": "getExerciseWorth",
      "outputs": [
        {
          "name": "",
          "type": "uint256"
        }
      ],
      "payable": false,
      "stateMutability": "view",
      "type": "function"
    },
    {
      "constant": false,
      "inputs": [],
      "name": "renounceOwnership",
      "outputs": [],
      "payable": false,
      "stateMutability": "nonpayable",
      "type": "function"
    },
    {
      "constant": true,
      "inputs": [
        {
          "name": "expiration",
          "type": "uint256"
        }
      ],
      "name": "checkExpiration",
      "outputs": [],
      "payable": false,
      "stateMutability": "view",
      "type": "function"
    },
    {
      "constant": true,
      "inputs": [],
      "name": "getTotalOccupiedCollateral",
      "outputs": [
        {
          "name": "",
          "type": "uint256"
        }
      ],
      "payable": false,
      "stateMutability": "view",
      "type": "function"
    },
    {
      "constant": false,
      "inputs": [
        {
          "name": "from",
          "type": "address"
        },
        {
          "name": "id",
          "type": "uint256"
        },
        {
          "name": "amount",
          "type": "uint256"
        }
      ],
      "name": "burnOptions",
      "outputs": [],
      "payable": false,
      "stateMutability": "nonpayable",
      "type": "function"
    },
    {
      "constant": false,
      "inputs": [
        {
          "name": "expiration",
          "type": "uint256"
        }
      ],
      "name": "addExpiration",
      "outputs": [],
      "payable": false,
      "stateMutability": "nonpayable",
      "type": "function"
    },
    {
      "constant": false,
      "inputs": [
        {
          "name": "removeExpiration",
          "type": "uint256"
        }
      ],
      "name": "removeExpirationList",
      "outputs": [
        {
          "name": "",
          "type": "bool"
        }
      ],
      "payable": false,
      "stateMutability": "nonpayable",
      "type": "function"
    },
    {
      "constant": true,
      "inputs": [],
      "name": "owner",
      "outputs": [
        {
          "name": "",
          "type": "address"
        }
      ],
      "payable": false,
      "stateMutability": "view",
      "type": "function"
    },
    {
      "constant": true,
      "inputs": [
        {
          "name": "",
          "type": "uint256"
        }
      ],
      "name": "allOptions",
      "outputs": [
        {
          "name": "optionID",
          "type": "uint64"
        },
        {
          "name": "owner",
          "type": "address"
        },
        {
          "name": "optType",
          "type": "uint8"
        },
        {
          "name": "underlying",
          "type": "uint32"
        },
        {
          "name": "expiration",
          "type": "uint256"
        },
        {
          "name": "strikePrice",
          "type": "uint256"
        },
        {
          "name": "amount",
          "type": "uint256"
        }
      ],
      "payable": false,
      "stateMutability": "view",
      "type": "function"
    },
    {
      "constant": true,
      "inputs": [],
      "name": "isOwner",
      "outputs": [
        {
          "name": "",
          "type": "bool"
        }
      ],
      "payable": false,
      "stateMutability": "view",
      "type": "function"
    },
    {
      "constant": false,
      "inputs": [
        {
          "name": "calInfo",
          "type": "uint256"
        },
        {
          "name": "firstOption",
          "type": "uint256"
        },
        {
          "name": "prices",
          "type": "uint256[]"
        },
        {
          "name": "calTime",
          "type": "uint256"
        }
      ],
      "name": "setSharedState",
      "outputs": [],
      "payable": false,
      "stateMutability": "nonpayable",
      "type": "function"
    },
    {
      "constant": true,
      "inputs": [],
      "name": "getExpirationList",
      "outputs": [
        {
          "name": "",
          "type": "uint256[]"
        }
      ],
      "payable": false,
      "stateMutability": "view",
      "type": "function"
    },
    {
      "constant": false,
      "inputs": [
        {
          "name": "from",
          "type": "address"
        },
        {
          "name": "settlement",
          "type": "address"
        },
        {
          "name": "type_ly_exp",
          "type": "uint256"
        },
        {
          "name": "strikePrice",
          "type": "uint256"
        },
        {
          "name": "underlyingPrice",
          "type": "uint256"
        },
        {
          "name": "amount",
          "type": "uint256"
        }
      ],
      "name": "createOptions",
      "outputs": [],
      "payable": false,
      "stateMutability": "nonpayable",
      "type": "function"
    },
    {
      "constant": true,
      "inputs": [
        {
          "name": "index",
          "type": "uint256"
        }
      ],
      "name": "getsharedPhaseCalInfo",
      "outputs": [
        {
          "name": "",
          "type": "uint256"
        },
        {
          "name": "",
          "type": "uint256[]"
        }
      ],
      "payable": false,
      "stateMutability": "view",
      "type": "function"
    },
    {
      "constant": true,
      "inputs": [],
      "name": "getOptionPhaseCalRange",
      "outputs": [
        {
          "name": "",
          "type": "uint256"
        },
        {
          "name": "",
          "type": "uint256"
        },
        {
          "name": "",
          "type": "uint256"
        }
      ],
      "payable": false,
      "stateMutability": "view",
      "type": "function"
    },
    {
      "constant": true,
      "inputs": [
        {
          "name": "calInfo",
          "type": "uint256"
        }
      ],
      "name": "calculatePhaseOccupiedCollateral",
      "outputs": [
        {
          "name": "",
          "type": "uint256"
        },
        {
          "name": "",
          "type": "uint256"
        },
        {
          "name": "",
          "type": "bool"
        }
      ],
      "payable": false,
      "stateMutability": "view",
      "type": "function"
    },
    {
      "constant": true,
      "inputs": [
        {
          "name": "expiration",
          "type": "uint256"
        }
      ],
      "name": "isEligibleExpiration",
      "outputs": [
        {
          "name": "",
          "type": "bool"
        }
      ],
      "payable": false,
      "stateMutability": "view",
      "type": "function"
    },
    {
      "constant": false,
      "inputs": [
        {
          "name": "optionsPrice",
          "type": "address"
        }
      ],
      "name": "setOptionsPriceAddress",
      "outputs": [],
      "payable": false,
      "stateMutability": "nonpayable",
      "type": "function"
    },
    {
      "constant": true,
      "inputs": [
        {
          "name": "calInfo",
          "type": "uint256"
        },
        {
          "name": "whiteList",
          "type": "address[]"
        }
      ],
      "name": "calculatePhaseSharedPayment",
      "outputs": [
        {
          "name": "",
          "type": "uint256[]"
        },
        {
          "name": "",
          "type": "uint256"
        },
        {
          "name": "",
          "type": "bool"
        }
      ],
      "payable": false,
      "stateMutability": "view",
      "type": "function"
    },
    {
      "constant": false,
      "inputs": [
        {
          "name": "underlying",
          "type": "uint32"
        }
      ],
      "name": "addUnderlyingAsset",
      "outputs": [],
      "payable": false,
      "stateMutability": "nonpayable",
      "type": "function"
    },
    {
      "constant": true,
      "inputs": [],
      "name": "getOracleAddress",
      "outputs": [
        {
          "name": "",
          "type": "address"
        }
      ],
      "payable": false,
      "stateMutability": "view",
      "type": "function"
    },
    {
      "constant": false,
      "inputs": [
        {
          "name": "operator",
          "type": "address"
        }
      ],
      "name": "setOperator",
      "outputs": [],
      "payable": false,
      "stateMutability": "nonpayable",
      "type": "function"
    },
    {
      "constant": false,
      "inputs": [
        {
          "name": "calInfo",
          "type": "uint256"
        },
        {
          "name": "totalOccupied",
          "type": "uint256"
        },
        {
          "name": "beginOption",
          "type": "uint256"
        }
      ],
      "name": "setCollateralPhase",
      "outputs": [],
      "payable": false,
      "stateMutability": "nonpayable",
      "type": "function"
    },
    {
      "constant": false,
      "inputs": [
        {
          "name": "calInfo",
          "type": "uint256"
        }
      ],
      "name": "setPhaseOccupiedCollateral",
      "outputs": [],
      "payable": false,
      "stateMutability": "nonpayable",
      "type": "function"
    },
    {
      "constant": true,
      "inputs": [],
      "name": "getOptionInfoLength",
      "outputs": [
        {
          "name": "",
          "type": "uint256"
        }
      ],
      "payable": false,
      "stateMutability": "view",
      "type": "function"
    },
    {
      "constant": true,
      "inputs": [],
      "name": "optionPhase",
      "outputs": [
        {
          "name": "",
          "type": "uint32"
        }
      ],
      "payable": false,
      "stateMutability": "view",
      "type": "function"
    },
    {
      "constant": false,
      "inputs": [
        {
          "name": "managerAddress",
          "type": "address"
        }
      ],
      "name": "setManager",
      "outputs": [],
      "payable": false,
      "stateMutability": "nonpayable",
      "type": "function"
    },
    {
      "constant": true,
      "inputs": [],
      "name": "getManager",
      "outputs": [
        {
          "name": "",
          "type": "address"
        }
      ],
      "payable": false,
      "stateMutability": "view",
      "type": "function"
    },
    {
      "constant": false,
      "inputs": [
        {
          "name": "removeUnderlying",
          "type": "uint32"
        }
      ],
      "name": "removeUnderlyingAssets",
      "outputs": [
        {
          "name": "",
          "type": "bool"
        }
      ],
      "payable": false,
      "stateMutability": "nonpayable",
      "type": "function"
    },
    {
      "constant": true,
      "inputs": [
        {
          "name": "underlying",
          "type": "uint32"
        }
      ],
      "name": "isEligibleUnderlyingAsset",
      "outputs": [
        {
          "name": "",
          "type": "bool"
        }
      ],
      "payable": false,
      "stateMutability": "view",
      "type": "function"
    },
    {
      "constant": true,
      "inputs": [
        {
          "name": "calInfo",
          "type": "uint256"
        },
        {
          "name": "whiteList",
          "type": "address[]"
        }
      ],
      "name": "calculatePhaseOptionsFall",
      "outputs": [
        {
          "name": "",
          "type": "int256[]"
        },
        {
          "name": "",
          "type": "uint256[]"
        }
      ],
      "payable": false,
      "stateMutability": "view",
      "type": "function"
    },
    {
      "constant": true,
      "inputs": [
        {
          "name": "user",
          "type": "address"
        }
      ],
      "name": "getUserOptionsID",
      "outputs": [
        {
          "name": "",
          "type": "uint256[]"
        }
      ],
      "payable": false,
      "stateMutability": "view",
      "type": "function"
    },
    {
      "constant": true,
      "inputs": [],
      "name": "getOperator",
      "outputs": [
        {
          "name": "",
          "type": "address"
        }
      ],
      "payable": false,
      "stateMutability": "view",
      "type": "function"
    },
    {
      "constant": true,
      "inputs": [
        {
          "name": "underlying",
          "type": "uint32"
        }
      ],
      "name": "checkUnderlyingAsset",
      "outputs": [],
      "payable": false,
      "stateMutability": "view",
      "type": "function"
    },
    {
      "constant": false,
      "inputs": [
        {
          "name": "newOwner",
          "type": "address"
        }
      ],
      "name": "transferOwnership",
      "outputs": [],
      "payable": false,
      "stateMutability": "nonpayable",
      "type": "function"
    },
    {
      "constant": true,
      "inputs": [],
      "name": "getsharedPhaseCalRange",
      "outputs": [
        {
          "name": "",
          "type": "uint256"
        },
        {
          "name": "",
          "type": "uint256"
        },
        {
          "name": "",
          "type": "uint256"
        },
        {
          "name": "",
          "type": "uint256"
        }
      ],
      "payable": false,
      "stateMutability": "view",
      "type": "function"
    },
    {
      "inputs": [
        {
          "name": "oracleAddr",
          "type": "address"
        },
        {
          "name": "optionsPriceAddr",
          "type": "address"
        },
        {
          "name": "ivAddress",
          "type": "address"
        }
      ],
      "payable": false,
      "stateMutability": "nonpayable",
      "type": "constructor"
    },
    {
      "anonymous": false,
      "inputs": [
        {
          "indexed": true,
          "name": "owner",
          "type": "address"
        },
        {
          "indexed": true,
          "name": "optionID",
          "type": "uint256"
        },
        {
          "indexed": false,
          "name": "optType",
          "type": "uint8"
        },
        {
          "indexed": false,
          "name": "underlying",
          "type": "uint32"
        },
        {
          "indexed": false,
          "name": "expiration",
          "type": "uint256"
        },
        {
          "indexed": false,
          "name": "strikePrice",
          "type": "uint256"
        },
        {
          "indexed": false,
          "name": "amount",
          "type": "uint256"
        }
      ],
      "name": "CreateOption",
      "type": "event"
    },
    {
      "anonymous": false,
      "inputs": [
        {
          "indexed": true,
          "name": "owner",
          "type": "address"
        },
        {
          "indexed": true,
          "name": "optionID",
          "type": "uint256"
        },
        {
          "indexed": false,
          "name": "amount",
          "type": "uint256"
        }
      ],
      "name": "BurnOption",
      "type": "event"
    },
    {
      "anonymous": false,
      "inputs": [
        {
          "indexed": false,
          "name": "value1",
          "type": "uint256"
        },
        {
          "indexed": false,
          "name": "value2",
          "type": "uint256"
        },
        {
          "indexed": false,
          "name": "value3",
          "type": "uint256"
        }
      ],
      "name": "DebugEvent",
      "type": "event"
    },
    {
      "anonymous": false,
      "inputs": [
        {
          "indexed": true,
          "name": "previousOwner",
          "type": "address"
        },
        {
          "indexed": true,
          "name": "newOwner",
          "type": "address"
        }
      ],
      "name": "OwnershipTransferred",
      "type": "event"
    },
    {
      "constant": true,
      "inputs": [
        {
          "name": "optType",
          "type": "uint8"
        },
        {
          "name": "strikePrice",
          "type": "uint256"
        },
        {
          "name": "underlyingPrice",
          "type": "uint256"
        }
      ],
      "name": "getOptionsWorth",
      "outputs": [
        {
          "name": "",
          "type": "uint256"
        }
      ],
      "payable": false,
      "stateMutability": "pure",
      "type": "function"
    },
    {
      "constant": true,
      "inputs": [
        {
          "name": "optType",
          "type": "uint8"
        },
        {
          "name": "strikePrice",
          "type": "uint256"
        },
        {
          "name": "underlyingPrice",
          "type": "uint256"
        }
      ],
      "name": "getOptionsPayback",
      "outputs": [
        {
          "name": "",
          "type": "uint256"
        }
      ],
      "payable": false,
      "stateMutability": "pure",
      "type": "function"
    }
  ],
  "bytecode": "0x6080604052600a8054750190000000000000000000000000000000000000000060a060020a63ffffffff02199091161790556011805463ffffffff19166101901790553480156200004f57600080fd5b5060405160608062004d6083398101604081815282516020840151919093015160008054600160a060020a031916331780825592939192859285928592859285928592600160a060020a0316917f8be0079c531659141344cd1fd0a4f28419497f9722a3daafe3b4186f6b6457e0908290a3620000d5836401000000006200018a810204565b620000e9826401000000006200021c810204565b620000fd81640100000000620002ae810204565b6040805160e0810182526201518081526203f480602082015262093a8091810191909152620d2f0060608201526213c680608082015262278d0060a08201526276a70060c08201526200015590600990600762000352565b506040805180820190915260018082526002602083018190526200017a9290620003a9565b5050505050505050505062000499565b6200019d64010000000062000340810204565b1515620001fa57604080517f08c379a0000000000000000000000000000000000000000000000000000000008152602060048201819052602482015260008051602062004d40833981519152604482015290519081900360640190fd5b60038054600160a060020a031916600160a060020a0392909216919091179055565b6200022f64010000000062000340810204565b15156200028c57604080517f08c379a0000000000000000000000000000000000000000000000000000000008152602060048201819052602482015260008051602062004d40833981519152604482015290519081900360640190fd5b60048054600160a060020a031916600160a060020a0392909216919091179055565b620002c164010000000062000340810204565b15156200031e57604080517f08c379a0000000000000000000000000000000000000000000000000000000008152602060048201819052602482015260008051602062004d40833981519152604482015290519081900360640190fd5b60058054600160a060020a031916600160a060020a0392909216919091179055565b600054600160a060020a031633145b90565b82805482825590600052602060002090810192821562000397579160200282015b8281111562000397578251829062ffffff1690559160200191906001019062000373565b50620003a592915062000458565b5090565b828054828255906000526020600020906007016008900481019282156200044a5791602002820160005b838211156200041657835183826101000a81548163ffffffff021916908360ff1602179055509260200192600401602081600301049283019260010302620003d3565b8015620004485782816101000a81549063ffffffff021916905560040160208160030104928301926001030262000416565b505b50620003a592915062000475565b6200034f91905b80821115620003a557600081556001016200045f565b6200034f91905b80821115620003a557805463ffffffff191681556001016200047c565b61489780620004a96000396000f3006080604052600436106102635763ffffffff60e060020a6000350416630438d490811461026857806316f35a7f146103eb5780632967eafe146104195780632b38f1801461043c57806332ab5c201461046f578063354af360146105395780633582d7891461058e5780633ad2fb57146105f35780633ad98099146106145780633b50c4d11461062c57806342e5479d1461064457806345e19fdd1461067557806348ee201d146106d15780634c69c00f146106e957806355c47cb21461070a5780635ca4b73b1461072e57806367b8ceb914610743578063715018a61461075e578063723931ca1461077357806373a3d4241461078b57806374e85fd2146107a05780637cfff2d8146107c75780637e838fa3146107df5780638da5cb5b1461080b5780638ea745b8146108205780638f32d59b1461088a5780638ff239e61461089f5780639052d5f8146108ff578063924a69ce1461091457806397a918e91461094757806398dae828146109ba57806399deae0a146109ed5780639ef975d214610a25578063a093e2d014610a3d578063af70df1214610a5e578063afec82fc14610ab8578063b18b78dd14610ad6578063b3ab15fb14610aeb578063b452bc0414610b0c578063b8a5b7fa14610b2a578063bec3107f14610b42578063c27b7dfb14610b57578063d0ebdbe714610b6c578063d500958414610b8d578063d6d1401214610ba2578063db6ad2bd14610bc0578063e5081c4014610bde578063e7c5681514610cba578063e7f43c6814610cdb578063ed55283414610cf0578063ee29c94a14610d11578063f2fde38b14610d2f578063fa1cf1f014610d50575b600080fd5b34801561027457600080fd5b50610283600435602435610d8b565b60405180806020018060200180602001806020018060200186810386528b818151815260200191508051906020019060200280838360005b838110156102d35781810151838201526020016102bb565b5050505090500186810385528a818151815260200191508051906020019060200280838360005b838110156103125781810151838201526020016102fa565b50505050905001868103845289818151815260200191508051906020019060200280838360005b83811015610351578181015183820152602001610339565b50505050905001868103835288818151815260200191508051906020019060200280838360005b83811015610390578181015183820152602001610378565b50505050905001868103825287818151815260200191508051906020019060200280838360005b838110156103cf5781810151838201526020016103b7565b505050509050019a505050505050505050505060405180910390f35b3480156103f757600080fd5b50610400610fd8565b6040805163ffffffff9092168252519081900360200190f35b34801561042557600080fd5b5061043a600160a060020a0360043516610fe4565b005b34801561044857600080fd5b5061045d60ff60043516602435604435611052565b60408051918252519081900360200190f35b34801561047b57600080fd5b5060408051606435600481810135602081810285810182019096528185526104d39583359560248035966044359636969095608495929093019290918291850190849080828437509497506110699650505050505050565b604051808060200184815260200183151515158152602001828103825285818151815260200191508051906020019060200280838360005b8381101561052357818101518382015260200161050b565b5050505090500194505050505060405180910390f35b34801561054557600080fd5b5060408051602060048035808201358381028086018501909652808552610283953695939460249493850192918291850190849080828437509497506111079650505050505050565b34801561059a57600080fd5b506105a3611323565b60408051602080825283518183015283519192839290830191858101910280838360005b838110156105df5781810151838201526020016105c7565b505050509050019250505060405180910390f35b3480156105ff57600080fd5b5061043a60043563ffffffff602435166113a8565b34801561062057600080fd5b5061045d600435611414565b34801561063857600080fd5b50610400600435611433565b34801561065057600080fd5b5061065961146b565b60408051600160a060020a039092168252519081900360200190f35b34801561068157600080fd5b5061068a61147a565b60408051978852600160a060020a03909616602088015260ff9094168686015263ffffffff9092166060860152608085015260a084015260c0830152519081900360e00190f35b3480156106dd57600080fd5b5061068a600435611565565b3480156106f557600080fd5b5061043a600160a060020a03600435166115d9565b34801561071657600080fd5b5061045d600160a060020a0360043516602435611647565b34801561073a57600080fd5b50610659611677565b34801561074f57600080fd5b5061045d600435602435611686565b34801561076a57600080fd5b5061043a611806565b34801561077f57600080fd5b5061043a60043561189c565b34801561079757600080fd5b5061045d611924565b3480156107ac57600080fd5b5061043a600160a060020a0360043516602435604435611bc0565b3480156107d357600080fd5b5061043a600435611d89565b3480156107eb57600080fd5b506107f7600435611de0565b604080519115158252519081900360200190f35b34801561081757600080fd5b50610659611e3f565b34801561082c57600080fd5b50610838600435611e4e565b6040805167ffffffffffffffff9098168852600160a060020a03909616602088015260ff9094168686015263ffffffff9092166060860152608085015260a084015260c0830152519081900360e00190f35b34801561089657600080fd5b506107f7611ebf565b3480156108ab57600080fd5b50604080516020600460443581810135838102808601850190965280855261043a9583359560248035963696956064959394920192918291850190849080828437509497505093359450611ed09350505050565b34801561090b57600080fd5b506105a3611ffb565b34801561092057600080fd5b5061043a600160a060020a036004358116906024351660443560643560843560a435612052565b34801561095357600080fd5b5061095f60043561238d565b6040518083815260200180602001828103825283818151815260200191508051906020019060200280838360005b838110156109a557818101518382015260200161098d565b50505050905001935050505060405180910390f35b3480156109c657600080fd5b506109cf612400565b60408051938452602084019290925282820152519081900360600190f35b3480156109f957600080fd5b50610a05600435612410565b604080519384526020840192909252151582820152519081900360600190f35b348015610a3157600080fd5b506107f76004356124ea565b348015610a4957600080fd5b5061043a600160a060020a0360043516612546565b348015610a6a57600080fd5b506040805160206004602480358281013584810280870186019097528086526104d3968435963696604495919490910192918291850190849080828437509497506125b49650505050505050565b348015610ac457600080fd5b5061043a63ffffffff6004351661260b565b348015610ae257600080fd5b50610659612662565b348015610af757600080fd5b5061043a600160a060020a0360043516612671565b348015610b1857600080fd5b5061043a6004356024356044356126df565b348015610b3657600080fd5b5061043a6004356127df565b348015610b4e57600080fd5b5061045d612894565b348015610b6357600080fd5b5061040061289a565b348015610b7857600080fd5b5061043a600160a060020a03600435166128ad565b348015610b9957600080fd5b5061065961291b565b348015610bae57600080fd5b506107f763ffffffff6004351661292a565b348015610bcc57600080fd5b506107f763ffffffff60043516612983565b348015610bea57600080fd5b50604080516020600460248035828101358481028087018601909752808652610c3896843596369660449591949091019291829185019084908082843750949750612a0b9650505050505050565b604051808060200180602001838103835285818151815260200191508051906020019060200280838360005b83811015610c7c578181015183820152602001610c64565b50505050905001838103825284818151815260200191508051906020019060200280838360008381101561052357818101518382015260200161050b565b348015610cc657600080fd5b506105a3600160a060020a0360043516612bd2565b348015610ce757600080fd5b50610659612c3e565b348015610cfc57600080fd5b5061045d60ff60043516602435604435612c4d565b348015610d1d57600080fd5b5061043a63ffffffff60043516612c5a565b348015610d3b57600080fd5b5061043a600160a060020a0360043516612ce0565b348015610d5c57600080fd5b50610d65612d35565b604080519485526020850193909352838301919091526060830152519081900360800190f35b6060806060806060806060806060806000806006805490508d8f011115610dc257600654610dbf908f63ffffffff612d4716565b9c505b60008d1115610fc7578c604051908082528060200260200182016040528015610df5578160200160208202803883390190505b5096508c604051908082528060200260200182016040528015610e22578160200160208202803883390190505b5095508c604051908082528060200260200182016040528015610e4f578160200160208202803883390190505b5094508c604051908082528060200260200182016040528015610e7c578160200160208202803883390190505b5093508c604051908082528060200260200182016040528015610ea9578160200160208202803883390190505b509250600091505b8c821015610fb757600680548f8401908110610ec957fe5b906000526020600020906005020190508060000160089054906101000a9004600160a060020a03168783815181101515610eff57fe5b600160a060020a03909216602092830290910190910152805460018201548751601060ff60e060020a90940484160190921660020a63ffffffff918216021690879084908110610f4b57fe5b6020908102909101015260028101548551869084908110610f6857fe5b6020908102909101015260038101548451859084908110610f8557fe5b6020908102909101015260048101548351849084908110610fa257fe5b60209081029091010152600190910190610eb1565b86868686869b509b509b509b509b505b505050505050509295509295909350565b60115463ffffffff1681565b610fec611ebf565b1515611030576040805160e560020a62461bcd028152602060048201819052602482015260008051602061484c833981519152604482015290519081900360640190fd5b60058054600160a060020a031916600160a060020a0392909216919091179055565b600061105f848484612d89565b90505b9392505050565b60606000806060600061107b89612da7565b8810158061108a575060125487105b156110a0579093506000925082915083906110fb565b6110a989612da7565b8711156110bc576110b989612da7565b96505b6110ec8888601560006110ce8e612dc0565b8152602001908152602001600020546110e68d612dcd565b8a612dee565b91509150818160019450945094505b50509450945094915050565b6060806060806060600060608060608060606000808d5197508760405190808252806020026020018201604052801561114a578160200160208202803883390190505b50965087604051908082528060200260200182016040528015611177578160200160208202803883390190505b509550876040519080825280602002602001820160405280156111a4578160200160208202803883390190505b509450876040519080825280602002602001820160405280156111d1578160200160208202803883390190505b509350876040519080825280602002602001820160405280156111fe578160200160208202803883390190505b509250600091505b8782101561130f5761122e8e8381518110151561121f57fe5b90602001906020020151612fd2565b80548851919250680100000000000000009004600160a060020a03169088908490811061125757fe5b600160a060020a03909216602092830290910190910152805460018201548751601060ff60e060020a90940484160190921660020a63ffffffff9182160216908790849081106112a357fe5b60209081029091010152600281015485518690849081106112c057fe5b60209081029091010152600381015484518590849081106112dd57fe5b60209081029091010152600481015483518490849081106112fa57fe5b60209081029091010152600190910190611206565b50949c939b50919950975095509350505050565b6060600180548060200260200160405190810160405280929190818152602001828054801561139d57602002820191906000526020600020906000905b82829054906101000a900463ffffffff1663ffffffff16815260200190600401906020826003010492830192600103820291508084116113605790505b505050505090505b90565b6113b181612983565b1515611407576040805160e560020a62461bcd02815260206004820152601f60248201527f756e6465726c79696e6720697320756e737570706f7274656420617373657400604482015290519081900360640190fd5b6114108261189c565b5050565b600980548290811061142257fe5b600091825260209091200154905081565b600180548290811061144157fe5b9060005260206000209060089182820401919006600402915054906101000a900463ffffffff1681565b600554600160a060020a031690565b600654600090819081908190819081908190818082116114e4576040805160e560020a62461bcd02815260206004820152601560248201527f6f7074696f6e73206c69737420697320656d7074790000000000000000000000604482015290519081900360640190fd5b6006805460001984019081106114f657fe5b60009182526020909120600590910201805460018201546002830154600384015460049094015467ffffffffffffffff84169e680100000000000000008504600160a060020a03169e5060e060020a90940460ff169c5063ffffffff9092169a50985091965090945092505050565b60008060008060008060008061157a89612fd2565b805460018201546002830154600384015460049094015467ffffffffffffffff84169e680100000000000000008504600160a060020a03169e5060e060020a90940460ff169c5063ffffffff9092169a50985091965090945092505050565b6115e1611ebf565b1515611625576040805160e560020a62461bcd028152602060048201819052602482015260008051602061484c833981519152604482015290519081900360640190fd5b60038054600160a060020a031916600160a060020a0392909216919091179055565b60086020528160005260406000208181548110151561166257fe5b90600052602060002001600091509150505481565b600454600160a060020a031690565b6000611690614709565b60008061169c86612fd2565b6040805160e081018252825467ffffffffffffffff81168252680100000000000000008104600160a060020a0316602083015260e060020a900460ff1691810191909152600182015463ffffffff16606082015260028201546080820152600382015460a082015260049091015460c0820152925061171a83613062565b61172483866130bd565b6003546060840151604080517fda66325700000000000000000000000000000000000000000000000000000000815263ffffffff909216600483015251600160a060020a039092169163da663257916024808201926020929091908290030181600087803b15801561179557600080fd5b505af11580156117a9573d6000803e3d6000fd5b505050506040513d60208110156117bf57600080fd5b5051604084015160a08501519193506117d89184613119565b90508015156117ea57600093506117fd565b6117fa818663ffffffff61314d16565b93505b50505092915050565b61180e611ebf565b1515611852576040805160e560020a62461bcd028152602060048201819052602482015260008051602061484c833981519152604482015290519081900360640190fd5b60008054604051600160a060020a03909116907f8be0079c531659141344cd1fd0a4f28419497f9722a3daafe3b4186f6b6457e0908390a360008054600160a060020a0319169055565b6118a5816124ea565b1515611921576040805160e560020a62461bcd02815260206004820152602160248201527f65787069726174696f6e2076616c7565206973206e6f7420737570706f72746560448201527f6400000000000000000000000000000000000000000000000000000000000000606482015290519081900360840190fd5b50565b60008060606000806000806000611939614745565b60006119436131f7565b985061194d613286565b600654600c54919950975095505b86861015611a695761199460068781548110151561197557fe5b600091825260209091206001600590920201015463ffffffff166133a0565b9450611a5c611a4f6006888154811015156119ab57fe5b60009182526020918290206040805160e081018252600593909302909101805467ffffffffffffffff81168452680100000000000000008104600160a060020a03169484019490945260e060020a90930460ff1690820152600182015463ffffffff16606082015260028201546080820152600382015460a082015260049091015460c08201528a518b9089908110611a4057fe5b90602001906020020151613428565b8a9063ffffffff61347116565b985060019095019461195b565b601054600d5490945092505b83831015611bb2576000838152600f6020526040908190208151808301928390529160029082845b815481526020019060010190808311611a9d575093955085935060009250611ac3915050565b60200201519050611adc60068281548110151561197557fe5b9450611ba5611b98600683815481101515611af357fe5b60009182526020918290206040805160e081018252600593909302909101805467ffffffffffffffff81168452680100000000000000008104600160a060020a03168486015260e060020a900460ff1691830191909152600181015463ffffffff16606083015260028101546080830152600381015460a08301526004015460c0820152908501518b518c908a908110611b8957fe5b906020019060200201516134ce565b8a9063ffffffff612d4716565b9850600190920191611a75565b509698975050505050505050565b611bc8614709565b600254600160a060020a03163314611c50576040805160e560020a62461bcd02815260206004820152602660248201527f4d616e6167657261626c653a2063616c6c6572206973206e6f7420746865204d60448201527f616e616765720000000000000000000000000000000000000000000000000000606482015290519081900360840190fd5b611c5983612fd2565b6040805160e081018252825467ffffffffffffffff81168252680100000000000000008104600160a060020a0316602083015260e060020a900460ff1691810191909152600182015463ffffffff16606082015260028201546080820152600382015460a082015260049091015460c08201529050611cd781613062565b611ce181856134e7565b611ceb81836130bd565b60c0810151611d00908363ffffffff612d4716565b60c08201526040805180820182526000198501815260208082018590526010546000908152600f90915291909120611d39916002614760565b506010805460010190556040805183815290518491600160a060020a038716917f1fb99acdc281bccbecb3d0073a307341181a8a7d3cd532fdaef5ce7200401c2d9181900360200190a350505050565b611d91611ebf565b1515611dd5576040805160e560020a62461bcd028152602060048201819052602482015260008051602061484c833981519152604482015290519081900360640190fd5b611921600982613556565b6000611dea611ebf565b1515611e2e576040805160e560020a62461bcd028152602060048201819052602482015260008051602061484c833981519152604482015290519081900360640190fd5b611e396009836135cd565b92915050565b600054600160a060020a031690565b6006805482908110611e5c57fe5b60009182526020909120600590910201805460018201546002830154600384015460049094015467ffffffffffffffff84169550680100000000000000008404600160a060020a03169460e060020a90940460ff169363ffffffff909316929087565b600054600160a060020a0316331490565b600254600160a060020a03163314611f58576040805160e560020a62461bcd02815260206004820152602660248201527f4d616e6167657261626c653a2063616c6c6572206973206e6f7420746865204d60448201527f616e616765720000000000000000000000000000000000000000000000000000606482015290519081900360840190fd5b601254831115611f685760128390555b611f7184612da7565b60115463ffffffff1680611f8487612dc0565b02011115611fa557611f9584612da7565b601355611fa184612dcd565b6014555b8060156000611fb387612dc0565b8152602001908152602001600020819055508160166000611fd387612dc0565b81526020019081526020016000209080519060200190611ff492919061479e565b5050505050565b6060600980548060200260200160405190810160405280929190818152602001828054801561139d57602002820191906000526020600020905b815481526020019060010190808311612035575050505050905090565b600080600061205f614709565b600254600160a060020a031633146120e7576040805160e560020a62461bcd02815260206004820152602660248201527f4d616e6167657261626c653a2063616c6c6572206973206e6f7420746865204d60448201527f616e616765720000000000000000000000000000000000000000000000000000606482015290519081900360840190fd5b60065493506120f588612dc0565b925061210088612da7565b9150600660e0604051908101604052808660010167ffffffffffffffff1681526020018c600160a060020a031681526020018560ff1681526020018463ffffffff168152602001426121518c612dcd565b01815260208082018b90526040918201899052835460018082018655600095865282862085516005909302018054868501518787015167ffffffffffffffff1990921667ffffffffffffffff909516949094177fffffffff0000000000000000000000000000000000000000ffffffffffffffff1668010000000000000000600160a060020a0395861602177fffffff00ffffffffffffffffffffffffffffffffffffffffffffffffffffffff1660e060020a60ff909216919091021781556060860151818301805463ffffffff191663ffffffff9092169190911790556080860151600282015560a0860151600382015560c0909501516004909501949094558e16845260088152908320805480840182559084529220908601910155600680548590811061227d57fe5b60009182526020918290206040805160e081018252600593909302909101805467ffffffffffffffff81168452680100000000000000008104600160a060020a03169484019490945260e060020a90930460ff1690820152600182015463ffffffff16606082015260028201546080820152600382015460a082015260049091015460c08201529050612311818a8861367a565b836001018a600160a060020a03167f18f523957030bee670136363e25b2f847bf1bd07bb7b33c6d5475936a9aac70d85854261234c8e612dcd565b6040805160ff909516855263ffffffff90931660208501520182820152606082018c9052608082018a9052519081900360a00190a350505050505050505050565b600081815260156020908152604080832054601683528184208054835181860281018601909452808452606094929391928391908301828280156123f057602002820191906000526020600020905b8154815260200190600101908083116123dc575b5050505050905091509150915091565b600b546006546010549192909190565b600080600080600080600061244c600a60149054906101000a900463ffffffff1663ffffffff166124408a612dc0565b9063ffffffff61314d16565b935061245788612da7565b841061246c57600096508695508594506124df565b600a5461248b90859063ffffffff60a060020a90910481169061347116565b925061249688612da7565b8311156124ad576124a688612da7565b92506124c6565b600b548310156124c657600096508695508594506124df565b6124d0848461393c565b91509150818160019650965096505b505050509193909250565b6000611e39600980548060200260200160405190810160405280929190818152602001828054801561253b57602002820191906000526020600020905b815481526020019060010190808311612527575b505050505083613a80565b61254e611ebf565b1515612592576040805160e560020a62461bcd028152602060048201819052602482015260008051602061484c833981519152604482015290519081900360640190fd5b60048054600160a060020a031916600160a060020a0392909216919091179055565b601154606090600090819081906125d49063ffffffff1661244088612dc0565b6011549091506125fd90879083906125f790829063ffffffff9081169061347116565b88611069565b935093509350509250925092565b612613611ebf565b1515612657576040805160e560020a62461bcd028152602060048201819052602482015260008051602061484c833981519152604482015290519081900360640190fd5b611921600182613abf565b600354600160a060020a031690565b612679611ebf565b15156126bd576040805160e560020a62461bcd028152602060048201819052602482015260008051602061484c833981519152604482015290519081900360640190fd5b600a8054600160a060020a031916600160a060020a0392909216919091179055565b600a54600160a060020a03163314612767576040805160e560020a62461bcd02815260206004820152602760248201527f4d616e6167657261626c653a2063616c6c6572206973206e6f7420746865204f60448201527f70657261746f7200000000000000000000000000000000000000000000000000606482015290519081900360840190fd5b600b5481111561277757600b8190555b61278083612da7565b600a5460a060020a900463ffffffff168061279a86612dc0565b020111156127bb576127ab83612da7565b600c556127b783612dcd565b600d555b81600e60006127c986612dc0565b8152602081019190915260400160002055505050565b600a5460009081908190600160a060020a0316331461286e576040805160e560020a62461bcd02815260206004820152602760248201527f4d616e6167657261626c653a2063616c6c6572206973206e6f7420746865204f60448201527f70657261746f7200000000000000000000000000000000000000000000000000606482015290519081900360840190fd5b61287784612410565b925092509250801561288e5761288e8484846126df565b50505050565b60065490565b600a5460a060020a900463ffffffff1681565b6128b5611ebf565b15156128f9576040805160e560020a62461bcd028152602060048201819052602482015260008051602061484c833981519152604482015290519081900360640190fd5b60028054600160a060020a031916600160a060020a0392909216919091179055565b600254600160a060020a031690565b6000612934611ebf565b1515612978576040805160e560020a62461bcd028152602060048201819052602482015260008051602061484c833981519152604482015290519081900360640190fd5b611e39600183613b88565b6000611e396001805480602002602001604051908101604052809291908181526020018280548015612a0057602002820191906000526020600020906000905b82829054906101000a900463ffffffff1663ffffffff16815260200190600401906020826003010492830192600103820291508084116129c35790505b505050505083613c7f565b606080600080606080600080612a3c601160009054906101000a900463ffffffff1663ffffffff166124408c612dc0565b601154909650612a5790879063ffffffff9081169061347116565b9450612a628a612da7565b86101580612a71575060125485105b15612a7b57612bc5565b612a848a612da7565b851115612a9757612a948a612da7565b94505b6012548611612aa65760125495505b612aae613286565b9350612ac58686612abe8d612dc0565b8c88613cca565b925088519150600090505b81811015612bbe576003548951600160a060020a03909116906341976e09908b9084908110612afb57fe5b906020019060200201516040518263ffffffff1660e060020a0281526004018082600160a060020a0316600160a060020a03168152602001915050602060405180830381600087803b158015612b5057600080fd5b505af1158015612b64573d6000803e3d6000fd5b505050506040513d6020811015612b7a57600080fd5b50518351849083908110612b8a57fe5b90602001906020020151811515612b9d57fe5b058382815181101515612bac57fe5b60209081029091010152600101612ad0565b8284975097505b5050505050509250929050565b600160a060020a038116600090815260086020908152604091829020805483518184028101840190945280845260609392830182828015612c3257602002820191906000526020600020905b815481526020019060010190808311612c1e575b50505050509050919050565b600a54600160a060020a031690565b600061105f848484613119565b6119216001805480602002602001604051908101604052809291908181526020018280548015612cd557602002820191906000526020600020906000905b82829054906101000a900463ffffffff1663ffffffff1681526020019060040190602082600301049283019260010382029150808411612c985790505b505050505082613f78565b612ce8611ebf565b1515612d2c576040805160e560020a62461bcd028152602060048201819052602482015260008051602061484c833981519152604482015290519081900360640190fd5b61192181613fd8565b60125460065460105491929091904290565b600061106283836040805190810160405280601e81526020017f536166654d6174683a207375627472616374696f6e206f766572666c6f7700008152506140b9565b600060ff8416158284111415612da0575081611062565b5080611062565b68010000000000000000900467ffffffffffffffff1690565b67ffffffffffffffff1690565b700100000000000000000000000000000000900467ffffffffffffffff1690565b60606000806060600080600080612e068d8d8d614156565b8a51604080518281526020808402820101909152929f509097508015612e36578160200160208202803883390190505b5094505b8b8d1015612fb157600680548e908110612e5057fe5b90600052602060002090600502019350836002015492508a831080612e7757506004840154155b15612e8157612fa6565b60008d81526007602052604090206013549092508d101580612ea3575081548b105b15612ede57612ed782600301548486600301548560050154866006015489600001601c9054906101000a900460ff166141db565b9050612f0c565b612f098b8486600301548560050154866006015489600001601c9054906101000a900460ff1661420b565b90505b6000811115612fa6576001820154612f2e908a90600160a060020a03166142e2565b9250612f638260030154612f57866004015461244085876002015461314d90919063ffffffff16565b9063ffffffff61432f16565b9050612f8d818685815181101515612f7757fe5b602090810290910101519063ffffffff61347116565b8584815181101515612f9b57fe5b602090810290910101525b6001909c019b612e3a565b612fbf8d8d8d8d8d8a614371565b9d959c50949a5050505050505050505050565b60008082118015612fe557506006548211155b151561303b576040805160e560020a62461bcd02815260206004820152601660248201527f6f7074696f6e206964206973206e6f7420657869737400000000000000000000604482015290519081900360640190fd5b60068054600019840190811061304d57fe5b90600052602060002090600502019050919050565b60808101514210611921576040805160e560020a62461bcd02815260206004820152601160248201527f6f7074696f6e2069732065787069726564000000000000000000000000000000604482015290519081900360640190fd5b60c0820151811115611410576040805160e560020a62461bcd02815260206004820152601d60248201527f6f7074696f6e20616d6f756e7420697320696e73756666696369656e74000000604482015290519081900360640190fd5b600060ff841615828411141561313157506000611062565b60ff84161561314257818303613146565b8282035b9050611062565b60008083151561316057600091506131f0565b5082820282848281151561317057fe5b04146131ec576040805160e560020a62461bcd02815260206004820152602160248201527f536166654d6174683a206d756c7469706c69636174696f6e206f766572666c6f60448201527f7700000000000000000000000000000000000000000000000000000000000000606482015290519081900360840190fd5b8091505b5092915050565b600a5460009081908190819060a060020a900463ffffffff16600b82015481151561321e57fe5b600a54919004925060a060020a900463ffffffff16600b6001015481151561324257fe5b0460010190505b8082101561327e576000828152600e602052604090205461327190849063ffffffff61347116565b9250600190910190613249565b509092915050565b6001546040805182815260208084028201019091526060919082906000908380156132bb578160200160208202803883390190505b509150600090505b828110156131f05760035460018054600160a060020a039092169163da6632579190849081106132ef57fe5b90600052602060002090600891828204019190066004029054906101000a900463ffffffff166040518263ffffffff1660e060020a028152600401808263ffffffff168152602001915050602060405180830381600087803b15801561335457600080fd5b505af1158015613368573d6000803e3d6000fd5b505050506040513d602081101561337e57600080fd5b5051825183908390811061338e57fe5b602090810290910101526001016132c3565b6000611e39600180548060200260200160405190810160405280929190818152602001828054801561341d57602002820191906000526020600020906000905b82829054906101000a900463ffffffff1663ffffffff16815260200190600401906020826003010492830192600103820291508084116133e05790505b505050505083614597565b600080428460800151111580613440575060c0840151155b1561344e57600091506131f0565b6134698460c0015161244086604001518760a0015187612d89565b949350505050565b6000828201838110156131ec576040805160e560020a62461bcd02815260206004820152601b60248201527f536166654d6174683a206164646974696f6e206f766572666c6f770000000000604482015290519081900360640190fd5b600061105f8361244086604001518760a0015186612d89565b80600160a060020a03168260200151600160a060020a0316141515611410576040805160e560020a62461bcd02815260206004820152601f60248201527f63616c6c6572206973206e6f7420746865206f7074696f6e73206f776e657200604482015290519081900360640190fd5b6135af828054806020026020016040519081016040528092919081815260200182805480156135a457602002820191906000526020600020905b815481526020019060010190808311613590575b505050505082613a80565b15156114105781546001810183556000928352602090922090910155565b8154600090815b81811015613609578385828154811015156135eb57fe5b9060005260206000200154141561360157613609565b6001016135d4565b8181101561366d576000198201811461365357846001830381548110151561362d57fe5b9060005260206000200154858281548110151561364657fe5b6000918252602090912001555b84546136638660001983016147d8565b5060019250613672565b600092505b505092915050565b60a08301516080840151600554606086015160408088015181517fb4277bc100000000000000000000000000000000000000000000000000000000815263ffffffff909316600484015260ff16602483015242909303604482018190526064820185905283519093600093849384938493600160a060020a039093169263b4277bc1926084808201939182900301818787803b15801561371957600080fd5b505af115801561372d573d6000803e3d6000fd5b505050506040513d604081101561374357600080fd5b5080516020918201516004805460408e810151815160e060020a63055ef6ab0281529384018d9052602484018d9052604484018c9052606484018690526084840185905260ff1660a484015251939850919650600160a060020a039091169263055ef6ab9260c4808401938290030181600087803b1580156137c457600080fd5b505af11580156137d8573d6000803e3d6000fd5b505050506040513d60208110156137ee57600080fd5b5051600354604080517f41976e09000000000000000000000000000000000000000000000000000000008152600160a060020a038c8116600483015291519395506138989391909216916341976e099160248083019260209291908290030181600087803b15801561385f57600080fd5b505af1158015613873573d6000803e3d6000fd5b505050506040513d602081101561388957600080fd5b5051839063ffffffff61432f16565b6040805160e081018252428152600160a060020a039a8b16602080830191825282840194855260608301968752608083019b8c5260a0830198895260c083019788529c516000190167ffffffffffffffff1660009081526007909d5291909b209a518b555160018b018054600160a060020a03191691909a161790985550955160028801559451600387015592516004860155505051600583015551600690910155565b600b54600090819080851180159060609084908190819061395b578599505b613963613286565b9350600092505b888a1015613a665761398460068b81548110151561197557fe5b9150613a2d60068b81548110151561399857fe5b60009182526020918290206040805160e081018252600593909302909101805467ffffffffffffffff81168452680100000000000000008104600160a060020a03169484019490945260e060020a90930460ff1690820152600182015463ffffffff16606082015260028201546080820152600382015460a082015260049091015460c08201528551869085908110611a4057fe5b9050848015613a3c5750600081115b15613a4957899550600094505b613a59838263ffffffff61347116565b6001909a0199925061396a565b8415613a70578995505b5090989397509295505050505050565b8151600090815b8181101561366d57838582815181101515613a9e57fe5b906020019060200201511415613ab75760019250613672565b600101613a87565b613b4482805480602002602001604051908101604052809291908181526020018280548015613b3957602002820191906000526020600020906000905b82829054906101000a900463ffffffff1663ffffffff1681526020019060040190602082600301049283019260010382029150808411613afc5790505b505050505082613c7f565b1515611410578154600181018355600092835260209092206008830401805460079093166004026101000a63ffffffff818102199094169290931692909202179055565b8154600090815b81811015613be3578363ffffffff168582815481101515613bac57fe5b6000918252602090912060088204015460079091166004026101000a900463ffffffff161415613bdb57613be3565b600101613b8f565b8181101561366d5760001982018114613c6f578460018303815481101515613c0757fe5b90600052602060002090600891828204019190066004029054906101000a900463ffffffff168582815481101515613c3b57fe5b90600052602060002090600891828204019190066004026101000a81548163ffffffff021916908363ffffffff1602179055505b8454613663866000198301614801565b8151600090815b8181101561366d578363ffffffff168582815181101515613ca357fe5b9060200190602002015163ffffffff161415613cc25760019250613672565b600101613c86565b6060806060600080600080601660008b8152602001908152602001600020805480602002602001604051908101604052809291908181526020018280548015613d3257602002820191906000526020600020905b815481526020019060010190808311613d1e575b505050505095508851604051908082528060200260200182016040528015613d64578160200160208202803883390190505b5094505b8a8c1015613f6857613d8260068d81548110151561197557fe5b9950613e2b60068d815481101515613d9657fe5b60009182526020918290206040805160e081018252600593909302909101805467ffffffffffffffff81168452680100000000000000008104600160a060020a03169484019490945260e060020a90930460ff1690820152600182015463ffffffff16606082015260028201546080820152600382015460a082015260049091015460c082015289518a908d908110611a4057fe5b6013549094508c10613e4e5760008c815260076020526040902060040154613e67565b858a815181101515613e5c57fe5b906020019060200201515b9250613f0860068d815481101515613e7b57fe5b60009182526020918290206040805160e081018252600593909302909101805467ffffffffffffffff81168452680100000000000000008104600160a060020a03169484019490945260e060020a90930460ff1690820152600182015463ffffffff16606082015260028201546080820152600382015460a082015260049091015460c082015284613428565b9150838214613f5d575060008b81526007602052604090206001810154613f39908a90600160a060020a03166142e2565b9950818403858b815181101515613f4c57fe5b602090810290910101805190910190525b6001909b019a613d68565b50929a9950505050505050505050565b613f828282613c7f565b1515611410576040805160e560020a62461bcd02815260206004820152601f60248201527f77686974654c6973743a207573696e6720696e76616c69642075696e74333200604482015290519081900360640190fd5b600160a060020a038116151561405e576040805160e560020a62461bcd02815260206004820152602660248201527f4f776e61626c653a206e6577206f776e657220697320746865207a65726f206160448201527f6464726573730000000000000000000000000000000000000000000000000000606482015290519081900360840190fd5b60008054604051600160a060020a03808516939216917f8be0079c531659141344cd1fd0a4f28419497f9722a3daafe3b4186f6b6457e091a360008054600160a060020a031916600160a060020a0392909216919091179055565b600080828585111561414c5760405160e560020a62461bcd0281526004018080602001828103825283818151815260200191508051906020019080838360005b838110156141115781810151838201526020016140f9565b50505050905090810190601f16801561413e5780820380516001836020036101000a031916815260200191505b509250505060405180910390fd5b5050509103919050565b60125460009081908181871115614172578682935093506141d1565b8196505b858710156141ca57600680548890811061418c57fe5b9060005260206000209060050201905084816002015410806141b057506004810154155b156141ba576141bf565b6141ca565b600190960195614176565b8687935093505b5050935093915050565b6000806141eb87878787876145de565b90508088116141fb5760006141ff565b8088035b98975050505050505050565b600480546040805160e060020a63055ef6ab028152928301879052602483018790528888036044840152606483018690526084830185905260ff841660a48401525160009283928392600160a060020a039091169163055ef6ab9160c480830192602092919082900301818787803b15801561428657600080fd5b505af115801561429a573d6000803e3d6000fd5b505050506040513d60208110156142b057600080fd5b505191506142c188888888886145de565b90508082116142d15760006142d5565b8082035b9998505050505050505050565b8151600090815b818110156134695783600160a060020a0316858281518110151561430957fe5b90602001906020020151600160a060020a0316141561432757613469565b6001016142e9565b600061106283836040805190810160405280601a81526020017f536166654d6174683a206469766973696f6e206279207a65726f00000000000081525061469d565b6060600061437d614745565b60145491506000808080805b8a871015614585576000878152600f6020526040908190208151808301928390529160029082845b8154815260200190600101908083116143b157505050505095508d8660006002811015156143db57fe5b602002015110806143ed575085518d11155b156143f75761457a565b855160068054909190811061440857fe5b90600052602060002090600502019450846002015493508b84108061442f57506020860151155b156144395761457a565b855160009081526007602090815260408083206004805460038b0154600584015460068501548d54875160e060020a63055ef6ab0281529586018490526024860193909352428d0360448601526064850191909152608484015260e060020a900460ff1660a48301529251919750600160a060020a039092169363055ef6ab9360c480850194919392918390030190829087803b1580156144d957600080fd5b505af11580156144ed573d6000803e3d6000fd5b505050506040513d602081101561450357600080fd5b5051600384015490925061453190612f5788600160200201516002870154612440908763ffffffff61314d16565b600184015490925061454d908b90600160a060020a03166142e2565b9050614561828a83815181101515612f7757fe5b898281518110151561456f57fe5b602090810290910101525b600190960195614389565b50969c9b505050505050505050505050565b8151600090815b81811015613469578363ffffffff1685828151811015156145bb57fe5b9060200190602002015163ffffffff1614156145d657613469565b60010161459e565b60004286111561469057600480546040805160e060020a63055ef6ab028152928301889052602483018890524289036044840152606483018790526084830186905260ff851660a484015251600160a060020a039091169163055ef6ab9160c48083019260209291908290030181600087803b15801561465d57600080fd5b505af1158015614671573d6000803e3d6000fd5b505050506040513d602081101561468757600080fd5b50519050614694565b5060005b95945050505050565b600080828185116146f35760405160e560020a62461bcd028152600401808060200182810382528381815181526020019150805190602001908083836000838110156141115781810151838201526020016140f9565b5083858115156146ff57fe5b0495945050505050565b6040805160e081018252600080825260208201819052918101829052606081018290526080810182905260a0810182905260c081019190915290565b60408051808201825290600290829080388339509192915050565b826002810192821561478e579160200282015b8281111561478e578251825591602001919060010190614773565b5061479a929150614831565b5090565b82805482825590600052602060002090810192821561478e579160200282018281111561478e578251825591602001919060010190614773565b8154818355818111156147fc576000838152602090206147fc918101908301614831565b505050565b8154818355818111156147fc5760070160089004816007016008900483600052602060002091820191016147fc91905b6113a591905b8082111561479a576000815560010161483756004f776e61626c653a2063616c6c6572206973206e6f7420746865206f776e6572a165627a7a72305820be1140ee7ff3c8e7c44f59dc93a01406b400db448ca262e0c156bb4a725fb32800294f776e61626c653a2063616c6c6572206973206e6f7420746865206f776e6572",
  "source": "pragma solidity ^0.4.26;\r\nimport \"../OptionsPool.sol\";\r\ncontract OptionsPoolTest is OptionsPool {\r\n        constructor (address oracleAddr,address optionsPriceAddr,address ivAddress) OptionsPool(oracleAddr,optionsPriceAddr,ivAddress) public{\r\n    }\r\n    function getOptionsWorth(uint8 optType,uint256 strikePrice,uint256 underlyingPrice) public pure returns(uint256){\r\n        return _getOptionsWorth(optType,strikePrice,underlyingPrice);\r\n    }\r\n    function getOptionsPayback(uint8 optType,uint256 strikePrice,uint256 underlyingPrice)public pure returns(uint256){\r\n         return _getOptionsPayback(optType,strikePrice,underlyingPrice);\r\n    }\r\n}\r\n\r\n",
  "sourcePath": "C:\\work\\solidity\\FinnexusOptions_V2\\contracts\\test\\optionPoolTest.sol",
  "compiler": {
    "name": "solc",
    "version": "0.4.26+commit.4563c3fc.Emscripten.clang"
  },
  "schemaVersion": "3.1.0",
  "updatedAt": "2020-07-27T01:12:31.089Z",
  "networkType": "ethereum",
  "devdoc": {
    "methods": {
      "addExpiration(uint256)": {
        "details": "Implementation of add an eligible expiration into the expirationList.\r",
        "params": {
          "expiration": "new eligible expiration.\r"
        }
      },
      "addUnderlyingAsset(uint32)": {
        "details": "Implementation of add an eligible underlying into the underlyingAssets.\r",
        "params": {
          "underlying": "new eligible underlying.\r"
        }
      },
      "getExpirationList()": {
        "details": "Implementation of getting the eligible expirationList.\r"
      },
      "getUnderlyingAssets()": {
        "details": "Implementation of getting the eligible underlyingAssets.\r"
      },
      "isEligibleExpiration(uint256)": {
        "details": "Implementation of testing whether the input expiration is eligible.\r",
        "params": {
          "expiration": "input expiration for testing.\r"
        }
      },
      "isEligibleUnderlyingAsset(uint32)": {
        "details": "Implementation of testing whether the input underlying is eligible.\r",
        "params": {
          "underlying": "input underlying for testing.\r"
        }
      },
      "isOwner()": {
        "details": "Returns true if the caller is the current owner."
      },
      "owner()": {
        "details": "Returns the address of the current owner."
      },
      "removeExpirationList(uint256)": {
        "details": "Implementation of revoke an invalid expiration from the expirationList.\r",
        "params": {
          "removeExpiration": "revoked expiration.\r"
        }
      },
      "removeUnderlyingAssets(uint32)": {
        "details": "Implementation of revoke an invalid underlying from the underlyingAssets.\r",
        "params": {
          "removeUnderlying": "revoked underlying.\r"
        }
      },
      "renounceOwnership()": {
        "details": "Leaves the contract without owner. It will not be possible to call `onlyOwner` functions anymore. Can only be called by the current owner.     * NOTE: Renouncing ownership will leave the contract without an owner, thereby removing any functionality that is only available to the owner."
      },
      "transferOwnership(address)": {
        "details": "Transfers ownership of the contract to a new account (`newOwner`). Can only be called by the current owner."
      }
    }
  },
  "userdoc": {
    "methods": {
      "setManager(address)": {
        "notice": "contribution period to stop or not."
      },
      "setOperator(address)": {
        "notice": "contribution period to stop or not."
      }
    }
  }
}