{
  "contractName": "OptionsOccupiedCal",
  "abi": [
    {
      "anonymous": false,
      "inputs": [
        {
          "indexed": true,
          "internalType": "address",
          "name": "owner",
          "type": "address"
        },
        {
          "indexed": true,
          "internalType": "uint256",
          "name": "optionID",
          "type": "uint256"
        },
        {
          "indexed": false,
          "internalType": "uint256",
          "name": "amount",
          "type": "uint256"
        }
      ],
      "name": "BurnOption",
      "type": "event"
    },
    {
      "anonymous": false,
      "inputs": [
        {
          "indexed": true,
          "internalType": "address",
          "name": "owner",
          "type": "address"
        },
        {
          "indexed": true,
          "internalType": "uint256",
          "name": "optionID",
          "type": "uint256"
        },
        {
          "indexed": false,
          "internalType": "uint8",
          "name": "optType",
          "type": "uint8"
        },
        {
          "indexed": false,
          "internalType": "uint32",
          "name": "underlying",
          "type": "uint32"
        },
        {
          "indexed": false,
          "internalType": "uint256",
          "name": "expiration",
          "type": "uint256"
        },
        {
          "indexed": false,
          "internalType": "uint256",
          "name": "strikePrice",
          "type": "uint256"
        },
        {
          "indexed": false,
          "internalType": "uint256",
          "name": "amount",
          "type": "uint256"
        }
      ],
      "name": "CreateOption",
      "type": "event"
    },
    {
      "anonymous": false,
      "inputs": [
        {
          "indexed": true,
          "internalType": "address",
          "name": "previousOwner",
          "type": "address"
        },
        {
          "indexed": true,
          "internalType": "address",
          "name": "newOwner",
          "type": "address"
        }
      ],
      "name": "OwnershipTransferred",
      "type": "event"
    },
    {
      "constant": false,
      "inputs": [
        {
          "internalType": "uint256",
          "name": "expiration",
          "type": "uint256"
        }
      ],
      "name": "addExpiration",
      "outputs": [],
      "payable": false,
      "stateMutability": "nonpayable",
      "type": "function"
    },
    {
      "constant": false,
      "inputs": [
        {
          "internalType": "address",
          "name": "addAddress",
          "type": "address"
        }
      ],
      "name": "addOperator",
      "outputs": [],
      "payable": false,
      "stateMutability": "nonpayable",
      "type": "function"
    },
    {
      "constant": false,
      "inputs": [
        {
          "internalType": "uint32",
          "name": "underlying",
          "type": "uint32"
        }
      ],
      "name": "addUnderlyingAsset",
      "outputs": [],
      "payable": false,
      "stateMutability": "nonpayable",
      "type": "function"
    },
    {
      "constant": true,
      "inputs": [
        {
          "internalType": "uint256",
          "name": "expiration",
          "type": "uint256"
        },
        {
          "internalType": "uint32",
          "name": "underlying",
          "type": "uint32"
        }
      ],
      "name": "buyOptionCheck",
      "outputs": [],
      "payable": false,
      "stateMutability": "view",
      "type": "function"
    },
    {
      "constant": true,
      "inputs": [
        {
          "internalType": "uint256",
          "name": "expiration",
          "type": "uint256"
        }
      ],
      "name": "checkExpiration",
      "outputs": [],
      "payable": false,
      "stateMutability": "view",
      "type": "function"
    },
    {
      "constant": true,
      "inputs": [],
      "name": "getBurnTimeLimit",
      "outputs": [
        {
          "internalType": "uint256",
          "name": "",
          "type": "uint256"
        }
      ],
      "payable": false,
      "stateMutability": "view",
      "type": "function"
    },
    {
      "constant": true,
      "inputs": [
        {
          "internalType": "uint256",
          "name": "optionID",
          "type": "uint256"
        },
        {
          "internalType": "uint256",
          "name": "amount",
          "type": "uint256"
        }
      ],
      "name": "getBurnedFullPay",
      "outputs": [
        {
          "internalType": "address",
          "name": "",
          "type": "address"
        },
        {
          "internalType": "uint256",
          "name": "",
          "type": "uint256"
        }
      ],
      "payable": false,
      "stateMutability": "view",
      "type": "function"
    },
    {
      "constant": true,
      "inputs": [
        {
          "internalType": "uint256",
          "name": "optionsId",
          "type": "uint256"
        },
        {
          "internalType": "uint256",
          "name": "amount",
          "type": "uint256"
        }
      ],
      "name": "getExerciseWorth",
      "outputs": [
        {
          "internalType": "uint256",
          "name": "",
          "type": "uint256"
        }
      ],
      "payable": false,
      "stateMutability": "view",
      "type": "function"
    },
    {
      "constant": true,
      "inputs": [],
      "name": "getExpirationList",
      "outputs": [
        {
          "internalType": "uint256[]",
          "name": "",
          "type": "uint256[]"
        }
      ],
      "payable": false,
      "stateMutability": "view",
      "type": "function"
    },
    {
      "constant": true,
      "inputs": [],
      "name": "getManager",
      "outputs": [
        {
          "internalType": "address",
          "name": "",
          "type": "address"
        }
      ],
      "payable": false,
      "stateMutability": "view",
      "type": "function"
    },
    {
      "constant": true,
      "inputs": [],
      "name": "getOperator",
      "outputs": [
        {
          "internalType": "address[]",
          "name": "",
          "type": "address[]"
        }
      ],
      "payable": false,
      "stateMutability": "view",
      "type": "function"
    },
    {
      "constant": true,
      "inputs": [],
      "name": "getOptionInfoLength",
      "outputs": [
        {
          "internalType": "uint256",
          "name": "",
          "type": "uint256"
        }
      ],
      "payable": false,
      "stateMutability": "view",
      "type": "function"
    },
    {
      "constant": true,
      "inputs": [
        {
          "internalType": "uint256",
          "name": "from",
          "type": "uint256"
        },
        {
          "internalType": "uint256",
          "name": "size",
          "type": "uint256"
        }
      ],
      "name": "getOptionInfoList",
      "outputs": [
        {
          "internalType": "address[]",
          "name": "",
          "type": "address[]"
        },
        {
          "internalType": "uint256[]",
          "name": "",
          "type": "uint256[]"
        },
        {
          "internalType": "uint256[]",
          "name": "",
          "type": "uint256[]"
        },
        {
          "internalType": "uint256[]",
          "name": "",
          "type": "uint256[]"
        },
        {
          "internalType": "uint256[]",
          "name": "",
          "type": "uint256[]"
        }
      ],
      "payable": false,
      "stateMutability": "view",
      "type": "function"
    },
    {
      "constant": true,
      "inputs": [
        {
          "internalType": "uint256[]",
          "name": "ids",
          "type": "uint256[]"
        }
      ],
      "name": "getOptionInfoListFromID",
      "outputs": [
        {
          "internalType": "address[]",
          "name": "",
          "type": "address[]"
        },
        {
          "internalType": "uint256[]",
          "name": "",
          "type": "uint256[]"
        },
        {
          "internalType": "uint256[]",
          "name": "",
          "type": "uint256[]"
        },
        {
          "internalType": "uint256[]",
          "name": "",
          "type": "uint256[]"
        },
        {
          "internalType": "uint256[]",
          "name": "",
          "type": "uint256[]"
        }
      ],
      "payable": false,
      "stateMutability": "view",
      "type": "function"
    },
    {
      "constant": true,
      "inputs": [
        {
          "internalType": "uint256",
          "name": "optionsId",
          "type": "uint256"
        }
      ],
      "name": "getOptionsById",
      "outputs": [
        {
          "internalType": "uint256",
          "name": "",
          "type": "uint256"
        },
        {
          "internalType": "address",
          "name": "",
          "type": "address"
        },
        {
          "internalType": "uint8",
          "name": "",
          "type": "uint8"
        },
        {
          "internalType": "uint32",
          "name": "",
          "type": "uint32"
        },
        {
          "internalType": "uint256",
          "name": "",
          "type": "uint256"
        },
        {
          "internalType": "uint256",
          "name": "",
          "type": "uint256"
        },
        {
          "internalType": "uint256",
          "name": "",
          "type": "uint256"
        }
      ],
      "payable": false,
      "stateMutability": "view",
      "type": "function"
    },
    {
      "constant": true,
      "inputs": [
        {
          "internalType": "uint256",
          "name": "optionsId",
          "type": "uint256"
        }
      ],
      "name": "getOptionsExtraById",
      "outputs": [
        {
          "internalType": "uint256",
          "name": "",
          "type": "uint256"
        },
        {
          "internalType": "address",
          "name": "",
          "type": "address"
        },
        {
          "internalType": "uint256",
          "name": "",
          "type": "uint256"
        },
        {
          "internalType": "uint256",
          "name": "",
          "type": "uint256"
        },
        {
          "internalType": "uint256",
          "name": "",
          "type": "uint256"
        },
        {
          "internalType": "uint256",
          "name": "",
          "type": "uint256"
        },
        {
          "internalType": "uint256",
          "name": "",
          "type": "uint256"
        }
      ],
      "payable": false,
      "stateMutability": "view",
      "type": "function"
    },
    {
      "constant": true,
      "inputs": [
        {
          "internalType": "uint256",
          "name": "optionsId",
          "type": "uint256"
        }
      ],
      "name": "getOptionsLimitTimeById",
      "outputs": [
        {
          "internalType": "uint256",
          "name": "",
          "type": "uint256"
        }
      ],
      "payable": false,
      "stateMutability": "view",
      "type": "function"
    },
    {
      "constant": true,
      "inputs": [],
      "name": "getOptionsPriceAddress",
      "outputs": [
        {
          "internalType": "address",
          "name": "",
          "type": "address"
        }
      ],
      "payable": false,
      "stateMutability": "view",
      "type": "function"
    },
    {
      "constant": true,
      "inputs": [],
      "name": "getOracleAddress",
      "outputs": [
        {
          "internalType": "address",
          "name": "",
          "type": "address"
        }
      ],
      "payable": false,
      "stateMutability": "view",
      "type": "function"
    },
    {
      "constant": true,
      "inputs": [],
      "name": "getUnderlyingAssets",
      "outputs": [
        {
          "internalType": "uint32[]",
          "name": "",
          "type": "uint32[]"
        }
      ],
      "payable": false,
      "stateMutability": "view",
      "type": "function"
    },
    {
      "constant": true,
      "inputs": [
        {
          "internalType": "address",
          "name": "user",
          "type": "address"
        }
      ],
      "name": "getUserOptionsID",
      "outputs": [
        {
          "internalType": "uint256[]",
          "name": "",
          "type": "uint256[]"
        }
      ],
      "payable": false,
      "stateMutability": "view",
      "type": "function"
    },
    {
      "constant": true,
      "inputs": [
        {
          "internalType": "address",
          "name": "user",
          "type": "address"
        },
        {
          "internalType": "uint256",
          "name": "from",
          "type": "uint256"
        },
        {
          "internalType": "uint256",
          "name": "size",
          "type": "uint256"
        }
      ],
      "name": "getUserOptionsID",
      "outputs": [
        {
          "internalType": "uint256[]",
          "name": "",
          "type": "uint256[]"
        }
      ],
      "payable": false,
      "stateMutability": "view",
      "type": "function"
    },
    {
      "constant": true,
      "inputs": [],
      "name": "getVolatilityAddress",
      "outputs": [
        {
          "internalType": "address",
          "name": "",
          "type": "address"
        }
      ],
      "payable": false,
      "stateMutability": "view",
      "type": "function"
    },
    {
      "constant": false,
      "inputs": [],
      "name": "initialize",
      "outputs": [],
      "payable": false,
      "stateMutability": "nonpayable",
      "type": "function"
    },
    {
      "constant": true,
      "inputs": [
        {
          "internalType": "uint256",
          "name": "expiration",
          "type": "uint256"
        }
      ],
      "name": "isEligibleExpiration",
      "outputs": [
        {
          "internalType": "bool",
          "name": "",
          "type": "bool"
        }
      ],
      "payable": false,
      "stateMutability": "view",
      "type": "function"
    },
    {
      "constant": true,
      "inputs": [
        {
          "internalType": "uint32",
          "name": "underlying",
          "type": "uint32"
        }
      ],
      "name": "isEligibleUnderlyingAsset",
      "outputs": [
        {
          "internalType": "bool",
          "name": "",
          "type": "bool"
        }
      ],
      "payable": false,
      "stateMutability": "view",
      "type": "function"
    },
    {
      "constant": true,
      "inputs": [],
      "name": "isOwner",
      "outputs": [
        {
          "internalType": "bool",
          "name": "",
          "type": "bool"
        }
      ],
      "payable": false,
      "stateMutability": "view",
      "type": "function"
    },
    {
      "constant": true,
      "inputs": [],
      "name": "owner",
      "outputs": [
        {
          "internalType": "address",
          "name": "",
          "type": "address"
        }
      ],
      "payable": false,
      "stateMutability": "view",
      "type": "function"
    },
    {
      "constant": false,
      "inputs": [
        {
          "internalType": "uint256",
          "name": "removeExpiration",
          "type": "uint256"
        }
      ],
      "name": "removeExpirationList",
      "outputs": [
        {
          "internalType": "bool",
          "name": "",
          "type": "bool"
        }
      ],
      "payable": false,
      "stateMutability": "nonpayable",
      "type": "function"
    },
    {
      "constant": false,
      "inputs": [
        {
          "internalType": "address",
          "name": "removeAddress",
          "type": "address"
        }
      ],
      "name": "removeOperator",
      "outputs": [
        {
          "internalType": "bool",
          "name": "",
          "type": "bool"
        }
      ],
      "payable": false,
      "stateMutability": "nonpayable",
      "type": "function"
    },
    {
      "constant": false,
      "inputs": [
        {
          "internalType": "uint32",
          "name": "removeUnderlying",
          "type": "uint32"
        }
      ],
      "name": "removeUnderlyingAssets",
      "outputs": [
        {
          "internalType": "bool",
          "name": "",
          "type": "bool"
        }
      ],
      "payable": false,
      "stateMutability": "nonpayable",
      "type": "function"
    },
    {
      "constant": false,
      "inputs": [],
      "name": "renounceOwnership",
      "outputs": [],
      "payable": false,
      "stateMutability": "nonpayable",
      "type": "function"
    },
    {
      "constant": false,
      "inputs": [
        {
          "internalType": "uint256",
          "name": "timeLimit",
          "type": "uint256"
        }
      ],
      "name": "setBurnTimeLimit",
      "outputs": [],
      "payable": false,
      "stateMutability": "nonpayable",
      "type": "function"
    },
    {
      "constant": false,
      "inputs": [
        {
          "internalType": "address",
          "name": "managerAddress",
          "type": "address"
        }
      ],
      "name": "setManager",
      "outputs": [],
      "payable": false,
      "stateMutability": "nonpayable",
      "type": "function"
    },
    {
      "constant": false,
      "inputs": [
        {
          "internalType": "address[]",
          "name": "operators",
          "type": "address[]"
        }
      ],
      "name": "setOperator",
      "outputs": [],
      "payable": false,
      "stateMutability": "nonpayable",
      "type": "function"
    },
    {
      "constant": false,
      "inputs": [
        {
          "internalType": "uint256",
          "name": "index",
          "type": "uint256"
        },
        {
          "internalType": "address",
          "name": "addAddress",
          "type": "address"
        }
      ],
      "name": "setOperator",
      "outputs": [],
      "payable": false,
      "stateMutability": "nonpayable",
      "type": "function"
    },
    {
      "constant": false,
      "inputs": [
        {
          "internalType": "address",
          "name": "optionsPrice",
          "type": "address"
        }
      ],
      "name": "setOptionsPriceAddress",
      "outputs": [],
      "payable": false,
      "stateMutability": "nonpayable",
      "type": "function"
    },
    {
      "constant": false,
      "inputs": [
        {
          "internalType": "address",
          "name": "oracle",
          "type": "address"
        }
      ],
      "name": "setOracleAddress",
      "outputs": [],
      "payable": false,
      "stateMutability": "nonpayable",
      "type": "function"
    },
    {
      "constant": false,
      "inputs": [
        {
          "internalType": "address",
          "name": "volatility",
          "type": "address"
        }
      ],
      "name": "setVolatilityAddress",
      "outputs": [],
      "payable": false,
      "stateMutability": "nonpayable",
      "type": "function"
    },
    {
      "constant": false,
      "inputs": [
        {
          "internalType": "address",
          "name": "newOwner",
          "type": "address"
        }
      ],
      "name": "transferOwnership",
      "outputs": [],
      "payable": false,
      "stateMutability": "nonpayable",
      "type": "function"
    },
    {
      "constant": true,
      "inputs": [],
      "name": "getOccupiedCalInfo",
      "outputs": [
        {
          "internalType": "uint256",
          "name": "",
          "type": "uint256"
        },
        {
          "internalType": "int256",
          "name": "",
          "type": "int256"
        }
      ],
      "payable": false,
      "stateMutability": "view",
      "type": "function"
    },
    {
      "constant": false,
      "inputs": [],
      "name": "setOccupiedCollateral",
      "outputs": [],
      "payable": false,
      "stateMutability": "nonpayable",
      "type": "function"
    },
    {
      "constant": true,
      "inputs": [
        {
          "internalType": "uint256",
          "name": "lastOption",
          "type": "uint256"
        },
        {
          "internalType": "uint256",
          "name": "beginOption",
          "type": "uint256"
        },
        {
          "internalType": "uint256",
          "name": "endOption",
          "type": "uint256"
        }
      ],
      "name": "calculatePhaseOccupiedCollateral",
      "outputs": [
        {
          "internalType": "uint256",
          "name": "",
          "type": "uint256"
        },
        {
          "internalType": "uint256",
          "name": "",
          "type": "uint256"
        },
        {
          "internalType": "bool",
          "name": "",
          "type": "bool"
        }
      ],
      "payable": false,
      "stateMutability": "view",
      "type": "function"
    },
    {
      "constant": false,
      "inputs": [
        {
          "internalType": "uint256",
          "name": "totalOccupied",
          "type": "uint256"
        },
        {
          "internalType": "uint256",
          "name": "beginOption",
          "type": "uint256"
        },
        {
          "internalType": "int256",
          "name": "latestOccpied",
          "type": "int256"
        }
      ],
      "name": "setCollateralPhase",
      "outputs": [],
      "payable": false,
      "stateMutability": "nonpayable",
      "type": "function"
    },
    {
      "constant": true,
      "inputs": [],
      "name": "getTotalOccupiedCollateral",
      "outputs": [
        {
          "internalType": "uint256",
          "name": "",
          "type": "uint256"
        }
      ],
      "payable": false,
      "stateMutability": "view",
      "type": "function"
    }
  ],
  "bytecode": "0x6080604052610e10600b556200001d64010000000062000023810204565b620001ed565b6040805160e0810182526201518081526203f480602082015262093a8091810191909152620d2f0060608201526213c680608082015262278d0060a08201526276a70060c08201526200007b90600a906007620000a3565b50604080518082019091526001808252600260208301819052620000a09290620000fa565b50565b828054828255906000526020600020908101928215620000e8579160200282015b82811115620000e8578251829062ffffff16905591602001919060010190620000c4565b50620000f6929150620001a9565b5090565b828054828255906000526020600020906007016008900481019282156200019b5791602002820160005b838211156200016757835183826101000a81548163ffffffff021916908360ff160217905550926020019260040160208160030104928301926001030262000124565b8015620001995782816101000a81549063ffffffff021916905560040160208160030104928301926001030262000167565b505b50620000f6929150620001c9565b620001c691905b80821115620000f65760008155600101620001b0565b90565b620001c691905b80821115620000f657805463ffffffff19168155600101620001d0565b612f9c80620001fd6000396000f3fe608060405234801561001057600080fd5b50600436106102835760003560e060020a900480637e838fa311610160578063bec3107f116100d2578063e7a1c1c01161008b578063e7a1c1c014610a36578063e7c5681514610a62578063e7f43c6814610a88578063f2fde38b14610a90578063f504e2f014610ab6578063f7de192314610abe57610283565b8063bec3107f1461099d578063c5acbe15146109a5578063d0ebdbe7146109c2578063d5009584146109e8578063d6d14012146109f0578063db6ad2bd14610a1357610283565b80639870d7fe116101245780639870d7fe146108e35780639ef975d214610909578063a093e2d014610926578063ac8a584a1461094c578063afec82fc14610972578063b18b78dd1461099557610283565b80637e838fa3146108925780638129fc1c146108c35780638da5cb5b146108cb5780638f32d59b146108d35780639052d5f8146108db57610283565b806348ee201d116101f957806367b8ceb9116101bd57806367b8ceb9146108085780636d84e2e31461082b578063715018a614610848578063723931ca1461085057806373a3d4241461086d5780637cfff2d81461087557610283565b806348ee201d146107165780634c69c00f1461077a578063597ce900146107a05780635ca4b73b146107e657806364ed3017146107ee57610283565b80632967eafe1161024b5780632967eafe14610505578063354af3601461052b5780633582d789146105ce5780633ad2fb571461062657806342082c1e1461064f57806342e5479d146106f257610283565b80630438d4901461028857806307af14781461041357806309057622146104705780630c3725711461049157806312039cc2146104da575b600080fd5b6102ab6004803603604081101561029e57600080fd5b5080359060200135610af0565b60405180806020018060200180602001806020018060200186810386528b818151815260200191508051906020019060200280838360005b838110156102fb5781810151838201526020016102e3565b5050505090500186810385528a818151815260200191508051906020019060200280838360005b8381101561033a578181015183820152602001610322565b50505050905001868103845289818151815260200191508051906020019060200280838360005b83811015610379578181015183820152602001610361565b50505050905001868103835288818151815260200191508051906020019060200280838360005b838110156103b85781810151838201526020016103a0565b50505050905001868103825287818151815260200191508051906020019060200280838360005b838110156103f75781810151838201526020016103df565b505050509050019a505050505050505050505060405180910390f35b6104306004803603602081101561042957600080fd5b5035610d2a565b60408051978852600160a060020a039096166020880152868601949094526060860192909252608085015260a084015260c0830152519081900360e00190f35b610478610de8565b6040805192835260208301919091528051918290030190f35b6104ba600480360360608110156104a757600080fd5b5080359060208101359060400135610df2565b604080519384526020840192909252151582820152519081900360600190f35b610503600480360360608110156104f057600080fd5b5080359060208101359060400135610e66565b005b6105036004803603602081101561051b57600080fd5b5035600160a060020a0316610f05565b6102ab6004803603602081101561054157600080fd5b81019060208101813564010000000081111561055c57600080fd5b82018360208201111561056e57600080fd5b8035906020019184602083028401116401000000008311171561059057600080fd5b919080806020026020016040519081016040528093929190818152602001838360200280828437600092019190915250929550610f71945050505050565b6105d6611184565b60408051602080825283518183015283519192839290830191858101910280838360005b838110156106125781810151838201526020016105fa565b505050509050019250505060405180910390f35b6105036004803603604081101561063c57600080fd5b508035906020013563ffffffff16611209565b6105036004803603602081101561066557600080fd5b81019060208101813564010000000081111561068057600080fd5b82018360208201111561069257600080fd5b803590602001918460208302840111640100000000831117156106b457600080fd5b919080806020026020016040519081016040528093929190818152602001838360200280828437600092019190915250929550611273945050505050565b6106fa6112d0565b60408051600160a060020a039092168252519081900360200190f35b6107336004803603602081101561072c57600080fd5b50356112df565b60408051978852600160a060020a03909616602088015260ff9094168686015263ffffffff9092166060860152608085015260a084015260c0830152519081900360e00190f35b6105036004803603602081101561079057600080fd5b5035600160a060020a0316611353565b6107c3600480360360408110156107b657600080fd5b50803590602001356113bf565b60408051600160a060020a03909316835260208301919091528051918290030190f35b6106fa61142d565b6107f661143c565b60408051918252519081900360200190f35b6107f66004803603604081101561081e57600080fd5b5080359060200135611442565b6107f66004803603602081101561084157600080fd5b50356115c2565b610503611647565b6105036004803603602081101561086657600080fd5b50356116db565b6107f6611725565b6105036004803603602081101561088b57600080fd5b5035611779565b6108af600480360360208110156108a857600080fd5b50356117d4565b604080519115158252519081900360200190f35b610503611831565b6106fa6118aa565b6108af6118b9565b6105d66118ca565b610503600480360360208110156108f957600080fd5b5035600160a060020a0316611921565b6108af6004803603602081101561091f57600080fd5b503561197c565b6105036004803603602081101561093c57600080fd5b5035600160a060020a03166119e1565b6108af6004803603602081101561096257600080fd5b5035600160a060020a0316611a4d565b6105036004803603602081101561098857600080fd5b503563ffffffff16611aaa565b6106fa611b05565b6107f6611b14565b610503600480360360208110156109bb57600080fd5b5035611b1a565b610503600480360360208110156109d857600080fd5b5035600160a060020a0316611b69565b6106fa611bd5565b6108af60048036036020811015610a0657600080fd5b503563ffffffff16611be4565b6108af60048036036020811015610a2957600080fd5b503563ffffffff16611c41565b61050360048036036040811015610a4c57600080fd5b5080359060200135600160a060020a0316611cd2565b6105d660048036036020811015610a7857600080fd5b5035600160a060020a0316611d5c565b6105d6611dc8565b61050360048036036020811015610aa657600080fd5b5035600160a060020a0316611e29565b610503611e7c565b6105d660048036036060811015610ad457600080fd5b50600160a060020a038135169060208101359060400135611f32565b60608060608060606007805490508688011115610b1d57600754610b1a908863ffffffff61201716565b95505b8515610d2057606086604051908082528060200260200182016040528015610b4f578160200160208202803883390190505b509050606087604051908082528060200260200182016040528015610b7e578160200160208202803883390190505b509050606088604051908082528060200260200182016040528015610bad578160200160208202803883390190505b509050606089604051908082528060200260200182016040528015610bdc578160200160208202803883390190505b50905060608a604051908082528060200260200182016040528015610c0b578160200160208202803883390190505b50905060005b8b811015610d125760006007828f0181548110610c2a57fe5b906000526020600020906005020190508060000160089054906101000a9004600160a060020a0316878381518110610c5e57fe5b600160a060020a03929092166020928302919091019091015280546001820154875160e060020a90920460ff1663ffffffff9182166201000002011690879084908110610ca757fe5b6020026020010181815250508060020154858381518110610cc457fe5b6020026020010181815250508060030154848381518110610ce157fe5b6020026020010181815250508060040154838381518110610cfe57fe5b602090810291909101015250600101610c11565b509398509196509450925090505b9295509295909350565b60008060008060008060008088118015610d4657506007548811155b610d9a576040805160e560020a62461bcd02815260206004820152601660248201527f6f7074696f6e206964206973206e6f7420657869737400000000000000000000604482015290519081900360640190fd5b5050506000948552505060086020525050604090208054600182015460028301546003840154600485015460058601546006909601549496600160a060020a03909416959294919390929190565b600e546010549091565b6000806000600e54851015610e0757600e5494505b858510610e1c57506000915081905080610e5d565b85841115610e2c57859350610e44565b600e54841015610e4457506000915081905080610e5d565b600080610e518787612072565b90955093506001925050505b93509350939050565b60065460009015801590610ea3575033600160a060020a031660068281548110610e8c57fe5b600091825260209091200154600160a060020a0316145b610ee15760405160e560020a62461bcd028152600401808060200182810382526030815260200180612ef76030913960400191505060405180910390fd5b600e54831115610ef157600e8390555b50600f929092555060108054919091039055565b610f0d6118b9565b610f4f576040805160e560020a62461bcd0281526020600482018190526024820152600080516020612f27833981519152604482015290519081900360640190fd5b60048054600160a060020a031916600160a060020a0392909216919091179055565b6060806060806060600086519050606081604051908082528060200260200182016040528015610fab578160200160208202803883390190505b509050606082604051908082528060200260200182016040528015610fda578160200160208202803883390190505b509050606083604051908082528060200260200182016040528015611009578160200160208202803883390190505b509050606084604051908082528060200260200182016040528015611038578160200160208202803883390190505b509050606085604051908082528060200260200182016040528015611067578160200160208202803883390190505b50905060005b868110156111705760006110938e838151811061108657fe5b60200260200101516121a6565b80548851919250680100000000000000009004600160a060020a0316908890849081106110bc57fe5b600160a060020a03929092166020928302919091019091015280546001820154875160e060020a90920460ff1663ffffffff918216620100000201169087908490811061110557fe5b602002602001018181525050806002015485838151811061112257fe5b602002602001018181525050806003015484838151811061113f57fe5b602002602001018181525050806004015483838151811061115c57fe5b60209081029190910101525060010161106d565b50939b929a50909850965090945092505050565b606060018054806020026020016040519081016040528092919081815260200182805480156111fe57602002820191906000526020600020906000905b82829054906101000a900463ffffffff1663ffffffff16815260200190600401906020826003010492830192600103820291508084116111c15790505b505050505090505b90565b61121281611c41565b611266576040805160e560020a62461bcd02815260206004820152601f60248201527f756e6465726c79696e6720697320756e737570706f7274656420617373657400604482015290519081900360640190fd5b61126f826116db565b5050565b61127b6118b9565b6112bd576040805160e560020a62461bcd0281526020600482018190526024820152600080516020612f27833981519152604482015290519081900360640190fd5b805161126f906006906020840190612c60565b600454600160a060020a031690565b6000806000806000806000806112f4896121a6565b805460018201546002830154600384015460049094015467ffffffffffffffff84169e680100000000000000008504600160a060020a03169e5060e060020a90940460ff169c5063ffffffff9092169a50985091965090945092505050565b61135b6118b9565b61139d576040805160e560020a62461bcd0281526020600482018190526024820152600080516020612f27833981519152604482015290519081900360640190fd5b60038054600160a060020a031916600160a060020a0392909216919091179055565b60001982016000908152600860205260408120600181015460028201546004830154849392600160a060020a031691670de0b6b3a76400009161141991889161140d9163ffffffff61223216565b9063ffffffff61223216565b8161142057fe5b0492509250509250929050565b600554600160a060020a031690565b600b5490565b600061144c612cc1565b611455846121a6565b6040805160e081018252825467ffffffffffffffff81168252680100000000000000008104600160a060020a0316602083015260e060020a900460ff1691810191909152600182015463ffffffff16606082015260028201546080820152600382015460a082015260049091015460c082015290506114d38161228b565b6114dd81846122e6565b6003546060820151604080517fda66325700000000000000000000000000000000000000000000000000000000815263ffffffff909216600483015251600092600160a060020a03169163da663257916024808301926020929190829003018186803b15801561154c57600080fd5b505afa158015611560573d6000803e3d6000fd5b505050506040513d602081101561157657600080fd5b5051604083015160a0840151919250600091611593919084612342565b9050806115a657600093505050506115bc565b6115b6818663ffffffff61223216565b93505050505b92915050565b600080821180156115d557506007548211155b611629576040805160e560020a62461bcd02815260206004820152601660248201527f6f7074696f6e206964206973206e6f7420657869737400000000000000000000604482015290519081900360640190fd5b50600b54600019820160009081526008602052604090205401919050565b61164f6118b9565b611691576040805160e560020a62461bcd0281526020600482018190526024820152600080516020612f27833981519152604482015290519081900360640190fd5b60008054604051600160a060020a03909116907f8be0079c531659141344cd1fd0a4f28419497f9722a3daafe3b4186f6b6457e0908390a360008054600160a060020a0319169055565b6116e48161197c565b6117225760405160e560020a62461bcd028152600401808060200182810382526021815260200180612f476021913960400191505060405180910390fd5b50565b6000806010541261174c57601054600f546117459163ffffffff61237616565b9050611206565b6000601054600003905080600f54111561176b57600f54039050611206565b6000915050611206565b5090565b6117816118b9565b6117c3576040805160e560020a62461bcd0281526020600482018190526024820152600080516020612f27833981519152604482015290519081900360640190fd5b611722600a8263ffffffff6123d116565b60006117de6118b9565b611820576040805160e560020a62461bcd0281526020600482018190526024820152600080516020612f27833981519152604482015290519081900360640190fd5b6115bc600a8363ffffffff61244616565b6040805160e0810182526201518081526203f480602082015262093a8091810191909152620d2f0060608201526213c680608082015262278d0060a08201526276a70060c082015261188790600a906007612cfd565b506040805180820190915260018082526002602083018190526117229290612d4b565b600054600160a060020a031690565b600054600160a060020a0316331490565b6060600a8054806020026020016040519081016040528092919081815260200182805480156111fe57602002820191906000526020600020905b815481526020019060010190808311611904575050505050905090565b6119296118b9565b61196b576040805160e560020a62461bcd0281526020600482018190526024820152600080516020612f27833981519152604482015290519081900360640190fd5b61172260068263ffffffff6124ec16565b60006115bc82600a8054806020026020016040519081016040528092919081815260200182805480156119ce57602002820191906000526020600020905b8154815260200190600101908083116119ba575b505050505061258490919063ffffffff16565b6119e96118b9565b611a2b576040805160e560020a62461bcd0281526020600482018190526024820152600080516020612f27833981519152604482015290519081900360640190fd5b60058054600160a060020a031916600160a060020a0392909216919091179055565b6000611a576118b9565b611a99576040805160e560020a62461bcd0281526020600482018190526024820152600080516020612f27833981519152604482015290519081900360640190fd5b6115bc60068363ffffffff6125c116565b611ab26118b9565b611af4576040805160e560020a62461bcd0281526020600482018190526024820152600080516020612f27833981519152604482015290519081900360640190fd5b61172260018263ffffffff61269716565b600354600160a060020a031690565b60075490565b611b226118b9565b611b64576040805160e560020a62461bcd0281526020600482018190526024820152600080516020612f27833981519152604482015290519081900360640190fd5b600b55565b611b716118b9565b611bb3576040805160e560020a62461bcd0281526020600482018190526024820152600080516020612f27833981519152604482015290519081900360640190fd5b60028054600160a060020a031916600160a060020a0392909216919091179055565b600254600160a060020a031690565b6000611bee6118b9565b611c30576040805160e560020a62461bcd0281526020600482018190526024820152600080516020612f27833981519152604482015290519081900360640190fd5b6115bc60018363ffffffff61275e16565b60006115bc826001805480602002602001604051908101604052809291908181526020018280548015611cbf57602002820191906000526020600020906000905b82829054906101000a900463ffffffff1663ffffffff1681526020019060040190602082600301049283019260010382029150808411611c825790505b505050505061284e90919063ffffffff16565b611cda6118b9565b611d1c576040805160e560020a62461bcd0281526020600482018190526024820152600080516020612f27833981519152604482015290519081900360640190fd5b8060068381548110611d2a57fe5b9060005260206000200160006101000a815481600160a060020a030219169083600160a060020a031602179055505050565b600160a060020a038116600090815260096020908152604091829020805483518184028101840190945280845260609392830182828015611dbc57602002820191906000526020600020905b815481526020019060010190808311611da8575b50505050509050919050565b606060068054806020026020016040519081016040528092919081815260200182805480156111fe57602002820191906000526020600020905b8154600160a060020a03168152600190910190602001808311611e02575050505050905090565b611e316118b9565b611e73576040805160e560020a62461bcd0281526020600482018190526024820152600080516020612f27833981519152604482015290519081900360640190fd5b61172281612897565b60065460009015801590611eb9575033600160a060020a031660068281548110611ea257fe5b600091825260209091200154600160a060020a0316145b611ef75760405160e560020a62461bcd028152600401808060200182810382526030815260200180612ef76030913960400191505060405180910390fd5b601054600754600e5460009081908190611f1390859081610df2565b9250925092508015611f2a57611f2a838387610e66565b505050505050565b60608082604051908082528060200260200182016040528015611f5f578160200160208202803883390190505b50600160a060020a0386166000908152600960205260409020549091508484011115611fb157600160a060020a038516600090815260096020526040902054611fae908563ffffffff61201716565b92505b60005b8381101561200c57600160a060020a03861660009081526009602052604090208054868301908110611fe257fe5b9060005260206000200154828281518110611ff957fe5b6020908102919091010152600101611fb4565b5090505b9392505050565b808203828111156115bc576040805160e560020a62461bcd02815260206004820181905260248201527f536166654d6174683a20737562737472616374696f6e20756e646572666c6f77604482015290519081900360640190fd5b600080600061208485600e548661293a565b909550905060606120936129bb565b905060005b8587101561219a5760006120d1600789815481106120b257fe5b600091825260209091206001600590920201015463ffffffff16612ad6565b9050600061218760078a815481106120e557fe5b60009182526020918290206040805160e081018252600593909302909101805467ffffffffffffffff81168452680100000000000000008104600160a060020a03169484019490945260e060020a90930460ff1690820152600182015463ffffffff16606082015260028201546080820152600382015460a082015260049091015460c0820152855186908590811061217a57fe5b6020026020010151612b67565b6001909901989290920191506120989050565b96919550909350505050565b600080821180156121b957506007548211155b61220d576040805160e560020a62461bcd02815260206004820152601660248201527f6f7074696f6e206964206973206e6f7420657869737400000000000000000000604482015290519081900360640190fd5b6007600183038154811061221d57fe5b90600052602060002090600502019050919050565b600081158061224d5750508082028282828161224a57fe5b04145b6115bc5760405160e560020a62461bcd028152600401808060200182810382526021815260200180612ed66021913960400191505060405180910390fd5b42816080015111611722576040805160e560020a62461bcd02815260206004820152601160248201527f6f7074696f6e2069732065787069726564000000000000000000000000000000604482015290519081900360640190fd5b808260c00151101561126f576040805160e560020a62461bcd02815260206004820152601d60248201527f6f7074696f6e20616d6f756e7420697320696e73756666696369656e74000000604482015290519081900360640190fd5b600060ff841615828411141561235a57506000612010565b60ff84161561236b5781830361236f565b8282035b9050612010565b808201828110156115bc576040805160e560020a62461bcd02815260206004820152601b60248201527f536166654d6174683a206164646974696f6e206f766572666c6f770000000000604482015290519081900360640190fd5b61242a8280548060200260200160405190810160405280929190818152602001828054801561241f57602002820191906000526020600020905b81548152602001906001019080831161240b575b505050505082612584565b61126f5781546001810183556000928352602090922090910155565b8154600090815b81811015612480578385828154811061246257fe5b9060005260206000200154141561247857612480565b60010161244d565b818110156124e1576001820381146124c5578460018303815481106124a157fe5b90600052602060002001548582815481106124b857fe5b6000918252602090912001555b84546124d5866000198301612df3565b506001925050506115bc565b506000949350505050565b61254f8280548060200260200160405190810160405280929190818152602001828054801561254457602002820191906000526020600020905b8154600160a060020a03168152600190910190602001808311612526575b505050505082612bb0565b61126f578154600181018355600083815260209020018054600160a060020a038316600160a060020a03199091161790555050565b8151600090815b818110156124e157838582815181106125a057fe5b602002602001015114156125b9576001925050506115bc565b60010161258b565b8154600090815b8181101561260e5783600160a060020a03168582815481106125e657fe5b600091825260209091200154600160a060020a031614156126065761260e565b6001016125c8565b818110156124e1576001820381146124c55784600183038154811061262f57fe5b9060005260206000200160009054906101000a9004600160a060020a031685828154811061265957fe5b9060005260206000200160006101000a815481600160a060020a030219169083600160a060020a0316021790555084546124d5866000198301612df3565b61271c8280548060200260200160405190810160405280929190818152602001828054801561271157602002820191906000526020600020906000905b82829054906101000a900463ffffffff1663ffffffff16815260200190600401906020826003010492830192600103820291508084116126d45790505b50505050508261284e565b61126f578154600181018355600092835260209092206008830401805460079093166004026101000a63ffffffff818102199094169290931692909202179055565b8154600090815b818110156127b7578363ffffffff1685828154811061278057fe5b6000918252602090912060088204015460079091166004026101000a900463ffffffff1614156127af576127b7565b600101612765565b818110156124e15760018203811461283e578460018303815481106127d857fe5b90600052602060002090600891828204019190066004029054906101000a900463ffffffff1685828154811061280a57fe5b90600052602060002090600891828204019190066004026101000a81548163ffffffff021916908363ffffffff1602179055505b84546124d5866000198301612e1c565b8151600090815b818110156124e1578363ffffffff1685828151811061287057fe5b602002602001015163ffffffff16141561288f576001925050506115bc565b600101612855565b600160a060020a0381166128df5760405160e560020a62461bcd028152600401808060200182810382526026815260200180612eb06026913960400191505060405180910390fd5b60008054604051600160a060020a03808516939216917f8be0079c531659141344cd1fd0a4f28419497f9722a3daafe3b4186f6b6457e091a360008054600160a060020a031916600160a060020a0392909216919091179055565b60008083808611156129505785925090506129b3565b8095505b838610156129ab5760006007878154811061296b57fe5b90600052602060002090600502019050428160020154108061298f57506004810154155b1561299a57506129a0565b506129ab565b600190950194612954565b858692509250505b935093915050565b6001546040805182815260208084028201019091526060919082908280156129ed578160200160208202803883390190505b50905060005b82811015612acf5760035460018054600160a060020a039092169163da663257919084908110612a1f57fe5b90600052602060002090600891828204019190066004029054906101000a900463ffffffff166040518263ffffffff1660e060020a028152600401808263ffffffff16815260200191505060206040518083038186803b158015612a8257600080fd5b505afa158015612a96573d6000803e3d6000fd5b505050506040513d6020811015612aac57600080fd5b50518251839083908110612abc57fe5b60209081029190910101526001016129f3565b5091505090565b60006115bc826001805480602002602001604051908101604052809291908181526020018280548015612b5457602002820191906000526020600020906000905b82829054906101000a900463ffffffff1663ffffffff1681526020019060040190602082600301049283019260010382029150808411612b175790505b5050505050612bff90919063ffffffff16565b6000428360800151111580612b7e575060c0830151155b15612b8b575060006115bc565b6000612ba88460c0015161140d86604001518760a0015187612c42565b949350505050565b8151600090815b818110156124e15783600160a060020a0316858281518110612bd557fe5b6020026020010151600160a060020a03161415612bf7576001925050506115bc565b600101612bb7565b8151600090815b81811015612ba8578363ffffffff16858281518110612c2157fe5b602002602001015163ffffffff161415612c3a57612ba8565b600101612c06565b600060ff8416158284111415612c59575081612010565b5080612010565b828054828255906000526020600020908101928215612cb5579160200282015b82811115612cb55782518254600160a060020a031916600160a060020a03909116178255602090920191600190910190612c80565b50611775929150612e50565b6040805160e081018252600080825260208201819052918101829052606081018290526080810182905260a0810182905260c081019190915290565b828054828255906000526020600020908101928215612d3f579160200282015b82811115612d3f578251829062ffffff16905591602001919060010190612d1d565b50611775929150612e74565b82805482825590600052602060002090600701600890048101928215612de75791602002820160005b83821115612db557835183826101000a81548163ffffffff021916908360ff1602179055509260200192600401602081600301049283019260010302612d74565b8015612de55782816101000a81549063ffffffff0219169055600401602081600301049283019260010302612db5565b505b50611775929150612e8e565b815481835581811115612e1757600083815260209020612e17918101908301612e74565b505050565b815481835581811115612e17576007016008900481600701600890048360005260206000209182019101612e179190612e74565b61120691905b80821115611775578054600160a060020a0319168155600101612e56565b61120691905b808211156117755760008155600101612e7a565b61120691905b8082111561177557805463ffffffff19168155600101612e9456fe4f776e61626c653a206e6577206f776e657220697320746865207a65726f2061646472657373536166654d6174683a206d756c7469706c69636174696f6e206f766572666c6f774d616e6167657261626c653a2063616c6c6572206973206e6f742074686520656c696769626c65204f70657261746f724f776e61626c653a2063616c6c6572206973206e6f7420746865206f776e657265787069726174696f6e2076616c7565206973206e6f7420737570706f72746564a265627a7a72315820a112c00b08b8a5b12a5f89793332e2115957e3d4b6c9b00dd57a6b767f1d810364736f6c63430005100032",
  "source": "pragma solidity ^0.5.1;\r\nimport \"./OptionsBase.sol\";\r\nimport \"../modules/SafeInt256.sol\";\r\n/**\r\n * @title Options collateral occupied calculation contract for finnexus proposal v2.\r\n * @dev A Smart-contract for collateral occupied calculation.\r\n *\r\n */\r\ncontract OptionsOccupiedCal is OptionsBase {\r\n\r\n\r\n    using SafeInt256 for int256;\r\n    /**\r\n     * @dev retrieve collateral occupied calculation information.\r\n     */    \r\n    function getOccupiedCalInfo()public view returns(uint256,int256){\r\n        return ( occupiedFirstOption,optionsLatestOccupied);\r\n    }\r\n    /**\r\n     * @dev calculate collateral occupied value, and modify database, only foundation operator can modify database.\r\n     */  \r\n    function setOccupiedCollateral() public onlyOperatorIndex(0) {\r\n        int256 latestOccupied = optionsLatestOccupied;\r\n        uint256 lastOption = allOptions.length;\r\n        (uint256 totalOccupied,uint256 beginOption,bool success) = calculatePhaseOccupiedCollateral(lastOption, occupiedFirstOption,lastOption);\r\n        if (success){\r\n            setCollateralPhase(totalOccupied,beginOption,latestOccupied);\r\n        }\r\n    }\r\n    /**\r\n     * @dev calculate collateral occupied value.\r\n     * @param lastOption last option's position.\r\n     * @param beginOption begin option's poisiton.\r\n     * @param endOption end option's poisiton.\r\n     */  \r\n    function calculatePhaseOccupiedCollateral(uint256 lastOption,uint256 beginOption,uint256 endOption) public view returns(uint256,uint256,bool){\r\n        if (beginOption <  occupiedFirstOption){\r\n            beginOption =  occupiedFirstOption;\r\n        }\r\n        if (beginOption>=lastOption){\r\n            return (0,0,false);\r\n        }\r\n        if (endOption>lastOption) {\r\n            endOption = lastOption;\r\n        }else if(endOption <  occupiedFirstOption){\r\n            return (0,0,false);\r\n        }\r\n        (uint256 totalOccupied,uint256 newFirstOption) = _calculateOccupiedCollateral(beginOption,endOption);\r\n        return (totalOccupied,newFirstOption,true);\r\n    }\r\n    /**\r\n     * @dev subfunction, calculate collateral occupied value.\r\n     * @param begin begin option's poisiton.\r\n     * @param end end option's poisiton.\r\n     */  \r\n    function _calculateOccupiedCollateral(uint256 begin,uint256 end)internal view returns(uint256,uint256){\r\n        uint256 newFirstOption;\r\n        (begin,newFirstOption) = getFirstOption(begin, occupiedFirstOption,end);\r\n        uint256[] memory prices = getUnderlyingPrices();\r\n        uint256 totalOccupied = 0;\r\n        for (;begin<end;begin++){\r\n            uint256 index = _getEligibleUnderlyingIndex(allOptions[begin].underlying);\r\n            uint256 value = calOptionsCollateral(allOptions[begin],prices[index]);\r\n            totalOccupied = totalOccupied+value;\r\n        }\r\n        return (totalOccupied,newFirstOption);\r\n    }\r\n    /**\r\n     * @dev set collateral occupied value, only foundation operator can modify database.\r\n     * @param totalOccupied new collateral calculation result.\r\n     * @param beginOption new first valid option's positon.\r\n     * @param latestOccpied latest occupied value when operater invoke collateral occupied calculation.\r\n     */  \r\n    function setCollateralPhase(uint256 totalOccupied,uint256 beginOption,int256 latestOccpied) public onlyOperatorIndex(0){\r\n        if (beginOption >  occupiedFirstOption){\r\n             occupiedFirstOption = beginOption;\r\n        }\r\n        optionsOccupied = totalOccupied;\r\n        optionsLatestOccupied -= latestOccpied;\r\n    }\r\n    /**\r\n     * @dev get real total collateral occupied value.\r\n     */ \r\n    function getTotalOccupiedCollateral() public view returns (uint256) {\r\n        if (optionsLatestOccupied>=0){\r\n            return optionsOccupied.add(uint256(optionsLatestOccupied));\r\n        }else{\r\n            uint256 latestOccupied = uint256(-optionsLatestOccupied);\r\n            if (optionsOccupied>latestOccupied){\r\n                return optionsOccupied - latestOccupied;\r\n            }else{\r\n                return 0;\r\n            }\r\n        }\r\n    }\r\n    /**\r\n     * @dev add new option collateral occupied value when user create a new option.\r\n     * @param info new option's information.\r\n     */ \r\n    function _addOptionsCollateral(OptionsInfo memory info) internal {\r\n        OptionsInfoEx storage infoEx =  optionExtraMap[info.optionID-1];\r\n        uint256 newOccupied = calOptionsCollateral(info,infoEx.underlyingPrice);\r\n        optionsLatestOccupied = optionsLatestOccupied.add(int256(newOccupied));\r\n    }\r\n    /**\r\n     * @dev deduct burned option collateral occupied value when user burn option.\r\n     * @param info burned option's information.\r\n     * @param amount burned option's amount.\r\n     * @param underlyingPrice current underlying price.\r\n     */ \r\n    function _burnOptionsCollateral(OptionsInfo memory info,uint256 amount,uint256 underlyingPrice) internal {\r\n        uint256 newOccupied = _getOptionsWorth(info.optType,info.strikePrice,underlyingPrice).mul(amount);\r\n        optionsLatestOccupied = optionsLatestOccupied.sub(int256(newOccupied));\r\n    }\r\n\r\n}",
  "sourcePath": "C:\\work\\solidity\\FinnexusOptions_V2\\contracts\\OptionsPool\\OptionsOccupiedCal.sol",
  "compiler": {
    "name": "solc",
    "version": "0.5.16+commit.9c3226ce.Emscripten.clang"
  },
  "schemaVersion": "3.1.0",
  "updatedAt": "2020-09-02T10:11:20.740Z",
  "devdoc": {
    "details": "A Smart-contract for collateral occupied calculation.  ",
    "methods": {
      "addExpiration(uint256)": {
        "details": "Implementation of add an eligible expiration into the expirationList.",
        "params": {
          "expiration": "new eligible expiration."
        }
      },
      "addOperator(address)": {
        "details": "add a new operator by owner.       "
      },
      "addUnderlyingAsset(uint32)": {
        "details": "Implementation of add an eligible underlying into the underlyingAssets.",
        "params": {
          "underlying": "new eligible underlying."
        }
      },
      "buyOptionCheck(uint256,uint32)": {
        "details": "check option's underlying and expiration.",
        "params": {
          "expiration": "option's expiration",
          "underlying": "option's underlying"
        }
      },
      "calculatePhaseOccupiedCollateral(uint256,uint256,uint256)": {
        "details": "calculate collateral occupied value.",
        "params": {
          "beginOption": "begin option's poisiton.",
          "endOption": "end option's poisiton.",
          "lastOption": "last option's position."
        }
      },
      "checkExpiration(uint256)": {
        "details": "check option's expiration.",
        "params": {
          "expiration": "option's expiration"
        }
      },
      "getBurnTimeLimit()": {
        "details": "get option's burn time limit. "
      },
      "getBurnedFullPay(uint256,uint256)": {
        "details": "calculate `amount` number of Option's full price when option is burned.",
        "params": {
          "amount": "option's amount",
          "optionID": "option's optionID"
        }
      },
      "getExerciseWorth(uint256,uint256)": {
        "details": "calculate option's exercise worth.",
        "params": {
          "amount": "option's amount",
          "optionsId": "option's id"
        }
      },
      "getExpirationList()": {
        "details": "Implementation of getting the eligible expirationList."
      },
      "getManager()": {
        "details": "get manager address.       "
      },
      "getOccupiedCalInfo()": {
        "details": "retrieve collateral occupied calculation information."
      },
      "getOperator()": {
        "details": "get all operators.       "
      },
      "getOptionInfoLength()": {
        "details": "retrieve all option list length. "
      },
      "getOptionInfoList(uint256,uint256)": {
        "details": "retrieve `size` number of options' information. ",
        "params": {
          "from": "all option list begin positon.",
          "size": "retrieve size."
        }
      },
      "getOptionInfoListFromID(uint256[])": {
        "details": "retrieve given `ids` options' information. ",
        "params": {
          "ids": "retrieved options' id."
        }
      },
      "getOptionsById(uint256)": {
        "details": "retrieve given `optionsId` option's information. ",
        "params": {
          "optionsId": "retrieved option's id."
        }
      },
      "getOptionsExtraById(uint256)": {
        "details": "retrieve given `optionsId` option's extra information. ",
        "params": {
          "optionsId": "retrieved option's id."
        }
      },
      "getOptionsLimitTimeById(uint256)": {
        "details": "retrieve given `optionsId` option's burned limit timestamp. ",
        "params": {
          "optionsId": "retrieved option's id."
        }
      },
      "getTotalOccupiedCollateral()": {
        "details": "get real total collateral occupied value."
      },
      "getUnderlyingAssets()": {
        "details": "Implementation of getting the eligible underlyingAssets."
      },
      "getUserOptionsID(address)": {
        "details": "retrieve user's options' id. ",
        "params": {
          "user": "user's account."
        }
      },
      "getUserOptionsID(address,uint256,uint256)": {
        "details": "retrieve user's `size` number of options' id. ",
        "params": {
          "from": "user's option list begin positon.",
          "size": "retrieve size.",
          "user": "user's account."
        }
      },
      "isEligibleExpiration(uint256)": {
        "details": "Implementation of testing whether the input expiration is eligible.",
        "params": {
          "expiration": "input expiration for testing."
        }
      },
      "isEligibleUnderlyingAsset(uint32)": {
        "details": "Implementation of testing whether the input underlying is eligible.",
        "params": {
          "underlying": "input underlying for testing."
        }
      },
      "isOwner()": {
        "details": "Returns true if the caller is the current owner."
      },
      "owner()": {
        "details": "Returns the address of the current owner."
      },
      "removeExpirationList(uint256)": {
        "details": "Implementation of revoke an invalid expiration from the expirationList.",
        "params": {
          "removeExpiration": "revoked expiration."
        }
      },
      "removeOperator(address)": {
        "details": "remove operator by owner.       "
      },
      "removeUnderlyingAssets(uint32)": {
        "details": "Implementation of revoke an invalid underlying from the underlyingAssets.",
        "params": {
          "removeUnderlying": "revoked underlying."
        }
      },
      "renounceOwnership()": {
        "details": "Leaves the contract without owner. It will not be possible to call `onlyOwner` functions anymore. Can only be called by the current owner.      * NOTE: Renouncing ownership will leave the contract without an owner, thereby removing any functionality that is only available to the owner."
      },
      "setBurnTimeLimit(uint256)": {
        "details": "set option's burn time limit. ",
        "params": {
          "timeLimit": "set new option's burn time limit."
        }
      },
      "setCollateralPhase(uint256,uint256,int256)": {
        "details": "set collateral occupied value, only foundation operator can modify database.",
        "params": {
          "beginOption": "new first valid option's positon.",
          "latestOccpied": "latest occupied value when operater invoke collateral occupied calculation.",
          "totalOccupied": "new collateral calculation result."
        }
      },
      "setManager(address)": {
        "details": "set manager by owner.       "
      },
      "setOccupiedCollateral()": {
        "details": "calculate collateral occupied value, and modify database, only foundation operator can modify database."
      },
      "setOperator(address[])": {
        "details": "set all operators by owner.       "
      },
      "setOperator(uint256,address)": {
        "details": "modify indexed operator by owner.       "
      },
      "transferOwnership(address)": {
        "details": "Transfers ownership of the contract to a new account (`newOwner`). Can only be called by the current owner."
      }
    },
    "title": "Options collateral occupied calculation contract for finnexus proposal v2."
  },
  "userdoc": {
    "methods": {}
  }
}