{
  "contractName": "OptionsMangerV2",
  "abi": [
    {
      "constant": true,
      "inputs": [],
      "name": "name",
      "outputs": [
        {
          "name": "",
          "type": "string"
        }
      ],
      "payable": false,
      "stateMutability": "view",
      "type": "function"
    },
    {
      "constant": false,
      "inputs": [
        {
          "name": "spender",
          "type": "address"
        },
        {
          "name": "amount",
          "type": "uint256"
        }
      ],
      "name": "approve",
      "outputs": [
        {
          "name": "",
          "type": "bool"
        }
      ],
      "payable": false,
      "stateMutability": "nonpayable",
      "type": "function"
    },
    {
      "constant": true,
      "inputs": [],
      "name": "getWhiteList",
      "outputs": [
        {
          "name": "",
          "type": "address[]"
        }
      ],
      "payable": false,
      "stateMutability": "view",
      "type": "function"
    },
    {
      "constant": true,
      "inputs": [],
      "name": "getLeftCollateral",
      "outputs": [
        {
          "name": "",
          "type": "uint256"
        }
      ],
      "payable": false,
      "stateMutability": "view",
      "type": "function"
    },
    {
      "constant": true,
      "inputs": [
        {
          "name": "",
          "type": "address"
        }
      ],
      "name": "netWorthBalances",
      "outputs": [
        {
          "name": "",
          "type": "uint256"
        }
      ],
      "payable": false,
      "stateMutability": "view",
      "type": "function"
    },
    {
      "constant": true,
      "inputs": [],
      "name": "totalSupply",
      "outputs": [
        {
          "name": "",
          "type": "uint256"
        }
      ],
      "payable": false,
      "stateMutability": "view",
      "type": "function"
    },
    {
      "constant": false,
      "inputs": [
        {
          "name": "optionsPool",
          "type": "address"
        }
      ],
      "name": "setOptionsPoolAddress",
      "outputs": [],
      "payable": false,
      "stateMutability": "nonpayable",
      "type": "function"
    },
    {
      "constant": false,
      "inputs": [
        {
          "name": "removeAddress",
          "type": "address"
        }
      ],
      "name": "removeWhiteList",
      "outputs": [
        {
          "name": "",
          "type": "bool"
        }
      ],
      "payable": false,
      "stateMutability": "nonpayable",
      "type": "function"
    },
    {
      "constant": false,
      "inputs": [
        {
          "name": "sender",
          "type": "address"
        },
        {
          "name": "recipient",
          "type": "address"
        },
        {
          "name": "amount",
          "type": "uint256"
        }
      ],
      "name": "transferFrom",
      "outputs": [
        {
          "name": "",
          "type": "bool"
        }
      ],
      "payable": false,
      "stateMutability": "nonpayable",
      "type": "function"
    },
    {
      "constant": true,
      "inputs": [
        {
          "name": "",
          "type": "address"
        }
      ],
      "name": "balances",
      "outputs": [
        {
          "name": "",
          "type": "uint256"
        }
      ],
      "payable": false,
      "stateMutability": "view",
      "type": "function"
    },
    {
      "constant": true,
      "inputs": [
        {
          "name": "",
          "type": "address"
        }
      ],
      "name": "collateralBalances",
      "outputs": [
        {
          "name": "",
          "type": "uint256"
        }
      ],
      "payable": false,
      "stateMutability": "view",
      "type": "function"
    },
    {
      "constant": false,
      "inputs": [],
      "name": "redeemAll",
      "outputs": [],
      "payable": false,
      "stateMutability": "nonpayable",
      "type": "function"
    },
    {
      "constant": true,
      "inputs": [],
      "name": "decimals",
      "outputs": [
        {
          "name": "",
          "type": "uint8"
        }
      ],
      "payable": false,
      "stateMutability": "view",
      "type": "function"
    },
    {
      "constant": true,
      "inputs": [
        {
          "name": "feeType",
          "type": "uint256"
        },
        {
          "name": "amount",
          "type": "uint256"
        }
      ],
      "name": "calculateFee",
      "outputs": [
        {
          "name": "",
          "type": "uint256"
        }
      ],
      "payable": false,
      "stateMutability": "view",
      "type": "function"
    },
    {
      "constant": false,
      "inputs": [
        {
          "name": "spender",
          "type": "address"
        },
        {
          "name": "addedValue",
          "type": "uint256"
        }
      ],
      "name": "increaseAllowance",
      "outputs": [
        {
          "name": "",
          "type": "bool"
        }
      ],
      "payable": false,
      "stateMutability": "nonpayable",
      "type": "function"
    },
    {
      "constant": false,
      "inputs": [
        {
          "name": "oracle",
          "type": "address"
        }
      ],
      "name": "setOracleAddress",
      "outputs": [],
      "payable": false,
      "stateMutability": "nonpayable",
      "type": "function"
    },
    {
      "constant": true,
      "inputs": [
        {
          "name": "",
          "type": "address"
        }
      ],
      "name": "feeBalances",
      "outputs": [
        {
          "name": "",
          "type": "uint256"
        }
      ],
      "payable": false,
      "stateMutability": "view",
      "type": "function"
    },
    {
      "constant": true,
      "inputs": [],
      "name": "collateralRate",
      "outputs": [
        {
          "name": "numerator",
          "type": "uint256"
        },
        {
          "name": "denominator",
          "type": "uint256"
        }
      ],
      "payable": false,
      "stateMutability": "view",
      "type": "function"
    },
    {
      "constant": true,
      "inputs": [
        {
          "name": "",
          "type": "uint256"
        }
      ],
      "name": "whiteList",
      "outputs": [
        {
          "name": "",
          "type": "address"
        }
      ],
      "payable": false,
      "stateMutability": "view",
      "type": "function"
    },
    {
      "constant": true,
      "inputs": [],
      "name": "getOptionsPriceAddress",
      "outputs": [
        {
          "name": "",
          "type": "address"
        }
      ],
      "payable": false,
      "stateMutability": "view",
      "type": "function"
    },
    {
      "constant": false,
      "inputs": [
        {
          "name": "collateral",
          "type": "address"
        },
        {
          "name": "amount",
          "type": "uint256"
        }
      ],
      "name": "addCollateral",
      "outputs": [],
      "payable": true,
      "stateMutability": "payable",
      "type": "function"
    },
    {
      "constant": true,
      "inputs": [
        {
          "name": "account",
          "type": "address"
        }
      ],
      "name": "balanceOf",
      "outputs": [
        {
          "name": "",
          "type": "uint256"
        }
      ],
      "payable": false,
      "stateMutability": "view",
      "type": "function"
    },
    {
      "constant": false,
      "inputs": [],
      "name": "renounceOwnership",
      "outputs": [],
      "payable": false,
      "stateMutability": "nonpayable",
      "type": "function"
    },
    {
      "constant": true,
      "inputs": [
        {
          "name": "tmpAddress",
          "type": "address"
        }
      ],
      "name": "isEligibleAddress",
      "outputs": [
        {
          "name": "",
          "type": "bool"
        }
      ],
      "payable": false,
      "stateMutability": "view",
      "type": "function"
    },
    {
      "constant": true,
      "inputs": [],
      "name": "owner",
      "outputs": [
        {
          "name": "",
          "type": "address"
        }
      ],
      "payable": false,
      "stateMutability": "view",
      "type": "function"
    },
    {
      "constant": true,
      "inputs": [],
      "name": "isOwner",
      "outputs": [
        {
          "name": "",
          "type": "bool"
        }
      ],
      "payable": false,
      "stateMutability": "view",
      "type": "function"
    },
    {
      "constant": false,
      "inputs": [
        {
          "name": "currency",
          "type": "address"
        }
      ],
      "name": "redeem",
      "outputs": [],
      "payable": false,
      "stateMutability": "nonpayable",
      "type": "function"
    },
    {
      "constant": true,
      "inputs": [],
      "name": "symbol",
      "outputs": [
        {
          "name": "",
          "type": "string"
        }
      ],
      "payable": false,
      "stateMutability": "view",
      "type": "function"
    },
    {
      "constant": false,
      "inputs": [
        {
          "name": "index",
          "type": "uint256"
        }
      ],
      "name": "setPhaseSharedPayment",
      "outputs": [],
      "payable": false,
      "stateMutability": "nonpayable",
      "type": "function"
    },
    {
      "constant": false,
      "inputs": [
        {
          "name": "optionsPrice",
          "type": "address"
        }
      ],
      "name": "setOptionsPriceAddress",
      "outputs": [],
      "payable": false,
      "stateMutability": "nonpayable",
      "type": "function"
    },
    {
      "constant": false,
      "inputs": [
        {
          "name": "tokenAmount",
          "type": "uint256"
        },
        {
          "name": "collateral",
          "type": "address"
        }
      ],
      "name": "redeemCollateral",
      "outputs": [],
      "payable": false,
      "stateMutability": "nonpayable",
      "type": "function"
    },
    {
      "constant": false,
      "inputs": [
        {
          "name": "spender",
          "type": "address"
        },
        {
          "name": "subtractedValue",
          "type": "uint256"
        }
      ],
      "name": "decreaseAllowance",
      "outputs": [
        {
          "name": "",
          "type": "bool"
        }
      ],
      "payable": false,
      "stateMutability": "nonpayable",
      "type": "function"
    },
    {
      "constant": false,
      "inputs": [
        {
          "name": "recipient",
          "type": "address"
        },
        {
          "name": "amount",
          "type": "uint256"
        }
      ],
      "name": "transfer",
      "outputs": [
        {
          "name": "",
          "type": "bool"
        }
      ],
      "payable": false,
      "stateMutability": "nonpayable",
      "type": "function"
    },
    {
      "constant": true,
      "inputs": [],
      "name": "getOracleAddress",
      "outputs": [
        {
          "name": "",
          "type": "address"
        }
      ],
      "payable": false,
      "stateMutability": "view",
      "type": "function"
    },
    {
      "constant": true,
      "inputs": [
        {
          "name": "",
          "type": "address"
        },
        {
          "name": "",
          "type": "address"
        }
      ],
      "name": "userInputCollateral",
      "outputs": [
        {
          "name": "",
          "type": "uint256"
        }
      ],
      "payable": false,
      "stateMutability": "view",
      "type": "function"
    },
    {
      "constant": false,
      "inputs": [
        {
          "name": "index",
          "type": "uint256"
        },
        {
          "name": "sharedBalances",
          "type": "uint256[]"
        },
        {
          "name": "firstOption",
          "type": "uint256"
        },
        {
          "name": "lastBlock",
          "type": "uint256"
        },
        {
          "name": "calTime",
          "type": "uint256"
        }
      ],
      "name": "setSharedPayment",
      "outputs": [],
      "payable": false,
      "stateMutability": "nonpayable",
      "type": "function"
    },
    {
      "constant": true,
      "inputs": [],
      "name": "halted",
      "outputs": [
        {
          "name": "",
          "type": "bool"
        }
      ],
      "payable": false,
      "stateMutability": "view",
      "type": "function"
    },
    {
      "constant": false,
      "inputs": [
        {
          "name": "feeType",
          "type": "uint256"
        },
        {
          "name": "numerator",
          "type": "uint256"
        },
        {
          "name": "denominator",
          "type": "uint256"
        }
      ],
      "name": "setTransactionFee",
      "outputs": [],
      "payable": false,
      "stateMutability": "nonpayable",
      "type": "function"
    },
    {
      "constant": true,
      "inputs": [],
      "name": "getOptionsPoolAddress",
      "outputs": [
        {
          "name": "",
          "type": "address"
        }
      ],
      "payable": false,
      "stateMutability": "view",
      "type": "function"
    },
    {
      "constant": true,
      "inputs": [],
      "name": "getTokenNetworth",
      "outputs": [
        {
          "name": "",
          "type": "uint256"
        }
      ],
      "payable": false,
      "stateMutability": "view",
      "type": "function"
    },
    {
      "constant": true,
      "inputs": [
        {
          "name": "settlement",
          "type": "address"
        }
      ],
      "name": "getFeeBalance",
      "outputs": [
        {
          "name": "",
          "type": "uint256"
        }
      ],
      "payable": false,
      "stateMutability": "view",
      "type": "function"
    },
    {
      "constant": true,
      "inputs": [],
      "name": "getOccupiedCollateral",
      "outputs": [
        {
          "name": "",
          "type": "uint256"
        }
      ],
      "payable": false,
      "stateMutability": "view",
      "type": "function"
    },
    {
      "constant": true,
      "inputs": [
        {
          "name": "feeType",
          "type": "uint256"
        }
      ],
      "name": "getFeeRate",
      "outputs": [
        {
          "name": "",
          "type": "uint256"
        },
        {
          "name": "",
          "type": "uint256"
        }
      ],
      "payable": false,
      "stateMutability": "view",
      "type": "function"
    },
    {
      "constant": true,
      "inputs": [],
      "name": "getTotalCollateral",
      "outputs": [
        {
          "name": "",
          "type": "uint256"
        }
      ],
      "payable": false,
      "stateMutability": "view",
      "type": "function"
    },
    {
      "constant": true,
      "inputs": [
        {
          "name": "owner",
          "type": "address"
        },
        {
          "name": "spender",
          "type": "address"
        }
      ],
      "name": "allowance",
      "outputs": [
        {
          "name": "",
          "type": "uint256"
        }
      ],
      "payable": false,
      "stateMutability": "view",
      "type": "function"
    },
    {
      "constant": true,
      "inputs": [
        {
          "name": "",
          "type": "address"
        }
      ],
      "name": "userCollateralPaying",
      "outputs": [
        {
          "name": "",
          "type": "uint256"
        }
      ],
      "payable": false,
      "stateMutability": "view",
      "type": "function"
    },
    {
      "constant": true,
      "inputs": [
        {
          "name": "",
          "type": "uint256"
        }
      ],
      "name": "FeeRates",
      "outputs": [
        {
          "name": "numerator",
          "type": "uint256"
        },
        {
          "name": "denominator",
          "type": "uint256"
        }
      ],
      "payable": false,
      "stateMutability": "view",
      "type": "function"
    },
    {
      "constant": false,
      "inputs": [
        {
          "name": "addAddress",
          "type": "address"
        }
      ],
      "name": "addWhiteList",
      "outputs": [],
      "payable": false,
      "stateMutability": "nonpayable",
      "type": "function"
    },
    {
      "constant": true,
      "inputs": [],
      "name": "getAllFeeBalances",
      "outputs": [
        {
          "name": "",
          "type": "address[]"
        },
        {
          "name": "",
          "type": "uint256[]"
        }
      ],
      "payable": false,
      "stateMutability": "view",
      "type": "function"
    },
    {
      "constant": false,
      "inputs": [
        {
          "name": "newOwner",
          "type": "address"
        }
      ],
      "name": "transferOwnership",
      "outputs": [],
      "payable": false,
      "stateMutability": "nonpayable",
      "type": "function"
    },
    {
      "constant": false,
      "inputs": [
        {
          "name": "halt",
          "type": "bool"
        }
      ],
      "name": "setHalt",
      "outputs": [],
      "payable": false,
      "stateMutability": "nonpayable",
      "type": "function"
    },
    {
      "constant": true,
      "inputs": [
        {
          "name": "tmpAddress",
          "type": "address"
        }
      ],
      "name": "checkEligibleAddress",
      "outputs": [],
      "payable": false,
      "stateMutability": "view",
      "type": "function"
    },
    {
      "anonymous": false,
      "inputs": [
        {
          "indexed": true,
          "name": "value1",
          "type": "uint256"
        },
        {
          "indexed": true,
          "name": "value2",
          "type": "uint256"
        },
        {
          "indexed": true,
          "name": "value3",
          "type": "uint256"
        }
      ],
      "name": "DebugEvent",
      "type": "event"
    },
    {
      "anonymous": false,
      "inputs": [
        {
          "indexed": true,
          "name": "from",
          "type": "address"
        },
        {
          "indexed": true,
          "name": "to",
          "type": "address"
        },
        {
          "indexed": false,
          "name": "value",
          "type": "uint256"
        }
      ],
      "name": "Transfer",
      "type": "event"
    },
    {
      "anonymous": false,
      "inputs": [
        {
          "indexed": true,
          "name": "owner",
          "type": "address"
        },
        {
          "indexed": true,
          "name": "spender",
          "type": "address"
        },
        {
          "indexed": false,
          "name": "value",
          "type": "uint256"
        }
      ],
      "name": "Approval",
      "type": "event"
    },
    {
      "anonymous": false,
      "inputs": [
        {
          "indexed": true,
          "name": "recieptor",
          "type": "address"
        },
        {
          "indexed": true,
          "name": "settlement",
          "type": "address"
        },
        {
          "indexed": false,
          "name": "payback",
          "type": "uint256"
        }
      ],
      "name": "FeePayback",
      "type": "event"
    },
    {
      "anonymous": false,
      "inputs": [
        {
          "indexed": true,
          "name": "settlement",
          "type": "address"
        },
        {
          "indexed": false,
          "name": "payback",
          "type": "uint256"
        }
      ],
      "name": "AddFee",
      "type": "event"
    },
    {
      "anonymous": false,
      "inputs": [
        {
          "indexed": true,
          "name": "recieptor",
          "type": "address"
        },
        {
          "indexed": true,
          "name": "settlement",
          "type": "address"
        },
        {
          "indexed": false,
          "name": "payback",
          "type": "uint256"
        }
      ],
      "name": "TransferPayback",
      "type": "event"
    },
    {
      "anonymous": false,
      "inputs": [
        {
          "indexed": true,
          "name": "previousOwner",
          "type": "address"
        },
        {
          "indexed": true,
          "name": "newOwner",
          "type": "address"
        }
      ],
      "name": "OwnershipTransferred",
      "type": "event"
    },
    {
      "constant": false,
      "inputs": [
        {
          "name": "settlement",
          "type": "address"
        },
        {
          "name": "settlementAmount",
          "type": "uint256"
        },
        {
          "name": "strikePrice",
          "type": "uint256"
        },
        {
          "name": "underlying",
          "type": "uint32"
        },
        {
          "name": "expiration",
          "type": "uint256"
        },
        {
          "name": "amount",
          "type": "uint256"
        },
        {
          "name": "optType",
          "type": "uint8"
        }
      ],
      "name": "buyOption",
      "outputs": [],
      "payable": true,
      "stateMutability": "payable",
      "type": "function"
    },
    {
      "constant": false,
      "inputs": [
        {
          "name": "optionsId",
          "type": "uint256"
        },
        {
          "name": "amount",
          "type": "uint256"
        }
      ],
      "name": "sellOption",
      "outputs": [],
      "payable": false,
      "stateMutability": "nonpayable",
      "type": "function"
    },
    {
      "constant": false,
      "inputs": [
        {
          "name": "optionsId",
          "type": "uint256"
        },
        {
          "name": "amount",
          "type": "uint256"
        }
      ],
      "name": "exerciseOption",
      "outputs": [],
      "payable": false,
      "stateMutability": "nonpayable",
      "type": "function"
    }
  ],
  "bytecode": "0x6000805460ff60a860020a60ff02011916905560c0604052600a60808190527f536861726564436f696e0000000000000000000000000000000000000000000060a09081526200005391600491906200023f565b506040805180820190915260058082527f53436f696e00000000000000000000000000000000000000000000000000000060209092019182526200009891816200023f565b5060006008819055604080518082018252600380825260016020909201829052600b55600c55815461010033810261010060a860020a03199092169190911780845591519104600160a060020a031691907f8be0079c531659141344cd1fd0a4f28419497f9722a3daafe3b4186f6b6457e0908290a360408051808201825260038082526103e860208084018281528354600181810186556000868152965160029283027fc2575a0e9e593c00f959f8c92f12db2869c3395a3b0502d05e2516446f71f85b8181019290925593517fc2575a0e9e593c00f959f8c92f12db2869c3395a3b0502d05e2516446f71f85c948501558851808a018a5287815280860187815288548085018a55898b5291519185028084019290925551908501558851808a018a5287815280860187815288548085018a55898b5291519185028084019290925551908501558851808a018a5287815280860187815288548085018a55898b5291519185028084019290925551908501558851808a0190995286895293880194855285549081018655949095529451929093029283019190915551910155620002e4565b828054600181600116156101000203166002900490600052602060002090601f016020900481019282601f106200028257805160ff1916838001178555620002b2565b82800160010185558215620002b2579182015b82811115620002b257825182559160200191906001019062000295565b50620002c0929150620002c4565b5090565b620002e191905b80821115620002c05760008155600101620002cb565b90565b61436e80620002f46000396000f3006080604052600436106102795763ffffffff60e060020a60003504166306fdde03811461027e578063095ea7b31461030857806309a9d76c146103405780630aaf3832146103a55780630ecfad1e146103cc57806318160ddd146103ed5780631a5a3fce146104025780632042e5c21461042557806323b872dd1461044657806327e235e31461047057806329bc969d146104915780632f4350c2146104b2578063313ce567146104c757806334e73122146104f2578063395093511461050d5780634c69c00f1461053157806353afc0251461055257806358a6be1c146105735780635c475d42146105a15780635ca4b73b146105d55780636d75b9ee146105ea57806370a0823114610601578063715018a6146106225780637c9c671214610637578063817bf86d146106525780638da5cb5b146106735780638f32d59b14610688578063925c482c1461069d57806395a2251f146106cc57806395d89b41146106ed578063a04115f614610702578063a093e2d01461071a578063a20a80451461073b578063a457c2d71461075f578063a9059cbb14610783578063b18b78dd146107a7578063b4d5a9c7146107bc578063b7480d74146107e3578063b9b8af0b1461084a578063bf36b1101461085f578063c040725a1461087d578063c5e5a3ed14610892578063c78f6803146108a7578063cd405819146108c8578063d1892904146108dd578063d2aaef4e146108f8578063d6eb591014610910578063dd62ed3e14610925578063ddb944e51461094c578063e0561aa11461096d578063e7cd4a0414610985578063f20568cd146109a6578063f2fde38b14610a54578063f495438714610a75578063f939fdca14610a8f575b600080fd5b34801561028a57600080fd5b50610293610ab0565b6040805160208082528351818301528351919283929083019185019080838360005b838110156102cd5781810151838201526020016102b5565b50505050905090810190601f1680156102fa5780820380516001836020036101000a031916815260200191505b509250505060405180910390f35b34801561031457600080fd5b5061032c600160a060020a0360043516602435610b3e565b604080519115158252519081900360200190f35b34801561034c57600080fd5b50610355610b54565b60408051602080825283518183015283519192839290830191858101910280838360005b83811015610391578181015183820152602001610379565b505050509050019250505060405180910390f35b3480156103b157600080fd5b506103ba610bb7565b60408051918252519081900360200190f35b3480156103d857600080fd5b506103ba600160a060020a0360043516610bcf565b3480156103f957600080fd5b506103ba610be1565b34801561040e57600080fd5b50610423600160a060020a0360043516610be7565b005b34801561043157600080fd5b5061032c600160a060020a0360043516610c62565b34801561045257600080fd5b5061032c600160a060020a0360043581169060243516604435610cc1565b34801561047c57600080fd5b506103ba600160a060020a0360043516610d74565b34801561049d57600080fd5b506103ba600160a060020a0360043516610d86565b3480156104be57600080fd5b50610423610d98565b3480156104d357600080fd5b506104dc610e2b565b6040805160ff9092168252519081900360200190f35b3480156104fe57600080fd5b506103ba600435602435610e30565b34801561051957600080fd5b5061032c600160a060020a0360043516602435610e77565b34801561053d57600080fd5b50610423600160a060020a0360043516610eb3565b34801561055e57600080fd5b506103ba600160a060020a0360043516610f2e565b34801561057f57600080fd5b50610588610f40565b6040805192835260208301919091528051918290030190f35b3480156105ad57600080fd5b506105b9600435610f49565b60408051600160a060020a039092168252519081900360200190f35b3480156105e157600080fd5b506105b9610f71565b610423600160a060020a0360043516602435610f80565b34801561060d57600080fd5b506103ba600160a060020a03600435166111c2565b34801561062e57600080fd5b506104236111dd565b34801561064357600080fd5b50610423600435602435611285565b34801561065e57600080fd5b5061032c600160a060020a036004351661141b565b34801561067f57600080fd5b506105b9611481565b34801561069457600080fd5b5061032c611495565b610423600160a060020a036004351660243560443563ffffffff6064351660843560a43560ff60c435166114ab565b3480156106d857600080fd5b50610423600160a060020a03600435166117b2565b3480156106f957600080fd5b506102936119a2565b34801561070e57600080fd5b506104236004356119fd565b34801561072657600080fd5b50610423600160a060020a0360043516611bb9565b34801561074757600080fd5b50610423600435600160a060020a0360243516611c34565b34801561076b57600080fd5b5061032c600160a060020a0360043516602435611de2565b34801561078f57600080fd5b5061032c600160a060020a0360043516602435611e7b565b3480156107b357600080fd5b506105b9611e88565b3480156107c857600080fd5b506103ba600160a060020a0360043581169060243516611e97565b3480156107ef57600080fd5b506040805160206004602480358281013584810280870186019097528086526104239684359636966044959194909101929182918501908490808284375094975050843595505050602083013592604001359150611eb49050565b34801561085657600080fd5b5061032c61203b565b34801561086b57600080fd5b5061042360043560243560443561205d565b34801561088957600080fd5b506105b96120c1565b34801561089e57600080fd5b506103ba6120d0565b3480156108b357600080fd5b506103ba600160a060020a0360043516612102565b3480156108d457600080fd5b506103ba61211d565b3480156108e957600080fd5b506104236004356024356121b1565b34801561090457600080fd5b506105886004356124aa565b34801561091c57600080fd5b506103ba6124cb565b34801561093157600080fd5b506103ba600160a060020a03600435811690602435166125d3565b34801561095857600080fd5b506103ba600160a060020a03600435166125fe565b34801561097957600080fd5b50610588600435612610565b34801561099157600080fd5b50610423600160a060020a036004351661263c565b3480156109b257600080fd5b506109bb612693565b604051808060200180602001838103835285818151815260200191508051906020019060200280838360005b838110156109ff5781810151838201526020016109e7565b50505050905001838103825284818151815260200191508051906020019060200280838360005b83811015610a3e578181015183820152602001610a26565b5050505090500194505050505060405180910390f35b348015610a6057600080fd5b50610423600160a060020a036004351661279c565b348015610a8157600080fd5b5061042360043515156127f1565b348015610a9b57600080fd5b50610423600160a060020a036004351661287f565b6004805460408051602060026001851615610100026000190190941693909304601f81018490048402820184019092528181529291830182828015610b365780601f10610b0b57610100808354040283529160200191610b36565b820191906000526020600020905b815481529060010190602001808311610b1957829003601f168201915b505050505081565b6000610b4b3384846128e3565b50600192915050565b60606001805480602002602001604051908101604052809291908181526020018280548015610bac57602002820191906000526020600020905b8154600160a060020a03168152600190910190602001808311610b8e575b505050505090505b90565b6000610bc161211d565b610bc96124cb565b03905090565b600d6020526000908152604090205481565b60085490565b610bef611495565b1515610c33576040805160e560020a62461bcd0281526020600482018190526024820152600080516020614323833981519152604482015290519081900360640190fd5b600a805473ffffffffffffffffffffffffffffffffffffffff1916600160a060020a0392909216919091179055565b6000610c6c611495565b1515610cb0576040805160e560020a62461bcd0281526020600482018190526024820152600080516020614323833981519152604482015290519081900360640190fd5b610cbb600183612a50565b92915050565b6000610cce848484612b3d565b60408051606081018252602881527f45524332303a207472616e7366657220616d6f756e74206578636565647320616020808301919091527f6c6c6f77616e636500000000000000000000000000000000000000000000000082840152600160a060020a0387166000908152600782528381203380835292529290922054610d6a9287929091610d6591879063ffffffff612cad16565b6128e3565b5060019392505050565b60066020526000908152604090205481565b600e6020526000908152604090205481565b6000610da2611495565b1515610de6576040805160e560020a62461bcd0281526020600482018190526024820152600080516020614323833981519152604482015290519081900360640190fd5b5060005b600154811015610e2857610e20600182815481101515610e0657fe5b600091825260209091200154600160a060020a03166117b2565b600101610dea565b50565b601281565b6000806000610e3e85612d4a565b8054909250610e53908563ffffffff612dc916565b9050610e6c826001015482612e7390919063ffffffff16565b92505b505092915050565b336000818152600760209081526040808320600160a060020a03871684529091528120549091610b4b918590610d65908663ffffffff612ebc16565b610ebb611495565b1515610eff576040805160e560020a62461bcd0281526020600482018190526024820152600080516020614323833981519152604482015290519081900360640190fd5b6009805473ffffffffffffffffffffffffffffffffffffffff1916600160a060020a0392909216919091179055565b60026020526000908152604090205481565b600b54600c5482565b6001805482908110610f5757fe5b600091825260209091200154600160a060020a0316905081565b601154600160a060020a031690565b600080600080610f908686612f19565b945060008511610fea576040805160e560020a62461bcd02815260206004820152601a60248201527f736574746c656d656e7420616d6f756e74206973207a65726f21000000000000604482015290519081900360640190fd5b610ff5600386610e30565b9350611001868561304c565b611011858563ffffffff6130cb16565b6009546040805160e060020a6341976e09028152600160a060020a038a8116600483015291519398509116916341976e09916024808201926020929091908290030181600087803b15801561106557600080fd5b505af1158015611079573d6000803e3d6000fd5b505050506040513d602081101561108f57600080fd5b505192506110a3838663ffffffff612dc916565b91506110bd6110b06120d0565b839063ffffffff612e7316565b336000908152600f60205260409020549091506110e0908363ffffffff612ebc16565b336000908152600f6020908152604080832093909355600160a060020a0389168252600e90522054611118908663ffffffff612ebc16565b600160a060020a0387166000818152600e60209081526040808320949094553382526010815283822092825291909152205461115a908663ffffffff612ebc16565b336000908152601060209081526040808320600160a060020a038b168452825280832093909355600d90522054611197908663ffffffff612ebc16565b600160a060020a0387166000908152600d60205260409020556111ba338261310d565b505050505050565b600160a060020a031660009081526006602052604090205490565b6111e5611495565b1515611229576040805160e560020a62461bcd0281526020600482018190526024820152600080516020614323833981519152604482015290519081900360640190fd5b60008054604051610100909104600160a060020a0316907f8be0079c531659141344cd1fd0a4f28419497f9722a3daafe3b4186f6b6457e0908390a36000805474ffffffffffffffffffffffffffffffffffffffff0019169055565b60008082116112de576040805160e560020a62461bcd02815260206004820152601860248201527f657865726369736520616d6f756e74206973207a65726f210000000000000000604482015290519081900360640190fd5b600a54604080517f67b8ceb900000000000000000000000000000000000000000000000000000000815260048101869052602481018590529051600160a060020a03909216916367b8ceb9916044808201926020929091908290030181600087803b15801561134c57600080fd5b505af1158015611360573d6000803e3d6000fd5b505050506040513d602081101561137657600080fd5b5051905080151561138657611416565b600a54604080517f048e1efa00000000000000000000000000000000000000000000000000000000815260048101869052602481018590529051600160a060020a039092169163048e1efa9160448082019260009290919082900301818387803b1580156113f357600080fd5b505af1158015611407573d6000803e3d6000fd5b505050506114168160026131d2565b505050565b6000610cbb600180548060200260200160405190810160405280929190818152602001828054801561147657602002820191906000526020600020905b8154600160a060020a03168152600190910190602001808311611458575b5050505050836133e2565b6000546101009004600160a060020a031690565b6000546101009004600160a060020a0316331490565b600a54604080517f3ad2fb570000000000000000000000000000000000000000000000000000000081526004810186905263ffffffff8716602482015290516000928392600160a060020a0390911691633ad2fb5791604480820192869290919082900301818387803b15801561152157600080fd5b505af1158015611535573d6000803e3d6000fd5b5050601154600954604080517fda66325700000000000000000000000000000000000000000000000000000000815263ffffffff8c166004820152905161166f9550600160a060020a039384169450632f581f48939092169163da663257916024808201926020929091908290030181600087803b1580156115b657600080fd5b505af11580156115ca573d6000803e3d6000fd5b505050506040513d60208110156115e057600080fd5b50516040805160e060020a63ffffffff85160281526004810192909252602482018c9052604482018a905260ff881660648301525160848083019260209291908290030181600087803b15801561163657600080fd5b505af115801561164a573d6000803e3d6000fd5b505050506040513d602081101561166057600080fd5b5051859063ffffffff612dc916565b915061167c898984613433565b600a54604080517f8a4046bc00000000000000000000000000000000000000000000000000000000815260ff8616600482015263ffffffff891660248201524288016044820152606481018a905260848101879052600160a060020a038c811660a483015291519190921691638a4046bc9160c48083019260209291908290030181600087803b15801561170f57600080fd5b505af1158015611723573d6000803e3d6000fd5b505050506040513d602081101561173957600080fd5b505190506117468161362e565b905080611751610bb7565b10156117a7576040805160e560020a62461bcd02815260206004820152601b60248201527f636f6c6c61746572616c20697320696e73756666696369656e74210000000000604482015290519081900360640190fd5b505050505050505050565b6000806117bd611495565b1515611801576040805160e560020a62461bcd0281526020600482018190526024820152600080516020614323833981519152604482015290519081900360640190fd5b600160a060020a03831660009081526002602052604081205492508211611872576040805160e560020a62461bcd02815260206004820152601260248201527f4974277320656d7074792062616c616e63650000000000000000000000000000604482015290519081900360640190fd5b600160a060020a03831660008181526002602052604081205515156118c457604051339083156108fc029084906000818181858888f193505050501580156118be573d6000803e3d6000fd5b5061195d565b50604080517fa9059cbb0000000000000000000000000000000000000000000000000000000081523360048201526024810183905290518391600160a060020a0383169163a9059cbb916044808201926020929091908290030181600087803b15801561193057600080fd5b505af1158015611944573d6000803e3d6000fd5b505050506040513d602081101561195a57600080fd5b50505b604080518381529051600160a060020a0385169133917f747147be90b2a81a2e929994a92cd7bb71396bdbfd02f181867c81187d4f79449181900360200190a3505050565b6005805460408051602060026001851615610100026000190190941693909304601f81018490048402820184019092528181529291830182828015610b365780601f10610b0b57610100808354040283529160200191610b36565b6060600080611a0a611495565b1515611a4e576040805160e560020a62461bcd0281526020600482018190526024820152600080516020614323833981519152604482015290519081900360640190fd5b600a54604080517faf70df1200000000000000000000000000000000000000000000000000000000815260048101878152602482019283526001805460448401819052600160a060020a039095169463af70df12948a94929392909160649091019084908015611ae757602002820191906000526020600020905b8154600160a060020a03168152600190910190602001808311611ac9575b50509350505050600060405180830381600087803b158015611b0857600080fd5b505af1158015611b1c573d6000803e3d6000fd5b505050506040513d6000823e601f3d908101601f191682016040526060811015611b4557600080fd5b810190808051640100000000811115611b5d57600080fd5b82016020810184811115611b7057600080fd5b8151856020820283011164010000000082111715611b8d57600080fd5b505060208201516040909201519096509094509250611bb3915085905084848442611eb4565b50505050565b611bc1611495565b1515611c05576040805160e560020a62461bcd0281526020600482018190526024820152600080516020614323833981519152604482015290519081900360640190fd5b6011805473ffffffffffffffffffffffffffffffffffffffff1916600160a060020a0392909216919091179055565b600080600080611c438561141b565b1515611c99576040805160e560020a62461bcd02815260206004820152601f60248201527f736574746c656d656e7420697320756e737570706f7274656420746f6b656e00604482015290519081900360640190fd5b33600090815260066020526040902054861115611d00576040805160e560020a62461bcd02815260206004820152601e60248201527f53436f696e2062616c616e636520697320696e73756666696369656e74210000604482015290519081900360640190fd5b851515611d0c576111ba565b600a60009054906101000a9004600160a060020a0316600160a060020a03166373a3d4246040518163ffffffff1660e060020a028152600401602060405180830381600087803b158015611d5f57600080fd5b505af1158015611d73573d6000803e3d6000fd5b505050506040513d6020811015611d8957600080fd5b50519350611d956124cb565b9250611dac60085484612e7390919063ffffffff16565b9150611dbe868363ffffffff612dc916565b905082611dd1858363ffffffff612ebc16565b116111ba576111ba8686838561365d565b60408051606081018252602581527f45524332303a2064656372656173656420616c6c6f77616e63652062656c6f776020808301919091527f207a65726f0000000000000000000000000000000000000000000000000000008284015233600081815260078352848120600160a060020a0388168252909252928120549092610b4b9290918691610d659190879063ffffffff612cad16565b6000610b4b338484612b3d565b600954600160a060020a031690565b601060209081526000928352604080842090915290825290205481565b600080611ebf611495565b1515611f03576040805160e560020a62461bcd0281526020600482018190526024820152600080516020614323833981519152604482015290519081900360640190fd5b600a54604080517f36c146f3000000000000000000000000000000000000000000000000000000008152600481018a90526024810188905260448101879052606481018690529051600160a060020a03909216916336c146f39160848082019260009290919082900301818387803b158015611f7e57600080fd5b505af1158015611f92573d6000803e3d6000fd5b50505050600091505b8551821015612032576001805483908110611fb257fe5b6000918252602090912001548651600160a060020a03909116915061200e90879084908110611fdd57fe5b6020908102909101810151600160a060020a0384166000908152600d9092526040909120549063ffffffff612ebc16565b600160a060020a0382166000908152600d6020526040902055600190910190611f9b565b50505050505050565b6000547501000000000000000000000000000000000000000000900460ff1681565b6000612067611495565b15156120ab576040805160e560020a62461bcd0281526020600482018190526024820152600080516020614323833981519152604482015290519081900360640190fd5b6120b484612d4a565b9283555060019091015550565b600a54600160a060020a031690565b6000600854600014156120e857506305f5e100610bb4565b6008546120f36124cb565b8115156120fc57fe5b04905090565b600160a060020a031660009081526002602052604090205490565b600080600a60009054906101000a9004600160a060020a0316600160a060020a03166373a3d4246040518163ffffffff1660e060020a028152600401602060405180830381600087803b15801561217357600080fd5b505af1158015612187573d6000803e3d6000fd5b505050506040513d602081101561219d57600080fd5b505190506121aa8161362e565b91505b5090565b6000808080808080808811612210576040805160e560020a62461bcd02815260206004820152601460248201527f73656c6c20616d6f756e74206973207a65726f21000000000000000000000000604482015290519081900360640190fd5b600a54604080517f048e1efa000000000000000000000000000000000000000000000000000000008152600481018c9052602481018b90529051600160a060020a039092169163048e1efa9160448082019260009290919082900301818387803b15801561227d57600080fd5b505af1158015612291573d6000803e3d6000fd5b5050600a54604080517f48ee201d000000000000000000000000000000000000000000000000000000008152600481018e90529051600160a060020a0390921693506348ee201d925060248082019260e0929091908290030181600087803b1580156122fc57600080fd5b505af1158015612310573d6000803e3d6000fd5b505050506040513d60e081101561232657600080fd5b50604080820151606083015160a09093015160095483517fda66325700000000000000000000000000000000000000000000000000000000815263ffffffff861660048201529351929b509399504260ff8c160398509650600160a060020a039092169163da663257916024808201926020929091908290030181600087803b1580156123b257600080fd5b505af11580156123c6573d6000803e3d6000fd5b505050506040513d60208110156123dc57600080fd5b5051601154604080517f2f581f4800000000000000000000000000000000000000000000000000000000815260048101849052602481018890526044810189905260ff8b1660648201529051929550600160a060020a0390911691632f581f48916084808201926020929091908290030181600087803b15801561245f57600080fd5b505af1158015612473573d6000803e3d6000fd5b505050506040513d602081101561248957600080fd5b5051915061249d828963ffffffff612dc916565b90506117a78160016131d2565b60008060006124b884612d4a565b8054600190910154909590945092505050565b60015460009081908180805b838310156125c95760018054849081106124ed57fe5b60009182526020808320909101546009546040805160e060020a6341976e09028152600160a060020a0393841660048201819052915191975091909216936341976e099360248084019491939192918390030190829087803b15801561255257600080fd5b505af1158015612566573d6000803e3d6000fd5b505050506040513d602081101561257c57600080fd5b5051600160a060020a0383166000908152600d60205260409020549091506125bc906125af90839063ffffffff612dc916565b869063ffffffff612ebc16565b94506001909201916124d7565b5092949350505050565b600160a060020a03918216600090815260076020908152604080832093909416825291909152205490565b600f6020526000908152604090205481565b600380548290811061261e57fe5b60009182526020909120600290910201805460019091015490915082565b612644611495565b1515612688576040805160e560020a62461bcd0281526020600482018190526024820152600080516020614323833981519152604482015290519081900360640190fd5b610e28600182613889565b606080606060006001805490506040519080825280602002602001820160405280156126c9578160200160208202803883390190505b509150600090505b60015481101561273357600260006001838154811015156126ee57fe5b6000918252602080832090910154600160a060020a03168352820192909252604001902054825183908390811061272157fe5b602090810290910101526001016126d1565b6001828180548060200260200160405190810160405280929190818152602001828054801561278b57602002820191906000526020600020905b8154600160a060020a0316815260019091019060200180831161276d575b505050505091509350935050509091565b6127a4611495565b15156127e8576040805160e560020a62461bcd0281526020600482018190526024820152600080516020614323833981519152604482015290519081900360640190fd5b610e288161392f565b6127f9611495565b151561283d576040805160e560020a62461bcd0281526020600482018190526024820152600080516020614323833981519152604482015290519081900360640190fd5b6000805491151575010000000000000000000000000000000000000000000275ff00000000000000000000000000000000000000000019909216919091179055565b610e2860018054806020026020016040519081016040528092919081815260200182805480156128d857602002820191906000526020600020905b8154600160a060020a031681526001909101906020018083116128ba575b505050505082613a28565b600160a060020a0383161515612968576040805160e560020a62461bcd028152602060048201526024808201527f45524332303a20617070726f76652066726f6d20746865207a65726f2061646460448201527f7265737300000000000000000000000000000000000000000000000000000000606482015290519081900360840190fd5b600160a060020a03821615156129ee576040805160e560020a62461bcd02815260206004820152602260248201527f45524332303a20617070726f766520746f20746865207a65726f20616464726560448201527f7373000000000000000000000000000000000000000000000000000000000000606482015290519081900360840190fd5b600160a060020a03808416600081815260076020908152604080832094871680845294825291829020859055815185815291517f8c5be1e5ebec7d5bd14f71427d1e84f3dd0314c0f7b2291e5b200ac8c7c3b9259281900390910190a3505050565b8154600090815b81811015612a9f5783600160a060020a03168582815481101515612a7757fe5b600091825260209091200154600160a060020a03161415612a9757612a9f565b600101612a57565b81811015612b325760001982018114612b18578460018303815481101515612ac357fe5b6000918252602090912001548554600160a060020a0390911690869083908110612ae957fe5b9060005260206000200160006101000a815481600160a060020a030219169083600160a060020a031602179055505b8454612b288660001983016142e9565b5060019250610e6f565b506000949350505050565b600160a060020a0383161515612bc3576040805160e560020a62461bcd02815260206004820152602560248201527f45524332303a207472616e736665722066726f6d20746865207a65726f20616460448201527f6472657373000000000000000000000000000000000000000000000000000000606482015290519081900360840190fd5b600160a060020a0382161515612c49576040805160e560020a62461bcd02815260206004820152602360248201527f45524332303a207472616e7366657220746f20746865207a65726f206164647260448201527f6573730000000000000000000000000000000000000000000000000000000000606482015290519081900360840190fd5b612c538382613a88565b612c5d8282613b57565b81600160a060020a031683600160a060020a03167fddf252ad1be2c89b69c2b068fc378daa952ba7f163c4a11628f55a4df523b3ef836040518082815260200191505060405180910390a3505050565b6000808285851115612d405760405160e560020a62461bcd0281526004018080602001828103825283818151815260200191508051906020019080838360005b83811015612d05578181015183820152602001612ced565b50505050905090810190601f168015612d325780820380516001836020036101000a031916815260200191505b509250505060405180910390fd5b5050509103919050565b6003546000908210612da6576040805160e560020a62461bcd02815260206004820152601260248201527f66656520747970652069732076616c6964210000000000000000000000000000604482015290519081900360640190fd5b6003805483908110612db457fe5b90600052602060002090600202019050919050565b600080831515612ddc5760009150612e6c565b50828202828482811515612dec57fe5b0414612e68576040805160e560020a62461bcd02815260206004820152602160248201527f536166654d6174683a206d756c7469706c69636174696f6e206f766572666c6f60448201527f7700000000000000000000000000000000000000000000000000000000000000606482015290519081900360840190fd5b8091505b5092915050565b6000612eb583836040805190810160405280601a81526020017f536166654d6174683a206469766973696f6e206279207a65726f000000000000815250613c06565b9392505050565b600082820183811015612e68576040805160e560020a62461bcd02815260206004820152601b60248201527f536166654d6174683a206164646974696f6e206f766572666c6f770000000000604482015290519081900360640190fd5b6000806000612f278561141b565b1515612f7d576040805160e560020a62461bcd02815260206004820152601f60248201527f736574746c656d656e7420697320756e737570706f7274656420746f6b656e00604482015290519081900360640190fd5b60009150600160a060020a0385161515612f9957349150613044565b60008411156130445750604080517f23b872dd0000000000000000000000000000000000000000000000000000000081523360048201523060248201526044810185905290518591600160a060020a038316916323b872dd916064808201926020929091908290030181600087803b15801561301457600080fd5b505af1158015613028573d6000803e3d6000fd5b505050506040513d602081101561303e57600080fd5b50849250505b509392505050565b600160a060020a038216600090815260026020526040902054613075908263ffffffff612ebc16565b600160a060020a038316600081815260026020908152604091829020939093558051848152905191927f1104eee7f034069140a0655d153038cedf9e65e5724018c555a8d56cfb6bee7792918290030190a25050565b6000612eb583836040805190810160405280601e81526020017f536166654d6174683a207375627472616374696f6e206f766572666c6f770000815250612cad565b600160a060020a038216151561316d576040805160e560020a62461bcd02815260206004820152601f60248201527f45524332303a206d696e7420746f20746865207a65726f206164647265737300604482015290519081900360640190fd5b600854613180908263ffffffff612ebc16565b60085561318d8282613b57565b604080518281529051600160a060020a038416916000917fddf252ad1be2c89b69c2b068fc378daa952ba7f163c4a11628f55a4df523b3ef9181900360200190a35050565b60015460408051828152602080840282010190915260009190606090839081908190819086801561320d578160200160208202803883390190505b509450600093505b8584101561333757600180548590811061322b57fe5b60009182526020808320909101546009546040805160e060020a6341976e09028152600160a060020a0393841660048201819052915191985091909216936341976e099360248084019491939192918390030190829087803b15801561329057600080fd5b505af11580156132a4573d6000803e3d6000fd5b505050506040513d60208110156132ba57600080fd5b5051600160a060020a0384166000908152600d60205260409020548651919350908690869081106132e757fe5b60209081029091010152845161332b9061331e9087908790811061330757fe5b60209081029091010151849063ffffffff612dc916565b889063ffffffff612ebc16565b50600190930192613215565b861515613343576117a7565b600093505b858410156117a7576133888761337c8b888881518110151561336657fe5b602090810290910101519063ffffffff612dc916565b9063ffffffff612e7316565b90506133b281868681518110151561339c57fe5b602090810290910101519063ffffffff6130cb16565b600160a060020a0384166000908152600d60205260409020556133d73384838b613c72565b600190930192613348565b8151600090815b81811015612b325783600160a060020a0316858281518110151561340957fe5b90602001906020020151600160a060020a0316141561342b5760019250610e6f565b6001016133e9565b6000806134408585612f19565b93506000841161349a576040805160e560020a62461bcd02815260206004820152601a60248201527f736574746c656d656e7420616d6f756e74206973207a65726f21000000000000604482015290519081900360640190fd5b6134a5600084610e30565b6009546040805160e060020a6341976e09028152600160a060020a03898116600483015291519395509116916341976e09916024808201926020929091908290030181600087803b1580156134f957600080fd5b505af115801561350d573d6000803e3d6000fd5b505050506040513d602081101561352357600080fd5b50519050613537838363ffffffff612ebc16565b613547828663ffffffff612dc916565b10156135c3576040805160e560020a62461bcd02815260206004820152602160248201527f736574746c656d656e7420617373657420697320696e73756666696369656e7460448201527f2100000000000000000000000000000000000000000000000000000000000000606482015290519081900360840190fd5b6135d3838263ffffffff612e7316565b92506135e5828263ffffffff612e7316565b91506135f1858361304c565b61361182613605868663ffffffff6130cb16565b9063ffffffff6130cb16565b9350600084111561362757613627338686613cb0565b5050505050565b600b546000908190613646908463ffffffff612dc916565b600c54909150612eb590829063ffffffff612e7316565b33600090815260066020908152604080832054600f90925282205482916060918391829182916136979161337c908d63ffffffff612dc916565b336000908152600f60205260409020549096506136ba908763ffffffff6130cb16565b336000818152600f60205260409020919091556136d7908b613df5565b600154604080518281526020808402820101909152909550858015613706578160200160208202803883390190505b509350613714888a89613ee0565b6001805460408051602080840282018101909252828152949c5092965061377a939283018282801561376f57602002820191906000526020600020905b8154600160a060020a03168152600190910190602001808311613751575b50505050508a614087565b915082848381518110151561378b57fe5b602090810290910101525060005b6000881180156137a857508481105b15613808576137db886001838154811015156137c057fe5b600091825260209091200154600160a060020a031689613ee0565b8551919950935083908590839081106137f057fe5b60209081029091010180519091019052600101613799565b600088111561381f5761381c8886866140dc565b93505b5060005b8481101561387d576138753360018381548110151561383e57fe5b6000918252602090912001548651600160a060020a039091169087908590811061386457fe5b906020019060200201516004613c72565b600101613823565b50505050505050505050565b6138ec828054806020026020016040519081016040528092919081815260200182805480156138e157602002820191906000526020600020905b8154600160a060020a031681526001909101906020018083116138c3575b5050505050826133e2565b151561392b57815460018101835560008381526020902001805473ffffffffffffffffffffffffffffffffffffffff1916600160a060020a0383161790555b5050565b600160a060020a03811615156139b5576040805160e560020a62461bcd02815260206004820152602660248201527f4f776e61626c653a206e6577206f776e657220697320746865207a65726f206160448201527f6464726573730000000000000000000000000000000000000000000000000000606482015290519081900360840190fd5b60008054604051600160a060020a038085169361010090930416917f8be0079c531659141344cd1fd0a4f28419497f9722a3daafe3b4186f6b6457e091a360008054600160a060020a039092166101000274ffffffffffffffffffffffffffffffffffffffff0019909216919091179055565b613a3282826133e2565b151561392b576040805160e560020a62461bcd02815260206004820181905260248201527f77686974654c6973743a207573696e6720696e76616c69642061646472657373604482015290519081900360640190fd5b600160a060020a0382161515613b0e576040805160e560020a62461bcd02815260206004820152602360248201527f45524332303a207472616e7366657220746f20746865207a65726f206164647260448201527f6573730000000000000000000000000000000000000000000000000000000000606482015290519081900360840190fd5b600160a060020a038216600090815260066020526040902054613b37908263ffffffff6130cb16565b600160a060020a0390921660009081526006602052604090209190915550565b600160a060020a0382161515613bdd576040805160e560020a62461bcd02815260206004820152602360248201527f45524332303a207472616e7366657220746f20746865207a65726f206164647260448201527f6573730000000000000000000000000000000000000000000000000000000000606482015290519081900360840190fd5b600160a060020a038216600090815260066020526040902054613b37908263ffffffff612ebc16565b60008082818511613c5c5760405160e560020a62461bcd02815260040180806020018281038252838181518152602001915080519060200190808383600083811015612d05578181015183820152602001612ced565b508385811515613c6857fe5b0495945050505050565b6000821515613c8057613627565b613c8a8284610e30565b9050613ca68585613ca1868563ffffffff6130cb16565b613cb0565b613627848261304c565b6000811515613cbe57611bb3565b600160a060020a0383161515613d0a57604051600160a060020a0385169083156108fc029084906000818181858888f19350505050158015613d04573d6000803e3d6000fd5b50613da4565b50604080517fa9059cbb000000000000000000000000000000000000000000000000000000008152600160a060020a038581166004830152602482018490529151849283169163a9059cbb9160448083019260209291908290030181600087803b158015613d7757600080fd5b505af1158015613d8b573d6000803e3d6000fd5b505050506040513d6020811015613da157600080fd5b50505b82600160a060020a031684600160a060020a03167f8aaaec2388cc390cde69685f78340e15f36d424b6b6b595f549dd883931f9c9b846040518082815260200191505060405180910390a350505050565b600160a060020a0382161515613e7b576040805160e560020a62461bcd02815260206004820152602160248201527f45524332303a206275726e2066726f6d20746865207a65726f2061646472657360448201527f7300000000000000000000000000000000000000000000000000000000000000606482015290519081900360840190fd5b613e858282613a88565b600854613e98908263ffffffff6130cb16565b600855604080518281529051600091600160a060020a038516917fddf252ad1be2c89b69c2b068fc378daa952ba7f163c4a11628f55a4df523b3ef9181900360200190a35050565b336000908152601060209081526040808320600160a060020a0386168452909152812054819081808080841515613f1d578996506000955061407a565b613f2d888663ffffffff612dc916565b600160a060020a038a166000908152600d6020908152604080832054600e90925290912054919550613f699161337c908863ffffffff612dc916565b945084841015613f77578394505b841515613f8a578996506000955061407a565b6009546040805160e060020a6341976e09028152600160a060020a038c81166004830152915191909216916341976e099160248083019260209291908290030181600087803b158015613fdc57600080fd5b505af1158015613ff0573d6000803e3d6000fd5b505050506040513d602081101561400657600080fd5b5051925061401a8a8463ffffffff612e7316565b915081151561402f576000965086955061407a565b84821161403c578161403e565b845b9050848211156140725761406861405b828563ffffffff612dc916565b8b9063ffffffff6130cb16565b819650965061407a565b600096509450845b5050505050935093915050565b8151600090815b818110156140d45783600160a060020a031685828151811015156140ae57fe5b90602001906020020151600160a060020a031614156140cc576140d4565b60010161408e565b949350505050565b606060006060600080600080945087604051908082528060200260200182016040528015614114578160200160208202803883390190505b509350600092505b8783101561426057600180548490811061413257fe5b6000918252602090912001548751600160a060020a03909116925061418e9088908590811061415d57fe5b6020908102909101810151600160a060020a0385166000908152600d9092526040909120549063ffffffff6130cb16565b848481518110151561419c57fe5b60209081029091018101919091526009546040805160e060020a6341976e09028152600160a060020a038681166004830152915191909216926341976e0992602480820193918290030181600087803b1580156141f857600080fd5b505af115801561420c573d6000803e3d6000fd5b505050506040513d602081101561422257600080fd5b50518451909150614254906125af9086908690811061423d57fe5b60209081029091010151839063ffffffff612dc916565b5060019092019161411c565b84151561426c576142dd565b600092505b878310156142d9576142b66142928661337c8c888881518110151561336657fe5b88858151811015156142a057fe5b602090810290910101519063ffffffff612ebc16565b87848151811015156142c457fe5b60209081029091010152600190920191614271565b8695505b50505050509392505050565b81548183558181111561141657600083815260209020611416918101908301610bb491905b808211156121ad576000815560010161430e56004f776e61626c653a2063616c6c6572206973206e6f7420746865206f776e6572a165627a7a7230582045da045bfff88efe2d45a3cfa8cb7853dc8181a8ab4c365b7ba3373f4fa5a0920029",
  "source": "pragma solidity ^0.4.26;\r\nimport \"./modules/SafeMath.sol\";\r\nimport \"./CollateralPool.sol\";\r\nimport \"./modules/whiteList.sol\";\r\nimport \"./interfaces/IOptionsPrice.sol\";\r\ncontract OptionsMangerV2 is CollateralPool,ImportOptionsPrice {\r\n    using SafeMath for uint256;\r\n    function buyOption(address settlement,uint256 settlementAmount, uint256 strikePrice,uint32 underlying,\r\n        uint256 expiration,uint256 amount,uint8 optType)public payable{\r\n        _optionsPool.buyOptionCheck(expiration,underlying);\r\n        uint256 allPay = amount.mul(_optionsPrice.getOptionsPrice(_oracle.getUnderlyingPrice(underlying),strikePrice,expiration,optType));\r\n        buyOption_sub(settlement,settlementAmount,allPay);\r\n        uint256 collateralNeed = _optionsPool.createOptions(optType,underlying,now+expiration,strikePrice,amount,settlement);\r\n        collateralNeed = calculateCollateral(collateralNeed);\r\n        require(getLeftCollateral()>=collateralNeed,\"collateral is insufficient!\");\r\n    }\r\n    function buyOption_sub(address settlement,uint256 settlementAmount,uint256 allPay)internal{\r\n        settlementAmount = getPayableAmount(settlement,settlementAmount);\r\n        require(settlementAmount>0 , \"settlement amount is zero!\");\r\n        uint256 fee = calculateFee(buyFee,allPay);\r\n        uint256 settlePrice = _oracle.getPrice(settlement);\r\n        require(settlePrice.mul(settlementAmount)>=allPay.add(fee),\"settlement asset is insufficient!\");\r\n        allPay = allPay.div(settlePrice);\r\n        fee = fee.div(settlePrice);\r\n        _addTransactionFee(settlement,fee);\r\n        settlementAmount = settlementAmount.sub(allPay).sub(fee);\r\n        if (settlementAmount > 0){\r\n            _transferPayback(msg.sender,settlement,settlementAmount);\r\n        }  \r\n    }\r\n    function sellOption(uint256 optionsId,uint256 amount)public{\r\n        require(amount>0 , \"sell amount is zero!\");\r\n        _optionsPool.burnOptions(optionsId,amount);\r\n        (,,uint8 optType,uint32 underlying,uint256 expiration,uint256 strikePrice,) = _optionsPool.getOptionsById(optionsId);\r\n        expiration = optType-now;\r\n        uint256 currentPrice = _oracle.getUnderlyingPrice(underlying);\r\n        uint256 optPrice = _optionsPrice.getOptionsPrice(currentPrice,strikePrice,expiration,optType);\r\n        uint256 allPay = optPrice.mul(amount);\r\n        _paybackWorth(allPay,sellFee);\r\n    }\r\n    function exerciseOption(uint256 optionsId,uint256 amount)public{\r\n        require(amount>0 , \"exercise amount is zero!\");\r\n        uint256 allPay = _optionsPool.getExerciseWorth(optionsId,amount);\r\n        if (allPay == 0) {\r\n            return;\r\n        }\r\n        _optionsPool.burnOptions(optionsId,amount);\r\n        _paybackWorth(allPay,exerciseFee);\r\n    }\r\n\r\n}",
  "sourcePath": "C:\\work\\solidity\\FinnexusOptions_V2\\contracts\\OptionsMangerV2.sol",
  "compiler": {
    "name": "solc",
    "version": "0.4.26+commit.4563c3fc.Emscripten.clang"
  },
  "schemaVersion": "3.1.0",
  "updatedAt": "2020-07-21T01:43:31.177Z",
  "devdoc": {
    "methods": {
      "addWhiteList(address)": {
        "details": "Implementation of add an eligible address into the whitelist.\r",
        "params": {
          "addAddress": "new eligible address.\r"
        }
      },
      "allowance(address,address)": {
        "details": "See {IERC20-allowance}.\r"
      },
      "approve(address,uint256)": {
        "details": "See {IERC20-approve}.\r      * Requirements:\r      * - `spender` cannot be the zero address.\r"
      },
      "balanceOf(address)": {
        "details": "See {IERC20-balanceOf}.\r"
      },
      "decreaseAllowance(address,uint256)": {
        "details": "Atomically decreases the allowance granted to `spender` by the caller.\r      * This is an alternative to {approve} that can be used as a mitigation for\r problems described in {IERC20-approve}.\r      * Emits an {Approval} event indicating the updated allowance.\r      * Requirements:\r      * - `spender` cannot be the zero address.\r - `spender` must have allowance for the caller of at least\r `subtractedValue`.\r"
      },
      "getWhiteList()": {
        "details": "Implementation of getting the eligible whitelist.\r"
      },
      "increaseAllowance(address,uint256)": {
        "details": "Atomically increases the allowance granted to `spender` by the caller.\r      * This is an alternative to {approve} that can be used as a mitigation for\r problems described in {IERC20-approve}.\r      * Emits an {Approval} event indicating the updated allowance.\r      * Requirements:\r      * - `spender` cannot be the zero address.\r"
      },
      "isEligibleAddress(address)": {
        "details": "Implementation of testing whether the input address is eligible.\r",
        "params": {
          "tmpAddress": "input address for testing.\r"
        }
      },
      "isOwner()": {
        "details": "Returns true if the caller is the current owner."
      },
      "owner()": {
        "details": "Returns the address of the current owner."
      },
      "removeWhiteList(address)": {
        "details": "Implementation of revoke an invalid address from the whitelist.\r",
        "params": {
          "removeAddress": "revoked address.\r"
        }
      },
      "renounceOwnership()": {
        "details": "Leaves the contract without owner. It will not be possible to call `onlyOwner` functions anymore. Can only be called by the current owner.     * NOTE: Renouncing ownership will leave the contract without an owner, thereby removing any functionality that is only available to the owner."
      },
      "setTransactionFee(uint256,uint256,uint256)": {
        "details": "set the rate of trasaction fee.\r",
        "params": {
          "denominator": "thedenominator of transaction fee.\r transaction fee = numerator/denominator;\r",
          "feeType": "the transaction fee type\r",
          "numerator": "the numerator of transaction fee .\r"
        }
      },
      "totalSupply()": {
        "details": "See {IERC20-totalSupply}.\r"
      },
      "transfer(address,uint256)": {
        "details": "See {IERC20-transfer}.\r      * Requirements:\r      * - `recipient` cannot be the zero address.\r - the caller must have a balance of at least `amount`.\r"
      },
      "transferFrom(address,address,uint256)": {
        "details": "See {IERC20-transferFrom}.\r      * Emits an {Approval} event indicating the updated allowance. This is not\r required by the EIP. See the note at the beginning of {ERC20};\r      * Requirements:\r - `sender` and `recipient` cannot be the zero address.\r - `sender` must have a balance of at least `amount`.\r - the caller must have allowance for `sender`'s tokens of at least\r `amount`.\r"
      },
      "transferOwnership(address)": {
        "details": "Transfers ownership of the contract to a new account (`newOwner`). Can only be called by the current owner."
      }
    }
  },
  "userdoc": {
    "methods": {
      "setHalt(bool)": {
        "notice": "function Emergency situation that requires contribution period to stop or not."
      }
    }
  }
}