{
  "contractName": "OptionslPool",
  "abi": [
    {
      "constant": true,
      "inputs": [],
      "name": "getWhiteList",
      "outputs": [
        {
          "name": "",
          "type": "address[]"
        }
      ],
      "payable": false,
      "stateMutability": "view",
      "type": "function"
    },
    {
      "constant": true,
      "inputs": [],
      "name": "lastCallOption",
      "outputs": [
        {
          "name": "",
          "type": "uint256"
        }
      ],
      "payable": false,
      "stateMutability": "view",
      "type": "function"
    },
    {
      "constant": false,
      "inputs": [
        {
          "name": "removeAddress",
          "type": "address"
        }
      ],
      "name": "removeWhiteList",
      "outputs": [],
      "payable": false,
      "stateMutability": "nonpayable",
      "type": "function"
    },
    {
      "constant": false,
      "inputs": [],
      "name": "redeemAll",
      "outputs": [],
      "payable": false,
      "stateMutability": "nonpayable",
      "type": "function"
    },
    {
      "constant": true,
      "inputs": [
        {
          "name": "",
          "type": "uint256"
        }
      ],
      "name": "underlyingAssets",
      "outputs": [
        {
          "name": "",
          "type": "uint32"
        }
      ],
      "payable": false,
      "stateMutability": "view",
      "type": "function"
    },
    {
      "constant": true,
      "inputs": [],
      "name": "collateralRate",
      "outputs": [
        {
          "name": "value",
          "type": "uint256"
        },
        {
          "name": "exponent",
          "type": "int32"
        }
      ],
      "payable": false,
      "stateMutability": "view",
      "type": "function"
    },
    {
      "constant": true,
      "inputs": [
        {
          "name": "",
          "type": "uint256"
        }
      ],
      "name": "whiteList",
      "outputs": [
        {
          "name": "",
          "type": "address"
        }
      ],
      "payable": false,
      "stateMutability": "view",
      "type": "function"
    },
    {
      "constant": false,
      "inputs": [],
      "name": "renounceOwnership",
      "outputs": [],
      "payable": false,
      "stateMutability": "nonpayable",
      "type": "function"
    },
    {
      "constant": true,
      "inputs": [],
      "name": "lastCalBlock",
      "outputs": [
        {
          "name": "",
          "type": "uint256"
        }
      ],
      "payable": false,
      "stateMutability": "view",
      "type": "function"
    },
    {
      "constant": true,
      "inputs": [
        {
          "name": "tmpAddress",
          "type": "address"
        }
      ],
      "name": "isEligibleAddress",
      "outputs": [
        {
          "name": "",
          "type": "bool"
        }
      ],
      "payable": false,
      "stateMutability": "view",
      "type": "function"
    },
    {
      "constant": true,
      "inputs": [],
      "name": "getTransactionFee",
      "outputs": [
        {
          "name": "",
          "type": "uint256"
        },
        {
          "name": "",
          "type": "int32"
        }
      ],
      "payable": false,
      "stateMutability": "view",
      "type": "function"
    },
    {
      "constant": true,
      "inputs": [],
      "name": "owner",
      "outputs": [
        {
          "name": "",
          "type": "address"
        }
      ],
      "payable": false,
      "stateMutability": "view",
      "type": "function"
    },
    {
      "constant": true,
      "inputs": [
        {
          "name": "",
          "type": "uint256"
        }
      ],
      "name": "allOptions",
      "outputs": [
        {
          "name": "optType",
          "type": "uint8"
        },
        {
          "name": "underlying",
          "type": "uint32"
        },
        {
          "name": "expiration",
          "type": "uint256"
        },
        {
          "name": "strikePrice",
          "type": "uint256"
        },
        {
          "name": "amount",
          "type": "uint256"
        },
        {
          "name": "volatility",
          "type": "uint256"
        }
      ],
      "payable": false,
      "stateMutability": "view",
      "type": "function"
    },
    {
      "constant": true,
      "inputs": [],
      "name": "isOwner",
      "outputs": [
        {
          "name": "",
          "type": "bool"
        }
      ],
      "payable": false,
      "stateMutability": "view",
      "type": "function"
    },
    {
      "constant": false,
      "inputs": [
        {
          "name": "currency",
          "type": "address"
        }
      ],
      "name": "redeem",
      "outputs": [],
      "payable": false,
      "stateMutability": "nonpayable",
      "type": "function"
    },
    {
      "constant": false,
      "inputs": [
        {
          "name": "removeUnderlying",
          "type": "uint32"
        }
      ],
      "name": "removeunderlyingAssets",
      "outputs": [],
      "payable": false,
      "stateMutability": "nonpayable",
      "type": "function"
    },
    {
      "constant": true,
      "inputs": [
        {
          "name": "",
          "type": "address"
        }
      ],
      "name": "managerFee",
      "outputs": [
        {
          "name": "",
          "type": "uint256"
        }
      ],
      "payable": false,
      "stateMutability": "view",
      "type": "function"
    },
    {
      "constant": true,
      "inputs": [],
      "name": "transactionFee",
      "outputs": [
        {
          "name": "value",
          "type": "uint256"
        },
        {
          "name": "exponent",
          "type": "int32"
        }
      ],
      "payable": false,
      "stateMutability": "view",
      "type": "function"
    },
    {
      "constant": true,
      "inputs": [
        {
          "name": "",
          "type": "uint256"
        },
        {
          "name": "",
          "type": "uint256"
        },
        {
          "name": "",
          "type": "uint256"
        }
      ],
      "name": "burnBlockOptions",
      "outputs": [
        {
          "name": "",
          "type": "uint256"
        }
      ],
      "payable": false,
      "stateMutability": "view",
      "type": "function"
    },
    {
      "constant": false,
      "inputs": [
        {
          "name": "underlying",
          "type": "uint32"
        }
      ],
      "name": "addUnderlyingAsset",
      "outputs": [],
      "payable": false,
      "stateMutability": "nonpayable",
      "type": "function"
    },
    {
      "constant": true,
      "inputs": [],
      "name": "halted",
      "outputs": [
        {
          "name": "",
          "type": "bool"
        }
      ],
      "payable": false,
      "stateMutability": "view",
      "type": "function"
    },
    {
      "constant": true,
      "inputs": [],
      "name": "optionPhase",
      "outputs": [
        {
          "name": "",
          "type": "uint32"
        }
      ],
      "payable": false,
      "stateMutability": "view",
      "type": "function"
    },
    {
      "constant": true,
      "inputs": [
        {
          "name": "settlement",
          "type": "address"
        }
      ],
      "name": "getFeeBalance",
      "outputs": [
        {
          "name": "",
          "type": "uint256"
        }
      ],
      "payable": false,
      "stateMutability": "view",
      "type": "function"
    },
    {
      "constant": true,
      "inputs": [
        {
          "name": "underlying",
          "type": "uint32"
        }
      ],
      "name": "isEligibleUnderlyingAsset",
      "outputs": [
        {
          "name": "",
          "type": "bool"
        }
      ],
      "payable": false,
      "stateMutability": "view",
      "type": "function"
    },
    {
      "constant": false,
      "inputs": [
        {
          "name": "value",
          "type": "uint256"
        },
        {
          "name": "exponent",
          "type": "int32"
        }
      ],
      "name": "setTransactionFee",
      "outputs": [],
      "payable": false,
      "stateMutability": "nonpayable",
      "type": "function"
    },
    {
      "constant": false,
      "inputs": [
        {
          "name": "addAddress",
          "type": "address"
        }
      ],
      "name": "addWhiteList",
      "outputs": [],
      "payable": false,
      "stateMutability": "nonpayable",
      "type": "function"
    },
    {
      "constant": true,
      "inputs": [],
      "name": "getunderlyingAssets",
      "outputs": [
        {
          "name": "",
          "type": "uint32[]"
        }
      ],
      "payable": false,
      "stateMutability": "view",
      "type": "function"
    },
    {
      "constant": true,
      "inputs": [],
      "name": "getAllFeeBalances",
      "outputs": [
        {
          "name": "",
          "type": "address[]"
        },
        {
          "name": "",
          "type": "uint256[]"
        }
      ],
      "payable": false,
      "stateMutability": "view",
      "type": "function"
    },
    {
      "constant": false,
      "inputs": [
        {
          "name": "newOwner",
          "type": "address"
        }
      ],
      "name": "transferOwnership",
      "outputs": [],
      "payable": false,
      "stateMutability": "nonpayable",
      "type": "function"
    },
    {
      "constant": false,
      "inputs": [
        {
          "name": "halt",
          "type": "bool"
        }
      ],
      "name": "setHalt",
      "outputs": [],
      "payable": false,
      "stateMutability": "nonpayable",
      "type": "function"
    },
    {
      "anonymous": false,
      "inputs": [
        {
          "indexed": true,
          "name": "recieptor",
          "type": "address"
        },
        {
          "indexed": true,
          "name": "collateral",
          "type": "address"
        },
        {
          "indexed": false,
          "name": "payback",
          "type": "uint256"
        }
      ],
      "name": "TransferPayback",
      "type": "event"
    },
    {
      "anonymous": false,
      "inputs": [
        {
          "indexed": true,
          "name": "previousOwner",
          "type": "address"
        },
        {
          "indexed": true,
          "name": "newOwner",
          "type": "address"
        }
      ],
      "name": "OwnershipTransferred",
      "type": "event"
    },
    {
      "constant": false,
      "inputs": [
        {
          "name": "index",
          "type": "uint256"
        }
      ],
      "name": "calculatePhaseOccupiedCollateral",
      "outputs": [],
      "payable": false,
      "stateMutability": "nonpayable",
      "type": "function"
    },
    {
      "constant": true,
      "inputs": [],
      "name": "getTotalOccupiedCollateral",
      "outputs": [
        {
          "name": "",
          "type": "uint256"
        }
      ],
      "payable": false,
      "stateMutability": "view",
      "type": "function"
    }
  ],
  "bytecode": "0x6002805460ff1916905560c060408190526003608081905260021960a0526005556006805463fffffffd63ffffffff19918216179091556402540be400600b556000600d819055600e80549092166101f4179091558054600160a060020a0319163317808255600160a060020a0316917f8be0079c531659141344cd1fd0a4f28419497f9722a3daafe3b4186f6b6457e0908290a3611ee9806100a36000396000f30060806040526004361061017c5763ffffffff60e060020a60003504166309a9d76c8114610181578063132a5627146101e65780632042e5c21461020d5780632f4350c2146102305780633b50c4d11461024557806358a6be1c146102765780635c475d42146102a9578063715018a6146102dd57806373a3d424146102f25780637e2eeb7e14610307578063817bf86d1461031c57806385d79102146103515780638da5cb5b146103665780638ea745b81461037b5780638f32d59b146103cf57806395a2251f146103e457806395efd989146104055780639965a4d51461042357806399deae0a146104445780639ed3edf01461045c578063a95c594a14610471578063afec82fc1461048f578063b9b8af0b146104ad578063c27b7dfb146104c2578063c78f6803146104d7578063db6ad2bd146104f8578063e4a9d2be14610516578063e7cd4a0414610534578063eba1f56014610555578063f20568cd1461056a578063f2fde38b14610618578063f495438714610639575b600080fd5b34801561018d57600080fd5b50610196610653565b60408051602080825283518183015283519192839290830191858101910280838360005b838110156101d25781810151838201526020016101ba565b505050509050019250505060405180910390f35b3480156101f257600080fd5b506101fb6106b6565b60408051918252519081900360200190f35b34801561021957600080fd5b5061022e600160a060020a03600435166106bc565b005b34801561023c57600080fd5b5061022e6107ad565b34801561025157600080fd5b5061025d6004356109ab565b6040805163ffffffff9092168252519081900360200190f35b34801561028257600080fd5b5061028b6109e3565b60408051928352600391820b90910b60208301528051918290030190f35b3480156102b557600080fd5b506102c16004356109ef565b60408051600160a060020a039092168252519081900360200190f35b3480156102e957600080fd5b5061022e610a17565b3480156102fe57600080fd5b506101fb610aba565b34801561031357600080fd5b506101fb610d94565b34801561032857600080fd5b5061033d600160a060020a0360043516610d9a565b604080519115158252519081900360200190f35b34801561035d57600080fd5b5061028b610db1565b34801561037257600080fd5b506102c1610dbe565b34801561038757600080fd5b50610393600435610dcd565b6040805160ff909716875263ffffffff9095166020870152858501939093526060850191909152608084015260a0830152519081900360c00190f35b3480156103db57600080fd5b5061033d610e1d565b3480156103f057600080fd5b5061022e600160a060020a0360043516610e2e565b34801561041157600080fd5b5061022e63ffffffff60043516610fdd565b34801561042f57600080fd5b506101fb600160a060020a03600435166110dc565b34801561045057600080fd5b5061022e6004356110ee565b34801561046857600080fd5b5061028b611375565b34801561047d57600080fd5b506101fb600435602435604435611381565b34801561049b57600080fd5b5061022e63ffffffff600435166113c1565b3480156104b957600080fd5b5061033d611484565b3480156104ce57600080fd5b5061025d61148d565b3480156104e357600080fd5b506101fb600160a060020a0360043516611499565b34801561050457600080fd5b5061033d63ffffffff600435166114b4565b34801561052257600080fd5b5061022e60043560243560030b6114cb565b34801561054057600080fd5b5061022e600160a060020a036004351661153e565b34801561056157600080fd5b50610196611600565b34801561057657600080fd5b5061057f611683565b604051808060200180602001838103835285818151815260200191508051906020019060200280838360005b838110156105c35781810151838201526020016105ab565b50505050905001838103825284818151815260200191508051906020019060200280838360005b838110156106025781810151838201526020016105ea565b5050505090500194505050505060405180910390f35b34801561062457600080fd5b5061022e600160a060020a036004351661178c565b34801561064557600080fd5b5061022e60043515156117e4565b606060038054806020026020016040519081016040528092919081815260200182805480156106ab57602002820191906000526020600020905b8154600160a060020a0316815260019091019060200180831161068d575b505050505090505b90565b600f5481565b60006106c6610e1d565b151561070a576040805160e560020a62461bcd0281526020600482018190526024820152600080516020611e9e833981519152604482015290519081900360640190fd5b61071382611843565b6003549091508110156107a9576003546000190181146107945760038054600019810190811061073f57fe5b60009182526020909120015460038054600160a060020a03909216918390811061076557fe5b9060005260206000200160006101000a815481600160a060020a030219169083600160a060020a031602179055505b60038054906107a7906000198301611e2b565b505b5050565b60008060006107ba610e1d565b15156107fe576040805160e560020a62461bcd0281526020600482018190526024820152600080516020611e9e833981519152604482015290519081900360640190fd5b600092505b6003548310156107a7576004600060038581548110151561082057fe5b6000918252602080832090910154600160a060020a0316835282019290925260400181205492508211156109a05760006004600060038681548110151561086357fe5b6000918252602080832090910154600160a060020a03168352820192909252604001902055600380548490811061089657fe5b600091825260208220015460038054600160a060020a03909216935090859081106108bd57fe5b600091825260209091200154600160a060020a0316141561090b57604051339083156108fc029084906000818181858888f19350505050158015610905573d6000803e3d6000fd5b506109a0565b604080517fa9059cbb000000000000000000000000000000000000000000000000000000008152336004820152602481018490529051600160a060020a0383169163a9059cbb9160448083019260209291908290030181600087803b15801561097357600080fd5b505af1158015610987573d6000803e3d6000fd5b505050506040513d602081101561099d57600080fd5b50505b600190920191610803565b60018054829081106109b957fe5b9060005260206000209060089182820401919006600402915054906101000a900463ffffffff1681565b60075460085460030b82565b60038054829081106109fd57fe5b600091825260209091200154600160a060020a0316905081565b610a1f610e1d565b1515610a63576040805160e560020a62461bcd0281526020600482018190526024820152600080516020611e9e833981519152604482015290519081900360640190fd5b60008054604051600160a060020a03909116907f8be0079c531659141344cd1fd0a4f28419497f9722a3daafe3b4186f6b6457e0908390a36000805473ffffffffffffffffffffffffffffffffffffffff19169055565b60008060606000806000806000610acf611898565b6001546040805182815260208084028201019091529198508015610afd578160200160208202803883390190505b509550600094505b600154851015610be757600a5460018054600160a060020a039092169163da663257919088908110610b3357fe5b90600052602060002090600891828204019190066004029054906101000a900463ffffffff166040518263ffffffff1660e060020a028152600401808263ffffffff168152602001915050602060405180830381600087803b158015610b9857600080fd5b505af1158015610bac573d6000803e3d6000fd5b505050506040513d6020811015610bc257600080fd5b50518651879087908110610bd257fe5b60209081029091010152600190940193610b05565b600f5460010193505b600c54841015610c8957610c2d600c85815481101515610c0c57fe5b6000918252602090912060059091020154610100900463ffffffff166118e3565b9250610c7c610c6f600c86815481101515610c4457fe5b90600052602060002090600502018886815181101515610c6057fe5b9060200190602002015161193e565b889063ffffffff6119c416565b9650600190930192610bf0565b60105460010191505b438211610d88575060008181526009602052604081209094505b8054851015610d7d57610ce3600c8287815481101515610cc857fe5b600091825260208220600290910201015481548110610c0c57fe5b9250610d70610d63600c8388815481101515610cfb57fe5b600091825260208220600290910201015481548110610d1657fe5b90600052602060002090600502018388815481101515610d3257fe5b60009182526020909120600290910201600101548987815181101515610d5457fe5b90602001906020020151611a28565b889063ffffffff611aa316565b9650600190940193610cac565b600190910190610c92565b50949695505050505050565b60105481565b600080610da683611843565b600354119392505050565b60055460065460030b9091565b600054600160a060020a031690565b600c805482908110610ddb57fe5b60009182526020909120600590910201805460018201546002830154600384015460049094015460ff8416955061010090930463ffffffff1693919290919086565b600054600160a060020a0316331490565b600080610e39610e1d565b1515610e7d576040805160e560020a62461bcd0281526020600482018190526024820152600080516020611e9e833981519152604482015290519081900360640190fd5b600160a060020a03831660009081526004602052604081205492508211610eee576040805160e560020a62461bcd02815260206004820152601260248201527f4974277320656d7074792062616c616e63650000000000000000000000000000604482015290519081900360640190fd5b600160a060020a0383166000818152600460205260408120551515610f4057604051339083156108fc029084906000818181858888f19350505050158015610f3a573d6000803e3d6000fd5b506107a7565b50604080517fa9059cbb0000000000000000000000000000000000000000000000000000000081523360048201526024810183905290518391600160a060020a0383169163a9059cbb916044808201926020929091908290030181600087803b158015610fac57600080fd5b505af1158015610fc0573d6000803e3d6000fd5b505050506040513d6020811015610fd657600080fd5b5050505050565b6000610fe7610e1d565b151561102b576040805160e560020a62461bcd0281526020600482018190526024820152600080516020611e9e833981519152604482015290519081900360640190fd5b611034826118e3565b6001549091508110156107a9576001546000190181146110c95760018054600019810190811061106057fe5b90600052602060002090600891828204019190066004029054906101000a900463ffffffff1660018281548110151561109557fe5b90600052602060002090600891828204019190066004026101000a81548163ffffffff021916908363ffffffff1602179055505b60018054906107a7906000198301611e4f565b60046020526000908152604090205481565b60008060606000806110fe610e1d565b1515611142576040805160e560020a62461bcd0281526020600482018190526024820152600080516020611e9e833981519152604482015290519081900360640190fd5b600e5461115a90879063ffffffff90811690611ae516565b600c54909550851061116b5761136d565b6011546001870111156111895760018601611187601182611e2b565b505b600e546111a190869063ffffffff908116906119c416565b600c549094508411156111b457600c5493505b6001546040805182815260208084028201019091529080156111e0578160200160208202803883390190505b509250600091505b6001548210156112ca57600a5460018054600160a060020a039092169163da66325791908590811061121657fe5b90600052602060002090600891828204019190066004029054906101000a900463ffffffff166040518263ffffffff1660e060020a028152600401808263ffffffff168152602001915050602060405180830381600087803b15801561127b57600080fd5b505af115801561128f573d6000803e3d6000fd5b505050506040513d60208110156112a557600080fd5b505183518490849081106112b557fe5b602090810290910101526001909101906111e8565b5060005b83851015611335576112e8600c86815481101515610c0c57fe5b955061132861131b600c878154811015156112ff57fe5b90600052602060002090600502018589815181101515610c6057fe5b829063ffffffff6119c416565b60019095019490506112ce565b8060118781548110151561134557fe5b906000526020600020018190555060018403600f54101561136d576000198401600f55436010555b505050505050565b60055460065460030b82565b60096020528260005260406000208281548110151561139c57fe5b9060005260206000209060020201816002811015156113b757fe5b0154925083915050565b60006113cb610e1d565b151561140f576040805160e560020a62461bcd0281526020600482018190526024820152600080516020611e9e833981519152604482015290519081900360640190fd5b611418826118e3565b6001549091508114156107a957600180548082018255600091909152600881047fb10e2d527612073b26eecdfd717e6a320cf44b4afac2b0732d9fcbe2b7fa0cf601805463ffffffff80861660046007909516949094026101000a938402930219169190911790555050565b60025460ff1681565b600e5463ffffffff1681565b600160a060020a031660009081526004602052604090205490565b6000806114c0836118e3565b600154119392505050565b6114d3610e1d565b1515611517576040805160e560020a62461bcd0281526020600482018190526024820152600080516020611e9e833981519152604482015290519081900360640190fd5b6005919091556006805460039290920b63ffffffff1663ffffffff19909216919091179055565b6000611548610e1d565b151561158c576040805160e560020a62461bcd0281526020600482018190526024820152600080516020611e9e833981519152604482015290519081900360640190fd5b61159582611843565b6003549091508114156107a957600380546001810182556000919091527fc2575a0e9e593c00f959f8c92f12db2869c3395a3b0502d05e2516446f71f85b018054600160a060020a03841673ffffffffffffffffffffffffffffffffffffffff199091161790555050565b606060018054806020026020016040519081016040528092919081815260200182805480156106ab57602002820191906000526020600020906000905b82829054906101000a900463ffffffff1663ffffffff168152602001906004019060208260030104928301926001038202915080841161163d5790505050505050905090565b606080606060006003805490506040519080825280602002602001820160405280156116b9578160200160208202803883390190505b509150600090505b60035481101561172357600460006003838154811015156116de57fe5b6000918252602080832090910154600160a060020a03168352820192909252604001902054825183908390811061171157fe5b602090810290910101526001016116c1565b6003828180548060200260200160405190810160405280929190818152602001828054801561177b57602002820191906000526020600020905b8154600160a060020a0316815260019091019060200180831161175d575b505050505091509350935050509091565b611794610e1d565b15156117d8576040805160e560020a62461bcd0281526020600482018190526024820152600080516020611e9e833981519152604482015290519081900360640190fd5b6117e181611b84565b50565b6117ec610e1d565b1515611830576040805160e560020a62461bcd0281526020600482018190526024820152600080516020611e9e833981519152604482015290519081900360640190fd5b6002805460ff1916911515919091179055565b6000805b6003548110156118925782600160a060020a031660038281548110151561186a57fe5b600091825260209091200154600160a060020a0316141561188a57611892565b600101611847565b92915050565b600080805b6011548110156118dd576118d36011828154811015156118b957fe5b9060005260206000200154836119c490919063ffffffff16565b915060010161189d565b50919050565b6000805b600154811015611892578263ffffffff1660018281548110151561190757fe5b6000918252602090912060088204015460079091166004026101000a900463ffffffff16141561193657611892565b6001016118e7565b60028201548254600091829160ff1615908410141561197757600384015460028501546119709163ffffffff611ae516565b9050611990565b600384015461198d90849063ffffffff611ae516565b90505b604080518082019091526007548152600854600390810b810b900b60208201526119ba9082611c72565b91505b5092915050565b600082820183811015611a21576040805160e560020a62461bcd02815260206004820152601b60248201527f536166654d6174683a206164646974696f6e206f766572666c6f770000000000604482015290519081900360640190fd5b9392505050565b60028301548354600091829160ff16159084101415611a5d576002850154611a56908563ffffffff611ae516565b9050611a70565b611a6d838563ffffffff611ae516565b90505b604080518082019091526007548152600854600390810b810b900b6020820152611a9a9082611c72565b95945050505050565b6000611a2183836040805190810160405280601e81526020017f536166654d6174683a207375627472616374696f6e206f766572666c6f770000815250611ce5565b600080831515611af857600091506119bd565b50828202828482811515611b0857fe5b0414611a21576040805160e560020a62461bcd02815260206004820152602160248201527f536166654d6174683a206d756c7469706c69636174696f6e206f766572666c6f60448201527f7700000000000000000000000000000000000000000000000000000000000000606482015290519081900360840190fd5b600160a060020a0381161515611c0a576040805160e560020a62461bcd02815260206004820152602660248201527f4f776e61626c653a206e6577206f776e657220697320746865207a65726f206160448201527f6464726573730000000000000000000000000000000000000000000000000000606482015290519081900360840190fd5b60008054604051600160a060020a03808516939216917f8be0079c531659141344cd1fd0a4f28419497f9722a3daafe3b4186f6b6457e091a36000805473ffffffffffffffffffffffffffffffffffffffff1916600160a060020a0392909216919091179055565b81516000908190611c89908463ffffffff611ae516565b90506000846020015160030b1315611cbe576020840151611cb790829060030b600a0a63ffffffff611ae516565b9050611a21565b6020840151611cdd90829060000360030b600a0a63ffffffff611d8216565b949350505050565b6000808285851115611d785760405160e560020a62461bcd0281526004018080602001828103825283818151815260200191508051906020019080838360005b83811015611d3d578181015183820152602001611d25565b50505050905090810190601f168015611d6a5780820380516001836020036101000a031916815260200191505b509250505060405180910390fd5b5050509103919050565b6000611a2183836040805190810160405280601a81526020017f536166654d6174683a206469766973696f6e206279207a65726f00000000000081525060008082818511611e155760405160e560020a62461bcd02815260040180806020018281038252838181518152602001915080519060200190808383600083811015611d3d578181015183820152602001611d25565b508385811515611e2157fe5b0495945050505050565b8154818355818111156107a7576000838152602090206107a7918101908301611e7f565b8154818355818111156107a75760070160089004816007016008900483600052602060002091820191016107a791905b6106b391905b80821115611e995760008155600101611e85565b509056004f776e61626c653a2063616c6c6572206973206e6f7420746865206f776e6572a165627a7a72305820aa46ee3a561dfdd1445c74cce03d1397540ab15ec746c18102ef99314da5578c0029",
  "source": "pragma solidity ^0.4.26;\r\nimport \"./SafeMath.sol\";\r\nimport \"./TransactionFee.sol\";\r\nimport \"./CompoundOracleInterface.sol\";\r\nimport \"./underlyingAssets.sol\";\r\ncontract OptionslPool is UnderlyingAssets,TransactionFee {\r\n    using SafeMath for uint256;\r\n    struct OptionsInfo {\r\n        uint8   \toptType;    //0 for call, 1 for put\r\n        uint32\t\tunderlying;\r\n        uint256\t\texpiration;\r\n        uint256     strikePrice;\r\n        uint256     amount;\r\n        uint256     volatility;\r\n    }\r\n\r\n    Number public collateralRate;\r\n    //each block burn options\r\n    mapping(uint256=>uint256[2][]) public burnBlockOptions;\r\n    ICompoundOracle internal _oracle;\r\n    uint256 private _calDecimal = 10000000000;\r\n\r\n    OptionsInfo[] public allOptions;\r\n\r\n    uint256 private firstPhase = 0;\r\n    uint32 public optionPhase = 500;\r\n    uint256 public lastCallOption;\r\n    uint256 public lastCalBlock;\r\n\r\n    uint256[] private OptionsPhases;\r\n\r\n    function calculatePhaseOccupiedCollateral(uint256 index) public onlyOwner {\r\n        uint256 beginOption = index.mul(optionPhase);\r\n        if (beginOption>=allOptions.length){\r\n            return;\r\n        }\r\n        if(OptionsPhases.length<index+1){\r\n            OptionsPhases.length = index+1;\r\n        }\r\n        uint256 lastOption = beginOption.add(optionPhase);\r\n        if (lastOption>allOptions.length) {\r\n            lastOption = allOptions.length;\r\n        }\r\n        uint256[] memory prices = new uint256[](underlyingAssets.length);\r\n        for (uint256 i = 0;i<underlyingAssets.length;i++){\r\n            prices[i] = _oracle.getUnderlyingPrice(underlyingAssets[i]);\r\n        }\r\n        uint256 totalOccupied = 0;\r\n        for (;beginOption<lastOption;beginOption++){\r\n            index = _getEligibleUnderlyingIndex(allOptions[beginOption].underlying);\r\n            totalOccupied = totalOccupied.add(calOptionsCollateral(allOptions[beginOption],prices[index]));\r\n        }\r\n        OptionsPhases[index] = totalOccupied;\r\n        if (lastCallOption<lastOption-1) {\r\n            lastCallOption = lastOption-1;\r\n            lastCalBlock = block.number;\r\n        }\r\n    }\r\n    function createOptions(uint8 optType,uint32 underlying,uint256 expiration,uint256 strikePrice,uint256 amount) internal {\r\n        allOptions.push(OptionsInfo(optType,underlying,expiration,strikePrice,amount,0));\r\n    }\r\n    function getTotalOccupiedCollateral() public view returns (uint256) {\r\n        uint256 totalOccupied = sumOptionPhases();\r\n        uint256[] memory prices = new uint256[](underlyingAssets.length);\r\n        for (uint256 i = 0;i<underlyingAssets.length;i++){\r\n            prices[i] = _oracle.getUnderlyingPrice(underlyingAssets[i]);\r\n        }\r\n        for (uint256 beginOption = lastCallOption+1; beginOption < allOptions.length;beginOption++){\r\n            uint256 index = _getEligibleUnderlyingIndex(allOptions[beginOption].underlying);\r\n            totalOccupied = totalOccupied.add(calOptionsCollateral(allOptions[beginOption],prices[index]));\r\n        }\r\n        for (uint256 beginBlock = lastCalBlock+1; beginBlock <= block.number;beginBlock++){\r\n            uint256[2][] storage burnedTokens = burnBlockOptions[beginBlock];\r\n            for (i = 0;i<burnedTokens.length;i++){\r\n                index = _getEligibleUnderlyingIndex(allOptions[burnedTokens[i][0]].underlying);\r\n                totalOccupied = totalOccupied.sub(calBurnedOptionsCollateral(allOptions[burnedTokens[i][0]],\r\n                    burnedTokens[i][1],prices[index]));\r\n            }\r\n        }\r\n        return totalOccupied;\r\n    }\r\n    function sumOptionPhases()internal view returns(uint256){\r\n        uint256 totalOccupied = 0;\r\n        for (uint256 i=0;i<OptionsPhases.length;i++){\r\n            totalOccupied = totalOccupied.add(OptionsPhases[i]);\r\n        }\r\n        return totalOccupied;\r\n    }\r\n    function calOptionsCollateral(OptionsInfo storage option,uint256 underlyingPrice)internal view returns(uint256){\r\n        uint256 totalOccupied = 0;\r\n        if ((option.optType == 0) == (option.strikePrice>underlyingPrice)){ // call\r\n            totalOccupied = option.strikePrice.mul(option.amount);\r\n        } else {\r\n            totalOccupied = underlyingPrice.mul(option.amount);\r\n        }\r\n        return _calNumberMulUint(collateralRate,totalOccupied);\r\n    }\r\n    function calBurnedOptionsCollateral(OptionsInfo storage option,uint256 burned,uint256 underlyingPrice)internal view returns(uint256){\r\n        uint256 totalOccupied = 0;\r\n        if ((option.optType == 0) == (option.strikePrice>underlyingPrice)){ // call\r\n            totalOccupied = option.strikePrice.mul(burned);\r\n        } else {\r\n            totalOccupied = underlyingPrice.mul(burned);\r\n        }\r\n        return _calNumberMulUint(collateralRate,totalOccupied);\r\n    }\r\n    function burnOptions(uint256 optionIndex,uint256 amount)internal{\r\n        require (optionIndex<allOptions.length,\"option index is out of range!\");\r\n        allOptions[optionIndex].amount = allOptions[optionIndex].amount.sub(amount);\r\n        burnBlockOptions[block.number].push([optionIndex,amount]);\r\n    }\r\n}",
  "sourcePath": "C:\\work\\solidity\\FinnexusOptions_V2\\contracts\\OptionslPool.sol",
  "compiler": {
    "name": "solc",
    "version": "0.4.26+commit.4563c3fc.Emscripten.clang"
  },
  "schemaVersion": "3.1.0",
  "updatedAt": "2020-07-16T13:05:57.884Z",
  "devdoc": {
    "methods": {
      "addUnderlyingAsset(uint32)": {
        "details": "Implementation of add an eligible underlying into the underlyingAssets.\r",
        "params": {
          "underlying": "new eligible underlying.\r"
        }
      },
      "addWhiteList(address)": {
        "details": "Implementation of add an eligible address into the whitelist.\r",
        "params": {
          "addAddress": "new eligible address.\r"
        }
      },
      "getTransactionFee()": {
        "details": "Returns the rate of trasaction fee.\r"
      },
      "getWhiteList()": {
        "details": "Implementation of getting the eligible whitelist.\r"
      },
      "getunderlyingAssets()": {
        "details": "Implementation of getting the eligible underlyingAssets.\r"
      },
      "isEligibleAddress(address)": {
        "details": "Implementation of testing whether the input address is eligible.\r",
        "params": {
          "tmpAddress": "input address for testing.\r"
        }
      },
      "isEligibleUnderlyingAsset(uint32)": {
        "details": "Implementation of testing whether the input underlying is eligible.\r",
        "params": {
          "underlying": "input underlying for testing.\r"
        }
      },
      "isOwner()": {
        "details": "Returns true if the caller is the current owner."
      },
      "owner()": {
        "details": "Returns the address of the current owner."
      },
      "removeWhiteList(address)": {
        "details": "Implementation of revoke an invalid address from the whitelist.\r",
        "params": {
          "removeAddress": "revoked address.\r"
        }
      },
      "removeunderlyingAssets(uint32)": {
        "details": "Implementation of revoke an invalid underlying from the underlyingAssets.\r",
        "params": {
          "removeUnderlying": "revoked underlying.\r"
        }
      },
      "renounceOwnership()": {
        "details": "Leaves the contract without owner. It will not be possible to call `onlyOwner` functions anymore. Can only be called by the current owner.     * NOTE: Renouncing ownership will leave the contract without an owner, thereby removing any functionality that is only available to the owner."
      },
      "setTransactionFee(uint256,int32)": {
        "details": "set the rate of trasaction fee.\r",
        "params": {
          "exponent": "the exponent figures of transaction fee.\r transaction fee = Number(value,exponent);\r",
          "value": "the significant figures of transaction fee .\r"
        }
      },
      "transferOwnership(address)": {
        "details": "Transfers ownership of the contract to a new account (`newOwner`). Can only be called by the current owner."
      }
    }
  },
  "userdoc": {
    "methods": {
      "setHalt(bool)": {
        "notice": "function Emergency situation that requires contribution period to stop or not."
      }
    }
  }
}