{
  "contractName": "OptionsPoolTest",
  "abi": [
    {
      "constant": true,
      "inputs": [
        {
          "name": "from",
          "type": "uint256"
        },
        {
          "name": "size",
          "type": "uint256"
        }
      ],
      "name": "getOptionInfoList",
      "outputs": [
        {
          "name": "",
          "type": "address[]"
        },
        {
          "name": "",
          "type": "uint256[]"
        },
        {
          "name": "",
          "type": "uint256[]"
        },
        {
          "name": "",
          "type": "uint256[]"
        },
        {
          "name": "",
          "type": "uint256[]"
        }
      ],
      "payable": false,
      "stateMutability": "view",
      "type": "function"
    },
    {
      "constant": false,
      "inputs": [
        {
          "name": "volatility",
          "type": "address"
        }
      ],
      "name": "setVolatilityAddress",
      "outputs": [],
      "payable": false,
      "stateMutability": "nonpayable",
      "type": "function"
    },
    {
      "constant": true,
      "inputs": [
        {
          "name": "calInfo",
          "type": "uint256"
        },
        {
          "name": "begin",
          "type": "uint256"
        },
        {
          "name": "end",
          "type": "uint256"
        },
        {
          "name": "whiteList",
          "type": "address[]"
        }
      ],
      "name": "calRangeSharedPayment",
      "outputs": [
        {
          "name": "",
          "type": "uint256[]"
        },
        {
          "name": "",
          "type": "uint256"
        },
        {
          "name": "",
          "type": "bool"
        }
      ],
      "payable": false,
      "stateMutability": "view",
      "type": "function"
    },
    {
      "constant": true,
      "inputs": [
        {
          "name": "ids",
          "type": "uint256[]"
        }
      ],
      "name": "getOptionInfoListFromID",
      "outputs": [
        {
          "name": "",
          "type": "address[]"
        },
        {
          "name": "",
          "type": "uint256[]"
        },
        {
          "name": "",
          "type": "uint256[]"
        },
        {
          "name": "",
          "type": "uint256[]"
        },
        {
          "name": "",
          "type": "uint256[]"
        }
      ],
      "payable": false,
      "stateMutability": "view",
      "type": "function"
    },
    {
      "constant": true,
      "inputs": [],
      "name": "getUnderlyingAssets",
      "outputs": [
        {
          "name": "",
          "type": "uint32[]"
        }
      ],
      "payable": false,
      "stateMutability": "view",
      "type": "function"
    },
    {
      "constant": true,
      "inputs": [
        {
          "name": "expiration",
          "type": "uint256"
        },
        {
          "name": "underlying",
          "type": "uint32"
        }
      ],
      "name": "buyOptionCheck",
      "outputs": [],
      "payable": false,
      "stateMutability": "view",
      "type": "function"
    },
    {
      "constant": true,
      "inputs": [],
      "name": "getVolatilityAddress",
      "outputs": [
        {
          "name": "",
          "type": "address"
        }
      ],
      "payable": false,
      "stateMutability": "view",
      "type": "function"
    },
    {
      "constant": true,
      "inputs": [],
      "name": "getOptionCalRangeAll",
      "outputs": [
        {
          "name": "",
          "type": "uint256"
        },
        {
          "name": "",
          "type": "uint256"
        },
        {
          "name": "",
          "type": "uint256"
        },
        {
          "name": "",
          "type": "uint256"
        },
        {
          "name": "",
          "type": "uint256"
        },
        {
          "name": "",
          "type": "uint256"
        }
      ],
      "payable": false,
      "stateMutability": "view",
      "type": "function"
    },
    {
      "constant": true,
      "inputs": [],
      "name": "getLatestOption",
      "outputs": [
        {
          "name": "",
          "type": "uint256"
        },
        {
          "name": "",
          "type": "address"
        },
        {
          "name": "",
          "type": "uint8"
        },
        {
          "name": "",
          "type": "uint32"
        },
        {
          "name": "",
          "type": "uint256"
        },
        {
          "name": "",
          "type": "uint256"
        },
        {
          "name": "",
          "type": "uint256"
        }
      ],
      "payable": false,
      "stateMutability": "view",
      "type": "function"
    },
    {
      "constant": true,
      "inputs": [
        {
          "name": "optionsId",
          "type": "uint256"
        }
      ],
      "name": "getOptionsById",
      "outputs": [
        {
          "name": "",
          "type": "uint256"
        },
        {
          "name": "",
          "type": "address"
        },
        {
          "name": "",
          "type": "uint8"
        },
        {
          "name": "",
          "type": "uint32"
        },
        {
          "name": "",
          "type": "uint256"
        },
        {
          "name": "",
          "type": "uint256"
        },
        {
          "name": "",
          "type": "uint256"
        }
      ],
      "payable": false,
      "stateMutability": "view",
      "type": "function"
    },
    {
      "constant": false,
      "inputs": [
        {
          "name": "oracle",
          "type": "address"
        }
      ],
      "name": "setOracleAddress",
      "outputs": [],
      "payable": false,
      "stateMutability": "nonpayable",
      "type": "function"
    },
    {
      "constant": true,
      "inputs": [],
      "name": "getOptionsPriceAddress",
      "outputs": [
        {
          "name": "",
          "type": "address"
        }
      ],
      "payable": false,
      "stateMutability": "view",
      "type": "function"
    },
    {
      "constant": true,
      "inputs": [],
      "name": "getBurnTimeLimit",
      "outputs": [
        {
          "name": "",
          "type": "uint256"
        }
      ],
      "payable": false,
      "stateMutability": "view",
      "type": "function"
    },
    {
      "constant": true,
      "inputs": [
        {
          "name": "optionsId",
          "type": "uint256"
        },
        {
          "name": "amount",
          "type": "uint256"
        }
      ],
      "name": "getExerciseWorth",
      "outputs": [
        {
          "name": "",
          "type": "uint256"
        }
      ],
      "payable": false,
      "stateMutability": "view",
      "type": "function"
    },
    {
      "constant": true,
      "inputs": [
        {
          "name": "optionsId",
          "type": "uint256"
        }
      ],
      "name": "getOptionsLimitTimeById",
      "outputs": [
        {
          "name": "",
          "type": "uint256"
        }
      ],
      "payable": false,
      "stateMutability": "view",
      "type": "function"
    },
    {
      "constant": false,
      "inputs": [],
      "name": "renounceOwnership",
      "outputs": [],
      "payable": false,
      "stateMutability": "nonpayable",
      "type": "function"
    },
    {
      "constant": true,
      "inputs": [
        {
          "name": "expiration",
          "type": "uint256"
        }
      ],
      "name": "checkExpiration",
      "outputs": [],
      "payable": false,
      "stateMutability": "view",
      "type": "function"
    },
    {
      "constant": true,
      "inputs": [],
      "name": "getTotalOccupiedCollateral",
      "outputs": [
        {
          "name": "",
          "type": "uint256"
        }
      ],
      "payable": false,
      "stateMutability": "view",
      "type": "function"
    },
    {
      "constant": false,
      "inputs": [
        {
          "name": "from",
          "type": "address"
        },
        {
          "name": "id",
          "type": "uint256"
        },
        {
          "name": "amount",
          "type": "uint256"
        }
      ],
      "name": "burnOptions",
      "outputs": [],
      "payable": false,
      "stateMutability": "nonpayable",
      "type": "function"
    },
    {
      "constant": false,
      "inputs": [
        {
          "name": "expiration",
          "type": "uint256"
        }
      ],
      "name": "addExpiration",
      "outputs": [],
      "payable": false,
      "stateMutability": "nonpayable",
      "type": "function"
    },
    {
      "constant": false,
      "inputs": [
        {
          "name": "removeExpiration",
          "type": "uint256"
        }
      ],
      "name": "removeExpirationList",
      "outputs": [
        {
          "name": "",
          "type": "bool"
        }
      ],
      "payable": false,
      "stateMutability": "nonpayable",
      "type": "function"
    },
    {
      "constant": true,
      "inputs": [],
      "name": "owner",
      "outputs": [
        {
          "name": "",
          "type": "address"
        }
      ],
      "payable": false,
      "stateMutability": "view",
      "type": "function"
    },
    {
      "constant": true,
      "inputs": [],
      "name": "isOwner",
      "outputs": [
        {
          "name": "",
          "type": "bool"
        }
      ],
      "payable": false,
      "stateMutability": "view",
      "type": "function"
    },
    {
      "constant": false,
      "inputs": [
        {
          "name": "calInfo",
          "type": "uint256"
        },
        {
          "name": "firstOption",
          "type": "uint256"
        },
        {
          "name": "prices",
          "type": "uint256[]"
        },
        {
          "name": "calTime",
          "type": "uint256"
        }
      ],
      "name": "setSharedState",
      "outputs": [],
      "payable": false,
      "stateMutability": "nonpayable",
      "type": "function"
    },
    {
      "constant": true,
      "inputs": [],
      "name": "getExpirationList",
      "outputs": [
        {
          "name": "",
          "type": "uint256[]"
        }
      ],
      "payable": false,
      "stateMutability": "view",
      "type": "function"
    },
    {
      "constant": false,
      "inputs": [
        {
          "name": "from",
          "type": "address"
        },
        {
          "name": "settlement",
          "type": "address"
        },
        {
          "name": "type_ly_exp",
          "type": "uint256"
        },
        {
          "name": "strikePrice",
          "type": "uint256"
        },
        {
          "name": "optionPrice",
          "type": "uint256"
        },
        {
          "name": "amount",
          "type": "uint256"
        }
      ],
      "name": "createOptions",
      "outputs": [],
      "payable": false,
      "stateMutability": "nonpayable",
      "type": "function"
    },
    {
      "constant": true,
      "inputs": [
        {
          "name": "index",
          "type": "uint256"
        }
      ],
      "name": "getsharedPhaseCalInfo",
      "outputs": [
        {
          "name": "",
          "type": "uint256"
        },
        {
          "name": "",
          "type": "uint256[]"
        }
      ],
      "payable": false,
      "stateMutability": "view",
      "type": "function"
    },
    {
      "constant": false,
      "inputs": [
        {
          "name": "addAddress",
          "type": "address"
        }
      ],
      "name": "addOperator",
      "outputs": [],
      "payable": false,
      "stateMutability": "nonpayable",
      "type": "function"
    },
    {
      "constant": true,
      "inputs": [],
      "name": "getOptionPhaseCalRange",
      "outputs": [
        {
          "name": "",
          "type": "uint256"
        },
        {
          "name": "",
          "type": "uint256"
        },
        {
          "name": "",
          "type": "uint256"
        }
      ],
      "payable": false,
      "stateMutability": "view",
      "type": "function"
    },
    {
      "constant": true,
      "inputs": [
        {
          "name": "calInfo",
          "type": "uint256"
        }
      ],
      "name": "calculatePhaseOccupiedCollateral",
      "outputs": [
        {
          "name": "",
          "type": "uint256"
        },
        {
          "name": "",
          "type": "uint256"
        },
        {
          "name": "",
          "type": "bool"
        }
      ],
      "payable": false,
      "stateMutability": "view",
      "type": "function"
    },
    {
      "constant": true,
      "inputs": [
        {
          "name": "expiration",
          "type": "uint256"
        }
      ],
      "name": "isEligibleExpiration",
      "outputs": [
        {
          "name": "",
          "type": "bool"
        }
      ],
      "payable": false,
      "stateMutability": "view",
      "type": "function"
    },
    {
      "constant": false,
      "inputs": [
        {
          "name": "optionsPrice",
          "type": "address"
        }
      ],
      "name": "setOptionsPriceAddress",
      "outputs": [],
      "payable": false,
      "stateMutability": "nonpayable",
      "type": "function"
    },
    {
      "constant": false,
      "inputs": [
        {
          "name": "removeAddress",
          "type": "address"
        }
      ],
      "name": "removeOperator",
      "outputs": [
        {
          "name": "",
          "type": "bool"
        }
      ],
      "payable": false,
      "stateMutability": "nonpayable",
      "type": "function"
    },
    {
      "constant": true,
      "inputs": [
        {
          "name": "calInfo",
          "type": "uint256"
        },
        {
          "name": "whiteList",
          "type": "address[]"
        }
      ],
      "name": "calculatePhaseSharedPayment",
      "outputs": [
        {
          "name": "",
          "type": "uint256[]"
        },
        {
          "name": "",
          "type": "uint256"
        },
        {
          "name": "",
          "type": "bool"
        }
      ],
      "payable": false,
      "stateMutability": "view",
      "type": "function"
    },
    {
      "constant": false,
      "inputs": [
        {
          "name": "underlying",
          "type": "uint32"
        }
      ],
      "name": "addUnderlyingAsset",
      "outputs": [],
      "payable": false,
      "stateMutability": "nonpayable",
      "type": "function"
    },
    {
      "constant": true,
      "inputs": [],
      "name": "getOracleAddress",
      "outputs": [
        {
          "name": "",
          "type": "address"
        }
      ],
      "payable": false,
      "stateMutability": "view",
      "type": "function"
    },
    {
      "constant": false,
      "inputs": [
        {
          "name": "calInfo",
          "type": "uint256"
        },
        {
          "name": "totalOccupied",
          "type": "uint256"
        },
        {
          "name": "beginOption",
          "type": "uint256"
        }
      ],
      "name": "setCollateralPhase",
      "outputs": [],
      "payable": false,
      "stateMutability": "nonpayable",
      "type": "function"
    },
    {
      "constant": false,
      "inputs": [
        {
          "name": "calInfo",
          "type": "uint256"
        }
      ],
      "name": "setPhaseOccupiedCollateral",
      "outputs": [],
      "payable": false,
      "stateMutability": "nonpayable",
      "type": "function"
    },
    {
      "constant": false,
      "inputs": [
        {
          "name": "phase",
          "type": "uint32"
        }
      ],
      "name": "setOptionPhase",
      "outputs": [],
      "payable": false,
      "stateMutability": "nonpayable",
      "type": "function"
    },
    {
      "constant": true,
      "inputs": [],
      "name": "getOptionInfoLength",
      "outputs": [
        {
          "name": "",
          "type": "uint256"
        }
      ],
      "payable": false,
      "stateMutability": "view",
      "type": "function"
    },
    {
      "constant": false,
      "inputs": [
        {
          "name": "phase",
          "type": "uint32"
        }
      ],
      "name": "setSharedPhase",
      "outputs": [],
      "payable": false,
      "stateMutability": "nonpayable",
      "type": "function"
    },
    {
      "constant": false,
      "inputs": [
        {
          "name": "timeLimit",
          "type": "uint256"
        }
      ],
      "name": "setBurnTimeLimit",
      "outputs": [],
      "payable": false,
      "stateMutability": "nonpayable",
      "type": "function"
    },
    {
      "constant": false,
      "inputs": [
        {
          "name": "managerAddress",
          "type": "address"
        }
      ],
      "name": "setManager",
      "outputs": [],
      "payable": false,
      "stateMutability": "nonpayable",
      "type": "function"
    },
    {
      "constant": true,
      "inputs": [],
      "name": "getManager",
      "outputs": [
        {
          "name": "",
          "type": "address"
        }
      ],
      "payable": false,
      "stateMutability": "view",
      "type": "function"
    },
    {
      "constant": false,
      "inputs": [
        {
          "name": "removeUnderlying",
          "type": "uint32"
        }
      ],
      "name": "removeUnderlyingAssets",
      "outputs": [
        {
          "name": "",
          "type": "bool"
        }
      ],
      "payable": false,
      "stateMutability": "nonpayable",
      "type": "function"
    },
    {
      "constant": true,
      "inputs": [
        {
          "name": "underlying",
          "type": "uint32"
        }
      ],
      "name": "isEligibleUnderlyingAsset",
      "outputs": [
        {
          "name": "",
          "type": "bool"
        }
      ],
      "payable": false,
      "stateMutability": "view",
      "type": "function"
    },
    {
      "constant": true,
      "inputs": [
        {
          "name": "calInfo",
          "type": "uint256"
        },
        {
          "name": "whiteList",
          "type": "address[]"
        }
      ],
      "name": "calculatePhaseOptionsFall",
      "outputs": [
        {
          "name": "",
          "type": "int256[]"
        },
        {
          "name": "",
          "type": "uint256[]"
        }
      ],
      "payable": false,
      "stateMutability": "view",
      "type": "function"
    },
    {
      "constant": false,
      "inputs": [
        {
          "name": "index",
          "type": "uint256"
        },
        {
          "name": "addAddress",
          "type": "address"
        }
      ],
      "name": "setOperator",
      "outputs": [],
      "payable": false,
      "stateMutability": "nonpayable",
      "type": "function"
    },
    {
      "constant": true,
      "inputs": [
        {
          "name": "user",
          "type": "address"
        }
      ],
      "name": "getUserOptionsID",
      "outputs": [
        {
          "name": "",
          "type": "uint256[]"
        }
      ],
      "payable": false,
      "stateMutability": "view",
      "type": "function"
    },
    {
      "constant": true,
      "inputs": [],
      "name": "getOperator",
      "outputs": [
        {
          "name": "",
          "type": "address[]"
        }
      ],
      "payable": false,
      "stateMutability": "view",
      "type": "function"
    },
    {
      "constant": true,
      "inputs": [
        {
          "name": "underlying",
          "type": "uint32"
        }
      ],
      "name": "checkUnderlyingAsset",
      "outputs": [],
      "payable": false,
      "stateMutability": "view",
      "type": "function"
    },
    {
      "constant": false,
      "inputs": [
        {
          "name": "newOwner",
          "type": "address"
        }
      ],
      "name": "transferOwnership",
      "outputs": [],
      "payable": false,
      "stateMutability": "nonpayable",
      "type": "function"
    },
    {
      "constant": true,
      "inputs": [
        {
          "name": "user",
          "type": "address"
        },
        {
          "name": "from",
          "type": "uint256"
        },
        {
          "name": "size",
          "type": "uint256"
        }
      ],
      "name": "getUserOptionsID",
      "outputs": [
        {
          "name": "",
          "type": "uint256[]"
        }
      ],
      "payable": false,
      "stateMutability": "view",
      "type": "function"
    },
    {
      "constant": true,
      "inputs": [],
      "name": "getsharedPhaseCalRange",
      "outputs": [
        {
          "name": "",
          "type": "uint256"
        },
        {
          "name": "",
          "type": "uint256"
        },
        {
          "name": "",
          "type": "uint256"
        },
        {
          "name": "",
          "type": "uint256"
        }
      ],
      "payable": false,
      "stateMutability": "view",
      "type": "function"
    },
    {
      "inputs": [
        {
          "name": "oracleAddr",
          "type": "address"
        },
        {
          "name": "optionsPriceAddr",
          "type": "address"
        },
        {
          "name": "ivAddress",
          "type": "address"
        }
      ],
      "payable": false,
      "stateMutability": "nonpayable",
      "type": "constructor"
    },
    {
      "anonymous": false,
      "inputs": [
        {
          "indexed": true,
          "name": "owner",
          "type": "address"
        },
        {
          "indexed": true,
          "name": "optionID",
          "type": "uint256"
        },
        {
          "indexed": false,
          "name": "optType",
          "type": "uint8"
        },
        {
          "indexed": false,
          "name": "underlying",
          "type": "uint32"
        },
        {
          "indexed": false,
          "name": "expiration",
          "type": "uint256"
        },
        {
          "indexed": false,
          "name": "strikePrice",
          "type": "uint256"
        },
        {
          "indexed": false,
          "name": "amount",
          "type": "uint256"
        }
      ],
      "name": "CreateOption",
      "type": "event"
    },
    {
      "anonymous": false,
      "inputs": [
        {
          "indexed": true,
          "name": "owner",
          "type": "address"
        },
        {
          "indexed": true,
          "name": "optionID",
          "type": "uint256"
        },
        {
          "indexed": false,
          "name": "amount",
          "type": "uint256"
        }
      ],
      "name": "BurnOption",
      "type": "event"
    },
    {
      "anonymous": false,
      "inputs": [
        {
          "indexed": false,
          "name": "value1",
          "type": "uint256"
        },
        {
          "indexed": false,
          "name": "value2",
          "type": "uint256"
        },
        {
          "indexed": false,
          "name": "value3",
          "type": "uint256"
        }
      ],
      "name": "DebugEvent",
      "type": "event"
    },
    {
      "anonymous": false,
      "inputs": [
        {
          "indexed": true,
          "name": "previousOwner",
          "type": "address"
        },
        {
          "indexed": true,
          "name": "newOwner",
          "type": "address"
        }
      ],
      "name": "OwnershipTransferred",
      "type": "event"
    },
    {
      "constant": true,
      "inputs": [
        {
          "name": "optType",
          "type": "uint8"
        },
        {
          "name": "strikePrice",
          "type": "uint256"
        },
        {
          "name": "underlyingPrice",
          "type": "uint256"
        }
      ],
      "name": "getOptionsWorth",
      "outputs": [
        {
          "name": "",
          "type": "uint256"
        }
      ],
      "payable": false,
      "stateMutability": "pure",
      "type": "function"
    },
    {
      "constant": true,
      "inputs": [
        {
          "name": "optType",
          "type": "uint8"
        },
        {
          "name": "strikePrice",
          "type": "uint256"
        },
        {
          "name": "underlyingPrice",
          "type": "uint256"
        }
      ],
      "name": "getOptionsPayback",
      "outputs": [
        {
          "name": "",
          "type": "uint256"
        }
      ],
      "payable": false,
      "stateMutability": "pure",
      "type": "function"
    }
  ],
  "bytecode": "0x6080604052610e10600a55600c805461019063ffffffff1991821681179092556013805490911690911790553480156200003857600080fd5b506040516060806200571a83398101604081815282516020840151919093015160008054600160a060020a031916331780825592939192859285928592859285928592600160a060020a0316917f8be0079c531659141344cd1fd0a4f28419497f9722a3daafe3b4186f6b6457e0908290a3620000be8364010000000062000173810204565b620000d28264010000000062000205810204565b620000e68164010000000062000297810204565b6040805160e0810182526201518081526203f480602082015262093a8091810191909152620d2f0060608201526213c680608082015262278d0060a08201526276a70060c08201526200013e9060099060076200033b565b5060408051808201909152600180825260026020830181905262000163929062000392565b5050505050505050505062000482565b6200018664010000000062000329810204565b1515620001e357604080517f08c379a00000000000000000000000000000000000000000000000000000000081526020600482018190526024820152600080516020620056fa833981519152604482015290519081900360640190fd5b60038054600160a060020a031916600160a060020a0392909216919091179055565b6200021864010000000062000329810204565b15156200027557604080517f08c379a00000000000000000000000000000000000000000000000000000000081526020600482018190526024820152600080516020620056fa833981519152604482015290519081900360640190fd5b60048054600160a060020a031916600160a060020a0392909216919091179055565b620002aa64010000000062000329810204565b15156200030757604080517f08c379a00000000000000000000000000000000000000000000000000000000081526020600482018190526024820152600080516020620056fa833981519152604482015290519081900360640190fd5b60058054600160a060020a031916600160a060020a0392909216919091179055565b600054600160a060020a031633145b90565b82805482825590600052602060002090810192821562000380579160200282015b8281111562000380578251829062ffffff169055916020019190600101906200035c565b506200038e92915062000441565b5090565b82805482825590600052602060002090600701600890048101928215620004335791602002820160005b83821115620003ff57835183826101000a81548163ffffffff021916908360ff1602179055509260200192600401602081600301049283019260010302620003bc565b8015620004315782816101000a81549063ffffffff0219169055600401602081600301049283019260010302620003ff565b505b506200038e9291506200045e565b6200033891905b808211156200038e576000815560010162000448565b6200033891905b808211156200038e57805463ffffffff1916815560010162000465565b61526880620004926000396000f3006080604052600436106102845763ffffffff60e060020a6000350416630438d49081146102895780632967eafe1461040c5780632b38f1801461042f57806332ab5c2014610462578063354af3601461052c5780633582d789146105815780633ad2fb57146105e657806342e5479d1461060757806344244d271461063857806345e19fdd1461068057806348ee201d146106dc5780634c69c00f146106f45780635ca4b73b1461071557806364ed30171461072a57806367b8ceb91461073f5780636d84e2e31461075a578063715018a614610772578063723931ca1461078757806373a3d4241461079f57806374e85fd2146107b45780637cfff2d8146107db5780637e838fa3146107f35780638da5cb5b1461081f5780638f32d59b146108345780638ff239e6146108495780639052d5f8146108a9578063924a69ce146108be57806397a918e9146108f15780639870d7fe1461096457806398dae8281461098557806399deae0a146109b85780639ef975d2146109f0578063a093e2d014610a08578063ac8a584a14610a29578063af70df1214610a4a578063afec82fc14610aa4578063b18b78dd14610ac2578063b452bc0414610ad7578063b8a5b7fa14610af5578063bb684d8414610b0d578063bec3107f14610b2b578063c0bc040814610b40578063c5acbe1514610b5e578063d0ebdbe714610b76578063d500958414610b97578063d6d1401214610bac578063db6ad2bd14610bca578063e5081c4014610be8578063e7a1c1c014610cc4578063e7c5681514610ce8578063e7f43c6814610d09578063ed55283414610d1e578063ee29c94a14610d3f578063f2fde38b14610d5d578063f7de192314610d7e578063fa1cf1f014610da5575b600080fd5b34801561029557600080fd5b506102a4600435602435610de0565b60405180806020018060200180602001806020018060200186810386528b818151815260200191508051906020019060200280838360005b838110156102f45781810151838201526020016102dc565b5050505090500186810385528a818151815260200191508051906020019060200280838360005b8381101561033357818101518382015260200161031b565b50505050905001868103845289818151815260200191508051906020019060200280838360005b8381101561037257818101518382015260200161035a565b50505050905001868103835288818151815260200191508051906020019060200280838360005b838110156103b1578181015183820152602001610399565b50505050905001868103825287818151815260200191508051906020019060200280838360005b838110156103f05781810151838201526020016103d8565b505050509050019a505050505050505050505060405180910390f35b34801561041857600080fd5b5061042d600160a060020a036004351661102a565b005b34801561043b57600080fd5b5061045060ff60043516602435604435611098565b60408051918252519081900360200190f35b34801561046e57600080fd5b5060408051606435600481810135602081810285810182019096528185526104c69583359560248035966044359636969095608495929093019290918291850190849080828437509497506110af9650505050505050565b604051808060200184815260200183151515158152602001828103825285818151815260200191508051906020019060200280838360005b838110156105165781810151838201526020016104fe565b5050505090500194505050505060405180910390f35b34801561053857600080fd5b50604080516020600480358082013583810280860185019096528085526102a49536959394602494938501929182918501908490808284375094975061114d9650505050505050565b34801561058d57600080fd5b50610596611366565b60408051602080825283518183015283519192839290830191858101910280838360005b838110156105d25781810151838201526020016105ba565b505050509050019250505060405180910390f35b3480156105f257600080fd5b5061042d60043563ffffffff602435166113eb565b34801561061357600080fd5b5061061c611457565b60408051600160a060020a039092168252519081900360200190f35b34801561064457600080fd5b5061064d611466565b604080519687526020870195909552858501939093526060850191909152608084015260a0830152519081900360c00190f35b34801561068c57600080fd5b5061069561147a565b60408051978852600160a060020a03909616602088015260ff9094168686015263ffffffff9092166060860152608085015260a084015260c0830152519081900360e00190f35b3480156106e857600080fd5b50610695600435611565565b34801561070057600080fd5b5061042d600160a060020a03600435166115d9565b34801561072157600080fd5b5061061c611647565b34801561073657600080fd5b50610450611656565b34801561074b57600080fd5b5061045060043560243561165c565b34801561076657600080fd5b506104506004356117dc565b34801561077e57600080fd5b5061042d611864565b34801561079357600080fd5b5061042d6004356118fa565b3480156107ab57600080fd5b50610450611982565b3480156107c057600080fd5b5061042d600160a060020a0360043516602435604435611c41565b3480156107e757600080fd5b5061042d600435611efe565b3480156107ff57600080fd5b5061080b600435611f55565b604080519115158252519081900360200190f35b34801561082b57600080fd5b5061061c611fb4565b34801561084057600080fd5b5061080b611fc3565b34801561085557600080fd5b50604080516020600460443581810135838102808601850190965280855261042d9583359560248035963696956064959394920192918291850190849080828437509497505093359450611fd49350505050565b3480156108b557600080fd5b506105966120fe565b3480156108ca57600080fd5b5061042d600160a060020a036004358116906024351660443560643560843560a435612155565b3480156108fd57600080fd5b50610909600435612490565b6040518083815260200180602001828103825283818151815260200191508051906020019060200280838360005b8381101561094f578181015183820152602001610937565b50505050905001935050505060405180910390f35b34801561097057600080fd5b5061042d600160a060020a0360043516612503565b34801561099157600080fd5b5061099a61255a565b60408051938452602084019290925282820152519081900360600190f35b3480156109c457600080fd5b506109d060043561256a565b604080519384526020840192909252151582820152519081900360600190f35b3480156109fc57600080fd5b5061080b600435612632565b348015610a1457600080fd5b5061042d600160a060020a036004351661268e565b348015610a3557600080fd5b5061080b600160a060020a03600435166126fc565b348015610a5657600080fd5b506040805160206004602480358281013584810280870186019097528086526104c6968435963696604495919490910192918291850190849080828437509497506127559650505050505050565b348015610ab057600080fd5b5061042d63ffffffff600435166127ac565b348015610ace57600080fd5b5061061c612803565b348015610ae357600080fd5b5061042d600435602435604435612812565b348015610b0157600080fd5b5061042d600435612937565b348015610b1957600080fd5b5061042d63ffffffff60043516612a10565b348015610b3757600080fd5b50610450612b19565b348015610b4c57600080fd5b5061042d63ffffffff60043516612b1f565b348015610b6a57600080fd5b5061042d600435612c8b565b348015610b8257600080fd5b5061042d600160a060020a0360043516612cdc565b348015610ba357600080fd5b5061061c612d4a565b348015610bb857600080fd5b5061080b63ffffffff60043516612d59565b348015610bd657600080fd5b5061080b63ffffffff60043516612db2565b348015610bf457600080fd5b50604080516020600460248035828101358481028087018601909752808652610c4296843596369660449591949091019291829185019084908082843750949750612e3a9650505050505050565b604051808060200180602001838103835285818151815260200191508051906020019060200280838360005b83811015610c86578181015183820152602001610c6e565b5050505090500183810382528481815181526020019150805190602001906020028083836000838110156105165781810151838201526020016104fe565b348015610cd057600080fd5b5061042d600435600160a060020a036024351661300a565b348015610cf457600080fd5b50610596600160a060020a0360043516613098565b348015610d1557600080fd5b50610596613104565b348015610d2a57600080fd5b5061045060ff60043516602435604435613165565b348015610d4b57600080fd5b5061042d63ffffffff60043516613172565b348015610d6957600080fd5b5061042d600160a060020a03600435166131f8565b348015610d8a57600080fd5b50610596600160a060020a036004351660243560443561324d565b348015610db157600080fd5b50610dba613334565b604080519485526020850193909352838301919091526060830152519081900360800190f35b6060806060806060806060806060806000806006805490508d8f011115610e1757600654610e14908f63ffffffff61334616565b9c505b60008d1115611019578c604051908082528060200260200182016040528015610e4a578160200160208202803883390190505b5096508c604051908082528060200260200182016040528015610e77578160200160208202803883390190505b5095508c604051908082528060200260200182016040528015610ea4578160200160208202803883390190505b5094508c604051908082528060200260200182016040528015610ed1578160200160208202803883390190505b5093508c604051908082528060200260200182016040528015610efe578160200160208202803883390190505b509250600091505b8c82101561100957600680548f8401908110610f1e57fe5b906000526020600020906005020190508060000160089054906101000a9004600160a060020a03168783815181101515610f5457fe5b600160a060020a03929092166020928302919091019091015280546001820154875160e060020a90920460ff1663ffffffff9182166201000002011690879084908110610f9d57fe5b6020908102909101015260028101548551869084908110610fba57fe5b6020908102909101015260038101548451859084908110610fd757fe5b6020908102909101015260048101548351849084908110610ff457fe5b60209081029091010152600190910190610f06565b86868686869b509b509b509b509b505b505050505050509295509295909350565b611032611fc3565b1515611076576040805160e560020a62461bcd028152602060048201819052602482015260008051602061521d833981519152604482015290519081900360640190fd5b60058054600160a060020a031916600160a060020a0392909216919091179055565b60006110a5848484613388565b90505b9392505050565b6060600080606060006110c1896133a6565b881015806110d0575060145487105b156110e657909350600092508291508390611141565b6110ef896133a6565b871115611102576110ff896133a6565b96505b6111328888601760006111148e6133bf565b81526020019081526020016000205461112c8d6133cc565b8a6133ed565b91509150818160019450945094505b50509450945094915050565b6060806060806060600060608060608060606000808d51975087604051908082528060200260200182016040528015611190578160200160208202803883390190505b509650876040519080825280602002602001820160405280156111bd578160200160208202803883390190505b509550876040519080825280602002602001820160405280156111ea578160200160208202803883390190505b50945087604051908082528060200260200182016040528015611217578160200160208202803883390190505b50935087604051908082528060200260200182016040528015611244578160200160208202803883390190505b509250600091505b87821015611352576112748e8381518110151561126557fe5b90602001906020020151613579565b80548851919250680100000000000000009004600160a060020a03169088908490811061129d57fe5b600160a060020a03929092166020928302919091019091015280546001820154875160e060020a90920460ff1663ffffffff91821662010000020116908790849081106112e657fe5b602090810290910101526002810154855186908490811061130357fe5b602090810290910101526003810154845185908490811061132057fe5b602090810290910101526004810154835184908490811061133d57fe5b6020908102909101015260019091019061124c565b50949c939b50919950975095509350505050565b606060018054806020026020016040519081016040528092919081815260200182805480156113e057602002820191906000526020600020906000905b82829054906101000a900463ffffffff1663ffffffff16815260200190600401906020826003010492830192600103820291508084116113a35790505b505050505090505b90565b6113f481612db2565b151561144a576040805160e560020a62461bcd02815260206004820152601f60248201527f756e6465726c79696e6720697320756e737570706f7274656420617373657400604482015290519081900360640190fd5b611453826118fa565b5050565b600554600160a060020a031690565b600d54600654601254919283929043904290565b600654600090819081908190819081908190818082116114e4576040805160e560020a62461bcd02815260206004820152601560248201527f6f7074696f6e73206c69737420697320656d7074790000000000000000000000604482015290519081900360640190fd5b6006805460001984019081106114f657fe5b60009182526020909120600590910201805460018201546002830154600384015460049094015467ffffffffffffffff84169e680100000000000000008504600160a060020a03169e5060e060020a90940460ff169c5063ffffffff9092169a50985091965090945092505050565b60008060008060008060008061157a89613579565b805460018201546002830154600384015460049094015467ffffffffffffffff84169e680100000000000000008504600160a060020a03169e5060e060020a90940460ff169c5063ffffffff9092169a50985091965090945092505050565b6115e1611fc3565b1515611625576040805160e560020a62461bcd028152602060048201819052602482015260008051602061521d833981519152604482015290519081900360640190fd5b60038054600160a060020a031916600160a060020a0392909216919091179055565b600454600160a060020a031690565b600a5490565b60006116666150da565b60008061167286613579565b6040805160e081018252825467ffffffffffffffff81168252680100000000000000008104600160a060020a0316602083015260e060020a900460ff1691810191909152600182015463ffffffff16606082015260028201546080820152600382015460a082015260049091015460c082015292506116f083613609565b6116fa8386613664565b6003546060840151604080517fda66325700000000000000000000000000000000000000000000000000000000815263ffffffff909216600483015251600160a060020a039092169163da663257916024808201926020929091908290030181600087803b15801561176b57600080fd5b505af115801561177f573d6000803e3d6000fd5b505050506040513d602081101561179557600080fd5b5051604084015160a08501519193506117ae91846136c0565b90508015156117c057600093506117d3565b6117d0818663ffffffff6136f416565b93505b50505092915050565b600080821180156117ef57506006548211155b1515611845576040805160e560020a62461bcd02815260206004820152601660248201527f6f7074696f6e206964206973206e6f7420657869737400000000000000000000604482015290519081900360640190fd5b50600a546000198201600090815260076020526040902054015b919050565b61186c611fc3565b15156118b0576040805160e560020a62461bcd028152602060048201819052602482015260008051602061521d833981519152604482015290519081900360640190fd5b60008054604051600160a060020a03909116907f8be0079c531659141344cd1fd0a4f28419497f9722a3daafe3b4186f6b6457e0908390a360008054600160a060020a0319169055565b61190381612632565b151561197f576040805160e560020a62461bcd02815260206004820152602160248201527f65787069726174696f6e2076616c7565206973206e6f7420737570706f72746560448201527f6400000000000000000000000000000000000000000000000000000000000000606482015290519081900360840190fd5b50565b60008060606000806000806000611997615116565b6000806119a261379e565b99506119ac61381f565b600654600e54919a50985096505b87871015611ac8576119f36006888154811015156119d457fe5b600091825260209091206001600590920201015463ffffffff16613939565b9550611abb611aae600689815481101515611a0a57fe5b60009182526020918290206040805160e081018252600593909302909101805467ffffffffffffffff81168452680100000000000000008104600160a060020a03169484019490945260e060020a90930460ff1690820152600182015463ffffffff16606082015260028201546080820152600382015460a082015260049091015460c08201528b518c908a908110611a9f57fe5b906020019060200201516139c1565b8b9063ffffffff613a0a16565b99506001909601956119ba565b601254600f5490955093505b84841015611c3057600084815260116020526040908190208151808301928390529160029082845b815481526020019060010190808311611afc575093965086935060009250611b22915050565b6020020151600e54909250821015611c2557611b466006838154811015156119d457fe5b9550611bff600683815481101515611b5a57fe5b60009182526020918290206040805160e081018252600593909302909101805467ffffffffffffffff81168452680100000000000000008104600160a060020a03168486015260e060020a900460ff1691830191909152600181015463ffffffff16606083015260028101546080830152600381015460a08301526004015460c0820152908501518b518c908a908110611bf057fe5b90602001906020020151613a67565b9050808a1015611c125760009a50611c34565b611c228a8263ffffffff61334616565b99505b600190930192611ad4565b899a505b5050505050505050505090565b600254600090600160a060020a03163314611ccc576040805160e560020a62461bcd02815260206004820152602660248201527f4d616e6167657261626c653a2063616c6c6572206973206e6f7420746865204d60448201527f616e616765720000000000000000000000000000000000000000000000000000606482015290519081900360840190fd5b611cd583613579565b6040805160e081018252825467ffffffffffffffff81168252680100000000000000008104600160a060020a0316602083015260e060020a900460ff1691810191909152600182015463ffffffff16606082015260028201546080820152600382015460a0820152600482015460c0820152909150611d5390613609565b8054611d689067ffffffffffffffff16613a95565b6040805160e081018252825467ffffffffffffffff81168252680100000000000000008104600160a060020a0316602083015260e060020a900460ff1691810191909152600182015463ffffffff16606082015260028201546080820152600382015460a0820152600482015460c0820152611de49085613b2a565b6040805160e081018252825467ffffffffffffffff81168252680100000000000000008104600160a060020a0316602083015260e060020a900460ff1691810191909152600182015463ffffffff16606082015260028201546080820152600382015460a0820152600482015460c0820152611e609083613664565b6004810154611e75908363ffffffff61334616565b60048201556040805180820182526000198501815260208082018590526012546000908152601190915291909120611eae916002615131565b506012805460010190556040805183815290518491600160a060020a038716917f1fb99acdc281bccbecb3d0073a307341181a8a7d3cd532fdaef5ce7200401c2d9181900360200190a350505050565b611f06611fc3565b1515611f4a576040805160e560020a62461bcd028152602060048201819052602482015260008051602061521d833981519152604482015290519081900360640190fd5b61197f600982613b99565b6000611f5f611fc3565b1515611fa3576040805160e560020a62461bcd028152602060048201819052602482015260008051602061521d833981519152604482015290519081900360640190fd5b611fae600983613c10565b92915050565b600054600160a060020a031690565b600054600160a060020a0316331490565b600254600160a060020a0316331461205c576040805160e560020a62461bcd02815260206004820152602660248201527f4d616e6167657261626c653a2063616c6c6572206973206e6f7420746865204d60448201527f616e616765720000000000000000000000000000000000000000000000000000606482015290519081900360840190fd5b60145483111561206c5760148390555b612075846133a6565b60135463ffffffff1680612088876133bf565b0201106120a857612098846133a6565b6015556120a4846133cc565b6016555b80601760006120b6876133bf565b81526020019081526020016000208190555081601860006120d6876133bf565b815260200190815260200160002090805190602001906120f792919061516f565b5050505050565b606060098054806020026020016040519081016040528092919081815260200182805480156113e057602002820191906000526020600020905b815481526020019060010190808311612138575050505050905090565b60008060006121626150da565b600254600160a060020a031633146121ea576040805160e560020a62461bcd02815260206004820152602660248201527f4d616e6167657261626c653a2063616c6c6572206973206e6f7420746865204d60448201527f616e616765720000000000000000000000000000000000000000000000000000606482015290519081900360840190fd5b60065493506121f8886133bf565b9250612203886133a6565b9150600660e0604051908101604052808660010167ffffffffffffffff1681526020018c600160a060020a031681526020018560ff1681526020018463ffffffff168152602001426122548c6133cc565b01815260208082018b90526040918201899052835460018082018655600095865282862085516005909302018054868501518787015167ffffffffffffffff1990921667ffffffffffffffff909516949094177fffffffff0000000000000000000000000000000000000000ffffffffffffffff1668010000000000000000600160a060020a0395861602177fffffff00ffffffffffffffffffffffffffffffffffffffffffffffffffffffff1660e060020a60ff909216919091021781556060860151818301805463ffffffff191663ffffffff9092169190911790556080860151600282015560a0860151600382015560c0909501516004909501949094558e16845260088152908320805480840182559084529220908601910155600680548590811061238057fe5b60009182526020918290206040805160e081018252600593909302909101805467ffffffffffffffff81168452680100000000000000008104600160a060020a03169484019490945260e060020a90930460ff1690820152600182015463ffffffff16606082015260028201546080820152600382015460a082015260049091015460c08201529050612414818a88613cbd565b836001018a600160a060020a03167f18f523957030bee670136363e25b2f847bf1bd07bb7b33c6d5475936a9aac70d85854261244f8e6133cc565b6040805160ff909516855263ffffffff90931660208501520182820152606082018c9052608082018a9052519081900360a00190a350505050505050505050565b600081815260176020908152604080832054601883528184208054835181860281018601909452808452606094929391928391908301828280156124f357602002820191906000526020600020905b8154815260200190600101908083116124df575b5050505050905091509150915091565b61250b611fc3565b151561254f576040805160e560020a62461bcd028152602060048201819052602482015260008051602061521d833981519152604482015290519081900360640190fd5b61197f600b82613f97565b600d546006546012549192909190565b600c5460009081908190819081908190819061259b9063ffffffff1661258f8a6133bf565b9063ffffffff6136f416565b93506125a6886133a6565b84106125bb5760009650869550859450612627565b600c546125d390859063ffffffff90811690613a0a16565b92506125de886133a6565b8311156125f5576125ee886133a6565b925061260e565b600d5483101561260e5760009650869550859450612627565b6126188484614031565b91509150818160019650965096505b505050509193909250565b6000611fae600980548060200260200160405190810160405280929190818152602001828054801561268357602002820191906000526020600020905b81548152602001906001019080831161266f575b50505050508361414f565b612696611fc3565b15156126da576040805160e560020a62461bcd028152602060048201819052602482015260008051602061521d833981519152604482015290519081900360640190fd5b60048054600160a060020a031916600160a060020a0392909216919091179055565b6000612706611fc3565b151561274a576040805160e560020a62461bcd028152602060048201819052602482015260008051602061521d833981519152604482015290519081900360640190fd5b611fae600b8361418e565b601354606090600090819081906127759063ffffffff1661258f886133bf565b60135490915061279e908790839061279890829063ffffffff90811690613a0a16565b886110af565b935093509350509250925092565b6127b4611fc3565b15156127f8576040805160e560020a62461bcd028152602060048201819052602482015260008051602061521d833981519152604482015290519081900360640190fd5b61197f600182614265565b600354600160a060020a031690565b600b54600090811080156128495750600b80543391908390811061283257fe5b600091825260209091200154600160a060020a0316145b15156128c5576040805160e560020a62461bcd02815260206004820152603060248201527f4d616e6167657261626c653a2063616c6c6572206973206e6f7420746865206560448201527f6c696769626c65204f70657261746f7200000000000000000000000000000000606482015290519081900360840190fd5b600d548211156128d557600d8290555b6128de846133a6565b600c5463ffffffff16806128f1876133bf565b0201111561291257612902846133a6565b600e5561290e846133cc565b600f555b8260106000612920876133bf565b815260208101919091526040016000205550505050565b60008060008080600b805490501180156129745750600b80543391908390811061295d57fe5b600091825260209091200154600160a060020a0316145b15156129f0576040805160e560020a62461bcd02815260206004820152603060248201527f4d616e6167657261626c653a2063616c6c6572206973206e6f7420746865206560448201527f6c696769626c65204f70657261746f7200000000000000000000000000000000606482015290519081900360840190fd5b6129f98561256a565b93509350935081156120f7576120f7858585612812565b600080600080612a1e611fc3565b1515612a62576040805160e560020a62461bcd028152602060048201819052602482015260008051602061521d833981519152604482015290519081900360640190fd5b600c5463ffffffff80871691161015612af857600e546000945063ffffffff861690811515612a8d57fe5b600c54919004935063ffffffff16600d60010154811515612aaa57fe5b0460010191508290505b81811015612ae657600081815260106020526040902054612adc90859063ffffffff613a0a16565b9350600101612ab4565b60008381526010602052604090208490555b5050600c805463ffffffff191663ffffffff94909416939093179092555050565b60065490565b600080600060606000612b30611fc3565b1515612b74576040805160e560020a62461bcd028152602060048201819052602482015260008051602061521d833981519152604482015290519081900360640190fd5b60135463ffffffff80881691161115612c695760135463ffffffff16601460010154811515612b9f57fe5b04945063ffffffff8616601460010154811515612bb857fe5b60008781526017602090815260408083205460188352928190208054825181850281018501909352808352959094046001019850919650909290830182828015612c2157602002820191906000526020600020905b815481526020019060010190808311612c0d575b505050505091508460010190505b83811015612c69576000818152601760209081526040808320869055601882529091208351612c609285019061516f565b50600101612c2f565b50506013805463ffffffff191663ffffffff9590951694909417909355505050565b612c93611fc3565b1515612cd7576040805160e560020a62461bcd028152602060048201819052602482015260008051602061521d833981519152604482015290519081900360640190fd5b600a55565b612ce4611fc3565b1515612d28576040805160e560020a62461bcd028152602060048201819052602482015260008051602061521d833981519152604482015290519081900360640190fd5b60028054600160a060020a031916600160a060020a0392909216919091179055565b600254600160a060020a031690565b6000612d63611fc3565b1515612da7576040805160e560020a62461bcd028152602060048201819052602482015260008051602061521d833981519152604482015290519081900360640190fd5b611fae60018361432e565b6000611fae6001805480602002602001604051908101604052809291908181526020018280548015612e2f57602002820191906000526020600020906000905b82829054906101000a900463ffffffff1663ffffffff1681526020019060040190602082600301049283019260010382029150808411612df25790505b505050505083614425565b606080600080606080600080612e6b601360009054906101000a900463ffffffff1663ffffffff1661258f8c6133bf565b601354909650612e8690879063ffffffff90811690613a0a16565b9450612e918a6133a6565b86101580612ea0575060145485105b15612eaa57612ffd565b612eb38a6133a6565b851115612ec657612ec38a6133a6565b94505b6014548611612ed55760145495505b612edd61381f565b9350612efd8686612eed8d6133bf565b612ef68e6133cc565b8d89614470565b925088519150600090505b81811015612ff6576003548951600160a060020a03909116906341976e09908b9084908110612f3357fe5b906020019060200201516040518263ffffffff1660e060020a0281526004018082600160a060020a0316600160a060020a03168152602001915050602060405180830381600087803b158015612f8857600080fd5b505af1158015612f9c573d6000803e3d6000fd5b505050506040513d6020811015612fb257600080fd5b50518351849083908110612fc257fe5b90602001906020020151811515612fd557fe5b058382815181101515612fe457fe5b60209081029091010152600101612f08565b8284975097505b5050505050509250929050565b613012611fc3565b1515613056576040805160e560020a62461bcd028152602060048201819052602482015260008051602061521d833981519152604482015290519081900360640190fd5b80600b8381548110151561306657fe5b9060005260206000200160006101000a815481600160a060020a030219169083600160a060020a031602179055505050565b600160a060020a0381166000908152600860209081526040918290208054835181840281018401909452808452606093928301828280156130f857602002820191906000526020600020905b8154815260200190600101908083116130e4575b50505050509050919050565b6060600b8054806020026020016040519081016040528092919081815260200182805480156113e057602002820191906000526020600020905b8154600160a060020a0316815260019091019060200180831161313e575050505050905090565b60006110a58484846136c0565b61197f60018054806020026020016040519081016040528092919081815260200182805480156131ed57602002820191906000526020600020906000905b82829054906101000a900463ffffffff1663ffffffff16815260200190600401906020826003010492830192600103820291508084116131b05790505b505050505082614642565b613200611fc3565b1515613244576040805160e560020a62461bcd028152602060048201819052602482015260008051602061521d833981519152604482015290519081900360640190fd5b61197f816146a2565b60608060008360405190808252806020026020018201604052801561327c578160200160208202803883390190505b50600160a060020a03871660009081526008602052604090205490925085850111156132ce57600160a060020a0386166000908152600860205260409020546132cb908663ffffffff61334616565b93505b5060005b8381101561332b57600160a060020a0386166000908152600860205260409020805486830190811061330057fe5b9060005260206000200154828281518110151561331957fe5b602090810290910101526001016132d2565b50949350505050565b60145460065460125491929091904290565b60006110a883836040805190810160405280601e81526020017f536166654d6174683a207375627472616374696f6e206f766572666c6f770000815250614783565b600060ff841615828411141561339f5750816110a8565b50806110a8565b68010000000000000000900467ffffffffffffffff1690565b67ffffffffffffffff1690565b700100000000000000000000000000000000900467ffffffffffffffff1690565b60606000606060008060008060006134088d8d8d8d8d614820565b955061341b8d6014600001548e8e614a07565b909d5094505b8b8d101561356657600680548e90811061343757fe5b90600052602060002090600502019350836002015492508a83108061345e57506004840154155b156134685761355b565b600760008e815260200190815260200160002091506134b38d8c84600001548688600301548760030154886004015489600501548c600001601c9054906101000a900460ff16614a89565b9050600081111561355b5760018201546134d7908a90600160a060020a0316614ad2565b9250613518670de0b6b3a764000061350c846003015461350c886004015461258f8789600201546136f490919063ffffffff16565b9063ffffffff614b1f16565b905061354281878581518110151561352c57fe5b602090810290910101519063ffffffff613a0a16565b868481518110151561355057fe5b602090810290910101525b6001909c019b613421565b50939b929a509198505050505050505050565b6000808211801561358c57506006548211155b15156135e2576040805160e560020a62461bcd02815260206004820152601660248201527f6f7074696f6e206964206973206e6f7420657869737400000000000000000000604482015290519081900360640190fd5b6006805460001984019081106135f457fe5b90600052602060002090600502019050919050565b6080810151421061197f576040805160e560020a62461bcd02815260206004820152601160248201527f6f7074696f6e2069732065787069726564000000000000000000000000000000604482015290519081900360640190fd5b60c0820151811115611453576040805160e560020a62461bcd02815260206004820152601d60248201527f6f7074696f6e20616d6f756e7420697320696e73756666696369656e74000000604482015290519081900360640190fd5b600060ff84161582841114156136d8575060006110a8565b60ff8416156136e9578183036136ed565b8282035b90506110a8565b6000808315156137075760009150613797565b5082820282848281151561371757fe5b0414613793576040805160e560020a62461bcd02815260206004820152602160248201527f536166654d6174683a206d756c7469706c69636174696f6e206f766572666c6f60448201527f7700000000000000000000000000000000000000000000000000000000000000606482015290519081900360840190fd5b8091505b5092915050565b600c5460009081908190819063ffffffff16600d8201548115156137be57fe5b600c54919004925063ffffffff16600d600101548115156137db57fe5b0460010190505b808210156138175760008281526010602052604090205461380a90849063ffffffff613a0a16565b92506001909101906137e2565b509092915050565b600154604080518281526020808402820101909152606091908290600090838015613854578160200160208202803883390190505b509150600090505b828110156137975760035460018054600160a060020a039092169163da66325791908490811061388857fe5b90600052602060002090600891828204019190066004029054906101000a900463ffffffff166040518263ffffffff1660e060020a028152600401808263ffffffff168152602001915050602060405180830381600087803b1580156138ed57600080fd5b505af1158015613901573d6000803e3d6000fd5b505050506040513d602081101561391757600080fd5b5051825183908390811061392757fe5b6020908102909101015260010161385c565b6000611fae60018054806020026020016040519081016040528092919081815260200182805480156139b657602002820191906000526020600020906000905b82829054906101000a900463ffffffff1663ffffffff16815260200190600401906020826003010492830192600103820291508084116139795790505b505050505083614b61565b6000804284608001511115806139d9575060c0840151155b156139e75760009150613797565b613a028460c0015161258f86604001518760a0015187613388565b949350505050565b600082820183811015613793576040805160e560020a62461bcd02815260206004820152601b60248201527f536166654d6174683a206164646974696f6e206f766572666c6f770000000000604482015290519081900360640190fd5b6000428460800151111515613a7e575060006110a8565b6110a58361258f86604001518760a0015186613388565b600a5460001982016000908152600760205260409020544291011061197f576040805160e560020a62461bcd02815260206004820152602560248201527f6f7074696f6e206c6f636b206c696d69746174696f6e206973206e6f7420657860448201527f7069726564000000000000000000000000000000000000000000000000000000606482015290519081900360840190fd5b80600160a060020a03168260200151600160a060020a0316141515611453576040805160e560020a62461bcd02815260206004820152601f60248201527f63616c6c6572206973206e6f7420746865206f7074696f6e73206f776e657200604482015290519081900360640190fd5b613bf282805480602002602001604051908101604052809291908181526020018280548015613be757602002820191906000526020600020905b815481526020019060010190808311613bd3575b50505050508261414f565b15156114535781546001810183556000928352602090922090910155565b8154600090815b81811015613c4c57838582815481101515613c2e57fe5b90600052602060002001541415613c4457613c4c565b600101613c17565b81811015613cb05760001982018114613c96578460018303815481101515613c7057fe5b90600052602060002001548582815481101515613c8957fe5b6000918252602090912001555b8454613ca68660001983016151a9565b5060019250613cb5565b600092505b505092915050565b60a08301516080840151600554606086015160408088015181517fb4277bc100000000000000000000000000000000000000000000000000000000815263ffffffff909316600484015260ff16602483015242909303604482018190526064820185905283519093600093849384938493600160a060020a039093169263b4277bc1926084808201939182900301818787803b158015613d5c57600080fd5b505af1158015613d70573d6000803e3d6000fd5b505050506040513d6040811015613d8657600080fd5b5080516020918201516004805460408e81015181517f055ef6ab0000000000000000000000000000000000000000000000000000000081529384018d9052602484018d9052604484018c9052606484018690526084840185905260ff1660a484015251939850919650600160a060020a039091169263055ef6ab9260c4808401938290030181600087803b158015613e1d57600080fd5b505af1158015613e31573d6000803e3d6000fd5b505050506040513d6020811015613e4757600080fd5b5051600354604080517f41976e09000000000000000000000000000000000000000000000000000000008152600160a060020a038c811660048301529151939550613efc9391909216916341976e099160248083019260209291908290030181600087803b158015613eb857600080fd5b505af1158015613ecc573d6000803e3d6000fd5b505050506040513d6020811015613ee257600080fd5b505161350c89670de0b6b3a764000063ffffffff6136f416565b6040805160c081018252428152600160a060020a039a8b166020808301918252828401948552606083019687526080830198895260a083019788529c516000190167ffffffffffffffff1660009081526007909d5291909b209a518b555160018b018054600160a060020a03191691909a16179098555095516002880155945160038701555160048601555050905160059092019190915550565b613ffa82805480602002602001604051908101604052809291908181526020018280548015613fef57602002820191906000526020600020905b8154600160a060020a03168152600190910190602001808311613fd1575b505050505082614ba8565b1515611453578154600181018355600083815260209020018054600160a060020a038316600160a060020a03199091161790555050565b60008080606081808061404a89600d8301548a42614a07565b909950945061405761381f565b9350600092505b878910156141405761407860068a8154811015156119d457fe5b915061412160068a81548110151561408c57fe5b60009182526020918290206040805160e081018252600593909302909101805467ffffffffffffffff81168452680100000000000000008104600160a060020a03169484019490945260e060020a90930460ff1690820152600182015463ffffffff16606082015260028201546080820152600382015460a082015260049091015460c08201528551869085908110611a9f57fe5b9050614133838263ffffffff613a0a16565b600190990198925061405e565b50909792965091945050505050565b8151600090815b81811015613cb05783858281518110151561416d57fe5b9060200190602002015114156141865760019250613cb5565b600101614156565b8154600090815b818110156141dd5783600160a060020a031685828154811015156141b557fe5b600091825260209091200154600160a060020a031614156141d5576141dd565b600101614195565b81811015613cb05760001982018114613c9657846001830381548110151561420157fe5b6000918252602090912001548554600160a060020a039091169086908390811061422757fe5b9060005260206000200160006101000a815481600160a060020a030219169083600160a060020a031602179055508454613ca68660001983016151a9565b6142ea828054806020026020016040519081016040528092919081815260200182805480156142df57602002820191906000526020600020906000905b82829054906101000a900463ffffffff1663ffffffff16815260200190600401906020826003010492830192600103820291508084116142a25790505b505050505082614425565b1515611453578154600181018355600092835260209092206008830401805460079093166004026101000a63ffffffff818102199094169290931692909202179055565b8154600090815b81811015614389578363ffffffff16858281548110151561435257fe5b6000918252602090912060088204015460079091166004026101000a900463ffffffff16141561438157614389565b600101614335565b81811015613cb057600019820181146144155784600183038154811015156143ad57fe5b90600052602060002090600891828204019190066004029054906101000a900463ffffffff1685828154811015156143e157fe5b90600052602060002090600891828204019190066004026101000a81548163ffffffff021916908363ffffffff1602179055505b8454613ca68660001983016151d2565b8151600090815b81811015613cb0578363ffffffff16858281518110151561444957fe5b9060200190602002015163ffffffff1614156144685760019250613cb5565b60010161442c565b60608060006060600080600080601860008d81526020019081526020016000208054806020026020016040519081016040528092919081815260200182805480156144da57602002820191906000526020600020905b8154815260200190600101908083116144c6575b50505050509650601760008d81526020019081526020016000205495506145058e8e8d898b8f614bf9565b94505b8c8e101561463057600680548f90811061451e57fe5b90600052602060002090600502019350858460020154108061454257506004840154155b1561454c57614625565b60018401546145609063ffffffff16613939565b9b506145988485600401548e8a511161457a576000614593565b898f81518110151561458857fe5b906020019060200201515b614da6565b92506145c08485600401548b8f8151811015156145b157fe5b90602001906020020151614de9565b9150828214614625575060008d815260076020526040902060018101546145f1908b90600160a060020a0316614ad2565b9b506145fc82614e2b565b61460584614e2b565b03858d81518110151561461457fe5b602090810290910101805190910190525b6001909d019c614508565b50929c9b505050505050505050505050565b61464c8282614425565b1515611453576040805160e560020a62461bcd02815260206004820152601f60248201527f77686974654c6973743a207573696e6720696e76616c69642075696e74333200604482015290519081900360640190fd5b600160a060020a0381161515614728576040805160e560020a62461bcd02815260206004820152602660248201527f4f776e61626c653a206e6577206f776e657220697320746865207a65726f206160448201527f6464726573730000000000000000000000000000000000000000000000000000606482015290519081900360840190fd5b60008054604051600160a060020a03808516939216917f8be0079c531659141344cd1fd0a4f28419497f9722a3daafe3b4186f6b6457e091a360008054600160a060020a031916600160a060020a0392909216919091179055565b60008082858511156148165760405160e560020a62461bcd0281526004018080602001828103825283818151815260200191508051906020019080838360005b838110156147db5781810151838201526020016147c3565b50505050905090810190601f1680156148085780820380516001836020036101000a031916815260200191505b509250505060405180910390fd5b5050509103919050565b606080600061482d615116565b60008060008060008951604051908082528060200260200182016040528015614860578160200160208202803883390190505b5060165490985096505b8a8710156149f557600087815260116020526040908190208151808301928390529160029082845b81548152602001906001019080831161489257505050505095508d8660006002811015156148bc57fe5b602002015110806148ce575085518d11155b156148d8576149ea565b85516006805490919081106148e957fe5b90600052602060002090600502019450846002015493508b84108061491057506020860151155b1561491a576149ea565b85516000908152600760205260408120935061496990879060200201518d8560000154878960030154886003015489600401548a600501548d600001601c9054906101000a900460ff16614ea4565b60038401549092506149a190670de0b6b3a76400009061350c90818a60016020020151600289015461258f908963ffffffff6136f416565b60018401549092506149bd908b90600160a060020a0316614ad2565b90506149d182898381518110151561352c57fe5b88828151811015156149df57fe5b602090810290910101525b60019096019561486a565b50959c9b505050505050505050505050565b600080848181881115614a1f57878293509350614a7e565b8197505b85881015614a77576006805489908110614a3957fe5b906000526020600020906005020190508481600201541080614a5d57506004810154155b15614a6757614a6c565b614a77565b600190970196614a23565b8788935093505b505094509492505050565b6000806000614a9f8c8c8c8c8c8c8c8c8c614ea4565b9150614aae8989888888614f99565b9050808211614abe576000614ac2565b8082035b9c9b505050505050505050505050565b8151600090815b81811015613a025783600160a060020a03168582815181101515614af957fe5b90602001906020020151600160a060020a03161415614b1757613a02565b600101614ad9565b60006110a883836040805190810160405280601a81526020017f536166654d6174683a206469766973696f6e206279207a65726f00000000000081525061506e565b8151600090815b81811015613a02578363ffffffff168582815181101515614b8557fe5b9060200190602002015163ffffffff161415614ba057613a02565b600101614b68565b8151600090815b81811015613cb05783600160a060020a03168582815181101515614bcf57fe5b90602001906020020151600160a060020a03161415614bf15760019250613cb5565b600101614baf565b6060806000614c06615116565b6000806000808851604051908082528060200260200182016040528015614c37578160200160208202803883390190505b5060165490975095505b8b861015614d9457600086815260116020526040908190208151808301928390529160029082845b815481526020019060010190808311614c6957505050505094508d856000600281101515614c9357fe5b60200201511080614ca5575084518d11155b15614caf57614d89565b8451600680549091908110614cc057fe5b906000526020600020906005020193508a84600201541080614ce457506020850151155b15614cee57614d89565b6001840154614d029063ffffffff16613939565b9250614d2d848660016020020151858d5111614d1f576000614593565b8c8681518110151561458857fe5b91508115614d895750835160009081526007602052604090206001810154614d5f908a90600160a060020a0316614ad2565b9250614d6a82614e2b565b8784815181101515614d7857fe5b602090810290910101805190910190525b600190950194614c41565b50949c9b505050505050505050505050565b6000601460010154845467ffffffffffffffff1611614de157835460038501546136ed91849161258f9160e060020a900460ff1690876136c0565b5060006110a8565b6000428460020154111580614dfc575081155b15614e09575060006110a8565b835460038501546110a591849161258f9160e060020a900460ff1690876136c0565b60007f7fffffffffffffffffffffffffffffffffffffffffffffffffffffffffffffff821161185f576040805160e560020a62461bcd02815260206004820152601b60248201527f536166654d6174683a20746f496e74323536206f766572666c6f770000000000604482015290519081900360640190fd5b6015546000908a101580614eb757508789105b15614ec3575083614f8c565b868910614ed257506000614f8c565b60048054604080517f055ef6ab000000000000000000000000000000000000000000000000000000008152928301899052602483018990528b8a036044840152606483018790526084830186905260ff851660a484015251600160a060020a039091169163055ef6ab9160c48083019260209291908290030181600087803b158015614f5d57600080fd5b505af1158015614f71573d6000803e3d6000fd5b505050506040513d6020811015614f8757600080fd5b505190505b9998505050505050505050565b6000428611156150615760048054604080517f055ef6ab000000000000000000000000000000000000000000000000000000008152928301889052602483018890524289036044840152606483018790526084830186905260ff851660a484015251600160a060020a039091169163055ef6ab9160c48083019260209291908290030181600087803b15801561502e57600080fd5b505af1158015615042573d6000803e3d6000fd5b505050506040513d602081101561505857600080fd5b50519050615065565b5060005b95945050505050565b600080828185116150c45760405160e560020a62461bcd028152600401808060200182810382528381815181526020019150805190602001908083836000838110156147db5781810151838201526020016147c3565b5083858115156150d057fe5b0495945050505050565b6040805160e081018252600080825260208201819052918101829052606081018290526080810182905260a0810182905260c081019190915290565b60408051808201825290600290829080388339509192915050565b826002810192821561515f579160200282015b8281111561515f578251825591602001919060010190615144565b5061516b929150615202565b5090565b82805482825590600052602060002090810192821561515f579160200282018281111561515f578251825591602001919060010190615144565b8154818355818111156151cd576000838152602090206151cd918101908301615202565b505050565b8154818355818111156151cd5760070160089004816007016008900483600052602060002091820191016151cd91905b6113e891905b8082111561516b576000815560010161520856004f776e61626c653a2063616c6c6572206973206e6f7420746865206f776e6572a165627a7a7230582067abbab7d75114cb2d0ea3737ec88158f556b80f15c3269192ed498cf5c2891000294f776e61626c653a2063616c6c6572206973206e6f7420746865206f776e6572",
  "source": "pragma solidity ^0.4.26;\r\nimport \"../OptionsPool.sol\";\r\ncontract OptionsPoolTest is OptionsPool {\r\n        constructor (address oracleAddr,address optionsPriceAddr,address ivAddress) OptionsPool(oracleAddr,optionsPriceAddr,ivAddress) public{\r\n    }\r\n    function getOptionsWorth(uint8 optType,uint256 strikePrice,uint256 underlyingPrice) public pure returns(uint256){\r\n        return _getOptionsWorth(optType,strikePrice,underlyingPrice);\r\n    }\r\n    function getOptionsPayback(uint8 optType,uint256 strikePrice,uint256 underlyingPrice)public pure returns(uint256){\r\n         return _getOptionsPayback(optType,strikePrice,underlyingPrice);\r\n    }\r\n    /*\r\n    function calTimeSharedPrice()public view returns(uint256){\r\n        uint256 timeValue;\r\n        if (begin>=optionPhaseInfo_Share[1] || preTime<optionEx.createdTime){\r\n            timeValue = _calculateFirstTimePrice(optionEx.fullPrice,tempValue,info.strikePrice,\r\n                optionEx.ivNumerator,optionEx.ivDenominator,info.optType);\r\n        }else{\r\n            timeValue = _calculateTimePrice(preTime,tempValue,info.strikePrice,\r\n                optionEx.ivNumerator,optionEx.ivDenominator,info.optType);\r\n        }\r\n    }\r\n    function _calculateFirstTimePrice(uint256 fullPrice,uint256 expiration,uint256 curTime,\r\n            uint256 strikePrice,uint256 ivNumerator,uint256 ivDenominator,uint8 optType)internal view returns (uint256){\r\n        uint256 nowValue = _calculateCurrentPrice(expiration,curTime,strikePrice,ivNumerator,\r\n            ivDenominator,optType);\r\n        return (fullPrice>nowValue)? fullPrice-nowValue : 0;\r\n    }\r\n    function _calculateTimePrice(uint256 preTime,uint256 expiration,uint256 curTime,\r\n            uint256 strikePrice,uint256 ivNumerator,uint256 ivDenominator,uint8 optType)internal view returns (uint256){\r\n        uint256 preValue = _optionsPrice.getOptionsPrice_iv(strikePrice,strikePrice,expiration-preTime,ivNumerator,\r\n            ivDenominator,optType);\r\n        uint256 nowValue = _calculateCurrentPrice(expiration,curTime,strikePrice,ivNumerator,\r\n            ivDenominator,optType);\r\n        return (preValue>nowValue)? preValue-nowValue : 0;\r\n    }\r\n    function _calculateCurrentPrice(uint256 expiration,uint256 curTime,uint256 strikePrice,uint256 ivNumerator,uint256 ivDenominator,uint8 optType)internal view returns (uint256){\r\n        if (expiration > curTime){\r\n        return _optionsPrice.getOptionsPrice_iv(strikePrice,strikePrice,expiration-curTime,ivNumerator,\r\n            ivDenominator,optType);\r\n        }\r\n        return 0;\r\n    }\r\n    */\r\n}\r\n\r\n",
  "sourcePath": "C:\\work\\solidity\\FinnexusOptions_V2\\contracts\\test\\optionPoolTest.sol",
  "compiler": {
    "name": "solc",
    "version": "0.4.26+commit.4563c3fc.Emscripten.clang"
  },
  "schemaVersion": "3.1.0",
  "updatedAt": "2020-08-03T07:47:17.111Z",
  "devdoc": {
    "methods": {
      "addExpiration(uint256)": {
        "details": "Implementation of add an eligible expiration into the expirationList.\r",
        "params": {
          "expiration": "new eligible expiration.\r"
        }
      },
      "addUnderlyingAsset(uint32)": {
        "details": "Implementation of add an eligible underlying into the underlyingAssets.\r",
        "params": {
          "underlying": "new eligible underlying.\r"
        }
      },
      "getExpirationList()": {
        "details": "Implementation of getting the eligible expirationList.\r"
      },
      "getUnderlyingAssets()": {
        "details": "Implementation of getting the eligible underlyingAssets.\r"
      },
      "isEligibleExpiration(uint256)": {
        "details": "Implementation of testing whether the input expiration is eligible.\r",
        "params": {
          "expiration": "input expiration for testing.\r"
        }
      },
      "isEligibleUnderlyingAsset(uint32)": {
        "details": "Implementation of testing whether the input underlying is eligible.\r",
        "params": {
          "underlying": "input underlying for testing.\r"
        }
      },
      "isOwner()": {
        "details": "Returns true if the caller is the current owner."
      },
      "owner()": {
        "details": "Returns the address of the current owner."
      },
      "removeExpirationList(uint256)": {
        "details": "Implementation of revoke an invalid expiration from the expirationList.\r",
        "params": {
          "removeExpiration": "revoked expiration.\r"
        }
      },
      "removeUnderlyingAssets(uint32)": {
        "details": "Implementation of revoke an invalid underlying from the underlyingAssets.\r",
        "params": {
          "removeUnderlying": "revoked underlying.\r"
        }
      },
      "renounceOwnership()": {
        "details": "Leaves the contract without owner. It will not be possible to call `onlyOwner` functions anymore. Can only be called by the current owner.     * NOTE: Renouncing ownership will leave the contract without an owner, thereby removing any functionality that is only available to the owner."
      },
      "transferOwnership(address)": {
        "details": "Transfers ownership of the contract to a new account (`newOwner`). Can only be called by the current owner."
      }
    }
  },
  "userdoc": {
    "methods": {
      "setManager(address)": {
        "notice": "contribution period to stop or not."
      }
    }
  }
}