{
  "contractName": "OptionsPool",
  "abi": [
    {
      "constant": true,
      "inputs": [],
      "name": "getWhiteList",
      "outputs": [
        {
          "name": "",
          "type": "address[]"
        }
      ],
      "payable": false,
      "stateMutability": "view",
      "type": "function"
    },
    {
      "constant": true,
      "inputs": [],
      "name": "lastCallOption",
      "outputs": [
        {
          "name": "",
          "type": "uint256"
        }
      ],
      "payable": false,
      "stateMutability": "view",
      "type": "function"
    },
    {
      "constant": false,
      "inputs": [
        {
          "name": "removeAddress",
          "type": "address"
        }
      ],
      "name": "removeWhiteList",
      "outputs": [
        {
          "name": "",
          "type": "bool"
        }
      ],
      "payable": false,
      "stateMutability": "nonpayable",
      "type": "function"
    },
    {
      "constant": false,
      "inputs": [],
      "name": "redeemAll",
      "outputs": [],
      "payable": false,
      "stateMutability": "nonpayable",
      "type": "function"
    },
    {
      "constant": true,
      "inputs": [
        {
          "name": "feeType",
          "type": "uint256"
        },
        {
          "name": "amount",
          "type": "uint256"
        }
      ],
      "name": "calculateFee",
      "outputs": [
        {
          "name": "",
          "type": "uint256"
        }
      ],
      "payable": false,
      "stateMutability": "view",
      "type": "function"
    },
    {
      "constant": true,
      "inputs": [],
      "name": "getUnderlyingAssets",
      "outputs": [
        {
          "name": "",
          "type": "uint32[]"
        }
      ],
      "payable": false,
      "stateMutability": "view",
      "type": "function"
    },
    {
      "constant": true,
      "inputs": [
        {
          "name": "",
          "type": "uint256"
        }
      ],
      "name": "underlyingAssets",
      "outputs": [
        {
          "name": "",
          "type": "uint32"
        }
      ],
      "payable": false,
      "stateMutability": "view",
      "type": "function"
    },
    {
      "constant": true,
      "inputs": [
        {
          "name": "",
          "type": "address"
        }
      ],
      "name": "feeBalances",
      "outputs": [
        {
          "name": "",
          "type": "uint256"
        }
      ],
      "payable": false,
      "stateMutability": "view",
      "type": "function"
    },
    {
      "constant": true,
      "inputs": [
        {
          "name": "",
          "type": "address"
        },
        {
          "name": "",
          "type": "uint256"
        }
      ],
      "name": "optionsBalances",
      "outputs": [
        {
          "name": "",
          "type": "uint256"
        }
      ],
      "payable": false,
      "stateMutability": "view",
      "type": "function"
    },
    {
      "constant": true,
      "inputs": [
        {
          "name": "",
          "type": "uint256"
        }
      ],
      "name": "whiteList",
      "outputs": [
        {
          "name": "",
          "type": "address"
        }
      ],
      "payable": false,
      "stateMutability": "view",
      "type": "function"
    },
    {
      "constant": false,
      "inputs": [],
      "name": "renounceOwnership",
      "outputs": [],
      "payable": false,
      "stateMutability": "nonpayable",
      "type": "function"
    },
    {
      "constant": true,
      "inputs": [],
      "name": "lastCalBlock",
      "outputs": [
        {
          "name": "",
          "type": "uint256"
        }
      ],
      "payable": false,
      "stateMutability": "view",
      "type": "function"
    },
    {
      "constant": true,
      "inputs": [
        {
          "name": "tmpAddress",
          "type": "address"
        }
      ],
      "name": "isEligibleAddress",
      "outputs": [
        {
          "name": "",
          "type": "bool"
        }
      ],
      "payable": false,
      "stateMutability": "view",
      "type": "function"
    },
    {
      "constant": true,
      "inputs": [],
      "name": "owner",
      "outputs": [
        {
          "name": "",
          "type": "address"
        }
      ],
      "payable": false,
      "stateMutability": "view",
      "type": "function"
    },
    {
      "constant": true,
      "inputs": [
        {
          "name": "",
          "type": "uint256"
        }
      ],
      "name": "allOptions",
      "outputs": [
        {
          "name": "optionID",
          "type": "uint256"
        },
        {
          "name": "owner",
          "type": "address"
        },
        {
          "name": "optType",
          "type": "uint8"
        },
        {
          "name": "underlying",
          "type": "uint32"
        },
        {
          "name": "expiration",
          "type": "uint256"
        },
        {
          "name": "strikePrice",
          "type": "uint256"
        },
        {
          "name": "amount",
          "type": "uint256"
        },
        {
          "name": "ivNumerator",
          "type": "int256"
        },
        {
          "name": "ivDenominator",
          "type": "int256"
        }
      ],
      "payable": false,
      "stateMutability": "view",
      "type": "function"
    },
    {
      "constant": true,
      "inputs": [],
      "name": "isOwner",
      "outputs": [
        {
          "name": "",
          "type": "bool"
        }
      ],
      "payable": false,
      "stateMutability": "view",
      "type": "function"
    },
    {
      "constant": false,
      "inputs": [
        {
          "name": "currency",
          "type": "address"
        }
      ],
      "name": "redeem",
      "outputs": [],
      "payable": false,
      "stateMutability": "nonpayable",
      "type": "function"
    },
    {
      "constant": true,
      "inputs": [
        {
          "name": "",
          "type": "uint256"
        },
        {
          "name": "",
          "type": "uint256"
        },
        {
          "name": "",
          "type": "uint256"
        }
      ],
      "name": "burnBlockOptions",
      "outputs": [
        {
          "name": "",
          "type": "uint256"
        }
      ],
      "payable": false,
      "stateMutability": "view",
      "type": "function"
    },
    {
      "constant": false,
      "inputs": [
        {
          "name": "underlying",
          "type": "uint32"
        }
      ],
      "name": "addUnderlyingAsset",
      "outputs": [],
      "payable": false,
      "stateMutability": "nonpayable",
      "type": "function"
    },
    {
      "constant": true,
      "inputs": [],
      "name": "halted",
      "outputs": [
        {
          "name": "",
          "type": "bool"
        }
      ],
      "payable": false,
      "stateMutability": "view",
      "type": "function"
    },
    {
      "constant": false,
      "inputs": [
        {
          "name": "feeType",
          "type": "uint256"
        },
        {
          "name": "numerator",
          "type": "uint256"
        },
        {
          "name": "denominator",
          "type": "uint256"
        }
      ],
      "name": "setTransactionFee",
      "outputs": [],
      "payable": false,
      "stateMutability": "nonpayable",
      "type": "function"
    },
    {
      "constant": true,
      "inputs": [],
      "name": "optionPhase",
      "outputs": [
        {
          "name": "",
          "type": "uint32"
        }
      ],
      "payable": false,
      "stateMutability": "view",
      "type": "function"
    },
    {
      "constant": true,
      "inputs": [
        {
          "name": "settlement",
          "type": "address"
        }
      ],
      "name": "getFeeBalance",
      "outputs": [
        {
          "name": "",
          "type": "uint256"
        }
      ],
      "payable": false,
      "stateMutability": "view",
      "type": "function"
    },
    {
      "constant": true,
      "inputs": [
        {
          "name": "feeType",
          "type": "uint256"
        }
      ],
      "name": "getFeeRate",
      "outputs": [
        {
          "name": "",
          "type": "uint256"
        },
        {
          "name": "",
          "type": "uint256"
        }
      ],
      "payable": false,
      "stateMutability": "view",
      "type": "function"
    },
    {
      "constant": false,
      "inputs": [
        {
          "name": "removeUnderlying",
          "type": "uint32"
        }
      ],
      "name": "removeUnderlyingAssets",
      "outputs": [
        {
          "name": "",
          "type": "bool"
        }
      ],
      "payable": false,
      "stateMutability": "nonpayable",
      "type": "function"
    },
    {
      "constant": true,
      "inputs": [
        {
          "name": "underlying",
          "type": "uint32"
        }
      ],
      "name": "isEligibleUnderlyingAsset",
      "outputs": [
        {
          "name": "",
          "type": "bool"
        }
      ],
      "payable": false,
      "stateMutability": "view",
      "type": "function"
    },
    {
      "constant": true,
      "inputs": [
        {
          "name": "",
          "type": "uint256"
        }
      ],
      "name": "FeeRates",
      "outputs": [
        {
          "name": "numerator",
          "type": "uint256"
        },
        {
          "name": "denominator",
          "type": "uint256"
        }
      ],
      "payable": false,
      "stateMutability": "view",
      "type": "function"
    },
    {
      "constant": false,
      "inputs": [
        {
          "name": "addAddress",
          "type": "address"
        }
      ],
      "name": "addWhiteList",
      "outputs": [],
      "payable": false,
      "stateMutability": "nonpayable",
      "type": "function"
    },
    {
      "constant": true,
      "inputs": [
        {
          "name": "underlying",
          "type": "uint32"
        }
      ],
      "name": "checkUnderlyingAsset",
      "outputs": [],
      "payable": false,
      "stateMutability": "view",
      "type": "function"
    },
    {
      "constant": true,
      "inputs": [],
      "name": "getAllFeeBalances",
      "outputs": [
        {
          "name": "",
          "type": "address[]"
        },
        {
          "name": "",
          "type": "uint256[]"
        }
      ],
      "payable": false,
      "stateMutability": "view",
      "type": "function"
    },
    {
      "constant": false,
      "inputs": [
        {
          "name": "newOwner",
          "type": "address"
        }
      ],
      "name": "transferOwnership",
      "outputs": [],
      "payable": false,
      "stateMutability": "nonpayable",
      "type": "function"
    },
    {
      "constant": false,
      "inputs": [
        {
          "name": "halt",
          "type": "bool"
        }
      ],
      "name": "setHalt",
      "outputs": [],
      "payable": false,
      "stateMutability": "nonpayable",
      "type": "function"
    },
    {
      "constant": true,
      "inputs": [
        {
          "name": "tmpAddress",
          "type": "address"
        }
      ],
      "name": "checkEligibleAddress",
      "outputs": [],
      "payable": false,
      "stateMutability": "view",
      "type": "function"
    },
    {
      "anonymous": false,
      "inputs": [
        {
          "indexed": true,
          "name": "recieptor",
          "type": "address"
        },
        {
          "indexed": true,
          "name": "settlement",
          "type": "address"
        },
        {
          "indexed": false,
          "name": "payback",
          "type": "uint256"
        }
      ],
      "name": "FeePayback",
      "type": "event"
    },
    {
      "anonymous": false,
      "inputs": [
        {
          "indexed": true,
          "name": "settlement",
          "type": "address"
        },
        {
          "indexed": false,
          "name": "payback",
          "type": "uint256"
        }
      ],
      "name": "AddFee",
      "type": "event"
    },
    {
      "anonymous": false,
      "inputs": [
        {
          "indexed": true,
          "name": "recieptor",
          "type": "address"
        },
        {
          "indexed": true,
          "name": "settlement",
          "type": "address"
        },
        {
          "indexed": false,
          "name": "payback",
          "type": "uint256"
        }
      ],
      "name": "TransferPayback",
      "type": "event"
    },
    {
      "anonymous": false,
      "inputs": [
        {
          "indexed": true,
          "name": "previousOwner",
          "type": "address"
        },
        {
          "indexed": true,
          "name": "newOwner",
          "type": "address"
        }
      ],
      "name": "OwnershipTransferred",
      "type": "event"
    },
    {
      "constant": true,
      "inputs": [],
      "name": "getOracleAddress",
      "outputs": [
        {
          "name": "",
          "type": "address"
        }
      ],
      "payable": false,
      "stateMutability": "view",
      "type": "function"
    },
    {
      "constant": false,
      "inputs": [
        {
          "name": "oracle",
          "type": "address"
        }
      ],
      "name": "setOracleAddress",
      "outputs": [],
      "payable": false,
      "stateMutability": "nonpayable",
      "type": "function"
    },
    {
      "constant": false,
      "inputs": [
        {
          "name": "index",
          "type": "uint256"
        }
      ],
      "name": "calculatePhaseOccupiedCollateral",
      "outputs": [],
      "payable": false,
      "stateMutability": "nonpayable",
      "type": "function"
    },
    {
      "constant": true,
      "inputs": [],
      "name": "getTotalOccupiedCollateral",
      "outputs": [
        {
          "name": "",
          "type": "uint256"
        }
      ],
      "payable": false,
      "stateMutability": "view",
      "type": "function"
    },
    {
      "constant": true,
      "inputs": [
        {
          "name": "optionsId",
          "type": "uint256"
        },
        {
          "name": "amount",
          "type": "uint256"
        }
      ],
      "name": "getExerciseWorth",
      "outputs": [
        {
          "name": "",
          "type": "uint256"
        }
      ],
      "payable": false,
      "stateMutability": "view",
      "type": "function"
    }
  ],
  "bytecode": "0x608060408190526002805460ff191690556402540be4006009556000600b819055600c805463ffffffff19166101f41790558054600160a060020a0319163317808255600160a060020a0316917f8be0079c531659141344cd1fd0a4f28419497f9722a3daafe3b4186f6b6457e0908290a360408051808201825260038082526103e8602080840182815260058054600181810183556000838152975160029283027f036b6384b5eca791c62761152d0c79bb0604c104a5fb6f4eb0703f3154bb3db08181019290925594517f036b6384b5eca791c62761152d0c79bb0604c104a5fb6f4eb0703f3154bb3db1958601558951808b018b5288815280870188815285548085018755868c5291519185028084019290925551908601558951808b018b5288815280870188815285548085018755868c5291519185028084019290925551908601558951808b018b5288815280870188815285548085018755868c5291519185028084019290925551908601558951808b01909a52968952938801948552815493840182559552945193029182019290925590519101556123b4806101aa6000396000f3006080604052600436106101be5763ffffffff60e060020a60003504166309a9d76c81146101c3578063132a5627146102285780632042e5c21461024f5780632f4350c21461028457806334e731221461029b5780633582d789146102b65780633b50c4d1146102cb5780634c69c00f146102fc57806353afc0251461031d57806355c47cb21461033e5780635c475d421461036257806367b8ceb914610396578063715018a6146103b157806373a3d424146103c65780637e2eeb7e146103db578063817bf86d146103f05780638da5cb5b146104115780638ea745b8146104265780638f32d59b1461049457806395a2251f146104a957806399deae0a146104ca578063a95c594a146104e2578063afec82fc14610500578063b18b78dd1461051e578063b9b8af0b14610533578063bf36b11014610548578063c27b7dfb14610566578063c78f68031461057b578063d2aaef4e1461059c578063d6d14012146105cd578063db6ad2bd146105eb578063e0561aa114610609578063e7cd4a0414610621578063ee29c94a14610642578063f20568cd14610660578063f2fde38b1461070e578063f49543871461072f578063f939fdca14610749575b600080fd5b3480156101cf57600080fd5b506101d861076a565b60408051602080825283518183015283519192839290830191858101910280838360005b838110156102145781810151838201526020016101fc565b505050509050019250505060405180910390f35b34801561023457600080fd5b5061023d6107cd565b60408051918252519081900360200190f35b34801561025b57600080fd5b50610270600160a060020a03600435166107d3565b604080519115158252519081900360200190f35b34801561029057600080fd5b50610299610832565b005b3480156102a757600080fd5b5061023d6004356024356108c5565b3480156102c257600080fd5b506101d861090a565b3480156102d757600080fd5b506102e360043561098d565b6040805163ffffffff9092168252519081900360200190f35b34801561030857600080fd5b50610299600160a060020a03600435166109c5565b34801561032957600080fd5b5061023d600160a060020a0360043516610a40565b34801561034a57600080fd5b5061023d600160a060020a0360043516602435610a52565b34801561036e57600080fd5b5061037a600435610a82565b60408051600160a060020a039092168252519081900360200190f35b3480156103a257600080fd5b5061023d600435602435610aaa565b3480156103bd57600080fd5b50610299610c0b565b3480156103d257600080fd5b5061023d610cae565b3480156103e757600080fd5b5061023d610f8e565b3480156103fc57600080fd5b50610270600160a060020a0360043516610f94565b34801561041d57600080fd5b5061037a610fa1565b34801561043257600080fd5b5061043e600435610fb0565b60408051998a52600160a060020a0390981660208a015260ff9096168888015263ffffffff9094166060880152608087019290925260a086015260c085015260e084015261010083015251908190036101200190f35b3480156104a057600080fd5b5061027061103d565b3480156104b557600080fd5b50610299600160a060020a036004351661104e565b3480156104d657600080fd5b5061029960043561123e565b3480156104ee57600080fd5b5061023d6004356024356044356114c5565b34801561050c57600080fd5b5061029963ffffffff60043516611505565b34801561052a57600080fd5b5061037a61155c565b34801561053f57600080fd5b5061027061156b565b34801561055457600080fd5b50610299600435602435604435611574565b34801561057257600080fd5b506102e36115d8565b34801561058757600080fd5b5061023d600160a060020a03600435166115e4565b3480156105a857600080fd5b506105b46004356115ff565b6040805192835260208301919091528051918290030190f35b3480156105d957600080fd5b5061027063ffffffff60043516611620565b3480156105f757600080fd5b5061027063ffffffff60043516611679565b34801561061557600080fd5b506105b4600435611686565b34801561062d57600080fd5b50610299600160a060020a03600435166116b2565b34801561064e57600080fd5b5061029963ffffffff60043516611709565b34801561066c57600080fd5b50610675611714565b604051808060200180602001838103835285818151815260200191508051906020019060200280838360005b838110156106b95781810151838201526020016106a1565b50505050905001838103825284818151815260200191508051906020019060200280838360005b838110156106f85781810151838201526020016106e0565b5050505090500194505050505060405180910390f35b34801561071a57600080fd5b50610299600160a060020a036004351661181d565b34801561073b57600080fd5b506102996004351515611872565b34801561075557600080fd5b50610299600160a060020a03600435166118d1565b606060038054806020026020016040519081016040528092919081815260200182805480156107c257602002820191906000526020600020905b8154600160a060020a031681526001909101906020018083116107a4575b505050505090505b90565b600d5481565b60006107dd61103d565b1515610821576040805160e560020a62461bcd0281526020600482018190526024820152600080516020612369833981519152604482015290519081900360640190fd5b61082c6003836118dc565b92915050565b600061083c61103d565b1515610880576040805160e560020a62461bcd0281526020600482018190526024820152600080516020612369833981519152604482015290519081900360640190fd5b5060005b6003548110156108c2576108ba6003828154811015156108a057fe5b600091825260209091200154600160a060020a031661104e565b600101610884565b50565b60008060006108d38561198e565b80549092506108e8908563ffffffff611a0d16565b9050610901826001015482611ab390919063ffffffff16565b95945050505050565b606060018054806020026020016040519081016040528092919081815260200182805480156107c257602002820191906000526020600020906000905b82829054906101000a900463ffffffff1663ffffffff16815260200190600401906020826003010492830192600103820291508084116109475790505050505050905090565b600180548290811061099b57fe5b9060005260206000209060089182820401919006600402915054906101000a900463ffffffff1681565b6109cd61103d565b1515610a11576040805160e560020a62461bcd0281526020600482018190526024820152600080516020612369833981519152604482015290519081900360640190fd5b6008805473ffffffffffffffffffffffffffffffffffffffff1916600160a060020a0392909216919091179055565b60046020526000908152604090205481565b600760205281600052604060002081815481101515610a6d57fe5b90600052602060002001600091509150505481565b6003805482908110610a9057fe5b600091825260209091200154600160a060020a0316905081565b600080600080610ab986611af5565b9250610ac483611b81565b610ace8386611bdc565b6008546001840154604080517fda663257000000000000000000000000000000000000000000000000000000008152750100000000000000000000000000000000000000000090920463ffffffff16600483015251600160a060020a039092169163da663257916024808201926020929091908290030181600087803b158015610b5757600080fd5b505af1158015610b6b573d6000803e3d6000fd5b505050506040513d6020811015610b8157600080fd5b505160018401549092506000915074010000000000000000000000000000000000000000900460ff161515610bc9578260030154821115610bc457600383015490035b610bdf565b8260030154821015610bdf578183600301540390505b801515610bef5760009350610c02565b610bff818663ffffffff611a0d16565b93505b50505092915050565b610c1361103d565b1515610c57576040805160e560020a62461bcd0281526020600482018190526024820152600080516020612369833981519152604482015290519081900360640190fd5b60008054604051600160a060020a03909116907f8be0079c531659141344cd1fd0a4f28419497f9722a3daafe3b4186f6b6457e0908390a36000805473ffffffffffffffffffffffffffffffffffffffff19169055565b60008060606000806000806000610cc3611c3c565b6001546040805182815260208084028201019091529198508015610cf1578160200160208202803883390190505b509550600094505b600154851015610ddb5760085460018054600160a060020a039092169163da663257919088908110610d2757fe5b90600052602060002090600891828204019190066004029054906101000a900463ffffffff166040518263ffffffff1660e060020a028152600401808263ffffffff168152602001915050602060405180830381600087803b158015610d8c57600080fd5b505af1158015610da0573d6000803e3d6000fd5b505050506040513d6020811015610db657600080fd5b50518651879087908110610dc657fe5b60209081029091010152600190940193610cf9565b600d5460010193505b600a54841015610e8357610e27600a85815481101515610e0057fe5b906000526020600020906007020160010160159054906101000a900463ffffffff16611c87565b9250610e76610e69600a86815481101515610e3e57fe5b90600052602060002090600702018886815181101515610e5a57fe5b90602001906020020151611c94565b889063ffffffff611d0716565b9650600190930192610de4565b600e5460010191505b438211610f82575060008181526006602052604081209094505b8054851015610f7757610edd600a8287815481101515610ec257fe5b600091825260208220600290910201015481548110610e0057fe5b9250610f6a610f5d600a8388815481101515610ef557fe5b600091825260208220600290910201015481548110610f1057fe5b90600052602060002090600702018388815481101515610f2c57fe5b60009182526020909120600290910201600101548987815181101515610f4e57fe5b90602001906020020151611d64565b889063ffffffff611dc516565b9650600190940193610ea6565b600190910190610e8c565b50949695505050505050565b600e5481565b600061082c600383611e07565b600054600160a060020a031690565b600a805482908110610fbe57fe5b60009182526020909120600790910201805460018201546002830154600384015460048501546005860154600690960154949650600160a060020a0384169574010000000000000000000000000000000000000000850460ff1695750100000000000000000000000000000000000000000090950463ffffffff169489565b600054600160a060020a0316331490565b60008061105961103d565b151561109d576040805160e560020a62461bcd0281526020600482018190526024820152600080516020612369833981519152604482015290519081900360640190fd5b600160a060020a0383166000908152600460205260408120549250821161110e576040805160e560020a62461bcd02815260206004820152601260248201527f4974277320656d7074792062616c616e63650000000000000000000000000000604482015290519081900360640190fd5b600160a060020a038316600081815260046020526040812055151561116057604051339083156108fc029084906000818181858888f1935050505015801561115a573d6000803e3d6000fd5b506111f9565b50604080517fa9059cbb0000000000000000000000000000000000000000000000000000000081523360048201526024810183905290518391600160a060020a0383169163a9059cbb916044808201926020929091908290030181600087803b1580156111cc57600080fd5b505af11580156111e0573d6000803e3d6000fd5b505050506040513d60208110156111f657600080fd5b50505b604080518381529051600160a060020a0385169133917f747147be90b2a81a2e929994a92cd7bb71396bdbfd02f181867c81187d4f79449181900360200190a3505050565b600080606060008061124e61103d565b1515611292576040805160e560020a62461bcd0281526020600482018190526024820152600080516020612369833981519152604482015290519081900360640190fd5b600c546112aa90879063ffffffff90811690611a0d16565b600a5490955085106112bb576114bd565b600f546001870111156112d957600186016112d7600f826122f6565b505b600c546112f190869063ffffffff90811690611d0716565b600a5490945084111561130457600a5493505b600154604080518281526020808402820101909152908015611330578160200160208202803883390190505b509250600091505b60015482101561141a5760085460018054600160a060020a039092169163da66325791908590811061136657fe5b90600052602060002090600891828204019190066004029054906101000a900463ffffffff166040518263ffffffff1660e060020a028152600401808263ffffffff168152602001915050602060405180830381600087803b1580156113cb57600080fd5b505af11580156113df573d6000803e3d6000fd5b505050506040513d60208110156113f557600080fd5b5051835184908490811061140557fe5b60209081029091010152600190910190611338565b5060005b8385101561148557611438600a86815481101515610e0057fe5b955061147861146b600a8781548110151561144f57fe5b90600052602060002090600702018589815181101515610e5a57fe5b829063ffffffff611d0716565b600190950194905061141e565b80600f8781548110151561149557fe5b906000526020600020018190555060018403600d5410156114bd576000198401600d5543600e555b505050505050565b6006602052826000526040600020828154811015156114e057fe5b9060005260206000209060020201816002811015156114fb57fe5b0154925083915050565b61150d61103d565b1515611551576040805160e560020a62461bcd0281526020600482018190526024820152600080516020612369833981519152604482015290519081900360640190fd5b6108c2600182611e20565b600854600160a060020a031690565b60025460ff1681565b600061157e61103d565b15156115c2576040805160e560020a62461bcd0281526020600482018190526024820152600080516020612369833981519152604482015290519081900360640190fd5b6115cb8461198e565b9283555060019091015550565b600c5463ffffffff1681565b600160a060020a031660009081526004602052604090205490565b600080600061160d8461198e565b8054600190910154909590945092505050565b600061162a61103d565b151561166e576040805160e560020a62461bcd0281526020600482018190526024820152600080516020612369833981519152604482015290519081900360640190fd5b61082c600183611e78565b600061082c600183611f27565b600580548290811061169457fe5b60009182526020909120600290910201805460019091015490915082565b6116ba61103d565b15156116fe576040805160e560020a62461bcd0281526020600482018190526024820152600080516020612369833981519152604482015290519081900360640190fd5b6108c2600382611f34565b6108c2600182611f8b565b6060806060600060038054905060405190808252806020026020018201604052801561174a578160200160208202803883390190505b509150600090505b6003548110156117b4576004600060038381548110151561176f57fe5b6000918252602080832090910154600160a060020a0316835282019290925260400190205482518390839081106117a257fe5b60209081029091010152600101611752565b6003828180548060200260200160405190810160405280929190818152602001828054801561180c57602002820191906000526020600020905b8154600160a060020a031681526001909101906020018083116117ee575b505050505091509350935050509091565b61182561103d565b1515611869576040805160e560020a62461bcd0281526020600482018190526024820152600080516020612369833981519152604482015290519081900360640190fd5b6108c281611ff2565b61187a61103d565b15156118be576040805160e560020a62461bcd0281526020600482018190526024820152600080516020612369833981519152604482015290519081900360640190fd5b6002805460ff1916911515919091179055565b6108c26003826120e0565b6000806118e98484612147565b84549091508110156119825783546000190181146119685783548490600019810190811061191357fe5b6000918252602090912001548454600160a060020a039091169085908390811061193957fe5b9060005260206000200160006101000a815481600160a060020a030219169083600160a060020a031602179055505b83546119788560001983016122f6565b5060019150611987565b600091505b5092915050565b60055460009082106119ea576040805160e560020a62461bcd02815260206004820152601260248201527f66656520747970652069732076616c6964210000000000000000000000000000604482015290519081900360640190fd5b60058054839081106119f857fe5b90600052602060002090600202019050919050565b600080831515611a205760009150611987565b50828202828482811515611a3057fe5b0414611aac576040805160e560020a62461bcd02815260206004820152602160248201527f536166654d6174683a206d756c7469706c69636174696f6e206f766572666c6f60448201527f7700000000000000000000000000000000000000000000000000000000000000606482015290519081900360840190fd5b9392505050565b6000611aac83836040805190810160405280601a81526020017f536166654d6174683a206469766973696f6e206279207a65726f000000000000815250612194565b60008082118015611b085750600a548211155b1515611b5e576040805160e560020a62461bcd02815260206004820152601660248201527f6f7074696f6e206964206973206e6f7420657869737400000000000000000000604482015290519081900360640190fd5b600a805483908110611b6c57fe5b90600052602060002090600702019050919050565b600281015442106108c2576040805160e560020a62461bcd02815260206004820152601160248201527f6f7074696f6e2069732065787069726564000000000000000000000000000000604482015290519081900360640190fd5b6004820154811115611c38576040805160e560020a62461bcd02815260206004820152601d60248201527f6f7074696f6e20616d6f756e7420697320696e73756666696369656e74000000604482015290519081900360640190fd5b5050565b600080805b600f54811015611c8157611c77600f82815481101515611c5d57fe5b906000526020600020015483611d0790919063ffffffff16565b9150600101611c41565b50919050565b600061082c60018361223c565b60038201546001830154600091829160ff7401000000000000000000000000000000000000000090910416159084101415611ce95760048401546003850154611ce29163ffffffff611a0d16565b9050611aac565b6004840154611cff90849063ffffffff611a0d16565b949350505050565b600082820183811015611aac576040805160e560020a62461bcd02815260206004820152601b60248201527f536166654d6174683a206164646974696f6e206f766572666c6f770000000000604482015290519081900360640190fd5b60038301546001840154600091829160ff7401000000000000000000000000000000000000000090910416159084101415611db5576003850154611dae908563ffffffff611a0d16565b9050611cff565b610901838563ffffffff611a0d16565b6000611aac83836040805190810160405280601e81526020017f536166654d6174683a207375627472616374696f6e206f766572666c6f770000815250612295565b600080611e148484612147565b93549093109392505050565b6000611e2c838361223c565b8354909150811415611e735782546001810184556000848152602090206008820401805460079092166004026101000a63ffffffff81810219909316928516029190911790555b505050565b600080611e85848461223c565b8454909150811015611982578354600019018114611f1757835484906000198101908110611eaf57fe5b90600052602060002090600891828204019190066004029054906101000a900463ffffffff168482815481101515611ee357fe5b90600052602060002090600891828204019190066004026101000a81548163ffffffff021916908363ffffffff1602179055505b835461197885600019830161231a565b600080611e14848461223c565b6000611f408383612147565b8354909150811415611e73578254600181018455600084815260209020018054600160a060020a03841673ffffffffffffffffffffffffffffffffffffffff19909116179055505050565b6000611f97838361223c565b83549091508110611e73576040805160e560020a62461bcd02815260206004820152601e60248201527f77686974654c6973743a207573696e6720696e76616c69642076616c75650000604482015290519081900360640190fd5b600160a060020a0381161515612078576040805160e560020a62461bcd02815260206004820152602660248201527f4f776e61626c653a206e6577206f776e657220697320746865207a65726f206160448201527f6464726573730000000000000000000000000000000000000000000000000000606482015290519081900360840190fd5b60008054604051600160a060020a03808516939216917f8be0079c531659141344cd1fd0a4f28419497f9722a3daafe3b4186f6b6457e091a36000805473ffffffffffffffffffffffffffffffffffffffff1916600160a060020a0392909216919091179055565b60006120ec8383612147565b83549091508110611e73576040805160e560020a62461bcd02815260206004820181905260248201527f77686974654c6973743a207573696e6720696e76616c69642061646472657373604482015290519081900360640190fd5b6000805b8354811015611aac5782600160a060020a0316848281548110151561216c57fe5b600091825260209091200154600160a060020a0316141561218c57611aac565b60010161214b565b600080828185116122265760405160e560020a62461bcd0281526004018080602001828103825283818151815260200191508051906020019080838360005b838110156121eb5781810151838201526020016121d3565b50505050905090810190601f1680156122185780820380516001836020036101000a031916815260200191505b509250505060405180910390fd5b50838581151561223257fe5b0495945050505050565b6000805b8354811015611aac578263ffffffff16848281548110151561225e57fe5b6000918252602090912060088204015460079091166004026101000a900463ffffffff16141561228d57611aac565b600101612240565b60008082858511156122ec5760405160e560020a62461bcd028152600401808060200182810382528381815181526020019150805190602001908083836000838110156121eb5781810151838201526020016121d3565b5050509103919050565b815481835581811115611e7357600083815260209020611e7391810190830161234a565b815481835581811115611e73576007016008900481600701600890048360005260206000209182019101611e7391905b6107ca91905b808211156123645760008155600101612350565b509056004f776e61626c653a2063616c6c6572206973206e6f7420746865206f776e6572a165627a7a723058209c67b8ccf26fbbe799c234e8526ad61ea5e73f0b47ed4f5cadf2a6fea039dff50029",
  "source": "pragma solidity ^0.4.26;\r\nimport \"./SafeMath.sol\";\r\nimport \"./TransactionFee.sol\";\r\nimport \"./CompoundOracleInterface.sol\";\r\nimport \"./underlyingAssets.sol\";\r\ncontract OptionsPool is UnderlyingAssets,TransactionFee {\r\n    using SafeMath for uint256;\r\n    struct OptionsInfo {\r\n        uint256     optionID;\r\n        address     owner;\r\n        uint8   \toptType;    //0 for call, 1 for put\r\n        uint32\t\tunderlying;\r\n        uint256\t\texpiration;\r\n        uint256     strikePrice;\r\n        uint256     amount;\r\n        int256     ivNumerator;\r\n        int256     ivDenominator;\r\n    }\r\n\r\n    //each block burn options\r\n    mapping(uint256=>uint256[2][]) public burnBlockOptions;\r\n    mapping(address=>uint256[]) public optionsBalances;\r\n    ICompoundOracle internal _oracle;\r\n    uint256 private _calDecimal = 10000000000;\r\n\r\n    OptionsInfo[] public allOptions;\r\n\r\n    uint256 private firstPhase = 0;\r\n    uint32 public optionPhase = 500;\r\n    uint256 public lastCallOption;\r\n    uint256 public lastCalBlock;\r\n\r\n    uint256[] private OptionsPhases;\r\n    function getOracleAddress() public view returns(address){\r\n        return address(_oracle);\r\n    }\r\n    function setOracleAddress(address oracle)public onlyOwner{\r\n        _oracle = ICompoundOracle(oracle);\r\n    }\r\n    function calculatePhaseOccupiedCollateral(uint256 index) public onlyOwner {\r\n        uint256 beginOption = index.mul(optionPhase);\r\n        if (beginOption>=allOptions.length){\r\n            return;\r\n        }\r\n        if(OptionsPhases.length<index+1){\r\n            OptionsPhases.length = index+1;\r\n        }\r\n        uint256 lastOption = beginOption.add(optionPhase);\r\n        if (lastOption>allOptions.length) {\r\n            lastOption = allOptions.length;\r\n        }\r\n        uint256[] memory prices = new uint256[](underlyingAssets.length);\r\n        for (uint256 i = 0;i<underlyingAssets.length;i++){\r\n            prices[i] = _oracle.getUnderlyingPrice(underlyingAssets[i]);\r\n        }\r\n        uint256 totalOccupied = 0;\r\n        for (;beginOption<lastOption;beginOption++){\r\n            index = _getEligibleUnderlyingIndex(allOptions[beginOption].underlying);\r\n            totalOccupied = totalOccupied.add(calOptionsCollateral(allOptions[beginOption],prices[index]));\r\n        }\r\n        OptionsPhases[index] = totalOccupied;\r\n        if (lastCallOption<lastOption-1) {\r\n            lastCallOption = lastOption-1;\r\n            lastCalBlock = block.number;\r\n        }\r\n    }\r\n    function createOptions(uint8 optType,uint32 underlying,uint256 expiration,uint256 strikePrice,\r\n        uint256 amount,int256 ivNumerator,int256 ivDenominator) internal {\r\n        uint256 optionID = allOptions.length;\r\n        allOptions.push(OptionsInfo(optionID,msg.sender,optType,underlying,expiration,strikePrice,amount,ivNumerator,ivDenominator));\r\n        optionsBalances[msg.sender].push(optionID);\r\n    }\r\n    function getTotalOccupiedCollateral() public view returns (uint256) {\r\n        uint256 totalOccupied = sumOptionPhases();\r\n        uint256[] memory prices = new uint256[](underlyingAssets.length);\r\n        for (uint256 i = 0;i<underlyingAssets.length;i++){\r\n            prices[i] = _oracle.getUnderlyingPrice(underlyingAssets[i]);\r\n        }\r\n        for (uint256 beginOption = lastCallOption+1; beginOption < allOptions.length;beginOption++){\r\n            uint256 index = _getEligibleUnderlyingIndex(allOptions[beginOption].underlying);\r\n            totalOccupied = totalOccupied.add(calOptionsCollateral(allOptions[beginOption],prices[index]));\r\n        }\r\n        for (uint256 beginBlock = lastCalBlock+1; beginBlock <= block.number;beginBlock++){\r\n            uint256[2][] storage burnedTokens = burnBlockOptions[beginBlock];\r\n            for (i = 0;i<burnedTokens.length;i++){\r\n                index = _getEligibleUnderlyingIndex(allOptions[burnedTokens[i][0]].underlying);\r\n                totalOccupied = totalOccupied.sub(calBurnedOptionsCollateral(allOptions[burnedTokens[i][0]],\r\n                    burnedTokens[i][1],prices[index]));\r\n            }\r\n        }\r\n        return totalOccupied;\r\n    }\r\n    function sumOptionPhases()internal view returns(uint256){\r\n        uint256 totalOccupied = 0;\r\n        for (uint256 i=0;i<OptionsPhases.length;i++){\r\n            totalOccupied = totalOccupied.add(OptionsPhases[i]);\r\n        }\r\n        return totalOccupied;\r\n    }\r\n    function calOptionsCollateral(OptionsInfo storage option,uint256 underlyingPrice)internal view returns(uint256){\r\n        uint256 totalOccupied = 0;\r\n        if ((option.optType == 0) == (option.strikePrice>underlyingPrice)){ // call\r\n            totalOccupied = option.strikePrice.mul(option.amount);\r\n        } else {\r\n            totalOccupied = underlyingPrice.mul(option.amount);\r\n        }\r\n        return totalOccupied;\r\n    }\r\n    function calBurnedOptionsCollateral(OptionsInfo storage option,uint256 burned,uint256 underlyingPrice)internal view returns(uint256){\r\n        uint256 totalOccupied = 0;\r\n        if ((option.optType == 0) == (option.strikePrice>underlyingPrice)){ // call\r\n            totalOccupied = option.strikePrice.mul(burned);\r\n        } else {\r\n            totalOccupied = underlyingPrice.mul(burned);\r\n        }\r\n        return totalOccupied;\r\n    }\r\n    function burnOptions(uint256 id,uint256 amount)internal{\r\n        OptionsInfo storage info = getOptionsById(id);\r\n        checkEligible(info);\r\n        checkOwner(info,msg.sender);\r\n        checkSufficient(info,amount);\r\n        info.amount = info.amount.sub(amount);\r\n        burnBlockOptions[block.number].push([id-1,amount]);\r\n    }\r\n    function getExerciseWorth(uint256 optionsId,uint256 amount)public view returns(uint256){\r\n        OptionsInfo storage info = getOptionsById(optionsId);\r\n        checkEligible(info);\r\n        checkSufficient(info,amount);\r\n        uint256 underlyingPrice = _oracle.getUnderlyingPrice(info.underlying);\r\n        uint256 tokenPayback = 0;\r\n        if (info.optType == 0){\r\n            if (underlyingPrice > info.strikePrice){\r\n                tokenPayback -= info.strikePrice;\r\n            }\r\n        }else{\r\n            if ( underlyingPrice < info.strikePrice){\r\n                tokenPayback = info.strikePrice-underlyingPrice;\r\n            }\r\n        }\r\n        if (tokenPayback == 0 ){\r\n            return 0;\r\n        } \r\n        return tokenPayback.mul(amount);\r\n    }\r\n    function getOptionsById(uint256 id)internal view returns(OptionsInfo storage){\r\n        require(id>0 && id <= allOptions.length,\"option id is not exist\");\r\n        return allOptions[id];\r\n    }\r\n    function checkEligible(OptionsInfo storage info)internal view{\r\n        require(info.expiration>now,\"option is expired\");\r\n    }\r\n    function checkOwner(OptionsInfo storage info,address owner)internal view{\r\n        require(info.owner == owner,\"caller is not the options owner\");\r\n    }\r\n    function checkSufficient(OptionsInfo storage info,uint256 amount) internal view{\r\n        require(info.amount >= amount,\"option amount is insufficient\");\r\n    }\r\n\r\n}",
  "sourcePath": "C:\\work\\solidity\\FinnexusOptions_V2\\contracts\\OptionsPool.sol",
  "compiler": {
    "name": "solc",
    "version": "0.4.26+commit.4563c3fc.Emscripten.clang"
  },
  "schemaVersion": "3.1.0",
  "updatedAt": "2020-07-17T09:23:13.007Z",
  "devdoc": {
    "methods": {
      "addUnderlyingAsset(uint32)": {
        "details": "Implementation of add an eligible underlying into the underlyingAssets.\r",
        "params": {
          "underlying": "new eligible underlying.\r"
        }
      },
      "addWhiteList(address)": {
        "details": "Implementation of add an eligible address into the whitelist.\r",
        "params": {
          "addAddress": "new eligible address.\r"
        }
      },
      "getUnderlyingAssets()": {
        "details": "Implementation of getting the eligible underlyingAssets.\r"
      },
      "getWhiteList()": {
        "details": "Implementation of getting the eligible whitelist.\r"
      },
      "isEligibleAddress(address)": {
        "details": "Implementation of testing whether the input address is eligible.\r",
        "params": {
          "tmpAddress": "input address for testing.\r"
        }
      },
      "isEligibleUnderlyingAsset(uint32)": {
        "details": "Implementation of testing whether the input underlying is eligible.\r",
        "params": {
          "underlying": "input underlying for testing.\r"
        }
      },
      "isOwner()": {
        "details": "Returns true if the caller is the current owner."
      },
      "owner()": {
        "details": "Returns the address of the current owner."
      },
      "removeUnderlyingAssets(uint32)": {
        "details": "Implementation of revoke an invalid underlying from the underlyingAssets.\r",
        "params": {
          "removeUnderlying": "revoked underlying.\r"
        }
      },
      "removeWhiteList(address)": {
        "details": "Implementation of revoke an invalid address from the whitelist.\r",
        "params": {
          "removeAddress": "revoked address.\r"
        }
      },
      "renounceOwnership()": {
        "details": "Leaves the contract without owner. It will not be possible to call `onlyOwner` functions anymore. Can only be called by the current owner.     * NOTE: Renouncing ownership will leave the contract without an owner, thereby removing any functionality that is only available to the owner."
      },
      "setTransactionFee(uint256,uint256,uint256)": {
        "details": "set the rate of trasaction fee.\r",
        "params": {
          "denominator": "thedenominator of transaction fee.\r transaction fee = numerator/denominator;\r",
          "feeType": "the transaction fee type\r",
          "numerator": "the numerator of transaction fee .\r"
        }
      },
      "transferOwnership(address)": {
        "details": "Transfers ownership of the contract to a new account (`newOwner`). Can only be called by the current owner."
      }
    }
  },
  "userdoc": {
    "methods": {
      "setHalt(bool)": {
        "notice": "function Emergency situation that requires contribution period to stop or not."
      }
    }
  }
}