{
  "contractName": "OptionsPool",
  "abi": [
    {
      "constant": true,
      "inputs": [
        {
          "name": "from",
          "type": "uint256"
        },
        {
          "name": "size",
          "type": "uint256"
        }
      ],
      "name": "getOptionInfoList",
      "outputs": [
        {
          "name": "",
          "type": "address[]"
        },
        {
          "name": "",
          "type": "uint256[]"
        },
        {
          "name": "",
          "type": "uint256[]"
        },
        {
          "name": "",
          "type": "uint256[]"
        },
        {
          "name": "",
          "type": "uint256[]"
        }
      ],
      "payable": false,
      "stateMutability": "view",
      "type": "function"
    },
    {
      "constant": true,
      "inputs": [],
      "name": "getOccupiedCalInfo",
      "outputs": [
        {
          "name": "",
          "type": "uint256"
        },
        {
          "name": "",
          "type": "int256"
        }
      ],
      "payable": false,
      "stateMutability": "view",
      "type": "function"
    },
    {
      "constant": true,
      "inputs": [
        {
          "name": "lastOption",
          "type": "uint256"
        },
        {
          "name": "beginOption",
          "type": "uint256"
        },
        {
          "name": "endOption",
          "type": "uint256"
        }
      ],
      "name": "calculatePhaseOccupiedCollateral",
      "outputs": [
        {
          "name": "",
          "type": "uint256"
        },
        {
          "name": "",
          "type": "uint256"
        },
        {
          "name": "",
          "type": "bool"
        }
      ],
      "payable": false,
      "stateMutability": "view",
      "type": "function"
    },
    {
      "constant": false,
      "inputs": [
        {
          "name": "totalOccupied",
          "type": "uint256"
        },
        {
          "name": "beginOption",
          "type": "uint256"
        },
        {
          "name": "latestOccpied",
          "type": "int256"
        }
      ],
      "name": "setCollateralPhase",
      "outputs": [],
      "payable": false,
      "stateMutability": "nonpayable",
      "type": "function"
    },
    {
      "constant": false,
      "inputs": [
        {
          "name": "newFirstOption",
          "type": "uint256"
        },
        {
          "name": "latestNetWorth",
          "type": "int256[]"
        },
        {
          "name": "whiteList",
          "type": "address[]"
        }
      ],
      "name": "setSharedState",
      "outputs": [],
      "payable": false,
      "stateMutability": "nonpayable",
      "type": "function"
    },
    {
      "constant": false,
      "inputs": [
        {
          "name": "volatility",
          "type": "address"
        }
      ],
      "name": "setVolatilityAddress",
      "outputs": [],
      "payable": false,
      "stateMutability": "nonpayable",
      "type": "function"
    },
    {
      "constant": true,
      "inputs": [
        {
          "name": "lastOption",
          "type": "uint256"
        },
        {
          "name": "begin",
          "type": "uint256"
        },
        {
          "name": "end",
          "type": "uint256"
        },
        {
          "name": "whiteList",
          "type": "address[]"
        }
      ],
      "name": "calRangeSharedPayment",
      "outputs": [
        {
          "name": "",
          "type": "uint256[]"
        },
        {
          "name": "",
          "type": "uint256"
        },
        {
          "name": "",
          "type": "bool"
        }
      ],
      "payable": false,
      "stateMutability": "view",
      "type": "function"
    },
    {
      "constant": true,
      "inputs": [
        {
          "name": "ids",
          "type": "uint256[]"
        }
      ],
      "name": "getOptionInfoListFromID",
      "outputs": [
        {
          "name": "",
          "type": "address[]"
        },
        {
          "name": "",
          "type": "uint256[]"
        },
        {
          "name": "",
          "type": "uint256[]"
        },
        {
          "name": "",
          "type": "uint256[]"
        },
        {
          "name": "",
          "type": "uint256[]"
        }
      ],
      "payable": false,
      "stateMutability": "view",
      "type": "function"
    },
    {
      "constant": true,
      "inputs": [],
      "name": "getUnderlyingAssets",
      "outputs": [
        {
          "name": "",
          "type": "uint32[]"
        }
      ],
      "payable": false,
      "stateMutability": "view",
      "type": "function"
    },
    {
      "constant": true,
      "inputs": [
        {
          "name": "expiration",
          "type": "uint256"
        },
        {
          "name": "underlying",
          "type": "uint32"
        }
      ],
      "name": "buyOptionCheck",
      "outputs": [],
      "payable": false,
      "stateMutability": "view",
      "type": "function"
    },
    {
      "constant": true,
      "inputs": [],
      "name": "getVolatilityAddress",
      "outputs": [
        {
          "name": "",
          "type": "address"
        }
      ],
      "payable": false,
      "stateMutability": "view",
      "type": "function"
    },
    {
      "constant": true,
      "inputs": [
        {
          "name": "lastOption",
          "type": "uint256"
        },
        {
          "name": "begin",
          "type": "uint256"
        },
        {
          "name": "end",
          "type": "uint256"
        },
        {
          "name": "whiteList",
          "type": "address[]"
        }
      ],
      "name": "calculatePhaseOptionsFall",
      "outputs": [
        {
          "name": "",
          "type": "int256[]"
        }
      ],
      "payable": false,
      "stateMutability": "view",
      "type": "function"
    },
    {
      "constant": true,
      "inputs": [],
      "name": "getLatestOption",
      "outputs": [
        {
          "name": "",
          "type": "uint256"
        },
        {
          "name": "",
          "type": "address"
        },
        {
          "name": "",
          "type": "uint8"
        },
        {
          "name": "",
          "type": "uint32"
        },
        {
          "name": "",
          "type": "uint256"
        },
        {
          "name": "",
          "type": "uint256"
        },
        {
          "name": "",
          "type": "uint256"
        }
      ],
      "payable": false,
      "stateMutability": "view",
      "type": "function"
    },
    {
      "constant": true,
      "inputs": [
        {
          "name": "optionsId",
          "type": "uint256"
        }
      ],
      "name": "getOptionsById",
      "outputs": [
        {
          "name": "",
          "type": "uint256"
        },
        {
          "name": "",
          "type": "address"
        },
        {
          "name": "",
          "type": "uint8"
        },
        {
          "name": "",
          "type": "uint32"
        },
        {
          "name": "",
          "type": "uint256"
        },
        {
          "name": "",
          "type": "uint256"
        },
        {
          "name": "",
          "type": "uint256"
        }
      ],
      "payable": false,
      "stateMutability": "view",
      "type": "function"
    },
    {
      "constant": false,
      "inputs": [
        {
          "name": "oracle",
          "type": "address"
        }
      ],
      "name": "setOracleAddress",
      "outputs": [],
      "payable": false,
      "stateMutability": "nonpayable",
      "type": "function"
    },
    {
      "constant": true,
      "inputs": [
        {
          "name": "optionID",
          "type": "uint256"
        },
        {
          "name": "amount",
          "type": "uint256"
        }
      ],
      "name": "getBurnedFullPay",
      "outputs": [
        {
          "name": "",
          "type": "address"
        },
        {
          "name": "",
          "type": "uint256"
        }
      ],
      "payable": false,
      "stateMutability": "view",
      "type": "function"
    },
    {
      "constant": true,
      "inputs": [],
      "name": "getOptionsPriceAddress",
      "outputs": [
        {
          "name": "",
          "type": "address"
        }
      ],
      "payable": false,
      "stateMutability": "view",
      "type": "function"
    },
    {
      "constant": true,
      "inputs": [],
      "name": "getBurnTimeLimit",
      "outputs": [
        {
          "name": "",
          "type": "uint256"
        }
      ],
      "payable": false,
      "stateMutability": "view",
      "type": "function"
    },
    {
      "constant": true,
      "inputs": [
        {
          "name": "optionsId",
          "type": "uint256"
        },
        {
          "name": "amount",
          "type": "uint256"
        }
      ],
      "name": "getExerciseWorth",
      "outputs": [
        {
          "name": "",
          "type": "uint256"
        }
      ],
      "payable": false,
      "stateMutability": "view",
      "type": "function"
    },
    {
      "constant": true,
      "inputs": [
        {
          "name": "whiteList",
          "type": "address[]"
        }
      ],
      "name": "getNetWrothCalInfo",
      "outputs": [
        {
          "name": "",
          "type": "uint256"
        },
        {
          "name": "",
          "type": "int256[]"
        }
      ],
      "payable": false,
      "stateMutability": "view",
      "type": "function"
    },
    {
      "constant": true,
      "inputs": [
        {
          "name": "optionsId",
          "type": "uint256"
        }
      ],
      "name": "getOptionsLimitTimeById",
      "outputs": [
        {
          "name": "",
          "type": "uint256"
        }
      ],
      "payable": false,
      "stateMutability": "view",
      "type": "function"
    },
    {
      "constant": false,
      "inputs": [],
      "name": "renounceOwnership",
      "outputs": [],
      "payable": false,
      "stateMutability": "nonpayable",
      "type": "function"
    },
    {
      "constant": true,
      "inputs": [
        {
          "name": "expiration",
          "type": "uint256"
        }
      ],
      "name": "checkExpiration",
      "outputs": [],
      "payable": false,
      "stateMutability": "view",
      "type": "function"
    },
    {
      "constant": true,
      "inputs": [],
      "name": "getTotalOccupiedCollateral",
      "outputs": [
        {
          "name": "",
          "type": "uint256"
        }
      ],
      "payable": false,
      "stateMutability": "view",
      "type": "function"
    },
    {
      "constant": false,
      "inputs": [
        {
          "name": "expiration",
          "type": "uint256"
        }
      ],
      "name": "addExpiration",
      "outputs": [],
      "payable": false,
      "stateMutability": "nonpayable",
      "type": "function"
    },
    {
      "constant": true,
      "inputs": [
        {
          "name": "settlement",
          "type": "address"
        }
      ],
      "name": "getNetWrothLatestWorth",
      "outputs": [
        {
          "name": "",
          "type": "int256"
        }
      ],
      "payable": false,
      "stateMutability": "view",
      "type": "function"
    },
    {
      "constant": false,
      "inputs": [
        {
          "name": "removeExpiration",
          "type": "uint256"
        }
      ],
      "name": "removeExpirationList",
      "outputs": [
        {
          "name": "",
          "type": "bool"
        }
      ],
      "payable": false,
      "stateMutability": "nonpayable",
      "type": "function"
    },
    {
      "constant": true,
      "inputs": [],
      "name": "owner",
      "outputs": [
        {
          "name": "",
          "type": "address"
        }
      ],
      "payable": false,
      "stateMutability": "view",
      "type": "function"
    },
    {
      "constant": true,
      "inputs": [],
      "name": "isOwner",
      "outputs": [
        {
          "name": "",
          "type": "bool"
        }
      ],
      "payable": false,
      "stateMutability": "view",
      "type": "function"
    },
    {
      "constant": true,
      "inputs": [],
      "name": "getExpirationList",
      "outputs": [
        {
          "name": "",
          "type": "uint256[]"
        }
      ],
      "payable": false,
      "stateMutability": "view",
      "type": "function"
    },
    {
      "constant": false,
      "inputs": [
        {
          "name": "addAddress",
          "type": "address"
        }
      ],
      "name": "addOperator",
      "outputs": [],
      "payable": false,
      "stateMutability": "nonpayable",
      "type": "function"
    },
    {
      "constant": true,
      "inputs": [
        {
          "name": "expiration",
          "type": "uint256"
        }
      ],
      "name": "isEligibleExpiration",
      "outputs": [
        {
          "name": "",
          "type": "bool"
        }
      ],
      "payable": false,
      "stateMutability": "view",
      "type": "function"
    },
    {
      "constant": false,
      "inputs": [
        {
          "name": "optionsPrice",
          "type": "address"
        }
      ],
      "name": "setOptionsPriceAddress",
      "outputs": [],
      "payable": false,
      "stateMutability": "nonpayable",
      "type": "function"
    },
    {
      "constant": false,
      "inputs": [
        {
          "name": "removeAddress",
          "type": "address"
        }
      ],
      "name": "removeOperator",
      "outputs": [
        {
          "name": "",
          "type": "bool"
        }
      ],
      "payable": false,
      "stateMutability": "nonpayable",
      "type": "function"
    },
    {
      "constant": false,
      "inputs": [
        {
          "name": "underlying",
          "type": "uint32"
        }
      ],
      "name": "addUnderlyingAsset",
      "outputs": [],
      "payable": false,
      "stateMutability": "nonpayable",
      "type": "function"
    },
    {
      "constant": true,
      "inputs": [],
      "name": "getOracleAddress",
      "outputs": [
        {
          "name": "",
          "type": "address"
        }
      ],
      "payable": false,
      "stateMutability": "view",
      "type": "function"
    },
    {
      "constant": true,
      "inputs": [],
      "name": "getOptionInfoLength",
      "outputs": [
        {
          "name": "",
          "type": "uint256"
        }
      ],
      "payable": false,
      "stateMutability": "view",
      "type": "function"
    },
    {
      "constant": true,
      "inputs": [
        {
          "name": "begin",
          "type": "uint256"
        },
        {
          "name": "end",
          "type": "uint256"
        },
        {
          "name": "whiteList",
          "type": "address[]"
        }
      ],
      "name": "calculateExpiredPayment",
      "outputs": [
        {
          "name": "",
          "type": "int256[]"
        }
      ],
      "payable": false,
      "stateMutability": "view",
      "type": "function"
    },
    {
      "constant": false,
      "inputs": [
        {
          "name": "timeLimit",
          "type": "uint256"
        }
      ],
      "name": "setBurnTimeLimit",
      "outputs": [],
      "payable": false,
      "stateMutability": "nonpayable",
      "type": "function"
    },
    {
      "constant": false,
      "inputs": [
        {
          "name": "managerAddress",
          "type": "address"
        }
      ],
      "name": "setManager",
      "outputs": [],
      "payable": false,
      "stateMutability": "nonpayable",
      "type": "function"
    },
    {
      "constant": true,
      "inputs": [],
      "name": "getManager",
      "outputs": [
        {
          "name": "",
          "type": "address"
        }
      ],
      "payable": false,
      "stateMutability": "view",
      "type": "function"
    },
    {
      "constant": false,
      "inputs": [
        {
          "name": "removeUnderlying",
          "type": "uint32"
        }
      ],
      "name": "removeUnderlyingAssets",
      "outputs": [
        {
          "name": "",
          "type": "bool"
        }
      ],
      "payable": false,
      "stateMutability": "nonpayable",
      "type": "function"
    },
    {
      "constant": true,
      "inputs": [
        {
          "name": "underlying",
          "type": "uint32"
        }
      ],
      "name": "isEligibleUnderlyingAsset",
      "outputs": [
        {
          "name": "",
          "type": "bool"
        }
      ],
      "payable": false,
      "stateMutability": "view",
      "type": "function"
    },
    {
      "constant": false,
      "inputs": [
        {
          "name": "index",
          "type": "uint256"
        },
        {
          "name": "addAddress",
          "type": "address"
        }
      ],
      "name": "setOperator",
      "outputs": [],
      "payable": false,
      "stateMutability": "nonpayable",
      "type": "function"
    },
    {
      "constant": true,
      "inputs": [
        {
          "name": "user",
          "type": "address"
        }
      ],
      "name": "getUserOptionsID",
      "outputs": [
        {
          "name": "",
          "type": "uint256[]"
        }
      ],
      "payable": false,
      "stateMutability": "view",
      "type": "function"
    },
    {
      "constant": true,
      "inputs": [],
      "name": "getOperator",
      "outputs": [
        {
          "name": "",
          "type": "address[]"
        }
      ],
      "payable": false,
      "stateMutability": "view",
      "type": "function"
    },
    {
      "constant": true,
      "inputs": [
        {
          "name": "underlying",
          "type": "uint32"
        }
      ],
      "name": "checkUnderlyingAsset",
      "outputs": [],
      "payable": false,
      "stateMutability": "view",
      "type": "function"
    },
    {
      "constant": false,
      "inputs": [
        {
          "name": "newOwner",
          "type": "address"
        }
      ],
      "name": "transferOwnership",
      "outputs": [],
      "payable": false,
      "stateMutability": "nonpayable",
      "type": "function"
    },
    {
      "constant": false,
      "inputs": [],
      "name": "setOccupiedCollateral",
      "outputs": [],
      "payable": false,
      "stateMutability": "nonpayable",
      "type": "function"
    },
    {
      "constant": true,
      "inputs": [
        {
          "name": "user",
          "type": "address"
        },
        {
          "name": "from",
          "type": "uint256"
        },
        {
          "name": "size",
          "type": "uint256"
        }
      ],
      "name": "getUserOptionsID",
      "outputs": [
        {
          "name": "",
          "type": "uint256[]"
        }
      ],
      "payable": false,
      "stateMutability": "view",
      "type": "function"
    },
    {
      "inputs": [
        {
          "name": "oracleAddr",
          "type": "address"
        },
        {
          "name": "optionsPriceAddr",
          "type": "address"
        },
        {
          "name": "ivAddress",
          "type": "address"
        }
      ],
      "payable": false,
      "stateMutability": "nonpayable",
      "type": "constructor"
    },
    {
      "anonymous": false,
      "inputs": [
        {
          "indexed": true,
          "name": "owner",
          "type": "address"
        },
        {
          "indexed": true,
          "name": "optionID",
          "type": "uint256"
        },
        {
          "indexed": false,
          "name": "optType",
          "type": "uint8"
        },
        {
          "indexed": false,
          "name": "underlying",
          "type": "uint32"
        },
        {
          "indexed": false,
          "name": "expiration",
          "type": "uint256"
        },
        {
          "indexed": false,
          "name": "strikePrice",
          "type": "uint256"
        },
        {
          "indexed": false,
          "name": "amount",
          "type": "uint256"
        }
      ],
      "name": "CreateOption",
      "type": "event"
    },
    {
      "anonymous": false,
      "inputs": [
        {
          "indexed": true,
          "name": "owner",
          "type": "address"
        },
        {
          "indexed": true,
          "name": "optionID",
          "type": "uint256"
        },
        {
          "indexed": false,
          "name": "amount",
          "type": "uint256"
        }
      ],
      "name": "BurnOption",
      "type": "event"
    },
    {
      "anonymous": false,
      "inputs": [
        {
          "indexed": false,
          "name": "value1",
          "type": "uint256"
        },
        {
          "indexed": false,
          "name": "value2",
          "type": "uint256"
        },
        {
          "indexed": false,
          "name": "value3",
          "type": "uint256"
        }
      ],
      "name": "DebugEvent",
      "type": "event"
    },
    {
      "anonymous": false,
      "inputs": [
        {
          "indexed": true,
          "name": "previousOwner",
          "type": "address"
        },
        {
          "indexed": true,
          "name": "newOwner",
          "type": "address"
        }
      ],
      "name": "OwnershipTransferred",
      "type": "event"
    },
    {
      "constant": true,
      "inputs": [
        {
          "name": "whiteList",
          "type": "address[]"
        }
      ],
      "name": "getOptionCalRangeAll",
      "outputs": [
        {
          "name": "",
          "type": "uint256"
        },
        {
          "name": "",
          "type": "int256"
        },
        {
          "name": "",
          "type": "uint256"
        },
        {
          "name": "",
          "type": "int256[]"
        },
        {
          "name": "",
          "type": "uint256"
        },
        {
          "name": "",
          "type": "uint256"
        }
      ],
      "payable": false,
      "stateMutability": "view",
      "type": "function"
    },
    {
      "constant": false,
      "inputs": [
        {
          "name": "from",
          "type": "address"
        },
        {
          "name": "settlement",
          "type": "address"
        },
        {
          "name": "type_ly_exp",
          "type": "uint256"
        },
        {
          "name": "strikePrice",
          "type": "uint256"
        },
        {
          "name": "optionPrice",
          "type": "uint256"
        },
        {
          "name": "amount",
          "type": "uint256"
        }
      ],
      "name": "createOptions",
      "outputs": [],
      "payable": false,
      "stateMutability": "nonpayable",
      "type": "function"
    },
    {
      "constant": false,
      "inputs": [
        {
          "name": "from",
          "type": "address"
        },
        {
          "name": "id",
          "type": "uint256"
        },
        {
          "name": "amount",
          "type": "uint256"
        },
        {
          "name": "optionPrice",
          "type": "uint256"
        }
      ],
      "name": "burnOptions",
      "outputs": [],
      "payable": false,
      "stateMutability": "nonpayable",
      "type": "function"
    }
  ],
  "bytecode": "0x6080604052610e106009553480156200001757600080fd5b50604051606080620050d883398101604081815282516020840151919093015160008054600160a060020a031916331780825592939192600160a060020a0316917f8be0079c531659141344cd1fd0a4f28419497f9722a3daafe3b4186f6b6457e0908290a36040805160e0810182526201518081526203f480602082015262093a8091810191909152620d2f0060608201526213c680608082015262278d0060a08201526276a70060c0820152620000d590600890600762000308565b50604080518082019091526001808252600260208301819052620000fa92906200035f565b506200010f8364010000000062000140810204565b6200012382640100000000620001d2810204565b620001378164010000000062000264810204565b5050506200044f565b62000153640100000000620002f6810204565b1515620001b057604080517f08c379a00000000000000000000000000000000000000000000000000000000081526020600482018190526024820152600080516020620050b8833981519152604482015290519081900360640190fd5b60038054600160a060020a031916600160a060020a0392909216919091179055565b620001e5640100000000620002f6810204565b15156200024257604080517f08c379a00000000000000000000000000000000000000000000000000000000081526020600482018190526024820152600080516020620050b8833981519152604482015290519081900360640190fd5b600e8054600160a060020a031916600160a060020a0392909216919091179055565b62000277640100000000620002f6810204565b1515620002d457604080517f08c379a00000000000000000000000000000000000000000000000000000000081526020600482018190526024820152600080516020620050b8833981519152604482015290519081900360640190fd5b60048054600160a060020a031916600160a060020a0392909216919091179055565b600054600160a060020a031633145b90565b8280548282559060005260206000209081019282156200034d579160200282015b828111156200034d578251829062ffffff1690559160200191906001019062000329565b506200035b9291506200040e565b5090565b82805482825590600052602060002090600701600890048101928215620004005791602002820160005b83821115620003cc57835183826101000a81548163ffffffff021916908360ff160217905550926020019260040160208160030104928301926001030262000389565b8015620003fe5782816101000a81549063ffffffff0219169055600401602081600301049283019260010302620003cc565b505b506200035b9291506200042b565b6200030591905b808211156200035b576000815560010162000415565b6200030591905b808211156200035b57805463ffffffff1916815560010162000432565b614c59806200045f6000396000f3006080604052600436106102635763ffffffff60e060020a6000350416630438d490811461026857806309057622146103eb5780630c3725711461041957806312039cc2146104575780632415e010146104775780632967eafe1461050a57806332ab5c201461052b578063354af360146105f55780633582d7891461064a5780633ad2fb57146106af57806342e5479d146106d057806343674c3a1461070157806345e19fdd1461076557806348ee201d146107c15780634c69c00f146107d9578063597ce900146107fa5780635ca4b73b1461083857806364ed30171461084d57806367b8ceb9146108745780636a43c05e1461088f5780636d84e2e31461093f5780636ed82ec914610957578063715018a614610981578063723931ca1461099657806373a3d424146109ae5780637cfff2d8146109c35780637e1bcb76146109db5780637e838fa3146109fc5780638da5cb5b14610a285780638f32d59b14610a3d5780639052d5f814610a52578063924a69ce14610a675780639870d7fe14610a9a5780639a2a3a6014610abb5780639ef975d214610b87578063a093e2d014610b9f578063ac8a584a14610bc0578063afec82fc14610be1578063b18b78dd14610bff578063bec3107f14610c14578063c0c5fea714610c29578063c5acbe1514610c87578063d0ebdbe714610c9f578063d500958414610cc0578063d6d1401214610cd5578063db6ad2bd14610cf3578063e7a1c1c014610d11578063e7c5681514610d35578063e7f43c6814610d56578063ee29c94a14610d6b578063f2fde38b14610d89578063f504e2f014610daa578063f7de192314610dbf575b600080fd5b34801561027457600080fd5b50610283600435602435610de6565b60405180806020018060200180602001806020018060200186810386528b818151815260200191508051906020019060200280838360005b838110156102d35781810151838201526020016102bb565b5050505090500186810385528a818151815260200191508051906020019060200280838360005b838110156103125781810151838201526020016102fa565b50505050905001868103845289818151815260200191508051906020019060200280838360005b83811015610351578181015183820152602001610339565b50505050905001868103835288818151815260200191508051906020019060200280838360005b83811015610390578181015183820152602001610378565b50505050905001868103825287818151815260200191508051906020019060200280838360005b838110156103cf5781810151838201526020016103b7565b505050509050019a505050505050505050505060405180910390f35b3480156103f757600080fd5b50610400611030565b6040805192835260208301919091528051918290030190f35b34801561042557600080fd5b5061043760043560243560443561103a565b604080519384526020840192909252151582820152519081900360600190f35b34801561046357600080fd5b506104756004356024356044356110b5565b005b34801561048357600080fd5b5060408051602060046024803582810135848102808701860190975280865261047596843596369660449591949091019291829185019084908082843750506040805187358901803560208181028481018201909552818452989b9a99890198929750908201955093508392508501908490808284375094975061118c9650505050505050565b34801561051657600080fd5b50610475600160a060020a036004351661129a565b34801561053757600080fd5b50604080516064356004818101356020818102858101820190965281855261058f9583359560248035966044359636969095608495929093019290918291850190849080828437509497506113089650505050505050565b604051808060200184815260200183151515158152602001828103825285818151815260200191508051906020019060200280838360005b838110156105df5781810151838201526020016105c7565b5050505090500194505050505060405180910390f35b34801561060157600080fd5b5060408051602060048035808201358381028086018501909652808552610283953695939460249493850192918291850190849080828437509497506113929650505050505050565b34801561065657600080fd5b5061065f6115ab565b60408051602080825283518183015283519192839290830191858101910280838360005b8381101561069b578181015183820152602001610683565b505050509050019250505060405180910390f35b3480156106bb57600080fd5b5061047560043563ffffffff60243516611630565b3480156106dc57600080fd5b506106e561169c565b60408051600160a060020a039092168252519081900360200190f35b34801561070d57600080fd5b50604080516064356004818101356020818102858101820190965281855261065f9583359560248035966044359636969095608495929093019290918291850190849080828437509497506116ab9650505050505050565b34801561077157600080fd5b5061077a611835565b60408051978852600160a060020a03909616602088015260ff9094168686015263ffffffff9092166060860152608085015260a084015260c0830152519081900360e00190f35b3480156107cd57600080fd5b5061077a600435611920565b3480156107e557600080fd5b50610475600160a060020a0360043516611994565b34801561080657600080fd5b50610815600435602435611a02565b60408051600160a060020a03909316835260208301919091528051918290030190f35b34801561084457600080fd5b506106e5611a72565b34801561085957600080fd5b50610862611a81565b60408051918252519081900360200190f35b34801561088057600080fd5b50610862600435602435611a87565b34801561089b57600080fd5b50604080516020600480358082013583810280860185019096528085526108e495369593946024949385019291829185019084908082843750949750611c079650505050505050565b6040518083815260200180602001828103825283818151815260200191508051906020019060200280838360005b8381101561092a578181015183820152602001610912565b50505050905001935050505060405180910390f35b34801561094b57600080fd5b50610862600435611cba565b34801561096357600080fd5b50610475600160a060020a0360043516602435604435606435611d41565b34801561098d57600080fd5b50610475611f0b565b3480156109a257600080fd5b50610475600435611fa1565b3480156109ba57600080fd5b50610862612029565b3480156109cf57600080fd5b5061047560043561207b565b3480156109e757600080fd5b50610862600160a060020a03600435166120d2565b348015610a0857600080fd5b50610a146004356120ed565b604080519115158252519081900360200190f35b348015610a3457600080fd5b506106e561214c565b348015610a4957600080fd5b50610a1461215b565b348015610a5e57600080fd5b5061065f61216c565b348015610a7357600080fd5b50610475600160a060020a036004358116906024351660443560643560843560a4356121c3565b348015610aa657600080fd5b50610475600160a060020a03600435166122f4565b348015610ac757600080fd5b5060408051602060048035808201358381028086018501909652808552610b109536959394602494938501929182918501908490808284375094975061234b9650505050505050565b6040518087815260200186815260200185815260200180602001848152602001838152602001828103825285818151815260200191508051906020019060200280838360005b83811015610b6e578181015183820152602001610b56565b5050505090500197505050505050505060405180910390f35b348015610b9357600080fd5b50610a1460043561238c565b348015610bab57600080fd5b50610475600160a060020a03600435166123e8565b348015610bcc57600080fd5b50610a14600160a060020a0360043516612456565b348015610bed57600080fd5b5061047563ffffffff600435166124af565b348015610c0b57600080fd5b506106e5612506565b348015610c2057600080fd5b50610862612515565b348015610c3557600080fd5b50604080516020600460443581810135838102808601850190965280855261065f95833595602480359636969560649593949201929182918501908490808284375094975061251b9650505050505050565b348015610c9357600080fd5b50610475600435612616565b348015610cab57600080fd5b50610475600160a060020a0360043516612667565b348015610ccc57600080fd5b506106e56126d5565b348015610ce157600080fd5b50610a1463ffffffff600435166126e4565b348015610cff57600080fd5b50610a1463ffffffff6004351661273d565b348015610d1d57600080fd5b50610475600435600160a060020a03602435166127c5565b348015610d4157600080fd5b5061065f600160a060020a0360043516612853565b348015610d6257600080fd5b5061065f6128bf565b348015610d7757600080fd5b5061047563ffffffff60043516612920565b348015610d9557600080fd5b50610475600160a060020a03600435166129a6565b348015610db657600080fd5b506104756129fb565b348015610dcb57600080fd5b5061065f600160a060020a0360043516602435604435612af0565b6060806060806060806060806060806000806005805490508d8f011115610e1d57600554610e1a908f63ffffffff612bd716565b9c505b60008d111561101f578c604051908082528060200260200182016040528015610e50578160200160208202803883390190505b5096508c604051908082528060200260200182016040528015610e7d578160200160208202803883390190505b5095508c604051908082528060200260200182016040528015610eaa578160200160208202803883390190505b5094508c604051908082528060200260200182016040528015610ed7578160200160208202803883390190505b5093508c604051908082528060200260200182016040528015610f04578160200160208202803883390190505b509250600091505b8c82101561100f57600580548f8401908110610f2457fe5b906000526020600020906005020190508060000160089054906101000a9004600160a060020a03168783815181101515610f5a57fe5b600160a060020a03929092166020928302919091019091015280546001820154875160e060020a90920460ff1663ffffffff9182166201000002011690879084908110610fa357fe5b6020908102909101015260028101548551869084908110610fc057fe5b6020908102909101015260038101548451859084908110610fdd57fe5b6020908102909101015260048101548351849084908110610ffa57fe5b60209081029091010152600190910190610f0c565b86868686869b509b509b509b509b505b505050505050509295509295909350565b600b54600d549091565b6000806000806000600b5487101561105257600b5496505b87871061106857600094508493508392506110aa565b8786111561107857879550611091565b600b5486101561109157600094508493508392506110aa565b61109b8787612c20565b91509150818160019450945094505b505093509350939050565b600a54600090811080156110ec5750600a8054339190839081106110d557fe5b600091825260209091200154600160a060020a0316145b1515611168576040805160e560020a62461bcd02815260206004820152603060248201527f4d616e6167657261626c653a2063616c6c6572206973206e6f7420746865206560448201527f6c696769626c65204f70657261746f7200000000000000000000000000000000606482015290519081900360840190fd5b600b5483111561117857600b8390555b50600c9290925550600d8054919091039055565b6002546000908190600160a060020a03163314611219576040805160e560020a62461bcd02815260206004820152602660248201527f4d616e6167657261626c653a2063616c6c6572206973206e6f7420746865204d60448201527f616e616765720000000000000000000000000000000000000000000000000000606482015290519081900360840190fd5b600f5485111561122957600f8590555b5050805160005b8181101561129357838181518110151561124657fe5b9060200190602002015160106000858481518110151561126257fe5b6020908102909101810151600160a060020a0316825281019190915260400160002080549091019055600101611230565b5050505050565b6112a261215b565b15156112e6576040805160e560020a62461bcd0281526020600482018190526024820152600080516020614c0e833981519152604482015290519081900360640190fd5b60048054600160a060020a031916600160a060020a0392909216919091179055565b60606000806060600088881015806113215750600f5487105b15611360578551604051908082528060200260200182016040528015611351578160200160208202803883390190505b50945060009350839250611386565b8887111561136c578896505b611377888888612d5e565b91509150818160019450945094505b50509450945094915050565b6060806060806060600060608060608060606000808d519750876040519080825280602002602001820160405280156113d5578160200160208202803883390190505b50965087604051908082528060200260200182016040528015611402578160200160208202803883390190505b5095508760405190808252806020026020018201604052801561142f578160200160208202803883390190505b5094508760405190808252806020026020018201604052801561145c578160200160208202803883390190505b50935087604051908082528060200260200182016040528015611489578160200160208202803883390190505b509250600091505b87821015611597576114b98e838151811015156114aa57fe5b90602001906020020151612ece565b80548851919250680100000000000000009004600160a060020a0316908890849081106114e257fe5b600160a060020a03929092166020928302919091019091015280546001820154875160e060020a90920460ff1663ffffffff918216620100000201169087908490811061152b57fe5b602090810290910101526002810154855186908490811061154857fe5b602090810290910101526003810154845185908490811061156557fe5b602090810290910101526004810154835184908490811061158257fe5b60209081029091010152600190910190611491565b50949c939b50919950975095509350505050565b6060600180548060200260200160405190810160405280929190818152602001828054801561162557602002820191906000526020600020906000905b82829054906101000a900463ffffffff1663ffffffff16815260200190600401906020826003010492830192600103820291508084116115e85790505b505050505090505b90565b6116398161273d565b151561168f576040805160e560020a62461bcd02815260206004820152601f60248201527f756e6465726c79696e6720697320756e737570706f7274656420617373657400604482015290519081900360640190fd5b61169882611fa1565b5050565b600454600160a060020a031690565b606080606060008088881015806116c35750600f5487105b156116fb5785516040519080825280602002602001820160405280156116f3578160200160208202803883390190505b509450611829565b88871115611707578896505b600f54881161171657600f5497505b61171e612f5e565b935061172c8888888761307f565b925085519150600090505b81811015611825576003548651600160a060020a03909116906341976e099088908490811061176257fe5b906020019060200201516040518263ffffffff1660e060020a0281526004018082600160a060020a0316600160a060020a03168152602001915050602060405180830381600087803b1580156117b757600080fd5b505af11580156117cb573d6000803e3d6000fd5b505050506040513d60208110156117e157600080fd5b505183518490839081106117f157fe5b9060200190602002015181151561180457fe5b05838281518110151561181357fe5b60209081029091010152600101611737565b8294505b50505050949350505050565b6005546000908190819081908190819081908180821161189f576040805160e560020a62461bcd02815260206004820152601560248201527f6f7074696f6e73206c69737420697320656d7074790000000000000000000000604482015290519081900360640190fd5b6005805460001984019081106118b157fe5b60009182526020909120600590910201805460018201546002830154600384015460049094015467ffffffffffffffff84169e680100000000000000008504600160a060020a03169e5060e060020a90940460ff169c5063ffffffff9092169a50985091965090945092505050565b60008060008060008060008061193589612ece565b805460018201546002830154600384015460049094015467ffffffffffffffff84169e680100000000000000008504600160a060020a03169e5060e060020a90940460ff169c5063ffffffff9092169a50985091965090945092505050565b61199c61215b565b15156119e0576040805160e560020a62461bcd0281526020600482018190526024820152600080516020614c0e833981519152604482015290519081900360640190fd5b60038054600160a060020a031916600160a060020a0392909216919091179055565b60001982016000908152600660205260408120600181015460028201546004830154849392600160a060020a031691670de0b6b3a764000091611a5c918891611a509163ffffffff61322716565b9063ffffffff61322716565b811515611a6557fe5b0492509250509250929050565b600e54600160a060020a031690565b60095490565b6000611a91614b5e565b600080611a9d86612ece565b6040805160e081018252825467ffffffffffffffff81168252680100000000000000008104600160a060020a0316602083015260e060020a900460ff1691810191909152600182015463ffffffff16606082015260028201546080820152600382015460a082015260049091015460c08201529250611b1b836132c6565b611b258386613321565b6003546060840151604080517fda66325700000000000000000000000000000000000000000000000000000000815263ffffffff909216600483015251600160a060020a039092169163da663257916024808201926020929091908290030181600087803b158015611b9657600080fd5b505af1158015611baa573d6000803e3d6000fd5b505050506040513d6020811015611bc057600080fd5b5051604084015160a0850151919350611bd9918461337d565b9050801515611beb5760009350611bfe565b611bfb818663ffffffff61322716565b93505b50505092915050565b600060606000606060008551925082604051908082528060200260200182016040528015611c3f578160200160208202803883390190505b509150600090505b82811015611cac57601060008783815181101515611c6157fe5b90602001906020020151600160a060020a0316600160a060020a03168152602001908152602001600020548282815181101515611c9a57fe5b60209081029091010152600101611c47565b50600f549590945092505050565b60008082118015611ccd57506005548211155b1515611d23576040805160e560020a62461bcd02815260206004820152601660248201527f6f7074696f6e206964206973206e6f7420657869737400000000000000000000604482015290519081900360640190fd5b50600954600019820160009081526006602052604090205401919050565b611d49614b5e565b600254600090600160a060020a03163314611dd4576040805160e560020a62461bcd02815260206004820152602660248201527f4d616e6167657261626c653a2063616c6c6572206973206e6f7420746865204d60448201527f616e616765720000000000000000000000000000000000000000000000000000606482015290519081900360840190fd5b611ddf8686866133b2565b611de885612ece565b6040805160e081018252825467ffffffffffffffff81168252680100000000000000008104600160a060020a0390811660208085019190915260e060020a90920460ff1683850152600185015463ffffffff16606084018190526002860154608085015260038087015460a086015260049687015460c08601525485517fda663257000000000000000000000000000000000000000000000000000000008152968701919091529351929650929092169263da6632579260248083019391928290030181600087803b158015611ebd57600080fd5b505af1158015611ed1573d6000803e3d6000fd5b505050506040513d6020811015611ee757600080fd5b50519050611ef6828583613599565b611f02828583866135d1565b50505050505050565b611f1361215b565b1515611f57576040805160e560020a62461bcd0281526020600482018190526024820152600080516020614c0e833981519152604482015290519081900360640190fd5b60008054604051600160a060020a03909116907f8be0079c531659141344cd1fd0a4f28419497f9722a3daafe3b4186f6b6457e0908390a360008054600160a060020a0319169055565b611faa8161238c565b1515612026576040805160e560020a62461bcd02815260206004820152602160248201527f65787069726174696f6e2076616c7565206973206e6f7420737570706f72746560448201527f6400000000000000000000000000000000000000000000000000000000000000606482015290519081900360840190fd5b50565b6000806000600d5412151561205457600d54600c5461204d9163ffffffff61372e16565b9150612077565b600d54600003905080600c5411156120725780600c54039150612077565b600091505b5090565b61208361215b565b15156120c7576040805160e560020a62461bcd0281526020600482018190526024820152600080516020614c0e833981519152604482015290519081900360640190fd5b61202660088261378b565b600160a060020a031660009081526010602052604090205490565b60006120f761215b565b151561213b576040805160e560020a62461bcd0281526020600482018190526024820152600080516020614c0e833981519152604482015290519081900360640190fd5b612146600883613802565b92915050565b600054600160a060020a031690565b600054600160a060020a0316331490565b6060600880548060200260200160405190810160405280929190818152602001828054801561162557602002820191906000526020600020905b8154815260200190600101908083116121a6575050505050905090565b6121cb614b5e565b600254600160a060020a03163314612253576040805160e560020a62461bcd02815260206004820152602660248201527f4d616e6167657261626c653a2063616c6c6572206973206e6f7420746865204d60448201527f616e616765720000000000000000000000000000000000000000000000000000606482015290519081900360840190fd5b6122618787878787876138af565b60055461226d90612ece565b6040805160e081018252825467ffffffffffffffff81168252680100000000000000008104600160a060020a0316602083015260e060020a900460ff1691810191909152600182015463ffffffff16606082015260028201546080820152600382015460a082015260049091015460c082015290506122eb81613b6f565b611f0281613bbe565b6122fc61215b565b1515612340576040805160e560020a62461bcd0281526020600482018190526024820152600080516020614c0e833981519152604482015290519081900360640190fd5b612026600a82613cf3565b6000806000606060008060008060006060612364611030565b935093506123718b611c07565b600554959d949c50909a509850929650439550909350505050565b600061214660088054806020026020016040519081016040528092919081815260200182805480156123dd57602002820191906000526020600020905b8154815260200190600101908083116123c9575b505050505083613d8d565b6123f061215b565b1515612434576040805160e560020a62461bcd0281526020600482018190526024820152600080516020614c0e833981519152604482015290519081900360640190fd5b600e8054600160a060020a031916600160a060020a0392909216919091179055565b600061246061215b565b15156124a4576040805160e560020a62461bcd0281526020600482018190526024820152600080516020614c0e833981519152604482015290519081900360640190fd5b612146600a83613dcc565b6124b761215b565b15156124fb576040805160e560020a62461bcd0281526020600482018190526024820152600080516020614c0e833981519152604482015290519081900360640190fd5b612026600182613ea3565b600354600160a060020a031690565b60055490565b606080600080600080865160405190808252806020026020018201604052801561254f578160200160208202803883390190505b5094505b8789101561260957600580548a90811061256957fe5b906000526020600020906005020193506000846004015411156125fe57600089815260066020526040902060018101549093506125b0908890600160a060020a0316613f6c565b60048501546002850154919350670de0b6b3a764000091020490508085838151811015156125da57fe5b906020019060200201510185838151811015156125f357fe5b602090810290910101525b600190980197612553565b5092979650505050505050565b61261e61215b565b1515612662576040805160e560020a62461bcd0281526020600482018190526024820152600080516020614c0e833981519152604482015290519081900360640190fd5b600955565b61266f61215b565b15156126b3576040805160e560020a62461bcd0281526020600482018190526024820152600080516020614c0e833981519152604482015290519081900360640190fd5b60028054600160a060020a031916600160a060020a0392909216919091179055565b600254600160a060020a031690565b60006126ee61215b565b1515612732576040805160e560020a62461bcd0281526020600482018190526024820152600080516020614c0e833981519152604482015290519081900360640190fd5b612146600183613fb9565b600061214660018054806020026020016040519081016040528092919081815260200182805480156127ba57602002820191906000526020600020906000905b82829054906101000a900463ffffffff1663ffffffff168152602001906004019060208260030104928301926001038202915080841161277d5790505b5050505050836140b0565b6127cd61215b565b1515612811576040805160e560020a62461bcd0281526020600482018190526024820152600080516020614c0e833981519152604482015290519081900360640190fd5b80600a8381548110151561282157fe5b9060005260206000200160006101000a815481600160a060020a030219169083600160a060020a031602179055505050565b600160a060020a0381166000908152600760209081526040918290208054835181840281018401909452808452606093928301828280156128b357602002820191906000526020600020905b81548152602001906001019080831161289f575b50505050509050919050565b6060600a80548060200260200160405190810160405280929190818152602001828054801561162557602002820191906000526020600020905b8154600160a060020a031681526001909101906020018083116128f9575050505050905090565b612026600180548060200260200160405190810160405280929190818152602001828054801561299b57602002820191906000526020600020906000905b82829054906101000a900463ffffffff1663ffffffff168152602001906004019060208260030104928301926001038202915080841161295e5790505b5050505050826140fb565b6129ae61215b565b15156129f2576040805160e560020a62461bcd0281526020600482018190526024820152600080516020614c0e833981519152604482015290519081900360640190fd5b6120268161415b565b60008060008060008080600a80549050118015612a3b5750600a805433919083908110612a2457fe5b600091825260209091200154600160a060020a0316145b1515612ab7576040805160e560020a62461bcd02815260206004820152603060248201527f4d616e6167657261626c653a2063616c6c6572206973206e6f7420746865206560448201527f6c696769626c65204f70657261746f7200000000000000000000000000000000606482015290519081900360840190fd5b600d5495506005805490509450612ad185600b548761103a565b9350935093508115612ae857612ae88484886110b5565b505050505050565b606080600083604051908082528060200260200182016040528015612b1f578160200160208202803883390190505b50600160a060020a0387166000908152600760205260409020549092508585011115612b7157600160a060020a038616600090815260076020526040902054612b6e908663ffffffff612bd716565b93505b5060005b83811015612bce57600160a060020a03861660009081526007602052604090208054868301908110612ba357fe5b90600052602060002001548282815181101515612bbc57fe5b60209081029091010152600101612b75565b50949350505050565b6000612c1983836040805190810160405280601e81526020017f536166654d6174683a207375627472616374696f6e206f766572666c6f77000081525061423c565b9392505050565b600080600060606000806000612c3989600b548a6142df565b9099509450612c46612f5e565b9350600092505b87891015612d4f57612c8660058a815481101515612c6757fe5b600091825260209091206001600590920201015463ffffffff16614360565b9150612d3e60058a815481101515612c9a57fe5b60009182526020918290206040805160e081018252600593909302909101805467ffffffffffffffff81168452680100000000000000008104600160a060020a03169484019490945260e060020a90930460ff1690820152600182015463ffffffff16606082015260028201546080820152600382015460a082015260049091015460c08201528551869085908110612d2f57fe5b906020019060200201516143e8565b600190990198928301929050612c4d565b50909792965091945050505050565b60606000606060008060008060008851604051908082528060200260200182016040528015612d97578160200160208202803883390190505b509550612da78b600f548c6142df565b909b5094505b898b1015612ebd57600580548c908110612dc357fe5b90600052602060002090600502019350600660008c81526020019081526020016000209250612e1b8360030154856003015486600201548660050154876006015489600001601c9054906101000a900460ff16614429565b91508260040154821015612eb2576004830154600184015492900391612e4b908a90600160a060020a0316613f6c565b9050670de0b6b3a7640000612e7385600401548402856002015461322790919063ffffffff16565b811515612e7c57fe5b049150818682815181101515612e8e57fe5b90602001906020020151018682815181101515612ea757fe5b602090810290910101525b6001909a0199612dad565b509399929850919650505050505050565b60008082118015612ee157506005548211155b1515612f37576040805160e560020a62461bcd02815260206004820152601660248201527f6f7074696f6e206964206973206e6f7420657869737400000000000000000000604482015290519081900360640190fd5b600580546000198401908110612f4957fe5b90600052602060002090600502019050919050565b600154604080518281526020808402820101909152606091908290600090838015612f93578160200160208202803883390190505b509150600090505b828110156130785760035460018054600160a060020a039092169163da663257919084908110612fc757fe5b90600052602060002090600891828204019190066004029054906101000a900463ffffffff166040518263ffffffff1660e060020a028152600401808263ffffffff168152602001915050602060405180830381600087803b15801561302c57600080fd5b505af1158015613040573d6000803e3d6000fd5b505050506040513d602081101561305657600080fd5b5051825183908390811061306657fe5b60209081029091010152600101612f9b565b5092915050565b60608060008060008087516040519080825280602002602001820160405280156130b3578160200160208202803883390190505b5094505b888a101561321957600580548b9081106130cd57fe5b9060005260206000209060050201935042846002015410806130f157506004840154155b156130fb5761320e565b600184015461310f9063ffffffff16614360565b6040805160e081018252865467ffffffffffffffff81168252680100000000000000008104600160a060020a0316602083015260e060020a900460ff1691810191909152600186015463ffffffff16606082015260028601546080820152600386015460a0820152600486015460c0820181905289519293506131a7928a908590811061319857fe5b90602001906020020151614501565b9250821561320e5760008a815260066020526040902060018101549092506131d9908990600160a060020a0316613f6c565b90508285828151811015156131ea57fe5b9060200190602002015103858281518110151561320357fe5b602090810290910101525b6001909901986130b7565b509298975050505050505050565b60008083151561323a5760009150613078565b5082820282848281151561324a57fe5b0414612c19576040805160e560020a62461bcd02815260206004820152602160248201527f536166654d6174683a206d756c7469706c69636174696f6e206f766572666c6f60448201527f7700000000000000000000000000000000000000000000000000000000000000606482015290519081900360840190fd5b60808101514210612026576040805160e560020a62461bcd02815260206004820152601160248201527f6f7074696f6e2069732065787069726564000000000000000000000000000000604482015290519081900360640190fd5b60c0820151811115611698576040805160e560020a62461bcd02815260206004820152601d60248201527f6f7074696f6e20616d6f756e7420697320696e73756666696369656e74000000604482015290519081900360640190fd5b600060ff841615828411141561339557506000612c19565b60ff8416156133a6578183036133aa565b8282035b949350505050565b60006133bd83612ece565b6040805160e081018252825467ffffffffffffffff81168252680100000000000000008104600160a060020a0316602083015260e060020a900460ff1691810191909152600182015463ffffffff16606082015260028201546080820152600382015460a0820152600482015460c082015290915061343b906132c6565b80546134509067ffffffffffffffff16614538565b6040805160e081018252825467ffffffffffffffff81168252680100000000000000008104600160a060020a0316602083015260e060020a900460ff1691810191909152600182015463ffffffff16606082015260028201546080820152600382015460a0820152600482015460c08201526134cc90856145cd565b6040805160e081018252825467ffffffffffffffff81168252680100000000000000008104600160a060020a0316602083015260e060020a900460ff1691810191909152600182015463ffffffff16606082015260028201546080820152600382015460a0820152600482015460c08201526135489083613321565b60048101805483900390556040805183815290518491600160a060020a038716917f1fb99acdc281bccbecb3d0073a307341181a8a7d3cd532fdaef5ce7200401c2d9181900360200190a350505050565b60006135b283611a5086604001518760a001518661463c565b600d549091506135c8908263ffffffff61465a16565b600d5550505050565b60008060008060006135e4898989614501565b89516000190167ffffffffffffffff166000908152600660205260409020600481015491955093508610613619576000613621565b858360040154035b9150670de0b6b3a7640000613645898402856002015461322790919063ffffffff16565b81151561364e57fe5b6003546001860154604080517f41976e09000000000000000000000000000000000000000000000000000000008152600160a060020a039283166004820152905194909304955016916341976e09916024808201926020929091908290030181600087803b1580156136bf57600080fd5b505af11580156136d3573d6000803e3d6000fd5b505050506040513d60208110156136e957600080fd5b5051848115156136f557fe5b600190940154600160a060020a031660009081526010602052604090208054919094049290920391909101909155509095945050505050565b600082820183811015612c19576040805160e560020a62461bcd02815260206004820152601b60248201527f536166654d6174683a206164646974696f6e206f766572666c6f770000000000604482015290519081900360640190fd5b6137e4828054806020026020016040519081016040528092919081815260200182805480156137d957602002820191906000526020600020905b8154815260200190600101908083116137c5575b505050505082613d8d565b15156116985781546001810183556000928352602090922090910155565b8154600090815b8181101561383e5783858281548110151561382057fe5b906000526020600020015414156138365761383e565b600101613809565b818110156138a2576000198201811461388857846001830381548110151561386257fe5b9060005260206000200154858281548110151561387b57fe5b6000918252602090912001555b8454613898866000198301614b9a565b50600192506138a7565b600092505b505092915050565b60008060006138bc614b5e565b60055493506138ca8861469f565b92506138d5886146ac565b9150600560e0604051908101604052808660010167ffffffffffffffff1681526020018c600160a060020a031681526020018560ff1681526020018463ffffffff168152602001426139268c6146c5565b01815260208082018b905260409182018990528354600180820186556000958652828620855160059384029091018054878601518888015167ffffffffffffffff1990921667ffffffffffffffff909416939093177fffffffff0000000000000000000000000000000000000000ffffffffffffffff1668010000000000000000600160a060020a0394851602177fffffff00ffffffffffffffffffffffffffffffffffffffffffffffffffffffff1660e060020a60ff909216919091021781556060870151818401805463ffffffff191663ffffffff9092169190911790556080870151600282015560a0870151600382015560c090960151600490960195909555938f168552600782529184208054808501825590855293209187019190920155805485908110613a5557fe5b60009182526020918290206040805160e081018252600593909302909101805467ffffffffffffffff81168452680100000000000000008104600160a060020a03169484019490945260e060020a90930460ff1690820152600182015463ffffffff908116606083015260028301546080830152600383015460a083015260049092015460c08201529150613af39082908b9089908b9087166146e6565b836001018a600160a060020a03167f18f523957030bee670136363e25b2f847bf1bd07bb7b33c6d5475936a9aac70d858542613b2e8e6146c5565b6040805160ff909516855263ffffffff90931660208501520182820152606082018c9052608082018a9052519081900360a00190a350505050505050505050565b80516000190167ffffffffffffffff1660009081526006602052604081206003810154909190613ba09084906143e8565b600d54909150613bb6908263ffffffff6149a916565b600d55505050565b80516000190167ffffffffffffffff166000908152600660209081526040808320600354600182015483517f41976e09000000000000000000000000000000000000000000000000000000008152600160a060020a0391821660048201529351929594859491909216926341976e099260248084019391929182900301818787803b158015613c4c57600080fd5b505af1158015613c60573d6000803e3d6000fd5b505050506040513d6020811015613c7657600080fd5b505160c085015160038501549193508391613c92918791614501565b811515613c9b57fe5b6001850154600160a060020a03166000908152601060205260409020549190049150613ccd908263ffffffff61465a16565b600190930154600160a060020a0316600090815260106020526040902092909255505050565b613d5682805480602002602001604051908101604052809291908181526020018280548015613d4b57602002820191906000526020600020905b8154600160a060020a03168152600190910190602001808311613d2d575b5050505050826149eb565b1515611698578154600181018355600083815260209020018054600160a060020a038316600160a060020a03199091161790555050565b8151600090815b818110156138a257838582815181101515613dab57fe5b906020019060200201511415613dc457600192506138a7565b600101613d94565b8154600090815b81811015613e1b5783600160a060020a03168582815481101515613df357fe5b600091825260209091200154600160a060020a03161415613e1357613e1b565b600101613dd3565b818110156138a25760001982018114613888578460018303815481101515613e3f57fe5b6000918252602090912001548554600160a060020a0390911690869083908110613e6557fe5b9060005260206000200160006101000a815481600160a060020a030219169083600160a060020a031602179055508454613898866000198301614b9a565b613f2882805480602002602001604051908101604052809291908181526020018280548015613f1d57602002820191906000526020600020906000905b82829054906101000a900463ffffffff1663ffffffff1681526020019060040190602082600301049283019260010382029150808411613ee05790505b5050505050826140b0565b1515611698578154600181018355600092835260209092206008830401805460079093166004026101000a63ffffffff818102199094169290931692909202179055565b8151600090815b818110156133aa5783600160a060020a03168582815181101515613f9357fe5b90602001906020020151600160a060020a03161415613fb1576133aa565b600101613f73565b8154600090815b81811015614014578363ffffffff168582815481101515613fdd57fe5b6000918252602090912060088204015460079091166004026101000a900463ffffffff16141561400c57614014565b600101613fc0565b818110156138a257600019820181146140a057846001830381548110151561403857fe5b90600052602060002090600891828204019190066004029054906101000a900463ffffffff16858281548110151561406c57fe5b90600052602060002090600891828204019190066004026101000a81548163ffffffff021916908363ffffffff1602179055505b8454613898866000198301614bc3565b8151600090815b818110156138a2578363ffffffff1685828151811015156140d457fe5b9060200190602002015163ffffffff1614156140f357600192506138a7565b6001016140b7565b61410582826140b0565b1515611698576040805160e560020a62461bcd02815260206004820152601f60248201527f77686974654c6973743a207573696e6720696e76616c69642075696e74333200604482015290519081900360640190fd5b600160a060020a03811615156141e1576040805160e560020a62461bcd02815260206004820152602660248201527f4f776e61626c653a206e6577206f776e657220697320746865207a65726f206160448201527f6464726573730000000000000000000000000000000000000000000000000000606482015290519081900360840190fd5b60008054604051600160a060020a03808516939216917f8be0079c531659141344cd1fd0a4f28419497f9722a3daafe3b4186f6b6457e091a360008054600160a060020a031916600160a060020a0392909216919091179055565b60008082858511156142cf5760405160e560020a62461bcd0281526004018080602001828103825283818151815260200191508051906020019080838360005b8381101561429457818101518382015260200161427c565b50505050905090810190601f1680156142c15780820380516001836020036101000a031916815260200191505b509250505060405180910390fd5b505050818303805b509392505050565b6000808381818711156142f757868293509350614356565b8196505b8487101561434f57600580548890811061431157fe5b90600052602060002090600502019050428160020154108061433557506004810154155b1561433f57614344565b61434f565b6001909601956142fb565b8687935093505b5050935093915050565b600061214660018054806020026020016040519081016040528092919081815260200182805480156143dd57602002820191906000526020600020906000905b82829054906101000a900463ffffffff1663ffffffff16815260200190600401906020826003010492830192600103820291508084116143a05790505b505050505083614a3c565b600080428460800151111580614400575060c0840151155b1561440e5760009150613078565b6133aa8460c00151611a5086604001518760a001518761463c565b6000428511156144f357600e54604080517f055ef6ab000000000000000000000000000000000000000000000000000000008152600481018a9052602481018990524288036044820152606481018790526084810186905260ff851660a48201529051600160a060020a039092169163055ef6ab9160c4808201926020929091908290030181600087803b1580156144c057600080fd5b505af11580156144d4573d6000803e3d6000fd5b505050506040513d60208110156144ea57600080fd5b505190506144f7565b5060005b9695505050505050565b6000428460800151111580614514575082155b1561452157506000612c19565b6133aa83611a5086604001518760a001518661337d565b600954600019820160009081526006602052604090205442910110612026576040805160e560020a62461bcd02815260206004820152602560248201527f6f7074696f6e206c6f636b206c696d69746174696f6e206973206e6f7420657860448201527f7069726564000000000000000000000000000000000000000000000000000000606482015290519081900360840190fd5b80600160a060020a03168260200151600160a060020a0316141515611698576040805160e560020a62461bcd02815260206004820152601f60248201527f63616c6c6572206973206e6f7420746865206f7074696f6e73206f776e657200604482015290519081900360640190fd5b600060ff8416158284111415614653575081612c19565b5080612c19565b6000612c1983836000036040805190810160405280601e81526020017f536166654d6174683a207375627472616374696f6e206f766572666c6f770000815250614a83565b67ffffffffffffffff1690565b68010000000000000000900467ffffffffffffffff1690565b700100000000000000000000000000000000900467ffffffffffffffff1690565b6000806000806000600360009054906101000a9004600160a060020a0316600160a060020a031663da663257876040518263ffffffff1660e060020a02815260040180828152602001915050602060405180830381600087803b15801561474c57600080fd5b505af1158015614760573d6000803e3d6000fd5b505050506040513d602081101561477657600080fd5b81019080805190602001909291905050509450428a60800151039350600460009054906101000a9004600160a060020a0316600160a060020a031663185d12328b606001518c6040015187898c6040518663ffffffff1660e060020a028152600401808663ffffffff1663ffffffff1681526020018560ff1660ff168152602001848152602001838152602001828152602001955050505050506040805180830381600087803b15801561482957600080fd5b505af115801561483d573d6000803e3d6000fd5b505050506040513d604081101561485357600080fd5b508051602091820151600354604080517f41976e09000000000000000000000000000000000000000000000000000000008152600160a060020a038f81166004830152915194985092965016926341976e09926024808401938290030181600087803b1580156148c257600080fd5b505af11580156148d6573d6000803e3d6000fd5b505050506040513d60208110156148ec57600080fd5b5051670de0b6b3a764000081151561490057fe5b6040805160e081018252428152600160a060020a039c8d1660208083019182529490930481830190815260608201998a52608082019c8d5260a0820197885260c082019687529d516000190167ffffffffffffffff16600090815260069485905291909120905181559051600182018054600160a060020a03191691909c1617909a55995160028a01555092516003880155945160048701555092516005850155505051910155565b6000612c1983836040805190810160405280601d81526020017f53616665496e743235363a206164646974696f6e206f766572666c6f77000000815250614a83565b8151600090815b818110156138a25783600160a060020a03168582815181101515614a1257fe5b90602001906020020151600160a060020a03161415614a3457600192506138a7565b6001016149f2565b8151600090815b818110156133aa578363ffffffff168582815181101515614a6057fe5b9060200190602002015163ffffffff161415614a7b576133aa565b600101614a43565b600080808512158185121514614a9d5783850191506142d7565b60008512614b0657508383018285821215614afd5760405160e560020a62461bcd0281526004018080602001828103825283818151815260200191508051906020019080838360008381101561429457818101518382015260200161427c565b508091506142d7565b508383018285821315614afd5760405160e560020a62461bcd0281526004018080602001828103825283818151815260200191508051906020019080838360008381101561429457818101518382015260200161427c565b6040805160e081018252600080825260208201819052918101829052606081018290526080810182905260a0810182905260c081019190915290565b815481835581811115614bbe57600083815260209020614bbe918101908301614bf3565b505050565b815481835581811115614bbe576007016008900481600701600890048360005260206000209182019101614bbe91905b61162d91905b808211156120775760008155600101614bf956004f776e61626c653a2063616c6c6572206973206e6f7420746865206f776e6572a165627a7a7230582098b7dab2fb91d1b2257dea0331cd8d59ce0bd25bf7963cf48607ed4fd756439500294f776e61626c653a2063616c6c6572206973206e6f7420746865206f776e6572",
  "source": "pragma solidity ^0.4.26;\r\nimport \"./OptionsNetWorthCal.sol\";\r\nimport \"./modules/tuple.sol\";\r\n\r\ncontract OptionsPool is OptionsNetWorthCal {\r\n\r\n    constructor (address oracleAddr,address optionsPriceAddr,address ivAddress)public{\r\n        setOracleAddress(oracleAddr);\r\n        setOptionsPriceAddress(optionsPriceAddr);\r\n        setVolatilityAddress(ivAddress);\r\n    }\r\n    function getOptionCalRangeAll(address[] whiteList)public view returns(uint256,int256,uint256,int256[],uint256,uint256){\r\n        (uint256 occupiedFirst,int256 occupiedlatest) = getOccupiedCalInfo();\r\n        (uint256 netFirst,int256[] memory netLatest) = getNetWrothCalInfo(whiteList);\r\n        return (occupiedFirst,occupiedlatest,netFirst,netLatest,allOptions.length,block.number);\r\n    }\r\n    function createOptions(address from,address settlement,uint256 type_ly_exp,uint256 strikePrice,uint256 optionPrice,\r\n                uint256 amount) onlyManager public {\r\n        _createOptions(from,settlement,type_ly_exp,strikePrice,optionPrice,amount);\r\n        OptionsInfo memory info = _getOptionsById(allOptions.length);\r\n        _addOptionsCollateral(info);\r\n        _addNewOptionsNetworth(info);\r\n    }\r\n    function burnOptions(address from,uint256 id,uint256 amount,uint256 optionPrice)public onlyManager{\r\n        _burnOptions(from,id,amount);\r\n        OptionsInfo memory info = _getOptionsById(id);\r\n        uint256 currentPrice = _oracle.getUnderlyingPrice(info.underlying);\r\n        _burnOptionsCollateral(info,amount,currentPrice);\r\n        _burnOptionsNetworth(info,amount,currentPrice,optionPrice);\r\n    }\r\n}",
  "sourcePath": "C:\\work\\solidity\\FinnexusOptions_V2\\contracts\\OptionsPool.sol",
  "compiler": {
    "name": "solc",
    "version": "0.4.26+commit.4563c3fc.Emscripten.clang"
  },
  "schemaVersion": "3.1.0",
  "updatedAt": "2020-08-05T06:53:16.094Z",
  "devdoc": {
    "methods": {
      "addExpiration(uint256)": {
        "details": "Implementation of add an eligible expiration into the expirationList.\r",
        "params": {
          "expiration": "new eligible expiration.\r"
        }
      },
      "addUnderlyingAsset(uint32)": {
        "details": "Implementation of add an eligible underlying into the underlyingAssets.\r",
        "params": {
          "underlying": "new eligible underlying.\r"
        }
      },
      "getExpirationList()": {
        "details": "Implementation of getting the eligible expirationList.\r"
      },
      "getUnderlyingAssets()": {
        "details": "Implementation of getting the eligible underlyingAssets.\r"
      },
      "isEligibleExpiration(uint256)": {
        "details": "Implementation of testing whether the input expiration is eligible.\r",
        "params": {
          "expiration": "input expiration for testing.\r"
        }
      },
      "isEligibleUnderlyingAsset(uint32)": {
        "details": "Implementation of testing whether the input underlying is eligible.\r",
        "params": {
          "underlying": "input underlying for testing.\r"
        }
      },
      "isOwner()": {
        "details": "Returns true if the caller is the current owner."
      },
      "owner()": {
        "details": "Returns the address of the current owner."
      },
      "removeExpirationList(uint256)": {
        "details": "Implementation of revoke an invalid expiration from the expirationList.\r",
        "params": {
          "removeExpiration": "revoked expiration.\r"
        }
      },
      "removeUnderlyingAssets(uint32)": {
        "details": "Implementation of revoke an invalid underlying from the underlyingAssets.\r",
        "params": {
          "removeUnderlying": "revoked underlying.\r"
        }
      },
      "renounceOwnership()": {
        "details": "Leaves the contract without owner. It will not be possible to call `onlyOwner` functions anymore. Can only be called by the current owner.     * NOTE: Renouncing ownership will leave the contract without an owner, thereby removing any functionality that is only available to the owner."
      },
      "transferOwnership(address)": {
        "details": "Transfers ownership of the contract to a new account (`newOwner`). Can only be called by the current owner."
      }
    }
  },
  "userdoc": {
    "methods": {
      "setManager(address)": {
        "notice": "contribution period to stop or not."
      }
    }
  }
}