{
  "contractName": "OptionsPool",
  "abi": [
    {
      "inputs": [
        {
          "internalType": "address",
          "name": "oracleAddr",
          "type": "address"
        },
        {
          "internalType": "address",
          "name": "optionsPriceAddr",
          "type": "address"
        },
        {
          "internalType": "address",
          "name": "ivAddress",
          "type": "address"
        }
      ],
      "payable": false,
      "stateMutability": "nonpayable",
      "type": "constructor"
    },
    {
      "anonymous": false,
      "inputs": [
        {
          "indexed": true,
          "internalType": "address",
          "name": "owner",
          "type": "address"
        },
        {
          "indexed": true,
          "internalType": "uint256",
          "name": "optionID",
          "type": "uint256"
        },
        {
          "indexed": false,
          "internalType": "uint256",
          "name": "amount",
          "type": "uint256"
        }
      ],
      "name": "BurnOption",
      "type": "event"
    },
    {
      "anonymous": false,
      "inputs": [
        {
          "indexed": true,
          "internalType": "address",
          "name": "owner",
          "type": "address"
        },
        {
          "indexed": true,
          "internalType": "uint256",
          "name": "optionID",
          "type": "uint256"
        },
        {
          "indexed": false,
          "internalType": "uint8",
          "name": "optType",
          "type": "uint8"
        },
        {
          "indexed": false,
          "internalType": "uint32",
          "name": "underlying",
          "type": "uint32"
        },
        {
          "indexed": false,
          "internalType": "uint256",
          "name": "expiration",
          "type": "uint256"
        },
        {
          "indexed": false,
          "internalType": "uint256",
          "name": "strikePrice",
          "type": "uint256"
        },
        {
          "indexed": false,
          "internalType": "uint256",
          "name": "amount",
          "type": "uint256"
        }
      ],
      "name": "CreateOption",
      "type": "event"
    },
    {
      "anonymous": false,
      "inputs": [
        {
          "indexed": true,
          "internalType": "address",
          "name": "previousOwner",
          "type": "address"
        },
        {
          "indexed": true,
          "internalType": "address",
          "name": "newOwner",
          "type": "address"
        }
      ],
      "name": "OwnershipTransferred",
      "type": "event"
    },
    {
      "constant": false,
      "inputs": [
        {
          "internalType": "uint256",
          "name": "expiration",
          "type": "uint256"
        }
      ],
      "name": "addExpiration",
      "outputs": [],
      "payable": false,
      "stateMutability": "nonpayable",
      "type": "function"
    },
    {
      "constant": false,
      "inputs": [
        {
          "internalType": "address",
          "name": "addAddress",
          "type": "address"
        }
      ],
      "name": "addOperator",
      "outputs": [],
      "payable": false,
      "stateMutability": "nonpayable",
      "type": "function"
    },
    {
      "constant": false,
      "inputs": [
        {
          "internalType": "uint32",
          "name": "underlying",
          "type": "uint32"
        }
      ],
      "name": "addUnderlyingAsset",
      "outputs": [],
      "payable": false,
      "stateMutability": "nonpayable",
      "type": "function"
    },
    {
      "constant": true,
      "inputs": [
        {
          "internalType": "uint256",
          "name": "expiration",
          "type": "uint256"
        },
        {
          "internalType": "uint32",
          "name": "underlying",
          "type": "uint32"
        }
      ],
      "name": "buyOptionCheck",
      "outputs": [],
      "payable": false,
      "stateMutability": "view",
      "type": "function"
    },
    {
      "constant": true,
      "inputs": [
        {
          "internalType": "uint256",
          "name": "lastOption",
          "type": "uint256"
        },
        {
          "internalType": "uint256",
          "name": "begin",
          "type": "uint256"
        },
        {
          "internalType": "uint256",
          "name": "end",
          "type": "uint256"
        },
        {
          "internalType": "address[]",
          "name": "whiteList",
          "type": "address[]"
        }
      ],
      "name": "calRangeSharedPayment",
      "outputs": [
        {
          "internalType": "int256[]",
          "name": "",
          "type": "int256[]"
        },
        {
          "internalType": "uint256[]",
          "name": "",
          "type": "uint256[]"
        },
        {
          "internalType": "uint256",
          "name": "",
          "type": "uint256"
        }
      ],
      "payable": false,
      "stateMutability": "view",
      "type": "function"
    },
    {
      "constant": true,
      "inputs": [
        {
          "internalType": "uint256",
          "name": "lastOption",
          "type": "uint256"
        },
        {
          "internalType": "uint256",
          "name": "beginOption",
          "type": "uint256"
        },
        {
          "internalType": "uint256",
          "name": "endOption",
          "type": "uint256"
        }
      ],
      "name": "calculatePhaseOccupiedCollateral",
      "outputs": [
        {
          "internalType": "uint256",
          "name": "",
          "type": "uint256"
        },
        {
          "internalType": "uint256",
          "name": "",
          "type": "uint256"
        },
        {
          "internalType": "uint256",
          "name": "",
          "type": "uint256"
        },
        {
          "internalType": "bool",
          "name": "",
          "type": "bool"
        }
      ],
      "payable": false,
      "stateMutability": "view",
      "type": "function"
    },
    {
      "constant": true,
      "inputs": [
        {
          "internalType": "uint256",
          "name": "lastOption",
          "type": "uint256"
        },
        {
          "internalType": "uint256",
          "name": "begin",
          "type": "uint256"
        },
        {
          "internalType": "uint256",
          "name": "end",
          "type": "uint256"
        },
        {
          "internalType": "address[]",
          "name": "whiteList",
          "type": "address[]"
        }
      ],
      "name": "calculatePhaseOptionsFall",
      "outputs": [
        {
          "internalType": "int256[]",
          "name": "",
          "type": "int256[]"
        }
      ],
      "payable": false,
      "stateMutability": "view",
      "type": "function"
    },
    {
      "constant": true,
      "inputs": [
        {
          "internalType": "uint256",
          "name": "expiration",
          "type": "uint256"
        }
      ],
      "name": "checkExpiration",
      "outputs": [],
      "payable": false,
      "stateMutability": "view",
      "type": "function"
    },
    {
      "constant": true,
      "inputs": [],
      "name": "getAllOccupiedCollateral",
      "outputs": [
        {
          "internalType": "uint256",
          "name": "",
          "type": "uint256"
        },
        {
          "internalType": "uint256",
          "name": "",
          "type": "uint256"
        }
      ],
      "payable": false,
      "stateMutability": "view",
      "type": "function"
    },
    {
      "constant": true,
      "inputs": [
        {
          "internalType": "uint256",
          "name": "optionID",
          "type": "uint256"
        },
        {
          "internalType": "uint256",
          "name": "amount",
          "type": "uint256"
        }
      ],
      "name": "getBurnedFullPay",
      "outputs": [
        {
          "internalType": "address",
          "name": "",
          "type": "address"
        },
        {
          "internalType": "uint256",
          "name": "",
          "type": "uint256"
        }
      ],
      "payable": false,
      "stateMutability": "view",
      "type": "function"
    },
    {
      "constant": true,
      "inputs": [],
      "name": "getCallTotalOccupiedCollateral",
      "outputs": [
        {
          "internalType": "uint256",
          "name": "",
          "type": "uint256"
        }
      ],
      "payable": false,
      "stateMutability": "view",
      "type": "function"
    },
    {
      "constant": true,
      "inputs": [
        {
          "internalType": "uint256",
          "name": "optionsId",
          "type": "uint256"
        },
        {
          "internalType": "uint256",
          "name": "amount",
          "type": "uint256"
        }
      ],
      "name": "getExerciseWorth",
      "outputs": [
        {
          "internalType": "uint256",
          "name": "",
          "type": "uint256"
        }
      ],
      "payable": false,
      "stateMutability": "view",
      "type": "function"
    },
    {
      "constant": true,
      "inputs": [],
      "name": "getExpirationList",
      "outputs": [
        {
          "internalType": "uint256[]",
          "name": "",
          "type": "uint256[]"
        }
      ],
      "payable": false,
      "stateMutability": "view",
      "type": "function"
    },
    {
      "constant": true,
      "inputs": [],
      "name": "getInputAmountRange",
      "outputs": [
        {
          "internalType": "uint256",
          "name": "",
          "type": "uint256"
        },
        {
          "internalType": "uint256",
          "name": "",
          "type": "uint256"
        }
      ],
      "payable": false,
      "stateMutability": "view",
      "type": "function"
    },
    {
      "constant": true,
      "inputs": [
        {
          "internalType": "uint256",
          "name": "item",
          "type": "uint256"
        }
      ],
      "name": "getItemTimeLimitation",
      "outputs": [
        {
          "internalType": "uint256",
          "name": "",
          "type": "uint256"
        }
      ],
      "payable": false,
      "stateMutability": "view",
      "type": "function"
    },
    {
      "constant": true,
      "inputs": [],
      "name": "getManager",
      "outputs": [
        {
          "internalType": "address",
          "name": "",
          "type": "address"
        }
      ],
      "payable": false,
      "stateMutability": "view",
      "type": "function"
    },
    {
      "constant": true,
      "inputs": [
        {
          "internalType": "address[]",
          "name": "whiteList",
          "type": "address[]"
        }
      ],
      "name": "getNetWrothCalInfo",
      "outputs": [
        {
          "internalType": "uint256",
          "name": "",
          "type": "uint256"
        },
        {
          "internalType": "int256[]",
          "name": "",
          "type": "int256[]"
        }
      ],
      "payable": false,
      "stateMutability": "view",
      "type": "function"
    },
    {
      "constant": true,
      "inputs": [
        {
          "internalType": "address",
          "name": "settlement",
          "type": "address"
        }
      ],
      "name": "getNetWrothLatestWorth",
      "outputs": [
        {
          "internalType": "int256",
          "name": "",
          "type": "int256"
        }
      ],
      "payable": false,
      "stateMutability": "view",
      "type": "function"
    },
    {
      "constant": true,
      "inputs": [],
      "name": "getOccupiedCalInfo",
      "outputs": [
        {
          "internalType": "uint256",
          "name": "",
          "type": "uint256"
        },
        {
          "internalType": "int256",
          "name": "",
          "type": "int256"
        },
        {
          "internalType": "int256",
          "name": "",
          "type": "int256"
        }
      ],
      "payable": false,
      "stateMutability": "view",
      "type": "function"
    },
    {
      "constant": true,
      "inputs": [],
      "name": "getOperator",
      "outputs": [
        {
          "internalType": "address[]",
          "name": "",
          "type": "address[]"
        }
      ],
      "payable": false,
      "stateMutability": "view",
      "type": "function"
    },
    {
      "constant": true,
      "inputs": [],
      "name": "getOptionInfoLength",
      "outputs": [
        {
          "internalType": "uint256",
          "name": "",
          "type": "uint256"
        }
      ],
      "payable": false,
      "stateMutability": "view",
      "type": "function"
    },
    {
      "constant": true,
      "inputs": [
        {
          "internalType": "uint256",
          "name": "from",
          "type": "uint256"
        },
        {
          "internalType": "uint256",
          "name": "size",
          "type": "uint256"
        }
      ],
      "name": "getOptionInfoList",
      "outputs": [
        {
          "internalType": "address[]",
          "name": "",
          "type": "address[]"
        },
        {
          "internalType": "uint256[]",
          "name": "",
          "type": "uint256[]"
        },
        {
          "internalType": "uint256[]",
          "name": "",
          "type": "uint256[]"
        },
        {
          "internalType": "uint256[]",
          "name": "",
          "type": "uint256[]"
        },
        {
          "internalType": "uint256[]",
          "name": "",
          "type": "uint256[]"
        }
      ],
      "payable": false,
      "stateMutability": "view",
      "type": "function"
    },
    {
      "constant": true,
      "inputs": [
        {
          "internalType": "uint256[]",
          "name": "ids",
          "type": "uint256[]"
        }
      ],
      "name": "getOptionInfoListFromID",
      "outputs": [
        {
          "internalType": "address[]",
          "name": "",
          "type": "address[]"
        },
        {
          "internalType": "uint256[]",
          "name": "",
          "type": "uint256[]"
        },
        {
          "internalType": "uint256[]",
          "name": "",
          "type": "uint256[]"
        },
        {
          "internalType": "uint256[]",
          "name": "",
          "type": "uint256[]"
        },
        {
          "internalType": "uint256[]",
          "name": "",
          "type": "uint256[]"
        }
      ],
      "payable": false,
      "stateMutability": "view",
      "type": "function"
    },
    {
      "constant": true,
      "inputs": [
        {
          "internalType": "uint256",
          "name": "optionsId",
          "type": "uint256"
        }
      ],
      "name": "getOptionsById",
      "outputs": [
        {
          "internalType": "uint256",
          "name": "",
          "type": "uint256"
        },
        {
          "internalType": "address",
          "name": "",
          "type": "address"
        },
        {
          "internalType": "uint8",
          "name": "",
          "type": "uint8"
        },
        {
          "internalType": "uint32",
          "name": "",
          "type": "uint32"
        },
        {
          "internalType": "uint256",
          "name": "",
          "type": "uint256"
        },
        {
          "internalType": "uint256",
          "name": "",
          "type": "uint256"
        },
        {
          "internalType": "uint256",
          "name": "",
          "type": "uint256"
        }
      ],
      "payable": false,
      "stateMutability": "view",
      "type": "function"
    },
    {
      "constant": true,
      "inputs": [
        {
          "internalType": "uint256",
          "name": "optionsId",
          "type": "uint256"
        }
      ],
      "name": "getOptionsExtraById",
      "outputs": [
        {
          "internalType": "address",
          "name": "",
          "type": "address"
        },
        {
          "internalType": "uint256",
          "name": "",
          "type": "uint256"
        },
        {
          "internalType": "uint256",
          "name": "",
          "type": "uint256"
        },
        {
          "internalType": "uint256",
          "name": "",
          "type": "uint256"
        },
        {
          "internalType": "uint256",
          "name": "",
          "type": "uint256"
        }
      ],
      "payable": false,
      "stateMutability": "view",
      "type": "function"
    },
    {
      "constant": true,
      "inputs": [
        {
          "internalType": "uint256",
          "name": "optionsId",
          "type": "uint256"
        }
      ],
      "name": "getOptionsLimitTimeById",
      "outputs": [
        {
          "internalType": "uint256",
          "name": "",
          "type": "uint256"
        }
      ],
      "payable": false,
      "stateMutability": "view",
      "type": "function"
    },
    {
      "constant": true,
      "inputs": [],
      "name": "getOptionsPriceAddress",
      "outputs": [
        {
          "internalType": "address",
          "name": "",
          "type": "address"
        }
      ],
      "payable": false,
      "stateMutability": "view",
      "type": "function"
    },
    {
      "constant": true,
      "inputs": [],
      "name": "getOracleAddress",
      "outputs": [
        {
          "internalType": "address",
          "name": "",
          "type": "address"
        }
      ],
      "payable": false,
      "stateMutability": "view",
      "type": "function"
    },
    {
      "constant": true,
      "inputs": [],
      "name": "getPutTotalOccupiedCollateral",
      "outputs": [
        {
          "internalType": "uint256",
          "name": "",
          "type": "uint256"
        }
      ],
      "payable": false,
      "stateMutability": "view",
      "type": "function"
    },
    {
      "constant": true,
      "inputs": [],
      "name": "getTimeLimitation",
      "outputs": [
        {
          "internalType": "uint256",
          "name": "",
          "type": "uint256"
        }
      ],
      "payable": false,
      "stateMutability": "view",
      "type": "function"
    },
    {
      "constant": true,
      "inputs": [],
      "name": "getTotalOccupiedCollateral",
      "outputs": [
        {
          "internalType": "uint256",
          "name": "",
          "type": "uint256"
        }
      ],
      "payable": false,
      "stateMutability": "view",
      "type": "function"
    },
    {
      "constant": true,
      "inputs": [],
      "name": "getUnderlyingAssets",
      "outputs": [
        {
          "internalType": "uint32[]",
          "name": "",
          "type": "uint32[]"
        }
      ],
      "payable": false,
      "stateMutability": "view",
      "type": "function"
    },
    {
      "constant": true,
      "inputs": [
        {
          "internalType": "address",
          "name": "user",
          "type": "address"
        }
      ],
      "name": "getUserOptionsID",
      "outputs": [
        {
          "internalType": "uint256[]",
          "name": "",
          "type": "uint256[]"
        }
      ],
      "payable": false,
      "stateMutability": "view",
      "type": "function"
    },
    {
      "constant": true,
      "inputs": [
        {
          "internalType": "address",
          "name": "user",
          "type": "address"
        },
        {
          "internalType": "uint256",
          "name": "from",
          "type": "uint256"
        },
        {
          "internalType": "uint256",
          "name": "size",
          "type": "uint256"
        }
      ],
      "name": "getUserOptionsID",
      "outputs": [
        {
          "internalType": "uint256[]",
          "name": "",
          "type": "uint256[]"
        }
      ],
      "payable": false,
      "stateMutability": "view",
      "type": "function"
    },
    {
      "constant": true,
      "inputs": [],
      "name": "getVolatilityAddress",
      "outputs": [
        {
          "internalType": "address",
          "name": "",
          "type": "address"
        }
      ],
      "payable": false,
      "stateMutability": "view",
      "type": "function"
    },
    {
      "constant": false,
      "inputs": [],
      "name": "initialize",
      "outputs": [],
      "payable": false,
      "stateMutability": "nonpayable",
      "type": "function"
    },
    {
      "constant": true,
      "inputs": [
        {
          "internalType": "uint256",
          "name": "expiration",
          "type": "uint256"
        }
      ],
      "name": "isEligibleExpiration",
      "outputs": [
        {
          "internalType": "bool",
          "name": "",
          "type": "bool"
        }
      ],
      "payable": false,
      "stateMutability": "view",
      "type": "function"
    },
    {
      "constant": true,
      "inputs": [
        {
          "internalType": "uint32",
          "name": "underlying",
          "type": "uint32"
        }
      ],
      "name": "isEligibleUnderlyingAsset",
      "outputs": [
        {
          "internalType": "bool",
          "name": "",
          "type": "bool"
        }
      ],
      "payable": false,
      "stateMutability": "view",
      "type": "function"
    },
    {
      "constant": true,
      "inputs": [
        {
          "internalType": "uint256",
          "name": "Amount",
          "type": "uint256"
        }
      ],
      "name": "isInputAmountInRange",
      "outputs": [
        {
          "internalType": "bool",
          "name": "",
          "type": "bool"
        }
      ],
      "payable": false,
      "stateMutability": "view",
      "type": "function"
    },
    {
      "constant": true,
      "inputs": [],
      "name": "isOwner",
      "outputs": [
        {
          "internalType": "bool",
          "name": "",
          "type": "bool"
        }
      ],
      "payable": false,
      "stateMutability": "view",
      "type": "function"
    },
    {
      "constant": true,
      "inputs": [],
      "name": "owner",
      "outputs": [
        {
          "internalType": "address",
          "name": "",
          "type": "address"
        }
      ],
      "payable": false,
      "stateMutability": "view",
      "type": "function"
    },
    {
      "constant": false,
      "inputs": [
        {
          "internalType": "uint256",
          "name": "removeExpiration",
          "type": "uint256"
        }
      ],
      "name": "removeExpirationList",
      "outputs": [
        {
          "internalType": "bool",
          "name": "",
          "type": "bool"
        }
      ],
      "payable": false,
      "stateMutability": "nonpayable",
      "type": "function"
    },
    {
      "constant": false,
      "inputs": [
        {
          "internalType": "address",
          "name": "removeAddress",
          "type": "address"
        }
      ],
      "name": "removeOperator",
      "outputs": [
        {
          "internalType": "bool",
          "name": "",
          "type": "bool"
        }
      ],
      "payable": false,
      "stateMutability": "nonpayable",
      "type": "function"
    },
    {
      "constant": false,
      "inputs": [
        {
          "internalType": "uint32",
          "name": "removeUnderlying",
          "type": "uint32"
        }
      ],
      "name": "removeUnderlyingAssets",
      "outputs": [
        {
          "internalType": "bool",
          "name": "",
          "type": "bool"
        }
      ],
      "payable": false,
      "stateMutability": "nonpayable",
      "type": "function"
    },
    {
      "constant": false,
      "inputs": [],
      "name": "renounceOwnership",
      "outputs": [],
      "payable": false,
      "stateMutability": "nonpayable",
      "type": "function"
    },
    {
      "constant": false,
      "inputs": [
        {
          "internalType": "uint256",
          "name": "totalCallOccupied",
          "type": "uint256"
        },
        {
          "internalType": "uint256",
          "name": "totalPutOccupied",
          "type": "uint256"
        },
        {
          "internalType": "uint256",
          "name": "beginOption",
          "type": "uint256"
        },
        {
          "internalType": "int256",
          "name": "latestCallOccpied",
          "type": "int256"
        },
        {
          "internalType": "int256",
          "name": "latestPutOccpied",
          "type": "int256"
        }
      ],
      "name": "setCollateralPhase",
      "outputs": [],
      "payable": false,
      "stateMutability": "nonpayable",
      "type": "function"
    },
    {
      "constant": false,
      "inputs": [
        {
          "internalType": "uint256",
          "name": "_minAmount",
          "type": "uint256"
        },
        {
          "internalType": "uint256",
          "name": "_maxAmount",
          "type": "uint256"
        }
      ],
      "name": "setInputAmountRange",
      "outputs": [],
      "payable": false,
      "stateMutability": "nonpayable",
      "type": "function"
    },
    {
      "constant": false,
      "inputs": [
        {
          "internalType": "address",
          "name": "managerAddress",
          "type": "address"
        }
      ],
      "name": "setManager",
      "outputs": [],
      "payable": false,
      "stateMutability": "nonpayable",
      "type": "function"
    },
    {
      "constant": false,
      "inputs": [],
      "name": "setOccupiedCollateral",
      "outputs": [],
      "payable": false,
      "stateMutability": "nonpayable",
      "type": "function"
    },
    {
      "constant": false,
      "inputs": [
        {
          "internalType": "uint256",
          "name": "index",
          "type": "uint256"
        },
        {
          "internalType": "address",
          "name": "addAddress",
          "type": "address"
        }
      ],
      "name": "setOperator",
      "outputs": [],
      "payable": false,
      "stateMutability": "nonpayable",
      "type": "function"
    },
    {
      "constant": false,
      "inputs": [
        {
          "internalType": "address[]",
          "name": "operators",
          "type": "address[]"
        }
      ],
      "name": "setOperators",
      "outputs": [],
      "payable": false,
      "stateMutability": "nonpayable",
      "type": "function"
    },
    {
      "constant": false,
      "inputs": [
        {
          "internalType": "address",
          "name": "optionsPrice",
          "type": "address"
        }
      ],
      "name": "setOptionsPriceAddress",
      "outputs": [],
      "payable": false,
      "stateMutability": "nonpayable",
      "type": "function"
    },
    {
      "constant": false,
      "inputs": [
        {
          "internalType": "address",
          "name": "oracle",
          "type": "address"
        }
      ],
      "name": "setOracleAddress",
      "outputs": [],
      "payable": false,
      "stateMutability": "nonpayable",
      "type": "function"
    },
    {
      "constant": false,
      "inputs": [
        {
          "internalType": "uint256",
          "name": "newFirstOption",
          "type": "uint256"
        },
        {
          "internalType": "int256[]",
          "name": "latestNetWorth",
          "type": "int256[]"
        },
        {
          "internalType": "address[]",
          "name": "whiteList",
          "type": "address[]"
        }
      ],
      "name": "setSharedState",
      "outputs": [],
      "payable": false,
      "stateMutability": "nonpayable",
      "type": "function"
    },
    {
      "constant": false,
      "inputs": [
        {
          "internalType": "uint256",
          "name": "_limitation",
          "type": "uint256"
        }
      ],
      "name": "setTimeLimitation",
      "outputs": [],
      "payable": false,
      "stateMutability": "nonpayable",
      "type": "function"
    },
    {
      "constant": false,
      "inputs": [
        {
          "internalType": "address",
          "name": "volatility",
          "type": "address"
        }
      ],
      "name": "setVolatilityAddress",
      "outputs": [],
      "payable": false,
      "stateMutability": "nonpayable",
      "type": "function"
    },
    {
      "constant": false,
      "inputs": [
        {
          "internalType": "address",
          "name": "newOwner",
          "type": "address"
        }
      ],
      "name": "transferOwnership",
      "outputs": [],
      "payable": false,
      "stateMutability": "nonpayable",
      "type": "function"
    },
    {
      "constant": false,
      "inputs": [],
      "name": "update",
      "outputs": [],
      "payable": false,
      "stateMutability": "nonpayable",
      "type": "function"
    },
    {
      "constant": true,
      "inputs": [
        {
          "internalType": "address[]",
          "name": "whiteList",
          "type": "address[]"
        }
      ],
      "name": "getOptionCalRangeAll",
      "outputs": [
        {
          "internalType": "uint256",
          "name": "",
          "type": "uint256"
        },
        {
          "internalType": "int256",
          "name": "",
          "type": "int256"
        },
        {
          "internalType": "int256",
          "name": "",
          "type": "int256"
        },
        {
          "internalType": "uint256",
          "name": "",
          "type": "uint256"
        },
        {
          "internalType": "int256[]",
          "name": "",
          "type": "int256[]"
        },
        {
          "internalType": "uint256",
          "name": "",
          "type": "uint256"
        },
        {
          "internalType": "uint256",
          "name": "",
          "type": "uint256"
        }
      ],
      "payable": false,
      "stateMutability": "view",
      "type": "function"
    },
    {
      "constant": false,
      "inputs": [
        {
          "internalType": "address",
          "name": "from",
          "type": "address"
        },
        {
          "internalType": "address",
          "name": "settlement",
          "type": "address"
        },
        {
          "internalType": "uint256",
          "name": "type_ly_exp",
          "type": "uint256"
        },
        {
          "internalType": "uint256",
          "name": "strikePrice",
          "type": "uint256"
        },
        {
          "internalType": "uint256",
          "name": "priceRate",
          "type": "uint256"
        },
        {
          "internalType": "uint256",
          "name": "amount",
          "type": "uint256"
        }
      ],
      "name": "createOptions",
      "outputs": [
        {
          "internalType": "uint256",
          "name": "",
          "type": "uint256"
        }
      ],
      "payable": false,
      "stateMutability": "nonpayable",
      "type": "function"
    },
    {
      "constant": false,
      "inputs": [
        {
          "internalType": "address",
          "name": "from",
          "type": "address"
        },
        {
          "internalType": "uint256",
          "name": "id",
          "type": "uint256"
        },
        {
          "internalType": "uint256",
          "name": "amount",
          "type": "uint256"
        },
        {
          "internalType": "uint256",
          "name": "optionPrice",
          "type": "uint256"
        }
      ],
      "name": "burnOptions",
      "outputs": [],
      "payable": false,
      "stateMutability": "nonpayable",
      "type": "function"
    }
  ],
  "bytecode": "0x6080604052610e106003556c0c9f2c9cd04674edea4000000060045560646005553480156200002d57600080fd5b5060405162005b7f38038062005b7f833981810160405260608110156200005357600080fd5b508051602082015160409283015160008054600160a060020a03191633178082559451939492939192600160a060020a0316917f8be0079c531659141344cd1fd0a4f28419497f9722a3daafe3b4186f6b6457e0908290a3620000be64010000000062000101810204565b60078054600160a060020a03948516600160a060020a03199182161790915560098054938516938216939093179092556008805491909316911617905562000363565b620001146401000000006200020a810204565b6200018057604080517f08c379a000000000000000000000000000000000000000000000000000000000815260206004820181905260248201527f4f776e61626c653a2063616c6c6572206973206e6f7420746865206f776e6572604482015290519081900360640190fd5b60408051610100810182526201518081526202a30060208201526203f4809181019190915262093a806060820152620d2f0060808201526213c68060a0820152621a5e0060c082015262278d0060e0820152620001e290600e9060086200021c565b5060408051808201909152600180825260026020830181905262000207929062000273565b50565b600054600160a060020a031633145b90565b82805482825590600052602060002090810192821562000261579160200282015b8281111562000261578251829062ffffff169055916020019190600101906200023d565b506200026f92915062000322565b5090565b82805482825590600052602060002090600701600890048101928215620003145791602002820160005b83821115620002e057835183826101000a81548163ffffffff021916908360ff16021790555092602001926004016020816003010492830192600103026200029d565b8015620003125782816101000a81549063ffffffff0219169055600401602081600301049283019260010302620002e0565b505b506200026f9291506200033f565b6200021991905b808211156200026f576000815560010162000329565b6200021991905b808211156200026f57805463ffffffff1916815560010162000346565b61580c80620003736000396000f3fe608060405234801561001057600080fd5b50600436106103cc576000357c010000000000000000000000000000000000000000000000000000000090048063813b5d4b11610211578063afec82fc11610137578063db6ad2bd116100ca578063e7f43c6811610099578063e7f43c681461127c578063f2fde38b14611284578063f504e2f0146112aa578063f7de1923146112b2576103cc565b8063db6ad2bd14611164578063ddf71cd514611187578063e7a1c1c01461122a578063e7c5681514611256576103cc565b8063bec3107f11610106578063bec3107f1461110b578063d0ebdbe714611113578063d500958414611139578063d6d1401214611141576103cc565b8063afec82fc146110b7578063b18b78dd146110da578063b206e84d146110e2578063bc9abed214611103576103cc565b80639a2a3a60116101af578063a2e620451161017e578063a2e620451461104c578063a855040814611054578063ac8a584a14611089578063aef890be146110af576103cc565b80639a2a3a6014610ec55780639ab91a3514610fe65780639ef975d214611009578063a093e2d014611026576103cc565b80639052d5f8116101eb5780639052d5f814610e32578063924a69ce14610e3a5780639783cbd914610e825780639870d7fe14610e9f576103cc565b8063813b5d4b14610e055780638da5cb5b14610e225780638f32d59b14610e2a576103cc565b806348ee201d116102f65780636ed82ec9116102945780637cfff2d8116102635780637cfff2d814610d895780637e1bcb7614610da65780637e838fa314610dcc5780638129fc1c14610dfd576103cc565b80636ed82ec914610d24578063715018a614610d5c578063723931ca14610d6457806373a3d42414610d81576103cc565b80635ca4b73b116102d05780635ca4b73b14610bde57806367b8ceb914610be65780636a43c05e14610c095780636d84e2e314610d07576103cc565b806348ee201d14610b0e5780634c69c00f14610b72578063597ce90014610b98576103cc565b806332ab5c201161036e5780633e77dfd91161033d5780633e77dfd914610a2457806342e5479d14610a2c57806343674c3a14610a505780634688d5d614610b06576103cc565b806332ab5c20146107aa578063354af360146109005780633582d789146109a35780633ad2fb57146109fb576103cc565b80630c372571116103aa5780630c372571146105d45780632415e010146106255780632967eafe146107555780632a75ee421461077b576103cc565b80630438d490146103d157806307af14781461055c57806309057622146105ae575b600080fd5b6103f4600480360360408110156103e757600080fd5b50803590602001356112e4565b60405180806020018060200180602001806020018060200186810386528b818151815260200191508051906020019060200280838360005b8381101561044457818101518382015260200161042c565b5050505090500186810385528a818151815260200191508051906020019060200280838360005b8381101561048357818101518382015260200161046b565b50505050905001868103845289818151815260200191508051906020019060200280838360005b838110156104c25781810151838201526020016104aa565b50505050905001868103835288818151815260200191508051906020019060200280838360005b838110156105015781810151838201526020016104e9565b50505050905001868103825287818151815260200191508051906020019060200280838360005b83811015610540578181015183820152602001610528565b505050509050019a505050505050505050505060405180910390f35b6105796004803603602081101561057257600080fd5b50356115e4565b60408051600160a060020a03909616865260208601949094528484019290925260608401526080830152519081900360a00190f35b6105b66116b4565b60408051938452602084019290925282820152519081900360600190f35b6105fd600480360360608110156105ea57600080fd5b50803590602081013590604001356116c2565b6040805194855260208501939093528383019190915215156060830152519081900360800190f35b6107536004803603606081101561063b57600080fd5b8135919081019060408101602082013564010000000081111561065d57600080fd5b82018360208201111561066f57600080fd5b8035906020019184602083028401116401000000008311171561069157600080fd5b91908080602002602001604051908101604052809392919081815260200183836020028082843760009201919091525092959493602081019350359150506401000000008111156106e157600080fd5b8201836020820111156106f357600080fd5b8035906020019184602083028401116401000000008311171561071557600080fd5b919080806020026020016040519081016040528093929190818152602001838360200280828437600092019190915250929550611742945050505050565b005b6107536004803603602081101561076b57600080fd5b5035600160a060020a031661193f565b6107986004803603602081101561079157600080fd5b50356119ab565b60408051918252519081900360200190f35b610860600480360360808110156107c057600080fd5b813591602081013591604082013591908101906080810160608201356401000000008111156107ee57600080fd5b82018360208201111561080057600080fd5b8035906020019184602083028401116401000000008311171561082257600080fd5b9190808060200260200160405190810160405280939291908181526020018383602002808284376000920191909152509295506119c2945050505050565b604051808060200180602001848152602001838103835286818151815260200191508051906020019060200280838360005b838110156108aa578181015183820152602001610892565b50505050905001838103825285818151815260200191508051906020019060200280838360005b838110156108e95781810151838201526020016108d1565b505050509050019550505050505060405180910390f35b6103f46004803603602081101561091657600080fd5b81019060208101813564010000000081111561093157600080fd5b82018360208201111561094357600080fd5b8035906020019184602083028401116401000000008311171561096557600080fd5b919080806020026020016040519081016040528093929190818152602001838360200280828437600092019190915250929550611ac2945050505050565b6109ab611d3c565b60408051602080825283518183015283519192839290830191858101910280838360005b838110156109e75781810151838201526020016109cf565b505050509050019250505060405180910390f35b61075360048036036040811015610a1157600080fd5b508035906020013563ffffffff16611dc1565b610798611e2b565b610a34611eb5565b60408051600160a060020a039092168252519081900360200190f35b6109ab60048036036080811015610a6657600080fd5b81359160208101359160408201359190810190608081016060820135640100000000811115610a9457600080fd5b820183602082011115610aa657600080fd5b80359060200191846020830284011164010000000083111715610ac857600080fd5b919080806020026020016040519081016040528093929190818152602001838360200280828437600092019190915250929550611ec4945050505050565b610798611fb9565b610b2b60048036036020811015610b2457600080fd5b5035611fbf565b60408051978852600160a060020a03909616602088015260ff9094168686015263ffffffff9092166060860152608085015260a084015260c0830152519081900360e00190f35b61075360048036036020811015610b8857600080fd5b5035600160a060020a0316612039565b610bbb60048036036040811015610bae57600080fd5b50803590602001356120a5565b60408051600160a060020a03909316835260208301919091528051918290030190f35b610a3461214a565b61079860048036036040811015610bfc57600080fd5b5080359060200135612159565b610cac60048036036020811015610c1f57600080fd5b810190602081018135640100000000811115610c3a57600080fd5b820183602082011115610c4c57600080fd5b80359060200191846020830284011164010000000083111715610c6e57600080fd5b919080806020026020016040519081016040528093929190818152602001838360200280828437600092019190915250929550612253945050505050565b6040518083815260200180602001828103825283818151815260200191508051906020019060200280838360005b83811015610cf2578181015183820152602001610cda565b50505050905001935050505060405180910390f35b61079860048036036020811015610d1d57600080fd5b50356122fd565b61075360048036036080811015610d3a57600080fd5b50600160a060020a03813516906020810135906040810135906060013561236d565b610753612531565b61075360048036036020811015610d7a57600080fd5b50356125c5565b61079861260f565b61075360048036036020811015610d9f57600080fd5b5035612627565b61079860048036036020811015610dbc57600080fd5b5035600160a060020a0316612682565b610de960048036036020811015610de257600080fd5b503561269d565b604080519115158252519081900360200190f35b6107536126fa565b610de960048036036020811015610e1b57600080fd5b50356127c7565b610a346127df565b610de96127ee565b6109ab6127ff565b610798600480360360c0811015610e5057600080fd5b50600160a060020a03813581169160208101359091169060408101359060608101359060808101359060a00135612856565b61075360048036036020811015610e9857600080fd5b50356129a4565b61075360048036036020811015610eb557600080fd5b5035600160a060020a03166129f3565b610f6860048036036020811015610edb57600080fd5b810190602081018135640100000000811115610ef657600080fd5b820183602082011115610f0857600080fd5b80359060200191846020830284011164010000000083111715610f2a57600080fd5b919080806020026020016040519081016040528093929190818152602001838360200280828437600092019190915250929550612a4e945050505050565b6040518088815260200187815260200186815260200185815260200180602001848152602001838152602001828103825285818151815260200191508051906020019060200280838360005b83811015610fcc578181015183820152602001610fb4565b505050509050019850505050505050505060405180910390f35b61075360048036036040811015610ffc57600080fd5b5080359060200135612a97565b610de96004803603602081101561101f57600080fd5b5035612aec565b6107536004803603602081101561103c57600080fd5b5035600160a060020a0316612b51565b610753612bbd565b610753600480360360a081101561106a57600080fd5b5080359060208101359060408101359060608101359060800135612c09565b610de96004803603602081101561109f57600080fd5b5035600160a060020a0316612e21565b610798612e7e565b610753600480360360208110156110cd57600080fd5b503563ffffffff16612ef3565b610a34612f4e565b6110ea612f5d565b6040805192835260208301919091528051918290030190f35b6110ea612f78565b610798612f82565b6107536004803603602081101561112957600080fd5b5035600160a060020a0316612f88565b610a34612ff4565b610de96004803603602081101561115757600080fd5b503563ffffffff16613003565b610de96004803603602081101561117a57600080fd5b503563ffffffff16613060565b6107536004803603602081101561119d57600080fd5b8101906020810181356401000000008111156111b857600080fd5b8201836020820111156111ca57600080fd5b803590602001918460208302840111640100000000831117156111ec57600080fd5b9190808060200260200160405190810160405280939291908181526020018383602002808284376000920191909152509295506130f1945050505050565b6107536004803603604081101561124057600080fd5b5080359060200135600160a060020a031661314e565b6109ab6004803603602081101561126c57600080fd5b5035600160a060020a03166131d8565b6109ab613244565b6107536004803603602081101561129a57600080fd5b5035600160a060020a03166132a5565b6107536132f8565b6109ab600480360360608110156112c857600080fd5b50600160a060020a0381351690602081013590604001356133af565b6060806060806060600b805490508710611348576040805160e560020a62461bcd02815260206004820152601660248201527f696e7075742066726f6d206973206f766572666c6f7700000000000000000000604482015290519081900360640190fd5b600086116113a0576040805160e560020a62461bcd02815260206004820152601260248201527f696e7075742073697a65206973207a65726f0000000000000000000000000000604482015290519081900360640190fd5b600b5487870111156113b557600b5487900395505b6060866040519080825280602002602001820160405280156113e1578160200160208202803883390190505b509050606087604051908082528060200260200182016040528015611410578160200160208202803883390190505b50905060608860405190808252806020026020018201604052801561143f578160200160208202803883390190505b50905060608960405190808252806020026020018201604052801561146e578160200160208202803883390190505b50905060608a60405190808252806020026020018201604052801561149d578160200160208202803883390190505b50905060005b8b8110156115d0576000600b828f01815481106114bc57fe5b906000526020600020906003020190508060010160009054906101000a9004600160a060020a03168783815181106114f057fe5b600160a060020a03929092166020928302919091019091015280548651640100000000820460ff166501000000000090920463ffffffff9081166201000002929092019091169087908490811061154357fe5b602090810291909101015280548551604860020a90910467ffffffffffffffff169086908490811061157157fe5b602090810291909101015280548451608860020a90910467ffffffffffffffff169085908490811061159f57fe5b60200260200101818152505080600201548383815181106115bc57fe5b6020908102919091010152506001016114a3565b50939b929a50909850965090945092505050565b600080600080600080861180156115fd5750600b548611155b611651576040805160e560020a62461bcd02815260206004820152601660248201527f6f7074696f6e206964206973206e6f7420657869737400000000000000000000604482015290519081900360640190fd5b50505060009283525050600c6020526040902080546001820154600290920154600160a060020a039091169267ffffffffffffffff8083169268010000000000000000810482169270010000000000000000000000000000000090910490911690565b601154601454601554909192565b6000806000806011548610156116d85760115495505b8686106116f057506000925082915081905080611739565b868511156117005786945061171b565b60115485101561171b57506000925082915081905080611739565b600080600061172a8989613550565b91985096509450600193505050505b93509350935093565b600a546000901580159061177f575033600160a060020a0316600a828154811061176857fe5b600091825260209091200154600160a060020a0316145b6117bd5760405160e560020a62461bcd02815260040180806020018281038252602d81526020018061573c602d913960400191505060405180910390fd5b600b54841115611817576040805160e560020a62461bcd02815260206004820152601e60248201527f6e657746697273744f7074696f6e2063616c63756c617465204572726f720000604482015290519081900360640190fd5b600f5484111561182757600f8490555b815160005b8181101561193757701d6329f1c35ca4bfabb9f560ffffffffff1985828151811061185357fe5b60200260200101511215801561188d5750701d6329f1c35ca4bfabb9f561000000000085828151811061188257fe5b602002602001015113155b6118e1576040805160e560020a62461bcd02815260206004820152601e60248201527f6c61746573744e6574576f7274682063616c63756c617465206572726f720000604482015290519081900360640190fd5b8481815181106118ed57fe5b60200260200101516010600086848151811061190557fe5b602090810291909101810151600160a060020a031682528101919091526040016000208054909101905560010161182c565b505050505050565b6119476127ee565b611989576040805160e560020a62461bcd02815260206004820181905260248201526000805160206156f4833981519152604482015290519081900360640190fd5b60088054600160a060020a031916600160a060020a0392909216919091179055565b600354600091825260026020526040909120540190565b606080600086861015806119d75750600f5485105b15611a42578351604051908082528060200260200182016040528015611a07578160200160208202803883390190505b508451604051908082528060200260200182016040528015611a33578160200160208202803883390190505b50909350915060009050611ab8565b86851115611a4e578694505b60606000611a5d8888886136d3565b9150915080881015611a84576060611a768983896138cd565b95509193509150611ab89050565b8551604051908082528060200260200182016040528015611aaf578160200160208202803883390190505b50945090925090505b9450945094915050565b606080606080606060008651905060008111611b28576040805160e560020a62461bcd02815260206004820152601860248201527f696e7075742069647320617272617920697320656d7074790000000000000000604482015290519081900360640190fd5b606081604051908082528060200260200182016040528015611b54578160200160208202803883390190505b509050606082604051908082528060200260200182016040528015611b83578160200160208202803883390190505b509050606083604051908082528060200260200182016040528015611bb2578160200160208202803883390190505b509050606084604051908082528060200260200182016040528015611be1578160200160208202803883390190505b509050606085604051908082528060200260200182016040528015611c10578160200160208202803883390190505b50905060005b868110156115d0576000611c3c8e8381518110611c2f57fe5b6020026020010151613a31565b60018101548851919250600160a060020a031690889084908110611c5c57fe5b600160a060020a03929092166020928302919091019091015280548651640100000000820460ff166501000000000090920463ffffffff90811662010000029290920190911690879084908110611caf57fe5b602090810291909101015280548551604860020a90910467ffffffffffffffff1690869084908110611cdd57fe5b602090810291909101015280548451608860020a90910467ffffffffffffffff1690859084908110611d0b57fe5b6020026020010181815250508060020154838381518110611d2857fe5b602090810291909101015250600101611c16565b60606001805480602002602001604051908101604052809291908181526020018280548015611db657602002820191906000526020600020906000905b82829054906101000a900463ffffffff1663ffffffff1681526020019060040190602082600301049283019260010382029150808411611d795790505b505050505090505b90565b611dca81613060565b611e1e576040805160e560020a62461bcd02815260206004820152601f60248201527f756e6465726c79696e6720697320756e737570706f7274656420617373657400604482015290519081900360640190fd5b611e27826125c5565b5050565b60008060145412611e885760145460125490810190811015611e815760405160e560020a62461bcd02815260040180806020018281038252602a8152602001806157ae602a913960400191505060405180910390fd5b9050611dbe565b60006014546000039050806012541115611ea757601254039050611dbe565b6000915050611dbe565b5090565b600854600160a060020a031690565b60608484101580611ed65750600f5483105b15611f0e578151604051908082528060200260200182016040528015611f06578160200160208202803883390190505b509050611fb1565b84831115611f1a578492505b600f548411611f2957600f5493505b6060611f33613abd565b90506060611f4386868685613b5c565b845190915060005b81811015611faa57611f6f868281518110611f6257fe5b6020026020010151613d29565b838281518110611f7b57fe5b602002602001015181611f8a57fe5b05838281518110611f9757fe5b6020908102919091010152600101611f4b565b5090925050505b949350505050565b60035490565b600080600080600080600080611fd489613a31565b8054600182015460029092015463ffffffff8083169d600160a060020a039094169c5060ff6401000000008404169b5065010000000000830416995067ffffffffffffffff604860020a830481169950608860020a9092049091169650945092505050565b6120416127ee565b612083576040805160e560020a62461bcd02815260206004820181905260248201526000805160206156f4833981519152604482015290519081900360640190fd5b60078054600160a060020a031916600160a060020a0392909216919091179055565b600080828060045410156120ed5760405160e560020a62461bcd02815260040180806020018281038252602481526020018061578a6024913960400191505060405180910390fd5b60001985016000908152600c60205260409020805460018201546002830154600160a060020a0390921691670de0b6b3a7640000916801000000000000000090910467ffffffffffffffff16028702049350935050509250929050565b600954600160a060020a031690565b6000612163615437565b61216c84613a31565b6040805160e081018252825463ffffffff808216835260ff6401000000008304166020840152650100000000008204169282019290925267ffffffffffffffff604860020a830481166060830152608860020a90920490911660808201526001820154600160a060020a031660a082015260029091015460c082015290506121f381613de6565b6121fd8184613e4b565b6000612212826040015163ffffffff16613ea7565b905060006122338360200151846080015167ffffffffffffffff1684613f11565b905080612246576000935050505061224d565b8402925050505b92915050565b60006060600083519050606081604051908082528060200260200182016040528015612289578160200160208202803883390190505b50905060005b828110156122ef57601060008783815181106122a757fe5b6020026020010151600160a060020a0316600160a060020a03168152602001908152602001600020548282815181106122dc57fe5b602090810291909101015260010161228f565b50600f549350915050915091565b600080821180156123105750600b548211155b612364576040805160e560020a62461bcd02815260206004820152601660248201527f6f7074696f6e206964206973206e6f7420657869737400000000000000000000604482015290519081900360640190fd5b61224d826119ab565b600654600160a060020a031633146123b95760405160e560020a62461bcd02815260040180806020018281038252602681526020018061567e6026913960400191505060405180910390fd5b818060045410156123fe5760405160e560020a62461bcd02815260040180806020018281038252602481526020018061578a6024913960400191505060405180910390fd5b60035460008581526002602052604090205485914291011061246a576040805160e560020a62461bcd02815260206004820152601f60248201527f54696d65206c696d69746174696f6e206973206e6f7420657870697265642100604482015290519081900360640190fd5b612475868686613f45565b61247d615437565b61248686613a31565b6040805160e081018252825463ffffffff808216835260ff64010000000083041660208401526501000000000082041692820183905267ffffffffffffffff604860020a820481166060840152608860020a9091041660808201526001830154600160a060020a031660a082015260029092015460c083015290915060009061250e90613ea7565b905061251b828783614132565b612527828783886141d2565b5050505050505050565b6125396127ee565b61257b576040805160e560020a62461bcd02815260206004820181905260248201526000805160206156f4833981519152604482015290519081900360640190fd5b60008054604051600160a060020a03909116907f8be0079c531659141344cd1fd0a4f28419497f9722a3daafe3b4186f6b6457e0908390a360008054600160a060020a0319169055565b6125ce81612aec565b61260c5760405160e560020a62461bcd0281526004018080602001828103825260218152602001806157696021913960400191505060405180910390fd5b50565b6000612619612e7e565b612621611e2b565b01905090565b61262f6127ee565b612671576040805160e560020a62461bcd02815260206004820181905260248201526000805160206156f4833981519152604482015290519081900360640190fd5b61260c600e8263ffffffff6142ad16565b600160a060020a031660009081526010602052604090205490565b60006126a76127ee565b6126e9576040805160e560020a62461bcd02815260206004820181905260248201526000805160206156f4833981519152604482015290519081900360640190fd5b61224d600e8363ffffffff61432216565b6127026127ee565b612744576040805160e560020a62461bcd02815260206004820181905260248201526000805160206156f4833981519152604482015290519081900360640190fd5b60408051610100810182526201518081526202a30060208201526203f4809181019190915262093a806060820152620d2f0060808201526213c68060a0820152621a5e0060c082015262278d0060e08201526127a490600e906008615473565b5060408051808201909152600180825260026020830181905261260c92906154c1565b6000816004541015801561224d575050600554111590565b600054600160a060020a031690565b600054600160a060020a0316331490565b6060600e805480602002602001604051908101604052809291908181526020018280548015611db657602002820191906000526020600020905b815481526020019060010190808311612839575050505050905090565b600654600090600160a060020a031633146128a55760405160e560020a62461bcd02815260040180806020018281038252602681526020018061567e6026913960400191505060405180910390fd5b818060045410156128ea5760405160e560020a62461bcd02815260040180806020018281038252602481526020018061578a6024913960400191505060405180910390fd5b60006128fa8989898989896143c8565b9050612904615437565b600b5461291090613a31565b6040805160e081018252825463ffffffff808216835260ff6401000000008304166020840152650100000000008204169282019290925267ffffffffffffffff604860020a830481166060830152608860020a90920490911660808201526001820154600160a060020a031660a082015260029091015460c0820152905061299781614712565b5098975050505050505050565b6129ac6127ee565b6129ee576040805160e560020a62461bcd02815260206004820181905260248201526000805160206156f4833981519152604482015290519081900360640190fd5b600355565b6129fb6127ee565b612a3d576040805160e560020a62461bcd02815260206004820181905260248201526000805160206156f4833981519152604482015290519081900360640190fd5b61260c600a8263ffffffff61477616565b60008060008060606000806000806000612a666116b4565b92509250925060006060612a798d612253565b600b54969f959e50939c509a50919850929650439550909350505050565b612a9f6127ee565b612ae1576040805160e560020a62461bcd02815260206004820181905260248201526000805160206156f4833981519152604482015290519081900360640190fd5b600591909155600455565b600061224d82600e805480602002602001604051908101604052809291908181526020018280548015612b3e57602002820191906000526020600020905b815481526020019060010190808311612b2a575b505050505061480e90919063ffffffff16565b612b596127ee565b612b9b576040805160e560020a62461bcd02815260206004820181905260248201526000805160206156f4833981519152604482015290519081900360640190fd5b60098054600160a060020a031916600160a060020a0392909216919091179055565b612bc56127ee565b612c07576040805160e560020a62461bcd02815260206004820181905260248201526000805160206156f4833981519152604482015290519081900360640190fd5b565b600a5460019081108015612c46575033600160a060020a0316600a8281548110612c2f57fe5b600091825260209091200154600160a060020a0316145b612c845760405160e560020a62461bcd02815260040180806020018281038252602d81526020018061573c602d913960400191505060405180910390fd5b600b54841115612cde576040805160e560020a62461bcd02815260206004820152601b60248201527f626567696e4f7074696f6e2063616c63756c617465204572726f720000000000604482015290519081900360640190fd5b601154841115612cee5760118490555b60128690556013859055701d6329f1c35ca4bfabb9f560ffffffffff198312801590612d2b5750701d6329f1c35ca4bfabb9f56100000000008313155b612d7f576040805160e560020a62461bcd02815260206004820152601c60248201527f6f7074696f6e732066616c6c2063616c63756c617465206572726f7200000000604482015290519081900360640190fd5b701d6329f1c35ca4bfabb9f560ffffffffff198212158015612db25750701d6329f1c35ca4bfabb9f56100000000008213155b612e06576040805160e560020a62461bcd02815260206004820152601c60248201527f6f7074696f6e732066616c6c2063616c63756c617465206572726f7200000000604482015290519081900360640190fd5b50601480549290920390915560158054919091039055505050565b6000612e2b6127ee565b612e6d576040805160e560020a62461bcd02815260206004820181905260248201526000805160206156f4833981519152604482015290519081900360640190fd5b61224d600a8363ffffffff61484b16565b60008060155412612ed45760155460135490810190811015611e815760405160e560020a62461bcd02815260040180806020018281038252602a8152602001806157ae602a913960400191505060405180910390fd5b60006015546000039050806013541115611ea757601354039050611dbe565b612efb6127ee565b612f3d576040805160e560020a62461bcd02815260206004820181905260248201526000805160206156f4833981519152604482015290519081900360640190fd5b61260c60018263ffffffff61492116565b600754600160a060020a031690565b600080612f68611e2b565b612f70612e7e565b915091509091565b6005546004549091565b600b5490565b612f906127ee565b612fd2576040805160e560020a62461bcd02815260206004820181905260248201526000805160206156f4833981519152604482015290519081900360640190fd5b60068054600160a060020a031916600160a060020a0392909216919091179055565b600654600160a060020a031690565b600061300d6127ee565b61304f576040805160e560020a62461bcd02815260206004820181905260248201526000805160206156f4833981519152604482015290519081900360640190fd5b61224d60018363ffffffff6149e816565b600061224d8260018054806020026020016040519081016040528092919081815260200182805480156130de57602002820191906000526020600020906000905b82829054906101000a900463ffffffff1663ffffffff16815260200190600401906020826003010492830192600103820291508084116130a15790505b5050505050614ad890919063ffffffff16565b6130f96127ee565b61313b576040805160e560020a62461bcd02815260206004820181905260248201526000805160206156f4833981519152604482015290519081900360640190fd5b8051611e2790600a906020840190615569565b6131566127ee565b613198576040805160e560020a62461bcd02815260206004820181905260248201526000805160206156f4833981519152604482015290519081900360640190fd5b80600a83815481106131a657fe5b9060005260206000200160006101000a815481600160a060020a030219169083600160a060020a031602179055505050565b600160a060020a0381166000908152600d602090815260409182902080548351818402810184019094528084526060939283018282801561323857602002820191906000526020600020905b815481526020019060010190808311613224575b50505050509050919050565b6060600a805480602002602001604051908101604052809291908181526020018280548015611db657602002820191906000526020600020905b8154600160a060020a0316815260019091019060200180831161327e575050505050905090565b6132ad6127ee565b6132ef576040805160e560020a62461bcd02815260206004820181905260248201526000805160206156f4833981519152604482015290519081900360640190fd5b61260c81614b21565b600a5460019081108015613335575033600160a060020a0316600a828154811061331e57fe5b600091825260209091200154600160a060020a0316145b6133735760405160e560020a62461bcd02815260040180806020018281038252602d81526020018061573c602d913960400191505060405180910390fd5b601454601554600b54601154600090819081908190613394908690816116c2565b93509350935093508015612527576125278484848a8a612c09565b600160a060020a0383166000908152600d60205260409020546060908310613421576040805160e560020a62461bcd02815260206004820152601660248201527f696e7075742066726f6d206973206f766572666c6f7700000000000000000000604482015290519081900360640190fd5b60008211613479576040805160e560020a62461bcd02815260206004820152601260248201527f696e7075742073697a65206973207a65726f0000000000000000000000000000604482015290519081900360640190fd5b6060826040519080825280602002602001820160405280156134a5578160200160208202803883390190505b50600160a060020a0386166000908152600d602052604090205490915084840111156134ea57600160a060020a0385166000908152600d602052604090205484900392505b60005b8381101561354557600160a060020a0386166000908152600d60205260409020805486830190811061351b57fe5b906000526020600020015482828151811061353257fe5b60209081029190910101526001016134ed565b5090505b9392505050565b6000806000806135638660115487614bc4565b90965090506060613572613abd565b90506000805b878910156136c35760006135b7600b8b8154811061359257fe5b600091825260209091206003909102015465010000000000900463ffffffff16614c5f565b90506000613679600b8c815481106135cb57fe5b60009182526020918290206040805160e0810182526003909302909101805463ffffffff808216855260ff640100000000830416958501959095526501000000000081049094169183019190915267ffffffffffffffff604860020a840481166060840152608860020a90930490921660808201526001820154600160a060020a031660a082015260029091015460c0820152865187908590811061366c57fe5b6020026020010151614cf0565b9050600b8b8154811061368857fe5b6000918252602090912060039091020154640100000000900460ff166136b157928301926136b6565b918201915b5050600190980197613578565b9095509350909150509250925092565b6060600060608351604051908082528060200260200182016040528015613704578160200160208202803883390190505b509050600061371687600f5488614bc4565b90975090505b858710156138bf576000600b888154811061373357fe5b600091825260208083208b8452600c909152604083206002810154600390930290910180549094509092916137ad9167ffffffffffffffff80831692608860020a8304821692604860020a81048316927001000000000000000000000000000000009092049091169060ff64010000000090910416614d98565b600283015490915068010000000000000000900467ffffffffffffffff168110156138b157600282015482546801000000000000000090910467ffffffffffffffff16919091039060009061380c908a90600160a060020a0316614e65565b9050670de0b6b3a7640000846002015483856001015402028161382b57fe5b049150701d6329f1c35ca4bfabb9f56100000000008211156138815760405160e560020a62461bcd0281526004018080602001828103825260288152602001806157146028913960400191505060405180910390fd5b8186828151811061388e57fe5b6020026020010151018682815181106138a357fe5b602002602001018181525050505b50506001909701965061371c565b90925090505b935093915050565b60608082516040519080825280602002602001820160405280156138fb578160200160208202803883390190505b5090505b83851015611fb1576000600b868154811061391657fe5b90600052602060002090600302019050600081600201541115613a25576000868152600c60205260408120805490919061395a908790600160a060020a0316614e65565b90506000670de0b6b3a7640000846002015484600101548560020160089054906101000a900467ffffffffffffffff1667ffffffffffffffff1602028161399d57fe5b049050701d6329f1c35ca4bfabb9f56100000000008111156139f35760405160e560020a62461bcd0281526004018080602001828103825260288152602001806157146028913960400191505060405180910390fd5b80858381518110613a0057fe5b602002602001015101858381518110613a1557fe5b6020026020010181815250505050505b506001909401936138ff565b60008082118015613a445750600b548211155b613a98576040805160e560020a62461bcd02815260206004820152601660248201527f6f7074696f6e206964206973206e6f7420657869737400000000000000000000604482015290519081900360640190fd5b600b6001830381548110613aa857fe5b90600052602060002090600302019050919050565b600154604080518281526020808402820101909152606091908290828015613aef578160200160208202803883390190505b50905060005b82811015613b5557613b3660018281548110613b0d57fe5b6000918252602090912060088204015460079091166004026101000a900463ffffffff16613ea7565b828281518110613b4257fe5b6020908102919091010152600101613af5565b5091505090565b6060808351604051908082528060200260200182016040528015613b8a578160200160208202803883390190505b5090505b84861015613d20576000600b8781548110613ba557fe5b90600052602060002090600302019050428160000160099054906101000a900467ffffffffffffffff1667ffffffffffffffff161080613be757506002810154155b15613bf25750613d15565b8054600090613c0f9065010000000000900463ffffffff16614c5f565b6040805160e081018252845463ffffffff808216835260ff6401000000008304166020840152650100000000008204169282019290925267ffffffffffffffff604860020a830481166060830152608860020a90920490911660808201526001840154600160a060020a031660a0820152600284015460c082018190528751929350600092613cb3929190899086908110613ca657fe5b6020026020010151614eae565b90508015613d11576000898152600c602052604090208054613cdf908990600160a060020a0316614e65565b925081858481518110613cee57fe5b602002602001015103858481518110613d0357fe5b602002602001018181525050505b5050505b600190950194613b8e565b95945050505050565b600754604080517f41976e09000000000000000000000000000000000000000000000000000000008152600160a060020a0384811660048301529151600093849316916341976e09916024808301926020929190829003018186803b158015613d9157600080fd5b505afa158015613da5573d6000803e3d6000fd5b505050506040513d6020811015613dbb57600080fd5b5051905060648110801590613ddd57506c0c9f2c9cd04674edea400000008111155b61224d57600080fd5b42816060015167ffffffffffffffff161161260c576040805160e560020a62461bcd02815260206004820152601160248201527f6f7074696f6e2069732065787069726564000000000000000000000000000000604482015290519081900360640190fd5b808260c001511015611e27576040805160e560020a62461bcd02815260206004820152601d60248201527f6f7074696f6e20616d6f756e7420697320696e73756666696369656e74000000604482015290519081900360640190fd5b600754604080517fda6632570000000000000000000000000000000000000000000000000000000081526004810184905290516000928392600160a060020a039091169163da66325791602480820192602092909190829003018186803b158015613d9157600080fd5b600060ff8416158284111415613f2957506000613549565b60ff841615613f3a57818303613f3e565b8282035b9050613549565b6000613f5083613a31565b6040805160e081018252825463ffffffff808216835260ff6401000000008304166020840152650100000000008204169282019290925267ffffffffffffffff604860020a830481166060830152608860020a90920490911660808201526001820154600160a060020a031660a0820152600282015460c0820152909150613fd790613de6565b6040805160e081018252825463ffffffff808216835260ff6401000000008304166020840152650100000000008204169282019290925267ffffffffffffffff604860020a830481166060830152608860020a90920490911660808201526001820154600160a060020a031660a0820152600282015460c082015261405c9085614fde565b6040805160e081018252825463ffffffff808216835260ff6401000000008304166020840152650100000000008204169282019290925267ffffffffffffffff604860020a830481166060830152608860020a90920490911660808201526001820154600160a060020a031660a0820152600282015460c08201526140e19083613e4b565b60028101805483900390556040805183815290518491600160a060020a038716917f1fb99acdc281bccbecb3d0073a307341181a8a7d3cd532fdaef5ce7200401c2d9181900360200190a350505050565b6000826141528560200151866080015167ffffffffffffffff168561504b565b029050701d6329f1c35ca4bfabb9f56100000000008111156141a85760405160e560020a62461bcd02815260040180806020018281038252602a8152602001806156a4602a913960400191505060405180910390fd5b602084015160ff166141c2576014805482900390556141cc565b6015805482900390555b50505050565b60006141df858585614eae565b85516000190163ffffffff166000908152600c6020526040812060028101549293509168010000000000000000900467ffffffffffffffff168410614225576000614244565b600282015468010000000000000000900467ffffffffffffffff168490035b9050670de0b6b3a76400008682846001015402028161425f57fe5b8354919004915061427890600160a060020a0316613d29565b838161428057fe5b9254600160a060020a03166000908152601060205260409020805491909305919091030190555050505050565b614306828054806020026020016040519081016040528092919081815260200182805480156142fb57602002820191906000526020600020905b8154815260200190600101908083116142e7575b50505050508261480e565b611e275781546001810183556000928352602090922090910155565b8154600090815b8181101561435c578385828154811061433e57fe5b906000526020600020015414156143545761435c565b600101614329565b818110156143bd576001820381146143a15784600183038154811061437d57fe5b906000526020600020015485828154811061439457fe5b6000918252602090912001555b84546143b18660001983016155ca565b5060019250505061224d565b506000949350505050565b600b54600090816143d887615069565b905060006143e588615076565b9050600b6040518060e001604052808560010163ffffffff1681526020018460ff1681526020018363ffffffff168152602001426144228c61508f565b0167ffffffffffffffff1681526020018967ffffffffffffffff1681526020018c600160a060020a03168152602001878152509080600181540180825580915050906001820390600052602060002090600302016000909192909190915060008201518160000160006101000a81548163ffffffff021916908363ffffffff16021790555060208201518160000160046101000a81548160ff021916908360ff16021790555060408201518160000160056101000a81548163ffffffff021916908363ffffffff16021790555060608201518160000160096101000a81548167ffffffffffffffff021916908367ffffffffffffffff16021790555060808201518160000160116101000a81548167ffffffffffffffff021916908367ffffffffffffffff16021790555060a08201518160010160006101000a815481600160a060020a030219169083600160a060020a0316021790555060c08201518160020155505050600d60008b600160a060020a0316600160a060020a031681526020019081526020016000208360010190806001815401808255809150509060018203906000526020600020016000909192909190915055506000614686600b85815481106145eb57fe5b60009182526020918290206040805160e0810182526003909302909101805463ffffffff808216855260ff640100000000830416958501959095526501000000000081049094169183019190915267ffffffffffffffff604860020a840481166060840152608860020a90930490921660808201526001820154600160a060020a031660a082015260029091015460c08201528b898b6150b0565b905061469484600101615392565b836001018b600160a060020a03167f18f523957030bee670136363e25b2f847bf1bd07bb7b33c6d5475936a9aac70d8585426146cf8f61508f565b6040805160ff909516855263ffffffff9093166020850152018282015260608201869052608082018c9052519081900360a00190a39a9950505050505050505050565b80516000190163ffffffff166000908152600c60205260408120600281015490919061474990849067ffffffffffffffff16614cf0565b9050826020015160ff1660001415614768576014805482019055614771565b60158054820190555b505050565b6147d9828054806020026020016040519081016040528092919081815260200182805480156147ce57602002820191906000526020600020905b8154600160a060020a031681526001909101906020018083116147b0575b5050505050826153a5565b611e27578154600181018355600083815260209020018054600160a060020a038316600160a060020a03199091161790555050565b8151600090815b818110156143bd578385828151811061482a57fe5b602002602001015114156148435760019250505061224d565b600101614815565b8154600090815b818110156148985783600160a060020a031685828154811061487057fe5b600091825260209091200154600160a060020a0316141561489057614898565b600101614852565b818110156143bd576001820381146143a1578460018303815481106148b957fe5b9060005260206000200160009054906101000a9004600160a060020a03168582815481106148e357fe5b9060005260206000200160006101000a815481600160a060020a030219169083600160a060020a0316021790555084546143b18660001983016155ca565b6149a68280548060200260200160405190810160405280929190818152602001828054801561499b57602002820191906000526020600020906000905b82829054906101000a900463ffffffff1663ffffffff168152602001906004019060208260030104928301926001038202915080841161495e5790505b505050505082614ad8565b611e27578154600181018355600092835260209092206008830401805460079093166004026101000a63ffffffff818102199094169290931692909202179055565b8154600090815b81811015614a41578363ffffffff16858281548110614a0a57fe5b6000918252602090912060088204015460079091166004026101000a900463ffffffff161415614a3957614a41565b6001016149ef565b818110156143bd57600182038114614ac857846001830381548110614a6257fe5b90600052602060002090600891828204019190066004029054906101000a900463ffffffff16858281548110614a9457fe5b90600052602060002090600891828204019190066004026101000a81548163ffffffff021916908363ffffffff1602179055505b84546143b18660001983016155ee565b8151600090815b818110156143bd578363ffffffff16858281518110614afa57fe5b602002602001015163ffffffff161415614b195760019250505061224d565b600101614adf565b600160a060020a038116614b695760405160e560020a62461bcd0281526004018080602001828103825260268152602001806156ce6026913960400191505060405180910390fd5b60008054604051600160a060020a03808516939216917f8be0079c531659141344cd1fd0a4f28419497f9722a3daafe3b4186f6b6457e091a360008054600160a060020a031916600160a060020a0392909216919091179055565b6000808380861115614bda5785925090506138c5565b8095505b83861015614c53576000600b8781548110614bf557fe5b90600052602060002090600302019050428160000160099054906101000a900467ffffffffffffffff1667ffffffffffffffff161080614c3757506002810154155b15614c425750614c48565b50614c53565b600190950194614bde565b50939485945092505050565b600061224d826001805480602002602001604051908101604052809291908181526020018280548015614cdd57602002820191906000526020600020906000905b82829054906101000a900463ffffffff1663ffffffff1681526020019060040190602082600301049283019260010382029150808411614ca05790505b50505050506153f490919063ffffffff16565b600042836060015167ffffffffffffffff16111580614d11575060c0830151155b15614d1e5750600061224d565b60008360c00151614d428560200151866080015167ffffffffffffffff168661504b565b029050701d6329f1c35ca4bfabb9f56100000000008111156135495760405160e560020a62461bcd02815260040180806020018281038252602a8152602001806156a4602a913960400191505060405180910390fd5b600042841115614e5957600954604080517f62df80ce000000000000000000000000000000000000000000000000000000008152600481018990526024810188905242870360448201526064810186905260ff851660848201529051600160a060020a03909216916362df80ce9160a480820192602092909190829003018186803b158015614e2657600080fd5b505afa158015614e3a573d6000803e3d6000fd5b505050506040513d6020811015614e5057600080fd5b50519050613d20565b50600095945050505050565b8151600090815b81811015611fb15783600160a060020a0316858281518110614e8a57fe5b6020026020010151600160a060020a03161415614ea657611fb1565b600101614e6c565b600042846060015167ffffffffffffffff16111580614ecb575082155b15614ed857506000613549565b600083614ef88660200151876080015167ffffffffffffffff1686613f11565b86516000190163ffffffff166000908152600c6020908152604082209089015160808a01516002830154949095029550909391928892614f46929167ffffffffffffffff9182169116613f11565b029050808303701d6329f1c35ca4bfabb9f560ffffffffff198112801590614f7f5750701d6329f1c35ca4bfabb9f56100000000008113155b614fd3576040805160e560020a62461bcd02815260206004820152601c60248201527f6f7074696f6e732066616c6c2063616c63756c617465206572726f7200000000604482015290519081900360640190fd5b979650505050505050565b80600160a060020a03168260a00151600160a060020a031614611e27576040805160e560020a62461bcd02815260206004820152601f60248201527f63616c6c6572206973206e6f7420746865206f7074696f6e73206f776e657200604482015290519081900360640190fd5b600060ff8416158284111415615062575081613549565b5080613549565b67ffffffffffffffff1690565b68010000000000000000900467ffffffffffffffff1690565b700100000000000000000000000000000000900467ffffffffffffffff1690565b6000806150c6866040015163ffffffff16613ea7565b60608701516008546040808a01516020808c015183517f185d123200000000000000000000000000000000000000000000000000000000815263ffffffff909316600484015260ff1660248301524267ffffffffffffffff9095169490940360448201819052606482018690526084820189905291519495509093600093600160a060020a039093169263185d12329260a48082019391829003018186803b15801561517157600080fd5b505afa158015615185573d6000803e3d6000fd5b505050506040513d602081101561519b57600080fd5b505160095460208a810151604080517f62df80ce00000000000000000000000000000000000000000000000000000000815260048101899052602481018b9052604481018890526064810186905260ff909216608483015251939450600093600160a060020a03909316926362df80ce9260a480840193919291829003018186803b15801561522957600080fd5b505afa15801561523d573d6000803e3d6000fd5b505050506040513d602081101561525357600080fd5b50519050600061526289613d29565b640100000000670de0b6b3a76400008a02048161527b57fe5b6040805160a081018252600160a060020a039c8d16815292909104602080840191825267ffffffffffffffff988916848401908152868a1660608601908152978a16608086019081529e5163ffffffff600019909101166000908152600c909252929020925183549c16600160a060020a0319909c169b909b1782559951600182015598516002909901805493519a5186167001000000000000000000000000000000000277ffffffffffffffff00000000000000000000000000000000199b871668010000000000000000026fffffffffffffffff0000000000000000199b90971667ffffffffffffffff1990951694909417999099169490941798909816179095555050640100000000919093020492915050565b6000908152600260205260409020429055565b8151600090815b818110156143bd5783600160a060020a03168582815181106153ca57fe5b6020026020010151600160a060020a031614156153ec5760019250505061224d565b6001016153ac565b8151600090815b81811015611fb1578363ffffffff1685828151811061541657fe5b602002602001015163ffffffff16141561542f57611fb1565b6001016153fb565b6040805160e081018252600080825260208201819052918101829052606081018290526080810182905260a0810182905260c081019190915290565b8280548282559060005260206000209081019282156154b5579160200282015b828111156154b5578251829062ffffff16905591602001919060010190615493565b50611eb192915061561e565b8280548282559060005260206000209060070160089004810192821561555d5791602002820160005b8382111561552b57835183826101000a81548163ffffffff021916908360ff16021790555092602001926004016020816003010492830192600103026154ea565b801561555b5782816101000a81549063ffffffff021916905560040160208160030104928301926001030261552b565b505b50611eb1929150615638565b8280548282559060005260206000209081019282156155be579160200282015b828111156155be5782518254600160a060020a031916600160a060020a03909116178255602090920191600190910190615589565b50611eb1929150615659565b8154818355818111156147715760008381526020902061477191810190830161561e565b81548183558181111561477157600701600890048160070160089004836000526020600020918201910161477191905b611dbe91905b80821115611eb15760008155600101615624565b611dbe91905b80821115611eb157805463ffffffff1916815560010161563e565b611dbe91905b80821115611eb1578054600160a060020a031916815560010161565f56fe4d616e6167657261626c653a2063616c6c6572206973206e6f7420746865204d616e616765724f7074696f6e20636f6c6c61746572616c206f636375706965642063616c63756c617465206572726f724f776e61626c653a206e6577206f776e657220697320746865207a65726f20616464726573734f776e61626c653a2063616c6c6572206973206e6f7420746865206f776e65726f7074696f6e2074696d65207368617265642076616c75652063616c63756c617465206572726f724f70657261746f723a2063616c6c6572206973206e6f742074686520656c696769626c65204f70657261746f7265787069726174696f6e2076616c7565206973206e6f7420737570706f72746564696e70757420616d6f756e74206973206c6172676572207468616e206d6178696d69756d546f74616c4f63637570696564436f6c6c61746572616c2063616c63756c617465206f766572666c6f77a265627a7a72315820e34987f6ce577a188b38de8b04a5662bdaeaf525b247b443923e533e8bc61c3064736f6c63430005100032",
  "source": "pragma solidity =0.5.16;\r\nimport \"./OptionsNetWorthCal.sol\";\r\n/**\r\n * @title Options pool contract.\r\n * @dev store options' information and nessesary options' calculation.\r\n *\r\n */\r\ncontract OptionsPool is OptionsNetWorthCal {\r\n    /**\r\n     * @dev constructor function , setting contract address.\r\n     * @param oracleAddr FNX oracle contract address\r\n     * @param optionsPriceAddr options price contract address\r\n     * @param ivAddress implied volatility contract address\r\n     */  \r\n    constructor (address oracleAddr,address optionsPriceAddr,address ivAddress)public{\r\n        _oracle = IFNXOracle(oracleAddr);\r\n        _optionsPrice = IOptionsPrice(optionsPriceAddr);\r\n        _volatility = IVolatility(ivAddress);\r\n    }\r\n    function update() onlyOwner public {\r\n        \r\n    }\r\n    /**\r\n     * @dev retrieve all information for collateral occupied and net worth calculation.\r\n     * @param whiteList settlement address whitelist.\r\n     */ \r\n    function getOptionCalRangeAll(address[] memory whiteList)public view returns(uint256,int256,int256,uint256,int256[] memory,uint256,uint256){\r\n        (uint256 occupiedFirst,int256 callOccupiedlatest,int256 putOccupiedlatest) = getOccupiedCalInfo();\r\n        (uint256 netFirst,int256[] memory netLatest) = getNetWrothCalInfo(whiteList);\r\n        return (occupiedFirst,callOccupiedlatest,putOccupiedlatest,netFirst,netLatest,allOptions.length,block.number);\r\n    }\r\n    /**\r\n     * @dev create new option,modify collateral occupied and net worth value, only manager contract can invoke this.\r\n     * @param from user's address.\r\n     * @param settlement user's input settlement coin.\r\n     * @param type_ly_exp tuple64 for option type,underlying,expiration.\r\n     * @param strikePrice user's input new option's strike price.\r\n     * @param priceRate current new option's price, calculated by options price contract.\r\n     * @param amount user's input new option's amount.\r\n     */ \r\n    function createOptions(address from,address settlement,uint256 type_ly_exp,uint256 strikePrice,uint256 priceRate,\r\n                uint256 amount) onlyManager  Smaller(amount) public returns (uint256){\r\n        uint256 price = _createOptions(from,settlement,type_ly_exp,strikePrice,priceRate,amount);\r\n        OptionsInfo memory info = _getOptionsById(allOptions.length);\r\n        _addOptionsCollateral(info);\r\n        return price;\r\n//        _addNewOptionsNetworth(info);\r\n    }\r\n    /**\r\n     * @dev burn option,modify collateral occupied and net worth value, only manager contract can invoke this.\r\n     * @param from user's address.\r\n     * @param id user's input option's id.\r\n     * @param amount user's input burned option's amount.\r\n     * @param optionPrice current new option's price, calculated by options price contract.\r\n     */ \r\n    function burnOptions(address from,uint256 id,uint256 amount,uint256 optionPrice)public onlyManager Smaller(amount) OutLimitation(id){\r\n        _burnOptions(from,id,amount);\r\n        OptionsInfo memory info = _getOptionsById(id);\r\n        uint256 currentPrice = oracleUnderlyingPrice(info.underlying);\r\n        _burnOptionsCollateral(info,amount,currentPrice);\r\n        _burnOptionsNetworth(info,amount,currentPrice,optionPrice);\r\n    }\r\n}",
  "sourcePath": "C:\\work\\solidity\\FinnexusOptions_V2\\contracts\\OptionsPool\\OptionsPool.sol",
  "compiler": {
    "name": "solc",
    "version": "0.5.16+commit.9c3226ce.Emscripten.clang"
  },
  "schemaVersion": "3.1.0",
  "updatedAt": "2020-10-15T03:03:37.714Z",
  "devdoc": {
    "details": "store options' information and nessesary options' calculation.  ",
    "methods": {
      "addExpiration(uint256)": {
        "details": "Implementation of add an eligible expiration into the expirationList.",
        "params": {
          "expiration": "new eligible expiration."
        }
      },
      "addOperator(address)": {
        "details": "add a new operator by owner.       "
      },
      "addUnderlyingAsset(uint32)": {
        "details": "Implementation of add an eligible underlying into the underlyingAssets.",
        "params": {
          "underlying": "new eligible underlying."
        }
      },
      "burnOptions(address,uint256,uint256,uint256)": {
        "details": "burn option,modify collateral occupied and net worth value, only manager contract can invoke this.",
        "params": {
          "amount": "user's input burned option's amount.",
          "from": "user's address.",
          "id": "user's input option's id.",
          "optionPrice": "current new option's price, calculated by options price contract."
        }
      },
      "buyOptionCheck(uint256,uint32)": {
        "details": "check option's underlying and expiration.",
        "params": {
          "expiration": "option's expiration",
          "underlying": "option's underlying"
        }
      },
      "calRangeSharedPayment(uint256,uint256,uint256,address[])": {
        "details": "calculate options time shared value,from begin to end in the alloptionsList.",
        "params": {
          "begin": "the begin options position.",
          "end": "the end options position.",
          "lastOption": "the last option position.",
          "whiteList": "eligible collateral address white list."
        }
      },
      "calculatePhaseOccupiedCollateral(uint256,uint256,uint256)": {
        "details": "calculate collateral occupied value.",
        "params": {
          "beginOption": "begin option's poisiton.",
          "endOption": "end option's poisiton.",
          "lastOption": "last option's position."
        }
      },
      "calculatePhaseOptionsFall(uint256,uint256,uint256,address[])": {
        "details": "calculate options payback fall value,from begin to end in the alloptionsList.",
        "params": {
          "begin": "the begin options position.",
          "end": "the end options position.",
          "lastOption": "the last option position.",
          "whiteList": "eligible collateral address white list."
        }
      },
      "checkExpiration(uint256)": {
        "details": "check option's expiration.",
        "params": {
          "expiration": "option's expiration"
        }
      },
      "constructor": {
        "details": "constructor function , setting contract address.",
        "params": {
          "ivAddress": "implied volatility contract address",
          "optionsPriceAddr": "options price contract address",
          "oracleAddr": "FNX oracle contract address"
        }
      },
      "createOptions(address,address,uint256,uint256,uint256,uint256)": {
        "details": "create new option,modify collateral occupied and net worth value, only manager contract can invoke this.",
        "params": {
          "amount": "user's input new option's amount.",
          "from": "user's address.",
          "priceRate": "current new option's price, calculated by options price contract.",
          "settlement": "user's input settlement coin.",
          "strikePrice": "user's input new option's strike price.",
          "type_ly_exp": "tuple64 for option type,underlying,expiration."
        }
      },
      "getBurnedFullPay(uint256,uint256)": {
        "details": "calculate `amount` number of Option's full price when option is burned.",
        "params": {
          "amount": "option's amount",
          "optionID": "option's optionID"
        }
      },
      "getCallTotalOccupiedCollateral()": {
        "details": "get call options total collateral occupied value."
      },
      "getExerciseWorth(uint256,uint256)": {
        "details": "calculate option's exercise worth.",
        "params": {
          "amount": "option's amount",
          "optionsId": "option's id"
        }
      },
      "getExpirationList()": {
        "details": "Implementation of getting the eligible expirationList."
      },
      "getInputAmountRange()": {
        "details": "get the valid range of input amount"
      },
      "getItemTimeLimitation(uint256)": {
        "details": "Retrieve user's start time for burning. ",
        "params": {
          "item": "item key."
        }
      },
      "getManager()": {
        "details": "get manager address.       "
      },
      "getNetWrothCalInfo(address[])": {
        "details": "retrieve all information for net worth calculation. ",
        "params": {
          "whiteList": "collateral address whitelist."
        }
      },
      "getNetWrothLatestWorth(address)": {
        "details": "retrieve latest options net worth which paid in settlement coin. ",
        "params": {
          "settlement": "settlement coin address."
        }
      },
      "getOccupiedCalInfo()": {
        "details": "retrieve collateral occupied calculation information."
      },
      "getOperator()": {
        "details": "get all operators.       "
      },
      "getOptionCalRangeAll(address[])": {
        "details": "retrieve all information for collateral occupied and net worth calculation.",
        "params": {
          "whiteList": "settlement address whitelist."
        }
      },
      "getOptionInfoLength()": {
        "details": "retrieve all option list length. "
      },
      "getOptionInfoList(uint256,uint256)": {
        "details": "retrieve `size` number of options' information. ",
        "params": {
          "from": "all option list begin positon.",
          "size": "retrieve size."
        }
      },
      "getOptionInfoListFromID(uint256[])": {
        "details": "retrieve given `ids` options' information. ",
        "params": {
          "ids": "retrieved options' id."
        }
      },
      "getOptionsById(uint256)": {
        "details": "retrieve given `optionsId` option's information. ",
        "params": {
          "optionsId": "retrieved option's id."
        }
      },
      "getOptionsExtraById(uint256)": {
        "details": "retrieve given `optionsId` option's extra information. ",
        "params": {
          "optionsId": "retrieved option's id."
        }
      },
      "getOptionsLimitTimeById(uint256)": {
        "details": "retrieve given `optionsId` option's burned limit timestamp. ",
        "params": {
          "optionsId": "retrieved option's id."
        }
      },
      "getPutTotalOccupiedCollateral()": {
        "details": "get put options total collateral occupied value."
      },
      "getTotalOccupiedCollateral()": {
        "details": "get real total collateral occupied value."
      },
      "getUnderlyingAssets()": {
        "details": "Implementation of getting the eligible underlyingAssets."
      },
      "getUserOptionsID(address)": {
        "details": "retrieve user's options' id. ",
        "params": {
          "user": "user's account."
        }
      },
      "getUserOptionsID(address,uint256,uint256)": {
        "details": "retrieve user's `size` number of options' id. ",
        "params": {
          "from": "user's option list begin positon.",
          "size": "retrieve size.",
          "user": "user's account."
        }
      },
      "isEligibleExpiration(uint256)": {
        "details": "Implementation of testing whether the input expiration is eligible.",
        "params": {
          "expiration": "input expiration for testing."
        }
      },
      "isEligibleUnderlyingAsset(uint32)": {
        "details": "Implementation of testing whether the input underlying is eligible.",
        "params": {
          "underlying": "input underlying for testing."
        }
      },
      "isInputAmountInRange(uint256)": {
        "details": "Determine whether the input amount is within the valid range",
        "params": {
          "Amount": "Test value which is user input"
        }
      },
      "isOwner()": {
        "details": "Returns true if the caller is the current owner."
      },
      "owner()": {
        "details": "Returns the address of the current owner."
      },
      "removeExpirationList(uint256)": {
        "details": "Implementation of revoke an invalid expiration from the expirationList.",
        "params": {
          "removeExpiration": "revoked expiration."
        }
      },
      "removeOperator(address)": {
        "details": "remove operator by owner.       "
      },
      "removeUnderlyingAssets(uint32)": {
        "details": "Implementation of revoke an invalid underlying from the underlyingAssets.",
        "params": {
          "removeUnderlying": "revoked underlying."
        }
      },
      "renounceOwnership()": {
        "details": "Leaves the contract without owner. It will not be possible to call `onlyOwner` functions anymore. Can only be called by the current owner.      * NOTE: Renouncing ownership will leave the contract without an owner, thereby removing any functionality that is only available to the owner."
      },
      "setCollateralPhase(uint256,uint256,uint256,int256,int256)": {
        "details": "set collateral occupied value, only foundation operator can modify database.",
        "params": {
          "beginOption": "new first valid option's positon.",
          "latestCallOccpied": "latest call options' occupied value when operater invoke collateral occupied calculation.",
          "latestPutOccpied": "latest put options' occupied value when operater invoke collateral occupied calculation.",
          "totalCallOccupied": "new call options occupied collateral calculation result.",
          "totalPutOccupied": "new put options occupied collateral calculation result."
        }
      },
      "setInputAmountRange(uint256,uint256)": {
        "details": "set the valid range of input amount",
        "params": {
          "_maxAmount": "the maximum input amount limit",
          "_minAmount": "the minimum input amount limit"
        }
      },
      "setManager(address)": {
        "details": "set manager by owner.       "
      },
      "setOccupiedCollateral()": {
        "details": "calculate collateral occupied value, and modify database, only foundation operator can modify database."
      },
      "setOperator(uint256,address)": {
        "details": "modify indexed operator by owner.       "
      },
      "setOperators(address[])": {
        "details": "set all operators by owner.       "
      },
      "setSharedState(uint256,int256[],address[])": {
        "details": "set latest options net worth balance, only manager contract can modify database.",
        "params": {
          "latestNetWorth": "latest options net worth.",
          "newFirstOption": "new first valid option position.",
          "whiteList": "eligible collateral address white list."
        }
      },
      "setTimeLimitation(uint256)": {
        "details": "set time limitation, only owner can invoke. ",
        "params": {
          "_limitation": "new time limitation."
        }
      },
      "transferOwnership(address)": {
        "details": "Transfers ownership of the contract to a new account (`newOwner`). Can only be called by the current owner."
      }
    },
    "title": "Options pool contract."
  },
  "userdoc": {
    "methods": {}
  }
}