{
  "contractName": "OptionsBase",
  "abi": [
    {
      "constant": false,
      "inputs": [
        {
          "name": "volatility",
          "type": "address"
        }
      ],
      "name": "setVolatilityAddress",
      "outputs": [],
      "payable": false,
      "stateMutability": "nonpayable",
      "type": "function"
    },
    {
      "constant": true,
      "inputs": [],
      "name": "getUnderlyingAssets",
      "outputs": [
        {
          "name": "",
          "type": "uint32[]"
        }
      ],
      "payable": false,
      "stateMutability": "view",
      "type": "function"
    },
    {
      "constant": true,
      "inputs": [
        {
          "name": "",
          "type": "uint256"
        }
      ],
      "name": "expirationList",
      "outputs": [
        {
          "name": "",
          "type": "uint256"
        }
      ],
      "payable": false,
      "stateMutability": "view",
      "type": "function"
    },
    {
      "constant": true,
      "inputs": [
        {
          "name": "",
          "type": "uint256"
        }
      ],
      "name": "underlyingAssets",
      "outputs": [
        {
          "name": "",
          "type": "uint32"
        }
      ],
      "payable": false,
      "stateMutability": "view",
      "type": "function"
    },
    {
      "constant": true,
      "inputs": [],
      "name": "getVolatilityAddress",
      "outputs": [
        {
          "name": "",
          "type": "address"
        }
      ],
      "payable": false,
      "stateMutability": "view",
      "type": "function"
    },
    {
      "constant": false,
      "inputs": [
        {
          "name": "oracle",
          "type": "address"
        }
      ],
      "name": "setOracleAddress",
      "outputs": [],
      "payable": false,
      "stateMutability": "nonpayable",
      "type": "function"
    },
    {
      "constant": true,
      "inputs": [
        {
          "name": "",
          "type": "address"
        },
        {
          "name": "",
          "type": "uint256"
        }
      ],
      "name": "optionsBalances",
      "outputs": [
        {
          "name": "",
          "type": "uint256"
        }
      ],
      "payable": false,
      "stateMutability": "view",
      "type": "function"
    },
    {
      "constant": true,
      "inputs": [],
      "name": "getOptionsPriceAddress",
      "outputs": [
        {
          "name": "",
          "type": "address"
        }
      ],
      "payable": false,
      "stateMutability": "view",
      "type": "function"
    },
    {
      "constant": false,
      "inputs": [],
      "name": "renounceOwnership",
      "outputs": [],
      "payable": false,
      "stateMutability": "nonpayable",
      "type": "function"
    },
    {
      "constant": true,
      "inputs": [],
      "name": "owner",
      "outputs": [
        {
          "name": "",
          "type": "address"
        }
      ],
      "payable": false,
      "stateMutability": "view",
      "type": "function"
    },
    {
      "constant": true,
      "inputs": [
        {
          "name": "",
          "type": "uint256"
        }
      ],
      "name": "allOptions",
      "outputs": [
        {
          "name": "optionID",
          "type": "uint64"
        },
        {
          "name": "owner",
          "type": "address"
        },
        {
          "name": "optType",
          "type": "uint8"
        },
        {
          "name": "underlying",
          "type": "uint32"
        },
        {
          "name": "expiration",
          "type": "uint256"
        },
        {
          "name": "strikePrice",
          "type": "uint256"
        },
        {
          "name": "amount",
          "type": "uint256"
        }
      ],
      "payable": false,
      "stateMutability": "view",
      "type": "function"
    },
    {
      "constant": true,
      "inputs": [],
      "name": "isOwner",
      "outputs": [
        {
          "name": "",
          "type": "bool"
        }
      ],
      "payable": false,
      "stateMutability": "view",
      "type": "function"
    },
    {
      "constant": false,
      "inputs": [
        {
          "name": "optionsPrice",
          "type": "address"
        }
      ],
      "name": "setOptionsPriceAddress",
      "outputs": [],
      "payable": false,
      "stateMutability": "nonpayable",
      "type": "function"
    },
    {
      "constant": false,
      "inputs": [
        {
          "name": "underlying",
          "type": "uint32"
        }
      ],
      "name": "addUnderlyingAsset",
      "outputs": [],
      "payable": false,
      "stateMutability": "nonpayable",
      "type": "function"
    },
    {
      "constant": true,
      "inputs": [],
      "name": "getOracleAddress",
      "outputs": [
        {
          "name": "",
          "type": "address"
        }
      ],
      "payable": false,
      "stateMutability": "view",
      "type": "function"
    },
    {
      "constant": false,
      "inputs": [
        {
          "name": "managerAddress",
          "type": "address"
        }
      ],
      "name": "setManager",
      "outputs": [],
      "payable": false,
      "stateMutability": "nonpayable",
      "type": "function"
    },
    {
      "constant": true,
      "inputs": [],
      "name": "getManager",
      "outputs": [
        {
          "name": "",
          "type": "address"
        }
      ],
      "payable": false,
      "stateMutability": "view",
      "type": "function"
    },
    {
      "constant": false,
      "inputs": [
        {
          "name": "removeUnderlying",
          "type": "uint32"
        }
      ],
      "name": "removeUnderlyingAssets",
      "outputs": [
        {
          "name": "",
          "type": "bool"
        }
      ],
      "payable": false,
      "stateMutability": "nonpayable",
      "type": "function"
    },
    {
      "constant": true,
      "inputs": [
        {
          "name": "underlying",
          "type": "uint32"
        }
      ],
      "name": "isEligibleUnderlyingAsset",
      "outputs": [
        {
          "name": "",
          "type": "bool"
        }
      ],
      "payable": false,
      "stateMutability": "view",
      "type": "function"
    },
    {
      "constant": true,
      "inputs": [
        {
          "name": "underlying",
          "type": "uint32"
        }
      ],
      "name": "checkUnderlyingAsset",
      "outputs": [],
      "payable": false,
      "stateMutability": "view",
      "type": "function"
    },
    {
      "constant": false,
      "inputs": [
        {
          "name": "newOwner",
          "type": "address"
        }
      ],
      "name": "transferOwnership",
      "outputs": [],
      "payable": false,
      "stateMutability": "nonpayable",
      "type": "function"
    },
    {
      "inputs": [
        {
          "name": "oracleAddr",
          "type": "address"
        },
        {
          "name": "optionsPriceAddr",
          "type": "address"
        },
        {
          "name": "ivAddress",
          "type": "address"
        }
      ],
      "payable": false,
      "stateMutability": "nonpayable",
      "type": "constructor"
    },
    {
      "anonymous": false,
      "inputs": [
        {
          "indexed": true,
          "name": "owner",
          "type": "address"
        },
        {
          "indexed": true,
          "name": "optionID",
          "type": "uint256"
        },
        {
          "indexed": false,
          "name": "optType",
          "type": "uint8"
        },
        {
          "indexed": false,
          "name": "underlying",
          "type": "uint32"
        },
        {
          "indexed": false,
          "name": "expiration",
          "type": "uint256"
        },
        {
          "indexed": false,
          "name": "strikePrice",
          "type": "uint256"
        },
        {
          "indexed": false,
          "name": "amount",
          "type": "uint256"
        }
      ],
      "name": "CreateOption",
      "type": "event"
    },
    {
      "anonymous": false,
      "inputs": [
        {
          "indexed": true,
          "name": "owner",
          "type": "address"
        },
        {
          "indexed": true,
          "name": "optionID",
          "type": "uint256"
        },
        {
          "indexed": false,
          "name": "amount",
          "type": "uint256"
        }
      ],
      "name": "BurnOption",
      "type": "event"
    },
    {
      "anonymous": false,
      "inputs": [
        {
          "indexed": false,
          "name": "value1",
          "type": "uint256"
        },
        {
          "indexed": false,
          "name": "value2",
          "type": "uint256"
        },
        {
          "indexed": false,
          "name": "value3",
          "type": "uint256"
        }
      ],
      "name": "DebugEvent",
      "type": "event"
    },
    {
      "anonymous": false,
      "inputs": [
        {
          "indexed": true,
          "name": "previousOwner",
          "type": "address"
        },
        {
          "indexed": true,
          "name": "newOwner",
          "type": "address"
        }
      ],
      "name": "OwnershipTransferred",
      "type": "event"
    },
    {
      "constant": true,
      "inputs": [
        {
          "name": "user",
          "type": "address"
        }
      ],
      "name": "getUserOptionsID",
      "outputs": [
        {
          "name": "",
          "type": "uint256[]"
        }
      ],
      "payable": false,
      "stateMutability": "view",
      "type": "function"
    },
    {
      "constant": true,
      "inputs": [],
      "name": "getOptionInfoLength",
      "outputs": [
        {
          "name": "",
          "type": "uint256"
        }
      ],
      "payable": false,
      "stateMutability": "view",
      "type": "function"
    },
    {
      "constant": true,
      "inputs": [
        {
          "name": "from",
          "type": "uint256"
        },
        {
          "name": "size",
          "type": "uint256"
        }
      ],
      "name": "getOptionInfoList",
      "outputs": [
        {
          "name": "",
          "type": "address[]"
        },
        {
          "name": "",
          "type": "uint256[]"
        },
        {
          "name": "",
          "type": "uint256[]"
        },
        {
          "name": "",
          "type": "uint256[]"
        },
        {
          "name": "",
          "type": "uint256[]"
        }
      ],
      "payable": false,
      "stateMutability": "view",
      "type": "function"
    },
    {
      "constant": true,
      "inputs": [
        {
          "name": "ids",
          "type": "uint256[]"
        }
      ],
      "name": "getOptionInfoListFromID",
      "outputs": [
        {
          "name": "",
          "type": "address[]"
        },
        {
          "name": "",
          "type": "uint256[]"
        },
        {
          "name": "",
          "type": "uint256[]"
        },
        {
          "name": "",
          "type": "uint256[]"
        },
        {
          "name": "",
          "type": "uint256[]"
        }
      ],
      "payable": false,
      "stateMutability": "view",
      "type": "function"
    },
    {
      "constant": true,
      "inputs": [],
      "name": "getLatestOption",
      "outputs": [
        {
          "name": "",
          "type": "uint256"
        },
        {
          "name": "",
          "type": "address"
        },
        {
          "name": "",
          "type": "uint8"
        },
        {
          "name": "",
          "type": "uint32"
        },
        {
          "name": "",
          "type": "uint256"
        },
        {
          "name": "",
          "type": "uint256"
        },
        {
          "name": "",
          "type": "uint256"
        }
      ],
      "payable": false,
      "stateMutability": "view",
      "type": "function"
    },
    {
      "constant": true,
      "inputs": [
        {
          "name": "optionsId",
          "type": "uint256"
        }
      ],
      "name": "getOptionsById",
      "outputs": [
        {
          "name": "",
          "type": "uint256"
        },
        {
          "name": "",
          "type": "address"
        },
        {
          "name": "",
          "type": "uint8"
        },
        {
          "name": "",
          "type": "uint32"
        },
        {
          "name": "",
          "type": "uint256"
        },
        {
          "name": "",
          "type": "uint256"
        },
        {
          "name": "",
          "type": "uint256"
        }
      ],
      "payable": false,
      "stateMutability": "view",
      "type": "function"
    },
    {
      "constant": false,
      "inputs": [
        {
          "name": "from",
          "type": "address"
        },
        {
          "name": "settlement",
          "type": "address"
        },
        {
          "name": "type_ly_exp",
          "type": "uint256"
        },
        {
          "name": "strikePrice",
          "type": "uint256"
        },
        {
          "name": "underlyingPrice",
          "type": "uint256"
        },
        {
          "name": "amount",
          "type": "uint256"
        }
      ],
      "name": "createOptions",
      "outputs": [],
      "payable": false,
      "stateMutability": "nonpayable",
      "type": "function"
    },
    {
      "constant": true,
      "inputs": [
        {
          "name": "optionsId",
          "type": "uint256"
        },
        {
          "name": "amount",
          "type": "uint256"
        }
      ],
      "name": "getExerciseWorth",
      "outputs": [
        {
          "name": "",
          "type": "uint256"
        }
      ],
      "payable": false,
      "stateMutability": "view",
      "type": "function"
    },
    {
      "constant": true,
      "inputs": [
        {
          "name": "expiration",
          "type": "uint256"
        },
        {
          "name": "underlying",
          "type": "uint32"
        }
      ],
      "name": "buyOptionCheck",
      "outputs": [],
      "payable": false,
      "stateMutability": "view",
      "type": "function"
    },
    {
      "constant": false,
      "inputs": [
        {
          "name": "expiration",
          "type": "uint256"
        }
      ],
      "name": "addExpiration",
      "outputs": [],
      "payable": false,
      "stateMutability": "nonpayable",
      "type": "function"
    },
    {
      "constant": false,
      "inputs": [
        {
          "name": "removeExpiration",
          "type": "uint256"
        }
      ],
      "name": "removeExpirationList",
      "outputs": [
        {
          "name": "",
          "type": "bool"
        }
      ],
      "payable": false,
      "stateMutability": "nonpayable",
      "type": "function"
    },
    {
      "constant": true,
      "inputs": [],
      "name": "getExpirationList",
      "outputs": [
        {
          "name": "",
          "type": "uint256[]"
        }
      ],
      "payable": false,
      "stateMutability": "view",
      "type": "function"
    },
    {
      "constant": true,
      "inputs": [
        {
          "name": "expiration",
          "type": "uint256"
        }
      ],
      "name": "isEligibleExpiration",
      "outputs": [
        {
          "name": "",
          "type": "bool"
        }
      ],
      "payable": false,
      "stateMutability": "view",
      "type": "function"
    },
    {
      "constant": true,
      "inputs": [
        {
          "name": "expiration",
          "type": "uint256"
        }
      ],
      "name": "checkExpiration",
      "outputs": [],
      "payable": false,
      "stateMutability": "view",
      "type": "function"
    }
  ],
  "bytecode": "0x60806040523480156200001157600080fd5b5060405160608062002cbf83398101604081815282516020840151919093015160008054600160a060020a031916331780825592939192600160a060020a0316917f8be0079c531659141344cd1fd0a4f28419497f9722a3daafe3b4186f6b6457e0908290a36200008b836401000000006200013a810204565b6200009f82640100000000620001cc810204565b620000b3816401000000006200025e810204565b6040805160e0810182526201518081526203f480602082015262093a8091810191909152620d2f0060608201526213c680608082015262278d0060a08201526276a70060c08201526200010b90600990600762000302565b5060408051808201909152600180825260026020830181905262000130929062000359565b5050505062000449565b6200014d640100000000620002f0810204565b1515620001aa57604080517f08c379a0000000000000000000000000000000000000000000000000000000008152602060048201819052602482015260008051602062002c9f833981519152604482015290519081900360640190fd5b60038054600160a060020a031916600160a060020a0392909216919091179055565b620001df640100000000620002f0810204565b15156200023c57604080517f08c379a0000000000000000000000000000000000000000000000000000000008152602060048201819052602482015260008051602062002c9f833981519152604482015290519081900360640190fd5b60048054600160a060020a031916600160a060020a0392909216919091179055565b62000271640100000000620002f0810204565b1515620002ce57604080517f08c379a0000000000000000000000000000000000000000000000000000000008152602060048201819052602482015260008051602062002c9f833981519152604482015290519081900360640190fd5b60058054600160a060020a031916600160a060020a0392909216919091179055565b600054600160a060020a031633145b90565b82805482825590600052602060002090810192821562000347579160200282015b8281111562000347578251829062ffffff1690559160200191906001019062000323565b506200035592915062000408565b5090565b82805482825590600052602060002090600701600890048101928215620003fa5791602002820160005b83821115620003c657835183826101000a81548163ffffffff021916908360ff160217905550926020019260040160208160030104928301926001030262000383565b8015620003f85782816101000a81549063ffffffff0219169055600401602081600301049283019260010302620003c6565b505b506200035592915062000425565b620002ff91905b808211156200035557600081556001016200040f565b620002ff91905b808211156200035557805463ffffffff191681556001016200042c565b61284680620004596000396000f30060806040526004361061019d5763ffffffff60e060020a6000350416630438d49081146101a25780632967eafe14610325578063354af360146103485780633582d7891461039d5780633ad2fb57146104025780633ad98099146104235780633b50c4d11461044d57806342e5479d1461047e57806345e19fdd146104af57806348ee201d1461050b5780634c69c00f1461052357806355c47cb2146105445780635ca4b73b1461056857806367b8ceb91461057d578063715018a614610598578063723931ca146105ad5780637cfff2d8146105c55780637e838fa3146105dd5780638da5cb5b146106095780638ea745b81461061e5780638f32d59b146106885780639052d5f81461069d578063924a69ce146106b25780639ef975d2146106e5578063a093e2d0146106fd578063afec82fc1461071e578063b18b78dd1461073c578063bec3107f14610751578063d0ebdbe714610766578063d500958414610787578063d6d140121461079c578063db6ad2bd146107ba578063e7c56815146107d8578063ee29c94a146107f9578063f2fde38b14610817575b600080fd5b3480156101ae57600080fd5b506101bd600435602435610838565b60405180806020018060200180602001806020018060200186810386528b818151815260200191508051906020019060200280838360005b8381101561020d5781810151838201526020016101f5565b5050505090500186810385528a818151815260200191508051906020019060200280838360005b8381101561024c578181015183820152602001610234565b50505050905001868103845289818151815260200191508051906020019060200280838360005b8381101561028b578181015183820152602001610273565b50505050905001868103835288818151815260200191508051906020019060200280838360005b838110156102ca5781810151838201526020016102b2565b50505050905001868103825287818151815260200191508051906020019060200280838360005b838110156103095781810151838201526020016102f1565b505050509050019a505050505050505050505060405180910390f35b34801561033157600080fd5b50610346600160a060020a0360043516610a85565b005b34801561035457600080fd5b50604080516020600480358082013583810280860185019096528085526101bd95369593946024949385019291829185019084908082843750949750610af39650505050505050565b3480156103a957600080fd5b506103b2610d0f565b60408051602080825283518183015283519192839290830191858101910280838360005b838110156103ee5781810151838201526020016103d6565b505050509050019250505060405180910390f35b34801561040e57600080fd5b5061034660043563ffffffff60243516610d94565b34801561042f57600080fd5b5061043b600435610e00565b60408051918252519081900360200190f35b34801561045957600080fd5b50610465600435610e1f565b6040805163ffffffff9092168252519081900360200190f35b34801561048a57600080fd5b50610493610e57565b60408051600160a060020a039092168252519081900360200190f35b3480156104bb57600080fd5b506104c4610e66565b60408051978852600160a060020a03909616602088015260ff9094168686015263ffffffff9092166060860152608085015260a084015260c0830152519081900360e00190f35b34801561051757600080fd5b506104c4600435610f51565b34801561052f57600080fd5b50610346600160a060020a0360043516610fc5565b34801561055057600080fd5b5061043b600160a060020a0360043516602435611033565b34801561057457600080fd5b50610493611063565b34801561058957600080fd5b5061043b600435602435611072565b3480156105a457600080fd5b506103466111f2565b3480156105b957600080fd5b50610346600435611288565b3480156105d157600080fd5b50610346600435611310565b3480156105e957600080fd5b506105f5600435611367565b604080519115158252519081900360200190f35b34801561061557600080fd5b506104936113c6565b34801561062a57600080fd5b506106366004356113d5565b6040805167ffffffffffffffff9098168852600160a060020a03909616602088015260ff9094168686015263ffffffff9092166060860152608085015260a084015260c0830152519081900360e00190f35b34801561069457600080fd5b506105f5611446565b3480156106a957600080fd5b506103b2611457565b3480156106be57600080fd5b50610346600160a060020a036004358116906024351660443560643560843560a4356114ae565b3480156106f157600080fd5b506105f56004356117e9565b34801561070957600080fd5b50610346600160a060020a0360043516611845565b34801561072a57600080fd5b5061034663ffffffff600435166118b3565b34801561074857600080fd5b5061049361190a565b34801561075d57600080fd5b5061043b611919565b34801561077257600080fd5b50610346600160a060020a036004351661191f565b34801561079357600080fd5b5061049361198d565b3480156107a857600080fd5b506105f563ffffffff6004351661199c565b3480156107c657600080fd5b506105f563ffffffff600435166119f5565b3480156107e457600080fd5b506103b2600160a060020a0360043516611a7d565b34801561080557600080fd5b5061034663ffffffff60043516611ae9565b34801561082357600080fd5b50610346600160a060020a0360043516611b6f565b6060806060806060806060806060806000806006805490508d8f01111561086f5760065461086c908f63ffffffff611bc416565b9c505b60008d1115610a74578c6040519080825280602002602001820160405280156108a2578160200160208202803883390190505b5096508c6040519080825280602002602001820160405280156108cf578160200160208202803883390190505b5095508c6040519080825280602002602001820160405280156108fc578160200160208202803883390190505b5094508c604051908082528060200260200182016040528015610929578160200160208202803883390190505b5093508c604051908082528060200260200182016040528015610956578160200160208202803883390190505b509250600091505b8c821015610a6457600680548f840190811061097657fe5b906000526020600020906005020190508060000160089054906101000a9004600160a060020a031687838151811015156109ac57fe5b600160a060020a03909216602092830290910190910152805460018201548751601060ff60e060020a90940484160190921660020a63ffffffff9182160216908790849081106109f857fe5b6020908102909101015260028101548551869084908110610a1557fe5b6020908102909101015260038101548451859084908110610a3257fe5b6020908102909101015260048101548351849084908110610a4f57fe5b6020908102909101015260019091019061095e565b86868686869b509b509b509b509b505b505050505050509295509295909350565b610a8d611446565b1515610ad1576040805160e560020a62461bcd02815260206004820181905260248201526000805160206127fb833981519152604482015290519081900360640190fd5b60058054600160a060020a031916600160a060020a0392909216919091179055565b6060806060806060600060608060608060606000808d51975087604051908082528060200260200182016040528015610b36578160200160208202803883390190505b50965087604051908082528060200260200182016040528015610b63578160200160208202803883390190505b50955087604051908082528060200260200182016040528015610b90578160200160208202803883390190505b50945087604051908082528060200260200182016040528015610bbd578160200160208202803883390190505b50935087604051908082528060200260200182016040528015610bea578160200160208202803883390190505b509250600091505b87821015610cfb57610c1a8e83815181101515610c0b57fe5b90602001906020020151611c0d565b80548851919250680100000000000000009004600160a060020a031690889084908110610c4357fe5b600160a060020a03909216602092830290910190910152805460018201548751601060ff60e060020a90940484160190921660020a63ffffffff918216021690879084908110610c8f57fe5b6020908102909101015260028101548551869084908110610cac57fe5b6020908102909101015260038101548451859084908110610cc957fe5b6020908102909101015260048101548351849084908110610ce657fe5b60209081029091010152600190910190610bf2565b50949c939b50919950975095509350505050565b60606001805480602002602001604051908101604052809291908181526020018280548015610d8957602002820191906000526020600020906000905b82829054906101000a900463ffffffff1663ffffffff1681526020019060040190602082600301049283019260010382029150808411610d4c5790505b505050505090505b90565b610d9d816119f5565b1515610df3576040805160e560020a62461bcd02815260206004820152601f60248201527f756e6465726c79696e6720697320756e737570706f7274656420617373657400604482015290519081900360640190fd5b610dfc82611288565b5050565b6009805482908110610e0e57fe5b600091825260209091200154905081565b6001805482908110610e2d57fe5b9060005260206000209060089182820401919006600402915054906101000a900463ffffffff1681565b600554600160a060020a031690565b60065460009081908190819081908190819081808211610ed0576040805160e560020a62461bcd02815260206004820152601560248201527f6f7074696f6e73206c69737420697320656d7074790000000000000000000000604482015290519081900360640190fd5b600680546000198401908110610ee257fe5b60009182526020909120600590910201805460018201546002830154600384015460049094015467ffffffffffffffff84169e680100000000000000008504600160a060020a03169e5060e060020a90940460ff169c5063ffffffff9092169a50985091965090945092505050565b600080600080600080600080610f6689611c0d565b805460018201546002830154600384015460049094015467ffffffffffffffff84169e680100000000000000008504600160a060020a03169e5060e060020a90940460ff169c5063ffffffff9092169a50985091965090945092505050565b610fcd611446565b1515611011576040805160e560020a62461bcd02815260206004820181905260248201526000805160206127fb833981519152604482015290519081900360640190fd5b60038054600160a060020a031916600160a060020a0392909216919091179055565b60086020528160005260406000208181548110151561104e57fe5b90600052602060002001600091509150505481565b600454600160a060020a031690565b600061107c612747565b60008061108886611c0d565b6040805160e081018252825467ffffffffffffffff81168252680100000000000000008104600160a060020a0316602083015260e060020a900460ff1691810191909152600182015463ffffffff16606082015260028201546080820152600382015460a082015260049091015460c0820152925061110683611c9d565b6111108386611cf8565b6003546060840151604080517fda66325700000000000000000000000000000000000000000000000000000000815263ffffffff909216600483015251600160a060020a039092169163da663257916024808201926020929091908290030181600087803b15801561118157600080fd5b505af1158015611195573d6000803e3d6000fd5b505050506040513d60208110156111ab57600080fd5b5051604084015160a08501519193506111c49184611d54565b90508015156111d657600093506111e9565b6111e6818663ffffffff611d8916565b93505b50505092915050565b6111fa611446565b151561123e576040805160e560020a62461bcd02815260206004820181905260248201526000805160206127fb833981519152604482015290519081900360640190fd5b60008054604051600160a060020a03909116907f8be0079c531659141344cd1fd0a4f28419497f9722a3daafe3b4186f6b6457e0908390a360008054600160a060020a0319169055565b611291816117e9565b151561130d576040805160e560020a62461bcd02815260206004820152602160248201527f65787069726174696f6e2076616c7565206973206e6f7420737570706f72746560448201527f6400000000000000000000000000000000000000000000000000000000000000606482015290519081900360840190fd5b50565b611318611446565b151561135c576040805160e560020a62461bcd02815260206004820181905260248201526000805160206127fb833981519152604482015290519081900360640190fd5b61130d600982611e33565b6000611371611446565b15156113b5576040805160e560020a62461bcd02815260206004820181905260248201526000805160206127fb833981519152604482015290519081900360640190fd5b6113c0600983611eaa565b92915050565b600054600160a060020a031690565b60068054829081106113e357fe5b60009182526020909120600590910201805460018201546002830154600384015460049094015467ffffffffffffffff84169550680100000000000000008404600160a060020a03169460e060020a90940460ff169363ffffffff909316929087565b600054600160a060020a0316331490565b60606009805480602002602001604051908101604052809291908181526020018280548015610d8957602002820191906000526020600020905b815481526020019060010190808311611491575050505050905090565b60008060006114bb612747565b600254600160a060020a03163314611543576040805160e560020a62461bcd02815260206004820152602660248201527f4d616e6167657261626c653a2063616c6c6572206973206e6f7420746865204d60448201527f616e616765720000000000000000000000000000000000000000000000000000606482015290519081900360840190fd5b600654935061155188611f57565b925061155c88611f64565b9150600660e0604051908101604052808660010167ffffffffffffffff1681526020018c600160a060020a031681526020018560ff1681526020018463ffffffff168152602001426115ad8c611f7d565b01815260208082018b90526040918201899052835460018082018655600095865282862085516005909302018054868501518787015167ffffffffffffffff1990921667ffffffffffffffff909516949094177fffffffff0000000000000000000000000000000000000000ffffffffffffffff1668010000000000000000600160a060020a0395861602177fffffff00ffffffffffffffffffffffffffffffffffffffffffffffffffffffff1660e060020a60ff909216919091021781556060860151818301805463ffffffff191663ffffffff9092169190911790556080860151600282015560a0860151600382015560c0909501516004909501949094558e1684526008815290832080548084018255908452922090860191015560068054859081106116d957fe5b60009182526020918290206040805160e081018252600593909302909101805467ffffffffffffffff81168452680100000000000000008104600160a060020a03169484019490945260e060020a90930460ff1690820152600182015463ffffffff16606082015260028201546080820152600382015460a082015260049091015460c0820152905061176d818a88611f9e565b836001018a600160a060020a03167f18f523957030bee670136363e25b2f847bf1bd07bb7b33c6d5475936a9aac70d8585426117a88e611f7d565b6040805160ff909516855263ffffffff90931660208501520182820152606082018c9052608082018a9052519081900360a00190a350505050505050505050565b60006113c0600980548060200260200160405190810160405280929190818152602001828054801561183a57602002820191906000526020600020905b815481526020019060010190808311611826575b505050505083612276565b61184d611446565b1515611891576040805160e560020a62461bcd02815260206004820181905260248201526000805160206127fb833981519152604482015290519081900360640190fd5b60048054600160a060020a031916600160a060020a0392909216919091179055565b6118bb611446565b15156118ff576040805160e560020a62461bcd02815260206004820181905260248201526000805160206127fb833981519152604482015290519081900360640190fd5b61130d6001826122b5565b600354600160a060020a031690565b60065490565b611927611446565b151561196b576040805160e560020a62461bcd02815260206004820181905260248201526000805160206127fb833981519152604482015290519081900360640190fd5b60028054600160a060020a031916600160a060020a0392909216919091179055565b600254600160a060020a031690565b60006119a6611446565b15156119ea576040805160e560020a62461bcd02815260206004820181905260248201526000805160206127fb833981519152604482015290519081900360640190fd5b6113c060018361237e565b60006113c06001805480602002602001604051908101604052809291908181526020018280548015611a7257602002820191906000526020600020906000905b82829054906101000a900463ffffffff1663ffffffff1681526020019060040190602082600301049283019260010382029150808411611a355790505b505050505083612475565b600160a060020a038116600090815260086020908152604091829020805483518184028101840190945280845260609392830182828015611add57602002820191906000526020600020905b815481526020019060010190808311611ac9575b50505050509050919050565b61130d6001805480602002602001604051908101604052809291908181526020018280548015611b6457602002820191906000526020600020906000905b82829054906101000a900463ffffffff1663ffffffff1681526020019060040190602082600301049283019260010382029150808411611b275790505b5050505050826124c0565b611b77611446565b1515611bbb576040805160e560020a62461bcd02815260206004820181905260248201526000805160206127fb833981519152604482015290519081900360640190fd5b61130d81612520565b6000611c0683836040805190810160405280601e81526020017f536166654d6174683a207375627472616374696f6e206f766572666c6f770000815250612601565b9392505050565b60008082118015611c2057506006548211155b1515611c76576040805160e560020a62461bcd02815260206004820152601660248201527f6f7074696f6e206964206973206e6f7420657869737400000000000000000000604482015290519081900360640190fd5b600680546000198401908110611c8857fe5b90600052602060002090600502019050919050565b6080810151421061130d576040805160e560020a62461bcd02815260206004820152601160248201527f6f7074696f6e2069732065787069726564000000000000000000000000000000604482015290519081900360640190fd5b60c0820151811115610dfc576040805160e560020a62461bcd02815260206004820152601d60248201527f6f7074696f6e20616d6f756e7420697320696e73756666696369656e74000000604482015290519081900360640190fd5b600060ff8416158284111415611d6c57506000611c06565b60ff841615611d7d57818303611d81565b8282035b949350505050565b600080831515611d9c5760009150611e2c565b50828202828482811515611dac57fe5b0414611e28576040805160e560020a62461bcd02815260206004820152602160248201527f536166654d6174683a206d756c7469706c69636174696f6e206f766572666c6f60448201527f7700000000000000000000000000000000000000000000000000000000000000606482015290519081900360840190fd5b8091505b5092915050565b611e8c82805480602002602001604051908101604052809291908181526020018280548015611e8157602002820191906000526020600020905b815481526020019060010190808311611e6d575b505050505082612276565b1515610dfc5781546001810183556000928352602090922090910155565b8154600090815b81811015611ee657838582815481101515611ec857fe5b90600052602060002001541415611ede57611ee6565b600101611eb1565b81811015611f4a5760001982018114611f30578460018303815481101515611f0a57fe5b90600052602060002001548582815481101515611f2357fe5b6000918252602090912001555b8454611f40866000198301612783565b5060019250611f4f565b600092505b505092915050565b67ffffffffffffffff1690565b68010000000000000000900467ffffffffffffffff1690565b700100000000000000000000000000000000900467ffffffffffffffff1690565b60a08301516080840151600554606086015160408088015181517fb4277bc100000000000000000000000000000000000000000000000000000000815263ffffffff909316600484015260ff16602483015242909303604482018190526064820185905283519093600093849384938493600160a060020a039093169263b4277bc1926084808201939182900301818787803b15801561203d57600080fd5b505af1158015612051573d6000803e3d6000fd5b505050506040513d604081101561206757600080fd5b5080516020918201516004805460408e81015181517f055ef6ab0000000000000000000000000000000000000000000000000000000081529384018d9052602484018d9052604484018c9052606484018690526084840185905260ff1660a484015251939850919650600160a060020a039091169263055ef6ab9260c4808401938290030181600087803b1580156120fe57600080fd5b505af1158015612112573d6000803e3d6000fd5b505050506040513d602081101561212857600080fd5b5051600354604080517f41976e09000000000000000000000000000000000000000000000000000000008152600160a060020a038c8116600483015291519395506121d29391909216916341976e099160248083019260209291908290030181600087803b15801561219957600080fd5b505af11580156121ad573d6000803e3d6000fd5b505050506040513d60208110156121c357600080fd5b5051839063ffffffff61269e16565b6040805160e081018252428152600160a060020a039a8b16602080830191825282840194855260608301968752608083019b8c5260a0830198895260c083019788529c516000190167ffffffffffffffff1660009081526007909d5291909b209a518b555160018b018054600160a060020a03191691909a161790985550955160028801559451600387015592516004860155505051600583015551600690910155565b8151600090815b81811015611f4a5783858281518110151561229457fe5b9060200190602002015114156122ad5760019250611f4f565b60010161227d565b61233a8280548060200260200160405190810160405280929190818152602001828054801561232f57602002820191906000526020600020906000905b82829054906101000a900463ffffffff1663ffffffff16815260200190600401906020826003010492830192600103820291508084116122f25790505b505050505082612475565b1515610dfc578154600181018355600092835260209092206008830401805460079093166004026101000a63ffffffff818102199094169290931692909202179055565b8154600090815b818110156123d9578363ffffffff1685828154811015156123a257fe5b6000918252602090912060088204015460079091166004026101000a900463ffffffff1614156123d1576123d9565b600101612385565b81811015611f4a57600019820181146124655784600183038154811015156123fd57fe5b90600052602060002090600891828204019190066004029054906101000a900463ffffffff16858281548110151561243157fe5b90600052602060002090600891828204019190066004026101000a81548163ffffffff021916908363ffffffff1602179055505b8454611f408660001983016127ac565b8151600090815b81811015611f4a578363ffffffff16858281518110151561249957fe5b9060200190602002015163ffffffff1614156124b85760019250611f4f565b60010161247c565b6124ca8282612475565b1515610dfc576040805160e560020a62461bcd02815260206004820152601f60248201527f77686974654c6973743a207573696e6720696e76616c69642075696e74333200604482015290519081900360640190fd5b600160a060020a03811615156125a6576040805160e560020a62461bcd02815260206004820152602660248201527f4f776e61626c653a206e6577206f776e657220697320746865207a65726f206160448201527f6464726573730000000000000000000000000000000000000000000000000000606482015290519081900360840190fd5b60008054604051600160a060020a03808516939216917f8be0079c531659141344cd1fd0a4f28419497f9722a3daafe3b4186f6b6457e091a360008054600160a060020a031916600160a060020a0392909216919091179055565b60008082858511156126945760405160e560020a62461bcd0281526004018080602001828103825283818151815260200191508051906020019080838360005b83811015612659578181015183820152602001612641565b50505050905090810190601f1680156126865780820380516001836020036101000a031916815260200191505b509250505060405180910390fd5b5050509103919050565b6000611c0683836040805190810160405280601a81526020017f536166654d6174683a206469766973696f6e206279207a65726f000000000000815250600080828185116127315760405160e560020a62461bcd02815260040180806020018281038252838181518152602001915080519060200190808383600083811015612659578181015183820152602001612641565b50838581151561273d57fe5b0495945050505050565b6040805160e081018252600080825260208201819052918101829052606081018290526080810182905260a0810182905260c081019190915290565b8154818355818111156127a7576000838152602090206127a79181019083016127dc565b505050565b8154818355818111156127a75760070160089004816007016008900483600052602060002091820191016127a791905b610d9191905b808211156127f657600081556001016127e2565b509056004f776e61626c653a2063616c6c6572206973206e6f7420746865206f776e6572a165627a7a72305820d840475f2e1bbd78729db60c64d97105e45cac86c1bc893841010ef949bd08ab00294f776e61626c653a2063616c6c6572206973206e6f7420746865206f776e6572",
  "source": "pragma solidity ^0.4.26;\r\nimport \"./modules/SafeMath.sol\";\r\nimport \"./modules/Managerable.sol\";\r\nimport \"./interfaces/ICompoundOracle.sol\";\r\nimport \"./modules/underlyingAssets.sol\";\r\nimport \"./interfaces/IOptionsPrice.sol\";\r\nimport \"./interfaces/IVolatility.sol\";\r\nimport \"./modules/tuple.sol\";\r\ncontract OptionsBase is UnderlyingAssets,Managerable,ImportOracle,ImportOptionsPrice,ImportVolatility {\r\n    \r\n    using SafeMath for uint256;\r\n    struct OptionsInfo {\r\n        uint64     optionID;\r\n        address     owner;\r\n        uint8   \toptType;    //0 for call, 1 for put\r\n        uint32\t\tunderlying;\r\n        uint256\t\texpiration;\r\n        uint256     strikePrice;\r\n        uint256     amount;\r\n    }\r\n\r\n    struct OptionsInfoEx{\r\n        uint256\t\t createdTime;\r\n        address      settlement;\r\n        uint256      tokenTimePrice;\r\n        uint256      fullPrice;\r\n        uint256      underlyingPrice;   //bug : underlying price\r\n        uint256      ivNumerator;\r\n        uint256      ivDenominator;\r\n    }\r\n    //options information\r\n    OptionsInfo[] public allOptions;\r\n    mapping(uint256=>OptionsInfoEx) internal optionExtraMap;\r\n\r\n    //user options balances\r\n    mapping(address=>uint256[]) public optionsBalances;\r\n    //expiration whitelist\r\n    uint256[] public expirationList;\r\n\r\n    event CreateOption(address indexed owner,uint256 indexed optionID,uint8 optType,uint32 underlying,uint256 expiration,uint256 strikePrice,uint256 amount);\r\n    event BurnOption(address indexed owner,uint256 indexed optionID,uint amount);\r\n    event DebugEvent(uint256 value1,uint256 value2,uint256 value3);\r\n    constructor (address oracleAddr,address optionsPriceAddr,address ivAddress) public{\r\n        setOracleAddress(oracleAddr);\r\n        setOptionsPriceAddress(optionsPriceAddr);\r\n        setVolatilityAddress(ivAddress);\r\n        expirationList =  [1 days,3 days, 7 days, 10 days, 15 days, 30 days,90 days];\r\n        underlyingAssets = [1,2];\r\n    }\r\n    function getUserOptionsID(address user)public view returns(uint256[]){\r\n        return optionsBalances[user];\r\n    }\r\n    function getOptionInfoLength()public view returns (uint256){\r\n        return allOptions.length;\r\n    }\r\n    function getOptionInfoList(uint256 from,uint256 size)public view \r\n                returns(address[],uint256[],uint256[],uint256[],uint256[]){\r\n        if (from+size>allOptions.length){\r\n            size = allOptions.length.sub(from);\r\n        }\r\n        if (size>0){\r\n            address[] memory ownerArr = new address[](size);\r\n            uint256[] memory typeAndUnderArr = new uint256[](size);\r\n            uint256[] memory expArr = new uint256[](size);\r\n            uint256[] memory priceArr = new uint256[](size);\r\n            uint256[] memory amountArr = new uint256[](size);\r\n            for (uint i=0;i<size;i++){\r\n                OptionsInfo storage info = allOptions[from+i];\r\n                ownerArr[i] = info.owner;\r\n                typeAndUnderArr[i] = info.underlying << 16 + info.optType;\r\n                expArr[i] = info.expiration;\r\n                priceArr[i] = info.strikePrice;\r\n                amountArr[i] = info.amount;\r\n            }\r\n            return (ownerArr,typeAndUnderArr,expArr,priceArr,amountArr);\r\n        }\r\n    }\r\n    function getOptionInfoListFromID(uint256[] ids)public view \r\n                returns(address[],uint256[],uint256[],uint256[],uint256[]){\r\n        uint256 size = ids.length;\r\n        address[] memory ownerArr = new address[](size);\r\n        uint256[] memory typeAndUnderArr = new uint256[](size);\r\n        uint256[] memory expArr = new uint256[](size);\r\n        uint256[] memory priceArr = new uint256[](size);\r\n        uint256[] memory amountArr = new uint256[](size);\r\n        for (uint i=0;i<size;i++){\r\n            OptionsInfo storage info = _getOptionsById(ids[i]);\r\n            ownerArr[i] = info.owner;\r\n            typeAndUnderArr[i] = info.underlying << 16 + info.optType;\r\n            expArr[i] = info.expiration;\r\n            priceArr[i] = info.strikePrice;\r\n            amountArr[i] = info.amount;\r\n        }\r\n        return (ownerArr,typeAndUnderArr,expArr,priceArr,amountArr);\r\n    }\r\n    function getLatestOption()public view returns(uint256,address,uint8,uint32,uint256,uint256,uint256){\r\n        uint256 len = allOptions.length;\r\n        require(len>0,\"options list is empty\");\r\n        OptionsInfo storage info = allOptions[len-1];\r\n        return (info.optionID,info.owner,info.optType,info.underlying,info.expiration,info.strikePrice,info.amount);\r\n    }\r\n\r\n    function getOptionsById(uint256 optionsId)public view returns(uint256,address,uint8,uint32,uint256,uint256,uint256){\r\n        OptionsInfo storage info = _getOptionsById(optionsId);\r\n        return (info.optionID,info.owner,info.optType,info.underlying,info.expiration,info.strikePrice,info.amount);\r\n    }\r\n\r\n    function getUnderlyingPrices()internal view returns(uint256[] memory){\r\n        uint256 underlyingLen = underlyingAssets.length;\r\n        uint256[] memory prices = new uint256[](underlyingLen);\r\n        for (uint256 i = 0;i<underlyingLen;i++){\r\n            prices[i] = _oracle.getUnderlyingPrice(underlyingAssets[i]);\r\n        }\r\n        return prices;\r\n    }\r\n\r\n    function createOptions(address from,address settlement,uint256 type_ly_exp,uint256 strikePrice,uint256 underlyingPrice,\r\n                uint256 amount) onlyManager public {\r\n        uint256 optionID = allOptions.length;\r\n        uint8 optType = uint8(tuple64.getValue0(type_ly_exp));\r\n        uint32 underlying = uint32(tuple64.getValue1(type_ly_exp));\r\n        allOptions.push(OptionsInfo(uint64(optionID+1),from,optType,underlying,tuple64.getValue2(type_ly_exp)+now,strikePrice,amount));\r\n        optionsBalances[from].push(optionID+1);\r\n        OptionsInfo memory info = allOptions[optionID];\r\n        setOptionsExtra(info,settlement,underlyingPrice);\r\n        emit CreateOption(from,optionID+1,optType,underlying,tuple64.getValue2(type_ly_exp)+now,strikePrice,amount);\r\n    }\r\n    function setOptionsExtra(OptionsInfo memory info,address settlement,uint256 underlyingPrice) internal{\r\n        uint256 strikePrice = info.strikePrice;\r\n        uint256 expiration = info.expiration - now;\r\n        (uint256 ivNumerator,uint256 ivDenominator) = _volatility.calculateIv(info.underlying,info.optType,expiration,strikePrice);\r\n        uint256 fullPrice = _optionsPrice.getOptionsPrice_iv(strikePrice,strikePrice,expiration,ivNumerator,ivDenominator,info.optType);\r\n        uint256 tokenTimePrice = fullPrice.div(_oracle.getPrice(settlement));\r\n        optionExtraMap[info.optionID-1]= OptionsInfoEx(now,settlement,tokenTimePrice,fullPrice,underlyingPrice,ivNumerator,ivDenominator);\r\n    }\r\n    function getExerciseWorth(uint256 optionsId,uint256 amount)public view returns(uint256){\r\n        OptionsInfo memory info = _getOptionsById(optionsId);\r\n        checkEligible(info);\r\n        checkSufficient(info,amount);\r\n        uint256 underlyingPrice = _oracle.getUnderlyingPrice(info.underlying);\r\n        uint256 tokenPayback = _getOptionsPayback(info.optType,info.strikePrice,underlyingPrice);\r\n        if (tokenPayback == 0 ){\r\n            return 0;\r\n        } \r\n        return tokenPayback.mul(amount);\r\n    }\r\n    function _getOptionsWorth(uint8 optType,uint256 strikePrice,uint256 underlyingPrice)internal pure returns(uint256){\r\n        if ((optType == 0) == (strikePrice>underlyingPrice)){ // call\r\n            return strikePrice;\r\n        } else {\r\n            return underlyingPrice;\r\n        }\r\n    }\r\n    function _getOptionsPayback(uint8 optType,uint256 strikePrice,uint256 underlyingPrice)internal pure returns(uint256){\r\n        if ((optType == 0) == (strikePrice>underlyingPrice)){ // call\r\n            return 0;\r\n        } else {\r\n            return (optType == 0) ? underlyingPrice - strikePrice : strikePrice - underlyingPrice;\r\n        }\r\n    }\r\n    function _getOptionsById(uint256 id)internal view returns(OptionsInfo storage){\r\n        require(id>0 && id <= allOptions.length,\"option id is not exist\");\r\n        return allOptions[id-1];\r\n    }\r\n    function checkEligible(OptionsInfo memory info)internal view{\r\n        require(info.expiration>now,\"option is expired\");\r\n    }\r\n    function checkOwner(OptionsInfo memory info,address owner)internal pure{\r\n        require(info.owner == owner,\"caller is not the options owner\");\r\n    }\r\n    function checkSufficient(OptionsInfo memory info,uint256 amount) internal pure{\r\n        require(info.amount >= amount,\"option amount is insufficient\");\r\n    }\r\n    function buyOptionCheck(uint256 expiration,uint32 underlying)public view{\r\n        require(isEligibleUnderlyingAsset(underlying) , \"underlying is unsupported asset\");\r\n        checkExpiration(expiration);\r\n    }\r\n        /**\r\n     * @dev Implementation of add an eligible expiration into the expirationList.\r\n     * @param expiration new eligible expiration.\r\n     */\r\n    function addExpiration(uint256 expiration)public onlyOwner{\r\n        whiteListUint256.addWhiteListUint256(expirationList,expiration);\r\n    }\r\n    /**\r\n     * @dev Implementation of revoke an invalid expiration from the expirationList.\r\n     * @param removeExpiration revoked expiration.\r\n     */\r\n    function removeExpirationList(uint256 removeExpiration)public onlyOwner returns(bool) {\r\n        return whiteListUint256.removeWhiteListUint256(expirationList,removeExpiration);\r\n    }\r\n    /**\r\n     * @dev Implementation of getting the eligible expirationList.\r\n     */\r\n    function getExpirationList()public view returns (uint256[]){\r\n        return expirationList;\r\n    }\r\n    /**\r\n     * @dev Implementation of testing whether the input expiration is eligible.\r\n     * @param expiration input expiration for testing.\r\n     */    \r\n    function isEligibleExpiration(uint256 expiration) public view returns (bool){\r\n        return whiteListUint256.isEligibleUint256(expirationList,expiration);\r\n    }\r\n    function checkExpiration(uint256 expiration) public view{\r\n        return require(isEligibleExpiration(expiration),\"expiration value is not supported\");\r\n    }\r\n    function _getEligibleExpirationIndex(uint256 expiration) internal view returns (uint256){\r\n        return whiteListUint256._getEligibleIndexUint256(expirationList,expiration);\r\n    }\r\n\r\n}",
  "sourcePath": "C:\\work\\solidity\\FinnexusOptions_V2\\contracts\\OptionsBase.sol",
  "compiler": {
    "name": "solc",
    "version": "0.4.26+commit.4563c3fc.Emscripten.clang"
  },
  "schemaVersion": "3.1.0",
  "updatedAt": "2020-07-27T11:08:36.602Z",
  "devdoc": {
    "methods": {
      "addExpiration(uint256)": {
        "details": "Implementation of add an eligible expiration into the expirationList.\r",
        "params": {
          "expiration": "new eligible expiration.\r"
        }
      },
      "addUnderlyingAsset(uint32)": {
        "details": "Implementation of add an eligible underlying into the underlyingAssets.\r",
        "params": {
          "underlying": "new eligible underlying.\r"
        }
      },
      "getExpirationList()": {
        "details": "Implementation of getting the eligible expirationList.\r"
      },
      "getUnderlyingAssets()": {
        "details": "Implementation of getting the eligible underlyingAssets.\r"
      },
      "isEligibleExpiration(uint256)": {
        "details": "Implementation of testing whether the input expiration is eligible.\r",
        "params": {
          "expiration": "input expiration for testing.\r"
        }
      },
      "isEligibleUnderlyingAsset(uint32)": {
        "details": "Implementation of testing whether the input underlying is eligible.\r",
        "params": {
          "underlying": "input underlying for testing.\r"
        }
      },
      "isOwner()": {
        "details": "Returns true if the caller is the current owner."
      },
      "owner()": {
        "details": "Returns the address of the current owner."
      },
      "removeExpirationList(uint256)": {
        "details": "Implementation of revoke an invalid expiration from the expirationList.\r",
        "params": {
          "removeExpiration": "revoked expiration.\r"
        }
      },
      "removeUnderlyingAssets(uint32)": {
        "details": "Implementation of revoke an invalid underlying from the underlyingAssets.\r",
        "params": {
          "removeUnderlying": "revoked underlying.\r"
        }
      },
      "renounceOwnership()": {
        "details": "Leaves the contract without owner. It will not be possible to call `onlyOwner` functions anymore. Can only be called by the current owner.     * NOTE: Renouncing ownership will leave the contract without an owner, thereby removing any functionality that is only available to the owner."
      },
      "transferOwnership(address)": {
        "details": "Transfers ownership of the contract to a new account (`newOwner`). Can only be called by the current owner."
      }
    }
  },
  "userdoc": {
    "methods": {
      "setManager(address)": {
        "notice": "contribution period to stop or not."
      }
    }
  }
}