{
  "contractName": "OptionsManagerV2",
  "abi": [
    {
      "constant": true,
      "inputs": [
        {
          "name": "tmpAddress",
          "type": "address"
        }
      ],
      "name": "checkAddressRedeemOut",
      "outputs": [
        {
          "name": "",
          "type": "bool"
        }
      ],
      "payable": false,
      "stateMutability": "view",
      "type": "function"
    },
    {
      "constant": true,
      "inputs": [],
      "name": "getWhiteList",
      "outputs": [
        {
          "name": "",
          "type": "address[]"
        }
      ],
      "payable": false,
      "stateMutability": "view",
      "type": "function"
    },
    {
      "constant": true,
      "inputs": [],
      "name": "getLeftCollateral",
      "outputs": [
        {
          "name": "",
          "type": "uint256"
        }
      ],
      "payable": false,
      "stateMutability": "view",
      "type": "function"
    },
    {
      "constant": true,
      "inputs": [
        {
          "name": "settlement",
          "type": "address"
        }
      ],
      "name": "getRealBalance",
      "outputs": [
        {
          "name": "",
          "type": "int256"
        }
      ],
      "payable": false,
      "stateMutability": "view",
      "type": "function"
    },
    {
      "constant": false,
      "inputs": [
        {
          "name": "collateralPool",
          "type": "address"
        }
      ],
      "name": "setCollateralPoolAddress",
      "outputs": [],
      "payable": false,
      "stateMutability": "nonpayable",
      "type": "function"
    },
    {
      "constant": false,
      "inputs": [
        {
          "name": "optionsPool",
          "type": "address"
        }
      ],
      "name": "setOptionsPoolAddress",
      "outputs": [],
      "payable": false,
      "stateMutability": "nonpayable",
      "type": "function"
    },
    {
      "constant": false,
      "inputs": [
        {
          "name": "removeAddress",
          "type": "address"
        }
      ],
      "name": "removeWhiteList",
      "outputs": [
        {
          "name": "",
          "type": "bool"
        }
      ],
      "payable": false,
      "stateMutability": "nonpayable",
      "type": "function"
    },
    {
      "constant": true,
      "inputs": [],
      "name": "getCollateralPoolAddress",
      "outputs": [
        {
          "name": "",
          "type": "address"
        }
      ],
      "payable": false,
      "stateMutability": "view",
      "type": "function"
    },
    {
      "constant": true,
      "inputs": [
        {
          "name": "strikePrice",
          "type": "uint256"
        },
        {
          "name": "underlyingPrice",
          "type": "uint256"
        },
        {
          "name": "amount",
          "type": "uint256"
        },
        {
          "name": "optType",
          "type": "uint8"
        }
      ],
      "name": "calOptionsOccupied",
      "outputs": [
        {
          "name": "",
          "type": "uint256"
        }
      ],
      "payable": false,
      "stateMutability": "view",
      "type": "function"
    },
    {
      "constant": true,
      "inputs": [
        {
          "name": "user",
          "type": "address"
        }
      ],
      "name": "getUserPayingUsd",
      "outputs": [
        {
          "name": "",
          "type": "uint256"
        }
      ],
      "payable": false,
      "stateMutability": "view",
      "type": "function"
    },
    {
      "constant": true,
      "inputs": [
        {
          "name": "account",
          "type": "address"
        }
      ],
      "name": "getUserTotalWorth",
      "outputs": [
        {
          "name": "",
          "type": "uint256"
        }
      ],
      "payable": false,
      "stateMutability": "view",
      "type": "function"
    },
    {
      "constant": false,
      "inputs": [
        {
          "name": "oracle",
          "type": "address"
        }
      ],
      "name": "setOracleAddress",
      "outputs": [],
      "payable": false,
      "stateMutability": "nonpayable",
      "type": "function"
    },
    {
      "constant": true,
      "inputs": [],
      "name": "getOptionsPriceAddress",
      "outputs": [
        {
          "name": "",
          "type": "address"
        }
      ],
      "payable": false,
      "stateMutability": "view",
      "type": "function"
    },
    {
      "constant": false,
      "inputs": [
        {
          "name": "colRate",
          "type": "uint256"
        }
      ],
      "name": "setCollateralRate",
      "outputs": [],
      "payable": false,
      "stateMutability": "nonpayable",
      "type": "function"
    },
    {
      "constant": true,
      "inputs": [
        {
          "name": "settlement",
          "type": "address"
        }
      ],
      "name": "getNetWorthBalance",
      "outputs": [
        {
          "name": "",
          "type": "uint256"
        }
      ],
      "payable": false,
      "stateMutability": "view",
      "type": "function"
    },
    {
      "constant": false,
      "inputs": [
        {
          "name": "collateral",
          "type": "address"
        },
        {
          "name": "amount",
          "type": "uint256"
        }
      ],
      "name": "addCollateral",
      "outputs": [],
      "payable": true,
      "stateMutability": "payable",
      "type": "function"
    },
    {
      "constant": false,
      "inputs": [],
      "name": "renounceOwnership",
      "outputs": [],
      "payable": false,
      "stateMutability": "nonpayable",
      "type": "function"
    },
    {
      "constant": true,
      "inputs": [
        {
          "name": "tmpAddress",
          "type": "address"
        }
      ],
      "name": "isEligibleAddress",
      "outputs": [
        {
          "name": "",
          "type": "bool"
        }
      ],
      "payable": false,
      "stateMutability": "view",
      "type": "function"
    },
    {
      "constant": true,
      "inputs": [],
      "name": "getCollateralRate",
      "outputs": [
        {
          "name": "",
          "type": "uint256"
        }
      ],
      "payable": false,
      "stateMutability": "view",
      "type": "function"
    },
    {
      "constant": false,
      "inputs": [
        {
          "name": "settlement",
          "type": "address"
        },
        {
          "name": "amount",
          "type": "uint256"
        }
      ],
      "name": "addNetBalance",
      "outputs": [],
      "payable": true,
      "stateMutability": "payable",
      "type": "function"
    },
    {
      "constant": true,
      "inputs": [],
      "name": "owner",
      "outputs": [
        {
          "name": "",
          "type": "address"
        }
      ],
      "payable": false,
      "stateMutability": "view",
      "type": "function"
    },
    {
      "constant": true,
      "inputs": [],
      "name": "isOwner",
      "outputs": [
        {
          "name": "",
          "type": "bool"
        }
      ],
      "payable": false,
      "stateMutability": "view",
      "type": "function"
    },
    {
      "constant": false,
      "inputs": [
        {
          "name": "addAddress",
          "type": "address"
        }
      ],
      "name": "addOperator",
      "outputs": [],
      "payable": false,
      "stateMutability": "nonpayable",
      "type": "function"
    },
    {
      "constant": false,
      "inputs": [
        {
          "name": "_minAmount",
          "type": "uint256"
        },
        {
          "name": "_maxAmount",
          "type": "uint256"
        }
      ],
      "name": "setInputAmountRange",
      "outputs": [],
      "payable": false,
      "stateMutability": "nonpayable",
      "type": "function"
    },
    {
      "constant": false,
      "inputs": [
        {
          "name": "optionsPrice",
          "type": "address"
        }
      ],
      "name": "setOptionsPriceAddress",
      "outputs": [],
      "payable": false,
      "stateMutability": "nonpayable",
      "type": "function"
    },
    {
      "constant": false,
      "inputs": [
        {
          "name": "tokenAmount",
          "type": "uint256"
        },
        {
          "name": "collateral",
          "type": "address"
        }
      ],
      "name": "redeemCollateral",
      "outputs": [],
      "payable": false,
      "stateMutability": "nonpayable",
      "type": "function"
    },
    {
      "constant": false,
      "inputs": [
        {
          "name": "newNetworth",
          "type": "int256[]"
        },
        {
          "name": "sharedBalances",
          "type": "int256[]"
        },
        {
          "name": "firstOption",
          "type": "uint256"
        }
      ],
      "name": "setSharedPayment",
      "outputs": [],
      "payable": false,
      "stateMutability": "nonpayable",
      "type": "function"
    },
    {
      "constant": true,
      "inputs": [
        {
          "name": "account",
          "type": "address"
        }
      ],
      "name": "calCollateralWorth",
      "outputs": [
        {
          "name": "",
          "type": "uint256[]"
        }
      ],
      "payable": false,
      "stateMutability": "view",
      "type": "function"
    },
    {
      "constant": false,
      "inputs": [
        {
          "name": "removeAddress",
          "type": "address"
        }
      ],
      "name": "removeOperator",
      "outputs": [
        {
          "name": "",
          "type": "bool"
        }
      ],
      "payable": false,
      "stateMutability": "nonpayable",
      "type": "function"
    },
    {
      "constant": true,
      "inputs": [],
      "name": "getOracleAddress",
      "outputs": [
        {
          "name": "",
          "type": "address"
        }
      ],
      "payable": false,
      "stateMutability": "view",
      "type": "function"
    },
    {
      "constant": true,
      "inputs": [
        {
          "name": "user",
          "type": "address"
        },
        {
          "name": "collateral",
          "type": "address"
        }
      ],
      "name": "userInputCollateral",
      "outputs": [
        {
          "name": "",
          "type": "uint256"
        }
      ],
      "payable": false,
      "stateMutability": "view",
      "type": "function"
    },
    {
      "constant": false,
      "inputs": [],
      "name": "calSharedPayment",
      "outputs": [],
      "payable": false,
      "stateMutability": "nonpayable",
      "type": "function"
    },
    {
      "constant": true,
      "inputs": [],
      "name": "getInputAmountRange",
      "outputs": [
        {
          "name": "",
          "type": "uint256"
        },
        {
          "name": "",
          "type": "uint256"
        }
      ],
      "payable": false,
      "stateMutability": "view",
      "type": "function"
    },
    {
      "constant": true,
      "inputs": [
        {
          "name": "tmpAddress",
          "type": "address"
        }
      ],
      "name": "checkAddressPayIn",
      "outputs": [
        {
          "name": "",
          "type": "bool"
        }
      ],
      "payable": false,
      "stateMutability": "view",
      "type": "function"
    },
    {
      "constant": true,
      "inputs": [],
      "name": "getOptionsPoolAddress",
      "outputs": [
        {
          "name": "",
          "type": "address"
        }
      ],
      "payable": false,
      "stateMutability": "view",
      "type": "function"
    },
    {
      "constant": false,
      "inputs": [
        {
          "name": "addAddress",
          "type": "address"
        },
        {
          "name": "permission",
          "type": "uint256"
        }
      ],
      "name": "modifyPermission",
      "outputs": [],
      "payable": false,
      "stateMutability": "nonpayable",
      "type": "function"
    },
    {
      "constant": true,
      "inputs": [],
      "name": "getTokenNetworth",
      "outputs": [
        {
          "name": "",
          "type": "uint256"
        }
      ],
      "payable": false,
      "stateMutability": "view",
      "type": "function"
    },
    {
      "constant": true,
      "inputs": [],
      "name": "getOccupiedCollateral",
      "outputs": [
        {
          "name": "",
          "type": "uint256"
        }
      ],
      "payable": false,
      "stateMutability": "view",
      "type": "function"
    },
    {
      "constant": true,
      "inputs": [],
      "name": "getTotalCollateral",
      "outputs": [
        {
          "name": "",
          "type": "uint256"
        }
      ],
      "payable": false,
      "stateMutability": "view",
      "type": "function"
    },
    {
      "constant": true,
      "inputs": [],
      "name": "getFPTCoinAddress",
      "outputs": [
        {
          "name": "",
          "type": "address"
        }
      ],
      "payable": false,
      "stateMutability": "view",
      "type": "function"
    },
    {
      "constant": true,
      "inputs": [],
      "name": "getUnlockedCollateral",
      "outputs": [
        {
          "name": "",
          "type": "uint256"
        }
      ],
      "payable": false,
      "stateMutability": "view",
      "type": "function"
    },
    {
      "constant": true,
      "inputs": [],
      "name": "getAvailableCollateral",
      "outputs": [
        {
          "name": "",
          "type": "uint256"
        }
      ],
      "payable": false,
      "stateMutability": "view",
      "type": "function"
    },
    {
      "constant": false,
      "inputs": [
        {
          "name": "FPTCoinAddr",
          "type": "address"
        }
      ],
      "name": "setFPTCoinAddress",
      "outputs": [],
      "payable": false,
      "stateMutability": "nonpayable",
      "type": "function"
    },
    {
      "constant": false,
      "inputs": [
        {
          "name": "index",
          "type": "uint256"
        },
        {
          "name": "addAddress",
          "type": "address"
        }
      ],
      "name": "setOperator",
      "outputs": [],
      "payable": false,
      "stateMutability": "nonpayable",
      "type": "function"
    },
    {
      "constant": false,
      "inputs": [
        {
          "name": "addAddress",
          "type": "address"
        }
      ],
      "name": "addWhiteList",
      "outputs": [],
      "payable": false,
      "stateMutability": "nonpayable",
      "type": "function"
    },
    {
      "constant": true,
      "inputs": [],
      "name": "getOperator",
      "outputs": [
        {
          "name": "",
          "type": "address[]"
        }
      ],
      "payable": false,
      "stateMutability": "view",
      "type": "function"
    },
    {
      "constant": false,
      "inputs": [
        {
          "name": "newOwner",
          "type": "address"
        }
      ],
      "name": "transferOwnership",
      "outputs": [],
      "payable": false,
      "stateMutability": "nonpayable",
      "type": "function"
    },
    {
      "constant": false,
      "inputs": [
        {
          "name": "halt",
          "type": "bool"
        }
      ],
      "name": "setHalt",
      "outputs": [],
      "payable": false,
      "stateMutability": "nonpayable",
      "type": "function"
    },
    {
      "inputs": [
        {
          "name": "oracleAddr",
          "type": "address"
        },
        {
          "name": "optionsPriceAddr",
          "type": "address"
        },
        {
          "name": "optionsPoolAddr",
          "type": "address"
        },
        {
          "name": "collateralPoolAddr",
          "type": "address"
        },
        {
          "name": "FPTCoinAddr",
          "type": "address"
        }
      ],
      "payable": false,
      "stateMutability": "nonpayable",
      "type": "constructor"
    },
    {
      "anonymous": false,
      "inputs": [
        {
          "indexed": true,
          "name": "from",
          "type": "address"
        },
        {
          "indexed": true,
          "name": "settlement",
          "type": "address"
        },
        {
          "indexed": true,
          "name": "optionId",
          "type": "uint256"
        },
        {
          "indexed": false,
          "name": "optionPrice",
          "type": "uint256"
        },
        {
          "indexed": false,
          "name": "settlementAmount",
          "type": "uint256"
        },
        {
          "indexed": false,
          "name": "optionAmount",
          "type": "uint256"
        }
      ],
      "name": "BuyOption",
      "type": "event"
    },
    {
      "anonymous": false,
      "inputs": [
        {
          "indexed": true,
          "name": "from",
          "type": "address"
        },
        {
          "indexed": true,
          "name": "optionId",
          "type": "uint256"
        },
        {
          "indexed": false,
          "name": "amount",
          "type": "uint256"
        },
        {
          "indexed": false,
          "name": "sellValue",
          "type": "uint256"
        }
      ],
      "name": "SellOption",
      "type": "event"
    },
    {
      "anonymous": false,
      "inputs": [
        {
          "indexed": true,
          "name": "from",
          "type": "address"
        },
        {
          "indexed": true,
          "name": "optionId",
          "type": "uint256"
        },
        {
          "indexed": false,
          "name": "amount",
          "type": "uint256"
        },
        {
          "indexed": false,
          "name": "sellValue",
          "type": "uint256"
        }
      ],
      "name": "ExerciseOption",
      "type": "event"
    },
    {
      "anonymous": false,
      "inputs": [
        {
          "indexed": true,
          "name": "from",
          "type": "address"
        },
        {
          "indexed": true,
          "name": "collateral",
          "type": "address"
        },
        {
          "indexed": false,
          "name": "amount",
          "type": "uint256"
        },
        {
          "indexed": false,
          "name": "tokenAmount",
          "type": "uint256"
        }
      ],
      "name": "AddCollateral",
      "type": "event"
    },
    {
      "anonymous": false,
      "inputs": [
        {
          "indexed": true,
          "name": "from",
          "type": "address"
        },
        {
          "indexed": false,
          "name": "collateral",
          "type": "address"
        },
        {
          "indexed": false,
          "name": "allRedeem",
          "type": "uint256"
        }
      ],
      "name": "RedeemCollateral",
      "type": "event"
    },
    {
      "anonymous": false,
      "inputs": [
        {
          "indexed": false,
          "name": "value1",
          "type": "uint256"
        },
        {
          "indexed": false,
          "name": "value2",
          "type": "uint256"
        },
        {
          "indexed": false,
          "name": "value3",
          "type": "uint256"
        }
      ],
      "name": "DebugEvent",
      "type": "event"
    },
    {
      "anonymous": false,
      "inputs": [
        {
          "indexed": true,
          "name": "previousOwner",
          "type": "address"
        },
        {
          "indexed": true,
          "name": "newOwner",
          "type": "address"
        }
      ],
      "name": "OwnershipTransferred",
      "type": "event"
    },
    {
      "constant": true,
      "inputs": [],
      "name": "getPriceRateRange",
      "outputs": [
        {
          "name": "",
          "type": "uint256"
        },
        {
          "name": "",
          "type": "uint256"
        }
      ],
      "payable": false,
      "stateMutability": "view",
      "type": "function"
    },
    {
      "constant": false,
      "inputs": [
        {
          "name": "_minPriceRate",
          "type": "uint256"
        },
        {
          "name": "_maxPriceRate",
          "type": "uint256"
        }
      ],
      "name": "setPriceRateRange",
      "outputs": [],
      "payable": false,
      "stateMutability": "nonpayable",
      "type": "function"
    },
    {
      "constant": false,
      "inputs": [
        {
          "name": "settlement",
          "type": "address"
        },
        {
          "name": "settlementAmount",
          "type": "uint256"
        },
        {
          "name": "strikePrice",
          "type": "uint256"
        },
        {
          "name": "underlying",
          "type": "uint32"
        },
        {
          "name": "expiration",
          "type": "uint256"
        },
        {
          "name": "amount",
          "type": "uint256"
        },
        {
          "name": "optType",
          "type": "uint8"
        }
      ],
      "name": "buyOption",
      "outputs": [],
      "payable": true,
      "stateMutability": "payable",
      "type": "function"
    },
    {
      "constant": false,
      "inputs": [
        {
          "name": "optionsId",
          "type": "uint256"
        },
        {
          "name": "amount",
          "type": "uint256"
        }
      ],
      "name": "sellOption",
      "outputs": [],
      "payable": false,
      "stateMutability": "nonpayable",
      "type": "function"
    },
    {
      "constant": false,
      "inputs": [
        {
          "name": "optionsId",
          "type": "uint256"
        },
        {
          "name": "amount",
          "type": "uint256"
        }
      ],
      "name": "exerciseOption",
      "outputs": [],
      "payable": false,
      "stateMutability": "nonpayable",
      "type": "function"
    }
  ],
  "bytecode": "0x60806040526000805460ff60a860020a60ff0201191690556113886008556c0c9f2c9cd04674edea40000000600955633b9aca00600a556105dc600c556101f4600d5534801561004e57600080fd5b5060405160a0806155d9833981016040818152825160208401519184015160608501516080909501516000805461010033810261010060a860020a0319909216919091178083559497959693959492939204600160a060020a0316917f8be0079c531659141344cd1fd0a4f28419497f9722a3daafe3b4186f6b6457e0908290a360048054600160a060020a0319908116600160a060020a0397881617909155600b80548216958716959095179094556005805485169386169390931790925560068054841691851691909117905560038054909216921691909117905561549e8061013b6000396000f3006080604052600436106102635763ffffffff60e060020a600035041663059621d7811461026857806309a9d76c1461029d5780630aaf3832146103025780630c80d691146103295780631730b3cb1461034a5780631a5a3fce1461036d5780632042e5c21461038e578063251e2fe3146103af57806332c82a5f146103e057806342049a7214610404578063447dbeac146104255780634c69c00f146104465780635bf5d897146104675780635ca4b73b14610482578063624b5ed4146104975780636b6ecea8146104af5780636d75b9ee146104d0578063715018a6146104e75780637c9c6712146104fc578063817bf86d14610517578063852185fc146105385780638691a8c51461054d5780638da5cb5b146105645780638f32d59b14610579578063925c482c1461058e5780639870d7fe146105bd5780639ab91a35146105de578063a093e2d0146105f9578063a20a80451461061a578063a37c4fcf1461063e578063a56ea403146106ce578063ac8a584a146106ef578063aec6280614610710578063b18b78dd1461073e578063b4d5a9c714610753578063bc2c30021461077a578063bc9abed21461078f578063bdac4bf6146107a4578063c040725a146107c5578063c219043b146107da578063c5e5a3ed146107fe578063cd40581914610813578063d189290414610828578063d6eb591014610843578063d7e5799214610858578063dab551291461086d578063e28a327d14610882578063e7122ffd14610897578063e7a1c1c0146108b8578063e7cd4a04146108dc578063e7f43c68146108fd578063f2fde38b14610912578063f495438714610933575b600080fd5b34801561027457600080fd5b50610289600160a060020a036004351661094d565b604080519115158252519081900360200190f35b3480156102a957600080fd5b506102b2610985565b60408051602080825283518183015283519192839290830191858101910280838360005b838110156102ee5781810151838201526020016102d6565b505050509050019250505060405180910390f35b34801561030e57600080fd5b506103176109e8565b60408051918252519081900360200190f35b34801561033557600080fd5b50610317600160a060020a0360043516610a07565b34801561035657600080fd5b5061036b600160a060020a0360043516610b52565b005b34801561037957600080fd5b5061036b600160a060020a0360043516610bcd565b34801561039a57600080fd5b50610289600160a060020a0360043516610c48565b3480156103bb57600080fd5b506103c4610ca7565b60408051600160a060020a039092168252519081900360200190f35b3480156103ec57600080fd5b5061031760043560243560443560ff60643516610cb6565b34801561041057600080fd5b50610317600160a060020a0360043516610ce8565b34801561043157600080fd5b50610317600160a060020a0360043516610d85565b34801561045257600080fd5b5061036b600160a060020a0360043516610ed5565b34801561047357600080fd5b5061036b600435602435610f50565b34801561048e57600080fd5b506103c4610fa7565b3480156104a357600080fd5b5061036b600435610fb6565b3480156104bb57600080fd5b50610317600160a060020a0360043516611007565b61036b600160a060020a0360043516602435611165565b3480156104f357600080fd5b5061036b61160f565b34801561050857600080fd5b5061036b6004356024356116b7565b34801561052357600080fd5b50610289600160a060020a0360043516611bfd565b34801561054457600080fd5b50610317611c6c565b61036b600160a060020a0360043516602435611c72565b34801561057057600080fd5b506103c4611da6565b34801561058557600080fd5b50610289611dba565b61036b600160a060020a036004351660243560443563ffffffff6064351660843560a43560ff60c43516611dd0565b3480156105c957600080fd5b5061036b600160a060020a03600435166121d8565b3480156105ea57600080fd5b5061036b600435602435612238565b34801561060557600080fd5b5061036b600160a060020a036004351661228f565b34801561062657600080fd5b5061036b600435600160a060020a036024351661230a565b34801561064a57600080fd5b506040805160206004803580820135838102808601850190965280855261036b95369593946024949385019291829185019084908082843750506040805187358901803560208181028481018201909552818452989b9a99890198929750908201955093508392508501908490808284375094975050933594506127259350505050565b3480156106da57600080fd5b506102b2600160a060020a03600435166129fd565b3480156106fb57600080fd5b50610289600160a060020a0360043516612af9565b34801561071c57600080fd5b50610725612b58565b6040805192835260208301919091528051918290030190f35b34801561074a57600080fd5b506103c4612b62565b34801561075f57600080fd5b50610317600160a060020a0360043581169060243516612b71565b34801561078657600080fd5b5061036b612c17565b34801561079b57600080fd5b5061072561327b565b3480156107b057600080fd5b50610289600160a060020a0360043516613285565b3480156107d157600080fd5b506103c46132b9565b3480156107e657600080fd5b5061036b600160a060020a03600435166024356132c8565b34801561080a57600080fd5b50610317613330565b34801561081f57600080fd5b506103176133f7565b34801561083457600080fd5b5061036b60043560243561348b565b34801561084f57600080fd5b5061031761392d565b34801561086457600080fd5b506103c4613a2e565b34801561087957600080fd5b50610317613a3d565b34801561088e57600080fd5b50610317613ace565b3480156108a357600080fd5b5061036b600160a060020a0360043516613adb565b3480156108c457600080fd5b5061036b600435600160a060020a0360243516613b56565b3480156108e857600080fd5b5061036b600160a060020a0360043516613be4565b34801561090957600080fd5b506102b2613c61565b34801561091e57600080fd5b5061036b600160a060020a0360043516613cc1565b34801561093f57600080fd5b5061036b6004351515613d16565b600061095882611bfd565b801561097f5750600160a060020a0382166000908152600260208190526040909120548116145b92915050565b606060018054806020026020016040519081016040528092919081815260200182805480156109dd57602002820191906000526020600020905b8154600160a060020a031681526001909101906020018083116109bf575b505050505090505b90565b6000610a026109f561392d565b6109fd6133f7565b613d92565b905090565b600654604080517f6b6ecea8000000000000000000000000000000000000000000000000000000008152600160a060020a038481166004830152915160009384938493911691636b6ecea89160248082019260209290919082900301818787803b158015610a7457600080fd5b505af1158015610a88573d6000803e3d6000fd5b505050506040513d6020811015610a9e57600080fd5b5051600554604080517f7e1bcb76000000000000000000000000000000000000000000000000000000008152600160a060020a0388811660048301529151939550911691637e1bcb76916024808201926020929091908290030181600087803b158015610b0a57600080fd5b505af1158015610b1e573d6000803e3d6000fd5b505050506040513d6020811015610b3457600080fd5b50519050610b48828263ffffffff613dad16565b92505b5050919050565b610b5a611dba565b1515610b9e576040805160e560020a62461bcd0281526020600482018190526024820152600080516020615433833981519152604482015290519081900360640190fd5b6006805473ffffffffffffffffffffffffffffffffffffffff1916600160a060020a0392909216919091179055565b610bd5611dba565b1515610c19576040805160e560020a62461bcd0281526020600482018190526024820152600080516020615433833981519152604482015290519081900360640190fd5b6005805473ffffffffffffffffffffffffffffffffffffffff1916600160a060020a0392909216919091179055565b6000610c52611dba565b1515610c96576040805160e560020a62461bcd0281526020600482018190526024820152600080516020615433833981519152604482015290519081900360640190fd5b61097f60018363ffffffff613def16565b600654600160a060020a031690565b60008060ff8316158587111415610cd05750848302610cd5565b508383025b610cde81613ede565b9695505050505050565b600654604080517f42049a72000000000000000000000000000000000000000000000000000000008152600160a060020a038481166004830152915160009392909216916342049a729160248082019260209290919082900301818787803b158015610d5357600080fd5b505af1158015610d67573d6000803e3d6000fd5b505050506040513d6020811015610d7d57600080fd5b505192915050565b600354604080517f07e77aa0000000000000000000000000000000000000000000000000000000008152600160a060020a038481166004830152915160009361097f9316916307e77aa091602480830192602092919082900301818887803b158015610df057600080fd5b505af1158015610e04573d6000803e3d6000fd5b505050506040513d6020811015610e1a57600080fd5b5051600354604080517f70a08231000000000000000000000000000000000000000000000000000000008152600160a060020a0387811660048301529151610ec99392909216916370a08231916024808201926020929091908290030181600087803b158015610e8957600080fd5b505af1158015610e9d573d6000803e3d6000fd5b505050506040513d6020811015610eb357600080fd5b5051610ebd613330565b9063ffffffff613eea16565b9063ffffffff613f9416565b610edd611dba565b1515610f21576040805160e560020a62461bcd0281526020600482018190526024820152600080516020615433833981519152604482015290519081900360640190fd5b6004805473ffffffffffffffffffffffffffffffffffffffff1916600160a060020a0392909216919091179055565b610f58611dba565b1515610f9c576040805160e560020a62461bcd0281526020600482018190526024820152600080516020615433833981519152604482015290519081900360640190fd5b600d91909155600c55565b600b54600160a060020a031690565b610fbe611dba565b1515611002576040805160e560020a62461bcd0281526020600482018190526024820152600080516020615433833981519152604482015290519081900360640190fd5b600855565b600654604080517f6b6ecea8000000000000000000000000000000000000000000000000000000008152600160a060020a038481166004830152915160009384938493911691636b6ecea89160248082019260209290919082900301818787803b15801561107457600080fd5b505af1158015611088573d6000803e3d6000fd5b505050506040513d602081101561109e57600080fd5b5051600554604080517f7e1bcb76000000000000000000000000000000000000000000000000000000008152600160a060020a0388811660048301529151939550911691637e1bcb76916024808201926020929091908290030181600087803b15801561110a57600080fd5b505af115801561111e573d6000803e3d6000fd5b505050506040513d602081101561113457600080fd5b50519050611148828263ffffffff613dad16565b9150600082131561115b57819250610b4b565b5060009392505050565b6000805481908190819060ff161561117c57600080fd5b6000805460ff19166001179081905560a860020a900460ff16156111d8576040805160e560020a62461bcd0281526020600482015260176024820152600080516020615453833981519152604482015290519081900360640190fd5b6111e28686613ff1565b600654604080517fc3c579cc000000000000000000000000000000000000000000000000000000008152600160a060020a038a811660048301526024820185905260036044830152915193985091169163c3c579cc916064808201926020929091908290030181600087803b15801561125a57600080fd5b505af115801561126e573d6000803e3d6000fd5b505050506040513d602081101561128457600080fd5b5051600480546040805160e060020a6341976e09028152600160a060020a038b811694820194909452905198849003989397509116916341976e09916024808201926020929091908290030181600087803b1580156112e257600080fd5b505af11580156112f6573d6000803e3d6000fd5b505050506040513d602081101561130c57600080fd5b50519250848302915061131d613330565b8281151561132757fe5b600654604080517f692a76a7000000000000000000000000000000000000000000000000000000008152336004820152602481018790529051939092049350600160a060020a03169163692a76a79160448082019260009290919082900301818387803b15801561139757600080fd5b505af11580156113ab573d6000803e3d6000fd5b5050600654604080517f2b2d50c3000000000000000000000000000000000000000000000000000000008152600160a060020a038b81166004830152602482018b90529151919092169350632b2d50c39250604480830192600092919082900301818387803b15801561141d57600080fd5b505af1158015611431573d6000803e3d6000fd5b5050600654604080517fd56dbe88000000000000000000000000000000000000000000000000000000008152336004820152600160a060020a038b81166024830152604482018b9052915191909216935063d56dbe889250606480830192600092919082900301818387803b1580156114a957600080fd5b505af11580156114bd573d6000803e3d6000fd5b50506006546040805160e060020a63fee80a49028152600160a060020a038b81166004830152602482018b9052915191909216935063fee80a499250604480830192600092919082900301818387803b15801561151957600080fd5b505af115801561152d573d6000803e3d6000fd5b505060408051888152602081018590528151600160a060020a038b1694503393507f33a089d94f9a0b7d0fe21e69b40d7dbe1965be652c7382cc778d46963db8c49b929181900390910190a3600354604080517f40c10f19000000000000000000000000000000000000000000000000000000008152336004820152602481018490529051600160a060020a03909216916340c10f199160448082019260009290919082900301818387803b1580156115e557600080fd5b505af11580156115f9573d6000803e3d6000fd5b50506000805460ff191690555050505050505050565b611617611dba565b151561165b576040805160e560020a62461bcd0281526020600482018190526024820152600080516020615433833981519152604482015290519081900360640190fd5b60008054604051610100909104600160a060020a0316907f8be0079c531659141344cd1fd0a4f28419497f9722a3daafe3b4186f6b6457e0908390a36000805474ffffffffffffffffffffffffffffffffffffffff0019169055565b600080548190819081908190819081908190819060ff16156116d857600080fd5b6000805460ff19166001179081905560a860020a900460ff1615611734576040805160e560020a62461bcd0281526020600482015260176024820152600080516020615453833981519152604482015290519081900360640190fd5b61173d8a614203565b600554604080517f67b8ceb9000000000000000000000000000000000000000000000000000000008152600481018e9052602481018d90529051600160a060020a03909216916367b8ceb9916044808201926020929091908290030181600087803b1580156117ab57600080fd5b505af11580156117bf573d6000803e3d6000fd5b505050506040513d60208110156117d557600080fd5b505198508815156117e557611be6565b600554604080517f48ee201d000000000000000000000000000000000000000000000000000000008152600481018e90529051600160a060020a03909216916348ee201d9160248082019260e0929091908290030181600087803b15801561184c57600080fd5b505af1158015611860573d6000803e3d6000fd5b505050506040513d60e081101561187657600080fd5b5060408101516060820151608083015160a090930151919a50985090965094506118a6864263ffffffff61429316565b60048054604080517fda66325700000000000000000000000000000000000000000000000000000000815263ffffffff8c169381019390935251929850600160a060020a03169163da663257916024808201926020929091908290030181600087803b15801561191557600080fd5b505af1158015611929573d6000803e3d6000fd5b505050506040513d602081101561193f57600080fd5b5051600b54604080517f4b7d8e5c0000000000000000000000000000000000000000000000000000000081526004810184905260248101899052604481018a905263ffffffff8b16606482015260ff8c1660848201529051929650600160a060020a0390911691634b7d8e5c9160a4808201926020929091908290030181600087803b1580156119ce57600080fd5b505af11580156119e2573d6000803e3d6000fd5b505050506040513d60208110156119f857600080fd5b5051600554604080517f6ed82ec9000000000000000000000000000000000000000000000000000000008152336004820152602481018f9052604481018e9052606481018490529051929550600160a060020a0390911691636ed82ec99160848082019260009290919082900301818387803b158015611a7757600080fd5b505af1158015611a8b573d6000803e3d6000fd5b50505050600560009054906101000a9004600160a060020a0316600160a060020a031663597ce9008c8c6040518363ffffffff1660e060020a02815260040180838152602001828152602001925050506040805180830381600087803b158015611af457600080fd5b505af1158015611b08573d6000803e3d6000fd5b505050506040513d6040811015611b1e57600080fd5b5080516020909101516006546040805160e060020a63fee80a49028152600160a060020a038086166004830152602482018590529151949650929450169163fee80a499160448082019260009290919082900301818387803b158015611b8357600080fd5b505af1158015611b97573d6000803e3d6000fd5b50505050611ba68960026142d5565b604080518b8152602081018b905281518d9233927fc939d87d6a5458cd262393bdb2c5408330b7647ca14b752229b0301858a29972929081900390910190a35b50506000805460ff19169055505050505050505050565b600061097f826001805480602002602001604051908101604052809291908181526020018280548015611c5957602002820191906000526020600020905b8154600160a060020a03168152600190910190602001808311611c3b575b50505050506145b790919063ffffffff16565b60085490565b60075460019081108015611ca957506007805433919083908110611c9257fe5b600091825260209091200154600160a060020a0316145b1515611d25576040805160e560020a62461bcd02815260206004820152603060248201527f4d616e6167657261626c653a2063616c6c6572206973206e6f7420746865206560448201527f6c696769626c65204f70657261746f7200000000000000000000000000000000606482015290519081900360840190fd5b611d2f8383613ff1565b6006546040805160e060020a63fee80a49028152600160a060020a03878116600483015260248201859052915193955091169163fee80a499160448082019260009290919082900301818387803b158015611d8957600080fd5b505af1158015611d9d573d6000803e3d6000fd5b50505050505050565b6000546101009004600160a060020a031690565b6000546101009004600160a060020a0316331490565b600080548190819060ff1615611de557600080fd5b6000805460ff19166001179081905560a860020a900460ff1615611e41576040805160e560020a62461bcd0281526020600482015260176024820152600080516020615453833981519152604482015290519081900360640190fd5b600260ff851610611ec2576040805160e560020a62461bcd02815260206004820152603160248201527f204d75737420696e707574203020666f722063616c6c206f7074696f6e206f7260448201527f203120666f7220707574206f7074696f6e000000000000000000000000000000606482015290519081900360840190fd5b600554604080517f3ad2fb570000000000000000000000000000000000000000000000000000000081526004810189905263ffffffff8a1660248201529051600160a060020a0390921691633ad2fb579160448082019260009290919082900301818387803b158015611f3457600080fd5b505af1158015611f48573d6000803e3d6000fd5b50505050611f628460ff168863ffffffff16886000614608565b60048054604080517fda66325700000000000000000000000000000000000000000000000000000000815263ffffffff8c169381019390935251929550600160a060020a03169163da663257916024808201926020929091908290030181600087803b158015611fd157600080fd5b505af1158015611fe5573d6000803e3d6000fd5b505050506040513d6020811015611ffb57600080fd5b505191506120098883614650565b600b54604080517f4b7d8e5c00000000000000000000000000000000000000000000000000000000815260048101859052602481018b90526044810189905263ffffffff8a16606482015260ff871660848201529051600160a060020a0390921691634b7d8e5c9160a4808201926020929091908290030181600087803b15801561209357600080fd5b505af11580156120a7573d6000803e3d6000fd5b505050506040513d60208110156120bd57600080fd5b505190506120cd88838787610cb6565b6120d5613ace565b101561212b576040805160e560020a62461bcd02815260206004820152601b60248201527f636f6c6c61746572616c20697320696e73756666696369656e74210000000000604482015290519081900360640190fd5b600554604080517f924a69ce000000000000000000000000000000000000000000000000000000008152336004820152600160a060020a038d8116602483015260448201879052606482018c90526084820185905260a482018990529151919092169163924a69ce9160c480830192600092919082900301818387803b1580156121b457600080fd5b505af11580156121c8573d6000803e3d6000fd5b505050506115f98a8a83886146f4565b6121e0611dba565b1515612224576040805160e560020a62461bcd0281526020600482018190526024820152600080516020615433833981519152604482015290519081900360640190fd5b61223560078263ffffffff61489916565b50565b612240611dba565b1515612284576040805160e560020a62461bcd0281526020600482018190526024820152600080516020615433833981519152604482015290519081900360640190fd5b600a91909155600955565b612297611dba565b15156122db576040805160e560020a62461bcd0281526020600482018190526024820152600080516020615433833981519152604482015290519081900360640190fd5b600b805473ffffffffffffffffffffffffffffffffffffffff1916600160a060020a0392909216919091179055565b6000805481908190819081908190819060ff161561232757600080fd5b6000805460ff19166001179081905560a860020a900460ff1615612383576040805160e560020a62461bcd0281526020600482015260176024820152600080516020615453833981519152604482015290519081900360640190fd5b61238c89614203565b6123958861094d565b15156123eb576040805160e560020a62461bcd02815260206004820152601f60248201527f736574746c656d656e7420697320756e737570706f7274656420746f6b656e00604482015290519081900360640190fd5b600354604080517f593557360000000000000000000000000000000000000000000000000000000081523360048201529051600160a060020a03909216916359355736916024808201926020929091908290030181600087803b15801561245157600080fd5b505af1158015612465573d6000803e3d6000fd5b505050506040513d602081101561247b57600080fd5b5051600354604080517f70a0823100000000000000000000000000000000000000000000000000000000815233600482015290519299508b928a92600160a060020a0316916370a082319160248083019260209291908290030181600087803b1580156124e757600080fd5b505af11580156124fb573d6000803e3d6000fd5b505050506040513d602081101561251157600080fd5b505101101561256a576040805160e560020a62461bcd02815260206004820152601e60248201527f53436f696e2062616c616e636520697320696e73756666696369656e74210000604482015290519081900360640190fd5b61257333610d85565b955061257d6109e8565b600354604080517f35f0c4fa000000000000000000000000000000000000000000000000000000008152336004820152602481018d9052604481018490528151939850600160a060020a03909216926335f0c4fa9260648082019392918290030181600087803b1580156125f057600080fd5b505af1158015612604573d6000803e3d6000fd5b505050506040513d604081101561261a57600080fd5b50805160209091015199039860009450925083891115612677578285039450600087111561265757868911612650576000612654565b8689035b98505b6126618986614940565b9150915060008211156126775781935080830192505b612682888488614a2a565b600084111561271057600354604080517f9dc29fac000000000000000000000000000000000000000000000000000000008152336004820152602481018790529051600160a060020a0390921691639dc29fac9160448082019260009290919082900301818387803b1580156126f757600080fd5b505af115801561270b573d6000803e3d6000fd5b505050505b50506000805460ff1916905550505050505050565b6007546000908110801561275c5750600780543391908390811061274557fe5b600091825260209091200154600160a060020a0316145b15156127d8576040805160e560020a62461bcd02815260206004820152603060248201527f4d616e6167657261626c653a2063616c6c6572206973206e6f7420746865206560448201527f6c696769626c65204f70657261746f7200000000000000000000000000000000606482015290519081900360840190fd5b6005546040517f2415e01000000000000000000000000000000000000000000000000000000000815260048101848152606060248301908152865160648401528651600160a060020a0390941693632415e0109387938993600193919290916044820191608401906020808801910280838360005b8381101561286557818101518382015260200161284d565b5050505090500183810382528481815481526020019150805480156128b357602002820191906000526020600020905b8154600160a060020a03168152600190910190602001808311612895575b505095505050505050600060405180830381600087803b1580156128d657600080fd5b505af11580156128ea573d6000803e3d6000fd5b5050600654604080517f1f88286a000000000000000000000000000000000000000000000000000000008152600481019182526001805460448301819052600160a060020a039094169550631f88286a94509289929182916024820191606401908690801561298257602002820191906000526020600020905b8154600160a060020a03168152600190910190602001808311612964575b50508381038252845181528451602091820191808701910280838360005b838110156129b85781810151838201526020016129a0565b50505050905001945050505050600060405180830381600087803b1580156129df57600080fd5b505af11580156129f3573d6000803e3d6000fd5b5050505050505050565b60606000606080600080612a1087610d85565b9450612a7787866001805480602002602001604051908101604052809291908181526020018280548015612a6d57602002820191906000526020600020905b8154600160a060020a03168152600190910190602001808311612a4f575b5050505050614c4b565b5060015491955093509150600090505b81811015612aee57612ace8382815181101515612aa057fe5b906020019060200201518583815181101515612ab857fe5b602090810290910101519063ffffffff613f9416565b8482815181101515612adc57fe5b60209081029091010152600101612a87565b509195945050505050565b6000612b03611dba565b1515612b47576040805160e560020a62461bcd0281526020600482018190526024820152600080516020615433833981519152604482015290519081900360640190fd5b61097f60078363ffffffff613def16565b600d54600c549091565b600454600160a060020a031690565b600654604080517f6ba170b5000000000000000000000000000000000000000000000000000000008152600160a060020a038581166004830152848116602483015291516000939290921691636ba170b59160448082019260209290919082900301818787803b158015612be457600080fd5b505af1158015612bf8573d6000803e3d6000fd5b505050506040513d6020811015612c0e57600080fd5b50909392505050565b60606000606060006060806000606060008080600780549050118015612c6057506007805433919083908110612c4957fe5b600091825260209091200154600160a060020a0316145b1515612cdc576040805160e560020a62461bcd02815260206004820152603060248201527f4d616e6167657261626c653a2063616c6c6572206973206e6f7420746865206560448201527f6c696769626c65204f70657261746f7200000000000000000000000000000000606482015290519081900360840190fd5b6001805480602002602001604051908101604052809291908181526020018280548015612d3257602002820191906000526020600020905b8154600160a060020a03168152600190910190602001808311612d14575b50505050509950600560009054906101000a9004600160a060020a0316600160a060020a0316636a43c05e8b6040518263ffffffff1660e060020a0281526004018080602001828103825283818151815260200191508051906020019060200280838360005b83811015612db0578181015183820152602001612d98565b5050505090500192505050600060405180830381600087803b158015612dd557600080fd5b505af1158015612de9573d6000803e3d6000fd5b505050506040513d6000823e601f3d908101601f191682016040908152811015612e1257600080fd5b815160208301805191939283019291640100000000811115612e3357600080fd5b82016020810184811115612e4657600080fd5b8151856020820283011164010000000082111715612e6357600080fd5b5050600554604080517fbec3107f0000000000000000000000000000000000000000000000000000000081529051969f50919d50600160a060020a03169463bec3107f9450600480830194506020935090918290030181600087803b158015612ecb57600080fd5b505af1158015612edf573d6000803e3d6000fd5b505050506040513d6020811015612ef557600080fd5b81019080805190602001909291905050509650600560009054906101000a9004600160a060020a0316600160a060020a03166332ab5c20888b8a8e6040518563ffffffff1660e060020a0281526004018085815260200184815260200183815260200180602001828103825283818151815260200191508051906020019060200280838360005b83811015612f94578181015183820152602001612f7c565b5050505090500195505050505050600060405180830381600087803b158015612fbc57600080fd5b505af1158015612fd0573d6000803e3d6000fd5b505050506040513d6000823e601f3d908101601f191682016040526060811015612ff957600080fd5b81019080805164010000000081111561301157600080fd5b8201602081018481111561302457600080fd5b815185602082028301116401000000008211171561304157600080fd5b5050929190602001805164010000000081111561305d57600080fd5b8201602081018481111561307057600080fd5b815185602082028301116401000000008211171561308d57600080fd5b505092919060200180519060200190929190505050955095509550600560009054906101000a9004600160a060020a0316600160a060020a03166343674c3a88868a8e6040518563ffffffff1660e060020a0281526004018085815260200184815260200183815260200180602001828103825283818151815260200191508051906020019060200280838360005b8381101561313457818101518382015260200161311c565b5050505090500195505050505050600060405180830381600087803b15801561315c57600080fd5b505af1158015613170573d6000803e3d6000fd5b505050506040513d6000823e601f3d908101601f19168201604052602081101561319957600080fd5b8101908080516401000000008111156131b157600080fd5b820160208101848111156131c457600080fd5b81518560208202830111640100000000821117156131e157600080fd5b5090965060009550505050505b825182101561326457828281518110151561320557fe5b90602001906020020151888381518110151561321d57fe5b90602001906020020151868481518110151561323557fe5b906020019060200201510301838381518110151561324f57fe5b602090810290910101526001909101906131ee565b61326f868486612725565b50505050505050505050565b600a546009549091565b600061329082611bfd565b801561097f575050600160a060020a031660009081526002602052604090205460019081161490565b600554600160a060020a031690565b6132d0611dba565b1515613314576040805160e560020a62461bcd0281526020600482018190526024820152600080516020615433833981519152604482015290519081900360640190fd5b600160a060020a03909116600090815260026020526040902055565b6000806000600360009054906101000a9004600160a060020a0316600160a060020a03166318160ddd6040518163ffffffff1660e060020a028152600401602060405180830381600087803b15801561338857600080fd5b505af115801561339c573d6000803e3d6000fd5b505050506040513d60208110156133b257600080fd5b505191508115156133c9576305f5e10092506133f2565b816133d2613a3d565b8115156133db57fe5b049050606481116133ed5760646133ef565b805b92505b505090565b600080600560009054906101000a9004600160a060020a0316600160a060020a03166373a3d4246040518163ffffffff1660e060020a028152600401602060405180830381600087803b15801561344d57600080fd5b505af1158015613461573d6000803e3d6000fd5b505050506040513d602081101561347757600080fd5b5051905061348481613ede565b91505b5090565b600080548190819081908190819081908190819060ff16156134ac57600080fd5b6000805460ff19166001179081905560a860020a900460ff1615613508576040805160e560020a62461bcd0281526020600482015260176024820152600080516020615453833981519152604482015290519081900360640190fd5b6135118a614203565b600554604080517f48ee201d000000000000000000000000000000000000000000000000000000008152600481018e90529051600160a060020a03909216916348ee201d9160248082019260e0929091908290030181600087803b15801561357857600080fd5b505af115801561358c573d6000803e3d6000fd5b505050506040513d60e08110156135a257600080fd5b5060408101516060820151608083015160a090930151919b50995090975095506135d2874263ffffffff61429316565b60048054604080517fda66325700000000000000000000000000000000000000000000000000000000815263ffffffff8d169381019390935251929950600160a060020a03169163da663257916024808201926020929091908290030181600087803b15801561364157600080fd5b505af1158015613655573d6000803e3d6000fd5b505050506040513d602081101561366b57600080fd5b5051600b54604080517f4b7d8e5c00000000000000000000000000000000000000000000000000000000815260048101849052602481018a9052604481018b905263ffffffff8c16606482015260ff8d1660848201529051929750600160a060020a0390911691634b7d8e5c9160a4808201926020929091908290030181600087803b1580156136fa57600080fd5b505af115801561370e573d6000803e3d6000fd5b505050506040513d602081101561372457600080fd5b5051600554604080517f6ed82ec9000000000000000000000000000000000000000000000000000000008152336004820152602481018f9052604481018e9052606481018490529051929650600160a060020a0390911691636ed82ec99160848082019260009290919082900301818387803b1580156137a357600080fd5b505af11580156137b7573d6000803e3d6000fd5b505050508984029250600560009054906101000a9004600160a060020a0316600160a060020a031663597ce9008c8c6040518363ffffffff1660e060020a02815260040180838152602001828152602001925050506040805180830381600087803b15801561382557600080fd5b505af1158015613839573d6000803e3d6000fd5b505050506040513d604081101561384f57600080fd5b5080516020909101516006546040805160e060020a63fee80a49028152600160a060020a038086166004830152602482018590529151949650929450169163fee80a499160448082019260009290919082900301818387803b1580156138b457600080fd5b505af11580156138c8573d6000803e3d6000fd5b505050506138d78360016142d5565b604080518b81526020810185905281518d9233927f4d6194525a1265d47b1d6b65f640509c7a2a8aa847fd0654fac933032e1348ac929081900390910190a350506000805460ff19169055505050505050505050565b6001546000908190818080805b84841015613a1157600180548590811061395057fe5b6000918252602080832090910154600480546040805160e060020a6341976e09028152600160a060020a0394851693810184905290519298509216936341976e0993602480850194919392918390030190829087803b1580156139b257600080fd5b505af11580156139c6573d6000803e3d6000fd5b505050506040513d60208110156139dc57600080fd5b505191506139e983610a07565b90508015613a0657613a038683830263ffffffff613dad16565b95505b60019093019261393a565b6000861215613a21576000613a23565b855b965050505050505090565b600354600160a060020a031690565b6000610a02613a4a61392d565b600360009054906101000a9004600160a060020a0316600160a060020a031663dad3eb746040518163ffffffff1660e060020a028152600401602060405180830381600087803b158015613a9d57600080fd5b505af1158015613ab1573d6000803e3d6000fd5b505050506040513d6020811015613ac757600080fd5b5051613d92565b6000610a026109f5613a3d565b613ae3611dba565b1515613b27576040805160e560020a62461bcd0281526020600482018190526024820152600080516020615433833981519152604482015290519081900360640190fd5b6003805473ffffffffffffffffffffffffffffffffffffffff1916600160a060020a0392909216919091179055565b613b5e611dba565b1515613ba2576040805160e560020a62461bcd0281526020600482018190526024820152600080516020615433833981519152604482015290519081900360640190fd5b80600783815481101515613bb257fe5b9060005260206000200160006101000a815481600160a060020a030219169083600160a060020a031602179055505050565b613bec611dba565b1515613c30576040805160e560020a62461bcd0281526020600482018190526024820152600080516020615433833981519152604482015290519081900360640190fd5b613c4160018263ffffffff61489916565b600160a060020a0316600090815260026020526040902063ffffffff9055565b606060078054806020026020016040519081016040528092919081815260200182805480156109dd57602002820191906000526020600020908154600160a060020a031681526001909101906020018083116109bf575050505050905090565b613cc9611dba565b1515613d0d576040805160e560020a62461bcd0281526020600482018190526024820152600080516020615433833981519152604482015290519081900360640190fd5b61223581615027565b613d1e611dba565b1515613d62576040805160e560020a62461bcd0281526020600482018190526024820152600080516020615433833981519152604482015290519081900360640190fd5b6000805491151560a860020a0275ff00000000000000000000000000000000000000000019909216919091179055565b6000818311613da2576000613da6565b8183035b9392505050565b6000613da683836040805190810160405280601d81526020017f53616665496e743235363a206164646974696f6e206f766572666c6f77000000815250615120565b8154600090815b81811015613e3e5783600160a060020a03168582815481101515613e1657fe5b600091825260209091200154600160a060020a03161415613e3657613e3e565b600101613df6565b81811015613ed15760001982018114613eb7578460018303815481101515613e6257fe5b6000918252602090912001548554600160a060020a0390911690869083908110613e8857fe5b9060005260206000200160006101000a815481600160a060020a030219169083600160a060020a031602179055505b8454613ec78660001983016153ef565b5060019250613ed6565b600092505b505092915050565b6008546103e891020490565b600080831515613efd5760009150613f8d565b50828202828482811515613f0d57fe5b0414613f89576040805160e560020a62461bcd02815260206004820152602160248201527f536166654d6174683a206d756c7469706c69636174696f6e206f766572666c6f60448201527f7700000000000000000000000000000000000000000000000000000000000000606482015290519081900360840190fd5b8091505b5092915050565b600082820183811015613f89576040805160e560020a62461bcd02815260206004820152601b60248201527f536166654d6174683a206164646974696f6e206f766572666c6f770000000000604482015290519081900360640190fd5b6000806000613fff85613285565b1515614055576040805160e560020a62461bcd02815260206004820152601f60248201527f736574746c656d656e7420697320756e737570706f7274656420746f6b656e00604482015290519081900360640190fd5b60009150600160a060020a03851615156140ac57600654604051349350600160a060020a039091169083156108fc029084906000818181858888f193505050501580156140a6573d6000803e3d6000fd5b506141f2565b60008411156141f25750604080517f23b872dd0000000000000000000000000000000000000000000000000000000081523360048201523060248201526044810185905290518591600160a060020a038316916323b872dd916064808201926020929091908290030181600087803b15801561412757600080fd5b505af115801561413b573d6000803e3d6000fd5b505050506040513d602081101561415157600080fd5b5050600654604080517fa9059cbb000000000000000000000000000000000000000000000000000000008152600160a060020a0392831660048201526024810187905290518694509183169163a9059cbb916044808201926020929091908290030181600087803b1580156141c557600080fd5b505af11580156141d9573d6000803e3d6000fd5b505050506040513d60208110156141ef57600080fd5b50505b6141fb82614203565b509392505050565b8060095410158015614217575080600a5411155b1515612235576040805160e560020a62461bcd02815260206004820152602960248201527f696e70757420616d6f756e74206973206f7574206f6620696e70757420616d6f60448201527f756e742072616e67650000000000000000000000000000000000000000000000606482015290519081900360840190fd5b6000613da683836040805190810160405280601e81526020017f536166654d6174683a207375627472616374696f6e206f766572666c6f770000815250615237565b600154604080518281526020808402820101909152600091906060908390819081908190868015614310578160200160208202803883390190505b509450600093505b8584101561443357600180548590811061432e57fe5b600091825260209091200154600160a060020a03169250614350836004615298565b1561442857600480546040805160e060020a6341976e09028152600160a060020a0387811694820194909452905192909116916341976e09916024808201926020929091908290030181600087803b1580156143ab57600080fd5b505af11580156143bf573d6000803e3d6000fd5b505050506040513d60208110156143d557600080fd5b505191506143e283611007565b85858151811015156143f057fe5b6020908102909101015284516144259086908690811061440c57fe5b602090810290910101518890840263ffffffff613f9416565b96505b600190930192614318565b8887101580156144435750600089115b15156144bf576040805160e560020a62461bcd02815260206004820152602360248201527f7061796261636b20736574746c656d656e7420697320696e737566666963696560448201527f6e74210000000000000000000000000000000000000000000000000000000000606482015290519081900360840190fd5b600093505b858410156145ac57866144f58a87878151811015156144df57fe5b602090810290910101519063ffffffff613eea16565b8115156144fe57fe5b60065460018054939092049350600160a060020a031691632454047c9133918890811061452757fe5b60009182526020822001546040805160e060020a63ffffffff8716028152600160a060020a03948516600482015293909116602484015260448301869052606483018d90525160848084019382900301818387803b15801561458857600080fd5b505af115801561459c573d6000803e3d6000fd5b5050600190950194506144c49050565b505050505050505050565b8151600090815b81811015613ed15783600160a060020a031685828151811015156145de57fe5b90602001906020020151600160a060020a031614156146005760019250613ed6565b6001016145be565b68010000000000000000830284017001000000000000000000000000000000008302017801000000000000000000000000000000000000000000000000820201949350505050565b600c5482906103e890830204101580156146745750600d5482906103e89083020411155b15156146f0576040805160e560020a62461bcd02815260206004820152602160248201527f737472696b655072696365206973206f7574206f662070726963652072616e6760448201527f6500000000000000000000000000000000000000000000000000000000000000606482015290519081900360840190fd5b5050565b60008060008060006147068989613ff1565b600480546040805160e060020a6341976e09028152600160a060020a038e8116948201949094529051939b509116916341976e09916024808201926020929091908290030181600087803b15801561475d57600080fd5b505af1158015614771573d6000803e3d6000fd5b505050506040513d602081101561478757600080fd5b5051945085870293506305f5e1008404925084848115156147a457fe5b600654604080517fc3c579cc000000000000000000000000000000000000000000000000000000008152600160a060020a038e8116600483015294909304602484018190526000604485018190529151909850939091169263c3c579cc926064808201936020939283900390910190829087803b15801561482457600080fd5b505af1158015614838573d6000803e3d6000fd5b505050506040513d602081101561484e57600080fd5b5051604080518981526020810187905280820183905290519193507f36bc09f07bcf3d3fa05df7f9c56193487df0507ecd1d5a83845b56b4e6d7b733919081900360600190a16145ac565b6148fc828054806020026020016040519081016040528092919081815260200182805480156148f157602002820191906000526020600020905b8154600160a060020a031681526001909101906020018083116148d3575b5050505050826145b7565b15156146f0578154600181018355600083815260209020018054600160a060020a03831673ffffffffffffffffffffffffffffffffffffffff199091161790555050565b6000806000806000806000614953613330565b9450848902935087841115614a1757848881151561496d57fe5b60035491900493508584029250838a039150600160a060020a0316634b91a07b3383888181151561499a57fe5b046040518463ffffffff1660e060020a0281526004018084600160a060020a0316600160a060020a031681526020018381526020018281526020019350505050600060405180830381600087803b1580156149f457600080fd5b505af1158015614a08573d6000803e3d6000fd5b50505050828296509650614a1e565b8884965096505b50505050509250929050565b6060808080851515614a3b57611d9d565b60408051600160a060020a038916815260208101889052815133927fc994feb9b99296d80965b47aec6be0d25704ddf95b9b9bc1ed8bc753960d5809928290030190a2614a87876152b9565b9350614a94338686614c4b565b925092509250600660009054906101000a9004600160a060020a0316600160a060020a031663a2fa92c73388878787876040518763ffffffff1660e060020a0281526004018087600160a060020a0316600160a060020a0316815260200186815260200180602001806020018060200180602001858103855289818151815260200191508051906020019060200280838360005b83811015614b40578181015183820152602001614b28565b50505050905001858103845288818151815260200191508051906020019060200280838360005b83811015614b7f578181015183820152602001614b67565b50505050905001858103835287818151815260200191508051906020019060200280838360005b83811015614bbe578181015183820152602001614ba6565b50505050905001858103825286818151815260200191508051906020019060200280838360005b83811015614bfd578181015183820152602001614be5565b505050509050019a5050505050505050505050600060405180830381600087803b158015614c2a57600080fd5b505af1158015614c3e573d6000803e3d6000fd5b5050505050505050505050565b606080606080606060006060808851604051908082528060200260200182016040528015614c83578160200160208202803883390190505b5094508851604051908082528060200260200182016040528015614cb1578160200160208202803883390190505b509350600092505b8851831015614de957614ce48984815181101515614cd357fe5b906020019060200201516002615298565b15614d2257614d098984815181101515614cfa57fe5b90602001906020020151611007565b8484815181101515614d1757fe5b602090810290910101525b6004548951600160a060020a03909116906341976e09908b9086908110614d4557fe5b906020019060200201516040518263ffffffff1660e060020a0281526004018082600160a060020a0316600160a060020a03168152602001915050602060405180830381600087803b158015614d9a57600080fd5b505af1158015614dae573d6000803e3d6000fd5b505050506040513d6020811015614dc457600080fd5b50518551869085908110614dd457fe5b60209081029091010152600190920191614cb9565b600660009054906101000a9004600160a060020a0316600160a060020a0316637a6a02778c8c8c888a6040518663ffffffff1660e060020a0281526004018086600160a060020a0316600160a060020a03168152602001858152602001806020018060200180602001848103845287818151815260200191508051906020019060200280838360005b83811015614e8a578181015183820152602001614e72565b50505050905001848103835286818151815260200191508051906020019060200280838360005b83811015614ec9578181015183820152602001614eb1565b50505050905001848103825285818151815260200191508051906020019060200280838360005b83811015614f08578181015183820152602001614ef0565b5050505090500198505050505050505050600060405180830381600087803b158015614f3357600080fd5b505af1158015614f47573d6000803e3d6000fd5b505050506040513d6000823e601f3d908101601f191682016040908152811015614f7057600080fd5b810190808051640100000000811115614f8857600080fd5b82016020810184811115614f9b57600080fd5b8151856020820283011164010000000082111715614fb857600080fd5b50509291906020018051640100000000811115614fd457600080fd5b82016020810184811115614fe757600080fd5b815185602082028301116401000000008211171561500457600080fd5b505092919050505091509150818186975097509750505050505093509350939050565b600160a060020a03811615156150ad576040805160e560020a62461bcd02815260206004820152602660248201527f4f776e61626c653a206e6577206f776e657220697320746865207a65726f206160448201527f6464726573730000000000000000000000000000000000000000000000000000606482015290519081900360840190fd5b60008054604051600160a060020a038085169361010090930416917f8be0079c531659141344cd1fd0a4f28419497f9722a3daafe3b4186f6b6457e091a360008054600160a060020a039092166101000274ffffffffffffffffffffffffffffffffffffffff0019909216919091179055565b60008080851215818512151461513a5783850191506141fb565b600085126151df575083830182858212156151d65760405160e560020a62461bcd0281526004018080602001828103825283818151815260200191508051906020019080838360005b8381101561519b578181015183820152602001615183565b50505050905090810190601f1680156151c85780820380516001836020036101000a031916815260200191505b509250505060405180910390fd5b508091506141fb565b5083830182858213156151d65760405160e560020a62461bcd0281526004018080602001828103825283818151815260200191508051906020019080838360008381101561519b578181015183820152602001615183565b600080828585111561528e5760405160e560020a62461bcd0281526004018080602001828103825283818151815260200191508051906020019080838360008381101561519b578181015183820152602001615183565b5050509103919050565b600160a060020a039190911660009081526002602052604090205481161490565b6060806000600180548060200260200160405190810160405280929190818152602001828054801561531457602002820191906000526020600020905b8154600160a060020a031681526001909101906020018083116152f6575b50505050509150615325828561539a565b90508015613f8d5781600081518110151561533c57fe5b90602001906020020151828281518110151561535457fe5b600160a060020a03909216602092830290910190910152815184908390600090811061537c57fe5b600160a060020a039092166020928302909101909101525092915050565b8151600090815b818110156153e75783600160a060020a031685828151811015156153c157fe5b90602001906020020151600160a060020a031614156153df576153e7565b6001016153a1565b949350505050565b81548183558181111561541357600083815260209020615413918101908301615418565b505050565b6109e591905b80821115613487576000815560010161541e56004f776e61626c653a2063616c6c6572206973206e6f7420746865206f776e65725468697320636f6e74726163742069732068616c746564000000000000000000a165627a7a72305820e5e2dd4a1f4055774eec86af24a9f09920cee36fcf8dd397b82a7e0d8aafd71e0029",
  "source": "pragma solidity ^0.4.26;\r\nimport \"./modules/SafeMath.sol\";\r\nimport \"./CollateralCal.sol\";\r\nimport \"./interfaces/IOptionsPrice.sol\";\r\nimport \"./modules/tuple64.sol\";\r\ncontract OptionsManagerV2 is CollateralCal,ImportOptionsPrice {\r\n    using SafeMath for uint256;\r\n\r\n    constructor (address oracleAddr,address optionsPriceAddr,address optionsPoolAddr,address collateralPoolAddr,address FPTCoinAddr) public{\r\n        _oracle = IFNXOracle(oracleAddr);\r\n        _optionsPrice = IOptionsPrice(optionsPriceAddr);\r\n        _optionsPool = IOptionsPool(optionsPoolAddr);\r\n        _collateralPool = ICollateralPool(collateralPoolAddr);\r\n        _FPTCoin = IFPTCoin(FPTCoinAddr);\r\n    }\r\n\r\n    uint256 internal maxPriceRate = 1500;\r\n    uint256 internal minPriceRate = 500;\r\n    function getPriceRateRange() public view returns(uint256,uint256) {\r\n        return (minPriceRate,maxPriceRate);\r\n    }\r\n    function setPriceRateRange(uint256 _minPriceRate,uint256 _maxPriceRate) public onlyOwner{\r\n        minPriceRate = _minPriceRate;\r\n        maxPriceRate = _maxPriceRate;\r\n    }\r\n    function checkStrikePrice(uint256 strikePrice,uint256 underlyingPrice)internal view{\r\n        require(underlyingPrice*maxPriceRate/1000>=strikePrice && underlyingPrice*minPriceRate/1000<=strikePrice,\r\n                \"strikePrice is out of price range\");\r\n    }\r\n    event BuyOption(address indexed from,address indexed settlement,uint256 indexed optionId,uint256 optionPrice,uint256 settlementAmount,uint256 optionAmount);\r\n    event SellOption(address indexed from,uint256 indexed optionId,uint256 amount,uint256 sellValue);\r\n    event ExerciseOption(address indexed from,uint256 indexed optionId,uint256 amount,uint256 sellValue);\r\n    function buyOption(address settlement,uint256 settlementAmount, uint256 strikePrice,uint32 underlying,\r\n                uint256 expiration,uint256 amount,uint8 optType) nonReentrant notHalted public payable{\r\n        require(optType<2,\" Must input 0 for call option or 1 for put option\");\r\n        _optionsPool.buyOptionCheck(expiration,underlying);\r\n        uint256 ty_ly_exp = tuple64.getTuple(uint256(optType),uint256(underlying),uint256(expiration),0);\r\n        uint256 underlyingPrice = _oracle.getUnderlyingPrice(underlying);\r\n        checkStrikePrice(strikePrice,underlyingPrice);\r\n        uint256 optionPrice = _optionsPrice.getOptionsPrice(underlyingPrice,strikePrice,expiration,underlying,optType); \r\n        require(getAvailableCollateral()>=calOptionsOccupied(strikePrice,underlyingPrice,amount,optType),\"collateral is insufficient!\");\r\n        _optionsPool.createOptions(msg.sender,settlement,ty_ly_exp,strikePrice,optionPrice,amount);\r\n        buyOption_sub(settlement,settlementAmount,optionPrice,amount);\r\n    }\r\n\r\n    function buyOption_sub(address settlement,uint256 settlementAmount,\r\n            uint256 optionPrice,uint256 amount)internal{\r\n        settlementAmount = getPayableAmount(settlement,settlementAmount);\r\n        uint256 settlePrice = _oracle.getPrice(settlement);\r\n        uint256 allPay = amount*optionPrice;\r\n        uint256 allPayUSd = allPay/1e8;\r\n        allPay = allPay/settlePrice;\r\n        uint256 fee = _collateralPool.addTransactionFee(settlement,allPay,0);\r\n        emit DebugEvent(optionPrice, allPay, fee);\r\n        return;\r\n        require(settlementAmount>=allPay+fee,\"settlement asset is insufficient!\");\r\n        settlementAmount = settlementAmount.sub(allPay+fee);\r\n        if (settlementAmount > 0){\r\n            _collateralPool.transferPayback(msg.sender,settlement,settlementAmount);\r\n        }\r\n        uint256 id =_optionsPool.getOptionInfoLength();\r\n        _FPTCoin.addMinerBalance(msg.sender,allPayUSd);\r\n        emit BuyOption(msg.sender,settlement,id,optionPrice,allPay,amount); \r\n    }\r\n    function sellOption(uint256 optionsId,uint256 amount) nonReentrant notHalted public{\r\n        checkInputAmount(amount);\r\n        (,,uint8 optType,uint32 underlying,uint256 expiration,uint256 strikePrice,) = _optionsPool.getOptionsById(optionsId);\r\n        expiration = expiration.sub(now);\r\n        uint256 currentPrice = _oracle.getUnderlyingPrice(underlying);\r\n        uint256 optPrice = _optionsPrice.getOptionsPrice(currentPrice,strikePrice,expiration,underlying,optType);\r\n        _optionsPool.burnOptions(msg.sender,optionsId,amount,optPrice);\r\n        uint256 allPay = optPrice*amount;\r\n        (address settlement,uint256 fullPay) = _optionsPool.getBurnedFullPay(optionsId,amount);\r\n        _collateralPool.addNetWorthBalance(settlement,int256(fullPay));\r\n        _paybackWorth(allPay,1);\r\n        emit SellOption(msg.sender,optionsId,amount,allPay);\r\n    }\r\n    function exerciseOption(uint256 optionsId,uint256 amount) nonReentrant notHalted public{\r\n        checkInputAmount(amount);\r\n        uint256 allPay = _optionsPool.getExerciseWorth(optionsId,amount);\r\n        if (allPay == 0) {\r\n            return;\r\n        }\r\n        (,,uint8 optType,uint32 underlying,uint256 expiration,uint256 strikePrice,) = _optionsPool.getOptionsById(optionsId);\r\n        expiration = expiration.sub(now);\r\n        uint256 currentPrice = _oracle.getUnderlyingPrice(underlying);\r\n        uint256 optPrice = _optionsPrice.getOptionsPrice(currentPrice,strikePrice,expiration,underlying,optType);\r\n        _optionsPool.burnOptions(msg.sender,optionsId,amount,optPrice);\r\n        (address settlement,uint256 fullPay) = _optionsPool.getBurnedFullPay(optionsId,amount);\r\n        _collateralPool.addNetWorthBalance(settlement,int256(fullPay));\r\n        _paybackWorth(allPay,2);\r\n        emit ExerciseOption(msg.sender,optionsId,amount,allPay);\r\n    }\r\n}",
  "sourcePath": "C:\\work\\solidity\\FinnexusOptions_V2\\contracts\\OptionsManagerV2.sol",
  "compiler": {
    "name": "solc",
    "version": "0.4.26+commit.4563c3fc.Emscripten.clang"
  },
  "schemaVersion": "3.1.0",
  "updatedAt": "2020-08-12T10:47:34.917Z",
  "devdoc": {
    "methods": {
      "addWhiteList(address)": {
        "details": "Implementation of add an eligible address into the whitelist.\r",
        "params": {
          "addAddress": "new eligible address.\r"
        }
      },
      "getWhiteList()": {
        "details": "Implementation of getting the eligible whitelist.\r"
      },
      "isEligibleAddress(address)": {
        "details": "Implementation of testing whether the input address is eligible.\r",
        "params": {
          "tmpAddress": "input address for testing.\r"
        }
      },
      "isOwner()": {
        "details": "Returns true if the caller is the current owner."
      },
      "owner()": {
        "details": "Returns the address of the current owner."
      },
      "removeWhiteList(address)": {
        "details": "Implementation of revoke an invalid address from the whitelist.\r",
        "params": {
          "removeAddress": "revoked address.\r"
        }
      },
      "renounceOwnership()": {
        "details": "Leaves the contract without owner. It will not be possible to call `onlyOwner` functions anymore. Can only be called by the current owner.     * NOTE: Renouncing ownership will leave the contract without an owner, thereby removing any functionality that is only available to the owner."
      },
      "transferOwnership(address)": {
        "details": "Transfers ownership of the contract to a new account (`newOwner`). Can only be called by the current owner."
      }
    }
  },
  "userdoc": {
    "methods": {
      "setHalt(bool)": {
        "notice": "function Emergency situation that requires contribution period to stop or not."
      }
    }
  }
}