{
  "contractName": "OptionsMangerV2",
  "abi": [
    {
      "constant": true,
      "inputs": [],
      "name": "name",
      "outputs": [
        {
          "name": "",
          "type": "string"
        }
      ],
      "payable": false,
      "stateMutability": "view",
      "type": "function"
    },
    {
      "constant": false,
      "inputs": [
        {
          "name": "spender",
          "type": "address"
        },
        {
          "name": "amount",
          "type": "uint256"
        }
      ],
      "name": "approve",
      "outputs": [
        {
          "name": "",
          "type": "bool"
        }
      ],
      "payable": false,
      "stateMutability": "nonpayable",
      "type": "function"
    },
    {
      "constant": true,
      "inputs": [],
      "name": "getWhiteList",
      "outputs": [
        {
          "name": "",
          "type": "address[]"
        }
      ],
      "payable": false,
      "stateMutability": "view",
      "type": "function"
    },
    {
      "constant": true,
      "inputs": [],
      "name": "getLeftCollateral",
      "outputs": [
        {
          "name": "",
          "type": "uint256"
        }
      ],
      "payable": false,
      "stateMutability": "view",
      "type": "function"
    },
    {
      "constant": true,
      "inputs": [],
      "name": "lastCallOption",
      "outputs": [
        {
          "name": "",
          "type": "uint256"
        }
      ],
      "payable": false,
      "stateMutability": "view",
      "type": "function"
    },
    {
      "constant": true,
      "inputs": [],
      "name": "totalSupply",
      "outputs": [
        {
          "name": "",
          "type": "uint256"
        }
      ],
      "payable": false,
      "stateMutability": "view",
      "type": "function"
    },
    {
      "constant": false,
      "inputs": [
        {
          "name": "removeAddress",
          "type": "address"
        }
      ],
      "name": "removeWhiteList",
      "outputs": [
        {
          "name": "",
          "type": "bool"
        }
      ],
      "payable": false,
      "stateMutability": "nonpayable",
      "type": "function"
    },
    {
      "constant": false,
      "inputs": [
        {
          "name": "sender",
          "type": "address"
        },
        {
          "name": "recipient",
          "type": "address"
        },
        {
          "name": "amount",
          "type": "uint256"
        }
      ],
      "name": "transferFrom",
      "outputs": [
        {
          "name": "",
          "type": "bool"
        }
      ],
      "payable": false,
      "stateMutability": "nonpayable",
      "type": "function"
    },
    {
      "constant": true,
      "inputs": [
        {
          "name": "",
          "type": "address"
        }
      ],
      "name": "collateralBalances",
      "outputs": [
        {
          "name": "",
          "type": "uint256"
        }
      ],
      "payable": false,
      "stateMutability": "view",
      "type": "function"
    },
    {
      "constant": true,
      "inputs": [
        {
          "name": "",
          "type": "address"
        }
      ],
      "name": "premiumBalances",
      "outputs": [
        {
          "name": "",
          "type": "uint256"
        }
      ],
      "payable": false,
      "stateMutability": "view",
      "type": "function"
    },
    {
      "constant": false,
      "inputs": [],
      "name": "redeemAll",
      "outputs": [],
      "payable": false,
      "stateMutability": "nonpayable",
      "type": "function"
    },
    {
      "constant": true,
      "inputs": [],
      "name": "decimals",
      "outputs": [
        {
          "name": "",
          "type": "uint8"
        }
      ],
      "payable": false,
      "stateMutability": "view",
      "type": "function"
    },
    {
      "constant": true,
      "inputs": [
        {
          "name": "feeType",
          "type": "uint256"
        },
        {
          "name": "amount",
          "type": "uint256"
        }
      ],
      "name": "calculateFee",
      "outputs": [
        {
          "name": "",
          "type": "uint256"
        }
      ],
      "payable": false,
      "stateMutability": "view",
      "type": "function"
    },
    {
      "constant": true,
      "inputs": [],
      "name": "getUnderlyingAssets",
      "outputs": [
        {
          "name": "",
          "type": "uint32[]"
        }
      ],
      "payable": false,
      "stateMutability": "view",
      "type": "function"
    },
    {
      "constant": false,
      "inputs": [
        {
          "name": "spender",
          "type": "address"
        },
        {
          "name": "addedValue",
          "type": "uint256"
        }
      ],
      "name": "increaseAllowance",
      "outputs": [
        {
          "name": "",
          "type": "bool"
        }
      ],
      "payable": false,
      "stateMutability": "nonpayable",
      "type": "function"
    },
    {
      "constant": true,
      "inputs": [
        {
          "name": "",
          "type": "uint256"
        }
      ],
      "name": "expirationList",
      "outputs": [
        {
          "name": "",
          "type": "uint256"
        }
      ],
      "payable": false,
      "stateMutability": "view",
      "type": "function"
    },
    {
      "constant": true,
      "inputs": [
        {
          "name": "",
          "type": "uint256"
        }
      ],
      "name": "underlyingAssets",
      "outputs": [
        {
          "name": "",
          "type": "uint32"
        }
      ],
      "payable": false,
      "stateMutability": "view",
      "type": "function"
    },
    {
      "constant": true,
      "inputs": [
        {
          "name": "optionsId",
          "type": "uint256"
        }
      ],
      "name": "getOptionsById",
      "outputs": [
        {
          "name": "",
          "type": "uint256"
        },
        {
          "name": "",
          "type": "address"
        },
        {
          "name": "",
          "type": "uint8"
        },
        {
          "name": "",
          "type": "uint32"
        },
        {
          "name": "",
          "type": "uint256"
        },
        {
          "name": "",
          "type": "uint256"
        },
        {
          "name": "",
          "type": "uint256"
        }
      ],
      "payable": false,
      "stateMutability": "view",
      "type": "function"
    },
    {
      "constant": false,
      "inputs": [
        {
          "name": "oracle",
          "type": "address"
        }
      ],
      "name": "setOracleAddress",
      "outputs": [],
      "payable": false,
      "stateMutability": "nonpayable",
      "type": "function"
    },
    {
      "constant": true,
      "inputs": [
        {
          "name": "",
          "type": "address"
        }
      ],
      "name": "feeBalances",
      "outputs": [
        {
          "name": "",
          "type": "uint256"
        }
      ],
      "payable": false,
      "stateMutability": "view",
      "type": "function"
    },
    {
      "constant": true,
      "inputs": [
        {
          "name": "",
          "type": "address"
        },
        {
          "name": "",
          "type": "uint256"
        }
      ],
      "name": "optionsBalances",
      "outputs": [
        {
          "name": "",
          "type": "uint256"
        }
      ],
      "payable": false,
      "stateMutability": "view",
      "type": "function"
    },
    {
      "constant": true,
      "inputs": [],
      "name": "collateralRate",
      "outputs": [
        {
          "name": "numerator",
          "type": "uint256"
        },
        {
          "name": "denominator",
          "type": "uint256"
        }
      ],
      "payable": false,
      "stateMutability": "view",
      "type": "function"
    },
    {
      "constant": true,
      "inputs": [
        {
          "name": "",
          "type": "uint256"
        }
      ],
      "name": "whiteList",
      "outputs": [
        {
          "name": "",
          "type": "address"
        }
      ],
      "payable": false,
      "stateMutability": "view",
      "type": "function"
    },
    {
      "constant": true,
      "inputs": [
        {
          "name": "optionsId",
          "type": "uint256"
        },
        {
          "name": "amount",
          "type": "uint256"
        }
      ],
      "name": "getExerciseWorth",
      "outputs": [
        {
          "name": "",
          "type": "uint256"
        }
      ],
      "payable": false,
      "stateMutability": "view",
      "type": "function"
    },
    {
      "constant": false,
      "inputs": [
        {
          "name": "collateral",
          "type": "address"
        },
        {
          "name": "amount",
          "type": "uint256"
        }
      ],
      "name": "addCollateral",
      "outputs": [],
      "payable": true,
      "stateMutability": "payable",
      "type": "function"
    },
    {
      "constant": true,
      "inputs": [
        {
          "name": "account",
          "type": "address"
        }
      ],
      "name": "balanceOf",
      "outputs": [
        {
          "name": "",
          "type": "uint256"
        }
      ],
      "payable": false,
      "stateMutability": "view",
      "type": "function"
    },
    {
      "constant": false,
      "inputs": [],
      "name": "renounceOwnership",
      "outputs": [],
      "payable": false,
      "stateMutability": "nonpayable",
      "type": "function"
    },
    {
      "constant": true,
      "inputs": [],
      "name": "lastCalBlock",
      "outputs": [
        {
          "name": "",
          "type": "uint256"
        }
      ],
      "payable": false,
      "stateMutability": "view",
      "type": "function"
    },
    {
      "constant": true,
      "inputs": [
        {
          "name": "tmpAddress",
          "type": "address"
        }
      ],
      "name": "isEligibleAddress",
      "outputs": [
        {
          "name": "",
          "type": "bool"
        }
      ],
      "payable": false,
      "stateMutability": "view",
      "type": "function"
    },
    {
      "constant": true,
      "inputs": [],
      "name": "owner",
      "outputs": [
        {
          "name": "",
          "type": "address"
        }
      ],
      "payable": false,
      "stateMutability": "view",
      "type": "function"
    },
    {
      "constant": true,
      "inputs": [
        {
          "name": "",
          "type": "uint256"
        }
      ],
      "name": "allOptions",
      "outputs": [
        {
          "name": "optionID",
          "type": "uint256"
        },
        {
          "name": "owner",
          "type": "address"
        },
        {
          "name": "optType",
          "type": "uint8"
        },
        {
          "name": "underlying",
          "type": "uint32"
        },
        {
          "name": "expiration",
          "type": "uint256"
        },
        {
          "name": "strikePrice",
          "type": "uint256"
        },
        {
          "name": "amount",
          "type": "uint256"
        },
        {
          "name": "ivNumerator",
          "type": "int256"
        },
        {
          "name": "ivDenominator",
          "type": "int256"
        }
      ],
      "payable": false,
      "stateMutability": "view",
      "type": "function"
    },
    {
      "constant": true,
      "inputs": [],
      "name": "isOwner",
      "outputs": [
        {
          "name": "",
          "type": "bool"
        }
      ],
      "payable": false,
      "stateMutability": "view",
      "type": "function"
    },
    {
      "constant": false,
      "inputs": [
        {
          "name": "currency",
          "type": "address"
        }
      ],
      "name": "redeem",
      "outputs": [],
      "payable": false,
      "stateMutability": "nonpayable",
      "type": "function"
    },
    {
      "constant": true,
      "inputs": [],
      "name": "symbol",
      "outputs": [
        {
          "name": "",
          "type": "string"
        }
      ],
      "payable": false,
      "stateMutability": "view",
      "type": "function"
    },
    {
      "constant": false,
      "inputs": [
        {
          "name": "index",
          "type": "uint256"
        }
      ],
      "name": "calculatePhaseOccupiedCollateral",
      "outputs": [],
      "payable": false,
      "stateMutability": "nonpayable",
      "type": "function"
    },
    {
      "constant": false,
      "inputs": [
        {
          "name": "tokenAmount",
          "type": "uint256"
        },
        {
          "name": "collateral",
          "type": "address"
        }
      ],
      "name": "redeemCollateral",
      "outputs": [],
      "payable": false,
      "stateMutability": "nonpayable",
      "type": "function"
    },
    {
      "constant": false,
      "inputs": [
        {
          "name": "spender",
          "type": "address"
        },
        {
          "name": "subtractedValue",
          "type": "uint256"
        }
      ],
      "name": "decreaseAllowance",
      "outputs": [
        {
          "name": "",
          "type": "bool"
        }
      ],
      "payable": false,
      "stateMutability": "nonpayable",
      "type": "function"
    },
    {
      "constant": false,
      "inputs": [
        {
          "name": "recipient",
          "type": "address"
        },
        {
          "name": "amount",
          "type": "uint256"
        }
      ],
      "name": "transfer",
      "outputs": [
        {
          "name": "",
          "type": "bool"
        }
      ],
      "payable": false,
      "stateMutability": "nonpayable",
      "type": "function"
    },
    {
      "constant": true,
      "inputs": [
        {
          "name": "",
          "type": "uint256"
        },
        {
          "name": "",
          "type": "uint256"
        },
        {
          "name": "",
          "type": "uint256"
        }
      ],
      "name": "burnBlockOptions",
      "outputs": [
        {
          "name": "",
          "type": "uint256"
        }
      ],
      "payable": false,
      "stateMutability": "view",
      "type": "function"
    },
    {
      "constant": false,
      "inputs": [
        {
          "name": "underlying",
          "type": "uint32"
        }
      ],
      "name": "addUnderlyingAsset",
      "outputs": [],
      "payable": false,
      "stateMutability": "nonpayable",
      "type": "function"
    },
    {
      "constant": true,
      "inputs": [],
      "name": "getOracleAddress",
      "outputs": [
        {
          "name": "",
          "type": "address"
        }
      ],
      "payable": false,
      "stateMutability": "view",
      "type": "function"
    },
    {
      "constant": true,
      "inputs": [
        {
          "name": "",
          "type": "address"
        },
        {
          "name": "",
          "type": "address"
        }
      ],
      "name": "userInputCollateral",
      "outputs": [
        {
          "name": "",
          "type": "uint256"
        }
      ],
      "payable": false,
      "stateMutability": "view",
      "type": "function"
    },
    {
      "constant": true,
      "inputs": [],
      "name": "halted",
      "outputs": [
        {
          "name": "",
          "type": "bool"
        }
      ],
      "payable": false,
      "stateMutability": "view",
      "type": "function"
    },
    {
      "constant": false,
      "inputs": [
        {
          "name": "feeType",
          "type": "uint256"
        },
        {
          "name": "numerator",
          "type": "uint256"
        },
        {
          "name": "denominator",
          "type": "uint256"
        }
      ],
      "name": "setTransactionFee",
      "outputs": [],
      "payable": false,
      "stateMutability": "nonpayable",
      "type": "function"
    },
    {
      "constant": true,
      "inputs": [],
      "name": "tokenNetWorth",
      "outputs": [
        {
          "name": "",
          "type": "uint256"
        }
      ],
      "payable": false,
      "stateMutability": "view",
      "type": "function"
    },
    {
      "constant": true,
      "inputs": [],
      "name": "optionPhase",
      "outputs": [
        {
          "name": "",
          "type": "uint32"
        }
      ],
      "payable": false,
      "stateMutability": "view",
      "type": "function"
    },
    {
      "constant": true,
      "inputs": [
        {
          "name": "settlement",
          "type": "address"
        }
      ],
      "name": "getFeeBalance",
      "outputs": [
        {
          "name": "",
          "type": "uint256"
        }
      ],
      "payable": false,
      "stateMutability": "view",
      "type": "function"
    },
    {
      "constant": true,
      "inputs": [],
      "name": "getOccupiedCollateral",
      "outputs": [
        {
          "name": "",
          "type": "uint256"
        }
      ],
      "payable": false,
      "stateMutability": "view",
      "type": "function"
    },
    {
      "constant": true,
      "inputs": [
        {
          "name": "feeType",
          "type": "uint256"
        }
      ],
      "name": "getFeeRate",
      "outputs": [
        {
          "name": "",
          "type": "uint256"
        },
        {
          "name": "",
          "type": "uint256"
        }
      ],
      "payable": false,
      "stateMutability": "view",
      "type": "function"
    },
    {
      "constant": false,
      "inputs": [
        {
          "name": "removeUnderlying",
          "type": "uint32"
        }
      ],
      "name": "removeUnderlyingAssets",
      "outputs": [
        {
          "name": "",
          "type": "bool"
        }
      ],
      "payable": false,
      "stateMutability": "nonpayable",
      "type": "function"
    },
    {
      "constant": true,
      "inputs": [],
      "name": "getTotalCollateral",
      "outputs": [
        {
          "name": "",
          "type": "uint256"
        }
      ],
      "payable": false,
      "stateMutability": "view",
      "type": "function"
    },
    {
      "constant": true,
      "inputs": [
        {
          "name": "underlying",
          "type": "uint32"
        }
      ],
      "name": "isEligibleUnderlyingAsset",
      "outputs": [
        {
          "name": "",
          "type": "bool"
        }
      ],
      "payable": false,
      "stateMutability": "view",
      "type": "function"
    },
    {
      "constant": true,
      "inputs": [
        {
          "name": "owner",
          "type": "address"
        },
        {
          "name": "spender",
          "type": "address"
        }
      ],
      "name": "allowance",
      "outputs": [
        {
          "name": "",
          "type": "uint256"
        }
      ],
      "payable": false,
      "stateMutability": "view",
      "type": "function"
    },
    {
      "constant": true,
      "inputs": [
        {
          "name": "",
          "type": "address"
        }
      ],
      "name": "userCollateralPaying",
      "outputs": [
        {
          "name": "",
          "type": "uint256"
        }
      ],
      "payable": false,
      "stateMutability": "view",
      "type": "function"
    },
    {
      "constant": true,
      "inputs": [
        {
          "name": "",
          "type": "uint256"
        }
      ],
      "name": "FeeRates",
      "outputs": [
        {
          "name": "numerator",
          "type": "uint256"
        },
        {
          "name": "denominator",
          "type": "uint256"
        }
      ],
      "payable": false,
      "stateMutability": "view",
      "type": "function"
    },
    {
      "constant": false,
      "inputs": [
        {
          "name": "addAddress",
          "type": "address"
        }
      ],
      "name": "addWhiteList",
      "outputs": [],
      "payable": false,
      "stateMutability": "nonpayable",
      "type": "function"
    },
    {
      "constant": true,
      "inputs": [
        {
          "name": "underlying",
          "type": "uint32"
        }
      ],
      "name": "checkUnderlyingAsset",
      "outputs": [],
      "payable": false,
      "stateMutability": "view",
      "type": "function"
    },
    {
      "constant": true,
      "inputs": [],
      "name": "getAllFeeBalances",
      "outputs": [
        {
          "name": "",
          "type": "address[]"
        },
        {
          "name": "",
          "type": "uint256[]"
        }
      ],
      "payable": false,
      "stateMutability": "view",
      "type": "function"
    },
    {
      "constant": false,
      "inputs": [
        {
          "name": "newOwner",
          "type": "address"
        }
      ],
      "name": "transferOwnership",
      "outputs": [],
      "payable": false,
      "stateMutability": "nonpayable",
      "type": "function"
    },
    {
      "constant": false,
      "inputs": [
        {
          "name": "halt",
          "type": "bool"
        }
      ],
      "name": "setHalt",
      "outputs": [],
      "payable": false,
      "stateMutability": "nonpayable",
      "type": "function"
    },
    {
      "constant": true,
      "inputs": [
        {
          "name": "tmpAddress",
          "type": "address"
        }
      ],
      "name": "checkEligibleAddress",
      "outputs": [],
      "payable": false,
      "stateMutability": "view",
      "type": "function"
    },
    {
      "anonymous": false,
      "inputs": [
        {
          "indexed": true,
          "name": "value1",
          "type": "uint256"
        },
        {
          "indexed": true,
          "name": "value2",
          "type": "uint256"
        },
        {
          "indexed": true,
          "name": "value3",
          "type": "uint256"
        }
      ],
      "name": "DebugEvent",
      "type": "event"
    },
    {
      "anonymous": false,
      "inputs": [
        {
          "indexed": true,
          "name": "from",
          "type": "address"
        },
        {
          "indexed": true,
          "name": "to",
          "type": "address"
        },
        {
          "indexed": false,
          "name": "value",
          "type": "uint256"
        }
      ],
      "name": "Transfer",
      "type": "event"
    },
    {
      "anonymous": false,
      "inputs": [
        {
          "indexed": true,
          "name": "owner",
          "type": "address"
        },
        {
          "indexed": true,
          "name": "spender",
          "type": "address"
        },
        {
          "indexed": false,
          "name": "value",
          "type": "uint256"
        }
      ],
      "name": "Approval",
      "type": "event"
    },
    {
      "anonymous": false,
      "inputs": [
        {
          "indexed": true,
          "name": "recieptor",
          "type": "address"
        },
        {
          "indexed": true,
          "name": "settlement",
          "type": "address"
        },
        {
          "indexed": false,
          "name": "payback",
          "type": "uint256"
        }
      ],
      "name": "FeePayback",
      "type": "event"
    },
    {
      "anonymous": false,
      "inputs": [
        {
          "indexed": true,
          "name": "settlement",
          "type": "address"
        },
        {
          "indexed": false,
          "name": "payback",
          "type": "uint256"
        }
      ],
      "name": "AddFee",
      "type": "event"
    },
    {
      "anonymous": false,
      "inputs": [
        {
          "indexed": true,
          "name": "recieptor",
          "type": "address"
        },
        {
          "indexed": true,
          "name": "settlement",
          "type": "address"
        },
        {
          "indexed": false,
          "name": "payback",
          "type": "uint256"
        }
      ],
      "name": "TransferPayback",
      "type": "event"
    },
    {
      "anonymous": false,
      "inputs": [
        {
          "indexed": true,
          "name": "previousOwner",
          "type": "address"
        },
        {
          "indexed": true,
          "name": "newOwner",
          "type": "address"
        }
      ],
      "name": "OwnershipTransferred",
      "type": "event"
    },
    {
      "constant": true,
      "inputs": [],
      "name": "getOptionsPriceAddress",
      "outputs": [
        {
          "name": "",
          "type": "address"
        }
      ],
      "payable": false,
      "stateMutability": "view",
      "type": "function"
    },
    {
      "constant": false,
      "inputs": [
        {
          "name": "options",
          "type": "address"
        }
      ],
      "name": "setOptionsPriceAddress",
      "outputs": [],
      "payable": false,
      "stateMutability": "nonpayable",
      "type": "function"
    },
    {
      "constant": false,
      "inputs": [
        {
          "name": "settlement",
          "type": "address"
        },
        {
          "name": "settlementAmount",
          "type": "uint256"
        },
        {
          "name": "strikePrice",
          "type": "uint256"
        },
        {
          "name": "underlying",
          "type": "uint32"
        },
        {
          "name": "expiration",
          "type": "uint256"
        },
        {
          "name": "amount",
          "type": "uint256"
        },
        {
          "name": "optType",
          "type": "uint8"
        }
      ],
      "name": "buyOption",
      "outputs": [],
      "payable": true,
      "stateMutability": "payable",
      "type": "function"
    },
    {
      "constant": false,
      "inputs": [
        {
          "name": "optionsId",
          "type": "uint256"
        },
        {
          "name": "amount",
          "type": "uint256"
        }
      ],
      "name": "sellOption",
      "outputs": [],
      "payable": false,
      "stateMutability": "nonpayable",
      "type": "function"
    },
    {
      "constant": false,
      "inputs": [
        {
          "name": "optionsId",
          "type": "uint256"
        },
        {
          "name": "amount",
          "type": "uint256"
        }
      ],
      "name": "exerciseOption",
      "outputs": [],
      "payable": false,
      "stateMutability": "nonpayable",
      "type": "function"
    },
    {
      "constant": false,
      "inputs": [
        {
          "name": "expiration",
          "type": "uint256"
        }
      ],
      "name": "addExpiration",
      "outputs": [],
      "payable": false,
      "stateMutability": "nonpayable",
      "type": "function"
    },
    {
      "constant": false,
      "inputs": [
        {
          "name": "removeExpiration",
          "type": "uint256"
        }
      ],
      "name": "removeExpirationList",
      "outputs": [
        {
          "name": "",
          "type": "bool"
        }
      ],
      "payable": false,
      "stateMutability": "nonpayable",
      "type": "function"
    },
    {
      "constant": true,
      "inputs": [],
      "name": "getExpirationList",
      "outputs": [
        {
          "name": "",
          "type": "uint256[]"
        }
      ],
      "payable": false,
      "stateMutability": "view",
      "type": "function"
    },
    {
      "constant": true,
      "inputs": [
        {
          "name": "expiration",
          "type": "uint256"
        }
      ],
      "name": "isEligibleExpiration",
      "outputs": [
        {
          "name": "",
          "type": "bool"
        }
      ],
      "payable": false,
      "stateMutability": "view",
      "type": "function"
    },
    {
      "constant": true,
      "inputs": [
        {
          "name": "expiration",
          "type": "uint256"
        }
      ],
      "name": "checkExpiration",
      "outputs": [],
      "payable": false,
      "stateMutability": "view",
      "type": "function"
    }
  ],
  "bytecode": "0x6002805460ff199081169091556402540be4006009556000600b55600c805463ffffffff19166101f417905560108054909116905560c0604052600a60808190527f536861726564436f696e0000000000000000000000000000000000000000000060a090815262000075916011919062000269565b506040805180820190915260058082527f53436f696e0000000000000000000000000000000000000000000000000000006020909201918252620000bc9160129162000269565b50600060158190556402540be4006016556040805180820182526003808252600160209092018290526017556018556305f5e100601b558154600160a060020a03191633178083559051600160a060020a039190911691907f8be0079c531659141344cd1fd0a4f28419497f9722a3daafe3b4186f6b6457e0908290a360408051808201825260038082526103e8602080840182815260058054600181810183556000838152975160029283027f036b6384b5eca791c62761152d0c79bb0604c104a5fb6f4eb0703f3154bb3db08181019290925594517f036b6384b5eca791c62761152d0c79bb0604c104a5fb6f4eb0703f3154bb3db1958601558951808b018b5288815280870188815285548085018755868c5291519185028084019290925551908601558951808b018b5288815280870188815285548085018755868c5291519185028084019290925551908601558951808b018b5288815280870188815285548085018755868c5291519185028084019290925551908601558951808b01909a52968952938801948552815493840182559552945193029182019290925590519101556200030e565b828054600181600116156101000203166002900490600052602060002090601f016020900481019282601f10620002ac57805160ff1916838001178555620002dc565b82800160010185558215620002dc579182015b82811115620002dc578251825591602001919060010190620002bf565b50620002ea929150620002ee565b5090565b6200030b91905b80821115620002ea5760008155600101620002f5565b90565b614ed6806200031e6000396000f3006080604052600436106103295763ffffffff60e060020a60003504166306fdde03811461032e578063095ea7b3146103b857806309a9d76c146103f05780630aaf383214610455578063132a56271461047c57806318160ddd146104915780632042e5c2146104a657806323b872dd146104c757806329bc969d146104f15780632b4f30ee146105125780632f4350c214610533578063313ce5671461054a57806334e73122146105755780633582d7891461059057806339509351146105a55780633ad98099146105c95780633b50c4d1146105e157806348ee201d146106125780634c69c00f1461067157806353afc0251461069257806355c47cb2146106b357806358a6be1c146106d75780635c475d42146107055780635ca4b73b1461073957806367b8ceb91461074e5780636d75b9ee1461076957806370a0823114610780578063715018a6146107a1578063723931ca146107b65780637c9c6712146107ce5780637cfff2d8146107e95780637e2eeb7e146108015780637e838fa314610816578063817bf86d1461082e5780638da5cb5b1461084f5780638ea745b8146108645780638f32d59b146108d25780639052d5f8146108e7578063925c482c146108fc57806395a2251f1461092b57806395d89b411461094c57806399deae0a146109615780639ef975d214610979578063a093e2d014610991578063a20a8045146109b2578063a457c2d7146109d6578063a9059cbb146109fa578063a95c594a14610a1e578063afec82fc14610a3c578063b18b78dd14610a5a578063b4d5a9c714610a6f578063b9b8af0b14610a96578063bf36b11014610aab578063bf7f96df14610ac9578063c27b7dfb14610ade578063c78f680314610af3578063cd40581914610b14578063d189290414610b29578063d2aaef4e14610b44578063d6d1401214610b5c578063d6eb591014610b7a578063db6ad2bd14610b8f578063dd62ed3e14610bad578063ddb944e514610bd4578063e0561aa114610bf5578063e7cd4a0414610c0d578063ee29c94a14610c2e578063f20568cd14610c4c578063f2fde38b14610cfa578063f495438714610d1b578063f939fdca14610d35575b600080fd5b34801561033a57600080fd5b50610343610d56565b6040805160208082528351818301528351919283929083019185019080838360005b8381101561037d578181015183820152602001610365565b50505050905090810190601f1680156103aa5780820380516001836020036101000a031916815260200191505b509250505060405180910390f35b3480156103c457600080fd5b506103dc600160a060020a0360043516602435610de4565b604080519115158252519081900360200190f35b3480156103fc57600080fd5b50610405610dfa565b60408051602080825283518183015283519192839290830191858101910280838360005b83811015610441578181015183820152602001610429565b505050509050019250505060405180910390f35b34801561046157600080fd5b5061046a610e5d565b60408051918252519081900360200190f35b34801561048857600080fd5b5061046a610e75565b34801561049d57600080fd5b5061046a610e7b565b3480156104b257600080fd5b506103dc600160a060020a0360043516610e81565b3480156104d357600080fd5b506103dc600160a060020a0360043581169060243516604435610ee0565b3480156104fd57600080fd5b5061046a600160a060020a0360043516610f93565b34801561051e57600080fd5b5061046a600160a060020a0360043516610fa5565b34801561053f57600080fd5b50610548610fb7565b005b34801561055657600080fd5b5061055f61104a565b6040805160ff9092168252519081900360200190f35b34801561058157600080fd5b5061046a60043560243561104f565b34801561059c57600080fd5b50610405611096565b3480156105b157600080fd5b506103dc600160a060020a0360043516602435611119565b3480156105d557600080fd5b5061046a600435611155565b3480156105ed57600080fd5b506105f9600435611174565b6040805163ffffffff9092168252519081900360200190f35b34801561061e57600080fd5b5061062a6004356111ac565b60408051978852600160a060020a03909616602088015260ff9094168686015263ffffffff9092166060860152608085015260a084015260c0830152519081900360e00190f35b34801561067d57600080fd5b50610548600160a060020a0360043516611221565b34801561069e57600080fd5b5061046a600160a060020a036004351661129c565b3480156106bf57600080fd5b5061046a600160a060020a03600435166024356112ae565b3480156106e357600080fd5b506106ec6112de565b6040805192835260208301919091528051918290030190f35b34801561071157600080fd5b5061071d6004356112e7565b60408051600160a060020a039092168252519081900360200190f35b34801561074557600080fd5b5061071d61130f565b34801561075a57600080fd5b5061046a60043560243561131e565b610548600160a060020a036004351660243561146f565b34801561078c57600080fd5b5061046a600160a060020a036004351661164e565b3480156107ad57600080fd5b50610548611669565b3480156107c257600080fd5b5061054860043561170c565b3480156107da57600080fd5b50610548600435602435611717565b3480156107f557600080fd5b506105486004356117a7565b34801561080d57600080fd5b5061046a6117fe565b34801561082257600080fd5b506103dc600435611804565b34801561083a57600080fd5b506103dc600160a060020a036004351661185d565b34801561085b57600080fd5b5061071d61186a565b34801561087057600080fd5b5061087c600435611879565b60408051998a52600160a060020a0390981660208a015260ff9096168888015263ffffffff9094166060880152608087019290925260a086015260c085015260e084015261010083015251908190036101200190f35b3480156108de57600080fd5b506103dc6118f5565b3480156108f357600080fd5b50610405611906565b610548600160a060020a036004351660243560443563ffffffff6064351660843560a43560ff60c4351661195d565b34801561093757600080fd5b50610548600160a060020a0360043516611c5b565b34801561095857600080fd5b50610343611e4b565b34801561096d57600080fd5b50610548600435611ea6565b34801561098557600080fd5b506103dc600435612167565b34801561099d57600080fd5b50610548600160a060020a0360043516612174565b3480156109be57600080fd5b50610548600435600160a060020a03602435166121ef565b3480156109e257600080fd5b506103dc600160a060020a036004351660243561242e565b348015610a0657600080fd5b506103dc600160a060020a03600435166024356124c7565b348015610a2a57600080fd5b5061046a6004356024356044356124d4565b348015610a4857600080fd5b5061054863ffffffff60043516612514565b348015610a6657600080fd5b5061071d61256b565b348015610a7b57600080fd5b5061046a600160a060020a036004358116906024351661257a565b348015610aa257600080fd5b506103dc612597565b348015610ab757600080fd5b506105486004356024356044356125a0565b348015610ad557600080fd5b5061046a612604565b348015610aea57600080fd5b506105f961260a565b348015610aff57600080fd5b5061046a600160a060020a0360043516612616565b348015610b2057600080fd5b5061046a612631565b348015610b3557600080fd5b5061054860043560243561264e565b348015610b5057600080fd5b506106ec600435612860565b348015610b6857600080fd5b506103dc63ffffffff60043516612881565b348015610b8657600080fd5b5061046a6128da565b348015610b9b57600080fd5b506103dc63ffffffff600435166129fe565b348015610bb957600080fd5b5061046a600160a060020a0360043581169060243516612a0b565b348015610be057600080fd5b5061046a600160a060020a0360043516612a36565b348015610c0157600080fd5b506106ec600435612a48565b348015610c1957600080fd5b50610548600160a060020a0360043516612a74565b348015610c3a57600080fd5b5061054863ffffffff60043516612acb565b348015610c5857600080fd5b50610c61612ad6565b604051808060200180602001838103835285818151815260200191508051906020019060200280838360005b83811015610ca5578181015183820152602001610c8d565b50505050905001838103825284818151815260200191508051906020019060200280838360005b83811015610ce4578181015183820152602001610ccc565b5050505090500194505050505060405180910390f35b348015610d0657600080fd5b50610548600160a060020a0360043516612bdf565b348015610d2757600080fd5b506105486004351515612c34565b348015610d4157600080fd5b50610548600160a060020a0360043516612c93565b6011805460408051602060026001851615610100026000190190941693909304601f81018490048402820184019092528181529291830182828015610ddc5780601f10610db157610100808354040283529160200191610ddc565b820191906000526020600020905b815481529060010190602001808311610dbf57829003601f168201915b505050505081565b6000610df1338484612c9e565b50600192915050565b60606003805480602002602001604051908101604052809291908181526020018280548015610e5257602002820191906000526020600020905b8154600160a060020a03168152600190910190602001808311610e34575b505050505090505b90565b6000610e67612631565b610e6f6128da565b03905090565b600d5481565b60155490565b6000610e8b6118f5565b1515610ecf576040805160e560020a62461bcd0281526020600482018190526024820152600080516020614e8b833981519152604482015290519081900360640190fd5b610eda600383612e0b565b92915050565b6000610eed848484612ef8565b60408051606081018252602881527f45524332303a207472616e7366657220616d6f756e74206578636565647320616020808301919091527f6c6c6f77616e636500000000000000000000000000000000000000000000000082840152600160a060020a0387166000908152601482528381203380835292529290922054610f899287929091610f8491879063ffffffff61306816565b612c9e565b5060019392505050565b60196020526000908152604090205481565b601a6020526000908152604090205481565b6000610fc16118f5565b1515611005576040805160e560020a62461bcd0281526020600482018190526024820152600080516020614e8b833981519152604482015290519081900360640190fd5b5060005b6003548110156110475761103f60038281548110151561102557fe5b600091825260209091200154600160a060020a0316611c5b565b600101611009565b50565b601281565b600080600061105d85613105565b8054909250611072908563ffffffff61318416565b905061108b82600101548261322e90919063ffffffff16565b92505b505092915050565b60606001805480602002602001604051908101604052809291908181526020018280548015610e5257602002820191906000526020600020906000905b82829054906101000a900463ffffffff1663ffffffff16815260200190600401906020826003010492830192600103820291508084116110d35790505050505050905090565b336000818152601460209081526040808320600160a060020a03871684529091528120549091610df1918590610f84908663ffffffff61327716565b601e80548290811061116357fe5b600091825260209091200154905081565b600180548290811061118257fe5b9060005260206000209060089182820401919006600402915054906101000a900463ffffffff1681565b6000806000806000806000806111c1896132d4565b8054600182015460028301546003840154600490940154929d600160a060020a0383169d5060a060020a830460ff169c50750100000000000000000000000000000000000000000090920463ffffffff169a509850919650945092505050565b6112296118f5565b151561126d576040805160e560020a62461bcd0281526020600482018190526024820152600080516020614e8b833981519152604482015290519081900360640190fd5b6008805473ffffffffffffffffffffffffffffffffffffffff1916600160a060020a0392909216919091179055565b60046020526000908152604090205481565b6007602052816000526040600020818154811015156112c957fe5b90600052602060002001600091509150505481565b60175460185482565b60038054829081106112f557fe5b600091825260209091200154600160a060020a0316905081565b601f54600160a060020a031690565b60008060008061132d866132d4565b925061133883613364565b61134283866133bf565b6008546001840154604080517fda663257000000000000000000000000000000000000000000000000000000008152750100000000000000000000000000000000000000000090920463ffffffff16600483015251600160a060020a039092169163da663257916024808201926020929091908290030181600087803b1580156113cb57600080fd5b505af11580156113df573d6000803e3d6000fd5b505050506040513d60208110156113f557600080fd5b505160018401549092506000915060a060020a900460ff16151561142d5782600301548211156114285750600382015481035b611443565b8260030154821015611443578183600301540390505b8015156114535760009350611466565b611463818663ffffffff61318416565b93505b50505092915050565b600080600061147e858561341f565b9350600084116114d8576040805160e560020a62461bcd02815260206004820152601a60248201527f736574746c656d656e7420616d6f756e74206973207a65726f21000000000000604482015290519081900360640190fd5b600160a060020a038516600090815260196020526040902054611501908563ffffffff61327716565b600160a060020a038616600081815260196020908152604080832094909455338252601d8152838220928252919091522054611543908563ffffffff61327716565b336000908152601d60209081526040808320600160a060020a038a811680865291845282852095909555600854825160e060020a6341976e090281526004810192909252915191909416936341976e099360248083019493928390030190829087803b1580156115b257600080fd5b505af11580156115c6573d6000803e3d6000fd5b505050506040513d60208110156115dc57600080fd5b505192506115f0838563ffffffff61318416565b9150611607601b548361322e90919063ffffffff16565b336000908152601c602052604090205490915061162a908363ffffffff61327716565b336000818152601c60205260409020919091556116479082613552565b5050505050565b600160a060020a031660009081526013602052604090205490565b6116716118f5565b15156116b5576040805160e560020a62461bcd0281526020600482018190526024820152600080516020614e8b833981519152604482015290519081900360640190fd5b60008054604051600160a060020a03909116907f8be0079c531659141344cd1fd0a4f28419497f9722a3daafe3b4186f6b6457e0908390a36000805473ffffffffffffffffffffffffffffffffffffffff19169055565b611047601e82613617565b600080808311611771576040805160e560020a62461bcd02815260206004820152601860248201527f657865726369736520616d6f756e74206973207a65726f210000000000000000604482015290519081900360640190fd5b61177b848461131e565b91506002905081151561178d576117a1565b6117978484613677565b6117a18282613705565b50505050565b6117af6118f5565b15156117f3576040805160e560020a62461bcd0281526020600482018190526024820152600080516020614e8b833981519152604482015290519081900360640190fd5b611047601e82613724565b600e5481565b600061180e6118f5565b1515611852576040805160e560020a62461bcd0281526020600482018190526024820152600080516020614e8b833981519152604482015290519081900360640190fd5b610eda601e8361374c565b6000610eda6003836137e1565b600054600160a060020a031690565b600a80548290811061188757fe5b60009182526020909120600790910201805460018201546002830154600384015460048501546005860154600690960154949650600160a060020a0384169560a060020a850460ff1695750100000000000000000000000000000000000000000090950463ffffffff169489565b600054600160a060020a0316331490565b6060601e805480602002602001604051908101604052809291908181526020018280548015610e5257602002820191906000526020600020905b815481526020019060010190808311611940575050505050905090565b60008060008060008061196f8961170c565b6119788a6129fe565b15156119ce576040805160e560020a62461bcd02815260206004820152601f60248201527f756e6465726c79696e6720697320756e737570706f7274656420617373657400604482015290519081900360640190fd5b600854604080517fda66325700000000000000000000000000000000000000000000000000000000815263ffffffff8d1660048201529051600160a060020a039092169163da663257916024808201926020929091908290030181600087803b158015611a3a57600080fd5b505af1158015611a4e573d6000803e3d6000fd5b505050506040513d6020811015611a6457600080fd5b5051601f54604080517f2f581f4800000000000000000000000000000000000000000000000000000000815260048101849052602481018f9052604481018d905260ff8b1660648201529051929850611b2492600160a060020a0390921691632f581f48916084808201926020929091908290030181600087803b158015611aeb57600080fd5b505af1158015611aff573d6000803e3d6000fd5b505050506040513d6020811015611b1557600080fd5b5051899063ffffffff61318416565b9450611b318d8d87613834565b601f54604080517fa569a2d70000000000000000000000000000000000000000000000000000000081528151600160a060020a039093169263a569a2d7926004808401939192918290030181600087803b158015611b8e57600080fd5b505af1158015611ba2573d6000803e3d6000fd5b505050506040513d6040811015611bb857600080fd5b5080516020909101519094509250611bd7878b428c018e8c8989613a35565b9150611beb611be68388613bff565b613c61565b905080611bf6610e5d565b1015611c4c576040805160e560020a62461bcd02815260206004820152601b60248201527f636f6c6c61746572616c20697320696e73756666696369656e74210000000000604482015290519081900360640190fd5b50505050505050505050505050565b600080611c666118f5565b1515611caa576040805160e560020a62461bcd0281526020600482018190526024820152600080516020614e8b833981519152604482015290519081900360640190fd5b600160a060020a03831660009081526004602052604081205492508211611d1b576040805160e560020a62461bcd02815260206004820152601260248201527f4974277320656d7074792062616c616e63650000000000000000000000000000604482015290519081900360640190fd5b600160a060020a0383166000818152600460205260408120551515611d6d57604051339083156108fc029084906000818181858888f19350505050158015611d67573d6000803e3d6000fd5b50611e06565b50604080517fa9059cbb0000000000000000000000000000000000000000000000000000000081523360048201526024810183905290518391600160a060020a0383169163a9059cbb916044808201926020929091908290030181600087803b158015611dd957600080fd5b505af1158015611ded573d6000803e3d6000fd5b505050506040513d6020811015611e0357600080fd5b50505b604080518381529051600160a060020a0385169133917f747147be90b2a81a2e929994a92cd7bb71396bdbfd02f181867c81187d4f79449181900360200190a3505050565b6012805460408051602060026001851615610100026000190190941693909304601f81018490048402820184019092528181529291830182828015610ddc5780601f10610db157610100808354040283529160200191610ddc565b6000806000806060600080611eb96118f5565b1515611efd576040805160e560020a62461bcd0281526020600482018190526024820152600080516020614e8b833981519152604482015290519081900360640190fd5b600c54611f1590899063ffffffff9081169061318416565b600a549097509550858710611f295761215d565b600f54600189011115611f475760018801611f45600f82614de2565b505b600c54611f5f90889063ffffffff9081169061327716565b945085851115611f6d578594505b600154604080518281526020808402820101909152909450848015611f9c578160200160208202803883390190505b509250600091505b838210156120845760085460018054600160a060020a039092169163da663257919085908110611fd057fe5b90600052602060002090600891828204019190066004029054906101000a900463ffffffff166040518263ffffffff1660e060020a028152600401808263ffffffff168152602001915050602060405180830381600087803b15801561203557600080fd5b505af1158015612049573d6000803e3d6000fd5b505050506040513d602081101561205f57600080fd5b5051835184908490811061206f57fe5b60209081029091010152600190910190611fa4565b5060005b84871015612125576120c9600a888154811015156120a257fe5b906000526020600020906007020160010160159054906101000a900463ffffffff16613c90565b975061211861210b600a898154811015156120e057fe5b9060005260206000209060070201858b8151811015156120fc57fe5b90602001906020020151613bff565b829063ffffffff61327716565b6001909701969050612088565b80600f8981548110151561213557fe5b906000526020600020018190555060018503600d54101561215d576000198501600d5543600e555b5050505050505050565b6000610eda601e83613c9d565b61217c6118f5565b15156121c0576040805160e560020a62461bcd0281526020600482018190526024820152600080516020614e8b833981519152604482015290519081900360640190fd5b601f805473ffffffffffffffffffffffffffffffffffffffff1916600160a060020a0392909216919091179055565b6000806000806000806000806122048961185d565b151561225a576040805160e560020a62461bcd02815260206004820152601f60248201527f736574746c656d656e7420697320756e737570706f7274656420746f6b656e00604482015290519081900360640190fd5b336000908152601360205260409020548a11156122c1576040805160e560020a62461bcd02815260206004820152601e60248201527f53436f696e2062616c616e636520697320696e73756666696369656e74210000604482015290519081900360640190fd5b8915156122cd57612422565b6122d5613cdd565b97506122ee601b5460155461318490919063ffffffff16565b9650612305601b548b61318490919063ffffffff16565b955086612318898863ffffffff61327716565b116124225733600090815260136020908152604080832054601c9092529091205461235a919061234e908d63ffffffff61318416565b9063ffffffff61322e16565b336000908152601c602052604090205490955061237d908663ffffffff613f9516565b336000818152601c602052604090209190915561239a908b613fd7565b601b546123ae908b9063ffffffff61318416565b9350600492506123bf848a856140c2565b6003549094509150600090505b6000841180156123db57508181105b156124185761240e846003838154811015156123f357fe5b600091825260209091200154600160a060020a0316856140c2565b93506001016123cc565b61242284846142b8565b50505050505050505050565b60408051606081018252602581527f45524332303a2064656372656173656420616c6c6f77616e63652062656c6f776020808301919091527f207a65726f0000000000000000000000000000000000000000000000000000008284015233600081815260148352848120600160a060020a0388168252909252928120549092610df19290918691610f849190879063ffffffff61306816565b6000610df1338484612ef8565b6006602052826000526040600020828154811015156124ef57fe5b90600052602060002090600202018160028110151561250a57fe5b0154925083915050565b61251c6118f5565b1515612560576040805160e560020a62461bcd0281526020600482018190526024820152600080516020614e8b833981519152604482015290519081900360640190fd5b6110476001826142c4565b600854600160a060020a031690565b601d60209081526000928352604080842090915290825290205481565b60025460ff1681565b60006125aa6118f5565b15156125ee576040805160e560020a62461bcd0281526020600482018190526024820152600080516020614e8b833981519152604482015290519081900360640190fd5b6125f784613105565b9283555060019091015550565b601b5481565b600c5463ffffffff1681565b600160a060020a031660009081526004602052604090205490565b60008061263c613cdd565b905061264781613c61565b91505b5090565b600080808080808087116126ac576040805160e560020a62461bcd02815260206004820152601460248201527f73656c6c20616d6f756e74206973207a65726f21000000000000000000000000604482015290519081900360640190fd5b6126b68888613677565b6126bf886132d4565b60028101546008546001830154604080517fda663257000000000000000000000000000000000000000000000000000000008152750100000000000000000000000000000000000000000090920463ffffffff16600483015251939950429092039750600160a060020a03169163da663257916024808201926020929091908290030181600087803b15801561275457600080fd5b505af1158015612768573d6000803e3d6000fd5b505050506040513d602081101561277e57600080fd5b5051601f5460038801546001890154604080517f2f581f48000000000000000000000000000000000000000000000000000000008152600481018690526024810193909352604483018a905260a060020a90910460ff16606483015251929650600160a060020a0390911691632f581f48916084808201926020929091908290030181600087803b15801561281257600080fd5b505af1158015612826573d6000803e3d6000fd5b505050506040513d602081101561283c57600080fd5b5051925060019150612854838863ffffffff61318416565b905061215d8183613705565b600080600061286e84613105565b8054600190910154909590945092505050565b600061288b6118f5565b15156128cf576040805160e560020a62461bcd0281526020600482018190526024820152600080516020614e8b833981519152604482015290519081900360640190fd5b610eda600183614312565b60035460009081908180805b838310156129f45760038054849081106128fc57fe5b60009182526020808320909101546008546040805160e060020a6341976e09028152600160a060020a0393841660048201819052915191975091909216936341976e099360248084019491939192918390030190829087803b15801561296157600080fd5b505af1158015612975573d6000803e3d6000fd5b505050506040513d602081101561298b57600080fd5b5051600160a060020a0383166000908152601a60209081526040808320546019909252909120549192506129e7916129da916129cd919063ffffffff61327716565b839063ffffffff61318416565b869063ffffffff61327716565b94506001909201916128e6565b5092949350505050565b6000610eda600183614409565b600160a060020a03918216600090815260146020908152604080832093909416825291909152205490565b601c6020526000908152604090205481565b6005805482908110612a5657fe5b60009182526020909120600290910201805460019091015490915082565b612a7c6118f5565b1515612ac0576040805160e560020a62461bcd0281526020600482018190526024820152600080516020614e8b833981519152604482015290519081900360640190fd5b611047600382614468565b6110476001826144b6565b60608060606000600380549050604051908082528060200260200182016040528015612b0c578160200160208202803883390190505b509150600090505b600354811015612b765760046000600383815481101515612b3157fe5b6000918252602080832090910154600160a060020a031683528201929092526040019020548251839083908110612b6457fe5b60209081029091010152600101612b14565b60038281805480602002602001604051908101604052809291908181526020018280548015612bce57602002820191906000526020600020905b8154600160a060020a03168152600190910190602001808311612bb0575b505050505091509350935050509091565b612be76118f5565b1515612c2b576040805160e560020a62461bcd0281526020600482018190526024820152600080516020614e8b833981519152604482015290519081900360640190fd5b61104781614516565b612c3c6118f5565b1515612c80576040805160e560020a62461bcd0281526020600482018190526024820152600080516020614e8b833981519152604482015290519081900360640190fd5b6002805460ff1916911515919091179055565b611047600382614604565b600160a060020a0383161515612d23576040805160e560020a62461bcd028152602060048201526024808201527f45524332303a20617070726f76652066726f6d20746865207a65726f2061646460448201527f7265737300000000000000000000000000000000000000000000000000000000606482015290519081900360840190fd5b600160a060020a0382161515612da9576040805160e560020a62461bcd02815260206004820152602260248201527f45524332303a20617070726f766520746f20746865207a65726f20616464726560448201527f7373000000000000000000000000000000000000000000000000000000000000606482015290519081900360840190fd5b600160a060020a03808416600081815260146020908152604080832094871680845294825291829020859055815185815291517f8c5be1e5ebec7d5bd14f71427d1e84f3dd0314c0f7b2291e5b200ac8c7c3b9259281900390910190a3505050565b8154600090815b81811015612e5a5783600160a060020a03168582815481101515612e3257fe5b600091825260209091200154600160a060020a03161415612e5257612e5a565b600101612e12565b81811015612eed5760001982018114612ed3578460018303815481101515612e7e57fe5b6000918252602090912001548554600160a060020a0390911690869083908110612ea457fe5b9060005260206000200160006101000a815481600160a060020a030219169083600160a060020a031602179055505b8454612ee3866000198301614de2565b506001925061108e565b506000949350505050565b600160a060020a0383161515612f7e576040805160e560020a62461bcd02815260206004820152602560248201527f45524332303a207472616e736665722066726f6d20746865207a65726f20616460448201527f6472657373000000000000000000000000000000000000000000000000000000606482015290519081900360840190fd5b600160a060020a0382161515613004576040805160e560020a62461bcd02815260206004820152602360248201527f45524332303a207472616e7366657220746f20746865207a65726f206164647260448201527f6573730000000000000000000000000000000000000000000000000000000000606482015290519081900360840190fd5b61300e8382614664565b6130188282614733565b81600160a060020a031683600160a060020a03167fddf252ad1be2c89b69c2b068fc378daa952ba7f163c4a11628f55a4df523b3ef836040518082815260200191505060405180910390a3505050565b60008082858511156130fb5760405160e560020a62461bcd0281526004018080602001828103825283818151815260200191508051906020019080838360005b838110156130c05781810151838201526020016130a8565b50505050905090810190601f1680156130ed5780820380516001836020036101000a031916815260200191505b509250505060405180910390fd5b5050509103919050565b6005546000908210613161576040805160e560020a62461bcd02815260206004820152601260248201527f66656520747970652069732076616c6964210000000000000000000000000000604482015290519081900360640190fd5b600580548390811061316f57fe5b90600052602060002090600202019050919050565b6000808315156131975760009150613227565b508282028284828115156131a757fe5b0414613223576040805160e560020a62461bcd02815260206004820152602160248201527f536166654d6174683a206d756c7469706c69636174696f6e206f766572666c6f60448201527f7700000000000000000000000000000000000000000000000000000000000000606482015290519081900360840190fd5b8091505b5092915050565b600061327083836040805190810160405280601a81526020017f536166654d6174683a206469766973696f6e206279207a65726f0000000000008152506147e2565b9392505050565b600082820183811015613223576040805160e560020a62461bcd02815260206004820152601b60248201527f536166654d6174683a206164646974696f6e206f766572666c6f770000000000604482015290519081900360640190fd5b600080821180156132e75750600a548211155b151561333d576040805160e560020a62461bcd02815260206004820152601660248201527f6f7074696f6e206964206973206e6f7420657869737400000000000000000000604482015290519081900360640190fd5b600a8054600019840190811061334f57fe5b90600052602060002090600702019050919050565b60028101544210611047576040805160e560020a62461bcd02815260206004820152601160248201527f6f7074696f6e2069732065787069726564000000000000000000000000000000604482015290519081900360640190fd5b600482015481111561341b576040805160e560020a62461bcd02815260206004820152601d60248201527f6f7074696f6e20616d6f756e7420697320696e73756666696369656e74000000604482015290519081900360640190fd5b5050565b600080600061342d8561185d565b1515613483576040805160e560020a62461bcd02815260206004820152601f60248201527f736574746c656d656e7420697320756e737570706f7274656420746f6b656e00604482015290519081900360640190fd5b60009150600160a060020a038516151561349f5734915061354a565b600084111561354a5750604080517f23b872dd0000000000000000000000000000000000000000000000000000000081523360048201523060248201526044810185905290518591600160a060020a038316916323b872dd916064808201926020929091908290030181600087803b15801561351a57600080fd5b505af115801561352e573d6000803e3d6000fd5b505050506040513d602081101561354457600080fd5b50849250505b509392505050565b600160a060020a03821615156135b2576040805160e560020a62461bcd02815260206004820152601f60248201527f45524332303a206d696e7420746f20746865207a65726f206164647265737300604482015290519081900360640190fd5b6015546135c5908263ffffffff61327716565b6015556135d28282614733565b604080518281529051600160a060020a038416916000917fddf252ad1be2c89b69c2b068fc378daa952ba7f163c4a11628f55a4df523b3ef9181900360200190a35050565b6136218282613c9d565b151561341b576040805160e560020a62461bcd02815260206004820181905260248201527f77686974654c6973743a207573696e6720696e76616c69642075696e74323536604482015290519081900360640190fd5b6000613682836132d4565b905061368d81613364565b613697813361484e565b6136a181836133bf565b60048101546136b6908363ffffffff613f9516565b6004820155436000908152600660209081526040808320815180830190925260001987018252818301869052805460018101808355918552929093206116479260029081029091019190614e06565b613711600183836148b5565b915061371f600083836148b5565b505050565b61372e8282613c9d565b151561341b5781546001810183556000928352602090922090910155565b8154600090815b818110156137885783858281548110151561376a57fe5b9060005260206000200154141561378057613788565b600101613753565b81811015612eed5760001982018114612ed35784600183038154811015156137ac57fe5b906000526020600020015485828154811015156137c557fe5b6000918252602090912001558454612ee3866000198301614de2565b8154600090815b81811015612eed5783600160a060020a0316858281548110151561380857fe5b600091825260209091200154600160a060020a0316141561382c576001925061108e565b6001016137e8565b6000806000613843868661341f565b94506000851161389d576040805160e560020a62461bcd02815260206004820152601a60248201527f736574746c656d656e7420616d6f756e74206973207a65726f21000000000000604482015290519081900360640190fd5b600092506138ab838561104f565b6008546040805160e060020a6341976e09028152600160a060020a038a8116600483015291519395509116916341976e09916024808201926020929091908290030181600087803b1580156138ff57600080fd5b505af1158015613913573d6000803e3d6000fd5b505050506040513d602081101561392957600080fd5b5051905061393d848363ffffffff61327716565b61394d828763ffffffff61318416565b10156139c9576040805160e560020a62461bcd02815260206004820152602160248201527f736574746c656d656e7420617373657420697320696e73756666696369656e7460448201527f2100000000000000000000000000000000000000000000000000000000000000606482015290519081900360840190fd5b6139d9848263ffffffff61322e16565b93506139eb828263ffffffff61322e16565b91506139f78683614adc565b613a1782613a0b878763ffffffff613f9516565b9063ffffffff613f9516565b94506000851115613a2d57613a2d338787614b5b565b505050505050565b600080600a805490509050600a6101206040519081016040528083600101815260200133600160a060020a031681526020018b60ff1681526020018a63ffffffff16815260200189815260200188815260200187815260200186815260200185815250908060018154018082558091505090600182039060005260206000209060070201600090919290919091506000820151816000015560208201518160010160006101000a815481600160a060020a030219169083600160a060020a0316021790555060408201518160010160146101000a81548160ff021916908360ff16021790555060608201518160010160156101000a81548163ffffffff021916908363ffffffff1602179055506080820151816002015560a0820151816003015560c0820151816004015560e0820151816005015561010082015181600601555050506007600033600160a060020a0316600160a060020a031681526020019081526020016000208190806001815401808255809150509060018203906000526020600020016000909192909190915055508060001415613bd55743600e555b600a805482908110613be357fe5b9060005260206000209060070201915050979650505050505050565b60038201546001830154600091829160ff60a060020a90910416159084101415613c435760048401546003850154613c3c9163ffffffff61318416565b9050613223565b6004840154613c5990849063ffffffff61318416565b949350505050565b6017546000908190613c79908463ffffffff61318416565b60185490915061327090829063ffffffff61322e16565b6000610eda600183614ca0565b8154600090815b81811015612eed57838582815481101515613cbb57fe5b90600052602060002001541415613cd5576001925061108e565b600101613ca4565b60008060006060600080600080600080600080613cf8614cfb565b600154604080518281526020808402820101909152919c509a508a8015613d29578160200160208202803883390190505b509850600097505b89881015613e115760085460018054600160a060020a039092169163da66325791908b908110613d5d57fe5b90600052602060002090600891828204019190066004029054906101000a900463ffffffff166040518263ffffffff1660e060020a028152600401808263ffffffff168152602001915050602060405180830381600087803b158015613dc257600080fd5b505af1158015613dd6573d6000803e3d6000fd5b505050506040513d6020811015613dec57600080fd5b505189518a908a908110613dfc57fe5b60209081029091010152600190970196613d31565b600a54600d5490975060010195505b86861015613e8757613e3a600a878154811015156120a257fe5b9450613e7a613e6d600a88815481101515613e5157fe5b90600052602060002090600702018b888151811015156120fc57fe5b8c9063ffffffff61327716565b9a50600190950194613e20565b600e5460010193508360011415613ea0578a9b50613f87565b438411613f835760008481526006602052604081208054919950935091505b81881015613f78578288815481101515613ed557fe5b60009182526020822060029091020101549050613efa600a828154811015156120a257fe5b9450613f6b613f5e600a83815481101515613f1157fe5b9060005260206000209060070201858b815481101515613f2d57fe5b60009182526020909120600290910201600101548c89815181101515613f4f57fe5b90602001906020020151614d4b565b8c9063ffffffff613f9516565b9a50600190970196613ebf565b600190930192613ea0565b8a9b505b505050505050505050505090565b600061327083836040805190810160405280601e81526020017f536166654d6174683a207375627472616374696f6e206f766572666c6f770000815250613068565b600160a060020a038216151561405d576040805160e560020a62461bcd02815260206004820152602160248201527f45524332303a206275726e2066726f6d20746865207a65726f2061646472657360448201527f7300000000000000000000000000000000000000000000000000000000000000606482015290519081900360840190fd5b6140678282614664565b60155461407a908263ffffffff613f9516565b601555604080518281529051600091600160a060020a038516917fddf252ad1be2c89b69c2b068fc378daa952ba7f163c4a11628f55a4df523b3ef9181900360200190a35050565b60008060008060006140d38761185d565b1515614129576040805160e560020a62461bcd02815260206004820152601f60248201527f736574746c656d656e7420697320756e737570706f7274656420746f6b656e00604482015290519081900360640190fd5b336000908152601d60209081526040808320600160a060020a038b168452909152902054935083151561415e578794506142ad565b6008546040805160e060020a6341976e09028152600160a060020a038a81166004830152915191909216916341976e099160248083019260209291908290030181600087803b1580156141b057600080fd5b505af11580156141c4573d6000803e3d6000fd5b505050506040513d60208110156141da57600080fd5b505192506141ee888463ffffffff61322e16565b915081151561420057600094506142ad565b83821161420d578161420f565b835b336000908152601d60209081526040808320600160a060020a038c168452909152902054909150614246908263ffffffff613f9516565b336000818152601d60209081526040808320600160a060020a038d16845290915290209190915561427990888389614da4565b838211156142a8576142a1614294828563ffffffff61318416565b899063ffffffff613f9516565b94506142ad565b600094505b505050509392505050565b61371f600183836148b5565b6142ce8282614409565b151561341b578154600181018355600092835260209092206008830401805460079093166004026101000a63ffffffff818102199094169290931692909202179055565b8154600090815b8181101561436d578363ffffffff16858281548110151561433657fe5b6000918252602090912060088204015460079091166004026101000a900463ffffffff1614156143655761436d565b600101614319565b81811015612eed57600019820181146143f957846001830381548110151561439157fe5b90600052602060002090600891828204019190066004029054906101000a900463ffffffff1685828154811015156143c557fe5b90600052602060002090600891828204019190066004026101000a81548163ffffffff021916908363ffffffff1602179055505b8454612ee3866000198301614e40565b8154600090815b81811015612eed578363ffffffff16858281548110151561442d57fe5b6000918252602090912060088204015460079091166004026101000a900463ffffffff161415614460576001925061108e565b600101614410565b61447282826137e1565b151561341b578154600181018355600083815260209020018054600160a060020a03831673ffffffffffffffffffffffffffffffffffffffff199091161790555050565b6144c08282614409565b151561341b576040805160e560020a62461bcd02815260206004820152601f60248201527f77686974654c6973743a207573696e6720696e76616c69642075696e74333200604482015290519081900360640190fd5b600160a060020a038116151561459c576040805160e560020a62461bcd02815260206004820152602660248201527f4f776e61626c653a206e6577206f776e657220697320746865207a65726f206160448201527f6464726573730000000000000000000000000000000000000000000000000000606482015290519081900360840190fd5b60008054604051600160a060020a03808516939216917f8be0079c531659141344cd1fd0a4f28419497f9722a3daafe3b4186f6b6457e091a36000805473ffffffffffffffffffffffffffffffffffffffff1916600160a060020a0392909216919091179055565b61460e82826137e1565b151561341b576040805160e560020a62461bcd02815260206004820181905260248201527f77686974654c6973743a207573696e6720696e76616c69642061646472657373604482015290519081900360640190fd5b600160a060020a03821615156146ea576040805160e560020a62461bcd02815260206004820152602360248201527f45524332303a207472616e7366657220746f20746865207a65726f206164647260448201527f6573730000000000000000000000000000000000000000000000000000000000606482015290519081900360840190fd5b600160a060020a038216600090815260136020526040902054614713908263ffffffff613f9516565b600160a060020a0390921660009081526013602052604090209190915550565b600160a060020a03821615156147b9576040805160e560020a62461bcd02815260206004820152602360248201527f45524332303a207472616e7366657220746f20746865207a65726f206164647260448201527f6573730000000000000000000000000000000000000000000000000000000000606482015290519081900360840190fd5b600160a060020a038216600090815260136020526040902054614713908263ffffffff61327716565b600080828185116148385760405160e560020a62461bcd028152600401808060200182810382528381815181526020019150805190602001908083836000838110156130c05781810151838201526020016130a8565b50838581151561484457fe5b0495945050505050565b6001820154600160a060020a0382811691161461341b576040805160e560020a62461bcd02815260206004820152601f60248201527f63616c6c6572206973206e6f7420746865206f7074696f6e73206f776e657200604482015290519081900360640190fd5b600080808080808080808a15156148cb57614acd565b60008c60018111156148d957fe5b146148e557601a6148e8565b60195b6003549098506000975095508694505b858510156149e957600380548690811061490e57fe5b60009182526020808320909101546008546040805160e060020a6341976e09028152600160a060020a0393841660048201819052915191995091909216936341976e099360248084019491939192918390030190829087803b15801561497357600080fd5b505af1158015614987573d6000803e3d6000fd5b505050506040513d602081101561499d57600080fd5b5051600160a060020a038516600090815260208a905260409020549093506149dd906149d090859063ffffffff61318416565b889063ffffffff61327716565b506001909401936148f8565b8615156149f8578a9850614acd565b8a9150868b1115614a1057868b039a50869150614a15565b60009a505b600094505b85851015614ac9576003805486908110614a3057fe5b6000918252602080832090910154600160a060020a0316808352908a9052604090912054909450614a6d90889061234e908563ffffffff61318416565b600160a060020a038516600090815260208a90526040902054909150614a99908263ffffffff613f9516565b600160a060020a038516600090815260208a90526040902055614abe3385838d614da4565b600190940193614a1a565b8a98505b50505050505050509392505050565b600160a060020a038216600090815260046020526040902054614b05908263ffffffff61327716565b600160a060020a038316600081815260046020908152604091829020939093558051848152905191927f1104eee7f034069140a0655d153038cedf9e65e5724018c555a8d56cfb6bee7792918290030190a25050565b6000811515614b69576117a1565b600160a060020a0383161515614bb557604051600160a060020a0385169083156108fc029084906000818181858888f19350505050158015614baf573d6000803e3d6000fd5b50614c4f565b50604080517fa9059cbb000000000000000000000000000000000000000000000000000000008152600160a060020a038581166004830152602482018490529151849283169163a9059cbb9160448083019260209291908290030181600087803b158015614c2257600080fd5b505af1158015614c36573d6000803e3d6000fd5b505050506040513d6020811015614c4c57600080fd5b50505b82600160a060020a031684600160a060020a03167f8aaaec2388cc390cde69685f78340e15f36d424b6b6b595f549dd883931f9c9b846040518082815260200191505060405180910390a350505050565b8154600090815b81811015613c59578363ffffffff168582815481101515614cc457fe5b6000918252602090912060088204015460079091166004026101000a900463ffffffff161415614cf357613c59565b600101614ca7565b600f546000908190815b81811015614d4357614d39600f82815481101515614d1f57fe5b90600052602060002001548461327790919063ffffffff16565b9250600101614d05565b509092915050565b60038301546001840154600091829160ff60a060020a90910416159084101415614d8b576003850154614d84908563ffffffff61318416565b9050613c59565b614d9b838563ffffffff61318416565b95945050505050565b6000821515614db257611647565b614dbc828461104f565b9050614dd88585614dd3868563ffffffff613f9516565b614b5b565b6116478482614adc565b81548183558181111561371f5760008381526020902061371f918101908301614e70565b8260028101928215614e34579160200282015b82811115614e34578251825591602001919060010190614e19565b5061264a929150614e70565b81548183558181111561371f57600701600890048160070160089004836000526020600020918201910161371f91905b610e5a91905b8082111561264a5760008155600101614e7656004f776e61626c653a2063616c6c6572206973206e6f7420746865206f776e6572a165627a7a723058208ce0fb7507fd090b42cea258be113caff5a4e240c63649adf014e726287c07f50029",
  "source": "pragma solidity ^0.4.26;\r\nimport \"./SafeMath.sol\";\r\nimport \"./CollateralPool.sol\";\r\nimport \"./IOptionsPrice.sol\";\r\nimport \"./whiteList.sol\";\r\ncontract OptionsMangerV2 is CollateralPool {\r\n    using SafeMath for uint256;\r\n    uint256[] public expirationList;\r\n    IOptionsPrice internal optionsPrice;\r\n    function getOptionsPriceAddress() public view returns(address){\r\n        return address(optionsPrice);\r\n    }\r\n    function setOptionsPriceAddress(address options)public onlyOwner{\r\n        optionsPrice = IOptionsPrice(options);\r\n    }\r\n\r\n    function buyOption(address settlement,uint256 settlementAmount, uint256 strikePrice,uint32 underlying,\r\n        uint256 expiration,uint256 amount,uint8 optType)public payable{\r\n        checkExpiration(expiration);\r\n        require(isEligibleUnderlyingAsset(underlying) , \"underlying is unsupported asset\");\r\n        uint256 underlyingPrice =  _oracle.getUnderlyingPrice(underlying);\r\n        uint256 allPay = amount.mul(optionsPrice.getOptionsPrice(underlyingPrice,strikePrice,expiration,optType));\r\n        buyOption_sub(settlement,settlementAmount,allPay);\r\n        (int256 ivNumerator,int256 ivDenominator) = optionsPrice.getIV();\r\n        OptionsInfo storage info = _createOptions(optType,underlying,now+expiration,strikePrice,\r\n                    amount,ivNumerator,ivDenominator);\r\n        uint256 collateralNeed = calculateCollateral(calOptionsCollateral(info,underlyingPrice));\r\n        require(getLeftCollateral()>=collateralNeed,\"collateral is insufficient!\");\r\n    }\r\n    function buyOption_sub(address settlement,uint256 settlementAmount,uint256 allPay)internal{\r\n        settlementAmount = getPayableAmount(settlement,settlementAmount);\r\n        require(settlementAmount>0 , \"settlement amount is zero!\");\r\n        uint256 buyFee = 0;\r\n        uint256 fee = calculateFee(buyFee,allPay);\r\n        uint256 settlePrice = _oracle.getPrice(settlement);\r\n        require(settlePrice.mul(settlementAmount)>=allPay.add(fee),\"settlement asset is insufficient!\");\r\n        allPay = allPay.div(settlePrice);\r\n        fee = fee.div(settlePrice);\r\n        _addTransactionFee(settlement,fee);\r\n        settlementAmount = settlementAmount.sub(allPay).sub(fee);\r\n        if (settlementAmount > 0){\r\n            _transferPayback(msg.sender,settlement,settlementAmount);\r\n        }  \r\n    }\r\n    function sellOption(uint256 optionsId,uint256 amount)public{\r\n        require(amount>0 , \"sell amount is zero!\");\r\n        burnOptions(optionsId,amount);\r\n        OptionsInfo storage info = _getOptionsById(optionsId);\r\n        uint256 expiration = info.expiration-now;\r\n        uint256 currentPrice = _oracle.getUnderlyingPrice(info.underlying);\r\n        uint256 optPrice = optionsPrice.getOptionsPrice(currentPrice,info.strikePrice,expiration,info.optType);\r\n        uint256 sellFee = 1;\r\n        uint256 allPay = optPrice.mul(amount);\r\n        paybackSeller(allPay,sellFee);\r\n    }\r\n    function exerciseOption(uint256 optionsId,uint256 amount)public{\r\n        require(amount>0 , \"exercise amount is zero!\");\r\n        uint256 allPay = getExerciseWorth(optionsId,amount);\r\n        uint256 exerciseFee = 2;\r\n        if (allPay == 0) {\r\n            return;\r\n        }\r\n        burnOptions(optionsId,amount);\r\n        paybackSeller(allPay,exerciseFee);\r\n    }\r\n    function paybackSeller(uint256 worth,uint256 feeType) internal{\r\n        worth = _paybackWorth_sub(eBalance.premium,worth,feeType);\r\n        _paybackWorth_sub(eBalance.collateral,worth,feeType);\r\n    }\r\n    /**\r\n     * @dev Implementation of add an eligible expiration into the expirationList.\r\n     * @param expiration new eligible expiration.\r\n     */\r\n    function addExpiration(uint256 expiration)public onlyOwner{\r\n        whiteListUint256.addWhiteListUint256(expirationList,expiration);\r\n    }\r\n    /**\r\n     * @dev Implementation of revoke an invalid expiration from the expirationList.\r\n     * @param removeExpiration revoked expiration.\r\n     */\r\n    function removeExpirationList(uint256 removeExpiration)public onlyOwner returns(bool) {\r\n        return whiteListUint256.removeWhiteListUint256(expirationList,removeExpiration);\r\n    }\r\n    /**\r\n     * @dev Implementation of getting the eligible expirationList.\r\n     */\r\n    function getExpirationList()public view returns (uint256[]){\r\n        return expirationList;\r\n    }\r\n    /**\r\n     * @dev Implementation of testing whether the input expiration is eligible.\r\n     * @param expiration input expiration for testing.\r\n     */    \r\n    function isEligibleExpiration(uint256 expiration) public view returns (bool){\r\n        return whiteListUint256.isEligibleUint256(expirationList,expiration);\r\n    }\r\n    function checkExpiration(uint256 expiration) public view{\r\n        return whiteListUint256.checkEligibleUint256(expirationList,expiration);\r\n    }\r\n    function _getEligibleExpirationIndex(uint256 expiration) internal view returns (uint256){\r\n        return whiteListUint256._getEligibleIndexUint256(expirationList,expiration);\r\n    }\r\n}",
  "sourcePath": "C:\\work\\solidity\\FinnexusOptions_V2\\contracts\\OptionsMangerV2.sol",
  "compiler": {
    "name": "solc",
    "version": "0.4.26+commit.4563c3fc.Emscripten.clang"
  },
  "schemaVersion": "3.1.0",
  "updatedAt": "2020-07-18T02:20:00.247Z",
  "networkType": "ethereum",
  "devdoc": {
    "methods": {
      "addExpiration(uint256)": {
        "details": "Implementation of add an eligible expiration into the expirationList.\r",
        "params": {
          "expiration": "new eligible expiration.\r"
        }
      },
      "addUnderlyingAsset(uint32)": {
        "details": "Implementation of add an eligible underlying into the underlyingAssets.\r",
        "params": {
          "underlying": "new eligible underlying.\r"
        }
      },
      "addWhiteList(address)": {
        "details": "Implementation of add an eligible address into the whitelist.\r",
        "params": {
          "addAddress": "new eligible address.\r"
        }
      },
      "allowance(address,address)": {
        "details": "See {IERC20-allowance}.\r"
      },
      "approve(address,uint256)": {
        "details": "See {IERC20-approve}.\r      * Requirements:\r      * - `spender` cannot be the zero address.\r"
      },
      "balanceOf(address)": {
        "details": "See {IERC20-balanceOf}.\r"
      },
      "decreaseAllowance(address,uint256)": {
        "details": "Atomically decreases the allowance granted to `spender` by the caller.\r      * This is an alternative to {approve} that can be used as a mitigation for\r problems described in {IERC20-approve}.\r      * Emits an {Approval} event indicating the updated allowance.\r      * Requirements:\r      * - `spender` cannot be the zero address.\r - `spender` must have allowance for the caller of at least\r `subtractedValue`.\r"
      },
      "getExpirationList()": {
        "details": "Implementation of getting the eligible expirationList.\r"
      },
      "getUnderlyingAssets()": {
        "details": "Implementation of getting the eligible underlyingAssets.\r"
      },
      "getWhiteList()": {
        "details": "Implementation of getting the eligible whitelist.\r"
      },
      "increaseAllowance(address,uint256)": {
        "details": "Atomically increases the allowance granted to `spender` by the caller.\r      * This is an alternative to {approve} that can be used as a mitigation for\r problems described in {IERC20-approve}.\r      * Emits an {Approval} event indicating the updated allowance.\r      * Requirements:\r      * - `spender` cannot be the zero address.\r"
      },
      "isEligibleAddress(address)": {
        "details": "Implementation of testing whether the input address is eligible.\r",
        "params": {
          "tmpAddress": "input address for testing.\r"
        }
      },
      "isEligibleExpiration(uint256)": {
        "details": "Implementation of testing whether the input expiration is eligible.\r",
        "params": {
          "expiration": "input expiration for testing.\r"
        }
      },
      "isEligibleUnderlyingAsset(uint32)": {
        "details": "Implementation of testing whether the input underlying is eligible.\r",
        "params": {
          "underlying": "input underlying for testing.\r"
        }
      },
      "isOwner()": {
        "details": "Returns true if the caller is the current owner."
      },
      "owner()": {
        "details": "Returns the address of the current owner."
      },
      "removeExpirationList(uint256)": {
        "details": "Implementation of revoke an invalid expiration from the expirationList.\r",
        "params": {
          "removeExpiration": "revoked expiration.\r"
        }
      },
      "removeUnderlyingAssets(uint32)": {
        "details": "Implementation of revoke an invalid underlying from the underlyingAssets.\r",
        "params": {
          "removeUnderlying": "revoked underlying.\r"
        }
      },
      "removeWhiteList(address)": {
        "details": "Implementation of revoke an invalid address from the whitelist.\r",
        "params": {
          "removeAddress": "revoked address.\r"
        }
      },
      "renounceOwnership()": {
        "details": "Leaves the contract without owner. It will not be possible to call `onlyOwner` functions anymore. Can only be called by the current owner.     * NOTE: Renouncing ownership will leave the contract without an owner, thereby removing any functionality that is only available to the owner."
      },
      "setTransactionFee(uint256,uint256,uint256)": {
        "details": "set the rate of trasaction fee.\r",
        "params": {
          "denominator": "thedenominator of transaction fee.\r transaction fee = numerator/denominator;\r",
          "feeType": "the transaction fee type\r",
          "numerator": "the numerator of transaction fee .\r"
        }
      },
      "totalSupply()": {
        "details": "See {IERC20-totalSupply}.\r"
      },
      "transfer(address,uint256)": {
        "details": "See {IERC20-transfer}.\r      * Requirements:\r      * - `recipient` cannot be the zero address.\r - the caller must have a balance of at least `amount`.\r"
      },
      "transferFrom(address,address,uint256)": {
        "details": "See {IERC20-transferFrom}.\r      * Emits an {Approval} event indicating the updated allowance. This is not\r required by the EIP. See the note at the beginning of {ERC20};\r      * Requirements:\r - `sender` and `recipient` cannot be the zero address.\r - `sender` must have a balance of at least `amount`.\r - the caller must have allowance for `sender`'s tokens of at least\r `amount`.\r"
      },
      "transferOwnership(address)": {
        "details": "Transfers ownership of the contract to a new account (`newOwner`). Can only be called by the current owner."
      }
    }
  },
  "userdoc": {
    "methods": {
      "setHalt(bool)": {
        "notice": "function Emergency situation that requires contribution period to stop or not."
      }
    }
  }
}