{
  "contractName": "OptionsPool",
  "abi": [
    {
      "constant": true,
      "inputs": [
        {
          "name": "from",
          "type": "uint256"
        },
        {
          "name": "size",
          "type": "uint256"
        }
      ],
      "name": "getOptionInfoList",
      "outputs": [
        {
          "name": "",
          "type": "address[]"
        },
        {
          "name": "",
          "type": "uint256[]"
        },
        {
          "name": "",
          "type": "uint256[]"
        },
        {
          "name": "",
          "type": "uint256[]"
        },
        {
          "name": "",
          "type": "uint256[]"
        }
      ],
      "payable": false,
      "stateMutability": "view",
      "type": "function"
    },
    {
      "constant": true,
      "inputs": [],
      "name": "sharedPhase",
      "outputs": [
        {
          "name": "",
          "type": "uint32"
        }
      ],
      "payable": false,
      "stateMutability": "view",
      "type": "function"
    },
    {
      "constant": false,
      "inputs": [
        {
          "name": "volatility",
          "type": "address"
        }
      ],
      "name": "setVolatilityAddress",
      "outputs": [],
      "payable": false,
      "stateMutability": "nonpayable",
      "type": "function"
    },
    {
      "constant": true,
      "inputs": [
        {
          "name": "ids",
          "type": "uint256[]"
        }
      ],
      "name": "getOptionInfoListFromID",
      "outputs": [
        {
          "name": "",
          "type": "address[]"
        },
        {
          "name": "",
          "type": "uint256[]"
        },
        {
          "name": "",
          "type": "uint256[]"
        },
        {
          "name": "",
          "type": "uint256[]"
        },
        {
          "name": "",
          "type": "uint256[]"
        }
      ],
      "payable": false,
      "stateMutability": "view",
      "type": "function"
    },
    {
      "constant": true,
      "inputs": [],
      "name": "getUnderlyingAssets",
      "outputs": [
        {
          "name": "",
          "type": "uint32[]"
        }
      ],
      "payable": false,
      "stateMutability": "view",
      "type": "function"
    },
    {
      "constant": true,
      "inputs": [
        {
          "name": "expiration",
          "type": "uint256"
        },
        {
          "name": "underlying",
          "type": "uint32"
        }
      ],
      "name": "buyOptionCheck",
      "outputs": [],
      "payable": false,
      "stateMutability": "view",
      "type": "function"
    },
    {
      "constant": true,
      "inputs": [
        {
          "name": "",
          "type": "uint256"
        }
      ],
      "name": "expirationList",
      "outputs": [
        {
          "name": "",
          "type": "uint256"
        }
      ],
      "payable": false,
      "stateMutability": "view",
      "type": "function"
    },
    {
      "constant": true,
      "inputs": [
        {
          "name": "",
          "type": "uint256"
        }
      ],
      "name": "underlyingAssets",
      "outputs": [
        {
          "name": "",
          "type": "uint32"
        }
      ],
      "payable": false,
      "stateMutability": "view",
      "type": "function"
    },
    {
      "constant": true,
      "inputs": [],
      "name": "getVolatilityAddress",
      "outputs": [
        {
          "name": "",
          "type": "address"
        }
      ],
      "payable": false,
      "stateMutability": "view",
      "type": "function"
    },
    {
      "constant": true,
      "inputs": [],
      "name": "getLatestOption",
      "outputs": [
        {
          "name": "",
          "type": "uint256"
        },
        {
          "name": "",
          "type": "address"
        },
        {
          "name": "",
          "type": "uint8"
        },
        {
          "name": "",
          "type": "uint32"
        },
        {
          "name": "",
          "type": "uint256"
        },
        {
          "name": "",
          "type": "uint256"
        },
        {
          "name": "",
          "type": "uint256"
        }
      ],
      "payable": false,
      "stateMutability": "view",
      "type": "function"
    },
    {
      "constant": true,
      "inputs": [
        {
          "name": "optionsId",
          "type": "uint256"
        }
      ],
      "name": "getOptionsById",
      "outputs": [
        {
          "name": "",
          "type": "uint256"
        },
        {
          "name": "",
          "type": "address"
        },
        {
          "name": "",
          "type": "uint8"
        },
        {
          "name": "",
          "type": "uint32"
        },
        {
          "name": "",
          "type": "uint256"
        },
        {
          "name": "",
          "type": "uint256"
        },
        {
          "name": "",
          "type": "uint256"
        }
      ],
      "payable": false,
      "stateMutability": "view",
      "type": "function"
    },
    {
      "constant": false,
      "inputs": [
        {
          "name": "oracle",
          "type": "address"
        }
      ],
      "name": "setOracleAddress",
      "outputs": [],
      "payable": false,
      "stateMutability": "nonpayable",
      "type": "function"
    },
    {
      "constant": true,
      "inputs": [
        {
          "name": "",
          "type": "address"
        },
        {
          "name": "",
          "type": "uint256"
        }
      ],
      "name": "optionsBalances",
      "outputs": [
        {
          "name": "",
          "type": "uint256"
        }
      ],
      "payable": false,
      "stateMutability": "view",
      "type": "function"
    },
    {
      "constant": true,
      "inputs": [],
      "name": "getOptionsPriceAddress",
      "outputs": [
        {
          "name": "",
          "type": "address"
        }
      ],
      "payable": false,
      "stateMutability": "view",
      "type": "function"
    },
    {
      "constant": true,
      "inputs": [],
      "name": "getBurnTimeLimit",
      "outputs": [
        {
          "name": "",
          "type": "uint256"
        }
      ],
      "payable": false,
      "stateMutability": "view",
      "type": "function"
    },
    {
      "constant": true,
      "inputs": [
        {
          "name": "optionsId",
          "type": "uint256"
        },
        {
          "name": "amount",
          "type": "uint256"
        }
      ],
      "name": "getExerciseWorth",
      "outputs": [
        {
          "name": "",
          "type": "uint256"
        }
      ],
      "payable": false,
      "stateMutability": "view",
      "type": "function"
    },
    {
      "constant": true,
      "inputs": [
        {
          "name": "optionsId",
          "type": "uint256"
        }
      ],
      "name": "getOptionsLimitTimeById",
      "outputs": [
        {
          "name": "",
          "type": "uint256"
        }
      ],
      "payable": false,
      "stateMutability": "view",
      "type": "function"
    },
    {
      "constant": false,
      "inputs": [],
      "name": "renounceOwnership",
      "outputs": [],
      "payable": false,
      "stateMutability": "nonpayable",
      "type": "function"
    },
    {
      "constant": true,
      "inputs": [
        {
          "name": "expiration",
          "type": "uint256"
        }
      ],
      "name": "checkExpiration",
      "outputs": [],
      "payable": false,
      "stateMutability": "view",
      "type": "function"
    },
    {
      "constant": true,
      "inputs": [],
      "name": "burnTimeLimit",
      "outputs": [
        {
          "name": "",
          "type": "uint256"
        }
      ],
      "payable": false,
      "stateMutability": "view",
      "type": "function"
    },
    {
      "constant": false,
      "inputs": [
        {
          "name": "expiration",
          "type": "uint256"
        }
      ],
      "name": "addExpiration",
      "outputs": [],
      "payable": false,
      "stateMutability": "nonpayable",
      "type": "function"
    },
    {
      "constant": false,
      "inputs": [
        {
          "name": "removeExpiration",
          "type": "uint256"
        }
      ],
      "name": "removeExpirationList",
      "outputs": [
        {
          "name": "",
          "type": "bool"
        }
      ],
      "payable": false,
      "stateMutability": "nonpayable",
      "type": "function"
    },
    {
      "constant": true,
      "inputs": [],
      "name": "owner",
      "outputs": [
        {
          "name": "",
          "type": "address"
        }
      ],
      "payable": false,
      "stateMutability": "view",
      "type": "function"
    },
    {
      "constant": true,
      "inputs": [
        {
          "name": "",
          "type": "uint256"
        }
      ],
      "name": "allOptions",
      "outputs": [
        {
          "name": "optionID",
          "type": "uint64"
        },
        {
          "name": "owner",
          "type": "address"
        },
        {
          "name": "optType",
          "type": "uint8"
        },
        {
          "name": "underlying",
          "type": "uint32"
        },
        {
          "name": "expiration",
          "type": "uint256"
        },
        {
          "name": "strikePrice",
          "type": "uint256"
        },
        {
          "name": "amount",
          "type": "uint256"
        }
      ],
      "payable": false,
      "stateMutability": "view",
      "type": "function"
    },
    {
      "constant": true,
      "inputs": [],
      "name": "isOwner",
      "outputs": [
        {
          "name": "",
          "type": "bool"
        }
      ],
      "payable": false,
      "stateMutability": "view",
      "type": "function"
    },
    {
      "constant": true,
      "inputs": [],
      "name": "getExpirationList",
      "outputs": [
        {
          "name": "",
          "type": "uint256[]"
        }
      ],
      "payable": false,
      "stateMutability": "view",
      "type": "function"
    },
    {
      "constant": false,
      "inputs": [
        {
          "name": "from",
          "type": "address"
        },
        {
          "name": "settlement",
          "type": "address"
        },
        {
          "name": "type_ly_exp",
          "type": "uint256"
        },
        {
          "name": "strikePrice",
          "type": "uint256"
        },
        {
          "name": "optionPrice",
          "type": "uint256"
        },
        {
          "name": "amount",
          "type": "uint256"
        }
      ],
      "name": "createOptions",
      "outputs": [],
      "payable": false,
      "stateMutability": "nonpayable",
      "type": "function"
    },
    {
      "constant": false,
      "inputs": [
        {
          "name": "addAddress",
          "type": "address"
        }
      ],
      "name": "addOperator",
      "outputs": [],
      "payable": false,
      "stateMutability": "nonpayable",
      "type": "function"
    },
    {
      "constant": true,
      "inputs": [
        {
          "name": "",
          "type": "uint256"
        }
      ],
      "name": "_operatorList",
      "outputs": [
        {
          "name": "",
          "type": "address"
        }
      ],
      "payable": false,
      "stateMutability": "view",
      "type": "function"
    },
    {
      "constant": true,
      "inputs": [
        {
          "name": "expiration",
          "type": "uint256"
        }
      ],
      "name": "isEligibleExpiration",
      "outputs": [
        {
          "name": "",
          "type": "bool"
        }
      ],
      "payable": false,
      "stateMutability": "view",
      "type": "function"
    },
    {
      "constant": false,
      "inputs": [
        {
          "name": "optionsPrice",
          "type": "address"
        }
      ],
      "name": "setOptionsPriceAddress",
      "outputs": [],
      "payable": false,
      "stateMutability": "nonpayable",
      "type": "function"
    },
    {
      "constant": false,
      "inputs": [
        {
          "name": "removeAddress",
          "type": "address"
        }
      ],
      "name": "removeOperator",
      "outputs": [
        {
          "name": "",
          "type": "bool"
        }
      ],
      "payable": false,
      "stateMutability": "nonpayable",
      "type": "function"
    },
    {
      "constant": false,
      "inputs": [
        {
          "name": "underlying",
          "type": "uint32"
        }
      ],
      "name": "addUnderlyingAsset",
      "outputs": [],
      "payable": false,
      "stateMutability": "nonpayable",
      "type": "function"
    },
    {
      "constant": true,
      "inputs": [],
      "name": "getOracleAddress",
      "outputs": [
        {
          "name": "",
          "type": "address"
        }
      ],
      "payable": false,
      "stateMutability": "view",
      "type": "function"
    },
    {
      "constant": true,
      "inputs": [],
      "name": "getOptionInfoLength",
      "outputs": [
        {
          "name": "",
          "type": "uint256"
        }
      ],
      "payable": false,
      "stateMutability": "view",
      "type": "function"
    },
    {
      "constant": true,
      "inputs": [],
      "name": "optionPhase",
      "outputs": [
        {
          "name": "",
          "type": "uint32"
        }
      ],
      "payable": false,
      "stateMutability": "view",
      "type": "function"
    },
    {
      "constant": false,
      "inputs": [
        {
          "name": "timeLimit",
          "type": "uint256"
        }
      ],
      "name": "setBurnTimeLimit",
      "outputs": [],
      "payable": false,
      "stateMutability": "nonpayable",
      "type": "function"
    },
    {
      "constant": false,
      "inputs": [
        {
          "name": "managerAddress",
          "type": "address"
        }
      ],
      "name": "setManager",
      "outputs": [],
      "payable": false,
      "stateMutability": "nonpayable",
      "type": "function"
    },
    {
      "constant": true,
      "inputs": [],
      "name": "getManager",
      "outputs": [
        {
          "name": "",
          "type": "address"
        }
      ],
      "payable": false,
      "stateMutability": "view",
      "type": "function"
    },
    {
      "constant": false,
      "inputs": [
        {
          "name": "removeUnderlying",
          "type": "uint32"
        }
      ],
      "name": "removeUnderlyingAssets",
      "outputs": [
        {
          "name": "",
          "type": "bool"
        }
      ],
      "payable": false,
      "stateMutability": "nonpayable",
      "type": "function"
    },
    {
      "constant": true,
      "inputs": [
        {
          "name": "underlying",
          "type": "uint32"
        }
      ],
      "name": "isEligibleUnderlyingAsset",
      "outputs": [
        {
          "name": "",
          "type": "bool"
        }
      ],
      "payable": false,
      "stateMutability": "view",
      "type": "function"
    },
    {
      "constant": false,
      "inputs": [
        {
          "name": "index",
          "type": "uint256"
        },
        {
          "name": "addAddress",
          "type": "address"
        }
      ],
      "name": "setOperator",
      "outputs": [],
      "payable": false,
      "stateMutability": "nonpayable",
      "type": "function"
    },
    {
      "constant": true,
      "inputs": [
        {
          "name": "user",
          "type": "address"
        }
      ],
      "name": "getUserOptionsID",
      "outputs": [
        {
          "name": "",
          "type": "uint256[]"
        }
      ],
      "payable": false,
      "stateMutability": "view",
      "type": "function"
    },
    {
      "constant": true,
      "inputs": [],
      "name": "getOperator",
      "outputs": [
        {
          "name": "",
          "type": "address[]"
        }
      ],
      "payable": false,
      "stateMutability": "view",
      "type": "function"
    },
    {
      "constant": true,
      "inputs": [
        {
          "name": "underlying",
          "type": "uint32"
        }
      ],
      "name": "checkUnderlyingAsset",
      "outputs": [],
      "payable": false,
      "stateMutability": "view",
      "type": "function"
    },
    {
      "constant": false,
      "inputs": [
        {
          "name": "newOwner",
          "type": "address"
        }
      ],
      "name": "transferOwnership",
      "outputs": [],
      "payable": false,
      "stateMutability": "nonpayable",
      "type": "function"
    },
    {
      "inputs": [
        {
          "name": "oracleAddr",
          "type": "address"
        },
        {
          "name": "optionsPriceAddr",
          "type": "address"
        },
        {
          "name": "ivAddress",
          "type": "address"
        }
      ],
      "payable": false,
      "stateMutability": "nonpayable",
      "type": "constructor"
    },
    {
      "anonymous": false,
      "inputs": [
        {
          "indexed": true,
          "name": "owner",
          "type": "address"
        },
        {
          "indexed": true,
          "name": "optionID",
          "type": "uint256"
        },
        {
          "indexed": false,
          "name": "optType",
          "type": "uint8"
        },
        {
          "indexed": false,
          "name": "underlying",
          "type": "uint32"
        },
        {
          "indexed": false,
          "name": "expiration",
          "type": "uint256"
        },
        {
          "indexed": false,
          "name": "strikePrice",
          "type": "uint256"
        },
        {
          "indexed": false,
          "name": "amount",
          "type": "uint256"
        }
      ],
      "name": "CreateOption",
      "type": "event"
    },
    {
      "anonymous": false,
      "inputs": [
        {
          "indexed": true,
          "name": "owner",
          "type": "address"
        },
        {
          "indexed": true,
          "name": "optionID",
          "type": "uint256"
        },
        {
          "indexed": false,
          "name": "amount",
          "type": "uint256"
        }
      ],
      "name": "BurnOption",
      "type": "event"
    },
    {
      "anonymous": false,
      "inputs": [
        {
          "indexed": false,
          "name": "value1",
          "type": "uint256"
        },
        {
          "indexed": false,
          "name": "value2",
          "type": "uint256"
        },
        {
          "indexed": false,
          "name": "value3",
          "type": "uint256"
        }
      ],
      "name": "DebugEvent",
      "type": "event"
    },
    {
      "anonymous": false,
      "inputs": [
        {
          "indexed": true,
          "name": "previousOwner",
          "type": "address"
        },
        {
          "indexed": true,
          "name": "newOwner",
          "type": "address"
        }
      ],
      "name": "OwnershipTransferred",
      "type": "event"
    },
    {
      "constant": true,
      "inputs": [],
      "name": "getOptionCalRangeAll",
      "outputs": [
        {
          "name": "",
          "type": "uint256"
        },
        {
          "name": "",
          "type": "uint256"
        },
        {
          "name": "",
          "type": "uint256"
        },
        {
          "name": "",
          "type": "uint256"
        },
        {
          "name": "",
          "type": "uint256"
        },
        {
          "name": "",
          "type": "uint256"
        }
      ],
      "payable": false,
      "stateMutability": "view",
      "type": "function"
    },
    {
      "constant": true,
      "inputs": [],
      "name": "getOptionPhaseCalRange",
      "outputs": [
        {
          "name": "",
          "type": "uint256"
        },
        {
          "name": "",
          "type": "uint256"
        },
        {
          "name": "",
          "type": "uint256"
        }
      ],
      "payable": false,
      "stateMutability": "view",
      "type": "function"
    },
    {
      "constant": true,
      "inputs": [],
      "name": "getsharedPhaseCalRange",
      "outputs": [
        {
          "name": "",
          "type": "uint256"
        },
        {
          "name": "",
          "type": "uint256"
        },
        {
          "name": "",
          "type": "uint256"
        },
        {
          "name": "",
          "type": "uint256"
        }
      ],
      "payable": false,
      "stateMutability": "view",
      "type": "function"
    },
    {
      "constant": true,
      "inputs": [
        {
          "name": "index",
          "type": "uint256"
        }
      ],
      "name": "getsharedPhaseCalInfo",
      "outputs": [
        {
          "name": "",
          "type": "uint256"
        },
        {
          "name": "",
          "type": "uint256[]"
        }
      ],
      "payable": false,
      "stateMutability": "view",
      "type": "function"
    },
    {
      "constant": false,
      "inputs": [
        {
          "name": "calInfo",
          "type": "uint256"
        }
      ],
      "name": "setPhaseOccupiedCollateral",
      "outputs": [],
      "payable": false,
      "stateMutability": "nonpayable",
      "type": "function"
    },
    {
      "constant": false,
      "inputs": [
        {
          "name": "calInfo",
          "type": "uint256"
        },
        {
          "name": "totalOccupied",
          "type": "uint256"
        },
        {
          "name": "beginOption",
          "type": "uint256"
        }
      ],
      "name": "setCollateralPhase",
      "outputs": [],
      "payable": false,
      "stateMutability": "nonpayable",
      "type": "function"
    },
    {
      "constant": true,
      "inputs": [
        {
          "name": "calInfo",
          "type": "uint256"
        }
      ],
      "name": "calculatePhaseOccupiedCollateral",
      "outputs": [
        {
          "name": "",
          "type": "uint256"
        },
        {
          "name": "",
          "type": "uint256"
        },
        {
          "name": "",
          "type": "bool"
        }
      ],
      "payable": false,
      "stateMutability": "view",
      "type": "function"
    },
    {
      "constant": false,
      "inputs": [
        {
          "name": "calInfo",
          "type": "uint256"
        },
        {
          "name": "firstOption",
          "type": "uint256"
        },
        {
          "name": "prices",
          "type": "uint256[]"
        },
        {
          "name": "calTime",
          "type": "uint256"
        }
      ],
      "name": "setSharedState",
      "outputs": [],
      "payable": false,
      "stateMutability": "nonpayable",
      "type": "function"
    },
    {
      "constant": true,
      "inputs": [
        {
          "name": "calInfo",
          "type": "uint256"
        },
        {
          "name": "whiteList",
          "type": "address[]"
        }
      ],
      "name": "calculatePhaseSharedPayment",
      "outputs": [
        {
          "name": "",
          "type": "uint256[]"
        },
        {
          "name": "",
          "type": "uint256"
        },
        {
          "name": "",
          "type": "bool"
        }
      ],
      "payable": false,
      "stateMutability": "view",
      "type": "function"
    },
    {
      "constant": true,
      "inputs": [
        {
          "name": "calInfo",
          "type": "uint256"
        },
        {
          "name": "begin",
          "type": "uint256"
        },
        {
          "name": "end",
          "type": "uint256"
        },
        {
          "name": "whiteList",
          "type": "address[]"
        }
      ],
      "name": "calRangeSharedPayment",
      "outputs": [
        {
          "name": "",
          "type": "uint256[]"
        },
        {
          "name": "",
          "type": "uint256"
        },
        {
          "name": "",
          "type": "bool"
        }
      ],
      "payable": false,
      "stateMutability": "view",
      "type": "function"
    },
    {
      "constant": true,
      "inputs": [
        {
          "name": "calInfo",
          "type": "uint256"
        },
        {
          "name": "whiteList",
          "type": "address[]"
        }
      ],
      "name": "calculatePhaseOptionsFall",
      "outputs": [
        {
          "name": "",
          "type": "int256[]"
        },
        {
          "name": "",
          "type": "uint256[]"
        }
      ],
      "payable": false,
      "stateMutability": "view",
      "type": "function"
    },
    {
      "constant": true,
      "inputs": [],
      "name": "getTotalOccupiedCollateral",
      "outputs": [
        {
          "name": "",
          "type": "uint256"
        }
      ],
      "payable": false,
      "stateMutability": "view",
      "type": "function"
    },
    {
      "constant": false,
      "inputs": [
        {
          "name": "from",
          "type": "address"
        },
        {
          "name": "id",
          "type": "uint256"
        },
        {
          "name": "amount",
          "type": "uint256"
        }
      ],
      "name": "burnOptions",
      "outputs": [],
      "payable": false,
      "stateMutability": "nonpayable",
      "type": "function"
    }
  ],
  "bytecode": "0x6080604052610e10600a55600c805461019063ffffffff1991821681179092556013805490911690911790553480156200003857600080fd5b50604051606080620054ef83398101604081815282516020840151919093015160008054600160a060020a031916331780825592939192859285928592600160a060020a0316917f8be0079c531659141344cd1fd0a4f28419497f9722a3daafe3b4186f6b6457e0908290a3620000b8836401000000006200016a810204565b620000cc82640100000000620001fc810204565b620000e0816401000000006200028e810204565b6040805160e0810182526201518081526203f480602082015262093a8091810191909152620d2f0060608201526213c680608082015262278d0060a08201526276a70060c08201526200013890600990600762000332565b506040805180820190915260018082526002602083018190526200015d929062000389565b5050505050505062000479565b6200017d64010000000062000320810204565b1515620001da57604080517f08c379a00000000000000000000000000000000000000000000000000000000081526020600482018190526024820152600080516020620054cf833981519152604482015290519081900360640190fd5b60038054600160a060020a031916600160a060020a0392909216919091179055565b6200020f64010000000062000320810204565b15156200026c57604080517f08c379a00000000000000000000000000000000000000000000000000000000081526020600482018190526024820152600080516020620054cf833981519152604482015290519081900360640190fd5b60048054600160a060020a031916600160a060020a0392909216919091179055565b620002a164010000000062000320810204565b1515620002fe57604080517f08c379a00000000000000000000000000000000000000000000000000000000081526020600482018190526024820152600080516020620054cf833981519152604482015290519081900360640190fd5b60058054600160a060020a031916600160a060020a0392909216919091179055565b600054600160a060020a031633145b90565b82805482825590600052602060002090810192821562000377579160200282015b8281111562000377578251829062ffffff1690559160200191906001019062000353565b506200038592915062000438565b5090565b828054828255906000526020600020906007016008900481019282156200042a5791602002820160005b83821115620003f657835183826101000a81548163ffffffff021916908360ff1602179055509260200192600401602081600301049283019260010302620003b3565b8015620004285782816101000a81549063ffffffff0219169055600401602081600301049283019260010302620003f6565b505b506200038592915062000455565b6200032f91905b808211156200038557600081556001016200043f565b6200032f91905b808211156200038557805463ffffffff191681556001016200045c565b61504680620004896000396000f3006080604052600436106102a55763ffffffff60e060020a6000350416630438d49081146102aa57806316f35a7f1461042d5780632967eafe1461045b57806332ab5c201461047e578063354af360146105485780633582d7891461059d5780633ad2fb57146106025780633ad98099146106235780633b50c4d11461064d57806342e5479d1461066557806344244d271461069657806345e19fdd146106de57806348ee201d1461073a5780634c69c00f1461075257806355c47cb2146107735780635ca4b73b1461079757806364ed3017146107ac57806367b8ceb9146107c15780636d84e2e3146107dc578063715018a6146107f4578063723931ca1461080957806373a3d4241461082157806374e85fd2146108365780637b23dbbe1461085d5780637cfff2d8146108725780637e838fa31461088a5780638da5cb5b146108b65780638ea745b8146108cb5780638f32d59b146109355780638ff239e61461094a5780639052d5f8146109aa578063924a69ce146109bf57806397a918e9146109f25780639870d7fe14610a6557806398dae82814610a8657806399deae0a14610ab95780639b16bfaf14610af15780639ef975d214610b09578063a093e2d014610b21578063ac8a584a14610b42578063af70df1214610b63578063afec82fc14610bbd578063b18b78dd14610bdb578063b452bc0414610bf0578063b8a5b7fa14610c0e578063bec3107f14610c26578063c27b7dfb14610c3b578063c5acbe1514610c50578063d0ebdbe714610c68578063d500958414610c89578063d6d1401214610c9e578063db6ad2bd14610cbc578063e5081c4014610cda578063e7a1c1c014610db6578063e7c5681514610dda578063e7f43c6814610dfb578063ee29c94a14610e10578063f2fde38b14610e2e578063fa1cf1f014610e4f575b600080fd5b3480156102b657600080fd5b506102c5600435602435610e8a565b60405180806020018060200180602001806020018060200186810386528b818151815260200191508051906020019060200280838360005b838110156103155781810151838201526020016102fd565b5050505090500186810385528a818151815260200191508051906020019060200280838360005b8381101561035457818101518382015260200161033c565b50505050905001868103845289818151815260200191508051906020019060200280838360005b8381101561039357818101518382015260200161037b565b50505050905001868103835288818151815260200191508051906020019060200280838360005b838110156103d25781810151838201526020016103ba565b50505050905001868103825287818151815260200191508051906020019060200280838360005b838110156104115781810151838201526020016103f9565b505050509050019a505050505050505050505060405180910390f35b34801561043957600080fd5b506104426110d7565b6040805163ffffffff9092168252519081900360200190f35b34801561046757600080fd5b5061047c600160a060020a03600435166110e3565b005b34801561048a57600080fd5b5060408051606435600481810135602081810285810182019096528185526104e29583359560248035966044359636969095608495929093019290918291850190849080828437509497506111519650505050505050565b604051808060200184815260200183151515158152602001828103825285818151815260200191508051906020019060200280838360005b8381101561053257818101518382015260200161051a565b5050505090500194505050505060405180910390f35b34801561055457600080fd5b50604080516020600480358082013583810280860185019096528085526102c5953695939460249493850192918291850190849080828437509497506111ef9650505050505050565b3480156105a957600080fd5b506105b261140b565b60408051602080825283518183015283519192839290830191858101910280838360005b838110156105ee5781810151838201526020016105d6565b505050509050019250505060405180910390f35b34801561060e57600080fd5b5061047c60043563ffffffff60243516611490565b34801561062f57600080fd5b5061063b6004356114fc565b60408051918252519081900360200190f35b34801561065957600080fd5b5061044260043561151b565b34801561067157600080fd5b5061067a611553565b60408051600160a060020a039092168252519081900360200190f35b3480156106a257600080fd5b506106ab611562565b604080519687526020870195909552858501939093526060850191909152608084015260a0830152519081900360c00190f35b3480156106ea57600080fd5b506106f3611576565b60408051978852600160a060020a03909616602088015260ff9094168686015263ffffffff9092166060860152608085015260a084015260c0830152519081900360e00190f35b34801561074657600080fd5b506106f3600435611661565b34801561075e57600080fd5b5061047c600160a060020a03600435166116d5565b34801561077f57600080fd5b5061063b600160a060020a0360043516602435611743565b3480156107a357600080fd5b5061067a611773565b3480156107b857600080fd5b5061063b611782565b3480156107cd57600080fd5b5061063b600435602435611788565b3480156107e857600080fd5b5061063b600435611908565b34801561080057600080fd5b5061047c611926565b34801561081557600080fd5b5061047c6004356119bc565b34801561082d57600080fd5b5061063b611a44565b34801561084257600080fd5b5061047c600160a060020a0360043516602435604435611cec565b34801561086957600080fd5b5061063b611fa9565b34801561087e57600080fd5b5061047c600435611faf565b34801561089657600080fd5b506108a2600435612006565b604080519115158252519081900360200190f35b3480156108c257600080fd5b5061067a612065565b3480156108d757600080fd5b506108e3600435612074565b6040805167ffffffffffffffff9098168852600160a060020a03909616602088015260ff9094168686015263ffffffff9092166060860152608085015260a084015260c0830152519081900360e00190f35b34801561094157600080fd5b506108a26120e5565b34801561095657600080fd5b50604080516020600460443581810135838102808601850190965280855261047c95833595602480359636969560649593949201929182918501908490808284375094975050933594506120f69350505050565b3480156109b657600080fd5b506105b2612221565b3480156109cb57600080fd5b5061047c600160a060020a036004358116906024351660443560643560843560a435612278565b3480156109fe57600080fd5b50610a0a6004356125b3565b6040518083815260200180602001828103825283818151815260200191508051906020019060200280838360005b83811015610a50578181015183820152602001610a38565b50505050905001935050505060405180910390f35b348015610a7157600080fd5b5061047c600160a060020a0360043516612626565b348015610a9257600080fd5b50610a9b61267d565b60408051938452602084019290925282820152519081900360600190f35b348015610ac557600080fd5b50610ad160043561268d565b604080519384526020840192909252151582820152519081900360600190f35b348015610afd57600080fd5b5061067a600435612755565b348015610b1557600080fd5b506108a260043561277d565b348015610b2d57600080fd5b5061047c600160a060020a03600435166127d9565b348015610b4e57600080fd5b506108a2600160a060020a0360043516612847565b348015610b6f57600080fd5b506040805160206004602480358281013584810280870186019097528086526104e2968435963696604495919490910192918291850190849080828437509497506128a09650505050505050565b348015610bc957600080fd5b5061047c63ffffffff600435166128f7565b348015610be757600080fd5b5061067a61294e565b348015610bfc57600080fd5b5061047c60043560243560443561295d565b348015610c1a57600080fd5b5061047c600435612a82565b348015610c3257600080fd5b5061063b612b5b565b348015610c4757600080fd5b50610442612b61565b348015610c5c57600080fd5b5061047c600435612b6d565b348015610c7457600080fd5b5061047c600160a060020a0360043516612bbe565b348015610c9557600080fd5b5061067a612c2c565b348015610caa57600080fd5b506108a263ffffffff60043516612c3b565b348015610cc857600080fd5b506108a263ffffffff60043516612c94565b348015610ce657600080fd5b50604080516020600460248035828101358481028087018601909752808652610d3496843596369660449591949091019291829185019084908082843750949750612d1c9650505050505050565b604051808060200180602001838103835285818151815260200191508051906020019060200280838360005b83811015610d78578181015183820152602001610d60565b50505050905001838103825284818151815260200191508051906020019060200280838360008381101561053257818101518382015260200161051a565b348015610dc257600080fd5b5061047c600435600160a060020a0360243516612eec565b348015610de657600080fd5b506105b2600160a060020a0360043516612f7a565b348015610e0757600080fd5b506105b2612fe6565b348015610e1c57600080fd5b5061047c63ffffffff60043516613047565b348015610e3a57600080fd5b5061047c600160a060020a03600435166130cd565b348015610e5b57600080fd5b50610e64613122565b604080519485526020850193909352838301919091526060830152519081900360800190f35b6060806060806060806060806060806000806006805490508d8f011115610ec157600654610ebe908f63ffffffff61313416565b9c505b60008d11156110c6578c604051908082528060200260200182016040528015610ef4578160200160208202803883390190505b5096508c604051908082528060200260200182016040528015610f21578160200160208202803883390190505b5095508c604051908082528060200260200182016040528015610f4e578160200160208202803883390190505b5094508c604051908082528060200260200182016040528015610f7b578160200160208202803883390190505b5093508c604051908082528060200260200182016040528015610fa8578160200160208202803883390190505b509250600091505b8c8210156110b657600680548f8401908110610fc857fe5b906000526020600020906005020190508060000160089054906101000a9004600160a060020a03168783815181101515610ffe57fe5b600160a060020a03909216602092830290910190910152805460018201548751601060ff60e060020a90940484160190921660020a63ffffffff91821602169087908490811061104a57fe5b602090810290910101526002810154855186908490811061106757fe5b602090810290910101526003810154845185908490811061108457fe5b60209081029091010152600481015483518490849081106110a157fe5b60209081029091010152600190910190610fb0565b86868686869b509b509b509b509b505b505050505050509295509295909350565b60135463ffffffff1681565b6110eb6120e5565b151561112f576040805160e560020a62461bcd0281526020600482018190526024820152600080516020614ffb833981519152604482015290519081900360640190fd5b60058054600160a060020a031916600160a060020a0392909216919091179055565b6060600080606060006111638961317d565b88101580611172575060145487105b15611188579093506000925082915083906111e3565b6111918961317d565b8711156111a4576111a18961317d565b96505b6111d48888601760006111b68e613196565b8152602001908152602001600020546111ce8d6131a3565b8a6131c4565b91509150818160019450945094505b50509450945094915050565b6060806060806060600060608060608060606000808d51975087604051908082528060200260200182016040528015611232578160200160208202803883390190505b5096508760405190808252806020026020018201604052801561125f578160200160208202803883390190505b5095508760405190808252806020026020018201604052801561128c578160200160208202803883390190505b509450876040519080825280602002602001820160405280156112b9578160200160208202803883390190505b509350876040519080825280602002602001820160405280156112e6578160200160208202803883390190505b509250600091505b878210156113f7576113168e8381518110151561130757fe5b9060200190602002015161333d565b80548851919250680100000000000000009004600160a060020a03169088908490811061133f57fe5b600160a060020a03909216602092830290910190910152805460018201548751601060ff60e060020a90940484160190921660020a63ffffffff91821602169087908490811061138b57fe5b60209081029091010152600281015485518690849081106113a857fe5b60209081029091010152600381015484518590849081106113c557fe5b60209081029091010152600481015483518490849081106113e257fe5b602090810290910101526001909101906112ee565b50949c939b50919950975095509350505050565b6060600180548060200260200160405190810160405280929190818152602001828054801561148557602002820191906000526020600020906000905b82829054906101000a900463ffffffff1663ffffffff16815260200190600401906020826003010492830192600103820291508084116114485790505b505050505090505b90565b61149981612c94565b15156114ef576040805160e560020a62461bcd02815260206004820152601f60248201527f756e6465726c79696e6720697320756e737570706f7274656420617373657400604482015290519081900360640190fd5b6114f8826119bc565b5050565b600980548290811061150a57fe5b600091825260209091200154905081565b600180548290811061152957fe5b9060005260206000209060089182820401919006600402915054906101000a900463ffffffff1681565b600554600160a060020a031690565b600d54600654601254919283929043904290565b600654600090819081908190819081908190818082116115e0576040805160e560020a62461bcd02815260206004820152601560248201527f6f7074696f6e73206c69737420697320656d7074790000000000000000000000604482015290519081900360640190fd5b6006805460001984019081106115f257fe5b60009182526020909120600590910201805460018201546002830154600384015460049094015467ffffffffffffffff84169e680100000000000000008504600160a060020a03169e5060e060020a90940460ff169c5063ffffffff9092169a50985091965090945092505050565b6000806000806000806000806116768961333d565b805460018201546002830154600384015460049094015467ffffffffffffffff84169e680100000000000000008504600160a060020a03169e5060e060020a90940460ff169c5063ffffffff9092169a50985091965090945092505050565b6116dd6120e5565b1515611721576040805160e560020a62461bcd0281526020600482018190526024820152600080516020614ffb833981519152604482015290519081900360640190fd5b60038054600160a060020a031916600160a060020a0392909216919091179055565b60086020528160005260406000208181548110151561175e57fe5b90600052602060002001600091509150505481565b600454600160a060020a031690565b600a5490565b6000611792614eb8565b60008061179e8661333d565b6040805160e081018252825467ffffffffffffffff81168252680100000000000000008104600160a060020a0316602083015260e060020a900460ff1691810191909152600182015463ffffffff16606082015260028201546080820152600382015460a082015260049091015460c0820152925061181c836133cd565b6118268386613428565b6003546060840151604080517fda66325700000000000000000000000000000000000000000000000000000000815263ffffffff909216600483015251600160a060020a039092169163da663257916024808201926020929091908290030181600087803b15801561189757600080fd5b505af11580156118ab573d6000803e3d6000fd5b505050506040513d60208110156118c157600080fd5b5051604084015160a08501519193506118da9184613484565b90508015156118ec57600093506118ff565b6118fc818663ffffffff6134b916565b93505b50505092915050565b600a546000198201600090815260076020526040902054015b919050565b61192e6120e5565b1515611972576040805160e560020a62461bcd0281526020600482018190526024820152600080516020614ffb833981519152604482015290519081900360640190fd5b60008054604051600160a060020a03909116907f8be0079c531659141344cd1fd0a4f28419497f9722a3daafe3b4186f6b6457e0908390a360008054600160a060020a0319169055565b6119c58161277d565b1515611a41576040805160e560020a62461bcd02815260206004820152602160248201527f65787069726174696f6e2076616c7565206973206e6f7420737570706f72746560448201527f6400000000000000000000000000000000000000000000000000000000000000606482015290519081900360840190fd5b50565b60008060606000806000806000611a59614ef4565b6000611a63613563565b9850611a6d6135e4565b600654600e54919950975095505b86861015611b8957611ab4600687815481101515611a9557fe5b600091825260209091206001600590920201015463ffffffff166136fe565b9450611b7c611b6f600688815481101515611acb57fe5b60009182526020918290206040805160e081018252600593909302909101805467ffffffffffffffff81168452680100000000000000008104600160a060020a03169484019490945260e060020a90930460ff1690820152600182015463ffffffff16606082015260028201546080820152600382015460a082015260049091015460c08201528a518b9089908110611b6057fe5b90602001906020020151613786565b8a9063ffffffff6137c716565b9850600190950194611a7b565b601254600f5490945092505b83831015611cde57600083815260116020526040908190208151808301928390529160029082845b815481526020019060010190808311611bbd575093955085935060009250611be3915050565b6020020151600e54909150811015611cd357611c07600682815481101515611a9557fe5b9450611cd0611cc3600683815481101515611c1e57fe5b60009182526020918290206040805160e081018252600593909302909101805467ffffffffffffffff81168452680100000000000000008104600160a060020a03168486015260e060020a900460ff1691830191909152600181015463ffffffff16606083015260028101546080830152600381015460a08301526004015460c0820152908501518b518c908a908110611cb457fe5b90602001906020020151613824565b8a9063ffffffff61313416565b98505b600190920191611b95565b509698975050505050505050565b600254600090600160a060020a03163314611d77576040805160e560020a62461bcd02815260206004820152602660248201527f4d616e6167657261626c653a2063616c6c6572206973206e6f7420746865204d60448201527f616e616765720000000000000000000000000000000000000000000000000000606482015290519081900360840190fd5b611d808361333d565b6040805160e081018252825467ffffffffffffffff81168252680100000000000000008104600160a060020a0316602083015260e060020a900460ff1691810191909152600182015463ffffffff16606082015260028201546080820152600382015460a0820152600482015460c0820152909150611dfe906133cd565b8054611e139067ffffffffffffffff16613852565b6040805160e081018252825467ffffffffffffffff81168252680100000000000000008104600160a060020a0316602083015260e060020a900460ff1691810191909152600182015463ffffffff16606082015260028201546080820152600382015460a0820152600482015460c0820152611e8f90856138e7565b6040805160e081018252825467ffffffffffffffff81168252680100000000000000008104600160a060020a0316602083015260e060020a900460ff1691810191909152600182015463ffffffff16606082015260028201546080820152600382015460a0820152600482015460c0820152611f0b9083613428565b6004810154611f20908363ffffffff61313416565b60048201556040805180820182526000198501815260208082018590526012546000908152601190915291909120611f59916002614f0f565b506012805460010190556040805183815290518491600160a060020a038716917f1fb99acdc281bccbecb3d0073a307341181a8a7d3cd532fdaef5ce7200401c2d9181900360200190a350505050565b600a5481565b611fb76120e5565b1515611ffb576040805160e560020a62461bcd0281526020600482018190526024820152600080516020614ffb833981519152604482015290519081900360640190fd5b611a41600982613956565b60006120106120e5565b1515612054576040805160e560020a62461bcd0281526020600482018190526024820152600080516020614ffb833981519152604482015290519081900360640190fd5b61205f6009836139cd565b92915050565b600054600160a060020a031690565b600680548290811061208257fe5b60009182526020909120600590910201805460018201546002830154600384015460049094015467ffffffffffffffff84169550680100000000000000008404600160a060020a03169460e060020a90940460ff169363ffffffff909316929087565b600054600160a060020a0316331490565b600254600160a060020a0316331461217e576040805160e560020a62461bcd02815260206004820152602660248201527f4d616e6167657261626c653a2063616c6c6572206973206e6f7420746865204d60448201527f616e616765720000000000000000000000000000000000000000000000000000606482015290519081900360840190fd5b60145483111561218e5760148390555b6121978461317d565b60135463ffffffff16806121aa87613196565b020111156121cb576121bb8461317d565b6015556121c7846131a3565b6016555b80601760006121d987613196565b81526020019081526020016000208190555081601860006121f987613196565b8152602001908152602001600020908051906020019061221a929190614f4d565b5050505050565b6060600980548060200260200160405190810160405280929190818152602001828054801561148557602002820191906000526020600020905b81548152602001906001019080831161225b575050505050905090565b6000806000612285614eb8565b600254600160a060020a0316331461230d576040805160e560020a62461bcd02815260206004820152602660248201527f4d616e6167657261626c653a2063616c6c6572206973206e6f7420746865204d60448201527f616e616765720000000000000000000000000000000000000000000000000000606482015290519081900360840190fd5b600654935061231b88613196565b92506123268861317d565b9150600660e0604051908101604052808660010167ffffffffffffffff1681526020018c600160a060020a031681526020018560ff1681526020018463ffffffff168152602001426123778c6131a3565b01815260208082018b90526040918201899052835460018082018655600095865282862085516005909302018054868501518787015167ffffffffffffffff1990921667ffffffffffffffff909516949094177fffffffff0000000000000000000000000000000000000000ffffffffffffffff1668010000000000000000600160a060020a0395861602177fffffff00ffffffffffffffffffffffffffffffffffffffffffffffffffffffff1660e060020a60ff909216919091021781556060860151818301805463ffffffff191663ffffffff9092169190911790556080860151600282015560a0860151600382015560c0909501516004909501949094558e1684526008815290832080548084018255908452922090860191015560068054859081106124a357fe5b60009182526020918290206040805160e081018252600593909302909101805467ffffffffffffffff81168452680100000000000000008104600160a060020a03169484019490945260e060020a90930460ff1690820152600182015463ffffffff16606082015260028201546080820152600382015460a082015260049091015460c08201529050612537818a88613a7a565b836001018a600160a060020a03167f18f523957030bee670136363e25b2f847bf1bd07bb7b33c6d5475936a9aac70d8585426125728e6131a3565b6040805160ff909516855263ffffffff90931660208501520182820152606082018c9052608082018a9052519081900360a00190a350505050505050505050565b6000818152601760209081526040808320546018835281842080548351818602810186019094528084526060949293919283919083018282801561261657602002820191906000526020600020905b815481526020019060010190808311612602575b5050505050905091509150915091565b61262e6120e5565b1515612672576040805160e560020a62461bcd0281526020600482018190526024820152600080516020614ffb833981519152604482015290519081900360640190fd5b611a41600b82613d49565b600d546006546012549192909190565b600c546000908190819081908190819081906126be9063ffffffff166126b28a613196565b9063ffffffff6134b916565b93506126c98861317d565b84106126de576000965086955085945061274a565b600c546126f690859063ffffffff908116906137c716565b92506127018861317d565b831115612718576127118861317d565b9250612731565b600d54831015612731576000965086955085945061274a565b61273b8484613de3565b91509150818160019650965096505b505050509193909250565b600b80548290811061276357fe5b600091825260209091200154600160a060020a0316905081565b600061205f60098054806020026020016040519081016040528092919081815260200182805480156127ce57602002820191906000526020600020905b8154815260200190600101908083116127ba575b505050505083613f27565b6127e16120e5565b1515612825576040805160e560020a62461bcd0281526020600482018190526024820152600080516020614ffb833981519152604482015290519081900360640190fd5b60048054600160a060020a031916600160a060020a0392909216919091179055565b60006128516120e5565b1515612895576040805160e560020a62461bcd0281526020600482018190526024820152600080516020614ffb833981519152604482015290519081900360640190fd5b61205f600b83613f66565b601354606090600090819081906128c09063ffffffff166126b288613196565b6013549091506128e990879083906128e390829063ffffffff908116906137c716565b88611151565b935093509350509250925092565b6128ff6120e5565b1515612943576040805160e560020a62461bcd0281526020600482018190526024820152600080516020614ffb833981519152604482015290519081900360640190fd5b611a4160018261403d565b600354600160a060020a031690565b600b54600090811080156129945750600b80543391908390811061297d57fe5b600091825260209091200154600160a060020a0316145b1515612a10576040805160e560020a62461bcd02815260206004820152603060248201527f4d616e6167657261626c653a2063616c6c6572206973206e6f7420746865206560448201527f6c696769626c65204f70657261746f7200000000000000000000000000000000606482015290519081900360840190fd5b600d54821115612a2057600d8290555b612a298461317d565b600c5463ffffffff1680612a3c87613196565b02011115612a5d57612a4d8461317d565b600e55612a59846131a3565b600f555b8260106000612a6b87613196565b815260208101919091526040016000205550505050565b60008060008080600b80549050118015612abf5750600b805433919083908110612aa857fe5b600091825260209091200154600160a060020a0316145b1515612b3b576040805160e560020a62461bcd02815260206004820152603060248201527f4d616e6167657261626c653a2063616c6c6572206973206e6f7420746865206560448201527f6c696769626c65204f70657261746f7200000000000000000000000000000000606482015290519081900360840190fd5b612b448561268d565b935093509350811561221a5761221a85858561295d565b60065490565b600c5463ffffffff1681565b612b756120e5565b1515612bb9576040805160e560020a62461bcd0281526020600482018190526024820152600080516020614ffb833981519152604482015290519081900360640190fd5b600a55565b612bc66120e5565b1515612c0a576040805160e560020a62461bcd0281526020600482018190526024820152600080516020614ffb833981519152604482015290519081900360640190fd5b60028054600160a060020a031916600160a060020a0392909216919091179055565b600254600160a060020a031690565b6000612c456120e5565b1515612c89576040805160e560020a62461bcd0281526020600482018190526024820152600080516020614ffb833981519152604482015290519081900360640190fd5b61205f600183614106565b600061205f6001805480602002602001604051908101604052809291908181526020018280548015612d1157602002820191906000526020600020906000905b82829054906101000a900463ffffffff1663ffffffff1681526020019060040190602082600301049283019260010382029150808411612cd45790505b5050505050836141fd565b606080600080606080600080612d4d601360009054906101000a900463ffffffff1663ffffffff166126b28c613196565b601354909650612d6890879063ffffffff908116906137c716565b9450612d738a61317d565b86101580612d82575060145485105b15612d8c57612edf565b612d958a61317d565b851115612da857612da58a61317d565b94505b6014548611612db75760145495505b612dbf6135e4565b9350612ddf8686612dcf8d613196565b612dd88e6131a3565b8d89614248565b925088519150600090505b81811015612ed8576003548951600160a060020a03909116906341976e09908b9084908110612e1557fe5b906020019060200201516040518263ffffffff1660e060020a0281526004018082600160a060020a0316600160a060020a03168152602001915050602060405180830381600087803b158015612e6a57600080fd5b505af1158015612e7e573d6000803e3d6000fd5b505050506040513d6020811015612e9457600080fd5b50518351849083908110612ea457fe5b90602001906020020151811515612eb757fe5b058382815181101515612ec657fe5b60209081029091010152600101612dea565b8284975097505b5050505050509250929050565b612ef46120e5565b1515612f38576040805160e560020a62461bcd0281526020600482018190526024820152600080516020614ffb833981519152604482015290519081900360640190fd5b80600b83815481101515612f4857fe5b9060005260206000200160006101000a815481600160a060020a030219169083600160a060020a031602179055505050565b600160a060020a038116600090815260086020908152604091829020805483518184028101840190945280845260609392830182828015612fda57602002820191906000526020600020905b815481526020019060010190808311612fc6575b50505050509050919050565b6060600b80548060200260200160405190810160405280929190818152602001828054801561148557602002820191906000526020600020905b8154600160a060020a03168152600190910190602001808311613020575050505050905090565b611a4160018054806020026020016040519081016040528092919081815260200182805480156130c257602002820191906000526020600020906000905b82829054906101000a900463ffffffff1663ffffffff16815260200190600401906020826003010492830192600103820291508084116130855790505b50505050508261441a565b6130d56120e5565b1515613119576040805160e560020a62461bcd0281526020600482018190526024820152600080516020614ffb833981519152604482015290519081900360640190fd5b611a418161447a565b60145460065460125491929091904290565b600061317683836040805190810160405280601e81526020017f536166654d6174683a207375627472616374696f6e206f766572666c6f77000081525061455b565b9392505050565b68010000000000000000900467ffffffffffffffff1690565b67ffffffffffffffff1690565b700100000000000000000000000000000000900467ffffffffffffffff1690565b606060008060606000806000806131de8d8d8d8d8d6145f8565b94506131eb8d8d8d6147d3565b909d5095505b8b8d101561332a57600680548e90811061320757fe5b90600052602060002090600502019350836002015492508a83108061322e57506004840154155b156132385761331f565b600760008e815260200190815260200160002091506132838d8c84600001548688600301548760030154886004015489600501548c600001601c9054906101000a900460ff16614858565b9050600081111561331f5760018201546132a7908a90600160a060020a03166148a1565b92506132dc82600301546132d086600401546126b28587600201546134b990919063ffffffff16565b9063ffffffff6148ee16565b90506133068186858151811015156132f057fe5b602090810290910101519063ffffffff6137c716565b858481518110151561331457fe5b602090810290910101525b6001909c019b6131f1565b50929b939a509298505050505050505050565b6000808211801561335057506006548211155b15156133a6576040805160e560020a62461bcd02815260206004820152601660248201527f6f7074696f6e206964206973206e6f7420657869737400000000000000000000604482015290519081900360640190fd5b6006805460001984019081106133b857fe5b90600052602060002090600502019050919050565b60808101514210611a41576040805160e560020a62461bcd02815260206004820152601160248201527f6f7074696f6e2069732065787069726564000000000000000000000000000000604482015290519081900360640190fd5b60c08201518111156114f8576040805160e560020a62461bcd02815260206004820152601d60248201527f6f7074696f6e20616d6f756e7420697320696e73756666696369656e74000000604482015290519081900360640190fd5b600060ff841615828411141561349c57506000613176565b60ff8416156134ad578183036134b1565b8282035b949350505050565b6000808315156134cc576000915061355c565b508282028284828115156134dc57fe5b0414613558576040805160e560020a62461bcd02815260206004820152602160248201527f536166654d6174683a206d756c7469706c69636174696f6e206f766572666c6f60448201527f7700000000000000000000000000000000000000000000000000000000000000606482015290519081900360840190fd5b8091505b5092915050565b600c5460009081908190819063ffffffff16600d82015481151561358357fe5b600c54919004925063ffffffff16600d600101548115156135a057fe5b0460010190505b808210156135dc576000828152601060205260409020546135cf90849063ffffffff6137c716565b92506001909101906135a7565b509092915050565b600154604080518281526020808402820101909152606091908290600090838015613619578160200160208202803883390190505b509150600090505b8281101561355c5760035460018054600160a060020a039092169163da66325791908490811061364d57fe5b90600052602060002090600891828204019190066004029054906101000a900463ffffffff166040518263ffffffff1660e060020a028152600401808263ffffffff168152602001915050602060405180830381600087803b1580156136b257600080fd5b505af11580156136c6573d6000803e3d6000fd5b505050506040513d60208110156136dc57600080fd5b505182518390839081106136ec57fe5b60209081029091010152600101613621565b600061205f600180548060200260200160405190810160405280929190818152602001828054801561377b57602002820191906000526020600020906000905b82829054906101000a900463ffffffff1663ffffffff168152602001906004019060208260030104928301926001038202915080841161373e5790505b505050505083614930565b60008042846080015111158061379e575060c0840151155b156137ac576000915061355c565b6134b18460c001516126b286604001518760a0015187614977565b600082820183811015613558576040805160e560020a62461bcd02815260206004820152601b60248201527f536166654d6174683a206164646974696f6e206f766572666c6f770000000000604482015290519081900360640190fd5b600042846080015111151561383b57506000613176565b6134b1836126b286604001518760a0015186614977565b600a54600019820160009081526007602052604090205442910110611a41576040805160e560020a62461bcd02815260206004820152602560248201527f6f7074696f6e206c6f636b206c696d69746174696f6e206973206e6f7420657860448201527f7069726564000000000000000000000000000000000000000000000000000000606482015290519081900360840190fd5b80600160a060020a03168260200151600160a060020a03161415156114f8576040805160e560020a62461bcd02815260206004820152601f60248201527f63616c6c6572206973206e6f7420746865206f7074696f6e73206f776e657200604482015290519081900360640190fd5b6139af828054806020026020016040519081016040528092919081815260200182805480156139a457602002820191906000526020600020905b815481526020019060010190808311613990575b505050505082613f27565b15156114f85781546001810183556000928352602090922090910155565b8154600090815b81811015613a09578385828154811015156139eb57fe5b90600052602060002001541415613a0157613a09565b6001016139d4565b81811015613a6d5760001982018114613a53578460018303815481101515613a2d57fe5b90600052602060002001548582815481101515613a4657fe5b6000918252602090912001555b8454613a63866000198301614f87565b5060019250613a72565b600092505b505092915050565b60a08301516080840151600554606086015160408088015181517fb4277bc100000000000000000000000000000000000000000000000000000000815263ffffffff909316600484015260ff16602483015242909303604482018190526064820185905283519093600093849384938493600160a060020a039093169263b4277bc1926084808201939182900301818787803b158015613b1957600080fd5b505af1158015613b2d573d6000803e3d6000fd5b505050506040513d6040811015613b4357600080fd5b5080516020918201516004805460408e81015181517f055ef6ab0000000000000000000000000000000000000000000000000000000081529384018d9052602484018d9052604484018c9052606484018690526084840185905260ff1660a484015251939850919650600160a060020a039091169263055ef6ab9260c4808401938290030181600087803b158015613bda57600080fd5b505af1158015613bee573d6000803e3d6000fd5b505050506040513d6020811015613c0457600080fd5b5051600354604080517f41976e09000000000000000000000000000000000000000000000000000000008152600160a060020a038c811660048301529151939550613cae9391909216916341976e099160248083019260209291908290030181600087803b158015613c7557600080fd5b505af1158015613c89573d6000803e3d6000fd5b505050506040513d6020811015613c9f57600080fd5b5051889063ffffffff6148ee16565b6040805160c081018252428152600160a060020a039a8b166020808301918252828401948552606083019687526080830198895260a083019788529c516000190167ffffffffffffffff1660009081526007909d5291909b209a518b555160018b018054600160a060020a03191691909a16179098555095516002880155945160038701555160048601555050905160059092019190915550565b613dac82805480602002602001604051908101604052809291908181526020018280548015613da157602002820191906000526020600020905b8154600160a060020a03168152600190910190602001808311613d83575b505050505082614995565b15156114f8578154600181018355600083815260209020018054600160a060020a038316600160a060020a03199091161790555050565b600d546000908190808511801590606090849081908190613e02578599505b613e0a6135e4565b9350600092505b888a1015613f0d57613e2b60068b815481101515611a9557fe5b9150613ed460068b815481101515613e3f57fe5b60009182526020918290206040805160e081018252600593909302909101805467ffffffffffffffff81168452680100000000000000008104600160a060020a03169484019490945260e060020a90930460ff1690820152600182015463ffffffff16606082015260028201546080820152600382015460a082015260049091015460c08201528551869085908110611b6057fe5b9050848015613ee35750600081115b15613ef057899550600094505b613f00838263ffffffff6137c716565b6001909a01999250613e11565b8415613f17578995505b5090989397509295505050505050565b8151600090815b81811015613a6d57838582815181101515613f4557fe5b906020019060200201511415613f5e5760019250613a72565b600101613f2e565b8154600090815b81811015613fb55783600160a060020a03168582815481101515613f8d57fe5b600091825260209091200154600160a060020a03161415613fad57613fb5565b600101613f6d565b81811015613a6d5760001982018114613a53578460018303815481101515613fd957fe5b6000918252602090912001548554600160a060020a0390911690869083908110613fff57fe5b9060005260206000200160006101000a815481600160a060020a030219169083600160a060020a031602179055508454613a63866000198301614f87565b6140c2828054806020026020016040519081016040528092919081815260200182805480156140b757602002820191906000526020600020906000905b82829054906101000a900463ffffffff1663ffffffff168152602001906004019060208260030104928301926001038202915080841161407a5790505b5050505050826141fd565b15156114f8578154600181018355600092835260209092206008830401805460079093166004026101000a63ffffffff818102199094169290931692909202179055565b8154600090815b81811015614161578363ffffffff16858281548110151561412a57fe5b6000918252602090912060088204015460079091166004026101000a900463ffffffff16141561415957614161565b60010161410d565b81811015613a6d57600019820181146141ed57846001830381548110151561418557fe5b90600052602060002090600891828204019190066004029054906101000a900463ffffffff1685828154811015156141b957fe5b90600052602060002090600891828204019190066004026101000a81548163ffffffff021916908363ffffffff1602179055505b8454613a63866000198301614fb0565b8151600090815b81811015613a6d578363ffffffff16858281518110151561422157fe5b9060200190602002015163ffffffff1614156142405760019250613a72565b600101614204565b60608060006060600080600080601860008d81526020019081526020016000208054806020026020016040519081016040528092919081815260200182805480156142b257602002820191906000526020600020905b81548152602001906001019080831161429e575b50505050509650601760008d81526020019081526020016000205495506142dd8e8e8d898b8f6149e6565b94505b8c8e101561440857600680548f9081106142f657fe5b90600052602060002090600502019350858460020154108061431a57506004840154155b15614324576143fd565b60018401546143389063ffffffff166136fe565b9b506143708485600401548e8a511161435257600061436b565b898f81518110151561436057fe5b906020019060200201515b614b93565b92506143988485600401548b8f81518110151561438957fe5b90602001906020020151614bd6565b91508282146143fd575060008d815260076020526040902060018101546143c9908b90600160a060020a03166148a1565b9b506143d482614c18565b6143dd84614c18565b03858d8151811015156143ec57fe5b602090810290910101805190910190525b6001909d019c6142e0565b50929c9b505050505050505050505050565b61442482826141fd565b15156114f8576040805160e560020a62461bcd02815260206004820152601f60248201527f77686974654c6973743a207573696e6720696e76616c69642075696e74333200604482015290519081900360640190fd5b600160a060020a0381161515614500576040805160e560020a62461bcd02815260206004820152602660248201527f4f776e61626c653a206e6577206f776e657220697320746865207a65726f206160448201527f6464726573730000000000000000000000000000000000000000000000000000606482015290519081900360840190fd5b60008054604051600160a060020a03808516939216917f8be0079c531659141344cd1fd0a4f28419497f9722a3daafe3b4186f6b6457e091a360008054600160a060020a031916600160a060020a0392909216919091179055565b60008082858511156145ee5760405160e560020a62461bcd0281526004018080602001828103825283818151815260200191508051906020019080838360005b838110156145b357818101518382015260200161459b565b50505050905090810190601f1680156145e05780820380516001836020036101000a031916815260200191505b509250505060405180910390fd5b5050509103919050565b6060806000614605614ef4565b60008060008060008951604051908082528060200260200182016040528015614638578160200160208202803883390190505b5060165490985096505b8a8710156147c157600087815260116020526040908190208151808301928390529160029082845b81548152602001906001019080831161466a57505050505095508d86600060028110151561469457fe5b602002015110806146a6575085518d11155b156146b0576147b6565b85516006805490919081106146c157fe5b90600052602060002090600502019450846002015493508b8410806146e857506020860151155b156146f2576147b6565b85516000908152600760205260408120935061474190879060200201518d8560000154878960030154886003015489600401548a600501548d600001601c9054906101000a900460ff16614c91565b600384015490925061476d906132d0886001602002015160028701546126b2908763ffffffff6134b916565b6001840154909250614789908b90600160a060020a03166148a1565b905061479d8289838151811015156132f057fe5b88828151811015156147ab57fe5b602090810290910101525b600190960195614642565b50959c9b505050505050505050505050565b601454600090819081818711156147ef5786829350935061484e565b8196505b8587101561484757600680548890811061480957fe5b90600052602060002090600502019050848160020154108061482d57506004810154155b156148375761483c565b614847565b6001909601956147f3565b8687935093505b5050935093915050565b600080600061486e8c8c8c8c8c8c8c8c8c614c91565b915061487d8989888888614d77565b905080821161488d576000614891565b8082035b9c9b505050505050505050505050565b8151600090815b818110156134b15783600160a060020a031685828151811015156148c857fe5b90602001906020020151600160a060020a031614156148e6576134b1565b6001016148a8565b600061317683836040805190810160405280601a81526020017f536166654d6174683a206469766973696f6e206279207a65726f000000000000815250614e4c565b8151600090815b818110156134b1578363ffffffff16858281518110151561495457fe5b9060200190602002015163ffffffff16141561496f576134b1565b600101614937565b600060ff841615828411141561498e575081613176565b5080613176565b8151600090815b81811015613a6d5783600160a060020a031685828151811015156149bc57fe5b90602001906020020151600160a060020a031614156149de5760019250613a72565b60010161499c565b60608060006149f3614ef4565b6000806000808851604051908082528060200260200182016040528015614a24578160200160208202803883390190505b5060165490975095505b8b861015614b8157600086815260116020526040908190208151808301928390529160029082845b815481526020019060010190808311614a5657505050505094508d856000600281101515614a8057fe5b60200201511080614a92575084518d11155b15614a9c57614b76565b8451600680549091908110614aad57fe5b906000526020600020906005020193508a84600201541080614ad157506020850151155b15614adb57614b76565b6001840154614aef9063ffffffff166136fe565b9250614b1a848660016020020151858d5111614b0c57600061436b565b8c8681518110151561436057fe5b91508115614b765750835160009081526007602052604090206001810154614b4c908a90600160a060020a03166148a1565b9250614b5782614c18565b8784815181101515614b6557fe5b602090810290910101805190910190525b600190950194614a2e565b50949c9b505050505050505050505050565b6000601460010154845467ffffffffffffffff1611614bce57835460038501546134b19184916126b29160e060020a900460ff169087613484565b506000613176565b6000428460020154111580614be9575081155b15614bf657506000613176565b835460038501546134b19184916126b29160e060020a900460ff169087613484565b60007f7fffffffffffffffffffffffffffffffffffffffffffffffffffffffffffffff8211611921576040805160e560020a62461bcd02815260206004820152601b60248201527f536166654d6174683a20746f496e74323536206f766572666c6f770000000000604482015290519081900360640190fd5b6015546000908a101580614ca457508789105b15614cb0575083614d6a565b60048054604080517f055ef6ab000000000000000000000000000000000000000000000000000000008152928301899052602483018990528b8a036044840152606483018790526084830186905260ff851660a484015251600160a060020a039091169163055ef6ab9160c48083019260209291908290030181600087803b158015614d3b57600080fd5b505af1158015614d4f573d6000803e3d6000fd5b505050506040513d6020811015614d6557600080fd5b505190505b9998505050505050505050565b600042861115614e3f5760048054604080517f055ef6ab000000000000000000000000000000000000000000000000000000008152928301889052602483018890524289036044840152606483018790526084830186905260ff851660a484015251600160a060020a039091169163055ef6ab9160c48083019260209291908290030181600087803b158015614e0c57600080fd5b505af1158015614e20573d6000803e3d6000fd5b505050506040513d6020811015614e3657600080fd5b50519050614e43565b5060005b95945050505050565b60008082818511614ea25760405160e560020a62461bcd028152600401808060200182810382528381815181526020019150805190602001908083836000838110156145b357818101518382015260200161459b565b508385811515614eae57fe5b0495945050505050565b6040805160e081018252600080825260208201819052918101829052606081018290526080810182905260a0810182905260c081019190915290565b60408051808201825290600290829080388339509192915050565b8260028101928215614f3d579160200282015b82811115614f3d578251825591602001919060010190614f22565b50614f49929150614fe0565b5090565b828054828255906000526020600020908101928215614f3d5791602002820182811115614f3d578251825591602001919060010190614f22565b815481835581811115614fab57600083815260209020614fab918101908301614fe0565b505050565b815481835581811115614fab576007016008900481600701600890048360005260206000209182019101614fab91905b61148d91905b80821115614f495760008155600101614fe656004f776e61626c653a2063616c6c6572206973206e6f7420746865206f776e6572a165627a7a723058203388882417f1d85e3f440a5651d44ab4a871a090a9362c443bbeaba33ef23f1900294f776e61626c653a2063616c6c6572206973206e6f7420746865206f776e6572",
  "source": "pragma solidity ^0.4.26;\r\nimport \"./OptionsBase.sol\";\r\nimport \"./modules/tuple.sol\";\r\nimport \"./modules/Operator.sol\";\r\n\r\ncontract OptionsPool is OptionsBase,Operator {\r\n\r\n    //calculate options Collateral occupied phases\r\n    uint32 public optionPhase = 400;\r\n    uint256[3] internal optionPhaseInfo;    //firstOption,lastOption,lastBurn\r\n    mapping(uint256=>uint256) internal OptionsPhases;\r\n    //each burn options\r\n    mapping(uint256=>uint256[2]) internal burnedOptions;\r\n    uint256 internal burnedLength;\r\n    //calculate Options time shared value phases\r\n    uint32 public sharedPhase = 400;\r\n    uint256[3] internal optionPhaseInfo_Share;  //firstOption,lastOption,lastBurn\r\n    mapping (uint256 =>uint256) internal OptionsPhaseTimes;\r\n    mapping (uint256 =>uint256[]) internal OptionsPhasePrices;\r\n    //each block burn options\r\n\r\n    constructor (address oracleAddr,address optionsPriceAddr,address ivAddress) OptionsBase(oracleAddr,optionsPriceAddr,ivAddress) public{\r\n    }\r\n    function getOptionCalRangeAll()public view returns(uint256,uint256,uint256,uint256,uint256,uint256){\r\n        return (optionPhaseInfo[0],optionPhaseInfo[0],allOptions.length,burnedLength,block.number,now);\r\n    }\r\n    function getOptionPhaseCalRange()public view returns(uint256,uint256,uint256){\r\n        return (optionPhaseInfo[0],allOptions.length,burnedLength);\r\n    }\r\n    function getsharedPhaseCalRange()public view returns(uint256,uint256,uint256,uint256){\r\n        return (optionPhaseInfo_Share[0],allOptions.length,burnedLength,now);\r\n    }\r\n    function getsharedPhaseCalInfo(uint256 index)public view returns(uint256,uint256[]){\r\n        return (OptionsPhaseTimes[index],OptionsPhasePrices[index]);\r\n    }\r\n    //index,lastOption,lastBurned\r\n    function setPhaseOccupiedCollateral(uint256 calInfo) public onlyOperatorIndex(0) {\r\n        (uint256 totalOccupied,uint256 beginOption,bool success) = calculatePhaseOccupiedCollateral(calInfo);\r\n        if (success){\r\n            setCollateralPhase(calInfo,totalOccupied,beginOption);\r\n        }\r\n    }\r\n    function setCollateralPhase(uint256 calInfo,uint256 totalOccupied,uint256 beginOption) public onlyOperatorIndex(0){\r\n        if (beginOption > optionPhaseInfo[0]){\r\n            optionPhaseInfo[0] = beginOption;\r\n        }\r\n        if (tuple64.getValue0(calInfo)*optionPhase+optionPhase > tuple64.getValue1(calInfo)){\r\n            optionPhaseInfo[1] = tuple64.getValue1(calInfo);\r\n            optionPhaseInfo[2] = tuple64.getValue2(calInfo);\r\n        }\r\n        OptionsPhases[tuple64.getValue0(calInfo)] = totalOccupied;\r\n    }\r\n    function calculatePhaseOccupiedCollateral(uint256 calInfo) public view returns(uint256,uint256,bool){\r\n        uint256 beginOption = tuple64.getValue0(calInfo).mul(optionPhase);\r\n        if (beginOption>=tuple64.getValue1(calInfo)){\r\n            return (0,0,false);\r\n        }\r\n        uint256 endOption = beginOption.add(optionPhase);\r\n        if (endOption>tuple64.getValue1(calInfo)) {\r\n            endOption = tuple64.getValue1(calInfo);\r\n        }else if(endOption < optionPhaseInfo[0]){\r\n            return (0,0,false);\r\n        }\r\n        (uint256 totalOccupied,uint256 newFirstOption) = _calculateOccupiedCollateral(beginOption,endOption);\r\n        return (totalOccupied,newFirstOption,true);\r\n    }\r\n    function _calculateOccupiedCollateral(uint256 begin,uint256 end)internal view returns(uint256,uint256){\r\n        uint256 newFirstOption = optionPhaseInfo[0];\r\n        bool bfirstPhase = begin <= newFirstOption;\r\n        if (bfirstPhase) {\r\n            begin = newFirstOption;\r\n        }\r\n        uint256[] memory prices = getUnderlyingPrices();\r\n        uint256 totalOccupied = 0;\r\n        for (;begin<end;begin++){\r\n            uint256 index = _getEligibleUnderlyingIndex(allOptions[begin].underlying);\r\n            uint256 value = calOptionsCollateral(allOptions[begin],prices[index]);\r\n            if (bfirstPhase && value > 0){\r\n                newFirstOption = begin;\r\n                bfirstPhase = false;\r\n            }\r\n            totalOccupied = totalOccupied.add(value);\r\n        }\r\n        //all options in this phase are empty;\r\n        if (bfirstPhase){\r\n            newFirstOption = begin;\r\n        }\r\n        return (totalOccupied,newFirstOption);\r\n    }\r\n    function setSharedState(uint256 calInfo,uint256 firstOption,uint256[] prices,uint256 calTime) public onlyManager{\r\n        if (firstOption > optionPhaseInfo_Share[0]){\r\n            optionPhaseInfo_Share[0] = firstOption;\r\n        }\r\n        if (tuple64.getValue0(calInfo)*sharedPhase+sharedPhase > tuple64.getValue1(calInfo)){\r\n            optionPhaseInfo_Share[1] = tuple64.getValue1(calInfo);\r\n            optionPhaseInfo_Share[2] = tuple64.getValue2(calInfo);\r\n        }\r\n        OptionsPhaseTimes[tuple64.getValue0(calInfo)] = calTime;\r\n        OptionsPhasePrices[tuple64.getValue0(calInfo)] = prices;\r\n    }\r\n    function calculatePhaseSharedPayment(uint256 calInfo,address[] memory whiteList)\r\n        public view returns(uint256[],uint256,bool){\r\n        uint256 beginOption = tuple64.getValue0(calInfo).mul(sharedPhase);\r\n        return calRangeSharedPayment(calInfo,beginOption,beginOption.add(sharedPhase),whiteList);\r\n    }\r\n    function calRangeSharedPayment(uint256 calInfo,uint256 begin,uint256 end,address[] memory whiteList)\r\n            public view returns(uint256[],uint256,bool){\r\n        if (begin>=tuple64.getValue1(calInfo) || end < optionPhaseInfo_Share[0]){\r\n            return(sharedBalances,0,false);\r\n        }\r\n        if (end>tuple64.getValue1(calInfo)) {\r\n            end = tuple64.getValue1(calInfo);\r\n        }\r\n        (uint256[] memory sharedBalances,uint256 _firstOption) = \r\n            _calculateSharedPayment(begin,end,OptionsPhaseTimes[tuple64.getValue0(calInfo)],tuple64.getValue2(calInfo),whiteList);\r\n        return (sharedBalances,_firstOption,true);\r\n    }\r\n    function _calculateSharedPayment(uint256 begin,uint256 end,uint256 preTime,uint256 lastburn,address[] memory whiteList)\r\n            internal view returns(uint256[],uint256){\r\n        uint256 newFirstOption;\r\n        uint256[] memory totalSharedPayment = _calBurnedSharePrice(begin,end,preTime,lastburn,whiteList);\r\n        (begin,newFirstOption) = getSharedFirstOption(begin,end,preTime); \r\n        for (;begin<end;begin++){\r\n            OptionsInfo storage info = allOptions[begin];\r\n            uint256 tempValue = info.expiration;\r\n            if(tempValue<preTime || info.amount == 0){\r\n                continue;\r\n            }\r\n            OptionsInfoEx storage optionEx = optionExtraMap[begin];\r\n            uint256 timeValue = _calculateTimePrice(begin,preTime,optionEx.createdTime,tempValue,info.strikePrice,\r\n                    optionEx.fullPrice,optionEx.ivNumerator,optionEx.ivDenominator,info.optType);\r\n            if (timeValue>0){\r\n                tempValue = whiteListAddress._getEligibleIndexAddress(whiteList,optionEx.settlement);\r\n                timeValue = optionEx.tokenTimePrice.mul(timeValue).mul(info.amount).div(optionEx.fullPrice);\r\n                totalSharedPayment[tempValue] = totalSharedPayment[tempValue].add(timeValue);\r\n            }\r\n        }\r\n        //burned\r\n        return (totalSharedPayment,newFirstOption);\r\n    }\r\n    function getSharedFirstOption(uint256 begin,uint256 end,uint256 preTime) internal view returns(uint256,uint256){\r\n        uint256 newFirstOption = optionPhaseInfo_Share[0];\r\n        if (begin > newFirstOption){\r\n            return (begin,newFirstOption);\r\n        }\r\n        begin = newFirstOption;\r\n        for (;begin<end;begin++){\r\n            OptionsInfo storage info = allOptions[begin];\r\n            if(info.expiration<preTime || info.amount == 0){\r\n                continue;\r\n            }\r\n            break;\r\n        }\r\n        return (begin,begin);\r\n    }\r\n    function _calBurnedSharePrice(uint256 beginIndex,uint256 endIndex,uint256 preTime,uint256 lastburn,\r\n            address[] memory whiteList)internal view returns(uint256[]){\r\n        uint256[] memory totalSharedPayment = new uint256[](whiteList.length);\r\n        for (uint256 i = optionPhaseInfo_Share[2];i<lastburn;i++){\r\n            uint256[2] memory burnInfo = burnedOptions[i];\r\n            if(burnInfo[0]<beginIndex || burnInfo[0] >=endIndex){\r\n                continue;\r\n            }\r\n            OptionsInfo storage info = allOptions[burnInfo[0]];\r\n            uint256 expiration = info.expiration;\r\n            if(expiration<preTime || burnInfo[1] == 0){\r\n                continue;\r\n            }\r\n            OptionsInfoEx storage optionEx = optionExtraMap[burnInfo[0]];\r\n            uint256 preValue = _calculatePrePrice(burnInfo[0],preTime,optionEx.createdTime,expiration,\r\n                    info.strikePrice,optionEx.fullPrice,optionEx.ivNumerator,optionEx.ivDenominator,info.optType);\r\n            preValue = optionEx.tokenTimePrice.mul(preValue).mul(burnInfo[1]).div(optionEx.fullPrice);\r\n            uint256 index = whiteListAddress._getEligibleIndexAddress(whiteList,optionEx.settlement);\r\n            totalSharedPayment[index] = totalSharedPayment[index].add(preValue);\r\n        }     \r\n        return totalSharedPayment;\r\n    }\r\n\r\n    function _calculateTimePrice(uint256 index,uint256 preTime,uint256 createdTime,uint256 expiration,\r\n            uint256 strikePrice,uint256 fullPrice,uint256 ivNumerator,uint256 ivDenominator,uint8 optType)internal view returns (uint256){\r\n        uint256 preValue = _calculatePrePrice(index,preTime,createdTime,expiration,strikePrice,fullPrice,ivNumerator,\r\n            ivDenominator,optType);\r\n        uint256 nowValue = _calculateCurrentPrice(expiration,strikePrice,ivNumerator,\r\n            ivDenominator,optType);\r\n        return (preValue>nowValue)? preValue-nowValue : 0;\r\n    }\r\n    function _calculatePrePrice(uint256 index,uint256 preTime,uint256 createdTime,uint256 expiration,uint256 strikePrice,\r\n            uint256 fullPrice,uint256 ivNumerator,uint256 ivDenominator,uint8 optType)internal view returns (uint256){\r\n        if (index>=optionPhaseInfo_Share[1] || preTime<createdTime){\r\n            return fullPrice;\r\n        }else{\r\n            return _optionsPrice.getOptionsPrice_iv(strikePrice,strikePrice,expiration-preTime,ivNumerator,\r\n                ivDenominator,optType);\r\n        }\r\n    }\r\n    function _calculateCurrentPrice(uint256 expiration,uint256 strikePrice,uint256 ivNumerator,uint256 ivDenominator,uint8 optType)internal view returns (uint256){\r\n        if (expiration > now){\r\n            return _optionsPrice.getOptionsPrice_iv(strikePrice,strikePrice,expiration-now,ivNumerator,\r\n                ivDenominator,optType);\r\n        }\r\n        return 0;\r\n    }\r\n    function calculatePhaseOptionsFall(uint256 calInfo,address[] memory whiteList) public view returns(int256[],uint256[]){\r\n        uint256 begin = tuple64.getValue0(calInfo).mul(sharedPhase);\r\n        uint256 end = begin.add(sharedPhase);\r\n        if (begin>=tuple64.getValue1(calInfo) || end < optionPhaseInfo_Share[0]){\r\n            return;\r\n        }\r\n        if (end>tuple64.getValue1(calInfo)) {\r\n            end = tuple64.getValue1(calInfo);\r\n        }\r\n        if (begin <= optionPhaseInfo_Share[0]) {\r\n            begin = optionPhaseInfo_Share[0];\r\n        }\r\n        uint256[] memory prices = getUnderlyingPrices();\r\n        int256[] memory OptionsFallBalances = _calRangeOptionsFall(begin,end,tuple64.getValue0(calInfo),tuple64.getValue2(calInfo),whiteList,prices);\r\n        uint256 whiteListLen = whiteList.length;\r\n        for (uint256 index = 0;index<whiteListLen;index++){\r\n            OptionsFallBalances[index] = OptionsFallBalances[index]/(int256(_oracle.getPrice(whiteList[index])));\r\n        }\r\n        return (OptionsFallBalances,prices);\r\n    }\r\n    function _calRangeOptionsFall(uint256 begin,uint256 lastOption,uint256 index,uint256 lastburn,address[] memory whiteList,uint256[] memory prices)\r\n                 internal view returns(int256[] memory){\r\n        uint256[] memory lastPrice = OptionsPhasePrices[index];\r\n        uint256 preTime = OptionsPhaseTimes[index];\r\n        int256[] memory OptionsFallBalances = _calBurnedOptionsFall(begin,lastOption,lastburn,preTime,lastPrice,whiteList);\r\n        for (;begin<lastOption;begin++){\r\n            OptionsInfo storage info = allOptions[begin];\r\n            if(info.expiration<preTime || info.amount == 0){\r\n                continue;\r\n            }\r\n            index = _getEligibleUnderlyingIndex(info.underlying);\r\n            uint256 preValue = _calPretimeCallateralFall(info,info.amount,lastPrice.length>index?lastPrice[index] : 0);\r\n            uint256 curValue = _calCurtimeCallateralFall(info,info.amount,prices[index]);\r\n            if (preValue != curValue){\r\n                OptionsInfoEx storage optionEx = optionExtraMap[begin];\r\n                index = whiteListAddress._getEligibleIndexAddress(whiteList,optionEx.settlement);\r\n                OptionsFallBalances[index] += SafeMath.toInt256(preValue) - SafeMath.toInt256(curValue);\r\n            }\r\n        }\r\n        return OptionsFallBalances;\r\n    }\r\n    function _calBurnedOptionsFall(uint256 beginIndex,uint256 endIndex,uint256 lastburn,uint256 preTime,\r\n                uint256[] memory lastPrice,address[] memory whiteList)\r\n                internal view returns(int256[] memory){\r\n        int256[] memory OptionsFallBalances = new int256[](whiteList.length);\r\n        for (uint256 i = optionPhaseInfo_Share[2];i<lastburn;i++){\r\n            uint256[2] memory burnInfo = burnedOptions[i];\r\n            if(burnInfo[0]<beginIndex || burnInfo[0] >=endIndex){\r\n                continue;\r\n            }\r\n            OptionsInfo storage info = allOptions[burnInfo[0]];\r\n            if(info.expiration<preTime || burnInfo[1] == 0){\r\n                continue;\r\n            }\r\n            uint256 index = _getEligibleUnderlyingIndex(info.underlying);\r\n            uint256 preValue = _calPretimeCallateralFall(info,burnInfo[1],lastPrice.length>index?lastPrice[index] : 0);\r\n            if (preValue != 0){\r\n                OptionsInfoEx storage optionEx = optionExtraMap[burnInfo[0]];\r\n                index = whiteListAddress._getEligibleIndexAddress(whiteList,optionEx.settlement);\r\n                OptionsFallBalances[index] += SafeMath.toInt256(preValue);\r\n            }\r\n        }     \r\n        return OptionsFallBalances;\r\n    }\r\n    function _calPretimeCallateralFall(OptionsInfo storage info,uint256 prePrice,uint256 amount) internal view returns(uint256){\r\n        if(info.optionID<=optionPhaseInfo_Share[1]){\r\n            return _getOptionsPayback(info.optType,info.strikePrice,prePrice).mul(amount);\r\n        }else{\r\n            return 0;\r\n        }\r\n    }\r\n    function _calCurtimeCallateralFall(OptionsInfo storage info,uint256 curPrice,uint256 amount) internal view returns(uint256){\r\n        if (info.expiration<=now || amount == 0){\r\n            return 0;\r\n        }\r\n        return _getOptionsPayback(info.optType,info.strikePrice,curPrice).mul(amount);\r\n    }\r\n    function getTotalOccupiedCollateral() public view returns (uint256) {\r\n        uint256 totalOccupied = sumOptionPhases();\r\n        uint256[] memory prices = getUnderlyingPrices();\r\n        uint optionsLen = allOptions.length;\r\n        for (uint256 beginOption = optionPhaseInfo[1]; beginOption < optionsLen;beginOption++){\r\n            uint256 index = _getEligibleUnderlyingIndex(allOptions[beginOption].underlying);\r\n            totalOccupied = totalOccupied.add(calOptionsCollateral(allOptions[beginOption],prices[index]));\r\n        }\r\n        uint burnedLen = burnedLength;\r\n        for (uint256 i = optionPhaseInfo[2];i<burnedLen;i++){\r\n            uint256[2] memory burnInfo = burnedOptions[i];\r\n            uint optionId = burnInfo[0];\r\n            if (optionId<optionPhaseInfo[1]){\r\n                index = _getEligibleUnderlyingIndex(allOptions[optionId].underlying);\r\n                totalOccupied = totalOccupied.sub(calBurnedOptionsCollateral(allOptions[optionId],\r\n                    burnInfo[1],prices[index]));\r\n            }\r\n        }\r\n        return totalOccupied;\r\n    }\r\n    function calBurnedOptionsCollateral(OptionsInfo memory option,uint256 burned,uint256 underlyingPrice)internal view returns(uint256){\r\n        if (option.expiration<=now){\r\n            return 0;\r\n        }        \r\n        return _getOptionsWorth(option.optType,option.strikePrice,underlyingPrice).mul(burned);\r\n    }\r\n    function sumOptionPhases()internal view returns(uint256){\r\n        uint256 totalOccupied = 0;\r\n        uint256 i = optionPhaseInfo[0]/optionPhase;\r\n        uint256 phaseLen = optionPhaseInfo[1]/optionPhase+1;\r\n        for (;i<phaseLen;i++){\r\n            totalOccupied = totalOccupied.add(OptionsPhases[i]);\r\n        }\r\n        return totalOccupied;\r\n    }\r\n    function calOptionsCollateral(OptionsInfo memory option,uint256 underlyingPrice)internal view returns(uint256){\r\n        if (option.expiration<=now || option.amount == 0){\r\n            return 0;\r\n        }\r\n        uint256 totalOccupied = _getOptionsWorth(option.optType,option.strikePrice,underlyingPrice).mul(option.amount);\r\n        return totalOccupied;\r\n    }\r\n    function burnOptions(address from,uint256 id,uint256 amount)public onlyManager{\r\n        OptionsInfo storage info = _getOptionsById(id);\r\n        checkEligible(info);\r\n        checkBurnable(info.optionID);\r\n        checkOwner(info,from);\r\n        checkSufficient(info,amount);\r\n        info.amount = info.amount.sub(amount);\r\n        burnedOptions[burnedLength] = [id-1,amount];\r\n        burnedLength++;\r\n        emit BurnOption(from,id,amount);\r\n    }\r\n}",
  "sourcePath": "C:\\work\\solidity\\FinnexusOptions_V2\\contracts\\OptionsPool.sol",
  "compiler": {
    "name": "solc",
    "version": "0.4.26+commit.4563c3fc.Emscripten.clang"
  },
  "schemaVersion": "3.1.0",
  "updatedAt": "2020-07-30T11:11:17.402Z",
  "devdoc": {
    "methods": {
      "addExpiration(uint256)": {
        "details": "Implementation of add an eligible expiration into the expirationList.\r",
        "params": {
          "expiration": "new eligible expiration.\r"
        }
      },
      "addUnderlyingAsset(uint32)": {
        "details": "Implementation of add an eligible underlying into the underlyingAssets.\r",
        "params": {
          "underlying": "new eligible underlying.\r"
        }
      },
      "getExpirationList()": {
        "details": "Implementation of getting the eligible expirationList.\r"
      },
      "getUnderlyingAssets()": {
        "details": "Implementation of getting the eligible underlyingAssets.\r"
      },
      "isEligibleExpiration(uint256)": {
        "details": "Implementation of testing whether the input expiration is eligible.\r",
        "params": {
          "expiration": "input expiration for testing.\r"
        }
      },
      "isEligibleUnderlyingAsset(uint32)": {
        "details": "Implementation of testing whether the input underlying is eligible.\r",
        "params": {
          "underlying": "input underlying for testing.\r"
        }
      },
      "isOwner()": {
        "details": "Returns true if the caller is the current owner."
      },
      "owner()": {
        "details": "Returns the address of the current owner."
      },
      "removeExpirationList(uint256)": {
        "details": "Implementation of revoke an invalid expiration from the expirationList.\r",
        "params": {
          "removeExpiration": "revoked expiration.\r"
        }
      },
      "removeUnderlyingAssets(uint32)": {
        "details": "Implementation of revoke an invalid underlying from the underlyingAssets.\r",
        "params": {
          "removeUnderlying": "revoked underlying.\r"
        }
      },
      "renounceOwnership()": {
        "details": "Leaves the contract without owner. It will not be possible to call `onlyOwner` functions anymore. Can only be called by the current owner.     * NOTE: Renouncing ownership will leave the contract without an owner, thereby removing any functionality that is only available to the owner."
      },
      "transferOwnership(address)": {
        "details": "Transfers ownership of the contract to a new account (`newOwner`). Can only be called by the current owner."
      }
    }
  },
  "userdoc": {
    "methods": {
      "setManager(address)": {
        "notice": "contribution period to stop or not."
      }
    }
  }
}