{
  "contractName": "OptionsMangerV2",
  "abi": [
    {
      "constant": true,
      "inputs": [],
      "name": "name",
      "outputs": [
        {
          "name": "",
          "type": "string"
        }
      ],
      "payable": false,
      "stateMutability": "view",
      "type": "function"
    },
    {
      "constant": false,
      "inputs": [
        {
          "name": "spender",
          "type": "address"
        },
        {
          "name": "amount",
          "type": "uint256"
        }
      ],
      "name": "approve",
      "outputs": [
        {
          "name": "",
          "type": "bool"
        }
      ],
      "payable": false,
      "stateMutability": "nonpayable",
      "type": "function"
    },
    {
      "constant": true,
      "inputs": [],
      "name": "getWhiteList",
      "outputs": [
        {
          "name": "",
          "type": "address[]"
        }
      ],
      "payable": false,
      "stateMutability": "view",
      "type": "function"
    },
    {
      "constant": true,
      "inputs": [],
      "name": "getLeftCollateral",
      "outputs": [
        {
          "name": "",
          "type": "uint256"
        }
      ],
      "payable": false,
      "stateMutability": "view",
      "type": "function"
    },
    {
      "constant": true,
      "inputs": [
        {
          "name": "",
          "type": "address"
        }
      ],
      "name": "netWorthBalances",
      "outputs": [
        {
          "name": "",
          "type": "uint256"
        }
      ],
      "payable": false,
      "stateMutability": "view",
      "type": "function"
    },
    {
      "constant": true,
      "inputs": [],
      "name": "totalSupply",
      "outputs": [
        {
          "name": "",
          "type": "uint256"
        }
      ],
      "payable": false,
      "stateMutability": "view",
      "type": "function"
    },
    {
      "constant": false,
      "inputs": [
        {
          "name": "optionsPool",
          "type": "address"
        }
      ],
      "name": "setOptionsPoolAddress",
      "outputs": [],
      "payable": false,
      "stateMutability": "nonpayable",
      "type": "function"
    },
    {
      "constant": false,
      "inputs": [
        {
          "name": "removeAddress",
          "type": "address"
        }
      ],
      "name": "removeWhiteList",
      "outputs": [
        {
          "name": "",
          "type": "bool"
        }
      ],
      "payable": false,
      "stateMutability": "nonpayable",
      "type": "function"
    },
    {
      "constant": false,
      "inputs": [
        {
          "name": "sender",
          "type": "address"
        },
        {
          "name": "recipient",
          "type": "address"
        },
        {
          "name": "amount",
          "type": "uint256"
        }
      ],
      "name": "transferFrom",
      "outputs": [
        {
          "name": "",
          "type": "bool"
        }
      ],
      "payable": false,
      "stateMutability": "nonpayable",
      "type": "function"
    },
    {
      "constant": true,
      "inputs": [
        {
          "name": "",
          "type": "address"
        }
      ],
      "name": "collateralBalances",
      "outputs": [
        {
          "name": "",
          "type": "uint256"
        }
      ],
      "payable": false,
      "stateMutability": "view",
      "type": "function"
    },
    {
      "constant": false,
      "inputs": [],
      "name": "redeemAll",
      "outputs": [],
      "payable": false,
      "stateMutability": "nonpayable",
      "type": "function"
    },
    {
      "constant": true,
      "inputs": [],
      "name": "decimals",
      "outputs": [
        {
          "name": "",
          "type": "uint8"
        }
      ],
      "payable": false,
      "stateMutability": "view",
      "type": "function"
    },
    {
      "constant": true,
      "inputs": [
        {
          "name": "feeType",
          "type": "uint256"
        },
        {
          "name": "amount",
          "type": "uint256"
        }
      ],
      "name": "calculateFee",
      "outputs": [
        {
          "name": "",
          "type": "uint256"
        }
      ],
      "payable": false,
      "stateMutability": "view",
      "type": "function"
    },
    {
      "constant": false,
      "inputs": [
        {
          "name": "spender",
          "type": "address"
        },
        {
          "name": "addedValue",
          "type": "uint256"
        }
      ],
      "name": "increaseAllowance",
      "outputs": [
        {
          "name": "",
          "type": "bool"
        }
      ],
      "payable": false,
      "stateMutability": "nonpayable",
      "type": "function"
    },
    {
      "constant": false,
      "inputs": [
        {
          "name": "oracle",
          "type": "address"
        }
      ],
      "name": "setOracleAddress",
      "outputs": [],
      "payable": false,
      "stateMutability": "nonpayable",
      "type": "function"
    },
    {
      "constant": true,
      "inputs": [
        {
          "name": "",
          "type": "address"
        }
      ],
      "name": "feeBalances",
      "outputs": [
        {
          "name": "",
          "type": "uint256"
        }
      ],
      "payable": false,
      "stateMutability": "view",
      "type": "function"
    },
    {
      "constant": true,
      "inputs": [],
      "name": "collateralRate",
      "outputs": [
        {
          "name": "numerator",
          "type": "uint256"
        },
        {
          "name": "denominator",
          "type": "uint256"
        }
      ],
      "payable": false,
      "stateMutability": "view",
      "type": "function"
    },
    {
      "constant": true,
      "inputs": [
        {
          "name": "",
          "type": "uint256"
        }
      ],
      "name": "whiteList",
      "outputs": [
        {
          "name": "",
          "type": "address"
        }
      ],
      "payable": false,
      "stateMutability": "view",
      "type": "function"
    },
    {
      "constant": true,
      "inputs": [],
      "name": "getOptionsPriceAddress",
      "outputs": [
        {
          "name": "",
          "type": "address"
        }
      ],
      "payable": false,
      "stateMutability": "view",
      "type": "function"
    },
    {
      "constant": false,
      "inputs": [
        {
          "name": "collateral",
          "type": "address"
        },
        {
          "name": "amount",
          "type": "uint256"
        }
      ],
      "name": "addCollateral",
      "outputs": [],
      "payable": true,
      "stateMutability": "payable",
      "type": "function"
    },
    {
      "constant": true,
      "inputs": [
        {
          "name": "account",
          "type": "address"
        }
      ],
      "name": "balanceOf",
      "outputs": [
        {
          "name": "",
          "type": "uint256"
        }
      ],
      "payable": false,
      "stateMutability": "view",
      "type": "function"
    },
    {
      "constant": false,
      "inputs": [],
      "name": "renounceOwnership",
      "outputs": [],
      "payable": false,
      "stateMutability": "nonpayable",
      "type": "function"
    },
    {
      "constant": true,
      "inputs": [
        {
          "name": "tmpAddress",
          "type": "address"
        }
      ],
      "name": "isEligibleAddress",
      "outputs": [
        {
          "name": "",
          "type": "bool"
        }
      ],
      "payable": false,
      "stateMutability": "view",
      "type": "function"
    },
    {
      "constant": true,
      "inputs": [],
      "name": "owner",
      "outputs": [
        {
          "name": "",
          "type": "address"
        }
      ],
      "payable": false,
      "stateMutability": "view",
      "type": "function"
    },
    {
      "constant": true,
      "inputs": [],
      "name": "isOwner",
      "outputs": [
        {
          "name": "",
          "type": "bool"
        }
      ],
      "payable": false,
      "stateMutability": "view",
      "type": "function"
    },
    {
      "constant": false,
      "inputs": [
        {
          "name": "currency",
          "type": "address"
        }
      ],
      "name": "redeem",
      "outputs": [],
      "payable": false,
      "stateMutability": "nonpayable",
      "type": "function"
    },
    {
      "constant": true,
      "inputs": [],
      "name": "symbol",
      "outputs": [
        {
          "name": "",
          "type": "string"
        }
      ],
      "payable": false,
      "stateMutability": "view",
      "type": "function"
    },
    {
      "constant": false,
      "inputs": [
        {
          "name": "index",
          "type": "uint256"
        }
      ],
      "name": "setPhaseSharedPayment",
      "outputs": [],
      "payable": false,
      "stateMutability": "nonpayable",
      "type": "function"
    },
    {
      "constant": false,
      "inputs": [
        {
          "name": "optionsPrice",
          "type": "address"
        }
      ],
      "name": "setOptionsPriceAddress",
      "outputs": [],
      "payable": false,
      "stateMutability": "nonpayable",
      "type": "function"
    },
    {
      "constant": false,
      "inputs": [
        {
          "name": "tokenAmount",
          "type": "uint256"
        },
        {
          "name": "collateral",
          "type": "address"
        }
      ],
      "name": "redeemCollateral",
      "outputs": [],
      "payable": false,
      "stateMutability": "nonpayable",
      "type": "function"
    },
    {
      "constant": false,
      "inputs": [
        {
          "name": "spender",
          "type": "address"
        },
        {
          "name": "subtractedValue",
          "type": "uint256"
        }
      ],
      "name": "decreaseAllowance",
      "outputs": [
        {
          "name": "",
          "type": "bool"
        }
      ],
      "payable": false,
      "stateMutability": "nonpayable",
      "type": "function"
    },
    {
      "constant": false,
      "inputs": [
        {
          "name": "index",
          "type": "uint256"
        },
        {
          "name": "sharedBalances",
          "type": "uint256[]"
        },
        {
          "name": "lastBlock",
          "type": "uint256"
        },
        {
          "name": "calTime",
          "type": "uint256"
        }
      ],
      "name": "setSharedPayment",
      "outputs": [],
      "payable": false,
      "stateMutability": "nonpayable",
      "type": "function"
    },
    {
      "constant": false,
      "inputs": [
        {
          "name": "recipient",
          "type": "address"
        },
        {
          "name": "amount",
          "type": "uint256"
        }
      ],
      "name": "transfer",
      "outputs": [
        {
          "name": "",
          "type": "bool"
        }
      ],
      "payable": false,
      "stateMutability": "nonpayable",
      "type": "function"
    },
    {
      "constant": true,
      "inputs": [],
      "name": "getOracleAddress",
      "outputs": [
        {
          "name": "",
          "type": "address"
        }
      ],
      "payable": false,
      "stateMutability": "view",
      "type": "function"
    },
    {
      "constant": true,
      "inputs": [
        {
          "name": "",
          "type": "address"
        },
        {
          "name": "",
          "type": "address"
        }
      ],
      "name": "userInputCollateral",
      "outputs": [
        {
          "name": "",
          "type": "uint256"
        }
      ],
      "payable": false,
      "stateMutability": "view",
      "type": "function"
    },
    {
      "constant": true,
      "inputs": [],
      "name": "halted",
      "outputs": [
        {
          "name": "",
          "type": "bool"
        }
      ],
      "payable": false,
      "stateMutability": "view",
      "type": "function"
    },
    {
      "constant": false,
      "inputs": [
        {
          "name": "feeType",
          "type": "uint256"
        },
        {
          "name": "numerator",
          "type": "uint256"
        },
        {
          "name": "denominator",
          "type": "uint256"
        }
      ],
      "name": "setTransactionFee",
      "outputs": [],
      "payable": false,
      "stateMutability": "nonpayable",
      "type": "function"
    },
    {
      "constant": true,
      "inputs": [],
      "name": "getOptionsPoolAddress",
      "outputs": [
        {
          "name": "",
          "type": "address"
        }
      ],
      "payable": false,
      "stateMutability": "view",
      "type": "function"
    },
    {
      "constant": true,
      "inputs": [],
      "name": "getTokenNetworth",
      "outputs": [
        {
          "name": "",
          "type": "uint256"
        }
      ],
      "payable": false,
      "stateMutability": "view",
      "type": "function"
    },
    {
      "constant": true,
      "inputs": [
        {
          "name": "settlement",
          "type": "address"
        }
      ],
      "name": "getFeeBalance",
      "outputs": [
        {
          "name": "",
          "type": "uint256"
        }
      ],
      "payable": false,
      "stateMutability": "view",
      "type": "function"
    },
    {
      "constant": true,
      "inputs": [],
      "name": "getOccupiedCollateral",
      "outputs": [
        {
          "name": "",
          "type": "uint256"
        }
      ],
      "payable": false,
      "stateMutability": "view",
      "type": "function"
    },
    {
      "constant": true,
      "inputs": [
        {
          "name": "feeType",
          "type": "uint256"
        }
      ],
      "name": "getFeeRate",
      "outputs": [
        {
          "name": "",
          "type": "uint256"
        },
        {
          "name": "",
          "type": "uint256"
        }
      ],
      "payable": false,
      "stateMutability": "view",
      "type": "function"
    },
    {
      "constant": true,
      "inputs": [],
      "name": "getTotalCollateral",
      "outputs": [
        {
          "name": "",
          "type": "uint256"
        }
      ],
      "payable": false,
      "stateMutability": "view",
      "type": "function"
    },
    {
      "constant": true,
      "inputs": [
        {
          "name": "owner",
          "type": "address"
        },
        {
          "name": "spender",
          "type": "address"
        }
      ],
      "name": "allowance",
      "outputs": [
        {
          "name": "",
          "type": "uint256"
        }
      ],
      "payable": false,
      "stateMutability": "view",
      "type": "function"
    },
    {
      "constant": true,
      "inputs": [
        {
          "name": "",
          "type": "address"
        }
      ],
      "name": "userCollateralPaying",
      "outputs": [
        {
          "name": "",
          "type": "uint256"
        }
      ],
      "payable": false,
      "stateMutability": "view",
      "type": "function"
    },
    {
      "constant": true,
      "inputs": [
        {
          "name": "",
          "type": "uint256"
        }
      ],
      "name": "FeeRates",
      "outputs": [
        {
          "name": "numerator",
          "type": "uint256"
        },
        {
          "name": "denominator",
          "type": "uint256"
        }
      ],
      "payable": false,
      "stateMutability": "view",
      "type": "function"
    },
    {
      "constant": false,
      "inputs": [
        {
          "name": "addAddress",
          "type": "address"
        }
      ],
      "name": "addWhiteList",
      "outputs": [],
      "payable": false,
      "stateMutability": "nonpayable",
      "type": "function"
    },
    {
      "constant": true,
      "inputs": [],
      "name": "getAllFeeBalances",
      "outputs": [
        {
          "name": "",
          "type": "address[]"
        },
        {
          "name": "",
          "type": "uint256[]"
        }
      ],
      "payable": false,
      "stateMutability": "view",
      "type": "function"
    },
    {
      "constant": false,
      "inputs": [
        {
          "name": "newOwner",
          "type": "address"
        }
      ],
      "name": "transferOwnership",
      "outputs": [],
      "payable": false,
      "stateMutability": "nonpayable",
      "type": "function"
    },
    {
      "constant": false,
      "inputs": [
        {
          "name": "halt",
          "type": "bool"
        }
      ],
      "name": "setHalt",
      "outputs": [],
      "payable": false,
      "stateMutability": "nonpayable",
      "type": "function"
    },
    {
      "constant": true,
      "inputs": [
        {
          "name": "tmpAddress",
          "type": "address"
        }
      ],
      "name": "checkEligibleAddress",
      "outputs": [],
      "payable": false,
      "stateMutability": "view",
      "type": "function"
    },
    {
      "anonymous": false,
      "inputs": [
        {
          "indexed": true,
          "name": "value1",
          "type": "uint256"
        },
        {
          "indexed": true,
          "name": "value2",
          "type": "uint256"
        },
        {
          "indexed": true,
          "name": "value3",
          "type": "uint256"
        }
      ],
      "name": "DebugEvent",
      "type": "event"
    },
    {
      "anonymous": false,
      "inputs": [
        {
          "indexed": true,
          "name": "from",
          "type": "address"
        },
        {
          "indexed": true,
          "name": "to",
          "type": "address"
        },
        {
          "indexed": false,
          "name": "value",
          "type": "uint256"
        }
      ],
      "name": "Transfer",
      "type": "event"
    },
    {
      "anonymous": false,
      "inputs": [
        {
          "indexed": true,
          "name": "owner",
          "type": "address"
        },
        {
          "indexed": true,
          "name": "spender",
          "type": "address"
        },
        {
          "indexed": false,
          "name": "value",
          "type": "uint256"
        }
      ],
      "name": "Approval",
      "type": "event"
    },
    {
      "anonymous": false,
      "inputs": [
        {
          "indexed": true,
          "name": "recieptor",
          "type": "address"
        },
        {
          "indexed": true,
          "name": "settlement",
          "type": "address"
        },
        {
          "indexed": false,
          "name": "payback",
          "type": "uint256"
        }
      ],
      "name": "FeePayback",
      "type": "event"
    },
    {
      "anonymous": false,
      "inputs": [
        {
          "indexed": true,
          "name": "settlement",
          "type": "address"
        },
        {
          "indexed": false,
          "name": "payback",
          "type": "uint256"
        }
      ],
      "name": "AddFee",
      "type": "event"
    },
    {
      "anonymous": false,
      "inputs": [
        {
          "indexed": true,
          "name": "recieptor",
          "type": "address"
        },
        {
          "indexed": true,
          "name": "settlement",
          "type": "address"
        },
        {
          "indexed": false,
          "name": "payback",
          "type": "uint256"
        }
      ],
      "name": "TransferPayback",
      "type": "event"
    },
    {
      "anonymous": false,
      "inputs": [
        {
          "indexed": true,
          "name": "previousOwner",
          "type": "address"
        },
        {
          "indexed": true,
          "name": "newOwner",
          "type": "address"
        }
      ],
      "name": "OwnershipTransferred",
      "type": "event"
    },
    {
      "constant": false,
      "inputs": [
        {
          "name": "settlement",
          "type": "address"
        },
        {
          "name": "settlementAmount",
          "type": "uint256"
        },
        {
          "name": "strikePrice",
          "type": "uint256"
        },
        {
          "name": "underlying",
          "type": "uint32"
        },
        {
          "name": "expiration",
          "type": "uint256"
        },
        {
          "name": "amount",
          "type": "uint256"
        },
        {
          "name": "optType",
          "type": "uint8"
        }
      ],
      "name": "buyOption",
      "outputs": [],
      "payable": true,
      "stateMutability": "payable",
      "type": "function"
    },
    {
      "constant": false,
      "inputs": [
        {
          "name": "optionsId",
          "type": "uint256"
        },
        {
          "name": "amount",
          "type": "uint256"
        }
      ],
      "name": "sellOption",
      "outputs": [],
      "payable": false,
      "stateMutability": "nonpayable",
      "type": "function"
    },
    {
      "constant": false,
      "inputs": [
        {
          "name": "optionsId",
          "type": "uint256"
        },
        {
          "name": "amount",
          "type": "uint256"
        }
      ],
      "name": "exerciseOption",
      "outputs": [],
      "payable": false,
      "stateMutability": "nonpayable",
      "type": "function"
    }
  ],
  "bytecode": "0x6000805460ff60a860020a60ff02011916905560c0604052600a60808190527f536861726564436f696e0000000000000000000000000000000000000000000060a09081526200005391600491906200023f565b506040805180820190915260058082527f53436f696e00000000000000000000000000000000000000000000000000000060209092019182526200009891816200023f565b5060006008819055604080518082018252600380825260016020909201829052600b55600c55815461010033810261010060a860020a03199092169190911780845591519104600160a060020a031691907f8be0079c531659141344cd1fd0a4f28419497f9722a3daafe3b4186f6b6457e0908290a360408051808201825260038082526103e860208084018281528354600181810186556000868152965160029283027fc2575a0e9e593c00f959f8c92f12db2869c3395a3b0502d05e2516446f71f85b8181019290925593517fc2575a0e9e593c00f959f8c92f12db2869c3395a3b0502d05e2516446f71f85c948501558851808a018a5287815280860187815288548085018a55898b5291519185028084019290925551908501558851808a018a5287815280860187815288548085018a55898b5291519185028084019290925551908501558851808a018a5287815280860187815288548085018a55898b5291519185028084019290925551908501558851808a0190995286895293880194855285549081018655949095529451929093029283019190915551910155620002e4565b828054600181600116156101000203166002900490600052602060002090601f016020900481019282601f106200028257805160ff1916838001178555620002b2565b82800160010185558215620002b2579182015b82811115620002b257825182559160200191906001019062000295565b50620002c0929150620002c4565b5090565b620002e191905b80821115620002c05760008155600101620002cb565b90565b61433b80620002f46000396000f30060806040526004361061026e5763ffffffff60e060020a60003504166306fdde038114610273578063095ea7b3146102fd57806309a9d76c146103355780630aaf38321461039a5780630ecfad1e146103c157806318160ddd146103e25780631a5a3fce146103f75780632042e5c21461041a57806323b872dd1461043b57806329bc969d146104655780632f4350c214610486578063313ce5671461049b57806334e73122146104c657806339509351146104e15780634c69c00f1461050557806353afc0251461052657806358a6be1c146105475780635c475d42146105755780635ca4b73b146105a95780636d75b9ee146105be57806370a08231146105d5578063715018a6146105f65780637c9c67121461060b578063817bf86d146106265780638da5cb5b146106475780638f32d59b1461065c578063925c482c1461067157806395a2251f146106a057806395d89b41146106c1578063a04115f6146106d6578063a093e2d0146106ee578063a20a80451461070f578063a457c2d714610733578063a623d51714610757578063a9059cbb146107ba578063b18b78dd146107de578063b4d5a9c7146107f3578063b9b8af0b1461081a578063bf36b1101461082f578063c040725a1461084d578063c5e5a3ed14610862578063c78f680314610877578063cd40581914610898578063d1892904146108ad578063d2aaef4e146108c8578063d6eb5910146108e0578063dd62ed3e146108f5578063ddb944e51461091c578063e0561aa11461093d578063e7cd4a0414610955578063f20568cd14610976578063f2fde38b14610a24578063f495438714610a45578063f939fdca14610a5f575b600080fd5b34801561027f57600080fd5b50610288610a80565b6040805160208082528351818301528351919283929083019185019080838360005b838110156102c25781810151838201526020016102aa565b50505050905090810190601f1680156102ef5780820380516001836020036101000a031916815260200191505b509250505060405180910390f35b34801561030957600080fd5b50610321600160a060020a0360043516602435610b0e565b604080519115158252519081900360200190f35b34801561034157600080fd5b5061034a610b24565b60408051602080825283518183015283519192839290830191858101910280838360005b8381101561038657818101518382015260200161036e565b505050509050019250505060405180910390f35b3480156103a657600080fd5b506103af610b87565b60408051918252519081900360200190f35b3480156103cd57600080fd5b506103af600160a060020a0360043516610b9f565b3480156103ee57600080fd5b506103af610bb1565b34801561040357600080fd5b50610418600160a060020a0360043516610bb7565b005b34801561042657600080fd5b50610321600160a060020a0360043516610c32565b34801561044757600080fd5b50610321600160a060020a0360043581169060243516604435610c91565b34801561047157600080fd5b506103af600160a060020a0360043516610d44565b34801561049257600080fd5b50610418610d56565b3480156104a757600080fd5b506104b0610de9565b6040805160ff9092168252519081900360200190f35b3480156104d257600080fd5b506103af600435602435610dee565b3480156104ed57600080fd5b50610321600160a060020a0360043516602435610e35565b34801561051157600080fd5b50610418600160a060020a0360043516610e71565b34801561053257600080fd5b506103af600160a060020a0360043516610eec565b34801561055357600080fd5b5061055c610efe565b6040805192835260208301919091528051918290030190f35b34801561058157600080fd5b5061058d600435610f07565b60408051600160a060020a039092168252519081900360200190f35b3480156105b557600080fd5b5061058d610f2f565b610418600160a060020a0360043516602435610f3e565b3480156105e157600080fd5b506103af600160a060020a0360043516611180565b34801561060257600080fd5b5061041861119b565b34801561061757600080fd5b50610418600435602435611243565b34801561063257600080fd5b50610321600160a060020a03600435166113d9565b34801561065357600080fd5b5061058d61143f565b34801561066857600080fd5b50610321611453565b610418600160a060020a036004351660243560443563ffffffff6064351660843560a43560ff60c43516611469565b3480156106ac57600080fd5b50610418600160a060020a0360043516611770565b3480156106cd57600080fd5b50610288611960565b3480156106e257600080fd5b506104186004356119bb565b3480156106fa57600080fd5b50610418600160a060020a0360043516611b13565b34801561071b57600080fd5b50610418600435600160a060020a0360243516611b8e565b34801561073f57600080fd5b50610321600160a060020a0360043516602435611d3c565b34801561076357600080fd5b5060408051602060046024803582810135848102808701860190975280865261041896843596369660449591949091019291829185019084908082843750949750508435955050506020909201359150611dd59050565b3480156107c657600080fd5b50610321600160a060020a0360043516602435611f4c565b3480156107ea57600080fd5b5061058d611f59565b3480156107ff57600080fd5b506103af600160a060020a0360043581169060243516611f68565b34801561082657600080fd5b50610321611f85565b34801561083b57600080fd5b50610418600435602435604435611fa7565b34801561085957600080fd5b5061058d61200b565b34801561086e57600080fd5b506103af61201a565b34801561088357600080fd5b506103af600160a060020a036004351661204c565b3480156108a457600080fd5b506103af612067565b3480156108b957600080fd5b506104186004356024356120fb565b3480156108d457600080fd5b5061055c6004356123f4565b3480156108ec57600080fd5b506103af612415565b34801561090157600080fd5b506103af600160a060020a036004358116906024351661251d565b34801561092857600080fd5b506103af600160a060020a0360043516612548565b34801561094957600080fd5b5061055c60043561255a565b34801561096157600080fd5b50610418600160a060020a0360043516612586565b34801561098257600080fd5b5061098b6125dd565b604051808060200180602001838103835285818151815260200191508051906020019060200280838360005b838110156109cf5781810151838201526020016109b7565b50505050905001838103825284818151815260200191508051906020019060200280838360005b83811015610a0e5781810151838201526020016109f6565b5050505090500194505050505060405180910390f35b348015610a3057600080fd5b50610418600160a060020a03600435166126e6565b348015610a5157600080fd5b50610418600435151561273b565b348015610a6b57600080fd5b50610418600160a060020a03600435166127c9565b6004805460408051602060026001851615610100026000190190941693909304601f81018490048402820184019092528181529291830182828015610b065780601f10610adb57610100808354040283529160200191610b06565b820191906000526020600020905b815481529060010190602001808311610ae957829003601f168201915b505050505081565b6000610b1b33848461282d565b50600192915050565b60606001805480602002602001604051908101604052809291908181526020018280548015610b7c57602002820191906000526020600020905b8154600160a060020a03168152600190910190602001808311610b5e575b505050505090505b90565b6000610b91612067565b610b99612415565b03905090565b600d6020526000908152604090205481565b60085490565b610bbf611453565b1515610c03576040805160e560020a62461bcd02815260206004820181905260248201526000805160206142f0833981519152604482015290519081900360640190fd5b600a805473ffffffffffffffffffffffffffffffffffffffff1916600160a060020a0392909216919091179055565b6000610c3c611453565b1515610c80576040805160e560020a62461bcd02815260206004820181905260248201526000805160206142f0833981519152604482015290519081900360640190fd5b610c8b60018361299a565b92915050565b6000610c9e848484612a87565b60408051606081018252602881527f45524332303a207472616e7366657220616d6f756e74206578636565647320616020808301919091527f6c6c6f77616e636500000000000000000000000000000000000000000000000082840152600160a060020a0387166000908152600782528381203380835292529290922054610d3a9287929091610d3591879063ffffffff612bf716565b61282d565b5060019392505050565b600e6020526000908152604090205481565b6000610d60611453565b1515610da4576040805160e560020a62461bcd02815260206004820181905260248201526000805160206142f0833981519152604482015290519081900360640190fd5b5060005b600154811015610de657610dde600182815481101515610dc457fe5b600091825260209091200154600160a060020a0316611770565b600101610da8565b50565b601281565b6000806000610dfc85612c94565b8054909250610e11908563ffffffff612d1316565b9050610e2a826001015482612dbd90919063ffffffff16565b92505b505092915050565b336000818152600760209081526040808320600160a060020a03871684529091528120549091610b1b918590610d35908663ffffffff612e0616565b610e79611453565b1515610ebd576040805160e560020a62461bcd02815260206004820181905260248201526000805160206142f0833981519152604482015290519081900360640190fd5b6009805473ffffffffffffffffffffffffffffffffffffffff1916600160a060020a0392909216919091179055565b60026020526000908152604090205481565b600b54600c5482565b6001805482908110610f1557fe5b600091825260209091200154600160a060020a0316905081565b601154600160a060020a031690565b600080600080610f4e8686612e63565b945060008511610fa8576040805160e560020a62461bcd02815260206004820152601a60248201527f736574746c656d656e7420616d6f756e74206973207a65726f21000000000000604482015290519081900360640190fd5b610fb3600386610dee565b9350610fbf8685612f96565b610fcf858563ffffffff61301516565b6009546040805160e060020a6341976e09028152600160a060020a038a8116600483015291519398509116916341976e09916024808201926020929091908290030181600087803b15801561102357600080fd5b505af1158015611037573d6000803e3d6000fd5b505050506040513d602081101561104d57600080fd5b50519250611061838663ffffffff612d1316565b915061107b61106e61201a565b839063ffffffff612dbd16565b336000908152600f602052604090205490915061109e908363ffffffff612e0616565b336000908152600f6020908152604080832093909355600160a060020a0389168252600e905220546110d6908663ffffffff612e0616565b600160a060020a0387166000818152600e602090815260408083209490945533825260108152838220928252919091522054611118908663ffffffff612e0616565b336000908152601060209081526040808320600160a060020a038b168452825280832093909355600d90522054611155908663ffffffff612e0616565b600160a060020a0387166000908152600d60205260409020556111783382613057565b505050505050565b600160a060020a031660009081526006602052604090205490565b6111a3611453565b15156111e7576040805160e560020a62461bcd02815260206004820181905260248201526000805160206142f0833981519152604482015290519081900360640190fd5b60008054604051610100909104600160a060020a0316907f8be0079c531659141344cd1fd0a4f28419497f9722a3daafe3b4186f6b6457e0908390a36000805474ffffffffffffffffffffffffffffffffffffffff0019169055565b600080821161129c576040805160e560020a62461bcd02815260206004820152601860248201527f657865726369736520616d6f756e74206973207a65726f210000000000000000604482015290519081900360640190fd5b600a54604080517f67b8ceb900000000000000000000000000000000000000000000000000000000815260048101869052602481018590529051600160a060020a03909216916367b8ceb9916044808201926020929091908290030181600087803b15801561130a57600080fd5b505af115801561131e573d6000803e3d6000fd5b505050506040513d602081101561133457600080fd5b50519050801515611344576113d4565b600a54604080517f048e1efa00000000000000000000000000000000000000000000000000000000815260048101869052602481018590529051600160a060020a039092169163048e1efa9160448082019260009290919082900301818387803b1580156113b157600080fd5b505af11580156113c5573d6000803e3d6000fd5b505050506113d481600261311c565b505050565b6000610c8b600180548060200260200160405190810160405280929190818152602001828054801561143457602002820191906000526020600020905b8154600160a060020a03168152600190910190602001808311611416575b50505050508361332c565b6000546101009004600160a060020a031690565b6000546101009004600160a060020a0316331490565b600a54604080517f3ad2fb570000000000000000000000000000000000000000000000000000000081526004810186905263ffffffff8716602482015290516000928392600160a060020a0390911691633ad2fb5791604480820192869290919082900301818387803b1580156114df57600080fd5b505af11580156114f3573d6000803e3d6000fd5b5050601154600954604080517fda66325700000000000000000000000000000000000000000000000000000000815263ffffffff8c166004820152905161162d9550600160a060020a039384169450632f581f48939092169163da663257916024808201926020929091908290030181600087803b15801561157457600080fd5b505af1158015611588573d6000803e3d6000fd5b505050506040513d602081101561159e57600080fd5b50516040805160e060020a63ffffffff85160281526004810192909252602482018c9052604482018a905260ff881660648301525160848083019260209291908290030181600087803b1580156115f457600080fd5b505af1158015611608573d6000803e3d6000fd5b505050506040513d602081101561161e57600080fd5b5051859063ffffffff612d1316565b915061163a89898461337d565b600a54604080517f8a4046bc00000000000000000000000000000000000000000000000000000000815260ff8616600482015263ffffffff891660248201524288016044820152606481018a905260848101879052600160a060020a038c811660a483015291519190921691638a4046bc9160c48083019260209291908290030181600087803b1580156116cd57600080fd5b505af11580156116e1573d6000803e3d6000fd5b505050506040513d60208110156116f757600080fd5b5051905061170481613578565b90508061170f610b87565b1015611765576040805160e560020a62461bcd02815260206004820152601b60248201527f636f6c6c61746572616c20697320696e73756666696369656e74210000000000604482015290519081900360640190fd5b505050505050505050565b60008061177b611453565b15156117bf576040805160e560020a62461bcd02815260206004820181905260248201526000805160206142f0833981519152604482015290519081900360640190fd5b600160a060020a03831660009081526002602052604081205492508211611830576040805160e560020a62461bcd02815260206004820152601260248201527f4974277320656d7074792062616c616e63650000000000000000000000000000604482015290519081900360640190fd5b600160a060020a038316600081815260026020526040812055151561188257604051339083156108fc029084906000818181858888f1935050505015801561187c573d6000803e3d6000fd5b5061191b565b50604080517fa9059cbb0000000000000000000000000000000000000000000000000000000081523360048201526024810183905290518391600160a060020a0383169163a9059cbb916044808201926020929091908290030181600087803b1580156118ee57600080fd5b505af1158015611902573d6000803e3d6000fd5b505050506040513d602081101561191857600080fd5b50505b604080518381529051600160a060020a0385169133917f747147be90b2a81a2e929994a92cd7bb71396bdbfd02f181867c81187d4f79449181900360200190a3505050565b6005805460408051602060026001851615610100026000190190941693909304601f81018490048402820184019092528181529291830182828015610b065780601f10610adb57610100808354040283529160200191610b06565b606060006119c7611453565b1515611a0b576040805160e560020a62461bcd02815260206004820181905260248201526000805160206142f0833981519152604482015290519081900360640190fd5b600a54604080517fa3144e50000000000000000000000000000000000000000000000000000000008152600481018690529051600160a060020a039092169163a3144e509160248082019260009290919082900301818387803b158015611a7157600080fd5b505af1158015611a85573d6000803e3d6000fd5b505050506040513d6000823e601f3d908101601f191682016040908152811015611aae57600080fd5b810190808051640100000000811115611ac657600080fd5b82016020810184811115611ad957600080fd5b8151856020820283011164010000000082111715611af657600080fd5b505060209091015190945092506113d49150849050838342611dd5565b611b1b611453565b1515611b5f576040805160e560020a62461bcd02815260206004820181905260248201526000805160206142f0833981519152604482015290519081900360640190fd5b6011805473ffffffffffffffffffffffffffffffffffffffff1916600160a060020a0392909216919091179055565b600080600080611b9d856113d9565b1515611bf3576040805160e560020a62461bcd02815260206004820152601f60248201527f736574746c656d656e7420697320756e737570706f7274656420746f6b656e00604482015290519081900360640190fd5b33600090815260066020526040902054861115611c5a576040805160e560020a62461bcd02815260206004820152601e60248201527f53436f696e2062616c616e636520697320696e73756666696369656e74210000604482015290519081900360640190fd5b851515611c6657611178565b600a60009054906101000a9004600160a060020a0316600160a060020a03166373a3d4246040518163ffffffff1660e060020a028152600401602060405180830381600087803b158015611cb957600080fd5b505af1158015611ccd573d6000803e3d6000fd5b505050506040513d6020811015611ce357600080fd5b50519350611cef612415565b9250611d0660085484612dbd90919063ffffffff16565b9150611d18868363ffffffff612d1316565b905082611d2b858363ffffffff612e0616565b1161117857611178868683856135a7565b60408051606081018252602581527f45524332303a2064656372656173656420616c6c6f77616e63652062656c6f776020808301919091527f207a65726f0000000000000000000000000000000000000000000000000000008284015233600081815260078352848120600160a060020a0388168252909252928120549092610b1b9290918691610d359190879063ffffffff612bf716565b600080611de0611453565b1515611e24576040805160e560020a62461bcd02815260206004820181905260248201526000805160206142f0833981519152604482015290519081900360640190fd5b600a54604080517f09e3d33e0000000000000000000000000000000000000000000000000000000081526004810189905260248101879052604481018690529051600160a060020a03909216916309e3d33e9160648082019260009290919082900301818387803b158015611e9857600080fd5b505af1158015611eac573d6000803e3d6000fd5b50505050600091505b8451821015611178576001805483908110611ecc57fe5b6000918252602090912001548551600160a060020a039091169150611f2890869084908110611ef757fe5b6020908102909101810151600160a060020a0384166000908152600d9092526040909120549063ffffffff612e0616565b600160a060020a0382166000908152600d6020526040902055600190910190611eb5565b6000610b1b338484612a87565b600954600160a060020a031690565b601060209081526000928352604080842090915290825290205481565b6000547501000000000000000000000000000000000000000000900460ff1681565b6000611fb1611453565b1515611ff5576040805160e560020a62461bcd02815260206004820181905260248201526000805160206142f0833981519152604482015290519081900360640190fd5b611ffe84612c94565b9283555060019091015550565b600a54600160a060020a031690565b60006008546000141561203257506305f5e100610b84565b60085461203d612415565b81151561204657fe5b04905090565b600160a060020a031660009081526002602052604090205490565b600080600a60009054906101000a9004600160a060020a0316600160a060020a03166373a3d4246040518163ffffffff1660e060020a028152600401602060405180830381600087803b1580156120bd57600080fd5b505af11580156120d1573d6000803e3d6000fd5b505050506040513d60208110156120e757600080fd5b505190506120f481613578565b91505b5090565b600080808080808080881161215a576040805160e560020a62461bcd02815260206004820152601460248201527f73656c6c20616d6f756e74206973207a65726f21000000000000000000000000604482015290519081900360640190fd5b600a54604080517f048e1efa000000000000000000000000000000000000000000000000000000008152600481018c9052602481018b90529051600160a060020a039092169163048e1efa9160448082019260009290919082900301818387803b1580156121c757600080fd5b505af11580156121db573d6000803e3d6000fd5b5050600a54604080517f48ee201d000000000000000000000000000000000000000000000000000000008152600481018e90529051600160a060020a0390921693506348ee201d925060248082019260e0929091908290030181600087803b15801561224657600080fd5b505af115801561225a573d6000803e3d6000fd5b505050506040513d60e081101561227057600080fd5b50604080820151606083015160a09093015160095483517fda66325700000000000000000000000000000000000000000000000000000000815263ffffffff861660048201529351929b509399504260ff8c160398509650600160a060020a039092169163da663257916024808201926020929091908290030181600087803b1580156122fc57600080fd5b505af1158015612310573d6000803e3d6000fd5b505050506040513d602081101561232657600080fd5b5051601154604080517f2f581f4800000000000000000000000000000000000000000000000000000000815260048101849052602481018890526044810189905260ff8b1660648201529051929550600160a060020a0390911691632f581f48916084808201926020929091908290030181600087803b1580156123a957600080fd5b505af11580156123bd573d6000803e3d6000fd5b505050506040513d60208110156123d357600080fd5b505191506123e7828963ffffffff612d1316565b905061176581600161311c565b600080600061240284612c94565b8054600190910154909590945092505050565b60015460009081908180805b8383101561251357600180548490811061243757fe5b60009182526020808320909101546009546040805160e060020a6341976e09028152600160a060020a0393841660048201819052915191975091909216936341976e099360248084019491939192918390030190829087803b15801561249c57600080fd5b505af11580156124b0573d6000803e3d6000fd5b505050506040513d60208110156124c657600080fd5b5051600160a060020a0383166000908152600d6020526040902054909150612506906124f990839063ffffffff612d1316565b869063ffffffff612e0616565b9450600190920191612421565b5092949350505050565b600160a060020a03918216600090815260076020908152604080832093909416825291909152205490565b600f6020526000908152604090205481565b600380548290811061256857fe5b60009182526020909120600290910201805460019091015490915082565b61258e611453565b15156125d2576040805160e560020a62461bcd02815260206004820181905260248201526000805160206142f0833981519152604482015290519081900360640190fd5b610de660018261384d565b60608060606000600180549050604051908082528060200260200182016040528015612613578160200160208202803883390190505b509150600090505b60015481101561267d576002600060018381548110151561263857fe5b6000918252602080832090910154600160a060020a03168352820192909252604001902054825183908390811061266b57fe5b6020908102909101015260010161261b565b600182818054806020026020016040519081016040528092919081815260200182805480156126d557602002820191906000526020600020905b8154600160a060020a031681526001909101906020018083116126b7575b505050505091509350935050509091565b6126ee611453565b1515612732576040805160e560020a62461bcd02815260206004820181905260248201526000805160206142f0833981519152604482015290519081900360640190fd5b610de6816138f3565b612743611453565b1515612787576040805160e560020a62461bcd02815260206004820181905260248201526000805160206142f0833981519152604482015290519081900360640190fd5b6000805491151575010000000000000000000000000000000000000000000275ff00000000000000000000000000000000000000000019909216919091179055565b610de6600180548060200260200160405190810160405280929190818152602001828054801561282257602002820191906000526020600020905b8154600160a060020a03168152600190910190602001808311612804575b5050505050826139ec565b600160a060020a03831615156128b2576040805160e560020a62461bcd028152602060048201526024808201527f45524332303a20617070726f76652066726f6d20746865207a65726f2061646460448201527f7265737300000000000000000000000000000000000000000000000000000000606482015290519081900360840190fd5b600160a060020a0382161515612938576040805160e560020a62461bcd02815260206004820152602260248201527f45524332303a20617070726f766520746f20746865207a65726f20616464726560448201527f7373000000000000000000000000000000000000000000000000000000000000606482015290519081900360840190fd5b600160a060020a03808416600081815260076020908152604080832094871680845294825291829020859055815185815291517f8c5be1e5ebec7d5bd14f71427d1e84f3dd0314c0f7b2291e5b200ac8c7c3b9259281900390910190a3505050565b8154600090815b818110156129e95783600160a060020a031685828154811015156129c157fe5b600091825260209091200154600160a060020a031614156129e1576129e9565b6001016129a1565b81811015612a7c5760001982018114612a62578460018303815481101515612a0d57fe5b6000918252602090912001548554600160a060020a0390911690869083908110612a3357fe5b9060005260206000200160006101000a815481600160a060020a030219169083600160a060020a031602179055505b8454612a728660001983016142b6565b5060019250610e2d565b506000949350505050565b600160a060020a0383161515612b0d576040805160e560020a62461bcd02815260206004820152602560248201527f45524332303a207472616e736665722066726f6d20746865207a65726f20616460448201527f6472657373000000000000000000000000000000000000000000000000000000606482015290519081900360840190fd5b600160a060020a0382161515612b93576040805160e560020a62461bcd02815260206004820152602360248201527f45524332303a207472616e7366657220746f20746865207a65726f206164647260448201527f6573730000000000000000000000000000000000000000000000000000000000606482015290519081900360840190fd5b612b9d8382613a4c565b612ba78282613b1b565b81600160a060020a031683600160a060020a03167fddf252ad1be2c89b69c2b068fc378daa952ba7f163c4a11628f55a4df523b3ef836040518082815260200191505060405180910390a3505050565b6000808285851115612c8a5760405160e560020a62461bcd0281526004018080602001828103825283818151815260200191508051906020019080838360005b83811015612c4f578181015183820152602001612c37565b50505050905090810190601f168015612c7c5780820380516001836020036101000a031916815260200191505b509250505060405180910390fd5b5050509103919050565b6003546000908210612cf0576040805160e560020a62461bcd02815260206004820152601260248201527f66656520747970652069732076616c6964210000000000000000000000000000604482015290519081900360640190fd5b6003805483908110612cfe57fe5b90600052602060002090600202019050919050565b600080831515612d265760009150612db6565b50828202828482811515612d3657fe5b0414612db2576040805160e560020a62461bcd02815260206004820152602160248201527f536166654d6174683a206d756c7469706c69636174696f6e206f766572666c6f60448201527f7700000000000000000000000000000000000000000000000000000000000000606482015290519081900360840190fd5b8091505b5092915050565b6000612dff83836040805190810160405280601a81526020017f536166654d6174683a206469766973696f6e206279207a65726f000000000000815250613bca565b9392505050565b600082820183811015612db2576040805160e560020a62461bcd02815260206004820152601b60248201527f536166654d6174683a206164646974696f6e206f766572666c6f770000000000604482015290519081900360640190fd5b6000806000612e71856113d9565b1515612ec7576040805160e560020a62461bcd02815260206004820152601f60248201527f736574746c656d656e7420697320756e737570706f7274656420746f6b656e00604482015290519081900360640190fd5b60009150600160a060020a0385161515612ee357349150612f8e565b6000841115612f8e5750604080517f23b872dd0000000000000000000000000000000000000000000000000000000081523360048201523060248201526044810185905290518591600160a060020a038316916323b872dd916064808201926020929091908290030181600087803b158015612f5e57600080fd5b505af1158015612f72573d6000803e3d6000fd5b505050506040513d6020811015612f8857600080fd5b50849250505b509392505050565b600160a060020a038216600090815260026020526040902054612fbf908263ffffffff612e0616565b600160a060020a038316600081815260026020908152604091829020939093558051848152905191927f1104eee7f034069140a0655d153038cedf9e65e5724018c555a8d56cfb6bee7792918290030190a25050565b6000612dff83836040805190810160405280601e81526020017f536166654d6174683a207375627472616374696f6e206f766572666c6f770000815250612bf7565b600160a060020a03821615156130b7576040805160e560020a62461bcd02815260206004820152601f60248201527f45524332303a206d696e7420746f20746865207a65726f206164647265737300604482015290519081900360640190fd5b6008546130ca908263ffffffff612e0616565b6008556130d78282613b1b565b604080518281529051600160a060020a038416916000917fddf252ad1be2c89b69c2b068fc378daa952ba7f163c4a11628f55a4df523b3ef9181900360200190a35050565b600154604080518281526020808402820101909152600091906060908390819081908190868015613157578160200160208202803883390190505b509450600093505b8584101561328157600180548590811061317557fe5b60009182526020808320909101546009546040805160e060020a6341976e09028152600160a060020a0393841660048201819052915191985091909216936341976e099360248084019491939192918390030190829087803b1580156131da57600080fd5b505af11580156131ee573d6000803e3d6000fd5b505050506040513d602081101561320457600080fd5b5051600160a060020a0384166000908152600d602052604090205486519193509086908690811061323157fe5b602090810290910101528451613275906132689087908790811061325157fe5b60209081029091010151849063ffffffff612d1316565b889063ffffffff612e0616565b5060019093019261315f565b86151561328d57611765565b600093505b85841015611765576132d2876132c68b88888151811015156132b057fe5b602090810290910101519063ffffffff612d1316565b9063ffffffff612dbd16565b90506132fc8186868151811015156132e657fe5b602090810290910101519063ffffffff61301516565b600160a060020a0384166000908152600d60205260409020556133213384838b613c36565b600190930192613292565b8151600090815b81811015612a7c5783600160a060020a0316858281518110151561335357fe5b90602001906020020151600160a060020a031614156133755760019250610e2d565b600101613333565b60008061338a8585612e63565b9350600084116133e4576040805160e560020a62461bcd02815260206004820152601a60248201527f736574746c656d656e7420616d6f756e74206973207a65726f21000000000000604482015290519081900360640190fd5b6133ef600084610dee565b6009546040805160e060020a6341976e09028152600160a060020a03898116600483015291519395509116916341976e09916024808201926020929091908290030181600087803b15801561344357600080fd5b505af1158015613457573d6000803e3d6000fd5b505050506040513d602081101561346d57600080fd5b50519050613481838363ffffffff612e0616565b613491828663ffffffff612d1316565b101561350d576040805160e560020a62461bcd02815260206004820152602160248201527f736574746c656d656e7420617373657420697320696e73756666696369656e7460448201527f2100000000000000000000000000000000000000000000000000000000000000606482015290519081900360840190fd5b61351d838263ffffffff612dbd16565b925061352f828263ffffffff612dbd16565b915061353b8583612f96565b61355b8261354f868663ffffffff61301516565b9063ffffffff61301516565b9350600084111561357157613571338686613c74565b5050505050565b600b546000908190613590908463ffffffff612d1316565b600c54909150612dff90829063ffffffff612dbd16565b33600090815260066020908152604080832054600f909252822054829160609183918291829185916135e491906132c6908e63ffffffff612d1316565b336000908152600f6020526040902054909750613607908863ffffffff61301516565b336000818152600f6020526040902091909155613624908c613dba565b600154604080518281526020808402820101909152909650868015613653578160200160208202803883390190505b509450613661898b8a613ea5565b6001805460408051602080840282018101909252828152949d509297506136c793928301828280156136bc57602002820191906000526020600020905b8154600160a060020a0316815260019091019060200180831161369e575b50505050508b61404c565b92508385848151811015156136d857fe5b60209081029091010152600091505b6000891180156136f657508582105b15613759576137298960018481548110151561370e57fe5b600091825260209091200154600160a060020a03168a613ea5565b8651919a509450849086908490811061373e57fe5b602090810290910101805190910190526001909101906136e7565b60008911156137de5761376d89878a6140a1565b9050600091505b858210156137de576137bb818381518110151561378d57fe5b9060200190602002015186848151811015156137a557fe5b602090810290910101519063ffffffff612e0616565b85838151811015156137c957fe5b60209081029091010152600190910190613774565b600091505b8582101561384057613835336001848154811015156137fe57fe5b6000918252602090912001548751600160a060020a039091169088908690811061382457fe5b906020019060200201516004613c36565b6001909101906137e3565b5050505050505050505050565b6138b0828054806020026020016040519081016040528092919081815260200182805480156138a557602002820191906000526020600020905b8154600160a060020a03168152600190910190602001808311613887575b50505050508261332c565b15156138ef57815460018101835560008381526020902001805473ffffffffffffffffffffffffffffffffffffffff1916600160a060020a0383161790555b5050565b600160a060020a0381161515613979576040805160e560020a62461bcd02815260206004820152602660248201527f4f776e61626c653a206e6577206f776e657220697320746865207a65726f206160448201527f6464726573730000000000000000000000000000000000000000000000000000606482015290519081900360840190fd5b60008054604051600160a060020a038085169361010090930416917f8be0079c531659141344cd1fd0a4f28419497f9722a3daafe3b4186f6b6457e091a360008054600160a060020a039092166101000274ffffffffffffffffffffffffffffffffffffffff0019909216919091179055565b6139f6828261332c565b15156138ef576040805160e560020a62461bcd02815260206004820181905260248201527f77686974654c6973743a207573696e6720696e76616c69642061646472657373604482015290519081900360640190fd5b600160a060020a0382161515613ad2576040805160e560020a62461bcd02815260206004820152602360248201527f45524332303a207472616e7366657220746f20746865207a65726f206164647260448201527f6573730000000000000000000000000000000000000000000000000000000000606482015290519081900360840190fd5b600160a060020a038216600090815260066020526040902054613afb908263ffffffff61301516565b600160a060020a0390921660009081526006602052604090209190915550565b600160a060020a0382161515613ba1576040805160e560020a62461bcd02815260206004820152602360248201527f45524332303a207472616e7366657220746f20746865207a65726f206164647260448201527f6573730000000000000000000000000000000000000000000000000000000000606482015290519081900360840190fd5b600160a060020a038216600090815260066020526040902054613afb908263ffffffff612e0616565b60008082818511613c205760405160e560020a62461bcd02815260040180806020018281038252838181518152602001915080519060200190808383600083811015612c4f578181015183820152602001612c37565b508385811515613c2c57fe5b0495945050505050565b6000821515613c4457613571565b613c4e8284610dee565b9050613c6a8585613c65868563ffffffff61301516565b613c74565b6135718482612f96565b6000811515613c8257613db4565b600160a060020a0383161515613cce57604051600160a060020a0385169083156108fc029084906000818181858888f19350505050158015613cc8573d6000803e3d6000fd5b50613d68565b50604080517fa9059cbb000000000000000000000000000000000000000000000000000000008152600160a060020a038581166004830152602482018490529151849283169163a9059cbb9160448083019260209291908290030181600087803b158015613d3b57600080fd5b505af1158015613d4f573d6000803e3d6000fd5b505050506040513d6020811015613d6557600080fd5b50505b82600160a060020a031684600160a060020a03167f8aaaec2388cc390cde69685f78340e15f36d424b6b6b595f549dd883931f9c9b846040518082815260200191505060405180910390a35b50505050565b600160a060020a0382161515613e40576040805160e560020a62461bcd02815260206004820152602160248201527f45524332303a206275726e2066726f6d20746865207a65726f2061646472657360448201527f7300000000000000000000000000000000000000000000000000000000000000606482015290519081900360840190fd5b613e4a8282613a4c565b600854613e5d908263ffffffff61301516565b600855604080518281529051600091600160a060020a038516917fddf252ad1be2c89b69c2b068fc378daa952ba7f163c4a11628f55a4df523b3ef9181900360200190a35050565b336000908152601060209081526040808320600160a060020a0386168452909152812054819081808080841515613ee2578996506000955061403f565b613ef2888663ffffffff612d1316565b600160a060020a038a166000908152600d6020908152604080832054600e90925290912054919550613f2e916132c6908863ffffffff612d1316565b945084841015613f3c578394505b841515613f4f578996506000955061403f565b6009546040805160e060020a6341976e09028152600160a060020a038c81166004830152915191909216916341976e099160248083019260209291908290030181600087803b158015613fa157600080fd5b505af1158015613fb5573d6000803e3d6000fd5b505050506040513d6020811015613fcb57600080fd5b50519250613fdf8a8463ffffffff612dbd16565b9150811515613ff4576000965086955061403f565b8482116140015781614003565b845b9050848211156140375761402d614020828563ffffffff612d1316565b8b9063ffffffff61301516565b819650965061403f565b600096509450845b5050505050935093915050565b8151600090815b818110156140995783600160a060020a0316858281518110151561407357fe5b90602001906020020151600160a060020a0316141561409157614099565b600101614053565b949350505050565b60606000606060008060008060009550886040519080825280602002602001820160405280156140db578160200160208202803883390190505b509450600093505b888410156142535760018054859081106140f957fe5b6000918252602080832090910154600160a060020a0316808352600e90915260409091205490935061413290899063ffffffff612d1316565b600160a060020a0384166000908152600d602052604090205490925082101561424857600160a060020a0383166000908152600d60205260409020548551908390039086908690811061418157fe5b60209081029091018101919091526009546040805160e060020a6341976e09028152600160a060020a038781166004830152915191909216926341976e0992602480820193918290030181600087803b1580156141dd57600080fd5b505af11580156141f1573d6000803e3d6000fd5b505050506040513d602081101561420757600080fd5b50518551909150614246906142399087908790811061422257fe5b60209081029091010151839063ffffffff612d1316565b879063ffffffff612e0616565b505b6001909301926140e3565b85151561425f576142a9565b600093505b888410156142a557614282866132c68c88888151811015156132b057fe5b858581518110151561429057fe5b60209081029091010152600190930192614264565b8496505b5050505050509392505050565b8154818355818111156113d4576000838152602090206113d4918101908301610b8491905b808211156120f757600081556001016142db56004f776e61626c653a2063616c6c6572206973206e6f7420746865206f776e6572a165627a7a723058206994520f03e4c1c07f57ac458225d52af490cc542a8b37609441e7943120d8150029",
  "source": "pragma solidity ^0.4.26;\r\nimport \"./modules/SafeMath.sol\";\r\nimport \"./CollateralPool.sol\";\r\nimport \"./modules/whiteList.sol\";\r\nimport \"./interfaces/IOptionsPrice.sol\";\r\ncontract OptionsMangerV2 is CollateralPool,ImportOptionsPrice {\r\n    using SafeMath for uint256;\r\n    function buyOption(address settlement,uint256 settlementAmount, uint256 strikePrice,uint32 underlying,\r\n        uint256 expiration,uint256 amount,uint8 optType)public payable{\r\n        _optionsPool.buyOptionCheck(expiration,underlying);\r\n        uint256 allPay = amount.mul(_optionsPrice.getOptionsPrice(_oracle.getUnderlyingPrice(underlying),strikePrice,expiration,optType));\r\n        buyOption_sub(settlement,settlementAmount,allPay);\r\n        uint256 collateralNeed = _optionsPool.createOptions(optType,underlying,now+expiration,strikePrice,amount,settlement);\r\n        collateralNeed = calculateCollateral(collateralNeed);\r\n        require(getLeftCollateral()>=collateralNeed,\"collateral is insufficient!\");\r\n    }\r\n    function buyOption_sub(address settlement,uint256 settlementAmount,uint256 allPay)internal{\r\n        settlementAmount = getPayableAmount(settlement,settlementAmount);\r\n        require(settlementAmount>0 , \"settlement amount is zero!\");\r\n        uint256 fee = calculateFee(buyFee,allPay);\r\n        uint256 settlePrice = _oracle.getPrice(settlement);\r\n        require(settlePrice.mul(settlementAmount)>=allPay.add(fee),\"settlement asset is insufficient!\");\r\n        allPay = allPay.div(settlePrice);\r\n        fee = fee.div(settlePrice);\r\n        _addTransactionFee(settlement,fee);\r\n        settlementAmount = settlementAmount.sub(allPay).sub(fee);\r\n        if (settlementAmount > 0){\r\n            _transferPayback(msg.sender,settlement,settlementAmount);\r\n        }  \r\n    }\r\n    function sellOption(uint256 optionsId,uint256 amount)public{\r\n        require(amount>0 , \"sell amount is zero!\");\r\n        _optionsPool.burnOptions(optionsId,amount);\r\n        (,,uint8 optType,uint32 underlying,uint256 expiration,uint256 strikePrice,) = _optionsPool.getOptionsById(optionsId);\r\n        expiration = optType-now;\r\n        uint256 currentPrice = _oracle.getUnderlyingPrice(underlying);\r\n        uint256 optPrice = _optionsPrice.getOptionsPrice(currentPrice,strikePrice,expiration,optType);\r\n        uint256 allPay = optPrice.mul(amount);\r\n        _paybackWorth(allPay,sellFee);\r\n    }\r\n    function exerciseOption(uint256 optionsId,uint256 amount)public{\r\n        require(amount>0 , \"exercise amount is zero!\");\r\n        uint256 allPay = _optionsPool.getExerciseWorth(optionsId,amount);\r\n        if (allPay == 0) {\r\n            return;\r\n        }\r\n        _optionsPool.burnOptions(optionsId,amount);\r\n        _paybackWorth(allPay,exerciseFee);\r\n    }\r\n\r\n}",
  "sourcePath": "C:\\work\\solidity\\FinnexusOptions_V2\\contracts\\OptionsMangerV2.sol",
  "compiler": {
    "name": "solc",
    "version": "0.4.26+commit.4563c3fc.Emscripten.clang"
  },
  "schemaVersion": "3.1.0",
  "updatedAt": "2020-07-20T14:10:02.098Z",
  "devdoc": {
    "methods": {
      "addWhiteList(address)": {
        "details": "Implementation of add an eligible address into the whitelist.\r",
        "params": {
          "addAddress": "new eligible address.\r"
        }
      },
      "allowance(address,address)": {
        "details": "See {IERC20-allowance}.\r"
      },
      "approve(address,uint256)": {
        "details": "See {IERC20-approve}.\r      * Requirements:\r      * - `spender` cannot be the zero address.\r"
      },
      "balanceOf(address)": {
        "details": "See {IERC20-balanceOf}.\r"
      },
      "decreaseAllowance(address,uint256)": {
        "details": "Atomically decreases the allowance granted to `spender` by the caller.\r      * This is an alternative to {approve} that can be used as a mitigation for\r problems described in {IERC20-approve}.\r      * Emits an {Approval} event indicating the updated allowance.\r      * Requirements:\r      * - `spender` cannot be the zero address.\r - `spender` must have allowance for the caller of at least\r `subtractedValue`.\r"
      },
      "getWhiteList()": {
        "details": "Implementation of getting the eligible whitelist.\r"
      },
      "increaseAllowance(address,uint256)": {
        "details": "Atomically increases the allowance granted to `spender` by the caller.\r      * This is an alternative to {approve} that can be used as a mitigation for\r problems described in {IERC20-approve}.\r      * Emits an {Approval} event indicating the updated allowance.\r      * Requirements:\r      * - `spender` cannot be the zero address.\r"
      },
      "isEligibleAddress(address)": {
        "details": "Implementation of testing whether the input address is eligible.\r",
        "params": {
          "tmpAddress": "input address for testing.\r"
        }
      },
      "isOwner()": {
        "details": "Returns true if the caller is the current owner."
      },
      "owner()": {
        "details": "Returns the address of the current owner."
      },
      "removeWhiteList(address)": {
        "details": "Implementation of revoke an invalid address from the whitelist.\r",
        "params": {
          "removeAddress": "revoked address.\r"
        }
      },
      "renounceOwnership()": {
        "details": "Leaves the contract without owner. It will not be possible to call `onlyOwner` functions anymore. Can only be called by the current owner.     * NOTE: Renouncing ownership will leave the contract without an owner, thereby removing any functionality that is only available to the owner."
      },
      "setTransactionFee(uint256,uint256,uint256)": {
        "details": "set the rate of trasaction fee.\r",
        "params": {
          "denominator": "thedenominator of transaction fee.\r transaction fee = numerator/denominator;\r",
          "feeType": "the transaction fee type\r",
          "numerator": "the numerator of transaction fee .\r"
        }
      },
      "totalSupply()": {
        "details": "See {IERC20-totalSupply}.\r"
      },
      "transfer(address,uint256)": {
        "details": "See {IERC20-transfer}.\r      * Requirements:\r      * - `recipient` cannot be the zero address.\r - the caller must have a balance of at least `amount`.\r"
      },
      "transferFrom(address,address,uint256)": {
        "details": "See {IERC20-transferFrom}.\r      * Emits an {Approval} event indicating the updated allowance. This is not\r required by the EIP. See the note at the beginning of {ERC20};\r      * Requirements:\r - `sender` and `recipient` cannot be the zero address.\r - `sender` must have a balance of at least `amount`.\r - the caller must have allowance for `sender`'s tokens of at least\r `amount`.\r"
      },
      "transferOwnership(address)": {
        "details": "Transfers ownership of the contract to a new account (`newOwner`). Can only be called by the current owner."
      }
    }
  },
  "userdoc": {
    "methods": {
      "setHalt(bool)": {
        "notice": "function Emergency situation that requires contribution period to stop or not."
      }
    }
  }
}