{
  "contractName": "OptionsPoolTest",
  "abi": [
    {
      "constant": true,
      "inputs": [
        {
          "name": "from",
          "type": "uint256"
        },
        {
          "name": "size",
          "type": "uint256"
        }
      ],
      "name": "getOptionInfoList",
      "outputs": [
        {
          "name": "",
          "type": "address[]"
        },
        {
          "name": "",
          "type": "uint256[]"
        },
        {
          "name": "",
          "type": "uint256[]"
        },
        {
          "name": "",
          "type": "uint256[]"
        },
        {
          "name": "",
          "type": "uint256[]"
        }
      ],
      "payable": false,
      "stateMutability": "view",
      "type": "function"
    },
    {
      "constant": true,
      "inputs": [],
      "name": "getOccupiedCalInfo",
      "outputs": [
        {
          "name": "",
          "type": "uint256"
        },
        {
          "name": "",
          "type": "int256"
        }
      ],
      "payable": false,
      "stateMutability": "view",
      "type": "function"
    },
    {
      "constant": true,
      "inputs": [
        {
          "name": "lastOption",
          "type": "uint256"
        },
        {
          "name": "beginOption",
          "type": "uint256"
        },
        {
          "name": "endOption",
          "type": "uint256"
        }
      ],
      "name": "calculatePhaseOccupiedCollateral",
      "outputs": [
        {
          "name": "",
          "type": "uint256"
        },
        {
          "name": "",
          "type": "uint256"
        },
        {
          "name": "",
          "type": "bool"
        }
      ],
      "payable": false,
      "stateMutability": "view",
      "type": "function"
    },
    {
      "constant": false,
      "inputs": [
        {
          "name": "totalOccupied",
          "type": "uint256"
        },
        {
          "name": "beginOption",
          "type": "uint256"
        },
        {
          "name": "latestOccpied",
          "type": "int256"
        }
      ],
      "name": "setCollateralPhase",
      "outputs": [],
      "payable": false,
      "stateMutability": "nonpayable",
      "type": "function"
    },
    {
      "constant": false,
      "inputs": [
        {
          "name": "newFirstOption",
          "type": "uint256"
        },
        {
          "name": "latestNetWorth",
          "type": "int256[]"
        },
        {
          "name": "whiteList",
          "type": "address[]"
        }
      ],
      "name": "setSharedState",
      "outputs": [],
      "payable": false,
      "stateMutability": "nonpayable",
      "type": "function"
    },
    {
      "constant": false,
      "inputs": [
        {
          "name": "volatility",
          "type": "address"
        }
      ],
      "name": "setVolatilityAddress",
      "outputs": [],
      "payable": false,
      "stateMutability": "nonpayable",
      "type": "function"
    },
    {
      "constant": true,
      "inputs": [
        {
          "name": "lastOption",
          "type": "uint256"
        },
        {
          "name": "begin",
          "type": "uint256"
        },
        {
          "name": "end",
          "type": "uint256"
        },
        {
          "name": "whiteList",
          "type": "address[]"
        }
      ],
      "name": "calRangeSharedPayment",
      "outputs": [
        {
          "name": "",
          "type": "uint256[]"
        },
        {
          "name": "",
          "type": "uint256"
        },
        {
          "name": "",
          "type": "bool"
        }
      ],
      "payable": false,
      "stateMutability": "view",
      "type": "function"
    },
    {
      "constant": true,
      "inputs": [
        {
          "name": "ids",
          "type": "uint256[]"
        }
      ],
      "name": "getOptionInfoListFromID",
      "outputs": [
        {
          "name": "",
          "type": "address[]"
        },
        {
          "name": "",
          "type": "uint256[]"
        },
        {
          "name": "",
          "type": "uint256[]"
        },
        {
          "name": "",
          "type": "uint256[]"
        },
        {
          "name": "",
          "type": "uint256[]"
        }
      ],
      "payable": false,
      "stateMutability": "view",
      "type": "function"
    },
    {
      "constant": true,
      "inputs": [],
      "name": "getUnderlyingAssets",
      "outputs": [
        {
          "name": "",
          "type": "uint32[]"
        }
      ],
      "payable": false,
      "stateMutability": "view",
      "type": "function"
    },
    {
      "constant": true,
      "inputs": [
        {
          "name": "expiration",
          "type": "uint256"
        },
        {
          "name": "underlying",
          "type": "uint32"
        }
      ],
      "name": "buyOptionCheck",
      "outputs": [],
      "payable": false,
      "stateMutability": "view",
      "type": "function"
    },
    {
      "constant": true,
      "inputs": [],
      "name": "getVolatilityAddress",
      "outputs": [
        {
          "name": "",
          "type": "address"
        }
      ],
      "payable": false,
      "stateMutability": "view",
      "type": "function"
    },
    {
      "constant": true,
      "inputs": [
        {
          "name": "lastOption",
          "type": "uint256"
        },
        {
          "name": "begin",
          "type": "uint256"
        },
        {
          "name": "end",
          "type": "uint256"
        },
        {
          "name": "whiteList",
          "type": "address[]"
        }
      ],
      "name": "calculatePhaseOptionsFall",
      "outputs": [
        {
          "name": "",
          "type": "int256[]"
        }
      ],
      "payable": false,
      "stateMutability": "view",
      "type": "function"
    },
    {
      "constant": true,
      "inputs": [],
      "name": "getLatestOption",
      "outputs": [
        {
          "name": "",
          "type": "uint256"
        },
        {
          "name": "",
          "type": "address"
        },
        {
          "name": "",
          "type": "uint8"
        },
        {
          "name": "",
          "type": "uint32"
        },
        {
          "name": "",
          "type": "uint256"
        },
        {
          "name": "",
          "type": "uint256"
        },
        {
          "name": "",
          "type": "uint256"
        }
      ],
      "payable": false,
      "stateMutability": "view",
      "type": "function"
    },
    {
      "constant": true,
      "inputs": [
        {
          "name": "optionsId",
          "type": "uint256"
        }
      ],
      "name": "getOptionsById",
      "outputs": [
        {
          "name": "",
          "type": "uint256"
        },
        {
          "name": "",
          "type": "address"
        },
        {
          "name": "",
          "type": "uint8"
        },
        {
          "name": "",
          "type": "uint32"
        },
        {
          "name": "",
          "type": "uint256"
        },
        {
          "name": "",
          "type": "uint256"
        },
        {
          "name": "",
          "type": "uint256"
        }
      ],
      "payable": false,
      "stateMutability": "view",
      "type": "function"
    },
    {
      "constant": false,
      "inputs": [
        {
          "name": "oracle",
          "type": "address"
        }
      ],
      "name": "setOracleAddress",
      "outputs": [],
      "payable": false,
      "stateMutability": "nonpayable",
      "type": "function"
    },
    {
      "constant": true,
      "inputs": [
        {
          "name": "optionID",
          "type": "uint256"
        },
        {
          "name": "amount",
          "type": "uint256"
        }
      ],
      "name": "getBurnedFullPay",
      "outputs": [
        {
          "name": "",
          "type": "address"
        },
        {
          "name": "",
          "type": "uint256"
        }
      ],
      "payable": false,
      "stateMutability": "view",
      "type": "function"
    },
    {
      "constant": true,
      "inputs": [],
      "name": "getOptionsPriceAddress",
      "outputs": [
        {
          "name": "",
          "type": "address"
        }
      ],
      "payable": false,
      "stateMutability": "view",
      "type": "function"
    },
    {
      "constant": true,
      "inputs": [],
      "name": "getBurnTimeLimit",
      "outputs": [
        {
          "name": "",
          "type": "uint256"
        }
      ],
      "payable": false,
      "stateMutability": "view",
      "type": "function"
    },
    {
      "constant": true,
      "inputs": [
        {
          "name": "optionsId",
          "type": "uint256"
        },
        {
          "name": "amount",
          "type": "uint256"
        }
      ],
      "name": "getExerciseWorth",
      "outputs": [
        {
          "name": "",
          "type": "uint256"
        }
      ],
      "payable": false,
      "stateMutability": "view",
      "type": "function"
    },
    {
      "constant": true,
      "inputs": [
        {
          "name": "whiteList",
          "type": "address[]"
        }
      ],
      "name": "getNetWrothCalInfo",
      "outputs": [
        {
          "name": "",
          "type": "uint256"
        },
        {
          "name": "",
          "type": "int256[]"
        }
      ],
      "payable": false,
      "stateMutability": "view",
      "type": "function"
    },
    {
      "constant": true,
      "inputs": [
        {
          "name": "optionsId",
          "type": "uint256"
        }
      ],
      "name": "getOptionsLimitTimeById",
      "outputs": [
        {
          "name": "",
          "type": "uint256"
        }
      ],
      "payable": false,
      "stateMutability": "view",
      "type": "function"
    },
    {
      "constant": false,
      "inputs": [
        {
          "name": "from",
          "type": "address"
        },
        {
          "name": "id",
          "type": "uint256"
        },
        {
          "name": "amount",
          "type": "uint256"
        },
        {
          "name": "optionPrice",
          "type": "uint256"
        }
      ],
      "name": "burnOptions",
      "outputs": [],
      "payable": false,
      "stateMutability": "nonpayable",
      "type": "function"
    },
    {
      "constant": false,
      "inputs": [],
      "name": "renounceOwnership",
      "outputs": [],
      "payable": false,
      "stateMutability": "nonpayable",
      "type": "function"
    },
    {
      "constant": true,
      "inputs": [
        {
          "name": "expiration",
          "type": "uint256"
        }
      ],
      "name": "checkExpiration",
      "outputs": [],
      "payable": false,
      "stateMutability": "view",
      "type": "function"
    },
    {
      "constant": true,
      "inputs": [],
      "name": "getTotalOccupiedCollateral",
      "outputs": [
        {
          "name": "",
          "type": "uint256"
        }
      ],
      "payable": false,
      "stateMutability": "view",
      "type": "function"
    },
    {
      "constant": false,
      "inputs": [
        {
          "name": "expiration",
          "type": "uint256"
        }
      ],
      "name": "addExpiration",
      "outputs": [],
      "payable": false,
      "stateMutability": "nonpayable",
      "type": "function"
    },
    {
      "constant": true,
      "inputs": [
        {
          "name": "settlement",
          "type": "address"
        }
      ],
      "name": "getNetWrothLatestWorth",
      "outputs": [
        {
          "name": "",
          "type": "int256"
        }
      ],
      "payable": false,
      "stateMutability": "view",
      "type": "function"
    },
    {
      "constant": false,
      "inputs": [
        {
          "name": "removeExpiration",
          "type": "uint256"
        }
      ],
      "name": "removeExpirationList",
      "outputs": [
        {
          "name": "",
          "type": "bool"
        }
      ],
      "payable": false,
      "stateMutability": "nonpayable",
      "type": "function"
    },
    {
      "constant": true,
      "inputs": [],
      "name": "owner",
      "outputs": [
        {
          "name": "",
          "type": "address"
        }
      ],
      "payable": false,
      "stateMutability": "view",
      "type": "function"
    },
    {
      "constant": true,
      "inputs": [],
      "name": "isOwner",
      "outputs": [
        {
          "name": "",
          "type": "bool"
        }
      ],
      "payable": false,
      "stateMutability": "view",
      "type": "function"
    },
    {
      "constant": true,
      "inputs": [],
      "name": "getExpirationList",
      "outputs": [
        {
          "name": "",
          "type": "uint256[]"
        }
      ],
      "payable": false,
      "stateMutability": "view",
      "type": "function"
    },
    {
      "constant": false,
      "inputs": [
        {
          "name": "from",
          "type": "address"
        },
        {
          "name": "settlement",
          "type": "address"
        },
        {
          "name": "type_ly_exp",
          "type": "uint256"
        },
        {
          "name": "strikePrice",
          "type": "uint256"
        },
        {
          "name": "optionPrice",
          "type": "uint256"
        },
        {
          "name": "amount",
          "type": "uint256"
        }
      ],
      "name": "createOptions",
      "outputs": [],
      "payable": false,
      "stateMutability": "nonpayable",
      "type": "function"
    },
    {
      "constant": false,
      "inputs": [
        {
          "name": "addAddress",
          "type": "address"
        }
      ],
      "name": "addOperator",
      "outputs": [],
      "payable": false,
      "stateMutability": "nonpayable",
      "type": "function"
    },
    {
      "constant": true,
      "inputs": [
        {
          "name": "whiteList",
          "type": "address[]"
        }
      ],
      "name": "getOptionCalRangeAll",
      "outputs": [
        {
          "name": "",
          "type": "uint256"
        },
        {
          "name": "",
          "type": "int256"
        },
        {
          "name": "",
          "type": "uint256"
        },
        {
          "name": "",
          "type": "int256[]"
        },
        {
          "name": "",
          "type": "uint256"
        },
        {
          "name": "",
          "type": "uint256"
        }
      ],
      "payable": false,
      "stateMutability": "view",
      "type": "function"
    },
    {
      "constant": true,
      "inputs": [
        {
          "name": "expiration",
          "type": "uint256"
        }
      ],
      "name": "isEligibleExpiration",
      "outputs": [
        {
          "name": "",
          "type": "bool"
        }
      ],
      "payable": false,
      "stateMutability": "view",
      "type": "function"
    },
    {
      "constant": false,
      "inputs": [
        {
          "name": "optionsPrice",
          "type": "address"
        }
      ],
      "name": "setOptionsPriceAddress",
      "outputs": [],
      "payable": false,
      "stateMutability": "nonpayable",
      "type": "function"
    },
    {
      "constant": false,
      "inputs": [
        {
          "name": "removeAddress",
          "type": "address"
        }
      ],
      "name": "removeOperator",
      "outputs": [
        {
          "name": "",
          "type": "bool"
        }
      ],
      "payable": false,
      "stateMutability": "nonpayable",
      "type": "function"
    },
    {
      "constant": false,
      "inputs": [
        {
          "name": "underlying",
          "type": "uint32"
        }
      ],
      "name": "addUnderlyingAsset",
      "outputs": [],
      "payable": false,
      "stateMutability": "nonpayable",
      "type": "function"
    },
    {
      "constant": true,
      "inputs": [],
      "name": "getOracleAddress",
      "outputs": [
        {
          "name": "",
          "type": "address"
        }
      ],
      "payable": false,
      "stateMutability": "view",
      "type": "function"
    },
    {
      "constant": true,
      "inputs": [],
      "name": "getOptionInfoLength",
      "outputs": [
        {
          "name": "",
          "type": "uint256"
        }
      ],
      "payable": false,
      "stateMutability": "view",
      "type": "function"
    },
    {
      "constant": true,
      "inputs": [
        {
          "name": "begin",
          "type": "uint256"
        },
        {
          "name": "end",
          "type": "uint256"
        },
        {
          "name": "whiteList",
          "type": "address[]"
        }
      ],
      "name": "calculateExpiredPayment",
      "outputs": [
        {
          "name": "",
          "type": "int256[]"
        }
      ],
      "payable": false,
      "stateMutability": "view",
      "type": "function"
    },
    {
      "constant": false,
      "inputs": [
        {
          "name": "timeLimit",
          "type": "uint256"
        }
      ],
      "name": "setBurnTimeLimit",
      "outputs": [],
      "payable": false,
      "stateMutability": "nonpayable",
      "type": "function"
    },
    {
      "constant": false,
      "inputs": [
        {
          "name": "managerAddress",
          "type": "address"
        }
      ],
      "name": "setManager",
      "outputs": [],
      "payable": false,
      "stateMutability": "nonpayable",
      "type": "function"
    },
    {
      "constant": true,
      "inputs": [],
      "name": "getManager",
      "outputs": [
        {
          "name": "",
          "type": "address"
        }
      ],
      "payable": false,
      "stateMutability": "view",
      "type": "function"
    },
    {
      "constant": false,
      "inputs": [
        {
          "name": "removeUnderlying",
          "type": "uint32"
        }
      ],
      "name": "removeUnderlyingAssets",
      "outputs": [
        {
          "name": "",
          "type": "bool"
        }
      ],
      "payable": false,
      "stateMutability": "nonpayable",
      "type": "function"
    },
    {
      "constant": true,
      "inputs": [
        {
          "name": "underlying",
          "type": "uint32"
        }
      ],
      "name": "isEligibleUnderlyingAsset",
      "outputs": [
        {
          "name": "",
          "type": "bool"
        }
      ],
      "payable": false,
      "stateMutability": "view",
      "type": "function"
    },
    {
      "constant": false,
      "inputs": [
        {
          "name": "index",
          "type": "uint256"
        },
        {
          "name": "addAddress",
          "type": "address"
        }
      ],
      "name": "setOperator",
      "outputs": [],
      "payable": false,
      "stateMutability": "nonpayable",
      "type": "function"
    },
    {
      "constant": true,
      "inputs": [
        {
          "name": "user",
          "type": "address"
        }
      ],
      "name": "getUserOptionsID",
      "outputs": [
        {
          "name": "",
          "type": "uint256[]"
        }
      ],
      "payable": false,
      "stateMutability": "view",
      "type": "function"
    },
    {
      "constant": true,
      "inputs": [],
      "name": "getOperator",
      "outputs": [
        {
          "name": "",
          "type": "address[]"
        }
      ],
      "payable": false,
      "stateMutability": "view",
      "type": "function"
    },
    {
      "constant": true,
      "inputs": [
        {
          "name": "underlying",
          "type": "uint32"
        }
      ],
      "name": "checkUnderlyingAsset",
      "outputs": [],
      "payable": false,
      "stateMutability": "view",
      "type": "function"
    },
    {
      "constant": false,
      "inputs": [
        {
          "name": "newOwner",
          "type": "address"
        }
      ],
      "name": "transferOwnership",
      "outputs": [],
      "payable": false,
      "stateMutability": "nonpayable",
      "type": "function"
    },
    {
      "constant": false,
      "inputs": [],
      "name": "setOccupiedCollateral",
      "outputs": [],
      "payable": false,
      "stateMutability": "nonpayable",
      "type": "function"
    },
    {
      "constant": true,
      "inputs": [
        {
          "name": "user",
          "type": "address"
        },
        {
          "name": "from",
          "type": "uint256"
        },
        {
          "name": "size",
          "type": "uint256"
        }
      ],
      "name": "getUserOptionsID",
      "outputs": [
        {
          "name": "",
          "type": "uint256[]"
        }
      ],
      "payable": false,
      "stateMutability": "view",
      "type": "function"
    },
    {
      "inputs": [
        {
          "name": "oracleAddr",
          "type": "address"
        },
        {
          "name": "optionsPriceAddr",
          "type": "address"
        },
        {
          "name": "ivAddress",
          "type": "address"
        }
      ],
      "payable": false,
      "stateMutability": "nonpayable",
      "type": "constructor"
    },
    {
      "anonymous": false,
      "inputs": [
        {
          "indexed": true,
          "name": "owner",
          "type": "address"
        },
        {
          "indexed": true,
          "name": "optionID",
          "type": "uint256"
        },
        {
          "indexed": false,
          "name": "optType",
          "type": "uint8"
        },
        {
          "indexed": false,
          "name": "underlying",
          "type": "uint32"
        },
        {
          "indexed": false,
          "name": "expiration",
          "type": "uint256"
        },
        {
          "indexed": false,
          "name": "strikePrice",
          "type": "uint256"
        },
        {
          "indexed": false,
          "name": "amount",
          "type": "uint256"
        }
      ],
      "name": "CreateOption",
      "type": "event"
    },
    {
      "anonymous": false,
      "inputs": [
        {
          "indexed": true,
          "name": "owner",
          "type": "address"
        },
        {
          "indexed": true,
          "name": "optionID",
          "type": "uint256"
        },
        {
          "indexed": false,
          "name": "amount",
          "type": "uint256"
        }
      ],
      "name": "BurnOption",
      "type": "event"
    },
    {
      "anonymous": false,
      "inputs": [
        {
          "indexed": false,
          "name": "value1",
          "type": "uint256"
        },
        {
          "indexed": false,
          "name": "value2",
          "type": "uint256"
        },
        {
          "indexed": false,
          "name": "value3",
          "type": "uint256"
        }
      ],
      "name": "DebugEvent",
      "type": "event"
    },
    {
      "anonymous": false,
      "inputs": [
        {
          "indexed": true,
          "name": "previousOwner",
          "type": "address"
        },
        {
          "indexed": true,
          "name": "newOwner",
          "type": "address"
        }
      ],
      "name": "OwnershipTransferred",
      "type": "event"
    },
    {
      "constant": true,
      "inputs": [
        {
          "name": "optType",
          "type": "uint8"
        },
        {
          "name": "strikePrice",
          "type": "uint256"
        },
        {
          "name": "underlyingPrice",
          "type": "uint256"
        }
      ],
      "name": "getOptionsWorth",
      "outputs": [
        {
          "name": "",
          "type": "uint256"
        }
      ],
      "payable": false,
      "stateMutability": "pure",
      "type": "function"
    },
    {
      "constant": true,
      "inputs": [
        {
          "name": "optType",
          "type": "uint8"
        },
        {
          "name": "strikePrice",
          "type": "uint256"
        },
        {
          "name": "underlyingPrice",
          "type": "uint256"
        }
      ],
      "name": "getOptionsPayback",
      "outputs": [
        {
          "name": "",
          "type": "uint256"
        }
      ],
      "payable": false,
      "stateMutability": "pure",
      "type": "function"
    }
  ],
  "bytecode": "0x6080604052610e106009553480156200001757600080fd5b506040516060806200515d83398101604081815282516020840151919093015160008054600160a060020a031916331780825592939192859285928592600160a060020a0316917f8be0079c531659141344cd1fd0a4f28419497f9722a3daafe3b4186f6b6457e0908290a36040805160e0810182526201518081526203f480602082015262093a8091810191909152620d2f0060608201526213c680608082015262278d0060a08201526276a70060c0820152620000db90600890600762000311565b5060408051808201909152600180825260026020830181905262000100929062000368565b50620001158364010000000062000149810204565b6200012982640100000000620001db810204565b6200013d816401000000006200026d810204565b50505050505062000458565b6200015c640100000000620002ff810204565b1515620001b957604080517f08c379a000000000000000000000000000000000000000000000000000000000815260206004820181905260248201526000805160206200513d833981519152604482015290519081900360640190fd5b60038054600160a060020a031916600160a060020a0392909216919091179055565b620001ee640100000000620002ff810204565b15156200024b57604080517f08c379a000000000000000000000000000000000000000000000000000000000815260206004820181905260248201526000805160206200513d833981519152604482015290519081900360640190fd5b600e8054600160a060020a031916600160a060020a0392909216919091179055565b62000280640100000000620002ff810204565b1515620002dd57604080517f08c379a000000000000000000000000000000000000000000000000000000000815260206004820181905260248201526000805160206200513d833981519152604482015290519081900360640190fd5b60048054600160a060020a031916600160a060020a0392909216919091179055565b600054600160a060020a031633145b90565b82805482825590600052602060002090810192821562000356579160200282015b8281111562000356578251829062ffffff1690559160200191906001019062000332565b506200036492915062000417565b5090565b82805482825590600052602060002090600701600890048101928215620004095791602002820160005b83821115620003d557835183826101000a81548163ffffffff021916908360ff160217905550926020019260040160208160030104928301926001030262000392565b8015620004075782816101000a81549063ffffffff0219169055600401602081600301049283019260010302620003d5565b505b506200036492915062000434565b6200030e91905b808211156200036457600081556001016200041e565b6200030e91905b808211156200036457805463ffffffff191681556001016200043b565b614cd580620004686000396000f3006080604052600436106102795763ffffffff60e060020a6000350416630438d490811461027e57806309057622146104015780630c3725711461042f57806312039cc21461046d5780632415e0101461048d5780632967eafe146105205780632b38f1801461054157806332ab5c2014610574578063354af3601461063e5780633582d789146106935780633ad2fb57146106f857806342e5479d1461071957806343674c3a1461074a57806345e19fdd146107ae57806348ee201d1461080a5780634c69c00f14610822578063597ce900146108435780635ca4b73b1461088157806364ed30171461089657806367b8ceb9146108ab5780636a43c05e146108c65780636d84e2e3146109765780636ed82ec91461098e578063715018a6146109b8578063723931ca146109cd57806373a3d424146109e55780637cfff2d8146109fa5780637e1bcb7614610a125780637e838fa314610a335780638da5cb5b14610a5f5780638f32d59b14610a745780639052d5f814610a89578063924a69ce14610a9e5780639870d7fe14610ad15780639a2a3a6014610af25780639ef975d214610bbe578063a093e2d014610bd6578063ac8a584a14610bf7578063afec82fc14610c18578063b18b78dd14610c36578063bec3107f14610c4b578063c0c5fea714610c60578063c5acbe1514610cbe578063d0ebdbe714610cd6578063d500958414610cf7578063d6d1401214610d0c578063db6ad2bd14610d2a578063e7a1c1c014610d48578063e7c5681514610d6c578063e7f43c6814610d8d578063ed55283414610da2578063ee29c94a14610dc3578063f2fde38b14610de1578063f504e2f014610e02578063f7de192314610e17575b600080fd5b34801561028a57600080fd5b50610299600435602435610e3e565b60405180806020018060200180602001806020018060200186810386528b818151815260200191508051906020019060200280838360005b838110156102e95781810151838201526020016102d1565b5050505090500186810385528a818151815260200191508051906020019060200280838360005b83811015610328578181015183820152602001610310565b50505050905001868103845289818151815260200191508051906020019060200280838360005b8381101561036757818101518382015260200161034f565b50505050905001868103835288818151815260200191508051906020019060200280838360005b838110156103a657818101518382015260200161038e565b50505050905001868103825287818151815260200191508051906020019060200280838360005b838110156103e55781810151838201526020016103cd565b505050509050019a505050505050505050505060405180910390f35b34801561040d57600080fd5b50610416611088565b6040805192835260208301919091528051918290030190f35b34801561043b57600080fd5b5061044d600435602435604435611092565b604080519384526020840192909252151582820152519081900360600190f35b34801561047957600080fd5b5061048b60043560243560443561110d565b005b34801561049957600080fd5b5060408051602060046024803582810135848102808701860190975280865261048b96843596369660449591949091019291829185019084908082843750506040805187358901803560208181028481018201909552818452989b9a9989019892975090820195509350839250850190849080828437509497506111e49650505050505050565b34801561052c57600080fd5b5061048b600160a060020a03600435166112f2565b34801561054d57600080fd5b5061056260ff60043516602435604435611360565b60408051918252519081900360200190f35b34801561058057600080fd5b5060408051606435600481810135602081810285810182019096528185526105d89583359560248035966044359636969095608495929093019290918291850190849080828437509497506113779650505050505050565b604051808060200184815260200183151515158152602001828103825285818151815260200191508051906020019060200280838360005b83811015610628578181015183820152602001610610565b5050505090500194505050505060405180910390f35b34801561064a57600080fd5b5060408051602060048035808201358381028086018501909652808552610299953695939460249493850192918291850190849080828437509497506114019650505050505050565b34801561069f57600080fd5b506106a861161a565b60408051602080825283518183015283519192839290830191858101910280838360005b838110156106e45781810151838201526020016106cc565b505050509050019250505060405180910390f35b34801561070457600080fd5b5061048b60043563ffffffff6024351661169f565b34801561072557600080fd5b5061072e61170b565b60408051600160a060020a039092168252519081900360200190f35b34801561075657600080fd5b5060408051606435600481810135602081810285810182019096528185526106a895833595602480359660443596369690956084959290930192909182918501908490808284375094975061171a9650505050505050565b3480156107ba57600080fd5b506107c36118a4565b60408051978852600160a060020a03909616602088015260ff9094168686015263ffffffff9092166060860152608085015260a084015260c0830152519081900360e00190f35b34801561081657600080fd5b506107c360043561198f565b34801561082e57600080fd5b5061048b600160a060020a0360043516611a03565b34801561084f57600080fd5b5061085e600435602435611a71565b60408051600160a060020a03909316835260208301919091528051918290030190f35b34801561088d57600080fd5b5061072e611ae1565b3480156108a257600080fd5b50610562611af0565b3480156108b757600080fd5b50610562600435602435611af6565b3480156108d257600080fd5b506040805160206004803580820135838102808601850190965280855261091b95369593946024949385019291829185019084908082843750949750611c769650505050505050565b6040518083815260200180602001828103825283818151815260200191508051906020019060200280838360005b83811015610961578181015183820152602001610949565b50505050905001935050505060405180910390f35b34801561098257600080fd5b50610562600435611d29565b34801561099a57600080fd5b5061048b600160a060020a0360043516602435604435606435611db0565b3480156109c457600080fd5b5061048b611f7a565b3480156109d957600080fd5b5061048b600435612010565b3480156109f157600080fd5b50610562612098565b348015610a0657600080fd5b5061048b6004356120ea565b348015610a1e57600080fd5b50610562600160a060020a0360043516612141565b348015610a3f57600080fd5b50610a4b60043561215c565b604080519115158252519081900360200190f35b348015610a6b57600080fd5b5061072e6121bb565b348015610a8057600080fd5b50610a4b6121ca565b348015610a9557600080fd5b506106a86121db565b348015610aaa57600080fd5b5061048b600160a060020a036004358116906024351660443560643560843560a435612232565b348015610add57600080fd5b5061048b600160a060020a0360043516612363565b348015610afe57600080fd5b5060408051602060048035808201358381028086018501909652808552610b47953695939460249493850192918291850190849080828437509497506123ba9650505050505050565b6040518087815260200186815260200185815260200180602001848152602001838152602001828103825285818151815260200191508051906020019060200280838360005b83811015610ba5578181015183820152602001610b8d565b5050505090500197505050505050505060405180910390f35b348015610bca57600080fd5b50610a4b6004356123fb565b348015610be257600080fd5b5061048b600160a060020a0360043516612457565b348015610c0357600080fd5b50610a4b600160a060020a03600435166124c5565b348015610c2457600080fd5b5061048b63ffffffff6004351661251e565b348015610c4257600080fd5b5061072e612575565b348015610c5757600080fd5b50610562612584565b348015610c6c57600080fd5b5060408051602060046044358181013583810280860185019096528085526106a895833595602480359636969560649593949201929182918501908490808284375094975061258a9650505050505050565b348015610cca57600080fd5b5061048b600435612685565b348015610ce257600080fd5b5061048b600160a060020a03600435166126d6565b348015610d0357600080fd5b5061072e612744565b348015610d1857600080fd5b50610a4b63ffffffff60043516612753565b348015610d3657600080fd5b50610a4b63ffffffff600435166127ac565b348015610d5457600080fd5b5061048b600435600160a060020a0360243516612834565b348015610d7857600080fd5b506106a8600160a060020a03600435166128c2565b348015610d9957600080fd5b506106a861292e565b348015610dae57600080fd5b5061056260ff6004351660243560443561298f565b348015610dcf57600080fd5b5061048b63ffffffff6004351661299c565b348015610ded57600080fd5b5061048b600160a060020a0360043516612a22565b348015610e0e57600080fd5b5061048b612a77565b348015610e2357600080fd5b506106a8600160a060020a0360043516602435604435612b6c565b6060806060806060806060806060806000806005805490508d8f011115610e7557600554610e72908f63ffffffff612c5316565b9c505b60008d1115611077578c604051908082528060200260200182016040528015610ea8578160200160208202803883390190505b5096508c604051908082528060200260200182016040528015610ed5578160200160208202803883390190505b5095508c604051908082528060200260200182016040528015610f02578160200160208202803883390190505b5094508c604051908082528060200260200182016040528015610f2f578160200160208202803883390190505b5093508c604051908082528060200260200182016040528015610f5c578160200160208202803883390190505b509250600091505b8c82101561106757600580548f8401908110610f7c57fe5b906000526020600020906005020190508060000160089054906101000a9004600160a060020a03168783815181101515610fb257fe5b600160a060020a03929092166020928302919091019091015280546001820154875160e060020a90920460ff1663ffffffff9182166201000002011690879084908110610ffb57fe5b602090810290910101526002810154855186908490811061101857fe5b602090810290910101526003810154845185908490811061103557fe5b602090810290910101526004810154835184908490811061105257fe5b60209081029091010152600190910190610f64565b86868686869b509b509b509b509b505b505050505050509295509295909350565b600b54600d549091565b6000806000806000600b548710156110aa57600b5496505b8787106110c05760009450849350839250611102565b878611156110d0578795506110e9565b600b548610156110e95760009450849350839250611102565b6110f38787612c95565b91509150818160019450945094505b505093509350939050565b600a54600090811080156111445750600a80543391908390811061112d57fe5b600091825260209091200154600160a060020a0316145b15156111c0576040805160e560020a62461bcd02815260206004820152603060248201527f4d616e6167657261626c653a2063616c6c6572206973206e6f7420746865206560448201527f6c696769626c65204f70657261746f7200000000000000000000000000000000606482015290519081900360840190fd5b600b548311156111d057600b8390555b50600c9290925550600d8054919091039055565b6002546000908190600160a060020a03163314611271576040805160e560020a62461bcd02815260206004820152602660248201527f4d616e6167657261626c653a2063616c6c6572206973206e6f7420746865204d60448201527f616e616765720000000000000000000000000000000000000000000000000000606482015290519081900360840190fd5b600f5485111561128157600f8590555b5050805160005b818110156112eb57838181518110151561129e57fe5b906020019060200201516010600085848151811015156112ba57fe5b6020908102909101810151600160a060020a0316825281019190915260400160002080549091019055600101611288565b5050505050565b6112fa6121ca565b151561133e576040805160e560020a62461bcd0281526020600482018190526024820152600080516020614c8a833981519152604482015290519081900360640190fd5b60048054600160a060020a031916600160a060020a0392909216919091179055565b600061136d848484612dd3565b90505b9392505050565b60606000806060600088881015806113905750600f5487105b156113cf5785516040519080825280602002602001820160405280156113c0578160200160208202803883390190505b509450600093508392506113f5565b888711156113db578896505b6113e6888888612df1565b91509150818160019450945094505b50509450945094915050565b6060806060806060600060608060608060606000808d51975087604051908082528060200260200182016040528015611444578160200160208202803883390190505b50965087604051908082528060200260200182016040528015611471578160200160208202803883390190505b5095508760405190808252806020026020018201604052801561149e578160200160208202803883390190505b509450876040519080825280602002602001820160405280156114cb578160200160208202803883390190505b509350876040519080825280602002602001820160405280156114f8578160200160208202803883390190505b509250600091505b87821015611606576115288e8381518110151561151957fe5b90602001906020020151612f61565b80548851919250680100000000000000009004600160a060020a03169088908490811061155157fe5b600160a060020a03929092166020928302919091019091015280546001820154875160e060020a90920460ff1663ffffffff918216620100000201169087908490811061159a57fe5b60209081029091010152600281015485518690849081106115b757fe5b60209081029091010152600381015484518590849081106115d457fe5b60209081029091010152600481015483518490849081106115f157fe5b60209081029091010152600190910190611500565b50949c939b50919950975095509350505050565b6060600180548060200260200160405190810160405280929190818152602001828054801561169457602002820191906000526020600020906000905b82829054906101000a900463ffffffff1663ffffffff16815260200190600401906020826003010492830192600103820291508084116116575790505b505050505090505b90565b6116a8816127ac565b15156116fe576040805160e560020a62461bcd02815260206004820152601f60248201527f756e6465726c79696e6720697320756e737570706f7274656420617373657400604482015290519081900360640190fd5b61170782612010565b5050565b600454600160a060020a031690565b606080606060008088881015806117325750600f5487105b1561176a578551604051908082528060200260200182016040528015611762578160200160208202803883390190505b509450611898565b88871115611776578896505b600f54881161178557600f5497505b61178d612ff1565b935061179b88888887613112565b925085519150600090505b81811015611894576003548651600160a060020a03909116906341976e09908890849081106117d157fe5b906020019060200201516040518263ffffffff1660e060020a0281526004018082600160a060020a0316600160a060020a03168152602001915050602060405180830381600087803b15801561182657600080fd5b505af115801561183a573d6000803e3d6000fd5b505050506040513d602081101561185057600080fd5b5051835184908390811061186057fe5b9060200190602002015181151561187357fe5b05838281518110151561188257fe5b602090810290910101526001016117a6565b8294505b50505050949350505050565b6005546000908190819081908190819081908180821161190e576040805160e560020a62461bcd02815260206004820152601560248201527f6f7074696f6e73206c69737420697320656d7074790000000000000000000000604482015290519081900360640190fd5b60058054600019840190811061192057fe5b60009182526020909120600590910201805460018201546002830154600384015460049094015467ffffffffffffffff84169e680100000000000000008504600160a060020a03169e5060e060020a90940460ff169c5063ffffffff9092169a50985091965090945092505050565b6000806000806000806000806119a489612f61565b805460018201546002830154600384015460049094015467ffffffffffffffff84169e680100000000000000008504600160a060020a03169e5060e060020a90940460ff169c5063ffffffff9092169a50985091965090945092505050565b611a0b6121ca565b1515611a4f576040805160e560020a62461bcd0281526020600482018190526024820152600080516020614c8a833981519152604482015290519081900360640190fd5b60038054600160a060020a031916600160a060020a0392909216919091179055565b60001982016000908152600660205260408120600181015460028201546004830154849392600160a060020a031691670de0b6b3a764000091611acb918891611abf9163ffffffff6132ba16565b9063ffffffff6132ba16565b811515611ad457fe5b0492509250509250929050565b600e54600160a060020a031690565b60095490565b6000611b00614bda565b600080611b0c86612f61565b6040805160e081018252825467ffffffffffffffff81168252680100000000000000008104600160a060020a0316602083015260e060020a900460ff1691810191909152600182015463ffffffff16606082015260028201546080820152600382015460a082015260049091015460c08201529250611b8a83613359565b611b9483866133b4565b6003546060840151604080517fda66325700000000000000000000000000000000000000000000000000000000815263ffffffff909216600483015251600160a060020a039092169163da663257916024808201926020929091908290030181600087803b158015611c0557600080fd5b505af1158015611c19573d6000803e3d6000fd5b505050506040513d6020811015611c2f57600080fd5b5051604084015160a0850151919350611c489184613410565b9050801515611c5a5760009350611c6d565b611c6a818663ffffffff6132ba16565b93505b50505092915050565b600060606000606060008551925082604051908082528060200260200182016040528015611cae578160200160208202803883390190505b509150600090505b82811015611d1b57601060008783815181101515611cd057fe5b90602001906020020151600160a060020a0316600160a060020a03168152602001908152602001600020548282815181101515611d0957fe5b60209081029091010152600101611cb6565b50600f549590945092505050565b60008082118015611d3c57506005548211155b1515611d92576040805160e560020a62461bcd02815260206004820152601660248201527f6f7074696f6e206964206973206e6f7420657869737400000000000000000000604482015290519081900360640190fd5b50600954600019820160009081526006602052604090205401919050565b611db8614bda565b600254600090600160a060020a03163314611e43576040805160e560020a62461bcd02815260206004820152602660248201527f4d616e6167657261626c653a2063616c6c6572206973206e6f7420746865204d60448201527f616e616765720000000000000000000000000000000000000000000000000000606482015290519081900360840190fd5b611e4e868686613444565b611e5785612f61565b6040805160e081018252825467ffffffffffffffff81168252680100000000000000008104600160a060020a0390811660208085019190915260e060020a90920460ff1683850152600185015463ffffffff16606084018190526002860154608085015260038087015460a086015260049687015460c08601525485517fda663257000000000000000000000000000000000000000000000000000000008152968701919091529351929650929092169263da6632579260248083019391928290030181600087803b158015611f2c57600080fd5b505af1158015611f40573d6000803e3d6000fd5b505050506040513d6020811015611f5657600080fd5b50519050611f6582858361362b565b611f7182858386613663565b50505050505050565b611f826121ca565b1515611fc6576040805160e560020a62461bcd0281526020600482018190526024820152600080516020614c8a833981519152604482015290519081900360640190fd5b60008054604051600160a060020a03909116907f8be0079c531659141344cd1fd0a4f28419497f9722a3daafe3b4186f6b6457e0908390a360008054600160a060020a0319169055565b612019816123fb565b1515612095576040805160e560020a62461bcd02815260206004820152602160248201527f65787069726174696f6e2076616c7565206973206e6f7420737570706f72746560448201527f6400000000000000000000000000000000000000000000000000000000000000606482015290519081900360840190fd5b50565b6000806000600d541215156120c357600d54600c546120bc9163ffffffff6137c016565b91506120e6565b600d54600003905080600c5411156120e15780600c540391506120e6565b600091505b5090565b6120f26121ca565b1515612136576040805160e560020a62461bcd0281526020600482018190526024820152600080516020614c8a833981519152604482015290519081900360640190fd5b61209560088261381d565b600160a060020a031660009081526010602052604090205490565b60006121666121ca565b15156121aa576040805160e560020a62461bcd0281526020600482018190526024820152600080516020614c8a833981519152604482015290519081900360640190fd5b6121b5600883613894565b92915050565b600054600160a060020a031690565b600054600160a060020a0316331490565b6060600880548060200260200160405190810160405280929190818152602001828054801561169457602002820191906000526020600020905b815481526020019060010190808311612215575050505050905090565b61223a614bda565b600254600160a060020a031633146122c2576040805160e560020a62461bcd02815260206004820152602660248201527f4d616e6167657261626c653a2063616c6c6572206973206e6f7420746865204d60448201527f616e616765720000000000000000000000000000000000000000000000000000606482015290519081900360840190fd5b6122d0878787878787613941565b6005546122dc90612f61565b6040805160e081018252825467ffffffffffffffff81168252680100000000000000008104600160a060020a0316602083015260e060020a900460ff1691810191909152600182015463ffffffff16606082015260028201546080820152600382015460a082015260049091015460c0820152905061235a81613c01565b611f7181613c50565b61236b6121ca565b15156123af576040805160e560020a62461bcd0281526020600482018190526024820152600080516020614c8a833981519152604482015290519081900360640190fd5b612095600a82613d85565b60008060006060600080600080600060606123d3611088565b935093506123e08b611c76565b600554959d949c50909a509850929650439550909350505050565b60006121b5600880548060200260200160405190810160405280929190818152602001828054801561244c57602002820191906000526020600020905b815481526020019060010190808311612438575b505050505083613e1f565b61245f6121ca565b15156124a3576040805160e560020a62461bcd0281526020600482018190526024820152600080516020614c8a833981519152604482015290519081900360640190fd5b600e8054600160a060020a031916600160a060020a0392909216919091179055565b60006124cf6121ca565b1515612513576040805160e560020a62461bcd0281526020600482018190526024820152600080516020614c8a833981519152604482015290519081900360640190fd5b6121b5600a83613e5e565b6125266121ca565b151561256a576040805160e560020a62461bcd0281526020600482018190526024820152600080516020614c8a833981519152604482015290519081900360640190fd5b612095600182613f35565b600354600160a060020a031690565b60055490565b60608060008060008086516040519080825280602002602001820160405280156125be578160200160208202803883390190505b5094505b8789101561267857600580548a9081106125d857fe5b9060005260206000209060050201935060008460040154111561266d576000898152600660205260409020600181015490935061261f908890600160a060020a0316613ffe565b60048501546002850154919350670de0b6b3a7640000910204905080858381518110151561264957fe5b9060200190602002015101858381518110151561266257fe5b602090810290910101525b6001909801976125c2565b5092979650505050505050565b61268d6121ca565b15156126d1576040805160e560020a62461bcd0281526020600482018190526024820152600080516020614c8a833981519152604482015290519081900360640190fd5b600955565b6126de6121ca565b1515612722576040805160e560020a62461bcd0281526020600482018190526024820152600080516020614c8a833981519152604482015290519081900360640190fd5b60028054600160a060020a031916600160a060020a0392909216919091179055565b600254600160a060020a031690565b600061275d6121ca565b15156127a1576040805160e560020a62461bcd0281526020600482018190526024820152600080516020614c8a833981519152604482015290519081900360640190fd5b6121b5600183614053565b60006121b5600180548060200260200160405190810160405280929190818152602001828054801561282957602002820191906000526020600020906000905b82829054906101000a900463ffffffff1663ffffffff16815260200190600401906020826003010492830192600103820291508084116127ec5790505b50505050508361414a565b61283c6121ca565b1515612880576040805160e560020a62461bcd0281526020600482018190526024820152600080516020614c8a833981519152604482015290519081900360640190fd5b80600a8381548110151561289057fe5b9060005260206000200160006101000a815481600160a060020a030219169083600160a060020a031602179055505050565b600160a060020a03811660009081526007602090815260409182902080548351818402810184019094528084526060939283018282801561292257602002820191906000526020600020905b81548152602001906001019080831161290e575b50505050509050919050565b6060600a80548060200260200160405190810160405280929190818152602001828054801561169457602002820191906000526020600020905b8154600160a060020a03168152600190910190602001808311612968575050505050905090565b600061136d848484613410565b6120956001805480602002602001604051908101604052809291908181526020018280548015612a1757602002820191906000526020600020906000905b82829054906101000a900463ffffffff1663ffffffff16815260200190600401906020826003010492830192600103820291508084116129da5790505b505050505082614195565b612a2a6121ca565b1515612a6e576040805160e560020a62461bcd0281526020600482018190526024820152600080516020614c8a833981519152604482015290519081900360640190fd5b612095816141f5565b60008060008060008080600a80549050118015612ab75750600a805433919083908110612aa057fe5b600091825260209091200154600160a060020a0316145b1515612b33576040805160e560020a62461bcd02815260206004820152603060248201527f4d616e6167657261626c653a2063616c6c6572206973206e6f7420746865206560448201527f6c696769626c65204f70657261746f7200000000000000000000000000000000606482015290519081900360840190fd5b600d5495506005805490509450612b4d85600b5487611092565b9350935093508115612b6457612b6484848861110d565b505050505050565b606080600083604051908082528060200260200182016040528015612b9b578160200160208202803883390190505b50600160a060020a0387166000908152600760205260409020549092508585011115612bed57600160a060020a038616600090815260076020526040902054612bea908663ffffffff612c5316565b93505b5060005b83811015612c4a57600160a060020a03861660009081526007602052604090208054868301908110612c1f57fe5b90600052602060002001548282815181101515612c3857fe5b60209081029091010152600101612bf1565b50949350505050565b600061137083836040805190810160405280601e81526020017f536166654d6174683a207375627472616374696f6e206f766572666c6f7700008152506142d6565b600080600060606000806000612cae89600b548a614379565b9099509450612cbb612ff1565b9350600092505b87891015612dc457612cfb60058a815481101515612cdc57fe5b600091825260209091206001600590920201015463ffffffff166143fa565b9150612db360058a815481101515612d0f57fe5b60009182526020918290206040805160e081018252600593909302909101805467ffffffffffffffff81168452680100000000000000008104600160a060020a03169484019490945260e060020a90930460ff1690820152600182015463ffffffff16606082015260028201546080820152600382015460a082015260049091015460c08201528551869085908110612da457fe5b90602001906020020151614482565b600190990198928301929050612cc2565b50909792965091945050505050565b600060ff8416158284111415612dea575081611370565b5080611370565b60606000606060008060008060008851604051908082528060200260200182016040528015612e2a578160200160208202803883390190505b509550612e3a8b600f548c614379565b909b5094505b898b1015612f5057600580548c908110612e5657fe5b90600052602060002090600502019350600660008c81526020019081526020016000209250612eae8360030154856003015486600201548660050154876006015489600001601c9054906101000a900460ff166144c3565b91508260040154821015612f45576004830154600184015492900391612ede908a90600160a060020a0316613ffe565b9050670de0b6b3a7640000612f068560040154840285600201546132ba90919063ffffffff16565b811515612f0f57fe5b049150818682815181101515612f2157fe5b90602001906020020151018682815181101515612f3a57fe5b602090810290910101525b6001909a0199612e40565b509399929850919650505050505050565b60008082118015612f7457506005548211155b1515612fca576040805160e560020a62461bcd02815260206004820152601660248201527f6f7074696f6e206964206973206e6f7420657869737400000000000000000000604482015290519081900360640190fd5b600580546000198401908110612fdc57fe5b90600052602060002090600502019050919050565b600154604080518281526020808402820101909152606091908290600090838015613026578160200160208202803883390190505b509150600090505b8281101561310b5760035460018054600160a060020a039092169163da66325791908490811061305a57fe5b90600052602060002090600891828204019190066004029054906101000a900463ffffffff166040518263ffffffff1660e060020a028152600401808263ffffffff168152602001915050602060405180830381600087803b1580156130bf57600080fd5b505af11580156130d3573d6000803e3d6000fd5b505050506040513d60208110156130e957600080fd5b505182518390839081106130f957fe5b6020908102909101015260010161302e565b5092915050565b6060806000806000808751604051908082528060200260200182016040528015613146578160200160208202803883390190505b5094505b888a10156132ac57600580548b90811061316057fe5b90600052602060002090600502019350428460020154108061318457506004840154155b1561318e576132a1565b60018401546131a29063ffffffff166143fa565b6040805160e081018252865467ffffffffffffffff81168252680100000000000000008104600160a060020a0316602083015260e060020a900460ff1691810191909152600186015463ffffffff16606082015260028601546080820152600386015460a0820152600486015460c08201819052895192935061323a928a908590811061322b57fe5b9060200190602002015161459b565b925082156132a15760008a8152600660205260409020600181015490925061326c908990600160a060020a0316613ffe565b905082858281518110151561327d57fe5b9060200190602002015103858281518110151561329657fe5b602090810290910101525b60019099019861314a565b509298975050505050505050565b6000808315156132cd576000915061310b565b508282028284828115156132dd57fe5b0414611370576040805160e560020a62461bcd02815260206004820152602160248201527f536166654d6174683a206d756c7469706c69636174696f6e206f766572666c6f60448201527f7700000000000000000000000000000000000000000000000000000000000000606482015290519081900360840190fd5b60808101514210612095576040805160e560020a62461bcd02815260206004820152601160248201527f6f7074696f6e2069732065787069726564000000000000000000000000000000604482015290519081900360640190fd5b60c0820151811115611707576040805160e560020a62461bcd02815260206004820152601d60248201527f6f7074696f6e20616d6f756e7420697320696e73756666696369656e74000000604482015290519081900360640190fd5b600060ff841615828411141561342857506000611370565b60ff8416156134395781830361343d565b8282035b9050611370565b600061344f83612f61565b6040805160e081018252825467ffffffffffffffff81168252680100000000000000008104600160a060020a0316602083015260e060020a900460ff1691810191909152600182015463ffffffff16606082015260028201546080820152600382015460a0820152600482015460c08201529091506134cd90613359565b80546134e29067ffffffffffffffff166145d2565b6040805160e081018252825467ffffffffffffffff81168252680100000000000000008104600160a060020a0316602083015260e060020a900460ff1691810191909152600182015463ffffffff16606082015260028201546080820152600382015460a0820152600482015460c082015261355e9085614667565b6040805160e081018252825467ffffffffffffffff81168252680100000000000000008104600160a060020a0316602083015260e060020a900460ff1691810191909152600182015463ffffffff16606082015260028201546080820152600382015460a0820152600482015460c08201526135da90836133b4565b60048101805483900390556040805183815290518491600160a060020a038716917f1fb99acdc281bccbecb3d0073a307341181a8a7d3cd532fdaef5ce7200401c2d9181900360200190a350505050565b600061364483611abf86604001518760a0015186612dd3565b600d5490915061365a908263ffffffff6146d616565b600d5550505050565b600080600080600061367689898961459b565b89516000190167ffffffffffffffff1660009081526006602052604090206004810154919550935086106136ab5760006136b3565b858360040154035b9150670de0b6b3a76400006136d789840285600201546132ba90919063ffffffff16565b8115156136e057fe5b6003546001860154604080517f41976e09000000000000000000000000000000000000000000000000000000008152600160a060020a039283166004820152905194909304955016916341976e09916024808201926020929091908290030181600087803b15801561375157600080fd5b505af1158015613765573d6000803e3d6000fd5b505050506040513d602081101561377b57600080fd5b50518481151561378757fe5b600190940154600160a060020a031660009081526010602052604090208054919094049290920391909101909155509095945050505050565b600082820183811015611370576040805160e560020a62461bcd02815260206004820152601b60248201527f536166654d6174683a206164646974696f6e206f766572666c6f770000000000604482015290519081900360640190fd5b6138768280548060200260200160405190810160405280929190818152602001828054801561386b57602002820191906000526020600020905b815481526020019060010190808311613857575b505050505082613e1f565b15156117075781546001810183556000928352602090922090910155565b8154600090815b818110156138d0578385828154811015156138b257fe5b906000526020600020015414156138c8576138d0565b60010161389b565b81811015613934576000198201811461391a5784600183038154811015156138f457fe5b9060005260206000200154858281548110151561390d57fe5b6000918252602090912001555b845461392a866000198301614c16565b5060019250613939565b600092505b505092915050565b600080600061394e614bda565b600554935061395c8861471b565b925061396788614728565b9150600560e0604051908101604052808660010167ffffffffffffffff1681526020018c600160a060020a031681526020018560ff1681526020018463ffffffff168152602001426139b88c614741565b01815260208082018b905260409182018990528354600180820186556000958652828620855160059384029091018054878601518888015167ffffffffffffffff1990921667ffffffffffffffff909416939093177fffffffff0000000000000000000000000000000000000000ffffffffffffffff1668010000000000000000600160a060020a0394851602177fffffff00ffffffffffffffffffffffffffffffffffffffffffffffffffffffff1660e060020a60ff909216919091021781556060870151818401805463ffffffff191663ffffffff9092169190911790556080870151600282015560a0870151600382015560c090960151600490960195909555938f168552600782529184208054808501825590855293209187019190920155805485908110613ae757fe5b60009182526020918290206040805160e081018252600593909302909101805467ffffffffffffffff81168452680100000000000000008104600160a060020a03169484019490945260e060020a90930460ff1690820152600182015463ffffffff908116606083015260028301546080830152600383015460a083015260049092015460c08201529150613b859082908b9089908b908716614762565b836001018a600160a060020a03167f18f523957030bee670136363e25b2f847bf1bd07bb7b33c6d5475936a9aac70d858542613bc08e614741565b6040805160ff909516855263ffffffff90931660208501520182820152606082018c9052608082018a9052519081900360a00190a350505050505050505050565b80516000190167ffffffffffffffff1660009081526006602052604081206003810154909190613c32908490614482565b600d54909150613c48908263ffffffff614a2516565b600d55505050565b80516000190167ffffffffffffffff166000908152600660209081526040808320600354600182015483517f41976e09000000000000000000000000000000000000000000000000000000008152600160a060020a0391821660048201529351929594859491909216926341976e099260248084019391929182900301818787803b158015613cde57600080fd5b505af1158015613cf2573d6000803e3d6000fd5b505050506040513d6020811015613d0857600080fd5b505160c085015160038501549193508391613d2491879161459b565b811515613d2d57fe5b6001850154600160a060020a03166000908152601060205260409020549190049150613d5f908263ffffffff6146d616565b600190930154600160a060020a0316600090815260106020526040902092909255505050565b613de882805480602002602001604051908101604052809291908181526020018280548015613ddd57602002820191906000526020600020905b8154600160a060020a03168152600190910190602001808311613dbf575b505050505082614a67565b1515611707578154600181018355600083815260209020018054600160a060020a038316600160a060020a03199091161790555050565b8151600090815b8181101561393457838582815181101515613e3d57fe5b906020019060200201511415613e565760019250613939565b600101613e26565b8154600090815b81811015613ead5783600160a060020a03168582815481101515613e8557fe5b600091825260209091200154600160a060020a03161415613ea557613ead565b600101613e65565b81811015613934576000198201811461391a578460018303815481101515613ed157fe5b6000918252602090912001548554600160a060020a0390911690869083908110613ef757fe5b9060005260206000200160006101000a815481600160a060020a030219169083600160a060020a03160217905550845461392a866000198301614c16565b613fba82805480602002602001604051908101604052809291908181526020018280548015613faf57602002820191906000526020600020906000905b82829054906101000a900463ffffffff1663ffffffff1681526020019060040190602082600301049283019260010382029150808411613f725790505b50505050508261414a565b1515611707578154600181018355600092835260209092206008830401805460079093166004026101000a63ffffffff818102199094169290931692909202179055565b8151600090815b8181101561404b5783600160a060020a0316858281518110151561402557fe5b90602001906020020151600160a060020a031614156140435761404b565b600101614005565b949350505050565b8154600090815b818110156140ae578363ffffffff16858281548110151561407757fe5b6000918252602090912060088204015460079091166004026101000a900463ffffffff1614156140a6576140ae565b60010161405a565b81811015613934576000198201811461413a5784600183038154811015156140d257fe5b90600052602060002090600891828204019190066004029054906101000a900463ffffffff16858281548110151561410657fe5b90600052602060002090600891828204019190066004026101000a81548163ffffffff021916908363ffffffff1602179055505b845461392a866000198301614c3f565b8151600090815b81811015613934578363ffffffff16858281518110151561416e57fe5b9060200190602002015163ffffffff16141561418d5760019250613939565b600101614151565b61419f828261414a565b1515611707576040805160e560020a62461bcd02815260206004820152601f60248201527f77686974654c6973743a207573696e6720696e76616c69642075696e74333200604482015290519081900360640190fd5b600160a060020a038116151561427b576040805160e560020a62461bcd02815260206004820152602660248201527f4f776e61626c653a206e6577206f776e657220697320746865207a65726f206160448201527f6464726573730000000000000000000000000000000000000000000000000000606482015290519081900360840190fd5b60008054604051600160a060020a03808516939216917f8be0079c531659141344cd1fd0a4f28419497f9722a3daafe3b4186f6b6457e091a360008054600160a060020a031916600160a060020a0392909216919091179055565b60008082858511156143695760405160e560020a62461bcd0281526004018080602001828103825283818151815260200191508051906020019080838360005b8381101561432e578181015183820152602001614316565b50505050905090810190601f16801561435b5780820380516001836020036101000a031916815260200191505b509250505060405180910390fd5b505050818303805b509392505050565b600080838181871115614391578682935093506143f0565b8196505b848710156143e95760058054889081106143ab57fe5b9060005260206000209060050201905042816002015410806143cf57506004810154155b156143d9576143de565b6143e9565b600190960195614395565b8687935093505b5050935093915050565b60006121b5600180548060200260200160405190810160405280929190818152602001828054801561447757602002820191906000526020600020906000905b82829054906101000a900463ffffffff1663ffffffff168152602001906004019060208260030104928301926001038202915080841161443a5790505b505050505083614ab8565b60008042846080015111158061449a575060c0840151155b156144a8576000915061310b565b61404b8460c00151611abf86604001518760a0015187612dd3565b60004285111561458d57600e54604080517f055ef6ab000000000000000000000000000000000000000000000000000000008152600481018a9052602481018990524288036044820152606481018790526084810186905260ff851660a48201529051600160a060020a039092169163055ef6ab9160c4808201926020929091908290030181600087803b15801561455a57600080fd5b505af115801561456e573d6000803e3d6000fd5b505050506040513d602081101561458457600080fd5b50519050614591565b5060005b9695505050505050565b60004284608001511115806145ae575082155b156145bb57506000611370565b61136d83611abf86604001518760a0015186613410565b600954600019820160009081526006602052604090205442910110612095576040805160e560020a62461bcd02815260206004820152602560248201527f6f7074696f6e206c6f636b206c696d69746174696f6e206973206e6f7420657860448201527f7069726564000000000000000000000000000000000000000000000000000000606482015290519081900360840190fd5b80600160a060020a03168260200151600160a060020a0316141515611707576040805160e560020a62461bcd02815260206004820152601f60248201527f63616c6c6572206973206e6f7420746865206f7074696f6e73206f776e657200604482015290519081900360640190fd5b600061137083836000036040805190810160405280601e81526020017f536166654d6174683a207375627472616374696f6e206f766572666c6f770000815250614aff565b67ffffffffffffffff1690565b68010000000000000000900467ffffffffffffffff1690565b700100000000000000000000000000000000900467ffffffffffffffff1690565b6000806000806000600360009054906101000a9004600160a060020a0316600160a060020a031663da663257876040518263ffffffff1660e060020a02815260040180828152602001915050602060405180830381600087803b1580156147c857600080fd5b505af11580156147dc573d6000803e3d6000fd5b505050506040513d60208110156147f257600080fd5b81019080805190602001909291905050509450428a60800151039350600460009054906101000a9004600160a060020a0316600160a060020a031663185d12328b606001518c6040015187898c6040518663ffffffff1660e060020a028152600401808663ffffffff1663ffffffff1681526020018560ff1660ff168152602001848152602001838152602001828152602001955050505050506040805180830381600087803b1580156148a557600080fd5b505af11580156148b9573d6000803e3d6000fd5b505050506040513d60408110156148cf57600080fd5b508051602091820151600354604080517f41976e09000000000000000000000000000000000000000000000000000000008152600160a060020a038f81166004830152915194985092965016926341976e09926024808401938290030181600087803b15801561493e57600080fd5b505af1158015614952573d6000803e3d6000fd5b505050506040513d602081101561496857600080fd5b5051670de0b6b3a764000081151561497c57fe5b6040805160e081018252428152600160a060020a039c8d1660208083019182529490930481830190815260608201998a52608082019c8d5260a0820197885260c082019687529d516000190167ffffffffffffffff16600090815260069485905291909120905181559051600182018054600160a060020a03191691909c1617909a55995160028a01555092516003880155945160048701555092516005850155505051910155565b600061137083836040805190810160405280601d81526020017f53616665496e743235363a206164646974696f6e206f766572666c6f77000000815250614aff565b8151600090815b818110156139345783600160a060020a03168582815181101515614a8e57fe5b90602001906020020151600160a060020a03161415614ab05760019250613939565b600101614a6e565b8151600090815b8181101561404b578363ffffffff168582815181101515614adc57fe5b9060200190602002015163ffffffff161415614af75761404b565b600101614abf565b600080808512158185121514614b19578385019150614371565b60008512614b8257508383018285821215614b795760405160e560020a62461bcd0281526004018080602001828103825283818151815260200191508051906020019080838360008381101561432e578181015183820152602001614316565b50809150614371565b508383018285821315614b795760405160e560020a62461bcd0281526004018080602001828103825283818151815260200191508051906020019080838360008381101561432e578181015183820152602001614316565b6040805160e081018252600080825260208201819052918101829052606081018290526080810182905260a0810182905260c081019190915290565b815481835581811115614c3a57600083815260209020614c3a918101908301614c6f565b505050565b815481835581811115614c3a576007016008900481600701600890048360005260206000209182019101614c3a91905b61169c91905b808211156120e65760008155600101614c7556004f776e61626c653a2063616c6c6572206973206e6f7420746865206f776e6572a165627a7a7230582001d6bf409912357c5c02de44ede274a351ba7eca921f4cf516af14ee391f2a0000294f776e61626c653a2063616c6c6572206973206e6f7420746865206f776e6572",
  "source": "pragma solidity ^0.4.26;\r\nimport \"../OptionsPool.sol\";\r\ncontract OptionsPoolTest is OptionsPool {\r\n        constructor (address oracleAddr,address optionsPriceAddr,address ivAddress) OptionsPool(oracleAddr,optionsPriceAddr,ivAddress) public{\r\n    }\r\n    function getOptionsWorth(uint8 optType,uint256 strikePrice,uint256 underlyingPrice) public pure returns(uint256){\r\n        return _getOptionsWorth(optType,strikePrice,underlyingPrice);\r\n    }\r\n    function getOptionsPayback(uint8 optType,uint256 strikePrice,uint256 underlyingPrice)public pure returns(uint256){\r\n         return _getOptionsPayback(optType,strikePrice,underlyingPrice);\r\n    }\r\n    /*\r\n    function calTimeSharedPrice()public view returns(uint256){\r\n        uint256 timeValue;\r\n        if (begin>=optionPhaseInfo_Share[1] || preTime<optionEx.createdTime){\r\n            timeValue = _calculateFirstTimePrice(optionEx.fullPrice,tempValue,info.strikePrice,\r\n                optionEx.ivNumerator,optionEx.ivDenominator,info.optType);\r\n        }else{\r\n            timeValue = _calculateTimePrice(preTime,tempValue,info.strikePrice,\r\n                optionEx.ivNumerator,optionEx.ivDenominator,info.optType);\r\n        }\r\n    }\r\n    function _calculateFirstTimePrice(uint256 fullPrice,uint256 expiration,uint256 curTime,\r\n            uint256 strikePrice,uint256 ivNumerator,uint256 ivDenominator,uint8 optType)internal view returns (uint256){\r\n        uint256 nowValue = _calculateCurrentPrice(expiration,curTime,strikePrice,ivNumerator,\r\n            ivDenominator,optType);\r\n        return (fullPrice>nowValue)? fullPrice-nowValue : 0;\r\n    }\r\n    function _calculateTimePrice(uint256 preTime,uint256 expiration,uint256 curTime,\r\n            uint256 strikePrice,uint256 ivNumerator,uint256 ivDenominator,uint8 optType)internal view returns (uint256){\r\n        uint256 preValue = _optionsPrice.getOptionsPrice_iv(strikePrice,strikePrice,expiration-preTime,ivNumerator,\r\n            ivDenominator,optType);\r\n        uint256 nowValue = _calculateCurrentPrice(expiration,curTime,strikePrice,ivNumerator,\r\n            ivDenominator,optType);\r\n        return (preValue>nowValue)? preValue-nowValue : 0;\r\n    }\r\n    function _calculateCurrentPrice(uint256 expiration,uint256 curTime,uint256 strikePrice,uint256 ivNumerator,uint256 ivDenominator,uint8 optType)internal view returns (uint256){\r\n        if (expiration > curTime){\r\n        return _optionsPrice.getOptionsPrice_iv(strikePrice,strikePrice,expiration-curTime,ivNumerator,\r\n            ivDenominator,optType);\r\n        }\r\n        return 0;\r\n    }\r\n    */\r\n}\r\n\r\n",
  "sourcePath": "C:\\work\\solidity\\FinnexusOptions_V2\\contracts\\test\\optionPoolTest.sol",
  "compiler": {
    "name": "solc",
    "version": "0.4.26+commit.4563c3fc.Emscripten.clang"
  },
  "schemaVersion": "3.1.0",
  "updatedAt": "2020-08-05T06:53:16.360Z",
  "devdoc": {
    "methods": {
      "addExpiration(uint256)": {
        "details": "Implementation of add an eligible expiration into the expirationList.\r",
        "params": {
          "expiration": "new eligible expiration.\r"
        }
      },
      "addUnderlyingAsset(uint32)": {
        "details": "Implementation of add an eligible underlying into the underlyingAssets.\r",
        "params": {
          "underlying": "new eligible underlying.\r"
        }
      },
      "getExpirationList()": {
        "details": "Implementation of getting the eligible expirationList.\r"
      },
      "getUnderlyingAssets()": {
        "details": "Implementation of getting the eligible underlyingAssets.\r"
      },
      "isEligibleExpiration(uint256)": {
        "details": "Implementation of testing whether the input expiration is eligible.\r",
        "params": {
          "expiration": "input expiration for testing.\r"
        }
      },
      "isEligibleUnderlyingAsset(uint32)": {
        "details": "Implementation of testing whether the input underlying is eligible.\r",
        "params": {
          "underlying": "input underlying for testing.\r"
        }
      },
      "isOwner()": {
        "details": "Returns true if the caller is the current owner."
      },
      "owner()": {
        "details": "Returns the address of the current owner."
      },
      "removeExpirationList(uint256)": {
        "details": "Implementation of revoke an invalid expiration from the expirationList.\r",
        "params": {
          "removeExpiration": "revoked expiration.\r"
        }
      },
      "removeUnderlyingAssets(uint32)": {
        "details": "Implementation of revoke an invalid underlying from the underlyingAssets.\r",
        "params": {
          "removeUnderlying": "revoked underlying.\r"
        }
      },
      "renounceOwnership()": {
        "details": "Leaves the contract without owner. It will not be possible to call `onlyOwner` functions anymore. Can only be called by the current owner.     * NOTE: Renouncing ownership will leave the contract without an owner, thereby removing any functionality that is only available to the owner."
      },
      "transferOwnership(address)": {
        "details": "Transfers ownership of the contract to a new account (`newOwner`). Can only be called by the current owner."
      }
    }
  },
  "userdoc": {
    "methods": {
      "setManager(address)": {
        "notice": "contribution period to stop or not."
      }
    }
  }
}