{
  "contractName": "OptionsMangerV2",
  "abi": [
    {
      "constant": true,
      "inputs": [],
      "name": "name",
      "outputs": [
        {
          "name": "",
          "type": "string"
        }
      ],
      "payable": false,
      "stateMutability": "view",
      "type": "function"
    },
    {
      "constant": false,
      "inputs": [
        {
          "name": "spender",
          "type": "address"
        },
        {
          "name": "amount",
          "type": "uint256"
        }
      ],
      "name": "approve",
      "outputs": [
        {
          "name": "",
          "type": "bool"
        }
      ],
      "payable": false,
      "stateMutability": "nonpayable",
      "type": "function"
    },
    {
      "constant": true,
      "inputs": [],
      "name": "getWhiteList",
      "outputs": [
        {
          "name": "",
          "type": "address[]"
        }
      ],
      "payable": false,
      "stateMutability": "view",
      "type": "function"
    },
    {
      "constant": true,
      "inputs": [],
      "name": "getLeftCollateral",
      "outputs": [
        {
          "name": "",
          "type": "uint256"
        }
      ],
      "payable": false,
      "stateMutability": "view",
      "type": "function"
    },
    {
      "constant": true,
      "inputs": [
        {
          "name": "",
          "type": "address"
        }
      ],
      "name": "netWorthBalances",
      "outputs": [
        {
          "name": "",
          "type": "uint256"
        }
      ],
      "payable": false,
      "stateMutability": "view",
      "type": "function"
    },
    {
      "constant": true,
      "inputs": [],
      "name": "totalSupply",
      "outputs": [
        {
          "name": "",
          "type": "uint256"
        }
      ],
      "payable": false,
      "stateMutability": "view",
      "type": "function"
    },
    {
      "constant": false,
      "inputs": [
        {
          "name": "optionsPool",
          "type": "address"
        }
      ],
      "name": "setOptionsPoolAddress",
      "outputs": [],
      "payable": false,
      "stateMutability": "nonpayable",
      "type": "function"
    },
    {
      "constant": false,
      "inputs": [
        {
          "name": "removeAddress",
          "type": "address"
        }
      ],
      "name": "removeWhiteList",
      "outputs": [
        {
          "name": "",
          "type": "bool"
        }
      ],
      "payable": false,
      "stateMutability": "nonpayable",
      "type": "function"
    },
    {
      "constant": false,
      "inputs": [
        {
          "name": "sender",
          "type": "address"
        },
        {
          "name": "recipient",
          "type": "address"
        },
        {
          "name": "amount",
          "type": "uint256"
        }
      ],
      "name": "transferFrom",
      "outputs": [
        {
          "name": "",
          "type": "bool"
        }
      ],
      "payable": false,
      "stateMutability": "nonpayable",
      "type": "function"
    },
    {
      "constant": true,
      "inputs": [
        {
          "name": "",
          "type": "address"
        }
      ],
      "name": "balances",
      "outputs": [
        {
          "name": "",
          "type": "uint256"
        }
      ],
      "payable": false,
      "stateMutability": "view",
      "type": "function"
    },
    {
      "constant": true,
      "inputs": [
        {
          "name": "",
          "type": "address"
        }
      ],
      "name": "collateralBalances",
      "outputs": [
        {
          "name": "",
          "type": "uint256"
        }
      ],
      "payable": false,
      "stateMutability": "view",
      "type": "function"
    },
    {
      "constant": false,
      "inputs": [],
      "name": "redeemAll",
      "outputs": [],
      "payable": false,
      "stateMutability": "nonpayable",
      "type": "function"
    },
    {
      "constant": true,
      "inputs": [],
      "name": "decimals",
      "outputs": [
        {
          "name": "",
          "type": "uint8"
        }
      ],
      "payable": false,
      "stateMutability": "view",
      "type": "function"
    },
    {
      "constant": true,
      "inputs": [
        {
          "name": "strikePrice",
          "type": "uint256"
        },
        {
          "name": "underlyingPrice",
          "type": "uint256"
        },
        {
          "name": "amount",
          "type": "uint256"
        },
        {
          "name": "optType",
          "type": "uint8"
        }
      ],
      "name": "calOptionsOccupied",
      "outputs": [
        {
          "name": "",
          "type": "uint256"
        }
      ],
      "payable": false,
      "stateMutability": "view",
      "type": "function"
    },
    {
      "constant": true,
      "inputs": [
        {
          "name": "feeType",
          "type": "uint256"
        },
        {
          "name": "amount",
          "type": "uint256"
        }
      ],
      "name": "calculateFee",
      "outputs": [
        {
          "name": "",
          "type": "uint256"
        }
      ],
      "payable": false,
      "stateMutability": "view",
      "type": "function"
    },
    {
      "constant": false,
      "inputs": [
        {
          "name": "spender",
          "type": "address"
        },
        {
          "name": "addedValue",
          "type": "uint256"
        }
      ],
      "name": "increaseAllowance",
      "outputs": [
        {
          "name": "",
          "type": "bool"
        }
      ],
      "payable": false,
      "stateMutability": "nonpayable",
      "type": "function"
    },
    {
      "constant": true,
      "inputs": [
        {
          "name": "user",
          "type": "address"
        }
      ],
      "name": "getUserPayingUsd",
      "outputs": [
        {
          "name": "",
          "type": "uint256"
        }
      ],
      "payable": false,
      "stateMutability": "view",
      "type": "function"
    },
    {
      "constant": false,
      "inputs": [
        {
          "name": "oracle",
          "type": "address"
        }
      ],
      "name": "setOracleAddress",
      "outputs": [],
      "payable": false,
      "stateMutability": "nonpayable",
      "type": "function"
    },
    {
      "constant": true,
      "inputs": [
        {
          "name": "",
          "type": "address"
        }
      ],
      "name": "feeBalances",
      "outputs": [
        {
          "name": "",
          "type": "uint256"
        }
      ],
      "payable": false,
      "stateMutability": "view",
      "type": "function"
    },
    {
      "constant": true,
      "inputs": [],
      "name": "collateralRate",
      "outputs": [
        {
          "name": "numerator",
          "type": "uint256"
        },
        {
          "name": "denominator",
          "type": "uint256"
        }
      ],
      "payable": false,
      "stateMutability": "view",
      "type": "function"
    },
    {
      "constant": true,
      "inputs": [
        {
          "name": "",
          "type": "uint256"
        }
      ],
      "name": "whiteList",
      "outputs": [
        {
          "name": "",
          "type": "address"
        }
      ],
      "payable": false,
      "stateMutability": "view",
      "type": "function"
    },
    {
      "constant": true,
      "inputs": [],
      "name": "getOptionsPriceAddress",
      "outputs": [
        {
          "name": "",
          "type": "address"
        }
      ],
      "payable": false,
      "stateMutability": "view",
      "type": "function"
    },
    {
      "constant": false,
      "inputs": [
        {
          "name": "collateral",
          "type": "address"
        },
        {
          "name": "amount",
          "type": "uint256"
        }
      ],
      "name": "addCollateral",
      "outputs": [],
      "payable": true,
      "stateMutability": "payable",
      "type": "function"
    },
    {
      "constant": true,
      "inputs": [
        {
          "name": "account",
          "type": "address"
        }
      ],
      "name": "balanceOf",
      "outputs": [
        {
          "name": "",
          "type": "uint256"
        }
      ],
      "payable": false,
      "stateMutability": "view",
      "type": "function"
    },
    {
      "constant": false,
      "inputs": [],
      "name": "renounceOwnership",
      "outputs": [],
      "payable": false,
      "stateMutability": "nonpayable",
      "type": "function"
    },
    {
      "constant": true,
      "inputs": [
        {
          "name": "tmpAddress",
          "type": "address"
        }
      ],
      "name": "isEligibleAddress",
      "outputs": [
        {
          "name": "",
          "type": "bool"
        }
      ],
      "payable": false,
      "stateMutability": "view",
      "type": "function"
    },
    {
      "constant": true,
      "inputs": [],
      "name": "getCollateralRate",
      "outputs": [
        {
          "name": "",
          "type": "uint256"
        },
        {
          "name": "",
          "type": "uint256"
        }
      ],
      "payable": false,
      "stateMutability": "view",
      "type": "function"
    },
    {
      "constant": true,
      "inputs": [],
      "name": "owner",
      "outputs": [
        {
          "name": "",
          "type": "address"
        }
      ],
      "payable": false,
      "stateMutability": "view",
      "type": "function"
    },
    {
      "constant": true,
      "inputs": [],
      "name": "isOwner",
      "outputs": [
        {
          "name": "",
          "type": "bool"
        }
      ],
      "payable": false,
      "stateMutability": "view",
      "type": "function"
    },
    {
      "constant": false,
      "inputs": [
        {
          "name": "currency",
          "type": "address"
        }
      ],
      "name": "redeem",
      "outputs": [],
      "payable": false,
      "stateMutability": "nonpayable",
      "type": "function"
    },
    {
      "constant": true,
      "inputs": [],
      "name": "symbol",
      "outputs": [
        {
          "name": "",
          "type": "string"
        }
      ],
      "payable": false,
      "stateMutability": "view",
      "type": "function"
    },
    {
      "constant": false,
      "inputs": [
        {
          "name": "calInfo",
          "type": "uint256"
        }
      ],
      "name": "setPhaseSharedPayment",
      "outputs": [],
      "payable": false,
      "stateMutability": "nonpayable",
      "type": "function"
    },
    {
      "constant": false,
      "inputs": [
        {
          "name": "optionsPrice",
          "type": "address"
        }
      ],
      "name": "setOptionsPriceAddress",
      "outputs": [],
      "payable": false,
      "stateMutability": "nonpayable",
      "type": "function"
    },
    {
      "constant": false,
      "inputs": [
        {
          "name": "tokenAmount",
          "type": "uint256"
        },
        {
          "name": "collateral",
          "type": "address"
        }
      ],
      "name": "redeemCollateral",
      "outputs": [],
      "payable": false,
      "stateMutability": "nonpayable",
      "type": "function"
    },
    {
      "constant": false,
      "inputs": [
        {
          "name": "spender",
          "type": "address"
        },
        {
          "name": "subtractedValue",
          "type": "uint256"
        }
      ],
      "name": "decreaseAllowance",
      "outputs": [
        {
          "name": "",
          "type": "bool"
        }
      ],
      "payable": false,
      "stateMutability": "nonpayable",
      "type": "function"
    },
    {
      "constant": false,
      "inputs": [
        {
          "name": "recipient",
          "type": "address"
        },
        {
          "name": "amount",
          "type": "uint256"
        }
      ],
      "name": "transfer",
      "outputs": [
        {
          "name": "",
          "type": "bool"
        }
      ],
      "payable": false,
      "stateMutability": "nonpayable",
      "type": "function"
    },
    {
      "constant": true,
      "inputs": [],
      "name": "getOracleAddress",
      "outputs": [
        {
          "name": "",
          "type": "address"
        }
      ],
      "payable": false,
      "stateMutability": "view",
      "type": "function"
    },
    {
      "constant": true,
      "inputs": [
        {
          "name": "user",
          "type": "address"
        },
        {
          "name": "collateral",
          "type": "address"
        }
      ],
      "name": "userInputCollateral",
      "outputs": [
        {
          "name": "",
          "type": "uint256"
        }
      ],
      "payable": false,
      "stateMutability": "view",
      "type": "function"
    },
    {
      "constant": true,
      "inputs": [],
      "name": "halted",
      "outputs": [
        {
          "name": "",
          "type": "bool"
        }
      ],
      "payable": false,
      "stateMutability": "view",
      "type": "function"
    },
    {
      "constant": false,
      "inputs": [
        {
          "name": "feeType",
          "type": "uint256"
        },
        {
          "name": "numerator",
          "type": "uint256"
        },
        {
          "name": "denominator",
          "type": "uint256"
        }
      ],
      "name": "setTransactionFee",
      "outputs": [],
      "payable": false,
      "stateMutability": "nonpayable",
      "type": "function"
    },
    {
      "constant": true,
      "inputs": [],
      "name": "getOptionsPoolAddress",
      "outputs": [
        {
          "name": "",
          "type": "address"
        }
      ],
      "payable": false,
      "stateMutability": "view",
      "type": "function"
    },
    {
      "constant": true,
      "inputs": [],
      "name": "getTokenNetworth",
      "outputs": [
        {
          "name": "",
          "type": "uint256"
        }
      ],
      "payable": false,
      "stateMutability": "view",
      "type": "function"
    },
    {
      "constant": true,
      "inputs": [
        {
          "name": "settlement",
          "type": "address"
        }
      ],
      "name": "getFeeBalance",
      "outputs": [
        {
          "name": "",
          "type": "uint256"
        }
      ],
      "payable": false,
      "stateMutability": "view",
      "type": "function"
    },
    {
      "constant": false,
      "inputs": [
        {
          "name": "calInfo",
          "type": "uint256"
        },
        {
          "name": "sharedBalances",
          "type": "int256[]"
        },
        {
          "name": "prices",
          "type": "uint256[]"
        },
        {
          "name": "firstOption",
          "type": "uint256"
        },
        {
          "name": "calTime",
          "type": "uint256"
        }
      ],
      "name": "setSharedPayment",
      "outputs": [],
      "payable": false,
      "stateMutability": "nonpayable",
      "type": "function"
    },
    {
      "constant": true,
      "inputs": [],
      "name": "getOccupiedCollateral",
      "outputs": [
        {
          "name": "",
          "type": "uint256"
        }
      ],
      "payable": false,
      "stateMutability": "view",
      "type": "function"
    },
    {
      "constant": true,
      "inputs": [
        {
          "name": "feeType",
          "type": "uint256"
        }
      ],
      "name": "getFeeRate",
      "outputs": [
        {
          "name": "",
          "type": "uint256"
        },
        {
          "name": "",
          "type": "uint256"
        }
      ],
      "payable": false,
      "stateMutability": "view",
      "type": "function"
    },
    {
      "constant": true,
      "inputs": [],
      "name": "getTotalCollateral",
      "outputs": [
        {
          "name": "",
          "type": "uint256"
        }
      ],
      "payable": false,
      "stateMutability": "view",
      "type": "function"
    },
    {
      "constant": true,
      "inputs": [
        {
          "name": "owner",
          "type": "address"
        },
        {
          "name": "spender",
          "type": "address"
        }
      ],
      "name": "allowance",
      "outputs": [
        {
          "name": "",
          "type": "uint256"
        }
      ],
      "payable": false,
      "stateMutability": "view",
      "type": "function"
    },
    {
      "constant": true,
      "inputs": [
        {
          "name": "",
          "type": "address"
        }
      ],
      "name": "userCollateralPaying",
      "outputs": [
        {
          "name": "",
          "type": "uint256"
        }
      ],
      "payable": false,
      "stateMutability": "view",
      "type": "function"
    },
    {
      "constant": true,
      "inputs": [
        {
          "name": "",
          "type": "uint256"
        }
      ],
      "name": "FeeRates",
      "outputs": [
        {
          "name": "numerator",
          "type": "uint256"
        },
        {
          "name": "denominator",
          "type": "uint256"
        }
      ],
      "payable": false,
      "stateMutability": "view",
      "type": "function"
    },
    {
      "constant": false,
      "inputs": [
        {
          "name": "addAddress",
          "type": "address"
        }
      ],
      "name": "addWhiteList",
      "outputs": [],
      "payable": false,
      "stateMutability": "nonpayable",
      "type": "function"
    },
    {
      "constant": false,
      "inputs": [
        {
          "name": "numerator",
          "type": "uint256"
        },
        {
          "name": "denominator",
          "type": "uint256"
        }
      ],
      "name": "setCollateralRate",
      "outputs": [],
      "payable": false,
      "stateMutability": "nonpayable",
      "type": "function"
    },
    {
      "constant": true,
      "inputs": [],
      "name": "getAllFeeBalances",
      "outputs": [
        {
          "name": "",
          "type": "address[]"
        },
        {
          "name": "",
          "type": "uint256[]"
        }
      ],
      "payable": false,
      "stateMutability": "view",
      "type": "function"
    },
    {
      "constant": false,
      "inputs": [
        {
          "name": "newOwner",
          "type": "address"
        }
      ],
      "name": "transferOwnership",
      "outputs": [],
      "payable": false,
      "stateMutability": "nonpayable",
      "type": "function"
    },
    {
      "constant": false,
      "inputs": [
        {
          "name": "halt",
          "type": "bool"
        }
      ],
      "name": "setHalt",
      "outputs": [],
      "payable": false,
      "stateMutability": "nonpayable",
      "type": "function"
    },
    {
      "constant": true,
      "inputs": [
        {
          "name": "tmpAddress",
          "type": "address"
        }
      ],
      "name": "checkEligibleAddress",
      "outputs": [],
      "payable": false,
      "stateMutability": "view",
      "type": "function"
    },
    {
      "inputs": [
        {
          "name": "oracleAddr",
          "type": "address"
        },
        {
          "name": "optionsPriceAddr",
          "type": "address"
        },
        {
          "name": "optionsPoolAddr",
          "type": "address"
        }
      ],
      "payable": false,
      "stateMutability": "nonpayable",
      "type": "constructor"
    },
    {
      "anonymous": false,
      "inputs": [
        {
          "indexed": true,
          "name": "from",
          "type": "address"
        },
        {
          "indexed": true,
          "name": "settlement",
          "type": "address"
        },
        {
          "indexed": true,
          "name": "optionId",
          "type": "uint256"
        },
        {
          "indexed": false,
          "name": "optionPrice",
          "type": "uint256"
        },
        {
          "indexed": false,
          "name": "settlementAmount",
          "type": "uint256"
        },
        {
          "indexed": false,
          "name": "optionAmount",
          "type": "uint256"
        }
      ],
      "name": "BuyOption",
      "type": "event"
    },
    {
      "anonymous": false,
      "inputs": [
        {
          "indexed": true,
          "name": "from",
          "type": "address"
        },
        {
          "indexed": true,
          "name": "optionId",
          "type": "uint256"
        },
        {
          "indexed": false,
          "name": "amount",
          "type": "uint256"
        },
        {
          "indexed": false,
          "name": "sellValue",
          "type": "uint256"
        }
      ],
      "name": "SellOption",
      "type": "event"
    },
    {
      "anonymous": false,
      "inputs": [
        {
          "indexed": true,
          "name": "from",
          "type": "address"
        },
        {
          "indexed": true,
          "name": "optionId",
          "type": "uint256"
        },
        {
          "indexed": false,
          "name": "amount",
          "type": "uint256"
        },
        {
          "indexed": false,
          "name": "sellValue",
          "type": "uint256"
        }
      ],
      "name": "ExerciseOption",
      "type": "event"
    },
    {
      "anonymous": false,
      "inputs": [
        {
          "indexed": false,
          "name": "value0",
          "type": "uint256"
        },
        {
          "indexed": false,
          "name": "value1",
          "type": "uint256"
        },
        {
          "indexed": false,
          "name": "value2",
          "type": "uint256"
        },
        {
          "indexed": false,
          "name": "value3",
          "type": "uint256"
        }
      ],
      "name": "DebugEvent",
      "type": "event"
    },
    {
      "anonymous": false,
      "inputs": [
        {
          "indexed": true,
          "name": "from",
          "type": "address"
        },
        {
          "indexed": true,
          "name": "collateral",
          "type": "address"
        },
        {
          "indexed": false,
          "name": "amount",
          "type": "uint256"
        },
        {
          "indexed": false,
          "name": "tokenAmount",
          "type": "uint256"
        }
      ],
      "name": "AddCollateral",
      "type": "event"
    },
    {
      "anonymous": false,
      "inputs": [
        {
          "indexed": true,
          "name": "from",
          "type": "address"
        },
        {
          "indexed": false,
          "name": "tokenAmount",
          "type": "uint256"
        }
      ],
      "name": "RedeemCollateral",
      "type": "event"
    },
    {
      "anonymous": false,
      "inputs": [
        {
          "indexed": true,
          "name": "value1",
          "type": "uint256"
        },
        {
          "indexed": true,
          "name": "value2",
          "type": "uint256"
        },
        {
          "indexed": true,
          "name": "value3",
          "type": "uint256"
        }
      ],
      "name": "DebugEvent",
      "type": "event"
    },
    {
      "anonymous": false,
      "inputs": [
        {
          "indexed": true,
          "name": "from",
          "type": "address"
        },
        {
          "indexed": true,
          "name": "to",
          "type": "address"
        },
        {
          "indexed": false,
          "name": "value",
          "type": "uint256"
        }
      ],
      "name": "Transfer",
      "type": "event"
    },
    {
      "anonymous": false,
      "inputs": [
        {
          "indexed": true,
          "name": "owner",
          "type": "address"
        },
        {
          "indexed": true,
          "name": "spender",
          "type": "address"
        },
        {
          "indexed": false,
          "name": "value",
          "type": "uint256"
        }
      ],
      "name": "Approval",
      "type": "event"
    },
    {
      "anonymous": false,
      "inputs": [
        {
          "indexed": true,
          "name": "recieptor",
          "type": "address"
        },
        {
          "indexed": true,
          "name": "settlement",
          "type": "address"
        },
        {
          "indexed": false,
          "name": "payback",
          "type": "uint256"
        }
      ],
      "name": "FeePayback",
      "type": "event"
    },
    {
      "anonymous": false,
      "inputs": [
        {
          "indexed": true,
          "name": "settlement",
          "type": "address"
        },
        {
          "indexed": false,
          "name": "payback",
          "type": "uint256"
        }
      ],
      "name": "AddFee",
      "type": "event"
    },
    {
      "anonymous": false,
      "inputs": [
        {
          "indexed": true,
          "name": "recieptor",
          "type": "address"
        },
        {
          "indexed": true,
          "name": "settlement",
          "type": "address"
        },
        {
          "indexed": false,
          "name": "payback",
          "type": "uint256"
        }
      ],
      "name": "TransferPayback",
      "type": "event"
    },
    {
      "anonymous": false,
      "inputs": [
        {
          "indexed": true,
          "name": "previousOwner",
          "type": "address"
        },
        {
          "indexed": true,
          "name": "newOwner",
          "type": "address"
        }
      ],
      "name": "OwnershipTransferred",
      "type": "event"
    },
    {
      "constant": false,
      "inputs": [
        {
          "name": "settlement",
          "type": "address"
        },
        {
          "name": "settlementAmount",
          "type": "uint256"
        },
        {
          "name": "strikePrice",
          "type": "uint256"
        },
        {
          "name": "underlying",
          "type": "uint32"
        },
        {
          "name": "expiration",
          "type": "uint256"
        },
        {
          "name": "amount",
          "type": "uint256"
        },
        {
          "name": "optType",
          "type": "uint8"
        }
      ],
      "name": "buyOption",
      "outputs": [],
      "payable": true,
      "stateMutability": "payable",
      "type": "function"
    },
    {
      "constant": false,
      "inputs": [
        {
          "name": "optionsId",
          "type": "uint256"
        },
        {
          "name": "amount",
          "type": "uint256"
        }
      ],
      "name": "sellOption",
      "outputs": [],
      "payable": false,
      "stateMutability": "nonpayable",
      "type": "function"
    },
    {
      "constant": false,
      "inputs": [
        {
          "name": "optionsId",
          "type": "uint256"
        },
        {
          "name": "amount",
          "type": "uint256"
        }
      ],
      "name": "exerciseOption",
      "outputs": [],
      "payable": false,
      "stateMutability": "nonpayable",
      "type": "function"
    }
  ],
  "bytecode": "0x6000805460ff60a860020a60ff02011916905560c0604052600a60808190527f536861726564436f696e0000000000000000000000000000000000000000000060a090815262000053916004919062000479565b506040805180820190915260058082527f53436f696e000000000000000000000000000000000000000000000000000000602090920191825262000098918162000479565b50600060085560408051808201909152600380825260016020909201829052600b55600c55348015620000ca57600080fd5b5060405160608062004f818339810160408181528251602084015191909301516000805461010033810261010060a860020a0319909216919091178083559394929304600160a060020a0316917f8be0079c531659141344cd1fd0a4f28419497f9722a3daafe3b4186f6b6457e0908290a360408051808201825260038082526103e860208084018281528354600181810186556000868152965160029283027fc2575a0e9e593c00f959f8c92f12db2869c3395a3b0502d05e2516446f71f85b8181019290925593517fc2575a0e9e593c00f959f8c92f12db2869c3395a3b0502d05e2516446f71f85c948501558851808a018a5287815280860187815288548085018a55898b5291519185028084019290925551908501558851808a018a5287815280860187815288548085018a55898b5291519185028084019290925551908501558851808a018a5287815280860187815288548085018a55898b5291519185028084019290925551908501558851808a01909952868952938801948552855490810186559490955294519290930292830191909155519101556200027b83640100000000620002ac810204565b6200028f826401000000006200033e810204565b620002a381640100000000620003d0810204565b5050506200051b565b620002bf64010000000062000462810204565b15156200031c57604080517f08c379a0000000000000000000000000000000000000000000000000000000008152602060048201819052602482015260008051602062004f61833981519152604482015290519081900360640190fd5b60098054600160a060020a031916600160a060020a0392909216919091179055565b6200035164010000000062000462810204565b1515620003ae57604080517f08c379a0000000000000000000000000000000000000000000000000000000008152602060048201819052602482015260008051602062004f61833981519152604482015290519081900360640190fd5b60118054600160a060020a031916600160a060020a0392909216919091179055565b620003e364010000000062000462810204565b15156200044057604080517f08c379a0000000000000000000000000000000000000000000000000000000008152602060048201819052602482015260008051602062004f61833981519152604482015290519081900360640190fd5b600a8054600160a060020a031916600160a060020a0392909216919091179055565b6000546101009004600160a060020a031633145b90565b828054600181600116156101000203166002900490600052602060002090601f016020900481019282601f10620004bc57805160ff1916838001178555620004ec565b82800160010185558215620004ec579182015b82811115620004ec578251825591602001919060010190620004cf565b50620004fa929150620004fe565b5090565b6200047691905b80821115620004fa576000815560010162000505565b614a36806200052b6000396000f3006080604052600436106102a55763ffffffff60e060020a60003504166306fdde0381146102aa578063095ea7b31461033457806309a9d76c1461036c5780630aaf3832146103d15780630ecfad1e146103f857806318160ddd146104195780631a5a3fce1461042e5780632042e5c21461045157806323b872dd1461047257806327e235e31461049c57806329bc969d146104bd5780632f4350c2146104de578063313ce567146104f357806332c82a5f1461051e57806334e7312214610542578063395093511461055d57806342049a72146105815780634c69c00f146105a257806353afc025146105c357806358a6be1c146105e45780635c475d42146106125780635ca4b73b146106465780636d75b9ee1461065b57806370a0823114610672578063715018a6146106935780637c9c6712146106a8578063817bf86d146106c3578063852185fc146106e45780638da5cb5b146106f95780638f32d59b1461070e578063925c482c1461072357806395a2251f1461075257806395d89b4114610773578063a04115f614610788578063a093e2d0146107a0578063a20a8045146107c1578063a457c2d7146107e5578063a9059cbb14610809578063b18b78dd1461082d578063b4d5a9c714610842578063b9b8af0b14610869578063bf36b1101461087e578063c040725a1461089c578063c5e5a3ed146108b1578063c78f6803146108c6578063c7e2f8bd146108e7578063cd40581914610983578063d189290414610998578063d2aaef4e146109b3578063d6eb5910146109cb578063dd62ed3e146109e0578063ddb944e514610a07578063e0561aa114610a28578063e7cd4a0414610a40578063ef63e1f714610a61578063f20568cd14610a7c578063f2fde38b14610b2a578063f495438714610b4b578063f939fdca14610b65575b600080fd5b3480156102b657600080fd5b506102bf610b86565b6040805160208082528351818301528351919283929083019185019080838360005b838110156102f95781810151838201526020016102e1565b50505050905090810190601f1680156103265780820380516001836020036101000a031916815260200191505b509250505060405180910390f35b34801561034057600080fd5b50610358600160a060020a0360043516602435610c14565b604080519115158252519081900360200190f35b34801561037857600080fd5b50610381610c2a565b60408051602080825283518183015283519192839290830191858101910280838360005b838110156103bd5781810151838201526020016103a5565b505050509050019250505060405180910390f35b3480156103dd57600080fd5b506103e6610c8d565b60408051918252519081900360200190f35b34801561040457600080fd5b506103e6600160a060020a0360043516610cb3565b34801561042557600080fd5b506103e6610cc5565b34801561043a57600080fd5b5061044f600160a060020a0360043516610ccb565b005b34801561045d57600080fd5b50610358600160a060020a0360043516610d46565b34801561047e57600080fd5b50610358600160a060020a0360043581169060243516604435610da5565b3480156104a857600080fd5b506103e6600160a060020a0360043516610e58565b3480156104c957600080fd5b506103e6600160a060020a0360043516610e6a565b3480156104ea57600080fd5b5061044f610e7c565b3480156104ff57600080fd5b50610508610f0f565b6040805160ff9092168252519081900360200190f35b34801561052a57600080fd5b506103e660043560243560443560ff60643516610f14565b34801561054e57600080fd5b506103e6600435602435610f62565b34801561056957600080fd5b50610358600160a060020a0360043516602435610fa9565b34801561058d57600080fd5b506103e6600160a060020a0360043516610fe5565b3480156105ae57600080fd5b5061044f600160a060020a0360043516611000565b3480156105cf57600080fd5b506103e6600160a060020a036004351661107b565b3480156105f057600080fd5b506105f961108d565b6040805192835260208301919091528051918290030190f35b34801561061e57600080fd5b5061062a600435611096565b60408051600160a060020a039092168252519081900360200190f35b34801561065257600080fd5b5061062a6110be565b61044f600160a060020a03600435166024356110cd565b34801561067e57600080fd5b506103e6600160a060020a0360043516611352565b34801561069f57600080fd5b5061044f61136d565b3480156106b457600080fd5b5061044f600435602435611415565b3480156106cf57600080fd5b50610358600160a060020a03600435166115f0565b3480156106f057600080fd5b506105f9611656565b34801561070557600080fd5b5061062a611660565b34801561071a57600080fd5b50610358611674565b61044f600160a060020a036004351660243560443563ffffffff6064351660843560a43560ff60c4351661168a565b34801561075e57600080fd5b5061044f600160a060020a03600435166119a9565b34801561077f57600080fd5b506102bf611b99565b34801561079457600080fd5b5061044f600435611bf4565b3480156107ac57600080fd5b5061044f600160a060020a0360043516611f9e565b3480156107cd57600080fd5b5061044f600435600160a060020a0360243516612019565b3480156107f157600080fd5b50610358600160a060020a0360043516602435612205565b34801561081557600080fd5b50610358600160a060020a036004351660243561229e565b34801561083957600080fd5b5061062a6122ab565b34801561084e57600080fd5b506103e6600160a060020a03600435811690602435166122ba565b34801561087557600080fd5b506103586122e5565b34801561088a57600080fd5b5061044f600435602435604435612307565b3480156108a857600080fd5b5061062a61236b565b3480156108bd57600080fd5b506103e661237a565b3480156108d257600080fd5b506103e6600160a060020a03600435166123ac565b3480156108f357600080fd5b5060408051602060046024803582810135848102808701860190975280865261044f96843596369660449591949091019291829185019084908082843750506040805187358901803560208181028481018201909552818452989b9a9989019892975090820195509350839250850190849080828437509497505084359550505060209092013591506123c79050565b34801561098f57600080fd5b506103e6612601565b3480156109a457600080fd5b5061044f600435602435612695565b3480156109bf57600080fd5b506105f96004356129fb565b3480156109d757600080fd5b506103e6612a1c565b3480156109ec57600080fd5b506103e6600160a060020a0360043581169060243516612b24565b348015610a1357600080fd5b506103e6600160a060020a0360043516612b4f565b348015610a3457600080fd5b506105f9600435612b61565b348015610a4c57600080fd5b5061044f600160a060020a0360043516612b8d565b348015610a6d57600080fd5b5061044f600435602435612be4565b348015610a8857600080fd5b50610a91612c3b565b604051808060200180602001838103835285818151815260200191508051906020019060200280838360005b83811015610ad5578181015183820152602001610abd565b50505050905001838103825284818151815260200191508051906020019060200280838360005b83811015610b14578181015183820152602001610afc565b5050505090500194505050505060405180910390f35b348015610b3657600080fd5b5061044f600160a060020a0360043516612d44565b348015610b5757600080fd5b5061044f6004351515612d99565b348015610b7157600080fd5b5061044f600160a060020a0360043516612e27565b6004805460408051602060026001851615610100026000190190941693909304601f81018490048402820184019092528181529291830182828015610c0c5780601f10610be157610100808354040283529160200191610c0c565b820191906000526020600020905b815481529060010190602001808311610bef57829003601f168201915b505050505081565b6000610c21338484612e8b565b50600192915050565b60606001805480602002602001604051908101604052809291908181526020018280548015610c8257602002820191906000526020600020905b8154600160a060020a03168152600190910190602001808311610c64575b505050505090505b90565b6000610cae610c9a612601565b610ca2612a1c565b9063ffffffff612ff816565b905090565b600d6020526000908152604090205481565b60085490565b610cd3611674565b1515610d17576040805160e560020a62461bcd02815260206004820181905260248201526000805160206149eb833981519152604482015290519081900360640190fd5b600a805473ffffffffffffffffffffffffffffffffffffffff1916600160a060020a0392909216919091179055565b6000610d50611674565b1515610d94576040805160e560020a62461bcd02815260206004820181905260248201526000805160206149eb833981519152604482015290519081900360640190fd5b610d9f600183613041565b92915050565b6000610db284848461312e565b60408051606081018252602881527f45524332303a207472616e7366657220616d6f756e74206578636565647320616020808301919091527f6c6c6f77616e636500000000000000000000000000000000000000000000000082840152600160a060020a0387166000908152600782528381203380835292529290922054610e4e9287929091610e4991879063ffffffff61329e16565b612e8b565b5060019392505050565b60066020526000908152604090205481565b600e6020526000908152604090205481565b6000610e86611674565b1515610eca576040805160e560020a62461bcd02815260206004820181905260248201526000805160206149eb833981519152604482015290519081900360640190fd5b5060005b600154811015610f0c57610f04600182815481101515610eea57fe5b600091825260209091200154600160a060020a03166119a9565b600101610ece565b50565b601281565b60008060ff8316158587111415610f3c57610f35868563ffffffff61333b16565b9050610f4f565b610f4c858563ffffffff61333b16565b90505b610f58816133e5565b9695505050505050565b6000806000610f7085613414565b8054909250610f85908563ffffffff61333b16565b9050610f9e82600101548261349390919063ffffffff16565b92505b505092915050565b336000818152600760209081526040808320600160a060020a03871684529091528120549091610c21918590610e49908663ffffffff6134d516565b600160a060020a03166000908152600f602052604090205490565b611008611674565b151561104c576040805160e560020a62461bcd02815260206004820181905260248201526000805160206149eb833981519152604482015290519081900360640190fd5b6009805473ffffffffffffffffffffffffffffffffffffffff1916600160a060020a0392909216919091179055565b60026020526000908152604090205481565b600b54600c5482565b60018054829081106110a457fe5b600091825260209091200154600160a060020a0316905081565b601154600160a060020a031690565b6000806000806110dd8686613532565b945060008511611137576040805160e560020a62461bcd02815260206004820152601a60248201527f736574746c656d656e7420616d6f756e74206973207a65726f21000000000000604482015290519081900360640190fd5b611142600386610f62565b935061114e8685613665565b61115e858563ffffffff612ff816565b6009546040805160e060020a6341976e09028152600160a060020a038a8116600483015291519398509116916341976e09916024808201926020929091908290030181600087803b1580156111b257600080fd5b505af11580156111c6573d6000803e3d6000fd5b505050506040513d60208110156111dc57600080fd5b505192506111f0838663ffffffff61333b16565b915061120a6111fd61237a565b839063ffffffff61349316565b336000908152600f602052604090205490915061122d908363ffffffff6134d516565b336000908152600f6020908152604080832093909355600160a060020a0389168252600e90522054611265908663ffffffff6134d516565b600160a060020a0387166000818152600e6020908152604080832094909455338252601081528382209282529190915220546112a7908663ffffffff6134d516565b336000908152601060209081526040808320600160a060020a038b168452825280832093909355600d905220546112e4908663ffffffff6134d516565b600160a060020a0387166000818152600d60209081526040918290209390935580518881529283018490528051919233927f33a089d94f9a0b7d0fe21e69b40d7dbe1965be652c7382cc778d46963db8c49b929181900390910190a361134a33826136e4565b505050505050565b600160a060020a031660009081526006602052604090205490565b611375611674565b15156113b9576040805160e560020a62461bcd02815260206004820181905260248201526000805160206149eb833981519152604482015290519081900360640190fd5b60008054604051610100909104600160a060020a0316907f8be0079c531659141344cd1fd0a4f28419497f9722a3daafe3b4186f6b6457e0908390a36000805474ffffffffffffffffffffffffffffffffffffffff0019169055565b600080821161146e576040805160e560020a62461bcd02815260206004820152601860248201527f657865726369736520616d6f756e74206973207a65726f210000000000000000604482015290519081900360640190fd5b600a54604080517f67b8ceb900000000000000000000000000000000000000000000000000000000815260048101869052602481018590529051600160a060020a03909216916367b8ceb9916044808201926020929091908290030181600087803b1580156114dc57600080fd5b505af11580156114f0573d6000803e3d6000fd5b505050506040513d602081101561150657600080fd5b50519050801515611516576115eb565b600a54604080517f74e85fd200000000000000000000000000000000000000000000000000000000815233600482015260248101869052604481018590529051600160a060020a03909216916374e85fd29160648082019260009290919082900301818387803b15801561158957600080fd5b505af115801561159d573d6000803e3d6000fd5b5050604080518581526020810185905281518794503393507fc939d87d6a5458cd262393bdb2c5408330b7647ca14b752229b0301858a29972929181900390910190a36115eb8160026137a9565b505050565b6000610d9f600180548060200260200160405190810160405280929190818152602001828054801561164b57602002820191906000526020600020905b8154600160a060020a0316815260019091019060200180831161162d575b5050505050836139b9565b600b54600c549091565b6000546101009004600160a060020a031690565b6000546101009004600160a060020a0316331490565b600a54604080517f3ad2fb570000000000000000000000000000000000000000000000000000000081526004810186905263ffffffff87166024820152905160009283928392600160a060020a0390921691633ad2fb5791604480820192869290919082900301818387803b15801561170257600080fd5b505af1158015611716573d6000803e3d6000fd5b505050506117308460ff168863ffffffff16886000613a0a565b600954604080517fda66325700000000000000000000000000000000000000000000000000000000815263ffffffff8b1660048201529051929550600160a060020a039091169163da663257916024808201926020929091908290030181600087803b15801561179f57600080fd5b505af11580156117b3573d6000803e3d6000fd5b505050506040513d60208110156117c957600080fd5b5051601154604080517f4b7d8e5c00000000000000000000000000000000000000000000000000000000815260048101849052602481018c9052604481018a905263ffffffff8b16606482015260ff881660848201529051929450600160a060020a0390911691634b7d8e5c9160a4808201926020929091908290030181600087803b15801561185857600080fd5b505af115801561186c573d6000803e3d6000fd5b505050506040513d602081101561188257600080fd5b5051905061189288838787610f14565b61189a610c8d565b10156118f0576040805160e560020a62461bcd02815260206004820152601b60248201527f636f6c6c61746572616c20697320696e73756666696369656e74210000000000604482015290519081900360640190fd5b600a54604080517f924a69ce000000000000000000000000000000000000000000000000000000008152336004820152600160a060020a038d8116602483015260448201879052606482018c90526084820186905260a482018990529151919092169163924a69ce9160c480830192600092919082900301818387803b15801561197957600080fd5b505af115801561198d573d6000803e3d6000fd5b5050505061199d8a8a8388613a52565b50505050505050505050565b6000806119b4611674565b15156119f8576040805160e560020a62461bcd02815260206004820181905260248201526000805160206149eb833981519152604482015290519081900360640190fd5b600160a060020a03831660009081526002602052604081205492508211611a69576040805160e560020a62461bcd02815260206004820152601260248201527f4974277320656d7074792062616c616e63650000000000000000000000000000604482015290519081900360640190fd5b600160a060020a0383166000818152600260205260408120551515611abb57604051339083156108fc029084906000818181858888f19350505050158015611ab5573d6000803e3d6000fd5b50611b54565b50604080517fa9059cbb0000000000000000000000000000000000000000000000000000000081523360048201526024810183905290518391600160a060020a0383169163a9059cbb916044808201926020929091908290030181600087803b158015611b2757600080fd5b505af1158015611b3b573d6000803e3d6000fd5b505050506040513d6020811015611b5157600080fd5b50505b604080518381529051600160a060020a0385169133917f747147be90b2a81a2e929994a92cd7bb71396bdbfd02f181867c81187d4f79449181900360200190a3505050565b6005805460408051602060026001851615610100026000190190941693909304601f81018490048402820184019092528181529291830182828015610c0c5780601f10610be157610100808354040283529160200191610c0c565b60606000806060806000611c06611674565b1515611c4a576040805160e560020a62461bcd02815260206004820181905260248201526000805160206149eb833981519152604482015290519081900360640190fd5b600a54604080517faf70df12000000000000000000000000000000000000000000000000000000008152600481018a8152602482019283526001805460448401819052600160a060020a039095169463af70df12948d94929392909160649091019084908015611ce357602002820191906000526020600020905b8154600160a060020a03168152600190910190602001808311611cc5575b50509350505050600060405180830381600087803b158015611d0457600080fd5b505af1158015611d18573d6000803e3d6000fd5b505050506040513d6000823e601f3d908101601f191682016040526060811015611d4157600080fd5b810190808051640100000000811115611d5957600080fd5b82016020810184811115611d6c57600080fd5b8151856020820283011164010000000082111715611d8957600080fd5b5050602082015160409092015190995090975095505084159050611f9557600a54604080517fe5081c40000000000000000000000000000000000000000000000000000000008152600481018a8152602482019283526001805460448401819052600160a060020a039095169463e5081c40948d94929392909160649091019084908015611e4057602002820191906000526020600020905b8154600160a060020a03168152600190910190602001808311611e22575b50509350505050600060405180830381600087803b158015611e6157600080fd5b505af1158015611e75573d6000803e3d6000fd5b505050506040513d6000823e601f3d908101601f191682016040908152811015611e9e57600080fd5b810190808051640100000000811115611eb657600080fd5b82016020810184811115611ec957600080fd5b8151856020820283011164010000000082111715611ee657600080fd5b50509291906020018051640100000000811115611f0257600080fd5b82016020810184811115611f1557600080fd5b8151856020820283011164010000000082111715611f3257600080fd5b50949750955060009450505050505b8251811015611f88578581815181101515611f5857fe5b906020019060200201518382815181101515611f7057fe5b60209081029091010180519091019052600101611f41565b611f9587848488426123c7565b50505050505050565b611fa6611674565b1515611fea576040805160e560020a62461bcd02815260206004820181905260248201526000805160206149eb833981519152604482015290519081900360640190fd5b6011805473ffffffffffffffffffffffffffffffffffffffff1916600160a060020a0392909216919091179055565b600080600080612028856115f0565b151561207e576040805160e560020a62461bcd02815260206004820152601f60248201527f736574746c656d656e7420697320756e737570706f7274656420746f6b656e00604482015290519081900360640190fd5b336000908152600660205260409020548611156120e5576040805160e560020a62461bcd02815260206004820152601e60248201527f53436f696e2062616c616e636520697320696e73756666696369656e74210000604482015290519081900360640190fd5b8515156120f15761134a565b600a60009054906101000a9004600160a060020a0316600160a060020a03166373a3d4246040518163ffffffff1660e060020a028152600401602060405180830381600087803b15801561214457600080fd5b505af1158015612158573d6000803e3d6000fd5b505050506040513d602081101561216e57600080fd5b5051935061217a612a1c565b92506121916008548461349390919063ffffffff16565b91506121a3868363ffffffff61333b16565b9050826121b6858363ffffffff6134d516565b1161134a576121c786868385613d29565b60408051878152905133917f925b1add21f66e1e2c8c9e9fffb3e0f4105df02dbd05c280f2fe4d19f5c50be5919081900360200190a2505050505050565b60408051606081018252602581527f45524332303a2064656372656173656420616c6c6f77616e63652062656c6f776020808301919091527f207a65726f0000000000000000000000000000000000000000000000000000008284015233600081815260078352848120600160a060020a0388168252909252928120549092610c219290918691610e499190879063ffffffff61329e16565b6000610c2133848461312e565b600954600160a060020a031690565b600160a060020a03918216600090815260106020908152604080832093909416825291909152205490565b6000547501000000000000000000000000000000000000000000900460ff1681565b6000612311611674565b1515612355576040805160e560020a62461bcd02815260206004820181905260248201526000805160206149eb833981519152604482015290519081900360640190fd5b61235e84613414565b9283555060019091015550565b600a54600160a060020a031690565b60006008546000141561239257506305f5e100610c8a565b60085461239d612a1c565b8115156123a657fe5b04905090565b600160a060020a031660009081526002602052604090205490565b6000806123d2611674565b1515612416576040805160e560020a62461bcd02815260206004820181905260248201526000805160206149eb833981519152604482015290519081900360640190fd5b600a546040517f8ff239e6000000000000000000000000000000000000000000000000000000008152600481018981526024820187905260648201869052608060448301908152885160848401528851600160a060020a0390941693638ff239e6938c938a938c938b9360a401906020808701910280838360005b838110156124a9578181015183820152602001612491565b5050505090500195505050505050600060405180830381600087803b1580156124d157600080fd5b505af11580156124e5573d6000803e3d6000fd5b50505050600091505b8551821015611f9557600180548390811061250557fe5b60009182526020822001548751600160a060020a03909116925087908490811061252b57fe5b602090810290910101511261259a5761257c868381518110151561254b57fe5b6020908102909101810151600160a060020a0384166000908152600d9092526040909120549063ffffffff6134d516565b600160a060020a0382166000908152600d60205260409020556125f6565b6125dc86838151811015156125ab57fe5b6020908102909101810151600160a060020a0384166000908152600d9092526040822054910363ffffffff612ff816565b600160a060020a0382166000908152600d60205260409020555b6001909101906124ee565b600080600a60009054906101000a9004600160a060020a0316600160a060020a03166373a3d4246040518163ffffffff1660e060020a028152600401602060405180830381600087803b15801561265757600080fd5b505af115801561266b573d6000803e3d6000fd5b505050506040513d602081101561268157600080fd5b5051905061268e816133e5565b91505b5090565b60008080808080808088116126f4576040805160e560020a62461bcd02815260206004820152601460248201527f73656c6c20616d6f756e74206973207a65726f21000000000000000000000000604482015290519081900360640190fd5b600a54604080517f74e85fd2000000000000000000000000000000000000000000000000000000008152336004820152602481018c9052604481018b90529051600160a060020a03909216916374e85fd29160648082019260009290919082900301818387803b15801561276757600080fd5b505af115801561277b573d6000803e3d6000fd5b5050600a54604080517f48ee201d000000000000000000000000000000000000000000000000000000008152600481018e90529051600160a060020a0390921693506348ee201d925060248082019260e0929091908290030181600087803b1580156127e657600080fd5b505af11580156127fa573d6000803e3d6000fd5b505050506040513d60e081101561281057600080fd5b5060408101516060820151608083015160a09093015191995097509095509350612840854263ffffffff612ff816565b600954604080517fda66325700000000000000000000000000000000000000000000000000000000815263ffffffff8a1660048201529051929750600160a060020a039091169163da663257916024808201926020929091908290030181600087803b1580156128af57600080fd5b505af11580156128c3573d6000803e3d6000fd5b505050506040513d60208110156128d957600080fd5b5051601154604080517f4b7d8e5c00000000000000000000000000000000000000000000000000000000815260048101849052602481018890526044810189905263ffffffff8a16606482015260ff8b1660848201529051929550600160a060020a0390911691634b7d8e5c9160a4808201926020929091908290030181600087803b15801561296857600080fd5b505af115801561297c573d6000803e3d6000fd5b505050506040513d602081101561299257600080fd5b505191506129a6828963ffffffff61333b16565b604080518a81526020810183905281519293508b9233927f4d6194525a1265d47b1d6b65f640509c7a2a8aa847fd0654fac933032e1348ac928290030190a36129f08160016137a9565b505050505050505050565b6000806000612a0984613414565b8054600190910154909590945092505050565b60015460009081908180805b83831015612b1a576001805484908110612a3e57fe5b60009182526020808320909101546009546040805160e060020a6341976e09028152600160a060020a0393841660048201819052915191975091909216936341976e099360248084019491939192918390030190829087803b158015612aa357600080fd5b505af1158015612ab7573d6000803e3d6000fd5b505050506040513d6020811015612acd57600080fd5b5051600160a060020a0383166000908152600d6020526040902054909150612b0d90612b0090839063ffffffff61333b16565b869063ffffffff6134d516565b9450600190920191612a28565b5092949350505050565b600160a060020a03918216600090815260076020908152604080832093909416825291909152205490565b600f6020526000908152604090205481565b6003805482908110612b6f57fe5b60009182526020909120600290910201805460019091015490915082565b612b95611674565b1515612bd9576040805160e560020a62461bcd02815260206004820181905260248201526000805160206149eb833981519152604482015290519081900360640190fd5b610f0c600182613f49565b612bec611674565b1515612c30576040805160e560020a62461bcd02815260206004820181905260248201526000805160206149eb833981519152604482015290519081900360640190fd5b600b91909155600c55565b60608060606000600180549050604051908082528060200260200182016040528015612c71578160200160208202803883390190505b509150600090505b600154811015612cdb5760026000600183815481101515612c9657fe5b6000918252602080832090910154600160a060020a031683528201929092526040019020548251839083908110612cc957fe5b60209081029091010152600101612c79565b60018281805480602002602001604051908101604052809291908181526020018280548015612d3357602002820191906000526020600020905b8154600160a060020a03168152600190910190602001808311612d15575b505050505091509350935050509091565b612d4c611674565b1515612d90576040805160e560020a62461bcd02815260206004820181905260248201526000805160206149eb833981519152604482015290519081900360640190fd5b610f0c81613fef565b612da1611674565b1515612de5576040805160e560020a62461bcd02815260206004820181905260248201526000805160206149eb833981519152604482015290519081900360640190fd5b6000805491151575010000000000000000000000000000000000000000000275ff00000000000000000000000000000000000000000019909216919091179055565b610f0c6001805480602002602001604051908101604052809291908181526020018280548015612e8057602002820191906000526020600020905b8154600160a060020a03168152600190910190602001808311612e62575b5050505050826140e8565b600160a060020a0383161515612f10576040805160e560020a62461bcd028152602060048201526024808201527f45524332303a20617070726f76652066726f6d20746865207a65726f2061646460448201527f7265737300000000000000000000000000000000000000000000000000000000606482015290519081900360840190fd5b600160a060020a0382161515612f96576040805160e560020a62461bcd02815260206004820152602260248201527f45524332303a20617070726f766520746f20746865207a65726f20616464726560448201527f7373000000000000000000000000000000000000000000000000000000000000606482015290519081900360840190fd5b600160a060020a03808416600081815260076020908152604080832094871680845294825291829020859055815185815291517f8c5be1e5ebec7d5bd14f71427d1e84f3dd0314c0f7b2291e5b200ac8c7c3b9259281900390910190a3505050565b600061303a83836040805190810160405280601e81526020017f536166654d6174683a207375627472616374696f6e206f766572666c6f77000081525061329e565b9392505050565b8154600090815b818110156130905783600160a060020a0316858281548110151561306857fe5b600091825260209091200154600160a060020a0316141561308857613090565b600101613048565b8181101561312357600019820181146131095784600183038154811015156130b457fe5b6000918252602090912001548554600160a060020a03909116908690839081106130da57fe5b9060005260206000200160006101000a815481600160a060020a030219169083600160a060020a031602179055505b84546131198660001983016149b1565b5060019250610fa1565b506000949350505050565b600160a060020a03831615156131b4576040805160e560020a62461bcd02815260206004820152602560248201527f45524332303a207472616e736665722066726f6d20746865207a65726f20616460448201527f6472657373000000000000000000000000000000000000000000000000000000606482015290519081900360840190fd5b600160a060020a038216151561323a576040805160e560020a62461bcd02815260206004820152602360248201527f45524332303a207472616e7366657220746f20746865207a65726f206164647260448201527f6573730000000000000000000000000000000000000000000000000000000000606482015290519081900360840190fd5b6132448382614148565b61324e8282614217565b81600160a060020a031683600160a060020a03167fddf252ad1be2c89b69c2b068fc378daa952ba7f163c4a11628f55a4df523b3ef836040518082815260200191505060405180910390a3505050565b60008082858511156133315760405160e560020a62461bcd0281526004018080602001828103825283818151815260200191508051906020019080838360005b838110156132f65781810151838201526020016132de565b50505050905090810190601f1680156133235780820380516001836020036101000a031916815260200191505b509250505060405180910390fd5b5050509103919050565b60008083151561334e57600091506133de565b5082820282848281151561335e57fe5b04146133da576040805160e560020a62461bcd02815260206004820152602160248201527f536166654d6174683a206d756c7469706c69636174696f6e206f766572666c6f60448201527f7700000000000000000000000000000000000000000000000000000000000000606482015290519081900360840190fd5b8091505b5092915050565b600b5460009081906133fd908463ffffffff61333b16565b600c5490915061303a90829063ffffffff61349316565b6003546000908210613470576040805160e560020a62461bcd02815260206004820152601260248201527f66656520747970652069732076616c6964210000000000000000000000000000604482015290519081900360640190fd5b600380548390811061347e57fe5b90600052602060002090600202019050919050565b600061303a83836040805190810160405280601a81526020017f536166654d6174683a206469766973696f6e206279207a65726f0000000000008152506142c6565b6000828201838110156133da576040805160e560020a62461bcd02815260206004820152601b60248201527f536166654d6174683a206164646974696f6e206f766572666c6f770000000000604482015290519081900360640190fd5b6000806000613540856115f0565b1515613596576040805160e560020a62461bcd02815260206004820152601f60248201527f736574746c656d656e7420697320756e737570706f7274656420746f6b656e00604482015290519081900360640190fd5b60009150600160a060020a03851615156135b25734915061365d565b600084111561365d5750604080517f23b872dd0000000000000000000000000000000000000000000000000000000081523360048201523060248201526044810185905290518591600160a060020a038316916323b872dd916064808201926020929091908290030181600087803b15801561362d57600080fd5b505af1158015613641573d6000803e3d6000fd5b505050506040513d602081101561365757600080fd5b50849250505b509392505050565b600160a060020a03821660009081526002602052604090205461368e908263ffffffff6134d516565b600160a060020a038316600081815260026020908152604091829020939093558051848152905191927f1104eee7f034069140a0655d153038cedf9e65e5724018c555a8d56cfb6bee7792918290030190a25050565b600160a060020a0382161515613744576040805160e560020a62461bcd02815260206004820152601f60248201527f45524332303a206d696e7420746f20746865207a65726f206164647265737300604482015290519081900360640190fd5b600854613757908263ffffffff6134d516565b6008556137648282614217565b604080518281529051600160a060020a038416916000917fddf252ad1be2c89b69c2b068fc378daa952ba7f163c4a11628f55a4df523b3ef9181900360200190a35050565b6001546040805182815260208084028201019091526000919060609083908190819081908680156137e4578160200160208202803883390190505b509450600093505b8584101561390e57600180548590811061380257fe5b60009182526020808320909101546009546040805160e060020a6341976e09028152600160a060020a0393841660048201819052915191985091909216936341976e099360248084019491939192918390030190829087803b15801561386757600080fd5b505af115801561387b573d6000803e3d6000fd5b505050506040513d602081101561389157600080fd5b5051600160a060020a0384166000908152600d60205260409020548651919350908690869081106138be57fe5b602090810290910101528451613902906138f5908790879081106138de57fe5b60209081029091010151849063ffffffff61333b16565b889063ffffffff6134d516565b506001909301926137ec565b86151561391a576129f0565b600093505b858410156129f05761395f876139538b888881518110151561393d57fe5b602090810290910101519063ffffffff61333b16565b9063ffffffff61349316565b905061398981868681518110151561397357fe5b602090810290910101519063ffffffff612ff816565b600160a060020a0384166000908152600d60205260409020556139ae3384838b614332565b60019093019261391f565b8151600090815b818110156131235783600160a060020a031685828151811015156139e057fe5b90602001906020020151600160a060020a03161415613a025760019250610fa1565b6001016139c0565b68010000000000000000830284017001000000000000000000000000000000008302017801000000000000000000000000000000000000000000000000820201949350505050565b6000808080613a67858763ffffffff61333b16565b9350613a738888613532565b965060008711613acd576040805160e560020a62461bcd02815260206004820152601a60248201527f736574746c656d656e7420616d6f756e74206973207a65726f21000000000000604482015290519081900360640190fd5b613ad8600085610f62565b6009546040805160e060020a6341976e09028152600160a060020a038c8116600483015291519396509116916341976e09916024808201926020929091908290030181600087803b158015613b2c57600080fd5b505af1158015613b40573d6000803e3d6000fd5b505050506040513d6020811015613b5657600080fd5b50519150613b6a848463ffffffff6134d516565b613b7a838963ffffffff61333b16565b1015613bf6576040805160e560020a62461bcd02815260206004820152602160248201527f736574746c656d656e7420617373657420697320696e73756666696369656e7460448201527f2100000000000000000000000000000000000000000000000000000000000000606482015290519081900360840190fd5b613c06848363ffffffff61349316565b9350613c18838363ffffffff61349316565b9250613c248884613665565b613c3883610ca2898763ffffffff612ff816565b96506000871115613c4e57613c4e338989614377565b600a60009054906101000a9004600160a060020a0316600160a060020a03166345e19fdd6040518163ffffffff1660e060020a02815260040160e060405180830381600087803b158015613ca157600080fd5b505af1158015613cb5573d6000803e3d6000fd5b505050506040513d60e0811015613ccb57600080fd5b5051604080518881526020810187905280820188905290519192508291600160a060020a038b169133917f09e4fd1b37f40234b903951f986d8b64cb9c99657348f04cda4a75fbe743684d9181900360600190a45050505050505050565b33600090815260066020908152604080832054600f9092528220548291606091839182918291613d6391613953908d63ffffffff61333b16565b336000908152600f6020526040902054909650613d86908763ffffffff612ff816565b336000818152600f6020526040902091909155613da3908b6144bd565b600154604080518281526020808402820101909152909550858015613dd2578160200160208202803883390190505b509350613de0888a896145a8565b6001805460408051602080840282018101909252828152949c50929650613e469392830182828015613e3b57602002820191906000526020600020905b8154600160a060020a03168152600190910190602001808311613e1d575b50505050508a61474f565b9150828483815181101515613e5757fe5b602090810290910101525060005b600088118015613e7457508481105b15613ed457613ea788600183815481101515613e8c57fe5b600091825260209091200154600160a060020a0316896145a8565b855191995093508390859083908110613ebc57fe5b60209081029091010180519091019052600101613e65565b6000881115613eeb57613ee88886866147a4565b93505b5060005b8481101561199d57613f4133600183815481101515613f0a57fe5b6000918252602090912001548651600160a060020a0390911690879085908110613f3057fe5b906020019060200201516004614332565b600101613eef565b613fac82805480602002602001604051908101604052809291908181526020018280548015613fa157602002820191906000526020600020905b8154600160a060020a03168152600190910190602001808311613f83575b5050505050826139b9565b1515613feb57815460018101835560008381526020902001805473ffffffffffffffffffffffffffffffffffffffff1916600160a060020a0383161790555b5050565b600160a060020a0381161515614075576040805160e560020a62461bcd02815260206004820152602660248201527f4f776e61626c653a206e6577206f776e657220697320746865207a65726f206160448201527f6464726573730000000000000000000000000000000000000000000000000000606482015290519081900360840190fd5b60008054604051600160a060020a038085169361010090930416917f8be0079c531659141344cd1fd0a4f28419497f9722a3daafe3b4186f6b6457e091a360008054600160a060020a039092166101000274ffffffffffffffffffffffffffffffffffffffff0019909216919091179055565b6140f282826139b9565b1515613feb576040805160e560020a62461bcd02815260206004820181905260248201527f77686974654c6973743a207573696e6720696e76616c69642061646472657373604482015290519081900360640190fd5b600160a060020a03821615156141ce576040805160e560020a62461bcd02815260206004820152602360248201527f45524332303a207472616e7366657220746f20746865207a65726f206164647260448201527f6573730000000000000000000000000000000000000000000000000000000000606482015290519081900360840190fd5b600160a060020a0382166000908152600660205260409020546141f7908263ffffffff612ff816565b600160a060020a0390921660009081526006602052604090209190915550565b600160a060020a038216151561429d576040805160e560020a62461bcd02815260206004820152602360248201527f45524332303a207472616e7366657220746f20746865207a65726f206164647260448201527f6573730000000000000000000000000000000000000000000000000000000000606482015290519081900360840190fd5b600160a060020a0382166000908152600660205260409020546141f7908263ffffffff6134d516565b6000808281851161431c5760405160e560020a62461bcd028152600401808060200182810382528381815181526020019150805190602001908083836000838110156132f65781810151838201526020016132de565b50838581151561432857fe5b0495945050505050565b600082151561434057614370565b61434a8284610f62565b90506143668585614361868563ffffffff612ff816565b614377565b6143708482613665565b5050505050565b6000811515614385576144b7565b600160a060020a03831615156143d157604051600160a060020a0385169083156108fc029084906000818181858888f193505050501580156143cb573d6000803e3d6000fd5b5061446b565b50604080517fa9059cbb000000000000000000000000000000000000000000000000000000008152600160a060020a038581166004830152602482018490529151849283169163a9059cbb9160448083019260209291908290030181600087803b15801561443e57600080fd5b505af1158015614452573d6000803e3d6000fd5b505050506040513d602081101561446857600080fd5b50505b82600160a060020a031684600160a060020a03167f8aaaec2388cc390cde69685f78340e15f36d424b6b6b595f549dd883931f9c9b846040518082815260200191505060405180910390a35b50505050565b600160a060020a0382161515614543576040805160e560020a62461bcd02815260206004820152602160248201527f45524332303a206275726e2066726f6d20746865207a65726f2061646472657360448201527f7300000000000000000000000000000000000000000000000000000000000000606482015290519081900360840190fd5b61454d8282614148565b600854614560908263ffffffff612ff816565b600855604080518281529051600091600160a060020a038516917fddf252ad1be2c89b69c2b068fc378daa952ba7f163c4a11628f55a4df523b3ef9181900360200190a35050565b336000908152601060209081526040808320600160a060020a03861684529091528120548190818080808415156145e55789965060009550614742565b6145f5888663ffffffff61333b16565b600160a060020a038a166000908152600d6020908152604080832054600e9092529091205491955061463191613953908863ffffffff61333b16565b94508484101561463f578394505b8415156146525789965060009550614742565b6009546040805160e060020a6341976e09028152600160a060020a038c81166004830152915191909216916341976e099160248083019260209291908290030181600087803b1580156146a457600080fd5b505af11580156146b8573d6000803e3d6000fd5b505050506040513d60208110156146ce57600080fd5b505192506146e28a8463ffffffff61349316565b91508115156146f75760009650869550614742565b8482116147045781614706565b845b90508482111561473a57614730614723828563ffffffff61333b16565b8b9063ffffffff612ff816565b8196509650614742565b600096509450845b5050505050935093915050565b8151600090815b8181101561479c5783600160a060020a0316858281518110151561477657fe5b90602001906020020151600160a060020a031614156147945761479c565b600101614756565b949350505050565b6060600060606000806000809450876040519080825280602002602001820160405280156147dc578160200160208202803883390190505b509350600092505b878310156149285760018054849081106147fa57fe5b6000918252602090912001548751600160a060020a0390911692506148569088908590811061482557fe5b6020908102909101810151600160a060020a0385166000908152600d9092526040909120549063ffffffff612ff816565b848481518110151561486457fe5b60209081029091018101919091526009546040805160e060020a6341976e09028152600160a060020a038681166004830152915191909216926341976e0992602480820193918290030181600087803b1580156148c057600080fd5b505af11580156148d4573d6000803e3d6000fd5b505050506040513d60208110156148ea57600080fd5b5051845190915061491c90612b009086908690811061490557fe5b60209081029091010151839063ffffffff61333b16565b506001909201916147e4565b841515614934576149a5565b600092505b878310156149a15761497e61495a866139538c888881518110151561393d57fe5b888581518110151561496857fe5b602090810290910101519063ffffffff6134d516565b878481518110151561498c57fe5b60209081029091010152600190920191614939565b8695505b50505050509392505050565b8154818355818111156115eb576000838152602090206115eb918101908301610c8a91905b8082111561269157600081556001016149d656004f776e61626c653a2063616c6c6572206973206e6f7420746865206f776e6572a165627a7a723058200cd3867f5cc8768042b240ede832b69f4a94ada91e8e1b797134070279aba84d00294f776e61626c653a2063616c6c6572206973206e6f7420746865206f776e6572",
  "source": "pragma solidity ^0.4.26;\r\nimport \"./modules/SafeMath.sol\";\r\nimport \"./CollateralPool.sol\";\r\nimport \"./modules/whiteList.sol\";\r\nimport \"./interfaces/IOptionsPrice.sol\";\r\nimport \"./modules/tuple.sol\";\r\ncontract OptionsMangerV2 is CollateralPool,ImportOptionsPrice {\r\n    using SafeMath for uint256;\r\n    constructor (address oracleAddr,address optionsPriceAddr,address optionsPoolAddr) public{\r\n        setOracleAddress(oracleAddr);\r\n        setOptionsPriceAddress(optionsPriceAddr);\r\n        setOptionsPoolAddress(optionsPoolAddr);\r\n    }\r\n\r\n    event BuyOption(address indexed from,address indexed settlement,uint256 indexed optionId,uint256 optionPrice,uint256 settlementAmount,uint256 optionAmount);\r\n    event SellOption(address indexed from,uint256 indexed optionId,uint256 amount,uint256 sellValue);\r\n    event ExerciseOption(address indexed from,uint256 indexed optionId,uint256 amount,uint256 sellValue);\r\n    event DebugEvent(uint256 value0,uint256 value1,uint256 value2,uint256 value3);\r\n    function buyOption(address settlement,uint256 settlementAmount, uint256 strikePrice,uint32 underlying,\r\n                uint256 expiration,uint256 amount,uint8 optType)public payable{\r\n        _optionsPool.buyOptionCheck(expiration,underlying);\r\n        uint256 ty_ly_exp = tuple64.getTuple(uint256(optType),uint256(underlying),uint256(expiration),0);\r\n        uint256 underlyingPrice = _oracle.getUnderlyingPrice(underlying);\r\n        uint256 optionPrice = _optionsPrice.getOptionsPrice(underlyingPrice,strikePrice,expiration,underlying,optType); \r\n        require(getLeftCollateral()>=calOptionsOccupied(strikePrice,underlyingPrice,amount,optType),\"collateral is insufficient!\");\r\n        _optionsPool.createOptions(msg.sender,settlement,ty_ly_exp,strikePrice,underlyingPrice,amount);\r\n        buyOption_sub(settlement,settlementAmount,optionPrice,amount);\r\n    }\r\n    function buyOption_sub(address settlement,uint256 settlementAmount,\r\n            uint256 optionPrice,uint256 amount)internal{\r\n        \r\n        uint256 allPay = amount.mul(optionPrice);\r\n        settlementAmount = getPayableAmount(settlement,settlementAmount);\r\n        require(settlementAmount>0 , \"settlement amount is zero!\");\r\n        uint256 fee = calculateFee(buyFee,allPay);\r\n        uint256 settlePrice = _oracle.getPrice(settlement);\r\n        require(settlePrice.mul(settlementAmount)>=allPay.add(fee),\"settlement asset is insufficient!\");\r\n        allPay = allPay.div(settlePrice);\r\n        fee = fee.div(settlePrice);\r\n        _addTransactionFee(settlement,fee);\r\n        settlementAmount = settlementAmount.sub(allPay).sub(fee);\r\n        if (settlementAmount > 0){\r\n            _transferPayback(msg.sender,settlement,settlementAmount);\r\n        }\r\n        (uint256 id,,,,,,)=_optionsPool.getLatestOption();\r\n        emit BuyOption(msg.sender,settlement,id,optionPrice,allPay,amount); \r\n    }\r\n    function sellOption(uint256 optionsId,uint256 amount)public{\r\n        require(amount>0 , \"sell amount is zero!\");\r\n        _optionsPool.burnOptions(msg.sender,optionsId,amount);\r\n        (,,uint8 optType,uint32 underlying,uint256 expiration,uint256 strikePrice,) = _optionsPool.getOptionsById(optionsId);\r\n        expiration = expiration.sub(now);\r\n        uint256 currentPrice = _oracle.getUnderlyingPrice(underlying);\r\n        uint256 optPrice = _optionsPrice.getOptionsPrice(currentPrice,strikePrice,expiration,underlying,optType);\r\n        uint256 allPay = optPrice.mul(amount);\r\n        emit SellOption(msg.sender,optionsId,amount,allPay);\r\n        _paybackWorth(allPay,sellFee);\r\n    }\r\n    function exerciseOption(uint256 optionsId,uint256 amount)public{\r\n        require(amount>0 , \"exercise amount is zero!\");\r\n        uint256 allPay = _optionsPool.getExerciseWorth(optionsId,amount);\r\n        if (allPay == 0) {\r\n            return;\r\n        }\r\n        _optionsPool.burnOptions(msg.sender,optionsId,amount);\r\n        emit ExerciseOption(msg.sender,optionsId,amount,allPay);\r\n        _paybackWorth(allPay,exerciseFee);\r\n    }\r\n\r\n}",
  "sourcePath": "C:\\work\\solidity\\FinnexusOptions_V2\\contracts\\OptionsMangerV2.sol",
  "compiler": {
    "name": "solc",
    "version": "0.4.26+commit.4563c3fc.Emscripten.clang"
  },
  "schemaVersion": "3.1.0",
  "updatedAt": "2020-07-25T01:17:57.588Z",
  "devdoc": {
    "methods": {
      "addWhiteList(address)": {
        "details": "Implementation of add an eligible address into the whitelist.\r",
        "params": {
          "addAddress": "new eligible address.\r"
        }
      },
      "allowance(address,address)": {
        "details": "See {IERC20-allowance}.\r"
      },
      "approve(address,uint256)": {
        "details": "See {IERC20-approve}.\r      * Requirements:\r      * - `spender` cannot be the zero address.\r"
      },
      "balanceOf(address)": {
        "details": "See {IERC20-balanceOf}.\r"
      },
      "decreaseAllowance(address,uint256)": {
        "details": "Atomically decreases the allowance granted to `spender` by the caller.\r      * This is an alternative to {approve} that can be used as a mitigation for\r problems described in {IERC20-approve}.\r      * Emits an {Approval} event indicating the updated allowance.\r      * Requirements:\r      * - `spender` cannot be the zero address.\r - `spender` must have allowance for the caller of at least\r `subtractedValue`.\r"
      },
      "getWhiteList()": {
        "details": "Implementation of getting the eligible whitelist.\r"
      },
      "increaseAllowance(address,uint256)": {
        "details": "Atomically increases the allowance granted to `spender` by the caller.\r      * This is an alternative to {approve} that can be used as a mitigation for\r problems described in {IERC20-approve}.\r      * Emits an {Approval} event indicating the updated allowance.\r      * Requirements:\r      * - `spender` cannot be the zero address.\r"
      },
      "isEligibleAddress(address)": {
        "details": "Implementation of testing whether the input address is eligible.\r",
        "params": {
          "tmpAddress": "input address for testing.\r"
        }
      },
      "isOwner()": {
        "details": "Returns true if the caller is the current owner."
      },
      "owner()": {
        "details": "Returns the address of the current owner."
      },
      "removeWhiteList(address)": {
        "details": "Implementation of revoke an invalid address from the whitelist.\r",
        "params": {
          "removeAddress": "revoked address.\r"
        }
      },
      "renounceOwnership()": {
        "details": "Leaves the contract without owner. It will not be possible to call `onlyOwner` functions anymore. Can only be called by the current owner.     * NOTE: Renouncing ownership will leave the contract without an owner, thereby removing any functionality that is only available to the owner."
      },
      "setTransactionFee(uint256,uint256,uint256)": {
        "details": "set the rate of trasaction fee.\r",
        "params": {
          "denominator": "thedenominator of transaction fee.\r transaction fee = numerator/denominator;\r",
          "feeType": "the transaction fee type\r",
          "numerator": "the numerator of transaction fee .\r"
        }
      },
      "totalSupply()": {
        "details": "See {IERC20-totalSupply}.\r"
      },
      "transfer(address,uint256)": {
        "details": "See {IERC20-transfer}.\r      * Requirements:\r      * - `recipient` cannot be the zero address.\r - the caller must have a balance of at least `amount`.\r"
      },
      "transferFrom(address,address,uint256)": {
        "details": "See {IERC20-transferFrom}.\r      * Emits an {Approval} event indicating the updated allowance. This is not\r required by the EIP. See the note at the beginning of {ERC20};\r      * Requirements:\r - `sender` and `recipient` cannot be the zero address.\r - `sender` must have a balance of at least `amount`.\r - the caller must have allowance for `sender`'s tokens of at least\r `amount`.\r"
      },
      "transferOwnership(address)": {
        "details": "Transfers ownership of the contract to a new account (`newOwner`). Can only be called by the current owner."
      }
    }
  },
  "userdoc": {
    "methods": {
      "setHalt(bool)": {
        "notice": "function Emergency situation that requires contribution period to stop or not."
      }
    }
  }
}