{
  "contractName": "OptionsPool",
  "abi": [
    {
      "constant": true,
      "inputs": [
        {
          "name": "from",
          "type": "uint256"
        },
        {
          "name": "size",
          "type": "uint256"
        }
      ],
      "name": "getOptionInfoList",
      "outputs": [
        {
          "name": "",
          "type": "address[]"
        },
        {
          "name": "",
          "type": "uint256[]"
        },
        {
          "name": "",
          "type": "uint256[]"
        },
        {
          "name": "",
          "type": "uint256[]"
        },
        {
          "name": "",
          "type": "uint256[]"
        }
      ],
      "payable": false,
      "stateMutability": "view",
      "type": "function"
    },
    {
      "constant": true,
      "inputs": [],
      "name": "sharedPhase",
      "outputs": [
        {
          "name": "",
          "type": "uint32"
        }
      ],
      "payable": false,
      "stateMutability": "view",
      "type": "function"
    },
    {
      "constant": false,
      "inputs": [
        {
          "name": "volatility",
          "type": "address"
        }
      ],
      "name": "setVolatilityAddress",
      "outputs": [],
      "payable": false,
      "stateMutability": "nonpayable",
      "type": "function"
    },
    {
      "constant": true,
      "inputs": [
        {
          "name": "ids",
          "type": "uint256[]"
        }
      ],
      "name": "getOptionInfoListFromID",
      "outputs": [
        {
          "name": "",
          "type": "address[]"
        },
        {
          "name": "",
          "type": "uint256[]"
        },
        {
          "name": "",
          "type": "uint256[]"
        },
        {
          "name": "",
          "type": "uint256[]"
        },
        {
          "name": "",
          "type": "uint256[]"
        }
      ],
      "payable": false,
      "stateMutability": "view",
      "type": "function"
    },
    {
      "constant": true,
      "inputs": [],
      "name": "getUnderlyingAssets",
      "outputs": [
        {
          "name": "",
          "type": "uint32[]"
        }
      ],
      "payable": false,
      "stateMutability": "view",
      "type": "function"
    },
    {
      "constant": true,
      "inputs": [
        {
          "name": "expiration",
          "type": "uint256"
        },
        {
          "name": "underlying",
          "type": "uint32"
        }
      ],
      "name": "buyOptionCheck",
      "outputs": [],
      "payable": false,
      "stateMutability": "view",
      "type": "function"
    },
    {
      "constant": true,
      "inputs": [
        {
          "name": "",
          "type": "uint256"
        }
      ],
      "name": "expirationList",
      "outputs": [
        {
          "name": "",
          "type": "uint256"
        }
      ],
      "payable": false,
      "stateMutability": "view",
      "type": "function"
    },
    {
      "constant": true,
      "inputs": [
        {
          "name": "",
          "type": "uint256"
        }
      ],
      "name": "underlyingAssets",
      "outputs": [
        {
          "name": "",
          "type": "uint32"
        }
      ],
      "payable": false,
      "stateMutability": "view",
      "type": "function"
    },
    {
      "constant": true,
      "inputs": [],
      "name": "getVolatilityAddress",
      "outputs": [
        {
          "name": "",
          "type": "address"
        }
      ],
      "payable": false,
      "stateMutability": "view",
      "type": "function"
    },
    {
      "constant": true,
      "inputs": [],
      "name": "getLatestOption",
      "outputs": [
        {
          "name": "",
          "type": "uint256"
        },
        {
          "name": "",
          "type": "address"
        },
        {
          "name": "",
          "type": "uint8"
        },
        {
          "name": "",
          "type": "uint32"
        },
        {
          "name": "",
          "type": "uint256"
        },
        {
          "name": "",
          "type": "uint256"
        },
        {
          "name": "",
          "type": "uint256"
        }
      ],
      "payable": false,
      "stateMutability": "view",
      "type": "function"
    },
    {
      "constant": true,
      "inputs": [
        {
          "name": "optionsId",
          "type": "uint256"
        }
      ],
      "name": "getOptionsById",
      "outputs": [
        {
          "name": "",
          "type": "uint256"
        },
        {
          "name": "",
          "type": "address"
        },
        {
          "name": "",
          "type": "uint8"
        },
        {
          "name": "",
          "type": "uint32"
        },
        {
          "name": "",
          "type": "uint256"
        },
        {
          "name": "",
          "type": "uint256"
        },
        {
          "name": "",
          "type": "uint256"
        }
      ],
      "payable": false,
      "stateMutability": "view",
      "type": "function"
    },
    {
      "constant": false,
      "inputs": [
        {
          "name": "oracle",
          "type": "address"
        }
      ],
      "name": "setOracleAddress",
      "outputs": [],
      "payable": false,
      "stateMutability": "nonpayable",
      "type": "function"
    },
    {
      "constant": true,
      "inputs": [
        {
          "name": "",
          "type": "address"
        },
        {
          "name": "",
          "type": "uint256"
        }
      ],
      "name": "optionsBalances",
      "outputs": [
        {
          "name": "",
          "type": "uint256"
        }
      ],
      "payable": false,
      "stateMutability": "view",
      "type": "function"
    },
    {
      "constant": true,
      "inputs": [],
      "name": "getOptionsPriceAddress",
      "outputs": [
        {
          "name": "",
          "type": "address"
        }
      ],
      "payable": false,
      "stateMutability": "view",
      "type": "function"
    },
    {
      "constant": true,
      "inputs": [],
      "name": "getBurnTimeLimit",
      "outputs": [
        {
          "name": "",
          "type": "uint256"
        }
      ],
      "payable": false,
      "stateMutability": "view",
      "type": "function"
    },
    {
      "constant": true,
      "inputs": [
        {
          "name": "optionsId",
          "type": "uint256"
        },
        {
          "name": "amount",
          "type": "uint256"
        }
      ],
      "name": "getExerciseWorth",
      "outputs": [
        {
          "name": "",
          "type": "uint256"
        }
      ],
      "payable": false,
      "stateMutability": "view",
      "type": "function"
    },
    {
      "constant": true,
      "inputs": [
        {
          "name": "optionsId",
          "type": "uint256"
        }
      ],
      "name": "getOptionsLimitTimeById",
      "outputs": [
        {
          "name": "",
          "type": "uint256"
        }
      ],
      "payable": false,
      "stateMutability": "view",
      "type": "function"
    },
    {
      "constant": false,
      "inputs": [],
      "name": "renounceOwnership",
      "outputs": [],
      "payable": false,
      "stateMutability": "nonpayable",
      "type": "function"
    },
    {
      "constant": true,
      "inputs": [
        {
          "name": "expiration",
          "type": "uint256"
        }
      ],
      "name": "checkExpiration",
      "outputs": [],
      "payable": false,
      "stateMutability": "view",
      "type": "function"
    },
    {
      "constant": true,
      "inputs": [],
      "name": "burnTimeLimit",
      "outputs": [
        {
          "name": "",
          "type": "uint256"
        }
      ],
      "payable": false,
      "stateMutability": "view",
      "type": "function"
    },
    {
      "constant": false,
      "inputs": [
        {
          "name": "expiration",
          "type": "uint256"
        }
      ],
      "name": "addExpiration",
      "outputs": [],
      "payable": false,
      "stateMutability": "nonpayable",
      "type": "function"
    },
    {
      "constant": false,
      "inputs": [
        {
          "name": "removeExpiration",
          "type": "uint256"
        }
      ],
      "name": "removeExpirationList",
      "outputs": [
        {
          "name": "",
          "type": "bool"
        }
      ],
      "payable": false,
      "stateMutability": "nonpayable",
      "type": "function"
    },
    {
      "constant": true,
      "inputs": [],
      "name": "owner",
      "outputs": [
        {
          "name": "",
          "type": "address"
        }
      ],
      "payable": false,
      "stateMutability": "view",
      "type": "function"
    },
    {
      "constant": true,
      "inputs": [
        {
          "name": "",
          "type": "uint256"
        }
      ],
      "name": "allOptions",
      "outputs": [
        {
          "name": "optionID",
          "type": "uint64"
        },
        {
          "name": "owner",
          "type": "address"
        },
        {
          "name": "optType",
          "type": "uint8"
        },
        {
          "name": "underlying",
          "type": "uint32"
        },
        {
          "name": "expiration",
          "type": "uint256"
        },
        {
          "name": "strikePrice",
          "type": "uint256"
        },
        {
          "name": "amount",
          "type": "uint256"
        }
      ],
      "payable": false,
      "stateMutability": "view",
      "type": "function"
    },
    {
      "constant": true,
      "inputs": [],
      "name": "isOwner",
      "outputs": [
        {
          "name": "",
          "type": "bool"
        }
      ],
      "payable": false,
      "stateMutability": "view",
      "type": "function"
    },
    {
      "constant": true,
      "inputs": [],
      "name": "getExpirationList",
      "outputs": [
        {
          "name": "",
          "type": "uint256[]"
        }
      ],
      "payable": false,
      "stateMutability": "view",
      "type": "function"
    },
    {
      "constant": false,
      "inputs": [
        {
          "name": "from",
          "type": "address"
        },
        {
          "name": "settlement",
          "type": "address"
        },
        {
          "name": "type_ly_exp",
          "type": "uint256"
        },
        {
          "name": "strikePrice",
          "type": "uint256"
        },
        {
          "name": "optionPrice",
          "type": "uint256"
        },
        {
          "name": "amount",
          "type": "uint256"
        }
      ],
      "name": "createOptions",
      "outputs": [],
      "payable": false,
      "stateMutability": "nonpayable",
      "type": "function"
    },
    {
      "constant": false,
      "inputs": [
        {
          "name": "addAddress",
          "type": "address"
        }
      ],
      "name": "addOperator",
      "outputs": [],
      "payable": false,
      "stateMutability": "nonpayable",
      "type": "function"
    },
    {
      "constant": true,
      "inputs": [
        {
          "name": "",
          "type": "uint256"
        }
      ],
      "name": "_operatorList",
      "outputs": [
        {
          "name": "",
          "type": "address"
        }
      ],
      "payable": false,
      "stateMutability": "view",
      "type": "function"
    },
    {
      "constant": true,
      "inputs": [
        {
          "name": "expiration",
          "type": "uint256"
        }
      ],
      "name": "isEligibleExpiration",
      "outputs": [
        {
          "name": "",
          "type": "bool"
        }
      ],
      "payable": false,
      "stateMutability": "view",
      "type": "function"
    },
    {
      "constant": false,
      "inputs": [
        {
          "name": "optionsPrice",
          "type": "address"
        }
      ],
      "name": "setOptionsPriceAddress",
      "outputs": [],
      "payable": false,
      "stateMutability": "nonpayable",
      "type": "function"
    },
    {
      "constant": false,
      "inputs": [
        {
          "name": "removeAddress",
          "type": "address"
        }
      ],
      "name": "removeOperator",
      "outputs": [
        {
          "name": "",
          "type": "bool"
        }
      ],
      "payable": false,
      "stateMutability": "nonpayable",
      "type": "function"
    },
    {
      "constant": false,
      "inputs": [
        {
          "name": "underlying",
          "type": "uint32"
        }
      ],
      "name": "addUnderlyingAsset",
      "outputs": [],
      "payable": false,
      "stateMutability": "nonpayable",
      "type": "function"
    },
    {
      "constant": true,
      "inputs": [],
      "name": "getOracleAddress",
      "outputs": [
        {
          "name": "",
          "type": "address"
        }
      ],
      "payable": false,
      "stateMutability": "view",
      "type": "function"
    },
    {
      "constant": true,
      "inputs": [],
      "name": "getOptionInfoLength",
      "outputs": [
        {
          "name": "",
          "type": "uint256"
        }
      ],
      "payable": false,
      "stateMutability": "view",
      "type": "function"
    },
    {
      "constant": true,
      "inputs": [],
      "name": "optionPhase",
      "outputs": [
        {
          "name": "",
          "type": "uint32"
        }
      ],
      "payable": false,
      "stateMutability": "view",
      "type": "function"
    },
    {
      "constant": false,
      "inputs": [
        {
          "name": "timeLimit",
          "type": "uint256"
        }
      ],
      "name": "setBurnTimeLimit",
      "outputs": [],
      "payable": false,
      "stateMutability": "nonpayable",
      "type": "function"
    },
    {
      "constant": false,
      "inputs": [
        {
          "name": "managerAddress",
          "type": "address"
        }
      ],
      "name": "setManager",
      "outputs": [],
      "payable": false,
      "stateMutability": "nonpayable",
      "type": "function"
    },
    {
      "constant": true,
      "inputs": [],
      "name": "getManager",
      "outputs": [
        {
          "name": "",
          "type": "address"
        }
      ],
      "payable": false,
      "stateMutability": "view",
      "type": "function"
    },
    {
      "constant": false,
      "inputs": [
        {
          "name": "removeUnderlying",
          "type": "uint32"
        }
      ],
      "name": "removeUnderlyingAssets",
      "outputs": [
        {
          "name": "",
          "type": "bool"
        }
      ],
      "payable": false,
      "stateMutability": "nonpayable",
      "type": "function"
    },
    {
      "constant": true,
      "inputs": [
        {
          "name": "underlying",
          "type": "uint32"
        }
      ],
      "name": "isEligibleUnderlyingAsset",
      "outputs": [
        {
          "name": "",
          "type": "bool"
        }
      ],
      "payable": false,
      "stateMutability": "view",
      "type": "function"
    },
    {
      "constant": false,
      "inputs": [
        {
          "name": "index",
          "type": "uint256"
        },
        {
          "name": "addAddress",
          "type": "address"
        }
      ],
      "name": "setOperator",
      "outputs": [],
      "payable": false,
      "stateMutability": "nonpayable",
      "type": "function"
    },
    {
      "constant": true,
      "inputs": [
        {
          "name": "user",
          "type": "address"
        }
      ],
      "name": "getUserOptionsID",
      "outputs": [
        {
          "name": "",
          "type": "uint256[]"
        }
      ],
      "payable": false,
      "stateMutability": "view",
      "type": "function"
    },
    {
      "constant": true,
      "inputs": [],
      "name": "getOperator",
      "outputs": [
        {
          "name": "",
          "type": "address[]"
        }
      ],
      "payable": false,
      "stateMutability": "view",
      "type": "function"
    },
    {
      "constant": true,
      "inputs": [
        {
          "name": "underlying",
          "type": "uint32"
        }
      ],
      "name": "checkUnderlyingAsset",
      "outputs": [],
      "payable": false,
      "stateMutability": "view",
      "type": "function"
    },
    {
      "constant": false,
      "inputs": [
        {
          "name": "newOwner",
          "type": "address"
        }
      ],
      "name": "transferOwnership",
      "outputs": [],
      "payable": false,
      "stateMutability": "nonpayable",
      "type": "function"
    },
    {
      "constant": true,
      "inputs": [
        {
          "name": "user",
          "type": "address"
        },
        {
          "name": "from",
          "type": "uint256"
        },
        {
          "name": "size",
          "type": "uint256"
        }
      ],
      "name": "getUserOptionsID",
      "outputs": [
        {
          "name": "",
          "type": "uint256[]"
        }
      ],
      "payable": false,
      "stateMutability": "view",
      "type": "function"
    },
    {
      "inputs": [
        {
          "name": "oracleAddr",
          "type": "address"
        },
        {
          "name": "optionsPriceAddr",
          "type": "address"
        },
        {
          "name": "ivAddress",
          "type": "address"
        }
      ],
      "payable": false,
      "stateMutability": "nonpayable",
      "type": "constructor"
    },
    {
      "anonymous": false,
      "inputs": [
        {
          "indexed": true,
          "name": "owner",
          "type": "address"
        },
        {
          "indexed": true,
          "name": "optionID",
          "type": "uint256"
        },
        {
          "indexed": false,
          "name": "optType",
          "type": "uint8"
        },
        {
          "indexed": false,
          "name": "underlying",
          "type": "uint32"
        },
        {
          "indexed": false,
          "name": "expiration",
          "type": "uint256"
        },
        {
          "indexed": false,
          "name": "strikePrice",
          "type": "uint256"
        },
        {
          "indexed": false,
          "name": "amount",
          "type": "uint256"
        }
      ],
      "name": "CreateOption",
      "type": "event"
    },
    {
      "anonymous": false,
      "inputs": [
        {
          "indexed": true,
          "name": "owner",
          "type": "address"
        },
        {
          "indexed": true,
          "name": "optionID",
          "type": "uint256"
        },
        {
          "indexed": false,
          "name": "amount",
          "type": "uint256"
        }
      ],
      "name": "BurnOption",
      "type": "event"
    },
    {
      "anonymous": false,
      "inputs": [
        {
          "indexed": false,
          "name": "value1",
          "type": "uint256"
        },
        {
          "indexed": false,
          "name": "value2",
          "type": "uint256"
        },
        {
          "indexed": false,
          "name": "value3",
          "type": "uint256"
        }
      ],
      "name": "DebugEvent",
      "type": "event"
    },
    {
      "anonymous": false,
      "inputs": [
        {
          "indexed": true,
          "name": "previousOwner",
          "type": "address"
        },
        {
          "indexed": true,
          "name": "newOwner",
          "type": "address"
        }
      ],
      "name": "OwnershipTransferred",
      "type": "event"
    },
    {
      "constant": true,
      "inputs": [],
      "name": "getOptionCalRangeAll",
      "outputs": [
        {
          "name": "",
          "type": "uint256"
        },
        {
          "name": "",
          "type": "uint256"
        },
        {
          "name": "",
          "type": "uint256"
        },
        {
          "name": "",
          "type": "uint256"
        },
        {
          "name": "",
          "type": "uint256"
        },
        {
          "name": "",
          "type": "uint256"
        }
      ],
      "payable": false,
      "stateMutability": "view",
      "type": "function"
    },
    {
      "constant": true,
      "inputs": [],
      "name": "getOptionPhaseCalRange",
      "outputs": [
        {
          "name": "",
          "type": "uint256"
        },
        {
          "name": "",
          "type": "uint256"
        },
        {
          "name": "",
          "type": "uint256"
        }
      ],
      "payable": false,
      "stateMutability": "view",
      "type": "function"
    },
    {
      "constant": true,
      "inputs": [],
      "name": "getsharedPhaseCalRange",
      "outputs": [
        {
          "name": "",
          "type": "uint256"
        },
        {
          "name": "",
          "type": "uint256"
        },
        {
          "name": "",
          "type": "uint256"
        },
        {
          "name": "",
          "type": "uint256"
        }
      ],
      "payable": false,
      "stateMutability": "view",
      "type": "function"
    },
    {
      "constant": true,
      "inputs": [
        {
          "name": "index",
          "type": "uint256"
        }
      ],
      "name": "getsharedPhaseCalInfo",
      "outputs": [
        {
          "name": "",
          "type": "uint256"
        },
        {
          "name": "",
          "type": "uint256[]"
        }
      ],
      "payable": false,
      "stateMutability": "view",
      "type": "function"
    },
    {
      "constant": false,
      "inputs": [
        {
          "name": "calInfo",
          "type": "uint256"
        }
      ],
      "name": "setPhaseOccupiedCollateral",
      "outputs": [],
      "payable": false,
      "stateMutability": "nonpayable",
      "type": "function"
    },
    {
      "constant": false,
      "inputs": [
        {
          "name": "calInfo",
          "type": "uint256"
        },
        {
          "name": "totalOccupied",
          "type": "uint256"
        },
        {
          "name": "beginOption",
          "type": "uint256"
        }
      ],
      "name": "setCollateralPhase",
      "outputs": [],
      "payable": false,
      "stateMutability": "nonpayable",
      "type": "function"
    },
    {
      "constant": true,
      "inputs": [
        {
          "name": "calInfo",
          "type": "uint256"
        }
      ],
      "name": "calculatePhaseOccupiedCollateral",
      "outputs": [
        {
          "name": "",
          "type": "uint256"
        },
        {
          "name": "",
          "type": "uint256"
        },
        {
          "name": "",
          "type": "bool"
        }
      ],
      "payable": false,
      "stateMutability": "view",
      "type": "function"
    },
    {
      "constant": false,
      "inputs": [
        {
          "name": "calInfo",
          "type": "uint256"
        },
        {
          "name": "firstOption",
          "type": "uint256"
        },
        {
          "name": "prices",
          "type": "uint256[]"
        },
        {
          "name": "calTime",
          "type": "uint256"
        }
      ],
      "name": "setSharedState",
      "outputs": [],
      "payable": false,
      "stateMutability": "nonpayable",
      "type": "function"
    },
    {
      "constant": true,
      "inputs": [
        {
          "name": "calInfo",
          "type": "uint256"
        },
        {
          "name": "whiteList",
          "type": "address[]"
        }
      ],
      "name": "calculatePhaseSharedPayment",
      "outputs": [
        {
          "name": "",
          "type": "uint256[]"
        },
        {
          "name": "",
          "type": "uint256"
        },
        {
          "name": "",
          "type": "bool"
        }
      ],
      "payable": false,
      "stateMutability": "view",
      "type": "function"
    },
    {
      "constant": true,
      "inputs": [
        {
          "name": "calInfo",
          "type": "uint256"
        },
        {
          "name": "begin",
          "type": "uint256"
        },
        {
          "name": "end",
          "type": "uint256"
        },
        {
          "name": "whiteList",
          "type": "address[]"
        }
      ],
      "name": "calRangeSharedPayment",
      "outputs": [
        {
          "name": "",
          "type": "uint256[]"
        },
        {
          "name": "",
          "type": "uint256"
        },
        {
          "name": "",
          "type": "bool"
        }
      ],
      "payable": false,
      "stateMutability": "view",
      "type": "function"
    },
    {
      "constant": true,
      "inputs": [
        {
          "name": "calInfo",
          "type": "uint256"
        },
        {
          "name": "whiteList",
          "type": "address[]"
        }
      ],
      "name": "calculatePhaseOptionsFall",
      "outputs": [
        {
          "name": "",
          "type": "int256[]"
        },
        {
          "name": "",
          "type": "uint256[]"
        }
      ],
      "payable": false,
      "stateMutability": "view",
      "type": "function"
    },
    {
      "constant": true,
      "inputs": [],
      "name": "getTotalOccupiedCollateral",
      "outputs": [
        {
          "name": "",
          "type": "uint256"
        }
      ],
      "payable": false,
      "stateMutability": "view",
      "type": "function"
    },
    {
      "constant": false,
      "inputs": [
        {
          "name": "from",
          "type": "address"
        },
        {
          "name": "id",
          "type": "uint256"
        },
        {
          "name": "amount",
          "type": "uint256"
        }
      ],
      "name": "burnOptions",
      "outputs": [],
      "payable": false,
      "stateMutability": "nonpayable",
      "type": "function"
    }
  ],
  "bytecode": "0x6080604052610e10600a55600c805461019063ffffffff1991821681179092556013805490911690911790553480156200003857600080fd5b506040516060806200565883398101604081815282516020840151919093015160008054600160a060020a031916331780825592939192859285928592600160a060020a0316917f8be0079c531659141344cd1fd0a4f28419497f9722a3daafe3b4186f6b6457e0908290a3620000b8836401000000006200016a810204565b620000cc82640100000000620001fc810204565b620000e0816401000000006200028e810204565b6040805160e0810182526201518081526203f480602082015262093a8091810191909152620d2f0060608201526213c680608082015262278d0060a08201526276a70060c08201526200013890600990600762000332565b506040805180820190915260018082526002602083018190526200015d929062000389565b5050505050505062000479565b6200017d64010000000062000320810204565b1515620001da57604080517f08c379a0000000000000000000000000000000000000000000000000000000008152602060048201819052602482015260008051602062005638833981519152604482015290519081900360640190fd5b60038054600160a060020a031916600160a060020a0392909216919091179055565b6200020f64010000000062000320810204565b15156200026c57604080517f08c379a0000000000000000000000000000000000000000000000000000000008152602060048201819052602482015260008051602062005638833981519152604482015290519081900360640190fd5b60048054600160a060020a031916600160a060020a0392909216919091179055565b620002a164010000000062000320810204565b1515620002fe57604080517f08c379a0000000000000000000000000000000000000000000000000000000008152602060048201819052602482015260008051602062005638833981519152604482015290519081900360640190fd5b60058054600160a060020a031916600160a060020a0392909216919091179055565b600054600160a060020a031633145b90565b82805482825590600052602060002090810192821562000377579160200282015b8281111562000377578251829062ffffff1690559160200191906001019062000353565b506200038592915062000438565b5090565b828054828255906000526020600020906007016008900481019282156200042a5791602002820160005b83821115620003f657835183826101000a81548163ffffffff021916908360ff1602179055509260200192600401602081600301049283019260010302620003b3565b8015620004285782816101000a81549063ffffffff0219169055600401602081600301049283019260010302620003f6565b505b506200038592915062000455565b6200032f91905b808211156200038557600081556001016200043f565b6200032f91905b808211156200038557805463ffffffff191681556001016200045c565b6151af80620004896000396000f3006080604052600436106102b05763ffffffff60e060020a6000350416630438d49081146102b557806316f35a7f146104385780632967eafe1461046657806332ab5c2014610489578063354af360146105535780633582d789146105a85780633ad2fb571461060d5780633ad980991461062e5780633b50c4d11461065857806342e5479d1461067057806344244d27146106a157806345e19fdd146106e957806348ee201d146107455780634c69c00f1461075d57806355c47cb21461077e5780635ca4b73b146107a257806364ed3017146107b757806367b8ceb9146107cc5780636d84e2e3146107e7578063715018a6146107ff578063723931ca1461081457806373a3d4241461082c57806374e85fd2146108415780637b23dbbe146108685780637cfff2d81461087d5780637e838fa3146108955780638da5cb5b146108c15780638ea745b8146108d65780638f32d59b146109405780638ff239e6146109555780639052d5f8146109b5578063924a69ce146109ca57806397a918e9146109fd5780639870d7fe14610a7057806398dae82814610a9157806399deae0a14610ac45780639b16bfaf14610afc5780639ef975d214610b14578063a093e2d014610b2c578063ac8a584a14610b4d578063af70df1214610b6e578063afec82fc14610bc8578063b18b78dd14610be6578063b452bc0414610bfb578063b8a5b7fa14610c19578063bec3107f14610c31578063c27b7dfb14610c46578063c5acbe1514610c5b578063d0ebdbe714610c73578063d500958414610c94578063d6d1401214610ca9578063db6ad2bd14610cc7578063e5081c4014610ce5578063e7a1c1c014610dc1578063e7c5681514610de5578063e7f43c6814610e06578063ee29c94a14610e1b578063f2fde38b14610e39578063f7de192314610e5a578063fa1cf1f014610e81575b600080fd5b3480156102c157600080fd5b506102d0600435602435610ebc565b60405180806020018060200180602001806020018060200186810386528b818151815260200191508051906020019060200280838360005b83811015610320578181015183820152602001610308565b5050505090500186810385528a818151815260200191508051906020019060200280838360005b8381101561035f578181015183820152602001610347565b50505050905001868103845289818151815260200191508051906020019060200280838360005b8381101561039e578181015183820152602001610386565b50505050905001868103835288818151815260200191508051906020019060200280838360005b838110156103dd5781810151838201526020016103c5565b50505050905001868103825287818151815260200191508051906020019060200280838360005b8381101561041c578181015183820152602001610404565b505050509050019a505050505050505050505060405180910390f35b34801561044457600080fd5b5061044d611106565b6040805163ffffffff9092168252519081900360200190f35b34801561047257600080fd5b50610487600160a060020a0360043516611112565b005b34801561049557600080fd5b5060408051606435600481810135602081810285810182019096528185526104ed9583359560248035966044359636969095608495929093019290918291850190849080828437509497506111809650505050505050565b604051808060200184815260200183151515158152602001828103825285818151815260200191508051906020019060200280838360005b8381101561053d578181015183820152602001610525565b5050505090500194505050505060405180910390f35b34801561055f57600080fd5b50604080516020600480358082013583810280860185019096528085526102d09536959394602494938501929182918501908490808284375094975061121e9650505050505050565b3480156105b457600080fd5b506105bd611437565b60408051602080825283518183015283519192839290830191858101910280838360005b838110156105f95781810151838201526020016105e1565b505050509050019250505060405180910390f35b34801561061957600080fd5b5061048760043563ffffffff602435166114bc565b34801561063a57600080fd5b50610646600435611528565b60408051918252519081900360200190f35b34801561066457600080fd5b5061044d600435611547565b34801561067c57600080fd5b5061068561157f565b60408051600160a060020a039092168252519081900360200190f35b3480156106ad57600080fd5b506106b661158e565b604080519687526020870195909552858501939093526060850191909152608084015260a0830152519081900360c00190f35b3480156106f557600080fd5b506106fe6115a2565b60408051978852600160a060020a03909616602088015260ff9094168686015263ffffffff9092166060860152608085015260a084015260c0830152519081900360e00190f35b34801561075157600080fd5b506106fe60043561168d565b34801561076957600080fd5b50610487600160a060020a0360043516611701565b34801561078a57600080fd5b50610646600160a060020a036004351660243561176f565b3480156107ae57600080fd5b5061068561179f565b3480156107c357600080fd5b506106466117ae565b3480156107d857600080fd5b506106466004356024356117b4565b3480156107f357600080fd5b50610646600435611934565b34801561080b57600080fd5b506104876119bc565b34801561082057600080fd5b50610487600435611a52565b34801561083857600080fd5b50610646611ada565b34801561084d57600080fd5b50610487600160a060020a0360043516602435604435611d82565b34801561087457600080fd5b5061064661203f565b34801561088957600080fd5b50610487600435612045565b3480156108a157600080fd5b506108ad60043561209c565b604080519115158252519081900360200190f35b3480156108cd57600080fd5b506106856120fb565b3480156108e257600080fd5b506108ee60043561210a565b6040805167ffffffffffffffff9098168852600160a060020a03909616602088015260ff9094168686015263ffffffff9092166060860152608085015260a084015260c0830152519081900360e00190f35b34801561094c57600080fd5b506108ad61217b565b34801561096157600080fd5b506040805160206004604435818101358381028086018501909652808552610487958335956024803596369695606495939492019291829185019084908082843750949750509335945061218c9350505050565b3480156109c157600080fd5b506105bd6122b6565b3480156109d657600080fd5b50610487600160a060020a036004358116906024351660443560643560843560a43561230d565b348015610a0957600080fd5b50610a15600435612648565b6040518083815260200180602001828103825283818151815260200191508051906020019060200280838360005b83811015610a5b578181015183820152602001610a43565b50505050905001935050505060405180910390f35b348015610a7c57600080fd5b50610487600160a060020a03600435166126bb565b348015610a9d57600080fd5b50610aa6612712565b60408051938452602084019290925282820152519081900360600190f35b348015610ad057600080fd5b50610adc600435612722565b604080519384526020840192909252151582820152519081900360600190f35b348015610b0857600080fd5b506106856004356127ea565b348015610b2057600080fd5b506108ad600435612812565b348015610b3857600080fd5b50610487600160a060020a036004351661286e565b348015610b5957600080fd5b506108ad600160a060020a03600435166128dc565b348015610b7a57600080fd5b506040805160206004602480358281013584810280870186019097528086526104ed968435963696604495919490910192918291850190849080828437509497506129359650505050505050565b348015610bd457600080fd5b5061048763ffffffff6004351661298c565b348015610bf257600080fd5b506106856129e3565b348015610c0757600080fd5b506104876004356024356044356129f2565b348015610c2557600080fd5b50610487600435612b17565b348015610c3d57600080fd5b50610646612bf0565b348015610c5257600080fd5b5061044d612bf6565b348015610c6757600080fd5b50610487600435612c02565b348015610c7f57600080fd5b50610487600160a060020a0360043516612c53565b348015610ca057600080fd5b50610685612cc1565b348015610cb557600080fd5b506108ad63ffffffff60043516612cd0565b348015610cd357600080fd5b506108ad63ffffffff60043516612d29565b348015610cf157600080fd5b50604080516020600460248035828101358481028087018601909752808652610d3f96843596369660449591949091019291829185019084908082843750949750612db19650505050505050565b604051808060200180602001838103835285818151815260200191508051906020019060200280838360005b83811015610d83578181015183820152602001610d6b565b50505050905001838103825284818151815260200191508051906020019060200280838360008381101561053d578181015183820152602001610525565b348015610dcd57600080fd5b50610487600435600160a060020a0360243516612f81565b348015610df157600080fd5b506105bd600160a060020a036004351661300f565b348015610e1257600080fd5b506105bd61307b565b348015610e2757600080fd5b5061048763ffffffff600435166130dc565b348015610e4557600080fd5b50610487600160a060020a0360043516613162565b348015610e6657600080fd5b506105bd600160a060020a03600435166024356044356131b7565b348015610e8d57600080fd5b50610e9661329e565b604080519485526020850193909352838301919091526060830152519081900360800190f35b6060806060806060806060806060806000806006805490508d8f011115610ef357600654610ef0908f63ffffffff6132b016565b9c505b60008d11156110f5578c604051908082528060200260200182016040528015610f26578160200160208202803883390190505b5096508c604051908082528060200260200182016040528015610f53578160200160208202803883390190505b5095508c604051908082528060200260200182016040528015610f80578160200160208202803883390190505b5094508c604051908082528060200260200182016040528015610fad578160200160208202803883390190505b5093508c604051908082528060200260200182016040528015610fda578160200160208202803883390190505b509250600091505b8c8210156110e557600680548f8401908110610ffa57fe5b906000526020600020906005020190508060000160089054906101000a9004600160a060020a0316878381518110151561103057fe5b600160a060020a03929092166020928302919091019091015280546001820154875160e060020a90920460ff1663ffffffff918216620100000201169087908490811061107957fe5b602090810290910101526002810154855186908490811061109657fe5b60209081029091010152600381015484518590849081106110b357fe5b60209081029091010152600481015483518490849081106110d057fe5b60209081029091010152600190910190610fe2565b86868686869b509b509b509b509b505b505050505050509295509295909350565b60135463ffffffff1681565b61111a61217b565b151561115e576040805160e560020a62461bcd0281526020600482018190526024820152600080516020615164833981519152604482015290519081900360640190fd5b60058054600160a060020a031916600160a060020a0392909216919091179055565b606060008060606000611192896132f9565b881015806111a1575060145487105b156111b757909350600092508291508390611212565b6111c0896132f9565b8711156111d3576111d0896132f9565b96505b6112038888601760006111e58e613312565b8152602001908152602001600020546111fd8d61331f565b8a613340565b91509150818160019450945094505b50509450945094915050565b6060806060806060600060608060608060606000808d51975087604051908082528060200260200182016040528015611261578160200160208202803883390190505b5096508760405190808252806020026020018201604052801561128e578160200160208202803883390190505b509550876040519080825280602002602001820160405280156112bb578160200160208202803883390190505b509450876040519080825280602002602001820160405280156112e8578160200160208202803883390190505b50935087604051908082528060200260200182016040528015611315578160200160208202803883390190505b509250600091505b87821015611423576113458e8381518110151561133657fe5b906020019060200201516134c0565b80548851919250680100000000000000009004600160a060020a03169088908490811061136e57fe5b600160a060020a03929092166020928302919091019091015280546001820154875160e060020a90920460ff1663ffffffff91821662010000020116908790849081106113b757fe5b60209081029091010152600281015485518690849081106113d457fe5b60209081029091010152600381015484518590849081106113f157fe5b602090810290910101526004810154835184908490811061140e57fe5b6020908102909101015260019091019061131d565b50949c939b50919950975095509350505050565b606060018054806020026020016040519081016040528092919081815260200182805480156114b157602002820191906000526020600020906000905b82829054906101000a900463ffffffff1663ffffffff16815260200190600401906020826003010492830192600103820291508084116114745790505b505050505090505b90565b6114c581612d29565b151561151b576040805160e560020a62461bcd02815260206004820152601f60248201527f756e6465726c79696e6720697320756e737570706f7274656420617373657400604482015290519081900360640190fd5b61152482611a52565b5050565b600980548290811061153657fe5b600091825260209091200154905081565b600180548290811061155557fe5b9060005260206000209060089182820401919006600402915054906101000a900463ffffffff1681565b600554600160a060020a031690565b600d54600654601254919283929043904290565b6006546000908190819081908190819081908180821161160c576040805160e560020a62461bcd02815260206004820152601560248201527f6f7074696f6e73206c69737420697320656d7074790000000000000000000000604482015290519081900360640190fd5b60068054600019840190811061161e57fe5b60009182526020909120600590910201805460018201546002830154600384015460049094015467ffffffffffffffff84169e680100000000000000008504600160a060020a03169e5060e060020a90940460ff169c5063ffffffff9092169a50985091965090945092505050565b6000806000806000806000806116a2896134c0565b805460018201546002830154600384015460049094015467ffffffffffffffff84169e680100000000000000008504600160a060020a03169e5060e060020a90940460ff169c5063ffffffff9092169a50985091965090945092505050565b61170961217b565b151561174d576040805160e560020a62461bcd0281526020600482018190526024820152600080516020615164833981519152604482015290519081900360640190fd5b60038054600160a060020a031916600160a060020a0392909216919091179055565b60086020528160005260406000208181548110151561178a57fe5b90600052602060002001600091509150505481565b600454600160a060020a031690565b600a5490565b60006117be615021565b6000806117ca866134c0565b6040805160e081018252825467ffffffffffffffff81168252680100000000000000008104600160a060020a0316602083015260e060020a900460ff1691810191909152600182015463ffffffff16606082015260028201546080820152600382015460a082015260049091015460c0820152925061184883613550565b61185283866135ab565b6003546060840151604080517fda66325700000000000000000000000000000000000000000000000000000000815263ffffffff909216600483015251600160a060020a039092169163da663257916024808201926020929091908290030181600087803b1580156118c357600080fd5b505af11580156118d7573d6000803e3d6000fd5b505050506040513d60208110156118ed57600080fd5b5051604084015160a08501519193506119069184613607565b9050801515611918576000935061192b565b611928818663ffffffff61363c16565b93505b50505092915050565b6000808211801561194757506006548211155b151561199d576040805160e560020a62461bcd02815260206004820152601660248201527f6f7074696f6e206964206973206e6f7420657869737400000000000000000000604482015290519081900360640190fd5b50600a546000198201600090815260076020526040902054015b919050565b6119c461217b565b1515611a08576040805160e560020a62461bcd0281526020600482018190526024820152600080516020615164833981519152604482015290519081900360640190fd5b60008054604051600160a060020a03909116907f8be0079c531659141344cd1fd0a4f28419497f9722a3daafe3b4186f6b6457e0908390a360008054600160a060020a0319169055565b611a5b81612812565b1515611ad7576040805160e560020a62461bcd02815260206004820152602160248201527f65787069726174696f6e2076616c7565206973206e6f7420737570706f72746560448201527f6400000000000000000000000000000000000000000000000000000000000000606482015290519081900360840190fd5b50565b60008060606000806000806000611aef61505d565b6000611af96136e6565b9850611b03613767565b600654600e54919950975095505b86861015611c1f57611b4a600687815481101515611b2b57fe5b600091825260209091206001600590920201015463ffffffff16613881565b9450611c12611c05600688815481101515611b6157fe5b60009182526020918290206040805160e081018252600593909302909101805467ffffffffffffffff81168452680100000000000000008104600160a060020a03169484019490945260e060020a90930460ff1690820152600182015463ffffffff16606082015260028201546080820152600382015460a082015260049091015460c08201528a518b9089908110611bf657fe5b90602001906020020151613909565b8a9063ffffffff61394a16565b9850600190950194611b11565b601254600f5490945092505b83831015611d7457600083815260116020526040908190208151808301928390529160029082845b815481526020019060010190808311611c53575093955085935060009250611c79915050565b6020020151600e54909150811015611d6957611c9d600682815481101515611b2b57fe5b9450611d66611d59600683815481101515611cb457fe5b60009182526020918290206040805160e081018252600593909302909101805467ffffffffffffffff81168452680100000000000000008104600160a060020a03168486015260e060020a900460ff1691830191909152600181015463ffffffff16606083015260028101546080830152600381015460a08301526004015460c0820152908501518b518c908a908110611d4a57fe5b906020019060200201516139a7565b8a9063ffffffff6132b016565b98505b600190920191611c2b565b509698975050505050505050565b600254600090600160a060020a03163314611e0d576040805160e560020a62461bcd02815260206004820152602660248201527f4d616e6167657261626c653a2063616c6c6572206973206e6f7420746865204d60448201527f616e616765720000000000000000000000000000000000000000000000000000606482015290519081900360840190fd5b611e16836134c0565b6040805160e081018252825467ffffffffffffffff81168252680100000000000000008104600160a060020a0316602083015260e060020a900460ff1691810191909152600182015463ffffffff16606082015260028201546080820152600382015460a0820152600482015460c0820152909150611e9490613550565b8054611ea99067ffffffffffffffff166139d5565b6040805160e081018252825467ffffffffffffffff81168252680100000000000000008104600160a060020a0316602083015260e060020a900460ff1691810191909152600182015463ffffffff16606082015260028201546080820152600382015460a0820152600482015460c0820152611f259085613a6a565b6040805160e081018252825467ffffffffffffffff81168252680100000000000000008104600160a060020a0316602083015260e060020a900460ff1691810191909152600182015463ffffffff16606082015260028201546080820152600382015460a0820152600482015460c0820152611fa190836135ab565b6004810154611fb6908363ffffffff6132b016565b60048201556040805180820182526000198501815260208082018590526012546000908152601190915291909120611fef916002615078565b506012805460010190556040805183815290518491600160a060020a038716917f1fb99acdc281bccbecb3d0073a307341181a8a7d3cd532fdaef5ce7200401c2d9181900360200190a350505050565b600a5481565b61204d61217b565b1515612091576040805160e560020a62461bcd0281526020600482018190526024820152600080516020615164833981519152604482015290519081900360640190fd5b611ad7600982613ad9565b60006120a661217b565b15156120ea576040805160e560020a62461bcd0281526020600482018190526024820152600080516020615164833981519152604482015290519081900360640190fd5b6120f5600983613b50565b92915050565b600054600160a060020a031690565b600680548290811061211857fe5b60009182526020909120600590910201805460018201546002830154600384015460049094015467ffffffffffffffff84169550680100000000000000008404600160a060020a03169460e060020a90940460ff169363ffffffff909316929087565b600054600160a060020a0316331490565b600254600160a060020a03163314612214576040805160e560020a62461bcd02815260206004820152602660248201527f4d616e6167657261626c653a2063616c6c6572206973206e6f7420746865204d60448201527f616e616765720000000000000000000000000000000000000000000000000000606482015290519081900360840190fd5b6014548311156122245760148390555b61222d846132f9565b60135463ffffffff168061224087613312565b02011061226057612250846132f9565b60155561225c8461331f565b6016555b806017600061226e87613312565b815260200190815260200160002081905550816018600061228e87613312565b815260200190815260200160002090805190602001906122af9291906150b6565b5050505050565b606060098054806020026020016040519081016040528092919081815260200182805480156114b157602002820191906000526020600020905b8154815260200190600101908083116122f0575050505050905090565b600080600061231a615021565b600254600160a060020a031633146123a2576040805160e560020a62461bcd02815260206004820152602660248201527f4d616e6167657261626c653a2063616c6c6572206973206e6f7420746865204d60448201527f616e616765720000000000000000000000000000000000000000000000000000606482015290519081900360840190fd5b60065493506123b088613312565b92506123bb886132f9565b9150600660e0604051908101604052808660010167ffffffffffffffff1681526020018c600160a060020a031681526020018560ff1681526020018463ffffffff1681526020014261240c8c61331f565b01815260208082018b90526040918201899052835460018082018655600095865282862085516005909302018054868501518787015167ffffffffffffffff1990921667ffffffffffffffff909516949094177fffffffff0000000000000000000000000000000000000000ffffffffffffffff1668010000000000000000600160a060020a0395861602177fffffff00ffffffffffffffffffffffffffffffffffffffffffffffffffffffff1660e060020a60ff909216919091021781556060860151818301805463ffffffff191663ffffffff9092169190911790556080860151600282015560a0860151600382015560c0909501516004909501949094558e16845260088152908320805480840182559084529220908601910155600680548590811061253857fe5b60009182526020918290206040805160e081018252600593909302909101805467ffffffffffffffff81168452680100000000000000008104600160a060020a03169484019490945260e060020a90930460ff1690820152600182015463ffffffff16606082015260028201546080820152600382015460a082015260049091015460c082015290506125cc818a88613bfd565b836001018a600160a060020a03167f18f523957030bee670136363e25b2f847bf1bd07bb7b33c6d5475936a9aac70d8585426126078e61331f565b6040805160ff909516855263ffffffff90931660208501520182820152606082018c9052608082018a9052519081900360a00190a350505050505050505050565b600081815260176020908152604080832054601883528184208054835181860281018601909452808452606094929391928391908301828280156126ab57602002820191906000526020600020905b815481526020019060010190808311612697575b5050505050905091509150915091565b6126c361217b565b1515612707576040805160e560020a62461bcd0281526020600482018190526024820152600080516020615164833981519152604482015290519081900360640190fd5b611ad7600b82613ecc565b600d546006546012549192909190565b600c546000908190819081908190819081906127539063ffffffff166127478a613312565b9063ffffffff61363c16565b935061275e886132f9565b841061277357600096508695508594506127df565b600c5461278b90859063ffffffff9081169061394a16565b9250612796886132f9565b8311156127ad576127a6886132f9565b92506127c6565b600d548310156127c657600096508695508594506127df565b6127d08484613f66565b91509150818160019650965096505b505050509193909250565b600b8054829081106127f857fe5b600091825260209091200154600160a060020a0316905081565b60006120f5600980548060200260200160405190810160405280929190818152602001828054801561286357602002820191906000526020600020905b81548152602001906001019080831161284f575b505050505083614084565b61287661217b565b15156128ba576040805160e560020a62461bcd0281526020600482018190526024820152600080516020615164833981519152604482015290519081900360640190fd5b60048054600160a060020a031916600160a060020a0392909216919091179055565b60006128e661217b565b151561292a576040805160e560020a62461bcd0281526020600482018190526024820152600080516020615164833981519152604482015290519081900360640190fd5b6120f5600b836140c3565b601354606090600090819081906129559063ffffffff1661274788613312565b60135490915061297e908790839061297890829063ffffffff9081169061394a16565b88611180565b935093509350509250925092565b61299461217b565b15156129d8576040805160e560020a62461bcd0281526020600482018190526024820152600080516020615164833981519152604482015290519081900360640190fd5b611ad760018261419a565b600354600160a060020a031690565b600b5460009081108015612a295750600b805433919083908110612a1257fe5b600091825260209091200154600160a060020a0316145b1515612aa5576040805160e560020a62461bcd02815260206004820152603060248201527f4d616e6167657261626c653a2063616c6c6572206973206e6f7420746865206560448201527f6c696769626c65204f70657261746f7200000000000000000000000000000000606482015290519081900360840190fd5b600d54821115612ab557600d8290555b612abe846132f9565b600c5463ffffffff1680612ad187613312565b02011115612af257612ae2846132f9565b600e55612aee8461331f565b600f555b8260106000612b0087613312565b815260208101919091526040016000205550505050565b60008060008080600b80549050118015612b545750600b805433919083908110612b3d57fe5b600091825260209091200154600160a060020a0316145b1515612bd0576040805160e560020a62461bcd02815260206004820152603060248201527f4d616e6167657261626c653a2063616c6c6572206973206e6f7420746865206560448201527f6c696769626c65204f70657261746f7200000000000000000000000000000000606482015290519081900360840190fd5b612bd985612722565b93509350935081156122af576122af8585856129f2565b60065490565b600c5463ffffffff1681565b612c0a61217b565b1515612c4e576040805160e560020a62461bcd0281526020600482018190526024820152600080516020615164833981519152604482015290519081900360640190fd5b600a55565b612c5b61217b565b1515612c9f576040805160e560020a62461bcd0281526020600482018190526024820152600080516020615164833981519152604482015290519081900360640190fd5b60028054600160a060020a031916600160a060020a0392909216919091179055565b600254600160a060020a031690565b6000612cda61217b565b1515612d1e576040805160e560020a62461bcd0281526020600482018190526024820152600080516020615164833981519152604482015290519081900360640190fd5b6120f5600183614263565b60006120f56001805480602002602001604051908101604052809291908181526020018280548015612da657602002820191906000526020600020906000905b82829054906101000a900463ffffffff1663ffffffff1681526020019060040190602082600301049283019260010382029150808411612d695790505b50505050508361435a565b606080600080606080600080612de2601360009054906101000a900463ffffffff1663ffffffff166127478c613312565b601354909650612dfd90879063ffffffff9081169061394a16565b9450612e088a6132f9565b86101580612e17575060145485105b15612e2157612f74565b612e2a8a6132f9565b851115612e3d57612e3a8a6132f9565b94505b6014548611612e4c5760145495505b612e54613767565b9350612e748686612e648d613312565b612e6d8e61331f565b8d896143a5565b925088519150600090505b81811015612f6d576003548951600160a060020a03909116906341976e09908b9084908110612eaa57fe5b906020019060200201516040518263ffffffff1660e060020a0281526004018082600160a060020a0316600160a060020a03168152602001915050602060405180830381600087803b158015612eff57600080fd5b505af1158015612f13573d6000803e3d6000fd5b505050506040513d6020811015612f2957600080fd5b50518351849083908110612f3957fe5b90602001906020020151811515612f4c57fe5b058382815181101515612f5b57fe5b60209081029091010152600101612e7f565b8284975097505b5050505050509250929050565b612f8961217b565b1515612fcd576040805160e560020a62461bcd0281526020600482018190526024820152600080516020615164833981519152604482015290519081900360640190fd5b80600b83815481101515612fdd57fe5b9060005260206000200160006101000a815481600160a060020a030219169083600160a060020a031602179055505050565b600160a060020a03811660009081526008602090815260409182902080548351818402810184019094528084526060939283018282801561306f57602002820191906000526020600020905b81548152602001906001019080831161305b575b50505050509050919050565b6060600b8054806020026020016040519081016040528092919081815260200182805480156114b157602002820191906000526020600020905b8154600160a060020a031681526001909101906020018083116130b5575050505050905090565b611ad7600180548060200260200160405190810160405280929190818152602001828054801561315757602002820191906000526020600020906000905b82829054906101000a900463ffffffff1663ffffffff168152602001906004019060208260030104928301926001038202915080841161311a5790505b505050505082614577565b61316a61217b565b15156131ae576040805160e560020a62461bcd0281526020600482018190526024820152600080516020615164833981519152604482015290519081900360640190fd5b611ad7816145d7565b6060806000836040519080825280602002602001820160405280156131e6578160200160208202803883390190505b50600160a060020a038716600090815260086020526040902054909250858501111561323857600160a060020a038616600090815260086020526040902054613235908663ffffffff6132b016565b93505b5060005b8381101561329557600160a060020a0386166000908152600860205260409020805486830190811061326a57fe5b9060005260206000200154828281518110151561328357fe5b6020908102909101015260010161323c565b50949350505050565b60145460065460125491929091904290565b60006132f283836040805190810160405280601e81526020017f536166654d6174683a207375627472616374696f6e206f766572666c6f7700008152506146b8565b9392505050565b68010000000000000000900467ffffffffffffffff1690565b67ffffffffffffffff1690565b700100000000000000000000000000000000900467ffffffffffffffff1690565b606060006060600080600080600061335b8d8d8d8d8d614755565b955061336e8d6014600001548e8e614930565b909d5094505b8b8d10156134ad57600680548e90811061338a57fe5b90600052602060002090600502019350836002015492508a8310806133b157506004840154155b156133bb576134a2565b600760008e815260200190815260200160002091506134068d8c84600001548688600301548760030154886004015489600501548c600001601c9054906101000a900460ff166149b2565b905060008111156134a257600182015461342a908a90600160a060020a03166149fb565b925061345f8260030154613453866004015461274785876002015461363c90919063ffffffff16565b9063ffffffff614a4816565b905061348981878581518110151561347357fe5b602090810290910101519063ffffffff61394a16565b868481518110151561349757fe5b602090810290910101525b6001909c019b613374565b50939b929a509198505050505050505050565b600080821180156134d357506006548211155b1515613529576040805160e560020a62461bcd02815260206004820152601660248201527f6f7074696f6e206964206973206e6f7420657869737400000000000000000000604482015290519081900360640190fd5b60068054600019840190811061353b57fe5b90600052602060002090600502019050919050565b60808101514210611ad7576040805160e560020a62461bcd02815260206004820152601160248201527f6f7074696f6e2069732065787069726564000000000000000000000000000000604482015290519081900360640190fd5b60c0820151811115611524576040805160e560020a62461bcd02815260206004820152601d60248201527f6f7074696f6e20616d6f756e7420697320696e73756666696369656e74000000604482015290519081900360640190fd5b600060ff841615828411141561361f575060006132f2565b60ff84161561363057818303613634565b8282035b949350505050565b60008083151561364f57600091506136df565b5082820282848281151561365f57fe5b04146136db576040805160e560020a62461bcd02815260206004820152602160248201527f536166654d6174683a206d756c7469706c69636174696f6e206f766572666c6f60448201527f7700000000000000000000000000000000000000000000000000000000000000606482015290519081900360840190fd5b8091505b5092915050565b600c5460009081908190819063ffffffff16600d82015481151561370657fe5b600c54919004925063ffffffff16600d6001015481151561372357fe5b0460010190505b8082101561375f5760008281526010602052604090205461375290849063ffffffff61394a16565b925060019091019061372a565b509092915050565b60015460408051828152602080840282010190915260609190829060009083801561379c578160200160208202803883390190505b509150600090505b828110156136df5760035460018054600160a060020a039092169163da6632579190849081106137d057fe5b90600052602060002090600891828204019190066004029054906101000a900463ffffffff166040518263ffffffff1660e060020a028152600401808263ffffffff168152602001915050602060405180830381600087803b15801561383557600080fd5b505af1158015613849573d6000803e3d6000fd5b505050506040513d602081101561385f57600080fd5b5051825183908390811061386f57fe5b602090810290910101526001016137a4565b60006120f560018054806020026020016040519081016040528092919081815260200182805480156138fe57602002820191906000526020600020906000905b82829054906101000a900463ffffffff1663ffffffff16815260200190600401906020826003010492830192600103820291508084116138c15790505b505050505083614a8a565b600080428460800151111580613921575060c0840151155b1561392f57600091506136df565b6136348460c0015161274786604001518760a0015187614ad1565b6000828201838110156136db576040805160e560020a62461bcd02815260206004820152601b60248201527f536166654d6174683a206164646974696f6e206f766572666c6f770000000000604482015290519081900360640190fd5b60004284608001511115156139be575060006132f2565b6136348361274786604001518760a0015186614ad1565b600a54600019820160009081526007602052604090205442910110611ad7576040805160e560020a62461bcd02815260206004820152602560248201527f6f7074696f6e206c6f636b206c696d69746174696f6e206973206e6f7420657860448201527f7069726564000000000000000000000000000000000000000000000000000000606482015290519081900360840190fd5b80600160a060020a03168260200151600160a060020a0316141515611524576040805160e560020a62461bcd02815260206004820152601f60248201527f63616c6c6572206973206e6f7420746865206f7074696f6e73206f776e657200604482015290519081900360640190fd5b613b3282805480602002602001604051908101604052809291908181526020018280548015613b2757602002820191906000526020600020905b815481526020019060010190808311613b13575b505050505082614084565b15156115245781546001810183556000928352602090922090910155565b8154600090815b81811015613b8c57838582815481101515613b6e57fe5b90600052602060002001541415613b8457613b8c565b600101613b57565b81811015613bf05760001982018114613bd6578460018303815481101515613bb057fe5b90600052602060002001548582815481101515613bc957fe5b6000918252602090912001555b8454613be68660001983016150f0565b5060019250613bf5565b600092505b505092915050565b60a08301516080840151600554606086015160408088015181517fb4277bc100000000000000000000000000000000000000000000000000000000815263ffffffff909316600484015260ff16602483015242909303604482018190526064820185905283519093600093849384938493600160a060020a039093169263b4277bc1926084808201939182900301818787803b158015613c9c57600080fd5b505af1158015613cb0573d6000803e3d6000fd5b505050506040513d6040811015613cc657600080fd5b5080516020918201516004805460408e81015181517f055ef6ab0000000000000000000000000000000000000000000000000000000081529384018d9052602484018d9052604484018c9052606484018690526084840185905260ff1660a484015251939850919650600160a060020a039091169263055ef6ab9260c4808401938290030181600087803b158015613d5d57600080fd5b505af1158015613d71573d6000803e3d6000fd5b505050506040513d6020811015613d8757600080fd5b5051600354604080517f41976e09000000000000000000000000000000000000000000000000000000008152600160a060020a038c811660048301529151939550613e319391909216916341976e099160248083019260209291908290030181600087803b158015613df857600080fd5b505af1158015613e0c573d6000803e3d6000fd5b505050506040513d6020811015613e2257600080fd5b5051889063ffffffff614a4816565b6040805160c081018252428152600160a060020a039a8b166020808301918252828401948552606083019687526080830198895260a083019788529c516000190167ffffffffffffffff1660009081526007909d5291909b209a518b555160018b018054600160a060020a03191691909a16179098555095516002880155945160038701555160048601555050905160059092019190915550565b613f2f82805480602002602001604051908101604052809291908181526020018280548015613f2457602002820191906000526020600020905b8154600160a060020a03168152600190910190602001808311613f06575b505050505082614aef565b1515611524578154600181018355600083815260209020018054600160a060020a038316600160a060020a03199091161790555050565b600080806060818080613f7f89600d8301548a42614930565b9099509450613f8c613767565b9350600092505b8789101561407557613fad60068a815481101515611b2b57fe5b915061405660068a815481101515613fc157fe5b60009182526020918290206040805160e081018252600593909302909101805467ffffffffffffffff81168452680100000000000000008104600160a060020a03169484019490945260e060020a90930460ff1690820152600182015463ffffffff16606082015260028201546080820152600382015460a082015260049091015460c08201528551869085908110611bf657fe5b9050614068838263ffffffff61394a16565b6001909901989250613f93565b50909792965091945050505050565b8151600090815b81811015613bf0578385828151811015156140a257fe5b9060200190602002015114156140bb5760019250613bf5565b60010161408b565b8154600090815b818110156141125783600160a060020a031685828154811015156140ea57fe5b600091825260209091200154600160a060020a0316141561410a57614112565b6001016140ca565b81811015613bf05760001982018114613bd657846001830381548110151561413657fe5b6000918252602090912001548554600160a060020a039091169086908390811061415c57fe5b9060005260206000200160006101000a815481600160a060020a030219169083600160a060020a031602179055508454613be68660001983016150f0565b61421f8280548060200260200160405190810160405280929190818152602001828054801561421457602002820191906000526020600020906000905b82829054906101000a900463ffffffff1663ffffffff16815260200190600401906020826003010492830192600103820291508084116141d75790505b50505050508261435a565b1515611524578154600181018355600092835260209092206008830401805460079093166004026101000a63ffffffff818102199094169290931692909202179055565b8154600090815b818110156142be578363ffffffff16858281548110151561428757fe5b6000918252602090912060088204015460079091166004026101000a900463ffffffff1614156142b6576142be565b60010161426a565b81811015613bf0576000198201811461434a5784600183038154811015156142e257fe5b90600052602060002090600891828204019190066004029054906101000a900463ffffffff16858281548110151561431657fe5b90600052602060002090600891828204019190066004026101000a81548163ffffffff021916908363ffffffff1602179055505b8454613be6866000198301615119565b8151600090815b81811015613bf0578363ffffffff16858281518110151561437e57fe5b9060200190602002015163ffffffff16141561439d5760019250613bf5565b600101614361565b60608060006060600080600080601860008d815260200190815260200160002080548060200260200160405190810160405280929190818152602001828054801561440f57602002820191906000526020600020905b8154815260200190600101908083116143fb575b50505050509650601760008d815260200190815260200160002054955061443a8e8e8d898b8f614b40565b94505b8c8e101561456557600680548f90811061445357fe5b90600052602060002090600502019350858460020154108061447757506004840154155b156144815761455a565b60018401546144959063ffffffff16613881565b9b506144cd8485600401548e8a51116144af5760006144c8565b898f8151811015156144bd57fe5b906020019060200201515b614ced565b92506144f58485600401548b8f8151811015156144e657fe5b90602001906020020151614d30565b915082821461455a575060008d81526007602052604090206001810154614526908b90600160a060020a03166149fb565b9b5061453182614d72565b61453a84614d72565b03858d81518110151561454957fe5b602090810290910101805190910190525b6001909d019c61443d565b50929c9b505050505050505050505050565b614581828261435a565b1515611524576040805160e560020a62461bcd02815260206004820152601f60248201527f77686974654c6973743a207573696e6720696e76616c69642075696e74333200604482015290519081900360640190fd5b600160a060020a038116151561465d576040805160e560020a62461bcd02815260206004820152602660248201527f4f776e61626c653a206e6577206f776e657220697320746865207a65726f206160448201527f6464726573730000000000000000000000000000000000000000000000000000606482015290519081900360840190fd5b60008054604051600160a060020a03808516939216917f8be0079c531659141344cd1fd0a4f28419497f9722a3daafe3b4186f6b6457e091a360008054600160a060020a031916600160a060020a0392909216919091179055565b600080828585111561474b5760405160e560020a62461bcd0281526004018080602001828103825283818151815260200191508051906020019080838360005b838110156147105781810151838201526020016146f8565b50505050905090810190601f16801561473d5780820380516001836020036101000a031916815260200191505b509250505060405180910390fd5b5050509103919050565b606080600061476261505d565b60008060008060008951604051908082528060200260200182016040528015614795578160200160208202803883390190505b5060165490985096505b8a87101561491e57600087815260116020526040908190208151808301928390529160029082845b8154815260200190600101908083116147c757505050505095508d8660006002811015156147f157fe5b60200201511080614803575085518d11155b1561480d57614913565b855160068054909190811061481e57fe5b90600052602060002090600502019450846002015493508b84108061484557506020860151155b1561484f57614913565b85516000908152600760205260408120935061489e90879060200201518d8560000154878960030154886003015489600401548a600501548d600001601c9054906101000a900460ff16614deb565b60038401549092506148ca9061345388600160200201516002870154612747908763ffffffff61363c16565b60018401549092506148e6908b90600160a060020a03166149fb565b90506148fa82898381518110151561347357fe5b888281518110151561490857fe5b602090810290910101525b60019096019561479f565b50959c9b505050505050505050505050565b600080848181881115614948578782935093506149a7565b8197505b858810156149a057600680548990811061496257fe5b90600052602060002090600502019050848160020154108061498657506004810154155b1561499057614995565b6149a0565b60019097019661494c565b8788935093505b505094509492505050565b60008060006149c88c8c8c8c8c8c8c8c8c614deb565b91506149d78989888888614ee0565b90508082116149e75760006149eb565b8082035b9c9b505050505050505050505050565b8151600090815b818110156136345783600160a060020a03168582815181101515614a2257fe5b90602001906020020151600160a060020a03161415614a4057613634565b600101614a02565b60006132f283836040805190810160405280601a81526020017f536166654d6174683a206469766973696f6e206279207a65726f000000000000815250614fb5565b8151600090815b81811015613634578363ffffffff168582815181101515614aae57fe5b9060200190602002015163ffffffff161415614ac957613634565b600101614a91565b600060ff8416158284111415614ae85750816132f2565b50806132f2565b8151600090815b81811015613bf05783600160a060020a03168582815181101515614b1657fe5b90602001906020020151600160a060020a03161415614b385760019250613bf5565b600101614af6565b6060806000614b4d61505d565b6000806000808851604051908082528060200260200182016040528015614b7e578160200160208202803883390190505b5060165490975095505b8b861015614cdb57600086815260116020526040908190208151808301928390529160029082845b815481526020019060010190808311614bb057505050505094508d856000600281101515614bda57fe5b60200201511080614bec575084518d11155b15614bf657614cd0565b8451600680549091908110614c0757fe5b906000526020600020906005020193508a84600201541080614c2b57506020850151155b15614c3557614cd0565b6001840154614c499063ffffffff16613881565b9250614c74848660016020020151858d5111614c665760006144c8565b8c868151811015156144bd57fe5b91508115614cd05750835160009081526007602052604090206001810154614ca6908a90600160a060020a03166149fb565b9250614cb182614d72565b8784815181101515614cbf57fe5b602090810290910101805190910190525b600190950194614b88565b50949c9b505050505050505050505050565b6000601460010154845467ffffffffffffffff1611614d2857835460038501546136349184916127479160e060020a900460ff169087613607565b5060006132f2565b6000428460020154111580614d43575081155b15614d50575060006132f2565b835460038501546136349184916127479160e060020a900460ff169087613607565b60007f7fffffffffffffffffffffffffffffffffffffffffffffffffffffffffffffff82116119b7576040805160e560020a62461bcd02815260206004820152601b60248201527f536166654d6174683a20746f496e74323536206f766572666c6f770000000000604482015290519081900360640190fd5b6015546000908a101580614dfe57508789105b15614e0a575083614ed3565b868910614e1957506000614ed3565b60048054604080517f055ef6ab000000000000000000000000000000000000000000000000000000008152928301899052602483018990528b8a036044840152606483018790526084830186905260ff851660a484015251600160a060020a039091169163055ef6ab9160c48083019260209291908290030181600087803b158015614ea457600080fd5b505af1158015614eb8573d6000803e3d6000fd5b505050506040513d6020811015614ece57600080fd5b505190505b9998505050505050505050565b600042861115614fa85760048054604080517f055ef6ab000000000000000000000000000000000000000000000000000000008152928301889052602483018890524289036044840152606483018790526084830186905260ff851660a484015251600160a060020a039091169163055ef6ab9160c48083019260209291908290030181600087803b158015614f7557600080fd5b505af1158015614f89573d6000803e3d6000fd5b505050506040513d6020811015614f9f57600080fd5b50519050614fac565b5060005b95945050505050565b6000808281851161500b5760405160e560020a62461bcd028152600401808060200182810382528381815181526020019150805190602001908083836000838110156147105781810151838201526020016146f8565b50838581151561501757fe5b0495945050505050565b6040805160e081018252600080825260208201819052918101829052606081018290526080810182905260a0810182905260c081019190915290565b60408051808201825290600290829080388339509192915050565b82600281019282156150a6579160200282015b828111156150a657825182559160200191906001019061508b565b506150b2929150615149565b5090565b8280548282559060005260206000209081019282156150a657916020028201828111156150a657825182559160200191906001019061508b565b81548183558181111561511457600083815260209020615114918101908301615149565b505050565b81548183558181111561511457600701600890048160070160089004836000526020600020918201910161511491905b6114b991905b808211156150b2576000815560010161514f56004f776e61626c653a2063616c6c6572206973206e6f7420746865206f776e6572a165627a7a72305820be23e1cff67085dcfff724e5225dea9f9957f5902c3f0ea69c1f5f5b58e2cae900294f776e61626c653a2063616c6c6572206973206e6f7420746865206f776e6572",
  "source": "pragma solidity ^0.4.26;\r\nimport \"./OptionsBase.sol\";\r\nimport \"./modules/tuple.sol\";\r\nimport \"./modules/Operator.sol\";\r\n\r\ncontract OptionsPool is OptionsBase,Operator {\r\n\r\n    //calculate options Collateral occupied phases\r\n    uint32 public optionPhase = 400;\r\n    uint256[3] internal optionPhaseInfo;    //firstOption,lastOption,lastBurn\r\n    mapping(uint256=>uint256) internal OptionsPhases;\r\n    //each burn options\r\n    mapping(uint256=>uint256[2]) internal burnedOptions;\r\n    uint256 internal burnedLength;\r\n    //calculate Options time shared value phases\r\n    uint32 public sharedPhase = 400;\r\n    uint256[3] internal optionPhaseInfo_Share;  //firstOption,lastOption,lastBurn\r\n    mapping (uint256 =>uint256) internal OptionsPhaseTimes;\r\n    mapping (uint256 =>uint256[]) internal OptionsPhasePrices;\r\n    //each block burn options\r\n\r\n    constructor (address oracleAddr,address optionsPriceAddr,address ivAddress) OptionsBase(oracleAddr,optionsPriceAddr,ivAddress) public{\r\n    }\r\n    function getOptionCalRangeAll()public view returns(uint256,uint256,uint256,uint256,uint256,uint256){\r\n        return (optionPhaseInfo[0],optionPhaseInfo[0],allOptions.length,burnedLength,block.number,now);\r\n    }\r\n    function getOptionPhaseCalRange()public view returns(uint256,uint256,uint256){\r\n        return (optionPhaseInfo[0],allOptions.length,burnedLength);\r\n    }\r\n    function getsharedPhaseCalRange()public view returns(uint256,uint256,uint256,uint256){\r\n        return (optionPhaseInfo_Share[0],allOptions.length,burnedLength,now);\r\n    }\r\n    function getsharedPhaseCalInfo(uint256 index)public view returns(uint256,uint256[]){\r\n        return (OptionsPhaseTimes[index],OptionsPhasePrices[index]);\r\n    }\r\n    //index,lastOption,lastBurned\r\n    function setPhaseOccupiedCollateral(uint256 calInfo) public onlyOperatorIndex(0) {\r\n        (uint256 totalOccupied,uint256 beginOption,bool success) = calculatePhaseOccupiedCollateral(calInfo);\r\n        if (success){\r\n            setCollateralPhase(calInfo,totalOccupied,beginOption);\r\n        }\r\n    }\r\n    function setCollateralPhase(uint256 calInfo,uint256 totalOccupied,uint256 beginOption) public onlyOperatorIndex(0){\r\n        if (beginOption > optionPhaseInfo[0]){\r\n            optionPhaseInfo[0] = beginOption;\r\n        }\r\n        if (tuple64.getValue0(calInfo)*optionPhase+optionPhase > tuple64.getValue1(calInfo)){\r\n            optionPhaseInfo[1] = tuple64.getValue1(calInfo);\r\n            optionPhaseInfo[2] = tuple64.getValue2(calInfo);\r\n        }\r\n        OptionsPhases[tuple64.getValue0(calInfo)] = totalOccupied;\r\n    }\r\n    function calculatePhaseOccupiedCollateral(uint256 calInfo) public view returns(uint256,uint256,bool){\r\n        uint256 beginOption = tuple64.getValue0(calInfo).mul(optionPhase);\r\n        if (beginOption>=tuple64.getValue1(calInfo)){\r\n            return (0,0,false);\r\n        }\r\n        uint256 endOption = beginOption.add(optionPhase);\r\n        if (endOption>tuple64.getValue1(calInfo)) {\r\n            endOption = tuple64.getValue1(calInfo);\r\n        }else if(endOption < optionPhaseInfo[0]){\r\n            return (0,0,false);\r\n        }\r\n        (uint256 totalOccupied,uint256 newFirstOption) = _calculateOccupiedCollateral(beginOption,endOption);\r\n        return (totalOccupied,newFirstOption,true);\r\n    }\r\n    function _calculateOccupiedCollateral(uint256 begin,uint256 end)internal view returns(uint256,uint256){\r\n        uint256 newFirstOption;\r\n        (begin,newFirstOption) = _getFirstOption(begin,optionPhaseInfo[0],end,now);\r\n        uint256[] memory prices = getUnderlyingPrices();\r\n        uint256 totalOccupied = 0;\r\n        for (;begin<end;begin++){\r\n            uint256 index = _getEligibleUnderlyingIndex(allOptions[begin].underlying);\r\n            uint256 value = calOptionsCollateral(allOptions[begin],prices[index]);\r\n            totalOccupied = totalOccupied.add(value);\r\n        }\r\n        return (totalOccupied,newFirstOption);\r\n    }\r\n    function setSharedState(uint256 calInfo,uint256 firstOption,uint256[] prices,uint256 calTime) public onlyManager{\r\n        if (firstOption > optionPhaseInfo_Share[0]){\r\n            optionPhaseInfo_Share[0] = firstOption;\r\n        }\r\n        if (tuple64.getValue0(calInfo)*sharedPhase+sharedPhase >= tuple64.getValue1(calInfo)){\r\n            optionPhaseInfo_Share[1] = tuple64.getValue1(calInfo);\r\n            optionPhaseInfo_Share[2] = tuple64.getValue2(calInfo);\r\n        }\r\n        OptionsPhaseTimes[tuple64.getValue0(calInfo)] = calTime;\r\n        OptionsPhasePrices[tuple64.getValue0(calInfo)] = prices;\r\n    }\r\n    function calculatePhaseSharedPayment(uint256 calInfo,address[] memory whiteList)\r\n        public view returns(uint256[],uint256,bool){\r\n        uint256 beginOption = tuple64.getValue0(calInfo).mul(sharedPhase);\r\n        return calRangeSharedPayment(calInfo,beginOption,beginOption.add(sharedPhase),whiteList);\r\n    }\r\n    function calRangeSharedPayment(uint256 calInfo,uint256 begin,uint256 end,address[] memory whiteList)\r\n            public view returns(uint256[],uint256,bool){\r\n        if (begin>=tuple64.getValue1(calInfo) || end < optionPhaseInfo_Share[0]){\r\n            return(sharedBalances,0,false);\r\n        }\r\n        if (end>tuple64.getValue1(calInfo)) {\r\n            end = tuple64.getValue1(calInfo);\r\n        }\r\n        (uint256[] memory sharedBalances,uint256 _firstOption) = \r\n            _calculateSharedPayment(begin,end,OptionsPhaseTimes[tuple64.getValue0(calInfo)],tuple64.getValue2(calInfo),whiteList);\r\n        return (sharedBalances,_firstOption,true);\r\n    }\r\n    function _calculateSharedPayment(uint256 begin,uint256 end,uint256 preTime,uint256 lastburn,address[] memory whiteList)\r\n            internal view returns(uint256[],uint256){\r\n        uint256[] memory totalSharedPayment = _calBurnedSharePrice(begin,end,preTime,lastburn,whiteList);\r\n        uint256 newFirstOption;\r\n        (begin,newFirstOption) = _getFirstOption(begin,optionPhaseInfo_Share[0],end,preTime); \r\n        for (;begin<end;begin++){\r\n            OptionsInfo storage info = allOptions[begin];\r\n            uint256 tempValue = info.expiration;\r\n            if(tempValue<preTime || info.amount == 0){\r\n                continue;\r\n            }\r\n            OptionsInfoEx storage optionEx = optionExtraMap[begin];\r\n            uint256 timeValue = _calculateTimePrice(begin,preTime,optionEx.createdTime,tempValue,info.strikePrice,\r\n                    optionEx.fullPrice,optionEx.ivNumerator,optionEx.ivDenominator,info.optType);\r\n            if (timeValue>0){\r\n                tempValue = whiteListAddress._getEligibleIndexAddress(whiteList,optionEx.settlement);\r\n                timeValue = optionEx.tokenTimePrice.mul(timeValue).mul(info.amount).div(optionEx.fullPrice);\r\n                totalSharedPayment[tempValue] = totalSharedPayment[tempValue].add(timeValue);\r\n            }\r\n        }\r\n        //burned\r\n        return (totalSharedPayment,newFirstOption);\r\n    }\r\n    function _getFirstOption(uint256 begin,uint256 latestBegin,uint256 end,uint256 testTime) internal view returns(uint256,uint256){\r\n        uint256 newFirstOption = latestBegin;\r\n        if (begin > newFirstOption){\r\n            //if in other phase, begin != new begin\r\n            return (begin,newFirstOption);\r\n        }\r\n        begin = newFirstOption;\r\n        for (;begin<end;begin++){\r\n            OptionsInfo storage info = allOptions[begin];\r\n            if(info.expiration<testTime || info.amount == 0){\r\n                continue;\r\n            }\r\n            break;\r\n        }\r\n        //if in first phase, begin = new begin\r\n        return (begin,begin);\r\n    }\r\n    function _calBurnedSharePrice(uint256 beginIndex,uint256 endIndex,uint256 preTime,uint256 lastburn,\r\n            address[] memory whiteList)internal view returns(uint256[]){\r\n        uint256[] memory totalSharedPayment = new uint256[](whiteList.length);\r\n        for (uint256 i = optionPhaseInfo_Share[2];i<lastburn;i++){\r\n            uint256[2] memory burnInfo = burnedOptions[i];\r\n            if(burnInfo[0]<beginIndex || burnInfo[0] >=endIndex){\r\n                continue;\r\n            }\r\n            OptionsInfo storage info = allOptions[burnInfo[0]];\r\n            uint256 expiration = info.expiration;\r\n            if(expiration<preTime || burnInfo[1] == 0){\r\n                continue;\r\n            }\r\n            OptionsInfoEx storage optionEx = optionExtraMap[burnInfo[0]];\r\n            uint256 preValue = _calculatePrePrice(burnInfo[0],preTime,optionEx.createdTime,expiration,\r\n                    info.strikePrice,optionEx.fullPrice,optionEx.ivNumerator,optionEx.ivDenominator,info.optType);\r\n            preValue = optionEx.tokenTimePrice.mul(preValue).mul(burnInfo[1]).div(optionEx.fullPrice);\r\n            uint256 index = whiteListAddress._getEligibleIndexAddress(whiteList,optionEx.settlement);\r\n            totalSharedPayment[index] = totalSharedPayment[index].add(preValue);\r\n        }     \r\n        return totalSharedPayment;\r\n    }\r\n\r\n    function _calculateTimePrice(uint256 index,uint256 preTime,uint256 createdTime,uint256 expiration,\r\n            uint256 strikePrice,uint256 fullPrice,uint256 ivNumerator,uint256 ivDenominator,uint8 optType)internal view returns (uint256){\r\n        uint256 preValue = _calculatePrePrice(index,preTime,createdTime,expiration,strikePrice,fullPrice,ivNumerator,\r\n            ivDenominator,optType);\r\n        uint256 nowValue = _calculateCurrentPrice(expiration,strikePrice,ivNumerator,\r\n            ivDenominator,optType);\r\n        return (preValue>nowValue)? preValue-nowValue : 0;\r\n    }\r\n    function _calculatePrePrice(uint256 index,uint256 preTime,uint256 createdTime,uint256 expiration,uint256 strikePrice,\r\n            uint256 fullPrice,uint256 ivNumerator,uint256 ivDenominator,uint8 optType)internal view returns (uint256){\r\n        if (index>=optionPhaseInfo_Share[1] || preTime<createdTime){\r\n            return fullPrice;\r\n        }else if(preTime>=expiration){\r\n            return 0;\r\n        }else{\r\n            return _optionsPrice.getOptionsPrice_iv(strikePrice,strikePrice,expiration-preTime,ivNumerator,\r\n                ivDenominator,optType);\r\n        }\r\n    }\r\n    function _calculateCurrentPrice(uint256 expiration,uint256 strikePrice,uint256 ivNumerator,uint256 ivDenominator,uint8 optType)internal view returns (uint256){\r\n        if (expiration > now){\r\n            return _optionsPrice.getOptionsPrice_iv(strikePrice,strikePrice,expiration-now,ivNumerator,\r\n                ivDenominator,optType);\r\n        }\r\n        return 0;\r\n    }\r\n    function calculatePhaseOptionsFall(uint256 calInfo,address[] memory whiteList) public view returns(int256[],uint256[]){\r\n        uint256 begin = tuple64.getValue0(calInfo).mul(sharedPhase);\r\n        uint256 end = begin.add(sharedPhase);\r\n        if (begin>=tuple64.getValue1(calInfo) || end < optionPhaseInfo_Share[0]){\r\n            return;\r\n        }\r\n        if (end>tuple64.getValue1(calInfo)) {\r\n            end = tuple64.getValue1(calInfo);\r\n        }\r\n        if (begin <= optionPhaseInfo_Share[0]) {\r\n            begin = optionPhaseInfo_Share[0];\r\n        }\r\n        uint256[] memory prices = getUnderlyingPrices();\r\n        int256[] memory OptionsFallBalances = _calRangeOptionsFall(begin,end,tuple64.getValue0(calInfo),tuple64.getValue2(calInfo),whiteList,prices);\r\n        uint256 whiteListLen = whiteList.length;\r\n        for (uint256 index = 0;index<whiteListLen;index++){\r\n            OptionsFallBalances[index] = OptionsFallBalances[index]/(int256(_oracle.getPrice(whiteList[index])));\r\n        }\r\n        return (OptionsFallBalances,prices);\r\n    }\r\n    function _calRangeOptionsFall(uint256 begin,uint256 lastOption,uint256 index,uint256 lastburn,address[] memory whiteList,uint256[] memory prices)\r\n                 internal view returns(int256[] memory){\r\n        uint256[] memory lastPrice = OptionsPhasePrices[index];\r\n        uint256 preTime = OptionsPhaseTimes[index];\r\n        int256[] memory OptionsFallBalances = _calBurnedOptionsFall(begin,lastOption,lastburn,preTime,lastPrice,whiteList);\r\n        for (;begin<lastOption;begin++){\r\n            OptionsInfo storage info = allOptions[begin];\r\n            if(info.expiration<preTime || info.amount == 0){\r\n                continue;\r\n            }\r\n            index = _getEligibleUnderlyingIndex(info.underlying);\r\n            uint256 preValue = _calPretimeCallateralFall(info,info.amount,lastPrice.length>index?lastPrice[index] : 0);\r\n            uint256 curValue = _calCurtimeCallateralFall(info,info.amount,prices[index]);\r\n            if (preValue != curValue){\r\n                OptionsInfoEx storage optionEx = optionExtraMap[begin];\r\n                index = whiteListAddress._getEligibleIndexAddress(whiteList,optionEx.settlement);\r\n                OptionsFallBalances[index] += SafeMath.toInt256(preValue) - SafeMath.toInt256(curValue);\r\n            }\r\n        }\r\n        return OptionsFallBalances;\r\n    }\r\n    function _calBurnedOptionsFall(uint256 beginIndex,uint256 endIndex,uint256 lastburn,uint256 preTime,\r\n                uint256[] memory lastPrice,address[] memory whiteList)\r\n                internal view returns(int256[] memory){\r\n        int256[] memory OptionsFallBalances = new int256[](whiteList.length);\r\n        for (uint256 i = optionPhaseInfo_Share[2];i<lastburn;i++){\r\n            uint256[2] memory burnInfo = burnedOptions[i];\r\n            if(burnInfo[0]<beginIndex || burnInfo[0] >=endIndex){\r\n                continue;\r\n            }\r\n            OptionsInfo storage info = allOptions[burnInfo[0]];\r\n            if(info.expiration<preTime || burnInfo[1] == 0){\r\n                continue;\r\n            }\r\n            uint256 index = _getEligibleUnderlyingIndex(info.underlying);\r\n            uint256 preValue = _calPretimeCallateralFall(info,burnInfo[1],lastPrice.length>index?lastPrice[index] : 0);\r\n            if (preValue != 0){\r\n                OptionsInfoEx storage optionEx = optionExtraMap[burnInfo[0]];\r\n                index = whiteListAddress._getEligibleIndexAddress(whiteList,optionEx.settlement);\r\n                OptionsFallBalances[index] += SafeMath.toInt256(preValue);\r\n            }\r\n        }     \r\n        return OptionsFallBalances;\r\n    }\r\n    function _calPretimeCallateralFall(OptionsInfo storage info,uint256 prePrice,uint256 amount) internal view returns(uint256){\r\n        if(info.optionID<=optionPhaseInfo_Share[1]){\r\n            return _getOptionsPayback(info.optType,info.strikePrice,prePrice).mul(amount);\r\n        }else{\r\n            return 0;\r\n        }\r\n    }\r\n    function _calCurtimeCallateralFall(OptionsInfo storage info,uint256 curPrice,uint256 amount) internal view returns(uint256){\r\n        if (info.expiration<=now || amount == 0){\r\n            return 0;\r\n        }\r\n        return _getOptionsPayback(info.optType,info.strikePrice,curPrice).mul(amount);\r\n    }\r\n    function getTotalOccupiedCollateral() public view returns (uint256) {\r\n        uint256 totalOccupied = sumOptionPhases();\r\n        uint256[] memory prices = getUnderlyingPrices();\r\n        uint optionsLen = allOptions.length;\r\n        for (uint256 beginOption = optionPhaseInfo[1]; beginOption < optionsLen;beginOption++){\r\n            uint256 index = _getEligibleUnderlyingIndex(allOptions[beginOption].underlying);\r\n            totalOccupied = totalOccupied.add(calOptionsCollateral(allOptions[beginOption],prices[index]));\r\n        }\r\n        uint burnedLen = burnedLength;\r\n        for (uint256 i = optionPhaseInfo[2];i<burnedLen;i++){\r\n            uint256[2] memory burnInfo = burnedOptions[i];\r\n            uint optionId = burnInfo[0];\r\n            if (optionId<optionPhaseInfo[1]){\r\n                index = _getEligibleUnderlyingIndex(allOptions[optionId].underlying);\r\n                totalOccupied = totalOccupied.sub(calBurnedOptionsCollateral(allOptions[optionId],\r\n                    burnInfo[1],prices[index]));\r\n            }\r\n        }\r\n        return totalOccupied;\r\n    }\r\n    function calBurnedOptionsCollateral(OptionsInfo memory option,uint256 burned,uint256 underlyingPrice)internal view returns(uint256){\r\n        if (option.expiration<=now){\r\n            return 0;\r\n        }        \r\n        return _getOptionsWorth(option.optType,option.strikePrice,underlyingPrice).mul(burned);\r\n    }\r\n    function sumOptionPhases()internal view returns(uint256){\r\n        uint256 totalOccupied = 0;\r\n        uint256 i = optionPhaseInfo[0]/optionPhase;\r\n        uint256 phaseLen = optionPhaseInfo[1]/optionPhase+1;\r\n        for (;i<phaseLen;i++){\r\n            totalOccupied = totalOccupied.add(OptionsPhases[i]);\r\n        }\r\n        return totalOccupied;\r\n    }\r\n    function calOptionsCollateral(OptionsInfo memory option,uint256 underlyingPrice)internal view returns(uint256){\r\n        if (option.expiration<=now || option.amount == 0){\r\n            return 0;\r\n        }\r\n        uint256 totalOccupied = _getOptionsWorth(option.optType,option.strikePrice,underlyingPrice).mul(option.amount);\r\n        return totalOccupied;\r\n    }\r\n    function burnOptions(address from,uint256 id,uint256 amount)public onlyManager{\r\n        OptionsInfo storage info = _getOptionsById(id);\r\n        checkEligible(info);\r\n        checkBurnable(info.optionID);\r\n        checkOwner(info,from);\r\n        checkSufficient(info,amount);\r\n        info.amount = info.amount.sub(amount);\r\n        burnedOptions[burnedLength] = [id-1,amount];\r\n        burnedLength++;\r\n        emit BurnOption(from,id,amount);\r\n    }\r\n}",
  "sourcePath": "C:\\work\\solidity\\FinnexusOptions_V2\\contracts\\OptionsPool.sol",
  "compiler": {
    "name": "solc",
    "version": "0.4.26+commit.4563c3fc.Emscripten.clang"
  },
  "schemaVersion": "3.1.0",
  "updatedAt": "2020-07-31T09:18:35.119Z",
  "devdoc": {
    "methods": {
      "addExpiration(uint256)": {
        "details": "Implementation of add an eligible expiration into the expirationList.\r",
        "params": {
          "expiration": "new eligible expiration.\r"
        }
      },
      "addUnderlyingAsset(uint32)": {
        "details": "Implementation of add an eligible underlying into the underlyingAssets.\r",
        "params": {
          "underlying": "new eligible underlying.\r"
        }
      },
      "getExpirationList()": {
        "details": "Implementation of getting the eligible expirationList.\r"
      },
      "getUnderlyingAssets()": {
        "details": "Implementation of getting the eligible underlyingAssets.\r"
      },
      "isEligibleExpiration(uint256)": {
        "details": "Implementation of testing whether the input expiration is eligible.\r",
        "params": {
          "expiration": "input expiration for testing.\r"
        }
      },
      "isEligibleUnderlyingAsset(uint32)": {
        "details": "Implementation of testing whether the input underlying is eligible.\r",
        "params": {
          "underlying": "input underlying for testing.\r"
        }
      },
      "isOwner()": {
        "details": "Returns true if the caller is the current owner."
      },
      "owner()": {
        "details": "Returns the address of the current owner."
      },
      "removeExpirationList(uint256)": {
        "details": "Implementation of revoke an invalid expiration from the expirationList.\r",
        "params": {
          "removeExpiration": "revoked expiration.\r"
        }
      },
      "removeUnderlyingAssets(uint32)": {
        "details": "Implementation of revoke an invalid underlying from the underlyingAssets.\r",
        "params": {
          "removeUnderlying": "revoked underlying.\r"
        }
      },
      "renounceOwnership()": {
        "details": "Leaves the contract without owner. It will not be possible to call `onlyOwner` functions anymore. Can only be called by the current owner.     * NOTE: Renouncing ownership will leave the contract without an owner, thereby removing any functionality that is only available to the owner."
      },
      "transferOwnership(address)": {
        "details": "Transfers ownership of the contract to a new account (`newOwner`). Can only be called by the current owner."
      }
    }
  },
  "userdoc": {
    "methods": {
      "setManager(address)": {
        "notice": "contribution period to stop or not."
      }
    }
  }
}