{
  "contractName": "OptionsOccupiedCal",
  "abi": [
    {
      "constant": true,
      "inputs": [
        {
          "name": "from",
          "type": "uint256"
        },
        {
          "name": "size",
          "type": "uint256"
        }
      ],
      "name": "getOptionInfoList",
      "outputs": [
        {
          "name": "",
          "type": "address[]"
        },
        {
          "name": "",
          "type": "uint256[]"
        },
        {
          "name": "",
          "type": "uint256[]"
        },
        {
          "name": "",
          "type": "uint256[]"
        },
        {
          "name": "",
          "type": "uint256[]"
        }
      ],
      "payable": false,
      "stateMutability": "view",
      "type": "function"
    },
    {
      "constant": false,
      "inputs": [
        {
          "name": "volatility",
          "type": "address"
        }
      ],
      "name": "setVolatilityAddress",
      "outputs": [],
      "payable": false,
      "stateMutability": "nonpayable",
      "type": "function"
    },
    {
      "constant": true,
      "inputs": [
        {
          "name": "ids",
          "type": "uint256[]"
        }
      ],
      "name": "getOptionInfoListFromID",
      "outputs": [
        {
          "name": "",
          "type": "address[]"
        },
        {
          "name": "",
          "type": "uint256[]"
        },
        {
          "name": "",
          "type": "uint256[]"
        },
        {
          "name": "",
          "type": "uint256[]"
        },
        {
          "name": "",
          "type": "uint256[]"
        }
      ],
      "payable": false,
      "stateMutability": "view",
      "type": "function"
    },
    {
      "constant": true,
      "inputs": [],
      "name": "getUnderlyingAssets",
      "outputs": [
        {
          "name": "",
          "type": "uint32[]"
        }
      ],
      "payable": false,
      "stateMutability": "view",
      "type": "function"
    },
    {
      "constant": true,
      "inputs": [
        {
          "name": "expiration",
          "type": "uint256"
        },
        {
          "name": "underlying",
          "type": "uint32"
        }
      ],
      "name": "buyOptionCheck",
      "outputs": [],
      "payable": false,
      "stateMutability": "view",
      "type": "function"
    },
    {
      "constant": true,
      "inputs": [],
      "name": "getVolatilityAddress",
      "outputs": [
        {
          "name": "",
          "type": "address"
        }
      ],
      "payable": false,
      "stateMutability": "view",
      "type": "function"
    },
    {
      "constant": true,
      "inputs": [
        {
          "name": "optionsId",
          "type": "uint256"
        }
      ],
      "name": "getOptionsById",
      "outputs": [
        {
          "name": "",
          "type": "uint256"
        },
        {
          "name": "",
          "type": "address"
        },
        {
          "name": "",
          "type": "uint8"
        },
        {
          "name": "",
          "type": "uint32"
        },
        {
          "name": "",
          "type": "uint256"
        },
        {
          "name": "",
          "type": "uint256"
        },
        {
          "name": "",
          "type": "uint256"
        }
      ],
      "payable": false,
      "stateMutability": "view",
      "type": "function"
    },
    {
      "constant": false,
      "inputs": [
        {
          "name": "oracle",
          "type": "address"
        }
      ],
      "name": "setOracleAddress",
      "outputs": [],
      "payable": false,
      "stateMutability": "nonpayable",
      "type": "function"
    },
    {
      "constant": true,
      "inputs": [
        {
          "name": "optionID",
          "type": "uint256"
        },
        {
          "name": "amount",
          "type": "uint256"
        }
      ],
      "name": "getBurnedFullPay",
      "outputs": [
        {
          "name": "",
          "type": "address"
        },
        {
          "name": "",
          "type": "uint256"
        }
      ],
      "payable": false,
      "stateMutability": "view",
      "type": "function"
    },
    {
      "constant": true,
      "inputs": [],
      "name": "getBurnTimeLimit",
      "outputs": [
        {
          "name": "",
          "type": "uint256"
        }
      ],
      "payable": false,
      "stateMutability": "view",
      "type": "function"
    },
    {
      "constant": true,
      "inputs": [
        {
          "name": "optionsId",
          "type": "uint256"
        },
        {
          "name": "amount",
          "type": "uint256"
        }
      ],
      "name": "getExerciseWorth",
      "outputs": [
        {
          "name": "",
          "type": "uint256"
        }
      ],
      "payable": false,
      "stateMutability": "view",
      "type": "function"
    },
    {
      "constant": true,
      "inputs": [
        {
          "name": "optionsId",
          "type": "uint256"
        }
      ],
      "name": "getOptionsLimitTimeById",
      "outputs": [
        {
          "name": "",
          "type": "uint256"
        }
      ],
      "payable": false,
      "stateMutability": "view",
      "type": "function"
    },
    {
      "constant": false,
      "inputs": [],
      "name": "renounceOwnership",
      "outputs": [],
      "payable": false,
      "stateMutability": "nonpayable",
      "type": "function"
    },
    {
      "constant": true,
      "inputs": [
        {
          "name": "expiration",
          "type": "uint256"
        }
      ],
      "name": "checkExpiration",
      "outputs": [],
      "payable": false,
      "stateMutability": "view",
      "type": "function"
    },
    {
      "constant": false,
      "inputs": [
        {
          "name": "expiration",
          "type": "uint256"
        }
      ],
      "name": "addExpiration",
      "outputs": [],
      "payable": false,
      "stateMutability": "nonpayable",
      "type": "function"
    },
    {
      "constant": false,
      "inputs": [
        {
          "name": "removeExpiration",
          "type": "uint256"
        }
      ],
      "name": "removeExpirationList",
      "outputs": [
        {
          "name": "",
          "type": "bool"
        }
      ],
      "payable": false,
      "stateMutability": "nonpayable",
      "type": "function"
    },
    {
      "constant": true,
      "inputs": [],
      "name": "owner",
      "outputs": [
        {
          "name": "",
          "type": "address"
        }
      ],
      "payable": false,
      "stateMutability": "view",
      "type": "function"
    },
    {
      "constant": true,
      "inputs": [],
      "name": "isOwner",
      "outputs": [
        {
          "name": "",
          "type": "bool"
        }
      ],
      "payable": false,
      "stateMutability": "view",
      "type": "function"
    },
    {
      "constant": true,
      "inputs": [],
      "name": "getExpirationList",
      "outputs": [
        {
          "name": "",
          "type": "uint256[]"
        }
      ],
      "payable": false,
      "stateMutability": "view",
      "type": "function"
    },
    {
      "constant": false,
      "inputs": [
        {
          "name": "addAddress",
          "type": "address"
        }
      ],
      "name": "addOperator",
      "outputs": [],
      "payable": false,
      "stateMutability": "nonpayable",
      "type": "function"
    },
    {
      "constant": true,
      "inputs": [
        {
          "name": "expiration",
          "type": "uint256"
        }
      ],
      "name": "isEligibleExpiration",
      "outputs": [
        {
          "name": "",
          "type": "bool"
        }
      ],
      "payable": false,
      "stateMutability": "view",
      "type": "function"
    },
    {
      "constant": false,
      "inputs": [
        {
          "name": "removeAddress",
          "type": "address"
        }
      ],
      "name": "removeOperator",
      "outputs": [
        {
          "name": "",
          "type": "bool"
        }
      ],
      "payable": false,
      "stateMutability": "nonpayable",
      "type": "function"
    },
    {
      "constant": false,
      "inputs": [
        {
          "name": "underlying",
          "type": "uint32"
        }
      ],
      "name": "addUnderlyingAsset",
      "outputs": [],
      "payable": false,
      "stateMutability": "nonpayable",
      "type": "function"
    },
    {
      "constant": true,
      "inputs": [],
      "name": "getOracleAddress",
      "outputs": [
        {
          "name": "",
          "type": "address"
        }
      ],
      "payable": false,
      "stateMutability": "view",
      "type": "function"
    },
    {
      "constant": true,
      "inputs": [],
      "name": "getOptionInfoLength",
      "outputs": [
        {
          "name": "",
          "type": "uint256"
        }
      ],
      "payable": false,
      "stateMutability": "view",
      "type": "function"
    },
    {
      "constant": false,
      "inputs": [
        {
          "name": "timeLimit",
          "type": "uint256"
        }
      ],
      "name": "setBurnTimeLimit",
      "outputs": [],
      "payable": false,
      "stateMutability": "nonpayable",
      "type": "function"
    },
    {
      "constant": false,
      "inputs": [
        {
          "name": "managerAddress",
          "type": "address"
        }
      ],
      "name": "setManager",
      "outputs": [],
      "payable": false,
      "stateMutability": "nonpayable",
      "type": "function"
    },
    {
      "constant": true,
      "inputs": [],
      "name": "getManager",
      "outputs": [
        {
          "name": "",
          "type": "address"
        }
      ],
      "payable": false,
      "stateMutability": "view",
      "type": "function"
    },
    {
      "constant": false,
      "inputs": [
        {
          "name": "removeUnderlying",
          "type": "uint32"
        }
      ],
      "name": "removeUnderlyingAssets",
      "outputs": [
        {
          "name": "",
          "type": "bool"
        }
      ],
      "payable": false,
      "stateMutability": "nonpayable",
      "type": "function"
    },
    {
      "constant": true,
      "inputs": [
        {
          "name": "underlying",
          "type": "uint32"
        }
      ],
      "name": "isEligibleUnderlyingAsset",
      "outputs": [
        {
          "name": "",
          "type": "bool"
        }
      ],
      "payable": false,
      "stateMutability": "view",
      "type": "function"
    },
    {
      "constant": false,
      "inputs": [
        {
          "name": "index",
          "type": "uint256"
        },
        {
          "name": "addAddress",
          "type": "address"
        }
      ],
      "name": "setOperator",
      "outputs": [],
      "payable": false,
      "stateMutability": "nonpayable",
      "type": "function"
    },
    {
      "constant": true,
      "inputs": [
        {
          "name": "user",
          "type": "address"
        }
      ],
      "name": "getUserOptionsID",
      "outputs": [
        {
          "name": "",
          "type": "uint256[]"
        }
      ],
      "payable": false,
      "stateMutability": "view",
      "type": "function"
    },
    {
      "constant": true,
      "inputs": [],
      "name": "getOperator",
      "outputs": [
        {
          "name": "",
          "type": "address[]"
        }
      ],
      "payable": false,
      "stateMutability": "view",
      "type": "function"
    },
    {
      "constant": true,
      "inputs": [
        {
          "name": "underlying",
          "type": "uint32"
        }
      ],
      "name": "checkUnderlyingAsset",
      "outputs": [],
      "payable": false,
      "stateMutability": "view",
      "type": "function"
    },
    {
      "constant": false,
      "inputs": [
        {
          "name": "newOwner",
          "type": "address"
        }
      ],
      "name": "transferOwnership",
      "outputs": [],
      "payable": false,
      "stateMutability": "nonpayable",
      "type": "function"
    },
    {
      "constant": true,
      "inputs": [
        {
          "name": "user",
          "type": "address"
        },
        {
          "name": "from",
          "type": "uint256"
        },
        {
          "name": "size",
          "type": "uint256"
        }
      ],
      "name": "getUserOptionsID",
      "outputs": [
        {
          "name": "",
          "type": "uint256[]"
        }
      ],
      "payable": false,
      "stateMutability": "view",
      "type": "function"
    },
    {
      "anonymous": false,
      "inputs": [
        {
          "indexed": true,
          "name": "owner",
          "type": "address"
        },
        {
          "indexed": true,
          "name": "optionID",
          "type": "uint256"
        },
        {
          "indexed": false,
          "name": "optType",
          "type": "uint8"
        },
        {
          "indexed": false,
          "name": "underlying",
          "type": "uint32"
        },
        {
          "indexed": false,
          "name": "expiration",
          "type": "uint256"
        },
        {
          "indexed": false,
          "name": "strikePrice",
          "type": "uint256"
        },
        {
          "indexed": false,
          "name": "amount",
          "type": "uint256"
        }
      ],
      "name": "CreateOption",
      "type": "event"
    },
    {
      "anonymous": false,
      "inputs": [
        {
          "indexed": true,
          "name": "owner",
          "type": "address"
        },
        {
          "indexed": true,
          "name": "optionID",
          "type": "uint256"
        },
        {
          "indexed": false,
          "name": "amount",
          "type": "uint256"
        }
      ],
      "name": "BurnOption",
      "type": "event"
    },
    {
      "anonymous": false,
      "inputs": [
        {
          "indexed": false,
          "name": "value1",
          "type": "uint256"
        },
        {
          "indexed": false,
          "name": "value2",
          "type": "uint256"
        },
        {
          "indexed": false,
          "name": "value3",
          "type": "uint256"
        }
      ],
      "name": "DebugEvent",
      "type": "event"
    },
    {
      "anonymous": false,
      "inputs": [
        {
          "indexed": true,
          "name": "previousOwner",
          "type": "address"
        },
        {
          "indexed": true,
          "name": "newOwner",
          "type": "address"
        }
      ],
      "name": "OwnershipTransferred",
      "type": "event"
    },
    {
      "constant": true,
      "inputs": [],
      "name": "getOccupiedCalInfo",
      "outputs": [
        {
          "name": "",
          "type": "uint256"
        },
        {
          "name": "",
          "type": "int256"
        }
      ],
      "payable": false,
      "stateMutability": "view",
      "type": "function"
    },
    {
      "constant": false,
      "inputs": [],
      "name": "setOccupiedCollateral",
      "outputs": [],
      "payable": false,
      "stateMutability": "nonpayable",
      "type": "function"
    },
    {
      "constant": true,
      "inputs": [
        {
          "name": "lastOption",
          "type": "uint256"
        },
        {
          "name": "beginOption",
          "type": "uint256"
        },
        {
          "name": "endOption",
          "type": "uint256"
        }
      ],
      "name": "calculatePhaseOccupiedCollateral",
      "outputs": [
        {
          "name": "",
          "type": "uint256"
        },
        {
          "name": "",
          "type": "uint256"
        },
        {
          "name": "",
          "type": "bool"
        }
      ],
      "payable": false,
      "stateMutability": "view",
      "type": "function"
    },
    {
      "constant": false,
      "inputs": [
        {
          "name": "totalOccupied",
          "type": "uint256"
        },
        {
          "name": "beginOption",
          "type": "uint256"
        },
        {
          "name": "latestOccpied",
          "type": "int256"
        }
      ],
      "name": "setCollateralPhase",
      "outputs": [],
      "payable": false,
      "stateMutability": "nonpayable",
      "type": "function"
    },
    {
      "constant": true,
      "inputs": [],
      "name": "getTotalOccupiedCollateral",
      "outputs": [
        {
          "name": "",
          "type": "uint256"
        }
      ],
      "payable": false,
      "stateMutability": "view",
      "type": "function"
    }
  ],
  "bytecode": "0x60806040819052610e1060095560008054600160a060020a0319163317808255600160a060020a0316917f8be0079c531659141344cd1fd0a4f28419497f9722a3daafe3b4186f6b6457e0908290a36040805160e0810182526201518081526203f480602082015262093a8091810191909152620d2f0060608201526213c680608082015262278d0060a08201526276a70060c0820152620000a6906008906007620000d2565b50604080518082019091526001808252600260208301819052620000cb929062000129565b506200021c565b82805482825590600052602060002090810192821562000117579160200282015b8281111562000117578251829062ffffff16905591602001919060010190620000f3565b5062000125929150620001d8565b5090565b82805482825590600052602060002090600701600890048101928215620001ca5791602002820160005b838211156200019657835183826101000a81548163ffffffff021916908360ff160217905550926020019260040160208160030104928301926001030262000153565b8015620001c85782816101000a81549063ffffffff021916905560040160208160030104928301926001030262000196565b505b5062000125929150620001f8565b620001f591905b80821115620001255760008155600101620001df565b90565b620001f591905b808211156200012557805463ffffffff19168155600101620001ff565b612c8a806200022c6000396000f3006080604052600436106101df5763ffffffff60e060020a6000350416630438d49081146101e457806309057622146103675780630c3725711461039557806312039cc2146103d35780632967eafe146103f3578063354af360146104145780633582d789146104695780633ad2fb57146104ce57806342e5479d146104ef57806348ee201d146105205780634c69c00f1461057f578063597ce900146105a057806364ed3017146105de57806367b8ceb9146106055780636d84e2e314610620578063715018a614610638578063723931ca1461064d57806373a3d424146106655780637cfff2d81461067a5780637e838fa3146106925780638da5cb5b146106be5780638f32d59b146106d35780639052d5f8146106e85780639870d7fe146106fd5780639ef975d21461071e578063ac8a584a14610736578063afec82fc14610757578063b18b78dd14610775578063bec3107f1461078a578063c5acbe151461079f578063d0ebdbe7146107b7578063d5009584146107d8578063d6d14012146107ed578063db6ad2bd1461080b578063e7a1c1c014610829578063e7c568151461084d578063e7f43c681461086e578063ee29c94a14610883578063f2fde38b146108a1578063f504e2f0146108c2578063f7de1923146108d7575b600080fd5b3480156101f057600080fd5b506101ff6004356024356108fe565b60405180806020018060200180602001806020018060200186810386528b818151815260200191508051906020019060200280838360005b8381101561024f578181015183820152602001610237565b5050505090500186810385528a818151815260200191508051906020019060200280838360005b8381101561028e578181015183820152602001610276565b50505050905001868103845289818151815260200191508051906020019060200280838360005b838110156102cd5781810151838201526020016102b5565b50505050905001868103835288818151815260200191508051906020019060200280838360005b8381101561030c5781810151838201526020016102f4565b50505050905001868103825287818151815260200191508051906020019060200280838360005b8381101561034b578181015183820152602001610333565b505050509050019a505050505050505050505060405180910390f35b34801561037357600080fd5b5061037c610b48565b6040805192835260208301919091528051918290030190f35b3480156103a157600080fd5b506103b3600435602435604435610b52565b604080519384526020840192909252151582820152519081900360600190f35b3480156103df57600080fd5b506103f1600435602435604435610bcd565b005b3480156103ff57600080fd5b506103f1600160a060020a0360043516610ca4565b34801561042057600080fd5b50604080516020600480358082013583810280860185019096528085526101ff95369593946024949385019291829185019084908082843750949750610d1f9650505050505050565b34801561047557600080fd5b5061047e610f38565b60408051602080825283518183015283519192839290830191858101910280838360005b838110156104ba5781810151838201526020016104a2565b505050509050019250505060405180910390f35b3480156104da57600080fd5b506103f160043563ffffffff60243516610fbd565b3480156104fb57600080fd5b50610504611029565b60408051600160a060020a039092168252519081900360200190f35b34801561052c57600080fd5b50610538600435611038565b60408051978852600160a060020a03909616602088015260ff9094168686015263ffffffff9092166060860152608085015260a084015260c0830152519081900360e00190f35b34801561058b57600080fd5b506103f1600160a060020a03600435166110ac565b3480156105ac57600080fd5b506105bb600435602435611127565b60408051600160a060020a03909316835260208301919091528051918290030190f35b3480156105ea57600080fd5b506105f3611197565b60408051918252519081900360200190f35b34801561061157600080fd5b506105f360043560243561119d565b34801561062c57600080fd5b506105f360043561131d565b34801561064457600080fd5b506103f16113a4565b34801561065957600080fd5b506103f1600435611447565b34801561067157600080fd5b506105f36114cf565b34801561068657600080fd5b506103f1600435611521565b34801561069e57600080fd5b506106aa600435611578565b604080519115158252519081900360200190f35b3480156106ca57600080fd5b506105046115d7565b3480156106df57600080fd5b506106aa6115e6565b3480156106f457600080fd5b5061047e6115f7565b34801561070957600080fd5b506103f1600160a060020a036004351661164e565b34801561072a57600080fd5b506106aa6004356116a5565b34801561074257600080fd5b506106aa600160a060020a0360043516611701565b34801561076357600080fd5b506103f163ffffffff6004351661175a565b34801561078157600080fd5b506105046117b1565b34801561079657600080fd5b506105f36117c0565b3480156107ab57600080fd5b506103f16004356117c6565b3480156107c357600080fd5b506103f1600160a060020a0360043516611817565b3480156107e457600080fd5b50610504611892565b3480156107f957600080fd5b506106aa63ffffffff600435166118a1565b34801561081757600080fd5b506106aa63ffffffff600435166118fa565b34801561083557600080fd5b506103f1600435600160a060020a0360243516611982565b34801561085957600080fd5b5061047e600160a060020a0360043516611a10565b34801561087a57600080fd5b5061047e611a7c565b34801561088f57600080fd5b506103f163ffffffff60043516611add565b3480156108ad57600080fd5b506103f1600160a060020a0360043516611b63565b3480156108ce57600080fd5b506103f1611bb8565b3480156108e357600080fd5b5061047e600160a060020a0360043516602435604435611cad565b6060806060806060806060806060806000806005805490508d8f01111561093557600554610932908f63ffffffff611d9416565b9c505b60008d1115610b37578c604051908082528060200260200182016040528015610968578160200160208202803883390190505b5096508c604051908082528060200260200182016040528015610995578160200160208202803883390190505b5095508c6040519080825280602002602001820160405280156109c2578160200160208202803883390190505b5094508c6040519080825280602002602001820160405280156109ef578160200160208202803883390190505b5093508c604051908082528060200260200182016040528015610a1c578160200160208202803883390190505b509250600091505b8c821015610b2757600580548f8401908110610a3c57fe5b906000526020600020906005020190508060000160089054906101000a9004600160a060020a03168783815181101515610a7257fe5b600160a060020a03929092166020928302919091019091015280546001820154875160e060020a90920460ff1663ffffffff9182166201000002011690879084908110610abb57fe5b6020908102909101015260028101548551869084908110610ad857fe5b6020908102909101015260038101548451859084908110610af557fe5b6020908102909101015260048101548351849084908110610b1257fe5b60209081029091010152600190910190610a24565b86868686869b509b509b509b509b505b505050505050509295509295909350565b600b54600d549091565b6000806000806000600b54871015610b6a57600b5496505b878710610b805760009450849350839250610bc2565b87861115610b9057879550610ba9565b600b54861015610ba95760009450849350839250610bc2565b610bb38787611ddd565b91509150818160019450945094505b505093509350939050565b600a5460009081108015610c045750600a805433919083908110610bed57fe5b600091825260209091200154600160a060020a0316145b1515610c80576040805160e560020a62461bcd02815260206004820152603060248201527f4d616e6167657261626c653a2063616c6c6572206973206e6f7420746865206560448201527f6c696769626c65204f70657261746f7200000000000000000000000000000000606482015290519081900360840190fd5b600b54831115610c9057600b8390555b50600c9290925550600d8054919091039055565b610cac6115e6565b1515610cf0576040805160e560020a62461bcd0281526020600482018190526024820152600080516020612c3f833981519152604482015290519081900360640190fd5b6004805473ffffffffffffffffffffffffffffffffffffffff1916600160a060020a0392909216919091179055565b6060806060806060600060608060608060606000808d51975087604051908082528060200260200182016040528015610d62578160200160208202803883390190505b50965087604051908082528060200260200182016040528015610d8f578160200160208202803883390190505b50955087604051908082528060200260200182016040528015610dbc578160200160208202803883390190505b50945087604051908082528060200260200182016040528015610de9578160200160208202803883390190505b50935087604051908082528060200260200182016040528015610e16578160200160208202803883390190505b509250600091505b87821015610f2457610e468e83815181101515610e3757fe5b90602001906020020151611f1b565b80548851919250680100000000000000009004600160a060020a031690889084908110610e6f57fe5b600160a060020a03929092166020928302919091019091015280546001820154875160e060020a90920460ff1663ffffffff9182166201000002011690879084908110610eb857fe5b6020908102909101015260028101548551869084908110610ed557fe5b6020908102909101015260038101548451859084908110610ef257fe5b6020908102909101015260048101548351849084908110610f0f57fe5b60209081029091010152600190910190610e1e565b50949c939b50919950975095509350505050565b60606001805480602002602001604051908101604052809291908181526020018280548015610fb257602002820191906000526020600020906000905b82829054906101000a900463ffffffff1663ffffffff1681526020019060040190602082600301049283019260010382029150808411610f755790505b505050505090505b90565b610fc6816118fa565b151561101c576040805160e560020a62461bcd02815260206004820152601f60248201527f756e6465726c79696e6720697320756e737570706f7274656420617373657400604482015290519081900360640190fd5b61102582611447565b5050565b600454600160a060020a031690565b60008060008060008060008061104d89611f1b565b805460018201546002830154600384015460049094015467ffffffffffffffff84169e680100000000000000008504600160a060020a03169e5060e060020a90940460ff169c5063ffffffff9092169a50985091965090945092505050565b6110b46115e6565b15156110f8576040805160e560020a62461bcd0281526020600482018190526024820152600080516020612c3f833981519152604482015290519081900360640190fd5b6003805473ffffffffffffffffffffffffffffffffffffffff1916600160a060020a0392909216919091179055565b60001982016000908152600660205260408120600181015460028201546004830154849392600160a060020a031691670de0b6b3a7640000916111819188916111759163ffffffff611fab16565b9063ffffffff611fab16565b81151561118a57fe5b0492509250509250929050565b60095490565b60006111a7612b8f565b6000806111b386611f1b565b6040805160e081018252825467ffffffffffffffff81168252680100000000000000008104600160a060020a0316602083015260e060020a900460ff1691810191909152600182015463ffffffff16606082015260028201546080820152600382015460a082015260049091015460c0820152925061123183612055565b61123b83866120b0565b6003546060840151604080517fda66325700000000000000000000000000000000000000000000000000000000815263ffffffff909216600483015251600160a060020a039092169163da663257916024808201926020929091908290030181600087803b1580156112ac57600080fd5b505af11580156112c0573d6000803e3d6000fd5b505050506040513d60208110156112d657600080fd5b5051604084015160a08501519193506112ef918461210c565b90508015156113015760009350611314565b611311818663ffffffff611fab16565b93505b50505092915050565b6000808211801561133057506005548211155b1515611386576040805160e560020a62461bcd02815260206004820152601660248201527f6f7074696f6e206964206973206e6f7420657869737400000000000000000000604482015290519081900360640190fd5b50600954600019820160009081526006602052604090205401919050565b6113ac6115e6565b15156113f0576040805160e560020a62461bcd0281526020600482018190526024820152600080516020612c3f833981519152604482015290519081900360640190fd5b60008054604051600160a060020a03909116907f8be0079c531659141344cd1fd0a4f28419497f9722a3daafe3b4186f6b6457e0908390a36000805473ffffffffffffffffffffffffffffffffffffffff19169055565b611450816116a5565b15156114cc576040805160e560020a62461bcd02815260206004820152602160248201527f65787069726174696f6e2076616c7565206973206e6f7420737570706f72746560448201527f6400000000000000000000000000000000000000000000000000000000000000606482015290519081900360840190fd5b50565b6000806000600d541215156114fa57600d54600c546114f39163ffffffff61214116565b915061151d565b600d54600003905080600c5411156115185780600c5403915061151d565b600091505b5090565b6115296115e6565b151561156d576040805160e560020a62461bcd0281526020600482018190526024820152600080516020612c3f833981519152604482015290519081900360640190fd5b6114cc60088261219e565b60006115826115e6565b15156115c6576040805160e560020a62461bcd0281526020600482018190526024820152600080516020612c3f833981519152604482015290519081900360640190fd5b6115d1600883612215565b92915050565b600054600160a060020a031690565b600054600160a060020a0316331490565b60606008805480602002602001604051908101604052809291908181526020018280548015610fb257602002820191906000526020600020905b815481526020019060010190808311611631575050505050905090565b6116566115e6565b151561169a576040805160e560020a62461bcd0281526020600482018190526024820152600080516020612c3f833981519152604482015290519081900360640190fd5b6114cc600a826122c2565b60006115d160088054806020026020016040519081016040528092919081815260200182805480156116f657602002820191906000526020600020905b8154815260200190600101908083116116e2575b505050505083612369565b600061170b6115e6565b151561174f576040805160e560020a62461bcd0281526020600482018190526024820152600080516020612c3f833981519152604482015290519081900360640190fd5b6115d1600a836123a8565b6117626115e6565b15156117a6576040805160e560020a62461bcd0281526020600482018190526024820152600080516020612c3f833981519152604482015290519081900360640190fd5b6114cc60018261247f565b600354600160a060020a031690565b60055490565b6117ce6115e6565b1515611812576040805160e560020a62461bcd0281526020600482018190526024820152600080516020612c3f833981519152604482015290519081900360640190fd5b600955565b61181f6115e6565b1515611863576040805160e560020a62461bcd0281526020600482018190526024820152600080516020612c3f833981519152604482015290519081900360640190fd5b6002805473ffffffffffffffffffffffffffffffffffffffff1916600160a060020a0392909216919091179055565b600254600160a060020a031690565b60006118ab6115e6565b15156118ef576040805160e560020a62461bcd0281526020600482018190526024820152600080516020612c3f833981519152604482015290519081900360640190fd5b6115d1600183612548565b60006115d1600180548060200260200160405190810160405280929190818152602001828054801561197757602002820191906000526020600020906000905b82829054906101000a900463ffffffff1663ffffffff168152602001906004019060208260030104928301926001038202915080841161193a5790505b50505050508361263f565b61198a6115e6565b15156119ce576040805160e560020a62461bcd0281526020600482018190526024820152600080516020612c3f833981519152604482015290519081900360640190fd5b80600a838154811015156119de57fe5b9060005260206000200160006101000a815481600160a060020a030219169083600160a060020a031602179055505050565b600160a060020a038116600090815260076020908152604091829020805483518184028101840190945280845260609392830182828015611a7057602002820191906000526020600020905b815481526020019060010190808311611a5c575b50505050509050919050565b6060600a805480602002602001604051908101604052809291908181526020018280548015610fb257602002820191906000526020600020905b8154600160a060020a03168152600190910190602001808311611ab6575050505050905090565b6114cc6001805480602002602001604051908101604052809291908181526020018280548015611b5857602002820191906000526020600020906000905b82829054906101000a900463ffffffff1663ffffffff1681526020019060040190602082600301049283019260010382029150808411611b1b5790505b50505050508261268a565b611b6b6115e6565b1515611baf576040805160e560020a62461bcd0281526020600482018190526024820152600080516020612c3f833981519152604482015290519081900360640190fd5b6114cc816126ea565b60008060008060008080600a80549050118015611bf85750600a805433919083908110611be157fe5b600091825260209091200154600160a060020a0316145b1515611c74576040805160e560020a62461bcd02815260206004820152603060248201527f4d616e6167657261626c653a2063616c6c6572206973206e6f7420746865206560448201527f6c696769626c65204f70657261746f7200000000000000000000000000000000606482015290519081900360840190fd5b600d5495506005805490509450611c8e85600b5487610b52565b9350935093508115611ca557611ca5848488610bcd565b505050505050565b606080600083604051908082528060200260200182016040528015611cdc578160200160208202803883390190505b50600160a060020a0387166000908152600760205260409020549092508585011115611d2e57600160a060020a038616600090815260076020526040902054611d2b908663ffffffff611d9416565b93505b5060005b83811015611d8b57600160a060020a03861660009081526007602052604090208054868301908110611d6057fe5b90600052602060002001548282815181101515611d7957fe5b60209081029091010152600101611d32565b50949350505050565b6000611dd683836040805190810160405280601e81526020017f536166654d6174683a207375627472616374696f6e206f766572666c6f7700008152506127d8565b9392505050565b600080600060606000806000611df689600b548a612875565b9099509450611e036128f6565b9350600092505b87891015611f0c57611e4360058a815481101515611e2457fe5b600091825260209091206001600590920201015463ffffffff16612a10565b9150611efb60058a815481101515611e5757fe5b60009182526020918290206040805160e081018252600593909302909101805467ffffffffffffffff81168452680100000000000000008104600160a060020a03169484019490945260e060020a90930460ff1690820152600182015463ffffffff16606082015260028201546080820152600382015460a082015260049091015460c08201528551869085908110611eec57fe5b90602001906020020151612a98565b600190990198928301929050611e0a565b50909792965091945050505050565b60008082118015611f2e57506005548211155b1515611f84576040805160e560020a62461bcd02815260206004820152601660248201527f6f7074696f6e206964206973206e6f7420657869737400000000000000000000604482015290519081900360640190fd5b600580546000198401908110611f9657fe5b90600052602060002090600502019050919050565b600080831515611fbe576000915061204e565b50828202828482811515611fce57fe5b041461204a576040805160e560020a62461bcd02815260206004820152602160248201527f536166654d6174683a206d756c7469706c69636174696f6e206f766572666c6f60448201527f7700000000000000000000000000000000000000000000000000000000000000606482015290519081900360840190fd5b8091505b5092915050565b608081015142106114cc576040805160e560020a62461bcd02815260206004820152601160248201527f6f7074696f6e2069732065787069726564000000000000000000000000000000604482015290519081900360640190fd5b60c0820151811115611025576040805160e560020a62461bcd02815260206004820152601d60248201527f6f7074696f6e20616d6f756e7420697320696e73756666696369656e74000000604482015290519081900360640190fd5b600060ff841615828411141561212457506000611dd6565b60ff84161561213557818303612139565b8282035b949350505050565b60008282018381101561204a576040805160e560020a62461bcd02815260206004820152601b60248201527f536166654d6174683a206164646974696f6e206f766572666c6f770000000000604482015290519081900360640190fd5b6121f7828054806020026020016040519081016040528092919081815260200182805480156121ec57602002820191906000526020600020905b8154815260200190600101908083116121d8575b505050505082612369565b15156110255781546001810183556000928352602090922090910155565b8154600090815b818110156122515783858281548110151561223357fe5b9060005260206000200154141561224957612251565b60010161221c565b818110156122b5576000198201811461229b57846001830381548110151561227557fe5b9060005260206000200154858281548110151561228e57fe5b6000918252602090912001555b84546122ab866000198301612bcb565b50600192506122ba565b600092505b505092915050565b6123258280548060200260200160405190810160405280929190818152602001828054801561231a57602002820191906000526020600020905b8154600160a060020a031681526001909101906020018083116122fc575b505050505082612ad9565b1515611025578154600181018355600083815260209020018054600160a060020a03831673ffffffffffffffffffffffffffffffffffffffff199091161790555050565b8151600090815b818110156122b55783858281518110151561238757fe5b9060200190602002015114156123a057600192506122ba565b600101612370565b8154600090815b818110156123f75783600160a060020a031685828154811015156123cf57fe5b600091825260209091200154600160a060020a031614156123ef576123f7565b6001016123af565b818110156122b5576000198201811461229b57846001830381548110151561241b57fe5b6000918252602090912001548554600160a060020a039091169086908390811061244157fe5b9060005260206000200160006101000a815481600160a060020a030219169083600160a060020a0316021790555084546122ab866000198301612bcb565b612504828054806020026020016040519081016040528092919081815260200182805480156124f957602002820191906000526020600020906000905b82829054906101000a900463ffffffff1663ffffffff16815260200190600401906020826003010492830192600103820291508084116124bc5790505b50505050508261263f565b1515611025578154600181018355600092835260209092206008830401805460079093166004026101000a63ffffffff818102199094169290931692909202179055565b8154600090815b818110156125a3578363ffffffff16858281548110151561256c57fe5b6000918252602090912060088204015460079091166004026101000a900463ffffffff16141561259b576125a3565b60010161254f565b818110156122b5576000198201811461262f5784600183038154811015156125c757fe5b90600052602060002090600891828204019190066004029054906101000a900463ffffffff1685828154811015156125fb57fe5b90600052602060002090600891828204019190066004026101000a81548163ffffffff021916908363ffffffff1602179055505b84546122ab866000198301612bf4565b8151600090815b818110156122b5578363ffffffff16858281518110151561266357fe5b9060200190602002015163ffffffff16141561268257600192506122ba565b600101612646565b612694828261263f565b1515611025576040805160e560020a62461bcd02815260206004820152601f60248201527f77686974654c6973743a207573696e6720696e76616c69642075696e74333200604482015290519081900360640190fd5b600160a060020a0381161515612770576040805160e560020a62461bcd02815260206004820152602660248201527f4f776e61626c653a206e6577206f776e657220697320746865207a65726f206160448201527f6464726573730000000000000000000000000000000000000000000000000000606482015290519081900360840190fd5b60008054604051600160a060020a03808516939216917f8be0079c531659141344cd1fd0a4f28419497f9722a3daafe3b4186f6b6457e091a36000805473ffffffffffffffffffffffffffffffffffffffff1916600160a060020a0392909216919091179055565b600080828585111561286b5760405160e560020a62461bcd0281526004018080602001828103825283818151815260200191508051906020019080838360005b83811015612830578181015183820152602001612818565b50505050905090810190601f16801561285d5780820380516001836020036101000a031916815260200191505b509250505060405180910390fd5b5050509103919050565b60008083818187111561288d578682935093506128ec565b8196505b848710156128e55760058054889081106128a757fe5b9060005260206000209060050201905042816002015410806128cb57506004810154155b156128d5576128da565b6128e5565b600190960195612891565b8687935093505b5050935093915050565b60015460408051828152602080840282010190915260609190829060009083801561292b578160200160208202803883390190505b509150600090505b8281101561204e5760035460018054600160a060020a039092169163da66325791908490811061295f57fe5b90600052602060002090600891828204019190066004029054906101000a900463ffffffff166040518263ffffffff1660e060020a028152600401808263ffffffff168152602001915050602060405180830381600087803b1580156129c457600080fd5b505af11580156129d8573d6000803e3d6000fd5b505050506040513d60208110156129ee57600080fd5b505182518390839081106129fe57fe5b60209081029091010152600101612933565b60006115d16001805480602002602001604051908101604052809291908181526020018280548015612a8d57602002820191906000526020600020906000905b82829054906101000a900463ffffffff1663ffffffff1681526020019060040190602082600301049283019260010382029150808411612a505790505b505050505083612b2a565b600080428460800151111580612ab0575060c0840151155b15612abe576000915061204e565b6121398460c0015161117586604001518760a0015187612b71565b8151600090815b818110156122b55783600160a060020a03168582815181101515612b0057fe5b90602001906020020151600160a060020a03161415612b2257600192506122ba565b600101612ae0565b8151600090815b81811015612139578363ffffffff168582815181101515612b4e57fe5b9060200190602002015163ffffffff161415612b6957612139565b600101612b31565b600060ff8416158284111415612b88575081611dd6565b5080611dd6565b6040805160e081018252600080825260208201819052918101829052606081018290526080810182905260a0810182905260c081019190915290565b815481835581811115612bef57600083815260209020612bef918101908301612c24565b505050565b815481835581811115612bef576007016008900481600701600890048360005260206000209182019101612bef91905b610fba91905b8082111561151d5760008155600101612c2a56004f776e61626c653a2063616c6c6572206973206e6f7420746865206f776e6572a165627a7a723058205892b9128ee38f730c75a9344e6e2feb5df13a8bdd65f70ba77e52f98acdc9e20029",
  "source": "pragma solidity ^0.4.26;\r\nimport \"./OptionsBase.sol\";\r\nimport \"./modules/tuple.sol\";\r\nimport \"./modules/Operator.sol\";\r\nimport \"./OptionsBase.sol\";\r\nimport \"./modules/SafeInt256.sol\";\r\ncontract OptionsOccupiedCal is OptionsBase,Operator {\r\n\r\n    //calculate options Collateral occupied phases\r\n    uint256 private firstOption; \r\n    uint256 private optionsOccupied;\r\n    int256 private optionsLatestOccupied;\r\n    using SafeInt256 for int256;\r\n    //each block burn options\r\n    //index,lastOption,lastBurned\r\n    function getOccupiedCalInfo()public view returns(uint256,int256){\r\n        return (firstOption,optionsLatestOccupied);\r\n    }\r\n    function setOccupiedCollateral() public onlyOperatorIndex(0) {\r\n        int256 latestOccupied = optionsLatestOccupied;\r\n        uint256 lastOption = allOptions.length;\r\n        (uint256 totalOccupied,uint256 beginOption,bool success) = calculatePhaseOccupiedCollateral(lastOption,firstOption,lastOption);\r\n        if (success){\r\n            setCollateralPhase(totalOccupied,beginOption,latestOccupied);\r\n        }\r\n    }\r\n    function calculatePhaseOccupiedCollateral(uint256 lastOption,uint256 beginOption,uint256 endOption) public view returns(uint256,uint256,bool){\r\n        if (beginOption < firstOption){\r\n            beginOption = firstOption;\r\n        }\r\n        if (beginOption>=lastOption){\r\n            return (0,0,false);\r\n        }\r\n        if (endOption>lastOption) {\r\n            endOption = lastOption;\r\n        }else if(endOption < firstOption){\r\n            return (0,0,false);\r\n        }\r\n        (uint256 totalOccupied,uint256 newFirstOption) = _calculateOccupiedCollateral(beginOption,endOption);\r\n        return (totalOccupied,newFirstOption,true);\r\n    }\r\n    function _calculateOccupiedCollateral(uint256 begin,uint256 end)internal view returns(uint256,uint256){\r\n        uint256 newFirstOption;\r\n        (begin,newFirstOption) = getFirstOption(begin,firstOption,end);\r\n        uint256[] memory prices = getUnderlyingPrices();\r\n        uint256 totalOccupied = 0;\r\n        for (;begin<end;begin++){\r\n            uint256 index = _getEligibleUnderlyingIndex(allOptions[begin].underlying);\r\n            uint256 value = calOptionsCollateral(allOptions[begin],prices[index]);\r\n            totalOccupied = totalOccupied+value;\r\n        }\r\n        return (totalOccupied,newFirstOption);\r\n    }\r\n    function setCollateralPhase(uint256 totalOccupied,uint256 beginOption,int256 latestOccpied) public onlyOperatorIndex(0){\r\n        if (beginOption > firstOption){\r\n            firstOption = beginOption;\r\n        }\r\n        optionsOccupied = totalOccupied;\r\n        optionsLatestOccupied -= latestOccpied;\r\n    }\r\n    function getTotalOccupiedCollateral() public view returns (uint256) {\r\n        if (optionsLatestOccupied>=0){\r\n            return optionsOccupied.add(uint256(optionsLatestOccupied));\r\n        }else{\r\n            uint256 latestOccupied = uint256(-optionsLatestOccupied);\r\n            if (optionsOccupied>latestOccupied){\r\n                return optionsOccupied - latestOccupied;\r\n            }else{\r\n                return 0;\r\n            }\r\n        }\r\n    }\r\n    function _addOptionsCollateral(OptionsInfo memory info) internal {\r\n        OptionsInfoEx storage infoEx =  optionExtraMap[info.optionID-1];\r\n        uint256 newOccupied = calOptionsCollateral(info,infoEx.underlyingPrice);\r\n        optionsLatestOccupied = optionsLatestOccupied.add(int256(newOccupied));\r\n    }\r\n    function _burnOptionsCollateral(OptionsInfo memory info,uint256 amount,uint256 underlyingPrice) internal {\r\n        uint256 newOccupied = _getOptionsWorth(info.optType,info.strikePrice,underlyingPrice).mul(amount);\r\n        optionsLatestOccupied = optionsLatestOccupied.sub(int256(newOccupied));\r\n    }\r\n\r\n}",
  "sourcePath": "C:\\work\\solidity\\FinnexusOptions_V2\\contracts\\OptionsOccupiedCal.sol",
  "compiler": {
    "name": "solc",
    "version": "0.4.26+commit.4563c3fc.Emscripten.clang"
  },
  "schemaVersion": "3.1.0",
  "updatedAt": "2020-08-06T12:48:04.259Z",
  "devdoc": {
    "methods": {
      "addExpiration(uint256)": {
        "details": "Implementation of add an eligible expiration into the expirationList.\r",
        "params": {
          "expiration": "new eligible expiration.\r"
        }
      },
      "addUnderlyingAsset(uint32)": {
        "details": "Implementation of add an eligible underlying into the underlyingAssets.\r",
        "params": {
          "underlying": "new eligible underlying.\r"
        }
      },
      "getExpirationList()": {
        "details": "Implementation of getting the eligible expirationList.\r"
      },
      "getUnderlyingAssets()": {
        "details": "Implementation of getting the eligible underlyingAssets.\r"
      },
      "isEligibleExpiration(uint256)": {
        "details": "Implementation of testing whether the input expiration is eligible.\r",
        "params": {
          "expiration": "input expiration for testing.\r"
        }
      },
      "isEligibleUnderlyingAsset(uint32)": {
        "details": "Implementation of testing whether the input underlying is eligible.\r",
        "params": {
          "underlying": "input underlying for testing.\r"
        }
      },
      "isOwner()": {
        "details": "Returns true if the caller is the current owner."
      },
      "owner()": {
        "details": "Returns the address of the current owner."
      },
      "removeExpirationList(uint256)": {
        "details": "Implementation of revoke an invalid expiration from the expirationList.\r",
        "params": {
          "removeExpiration": "revoked expiration.\r"
        }
      },
      "removeUnderlyingAssets(uint32)": {
        "details": "Implementation of revoke an invalid underlying from the underlyingAssets.\r",
        "params": {
          "removeUnderlying": "revoked underlying.\r"
        }
      },
      "renounceOwnership()": {
        "details": "Leaves the contract without owner. It will not be possible to call `onlyOwner` functions anymore. Can only be called by the current owner.     * NOTE: Renouncing ownership will leave the contract without an owner, thereby removing any functionality that is only available to the owner."
      },
      "transferOwnership(address)": {
        "details": "Transfers ownership of the contract to a new account (`newOwner`). Can only be called by the current owner."
      }
    }
  },
  "userdoc": {
    "methods": {
      "setManager(address)": {
        "notice": "contribution period to stop or not."
      }
    }
  }
}