{
  "contractName": "oracleBridge",
  "abi": [
    {
      "constant": false,
      "inputs": [],
      "name": "renounceOwnership",
      "outputs": [],
      "payable": false,
      "stateMutability": "nonpayable",
      "type": "function"
    },
    {
      "constant": true,
      "inputs": [],
      "name": "owner",
      "outputs": [
        {
          "name": "",
          "type": "address"
        }
      ],
      "payable": false,
      "stateMutability": "view",
      "type": "function"
    },
    {
      "constant": true,
      "inputs": [],
      "name": "isOwner",
      "outputs": [
        {
          "name": "",
          "type": "bool"
        }
      ],
      "payable": false,
      "stateMutability": "view",
      "type": "function"
    },
    {
      "constant": true,
      "inputs": [],
      "name": "getFnxPriceDbAddress",
      "outputs": [
        {
          "name": "",
          "type": "address"
        }
      ],
      "payable": false,
      "stateMutability": "view",
      "type": "function"
    },
    {
      "constant": false,
      "inputs": [
        {
          "name": "priceAddr",
          "type": "address"
        }
      ],
      "name": "setFnxPriceDbAddress",
      "outputs": [],
      "payable": false,
      "stateMutability": "nonpayable",
      "type": "function"
    },
    {
      "constant": false,
      "inputs": [
        {
          "name": "newOwner",
          "type": "address"
        }
      ],
      "name": "transferOwnership",
      "outputs": [],
      "payable": false,
      "stateMutability": "nonpayable",
      "type": "function"
    },
    {
      "inputs": [],
      "payable": false,
      "stateMutability": "nonpayable",
      "type": "constructor"
    },
    {
      "anonymous": false,
      "inputs": [
        {
          "indexed": true,
          "name": "previousOwner",
          "type": "address"
        },
        {
          "indexed": true,
          "name": "newOwner",
          "type": "address"
        }
      ],
      "name": "OwnershipTransferred",
      "type": "event"
    },
    {
      "constant": true,
      "inputs": [
        {
          "name": "asset",
          "type": "address"
        }
      ],
      "name": "getPrice",
      "outputs": [
        {
          "name": "",
          "type": "uint256"
        }
      ],
      "payable": false,
      "stateMutability": "view",
      "type": "function"
    },
    {
      "constant": true,
      "inputs": [
        {
          "name": "underlying",
          "type": "uint256"
        }
      ],
      "name": "getUnderlyingPrice",
      "outputs": [
        {
          "name": "",
          "type": "uint256"
        }
      ],
      "payable": false,
      "stateMutability": "view",
      "type": "function"
    }
  ],
  "bytecode": "0x608060405234801561001057600080fd5b5060008054600160a060020a0319163317808255604051600160a060020a039190911691907f8be0079c531659141344cd1fd0a4f28419497f9722a3daafe3b4186f6b6457e0908290a360408051808201909152600381527f57414e00000000000000000000000000000000000000000000000000000000006020808301918252600080526002905290516100c6917fac33ff75c19e70fe83507db0d683fd3465c996598dc972688b7ace676c89077b9161022b565b5060408051808201909152600381527f464e580000000000000000000000000000000000000000000000000000000000602080830191825273df228001e053641fad2bd84986413af3bed03e0b600052600290529051610147917f7643740f0f7064d71d9bd52550b620ac699b9764c980a1a3899dfc24732db07e9161022b565b506040805180820190915260038082527f4254430000000000000000000000000000000000000000000000000000000000602080840191825260016000529190915290516101b6917fa15bc60c955c405d20d9149c709e2460f1c2d9a497496a7f46004d1772c3054c9161022b565b506040805180820190915260038082527f455448000000000000000000000000000000000000000000000000000000000060208084019182526002600052919091529051610225917fc3a24b0501bd2c13a7e57f2db4369ec4c223447539fc0724a9d55ac4a06ebd4d9161022b565b506102c6565b828054600181600116156101000203166002900490600052602060002090601f016020900481019282601f1061026c57805160ff1916838001178555610299565b82800160010185558215610299579182015b8281111561029957825182559160200191906001019061027e565b506102a59291506102a9565b5090565b6102c391905b808211156102a557600081556001016102af565b90565b610960806102d56000396000f30060806040526004361061008d5763ffffffff7c010000000000000000000000000000000000000000000000000000000060003504166341976e098114610092578063715018a6146100c55780638da5cb5b146100dc5780638f32d59b1461010d5780639436bfff14610136578063c891ea151461014b578063da6632571461016c578063f2fde38b14610184575b600080fd5b34801561009e57600080fd5b506100b3600160a060020a03600435166101a5565b60408051918252519081900360200190f35b3480156100d157600080fd5b506100da610411565b005b3480156100e857600080fd5b506100f16104c6565b60408051600160a060020a039092168252519081900360200190f35b34801561011957600080fd5b506101226104d5565b604080519115158252519081900360200190f35b34801561014257600080fd5b506100f16104e6565b34801561015757600080fd5b506100da600160a060020a03600435166104f5565b34801561017857600080fd5b506100b3600435610582565b34801561019057600080fd5b506100da600160a060020a03600435166107dc565b600160a060020a0381166000908152600260208181526040808420805482516001821615610100026000190190911694909404601f810184900484028501840190925281845260609385939092908301828280156102445780601f1061021957610100808354040283529160200191610244565b820191906000526020600020905b81548152906001019060200180831161022757829003601f168201915b50505050509150600082511115156102a6576040805160e560020a62461bcd02815260206004820152601760248201527f4173736574206973206e6f7420737570706f7274656421000000000000000000604482015290519081900360640190fd5b6001546040517f524f3889000000000000000000000000000000000000000000000000000000008152602060048201818152855160248401528551600160a060020a039094169363524f388993879383926044909201919085019080838360005b8381101561031f578181015183820152602001610307565b50505050905090810190601f16801561034c5780820380516001836020036101000a031916815260200191505b5092505050602060405180830381600087803b15801561036b57600080fd5b505af115801561037f573d6000803e3d6000fd5b505050506040513d602081101561039557600080fd5b505190506064811180156103b0575067100000000000000081105b1515610406576040805160e560020a62461bcd02815260206004820152601a60248201527f417373657420707269636520697320676f74206661696c656421000000000000604482015290519081900360640190fd5b600a90049392505050565b6104196104d5565b151561046f576040805160e560020a62461bcd02815260206004820181905260248201527f4f776e61626c653a2063616c6c6572206973206e6f7420746865206f776e6572604482015290519081900360640190fd5b60008054604051600160a060020a03909116907f8be0079c531659141344cd1fd0a4f28419497f9722a3daafe3b4186f6b6457e0908390a36000805473ffffffffffffffffffffffffffffffffffffffff19169055565b600054600160a060020a031690565b600054600160a060020a0316331490565b600154600160a060020a031690565b6104fd6104d5565b1515610553576040805160e560020a62461bcd02815260206004820181905260248201527f4f776e61626c653a2063616c6c6572206973206e6f7420746865206f776e6572604482015290519081900360640190fd5b6001805473ffffffffffffffffffffffffffffffffffffffff1916600160a060020a0392909216919091179055565b600081815260036020908152604080832080548251601f60026000196101006001861615020190931692909204918201859004850281018501909352808352606093859392919083018282801561061a5780601f106105ef5761010080835404028352916020019161061a565b820191906000526020600020905b8154815290600101906020018083116105fd57829003601f168201915b505050505091506000825111151561067c576040805160e560020a62461bcd02815260206004820152601760248201527f4173736574206973206e6f7420737570706f7274656421000000000000000000604482015290519081900360640190fd5b6001546040517f524f3889000000000000000000000000000000000000000000000000000000008152602060048201818152855160248401528551600160a060020a039094169363524f388993879383926044909201919085019080838360005b838110156106f55781810151838201526020016106dd565b50505050905090810190601f1680156107225780820380516001836020036101000a031916815260200191505b5092505050602060405180830381600087803b15801561074157600080fd5b505af1158015610755573d6000803e3d6000fd5b505050506040513d602081101561076b57600080fd5b50519050606481118015610786575067100000000000000081105b1515610406576040805160e560020a62461bcd02815260206004820152601f60248201527f756e6465726c79696e6720707269636520697320676f74206661696c65642100604482015290519081900360640190fd5b6107e46104d5565b151561083a576040805160e560020a62461bcd02815260206004820181905260248201527f4f776e61626c653a2063616c6c6572206973206e6f7420746865206f776e6572604482015290519081900360640190fd5b61084381610846565b50565b600160a060020a03811615156108cc576040805160e560020a62461bcd02815260206004820152602660248201527f4f776e61626c653a206e6577206f776e657220697320746865207a65726f206160448201527f6464726573730000000000000000000000000000000000000000000000000000606482015290519081900360840190fd5b60008054604051600160a060020a03808516939216917f8be0079c531659141344cd1fd0a4f28419497f9722a3daafe3b4186f6b6457e091a36000805473ffffffffffffffffffffffffffffffffffffffff1916600160a060020a03929092169190911790555600a165627a7a72305820f3d536752a5bd210e619f3b4145a6cf8e08798e51fc85d2964e5e161d14a90170029",
  "source": "pragma solidity ^0.4.26;\r\nimport \"./interfaces/IFnxPriceDb.sol\";\r\ncontract oracleBridge is ImportFnxPriceDb {\r\n    mapping (address=>string) private assetsMap;\r\n    mapping (uint256=>string) private underlyingsMap;\r\n    uint256 constant private maxPrice = 1<<60;\r\n    uint256 constant private minPrice = 100;\r\n    constructor () public{\r\n        assetsMap[address(0)] = \"WAN\";\r\n        assetsMap[0xdF228001e053641FAd2BD84986413Af3BeD03E0B] = \"FNX\";\r\n        underlyingsMap[1] = \"BTC\";\r\n        underlyingsMap[2] = \"ETH\";\r\n    }\r\n    function getPrice(address asset) public view returns (uint256) {\r\n        string memory symbol = assetsMap[asset];\r\n        require(bytes(symbol).length > 0,\"Asset is not supported!\");\r\n        uint256 price = _FnxPriceDb.getPrice(symbol);\r\n        require(price > minPrice && price < maxPrice,\"Asset price is got failed!\");\r\n        return price / 10;\r\n\r\n    }\r\n    function getUnderlyingPrice(uint256 underlying) public view returns (uint256) {\r\n        string memory symbol = underlyingsMap[underlying];\r\n        require(bytes(symbol).length > 0,\"Asset is not supported!\");\r\n        uint256 price = _FnxPriceDb.getPrice(symbol);\r\n        require(price > minPrice && price < maxPrice,\"underlying price is got failed!\");\r\n        return price / 10;\r\n    }\r\n}\r\n",
  "sourcePath": "C:\\work\\solidity\\FinnexusOptions_V2\\contracts\\oracleBridge.sol",
  "compiler": {
    "name": "solc",
    "version": "0.4.26+commit.4563c3fc.Emscripten.clang"
  },
  "schemaVersion": "3.1.0",
  "updatedAt": "2020-08-14T00:48:40.287Z",
  "devdoc": {
    "methods": {
      "isOwner()": {
        "details": "Returns true if the caller is the current owner."
      },
      "owner()": {
        "details": "Returns the address of the current owner."
      },
      "renounceOwnership()": {
        "details": "Leaves the contract without owner. It will not be possible to call `onlyOwner` functions anymore. Can only be called by the current owner.     * NOTE: Renouncing ownership will leave the contract without an owner, thereby removing any functionality that is only available to the owner."
      },
      "transferOwnership(address)": {
        "details": "Transfers ownership of the contract to a new account (`newOwner`). Can only be called by the current owner."
      }
    }
  },
  "userdoc": {
    "methods": {}
  }
}