{
  "contractName": "PermissionData",
  "abi": [
    {
      "anonymous": false,
      "inputs": [
        {
          "indexed": true,
          "internalType": "address",
          "name": "previousOwner",
          "type": "address"
        },
        {
          "indexed": true,
          "internalType": "address",
          "name": "newOwner",
          "type": "address"
        }
      ],
      "name": "OwnershipTransferred",
      "type": "event"
    },
    {
      "constant": false,
      "inputs": [
        {
          "internalType": "address",
          "name": "spender",
          "type": "address"
        },
        {
          "internalType": "uint256",
          "name": "amount",
          "type": "uint256"
        }
      ],
      "name": "approve",
      "outputs": [],
      "payable": false,
      "stateMutability": "nonpayable",
      "type": "function"
    },
    {
      "constant": true,
      "inputs": [
        {
          "internalType": "address",
          "name": "spender",
          "type": "address"
        },
        {
          "internalType": "uint256",
          "name": "amount",
          "type": "uint256"
        }
      ],
      "name": "checkAllowance",
      "outputs": [
        {
          "internalType": "bool",
          "name": "",
          "type": "bool"
        }
      ],
      "payable": false,
      "stateMutability": "view",
      "type": "function"
    },
    {
      "constant": true,
      "inputs": [],
      "name": "getInputAmountRange",
      "outputs": [
        {
          "internalType": "uint256",
          "name": "",
          "type": "uint256"
        },
        {
          "internalType": "uint256",
          "name": "",
          "type": "uint256"
        }
      ],
      "payable": false,
      "stateMutability": "view",
      "type": "function"
    },
    {
      "constant": true,
      "inputs": [
        {
          "internalType": "uint256",
          "name": "Amount",
          "type": "uint256"
        }
      ],
      "name": "isInputAmountInRange",
      "outputs": [
        {
          "internalType": "bool",
          "name": "",
          "type": "bool"
        }
      ],
      "payable": false,
      "stateMutability": "view",
      "type": "function"
    },
    {
      "constant": true,
      "inputs": [],
      "name": "isOwner",
      "outputs": [
        {
          "internalType": "bool",
          "name": "",
          "type": "bool"
        }
      ],
      "payable": false,
      "stateMutability": "view",
      "type": "function"
    },
    {
      "constant": true,
      "inputs": [],
      "name": "owner",
      "outputs": [
        {
          "internalType": "address",
          "name": "",
          "type": "address"
        }
      ],
      "payable": false,
      "stateMutability": "view",
      "type": "function"
    },
    {
      "constant": false,
      "inputs": [],
      "name": "renounceOwnership",
      "outputs": [],
      "payable": false,
      "stateMutability": "nonpayable",
      "type": "function"
    },
    {
      "constant": false,
      "inputs": [
        {
          "internalType": "uint256",
          "name": "_minAmount",
          "type": "uint256"
        },
        {
          "internalType": "uint256",
          "name": "_maxAmount",
          "type": "uint256"
        }
      ],
      "name": "setInputAmountRange",
      "outputs": [],
      "payable": false,
      "stateMutability": "nonpayable",
      "type": "function"
    },
    {
      "constant": false,
      "inputs": [
        {
          "internalType": "bool",
          "name": "_bValid",
          "type": "bool"
        }
      ],
      "name": "setValid",
      "outputs": [],
      "payable": false,
      "stateMutability": "nonpayable",
      "type": "function"
    },
    {
      "constant": false,
      "inputs": [
        {
          "internalType": "address",
          "name": "newOwner",
          "type": "address"
        }
      ],
      "name": "transferOwnership",
      "outputs": [],
      "payable": false,
      "stateMutability": "nonpayable",
      "type": "function"
    }
  ],
  "bytecode": "0x608060408190526c0c9f2c9cd04674edea40000000600190815560646002556004805460ff191690911790556105dc6005556101f460065560008054600160a060020a0319163317808255600160a060020a0316917f8be0079c531659141344cd1fd0a4f28419497f9722a3daafe3b4186f6b6457e0908290a36105bc806100886000396000f3fe608060405234801561001057600080fd5b50600436106100bb576000357c0100000000000000000000000000000000000000000000000000000000900480638da5cb5b116100835780638da5cb5b146101725780638f32d59b146101965780639ab91a351461019e578063bc9abed2146101c1578063f2fde38b146101e2576100bb565b8063095ea7b3146100c05780633daba0d7146100ee5780636c64edee1461012e578063715018a61461014d578063813b5d4b14610155575b600080fd5b6100ec600480360360408110156100d657600080fd5b50600160a060020a038135169060200135610208565b005b61011a6004803603604081101561010457600080fd5b50600160a060020a03813516906020013561026e565b604080519115158252519081900360200190f35b6100ec6004803603602081101561014457600080fd5b503515156102a2565b6100ec6102ff565b61011a6004803603602081101561016b57600080fd5b50356103a0565b61017a6103bc565b60408051600160a060020a039092168252519081900360200190f35b61011a6103cb565b6100ec600480360360408110156101b457600080fd5b50803590602001356103dc565b6101c9610431565b6040805192835260208301919091528051918290030190f35b6100ec600480360360208110156101f857600080fd5b5035600160a060020a031661043b565b6102106103cb565b610252576040805160e560020a62461bcd0281526020600482018190526024820152600080516020610568833981519152604482015290519081900360640190fd5b600160a060020a03909116600090815260036020526040902055565b60045460009060ff16158061029b5750600160a060020a0383166000908152600360205260409020548211155b9392505050565b6102aa6103cb565b6102ec576040805160e560020a62461bcd0281526020600482018190526024820152600080516020610568833981519152604482015290519081900360640190fd5b6004805460ff1916911515919091179055565b6103076103cb565b610349576040805160e560020a62461bcd0281526020600482018190526024820152600080516020610568833981519152604482015290519081900360640190fd5b60008054604051600160a060020a03909116907f8be0079c531659141344cd1fd0a4f28419497f9722a3daafe3b4186f6b6457e0908390a36000805473ffffffffffffffffffffffffffffffffffffffff19169055565b600081600154101580156103b657508160025411155b92915050565b600054600160a060020a031690565b600054600160a060020a0316331490565b6103e46103cb565b610426576040805160e560020a62461bcd0281526020600482018190526024820152600080516020610568833981519152604482015290519081900360640190fd5b600291909155600155565b6002546001549091565b6104436103cb565b610485576040805160e560020a62461bcd0281526020600482018190526024820152600080516020610568833981519152604482015290519081900360640190fd5b61048e81610491565b50565b600160a060020a0381166104d95760405160e560020a62461bcd0281526004018080602001828103825260268152602001806105426026913960400191505060405180910390fd5b60008054604051600160a060020a03808516939216917f8be0079c531659141344cd1fd0a4f28419497f9722a3daafe3b4186f6b6457e091a36000805473ffffffffffffffffffffffffffffffffffffffff1916600160a060020a039290921691909117905556fe4f776e61626c653a206e6577206f776e657220697320746865207a65726f20616464726573734f776e61626c653a2063616c6c6572206973206e6f7420746865206f776e6572a265627a7a72315820623a7a0cccdecf242416280ba01449714883bb511732a7a0b7c60b0d74a444ba64736f6c63430005100032",
  "source": "pragma solidity =0.5.16;\r\nimport \"../modules/ImputRange.sol\";\r\nimport \"../modules/Allowances.sol\";\r\n/**\r\n * @title collateral calculate module\r\n * @dev A smart-contract which has operations of collateral and methods of calculate collateral occupation.\r\n *\r\n */\r\ncontract PermissionData is ImputRange,Allowances {\r\n    /**\r\n    * @dev input price valid range rate, thousandths.\r\n    * the input price must greater than current price * minPriceRate /1000\r\n    *       and less  than current price * maxPriceRate /1000 \r\n    * maxPriceRate is the maximum limit of the price valid range rate\r\n    * maxPriceRate is the minimum limit of the price valid range rage\r\n    */   \r\n    uint256 internal maxPriceRate = 1500;\r\n    uint256 internal minPriceRate = 500;\r\n}\r\n",
  "sourcePath": "C:\\work\\solidity\\FinnexusOptions_V2\\contracts\\ContractPermission\\PermissionData.sol",
  "compiler": {
    "name": "solc",
    "version": "0.5.16+commit.9c3226ce.Emscripten.clang"
  },
  "schemaVersion": "3.1.0",
  "updatedAt": "2020-09-18T07:12:27.705Z",
  "devdoc": {
    "details": "A smart-contract which has operations of collateral and methods of calculate collateral occupation.  ",
    "methods": {
      "getInputAmountRange()": {
        "details": "get the valid range of input amount"
      },
      "isInputAmountInRange(uint256)": {
        "details": "Determine whether the input amount is within the valid range",
        "params": {
          "Amount": "Test value which is user input"
        }
      },
      "isOwner()": {
        "details": "Returns true if the caller is the current owner."
      },
      "owner()": {
        "details": "Returns the address of the current owner."
      },
      "renounceOwnership()": {
        "details": "Leaves the contract without owner. It will not be possible to call `onlyOwner` functions anymore. Can only be called by the current owner.      * NOTE: Renouncing ownership will leave the contract without an owner, thereby removing any functionality that is only available to the owner."
      },
      "setInputAmountRange(uint256,uint256)": {
        "details": "set the valid range of input amount",
        "params": {
          "_maxAmount": "the maximum input amount limit",
          "_minAmount": "the minimum input amount limit"
        }
      },
      "transferOwnership(address)": {
        "details": "Transfers ownership of the contract to a new account (`newOwner`). Can only be called by the current owner."
      }
    },
    "title": "collateral calculate module"
  },
  "userdoc": {
    "methods": {
      "approve(address,uint256)": {
        "notice": "     * Requirements:      * - `spender` cannot be the zero address."
      }
    }
  }
}