{
  "contractName": "SharedCoin",
  "abi": [
    {
      "anonymous": false,
      "inputs": [
        {
          "indexed": true,
          "internalType": "address",
          "name": "owner",
          "type": "address"
        },
        {
          "indexed": false,
          "internalType": "uint256",
          "name": "amount",
          "type": "uint256"
        },
        {
          "indexed": false,
          "internalType": "uint256",
          "name": "worth",
          "type": "uint256"
        }
      ],
      "name": "AddLocked",
      "type": "event"
    },
    {
      "anonymous": false,
      "inputs": [
        {
          "indexed": true,
          "internalType": "address",
          "name": "owner",
          "type": "address"
        },
        {
          "indexed": true,
          "internalType": "address",
          "name": "spender",
          "type": "address"
        },
        {
          "indexed": false,
          "internalType": "uint256",
          "name": "value",
          "type": "uint256"
        }
      ],
      "name": "Approval",
      "type": "event"
    },
    {
      "anonymous": false,
      "inputs": [
        {
          "indexed": true,
          "internalType": "address",
          "name": "owner",
          "type": "address"
        },
        {
          "indexed": false,
          "internalType": "uint256",
          "name": "amount",
          "type": "uint256"
        },
        {
          "indexed": false,
          "internalType": "uint256",
          "name": "worth",
          "type": "uint256"
        }
      ],
      "name": "BurnLocked",
      "type": "event"
    },
    {
      "anonymous": false,
      "inputs": [
        {
          "indexed": true,
          "internalType": "address",
          "name": "previousOwner",
          "type": "address"
        },
        {
          "indexed": true,
          "internalType": "address",
          "name": "newOwner",
          "type": "address"
        }
      ],
      "name": "OwnershipTransferred",
      "type": "event"
    },
    {
      "anonymous": false,
      "inputs": [
        {
          "indexed": true,
          "internalType": "address",
          "name": "from",
          "type": "address"
        },
        {
          "indexed": true,
          "internalType": "address",
          "name": "to",
          "type": "address"
        },
        {
          "indexed": false,
          "internalType": "uint256",
          "name": "value",
          "type": "uint256"
        }
      ],
      "name": "Transfer",
      "type": "event"
    },
    {
      "constant": true,
      "inputs": [],
      "name": "decimals",
      "outputs": [
        {
          "internalType": "uint8",
          "name": "",
          "type": "uint8"
        }
      ],
      "payable": false,
      "stateMutability": "view",
      "type": "function"
    },
    {
      "constant": true,
      "inputs": [],
      "name": "getFNXMinePoolAddress",
      "outputs": [
        {
          "internalType": "address",
          "name": "",
          "type": "address"
        }
      ],
      "payable": false,
      "stateMutability": "view",
      "type": "function"
    },
    {
      "constant": true,
      "inputs": [
        {
          "internalType": "uint256",
          "name": "item",
          "type": "uint256"
        }
      ],
      "name": "getItemTimeLimitation",
      "outputs": [
        {
          "internalType": "uint256",
          "name": "",
          "type": "uint256"
        }
      ],
      "payable": false,
      "stateMutability": "view",
      "type": "function"
    },
    {
      "constant": true,
      "inputs": [],
      "name": "getManager",
      "outputs": [
        {
          "internalType": "address",
          "name": "",
          "type": "address"
        }
      ],
      "payable": false,
      "stateMutability": "view",
      "type": "function"
    },
    {
      "constant": true,
      "inputs": [],
      "name": "getTimeLimitation",
      "outputs": [
        {
          "internalType": "uint256",
          "name": "",
          "type": "uint256"
        }
      ],
      "payable": false,
      "stateMutability": "view",
      "type": "function"
    },
    {
      "constant": true,
      "inputs": [],
      "name": "isOwner",
      "outputs": [
        {
          "internalType": "bool",
          "name": "",
          "type": "bool"
        }
      ],
      "payable": false,
      "stateMutability": "view",
      "type": "function"
    },
    {
      "constant": true,
      "inputs": [],
      "name": "name",
      "outputs": [
        {
          "internalType": "string",
          "name": "",
          "type": "string"
        }
      ],
      "payable": false,
      "stateMutability": "view",
      "type": "function"
    },
    {
      "constant": true,
      "inputs": [],
      "name": "owner",
      "outputs": [
        {
          "internalType": "address",
          "name": "",
          "type": "address"
        }
      ],
      "payable": false,
      "stateMutability": "view",
      "type": "function"
    },
    {
      "constant": false,
      "inputs": [],
      "name": "renounceOwnership",
      "outputs": [],
      "payable": false,
      "stateMutability": "nonpayable",
      "type": "function"
    },
    {
      "constant": false,
      "inputs": [
        {
          "internalType": "address",
          "name": "fnxMinePool",
          "type": "address"
        }
      ],
      "name": "setFNXMinePoolAddress",
      "outputs": [],
      "payable": false,
      "stateMutability": "nonpayable",
      "type": "function"
    },
    {
      "constant": false,
      "inputs": [
        {
          "internalType": "address",
          "name": "managerAddress",
          "type": "address"
        }
      ],
      "name": "setManager",
      "outputs": [],
      "payable": false,
      "stateMutability": "nonpayable",
      "type": "function"
    },
    {
      "constant": false,
      "inputs": [
        {
          "internalType": "uint256",
          "name": "_limitation",
          "type": "uint256"
        }
      ],
      "name": "setTimeLimitation",
      "outputs": [],
      "payable": false,
      "stateMutability": "nonpayable",
      "type": "function"
    },
    {
      "constant": true,
      "inputs": [],
      "name": "symbol",
      "outputs": [
        {
          "internalType": "string",
          "name": "",
          "type": "string"
        }
      ],
      "payable": false,
      "stateMutability": "view",
      "type": "function"
    },
    {
      "constant": false,
      "inputs": [
        {
          "internalType": "address",
          "name": "newOwner",
          "type": "address"
        }
      ],
      "name": "transferOwnership",
      "outputs": [],
      "payable": false,
      "stateMutability": "nonpayable",
      "type": "function"
    },
    {
      "constant": false,
      "inputs": [],
      "name": "initialize",
      "outputs": [],
      "payable": false,
      "stateMutability": "nonpayable",
      "type": "function"
    },
    {
      "constant": true,
      "inputs": [],
      "name": "totalSupply",
      "outputs": [
        {
          "internalType": "uint256",
          "name": "",
          "type": "uint256"
        }
      ],
      "payable": false,
      "stateMutability": "view",
      "type": "function"
    },
    {
      "constant": true,
      "inputs": [
        {
          "internalType": "address",
          "name": "account",
          "type": "address"
        }
      ],
      "name": "balanceOf",
      "outputs": [
        {
          "internalType": "uint256",
          "name": "",
          "type": "uint256"
        }
      ],
      "payable": false,
      "stateMutability": "view",
      "type": "function"
    },
    {
      "constant": false,
      "inputs": [
        {
          "internalType": "address",
          "name": "recipient",
          "type": "address"
        },
        {
          "internalType": "uint256",
          "name": "amount",
          "type": "uint256"
        }
      ],
      "name": "transfer",
      "outputs": [
        {
          "internalType": "bool",
          "name": "",
          "type": "bool"
        }
      ],
      "payable": false,
      "stateMutability": "nonpayable",
      "type": "function"
    },
    {
      "constant": true,
      "inputs": [
        {
          "internalType": "address",
          "name": "owner",
          "type": "address"
        },
        {
          "internalType": "address",
          "name": "spender",
          "type": "address"
        }
      ],
      "name": "allowance",
      "outputs": [
        {
          "internalType": "uint256",
          "name": "",
          "type": "uint256"
        }
      ],
      "payable": false,
      "stateMutability": "view",
      "type": "function"
    },
    {
      "constant": false,
      "inputs": [
        {
          "internalType": "address",
          "name": "spender",
          "type": "address"
        },
        {
          "internalType": "uint256",
          "name": "amount",
          "type": "uint256"
        }
      ],
      "name": "approve",
      "outputs": [
        {
          "internalType": "bool",
          "name": "",
          "type": "bool"
        }
      ],
      "payable": false,
      "stateMutability": "nonpayable",
      "type": "function"
    },
    {
      "constant": false,
      "inputs": [
        {
          "internalType": "address",
          "name": "sender",
          "type": "address"
        },
        {
          "internalType": "address",
          "name": "recipient",
          "type": "address"
        },
        {
          "internalType": "uint256",
          "name": "amount",
          "type": "uint256"
        }
      ],
      "name": "transferFrom",
      "outputs": [
        {
          "internalType": "bool",
          "name": "",
          "type": "bool"
        }
      ],
      "payable": false,
      "stateMutability": "nonpayable",
      "type": "function"
    },
    {
      "constant": false,
      "inputs": [
        {
          "internalType": "address",
          "name": "spender",
          "type": "address"
        },
        {
          "internalType": "uint256",
          "name": "addedValue",
          "type": "uint256"
        }
      ],
      "name": "increaseAllowance",
      "outputs": [
        {
          "internalType": "bool",
          "name": "",
          "type": "bool"
        }
      ],
      "payable": false,
      "stateMutability": "nonpayable",
      "type": "function"
    },
    {
      "constant": false,
      "inputs": [
        {
          "internalType": "address",
          "name": "spender",
          "type": "address"
        },
        {
          "internalType": "uint256",
          "name": "subtractedValue",
          "type": "uint256"
        }
      ],
      "name": "decreaseAllowance",
      "outputs": [
        {
          "internalType": "bool",
          "name": "",
          "type": "bool"
        }
      ],
      "payable": false,
      "stateMutability": "nonpayable",
      "type": "function"
    }
  ],
  "bytecode": "0x60806040819052610e1060095560008054600160a060020a0319163317808255600160a060020a0316917f8be0079c531659141344cd1fd0a4f28419497f9722a3daafe3b4186f6b6457e0908290a36110038061005d6000396000f3fe608060405234801561001057600080fd5b506004361061016a576000357c010000000000000000000000000000000000000000000000000000000090048063715018a6116100e0578063a457c2d711610099578063a457c2d7146103a2578063a9059cbb146103ce578063d0ebdbe7146103fa578063d500958414610420578063dd62ed3e14610428578063f2fde38b146104565761016a565b8063715018a61461035d5780638129fc1c146103655780638da5cb5b1461036d5780638f32d59b1461037557806395d89b411461037d5780639783cbd9146103855761016a565b8063313ce56711610132578063313ce5671461029957806339509351146102b75780634688d5d6146102e357806359653ec9146102eb5780636f2b70cd1461030f57806370a08231146103375761016a565b806306fdde031461016f578063095ea7b3146101ec57806318160ddd1461022c57806323b872dd146102465780632a75ee421461027c575b600080fd5b61017761047c565b6040805160208082528351818301528351919283929083019185019080838360005b838110156101b1578181015183820152602001610199565b50505050905090810190601f1680156101de5780820380516001836020036101000a031916815260200191505b509250505060405180910390f35b6102186004803603604081101561020257600080fd5b50600160a060020a038135169060200135610509565b604080519115158252519081900360200190f35b610234610520565b60408051918252519081900360200190f35b6102186004803603606081101561025c57600080fd5b50600160a060020a03813581169160208101359091169060400135610527565b6102346004803603602081101561029257600080fd5b503561057e565b6102a1610595565b6040805160ff9092168252519081900360200190f35b610218600480360360408110156102cd57600080fd5b50600160a060020a03813516906020013561059a565b6102346105d6565b6102f36105dc565b60408051600160a060020a039092168252519081900360200190f35b6103356004803603602081101561032557600080fd5b5035600160a060020a03166105eb565b005b6102346004803603602081101561034d57600080fd5b5035600160a060020a0316610664565b61033561067f565b610335610720565b6102f36107fb565b61021861080a565b61017761081b565b6103356004803603602081101561039b57600080fd5b5035610873565b610218600480360360408110156103b857600080fd5b50600160a060020a0381351690602001356108c2565b610218600480360360408110156103e457600080fd5b50600160a060020a0381351690602001356108fe565b6103356004803603602081101561041057600080fd5b5035600160a060020a031661090b565b6102f3610984565b6102346004803603604081101561043e57600080fd5b50600160a060020a0381358116916020013516610993565b6103356004803603602081101561046c57600080fd5b5035600160a060020a03166109be565b60018054604080516020600284861615610100026000190190941693909304601f810184900484028201840190925281815292918301828280156105015780601f106104d657610100808354040283529160200191610501565b820191906000526020600020905b8154815290600101906020018083116104e457829003601f168201915b505050505081565b6000610516338484610a14565b5060015b92915050565b6005545b90565b6000610534848484610b06565b600160a060020a03841660009081526004602090815260408083203380855292529091205461057491869161056f908663ffffffff610bfa16565b610a14565b5060019392505050565b600954600091825260086020526040909120540190565b601281565b336000818152600460209081526040808320600160a060020a0387168452909152812054909161051691859061056f908663ffffffff610c5516565b60095490565b600654600160a060020a031690565b6105f361080a565b610635576040805160e560020a62461bcd0281526020600482018190526024820152600080516020610f66833981519152604482015290519081900360640190fd5b6006805473ffffffffffffffffffffffffffffffffffffffff1916600160a060020a0392909216919091179055565b600160a060020a031660009081526003602052604090205490565b61068761080a565b6106c9576040805160e560020a62461bcd0281526020600482018190526024820152600080516020610f66833981519152604482015290519081900360640190fd5b60008054604051600160a060020a03909116907f8be0079c531659141344cd1fd0a4f28419497f9722a3daafe3b4186f6b6457e0908390a36000805473ffffffffffffffffffffffffffffffffffffffff19169055565b61072861080a565b61076a576040805160e560020a62461bcd0281526020600482018190526024820152600080516020610f66833981519152604482015290519081900360640190fd5b6040805180820190915260138082527f66696e6e6578757320706f6f6c20746f6b656e0000000000000000000000000060209092019182526107ae91600191610e62565b506040805180820190915260038082527f465054000000000000000000000000000000000000000000000000000000000060209092019182526107f391600291610e62565b506000600555565b600054600160a060020a031690565b600054600160a060020a0316331490565b6002805460408051602060018416156101000260001901909316849004601f810184900484028201840190925281815292918301828280156105015780601f106104d657610100808354040283529160200191610501565b61087b61080a565b6108bd576040805160e560020a62461bcd0281526020600482018190526024820152600080516020610f66833981519152604482015290519081900360640190fd5b600955565b336000818152600460209081526040808320600160a060020a0387168452909152812054909161051691859061056f908663ffffffff610bfa16565b6000610516338484610b06565b61091361080a565b610955576040805160e560020a62461bcd0281526020600482018190526024820152600080516020610f66833981519152604482015290519081900360640190fd5b6007805473ffffffffffffffffffffffffffffffffffffffff1916600160a060020a0392909216919091179055565b600754600160a060020a031690565b600160a060020a03918216600090815260046020908152604080832093909416825291909152205490565b6109c661080a565b610a08576040805160e560020a62461bcd0281526020600482018190526024820152600080516020610f66833981519152604482015290519081900360640190fd5b610a1181610cb0565b50565b600160a060020a038316610a5c5760405160e560020a62461bcd028152600401808060200182810382526024815260200180610fab6024913960400191505060405180910390fd5b600160a060020a038216610aa45760405160e560020a62461bcd028152600401808060200182810382526022815260200180610f446022913960400191505060405180910390fd5b600160a060020a03808416600081815260046020908152604080832094871680845294825291829020859055815185815291517f8c5be1e5ebec7d5bd14f71427d1e84f3dd0314c0f7b2291e5b200ac8c7c3b9259281900390910190a3505050565b600160a060020a038316610b4e5760405160e560020a62461bcd028152600401808060200182810382526025815260200180610f866025913960400191505060405180910390fd5b600160a060020a038216610b965760405160e560020a62461bcd028152600401808060200182810382526023815260200180610efb6023913960400191505060405180910390fd5b610ba08382610d60565b610baa8282610df1565b81600160a060020a031683600160a060020a03167fddf252ad1be2c89b69c2b068fc378daa952ba7f163c4a11628f55a4df523b3ef836040518082815260200191505060405180910390a3505050565b8082038281111561051a576040805160e560020a62461bcd02815260206004820181905260248201527f536166654d6174683a20737562737472616374696f6e20756e646572666c6f77604482015290519081900360640190fd5b8082018281101561051a576040805160e560020a62461bcd02815260206004820152601b60248201527f536166654d6174683a206164646974696f6e206f766572666c6f770000000000604482015290519081900360640190fd5b600160a060020a038116610cf85760405160e560020a62461bcd028152600401808060200182810382526026815260200180610f1e6026913960400191505060405180910390fd5b60008054604051600160a060020a03808516939216917f8be0079c531659141344cd1fd0a4f28419497f9722a3daafe3b4186f6b6457e091a36000805473ffffffffffffffffffffffffffffffffffffffff1916600160a060020a0392909216919091179055565b600160a060020a038216610da85760405160e560020a62461bcd028152600401808060200182810382526023815260200180610efb6023913960400191505060405180910390fd5b600160a060020a038216600090815260036020526040902054610dd1908263ffffffff610bfa16565b600160a060020a0390921660009081526003602052604090209190915550565b600160a060020a038216610e395760405160e560020a62461bcd028152600401808060200182810382526023815260200180610efb6023913960400191505060405180910390fd5b600160a060020a038216600090815260036020526040902054610dd1908263ffffffff610c5516565b828054600181600116156101000203166002900490600052602060002090601f016020900481019282601f10610ea357805160ff1916838001178555610ed0565b82800160010185558215610ed0579182015b82811115610ed0578251825591602001919060010190610eb5565b50610edc929150610ee0565b5090565b61052491905b80821115610edc5760008155600101610ee656fe45524332303a207472616e7366657220746f20746865207a65726f20616464726573734f776e61626c653a206e6577206f776e657220697320746865207a65726f206164647265737345524332303a20617070726f766520746f20746865207a65726f20616464726573734f776e61626c653a2063616c6c6572206973206e6f7420746865206f776e657245524332303a207472616e736665722066726f6d20746865207a65726f206164647265737345524332303a20617070726f76652066726f6d20746865207a65726f2061646472657373a265627a7a723158200dfb678912a0fe38cfeb745ffb426451dc00789bd78b65629af11825d6d5d01f64736f6c63430005100032",
  "source": "pragma solidity =0.5.16;\nimport \"../modules/SafeMath.sol\";\n\nimport \"./FPTData.sol\";\ncontract SharedCoin is FPTData  {\n    using SafeMath for uint256;\n    function initialize() onlyOwner public{\n        name = \"finnexus pool token\";\n        symbol = \"FPT\";\n        _totalSupply = 0;\n    }\n    /**\n     * @dev See {IERC20-totalSupply}.\n     */\n    function totalSupply() public view returns (uint256) {\n        return _totalSupply;\n    }\n\n\n    /**\n     * @dev See {IERC20-balanceOf}.\n     */\n    function balanceOf(address account) public view returns (uint256) {\n        return balances[account];\n    }\n    /**\n     * @dev See {IERC20-transfer}.\n     *\n     * Requirements:\n     *\n     * - `recipient` cannot be the zero address.\n     * - the caller must have a balance of at least `amount`.\n     */\n    function transfer(address recipient, uint256 amount)\n    public\n    returns (bool)\n    {\n        _transfer(msg.sender, recipient, amount);\n        return true;\n    }\n\n    /**\n     * @dev See {IERC20-allowance}.\n     */\n    function allowance(address owner, address spender) public view returns (uint256) {\n        return _allowances[owner][spender];\n    }\n\n    /**\n     * @dev See {IERC20-approve}.\n     *\n     * Requirements:\n     *\n     * - `spender` cannot be the zero address.\n     */\n    function approve(address spender, uint256 amount) public returns (bool) {\n        _approve(msg.sender, spender, amount);\n        return true;\n    }\n\n    /**\n     * @dev See {IERC20-transferFrom}.\n     *\n     * Emits an {Approval} event indicating the updated allowance. This is not\n     * required by the EIP. See the note at the beginning of {ERC20};\n     *\n     * Requirements:\n     * - `sender` and `recipient` cannot be the zero address.\n     * - `sender` must have a balance of at least `amount`.\n     * - the caller must have allowance for `sender`'s tokens of at least\n     * `amount`.\n     */\n    function transferFrom(address sender, address recipient, uint256 amount)\n    public\n    returns (bool) {\n        _transfer(sender, recipient, amount);\n        _approve(sender, msg.sender, _allowances[sender][msg.sender].sub(amount));\n        return true;\n    }\n\n    /**\n     * @dev Atomically increases the allowance granted to `spender` by the caller.\n     *\n     * This is an alternative to {approve} that can be used as a mitigation for\n     * problems described in {IERC20-approve}.\n     *\n     * Emits an {Approval} event indicating the updated allowance.\n     *\n     * Requirements:\n     *\n     * - `spender` cannot be the zero address.\n     */\n    function increaseAllowance(address spender, uint256 addedValue)\n    public\n    returns (bool) {\n        _approve(msg.sender, spender, _allowances[msg.sender][spender].add(addedValue));\n        return true;\n    }\n\n    /**\n     * @dev Atomically decreases the allowance granted to `spender` by the caller.\n     *\n     * This is an alternative to {approve} that can be used as a mitigation for\n     * problems described in {IERC20-approve}.\n     *\n     * Emits an {Approval} event indicating the updated allowance.\n     *\n     * Requirements:\n     *\n     * - `spender` cannot be the zero address.\n     * - `spender` must have allowance for the caller of at least\n     * `subtractedValue`.\n     */\n    function decreaseAllowance(address spender, uint256 subtractedValue)\n    public\n    returns (bool) {\n        _approve(msg.sender, spender, _allowances[msg.sender][spender].sub(subtractedValue));\n        return true;\n    }\n/*\n    function burn(uint256 amount) public onlyOwner returns (bool){\n        _burn(msg.sender, amount);\n        return true;\n    }\n    function mint(address account,uint256 amount) public onlyOwner returns (bool){\n        _mint(account,amount);\n        return true;\n    }\n    */\n    /**\n     * @dev add `recipient`'s balance to iterable mapping balances.\n     */\n    function _addBalance(address recipient, uint256 amount) internal {\n        require(recipient != address(0), \"ERC20: transfer to the zero address\");\n\n        balances[recipient] = balances[recipient].add(amount);\n    }\n    /**\n     * @dev add `recipient`'s balance to iterable mapping balances.\n     */\n    function _subBalance(address recipient, uint256 amount) internal {\n        require(recipient != address(0), \"ERC20: transfer to the zero address\");\n        balances[recipient] = balances[recipient].sub(amount);\n    }\n    /**\n     * @dev Moves tokens `amount` from `sender` to `recipient`.\n     *\n     * This is internal function is equivalent to {transfer}, and can be used to\n     * e.g. implement automatic token fees, slashing mechanisms, etc.\n     *\n     * Emits a {Transfer} event.\n     *\n     * Requirements:\n     *\n     * - `sender` cannot be the zero address.\n     * - `recipient` cannot be the zero address.\n     * - `sender` must have a balance of at least `amount`.\n     */\n    function _transfer(address sender, address recipient, uint256 amount) internal {\n        require(sender != address(0), \"ERC20: transfer from the zero address\");\n        require(recipient != address(0), \"ERC20: transfer to the zero address\");\n        _subBalance(sender,amount);\n        _addBalance(recipient,amount);\n        emit Transfer(sender, recipient, amount);\n    }\n\n    /** @dev Creates `amount` tokens and assigns them to `account`, increasing\n     * the total supply.\n     *\n     * Emits a {Transfer} event with `from` set to the zero address.\n     *\n     * Requirements\n     *\n     * - `to` cannot be the zero address.\n     */\n    function _mint(address account, uint256 amount) internal {\n        require(account != address(0), \"ERC20: mint to the zero address\");\n\n        _totalSupply = _totalSupply.add(amount);\n        _addBalance(account,amount);\n        emit Transfer(address(0), account, amount);\n    }\n    /**\n    * @dev Destroys `amount` tokens from `account`, reducing the\n    * total supply.\n    *\n    * Emits a {Transfer} event with `to` set to the zero address.\n    *\n    * Requirements\n    *\n    * - `account` cannot be the zero address.\n    * - `account` must have at least `amount` tokens.\n    */\n    function _burn(address account, uint256 amount) internal {\n        require(account != address(0), \"ERC20: burn from the zero address\");\n        _subBalance(account,amount);\n        _totalSupply = _totalSupply.sub(amount);\n        emit Transfer(account, address(0), amount);\n    }\n    /**\n     * @dev Sets `amount` as the allowance of `spender` over the `owner`s tokens.\n     *\n     * This is internal function is equivalent to `approve`, and can be used to\n     * e.g. set automatic allowances for certain subsystems, etc.\n     *\n     * Emits an {Approval} event.\n     *\n     * Requirements:\n     *\n     * - `owner` cannot be the zero address.\n     * - `spender` cannot be the zero address.\n     */\n    function _approve(address owner, address spender, uint256 amount) internal {\n        require(owner != address(0), \"ERC20: approve from the zero address\");\n        require(spender != address(0), \"ERC20: approve to the zero address\");\n\n        _allowances[owner][spender] = amount;\n        emit Approval(owner, spender, amount);\n    }\n\n}\n",
  "sourcePath": "/home/jqg/FinnexusOptions_V2/contracts/FPTCoin/SharedCoin.sol",
  "compiler": {
    "name": "solc",
    "version": "0.5.16+commit.9c3226ce.Emscripten.clang"
  },
  "schemaVersion": "3.2.4",
  "updatedAt": "2020-09-09T03:13:04.240Z",
  "devdoc": {
    "methods": {
      "allowance(address,address)": {
        "details": "See {IERC20-allowance}."
      },
      "approve(address,uint256)": {
        "details": "See {IERC20-approve}.     * Requirements:     * - `spender` cannot be the zero address."
      },
      "balanceOf(address)": {
        "details": "See {IERC20-balanceOf}."
      },
      "decreaseAllowance(address,uint256)": {
        "details": "Atomically decreases the allowance granted to `spender` by the caller.     * This is an alternative to {approve} that can be used as a mitigation for problems described in {IERC20-approve}.     * Emits an {Approval} event indicating the updated allowance.     * Requirements:     * - `spender` cannot be the zero address. - `spender` must have allowance for the caller of at least `subtractedValue`."
      },
      "getItemTimeLimitation(uint256)": {
        "details": "Retrieve user's start time for burning. ",
        "params": {
          "item": "item key."
        }
      },
      "getManager()": {
        "details": "get manager address.      "
      },
      "increaseAllowance(address,uint256)": {
        "details": "Atomically increases the allowance granted to `spender` by the caller.     * This is an alternative to {approve} that can be used as a mitigation for problems described in {IERC20-approve}.     * Emits an {Approval} event indicating the updated allowance.     * Requirements:     * - `spender` cannot be the zero address."
      },
      "isOwner()": {
        "details": "Returns true if the caller is the current owner."
      },
      "owner()": {
        "details": "Returns the address of the current owner."
      },
      "renounceOwnership()": {
        "details": "Leaves the contract without owner. It will not be possible to call `onlyOwner` functions anymore. Can only be called by the current owner.     * NOTE: Renouncing ownership will leave the contract without an owner, thereby removing any functionality that is only available to the owner."
      },
      "setManager(address)": {
        "details": "set manager by owner.      "
      },
      "setTimeLimitation(uint256)": {
        "details": "set time limitation, only owner can invoke. ",
        "params": {
          "_limitation": "new time limitation."
        }
      },
      "totalSupply()": {
        "details": "See {IERC20-totalSupply}."
      },
      "transfer(address,uint256)": {
        "details": "See {IERC20-transfer}.     * Requirements:     * - `recipient` cannot be the zero address. - the caller must have a balance of at least `amount`."
      },
      "transferFrom(address,address,uint256)": {
        "details": "See {IERC20-transferFrom}.     * Emits an {Approval} event indicating the updated allowance. This is not required by the EIP. See the note at the beginning of {ERC20};     * Requirements: - `sender` and `recipient` cannot be the zero address. - `sender` must have a balance of at least `amount`. - the caller must have allowance for `sender`'s tokens of at least `amount`."
      },
      "transferOwnership(address)": {
        "details": "Transfers ownership of the contract to a new account (`newOwner`). Can only be called by the current owner."
      }
    }
  },
  "userdoc": {
    "methods": {}
  }
}