{
  "contractName": "SharedCoin",
  "abi": [
    {
      "anonymous": false,
      "inputs": [
        {
          "indexed": true,
          "internalType": "address",
          "name": "owner",
          "type": "address"
        },
        {
          "indexed": false,
          "internalType": "uint256",
          "name": "amount",
          "type": "uint256"
        },
        {
          "indexed": false,
          "internalType": "uint256",
          "name": "worth",
          "type": "uint256"
        }
      ],
      "name": "AddLocked",
      "type": "event"
    },
    {
      "anonymous": false,
      "inputs": [
        {
          "indexed": true,
          "internalType": "address",
          "name": "owner",
          "type": "address"
        },
        {
          "indexed": true,
          "internalType": "address",
          "name": "spender",
          "type": "address"
        },
        {
          "indexed": false,
          "internalType": "uint256",
          "name": "value",
          "type": "uint256"
        }
      ],
      "name": "Approval",
      "type": "event"
    },
    {
      "anonymous": false,
      "inputs": [
        {
          "indexed": true,
          "internalType": "address",
          "name": "owner",
          "type": "address"
        },
        {
          "indexed": false,
          "internalType": "uint256",
          "name": "amount",
          "type": "uint256"
        },
        {
          "indexed": false,
          "internalType": "uint256",
          "name": "worth",
          "type": "uint256"
        }
      ],
      "name": "BurnLocked",
      "type": "event"
    },
    {
      "anonymous": false,
      "inputs": [
        {
          "indexed": true,
          "internalType": "address",
          "name": "previousOwner",
          "type": "address"
        },
        {
          "indexed": true,
          "internalType": "address",
          "name": "newOwner",
          "type": "address"
        }
      ],
      "name": "OwnershipTransferred",
      "type": "event"
    },
    {
      "anonymous": false,
      "inputs": [
        {
          "indexed": true,
          "internalType": "address",
          "name": "from",
          "type": "address"
        },
        {
          "indexed": true,
          "internalType": "address",
          "name": "to",
          "type": "address"
        },
        {
          "indexed": false,
          "internalType": "uint256",
          "name": "value",
          "type": "uint256"
        }
      ],
      "name": "Transfer",
      "type": "event"
    },
    {
      "constant": true,
      "inputs": [],
      "name": "decimals",
      "outputs": [
        {
          "internalType": "uint8",
          "name": "",
          "type": "uint8"
        }
      ],
      "payable": false,
      "stateMutability": "view",
      "type": "function"
    },
    {
      "constant": true,
      "inputs": [],
      "name": "getFNXMinePoolAddress",
      "outputs": [
        {
          "internalType": "address",
          "name": "",
          "type": "address"
        }
      ],
      "payable": false,
      "stateMutability": "view",
      "type": "function"
    },
    {
      "constant": true,
      "inputs": [],
      "name": "getManager",
      "outputs": [
        {
          "internalType": "address",
          "name": "",
          "type": "address"
        }
      ],
      "payable": false,
      "stateMutability": "view",
      "type": "function"
    },
    {
      "constant": true,
      "inputs": [],
      "name": "isOwner",
      "outputs": [
        {
          "internalType": "bool",
          "name": "",
          "type": "bool"
        }
      ],
      "payable": false,
      "stateMutability": "view",
      "type": "function"
    },
    {
      "constant": true,
      "inputs": [],
      "name": "name",
      "outputs": [
        {
          "internalType": "string",
          "name": "",
          "type": "string"
        }
      ],
      "payable": false,
      "stateMutability": "view",
      "type": "function"
    },
    {
      "constant": true,
      "inputs": [],
      "name": "owner",
      "outputs": [
        {
          "internalType": "address",
          "name": "",
          "type": "address"
        }
      ],
      "payable": false,
      "stateMutability": "view",
      "type": "function"
    },
    {
      "constant": false,
      "inputs": [],
      "name": "renounceOwnership",
      "outputs": [],
      "payable": false,
      "stateMutability": "nonpayable",
      "type": "function"
    },
    {
      "constant": false,
      "inputs": [
        {
          "internalType": "address",
          "name": "fnxMinePool",
          "type": "address"
        }
      ],
      "name": "setFNXMinePoolAddress",
      "outputs": [],
      "payable": false,
      "stateMutability": "nonpayable",
      "type": "function"
    },
    {
      "constant": false,
      "inputs": [
        {
          "internalType": "address",
          "name": "managerAddress",
          "type": "address"
        }
      ],
      "name": "setManager",
      "outputs": [],
      "payable": false,
      "stateMutability": "nonpayable",
      "type": "function"
    },
    {
      "constant": true,
      "inputs": [],
      "name": "symbol",
      "outputs": [
        {
          "internalType": "string",
          "name": "",
          "type": "string"
        }
      ],
      "payable": false,
      "stateMutability": "view",
      "type": "function"
    },
    {
      "constant": false,
      "inputs": [
        {
          "internalType": "address",
          "name": "newOwner",
          "type": "address"
        }
      ],
      "name": "transferOwnership",
      "outputs": [],
      "payable": false,
      "stateMutability": "nonpayable",
      "type": "function"
    },
    {
      "constant": false,
      "inputs": [],
      "name": "initialize",
      "outputs": [],
      "payable": false,
      "stateMutability": "nonpayable",
      "type": "function"
    },
    {
      "constant": true,
      "inputs": [],
      "name": "totalSupply",
      "outputs": [
        {
          "internalType": "uint256",
          "name": "",
          "type": "uint256"
        }
      ],
      "payable": false,
      "stateMutability": "view",
      "type": "function"
    },
    {
      "constant": true,
      "inputs": [
        {
          "internalType": "address",
          "name": "account",
          "type": "address"
        }
      ],
      "name": "balanceOf",
      "outputs": [
        {
          "internalType": "uint256",
          "name": "",
          "type": "uint256"
        }
      ],
      "payable": false,
      "stateMutability": "view",
      "type": "function"
    },
    {
      "constant": false,
      "inputs": [
        {
          "internalType": "address",
          "name": "recipient",
          "type": "address"
        },
        {
          "internalType": "uint256",
          "name": "amount",
          "type": "uint256"
        }
      ],
      "name": "transfer",
      "outputs": [
        {
          "internalType": "bool",
          "name": "",
          "type": "bool"
        }
      ],
      "payable": false,
      "stateMutability": "nonpayable",
      "type": "function"
    },
    {
      "constant": true,
      "inputs": [
        {
          "internalType": "address",
          "name": "owner",
          "type": "address"
        },
        {
          "internalType": "address",
          "name": "spender",
          "type": "address"
        }
      ],
      "name": "allowance",
      "outputs": [
        {
          "internalType": "uint256",
          "name": "",
          "type": "uint256"
        }
      ],
      "payable": false,
      "stateMutability": "view",
      "type": "function"
    },
    {
      "constant": false,
      "inputs": [
        {
          "internalType": "address",
          "name": "spender",
          "type": "address"
        },
        {
          "internalType": "uint256",
          "name": "amount",
          "type": "uint256"
        }
      ],
      "name": "approve",
      "outputs": [
        {
          "internalType": "bool",
          "name": "",
          "type": "bool"
        }
      ],
      "payable": false,
      "stateMutability": "nonpayable",
      "type": "function"
    },
    {
      "constant": false,
      "inputs": [
        {
          "internalType": "address",
          "name": "sender",
          "type": "address"
        },
        {
          "internalType": "address",
          "name": "recipient",
          "type": "address"
        },
        {
          "internalType": "uint256",
          "name": "amount",
          "type": "uint256"
        }
      ],
      "name": "transferFrom",
      "outputs": [
        {
          "internalType": "bool",
          "name": "",
          "type": "bool"
        }
      ],
      "payable": false,
      "stateMutability": "nonpayable",
      "type": "function"
    },
    {
      "constant": false,
      "inputs": [
        {
          "internalType": "address",
          "name": "spender",
          "type": "address"
        },
        {
          "internalType": "uint256",
          "name": "addedValue",
          "type": "uint256"
        }
      ],
      "name": "increaseAllowance",
      "outputs": [
        {
          "internalType": "bool",
          "name": "",
          "type": "bool"
        }
      ],
      "payable": false,
      "stateMutability": "nonpayable",
      "type": "function"
    },
    {
      "constant": false,
      "inputs": [
        {
          "internalType": "address",
          "name": "spender",
          "type": "address"
        },
        {
          "internalType": "uint256",
          "name": "subtractedValue",
          "type": "uint256"
        }
      ],
      "name": "decreaseAllowance",
      "outputs": [
        {
          "internalType": "bool",
          "name": "",
          "type": "bool"
        }
      ],
      "payable": false,
      "stateMutability": "nonpayable",
      "type": "function"
    }
  ],
  "bytecode": "0x608060405234801561001057600080fd5b50610eee806100206000396000f3fe608060405234801561001057600080fd5b5060043610610149576000357c0100000000000000000000000000000000000000000000000000000000900480638129fc1c116100ca578063a9059cbb1161008e578063a9059cbb1461036b578063d0ebdbe714610397578063d5009584146103bd578063dd62ed3e146103c5578063f2fde38b146103f357610149565b80638129fc1c1461031f5780638da5cb5b146103275780638f32d59b1461032f57806395d89b4114610337578063a457c2d71461033f57610149565b80633950935111610111578063395093511461027957806359653ec9146102a55780636f2b70cd146102c957806370a08231146102f1578063715018a61461031757610149565b806306fdde031461014e578063095ea7b3146101cb57806318160ddd1461020b57806323b872dd14610225578063313ce5671461025b575b600080fd5b610156610419565b6040805160208082528351818301528351919283929083019185019080838360005b83811015610190578181015183820152602001610178565b50505050905090810190601f1680156101bd5780820380516001836020036101000a031916815260200191505b509250505060405180910390f35b6101f7600480360360408110156101e157600080fd5b50600160a060020a0381351690602001356104a7565b604080519115158252519081900360200190f35b6102136104be565b60408051918252519081900360200190f35b6101f76004803603606081101561023b57600080fd5b50600160a060020a038135811691602081013590911690604001356104c5565b61026361051c565b6040805160ff9092168252519081900360200190f35b6101f76004803603604081101561028f57600080fd5b50600160a060020a038135169060200135610521565b6102ad61055d565b60408051600160a060020a039092168252519081900360200190f35b6102ef600480360360208110156102df57600080fd5b5035600160a060020a031661056c565b005b6102136004803603602081101561030757600080fd5b5035600160a060020a03166105e5565b6102ef610600565b6102ef6106a1565b6102ad610732565b6101f7610741565b610156610752565b6101f76004803603604081101561035557600080fd5b50600160a060020a0381351690602001356107ac565b6101f76004803603604081101561038157600080fd5b50600160a060020a0381351690602001356107e8565b6102ef600480360360208110156103ad57600080fd5b5035600160a060020a03166107f5565b6102ad61086e565b610213600480360360408110156103db57600080fd5b50600160a060020a038135811691602001351661087d565b6102ef6004803603602081101561040957600080fd5b5035600160a060020a03166108a8565b6000805460408051602060026001851615610100026000190190941693909304601f8101849004840282018401909252818152929183018282801561049f5780601f106104745761010080835404028352916020019161049f565b820191906000526020600020905b81548152906001019060200180831161048257829003601f168201915b505050505081565b60006104b43384846108fe565b5060015b92915050565b6004545b90565b60006104d28484846109f0565b600160a060020a03841660009081526003602090815260408083203380855292529091205461051291869161050d908663ffffffff610ae416565b6108fe565b5060019392505050565b601281565b336000818152600360209081526040808320600160a060020a038716845290915281205490916104b491859061050d908663ffffffff610b3f16565b600654600160a060020a031690565b610574610741565b6105b6576040805160e560020a62461bcd0281526020600482018190526024820152600080516020610e51833981519152604482015290519081900360640190fd5b6006805473ffffffffffffffffffffffffffffffffffffffff1916600160a060020a0392909216919091179055565b600160a060020a031660009081526002602052604090205490565b610608610741565b61064a576040805160e560020a62461bcd0281526020600482018190526024820152600080516020610e51833981519152604482015290519081900360640190fd5b600554604051600091600160a060020a0316907f8be0079c531659141344cd1fd0a4f28419497f9722a3daafe3b4186f6b6457e0908390a36005805473ffffffffffffffffffffffffffffffffffffffff19169055565b6040805180820190915260138082527f66696e6e6578757320706f6f6c20746f6b656e0000000000000000000000000060209092019182526106e591600091610d4d565b506040805180820190915260038082527f4650540000000000000000000000000000000000000000000000000000000000602090920191825261072a91600191610d4d565b506000600455565b600554600160a060020a031690565b600554600160a060020a0316331490565b60018054604080516020600284861615610100026000190190941693909304601f8101849004840282018401909252818152929183018282801561049f5780601f106104745761010080835404028352916020019161049f565b336000818152600360209081526040808320600160a060020a038716845290915281205490916104b491859061050d908663ffffffff610ae416565b60006104b43384846109f0565b6107fd610741565b61083f576040805160e560020a62461bcd0281526020600482018190526024820152600080516020610e51833981519152604482015290519081900360640190fd5b6007805473ffffffffffffffffffffffffffffffffffffffff1916600160a060020a0392909216919091179055565b600754600160a060020a031690565b600160a060020a03918216600090815260036020908152604080832093909416825291909152205490565b6108b0610741565b6108f2576040805160e560020a62461bcd0281526020600482018190526024820152600080516020610e51833981519152604482015290519081900360640190fd5b6108fb81610b9a565b50565b600160a060020a0383166109465760405160e560020a62461bcd028152600401808060200182810382526024815260200180610e966024913960400191505060405180910390fd5b600160a060020a03821661098e5760405160e560020a62461bcd028152600401808060200182810382526022815260200180610e2f6022913960400191505060405180910390fd5b600160a060020a03808416600081815260036020908152604080832094871680845294825291829020859055815185815291517f8c5be1e5ebec7d5bd14f71427d1e84f3dd0314c0f7b2291e5b200ac8c7c3b9259281900390910190a3505050565b600160a060020a038316610a385760405160e560020a62461bcd028152600401808060200182810382526025815260200180610e716025913960400191505060405180910390fd5b600160a060020a038216610a805760405160e560020a62461bcd028152600401808060200182810382526023815260200180610de66023913960400191505060405180910390fd5b610a8a8382610c4b565b610a948282610cdc565b81600160a060020a031683600160a060020a03167fddf252ad1be2c89b69c2b068fc378daa952ba7f163c4a11628f55a4df523b3ef836040518082815260200191505060405180910390a3505050565b808203828111156104b8576040805160e560020a62461bcd02815260206004820181905260248201527f536166654d6174683a20737562737472616374696f6e20756e646572666c6f77604482015290519081900360640190fd5b808201828110156104b8576040805160e560020a62461bcd02815260206004820152601b60248201527f536166654d6174683a206164646974696f6e206f766572666c6f770000000000604482015290519081900360640190fd5b600160a060020a038116610be25760405160e560020a62461bcd028152600401808060200182810382526026815260200180610e096026913960400191505060405180910390fd5b600554604051600160a060020a038084169216907f8be0079c531659141344cd1fd0a4f28419497f9722a3daafe3b4186f6b6457e090600090a36005805473ffffffffffffffffffffffffffffffffffffffff1916600160a060020a0392909216919091179055565b600160a060020a038216610c935760405160e560020a62461bcd028152600401808060200182810382526023815260200180610de66023913960400191505060405180910390fd5b600160a060020a038216600090815260026020526040902054610cbc908263ffffffff610ae416565b600160a060020a0390921660009081526002602052604090209190915550565b600160a060020a038216610d245760405160e560020a62461bcd028152600401808060200182810382526023815260200180610de66023913960400191505060405180910390fd5b600160a060020a038216600090815260026020526040902054610cbc908263ffffffff610b3f16565b828054600181600116156101000203166002900490600052602060002090601f016020900481019282601f10610d8e57805160ff1916838001178555610dbb565b82800160010185558215610dbb579182015b82811115610dbb578251825591602001919060010190610da0565b50610dc7929150610dcb565b5090565b6104c291905b80821115610dc75760008155600101610dd156fe45524332303a207472616e7366657220746f20746865207a65726f20616464726573734f776e61626c653a206e6577206f776e657220697320746865207a65726f206164647265737345524332303a20617070726f766520746f20746865207a65726f20616464726573734f776e61626c653a2063616c6c6572206973206e6f7420746865206f776e657245524332303a207472616e736665722066726f6d20746865207a65726f206164647265737345524332303a20617070726f76652066726f6d20746865207a65726f2061646472657373a265627a7a72315820133ed3e9e203140e00971df691d03346c0dd3a2114ea1cf917f50e19f33cb70264736f6c63430005100032",
  "source": "pragma solidity ^0.5.1;\r\nimport \"../modules/SafeMath.sol\";\r\n\r\nimport \"./FPTData.sol\";\r\ncontract SharedCoin is FPTData  {\r\n    using SafeMath for uint256;\r\n    function initialize() public{\r\n        name = \"finnexus pool token\";\r\n        symbol = \"FPT\";\r\n        _totalSupply = 0;\r\n    }\r\n    /**\r\n     * @dev See {IERC20-totalSupply}.\r\n     */\r\n    function totalSupply() public view returns (uint256) {\r\n        return _totalSupply;\r\n    }\r\n\r\n\r\n    /**\r\n     * @dev See {IERC20-balanceOf}.\r\n     */\r\n    function balanceOf(address account) public view returns (uint256) {\r\n        return balances[account];\r\n    }\r\n    /**\r\n     * @dev See {IERC20-transfer}.\r\n     *\r\n     * Requirements:\r\n     *\r\n     * - `recipient` cannot be the zero address.\r\n     * - the caller must have a balance of at least `amount`.\r\n     */\r\n    function transfer(address recipient, uint256 amount)\r\n    public\r\n    returns (bool)\r\n    {\r\n        _transfer(msg.sender, recipient, amount);\r\n        return true;\r\n    }\r\n\r\n    /**\r\n     * @dev See {IERC20-allowance}.\r\n     */\r\n    function allowance(address owner, address spender) public view returns (uint256) {\r\n        return _allowances[owner][spender];\r\n    }\r\n\r\n    /**\r\n     * @dev See {IERC20-approve}.\r\n     *\r\n     * Requirements:\r\n     *\r\n     * - `spender` cannot be the zero address.\r\n     */\r\n    function approve(address spender, uint256 amount) public returns (bool) {\r\n        _approve(msg.sender, spender, amount);\r\n        return true;\r\n    }\r\n\r\n    /**\r\n     * @dev See {IERC20-transferFrom}.\r\n     *\r\n     * Emits an {Approval} event indicating the updated allowance. This is not\r\n     * required by the EIP. See the note at the beginning of {ERC20};\r\n     *\r\n     * Requirements:\r\n     * - `sender` and `recipient` cannot be the zero address.\r\n     * - `sender` must have a balance of at least `amount`.\r\n     * - the caller must have allowance for `sender`'s tokens of at least\r\n     * `amount`.\r\n     */\r\n    function transferFrom(address sender, address recipient, uint256 amount)\r\n    public\r\n    returns (bool) {\r\n        _transfer(sender, recipient, amount);\r\n        _approve(sender, msg.sender, _allowances[sender][msg.sender].sub(amount));\r\n        return true;\r\n    }\r\n\r\n    /**\r\n     * @dev Atomically increases the allowance granted to `spender` by the caller.\r\n     *\r\n     * This is an alternative to {approve} that can be used as a mitigation for\r\n     * problems described in {IERC20-approve}.\r\n     *\r\n     * Emits an {Approval} event indicating the updated allowance.\r\n     *\r\n     * Requirements:\r\n     *\r\n     * - `spender` cannot be the zero address.\r\n     */\r\n    function increaseAllowance(address spender, uint256 addedValue)\r\n    public\r\n    returns (bool) {\r\n        _approve(msg.sender, spender, _allowances[msg.sender][spender].add(addedValue));\r\n        return true;\r\n    }\r\n\r\n    /**\r\n     * @dev Atomically decreases the allowance granted to `spender` by the caller.\r\n     *\r\n     * This is an alternative to {approve} that can be used as a mitigation for\r\n     * problems described in {IERC20-approve}.\r\n     *\r\n     * Emits an {Approval} event indicating the updated allowance.\r\n     *\r\n     * Requirements:\r\n     *\r\n     * - `spender` cannot be the zero address.\r\n     * - `spender` must have allowance for the caller of at least\r\n     * `subtractedValue`.\r\n     */\r\n    function decreaseAllowance(address spender, uint256 subtractedValue)\r\n    public\r\n    returns (bool) {\r\n        _approve(msg.sender, spender, _allowances[msg.sender][spender].sub(subtractedValue));\r\n        return true;\r\n    }\r\n/*\r\n    function burn(uint256 amount) public onlyOwner returns (bool){\r\n        _burn(msg.sender, amount);\r\n        return true;\r\n    }\r\n    function mint(address account,uint256 amount) public onlyOwner returns (bool){\r\n        _mint(account,amount);\r\n        return true;\r\n    }\r\n    */\r\n    /**\r\n     * @dev add `recipient`'s balance to iterable mapping balances.\r\n     */\r\n    function _addBalance(address recipient, uint256 amount) internal {\r\n        require(recipient != address(0), \"ERC20: transfer to the zero address\");\r\n\r\n        balances[recipient] = balances[recipient].add(amount);\r\n    }\r\n    /**\r\n     * @dev add `recipient`'s balance to iterable mapping balances.\r\n     */\r\n    function _subBalance(address recipient, uint256 amount) internal {\r\n        require(recipient != address(0), \"ERC20: transfer to the zero address\");\r\n        balances[recipient] = balances[recipient].sub(amount);\r\n    }\r\n    /**\r\n     * @dev Moves tokens `amount` from `sender` to `recipient`.\r\n     *\r\n     * This is internal function is equivalent to {transfer}, and can be used to\r\n     * e.g. implement automatic token fees, slashing mechanisms, etc.\r\n     *\r\n     * Emits a {Transfer} event.\r\n     *\r\n     * Requirements:\r\n     *\r\n     * - `sender` cannot be the zero address.\r\n     * - `recipient` cannot be the zero address.\r\n     * - `sender` must have a balance of at least `amount`.\r\n     */\r\n    function _transfer(address sender, address recipient, uint256 amount) internal {\r\n        require(sender != address(0), \"ERC20: transfer from the zero address\");\r\n        require(recipient != address(0), \"ERC20: transfer to the zero address\");\r\n        _subBalance(sender,amount);\r\n        _addBalance(recipient,amount);\r\n        emit Transfer(sender, recipient, amount);\r\n    }\r\n\r\n    /** @dev Creates `amount` tokens and assigns them to `account`, increasing\r\n     * the total supply.\r\n     *\r\n     * Emits a {Transfer} event with `from` set to the zero address.\r\n     *\r\n     * Requirements\r\n     *\r\n     * - `to` cannot be the zero address.\r\n     */\r\n    function _mint(address account, uint256 amount) internal {\r\n        require(account != address(0), \"ERC20: mint to the zero address\");\r\n\r\n        _totalSupply = _totalSupply.add(amount);\r\n        _addBalance(account,amount);\r\n        emit Transfer(address(0), account, amount);\r\n    }\r\n    /**\r\n    * @dev Destroys `amount` tokens from `account`, reducing the\r\n    * total supply.\r\n    *\r\n    * Emits a {Transfer} event with `to` set to the zero address.\r\n    *\r\n    * Requirements\r\n    *\r\n    * - `account` cannot be the zero address.\r\n    * - `account` must have at least `amount` tokens.\r\n    */\r\n    function _burn(address account, uint256 amount) internal {\r\n        require(account != address(0), \"ERC20: burn from the zero address\");\r\n        _subBalance(account,amount);\r\n        _totalSupply = _totalSupply.sub(amount);\r\n        emit Transfer(account, address(0), amount);\r\n    }\r\n    /**\r\n     * @dev Sets `amount` as the allowance of `spender` over the `owner`s tokens.\r\n     *\r\n     * This is internal function is equivalent to `approve`, and can be used to\r\n     * e.g. set automatic allowances for certain subsystems, etc.\r\n     *\r\n     * Emits an {Approval} event.\r\n     *\r\n     * Requirements:\r\n     *\r\n     * - `owner` cannot be the zero address.\r\n     * - `spender` cannot be the zero address.\r\n     */\r\n    function _approve(address owner, address spender, uint256 amount) internal {\r\n        require(owner != address(0), \"ERC20: approve from the zero address\");\r\n        require(spender != address(0), \"ERC20: approve to the zero address\");\r\n\r\n        _allowances[owner][spender] = amount;\r\n        emit Approval(owner, spender, amount);\r\n    }\r\n\r\n}\r\n",
  "sourcePath": "C:\\work\\solidity\\FinnexusOptions_V2\\contracts\\FPTCoin\\SharedCoin.sol",
  "compiler": {
    "name": "solc",
    "version": "0.5.16+commit.9c3226ce.Emscripten.clang"
  },
  "schemaVersion": "3.1.0",
  "updatedAt": "2020-09-02T10:47:05.574Z",
  "devdoc": {
    "methods": {
      "allowance(address,address)": {
        "details": "See {IERC20-allowance}."
      },
      "approve(address,uint256)": {
        "details": "See {IERC20-approve}.      * Requirements:      * - `spender` cannot be the zero address."
      },
      "balanceOf(address)": {
        "details": "See {IERC20-balanceOf}."
      },
      "decreaseAllowance(address,uint256)": {
        "details": "Atomically decreases the allowance granted to `spender` by the caller.      * This is an alternative to {approve} that can be used as a mitigation for problems described in {IERC20-approve}.      * Emits an {Approval} event indicating the updated allowance.      * Requirements:      * - `spender` cannot be the zero address. - `spender` must have allowance for the caller of at least `subtractedValue`."
      },
      "getManager()": {
        "details": "get manager address.       "
      },
      "increaseAllowance(address,uint256)": {
        "details": "Atomically increases the allowance granted to `spender` by the caller.      * This is an alternative to {approve} that can be used as a mitigation for problems described in {IERC20-approve}.      * Emits an {Approval} event indicating the updated allowance.      * Requirements:      * - `spender` cannot be the zero address."
      },
      "isOwner()": {
        "details": "Returns true if the caller is the current owner."
      },
      "owner()": {
        "details": "Returns the address of the current owner."
      },
      "renounceOwnership()": {
        "details": "Leaves the contract without owner. It will not be possible to call `onlyOwner` functions anymore. Can only be called by the current owner.      * NOTE: Renouncing ownership will leave the contract without an owner, thereby removing any functionality that is only available to the owner."
      },
      "setManager(address)": {
        "details": "set manager by owner.       "
      },
      "totalSupply()": {
        "details": "See {IERC20-totalSupply}."
      },
      "transfer(address,uint256)": {
        "details": "See {IERC20-transfer}.      * Requirements:      * - `recipient` cannot be the zero address. - the caller must have a balance of at least `amount`."
      },
      "transferFrom(address,address,uint256)": {
        "details": "See {IERC20-transferFrom}.      * Emits an {Approval} event indicating the updated allowance. This is not required by the EIP. See the note at the beginning of {ERC20};      * Requirements: - `sender` and `recipient` cannot be the zero address. - `sender` must have a balance of at least `amount`. - the caller must have allowance for `sender`'s tokens of at least `amount`."
      },
      "transferOwnership(address)": {
        "details": "Transfers ownership of the contract to a new account (`newOwner`). Can only be called by the current owner."
      }
    }
  },
  "userdoc": {
    "methods": {}
  }
}