{
  "contractName": "TestFNXOracle",
  "abi": [
    {
      "anonymous": false,
      "inputs": [
        {
          "indexed": true,
          "internalType": "address",
          "name": "previousOwner",
          "type": "address"
        },
        {
          "indexed": true,
          "internalType": "address",
          "name": "newOwner",
          "type": "address"
        }
      ],
      "name": "OwnershipTransferred",
      "type": "event"
    },
    {
      "constant": false,
      "inputs": [
        {
          "internalType": "address",
          "name": "addAddress",
          "type": "address"
        }
      ],
      "name": "addOperator",
      "outputs": [],
      "payable": false,
      "stateMutability": "nonpayable",
      "type": "function"
    },
    {
      "constant": true,
      "inputs": [],
      "name": "getOperator",
      "outputs": [
        {
          "internalType": "address[]",
          "name": "",
          "type": "address[]"
        }
      ],
      "payable": false,
      "stateMutability": "view",
      "type": "function"
    },
    {
      "constant": true,
      "inputs": [],
      "name": "isOwner",
      "outputs": [
        {
          "internalType": "bool",
          "name": "",
          "type": "bool"
        }
      ],
      "payable": false,
      "stateMutability": "view",
      "type": "function"
    },
    {
      "constant": true,
      "inputs": [],
      "name": "owner",
      "outputs": [
        {
          "internalType": "address",
          "name": "",
          "type": "address"
        }
      ],
      "payable": false,
      "stateMutability": "view",
      "type": "function"
    },
    {
      "constant": false,
      "inputs": [
        {
          "internalType": "address",
          "name": "removeAddress",
          "type": "address"
        }
      ],
      "name": "removeOperator",
      "outputs": [
        {
          "internalType": "bool",
          "name": "",
          "type": "bool"
        }
      ],
      "payable": false,
      "stateMutability": "nonpayable",
      "type": "function"
    },
    {
      "constant": false,
      "inputs": [],
      "name": "renounceOwnership",
      "outputs": [],
      "payable": false,
      "stateMutability": "nonpayable",
      "type": "function"
    },
    {
      "constant": false,
      "inputs": [
        {
          "internalType": "address",
          "name": "optoken",
          "type": "address"
        },
        {
          "internalType": "uint256",
          "name": "price",
          "type": "uint256"
        }
      ],
      "name": "setBuyOptionsPrice",
      "outputs": [],
      "payable": false,
      "stateMutability": "nonpayable",
      "type": "function"
    },
    {
      "constant": false,
      "inputs": [
        {
          "internalType": "uint256",
          "name": "index",
          "type": "uint256"
        },
        {
          "internalType": "address",
          "name": "addAddress",
          "type": "address"
        }
      ],
      "name": "setOperator",
      "outputs": [],
      "payable": false,
      "stateMutability": "nonpayable",
      "type": "function"
    },
    {
      "constant": false,
      "inputs": [
        {
          "internalType": "address[]",
          "name": "operators",
          "type": "address[]"
        }
      ],
      "name": "setOperators",
      "outputs": [],
      "payable": false,
      "stateMutability": "nonpayable",
      "type": "function"
    },
    {
      "constant": false,
      "inputs": [
        {
          "internalType": "address[]",
          "name": "optokens",
          "type": "address[]"
        },
        {
          "internalType": "uint256[]",
          "name": "buyPrices",
          "type": "uint256[]"
        },
        {
          "internalType": "uint256[]",
          "name": "SellPrices",
          "type": "uint256[]"
        }
      ],
      "name": "setOptionsBuyAndSellPrice",
      "outputs": [],
      "payable": false,
      "stateMutability": "nonpayable",
      "type": "function"
    },
    {
      "constant": false,
      "inputs": [
        {
          "internalType": "address",
          "name": "asset",
          "type": "address"
        },
        {
          "internalType": "uint256",
          "name": "price",
          "type": "uint256"
        }
      ],
      "name": "setPrice",
      "outputs": [],
      "payable": false,
      "stateMutability": "nonpayable",
      "type": "function"
    },
    {
      "constant": false,
      "inputs": [
        {
          "internalType": "address[]",
          "name": "assets",
          "type": "address[]"
        },
        {
          "internalType": "uint256[]",
          "name": "assetPrices",
          "type": "uint256[]"
        },
        {
          "internalType": "uint256[]",
          "name": "underlyings",
          "type": "uint256[]"
        },
        {
          "internalType": "uint256[]",
          "name": "ulPrices",
          "type": "uint256[]"
        }
      ],
      "name": "setPriceAndUnderlyingPrice",
      "outputs": [],
      "payable": false,
      "stateMutability": "nonpayable",
      "type": "function"
    },
    {
      "constant": false,
      "inputs": [
        {
          "internalType": "address",
          "name": "optoken",
          "type": "address"
        },
        {
          "internalType": "uint256",
          "name": "price",
          "type": "uint256"
        }
      ],
      "name": "setSellOptionsPrice",
      "outputs": [],
      "payable": false,
      "stateMutability": "nonpayable",
      "type": "function"
    },
    {
      "constant": false,
      "inputs": [
        {
          "internalType": "uint256",
          "name": "underlying",
          "type": "uint256"
        },
        {
          "internalType": "uint256",
          "name": "price",
          "type": "uint256"
        }
      ],
      "name": "setUnderlyingPrice",
      "outputs": [],
      "payable": false,
      "stateMutability": "nonpayable",
      "type": "function"
    },
    {
      "constant": false,
      "inputs": [
        {
          "internalType": "address",
          "name": "newOwner",
          "type": "address"
        }
      ],
      "name": "transferOwnership",
      "outputs": [],
      "payable": false,
      "stateMutability": "nonpayable",
      "type": "function"
    },
    {
      "constant": true,
      "inputs": [
        {
          "internalType": "address",
          "name": "asset",
          "type": "address"
        }
      ],
      "name": "getPrice",
      "outputs": [
        {
          "internalType": "uint256",
          "name": "",
          "type": "uint256"
        }
      ],
      "payable": false,
      "stateMutability": "view",
      "type": "function"
    },
    {
      "constant": true,
      "inputs": [
        {
          "internalType": "uint256",
          "name": "cToken",
          "type": "uint256"
        }
      ],
      "name": "getUnderlyingPrice",
      "outputs": [
        {
          "internalType": "uint256",
          "name": "",
          "type": "uint256"
        }
      ],
      "payable": false,
      "stateMutability": "view",
      "type": "function"
    },
    {
      "constant": true,
      "inputs": [
        {
          "internalType": "address",
          "name": "oToken",
          "type": "address"
        }
      ],
      "name": "getSellOptionsPrice",
      "outputs": [
        {
          "internalType": "uint256",
          "name": "",
          "type": "uint256"
        }
      ],
      "payable": false,
      "stateMutability": "view",
      "type": "function"
    },
    {
      "constant": true,
      "inputs": [
        {
          "internalType": "address",
          "name": "oToken",
          "type": "address"
        }
      ],
      "name": "getBuyOptionsPrice",
      "outputs": [
        {
          "internalType": "uint256",
          "name": "",
          "type": "uint256"
        }
      ],
      "payable": false,
      "stateMutability": "view",
      "type": "function"
    },
    {
      "constant": true,
      "inputs": [
        {
          "internalType": "address",
          "name": "account",
          "type": "address"
        }
      ],
      "name": "getEthBalance",
      "outputs": [
        {
          "internalType": "uint256",
          "name": "",
          "type": "uint256"
        }
      ],
      "payable": false,
      "stateMutability": "view",
      "type": "function"
    }
  ],
  "bytecode": "0x6080604081905260008054600160a060020a0319163317808255600160a060020a0316917f8be0079c531659141344cd1fd0a4f28419497f9722a3daafe3b4186f6b6457e0908290a36117e9806100576000396000f3fe608060405234801561001057600080fd5b5060043610610148576000357c0100000000000000000000000000000000000000000000000000000000900480638da5cb5b116100ca578063da6632571161008e578063da6632571461070e578063ddf71cd51461072b578063e7a1c1c0146107ce578063e7f43c68146107fa578063f2fde38b1461085257610148565b80638da5cb5b1461065c5780638f32d59b146106805780639870d7fe1461069c578063ac8a584a146106c2578063cd75e52c146106e857610148565b80635fe1b456116101115780635fe1b456146105b3578063715018a6146105df57806383532667146105e75780638618b1d81461060a578063861f4d191461063057610148565b8062e4768b1461014d5780631410fa851461017b57806341976e09146103aa57806349b7482b146103e25780634d2301cc1461058d575b600080fd5b6101796004803603604081101561016357600080fd5b50600160a060020a038135169060200135610878565b005b6101796004803603608081101561019157600080fd5b8101906020810181356401000000008111156101ac57600080fd5b8201836020820111156101be57600080fd5b803590602001918460208302840111640100000000831117156101e057600080fd5b919080806020026020016040519081016040528093929190818152602001838360200280828437600092019190915250929594936020810193503591505064010000000081111561023057600080fd5b82018360208201111561024257600080fd5b8035906020019184602083028401116401000000008311171561026457600080fd5b91908080602002602001604051908101604052809392919081815260200183836020028082843760009201919091525092959493602081019350359150506401000000008111156102b457600080fd5b8201836020820111156102c657600080fd5b803590602001918460208302840111640100000000831117156102e857600080fd5b919080806020026020016040519081016040528093929190818152602001838360200280828437600092019190915250929594936020810193503591505064010000000081111561033857600080fd5b82018360208201111561034a57600080fd5b8035906020019184602083028401116401000000008311171561036c57600080fd5b919080806020026020016040519081016040528093929190818152602001838360200280828437600092019190915250929550610910945050505050565b6103d0600480360360208110156103c057600080fd5b5035600160a060020a0316610ac9565b60408051918252519081900360200190f35b610179600480360360608110156103f857600080fd5b81019060208101813564010000000081111561041357600080fd5b82018360208201111561042557600080fd5b8035906020019184602083028401116401000000008311171561044757600080fd5b919080806020026020016040519081016040528093929190818152602001838360200280828437600092019190915250929594936020810193503591505064010000000081111561049757600080fd5b8201836020820111156104a957600080fd5b803590602001918460208302840111640100000000831117156104cb57600080fd5b919080806020026020016040519081016040528093929190818152602001838360200280828437600092019190915250929594936020810193503591505064010000000081111561051b57600080fd5b82018360208201111561052d57600080fd5b8035906020019184602083028401116401000000008311171561054f57600080fd5b919080806020026020016040519081016040528093929190818152602001838360200280828437600092019190915250929550610af3945050505050565b6103d0600480360360208110156105a357600080fd5b5035600160a060020a0316610cc2565b610179600480360360408110156105c957600080fd5b50600160a060020a038135169060200135610ccf565b610179610d6e565b610179600480360360408110156105fd57600080fd5b5080359060200135610e0f565b6103d06004803603602081101561062057600080fd5b5035600160a060020a0316610ef5565b6101796004803603604081101561064657600080fd5b50600160a060020a038135169060200135610f1d565b610664610fbf565b60408051600160a060020a039092168252519081900360200190f35b610688610fcf565b604080519115158252519081900360200190f35b610179600480360360208110156106b257600080fd5b5035600160a060020a0316610fe0565b610688600480360360208110156106d857600080fd5b5035600160a060020a031661103e565b6103d0600480360360208110156106fe57600080fd5b5035600160a060020a03166110a1565b6103d06004803603602081101561072457600080fd5b50356110c9565b6101796004803603602081101561074157600080fd5b81019060208101813564010000000081111561075c57600080fd5b82018360208201111561076e57600080fd5b8035906020019184602083028401116401000000008311171561079057600080fd5b9190808060200260200160405190810160405280939291908181526020018383602002808284376000920191909152509295506110f1945050505050565b610179600480360360408110156107e457600080fd5b5080359060200135600160a060020a0316611152565b6108026111dc565b60408051602080825283518183015283519192839290830191858101910280838360005b8381101561083e578181015183820152602001610826565b505050509050019250505060405180910390f35b6101796004803603602081101561086857600080fd5b5035600160a060020a031661123e565b600154600090158015906108b5575033600160a060020a03166001828154811061089e57fe5b600091825260209091200154600160a060020a0316145b6108f35760405160e560020a62461bcd0281526004018080602001828103825260308152602001806117016030913960400191505060405180910390fd5b50600160a060020a03909116600090815260026020526040902055565b6001546000901580159061094d575033600160a060020a03166001828154811061093657fe5b600091825260209091200154600160a060020a0316145b61098b5760405160e560020a62461bcd0281526004018080602001828103825260308152602001806117016030913960400191505060405180910390fd5b83518551146109ce5760405160e560020a62461bcd0281526004018080602001828103825260318152602001806117846031913960400191505060405180910390fd5b8151835114610a115760405160e560020a62461bcd0281526004018080602001828103825260338152602001806117516033913960400191505060405180910390fd5b60005b8551811015610a6d57848181518110610a2957fe5b602002602001015160026000888481518110610a4157fe5b602090810291909101810151600160a060020a0316825281019190915260400160002055600101610a14565b5060005b8351811015610ac157828181518110610a8657fe5b602002602001015160026000868481518110610a9e57fe5b602090810291909101810151825281019190915260400160002055600101610a71565b505050505050565b600080610ad583611291565b90508015610ae4579050610aee565b64012a05f2009150505b919050565b60015460009015801590610b30575033600160a060020a031660018281548110610b1957fe5b600091825260209091200154600160a060020a0316145b610b6e5760405160e560020a62461bcd0281526004018080602001828103825260308152602001806117016030913960400191505060405180910390fd5b8251845114610bb15760405160e560020a62461bcd02815260040180806020018281038252603181526020018061169e6031913960400191505060405180910390fd5b8151845114610bf45760405160e560020a62461bcd0281526004018080602001828103825260328152602001806116cf6032913960400191505060405180910390fd5b60005b8451811015610c57576000858281518110610c0e57fe5b6020026020010151600160a060020a0316600a026001019050838281518110610c3357fe5b60209081029190910181015160009283526002909152604090912055600101610bf7565b5060005b8451811015610cbb576000858281518110610c7257fe5b6020026020010151600160a060020a0316600a026002019050848281518110610c9757fe5b60209081029190910181015160009283526002909152604090912055600101610c5b565b5050505050565b600160a060020a03163190565b60015460009015801590610d0c575033600160a060020a031660018281548110610cf557fe5b600091825260209091200154600160a060020a0316145b610d4a5760405160e560020a62461bcd0281526004018080602001828103825260308152602001806117016030913960400191505060405180910390fd5b50600160a060020a0391909116600a02600101600090815260026020526040902055565b610d76610fcf565b610db8576040805160e560020a62461bcd0281526020600482018190526024820152600080516020611731833981519152604482015290519081900360640190fd5b60008054604051600160a060020a03909116907f8be0079c531659141344cd1fd0a4f28419497f9722a3daafe3b4186f6b6457e0908390a36000805473ffffffffffffffffffffffffffffffffffffffff19169055565b60015460009015801590610e4c575033600160a060020a031660018281548110610e3557fe5b600091825260209091200154600160a060020a0316145b610e8a5760405160e560020a62461bcd0281526004018080602001828103825260308152602001806117016030913960400191505060405180910390fd5b60008311610ee2576040805160e560020a62461bcd02815260206004820152601960248201527f756e6465726c79696e672063616e6e6f74206265207a65726f00000000000000604482015290519081900360640190fd5b5060009182526002602052604090912055565b600080610f01836112a5565b90508015610f10579050610aee565b5064028fa6ae0092915050565b60015460009015801590610f5a575033600160a060020a031660018281548110610f4357fe5b600091825260209091200154600160a060020a0316145b610f985760405160e560020a62461bcd0281526004018080602001828103825260308152602001806117016030913960400191505060405180910390fd5b50600160a060020a0391909116600a02600290810160009081526020919091526040902055565b600054600160a060020a03165b90565b600054600160a060020a0316331490565b610fe8610fcf565b61102a576040805160e560020a62461bcd0281526020600482018190526024820152600080516020611731833981519152604482015290519081900360640190fd5b61103b60018263ffffffff6112c716565b50565b6000611048610fcf565b61108a576040805160e560020a62461bcd0281526020600482018190526024820152600080516020611731833981519152604482015290519081900360640190fd5b61109b60018363ffffffff61136c16565b92915050565b6000806110ad8361145a565b905080156110bc579050610aee565b50640218711a0092915050565b6000806110d583611475565b905080156110e4579050610aee565b5064d75e4be20092915050565b6110f9610fcf565b61113b576040805160e560020a62461bcd0281526020600482018190526024820152600080516020611731833981519152604482015290519081900360640190fd5b805161114e906001906020840190611591565b5050565b61115a610fcf565b61119c576040805160e560020a62461bcd0281526020600482018190526024820152600080516020611731833981519152604482015290519081900360640190fd5b80600183815481106111aa57fe5b9060005260206000200160006101000a815481600160a060020a030219169083600160a060020a031602179055505050565b6060600180548060200260200160405190810160405280929190818152602001828054801561123457602002820191906000526020600020905b8154600160a060020a03168152600190910190602001808311611216575b5050505050905090565b611246610fcf565b611288576040805160e560020a62461bcd0281526020600482018190526024820152600080516020611731833981519152604482015290519081900360640190fd5b61103b81611480565b600061109b82600160a060020a0316611530565b60006002600a600160a060020a03841602016112c081611530565b9392505050565b61132a8280548060200260200160405190810160405280929190818152602001828054801561131f57602002820191906000526020600020905b8154600160a060020a03168152600190910190602001808311611301575b505050505082611542565b61114e578154600181018355600083815260209020018054600160a060020a03831673ffffffffffffffffffffffffffffffffffffffff199091161790555050565b8154600090815b818110156113b95783600160a060020a031685828154811061139157fe5b600091825260209091200154600160a060020a031614156113b1576113b9565b600101611373565b8181101561144f57600182038114611433578460018303815481106113da57fe5b9060005260206000200160009054906101000a9004600160a060020a031685828154811061140457fe5b9060005260206000200160006101000a815481600160a060020a030219169083600160a060020a031602179055505b8454611443866000198301611603565b5060019250505061109b565b506000949350505050565b60006001600a600160a060020a03841602016112c081611530565b600061109b82611530565b600160a060020a0381166114c85760405160e560020a62461bcd0281526004018080602001828103825260268152602001806116786026913960400191505060405180910390fd5b60008054604051600160a060020a03808516939216917f8be0079c531659141344cd1fd0a4f28419497f9722a3daafe3b4186f6b6457e091a36000805473ffffffffffffffffffffffffffffffffffffffff1916600160a060020a0392909216919091179055565b60009081526002602052604090205490565b8151600090815b8181101561144f5783600160a060020a031685828151811061156757fe5b6020026020010151600160a060020a031614156115895760019250505061109b565b600101611549565b8280548282559060005260206000209081019282156115f3579160200282015b828111156115f3578251825473ffffffffffffffffffffffffffffffffffffffff1916600160a060020a039091161782556020909201916001909101906115b1565b506115ff92915061162c565b5090565b8154818355818111156116275760008381526020902061162791810190830161165d565b505050565b610fcc91905b808211156115ff57805473ffffffffffffffffffffffffffffffffffffffff19168155600101611632565b610fcc91905b808211156115ff576000815560010161166356fe4f776e61626c653a206e6577206f776e657220697320746865207a65726f20616464726573736f70746f6b656e7320616e642062757950726963657320617265206e6f74206f66207468652073616d65206c656e6774686f70746f6b656e7320616e642053656c6c50726963657320617265206e6f74206f66207468652073616d65206c656e6774684d616e6167657261626c653a2063616c6c6572206973206e6f742074686520656c696769626c65204f70657261746f724f776e61626c653a2063616c6c6572206973206e6f7420746865206f776e6572756e6465726c79696e677320616e6420756c50726963657320617265206e6f74206f66207468652073616d65206c656e67746861737365747320616e6420617373657450726963657320617265206e6f74206f66207468652073616d65206c656e677468a265627a7a7231582091831d1abfe4c33b464f55eec6973905de90e9bb091927e48cd5bc1bdfcd09d364736f6c63430005100032",
  "source": "pragma solidity =0.5.16;\nimport \"../FNXOracle.sol\";\n\ncontract TestFNXOracle is FNXOracle {\n    /**\n  * @notice retrieves price of an asset\n  * @dev function to get price for an asset\n  * @param asset Asset for which to get the price\n  * @return uint mantissa of asset price (scaled by 1e8) or zero if unset or contract paused\n  */\n    function getPrice(address asset) public view returns (uint){\n        uint256 price = FNXOracle.getPrice(asset);\n        if (price != 0) {\n            return price;\n        }\n        return 50*1e8;\n    }\n    function getUnderlyingPrice(uint256 cToken) public view returns (uint){\n        uint256 price = FNXOracle.getUnderlyingPrice(cToken);\n        if (price != 0) {\n            return price;\n        }\n        return 9250*1e8;\n    }\n\n    function getSellOptionsPrice(address oToken) public view returns (uint){\n        uint256 price = FNXOracle.getSellOptionsPrice(oToken);\n        if (price != 0) {\n            return price;\n        }\n        return 90*1e8;\n    }\n    function getBuyOptionsPrice(address oToken) public view returns (uint){\n        uint256 price = FNXOracle.getBuyOptionsPrice(oToken);\n        if (price != 0) {\n            return price;\n        }\n        return 110*1e8;\n    }\n    function getEthBalance(address account) public view returns (uint) {\n        return account.balance;\n    }\n}\n",
  "sourcePath": "/home/jqg/FinnexusOptions_V2/contracts/test/TestFNXOracle.sol",
  "compiler": {
    "name": "solc",
    "version": "0.5.16+commit.9c3226ce.Emscripten.clang"
  },
  "schemaVersion": "3.2.4",
  "updatedAt": "2020-09-09T03:13:04.528Z",
  "devdoc": {
    "methods": {
      "addOperator(address)": {
        "details": "add a new operator by owner.      "
      },
      "getOperator()": {
        "details": "get all operators.      "
      },
      "getPrice(address)": {
        "details": "function to get price for an asset",
        "params": {
          "asset": "Asset for which to get the price"
        },
        "return": "uint mantissa of asset price (scaled by 1e8) or zero if unset or contract paused"
      },
      "isOwner()": {
        "details": "Returns true if the caller is the current owner."
      },
      "owner()": {
        "details": "Returns the address of the current owner."
      },
      "removeOperator(address)": {
        "details": "remove operator by owner.      "
      },
      "renounceOwnership()": {
        "details": "Leaves the contract without owner. It will not be possible to call `onlyOwner` functions anymore. Can only be called by the current owner.     * NOTE: Renouncing ownership will leave the contract without an owner, thereby removing any functionality that is only available to the owner."
      },
      "setBuyOptionsPrice(address,uint256)": {
        "details": "function to set an options token buy price",
        "params": {
          "optoken": "options token for which to set the buy price",
          "price": "the options token buy price"
        }
      },
      "setOperator(uint256,address)": {
        "details": "modify indexed operator by owner.      "
      },
      "setOperators(address[])": {
        "details": "set all operators by owner.      "
      },
      "setOptionsBuyAndSellPrice(address[],uint256[],uint256[])": {
        "details": "function to set price of a group of option tokens buy and sell prices",
        "params": {
          "SellPrices": "a group of sell prices",
          "buyPrices": "a group of buy prices",
          "optokens": "a group of option tokens for which to set the buy and sell price"
        }
      },
      "setPrice(address,uint256)": {
        "details": "function to set price for an asset",
        "params": {
          "asset": "Asset for which to set the price",
          "price": "the Asset's price"
        }
      },
      "setPriceAndUnderlyingPrice(address[],uint256[],uint256[],uint256[])": {
        "details": "function to set a group of prices for assets and a group of prices for underlying",
        "params": {
          "assetPrices": "a set of the Asset's price",
          "assets": "a set of asset for which to set the price",
          "ulPrices": "a set of the underlyings's price",
          "underlyings": "a set of underlyings for which to set the price"
        }
      },
      "setSellOptionsPrice(address,uint256)": {
        "details": "function to set an options token sell price",
        "params": {
          "optoken": "options token for which to set the sell price",
          "price": "the options token sell price"
        }
      },
      "setUnderlyingPrice(uint256,uint256)": {
        "details": "function to set price for an underlying",
        "params": {
          "price": "the underlying's price",
          "underlying": "underlying for which to set the price"
        }
      },
      "transferOwnership(address)": {
        "details": "Transfers ownership of the contract to a new account (`newOwner`). Can only be called by the current owner."
      }
    }
  },
  "userdoc": {
    "methods": {
      "getPrice(address)": {
        "notice": "retrieves price of an asset"
      },
      "setBuyOptionsPrice(address,uint256)": {
        "notice": "set price of an options token buy price"
      },
      "setOptionsBuyAndSellPrice(address[],uint256[],uint256[])": {
        "notice": "set price of a group of option tokens buy and sell prices"
      },
      "setPrice(address,uint256)": {
        "notice": "set price of an asset"
      },
      "setPriceAndUnderlyingPrice(address[],uint256[],uint256[],uint256[])": {
        "notice": "set a group of prices for assets and a group of prices for underlying"
      },
      "setSellOptionsPrice(address,uint256)": {
        "notice": "set price of an options token sell price"
      },
      "setUnderlyingPrice(uint256,uint256)": {
        "notice": "set price of an underlying"
      }
    }
  }
}