{
  "contractName": "TestFNXOracle",
  "abi": [
    {
      "constant": false,
      "inputs": [
        {
          "name": "asset",
          "type": "address"
        },
        {
          "name": "price",
          "type": "uint256"
        }
      ],
      "name": "setPrice",
      "outputs": [],
      "payable": false,
      "stateMutability": "nonpayable",
      "type": "function"
    },
    {
      "constant": false,
      "inputs": [
        {
          "name": "assets",
          "type": "address[]"
        },
        {
          "name": "assetPrices",
          "type": "uint256[]"
        },
        {
          "name": "underlyings",
          "type": "uint256[]"
        },
        {
          "name": "ulPrices",
          "type": "uint256[]"
        }
      ],
      "name": "setPriceAndUnderlyingPrice",
      "outputs": [],
      "payable": false,
      "stateMutability": "nonpayable",
      "type": "function"
    },
    {
      "constant": false,
      "inputs": [
        {
          "name": "optokens",
          "type": "address[]"
        },
        {
          "name": "buyPrices",
          "type": "uint256[]"
        },
        {
          "name": "SellPrices",
          "type": "uint256[]"
        }
      ],
      "name": "setOptionsBuyAndSellPrice",
      "outputs": [],
      "payable": false,
      "stateMutability": "nonpayable",
      "type": "function"
    },
    {
      "constant": true,
      "inputs": [],
      "name": "ValidUntil",
      "outputs": [
        {
          "name": "",
          "type": "uint256"
        }
      ],
      "payable": false,
      "stateMutability": "view",
      "type": "function"
    },
    {
      "constant": false,
      "inputs": [
        {
          "name": "optoken",
          "type": "address"
        },
        {
          "name": "price",
          "type": "uint256"
        }
      ],
      "name": "setSellOptionsPrice",
      "outputs": [],
      "payable": false,
      "stateMutability": "nonpayable",
      "type": "function"
    },
    {
      "constant": false,
      "inputs": [
        {
          "name": "timeLimit",
          "type": "uint256"
        }
      ],
      "name": "setValidUntil",
      "outputs": [],
      "payable": false,
      "stateMutability": "nonpayable",
      "type": "function"
    },
    {
      "constant": false,
      "inputs": [],
      "name": "renounceOwnership",
      "outputs": [],
      "payable": false,
      "stateMutability": "nonpayable",
      "type": "function"
    },
    {
      "constant": false,
      "inputs": [
        {
          "name": "underlying",
          "type": "uint256"
        },
        {
          "name": "price",
          "type": "uint256"
        }
      ],
      "name": "setUnderlyingPrice",
      "outputs": [],
      "payable": false,
      "stateMutability": "nonpayable",
      "type": "function"
    },
    {
      "constant": false,
      "inputs": [
        {
          "name": "optoken",
          "type": "address"
        },
        {
          "name": "price",
          "type": "uint256"
        }
      ],
      "name": "setBuyOptionsPrice",
      "outputs": [],
      "payable": false,
      "stateMutability": "nonpayable",
      "type": "function"
    },
    {
      "constant": true,
      "inputs": [],
      "name": "owner",
      "outputs": [
        {
          "name": "",
          "type": "address"
        }
      ],
      "payable": false,
      "stateMutability": "view",
      "type": "function"
    },
    {
      "constant": true,
      "inputs": [],
      "name": "isOwner",
      "outputs": [
        {
          "name": "",
          "type": "bool"
        }
      ],
      "payable": false,
      "stateMutability": "view",
      "type": "function"
    },
    {
      "constant": false,
      "inputs": [
        {
          "name": "addAddress",
          "type": "address"
        }
      ],
      "name": "addOperator",
      "outputs": [],
      "payable": false,
      "stateMutability": "nonpayable",
      "type": "function"
    },
    {
      "constant": false,
      "inputs": [
        {
          "name": "removeAddress",
          "type": "address"
        }
      ],
      "name": "removeOperator",
      "outputs": [
        {
          "name": "",
          "type": "bool"
        }
      ],
      "payable": false,
      "stateMutability": "nonpayable",
      "type": "function"
    },
    {
      "constant": false,
      "inputs": [
        {
          "name": "index",
          "type": "uint256"
        },
        {
          "name": "addAddress",
          "type": "address"
        }
      ],
      "name": "setOperator",
      "outputs": [],
      "payable": false,
      "stateMutability": "nonpayable",
      "type": "function"
    },
    {
      "constant": true,
      "inputs": [],
      "name": "getOperator",
      "outputs": [
        {
          "name": "",
          "type": "address[]"
        }
      ],
      "payable": false,
      "stateMutability": "view",
      "type": "function"
    },
    {
      "constant": false,
      "inputs": [
        {
          "name": "newOwner",
          "type": "address"
        }
      ],
      "name": "transferOwnership",
      "outputs": [],
      "payable": false,
      "stateMutability": "nonpayable",
      "type": "function"
    },
    {
      "anonymous": false,
      "inputs": [
        {
          "indexed": true,
          "name": "previousOwner",
          "type": "address"
        },
        {
          "indexed": true,
          "name": "newOwner",
          "type": "address"
        }
      ],
      "name": "OwnershipTransferred",
      "type": "event"
    },
    {
      "constant": true,
      "inputs": [
        {
          "name": "asset",
          "type": "address"
        }
      ],
      "name": "getPrice",
      "outputs": [
        {
          "name": "",
          "type": "uint256"
        }
      ],
      "payable": false,
      "stateMutability": "view",
      "type": "function"
    },
    {
      "constant": true,
      "inputs": [
        {
          "name": "cToken",
          "type": "uint256"
        }
      ],
      "name": "getUnderlyingPrice",
      "outputs": [
        {
          "name": "",
          "type": "uint256"
        }
      ],
      "payable": false,
      "stateMutability": "view",
      "type": "function"
    },
    {
      "constant": true,
      "inputs": [
        {
          "name": "oToken",
          "type": "address"
        }
      ],
      "name": "getSellOptionsPrice",
      "outputs": [
        {
          "name": "",
          "type": "uint256"
        }
      ],
      "payable": false,
      "stateMutability": "view",
      "type": "function"
    },
    {
      "constant": true,
      "inputs": [
        {
          "name": "oToken",
          "type": "address"
        }
      ],
      "name": "getBuyOptionsPrice",
      "outputs": [
        {
          "name": "",
          "type": "uint256"
        }
      ],
      "payable": false,
      "stateMutability": "view",
      "type": "function"
    },
    {
      "constant": true,
      "inputs": [
        {
          "name": "account",
          "type": "address"
        }
      ],
      "name": "getEthBalance",
      "outputs": [
        {
          "name": "",
          "type": "uint256"
        }
      ],
      "payable": false,
      "stateMutability": "view",
      "type": "function"
    }
  ],
  "bytecode": "0x6080604081905261025860025560008054600160a060020a0319163317808255600160a060020a0316917f8be0079c531659141344cd1fd0a4f28419497f9722a3daafe3b4186f6b6457e0908290a36115ac8061005d6000396000f30060806040526004361061011b5763ffffffff7c0100000000000000000000000000000000000000000000000000000000600035041662e4768b81146101205780631410fa851461014657806341976e091461024657806349b7482b146102795780634af5b1e2146103405780634d2301cc146103555780635fe1b45614610376578063634099cc1461039a578063715018a6146103b257806383532667146103c75780638618b1d8146103e2578063861f4d19146104035780638da5cb5b146104275780638f32d59b146104585780639870d7fe14610481578063ac8a584a146104a2578063cd75e52c146104c3578063da663257146104e4578063e7a1c1c0146104fc578063e7f43c6814610520578063f2fde38b14610585575b600080fd5b34801561012c57600080fd5b50610144600160a060020a03600435166024356105a6565b005b34801561015257600080fd5b506040805160206004803580820135838102808601850190965280855261014495369593946024949385019291829185019084908082843750506040805187358901803560208181028481018201909552818452989b9a998901989297509082019550935083925085019084908082843750506040805187358901803560208181028481018201909552818452989b9a998901989297509082019550935083925085019084908082843750506040805187358901803560208181028481018201909552818452989b9a9989019892975090820195509350839250850190849080828437509497506106529650505050505050565b34801561025257600080fd5b50610267600160a060020a03600435166108ad565b60408051918252519081900360200190f35b34801561028557600080fd5b506040805160206004803580820135838102808601850190965280855261014495369593946024949385019291829185019084908082843750506040805187358901803560208181028481018201909552818452989b9a998901989297509082019550935083925085019084908082843750506040805187358901803560208181028481018201909552818452989b9a9989019892975090820195509350839250850190849080828437509497506108d89650505050505050565b34801561034c57600080fd5b50610267610b4a565b34801561036157600080fd5b50610267600160a060020a0360043516610b50565b34801561038257600080fd5b50610144600160a060020a0360043516602435610b5d565b3480156103a657600080fd5b50610144600435610c14565b3480156103be57600080fd5b50610144610ca9565b3480156103d357600080fd5b50610144600435602435610d4c565b3480156103ee57600080fd5b50610267600160a060020a0360043516610e46565b34801561040f57600080fd5b50610144600160a060020a0360043516602435610e6f565b34801561043357600080fd5b5061043c610f26565b60408051600160a060020a039092168252519081900360200190f35b34801561046457600080fd5b5061046d610f36565b604080519115158252519081900360200190f35b34801561048d57600080fd5b50610144600160a060020a0360043516610f47565b3480156104ae57600080fd5b5061046d600160a060020a0360043516610fa1565b3480156104cf57600080fd5b50610267600160a060020a0360043516611000565b3480156104f057600080fd5b50610267600435611029565b34801561050857600080fd5b50610144600435600160a060020a0360243516611052565b34801561052c57600080fd5b506105356110e0565b60408051602080825283518183015283519192839290830191858101910280838360005b83811015610571578181015183820152602001610559565b505050509050019250505060405180910390f35b34801561059157600080fd5b50610144600160a060020a0360043516611142565b600154600090811080156105dd575060018054339190839081106105c657fe5b600091825260209091200154600160a060020a0316145b1515610635576040805160e560020a62461bcd02815260206004820152603060248201526000805160206115218339815191526044820152600080516020611561833981519152606482015290519081900360840190fd5b50600160a060020a03909116600090815260036020526040902055565b6000808060018054905011801561068c5750600180543391908390811061067557fe5b600091825260209091200154600160a060020a0316145b15156106e4576040805160e560020a62461bcd02815260206004820152603060248201526000805160206115218339815191526044820152600080516020611561833981519152606482015290519081900360840190fd5b8451865114610763576040805160e560020a62461bcd02815260206004820152603160248201527f61737365747320616e6420617373657450726963657320617265206e6f74206f60448201527f66207468652073616d65206c656e677468000000000000000000000000000000606482015290519081900360840190fd5b82518451146107e2576040805160e560020a62461bcd02815260206004820152603360248201527f756e6465726c79696e677320616e6420756c50726963657320617265206e6f7460448201527f206f66207468652073616d65206c656e67746800000000000000000000000000606482015290519081900360840190fd5b600091505b85518210156108485784828151811015156107fe57fe5b9060200190602002015160036000888581518110151561081a57fe5b6020908102909101810151600160a060020a03168252810191909152604001600020556001909101906107e7565b600091505b83518210156108a557828281518110151561086457fe5b9060200190602002015160036000868581518110151561088057fe5b602090810290910181015182528101919091526040016000205560019091019061084d565b505050505050565b6000806108b983611197565b905080156108c9578091506108d2565b64012a05f20091505b50919050565b60008060008080600180549050118015610915575060018054339190839081106108fe57fe5b600091825260209091200154600160a060020a0316145b151561096d576040805160e560020a62461bcd02815260206004820152603060248201526000805160206115218339815191526044820152600080516020611561833981519152606482015290519081900360840190fd5b85518751146109ec576040805160e560020a62461bcd02815260206004820152603160248201527f6f70746f6b656e7320616e642062757950726963657320617265206e6f74206f60448201527f66207468652073616d65206c656e677468000000000000000000000000000000606482015290519081900360840190fd5b8451875114610a6b576040805160e560020a62461bcd02815260206004820152603260248201527f6f70746f6b656e7320616e642053656c6c50726963657320617265206e6f742060448201527f6f66207468652073616d65206c656e6774680000000000000000000000000000606482015290519081900360840190fd5b600093505b8651841015610ad6578684815181101515610a8757fe5b90602001906020020151600160a060020a0316600a0260010192508484815181101515610ab057fe5b602090810290910181015160008581526003909252604090912055600190930192610a70565b600093505b8651841015610b41578684815181101515610af257fe5b90602001906020020151600160a060020a0316600a0260020191508584815181101515610b1b57fe5b602090810290910181015160008481526003909252604090912055600190930192610adb565b50505050505050565b60025481565b600160a060020a03163190565b60008080600180549050118015610b9757506001805433919083908110610b8057fe5b600091825260209091200154600160a060020a0316145b1515610bef576040805160e560020a62461bcd02815260206004820152603060248201526000805160206115218339815191526044820152600080516020611561833981519152606482015290519081900360840190fd5b5050600160a060020a0391909116600a02600101600090815260036020526040902055565b60015460009081108015610c4b57506001805433919083908110610c3457fe5b600091825260209091200154600160a060020a0316145b1515610ca3576040805160e560020a62461bcd02815260206004820152603060248201526000805160206115218339815191526044820152600080516020611561833981519152606482015290519081900360840190fd5b50600255565b610cb1610f36565b1515610cf5576040805160e560020a62461bcd0281526020600482018190526024820152600080516020611541833981519152604482015290519081900360640190fd5b60008054604051600160a060020a03909116907f8be0079c531659141344cd1fd0a4f28419497f9722a3daafe3b4186f6b6457e0908390a36000805473ffffffffffffffffffffffffffffffffffffffff19169055565b60015460009081108015610d8357506001805433919083908110610d6c57fe5b600091825260209091200154600160a060020a0316145b1515610ddb576040805160e560020a62461bcd02815260206004820152603060248201526000805160206115218339815191526044820152600080516020611561833981519152606482015290519081900360840190fd5b60008311610e33576040805160e560020a62461bcd02815260206004820152601960248201527f756e6465726c79696e672063616e6e6f74206265207a65726f00000000000000604482015290519081900360640190fd5b5060009182526003602052604090912055565b600080610e52836111ab565b90508015610e62578091506108d2565b5064028fa6ae0092915050565b60008080600180549050118015610ea957506001805433919083908110610e9257fe5b600091825260209091200154600160a060020a0316145b1515610f01576040805160e560020a62461bcd02815260206004820152603060248201526000805160206115218339815191526044820152600080516020611561833981519152606482015290519081900360840190fd5b5050600160a060020a0391909116600a02600201600090815260036020526040902055565b600054600160a060020a03165b90565b600054600160a060020a0316331490565b610f4f610f36565b1515610f93576040805160e560020a62461bcd0281526020600482018190526024820152600080516020611541833981519152604482015290519081900360640190fd5b610f9e6001826111cd565b50565b6000610fab610f36565b1515610fef576040805160e560020a62461bcd0281526020600482018190526024820152600080516020611541833981519152604482015290519081900360640190fd5b610ffa600183611273565b92915050565b60008061100c83611362565b9050801561101c578091506108d2565b50640218711a0092915050565b6000806110358361137d565b90508015611045578091506108d2565b5064d75e4be20092915050565b61105a610f36565b151561109e576040805160e560020a62461bcd0281526020600482018190526024820152600080516020611541833981519152604482015290519081900360640190fd5b806001838154811015156110ae57fe5b9060005260206000200160006101000a815481600160a060020a030219169083600160a060020a031602179055505050565b6060600180548060200260200160405190810160405280929190818152602001828054801561113857602002820191906000526020600020905b8154600160a060020a0316815260019091019060200180831161111a575b5050505050905090565b61114a610f36565b151561118e576040805160e560020a62461bcd0281526020600482018190526024820152600080516020611541833981519152604482015290519081900360640190fd5b610f9e81611388565b6000610ffa82600160a060020a0316611476565b60006002600a600160a060020a03841602016111c681611476565b9392505050565b6112308280548060200260200160405190810160405280929190818152602001828054801561122557602002820191906000526020600020905b8154600160a060020a03168152600190910190602001808311611207575b505050505082611488565b151561126f57815460018101835560008381526020902001805473ffffffffffffffffffffffffffffffffffffffff1916600160a060020a0383161790555b5050565b8154600090815b818110156112c25783600160a060020a0316858281548110151561129a57fe5b600091825260209091200154600160a060020a031614156112ba576112c2565b60010161127a565b81811015611355576000198201811461133b5784600183038154811015156112e657fe5b6000918252602090912001548554600160a060020a039091169086908390811061130c57fe5b9060005260206000200160006101000a815481600160a060020a030219169083600160a060020a031602179055505b845461134b8660001983016114d9565b506001925061135a565b600092505b505092915050565b60006001600a600160a060020a03841602016111c681611476565b6000610ffa82611476565b600160a060020a038116151561140e576040805160e560020a62461bcd02815260206004820152602660248201527f4f776e61626c653a206e6577206f776e657220697320746865207a65726f206160448201527f6464726573730000000000000000000000000000000000000000000000000000606482015290519081900360840190fd5b60008054604051600160a060020a03808516939216917f8be0079c531659141344cd1fd0a4f28419497f9722a3daafe3b4186f6b6457e091a36000805473ffffffffffffffffffffffffffffffffffffffff1916600160a060020a0392909216919091179055565b60009081526003602052604090205490565b8151600090815b818110156113555783600160a060020a031685828151811015156114af57fe5b90602001906020020151600160a060020a031614156114d1576001925061135a565b60010161148f565b8154818355818111156114fd576000838152602090206114fd918101908301611502565b505050565b610f3391905b8082111561151c5760008155600101611508565b509056004d616e6167657261626c653a2063616c6c6572206973206e6f742074686520654f776e61626c653a2063616c6c6572206973206e6f7420746865206f776e65726c696769626c65204f70657261746f7200000000000000000000000000000000a165627a7a723058203b05e1a134c2833f611d00b81ae5fa4d65e3b540cc219696ea83cf2e47916dfc0029",
  "source": "pragma solidity ^0.4.26;\r\nimport \"../FNXOracle.sol\";\r\n\r\ncontract TestFNXOracle is FNXOracle {\r\n    /**\r\n  * @notice retrieves price of an asset\r\n  * @dev function to get price for an asset\r\n  * @param asset Asset for which to get the price\r\n  * @return uint mantissa of asset price (scaled by 1e18) or zero if unset or contract paused\r\n  */\r\n    function getPrice(address asset) public view returns (uint){\r\n        uint256 price = FNXOracle.getPrice(asset);\r\n        if (price != 0) {\r\n            return price;\r\n        }\r\n        return 50*1e8;\r\n    }\r\n    function getUnderlyingPrice(uint256 cToken) public view returns (uint){\r\n        uint256 price = FNXOracle.getUnderlyingPrice(cToken);\r\n        if (price != 0) {\r\n            return price;\r\n        }\r\n        return 9250*1e8;\r\n    }\r\n\r\n    function getSellOptionsPrice(address oToken) public view returns (uint){\r\n        uint256 price = FNXOracle.getSellOptionsPrice(oToken);\r\n        if (price != 0) {\r\n            return price;\r\n        }\r\n        return 90*1e8;\r\n    }\r\n    function getBuyOptionsPrice(address oToken) public view returns (uint){\r\n        uint256 price = FNXOracle.getBuyOptionsPrice(oToken);\r\n        if (price != 0) {\r\n            return price;\r\n        }\r\n        return 110*1e8;\r\n    }\r\n    function getEthBalance(address account) public view returns (uint) {\r\n        return account.balance;\r\n    }\r\n}\r\n",
  "sourcePath": "C:\\work\\solidity\\FinnexusOptions_V2\\contracts\\test\\TestFNXOracle.sol",
  "compiler": {
    "name": "solc",
    "version": "0.4.26+commit.4563c3fc.Emscripten.clang"
  },
  "schemaVersion": "3.1.0",
  "updatedAt": "2020-08-03T07:47:17.103Z",
  "devdoc": {
    "methods": {
      "getPrice(address)": {
        "details": "function to get price for an asset\r",
        "params": {
          "asset": "Asset for which to get the price\r"
        },
        "return": "uint mantissa of asset price (scaled by 1e18) or zero if unset or contract paused\r"
      },
      "isOwner()": {
        "details": "Returns true if the caller is the current owner."
      },
      "owner()": {
        "details": "Returns the address of the current owner."
      },
      "renounceOwnership()": {
        "details": "Leaves the contract without owner. It will not be possible to call `onlyOwner` functions anymore. Can only be called by the current owner.     * NOTE: Renouncing ownership will leave the contract without an owner, thereby removing any functionality that is only available to the owner."
      },
      "setBuyOptionsPrice(address,uint256)": {
        "details": "function to set an options token buy price\r",
        "params": {
          "optoken": "options token for which to set the buy price\r",
          "price": "the options token buy price\r"
        }
      },
      "setOptionsBuyAndSellPrice(address[],uint256[],uint256[])": {
        "details": "function to set price of a group of option tokens buy and sell prices\r",
        "params": {
          "SellPrices": "a group of sell prices\r",
          "buyPrices": "a group of buy prices\r",
          "optokens": "a group of option tokens for which to set the buy and sell price\r"
        }
      },
      "setPrice(address,uint256)": {
        "details": "function to set price for an asset\r",
        "params": {
          "asset": "Asset for which to set the price\r",
          "price": "the Asset's price\r"
        }
      },
      "setPriceAndUnderlyingPrice(address[],uint256[],uint256[],uint256[])": {
        "details": "function to set a group of prices for assets and a group of prices for underlying\r",
        "params": {
          "assetPrices": "a set of the Asset's price\r",
          "assets": "a set of asset for which to set the price\r",
          "ulPrices": "a set of the underlyings's price\r",
          "underlyings": "a set of underlyings for which to set the price\r"
        }
      },
      "setSellOptionsPrice(address,uint256)": {
        "details": "function to set an options token sell price\r",
        "params": {
          "optoken": "options token for which to set the sell price\r",
          "price": "the options token sell price\r"
        }
      },
      "setUnderlyingPrice(uint256,uint256)": {
        "details": "function to set price for an underlying\r",
        "params": {
          "price": "the underlying's price\r",
          "underlying": "underlying for which to set the price\r"
        }
      },
      "transferOwnership(address)": {
        "details": "Transfers ownership of the contract to a new account (`newOwner`). Can only be called by the current owner."
      }
    }
  },
  "userdoc": {
    "methods": {
      "getPrice(address)": {
        "notice": "retrieves price of an asset\r"
      },
      "setBuyOptionsPrice(address,uint256)": {
        "notice": "set price of an options token buy price\r"
      },
      "setOptionsBuyAndSellPrice(address[],uint256[],uint256[])": {
        "notice": "set price of a group of option tokens buy and sell prices\r"
      },
      "setPrice(address,uint256)": {
        "notice": "set price of an asset\r"
      },
      "setPriceAndUnderlyingPrice(address[],uint256[],uint256[],uint256[])": {
        "notice": "set a group of prices for assets and a group of prices for underlying\r"
      },
      "setSellOptionsPrice(address,uint256)": {
        "notice": "set price of an options token sell price\r"
      },
      "setUnderlyingPrice(uint256,uint256)": {
        "notice": "set price of an underlying\r"
      }
    }
  }
}