{
  "contractName": "TestFNXOracle",
  "abi": [
    {
      "constant": false,
      "inputs": [
        {
          "name": "asset",
          "type": "address"
        },
        {
          "name": "price",
          "type": "uint256"
        }
      ],
      "name": "setPrice",
      "outputs": [],
      "payable": false,
      "stateMutability": "nonpayable",
      "type": "function"
    },
    {
      "constant": false,
      "inputs": [
        {
          "name": "assets",
          "type": "address[]"
        },
        {
          "name": "assetPrices",
          "type": "uint256[]"
        },
        {
          "name": "underlyings",
          "type": "uint256[]"
        },
        {
          "name": "ulPrices",
          "type": "uint256[]"
        }
      ],
      "name": "setPriceAndUnderlyingPrice",
      "outputs": [],
      "payable": false,
      "stateMutability": "nonpayable",
      "type": "function"
    },
    {
      "constant": false,
      "inputs": [
        {
          "name": "optokens",
          "type": "address[]"
        },
        {
          "name": "buyPrices",
          "type": "uint256[]"
        },
        {
          "name": "SellPrices",
          "type": "uint256[]"
        }
      ],
      "name": "setOptionsBuyAndSellPrice",
      "outputs": [],
      "payable": false,
      "stateMutability": "nonpayable",
      "type": "function"
    },
    {
      "constant": false,
      "inputs": [
        {
          "name": "optoken",
          "type": "address"
        },
        {
          "name": "price",
          "type": "uint256"
        }
      ],
      "name": "setSellOptionsPrice",
      "outputs": [],
      "payable": false,
      "stateMutability": "nonpayable",
      "type": "function"
    },
    {
      "constant": false,
      "inputs": [],
      "name": "renounceOwnership",
      "outputs": [],
      "payable": false,
      "stateMutability": "nonpayable",
      "type": "function"
    },
    {
      "constant": false,
      "inputs": [
        {
          "name": "underlying",
          "type": "uint256"
        },
        {
          "name": "price",
          "type": "uint256"
        }
      ],
      "name": "setUnderlyingPrice",
      "outputs": [],
      "payable": false,
      "stateMutability": "nonpayable",
      "type": "function"
    },
    {
      "constant": false,
      "inputs": [
        {
          "name": "optoken",
          "type": "address"
        },
        {
          "name": "price",
          "type": "uint256"
        }
      ],
      "name": "setBuyOptionsPrice",
      "outputs": [],
      "payable": false,
      "stateMutability": "nonpayable",
      "type": "function"
    },
    {
      "constant": true,
      "inputs": [],
      "name": "owner",
      "outputs": [
        {
          "name": "",
          "type": "address"
        }
      ],
      "payable": false,
      "stateMutability": "view",
      "type": "function"
    },
    {
      "constant": true,
      "inputs": [],
      "name": "isOwner",
      "outputs": [
        {
          "name": "",
          "type": "bool"
        }
      ],
      "payable": false,
      "stateMutability": "view",
      "type": "function"
    },
    {
      "constant": false,
      "inputs": [
        {
          "name": "addAddress",
          "type": "address"
        }
      ],
      "name": "addOperator",
      "outputs": [],
      "payable": false,
      "stateMutability": "nonpayable",
      "type": "function"
    },
    {
      "constant": false,
      "inputs": [
        {
          "name": "removeAddress",
          "type": "address"
        }
      ],
      "name": "removeOperator",
      "outputs": [
        {
          "name": "",
          "type": "bool"
        }
      ],
      "payable": false,
      "stateMutability": "nonpayable",
      "type": "function"
    },
    {
      "constant": false,
      "inputs": [
        {
          "name": "index",
          "type": "uint256"
        },
        {
          "name": "addAddress",
          "type": "address"
        }
      ],
      "name": "setOperator",
      "outputs": [],
      "payable": false,
      "stateMutability": "nonpayable",
      "type": "function"
    },
    {
      "constant": true,
      "inputs": [],
      "name": "getOperator",
      "outputs": [
        {
          "name": "",
          "type": "address[]"
        }
      ],
      "payable": false,
      "stateMutability": "view",
      "type": "function"
    },
    {
      "constant": false,
      "inputs": [
        {
          "name": "newOwner",
          "type": "address"
        }
      ],
      "name": "transferOwnership",
      "outputs": [],
      "payable": false,
      "stateMutability": "nonpayable",
      "type": "function"
    },
    {
      "anonymous": false,
      "inputs": [
        {
          "indexed": true,
          "name": "previousOwner",
          "type": "address"
        },
        {
          "indexed": true,
          "name": "newOwner",
          "type": "address"
        }
      ],
      "name": "OwnershipTransferred",
      "type": "event"
    },
    {
      "constant": true,
      "inputs": [
        {
          "name": "asset",
          "type": "address"
        }
      ],
      "name": "getPrice",
      "outputs": [
        {
          "name": "",
          "type": "uint256"
        }
      ],
      "payable": false,
      "stateMutability": "view",
      "type": "function"
    },
    {
      "constant": true,
      "inputs": [
        {
          "name": "cToken",
          "type": "uint256"
        }
      ],
      "name": "getUnderlyingPrice",
      "outputs": [
        {
          "name": "",
          "type": "uint256"
        }
      ],
      "payable": false,
      "stateMutability": "view",
      "type": "function"
    },
    {
      "constant": true,
      "inputs": [
        {
          "name": "oToken",
          "type": "address"
        }
      ],
      "name": "getSellOptionsPrice",
      "outputs": [
        {
          "name": "",
          "type": "uint256"
        }
      ],
      "payable": false,
      "stateMutability": "view",
      "type": "function"
    },
    {
      "constant": true,
      "inputs": [
        {
          "name": "oToken",
          "type": "address"
        }
      ],
      "name": "getBuyOptionsPrice",
      "outputs": [
        {
          "name": "",
          "type": "uint256"
        }
      ],
      "payable": false,
      "stateMutability": "view",
      "type": "function"
    },
    {
      "constant": true,
      "inputs": [
        {
          "name": "account",
          "type": "address"
        }
      ],
      "name": "getEthBalance",
      "outputs": [
        {
          "name": "",
          "type": "uint256"
        }
      ],
      "payable": false,
      "stateMutability": "view",
      "type": "function"
    }
  ],
  "bytecode": "0x6080604081905260008054600160a060020a0319163317808255600160a060020a0316917f8be0079c531659141344cd1fd0a4f28419497f9722a3daafe3b4186f6b6457e0908290a36114dd806100576000396000f3006080604052600436106101055763ffffffff7c0100000000000000000000000000000000000000000000000000000000600035041662e4768b811461010a5780631410fa851461013057806341976e091461023057806349b7482b146102635780634d2301cc1461032a5780635fe1b4561461034b578063715018a61461036f57806383532667146103845780638618b1d81461039f578063861f4d19146103c05780638da5cb5b146103e45780638f32d59b146104155780639870d7fe1461043e578063ac8a584a1461045f578063cd75e52c14610480578063da663257146104a1578063e7a1c1c0146104b9578063e7f43c68146104dd578063f2fde38b14610542575b600080fd5b34801561011657600080fd5b5061012e600160a060020a0360043516602435610563565b005b34801561013c57600080fd5b506040805160206004803580820135838102808601850190965280855261012e95369593946024949385019291829185019084908082843750506040805187358901803560208181028481018201909552818452989b9a998901989297509082019550935083925085019084908082843750506040805187358901803560208181028481018201909552818452989b9a998901989297509082019550935083925085019084908082843750506040805187358901803560208181028481018201909552818452989b9a99890198929750908201955093508392508501908490808284375094975061060f9650505050505050565b34801561023c57600080fd5b50610251600160a060020a036004351661086a565b60408051918252519081900360200190f35b34801561026f57600080fd5b506040805160206004803580820135838102808601850190965280855261012e95369593946024949385019291829185019084908082843750506040805187358901803560208181028481018201909552818452989b9a998901989297509082019550935083925085019084908082843750506040805187358901803560208181028481018201909552818452989b9a9989019892975090820195509350839250850190849080828437509497506108959650505050505050565b34801561033657600080fd5b50610251600160a060020a0360043516610b07565b34801561035757600080fd5b5061012e600160a060020a0360043516602435610b14565b34801561037b57600080fd5b5061012e610bcb565b34801561039057600080fd5b5061012e600435602435610c6e565b3480156103ab57600080fd5b50610251600160a060020a0360043516610d68565b3480156103cc57600080fd5b5061012e600160a060020a0360043516602435610d91565b3480156103f057600080fd5b506103f9610e4b565b60408051600160a060020a039092168252519081900360200190f35b34801561042157600080fd5b5061042a610e5b565b604080519115158252519081900360200190f35b34801561044a57600080fd5b5061012e600160a060020a0360043516610e6c565b34801561046b57600080fd5b5061042a600160a060020a0360043516610ecc565b34801561048c57600080fd5b50610251600160a060020a0360043516610f31565b3480156104ad57600080fd5b50610251600435610f5a565b3480156104c557600080fd5b5061012e600435600160a060020a0360243516610f83565b3480156104e957600080fd5b506104f2611011565b60408051602080825283518183015283519192839290830191858101910280838360005b8381101561052e578181015183820152602001610516565b505050509050019250505060405180910390f35b34801561054e57600080fd5b5061012e600160a060020a0360043516611073565b6001546000908110801561059a5750600180543391908390811061058357fe5b600091825260209091200154600160a060020a0316145b15156105f2576040805160e560020a62461bcd02815260206004820152603060248201526000805160206114528339815191526044820152600080516020611492833981519152606482015290519081900360840190fd5b50600160a060020a03909116600090815260026020526040902055565b600080806001805490501180156106495750600180543391908390811061063257fe5b600091825260209091200154600160a060020a0316145b15156106a1576040805160e560020a62461bcd02815260206004820152603060248201526000805160206114528339815191526044820152600080516020611492833981519152606482015290519081900360840190fd5b8451865114610720576040805160e560020a62461bcd02815260206004820152603160248201527f61737365747320616e6420617373657450726963657320617265206e6f74206f60448201527f66207468652073616d65206c656e677468000000000000000000000000000000606482015290519081900360840190fd5b825184511461079f576040805160e560020a62461bcd02815260206004820152603360248201527f756e6465726c79696e677320616e6420756c50726963657320617265206e6f7460448201527f206f66207468652073616d65206c656e67746800000000000000000000000000606482015290519081900360840190fd5b600091505b85518210156108055784828151811015156107bb57fe5b906020019060200201516002600088858151811015156107d757fe5b6020908102909101810151600160a060020a03168252810191909152604001600020556001909101906107a4565b600091505b835182101561086257828281518110151561082157fe5b9060200190602002015160026000868581518110151561083d57fe5b602090810290910181015182528101919091526040016000205560019091019061080a565b505050505050565b600080610876836110c8565b905080156108865780915061088f565b64012a05f20091505b50919050565b600080600080806001805490501180156108d2575060018054339190839081106108bb57fe5b600091825260209091200154600160a060020a0316145b151561092a576040805160e560020a62461bcd02815260206004820152603060248201526000805160206114528339815191526044820152600080516020611492833981519152606482015290519081900360840190fd5b85518751146109a9576040805160e560020a62461bcd02815260206004820152603160248201527f6f70746f6b656e7320616e642062757950726963657320617265206e6f74206f60448201527f66207468652073616d65206c656e677468000000000000000000000000000000606482015290519081900360840190fd5b8451875114610a28576040805160e560020a62461bcd02815260206004820152603260248201527f6f70746f6b656e7320616e642053656c6c50726963657320617265206e6f742060448201527f6f66207468652073616d65206c656e6774680000000000000000000000000000606482015290519081900360840190fd5b600093505b8651841015610a93578684815181101515610a4457fe5b90602001906020020151600160a060020a0316600a0260010192508484815181101515610a6d57fe5b602090810290910181015160008581526002909252604090912055600190930192610a2d565b600093505b8651841015610afe578684815181101515610aaf57fe5b90602001906020020151600160a060020a0316600a0260020191508584815181101515610ad857fe5b602090810290910181015160008481526002909252604090912055600190930192610a98565b50505050505050565b600160a060020a03163190565b60008080600180549050118015610b4e57506001805433919083908110610b3757fe5b600091825260209091200154600160a060020a0316145b1515610ba6576040805160e560020a62461bcd02815260206004820152603060248201526000805160206114528339815191526044820152600080516020611492833981519152606482015290519081900360840190fd5b5050600160a060020a0391909116600a02600101600090815260026020526040902055565b610bd3610e5b565b1515610c17576040805160e560020a62461bcd0281526020600482018190526024820152600080516020611472833981519152604482015290519081900360640190fd5b60008054604051600160a060020a03909116907f8be0079c531659141344cd1fd0a4f28419497f9722a3daafe3b4186f6b6457e0908390a36000805473ffffffffffffffffffffffffffffffffffffffff19169055565b60015460009081108015610ca557506001805433919083908110610c8e57fe5b600091825260209091200154600160a060020a0316145b1515610cfd576040805160e560020a62461bcd02815260206004820152603060248201526000805160206114528339815191526044820152600080516020611492833981519152606482015290519081900360840190fd5b60008311610d55576040805160e560020a62461bcd02815260206004820152601960248201527f756e6465726c79696e672063616e6e6f74206265207a65726f00000000000000604482015290519081900360640190fd5b5060009182526002602052604090912055565b600080610d74836110dc565b90508015610d845780915061088f565b5064028fa6ae0092915050565b60008080600180549050118015610dcb57506001805433919083908110610db457fe5b600091825260209091200154600160a060020a0316145b1515610e23576040805160e560020a62461bcd02815260206004820152603060248201526000805160206114528339815191526044820152600080516020611492833981519152606482015290519081900360840190fd5b5050600160a060020a0391909116600a02600290810160009081526020919091526040902055565b600054600160a060020a03165b90565b600054600160a060020a0316331490565b610e74610e5b565b1515610eb8576040805160e560020a62461bcd0281526020600482018190526024820152600080516020611472833981519152604482015290519081900360640190fd5b610ec960018263ffffffff6110fe16565b50565b6000610ed6610e5b565b1515610f1a576040805160e560020a62461bcd0281526020600482018190526024820152600080516020611472833981519152604482015290519081900360640190fd5b610f2b60018363ffffffff6111a416565b92915050565b600080610f3d83611293565b90508015610f4d5780915061088f565b50640218711a0092915050565b600080610f66836112ae565b90508015610f765780915061088f565b5064d75e4be20092915050565b610f8b610e5b565b1515610fcf576040805160e560020a62461bcd0281526020600482018190526024820152600080516020611472833981519152604482015290519081900360640190fd5b80600183815481101515610fdf57fe5b9060005260206000200160006101000a815481600160a060020a030219169083600160a060020a031602179055505050565b6060600180548060200260200160405190810160405280929190818152602001828054801561106957602002820191906000526020600020905b8154600160a060020a0316815260019091019060200180831161104b575b5050505050905090565b61107b610e5b565b15156110bf576040805160e560020a62461bcd0281526020600482018190526024820152600080516020611472833981519152604482015290519081900360640190fd5b610ec9816112b9565b6000610f2b82600160a060020a03166113a7565b60006002600a600160a060020a03841602016110f7816113a7565b9392505050565b6111618280548060200260200160405190810160405280929190818152602001828054801561115657602002820191906000526020600020905b8154600160a060020a03168152600190910190602001808311611138575b5050505050826113b9565b15156111a057815460018101835560008381526020902001805473ffffffffffffffffffffffffffffffffffffffff1916600160a060020a0383161790555b5050565b8154600090815b818110156111f35783600160a060020a031685828154811015156111cb57fe5b600091825260209091200154600160a060020a031614156111eb576111f3565b6001016111ab565b81811015611286576000198201811461126c57846001830381548110151561121757fe5b6000918252602090912001548554600160a060020a039091169086908390811061123d57fe5b9060005260206000200160006101000a815481600160a060020a030219169083600160a060020a031602179055505b845461127c86600019830161140a565b506001925061128b565b600092505b505092915050565b60006001600a600160a060020a03841602016110f7816113a7565b6000610f2b826113a7565b600160a060020a038116151561133f576040805160e560020a62461bcd02815260206004820152602660248201527f4f776e61626c653a206e6577206f776e657220697320746865207a65726f206160448201527f6464726573730000000000000000000000000000000000000000000000000000606482015290519081900360840190fd5b60008054604051600160a060020a03808516939216917f8be0079c531659141344cd1fd0a4f28419497f9722a3daafe3b4186f6b6457e091a36000805473ffffffffffffffffffffffffffffffffffffffff1916600160a060020a0392909216919091179055565b60009081526002602052604090205490565b8151600090815b818110156112865783600160a060020a031685828151811015156113e057fe5b90602001906020020151600160a060020a03161415611402576001925061128b565b6001016113c0565b81548183558181111561142e5760008381526020902061142e918101908301611433565b505050565b610e5891905b8082111561144d5760008155600101611439565b509056004d616e6167657261626c653a2063616c6c6572206973206e6f742074686520654f776e61626c653a2063616c6c6572206973206e6f7420746865206f776e65726c696769626c65204f70657261746f7200000000000000000000000000000000a165627a7a7230582023d109a964bd4453400301116aaa5e101143dfbf5cc47d1c4452fb4628c01b150029",
  "source": "pragma solidity ^0.4.26;\r\nimport \"../FNXOracle.sol\";\r\n\r\ncontract TestFNXOracle is FNXOracle {\r\n    /**\r\n  * @notice retrieves price of an asset\r\n  * @dev function to get price for an asset\r\n  * @param asset Asset for which to get the price\r\n  * @return uint mantissa of asset price (scaled by 1e18) or zero if unset or contract paused\r\n  */\r\n    function getPrice(address asset) public view returns (uint){\r\n        uint256 price = FNXOracle.getPrice(asset);\r\n        if (price != 0) {\r\n            return price;\r\n        }\r\n        return 50*1e8;\r\n    }\r\n    function getUnderlyingPrice(uint256 cToken) public view returns (uint){\r\n        uint256 price = FNXOracle.getUnderlyingPrice(cToken);\r\n        if (price != 0) {\r\n            return price;\r\n        }\r\n        return 9250*1e8;\r\n    }\r\n\r\n    function getSellOptionsPrice(address oToken) public view returns (uint){\r\n        uint256 price = FNXOracle.getSellOptionsPrice(oToken);\r\n        if (price != 0) {\r\n            return price;\r\n        }\r\n        return 90*1e8;\r\n    }\r\n    function getBuyOptionsPrice(address oToken) public view returns (uint){\r\n        uint256 price = FNXOracle.getBuyOptionsPrice(oToken);\r\n        if (price != 0) {\r\n            return price;\r\n        }\r\n        return 110*1e8;\r\n    }\r\n    function getEthBalance(address account) public view returns (uint) {\r\n        return account.balance;\r\n    }\r\n}\r\n",
  "sourcePath": "C:\\work\\solidity\\FinnexusOptions_V2\\contracts\\test\\TestFNXOracle.sol",
  "compiler": {
    "name": "solc",
    "version": "0.4.26+commit.4563c3fc.Emscripten.clang"
  },
  "schemaVersion": "3.1.0",
  "updatedAt": "2020-08-14T00:48:40.301Z",
  "devdoc": {
    "methods": {
      "getPrice(address)": {
        "details": "function to get price for an asset\r",
        "params": {
          "asset": "Asset for which to get the price\r"
        },
        "return": "uint mantissa of asset price (scaled by 1e18) or zero if unset or contract paused\r"
      },
      "isOwner()": {
        "details": "Returns true if the caller is the current owner."
      },
      "owner()": {
        "details": "Returns the address of the current owner."
      },
      "renounceOwnership()": {
        "details": "Leaves the contract without owner. It will not be possible to call `onlyOwner` functions anymore. Can only be called by the current owner.     * NOTE: Renouncing ownership will leave the contract without an owner, thereby removing any functionality that is only available to the owner."
      },
      "setBuyOptionsPrice(address,uint256)": {
        "details": "function to set an options token buy price\r",
        "params": {
          "optoken": "options token for which to set the buy price\r",
          "price": "the options token buy price\r"
        }
      },
      "setOptionsBuyAndSellPrice(address[],uint256[],uint256[])": {
        "details": "function to set price of a group of option tokens buy and sell prices\r",
        "params": {
          "SellPrices": "a group of sell prices\r",
          "buyPrices": "a group of buy prices\r",
          "optokens": "a group of option tokens for which to set the buy and sell price\r"
        }
      },
      "setPrice(address,uint256)": {
        "details": "function to set price for an asset\r",
        "params": {
          "asset": "Asset for which to set the price\r",
          "price": "the Asset's price\r"
        }
      },
      "setPriceAndUnderlyingPrice(address[],uint256[],uint256[],uint256[])": {
        "details": "function to set a group of prices for assets and a group of prices for underlying\r",
        "params": {
          "assetPrices": "a set of the Asset's price\r",
          "assets": "a set of asset for which to set the price\r",
          "ulPrices": "a set of the underlyings's price\r",
          "underlyings": "a set of underlyings for which to set the price\r"
        }
      },
      "setSellOptionsPrice(address,uint256)": {
        "details": "function to set an options token sell price\r",
        "params": {
          "optoken": "options token for which to set the sell price\r",
          "price": "the options token sell price\r"
        }
      },
      "setUnderlyingPrice(uint256,uint256)": {
        "details": "function to set price for an underlying\r",
        "params": {
          "price": "the underlying's price\r",
          "underlying": "underlying for which to set the price\r"
        }
      },
      "transferOwnership(address)": {
        "details": "Transfers ownership of the contract to a new account (`newOwner`). Can only be called by the current owner."
      }
    }
  },
  "userdoc": {
    "methods": {
      "getPrice(address)": {
        "notice": "retrieves price of an asset\r"
      },
      "setBuyOptionsPrice(address,uint256)": {
        "notice": "set price of an options token buy price\r"
      },
      "setOptionsBuyAndSellPrice(address[],uint256[],uint256[])": {
        "notice": "set price of a group of option tokens buy and sell prices\r"
      },
      "setPrice(address,uint256)": {
        "notice": "set price of an asset\r"
      },
      "setPriceAndUnderlyingPrice(address[],uint256[],uint256[],uint256[])": {
        "notice": "set a group of prices for assets and a group of prices for underlying\r"
      },
      "setSellOptionsPrice(address,uint256)": {
        "notice": "set price of an options token sell price\r"
      },
      "setUnderlyingPrice(uint256,uint256)": {
        "notice": "set price of an underlying\r"
      }
    }
  }
}