{
  "contractName": "TestCompoundOracle",
  "abi": [
    {
      "constant": false,
      "inputs": [
        {
          "name": "asset",
          "type": "address"
        },
        {
          "name": "price",
          "type": "uint256"
        }
      ],
      "name": "setPrice",
      "outputs": [],
      "payable": false,
      "stateMutability": "nonpayable",
      "type": "function"
    },
    {
      "constant": false,
      "inputs": [
        {
          "name": "assets",
          "type": "address[]"
        },
        {
          "name": "assetPrices",
          "type": "uint256[]"
        },
        {
          "name": "underlyings",
          "type": "uint256[]"
        },
        {
          "name": "ulPrices",
          "type": "uint256[]"
        }
      ],
      "name": "setPriceAndUnderlyingPrice",
      "outputs": [],
      "payable": false,
      "stateMutability": "nonpayable",
      "type": "function"
    },
    {
      "constant": false,
      "inputs": [
        {
          "name": "optokens",
          "type": "address[]"
        },
        {
          "name": "buyPrices",
          "type": "uint256[]"
        },
        {
          "name": "SellPrices",
          "type": "uint256[]"
        }
      ],
      "name": "setOptionsBuyAndSellPrice",
      "outputs": [],
      "payable": false,
      "stateMutability": "nonpayable",
      "type": "function"
    },
    {
      "constant": true,
      "inputs": [],
      "name": "ValidUntil",
      "outputs": [
        {
          "name": "",
          "type": "uint256"
        }
      ],
      "payable": false,
      "stateMutability": "view",
      "type": "function"
    },
    {
      "constant": false,
      "inputs": [
        {
          "name": "optoken",
          "type": "address"
        },
        {
          "name": "price",
          "type": "uint256"
        }
      ],
      "name": "setSellOptionsPrice",
      "outputs": [],
      "payable": false,
      "stateMutability": "nonpayable",
      "type": "function"
    },
    {
      "constant": false,
      "inputs": [
        {
          "name": "timeLimit",
          "type": "uint256"
        }
      ],
      "name": "setValidUntil",
      "outputs": [],
      "payable": false,
      "stateMutability": "nonpayable",
      "type": "function"
    },
    {
      "constant": false,
      "inputs": [],
      "name": "renounceOwnership",
      "outputs": [],
      "payable": false,
      "stateMutability": "nonpayable",
      "type": "function"
    },
    {
      "constant": false,
      "inputs": [
        {
          "name": "underlying",
          "type": "uint256"
        },
        {
          "name": "price",
          "type": "uint256"
        }
      ],
      "name": "setUnderlyingPrice",
      "outputs": [],
      "payable": false,
      "stateMutability": "nonpayable",
      "type": "function"
    },
    {
      "constant": false,
      "inputs": [
        {
          "name": "optoken",
          "type": "address"
        },
        {
          "name": "price",
          "type": "uint256"
        }
      ],
      "name": "setBuyOptionsPrice",
      "outputs": [],
      "payable": false,
      "stateMutability": "nonpayable",
      "type": "function"
    },
    {
      "constant": true,
      "inputs": [],
      "name": "owner",
      "outputs": [
        {
          "name": "",
          "type": "address"
        }
      ],
      "payable": false,
      "stateMutability": "view",
      "type": "function"
    },
    {
      "constant": true,
      "inputs": [],
      "name": "isOwner",
      "outputs": [
        {
          "name": "",
          "type": "bool"
        }
      ],
      "payable": false,
      "stateMutability": "view",
      "type": "function"
    },
    {
      "constant": false,
      "inputs": [
        {
          "name": "newOwner",
          "type": "address"
        }
      ],
      "name": "transferOwnership",
      "outputs": [],
      "payable": false,
      "stateMutability": "nonpayable",
      "type": "function"
    },
    {
      "anonymous": false,
      "inputs": [
        {
          "indexed": true,
          "name": "previousOwner",
          "type": "address"
        },
        {
          "indexed": true,
          "name": "newOwner",
          "type": "address"
        }
      ],
      "name": "OwnershipTransferred",
      "type": "event"
    },
    {
      "constant": true,
      "inputs": [
        {
          "name": "asset",
          "type": "address"
        }
      ],
      "name": "getPrice",
      "outputs": [
        {
          "name": "",
          "type": "uint256"
        }
      ],
      "payable": false,
      "stateMutability": "view",
      "type": "function"
    },
    {
      "constant": true,
      "inputs": [
        {
          "name": "cToken",
          "type": "uint256"
        }
      ],
      "name": "getUnderlyingPrice",
      "outputs": [
        {
          "name": "",
          "type": "uint256"
        }
      ],
      "payable": false,
      "stateMutability": "view",
      "type": "function"
    },
    {
      "constant": true,
      "inputs": [
        {
          "name": "oToken",
          "type": "address"
        }
      ],
      "name": "getSellOptionsPrice",
      "outputs": [
        {
          "name": "",
          "type": "uint256"
        }
      ],
      "payable": false,
      "stateMutability": "view",
      "type": "function"
    },
    {
      "constant": true,
      "inputs": [
        {
          "name": "oToken",
          "type": "address"
        }
      ],
      "name": "getBuyOptionsPrice",
      "outputs": [
        {
          "name": "",
          "type": "uint256"
        }
      ],
      "payable": false,
      "stateMutability": "view",
      "type": "function"
    },
    {
      "constant": true,
      "inputs": [
        {
          "name": "account",
          "type": "address"
        }
      ],
      "name": "getEthBalance",
      "outputs": [
        {
          "name": "",
          "type": "uint256"
        }
      ],
      "payable": false,
      "stateMutability": "view",
      "type": "function"
    }
  ],
  "bytecode": "0x6080604081905261025860015560008054600160a060020a0319163317808255600160a060020a0316917f8be0079c531659141344cd1fd0a4f28419497f9722a3daafe3b4186f6b6457e0908290a3610ec28061005d6000396000f3006080604052600436106100ef5763ffffffff7c0100000000000000000000000000000000000000000000000000000000600035041662e4768b81146100f45780631410fa851461011a57806341976e091461021a57806349b7482b1461024d5780634af5b1e2146103145780634d2301cc146103295780635fe1b4561461034a578063634099cc1461036e578063715018a614610386578063835326671461039b5780638618b1d8146103b6578063861f4d19146103d75780638da5cb5b146103fb5780638f32d59b1461042c578063cd75e52c14610455578063da66325714610476578063f2fde38b1461048e575b600080fd5b34801561010057600080fd5b50610118600160a060020a03600435166024356104af565b005b34801561012657600080fd5b506040805160206004803580820135838102808601850190965280855261011895369593946024949385019291829185019084908082843750506040805187358901803560208181028481018201909552818452989b9a998901989297509082019550935083925085019084908082843750506040805187358901803560208181028481018201909552818452989b9a998901989297509082019550935083925085019084908082843750506040805187358901803560208181028481018201909552818452989b9a9989019892975090820195509350839250850190849080828437509497506105179650505050505050565b34801561022657600080fd5b5061023b600160a060020a0360043516610725565b60408051918252519081900360200190f35b34801561025957600080fd5b506040805160206004803580820135838102808601850190965280855261011895369593946024949385019291829185019084908082843750506040805187358901803560208181028481018201909552818452989b9a998901989297509082019550935083925085019084908082843750506040805187358901803560208181028481018201909552818452989b9a9989019892975090820195509350839250850190849080828437509497506107509650505050505050565b34801561032057600080fd5b5061023b61097d565b34801561033557600080fd5b5061023b600160a060020a0360043516610983565b34801561035657600080fd5b50610118600160a060020a0360043516602435610990565b34801561037a57600080fd5b50610118600435610a02565b34801561039257600080fd5b50610118610a53565b3480156103a757600080fd5b50610118600435602435610af6565b3480156103c257600080fd5b5061023b600160a060020a0360043516610bac565b3480156103e357600080fd5b50610118600160a060020a0360043516602435610bd5565b34801561040757600080fd5b50610410610c4a565b60408051600160a060020a039092168252519081900360200190f35b34801561043857600080fd5b50610441610c59565b604080519115158252519081900360200190f35b34801561046157600080fd5b5061023b600160a060020a0360043516610c6a565b34801561048257600080fd5b5061023b600435610c93565b34801561049a57600080fd5b50610118600160a060020a0360043516610cbc565b6104b7610c59565b15156104fb576040805160e560020a62461bcd0281526020600482018190526024820152600080516020610e77833981519152604482015290519081900360640190fd5b600160a060020a03909116600090815260026020526040902055565b6000610521610c59565b1515610565576040805160e560020a62461bcd0281526020600482018190526024820152600080516020610e77833981519152604482015290519081900360640190fd5b83518551146105e4576040805160e560020a62461bcd02815260206004820152603160248201527f61737365747320616e6420617373657450726963657320617265206e6f74206f60448201527f66207468652073616d65206c656e677468000000000000000000000000000000606482015290519081900360840190fd5b8151835114610663576040805160e560020a62461bcd02815260206004820152603360248201527f756e6465726c79696e677320616e6420756c50726963657320617265206e6f7460448201527f206f66207468652073616d65206c656e67746800000000000000000000000000606482015290519081900360840190fd5b5060005b84518110156106c557838181518110151561067e57fe5b9060200190602002015160026000878481518110151561069a57fe5b6020908102909101810151600160a060020a0316825281019190915260400160002055600101610667565b5060005b825181101561071e5781818151811015156106e057fe5b906020019060200201516002600085848151811015156106fc57fe5b60209081029091018101518252810191909152604001600020556001016106c9565b5050505050565b60008061073183610d14565b905080156107415780915061074a565b64012a05f20091505b50919050565b600080600061075d610c59565b15156107a1576040805160e560020a62461bcd0281526020600482018190526024820152600080516020610e77833981519152604482015290519081900360640190fd5b8451865114610820576040805160e560020a62461bcd02815260206004820152603160248201527f6f70746f6b656e7320616e642062757950726963657320617265206e6f74206f60448201527f66207468652073616d65206c656e677468000000000000000000000000000000606482015290519081900360840190fd5b835186511461089f576040805160e560020a62461bcd02815260206004820152603260248201527f6f70746f6b656e7320616e642053656c6c50726963657320617265206e6f742060448201527f6f66207468652073616d65206c656e6774680000000000000000000000000000606482015290519081900360840190fd5b600092505b855183101561090a5785838151811015156108bb57fe5b90602001906020020151600160a060020a0316600a02600101915083838151811015156108e457fe5b6020908102909101810151600084815260029092526040909120556001909201916108a4565b600092505b855183101561097557858381518110151561092657fe5b90602001906020020151600160a060020a0316600a026002019050848381518110151561094f57fe5b60209081029091018101516000838152600290925260409091205560019092019161090f565b505050505050565b60015481565b600160a060020a03163190565b600061099a610c59565b15156109de576040805160e560020a62461bcd0281526020600482018190526024820152600080516020610e77833981519152604482015290519081900360640190fd5b50600160a060020a0391909116600a02600101600090815260026020526040902055565b610a0a610c59565b1515610a4e576040805160e560020a62461bcd0281526020600482018190526024820152600080516020610e77833981519152604482015290519081900360640190fd5b600155565b610a5b610c59565b1515610a9f576040805160e560020a62461bcd0281526020600482018190526024820152600080516020610e77833981519152604482015290519081900360640190fd5b60008054604051600160a060020a03909116907f8be0079c531659141344cd1fd0a4f28419497f9722a3daafe3b4186f6b6457e0908390a36000805473ffffffffffffffffffffffffffffffffffffffff19169055565b610afe610c59565b1515610b42576040805160e560020a62461bcd0281526020600482018190526024820152600080516020610e77833981519152604482015290519081900360640190fd5b60008211610b9a576040805160e560020a62461bcd02815260206004820152601960248201527f756e6465726c79696e672063616e6e6f74206265207a65726f00000000000000604482015290519081900360640190fd5b60009182526002602052604090912055565b600080610bb883610d2e565b90508015610bc85780915061074a565b5064028fa6ae0092915050565b6000610bdf610c59565b1515610c23576040805160e560020a62461bcd0281526020600482018190526024820152600080516020610e77833981519152604482015290519081900360640190fd5b50600160a060020a0391909116600a02600290810160009081526020919091526040902055565b600054600160a060020a031690565b600054600160a060020a0316331490565b600080610c7683610d50565b90508015610c865780915061074a565b50640218711a0092915050565b600080610c9f83610d6b565b90508015610caf5780915061074a565b5064d75e4be20092915050565b610cc4610c59565b1515610d08576040805160e560020a62461bcd0281526020600482018190526024820152600080516020610e77833981519152604482015290519081900360640190fd5b610d1181610d76565b50565b6000610d2882600160a060020a0316610e64565b92915050565b60006002600a600160a060020a0384160201610d4981610e64565b9392505050565b60006001600a600160a060020a0384160201610d4981610e64565b6000610d2882610e64565b600160a060020a0381161515610dfc576040805160e560020a62461bcd02815260206004820152602660248201527f4f776e61626c653a206e6577206f776e657220697320746865207a65726f206160448201527f6464726573730000000000000000000000000000000000000000000000000000606482015290519081900360840190fd5b60008054604051600160a060020a03808516939216917f8be0079c531659141344cd1fd0a4f28419497f9722a3daafe3b4186f6b6457e091a36000805473ffffffffffffffffffffffffffffffffffffffff1916600160a060020a0392909216919091179055565b6000908152600260205260409020549056004f776e61626c653a2063616c6c6572206973206e6f7420746865206f776e6572a165627a7a7230582016b9b4ba4e8dba104e2037e997b4a3b8b37e04d0cc69fb0c8186581fe037b4600029",
  "source": "pragma solidity ^0.4.26;\r\nimport \"../CompoundOracle.sol\";\r\n\r\ncontract TestCompoundOracle is CompoundOracle {\r\n    /**\r\n  * @notice retrieves price of an asset\r\n  * @dev function to get price for an asset\r\n  * @param asset Asset for which to get the price\r\n  * @return uint mantissa of asset price (scaled by 1e18) or zero if unset or contract paused\r\n  */\r\n    function getPrice(address asset) public view returns (uint){\r\n        uint256 price = CompoundOracle.getPrice(asset);\r\n        if (price != 0) {\r\n            return price;\r\n        }\r\n        return 50*1e8;\r\n    }\r\n    function getUnderlyingPrice(uint256 cToken) public view returns (uint){\r\n        uint256 price = CompoundOracle.getUnderlyingPrice(cToken);\r\n        if (price != 0) {\r\n            return price;\r\n        }\r\n        return 9250*1e8;\r\n    }\r\n\r\n    function getSellOptionsPrice(address oToken) public view returns (uint){\r\n        uint256 price = CompoundOracle.getSellOptionsPrice(oToken);\r\n        if (price != 0) {\r\n            return price;\r\n        }\r\n        return 90*1e8;\r\n    }\r\n    function getBuyOptionsPrice(address oToken) public view returns (uint){\r\n        uint256 price = CompoundOracle.getBuyOptionsPrice(oToken);\r\n        if (price != 0) {\r\n            return price;\r\n        }\r\n        return 110*1e8;\r\n    }\r\n    function getEthBalance(address account) public view returns (uint) {\r\n        return account.balance;\r\n    }\r\n}\r\n",
  "sourcePath": "C:\\work\\solidity\\FinnexusOptions_V2\\contracts\\test\\TestCompoundOracle.sol",
  "compiler": {
    "name": "solc",
    "version": "0.4.26+commit.4563c3fc.Emscripten.clang"
  },
  "schemaVersion": "3.1.0",
  "updatedAt": "2020-07-26T08:29:08.567Z",
  "devdoc": {
    "methods": {
      "getPrice(address)": {
        "details": "function to get price for an asset\r",
        "params": {
          "asset": "Asset for which to get the price\r"
        },
        "return": "uint mantissa of asset price (scaled by 1e18) or zero if unset or contract paused\r"
      },
      "isOwner()": {
        "details": "Returns true if the caller is the current owner."
      },
      "owner()": {
        "details": "Returns the address of the current owner."
      },
      "renounceOwnership()": {
        "details": "Leaves the contract without owner. It will not be possible to call `onlyOwner` functions anymore. Can only be called by the current owner.     * NOTE: Renouncing ownership will leave the contract without an owner, thereby removing any functionality that is only available to the owner."
      },
      "setBuyOptionsPrice(address,uint256)": {
        "details": "function to set an options token buy price\r",
        "params": {
          "optoken": "options token for which to set the buy price\r",
          "price": "the options token buy price\r"
        }
      },
      "setOptionsBuyAndSellPrice(address[],uint256[],uint256[])": {
        "details": "function to set price of a group of option tokens buy and sell prices\r",
        "params": {
          "SellPrices": "a group of sell prices\r",
          "buyPrices": "a group of buy prices\r",
          "optokens": "a group of option tokens for which to set the buy and sell price\r"
        }
      },
      "setPrice(address,uint256)": {
        "details": "function to set price for an asset\r",
        "params": {
          "asset": "Asset for which to set the price\r",
          "price": "the Asset's price\r"
        }
      },
      "setPriceAndUnderlyingPrice(address[],uint256[],uint256[],uint256[])": {
        "details": "function to set a group of prices for assets and a group of prices for underlying\r",
        "params": {
          "assetPrices": "a set of the Asset's price\r",
          "assets": "a set of asset for which to set the price\r",
          "ulPrices": "a set of the underlyings's price\r",
          "underlyings": "a set of underlyings for which to set the price\r"
        }
      },
      "setSellOptionsPrice(address,uint256)": {
        "details": "function to set an options token sell price\r",
        "params": {
          "optoken": "options token for which to set the sell price\r",
          "price": "the options token sell price\r"
        }
      },
      "setUnderlyingPrice(uint256,uint256)": {
        "details": "function to set price for an underlying\r",
        "params": {
          "price": "the underlying's price\r",
          "underlying": "underlying for which to set the price\r"
        }
      },
      "transferOwnership(address)": {
        "details": "Transfers ownership of the contract to a new account (`newOwner`). Can only be called by the current owner."
      }
    }
  },
  "userdoc": {
    "methods": {
      "getPrice(address)": {
        "notice": "retrieves price of an asset\r"
      },
      "setBuyOptionsPrice(address,uint256)": {
        "notice": "set price of an options token buy price\r"
      },
      "setOptionsBuyAndSellPrice(address[],uint256[],uint256[])": {
        "notice": "set price of a group of option tokens buy and sell prices\r"
      },
      "setPrice(address,uint256)": {
        "notice": "set price of an asset\r"
      },
      "setPriceAndUnderlyingPrice(address[],uint256[],uint256[],uint256[])": {
        "notice": "set a group of prices for assets and a group of prices for underlying\r"
      },
      "setSellOptionsPrice(address,uint256)": {
        "notice": "set price of an options token sell price\r"
      },
      "setUnderlyingPrice(uint256,uint256)": {
        "notice": "set price of an underlying\r"
      }
    }
  }
}