{
  "contractName": "testSmallNumbers",
  "abi": [
    {
      "anonymous": false,
      "inputs": [
        {
          "indexed": true,
          "internalType": "address",
          "name": "sender",
          "type": "address"
        },
        {
          "indexed": false,
          "internalType": "uint256",
          "name": "_test1",
          "type": "uint256"
        },
        {
          "indexed": false,
          "internalType": "int256",
          "name": "_test2",
          "type": "int256"
        }
      ],
      "name": "DebugEvent",
      "type": "event"
    },
    {
      "constant": false,
      "inputs": [
        {
          "internalType": "int256",
          "name": "value",
          "type": "int256"
        }
      ],
      "name": "testExp",
      "outputs": [],
      "payable": false,
      "stateMutability": "nonpayable",
      "type": "function"
    },
    {
      "constant": true,
      "inputs": [
        {
          "internalType": "int256",
          "name": "value",
          "type": "int256"
        }
      ],
      "name": "testNormSDist",
      "outputs": [
        {
          "internalType": "int256",
          "name": "",
          "type": "int256"
        }
      ],
      "payable": false,
      "stateMutability": "view",
      "type": "function"
    }
  ],
  "bytecode": "0x608060405234801561001057600080fd5b50610850806100206000396000f3fe608060405234801561001057600080fd5b5060043610610052577c010000000000000000000000000000000000000000000000000000000060003504631a05aedd811461005757806370bac00014610076575b600080fd5b6100746004803603602081101561006d57600080fd5b50356100a5565b005b6100936004803603602081101561008c57600080fd5b50356100f5565b60408051918252519081900360200190f35b6100ae81610108565b6000819055600154604080519283526020830191909152805133927f48547883105725366e882a0f5396c7c796c69b797dc97932d10eda49c0ba588192908290030190a250565b600061010082610150565b90505b919050565b6000808212801561011a578260000392505b600061012584610297565b905081156101495780680100000000000000008161013f57fe5b0492505050610103565b9392505050565b60008082128015610162578260000392505b64060000000083131561018a578061017f57640100000000610182565b60005b915050610103565b633b4ce23160006401000000008583028281128303908118829004180168010000000000000000816101b857fe5b0590506402000000008580020594506101d085610297565b67662114cf00000000816101e057fe5b6801000000000000000060006401548cdd6f640100000000868002838112840390811882900418808802848112850390811883900418808902858112860390811884900418808a028681128703908118949094049093189384026401d23dd4ee199093026401c80ef026909102635b47c396199092026351c2fcea8a020191909101010194909304840281811290910390811891909104189650908461028c5764010000000096909603955b509495945050505050565b600064386bfdba2982111561030d57604080517f08c379a000000000000000000000000000000000000000000000000000000000815260206004820152601e60248201527f6578702066756e6374696f6e20696e707574206973206f766572666c6f770000604482015290519081900360640190fd5b61010082600080602060ff1660019060020a0290506000816fde1bc4d19efcac82445da75b00000000029050602060ff16848302908060020a82049150509150816fde1bc4d19efcb00000000000000000000281019050602060ff16848302908060020a82049150509150816f6f0de268cf7e580000000000000000000281019050602060ff16848302908060020a82049150509150816f2504a0cd9a7f720000000000000000000281019050602060ff16848302908060020a82049150509150816f09412833669fdc8000000000000000000281019050602060ff16848302908060020a82049150509150816f01d9d4d714865f5000000000000000000281019050602060ff16848302908060020a82049150509150816e4ef8ce836bba8c00000000000000000281019050602060ff16848302908060020a82049150509150816e0b481d807d1aa680000000000000000281019050602060ff16848302908060020a82049150509150816e016903b00fa354d0000000000000000281019050602060ff16848302908060020a82049150509150816d281cdaac677b34000000000000000281019050602060ff16848302908060020a82049150509150816d0402e2aad725eb800000000000000281019050602060ff16848302908060020a82049150509150816c5d5a6c9f31fe240000000000000281019050602060ff16848302908060020a82049150509150816c07c7890d442a830000000000000281019050602060ff16848302908060020a82049150509150816b9931ed5403452800000000000281019050602060ff16848302908060020a82049150509150816b0af147cf24ce1500000000000281019050602060ff16848302908060020a82049150509150816abac08546b867d0000000000281019050602060ff16848302908060020a82049150509150816a0bac08546b867d000000000281019050602060ff16848302908060020a820491505091508169afc441338061b80000000281019050602060ff16848302908060020a82049150509150816909c3cabbc0056e0000000281019050602060ff16848302908060020a820491505091508168839168328705c800000281019050602060ff16848302908060020a8204915050915081680694120286c04a00000281019050602060ff16848302908060020a82049150509150816750319e98b3d2c4000281019050602060ff16848302908060020a82049150509150816703a52a1e36b820200281019050602060ff16848302908060020a820491505091508166289286e0fce0020281019050602060ff16848302908060020a82049150509150816601b0c59eb534000281019050602060ff16848302908060020a820491505091508165114f95b554000281019050602060ff16848302908060020a820491505091508164aa7210d2000281019050602060ff16848302908060020a82049150509150816406501396000281019050602060ff16848302908060020a82049150509150816339b78e800281019050602060ff16848302908060020a82049150509150816301fd80800281019050602060ff16848302908060020a82049150509150816210fbc00281019050602060ff16848302908060020a8204915050915081618c400281019050602060ff16848302908060020a82049150509150816104620281019050602060ff16848302908060020a8204915050915081602202810190506fde1bc4d19efcac82445da75b00000000818161081257fe5b0494935050505056fea265627a7a723158208a64462dd2744358e584328ed1084b1a782cd28fa9d5bfebed973e428c8377d564736f6c63430005100032",
  "source": "pragma solidity =0.5.16;\r\nimport \"../modules/SmallNumbers.sol\";\r\n\r\ncontract testSmallNumbers {\r\n    uint256 private test1;\r\n    int256 private test2;\r\n    event DebugEvent(address indexed sender,uint256 _test1,int256 _test2);\r\n    function testExp(int256 value) public{\r\n        test1 = SmallNumbers.exp(value);\r\n        emit DebugEvent(msg.sender,test1,test2);\r\n    } \r\n    function testNormSDist(int256 value) public view returns (int256){\r\n        return SmallNumbers.normsDist(value);\r\n    } \r\n}",
  "sourcePath": "C:\\work\\solidity\\FinnexusOptions_V2\\contracts\\test\\testSmallNumbers.sol",
  "compiler": {
    "name": "solc",
    "version": "0.5.16+commit.9c3226ce.Emscripten.clang"
  },
  "schemaVersion": "3.1.0",
  "updatedAt": "2020-10-21T03:26:50.757Z",
  "devdoc": {
    "methods": {}
  },
  "userdoc": {
    "methods": {}
  }
}