{
  "contractName": "UnderlyingAssets",
  "abi": [
    {
      "constant": false,
      "inputs": [],
      "name": "renounceOwnership",
      "outputs": [],
      "payable": false,
      "stateMutability": "nonpayable",
      "type": "function"
    },
    {
      "constant": true,
      "inputs": [],
      "name": "owner",
      "outputs": [
        {
          "name": "",
          "type": "address"
        }
      ],
      "payable": false,
      "stateMutability": "view",
      "type": "function"
    },
    {
      "constant": true,
      "inputs": [],
      "name": "isOwner",
      "outputs": [
        {
          "name": "",
          "type": "bool"
        }
      ],
      "payable": false,
      "stateMutability": "view",
      "type": "function"
    },
    {
      "constant": false,
      "inputs": [
        {
          "name": "newOwner",
          "type": "address"
        }
      ],
      "name": "transferOwnership",
      "outputs": [],
      "payable": false,
      "stateMutability": "nonpayable",
      "type": "function"
    },
    {
      "anonymous": false,
      "inputs": [
        {
          "indexed": true,
          "name": "previousOwner",
          "type": "address"
        },
        {
          "indexed": true,
          "name": "newOwner",
          "type": "address"
        }
      ],
      "name": "OwnershipTransferred",
      "type": "event"
    },
    {
      "constant": false,
      "inputs": [
        {
          "name": "underlying",
          "type": "uint32"
        }
      ],
      "name": "addUnderlyingAsset",
      "outputs": [],
      "payable": false,
      "stateMutability": "nonpayable",
      "type": "function"
    },
    {
      "constant": false,
      "inputs": [
        {
          "name": "removeUnderlying",
          "type": "uint32"
        }
      ],
      "name": "removeUnderlyingAssets",
      "outputs": [
        {
          "name": "",
          "type": "bool"
        }
      ],
      "payable": false,
      "stateMutability": "nonpayable",
      "type": "function"
    },
    {
      "constant": true,
      "inputs": [],
      "name": "getUnderlyingAssets",
      "outputs": [
        {
          "name": "",
          "type": "uint32[]"
        }
      ],
      "payable": false,
      "stateMutability": "view",
      "type": "function"
    },
    {
      "constant": true,
      "inputs": [
        {
          "name": "underlying",
          "type": "uint32"
        }
      ],
      "name": "isEligibleUnderlyingAsset",
      "outputs": [
        {
          "name": "",
          "type": "bool"
        }
      ],
      "payable": false,
      "stateMutability": "view",
      "type": "function"
    },
    {
      "constant": true,
      "inputs": [
        {
          "name": "underlying",
          "type": "uint32"
        }
      ],
      "name": "checkUnderlyingAsset",
      "outputs": [],
      "payable": false,
      "stateMutability": "view",
      "type": "function"
    }
  ],
  "bytecode": "0x6080604081905260008054600160a060020a0319163317808255600160a060020a0316917f8be0079c531659141344cd1fd0a4f28419497f9722a3daafe3b4186f6b6457e0908290a36109a2806100576000396000f3006080604052600436106100985763ffffffff7c01000000000000000000000000000000000000000000000000000000006000350416633582d789811461009d578063715018a6146101025780638da5cb5b146101195780638f32d59b1461014a578063afec82fc14610173578063d6d1401214610191578063db6ad2bd146101af578063ee29c94a146101cd578063f2fde38b146101eb575b600080fd5b3480156100a957600080fd5b506100b261020c565b60408051602080825283518183015283519192839290830191858101910280838360005b838110156100ee5781810151838201526020016100d6565b505050509050019250505060405180910390f35b34801561010e57600080fd5b50610117610291565b005b34801561012557600080fd5b5061012e610334565b60408051600160a060020a039092168252519081900360200190f35b34801561015657600080fd5b5061015f610343565b604080519115158252519081900360200190f35b34801561017f57600080fd5b5061011763ffffffff60043516610354565b34801561019d57600080fd5b5061015f63ffffffff600435166103b4565b3480156101bb57600080fd5b5061015f63ffffffff60043516610419565b3480156101d957600080fd5b5061011763ffffffff600435166104aa565b3480156101f757600080fd5b50610117600160a060020a0360043516610539565b6060600180548060200260200160405190810160405280929190818152602001828054801561028657602002820191906000526020600020906000905b82829054906101000a900463ffffffff1663ffffffff16815260200190600401906020826003010492830192600103820291508084116102495790505b505050505090505b90565b610299610343565b15156102dd576040805160e560020a62461bcd0281526020600482018190526024820152600080516020610957833981519152604482015290519081900360640190fd5b60008054604051600160a060020a03909116907f8be0079c531659141344cd1fd0a4f28419497f9722a3daafe3b4186f6b6457e0908390a36000805473ffffffffffffffffffffffffffffffffffffffff19169055565b600054600160a060020a031690565b600054600160a060020a0316331490565b61035c610343565b15156103a0576040805160e560020a62461bcd0281526020600482018190526024820152600080516020610957833981519152604482015290519081900360640190fd5b6103b160018263ffffffff61058e16565b50565b60006103be610343565b1515610402576040805160e560020a62461bcd0281526020600482018190526024820152600080516020610957833981519152604482015290519081900360640190fd5b61041360018363ffffffff61065816565b92915050565b600061041382600180548060200260200160405190810160405280929190818152602001828054801561049757602002820191906000526020600020906000905b82829054906101000a900463ffffffff1663ffffffff168152602001906004019060208260030104928301926001038202915080841161045a5790505b505050505061076690919063ffffffff16565b6103b181600180548060200260200160405190810160405280929190818152602001828054801561052657602002820191906000526020600020906000905b82829054906101000a900463ffffffff1663ffffffff16815260200190600401906020826003010492830192600103820291508084116104e95790505b50505050506107b190919063ffffffff16565b610541610343565b1515610585576040805160e560020a62461bcd0281526020600482018190526024820152600080516020610957833981519152604482015290519081900360640190fd5b6103b181610811565b6106138280548060200260200160405190810160405280929190818152602001828054801561060857602002820191906000526020600020906000905b82829054906101000a900463ffffffff1663ffffffff16815260200190600401906020826003010492830192600103820291508084116105cb5790505b505050505082610766565b15156106545781546001810183556000838152602090206008820401805460079092166004026101000a63ffffffff81810219909316928416029190911790555b5050565b8154600090815b818110156106b3578363ffffffff16858281548110151561067c57fe5b6000918252602090912060088204015460079091166004026101000a900463ffffffff1614156106ab576106b3565b60010161065f565b81811015610759576000198201811461073f5784600183038154811015156106d757fe5b90600052602060002090600891828204019190066004029054906101000a900463ffffffff16858281548110151561070b57fe5b90600052602060002090600891828204019190066004026101000a81548163ffffffff021916908363ffffffff1602179055505b845461074f8660001983016108ff565b506001925061075e565b600092505b505092915050565b8151600090815b81811015610759578363ffffffff16858281518110151561078a57fe5b9060200190602002015163ffffffff1614156107a9576001925061075e565b60010161076d565b6107bb8282610766565b1515610654576040805160e560020a62461bcd02815260206004820152601f60248201527f77686974654c6973743a207573696e6720696e76616c69642075696e74333200604482015290519081900360640190fd5b600160a060020a0381161515610897576040805160e560020a62461bcd02815260206004820152602660248201527f4f776e61626c653a206e6577206f776e657220697320746865207a65726f206160448201527f6464726573730000000000000000000000000000000000000000000000000000606482015290519081900360840190fd5b60008054604051600160a060020a03808516939216917f8be0079c531659141344cd1fd0a4f28419497f9722a3daafe3b4186f6b6457e091a36000805473ffffffffffffffffffffffffffffffffffffffff1916600160a060020a0392909216919091179055565b8154818355818111156109335760070160089004816007016008900483600052602060002091820191016109339190610938565b505050565b61028e91905b80821115610952576000815560010161093e565b509056004f776e61626c653a2063616c6c6572206973206e6f7420746865206f776e6572a165627a7a72305820fcad1bd3f9a3156235d92f9c7016a0a2e80f137be1e9ccff9962276e4df8939c0029",
  "source": "pragma solidity ^0.4.26;\r\nimport './Ownable.sol';\r\nimport \"./whiteList.sol\";\r\n    /**\r\n     * @dev Implementation of a underlyingAssets filters a eligible underlying.\r\n     */\r\ncontract UnderlyingAssets is Ownable {\r\n    using whiteListUint32 for uint32[];\r\n    // The eligible underlying list\r\n    uint32[] internal underlyingAssets;\r\n    /**\r\n     * @dev Implementation of add an eligible underlying into the underlyingAssets.\r\n     * @param underlying new eligible underlying.\r\n     */\r\n    function addUnderlyingAsset(uint32 underlying)public onlyOwner{\r\n        underlyingAssets.addWhiteListUint32(underlying);\r\n    }\r\n    /**\r\n     * @dev Implementation of revoke an invalid underlying from the underlyingAssets.\r\n     * @param removeUnderlying revoked underlying.\r\n     */\r\n    function removeUnderlyingAssets(uint32 removeUnderlying)public onlyOwner returns(bool) {\r\n        return underlyingAssets.removeWhiteListUint32(removeUnderlying);\r\n    }\r\n    /**\r\n     * @dev Implementation of getting the eligible underlyingAssets.\r\n     */\r\n    function getUnderlyingAssets()public view returns (uint32[]){\r\n        return underlyingAssets;\r\n    }\r\n    /**\r\n     * @dev Implementation of testing whether the input underlying is eligible.\r\n     * @param underlying input underlying for testing.\r\n     */    \r\n    function isEligibleUnderlyingAsset(uint32 underlying) public view returns (bool){\r\n        return underlyingAssets.isEligibleUint32(underlying);\r\n    }\r\n    function checkUnderlyingAsset(uint32 underlying) public view{\r\n        return underlyingAssets.checkEligibleUint32(underlying);\r\n    }\r\n    function _getEligibleUnderlyingIndex(uint32 underlying) internal view returns (uint256){\r\n        return underlyingAssets._getEligibleIndexUint32(underlying);\r\n    }\r\n}",
  "sourcePath": "C:\\work\\solidity\\FinnexusOptions_V2\\contracts\\modules\\underlyingAssets.sol",
  "compiler": {
    "name": "solc",
    "version": "0.4.26+commit.4563c3fc.Emscripten.clang"
  },
  "schemaVersion": "3.1.0",
  "updatedAt": "2020-08-14T00:48:40.249Z",
  "devdoc": {
    "methods": {
      "addUnderlyingAsset(uint32)": {
        "details": "Implementation of add an eligible underlying into the underlyingAssets.\r",
        "params": {
          "underlying": "new eligible underlying.\r"
        }
      },
      "getUnderlyingAssets()": {
        "details": "Implementation of getting the eligible underlyingAssets.\r"
      },
      "isEligibleUnderlyingAsset(uint32)": {
        "details": "Implementation of testing whether the input underlying is eligible.\r",
        "params": {
          "underlying": "input underlying for testing.\r"
        }
      },
      "isOwner()": {
        "details": "Returns true if the caller is the current owner."
      },
      "owner()": {
        "details": "Returns the address of the current owner."
      },
      "removeUnderlyingAssets(uint32)": {
        "details": "Implementation of revoke an invalid underlying from the underlyingAssets.\r",
        "params": {
          "removeUnderlying": "revoked underlying.\r"
        }
      },
      "renounceOwnership()": {
        "details": "Leaves the contract without owner. It will not be possible to call `onlyOwner` functions anymore. Can only be called by the current owner.     * NOTE: Renouncing ownership will leave the contract without an owner, thereby removing any functionality that is only available to the owner."
      },
      "transferOwnership(address)": {
        "details": "Transfers ownership of the contract to a new account (`newOwner`). Can only be called by the current owner."
      }
    }
  },
  "userdoc": {
    "methods": {}
  }
}