{
  "contractName": "UnderlyingAssets",
  "abi": [
    {
      "constant": true,
      "inputs": [
        {
          "name": "",
          "type": "uint256"
        }
      ],
      "name": "underlyingAssets",
      "outputs": [
        {
          "name": "",
          "type": "uint32"
        }
      ],
      "payable": false,
      "stateMutability": "view",
      "type": "function"
    },
    {
      "constant": false,
      "inputs": [],
      "name": "renounceOwnership",
      "outputs": [],
      "payable": false,
      "stateMutability": "nonpayable",
      "type": "function"
    },
    {
      "constant": true,
      "inputs": [],
      "name": "owner",
      "outputs": [
        {
          "name": "",
          "type": "address"
        }
      ],
      "payable": false,
      "stateMutability": "view",
      "type": "function"
    },
    {
      "constant": true,
      "inputs": [],
      "name": "isOwner",
      "outputs": [
        {
          "name": "",
          "type": "bool"
        }
      ],
      "payable": false,
      "stateMutability": "view",
      "type": "function"
    },
    {
      "constant": false,
      "inputs": [
        {
          "name": "newOwner",
          "type": "address"
        }
      ],
      "name": "transferOwnership",
      "outputs": [],
      "payable": false,
      "stateMutability": "nonpayable",
      "type": "function"
    },
    {
      "anonymous": false,
      "inputs": [
        {
          "indexed": true,
          "name": "previousOwner",
          "type": "address"
        },
        {
          "indexed": true,
          "name": "newOwner",
          "type": "address"
        }
      ],
      "name": "OwnershipTransferred",
      "type": "event"
    },
    {
      "constant": false,
      "inputs": [
        {
          "name": "underlying",
          "type": "uint32"
        }
      ],
      "name": "addUnderlyingAsset",
      "outputs": [],
      "payable": false,
      "stateMutability": "nonpayable",
      "type": "function"
    },
    {
      "constant": false,
      "inputs": [
        {
          "name": "removeUnderlying",
          "type": "uint32"
        }
      ],
      "name": "removeUnderlyingAssets",
      "outputs": [
        {
          "name": "",
          "type": "bool"
        }
      ],
      "payable": false,
      "stateMutability": "nonpayable",
      "type": "function"
    },
    {
      "constant": true,
      "inputs": [],
      "name": "getUnderlyingAssets",
      "outputs": [
        {
          "name": "",
          "type": "uint32[]"
        }
      ],
      "payable": false,
      "stateMutability": "view",
      "type": "function"
    },
    {
      "constant": true,
      "inputs": [
        {
          "name": "underlying",
          "type": "uint32"
        }
      ],
      "name": "isEligibleUnderlyingAsset",
      "outputs": [
        {
          "name": "",
          "type": "bool"
        }
      ],
      "payable": false,
      "stateMutability": "view",
      "type": "function"
    },
    {
      "constant": true,
      "inputs": [
        {
          "name": "underlying",
          "type": "uint32"
        }
      ],
      "name": "checkUnderlyingAsset",
      "outputs": [],
      "payable": false,
      "stateMutability": "view",
      "type": "function"
    }
  ],
  "bytecode": "0x6080604081905260008054600160a060020a0319163317808255600160a060020a0316917f8be0079c531659141344cd1fd0a4f28419497f9722a3daafe3b4186f6b6457e0908290a36109f8806100576000396000f3006080604052600436106100a35763ffffffff7c01000000000000000000000000000000000000000000000000000000006000350416633582d78981146100a85780633b50c4d11461010d578063715018a61461013e5780638da5cb5b146101555780638f32d59b14610186578063afec82fc146101af578063d6d14012146101cd578063db6ad2bd146101eb578063ee29c94a14610209578063f2fde38b14610227575b600080fd5b3480156100b457600080fd5b506100bd610248565b60408051602080825283518183015283519192839290830191858101910280838360005b838110156100f95781810151838201526020016100e1565b505050509050019250505060405180910390f35b34801561011957600080fd5b506101256004356102cd565b6040805163ffffffff9092168252519081900360200190f35b34801561014a57600080fd5b50610153610305565b005b34801561016157600080fd5b5061016a6103a8565b60408051600160a060020a039092168252519081900360200190f35b34801561019257600080fd5b5061019b6103b7565b604080519115158252519081900360200190f35b3480156101bb57600080fd5b5061015363ffffffff600435166103c8565b3480156101d957600080fd5b5061019b63ffffffff60043516610422565b3480156101f757600080fd5b5061019b63ffffffff60043516610481565b34801561021557600080fd5b5061015363ffffffff60043516610509565b34801561023357600080fd5b50610153600160a060020a036004351661058f565b606060018054806020026020016040519081016040528092919081815260200182805480156102c257602002820191906000526020600020906000905b82829054906101000a900463ffffffff1663ffffffff16815260200190600401906020826003010492830192600103820291508084116102855790505b505050505090505b90565b60018054829081106102db57fe5b9060005260206000209060089182820401919006600402915054906101000a900463ffffffff1681565b61030d6103b7565b1515610351576040805160e560020a62461bcd02815260206004820181905260248201526000805160206109ad833981519152604482015290519081900360640190fd5b60008054604051600160a060020a03909116907f8be0079c531659141344cd1fd0a4f28419497f9722a3daafe3b4186f6b6457e0908390a36000805473ffffffffffffffffffffffffffffffffffffffff19169055565b600054600160a060020a031690565b600054600160a060020a0316331490565b6103d06103b7565b1515610414576040805160e560020a62461bcd02815260206004820181905260248201526000805160206109ad833981519152604482015290519081900360640190fd5b61041f6001826105e4565b50565b600061042c6103b7565b1515610470576040805160e560020a62461bcd02815260206004820181905260248201526000805160206109ad833981519152604482015290519081900360640190fd5b61047b6001836106ae565b92915050565b600061047b60018054806020026020016040519081016040528092919081815260200182805480156104fe57602002820191906000526020600020906000905b82829054906101000a900463ffffffff1663ffffffff16815260200190600401906020826003010492830192600103820291508084116104c15790505b5050505050836107bc565b61041f600180548060200260200160405190810160405280929190818152602001828054801561058457602002820191906000526020600020906000905b82829054906101000a900463ffffffff1663ffffffff16815260200190600401906020826003010492830192600103820291508084116105475790505b505050505082610807565b6105976103b7565b15156105db576040805160e560020a62461bcd02815260206004820181905260248201526000805160206109ad833981519152604482015290519081900360640190fd5b61041f81610867565b6106698280548060200260200160405190810160405280929190818152602001828054801561065e57602002820191906000526020600020906000905b82829054906101000a900463ffffffff1663ffffffff16815260200190600401906020826003010492830192600103820291508084116106215790505b5050505050826107bc565b15156106aa5781546001810183556000838152602090206008820401805460079092166004026101000a63ffffffff81810219909316928416029190911790555b5050565b8154600090815b81811015610709578363ffffffff1685828154811015156106d257fe5b6000918252602090912060088204015460079091166004026101000a900463ffffffff16141561070157610709565b6001016106b5565b818110156107af576000198201811461079557846001830381548110151561072d57fe5b90600052602060002090600891828204019190066004029054906101000a900463ffffffff16858281548110151561076157fe5b90600052602060002090600891828204019190066004026101000a81548163ffffffff021916908363ffffffff1602179055505b84546107a5866000198301610955565b50600192506107b4565b600092505b505092915050565b8151600090815b818110156107af578363ffffffff1685828151811015156107e057fe5b9060200190602002015163ffffffff1614156107ff57600192506107b4565b6001016107c3565b61081182826107bc565b15156106aa576040805160e560020a62461bcd02815260206004820152601f60248201527f77686974654c6973743a207573696e6720696e76616c69642075696e74333200604482015290519081900360640190fd5b600160a060020a03811615156108ed576040805160e560020a62461bcd02815260206004820152602660248201527f4f776e61626c653a206e6577206f776e657220697320746865207a65726f206160448201527f6464726573730000000000000000000000000000000000000000000000000000606482015290519081900360840190fd5b60008054604051600160a060020a03808516939216917f8be0079c531659141344cd1fd0a4f28419497f9722a3daafe3b4186f6b6457e091a36000805473ffffffffffffffffffffffffffffffffffffffff1916600160a060020a0392909216919091179055565b815481835581811115610989576007016008900481600701600890048360005260206000209182019101610989919061098e565b505050565b6102ca91905b808211156109a85760008155600101610994565b509056004f776e61626c653a2063616c6c6572206973206e6f7420746865206f776e6572a165627a7a7230582056b0b82258961dad1de3de50d9be75c9aa9c0225f760bd69e8e3d8765bc8620f0029",
  "source": "pragma solidity ^0.4.26;\r\nimport './Ownable.sol';\r\nimport \"./whiteList.sol\";\r\n    /**\r\n     * @dev Implementation of a underlyingAssets filters a eligible underlying.\r\n     */\r\ncontract UnderlyingAssets is Ownable {\r\n    // The eligible underlying list\r\n    uint32[] public underlyingAssets;\r\n    /**\r\n     * @dev Implementation of add an eligible underlying into the underlyingAssets.\r\n     * @param underlying new eligible underlying.\r\n     */\r\n    function addUnderlyingAsset(uint32 underlying)public onlyOwner{\r\n        whiteListUint32.addWhiteListUint32(underlyingAssets,underlying);\r\n    }\r\n    /**\r\n     * @dev Implementation of revoke an invalid underlying from the underlyingAssets.\r\n     * @param removeUnderlying revoked underlying.\r\n     */\r\n    function removeUnderlyingAssets(uint32 removeUnderlying)public onlyOwner returns(bool) {\r\n        return whiteListUint32.removeWhiteListUint32(underlyingAssets,removeUnderlying);\r\n    }\r\n    /**\r\n     * @dev Implementation of getting the eligible underlyingAssets.\r\n     */\r\n    function getUnderlyingAssets()public view returns (uint32[]){\r\n        return underlyingAssets;\r\n    }\r\n    /**\r\n     * @dev Implementation of testing whether the input underlying is eligible.\r\n     * @param underlying input underlying for testing.\r\n     */    \r\n    function isEligibleUnderlyingAsset(uint32 underlying) public view returns (bool){\r\n        return whiteListUint32.isEligibleUint32(underlyingAssets,underlying);\r\n    }\r\n    function checkUnderlyingAsset(uint32 underlying) public view{\r\n        return whiteListUint32.checkEligibleUint32(underlyingAssets,underlying);\r\n    }\r\n    function _getEligibleUnderlyingIndex(uint32 underlying) internal view returns (uint256){\r\n        return whiteListUint32._getEligibleIndexUint32(underlyingAssets,underlying);\r\n    }\r\n}",
  "sourcePath": "C:\\work\\solidity\\FinnexusOptions_V2\\contracts\\modules\\underlyingAssets.sol",
  "compiler": {
    "name": "solc",
    "version": "0.4.26+commit.4563c3fc.Emscripten.clang"
  },
  "schemaVersion": "3.1.0",
  "updatedAt": "2020-07-22T15:09:36.559Z",
  "devdoc": {
    "methods": {
      "addUnderlyingAsset(uint32)": {
        "details": "Implementation of add an eligible underlying into the underlyingAssets.\r",
        "params": {
          "underlying": "new eligible underlying.\r"
        }
      },
      "getUnderlyingAssets()": {
        "details": "Implementation of getting the eligible underlyingAssets.\r"
      },
      "isEligibleUnderlyingAsset(uint32)": {
        "details": "Implementation of testing whether the input underlying is eligible.\r",
        "params": {
          "underlying": "input underlying for testing.\r"
        }
      },
      "isOwner()": {
        "details": "Returns true if the caller is the current owner."
      },
      "owner()": {
        "details": "Returns the address of the current owner."
      },
      "removeUnderlyingAssets(uint32)": {
        "details": "Implementation of revoke an invalid underlying from the underlyingAssets.\r",
        "params": {
          "removeUnderlying": "revoked underlying.\r"
        }
      },
      "renounceOwnership()": {
        "details": "Leaves the contract without owner. It will not be possible to call `onlyOwner` functions anymore. Can only be called by the current owner.     * NOTE: Renouncing ownership will leave the contract without an owner, thereby removing any functionality that is only available to the owner."
      },
      "transferOwnership(address)": {
        "details": "Transfers ownership of the contract to a new account (`newOwner`). Can only be called by the current owner."
      }
    }
  },
  "userdoc": {
    "methods": {}
  }
}