{
  "contractName": "UnderlyingAssets",
  "abi": [
    {
      "constant": true,
      "inputs": [
        {
          "name": "",
          "type": "uint256"
        }
      ],
      "name": "underlyingAssets",
      "outputs": [
        {
          "name": "",
          "type": "uint32"
        }
      ],
      "payable": false,
      "stateMutability": "view",
      "type": "function"
    },
    {
      "constant": false,
      "inputs": [],
      "name": "renounceOwnership",
      "outputs": [],
      "payable": false,
      "stateMutability": "nonpayable",
      "type": "function"
    },
    {
      "constant": true,
      "inputs": [],
      "name": "owner",
      "outputs": [
        {
          "name": "",
          "type": "address"
        }
      ],
      "payable": false,
      "stateMutability": "view",
      "type": "function"
    },
    {
      "constant": true,
      "inputs": [],
      "name": "isOwner",
      "outputs": [
        {
          "name": "",
          "type": "bool"
        }
      ],
      "payable": false,
      "stateMutability": "view",
      "type": "function"
    },
    {
      "constant": false,
      "inputs": [
        {
          "name": "newOwner",
          "type": "address"
        }
      ],
      "name": "transferOwnership",
      "outputs": [],
      "payable": false,
      "stateMutability": "nonpayable",
      "type": "function"
    },
    {
      "anonymous": false,
      "inputs": [
        {
          "indexed": true,
          "name": "previousOwner",
          "type": "address"
        },
        {
          "indexed": true,
          "name": "newOwner",
          "type": "address"
        }
      ],
      "name": "OwnershipTransferred",
      "type": "event"
    },
    {
      "constant": false,
      "inputs": [
        {
          "name": "underlying",
          "type": "uint32"
        }
      ],
      "name": "addUnderlyingAsset",
      "outputs": [],
      "payable": false,
      "stateMutability": "nonpayable",
      "type": "function"
    },
    {
      "constant": false,
      "inputs": [
        {
          "name": "removeUnderlying",
          "type": "uint32"
        }
      ],
      "name": "removeunderlyingAssets",
      "outputs": [],
      "payable": false,
      "stateMutability": "nonpayable",
      "type": "function"
    },
    {
      "constant": true,
      "inputs": [],
      "name": "getunderlyingAssets",
      "outputs": [
        {
          "name": "",
          "type": "uint32[]"
        }
      ],
      "payable": false,
      "stateMutability": "view",
      "type": "function"
    },
    {
      "constant": true,
      "inputs": [
        {
          "name": "underlying",
          "type": "uint32"
        }
      ],
      "name": "isEligibleUnderlyingAsset",
      "outputs": [
        {
          "name": "",
          "type": "bool"
        }
      ],
      "payable": false,
      "stateMutability": "view",
      "type": "function"
    }
  ],
  "bytecode": "0x6080604081905260008054600160a060020a0319163317808255600160a060020a0316917f8be0079c531659141344cd1fd0a4f28419497f9722a3daafe3b4186f6b6457e0908290a36107b9806100576000396000f3006080604052600436106100985763ffffffff7c01000000000000000000000000000000000000000000000000000000006000350416633b50c4d1811461009d578063715018a6146100ce5780638da5cb5b146100e55780638f32d59b1461011657806395efd9891461013f578063afec82fc1461015d578063db6ad2bd1461017b578063eba1f56014610199578063f2fde38b146101fe575b600080fd5b3480156100a957600080fd5b506100b560043561021f565b6040805163ffffffff9092168252519081900360200190f35b3480156100da57600080fd5b506100e3610257565b005b3480156100f157600080fd5b506100fa6102fa565b60408051600160a060020a039092168252519081900360200190f35b34801561012257600080fd5b5061012b61030a565b604080519115158252519081900360200190f35b34801561014b57600080fd5b506100e363ffffffff6004351661031b565b34801561016957600080fd5b506100e363ffffffff60043516610420565b34801561018757600080fd5b5061012b63ffffffff600435166104e3565b3480156101a557600080fd5b506101ae6104fa565b60408051602080825283518183015283519192839290830191858101910280838360005b838110156101ea5781810151838201526020016101d2565b505050509050019250505060405180910390f35b34801561020a57600080fd5b506100e3600160a060020a036004351661057e565b600180548290811061022d57fe5b9060005260206000209060089182820401919006600402915054906101000a900463ffffffff1681565b61025f61030a565b15156102a3576040805160e560020a62461bcd028152602060048201819052602482015260008051602061076e833981519152604482015290519081900360640190fd5b60008054604051600160a060020a03909116907f8be0079c531659141344cd1fd0a4f28419497f9722a3daafe3b4186f6b6457e0908390a36000805473ffffffffffffffffffffffffffffffffffffffff19169055565b600054600160a060020a03165b90565b600054600160a060020a0316331490565b600061032561030a565b1515610369576040805160e560020a62461bcd028152602060048201819052602482015260008051602061076e833981519152604482015290519081900360640190fd5b610372826105d6565b60015490915081101561041c576001546000190181146104075760018054600019810190811061039e57fe5b90600052602060002090600891828204019190066004029054906101000a900463ffffffff166001828154811015156103d357fe5b90600052602060002090600891828204019190066004026101000a81548163ffffffff021916908363ffffffff1602179055505b600180549061041a906000198301610725565b505b5050565b600061042a61030a565b151561046e576040805160e560020a62461bcd028152602060048201819052602482015260008051602061076e833981519152604482015290519081900360640190fd5b610477826105d6565b60015490915081141561041c57600180548082018255600091909152600881047fb10e2d527612073b26eecdfd717e6a320cf44b4afac2b0732d9fcbe2b7fa0cf601805463ffffffff80861660046007909516949094026101000a938402930219169190911790555050565b6000806104ef836105d6565b600154119392505050565b6060600180548060200260200160405190810160405280929190818152602001828054801561057457602002820191906000526020600020906000905b82829054906101000a900463ffffffff1663ffffffff16815260200190600401906020826003010492830192600103820291508084116105375790505b5050505050905090565b61058661030a565b15156105ca576040805160e560020a62461bcd028152602060048201819052602482015260008051602061076e833981519152604482015290519081900360640190fd5b6105d381610637565b50565b6000805b600154811015610631578263ffffffff166001828154811015156105fa57fe5b6000918252602090912060088204015460079091166004026101000a900463ffffffff16141561062957610631565b6001016105da565b92915050565b600160a060020a03811615156106bd576040805160e560020a62461bcd02815260206004820152602660248201527f4f776e61626c653a206e6577206f776e657220697320746865207a65726f206160448201527f6464726573730000000000000000000000000000000000000000000000000000606482015290519081900360840190fd5b60008054604051600160a060020a03808516939216917f8be0079c531659141344cd1fd0a4f28419497f9722a3daafe3b4186f6b6457e091a36000805473ffffffffffffffffffffffffffffffffffffffff1916600160a060020a0392909216919091179055565b81548183558181111561041a5760008381526020902061041a916103079160086007928301819004820192860104015b808211156107695760008155600101610755565b509056004f776e61626c653a2063616c6c6572206973206e6f7420746865206f776e6572a165627a7a72305820bfadb4dc1b7a5b609f504b43e7eee69cc9140edec761e693043a518deb763e560029",
  "source": "pragma solidity ^0.4.26;\r\nimport './Ownable.sol';\r\n    /**\r\n     * @dev Implementation of a underlyingAssets filters a eligible underlying.\r\n     */\r\ncontract UnderlyingAssets is Ownable {\r\n    // The eligible underlying list\r\n    uint32[] public underlyingAssets;\r\n    /**\r\n     * @dev Implementation of add an eligible underlying into the underlyingAssets.\r\n     * @param underlying new eligible underlying.\r\n     */\r\n    function addUnderlyingAsset(uint32 underlying)public onlyOwner{\r\n        uint256 index = _getEligibleUnderlyingIndex(underlying);\r\n        if (index==underlyingAssets.length){\r\n            underlyingAssets.push(underlying);\r\n        }\r\n    }\r\n    /**\r\n     * @dev Implementation of revoke an invalid underlying from the underlyingAssets.\r\n     * @param removeUnderlying revoked underlying.\r\n     */\r\n    function removeunderlyingAssets(uint32 removeUnderlying)public onlyOwner {\r\n        uint256 index = _getEligibleUnderlyingIndex(removeUnderlying);\r\n        if (index<underlyingAssets.length){\r\n            if (index!=underlyingAssets.length-1) {\r\n                underlyingAssets[index] = underlyingAssets[underlyingAssets.length-1];\r\n            }\r\n            underlyingAssets.length--;\r\n        }\r\n    }\r\n    /**\r\n     * @dev Implementation of getting the eligible underlyingAssets.\r\n     */\r\n    function getunderlyingAssets()public view returns (uint32[]){\r\n        return underlyingAssets;\r\n    }\r\n    /**\r\n     * @dev Implementation of testing whether the input underlying is eligible.\r\n     * @param underlying input underlying for testing.\r\n     */    \r\n    function isEligibleUnderlyingAsset(uint32 underlying) public view returns (bool){\r\n        uint256 index = _getEligibleUnderlyingIndex(underlying);\r\n        return index<underlyingAssets.length;\r\n    }\r\n    function _getEligibleUnderlyingIndex(uint32 underlying) internal view returns (uint256){\r\n        for (uint256 i=0;i<underlyingAssets.length;i++){\r\n            if (underlyingAssets[i] == underlying)\r\n                break;\r\n        }\r\n        return i;\r\n    }\r\n}",
  "sourcePath": "C:\\work\\solidity\\FinnexusOptions_V2\\contracts\\underlyingAssets.sol",
  "compiler": {
    "name": "solc",
    "version": "0.4.26+commit.4563c3fc.Emscripten.clang"
  },
  "schemaVersion": "3.1.0",
  "updatedAt": "2020-07-16T09:47:59.070Z",
  "devdoc": {
    "methods": {
      "addUnderlyingAsset(uint32)": {
        "details": "Implementation of add an eligible underlying into the underlyingAssets.\r",
        "params": {
          "underlying": "new eligible underlying.\r"
        }
      },
      "getunderlyingAssets()": {
        "details": "Implementation of getting the eligible underlyingAssets.\r"
      },
      "isEligibleUnderlyingAsset(uint32)": {
        "details": "Implementation of testing whether the input underlying is eligible.\r",
        "params": {
          "underlying": "input underlying for testing.\r"
        }
      },
      "isOwner()": {
        "details": "Returns true if the caller is the current owner."
      },
      "owner()": {
        "details": "Returns the address of the current owner."
      },
      "removeunderlyingAssets(uint32)": {
        "details": "Implementation of revoke an invalid underlying from the underlyingAssets.\r",
        "params": {
          "removeUnderlying": "revoked underlying.\r"
        }
      },
      "renounceOwnership()": {
        "details": "Leaves the contract without owner. It will not be possible to call `onlyOwner` functions anymore. Can only be called by the current owner.     * NOTE: Renouncing ownership will leave the contract without an owner, thereby removing any functionality that is only available to the owner."
      },
      "transferOwnership(address)": {
        "details": "Transfers ownership of the contract to a new account (`newOwner`). Can only be called by the current owner."
      }
    }
  },
  "userdoc": {
    "methods": {}
  }
}